{
  "contractName": "ControllerTimelock",
  "abi": [
    {
      "inputs": [
        {
          "internalType": "uint256",
          "name": "_minDelay",
          "type": "uint256"
        },
        {
          "internalType": "address[]",
          "name": "_proposers",
          "type": "address[]"
        },
        {
          "internalType": "address[]",
          "name": "_executors",
          "type": "address[]"
        }
      ],
      "stateMutability": "nonpayable",
      "type": "constructor"
    },
    {
      "anonymous": false,
      "inputs": [
        {
          "indexed": true,
          "internalType": "bytes32",
          "name": "id",
          "type": "bytes32"
        },
        {
          "indexed": true,
          "internalType": "uint256",
          "name": "index",
          "type": "uint256"
        },
        {
          "indexed": false,
          "internalType": "address",
          "name": "target",
          "type": "address"
        },
        {
          "indexed": false,
          "internalType": "uint256",
          "name": "value",
          "type": "uint256"
        },
        {
          "indexed": false,
          "internalType": "bytes",
          "name": "data",
          "type": "bytes"
        }
      ],
      "name": "CallExecuted",
      "type": "event"
    },
    {
      "anonymous": false,
      "inputs": [
        {
          "indexed": true,
          "internalType": "bytes32",
          "name": "id",
          "type": "bytes32"
        },
        {
          "indexed": true,
          "internalType": "uint256",
          "name": "index",
          "type": "uint256"
        },
        {
          "indexed": false,
          "internalType": "address",
          "name": "target",
          "type": "address"
        },
        {
          "indexed": false,
          "internalType": "uint256",
          "name": "value",
          "type": "uint256"
        },
        {
          "indexed": false,
          "internalType": "bytes",
          "name": "data",
          "type": "bytes"
        },
        {
          "indexed": false,
          "internalType": "bytes32",
          "name": "predecessor",
          "type": "bytes32"
        },
        {
          "indexed": false,
          "internalType": "uint256",
          "name": "delay",
          "type": "uint256"
        }
      ],
      "name": "CallScheduled",
      "type": "event"
    },
    {
      "anonymous": false,
      "inputs": [
        {
          "indexed": true,
          "internalType": "bytes32",
          "name": "id",
          "type": "bytes32"
        }
      ],
      "name": "Cancelled",
      "type": "event"
    },
    {
      "anonymous": false,
      "inputs": [
        {
          "indexed": false,
          "internalType": "uint256",
          "name": "oldDuration",
          "type": "uint256"
        },
        {
          "indexed": false,
          "internalType": "uint256",
          "name": "newDuration",
          "type": "uint256"
        }
      ],
      "name": "MinDelayChange",
      "type": "event"
    },
    {
      "anonymous": false,
      "inputs": [
        {
          "indexed": true,
          "internalType": "bytes32",
          "name": "role",
          "type": "bytes32"
        },
        {
          "indexed": true,
          "internalType": "bytes32",
          "name": "previousAdminRole",
          "type": "bytes32"
        },
        {
          "indexed": true,
          "internalType": "bytes32",
          "name": "newAdminRole",
          "type": "bytes32"
        }
      ],
      "name": "RoleAdminChanged",
      "type": "event"
    },
    {
      "anonymous": false,
      "inputs": [
        {
          "indexed": true,
          "internalType": "bytes32",
          "name": "role",
          "type": "bytes32"
        },
        {
          "indexed": true,
          "internalType": "address",
          "name": "account",
          "type": "address"
        },
        {
          "indexed": true,
          "internalType": "address",
          "name": "sender",
          "type": "address"
        }
      ],
      "name": "RoleGranted",
      "type": "event"
    },
    {
      "anonymous": false,
      "inputs": [
        {
          "indexed": true,
          "internalType": "bytes32",
          "name": "role",
          "type": "bytes32"
        },
        {
          "indexed": true,
          "internalType": "address",
          "name": "account",
          "type": "address"
        },
        {
          "indexed": true,
          "internalType": "address",
          "name": "sender",
          "type": "address"
        }
      ],
      "name": "RoleRevoked",
      "type": "event"
    },
    {
      "inputs": [],
      "name": "DEFAULT_ADMIN_ROLE",
      "outputs": [
        {
          "internalType": "bytes32",
          "name": "",
          "type": "bytes32"
        }
      ],
      "stateMutability": "view",
      "type": "function"
    },
    {
      "inputs": [],
      "name": "EXECUTOR_ROLE",
      "outputs": [
        {
          "internalType": "bytes32",
          "name": "",
          "type": "bytes32"
        }
      ],
      "stateMutability": "view",
      "type": "function"
    },
    {
      "inputs": [],
      "name": "PROPOSER_ROLE",
      "outputs": [
        {
          "internalType": "bytes32",
          "name": "",
          "type": "bytes32"
        }
      ],
      "stateMutability": "view",
      "type": "function"
    },
    {
      "inputs": [],
      "name": "TIMELOCK_ADMIN_ROLE",
      "outputs": [
        {
          "internalType": "bytes32",
          "name": "",
          "type": "bytes32"
        }
      ],
      "stateMutability": "view",
      "type": "function"
    },
    {
      "inputs": [
        {
          "internalType": "bytes32",
          "name": "id",
          "type": "bytes32"
        }
      ],
      "name": "cancel",
      "outputs": [],
      "stateMutability": "nonpayable",
      "type": "function"
    },
    {
      "inputs": [
        {
          "internalType": "address",
          "name": "target",
          "type": "address"
        },
        {
          "internalType": "uint256",
          "name": "value",
          "type": "uint256"
        },
        {
          "internalType": "bytes",
          "name": "data",
          "type": "bytes"
        },
        {
          "internalType": "bytes32",
          "name": "predecessor",
          "type": "bytes32"
        },
        {
          "internalType": "bytes32",
          "name": "salt",
          "type": "bytes32"
        }
      ],
      "name": "execute",
      "outputs": [],
      "stateMutability": "payable",
      "type": "function"
    },
    {
      "inputs": [
        {
          "internalType": "address[]",
          "name": "targets",
          "type": "address[]"
        },
        {
          "internalType": "uint256[]",
          "name": "values",
          "type": "uint256[]"
        },
        {
          "internalType": "bytes[]",
          "name": "datas",
          "type": "bytes[]"
        },
        {
          "internalType": "bytes32",
          "name": "predecessor",
          "type": "bytes32"
        },
        {
          "internalType": "bytes32",
          "name": "salt",
          "type": "bytes32"
        }
      ],
      "name": "executeBatch",
      "outputs": [],
      "stateMutability": "payable",
      "type": "function"
    },
    {
      "inputs": [],
      "name": "getMinDelay",
      "outputs": [
        {
          "internalType": "uint256",
          "name": "duration",
          "type": "uint256"
        }
      ],
      "stateMutability": "view",
      "type": "function"
    },
    {
      "inputs": [
        {
          "internalType": "bytes32",
          "name": "role",
          "type": "bytes32"
        }
      ],
      "name": "getRoleAdmin",
      "outputs": [
        {
          "internalType": "bytes32",
          "name": "",
          "type": "bytes32"
        }
      ],
      "stateMutability": "view",
      "type": "function"
    },
    {
      "inputs": [
        {
          "internalType": "bytes32",
          "name": "id",
          "type": "bytes32"
        }
      ],
      "name": "getTimestamp",
      "outputs": [
        {
          "internalType": "uint256",
          "name": "timestamp",
          "type": "uint256"
        }
      ],
      "stateMutability": "view",
      "type": "function"
    },
    {
      "inputs": [
        {
          "internalType": "bytes32",
          "name": "role",
          "type": "bytes32"
        },
        {
          "internalType": "address",
          "name": "account",
          "type": "address"
        }
      ],
      "name": "grantRole",
      "outputs": [],
      "stateMutability": "nonpayable",
      "type": "function"
    },
    {
      "inputs": [
        {
          "internalType": "bytes32",
          "name": "role",
          "type": "bytes32"
        },
        {
          "internalType": "address",
          "name": "account",
          "type": "address"
        }
      ],
      "name": "hasRole",
      "outputs": [
        {
          "internalType": "bool",
          "name": "",
          "type": "bool"
        }
      ],
      "stateMutability": "view",
      "type": "function"
    },
    {
      "inputs": [
        {
          "internalType": "address",
          "name": "target",
          "type": "address"
        },
        {
          "internalType": "uint256",
          "name": "value",
          "type": "uint256"
        },
        {
          "internalType": "bytes",
          "name": "data",
          "type": "bytes"
        },
        {
          "internalType": "bytes32",
          "name": "predecessor",
          "type": "bytes32"
        },
        {
          "internalType": "bytes32",
          "name": "salt",
          "type": "bytes32"
        }
      ],
      "name": "hashOperation",
      "outputs": [
        {
          "internalType": "bytes32",
          "name": "hash",
          "type": "bytes32"
        }
      ],
      "stateMutability": "pure",
      "type": "function"
    },
    {
      "inputs": [
        {
          "internalType": "address[]",
          "name": "targets",
          "type": "address[]"
        },
        {
          "internalType": "uint256[]",
          "name": "values",
          "type": "uint256[]"
        },
        {
          "internalType": "bytes[]",
          "name": "datas",
          "type": "bytes[]"
        },
        {
          "internalType": "bytes32",
          "name": "predecessor",
          "type": "bytes32"
        },
        {
          "internalType": "bytes32",
          "name": "salt",
          "type": "bytes32"
        }
      ],
      "name": "hashOperationBatch",
      "outputs": [
        {
          "internalType": "bytes32",
          "name": "hash",
          "type": "bytes32"
        }
      ],
      "stateMutability": "pure",
      "type": "function"
    },
    {
      "inputs": [
        {
          "internalType": "bytes32",
          "name": "id",
          "type": "bytes32"
        }
      ],
      "name": "isOperation",
      "outputs": [
        {
          "internalType": "bool",
          "name": "pending",
          "type": "bool"
        }
      ],
      "stateMutability": "view",
      "type": "function"
    },
    {
      "inputs": [
        {
          "internalType": "bytes32",
          "name": "id",
          "type": "bytes32"
        }
      ],
      "name": "isOperationDone",
      "outputs": [
        {
          "internalType": "bool",
          "name": "done",
          "type": "bool"
        }
      ],
      "stateMutability": "view",
      "type": "function"
    },
    {
      "inputs": [
        {
          "internalType": "bytes32",
          "name": "id",
          "type": "bytes32"
        }
      ],
      "name": "isOperationPending",
      "outputs": [
        {
          "internalType": "bool",
          "name": "pending",
          "type": "bool"
        }
      ],
      "stateMutability": "view",
      "type": "function"
    },
    {
      "inputs": [
        {
          "internalType": "bytes32",
          "name": "id",
          "type": "bytes32"
        }
      ],
      "name": "isOperationReady",
      "outputs": [
        {
          "internalType": "bool",
          "name": "ready",
          "type": "bool"
        }
      ],
      "stateMutability": "view",
      "type": "function"
    },
    {
      "inputs": [
        {
          "internalType": "bytes32",
          "name": "role",
          "type": "bytes32"
        },
        {
          "internalType": "address",
          "name": "account",
          "type": "address"
        }
      ],
      "name": "renounceRole",
      "outputs": [],
      "stateMutability": "nonpayable",
      "type": "function"
    },
    {
      "inputs": [
        {
          "internalType": "bytes32",
          "name": "role",
          "type": "bytes32"
        },
        {
          "internalType": "address",
          "name": "account",
          "type": "address"
        }
      ],
      "name": "revokeRole",
      "outputs": [],
      "stateMutability": "nonpayable",
      "type": "function"
    },
    {
      "inputs": [
        {
          "internalType": "address",
          "name": "target",
          "type": "address"
        },
        {
          "internalType": "uint256",
          "name": "value",
          "type": "uint256"
        },
        {
          "internalType": "bytes",
          "name": "data",
          "type": "bytes"
        },
        {
          "internalType": "bytes32",
          "name": "predecessor",
          "type": "bytes32"
        },
        {
          "internalType": "bytes32",
          "name": "salt",
          "type": "bytes32"
        },
        {
          "internalType": "uint256",
          "name": "delay",
          "type": "uint256"
        }
      ],
      "name": "schedule",
      "outputs": [],
      "stateMutability": "nonpayable",
      "type": "function"
    },
    {
      "inputs": [
        {
          "internalType": "address[]",
          "name": "targets",
          "type": "address[]"
        },
        {
          "internalType": "uint256[]",
          "name": "values",
          "type": "uint256[]"
        },
        {
          "internalType": "bytes[]",
          "name": "datas",
          "type": "bytes[]"
        },
        {
          "internalType": "bytes32",
          "name": "predecessor",
          "type": "bytes32"
        },
        {
          "internalType": "bytes32",
          "name": "salt",
          "type": "bytes32"
        },
        {
          "internalType": "uint256",
          "name": "delay",
          "type": "uint256"
        }
      ],
      "name": "scheduleBatch",
      "outputs": [],
      "stateMutability": "nonpayable",
      "type": "function"
    },
    {
      "inputs": [
        {
          "internalType": "bytes4",
          "name": "interfaceId",
          "type": "bytes4"
        }
      ],
      "name": "supportsInterface",
      "outputs": [
        {
          "internalType": "bool",
          "name": "",
          "type": "bool"
        }
      ],
      "stateMutability": "view",
      "type": "function"
    },
    {
      "inputs": [
        {
          "internalType": "uint256",
          "name": "newDelay",
          "type": "uint256"
        }
      ],
      "name": "updateDelay",
      "outputs": [],
      "stateMutability": "nonpayable",
      "type": "function"
    },
    {
      "stateMutability": "payable",
      "type": "receive"
    },
    {
      "inputs": [
        {
          "internalType": "address",
          "name": "_controllerAddress",
          "type": "address"
        },
        {
          "internalType": "uint256",
          "name": "_pid",
          "type": "uint256"
        }
      ],
      "name": "updatePool",
      "outputs": [
        {
          "internalType": "uint256",
          "name": "",
          "type": "uint256"
        }
      ],
      "stateMutability": "nonpayable",
      "type": "function"
    },
    {
      "inputs": [
        {
          "internalType": "address",
          "name": "_controllerAddress",
          "type": "address"
        },
        {
          "internalType": "uint256",
          "name": "_allocPoint",
          "type": "uint256"
        },
        {
          "internalType": "contract IERC20",
          "name": "_want",
          "type": "address"
        },
        {
          "internalType": "bool",
          "name": "_withUpdate",
          "type": "bool"
        },
        {
          "internalType": "address",
          "name": "_vault",
          "type": "address"
        }
      ],
      "name": "add",
      "outputs": [],
      "stateMutability": "nonpayable",
      "type": "function"
    },
    {
      "inputs": [
        {
          "internalType": "address",
          "name": "_controllerAddress",
          "type": "address"
        }
      ],
      "name": "massUpdatePools",
      "outputs": [
        {
          "internalType": "uint256",
          "name": "",
          "type": "uint256"
        }
      ],
      "stateMutability": "nonpayable",
      "type": "function"
    }
  ],
  "bytecode": "0x60806040523480156200001157600080fd5b50604051620024b4380380620024b4833981016040819052620000349162000464565b8282826200005b600080516020620024548339815191528064010000000062000217810204565b6200008e600080516020620024748339815191526000805160206200245483398151915264010000000062000217810204565b620000c1600080516020620024948339815191526000805160206200245483398151915264010000000062000217810204565b620000f760008051602062002454833981519152620000e864010000000062000275810204565b64010000000062000279810204565b6200011b600080516020620024548339815191523064010000000062000279810204565b60005b825181101562000181576200016e60008051602062002474833981519152848381518110620001515762000151620004d7565b602002602001015162000279640100000000026401000000009004565b620001798162000506565b90506200011e565b5060005b8151811015620001cb57620001b860008051602062002494833981519152838381518110620001515762000151620004d7565b620001c38162000506565b905062000185565b5060028390556040805160008152602081018590527f11c24f4ead16507c69ac467fbd5e4eed5fb5c699626d2cc6d66421df253886d5910160405180910390a150505050505062000549565b60006200022d8364010000000062000292810204565b600084815260208190526040808220600101859055519192508391839186917fbd79b86ffe0ab8e8776151514217cd7cacd52c909f66475c3af44e129f0b00ff9190a4505050565b3390565b6200028e8282640100000000620002a7810204565b5050565b60009081526020819052604090206001015490565b620002bc828264010000000062000343810204565b6200028e57600082815260208181526040808320600160a060020a03851684529091529020805460ff19166001179055620002ff64010000000062000275810204565b600160a060020a031681600160a060020a0316837f2f8788117e7eff1d82e926ec794901d17c78024a50270940304540a733656f0d60405160405180910390a45050565b600091825260208281526040808420600160a060020a0393909316845291905290205460ff1690565b7f4e487b7100000000000000000000000000000000000000000000000000000000600052604160045260246000fd5b8051600160a060020a0381168114620003b357600080fd5b919050565b600082601f830112620003ca57600080fd5b815160206001604060020a0380831115620003e957620003e96200036c565b818302604051601f19603f830116810181811084821117156200041057620004106200036c565b6040529384528581018301938381019250878511156200042f57600080fd5b83870191505b84821015620004595762000449826200039b565b8352918301919083019062000435565b979650505050505050565b6000806000606084860312156200047a57600080fd5b8351925060208401516001604060020a03808211156200049957600080fd5b620004a787838801620003b8565b93506040860151915080821115620004be57600080fd5b50620004cd86828701620003b8565b9150509250925092565b7f4e487b7100000000000000000000000000000000000000000000000000000000600052603260045260246000fd5b600060001982141562000542577f4e487b7100000000000000000000000000000000000000000000000000000000600052601160045260246000fd5b5060010190565b611efb80620005596000396000f3fe6080604052600436106101bd576000357c01000000000000000000000000000000000000000000000000000000009004806364d6235311610109578063b1c5f427116100a7578063d547741f11610081578063d547741f146104fc578063e38335e51461051c578063f27a0c921461052f578063f6511c881461054457600080fd5b8063b1c5f4271461048f578063c4d252f5146104af578063d45c4435146104cf57600080fd5b80638f2a0bb0116100e35780638f2a0bb0146104185780638f61f4f51461043857806391d148541461045a578063a217fddf1461047a57600080fd5b806364d62353146103b85780638065657f146103d85780638ed7333d146103f857600080fd5b8063248a9ca31161017657806331d507501161015057806331d507501461033857806336568abe146103585780635362b50314610378578063584b153e1461039857600080fd5b8063248a9ca3146102b75780632ab0f529146102e75780632f2ff15d1461031857600080fd5b806301d5062a146101c957806301ffc9a7146101eb57806307bd0265146102205780630d3cf6fc14610250578063134008d31461028457806313bc9f201461029757600080fd5b366101c457005b600080fd5b3480156101d557600080fd5b506101e96101e43660046115d1565b610564565b005b3480156101f757600080fd5b5061020b610206366004611648565b6105e8565b60405190151581526020015b60405180910390f35b34801561022c57600080fd5b50610242600080516020611ea683398151915281565b604051908152602001610217565b34801561025c57600080fd5b506102427f5f58e3a2316349923ce3780f8d587db2d72378aed66a8261c916544fa6846ca581565b6101e9610292366004611687565b61067b565b3480156102a357600080fd5b5061020b6102b23660046116f5565b6106e1565b3480156102c357600080fd5b506102426102d23660046116f5565b60009081526020819052604090206001015490565b3480156102f357600080fd5b5061020b6103023660046116f5565b6000908152600160208190526040909120541490565b34801561032457600080fd5b506101e961033336600461170e565b610707565b34801561034457600080fd5b5061020b6103533660046116f5565b610732565b34801561036457600080fd5b506101e961037336600461170e565b61074b565b34801561038457600080fd5b5061024261039336600461173e565b6107df565b3480156103a457600080fd5b5061020b6103b33660046116f5565b61087a565b3480156103c457600080fd5b506101e96103d33660046116f5565b610890565b3480156103e457600080fd5b506102426103f3366004611687565b610949565b34801561040457600080fd5b5061024261041336600461175b565b610988565b34801561042457600080fd5b506101e96104333660046117cb565b610a2f565b34801561044457600080fd5b50610242600080516020611e8683398151915281565b34801561046657600080fd5b5061020b61047536600461170e565b610b76565b34801561048657600080fd5b50610242600081565b34801561049b57600080fd5b506102426104aa36600461187d565b610b9f565b3480156104bb57600080fd5b506101e96104ca3660046116f5565b610be4565b3480156104db57600080fd5b506102426104ea3660046116f5565b60009081526001602052604090205490565b34801561050857600080fd5b506101e961051736600461170e565b610cb7565b6101e961052a36600461187d565b610cdd565b34801561053b57600080fd5b50600254610242565b34801561055057600080fd5b506101e961055f366004611926565b610e06565b600080516020611e8683398151915261057d8133610ea6565b600061058d898989898989610949565b90506105998184610f0d565b6000817f4cf4410cc57040e44862ef0f45f3dd5a5e02db8eb8add648d4b0e236f1d07dca8b8b8b8b8b8a6040516105d5969594939291906119bc565b60405180910390a3505050505050505050565b60007bffffffffffffffffffffffffffffffffffffffffffffffffffffffff1982167f7965db0b00000000000000000000000000000000000000000000000000000000148061067557507f01ffc9a7000000000000000000000000000000000000000000000000000000007bffffffffffffffffffffffffffffffffffffffffffffffffffffffff198316145b92915050565b600080516020611ea6833981519152610695816000610b76565b6106a3576106a38133610ea6565b60006106b3888888888888610949565b90506106bf8185611027565b6106ce8160008a8a8a8a6110e0565b6106d781611201565b5050505050505050565b6000818152600160205260408120546001811180156107005750428111155b9392505050565b6000828152602081905260409020600101546107238133610ea6565b61072d838361123d565b505050565b60008181526001602052604081205481905b1192915050565b600160a060020a03811633146107d15760405160e560020a62461bcd02815260206004820152602f60248201527f416363657373436f6e74726f6c3a2063616e206f6e6c792072656e6f756e636560448201527f20726f6c657320666f722073656c66000000000000000000000000000000000060648201526084015b60405180910390fd5b6107db82826112c1565b5050565b6000600080516020611ea68339815191526107fa8133610ea6565b82600160a060020a031663630b5ba16040518163ffffffff167c01000000000000000000000000000000000000000000000000000000000281526004016020604051808303816000875af1158015610856573d6000803e3d6000fd5b505050506040513d601f19601f8201168201806040525081019061070091906119fa565b6000818152600160208190526040822054610744565b3330146109085760405160e560020a62461bcd02815260206004820152602b60248201527f54696d656c6f636b436f6e74726f6c6c65723a2063616c6c6572206d7573742060448201527f62652074696d656c6f636b00000000000000000000000000000000000000000060648201526084016107c8565b60025460408051918252602082018390527f11c24f4ead16507c69ac467fbd5e4eed5fb5c699626d2cc6d66421df253886d5910160405180910390a1600255565b6000868686868686604051602001610966969594939291906119bc565b6040516020818303038152906040528051906020012090509695505050505050565b6000600080516020611ea68339815191526109a38133610ea6565b6040517f51eb05a600000000000000000000000000000000000000000000000000000000815260048101849052600160a060020a038516906351eb05a6906024016020604051808303816000875af1158015610a03573d6000803e3d6000fd5b505050506040513d601f19601f82011682018060405250810190610a2791906119fa565b949350505050565b600080516020611e86833981519152610a488133610ea6565b888714610a6a5760405160e560020a62461bcd0281526004016107c890611a13565b888514610a8c5760405160e560020a62461bcd0281526004016107c890611a13565b6000610a9e8b8b8b8b8b8b8b8b610b9f565b9050610aaa8184610f0d565b60005b8a811015610b685780827f4cf4410cc57040e44862ef0f45f3dd5a5e02db8eb8add648d4b0e236f1d07dca8e8e85818110610aea57610aea611a70565b9050602002016020810190610aff919061173e565b8d8d86818110610b1157610b11611a70565b905060200201358c8c87818110610b2a57610b2a611a70565b9050602002810190610b3c9190611a9f565b8c8b604051610b50969594939291906119bc565b60405180910390a3610b6181611b15565b9050610aad565b505050505050505050505050565b600091825260208281526040808420600160a060020a0393909316845291905290205460ff1690565b60008888888888888888604051602001610bc0989796959493929190611bbe565b60405160208183030381529060405280519060200120905098975050505050505050565b600080516020611e86833981519152610bfd8133610ea6565b610c068261087a565b610c7b5760405160e560020a62461bcd02815260206004820152603160248201527f54696d656c6f636b436f6e74726f6c6c65723a206f7065726174696f6e20636160448201527f6e6e6f742062652063616e63656c6c656400000000000000000000000000000060648201526084016107c8565b6000828152600160205260408082208290555183917fbaa1eb22f2a492ba1a5fea61b8df4d27c6c8b5f3971e63bb58fa14ff72eedb7091a25050565b600082815260208190526040902060010154610cd38133610ea6565b61072d83836112c1565b600080516020611ea6833981519152610cf7816000610b76565b610d0557610d058133610ea6565b878614610d275760405160e560020a62461bcd0281526004016107c890611a13565b878414610d495760405160e560020a62461bcd0281526004016107c890611a13565b6000610d5b8a8a8a8a8a8a8a8a610b9f565b9050610d678185611027565b60005b89811015610df057610de082828d8d85818110610d8957610d89611a70565b9050602002016020810190610d9e919061173e565b8c8c86818110610db057610db0611a70565b905060200201358b8b87818110610dc957610dc9611a70565b9050602002810190610ddb9190611a9f565b6110e0565b610de981611b15565b9050610d6a565b50610dfa81611201565b50505050505050505050565b600080516020611ea6833981519152610e1f8133610ea6565b6040517f5f70edcf00000000000000000000000000000000000000000000000000000000815260048101869052600160a060020a03858116602483015284151560448301528381166064830152871690635f70edcf90608401600060405180830381600087803b158015610e9257600080fd5b505af1158015610dfa573d6000803e3d6000fd5b610eb08282610b76565b6107db57610ec881600160a060020a03166014611326565b610ed3836020611326565b604051602001610ee4929190611cb4565b60408051601f198184030181529082905260e560020a62461bcd0282526107c891600401611d35565b610f1682610732565b15610f8c5760405160e560020a62461bcd02815260206004820152602f60248201527f54696d656c6f636b436f6e74726f6c6c65723a206f7065726174696f6e20616c60448201527f7265616479207363686564756c6564000000000000000000000000000000000060648201526084016107c8565b6002548110156110075760405160e560020a62461bcd02815260206004820152602660248201527f54696d656c6f636b436f6e74726f6c6c65723a20696e73756666696369656e7460448201527f2064656c6179000000000000000000000000000000000000000000000000000060648201526084016107c8565b6110118142611d68565b6000928352600160205260409092209190915550565b611030826106e1565b61104f5760405160e560020a62461bcd0281526004016107c890611d80565b80158061106b5750600081815260016020819052604090912054145b6107db5760405160e560020a62461bcd02815260206004820152602660248201527f54696d656c6f636b436f6e74726f6c6c65723a206d697373696e67206465706560448201527f6e64656e6379000000000000000000000000000000000000000000000000000060648201526084016107c8565b600084600160a060020a03168484846040516110fd929190611ddd565b60006040518083038185875af1925050503d806000811461113a576040519150601f19603f3d011682016040523d82523d6000602084013e61113f565b606091505b50509050806111b95760405160e560020a62461bcd02815260206004820152603360248201527f54696d656c6f636b436f6e74726f6c6c65723a20756e6465726c79696e67207460448201527f72616e73616374696f6e2072657665727465640000000000000000000000000060648201526084016107c8565b85877fc2617efa69bab66782fa219543714338489c4e9e178271560a91b82c3f612b58878787876040516111f09493929190611ded565b60405180910390a350505050505050565b61120a816106e1565b6112295760405160e560020a62461bcd0281526004016107c890611d80565b600090815260016020819052604090912055565b6112478282610b76565b6107db57600082815260208181526040808320600160a060020a03851684529091529020805460ff1916600117905561127d3390565b600160a060020a031681600160a060020a0316837f2f8788117e7eff1d82e926ec794901d17c78024a50270940304540a733656f0d60405160405180910390a45050565b6112cb8282610b76565b156107db57600082815260208181526040808320600160a060020a0385168085529252808320805460ff1916905551339285917ff6391f5c32d9c69d2a47ea670b442974b53935d1edc7fd64eb21e047a839171b9190a45050565b60606000611335836002611e20565b611340906002611d68565b67ffffffffffffffff81111561135857611358611e3f565b6040519080825280601f01601f191660200182016040528015611382576020820181803683370190505b5090507f3000000000000000000000000000000000000000000000000000000000000000816000815181106113b9576113b9611a70565b60200101907effffffffffffffffffffffffffffffffffffffffffffffffffffffffffffff1916908160001a9053507f78000000000000000000000000000000000000000000000000000000000000008160018151811061141c5761141c611a70565b60200101907effffffffffffffffffffffffffffffffffffffffffffffffffffffffffffff1916908160001a9053506000611458846002611e20565b611463906001611d68565b90505b600181111561151e577f303132333435363738396162636465660000000000000000000000000000000085600f16601081106114a4576114a4611a70565b1a7f0100000000000000000000000000000000000000000000000000000000000000028282815181106114d9576114d9611a70565b60200101907effffffffffffffffffffffffffffffffffffffffffffffffffffffffffffff1916908160001a90535060109094049361151781611e6e565b9050611466565b5083156107005760405160e560020a62461bcd02815260206004820181905260248201527f537472696e67733a20686578206c656e67746820696e73756666696369656e7460448201526064016107c8565b600160a060020a038116811461158557600080fd5b50565b60008083601f84011261159a57600080fd5b50813567ffffffffffffffff8111156115b257600080fd5b6020830191508360208285010111156115ca57600080fd5b9250929050565b600080600080600080600060c0888a0312156115ec57600080fd5b87356115f781611570565b965060208801359550604088013567ffffffffffffffff81111561161a57600080fd5b6116268a828b01611588565b989b979a50986060810135976080820135975060a09091013595509350505050565b60006020828403121561165a57600080fd5b81357bffffffffffffffffffffffffffffffffffffffffffffffffffffffff198116811461070057600080fd5b60008060008060008060a087890312156116a057600080fd5b86356116ab81611570565b955060208701359450604087013567ffffffffffffffff8111156116ce57600080fd5b6116da89828a01611588565b979a9699509760608101359660809091013595509350505050565b60006020828403121561170757600080fd5b5035919050565b6000806040838503121561172157600080fd5b82359150602083013561173381611570565b809150509250929050565b60006020828403121561175057600080fd5b813561070081611570565b6000806040838503121561176e57600080fd5b823561177981611570565b946020939093013593505050565b60008083601f84011261179957600080fd5b50813567ffffffffffffffff8111156117b157600080fd5b60208301915083602080830285010111156115ca57600080fd5b600080600080600080600080600060c08a8c0312156117e957600080fd5b893567ffffffffffffffff8082111561180157600080fd5b61180d8d838e01611787565b909b50995060208c013591508082111561182657600080fd5b6118328d838e01611787565b909950975060408c013591508082111561184b57600080fd5b506118588c828d01611787565b9a9d999c50979a969997986060880135976080810135975060a0013595509350505050565b60008060008060008060008060a0898b03121561189957600080fd5b883567ffffffffffffffff808211156118b157600080fd5b6118bd8c838d01611787565b909a50985060208b01359150808211156118d657600080fd5b6118e28c838d01611787565b909850965060408b01359150808211156118fb57600080fd5b506119088b828c01611787565b999c989b509699959896976060870135966080013595509350505050565b600080600080600060a0868803121561193e57600080fd5b853561194981611570565b945060208601359350604086013561196081611570565b92506060860135801515811461197557600080fd5b9150608086013561198581611570565b809150509295509295909350565b81835281816020850137506000828201602090810191909152601f909101601f19169091010190565b600160a060020a038716815285602082015260a0604082015260006119e560a083018688611993565b60608301949094525060800152949350505050565b600060208284031215611a0c57600080fd5b5051919050565b60208082526023908201527f54696d656c6f636b436f6e74726f6c6c65723a206c656e677468206d69736d6160408201527f7463680000000000000000000000000000000000000000000000000000000000606082015260800190565b7f4e487b7100000000000000000000000000000000000000000000000000000000600052603260045260246000fd5b6000808335601e19843603018112611ab657600080fd5b83018035915067ffffffffffffffff821115611ad157600080fd5b6020019150368190038213156115ca57600080fd5b7f4e487b7100000000000000000000000000000000000000000000000000000000600052601160045260246000fd5b6000600019821415611b2957611b29611ae6565b5060010190565b818352602080840193600091908185020181018584845b87811015611bb15782840389528135601e19883603018112611b6857600080fd5b8701803567ffffffffffffffff811115611b8157600080fd5b803603891315611b9057600080fd5b611b9d8682898501611993565b9a87019a9550505090840190600101611b47565b5091979650505050505050565b60a0808252810188905260008960c08301825b8b811015611c01578235611be481611570565b600160a060020a0316825260209283019290910190600101611bd1565b5083810360208501528881527f07ffffffffffffffffffffffffffffffffffffffffffffffffffffffffffffff891115611c3a57600080fd5b602089029150818a602083013781810191505060208101600081526020848303016040850152611c6b81888a611b30565b6060850196909652505050608001529695505050505050565b60005b83811015611c9f578181015183820152602001611c87565b83811115611cae576000848401525b50505050565b7f416363657373436f6e74726f6c3a206163636f756e7420000000000000000000815260008351611cec816017850160208801611c84565b7f206973206d697373696e6720726f6c65200000000000000000000000000000006017918401918201528351611d29816028840160208801611c84565b01602801949350505050565b6020815260008251806020840152611d54816040850160208701611c84565b601f01601f19169190910160400192915050565b60008219821115611d7b57611d7b611ae6565b500190565b6020808252602a908201527f54696d656c6f636b436f6e74726f6c6c65723a206f7065726174696f6e20697360408201527f206e6f7420726561647900000000000000000000000000000000000000000000606082015260800190565b8183823760009101908152919050565b600160a060020a0385168152836020820152606060408201526000611e16606083018486611993565b9695505050505050565b6000816000190483118215151615611e3a57611e3a611ae6565b500290565b7f4e487b7100000000000000000000000000000000000000000000000000000000600052604160045260246000fd5b600081611e7d57611e7d611ae6565b50600019019056feb09aa5aeb3702cfd50b6b62bc4532604938f21248a27a1d5ca736082b6819cc1d8aa0f3194971a2a116679f7c2090f6939c8d4e01a2a8d7e41d55e5351469e63a2646970667358221220d0a585ff98ca036b92c600b1c4aaf0f0988195d9c30170007891c901594a367564736f6c634300080a00335f58e3a2316349923ce3780f8d587db2d72378aed66a8261c916544fa6846ca5b09aa5aeb3702cfd50b6b62bc4532604938f21248a27a1d5ca736082b6819cc1d8aa0f3194971a2a116679f7c2090f6939c8d4e01a2a8d7e41d55e5351469e63",
  "immutableReferences": {},
  "source": "// SPDX-License-Identifier: MIT\n\npragma solidity ^0.8.0;\n\nimport \"@openzeppelin/contracts/governance/TimelockController.sol\";\n\nimport \"../interfaces/IVault.sol\";\n\nimport \"@openzeppelin/contracts/token/ERC20/IERC20.sol\";\n\nimport \"../interfaces/IZorroController.sol\";\n\n/// @title ControllerTimelock: A contract that owns all deployed Zorro controllers for safety\ncontract ControllerTimelock is TimelockController {\n    /* Constructors */\n    constructor(\n        uint256 _minDelay,\n        address[] memory _proposers,\n        address[] memory _executors\n    ) TimelockController(_minDelay, _proposers, _executors) {}\n\n    /* No timelock functions */\n\n    // Base\n\n    function updatePool(address _controllerAddress, uint256 _pid)\n        public\n        onlyRole(EXECUTOR_ROLE)\n        returns (uint256)\n    {\n        return IZorroController(_controllerAddress).updatePool(_pid);\n    }\n\n    // PoolMgmt\n\n    function add(\n        address _controllerAddress, \n        uint256 _allocPoint,\n        IERC20 _want,\n        bool _withUpdate,\n        address _vault\n    ) public onlyRole(EXECUTOR_ROLE) {\n        IZorroController(_controllerAddress).add(\n            _allocPoint,\n            _want,\n            _withUpdate,\n            _vault\n        );\n    }\n\n    function massUpdatePools(address _controllerAddress)\n        public\n        onlyRole(EXECUTOR_ROLE)\n        returns (uint256)\n    {\n        return IZorroController(_controllerAddress).massUpdatePools();\n    }\n}\n",
  "sourcePath": "/Users/kristophm/Documents/workspace/zorro-protocol/contracts/timelock/ControllerTimelock.sol",
  "compiler": {
    "name": "solc",
    "version": "0.8.10+commit.fc410830.Emscripten.clang"
  },
  "schemaVersion": "3.4.4",
  "updatedAt": "2022-04-11T13:33:06.832Z",
  "devdoc": {
    "kind": "dev",
    "methods": {
      "cancel(bytes32)": {
        "details": "Cancel an operation. Requirements: - the caller must have the 'proposer' role."
      },
      "execute(address,uint256,bytes,bytes32,bytes32)": {
        "details": "Execute an (ready) operation containing a single transaction. Emits a {CallExecuted} event. Requirements: - the caller must have the 'executor' role."
      },
      "executeBatch(address[],uint256[],bytes[],bytes32,bytes32)": {
        "details": "Execute an (ready) operation containing a batch of transactions. Emits one {CallExecuted} event per transaction in the batch. Requirements: - the caller must have the 'executor' role."
      },
      "getMinDelay()": {
        "details": "Returns the minimum delay for an operation to become valid. This value can be changed by executing an operation that calls `updateDelay`."
      },
      "getRoleAdmin(bytes32)": {
        "details": "Returns the admin role that controls `role`. See {grantRole} and {revokeRole}. To change a role's admin, use {_setRoleAdmin}."
      },
      "getTimestamp(bytes32)": {
        "details": "Returns the timestamp at with an operation becomes ready (0 for unset operations, 1 for done operations)."
      },
      "grantRole(bytes32,address)": {
        "details": "Grants `role` to `account`. If `account` had not been already granted `role`, emits a {RoleGranted} event. Requirements: - the caller must have ``role``'s admin role."
      },
      "hasRole(bytes32,address)": {
        "details": "Returns `true` if `account` has been granted `role`."
      },
      "hashOperation(address,uint256,bytes,bytes32,bytes32)": {
        "details": "Returns the identifier of an operation containing a single transaction."
      },
      "hashOperationBatch(address[],uint256[],bytes[],bytes32,bytes32)": {
        "details": "Returns the identifier of an operation containing a batch of transactions."
      },
      "isOperation(bytes32)": {
        "details": "Returns whether an id correspond to a registered operation. This includes both Pending, Ready and Done operations."
      },
      "isOperationDone(bytes32)": {
        "details": "Returns whether an operation is done or not."
      },
      "isOperationPending(bytes32)": {
        "details": "Returns whether an operation is pending or not."
      },
      "isOperationReady(bytes32)": {
        "details": "Returns whether an operation is ready or not."
      },
      "renounceRole(bytes32,address)": {
        "details": "Revokes `role` from the calling account. Roles are often managed via {grantRole} and {revokeRole}: this function's purpose is to provide a mechanism for accounts to lose their privileges if they are compromised (such as when a trusted device is misplaced). If the calling account had been revoked `role`, emits a {RoleRevoked} event. Requirements: - the caller must be `account`."
      },
      "revokeRole(bytes32,address)": {
        "details": "Revokes `role` from `account`. If `account` had been granted `role`, emits a {RoleRevoked} event. Requirements: - the caller must have ``role``'s admin role."
      },
      "schedule(address,uint256,bytes,bytes32,bytes32,uint256)": {
        "details": "Schedule an operation containing a single transaction. Emits a {CallScheduled} event. Requirements: - the caller must have the 'proposer' role."
      },
      "scheduleBatch(address[],uint256[],bytes[],bytes32,bytes32,uint256)": {
        "details": "Schedule an operation containing a batch of transactions. Emits one {CallScheduled} event per transaction in the batch. Requirements: - the caller must have the 'proposer' role."
      },
      "supportsInterface(bytes4)": {
        "details": "See {IERC165-supportsInterface}."
      },
      "updateDelay(uint256)": {
        "details": "Changes the minimum timelock duration for future operations. Emits a {MinDelayChange} event. Requirements: - the caller must be the timelock itself. This can only be achieved by scheduling and later executing an operation where the timelock is the target and the data is the ABI-encoded call to this function."
      }
    },
    "title": "ControllerTimelock: A contract that owns all deployed Zorro controllers for safety",
    "version": 1
  },
  "userdoc": {
    "kind": "user",
    "methods": {},
    "version": 1
  }
}