{
  "contractName": "ControllerTimelock",
  "abi": [
    {
      "anonymous": false,
      "inputs": [
        {
          "indexed": true,
          "internalType": "bytes32",
          "name": "id",
          "type": "bytes32"
        },
        {
          "indexed": true,
          "internalType": "uint256",
          "name": "index",
          "type": "uint256"
        },
        {
          "indexed": false,
          "internalType": "address",
          "name": "target",
          "type": "address"
        },
        {
          "indexed": false,
          "internalType": "uint256",
          "name": "value",
          "type": "uint256"
        },
        {
          "indexed": false,
          "internalType": "bytes",
          "name": "data",
          "type": "bytes"
        }
      ],
      "name": "CallExecuted",
      "type": "event"
    },
    {
      "anonymous": false,
      "inputs": [
        {
          "indexed": true,
          "internalType": "bytes32",
          "name": "id",
          "type": "bytes32"
        },
        {
          "indexed": true,
          "internalType": "uint256",
          "name": "index",
          "type": "uint256"
        },
        {
          "indexed": false,
          "internalType": "address",
          "name": "target",
          "type": "address"
        },
        {
          "indexed": false,
          "internalType": "uint256",
          "name": "value",
          "type": "uint256"
        },
        {
          "indexed": false,
          "internalType": "bytes",
          "name": "data",
          "type": "bytes"
        },
        {
          "indexed": false,
          "internalType": "bytes32",
          "name": "predecessor",
          "type": "bytes32"
        },
        {
          "indexed": false,
          "internalType": "uint256",
          "name": "delay",
          "type": "uint256"
        }
      ],
      "name": "CallScheduled",
      "type": "event"
    },
    {
      "anonymous": false,
      "inputs": [
        {
          "indexed": true,
          "internalType": "bytes32",
          "name": "id",
          "type": "bytes32"
        }
      ],
      "name": "Cancelled",
      "type": "event"
    },
    {
      "anonymous": false,
      "inputs": [
        {
          "indexed": false,
          "internalType": "uint256",
          "name": "oldDuration",
          "type": "uint256"
        },
        {
          "indexed": false,
          "internalType": "uint256",
          "name": "newDuration",
          "type": "uint256"
        }
      ],
      "name": "MinDelayChange",
      "type": "event"
    },
    {
      "anonymous": false,
      "inputs": [
        {
          "indexed": true,
          "internalType": "bytes32",
          "name": "role",
          "type": "bytes32"
        },
        {
          "indexed": true,
          "internalType": "bytes32",
          "name": "previousAdminRole",
          "type": "bytes32"
        },
        {
          "indexed": true,
          "internalType": "bytes32",
          "name": "newAdminRole",
          "type": "bytes32"
        }
      ],
      "name": "RoleAdminChanged",
      "type": "event"
    },
    {
      "anonymous": false,
      "inputs": [
        {
          "indexed": true,
          "internalType": "bytes32",
          "name": "role",
          "type": "bytes32"
        },
        {
          "indexed": true,
          "internalType": "address",
          "name": "account",
          "type": "address"
        },
        {
          "indexed": true,
          "internalType": "address",
          "name": "sender",
          "type": "address"
        }
      ],
      "name": "RoleGranted",
      "type": "event"
    },
    {
      "anonymous": false,
      "inputs": [
        {
          "indexed": true,
          "internalType": "bytes32",
          "name": "role",
          "type": "bytes32"
        },
        {
          "indexed": true,
          "internalType": "address",
          "name": "account",
          "type": "address"
        },
        {
          "indexed": true,
          "internalType": "address",
          "name": "sender",
          "type": "address"
        }
      ],
      "name": "RoleRevoked",
      "type": "event"
    },
    {
      "inputs": [],
      "name": "DEFAULT_ADMIN_ROLE",
      "outputs": [
        {
          "internalType": "bytes32",
          "name": "",
          "type": "bytes32"
        }
      ],
      "stateMutability": "view",
      "type": "function"
    },
    {
      "inputs": [],
      "name": "EXECUTOR_ROLE",
      "outputs": [
        {
          "internalType": "bytes32",
          "name": "",
          "type": "bytes32"
        }
      ],
      "stateMutability": "view",
      "type": "function"
    },
    {
      "inputs": [],
      "name": "PROPOSER_ROLE",
      "outputs": [
        {
          "internalType": "bytes32",
          "name": "",
          "type": "bytes32"
        }
      ],
      "stateMutability": "view",
      "type": "function"
    },
    {
      "inputs": [],
      "name": "TIMELOCK_ADMIN_ROLE",
      "outputs": [
        {
          "internalType": "bytes32",
          "name": "",
          "type": "bytes32"
        }
      ],
      "stateMutability": "view",
      "type": "function"
    },
    {
      "inputs": [
        {
          "internalType": "bytes32",
          "name": "id",
          "type": "bytes32"
        }
      ],
      "name": "cancel",
      "outputs": [],
      "stateMutability": "nonpayable",
      "type": "function"
    },
    {
      "inputs": [
        {
          "internalType": "address",
          "name": "target",
          "type": "address"
        },
        {
          "internalType": "uint256",
          "name": "value",
          "type": "uint256"
        },
        {
          "internalType": "bytes",
          "name": "data",
          "type": "bytes"
        },
        {
          "internalType": "bytes32",
          "name": "predecessor",
          "type": "bytes32"
        },
        {
          "internalType": "bytes32",
          "name": "salt",
          "type": "bytes32"
        }
      ],
      "name": "execute",
      "outputs": [],
      "stateMutability": "payable",
      "type": "function"
    },
    {
      "inputs": [
        {
          "internalType": "address[]",
          "name": "targets",
          "type": "address[]"
        },
        {
          "internalType": "uint256[]",
          "name": "values",
          "type": "uint256[]"
        },
        {
          "internalType": "bytes[]",
          "name": "datas",
          "type": "bytes[]"
        },
        {
          "internalType": "bytes32",
          "name": "predecessor",
          "type": "bytes32"
        },
        {
          "internalType": "bytes32",
          "name": "salt",
          "type": "bytes32"
        }
      ],
      "name": "executeBatch",
      "outputs": [],
      "stateMutability": "payable",
      "type": "function"
    },
    {
      "inputs": [],
      "name": "getMinDelay",
      "outputs": [
        {
          "internalType": "uint256",
          "name": "duration",
          "type": "uint256"
        }
      ],
      "stateMutability": "view",
      "type": "function"
    },
    {
      "inputs": [
        {
          "internalType": "bytes32",
          "name": "role",
          "type": "bytes32"
        }
      ],
      "name": "getRoleAdmin",
      "outputs": [
        {
          "internalType": "bytes32",
          "name": "",
          "type": "bytes32"
        }
      ],
      "stateMutability": "view",
      "type": "function"
    },
    {
      "inputs": [
        {
          "internalType": "bytes32",
          "name": "id",
          "type": "bytes32"
        }
      ],
      "name": "getTimestamp",
      "outputs": [
        {
          "internalType": "uint256",
          "name": "timestamp",
          "type": "uint256"
        }
      ],
      "stateMutability": "view",
      "type": "function"
    },
    {
      "inputs": [
        {
          "internalType": "bytes32",
          "name": "role",
          "type": "bytes32"
        },
        {
          "internalType": "address",
          "name": "account",
          "type": "address"
        }
      ],
      "name": "grantRole",
      "outputs": [],
      "stateMutability": "nonpayable",
      "type": "function"
    },
    {
      "inputs": [
        {
          "internalType": "bytes32",
          "name": "role",
          "type": "bytes32"
        },
        {
          "internalType": "address",
          "name": "account",
          "type": "address"
        }
      ],
      "name": "hasRole",
      "outputs": [
        {
          "internalType": "bool",
          "name": "",
          "type": "bool"
        }
      ],
      "stateMutability": "view",
      "type": "function"
    },
    {
      "inputs": [
        {
          "internalType": "address",
          "name": "target",
          "type": "address"
        },
        {
          "internalType": "uint256",
          "name": "value",
          "type": "uint256"
        },
        {
          "internalType": "bytes",
          "name": "data",
          "type": "bytes"
        },
        {
          "internalType": "bytes32",
          "name": "predecessor",
          "type": "bytes32"
        },
        {
          "internalType": "bytes32",
          "name": "salt",
          "type": "bytes32"
        }
      ],
      "name": "hashOperation",
      "outputs": [
        {
          "internalType": "bytes32",
          "name": "hash",
          "type": "bytes32"
        }
      ],
      "stateMutability": "pure",
      "type": "function"
    },
    {
      "inputs": [
        {
          "internalType": "address[]",
          "name": "targets",
          "type": "address[]"
        },
        {
          "internalType": "uint256[]",
          "name": "values",
          "type": "uint256[]"
        },
        {
          "internalType": "bytes[]",
          "name": "datas",
          "type": "bytes[]"
        },
        {
          "internalType": "bytes32",
          "name": "predecessor",
          "type": "bytes32"
        },
        {
          "internalType": "bytes32",
          "name": "salt",
          "type": "bytes32"
        }
      ],
      "name": "hashOperationBatch",
      "outputs": [
        {
          "internalType": "bytes32",
          "name": "hash",
          "type": "bytes32"
        }
      ],
      "stateMutability": "pure",
      "type": "function"
    },
    {
      "inputs": [
        {
          "internalType": "bytes32",
          "name": "id",
          "type": "bytes32"
        }
      ],
      "name": "isOperation",
      "outputs": [
        {
          "internalType": "bool",
          "name": "pending",
          "type": "bool"
        }
      ],
      "stateMutability": "view",
      "type": "function"
    },
    {
      "inputs": [
        {
          "internalType": "bytes32",
          "name": "id",
          "type": "bytes32"
        }
      ],
      "name": "isOperationDone",
      "outputs": [
        {
          "internalType": "bool",
          "name": "done",
          "type": "bool"
        }
      ],
      "stateMutability": "view",
      "type": "function"
    },
    {
      "inputs": [
        {
          "internalType": "bytes32",
          "name": "id",
          "type": "bytes32"
        }
      ],
      "name": "isOperationPending",
      "outputs": [
        {
          "internalType": "bool",
          "name": "pending",
          "type": "bool"
        }
      ],
      "stateMutability": "view",
      "type": "function"
    },
    {
      "inputs": [
        {
          "internalType": "bytes32",
          "name": "id",
          "type": "bytes32"
        }
      ],
      "name": "isOperationReady",
      "outputs": [
        {
          "internalType": "bool",
          "name": "ready",
          "type": "bool"
        }
      ],
      "stateMutability": "view",
      "type": "function"
    },
    {
      "inputs": [
        {
          "internalType": "bytes32",
          "name": "role",
          "type": "bytes32"
        },
        {
          "internalType": "address",
          "name": "account",
          "type": "address"
        }
      ],
      "name": "renounceRole",
      "outputs": [],
      "stateMutability": "nonpayable",
      "type": "function"
    },
    {
      "inputs": [
        {
          "internalType": "bytes32",
          "name": "role",
          "type": "bytes32"
        },
        {
          "internalType": "address",
          "name": "account",
          "type": "address"
        }
      ],
      "name": "revokeRole",
      "outputs": [],
      "stateMutability": "nonpayable",
      "type": "function"
    },
    {
      "inputs": [
        {
          "internalType": "address",
          "name": "target",
          "type": "address"
        },
        {
          "internalType": "uint256",
          "name": "value",
          "type": "uint256"
        },
        {
          "internalType": "bytes",
          "name": "data",
          "type": "bytes"
        },
        {
          "internalType": "bytes32",
          "name": "predecessor",
          "type": "bytes32"
        },
        {
          "internalType": "bytes32",
          "name": "salt",
          "type": "bytes32"
        },
        {
          "internalType": "uint256",
          "name": "delay",
          "type": "uint256"
        }
      ],
      "name": "schedule",
      "outputs": [],
      "stateMutability": "nonpayable",
      "type": "function"
    },
    {
      "inputs": [
        {
          "internalType": "address[]",
          "name": "targets",
          "type": "address[]"
        },
        {
          "internalType": "uint256[]",
          "name": "values",
          "type": "uint256[]"
        },
        {
          "internalType": "bytes[]",
          "name": "datas",
          "type": "bytes[]"
        },
        {
          "internalType": "bytes32",
          "name": "predecessor",
          "type": "bytes32"
        },
        {
          "internalType": "bytes32",
          "name": "salt",
          "type": "bytes32"
        },
        {
          "internalType": "uint256",
          "name": "delay",
          "type": "uint256"
        }
      ],
      "name": "scheduleBatch",
      "outputs": [],
      "stateMutability": "nonpayable",
      "type": "function"
    },
    {
      "inputs": [
        {
          "internalType": "bytes4",
          "name": "interfaceId",
          "type": "bytes4"
        }
      ],
      "name": "supportsInterface",
      "outputs": [
        {
          "internalType": "bool",
          "name": "",
          "type": "bool"
        }
      ],
      "stateMutability": "view",
      "type": "function"
    },
    {
      "inputs": [
        {
          "internalType": "uint256",
          "name": "newDelay",
          "type": "uint256"
        }
      ],
      "name": "updateDelay",
      "outputs": [],
      "stateMutability": "nonpayable",
      "type": "function"
    },
    {
      "stateMutability": "payable",
      "type": "receive"
    },
    {
      "inputs": [
        {
          "internalType": "address",
          "name": "_controllerAddress",
          "type": "address"
        },
        {
          "internalType": "uint256",
          "name": "_pid",
          "type": "uint256"
        }
      ],
      "name": "updatePool",
      "outputs": [
        {
          "internalType": "uint256",
          "name": "",
          "type": "uint256"
        }
      ],
      "stateMutability": "nonpayable",
      "type": "function"
    },
    {
      "inputs": [
        {
          "internalType": "address",
          "name": "_controllerAddress",
          "type": "address"
        },
        {
          "internalType": "uint256",
          "name": "_allocPoint",
          "type": "uint256"
        },
        {
          "internalType": "contract IERC20Upgradeable",
          "name": "_want",
          "type": "address"
        },
        {
          "internalType": "bool",
          "name": "_withUpdate",
          "type": "bool"
        },
        {
          "internalType": "address",
          "name": "_vault",
          "type": "address"
        }
      ],
      "name": "add",
      "outputs": [],
      "stateMutability": "nonpayable",
      "type": "function"
    },
    {
      "inputs": [
        {
          "internalType": "address",
          "name": "_controllerAddress",
          "type": "address"
        }
      ],
      "name": "massUpdatePools",
      "outputs": [
        {
          "internalType": "uint256",
          "name": "",
          "type": "uint256"
        }
      ],
      "stateMutability": "nonpayable",
      "type": "function"
    },
    {
      "inputs": [
        {
          "internalType": "address",
          "name": "_controllerAddress",
          "type": "address"
        },
        {
          "internalType": "uint256",
          "name": "_zorroChainId",
          "type": "uint256"
        },
        {
          "internalType": "bytes",
          "name": "_controller",
          "type": "bytes"
        }
      ],
      "name": "setControllerContract",
      "outputs": [],
      "stateMutability": "nonpayable",
      "type": "function"
    },
    {
      "inputs": [
        {
          "internalType": "address",
          "name": "_controllerAddress",
          "type": "address"
        },
        {
          "internalType": "uint256",
          "name": "_zorroChainId",
          "type": "uint256"
        },
        {
          "internalType": "uint16",
          "name": "_lzChainId",
          "type": "uint16"
        }
      ],
      "name": "setZorroChainToLZMap",
      "outputs": [],
      "stateMutability": "nonpayable",
      "type": "function"
    },
    {
      "inputs": [
        {
          "internalType": "address",
          "name": "_controllerAddress",
          "type": "address"
        },
        {
          "internalType": "uint256",
          "name": "_zorroChainId",
          "type": "uint256"
        },
        {
          "internalType": "uint16",
          "name": "_stargatePoolId",
          "type": "uint16"
        }
      ],
      "name": "setStargateDestPoolIds",
      "outputs": [],
      "stateMutability": "nonpayable",
      "type": "function"
    },
    {
      "inputs": [
        {
          "internalType": "address",
          "name": "_controllerAddress",
          "type": "address"
        },
        {
          "internalType": "address",
          "name": "_stargateRouter",
          "type": "address"
        },
        {
          "internalType": "uint256",
          "name": "_stargateSwapPoolId",
          "type": "uint256"
        },
        {
          "internalType": "address",
          "name": "_layerZeroEndpoint",
          "type": "address"
        }
      ],
      "name": "setLayerZeroParams",
      "outputs": [],
      "stateMutability": "nonpayable",
      "type": "function"
    }
  ],
  "bytecode": "0x608060405234801561001057600080fd5b506122d9806100206000396000f3fe6080604052600436106101f9576000357c0100000000000000000000000000000000000000000000000000000000900480635c4674b01161011f578063a217fddf116100b2578063d547741f11610081578063d547741f146105b7578063e38335e5146105d7578063f27a0c92146105ea578063f6511c88146105ff57600080fd5b8063a217fddf14610535578063b1c5f4271461054a578063c4d252f51461056a578063d45c44351461058a57600080fd5b80638f2a0bb0116100ee5780638f2a0bb0146104b35780638f61f4f5146104d357806390a8875d146104f557806391d148541461051557600080fd5b80635c4674b01461043357806364d62353146104535780638065657f146104735780638ed7333d1461049357600080fd5b80632ab0f529116101975780633933fc04116101665780633933fc04146103b357806343b05ff8146103d35780635362b503146103f3578063584b153e1461041357600080fd5b80632ab0f529146103235780632f2ff15d1461035357806331d507501461037357806336568abe1461039357600080fd5b80630d3cf6fc116101d35780630d3cf6fc1461028c578063134008d3146102c057806313bc9f20146102d3578063248a9ca3146102f357600080fd5b806301d5062a1461020557806301ffc9a71461022757806307bd02651461025c57600080fd5b3661020057005b600080fd5b34801561021157600080fd5b50610225610220366004611894565b61061f565b005b34801561023357600080fd5b5061024761024236600461190b565b6106a3565b60405190151581526020015b60405180910390f35b34801561026857600080fd5b5061027e60008051602061228483398151915281565b604051908152602001610253565b34801561029857600080fd5b5061027e7f5f58e3a2316349923ce3780f8d587db2d72378aed66a8261c916544fa6846ca581565b6102256102ce36600461194a565b610736565b3480156102df57600080fd5b506102476102ee3660046119b8565b61079c565b3480156102ff57600080fd5b5061027e61030e3660046119b8565b60009081526065602052604090206001015490565b34801561032f57600080fd5b5061024761033e3660046119b8565b60009081526097602052604090205460011490565b34801561035f57600080fd5b5061022561036e3660046119d1565b6107c2565b34801561037f57600080fd5b5061024761038e3660046119b8565b6107ed565b34801561039f57600080fd5b506102256103ae3660046119d1565b610806565b3480156103bf57600080fd5b506102256103ce366004611a01565b61089a565b3480156103df57600080fd5b506102256103ee366004611a01565b61092d565b3480156103ff57600080fd5b5061027e61040e366004611a4a565b610996565b34801561041f57600080fd5b5061024761042e3660046119b8565b610a31565b34801561043f57600080fd5b5061022561044e366004611a67565b610a48565b34801561045f57600080fd5b5061022561046e3660046119b8565b610aec565b34801561047f57600080fd5b5061027e61048e36600461194a565b610ba5565b34801561049f57600080fd5b5061027e6104ae366004611aba565b610be4565b3480156104bf57600080fd5b506102256104ce366004611b2a565b610c8b565b3480156104df57600080fd5b5061027e60008051602061226483398151915281565b34801561050157600080fd5b50610225610510366004611bdc565b610dd2565b34801561052157600080fd5b506102476105303660046119d1565b610e34565b34801561054157600080fd5b5061027e600081565b34801561055657600080fd5b5061027e610565366004611c38565b610e5f565b34801561057657600080fd5b506102256105853660046119b8565b610ea4565b34801561059657600080fd5b5061027e6105a53660046119b8565b60009081526097602052604090205490565b3480156105c357600080fd5b506102256105d23660046119d1565b610f77565b6102256105e5366004611c38565b610f9d565b3480156105f657600080fd5b5060985461027e565b34801561060b57600080fd5b5061022561061a366004611ce1565b6110c6565b6000805160206122648339815191526106388133611166565b6000610648898989898989610ba5565b905061065481846111cd565b6000817f4cf4410cc57040e44862ef0f45f3dd5a5e02db8eb8add648d4b0e236f1d07dca8b8b8b8b8b8a60405161069096959493929190611d77565b60405180910390a3505050505050505050565b60007bffffffffffffffffffffffffffffffffffffffffffffffffffffffff1982167f7965db0b00000000000000000000000000000000000000000000000000000000148061073057507f01ffc9a7000000000000000000000000000000000000000000000000000000007bffffffffffffffffffffffffffffffffffffffffffffffffffffffff198316145b92915050565b600080516020612284833981519152610750816000610e34565b61075e5761075e8133611166565b600061076e888888888888610ba5565b905061077a81856112e7565b6107898160008a8a8a8a61139f565b610792816114c0565b5050505050505050565b6000818152609760205260408120546001811180156107bb5750428111155b9392505050565b6000828152606560205260409020600101546107de8133611166565b6107e883836114fc565b505050565b60008181526097602052604081205481905b1192915050565b600160a060020a038116331461088c5760405160e560020a62461bcd02815260206004820152602f60248201527f416363657373436f6e74726f6c3a2063616e206f6e6c792072656e6f756e636560448201527f20726f6c657320666f722073656c66000000000000000000000000000000000060648201526084015b60405180910390fd5b6108968282611582565b5050565b6000805160206122848339815191526108b38133611166565b6040517f8b5694d60000000000000000000000000000000000000000000000000000000081526004810184905261ffff83166024820152600160a060020a03851690638b5694d6906044015b600060405180830381600087803b15801561091957600080fd5b505af1158015610792573d6000803e3d6000fd5b6000805160206122848339815191526109468133611166565b6040517f7f633ea80000000000000000000000000000000000000000000000000000000081526004810184905261ffff83166024820152600160a060020a03851690637f633ea8906044016108ff565b60006000805160206122848339815191526109b18133611166565b82600160a060020a031663630b5ba16040518163ffffffff167c01000000000000000000000000000000000000000000000000000000000281526004016020604051808303816000875af1158015610a0d573d6000803e3d6000fd5b505050506040513d601f19601f820116820180604052508101906107bb9190611db5565b6000818152609760205260408120546001906107ff565b600080516020612284833981519152610a618133611166565b6040517f7bd45522000000000000000000000000000000000000000000000000000000008152600160a060020a038581166004830152602482018590528381166044830152861690637bd45522906064015b600060405180830381600087803b158015610acd57600080fd5b505af1158015610ae1573d6000803e3d6000fd5b505050505050505050565b333014610b645760405160e560020a62461bcd02815260206004820152602b60248201527f54696d656c6f636b436f6e74726f6c6c65723a2063616c6c6572206d7573742060448201527f62652074696d656c6f636b0000000000000000000000000000000000000000006064820152608401610883565b60985460408051918252602082018390527f11c24f4ead16507c69ac467fbd5e4eed5fb5c699626d2cc6d66421df253886d5910160405180910390a1609855565b6000868686868686604051602001610bc296959493929190611d77565b6040516020818303038152906040528051906020012090509695505050505050565b6000600080516020612284833981519152610bff8133611166565b6040517f51eb05a600000000000000000000000000000000000000000000000000000000815260048101849052600160a060020a038516906351eb05a6906024016020604051808303816000875af1158015610c5f573d6000803e3d6000fd5b505050506040513d601f19601f82011682018060405250810190610c839190611db5565b949350505050565b600080516020612264833981519152610ca48133611166565b888714610cc65760405160e560020a62461bcd02815260040161088390611dce565b888514610ce85760405160e560020a62461bcd02815260040161088390611dce565b6000610cfa8b8b8b8b8b8b8b8b610e5f565b9050610d0681846111cd565b60005b8a811015610dc45780827f4cf4410cc57040e44862ef0f45f3dd5a5e02db8eb8add648d4b0e236f1d07dca8e8e85818110610d4657610d46611e2b565b9050602002016020810190610d5b9190611a4a565b8d8d86818110610d6d57610d6d611e2b565b905060200201358c8c87818110610d8657610d86611e2b565b9050602002810190610d989190611e5a565b8c8b604051610dac96959493929190611d77565b60405180910390a3610dbd81611ed0565b9050610d09565b505050505050505050505050565b600080516020612284833981519152610deb8133611166565b6040517f13a2e880000000000000000000000000000000000000000000000000000000008152600160a060020a038616906313a2e88090610ab390879087908790600401611eeb565b6000918252606560209081526040808420600160a060020a0393909316845291905290205460ff1690565b60008888888888888888604051602001610e80989796959493929190611f9c565b60405160208183030381529060405280519060200120905098975050505050505050565b600080516020612264833981519152610ebd8133611166565b610ec682610a31565b610f3b5760405160e560020a62461bcd02815260206004820152603160248201527f54696d656c6f636b436f6e74726f6c6c65723a206f7065726174696f6e20636160448201527f6e6e6f742062652063616e63656c6c65640000000000000000000000000000006064820152608401610883565b6000828152609760205260408082208290555183917fbaa1eb22f2a492ba1a5fea61b8df4d27c6c8b5f3971e63bb58fa14ff72eedb7091a25050565b600082815260656020526040902060010154610f938133611166565b6107e88383611582565b600080516020612284833981519152610fb7816000610e34565b610fc557610fc58133611166565b878614610fe75760405160e560020a62461bcd02815260040161088390611dce565b8784146110095760405160e560020a62461bcd02815260040161088390611dce565b600061101b8a8a8a8a8a8a8a8a610e5f565b905061102781856112e7565b60005b898110156110b0576110a082828d8d8581811061104957611049611e2b565b905060200201602081019061105e9190611a4a565b8c8c8681811061107057611070611e2b565b905060200201358b8b8781811061108957611089611e2b565b905060200281019061109b9190611e5a565b61139f565b6110a981611ed0565b905061102a565b506110ba816114c0565b50505050505050505050565b6000805160206122848339815191526110df8133611166565b6040517f5f70edcf00000000000000000000000000000000000000000000000000000000815260048101869052600160a060020a03858116602483015284151560448301528381166064830152871690635f70edcf90608401600060405180830381600087803b15801561115257600080fd5b505af11580156110ba573d6000803e3d6000fd5b6111708282610e34565b6108965761118881600160a060020a031660146115e9565b6111938360206115e9565b6040516020016111a4929190612092565b60408051601f198184030181529082905260e560020a62461bcd02825261088391600401612113565b6111d6826107ed565b1561124c5760405160e560020a62461bcd02815260206004820152602f60248201527f54696d656c6f636b436f6e74726f6c6c65723a206f7065726174696f6e20616c60448201527f7265616479207363686564756c656400000000000000000000000000000000006064820152608401610883565b6098548110156112c75760405160e560020a62461bcd02815260206004820152602660248201527f54696d656c6f636b436f6e74726f6c6c65723a20696e73756666696369656e7460448201527f2064656c617900000000000000000000000000000000000000000000000000006064820152608401610883565b6112d18142612146565b6000928352609760205260409092209190915550565b6112f08261079c565b61130f5760405160e560020a62461bcd0281526004016108839061215e565b80158061132a57506000818152609760205260409020546001145b6108965760405160e560020a62461bcd02815260206004820152602660248201527f54696d656c6f636b436f6e74726f6c6c65723a206d697373696e67206465706560448201527f6e64656e637900000000000000000000000000000000000000000000000000006064820152608401610883565b600084600160a060020a03168484846040516113bc9291906121bb565b60006040518083038185875af1925050503d80600081146113f9576040519150601f19603f3d011682016040523d82523d6000602084013e6113fe565b606091505b50509050806114785760405160e560020a62461bcd02815260206004820152603360248201527f54696d656c6f636b436f6e74726f6c6c65723a20756e6465726c79696e67207460448201527f72616e73616374696f6e207265766572746564000000000000000000000000006064820152608401610883565b85877fc2617efa69bab66782fa219543714338489c4e9e178271560a91b82c3f612b58878787876040516114af94939291906121cb565b60405180910390a350505050505050565b6114c98161079c565b6114e85760405160e560020a62461bcd0281526004016108839061215e565b600090815260976020526040902060019055565b6115068282610e34565b610896576000828152606560209081526040808320600160a060020a03851684529091529020805460ff1916600117905561153e3390565b600160a060020a031681600160a060020a0316837f2f8788117e7eff1d82e926ec794901d17c78024a50270940304540a733656f0d60405160405180910390a45050565b61158c8282610e34565b15610896576000828152606560209081526040808320600160a060020a0385168085529252808320805460ff1916905551339285917ff6391f5c32d9c69d2a47ea670b442974b53935d1edc7fd64eb21e047a839171b9190a45050565b606060006115f88360026121fe565b611603906002612146565b67ffffffffffffffff81111561161b5761161b61221d565b6040519080825280601f01601f191660200182016040528015611645576020820181803683370190505b5090507f30000000000000000000000000000000000000000000000000000000000000008160008151811061167c5761167c611e2b565b60200101907effffffffffffffffffffffffffffffffffffffffffffffffffffffffffffff1916908160001a9053507f7800000000000000000000000000000000000000000000000000000000000000816001815181106116df576116df611e2b565b60200101907effffffffffffffffffffffffffffffffffffffffffffffffffffffffffffff1916908160001a905350600061171b8460026121fe565b611726906001612146565b90505b60018111156117e1577f303132333435363738396162636465660000000000000000000000000000000085600f166010811061176757611767611e2b565b1a7f01000000000000000000000000000000000000000000000000000000000000000282828151811061179c5761179c611e2b565b60200101907effffffffffffffffffffffffffffffffffffffffffffffffffffffffffffff1916908160001a9053506010909404936117da8161224c565b9050611729565b5083156107bb5760405160e560020a62461bcd02815260206004820181905260248201527f537472696e67733a20686578206c656e67746820696e73756666696369656e746044820152606401610883565b600160a060020a038116811461184857600080fd5b50565b60008083601f84011261185d57600080fd5b50813567ffffffffffffffff81111561187557600080fd5b60208301915083602082850101111561188d57600080fd5b9250929050565b600080600080600080600060c0888a0312156118af57600080fd5b87356118ba81611833565b965060208801359550604088013567ffffffffffffffff8111156118dd57600080fd5b6118e98a828b0161184b565b989b979a50986060810135976080820135975060a09091013595509350505050565b60006020828403121561191d57600080fd5b81357bffffffffffffffffffffffffffffffffffffffffffffffffffffffff19811681146107bb57600080fd5b60008060008060008060a0878903121561196357600080fd5b863561196e81611833565b955060208701359450604087013567ffffffffffffffff81111561199157600080fd5b61199d89828a0161184b565b979a9699509760608101359660809091013595509350505050565b6000602082840312156119ca57600080fd5b5035919050565b600080604083850312156119e457600080fd5b8235915060208301356119f681611833565b809150509250929050565b600080600060608486031215611a1657600080fd5b8335611a2181611833565b925060208401359150604084013561ffff81168114611a3f57600080fd5b809150509250925092565b600060208284031215611a5c57600080fd5b81356107bb81611833565b60008060008060808587031215611a7d57600080fd5b8435611a8881611833565b93506020850135611a9881611833565b9250604085013591506060850135611aaf81611833565b939692955090935050565b60008060408385031215611acd57600080fd5b8235611ad881611833565b946020939093013593505050565b60008083601f840112611af857600080fd5b50813567ffffffffffffffff811115611b1057600080fd5b602083019150836020808302850101111561188d57600080fd5b600080600080600080600080600060c08a8c031215611b4857600080fd5b893567ffffffffffffffff80821115611b6057600080fd5b611b6c8d838e01611ae6565b909b50995060208c0135915080821115611b8557600080fd5b611b918d838e01611ae6565b909950975060408c0135915080821115611baa57600080fd5b50611bb78c828d01611ae6565b9a9d999c50979a969997986060880135976080810135975060a0013595509350505050565b60008060008060608587031215611bf257600080fd5b8435611bfd81611833565b935060208501359250604085013567ffffffffffffffff811115611c2057600080fd5b611c2c8782880161184b565b95989497509550505050565b60008060008060008060008060a0898b031215611c5457600080fd5b883567ffffffffffffffff80821115611c6c57600080fd5b611c788c838d01611ae6565b909a50985060208b0135915080821115611c9157600080fd5b611c9d8c838d01611ae6565b909850965060408b0135915080821115611cb657600080fd5b50611cc38b828c01611ae6565b999c989b509699959896976060870135966080013595509350505050565b600080600080600060a08688031215611cf957600080fd5b8535611d0481611833565b9450602086013593506040860135611d1b81611833565b925060608601358015158114611d3057600080fd5b91506080860135611d4081611833565b809150509295509295909350565b81835281816020850137506000828201602090810191909152601f909101601f19169091010190565b600160a060020a038716815285602082015260a060408201526000611da060a083018688611d4e565b60608301949094525060800152949350505050565b600060208284031215611dc757600080fd5b5051919050565b60208082526023908201527f54696d656c6f636b436f6e74726f6c6c65723a206c656e677468206d69736d6160408201527f7463680000000000000000000000000000000000000000000000000000000000606082015260800190565b7f4e487b7100000000000000000000000000000000000000000000000000000000600052603260045260246000fd5b6000808335601e19843603018112611e7157600080fd5b83018035915067ffffffffffffffff821115611e8c57600080fd5b60200191503681900382131561188d57600080fd5b7f4e487b7100000000000000000000000000000000000000000000000000000000600052601160045260246000fd5b6000600019821415611ee457611ee4611ea1565b5060010190565b838152604060208201526000611f05604083018486611d4e565b95945050505050565b818352602080840193600091908185020181018584845b87811015611f8f5782840389528135601e19883603018112611f4657600080fd5b8701803567ffffffffffffffff811115611f5f57600080fd5b803603891315611f6e57600080fd5b611f7b8682898501611d4e565b9a87019a9550505090840190600101611f25565b5091979650505050505050565b60a0808252810188905260008960c08301825b8b811015611fdf578235611fc281611833565b600160a060020a0316825260209283019290910190600101611faf565b5083810360208501528881527f07ffffffffffffffffffffffffffffffffffffffffffffffffffffffffffffff89111561201857600080fd5b602089029150818a60208301378181019150506020810160008152602084830301604085015261204981888a611f0e565b6060850196909652505050608001529695505050505050565b60005b8381101561207d578181015183820152602001612065565b8381111561208c576000848401525b50505050565b7f416363657373436f6e74726f6c3a206163636f756e74200000000000000000008152600083516120ca816017850160208801612062565b7f206973206d697373696e6720726f6c65200000000000000000000000000000006017918401918201528351612107816028840160208801612062565b01602801949350505050565b6020815260008251806020840152612132816040850160208701612062565b601f01601f19169190910160400192915050565b6000821982111561215957612159611ea1565b500190565b6020808252602a908201527f54696d656c6f636b436f6e74726f6c6c65723a206f7065726174696f6e20697360408201527f206e6f7420726561647900000000000000000000000000000000000000000000606082015260800190565b8183823760009101908152919050565b600160a060020a03851681528360208201526060604082015260006121f4606083018486611d4e565b9695505050505050565b600081600019048311821515161561221857612218611ea1565b500290565b7f4e487b7100000000000000000000000000000000000000000000000000000000600052604160045260246000fd5b60008161225b5761225b611ea1565b50600019019056feb09aa5aeb3702cfd50b6b62bc4532604938f21248a27a1d5ca736082b6819cc1d8aa0f3194971a2a116679f7c2090f6939c8d4e01a2a8d7e41d55e5351469e63a2646970667358221220bc9e47328f81c6f21f80cb914e3c1f6aa9d98df521fb7f4c27deea4900fb224764736f6c634300080a0033",
  "immutableReferences": {},
  "source": "// SPDX-License-Identifier: MIT\n\npragma solidity ^0.8.0;\n\nimport \"@openzeppelin/contracts-upgradeable/governance/TimelockControllerUpgradeable.sol\";\n\nimport \"../interfaces/IVault.sol\";\n\nimport \"@openzeppelin/contracts-upgradeable/token/ERC20/IERC20Upgradeable.sol\";\n\nimport \"../interfaces/IZorroController.sol\";\n\nimport \"../interfaces/IZorroControllerXChain.sol\";\n\n/// @title ControllerTimelock: A contract that owns all deployed Zorro controllers for safety\ncontract ControllerTimelock is TimelockControllerUpgradeable {\n    /* No timelock functions */\n\n    /* ZorroController */\n\n    // Base\n\n    function updatePool(address _controllerAddress, uint256 _pid)\n        public\n        onlyRole(EXECUTOR_ROLE)\n        returns (uint256)\n    {\n        return IZorroController(_controllerAddress).updatePool(_pid);\n    }\n\n    // PoolMgmt\n\n    function add(\n        address _controllerAddress, \n        uint256 _allocPoint,\n        IERC20Upgradeable _want,\n        bool _withUpdate,\n        address _vault\n    ) public onlyRole(EXECUTOR_ROLE) {\n        IZorroController(_controllerAddress).add(\n            _allocPoint,\n            _want,\n            _withUpdate,\n            _vault\n        );\n    }\n\n    function massUpdatePools(address _controllerAddress)\n        public\n        onlyRole(EXECUTOR_ROLE)\n        returns (uint256)\n    {\n        return IZorroController(_controllerAddress).massUpdatePools();\n    }\n\n    /* ZorroControllerXChain */\n\n    function setControllerContract(\n        address _controllerAddress, \n        uint256 _zorroChainId,\n        bytes calldata _controller\n    ) public onlyRole(EXECUTOR_ROLE) {\n        IZorroControllerXChain(_controllerAddress).setControllerContract(_zorroChainId, _controller);\n    }\n\n    function setZorroChainToLZMap(address _controllerAddress, uint256 _zorroChainId, uint16 _lzChainId)\n        public\n        onlyRole(EXECUTOR_ROLE)\n    {\n        IZorroControllerXChain(_controllerAddress).setZorroChainToLZMap(_zorroChainId, _lzChainId);\n    }\n\n    function setStargateDestPoolIds(\n        address _controllerAddress, \n        uint256 _zorroChainId,\n        uint16 _stargatePoolId\n    ) public onlyRole(EXECUTOR_ROLE) {\n        IZorroControllerXChain(_controllerAddress).setStargateDestPoolIds(_zorroChainId, _stargatePoolId);\n    }\n\n    function setLayerZeroParams(\n        address _controllerAddress, \n        address _stargateRouter,\n        uint256 _stargateSwapPoolId,\n        address _layerZeroEndpoint\n    ) public onlyRole(EXECUTOR_ROLE) {\n        IZorroControllerXChain(_controllerAddress).setLayerZeroParams(_stargateRouter, _stargateSwapPoolId, _layerZeroEndpoint);\n    }\n}\n",
  "sourcePath": "/Users/kristophm/Documents/workspace/zorro-protocol/contracts/timelock/ControllerTimelock.sol",
  "compiler": {
    "name": "solc",
    "version": "0.8.10+commit.fc410830.Emscripten.clang"
  },
  "schemaVersion": "3.4.10",
  "updatedAt": "2022-11-21T01:35:07.224Z",
  "devdoc": {
    "kind": "dev",
    "methods": {
      "cancel(bytes32)": {
        "details": "Cancel an operation. Requirements: - the caller must have the 'proposer' role."
      },
      "execute(address,uint256,bytes,bytes32,bytes32)": {
        "details": "Execute an (ready) operation containing a single transaction. Emits a {CallExecuted} event. Requirements: - the caller must have the 'executor' role."
      },
      "executeBatch(address[],uint256[],bytes[],bytes32,bytes32)": {
        "details": "Execute an (ready) operation containing a batch of transactions. Emits one {CallExecuted} event per transaction in the batch. Requirements: - the caller must have the 'executor' role."
      },
      "getMinDelay()": {
        "details": "Returns the minimum delay for an operation to become valid. This value can be changed by executing an operation that calls `updateDelay`."
      },
      "getRoleAdmin(bytes32)": {
        "details": "Returns the admin role that controls `role`. See {grantRole} and {revokeRole}. To change a role's admin, use {_setRoleAdmin}."
      },
      "getTimestamp(bytes32)": {
        "details": "Returns the timestamp at with an operation becomes ready (0 for unset operations, 1 for done operations)."
      },
      "grantRole(bytes32,address)": {
        "details": "Grants `role` to `account`. If `account` had not been already granted `role`, emits a {RoleGranted} event. Requirements: - the caller must have ``role``'s admin role."
      },
      "hasRole(bytes32,address)": {
        "details": "Returns `true` if `account` has been granted `role`."
      },
      "hashOperation(address,uint256,bytes,bytes32,bytes32)": {
        "details": "Returns the identifier of an operation containing a single transaction."
      },
      "hashOperationBatch(address[],uint256[],bytes[],bytes32,bytes32)": {
        "details": "Returns the identifier of an operation containing a batch of transactions."
      },
      "isOperation(bytes32)": {
        "details": "Returns whether an id correspond to a registered operation. This includes both Pending, Ready and Done operations."
      },
      "isOperationDone(bytes32)": {
        "details": "Returns whether an operation is done or not."
      },
      "isOperationPending(bytes32)": {
        "details": "Returns whether an operation is pending or not."
      },
      "isOperationReady(bytes32)": {
        "details": "Returns whether an operation is ready or not."
      },
      "renounceRole(bytes32,address)": {
        "details": "Revokes `role` from the calling account. Roles are often managed via {grantRole} and {revokeRole}: this function's purpose is to provide a mechanism for accounts to lose their privileges if they are compromised (such as when a trusted device is misplaced). If the calling account had been revoked `role`, emits a {RoleRevoked} event. Requirements: - the caller must be `account`."
      },
      "revokeRole(bytes32,address)": {
        "details": "Revokes `role` from `account`. If `account` had been granted `role`, emits a {RoleRevoked} event. Requirements: - the caller must have ``role``'s admin role."
      },
      "schedule(address,uint256,bytes,bytes32,bytes32,uint256)": {
        "details": "Schedule an operation containing a single transaction. Emits a {CallScheduled} event. Requirements: - the caller must have the 'proposer' role."
      },
      "scheduleBatch(address[],uint256[],bytes[],bytes32,bytes32,uint256)": {
        "details": "Schedule an operation containing a batch of transactions. Emits one {CallScheduled} event per transaction in the batch. Requirements: - the caller must have the 'proposer' role."
      },
      "supportsInterface(bytes4)": {
        "details": "See {IERC165-supportsInterface}."
      },
      "updateDelay(uint256)": {
        "details": "Changes the minimum timelock duration for future operations. Emits a {MinDelayChange} event. Requirements: - the caller must be the timelock itself. This can only be achieved by scheduling and later executing an operation where the timelock is the target and the data is the ABI-encoded call to this function."
      }
    },
    "title": "ControllerTimelock: A contract that owns all deployed Zorro controllers for safety",
    "version": 1
  },
  "userdoc": {
    "kind": "user",
    "methods": {},
    "version": 1
  }
}