{
  "contractName": "Math",
  "abi": [
    {
      "inputs": [
        {
          "internalType": "uint256",
          "name": "x",
          "type": "uint256"
        }
      ],
      "name": "sqrt",
      "outputs": [
        {
          "internalType": "uint256",
          "name": "y",
          "type": "uint256"
        }
      ],
      "stateMutability": "pure",
      "type": "function",
      "constant": true
    }
  ],
  "bytecode": "0x6101bb610053600b82828239805160001a607314610046577f4e487b7100000000000000000000000000000000000000000000000000000000600052600060045260246000fd5b30600052607381538281f3fe7300000000000000000000000000000000000000003014608060405260043610610051577c01000000000000000000000000000000000000000000000000000000006000350463677342ce8114610056575b600080fd5b6100696100643660046100f2565b61007b565b60405190815260200160405180910390f35b60008161008a57506000919050565b6003821161009a57506001919050565b600060026100a984600161010b565b6100b3919061014a565b90508291505b818110156100ec579050806002816100d1818661014a565b6100db919061010b565b6100e5919061014a565b90506100b9565b50919050565b60006020828403121561010457600080fd5b5035919050565b60008219821115610145577f4e487b7100000000000000000000000000000000000000000000000000000000600052601160045260246000fd5b500190565b600082610180577f4e487b7100000000000000000000000000000000000000000000000000000000600052601260045260246000fd5b50049056fea2646970667358221220c63f2579f01b253289bc6535a0badaf4628252c2eb4c8b13e0614b415c8d9b9864736f6c634300080a0033",
  "immutableReferences": {},
  "source": "// SPDX-License-Identifier: UNLICENSED\n\npragma solidity >=0.6.12 <0.9.0;\n\nlibrary Math {\n    function sqrt(uint256 x) public pure returns (uint256 y) {\n        if (x == 0) return 0;\n        else if (x <= 3) return 1;\n        uint z = (x + 1) / 2;\n        y = x;\n        while (z < y)\n        {\n            y = z;\n            z = (x / z + z) / 2;\n        }\n    }\n}",
  "sourcePath": "/Users/kristophm/workspace/crypto/zorro/zorro-protocol/contracts/libraries/Math.sol",
  "compiler": {
    "name": "solc",
    "version": "0.8.10+commit.fc410830.Emscripten.clang"
  },
  "schemaVersion": "3.4.3",
  "updatedAt": "2021-12-28T23:51:13.540Z",
  "networkType": "ethereum",
  "devdoc": {
    "kind": "dev",
    "methods": {},
    "version": 1
  },
  "userdoc": {
    "kind": "user",
    "methods": {},
    "version": 1
  }
}