{
  "contractName": "MockAMMRouter02",
  "abi": [
    {
      "anonymous": false,
      "inputs": [
        {
          "indexed": true,
          "internalType": "uint256",
          "name": "_amountA",
          "type": "uint256"
        },
        {
          "indexed": true,
          "internalType": "uint256",
          "name": "_amountB",
          "type": "uint256"
        },
        {
          "indexed": true,
          "internalType": "uint256",
          "name": "_liquidity",
          "type": "uint256"
        }
      ],
      "name": "AddedLiquidity",
      "type": "event"
    },
    {
      "anonymous": false,
      "inputs": [
        {
          "indexed": true,
          "internalType": "address",
          "name": "owner",
          "type": "address"
        },
        {
          "indexed": true,
          "internalType": "address",
          "name": "spender",
          "type": "address"
        },
        {
          "indexed": false,
          "internalType": "uint256",
          "name": "value",
          "type": "uint256"
        }
      ],
      "name": "Approval",
      "type": "event"
    },
    {
      "anonymous": false,
      "inputs": [
        {
          "indexed": true,
          "internalType": "uint256",
          "name": "_amountA",
          "type": "uint256"
        },
        {
          "indexed": true,
          "internalType": "uint256",
          "name": "_amountB",
          "type": "uint256"
        }
      ],
      "name": "RemovedLiquidity",
      "type": "event"
    },
    {
      "anonymous": false,
      "inputs": [
        {
          "indexed": true,
          "internalType": "address",
          "name": "_dest",
          "type": "address"
        },
        {
          "indexed": true,
          "internalType": "uint256",
          "name": "_amountIn",
          "type": "uint256"
        },
        {
          "indexed": true,
          "internalType": "uint256",
          "name": "_amountOutMin",
          "type": "uint256"
        }
      ],
      "name": "SwappedToken",
      "type": "event"
    },
    {
      "anonymous": false,
      "inputs": [
        {
          "indexed": true,
          "internalType": "address",
          "name": "from",
          "type": "address"
        },
        {
          "indexed": true,
          "internalType": "address",
          "name": "to",
          "type": "address"
        },
        {
          "indexed": false,
          "internalType": "uint256",
          "name": "value",
          "type": "uint256"
        }
      ],
      "name": "Transfer",
      "type": "event"
    },
    {
      "inputs": [
        {
          "internalType": "address",
          "name": "owner",
          "type": "address"
        },
        {
          "internalType": "address",
          "name": "spender",
          "type": "address"
        }
      ],
      "name": "allowance",
      "outputs": [
        {
          "internalType": "uint256",
          "name": "",
          "type": "uint256"
        }
      ],
      "stateMutability": "view",
      "type": "function"
    },
    {
      "inputs": [
        {
          "internalType": "address",
          "name": "spender",
          "type": "address"
        },
        {
          "internalType": "uint256",
          "name": "amount",
          "type": "uint256"
        }
      ],
      "name": "approve",
      "outputs": [
        {
          "internalType": "bool",
          "name": "",
          "type": "bool"
        }
      ],
      "stateMutability": "nonpayable",
      "type": "function"
    },
    {
      "inputs": [
        {
          "internalType": "address",
          "name": "account",
          "type": "address"
        }
      ],
      "name": "balanceOf",
      "outputs": [
        {
          "internalType": "uint256",
          "name": "",
          "type": "uint256"
        }
      ],
      "stateMutability": "view",
      "type": "function"
    },
    {
      "inputs": [],
      "name": "burnAddress",
      "outputs": [
        {
          "internalType": "address",
          "name": "",
          "type": "address"
        }
      ],
      "stateMutability": "view",
      "type": "function"
    },
    {
      "inputs": [],
      "name": "decimals",
      "outputs": [
        {
          "internalType": "uint8",
          "name": "",
          "type": "uint8"
        }
      ],
      "stateMutability": "view",
      "type": "function"
    },
    {
      "inputs": [
        {
          "internalType": "address",
          "name": "spender",
          "type": "address"
        },
        {
          "internalType": "uint256",
          "name": "subtractedValue",
          "type": "uint256"
        }
      ],
      "name": "decreaseAllowance",
      "outputs": [
        {
          "internalType": "bool",
          "name": "",
          "type": "bool"
        }
      ],
      "stateMutability": "nonpayable",
      "type": "function"
    },
    {
      "inputs": [
        {
          "internalType": "address",
          "name": "spender",
          "type": "address"
        },
        {
          "internalType": "uint256",
          "name": "addedValue",
          "type": "uint256"
        }
      ],
      "name": "increaseAllowance",
      "outputs": [
        {
          "internalType": "bool",
          "name": "",
          "type": "bool"
        }
      ],
      "stateMutability": "nonpayable",
      "type": "function"
    },
    {
      "inputs": [
        {
          "internalType": "address",
          "name": "_account",
          "type": "address"
        },
        {
          "internalType": "uint256",
          "name": "_amount",
          "type": "uint256"
        }
      ],
      "name": "mint",
      "outputs": [],
      "stateMutability": "nonpayable",
      "type": "function"
    },
    {
      "inputs": [],
      "name": "name",
      "outputs": [
        {
          "internalType": "string",
          "name": "",
          "type": "string"
        }
      ],
      "stateMutability": "view",
      "type": "function"
    },
    {
      "inputs": [],
      "name": "poolAddress",
      "outputs": [
        {
          "internalType": "address",
          "name": "",
          "type": "address"
        }
      ],
      "stateMutability": "view",
      "type": "function"
    },
    {
      "inputs": [],
      "name": "symbol",
      "outputs": [
        {
          "internalType": "string",
          "name": "",
          "type": "string"
        }
      ],
      "stateMutability": "view",
      "type": "function"
    },
    {
      "inputs": [],
      "name": "totalSupply",
      "outputs": [
        {
          "internalType": "uint256",
          "name": "",
          "type": "uint256"
        }
      ],
      "stateMutability": "view",
      "type": "function"
    },
    {
      "inputs": [
        {
          "internalType": "address",
          "name": "to",
          "type": "address"
        },
        {
          "internalType": "uint256",
          "name": "amount",
          "type": "uint256"
        }
      ],
      "name": "transfer",
      "outputs": [
        {
          "internalType": "bool",
          "name": "",
          "type": "bool"
        }
      ],
      "stateMutability": "nonpayable",
      "type": "function"
    },
    {
      "inputs": [
        {
          "internalType": "address",
          "name": "from",
          "type": "address"
        },
        {
          "internalType": "address",
          "name": "to",
          "type": "address"
        },
        {
          "internalType": "uint256",
          "name": "amount",
          "type": "uint256"
        }
      ],
      "name": "transferFrom",
      "outputs": [
        {
          "internalType": "bool",
          "name": "",
          "type": "bool"
        }
      ],
      "stateMutability": "nonpayable",
      "type": "function"
    },
    {
      "inputs": [
        {
          "internalType": "address",
          "name": "_burnAddress",
          "type": "address"
        }
      ],
      "name": "setBurnAddress",
      "outputs": [],
      "stateMutability": "nonpayable",
      "type": "function"
    },
    {
      "inputs": [
        {
          "internalType": "address",
          "name": "_poolAddress",
          "type": "address"
        }
      ],
      "name": "setPoolAddress",
      "outputs": [],
      "stateMutability": "nonpayable",
      "type": "function"
    },
    {
      "inputs": [],
      "name": "factory",
      "outputs": [
        {
          "internalType": "address",
          "name": "",
          "type": "address"
        }
      ],
      "stateMutability": "pure",
      "type": "function"
    },
    {
      "inputs": [],
      "name": "WETH",
      "outputs": [
        {
          "internalType": "address",
          "name": "",
          "type": "address"
        }
      ],
      "stateMutability": "pure",
      "type": "function"
    },
    {
      "inputs": [
        {
          "internalType": "address",
          "name": "tokenA",
          "type": "address"
        },
        {
          "internalType": "address",
          "name": "tokenB",
          "type": "address"
        },
        {
          "internalType": "uint256",
          "name": "amountADesired",
          "type": "uint256"
        },
        {
          "internalType": "uint256",
          "name": "amountBDesired",
          "type": "uint256"
        },
        {
          "internalType": "uint256",
          "name": "amountAMin",
          "type": "uint256"
        },
        {
          "internalType": "uint256",
          "name": "amountBMin",
          "type": "uint256"
        },
        {
          "internalType": "address",
          "name": "to",
          "type": "address"
        },
        {
          "internalType": "uint256",
          "name": "deadline",
          "type": "uint256"
        }
      ],
      "name": "addLiquidity",
      "outputs": [
        {
          "internalType": "uint256",
          "name": "amountA",
          "type": "uint256"
        },
        {
          "internalType": "uint256",
          "name": "amountB",
          "type": "uint256"
        },
        {
          "internalType": "uint256",
          "name": "liquidity",
          "type": "uint256"
        }
      ],
      "stateMutability": "nonpayable",
      "type": "function"
    },
    {
      "inputs": [
        {
          "internalType": "address",
          "name": "token",
          "type": "address"
        },
        {
          "internalType": "uint256",
          "name": "amountTokenDesired",
          "type": "uint256"
        },
        {
          "internalType": "uint256",
          "name": "amountTokenMin",
          "type": "uint256"
        },
        {
          "internalType": "uint256",
          "name": "amountETHMin",
          "type": "uint256"
        },
        {
          "internalType": "address",
          "name": "to",
          "type": "address"
        },
        {
          "internalType": "uint256",
          "name": "deadline",
          "type": "uint256"
        }
      ],
      "name": "addLiquidityETH",
      "outputs": [
        {
          "internalType": "uint256",
          "name": "amountToken",
          "type": "uint256"
        },
        {
          "internalType": "uint256",
          "name": "amountETH",
          "type": "uint256"
        },
        {
          "internalType": "uint256",
          "name": "liquidity",
          "type": "uint256"
        }
      ],
      "stateMutability": "payable",
      "type": "function"
    },
    {
      "inputs": [
        {
          "internalType": "address",
          "name": "tokenA",
          "type": "address"
        },
        {
          "internalType": "address",
          "name": "tokenB",
          "type": "address"
        },
        {
          "internalType": "uint256",
          "name": "liquidity",
          "type": "uint256"
        },
        {
          "internalType": "uint256",
          "name": "amountAMin",
          "type": "uint256"
        },
        {
          "internalType": "uint256",
          "name": "amountBMin",
          "type": "uint256"
        },
        {
          "internalType": "address",
          "name": "to",
          "type": "address"
        },
        {
          "internalType": "uint256",
          "name": "deadline",
          "type": "uint256"
        }
      ],
      "name": "removeLiquidity",
      "outputs": [
        {
          "internalType": "uint256",
          "name": "amountA",
          "type": "uint256"
        },
        {
          "internalType": "uint256",
          "name": "amountB",
          "type": "uint256"
        }
      ],
      "stateMutability": "nonpayable",
      "type": "function"
    },
    {
      "inputs": [
        {
          "internalType": "address",
          "name": "token",
          "type": "address"
        },
        {
          "internalType": "uint256",
          "name": "liquidity",
          "type": "uint256"
        },
        {
          "internalType": "uint256",
          "name": "amountTokenMin",
          "type": "uint256"
        },
        {
          "internalType": "uint256",
          "name": "amountETHMin",
          "type": "uint256"
        },
        {
          "internalType": "address",
          "name": "to",
          "type": "address"
        },
        {
          "internalType": "uint256",
          "name": "deadline",
          "type": "uint256"
        }
      ],
      "name": "removeLiquidityETH",
      "outputs": [
        {
          "internalType": "uint256",
          "name": "amountToken",
          "type": "uint256"
        },
        {
          "internalType": "uint256",
          "name": "amountETH",
          "type": "uint256"
        }
      ],
      "stateMutability": "nonpayable",
      "type": "function"
    },
    {
      "inputs": [
        {
          "internalType": "address",
          "name": "tokenA",
          "type": "address"
        },
        {
          "internalType": "address",
          "name": "tokenB",
          "type": "address"
        },
        {
          "internalType": "uint256",
          "name": "liquidity",
          "type": "uint256"
        },
        {
          "internalType": "uint256",
          "name": "amountAMin",
          "type": "uint256"
        },
        {
          "internalType": "uint256",
          "name": "amountBMin",
          "type": "uint256"
        },
        {
          "internalType": "address",
          "name": "to",
          "type": "address"
        },
        {
          "internalType": "uint256",
          "name": "deadline",
          "type": "uint256"
        },
        {
          "internalType": "bool",
          "name": "approveMax",
          "type": "bool"
        },
        {
          "internalType": "uint8",
          "name": "v",
          "type": "uint8"
        },
        {
          "internalType": "bytes32",
          "name": "r",
          "type": "bytes32"
        },
        {
          "internalType": "bytes32",
          "name": "s",
          "type": "bytes32"
        }
      ],
      "name": "removeLiquidityWithPermit",
      "outputs": [
        {
          "internalType": "uint256",
          "name": "amountA",
          "type": "uint256"
        },
        {
          "internalType": "uint256",
          "name": "amountB",
          "type": "uint256"
        }
      ],
      "stateMutability": "nonpayable",
      "type": "function"
    },
    {
      "inputs": [
        {
          "internalType": "address",
          "name": "token",
          "type": "address"
        },
        {
          "internalType": "uint256",
          "name": "liquidity",
          "type": "uint256"
        },
        {
          "internalType": "uint256",
          "name": "amountTokenMin",
          "type": "uint256"
        },
        {
          "internalType": "uint256",
          "name": "amountETHMin",
          "type": "uint256"
        },
        {
          "internalType": "address",
          "name": "to",
          "type": "address"
        },
        {
          "internalType": "uint256",
          "name": "deadline",
          "type": "uint256"
        },
        {
          "internalType": "bool",
          "name": "approveMax",
          "type": "bool"
        },
        {
          "internalType": "uint8",
          "name": "v",
          "type": "uint8"
        },
        {
          "internalType": "bytes32",
          "name": "r",
          "type": "bytes32"
        },
        {
          "internalType": "bytes32",
          "name": "s",
          "type": "bytes32"
        }
      ],
      "name": "removeLiquidityETHWithPermit",
      "outputs": [
        {
          "internalType": "uint256",
          "name": "amountToken",
          "type": "uint256"
        },
        {
          "internalType": "uint256",
          "name": "amountETH",
          "type": "uint256"
        }
      ],
      "stateMutability": "nonpayable",
      "type": "function"
    },
    {
      "inputs": [
        {
          "internalType": "uint256",
          "name": "amountIn",
          "type": "uint256"
        },
        {
          "internalType": "uint256",
          "name": "amountOutMin",
          "type": "uint256"
        },
        {
          "internalType": "address[]",
          "name": "path",
          "type": "address[]"
        },
        {
          "internalType": "address",
          "name": "to",
          "type": "address"
        },
        {
          "internalType": "uint256",
          "name": "deadline",
          "type": "uint256"
        }
      ],
      "name": "swapExactTokensForTokens",
      "outputs": [
        {
          "internalType": "uint256[]",
          "name": "amounts",
          "type": "uint256[]"
        }
      ],
      "stateMutability": "nonpayable",
      "type": "function"
    },
    {
      "inputs": [
        {
          "internalType": "uint256",
          "name": "amountOut",
          "type": "uint256"
        },
        {
          "internalType": "uint256",
          "name": "amountInMax",
          "type": "uint256"
        },
        {
          "internalType": "address[]",
          "name": "path",
          "type": "address[]"
        },
        {
          "internalType": "address",
          "name": "to",
          "type": "address"
        },
        {
          "internalType": "uint256",
          "name": "deadline",
          "type": "uint256"
        }
      ],
      "name": "swapTokensForExactTokens",
      "outputs": [
        {
          "internalType": "uint256[]",
          "name": "amounts",
          "type": "uint256[]"
        }
      ],
      "stateMutability": "nonpayable",
      "type": "function"
    },
    {
      "inputs": [
        {
          "internalType": "uint256",
          "name": "amountOutMin",
          "type": "uint256"
        },
        {
          "internalType": "address[]",
          "name": "path",
          "type": "address[]"
        },
        {
          "internalType": "address",
          "name": "to",
          "type": "address"
        },
        {
          "internalType": "uint256",
          "name": "deadline",
          "type": "uint256"
        }
      ],
      "name": "swapExactETHForTokens",
      "outputs": [
        {
          "internalType": "uint256[]",
          "name": "amounts",
          "type": "uint256[]"
        }
      ],
      "stateMutability": "payable",
      "type": "function"
    },
    {
      "inputs": [
        {
          "internalType": "uint256",
          "name": "amountOut",
          "type": "uint256"
        },
        {
          "internalType": "uint256",
          "name": "amountInMax",
          "type": "uint256"
        },
        {
          "internalType": "address[]",
          "name": "path",
          "type": "address[]"
        },
        {
          "internalType": "address",
          "name": "to",
          "type": "address"
        },
        {
          "internalType": "uint256",
          "name": "deadline",
          "type": "uint256"
        }
      ],
      "name": "swapTokensForExactETH",
      "outputs": [
        {
          "internalType": "uint256[]",
          "name": "amounts",
          "type": "uint256[]"
        }
      ],
      "stateMutability": "nonpayable",
      "type": "function"
    },
    {
      "inputs": [
        {
          "internalType": "uint256",
          "name": "amountIn",
          "type": "uint256"
        },
        {
          "internalType": "uint256",
          "name": "amountOutMin",
          "type": "uint256"
        },
        {
          "internalType": "address[]",
          "name": "path",
          "type": "address[]"
        },
        {
          "internalType": "address",
          "name": "to",
          "type": "address"
        },
        {
          "internalType": "uint256",
          "name": "deadline",
          "type": "uint256"
        }
      ],
      "name": "swapExactTokensForETH",
      "outputs": [
        {
          "internalType": "uint256[]",
          "name": "amounts",
          "type": "uint256[]"
        }
      ],
      "stateMutability": "nonpayable",
      "type": "function"
    },
    {
      "inputs": [
        {
          "internalType": "uint256",
          "name": "amountOut",
          "type": "uint256"
        },
        {
          "internalType": "address[]",
          "name": "path",
          "type": "address[]"
        },
        {
          "internalType": "address",
          "name": "to",
          "type": "address"
        },
        {
          "internalType": "uint256",
          "name": "deadline",
          "type": "uint256"
        }
      ],
      "name": "swapETHForExactTokens",
      "outputs": [
        {
          "internalType": "uint256[]",
          "name": "amounts",
          "type": "uint256[]"
        }
      ],
      "stateMutability": "payable",
      "type": "function"
    },
    {
      "inputs": [
        {
          "internalType": "uint256",
          "name": "amountA",
          "type": "uint256"
        },
        {
          "internalType": "uint256",
          "name": "reserveA",
          "type": "uint256"
        },
        {
          "internalType": "uint256",
          "name": "reserveB",
          "type": "uint256"
        }
      ],
      "name": "quote",
      "outputs": [
        {
          "internalType": "uint256",
          "name": "amountB",
          "type": "uint256"
        }
      ],
      "stateMutability": "pure",
      "type": "function"
    },
    {
      "inputs": [
        {
          "internalType": "uint256",
          "name": "amountIn",
          "type": "uint256"
        },
        {
          "internalType": "uint256",
          "name": "reserveIn",
          "type": "uint256"
        },
        {
          "internalType": "uint256",
          "name": "reserveOut",
          "type": "uint256"
        }
      ],
      "name": "getAmountOut",
      "outputs": [
        {
          "internalType": "uint256",
          "name": "amountOut",
          "type": "uint256"
        }
      ],
      "stateMutability": "pure",
      "type": "function"
    },
    {
      "inputs": [
        {
          "internalType": "uint256",
          "name": "amountOut",
          "type": "uint256"
        },
        {
          "internalType": "uint256",
          "name": "reserveIn",
          "type": "uint256"
        },
        {
          "internalType": "uint256",
          "name": "reserveOut",
          "type": "uint256"
        }
      ],
      "name": "getAmountIn",
      "outputs": [
        {
          "internalType": "uint256",
          "name": "amountIn",
          "type": "uint256"
        }
      ],
      "stateMutability": "pure",
      "type": "function"
    },
    {
      "inputs": [
        {
          "internalType": "uint256",
          "name": "amountIn",
          "type": "uint256"
        },
        {
          "internalType": "address[]",
          "name": "path",
          "type": "address[]"
        }
      ],
      "name": "getAmountsOut",
      "outputs": [
        {
          "internalType": "uint256[]",
          "name": "amounts",
          "type": "uint256[]"
        }
      ],
      "stateMutability": "view",
      "type": "function"
    },
    {
      "inputs": [
        {
          "internalType": "uint256",
          "name": "amountOut",
          "type": "uint256"
        },
        {
          "internalType": "address[]",
          "name": "path",
          "type": "address[]"
        }
      ],
      "name": "getAmountsIn",
      "outputs": [
        {
          "internalType": "uint256[]",
          "name": "amounts",
          "type": "uint256[]"
        }
      ],
      "stateMutability": "view",
      "type": "function"
    },
    {
      "inputs": [
        {
          "internalType": "address",
          "name": "token",
          "type": "address"
        },
        {
          "internalType": "uint256",
          "name": "liquidity",
          "type": "uint256"
        },
        {
          "internalType": "uint256",
          "name": "amountTokenMin",
          "type": "uint256"
        },
        {
          "internalType": "uint256",
          "name": "amountETHMin",
          "type": "uint256"
        },
        {
          "internalType": "address",
          "name": "to",
          "type": "address"
        },
        {
          "internalType": "uint256",
          "name": "deadline",
          "type": "uint256"
        }
      ],
      "name": "removeLiquidityETHSupportingFeeOnTransferTokens",
      "outputs": [
        {
          "internalType": "uint256",
          "name": "amountETH",
          "type": "uint256"
        }
      ],
      "stateMutability": "nonpayable",
      "type": "function"
    },
    {
      "inputs": [
        {
          "internalType": "address",
          "name": "token",
          "type": "address"
        },
        {
          "internalType": "uint256",
          "name": "liquidity",
          "type": "uint256"
        },
        {
          "internalType": "uint256",
          "name": "amountTokenMin",
          "type": "uint256"
        },
        {
          "internalType": "uint256",
          "name": "amountETHMin",
          "type": "uint256"
        },
        {
          "internalType": "address",
          "name": "to",
          "type": "address"
        },
        {
          "internalType": "uint256",
          "name": "deadline",
          "type": "uint256"
        },
        {
          "internalType": "bool",
          "name": "approveMax",
          "type": "bool"
        },
        {
          "internalType": "uint8",
          "name": "v",
          "type": "uint8"
        },
        {
          "internalType": "bytes32",
          "name": "r",
          "type": "bytes32"
        },
        {
          "internalType": "bytes32",
          "name": "s",
          "type": "bytes32"
        }
      ],
      "name": "removeLiquidityETHWithPermitSupportingFeeOnTransferTokens",
      "outputs": [
        {
          "internalType": "uint256",
          "name": "amountETH",
          "type": "uint256"
        }
      ],
      "stateMutability": "nonpayable",
      "type": "function"
    },
    {
      "inputs": [
        {
          "internalType": "uint256",
          "name": "amountIn",
          "type": "uint256"
        },
        {
          "internalType": "uint256",
          "name": "amountOutMin",
          "type": "uint256"
        },
        {
          "internalType": "address[]",
          "name": "path",
          "type": "address[]"
        },
        {
          "internalType": "address",
          "name": "to",
          "type": "address"
        },
        {
          "internalType": "uint256",
          "name": "deadline",
          "type": "uint256"
        }
      ],
      "name": "swapExactTokensForTokensSupportingFeeOnTransferTokens",
      "outputs": [],
      "stateMutability": "nonpayable",
      "type": "function"
    },
    {
      "inputs": [
        {
          "internalType": "uint256",
          "name": "amountOutMin",
          "type": "uint256"
        },
        {
          "internalType": "address[]",
          "name": "path",
          "type": "address[]"
        },
        {
          "internalType": "address",
          "name": "to",
          "type": "address"
        },
        {
          "internalType": "uint256",
          "name": "deadline",
          "type": "uint256"
        }
      ],
      "name": "swapExactETHForTokensSupportingFeeOnTransferTokens",
      "outputs": [],
      "stateMutability": "payable",
      "type": "function"
    },
    {
      "inputs": [
        {
          "internalType": "uint256",
          "name": "amountIn",
          "type": "uint256"
        },
        {
          "internalType": "uint256",
          "name": "amountOutMin",
          "type": "uint256"
        },
        {
          "internalType": "address[]",
          "name": "path",
          "type": "address[]"
        },
        {
          "internalType": "address",
          "name": "to",
          "type": "address"
        },
        {
          "internalType": "uint256",
          "name": "deadline",
          "type": "uint256"
        }
      ],
      "name": "swapExactTokensForETHSupportingFeeOnTransferTokens",
      "outputs": [],
      "stateMutability": "nonpayable",
      "type": "function"
    }
  ],
  "bytecode": "0x608060405234801561001057600080fd5b50611b7b806100206000396000f3fe60806040526004361061023b5760003560e01c8063791ac9471161012e578063b6f9de95116100ab578063ded9382a1161006f578063ded9382a146106dd578063e8e337001461070a578063e9e15b4f14610745578063f305d71914610782578063fb3bdb411461057557600080fd5b8063b6f9de9514610642578063baa2abde14610657578063c45a015514610607578063d06ca61f14610677578063dd62ed3e1461069757600080fd5b8063a457c2d7116100f2578063a457c2d7146105c7578063a9059cbb146105e7578063ad5c464814610607578063ad615dec1461058e578063af2979eb1461061b57600080fd5b8063791ac947146105525780637ff36ab51461057557806385f8c2591461058e5780638803dbee1461035057806395d89b41146105b257600080fd5b8063313ce567116101bc5780634b0e7216116101805780634b0e7216146104745780635b0d5984146104b15780635c11d795146104dc57806370a08231146104fc57806370d5ae051461053257600080fd5b8063313ce567146103f657806338ed173914610412578063395093511461043257806340c10f19146104525780634a25d94a1461035057600080fd5b806318160ddd1161020357806318160ddd1461033b57806318cbafe5146103505780631f00ca74146103845780632195995c146103a857806323b872dd146103d657600080fd5b806302751cec14610240578063054d50d41461028357806306fdde03146102b1578063095ea7b3146102d35780631755ff2114610303575b600080fd5b34801561024c57600080fd5b5061026961025b3660046114f7565b600080965096945050505050565b604080519283526020830191909152015b60405180910390f35b34801561028f57600080fd5b506102a361029e36600461154f565b6107a1565b60405190815260200161027a565b3480156102bd57600080fd5b506102c66107aa565b60405161027a91906115a7565b3480156102df57600080fd5b506102f36102ee3660046115da565b61083c565b604051901515815260200161027a565b34801561030f57600080fd5b50606654610323906001600160a01b031681565b6040516001600160a01b03909116815260200161027a565b34801561034757600080fd5b506035546102a3565b34801561035c57600080fd5b5061037761036b366004611650565b60609695505050505050565b60405161027a91906116c0565b34801561039057600080fd5b5061037761039f366004611704565b60609392505050565b3480156103b457600080fd5b506102696103c3366004611772565b6000809b509b9950505050505050505050565b3480156103e257600080fd5b506102f36103f1366004611816565b610854565b34801561040257600080fd5b506040516012815260200161027a565b34801561041e57600080fd5b5061037761042d366004611650565b610878565b34801561043e57600080fd5b506102f361044d3660046115da565b610893565b34801561045e57600080fd5b5061047261046d3660046115da565b6108d2565b005b34801561048057600080fd5b5061047261048f366004611852565b606580546001600160a01b0319166001600160a01b0392909216919091179055565b3480156104bd57600080fd5b506102a36104cc36600461186d565b60009a9950505050505050505050565b3480156104e857600080fd5b506104726104f7366004611650565b6108e0565b34801561050857600080fd5b506102a3610517366004611852565b6001600160a01b031660009081526033602052604090205490565b34801561053e57600080fd5b50606554610323906001600160a01b031681565b34801561055e57600080fd5b5061047261056d366004611650565b505050505050565b6103776105833660046118ff565b606095945050505050565b34801561059a57600080fd5b506102a36105a936600461154f565b60009392505050565b3480156105be57600080fd5b506102c66108f7565b3480156105d357600080fd5b506102f36105e23660046115da565b610906565b3480156105f357600080fd5b506102f36106023660046115da565b61099d565b34801561061357600080fd5b506000610323565b34801561062757600080fd5b506102a36106363660046114f7565b60009695505050505050565b6104726106503660046118ff565b5050505050565b34801561066357600080fd5b50610269610672366004611965565b6109ab565b34801561068357600080fd5b50610377610692366004611704565b610add565b3480156106a357600080fd5b506102a36106b23660046119cf565b6001600160a01b03918216600090815260346020908152604080832093909416825291909152205490565b3480156106e957600080fd5b506102696106f836600461186d565b6000809a509a98505050505050505050565b34801561071657600080fd5b5061072a610725366004611a02565b610b3e565b6040805193845260208401929092529082015260600161027a565b34801561075157600080fd5b50610472610760366004611852565b606680546001600160a01b0319166001600160a01b0392909216919091179055565b61072a6107903660046114f7565b600080600096509650969350505050565b825b9392505050565b6060603680546107b990611a76565b80601f01602080910402602001604051908101604052809291908181526020018280546107e590611a76565b80156108325780601f1061080757610100808354040283529160200191610832565b820191906000526020600020905b81548152906001019060200180831161081557829003601f168201915b5050505050905090565b60003361084a818585610c27565b5060019392505050565b600033610862858285610d4b565b61086d858585610ddd565b506001949350505050565b6060610888878787878787610fab565b979650505050505050565b3360008181526034602090815260408083206001600160a01b038716845290915281205490919061084a90829086906108cd908790611ac7565b610c27565b6108dc828261115a565b5050565b6108ee868686868686610fab565b50505050505050565b6060603780546107b990611a76565b3360008181526034602090815260408083206001600160a01b0387168452909152812054909190838110156109905760405162461bcd60e51b815260206004820152602560248201527f45524332303a2064656372656173656420616c6c6f77616e63652062656c6f77604482015264207a65726f60d81b60648201526084015b60405180910390fd5b61086d8286868403610c27565b60003361084a818585610ddd565b600080600083116109bb57600080fd5b5050606554606654859185916109e0916001600160a01b03918216913391168a611239565b6040516340c10f1960e01b81526001600160a01b038581166004830152602482018490528a16906340c10f1990604401600060405180830381600087803b158015610a2a57600080fd5b505af1158015610a3e573d6000803e3d6000fd5b50506040516340c10f1960e01b81526001600160a01b038781166004830152602482018590528b1692506340c10f199150604401600060405180830381600087803b158015610a8c57600080fd5b505af1158015610aa0573d6000803e3d6000fd5b50506040518392508491507f1475f06144e99f5457e823983b5033c6108c4cb5845f993e8225e2efc4f329ff90600090a397509795505050505050565b60608115801590610aec575060015b610af557600080fd5b604080516001808252818301909252600091602080830190803683370190505090508481600081518110610b2b57610b2b611adf565b6020908102919091010152949350505050565b6000808060008411610b4f57600080fd5b889250879150610b6a6001600160a01b038c16333086611239565b610b7f6001600160a01b038b16333085611239565b506040516340c10f1960e01b81526001600160a01b0385166004820152670de0b6b3a7640000602482018190529030906340c10f1990604401600060405180830381600087803b158015610bd257600080fd5b505af1158015610be6573d6000803e3d6000fd5b505050508082847f947eb7d5785b0534dc368370fd3574434082455556a747116a88abea1ec6ceba60405160405180910390a4985098509895505050505050565b6001600160a01b038316610c895760405162461bcd60e51b8152602060048201526024808201527f45524332303a20617070726f76652066726f6d20746865207a65726f206164646044820152637265737360e01b6064820152608401610987565b6001600160a01b038216610cea5760405162461bcd60e51b815260206004820152602260248201527f45524332303a20617070726f766520746f20746865207a65726f206164647265604482015261737360f01b6064820152608401610987565b6001600160a01b0383811660008181526034602090815260408083209487168084529482529182902085905590518481527f8c5be1e5ebec7d5bd14f71427d1e84f3dd0314c0f7b2291e5b200ac8c7c3b925910160405180910390a3505050565b6001600160a01b038381166000908152603460209081526040808320938616835292905220546000198114610dd75781811015610dca5760405162461bcd60e51b815260206004820152601d60248201527f45524332303a20696e73756666696369656e7420616c6c6f77616e63650000006044820152606401610987565b610dd78484848403610c27565b50505050565b6001600160a01b038316610e415760405162461bcd60e51b815260206004820152602560248201527f45524332303a207472616e736665722066726f6d20746865207a65726f206164604482015264647265737360d81b6064820152608401610987565b6001600160a01b038216610ea35760405162461bcd60e51b815260206004820152602360248201527f45524332303a207472616e7366657220746f20746865207a65726f206164647260448201526265737360e81b6064820152608401610987565b6001600160a01b03831660009081526033602052604090205481811015610f1b5760405162461bcd60e51b815260206004820152602660248201527f45524332303a207472616e7366657220616d6f756e7420657863656564732062604482015265616c616e636560d01b6064820152608401610987565b6001600160a01b03808516600090815260336020526040808220858503905591851681529081208054849290610f52908490611ac7565b92505081905550826001600160a01b0316846001600160a01b03167fddf252ad1be2c89b69c2b068fc378daa952ba7f163c4a11628f55a4df523b3ef84604051610f9e91815260200190565b60405180910390a3610dd7565b606060008211610fba57600080fd5b600085856000818110610fcf57610fcf611adf565b9050602002016020810190610fe49190611852565b905060008686610ff5600182611af5565b81811061100457611004611adf565b90506020020160208101906110199190611852565b606554909150611038906001600160a01b03848116913391168c611239565b6040516340c10f1960e01b81526001600160a01b038681166004830152602482018a90528216906340c10f1990604401600060405180830381600087803b15801561108257600080fd5b505af1158015611096573d6000803e3d6000fd5b5060009250600291506110a69050565b6040519080825280602002602001820160405280156110cf578160200160208202803683370190505b50905089816000815181106110e6576110e6611adf565b602002602001018181525050888160018151811061110657611106611adf565b602002602001018181525050809350888a336001600160a01b03167f18ae40116b9304bae046d506ea80406867bd9e5129486046650090b2f5032e2960405160405180910390a45050509695505050505050565b6001600160a01b0382166111b05760405162461bcd60e51b815260206004820152601f60248201527f45524332303a206d696e7420746f20746865207a65726f2061646472657373006044820152606401610987565b80603560008282546111c29190611ac7565b90915550506001600160a01b038216600090815260336020526040812080548392906111ef908490611ac7565b90915550506040518181526001600160a01b038316906000907fddf252ad1be2c89b69c2b068fc378daa952ba7f163c4a11628f55a4df523b3ef9060200160405180910390a35050565b604080516001600160a01b0385811660248301528416604482015260648082018490528251808303909101815260849091019091526020810180516001600160e01b03166323b872dd60e01b179052610dd7908590611298565b505050565b60006112ed826040518060400160405280602081526020017f5361666545524332303a206c6f772d6c6576656c2063616c6c206661696c6564815250856001600160a01b031661136a9092919063ffffffff16565b805190915015611293578080602001905181019061130b9190611b0c565b6112935760405162461bcd60e51b815260206004820152602a60248201527f5361666545524332303a204552433230206f7065726174696f6e20646964206e6044820152691bdd081cdd58d8d9595960b21b6064820152608401610987565b60606113798484600085611381565b949350505050565b6060824710156113e25760405162461bcd60e51b815260206004820152602660248201527f416464726573733a20696e73756666696369656e742062616c616e636520666f6044820152651c8818d85b1b60d21b6064820152608401610987565b6001600160a01b0385163b6114395760405162461bcd60e51b815260206004820152601d60248201527f416464726573733a2063616c6c20746f206e6f6e2d636f6e74726163740000006044820152606401610987565b600080866001600160a01b031685876040516114559190611b29565b60006040518083038185875af1925050503d8060008114611492576040519150601f19603f3d011682016040523d82523d6000602084013e611497565b606091505b5091509150610888828286606083156114b15750816107a3565b8251156114c15782518084602001fd5b8160405162461bcd60e51b815260040161098791906115a7565b80356001600160a01b03811681146114f257600080fd5b919050565b60008060008060008060c0878903121561151057600080fd5b611519876114db565b955060208701359450604087013593506060870135925061153c608088016114db565b915060a087013590509295509295509295565b60008060006060848603121561156457600080fd5b505081359360208301359350604090920135919050565b60005b8381101561159657818101518382015260200161157e565b83811115610dd75750506000910152565b60208152600082518060208401526115c681604085016020870161157b565b601f01601f19169190910160400192915050565b600080604083850312156115ed57600080fd5b6115f6836114db565b946020939093013593505050565b60008083601f84011261161657600080fd5b50813567ffffffffffffffff81111561162e57600080fd5b6020830191508360208260051b850101111561164957600080fd5b9250929050565b60008060008060008060a0878903121561166957600080fd5b8635955060208701359450604087013567ffffffffffffffff81111561168e57600080fd5b61169a89828a01611604565b90955093506116ad9050606088016114db565b9150608087013590509295509295509295565b6020808252825182820181905260009190848201906040850190845b818110156116f8578351835292840192918401916001016116dc565b50909695505050505050565b60008060006040848603121561171957600080fd5b83359250602084013567ffffffffffffffff81111561173757600080fd5b61174386828701611604565b9497909650939450505050565b801515811461175e57600080fd5b50565b803560ff811681146114f257600080fd5b60008060008060008060008060008060006101608c8e03121561179457600080fd5b61179d8c6114db565b9a506117ab60208d016114db565b995060408c0135985060608c0135975060808c013596506117ce60a08d016114db565b955060c08c0135945060e08c01356117e581611750565b93506117f46101008d01611761565b92506101208c013591506101408c013590509295989b509295989b9093969950565b60008060006060848603121561182b57600080fd5b611834846114db565b9250611842602085016114db565b9150604084013590509250925092565b60006020828403121561186457600080fd5b6107a3826114db565b6000806000806000806000806000806101408b8d03121561188d57600080fd5b6118968b6114db565b995060208b0135985060408b0135975060608b013596506118b960808c016114db565b955060a08b0135945060c08b01356118d081611750565b93506118de60e08c01611761565b92506101008b013591506101208b013590509295989b9194979a5092959850565b60008060008060006080868803121561191757600080fd5b85359450602086013567ffffffffffffffff81111561193557600080fd5b61194188828901611604565b90955093506119549050604087016114db565b949793965091946060013592915050565b600080600080600080600060e0888a03121561198057600080fd5b611989886114db565b9650611997602089016114db565b95506040880135945060608801359350608088013592506119ba60a089016114db565b915060c0880135905092959891949750929550565b600080604083850312156119e257600080fd5b6119eb836114db565b91506119f9602084016114db565b90509250929050565b600080600080600080600080610100898b031215611a1f57600080fd5b611a28896114db565b9750611a3660208a016114db565b965060408901359550606089013594506080890135935060a08901359250611a6060c08a016114db565b915060e089013590509295985092959890939650565b600181811c90821680611a8a57607f821691505b60208210811415611aab57634e487b7160e01b600052602260045260246000fd5b50919050565b634e487b7160e01b600052601160045260246000fd5b60008219821115611ada57611ada611ab1565b500190565b634e487b7160e01b600052603260045260246000fd5b600082821015611b0757611b07611ab1565b500390565b600060208284031215611b1e57600080fd5b81516107a381611750565b60008251611b3b81846020870161157b565b919091019291505056fea26469706673582212201e0e3cacbe5155a0906ec338e9fb3d0a7ea9d50e03a6394062497615a47e046e64736f6c634300080a0033",
  "immutableReferences": {},
  "source": "// SPDX-License-Identifier: MIT\n\npragma solidity ^0.8.0;\n\nimport \"../SafeSwap.sol\";\n\nimport \"@openzeppelin/contracts-upgradeable/token/ERC20/utils/SafeERC20Upgradeable.sol\";\n\nimport \"../../tokens/mocks/MockToken.sol\";\n\n/// @title MockSafeSwapUni: Mock contract for testing the SafeSwapUni library\ncontract MockSafeSwapUni {\n    using SafeSwapUni for IAMMRouter02;\n    using SafeERC20Upgradeable for IERC20Upgradeable;\n\n    function safeSwap(\n        address _uniRouter,\n        uint256 _amountIn,\n        uint256 _priceTokenIn,\n        uint256 _priceTokenOut,\n        uint256 _slippageFactor,\n        address[] memory _path,\n        address _to,\n        uint256 _deadline\n    ) public {\n        // Give permission\n        IERC20Upgradeable(_path[0]).safeIncreaseAllowance(\n            _uniRouter,\n            _amountIn\n        );\n        // Swap\n        IAMMRouter02(_uniRouter).safeSwap(\n            _amountIn,\n            _priceTokenIn,\n            _priceTokenOut,\n            _slippageFactor,\n            _path,\n            _to,\n            _deadline\n        );\n    }\n}\n\n/// @title MockAMMRouter02: Mock contract for the IAMMRouter02 library\ncontract MockAMMRouter02 is IAMMRouter02, MockERC20Upgradeable {\n    using SafeERC20Upgradeable for IERC20Upgradeable;\n\n    address public burnAddress;\n    address public poolAddress;\n    uint256 private _dummy; // Used to satisfy state mutability compiler warnings on Mock contracts\n\n    function setBurnAddress(address _burnAddress) public {\n        burnAddress = _burnAddress;\n    }\n\n    function setPoolAddress(address _poolAddress) public {\n        poolAddress = _poolAddress;\n    }\n\n    event SwappedToken(\n        address indexed _dest,\n        uint256 indexed _amountIn,\n        uint256 indexed _amountOutMin\n    );\n\n    event AddedLiquidity(\n        uint256 indexed _amountA,\n        uint256 indexed _amountB,\n        uint256 indexed _liquidity\n    );\n\n    event RemovedLiquidity(uint256 indexed _amountA, uint256 indexed _amountB);\n\n    function factory() external pure returns (address) {\n        return address(0);\n    }\n\n    function WETH() external pure returns (address) {\n        return address(0);\n    }\n\n    function addLiquidity(\n        address tokenA,\n        address tokenB,\n        uint256 amountADesired,\n        uint256 amountBDesired,\n        uint256 amountAMin,\n        uint256 amountBMin,\n        address to,\n        uint256 deadline\n    )\n        external\n        returns (\n            uint256 amountA,\n            uint256 amountB,\n            uint256 liquidity\n        )\n    {\n        // Requirements\n        require(amountAMin >= 0 && amountBMin >= 0 && deadline > 0);\n\n        // Vars\n        amountA = amountADesired;\n        amountB = amountBDesired;\n        // Safe transfer from\n        IERC20Upgradeable(tokenA).safeTransferFrom(\n            msg.sender,\n            address(this),\n            amountA\n        );\n        IERC20Upgradeable(tokenB).safeTransferFrom(\n            msg.sender,\n            address(this),\n            amountB\n        );\n\n        // Mint LP token (just 1 token for simplicity)\n        liquidity = 1 ether;\n        IMockERC20Upgradeable(address(this)).mint(to, liquidity);\n\n        // Emit event\n        emit AddedLiquidity(amountA, amountB, liquidity);\n    }\n\n    function addLiquidityETH(\n        address token,\n        uint256 amountTokenDesired,\n        uint256 amountTokenMin,\n        uint256 amountETHMin,\n        address to,\n        uint256 deadline\n    )\n        external\n        payable\n        returns (\n            uint256 amountToken,\n            uint256 amountETH,\n            uint256 liquidity\n        )\n    {}\n\n    function removeLiquidity(\n        address tokenA,\n        address tokenB,\n        uint256 liquidity,\n        uint256 amountAMin,\n        uint256 amountBMin,\n        address to,\n        uint256 deadline\n    ) external returns (uint256 amountA, uint256 amountB) {\n        // Requirements\n        require(deadline > 0);\n\n        // Vars\n        amountA = amountAMin;\n        amountB = amountBMin;\n\n        // Safe transfer liquidity & burn\n        IERC20Upgradeable(poolAddress).safeTransferFrom(\n            msg.sender,\n            burnAddress,\n            liquidity\n        );\n\n        // Mint tokens 0, 1\n        IMockERC20Upgradeable(tokenA).mint(to, amountA);\n        IMockERC20Upgradeable(tokenB).mint(to, amountB);\n\n        // Emit event\n        emit RemovedLiquidity(amountA, amountB);\n    }\n\n    function removeLiquidityETH(\n        address token,\n        uint256 liquidity,\n        uint256 amountTokenMin,\n        uint256 amountETHMin,\n        address to,\n        uint256 deadline\n    ) external returns (uint256 amountToken, uint256 amountETH) {}\n\n    function removeLiquidityWithPermit(\n        address tokenA,\n        address tokenB,\n        uint256 liquidity,\n        uint256 amountAMin,\n        uint256 amountBMin,\n        address to,\n        uint256 deadline,\n        bool approveMax,\n        uint8 v,\n        bytes32 r,\n        bytes32 s\n    ) external returns (uint256 amountA, uint256 amountB) {}\n\n    function removeLiquidityETHWithPermit(\n        address token,\n        uint256 liquidity,\n        uint256 amountTokenMin,\n        uint256 amountETHMin,\n        address to,\n        uint256 deadline,\n        bool approveMax,\n        uint8 v,\n        bytes32 r,\n        bytes32 s\n    ) external returns (uint256 amountToken, uint256 amountETH) {}\n\n    function swapExactTokensForTokens(\n        uint256 amountIn,\n        uint256 amountOutMin,\n        address[] calldata path,\n        address to,\n        uint256 deadline\n    ) external returns (uint256[] memory amounts) {\n        return\n            _mockSwapExactTokensForTokens(\n                amountIn,\n                amountOutMin,\n                path,\n                to,\n                deadline\n            );\n    }\n\n    function _mockSwapExactTokensForTokens(\n        uint256 amountIn,\n        uint256 amountOutMin,\n        address[] calldata path,\n        address to,\n        uint256 deadline\n    ) internal returns (uint256[] memory amounts) {\n        // Reqs\n        require(deadline > 0);\n\n        // Vars\n        address _tokenIn = path[0];\n        address _tokenOut = path[path.length - 1];\n\n        // Burn token IN\n        IERC20Upgradeable(_tokenIn).safeTransferFrom(\n            msg.sender,\n            burnAddress,\n            amountIn\n        );\n\n        // Mint token OUT -> to\n        IMockERC20Upgradeable(_tokenOut).mint(to, amountOutMin);\n\n        // Return\n        uint256[] memory _amounts = new uint256[](2);\n        _amounts[0] = amountIn;\n        _amounts[1] = amountOutMin;\n        amounts = _amounts;\n\n        emit SwappedToken(msg.sender, amountIn, amountOutMin);\n    }\n\n    function swapTokensForExactTokens(\n        uint256 amountOut,\n        uint256 amountInMax,\n        address[] calldata path,\n        address to,\n        uint256 deadline\n    ) external returns (uint256[] memory amounts) {}\n\n    function swapExactETHForTokens(\n        uint256 amountOutMin,\n        address[] calldata path,\n        address to,\n        uint256 deadline\n    ) external payable returns (uint256[] memory amounts) {}\n\n    function swapTokensForExactETH(\n        uint256 amountOut,\n        uint256 amountInMax,\n        address[] calldata path,\n        address to,\n        uint256 deadline\n    ) external returns (uint256[] memory amounts) {}\n\n    function swapExactTokensForETH(\n        uint256 amountIn,\n        uint256 amountOutMin,\n        address[] calldata path,\n        address to,\n        uint256 deadline\n    ) external returns (uint256[] memory amounts) {}\n\n    function swapETHForExactTokens(\n        uint256 amountOut,\n        address[] calldata path,\n        address to,\n        uint256 deadline\n    ) external payable returns (uint256[] memory amounts) {}\n\n    function quote(\n        uint256 amountA,\n        uint256 reserveA,\n        uint256 reserveB\n    ) external pure returns (uint256 amountB) {}\n\n    function getAmountOut(\n        uint256 amountIn,\n        uint256 reserveIn,\n        uint256 reserveOut\n    ) external pure returns (uint256 amountOut) {\n        // Reqs\n        require(reserveIn >= 0 && reserveOut >= 0);\n\n        return amountIn;\n    }\n\n    function getAmountIn(\n        uint256 amountOut,\n        uint256 reserveIn,\n        uint256 reserveOut\n    ) external pure returns (uint256 amountIn) {}\n\n    function getAmountsOut(uint256 amountIn, address[] calldata path)\n        external\n        view\n        returns (uint256[] memory amounts)\n    {\n        // Reqs, satisfy compiler state mutability errors\n        require(path.length > 0 && _dummy >= 0);\n\n        uint256[] memory _amounts = new uint256[](1);\n        _amounts[0] = amountIn;\n        return _amounts;\n    }\n\n    function getAmountsIn(uint256 amountOut, address[] calldata path)\n        external\n        view\n        returns (uint256[] memory amounts)\n    {}\n\n    function removeLiquidityETHSupportingFeeOnTransferTokens(\n        address token,\n        uint256 liquidity,\n        uint256 amountTokenMin,\n        uint256 amountETHMin,\n        address to,\n        uint256 deadline\n    ) external returns (uint256 amountETH) {}\n\n    function removeLiquidityETHWithPermitSupportingFeeOnTransferTokens(\n        address token,\n        uint256 liquidity,\n        uint256 amountTokenMin,\n        uint256 amountETHMin,\n        address to,\n        uint256 deadline,\n        bool approveMax,\n        uint8 v,\n        bytes32 r,\n        bytes32 s\n    ) external returns (uint256 amountETH) {}\n\n    function swapExactTokensForTokensSupportingFeeOnTransferTokens(\n        uint256 amountIn,\n        uint256 amountOutMin,\n        address[] calldata path,\n        address to,\n        uint256 deadline\n    ) external {\n        _mockSwapExactTokensForTokens(\n            amountIn,\n            amountOutMin,\n            path,\n            to,\n            deadline\n        );\n    }\n\n    function swapExactETHForTokensSupportingFeeOnTransferTokens(\n        uint256 amountOutMin,\n        address[] calldata path,\n        address to,\n        uint256 deadline\n    ) external payable {}\n\n    function swapExactTokensForETHSupportingFeeOnTransferTokens(\n        uint256 amountIn,\n        uint256 amountOutMin,\n        address[] calldata path,\n        address to,\n        uint256 deadline\n    ) external {}\n}\n\n/// @title MockSafeSwapBalancer: Mock contract for testing the SafeSwapBalancer library\ncontract MockSafeSwapBalancer {\n    using SafeSwapBalancer for IBalancerVault;\n    using SafeERC20Upgradeable for IERC20Upgradeable;\n\n    function safeSwap(\n        address _balancerVault,\n        bytes32 _poolId,\n        SafeSwapParams memory _swapParams\n    ) public {\n        IERC20Upgradeable(_swapParams.token0).safeIncreaseAllowance(\n            _balancerVault,\n            _swapParams.amountIn\n        );\n        IBalancerVault(_balancerVault).safeSwap(_poolId, _swapParams);\n    }\n}\n\n/// @title MockBalancerVault: Mock contract for the IBalancerVault library\ncontract MockBalancerVault is IBalancerVault {\n    using SafeERC20Upgradeable for IERC20Upgradeable;\n\n    event SwappedToken(\n        address indexed _dest,\n        uint256 indexed amountIn,\n        uint256 indexed minAmountOut\n    );\n\n    mapping(address => uint256) internal _cash;\n    address public burnAddress;\n    uint256 private _dummy; // For compiler state mutability satisfaction\n\n    function setCash(address _token, uint256 _amount) public {\n        _cash[_token] = _amount;\n    }\n\n    function setBurnAddress(address _burn) public {\n        burnAddress = _burn;\n    }\n\n    function swap(\n        SingleSwap memory singleSwap,\n        FundManagement memory funds,\n        uint256 limit,\n        uint256 deadline\n    ) external payable returns (uint256 amountCalculated) {\n        // Reqs\n        require(deadline > 0);\n\n        // Burn token IN\n        IERC20Upgradeable(address(singleSwap.assetIn)).safeTransferFrom(\n            msg.sender,\n            burnAddress,\n            singleSwap.amount\n        );\n\n        // Mint token OUT -> to\n        IMockERC20Upgradeable(address(singleSwap.assetOut)).mint(\n            funds.recipient,\n            limit\n        );\n\n        // Event\n        emit SwappedToken(funds.recipient, singleSwap.amount, limit);\n\n        // Return\n        amountCalculated = limit;\n    }\n\n    function getPoolTokenInfo(bytes32 poolId, IERC20 token)\n        external\n        returns (\n            uint256 cash,\n            uint256 managed,\n            uint256 blockNumber,\n            address assetManager\n        )\n    {\n        // Reqs\n        require(abi.encode(poolId).length >= 0); // Satisfy unused variable warning\n        require(managed >= 0 && blockNumber > 0 && assetManager != address(0));\n        _dummy = 0;\n\n        cash = _cash[address(token)];\n    }\n\n    function getPoolTokens(bytes32 poolId)\n        external\n        view\n        returns (\n            IERC20[] memory tokens,\n            uint256[] memory balances,\n            uint256 lastChangeBlock\n        )\n    {}\n\n    function joinPool(\n        bytes32 poolId,\n        address sender,\n        address recipient,\n        JoinPoolRequest memory request\n    ) external {}\n\n    function exitPool(\n        bytes32 poolId,\n        address sender,\n        address payable recipient,\n        ExitPoolRequest memory request\n    ) external {}\n}\n",
  "sourcePath": "/Users/kristophm/Documents/workspace/zorro-protocol/contracts/libraries/mocks/MockSafeSwap.sol",
  "compiler": {
    "name": "solc",
    "version": "0.8.10+commit.fc410830.Emscripten.clang"
  },
  "schemaVersion": "3.4.4",
  "updatedAt": "2022-08-16T23:28:07.944Z",
  "networkType": "ethereum",
  "devdoc": {
    "kind": "dev",
    "methods": {
      "allowance(address,address)": {
        "details": "See {IERC20-allowance}."
      },
      "approve(address,uint256)": {
        "details": "See {IERC20-approve}. NOTE: If `amount` is the maximum `uint256`, the allowance is not updated on `transferFrom`. This is semantically equivalent to an infinite approval. Requirements: - `spender` cannot be the zero address."
      },
      "balanceOf(address)": {
        "details": "See {IERC20-balanceOf}."
      },
      "decimals()": {
        "details": "Returns the number of decimals used to get its user representation. For example, if `decimals` equals `2`, a balance of `505` tokens should be displayed to a user as `5.05` (`505 / 10 ** 2`). Tokens usually opt for a value of 18, imitating the relationship between Ether and Wei. This is the value {ERC20} uses, unless this function is overridden; NOTE: This information is only used for _display_ purposes: it in no way affects any of the arithmetic of the contract, including {IERC20-balanceOf} and {IERC20-transfer}."
      },
      "decreaseAllowance(address,uint256)": {
        "details": "Atomically decreases the allowance granted to `spender` by the caller. This is an alternative to {approve} that can be used as a mitigation for problems described in {IERC20-approve}. Emits an {Approval} event indicating the updated allowance. Requirements: - `spender` cannot be the zero address. - `spender` must have allowance for the caller of at least `subtractedValue`."
      },
      "increaseAllowance(address,uint256)": {
        "details": "Atomically increases the allowance granted to `spender` by the caller. This is an alternative to {approve} that can be used as a mitigation for problems described in {IERC20-approve}. Emits an {Approval} event indicating the updated allowance. Requirements: - `spender` cannot be the zero address."
      },
      "name()": {
        "details": "Returns the name of the token."
      },
      "symbol()": {
        "details": "Returns the symbol of the token, usually a shorter version of the name."
      },
      "totalSupply()": {
        "details": "See {IERC20-totalSupply}."
      },
      "transfer(address,uint256)": {
        "details": "See {IERC20-transfer}. Requirements: - `to` cannot be the zero address. - the caller must have a balance of at least `amount`."
      },
      "transferFrom(address,address,uint256)": {
        "details": "See {IERC20-transferFrom}. Emits an {Approval} event indicating the updated allowance. This is not required by the EIP. See the note at the beginning of {ERC20}. NOTE: Does not update the allowance if the current allowance is the maximum `uint256`. Requirements: - `from` and `to` cannot be the zero address. - `from` must have a balance of at least `amount`. - the caller must have allowance for ``from``'s tokens of at least `amount`."
      }
    },
    "title": "MockAMMRouter02: Mock contract for the IAMMRouter02 library",
    "version": 1
  },
  "userdoc": {
    "kind": "user",
    "methods": {},
    "version": 1
  }
}