{
  "contractName": "MockVaultStandardAMM",
  "abi": [
    {
      "anonymous": false,
      "inputs": [
        {
          "indexed": true,
          "internalType": "address",
          "name": "previousOwner",
          "type": "address"
        },
        {
          "indexed": true,
          "internalType": "address",
          "name": "newOwner",
          "type": "address"
        }
      ],
      "name": "OwnershipTransferred",
      "type": "event"
    },
    {
      "anonymous": false,
      "inputs": [
        {
          "indexed": false,
          "internalType": "address",
          "name": "account",
          "type": "address"
        }
      ],
      "name": "Paused",
      "type": "event"
    },
    {
      "anonymous": false,
      "inputs": [
        {
          "indexed": false,
          "internalType": "address",
          "name": "_govAddress",
          "type": "address"
        }
      ],
      "name": "SetGov",
      "type": "event"
    },
    {
      "anonymous": false,
      "inputs": [
        {
          "indexed": false,
          "internalType": "bool",
          "name": "_onlyGov",
          "type": "bool"
        }
      ],
      "name": "SetOnlyGov",
      "type": "event"
    },
    {
      "anonymous": false,
      "inputs": [
        {
          "indexed": false,
          "internalType": "address",
          "name": "_rewardsAddress",
          "type": "address"
        }
      ],
      "name": "SetRewardsAddress",
      "type": "event"
    },
    {
      "anonymous": false,
      "inputs": [
        {
          "indexed": false,
          "internalType": "uint256",
          "name": "_entranceFeeFactor",
          "type": "uint256"
        },
        {
          "indexed": false,
          "internalType": "uint256",
          "name": "_withdrawFeeFactor",
          "type": "uint256"
        },
        {
          "indexed": false,
          "internalType": "uint256",
          "name": "_controllerFee",
          "type": "uint256"
        },
        {
          "indexed": false,
          "internalType": "uint256",
          "name": "_buyBackRate",
          "type": "uint256"
        }
      ],
      "name": "SetSettings",
      "type": "event"
    },
    {
      "anonymous": false,
      "inputs": [
        {
          "indexed": false,
          "internalType": "address",
          "name": "_uniRouterAddress",
          "type": "address"
        }
      ],
      "name": "SetUniRouterAddress",
      "type": "event"
    },
    {
      "anonymous": false,
      "inputs": [
        {
          "indexed": false,
          "internalType": "address",
          "name": "account",
          "type": "address"
        }
      ],
      "name": "Unpaused",
      "type": "event"
    },
    {
      "inputs": [
        {
          "internalType": "uint256",
          "name": "",
          "type": "uint256"
        }
      ],
      "name": "USDCToToken0Path",
      "outputs": [
        {
          "internalType": "address",
          "name": "",
          "type": "address"
        }
      ],
      "stateMutability": "view",
      "type": "function",
      "constant": true
    },
    {
      "inputs": [
        {
          "internalType": "uint256",
          "name": "",
          "type": "uint256"
        }
      ],
      "name": "USDCToToken1Path",
      "outputs": [
        {
          "internalType": "address",
          "name": "",
          "type": "address"
        }
      ],
      "stateMutability": "view",
      "type": "function",
      "constant": true
    },
    {
      "inputs": [],
      "name": "ZORPriceFeed",
      "outputs": [
        {
          "internalType": "contract AggregatorV3Interface",
          "name": "",
          "type": "address"
        }
      ],
      "stateMutability": "view",
      "type": "function",
      "constant": true
    },
    {
      "inputs": [],
      "name": "ZORROAddress",
      "outputs": [
        {
          "internalType": "address",
          "name": "",
          "type": "address"
        }
      ],
      "stateMutability": "view",
      "type": "function",
      "constant": true
    },
    {
      "inputs": [],
      "name": "burnAddress",
      "outputs": [
        {
          "internalType": "address",
          "name": "",
          "type": "address"
        }
      ],
      "stateMutability": "view",
      "type": "function",
      "constant": true
    },
    {
      "inputs": [],
      "name": "buyBackRate",
      "outputs": [
        {
          "internalType": "uint256",
          "name": "",
          "type": "uint256"
        }
      ],
      "stateMutability": "view",
      "type": "function",
      "constant": true
    },
    {
      "inputs": [],
      "name": "buyBackRateMax",
      "outputs": [
        {
          "internalType": "uint256",
          "name": "",
          "type": "uint256"
        }
      ],
      "stateMutability": "view",
      "type": "function",
      "constant": true
    },
    {
      "inputs": [],
      "name": "buyBackRateUL",
      "outputs": [
        {
          "internalType": "uint256",
          "name": "",
          "type": "uint256"
        }
      ],
      "stateMutability": "view",
      "type": "function",
      "constant": true
    },
    {
      "inputs": [],
      "name": "controllerFee",
      "outputs": [
        {
          "internalType": "uint256",
          "name": "",
          "type": "uint256"
        }
      ],
      "stateMutability": "view",
      "type": "function",
      "constant": true
    },
    {
      "inputs": [],
      "name": "controllerFeeMax",
      "outputs": [
        {
          "internalType": "uint256",
          "name": "",
          "type": "uint256"
        }
      ],
      "stateMutability": "view",
      "type": "function",
      "constant": true
    },
    {
      "inputs": [],
      "name": "controllerFeeUL",
      "outputs": [
        {
          "internalType": "uint256",
          "name": "",
          "type": "uint256"
        }
      ],
      "stateMutability": "view",
      "type": "function",
      "constant": true
    },
    {
      "inputs": [
        {
          "internalType": "address",
          "name": "_account",
          "type": "address"
        },
        {
          "internalType": "uint256",
          "name": "_wantAmt",
          "type": "uint256"
        }
      ],
      "name": "depositWantToken",
      "outputs": [
        {
          "internalType": "uint256",
          "name": "sharesAdded",
          "type": "uint256"
        }
      ],
      "stateMutability": "nonpayable",
      "type": "function"
    },
    {
      "inputs": [
        {
          "internalType": "uint256",
          "name": "_maxMarketMovementAllowed",
          "type": "uint256"
        }
      ],
      "name": "earn",
      "outputs": [],
      "stateMutability": "nonpayable",
      "type": "function"
    },
    {
      "inputs": [],
      "name": "earnTokenPriceFeed",
      "outputs": [
        {
          "internalType": "contract AggregatorV3Interface",
          "name": "",
          "type": "address"
        }
      ],
      "stateMutability": "view",
      "type": "function",
      "constant": true
    },
    {
      "inputs": [],
      "name": "earnedAddress",
      "outputs": [
        {
          "internalType": "address",
          "name": "",
          "type": "address"
        }
      ],
      "stateMutability": "view",
      "type": "function",
      "constant": true
    },
    {
      "inputs": [
        {
          "internalType": "uint256",
          "name": "",
          "type": "uint256"
        }
      ],
      "name": "earnedToToken0Path",
      "outputs": [
        {
          "internalType": "address",
          "name": "",
          "type": "address"
        }
      ],
      "stateMutability": "view",
      "type": "function",
      "constant": true
    },
    {
      "inputs": [
        {
          "internalType": "uint256",
          "name": "",
          "type": "uint256"
        }
      ],
      "name": "earnedToToken1Path",
      "outputs": [
        {
          "internalType": "address",
          "name": "",
          "type": "address"
        }
      ],
      "stateMutability": "view",
      "type": "function",
      "constant": true
    },
    {
      "inputs": [
        {
          "internalType": "uint256",
          "name": "",
          "type": "uint256"
        }
      ],
      "name": "earnedToUSDCPath",
      "outputs": [
        {
          "internalType": "address",
          "name": "",
          "type": "address"
        }
      ],
      "stateMutability": "view",
      "type": "function",
      "constant": true
    },
    {
      "inputs": [
        {
          "internalType": "uint256",
          "name": "",
          "type": "uint256"
        }
      ],
      "name": "earnedToZORLPPoolOtherTokenPath",
      "outputs": [
        {
          "internalType": "address",
          "name": "",
          "type": "address"
        }
      ],
      "stateMutability": "view",
      "type": "function",
      "constant": true
    },
    {
      "inputs": [
        {
          "internalType": "uint256",
          "name": "",
          "type": "uint256"
        }
      ],
      "name": "earnedToZORROPath",
      "outputs": [
        {
          "internalType": "address",
          "name": "",
          "type": "address"
        }
      ],
      "stateMutability": "view",
      "type": "function",
      "constant": true
    },
    {
      "inputs": [],
      "name": "entranceFeeFactor",
      "outputs": [
        {
          "internalType": "uint256",
          "name": "",
          "type": "uint256"
        }
      ],
      "stateMutability": "view",
      "type": "function",
      "constant": true
    },
    {
      "inputs": [],
      "name": "entranceFeeFactorLL",
      "outputs": [
        {
          "internalType": "uint256",
          "name": "",
          "type": "uint256"
        }
      ],
      "stateMutability": "view",
      "type": "function",
      "constant": true
    },
    {
      "inputs": [],
      "name": "entranceFeeFactorMax",
      "outputs": [
        {
          "internalType": "uint256",
          "name": "",
          "type": "uint256"
        }
      ],
      "stateMutability": "view",
      "type": "function",
      "constant": true
    },
    {
      "inputs": [
        {
          "internalType": "uint256",
          "name": "_amountUSDC",
          "type": "uint256"
        },
        {
          "internalType": "uint256",
          "name": "_maxMarketMovementAllowed",
          "type": "uint256"
        }
      ],
      "name": "exchangeUSDForWantToken",
      "outputs": [
        {
          "internalType": "uint256",
          "name": "",
          "type": "uint256"
        }
      ],
      "stateMutability": "nonpayable",
      "type": "function"
    },
    {
      "inputs": [
        {
          "internalType": "uint256",
          "name": "_amount",
          "type": "uint256"
        },
        {
          "internalType": "uint256",
          "name": "_maxMarketMovementAllowed",
          "type": "uint256"
        }
      ],
      "name": "exchangeWantTokenForUSD",
      "outputs": [
        {
          "internalType": "uint256",
          "name": "",
          "type": "uint256"
        }
      ],
      "stateMutability": "nonpayable",
      "type": "function"
    },
    {
      "inputs": [],
      "name": "farm",
      "outputs": [],
      "stateMutability": "nonpayable",
      "type": "function"
    },
    {
      "inputs": [],
      "name": "farmContractAddress",
      "outputs": [
        {
          "internalType": "address",
          "name": "",
          "type": "address"
        }
      ],
      "stateMutability": "view",
      "type": "function",
      "constant": true
    },
    {
      "inputs": [],
      "name": "govAddress",
      "outputs": [
        {
          "internalType": "address",
          "name": "",
          "type": "address"
        }
      ],
      "stateMutability": "view",
      "type": "function",
      "constant": true
    },
    {
      "inputs": [
        {
          "internalType": "address",
          "name": "_token",
          "type": "address"
        },
        {
          "internalType": "uint256",
          "name": "_amount",
          "type": "uint256"
        },
        {
          "internalType": "address",
          "name": "_to",
          "type": "address"
        }
      ],
      "name": "inCaseTokensGetStuck",
      "outputs": [],
      "stateMutability": "nonpayable",
      "type": "function"
    },
    {
      "inputs": [
        {
          "internalType": "address",
          "name": "_timelockOwner",
          "type": "address"
        },
        {
          "components": [
            {
              "internalType": "uint256",
              "name": "pid",
              "type": "uint256"
            },
            {
              "internalType": "bool",
              "name": "isHomeChain",
              "type": "bool"
            },
            {
              "components": [
                {
                  "internalType": "address",
                  "name": "govAddress",
                  "type": "address"
                },
                {
                  "internalType": "address",
                  "name": "zorroControllerAddress",
                  "type": "address"
                },
                {
                  "internalType": "address",
                  "name": "ZORROAddress",
                  "type": "address"
                },
                {
                  "internalType": "address",
                  "name": "zorroStakingVault",
                  "type": "address"
                },
                {
                  "internalType": "address",
                  "name": "wantAddress",
                  "type": "address"
                },
                {
                  "internalType": "address",
                  "name": "token0Address",
                  "type": "address"
                },
                {
                  "internalType": "address",
                  "name": "token1Address",
                  "type": "address"
                },
                {
                  "internalType": "address",
                  "name": "earnedAddress",
                  "type": "address"
                },
                {
                  "internalType": "address",
                  "name": "farmContractAddress",
                  "type": "address"
                },
                {
                  "internalType": "address",
                  "name": "rewardsAddress",
                  "type": "address"
                },
                {
                  "internalType": "address",
                  "name": "poolAddress",
                  "type": "address"
                },
                {
                  "internalType": "address",
                  "name": "uniRouterAddress",
                  "type": "address"
                },
                {
                  "internalType": "address",
                  "name": "zorroLPPool",
                  "type": "address"
                },
                {
                  "internalType": "address",
                  "name": "zorroLPPoolOtherToken",
                  "type": "address"
                },
                {
                  "internalType": "address",
                  "name": "tokenUSDCAddress",
                  "type": "address"
                }
              ],
              "internalType": "struct VaultBase.VaultAddresses",
              "name": "keyAddresses",
              "type": "tuple"
            },
            {
              "internalType": "address[]",
              "name": "earnedToZORROPath",
              "type": "address[]"
            },
            {
              "internalType": "address[]",
              "name": "earnedToToken0Path",
              "type": "address[]"
            },
            {
              "internalType": "address[]",
              "name": "earnedToToken1Path",
              "type": "address[]"
            },
            {
              "internalType": "address[]",
              "name": "USDCToToken0Path",
              "type": "address[]"
            },
            {
              "internalType": "address[]",
              "name": "USDCToToken1Path",
              "type": "address[]"
            },
            {
              "internalType": "address[]",
              "name": "earnedToZORLPPoolOtherTokenPath",
              "type": "address[]"
            },
            {
              "internalType": "address[]",
              "name": "earnedToUSDCPath",
              "type": "address[]"
            },
            {
              "components": [
                {
                  "internalType": "uint256",
                  "name": "controllerFee",
                  "type": "uint256"
                },
                {
                  "internalType": "uint256",
                  "name": "buyBackRate",
                  "type": "uint256"
                },
                {
                  "internalType": "uint256",
                  "name": "revShareRate",
                  "type": "uint256"
                },
                {
                  "internalType": "uint256",
                  "name": "entranceFeeFactor",
                  "type": "uint256"
                },
                {
                  "internalType": "uint256",
                  "name": "withdrawFeeFactor",
                  "type": "uint256"
                }
              ],
              "internalType": "struct VaultBase.VaultFees",
              "name": "fees",
              "type": "tuple"
            },
            {
              "components": [
                {
                  "internalType": "address",
                  "name": "token0PriceFeed",
                  "type": "address"
                },
                {
                  "internalType": "address",
                  "name": "token1PriceFeed",
                  "type": "address"
                },
                {
                  "internalType": "address",
                  "name": "earnTokenPriceFeed",
                  "type": "address"
                },
                {
                  "internalType": "address",
                  "name": "ZORPriceFeed",
                  "type": "address"
                },
                {
                  "internalType": "address",
                  "name": "lpPoolOtherTokenPriceFeed",
                  "type": "address"
                }
              ],
              "internalType": "struct VaultBase.VaultPriceFeeds",
              "name": "priceFeeds",
              "type": "tuple"
            }
          ],
          "internalType": "struct VaultStandardAMM.VaultStandardAMMInit",
          "name": "_initValue",
          "type": "tuple"
        }
      ],
      "name": "initialize",
      "outputs": [],
      "stateMutability": "nonpayable",
      "type": "function"
    },
    {
      "inputs": [
        {
          "internalType": "address",
          "name": "_timelockOwner",
          "type": "address"
        }
      ],
      "name": "initialize",
      "outputs": [],
      "stateMutability": "nonpayable",
      "type": "function"
    },
    {
      "inputs": [],
      "name": "isHomeChain",
      "outputs": [
        {
          "internalType": "bool",
          "name": "",
          "type": "bool"
        }
      ],
      "stateMutability": "view",
      "type": "function",
      "constant": true
    },
    {
      "inputs": [],
      "name": "lastEarnBlock",
      "outputs": [
        {
          "internalType": "uint256",
          "name": "",
          "type": "uint256"
        }
      ],
      "stateMutability": "view",
      "type": "function",
      "constant": true
    },
    {
      "inputs": [],
      "name": "lpPoolOtherTokenPriceFeed",
      "outputs": [
        {
          "internalType": "contract AggregatorV3Interface",
          "name": "",
          "type": "address"
        }
      ],
      "stateMutability": "view",
      "type": "function",
      "constant": true
    },
    {
      "inputs": [],
      "name": "onlyGov",
      "outputs": [
        {
          "internalType": "bool",
          "name": "",
          "type": "bool"
        }
      ],
      "stateMutability": "view",
      "type": "function",
      "constant": true
    },
    {
      "inputs": [],
      "name": "owner",
      "outputs": [
        {
          "internalType": "address",
          "name": "",
          "type": "address"
        }
      ],
      "stateMutability": "view",
      "type": "function",
      "constant": true
    },
    {
      "inputs": [],
      "name": "pause",
      "outputs": [],
      "stateMutability": "nonpayable",
      "type": "function"
    },
    {
      "inputs": [],
      "name": "paused",
      "outputs": [
        {
          "internalType": "bool",
          "name": "",
          "type": "bool"
        }
      ],
      "stateMutability": "view",
      "type": "function",
      "constant": true
    },
    {
      "inputs": [],
      "name": "pid",
      "outputs": [
        {
          "internalType": "uint256",
          "name": "",
          "type": "uint256"
        }
      ],
      "stateMutability": "view",
      "type": "function",
      "constant": true
    },
    {
      "inputs": [],
      "name": "poolAddress",
      "outputs": [
        {
          "internalType": "address",
          "name": "",
          "type": "address"
        }
      ],
      "stateMutability": "view",
      "type": "function",
      "constant": true
    },
    {
      "inputs": [],
      "name": "renounceOwnership",
      "outputs": [],
      "stateMutability": "nonpayable",
      "type": "function"
    },
    {
      "inputs": [],
      "name": "revShareRate",
      "outputs": [
        {
          "internalType": "uint256",
          "name": "",
          "type": "uint256"
        }
      ],
      "stateMutability": "view",
      "type": "function",
      "constant": true
    },
    {
      "inputs": [],
      "name": "revShareRateMax",
      "outputs": [
        {
          "internalType": "uint256",
          "name": "",
          "type": "uint256"
        }
      ],
      "stateMutability": "view",
      "type": "function",
      "constant": true
    },
    {
      "inputs": [],
      "name": "revShareRateUL",
      "outputs": [
        {
          "internalType": "uint256",
          "name": "",
          "type": "uint256"
        }
      ],
      "stateMutability": "view",
      "type": "function",
      "constant": true
    },
    {
      "inputs": [],
      "name": "rewardsAddress",
      "outputs": [
        {
          "internalType": "address",
          "name": "",
          "type": "address"
        }
      ],
      "stateMutability": "view",
      "type": "function",
      "constant": true
    },
    {
      "inputs": [
        {
          "internalType": "address",
          "name": "_burnAddress",
          "type": "address"
        }
      ],
      "name": "setBurnAddress",
      "outputs": [],
      "stateMutability": "nonpayable",
      "type": "function"
    },
    {
      "inputs": [
        {
          "internalType": "address",
          "name": "_earnedAddress",
          "type": "address"
        }
      ],
      "name": "setEarnedAddress",
      "outputs": [],
      "stateMutability": "nonpayable",
      "type": "function"
    },
    {
      "inputs": [
        {
          "internalType": "address",
          "name": "_farmContractAddress",
          "type": "address"
        }
      ],
      "name": "setFarmContractAddress",
      "outputs": [],
      "stateMutability": "nonpayable",
      "type": "function"
    },
    {
      "inputs": [
        {
          "internalType": "uint256",
          "name": "_entranceFeeFactor",
          "type": "uint256"
        },
        {
          "internalType": "uint256",
          "name": "_withdrawFeeFactor",
          "type": "uint256"
        },
        {
          "internalType": "uint256",
          "name": "_controllerFee",
          "type": "uint256"
        },
        {
          "internalType": "uint256",
          "name": "_buyBackRate",
          "type": "uint256"
        }
      ],
      "name": "setFeeSettings",
      "outputs": [],
      "stateMutability": "nonpayable",
      "type": "function"
    },
    {
      "inputs": [
        {
          "internalType": "address",
          "name": "_govAddress",
          "type": "address"
        }
      ],
      "name": "setGov",
      "outputs": [],
      "stateMutability": "nonpayable",
      "type": "function"
    },
    {
      "inputs": [
        {
          "internalType": "bool",
          "name": "_onlyGov",
          "type": "bool"
        }
      ],
      "name": "setOnlyGov",
      "outputs": [],
      "stateMutability": "nonpayable",
      "type": "function"
    },
    {
      "inputs": [
        {
          "internalType": "uint256",
          "name": "_pid",
          "type": "uint256"
        }
      ],
      "name": "setPid",
      "outputs": [],
      "stateMutability": "nonpayable",
      "type": "function"
    },
    {
      "inputs": [
        {
          "internalType": "address",
          "name": "_poolAddress",
          "type": "address"
        }
      ],
      "name": "setPoolAddress",
      "outputs": [],
      "stateMutability": "nonpayable",
      "type": "function"
    },
    {
      "inputs": [
        {
          "internalType": "uint8",
          "name": "_idx",
          "type": "uint8"
        },
        {
          "internalType": "address",
          "name": "_priceFeed",
          "type": "address"
        }
      ],
      "name": "setPriceFeed",
      "outputs": [],
      "stateMutability": "nonpayable",
      "type": "function"
    },
    {
      "inputs": [
        {
          "internalType": "address",
          "name": "_rewardsAddress",
          "type": "address"
        }
      ],
      "name": "setRewardsAddress",
      "outputs": [],
      "stateMutability": "nonpayable",
      "type": "function"
    },
    {
      "inputs": [
        {
          "internalType": "uint8",
          "name": "_idx",
          "type": "uint8"
        },
        {
          "internalType": "address[]",
          "name": "_path",
          "type": "address[]"
        }
      ],
      "name": "setSwapPaths",
      "outputs": [],
      "stateMutability": "nonpayable",
      "type": "function"
    },
    {
      "inputs": [
        {
          "internalType": "address",
          "name": "_token0Address",
          "type": "address"
        }
      ],
      "name": "setToken0Address",
      "outputs": [],
      "stateMutability": "nonpayable",
      "type": "function"
    },
    {
      "inputs": [
        {
          "internalType": "address",
          "name": "_token1Address",
          "type": "address"
        }
      ],
      "name": "setToken1Address",
      "outputs": [],
      "stateMutability": "nonpayable",
      "type": "function"
    },
    {
      "inputs": [
        {
          "internalType": "address",
          "name": "_tokenUSDCAddress",
          "type": "address"
        }
      ],
      "name": "setTokenUSDCAddress",
      "outputs": [],
      "stateMutability": "nonpayable",
      "type": "function"
    },
    {
      "inputs": [
        {
          "internalType": "address",
          "name": "_uniRouterAddress",
          "type": "address"
        }
      ],
      "name": "setUniRouterAddress",
      "outputs": [],
      "stateMutability": "nonpayable",
      "type": "function"
    },
    {
      "inputs": [
        {
          "internalType": "address",
          "name": "_wantAddress",
          "type": "address"
        }
      ],
      "name": "setWantAddress",
      "outputs": [],
      "stateMutability": "nonpayable",
      "type": "function"
    },
    {
      "inputs": [
        {
          "internalType": "address",
          "name": "_ZORROAddress",
          "type": "address"
        }
      ],
      "name": "setZORROAddress",
      "outputs": [],
      "stateMutability": "nonpayable",
      "type": "function"
    },
    {
      "inputs": [
        {
          "internalType": "address",
          "name": "_zorroControllerAddress",
          "type": "address"
        }
      ],
      "name": "setZorroControllerAddress",
      "outputs": [],
      "stateMutability": "nonpayable",
      "type": "function"
    },
    {
      "inputs": [
        {
          "internalType": "address",
          "name": "_poolAddress",
          "type": "address"
        }
      ],
      "name": "setZorroLPPoolAddress",
      "outputs": [],
      "stateMutability": "nonpayable",
      "type": "function"
    },
    {
      "inputs": [
        {
          "internalType": "address",
          "name": "_otherToken",
          "type": "address"
        }
      ],
      "name": "setZorroLPPoolOtherToken",
      "outputs": [],
      "stateMutability": "nonpayable",
      "type": "function"
    },
    {
      "inputs": [
        {
          "internalType": "address",
          "name": "_stakingVault",
          "type": "address"
        }
      ],
      "name": "setZorroStakingVault",
      "outputs": [],
      "stateMutability": "nonpayable",
      "type": "function"
    },
    {
      "inputs": [],
      "name": "sharesTotal",
      "outputs": [
        {
          "internalType": "uint256",
          "name": "",
          "type": "uint256"
        }
      ],
      "stateMutability": "view",
      "type": "function",
      "constant": true
    },
    {
      "inputs": [],
      "name": "token0Address",
      "outputs": [
        {
          "internalType": "address",
          "name": "",
          "type": "address"
        }
      ],
      "stateMutability": "view",
      "type": "function",
      "constant": true
    },
    {
      "inputs": [],
      "name": "token0PriceFeed",
      "outputs": [
        {
          "internalType": "contract AggregatorV3Interface",
          "name": "",
          "type": "address"
        }
      ],
      "stateMutability": "view",
      "type": "function",
      "constant": true
    },
    {
      "inputs": [
        {
          "internalType": "uint256",
          "name": "",
          "type": "uint256"
        }
      ],
      "name": "token0ToUSDCPath",
      "outputs": [
        {
          "internalType": "address",
          "name": "",
          "type": "address"
        }
      ],
      "stateMutability": "view",
      "type": "function",
      "constant": true
    },
    {
      "inputs": [],
      "name": "token1Address",
      "outputs": [
        {
          "internalType": "address",
          "name": "",
          "type": "address"
        }
      ],
      "stateMutability": "view",
      "type": "function",
      "constant": true
    },
    {
      "inputs": [],
      "name": "token1PriceFeed",
      "outputs": [
        {
          "internalType": "contract AggregatorV3Interface",
          "name": "",
          "type": "address"
        }
      ],
      "stateMutability": "view",
      "type": "function",
      "constant": true
    },
    {
      "inputs": [
        {
          "internalType": "uint256",
          "name": "",
          "type": "uint256"
        }
      ],
      "name": "token1ToUSDCPath",
      "outputs": [
        {
          "internalType": "address",
          "name": "",
          "type": "address"
        }
      ],
      "stateMutability": "view",
      "type": "function",
      "constant": true
    },
    {
      "inputs": [],
      "name": "tokenUSDCAddress",
      "outputs": [
        {
          "internalType": "address",
          "name": "",
          "type": "address"
        }
      ],
      "stateMutability": "view",
      "type": "function",
      "constant": true
    },
    {
      "inputs": [
        {
          "internalType": "address",
          "name": "newOwner",
          "type": "address"
        }
      ],
      "name": "transferOwnership",
      "outputs": [],
      "stateMutability": "nonpayable",
      "type": "function"
    },
    {
      "inputs": [],
      "name": "uniRouterAddress",
      "outputs": [
        {
          "internalType": "address",
          "name": "",
          "type": "address"
        }
      ],
      "stateMutability": "view",
      "type": "function",
      "constant": true
    },
    {
      "inputs": [],
      "name": "unpause",
      "outputs": [],
      "stateMutability": "nonpayable",
      "type": "function"
    },
    {
      "inputs": [
        {
          "internalType": "address",
          "name": "",
          "type": "address"
        }
      ],
      "name": "userShares",
      "outputs": [
        {
          "internalType": "uint256",
          "name": "",
          "type": "uint256"
        }
      ],
      "stateMutability": "view",
      "type": "function",
      "constant": true
    },
    {
      "inputs": [],
      "name": "wantAddress",
      "outputs": [
        {
          "internalType": "address",
          "name": "",
          "type": "address"
        }
      ],
      "stateMutability": "view",
      "type": "function",
      "constant": true
    },
    {
      "inputs": [],
      "name": "wantLockedTotal",
      "outputs": [
        {
          "internalType": "uint256",
          "name": "",
          "type": "uint256"
        }
      ],
      "stateMutability": "view",
      "type": "function",
      "constant": true
    },
    {
      "inputs": [],
      "name": "withdrawFeeFactor",
      "outputs": [
        {
          "internalType": "uint256",
          "name": "",
          "type": "uint256"
        }
      ],
      "stateMutability": "view",
      "type": "function",
      "constant": true
    },
    {
      "inputs": [],
      "name": "withdrawFeeFactorLL",
      "outputs": [
        {
          "internalType": "uint256",
          "name": "",
          "type": "uint256"
        }
      ],
      "stateMutability": "view",
      "type": "function",
      "constant": true
    },
    {
      "inputs": [],
      "name": "withdrawFeeFactorMax",
      "outputs": [
        {
          "internalType": "uint256",
          "name": "",
          "type": "uint256"
        }
      ],
      "stateMutability": "view",
      "type": "function",
      "constant": true
    },
    {
      "inputs": [
        {
          "internalType": "address",
          "name": "_account",
          "type": "address"
        },
        {
          "internalType": "uint256",
          "name": "_wantAmt",
          "type": "uint256"
        }
      ],
      "name": "withdrawWantToken",
      "outputs": [
        {
          "internalType": "uint256",
          "name": "sharesRemoved",
          "type": "uint256"
        }
      ],
      "stateMutability": "nonpayable",
      "type": "function"
    },
    {
      "inputs": [],
      "name": "zorroControllerAddress",
      "outputs": [
        {
          "internalType": "address",
          "name": "",
          "type": "address"
        }
      ],
      "stateMutability": "view",
      "type": "function",
      "constant": true
    },
    {
      "inputs": [],
      "name": "zorroLPPool",
      "outputs": [
        {
          "internalType": "address",
          "name": "",
          "type": "address"
        }
      ],
      "stateMutability": "view",
      "type": "function",
      "constant": true
    },
    {
      "inputs": [],
      "name": "zorroLPPoolOtherToken",
      "outputs": [
        {
          "internalType": "address",
          "name": "",
          "type": "address"
        }
      ],
      "stateMutability": "view",
      "type": "function",
      "constant": true
    },
    {
      "inputs": [],
      "name": "zorroStakingVault",
      "outputs": [
        {
          "internalType": "address",
          "name": "",
          "type": "address"
        }
      ],
      "stateMutability": "view",
      "type": "function",
      "constant": true
    },
    {
      "inputs": [],
      "name": "zorroXChainController",
      "outputs": [
        {
          "internalType": "address",
          "name": "",
          "type": "address"
        }
      ],
      "stateMutability": "view",
      "type": "function",
      "constant": true
    },
    {
      "inputs": [
        {
          "internalType": "address[]",
          "name": "_path",
          "type": "address[]"
        }
      ],
      "name": "reversePath",
      "outputs": [
        {
          "internalType": "address[]",
          "name": "",
          "type": "address[]"
        }
      ],
      "stateMutability": "pure",
      "type": "function",
      "constant": true
    },
    {
      "inputs": [
        {
          "internalType": "uint256",
          "name": "_wantAmt",
          "type": "uint256"
        }
      ],
      "name": "unfarm",
      "outputs": [],
      "stateMutability": "nonpayable",
      "type": "function"
    },
    {
      "inputs": [
        {
          "internalType": "uint256",
          "name": "_earnedAmount",
          "type": "uint256"
        },
        {
          "internalType": "address",
          "name": "_destination",
          "type": "address"
        },
        {
          "internalType": "uint256",
          "name": "_maxMarketMovementAllowed",
          "type": "uint256"
        },
        {
          "components": [
            {
              "internalType": "uint256",
              "name": "earn",
              "type": "uint256"
            },
            {
              "internalType": "uint256",
              "name": "ZOR",
              "type": "uint256"
            },
            {
              "internalType": "uint256",
              "name": "lpPoolOtherToken",
              "type": "uint256"
            }
          ],
          "internalType": "struct VaultBase.ExchangeRates",
          "name": "_rates",
          "type": "tuple"
        }
      ],
      "name": "swapEarnedToUSDC",
      "outputs": [],
      "stateMutability": "nonpayable",
      "type": "function"
    },
    {
      "inputs": [
        {
          "internalType": "uint256",
          "name": "_amount",
          "type": "uint256"
        },
        {
          "internalType": "uint256",
          "name": "_maxMarketMovementAllowed",
          "type": "uint256"
        },
        {
          "components": [
            {
              "internalType": "uint256",
              "name": "earn",
              "type": "uint256"
            },
            {
              "internalType": "uint256",
              "name": "ZOR",
              "type": "uint256"
            },
            {
              "internalType": "uint256",
              "name": "lpPoolOtherToken",
              "type": "uint256"
            }
          ],
          "internalType": "struct VaultBase.ExchangeRates",
          "name": "_rates",
          "type": "tuple"
        }
      ],
      "name": "revShareOnChain",
      "outputs": [],
      "stateMutability": "nonpayable",
      "type": "function"
    },
    {
      "inputs": [
        {
          "internalType": "uint256",
          "name": "_amount",
          "type": "uint256"
        },
        {
          "internalType": "uint256",
          "name": "_maxMarketMovementAllowed",
          "type": "uint256"
        },
        {
          "components": [
            {
              "internalType": "uint256",
              "name": "earn",
              "type": "uint256"
            },
            {
              "internalType": "uint256",
              "name": "ZOR",
              "type": "uint256"
            },
            {
              "internalType": "uint256",
              "name": "lpPoolOtherToken",
              "type": "uint256"
            }
          ],
          "internalType": "struct VaultBase.ExchangeRates",
          "name": "_rates",
          "type": "tuple"
        }
      ],
      "name": "buybackOnChain",
      "outputs": [],
      "stateMutability": "nonpayable",
      "type": "function"
    }
  ],
  "bytecode": "0x608060405234801561001057600080fd5b50614f9c806100206000396000f3fe608060405234801561001057600080fd5b50600436106105195760003560e01c80638456cb59116102a4578063c4d66de811610172578063e7198474116100d9578063f106845411610092578063f106845414610acf578063f25342bf14610ad8578063f2fde38b14610aeb578063f5046a2914610afe578063fbf5683f14610b11578063ff29b39514610b2457600080fd5b8063e719847414610a76578063e7a0367914610a89578063e9e15b4f14610a9c578063ebfba7c414610aaf578063edf5e58514610ac2578063ee50dc341461062b57600080fd5b8063d7cb416f1161012b578063d7cb416f146109f7578063de69b3aa14610a0a578063de84199114610a2a578063e0ccabfa14610a3d578063e502a88d14610a50578063e65a011714610a6357600080fd5b8063c4d66de814610985578063c5c97cbf14610998578063c6efd577146109ab578063c8479cd6146109be578063c8e3d18b146109d1578063cfad57a2146109e457600080fd5b8063aabf190b11610216578063b73cba2a116101cf578063b73cba2a14610926578063b86c5f5314610939578063ba0bb4ab1461094c578063bf3a7d401461095f578063c0973eed14610972578063c302a4d01461081b57600080fd5b8063aabf190b146108c7578063ab196def146108da578063ae53e58a146108ed578063b1414dbb14610900578063b3545c0114610546578063b6b41a8b1461091357600080fd5b80638da5cb5b116102685780638da5cb5b14610857578063959334f41461086857806396e9aff81461087b5780639f703a561461088e5780639fc33a9f146108a1578063a4d2b083146108b457600080fd5b80638456cb591461080a57806385f02dd614610812578063866b20181461081b5780638906758d146108245780638b4c5aee1461083757600080fd5b80634b0e7216116103ec5780636392ab12116103535780636ca8bd651161030c5780636ca8bd65146107a35780636f96f6fa146107b657806370d5ae05146107c9578063715018a6146107dc5780637bf604d8146107e45780637ff36fbe146107f757600080fd5b80636392ab121461074e578063648794a41461076157806367057b6c1461062b57806367206d401461077457806368f5416214610787578063693a090b1461079057600080fd5b80635b513393116103a55780635b513393146106e45780635c975abb146106f75780635da79d63146107025780635fc77d43146107155780636183e8041461072857806361b5bf9f1461073b57600080fd5b80634b0e7216146106855780634c5b09da146106985780634ce54ddb146106ab5780634d9f7bb21461062b5780634e2cb8b6146106be578063583bda3b146106d157600080fd5b80631c885bae1161049057806336e9332d1161044957806336e9332d146106505780633f4ba83a1461065857806342da4eb31461066057806343788cd21461062b57806344a3955e1461066957806346008a071461067257600080fd5b80631c885bae146106055780631e12819a14610618578063211019d7146105465780632717eff31461062b5780633214471f146106345780633395cfd61461063d57600080fd5b80630fa4e01e116104e25780630fa4e01e1461059957806313303335146105a25780631334903f146105b55780631755ff21146105be578063178a8d07146105e95780631b0d8aab146105f257600080fd5b80629b81db1461051e57806305828d3e14610533578063061c7d48146105465780630b6bb30b146105625780630daef32114610575575b600080fd5b61053161052c366004614255565b610b37565b005b6105316105413660046142a7565b610b47565b61054f6103e881565b6040519081526020015b60405180910390f35b6105316105703660046142db565b610b9c565b60cb5461058990600160a01b900460ff1681565b6040519015158152602001610559565b61054f60e15481565b6105316105b03660046142f8565b610c1e565b61054f60df5481565b60d8546105d1906001600160a01b031681565b6040516001600160a01b039091168152602001610559565b61054f60dd5481565b61053161060036600461433f565b610c30565b61053161061336600461433f565b610c5f565b6105316106263660046142a7565b610c6c565b61054f61271081565b61054f60de5481565b61053161064b3660046145d0565b610cb8565b6105316110d3565b61053161110a565b61054f60e25481565b61054f60e35481565b60cb546105d1906001600160a01b031681565b6105316106933660046142a7565b61113e565b6105316106a63660046142a7565b61118a565b60d5546105d1906001600160a01b031681565b6105d16106cc36600461433f565b6111d6565b6105316106df3660046142a7565b611200565b6105316106f2366004614787565b61124c565b60975460ff16610589565b6105316107103660046142a7565b6114bc565b60cd546105d1906001600160a01b031681565b6105316107363660046142a7565b611508565b6105316107493660046142a7565b611554565b6105d161075c36600461433f565b6115a0565b61054f61076f3660046147b9565b6115b0565b6105316107823660046147db565b61194d565b61054f60e05481565b60d9546105d1906001600160a01b031681565b6105316107b13660046142a7565b611a17565b60f0546105d1906001600160a01b031681565b60d6546105d1906001600160a01b031681565b610531611a63565b60da546105d1906001600160a01b031681565b60d1546105d1906001600160a01b031681565b610531611a97565b61054f60dc5481565b61054f61232881565b6105316108323660046142a7565b611ac9565b61084a61084536600461480e565b611b15565b6040516105599190614887565b6033546001600160a01b03166105d1565b6105316108763660046142a7565b611b20565b6105d161088936600461433f565b611b6c565b6105d161089c36600461433f565b611b7c565b60d4546105d1906001600160a01b031681565b60cf546105d1906001600160a01b031681565b60f1546105d1906001600160a01b031681565b60f2546105d1906001600160a01b031681565b60ef546105d1906001600160a01b031681565b60cc546105d1906001600160a01b031681565b610531610921366004614255565b611b8c565b6105316109343660046142a7565b611b97565b6105d161094736600461433f565b611be3565b61054f61095a36600461489a565b611bf3565b61053161096d3660046142a7565b611d7c565b60d7546105d1906001600160a01b031681565b6105316109933660046142a7565b611dc8565b6105d16109a636600461433f565b611e5f565b6105d16109b936600461433f565b611e6f565b6105316109cc3660046142a7565b611e7f565b6105d16109df36600461433f565b611ecb565b6105316109f23660046142a7565b611edb565b60d2546105d1906001600160a01b031681565b61054f610a183660046142a7565b60e46020526000908152604090205481565b610531610a383660046148d3565b611f53565b61054f610a4b36600461489a565b612099565b61054f610a5e3660046147b9565b612233565b610531610a7136600461433f565b61269a565b60d3546105d1906001600160a01b031681565b60d0546105d1906001600160a01b031681565b610531610aaa3660046142a7565b612afc565b60db546105d1906001600160a01b031681565b60c9546105899060ff1681565b61054f60ca5481565b60ee546105d1906001600160a01b031681565b610531610af93660046142a7565b612b48565b60ce546105d1906001600160a01b031681565b6105d1610b1f36600461433f565b612be3565b610531610b32366004614908565b612bf3565b610b42838383612cf1565b505050565b6033546001600160a01b03163314610b7a5760405162461bcd60e51b8152600401610b7190614990565b60405180910390fd5b60d280546001600160a01b0319166001600160a01b0392909216919091179055565b60cb546001600160a01b03163314610bc65760405162461bcd60e51b8152600401610b71906149c5565b60cb8054821515600160a01b0260ff60a01b199091161790556040517f125177ac7b8930dac1e59c2b30b1b6b9191b30af40cf6bbb5d20fec4d44be60f90610c1390831515815260200190565b60405180910390a150565b610c2a84848484613003565b50505050565b6033546001600160a01b03163314610c5a5760405162461bcd60e51b8152600401610b7190614990565b60ca55565b610c68816130a1565b5050565b6033546001600160a01b03163314610c965760405162461bcd60e51b8152600401610b7190614990565b60d580546001600160a01b0319166001600160a01b0392909216919091179055565b600054610100900460ff16610cd35760005460ff1615610cd7565b303b155b610cf35760405162461bcd60e51b8152600401610b71906149e3565b600054610100900460ff16158015610d15576000805461ffff19166101011790555b815160ca5560208083015160c9805460ff1916911515919091179055604080840151805160cb8054600160a01b6001600160a01b039384166001600160a81b0319909216919091171790558184015160cc80546001600160a01b03199081169284169290921790558284015160ce8054831691841691909117905560608084015160cf8054841691851691909117905560808085015160d08054851691861691909117905560a085015160d18054851691861691909117905560e08086015160d38054861691871691909117905561010086015160d48054861691871691909117905561012086015160d7805486169187169190911790556101408087015160d88054871691881691909117905561016087015160d98054871691881691909117905561018087015160da805487169188169190911790556101a087015160db805487169188169190911790556101c09096015160d5805490951695169490941790925592870151805160dc558086015160dd559384015160de558383015160df5592909201519091558301518051610eb29260eb920190614078565b5060808201518051610ecc9160e991602090910190614078565b5060a08201518051610ee69160ea91602090910190614078565b5060c08201518051610f009160e591602090910190614078565b5060e08201518051610f1a9160e691602090910190614078565b506101008201518051610f359160ec91602090910190614078565b506101208201518051610f509160ed91602090910190614078565b50610fb460e5805480602002602001604051908101604052809291908181526020018280548015610faa57602002820191906000526020600020905b81546001600160a01b03168152600190910190602001808311610f8c575b50505050506131b1565b8051610fc89160e791602090910190614078565b5061102a60e6805480602002602001604051908101604052809291908181526020018280548015610faa576020028201919060005260206000209081546001600160a01b03168152600190910190602001808311610f8c5750505050506131b1565b805161103e9160e891602090910190614078565b50610160820151805160ee80546001600160a01b03199081166001600160a01b0393841617909155602083015160ef80548316918416919091179055604083015160f080548316918416919091179055608083015160f18054831691841691909117905560609092015160f2805490931691161790556110bd83611dc8565b8015610b42576000805461ff0019169055505050565b600260655414156110f65760405162461bcd60e51b8152600401610b7190614a31565b600260655561110361328b565b6001606555565b60cb546001600160a01b031633146111345760405162461bcd60e51b8152600401610b71906149c5565b61113c613399565b565b6033546001600160a01b031633146111685760405162461bcd60e51b8152600401610b7190614990565b60d680546001600160a01b0319166001600160a01b0392909216919091179055565b6033546001600160a01b031633146111b45760405162461bcd60e51b8152600401610b7190614990565b60d480546001600160a01b0319166001600160a01b0392909216919091179055565b60e881815481106111e657600080fd5b6000918252602090912001546001600160a01b0316905081565b6033546001600160a01b0316331461122a5760405162461bcd60e51b8152600401610b7190614990565b60ce80546001600160a01b0319166001600160a01b0392909216919091179055565b60cb546001600160a01b031633146112765760405162461bcd60e51b8152600401610b71906149c5565b6123288410156112c85760405162461bcd60e51b815260206004820152601a60248201527f5f656e7472616e6365466565466163746f7220746f6f206c6f770000000000006044820152606401610b71565b61271084111561131a5760405162461bcd60e51b815260206004820152601b60248201527f5f656e7472616e6365466565466163746f7220746f6f206869676800000000006044820152606401610b71565b60df8490556123288310156113715760405162461bcd60e51b815260206004820152601a60248201527f5f7769746864726177466565466163746f7220746f6f206c6f770000000000006044820152606401610b71565b6127108311156113c35760405162461bcd60e51b815260206004820152601b60248201527f5f7769746864726177466565466163746f7220746f6f206869676800000000006044820152606401610b71565b60e08390556103e882111561141a5760405162461bcd60e51b815260206004820152601760248201527f5f636f6e74726f6c6c657246656520746f6f20686967680000000000000000006044820152606401610b71565b60dc8290556103e88111156114695760405162461bcd60e51b81526020600482015260156024820152740bec4eaf284c2c6d6a4c2e8ca40e8dede40d0d2ced605b1b6044820152606401610b71565b60dd8190556040805185815260208101859052908101839052606081018290527fd9968429114ac80bd16723a205e45e46393aefba1f08fb7bdffbad9ef60946089060800160405180910390a150505050565b6033546001600160a01b031633146114e65760405162461bcd60e51b8152600401610b7190614990565b60d980546001600160a01b0319166001600160a01b0392909216919091179055565b6033546001600160a01b031633146115325760405162461bcd60e51b8152600401610b7190614990565b60d080546001600160a01b0319166001600160a01b0392909216919091179055565b6033546001600160a01b0316331461157e5760405162461bcd60e51b8152600401610b7190614990565b60da80546001600160a01b0319166001600160a01b0392909216919091179055565b60eb81815481106111e657600080fd5b60cc546000906001600160a01b0316336001600160a01b0316146115e65760405162461bcd60e51b8152600401610b7190614a68565b60975460ff16156116095760405162461bcd60e51b8152600401610b7190614a92565b600083116116505760405162461bcd60e51b8152602060048201526014602482015273057616e7420616d74206d757374206265203e20360641b6044820152606401610b71565b60d054611668906001600160a01b031633308661342c565b60ee54600090611680906001600160a01b0316613497565b60ef5490915060009061169b906001600160a01b0316613497565b90506116a88585306135d7565b60d1546040516370a0823160e01b81523060048201526000916001600160a01b0316906370a0823190602401602060405180830381865afa1580156116f1573d6000803e3d6000fd5b505050506040513d601f19601f820116820180604052508101906117159190614abc565b60d2546040516370a0823160e01b81523060048201529192506000916001600160a01b03909116906370a0823190602401602060405180830381865afa158015611763573d6000803e3d6000fd5b505050506040513d601f19601f820116820180604052508101906117879190614abc565b60d95460d1549192506117a7916001600160a01b03908116911684613846565b60d95460d2546117c4916001600160a01b03918216911683613846565b611859828564e8d4a510008960e780548060200260200160405190810160405280929190818152602001828054801561182657602002820191906000526020600020905b81546001600160a01b03168152600190910190602001808311611808575b505050505033611841610258426138f890919063ffffffff16565b60d9546001600160a01b03169695949392919061390b565b6118d4818464e8d4a510008960e8805480602002602001604051908101604052809291908181526020018280548015611826576020028201919060005260206000209081546001600160a01b0316815260019091019060200180831161180857505050505033611841610258426138f890919063ffffffff16565b60d5546040516370a0823160e01b81523360048201526001600160a01b03909116906370a0823190602401602060405180830381865afa15801561191c573d6000803e3d6000fd5b505050506040513d601f19601f820116820180604052508101906119409190614abc565b9450505050505b92915050565b60cb546001600160a01b031633146119775760405162461bcd60e51b8152600401610b71906149c5565b60d3546001600160a01b03848116911614156119bd5760405162461bcd60e51b8152602060048201526005602482015264217361666560d81b6044820152606401610b71565b60d0546001600160a01b0384811691161415611a035760405162461bcd60e51b8152602060048201526005602482015264217361666560d81b6044820152606401610b71565b610b426001600160a01b0384168284613a74565b6033546001600160a01b03163314611a415760405162461bcd60e51b8152600401610b7190614990565b60cf80546001600160a01b0319166001600160a01b0392909216919091179055565b6033546001600160a01b03163314611a8d5760405162461bcd60e51b8152600401610b7190614990565b61113c6000613aa4565b60cb546001600160a01b03163314611ac15760405162461bcd60e51b8152600401610b71906149c5565b61113c613af6565b6033546001600160a01b03163314611af35760405162461bcd60e51b8152600401610b7190614990565b60d780546001600160a01b0319166001600160a01b0392909216919091179055565b6060611947826131b1565b6033546001600160a01b03163314611b4a5760405162461bcd60e51b8152600401610b7190614990565b60db80546001600160a01b0319166001600160a01b0392909216919091179055565b60ea81815481106111e657600080fd5b60ed81815481106111e657600080fd5b610b42838383613b4e565b6033546001600160a01b03163314611bc15760405162461bcd60e51b8152600401610b7190614990565b60d380546001600160a01b0319166001600160a01b0392909216919091179055565b60e581815481106111e657600080fd5b60cc546000906001600160a01b0316336001600160a01b031614611c295760405162461bcd60e51b8152600401610b7190614a68565b60026065541415611c4c5760405162461bcd60e51b8152600401610b7190614a31565b600260655560975460ff1615611c745760405162461bcd60e51b8152600401610b7190614a92565b60008211611cb35760405162461bcd60e51b815260206004820152600c60248201526b057616e7420646570203c20360a41b6044820152606401610b71565b60d054611ccb906001600160a01b031633308561342c565b819050600060e254118015611ce25750600060e354115b15611d1d57611d1a612710611d1460e254611d1460df54611d0e60e35489613bf090919063ffffffff16565b90613bf0565b90613bfc565b90505b60e354611d2a90826138f8565b60e3556001600160a01b038316600090815260e46020526040902054611d5090826138f8565b6001600160a01b038416600090815260e46020526040902055611d7161328b565b600160655592915050565b6033546001600160a01b03163314611da65760405162461bcd60e51b8152600401610b7190614990565b60cc80546001600160a01b0319166001600160a01b0392909216919091179055565b600054610100900460ff16611de35760005460ff1615611de7565b303b155b611e035760405162461bcd60e51b8152600401610b71906149e3565b600054610100900460ff16158015611e25576000805461ffff19166101011790555b611e2d613c08565b611e3682612b48565b60d680546001600160a01b03191661dead1790558015610c68576000805461ff00191690555050565b60e681815481106111e657600080fd5b60e781815481106111e657600080fd5b6033546001600160a01b03163314611ea95760405162461bcd60e51b8152600401610b7190614990565b60d180546001600160a01b0319166001600160a01b0392909216919091179055565b60e981815481106111e657600080fd5b60cb546001600160a01b03163314611f055760405162461bcd60e51b8152600401610b71906149c5565b60cb80546001600160a01b0319166001600160a01b0383169081179091556040519081527f91a8c1cc2d4a3bb60738481947a00cbb9899c822916694cf8bb1d68172fdcd5490602001610c13565b6033546001600160a01b03163314611f7d5760405162461bcd60e51b8152600401610b7190614990565b60ff8216611fa65760ee80546001600160a01b0383166001600160a01b03199091161790555050565b8160ff1660011415611fd35760ef80546001600160a01b0383166001600160a01b03199091161790555050565b8160ff16600214156120005760f080546001600160a01b0383166001600160a01b03199091161790555050565b8160ff166003141561202d5760f280546001600160a01b0383166001600160a01b03199091161790555050565b8160ff166004141561205a5760f180546001600160a01b0383166001600160a01b03199091161790555050565b60405162461bcd60e51b81526020600482015260146024820152730eadce6eae0e0dee4e8cac840cccacac840d2c8f60631b6044820152606401610b71565b60cc546000906001600160a01b0316336001600160a01b0316146120cf5760405162461bcd60e51b8152600401610b7190614a68565b600260655414156120f25760405162461bcd60e51b8152600401610b7190614a31565b600260655560975460ff161561211a5760405162461bcd60e51b8152600401610b7190614a92565b6000821161215a5760405162461bcd60e51b815260206004820152600d60248201526c077616e7420616d74203c3d203609c1b6044820152606401610b71565b61217560e254611d1460e35485613bf090919063ffffffff16565b905060e354811115612186575060e3545b60e3546121939082613c37565b60e3556001600160a01b038316600090815260e460205260409020546121b99082613c37565b6001600160a01b038416600090815260e4602052604090205560e05461271011156121fc576121f9612710611d1460e05485613bf090919063ffffffff16565b91505b6000612207836130a1565b60cc5460d054919250612227916001600160a01b03908116911683613a74565b50600160655592915050565b60cc546000906001600160a01b0316336001600160a01b0316146122695760405162461bcd60e51b8152600401610b7190614a68565b60975460ff161561228c5760405162461bcd60e51b8152600401610b7190614a92565b60d5546040516370a0823160e01b81523060048201526000916001600160a01b0316906370a0823190602401602060405180830381865afa1580156122d5573d6000803e3d6000fd5b505050506040513d601f19601f820116820180604052508101906122f99190614abc565b90506000841161234b5760405162461bcd60e51b815260206004820152601860248201527f55534443206465706f736974206d757374206265203e203000000000000000006044820152606401610b71565b8084111561239b5760405162461bcd60e51b815260206004820152601960248201527f5553444320646573697265642065786365656465642062616c000000000000006044820152606401610b71565b60ee546000906123b3906001600160a01b0316613497565b60ef549091506000906123ce906001600160a01b0316613497565b60d95460d5549192506123ee916001600160a01b03908116911688613846565b6124756123fc876002613bfc565b64e8d4a51000848860e580548060200260200160405190810160405280929190818152602001828054801561245a57602002820191906000526020600020905b81546001600160a01b0316815260019091019060200180831161243c575b505050505030611841610258426138f890919063ffffffff16565b6124fa612483876002613bfc565b64e8d4a51000838860e680548060200260200160405190810160405280929190818152602001828054801561245a576020028201919060005260206000209081546001600160a01b0316815260019091019060200180831161243c57505050505030611841610258426138f890919063ffffffff16565b60d1546040516370a0823160e01b81523060048201526000916001600160a01b0316906370a0823190602401602060405180830381865afa158015612543573d6000803e3d6000fd5b505050506040513d601f19601f820116820180604052508101906125679190614abc565b60d2546040516370a0823160e01b81523060048201529192506000916001600160a01b03909116906370a0823190602401602060405180830381865afa1580156125b5573d6000803e3d6000fd5b505050506040513d601f19601f820116820180604052508101906125d99190614abc565b60d95460d1549192506125f9916001600160a01b03908116911684613846565b60d95460d254612616916001600160a01b03918216911683613846565b61262282828933613c43565b60d0546040516370a0823160e01b81523360048201526001600160a01b03909116906370a0823190602401602060405180830381865afa15801561266a573d6000803e3d6000fd5b505050506040513d601f19601f8201168201806040525081019061268e9190614abc565b98975050505050505050565b600260655414156126bd5760405162461bcd60e51b8152600401610b7190614a31565b600260655560975460ff16156126e55760405162461bcd60e51b8152600401610b7190614a92565b60cb54600160a01b900460ff16156127215760cb546001600160a01b031633146127215760405162461bcd60e51b8152600401610b71906149c5565b61272b60006130a1565b5060d3546040516370a0823160e01b81523060048201526000916001600160a01b0316906370a0823190602401602060405180830381865afa158015612775573d6000803e3d6000fd5b505050506040513d601f19601f820116820180604052508101906127999190614abc565b60f0549091506000906127b4906001600160a01b0316613497565b60ee549091506000906127cf906001600160a01b0316613497565b60ef549091506000906127ea906001600160a01b0316613497565b60f254909150600090612805906001600160a01b0316613497565b60f154909150600090612820906001600160a01b0316613497565b604080516060810182528781526020810185905290810182905290915061284687613d00565b9650612853878983613d5f565b60d95460d354919850612873916001600160a01b03908116911689613846565b60d15460d3546001600160a01b0390811691161461290b5761290b612899886002613bfc565b87878b60e980548060200260200160405190810160405280929190818152602001828054801561245a576020028201919060005260206000209081546001600160a01b0316815260019091019060200180831161243c57505050505030611841610258426138f890919063ffffffff16565b60d25460d3546001600160a01b039081169116146129a3576129a3612931886002613bfc565b87868b60ea80548060200260200160405190810160405280929190818152602001828054801561245a576020028201919060005260206000209081546001600160a01b0316815260019091019060200180831161243c57505050505030611841610258426138f890919063ffffffff16565b60d1546040516370a0823160e01b81523060048201526000916001600160a01b0316906370a0823190602401602060405180830381865afa1580156129ec573d6000803e3d6000fd5b505050506040513d601f19601f82011682018060405250810190612a109190614abc565b60d2546040516370a0823160e01b81523060048201529192506000916001600160a01b03909116906370a0823190602401602060405180830381865afa158015612a5e573d6000803e3d6000fd5b505050506040513d601f19601f82011682018060405250810190612a829190614abc565b9050600082118015612a945750600081115b15612adf5760d95460d154612ab6916001600160a01b03918216911684613846565b60d95460d254612ad3916001600160a01b03918216911683613846565b612adf82828c30613c43565b4360e155612aeb61328b565b505060016065555050505050505050565b6033546001600160a01b03163314612b265760405162461bcd60e51b8152600401610b7190614990565b60d880546001600160a01b0319166001600160a01b0392909216919091179055565b6033546001600160a01b03163314612b725760405162461bcd60e51b8152600401610b7190614990565b6001600160a01b038116612bd75760405162461bcd60e51b815260206004820152602660248201527f4f776e61626c653a206e6577206f776e657220697320746865207a65726f206160448201526564647265737360d01b6064820152608401610b71565b612be081613aa4565b50565b60ec81815481106111e657600080fd5b6033546001600160a01b03163314612c1d5760405162461bcd60e51b8152600401610b7190614990565b60ff8316612c3157610c2a60e583836140d9565b8260ff1660011415612c4957610c2a60e683836140d9565b8260ff1660021415612c6157610c2a60e783836140d9565b8260ff1660031415612c7957610c2a60e883836140d9565b8260ff1660041415612c9157610c2a60e983836140d9565b8260ff1660051415612ca957610c2a60ea83836140d9565b8260ff1660061415612cc157610c2a60eb83836140d9565b8260ff1660071415612cd957610c2a60ec83836140d9565b8260ff166008141561205a57610c2a60ed83836140d9565b60d95460d354612d0e916001600160a01b03918216911685613846565b612d96612d1c846002613bfc565b826000015183602001518560eb80548060200260200160405190810160405280929190818152602001828054801561245a576020028201919060005260206000209081546001600160a01b0316815260019091019060200180831161243c57505050505030611841610258426138f890919063ffffffff16565b612e1e612da4846002613bfc565b826000015183604001518560ec80548060200260200160405190810160405280929190818152602001828054801561245a576020028201919060005260206000209081546001600160a01b0316815260019091019060200180831161243c57505050505030611841610258426138f890919063ffffffff16565b60ce546040516370a0823160e01b81523060048201526000916001600160a01b0316906370a0823190602401602060405180830381865afa158015612e67573d6000803e3d6000fd5b505050506040513d601f19601f82011682018060405250810190612e8b9190614abc565b60db546040516370a0823160e01b81523060048201529192506000916001600160a01b03909116906370a0823190602401602060405180830381865afa158015612ed9573d6000803e3d6000fd5b505050506040513d601f19601f82011682018060405250810190612efd9190614abc565b60d95460ce54919250612f1d916001600160a01b03908116911684613846565b60d95460db54612f3a916001600160a01b03918216911683613846565b60d95460ce5460db546001600160a01b039283169263e8e3370092811691168585612f6b6103e8611d14848d613bf0565b612f7b6103e8611d148a8e613bf0565b60d6546001600160a01b0316612f93426102586138f8565b6040518963ffffffff1660e01b8152600401612fb6989796959493929190614ad5565b6060604051808303816000875af1158015612fd5573d6000803e3d6000fd5b505050506040513d601f19601f82011682018060405250810190612ff99190614b1e565b5050505050505050565b60d95460d354613020916001600160a01b03918216911686613846565b610c2a84826000015164e8d4a510008560ed80548060200260200160405190810160405280929190818152602001828054801561308657602002820191906000526020600020905b81546001600160a01b03168152600190910190602001808311613068575b505050505088611841610258426138f890919063ffffffff16565b60d45460ca54604051630441a3e760e41b81526004810191909152602481018390526000916001600160a01b03169063441a3e7090604401600060405180830381600087803b1580156130f357600080fd5b505af1158015613107573d6000803e3d6000fd5b505060d0546040516370a0823160e01b8152306004820152859450600093506001600160a01b0390911691506370a0823190602401602060405180830381865afa158015613159573d6000803e3d6000fd5b505050506040513d601f19601f8201168201806040525081019061317d9190614abc565b90508082111561318b578091505b8260e254101561319b5760e25491505b60e2546131a89083613c37565b60e25550919050565b80516060908067ffffffffffffffff8111156131cf576131cf614141565b6040519080825280602002602001820160405280156131f8578160200160208202803683370190505b50915060005b818161ffff161015613284578361322e8261ffff1661322860018851613c3790919063ffffffff16565b90613c37565b8151811061323e5761323e614b4c565b6020026020010151838261ffff168151811061325c5761325c614b4c565b6001600160a01b039092166020928302919091019091015261327d81614b78565b90506131fe565b5050919050565b60d0546040516370a0823160e01b81523060048201526000916001600160a01b0316906370a0823190602401602060405180830381865afa1580156132d4573d6000803e3d6000fd5b505050506040513d601f19601f820116820180604052508101906132f89190614abc565b60e25490915061330890826138f8565b60e25560d45460d054613328916001600160a01b03918216911683613846565b60d45460ca54604051631c57762b60e31b81526001600160a01b039092169163e2bbb15891613364918590600401918252602082015260400190565b600060405180830381600087803b15801561337e57600080fd5b505af1158015613392573d6000803e3d6000fd5b5050505050565b60975460ff166133e25760405162461bcd60e51b815260206004820152601460248201527314185d5cd8589b194e881b9bdd081c185d5cd95960621b6044820152606401610b71565b6097805460ff191690557f5db9ee0a495bf2e6ff9c91a7834c1ba4fdd244a5e8aa4e537bd38aeae4b073aa335b6040516001600160a01b03909116815260200160405180910390a1565b6040516001600160a01b0380851660248301528316604482015260648101829052610c2a9085906323b872dd60e01b906084015b60408051601f198184030181529190526020810180516001600160e01b03166001600160e01b031990931692909217909152613e62565b600080826001600160a01b031663313ce5676040518163ffffffff1660e01b8152600401602060405180830381865afa1580156134d8573d6000803e3d6000fd5b505050506040513d601f19601f820116820180604052508101906134fc9190614b9a565b90506000836001600160a01b031663feaf968c6040518163ffffffff1660e01b815260040160a060405180830381865afa15801561353e573d6000803e3d6000fd5b505050506040513d601f19601f820116820180604052508101906135629190614bd1565b50505091505060008112156135b25760405162461bcd60e51b81526020600482015260166024820152751b9959c81c1c9a58d95cc81b9bdd08185b1b1bddd95960521b6044820152606401610b71565b6135cf6135c083600a614d05565b611d148364e8d4a51000613bf0565b949350505050565b60d15460d8546040516370a0823160e01b81526001600160a01b03918216600482015260009291909116906370a0823190602401602060405180830381865afa158015613628573d6000803e3d6000fd5b505050506040513d601f19601f8201168201806040525081019061364c9190614abc565b60d25460d8546040516370a0823160e01b81526001600160a01b0391821660048201529293506000929116906370a0823190602401602060405180830381865afa15801561369e573d6000803e3d6000fd5b505050506040513d601f19601f820116820180604052508101906136c29190614abc565b9050600060d860009054906101000a90046001600160a01b03166001600160a01b03166318160ddd6040518163ffffffff1660e01b8152600401602060405180830381865afa158015613719573d6000803e3d6000fd5b505050506040513d601f19601f8201168201806040525081019061373d9190614abc565b905060006137576103e8611d1488611d0e86838d8b613bf0565b905060006137716103e8611d1489611d0e87838e8b613bf0565b60d95460d15460d2549293506001600160a01b039182169263baa2abde9291821691168b86868c6137a4426102586138f8565b60405160e089901b6001600160e01b03191681526001600160a01b039788166004820152958716602487015260448601949094526064850192909252608484015290921660a482015260c481019190915260e40160408051808303816000875af1158015613816573d6000803e3d6000fd5b505050506040513d601f19601f8201168201806040525081019061383a9190614d14565b50505050505050505050565b604051636eb1769f60e11b81523060048201526001600160a01b038381166024830152600091839186169063dd62ed3e90604401602060405180830381865afa158015613897573d6000803e3d6000fd5b505050506040513d601f19601f820116820180604052508101906138bb9190614abc565b6138c59190614d38565b6040516001600160a01b038516602482015260448101829052909150610c2a90859063095ea7b360e01b90606401613460565b60006139048284614d38565b9392505050565b6000861580613918575085155b156139e35760405163d06ca61f60e01b81526000906001600160a01b038b169063d06ca61f9061394e908c908990600401614d50565b600060405180830381865afa15801561396b573d6000803e3d6000fd5b505050506040513d6000823e601f3d908101601f191682016040526139939190810190614d69565b90506139db6103e8611d1488846139b560018751613c3790919063ffffffff16565b815181106139c5576139c5614b4c565b6020026020010151613bf090919063ffffffff16565b915050613a03565b613a006139f2876103e8613bf0565b611d1487611d0e8c8c613bf0565b90505b604051635c11d79560e01b81526001600160a01b038a1690635c11d79590613a37908b908590899089908990600401614def565b600060405180830381600087803b158015613a5157600080fd5b505af1158015613a65573d6000803e3d6000fd5b50505050505050505050505050565b6040516001600160a01b038316602482015260448101829052610b4290849063a9059cbb60e01b90606401613460565b603380546001600160a01b038381166001600160a01b0319831681179093556040519116919082907f8be0079c531659141344cd1fd0a4f28419497f9722a3daafe3b4186f6b6457e090600090a35050565b60975460ff1615613b195760405162461bcd60e51b8152600401610b7190614a92565b6097805460ff191660011790557f62e78cea01bee320cd4e420270b5ea74000d11b0c9f74754ebdbfc544b05a25861340f3390565b60d95460d354613b6b916001600160a01b03918216911685613846565b610b4283826000015183602001518560eb805480602002602001604051908101604052809291908181526020018280548015613bd057602002820191906000526020600020905b81546001600160a01b03168152600190910190602001808311613bb2575b505060cf546001600160a01b0316925061184191504290506102586138f8565b60006139048284614e2b565b60006139048284614e4a565b600054610100900460ff16613c2f5760405162461bcd60e51b8152600401610b7190614e6c565b61113c613f34565b60006139048284614eb7565b60d95460d15460d2546001600160a01b039283169263e8e3370092811691168787613c746103e8611d14848b613bf0565b613c846103e8611d148c8c613bf0565b88613c91426102586138f8565b6040518963ffffffff1660e01b8152600401613cb4989796959493929190614ad5565b6060604051808303816000875af1158015613cd3573d6000803e3d6000fd5b505050506040513d601f19601f82011682018060405250810190613cf79190614b1e565b50505050505050565b60008115613d5b5760dc5415613d5b576000613d2d612710611d1460dc5486613bf090919063ffffffff16565b60d75460d354919250613d4d916001600160a01b03908116911683613a74565b613d578382613c37565b9250505b5090565b60dd54600090819015613d8a57613d87612710611d1460dd5488613bf090919063ffffffff16565b90505b600060c95460ff1615613db257613da2828686612cf1565b613dad818686613b4e565b613e4a565b613dd2613dbf83836138f8565b60cc546001600160a01b03168787613003565b60cd5460ca5460405163464e3c8b60e01b815260048101919091526024810184905260448101839052606481018790526001600160a01b039091169063464e3c8b90608401600060405180830381600087803b158015613e3157600080fd5b505af1158015613e45573d6000803e3d6000fd5b505050505b613e58816132288885613c37565b9695505050505050565b6000613eb7826040518060400160405280602081526020017f5361666545524332303a206c6f772d6c6576656c2063616c6c206661696c6564815250856001600160a01b0316613f649092919063ffffffff16565b805190915015610b425780806020019051810190613ed59190614ece565b610b425760405162461bcd60e51b815260206004820152602a60248201527f5361666545524332303a204552433230206f7065726174696f6e20646964206e6044820152691bdd081cdd58d8d9595960b21b6064820152608401610b71565b600054610100900460ff16613f5b5760405162461bcd60e51b8152600401610b7190614e6c565b61113c33613aa4565b60606135cf8484600085856001600160a01b0385163b613fc65760405162461bcd60e51b815260206004820152601d60248201527f416464726573733a2063616c6c20746f206e6f6e2d636f6e74726163740000006044820152606401610b71565b600080866001600160a01b03168587604051613fe29190614f17565b60006040518083038185875af1925050503d806000811461401f576040519150601f19603f3d011682016040523d82523d6000602084013e614024565b606091505b509150915061403482828661403f565b979650505050505050565b6060831561404e575081613904565b82511561405e5782518084602001fd5b8160405162461bcd60e51b8152600401610b719190614f33565b8280548282559060005260206000209081019282156140cd579160200282015b828111156140cd57825182546001600160a01b0319166001600160a01b03909116178255602090920191600190910190614098565b50613d5b92915061412c565b8280548282559060005260206000209081019282156140cd579160200282015b828111156140cd5781546001600160a01b0319166001600160a01b038435161782556020909201916001909101906140f9565b5b80821115613d5b576000815560010161412d565b634e487b7160e01b600052604160045260246000fd5b6040516101e0810167ffffffffffffffff8111828210171561417b5761417b614141565b60405290565b60405160a0810167ffffffffffffffff8111828210171561417b5761417b614141565b604051610180810167ffffffffffffffff8111828210171561417b5761417b614141565b604051601f8201601f1916810167ffffffffffffffff811182821017156141f1576141f1614141565b604052919050565b60006060828403121561420b57600080fd5b6040516060810181811067ffffffffffffffff8211171561422e5761422e614141565b80604052508091508235815260208301356020820152604083013560408201525092915050565b600080600060a0848603121561426a57600080fd5b833592506020840135915061428285604086016141f9565b90509250925092565b80356001600160a01b03811681146142a257600080fd5b919050565b6000602082840312156142b957600080fd5b6139048261428b565b8015158114612be057600080fd5b80356142a2816142c2565b6000602082840312156142ed57600080fd5b8135613904816142c2565b60008060008060c0858703121561430e57600080fd5b8435935061431e6020860161428b565b92506040850135915061433486606087016141f9565b905092959194509250565b60006020828403121561435157600080fd5b5035919050565b60006101e0828403121561436b57600080fd5b614373614157565b905061437e8261428b565b815261438c6020830161428b565b602082015261439d6040830161428b565b60408201526143ae6060830161428b565b60608201526143bf6080830161428b565b60808201526143d060a0830161428b565b60a08201526143e160c0830161428b565b60c08201526143f260e0830161428b565b60e082015261010061440581840161428b565b9082015261012061441783820161428b565b9082015261014061442983820161428b565b9082015261016061443b83820161428b565b9082015261018061444d83820161428b565b908201526101a061445f83820161428b565b908201526101c061447183820161428b565b9082015292915050565b600067ffffffffffffffff82111561449557614495614141565b5060051b60200190565b600082601f8301126144b057600080fd5b813560206144c56144c08361447b565b6141c8565b82815260059290921b840181019181810190868411156144e457600080fd5b8286015b84811015614506576144f98161428b565b83529183019183016144e8565b509695505050505050565b600060a0828403121561452357600080fd5b61452b614181565b9050813581526020820135602082015260408201356040820152606082013560608201526080820135608082015292915050565b600060a0828403121561457157600080fd5b614579614181565b90506145848261428b565b81526145926020830161428b565b60208201526145a36040830161428b565b60408201526145b46060830161428b565b60608201526145c56080830161428b565b608082015292915050565b600080604083850312156145e357600080fd5b6145ec8361428b565b9150602083013567ffffffffffffffff8082111561460957600080fd5b90840190610440828703121561461e57600080fd5b6146266141a4565b82358152614636602084016142d0565b60208201526146488760408501614358565b60408201526102208301358281111561466057600080fd5b61466c8882860161449f565b6060830152506102408301358281111561468557600080fd5b6146918882860161449f565b608083015250610260830135828111156146aa57600080fd5b6146b68882860161449f565b60a083015250610280830135828111156146cf57600080fd5b6146db8882860161449f565b60c0830152506102a0830135828111156146f457600080fd5b6147008882860161449f565b60e0830152506102c08301358281111561471957600080fd5b6147258882860161449f565b610100830152506102e08301358281111561473f57600080fd5b61474b8882860161449f565b61012083015250614760876103008501614511565b610140820152614774876103a0850161455f565b6101608201528093505050509250929050565b6000806000806080858703121561479d57600080fd5b5050823594602084013594506040840135936060013592509050565b600080604083850312156147cc57600080fd5b50508035926020909101359150565b6000806000606084860312156147f057600080fd5b6147f98461428b565b9250602084013591506142826040850161428b565b60006020828403121561482057600080fd5b813567ffffffffffffffff81111561483757600080fd5b6135cf8482850161449f565b600081518084526020808501945080840160005b8381101561487c5781516001600160a01b031687529582019590820190600101614857565b509495945050505050565b6020815260006139046020830184614843565b600080604083850312156148ad57600080fd5b6148b68361428b565b946020939093013593505050565b60ff81168114612be057600080fd5b600080604083850312156148e657600080fd5b82356148f1816148c4565b91506148ff6020840161428b565b90509250929050565b60008060006040848603121561491d57600080fd5b8335614928816148c4565b9250602084013567ffffffffffffffff8082111561494557600080fd5b818601915086601f83011261495957600080fd5b81358181111561496857600080fd5b8760208260051b850101111561497d57600080fd5b6020830194508093505050509250925092565b6020808252818101527f4f776e61626c653a2063616c6c6572206973206e6f7420746865206f776e6572604082015260600190565b60208082526004908201526310b3b7bb60e11b604082015260600190565b6020808252602e908201527f496e697469616c697a61626c653a20636f6e747261637420697320616c72656160408201526d191e481a5b9a5d1a585b1a5e995960921b606082015260800190565b6020808252601f908201527f5265656e7472616e637947756172643a207265656e7472616e742063616c6c00604082015260600190565b60208082526010908201526f10bd37b93937a1b7b73a3937b63632b960811b604082015260600190565b60208082526010908201526f14185d5cd8589b194e881c185d5cd95960821b604082015260600190565b600060208284031215614ace57600080fd5b5051919050565b6001600160a01b039889168152968816602088015260408701959095526060860193909352608085019190915260a084015290921660c082015260e08101919091526101000190565b600080600060608486031215614b3357600080fd5b8351925060208401519150604084015190509250925092565b634e487b7160e01b600052603260045260246000fd5b634e487b7160e01b600052601160045260246000fd5b600061ffff80831681811415614b9057614b90614b62565b6001019392505050565b600060208284031215614bac57600080fd5b8151613904816148c4565b805169ffffffffffffffffffff811681146142a257600080fd5b600080600080600060a08688031215614be957600080fd5b614bf286614bb7565b9450602086015193506040860151925060608601519150614c1560808701614bb7565b90509295509295909350565b600181815b80851115614c5c578160001904821115614c4257614c42614b62565b80851615614c4f57918102915b93841c9390800290614c26565b509250929050565b600082614c7357506001611947565b81614c8057506000611947565b8160018114614c965760028114614ca057614cbc565b6001915050611947565b60ff841115614cb157614cb1614b62565b50506001821b611947565b5060208310610133831016604e8410600b8410161715614cdf575081810a611947565b614ce98383614c21565b8060001904821115614cfd57614cfd614b62565b029392505050565b600061390460ff841683614c64565b60008060408385031215614d2757600080fd5b505080516020909101519092909150565b60008219821115614d4b57614d4b614b62565b500190565b8281526040602082015260006135cf6040830184614843565b60006020808385031215614d7c57600080fd5b825167ffffffffffffffff811115614d9357600080fd5b8301601f81018513614da457600080fd5b8051614db26144c08261447b565b81815260059190911b82018301908381019087831115614dd157600080fd5b928401925b8284101561403457835182529284019290840190614dd6565b85815284602082015260a060408201526000614e0e60a0830186614843565b6001600160a01b0394909416606083015250608001529392505050565b6000816000190483118215151615614e4557614e45614b62565b500290565b600082614e6757634e487b7160e01b600052601260045260246000fd5b500490565b6020808252602b908201527f496e697469616c697a61626c653a20636f6e7472616374206973206e6f74206960408201526a6e697469616c697a696e6760a81b606082015260800190565b600082821015614ec957614ec9614b62565b500390565b600060208284031215614ee057600080fd5b8151613904816142c2565b60005b83811015614f06578181015183820152602001614eee565b83811115610c2a5750506000910152565b60008251614f29818460208701614eeb565b9190910192915050565b6020815260008251806020840152614f52816040850160208701614eeb565b601f01601f1916919091016040019291505056fea2646970667358221220444574194d684b514b00b44bc2a96311dacce8aa1dbe45ad99fc86e454b0746d64736f6c634300080a0033",
  "immutableReferences": {},
  "source": "// SPDX-License-Identifier: MIT\n\npragma solidity ^0.8.0;\n\nimport \"../VaultStandardAMM.sol\";\n\nimport \"@openzeppelin/contracts-upgradeable/token/ERC20/ERC20Upgradeable.sol\";\n\nimport \"../../tokens/mocks/MockToken.sol\";\n\ncontract MockVaultFactoryStandardAMM is VaultFactoryStandardAMM {}\n\ncontract MockVaultStandardAMM is VaultStandardAMM {\n    function reversePath(address[] memory _path)\n        public\n        pure\n        returns (address[] memory)\n    {\n        return _reversePath(_path);\n    }\n\n    function unfarm(uint256 _wantAmt) public {\n        _unfarm(_wantAmt);\n    }\n\n    function swapEarnedToUSDC(\n        uint256 _earnedAmount,\n        address _destination,\n        uint256 _maxMarketMovementAllowed,\n        ExchangeRates memory _rates\n    ) public {\n        _swapEarnedToUSDC(_earnedAmount, _destination, _maxMarketMovementAllowed, _rates);\n    }\n\n    function revShareOnChain(\n        uint256 _amount,\n        uint256 _maxMarketMovementAllowed,\n        ExchangeRates memory _rates\n    ) public {\n        _revShareOnChain(_amount, _maxMarketMovementAllowed, _rates);\n    }\n\n    function buybackOnChain(\n        uint256 _amount,\n        uint256 _maxMarketMovementAllowed,\n        ExchangeRates memory _rates\n    ) public {\n        _buybackOnChain(_amount, _maxMarketMovementAllowed, _rates);\n    }\n}\n\ncontract MockAMMFarm is IAMMFarm, MockERC20Upgradeable {\n    using SafeERC20Upgradeable for IERC20Upgradeable;\n\n    address public burnAddress;\n    address public wantToken;\n\n    function setWantAddress(address _wantToken) public {\n        wantToken = _wantToken;\n    }\n\n    function setBurnAddress(address _burnAddress) public {\n        burnAddress = _burnAddress;\n    }\n\n    function poolLength() external view returns (uint256) {}\n\n    function userInfo() external view returns (uint256) {}\n\n    // Return reward multiplier over the given _from to _to block.\n    function getMultiplier(uint256 _from, uint256 _to)\n        external\n        view\n        returns (uint256)\n    {}\n\n    // View function to see pending CAKEs on frontend.\n    function pendingCake(uint256 _pid, address _user)\n        external\n        view\n        returns (uint256)\n    {}\n\n    event Deposited(uint256 indexed _pid, uint256 indexed _amount);\n\n    // Deposit LP tokens to MasterChef for CAKE allocation.\n    function deposit(uint256 _pid, uint256 _amount) external {\n        IERC20Upgradeable(wantToken).safeTransferFrom(msg.sender, burnAddress, _amount);\n        emit Deposited(_pid, _amount);\n    }\n\n    event Withdrew(uint256 indexed _pid, uint256 indexed _amount);\n\n    // Withdraw LP tokens from MasterChef.\n    function withdraw(uint256 _pid, uint256 _amount) external {\n        IMockERC20Upgradeable(wantToken).mint(msg.sender, _amount);\n        emit Withdrew(_pid, _amount);\n    }\n\n    // Stake CAKE tokens to MasterChef\n    function enterStaking(uint256 _amount) external {}\n\n    // Withdraw CAKE tokens from STAKING.\n    function leaveStaking(uint256 _amount) external {}\n\n    // Withdraw without caring about rewards. EMERGENCY ONLY.\n    function emergencyWithdraw(uint256 _pid) external {}\n}\n\ncontract MockAMMToken0 is MockERC20Upgradeable {}\ncontract MockAMMToken1 is MockERC20Upgradeable {}\ncontract MockAMMOtherLPToken is MockERC20Upgradeable {}\n",
  "sourcePath": "/Users/kristophm/Documents/workspace/zorro-protocol/contracts/vaults/mocks/MockVaultStandardAMM.sol",
  "compiler": {
    "name": "solc",
    "version": "0.8.10+commit.fc410830.Emscripten.clang"
  },
  "schemaVersion": "3.4.4",
  "updatedAt": "2022-05-01T20:27:03.304Z",
  "networkType": "ethereum",
  "devdoc": {
    "kind": "dev",
    "methods": {
      "depositWantToken(address,uint256)": {
        "params": {
          "_account": "The address of the end user account making the deposit",
          "_wantAmt": "The amount of Want token to deposit (must already be transferred)"
        },
        "returns": {
          "sharesAdded": "Number of shares added"
        }
      },
      "earn(uint256)": {
        "params": {
          "_maxMarketMovementAllowed": "The max slippage allowed. 1000 = 0 %, 995 = 0.5%, etc."
        }
      },
      "exchangeUSDForWantToken(uint256,uint256)": {
        "params": {
          "_amountUSDC": "The amount of USDC to exchange for Want token (must already be deposited on this contract)",
          "_maxMarketMovementAllowed": "The max slippage allowed. 1000 = 0 %, 995 = 0.5%, etc."
        },
        "returns": {
          "_0": "uint256 Amount of Want token obtained"
        }
      },
      "exchangeWantTokenForUSD(uint256,uint256)": {
        "params": {
          "_amount": "The Want token quantity to exchange",
          "_maxMarketMovementAllowed": "The max slippage allowed for swaps. 1000 = 0 %, 995 = 0.5%, etc."
        },
        "returns": {
          "_0": "uint256 Amount of USDC token obtained"
        }
      },
      "inCaseTokensGetStuck(address,uint256,address)": {
        "params": {
          "_amount": "The amount of the tokens to transfer",
          "_to": "The address to transfer tokens to",
          "_token": "Address of the ERC20 token to transfer"
        }
      },
      "initialize(address,(uint256,bool,(address,address,address,address,address,address,address,address,address,address,address,address,address,address,address),address[],address[],address[],address[],address[],address[],address[],(uint256,uint256,uint256,uint256,uint256),(address,address,address,address,address)))": {
        "params": {
          "_initValue": "A VaultStandardAMMInit struct with all constructor params",
          "_timelockOwner": "The designated timelock controller address to act as owner"
        }
      },
      "owner()": {
        "details": "Returns the address of the current owner."
      },
      "paused()": {
        "details": "Returns true if the contract is paused, and false otherwise."
      },
      "renounceOwnership()": {
        "details": "Leaves the contract without owner. It will not be possible to call `onlyOwner` functions anymore. Can only be called by the current owner. NOTE: Renouncing ownership will leave the contract without an owner, thereby removing any functionality that is only available to the owner."
      },
      "setFeeSettings(uint256,uint256,uint256,uint256)": {
        "params": {
          "_buyBackRate": "Buy back rate fee numerator",
          "_controllerFee": "Controller fee numerator",
          "_entranceFeeFactor": "Entrance fee numerator (higher means smaller percentage)",
          "_withdrawFeeFactor": "Withdrawal fee numerator (higher means smaller percentage)"
        }
      },
      "setGov(address)": {
        "params": {
          "_govAddress": "The new gov address"
        }
      },
      "setOnlyGov(bool)": {
        "params": {
          "_onlyGov": "whether onlyGov should be enforced"
        }
      },
      "transferOwnership(address)": {
        "details": "Transfers ownership of the contract to a new account (`newOwner`). Can only be called by the current owner."
      },
      "withdrawWantToken(address,uint256)": {
        "params": {
          "_account": "Address of user",
          "_wantAmt": "The amount of Want token to withdraw"
        },
        "returns": {
          "sharesRemoved": "uint256 The number of shares removed"
        }
      }
    },
    "version": 1
  },
  "userdoc": {
    "kind": "user",
    "methods": {
      "depositWantToken(address,uint256)": {
        "notice": "Receives new deposits from user"
      },
      "earn(uint256)": {
        "notice": "The main compounding (earn) function. Reinvests profits since the last earn event."
      },
      "exchangeUSDForWantToken(uint256,uint256)": {
        "notice": "Performs necessary operations to convert USDC into Want token and transfer back to sender"
      },
      "exchangeWantTokenForUSD(uint256,uint256)": {
        "notice": "Converts Want token back into USD to be ready for withdrawal, transfers back to sender"
      },
      "farm()": {
        "notice": "Public function for farming Want token."
      },
      "inCaseTokensGetStuck(address,uint256,address)": {
        "notice": "Safely transfer ERC20 tokens stuck in this contract to a specified address"
      },
      "initialize(address,(uint256,bool,(address,address,address,address,address,address,address,address,address,address,address,address,address,address,address),address[],address[],address[],address[],address[],address[],address[],(uint256,uint256,uint256,uint256,uint256),(address,address,address,address,address)))": {
        "notice": "Upgradeable constructor"
      },
      "pause()": {
        "notice": "Pause contract"
      },
      "setFeeSettings(uint256,uint256,uint256,uint256)": {
        "notice": "Configure key fee parameters"
      },
      "setGov(address)": {
        "notice": "Set governor address"
      },
      "setOnlyGov(bool)": {
        "notice": "Set onlyGov property"
      },
      "unpause()": {
        "notice": "Unpause contract"
      },
      "withdrawWantToken(address,uint256)": {
        "notice": "Fully withdraw Want tokens from the Farm contract (100% withdrawals only)"
      }
    },
    "version": 1
  }
}