{
  "contractName": "MockZorroController",
  "abi": [
    {
      "anonymous": false,
      "inputs": [
        {
          "indexed": true,
          "internalType": "address",
          "name": "account",
          "type": "address"
        },
        {
          "indexed": true,
          "internalType": "bytes",
          "name": "foreignAccount",
          "type": "bytes"
        },
        {
          "indexed": true,
          "internalType": "uint256",
          "name": "pid",
          "type": "uint256"
        },
        {
          "indexed": false,
          "internalType": "uint256",
          "name": "wantAmount",
          "type": "uint256"
        }
      ],
      "name": "Deposit",
      "type": "event"
    },
    {
      "anonymous": false,
      "inputs": [
        {
          "indexed": true,
          "internalType": "uint256",
          "name": "_rewardsDue",
          "type": "uint256"
        }
      ],
      "name": "HandledRewards",
      "type": "event"
    },
    {
      "anonymous": false,
      "inputs": [
        {
          "indexed": true,
          "internalType": "address",
          "name": "previousOwner",
          "type": "address"
        },
        {
          "indexed": true,
          "internalType": "address",
          "name": "newOwner",
          "type": "address"
        }
      ],
      "name": "OwnershipTransferred",
      "type": "event"
    },
    {
      "anonymous": false,
      "inputs": [
        {
          "indexed": false,
          "internalType": "address",
          "name": "account",
          "type": "address"
        },
        {
          "indexed": true,
          "internalType": "uint256",
          "name": "fromPid",
          "type": "uint256"
        },
        {
          "indexed": true,
          "internalType": "uint256",
          "name": "fromTrancheId",
          "type": "uint256"
        },
        {
          "indexed": true,
          "internalType": "uint256",
          "name": "toPid",
          "type": "uint256"
        }
      ],
      "name": "TransferInvestment",
      "type": "event"
    },
    {
      "anonymous": false,
      "inputs": [
        {
          "indexed": true,
          "internalType": "uint256",
          "name": "_amount",
          "type": "uint256"
        }
      ],
      "name": "UpdatedPool",
      "type": "event"
    },
    {
      "anonymous": false,
      "inputs": [
        {
          "indexed": true,
          "internalType": "address",
          "name": "account",
          "type": "address"
        },
        {
          "indexed": true,
          "internalType": "bytes",
          "name": "foreignAccount",
          "type": "bytes"
        },
        {
          "indexed": true,
          "internalType": "uint256",
          "name": "pid",
          "type": "uint256"
        },
        {
          "indexed": false,
          "internalType": "uint256",
          "name": "trancheId",
          "type": "uint256"
        },
        {
          "indexed": false,
          "internalType": "uint256",
          "name": "wantAmount",
          "type": "uint256"
        }
      ],
      "name": "Withdraw",
      "type": "event"
    },
    {
      "inputs": [],
      "name": "ZORRO",
      "outputs": [
        {
          "internalType": "address",
          "name": "",
          "type": "address"
        }
      ],
      "stateMutability": "view",
      "type": "function"
    },
    {
      "inputs": [],
      "name": "ZORRODailyDistributionFactorBasisPointsMax",
      "outputs": [
        {
          "internalType": "uint256",
          "name": "",
          "type": "uint256"
        }
      ],
      "stateMutability": "view",
      "type": "function"
    },
    {
      "inputs": [],
      "name": "ZORRODailyDistributionFactorBasisPointsMin",
      "outputs": [
        {
          "internalType": "uint256",
          "name": "",
          "type": "uint256"
        }
      ],
      "stateMutability": "view",
      "type": "function"
    },
    {
      "inputs": [],
      "name": "ZORROPerBlock",
      "outputs": [
        {
          "internalType": "uint256",
          "name": "",
          "type": "uint256"
        }
      ],
      "stateMutability": "view",
      "type": "function"
    },
    {
      "inputs": [],
      "name": "accSynthRewardsMinted",
      "outputs": [
        {
          "internalType": "uint256",
          "name": "",
          "type": "uint256"
        }
      ],
      "stateMutability": "view",
      "type": "function"
    },
    {
      "inputs": [],
      "name": "accSynthRewardsSlashed",
      "outputs": [
        {
          "internalType": "uint256",
          "name": "",
          "type": "uint256"
        }
      ],
      "stateMutability": "view",
      "type": "function"
    },
    {
      "inputs": [
        {
          "internalType": "uint256",
          "name": "_allocPoint",
          "type": "uint256"
        },
        {
          "internalType": "contract IERC20Upgradeable",
          "name": "_want",
          "type": "address"
        },
        {
          "internalType": "bool",
          "name": "_withUpdate",
          "type": "bool"
        },
        {
          "internalType": "address",
          "name": "_vault",
          "type": "address"
        }
      ],
      "name": "add",
      "outputs": [],
      "stateMutability": "nonpayable",
      "type": "function"
    },
    {
      "inputs": [],
      "name": "baseRewardRateBasisPoints",
      "outputs": [
        {
          "internalType": "uint256",
          "name": "",
          "type": "uint256"
        }
      ],
      "stateMutability": "view",
      "type": "function"
    },
    {
      "inputs": [],
      "name": "blocksPerDay",
      "outputs": [
        {
          "internalType": "uint256",
          "name": "",
          "type": "uint256"
        }
      ],
      "stateMutability": "view",
      "type": "function"
    },
    {
      "inputs": [],
      "name": "burnAddress",
      "outputs": [
        {
          "internalType": "address",
          "name": "",
          "type": "address"
        }
      ],
      "stateMutability": "view",
      "type": "function"
    },
    {
      "inputs": [],
      "name": "chainId",
      "outputs": [
        {
          "internalType": "uint256",
          "name": "",
          "type": "uint256"
        }
      ],
      "stateMutability": "view",
      "type": "function"
    },
    {
      "inputs": [],
      "name": "chainMultiplier",
      "outputs": [
        {
          "internalType": "uint256",
          "name": "",
          "type": "uint256"
        }
      ],
      "stateMutability": "view",
      "type": "function"
    },
    {
      "inputs": [],
      "name": "controllerActions",
      "outputs": [
        {
          "internalType": "address",
          "name": "",
          "type": "address"
        }
      ],
      "stateMutability": "view",
      "type": "function"
    },
    {
      "inputs": [],
      "name": "defaultStablecoin",
      "outputs": [
        {
          "internalType": "address",
          "name": "",
          "type": "address"
        }
      ],
      "stateMutability": "view",
      "type": "function"
    },
    {
      "inputs": [
        {
          "internalType": "uint256",
          "name": "_pid",
          "type": "uint256"
        },
        {
          "internalType": "uint256",
          "name": "_wantAmt",
          "type": "uint256"
        },
        {
          "internalType": "uint256",
          "name": "_weeksCommitted",
          "type": "uint256"
        }
      ],
      "name": "deposit",
      "outputs": [],
      "stateMutability": "nonpayable",
      "type": "function"
    },
    {
      "inputs": [
        {
          "internalType": "uint256",
          "name": "_pid",
          "type": "uint256"
        },
        {
          "internalType": "uint256",
          "name": "_valueUSD",
          "type": "uint256"
        },
        {
          "internalType": "uint256",
          "name": "_weeksCommitted",
          "type": "uint256"
        },
        {
          "internalType": "uint256",
          "name": "_maxMarketMovement",
          "type": "uint256"
        }
      ],
      "name": "depositFullService",
      "outputs": [],
      "stateMutability": "nonpayable",
      "type": "function"
    },
    {
      "inputs": [
        {
          "internalType": "uint256",
          "name": "_pid",
          "type": "uint256"
        },
        {
          "internalType": "address",
          "name": "_account",
          "type": "address"
        },
        {
          "internalType": "bytes",
          "name": "_foreignAccount",
          "type": "bytes"
        },
        {
          "internalType": "uint256",
          "name": "_valueUSD",
          "type": "uint256"
        },
        {
          "internalType": "uint256",
          "name": "_weeksCommitted",
          "type": "uint256"
        },
        {
          "internalType": "uint256",
          "name": "_vaultEnteredAt",
          "type": "uint256"
        },
        {
          "internalType": "uint256",
          "name": "_maxMarketMovement",
          "type": "uint256"
        }
      ],
      "name": "depositFullServiceFromXChain",
      "outputs": [],
      "stateMutability": "nonpayable",
      "type": "function"
    },
    {
      "inputs": [
        {
          "internalType": "uint256",
          "name": "",
          "type": "uint256"
        },
        {
          "internalType": "bytes",
          "name": "",
          "type": "bytes"
        },
        {
          "internalType": "uint256",
          "name": "",
          "type": "uint256"
        }
      ],
      "name": "foreignTrancheInfo",
      "outputs": [
        {
          "internalType": "address",
          "name": "",
          "type": "address"
        }
      ],
      "stateMutability": "view",
      "type": "function"
    },
    {
      "inputs": [
        {
          "internalType": "uint256",
          "name": "_totalMinted",
          "type": "uint256"
        },
        {
          "internalType": "uint256",
          "name": "_totalSlashed",
          "type": "uint256"
        }
      ],
      "name": "handleAccXChainRewards",
      "outputs": [],
      "stateMutability": "nonpayable",
      "type": "function"
    },
    {
      "inputs": [],
      "name": "homeChainId",
      "outputs": [
        {
          "internalType": "uint256",
          "name": "",
          "type": "uint256"
        }
      ],
      "stateMutability": "view",
      "type": "function"
    },
    {
      "inputs": [],
      "name": "homeChainZorroController",
      "outputs": [
        {
          "internalType": "address",
          "name": "",
          "type": "address"
        }
      ],
      "stateMutability": "view",
      "type": "function"
    },
    {
      "inputs": [
        {
          "internalType": "address",
          "name": "_token",
          "type": "address"
        },
        {
          "internalType": "uint256",
          "name": "_amount",
          "type": "uint256"
        }
      ],
      "name": "inCaseTokensGetStuck",
      "outputs": [],
      "stateMutability": "nonpayable",
      "type": "function"
    },
    {
      "inputs": [
        {
          "components": [
            {
              "internalType": "address",
              "name": "ZORRO",
              "type": "address"
            },
            {
              "internalType": "address",
              "name": "defaultStablecoin",
              "type": "address"
            },
            {
              "internalType": "address",
              "name": "publicPool",
              "type": "address"
            },
            {
              "internalType": "address",
              "name": "zorroStakingVault",
              "type": "address"
            },
            {
              "internalType": "address",
              "name": "controllerActions",
              "type": "address"
            },
            {
              "components": [
                {
                  "internalType": "uint256",
                  "name": "blocksPerDay",
                  "type": "uint256"
                },
                {
                  "internalType": "uint256",
                  "name": "startBlock",
                  "type": "uint256"
                },
                {
                  "internalType": "uint256",
                  "name": "ZORROPerBlock",
                  "type": "uint256"
                },
                {
                  "internalType": "uint256",
                  "name": "targetTVLCaptureBasisPoints",
                  "type": "uint256"
                },
                {
                  "internalType": "uint256",
                  "name": "chainMultiplier",
                  "type": "uint256"
                },
                {
                  "internalType": "uint256",
                  "name": "baseRewardRateBasisPoints",
                  "type": "uint256"
                }
              ],
              "internalType": "struct ZorroController.ZorroControllerRewards",
              "name": "rewards",
              "type": "tuple"
            },
            {
              "components": [
                {
                  "internalType": "uint256",
                  "name": "chainId",
                  "type": "uint256"
                },
                {
                  "internalType": "uint256",
                  "name": "homeChainId",
                  "type": "uint256"
                },
                {
                  "internalType": "address",
                  "name": "homeChainZorroController",
                  "type": "address"
                },
                {
                  "internalType": "address",
                  "name": "zorroControllerOracle",
                  "type": "address"
                },
                {
                  "internalType": "address",
                  "name": "zorroXChainEndpoint",
                  "type": "address"
                }
              ],
              "internalType": "struct ZorroController.ZorroControllerXChainParams",
              "name": "xChain",
              "type": "tuple"
            }
          ],
          "internalType": "struct ZorroController.ZorroControllerInit",
          "name": "_initValue",
          "type": "tuple"
        }
      ],
      "name": "initialize",
      "outputs": [],
      "stateMutability": "nonpayable",
      "type": "function"
    },
    {
      "inputs": [],
      "name": "isTimeMultiplierActive",
      "outputs": [
        {
          "internalType": "bool",
          "name": "",
          "type": "bool"
        }
      ],
      "stateMutability": "view",
      "type": "function"
    },
    {
      "inputs": [],
      "name": "massUpdatePools",
      "outputs": [
        {
          "internalType": "uint256",
          "name": "_mintedZOR",
          "type": "uint256"
        }
      ],
      "stateMutability": "nonpayable",
      "type": "function"
    },
    {
      "inputs": [],
      "name": "owner",
      "outputs": [
        {
          "internalType": "address",
          "name": "",
          "type": "address"
        }
      ],
      "stateMutability": "view",
      "type": "function"
    },
    {
      "inputs": [
        {
          "internalType": "uint256",
          "name": "_pid",
          "type": "uint256"
        },
        {
          "internalType": "address",
          "name": "_account",
          "type": "address"
        },
        {
          "internalType": "int256",
          "name": "_trancheId",
          "type": "int256"
        }
      ],
      "name": "pendingZORRORewards",
      "outputs": [
        {
          "internalType": "uint256",
          "name": "pendingRewards",
          "type": "uint256"
        }
      ],
      "stateMutability": "view",
      "type": "function"
    },
    {
      "inputs": [
        {
          "internalType": "uint256",
          "name": "",
          "type": "uint256"
        }
      ],
      "name": "poolInfo",
      "outputs": [
        {
          "internalType": "contract IERC20Upgradeable",
          "name": "want",
          "type": "address"
        },
        {
          "internalType": "uint256",
          "name": "allocPoint",
          "type": "uint256"
        },
        {
          "internalType": "uint256",
          "name": "lastRewardBlock",
          "type": "uint256"
        },
        {
          "internalType": "uint256",
          "name": "accZORRORewards",
          "type": "uint256"
        },
        {
          "internalType": "uint256",
          "name": "totalTrancheContributions",
          "type": "uint256"
        },
        {
          "internalType": "address",
          "name": "vault",
          "type": "address"
        }
      ],
      "stateMutability": "view",
      "type": "function"
    },
    {
      "inputs": [],
      "name": "poolLength",
      "outputs": [
        {
          "internalType": "uint256",
          "name": "",
          "type": "uint256"
        }
      ],
      "stateMutability": "view",
      "type": "function"
    },
    {
      "inputs": [],
      "name": "publicPool",
      "outputs": [
        {
          "internalType": "address",
          "name": "",
          "type": "address"
        }
      ],
      "stateMutability": "view",
      "type": "function"
    },
    {
      "inputs": [],
      "name": "renounceOwnership",
      "outputs": [],
      "stateMutability": "nonpayable",
      "type": "function"
    },
    {
      "inputs": [
        {
          "internalType": "uint256",
          "name": "_rewardsDue",
          "type": "uint256"
        },
        {
          "internalType": "address",
          "name": "_destination",
          "type": "address"
        }
      ],
      "name": "repatriateRewards",
      "outputs": [],
      "stateMutability": "nonpayable",
      "type": "function"
    },
    {
      "inputs": [],
      "name": "resetSyntheticRewardsMinted",
      "outputs": [],
      "stateMutability": "nonpayable",
      "type": "function"
    },
    {
      "inputs": [],
      "name": "resetSyntheticRewardsSlashed",
      "outputs": [],
      "stateMutability": "nonpayable",
      "type": "function"
    },
    {
      "inputs": [
        {
          "internalType": "uint256",
          "name": "_pid",
          "type": "uint256"
        },
        {
          "internalType": "uint256",
          "name": "_allocPoint",
          "type": "uint256"
        },
        {
          "internalType": "bool",
          "name": "_withUpdate",
          "type": "bool"
        }
      ],
      "name": "set",
      "outputs": [],
      "stateMutability": "nonpayable",
      "type": "function"
    },
    {
      "inputs": [
        {
          "internalType": "address",
          "name": "_burnAddress",
          "type": "address"
        }
      ],
      "name": "setBurnAddress",
      "outputs": [],
      "stateMutability": "nonpayable",
      "type": "function"
    },
    {
      "inputs": [
        {
          "internalType": "address",
          "name": "_controllerActions",
          "type": "address"
        }
      ],
      "name": "setControllerActions",
      "outputs": [],
      "stateMutability": "nonpayable",
      "type": "function"
    },
    {
      "inputs": [
        {
          "internalType": "bool",
          "name": "_isActive",
          "type": "bool"
        }
      ],
      "name": "setIsTimeMultiplierActive",
      "outputs": [],
      "stateMutability": "nonpayable",
      "type": "function"
    },
    {
      "inputs": [
        {
          "internalType": "address",
          "name": "_ZORRO",
          "type": "address"
        },
        {
          "internalType": "address",
          "name": "_defaultStablecoin",
          "type": "address"
        }
      ],
      "name": "setKeyAddresses",
      "outputs": [],
      "stateMutability": "nonpayable",
      "type": "function"
    },
    {
      "inputs": [
        {
          "internalType": "uint256",
          "name": "_blocksPerDay",
          "type": "uint256"
        },
        {
          "internalType": "uint256[]",
          "name": "_dailyDistFactors",
          "type": "uint256[]"
        },
        {
          "internalType": "uint256",
          "name": "_chainMultiplier",
          "type": "uint256"
        },
        {
          "internalType": "uint256",
          "name": "_baseRewardRateBasisPoints",
          "type": "uint256"
        }
      ],
      "name": "setRewardsParams",
      "outputs": [],
      "stateMutability": "nonpayable",
      "type": "function"
    },
    {
      "inputs": [
        {
          "internalType": "uint256",
          "name": "_startBlock",
          "type": "uint256"
        }
      ],
      "name": "setStartBlock",
      "outputs": [],
      "stateMutability": "nonpayable",
      "type": "function"
    },
    {
      "inputs": [
        {
          "internalType": "uint256",
          "name": "_targetTVLCaptureBasisPoints",
          "type": "uint256"
        }
      ],
      "name": "setTargetTVLCaptureBasisPoints",
      "outputs": [],
      "stateMutability": "nonpayable",
      "type": "function"
    },
    {
      "inputs": [
        {
          "internalType": "uint256",
          "name": "_chainId",
          "type": "uint256"
        },
        {
          "internalType": "uint256",
          "name": "_homeChainId",
          "type": "uint256"
        },
        {
          "internalType": "address",
          "name": "_homeChainZorroController",
          "type": "address"
        }
      ],
      "name": "setXChainParams",
      "outputs": [],
      "stateMutability": "nonpayable",
      "type": "function"
    },
    {
      "inputs": [
        {
          "internalType": "address",
          "name": "_publicPool",
          "type": "address"
        },
        {
          "internalType": "address",
          "name": "_zorroStakingVault",
          "type": "address"
        }
      ],
      "name": "setZorroContracts",
      "outputs": [],
      "stateMutability": "nonpayable",
      "type": "function"
    },
    {
      "inputs": [
        {
          "internalType": "address",
          "name": "_zorroControllerOracle",
          "type": "address"
        }
      ],
      "name": "setZorroControllerOracle",
      "outputs": [],
      "stateMutability": "nonpayable",
      "type": "function"
    },
    {
      "inputs": [
        {
          "internalType": "uint256",
          "name": "_totalChainMultipliers",
          "type": "uint256"
        },
        {
          "internalType": "uint256",
          "name": "_totalMarketTVLUSD",
          "type": "uint256"
        },
        {
          "internalType": "uint256",
          "name": "_targetTVLCaptureBasisPoints",
          "type": "uint256"
        },
        {
          "internalType": "uint256",
          "name": "_ZorroTotalVaultTVLUSD",
          "type": "uint256"
        },
        {
          "internalType": "uint256",
          "name": "_publicPoolZORBalance",
          "type": "uint256"
        }
      ],
      "name": "setZorroPerBlock",
      "outputs": [],
      "stateMutability": "nonpayable",
      "type": "function"
    },
    {
      "inputs": [
        {
          "internalType": "address",
          "name": "_contract",
          "type": "address"
        }
      ],
      "name": "setZorroXChainEndpoint",
      "outputs": [],
      "stateMutability": "nonpayable",
      "type": "function"
    },
    {
      "inputs": [
        {
          "internalType": "uint256",
          "name": "_pid",
          "type": "uint256"
        },
        {
          "internalType": "address",
          "name": "_account",
          "type": "address"
        },
        {
          "internalType": "int256",
          "name": "_trancheId",
          "type": "int256"
        }
      ],
      "name": "shares",
      "outputs": [
        {
          "internalType": "uint256",
          "name": "ownedShares",
          "type": "uint256"
        }
      ],
      "stateMutability": "view",
      "type": "function"
    },
    {
      "inputs": [],
      "name": "startBlock",
      "outputs": [
        {
          "internalType": "uint256",
          "name": "",
          "type": "uint256"
        }
      ],
      "stateMutability": "view",
      "type": "function"
    },
    {
      "inputs": [],
      "name": "targetTVLCaptureBasisPoints",
      "outputs": [
        {
          "internalType": "uint256",
          "name": "",
          "type": "uint256"
        }
      ],
      "stateMutability": "view",
      "type": "function"
    },
    {
      "inputs": [],
      "name": "totalAllocPoint",
      "outputs": [
        {
          "internalType": "uint256",
          "name": "",
          "type": "uint256"
        }
      ],
      "stateMutability": "view",
      "type": "function"
    },
    {
      "inputs": [
        {
          "internalType": "uint256",
          "name": "",
          "type": "uint256"
        },
        {
          "internalType": "address",
          "name": "",
          "type": "address"
        },
        {
          "internalType": "uint256",
          "name": "",
          "type": "uint256"
        }
      ],
      "name": "trancheInfo",
      "outputs": [
        {
          "internalType": "uint256",
          "name": "contribution",
          "type": "uint256"
        },
        {
          "internalType": "uint256",
          "name": "timeMultiplier",
          "type": "uint256"
        },
        {
          "internalType": "uint256",
          "name": "rewardDebt",
          "type": "uint256"
        },
        {
          "internalType": "uint256",
          "name": "durationCommittedInWeeks",
          "type": "uint256"
        },
        {
          "internalType": "uint256",
          "name": "enteredVaultAt",
          "type": "uint256"
        },
        {
          "internalType": "uint256",
          "name": "exitedVaultAt",
          "type": "uint256"
        }
      ],
      "stateMutability": "view",
      "type": "function"
    },
    {
      "inputs": [
        {
          "internalType": "uint256",
          "name": "_pid",
          "type": "uint256"
        },
        {
          "internalType": "address",
          "name": "_user",
          "type": "address"
        }
      ],
      "name": "trancheLength",
      "outputs": [
        {
          "internalType": "uint256",
          "name": "",
          "type": "uint256"
        }
      ],
      "stateMutability": "view",
      "type": "function"
    },
    {
      "inputs": [
        {
          "internalType": "uint256",
          "name": "_fromPid",
          "type": "uint256"
        },
        {
          "internalType": "uint256",
          "name": "_fromTrancheId",
          "type": "uint256"
        },
        {
          "internalType": "uint256",
          "name": "_toPid",
          "type": "uint256"
        },
        {
          "internalType": "uint256",
          "name": "_maxMarketMovement",
          "type": "uint256"
        }
      ],
      "name": "transferInvestment",
      "outputs": [],
      "stateMutability": "nonpayable",
      "type": "function"
    },
    {
      "inputs": [
        {
          "internalType": "address",
          "name": "newOwner",
          "type": "address"
        }
      ],
      "name": "transferOwnership",
      "outputs": [],
      "stateMutability": "nonpayable",
      "type": "function"
    },
    {
      "inputs": [
        {
          "internalType": "uint256",
          "name": "_pid",
          "type": "uint256"
        }
      ],
      "name": "updatePool",
      "outputs": [
        {
          "internalType": "uint256",
          "name": "mintedZOR",
          "type": "uint256"
        }
      ],
      "stateMutability": "nonpayable",
      "type": "function"
    },
    {
      "inputs": [
        {
          "internalType": "address",
          "name": "",
          "type": "address"
        }
      ],
      "name": "vaultMapping",
      "outputs": [
        {
          "internalType": "uint256",
          "name": "",
          "type": "uint256"
        }
      ],
      "stateMutability": "view",
      "type": "function"
    },
    {
      "inputs": [
        {
          "internalType": "uint256",
          "name": "_pid",
          "type": "uint256"
        },
        {
          "internalType": "uint256",
          "name": "_trancheId",
          "type": "uint256"
        },
        {
          "internalType": "bool",
          "name": "_harvestOnly",
          "type": "bool"
        }
      ],
      "name": "withdraw",
      "outputs": [
        {
          "internalType": "uint256",
          "name": "",
          "type": "uint256"
        }
      ],
      "stateMutability": "nonpayable",
      "type": "function"
    },
    {
      "inputs": [
        {
          "internalType": "uint256",
          "name": "_pid",
          "type": "uint256"
        }
      ],
      "name": "withdrawAll",
      "outputs": [],
      "stateMutability": "nonpayable",
      "type": "function"
    },
    {
      "inputs": [
        {
          "internalType": "uint256",
          "name": "_pid",
          "type": "uint256"
        },
        {
          "internalType": "uint256",
          "name": "_trancheId",
          "type": "uint256"
        },
        {
          "internalType": "bool",
          "name": "_harvestOnly",
          "type": "bool"
        },
        {
          "internalType": "uint256",
          "name": "_maxMarketMovement",
          "type": "uint256"
        }
      ],
      "name": "withdrawalFullService",
      "outputs": [
        {
          "internalType": "uint256",
          "name": "",
          "type": "uint256"
        }
      ],
      "stateMutability": "nonpayable",
      "type": "function"
    },
    {
      "inputs": [
        {
          "internalType": "address",
          "name": "_account",
          "type": "address"
        },
        {
          "internalType": "bytes",
          "name": "_foreignAccount",
          "type": "bytes"
        },
        {
          "internalType": "uint256",
          "name": "_pid",
          "type": "uint256"
        },
        {
          "internalType": "uint256",
          "name": "_trancheId",
          "type": "uint256"
        },
        {
          "internalType": "bool",
          "name": "_harvestOnly",
          "type": "bool"
        },
        {
          "internalType": "uint256",
          "name": "_maxMarketMovement",
          "type": "uint256"
        }
      ],
      "name": "withdrawalFullServiceFromXChain",
      "outputs": [
        {
          "internalType": "uint256",
          "name": "_amountUSD",
          "type": "uint256"
        },
        {
          "internalType": "uint256",
          "name": "_rewardsDueXChain",
          "type": "uint256"
        }
      ],
      "stateMutability": "nonpayable",
      "type": "function"
    },
    {
      "inputs": [],
      "name": "zorroControllerOracle",
      "outputs": [
        {
          "internalType": "address",
          "name": "",
          "type": "address"
        }
      ],
      "stateMutability": "view",
      "type": "function"
    },
    {
      "inputs": [],
      "name": "zorroStakingVault",
      "outputs": [
        {
          "internalType": "address",
          "name": "",
          "type": "address"
        }
      ],
      "stateMutability": "view",
      "type": "function"
    },
    {
      "inputs": [],
      "name": "zorroXChainEndpoint",
      "outputs": [
        {
          "internalType": "address",
          "name": "",
          "type": "address"
        }
      ],
      "stateMutability": "view",
      "type": "function"
    },
    {
      "inputs": [
        {
          "internalType": "uint256",
          "name": "_pid",
          "type": "uint256"
        },
        {
          "internalType": "address",
          "name": "_account",
          "type": "address"
        },
        {
          "components": [
            {
              "internalType": "uint256",
              "name": "contribution",
              "type": "uint256"
            },
            {
              "internalType": "uint256",
              "name": "timeMultiplier",
              "type": "uint256"
            },
            {
              "internalType": "uint256",
              "name": "rewardDebt",
              "type": "uint256"
            },
            {
              "internalType": "uint256",
              "name": "durationCommittedInWeeks",
              "type": "uint256"
            },
            {
              "internalType": "uint256",
              "name": "enteredVaultAt",
              "type": "uint256"
            },
            {
              "internalType": "uint256",
              "name": "exitedVaultAt",
              "type": "uint256"
            }
          ],
          "internalType": "struct IZorroControllerBase.TrancheInfo",
          "name": "_trancheInfo",
          "type": "tuple"
        }
      ],
      "name": "addTranche",
      "outputs": [],
      "stateMutability": "nonpayable",
      "type": "function"
    },
    {
      "inputs": [
        {
          "internalType": "uint256",
          "name": "_pid",
          "type": "uint256"
        },
        {
          "internalType": "uint256",
          "name": "_block",
          "type": "uint256"
        }
      ],
      "name": "setLastRewardBlock",
      "outputs": [],
      "stateMutability": "nonpayable",
      "type": "function"
    },
    {
      "inputs": [
        {
          "internalType": "uint256",
          "name": "_pid",
          "type": "uint256"
        }
      ],
      "name": "updatePoolMod",
      "outputs": [],
      "stateMutability": "nonpayable",
      "type": "function"
    },
    {
      "inputs": [
        {
          "internalType": "uint256",
          "name": "_pid",
          "type": "uint256"
        },
        {
          "internalType": "address",
          "name": "_localAccount",
          "type": "address"
        },
        {
          "internalType": "bytes",
          "name": "_foreignAccount",
          "type": "bytes"
        },
        {
          "internalType": "uint256",
          "name": "_trancheId",
          "type": "uint256"
        },
        {
          "internalType": "bool",
          "name": "_harvestOnly",
          "type": "bool"
        },
        {
          "internalType": "bool",
          "name": "_xChainRepatriation",
          "type": "bool"
        }
      ],
      "name": "withdrawMod",
      "outputs": [
        {
          "components": [
            {
              "internalType": "uint256",
              "name": "wantAmt",
              "type": "uint256"
            },
            {
              "internalType": "uint256",
              "name": "rewardsDueXChain",
              "type": "uint256"
            }
          ],
          "internalType": "struct IZorroControllerInvestment.WithdrawalResult",
          "name": "_res",
          "type": "tuple"
        }
      ],
      "stateMutability": "nonpayable",
      "type": "function"
    },
    {
      "inputs": [
        {
          "internalType": "uint256",
          "name": "_mintedRewards",
          "type": "uint256"
        }
      ],
      "name": "recordMintedRewards",
      "outputs": [],
      "stateMutability": "nonpayable",
      "type": "function"
    },
    {
      "inputs": [
        {
          "internalType": "uint256",
          "name": "_slashedRewards",
          "type": "uint256"
        }
      ],
      "name": "recordSlashedRewards",
      "outputs": [],
      "stateMutability": "nonpayable",
      "type": "function"
    }
  ],
  "bytecode": "0x608060405234801561001057600080fd5b506148f5806100206000396000f3fe608060405234801561001057600080fd5b50600436106104155760003560e060020a90048063745af0a811610224578063b28e219511610134578063cb9c2f68116100bc578063ef1269671161008b578063ef12696714610965578063f2fde38b1461096e578063f35e4a6e14610981578063f63cce3714610994578063fc39a29e146109a757600080fd5b8063cb9c2f6814610923578063cff38dd41461092c578063d12facd41461093f578063ed43633f1461095257600080fd5b8063b95cc68111610103578063b95cc681146108d8578063c13260a5146108e1578063c2936142146108f4578063c4e94f22146108fd578063c6d758cb1461091057600080fd5b8063b28e21951461085f578063b37b8c3214610872578063b4b4e9eb14610885578063b61bb80a146108c557600080fd5b806396cfe301116101b75780639cebd371116101865780639cebd371146108155780639e941bfe1461081e578063a13346c614610831578063a1be201d14610839578063a4d2b0831461084c57600080fd5b806396cfe301146107d3578063985b0a0d146107e6578063985e7a87146107f95780639a8a05921461080c57600080fd5b80638c157db2116101f35780638c157db2146107675780638da5cb5b1461077a578063941d3fd01461078b578063958e2d31146107c057600080fd5b8063745af0a81461071b5780637e37c7691461072e578063823c43d0146107415780638babe1531461075457600080fd5b80634780f9f51161032a5780635c63fa87116102b2578063668ababb11610281578063668ababb146106c75780636b8eb2e5146106da5780636c78d49c146106ed57806370d5ae0514610700578063715018a61461071357600080fd5b80635c63fa87146106865780635f70edcf14610699578063630b5ba1146106ac57806364482f79146106b457600080fd5b80635051d371116102f95780635051d3711461063b57806351eb05a61461064e578063529668321461066157806353f73f871461066a5780635527a6f91461067d57600080fd5b80634780f9f51461060357806348cd4cb1146106165780634b0e72161461061f5780634cfea68a1461063257600080fd5b80632e31283d116103ad57806339e80a881161037c57806339e80a88146105a35780633b710688146105b65780633b9ce565146105bf5780633bbc1ffc146105c857806340abd8fc146105db57600080fd5b80632e31283d146104fa578063332e5a7b1461055d57806333cfcd3b1461057057806337cb2ef21461058357600080fd5b80630aa0988e116103e95780630aa0988e1461047c5780631526fe271461048f57806317caf6f1146104de5780631b8fb692146104e757600080fd5b8062aeef8a1461041a57806304fa08311461042f578063081e3eda1461046257806309b79b3c14610474575b600080fd5b61042d610428366004613d23565b6109ba565b005b61044261043d366004613e28565b610a59565b604080518251815260209283015192810192909252015b60405180910390f35b60aa545b604051908152602001610459565b61042d610ab7565b61042d61048a366004613eb1565b610b1b565b6104a261049d366004613eea565b610b76565b60408051600160a060020a03978816815260208101969096528501939093526060840191909152608083015290911660a082015260c001610459565b61046660a45481565b61042d6104f5366004613f03565b610bc9565b610545610508366004613f28565b60ad6020908152600093845260408085208451808601840180519281529084019584019590952094529290528252902054600160a060020a031681565b604051600160a060020a039091168152602001610459565b60af5461054590600160a060020a031681565b61046661057e366004613f78565b610c93565b610466610591366004613fb1565b60ab6020526000908152604090205481565b60b05461054590600160a060020a031681565b61046660a35481565b61046660a15481565b61042d6105d6366004613eea565b610d30565b6105ee6105e9366004613fce565b610d8f565b60408051928352602083019190915201610459565b61042d61061136600461404e565b610e2a565b610466609c5481565b61042d61062d366004613fb1565b610ebc565b610466609d5481565b61042d610649366004613fb1565b610f0b565b61046661065c366004613eea565b610f5a565b61046660a55481565b610466610678366004613f03565b611143565b61046660a05481565b61042d610694366004614080565b61116d565b61042d6106a73660046140ae565b6111c4565b6104666113b6565b61042d6106c2366004613f78565b611462565b60995461054590600160a060020a031681565b61042d6106e8366004614101565b611510565b61042d6106fb36600461413c565b6115e0565b609b5461054590600160a060020a031681565b61042d61164d565b610466610729366004614159565b611686565b61042d61073c36600461404e565b611700565b60ae5461054590600160a060020a031681565b61042d61076236600461429e565b611876565b60975461054590600160a060020a031681565b603354600160a060020a0316610545565b60af546107b09074010000000000000000000000000000000000000000900460ff1681565b6040519015158152602001610459565b61042d6107ce366004613eea565b611a79565b61042d6107e1366004614358565b611bbf565b6104666107f4366004614398565b611c88565b61042d610807366004613eea565b611e7f565b61046660a75481565b61046660a25481565b61042d61082c366004613eea565b611ebc565b61042d611eef565b61042d610847366004613fb1565b611f6d565b609a5461054590600160a060020a031681565b61046661086d366004614398565b611fbc565b61042d610880366004613eea565b6121a9565b610898610893366004614398565b6121d9565b604080519687526020870195909552938501929092526060840152608083015260a082015260c001610459565b60985461054590600160a060020a031681565b61046660a65481565b61042d6108ef3660046143d0565b61223a565b610466609e5481565b61042d61090b366004613fb1565b6122df565b61042d61091e3660046143f2565b61232e565b610466609f5481565b61042d61093a36600461441e565b6123f6565b61042d61094d3660046143d0565b61248b565b61042d61096036600461449c565b6124b8565b61046660a85481565b61042d61097c366004613fb1565b612531565b61042d61098f366004613eea565b6125e6565b61042d6109a2366004613eb1565b61266b565b60a95461054590600160a060020a031681565b600260655414156109e95760405160e560020a62461bcd0281526004016109e090614529565b60405180910390fd5b6002606581905550600060aa8481548110610a0657610a06614560565b600091825260209091206006909102018054909150610a3090600160a060020a03163330866126f3565b610a4d8433604051806020016040528060008152508686426127aa565b50506001606555505050565b6040805180820190915260008082526020820152610a7b878787878787612ade565b6020810151604051919250907f0bff6dc62993b9df3cfb8d9a50174415317acf48b477e7da2b0f1accb3b62c7790600090a29695505050505050565b60ae54600160a060020a031633600160a060020a031614610aed5760405160e560020a62461bcd0281526004016109e090614579565b60a85460a7541415610b145760405160e560020a62461bcd0281526004016109e0906145b0565b600060a555565b603354600160a060020a03163314610b485760405160e560020a62461bcd0281526004016109e0906145e7565b60978054600160a060020a03938416600160a060020a03199182161790915560988054929093169116179055565b60aa8181548110610b8657600080fd5b6000918252602090912060069091020180546001820154600283015460038401546004850154600590950154600160a060020a0394851696509294919390921686565b60b054600160a060020a031633600160a060020a031614610bff5760405160e560020a62461bcd0281526004016109e09061461c565b60a85460a7541415610c10575b5050565b6097546040517f40c10f19000000000000000000000000000000000000000000000000000000008152600160a060020a03838116600483015260248201859052909116906340c10f1990604401600060405180830381600087803b158015610c7757600080fd5b505af1158015610c8b573d6000803e3d6000fd5b505050505050565b600060026065541415610cbb5760405160e560020a62461bcd0281526004016109e090614529565b60026065819055506000610ce385336040518060200160405280600081525087876000612ade565b9050610d2233826000015160aa8881548110610d0157610d01614560565b6000918252602090912060069091020154600160a060020a03169190613208565b516001606555949350505050565b603354600160a060020a03163314610d5d5760405160e560020a62461bcd0281526004016109e0906145e7565b60a954600160a060020a03163014610d8a5760405160e560020a62461bcd0281526004016109e090614653565b609f55565b60b0546000908190600160a060020a031633600160a060020a031614610dca5760405160e560020a62461bcd0281526004016109e09061461c565b610dda8888888888886001613256565b90925090508115610dfc57609854610dfc90600160a060020a03163384613208565b8015610e1f57609b54609754610e1f91600160a060020a03918216911683613208565b965096945050505050565b60026065541415610e505760405160e560020a62461bcd0281526004016109e090614529565b6002606581905550600060aa8581548110610e6d57610e6d614560565b6000918252602090912060056006909202010154609854600160a060020a039182169250610e9e91163383876126f3565b610a4d8533604051806020016040528060008152508787428861337e565b603354600160a060020a03163314610ee95760405160e560020a62461bcd0281526004016109e0906145e7565b609b8054600160a060020a031916600160a060020a0392909216919091179055565b603354600160a060020a03163314610f385760405160e560020a62461bcd0281526004016109e0906145e7565b60ae8054600160a060020a031916600160a060020a0392909216919091179055565b60008060aa8381548110610f7057610f70614560565b9060005260206000209060060201905080600201544311610f945750600092915050565b6005810154604080517f44a3955e0000000000000000000000000000000000000000000000000000000081529051600092600160a060020a0316916344a3955e9160048083019260209291908290030181865afa158015610ff9573d6000803e3d6000fd5b505050506040513d601f19601f8201168201806040525081019061101d919061468a565b905080611034575043600290910155506000919050565b600082600201544361104691906146bc565b9050600060a4548460010154609e548461106091906146d3565b61106a91906146d3565b61107491906146f2565b60a954909150600160a060020a0316301415611093576000945061111c565b6097546040517f40c10f1900000000000000000000000000000000000000000000000000000000815230600482015260248101839052600160a060020a03909116906340c10f1990604401600060405180830381600087803b1580156110f857600080fd5b505af115801561110c573d6000803e3d6000fd5b5050505080945061111c8561346a565b80846003015461112c9190614717565b600385015550504360029092019190915550919050565b600082815260ac60209081526040808320600160a060020a03851684529091529020545b92915050565b603354600160a060020a0316331461119a5760405160e560020a62461bcd0281526004016109e0906145e7565b60a79290925560a85560a98054600160a060020a031916600160a060020a03909216919091179055565b603354600160a060020a031633146111f15760405160e560020a62461bcd0281526004016109e0906145e7565b8115611201576111ff6113b6565b505b6000609c54431161121457609c54611216565b435b90508460a4546112269190614717565b60a4556040805160c081018252600160a060020a038087168252602082018881529282018481526000606084018181526080850182815288851660a0870190815260aa80546001818101835591909552965160069094027f550d3de95be0bd28a79c3eb4ea7f05692c60b0602e48b49461e703379b08a71a81018054958816600160a060020a031996871617905597517f550d3de95be0bd28a79c3eb4ea7f05692c60b0602e48b49461e703379b08a71b89015593517f550d3de95be0bd28a79c3eb4ea7f05692c60b0602e48b49461e703379b08a71c88015590517f550d3de95be0bd28a79c3eb4ea7f05692c60b0602e48b49461e703379b08a71d870155517f550d3de95be0bd28a79c3eb4ea7f05692c60b0602e48b49461e703379b08a71e86015590517f550d3de95be0bd28a79c3eb4ea7f05692c60b0602e48b49461e703379b08a71f90940180549490921693169290921790915561138960aa5490565b61139391906146bc565b600160a060020a03909216600090815260ab602052604090209190915550505050565b60aa54600090815b8181101561145d576040517f51eb05a60000000000000000000000000000000000000000000000000000000081526004810182905230906351eb05a6906024016020604051808303816000875af115801561141d573d6000803e3d6000fd5b505050506040513d601f19601f82011682018060405250810190611441919061468a565b61144b9084614717565b92506114568161472f565b90506113be565b505090565b603354600160a060020a0316331461148f5760405160e560020a62461bcd0281526004016109e0906145e7565b801561149f5761149d6113b6565b505b8160aa84815481106114b3576114b3614560565b90600052602060002090600602016001015460a4546114d291906146bc565b6114dc9190614717565b60a4819055508160aa84815481106114f6576114f6614560565b906000526020600020906006020160010181905550505050565b60ae54600160a060020a031633600160a060020a0316146115465760405160e560020a62461bcd0281526004016109e090614579565b6000611554836127106146d3565b848660a35461156391906146d3565b61156d91906146d3565b61157791906146f2565b905060a15481111561158c575060a15461159b565b60a05481101561159b575060a0545b609d546115aa876127106146d3565b6115b491906146d3565b60a2546115c183856146d3565b6115cb91906146d3565b6115d591906146f2565b609e55505050505050565b603354600160a060020a0316331461160d5760405160e560020a62461bcd0281526004016109e0906145e7565b60af8054911515740100000000000000000000000000000000000000000274ff000000000000000000000000000000000000000019909216919091179055565b603354600160a060020a0316331461167a5760405160e560020a62461bcd0281526004016109e0906145e7565b61168460006134a5565b565b6000600260655414156116ae5760405160e560020a62461bcd0281526004016109e090614529565b600260658190555060006116d73360405180602001604052806000815250888888886000613256565b506098549091506116f290600160a060020a03163383613208565b600160655595945050505050565b600260655414156117265760405160e560020a62461bcd0281526004016109e090614529565b6002606555600084815260ac60209081526040808320338452909152812080548590811061175657611756614560565b600091825260208083206003600690930201919091015487835260ac825260408084203385529092529082208054919350908690811061179857611798614560565b906000526020600020906006020160040154905060006117ce336040518060200160405280600081525089896000896000613256565b50905061181160aa86815481106117e7576117e7614560565b6000918252602090912060056006909202010154609854600160a060020a03908116911683613208565b61182f8533604051806020016040528060008152508487878a61337e565b6040513381528590879089907f67e7aba7263d8fbeb0cd9a2f4008f060a6a03f46c1d7f9d0550f0b93e96e96f89060200160405180910390a4505060016065555050505050565b600054610100900460ff166118915760005460ff1615611895565b303b155b61190a5760405160e560020a62461bcd02815260206004820152602e60248201527f496e697469616c697a61626c653a20636f6e747261637420697320616c72656160448201527f647920696e697469616c697a656400000000000000000000000000000000000060648201526084016109e0565b600054610100900460ff1615801561192c576000805461ffff19166101011790555b815160978054600160a060020a03928316600160a060020a0319918216179091556020808501516098805491851691841691909117905560408086015160998054918616918516919091179055606080870151609a8054918716918616919091179055609b8054851661dead17905560808088015160af8054600160a0908155601460a15574ffffffffffffffffffffffffffffffffffffffffff199091169289169290921774010000000000000000000000000000000000000000179055808901518051609d5580860151609c5580850151609e5580840151609f558083015160a255015160a35560c0880151805160a7559384015160a8559183015160a9805491871691861691909117905582015160ae8054918616918516919091179055015160b08054919093169116179055611a646134f7565b8015610c0c576000805461ff00191690555050565b60026065541415611a9f5760405160e560020a62461bcd0281526004016109e090614529565b60026065556000611ab08233611143565b905060005b81811015611aec57611adb83336040518060200160405280600081525084600080612ade565b50611ae58161472f565b9050611ab5565b50600060aa8381548110611b0257611b02614560565b60009182526020909120600690910201546040517f70a08231000000000000000000000000000000000000000000000000000000008152306004820152600160a060020a03909116906370a0823190602401602060405180830381865afa158015611b71573d6000803e3d6000fd5b505050506040513d601f19601f82011682018060405250810190611b95919061468a565b90508015611bb557611bb5338260aa8681548110610d0157610d01614560565b5050600160655550565b600083815260ac60209081526040808320600160a060020a0386168452825280832080546001818101835591855293839020855160069095020184815592850151908301558301516002820155606083015160038201556080830151600482015560a083015160059091015560aa805485908110611c3f57611c3f614560565b906000526020600020906006020160040154611c5b9190614717565b60aa8481548110611c6e57611c6e614560565b906000526020600020906006020160040181905550505050565b60008060aa8581548110611c9e57611c9e614560565b906000526020600020906006020190506000816003015490508160020154431115611d14576000826002015443611cd591906146bc565b9050600060a4548460010154609e5484611cef91906146d3565b611cf991906146d3565b611d0391906146f2565b9050611d0f8184614717565b925050505b6004820154611d2857600092505050611e78565b6000841215611deb576000611d3d8787611143565b905060005b81811015611de457600088815260ac60209081526040808320600160a060020a038b1684529091528120805483908110611d7e57611d7e614560565b90600052602060002090600602019050806005015460001415611dd357600281015460048601548254611db29087906146d3565b611dbc91906146f2565b611dc69088614717565b611dd091906146bc565b95505b50611ddd8161472f565b9050611d42565b5050611e75565b600086815260ac60209081526040808320600160a060020a03891684529091528120805486908110611e1f57611e1f614560565b90600052602060002090600602019050806005015460001415611e6e57600281015460048401548254611e539085906146d3565b611e5d91906146f2565b611e6791906146bc565b9350611e73565b600093505b505b50505b9392505050565b6000611e8a82610f5a565b60405190915081907fa844e7199a9e0826e5c245adcd2d35f2f100069597a3e7512afe58f772c4eca990600090a25050565b60a85460a7541415611ee35760405160e560020a62461bcd0281526004016109e0906145b0565b611eec81613529565b50565b60ae54600160a060020a031633600160a060020a031614611f255760405160e560020a62461bcd0281526004016109e090614579565b60a85460a7541415611f4c5760405160e560020a62461bcd0281526004016109e0906145b0565b609b5460a654609754610b1492600160a060020a0391821692911690613208565b603354600160a060020a03163314611f9a5760405160e560020a62461bcd0281526004016109e0906145e7565b60af8054600160a060020a031916600160a060020a0392909216919091179055565b60008060aa8581548110611fd257611fd2614560565b9060005260206000209060060201905060008160050160009054906101000a9004600160a060020a0316600160a060020a03166344a3955e6040518163ffffffff1660e060020a028152600401602060405180830381865afa15801561203c573d6000803e3d6000fd5b505050506040513d601f19601f82011682018060405250810190612060919061468a565b90508061207257600092505050611e78565b60008412156121235760006120878787611143565b905060005b81811015611de457600088815260ac60209081526040808320600160a060020a038b16845290915281208054839081106120c8576120c8614560565b9060005260206000209060060201905080600501546000141561211257600181015481546120fb9064e8d4a510006146d3565b61210591906146f2565b61210f9087614717565b95505b5061211c8161472f565b905061208c565b600086815260ac60209081526040808320600160a060020a0389168452909152812080548690811061215757612157614560565b90600052602060002090600602019050806005015460001415611e73576001810154815461218a9064e8d4a510006146d3565b61219491906146f2565b61219e9085614717565b979650505050505050565b60a85460a75414156121d05760405160e560020a62461bcd0281526004016109e0906145b0565b611eec8161346a565b60ac602052826000526040600020602052816000526040600020818154811061220157600080fd5b60009182526020909120600690910201805460018201546002830154600384015460048501546005909501549397509195509350919086565b60ae54600160a060020a031633600160a060020a0316146122705760405160e560020a62461bcd0281526004016109e090614579565b60a954600160a060020a0316301461229d5760405160e560020a62461bcd0281526004016109e090614653565b609b546122ca90600160a060020a03166122b783856146bc565b609754600160a060020a03169190613208565b609a54610c0c908290600160a060020a031682565b603354600160a060020a0316331461230c5760405160e560020a62461bcd0281526004016109e0906145e7565b60b08054600160a060020a031916600160a060020a0392909216919091179055565b603354600160a060020a0316331461235b5760405160e560020a62461bcd0281526004016109e0906145e7565b609754600160a060020a03838116911614156123e25760405160e560020a62461bcd02815260206004820152603560248201527f217361666520746f20757365205a6f72726f20746f6b656e20696e2066756e6360448201527f20696e43617365546f6b656e73476574537475636b000000000000000000000060648201526084016109e0565b610c0c600160a060020a0383163383613208565b60b054600160a060020a031633600160a060020a03161461242c5760405160e560020a62461bcd0281526004016109e09061461c565b600060aa888154811061244157612441614560565b6000918252602090912060056006909202010154609854600160a060020a03918216925061247291163383886126f3565b6124818888888888888861337e565b5050505050505050565b8060aa838154811061249f5761249f614560565b9060005260206000209060060201600201819055505050565b603354600160a060020a031633146124e55760405160e560020a62461bcd0281526004016109e0906145e7565b609d85905583836000816124fb576124fb614560565b602002919091013560a055508383600181811061251a5761251a614560565b602002919091013560a1555060a35560a255505050565b603354600160a060020a0316331461255e5760405160e560020a62461bcd0281526004016109e0906145e7565b600160a060020a0381166125dd5760405160e560020a62461bcd02815260206004820152602660248201527f4f776e61626c653a206e6577206f776e657220697320746865207a65726f206160448201527f646472657373000000000000000000000000000000000000000000000000000060648201526084016109e0565b611eec816134a5565b603354600160a060020a031633146126135760405160e560020a62461bcd0281526004016109e0906145e7565b609c54156126665760405160e560020a62461bcd02815260206004820152601560248201527f626c6f636b506172616d7320696d6d757461626c65000000000000000000000060448201526064016109e0565b609c55565b603354600160a060020a031633146126985760405160e560020a62461bcd0281526004016109e0906145e7565b60a954600160a060020a031630146126c55760405160e560020a62461bcd0281526004016109e090614653565b60998054600160a060020a03938416600160a060020a031991821617909155609a8054929093169116179055565b604051600160a060020a03808516602483015283166044820152606481018290526127a49085907f23b872dd00000000000000000000000000000000000000000000000000000000906084015b60408051601f198184030181529190526020810180517bffffffffffffffffffffffffffffffffffffffffffffffffffffffff167fffffffff0000000000000000000000000000000000000000000000000000000090931692909217909152613564565b50505050565b60008060aa88815481106127c0576127c0614560565b90600052602060002090600602019050600085116128235760405160e560020a62461bcd02815260206004820152601560248201527f5f77616e74416d74206d757374206265203e203021000000000000000000000060448201526064016109e0565b61282c88610f5a565b9150600061283a888861364c565b6005830154835491925061285b91600160a060020a039081169116886136f5565b600060aa8a8154811061287057612870614560565b60009182526020909120600690910201600501546040517f2209b59e00000000000000000000000000000000000000000000000000000000815260048101899052600160a060020a0390911690632209b59e906024016020604051808303816000875af11580156128e5573d6000803e3d6000fd5b505050506040513d601f19601f82011682018060405250810190612909919061468a565b60af546040517fc25bf1070000000000000000000000000000000000000000000000000000000081526004810189905274010000000000000000000000000000000000000000820460ff1615156024820152919250600091600160a060020a039091169063c25bf10790604401602060405180830381865afa158015612993573d6000803e3d6000fd5b505050506040513d601f19601f820116820180604052508101906129b7919061468a565b60af546040517fa80bee070000000000000000000000000000000000000000000000000000000081526004810185905260248101839052919250600091600160a060020a039091169063a80bee0790604401602060405180830381865afa158015612a26573d6000803e3d6000fd5b505050506040513d601f19601f82011682018060405250810190612a4a919061468a565b905080856004016000828254612a609190614717565b90915550612a7590508c858c84868d8d6137d9565b8b8a604051612a849190614776565b604051809103902085600160a060020a03167fc6b1f1535b3bb3bdffa2f97a671ab7bd6f2512deec58103fa47eb40ed95274278c604051612ac791815260200190565b60405180910390a450505050509695505050505050565b6040805180820190915260008082526020820152600160a060020a038616158015612b0a575060008551115b80612b275750600160a060020a03861615801590612b2757508451155b612b765760405160e560020a62461bcd02815260206004820152601d60248201527f4f6e6c79206f6e65206163636f756e74207479706520616c6c6f77656400000060448201526064016109e0565b6000612b848886888a613994565b9050600060aa8981548110612b9b57612b9b614560565b906000526020600020906006020190506000826000015111612c025760405160e560020a62461bcd02815260206004820152601960248201527f7472616e6368652e636f6e747269627574696f6e20697320300000000000000060448201526064016109e0565b6000816004015411612c595760405160e560020a62461bcd02815260206004820152601e60248201527f746f74616c5472616e636865436f6e747269627574696f6e732069732030000060448201526064016109e0565b60a082015115612cae5760405160e560020a62461bcd02815260206004820152601460248201527f416c726561647920657869746564207661756c7400000000000000000000000060448201526064016109e0565b612cb789610f5a565b5060008260400151826004015483600301548560000151612cd891906146d3565b612ce291906146f2565b612cec91906146bc565b90508015612e4e5760af54604080517f1bb6ebbb0000000000000000000000000000000000000000000000000000000081528551600482015260208601516024820152908501516044820152606085015160648201526080850151608482015260a085015160a482015260c481018390526000918291600160a060020a0390911690631bb6ebbb9060e4016040805180830381865afa158015612d93573d6000803e3d6000fd5b505050506040513d601f19601f82011682018060405250810190612db79190614792565b915091508615612e04576020860182905260a85460a7541415612df5578015612df057609a54612df090600160a060020a031682613b37565b612e4b565b8015612df057612df081613529565b8115612e1457612e148b83613b37565b60a85460a7541415612e3c578015612df057609a54612df090600160a060020a031682613b37565b8015612e4b57612e4b81613529565b50505b856131fb576000612e5f8a8a61364c565b9050600060aa8c81548110612e7657612e76614560565b906000526020600020906006020160050160009054906101000a9004600160a060020a031690506000819050600081600160a060020a03166344a3955e6040518163ffffffff1660e060020a028152600401602060405180830381865afa158015612ee5573d6000803e3d6000fd5b505050506040513d601f19601f82011682018060405250810190612f09919061468a565b8760200151612f1891906146d3565b82600160a060020a031663677379e56040518163ffffffff1660e060020a028152600401602060405180830381865afa158015612f59573d6000803e3d6000fd5b505050506040513d601f19601f82011682018060405250810190612f7d91906147b6565b6040517ff55850b4000000000000000000000000000000000000000000000000000000008152600160a060020a038681166004830152919091169063f55850b490602401602060405180830381865afa158015612fde573d6000803e3d6000fd5b505050506040513d601f19601f82011682018060405250810190613002919061468a565b88516130139064e8d4a510006146d3565b61301d91906146d3565b61302791906146f2565b6040517f55ebedec00000000000000000000000000000000000000000000000000000000815260048101829052909150600160a060020a038316906355ebedec906024016020604051808303816000875af115801561308a573d6000803e3d6000fd5b505050506040513d601f19601f820116820180604052508101906130ae919061468a565b5050855160048601546130c493509091506146bc565b60048481019190915583546040517f70a082310000000000000000000000000000000000000000000000000000000081523092810192909252600160a060020a0316906370a0823190602401602060405180830381865afa15801561312d573d6000803e3d6000fd5b505050506040513d601f19601f82011682018060405250810190613151919061468a565b855260008b815260ac60209081526040808320600160a060020a0385168452909152902080544291908a90811061318a5761318a614560565b9060005260206000209060060201600501819055505089886040516131af9190614776565b6040805191829003822087518b8452602084015291600160a060020a038d16917fa7749cd42821d3b82a6814af6d80712b2e43f98ec1b25aee31c8351855de65d9910160405180910390a45b5050509695505050505050565b604051600160a060020a0383166024820152604481018290526132519084907fa9059cbb0000000000000000000000000000000000000000000000000000000090606401612740565b505050565b600080600060aa888154811061326e5761326e614560565b60009182526020822060056006909202010154600160a060020a0316915061329a898c8c8b8b8a612ade565b90506132d982826000015160aa8c815481106132b8576132b8614560565b6000918252602090912060069091020154600160a060020a031691906136f5565b80516040517f648794a4000000000000000000000000000000000000000000000000000000008152600481019190915260248101879052600160a060020a0383169063648794a4906044016020604051808303816000875af1158015613343573d6000803e3d6000fd5b505050506040513d601f19601f82011682018060405250810190613367919061468a565b935080602001519250505097509795505050505050565b600060aa888154811061339357613393614560565b60009182526020822060069190910201600501546040517fe502a88d0000000000000000000000000000000000000000000000000000000081526004810188905260248101859052600160a060020a039091169250829063e502a88d906044016020604051808303816000875af1158015613412573d6000803e3d6000fd5b505050506040513d601f19601f82011682018060405250810190613436919061468a565b9050613450828260aa8c815481106132b8576132b8614560565b61345e8989898489896127aa565b50505050505050505050565b60a85460a75414156134915760405160e560020a62461bcd0281526004016109e0906145b0565b8060a55461349f9190614717565b60a55550565b60338054600160a060020a03838116600160a060020a0319831681179093556040519116919082907f8be0079c531659141344cd1fd0a4f28419497f9722a3daafe3b4186f6b6457e090600090a35050565b600054610100900460ff166135215760405160e560020a62461bcd0281526004016109e0906147d3565b611684613be6565b60a85460a75414156135505760405160e560020a62461bcd0281526004016109e0906145b0565b8060a65461355e9190614717565b60a65550565b60006135b9826040518060400160405280602081526020017f5361666545524332303a206c6f772d6c6576656c2063616c6c206661696c656481525085600160a060020a0316613c199092919063ffffffff16565b80519091501561325157808060200190518101906135d79190614830565b6132515760405160e560020a62461bcd02815260206004820152602a60248201527f5361666545524332303a204552433230206f7065726174696f6e20646964206e60448201527f6f7420737563636565640000000000000000000000000000000000000000000060648201526084016109e0565b81600160a060020a0381166111675760008251116136d55760405160e560020a62461bcd02815260206004820152602c60248201527f4e65697468657220666f726569676e2061636374206e6f72206c6f63616c206160448201527f6363742070726f7669646564000000000000000000000000000000000000000060648201526084016109e0565b6136de8261484d565b6c0100000000000000000000000090049392505050565b6040517fdd62ed3e000000000000000000000000000000000000000000000000000000008152306004820152600160a060020a038381166024830152600091839186169063dd62ed3e90604401602060405180830381865afa15801561375f573d6000803e3d6000fd5b505050506040513d601f19601f82011682018060405250810190613783919061468a565b61378d9190614717565b604051600160a060020a0385166024820152604481018290529091506127a49085907f095ea7b30000000000000000000000000000000000000000000000000000000090606401612740565b600060aa88815481106137ee576137ee614560565b600091825260208083206040805160c0808201835260069095029092018054600160a060020a03908116845260018201548486015260028201548484015260038201546060850190815260048301546080860190815260059093015490911660a0850152825195860183528b86529385018a905251925191955083019190613877908a906146d3565b61388191906146f2565b815260208082018790526040808301879052600060609384018190528d815260ac8352818120600160a060020a038e1682528352818120805460018181018355918352918490208651600690930201918255928501519281019290925583015160028201559082015160038201556080820151600482015560a0820151600590910155875190915015613989578760ad60008b8152602001908152602001600020886040516139309190614776565b90815260200160405180910390206000600161394c8d8d611143565b61395691906146bc565b815260200190815260200160002060006101000a815481600160a060020a030219169083600160a060020a031602179055505b505050505050505050565b6139cd6040518060c001604052806000815260200160008152602001600081526020016000815260200160008152602001600081525090565b600160a060020a03821615613a6c57600085815260ac60209081526040808320600160a060020a03861684529091529020805485908110613a1057613a10614560565b90600052602060002090600602016040518060c001604052908160008201548152602001600182015481526020016002820154815260200160038201548152602001600482015481526020016005820154815250509050613b2f565b600085815260ad60205260408082209051613a88908690614776565b908152604080516020928190038301902060008881529083528181205489825260ac8452828220600160a060020a0390911680835293522080549192509086908110613ad657613ad6614560565b90600052602060002090600602016040518060c001604052908160008201548152602001600182015481526020016002820154815260200160038201548152602001600482015481526020016005820154815250509150505b949350505050565b6097546040517f70a082310000000000000000000000000000000000000000000000000000000081523060048201528291600091600160a060020a03909116906370a0823190602401602060405180830381865afa158015613b9d573d6000803e3d6000fd5b505050506040513d601f19601f82011682018060405250810190613bc1919061468a565b905080831115613bcf578091505b6097546127a490600160a060020a03168584613208565b600054610100900460ff16613c105760405160e560020a62461bcd0281526004016109e0906147d3565b611684336134a5565b6060613b2f848460008585600160a060020a0385163b613c7e5760405160e560020a62461bcd02815260206004820152601d60248201527f416464726573733a2063616c6c20746f206e6f6e2d636f6e747261637400000060448201526064016109e0565b60008086600160a060020a03168587604051613c9a9190614776565b60006040518083038185875af1925050503d8060008114613cd7576040519150601f19603f3d011682016040523d82523d6000602084013e613cdc565b606091505b509150915061219e82828660608315613cf6575081611e78565b825115613d065782518084602001fd5b8160405160e560020a62461bcd0281526004016109e0919061488c565b600080600060608486031215613d3857600080fd5b505081359360208301359350604090920135919050565b600160a060020a0381168114611eec57600080fd5b8035613d6f81613d4f565b919050565b60e060020a634e487b7102600052604160045260246000fd5b600082601f830112613d9e57600080fd5b813567ffffffffffffffff80821115613db957613db9613d74565b604051601f8301601f19908116603f01168101908282118183101715613de157613de1613d74565b81604052838152866020858801011115613dfa57600080fd5b836020870160208301376000602085830101528094505050505092915050565b8015158114611eec57600080fd5b60008060008060008060c08789031215613e4157600080fd5b863595506020870135613e5381613d4f565b9450604087013567ffffffffffffffff811115613e6f57600080fd5b613e7b89828a01613d8d565b945050606087013592506080870135613e9381613e1a565b915060a0870135613ea381613e1a565b809150509295509295509295565b60008060408385031215613ec457600080fd5b8235613ecf81613d4f565b91506020830135613edf81613d4f565b809150509250929050565b600060208284031215613efc57600080fd5b5035919050565b60008060408385031215613f1657600080fd5b823591506020830135613edf81613d4f565b600080600060608486031215613f3d57600080fd5b83359250602084013567ffffffffffffffff811115613f5b57600080fd5b613f6786828701613d8d565b925050604084013590509250925092565b600080600060608486031215613f8d57600080fd5b83359250602084013591506040840135613fa681613e1a565b809150509250925092565b600060208284031215613fc357600080fd5b8135611e7881613d4f565b60008060008060008060c08789031215613fe757600080fd5b8635613ff281613d4f565b9550602087013567ffffffffffffffff81111561400e57600080fd5b61401a89828a01613d8d565b9550506040870135935060608701359250608087013561403981613e1a565b8092505060a087013590509295509295509295565b6000806000806080858703121561406457600080fd5b5050823594602084013594506040840135936060013592509050565b60008060006060848603121561409557600080fd5b83359250602084013591506040840135613fa681613d4f565b600080600080608085870312156140c457600080fd5b8435935060208501356140d681613d4f565b925060408501356140e681613e1a565b915060608501356140f681613d4f565b939692955090935050565b600080600080600060a0868803121561411957600080fd5b505083359560208501359550604085013594606081013594506080013592509050565b60006020828403121561414e57600080fd5b8135611e7881613e1a565b6000806000806080858703121561416f57600080fd5b8435935060208501359250604085013561418881613e1a565b9396929550929360600135925050565b600060c082840312156141aa57600080fd5b60405160c0810181811067ffffffffffffffff821117156141cd576141cd613d74565b8060405250809150823581526020830135602082015260408301356040820152606083013560608201526080830135608082015260a083013560a08201525092915050565b600060a0828403121561422457600080fd5b60405160a0810181811067ffffffffffffffff8211171561424757614247613d74565b80604052508091508235815260208301356020820152604083013561426b81613d4f565b6040820152606083013561427e81613d4f565b6060820152608083013561429181613d4f565b6080919091015292915050565b600061020082840312156142b157600080fd5b60405160e0810181811067ffffffffffffffff821117156142d4576142d4613d74565b60405282356142e281613d4f565b815260208301356142f281613d4f565b6020820152604083013561430581613d4f565b604082015261431660608401613d64565b606082015261432760808401613d64565b60808201526143398460a08501614198565b60a082015261434c846101608501614212565b60c08201529392505050565b6000806000610100848603121561436e57600080fd5b83359250602084013561438081613d4f565b915061438f8560408601614198565b90509250925092565b6000806000606084860312156143ad57600080fd5b8335925060208401356143bf81613d4f565b929592945050506040919091013590565b600080604083850312156143e357600080fd5b50508035926020909101359150565b6000806040838503121561440557600080fd5b823561441081613d4f565b946020939093013593505050565b600080600080600080600060e0888a03121561443957600080fd5b87359650602088013561444b81613d4f565b9550604088013567ffffffffffffffff81111561446757600080fd5b6144738a828b01613d8d565b979a96995096976060810135975060808101359660a0820135965060c090910135945092505050565b6000806000806000608086880312156144b457600080fd5b85359450602086013567ffffffffffffffff808211156144d357600080fd5b818801915088601f8301126144e757600080fd5b8135818111156144f657600080fd5b896020808302850101111561450a57600080fd5b9699602092909201985095966040810135965060600135945092505050565b6020808252601f908201527f5265656e7472616e637947756172643a207265656e7472616e742063616c6c00604082015260600190565b60e060020a634e487b7102600052603260045260246000fd5b60208082526011908201527f6f6e6c79205a6f72726f206f7261636c65000000000000000000000000000000604082015260600190565b60208082526017908201527f466f72206e6f6e20686f6d6520636861696e206f6e6c79000000000000000000604082015260600190565b6020808252818101527f4f776e61626c653a2063616c6c6572206973206e6f7420746865206f776e6572604082015260600190565b6020808252600b908201527f78636861696e206f6e6c79000000000000000000000000000000000000000000604082015260600190565b6020808252600f908201527f6f6e6c7920686f6d6520636861696e0000000000000000000000000000000000604082015260600190565b60006020828403121561469c57600080fd5b5051919050565b60e060020a634e487b7102600052601160045260246000fd5b6000828210156146ce576146ce6146a3565b500390565b60008160001904831182151516156146ed576146ed6146a3565b500290565b6000826147125760e060020a634e487b7102600052601260045260246000fd5b500490565b6000821982111561472a5761472a6146a3565b500190565b6000600019821415614743576147436146a3565b5060010190565b60005b8381101561476557818101518382015260200161474d565b838111156127a45750506000910152565b6000825161478881846020870161474a565b9190910192915050565b600080604083850312156147a557600080fd5b505080516020909101519092909150565b6000602082840312156147c857600080fd5b8151611e7881613d4f565b6020808252602b908201527f496e697469616c697a61626c653a20636f6e7472616374206973206e6f74206960408201527f6e697469616c697a696e67000000000000000000000000000000000000000000606082015260800190565b60006020828403121561484257600080fd5b8151611e7881613e1a565b805160208201516bffffffffffffffffffffffff19808216929190601483101561488457808360140360080260020a820283161693505b505050919050565b60208152600082518060208401526148ab81604085016020870161474a565b601f01601f1916919091016040019291505056fea26469706673582212204a723acdb712434eea234c5739c92b881b69acdf788dfc1590ba8d552e9c758e64736f6c634300080a0033",
  "immutableReferences": {},
  "source": "// SPDX-License-Identifier: MIT\n\npragma solidity ^0.8.0;\n\nimport \"../ZorroController.sol\";\n\nimport \"../../vaults/_VaultBase.sol\";\n\nimport \"../../tokens/mocks/MockToken.sol\";\n\nimport \"../../vaults/actions/_VaultActions.sol\";\n\ncontract MockZorroController is ZorroController {\n    event UpdatedPool(uint256 indexed _amount);\n    event HandledRewards(uint256 indexed _rewardsDue);\n\n    function addTranche(\n        uint256 _pid,\n        address _account,\n        TrancheInfo memory _trancheInfo\n    ) public {\n        trancheInfo[_pid][_account].push(_trancheInfo);\n        poolInfo[_pid].totalTrancheContributions =\n            poolInfo[_pid].totalTrancheContributions +\n            _trancheInfo.contribution;\n    }\n\n    function setLastRewardBlock(uint256 _pid, uint256 _block) public {\n        poolInfo[_pid].lastRewardBlock = _block;\n    }\n\n    function updatePoolMod(uint256 _pid) public {\n        uint256 _res = updatePool(_pid);\n\n        emit UpdatedPool(_res);\n    }\n\n    function withdrawMod(\n        uint256 _pid,\n        address _localAccount,\n        bytes memory _foreignAccount,\n        uint256 _trancheId,\n        bool _harvestOnly,\n        bool _xChainRepatriation\n    ) public returns (WithdrawalResult memory _res) {\n        _res = _withdraw(\n            _pid,\n            _localAccount,\n            _foreignAccount,\n            _trancheId,\n            _harvestOnly,\n            _xChainRepatriation\n        );\n        emit HandledRewards(_res.rewardsDueXChain);\n    }\n\n    function _fetchFundsFromPublicPool(uint256 _amount, address _destination)\n        internal\n        override\n    {\n        // Do nothing. Dummy func.\n    }\n\n    function recordMintedRewards(uint256 _mintedRewards)\n        public\n        nonHomeChainOnly\n    {\n        _recordMintedRewards(_mintedRewards);\n    }\n\n    function recordSlashedRewards(uint256 _slashedRewards)\n        public\n        nonHomeChainOnly\n    {\n        _recordSlashedRewards(_slashedRewards);\n    }\n}\n\ncontract MockInvestmentVault is VaultBase {\n    using SafeERC20Upgradeable for IERC20Upgradeable;\n    using SafeMathUpgradeable for uint256;\n\n    event DepositedWant(uint256 indexed _wantAmt);\n    event ExchangedUSDForWant(\n        uint256 indexed _amountUSD,\n        uint256 indexed _amountWant\n    );\n    event WithdrewWant(uint256 indexed _wantAmt);\n    event ExchangedWantForUSD(\n        uint256 indexed _amountWant,\n        uint256 indexed _amountUSD\n    );\n\n    function depositWantToken(uint256 _wantAmt)\n        public\n        override\n        onlyZorroController\n        nonReentrant\n        whenNotPaused\n        returns (uint256 sharesAdded)\n    {\n        IERC20Upgradeable(wantAddress).safeTransferFrom(\n            msg.sender,\n            burnAddress,\n            _wantAmt\n        );\n\n        sharesTotal = sharesTotal.add(_wantAmt);\n\n        emit DepositedWant(_wantAmt);\n\n        return _wantAmt;\n    }\n\n    function exchangeUSDForWantToken(\n        uint256 _amountUSD,\n        uint256 _maxMarketMovementAllowed\n    ) public override onlyZorroController whenNotPaused returns (uint256) {\n        require(_maxMarketMovementAllowed > 0, \"slippage cannot be infinite\");\n\n        IERC20Upgradeable(defaultStablecoin).safeTransfer(\n            burnAddress,\n            _amountUSD\n        );\n        // Assume 1:1 exch rate\n        MockERC20Upgradeable(wantAddress).mint(msg.sender, _amountUSD);\n\n        emit ExchangedUSDForWant(_amountUSD, _amountUSD);\n\n        return _amountUSD;\n    }\n\n    function exchangeWantTokenForUSD(\n        uint256 _amount,\n        uint256 _maxMarketMovementAllowed\n    )\n        public\n        virtual\n        override\n        onlyZorroController\n        whenNotPaused\n        returns (uint256)\n    {\n        // Requirements\n        require(_maxMarketMovementAllowed > 0, \"cannot have infinite slippage\");\n        // Assume 1:1 exch rate\n        MockERC20Upgradeable(defaultStablecoin).mint(msg.sender, _amount);\n\n        emit ExchangedWantForUSD(_amount, _amount);\n\n        return _amount;\n    }\n\n    function earn(uint256 _maxMarketMovementAllowed) public override {}\n\n    function farm() external {}\n\n    function _farm() internal override {}\n\n    function _unfarm(uint256 _amount) internal override {}\n}\n\ncontract MockInvestmentVault1 is MockInvestmentVault {}\n",
  "sourcePath": "/Users/kristophm/Documents/workspace/zorro-protocol/contracts/controllers/mocks/MockZorroController.sol",
  "compiler": {
    "name": "solc",
    "version": "0.8.10+commit.fc410830.Emscripten.clang"
  },
  "schemaVersion": "3.4.10",
  "updatedAt": "2022-12-13T02:17:54.457Z",
  "devdoc": {
    "kind": "dev",
    "methods": {
      "add(uint256,address,bool,address)": {
        "details": "DO NOT add the same Want token more than once. Rewards will be messed up if you do. (Only if Want tokens are stored here.)",
        "params": {
          "_allocPoint": "The number of allocation points for this pool (aka \"multiplier\")",
          "_vault": "The contract address of the underlying vault",
          "_want": "The address of the want token",
          "_withUpdate": "Mass update all pools if set to true"
        }
      },
      "deposit(uint256,uint256,uint256)": {
        "params": {
          "_pid": "index of pool",
          "_wantAmt": "how much Want token to deposit",
          "_weeksCommitted": "how many weeks the user is committing to on this vault"
        }
      },
      "depositFullService(uint256,uint256,uint256,uint256)": {
        "params": {
          "_maxMarketMovement": "factor to account for max market movement/slippage. The definition varies by Vault, so consult the associated Vault contract for info",
          "_pid": "index of pool to deposit into",
          "_valueUSD": "value in USD (in ether units) to deposit",
          "_weeksCommitted": "how many weeks to commit to the Pool (can be 0 or any uint)"
        }
      },
      "depositFullServiceFromXChain(uint256,address,bytes,uint256,uint256,uint256,uint256)": {
        "params": {
          "_account": "address of user on-chain",
          "_foreignAccount": "the cross chain wallet that initiated this call, if applicable.",
          "_maxMarketMovement": "factor to account for max market movement/slippage. The definition varies by Vault, so consult the associated Vault contract for info",
          "_pid": "index of pool to deposit into",
          "_valueUSD": "value in USD (in ether units) to deposit",
          "_vaultEnteredAt": "date that the vault was entered at",
          "_weeksCommitted": "how many weeks to commit to the Pool (can be 0 or any uint)"
        }
      },
      "handleAccXChainRewards(uint256,uint256)": {
        "details": "Caller should call \"reset\" functions so that rewards aren't double-burned/allocated",
        "params": {
          "_totalMinted": "Total ZOR rewards minted across other chains at this moment",
          "_totalSlashed": "Total ZOR rewards slashed across other chains at this moment"
        }
      },
      "inCaseTokensGetStuck(address,uint256)": {
        "details": "Does not permit usage for the Zorro token",
        "params": {
          "_amount": "token quantity",
          "_token": "ERC20 token address"
        }
      },
      "initialize((address,address,address,address,address,(uint256,uint256,uint256,uint256,uint256,uint256),(uint256,uint256,address,address,address)))": {
        "params": {
          "_initValue": "A ZorroControllerInit struct containing all constructor args"
        }
      },
      "massUpdatePools()": {
        "details": "Be careful of gas fees!",
        "returns": {
          "_mintedZOR": "total amount of ZOR rewards minted (useful for cross chain)"
        }
      },
      "owner()": {
        "details": "Returns the address of the current owner."
      },
      "pendingZORRORewards(uint256,address,int256)": {
        "params": {
          "_account": "Wallet address of on chain account",
          "_pid": "Index of pool",
          "_trancheId": "Tranche ID. If -1, will do pending rewards for all active tranches"
        },
        "returns": {
          "pendingRewards": "Amount of Zorro rewards"
        }
      },
      "poolLength()": {
        "returns": {
          "_0": "Number of pools"
        }
      },
      "renounceOwnership()": {
        "details": "Leaves the contract without owner. It will not be possible to call `onlyOwner` functions anymore. Can only be called by the current owner. NOTE: Renouncing ownership will leave the contract without an owner, thereby removing any functionality that is only available to the owner."
      },
      "repatriateRewards(uint256,address)": {
        "params": {
          "_destination": "Wallet to send funds to",
          "_rewardsDue": "The amount of rewards that need to be fetched and sent to the wallet"
        }
      },
      "resetSyntheticRewardsMinted()": {
        "details": "To be called by Oracle only, when batch burning synthetic minted rewards"
      },
      "resetSyntheticRewardsSlashed()": {
        "details": "To be called by Oracle only, when batch burning synthetic minted rewards"
      },
      "set(uint256,uint256,bool)": {
        "params": {
          "_allocPoint": "The number of allocation points for this pool (aka \"multiplier\")",
          "_pid": "The index of the pool ID",
          "_withUpdate": "Mass update all pools if set to true"
        }
      },
      "setBurnAddress(address)": {
        "params": {
          "_burnAddress": "The burn address on this chain"
        }
      },
      "setIsTimeMultiplierActive(bool)": {
        "params": {
          "_isActive": "Whether it shall be active. If false, timemultiplier will be 1."
        }
      },
      "setKeyAddresses(address,address)": {
        "params": {
          "_ZORRO": "ZOR token address",
          "_defaultStablecoin": "Main stablecoin address (USDC)"
        }
      },
      "setRewardsParams(uint256,uint256[],uint256,uint256)": {
        "details": "NOTE: Must enter all parameters or existing ones will be overwritten!",
        "params": {
          "_baseRewardRateBasisPoints": "Base reward rate factor, in bp",
          "_blocksPerDay": "# of blocks per day for this chain",
          "_chainMultiplier": "Rewards multiplier factor to be applied to this chain",
          "_dailyDistFactors": "Array of [ZORRODailyDistributionFactorBasisPointsMin, ZORRODailyDistributionFactorBasisPointsMax]"
        }
      },
      "setTargetTVLCaptureBasisPoints(uint256)": {
        "params": {
          "_targetTVLCaptureBasisPoints": "Percent of market desired to be captured, in bp. 333 = 3.33%. ONLY to be set on the home chain"
        }
      },
      "setXChainParams(uint256,uint256,address)": {
        "params": {
          "_chainId": "The ind of the chain that this contract is on",
          "_homeChainId": "The chain ID of the home chain",
          "_homeChainZorroController": "The address of the home chain controller"
        }
      },
      "setZorroContracts(address,address)": {
        "params": {
          "_publicPool": "Public pool address (where ZOR minted)",
          "_zorroStakingVault": "Zorro single staking vault address"
        }
      },
      "setZorroControllerOracle(address)": {
        "params": {
          "_zorroControllerOracle": "Address of Chainlink oracle that can interact with this contract"
        }
      },
      "setZorroPerBlock(uint256,uint256,uint256,uint256,uint256)": {
        "details": "Values to be provided by Oracle. Perferable to run daily",
        "params": {
          "_ZorroTotalVaultTVLUSD": "USD value of all TVL locked into the Zorro protocol, across all chains",
          "_publicPoolZORBalance": "Number of ZOR tokens remaining in public pool on home chain",
          "_targetTVLCaptureBasisPoints": "% desired capture of total market TVL, measured in basis points",
          "_totalChainMultipliers": "Sum total of all chain multipliers for each chain",
          "_totalMarketTVLUSD": "Total DeFi market TVL across all chains (measured in USD)"
        }
      },
      "setZorroXChainEndpoint(address)": {
        "params": {
          "_contract": "Contract address of endpoint"
        }
      },
      "shares(uint256,address,int256)": {
        "params": {
          "_account": "Wallet address of on chain account",
          "_pid": "Index of vault",
          "_trancheId": "Tranche ID, or -1 to aggregate across all tranches"
        },
        "returns": {
          "ownedShares": "Amount of vault shares owned (no time multipliers applied)"
        }
      },
      "trancheLength(uint256,address)": {
        "params": {
          "_pid": "Index of pool",
          "_user": "wallet address of user"
        },
        "returns": {
          "_0": "Number of tranches"
        }
      },
      "transferInvestment(uint256,uint256,uint256,uint256)": {
        "params": {
          "_fromPid": "index of pool FROM",
          "_fromTrancheId": "index of tranche FROM",
          "_maxMarketMovement": "factor to account for max market movement/slippage. The definition varies by Vault, so consult the associated Vault contract for info",
          "_toPid": "index of pool TO"
        }
      },
      "transferOwnership(address)": {
        "details": "Transfers ownership of the contract to a new account (`newOwner`). Can only be called by the current owner."
      },
      "updatePool(uint256)": {
        "params": {
          "_pid": "index of pool"
        },
        "returns": {
          "mintedZOR": "Amount of ZOR rewards minted (useful for cross chain)"
        }
      },
      "withdraw(uint256,uint256,bool)": {
        "params": {
          "_harvestOnly": "If true, will only harvest Zorro tokens but not do a withdrawal",
          "_pid": "index of pool",
          "_trancheId": "index of tranche"
        },
        "returns": {
          "_0": "Amount of Want token withdrawn"
        }
      },
      "withdrawAll(uint256)": {
        "params": {
          "_pid": "index of pool"
        }
      },
      "withdrawalFullService(uint256,uint256,bool,uint256)": {
        "params": {
          "_harvestOnly": "If true, will only harvest Zorro tokens but not do a withdrawal",
          "_maxMarketMovement": "factor to account for max market movement/slippage. The definition varies by Vault, so consult the associated Vault contract for info",
          "_pid": "index of pool to deposit into",
          "_trancheId": "index of tranche"
        },
        "returns": {
          "_0": "Amount (in USD) returned"
        }
      },
      "withdrawalFullServiceFromXChain(address,bytes,uint256,uint256,bool,uint256)": {
        "params": {
          "_account": "address of wallet on-chain",
          "_foreignAccount": "address of wallet cross-chain (that originally made this deposit)",
          "_harvestOnly": "If true, will only harvest Zorro tokens but not do a withdrawal",
          "_maxMarketMovement": "factor to account for max market movement/slippage. The definition varies by Vault, so consult the associated Vault contract for info",
          "_pid": "index of pool to deposit into",
          "_trancheId": "index of tranche"
        },
        "returns": {
          "_amountUSD": "Amount of USD withdrawn",
          "_rewardsDueXChain": "Amount of ZOR rewards due to the origin (cross chain) user"
        }
      }
    },
    "version": 1
  },
  "userdoc": {
    "kind": "user",
    "methods": {
      "add(uint256,address,bool,address)": {
        "notice": "Adds a new pool. Can only be called by the owner."
      },
      "deposit(uint256,uint256,uint256)": {
        "notice": "Deposit Want tokens to associated Vault"
      },
      "depositFullService(uint256,uint256,uint256,uint256)": {
        "notice": "Deposits funds in a full service manner (performs autoswaps and obtains Want tokens)"
      },
      "depositFullServiceFromXChain(uint256,address,bytes,uint256,uint256,uint256,uint256)": {
        "notice": "Full service deposit function to be called by ZorroControllerXChain only."
      },
      "handleAccXChainRewards(uint256,uint256)": {
        "notice": "Called by oracle to account for ZOR rewards that were minted or slashed on other chains"
      },
      "inCaseTokensGetStuck(address,uint256)": {
        "notice": "For owner to recover ERC20 tokens on this contract if stuck"
      },
      "initialize((address,address,address,address,address,(uint256,uint256,uint256,uint256,uint256,uint256),(uint256,uint256,address,address,address)))": {
        "notice": "Upgradeable constructor"
      },
      "massUpdatePools()": {
        "notice": "Updates reward variables of all pools"
      },
      "pendingZORRORewards(uint256,address,int256)": {
        "notice": "View function to see pending ZORRO on frontend."
      },
      "poolLength()": {
        "notice": "Number of pools in the Zorro protocol"
      },
      "repatriateRewards(uint256,address)": {
        "notice": "Gets rewards and sends to the recipient of a cross chain withdrawal"
      },
      "resetSyntheticRewardsMinted()": {
        "notice": "Resets accumulated synthentic rewards minted"
      },
      "resetSyntheticRewardsSlashed()": {
        "notice": "Resets accumulated synthentic rewards minted"
      },
      "set(uint256,uint256,bool)": {
        "notice": "Update the given pool's ZORRO allocation point. Can only be called by the owner."
      },
      "setBurnAddress(address)": {
        "notice": "Setter: Burn address"
      },
      "setControllerActions(address)": {
        "notice": "Setter: Set controller actions contract address"
      },
      "setIsTimeMultiplierActive(bool)": {
        "notice": "Setter: Set time multiplier"
      },
      "setKeyAddresses(address,address)": {
        "notice": "Setter: Set key token addresses"
      },
      "setRewardsParams(uint256,uint256[],uint256,uint256)": {
        "notice": "Setter: Reward params (See Tokenomics paper for more details)"
      },
      "setStartBlock(uint256)": {
        "notice": "Setter: Start block for rewards"
      },
      "setTargetTVLCaptureBasisPoints(uint256)": {
        "notice": "Setter: TVL capture (See Tokenomics paper)"
      },
      "setXChainParams(uint256,uint256,address)": {
        "notice": "Setter: Cross chain params"
      },
      "setZorroContracts(address,address)": {
        "notice": "Setter: Set key ZOR contract addresses"
      },
      "setZorroControllerOracle(address)": {
        "notice": "Setter: Set Zorro Controller Oracle"
      },
      "setZorroPerBlock(uint256,uint256,uint256,uint256,uint256)": {
        "notice": "Set the number of Zorro to emit per block based on current market parameters"
      },
      "setZorroXChainEndpoint(address)": {
        "notice": "Setter: Cross chain endpoint"
      },
      "shares(uint256,address,int256)": {
        "notice": "Shares owned by an account for a vault"
      },
      "trancheLength(uint256,address)": {
        "notice": "Number of tranches invested by a given user into a given pool"
      },
      "transferInvestment(uint256,uint256,uint256,uint256)": {
        "notice": "Transfer all assets from a tranche in one vault to a new vault (works on-chain only)"
      },
      "updatePool(uint256)": {
        "notice": "Update reward variables of the given pool to be up-to-date."
      },
      "withdraw(uint256,uint256,bool)": {
        "notice": "Fully withdraw Want tokens from underlying Vault."
      },
      "withdrawAll(uint256)": {
        "notice": "Withdraw the maximum number of Want tokens from a pool"
      },
      "withdrawalFullService(uint256,uint256,bool,uint256)": {
        "notice": "Withdraws funds from a pool and converts the Want token into USD"
      },
      "withdrawalFullServiceFromXChain(address,bytes,uint256,uint256,bool,uint256)": {
        "notice": "Full service withdrawal to be called from authorized cross chain endpoint"
      }
    },
    "version": 1
  }
}