{
  "contractName": "MockInvestmentVault1",
  "abi": [
    {
      "anonymous": false,
      "inputs": [
        {
          "indexed": true,
          "internalType": "uint256",
          "name": "_amount",
          "type": "uint256"
        }
      ],
      "name": "Buyback",
      "type": "event"
    },
    {
      "anonymous": false,
      "inputs": [
        {
          "indexed": true,
          "internalType": "uint256",
          "name": "_wantAmt",
          "type": "uint256"
        }
      ],
      "name": "DepositedWant",
      "type": "event"
    },
    {
      "anonymous": false,
      "inputs": [
        {
          "indexed": true,
          "internalType": "uint256",
          "name": "_amountUSD",
          "type": "uint256"
        },
        {
          "indexed": true,
          "internalType": "uint256",
          "name": "_amountWant",
          "type": "uint256"
        }
      ],
      "name": "ExchangedUSDForWant",
      "type": "event"
    },
    {
      "anonymous": false,
      "inputs": [
        {
          "indexed": true,
          "internalType": "uint256",
          "name": "_amountWant",
          "type": "uint256"
        },
        {
          "indexed": true,
          "internalType": "uint256",
          "name": "_amountUSD",
          "type": "uint256"
        }
      ],
      "name": "ExchangedWantForUSD",
      "type": "event"
    },
    {
      "anonymous": false,
      "inputs": [
        {
          "indexed": true,
          "internalType": "address",
          "name": "previousOwner",
          "type": "address"
        },
        {
          "indexed": true,
          "internalType": "address",
          "name": "newOwner",
          "type": "address"
        }
      ],
      "name": "OwnershipTransferred",
      "type": "event"
    },
    {
      "anonymous": false,
      "inputs": [
        {
          "indexed": false,
          "internalType": "address",
          "name": "account",
          "type": "address"
        }
      ],
      "name": "Paused",
      "type": "event"
    },
    {
      "anonymous": false,
      "inputs": [
        {
          "indexed": true,
          "internalType": "uint256",
          "name": "_amount",
          "type": "uint256"
        }
      ],
      "name": "RevShare",
      "type": "event"
    },
    {
      "anonymous": false,
      "inputs": [
        {
          "indexed": false,
          "internalType": "address",
          "name": "_govAddress",
          "type": "address"
        }
      ],
      "name": "SetGov",
      "type": "event"
    },
    {
      "anonymous": false,
      "inputs": [
        {
          "indexed": false,
          "internalType": "bool",
          "name": "_onlyGov",
          "type": "bool"
        }
      ],
      "name": "SetOnlyGov",
      "type": "event"
    },
    {
      "anonymous": false,
      "inputs": [
        {
          "indexed": false,
          "internalType": "address",
          "name": "_rewardsAddress",
          "type": "address"
        }
      ],
      "name": "SetRewardsAddress",
      "type": "event"
    },
    {
      "anonymous": false,
      "inputs": [
        {
          "indexed": false,
          "internalType": "uint256",
          "name": "_entranceFeeFactor",
          "type": "uint256"
        },
        {
          "indexed": false,
          "internalType": "uint256",
          "name": "_withdrawFeeFactor",
          "type": "uint256"
        },
        {
          "indexed": false,
          "internalType": "uint256",
          "name": "_controllerFee",
          "type": "uint256"
        },
        {
          "indexed": false,
          "internalType": "uint256",
          "name": "_buyBackRate",
          "type": "uint256"
        },
        {
          "indexed": false,
          "internalType": "uint256",
          "name": "_revShareRate",
          "type": "uint256"
        }
      ],
      "name": "SetSettings",
      "type": "event"
    },
    {
      "anonymous": false,
      "inputs": [
        {
          "indexed": false,
          "internalType": "address",
          "name": "_uniRouterAddress",
          "type": "address"
        }
      ],
      "name": "SetUniRouterAddress",
      "type": "event"
    },
    {
      "anonymous": false,
      "inputs": [
        {
          "indexed": false,
          "internalType": "address",
          "name": "account",
          "type": "address"
        }
      ],
      "name": "Unpaused",
      "type": "event"
    },
    {
      "anonymous": false,
      "inputs": [
        {
          "indexed": true,
          "internalType": "uint256",
          "name": "_wantAmt",
          "type": "uint256"
        }
      ],
      "name": "WithdrewWant",
      "type": "event"
    },
    {
      "inputs": [],
      "name": "ZORROAddress",
      "outputs": [
        {
          "internalType": "address",
          "name": "",
          "type": "address"
        }
      ],
      "stateMutability": "view",
      "type": "function"
    },
    {
      "inputs": [],
      "name": "burnAddress",
      "outputs": [
        {
          "internalType": "address",
          "name": "",
          "type": "address"
        }
      ],
      "stateMutability": "view",
      "type": "function"
    },
    {
      "inputs": [],
      "name": "buyBackRate",
      "outputs": [
        {
          "internalType": "uint256",
          "name": "",
          "type": "uint256"
        }
      ],
      "stateMutability": "view",
      "type": "function"
    },
    {
      "inputs": [],
      "name": "buyBackRateUL",
      "outputs": [
        {
          "internalType": "uint256",
          "name": "",
          "type": "uint256"
        }
      ],
      "stateMutability": "view",
      "type": "function"
    },
    {
      "inputs": [],
      "name": "controllerFee",
      "outputs": [
        {
          "internalType": "uint256",
          "name": "",
          "type": "uint256"
        }
      ],
      "stateMutability": "view",
      "type": "function"
    },
    {
      "inputs": [],
      "name": "controllerFeeUL",
      "outputs": [
        {
          "internalType": "uint256",
          "name": "",
          "type": "uint256"
        }
      ],
      "stateMutability": "view",
      "type": "function"
    },
    {
      "inputs": [],
      "name": "defaultStablecoin",
      "outputs": [
        {
          "internalType": "address",
          "name": "",
          "type": "address"
        }
      ],
      "stateMutability": "view",
      "type": "function"
    },
    {
      "inputs": [
        {
          "internalType": "uint256",
          "name": "_wantAmt",
          "type": "uint256"
        }
      ],
      "name": "depositWantToken",
      "outputs": [
        {
          "internalType": "uint256",
          "name": "sharesAdded",
          "type": "uint256"
        }
      ],
      "stateMutability": "nonpayable",
      "type": "function"
    },
    {
      "inputs": [
        {
          "internalType": "uint256",
          "name": "_maxMarketMovementAllowed",
          "type": "uint256"
        }
      ],
      "name": "earn",
      "outputs": [],
      "stateMutability": "nonpayable",
      "type": "function"
    },
    {
      "inputs": [],
      "name": "earnedAddress",
      "outputs": [
        {
          "internalType": "address",
          "name": "",
          "type": "address"
        }
      ],
      "stateMutability": "view",
      "type": "function"
    },
    {
      "inputs": [],
      "name": "entranceFeeFactor",
      "outputs": [
        {
          "internalType": "uint256",
          "name": "",
          "type": "uint256"
        }
      ],
      "stateMutability": "view",
      "type": "function"
    },
    {
      "inputs": [],
      "name": "entranceFeeFactorLL",
      "outputs": [
        {
          "internalType": "uint256",
          "name": "",
          "type": "uint256"
        }
      ],
      "stateMutability": "view",
      "type": "function"
    },
    {
      "inputs": [
        {
          "internalType": "uint256",
          "name": "_amountUSD",
          "type": "uint256"
        },
        {
          "internalType": "uint256",
          "name": "_maxMarketMovementAllowed",
          "type": "uint256"
        }
      ],
      "name": "exchangeUSDForWantToken",
      "outputs": [
        {
          "internalType": "uint256",
          "name": "",
          "type": "uint256"
        }
      ],
      "stateMutability": "nonpayable",
      "type": "function"
    },
    {
      "inputs": [
        {
          "internalType": "uint256",
          "name": "_amount",
          "type": "uint256"
        },
        {
          "internalType": "uint256",
          "name": "_maxMarketMovementAllowed",
          "type": "uint256"
        }
      ],
      "name": "exchangeWantTokenForUSD",
      "outputs": [
        {
          "internalType": "uint256",
          "name": "",
          "type": "uint256"
        }
      ],
      "stateMutability": "nonpayable",
      "type": "function"
    },
    {
      "inputs": [],
      "name": "farm",
      "outputs": [],
      "stateMutability": "nonpayable",
      "type": "function"
    },
    {
      "inputs": [],
      "name": "farmContractAddress",
      "outputs": [
        {
          "internalType": "address",
          "name": "",
          "type": "address"
        }
      ],
      "stateMutability": "view",
      "type": "function"
    },
    {
      "inputs": [],
      "name": "feeDenominator",
      "outputs": [
        {
          "internalType": "uint256",
          "name": "",
          "type": "uint256"
        }
      ],
      "stateMutability": "view",
      "type": "function"
    },
    {
      "inputs": [],
      "name": "govAddress",
      "outputs": [
        {
          "internalType": "address",
          "name": "",
          "type": "address"
        }
      ],
      "stateMutability": "view",
      "type": "function"
    },
    {
      "inputs": [
        {
          "internalType": "address",
          "name": "_token",
          "type": "address"
        },
        {
          "internalType": "uint256",
          "name": "_amount",
          "type": "uint256"
        },
        {
          "internalType": "address",
          "name": "_to",
          "type": "address"
        }
      ],
      "name": "inCaseTokensGetStuck",
      "outputs": [],
      "stateMutability": "nonpayable",
      "type": "function"
    },
    {
      "inputs": [
        {
          "internalType": "address",
          "name": "_timelockOwner",
          "type": "address"
        },
        {
          "components": [
            {
              "components": [
                {
                  "internalType": "uint256",
                  "name": "pid",
                  "type": "uint256"
                },
                {
                  "internalType": "bool",
                  "name": "isHomeChain",
                  "type": "bool"
                },
                {
                  "internalType": "bool",
                  "name": "isFarmable",
                  "type": "bool"
                }
              ],
              "internalType": "struct IVault.VaultConfig",
              "name": "config",
              "type": "tuple"
            },
            {
              "components": [
                {
                  "internalType": "address",
                  "name": "govAddress",
                  "type": "address"
                },
                {
                  "internalType": "address",
                  "name": "zorroControllerAddress",
                  "type": "address"
                },
                {
                  "internalType": "address",
                  "name": "zorroXChainController",
                  "type": "address"
                },
                {
                  "internalType": "address",
                  "name": "ZORROAddress",
                  "type": "address"
                },
                {
                  "internalType": "address",
                  "name": "zorroStakingVault",
                  "type": "address"
                },
                {
                  "internalType": "address",
                  "name": "wantAddress",
                  "type": "address"
                },
                {
                  "internalType": "address",
                  "name": "token0Address",
                  "type": "address"
                },
                {
                  "internalType": "address",
                  "name": "token1Address",
                  "type": "address"
                },
                {
                  "internalType": "address",
                  "name": "earnedAddress",
                  "type": "address"
                },
                {
                  "internalType": "address",
                  "name": "farmContractAddress",
                  "type": "address"
                },
                {
                  "internalType": "address",
                  "name": "rewardsAddress",
                  "type": "address"
                },
                {
                  "internalType": "address",
                  "name": "poolAddress",
                  "type": "address"
                },
                {
                  "internalType": "address",
                  "name": "uniRouterAddress",
                  "type": "address"
                },
                {
                  "internalType": "address",
                  "name": "zorroLPPool",
                  "type": "address"
                },
                {
                  "internalType": "address",
                  "name": "zorroLPPoolOtherToken",
                  "type": "address"
                },
                {
                  "internalType": "address",
                  "name": "defaultStablecoin",
                  "type": "address"
                }
              ],
              "internalType": "struct IVault.VaultAddresses",
              "name": "keyAddresses",
              "type": "tuple"
            },
            {
              "components": [
                {
                  "internalType": "address[]",
                  "name": "earnedToZORROPath",
                  "type": "address[]"
                },
                {
                  "internalType": "address[]",
                  "name": "earnedToToken0Path",
                  "type": "address[]"
                },
                {
                  "internalType": "address[]",
                  "name": "earnedToToken1Path",
                  "type": "address[]"
                },
                {
                  "internalType": "address[]",
                  "name": "stablecoinToToken0Path",
                  "type": "address[]"
                },
                {
                  "internalType": "address[]",
                  "name": "stablecoinToToken1Path",
                  "type": "address[]"
                },
                {
                  "internalType": "address[]",
                  "name": "earnedToZORLPPoolOtherTokenPath",
                  "type": "address[]"
                },
                {
                  "internalType": "address[]",
                  "name": "earnedToStablecoinPath",
                  "type": "address[]"
                },
                {
                  "internalType": "address[]",
                  "name": "stablecoinToZORROPath",
                  "type": "address[]"
                },
                {
                  "internalType": "address[]",
                  "name": "stablecoinToLPPoolOtherTokenPath",
                  "type": "address[]"
                }
              ],
              "internalType": "struct IVault.VaultSwapPaths",
              "name": "swapPaths",
              "type": "tuple"
            },
            {
              "components": [
                {
                  "internalType": "uint256",
                  "name": "controllerFee",
                  "type": "uint256"
                },
                {
                  "internalType": "uint256",
                  "name": "buyBackRate",
                  "type": "uint256"
                },
                {
                  "internalType": "uint256",
                  "name": "revShareRate",
                  "type": "uint256"
                },
                {
                  "internalType": "uint256",
                  "name": "entranceFeeFactor",
                  "type": "uint256"
                },
                {
                  "internalType": "uint256",
                  "name": "withdrawFeeFactor",
                  "type": "uint256"
                }
              ],
              "internalType": "struct IVault.VaultFees",
              "name": "fees",
              "type": "tuple"
            },
            {
              "components": [
                {
                  "internalType": "address",
                  "name": "token0PriceFeed",
                  "type": "address"
                },
                {
                  "internalType": "address",
                  "name": "token1PriceFeed",
                  "type": "address"
                },
                {
                  "internalType": "address",
                  "name": "earnTokenPriceFeed",
                  "type": "address"
                },
                {
                  "internalType": "address",
                  "name": "ZORPriceFeed",
                  "type": "address"
                },
                {
                  "internalType": "address",
                  "name": "lpPoolOtherTokenPriceFeed",
                  "type": "address"
                },
                {
                  "internalType": "address",
                  "name": "stablecoinPriceFeed",
                  "type": "address"
                }
              ],
              "internalType": "struct IVault.VaultPriceFeeds",
              "name": "priceFeeds",
              "type": "tuple"
            }
          ],
          "internalType": "struct IVault.VaultBaseInit",
          "name": "_initValue",
          "type": "tuple"
        }
      ],
      "name": "initialize",
      "outputs": [],
      "stateMutability": "nonpayable",
      "type": "function"
    },
    {
      "inputs": [],
      "name": "isFarmable",
      "outputs": [
        {
          "internalType": "bool",
          "name": "",
          "type": "bool"
        }
      ],
      "stateMutability": "view",
      "type": "function"
    },
    {
      "inputs": [],
      "name": "isHomeChain",
      "outputs": [
        {
          "internalType": "bool",
          "name": "",
          "type": "bool"
        }
      ],
      "stateMutability": "view",
      "type": "function"
    },
    {
      "inputs": [],
      "name": "lastEarnBlock",
      "outputs": [
        {
          "internalType": "uint256",
          "name": "",
          "type": "uint256"
        }
      ],
      "stateMutability": "view",
      "type": "function"
    },
    {
      "inputs": [],
      "name": "maxMarketMovementAllowed",
      "outputs": [
        {
          "internalType": "uint256",
          "name": "",
          "type": "uint256"
        }
      ],
      "stateMutability": "view",
      "type": "function"
    },
    {
      "inputs": [],
      "name": "onlyGov",
      "outputs": [
        {
          "internalType": "bool",
          "name": "",
          "type": "bool"
        }
      ],
      "stateMutability": "view",
      "type": "function"
    },
    {
      "inputs": [],
      "name": "owner",
      "outputs": [
        {
          "internalType": "address",
          "name": "",
          "type": "address"
        }
      ],
      "stateMutability": "view",
      "type": "function"
    },
    {
      "inputs": [],
      "name": "pause",
      "outputs": [],
      "stateMutability": "nonpayable",
      "type": "function"
    },
    {
      "inputs": [],
      "name": "paused",
      "outputs": [
        {
          "internalType": "bool",
          "name": "",
          "type": "bool"
        }
      ],
      "stateMutability": "view",
      "type": "function"
    },
    {
      "inputs": [],
      "name": "pid",
      "outputs": [
        {
          "internalType": "uint256",
          "name": "",
          "type": "uint256"
        }
      ],
      "stateMutability": "view",
      "type": "function"
    },
    {
      "inputs": [],
      "name": "poolAddress",
      "outputs": [
        {
          "internalType": "address",
          "name": "",
          "type": "address"
        }
      ],
      "stateMutability": "view",
      "type": "function"
    },
    {
      "inputs": [
        {
          "internalType": "address",
          "name": "",
          "type": "address"
        }
      ],
      "name": "priceFeeds",
      "outputs": [
        {
          "internalType": "contract AggregatorV3Interface",
          "name": "",
          "type": "address"
        }
      ],
      "stateMutability": "view",
      "type": "function"
    },
    {
      "inputs": [],
      "name": "renounceOwnership",
      "outputs": [],
      "stateMutability": "nonpayable",
      "type": "function"
    },
    {
      "inputs": [],
      "name": "revShareRate",
      "outputs": [
        {
          "internalType": "uint256",
          "name": "",
          "type": "uint256"
        }
      ],
      "stateMutability": "view",
      "type": "function"
    },
    {
      "inputs": [],
      "name": "revShareRateUL",
      "outputs": [
        {
          "internalType": "uint256",
          "name": "",
          "type": "uint256"
        }
      ],
      "stateMutability": "view",
      "type": "function"
    },
    {
      "inputs": [],
      "name": "rewardsAddress",
      "outputs": [
        {
          "internalType": "address",
          "name": "",
          "type": "address"
        }
      ],
      "stateMutability": "view",
      "type": "function"
    },
    {
      "inputs": [
        {
          "internalType": "uint16",
          "name": "_index",
          "type": "uint16"
        },
        {
          "internalType": "address",
          "name": "_addr",
          "type": "address"
        }
      ],
      "name": "setContractAddress",
      "outputs": [],
      "stateMutability": "nonpayable",
      "type": "function"
    },
    {
      "inputs": [
        {
          "internalType": "uint256",
          "name": "_entranceFeeFactor",
          "type": "uint256"
        },
        {
          "internalType": "uint256",
          "name": "_withdrawFeeFactor",
          "type": "uint256"
        },
        {
          "internalType": "uint256",
          "name": "_controllerFee",
          "type": "uint256"
        },
        {
          "internalType": "uint256",
          "name": "_buyBackRate",
          "type": "uint256"
        },
        {
          "internalType": "uint256",
          "name": "_revShareRate",
          "type": "uint256"
        }
      ],
      "name": "setFeeSettings",
      "outputs": [],
      "stateMutability": "nonpayable",
      "type": "function"
    },
    {
      "inputs": [
        {
          "internalType": "address",
          "name": "_govAddress",
          "type": "address"
        }
      ],
      "name": "setGov",
      "outputs": [],
      "stateMutability": "nonpayable",
      "type": "function"
    },
    {
      "inputs": [
        {
          "internalType": "bool",
          "name": "_isFarmable",
          "type": "bool"
        }
      ],
      "name": "setIsFarmable",
      "outputs": [],
      "stateMutability": "nonpayable",
      "type": "function"
    },
    {
      "inputs": [
        {
          "internalType": "uint256",
          "name": "_slippageNumerator",
          "type": "uint256"
        }
      ],
      "name": "setMaxMarketMovementAllowed",
      "outputs": [],
      "stateMutability": "nonpayable",
      "type": "function"
    },
    {
      "inputs": [
        {
          "internalType": "bool",
          "name": "_onlyGov",
          "type": "bool"
        }
      ],
      "name": "setOnlyGov",
      "outputs": [],
      "stateMutability": "nonpayable",
      "type": "function"
    },
    {
      "inputs": [
        {
          "internalType": "uint256",
          "name": "_pid",
          "type": "uint256"
        }
      ],
      "name": "setPid",
      "outputs": [],
      "stateMutability": "nonpayable",
      "type": "function"
    },
    {
      "inputs": [
        {
          "internalType": "address",
          "name": "_token",
          "type": "address"
        },
        {
          "internalType": "address",
          "name": "_priceFeedAddress",
          "type": "address"
        }
      ],
      "name": "setPriceFeed",
      "outputs": [],
      "stateMutability": "nonpayable",
      "type": "function"
    },
    {
      "inputs": [
        {
          "internalType": "address[]",
          "name": "_path",
          "type": "address[]"
        }
      ],
      "name": "setSwapPaths",
      "outputs": [],
      "stateMutability": "nonpayable",
      "type": "function"
    },
    {
      "inputs": [],
      "name": "sharesTotal",
      "outputs": [
        {
          "internalType": "uint256",
          "name": "",
          "type": "uint256"
        }
      ],
      "stateMutability": "view",
      "type": "function"
    },
    {
      "inputs": [
        {
          "internalType": "address",
          "name": "",
          "type": "address"
        },
        {
          "internalType": "address",
          "name": "",
          "type": "address"
        }
      ],
      "name": "swapPathLength",
      "outputs": [
        {
          "internalType": "uint16",
          "name": "",
          "type": "uint16"
        }
      ],
      "stateMutability": "view",
      "type": "function"
    },
    {
      "inputs": [
        {
          "internalType": "address",
          "name": "",
          "type": "address"
        },
        {
          "internalType": "address",
          "name": "",
          "type": "address"
        },
        {
          "internalType": "uint256",
          "name": "",
          "type": "uint256"
        }
      ],
      "name": "swapPaths",
      "outputs": [
        {
          "internalType": "address",
          "name": "",
          "type": "address"
        }
      ],
      "stateMutability": "view",
      "type": "function"
    },
    {
      "inputs": [],
      "name": "token0Address",
      "outputs": [
        {
          "internalType": "address",
          "name": "",
          "type": "address"
        }
      ],
      "stateMutability": "view",
      "type": "function"
    },
    {
      "inputs": [],
      "name": "token1Address",
      "outputs": [
        {
          "internalType": "address",
          "name": "",
          "type": "address"
        }
      ],
      "stateMutability": "view",
      "type": "function"
    },
    {
      "inputs": [
        {
          "internalType": "address",
          "name": "newOwner",
          "type": "address"
        }
      ],
      "name": "transferOwnership",
      "outputs": [],
      "stateMutability": "nonpayable",
      "type": "function"
    },
    {
      "inputs": [],
      "name": "unpause",
      "outputs": [],
      "stateMutability": "nonpayable",
      "type": "function"
    },
    {
      "inputs": [],
      "name": "vaultActions",
      "outputs": [
        {
          "internalType": "address",
          "name": "",
          "type": "address"
        }
      ],
      "stateMutability": "view",
      "type": "function"
    },
    {
      "inputs": [],
      "name": "wantAddress",
      "outputs": [
        {
          "internalType": "address",
          "name": "",
          "type": "address"
        }
      ],
      "stateMutability": "view",
      "type": "function"
    },
    {
      "inputs": [],
      "name": "wantLockedTotal",
      "outputs": [
        {
          "internalType": "uint256",
          "name": "",
          "type": "uint256"
        }
      ],
      "stateMutability": "view",
      "type": "function"
    },
    {
      "inputs": [],
      "name": "withdrawFeeFactor",
      "outputs": [
        {
          "internalType": "uint256",
          "name": "",
          "type": "uint256"
        }
      ],
      "stateMutability": "view",
      "type": "function"
    },
    {
      "inputs": [],
      "name": "withdrawFeeFactorLL",
      "outputs": [
        {
          "internalType": "uint256",
          "name": "",
          "type": "uint256"
        }
      ],
      "stateMutability": "view",
      "type": "function"
    },
    {
      "inputs": [
        {
          "internalType": "uint256",
          "name": "_wantAmt",
          "type": "uint256"
        }
      ],
      "name": "withdrawWantToken",
      "outputs": [
        {
          "internalType": "uint256",
          "name": "sharesRemoved",
          "type": "uint256"
        }
      ],
      "stateMutability": "nonpayable",
      "type": "function"
    },
    {
      "inputs": [],
      "name": "zorroControllerAddress",
      "outputs": [
        {
          "internalType": "address",
          "name": "",
          "type": "address"
        }
      ],
      "stateMutability": "view",
      "type": "function"
    },
    {
      "inputs": [],
      "name": "zorroLPPool",
      "outputs": [
        {
          "internalType": "address",
          "name": "",
          "type": "address"
        }
      ],
      "stateMutability": "view",
      "type": "function"
    },
    {
      "inputs": [],
      "name": "zorroLPPoolOtherToken",
      "outputs": [
        {
          "internalType": "address",
          "name": "",
          "type": "address"
        }
      ],
      "stateMutability": "view",
      "type": "function"
    },
    {
      "inputs": [],
      "name": "zorroStakingVault",
      "outputs": [
        {
          "internalType": "address",
          "name": "",
          "type": "address"
        }
      ],
      "stateMutability": "view",
      "type": "function"
    },
    {
      "inputs": [],
      "name": "zorroXChainController",
      "outputs": [
        {
          "internalType": "address",
          "name": "",
          "type": "address"
        }
      ],
      "stateMutability": "view",
      "type": "function"
    }
  ],
  "bytecode": "0x608060405234801561001057600080fd5b5061311f806100206000396000f3fe608060405234801561001057600080fd5b50600436106103d7576000357c010000000000000000000000000000000000000000000000000000000090048063715018a611610211578063b3545c0111610137578063e7198474116100ca578063f05c09b311610099578063f05c09b3146107cd578063f1068454146107da578063f2fde38b146107e3578063f5046a29146107f657600080fd5b8063e719847414610787578063e7a036791461079a578063ebfba7c4146107ad578063edf5e585146107c057600080fd5b8063cfad57a211610106578063cfad57a21461073d578063d7cb416f14610750578063e502a88d14610763578063e65a01171461077657600080fd5b8063b3545c01146103dc578063b61bb80a14610717578063c0973eed1461072a578063c302a4d01461068857600080fd5b806385f02dd6116101af5780639dcb511a1161017e5780639dcb511a146106b55780639fc33a9f146106de578063a4d2b083146106f1578063b1414dbb1461070457600080fd5b806385f02dd61461067f578063866b2018146106885780638da5cb5b1461069157806393efb7e4146106a257600080fd5b80637bf604d8116101eb5780637bf604d81461063e5780637ff36fbe1461065157806383f01939146106645780638456cb591461067757600080fd5b8063715018a6146106105780637153ef861461061857806376e112861461062b57600080fd5b8063320d47cc116103015780635c975abb1161029457806367206d401161026357806367206d40146105ce578063677379e5146105e157806368f54162146105f457806370d5ae05146105fd57600080fd5b80635c975abb1461058a5780635e835270146105955780635fc77d43146105a8578063648794a4146105bb57600080fd5b806342da4eb3116102d057806342da4eb31461054d57806344a3955e1461055657806346008a071461055f57806355ebedec1461057757600080fd5b8063320d47cc146105295780633214471f1461053c57806336e9332d146104145780633f4ba83a1461054557600080fd5b80631334903f116103795780631b0d8aab116103485780631b0d8aab146104c1578063211019d7146103dc5780632209b59e146104d45780632337b0b1146104e757600080fd5b80631334903f1461047b5780631755ff2114610484578063178a8d07146104af578063180b0d7e146104b857600080fd5b80630b6bb30b116103b55780630b6bb30b146104165780630daef321146104295780630fa4e01e1461045f57806312bc4b9b1461046857600080fd5b8063061c7d48146103dc5780630761a172146103f857806307df604714610401575b600080fd5b6103e561138881565b6040519081526020015b60405180910390f35b6103e560e75481565b61041461040f36600461258b565b610809565b005b6104146104243660046125d9565b610b1e565b60cb5461044f907501000000000000000000000000000000000000000000900460ff1681565b60405190151581526020016103ef565b6103e560e15481565b610414610476366004612769565b610bcc565b6103e560df5481565b60d95461049790600160a060020a031681565b604051600160a060020a0390911681526020016103ef565b6103e560dd5481565b6103e561271081565b6104146104cf36600461279e565b610c02565b6103e56104e236600461279e565b610c34565b6105166104f53660046127b7565b60e560209081526000928352604080842090915290825290205461ffff1681565b60405161ffff90911681526020016103ef565b61041461053736600461279e565b610d61565b6103e560de5481565b610414610d95565b6103e560e25481565b6103e560e35481565b60cb54610497906101009004600160a060020a031681565b6103e561058536600461279e565b610dcf565b60975460ff1661044f565b6104976105a33660046127d5565b61101f565b60cd5461049790600160a060020a031681565b6103e56105c9366004612816565b611064565b6104146105dc366004612838565b6111c7565b60d05461049790600160a060020a031681565b6103e560e05481565b60d75461049790600160a060020a031681565b6104146112d4565b61041461062636600461287a565b61130b565b6104146106393660046127b7565b6115ff565b60da5461049790600160a060020a031681565b60d25461049790600160a060020a031681565b6104146106723660046125d9565b611636565b610414611676565b6103e560dc5481565b6103e561232881565b603354600160a060020a0316610497565b6104146106b0366004612c5c565b6116b0565b6104976106c3366004612d66565b60e660205260009081526040902054600160a060020a031681565b60d55461049790600160a060020a031681565b60cf5461049790600160a060020a031681565b60cc5461049790600160a060020a031681565b60d65461049790600160a060020a031681565b60d85461049790600160a060020a031681565b61041461074b366004612d66565b611be3565b60d35461049790600160a060020a031681565b6103e5610771366004612816565b611c78565b61041461078436600461279e565b50565b60d45461049790600160a060020a031681565b60d15461049790600160a060020a031681565b60db5461049790600160a060020a031681565b60c95461044f9060ff1681565b60cb5461044f9060ff1681565b6103e560ca5481565b6104146107f1366004612d66565b611df8565b60ce5461049790600160a060020a031681565b603354600160a060020a0316331461083f5760405160e560020a62461bcd02815260040161083690612d83565b60405180910390fd5b61ffff82166108675760d28054600160a060020a031916600160a060020a0383161790555050565b8161ffff16600114156108935760d38054600160a060020a031916600160a060020a0383161790555050565b8161ffff16600214156108bf5760d68054600160a060020a031916600160a060020a0383161790555050565b8161ffff16600314156108eb5760ce8054600160a060020a031916600160a060020a0383161790555050565b8161ffff16600414156109175760d18054600160a060020a031916600160a060020a0383161790555050565b8161ffff16600514156109435760d98054600160a060020a031916600160a060020a0383161790555050565b8161ffff166006141561096f5760d48054600160a060020a031916600160a060020a0383161790555050565b8161ffff166007141561099b5760d58054600160a060020a031916600160a060020a0383161790555050565b8161ffff16600814156109c75760d88054600160a060020a031916600160a060020a0383161790555050565b8161ffff16600914156109f35760d78054600160a060020a031916600160a060020a0383161790555050565b8161ffff16600a1415610a1f5760da8054600160a060020a031916600160a060020a0383161790555050565b8161ffff16600b1415610a4b5760db8054600160a060020a031916600160a060020a0383161790555050565b8161ffff16600c1415610a775760cc8054600160a060020a031916600160a060020a0383161790555050565b8161ffff16600d1415610aa35760cd8054600160a060020a031916600160a060020a0383161790555050565b8161ffff16600e1415610acf5760cf8054600160a060020a031916600160a060020a0383161790555050565b60405160e560020a62461bcd02815260206004820152601160248201527f757265636f67436f6e74726163744964780000000000000000000000000000006044820152606401610836565b5050565b60cb546101009004600160a060020a03163314610b505760405160e560020a62461bcd02815260040161083690612db8565b60cb805482151575010000000000000000000000000000000000000000000275ff000000000000000000000000000000000000000000199091161790556040517f125177ac7b8930dac1e59c2b30b1b6b9191b30af40cf6bbb5d20fec4d44be60f90610bc190831515815260200190565b60405180910390a150565b603354600160a060020a03163314610bf95760405160e560020a62461bcd02815260040161083690612d83565b61078481611ead565b603354600160a060020a03163314610c2f5760405160e560020a62461bcd02815260040161083690612d83565b60ca55565b60cc54600090600160a060020a031633600160a060020a031614610c6d5760405160e560020a62461bcd02815260040161083690612def565b60026065541415610cc35760405160e560020a62461bcd02815260206004820152601f60248201527f5265656e7472616e637947756172643a207265656e7472616e742063616c6c006044820152606401610836565b600260655560975460ff1615610cee5760405160e560020a62461bcd02815260040161083690612e26565b60d75460d154610d0d91600160a060020a039182169133911685611f70565b60e354610d1a9083612027565b60e35560e254610d2a9083612027565b60e25560405182907fed8a5d040a303ca26fe1ff3b89300b41889113eee6fbc208be0fbbecdcb97d6490600090a250600160655590565b603354600160a060020a03163314610d8e5760405160e560020a62461bcd02815260040161083690612d83565b60e755565b565b60cb546101009004600160a060020a03163314610dc75760405160e560020a62461bcd02815260040161083690612db8565b610d9361203a565b60cc54600090600160a060020a031633600160a060020a031614610e085760405160e560020a62461bcd02815260040161083690612def565b60026065541415610e5e5760405160e560020a62461bcd02815260206004820152601f60248201527f5265656e7472616e637947756172643a207265656e7472616e742063616c6c006044820152606401610836565b600260655560975460ff1615610e895760405160e560020a62461bcd02815260040161083690612e26565b60008211610edc5760405160e560020a62461bcd02815260206004820152600760248201527f6e656757616e74000000000000000000000000000000000000000000000000006044820152606401610836565b60e25460e354610eec9084612e76565b610ef69190612e95565b905060e354811115610f07575060e3545b8060e354610f159190612eba565b60e35560e0546127101115610f425761271060e05483610f359190612e76565b610f3f9190612e95565b91505b60d1546040517f70a08231000000000000000000000000000000000000000000000000000000008152306004820152600091600160a060020a0316906370a0823190602401602060405180830381865afa158015610fa4573d6000803e3d6000fd5b505050506040513d601f19601f82011682018060405250810190610fc89190612ed1565b905080831115610fd6578092505b8260e2541015610fe65760e25492505b8260e254610ff49190612eba565b60e25560cc5460d15461101491600160a060020a039182169116856120d9565b506001606555919050565b60e4602052826000526040600020602052816000526040600020818154811061104757600080fd5b600091825260209091200154600160a060020a0316925083915050565b60cc54600090600160a060020a031633600160a060020a03161461109d5760405160e560020a62461bcd02815260040161083690612def565b60975460ff16156110c35760405160e560020a62461bcd02815260040161083690612e26565b600082116111165760405160e560020a62461bcd02815260206004820152601d60248201527f63616e6e6f74206861766520696e66696e69746520736c6970706167650000006044820152606401610836565b60d6546040517f40c10f1900000000000000000000000000000000000000000000000000000000815233600482015260248101859052600160a060020a03909116906340c10f1990604401600060405180830381600087803b15801561117b57600080fd5b505af115801561118f573d6000803e3d6000fd5b50506040518592508291507f6d747e44316ecb7671eae6611ae63f103a7b25c9b0eec542ca87afe327530f7990600090a35090919050565b60cb546101009004600160a060020a031633146111f95760405160e560020a62461bcd02815260040161083690612db8565b60d454600160a060020a038481169116141561125a5760405160e560020a62461bcd02815260206004820152600560248201527f21736166650000000000000000000000000000000000000000000000000000006044820152606401610836565b60d154600160a060020a03848116911614156112bb5760405160e560020a62461bcd02815260206004820152600560248201527f21736166650000000000000000000000000000000000000000000000000000006044820152606401610836565b6112cf600160a060020a03841682846120d9565b505050565b603354600160a060020a031633146113015760405160e560020a62461bcd02815260040161083690612d83565b610d936000612122565b60cb546101009004600160a060020a0316331461133d5760405160e560020a62461bcd02815260040161083690612db8565b6123288510156113925760405160e560020a62461bcd02815260206004820152601a60248201527f5f656e7472616e6365466565466163746f7220746f6f206c6f770000000000006044820152606401610836565b6127108511156113e75760405160e560020a62461bcd02815260206004820152601b60248201527f5f656e7472616e6365466565466163746f7220746f6f206869676800000000006044820152606401610836565b60df8590556123288410156114415760405160e560020a62461bcd02815260206004820152601a60248201527f5f7769746864726177466565466163746f7220746f6f206c6f770000000000006044820152606401610836565b6127108411156114965760405160e560020a62461bcd02815260206004820152601b60248201527f5f7769746864726177466565466163746f7220746f6f206869676800000000006044820152606401610836565b60e08490556113888311156114f05760405160e560020a62461bcd02815260206004820152601760248201527f5f636f6e74726f6c6c657246656520746f6f20686967680000000000000000006044820152606401610836565b60dc83905561138882111561154a5760405160e560020a62461bcd02815260206004820152601560248201527f5f6275794261636b5261746520746f6f206869676800000000000000000000006044820152606401610836565b60dd8290556113888111156115a45760405160e560020a62461bcd02815260206004820152601660248201527f5f72657653686172655261746520746f6f2068696768000000000000000000006044820152606401610836565b60de819055604080518681526020810186905290810184905260608101839052608081018290527fc67e0b149a57a70fa44a531a46c2c6d8e0b242fa12f459f250012c3a5987d29a9060a00160405180910390a15050505050565b603354600160a060020a0316331461162c5760405160e560020a62461bcd02815260040161083690612d83565b610b1a8282612174565b603354600160a060020a031633146116635760405160e560020a62461bcd02815260040161083690612d83565b60cb805460ff1916911515919091179055565b60cb546101009004600160a060020a031633146116a85760405160e560020a62461bcd02815260040161083690612db8565b610d936121a2565b600054610100900460ff166116cb5760005460ff16156116cf565b303b155b6117445760405160e560020a62461bcd02815260206004820152602e60248201527f496e697469616c697a61626c653a20636f6e747261637420697320616c72656160448201527f647920696e697469616c697a65640000000000000000000000000000000000006064820152608401610836565b600054610100900460ff16158015611766576000805461ffff19166101011790555b61176e6121fd565b61177783611df8565b8151805160ca5560208082015160c9805460ff191691151591909117905560409182015160cb8054838701518051750100000000000000000000000000000000000000000074ffffffffffffffffffffffffffffffffffffffffff1990931694151574ffffffffffffffffffffffffffffffffffffffff00191694909417610100600160a060020a0395861681029190911775ff0000000000000000000000000000000000000000001916929092179092558184015160cc8054600160a060020a03199081169286169290921790558286015160cd8054831691861691909117905560608084015160ce8054841691871691909117905560808085015160cf8054851691881691909117905560a085015160d18054851691881691909117905560c085015160d28054851691881691909117905560e08086015160d3805486169189169190911790559385015160d48054851691881691909117905561012085015160d58054851691881691909117905561014085015160d88054851691881691909117905561016085015160d9805485169188169190911790556101a085015160da805485169188169190911790556101c085015160db805485169188169190911790556101e09094015160d68054909316951694909417905582870151805160dc559384015160dd558385015160de559183015160df55919091015190558201515161198490611ead565b611995826040015160200151611ead565b6119a6826040015160400151611ead565b6119b7826040015160600151611ead565b6119c8826040015160800151611ead565b6119d9826040015160a00151611ead565b6119ea826040015160c00151611ead565b6119fb826040015160e00151611ead565b611a0d82604001516101000151611ead565b60d0546040808401516060015190517f8b4c5aee000000000000000000000000000000000000000000000000000000008152611aaa92600160a060020a031691638b4c5aee91611a609190600401612eea565b600060405180830381865afa158015611a7d573d6000803e3d6000fd5b505050506040513d6000823e601f3d908101601f19168201604052611aa59190810190612f37565b611ead565b60d0546040808401516080015190517f8b4c5aee000000000000000000000000000000000000000000000000000000008152611afd92600160a060020a031691638b4c5aee91611a609190600401612eea565b60d254608083015151611b1991600160a060020a031690612174565b60d354608083015160200151611b3891600160a060020a031690612174565b60d454608083015160400151611b5791600160a060020a031690612174565b60db546080808401510151611b7591600160a060020a031690612174565b60ce54608083015160600151611b9491600160a060020a031690612174565b60d654608083015160a00151611bb391600160a060020a031690612174565b60d78054600160a060020a03191661dead1790556103d960e75580156112cf576000805461ff0019169055505050565b60cb546101009004600160a060020a03163314611c155760405160e560020a62461bcd02815260040161083690612db8565b60cb805474ffffffffffffffffffffffffffffffffffffffff001916610100600160a060020a038416908102919091179091556040519081527f91a8c1cc2d4a3bb60738481947a00cbb9899c822916694cf8bb1d68172fdcd5490602001610bc1565b60cc54600090600160a060020a031633600160a060020a031614611cb15760405160e560020a62461bcd02815260040161083690612def565b60975460ff1615611cd75760405160e560020a62461bcd02815260040161083690612e26565b60008211611d2a5760405160e560020a62461bcd02815260206004820152601b60248201527f736c6970706167652063616e6e6f7420626520696e66696e69746500000000006044820152606401610836565b60d75460d654611d4791600160a060020a039182169116856120d9565b60d1546040517f40c10f1900000000000000000000000000000000000000000000000000000000815233600482015260248101859052600160a060020a03909116906340c10f1990604401600060405180830381600087803b158015611dac57600080fd5b505af1158015611dc0573d6000803e3d6000fd5b50506040518592508291507fa47131bab56293bdfad166ce055ce2b65336369bd9c0b1f3d7531ffdf299e37490600090a35090919050565b603354600160a060020a03163314611e255760405160e560020a62461bcd02815260040161083690612d83565b600160a060020a038116611ea45760405160e560020a62461bcd02815260206004820152602660248201527f4f776e61626c653a206e6577206f776e657220697320746865207a65726f206160448201527f64647265737300000000000000000000000000000000000000000000000000006064820152608401610836565b61078481612122565b600081600081518110611ec257611ec2612fc3565b6020026020010151905060008260018451611edd9190612eba565b81518110611eed57611eed612fc3565b602090810291909101810151600160a060020a03808516600090815260e4845260408082209284168252918452208551919350611f2f929091908601906124ec565b509151600160a060020a03918216600090815260e56020908152604080832094909516825292909252919020805461ffff191661ffff909216919091179055565b604051600160a060020a03808516602483015283166044820152606481018290526120219085907f23b872dd00000000000000000000000000000000000000000000000000000000906084015b60408051601f198184030181529190526020810180517bffffffffffffffffffffffffffffffffffffffffffffffffffffffff167fffffffff000000000000000000000000000000000000000000000000000000009093169290921790915261222f565b50505050565b60006120338284612fdc565b9392505050565b60975460ff1661208f5760405160e560020a62461bcd02815260206004820152601460248201527f5061757361626c653a206e6f74207061757365640000000000000000000000006044820152606401610836565b6097805460ff191690557f5db9ee0a495bf2e6ff9c91a7834c1ba4fdd244a5e8aa4e537bd38aeae4b073aa335b604051600160a060020a03909116815260200160405180910390a1565b604051600160a060020a0383166024820152604481018290526112cf9084907fa9059cbb0000000000000000000000000000000000000000000000000000000090606401611fbd565b60338054600160a060020a03838116600160a060020a0319831681179093556040519116919082907f8be0079c531659141344cd1fd0a4f28419497f9722a3daafe3b4186f6b6457e090600090a35050565b600160a060020a03918216600090815260e6602052604090208054600160a060020a03191691909216179055565b60975460ff16156121c85760405160e560020a62461bcd02815260040161083690612e26565b6097805460ff191660011790557f62e78cea01bee320cd4e420270b5ea74000d11b0c9f74754ebdbfc544b05a2586120bc3390565b600054610100900460ff166122275760405160e560020a62461bcd02815260040161083690612ff4565b610d93612317565b6000612284826040518060400160405280602081526020017f5361666545524332303a206c6f772d6c6576656c2063616c6c206661696c656481525085600160a060020a031661234a9092919063ffffffff16565b8051909150156112cf57808060200190518101906122a29190613051565b6112cf5760405160e560020a62461bcd02815260206004820152602a60248201527f5361666545524332303a204552433230206f7065726174696f6e20646964206e60448201527f6f742073756363656564000000000000000000000000000000000000000000006064820152608401610836565b600054610100900460ff166123415760405160e560020a62461bcd02815260040161083690612ff4565b610d9333612122565b60606123598484600085612361565b949350505050565b606030318311156123dd5760405160e560020a62461bcd02815260206004820152602660248201527f416464726573733a20696e73756666696369656e742062616c616e636520666f60448201527f722063616c6c00000000000000000000000000000000000000000000000000006064820152608401610836565b600160a060020a0385163b6124375760405160e560020a62461bcd02815260206004820152601d60248201527f416464726573733a2063616c6c20746f206e6f6e2d636f6e74726163740000006044820152606401610836565b60008086600160a060020a03168587604051612453919061309a565b60006040518083038185875af1925050503d8060008114612490576040519150601f19603f3d011682016040523d82523d6000602084013e612495565b606091505b50915091506124a58282866124b0565b979650505050505050565b606083156124bf575081612033565b8251156124cf5782518084602001fd5b8160405160e560020a62461bcd02815260040161083691906130b6565b828054828255906000526020600020908101928215612541579160200282015b828111156125415782518254600160a060020a031916600160a060020a0390911617825560209092019160019091019061250c565b5061254d929150612551565b5090565b5b8082111561254d5760008155600101612552565b600160a060020a038116811461078457600080fd5b803561258681612566565b919050565b6000806040838503121561259e57600080fd5b823561ffff811681146125b057600080fd5b915060208301356125c081612566565b809150509250929050565b801515811461078457600080fd5b6000602082840312156125eb57600080fd5b8135612033816125cb565b60e060020a634e487b7102600052604160045260246000fd5b604051610200810167ffffffffffffffff81118282101715612633576126336125f6565b60405290565b604051610120810167ffffffffffffffff81118282101715612633576126336125f6565b60405160a0810167ffffffffffffffff81118282101715612633576126336125f6565b6040516060810167ffffffffffffffff81118282101715612633576126336125f6565b604051601f8201601f1916810167ffffffffffffffff811182821017156126cc576126cc6125f6565b604052919050565b600067ffffffffffffffff8211156126ee576126ee6125f6565b5060209081020190565b600082601f83011261270957600080fd5b8135602061271e612719836126d4565b6126a3565b8281529181028401810191818101908684111561273a57600080fd5b8286015b8481101561275e57803561275181612566565b835291830191830161273e565b509695505050505050565b60006020828403121561277b57600080fd5b813567ffffffffffffffff81111561279257600080fd5b612359848285016126f8565b6000602082840312156127b057600080fd5b5035919050565b600080604083850312156127ca57600080fd5b82356125b081612566565b6000806000606084860312156127ea57600080fd5b83356127f581612566565b9250602084013561280581612566565b929592945050506040919091013590565b6000806040838503121561282957600080fd5b50508035926020909101359150565b60008060006060848603121561284d57600080fd5b833561285881612566565b925060208401359150604084013561286f81612566565b809150509250925092565b600080600080600060a0868803121561289257600080fd5b505083359560208501359550604085013594606081013594506080013592509050565b600061020082840312156128c857600080fd5b6128d061260f565b90506128db8261257b565b81526128e96020830161257b565b60208201526128fa6040830161257b565b604082015261290b6060830161257b565b606082015261291c6080830161257b565b608082015261292d60a0830161257b565b60a082015261293e60c0830161257b565b60c082015261294f60e0830161257b565b60e082015261010061296281840161257b565b9082015261012061297483820161257b565b9082015261014061298683820161257b565b9082015261016061299883820161257b565b908201526101806129aa83820161257b565b908201526101a06129bc83820161257b565b908201526101c06129ce83820161257b565b908201526101e06129e083820161257b565b9082015292915050565b600061012082840312156129fd57600080fd5b612a05612639565b9050813567ffffffffffffffff80821115612a1f57600080fd5b612a2b858386016126f8565b83526020840135915080821115612a4157600080fd5b612a4d858386016126f8565b60208401526040840135915080821115612a6657600080fd5b612a72858386016126f8565b60408401526060840135915080821115612a8b57600080fd5b612a97858386016126f8565b60608401526080840135915080821115612ab057600080fd5b612abc858386016126f8565b608084015260a0840135915080821115612ad557600080fd5b612ae1858386016126f8565b60a084015260c0840135915080821115612afa57600080fd5b612b06858386016126f8565b60c084015260e0840135915080821115612b1f57600080fd5b612b2b858386016126f8565b60e084015261010091508184013581811115612b4657600080fd5b612b52868287016126f8565b8385015250505092915050565b600060a08284031215612b7157600080fd5b612b7961265d565b9050813581526020820135602082015260408201356040820152606082013560608201526080820135608082015292915050565b600060c08284031215612bbf57600080fd5b60405160c0810181811067ffffffffffffffff82111715612be257612be26125f6565b6040529050808235612bf381612566565b81526020830135612c0381612566565b60208201526040830135612c1681612566565b60408201526060830135612c2981612566565b60608201526080830135612c3c81612566565b608082015260a0830135612c4f81612566565b60a0919091015292915050565b60008060408385031215612c6f57600080fd5b8235612c7a81612566565b9150602083013567ffffffffffffffff80821115612c9757600080fd5b908401908186036103e0811215612cad57600080fd5b612cb561265d565b6060821215612cc357600080fd5b612ccb612680565b9150833582526020840135612cdf816125cb565b60208301526040840135612cf2816125cb565b6040830152818152612d0788606086016128b5565b6020820152610260840135915082821115612d2157600080fd5b612d2d888386016129ea565b6040820152612d40886102808601612b5f565b6060820152612d53886103208601612bad565b6080820152809450505050509250929050565b600060208284031215612d7857600080fd5b813561203381612566565b6020808252818101527f4f776e61626c653a2063616c6c6572206973206e6f7420746865206f776e6572604082015260600190565b60208082526004908201527f21676f7600000000000000000000000000000000000000000000000000000000604082015260600190565b60208082526010908201527f217a6f72726f436f6e74726f6c6c657200000000000000000000000000000000604082015260600190565b60208082526010908201527f5061757361626c653a2070617573656400000000000000000000000000000000604082015260600190565b60e060020a634e487b7102600052601160045260246000fd5b6000816000190483118215151615612e9057612e90612e5d565b500290565b600082612eb55760e060020a634e487b7102600052601260045260246000fd5b500490565b600082821015612ecc57612ecc612e5d565b500390565b600060208284031215612ee357600080fd5b5051919050565b6020808252825182820181905260009190848201906040850190845b81811015612f2b578351600160a060020a031683529284019291840191600101612f06565b50909695505050505050565b60006020808385031215612f4a57600080fd5b825167ffffffffffffffff811115612f6157600080fd5b8301601f81018513612f7257600080fd5b8051612f80612719826126d4565b81815290830282018301908381019087831115612f9c57600080fd5b928401925b828410156124a5578351612fb481612566565b82529284019290840190612fa1565b60e060020a634e487b7102600052603260045260246000fd5b60008219821115612fef57612fef612e5d565b500190565b6020808252602b908201527f496e697469616c697a61626c653a20636f6e7472616374206973206e6f74206960408201527f6e697469616c697a696e67000000000000000000000000000000000000000000606082015260800190565b60006020828403121561306357600080fd5b8151612033816125cb565b60005b83811015613089578181015183820152602001613071565b838111156120215750506000910152565b600082516130ac81846020870161306e565b9190910192915050565b60208152600082518060208401526130d581604085016020870161306e565b601f01601f1916919091016040019291505056fea2646970667358221220ac149db96c2ce65cd8dce719a7635eaa05cf6a3bb6523958cfbe54b19b6fe68564736f6c634300080a0033",
  "immutableReferences": {},
  "source": "// SPDX-License-Identifier: MIT\n\npragma solidity ^0.8.0;\n\nimport \"../ZorroController.sol\";\n\nimport \"../../vaults/_VaultBase.sol\";\n\nimport \"../../tokens/mocks/MockToken.sol\";\n\nimport \"../../vaults/actions/_VaultActions.sol\";\n\ncontract MockZorroController is ZorroController {\n    event UpdatedPool(uint256 indexed _amount);\n    event HandledRewards(uint256 indexed _rewardsDue);\n\n    function addTranche(\n        uint256 _pid,\n        address _account,\n        TrancheInfo memory _trancheInfo\n    ) public {\n        trancheInfo[_pid][_account].push(_trancheInfo);\n        poolInfo[_pid].totalTrancheContributions =\n            poolInfo[_pid].totalTrancheContributions +\n            _trancheInfo.contribution;\n    }\n\n    function setLastRewardBlock(uint256 _pid, uint256 _block) public {\n        poolInfo[_pid].lastRewardBlock = _block;\n    }\n\n    function updatePoolMod(uint256 _pid) public {\n        uint256 _res = updatePool(_pid);\n\n        emit UpdatedPool(_res);\n    }\n\n    function withdrawMod(\n        uint256 _pid,\n        address _localAccount,\n        bytes memory _foreignAccount,\n        uint256 _trancheId,\n        bool _harvestOnly,\n        bool _xChainRepatriation\n    ) public returns (WithdrawalResult memory _res) {\n        _res = _withdraw(\n            _pid,\n            _localAccount,\n            _foreignAccount,\n            _trancheId,\n            _harvestOnly,\n            _xChainRepatriation\n        );\n        emit HandledRewards(_res.rewardsDueXChain);\n    }\n\n    function _fetchFundsFromPublicPool(uint256 _amount, address _destination)\n        internal\n        override\n    {\n        // Do nothing. Dummy func.\n    }\n\n    function recordMintedRewards(uint256 _mintedRewards)\n        public\n        nonHomeChainOnly\n    {\n        _recordMintedRewards(_mintedRewards);\n    }\n\n    function recordSlashedRewards(uint256 _slashedRewards)\n        public\n        nonHomeChainOnly\n    {\n        _recordSlashedRewards(_slashedRewards);\n    }\n}\n\ncontract MockInvestmentVault is VaultBase {\n    using SafeERC20Upgradeable for IERC20Upgradeable;\n    using SafeMathUpgradeable for uint256;\n\n    event DepositedWant(uint256 indexed _wantAmt);\n    event ExchangedUSDForWant(\n        uint256 indexed _amountUSD,\n        uint256 indexed _amountWant\n    );\n    event WithdrewWant(uint256 indexed _wantAmt);\n    event ExchangedWantForUSD(\n        uint256 indexed _amountWant,\n        uint256 indexed _amountUSD\n    );\n\n    function depositWantToken(uint256 _wantAmt)\n        public\n        override\n        onlyZorroController\n        nonReentrant\n        whenNotPaused\n        returns (uint256 sharesAdded)\n    {\n        IERC20Upgradeable(wantAddress).safeTransferFrom(\n            msg.sender,\n            burnAddress,\n            _wantAmt\n        );\n\n        sharesTotal = sharesTotal.add(_wantAmt);\n\n        wantLockedTotal = wantLockedTotal.add(_wantAmt);\n\n        emit DepositedWant(_wantAmt);\n\n        return _wantAmt;\n    }\n\n    function exchangeUSDForWantToken(\n        uint256 _amountUSD,\n        uint256 _maxMarketMovementAllowed\n    ) public override onlyZorroController whenNotPaused returns (uint256) {\n        require(_maxMarketMovementAllowed > 0, \"slippage cannot be infinite\");\n\n        IERC20Upgradeable(defaultStablecoin).safeTransfer(\n            burnAddress,\n            _amountUSD\n        );\n        // Assume 1:1 exch rate\n        MockERC20Upgradeable(wantAddress).mint(msg.sender, _amountUSD);\n\n        emit ExchangedUSDForWant(_amountUSD, _amountUSD);\n\n        return _amountUSD;\n    }\n\n    function exchangeWantTokenForUSD(\n        uint256 _amount,\n        uint256 _maxMarketMovementAllowed\n    )\n        public\n        virtual\n        override\n        onlyZorroController\n        whenNotPaused\n        returns (uint256)\n    {\n        // Requirements\n        require(_maxMarketMovementAllowed > 0, \"cannot have infinite slippage\");\n        // Assume 1:1 exch rate\n        MockERC20Upgradeable(defaultStablecoin).mint(msg.sender, _amount);\n\n        emit ExchangedWantForUSD(_amount, _amount);\n\n        return _amount;\n    }\n\n    function earn(uint256 _maxMarketMovementAllowed) public override {}\n\n    function farm() external {}\n\n    function _farm() internal override {}\n\n    function _unfarm(uint256 _amount) internal override {}\n}\n\ncontract MockInvestmentVault1 is MockInvestmentVault {}\n",
  "sourcePath": "/Users/kristophm/Documents/workspace/zorro-protocol/contracts/controllers/mocks/MockZorroController.sol",
  "compiler": {
    "name": "solc",
    "version": "0.8.10+commit.fc410830.Emscripten.clang"
  },
  "schemaVersion": "3.4.10",
  "updatedAt": "2022-11-26T23:10:35.006Z",
  "devdoc": {
    "kind": "dev",
    "methods": {
      "depositWantToken(uint256)": {
        "params": {
          "_wantAmt": "amount of underlying token to deposit/stake"
        },
        "returns": {
          "sharesAdded": "uint256 Number of shares added"
        }
      },
      "earn(uint256)": {
        "params": {
          "_maxMarketMovementAllowed": "The max slippage allowed. 1000 = 0 %, 995 = 0.5%, etc."
        }
      },
      "inCaseTokensGetStuck(address,uint256,address)": {
        "params": {
          "_amount": "The amount of the tokens to transfer",
          "_to": "The address to transfer tokens to",
          "_token": "Address of the ERC20 token to transfer"
        }
      },
      "owner()": {
        "details": "Returns the address of the current owner."
      },
      "paused()": {
        "details": "Returns true if the contract is paused, and false otherwise."
      },
      "renounceOwnership()": {
        "details": "Leaves the contract without owner. It will not be possible to call `onlyOwner` functions anymore. Can only be called by the current owner. NOTE: Renouncing ownership will leave the contract without an owner, thereby removing any functionality that is only available to the owner."
      },
      "setFeeSettings(uint256,uint256,uint256,uint256,uint256)": {
        "params": {
          "_buyBackRate": "Buy back rate fee numerator",
          "_controllerFee": "Controller fee numerator",
          "_entranceFeeFactor": "Entrance fee numerator (higher means smaller percentage)",
          "_revShareRate": "Rev share rate fee numerator",
          "_withdrawFeeFactor": "Withdrawal fee numerator (higher means smaller percentage)"
        }
      },
      "setGov(address)": {
        "params": {
          "_govAddress": "The new gov address"
        }
      },
      "setOnlyGov(bool)": {
        "params": {
          "_onlyGov": "whether onlyGov should be enforced"
        }
      },
      "transferOwnership(address)": {
        "details": "Transfers ownership of the contract to a new account (`newOwner`). Can only be called by the current owner."
      },
      "withdrawWantToken(uint256)": {
        "params": {
          "_wantAmt": "The amount of Want token to withdraw"
        },
        "returns": {
          "sharesRemoved": "The number of shares removed"
        }
      }
    },
    "version": 1
  },
  "userdoc": {
    "kind": "user",
    "methods": {
      "depositWantToken(uint256)": {
        "notice": "Receives new deposits from user"
      },
      "earn(uint256)": {
        "notice": "The main compounding (earn) function. Reinvests profits since the last earn event."
      },
      "inCaseTokensGetStuck(address,uint256,address)": {
        "notice": "Safely transfer ERC20 tokens stuck in this contract to a specified address"
      },
      "pause()": {
        "notice": "Pause contract"
      },
      "setFeeSettings(uint256,uint256,uint256,uint256,uint256)": {
        "notice": "Configure key fee parameters"
      },
      "setGov(address)": {
        "notice": "Set governor address"
      },
      "setOnlyGov(bool)": {
        "notice": "Set onlyGov property"
      },
      "unpause()": {
        "notice": "Unpause contract"
      },
      "withdrawWantToken(uint256)": {
        "notice": "Fully withdraw Want tokens from the Farm contract (100% withdrawals only)"
      }
    },
    "version": 1
  }
}