{
  "contractName": "MockVaultStargate",
  "abi": [
    {
      "anonymous": false,
      "inputs": [
        {
          "indexed": true,
          "internalType": "uint256",
          "name": "_amount",
          "type": "uint256"
        }
      ],
      "name": "Buyback",
      "type": "event"
    },
    {
      "anonymous": false,
      "inputs": [
        {
          "indexed": true,
          "internalType": "address",
          "name": "previousOwner",
          "type": "address"
        },
        {
          "indexed": true,
          "internalType": "address",
          "name": "newOwner",
          "type": "address"
        }
      ],
      "name": "OwnershipTransferred",
      "type": "event"
    },
    {
      "anonymous": false,
      "inputs": [
        {
          "indexed": false,
          "internalType": "address",
          "name": "account",
          "type": "address"
        }
      ],
      "name": "Paused",
      "type": "event"
    },
    {
      "anonymous": false,
      "inputs": [
        {
          "indexed": true,
          "internalType": "uint256",
          "name": "_amount",
          "type": "uint256"
        }
      ],
      "name": "RevShare",
      "type": "event"
    },
    {
      "anonymous": false,
      "inputs": [
        {
          "indexed": false,
          "internalType": "address",
          "name": "_govAddress",
          "type": "address"
        }
      ],
      "name": "SetGov",
      "type": "event"
    },
    {
      "anonymous": false,
      "inputs": [
        {
          "indexed": false,
          "internalType": "bool",
          "name": "_onlyGov",
          "type": "bool"
        }
      ],
      "name": "SetOnlyGov",
      "type": "event"
    },
    {
      "anonymous": false,
      "inputs": [
        {
          "indexed": false,
          "internalType": "address",
          "name": "_rewardsAddress",
          "type": "address"
        }
      ],
      "name": "SetRewardsAddress",
      "type": "event"
    },
    {
      "anonymous": false,
      "inputs": [
        {
          "indexed": false,
          "internalType": "uint256",
          "name": "_entranceFeeFactor",
          "type": "uint256"
        },
        {
          "indexed": false,
          "internalType": "uint256",
          "name": "_withdrawFeeFactor",
          "type": "uint256"
        },
        {
          "indexed": false,
          "internalType": "uint256",
          "name": "_controllerFee",
          "type": "uint256"
        },
        {
          "indexed": false,
          "internalType": "uint256",
          "name": "_buyBackRate",
          "type": "uint256"
        },
        {
          "indexed": false,
          "internalType": "uint256",
          "name": "_revShareRate",
          "type": "uint256"
        }
      ],
      "name": "SetSettings",
      "type": "event"
    },
    {
      "anonymous": false,
      "inputs": [
        {
          "indexed": false,
          "internalType": "address",
          "name": "_uniRouterAddress",
          "type": "address"
        }
      ],
      "name": "SetUniRouterAddress",
      "type": "event"
    },
    {
      "anonymous": false,
      "inputs": [
        {
          "indexed": false,
          "internalType": "address",
          "name": "account",
          "type": "address"
        }
      ],
      "name": "Unpaused",
      "type": "event"
    },
    {
      "inputs": [
        {
          "internalType": "uint256",
          "name": "",
          "type": "uint256"
        }
      ],
      "name": "USDCToToken0Path",
      "outputs": [
        {
          "internalType": "address",
          "name": "",
          "type": "address"
        }
      ],
      "stateMutability": "view",
      "type": "function"
    },
    {
      "inputs": [
        {
          "internalType": "uint256",
          "name": "",
          "type": "uint256"
        }
      ],
      "name": "USDCToToken1Path",
      "outputs": [
        {
          "internalType": "address",
          "name": "",
          "type": "address"
        }
      ],
      "stateMutability": "view",
      "type": "function"
    },
    {
      "inputs": [],
      "name": "ZORPriceFeed",
      "outputs": [
        {
          "internalType": "contract AggregatorV3Interface",
          "name": "",
          "type": "address"
        }
      ],
      "stateMutability": "view",
      "type": "function"
    },
    {
      "inputs": [],
      "name": "ZORROAddress",
      "outputs": [
        {
          "internalType": "address",
          "name": "",
          "type": "address"
        }
      ],
      "stateMutability": "view",
      "type": "function"
    },
    {
      "inputs": [],
      "name": "burnAddress",
      "outputs": [
        {
          "internalType": "address",
          "name": "",
          "type": "address"
        }
      ],
      "stateMutability": "view",
      "type": "function"
    },
    {
      "inputs": [],
      "name": "buyBackRate",
      "outputs": [
        {
          "internalType": "uint256",
          "name": "",
          "type": "uint256"
        }
      ],
      "stateMutability": "view",
      "type": "function"
    },
    {
      "inputs": [],
      "name": "buyBackRateMax",
      "outputs": [
        {
          "internalType": "uint256",
          "name": "",
          "type": "uint256"
        }
      ],
      "stateMutability": "view",
      "type": "function"
    },
    {
      "inputs": [],
      "name": "buyBackRateUL",
      "outputs": [
        {
          "internalType": "uint256",
          "name": "",
          "type": "uint256"
        }
      ],
      "stateMutability": "view",
      "type": "function"
    },
    {
      "inputs": [],
      "name": "controllerFee",
      "outputs": [
        {
          "internalType": "uint256",
          "name": "",
          "type": "uint256"
        }
      ],
      "stateMutability": "view",
      "type": "function"
    },
    {
      "inputs": [],
      "name": "controllerFeeMax",
      "outputs": [
        {
          "internalType": "uint256",
          "name": "",
          "type": "uint256"
        }
      ],
      "stateMutability": "view",
      "type": "function"
    },
    {
      "inputs": [],
      "name": "controllerFeeUL",
      "outputs": [
        {
          "internalType": "uint256",
          "name": "",
          "type": "uint256"
        }
      ],
      "stateMutability": "view",
      "type": "function"
    },
    {
      "inputs": [
        {
          "internalType": "address",
          "name": "_account",
          "type": "address"
        },
        {
          "internalType": "uint256",
          "name": "_wantAmt",
          "type": "uint256"
        }
      ],
      "name": "depositWantToken",
      "outputs": [
        {
          "internalType": "uint256",
          "name": "",
          "type": "uint256"
        }
      ],
      "stateMutability": "nonpayable",
      "type": "function"
    },
    {
      "inputs": [
        {
          "internalType": "uint256",
          "name": "_maxMarketMovementAllowed",
          "type": "uint256"
        }
      ],
      "name": "earn",
      "outputs": [],
      "stateMutability": "nonpayable",
      "type": "function"
    },
    {
      "inputs": [],
      "name": "earnTokenPriceFeed",
      "outputs": [
        {
          "internalType": "contract AggregatorV3Interface",
          "name": "",
          "type": "address"
        }
      ],
      "stateMutability": "view",
      "type": "function"
    },
    {
      "inputs": [],
      "name": "earnedAddress",
      "outputs": [
        {
          "internalType": "address",
          "name": "",
          "type": "address"
        }
      ],
      "stateMutability": "view",
      "type": "function"
    },
    {
      "inputs": [
        {
          "internalType": "uint256",
          "name": "",
          "type": "uint256"
        }
      ],
      "name": "earnedToToken0Path",
      "outputs": [
        {
          "internalType": "address",
          "name": "",
          "type": "address"
        }
      ],
      "stateMutability": "view",
      "type": "function"
    },
    {
      "inputs": [
        {
          "internalType": "uint256",
          "name": "",
          "type": "uint256"
        }
      ],
      "name": "earnedToToken1Path",
      "outputs": [
        {
          "internalType": "address",
          "name": "",
          "type": "address"
        }
      ],
      "stateMutability": "view",
      "type": "function"
    },
    {
      "inputs": [
        {
          "internalType": "uint256",
          "name": "",
          "type": "uint256"
        }
      ],
      "name": "earnedToUSDCPath",
      "outputs": [
        {
          "internalType": "address",
          "name": "",
          "type": "address"
        }
      ],
      "stateMutability": "view",
      "type": "function"
    },
    {
      "inputs": [
        {
          "internalType": "uint256",
          "name": "",
          "type": "uint256"
        }
      ],
      "name": "earnedToZORLPPoolOtherTokenPath",
      "outputs": [
        {
          "internalType": "address",
          "name": "",
          "type": "address"
        }
      ],
      "stateMutability": "view",
      "type": "function"
    },
    {
      "inputs": [
        {
          "internalType": "uint256",
          "name": "",
          "type": "uint256"
        }
      ],
      "name": "earnedToZORROPath",
      "outputs": [
        {
          "internalType": "address",
          "name": "",
          "type": "address"
        }
      ],
      "stateMutability": "view",
      "type": "function"
    },
    {
      "inputs": [],
      "name": "entranceFeeFactor",
      "outputs": [
        {
          "internalType": "uint256",
          "name": "",
          "type": "uint256"
        }
      ],
      "stateMutability": "view",
      "type": "function"
    },
    {
      "inputs": [],
      "name": "entranceFeeFactorLL",
      "outputs": [
        {
          "internalType": "uint256",
          "name": "",
          "type": "uint256"
        }
      ],
      "stateMutability": "view",
      "type": "function"
    },
    {
      "inputs": [],
      "name": "entranceFeeFactorMax",
      "outputs": [
        {
          "internalType": "uint256",
          "name": "",
          "type": "uint256"
        }
      ],
      "stateMutability": "view",
      "type": "function"
    },
    {
      "inputs": [
        {
          "internalType": "uint256",
          "name": "_amountUSDC",
          "type": "uint256"
        },
        {
          "internalType": "uint256",
          "name": "_maxMarketMovementAllowed",
          "type": "uint256"
        }
      ],
      "name": "exchangeUSDForWantToken",
      "outputs": [
        {
          "internalType": "uint256",
          "name": "",
          "type": "uint256"
        }
      ],
      "stateMutability": "nonpayable",
      "type": "function"
    },
    {
      "inputs": [
        {
          "internalType": "uint256",
          "name": "_amount",
          "type": "uint256"
        },
        {
          "internalType": "uint256",
          "name": "_maxMarketMovementAllowed",
          "type": "uint256"
        }
      ],
      "name": "exchangeWantTokenForUSD",
      "outputs": [
        {
          "internalType": "uint256",
          "name": "",
          "type": "uint256"
        }
      ],
      "stateMutability": "nonpayable",
      "type": "function"
    },
    {
      "inputs": [],
      "name": "farm",
      "outputs": [],
      "stateMutability": "nonpayable",
      "type": "function"
    },
    {
      "inputs": [],
      "name": "farmContractAddress",
      "outputs": [
        {
          "internalType": "address",
          "name": "",
          "type": "address"
        }
      ],
      "stateMutability": "view",
      "type": "function"
    },
    {
      "inputs": [],
      "name": "govAddress",
      "outputs": [
        {
          "internalType": "address",
          "name": "",
          "type": "address"
        }
      ],
      "stateMutability": "view",
      "type": "function"
    },
    {
      "inputs": [
        {
          "internalType": "address",
          "name": "_token",
          "type": "address"
        },
        {
          "internalType": "uint256",
          "name": "_amount",
          "type": "uint256"
        },
        {
          "internalType": "address",
          "name": "_to",
          "type": "address"
        }
      ],
      "name": "inCaseTokensGetStuck",
      "outputs": [],
      "stateMutability": "nonpayable",
      "type": "function"
    },
    {
      "inputs": [
        {
          "internalType": "address",
          "name": "_timelockOwner",
          "type": "address"
        }
      ],
      "name": "initialize",
      "outputs": [],
      "stateMutability": "nonpayable",
      "type": "function"
    },
    {
      "inputs": [
        {
          "internalType": "address",
          "name": "_timelockOwner",
          "type": "address"
        },
        {
          "components": [
            {
              "internalType": "uint256",
              "name": "pid",
              "type": "uint256"
            },
            {
              "internalType": "bool",
              "name": "isHomeChain",
              "type": "bool"
            },
            {
              "components": [
                {
                  "internalType": "address",
                  "name": "govAddress",
                  "type": "address"
                },
                {
                  "internalType": "address",
                  "name": "zorroControllerAddress",
                  "type": "address"
                },
                {
                  "internalType": "address",
                  "name": "ZORROAddress",
                  "type": "address"
                },
                {
                  "internalType": "address",
                  "name": "zorroStakingVault",
                  "type": "address"
                },
                {
                  "internalType": "address",
                  "name": "wantAddress",
                  "type": "address"
                },
                {
                  "internalType": "address",
                  "name": "token0Address",
                  "type": "address"
                },
                {
                  "internalType": "address",
                  "name": "token1Address",
                  "type": "address"
                },
                {
                  "internalType": "address",
                  "name": "earnedAddress",
                  "type": "address"
                },
                {
                  "internalType": "address",
                  "name": "farmContractAddress",
                  "type": "address"
                },
                {
                  "internalType": "address",
                  "name": "rewardsAddress",
                  "type": "address"
                },
                {
                  "internalType": "address",
                  "name": "poolAddress",
                  "type": "address"
                },
                {
                  "internalType": "address",
                  "name": "uniRouterAddress",
                  "type": "address"
                },
                {
                  "internalType": "address",
                  "name": "zorroLPPool",
                  "type": "address"
                },
                {
                  "internalType": "address",
                  "name": "zorroLPPoolOtherToken",
                  "type": "address"
                },
                {
                  "internalType": "address",
                  "name": "tokenUSDCAddress",
                  "type": "address"
                }
              ],
              "internalType": "struct VaultBase.VaultAddresses",
              "name": "keyAddresses",
              "type": "tuple"
            },
            {
              "internalType": "address[]",
              "name": "earnedToZORROPath",
              "type": "address[]"
            },
            {
              "internalType": "address[]",
              "name": "earnedToToken0Path",
              "type": "address[]"
            },
            {
              "internalType": "address[]",
              "name": "USDCToToken0Path",
              "type": "address[]"
            },
            {
              "internalType": "address[]",
              "name": "earnedToZORLPPoolOtherTokenPath",
              "type": "address[]"
            },
            {
              "internalType": "address[]",
              "name": "earnedToUSDCPath",
              "type": "address[]"
            },
            {
              "components": [
                {
                  "internalType": "uint256",
                  "name": "controllerFee",
                  "type": "uint256"
                },
                {
                  "internalType": "uint256",
                  "name": "buyBackRate",
                  "type": "uint256"
                },
                {
                  "internalType": "uint256",
                  "name": "revShareRate",
                  "type": "uint256"
                },
                {
                  "internalType": "uint256",
                  "name": "entranceFeeFactor",
                  "type": "uint256"
                },
                {
                  "internalType": "uint256",
                  "name": "withdrawFeeFactor",
                  "type": "uint256"
                }
              ],
              "internalType": "struct VaultBase.VaultFees",
              "name": "fees",
              "type": "tuple"
            },
            {
              "components": [
                {
                  "internalType": "address",
                  "name": "token0PriceFeed",
                  "type": "address"
                },
                {
                  "internalType": "address",
                  "name": "token1PriceFeed",
                  "type": "address"
                },
                {
                  "internalType": "address",
                  "name": "earnTokenPriceFeed",
                  "type": "address"
                },
                {
                  "internalType": "address",
                  "name": "ZORPriceFeed",
                  "type": "address"
                },
                {
                  "internalType": "address",
                  "name": "lpPoolOtherTokenPriceFeed",
                  "type": "address"
                }
              ],
              "internalType": "struct VaultBase.VaultPriceFeeds",
              "name": "priceFeeds",
              "type": "tuple"
            },
            {
              "internalType": "address",
              "name": "tokenSTG",
              "type": "address"
            },
            {
              "internalType": "address",
              "name": "stargateRouter",
              "type": "address"
            },
            {
              "internalType": "uint16",
              "name": "stargatePoolId",
              "type": "uint16"
            }
          ],
          "internalType": "struct VaultStargate.VaultStargateInit",
          "name": "_initValue",
          "type": "tuple"
        }
      ],
      "name": "initialize",
      "outputs": [],
      "stateMutability": "nonpayable",
      "type": "function"
    },
    {
      "inputs": [],
      "name": "isHomeChain",
      "outputs": [
        {
          "internalType": "bool",
          "name": "",
          "type": "bool"
        }
      ],
      "stateMutability": "view",
      "type": "function"
    },
    {
      "inputs": [],
      "name": "lastEarnBlock",
      "outputs": [
        {
          "internalType": "uint256",
          "name": "",
          "type": "uint256"
        }
      ],
      "stateMutability": "view",
      "type": "function"
    },
    {
      "inputs": [],
      "name": "lpPoolOtherTokenPriceFeed",
      "outputs": [
        {
          "internalType": "contract AggregatorV3Interface",
          "name": "",
          "type": "address"
        }
      ],
      "stateMutability": "view",
      "type": "function"
    },
    {
      "inputs": [],
      "name": "onlyGov",
      "outputs": [
        {
          "internalType": "bool",
          "name": "",
          "type": "bool"
        }
      ],
      "stateMutability": "view",
      "type": "function"
    },
    {
      "inputs": [],
      "name": "owner",
      "outputs": [
        {
          "internalType": "address",
          "name": "",
          "type": "address"
        }
      ],
      "stateMutability": "view",
      "type": "function"
    },
    {
      "inputs": [],
      "name": "pause",
      "outputs": [],
      "stateMutability": "nonpayable",
      "type": "function"
    },
    {
      "inputs": [],
      "name": "paused",
      "outputs": [
        {
          "internalType": "bool",
          "name": "",
          "type": "bool"
        }
      ],
      "stateMutability": "view",
      "type": "function"
    },
    {
      "inputs": [],
      "name": "pid",
      "outputs": [
        {
          "internalType": "uint256",
          "name": "",
          "type": "uint256"
        }
      ],
      "stateMutability": "view",
      "type": "function"
    },
    {
      "inputs": [],
      "name": "poolAddress",
      "outputs": [
        {
          "internalType": "address",
          "name": "",
          "type": "address"
        }
      ],
      "stateMutability": "view",
      "type": "function"
    },
    {
      "inputs": [],
      "name": "renounceOwnership",
      "outputs": [],
      "stateMutability": "nonpayable",
      "type": "function"
    },
    {
      "inputs": [],
      "name": "revShareRate",
      "outputs": [
        {
          "internalType": "uint256",
          "name": "",
          "type": "uint256"
        }
      ],
      "stateMutability": "view",
      "type": "function"
    },
    {
      "inputs": [],
      "name": "revShareRateMax",
      "outputs": [
        {
          "internalType": "uint256",
          "name": "",
          "type": "uint256"
        }
      ],
      "stateMutability": "view",
      "type": "function"
    },
    {
      "inputs": [],
      "name": "revShareRateUL",
      "outputs": [
        {
          "internalType": "uint256",
          "name": "",
          "type": "uint256"
        }
      ],
      "stateMutability": "view",
      "type": "function"
    },
    {
      "inputs": [],
      "name": "rewardsAddress",
      "outputs": [
        {
          "internalType": "address",
          "name": "",
          "type": "address"
        }
      ],
      "stateMutability": "view",
      "type": "function"
    },
    {
      "inputs": [
        {
          "internalType": "address",
          "name": "_burnAddress",
          "type": "address"
        }
      ],
      "name": "setBurnAddress",
      "outputs": [],
      "stateMutability": "nonpayable",
      "type": "function"
    },
    {
      "inputs": [
        {
          "internalType": "address",
          "name": "_earnedAddress",
          "type": "address"
        }
      ],
      "name": "setEarnedAddress",
      "outputs": [],
      "stateMutability": "nonpayable",
      "type": "function"
    },
    {
      "inputs": [
        {
          "internalType": "address",
          "name": "_farmContractAddress",
          "type": "address"
        }
      ],
      "name": "setFarmContractAddress",
      "outputs": [],
      "stateMutability": "nonpayable",
      "type": "function"
    },
    {
      "inputs": [
        {
          "internalType": "uint256",
          "name": "_entranceFeeFactor",
          "type": "uint256"
        },
        {
          "internalType": "uint256",
          "name": "_withdrawFeeFactor",
          "type": "uint256"
        },
        {
          "internalType": "uint256",
          "name": "_controllerFee",
          "type": "uint256"
        },
        {
          "internalType": "uint256",
          "name": "_buyBackRate",
          "type": "uint256"
        },
        {
          "internalType": "uint256",
          "name": "_revShareRate",
          "type": "uint256"
        }
      ],
      "name": "setFeeSettings",
      "outputs": [],
      "stateMutability": "nonpayable",
      "type": "function"
    },
    {
      "inputs": [
        {
          "internalType": "address",
          "name": "_govAddress",
          "type": "address"
        }
      ],
      "name": "setGov",
      "outputs": [],
      "stateMutability": "nonpayable",
      "type": "function"
    },
    {
      "inputs": [
        {
          "internalType": "bool",
          "name": "_onlyGov",
          "type": "bool"
        }
      ],
      "name": "setOnlyGov",
      "outputs": [],
      "stateMutability": "nonpayable",
      "type": "function"
    },
    {
      "inputs": [
        {
          "internalType": "uint256",
          "name": "_pid",
          "type": "uint256"
        }
      ],
      "name": "setPid",
      "outputs": [],
      "stateMutability": "nonpayable",
      "type": "function"
    },
    {
      "inputs": [
        {
          "internalType": "address",
          "name": "_poolAddress",
          "type": "address"
        }
      ],
      "name": "setPoolAddress",
      "outputs": [],
      "stateMutability": "nonpayable",
      "type": "function"
    },
    {
      "inputs": [
        {
          "internalType": "uint8",
          "name": "_idx",
          "type": "uint8"
        },
        {
          "internalType": "address",
          "name": "_priceFeed",
          "type": "address"
        }
      ],
      "name": "setPriceFeed",
      "outputs": [],
      "stateMutability": "nonpayable",
      "type": "function"
    },
    {
      "inputs": [
        {
          "internalType": "address",
          "name": "_rewardsAddress",
          "type": "address"
        }
      ],
      "name": "setRewardsAddress",
      "outputs": [],
      "stateMutability": "nonpayable",
      "type": "function"
    },
    {
      "inputs": [
        {
          "internalType": "uint16",
          "name": "_poolId",
          "type": "uint16"
        }
      ],
      "name": "setStargatePoolId",
      "outputs": [],
      "stateMutability": "nonpayable",
      "type": "function"
    },
    {
      "inputs": [
        {
          "internalType": "address",
          "name": "_router",
          "type": "address"
        }
      ],
      "name": "setStargateRouter",
      "outputs": [],
      "stateMutability": "nonpayable",
      "type": "function"
    },
    {
      "inputs": [
        {
          "internalType": "uint8",
          "name": "_idx",
          "type": "uint8"
        },
        {
          "internalType": "address[]",
          "name": "_path",
          "type": "address[]"
        }
      ],
      "name": "setSwapPaths",
      "outputs": [],
      "stateMutability": "nonpayable",
      "type": "function"
    },
    {
      "inputs": [
        {
          "internalType": "address",
          "name": "_token0Address",
          "type": "address"
        }
      ],
      "name": "setToken0Address",
      "outputs": [],
      "stateMutability": "nonpayable",
      "type": "function"
    },
    {
      "inputs": [
        {
          "internalType": "address",
          "name": "_token1Address",
          "type": "address"
        }
      ],
      "name": "setToken1Address",
      "outputs": [],
      "stateMutability": "nonpayable",
      "type": "function"
    },
    {
      "inputs": [
        {
          "internalType": "address",
          "name": "_token",
          "type": "address"
        }
      ],
      "name": "setTokenSTG",
      "outputs": [],
      "stateMutability": "nonpayable",
      "type": "function"
    },
    {
      "inputs": [
        {
          "internalType": "address",
          "name": "_tokenUSDCAddress",
          "type": "address"
        }
      ],
      "name": "setTokenUSDCAddress",
      "outputs": [],
      "stateMutability": "nonpayable",
      "type": "function"
    },
    {
      "inputs": [
        {
          "internalType": "address",
          "name": "_uniRouterAddress",
          "type": "address"
        }
      ],
      "name": "setUniRouterAddress",
      "outputs": [],
      "stateMutability": "nonpayable",
      "type": "function"
    },
    {
      "inputs": [
        {
          "internalType": "address",
          "name": "_wantAddress",
          "type": "address"
        }
      ],
      "name": "setWantAddress",
      "outputs": [],
      "stateMutability": "nonpayable",
      "type": "function"
    },
    {
      "inputs": [
        {
          "internalType": "address",
          "name": "_ZORROAddress",
          "type": "address"
        }
      ],
      "name": "setZORROAddress",
      "outputs": [],
      "stateMutability": "nonpayable",
      "type": "function"
    },
    {
      "inputs": [
        {
          "internalType": "address",
          "name": "_zorroControllerAddress",
          "type": "address"
        }
      ],
      "name": "setZorroControllerAddress",
      "outputs": [],
      "stateMutability": "nonpayable",
      "type": "function"
    },
    {
      "inputs": [
        {
          "internalType": "address",
          "name": "_poolAddress",
          "type": "address"
        }
      ],
      "name": "setZorroLPPoolAddress",
      "outputs": [],
      "stateMutability": "nonpayable",
      "type": "function"
    },
    {
      "inputs": [
        {
          "internalType": "address",
          "name": "_otherToken",
          "type": "address"
        }
      ],
      "name": "setZorroLPPoolOtherToken",
      "outputs": [],
      "stateMutability": "nonpayable",
      "type": "function"
    },
    {
      "inputs": [
        {
          "internalType": "address",
          "name": "_stakingVault",
          "type": "address"
        }
      ],
      "name": "setZorroStakingVault",
      "outputs": [],
      "stateMutability": "nonpayable",
      "type": "function"
    },
    {
      "inputs": [],
      "name": "sharesTotal",
      "outputs": [
        {
          "internalType": "uint256",
          "name": "",
          "type": "uint256"
        }
      ],
      "stateMutability": "view",
      "type": "function"
    },
    {
      "inputs": [],
      "name": "stargatePoolId",
      "outputs": [
        {
          "internalType": "uint16",
          "name": "",
          "type": "uint16"
        }
      ],
      "stateMutability": "view",
      "type": "function"
    },
    {
      "inputs": [],
      "name": "stargateRouter",
      "outputs": [
        {
          "internalType": "address",
          "name": "",
          "type": "address"
        }
      ],
      "stateMutability": "view",
      "type": "function"
    },
    {
      "inputs": [],
      "name": "token0Address",
      "outputs": [
        {
          "internalType": "address",
          "name": "",
          "type": "address"
        }
      ],
      "stateMutability": "view",
      "type": "function"
    },
    {
      "inputs": [],
      "name": "token0PriceFeed",
      "outputs": [
        {
          "internalType": "contract AggregatorV3Interface",
          "name": "",
          "type": "address"
        }
      ],
      "stateMutability": "view",
      "type": "function"
    },
    {
      "inputs": [
        {
          "internalType": "uint256",
          "name": "",
          "type": "uint256"
        }
      ],
      "name": "token0ToUSDCPath",
      "outputs": [
        {
          "internalType": "address",
          "name": "",
          "type": "address"
        }
      ],
      "stateMutability": "view",
      "type": "function"
    },
    {
      "inputs": [],
      "name": "token1Address",
      "outputs": [
        {
          "internalType": "address",
          "name": "",
          "type": "address"
        }
      ],
      "stateMutability": "view",
      "type": "function"
    },
    {
      "inputs": [],
      "name": "token1PriceFeed",
      "outputs": [
        {
          "internalType": "contract AggregatorV3Interface",
          "name": "",
          "type": "address"
        }
      ],
      "stateMutability": "view",
      "type": "function"
    },
    {
      "inputs": [
        {
          "internalType": "uint256",
          "name": "",
          "type": "uint256"
        }
      ],
      "name": "token1ToUSDCPath",
      "outputs": [
        {
          "internalType": "address",
          "name": "",
          "type": "address"
        }
      ],
      "stateMutability": "view",
      "type": "function"
    },
    {
      "inputs": [],
      "name": "tokenSTG",
      "outputs": [
        {
          "internalType": "address",
          "name": "",
          "type": "address"
        }
      ],
      "stateMutability": "view",
      "type": "function"
    },
    {
      "inputs": [],
      "name": "tokenUSDCAddress",
      "outputs": [
        {
          "internalType": "address",
          "name": "",
          "type": "address"
        }
      ],
      "stateMutability": "view",
      "type": "function"
    },
    {
      "inputs": [
        {
          "internalType": "address",
          "name": "newOwner",
          "type": "address"
        }
      ],
      "name": "transferOwnership",
      "outputs": [],
      "stateMutability": "nonpayable",
      "type": "function"
    },
    {
      "inputs": [],
      "name": "uniRouterAddress",
      "outputs": [
        {
          "internalType": "address",
          "name": "",
          "type": "address"
        }
      ],
      "stateMutability": "view",
      "type": "function"
    },
    {
      "inputs": [],
      "name": "unpause",
      "outputs": [],
      "stateMutability": "nonpayable",
      "type": "function"
    },
    {
      "inputs": [],
      "name": "wantAddress",
      "outputs": [
        {
          "internalType": "address",
          "name": "",
          "type": "address"
        }
      ],
      "stateMutability": "view",
      "type": "function"
    },
    {
      "inputs": [],
      "name": "wantLockedTotal",
      "outputs": [
        {
          "internalType": "uint256",
          "name": "",
          "type": "uint256"
        }
      ],
      "stateMutability": "view",
      "type": "function"
    },
    {
      "inputs": [],
      "name": "withdrawFeeFactor",
      "outputs": [
        {
          "internalType": "uint256",
          "name": "",
          "type": "uint256"
        }
      ],
      "stateMutability": "view",
      "type": "function"
    },
    {
      "inputs": [],
      "name": "withdrawFeeFactorLL",
      "outputs": [
        {
          "internalType": "uint256",
          "name": "",
          "type": "uint256"
        }
      ],
      "stateMutability": "view",
      "type": "function"
    },
    {
      "inputs": [],
      "name": "withdrawFeeFactorMax",
      "outputs": [
        {
          "internalType": "uint256",
          "name": "",
          "type": "uint256"
        }
      ],
      "stateMutability": "view",
      "type": "function"
    },
    {
      "inputs": [
        {
          "internalType": "address",
          "name": "_account",
          "type": "address"
        },
        {
          "internalType": "uint256",
          "name": "_wantAmt",
          "type": "uint256"
        }
      ],
      "name": "withdrawWantToken",
      "outputs": [
        {
          "internalType": "uint256",
          "name": "sharesRemoved",
          "type": "uint256"
        }
      ],
      "stateMutability": "nonpayable",
      "type": "function"
    },
    {
      "inputs": [],
      "name": "zorroControllerAddress",
      "outputs": [
        {
          "internalType": "address",
          "name": "",
          "type": "address"
        }
      ],
      "stateMutability": "view",
      "type": "function"
    },
    {
      "inputs": [],
      "name": "zorroLPPool",
      "outputs": [
        {
          "internalType": "address",
          "name": "",
          "type": "address"
        }
      ],
      "stateMutability": "view",
      "type": "function"
    },
    {
      "inputs": [],
      "name": "zorroLPPoolOtherToken",
      "outputs": [
        {
          "internalType": "address",
          "name": "",
          "type": "address"
        }
      ],
      "stateMutability": "view",
      "type": "function"
    },
    {
      "inputs": [],
      "name": "zorroStakingVault",
      "outputs": [
        {
          "internalType": "address",
          "name": "",
          "type": "address"
        }
      ],
      "stateMutability": "view",
      "type": "function"
    },
    {
      "inputs": [],
      "name": "zorroXChainController",
      "outputs": [
        {
          "internalType": "address",
          "name": "",
          "type": "address"
        }
      ],
      "stateMutability": "view",
      "type": "function"
    },
    {
      "inputs": [
        {
          "internalType": "uint256",
          "name": "_wantAmt",
          "type": "uint256"
        }
      ],
      "name": "unfarm",
      "outputs": [],
      "stateMutability": "nonpayable",
      "type": "function"
    },
    {
      "inputs": [
        {
          "internalType": "uint256",
          "name": "_earnedAmount",
          "type": "uint256"
        },
        {
          "internalType": "address",
          "name": "_destination",
          "type": "address"
        },
        {
          "internalType": "uint256",
          "name": "_maxMarketMovementAllowed",
          "type": "uint256"
        },
        {
          "components": [
            {
              "internalType": "uint256",
              "name": "earn",
              "type": "uint256"
            },
            {
              "internalType": "uint256",
              "name": "ZOR",
              "type": "uint256"
            },
            {
              "internalType": "uint256",
              "name": "lpPoolOtherToken",
              "type": "uint256"
            }
          ],
          "internalType": "struct VaultBase.ExchangeRates",
          "name": "_rates",
          "type": "tuple"
        }
      ],
      "name": "swapEarnedToUSDC",
      "outputs": [],
      "stateMutability": "nonpayable",
      "type": "function"
    },
    {
      "inputs": [
        {
          "internalType": "uint256",
          "name": "_amount",
          "type": "uint256"
        },
        {
          "internalType": "uint256",
          "name": "_maxMarketMovementAllowed",
          "type": "uint256"
        },
        {
          "components": [
            {
              "internalType": "uint256",
              "name": "earn",
              "type": "uint256"
            },
            {
              "internalType": "uint256",
              "name": "ZOR",
              "type": "uint256"
            },
            {
              "internalType": "uint256",
              "name": "lpPoolOtherToken",
              "type": "uint256"
            }
          ],
          "internalType": "struct VaultBase.ExchangeRates",
          "name": "_rates",
          "type": "tuple"
        }
      ],
      "name": "revShareOnChain",
      "outputs": [],
      "stateMutability": "nonpayable",
      "type": "function"
    },
    {
      "inputs": [
        {
          "internalType": "uint256",
          "name": "_amount",
          "type": "uint256"
        },
        {
          "internalType": "uint256",
          "name": "_maxMarketMovementAllowed",
          "type": "uint256"
        },
        {
          "components": [
            {
              "internalType": "uint256",
              "name": "earn",
              "type": "uint256"
            },
            {
              "internalType": "uint256",
              "name": "ZOR",
              "type": "uint256"
            },
            {
              "internalType": "uint256",
              "name": "lpPoolOtherToken",
              "type": "uint256"
            }
          ],
          "internalType": "struct VaultBase.ExchangeRates",
          "name": "_rates",
          "type": "tuple"
        }
      ],
      "name": "buybackOnChain",
      "outputs": [],
      "stateMutability": "nonpayable",
      "type": "function"
    }
  ],
  "bytecode": "0x608060405234801561001057600080fd5b50614c26806100206000396000f3fe608060405234801561001057600080fd5b50600436106105655760003560e01c8063866b2018116102ca578063c4d66de81161018d578063e7198474116100f4578063ee50dc34116100ad578063f2fde38b11610087578063f2fde38b14610b7e578063f5046a2914610b91578063fbf5683f14610ba4578063ff29b39514610bb757600080fd5b8063ee50dc3414610677578063f106845414610b62578063f25342bf14610b6b57600080fd5b8063e719847414610af6578063e7a0367914610b09578063e9e15b4f14610b1c578063ea04aeb414610b2f578063ebfba7c414610b42578063edf5e58514610b5557600080fd5b8063d7cb416f11610146578063d7cb416f14610a84578063dc3395dc14610a97578063de84199114610aaa578063e0ccabfa14610abd578063e502a88d14610ad0578063e65a011714610ae357600080fd5b8063c4d66de814610a12578063c5c97cbf14610a25578063c6efd57714610a38578063c8479cd614610a4b578063c8e3d18b14610a5e578063cfad57a214610a7157600080fd5b8063ab196def11610231578063b73cba2a116101ea578063b73cba2a146109b3578063b86c5f53146109c6578063ba0bb4ab146109d9578063bf3a7d40146109ec578063c0973eed146109ff578063c302a4d01461086757600080fd5b8063ab196def1461093f578063ae53e58a14610952578063b1414dbb14610965578063b2bc229814610978578063b3545c0114610592578063b6b41a8b146109a057600080fd5b806396e9aff81161028357806396e9aff8146108cd5780639f703a56146108e05780639fc33a9f146108f3578063a4d2b08314610906578063a9e56f3c14610919578063aabf190b1461092c57600080fd5b8063866b201814610867578063875b6a7b146108705780638906758d146108835780638da5cb5b1461089657806391998251146108a7578063959334f4146108ba57600080fd5b80634ce54ddb1161042d57806367057b6c1161039457806370d5ae051161034d5780637bf604d8116103275780637bf604d8146108305780637ff36fbe146108435780638456cb591461085657806385f02dd61461085e57600080fd5b806370d5ae0514610802578063715018a6146108155780637153ef861461081d57600080fd5b806367057b6c1461067757806367206d40146107ad57806368f54162146107c0578063693a090b146107c95780636ca8bd65146107dc5780636f96f6fa146107ef57600080fd5b80635da79d63116103e65780635da79d631461073b5780635fc77d431461074e5780636183e8041461076157806361b5bf9f146107745780636392ab1214610787578063648794a41461079a57600080fd5b80634ce54ddb146106e45780634d9f7bb2146106775780634e2cb8b6146106f757806351b78b471461070a578063583bda3b1461071d5780635c975abb1461073057600080fd5b80631e12819a116104d157806342da4eb31161048a57806342da4eb31461069957806343788cd21461067757806344a3955e146106a257806346008a07146106ab5780634b0e7216146106be5780634c5b09da146106d157600080fd5b80631e12819a14610664578063211019d7146105925780632717eff3146106775780633214471f1461068057806336e9332d146106895780633f4ba83a1461069157600080fd5b8063133033351161052357806313303335146105ee5780631334903f146106015780631755ff211461060a578063178a8d07146106355780631b0d8aab1461063e5780631c885bae1461065157600080fd5b80629b81db1461056a57806305828d3e1461057f578063061c7d48146105925780630b6bb30b146105ae5780630daef321146105c15780630fa4e01e146105e5575b600080fd5b61057d610578366004613f51565b610bca565b005b61057d61058d366004613f9e565b610bda565b61059b6103e881565b6040519081526020015b60405180910390f35b61057d6105bc366004613fd2565b610c2f565b60cb546105d590600160a01b900460ff1681565b60405190151581526020016105a5565b61059b60e15481565b61057d6105fc366004613fef565b610cb1565b61059b60df5481565b60d85461061d906001600160a01b031681565b6040516001600160a01b0390911681526020016105a5565b61059b60dd5481565b61057d61064c366004614036565b610cc3565b61057d61065f366004614036565b610cf2565b61057d610672366004613f9e565b610cff565b61059b61271081565b61059b60de5481565b61057d610d4b565b61057d610d82565b61059b60e25481565b61059b60e35481565b60cb5461061d906001600160a01b031681565b61057d6106cc366004613f9e565b610db6565b61057d6106df366004613f9e565b610e02565b60d55461061d906001600160a01b031681565b61061d610705366004614036565b610e4e565b61057d610718366004613f9e565b610e78565b61057d61072b366004613f9e565b610ec4565b60975460ff166105d5565b61057d610749366004613f9e565b610f10565b60cd5461061d906001600160a01b031681565b61057d61076f366004613f9e565b610f5c565b61057d610782366004613f9e565b610fa8565b61061d610795366004614036565b610ff4565b61059b6107a836600461404f565b611004565b61057d6107bb366004614071565b6113ad565b61059b60e05481565b60d95461061d906001600160a01b031681565b61057d6107ea366004613f9e565b611477565b60ef5461061d906001600160a01b031681565b60d65461061d906001600160a01b031681565b61057d6114c3565b61057d61082b3660046140a4565b6114f7565b60da5461061d906001600160a01b031681565b60d15461061d906001600160a01b031681565b61057d6117bf565b61059b60dc5481565b61059b61232881565b60f25461061d906001600160a01b031681565b61057d610891366004613f9e565b6117f1565b6033546001600160a01b031661061d565b61057d6108b5366004613f9e565b61183d565b61057d6108c8366004613f9e565b611889565b61061d6108db366004614036565b6118d5565b61061d6108ee366004614036565b6118e5565b60d45461061d906001600160a01b031681565b60cf5461061d906001600160a01b031681565b60f35461061d906001600160a01b031681565b60f05461061d906001600160a01b031681565b60f15461061d906001600160a01b031681565b60ee5461061d906001600160a01b031681565b60cc5461061d906001600160a01b031681565b60f35461098d90600160a01b900461ffff1681565b60405161ffff90911681526020016105a5565b61057d6109ae366004613f51565b6118f5565b61057d6109c1366004613f9e565b611900565b61061d6109d4366004614036565b61194c565b61059b6109e73660046140df565b61195c565b61057d6109fa366004613f9e565b611ab9565b60d75461061d906001600160a01b031681565b61057d610a20366004613f9e565b611b05565b61061d610a33366004614036565b611b9c565b61061d610a46366004614036565b611bac565b61057d610a59366004613f9e565b611bbc565b61061d610a6c366004614036565b611c08565b61057d610a7f366004613f9e565b611c18565b60d25461061d906001600160a01b031681565b61057d610aa536600461411b565b611c90565b61057d610ab8366004614145565b611cdc565b61059b610acb3660046140df565b611e22565b61059b610ade36600461404f565b611f80565b61057d610af1366004614036565b61234a565b60d35461061d906001600160a01b031681565b60d05461061d906001600160a01b031681565b61057d610b2a366004613f9e565b6126bc565b61057d610b3d3660046143f2565b612708565b60db5461061d906001600160a01b031681565b60c9546105d59060ff1681565b61059b60ca5481565b60ed5461061d906001600160a01b031681565b61057d610b8c366004613f9e565b612abd565b60ce5461061d906001600160a01b031681565b61061d610bb2366004614036565b612b58565b61057d610bc5366004614596565b612b68565b610bd5838383612c66565b505050565b6033546001600160a01b03163314610c0d5760405162461bcd60e51b8152600401610c049061461e565b60405180910390fd5b60d280546001600160a01b0319166001600160a01b0392909216919091179055565b60cb546001600160a01b03163314610c595760405162461bcd60e51b8152600401610c0490614653565b60cb8054821515600160a01b0260ff60a01b199091161790556040517f125177ac7b8930dac1e59c2b30b1b6b9191b30af40cf6bbb5d20fec4d44be60f90610ca690831515815260200190565b60405180910390a150565b610cbd84848484612fb2565b50505050565b6033546001600160a01b03163314610ced5760405162461bcd60e51b8152600401610c049061461e565b60ca55565b610cfb81613050565b5050565b6033546001600160a01b03163314610d295760405162461bcd60e51b8152600401610c049061461e565b60d580546001600160a01b0319166001600160a01b0392909216919091179055565b60026065541415610d6e5760405162461bcd60e51b8152600401610c0490614671565b6002606555610d7b613169565b6001606555565b60cb546001600160a01b03163314610dac5760405162461bcd60e51b8152600401610c0490614653565b610db461327b565b565b6033546001600160a01b03163314610de05760405162461bcd60e51b8152600401610c049061461e565b60d680546001600160a01b0319166001600160a01b0392909216919091179055565b6033546001600160a01b03163314610e2c5760405162461bcd60e51b8152600401610c049061461e565b60d480546001600160a01b0319166001600160a01b0392909216919091179055565b60e78181548110610e5e57600080fd5b6000918252602090912001546001600160a01b0316905081565b6033546001600160a01b03163314610ea25760405162461bcd60e51b8152600401610c049061461e565b60f380546001600160a01b0319166001600160a01b0392909216919091179055565b6033546001600160a01b03163314610eee5760405162461bcd60e51b8152600401610c049061461e565b60ce80546001600160a01b0319166001600160a01b0392909216919091179055565b6033546001600160a01b03163314610f3a5760405162461bcd60e51b8152600401610c049061461e565b60d980546001600160a01b0319166001600160a01b0392909216919091179055565b6033546001600160a01b03163314610f865760405162461bcd60e51b8152600401610c049061461e565b60d080546001600160a01b0319166001600160a01b0392909216919091179055565b6033546001600160a01b03163314610fd25760405162461bcd60e51b8152600401610c049061461e565b60da80546001600160a01b0319166001600160a01b0392909216919091179055565b60ea8181548110610e5e57600080fd5b60cc546000906001600160a01b0316336001600160a01b03161461103a5760405162461bcd60e51b8152600401610c04906146a8565b60975460ff161561105d5760405162461bcd60e51b8152600401610c04906146d2565b600083116110a45760405162461bcd60e51b8152602060048201526014602482015273057616e7420616d74206d757374206265203e20360641b6044820152606401610c04565b60d0546110bc906001600160a01b031633308661330e565b60f35460d0546110d9916001600160a01b03918216911685613379565b60d55460d1546001600160a01b039081169116146112b65760f35460405163c4de93a560e01b81526001600160a01b0382169163c4de93a59161112e91600160a01b900461ffff1690879030906004016146fc565b6020604051808303816000875af115801561114d573d6000803e3d6000fd5b505050506040513d601f19601f820116820180604052508101906111719190614721565b5060d1546040516370a0823160e01b81523060048201526000916001600160a01b0316906370a0823190602401602060405180830381865afa1580156111bb573d6000803e3d6000fd5b505050506040513d601f19601f820116820180604052508101906111df9190614721565b60ed549091506000906111fa906001600160a01b031661342b565b60d95460d15491925061121a916001600160a01b03908116911684613379565b6112af828264e8d4a510008760e680548060200260200160405190810160405280929190818152602001828054801561127c57602002820191906000526020600020905b81546001600160a01b0316815260019091019060200180831161125e575b5050505050336112976102584261356b90919063ffffffff16565b60d9546001600160a01b031696959493929190613577565b5050611338565b60f35460405163c4de93a560e01b81526001600160a01b0382169163c4de93a5916112f391600160a01b900461ffff1690879033906004016146fc565b6020604051808303816000875af1158015611312573d6000803e3d6000fd5b505050506040513d601f19601f820116820180604052508101906113369190614721565b505b60d5546040516370a0823160e01b81523060048201526001600160a01b03909116906370a0823190602401602060405180830381865afa158015611380573d6000803e3d6000fd5b505050506040513d601f19601f820116820180604052508101906113a49190614721565b90505b92915050565b60cb546001600160a01b031633146113d75760405162461bcd60e51b8152600401610c0490614653565b60d3546001600160a01b038481169116141561141d5760405162461bcd60e51b8152602060048201526005602482015264217361666560d81b6044820152606401610c04565b60d0546001600160a01b03848116911614156114635760405162461bcd60e51b8152602060048201526005602482015264217361666560d81b6044820152606401610c04565b610bd56001600160a01b03841682846136e0565b6033546001600160a01b031633146114a15760405162461bcd60e51b8152600401610c049061461e565b60cf80546001600160a01b0319166001600160a01b0392909216919091179055565b6033546001600160a01b031633146114ed5760405162461bcd60e51b8152600401610c049061461e565b610db46000613710565b60cb546001600160a01b031633146115215760405162461bcd60e51b8152600401610c0490614653565b6123288510156115735760405162461bcd60e51b815260206004820152601a60248201527f5f656e7472616e6365466565466163746f7220746f6f206c6f770000000000006044820152606401610c04565b6127108511156115c55760405162461bcd60e51b815260206004820152601b60248201527f5f656e7472616e6365466565466163746f7220746f6f206869676800000000006044820152606401610c04565b60df85905561232884101561161c5760405162461bcd60e51b815260206004820152601a60248201527f5f7769746864726177466565466163746f7220746f6f206c6f770000000000006044820152606401610c04565b61271084111561166e5760405162461bcd60e51b815260206004820152601b60248201527f5f7769746864726177466565466163746f7220746f6f206869676800000000006044820152606401610c04565b60e08490556103e88311156116c55760405162461bcd60e51b815260206004820152601760248201527f5f636f6e74726f6c6c657246656520746f6f20686967680000000000000000006044820152606401610c04565b60dc8390556103e88211156117145760405162461bcd60e51b81526020600482015260156024820152740bec4eaf284c2c6d6a4c2e8ca40e8dede40d0d2ced605b1b6044820152606401610c04565b60dd8290556103e88111156117645760405162461bcd60e51b81526020600482015260166024820152750bee4caeca6d0c2e4caa4c2e8ca40e8dede40d0d2ced60531b6044820152606401610c04565b60de819055604080518681526020810186905290810184905260608101839052608081018290527fc67e0b149a57a70fa44a531a46c2c6d8e0b242fa12f459f250012c3a5987d29a9060a00160405180910390a15050505050565b60cb546001600160a01b031633146117e95760405162461bcd60e51b8152600401610c0490614653565b610db4613762565b6033546001600160a01b0316331461181b5760405162461bcd60e51b8152600401610c049061461e565b60d780546001600160a01b0319166001600160a01b0392909216919091179055565b6033546001600160a01b031633146118675760405162461bcd60e51b8152600401610c049061461e565b60f280546001600160a01b0319166001600160a01b0392909216919091179055565b6033546001600160a01b031633146118b35760405162461bcd60e51b8152600401610c049061461e565b60db80546001600160a01b0319166001600160a01b0392909216919091179055565b60e98181548110610e5e57600080fd5b60ec8181548110610e5e57600080fd5b610bd58383836137ba565b6033546001600160a01b0316331461192a5760405162461bcd60e51b8152600401610c049061461e565b60d380546001600160a01b0319166001600160a01b0392909216919091179055565b60e48181548110610e5e57600080fd5b60cc546000906001600160a01b0316336001600160a01b0316146119925760405162461bcd60e51b8152600401610c04906146a8565b600260655414156119b55760405162461bcd60e51b8152600401610c0490614671565b600260655560975460ff16156119dd5760405162461bcd60e51b8152600401610c04906146d2565b60008211611a2d5760405162461bcd60e51b815260206004820152601e60248201527f57616e7420746f6b656e206465706f736974206d757374206265203e203000006044820152606401610c04565b60d054611a45906001600160a01b031633308561330e565b60e254829015801590611a5a5750600060e354115b15611a9557611a92612710611a8c60e254611a8c60df54611a8660e3548a61385c90919063ffffffff16565b9061385c565b90613868565b90505b60e354611aa2908261356b565b60e355611aad613169565b60016065559392505050565b6033546001600160a01b03163314611ae35760405162461bcd60e51b8152600401610c049061461e565b60cc80546001600160a01b0319166001600160a01b0392909216919091179055565b600054610100900460ff16611b205760005460ff1615611b24565b303b155b611b405760405162461bcd60e51b8152600401610c049061473a565b600054610100900460ff16158015611b62576000805461ffff19166101011790555b611b6a613874565b611b7382612abd565b60d680546001600160a01b03191661dead1790558015610cfb576000805461ff00191690555050565b60e58181548110610e5e57600080fd5b60e68181548110610e5e57600080fd5b6033546001600160a01b03163314611be65760405162461bcd60e51b8152600401610c049061461e565b60d180546001600160a01b0319166001600160a01b0392909216919091179055565b60e88181548110610e5e57600080fd5b60cb546001600160a01b03163314611c425760405162461bcd60e51b8152600401610c0490614653565b60cb80546001600160a01b0319166001600160a01b0383169081179091556040519081527f91a8c1cc2d4a3bb60738481947a00cbb9899c822916694cf8bb1d68172fdcd5490602001610ca6565b6033546001600160a01b03163314611cba5760405162461bcd60e51b8152600401610c049061461e565b60f3805461ffff909216600160a01b0261ffff60a01b19909216919091179055565b6033546001600160a01b03163314611d065760405162461bcd60e51b8152600401610c049061461e565b60ff8216611d2f5760ed80546001600160a01b0383166001600160a01b03199091161790555050565b8160ff1660011415611d5c5760ee80546001600160a01b0383166001600160a01b03199091161790555050565b8160ff1660021415611d895760ef80546001600160a01b0383166001600160a01b03199091161790555050565b8160ff1660031415611db65760f180546001600160a01b0383166001600160a01b03199091161790555050565b8160ff1660041415611de35760f080546001600160a01b0383166001600160a01b03199091161790555050565b60405162461bcd60e51b81526020600482015260146024820152730eadce6eae0e0dee4e8cac840cccacac840d2c8f60631b6044820152606401610c04565b60cc546000906001600160a01b0316336001600160a01b031614611e585760405162461bcd60e51b8152600401610c04906146a8565b60026065541415611e7b5760405162461bcd60e51b8152600401610c0490614671565b600260655560975460ff1615611ea35760405162461bcd60e51b8152600401610c04906146d2565b60008211611ee35760405162461bcd60e51b815260206004820152600d60248201526c077616e7420616d74203c3d203609c1b6044820152606401610c04565b611efe60e254611a8c60e3548561385c90919063ffffffff16565b905060e354811115611f0f575060e3545b60e354611f1c90826138a3565b60e35560e0546127101115611f4957611f46612710611a8c60e0548561385c90919063ffffffff16565b91505b6000611f5483613050565b60cc5460d054919250611f74916001600160a01b039081169116836136e0565b50600160655592915050565b60cc546000906001600160a01b0316336001600160a01b031614611fb65760405162461bcd60e51b8152600401610c04906146a8565b60975460ff1615611fd95760405162461bcd60e51b8152600401610c04906146d2565b60d5546040516370a0823160e01b81523060048201526000916001600160a01b0316906370a0823190602401602060405180830381865afa158015612022573d6000803e3d6000fd5b505050506040513d601f19601f820116820180604052508101906120469190614721565b9050600084116120985760405162461bcd60e51b815260206004820152601860248201527f55534443206465706f736974206d757374206265203e203000000000000000006044820152606401610c04565b808411156120e85760405162461bcd60e51b815260206004820152601960248201527f5553444320646573697265642065786365656465642062616c000000000000006044820152606401610c04565b60ed54600090612100906001600160a01b031661342b565b60d15460d5549192506001600160a01b039182169116146121b55760d95460d554612138916001600160a01b03918216911687613379565b6121b58564e8d4a51000838760e480548060200260200160405190810160405280929190818152602001828054801561219a57602002820191906000526020600020905b81546001600160a01b0316815260019091019060200180831161217c575b5050505050306112976102584261356b90919063ffffffff16565b60d1546040516370a0823160e01b81523060048201526000916001600160a01b0316906370a0823190602401602060405180830381865afa1580156121fe573d6000803e3d6000fd5b505050506040513d601f19601f820116820180604052508101906122229190614721565b60f35460d154919250612242916001600160a01b03908116911683613379565b60f3546040516321ec87bf60e21b81526001600160a01b038216916387b21efc9161227f91600160a01b900461ffff1690859030906004016146fc565b600060405180830381600087803b15801561229957600080fd5b505af11580156122ad573d6000803e3d6000fd5b505060d0546040516370a0823160e01b8152306004820152600093506001600160a01b0390911691506370a0823190602401602060405180830381865afa1580156122fc573d6000803e3d6000fd5b505050506040513d601f19601f820116820180604052508101906123209190614721565b60cc5460d054919250612340916001600160a01b039081169116836136e0565b9695505050505050565b6002606554141561236d5760405162461bcd60e51b8152600401610c0490614671565b600260655560975460ff16156123955760405162461bcd60e51b8152600401610c04906146d2565b60cb54600160a01b900460ff16156123d15760cb546001600160a01b031633146123d15760405162461bcd60e51b8152600401610c0490614653565b6123db6000613050565b5060d3546040516370a0823160e01b81523060048201526000916001600160a01b0316906370a0823190602401602060405180830381865afa158015612425573d6000803e3d6000fd5b505050506040513d601f19601f820116820180604052508101906124499190614721565b60ef54909150600090612464906001600160a01b031661342b565b60ed5490915060009061247f906001600160a01b031661342b565b60f15490915060009061249a906001600160a01b031661342b565b60f1549091506000906124b5906001600160a01b031661342b565b604080516060810182528681526020810185905290810182905290915060006124dd876138af565b90506000806124ed898b866138ff565b9092509050600061250a8261250485818e896138a3565b906138a3565b60d95460d35491925061252a916001600160a01b0390811691168c613379565b6125a0818a8a8e60e880548060200260200160405190810160405280929190818152602001828054801561219a576020028201919060005260206000209081546001600160a01b0316815260019091019060200180831161217c575050505050306112976102584261356b90919063ffffffff16565b60d1546040516370a0823160e01b81523060048201526000916001600160a01b0316906370a0823190602401602060405180830381865afa1580156125e9573d6000803e3d6000fd5b505050506040513d601f19601f8201168201806040525081019061260d9190614721565b60f35460d15491925061262d916001600160a01b03908116911683613379565b60f3546040516321ec87bf60e21b81526001600160a01b038216916387b21efc9161266a91600160a01b900461ffff1690859030906004016146fc565b600060405180830381600087803b15801561268457600080fd5b505af1158015612698573d6000803e3d6000fd5b50504360e155506126a99050613169565b5050600160655550505050505050505050565b6033546001600160a01b031633146126e65760405162461bcd60e51b8152600401610c049061461e565b60d880546001600160a01b0319166001600160a01b0392909216919091179055565b600054610100900460ff166127235760005460ff1615612727565b303b155b6127435760405162461bcd60e51b8152600401610c049061473a565b600054610100900460ff16158015612765576000805461ffff19166101011790555b815160ca5560208083015160c9805460ff1916911515919091179055604080840151805160cb8054600160a01b6001600160a01b039384166001600160a81b03199092169190911781179091558285015160cc80546001600160a01b03199081169285169290921790558385015160ce8054831691851691909117905560608085015160cf8054841691861691909117905560808086015160d08054851691871691909117905560a086015160d18054851691871691909117905560c086015160d28054851691871691909117905560e08087015160d3805486169188169190911790556101008088015160d48054871691891691909117905561012088015160d7805487169189169190911790556101408089015160d880548816918a16919091179055610160808e015160f38054928c015160d980548b16918d16919091179055610180808d015160da80548c16918e169190911790556101a08d015160db80548c16918e169190911790556101c0909c015160d580548b16918d16919091179055928f015160f28054909916908b1617909755988d0151959097166001600160b01b03199098169790971761ffff9094169094029290921790935592870151805160dc558086015160dd559384015160de558382015160df559290910151909155830151805161295c9260ea920190613d70565b50608082015180516129769160e891602090910190613d70565b5060a082015180516129909160e491602090910190613d70565b5060c082015180516129aa9160eb91602090910190613d70565b5060e082015180516129c49160ec91602090910190613d70565b50612a2860e4805480602002602001604051908101604052809291908181526020018280548015612a1e57602002820191906000526020600020905b81546001600160a01b03168152600190910190602001808311612a00575b5050505050613a17565b8051612a3c9160e691602090910190613d70565b50610120820151805160ed80546001600160a01b03199081166001600160a01b0393841617909155604083015160ef80548316918416919091179055608083015160f08054831691841691909117905560609092015160f180549093169116179055612aa783611b05565b8015610bd5576000805461ff0019169055505050565b6033546001600160a01b03163314612ae75760405162461bcd60e51b8152600401610c049061461e565b6001600160a01b038116612b4c5760405162461bcd60e51b815260206004820152602660248201527f4f776e61626c653a206e6577206f776e657220697320746865207a65726f206160448201526564647265737360d01b6064820152608401610c04565b612b5581613710565b50565b60eb8181548110610e5e57600080fd5b6033546001600160a01b03163314612b925760405162461bcd60e51b8152600401610c049061461e565b60ff8316612ba657610cbd60e48383613dd5565b8260ff1660011415612bbe57610cbd60e58383613dd5565b8260ff1660021415612bd657610cbd60e68383613dd5565b8260ff1660031415612bee57610cbd60e78383613dd5565b8260ff1660041415612c0657610cbd60e88383613dd5565b8260ff1660051415612c1e57610cbd60e98383613dd5565b8260ff1660061415612c3657610cbd60ea8383613dd5565b8260ff1660071415612c4e57610cbd60eb8383613dd5565b8260ff1660081415611de357610cbd60ec8383613dd5565b60d95460d354612c83916001600160a01b03918216911685613379565b612d0b612c91846002613868565b826000015183602001518560ea80548060200260200160405190810160405280929190818152602001828054801561219a576020028201919060005260206000209081546001600160a01b0316815260019091019060200180831161217c575050505050306112976102584261356b90919063ffffffff16565b612d93612d19846002613868565b826000015183604001518560eb80548060200260200160405190810160405280929190818152602001828054801561219a576020028201919060005260206000209081546001600160a01b0316815260019091019060200180831161217c575050505050306112976102584261356b90919063ffffffff16565b60ce546040516370a0823160e01b81523060048201526000916001600160a01b0316906370a0823190602401602060405180830381865afa158015612ddc573d6000803e3d6000fd5b505050506040513d601f19601f82011682018060405250810190612e009190614721565b60db546040516370a0823160e01b81523060048201529192506000916001600160a01b03909116906370a0823190602401602060405180830381865afa158015612e4e573d6000803e3d6000fd5b505050506040513d601f19601f82011682018060405250810190612e729190614721565b60d95460ce54919250612e92916001600160a01b03908116911684613379565b60d95460db54612eaf916001600160a01b03918216911683613379565b60d95460ce5460db546001600160a01b039283169263e8e3370092811691168585612ee06103e8611a8c848d61385c565b612ef06103e8611a8c8a8e61385c565b60d6546001600160a01b0316612f084261025861356b565b60405160e08a901b6001600160e01b03191681526001600160a01b039889166004820152968816602488015260448701959095526064860193909352608485019190915260a484015290921660c482015260e4810191909152610104016060604051808303816000875af1158015612f84573d6000803e3d6000fd5b505050506040513d601f19601f82011682018060405250810190612fa89190614788565b5050505050505050565b60d95460d354612fcf916001600160a01b03918216911686613379565b610cbd84826000015164e8d4a510008560ec80548060200260200160405190810160405280929190818152602001828054801561303557602002820191906000526020600020905b81546001600160a01b03168152600190910190602001808311613017575b5050505050886112976102584261356b90919063ffffffff16565b60d45460f354604051630441a3e760e41b8152600160a01b90910461ffff166004820152602481018390526000916001600160a01b03169063441a3e7090604401600060405180830381600087803b1580156130ab57600080fd5b505af11580156130bf573d6000803e3d6000fd5b505060d0546040516370a0823160e01b8152306004820152859450600093506001600160a01b0390911691506370a0823190602401602060405180830381865afa158015613111573d6000803e3d6000fd5b505050506040513d601f19601f820116820180604052508101906131359190614721565b905080821115613143578091505b8260e25410156131535760e25491505b60e25461316090836138a3565b60e25550919050565b60d0546040516370a0823160e01b81523060048201526000916001600160a01b0316906370a0823190602401602060405180830381865afa1580156131b2573d6000803e3d6000fd5b505050506040513d601f19601f820116820180604052508101906131d69190614721565b60e2549091506131e6908261356b565b60e25560d45460d054613206916001600160a01b03918216911683613379565b60d45460f354604051631c57762b60e31b8152600160a01b90910461ffff166004820152602481018390526001600160a01b039091169063e2bbb15890604401600060405180830381600087803b15801561326057600080fd5b505af1158015613274573d6000803e3d6000fd5b5050505050565b60975460ff166132c45760405162461bcd60e51b815260206004820152601460248201527314185d5cd8589b194e881b9bdd081c185d5cd95960621b6044820152606401610c04565b6097805460ff191690557f5db9ee0a495bf2e6ff9c91a7834c1ba4fdd244a5e8aa4e537bd38aeae4b073aa335b6040516001600160a01b03909116815260200160405180910390a1565b6040516001600160a01b0380851660248301528316604482015260648101829052610cbd9085906323b872dd60e01b906084015b60408051601f198184030181529190526020810180516001600160e01b03166001600160e01b031990931692909217909152613aeb565b604051636eb1769f60e11b81523060048201526001600160a01b038381166024830152600091839186169063dd62ed3e90604401602060405180830381865afa1580156133ca573d6000803e3d6000fd5b505050506040513d601f19601f820116820180604052508101906133ee9190614721565b6133f891906147cc565b6040516001600160a01b038516602482015260448101829052909150610cbd90859063095ea7b360e01b90606401613342565b600080826001600160a01b031663313ce5676040518163ffffffff1660e01b8152600401602060405180830381865afa15801561346c573d6000803e3d6000fd5b505050506040513d601f19601f8201168201806040525081019061349091906147e4565b90506000836001600160a01b031663feaf968c6040518163ffffffff1660e01b815260040160a060405180830381865afa1580156134d2573d6000803e3d6000fd5b505050506040513d601f19601f820116820180604052508101906134f6919061481b565b50505091505060008112156135465760405162461bcd60e51b81526020600482015260166024820152751b9959c81c1c9a58d95cc81b9bdd08185b1b1bddd95960521b6044820152606401610c04565b61356361355483600a61494f565b611a8c8364e8d4a5100061385c565b949350505050565b60006113a482846147cc565b6000861580613584575085155b1561364f5760405163d06ca61f60e01b81526000906001600160a01b038b169063d06ca61f906135ba908c9089906004016149a2565b600060405180830381865afa1580156135d7573d6000803e3d6000fd5b505050506040513d6000823e601f3d908101601f191682016040526135ff91908101906149bb565b90506136476103e8611a8c8884613621600187516138a390919063ffffffff16565b8151811061363157613631614a41565b602002602001015161385c90919063ffffffff16565b91505061366f565b61366c61365e876103e861385c565b611a8c87611a868c8c61385c565b90505b604051635c11d79560e01b81526001600160a01b038a1690635c11d795906136a3908b908590899089908990600401614a57565b600060405180830381600087803b1580156136bd57600080fd5b505af11580156136d1573d6000803e3d6000fd5b50505050505050505050505050565b6040516001600160a01b038316602482015260448101829052610bd590849063a9059cbb60e01b90606401613342565b603380546001600160a01b038381166001600160a01b0319831681179093556040519116919082907f8be0079c531659141344cd1fd0a4f28419497f9722a3daafe3b4186f6b6457e090600090a35050565b60975460ff16156137855760405162461bcd60e51b8152600401610c04906146d2565b6097805460ff191660011790557f62e78cea01bee320cd4e420270b5ea74000d11b0c9f74754ebdbfc544b05a2586132f13390565b60d95460d3546137d7916001600160a01b03918216911685613379565b610bd583826000015183602001518560ea80548060200260200160405190810160405280929190818152602001828054801561383c57602002820191906000526020600020905b81546001600160a01b0316815260019091019060200180831161381e575b505060cf546001600160a01b03169250611297915042905061025861356b565b60006113a48284614a93565b60006113a48284614ab2565b600054610100900460ff1661389b5760405162461bcd60e51b8152600401610c0490614ad4565b610db4613bbd565b60006113a48284614b1f565b600081156138fa5760dc54156138fa576138da612710611a8c60dc548561385c90919063ffffffff16565b60d75460d3549192506138fa916001600160a01b039081169116836136e0565b919050565b600080600060dd54111561392b57613928612710611a8c60dd548861385c90919063ffffffff16565b91505b60de54156139515761394e612710611a8c60de548861385c90919063ffffffff16565b90505b60c95460ff161561397757613967828585612c66565b6139728185856137ba565b613a0f565b613997613984838361356b565b60cc546001600160a01b03168686612fb2565b60cd5460ca5460405163464e3c8b60e01b815260048101919091526024810184905260448101839052606481018690526001600160a01b039091169063464e3c8b90608401600060405180830381600087803b1580156139f657600080fd5b505af1158015613a0a573d6000803e3d6000fd5b505050505b935093915050565b80516060908067ffffffffffffffff811115613a3557613a35613e3d565b604051908082528060200260200182016040528015613a5e578160200160208202803683370190505b50915060005b818161ffff161015613ae45783613a8e8261ffff16612504600188516138a390919063ffffffff16565b81518110613a9e57613a9e614a41565b6020026020010151838261ffff1681518110613abc57613abc614a41565b6001600160a01b0390921660209283029190910190910152613add81614b36565b9050613a64565b5050919050565b6000613b40826040518060400160405280602081526020017f5361666545524332303a206c6f772d6c6576656c2063616c6c206661696c6564815250856001600160a01b0316613bed9092919063ffffffff16565b805190915015610bd55780806020019051810190613b5e9190614b58565b610bd55760405162461bcd60e51b815260206004820152602a60248201527f5361666545524332303a204552433230206f7065726174696f6e20646964206e6044820152691bdd081cdd58d8d9595960b21b6064820152608401610c04565b600054610100900460ff16613be45760405162461bcd60e51b8152600401610c0490614ad4565b610db433613710565b6060613bfc8484600085613c06565b90505b9392505050565b606082471015613c675760405162461bcd60e51b815260206004820152602660248201527f416464726573733a20696e73756666696369656e742062616c616e636520666f6044820152651c8818d85b1b60d21b6064820152608401610c04565b6001600160a01b0385163b613cbe5760405162461bcd60e51b815260206004820152601d60248201527f416464726573733a2063616c6c20746f206e6f6e2d636f6e74726163740000006044820152606401610c04565b600080866001600160a01b03168587604051613cda9190614ba1565b60006040518083038185875af1925050503d8060008114613d17576040519150601f19603f3d011682016040523d82523d6000602084013e613d1c565b606091505b5091509150613d2c828286613d37565b979650505050505050565b60608315613d46575081613bff565b825115613d565782518084602001fd5b8160405162461bcd60e51b8152600401610c049190614bbd565b828054828255906000526020600020908101928215613dc5579160200282015b82811115613dc557825182546001600160a01b0319166001600160a01b03909116178255602090920191600190910190613d90565b50613dd1929150613e28565b5090565b828054828255906000526020600020908101928215613dc5579160200282015b82811115613dc55781546001600160a01b0319166001600160a01b03843516178255602090920191600190910190613df5565b5b80821115613dd15760008155600101613e29565b634e487b7160e01b600052604160045260246000fd5b6040516101e0810167ffffffffffffffff81118282101715613e7757613e77613e3d565b60405290565b60405160a0810167ffffffffffffffff81118282101715613e7757613e77613e3d565b6040516101a0810167ffffffffffffffff81118282101715613e7757613e77613e3d565b604051601f8201601f1916810167ffffffffffffffff81118282101715613eed57613eed613e3d565b604052919050565b600060608284031215613f0757600080fd5b6040516060810181811067ffffffffffffffff82111715613f2a57613f2a613e3d565b80604052508091508235815260208301356020820152604083013560408201525092915050565b600080600060a08486031215613f6657600080fd5b8335925060208401359150613f7e8560408601613ef5565b90509250925092565b80356001600160a01b03811681146138fa57600080fd5b600060208284031215613fb057600080fd5b6113a482613f87565b8015158114612b5557600080fd5b80356138fa81613fb9565b600060208284031215613fe457600080fd5b8135613bff81613fb9565b60008060008060c0858703121561400557600080fd5b8435935061401560208601613f87565b92506040850135915061402b8660608701613ef5565b905092959194509250565b60006020828403121561404857600080fd5b5035919050565b6000806040838503121561406257600080fd5b50508035926020909101359150565b60008060006060848603121561408657600080fd5b61408f84613f87565b925060208401359150613f7e60408501613f87565b600080600080600060a086880312156140bc57600080fd5b505083359560208501359550604085013594606081013594506080013592509050565b600080604083850312156140f257600080fd5b6140fb83613f87565b946020939093013593505050565b803561ffff811681146138fa57600080fd5b60006020828403121561412d57600080fd5b6113a482614109565b60ff81168114612b5557600080fd5b6000806040838503121561415857600080fd5b823561416381614136565b915061417160208401613f87565b90509250929050565b60006101e0828403121561418d57600080fd5b614195613e53565b90506141a082613f87565b81526141ae60208301613f87565b60208201526141bf60408301613f87565b60408201526141d060608301613f87565b60608201526141e160808301613f87565b60808201526141f260a08301613f87565b60a082015261420360c08301613f87565b60c082015261421460e08301613f87565b60e0820152610100614227818401613f87565b90820152610120614239838201613f87565b9082015261014061424b838201613f87565b9082015261016061425d838201613f87565b9082015261018061426f838201613f87565b908201526101a0614281838201613f87565b908201526101c0614293838201613f87565b9082015292915050565b600067ffffffffffffffff8211156142b7576142b7613e3d565b5060051b60200190565b600082601f8301126142d257600080fd5b813560206142e76142e28361429d565b613ec4565b82815260059290921b8401810191818101908684111561430657600080fd5b8286015b848110156143285761431b81613f87565b835291830191830161430a565b509695505050505050565b600060a0828403121561434557600080fd5b61434d613e7d565b9050813581526020820135602082015260408201356040820152606082013560608201526080820135608082015292915050565b600060a0828403121561439357600080fd5b61439b613e7d565b90506143a682613f87565b81526143b460208301613f87565b60208201526143c560408301613f87565b60408201526143d660608301613f87565b60608201526143e760808301613f87565b608082015292915050565b6000806040838503121561440557600080fd5b61440e83613f87565b9150602083013567ffffffffffffffff8082111561442b57600080fd5b90840190610460828703121561444057600080fd5b614448613ea0565b8235815261445860208401613fc7565b602082015261446a876040850161417a565b60408201526102208301358281111561448257600080fd5b61448e888286016142c1565b606083015250610240830135828111156144a757600080fd5b6144b3888286016142c1565b608083015250610260830135828111156144cc57600080fd5b6144d8888286016142c1565b60a083015250610280830135828111156144f157600080fd5b6144fd888286016142c1565b60c0830152506102a08301358281111561451657600080fd5b614522888286016142c1565b60e083015250614536876102c08501614333565b61010082015261454a876103608501614381565b61012082015261455d6104008401613f87565b6101408201526145706104208401613f87565b6101608201526145836104408401614109565b6101808201528093505050509250929050565b6000806000604084860312156145ab57600080fd5b83356145b681614136565b9250602084013567ffffffffffffffff808211156145d357600080fd5b818601915086601f8301126145e757600080fd5b8135818111156145f657600080fd5b8760208260051b850101111561460b57600080fd5b6020830194508093505050509250925092565b6020808252818101527f4f776e61626c653a2063616c6c6572206973206e6f7420746865206f776e6572604082015260600190565b60208082526004908201526310b3b7bb60e11b604082015260600190565b6020808252601f908201527f5265656e7472616e637947756172643a207265656e7472616e742063616c6c00604082015260600190565b60208082526010908201526f10bd37b93937a1b7b73a3937b63632b960811b604082015260600190565b60208082526010908201526f14185d5cd8589b194e881c185d5cd95960821b604082015260600190565b61ffff93909316835260208301919091526001600160a01b0316604082015260600190565b60006020828403121561473357600080fd5b5051919050565b6020808252602e908201527f496e697469616c697a61626c653a20636f6e747261637420697320616c72656160408201526d191e481a5b9a5d1a585b1a5e995960921b606082015260800190565b60008060006060848603121561479d57600080fd5b8351925060208401519150604084015190509250925092565b634e487b7160e01b600052601160045260246000fd5b600082198211156147df576147df6147b6565b500190565b6000602082840312156147f657600080fd5b8151613bff81614136565b805169ffffffffffffffffffff811681146138fa57600080fd5b600080600080600060a0868803121561483357600080fd5b61483c86614801565b945060208601519350604086015192506060860151915061485f60808701614801565b90509295509295909350565b600181815b808511156148a657816000190482111561488c5761488c6147b6565b8085161561489957918102915b93841c9390800290614870565b509250929050565b6000826148bd575060016113a7565b816148ca575060006113a7565b81600181146148e057600281146148ea57614906565b60019150506113a7565b60ff8411156148fb576148fb6147b6565b50506001821b6113a7565b5060208310610133831016604e8410600b8410161715614929575081810a6113a7565b614933838361486b565b8060001904821115614947576149476147b6565b029392505050565b60006113a460ff8416836148ae565b600081518084526020808501945080840160005b838110156149975781516001600160a01b031687529582019590820190600101614972565b509495945050505050565b828152604060208201526000613bfc604083018461495e565b600060208083850312156149ce57600080fd5b825167ffffffffffffffff8111156149e557600080fd5b8301601f810185136149f657600080fd5b8051614a046142e28261429d565b81815260059190911b82018301908381019087831115614a2357600080fd5b928401925b82841015613d2c57835182529284019290840190614a28565b634e487b7160e01b600052603260045260246000fd5b85815284602082015260a060408201526000614a7660a083018661495e565b6001600160a01b0394909416606083015250608001529392505050565b6000816000190483118215151615614aad57614aad6147b6565b500290565b600082614acf57634e487b7160e01b600052601260045260246000fd5b500490565b6020808252602b908201527f496e697469616c697a61626c653a20636f6e7472616374206973206e6f74206960408201526a6e697469616c697a696e6760a81b606082015260800190565b600082821015614b3157614b316147b6565b500390565b600061ffff80831681811415614b4e57614b4e6147b6565b6001019392505050565b600060208284031215614b6a57600080fd5b8151613bff81613fb9565b60005b83811015614b90578181015183820152602001614b78565b83811115610cbd5750506000910152565b60008251614bb3818460208701614b75565b9190910192915050565b6020815260008251806020840152614bdc816040850160208701614b75565b601f01601f1916919091016040019291505056fea2646970667358221220d8b2e0ff5871545ea8f864b3f1ddcb190ac3cddf5cb0295fc6f916a4e659d34764736f6c634300080a0033",
  "immutableReferences": {},
  "source": "// SPDX-License-Identifier: MIT\n\npragma solidity ^0.8.0;\n\nimport \"../VaultStargate.sol\";\n\nimport \"../../tokens/mocks/MockToken.sol\";\n\ncontract MockVaultStargate is VaultStargate {\n    function unfarm(uint256 _wantAmt) public {\n        _unfarm(_wantAmt);\n    }\n    \n    function swapEarnedToUSDC(\n        uint256 _earnedAmount,\n        address _destination,\n        uint256 _maxMarketMovementAllowed,\n        ExchangeRates memory _rates\n    ) public {\n        _swapEarnedToUSDC(_earnedAmount, _destination, _maxMarketMovementAllowed, _rates);\n    }\n\n    function revShareOnChain(\n        uint256 _amount,\n        uint256 _maxMarketMovementAllowed,\n        ExchangeRates memory _rates\n    ) public {\n        _revShareOnChain(_amount, _maxMarketMovementAllowed, _rates);\n    }\n\n    function buybackOnChain(\n        uint256 _amount,\n        uint256 _maxMarketMovementAllowed,\n        ExchangeRates memory _rates\n    ) public {\n        _buybackOnChain(_amount, _maxMarketMovementAllowed, _rates);\n    }\n}\n\ncontract MockVaultFactoryStargate is VaultFactoryStargate {}\n\ncontract MockStargateRouter is IStargateRouter, MockERC20Upgradeable {\n    using SafeERC20Upgradeable for IERC20Upgradeable;\n\n    address public burnAddress;\n    address public stargatePool;\n    address public asset;\n\n    function setBurnAddress(address _burnAddress) public {\n        burnAddress = _burnAddress;\n    }\n\n    function setStargatePool(address _pool) public {\n        stargatePool = _pool;\n    }\n\n    function setAsset(address _token) public {\n        asset = _token;\n    }\n\n    event SwappedToken(\n        address indexed _dest,\n        uint256 indexed _amountIn,\n        uint256 indexed _amountOutMin\n    );\n\n    event AddedLiquidity(uint256 indexed _amount, uint256 indexed _liquidity);\n\n    event RemovedLiquidity(uint256 indexed _amount);\n\n    event SgSwapped(uint256 indexed _chainId, uint256 indexed _qty, bytes indexed _dstContract);\n\n    function addLiquidity(\n        uint256 _poolId,\n        uint256 _amountLD,\n        address _to\n    ) external {\n        // Transfer funds & burn\n        IERC20Upgradeable(asset).safeTransferFrom(\n            msg.sender,\n            burnAddress,\n            _amountLD\n        );\n\n        // Mint some LP token\n        uint256 _liquidity = 1 ether; // Hard code 1 token for simplicity\n        // Transfer LP token\n        IMockERC20Upgradeable(stargatePool).mint(_to, _liquidity);\n        // Log liquidity addition\n        emit AddedLiquidity(_amountLD, _liquidity);\n    }\n\n    function swap(\n        uint16 _dstChainId,\n        uint256 _srcPoolId,\n        uint256 _dstPoolId,\n        address payable _refundAddress,\n        uint256 _amountLD,\n        uint256 _minAmountLD,\n        lzTxObj memory _lzTxParams,\n        bytes calldata _to,\n        bytes calldata _payload\n    ) external payable {\n        // Transfer to burn\n        IERC20Upgradeable(asset).safeTransferFrom(msg.sender, burnAddress, _amountLD);\n        // Log\n        emit SgSwapped(_dstChainId, _minAmountLD, _to);\n    }\n\n    function redeemRemote(\n        uint16 _dstChainId,\n        uint256 _srcPoolId,\n        uint256 _dstPoolId,\n        address payable _refundAddress,\n        uint256 _amountLP,\n        uint256 _minAmountLD,\n        bytes calldata _to,\n        lzTxObj memory _lzTxParams\n    ) external payable {}\n\n    function instantRedeemLocal(\n        uint16 _srcPoolId,\n        uint256 _amountLP,\n        address _to\n    ) external returns (uint256) {\n        // Safe transfer liquidity and burn\n        IERC20Upgradeable(stargatePool).safeTransferFrom(\n            msg.sender,\n            burnAddress,\n            _amountLP\n        );\n\n        // Mint asset token\n        uint256 _amount = 2 ether; // Hardcode for simplicity/testing\n        IMockERC20Upgradeable(asset).mint(_to, _amount);\n        // Log removed equidity\n        emit RemovedLiquidity(_amount);\n        // Return\n        return _amount;\n    }\n\n    function redeemLocal(\n        uint16 _dstChainId,\n        uint256 _srcPoolId,\n        uint256 _dstPoolId,\n        address payable _refundAddress,\n        uint256 _amountLP,\n        bytes calldata _to,\n        lzTxObj memory _lzTxParams\n    ) external payable {}\n\n    function sendCredits(\n        uint16 _dstChainId,\n        uint256 _srcPoolId,\n        uint256 _dstPoolId,\n        address payable _refundAddress\n    ) external payable {}\n\n    function quoteLayerZeroFee(\n        uint16 _dstChainId,\n        uint8 _functionType,\n        bytes calldata _toAddress,\n        bytes calldata _transferAndCallPayload,\n        lzTxObj memory _lzTxParams\n    ) external view returns (uint256, uint256) {\n        return (0.01 ether, 0.02 ether); // Hardcoded for tests\n    }\n}\n\ncontract MockStargatePool is MockERC20Upgradeable {}\n\ncontract MockStargateLPStaking is IStargateLPStaking {\n    using SafeERC20Upgradeable for IERC20Upgradeable;\n\n    event Deposited(address indexed _want, uint256 indexed _amount);\n    event Withdrew(address indexed _want, uint256 indexed _amount);\n\n    address public burnAddress;\n    address public wantToken;\n\n    function setWantAddress(address _wantToken) public {\n        wantToken = _wantToken;\n    }\n\n    function setBurnAddress(address _burnAddress) public {\n        burnAddress = _burnAddress;\n    }\n\n    function deposit(uint256 _pid, uint256 _amount) external {\n        IERC20Upgradeable(wantToken).safeTransferFrom(msg.sender, burnAddress, _amount);\n        emit Deposited(wantToken, _amount);        \n    }\n\n    function withdraw(uint256 _pid, uint256 _amount) external {\n        IMockERC20Upgradeable(wantToken).mint(msg.sender, _amount);\n        emit Withdrew(wantToken, _amount);\n    }\n}\n\ncontract MockSTGToken is MockERC20Upgradeable {}",
  "sourcePath": "/Users/kristophm/Documents/workspace/zorro-protocol/contracts/vaults/mocks/MockVaultStargate.sol",
  "compiler": {
    "name": "solc",
    "version": "0.8.10+commit.fc410830.Emscripten.clang"
  },
  "schemaVersion": "3.4.4",
  "updatedAt": "2022-05-26T01:24:09.281Z",
  "devdoc": {
    "kind": "dev",
    "methods": {
      "depositWantToken(address,uint256)": {
        "params": {
          "_account": "address of user that this deposit is intended for",
          "_wantAmt": "amount of Want token to deposit/stake"
        },
        "returns": {
          "_0": "uint256 Number of shares added"
        }
      },
      "earn(uint256)": {
        "params": {
          "_maxMarketMovementAllowed": "The max slippage allowed. 1000 = 0 %, 995 = 0.5%, etc."
        }
      },
      "exchangeUSDForWantToken(uint256,uint256)": {
        "params": {
          "_amountUSDC": "The USDC quantity to exchange (must already be deposited)",
          "_maxMarketMovementAllowed": "The max slippage allowed. 1000 = 0 %, 995 = 0.5%, etc."
        },
        "returns": {
          "_0": "uint256 Amount of Want token obtained"
        }
      },
      "exchangeWantTokenForUSD(uint256,uint256)": {
        "params": {
          "_amount": "The Want token quantity to exchange (must be deposited beforehand)",
          "_maxMarketMovementAllowed": "The max slippage allowed for swaps. 1000 = 0 %, 995 = 0.5%, etc."
        },
        "returns": {
          "_0": "uint256 Amount of USDC token obtained"
        }
      },
      "inCaseTokensGetStuck(address,uint256,address)": {
        "params": {
          "_amount": "The amount of the tokens to transfer",
          "_to": "The address to transfer tokens to",
          "_token": "Address of the ERC20 token to transfer"
        }
      },
      "initialize(address,(uint256,bool,(address,address,address,address,address,address,address,address,address,address,address,address,address,address,address),address[],address[],address[],address[],address[],(uint256,uint256,uint256,uint256,uint256),(address,address,address,address,address),address,address,uint16))": {
        "params": {
          "_initValue": "A VaultStargateInit struct containing all init values",
          "_timelockOwner": "The designated timelock controller address to act as owner"
        }
      },
      "owner()": {
        "details": "Returns the address of the current owner."
      },
      "paused()": {
        "details": "Returns true if the contract is paused, and false otherwise."
      },
      "renounceOwnership()": {
        "details": "Leaves the contract without owner. It will not be possible to call `onlyOwner` functions anymore. Can only be called by the current owner. NOTE: Renouncing ownership will leave the contract without an owner, thereby removing any functionality that is only available to the owner."
      },
      "setFeeSettings(uint256,uint256,uint256,uint256,uint256)": {
        "params": {
          "_buyBackRate": "Buy back rate fee numerator",
          "_controllerFee": "Controller fee numerator",
          "_entranceFeeFactor": "Entrance fee numerator (higher means smaller percentage)",
          "_revShareRate": "Rev share rate fee numerator",
          "_withdrawFeeFactor": "Withdrawal fee numerator (higher means smaller percentage)"
        }
      },
      "setGov(address)": {
        "params": {
          "_govAddress": "The new gov address"
        }
      },
      "setOnlyGov(bool)": {
        "params": {
          "_onlyGov": "whether onlyGov should be enforced"
        }
      },
      "transferOwnership(address)": {
        "details": "Transfers ownership of the contract to a new account (`newOwner`). Can only be called by the current owner."
      },
      "withdrawWantToken(address,uint256)": {
        "params": {
          "_account": "The address of the owner of vault investment",
          "_wantAmt": "The amount of Want token to withdraw"
        },
        "returns": {
          "sharesRemoved": "The number of shares removed"
        }
      }
    },
    "version": 1
  },
  "userdoc": {
    "kind": "user",
    "methods": {
      "depositWantToken(address,uint256)": {
        "notice": "Receives new deposits from user"
      },
      "earn(uint256)": {
        "notice": "The main compounding (earn) function. Reinvests profits since the last earn event."
      },
      "exchangeUSDForWantToken(uint256,uint256)": {
        "notice": "Performs necessary operations to convert USDC into Want token"
      },
      "exchangeWantTokenForUSD(uint256,uint256)": {
        "notice": "Converts Want token back into USD to be ready for withdrawal and transfers to sender"
      },
      "farm()": {
        "notice": "Public function for farming Want token."
      },
      "inCaseTokensGetStuck(address,uint256,address)": {
        "notice": "Safely transfer ERC20 tokens stuck in this contract to a specified address"
      },
      "initialize(address,(uint256,bool,(address,address,address,address,address,address,address,address,address,address,address,address,address,address,address),address[],address[],address[],address[],address[],(uint256,uint256,uint256,uint256,uint256),(address,address,address,address,address),address,address,uint16))": {
        "notice": "Upgradeable constructor"
      },
      "pause()": {
        "notice": "Pause contract"
      },
      "setFeeSettings(uint256,uint256,uint256,uint256,uint256)": {
        "notice": "Configure key fee parameters"
      },
      "setGov(address)": {
        "notice": "Set governor address"
      },
      "setOnlyGov(bool)": {
        "notice": "Set onlyGov property"
      },
      "unpause()": {
        "notice": "Unpause contract"
      },
      "withdrawWantToken(address,uint256)": {
        "notice": "Fully withdraw Want tokens from the Farm contract (100% withdrawals only)"
      }
    },
    "version": 1
  }
}