{
  "contractName": "MockStargateLPStaking",
  "abi": [
    {
      "anonymous": false,
      "inputs": [
        {
          "indexed": true,
          "internalType": "address",
          "name": "_want",
          "type": "address"
        },
        {
          "indexed": true,
          "internalType": "uint256",
          "name": "_amount",
          "type": "uint256"
        }
      ],
      "name": "Deposited",
      "type": "event"
    },
    {
      "anonymous": false,
      "inputs": [
        {
          "indexed": true,
          "internalType": "address",
          "name": "_want",
          "type": "address"
        },
        {
          "indexed": true,
          "internalType": "uint256",
          "name": "_amount",
          "type": "uint256"
        }
      ],
      "name": "Withdrew",
      "type": "event"
    },
    {
      "inputs": [],
      "name": "burnAddress",
      "outputs": [
        {
          "internalType": "address",
          "name": "",
          "type": "address"
        }
      ],
      "stateMutability": "view",
      "type": "function"
    },
    {
      "inputs": [],
      "name": "wantToken",
      "outputs": [
        {
          "internalType": "address",
          "name": "",
          "type": "address"
        }
      ],
      "stateMutability": "view",
      "type": "function"
    },
    {
      "inputs": [
        {
          "internalType": "address",
          "name": "_wantToken",
          "type": "address"
        }
      ],
      "name": "setWantAddress",
      "outputs": [],
      "stateMutability": "nonpayable",
      "type": "function"
    },
    {
      "inputs": [
        {
          "internalType": "address",
          "name": "_burnAddress",
          "type": "address"
        }
      ],
      "name": "setBurnAddress",
      "outputs": [],
      "stateMutability": "nonpayable",
      "type": "function"
    },
    {
      "inputs": [
        {
          "internalType": "uint256",
          "name": "_pid",
          "type": "uint256"
        },
        {
          "internalType": "uint256",
          "name": "_amount",
          "type": "uint256"
        }
      ],
      "name": "deposit",
      "outputs": [],
      "stateMutability": "nonpayable",
      "type": "function"
    },
    {
      "inputs": [
        {
          "internalType": "uint256",
          "name": "_pid",
          "type": "uint256"
        },
        {
          "internalType": "uint256",
          "name": "_amount",
          "type": "uint256"
        }
      ],
      "name": "withdraw",
      "outputs": [],
      "stateMutability": "nonpayable",
      "type": "function"
    }
  ],
  "bytecode": "0x608060405234801561001057600080fd5b506106bf806100206000396000f3fe608060405234801561001057600080fd5b506004361061007e577c01000000000000000000000000000000000000000000000000000000006000350463441a3e7081146100835780634b0e7216146100985780636183e804146100d557806370d5ae0514610112578063d23e048014610141578063e2bbb15814610154575b600080fd5b6100966100913660046105a1565b610167565b005b6100966100a63660046105c3565b6000805473ffffffffffffffffffffffffffffffffffffffff1916600160a060020a0392909216919091179055565b6100966100e33660046105c3565b6001805473ffffffffffffffffffffffffffffffffffffffff1916600160a060020a0392909216919091179055565b60005461012590600160a060020a031681565b604051600160a060020a03909116815260200160405180910390f35b60015461012590600160a060020a031681565b6100966101623660046105a1565b610222565b6001546040517f40c10f1900000000000000000000000000000000000000000000000000000000815233600482015260248101839052600160a060020a03909116906340c10f1990604401600060405180830381600087803b1580156101cc57600080fd5b505af11580156101e0573d6000803e3d6000fd5b5050600154604051849350600160a060020a0390911691507fb244b9a17ad633c6e83b7983ee04320484956a68ddbe96a0b70dfca1cf19d72390600090a35050565b60005460015461024191600160a060020a03918216913391168461027d565b6001546040518291600160a060020a0316907f2da466a7b24304f47e87fa2e1e5a81b9831ce54fec19055ce277ca2f39ba42c490600090a35050565b60408051600160a060020a0385811660248301528416604482015260648082018490528251808303909101815260849091019091526020810180517bffffffffffffffffffffffffffffffffffffffffffffffffffffffff167f23b872dd0000000000000000000000000000000000000000000000000000000017905261030590859061030b565b50505050565b6000610360826040518060400160405280602081526020017f5361666545524332303a206c6f772d6c6576656c2063616c6c206661696c656481525085600160a060020a03166103fd9092919063ffffffff16565b8051909150156103f8578080602001905181019061037e91906105ec565b6103f85760405160e560020a62461bcd02815260206004820152602a60248201527f5361666545524332303a204552433230206f7065726174696f6e20646964206e60448201527f6f7420737563636565640000000000000000000000000000000000000000000060648201526084015b60405180910390fd5b505050565b606061040c8484600085610416565b90505b9392505050565b606030318311156104925760405160e560020a62461bcd02815260206004820152602660248201527f416464726573733a20696e73756666696369656e742062616c616e636520666f60448201527f722063616c6c000000000000000000000000000000000000000000000000000060648201526084016103ef565b600160a060020a0385163b6104ec5760405160e560020a62461bcd02815260206004820152601d60248201527f416464726573733a2063616c6c20746f206e6f6e2d636f6e747261637400000060448201526064016103ef565b60008086600160a060020a03168587604051610508919061063a565b60006040518083038185875af1925050503d8060008114610545576040519150601f19603f3d011682016040523d82523d6000602084013e61054a565b606091505b509150915061055a828286610565565b979650505050505050565b6060831561057457508161040f565b8251156105845782518084602001fd5b8160405160e560020a62461bcd0281526004016103ef9190610656565b600080604083850312156105b457600080fd5b50508035926020909101359150565b6000602082840312156105d557600080fd5b8135600160a060020a038116811461040f57600080fd5b6000602082840312156105fe57600080fd5b8151801515811461040f57600080fd5b60005b83811015610629578181015183820152602001610611565b838111156103055750506000910152565b6000825161064c81846020870161060e565b9190910192915050565b602081526000825180602084015261067581604085016020870161060e565b601f01601f1916919091016040019291505056fea2646970667358221220960a56d42793104476e05ea61f0c4ca476ad71c074339a1fdd132b0efe01a99164736f6c634300080a0033",
  "immutableReferences": {},
  "source": "// SPDX-License-Identifier: MIT\n\npragma solidity ^0.8.0;\n\nimport \"../VaultStargate.sol\";\n\nimport \"../../tokens/mocks/MockToken.sol\";\n\n// import \"../libraries/VaultLibrary.sol\";\n\ncontract MockVaultStargate is VaultStargate {\n    function unfarm(uint256 _wantAmt) public {\n        _unfarm(_wantAmt);\n    }\n}\n\ncontract MockStargateRouter is IStargateRouter, MockERC20Upgradeable {\n    using SafeERC20Upgradeable for IERC20Upgradeable;\n\n    address public burnAddress;\n    address public stargatePool;\n    address public asset;\n    uint256 private _dummy; // Satisfy compiler state mutability warnings\n\n    function setBurnAddress(address _burnAddress) public {\n        burnAddress = _burnAddress;\n    }\n\n    function setStargatePool(address _pool) public {\n        stargatePool = _pool;\n    }\n\n    function setAsset(address _token) public {\n        asset = _token;\n    }\n\n    event SwappedToken(\n        address indexed _dest,\n        uint256 indexed _amountIn,\n        uint256 indexed _amountOutMin\n    );\n\n    event AddedLiquidity(uint256 indexed _amount, uint256 indexed _liquidity);\n\n    event RemovedLiquidity(uint256 indexed _amount);\n\n    event SgSwapped(uint256 indexed _chainId, uint256 indexed _qty, bytes indexed _dstContract);\n\n    function addLiquidity(\n        uint256 _poolId,\n        uint256 _amountLD,\n        address _to\n    ) external {\n        // Reqs\n        require(_poolId >= 0);\n\n        // Transfer funds & burn\n        IERC20Upgradeable(asset).safeTransferFrom(\n            msg.sender,\n            burnAddress,\n            _amountLD\n        );\n\n        // Mint some LP token\n        uint256 _liquidity = 1 ether; // Hard code 1 token for simplicity\n        // Transfer LP token\n        IMockERC20Upgradeable(stargatePool).mint(_to, _liquidity);\n        // Log liquidity addition\n        emit AddedLiquidity(_amountLD, _liquidity);\n    }\n\n    function swap(\n        uint16 _dstChainId,\n        uint256 _srcPoolId,\n        uint256 _dstPoolId,\n        address payable _refundAddress,\n        uint256 _amountLD,\n        uint256 _minAmountLD,\n        lzTxObj memory _lzTxParams,\n        bytes calldata _to,\n        bytes calldata _payload\n    ) external payable {\n        // Reqs\n        require(_srcPoolId >= 0 && _dstPoolId >= 0);\n        require(_refundAddress != address(0));\n        require(_lzTxParams.dstGasForCall >= 0);\n        require(_payload.length >= 0);\n\n        // Transfer to burn\n        IERC20Upgradeable(asset).safeTransferFrom(msg.sender, burnAddress, _amountLD);\n        // Log\n        emit SgSwapped(_dstChainId, _minAmountLD, _to);\n    }\n\n    function redeemRemote(\n        uint16 _dstChainId,\n        uint256 _srcPoolId,\n        uint256 _dstPoolId,\n        address payable _refundAddress,\n        uint256 _amountLP,\n        uint256 _minAmountLD,\n        bytes calldata _to,\n        lzTxObj memory _lzTxParams\n    ) external payable {}\n\n    function instantRedeemLocal(\n        uint16 _srcPoolId,\n        uint256 _amountLP,\n        address _to\n    ) external returns (uint256) {\n        // Reqs\n        require(_srcPoolId >= 0);\n\n        // Safe transfer liquidity and burn\n        IERC20Upgradeable(stargatePool).safeTransferFrom(\n            msg.sender,\n            burnAddress,\n            _amountLP\n        );\n\n        // Mint asset token\n        uint256 _amount = 2 ether; // Hardcode for simplicity/testing\n        IMockERC20Upgradeable(asset).mint(_to, _amount);\n        // Log removed equidity\n        emit RemovedLiquidity(_amount);\n        // Return\n        return _amount;\n    }\n\n    function redeemLocal(\n        uint16 _dstChainId,\n        uint256 _srcPoolId,\n        uint256 _dstPoolId,\n        address payable _refundAddress,\n        uint256 _amountLP,\n        bytes calldata _to,\n        lzTxObj memory _lzTxParams\n    ) external payable {}\n\n    function sendCredits(\n        uint16 _dstChainId,\n        uint256 _srcPoolId,\n        uint256 _dstPoolId,\n        address payable _refundAddress\n    ) external payable {}\n\n    function quoteLayerZeroFee(\n        uint16 _dstChainId,\n        uint8 _functionType,\n        bytes calldata _toAddress,\n        bytes calldata _transferAndCallPayload,\n        lzTxObj memory _lzTxParams\n    ) external view returns (uint256, uint256) {\n        // Reqs\n        require(_dstChainId >= 0 && _functionType >= 0);\n        require(_toAddress.length >= 0 && _transferAndCallPayload.length >= 0);\n        require(_lzTxParams.dstGasForCall >= 0);\n        require(_dummy >= 0);\n\n        return (0.01 ether, 0.02 ether); // Hardcoded for tests\n    }\n}\n\ncontract MockStargatePool is MockERC20Upgradeable {}\n\ncontract MockStargateLPStaking is IStargateLPStaking {\n    using SafeERC20Upgradeable for IERC20Upgradeable;\n\n    event Deposited(address indexed _want, uint256 indexed _amount);\n    event Withdrew(address indexed _want, uint256 indexed _amount);\n\n    address public burnAddress;\n    address public wantToken;\n\n    function setWantAddress(address _wantToken) public {\n        wantToken = _wantToken;\n    }\n\n    function setBurnAddress(address _burnAddress) public {\n        burnAddress = _burnAddress;\n    }\n\n    function deposit(uint256 _pid, uint256 _amount) external {\n        // Reqs\n        require(_pid >= 0);\n\n        IERC20Upgradeable(wantToken).safeTransferFrom(msg.sender, burnAddress, _amount);\n        emit Deposited(wantToken, _amount);        \n    }\n\n    function withdraw(uint256 _pid, uint256 _amount) external {\n        // Reqs\n        require(_pid >= 0);\n\n        IMockERC20Upgradeable(wantToken).mint(msg.sender, _amount);\n        emit Withdrew(wantToken, _amount);\n    }\n}\n\ncontract MockSTGToken is MockERC20Upgradeable {}",
  "sourcePath": "/Users/kristophm/Documents/workspace/zorro-protocol/contracts/vaults/mocks/MockVaultStargate.sol",
  "compiler": {
    "name": "solc",
    "version": "0.8.10+commit.fc410830.Emscripten.clang"
  },
  "schemaVersion": "3.4.10",
  "updatedAt": "2022-12-04T00:12:13.538Z",
  "devdoc": {
    "kind": "dev",
    "methods": {},
    "version": 1
  },
  "userdoc": {
    "kind": "user",
    "methods": {},
    "version": 1
  }
}