{
  "contractName": "MockAggregatorV3",
  "abi": [
    {
      "inputs": [],
      "name": "decimals",
      "outputs": [
        {
          "internalType": "uint8",
          "name": "",
          "type": "uint8"
        }
      ],
      "stateMutability": "view",
      "type": "function",
      "constant": true
    },
    {
      "inputs": [],
      "name": "description",
      "outputs": [
        {
          "internalType": "string",
          "name": "",
          "type": "string"
        }
      ],
      "stateMutability": "view",
      "type": "function",
      "constant": true
    },
    {
      "inputs": [],
      "name": "version",
      "outputs": [
        {
          "internalType": "uint256",
          "name": "",
          "type": "uint256"
        }
      ],
      "stateMutability": "view",
      "type": "function",
      "constant": true
    },
    {
      "inputs": [
        {
          "internalType": "uint8",
          "name": "_dec",
          "type": "uint8"
        }
      ],
      "name": "setDecimals",
      "outputs": [],
      "stateMutability": "nonpayable",
      "type": "function"
    },
    {
      "inputs": [
        {
          "internalType": "int256",
          "name": "_ans",
          "type": "int256"
        }
      ],
      "name": "setAnswer",
      "outputs": [],
      "stateMutability": "nonpayable",
      "type": "function"
    },
    {
      "inputs": [
        {
          "internalType": "uint80",
          "name": "_roundId",
          "type": "uint80"
        }
      ],
      "name": "getRoundData",
      "outputs": [
        {
          "internalType": "uint80",
          "name": "roundId",
          "type": "uint80"
        },
        {
          "internalType": "int256",
          "name": "answer",
          "type": "int256"
        },
        {
          "internalType": "uint256",
          "name": "startedAt",
          "type": "uint256"
        },
        {
          "internalType": "uint256",
          "name": "updatedAt",
          "type": "uint256"
        },
        {
          "internalType": "uint80",
          "name": "answeredInRound",
          "type": "uint80"
        }
      ],
      "stateMutability": "view",
      "type": "function",
      "constant": true
    },
    {
      "inputs": [],
      "name": "latestRoundData",
      "outputs": [
        {
          "internalType": "uint80",
          "name": "roundId",
          "type": "uint80"
        },
        {
          "internalType": "int256",
          "name": "answer",
          "type": "int256"
        },
        {
          "internalType": "uint256",
          "name": "startedAt",
          "type": "uint256"
        },
        {
          "internalType": "uint256",
          "name": "updatedAt",
          "type": "uint256"
        },
        {
          "internalType": "uint80",
          "name": "answeredInRound",
          "type": "uint80"
        }
      ],
      "stateMutability": "view",
      "type": "function",
      "constant": true
    }
  ],
  "bytecode": "0x608060405234801561001057600080fd5b5061035a806100206000396000f3fe608060405234801561001057600080fd5b506004361061007d5760003560e01c80637a1395aa1161005b5780637a1395aa146100d257806399213cd8146100f85780639a6fc8f51461010b578063feaf968c1461017357600080fd5b8063313ce5671461008257806354fd4d50146100a65780637284e416146100bd575b600080fd5b60005461008f9060ff1681565b60405160ff90911681526020015b60405180910390f35b6100af60025481565b60405190815260200161009d565b6100c5610197565b60405161009d9190610225565b6100f66100e036600461027a565b6000805460ff191660ff92909216919091179055565b005b6100f66101063660046102a4565b600455565b61013c6101193660046102bd565b600454600554600654600754939492939192909169ffffffffffffffffffff1690565b6040805169ffffffffffffffffffff968716815260208101959095528401929092526060830152909116608082015260a00161009d565b60035460045460055460065460075469ffffffffffffffffffff948516941661013c565b600180546101a4906102e9565b80601f01602080910402602001604051908101604052809291908181526020018280546101d0906102e9565b801561021d5780601f106101f25761010080835404028352916020019161021d565b820191906000526020600020905b81548152906001019060200180831161020057829003601f168201915b505050505081565b600060208083528351808285015260005b8181101561025257858101830151858201604001528201610236565b81811115610264576000604083870101525b50601f01601f1916929092016040019392505050565b60006020828403121561028c57600080fd5b813560ff8116811461029d57600080fd5b9392505050565b6000602082840312156102b657600080fd5b5035919050565b6000602082840312156102cf57600080fd5b813569ffffffffffffffffffff8116811461029d57600080fd5b600181811c908216806102fd57607f821691505b6020821081141561031e57634e487b7160e01b600052602260045260246000fd5b5091905056fea2646970667358221220ed5b3f8412691dbba7827de838cf5fe7fae2f3b468148d9d81d0eeb5dd53917264736f6c634300080a0033",
  "immutableReferences": {},
  "source": "// SPDX-License-Identifier: MIT\n\npragma solidity ^0.8.0;\n\nimport \"../PriceFeed.sol\";\n\n/// @title MockPriceFeed: Mock contract for testing the PriceFeed library\ncontract MockPriceFeed {\n    using PriceFeed for AggregatorV3Interface;\n\n    function getExchangeRate(address _priceFeed)\n        public\n        view\n        returns (uint256)\n    {\n        return AggregatorV3Interface(_priceFeed).getExchangeRate();\n    }\n}\n\ncontract MockAggregatorV3 is AggregatorV3Interface {\n    uint8 public decimals;\n    string public description;\n    uint256 public version;\n    uint80 internal _rid;\n    int256 internal _answer;\n    uint256 internal _startedAt;\n    uint256 internal _updatedAt;\n    uint80 internal _answeredInRound;\n\n    function setDecimals(uint8 _dec) public {\n        decimals = _dec;\n    }\n\n    function setAnswer(int256 _ans) public {\n        _answer = _ans;\n    }\n\n    // getRoundData and latestRoundData should both raise \"No data present\"\n    // if they do not have data to report, instead of returning unset values\n    // which could be misinterpreted as actual reported values.\n    function getRoundData(uint80 _roundId)\n        external\n        view\n        returns (\n            uint80 roundId,\n            int256 answer,\n            uint256 startedAt,\n            uint256 updatedAt,\n            uint80 answeredInRound\n        )\n    {\n        return (\n            _roundId,\n            _answer,\n            _startedAt,\n            _updatedAt,\n            _answeredInRound\n        );\n    }\n\n    function latestRoundData()\n        external\n        view\n        returns (\n            uint80 roundId,\n            int256 answer,\n            uint256 startedAt,\n            uint256 updatedAt,\n            uint80 answeredInRound\n        )\n    {\n        return (\n            _rid,\n            _answer,\n            _startedAt,\n            _updatedAt,\n            _answeredInRound\n        );\n    }\n}\n",
  "sourcePath": "/Users/kristophm/Documents/workspace/zorro-protocol/contracts/libraries/mocks/MockPriceFeed.sol",
  "compiler": {
    "name": "solc",
    "version": "0.8.10+commit.fc410830.Emscripten.clang"
  },
  "schemaVersion": "3.4.4",
  "updatedAt": "2022-04-20T00:29:35.932Z",
  "networkType": "ethereum",
  "devdoc": {
    "kind": "dev",
    "methods": {},
    "version": 1
  },
  "userdoc": {
    "kind": "user",
    "methods": {},
    "version": 1
  }
}