{
  "contractName": "MockIBalancerVault",
  "abi": [
    {
      "anonymous": false,
      "inputs": [
        {
          "indexed": true,
          "internalType": "uint256",
          "name": "amountIn",
          "type": "uint256"
        },
        {
          "indexed": true,
          "internalType": "uint256",
          "name": "minAmountOut",
          "type": "uint256"
        }
      ],
      "name": "SwappedToken",
      "type": "event"
    },
    {
      "inputs": [
        {
          "internalType": "address",
          "name": "_token",
          "type": "address"
        },
        {
          "internalType": "uint256",
          "name": "_amount",
          "type": "uint256"
        }
      ],
      "name": "setCash",
      "outputs": [],
      "stateMutability": "nonpayable",
      "type": "function"
    },
    {
      "inputs": [
        {
          "components": [
            {
              "internalType": "bytes32",
              "name": "poolId",
              "type": "bytes32"
            },
            {
              "internalType": "enum SwapKind",
              "name": "kind",
              "type": "uint8"
            },
            {
              "internalType": "contract IAsset",
              "name": "assetIn",
              "type": "address"
            },
            {
              "internalType": "contract IAsset",
              "name": "assetOut",
              "type": "address"
            },
            {
              "internalType": "uint256",
              "name": "amount",
              "type": "uint256"
            },
            {
              "internalType": "bytes",
              "name": "userData",
              "type": "bytes"
            }
          ],
          "internalType": "struct SingleSwap",
          "name": "singleSwap",
          "type": "tuple"
        },
        {
          "components": [
            {
              "internalType": "address",
              "name": "sender",
              "type": "address"
            },
            {
              "internalType": "bool",
              "name": "fromInternalBalance",
              "type": "bool"
            },
            {
              "internalType": "address payable",
              "name": "recipient",
              "type": "address"
            },
            {
              "internalType": "bool",
              "name": "toInternalBalance",
              "type": "bool"
            }
          ],
          "internalType": "struct FundManagement",
          "name": "funds",
          "type": "tuple"
        },
        {
          "internalType": "uint256",
          "name": "limit",
          "type": "uint256"
        },
        {
          "internalType": "uint256",
          "name": "deadline",
          "type": "uint256"
        }
      ],
      "name": "swap",
      "outputs": [
        {
          "internalType": "uint256",
          "name": "amountCalculated",
          "type": "uint256"
        }
      ],
      "stateMutability": "payable",
      "type": "function",
      "payable": true
    },
    {
      "inputs": [
        {
          "internalType": "bytes32",
          "name": "poolId",
          "type": "bytes32"
        },
        {
          "internalType": "contract IERC20",
          "name": "token",
          "type": "address"
        }
      ],
      "name": "getPoolTokenInfo",
      "outputs": [
        {
          "internalType": "uint256",
          "name": "cash",
          "type": "uint256"
        },
        {
          "internalType": "uint256",
          "name": "managed",
          "type": "uint256"
        },
        {
          "internalType": "uint256",
          "name": "blockNumber",
          "type": "uint256"
        },
        {
          "internalType": "address",
          "name": "assetManager",
          "type": "address"
        }
      ],
      "stateMutability": "nonpayable",
      "type": "function"
    },
    {
      "inputs": [
        {
          "internalType": "bytes32",
          "name": "poolId",
          "type": "bytes32"
        }
      ],
      "name": "getPoolTokens",
      "outputs": [
        {
          "internalType": "contract IERC20[]",
          "name": "tokens",
          "type": "address[]"
        },
        {
          "internalType": "uint256[]",
          "name": "balances",
          "type": "uint256[]"
        },
        {
          "internalType": "uint256",
          "name": "lastChangeBlock",
          "type": "uint256"
        }
      ],
      "stateMutability": "view",
      "type": "function",
      "constant": true
    },
    {
      "inputs": [
        {
          "internalType": "bytes32",
          "name": "poolId",
          "type": "bytes32"
        },
        {
          "internalType": "address",
          "name": "sender",
          "type": "address"
        },
        {
          "internalType": "address",
          "name": "recipient",
          "type": "address"
        },
        {
          "components": [
            {
              "internalType": "contract IAsset[]",
              "name": "assets",
              "type": "address[]"
            },
            {
              "internalType": "uint256[]",
              "name": "maxAmountsIn",
              "type": "uint256[]"
            },
            {
              "internalType": "bytes",
              "name": "userData",
              "type": "bytes"
            },
            {
              "internalType": "bool",
              "name": "fromInternalBalance",
              "type": "bool"
            }
          ],
          "internalType": "struct JoinPoolRequest",
          "name": "request",
          "type": "tuple"
        }
      ],
      "name": "joinPool",
      "outputs": [],
      "stateMutability": "nonpayable",
      "type": "function"
    },
    {
      "inputs": [
        {
          "internalType": "bytes32",
          "name": "poolId",
          "type": "bytes32"
        },
        {
          "internalType": "address",
          "name": "sender",
          "type": "address"
        },
        {
          "internalType": "address payable",
          "name": "recipient",
          "type": "address"
        },
        {
          "components": [
            {
              "internalType": "contract IAsset[]",
              "name": "assets",
              "type": "address[]"
            },
            {
              "internalType": "uint256[]",
              "name": "minAmountsOut",
              "type": "uint256[]"
            },
            {
              "internalType": "bytes",
              "name": "userData",
              "type": "bytes"
            },
            {
              "internalType": "bool",
              "name": "toInternalBalance",
              "type": "bool"
            }
          ],
          "internalType": "struct ExitPoolRequest",
          "name": "request",
          "type": "tuple"
        }
      ],
      "name": "exitPool",
      "outputs": [],
      "stateMutability": "nonpayable",
      "type": "function"
    }
  ],
  "bytecode": "0x608060405234801561001057600080fd5b50610756806100206000396000f3fe6080604052600436106100555760003560e01c806352bbbe291461005a5780638bdb391314610080578063b05f8e48146100a3578063b95cac2814610080578063ccdf206514610109578063f94d466814610140575b600080fd5b61006d61006836600461034e565b610175565b6040519081526020015b60405180910390f35b34801561008c57600080fd5b506100a161009b3660046105b2565b50505050565b005b3480156100af57600080fd5b506100e06100be36600461061e565b6001600160a01b03166000908152602081905260408120549290915081908190565b604080519485526020850193909352918301526001600160a01b03166060820152608001610077565b34801561011557600080fd5b506100a161012436600461064e565b6001600160a01b03909116600090815260208190526040902055565b34801561014c57600080fd5b5061016661015b36600461067a565b506060908190600090565b60405161007793929190610693565b608084015160405160009184917f34df36c6136252b92f138a711d4eed883d5587ddcae2edf91aec86fe3ee433d3908490a3949350505050565b634e487b7160e01b600052604160045260246000fd5b6040516080810167ffffffffffffffff811182821017156101e8576101e86101af565b60405290565b60405160c0810167ffffffffffffffff811182821017156101e8576101e86101af565b604051601f8201601f1916810167ffffffffffffffff8111828210171561023a5761023a6101af565b604052919050565b6001600160a01b038116811461025757600080fd5b50565b803561026581610242565b919050565b600082601f83011261027b57600080fd5b813567ffffffffffffffff811115610295576102956101af565b6102a8601f8201601f1916602001610211565b8181528460208386010111156102bd57600080fd5b816020850160208301376000918101602001919091529392505050565b8035801515811461026557600080fd5b6000608082840312156102fc57600080fd5b6103046101c5565b9050813561031181610242565b815261031f602083016102da565b6020820152604082013561033281610242565b6040820152610343606083016102da565b606082015292915050565b60008060008060e0858703121561036457600080fd5b843567ffffffffffffffff8082111561037c57600080fd5b9086019060c0828903121561039057600080fd5b6103986101ee565b823581526020830135600281106103ae57600080fd5b60208201526103bf6040840161025a565b60408201526103d06060840161025a565b60608201526080830135608082015260a0830135828111156103f157600080fd5b6103fd8a82860161026a565b60a08301525080965050505061041686602087016102ea565b939693955050505060a08201359160c0013590565b600067ffffffffffffffff821115610445576104456101af565b5060051b60200190565b600082601f83011261046057600080fd5b813560206104756104708361042b565b610211565b82815260059290921b8401810191818101908684111561049457600080fd5b8286015b848110156104af5780358352918301918301610498565b509695505050505050565b6000608082840312156104cc57600080fd5b6104d46101c5565b9050813567ffffffffffffffff808211156104ee57600080fd5b818401915084601f83011261050257600080fd5b813560206105126104708361042b565b82815260059290921b8401810191818101908884111561053157600080fd5b948201945b8386101561055857853561054981610242565b82529482019490820190610536565b8652508581013593508284111561056e57600080fd5b61057a8785880161044f565b9085015250604084013591508082111561059357600080fd5b506105a08482850161026a565b604083015250610343606083016102da565b600080600080608085870312156105c857600080fd5b8435935060208501356105da81610242565b925060408501356105ea81610242565b9150606085013567ffffffffffffffff81111561060657600080fd5b610612878288016104ba565b91505092959194509250565b6000806040838503121561063157600080fd5b82359150602083013561064381610242565b809150509250929050565b6000806040838503121561066157600080fd5b823561066c81610242565b946020939093013593505050565b60006020828403121561068c57600080fd5b5035919050565b606080825284519082018190526000906020906080840190828801845b828110156106d55781516001600160a01b0316845292840192908401906001016106b0565b5050508381038285015285518082528683019183019060005b8181101561070a578351835292840192918401916001016106ee565b505080935050505082604083015294935050505056fea2646970667358221220f54fbfbc5eee93781755411a4b04f45ff301a5328a2d2538136db3bd0ca438bc64736f6c634300080a0033",
  "immutableReferences": {},
  "source": "// SPDX-License-Identifier: MIT\n\npragma solidity ^0.8.0;\n\nimport \"../SafeSwap.sol\";\n\nimport \"@openzeppelin/contracts-upgradeable/token/ERC20/utils/SafeERC20Upgradeable.sol\";\n\nimport \"../../tokens/mocks/MockToken.sol\";\n\n/// @title MockSafeSwapUni: Mock contract for testing the SafeSwapUni library\ncontract MockSafeSwapUni {\n    using SafeSwapUni for IAMMRouter02;\n    using SafeERC20Upgradeable for IERC20Upgradeable;\n\n    function safeSwap(\n        address _uniRouter,\n        uint256 _amountIn,\n        uint256 _priceTokenIn,\n        uint256 _priceTokenOut,\n        uint256 _slippageFactor,\n        address[] memory _path,\n        address _to,\n        uint256 _deadline\n    ) public {\n        // Give permission\n        IERC20Upgradeable(_path[0]).safeIncreaseAllowance(_uniRouter, _amountIn);\n        // Swap\n        IAMMRouter02(_uniRouter).safeSwap(\n            _amountIn,\n            _priceTokenIn,\n            _priceTokenOut,\n            _slippageFactor,\n            _path,\n            _to,\n            _deadline\n        );\n    }\n}\n\n/// @title MockAMMRouter02: Mock contract for the IAMMRouter02 library\ncontract MockAMMRouter02 is IAMMRouter02, MockERC20Upgradeable {\n    using SafeERC20Upgradeable for IERC20Upgradeable;\n\n    address public burnAddress;\n\n    function setBurnAddress(address _burnAddress) public {\n        burnAddress = _burnAddress;\n    }\n\n    event SwappedToken(\n        address indexed _dest,\n        uint256 indexed _amountIn,\n        uint256 indexed _amountOutMin\n    );\n\n    event AddedLiquidity(\n        uint256 indexed _amountA,\n        uint256 indexed _amountB,\n        uint256 indexed _liquidity\n    );\n\n    event RemovedLiquidity(uint256 indexed _amountA, uint256 indexed _amountB);\n\n    function factory() external pure returns (address) {\n        return address(0);\n    }\n\n    function WETH() external pure returns (address) {\n        return address(0);\n    }\n\n    function addLiquidity(\n        address tokenA,\n        address tokenB,\n        uint256 amountADesired,\n        uint256 amountBDesired,\n        uint256 amountAMin,\n        uint256 amountBMin,\n        address to,\n        uint256 deadline\n    )\n        external\n        returns (\n            uint256 amountA,\n            uint256 amountB,\n            uint256 liquidity\n        )\n    {\n        // Vars\n        amountA = amountADesired;\n        amountB = amountBDesired;\n        // Safe transfer from\n        IERC20Upgradeable(tokenA).safeTransferFrom(\n            msg.sender,\n            address(this),\n            amountA\n        );\n        IERC20Upgradeable(tokenB).safeTransferFrom(\n            msg.sender,\n            address(this),\n            amountB\n        );\n\n        // Mint LP token (just 1 token for simplicity)\n        liquidity = 1 ether;\n        IMockERC20Upgradeable(address(this)).mint(to, liquidity);\n\n        // Emit event\n        emit AddedLiquidity(amountA, amountB, liquidity);\n    }\n\n    function addLiquidityETH(\n        address token,\n        uint256 amountTokenDesired,\n        uint256 amountTokenMin,\n        uint256 amountETHMin,\n        address to,\n        uint256 deadline\n    )\n        external\n        payable\n        returns (\n            uint256 amountToken,\n            uint256 amountETH,\n            uint256 liquidity\n        )\n    {\n        // TODO\n    }\n\n    function removeLiquidity(\n        address tokenA,\n        address tokenB,\n        uint256 liquidity,\n        uint256 amountAMin,\n        uint256 amountBMin,\n        address to,\n        uint256 deadline\n    ) external returns (uint256 amountA, uint256 amountB) {\n        // Vars\n        amountA = amountAMin;\n        amountB = amountBMin;\n\n        // Safe transfer liquidity & burn\n        IERC20Upgradeable(address(this)).safeTransferFrom(\n            msg.sender,\n            burnAddress,\n            liquidity\n        );\n\n        // Mint tokens 0, 1\n        IMockERC20Upgradeable(tokenA).mint(to, amountA);\n        IMockERC20Upgradeable(tokenB).mint(to, amountB);\n\n        // Emit event\n        emit RemovedLiquidity(amountA, amountB);\n    }\n\n    function removeLiquidityETH(\n        address token,\n        uint256 liquidity,\n        uint256 amountTokenMin,\n        uint256 amountETHMin,\n        address to,\n        uint256 deadline\n    ) external returns (uint256 amountToken, uint256 amountETH) {\n        // TODO\n    }\n\n    function removeLiquidityWithPermit(\n        address tokenA,\n        address tokenB,\n        uint256 liquidity,\n        uint256 amountAMin,\n        uint256 amountBMin,\n        address to,\n        uint256 deadline,\n        bool approveMax,\n        uint8 v,\n        bytes32 r,\n        bytes32 s\n    ) external returns (uint256 amountA, uint256 amountB) {\n        // TODO\n    }\n\n    function removeLiquidityETHWithPermit(\n        address token,\n        uint256 liquidity,\n        uint256 amountTokenMin,\n        uint256 amountETHMin,\n        address to,\n        uint256 deadline,\n        bool approveMax,\n        uint8 v,\n        bytes32 r,\n        bytes32 s\n    ) external returns (uint256 amountToken, uint256 amountETH) {\n        // TODO\n    }\n\n    function swapExactTokensForTokens(\n        uint256 amountIn,\n        uint256 amountOutMin,\n        address[] calldata path,\n        address to,\n        uint256 deadline\n    ) external returns (uint256[] memory amounts) {\n        return\n            _mockSwapExactTokensForTokens(\n                amountIn,\n                amountOutMin,\n                path,\n                to,\n                deadline\n            );\n    }\n\n    function _mockSwapExactTokensForTokens(\n        uint256 amountIn,\n        uint256 amountOutMin,\n        address[] calldata path,\n        address to,\n        uint256 deadline\n    ) internal returns (uint256[] memory amounts) {\n        // Vars\n        address _tokenIn = path[0];\n        address _tokenOut = path[path.length - 1];\n\n        // Burn token IN\n        IERC20Upgradeable(_tokenIn).safeTransferFrom(msg.sender, burnAddress, amountIn);\n\n        // Mint token OUT -> to\n        IMockERC20Upgradeable(_tokenOut).mint(to, amountOutMin);\n\n        // Return\n        uint256[] memory _amounts = new uint256[](2);\n        _amounts[0] = amountIn;\n        _amounts[1] = amountOutMin;\n        amounts = _amounts;\n\n        emit SwappedToken(msg.sender, amountIn, amountOutMin);\n    }\n\n    function swapTokensForExactTokens(\n        uint256 amountOut,\n        uint256 amountInMax,\n        address[] calldata path,\n        address to,\n        uint256 deadline\n    ) external returns (uint256[] memory amounts) {\n        // TODO\n    }\n\n    function swapExactETHForTokens(\n        uint256 amountOutMin,\n        address[] calldata path,\n        address to,\n        uint256 deadline\n    ) external payable returns (uint256[] memory amounts) {\n        // TODO\n    }\n\n    function swapTokensForExactETH(\n        uint256 amountOut,\n        uint256 amountInMax,\n        address[] calldata path,\n        address to,\n        uint256 deadline\n    ) external returns (uint256[] memory amounts) {\n        // TODO\n    }\n\n    function swapExactTokensForETH(\n        uint256 amountIn,\n        uint256 amountOutMin,\n        address[] calldata path,\n        address to,\n        uint256 deadline\n    ) external returns (uint256[] memory amounts) {\n        // TODO\n    }\n\n    function swapETHForExactTokens(\n        uint256 amountOut,\n        address[] calldata path,\n        address to,\n        uint256 deadline\n    ) external payable returns (uint256[] memory amounts) {\n        // TODO\n    }\n\n    function quote(\n        uint256 amountA,\n        uint256 reserveA,\n        uint256 reserveB\n    ) external pure returns (uint256 amountB) {\n        // TODO\n    }\n\n    function getAmountOut(\n        uint256 amountIn,\n        uint256 reserveIn,\n        uint256 reserveOut\n    ) external pure returns (uint256 amountOut) {\n        return amountIn;\n    }\n\n    function getAmountIn(\n        uint256 amountOut,\n        uint256 reserveIn,\n        uint256 reserveOut\n    ) external pure returns (uint256 amountIn) {\n        // TODO\n    }\n\n    function getAmountsOut(uint256 amountIn, address[] calldata path)\n        external\n        view\n        returns (uint256[] memory amounts)\n    {\n        uint256[] memory _amounts = new uint256[](1);\n        _amounts[0] = amountIn;\n        return _amounts;\n    }\n\n    function getAmountsIn(uint256 amountOut, address[] calldata path)\n        external\n        view\n        returns (uint256[] memory amounts)\n    {\n        // TODO\n    }\n\n    function removeLiquidityETHSupportingFeeOnTransferTokens(\n        address token,\n        uint256 liquidity,\n        uint256 amountTokenMin,\n        uint256 amountETHMin,\n        address to,\n        uint256 deadline\n    ) external returns (uint256 amountETH) {}\n\n    function removeLiquidityETHWithPermitSupportingFeeOnTransferTokens(\n        address token,\n        uint256 liquidity,\n        uint256 amountTokenMin,\n        uint256 amountETHMin,\n        address to,\n        uint256 deadline,\n        bool approveMax,\n        uint8 v,\n        bytes32 r,\n        bytes32 s\n    ) external returns (uint256 amountETH) {}\n\n    function swapExactTokensForTokensSupportingFeeOnTransferTokens(\n        uint256 amountIn,\n        uint256 amountOutMin,\n        address[] calldata path,\n        address to,\n        uint256 deadline\n    ) external {\n        _mockSwapExactTokensForTokens(\n                amountIn,\n                amountOutMin,\n                path,\n                to,\n                deadline\n            );\n    }\n\n    function swapExactETHForTokensSupportingFeeOnTransferTokens(\n        uint256 amountOutMin,\n        address[] calldata path,\n        address to,\n        uint256 deadline\n    ) external payable {}\n\n    function swapExactTokensForETHSupportingFeeOnTransferTokens(\n        uint256 amountIn,\n        uint256 amountOutMin,\n        address[] calldata path,\n        address to,\n        uint256 deadline\n    ) external {}\n}\n\n/// @title MockSafeSwapBalancer: Mock contract for testing the SafeSwapBalancer library\ncontract MockSafeSwapBalancer {\n    using SafeSwapBalancer for IBalancerVault;\n\n    function safeSwap(\n        address _balancerVault,\n        bytes32 _poolId,\n        SafeSwapParams memory _swapParams\n    ) public {\n        IBalancerVault(_balancerVault).safeSwap(_poolId, _swapParams);\n    }\n}\n\n/// @title MockIBalancerVault: Mock contract for the IBalancerVault library\ncontract MockIBalancerVault is IBalancerVault {\n    event SwappedToken(uint256 indexed amountIn, uint256 indexed minAmountOut);\n\n    mapping(address => uint256) internal _cash;\n\n    function setCash(address _token, uint256 _amount) public {\n        _cash[_token] = _amount;\n    }\n\n    function swap(\n        SingleSwap memory singleSwap,\n        FundManagement memory funds,\n        uint256 limit,\n        uint256 deadline\n    ) external payable returns (uint256 amountCalculated) {\n        emit SwappedToken(singleSwap.amount, limit);\n    }\n\n    function getPoolTokenInfo(bytes32 poolId, IERC20 token)\n        external\n        returns (\n            uint256 cash,\n            uint256 managed,\n            uint256 blockNumber,\n            address assetManager\n        )\n    {\n        cash = _cash[address(token)];\n    }\n\n    function getPoolTokens(bytes32 poolId)\n        external\n        view\n        returns (\n            IERC20[] memory tokens,\n            uint256[] memory balances,\n            uint256 lastChangeBlock\n        )\n    {}\n\n    function joinPool(\n        bytes32 poolId,\n        address sender,\n        address recipient,\n        JoinPoolRequest memory request\n    ) external {}\n\n    function exitPool(\n        bytes32 poolId,\n        address sender,\n        address payable recipient,\n        ExitPoolRequest memory request\n    ) external {}\n}\n",
  "sourcePath": "/Users/kristophm/Documents/workspace/zorro-protocol/contracts/libraries/mocks/MockSafeSwap.sol",
  "compiler": {
    "name": "solc",
    "version": "0.8.10+commit.fc410830.Emscripten.clang"
  },
  "schemaVersion": "3.4.4",
  "updatedAt": "2022-04-30T15:43:21.345Z",
  "networkType": "ethereum",
  "devdoc": {
    "kind": "dev",
    "methods": {},
    "title": "MockIBalancerVault: Mock contract for the IBalancerVault library",
    "version": 1
  },
  "userdoc": {
    "kind": "user",
    "methods": {},
    "version": 1
  }
}