{
  "contractName": "MockApeLendingRainMaker",
  "abi": [
    {
      "inputs": [
        {
          "internalType": "address",
          "name": "holder",
          "type": "address"
        }
      ],
      "name": "claimComp",
      "outputs": [],
      "stateMutability": "nonpayable",
      "type": "function"
    }
  ],
  "bytecode": "0x608060405234801561001057600080fd5b5060ca8061001f6000396000f3fe6080604052348015600f57600080fd5b50600436106044577c01000000000000000000000000000000000000000000000000000000006000350463e9af029281146049575b600080fd5b605760543660046059565b50565b005b600060208284031215606a57600080fd5b813573ffffffffffffffffffffffffffffffffffffffff81168114608d57600080fd5b939250505056fea26469706673582212201872f83bcc14021f00fa587aa55b2d44a3bb3c0073a5b0076676e78baac518c364736f6c634300080a0033",
  "immutableReferences": {},
  "source": "// SPDX-License-Identifier: MIT\n\npragma solidity ^0.8.0;\n\nimport \"../VaultApeLending.sol\";\n\nimport \"../../interfaces/ApeLending/ICErc20Interface.sol\";\n\nimport \"../../interfaces/ApeLending/IRainMaker.sol\";\n\nimport \"../../interfaces/ApeLending/IUnitroller.sol\";\n\ncontract MockVaultApeLending is VaultApeLending {\n    // TODO: fill in necessary methods to be able to run tests\n}\n\n// TODO: Fill in these methods\ncontract MockApeLendingPool is ICErc20Interface {\n    function mint(uint mintAmount) external returns (uint) {\n\n    }\n\n    function redeem(uint redeemTokens) external returns (uint) {\n\n    }\n\n    function redeemUnderlying(uint redeemAmount) external returns (uint) {\n\n    }\n\n    function borrow(uint borrowAmount) external returns (uint) {\n\n    }\n\n    function repayBorrow(uint repayAmount) external returns (uint) {\n\n    }\n\n    function repayBorrowBehalf(address borrower, uint repayAmount) external returns (uint) {\n\n    }\n\n    function borrowBalanceCurrent(address account) external returns (uint) {\n\n    }\n\n    function balanceOfUnderlying(address owner) external returns (uint) {\n\n    }\n\n    function getCash() external view returns (uint) {\n\n    }\n}\n\ncontract MockApeLendingRainMaker is IRainMaker {\n    function claimComp(address holder) external {\n\n    }\n}\n\ncontract MockApeLendingUnitroller is IUnitrollerApeLending {\n    function markets ( address ) external view returns ( bool isListed, uint256 collateralFactorMantissa, uint256 liquidationFactorMantissa, uint256 liquidationIncentiveMantissa, uint256 activeCollateralUSDCap, uint256 activeCollateralCTokenUsage) {\n\n    }\n}\n",
  "sourcePath": "/Users/kristophm/Documents/workspace/zorro-protocol/contracts/vaults/mocks/MockVaultApeLending.sol",
  "compiler": {
    "name": "solc",
    "version": "0.8.10+commit.fc410830.Emscripten.clang"
  },
  "schemaVersion": "3.4.10",
  "updatedAt": "2022-11-13T01:12:10.903Z",
  "devdoc": {
    "kind": "dev",
    "methods": {},
    "version": 1
  },
  "userdoc": {
    "kind": "user",
    "methods": {},
    "version": 1
  }
}