{
  "contractName": "MockZorroController",
  "abi": [
    {
      "anonymous": false,
      "inputs": [
        {
          "indexed": true,
          "internalType": "address",
          "name": "account",
          "type": "address"
        },
        {
          "indexed": true,
          "internalType": "bytes",
          "name": "foreignAccount",
          "type": "bytes"
        },
        {
          "indexed": true,
          "internalType": "uint256",
          "name": "pid",
          "type": "uint256"
        },
        {
          "indexed": false,
          "internalType": "uint256",
          "name": "wantAmount",
          "type": "uint256"
        }
      ],
      "name": "Deposit",
      "type": "event"
    },
    {
      "anonymous": false,
      "inputs": [
        {
          "indexed": true,
          "internalType": "uint256",
          "name": "_rewardsDue",
          "type": "uint256"
        }
      ],
      "name": "HandledRewards",
      "type": "event"
    },
    {
      "anonymous": false,
      "inputs": [
        {
          "indexed": true,
          "internalType": "address",
          "name": "previousOwner",
          "type": "address"
        },
        {
          "indexed": true,
          "internalType": "address",
          "name": "newOwner",
          "type": "address"
        }
      ],
      "name": "OwnershipTransferred",
      "type": "event"
    },
    {
      "anonymous": false,
      "inputs": [
        {
          "indexed": false,
          "internalType": "address",
          "name": "account",
          "type": "address"
        },
        {
          "indexed": true,
          "internalType": "uint256",
          "name": "fromPid",
          "type": "uint256"
        },
        {
          "indexed": true,
          "internalType": "uint256",
          "name": "fromTrancheId",
          "type": "uint256"
        },
        {
          "indexed": true,
          "internalType": "uint256",
          "name": "toPid",
          "type": "uint256"
        }
      ],
      "name": "TransferInvestment",
      "type": "event"
    },
    {
      "anonymous": false,
      "inputs": [
        {
          "indexed": true,
          "internalType": "uint256",
          "name": "_amount",
          "type": "uint256"
        }
      ],
      "name": "UpdatedPool",
      "type": "event"
    },
    {
      "anonymous": false,
      "inputs": [
        {
          "indexed": true,
          "internalType": "address",
          "name": "account",
          "type": "address"
        },
        {
          "indexed": true,
          "internalType": "bytes",
          "name": "foreignAccount",
          "type": "bytes"
        },
        {
          "indexed": true,
          "internalType": "uint256",
          "name": "pid",
          "type": "uint256"
        },
        {
          "indexed": false,
          "internalType": "uint256",
          "name": "trancheId",
          "type": "uint256"
        },
        {
          "indexed": false,
          "internalType": "uint256",
          "name": "wantAmount",
          "type": "uint256"
        }
      ],
      "name": "Withdraw",
      "type": "event"
    },
    {
      "inputs": [
        {
          "internalType": "uint256",
          "name": "",
          "type": "uint256"
        }
      ],
      "name": "USDCToZorroLPPoolOtherTokenPath",
      "outputs": [
        {
          "internalType": "address",
          "name": "",
          "type": "address"
        }
      ],
      "stateMutability": "view",
      "type": "function"
    },
    {
      "inputs": [
        {
          "internalType": "uint256",
          "name": "",
          "type": "uint256"
        }
      ],
      "name": "USDCToZorroPath",
      "outputs": [
        {
          "internalType": "address",
          "name": "",
          "type": "address"
        }
      ],
      "stateMutability": "view",
      "type": "function"
    },
    {
      "inputs": [],
      "name": "ZORRO",
      "outputs": [
        {
          "internalType": "address",
          "name": "",
          "type": "address"
        }
      ],
      "stateMutability": "view",
      "type": "function"
    },
    {
      "inputs": [],
      "name": "ZORRODailyDistributionFactorBasisPointsMax",
      "outputs": [
        {
          "internalType": "uint256",
          "name": "",
          "type": "uint256"
        }
      ],
      "stateMutability": "view",
      "type": "function"
    },
    {
      "inputs": [],
      "name": "ZORRODailyDistributionFactorBasisPointsMin",
      "outputs": [
        {
          "internalType": "uint256",
          "name": "",
          "type": "uint256"
        }
      ],
      "stateMutability": "view",
      "type": "function"
    },
    {
      "inputs": [],
      "name": "ZORROPerBlock",
      "outputs": [
        {
          "internalType": "uint256",
          "name": "",
          "type": "uint256"
        }
      ],
      "stateMutability": "view",
      "type": "function"
    },
    {
      "inputs": [],
      "name": "accSynthRewardsMinted",
      "outputs": [
        {
          "internalType": "uint256",
          "name": "",
          "type": "uint256"
        }
      ],
      "stateMutability": "view",
      "type": "function"
    },
    {
      "inputs": [],
      "name": "accSynthRewardsSlashed",
      "outputs": [
        {
          "internalType": "uint256",
          "name": "",
          "type": "uint256"
        }
      ],
      "stateMutability": "view",
      "type": "function"
    },
    {
      "inputs": [
        {
          "internalType": "uint256",
          "name": "_allocPoint",
          "type": "uint256"
        },
        {
          "internalType": "contract IERC20Upgradeable",
          "name": "_want",
          "type": "address"
        },
        {
          "internalType": "bool",
          "name": "_withUpdate",
          "type": "bool"
        },
        {
          "internalType": "address",
          "name": "_vault",
          "type": "address"
        }
      ],
      "name": "add",
      "outputs": [],
      "stateMutability": "nonpayable",
      "type": "function"
    },
    {
      "inputs": [],
      "name": "baseRewardRateBasisPoints",
      "outputs": [
        {
          "internalType": "uint256",
          "name": "",
          "type": "uint256"
        }
      ],
      "stateMutability": "view",
      "type": "function"
    },
    {
      "inputs": [],
      "name": "blocksPerDay",
      "outputs": [
        {
          "internalType": "uint256",
          "name": "",
          "type": "uint256"
        }
      ],
      "stateMutability": "view",
      "type": "function"
    },
    {
      "inputs": [],
      "name": "burnAddress",
      "outputs": [
        {
          "internalType": "address",
          "name": "",
          "type": "address"
        }
      ],
      "stateMutability": "view",
      "type": "function"
    },
    {
      "inputs": [],
      "name": "chainId",
      "outputs": [
        {
          "internalType": "uint256",
          "name": "",
          "type": "uint256"
        }
      ],
      "stateMutability": "view",
      "type": "function"
    },
    {
      "inputs": [],
      "name": "chainMultiplier",
      "outputs": [
        {
          "internalType": "uint256",
          "name": "",
          "type": "uint256"
        }
      ],
      "stateMutability": "view",
      "type": "function"
    },
    {
      "inputs": [],
      "name": "defaultStablecoin",
      "outputs": [
        {
          "internalType": "address",
          "name": "",
          "type": "address"
        }
      ],
      "stateMutability": "view",
      "type": "function"
    },
    {
      "inputs": [
        {
          "internalType": "uint256",
          "name": "_pid",
          "type": "uint256"
        },
        {
          "internalType": "uint256",
          "name": "_wantAmt",
          "type": "uint256"
        },
        {
          "internalType": "uint256",
          "name": "_weeksCommitted",
          "type": "uint256"
        }
      ],
      "name": "deposit",
      "outputs": [],
      "stateMutability": "nonpayable",
      "type": "function"
    },
    {
      "inputs": [
        {
          "internalType": "uint256",
          "name": "_pid",
          "type": "uint256"
        },
        {
          "internalType": "uint256",
          "name": "_valueUSDC",
          "type": "uint256"
        },
        {
          "internalType": "uint256",
          "name": "_weeksCommitted",
          "type": "uint256"
        },
        {
          "internalType": "uint256",
          "name": "_maxMarketMovement",
          "type": "uint256"
        }
      ],
      "name": "depositFullService",
      "outputs": [],
      "stateMutability": "nonpayable",
      "type": "function"
    },
    {
      "inputs": [
        {
          "internalType": "uint256",
          "name": "_pid",
          "type": "uint256"
        },
        {
          "internalType": "address",
          "name": "_account",
          "type": "address"
        },
        {
          "internalType": "bytes",
          "name": "_foreignAccount",
          "type": "bytes"
        },
        {
          "internalType": "uint256",
          "name": "_valueUSDC",
          "type": "uint256"
        },
        {
          "internalType": "uint256",
          "name": "_weeksCommitted",
          "type": "uint256"
        },
        {
          "internalType": "uint256",
          "name": "_vaultEnteredAt",
          "type": "uint256"
        },
        {
          "internalType": "uint256",
          "name": "_maxMarketMovement",
          "type": "uint256"
        }
      ],
      "name": "depositFullServiceFromXChain",
      "outputs": [],
      "stateMutability": "nonpayable",
      "type": "function"
    },
    {
      "inputs": [
        {
          "internalType": "uint256",
          "name": "",
          "type": "uint256"
        },
        {
          "internalType": "bytes",
          "name": "",
          "type": "bytes"
        },
        {
          "internalType": "uint256",
          "name": "",
          "type": "uint256"
        }
      ],
      "name": "foreignTrancheInfo",
      "outputs": [
        {
          "internalType": "address",
          "name": "",
          "type": "address"
        }
      ],
      "stateMutability": "view",
      "type": "function"
    },
    {
      "inputs": [
        {
          "internalType": "uint256",
          "name": "durationInWeeks",
          "type": "uint256"
        }
      ],
      "name": "getTimeMultiplier",
      "outputs": [
        {
          "internalType": "uint256",
          "name": "timeMultiplier",
          "type": "uint256"
        }
      ],
      "stateMutability": "view",
      "type": "function"
    },
    {
      "inputs": [
        {
          "internalType": "uint256",
          "name": "_totalMinted",
          "type": "uint256"
        },
        {
          "internalType": "uint256",
          "name": "_totalSlashed",
          "type": "uint256"
        }
      ],
      "name": "handleAccXChainRewards",
      "outputs": [],
      "stateMutability": "nonpayable",
      "type": "function"
    },
    {
      "inputs": [],
      "name": "homeChainId",
      "outputs": [
        {
          "internalType": "uint256",
          "name": "",
          "type": "uint256"
        }
      ],
      "stateMutability": "view",
      "type": "function"
    },
    {
      "inputs": [],
      "name": "homeChainZorroController",
      "outputs": [
        {
          "internalType": "address",
          "name": "",
          "type": "address"
        }
      ],
      "stateMutability": "view",
      "type": "function"
    },
    {
      "inputs": [
        {
          "internalType": "address",
          "name": "_token",
          "type": "address"
        },
        {
          "internalType": "uint256",
          "name": "_amount",
          "type": "uint256"
        }
      ],
      "name": "inCaseTokensGetStuck",
      "outputs": [],
      "stateMutability": "nonpayable",
      "type": "function"
    },
    {
      "inputs": [
        {
          "components": [
            {
              "internalType": "address",
              "name": "ZORRO",
              "type": "address"
            },
            {
              "internalType": "address",
              "name": "defaultStablecoin",
              "type": "address"
            },
            {
              "internalType": "address",
              "name": "zorroLPPoolOtherToken",
              "type": "address"
            },
            {
              "internalType": "address",
              "name": "publicPool",
              "type": "address"
            },
            {
              "internalType": "address",
              "name": "zorroStakingVault",
              "type": "address"
            },
            {
              "internalType": "address",
              "name": "zorroLPPool",
              "type": "address"
            },
            {
              "internalType": "address",
              "name": "uniRouterAddress",
              "type": "address"
            },
            {
              "internalType": "address[]",
              "name": "USDCToZorroPath",
              "type": "address[]"
            },
            {
              "internalType": "address[]",
              "name": "USDCToZorroLPPoolOtherTokenPath",
              "type": "address[]"
            },
            {
              "components": [
                {
                  "internalType": "uint256",
                  "name": "blocksPerDay",
                  "type": "uint256"
                },
                {
                  "internalType": "uint256",
                  "name": "startBlock",
                  "type": "uint256"
                },
                {
                  "internalType": "uint256",
                  "name": "ZORROPerBlock",
                  "type": "uint256"
                },
                {
                  "internalType": "uint256",
                  "name": "targetTVLCaptureBasisPoints",
                  "type": "uint256"
                },
                {
                  "internalType": "uint256",
                  "name": "chainMultiplier",
                  "type": "uint256"
                },
                {
                  "internalType": "uint256",
                  "name": "baseRewardRateBasisPoints",
                  "type": "uint256"
                }
              ],
              "internalType": "struct ZorroController.ZorroControllerRewards",
              "name": "rewards",
              "type": "tuple"
            },
            {
              "components": [
                {
                  "internalType": "uint256",
                  "name": "chainId",
                  "type": "uint256"
                },
                {
                  "internalType": "uint256",
                  "name": "homeChainId",
                  "type": "uint256"
                },
                {
                  "internalType": "address",
                  "name": "homeChainZorroController",
                  "type": "address"
                },
                {
                  "internalType": "address",
                  "name": "zorroControllerOracle",
                  "type": "address"
                },
                {
                  "internalType": "address",
                  "name": "zorroXChainEndpoint",
                  "type": "address"
                }
              ],
              "internalType": "struct ZorroController.ZorroControllerXChainParams",
              "name": "xChain",
              "type": "tuple"
            },
            {
              "components": [
                {
                  "internalType": "address",
                  "name": "priceFeedZOR",
                  "type": "address"
                },
                {
                  "internalType": "address",
                  "name": "priceFeedLPPoolOtherToken",
                  "type": "address"
                }
              ],
              "internalType": "struct ZorroController.ZorroControllerPriceFeeds",
              "name": "priceFeeds",
              "type": "tuple"
            }
          ],
          "internalType": "struct ZorroController.ZorroControllerInit",
          "name": "_initValue",
          "type": "tuple"
        }
      ],
      "name": "initialize",
      "outputs": [],
      "stateMutability": "nonpayable",
      "type": "function"
    },
    {
      "inputs": [],
      "name": "isTimeMultiplierActive",
      "outputs": [
        {
          "internalType": "bool",
          "name": "",
          "type": "bool"
        }
      ],
      "stateMutability": "view",
      "type": "function"
    },
    {
      "inputs": [],
      "name": "massUpdatePools",
      "outputs": [
        {
          "internalType": "uint256",
          "name": "_mintedZOR",
          "type": "uint256"
        }
      ],
      "stateMutability": "nonpayable",
      "type": "function"
    },
    {
      "inputs": [],
      "name": "owner",
      "outputs": [
        {
          "internalType": "address",
          "name": "",
          "type": "address"
        }
      ],
      "stateMutability": "view",
      "type": "function"
    },
    {
      "inputs": [
        {
          "internalType": "uint256",
          "name": "_pid",
          "type": "uint256"
        },
        {
          "internalType": "address",
          "name": "_account",
          "type": "address"
        },
        {
          "internalType": "int256",
          "name": "_trancheId",
          "type": "int256"
        }
      ],
      "name": "pendingZORRORewards",
      "outputs": [
        {
          "internalType": "uint256",
          "name": "pendingRewards",
          "type": "uint256"
        }
      ],
      "stateMutability": "view",
      "type": "function"
    },
    {
      "inputs": [
        {
          "internalType": "uint256",
          "name": "",
          "type": "uint256"
        }
      ],
      "name": "poolInfo",
      "outputs": [
        {
          "internalType": "contract IERC20Upgradeable",
          "name": "want",
          "type": "address"
        },
        {
          "internalType": "uint256",
          "name": "allocPoint",
          "type": "uint256"
        },
        {
          "internalType": "uint256",
          "name": "lastRewardBlock",
          "type": "uint256"
        },
        {
          "internalType": "uint256",
          "name": "accZORRORewards",
          "type": "uint256"
        },
        {
          "internalType": "uint256",
          "name": "totalTrancheContributions",
          "type": "uint256"
        },
        {
          "internalType": "address",
          "name": "vault",
          "type": "address"
        }
      ],
      "stateMutability": "view",
      "type": "function"
    },
    {
      "inputs": [],
      "name": "poolLength",
      "outputs": [
        {
          "internalType": "uint256",
          "name": "",
          "type": "uint256"
        }
      ],
      "stateMutability": "view",
      "type": "function"
    },
    {
      "inputs": [],
      "name": "priceFeedLPPoolOtherToken",
      "outputs": [
        {
          "internalType": "contract AggregatorV3Interface",
          "name": "",
          "type": "address"
        }
      ],
      "stateMutability": "view",
      "type": "function"
    },
    {
      "inputs": [],
      "name": "priceFeedZOR",
      "outputs": [
        {
          "internalType": "contract AggregatorV3Interface",
          "name": "",
          "type": "address"
        }
      ],
      "stateMutability": "view",
      "type": "function"
    },
    {
      "inputs": [],
      "name": "publicPool",
      "outputs": [
        {
          "internalType": "address",
          "name": "",
          "type": "address"
        }
      ],
      "stateMutability": "view",
      "type": "function"
    },
    {
      "inputs": [],
      "name": "renounceOwnership",
      "outputs": [],
      "stateMutability": "nonpayable",
      "type": "function"
    },
    {
      "inputs": [
        {
          "internalType": "uint256",
          "name": "_rewardsDue",
          "type": "uint256"
        },
        {
          "internalType": "address",
          "name": "_destination",
          "type": "address"
        }
      ],
      "name": "repatriateRewards",
      "outputs": [],
      "stateMutability": "nonpayable",
      "type": "function"
    },
    {
      "inputs": [],
      "name": "resetSyntheticRewardsMinted",
      "outputs": [],
      "stateMutability": "nonpayable",
      "type": "function"
    },
    {
      "inputs": [],
      "name": "resetSyntheticRewardsSlashed",
      "outputs": [],
      "stateMutability": "nonpayable",
      "type": "function"
    },
    {
      "inputs": [
        {
          "internalType": "uint256",
          "name": "_pid",
          "type": "uint256"
        },
        {
          "internalType": "uint256",
          "name": "_allocPoint",
          "type": "uint256"
        },
        {
          "internalType": "bool",
          "name": "_withUpdate",
          "type": "bool"
        }
      ],
      "name": "set",
      "outputs": [],
      "stateMutability": "nonpayable",
      "type": "function"
    },
    {
      "inputs": [
        {
          "internalType": "address",
          "name": "_burnAddress",
          "type": "address"
        }
      ],
      "name": "setBurnAddress",
      "outputs": [],
      "stateMutability": "nonpayable",
      "type": "function"
    },
    {
      "inputs": [
        {
          "internalType": "bool",
          "name": "_isActive",
          "type": "bool"
        }
      ],
      "name": "setIsTimeMultiplierActive",
      "outputs": [],
      "stateMutability": "nonpayable",
      "type": "function"
    },
    {
      "inputs": [
        {
          "internalType": "address",
          "name": "_ZORRO",
          "type": "address"
        },
        {
          "internalType": "address",
          "name": "_defaultStablecoin",
          "type": "address"
        }
      ],
      "name": "setKeyAddresses",
      "outputs": [],
      "stateMutability": "nonpayable",
      "type": "function"
    },
    {
      "inputs": [
        {
          "internalType": "address",
          "name": "_priceFeedZOR",
          "type": "address"
        },
        {
          "internalType": "address",
          "name": "_priceFeedLPPoolOtherToken",
          "type": "address"
        }
      ],
      "name": "setPriceFeeds",
      "outputs": [],
      "stateMutability": "nonpayable",
      "type": "function"
    },
    {
      "inputs": [
        {
          "internalType": "uint256",
          "name": "_blocksPerDay",
          "type": "uint256"
        },
        {
          "internalType": "uint256[]",
          "name": "_dailyDistFactors",
          "type": "uint256[]"
        },
        {
          "internalType": "uint256",
          "name": "_chainMultiplier",
          "type": "uint256"
        },
        {
          "internalType": "uint256",
          "name": "_baseRewardRateBasisPoints",
          "type": "uint256"
        }
      ],
      "name": "setRewardsParams",
      "outputs": [],
      "stateMutability": "nonpayable",
      "type": "function"
    },
    {
      "inputs": [
        {
          "internalType": "uint256",
          "name": "_startBlock",
          "type": "uint256"
        }
      ],
      "name": "setStartBlock",
      "outputs": [],
      "stateMutability": "nonpayable",
      "type": "function"
    },
    {
      "inputs": [
        {
          "internalType": "uint256",
          "name": "_targetTVLCaptureBasisPoints",
          "type": "uint256"
        }
      ],
      "name": "setTargetTVLCaptureBasisPoints",
      "outputs": [],
      "stateMutability": "nonpayable",
      "type": "function"
    },
    {
      "inputs": [
        {
          "internalType": "address[]",
          "name": "_path",
          "type": "address[]"
        }
      ],
      "name": "setUSDCToZORPath",
      "outputs": [],
      "stateMutability": "nonpayable",
      "type": "function"
    },
    {
      "inputs": [
        {
          "internalType": "address[]",
          "name": "_path",
          "type": "address[]"
        }
      ],
      "name": "setUSDCToZorroLPPoolOtherTokenPath",
      "outputs": [],
      "stateMutability": "nonpayable",
      "type": "function"
    },
    {
      "inputs": [
        {
          "internalType": "address",
          "name": "_uniV2Router",
          "type": "address"
        }
      ],
      "name": "setUniRouter",
      "outputs": [],
      "stateMutability": "nonpayable",
      "type": "function"
    },
    {
      "inputs": [
        {
          "internalType": "uint256",
          "name": "_chainId",
          "type": "uint256"
        },
        {
          "internalType": "uint256",
          "name": "_homeChainId",
          "type": "uint256"
        },
        {
          "internalType": "address",
          "name": "_homeChainZorroController",
          "type": "address"
        }
      ],
      "name": "setXChainParams",
      "outputs": [],
      "stateMutability": "nonpayable",
      "type": "function"
    },
    {
      "inputs": [
        {
          "internalType": "address",
          "name": "_publicPool",
          "type": "address"
        },
        {
          "internalType": "address",
          "name": "_zorroStakingVault",
          "type": "address"
        }
      ],
      "name": "setZorroContracts",
      "outputs": [],
      "stateMutability": "nonpayable",
      "type": "function"
    },
    {
      "inputs": [
        {
          "internalType": "address",
          "name": "_zorroControllerOracle",
          "type": "address"
        }
      ],
      "name": "setZorroControllerOracle",
      "outputs": [],
      "stateMutability": "nonpayable",
      "type": "function"
    },
    {
      "inputs": [
        {
          "internalType": "address",
          "name": "_zorroLPPool",
          "type": "address"
        },
        {
          "internalType": "address",
          "name": "_zorroLPPoolOtherToken",
          "type": "address"
        }
      ],
      "name": "setZorroLPPoolParams",
      "outputs": [],
      "stateMutability": "nonpayable",
      "type": "function"
    },
    {
      "inputs": [
        {
          "internalType": "uint256",
          "name": "_totalChainMultipliers",
          "type": "uint256"
        },
        {
          "internalType": "uint256",
          "name": "_totalMarketTVLUSD",
          "type": "uint256"
        },
        {
          "internalType": "uint256",
          "name": "_targetTVLCaptureBasisPoints",
          "type": "uint256"
        },
        {
          "internalType": "uint256",
          "name": "_ZorroTotalVaultTVLUSD",
          "type": "uint256"
        },
        {
          "internalType": "uint256",
          "name": "_publicPoolZORBalance",
          "type": "uint256"
        }
      ],
      "name": "setZorroPerBlock",
      "outputs": [],
      "stateMutability": "nonpayable",
      "type": "function"
    },
    {
      "inputs": [
        {
          "internalType": "address",
          "name": "_contract",
          "type": "address"
        }
      ],
      "name": "setZorroXChainEndpoint",
      "outputs": [],
      "stateMutability": "nonpayable",
      "type": "function"
    },
    {
      "inputs": [
        {
          "internalType": "uint256",
          "name": "_pid",
          "type": "uint256"
        },
        {
          "internalType": "address",
          "name": "_account",
          "type": "address"
        },
        {
          "internalType": "int256",
          "name": "_trancheId",
          "type": "int256"
        }
      ],
      "name": "stakedWantTokens",
      "outputs": [
        {
          "internalType": "uint256",
          "name": "stakedWantAmt",
          "type": "uint256"
        }
      ],
      "stateMutability": "view",
      "type": "function"
    },
    {
      "inputs": [],
      "name": "startBlock",
      "outputs": [
        {
          "internalType": "uint256",
          "name": "",
          "type": "uint256"
        }
      ],
      "stateMutability": "view",
      "type": "function"
    },
    {
      "inputs": [],
      "name": "targetTVLCaptureBasisPoints",
      "outputs": [
        {
          "internalType": "uint256",
          "name": "",
          "type": "uint256"
        }
      ],
      "stateMutability": "view",
      "type": "function"
    },
    {
      "inputs": [],
      "name": "totalAllocPoint",
      "outputs": [
        {
          "internalType": "uint256",
          "name": "",
          "type": "uint256"
        }
      ],
      "stateMutability": "view",
      "type": "function"
    },
    {
      "inputs": [
        {
          "internalType": "uint256",
          "name": "",
          "type": "uint256"
        },
        {
          "internalType": "address",
          "name": "",
          "type": "address"
        },
        {
          "internalType": "uint256",
          "name": "",
          "type": "uint256"
        }
      ],
      "name": "trancheInfo",
      "outputs": [
        {
          "internalType": "uint256",
          "name": "contribution",
          "type": "uint256"
        },
        {
          "internalType": "uint256",
          "name": "timeMultiplier",
          "type": "uint256"
        },
        {
          "internalType": "uint256",
          "name": "rewardDebt",
          "type": "uint256"
        },
        {
          "internalType": "uint256",
          "name": "durationCommittedInWeeks",
          "type": "uint256"
        },
        {
          "internalType": "uint256",
          "name": "enteredVaultAt",
          "type": "uint256"
        },
        {
          "internalType": "uint256",
          "name": "exitedVaultAt",
          "type": "uint256"
        }
      ],
      "stateMutability": "view",
      "type": "function"
    },
    {
      "inputs": [
        {
          "internalType": "uint256",
          "name": "_pid",
          "type": "uint256"
        },
        {
          "internalType": "address",
          "name": "_user",
          "type": "address"
        }
      ],
      "name": "trancheLength",
      "outputs": [
        {
          "internalType": "uint256",
          "name": "",
          "type": "uint256"
        }
      ],
      "stateMutability": "view",
      "type": "function"
    },
    {
      "inputs": [
        {
          "internalType": "uint256",
          "name": "_fromPid",
          "type": "uint256"
        },
        {
          "internalType": "uint256",
          "name": "_fromTrancheId",
          "type": "uint256"
        },
        {
          "internalType": "uint256",
          "name": "_toPid",
          "type": "uint256"
        },
        {
          "internalType": "uint256",
          "name": "_maxMarketMovement",
          "type": "uint256"
        }
      ],
      "name": "transferInvestment",
      "outputs": [],
      "stateMutability": "nonpayable",
      "type": "function"
    },
    {
      "inputs": [
        {
          "internalType": "address",
          "name": "newOwner",
          "type": "address"
        }
      ],
      "name": "transferOwnership",
      "outputs": [],
      "stateMutability": "nonpayable",
      "type": "function"
    },
    {
      "inputs": [],
      "name": "uniRouterAddress",
      "outputs": [
        {
          "internalType": "address",
          "name": "",
          "type": "address"
        }
      ],
      "stateMutability": "view",
      "type": "function"
    },
    {
      "inputs": [
        {
          "internalType": "uint256",
          "name": "_pid",
          "type": "uint256"
        }
      ],
      "name": "updatePool",
      "outputs": [
        {
          "internalType": "uint256",
          "name": "mintedZOR",
          "type": "uint256"
        }
      ],
      "stateMutability": "nonpayable",
      "type": "function"
    },
    {
      "inputs": [
        {
          "internalType": "uint256",
          "name": "_pid",
          "type": "uint256"
        },
        {
          "internalType": "uint256",
          "name": "_trancheId",
          "type": "uint256"
        },
        {
          "internalType": "bool",
          "name": "_harvestOnly",
          "type": "bool"
        }
      ],
      "name": "withdraw",
      "outputs": [
        {
          "internalType": "uint256",
          "name": "",
          "type": "uint256"
        }
      ],
      "stateMutability": "nonpayable",
      "type": "function"
    },
    {
      "inputs": [
        {
          "internalType": "uint256",
          "name": "_pid",
          "type": "uint256"
        }
      ],
      "name": "withdrawAll",
      "outputs": [],
      "stateMutability": "nonpayable",
      "type": "function"
    },
    {
      "inputs": [
        {
          "internalType": "uint256",
          "name": "_pid",
          "type": "uint256"
        },
        {
          "internalType": "uint256",
          "name": "_trancheId",
          "type": "uint256"
        },
        {
          "internalType": "bool",
          "name": "_harvestOnly",
          "type": "bool"
        },
        {
          "internalType": "uint256",
          "name": "_maxMarketMovement",
          "type": "uint256"
        }
      ],
      "name": "withdrawalFullService",
      "outputs": [
        {
          "internalType": "uint256",
          "name": "",
          "type": "uint256"
        }
      ],
      "stateMutability": "nonpayable",
      "type": "function"
    },
    {
      "inputs": [
        {
          "internalType": "address",
          "name": "_account",
          "type": "address"
        },
        {
          "internalType": "bytes",
          "name": "_foreignAccount",
          "type": "bytes"
        },
        {
          "internalType": "uint256",
          "name": "_pid",
          "type": "uint256"
        },
        {
          "internalType": "uint256",
          "name": "_trancheId",
          "type": "uint256"
        },
        {
          "internalType": "bool",
          "name": "_harvestOnly",
          "type": "bool"
        },
        {
          "internalType": "uint256",
          "name": "_maxMarketMovement",
          "type": "uint256"
        }
      ],
      "name": "withdrawalFullServiceFromXChain",
      "outputs": [
        {
          "internalType": "uint256",
          "name": "_amountUSDC",
          "type": "uint256"
        },
        {
          "internalType": "uint256",
          "name": "_rewardsDueXChain",
          "type": "uint256"
        }
      ],
      "stateMutability": "nonpayable",
      "type": "function"
    },
    {
      "inputs": [],
      "name": "zorroControllerOracle",
      "outputs": [
        {
          "internalType": "address",
          "name": "",
          "type": "address"
        }
      ],
      "stateMutability": "view",
      "type": "function"
    },
    {
      "inputs": [],
      "name": "zorroLPPool",
      "outputs": [
        {
          "internalType": "address",
          "name": "",
          "type": "address"
        }
      ],
      "stateMutability": "view",
      "type": "function"
    },
    {
      "inputs": [],
      "name": "zorroLPPoolOtherToken",
      "outputs": [
        {
          "internalType": "address",
          "name": "",
          "type": "address"
        }
      ],
      "stateMutability": "view",
      "type": "function"
    },
    {
      "inputs": [],
      "name": "zorroStakingVault",
      "outputs": [
        {
          "internalType": "address",
          "name": "",
          "type": "address"
        }
      ],
      "stateMutability": "view",
      "type": "function"
    },
    {
      "inputs": [],
      "name": "zorroXChainEndpoint",
      "outputs": [
        {
          "internalType": "address",
          "name": "",
          "type": "address"
        }
      ],
      "stateMutability": "view",
      "type": "function"
    },
    {
      "inputs": [
        {
          "internalType": "uint256",
          "name": "_pid",
          "type": "uint256"
        },
        {
          "internalType": "address",
          "name": "_account",
          "type": "address"
        },
        {
          "components": [
            {
              "internalType": "uint256",
              "name": "contribution",
              "type": "uint256"
            },
            {
              "internalType": "uint256",
              "name": "timeMultiplier",
              "type": "uint256"
            },
            {
              "internalType": "uint256",
              "name": "rewardDebt",
              "type": "uint256"
            },
            {
              "internalType": "uint256",
              "name": "durationCommittedInWeeks",
              "type": "uint256"
            },
            {
              "internalType": "uint256",
              "name": "enteredVaultAt",
              "type": "uint256"
            },
            {
              "internalType": "uint256",
              "name": "exitedVaultAt",
              "type": "uint256"
            }
          ],
          "internalType": "struct ZorroControllerBase.TrancheInfo",
          "name": "_trancheInfo",
          "type": "tuple"
        }
      ],
      "name": "addTranche",
      "outputs": [],
      "stateMutability": "nonpayable",
      "type": "function"
    },
    {
      "inputs": [
        {
          "internalType": "uint256",
          "name": "_pid",
          "type": "uint256"
        },
        {
          "internalType": "uint256",
          "name": "_block",
          "type": "uint256"
        }
      ],
      "name": "setLastRewardBlock",
      "outputs": [],
      "stateMutability": "nonpayable",
      "type": "function"
    },
    {
      "inputs": [
        {
          "internalType": "uint256",
          "name": "_pid",
          "type": "uint256"
        }
      ],
      "name": "updatePoolMod",
      "outputs": [],
      "stateMutability": "nonpayable",
      "type": "function"
    },
    {
      "inputs": [
        {
          "internalType": "uint256",
          "name": "_pid",
          "type": "uint256"
        },
        {
          "internalType": "address",
          "name": "_localAccount",
          "type": "address"
        },
        {
          "internalType": "bytes",
          "name": "_foreignAccount",
          "type": "bytes"
        },
        {
          "internalType": "uint256",
          "name": "_trancheId",
          "type": "uint256"
        },
        {
          "internalType": "bool",
          "name": "_harvestOnly",
          "type": "bool"
        },
        {
          "internalType": "bool",
          "name": "_xChainRepatriation",
          "type": "bool"
        }
      ],
      "name": "withdrawMod",
      "outputs": [
        {
          "components": [
            {
              "internalType": "uint256",
              "name": "wantAmt",
              "type": "uint256"
            },
            {
              "internalType": "uint256",
              "name": "rewardsDueXChain",
              "type": "uint256"
            }
          ],
          "internalType": "struct ZorroControllerInvestment.WithdrawalResult",
          "name": "_res",
          "type": "tuple"
        }
      ],
      "stateMutability": "nonpayable",
      "type": "function"
    },
    {
      "inputs": [
        {
          "internalType": "uint256",
          "name": "_mintedRewards",
          "type": "uint256"
        }
      ],
      "name": "recordMintedRewards",
      "outputs": [],
      "stateMutability": "nonpayable",
      "type": "function"
    },
    {
      "inputs": [
        {
          "internalType": "uint256",
          "name": "_slashedRewards",
          "type": "uint256"
        }
      ],
      "name": "recordSlashedRewards",
      "outputs": [],
      "stateMutability": "nonpayable",
      "type": "function"
    }
  ],
  "bytecode": "0x608060405234801561001057600080fd5b50614a42806100206000396000f3fe608060405234801561001057600080fd5b506004361061047f5760003560e01c80637bf604d811610257578063b37b8c3211610146578063cff38dd4116100c3578063ef12696711610087578063ef12696714610a6f578063f2fde38b14610a78578063f35e4a6e14610a8b578063f63cce3714610a9e578063fc39a29e14610ab157600080fd5b8063cff38dd414610a10578063d12facd414610a23578063ebfba7c414610a36578063ed43633f14610a49578063ee4e268714610a5c57600080fd5b8063c13260a51161010a578063c13260a5146109c5578063c2936142146109d8578063c4e94f22146109e1578063c6d758cb146109f4578063cb9c2f6814610a0757600080fd5b8063b37b8c3214610943578063b4b4e9eb14610956578063b61bb80a14610996578063b95cc681146109a9578063bdb2fc8b146109b257600080fd5b8063985b0a0d116101d45780639e941bfe116101985780639e941bfe146108ef5780639ec68c7614610902578063a13346c614610915578063a4d2b0831461091d578063b22f32511461093057600080fd5b8063985b0a0d146108a4578063985e7a87146108b75780639a448c0c146108ca5780639a8a0592146108dd5780639cebd371146108e657600080fd5b80638da5cb5b1161021b5780638da5cb5b14610836578063941d3fd0146108475780639568786c1461086b578063958e2d311461087e57806396cfe3011461089157600080fd5b80637bf604d8146107d75780637e37c769146107ea578063823c43d0146107fd5780638766eb08146108105780638c157db21461082357600080fd5b806348cd4cb111610373578063630b5ba1116102f05780636c78d49c116102b45780636c78d49c1461078357806370d5ae0514610796578063715018a6146107a9578063745af0a8146107b157806379777d81146107c457600080fd5b8063630b5ba11461072f57806364482f7914610737578063668ababb1461074a578063693a090b1461075d5780636b8eb2e51461077057600080fd5b8063529668321161033757806352966832146106e457806353f73f87146106ed5780635527a6f9146107005780635c63fa87146107095780635f70edcf1461071c57600080fd5b806348cd4cb1146106995780634b0e7216146106a25780634cfea68a146106b55780635051d371146106be57806351eb05a6146106d157600080fd5b80632e31283d116104015780633b710688116103c55780633b710688146106395780633b9ce565146106425780633bbc1ffc1461064b57806340abd8fc1461065e5780634780f9f51461068657600080fd5b80632e31283d146105a25780633332fcf4146105ed57806333cfcd3b14610600578063363530f61461061357806339e80a881461062657600080fd5b80630aa0988e116104485780630aa0988e146104f9578063104a61321461050c5780631526fe271461053757806317caf6f1146105865780631b8fb6921461058f57600080fd5b8062aeef8a1461048457806304fa083114610499578063068f158d146104cc578063081e3eda146104df57806309b79b3c146104f1575b600080fd5b610497610492366004613cae565b610ac4565b005b6104ac6104a7366004613de6565b610b60565b604080518251815260209283015192810192909252015b60405180910390f35b6104976104da366004613e6e565b610bbe565b60aa545b6040519081526020016104c3565b610497610c16565b610497610507366004613e6e565b610c74565b61051f61051a366004613ea7565b610ccc565b6040516001600160a01b0390911681526020016104c3565b61054a610545366004613ea7565b610cf6565b604080516001600160a01b03978816815260208101969096528501939093526060840191909152608083015290911660a082015260c0016104c3565b6104e360a45481565b61049761059d366004613ec0565b610d49565b61051f6105b0366004613ee5565b60ac60209081526000938452604080852084518086018401805192815290840195840195909520945292905282529020546001600160a01b031681565b6104976105fb366004613fb1565b610df7565b6104e361060e366004613fe5565b610e34565b610497610621366004614184565b610ece565b60b55461051f906001600160a01b031681565b6104e360a35481565b6104e360a15481565b610497610659366004613ea7565b611132565b61067161066c3660046142cb565b61118b565b604080519283526020830191909152016104c3565b61049761069436600461434a565b611223565b6104e3609c5481565b6104976106b036600461437c565b6112b2565b6104e3609d5481565b6104976106cc36600461437c565b6112fe565b6104e36106df366004613ea7565b61134a565b6104e360a55481565b6104e36106fb366004613ec0565b61150c565b6104e360a05481565b610497610717366004614399565b611536565b61049761072a3660046143c7565b61158a565b6104e3611743565b610497610745366004613fe5565b6117d7565b60995461051f906001600160a01b031681565b60b05461051f906001600160a01b031681565b61049761077e36600461441a565b611888565b610497610791366004614455565b61193c565b609b5461051f906001600160a01b031681565b610497611984565b6104e36107bf366004614472565b6119ba565b60b45461051f906001600160a01b031681565b60ae5461051f906001600160a01b031681565b6104976107f836600461434a565b611a31565b60ad5461051f906001600160a01b031681565b6104e361081e3660046144b1565b611ba4565b60975461051f906001600160a01b031681565b6033546001600160a01b031661051f565b60ad5461085b90600160a01b900460ff1681565b60405190151581526020016104c3565b6104e3610879366004613ea7565b611e18565b61049761088c366004613ea7565b611e63565b61049761089f3660046144e9565b611f8d565b6104e36108b23660046144b1565b612056565b6104976108c5366004613ea7565b612242565b61051f6108d8366004613ea7565b61227f565b6104e360a75481565b6104e360a25481565b6104976108fd366004613ea7565b61228f565b610497610910366004613e6e565b6122bf565b610497612317565b609a5461051f906001600160a01b031681565b60b35461051f906001600160a01b031681565b610497610951366004613ea7565b61238f565b6109696109643660046144b1565b6123bc565b604080519687526020870195909552938501929092526060840152608083015260a082015260c0016104c3565b60985461051f906001600160a01b031681565b6104e360a65481565b6104976109c0366004613fb1565b61241d565b6104976109d3366004614529565b61245a565b6104e3609e5481565b6104976109ef36600461437c565b6124f9565b610497610a0236600461454b565b612545565b6104e3609f5481565b610497610a1e366004614577565b6125ff565b610497610a31366004614529565b612691565b60af5461051f906001600160a01b031681565b610497610a573660046145f4565b6126be565b610497610a6a36600461437c565b612734565b6104e360a85481565b610497610a8636600461437c565b612780565b610497610a99366004613ea7565b612818565b610497610aac366004613e6e565b61288f565b60a95461051f906001600160a01b031681565b60026065541415610af05760405162461bcd60e51b8152600401610ae790614681565b60405180910390fd5b6002606581905550600060aa8481548110610b0d57610b0d6146b8565b600091825260209091206006909102018054909150610b37906001600160a01b0316333086612911565b610b54843360405180602001604052806000815250868642612982565b50506001606555505050565b6040805180820190915260008082526020820152610b82878787878787612b6f565b6020810151604051919250907f0bff6dc62993b9df3cfb8d9a50174415317acf48b477e7da2b0f1accb3b62c7790600090a29695505050505050565b6033546001600160a01b03163314610be85760405162461bcd60e51b8152600401610ae7906146ce565b60b380546001600160a01b039384166001600160a01b03199182161790915560b48054929093169116179055565b60ad546001600160a01b0316336001600160a01b031614610c495760405162461bcd60e51b8152600401610ae790614703565b60a85460a7541415610c6d5760405162461bcd60e51b8152600401610ae79061472e565b600060a555565b6033546001600160a01b03163314610c9e5760405162461bcd60e51b8152600401610ae7906146ce565b609780546001600160a01b039384166001600160a01b03199182161790915560988054929093169116179055565b60b18181548110610cdc57600080fd5b6000918252602090912001546001600160a01b0316905081565b60aa8181548110610d0657600080fd5b60009182526020909120600690910201805460018201546002830154600384015460048501546005909501546001600160a01b0394851696509294919390921686565b60b5546001600160a01b0316336001600160a01b031614610d7c5760405162461bcd60e51b8152600401610ae790614765565b60a85460a7541415610d8d575b5050565b6097546040516340c10f1960e01b81526001600160a01b03838116600483015260248201859052909116906340c10f1990604401600060405180830381600087803b158015610ddb57600080fd5b505af1158015610def573d6000803e3d6000fd5b505050505050565b6033546001600160a01b03163314610e215760405162461bcd60e51b8152600401610ae7906146ce565b8051610d899060b1906020840190613c34565b600060026065541415610e595760405162461bcd60e51b8152600401610ae790614681565b60026065819055506000610e8185336040518060200160405280600081525087876000612b6f565b9050610ec033826000015160aa8881548110610e9f57610e9f6146b8565b60009182526020909120600690910201546001600160a01b03169190613016565b516001606555949350505050565b600054610100900460ff16610ee95760005460ff1615610eed565b303b155b610f505760405162461bcd60e51b815260206004820152602e60248201527f496e697469616c697a61626c653a20636f6e747261637420697320616c72656160448201526d191e481a5b9a5d1a585b1a5e995960921b6064820152608401610ae7565b600054610100900460ff16158015610f72576000805461ffff19166101011790555b8151609780546001600160a01b03199081166001600160a01b039384161790915560208085015160988054841691851691909117905560408086015160af80548516918616919091179055606080870151609980548616918716919091179055608080880151609a8054871691881691909117905560a08089015160ae8054881691891691909117905560c089015160b080548816918916919091179055609b805461dead90881617905560019055601460a15560ad80546101208a01518051609d5580870151609c5580860151609e5580850151609f5583015160a281905560a3556101408a0151805160a7558087015160a8559485015160a980548916918a1691909117905592840151600160a01b6001600160a81b03199094169088161792909217909155015160b58054909316931692909217905560e083015180516110c09260b1920190613c34565b5061010082015180516110db9160b291602090910190613c34565b50610160820151805160b380546001600160a01b03199081166001600160a01b039384161790915560209092015160b48054909316911617905561111d61304b565b8015610d89576000805461ff00191690555050565b6033546001600160a01b0316331461115c5760405162461bcd60e51b8152600401610ae7906146ce565b60a9546001600160a01b031630146111865760405162461bcd60e51b8152600401610ae79061478a565b609f55565b60b55460009081906001600160a01b0316336001600160a01b0316146111c35760405162461bcd60e51b8152600401610ae790614765565b6111d3888888888888600161307a565b909250905081156111f5576098546111f5906001600160a01b03163384613016565b801561121857609b54609754611218916001600160a01b03918216911683613016565b965096945050505050565b600260655414156112465760405162461bcd60e51b8152600401610ae790614681565b6002606581905550600060aa8581548110611263576112636146b8565b60009182526020909120600560069092020101546098546001600160a01b0391821692506112949116338387612911565b610b5485336040518060200160405280600081525087874288613189565b6033546001600160a01b031633146112dc5760405162461bcd60e51b8152600401610ae7906146ce565b609b80546001600160a01b0319166001600160a01b0392909216919091179055565b6033546001600160a01b031633146113285760405162461bcd60e51b8152600401610ae7906146ce565b60ad80546001600160a01b0319166001600160a01b0392909216919091179055565b60008060aa8381548110611360576113606146b8565b90600052602060002090600602019050806002015443116113845750600092915050565b600581015460408051632251caaf60e11b815290516000926001600160a01b0316916344a3955e9160048083019260209291908290030181865afa1580156113d0573d6000803e3d6000fd5b505050506040513d601f19601f820116820180604052508101906113f491906147b3565b90508061140b575043600290910155506000919050565b600061142483600201544361325c90919063ffffffff16565b9050600061145760a454611451866001015461144b609e548761326890919063ffffffff16565b90613268565b90613274565b60a9549091506001600160a01b031630141561147657600094506114e6565b6097546040516340c10f1960e01b8152306004820152602481018390526001600160a01b03909116906340c10f1990604401600060405180830381600087803b1580156114c257600080fd5b505af11580156114d6573d6000803e3d6000fd5b505050508094506114e685613280565b60038401546114f590826132b7565b600385015550504360029092019190915550919050565b600082815260ab602090815260408083206001600160a01b03851684529091529020545b92915050565b6033546001600160a01b031633146115605760405162461bcd60e51b8152600401610ae7906146ce565b60a79290925560a85560a980546001600160a01b0319166001600160a01b03909216919091179055565b6033546001600160a01b031633146115b45760405162461bcd60e51b8152600401610ae7906146ce565b81156115c4576115c2611743565b505b6000609c5443116115d757609c546115d9565b435b60a4549091506115e990866132b7565b60a4556040805160c0810182526001600160a01b039586168152602081019687529081019182526000606082018181526080830182815294871660a0840190815260aa80546001810182559352925160069092027f550d3de95be0bd28a79c3eb4ea7f05692c60b0602e48b49461e703379b08a71a810180549389166001600160a01b031994851617905597517f550d3de95be0bd28a79c3eb4ea7f05692c60b0602e48b49461e703379b08a71b89015592517f550d3de95be0bd28a79c3eb4ea7f05692c60b0602e48b49461e703379b08a71c88015591517f550d3de95be0bd28a79c3eb4ea7f05692c60b0602e48b49461e703379b08a71d87015591517f550d3de95be0bd28a79c3eb4ea7f05692c60b0602e48b49461e703379b08a71e86015590517f550d3de95be0bd28a79c3eb4ea7f05692c60b0602e48b49461e703379b08a71f909401805494909316931692909217905550565b60aa54600090815b818110156117d2576040516328f582d360e11b8152600481018290526117c09030906351eb05a6906024016020604051808303816000875af1158015611795573d6000803e3d6000fd5b505050506040513d601f19601f820116820180604052508101906117b991906147b3565b84906132b7565b92506117cb816147e2565b905061174b565b505090565b6033546001600160a01b031633146118015760405162461bcd60e51b8152600401610ae7906146ce565b80156118115761180f611743565b505b6118548261184e60aa868154811061182b5761182b6146b8565b90600052602060002090600602016001015460a45461325c90919063ffffffff16565b906132b7565b60a4819055508160aa848154811061186e5761186e6146b8565b906000526020600020906006020160010181905550505050565b60ad546001600160a01b0316336001600160a01b0316146118bb5760405162461bcd60e51b8152600401610ae790614703565b60006118e56118cc84612710613268565b6114518661144b8960a35461326890919063ffffffff16565b905060a1548111156118fa575060a154611909565b60a054811015611909575060a0545b609d54611931906119209061144b89612710613268565b60a2546114519061144b8686613268565b609e55505050505050565b6033546001600160a01b031633146119665760405162461bcd60e51b8152600401610ae7906146ce565b60ad8054911515600160a01b0260ff60a01b19909216919091179055565b6033546001600160a01b031633146119ae5760405162461bcd60e51b8152600401610ae7906146ce565b6119b860006132c3565b565b6000600260655414156119df5760405162461bcd60e51b8152600401610ae790614681565b60026065819055506000611a08336040518060200160405280600081525088888888600061307a565b50609854909150611a23906001600160a01b03163383613016565b600160655595945050505050565b60026065541415611a545760405162461bcd60e51b8152600401610ae790614681565b6002606555600084815260ab602090815260408083203384529091528120805485908110611a8457611a846146b8565b600091825260208083206003600690930201919091015487835260ab8252604080842033855290925290822080549193509086908110611ac657611ac66146b8565b90600052602060002090600602016004015490506000611afc33604051806020016040528060008152508989600089600061307a565b509050611b3f60aa8681548110611b1557611b156146b8565b60009182526020909120600560069092020101546098546001600160a01b03908116911683613016565b611b5d8533604051806020016040528060008152508487878a613189565b6040513381528590879089907f67e7aba7263d8fbeb0cd9a2f4008f060a6a03f46c1d7f9d0550f0b93e96e96f89060200160405180910390a4505060016065555050505050565b60008060aa8581548110611bba57611bba6146b8565b9060005260206000209060060201905060008160050160009054906101000a90046001600160a01b03166001600160a01b03166344a3955e6040518163ffffffff1660e01b8152600401602060405180830381865afa158015611c21573d6000803e3d6000fd5b505050506040513d601f19601f82011682018060405250810190611c4591906147b3565b905060008260050160009054906101000a90046001600160a01b03166001600160a01b03166342da4eb36040518163ffffffff1660e01b8152600401602060405180830381865afa158015611c9e573d6000803e3d6000fd5b505050506040513d601f19601f82011682018060405250810190611cc291906147b3565b905081611cce57600093505b6000851215611d7f576000611ce3888861150c565b905060005b81811015611d7857600089815260ab602090815260408083206001600160a01b038c1684529091528120805483908110611d2457611d246146b8565b90600052602060002090600602019050611d64611d5d611d5183600101548861326890919063ffffffff16565b83546114519088613268565b88906132b7565b96505080611d71906147e2565b9050611ce8565b5050611e0e565b600087815260ab602090815260408083206001600160a01b038a1684529091528120805487908110611db357611db36146b8565b90600052602060002090600602019050806005015460001415611e0757611e00611df9611ded83600101548661326890919063ffffffff16565b83546114519086613268565b86906132b7565b9450611e0c565b600094505b505b5050509392505050565b60ad5464e8d4a5100090600160a01b900460ff1615611e5e57611e5b64e8d4a5100061184e6103e8611451600261144b8581611e568b612710613268565b613315565b90505b919050565b60026065541415611e865760405162461bcd60e51b8152600401610ae790614681565b60026065556000611e97823361150c565b905060005b81811015611ed357611ec283336040518060200160405280600081525084600080612b6f565b50611ecc816147e2565b9050611e9c565b50600060aa8381548110611ee957611ee96146b8565b60009182526020909120600690910201546040516370a0823160e01b81523060048201526001600160a01b03909116906370a0823190602401602060405180830381865afa158015611f3f573d6000803e3d6000fd5b505050506040513d601f19601f82011682018060405250810190611f6391906147b3565b90508015611f8357611f83338260aa8681548110610e9f57610e9f6146b8565b5050600160655550565b600083815260ab602090815260408083206001600160a01b0386168452825280832080546001818101835591855293839020855160069095020184815592850151908301558301516002820155606083015160038201556080830151600482015560a083015160059091015560aa80548590811061200d5761200d6146b8565b90600052602060002090600602016004015461202991906147fd565b60aa848154811061203c5761203c6146b8565b906000526020600020906006020160040181905550505050565b60008060aa858154811061206c5761206c6146b8565b9060005260206000209060060201905060008160030154905081600201544311156120e25760006120aa83600201544361325c90919063ffffffff16565b905060006120d160a454611451866001015461144b609e548761326890919063ffffffff16565b90506120dd83826132b7565b925050505b60048201546120f65760009250505061223b565b60008412156121bb57600061210b878761150c565b905060005b818110156121b457600088815260ab602090815260408083206001600160a01b038b168452909152812080548390811061214c5761214c6146b8565b906000526020600020906006020190508060050154600014156121a3576121a06121998260020154612193886004015461145189876000015461326890919063ffffffff16565b9061325c565b87906132b7565b95505b506121ad816147e2565b9050612110565b5050612238565b600086815260ab602090815260408083206001600160a01b038916845290915281208054869081106121ef576121ef6146b8565b906000526020600020906006020190508060050154600014156122325760028101546004840154825461222b9291612193916114519087613268565b9350611e0e565b60009350505b50505b9392505050565b600061224d8261134a565b60405190915081907fa844e7199a9e0826e5c245adcd2d35f2f100069597a3e7512afe58f772c4eca990600090a25050565b60b28181548110610cdc57600080fd5b60a85460a75414156122b35760405162461bcd60e51b8152600401610ae79061472e565b6122bc8161338c565b50565b6033546001600160a01b031633146122e95760405162461bcd60e51b8152600401610ae7906146ce565b60ae80546001600160a01b039384166001600160a01b03199182161790915560af8054929093169116179055565b60ad546001600160a01b0316336001600160a01b03161461234a5760405162461bcd60e51b8152600401610ae790614703565b60a85460a754141561236e5760405162461bcd60e51b8152600401610ae79061472e565b609b5460a654609754610c6d926001600160a01b0391821692911690613016565b60a85460a75414156123b35760405162461bcd60e51b8152600401610ae79061472e565b6122bc81613280565b60ab60205282600052604060002060205281600052604060002081815481106123e457600080fd5b60009182526020909120600690910201805460018201546002830154600384015460048501546005909501549397509195509350919086565b6033546001600160a01b031633146124475760405162461bcd60e51b8152600401610ae7906146ce565b8051610d899060b2906020840190613c34565b60ad546001600160a01b0316336001600160a01b03161461248d5760405162461bcd60e51b8152600401610ae790614703565b60a9546001600160a01b031630146124b75760405162461bcd60e51b8152600401610ae79061478a565b609b546124e4906001600160a01b03166124d1848461325c565b6097546001600160a01b03169190613016565b609a54610d899082906001600160a01b031682565b6033546001600160a01b031633146125235760405162461bcd60e51b8152600401610ae7906146ce565b60b580546001600160a01b0319166001600160a01b0392909216919091179055565b6033546001600160a01b0316331461256f5760405162461bcd60e51b8152600401610ae7906146ce565b6097546001600160a01b03838116911614156125eb5760405162461bcd60e51b815260206004820152603560248201527f217361666520746f20757365205a6f72726f20746f6b656e20696e2066756e6360448201527420696e43617365546f6b656e73476574537475636b60581b6064820152608401610ae7565b610d896001600160a01b0383163383613016565b60b5546001600160a01b0316336001600160a01b0316146126325760405162461bcd60e51b8152600401610ae790614765565b600060aa8881548110612647576126476146b8565b60009182526020909120600560069092020101546098546001600160a01b0391821692506126789116338388612911565b61268788888888888888613189565b5050505050505050565b8060aa83815481106126a5576126a56146b8565b9060005260206000209060060201600201819055505050565b6033546001600160a01b031633146126e85760405162461bcd60e51b8152600401610ae7906146ce565b609d85905583836000816126fe576126fe6146b8565b602002919091013560a055508383600181811061271d5761271d6146b8565b602002919091013560a1555060a35560a255505050565b6033546001600160a01b0316331461275e5760405162461bcd60e51b8152600401610ae7906146ce565b60b080546001600160a01b0319166001600160a01b0392909216919091179055565b6033546001600160a01b031633146127aa5760405162461bcd60e51b8152600401610ae7906146ce565b6001600160a01b03811661280f5760405162461bcd60e51b815260206004820152602660248201527f4f776e61626c653a206e6577206f776e657220697320746865207a65726f206160448201526564647265737360d01b6064820152608401610ae7565b6122bc816132c3565b6033546001600160a01b031633146128425760405162461bcd60e51b8152600401610ae7906146ce565b609c541561288a5760405162461bcd60e51b8152602060048201526015602482015274626c6f636b506172616d7320696d6d757461626c6560581b6044820152606401610ae7565b609c55565b6033546001600160a01b031633146128b95760405162461bcd60e51b8152600401610ae7906146ce565b60a9546001600160a01b031630146128e35760405162461bcd60e51b8152600401610ae79061478a565b609980546001600160a01b039384166001600160a01b031991821617909155609a8054929093169116179055565b6040516001600160a01b038085166024830152831660448201526064810182905261297c9085906323b872dd60e01b906084015b60408051601f198184030181529190526020810180516001600160e01b03166001600160e01b0319909316929092179091526133c3565b50505050565b60008060aa8881548110612998576129986146b8565b90600052602060002090600602019050600085116129f05760405162461bcd60e51b81526020600482015260156024820152745f77616e74416d74206d757374206265203e20302160581b6044820152606401610ae7565b6129f98861134a565b91506000612a078888613495565b60058301548354919250612a28916001600160a01b0390811691168861351d565b600060aa8a81548110612a3d57612a3d6146b8565b600091825260209091206006909102016005015460405163ba0bb4ab60e01b81526001600160a01b038481166004830152602482018a90529091169063ba0bb4ab906044016020604051808303816000875af1158015612aa1573d6000803e3d6000fd5b505050506040513d601f19601f82011682018060405250810190612ac591906147b3565b90506000612ad287611e18565b90506000612ae083836135cf565b6004860154909150612af290826132b7565b6004860155612b068c858c84868d8d6135e4565b8b8a604051612b159190614841565b6040518091039020856001600160a01b03167fc6b1f1535b3bb3bdffa2f97a671ab7bd6f2512deec58103fa47eb40ed95274278c604051612b5891815260200190565b60405180910390a450505050509695505050505050565b60408051808201909152600080825260208201526001600160a01b038616158015612b9b575060008551115b80612bb857506001600160a01b03861615801590612bb857508451155b612c045760405162461bcd60e51b815260206004820152601d60248201527f4f6e6c79206f6e65206163636f756e74207479706520616c6c6f7765640000006044820152606401610ae7565b6000612c128886888a613790565b9050600060aa8981548110612c2957612c296146b8565b906000526020600020906006020190506000826000015111612c8d5760405162461bcd60e51b815260206004820152601960248201527f7472616e6368652e636f6e747269627574696f6e2069732030000000000000006044820152606401610ae7565b6000816004015411612ce15760405162461bcd60e51b815260206004820152601e60248201527f746f74616c5472616e636865436f6e747269627574696f6e73206973203000006044820152606401610ae7565b60a082015115612d2a5760405162461bcd60e51b8152602060048201526014602482015273105b1c9958591e48195e1a5d1959081d985d5b1d60621b6044820152606401610ae7565b612d338961134a565b506000612d61836040015161219384600401546114518660030154886000015161326890919063ffffffff16565b90508015612e0d57600080612d768584613933565b915091508615612dc3576020860182905260a85460a7541415612db4578015612daf57609a54612daf906001600160a01b0316826139c8565b612e0a565b8015612daf57612daf8161338c565b8115612dd357612dd38b836139c8565b60a85460a7541415612dfb578015612daf57609a54612daf906001600160a01b0316826139c8565b8015612e0a57612e0a8161338c565b50505b85613009576000612e1e8a8a613495565b905060aa8b81548110612e3357612e336146b8565b6000918252602091829020600560069092020101548551918601516001600160a01b039091169163e0ccabfa918491612e6b91613a5e565b6040516001600160e01b031960e085901b1681526001600160a01b03909216600483015260248201526044016020604051808303816000875af1158015612eb6573d6000803e3d6000fd5b505050506040513d601f19601f82011682018060405250810190612eda91906147b3565b5083516004840154612eeb9161325c565b60048481019190915583546040516370a0823160e01b815230928101929092526001600160a01b0316906370a0823190602401602060405180830381865afa158015612f3b573d6000803e3d6000fd5b505050506040513d601f19601f82011682018060405250810190612f5f91906147b3565b855260008b815260ab602090815260408083206001600160a01b0385168452909152902080544291908a908110612f9857612f986146b8565b9060005260206000209060060201600501819055508a89604051612fbc9190614841565b6040805191829003822088518c84526020840152916001600160a01b038e16917fa7749cd42821d3b82a6814af6d80712b2e43f98ec1b25aee31c8351855de65d9910160405180910390a4505b5050509695505050505050565b6040516001600160a01b03831660248201526044810182905261304690849063a9059cbb60e01b90606401612945565b505050565b600054610100900460ff166130725760405162461bcd60e51b8152600401610ae79061485d565b6119b8613a73565b600080600060aa8881548110613092576130926146b8565b600091825260208220600560069092020101546001600160a01b031691506130be898c8c8b8b8a612b6f565b90506130fd82826000015160aa8c815481106130dc576130dc6146b8565b60009182526020909120600690910201546001600160a01b0316919061351d565b8051604051631921e52960e21b81526004810191909152602481018790526001600160a01b0383169063648794a4906044016020604051808303816000875af115801561314e573d6000803e3d6000fd5b505050506040513d601f19601f8201168201806040525081019061317291906147b3565b935080602001519250505097509795505050505050565b600060aa888154811061319e5761319e6146b8565b600091825260208220600691909102016005015460405163e502a88d60e01b815260048101889052602481018590526001600160a01b039091169250829063e502a88d906044016020604051808303816000875af1158015613204573d6000803e3d6000fd5b505050506040513d601f19601f8201168201806040525081019061322891906147b3565b9050613242828260aa8c815481106130dc576130dc6146b8565b613250898989848989612982565b50505050505050505050565b600061223b82846148a8565b600061223b82846148bf565b600061223b82846148de565b60a85460a75414156132a45760405162461bcd60e51b8152600401610ae79061472e565b60a5546132b190826132b7565b60a55550565b600061223b82846147fd565b603380546001600160a01b038381166001600160a01b0319831681179093556040519116919082907f8be0079c531659141344cd1fd0a4f28419497f9722a3daafe3b4186f6b6457e090600090a35050565b60008161332457506000919050565b6003821161333457506001919050565b600060026133438460016147fd565b61334d91906148de565b90508291505b818110156133865790508060028161336b81866148de565b61337591906147fd565b61337f91906148de565b9050613353565b50919050565b60a85460a75414156133b05760405162461bcd60e51b8152600401610ae79061472e565b60a6546133bd90826132b7565b60a65550565b6000613418826040518060400160405280602081526020017f5361666545524332303a206c6f772d6c6576656c2063616c6c206661696c6564815250856001600160a01b0316613aa39092919063ffffffff16565b80519091501561304657808060200190518101906134369190614900565b6130465760405162461bcd60e51b815260206004820152602a60248201527f5361666545524332303a204552433230206f7065726174696f6e20646964206e6044820152691bdd081cdd58d8d9595960b21b6064820152608401610ae7565b816001600160a01b03811661153057600082511161350a5760405162461bcd60e51b815260206004820152602c60248201527f4e65697468657220666f726569676e2061636374206e6f72206c6f63616c206160448201526b18d8dd081c1c9bdd9a59195960a21b6064820152608401610ae7565b6135138261491d565b60601c9392505050565b604051636eb1769f60e11b81523060048201526001600160a01b038381166024830152600091839186169063dd62ed3e90604401602060405180830381865afa15801561356e573d6000803e3d6000fd5b505050506040513d601f19601f8201168201806040525081019061359291906147b3565b61359c91906147fd565b6040516001600160a01b03851660248201526044810182905290915061297c90859063095ea7b360e01b90606401612945565b600061223b64e8d4a510006114518585613268565b600060aa88815481106135f9576135f96146b8565b600091825260208083206040805160c08082018352600690950290920180546001600160a01b03908116845260018201548486015260028201548484015260038201546060850190815260048301546080860190815260059093015490911660a0850152825195860183528b86529385018a905251925191955083019161368491611451908b613268565b815260208082018790526040808301879052600060609384018190528d815260ab83528181206001600160a01b038e1682528352818120805460018181018355918352918490208651600690930201918255928501519281019290925583015160028201559082015160038201556080820151600482015560a0820151600590910155875190915015613785578760ac60008b8152602001908152602001600020886040516137339190614841565b9081526020016040518091039020600061375260016121938e8e61150c565b815260200190815260200160002060006101000a8154816001600160a01b0302191690836001600160a01b031602179055505b505050505050505050565b6137c96040518060c001604052806000815260200160008152602001600081526020016000815260200160008152602001600081525090565b6001600160a01b0382161561386857600085815260ab602090815260408083206001600160a01b0386168452909152902080548590811061380c5761380c6146b8565b90600052602060002090600602016040518060c00160405290816000820154815260200160018201548152602001600282015481526020016003820154815260200160048201548152602001600582015481525050905061392b565b600085815260ac60205260408082209051613884908690614841565b908152604080516020928190038301902060008881529083528181205489825260ab84528282206001600160a01b03909116808352935220805491925090869081106138d2576138d26146b8565b90600052602060002090600602016040518060c001604052908160008201548152602001600182015481526020016002820154815260200160038201548152602001600482015481526020016005820154815250509150505b949350505050565b60008060008311613949575060009050806139c1565b600061397d4261397761396c62093a80896060015161326890919063ffffffff16565b608089015190613ab2565b90613abe565b905060008113156139bb5760608501516139a89061399e9062093a80613268565b6114518684613268565b91506139b4848361325c565b92506139bf565b8392505b505b9250929050565b6097546040516370a0823160e01b815230600482015282916000916001600160a01b03909116906370a0823190602401602060405180830381865afa158015613a15573d6000803e3d6000fd5b505050506040513d601f19601f82011682018060405250810190613a3991906147b3565b905080831115613a47578091505b60975461297c906001600160a01b03168584613016565b600061223b826114518564e8d4a51000613268565b600054610100900460ff16613a9a5760405162461bcd60e51b8152600401610ae79061485d565b6119b8336132c3565b606061392b8484600085613aca565b600061223b8284614959565b600061223b828461499a565b606082471015613b2b5760405162461bcd60e51b815260206004820152602660248201527f416464726573733a20696e73756666696369656e742062616c616e636520666f6044820152651c8818d85b1b60d21b6064820152608401610ae7565b6001600160a01b0385163b613b825760405162461bcd60e51b815260206004820152601d60248201527f416464726573733a2063616c6c20746f206e6f6e2d636f6e74726163740000006044820152606401610ae7565b600080866001600160a01b03168587604051613b9e9190614841565b60006040518083038185875af1925050503d8060008114613bdb576040519150601f19603f3d011682016040523d82523d6000602084013e613be0565b606091505b5091509150613bf0828286613bfb565b979650505050505050565b60608315613c0a57508161223b565b825115613c1a5782518084602001fd5b8160405162461bcd60e51b8152600401610ae791906149d9565b828054828255906000526020600020908101928215613c89579160200282015b82811115613c8957825182546001600160a01b0319166001600160a01b03909116178255602090920191600190910190613c54565b50613c95929150613c99565b5090565b5b80821115613c955760008155600101613c9a565b600080600060608486031215613cc357600080fd5b505081359360208301359350604090920135919050565b6001600160a01b03811681146122bc57600080fd5b8035611e5e81613cda565b634e487b7160e01b600052604160045260246000fd5b60405161018081016001600160401b0381118282101715613d3357613d33613cfa565b60405290565b604051601f8201601f191681016001600160401b0381118282101715613d6157613d61613cfa565b604052919050565b600082601f830112613d7a57600080fd5b81356001600160401b03811115613d9357613d93613cfa565b613da6601f8201601f1916602001613d39565b818152846020838601011115613dbb57600080fd5b816020850160208301376000918101602001919091529392505050565b80151581146122bc57600080fd5b60008060008060008060c08789031215613dff57600080fd5b863595506020870135613e1181613cda565b945060408701356001600160401b03811115613e2c57600080fd5b613e3889828a01613d69565b945050606087013592506080870135613e5081613dd8565b915060a0870135613e6081613dd8565b809150509295509295509295565b60008060408385031215613e8157600080fd5b8235613e8c81613cda565b91506020830135613e9c81613cda565b809150509250929050565b600060208284031215613eb957600080fd5b5035919050565b60008060408385031215613ed357600080fd5b823591506020830135613e9c81613cda565b600080600060608486031215613efa57600080fd5b8335925060208401356001600160401b03811115613f1757600080fd5b613f2386828701613d69565b925050604084013590509250925092565b600082601f830112613f4557600080fd5b813560206001600160401b03821115613f6057613f60613cfa565b8160051b613f6f828201613d39565b9283528481018201928281019087851115613f8957600080fd5b83870192505b84831015613bf0578235613fa281613cda565b82529183019190830190613f8f565b600060208284031215613fc357600080fd5b81356001600160401b03811115613fd957600080fd5b61392b84828501613f34565b600080600060608486031215613ffa57600080fd5b8335925060208401359150604084013561401381613dd8565b809150509250925092565b600060c0828403121561403057600080fd5b60405160c081018181106001600160401b038211171561405257614052613cfa565b8060405250809150823581526020830135602082015260408301356040820152606083013560608201526080830135608082015260a083013560a08201525092915050565b600060a082840312156140a957600080fd5b60405160a081018181106001600160401b03821117156140cb576140cb613cfa565b8060405250809150823581526020830135602082015260408301356140ef81613cda565b6040820152606083013561410281613cda565b6060820152608083013561411581613cda565b6080919091015292915050565b60006040828403121561413457600080fd5b604051604081018181106001600160401b038211171561415657614156613cfa565b604052905080823561416781613cda565b8152602083013561417781613cda565b6020919091015292915050565b60006020828403121561419657600080fd5b81356001600160401b03808211156141ad57600080fd5b908301906102c082860312156141c257600080fd5b6141ca613d10565b6141d383613cef565b81526141e160208401613cef565b60208201526141f260408401613cef565b604082015261420360608401613cef565b606082015261421460808401613cef565b608082015261422560a08401613cef565b60a082015261423660c08401613cef565b60c082015260e08301358281111561424d57600080fd5b61425987828601613f34565b60e083015250610100808401358381111561427357600080fd5b61427f88828701613f34565b82840152505061012091506142968683850161401e565b828201526142a8866101e08501614097565b6101408201526142bc866102808501614122565b61016082015295945050505050565b60008060008060008060c087890312156142e457600080fd5b86356142ef81613cda565b955060208701356001600160401b0381111561430a57600080fd5b61431689828a01613d69565b9550506040870135935060608701359250608087013561433581613dd8565b8092505060a087013590509295509295509295565b6000806000806080858703121561436057600080fd5b5050823594602084013594506040840135936060013592509050565b60006020828403121561438e57600080fd5b813561223b81613cda565b6000806000606084860312156143ae57600080fd5b8335925060208401359150604084013561401381613cda565b600080600080608085870312156143dd57600080fd5b8435935060208501356143ef81613cda565b925060408501356143ff81613dd8565b9150606085013561440f81613cda565b939692955090935050565b600080600080600060a0868803121561443257600080fd5b505083359560208501359550604085013594606081013594506080013592509050565b60006020828403121561446757600080fd5b813561223b81613dd8565b6000806000806080858703121561448857600080fd5b843593506020850135925060408501356144a181613dd8565b9396929550929360600135925050565b6000806000606084860312156144c657600080fd5b8335925060208401356144d881613cda565b929592945050506040919091013590565b600080600061010084860312156144ff57600080fd5b83359250602084013561451181613cda565b9150614520856040860161401e565b90509250925092565b6000806040838503121561453c57600080fd5b50508035926020909101359150565b6000806040838503121561455e57600080fd5b823561456981613cda565b946020939093013593505050565b600080600080600080600060e0888a03121561459257600080fd5b8735965060208801356145a481613cda565b955060408801356001600160401b038111156145bf57600080fd5b6145cb8a828b01613d69565b979a96995096976060810135975060808101359660a0820135965060c090910135945092505050565b60008060008060006080868803121561460c57600080fd5b8535945060208601356001600160401b038082111561462a57600080fd5b818801915088601f83011261463e57600080fd5b81358181111561464d57600080fd5b8960208260051b850101111561466257600080fd5b9699602092909201985095966040810135965060600135945092505050565b6020808252601f908201527f5265656e7472616e637947756172643a207265656e7472616e742063616c6c00604082015260600190565b634e487b7160e01b600052603260045260246000fd5b6020808252818101527f4f776e61626c653a2063616c6c6572206973206e6f7420746865206f776e6572604082015260600190565b6020808252601190820152706f6e6c79205a6f72726f206f7261636c6560781b604082015260600190565b60208082526017908201527f466f72206e6f6e20686f6d6520636861696e206f6e6c79000000000000000000604082015260600190565b6020808252600b908201526a78636861696e206f6e6c7960a81b604082015260600190565b6020808252600f908201526e37b7363c903437b6b29031b430b4b760891b604082015260600190565b6000602082840312156147c557600080fd5b5051919050565b634e487b7160e01b600052601160045260246000fd5b60006000198214156147f6576147f66147cc565b5060010190565b60008219821115614810576148106147cc565b500190565b60005b83811015614830578181015183820152602001614818565b8381111561297c5750506000910152565b60008251614853818460208701614815565b9190910192915050565b6020808252602b908201527f496e697469616c697a61626c653a20636f6e7472616374206973206e6f74206960408201526a6e697469616c697a696e6760a81b606082015260800190565b6000828210156148ba576148ba6147cc565b500390565b60008160001904831182151516156148d9576148d96147cc565b500290565b6000826148fb57634e487b7160e01b600052601260045260246000fd5b500490565b60006020828403121561491257600080fd5b815161223b81613dd8565b805160208201516bffffffffffffffffffffffff1980821692919060148310156149515780818460140360031b1b83161693505b505050919050565b600080821280156001600160ff1b038490038513161561497b5761497b6147cc565b600160ff1b8390038412811615614994576149946147cc565b50500190565b60008083128015600160ff1b8501841216156149b8576149b86147cc565b6001600160ff1b03840183138116156149d3576149d36147cc565b50500390565b60208152600082518060208401526149f8816040850160208701614815565b601f01601f1916919091016040019291505056fea2646970667358221220ee8c2d754f78f5b5e276cf9ec18756df74bc0cfc0c326e6884ae04eed57ca2d164736f6c634300080a0033",
  "immutableReferences": {},
  "source": "// SPDX-License-Identifier: MIT\n\npragma solidity ^0.8.0;\n\nimport \"../ZorroController.sol\";\n\nimport \"../../vaults/_VaultBase.sol\";\n\nimport \"../../tokens/mocks/MockToken.sol\";\n\ncontract MockZorroController is ZorroController {\n    event UpdatedPool(uint256 indexed _amount);\n    event HandledRewards(uint256 indexed _rewardsDue);\n\n    function addTranche(\n        uint256 _pid,\n        address _account,\n        TrancheInfo memory _trancheInfo\n    ) public {\n        trancheInfo[_pid][_account].push(_trancheInfo);\n        poolInfo[_pid].totalTrancheContributions =\n            poolInfo[_pid].totalTrancheContributions +\n            _trancheInfo.contribution;\n    }\n\n    function setLastRewardBlock(uint256 _pid, uint256 _block) public {\n        poolInfo[_pid].lastRewardBlock = _block;\n    }\n\n    function updatePoolMod(uint256 _pid) public {\n        uint256 _res = updatePool(_pid);\n\n        emit UpdatedPool(_res);\n    }\n\n    function withdrawMod(\n        uint256 _pid,\n        address _localAccount,\n        bytes memory _foreignAccount,\n        uint256 _trancheId,\n        bool _harvestOnly,\n        bool _xChainRepatriation\n    ) public returns (WithdrawalResult memory _res) {\n        _res = _withdraw(\n            _pid,\n            _localAccount,\n            _foreignAccount,\n            _trancheId,\n            _harvestOnly,\n            _xChainRepatriation\n        );\n        emit HandledRewards(_res.rewardsDueXChain);\n    }\n\n    function _fetchFundsFromPublicPool(uint256 _amount, address _destination)\n        internal\n        override\n    {\n        // Do nothing. Dummy func.\n    }\n\n    function recordMintedRewards(uint256 _mintedRewards)\n        public\n        nonHomeChainOnly\n    {\n        _recordMintedRewards(_mintedRewards);\n    }\n\n    function recordSlashedRewards(uint256 _slashedRewards)\n        public\n        nonHomeChainOnly\n    {\n        _recordSlashedRewards(_slashedRewards);\n    }\n}\n\ncontract MockInvestmentVault is VaultBase {\n    using SafeERC20Upgradeable for IERC20Upgradeable;\n    using SafeMathUpgradeable for uint256;\n\n    event DepositedWant(uint256 indexed _wantAmt);\n    event ExchangedUSDCForWant(\n        uint256 indexed _amountUSDC,\n        uint256 indexed _amountWant\n    );\n    event WithdrewWant(uint256 indexed _wantAmt);\n    event ExchangedWantForUSDC(\n        uint256 indexed _amountWant,\n        uint256 indexed _amountUSDC\n    );\n\n    function depositWantToken(address _account, uint256 _wantAmt)\n        public\n        override\n        onlyZorroController\n        nonReentrant\n        whenNotPaused\n        returns (uint256 sharesAdded)\n    {\n        IERC20Upgradeable(wantAddress).safeTransferFrom(\n            msg.sender,\n            burnAddress,\n            _wantAmt\n        );\n\n        sharesTotal = sharesTotal.add(_wantAmt);\n\n        wantLockedTotal = wantLockedTotal.add(_wantAmt);\n\n        emit DepositedWant(_wantAmt);\n\n        return _wantAmt;\n    }\n\n    function exchangeUSDForWantToken(\n        uint256 _amountUSDC,\n        uint256 _maxMarketMovementAllowed\n    ) public override onlyZorroController whenNotPaused returns (uint256) {\n        IERC20Upgradeable(tokenUSDCAddress).safeTransfer(\n            burnAddress,\n            _amountUSDC\n        );\n        // Assume 1:1 exch rate\n        MockERC20Upgradeable(wantAddress).mint(msg.sender, _amountUSDC);\n\n        emit ExchangedUSDCForWant(_amountUSDC, _amountUSDC);\n\n        return _amountUSDC;\n    }\n\n    function withdrawWantToken(address _account, uint256 _wantAmt)\n        public\n        override\n        onlyZorroController\n        nonReentrant\n        whenNotPaused\n        returns (uint256 sharesRemoved)\n    {\n        sharesTotal = sharesTotal.sub(_wantAmt);\n\n        wantLockedTotal = wantLockedTotal.sub(_wantAmt);\n\n        MockERC20Upgradeable(wantAddress).mint(msg.sender, _wantAmt);\n\n        emit WithdrewWant(_wantAmt);\n    }\n\n    function exchangeWantTokenForUSD(\n        uint256 _amount,\n        uint256 _maxMarketMovementAllowed\n    )\n        public\n        virtual\n        override\n        onlyZorroController\n        whenNotPaused\n        returns (uint256)\n    {\n        // Assume 1:1 exch rate\n        MockERC20Upgradeable(tokenUSDCAddress).mint(msg.sender, _amount);\n\n        emit ExchangedWantForUSDC(_amount, _amount);\n\n        return _amount;\n    }\n\n    function earn(uint256 _maxMarketMovementAllowed) public override {}\n\n    function _buybackOnChain(\n        uint256 _amount,\n        uint256 _maxMarketMovementAllowed,\n        ExchangeRates memory _rates\n    ) internal override {}\n\n    function _revShareOnChain(\n        uint256 _amount,\n        uint256 _maxMarketMovementAllowed,\n        ExchangeRates memory _rates\n    ) internal override {}\n\n    function _swapEarnedToUSDC(\n        uint256 _earnedAmount,\n        address _destination,\n        uint256 _maxMarketMovementAllowed,\n        ExchangeRates memory _rates\n    ) internal override {}\n\n    function farm() external {}\n}\n\ncontract MockInvestmentVault1 is MockInvestmentVault {}\n",
  "sourcePath": "/Users/kristophm/Documents/workspace/zorro-protocol/contracts/controllers/mocks/MockZorroController.sol",
  "compiler": {
    "name": "solc",
    "version": "0.8.10+commit.fc410830.Emscripten.clang"
  },
  "schemaVersion": "3.4.4",
  "updatedAt": "2022-06-17T15:16:30.283Z",
  "devdoc": {
    "kind": "dev",
    "methods": {
      "add(uint256,address,bool,address)": {
        "details": "DO NOT add the same Want token more than once. Rewards will be messed up if you do. (Only if Want tokens are stored here.)",
        "params": {
          "_allocPoint": "The number of allocation points for this pool (aka \"multiplier\")",
          "_vault": "The contract address of the underlying vault",
          "_want": "The address of the want token",
          "_withUpdate": "Mass update all pools if set to true"
        }
      },
      "deposit(uint256,uint256,uint256)": {
        "params": {
          "_pid": "index of pool",
          "_wantAmt": "how much Want token to deposit",
          "_weeksCommitted": "how many weeks the user is committing to on this vault"
        }
      },
      "depositFullService(uint256,uint256,uint256,uint256)": {
        "params": {
          "_maxMarketMovement": "factor to account for max market movement/slippage. The definition varies by Vault, so consult the associated Vault contract for info",
          "_pid": "index of pool to deposit into",
          "_valueUSDC": "value in USDC (in ether units) to deposit",
          "_weeksCommitted": "how many weeks to commit to the Pool (can be 0 or any uint)"
        }
      },
      "depositFullServiceFromXChain(uint256,address,bytes,uint256,uint256,uint256,uint256)": {
        "params": {
          "_account": "address of user on-chain",
          "_foreignAccount": "the cross chain wallet that initiated this call, if applicable.",
          "_maxMarketMovement": "factor to account for max market movement/slippage. The definition varies by Vault, so consult the associated Vault contract for info",
          "_pid": "index of pool to deposit into",
          "_valueUSDC": "value in USDC (in ether units) to deposit",
          "_vaultEnteredAt": "date that the vault was entered at",
          "_weeksCommitted": "how many weeks to commit to the Pool (can be 0 or any uint)"
        }
      },
      "getTimeMultiplier(uint256)": {
        "details": "For Zorro staking vault, returns 1e12 no matter what",
        "params": {
          "durationInWeeks": "number of weeks committed into Vault"
        },
        "returns": {
          "timeMultiplier": "Time multiplier factor, times 1e12"
        }
      },
      "handleAccXChainRewards(uint256,uint256)": {
        "details": "Caller should call \"reset\" functions so that rewards aren't double-burned/allocated",
        "params": {
          "_totalMinted": "Total ZOR rewards minted across other chains at this moment",
          "_totalSlashed": "Total ZOR rewards slashed across other chains at this moment"
        }
      },
      "inCaseTokensGetStuck(address,uint256)": {
        "details": "Does not permit usage for the Zorro token",
        "params": {
          "_amount": "token quantity",
          "_token": "ERC20 token address"
        }
      },
      "initialize((address,address,address,address,address,address,address,address[],address[],(uint256,uint256,uint256,uint256,uint256,uint256),(uint256,uint256,address,address,address),(address,address)))": {
        "params": {
          "_initValue": "A ZorroControllerInit struct containing all constructor args"
        }
      },
      "massUpdatePools()": {
        "details": "Be careful of gas fees!",
        "returns": {
          "_mintedZOR": "total amount of ZOR rewards minted (useful for cross chain)"
        }
      },
      "owner()": {
        "details": "Returns the address of the current owner."
      },
      "pendingZORRORewards(uint256,address,int256)": {
        "params": {
          "_account": "Wallet address of on chain account",
          "_pid": "Index of pool",
          "_trancheId": "Tranche ID. If -1, will do pending rewards for all active tranches"
        },
        "returns": {
          "pendingRewards": "Amount of Zorro rewards"
        }
      },
      "poolLength()": {
        "returns": {
          "_0": "Number of pools"
        }
      },
      "renounceOwnership()": {
        "details": "Leaves the contract without owner. It will not be possible to call `onlyOwner` functions anymore. Can only be called by the current owner. NOTE: Renouncing ownership will leave the contract without an owner, thereby removing any functionality that is only available to the owner."
      },
      "repatriateRewards(uint256,address)": {
        "params": {
          "_destination": "Wallet to send funds to",
          "_rewardsDue": "The amount of rewards that need to be fetched and sent to the wallet"
        }
      },
      "resetSyntheticRewardsMinted()": {
        "details": "To be called by Oracle only, when batch burning synthetic minted rewards"
      },
      "resetSyntheticRewardsSlashed()": {
        "details": "To be called by Oracle only, when batch burning synthetic minted rewards"
      },
      "set(uint256,uint256,bool)": {
        "params": {
          "_allocPoint": "The number of allocation points for this pool (aka \"multiplier\")",
          "_pid": "The index of the pool ID",
          "_withUpdate": "Mass update all pools if set to true"
        }
      },
      "setBurnAddress(address)": {
        "params": {
          "_burnAddress": "The burn address on this chain"
        }
      },
      "setIsTimeMultiplierActive(bool)": {
        "params": {
          "_isActive": "Whether it shall be active. If false, timemultiplier will be 1."
        }
      },
      "setKeyAddresses(address,address)": {
        "params": {
          "_ZORRO": "ZOR token address",
          "_defaultStablecoin": "Main stablecoin address (USDC)"
        }
      },
      "setPriceFeeds(address,address)": {
        "params": {
          "_priceFeedLPPoolOtherToken": "The address of the price feed for the counterparty token in the ZOR LP Pool",
          "_priceFeedZOR": "The address of the price feed for ZOR"
        }
      },
      "setRewardsParams(uint256,uint256[],uint256,uint256)": {
        "details": "NOTE: Must enter all parameters or existing ones will be overwritten!",
        "params": {
          "_baseRewardRateBasisPoints": "Base reward rate factor, in bp",
          "_blocksPerDay": "# of blocks per day for this chain",
          "_chainMultiplier": "Rewards multiplier factor to be applied to this chain",
          "_dailyDistFactors": "Array of [ZORRODailyDistributionFactorBasisPointsMin, ZORRODailyDistributionFactorBasisPointsMax]"
        }
      },
      "setTargetTVLCaptureBasisPoints(uint256)": {
        "params": {
          "_targetTVLCaptureBasisPoints": "Percent of market desired to be captured, in bp. 333 = 3.33%. ONLY to be set on the home chain"
        }
      },
      "setUSDCToZORPath(address[])": {
        "params": {
          "_path": "Swap path"
        }
      },
      "setUSDCToZorroLPPoolOtherTokenPath(address[])": {
        "params": {
          "_path": "Swap path"
        }
      },
      "setUniRouter(address)": {
        "params": {
          "_uniV2Router": "Address of router"
        }
      },
      "setXChainParams(uint256,uint256,address)": {
        "params": {
          "_chainId": "The ind of the chain that this contract is on",
          "_homeChainId": "The chain ID of the home chain",
          "_homeChainZorroController": "The address of the home chain controller"
        }
      },
      "setZorroContracts(address,address)": {
        "params": {
          "_publicPool": "Public pool address (where ZOR minted)",
          "_zorroStakingVault": "Zorro single staking vault address"
        }
      },
      "setZorroControllerOracle(address)": {
        "params": {
          "_zorroControllerOracle": "Address of Chainlink oracle that can interact with this contract"
        }
      },
      "setZorroLPPoolParams(address,address)": {
        "params": {
          "_zorroLPPool": "Address of the Zorro-X LP pool",
          "_zorroLPPoolOtherToken": "Address of the counterpart token to the ZOR token in the LP Pool"
        }
      },
      "setZorroPerBlock(uint256,uint256,uint256,uint256,uint256)": {
        "details": "Values to be provided by Oracle. Perferable to run daily",
        "params": {
          "_ZorroTotalVaultTVLUSD": "USD value of all TVL locked into the Zorro protocol, across all chains",
          "_publicPoolZORBalance": "Number of ZOR tokens remaining in public pool on home chain",
          "_targetTVLCaptureBasisPoints": "% desired capture of total market TVL, measured in basis points",
          "_totalChainMultipliers": "Sum total of all chain multipliers for each chain",
          "_totalMarketTVLUSD": "Total DeFi market TVL across all chains (measured in USD)"
        }
      },
      "setZorroXChainEndpoint(address)": {
        "params": {
          "_contract": "Contract address of endpoint"
        }
      },
      "stakedWantTokens(uint256,address,int256)": {
        "params": {
          "_account": "Wallet address of on chain account",
          "_pid": "Index of pool",
          "_trancheId": "Tranche ID, or -1 to aggregate across all tranches"
        },
        "returns": {
          "stakedWantAmt": "Amount of staked Want tokens"
        }
      },
      "trancheLength(uint256,address)": {
        "params": {
          "_pid": "Index of pool",
          "_user": "wallet address of user"
        },
        "returns": {
          "_0": "Number of tranches"
        }
      },
      "transferInvestment(uint256,uint256,uint256,uint256)": {
        "params": {
          "_fromPid": "index of pool FROM",
          "_fromTrancheId": "index of tranche FROM",
          "_maxMarketMovement": "factor to account for max market movement/slippage. The definition varies by Vault, so consult the associated Vault contract for info",
          "_toPid": "index of pool TO"
        }
      },
      "transferOwnership(address)": {
        "details": "Transfers ownership of the contract to a new account (`newOwner`). Can only be called by the current owner."
      },
      "updatePool(uint256)": {
        "params": {
          "_pid": "index of pool"
        },
        "returns": {
          "mintedZOR": "Amount of ZOR rewards minted (useful for cross chain)"
        }
      },
      "withdraw(uint256,uint256,bool)": {
        "params": {
          "_harvestOnly": "If true, will only harvest Zorro tokens but not do a withdrawal",
          "_pid": "index of pool",
          "_trancheId": "index of tranche"
        },
        "returns": {
          "_0": "Amount of Want token withdrawn"
        }
      },
      "withdrawAll(uint256)": {
        "params": {
          "_pid": "index of pool"
        }
      },
      "withdrawalFullService(uint256,uint256,bool,uint256)": {
        "params": {
          "_harvestOnly": "If true, will only harvest Zorro tokens but not do a withdrawal",
          "_maxMarketMovement": "factor to account for max market movement/slippage. The definition varies by Vault, so consult the associated Vault contract for info",
          "_pid": "index of pool to deposit into",
          "_trancheId": "index of tranche"
        },
        "returns": {
          "_0": "Amount (in USDC) returned"
        }
      },
      "withdrawalFullServiceFromXChain(address,bytes,uint256,uint256,bool,uint256)": {
        "params": {
          "_account": "address of wallet on-chain",
          "_foreignAccount": "address of wallet cross-chain (that originally made this deposit)",
          "_harvestOnly": "If true, will only harvest Zorro tokens but not do a withdrawal",
          "_maxMarketMovement": "factor to account for max market movement/slippage. The definition varies by Vault, so consult the associated Vault contract for info",
          "_pid": "index of pool to deposit into",
          "_trancheId": "index of tranche"
        },
        "returns": {
          "_amountUSDC": "Amount of USDC withdrawn",
          "_rewardsDueXChain": "Amount of ZOR rewards due to the origin (cross chain) user"
        }
      }
    },
    "version": 1
  },
  "userdoc": {
    "kind": "user",
    "methods": {
      "add(uint256,address,bool,address)": {
        "notice": "Adds a new pool. Can only be called by the owner."
      },
      "deposit(uint256,uint256,uint256)": {
        "notice": "Deposit Want tokens to associated Vault"
      },
      "depositFullService(uint256,uint256,uint256,uint256)": {
        "notice": "Deposits funds in a full service manner (performs autoswaps and obtains Want tokens)"
      },
      "depositFullServiceFromXChain(uint256,address,bytes,uint256,uint256,uint256,uint256)": {
        "notice": "Full service deposit function to be called by ZorroControllerXChain only."
      },
      "getTimeMultiplier(uint256)": {
        "notice": "Calculate time multiplier based on duration committed"
      },
      "handleAccXChainRewards(uint256,uint256)": {
        "notice": "Called by oracle to account for ZOR rewards that were minted or slashed on other chains"
      },
      "inCaseTokensGetStuck(address,uint256)": {
        "notice": "For owner to recover ERC20 tokens on this contract if stuck"
      },
      "initialize((address,address,address,address,address,address,address,address[],address[],(uint256,uint256,uint256,uint256,uint256,uint256),(uint256,uint256,address,address,address),(address,address)))": {
        "notice": "Upgradeable constructor"
      },
      "massUpdatePools()": {
        "notice": "Updates reward variables of all pools"
      },
      "pendingZORRORewards(uint256,address,int256)": {
        "notice": "View function to see pending ZORRO on frontend."
      },
      "poolLength()": {
        "notice": "Number of pools in the Zorro protocol"
      },
      "repatriateRewards(uint256,address)": {
        "notice": "Gets rewards and sends to the recipient of a cross chain withdrawal"
      },
      "resetSyntheticRewardsMinted()": {
        "notice": "Resets accumulated synthentic rewards minted"
      },
      "resetSyntheticRewardsSlashed()": {
        "notice": "Resets accumulated synthentic rewards minted"
      },
      "set(uint256,uint256,bool)": {
        "notice": "Update the given pool's ZORRO allocation point. Can only be called by the owner."
      },
      "setBurnAddress(address)": {
        "notice": "Setter: Burn address"
      },
      "setIsTimeMultiplierActive(bool)": {
        "notice": "Setter: Set time multiplier"
      },
      "setKeyAddresses(address,address)": {
        "notice": "Setter: Set key token addresses"
      },
      "setPriceFeeds(address,address)": {
        "notice": "Setter: Chainlink price feeds"
      },
      "setRewardsParams(uint256,uint256[],uint256,uint256)": {
        "notice": "Setter: Reward params (See Tokenomics paper for more details)"
      },
      "setStartBlock(uint256)": {
        "notice": "Setter: Start block for rewards"
      },
      "setTargetTVLCaptureBasisPoints(uint256)": {
        "notice": "Setter: TVL capture (See Tokenomics paper)"
      },
      "setUSDCToZORPath(address[])": {
        "notice": "Setter: Set path for token swap from USDC to ZOR"
      },
      "setUSDCToZorroLPPoolOtherTokenPath(address[])": {
        "notice": "Setter: Set path for token swap from USDC to counterparty token in ZOR LP pool"
      },
      "setUniRouter(address)": {
        "notice": "Setter: Uniswap-compatible router address"
      },
      "setXChainParams(uint256,uint256,address)": {
        "notice": "Setter: Cross chain params"
      },
      "setZorroContracts(address,address)": {
        "notice": "Setter: Set key ZOR contract addresses"
      },
      "setZorroControllerOracle(address)": {
        "notice": "Setter: Set Zorro Controller Oracle"
      },
      "setZorroLPPoolParams(address,address)": {
        "notice": "Setter: Zorro LP Pool params"
      },
      "setZorroPerBlock(uint256,uint256,uint256,uint256,uint256)": {
        "notice": "Set the number of Zorro to emit per block based on current market parameters"
      },
      "setZorroXChainEndpoint(address)": {
        "notice": "Setter: Cross chain endpoint"
      },
      "stakedWantTokens(uint256,address,int256)": {
        "notice": "View function to see staked Want tokens on frontend."
      },
      "trancheLength(uint256,address)": {
        "notice": "Number of tranches invested by a given user into a given pool"
      },
      "transferInvestment(uint256,uint256,uint256,uint256)": {
        "notice": "Transfer all assets from a tranche in one vault to a new vault (works on-chain only)"
      },
      "updatePool(uint256)": {
        "notice": "Update reward variables of the given pool to be up-to-date."
      },
      "withdraw(uint256,uint256,bool)": {
        "notice": "Fully withdraw Want tokens from underlying Vault."
      },
      "withdrawAll(uint256)": {
        "notice": "Withdraw the maximum number of Want tokens from a pool"
      },
      "withdrawalFullService(uint256,uint256,bool,uint256)": {
        "notice": "Withdraws funds from a pool and converts the Want token into USDC"
      },
      "withdrawalFullServiceFromXChain(address,bytes,uint256,uint256,bool,uint256)": {
        "notice": "Full service withdrawal to be called from authorized cross chain endpoint"
      }
    },
    "version": 1
  }
}