{
  "contractName": "MockVaultAcryptosSingle",
  "abi": [
    {
      "anonymous": false,
      "inputs": [
        {
          "indexed": true,
          "internalType": "uint256",
          "name": "_amount",
          "type": "uint256"
        }
      ],
      "name": "Buyback",
      "type": "event"
    },
    {
      "anonymous": false,
      "inputs": [
        {
          "indexed": true,
          "internalType": "address",
          "name": "previousOwner",
          "type": "address"
        },
        {
          "indexed": true,
          "internalType": "address",
          "name": "newOwner",
          "type": "address"
        }
      ],
      "name": "OwnershipTransferred",
      "type": "event"
    },
    {
      "anonymous": false,
      "inputs": [
        {
          "indexed": false,
          "internalType": "address",
          "name": "account",
          "type": "address"
        }
      ],
      "name": "Paused",
      "type": "event"
    },
    {
      "anonymous": false,
      "inputs": [
        {
          "indexed": true,
          "internalType": "uint256",
          "name": "_amount",
          "type": "uint256"
        }
      ],
      "name": "RevShare",
      "type": "event"
    },
    {
      "anonymous": false,
      "inputs": [
        {
          "indexed": false,
          "internalType": "address",
          "name": "_govAddress",
          "type": "address"
        }
      ],
      "name": "SetGov",
      "type": "event"
    },
    {
      "anonymous": false,
      "inputs": [
        {
          "indexed": false,
          "internalType": "bool",
          "name": "_onlyGov",
          "type": "bool"
        }
      ],
      "name": "SetOnlyGov",
      "type": "event"
    },
    {
      "anonymous": false,
      "inputs": [
        {
          "indexed": false,
          "internalType": "address",
          "name": "_rewardsAddress",
          "type": "address"
        }
      ],
      "name": "SetRewardsAddress",
      "type": "event"
    },
    {
      "anonymous": false,
      "inputs": [
        {
          "indexed": false,
          "internalType": "uint256",
          "name": "_entranceFeeFactor",
          "type": "uint256"
        },
        {
          "indexed": false,
          "internalType": "uint256",
          "name": "_withdrawFeeFactor",
          "type": "uint256"
        },
        {
          "indexed": false,
          "internalType": "uint256",
          "name": "_controllerFee",
          "type": "uint256"
        },
        {
          "indexed": false,
          "internalType": "uint256",
          "name": "_buyBackRate",
          "type": "uint256"
        },
        {
          "indexed": false,
          "internalType": "uint256",
          "name": "_revShareRate",
          "type": "uint256"
        }
      ],
      "name": "SetSettings",
      "type": "event"
    },
    {
      "anonymous": false,
      "inputs": [
        {
          "indexed": false,
          "internalType": "address",
          "name": "_uniRouterAddress",
          "type": "address"
        }
      ],
      "name": "SetUniRouterAddress",
      "type": "event"
    },
    {
      "anonymous": false,
      "inputs": [
        {
          "indexed": false,
          "internalType": "address",
          "name": "account",
          "type": "address"
        }
      ],
      "name": "Unpaused",
      "type": "event"
    },
    {
      "inputs": [
        {
          "internalType": "uint256",
          "name": "",
          "type": "uint256"
        }
      ],
      "name": "BUSDToLPPoolOtherTokenPath",
      "outputs": [
        {
          "internalType": "address",
          "name": "",
          "type": "address"
        }
      ],
      "stateMutability": "view",
      "type": "function",
      "constant": true
    },
    {
      "inputs": [
        {
          "internalType": "uint256",
          "name": "",
          "type": "uint256"
        }
      ],
      "name": "BUSDToToken0Path",
      "outputs": [
        {
          "internalType": "address",
          "name": "",
          "type": "address"
        }
      ],
      "stateMutability": "view",
      "type": "function",
      "constant": true
    },
    {
      "inputs": [
        {
          "internalType": "uint256",
          "name": "",
          "type": "uint256"
        }
      ],
      "name": "BUSDToZORROPath",
      "outputs": [
        {
          "internalType": "address",
          "name": "",
          "type": "address"
        }
      ],
      "stateMutability": "view",
      "type": "function",
      "constant": true
    },
    {
      "inputs": [
        {
          "internalType": "uint256",
          "name": "",
          "type": "uint256"
        }
      ],
      "name": "USDCToToken0Path",
      "outputs": [
        {
          "internalType": "address",
          "name": "",
          "type": "address"
        }
      ],
      "stateMutability": "view",
      "type": "function",
      "constant": true
    },
    {
      "inputs": [
        {
          "internalType": "uint256",
          "name": "",
          "type": "uint256"
        }
      ],
      "name": "USDCToToken1Path",
      "outputs": [
        {
          "internalType": "address",
          "name": "",
          "type": "address"
        }
      ],
      "stateMutability": "view",
      "type": "function",
      "constant": true
    },
    {
      "inputs": [],
      "name": "ZORPriceFeed",
      "outputs": [
        {
          "internalType": "contract AggregatorV3Interface",
          "name": "",
          "type": "address"
        }
      ],
      "stateMutability": "view",
      "type": "function",
      "constant": true
    },
    {
      "inputs": [],
      "name": "ZORROAddress",
      "outputs": [
        {
          "internalType": "address",
          "name": "",
          "type": "address"
        }
      ],
      "stateMutability": "view",
      "type": "function",
      "constant": true
    },
    {
      "inputs": [],
      "name": "balancerACSWeightBasisPoints",
      "outputs": [
        {
          "internalType": "uint256",
          "name": "",
          "type": "uint256"
        }
      ],
      "stateMutability": "view",
      "type": "function",
      "constant": true
    },
    {
      "inputs": [],
      "name": "balancerBUSDWeightBasisPoints",
      "outputs": [
        {
          "internalType": "uint256",
          "name": "",
          "type": "uint256"
        }
      ],
      "stateMutability": "view",
      "type": "function",
      "constant": true
    },
    {
      "inputs": [],
      "name": "balancerPool",
      "outputs": [
        {
          "internalType": "bytes32",
          "name": "",
          "type": "bytes32"
        }
      ],
      "stateMutability": "view",
      "type": "function",
      "constant": true
    },
    {
      "inputs": [],
      "name": "balancerVaultAddress",
      "outputs": [
        {
          "internalType": "address",
          "name": "",
          "type": "address"
        }
      ],
      "stateMutability": "view",
      "type": "function",
      "constant": true
    },
    {
      "inputs": [],
      "name": "burnAddress",
      "outputs": [
        {
          "internalType": "address",
          "name": "",
          "type": "address"
        }
      ],
      "stateMutability": "view",
      "type": "function",
      "constant": true
    },
    {
      "inputs": [],
      "name": "buyBackRate",
      "outputs": [
        {
          "internalType": "uint256",
          "name": "",
          "type": "uint256"
        }
      ],
      "stateMutability": "view",
      "type": "function",
      "constant": true
    },
    {
      "inputs": [],
      "name": "buyBackRateMax",
      "outputs": [
        {
          "internalType": "uint256",
          "name": "",
          "type": "uint256"
        }
      ],
      "stateMutability": "view",
      "type": "function",
      "constant": true
    },
    {
      "inputs": [],
      "name": "buyBackRateUL",
      "outputs": [
        {
          "internalType": "uint256",
          "name": "",
          "type": "uint256"
        }
      ],
      "stateMutability": "view",
      "type": "function",
      "constant": true
    },
    {
      "inputs": [],
      "name": "controllerFee",
      "outputs": [
        {
          "internalType": "uint256",
          "name": "",
          "type": "uint256"
        }
      ],
      "stateMutability": "view",
      "type": "function",
      "constant": true
    },
    {
      "inputs": [],
      "name": "controllerFeeMax",
      "outputs": [
        {
          "internalType": "uint256",
          "name": "",
          "type": "uint256"
        }
      ],
      "stateMutability": "view",
      "type": "function",
      "constant": true
    },
    {
      "inputs": [],
      "name": "controllerFeeUL",
      "outputs": [
        {
          "internalType": "uint256",
          "name": "",
          "type": "uint256"
        }
      ],
      "stateMutability": "view",
      "type": "function",
      "constant": true
    },
    {
      "inputs": [
        {
          "internalType": "address",
          "name": "_account",
          "type": "address"
        },
        {
          "internalType": "uint256",
          "name": "_wantAmt",
          "type": "uint256"
        }
      ],
      "name": "depositWantToken",
      "outputs": [
        {
          "internalType": "uint256",
          "name": "sharesAdded",
          "type": "uint256"
        }
      ],
      "stateMutability": "nonpayable",
      "type": "function"
    },
    {
      "inputs": [
        {
          "internalType": "uint256",
          "name": "_maxMarketMovementAllowed",
          "type": "uint256"
        }
      ],
      "name": "earn",
      "outputs": [],
      "stateMutability": "nonpayable",
      "type": "function"
    },
    {
      "inputs": [],
      "name": "earnTokenPriceFeed",
      "outputs": [
        {
          "internalType": "contract AggregatorV3Interface",
          "name": "",
          "type": "address"
        }
      ],
      "stateMutability": "view",
      "type": "function",
      "constant": true
    },
    {
      "inputs": [],
      "name": "earnedAddress",
      "outputs": [
        {
          "internalType": "address",
          "name": "",
          "type": "address"
        }
      ],
      "stateMutability": "view",
      "type": "function",
      "constant": true
    },
    {
      "inputs": [
        {
          "internalType": "uint256",
          "name": "",
          "type": "uint256"
        }
      ],
      "name": "earnedToToken0Path",
      "outputs": [
        {
          "internalType": "address",
          "name": "",
          "type": "address"
        }
      ],
      "stateMutability": "view",
      "type": "function",
      "constant": true
    },
    {
      "inputs": [
        {
          "internalType": "uint256",
          "name": "",
          "type": "uint256"
        }
      ],
      "name": "earnedToToken1Path",
      "outputs": [
        {
          "internalType": "address",
          "name": "",
          "type": "address"
        }
      ],
      "stateMutability": "view",
      "type": "function",
      "constant": true
    },
    {
      "inputs": [
        {
          "internalType": "uint256",
          "name": "",
          "type": "uint256"
        }
      ],
      "name": "earnedToUSDCPath",
      "outputs": [
        {
          "internalType": "address",
          "name": "",
          "type": "address"
        }
      ],
      "stateMutability": "view",
      "type": "function",
      "constant": true
    },
    {
      "inputs": [
        {
          "internalType": "uint256",
          "name": "",
          "type": "uint256"
        }
      ],
      "name": "earnedToZORLPPoolOtherTokenPath",
      "outputs": [
        {
          "internalType": "address",
          "name": "",
          "type": "address"
        }
      ],
      "stateMutability": "view",
      "type": "function",
      "constant": true
    },
    {
      "inputs": [
        {
          "internalType": "uint256",
          "name": "",
          "type": "uint256"
        }
      ],
      "name": "earnedToZORROPath",
      "outputs": [
        {
          "internalType": "address",
          "name": "",
          "type": "address"
        }
      ],
      "stateMutability": "view",
      "type": "function",
      "constant": true
    },
    {
      "inputs": [],
      "name": "entranceFeeFactor",
      "outputs": [
        {
          "internalType": "uint256",
          "name": "",
          "type": "uint256"
        }
      ],
      "stateMutability": "view",
      "type": "function",
      "constant": true
    },
    {
      "inputs": [],
      "name": "entranceFeeFactorLL",
      "outputs": [
        {
          "internalType": "uint256",
          "name": "",
          "type": "uint256"
        }
      ],
      "stateMutability": "view",
      "type": "function",
      "constant": true
    },
    {
      "inputs": [],
      "name": "entranceFeeFactorMax",
      "outputs": [
        {
          "internalType": "uint256",
          "name": "",
          "type": "uint256"
        }
      ],
      "stateMutability": "view",
      "type": "function",
      "constant": true
    },
    {
      "inputs": [
        {
          "internalType": "uint256",
          "name": "_amountUSDC",
          "type": "uint256"
        },
        {
          "internalType": "uint256",
          "name": "_maxMarketMovementAllowed",
          "type": "uint256"
        }
      ],
      "name": "exchangeUSDForWantToken",
      "outputs": [
        {
          "internalType": "uint256",
          "name": "",
          "type": "uint256"
        }
      ],
      "stateMutability": "nonpayable",
      "type": "function"
    },
    {
      "inputs": [
        {
          "internalType": "uint256",
          "name": "_amount",
          "type": "uint256"
        },
        {
          "internalType": "uint256",
          "name": "_maxMarketMovementAllowed",
          "type": "uint256"
        }
      ],
      "name": "exchangeWantTokenForUSD",
      "outputs": [
        {
          "internalType": "uint256",
          "name": "",
          "type": "uint256"
        }
      ],
      "stateMutability": "nonpayable",
      "type": "function"
    },
    {
      "inputs": [],
      "name": "farm",
      "outputs": [],
      "stateMutability": "nonpayable",
      "type": "function"
    },
    {
      "inputs": [],
      "name": "farmContractAddress",
      "outputs": [
        {
          "internalType": "address",
          "name": "",
          "type": "address"
        }
      ],
      "stateMutability": "view",
      "type": "function",
      "constant": true
    },
    {
      "inputs": [],
      "name": "govAddress",
      "outputs": [
        {
          "internalType": "address",
          "name": "",
          "type": "address"
        }
      ],
      "stateMutability": "view",
      "type": "function",
      "constant": true
    },
    {
      "inputs": [
        {
          "internalType": "address",
          "name": "_token",
          "type": "address"
        },
        {
          "internalType": "uint256",
          "name": "_amount",
          "type": "uint256"
        },
        {
          "internalType": "address",
          "name": "_to",
          "type": "address"
        }
      ],
      "name": "inCaseTokensGetStuck",
      "outputs": [],
      "stateMutability": "nonpayable",
      "type": "function"
    },
    {
      "inputs": [
        {
          "internalType": "address",
          "name": "_timelockOwner",
          "type": "address"
        },
        {
          "components": [
            {
              "internalType": "uint256",
              "name": "pid",
              "type": "uint256"
            },
            {
              "internalType": "bool",
              "name": "isHomeChain",
              "type": "bool"
            },
            {
              "components": [
                {
                  "internalType": "address",
                  "name": "govAddress",
                  "type": "address"
                },
                {
                  "internalType": "address",
                  "name": "zorroControllerAddress",
                  "type": "address"
                },
                {
                  "internalType": "address",
                  "name": "ZORROAddress",
                  "type": "address"
                },
                {
                  "internalType": "address",
                  "name": "zorroStakingVault",
                  "type": "address"
                },
                {
                  "internalType": "address",
                  "name": "wantAddress",
                  "type": "address"
                },
                {
                  "internalType": "address",
                  "name": "token0Address",
                  "type": "address"
                },
                {
                  "internalType": "address",
                  "name": "token1Address",
                  "type": "address"
                },
                {
                  "internalType": "address",
                  "name": "earnedAddress",
                  "type": "address"
                },
                {
                  "internalType": "address",
                  "name": "farmContractAddress",
                  "type": "address"
                },
                {
                  "internalType": "address",
                  "name": "rewardsAddress",
                  "type": "address"
                },
                {
                  "internalType": "address",
                  "name": "poolAddress",
                  "type": "address"
                },
                {
                  "internalType": "address",
                  "name": "uniRouterAddress",
                  "type": "address"
                },
                {
                  "internalType": "address",
                  "name": "zorroLPPool",
                  "type": "address"
                },
                {
                  "internalType": "address",
                  "name": "zorroLPPoolOtherToken",
                  "type": "address"
                },
                {
                  "internalType": "address",
                  "name": "tokenUSDCAddress",
                  "type": "address"
                }
              ],
              "internalType": "struct VaultBase.VaultAddresses",
              "name": "keyAddresses",
              "type": "tuple"
            },
            {
              "internalType": "address[]",
              "name": "earnedToZORROPath",
              "type": "address[]"
            },
            {
              "internalType": "address[]",
              "name": "earnedToToken0Path",
              "type": "address[]"
            },
            {
              "internalType": "address[]",
              "name": "USDCToToken0Path",
              "type": "address[]"
            },
            {
              "internalType": "address[]",
              "name": "earnedToZORLPPoolOtherTokenPath",
              "type": "address[]"
            },
            {
              "internalType": "address[]",
              "name": "earnedToUSDCPath",
              "type": "address[]"
            },
            {
              "internalType": "address[]",
              "name": "BUSDToToken0Path",
              "type": "address[]"
            },
            {
              "internalType": "address[]",
              "name": "BUSDToZORROPath",
              "type": "address[]"
            },
            {
              "internalType": "address[]",
              "name": "BUSDToLPPoolOtherTokenPath",
              "type": "address[]"
            },
            {
              "components": [
                {
                  "internalType": "uint256",
                  "name": "controllerFee",
                  "type": "uint256"
                },
                {
                  "internalType": "uint256",
                  "name": "buyBackRate",
                  "type": "uint256"
                },
                {
                  "internalType": "uint256",
                  "name": "revShareRate",
                  "type": "uint256"
                },
                {
                  "internalType": "uint256",
                  "name": "entranceFeeFactor",
                  "type": "uint256"
                },
                {
                  "internalType": "uint256",
                  "name": "withdrawFeeFactor",
                  "type": "uint256"
                }
              ],
              "internalType": "struct VaultBase.VaultFees",
              "name": "fees",
              "type": "tuple"
            },
            {
              "components": [
                {
                  "internalType": "address",
                  "name": "token0PriceFeed",
                  "type": "address"
                },
                {
                  "internalType": "address",
                  "name": "token1PriceFeed",
                  "type": "address"
                },
                {
                  "internalType": "address",
                  "name": "earnTokenPriceFeed",
                  "type": "address"
                },
                {
                  "internalType": "address",
                  "name": "ZORPriceFeed",
                  "type": "address"
                },
                {
                  "internalType": "address",
                  "name": "lpPoolOtherTokenPriceFeed",
                  "type": "address"
                }
              ],
              "internalType": "struct VaultBase.VaultPriceFeeds",
              "name": "priceFeeds",
              "type": "tuple"
            }
          ],
          "internalType": "struct VaultAcryptosSingle.VaultAcryptosSingleInit",
          "name": "_initValue",
          "type": "tuple"
        }
      ],
      "name": "initialize",
      "outputs": [],
      "stateMutability": "nonpayable",
      "type": "function"
    },
    {
      "inputs": [
        {
          "internalType": "address",
          "name": "_timelockOwner",
          "type": "address"
        }
      ],
      "name": "initialize",
      "outputs": [],
      "stateMutability": "nonpayable",
      "type": "function"
    },
    {
      "inputs": [],
      "name": "isHomeChain",
      "outputs": [
        {
          "internalType": "bool",
          "name": "",
          "type": "bool"
        }
      ],
      "stateMutability": "view",
      "type": "function",
      "constant": true
    },
    {
      "inputs": [],
      "name": "lastEarnBlock",
      "outputs": [
        {
          "internalType": "uint256",
          "name": "",
          "type": "uint256"
        }
      ],
      "stateMutability": "view",
      "type": "function",
      "constant": true
    },
    {
      "inputs": [],
      "name": "lpPoolOtherTokenPriceFeed",
      "outputs": [
        {
          "internalType": "contract AggregatorV3Interface",
          "name": "",
          "type": "address"
        }
      ],
      "stateMutability": "view",
      "type": "function",
      "constant": true
    },
    {
      "inputs": [],
      "name": "onlyGov",
      "outputs": [
        {
          "internalType": "bool",
          "name": "",
          "type": "bool"
        }
      ],
      "stateMutability": "view",
      "type": "function",
      "constant": true
    },
    {
      "inputs": [],
      "name": "owner",
      "outputs": [
        {
          "internalType": "address",
          "name": "",
          "type": "address"
        }
      ],
      "stateMutability": "view",
      "type": "function",
      "constant": true
    },
    {
      "inputs": [],
      "name": "pause",
      "outputs": [],
      "stateMutability": "nonpayable",
      "type": "function"
    },
    {
      "inputs": [],
      "name": "paused",
      "outputs": [
        {
          "internalType": "bool",
          "name": "",
          "type": "bool"
        }
      ],
      "stateMutability": "view",
      "type": "function",
      "constant": true
    },
    {
      "inputs": [],
      "name": "pid",
      "outputs": [
        {
          "internalType": "uint256",
          "name": "",
          "type": "uint256"
        }
      ],
      "stateMutability": "view",
      "type": "function",
      "constant": true
    },
    {
      "inputs": [],
      "name": "poolAddress",
      "outputs": [
        {
          "internalType": "address",
          "name": "",
          "type": "address"
        }
      ],
      "stateMutability": "view",
      "type": "function",
      "constant": true
    },
    {
      "inputs": [],
      "name": "renounceOwnership",
      "outputs": [],
      "stateMutability": "nonpayable",
      "type": "function"
    },
    {
      "inputs": [],
      "name": "revShareRate",
      "outputs": [
        {
          "internalType": "uint256",
          "name": "",
          "type": "uint256"
        }
      ],
      "stateMutability": "view",
      "type": "function",
      "constant": true
    },
    {
      "inputs": [],
      "name": "revShareRateMax",
      "outputs": [
        {
          "internalType": "uint256",
          "name": "",
          "type": "uint256"
        }
      ],
      "stateMutability": "view",
      "type": "function",
      "constant": true
    },
    {
      "inputs": [],
      "name": "revShareRateUL",
      "outputs": [
        {
          "internalType": "uint256",
          "name": "",
          "type": "uint256"
        }
      ],
      "stateMutability": "view",
      "type": "function",
      "constant": true
    },
    {
      "inputs": [],
      "name": "rewardsAddress",
      "outputs": [
        {
          "internalType": "address",
          "name": "",
          "type": "address"
        }
      ],
      "stateMutability": "view",
      "type": "function",
      "constant": true
    },
    {
      "inputs": [
        {
          "internalType": "address",
          "name": "_token",
          "type": "address"
        }
      ],
      "name": "setACS",
      "outputs": [],
      "stateMutability": "nonpayable",
      "type": "function"
    },
    {
      "inputs": [
        {
          "internalType": "address",
          "name": "_token",
          "type": "address"
        }
      ],
      "name": "setBUSD",
      "outputs": [],
      "stateMutability": "nonpayable",
      "type": "function"
    },
    {
      "inputs": [
        {
          "internalType": "uint8",
          "name": "_idx",
          "type": "uint8"
        },
        {
          "internalType": "address[]",
          "name": "_path",
          "type": "address[]"
        }
      ],
      "name": "setBUSDSwapPaths",
      "outputs": [],
      "stateMutability": "nonpayable",
      "type": "function"
    },
    {
      "inputs": [
        {
          "internalType": "bytes32",
          "name": "_pool",
          "type": "bytes32"
        }
      ],
      "name": "setBalancerPool",
      "outputs": [],
      "stateMutability": "nonpayable",
      "type": "function"
    },
    {
      "inputs": [
        {
          "internalType": "address",
          "name": "_vault",
          "type": "address"
        }
      ],
      "name": "setBalancerVaultAddress",
      "outputs": [],
      "stateMutability": "nonpayable",
      "type": "function"
    },
    {
      "inputs": [
        {
          "internalType": "uint256",
          "name": "_acsWeight",
          "type": "uint256"
        },
        {
          "internalType": "uint256",
          "name": "_busdWeight",
          "type": "uint256"
        }
      ],
      "name": "setBalancerWeights",
      "outputs": [],
      "stateMutability": "nonpayable",
      "type": "function"
    },
    {
      "inputs": [
        {
          "internalType": "address",
          "name": "_burnAddress",
          "type": "address"
        }
      ],
      "name": "setBurnAddress",
      "outputs": [],
      "stateMutability": "nonpayable",
      "type": "function"
    },
    {
      "inputs": [
        {
          "internalType": "address",
          "name": "_earnedAddress",
          "type": "address"
        }
      ],
      "name": "setEarnedAddress",
      "outputs": [],
      "stateMutability": "nonpayable",
      "type": "function"
    },
    {
      "inputs": [
        {
          "internalType": "address",
          "name": "_farmContractAddress",
          "type": "address"
        }
      ],
      "name": "setFarmContractAddress",
      "outputs": [],
      "stateMutability": "nonpayable",
      "type": "function"
    },
    {
      "inputs": [
        {
          "internalType": "uint256",
          "name": "_entranceFeeFactor",
          "type": "uint256"
        },
        {
          "internalType": "uint256",
          "name": "_withdrawFeeFactor",
          "type": "uint256"
        },
        {
          "internalType": "uint256",
          "name": "_controllerFee",
          "type": "uint256"
        },
        {
          "internalType": "uint256",
          "name": "_buyBackRate",
          "type": "uint256"
        },
        {
          "internalType": "uint256",
          "name": "_revShareRate",
          "type": "uint256"
        }
      ],
      "name": "setFeeSettings",
      "outputs": [],
      "stateMutability": "nonpayable",
      "type": "function"
    },
    {
      "inputs": [
        {
          "internalType": "address",
          "name": "_govAddress",
          "type": "address"
        }
      ],
      "name": "setGov",
      "outputs": [],
      "stateMutability": "nonpayable",
      "type": "function"
    },
    {
      "inputs": [
        {
          "internalType": "bool",
          "name": "_onlyGov",
          "type": "bool"
        }
      ],
      "name": "setOnlyGov",
      "outputs": [],
      "stateMutability": "nonpayable",
      "type": "function"
    },
    {
      "inputs": [
        {
          "internalType": "uint256",
          "name": "_pid",
          "type": "uint256"
        }
      ],
      "name": "setPid",
      "outputs": [],
      "stateMutability": "nonpayable",
      "type": "function"
    },
    {
      "inputs": [
        {
          "internalType": "address",
          "name": "_poolAddress",
          "type": "address"
        }
      ],
      "name": "setPoolAddress",
      "outputs": [],
      "stateMutability": "nonpayable",
      "type": "function"
    },
    {
      "inputs": [
        {
          "internalType": "uint8",
          "name": "_idx",
          "type": "uint8"
        },
        {
          "internalType": "address",
          "name": "_priceFeed",
          "type": "address"
        }
      ],
      "name": "setPriceFeed",
      "outputs": [],
      "stateMutability": "nonpayable",
      "type": "function"
    },
    {
      "inputs": [
        {
          "internalType": "address",
          "name": "_rewardsAddress",
          "type": "address"
        }
      ],
      "name": "setRewardsAddress",
      "outputs": [],
      "stateMutability": "nonpayable",
      "type": "function"
    },
    {
      "inputs": [
        {
          "internalType": "uint8",
          "name": "_idx",
          "type": "uint8"
        },
        {
          "internalType": "address[]",
          "name": "_path",
          "type": "address[]"
        }
      ],
      "name": "setSwapPaths",
      "outputs": [],
      "stateMutability": "nonpayable",
      "type": "function"
    },
    {
      "inputs": [
        {
          "internalType": "address",
          "name": "_token0Address",
          "type": "address"
        }
      ],
      "name": "setToken0Address",
      "outputs": [],
      "stateMutability": "nonpayable",
      "type": "function"
    },
    {
      "inputs": [
        {
          "internalType": "address",
          "name": "_token1Address",
          "type": "address"
        }
      ],
      "name": "setToken1Address",
      "outputs": [],
      "stateMutability": "nonpayable",
      "type": "function"
    },
    {
      "inputs": [
        {
          "internalType": "address",
          "name": "_tokenUSDCAddress",
          "type": "address"
        }
      ],
      "name": "setTokenUSDCAddress",
      "outputs": [],
      "stateMutability": "nonpayable",
      "type": "function"
    },
    {
      "inputs": [
        {
          "internalType": "address",
          "name": "_uniRouterAddress",
          "type": "address"
        }
      ],
      "name": "setUniRouterAddress",
      "outputs": [],
      "stateMutability": "nonpayable",
      "type": "function"
    },
    {
      "inputs": [
        {
          "internalType": "address",
          "name": "_wantAddress",
          "type": "address"
        }
      ],
      "name": "setWantAddress",
      "outputs": [],
      "stateMutability": "nonpayable",
      "type": "function"
    },
    {
      "inputs": [
        {
          "internalType": "address",
          "name": "_ZORROAddress",
          "type": "address"
        }
      ],
      "name": "setZORROAddress",
      "outputs": [],
      "stateMutability": "nonpayable",
      "type": "function"
    },
    {
      "inputs": [
        {
          "internalType": "address",
          "name": "_zorroControllerAddress",
          "type": "address"
        }
      ],
      "name": "setZorroControllerAddress",
      "outputs": [],
      "stateMutability": "nonpayable",
      "type": "function"
    },
    {
      "inputs": [
        {
          "internalType": "address",
          "name": "_poolAddress",
          "type": "address"
        }
      ],
      "name": "setZorroLPPoolAddress",
      "outputs": [],
      "stateMutability": "nonpayable",
      "type": "function"
    },
    {
      "inputs": [
        {
          "internalType": "address",
          "name": "_otherToken",
          "type": "address"
        }
      ],
      "name": "setZorroLPPoolOtherToken",
      "outputs": [],
      "stateMutability": "nonpayable",
      "type": "function"
    },
    {
      "inputs": [
        {
          "internalType": "address",
          "name": "_stakingVault",
          "type": "address"
        }
      ],
      "name": "setZorroStakingVault",
      "outputs": [],
      "stateMutability": "nonpayable",
      "type": "function"
    },
    {
      "inputs": [],
      "name": "sharesTotal",
      "outputs": [
        {
          "internalType": "uint256",
          "name": "",
          "type": "uint256"
        }
      ],
      "stateMutability": "view",
      "type": "function",
      "constant": true
    },
    {
      "inputs": [],
      "name": "token0Address",
      "outputs": [
        {
          "internalType": "address",
          "name": "",
          "type": "address"
        }
      ],
      "stateMutability": "view",
      "type": "function",
      "constant": true
    },
    {
      "inputs": [],
      "name": "token0PriceFeed",
      "outputs": [
        {
          "internalType": "contract AggregatorV3Interface",
          "name": "",
          "type": "address"
        }
      ],
      "stateMutability": "view",
      "type": "function",
      "constant": true
    },
    {
      "inputs": [
        {
          "internalType": "uint256",
          "name": "",
          "type": "uint256"
        }
      ],
      "name": "token0ToUSDCPath",
      "outputs": [
        {
          "internalType": "address",
          "name": "",
          "type": "address"
        }
      ],
      "stateMutability": "view",
      "type": "function",
      "constant": true
    },
    {
      "inputs": [],
      "name": "token1Address",
      "outputs": [
        {
          "internalType": "address",
          "name": "",
          "type": "address"
        }
      ],
      "stateMutability": "view",
      "type": "function",
      "constant": true
    },
    {
      "inputs": [],
      "name": "token1PriceFeed",
      "outputs": [
        {
          "internalType": "contract AggregatorV3Interface",
          "name": "",
          "type": "address"
        }
      ],
      "stateMutability": "view",
      "type": "function",
      "constant": true
    },
    {
      "inputs": [
        {
          "internalType": "uint256",
          "name": "",
          "type": "uint256"
        }
      ],
      "name": "token1ToUSDCPath",
      "outputs": [
        {
          "internalType": "address",
          "name": "",
          "type": "address"
        }
      ],
      "stateMutability": "view",
      "type": "function",
      "constant": true
    },
    {
      "inputs": [],
      "name": "tokenACS",
      "outputs": [
        {
          "internalType": "address",
          "name": "",
          "type": "address"
        }
      ],
      "stateMutability": "view",
      "type": "function",
      "constant": true
    },
    {
      "inputs": [],
      "name": "tokenBUSD",
      "outputs": [
        {
          "internalType": "address",
          "name": "",
          "type": "address"
        }
      ],
      "stateMutability": "view",
      "type": "function",
      "constant": true
    },
    {
      "inputs": [],
      "name": "tokenUSDCAddress",
      "outputs": [
        {
          "internalType": "address",
          "name": "",
          "type": "address"
        }
      ],
      "stateMutability": "view",
      "type": "function",
      "constant": true
    },
    {
      "inputs": [
        {
          "internalType": "address",
          "name": "newOwner",
          "type": "address"
        }
      ],
      "name": "transferOwnership",
      "outputs": [],
      "stateMutability": "nonpayable",
      "type": "function"
    },
    {
      "inputs": [],
      "name": "uniRouterAddress",
      "outputs": [
        {
          "internalType": "address",
          "name": "",
          "type": "address"
        }
      ],
      "stateMutability": "view",
      "type": "function",
      "constant": true
    },
    {
      "inputs": [],
      "name": "unpause",
      "outputs": [],
      "stateMutability": "nonpayable",
      "type": "function"
    },
    {
      "inputs": [],
      "name": "wantAddress",
      "outputs": [
        {
          "internalType": "address",
          "name": "",
          "type": "address"
        }
      ],
      "stateMutability": "view",
      "type": "function",
      "constant": true
    },
    {
      "inputs": [],
      "name": "wantLockedTotal",
      "outputs": [
        {
          "internalType": "uint256",
          "name": "",
          "type": "uint256"
        }
      ],
      "stateMutability": "view",
      "type": "function",
      "constant": true
    },
    {
      "inputs": [],
      "name": "withdrawFeeFactor",
      "outputs": [
        {
          "internalType": "uint256",
          "name": "",
          "type": "uint256"
        }
      ],
      "stateMutability": "view",
      "type": "function",
      "constant": true
    },
    {
      "inputs": [],
      "name": "withdrawFeeFactorLL",
      "outputs": [
        {
          "internalType": "uint256",
          "name": "",
          "type": "uint256"
        }
      ],
      "stateMutability": "view",
      "type": "function",
      "constant": true
    },
    {
      "inputs": [],
      "name": "withdrawFeeFactorMax",
      "outputs": [
        {
          "internalType": "uint256",
          "name": "",
          "type": "uint256"
        }
      ],
      "stateMutability": "view",
      "type": "function",
      "constant": true
    },
    {
      "inputs": [
        {
          "internalType": "address",
          "name": "_account",
          "type": "address"
        },
        {
          "internalType": "uint256",
          "name": "_wantAmt",
          "type": "uint256"
        }
      ],
      "name": "withdrawWantToken",
      "outputs": [
        {
          "internalType": "uint256",
          "name": "sharesRemoved",
          "type": "uint256"
        }
      ],
      "stateMutability": "nonpayable",
      "type": "function"
    },
    {
      "inputs": [],
      "name": "zorroControllerAddress",
      "outputs": [
        {
          "internalType": "address",
          "name": "",
          "type": "address"
        }
      ],
      "stateMutability": "view",
      "type": "function",
      "constant": true
    },
    {
      "inputs": [],
      "name": "zorroLPPool",
      "outputs": [
        {
          "internalType": "address",
          "name": "",
          "type": "address"
        }
      ],
      "stateMutability": "view",
      "type": "function",
      "constant": true
    },
    {
      "inputs": [],
      "name": "zorroLPPoolOtherToken",
      "outputs": [
        {
          "internalType": "address",
          "name": "",
          "type": "address"
        }
      ],
      "stateMutability": "view",
      "type": "function",
      "constant": true
    },
    {
      "inputs": [],
      "name": "zorroStakingVault",
      "outputs": [
        {
          "internalType": "address",
          "name": "",
          "type": "address"
        }
      ],
      "stateMutability": "view",
      "type": "function",
      "constant": true
    },
    {
      "inputs": [],
      "name": "zorroXChainController",
      "outputs": [
        {
          "internalType": "address",
          "name": "",
          "type": "address"
        }
      ],
      "stateMutability": "view",
      "type": "function",
      "constant": true
    },
    {
      "inputs": [
        {
          "internalType": "uint256",
          "name": "_wantAmt",
          "type": "uint256"
        }
      ],
      "name": "unfarm",
      "outputs": [],
      "stateMutability": "nonpayable",
      "type": "function"
    },
    {
      "inputs": [
        {
          "internalType": "uint256",
          "name": "_earnedAmount",
          "type": "uint256"
        },
        {
          "internalType": "address",
          "name": "_destination",
          "type": "address"
        },
        {
          "internalType": "uint256",
          "name": "_maxMarketMovementAllowed",
          "type": "uint256"
        },
        {
          "components": [
            {
              "internalType": "uint256",
              "name": "earn",
              "type": "uint256"
            },
            {
              "internalType": "uint256",
              "name": "ZOR",
              "type": "uint256"
            },
            {
              "internalType": "uint256",
              "name": "lpPoolOtherToken",
              "type": "uint256"
            }
          ],
          "internalType": "struct VaultBase.ExchangeRates",
          "name": "_rates",
          "type": "tuple"
        }
      ],
      "name": "swapEarnedToUSDC",
      "outputs": [],
      "stateMutability": "nonpayable",
      "type": "function"
    },
    {
      "inputs": [
        {
          "internalType": "uint256",
          "name": "_amount",
          "type": "uint256"
        },
        {
          "internalType": "uint256",
          "name": "_maxMarketMovementAllowed",
          "type": "uint256"
        },
        {
          "components": [
            {
              "internalType": "uint256",
              "name": "earn",
              "type": "uint256"
            },
            {
              "internalType": "uint256",
              "name": "ZOR",
              "type": "uint256"
            },
            {
              "internalType": "uint256",
              "name": "lpPoolOtherToken",
              "type": "uint256"
            }
          ],
          "internalType": "struct VaultBase.ExchangeRates",
          "name": "_rates",
          "type": "tuple"
        }
      ],
      "name": "revShareOnChain",
      "outputs": [],
      "stateMutability": "nonpayable",
      "type": "function"
    },
    {
      "inputs": [
        {
          "internalType": "uint256",
          "name": "_amount",
          "type": "uint256"
        },
        {
          "internalType": "uint256",
          "name": "_maxMarketMovementAllowed",
          "type": "uint256"
        },
        {
          "components": [
            {
              "internalType": "uint256",
              "name": "earn",
              "type": "uint256"
            },
            {
              "internalType": "uint256",
              "name": "ZOR",
              "type": "uint256"
            },
            {
              "internalType": "uint256",
              "name": "lpPoolOtherToken",
              "type": "uint256"
            }
          ],
          "internalType": "struct VaultBase.ExchangeRates",
          "name": "_rates",
          "type": "tuple"
        }
      ],
      "name": "buybackOnChain",
      "outputs": [],
      "stateMutability": "nonpayable",
      "type": "function"
    }
  ],
  "bytecode": "0x608060405234801561001057600080fd5b506159e880620000216000396000f3fe608060405234801561001057600080fd5b50600436106106585760003560e01c80637fe37d3311610351578063c2dfdcd2116101c3578063e65a01171161010f578063ee50dc34116100ad578063f2fde38b11610087578063f2fde38b14610ce9578063f5046a2914610cfc578063fbf5683f14610d0f578063ff29b39514610d2257600080fd5b8063ee50dc34146107b6578063f106845414610ccd578063f25342bf14610cd657600080fd5b8063e9e15b4f116100e9578063e9e15b4f14610c87578063ebfba7c414610c9a578063ec69ae1c14610cad578063edf5e58514610cc057600080fd5b8063e65a011714610c4e578063e719847414610c61578063e7a0367914610c7457600080fd5b8063c8e3d18b1161017c578063db31640c11610156578063db31640c14610c02578063de84199114610c15578063e0ccabfa14610c28578063e502a88d14610c3b57600080fd5b8063c8e3d18b14610bc9578063cfad57a214610bdc578063d7cb416f14610bef57600080fd5b8063c2dfdcd214610b74578063c302a4d014610a04578063c4d66de814610b7d578063c5c97cbf14610b90578063c6efd57714610ba3578063c8479cd614610bb657600080fd5b80639fc33a9f1161029d578063b3545c011161023b578063b86c5f5311610215578063b86c5f5314610b28578063ba0bb4ab14610b3b578063bf3a7d4014610b4e578063c0973eed14610b6157600080fd5b8063b3545c0114610685578063b6b41a8b14610b02578063b73cba2a14610b1557600080fd5b8063ab196def11610277578063ab196def14610ab6578063ae53e58a14610ac9578063b1414dbb14610adc578063b2740cb414610aef57600080fd5b80639fc33a9f14610a7d578063a4d2b08314610a90578063aabf190b14610aa357600080fd5b8063866b20181161030a578063959334f4116102e4578063959334f414610a3157806396e9aff814610a445780639805f01b14610a575780639f703a5614610a6a57600080fd5b8063866b201814610a045780638906758d14610a0d5780638da5cb5b14610a2057600080fd5b80637fe37d33146109b15780637ff36fbe146109ba5780638456cb59146109cd5780638460adc9146109d5578063858c5b68146109e857806385f02dd6146109fb57600080fd5b80634b0e7216116104ea578063648794a41161043657806370d5ae05116103d45780637153ef86116103ae5780637153ef861461096f578063776da4701461098257806379eb16d11461098b5780637bf604d81461099e57600080fd5b806370d5ae051461094157806370e842a114610954578063715018a61461096757600080fd5b806368f541621161041057806368f54162146108ff578063693a090b146109085780636ca8bd651461091b5780636f96f6fa1461092e57600080fd5b8063648794a4146108d957806367057b6c146107b657806367206d40146108ec57600080fd5b8063583bda3b116104a35780635fc77d431161047d5780635fc77d431461088d5780636183e804146108a057806361b5bf9f146108b35780636392ab12146108c657600080fd5b8063583bda3b1461085c5780635c975abb1461086f5780635da79d631461087a57600080fd5b80634b0e7216146107fd5780634c5b09da146108105780634ce54ddb146108235780634d9f7bb2146107b65780634e2cb8b614610836578063563397d71461084957600080fd5b80631b0d8aab116105a95780633214471f1161056257806342da4eb31161053c57806342da4eb3146107d857806343788cd2146107b657806344a3955e146107e157806346008a07146107ea57600080fd5b80633214471f146107bf57806336e9332d146107c85780633f4ba83a146107d057600080fd5b80631b0d8aab1461076a5780631c885bae1461077d5780631e12819a14610790578063211019d714610685578063213ef7f7146107a35780632717eff3146107b657600080fd5b80630daef3211161061657806313303335116105f057806313303335146107325780631334903f146107455780631755ff211461074e578063178a8d071461076157600080fd5b80630daef321146106f25780630fa4e01e14610716578063127b5bbb1461071f57600080fd5b80629b81db1461065d57806305828d3e14610672578063061c7d48146106855780630a868404146106a15780630b6bb30b146106cc5780630bdb9070146106df575b600080fd5b61067061066b366004614bbb565b610d35565b005b610670610680366004614c11565b610d45565b61068e6103e881565b6040519081526020015b60405180910390f35b6106b46106af366004614c2e565b610d9a565b6040516001600160a01b039091168152602001610698565b6106706106da366004614c60565b610dc4565b6106706106ed366004614f01565b610e46565b60cb5461070690600160a01b900460ff1681565b6040519015158152602001610698565b61068e60e15481565b6106b461072d366004614c2e565b61127e565b6106706107403660046150e0565b61128e565b61068e60df5481565b60d8546106b4906001600160a01b031681565b61068e60dd5481565b610670610778366004614c2e565b6112a0565b61067061078b366004614c2e565b6112cf565b61067061079e366004614c11565b6112dc565b60f7546106b4906001600160a01b031681565b61068e61271081565b61068e60de5481565b610670611328565b61067061135f565b61068e60e25481565b61068e60e35481565b60cb546106b4906001600160a01b031681565b61067061080b366004614c11565b611393565b61067061081e366004614c11565b6113df565b60d5546106b4906001600160a01b031681565b6106b4610844366004614c2e565b61142b565b60f8546106b4906001600160a01b031681565b61067061086a366004614c11565b61143b565b60975460ff16610706565b610670610888366004614c11565b611487565b60cd546106b4906001600160a01b031681565b6106706108ae366004614c11565b6114d3565b6106706108c1366004614c11565b61151f565b6106b46108d4366004614c2e565b61156b565b61068e6108e7366004615129565b61157b565b6106706108fa36600461514b565b61188e565b61068e60e05481565b60d9546106b4906001600160a01b031681565b610670610929366004614c11565b611958565b60ef546106b4906001600160a01b031681565b60d6546106b4906001600160a01b031681565b60fa546106b4906001600160a01b031681565b6106706119a4565b61067061097d36600461518d565b6119d8565b61068e60f95481565b610670610999366004614c11565b611ca0565b60da546106b4906001600160a01b031681565b61068e60f35481565b60d1546106b4906001600160a01b031681565b610670611cec565b6106706109e3366004615129565b611d1e565b6106706109f63660046151d7565b611d53565b61068e60dc5481565b61068e61232881565b610670610a1b366004614c11565b611e09565b6033546001600160a01b03166106b4565b610670610a3f366004614c11565b611e55565b6106b4610a52366004614c2e565b611ea1565b610670610a65366004614c11565b611eb1565b6106b4610a78366004614c2e565b611efd565b60d4546106b4906001600160a01b031681565b60cf546106b4906001600160a01b031681565b60f0546106b4906001600160a01b031681565b60f1546106b4906001600160a01b031681565b60ee546106b4906001600160a01b031681565b60cc546106b4906001600160a01b031681565b610670610afd366004614c2e565b611f0d565b610670610b10366004614bbb565b611f3c565b610670610b23366004614c11565b611f47565b6106b4610b36366004614c2e565b611f93565b61068e610b4936600461525f565b611fa3565b610670610b5c366004614c11565b612101565b60d7546106b4906001600160a01b031681565b61068e60f25481565b610670610b8b366004614c11565b61214d565b6106b4610b9e366004614c2e565b6121e4565b6106b4610bb1366004614c2e565b6121f4565b610670610bc4366004614c11565b612204565b6106b4610bd7366004614c2e565b612250565b610670610bea366004614c11565b612260565b60d2546106b4906001600160a01b031681565b6106b4610c10366004614c2e565b6122d8565b610670610c2336600461528b565b6122e8565b61068e610c3636600461525f565b61242e565b61068e610c49366004615129565b61258c565b610670610c5c366004614c2e565b612972565b60d3546106b4906001600160a01b031681565b60d0546106b4906001600160a01b031681565b610670610c95366004614c11565b612e59565b60db546106b4906001600160a01b031681565b610670610cbb366004614c11565b612ea5565b60c9546107069060ff1681565b61068e60ca5481565b60ed546106b4906001600160a01b031681565b610670610cf7366004614c11565b612ef1565b60ce546106b4906001600160a01b031681565b6106b4610d1d366004614c2e565b612f8c565b610670610d303660046151d7565b612f9c565b610d4083838361309a565b505050565b6033546001600160a01b03163314610d785760405162461bcd60e51b8152600401610d6f906152c4565b60405180910390fd5b60d280546001600160a01b0319166001600160a01b0392909216919091179055565b60f48181548110610daa57600080fd5b6000918252602090912001546001600160a01b0316905081565b60cb546001600160a01b03163314610dee5760405162461bcd60e51b8152600401610d6f906152f9565b60cb8054821515600160a01b0260ff60a01b199091161790556040517f125177ac7b8930dac1e59c2b30b1b6b9191b30af40cf6bbb5d20fec4d44be60f90610e3b90831515815260200190565b60405180910390a150565b600054610100900460ff16610e615760005460ff1615610e65565b303b155b610e815760405162461bcd60e51b8152600401610d6f90615317565b600054610100900460ff16158015610ea3576000805461ffff19166101011790555b815160ca5560208083015160c9805460ff1916911515919091179055604080840151805160cb8054600160a01b6001600160a01b039384166001600160a81b0319909216919091171790558184015160cc80546001600160a01b03199081169284169290921790558284015160ce8054831691841691909117905560608084015160cf8054841691851691909117905560808085015160d08054851691861691909117905560a085015160d18054851691861691909117905560e08086015160d38054861691871691909117905561010086015160d48054861691871691909117905561012086015160d78054861691871691909117905561014086015160d8805486169187169190911790556101608087015160d98054871691881691909117905561018087015160da805487169188169190911790556101a087015160db805487169188169190911790556101c09096015160d580548616919096161790945560f7805473e9e7cea3dedca5984780bafc599bd69add087d569085161790557f894ed9026de37afd9cce1e6c0be7d6b510e3ffe500010000000000000000000160f95560fa805473a82f327bbbf0667356d2935c6532d164b06ceced90851617905560f88054734197c6ef3879a08cd51e5560da5064b773aa1d29941693909317909255601e60f255600a60f35592870151805160dc558086015160dd559384015160de558383015160df55929092015190915583015180516110cc9260ea9201906149da565b50608082015180516110e69160e8916020909101906149da565b5060a082015180516111009160e4916020909101906149da565b5060c0820151805161111a9160eb916020909101906149da565b5060e082015180516111349160ec916020909101906149da565b50610100820151805161114f9160f4916020909101906149da565b50610120820151805161116a9160f5916020909101906149da565b5061014082015180516111859160f6916020909101906149da565b506111e960e48054806020026020016040519081016040528092919081815260200182805480156111df57602002820191906000526020600020905b81546001600160a01b031681526001909101906020018083116111c1575b505050505061355c565b80516111fd9160e6916020909101906149da565b50610180820151805160ed80546001600160a01b03199081166001600160a01b0393841617909155604083015160ef80548316918416919091179055608083015160f08054831691841691909117905560609092015160f1805490931691161790556112688361214d565b8015610d40576000805461ff0019169055505050565b60f68181548110610daa57600080fd5b61129a84848484613630565b50505050565b6033546001600160a01b031633146112ca5760405162461bcd60e51b8152600401610d6f906152c4565b60ca55565b6112d881613876565b5050565b6033546001600160a01b031633146113065760405162461bcd60e51b8152600401610d6f906152c4565b60d580546001600160a01b0319166001600160a01b0392909216919091179055565b6002606554141561134b5760405162461bcd60e51b8152600401610d6f90615365565b6002606555611358613989565b6001606555565b60cb546001600160a01b031633146113895760405162461bcd60e51b8152600401610d6f906152f9565b611391613a91565b565b6033546001600160a01b031633146113bd5760405162461bcd60e51b8152600401610d6f906152c4565b60d680546001600160a01b0319166001600160a01b0392909216919091179055565b6033546001600160a01b031633146114095760405162461bcd60e51b8152600401610d6f906152c4565b60d480546001600160a01b0319166001600160a01b0392909216919091179055565b60e78181548110610daa57600080fd5b6033546001600160a01b031633146114655760405162461bcd60e51b8152600401610d6f906152c4565b60ce80546001600160a01b0319166001600160a01b0392909216919091179055565b6033546001600160a01b031633146114b15760405162461bcd60e51b8152600401610d6f906152c4565b60d980546001600160a01b0319166001600160a01b0392909216919091179055565b6033546001600160a01b031633146114fd5760405162461bcd60e51b8152600401610d6f906152c4565b60d080546001600160a01b0319166001600160a01b0392909216919091179055565b6033546001600160a01b031633146115495760405162461bcd60e51b8152600401610d6f906152c4565b60da80546001600160a01b0319166001600160a01b0392909216919091179055565b60ea8181548110610daa57600080fd5b60cc546000906001600160a01b0316336001600160a01b0316146115b15760405162461bcd60e51b8152600401610d6f9061539c565b60975460ff16156115d45760405162461bcd60e51b8152600401610d6f906153c6565b6000831161161b5760405162461bcd60e51b8152602060048201526014602482015273057616e7420616d74206d757374206265203e20360641b6044820152606401610d6f565b60d054611633906001600160a01b0316333086613b24565b60d85460d054611650916001600160a01b03918216911685613b8f565b60d854604051632e1a7d4d60e01b8152600481018590526001600160a01b0390911690632e1a7d4d90602401600060405180830381600087803b15801561169657600080fd5b505af11580156116aa573d6000803e3d6000fd5b505060ed54600092506116c691506001600160a01b0316613c41565b60d1546040516370a0823160e01b81523060048201529192506000916001600160a01b03909116906370a0823190602401602060405180830381865afa158015611714573d6000803e3d6000fd5b505050506040513d601f19601f8201168201806040525081019061173891906153f0565b60d95460d154919250611758916001600160a01b03908116911683613b8f565b6040805161014081018252828152602080820185905264e8d4a510008284015260d1546001600160a01b03908116606084015260d554166080830152600060a0830181905260c083015260e0820187905260e68054845181840281018401909552808552611817946101008501939092919083018282801561180357602002820191906000526020600020905b81546001600160a01b031681526001909101906020018083116117e5575b505050918352505033602090910152613d81565b60d5546040516370a0823160e01b81523060048201526001600160a01b03909116906370a0823190602401602060405180830381865afa15801561185f573d6000803e3d6000fd5b505050506040513d601f19601f8201168201806040525081019061188391906153f0565b925050505b92915050565b60cb546001600160a01b031633146118b85760405162461bcd60e51b8152600401610d6f906152f9565b60d3546001600160a01b03848116911614156118fe5760405162461bcd60e51b8152602060048201526005602482015264217361666560d81b6044820152606401610d6f565b60d0546001600160a01b03848116911614156119445760405162461bcd60e51b8152602060048201526005602482015264217361666560d81b6044820152606401610d6f565b610d406001600160a01b0384168284613e69565b6033546001600160a01b031633146119825760405162461bcd60e51b8152600401610d6f906152c4565b60cf80546001600160a01b0319166001600160a01b0392909216919091179055565b6033546001600160a01b031633146119ce5760405162461bcd60e51b8152600401610d6f906152c4565b6113916000613e99565b60cb546001600160a01b03163314611a025760405162461bcd60e51b8152600401610d6f906152f9565b612328851015611a545760405162461bcd60e51b815260206004820152601a60248201527f5f656e7472616e6365466565466163746f7220746f6f206c6f770000000000006044820152606401610d6f565b612710851115611aa65760405162461bcd60e51b815260206004820152601b60248201527f5f656e7472616e6365466565466163746f7220746f6f206869676800000000006044820152606401610d6f565b60df859055612328841015611afd5760405162461bcd60e51b815260206004820152601a60248201527f5f7769746864726177466565466163746f7220746f6f206c6f770000000000006044820152606401610d6f565b612710841115611b4f5760405162461bcd60e51b815260206004820152601b60248201527f5f7769746864726177466565466163746f7220746f6f206869676800000000006044820152606401610d6f565b60e08490556103e8831115611ba65760405162461bcd60e51b815260206004820152601760248201527f5f636f6e74726f6c6c657246656520746f6f20686967680000000000000000006044820152606401610d6f565b60dc8390556103e8821115611bf55760405162461bcd60e51b81526020600482015260156024820152740bec4eaf284c2c6d6a4c2e8ca40e8dede40d0d2ced605b1b6044820152606401610d6f565b60dd8290556103e8811115611c455760405162461bcd60e51b81526020600482015260166024820152750bee4caeca6d0c2e4caa4c2e8ca40e8dede40d0d2ced60531b6044820152606401610d6f565b60de819055604080518681526020810186905290810184905260608101839052608081018290527fc67e0b149a57a70fa44a531a46c2c6d8e0b242fa12f459f250012c3a5987d29a9060a00160405180910390a15050505050565b6033546001600160a01b03163314611cca5760405162461bcd60e51b8152600401610d6f906152c4565b60f880546001600160a01b0319166001600160a01b0392909216919091179055565b60cb546001600160a01b03163314611d165760405162461bcd60e51b8152600401610d6f906152f9565b611391613eeb565b6033546001600160a01b03163314611d485760405162461bcd60e51b8152600401610d6f906152c4565b60f29190915560f355565b6033546001600160a01b03163314611d7d5760405162461bcd60e51b8152600401610d6f906152c4565b60ff8316611d915761129a60f48383614a3f565b8260ff1660011415611da95761129a60f58383614a3f565b8260ff1660021415611dc15761129a60f68383614a3f565b60405162461bcd60e51b815260206004820152601960248201527f756e737570706f727465642069647820737761702070617468000000000000006044820152606401610d6f565b6033546001600160a01b03163314611e335760405162461bcd60e51b8152600401610d6f906152c4565b60d780546001600160a01b0319166001600160a01b0392909216919091179055565b6033546001600160a01b03163314611e7f5760405162461bcd60e51b8152600401610d6f906152c4565b60db80546001600160a01b0319166001600160a01b0392909216919091179055565b60e98181548110610daa57600080fd5b6033546001600160a01b03163314611edb5760405162461bcd60e51b8152600401610d6f906152c4565b60f780546001600160a01b0319166001600160a01b0392909216919091179055565b60ec8181548110610daa57600080fd5b6033546001600160a01b03163314611f375760405162461bcd60e51b8152600401610d6f906152c4565b60f955565b610d40838383613f43565b6033546001600160a01b03163314611f715760405162461bcd60e51b8152600401610d6f906152c4565b60d380546001600160a01b0319166001600160a01b0392909216919091179055565b60e48181548110610daa57600080fd5b60cc546000906001600160a01b0316336001600160a01b031614611fd95760405162461bcd60e51b8152600401610d6f9061539c565b60026065541415611ffc5760405162461bcd60e51b8152600401610d6f90615365565b600260655560975460ff16156120245760405162461bcd60e51b8152600401610d6f906153c6565b600082116120745760405162461bcd60e51b815260206004820152601e60248201527f57616e7420746f6b656e206465706f736974206d757374206265203e203000006044820152606401610d6f565b60d05461208c906001600160a01b0316333085613b24565b819050600060e2541180156120a35750600060e354115b156120de576120db6127106120d560e2546120d560df546120cf60e3548961413090919063ffffffff16565b90614130565b90614143565b90505b60e3546120eb908261414f565b60e3556120f6613989565b600160655592915050565b6033546001600160a01b0316331461212b5760405162461bcd60e51b8152600401610d6f906152c4565b60cc80546001600160a01b0319166001600160a01b0392909216919091179055565b600054610100900460ff166121685760005460ff161561216c565b303b155b6121885760405162461bcd60e51b8152600401610d6f90615317565b600054610100900460ff161580156121aa576000805461ffff19166101011790555b6121b261415b565b6121bb82612ef1565b60d680546001600160a01b03191661dead17905580156112d8576000805461ff00191690555050565b60e58181548110610daa57600080fd5b60e68181548110610daa57600080fd5b6033546001600160a01b0316331461222e5760405162461bcd60e51b8152600401610d6f906152c4565b60d180546001600160a01b0319166001600160a01b0392909216919091179055565b60e88181548110610daa57600080fd5b60cb546001600160a01b0316331461228a5760405162461bcd60e51b8152600401610d6f906152f9565b60cb80546001600160a01b0319166001600160a01b0383169081179091556040519081527f91a8c1cc2d4a3bb60738481947a00cbb9899c822916694cf8bb1d68172fdcd5490602001610e3b565b60f58181548110610daa57600080fd5b6033546001600160a01b031633146123125760405162461bcd60e51b8152600401610d6f906152c4565b60ff821661233b5760ed80546001600160a01b0383166001600160a01b03199091161790555050565b8160ff16600114156123685760ee80546001600160a01b0383166001600160a01b03199091161790555050565b8160ff16600214156123955760ef80546001600160a01b0383166001600160a01b03199091161790555050565b8160ff16600314156123c25760f180546001600160a01b0383166001600160a01b03199091161790555050565b8160ff16600414156123ef5760f080546001600160a01b0383166001600160a01b03199091161790555050565b60405162461bcd60e51b81526020600482015260146024820152730eadce6eae0e0dee4e8cac840cccacac840d2c8f60631b6044820152606401610d6f565b60cc546000906001600160a01b0316336001600160a01b0316146124645760405162461bcd60e51b8152600401610d6f9061539c565b600260655414156124875760405162461bcd60e51b8152600401610d6f90615365565b600260655560975460ff16156124af5760405162461bcd60e51b8152600401610d6f906153c6565b600082116124ef5760405162461bcd60e51b815260206004820152600d60248201526c077616e7420616d74203c3d203609c1b6044820152606401610d6f565b61250a60e2546120d560e3548561413090919063ffffffff16565b905060e35481111561251b575060e3545b60e354612528908261418a565b60e35560e0546127101115612555576125526127106120d560e0548561413090919063ffffffff16565b91505b600061256083613876565b60cc5460d054919250612580916001600160a01b03908116911683613e69565b50600160655592915050565b60cc546000906001600160a01b0316336001600160a01b0316146125c25760405162461bcd60e51b8152600401610d6f9061539c565b60975460ff16156125e55760405162461bcd60e51b8152600401610d6f906153c6565b60d5546040516370a0823160e01b81523060048201526000916001600160a01b0316906370a0823190602401602060405180830381865afa15801561262e573d6000803e3d6000fd5b505050506040513d601f19601f8201168201806040525081019061265291906153f0565b9050600084116126a45760405162461bcd60e51b815260206004820152601860248201527f55534443206465706f736974206d757374206265203e203000000000000000006044820152606401610d6f565b808411156126f45760405162461bcd60e51b815260206004820152601960248201527f5553444320646573697265642065786365656465642062616c000000000000006044820152606401610d6f565b60ed5460009061270c906001600160a01b0316613c41565b60d95460d55491925061272c916001600160a01b03908116911687613b8f565b604080516101408101825286815264e8d4a5100060208083019190915281830184905260d5546001600160a01b03908116606084015260d154166080830152600060a0830181905260c083015260e0820187905260e480548451818402810184019095528085526127ee94610100850193909291908301828280156127da57602002820191906000526020600020905b81546001600160a01b031681526001909101906020018083116127bc575b505050918352505030602090910152613d81565b60d1546040516370a0823160e01b81523060048201526000916001600160a01b0316906370a0823190602401602060405180830381865afa158015612837573d6000803e3d6000fd5b505050506040513d601f19601f8201168201806040525081019061285b91906153f0565b60d85460d15491925061287b916001600160a01b03908116911683613b8f565b60d85460405163b6b55f2560e01b8152600481018390526001600160a01b039091169063b6b55f2590602401600060405180830381600087803b1580156128c157600080fd5b505af11580156128d5573d6000803e3d6000fd5b505060d0546040516370a0823160e01b8152306004820152600093506001600160a01b0390911691506370a0823190602401602060405180830381865afa158015612924573d6000803e3d6000fd5b505050506040513d601f19601f8201168201806040525081019061294891906153f0565b60cc5460d054919250612968916001600160a01b03908116911683613e69565b9695505050505050565b600260655414156129955760405162461bcd60e51b8152600401610d6f90615365565b600260655560975460ff16156129bd5760405162461bcd60e51b8152600401610d6f906153c6565b60cb54600160a01b900460ff16156129f95760cb546001600160a01b031633146129f95760405162461bcd60e51b8152600401610d6f906152f9565b612a036000613876565b5060d3546040516370a0823160e01b81523060048201526000916001600160a01b0316906370a0823190602401602060405180830381865afa158015612a4d573d6000803e3d6000fd5b505050506040513d601f19601f82011682018060405250810190612a7191906153f0565b60ef54909150600090612a8c906001600160a01b0316613c41565b60ed54909150600090612aa7906001600160a01b0316613c41565b60f154909150600090612ac2906001600160a01b0316613c41565b60f154909150600090612add906001600160a01b0316613c41565b60408051606081018252868152602081018590529081018290529091506000612b0587614196565b9050600080612b15898b866141e6565b90925090506000612b3282612b2c85818e8961418a565b9061418a565b604080516101408101825282815260208082018d905264e8d4a510008284015260d3546001600160a01b03908116606084015260f75416608083015260f25460a083015260f35460c083015260e082018f905260e88054845181840281018401909552808552949550612bf494929361010085019390928301828280156127da576020028201919060005260206000209081546001600160a01b031681526001909101906020018083116127bc57505050918352505030602090910152613d81565b60f7546040516370a0823160e01b81523060048201526000916001600160a01b0316906370a0823190602401602060405180830381865afa158015612c3d573d6000803e3d6000fd5b505050506040513d601f19601f82011682018060405250810190612c6191906153f0565b9050612d4d60405180610140016040528083815260200164e8d4a5100081526020018b815260200160f760009054906101000a90046001600160a01b03166001600160a01b0316815260200160d160009054906101000a90046001600160a01b03166001600160a01b0316815260200160008152602001600081526020018e815260200160f48054806020026020016040519081016040528092919081815260200182805480156127da576020028201919060005260206000209081546001600160a01b031681526001909101906020018083116127bc57505050918352505030602090910152613d81565b60d1546040516370a0823160e01b81523060048201526000916001600160a01b0316906370a0823190602401602060405180830381865afa158015612d96573d6000803e3d6000fd5b505050506040513d601f19601f82011682018060405250810190612dba91906153f0565b60d85460d154919250612dda916001600160a01b03908116911683613b8f565b60d85460405163b6b55f2560e01b8152600481018390526001600160a01b039091169063b6b55f2590602401600060405180830381600087803b158015612e2057600080fd5b505af1158015612e34573d6000803e3d6000fd5b50504360e15550612e459050613989565b505060016065555050505050505050505050565b6033546001600160a01b03163314612e835760405162461bcd60e51b8152600401610d6f906152c4565b60d880546001600160a01b0319166001600160a01b0392909216919091179055565b6033546001600160a01b03163314612ecf5760405162461bcd60e51b8152600401610d6f906152c4565b60fa80546001600160a01b0319166001600160a01b0392909216919091179055565b6033546001600160a01b03163314612f1b5760405162461bcd60e51b8152600401610d6f906152c4565b6001600160a01b038116612f805760405162461bcd60e51b815260206004820152602660248201527f4f776e61626c653a206e6577206f776e657220697320746865207a65726f206160448201526564647265737360d01b6064820152608401610d6f565b612f8981613e99565b50565b60eb8181548110610daa57600080fd5b6033546001600160a01b03163314612fc65760405162461bcd60e51b8152600401610d6f906152c4565b60ff8316612fda5761129a60e48383614a3f565b8260ff1660011415612ff25761129a60e58383614a3f565b8260ff166002141561300a5761129a60e68383614a3f565b8260ff16600314156130225761129a60e78383614a3f565b8260ff166004141561303a5761129a60e88383614a3f565b8260ff16600514156130525761129a60e98383614a3f565b8260ff166006141561306a5761129a60ea8383614a3f565b8260ff16600714156130825761129a60eb8383614a3f565b8260ff16600814156123ef5761129a60ec8383614a3f565b60408051610140810182528481528251602082015264e8d4a510009181019190915260d3546001600160a01b0390811660608381019190915260f754909116608083015260f25460a083015260f35460c083015260e082018490526101008201819052306101208301529061310e90613d81565b60f7546040516370a0823160e01b81523060048201526000916001600160a01b0316906370a0823190602401602060405180830381865afa158015613157573d6000803e3d6000fd5b505050506040513d601f19601f8201168201806040525081019061317b91906153f0565b90506132596040518061014001604052806131a060028561414390919063ffffffff16565b815264e8d4a510006020808301919091528681015160408084019190915260f7546001600160a01b03908116606085015260ce54166080840152600060a0840181905260c084015260e0830189905260f580548251818502810185019093528083526101009094019391929091908301828280156127da576020028201919060005260206000209081546001600160a01b031681526001909101906020018083116127bc57505050918352505030602090910152613d81565b61333260405180610140016040528061327c60028561414390919063ffffffff16565b815264e8d4a510006020808301919091526040878101518184015260f7546001600160a01b03908116606085015260db54166080840152600060a0840181905260c084015260e0830189905260f680548251818502810185019093528083526101009094019391929091908301828280156127da576020028201919060005260206000209081546001600160a01b031681526001909101906020018083116127bc57505050918352505030602090910152613d81565b60ce546040516370a0823160e01b81523060048201526000916001600160a01b0316906370a0823190602401602060405180830381865afa15801561337b573d6000803e3d6000fd5b505050506040513d601f19601f8201168201806040525081019061339f91906153f0565b60db546040516370a0823160e01b81523060048201529192506000916001600160a01b03909116906370a0823190602401602060405180830381865afa1580156133ed573d6000803e3d6000fd5b505050506040513d601f19601f8201168201806040525081019061341191906153f0565b60d95460ce54919250613431916001600160a01b03908116911684613b8f565b60d95460db5461344e916001600160a01b03918216911683613b8f565b60d95460ce5460db546001600160a01b039283169263e8e337009281169116858561347f6103e86120d5848f614130565b6134986103e86120d58f8b61413090919063ffffffff16565b60d6546001600160a01b03166134b04261025861414f565b60405160e08a901b6001600160e01b03191681526001600160a01b039889166004820152968816602488015260448701959095526064860193909352608485019190915260a484015290921660c482015260e4810191909152610104016060604051808303816000875af115801561352c573d6000803e3d6000fd5b505050506040513d601f19601f820116820180604052508101906135509190615409565b50505050505050505050565b80516060908067ffffffffffffffff81111561357a5761357a614aa7565b6040519080825280602002602001820160405280156135a3578160200160208202803683370190505b50915060005b818161ffff16101561362957836135d38261ffff16612b2c6001885161418a90919063ffffffff16565b815181106135e3576135e3615437565b6020026020010151838261ffff168151811061360157613601615437565b6001600160a01b039092166020928302919091019091015261362281615463565b90506135a9565b5050919050565b6040805161014081018252858152825160208083019190915264e8d4a510008284015260d3546001600160a01b03908116606084015260f75416608083015260f25460a083015260f35460c083015260e0820185905260ec80548451818402810184019095528085526136f294610100850193909291908301828280156127da576020028201919060005260206000209081546001600160a01b031681526001909101906020018083116127bc57505050918352505030602090910152613d81565b60f7546040516370a0823160e01b81523060048201526000916001600160a01b0316906370a0823190602401602060405180830381865afa15801561373b573d6000803e3d6000fd5b505050506040513d601f19601f8201168201806040525081019061375f91906153f0565b6040805160028082526060820183529293506000929091602083019080368337505060f75482519293506001600160a01b0316918391506000906137a5576137a5615437565b6001600160a01b03928316602091820292909201015260d5548251911690829060019081106137d6576137d6615437565b6001600160a01b03928316602091820292909201015260d95460f75461380192908116911684613b8f565b604080516101408101825283815264e8d4a51000602082018190529181019190915260f7546001600160a01b03908116606083015260d55481166080830152600060a0830181905260c083015260e082018690526101008201839052861661012082015261386e90613d81565b505050505050565b60d45460d05460405163f3fef3a360e01b81526001600160a01b03918216600482015260248101849052600092919091169063f3fef3a390604401600060405180830381600087803b1580156138cb57600080fd5b505af11580156138df573d6000803e3d6000fd5b505060d0546040516370a0823160e01b8152306004820152859450600093506001600160a01b0390911691506370a0823190602401602060405180830381865afa158015613931573d6000803e3d6000fd5b505050506040513d601f19601f8201168201806040525081019061395591906153f0565b905080821115613963578091505b8260e25410156139735760e25491505b60e254613980908361418a565b60e25550919050565b60d0546040516370a0823160e01b81523060048201526000916001600160a01b0316906370a0823190602401602060405180830381865afa1580156139d2573d6000803e3d6000fd5b505050506040513d601f19601f820116820180604052508101906139f691906153f0565b60e254909150613a06908261414f565b60e25560d45460d054613a26916001600160a01b03918216911683613b8f565b60d45460d0546040516311f9fbc960e21b81526001600160a01b039182166004820152602481018490529116906347e7ef2490604401600060405180830381600087803b158015613a7657600080fd5b505af1158015613a8a573d6000803e3d6000fd5b5050505050565b60975460ff16613ada5760405162461bcd60e51b815260206004820152601460248201527314185d5cd8589b194e881b9bdd081c185d5cd95960621b6044820152606401610d6f565b6097805460ff191690557f5db9ee0a495bf2e6ff9c91a7834c1ba4fdd244a5e8aa4e537bd38aeae4b073aa335b6040516001600160a01b03909116815260200160405180910390a1565b6040516001600160a01b038085166024830152831660448201526064810182905261129a9085906323b872dd60e01b906084015b60408051601f198184030181529190526020810180516001600160e01b03166001600160e01b0319909316929092179091526142fe565b604051636eb1769f60e11b81523060048201526001600160a01b038381166024830152600091839186169063dd62ed3e90604401602060405180830381865afa158015613be0573d6000803e3d6000fd5b505050506040513d601f19601f82011682018060405250810190613c0491906153f0565b613c0e9190615485565b6040516001600160a01b03851660248201526044810182905290915061129a90859063095ea7b360e01b90606401613b58565b600080826001600160a01b031663313ce5676040518163ffffffff1660e01b8152600401602060405180830381865afa158015613c82573d6000803e3d6000fd5b505050506040513d601f19601f82011682018060405250810190613ca6919061549d565b90506000836001600160a01b031663feaf968c6040518163ffffffff1660e01b815260040160a060405180830381865afa158015613ce8573d6000803e3d6000fd5b505050506040513d601f19601f82011682018060405250810190613d0c91906154d4565b5050509150506000811215613d5c5760405162461bcd60e51b81526020600482015260166024820152751b9959c81c1c9a58d95cc81b9bdd08185b1b1bddd95960521b6044820152606401610d6f565b613d79613d6a83600a615608565b6120d58364e8d4a51000614130565b949350505050565b60f85460608201516001600160a01b0390811691161480613db4575060f85460808201516001600160a01b039081169116145b15613df75760fa5481516060830151613ddb926001600160a01b0391821692911690613b8f565b60f95460fa54612f89916001600160a01b0390911690836143d0565b60d95481516060830151613e19926001600160a01b0391821692911690613b8f565b612f898160000151826020015183604001518460e00151856101000151866101200151613e516102584261414f90919063ffffffff16565b60d9546001600160a01b031696959493929190614589565b6040516001600160a01b038316602482015260448101829052610d4090849063a9059cbb60e01b90606401613b58565b603380546001600160a01b038381166001600160a01b0319831681179093556040519116919082907f8be0079c531659141344cd1fd0a4f28419497f9722a3daafe3b4186f6b6457e090600090a35050565b60975460ff1615613f0e5760405162461bcd60e51b8152600401610d6f906153c6565b6097805460ff191660011790557f62e78cea01bee320cd4e420270b5ea74000d11b0c9f74754ebdbfc544b05a258613b073390565b60d95460d354613f60916001600160a01b03918216911685613b8f565b60408051610140810182528481528251602082015264e8d4a510009181019190915260d3546001600160a01b0390811660608381019190915260f754909116608083015260f25460a083015260f35460c083015260e0820184905261010082018190523061012083015290613fd490613d81565b60d5546040516370a0823160e01b81523060048201526000916001600160a01b0316906370a0823190602401602060405180830381865afa15801561401d573d6000803e3d6000fd5b505050506040513d601f19601f8201168201806040525081019061404191906153f0565b60d95460d554919250614061916001600160a01b03908116911683613b8f565b604080516101408101825282815264e8d4a51000602080830191909152858101518284015260d5546001600160a01b03908116606084015260ce54166080830152600060a0830181905260c083015260e0820187905260f58054845181840281018401909552808552613a8a946101008501939092919083018282801561411157602002820191906000526020600020905b81546001600160a01b031681526001909101906020018083116140f3575b505050918352505060cf546001600160a01b0316602090910152613d81565b600061413c8284615617565b9392505050565b600061413c8284615636565b600061413c8284615485565b600054610100900460ff166141825760405162461bcd60e51b8152600401610d6f90615658565b6113916146f2565b600061413c82846156a3565b600081156141e15760dc54156141e1576141c16127106120d560dc548561413090919063ffffffff16565b60d75460d3549192506141e1916001600160a01b03908116911683613e69565b919050565b600080600060dd5411156142125761420f6127106120d560dd548861413090919063ffffffff16565b91505b60de5415614238576142356127106120d560de548861413090919063ffffffff16565b90505b60c95460ff161561425e5761424e82858561309a565b614259818585613f43565b6142f6565b61427e61426b838361414f565b60cc546001600160a01b03168686613630565b60cd5460ca5460405163464e3c8b60e01b815260048101919091526024810184905260448101839052606481018690526001600160a01b039091169063464e3c8b90608401600060405180830381600087803b1580156142dd57600080fd5b505af11580156142f1573d6000803e3d6000fd5b505050505b935093915050565b6000614353826040518060400160405280602081526020017f5361666545524332303a206c6f772d6c6576656c2063616c6c206661696c6564815250856001600160a01b03166147229092919063ffffffff16565b805190915015610d40578080602001905181019061437191906156ba565b610d405760405162461bcd60e51b815260206004820152602a60248201527f5361666545524332303a204552433230206f7065726174696f6e20646964206e6044820152691bdd081cdd58d8d9595960b21b6064820152608401610d6f565b60008160200151600014806143e757506040820151155b156144255761441e6144006103e864e8d4a51000614130565b6120d58460e001516120cf614416898989614731565b875190614130565b9050614458565b60408201516144559061443a906103e8614130565b60e0840151602085015185516120d592916120cf9190614130565b90505b836001600160a01b03166352bbbe296040518060c001604052808681526020016000600181111561448b5761448b6156d7565b815260200185606001516001600160a01b0316815260200185608001516001600160a01b0316815260200185600001518152602001604051806020016040528060008152508152506040518060800160405280306001600160a01b031681526020016000151581526020018661012001516001600160a01b0316815260200160001515815250846145276102584261414f90919063ffffffff16565b6040518563ffffffff1660e01b81526004016145469493929190615745565b6020604051808303816000875af1158015614565573d6000803e3d6000fd5b505050506040513d601f19601f82011682018060405250810190613a8a91906153f0565b6000861580614596575085155b156146615760405163d06ca61f60e01b81526000906001600160a01b038b169063d06ca61f906145cc908c908990600401615867565b600060405180830381865afa1580156145e9573d6000803e3d6000fd5b505050506040513d6000823e601f3d908101601f191682016040526146119190810190615880565b90506146596103e86120d588846146336001875161418a90919063ffffffff16565b8151811061464357614643615437565b602002602001015161413090919063ffffffff16565b915050614681565b61467e614670876103e8614130565b6120d5876120cf8c8c614130565b90505b604051635c11d79560e01b81526001600160a01b038a1690635c11d795906146b5908b908590899089908990600401615906565b600060405180830381600087803b1580156146cf57600080fd5b505af11580156146e3573d6000803e3d6000fd5b50505050505050505050505050565b600054610100900460ff166147195760405162461bcd60e51b8152600401610d6f90615658565b61139133613e99565b6060613d798484600085614870565b608081015160405163160bf1c960e31b8152600481018490526001600160a01b03918216602482015260009182919086169063b05f8e48906044016080604051808303816000875af115801561478b573d6000803e3d6000fd5b505050506040513d601f19601f820116820180604052508101906147af9190615942565b505050606084015160405163160bf1c960e31b8152600481018790526001600160a01b0391821660248201529192506000919087169063b05f8e48906044016080604051808303816000875af115801561480d573d6000803e3d6000fd5b505050506040513d601f19601f820116820180604052508101906148319190615942565b50505090506129686148508560c001518361413090919063ffffffff16565b6120d564e8d4a510006120cf8860a001518761413090919063ffffffff16565b6060824710156148d15760405162461bcd60e51b815260206004820152602660248201527f416464726573733a20696e73756666696369656e742062616c616e636520666f6044820152651c8818d85b1b60d21b6064820152608401610d6f565b6001600160a01b0385163b6149285760405162461bcd60e51b815260206004820152601d60248201527f416464726573733a2063616c6c20746f206e6f6e2d636f6e74726163740000006044820152606401610d6f565b600080866001600160a01b031685876040516149449190615983565b60006040518083038185875af1925050503d8060008114614981576040519150601f19603f3d011682016040523d82523d6000602084013e614986565b606091505b50915091506149968282866149a1565b979650505050505050565b606083156149b057508161413c565b8251156149c05782518084602001fd5b8160405162461bcd60e51b8152600401610d6f919061599f565b828054828255906000526020600020908101928215614a2f579160200282015b82811115614a2f57825182546001600160a01b0319166001600160a01b039091161782556020909201916001909101906149fa565b50614a3b929150614a92565b5090565b828054828255906000526020600020908101928215614a2f579160200282015b82811115614a2f5781546001600160a01b0319166001600160a01b03843516178255602090920191600190910190614a5f565b5b80821115614a3b5760008155600101614a93565b634e487b7160e01b600052604160045260246000fd5b6040516101e0810167ffffffffffffffff81118282101715614ae157614ae1614aa7565b60405290565b60405160a0810167ffffffffffffffff81118282101715614ae157614ae1614aa7565b6040516101a0810167ffffffffffffffff81118282101715614ae157614ae1614aa7565b604051601f8201601f1916810167ffffffffffffffff81118282101715614b5757614b57614aa7565b604052919050565b600060608284031215614b7157600080fd5b6040516060810181811067ffffffffffffffff82111715614b9457614b94614aa7565b80604052508091508235815260208301356020820152604083013560408201525092915050565b600080600060a08486031215614bd057600080fd5b8335925060208401359150614be88560408601614b5f565b90509250925092565b6001600160a01b0381168114612f8957600080fd5b80356141e181614bf1565b600060208284031215614c2357600080fd5b813561413c81614bf1565b600060208284031215614c4057600080fd5b5035919050565b8015158114612f8957600080fd5b80356141e181614c47565b600060208284031215614c7257600080fd5b813561413c81614c47565b60006101e08284031215614c9057600080fd5b614c98614abd565b9050614ca382614c06565b8152614cb160208301614c06565b6020820152614cc260408301614c06565b6040820152614cd360608301614c06565b6060820152614ce460808301614c06565b6080820152614cf560a08301614c06565b60a0820152614d0660c08301614c06565b60c0820152614d1760e08301614c06565b60e0820152610100614d2a818401614c06565b90820152610120614d3c838201614c06565b90820152610140614d4e838201614c06565b90820152610160614d60838201614c06565b90820152610180614d72838201614c06565b908201526101a0614d84838201614c06565b908201526101c0614d96838201614c06565b9082015292915050565b600067ffffffffffffffff821115614dba57614dba614aa7565b5060051b60200190565b600082601f830112614dd557600080fd5b81356020614dea614de583614da0565b614b2e565b82815260059290921b84018101918181019086841115614e0957600080fd5b8286015b84811015614e2d578035614e2081614bf1565b8352918301918301614e0d565b509695505050505050565b600060a08284031215614e4a57600080fd5b614e52614ae7565b9050813581526020820135602082015260408201356040820152606082013560608201526080820135608082015292915050565b600060a08284031215614e9857600080fd5b614ea0614ae7565b90508135614ead81614bf1565b81526020820135614ebd81614bf1565b60208201526040820135614ed081614bf1565b60408201526060820135614ee381614bf1565b60608201526080820135614ef681614bf1565b608082015292915050565b60008060408385031215614f1457600080fd5b8235614f1f81614bf1565b9150602083013567ffffffffffffffff80821115614f3c57600080fd5b908401906104608287031215614f5157600080fd5b614f59614b0a565b82358152614f6960208401614c55565b6020820152614f7b8760408501614c7d565b604082015261022083013582811115614f9357600080fd5b614f9f88828601614dc4565b60608301525061024083013582811115614fb857600080fd5b614fc488828601614dc4565b60808301525061026083013582811115614fdd57600080fd5b614fe988828601614dc4565b60a0830152506102808301358281111561500257600080fd5b61500e88828601614dc4565b60c0830152506102a08301358281111561502757600080fd5b61503388828601614dc4565b60e0830152506102c08301358281111561504c57600080fd5b61505888828601614dc4565b610100830152506102e08301358281111561507257600080fd5b61507e88828601614dc4565b610120830152506103008301358281111561509857600080fd5b6150a488828601614dc4565b610140830152506150b9876103208501614e38565b6101608201526150cd876103c08501614e86565b6101808201528093505050509250929050565b60008060008060c085870312156150f657600080fd5b84359350602085013561510881614bf1565b92506040850135915061511e8660608701614b5f565b905092959194509250565b6000806040838503121561513c57600080fd5b50508035926020909101359150565b60008060006060848603121561516057600080fd5b833561516b81614bf1565b925060208401359150604084013561518281614bf1565b809150509250925092565b600080600080600060a086880312156151a557600080fd5b505083359560208501359550604085013594606081013594506080013592509050565b60ff81168114612f8957600080fd5b6000806000604084860312156151ec57600080fd5b83356151f7816151c8565b9250602084013567ffffffffffffffff8082111561521457600080fd5b818601915086601f83011261522857600080fd5b81358181111561523757600080fd5b8760208260051b850101111561524c57600080fd5b6020830194508093505050509250925092565b6000806040838503121561527257600080fd5b823561527d81614bf1565b946020939093013593505050565b6000806040838503121561529e57600080fd5b82356152a9816151c8565b915060208301356152b981614bf1565b809150509250929050565b6020808252818101527f4f776e61626c653a2063616c6c6572206973206e6f7420746865206f776e6572604082015260600190565b60208082526004908201526310b3b7bb60e11b604082015260600190565b6020808252602e908201527f496e697469616c697a61626c653a20636f6e747261637420697320616c72656160408201526d191e481a5b9a5d1a585b1a5e995960921b606082015260800190565b6020808252601f908201527f5265656e7472616e637947756172643a207265656e7472616e742063616c6c00604082015260600190565b60208082526010908201526f10bd37b93937a1b7b73a3937b63632b960811b604082015260600190565b60208082526010908201526f14185d5cd8589b194e881c185d5cd95960821b604082015260600190565b60006020828403121561540257600080fd5b5051919050565b60008060006060848603121561541e57600080fd5b8351925060208401519150604084015190509250925092565b634e487b7160e01b600052603260045260246000fd5b634e487b7160e01b600052601160045260246000fd5b600061ffff8083168181141561547b5761547b61544d565b6001019392505050565b600082198211156154985761549861544d565b500190565b6000602082840312156154af57600080fd5b815161413c816151c8565b805169ffffffffffffffffffff811681146141e157600080fd5b600080600080600060a086880312156154ec57600080fd5b6154f5866154ba565b9450602086015193506040860151925060608601519150615518608087016154ba565b90509295509295909350565b600181815b8085111561555f5781600019048211156155455761554561544d565b8085161561555257918102915b93841c9390800290615529565b509250929050565b60008261557657506001611888565b8161558357506000611888565b816001811461559957600281146155a3576155bf565b6001915050611888565b60ff8411156155b4576155b461544d565b50506001821b611888565b5060208310610133831016604e8410600b84101617156155e2575081810a611888565b6155ec8383615524565b80600019048211156156005761560061544d565b029392505050565b600061413c60ff841683615567565b60008160001904831182151516156156315761563161544d565b500290565b60008261565357634e487b7160e01b600052601260045260246000fd5b500490565b6020808252602b908201527f496e697469616c697a61626c653a20636f6e7472616374206973206e6f74206960408201526a6e697469616c697a696e6760a81b606082015260800190565b6000828210156156b5576156b561544d565b500390565b6000602082840312156156cc57600080fd5b815161413c81614c47565b634e487b7160e01b600052602160045260246000fd5b60005b838110156157085781810151838201526020016156f0565b8381111561129a5750506000910152565b600081518084526157318160208601602086016156ed565b601f01601f19169290920160200192915050565b60e08152845160e0820152600060208601516002811061577557634e487b7160e01b600052602160045260246000fd5b61010083015260408601516001600160a01b031661012083015260608601516157aa6101408401826001600160a01b03169052565b50608086015161016083015260a086015160c06101808401526157d16101a0840182615719565b915050615811602083018680516001600160a01b039081168352602080830151151590840152604080830151909116908301526060908101511515910152565b60a082019390935260c0015292915050565b600081518084526020808501945080840160005b8381101561585c5781516001600160a01b031687529582019590820190600101615837565b509495945050505050565b828152604060208201526000613d796040830184615823565b6000602080838503121561589357600080fd5b825167ffffffffffffffff8111156158aa57600080fd5b8301601f810185136158bb57600080fd5b80516158c9614de582614da0565b81815260059190911b820183019083810190878311156158e857600080fd5b928401925b82841015614996578351825292840192908401906158ed565b85815284602082015260a06040820152600061592560a0830186615823565b6001600160a01b0394909416606083015250608001529392505050565b6000806000806080858703121561595857600080fd5b845193506020850151925060408501519150606085015161597881614bf1565b939692955090935050565b600082516159958184602087016156ed565b9190910192915050565b60208152600061413c602083018461571956fea264697066735822122017ac9f82ca1bea6ab7985a6d69e72a34eb93c02fca3145cd376a3bf4e19ea31864736f6c634300080a0033",
  "immutableReferences": {},
  "source": "// SPDX-License-Identifier: MIT\n\npragma solidity ^0.8.0;\n\nimport \"../VaultAcryptosSingle.sol\";\n\nimport \"../../tokens/mocks/MockToken.sol\";\n\ncontract MockVaultFactoryAcryptosSingle is VaultFactoryAcryptosSingle {\n    \n}\n\ncontract MockVaultAcryptosSingle is VaultAcryptosSingle {\n    function unfarm(uint256 _wantAmt) public {\n        _unfarm(_wantAmt);\n    }\n    \n    function swapEarnedToUSDC(\n        uint256 _earnedAmount,\n        address _destination,\n        uint256 _maxMarketMovementAllowed,\n        ExchangeRates memory _rates\n    ) public {\n        _swapEarnedToUSDC(_earnedAmount, _destination, _maxMarketMovementAllowed, _rates);\n    }\n\n    function revShareOnChain(\n        uint256 _amount,\n        uint256 _maxMarketMovementAllowed,\n        ExchangeRates memory _rates\n    ) public {\n        _revShareOnChain(_amount, _maxMarketMovementAllowed, _rates);\n    }\n\n    function buybackOnChain(\n        uint256 _amount,\n        uint256 _maxMarketMovementAllowed,\n        ExchangeRates memory _rates\n    ) public {\n        _buybackOnChain(_amount, _maxMarketMovementAllowed, _rates);\n    }\n}\n\ncontract MockAcryptosVault is IAcryptosVault, MockERC20Upgradeable {\n    using SafeERC20Upgradeable for IERC20Upgradeable;\n\n    event AddedLiquidity(uint256 _amount, uint256 _liquidity);\n    event RemovedLiquidity(uint256 _amount);\n\n    address public token0;\n    address public burnAddress;\n\n    function setToken0Address(address _token) public {\n        token0 = _token;\n    }\n\n    function setBurnAddress(address _burn) public {\n        burnAddress = _burn;\n    }\n\n    function deposit(uint256 _amount) public {\n        IERC20Upgradeable(token0).safeTransferFrom(msg.sender, address(this), _amount);\n        uint256 _liquidity = 1 ether; // Hard code for tests\n        _mint(msg.sender, _liquidity);\n        emit AddedLiquidity(_amount, _liquidity);\n    }\n\n    function withdraw(uint256 _shares) public {\n        IERC20Upgradeable(address(this)).safeTransferFrom(msg.sender, burnAddress, _shares);\n        uint256 _withdrawalAmt = 2 ether; // Hard code for tests\n        IMockERC20Upgradeable(token0).mint(msg.sender, _withdrawalAmt);\n        emit RemovedLiquidity(_withdrawalAmt);\n    }\n}\n\ncontract MockAcryptosFarm is IAcryptosFarm, MockERC20Upgradeable {\n    using SafeERC20Upgradeable for IERC20Upgradeable;\n\n    event Deposited(address indexed _want, uint256 indexed _amount);\n    event Withdrew(address indexed _want, uint256 indexed _amount);\n\n    address public burnAddress;\n    address public wantToken;\n\n    function setWantAddress(address _wantToken) public {\n        wantToken = _wantToken;\n    }\n\n    function setBurnAddress(address _burnAddress) public {\n        burnAddress = _burnAddress;\n    }\n\n    function deposit(address _lpToken, uint256 _amount) public {\n        IERC20Upgradeable(wantToken).safeTransferFrom(msg.sender, burnAddress, _amount);\n        emit Deposited(_lpToken, _amount);\n    }\n\n    function withdraw(address _lpToken, uint256 _amount) public {\n        IMockERC20Upgradeable(wantToken).mint(msg.sender, _amount);\n        emit Withdrew(_lpToken, _amount);\n    }\n}\n\ncontract MockBUSD is MockERC20Upgradeable {}\ncontract MockACS is MockERC20Upgradeable {}",
  "sourcePath": "/Users/kristophm/Documents/workspace/zorro-protocol/contracts/vaults/mocks/MockVaultAcryptosSingle.sol",
  "compiler": {
    "name": "solc",
    "version": "0.8.10+commit.fc410830.Emscripten.clang"
  },
  "schemaVersion": "3.4.4",
  "updatedAt": "2022-05-15T15:27:13.513Z",
  "networkType": "ethereum",
  "devdoc": {
    "kind": "dev",
    "methods": {
      "depositWantToken(address,uint256)": {
        "params": {
          "_account": "address of user that this deposit is intended for",
          "_wantAmt": "amount of Want token to deposit/stake"
        },
        "returns": {
          "sharesAdded": "uint256 Number of shares added"
        }
      },
      "earn(uint256)": {
        "params": {
          "_maxMarketMovementAllowed": "The max slippage allowed. 1000 = 0 %, 995 = 0.5%, etc."
        }
      },
      "exchangeUSDForWantToken(uint256,uint256)": {
        "params": {
          "_amountUSDC": "The USDC quantity to exchange (must already be deposited)",
          "_maxMarketMovementAllowed": "The max slippage allowed. 1000 = 0 %, 995 = 0.5%, etc."
        },
        "returns": {
          "_0": "uint256 Amount of Want token obtained"
        }
      },
      "exchangeWantTokenForUSD(uint256,uint256)": {
        "params": {
          "_amount": "The Want token quantity to exchange (must be deposited beforehand)",
          "_maxMarketMovementAllowed": "The max slippage allowed for swaps. 1000 = 0 %, 995 = 0.5%, etc."
        },
        "returns": {
          "_0": "uint256 Amount of USDC token obtained"
        }
      },
      "inCaseTokensGetStuck(address,uint256,address)": {
        "params": {
          "_amount": "The amount of the tokens to transfer",
          "_to": "The address to transfer tokens to",
          "_token": "Address of the ERC20 token to transfer"
        }
      },
      "initialize(address,(uint256,bool,(address,address,address,address,address,address,address,address,address,address,address,address,address,address,address),address[],address[],address[],address[],address[],address[],address[],address[],(uint256,uint256,uint256,uint256,uint256),(address,address,address,address,address)))": {
        "params": {
          "_initValue": "A VaultAcryptosSingleInit struct containing all init values",
          "_timelockOwner": "The designated timelock controller address to act as owner"
        }
      },
      "owner()": {
        "details": "Returns the address of the current owner."
      },
      "paused()": {
        "details": "Returns true if the contract is paused, and false otherwise."
      },
      "renounceOwnership()": {
        "details": "Leaves the contract without owner. It will not be possible to call `onlyOwner` functions anymore. Can only be called by the current owner. NOTE: Renouncing ownership will leave the contract without an owner, thereby removing any functionality that is only available to the owner."
      },
      "setFeeSettings(uint256,uint256,uint256,uint256,uint256)": {
        "params": {
          "_buyBackRate": "Buy back rate fee numerator",
          "_controllerFee": "Controller fee numerator",
          "_entranceFeeFactor": "Entrance fee numerator (higher means smaller percentage)",
          "_revShareRate": "Rev share rate fee numerator",
          "_withdrawFeeFactor": "Withdrawal fee numerator (higher means smaller percentage)"
        }
      },
      "setGov(address)": {
        "params": {
          "_govAddress": "The new gov address"
        }
      },
      "setOnlyGov(bool)": {
        "params": {
          "_onlyGov": "whether onlyGov should be enforced"
        }
      },
      "transferOwnership(address)": {
        "details": "Transfers ownership of the contract to a new account (`newOwner`). Can only be called by the current owner."
      },
      "withdrawWantToken(address,uint256)": {
        "params": {
          "_account": "The address of the owner of vault investment",
          "_wantAmt": "The amount of Want token to withdraw"
        },
        "returns": {
          "sharesRemoved": "The number of shares removed"
        }
      }
    },
    "version": 1
  },
  "userdoc": {
    "kind": "user",
    "methods": {
      "depositWantToken(address,uint256)": {
        "notice": "Receives new deposits from user"
      },
      "earn(uint256)": {
        "notice": "The main compounding (earn) function. Reinvests profits since the last earn event."
      },
      "exchangeUSDForWantToken(uint256,uint256)": {
        "notice": "Performs necessary operations to convert USDC into Want token"
      },
      "exchangeWantTokenForUSD(uint256,uint256)": {
        "notice": "Converts Want token back into USD to be ready for withdrawal and transfers to sender"
      },
      "farm()": {
        "notice": "Public function for farming Want token."
      },
      "inCaseTokensGetStuck(address,uint256,address)": {
        "notice": "Safely transfer ERC20 tokens stuck in this contract to a specified address"
      },
      "initialize(address,(uint256,bool,(address,address,address,address,address,address,address,address,address,address,address,address,address,address,address),address[],address[],address[],address[],address[],address[],address[],address[],(uint256,uint256,uint256,uint256,uint256),(address,address,address,address,address)))": {
        "notice": "Upgradeable constructor"
      },
      "pause()": {
        "notice": "Pause contract"
      },
      "setFeeSettings(uint256,uint256,uint256,uint256,uint256)": {
        "notice": "Configure key fee parameters"
      },
      "setGov(address)": {
        "notice": "Set governor address"
      },
      "setOnlyGov(bool)": {
        "notice": "Set onlyGov property"
      },
      "unpause()": {
        "notice": "Unpause contract"
      },
      "withdrawWantToken(address,uint256)": {
        "notice": "Fully withdraw Want tokens from the Farm contract (100% withdrawals only)"
      }
    },
    "version": 1
  }
}