{
  "contractName": "MockZorroControllerXChain",
  "abi": [
    {
      "anonymous": false,
      "inputs": [
        {
          "indexed": true,
          "internalType": "address",
          "name": "previousOwner",
          "type": "address"
        },
        {
          "indexed": true,
          "internalType": "address",
          "name": "newOwner",
          "type": "address"
        }
      ],
      "name": "OwnershipTransferred",
      "type": "event"
    },
    {
      "anonymous": false,
      "inputs": [
        {
          "indexed": true,
          "internalType": "uint256",
          "name": "_pid",
          "type": "uint256"
        },
        {
          "indexed": true,
          "internalType": "uint256",
          "name": "_valueUSD",
          "type": "uint256"
        },
        {
          "indexed": true,
          "internalType": "address",
          "name": "_destAccount",
          "type": "address"
        }
      ],
      "name": "ReceiveXChainDepositReq",
      "type": "event"
    },
    {
      "anonymous": false,
      "inputs": [
        {
          "indexed": true,
          "internalType": "uint256",
          "name": "_amountUSDBuyback",
          "type": "uint256"
        },
        {
          "indexed": true,
          "internalType": "uint256",
          "name": "_amountUSDRevShare",
          "type": "uint256"
        },
        {
          "indexed": true,
          "internalType": "uint256",
          "name": "_accSlashedRewards",
          "type": "uint256"
        }
      ],
      "name": "ReceiveXChainDistributionReq",
      "type": "event"
    },
    {
      "anonymous": false,
      "inputs": [
        {
          "indexed": true,
          "internalType": "uint256",
          "name": "_originChainId",
          "type": "uint256"
        },
        {
          "indexed": true,
          "internalType": "uint256",
          "name": "_rewardsDue",
          "type": "uint256"
        }
      ],
      "name": "ReceiveXChainRepatriationReq",
      "type": "event"
    },
    {
      "anonymous": false,
      "inputs": [
        {
          "indexed": true,
          "internalType": "uint256",
          "name": "_originChainId",
          "type": "uint256"
        },
        {
          "indexed": true,
          "internalType": "uint256",
          "name": "_pid",
          "type": "uint256"
        },
        {
          "indexed": true,
          "internalType": "uint256",
          "name": "_trancheId",
          "type": "uint256"
        }
      ],
      "name": "ReceiveXChainWithdrawalReq",
      "type": "event"
    },
    {
      "anonymous": false,
      "inputs": [
        {
          "indexed": true,
          "internalType": "uint256",
          "name": "_amountZOR",
          "type": "uint256"
        }
      ],
      "name": "RemovedSlashedRewards",
      "type": "event"
    },
    {
      "anonymous": false,
      "inputs": [
        {
          "indexed": true,
          "internalType": "uint256",
          "name": "_remoteChainId",
          "type": "uint256"
        },
        {
          "indexed": true,
          "internalType": "uint256",
          "name": "_buybackAmountUSD",
          "type": "uint256"
        },
        {
          "indexed": true,
          "internalType": "uint256",
          "name": "_revShareAmountUSD",
          "type": "uint256"
        }
      ],
      "name": "XChainDistributeEarnings",
      "type": "event"
    },
    {
      "anonymous": false,
      "inputs": [
        {
          "indexed": true,
          "internalType": "uint256",
          "name": "_pid",
          "type": "uint256"
        },
        {
          "indexed": true,
          "internalType": "address",
          "name": "_originRecipient",
          "type": "address"
        },
        {
          "indexed": false,
          "internalType": "uint256",
          "name": "_trancheId",
          "type": "uint256"
        },
        {
          "indexed": false,
          "internalType": "uint256",
          "name": "_originChainId",
          "type": "uint256"
        }
      ],
      "name": "XChainRepatriation",
      "type": "event"
    },
    {
      "inputs": [
        {
          "internalType": "uint16",
          "name": "",
          "type": "uint16"
        }
      ],
      "name": "LZChainToZorroMap",
      "outputs": [
        {
          "internalType": "uint256",
          "name": "",
          "type": "uint256"
        }
      ],
      "stateMutability": "view",
      "type": "function"
    },
    {
      "inputs": [],
      "name": "ZORRO",
      "outputs": [
        {
          "internalType": "address",
          "name": "",
          "type": "address"
        }
      ],
      "stateMutability": "view",
      "type": "function"
    },
    {
      "inputs": [
        {
          "internalType": "uint256",
          "name": "",
          "type": "uint256"
        }
      ],
      "name": "ZorroChainToLZMap",
      "outputs": [
        {
          "internalType": "uint16",
          "name": "",
          "type": "uint16"
        }
      ],
      "stateMutability": "view",
      "type": "function"
    },
    {
      "inputs": [],
      "name": "accumulatedSlashedRewards",
      "outputs": [
        {
          "internalType": "uint256",
          "name": "",
          "type": "uint256"
        }
      ],
      "stateMutability": "view",
      "type": "function"
    },
    {
      "inputs": [],
      "name": "burnAddress",
      "outputs": [
        {
          "internalType": "address",
          "name": "",
          "type": "address"
        }
      ],
      "stateMutability": "view",
      "type": "function"
    },
    {
      "inputs": [],
      "name": "chainId",
      "outputs": [
        {
          "internalType": "uint256",
          "name": "",
          "type": "uint256"
        }
      ],
      "stateMutability": "view",
      "type": "function"
    },
    {
      "inputs": [
        {
          "internalType": "uint256",
          "name": "",
          "type": "uint256"
        }
      ],
      "name": "chainTypes",
      "outputs": [
        {
          "internalType": "uint256",
          "name": "",
          "type": "uint256"
        }
      ],
      "stateMutability": "view",
      "type": "function"
    },
    {
      "inputs": [
        {
          "internalType": "uint256",
          "name": "_chainId",
          "type": "uint256"
        },
        {
          "internalType": "bytes",
          "name": "_dstContract",
          "type": "bytes"
        },
        {
          "internalType": "uint256",
          "name": "_pid",
          "type": "uint256"
        },
        {
          "internalType": "uint256",
          "name": "_valueUSD",
          "type": "uint256"
        },
        {
          "internalType": "uint256",
          "name": "_weeksCommitted",
          "type": "uint256"
        },
        {
          "internalType": "uint256",
          "name": "_maxMarketMovement",
          "type": "uint256"
        },
        {
          "internalType": "bytes",
          "name": "_destWallet",
          "type": "bytes"
        }
      ],
      "name": "checkXChainDepositFee",
      "outputs": [
        {
          "internalType": "uint256",
          "name": "",
          "type": "uint256"
        }
      ],
      "stateMutability": "view",
      "type": "function"
    },
    {
      "inputs": [
        {
          "internalType": "uint256",
          "name": "_amountUSDBuyback",
          "type": "uint256"
        },
        {
          "internalType": "uint256",
          "name": "_amountUSDRevShare",
          "type": "uint256"
        },
        {
          "internalType": "uint256",
          "name": "_accSlashedRewards",
          "type": "uint256"
        },
        {
          "internalType": "uint256",
          "name": "_maxMarketMovement",
          "type": "uint256"
        }
      ],
      "name": "checkXChainDistributeEarningsFee",
      "outputs": [
        {
          "internalType": "uint256",
          "name": "",
          "type": "uint256"
        }
      ],
      "stateMutability": "view",
      "type": "function"
    },
    {
      "inputs": [
        {
          "internalType": "uint256",
          "name": "_originChainId",
          "type": "uint256"
        },
        {
          "internalType": "uint256",
          "name": "_pid",
          "type": "uint256"
        },
        {
          "internalType": "uint256",
          "name": "_trancheId",
          "type": "uint256"
        },
        {
          "internalType": "bytes",
          "name": "_originRecipient",
          "type": "bytes"
        },
        {
          "internalType": "uint256",
          "name": "_rewardsDue",
          "type": "uint256"
        }
      ],
      "name": "checkXChainRepatriationFee",
      "outputs": [
        {
          "internalType": "uint256",
          "name": "",
          "type": "uint256"
        }
      ],
      "stateMutability": "view",
      "type": "function"
    },
    {
      "inputs": [
        {
          "internalType": "uint256",
          "name": "_zorroChainId",
          "type": "uint256"
        },
        {
          "internalType": "uint256",
          "name": "_pid",
          "type": "uint256"
        },
        {
          "internalType": "uint256",
          "name": "_trancheId",
          "type": "uint256"
        },
        {
          "internalType": "uint256",
          "name": "_maxMarketMovement",
          "type": "uint256"
        },
        {
          "internalType": "uint256",
          "name": "_gasForDestinationLZReceive",
          "type": "uint256"
        }
      ],
      "name": "checkXChainWithdrawalFee",
      "outputs": [
        {
          "internalType": "uint256",
          "name": "",
          "type": "uint256"
        }
      ],
      "stateMutability": "view",
      "type": "function"
    },
    {
      "inputs": [
        {
          "internalType": "uint256",
          "name": "",
          "type": "uint256"
        }
      ],
      "name": "controllerContractsMap",
      "outputs": [
        {
          "internalType": "bytes",
          "name": "",
          "type": "bytes"
        }
      ],
      "stateMutability": "view",
      "type": "function"
    },
    {
      "inputs": [],
      "name": "currentChainController",
      "outputs": [
        {
          "internalType": "address",
          "name": "",
          "type": "address"
        }
      ],
      "stateMutability": "view",
      "type": "function"
    },
    {
      "inputs": [],
      "name": "defaultStablecoin",
      "outputs": [
        {
          "internalType": "address",
          "name": "",
          "type": "address"
        }
      ],
      "stateMutability": "view",
      "type": "function"
    },
    {
      "inputs": [
        {
          "internalType": "bytes",
          "name": "_payloadWithSig",
          "type": "bytes"
        }
      ],
      "name": "extractParamsPayload",
      "outputs": [
        {
          "internalType": "bytes",
          "name": "paramsPayload",
          "type": "bytes"
        }
      ],
      "stateMutability": "pure",
      "type": "function"
    },
    {
      "inputs": [],
      "name": "homeChainId",
      "outputs": [
        {
          "internalType": "uint256",
          "name": "",
          "type": "uint256"
        }
      ],
      "stateMutability": "view",
      "type": "function"
    },
    {
      "inputs": [],
      "name": "homeChainZorroController",
      "outputs": [
        {
          "internalType": "address",
          "name": "",
          "type": "address"
        }
      ],
      "stateMutability": "view",
      "type": "function"
    },
    {
      "inputs": [
        {
          "components": [
            {
              "internalType": "address",
              "name": "defaultStablecoin",
              "type": "address"
            },
            {
              "internalType": "address",
              "name": "ZORRO",
              "type": "address"
            },
            {
              "internalType": "address",
              "name": "zorroLPPoolOtherToken",
              "type": "address"
            },
            {
              "internalType": "address",
              "name": "zorroStakingVault",
              "type": "address"
            },
            {
              "internalType": "address",
              "name": "uniRouterAddress",
              "type": "address"
            },
            {
              "internalType": "address",
              "name": "homeChainZorroController",
              "type": "address"
            },
            {
              "internalType": "address",
              "name": "currentChainController",
              "type": "address"
            },
            {
              "internalType": "address",
              "name": "publicPool",
              "type": "address"
            },
            {
              "components": [
                {
                  "internalType": "uint256",
                  "name": "chainId",
                  "type": "uint256"
                },
                {
                  "internalType": "uint256",
                  "name": "homeChainId",
                  "type": "uint256"
                },
                {
                  "internalType": "uint256[]",
                  "name": "ZorroChainIDs",
                  "type": "uint256[]"
                },
                {
                  "internalType": "bytes[]",
                  "name": "controllerContracts",
                  "type": "bytes[]"
                },
                {
                  "internalType": "uint16[]",
                  "name": "LZChainIDs",
                  "type": "uint16[]"
                },
                {
                  "internalType": "uint256[]",
                  "name": "stargateDestPoolIds",
                  "type": "uint256[]"
                },
                {
                  "internalType": "address",
                  "name": "stargateRouter",
                  "type": "address"
                },
                {
                  "internalType": "address",
                  "name": "layerZeroEndpoint",
                  "type": "address"
                },
                {
                  "internalType": "uint256",
                  "name": "stargateSwapPoolId",
                  "type": "uint256"
                }
              ],
              "internalType": "struct ZorroControllerXChain.ZorroControllerXChainBridgeParams",
              "name": "bridge",
              "type": "tuple"
            },
            {
              "components": [
                {
                  "internalType": "address[]",
                  "name": "stablecoinToZorroPath",
                  "type": "address[]"
                },
                {
                  "internalType": "address[]",
                  "name": "stablecoinToZorroLPPoolOtherTokenPath",
                  "type": "address[]"
                }
              ],
              "internalType": "struct ZorroControllerXChain.ZorroControllerXChainSwapParams",
              "name": "swaps",
              "type": "tuple"
            },
            {
              "components": [
                {
                  "internalType": "address",
                  "name": "priceFeedZOR",
                  "type": "address"
                },
                {
                  "internalType": "address",
                  "name": "priceFeedLPPoolOtherToken",
                  "type": "address"
                },
                {
                  "internalType": "address",
                  "name": "priceFeedStablecoin",
                  "type": "address"
                }
              ],
              "internalType": "struct ZorroControllerXChain.ZorroControllerXChainPriceFeedParams",
              "name": "priceFeeds",
              "type": "tuple"
            }
          ],
          "internalType": "struct ZorroControllerXChain.ZorroControllerXChainInit",
          "name": "_initValue",
          "type": "tuple"
        }
      ],
      "name": "initialize",
      "outputs": [],
      "stateMutability": "nonpayable",
      "type": "function"
    },
    {
      "inputs": [],
      "name": "layerZeroEndpoint",
      "outputs": [
        {
          "internalType": "address",
          "name": "",
          "type": "address"
        }
      ],
      "stateMutability": "view",
      "type": "function"
    },
    {
      "inputs": [
        {
          "internalType": "uint16",
          "name": "_srcChainId",
          "type": "uint16"
        },
        {
          "internalType": "bytes",
          "name": "_srcAddress",
          "type": "bytes"
        },
        {
          "internalType": "uint64",
          "name": "_nonce",
          "type": "uint64"
        },
        {
          "internalType": "bytes",
          "name": "_payload",
          "type": "bytes"
        }
      ],
      "name": "lzReceive",
      "outputs": [],
      "stateMutability": "nonpayable",
      "type": "function"
    },
    {
      "inputs": [],
      "name": "owner",
      "outputs": [
        {
          "internalType": "address",
          "name": "",
          "type": "address"
        }
      ],
      "stateMutability": "view",
      "type": "function"
    },
    {
      "inputs": [],
      "name": "priceFeedLPPoolOtherToken",
      "outputs": [
        {
          "internalType": "contract AggregatorV3Interface",
          "name": "",
          "type": "address"
        }
      ],
      "stateMutability": "view",
      "type": "function"
    },
    {
      "inputs": [],
      "name": "priceFeedStablecoin",
      "outputs": [
        {
          "internalType": "contract AggregatorV3Interface",
          "name": "",
          "type": "address"
        }
      ],
      "stateMutability": "view",
      "type": "function"
    },
    {
      "inputs": [],
      "name": "priceFeedZOR",
      "outputs": [
        {
          "internalType": "contract AggregatorV3Interface",
          "name": "",
          "type": "address"
        }
      ],
      "stateMutability": "view",
      "type": "function"
    },
    {
      "inputs": [],
      "name": "publicPool",
      "outputs": [
        {
          "internalType": "address",
          "name": "",
          "type": "address"
        }
      ],
      "stateMutability": "view",
      "type": "function"
    },
    {
      "inputs": [
        {
          "internalType": "uint256",
          "name": "_pid",
          "type": "uint256"
        },
        {
          "internalType": "uint256",
          "name": "_valueUSD",
          "type": "uint256"
        },
        {
          "internalType": "uint256",
          "name": "_weeksCommitted",
          "type": "uint256"
        },
        {
          "internalType": "uint256",
          "name": "_maxMarketMovement",
          "type": "uint256"
        },
        {
          "internalType": "bytes",
          "name": "_originAccount",
          "type": "bytes"
        },
        {
          "internalType": "address",
          "name": "_destAccount",
          "type": "address"
        }
      ],
      "name": "receiveXChainDepositRequest",
      "outputs": [],
      "stateMutability": "nonpayable",
      "type": "function"
    },
    {
      "inputs": [
        {
          "internalType": "uint256",
          "name": "_remoteChainId",
          "type": "uint256"
        },
        {
          "internalType": "uint256",
          "name": "_amountUSDBuyback",
          "type": "uint256"
        },
        {
          "internalType": "uint256",
          "name": "_amountUSDRevShare",
          "type": "uint256"
        },
        {
          "internalType": "uint256",
          "name": "_accSlashedRewards",
          "type": "uint256"
        },
        {
          "internalType": "uint256",
          "name": "_maxMarketMovement",
          "type": "uint256"
        }
      ],
      "name": "receiveXChainDistributionRequest",
      "outputs": [],
      "stateMutability": "nonpayable",
      "type": "function"
    },
    {
      "inputs": [
        {
          "internalType": "uint256",
          "name": "_originChainId",
          "type": "uint256"
        },
        {
          "internalType": "uint256",
          "name": "_pid",
          "type": "uint256"
        },
        {
          "internalType": "uint256",
          "name": "_trancheId",
          "type": "uint256"
        },
        {
          "internalType": "bytes",
          "name": "_originRecipient",
          "type": "bytes"
        },
        {
          "internalType": "uint256",
          "name": "_rewardsDue",
          "type": "uint256"
        }
      ],
      "name": "receiveXChainRepatriationRequest",
      "outputs": [],
      "stateMutability": "nonpayable",
      "type": "function"
    },
    {
      "inputs": [
        {
          "internalType": "uint256",
          "name": "_originChainId",
          "type": "uint256"
        },
        {
          "internalType": "bytes",
          "name": "_originAccount",
          "type": "bytes"
        },
        {
          "internalType": "uint256",
          "name": "_pid",
          "type": "uint256"
        },
        {
          "internalType": "uint256",
          "name": "_trancheId",
          "type": "uint256"
        },
        {
          "internalType": "uint256",
          "name": "_maxMarketMovement",
          "type": "uint256"
        }
      ],
      "name": "receiveXChainWithdrawalRequest",
      "outputs": [],
      "stateMutability": "nonpayable",
      "type": "function"
    },
    {
      "inputs": [],
      "name": "renounceOwnership",
      "outputs": [],
      "stateMutability": "nonpayable",
      "type": "function"
    },
    {
      "inputs": [
        {
          "internalType": "uint256",
          "name": "_zorroChainId",
          "type": "uint256"
        },
        {
          "internalType": "uint256",
          "name": "_pid",
          "type": "uint256"
        },
        {
          "internalType": "uint256",
          "name": "_valueUSD",
          "type": "uint256"
        },
        {
          "internalType": "uint256",
          "name": "_weeksCommitted",
          "type": "uint256"
        },
        {
          "internalType": "uint256",
          "name": "_maxMarketMovement",
          "type": "uint256"
        },
        {
          "internalType": "bytes",
          "name": "_destWallet",
          "type": "bytes"
        }
      ],
      "name": "sendXChainDepositRequest",
      "outputs": [],
      "stateMutability": "payable",
      "type": "function"
    },
    {
      "inputs": [
        {
          "internalType": "uint256",
          "name": "_pid",
          "type": "uint256"
        },
        {
          "internalType": "uint256",
          "name": "_buybackAmountUSD",
          "type": "uint256"
        },
        {
          "internalType": "uint256",
          "name": "_revShareAmountUSD",
          "type": "uint256"
        },
        {
          "internalType": "uint256",
          "name": "_maxMarketMovement",
          "type": "uint256"
        }
      ],
      "name": "sendXChainDistributeEarningsRequest",
      "outputs": [],
      "stateMutability": "payable",
      "type": "function"
    },
    {
      "inputs": [
        {
          "internalType": "uint256",
          "name": "_destZorroChainId",
          "type": "uint256"
        },
        {
          "internalType": "uint256",
          "name": "_pid",
          "type": "uint256"
        },
        {
          "internalType": "uint256",
          "name": "_trancheId",
          "type": "uint256"
        },
        {
          "internalType": "uint256",
          "name": "_maxMarketMovement",
          "type": "uint256"
        },
        {
          "internalType": "uint256",
          "name": "_gasForDestinationLZReceive",
          "type": "uint256"
        }
      ],
      "name": "sendXChainWithdrawalRequest",
      "outputs": [],
      "stateMutability": "payable",
      "type": "function"
    },
    {
      "inputs": [
        {
          "internalType": "address",
          "name": "_burn",
          "type": "address"
        }
      ],
      "name": "setBurnAddress",
      "outputs": [],
      "stateMutability": "nonpayable",
      "type": "function"
    },
    {
      "inputs": [
        {
          "internalType": "uint256",
          "name": "_zorroChainId",
          "type": "uint256"
        },
        {
          "internalType": "uint256",
          "name": "_chainType",
          "type": "uint256"
        }
      ],
      "name": "setChainType",
      "outputs": [],
      "stateMutability": "nonpayable",
      "type": "function"
    },
    {
      "inputs": [
        {
          "internalType": "uint256[]",
          "name": "_chainIds",
          "type": "uint256[]"
        }
      ],
      "name": "setChains",
      "outputs": [],
      "stateMutability": "nonpayable",
      "type": "function"
    },
    {
      "inputs": [
        {
          "internalType": "uint256",
          "name": "_zorroChainId",
          "type": "uint256"
        },
        {
          "internalType": "bytes",
          "name": "_controller",
          "type": "bytes"
        }
      ],
      "name": "setControllerContract",
      "outputs": [],
      "stateMutability": "nonpayable",
      "type": "function"
    },
    {
      "inputs": [
        {
          "internalType": "address[]",
          "name": "_contracts",
          "type": "address[]"
        }
      ],
      "name": "setKeyContracts",
      "outputs": [],
      "stateMutability": "nonpayable",
      "type": "function"
    },
    {
      "inputs": [
        {
          "internalType": "address",
          "name": "_stargateRouter",
          "type": "address"
        },
        {
          "internalType": "uint256",
          "name": "_stargateSwapPoolId",
          "type": "uint256"
        },
        {
          "internalType": "address",
          "name": "_layerZeroEndpoint",
          "type": "address"
        }
      ],
      "name": "setLayerZeroParams",
      "outputs": [],
      "stateMutability": "nonpayable",
      "type": "function"
    },
    {
      "inputs": [
        {
          "internalType": "address[]",
          "name": "_priceFeeds",
          "type": "address[]"
        }
      ],
      "name": "setPriceFeeds",
      "outputs": [],
      "stateMutability": "nonpayable",
      "type": "function"
    },
    {
      "inputs": [
        {
          "internalType": "uint256",
          "name": "_zorroChainId",
          "type": "uint256"
        },
        {
          "internalType": "uint16",
          "name": "_stargatePoolId",
          "type": "uint16"
        }
      ],
      "name": "setStargateDestPoolIds",
      "outputs": [],
      "stateMutability": "nonpayable",
      "type": "function"
    },
    {
      "inputs": [
        {
          "internalType": "address[]",
          "name": "_stablecoinToZorroPath",
          "type": "address[]"
        },
        {
          "internalType": "address[]",
          "name": "_stablecoinToZorroLPPoolOtherTokenPath",
          "type": "address[]"
        }
      ],
      "name": "setSwapPaths",
      "outputs": [],
      "stateMutability": "nonpayable",
      "type": "function"
    },
    {
      "inputs": [
        {
          "internalType": "address[]",
          "name": "_tokens",
          "type": "address[]"
        }
      ],
      "name": "setTokens",
      "outputs": [],
      "stateMutability": "nonpayable",
      "type": "function"
    },
    {
      "inputs": [
        {
          "internalType": "address",
          "name": "_contract",
          "type": "address"
        }
      ],
      "name": "setUniRouterAddress",
      "outputs": [],
      "stateMutability": "nonpayable",
      "type": "function"
    },
    {
      "inputs": [
        {
          "internalType": "uint256",
          "name": "_zorroChainId",
          "type": "uint256"
        },
        {
          "internalType": "uint16",
          "name": "_lzChainId",
          "type": "uint16"
        }
      ],
      "name": "setZorroChainToLZMap",
      "outputs": [],
      "stateMutability": "nonpayable",
      "type": "function"
    },
    {
      "inputs": [
        {
          "internalType": "address",
          "name": "_token",
          "type": "address"
        }
      ],
      "name": "setZorroLPPoolOtherToken",
      "outputs": [],
      "stateMutability": "nonpayable",
      "type": "function"
    },
    {
      "inputs": [
        {
          "internalType": "address",
          "name": "_contract",
          "type": "address"
        }
      ],
      "name": "setZorroStakingVault",
      "outputs": [],
      "stateMutability": "nonpayable",
      "type": "function"
    },
    {
      "inputs": [
        {
          "internalType": "uint16",
          "name": "_chainId",
          "type": "uint16"
        },
        {
          "internalType": "bytes",
          "name": "_srcAddress",
          "type": "bytes"
        },
        {
          "internalType": "uint256",
          "name": "_nonce",
          "type": "uint256"
        },
        {
          "internalType": "address",
          "name": "_token",
          "type": "address"
        },
        {
          "internalType": "uint256",
          "name": "amountLD",
          "type": "uint256"
        },
        {
          "internalType": "bytes",
          "name": "payload",
          "type": "bytes"
        }
      ],
      "name": "sgReceive",
      "outputs": [],
      "stateMutability": "nonpayable",
      "type": "function"
    },
    {
      "inputs": [
        {
          "internalType": "uint256",
          "name": "",
          "type": "uint256"
        }
      ],
      "name": "stablecoinToZorroLPPoolOtherTokenPath",
      "outputs": [
        {
          "internalType": "address",
          "name": "",
          "type": "address"
        }
      ],
      "stateMutability": "view",
      "type": "function"
    },
    {
      "inputs": [
        {
          "internalType": "uint256",
          "name": "",
          "type": "uint256"
        }
      ],
      "name": "stablecoinToZorroPath",
      "outputs": [
        {
          "internalType": "address",
          "name": "",
          "type": "address"
        }
      ],
      "stateMutability": "view",
      "type": "function"
    },
    {
      "inputs": [
        {
          "internalType": "uint256",
          "name": "",
          "type": "uint256"
        }
      ],
      "name": "stargateDestPoolIds",
      "outputs": [
        {
          "internalType": "uint256",
          "name": "",
          "type": "uint256"
        }
      ],
      "stateMutability": "view",
      "type": "function"
    },
    {
      "inputs": [],
      "name": "stargateRouter",
      "outputs": [
        {
          "internalType": "address",
          "name": "",
          "type": "address"
        }
      ],
      "stateMutability": "view",
      "type": "function"
    },
    {
      "inputs": [],
      "name": "stargateSwapPoolId",
      "outputs": [
        {
          "internalType": "uint256",
          "name": "",
          "type": "uint256"
        }
      ],
      "stateMutability": "view",
      "type": "function"
    },
    {
      "inputs": [
        {
          "internalType": "address",
          "name": "newOwner",
          "type": "address"
        }
      ],
      "name": "transferOwnership",
      "outputs": [],
      "stateMutability": "nonpayable",
      "type": "function"
    },
    {
      "inputs": [],
      "name": "uniRouterAddress",
      "outputs": [
        {
          "internalType": "address",
          "name": "",
          "type": "address"
        }
      ],
      "stateMutability": "view",
      "type": "function"
    },
    {
      "inputs": [],
      "name": "zorroLPPoolOtherToken",
      "outputs": [
        {
          "internalType": "address",
          "name": "",
          "type": "address"
        }
      ],
      "stateMutability": "view",
      "type": "function"
    },
    {
      "inputs": [],
      "name": "zorroStakingVault",
      "outputs": [
        {
          "internalType": "address",
          "name": "",
          "type": "address"
        }
      ],
      "stateMutability": "view",
      "type": "function"
    },
    {
      "inputs": [
        {
          "internalType": "uint256",
          "name": "_chainId",
          "type": "uint256"
        },
        {
          "internalType": "uint256",
          "name": "_pid",
          "type": "uint256"
        },
        {
          "internalType": "uint256",
          "name": "_valueUSD",
          "type": "uint256"
        },
        {
          "internalType": "uint256",
          "name": "_weeksCommitted",
          "type": "uint256"
        },
        {
          "internalType": "uint256",
          "name": "_maxMarketMovement",
          "type": "uint256"
        },
        {
          "internalType": "address",
          "name": "_originWallet",
          "type": "address"
        },
        {
          "internalType": "bytes",
          "name": "_destWallet",
          "type": "bytes"
        }
      ],
      "name": "encodeXChainDepositPayload",
      "outputs": [
        {
          "internalType": "bytes",
          "name": "",
          "type": "bytes"
        }
      ],
      "stateMutability": "view",
      "type": "function"
    },
    {
      "inputs": [
        {
          "internalType": "uint256",
          "name": "_pid",
          "type": "uint256"
        },
        {
          "internalType": "uint256",
          "name": "_valueUSD",
          "type": "uint256"
        },
        {
          "internalType": "uint256",
          "name": "_weeksCommitted",
          "type": "uint256"
        },
        {
          "internalType": "uint256",
          "name": "_maxMarketMovement",
          "type": "uint256"
        },
        {
          "internalType": "bytes",
          "name": "_originAccount",
          "type": "bytes"
        },
        {
          "internalType": "address",
          "name": "_destAccount",
          "type": "address"
        }
      ],
      "name": "mockReceiveXChainDepositRequest",
      "outputs": [],
      "stateMutability": "nonpayable",
      "type": "function"
    },
    {
      "inputs": [
        {
          "internalType": "uint256",
          "name": "_originChainId",
          "type": "uint256"
        },
        {
          "internalType": "uint256",
          "name": "_pid",
          "type": "uint256"
        },
        {
          "internalType": "uint256",
          "name": "_trancheId",
          "type": "uint256"
        },
        {
          "internalType": "bytes",
          "name": "_originRecipient",
          "type": "bytes"
        },
        {
          "internalType": "uint256",
          "name": "_rewardsDue",
          "type": "uint256"
        }
      ],
      "name": "mockReceiveXChainRepatriationRequest",
      "outputs": [],
      "stateMutability": "nonpayable",
      "type": "function"
    },
    {
      "inputs": [
        {
          "internalType": "uint256",
          "name": "_remoteChainId",
          "type": "uint256"
        },
        {
          "internalType": "uint256",
          "name": "_amountUSDBuyback",
          "type": "uint256"
        },
        {
          "internalType": "uint256",
          "name": "_amountUSDRevShare",
          "type": "uint256"
        },
        {
          "internalType": "uint256",
          "name": "_accSlashedRewards",
          "type": "uint256"
        },
        {
          "internalType": "uint256",
          "name": "_maxMarketMovement",
          "type": "uint256"
        }
      ],
      "name": "mockReceiveXChainDistributionRequest",
      "outputs": [],
      "stateMutability": "nonpayable",
      "type": "function"
    },
    {
      "inputs": [
        {
          "internalType": "uint256",
          "name": "_originChainId",
          "type": "uint256"
        },
        {
          "internalType": "bytes",
          "name": "_originAccount",
          "type": "bytes"
        },
        {
          "internalType": "uint256",
          "name": "_pid",
          "type": "uint256"
        },
        {
          "internalType": "uint256",
          "name": "_trancheId",
          "type": "uint256"
        },
        {
          "internalType": "uint256",
          "name": "_maxMarketMovement",
          "type": "uint256"
        }
      ],
      "name": "mockReceiveXChainWithdrawalRequest",
      "outputs": [],
      "stateMutability": "nonpayable",
      "type": "function"
    },
    {
      "inputs": [
        {
          "internalType": "uint256",
          "name": "_gasForDestinationLZReceive",
          "type": "uint256"
        }
      ],
      "name": "getLZAdapterParamsForWithdraw",
      "outputs": [
        {
          "internalType": "bytes",
          "name": "",
          "type": "bytes"
        }
      ],
      "stateMutability": "pure",
      "type": "function"
    },
    {
      "inputs": [
        {
          "internalType": "uint256",
          "name": "_originChainId",
          "type": "uint256"
        },
        {
          "internalType": "bytes",
          "name": "_originAccount",
          "type": "bytes"
        },
        {
          "internalType": "uint256",
          "name": "_pid",
          "type": "uint256"
        },
        {
          "internalType": "uint256",
          "name": "_trancheId",
          "type": "uint256"
        },
        {
          "internalType": "uint256",
          "name": "_maxMarketMovement",
          "type": "uint256"
        }
      ],
      "name": "encodeXChainWithdrawalPayload",
      "outputs": [
        {
          "internalType": "bytes",
          "name": "",
          "type": "bytes"
        }
      ],
      "stateMutability": "pure",
      "type": "function"
    },
    {
      "inputs": [
        {
          "internalType": "uint256",
          "name": "_originChainId",
          "type": "uint256"
        },
        {
          "internalType": "uint256",
          "name": "_pid",
          "type": "uint256"
        },
        {
          "internalType": "uint256",
          "name": "_trancheId",
          "type": "uint256"
        },
        {
          "internalType": "bytes",
          "name": "_originRecipient",
          "type": "bytes"
        },
        {
          "internalType": "uint256",
          "name": "_rewardsDue",
          "type": "uint256"
        }
      ],
      "name": "encodeXChainRepatriationPayload",
      "outputs": [
        {
          "internalType": "bytes",
          "name": "",
          "type": "bytes"
        }
      ],
      "stateMutability": "pure",
      "type": "function"
    },
    {
      "inputs": [
        {
          "internalType": "uint256",
          "name": "_originChainId",
          "type": "uint256"
        },
        {
          "internalType": "uint256",
          "name": "_pid",
          "type": "uint256"
        },
        {
          "internalType": "uint256",
          "name": "_trancheId",
          "type": "uint256"
        },
        {
          "internalType": "bytes",
          "name": "_originRecipient",
          "type": "bytes"
        },
        {
          "internalType": "uint256",
          "name": "_amountUSD",
          "type": "uint256"
        },
        {
          "internalType": "uint256",
          "name": "_rewardsDue",
          "type": "uint256"
        },
        {
          "internalType": "uint256",
          "name": "_maxMarketMovementAllowed",
          "type": "uint256"
        }
      ],
      "name": "sendXChainRepatriationRequest",
      "outputs": [],
      "stateMutability": "payable",
      "type": "function"
    },
    {
      "inputs": [
        {
          "internalType": "uint256",
          "name": "_remoteChainId",
          "type": "uint256"
        },
        {
          "internalType": "uint256",
          "name": "_amountUSDBuyback",
          "type": "uint256"
        },
        {
          "internalType": "uint256",
          "name": "_amountUSDRevShare",
          "type": "uint256"
        },
        {
          "internalType": "uint256",
          "name": "_accSlashedRewards",
          "type": "uint256"
        },
        {
          "internalType": "uint256",
          "name": "_maxMarketMovement",
          "type": "uint256"
        }
      ],
      "name": "encodeXChainDistributeEarningsPayload",
      "outputs": [
        {
          "internalType": "bytes",
          "name": "",
          "type": "bytes"
        }
      ],
      "stateMutability": "pure",
      "type": "function"
    },
    {
      "inputs": [
        {
          "internalType": "uint256",
          "name": "_amountUSD",
          "type": "uint256"
        },
        {
          "internalType": "uint256",
          "name": "_maxMarketMovement",
          "type": "uint256"
        }
      ],
      "name": "buybackOnChain",
      "outputs": [],
      "stateMutability": "nonpayable",
      "type": "function"
    },
    {
      "inputs": [
        {
          "internalType": "uint256",
          "name": "_amountUSD",
          "type": "uint256"
        },
        {
          "internalType": "uint256",
          "name": "_maxMarketMovement",
          "type": "uint256"
        }
      ],
      "name": "revShareOnChain",
      "outputs": [],
      "stateMutability": "nonpayable",
      "type": "function"
    },
    {
      "inputs": [
        {
          "internalType": "uint256",
          "name": "_slashedZORRewards",
          "type": "uint256"
        }
      ],
      "name": "awardSlashedRewardsToStakers",
      "outputs": [],
      "stateMutability": "nonpayable",
      "type": "function"
    }
  ],
  "bytecode": "0x608060405234801561001057600080fd5b50615e4080620000216000396000f3fe6080604052600436106104085760003560e060020a9004806370d5ae0511610217578063a4d8adf911610127578063cd01af48116100af578063ebfba7c41161007e578063ebfba7c414610c44578063ef12696714610c64578063f2fde38b14610c7a578063fc39a29e14610c9a578063fd0a841d14610cba57600080fd5b8063cd01af4814610bce578063cdabd37114610bee578063d143793a14610c0e578063e940f6e114610c2e57600080fd5b8063b61bb80a116100f6578063b61bb80a14610b3b578063bc8a061014610b5b578063be4882fd14610b7b578063c9522cf114610b8e578063c9f363c414610bae57600080fd5b8063a4d8adf914610abb578063a9e56f3c14610adb578063ab8236f314610afb578063b22f325114610b1b57600080fd5b80638c157db2116101aa57806393c16bcd1161017957806393c16bcd14610a32578063959334f414610a525780639a8a059214610a72578063a2df085c14610a88578063a4d2b08314610a9b57600080fd5b80638c157db2146109a75780638d6ffd6a146109c75780638da5cb5b146109f457806391a0116814610a1257600080fd5b806379777d81116101e657806379777d81146109275780637bd45522146109475780637f633ea8146109675780638b5694d61461098757600080fd5b806370d5ae05146108b2578063715018a6146108d2578063734d231a146108e75780637795fba21461090757600080fd5b8063464e3c8b1161031d5780635da79d63116102a5578063692d8b8b11610274578063692d8b8b14610817578063693a090b146108325780636ca8bd65146108525780636f53e701146108725780637050b5301461089257600080fd5b80635da79d631461079c57806361b729dc146107bc578063625adaf2146107d7578063668ababb146107f757600080fd5b80634bf76174116102ec5780634bf76174146107065780635175ce1b146107265780635790f59914610746578063593af9fe1461075c5780635a956b591461077c57600080fd5b8063464e3c8b14610693578063487c3868146106a65780634947b713146106c65780634b0e7216146106e657600080fd5b8063219b38b8116103a05780632b4fb23e1161036f5780632b4fb23e146105dc5780633a629121146105fc5780633ad5875c1461061c5780634223f99d1461062f578063459f47531461064f57600080fd5b8063219b38b81461052c57806323f657751461056757806325b4383014610594578063293da9d4146105af57600080fd5b80630a34e1a4116103dc5780630a34e1a4146104ac57806313a2e880146104cc57806315230ae6146104ec5780631fae1a201461050c57600080fd5b80621d35671461040d57806303b351f61461042f5780630689acd21461044f57806307968db11461046f575b600080fd5b34801561041957600080fd5b5061042d6104283660046144ff565b610cda565b005b34801561043b57600080fd5b5061042d61044a3660046146af565b610f01565b34801561045b57600080fd5b5061042d61046a366004614711565b610f15565b34801561047b57600080fd5b50609a5461048f90600160a060020a031681565b604051600160a060020a0390911681526020015b60405180910390f35b3480156104b857600080fd5b5061042d6104c7366004614773565b610f6d565b3480156104d857600080fd5b5061042d6104e7366004614795565b610fac565b3480156104f857600080fd5b5060a25461048f90600160a060020a031681565b34801561051857600080fd5b5061048f6105273660046147e1565b610ff8565b34801561053857600080fd5b506105596105473660046147e1565b60996020526000908152604090205481565b6040519081526020016104a3565b34801561057357600080fd5b506105876105823660046146af565b611022565b6040516104a39190614852565b3480156105a057600080fd5b5061042d61046a366004614865565b3480156105bb57600080fd5b506105596105ca3660046148a0565b609d6020526000908152604090205481565b3480156105e857600080fd5b506105596105f7366004614711565b611048565b34801561060857600080fd5b50610559610617366004614865565b6111c6565b61042d61062a366004614865565b611273565b34801561063b57600080fd5b5061058761064a366004614865565b6113cb565b34801561065b57600080fd5b5061068061066a3660046147e1565b609c6020526000908152604090205461ffff1681565b60405161ffff90911681526020016104a3565b61042d6106a13660046148bb565b6113da565b3480156106b257600080fd5b5061042d6106c1366004614931565b6116ee565b3480156106d257600080fd5b506105876106e1366004614711565b6117f7565b3480156106f257600080fd5b5061042d610701366004614993565b611806565b34801561071257600080fd5b5061042d610721366004614931565b611855565b34801561073257600080fd5b5061042d6107413660046149b0565b61195e565b34801561075257600080fd5b5061055960985481565b34801561076857600080fd5b506105876107773660046147e1565b6119a4565b34801561078857600080fd5b5061042d610797366004614711565b610f60565b3480156107a857600080fd5b5061042d6107b7366004614993565b611a3e565b3480156107c857600080fd5b5061042d61046a3660046146af565b3480156107e357600080fd5b5061042d6107f2366004614931565b611a8d565b34801561080357600080fd5b5060a35461048f90600160a060020a031681565b34801561082357600080fd5b5061042d61046a366004614a1c565b34801561083e57600080fd5b5060a95461048f90600160a060020a031681565b34801561085e57600080fd5b5061042d61086d366004614993565b611b65565b34801561087e57600080fd5b5061042d61088d366004614a1c565b611b4e565b34801561089e57600080fd5b5061042d6108ad366004614e53565b611bb4565b3480156108be57600080fd5b5060a65461048f90600160a060020a031681565b3480156108de57600080fd5b5061042d611f24565b3480156108f357600080fd5b506105876109023660046147e1565b611f5d565b34801561091357600080fd5b5060ae5461048f90600160a060020a031681565b34801561093357600080fd5b5060ad5461048f90600160a060020a031681565b34801561095357600080fd5b5061042d610962366004614f88565b611f6e565b34801561097357600080fd5b5061042d610982366004614fca565b611fcf565b34801561099357600080fd5b5061042d6109a2366004614fca565b61202b565b3480156109b357600080fd5b5060a05461048f90600160a060020a031681565b3480156109d357600080fd5b506105596109e23660046147e1565b609e6020526000908152604090205481565b348015610a0057600080fd5b50603354600160a060020a031661048f565b348015610a1e57600080fd5b50610587610a2d366004614ff6565b612071565b348015610a3e57600080fd5b5061042d610a4d366004614773565b612090565b348015610a5e57600080fd5b5061042d610a6d366004614993565b61209a565b348015610a7e57600080fd5b5061055960a45481565b61042d610a96366004615076565b6120e9565b348015610aa757600080fd5b5060a85461048f90600160a060020a031681565b348015610ac757600080fd5b5061048f610ad63660046147e1565b6122dc565b348015610ae757600080fd5b5060975461048f90600160a060020a031681565b348015610b0757600080fd5b5061042d610b163660046150e2565b6122ec565b348015610b2757600080fd5b5060ac5461048f90600160a060020a031681565b348015610b4757600080fd5b50609f5461048f90600160a060020a031681565b348015610b6757600080fd5b5061042d610b76366004614773565b612622565b61042d610b89366004615170565b61262c565b348015610b9a57600080fd5b50610559610ba93660046148bb565b612644565b348015610bba57600080fd5b50610559610bc93660046151e5565b61275a565b348015610bda57600080fd5b5061042d610be9366004614931565b612841565b348015610bfa57600080fd5b50610587610c0936600461526a565b6128b0565b348015610c1a57600080fd5b5061042d610c293660046147e1565b6128fb565b348015610c3a57600080fd5b5061055960af5481565b348015610c5057600080fd5b5060a75461048f90600160a060020a031681565b348015610c7057600080fd5b5061055960a55481565b348015610c8657600080fd5b5061042d610c95366004614993565b612907565b348015610ca657600080fd5b5060a15461048f90600160a060020a031681565b348015610cc657600080fd5b5061042d610cd5366004614865565b61103b565b8585858080601f016020809104026020016040519081016040528093929190818152602001838380828437600092018290525061ffff86168152609d6020908152604080832054875188840120818552609b909352928190209051929550909350610d469250906152de565b604051809103902014610da35760405160e560020a62461bcd02815260206004820152601960248201527f556e7265636f672078636861696e20636f6e74726f6c6c65720000000000000060448201526064015b60405180910390fd5b6000610daf858761537d565b6040517fcdabd371000000000000000000000000000000000000000000000000000000008152909150600090309063cdabd37190610df3908a908a906004016153b0565b600060405180830381865afa158015610e10573d6000803e3d6000fd5b505050506040513d6000823e601f3d908101601f19168201604052610e389190810190615424565b90507f61b729dc00000000000000000000000000000000000000000000000000000000600160e060020a031983161415610ea957600080600080600085806020019051810190610e889190615459565b94509450945094509450610e9f85858585856129bc565b5050505050610ef4565b60405160e560020a62461bcd02815260206004820152601160248201527f556e7265636f676e697a65642066756e630000000000000000000000000000006044820152606401610d9a565b5050505050505050505050565b610f0e85858585856129bc565b5050505050565b60405160e560020a62461bcd02815260206004820152601760248201527f696c6c6567616c2064756d6d792066756e632063616c6c0000000000000000006044820152606401610d9a565b610f0e85858585856129ff565b603354600160a060020a03163314610f9a5760405160e560020a62461bcd028152600401610d9a906154bb565b6000918252609e602052604090912055565b603354600160a060020a03163314610fd95760405160e560020a62461bcd028152600401610d9a906154bb565b6000838152609b60205260409020610ff29083836142ea565b50505050565b60ab818154811061100857600080fd5b600091825260209091200154600160a060020a0316905081565b60606110318686868686612a32565b9695505050505050565b610f0e8585858585612ab3565b60408051606080820183526000808352602083018190529282015260006110728888888888612af6565b6000898152609b6020526040812080549293509091611090906152a0565b80601f01602080910402602001604051908101604052809291908181526020018280546110bc906152a0565b80156111095780601f106110de57610100808354040283529160200191611109565b820191906000526020600020905b8154815290600101906020018083116110ec57829003601f168201915b505060975460008e8152609c60205260408082205490517f0a5123690000000000000000000000000000000000000000000000000000000081529697509095600160a060020a039092169450630a5123699350611177925061ffff1690600190879089908b90600401615519565b6040805180830381865afa158015611193573d6000803e3d6000fd5b505050506040513d601f19601f820116820180604052508101906111b79190615571565b509a9950505050505050505050565b6000858152609c602090815260408083205460a454915161ffff90911692849261120f9290916111f891339101615595565b604051602081830303815290604052898989612a32565b9050600061121c85612b37565b609a546040517f40a7bb10000000000000000000000000000000000000000000000000000000008152919250600091600160a060020a03909116906340a7bb109061117790879030908890879089906004016155b8565b600260655414156112995760405160e560020a62461bcd028152600401610d9a906155fe565b600260655560a4546040516000916112d0916112b9903390602001615595565b604051602081830303815290604052878787612a32565b6000878152609b60205260408120805492935090916112ee906152a0565b80601f016020809104026020016040519081016040528092919081815260200182805461131a906152a0565b80156113675780601f1061133c57610100808354040283529160200191611367565b820191906000526020600020905b81548152906001019060200180831161134a57829003601f168201915b505050505090506113bd6040518060c0016040528089815260200183815260200184815260200133600160a060020a031681526020016000600160a060020a031681526020016113b686612b37565b9052612b7b565b505060016065555050505050565b60606110318686868686612c27565b600260655414156114005760405160e560020a62461bcd028152600401610d9a906155fe565b600260655560a2546040517f1526fe27000000000000000000000000000000000000000000000000000000008152600481018690528591600091600160a060020a0390911690631526fe279060240160c060405180830381865afa15801561146c573d6000803e3d6000fd5b505050506040513d601f19601f820116820180604052508101906114909190615635565b9550505050505080600160a060020a03166114a83390565b600160a060020a0316146115015760405160e560020a62461bcd02815260206004820152600e60248201527f6f6e6c7920726567207661756c740000000000000000000000000000000000006044820152606401610d9a565b600034116115545760405160e560020a62461bcd02815260206004820152601160248201527f4e6f2066656573207375626d69747465640000000000000000000000000000006044820152606401610d9a565b60006115608686612c7c565b609f5490915061157b90600160a060020a0316333084612c8f565b609f5460405160e060020a6370a08231028152306004820152600091600160a060020a0316906370a0823190602401602060405180830381865afa1580156115c7573d6000803e3d6000fd5b505050506040513d601f19601f820116820180604052508101906115eb9190615687565b905060006115f7612d28565b9050600061160a60a4548a8a858b612c27565b60a4546000908152609b602052604081208054929350909161162b906152a0565b80601f0160208091040260200160405190810160405280929190818152602001828054611657906152a0565b80156116a45780601f10611679576101008083540402835291602001916116a4565b820191906000526020600020905b81548152906001019060200180831161168757829003601f168201915b505050505090506116dc6040518060a0016040528060a55481526020018681526020018381526020018481526020018a815250612d5e565b50506001606555505050505050505050565b603354600160a060020a0316331461171b5760405160e560020a62461bcd028152600401610d9a906154bb565b8181600081811061172e5761172e6156a0565b90506020020160208101906117439190614993565b60ac8054600160a060020a031916600160a060020a039290921691909117905581816001818110611776576117766156a0565b905060200201602081019061178b9190614993565b60ad8054600160a060020a031916600160a060020a0392909216919091179055818160028181106117be576117be6156a0565b90506020020160208101906117d39190614993565b60ae8054600160a060020a031916600160a060020a03929092169190911790555050565b60606110318686868686612af6565b603354600160a060020a031633146118335760405160e560020a62461bcd028152600401610d9a906154bb565b60a68054600160a060020a031916600160a060020a0392909216919091179055565b603354600160a060020a031633146118825760405160e560020a62461bcd028152600401610d9a906154bb565b81816000818110611895576118956156a0565b90506020020160208101906118aa9190614993565b60a18054600160a060020a031916600160a060020a0392909216919091179055818160018181106118dd576118dd6156a0565b90506020020160208101906118f29190614993565b60a28054600160a060020a031916600160a060020a039290921691909117905581816002818110611925576119256156a0565b905060200201602081019061193a9190614993565b60a38054600160a060020a031916600160a060020a03929092169190911790555050565b603354600160a060020a0316331461198b5760405160e560020a62461bcd028152600401610d9a906154bb565b61199760aa858561436e565b50610f0e60ab838361436e565b609b60205260009081526040902080546119bd906152a0565b80601f01602080910402602001604051908101604052809291908181526020018280546119e9906152a0565b8015611a365780601f10611a0b57610100808354040283529160200191611a36565b820191906000526020600020905b815481529060010190602001808311611a1957829003601f168201915b505050505081565b603354600160a060020a03163314611a6b5760405160e560020a62461bcd028152600401610d9a906154bb565b60a98054600160a060020a031916600160a060020a0392909216919091179055565b603354600160a060020a03163314611aba5760405160e560020a62461bcd028152600401610d9a906154bb565b81816000818110611acd57611acd6156a0565b9050602002016020810190611ae29190614993565b609f8054600160a060020a031916600160a060020a039290921691909117905581816001818110611b1557611b156156a0565b9050602002016020810190611b2a9190614993565b60a08054600160a060020a031916600160a060020a03929092169190911790555050565b611b5d86868642878787612e41565b505050505050565b603354600160a060020a03163314611b925760405160e560020a62461bcd028152600401610d9a906154bb565b60a88054600160a060020a031916600160a060020a0392909216919091179055565b600054610100900460ff16611bcf5760005460ff1615611bd3565b303b155b611c485760405160e560020a62461bcd02815260206004820152602e60248201527f496e697469616c697a61626c653a20636f6e747261637420697320616c72656160448201527f647920696e697469616c697a65640000000000000000000000000000000000006064820152608401610d9a565b600054610100900460ff16158015611c6a576000805461ffff19166101011790555b6101008083015160c081015160978054600160a060020a03928316600160a060020a0319918216179091559282015160985560e090910151609a80549190921690831617905560a6805490911661dead17905560005b82610100015160400151518161ffff161015611e34576000836101000151604001518261ffff1681518110611cf757611cf76156a0565b60200260200101519050836101000151606001518261ffff1681518110611d2057611d206156a0565b6020026020010151609b60008381526020019081526020016000209080519060200190611d4e9291906143c1565b50836101000151608001518261ffff1681518110611d6e57611d6e6156a0565b6020026020010151609c600083815260200190815260200160002060006101000a81548161ffff021916908361ffff16021790555080609d6000866101000151608001518561ffff1681518110611dc757611dc76156a0565b602002602001015161ffff1661ffff1681526020019081526020016000208190555083610100015160a001518261ffff1681518110611e0857611e086156a0565b60209081029190910181015160009283526099909152604090912055611e2d816156d2565b9050611cc0565b50604082015160a78054600160a060020a03928316600160a060020a031991821617909155606084015160a88054918416918316919091179055608084015160a98054919093169116179055610120820151518051611e9b9160aa91602090910190614435565b506101208201516020908101518051611eb89260ab920190614435565b50610140820151805160ac8054600160a060020a0319908116600160a060020a0393841617909155602083015160ad8054831691841691909117905560409092015160ae80549093169116179055611f0e612e8f565b8015611f20576000805461ff00191690555b5050565b603354600160a060020a03163314611f515760405160e560020a62461bcd028152600401610d9a906154bb565b611f5b6000612ec1565b565b6060611f6882612b37565b92915050565b603354600160a060020a03163314611f9b5760405160e560020a62461bcd028152600401610d9a906154bb565b60978054600160a060020a03948516600160a060020a031991821617909155609892909255609a8054919093169116179055565b603354600160a060020a03163314611ffc5760405160e560020a62461bcd028152600401610d9a906154bb565b6000828152609c60209081526040808320805461ffff90951661ffff1990951685179055928252609d90522055565b603354600160a060020a031633146120585760405160e560020a62461bcd028152600401610d9a906154bb565b60009182526099602052604090912061ffff9091169055565b606061208288888888888888612f13565b90505b979650505050505050565b611f20828261300a565b603354600160a060020a031633146120c75760405160e560020a62461bcd028152600401610d9a906154bb565b60a78054600160a060020a031916600160a060020a0392909216919091179055565b6002606554141561210f5760405160e560020a62461bcd028152600401610d9a906155fe565b6002606555346121645760405160e560020a62461bcd02815260206004820152601160248201527f4e6f2066656573207375626d69747465640000000000000000000000000000006044820152606401610d9a565b609f5461217c90600160a060020a0316333087612c8f565b609f5460405160e060020a6370a08231028152306004820152600091600160a060020a0316906370a0823190602401602060405180830381865afa1580156121c8573d6000803e3d6000fd5b505050506040513d601f19601f820116820180604052508101906121ec9190615687565b905060006121ff88888488883389612f13565b6000898152609b602052604081208054929350909161221d906152a0565b80601f0160208091040260200160405190810160405280929190818152602001828054612249906152a0565b80156122965780601f1061226b57610100808354040283529160200191612296565b820191906000526020600020905b81548152906001019060200180831161227957829003601f168201915b505050505090506122cc6040518060a001604052808b815260200185815260200183815260200184815260200187815250612d5e565b5050600160655550505050505050565b60aa818154811061100857600080fd5b61ffff86166000908152609d60209081526040808320548851838a0120818552609b909352928190209051899389939092909161232991906152de565b6040518091039020146123815760405160e560020a62461bcd02815260206004820152601960248201527f556e7265636f672078636861696e20636f6e74726f6c6c6572000000000000006044820152606401610d9a565b60405160e060020a6370a08231028152306004820152600090600160a060020a038816906370a0823190602401602060405180830381865afa1580156123cb573d6000803e3d6000fd5b505050506040513d601f19601f820116820180604052508101906123ef9190615687565b9050808611156124445760405160e560020a62461bcd02815260206004820152601460248201527f616d6f756e744c4420657863656564732062616c0000000000000000000000006044820152606401610d9a565b600061244f866156f4565b6040517fcdabd371000000000000000000000000000000000000000000000000000000008152909150600090309063cdabd37190612491908a90600401614852565b600060405180830381865afa1580156124ae573d6000803e3d6000fd5b505050506040513d6000823e601f3d908101601f191682016040526124d69190810190615424565b90507f692d8b8b00000000000000000000000000000000000000000000000000000000600160e060020a03198316141561254a57600080600080600085806020019051810190612526919061572f565b9550955095509550509450612540858e8642878787612e41565b5050505050612614565b7f0689acd200000000000000000000000000000000000000000000000000000000600160e060020a0319831614156125af576000806000806000858060200190518101906125989190615798565b9450945094509450945061254085858585856129ff565b7f25b4383000000000000000000000000000000000000000000000000000000000600160e060020a031983161415610ea9576000806000806000858060200190518101906125fd91906157fc565b945094509450945094506125408585858585612ab3565b505050505050505050505050565b611f2082826132aa565b61263b87878787878787613973565b50505050505050565b604080516060808201835260008083526020830181905292820152600061267060a45488888888612c27565b60a15460405191925060009161269291600160a060020a031690602001615595565b60408051601f1981840301815282825260975460a5546000908152609c602052928320547f0a5123690000000000000000000000000000000000000000000000000000000085529194509192600160a060020a0390921691630a5123699161270c9161ffff90911690600190879089908b90600401615519565b6040805180830381865afa158015612728573d6000803e3d6000fd5b505050506040513d601f19601f8201168201806040525081019061274c9190615571565b509998505050505050505050565b60408051606080820183526000808352602083018190529282015260006127868a89898989338a612f13565b60975460008c8152609c60205260408082205490517f0a5123690000000000000000000000000000000000000000000000000000000081529394509092600160a060020a0390921691630a512369916127f19161ffff909116906001908f9088908a90600401615519565b6040805180830381865afa15801561280d573d6000803e3d6000fd5b505050506040513d601f19601f820116820180604052508101906128319190615571565b509b9a5050505050505050505050565b603354600160a060020a0316331461286e5760405160e560020a62461bcd028152600401610d9a906154bb565b81816000818110612881576128816156a0565b602002919091013560a45550818160018181106128a0576128a06156a0565b602002919091013560a555505050565b60606128bf826004818661583c565b8080601f016020809104026020016040519081016040528093929190818152602001838380828437600092019190915250929695505050505050565b61290481613a5a565b50565b603354600160a060020a031633146129345760405160e560020a62461bcd028152600401610d9a906154bb565b600160a060020a0381166129b35760405160e560020a62461bcd02815260206004820152602660248201527f4f776e61626c653a206e6577206f776e657220697320746865207a65726f206160448201527f64647265737300000000000000000000000000000000000000000000000000006064820152608401610d9a565b61290481612ec1565b600081116129c957600080fd5b8183867f8eb6209ab420e0a7fb7c07eced7742886688545f55afb30316b4d6b11b4df28360405160405180910390a45050505050565b604051819086907eb660b3df5a85765efbbce682130a464945f3d06b19204f360f314c45c3571690600090a35050505050565b6040516060907f61b729dc0000000000000000000000000000000000000000000000000000000090600090612a739089908990899089908990602001615866565b60405160208183030381529060405290508181604051602001612a9792919061589c565b6040516020818303038152906040529250505095945050505050565b60008111612ac057600080fd5b8183857fcf0a53e32c8cf2468c3dcc51de515d58e63a0ed4269f8fe8ec1b7434b4a207ea60405160405180910390a45050505050565b6040516060907f0689acd20000000000000000000000000000000000000000000000000000000090600090612a7390899089908990899089906020016158cc565b604080517e01000000000000000000000000000000000000000000000000000000000000602082015260228082019390935281518082039093018352604201905290565b80516000908152609c602090815260409182902054609a549184015183850151606086015160a087015195517fc580310000000000000000000000000000000000000000000000000000000000815261ffff90941695600160a060020a039095169463c5803100943494612bfa94899491939092829190600401615903565b6000604051808303818588803b158015612c1357600080fd5b505af115801561263b573d6000803e3d6000fd5b604080516020810187905290810185905260608082018590526080820184905260a08201839052907f25b43830000000000000000000000000000000000000000000000000000000009060009060c001612a73565b6000612c88828461596a565b9392505050565b604051600160a060020a0380851660248301528316604482015260648101829052610ff29085907f23b872dd00000000000000000000000000000000000000000000000000000000906084015b60408051601f198184030181529190526020810180517bffffffffffffffffffffffffffffffffffffffffffffffffffffffff16600160e060020a031990931692909217909152613ad7565b60af5460405181907f18bd4bd6372d39482d375f68791749755bdb38e8768acbfb6af999cef1adc6e090600090a2600060af5590565b6097546020820151609f54612d8192600160a060020a0391821692911690613bc4565b612da560405180606001604052806000815260200160008152602001606081525090565b60975482516000908152609c602090815260408083205460985487518552609984529190932054918601516080870151600160a060020a0390951694639fbf10fc94349461ffff90911693929091339190612e0f906103e890612e09908490613ca8565b90613cb4565b898b604001518c606001516040518b63ffffffff1660e060020a028152600401612bfa99989796959493929190615982565b60008311612e4e57600080fd5b80600160a060020a031686887f5e10e65c157c78416478d607d143c9fc17915c86ee950496a56552287c6975a360405160405180910390a450505050505050565b600054610100900460ff16612eb95760405160e560020a62461bcd028152600401610d9a90615a00565b611f5b613cc0565b60338054600160a060020a03838116600160a060020a0319831681179093556040519116919082907f8be0079c531659141344cd1fd0a4f28419497f9722a3daafe3b4186f6b6457e090600090a35050565b6000878152609e6020526040902054606090612fb657600063692d8b8b60e060020a02905060008888888888604051602001612f4f9190615595565b604051602081830303815290604052612f69896014015190565b604051602001612f7e96959493929190615a5d565b60405160208183030381529060405290508181604051602001612fa292919061589c565b604051602081830303815290604052925050505b60008151116120855760405160e560020a62461bcd02815260206004820152601660248201527f496e76616c69642078636861696e207061796c6f6164000000000000000000006044820152606401610d9a565b60a954609f5461302791600160a060020a03918216911684613bc4565b6040805160028082526060820183526000926020830190803683370190505060ae5490915061305e90600160a060020a0316613cf3565b81600081518110613071576130716156a0565b602090810291909101015260ac5461309190600160a060020a0316613cf3565b816001815181106130a4576130a46156a0565b6020908102919091010152604080516002808252606082019092526000918160200160208202803683375050609f546040805160e060020a63313ce5670281529051939450600160a060020a039091169263313ce567925060048083019260209291908290030181865afa158015613120573d6000803e3d6000fd5b505050506040513d601f19601f820116820180604052508101906131449190615aa4565b81600081518110613157576131576156a0565b60ff90921660209283029190910182015260a0546040805160e060020a63313ce5670281529051600160a060020a039092169263313ce567926004808401938290030181865afa1580156131af573d6000803e3d6000fd5b505050506040513d601f19601f820116820180604052508101906131d39190615aa4565b816001815181106131e6576131e66156a0565b60ff9092166020928302919091019091015260a954609f5461321591600160a060020a03918216911686613bc4565b610ff284838560aa80548060200260200160405190810160405280929190818152602001828054801561327157602002820191906000526020600020905b8154600160a060020a03168152600190910190602001808311613253575b505060a854899350600160a060020a03169150613292905042610258612c7c565b60a954600160a060020a031696959493929190613e43565b60a954609f546132c791600160a060020a03918216911684613bc4565b6040805160028082526060820183526000926020830190803683370190505060ae549091506132fe90600160a060020a0316613cf3565b81600081518110613311576133116156a0565b602090810291909101015260ac5461333190600160a060020a0316613cf3565b81600181518110613344576133446156a0565b60209081029190910101526040805160028082526060820190925260009181602001602082028036833701905050905081600081518110613387576133876156a0565b6020026020010151816000815181106133a2576133a26156a0565b602090810291909101015260ad546133c290600160a060020a0316613cf3565b816001815181106133d5576133d56156a0565b6020908102919091010152604080516002808252606082019092526000918160200160208202803683375050609f546040805160e060020a63313ce5670281529051939450600160a060020a039091169263313ce567925060048083019260209291908290030181865afa158015613451573d6000803e3d6000fd5b505050506040513d601f19601f820116820180604052508101906134759190615aa4565b81600081518110613488576134886156a0565b60ff90921660209283029190910182015260a0546040805160e060020a63313ce5670281529051600160a060020a039092169263313ce567926004808401938290030181865afa1580156134e0573d6000803e3d6000fd5b505050506040513d601f19601f820116820180604052508101906135049190615aa4565b81600181518110613517576135176156a0565b60ff9290921660209283029190910182015260408051600280825260608201835260009391929091830190803683370190505090508160008151811061355f5761355f6156a0565b60200260200101518160008151811061357a5761357a6156a0565b60ff90921660209283029190910182015260a7546040805160e060020a63313ce5670281529051600160a060020a039092169263313ce567926004808401938290030181865afa1580156135d2573d6000803e3d6000fd5b505050506040513d601f19601f820116820180604052508101906135f69190615aa4565b81600181518110613609576136096156a0565b60ff9092166020928302919091019091015260a954609f5461363891600160a060020a03918216911688613bc4565b6136ba613646876002613cb4565b858760aa80548060200260200160405190810160405280929190818152602001828054801561369e57602002820191906000526020600020905b8154600160a060020a03168152600190910190602001808311613680575b5050505050863061329261025842612c7c90919063ffffffff16565b609f5460a754600160a060020a03908116911614613754576137546136e0876002613cb4565b848760ab80548060200260200160405190810160405280929190818152602001828054801561373857602002820191906000526020600020905b8154600160a060020a0316815260019091019060200180831161371a575b5050505050853061329261025842612c7c90919063ffffffff16565b505060a05460405160e060020a6370a0823102815230600482015260009350600160a060020a0390911691506370a0823190602401602060405180830381865afa1580156137a6573d6000803e3d6000fd5b505050506040513d601f19601f820116820180604052508101906137ca9190615687565b60a75460405160e060020a6370a08231028152306004820152919250600091600160a060020a03909116906370a0823190602401602060405180830381865afa15801561381b573d6000803e3d6000fd5b505050506040513d601f19601f8201168201806040525081019061383f9190615687565b60a95460a05491925061385f91600160a060020a03908116911684613bc4565b60a95460a75461387c91600160a060020a03918216911683613bc4565b60a95460a05460a754600160a060020a039283169263e8e33700928116911685856138ad6103e8612e09848c613ca8565b6138bd6103e8612e098a8d613ca8565b60a654600160a060020a03166138d542610258612c7c565b60405163ffffffff8a1660e060020a028152600160a060020a039889166004820152968816602488015260448701959095526064860193909352608485019190915260a484015290921660c482015260e4810191909152610104016060604051808303816000875af115801561394f573d6000803e3d6000fd5b505050506040513d601f19601f8201168201806040525081019061263b9190615ac7565b60006139828888888887612af6565b6000898152609b60205260408120805492935090916139a0906152a0565b80601f01602080910402602001604051908101604052809291908181526020018280546139cc906152a0565b8015613a195780601f106139ee57610100808354040283529160200191613a19565b820191906000526020600020905b8154815290600101906020018083116139fc57829003601f168201915b50505050509050613a4f6040518060a001604052808b815260200187815260200183815260200184815260200185815250612d5e565b505050505050505050565b60a05460a8546040517f40c10f19000000000000000000000000000000000000000000000000000000008152600160a060020a039182166004820152602481018490529116906340c10f1990604401600060405180830381600087803b158015613ac357600080fd5b505af1158015610f0e573d6000803e3d6000fd5b6000613b2c826040518060400160405280602081526020017f5361666545524332303a206c6f772d6c6576656c2063616c6c206661696c656481525085600160a060020a0316613fc39092919063ffffffff16565b805190915015613bbf5780806020019051810190613b4a9190615af5565b613bbf5760405160e560020a62461bcd02815260206004820152602a60248201527f5361666545524332303a204552433230206f7065726174696f6e20646964206e60448201527f6f742073756363656564000000000000000000000000000000000000000000006064820152608401610d9a565b505050565b6040517fdd62ed3e000000000000000000000000000000000000000000000000000000008152306004820152600160a060020a038381166024830152600091839186169063dd62ed3e90604401602060405180830381865afa158015613c2e573d6000803e3d6000fd5b505050506040513d601f19601f82011682018060405250810190613c529190615687565b613c5c919061596a565b604051600160a060020a038516602482015260448101829052909150610ff29085907f095ea7b30000000000000000000000000000000000000000000000000000000090606401612cdc565b6000612c888284615b17565b6000612c888284615b36565b600054610100900460ff16613cea5760405160e560020a62461bcd028152600401610d9a90615a00565b611f5b33612ec1565b60008082600160a060020a031663313ce5676040518163ffffffff1660e060020a028152600401602060405180830381865afa158015613d37573d6000803e3d6000fd5b505050506040513d601f19601f82011682018060405250810190613d5b9190615aa4565b9050600083600160a060020a031663feaf968c6040518163ffffffff1660e060020a02815260040160a060405180830381865afa158015613da0573d6000803e3d6000fd5b505050506040513d601f19601f82011682018060405250810190613dc49190615b75565b5050509150506000811215613e1e5760405160e560020a62461bcd02815260206004820152601660248201527f6e656720707269636573206e6f7420616c6c6f776564000000000000000000006044820152606401610d9a565b613e3b613e2c83600a615cac565b612e098364e8d4a51000613ca8565b949350505050565b8251600214613e975760405160e560020a62461bcd02815260206004820152600b60248201527f696e76616c6964206465630000000000000000000000000000000000000000006044820152606401610d9a565b600086600081518110613eac57613eac6156a0565b602002602001015160001480613edc575086600181518110613ed057613ed06156a0565b60200260200101516000145b15613ef557613eee8989878988613fd2565b9050613f39565b613f368888600081518110613f0c57613f0c6156a0565b602002602001015189600181518110613f2757613f276156a0565b602002602001015189886140ed565b90505b6040517f5c11d795000000000000000000000000000000000000000000000000000000008152600160a060020a038a1690635c11d79590613f86908b9085908a9089908990600401615cff565b600060405180830381600087803b158015613fa057600080fd5b505af1158015613fb4573d6000803e3d6000fd5b50505050505050505050505050565b6060613e3b848460008561415e565b60008086600160a060020a031663d06ca61f87876040518363ffffffff1660e060020a028152600401614006929190615d3b565b600060405180830381865afa158015614023573d6000803e3d6000fd5b505050506040513d6000823e601f3d908101601f1916820160405261404b9190810190615d54565b90506120856140836103e885600081518110614069576140696156a0565b6020026020010151600a61407d9190615cac565b90613ca8565b612e0985600181518110614099576140996156a0565b6020026020010151600a6140ad9190615cac565b61407d88866140c7600189516142a290919063ffffffff16565b815181106140d7576140d76156a0565b6020026020010151613ca890919063ffffffff16565b600061103161412883600081518110614108576141086156a0565b6020026020010151600a61411c9190615cac565b61407d876103e8613ca8565b612e098460018151811061413e5761413e6156a0565b6020026020010151600a6141529190615cac565b61407d87818c8c613ca8565b606030318311156141da5760405160e560020a62461bcd02815260206004820152602660248201527f416464726573733a20696e73756666696369656e742062616c616e636520666f60448201527f722063616c6c00000000000000000000000000000000000000000000000000006064820152608401610d9a565b600160a060020a0385163b6142345760405160e560020a62461bcd02815260206004820152601d60248201527f416464726573733a2063616c6c20746f206e6f6e2d636f6e74726163740000006044820152606401610d9a565b60008086600160a060020a031685876040516142509190615dd7565b60006040518083038185875af1925050503d806000811461428d576040519150601f19603f3d011682016040523d82523d6000602084013e614292565b606091505b50915091506120858282866142ae565b6000612c888284615df3565b606083156142bd575081612c88565b8251156142cd5782518084602001fd5b8160405160e560020a62461bcd028152600401610d9a9190614852565b8280546142f6906152a0565b90600052602060002090601f016020900481019282614318576000855561435e565b82601f106143315782800160ff1982351617855561435e565b8280016001018555821561435e579182015b8281111561435e578235825591602001919060010190614343565b5061436a92915061448a565b5090565b82805482825590600052602060002090810192821561435e579160200282015b8281111561435e578154600160a060020a031916600160a060020a0384351617825560209092019160019091019061438e565b8280546143cd906152a0565b90600052602060002090601f0160209004810192826143ef576000855561435e565b82601f1061440857805160ff191683800117855561435e565b8280016001018555821561435e579182015b8281111561435e57825182559160200191906001019061441a565b82805482825590600052602060002090810192821561435e579160200282015b8281111561435e5782518254600160a060020a031916600160a060020a03909116178255602090920191600190910190614455565b5b8082111561436a576000815560010161448b565b803561ffff811681146144b157600080fd5b919050565b60008083601f8401126144c857600080fd5b50813567ffffffffffffffff8111156144e057600080fd5b6020830191508360208285010111156144f857600080fd5b9250929050565b6000806000806000806080878903121561451857600080fd5b6145218761449f565b9550602087013567ffffffffffffffff8082111561453e57600080fd5b61454a8a838b016144b6565b909750955060408901359150808216821461456457600080fd5b9093506060880135908082111561457a57600080fd5b5061458789828a016144b6565b979a9699509497509295939492505050565b60e060020a634e487b7102600052604160045260246000fd5b604051610120810167ffffffffffffffff811182821017156145d6576145d6614599565b60405290565b604051610160810167ffffffffffffffff811182821017156145d6576145d6614599565b604051601f8201601f1916810167ffffffffffffffff8111828210171561462957614629614599565b604052919050565b600067ffffffffffffffff82111561464b5761464b614599565b50601f01601f191660200190565b600082601f83011261466a57600080fd5b813561467d61467882614631565b614600565b81815284602083860101111561469257600080fd5b816020850160208301376000918101602001919091529392505050565b600080600080600060a086880312156146c757600080fd5b85359450602086013567ffffffffffffffff8111156146e557600080fd5b6146f188828901614659565b959895975050505060408401359360608101359360809091013592509050565b600080600080600060a0868803121561472957600080fd5b853594506020860135935060408601359250606086013567ffffffffffffffff81111561475557600080fd5b61476188828901614659565b95989497509295608001359392505050565b6000806040838503121561478657600080fd5b50508035926020909101359150565b6000806000604084860312156147aa57600080fd5b83359250602084013567ffffffffffffffff8111156147c857600080fd5b6147d4868287016144b6565b9497909650939450505050565b6000602082840312156147f357600080fd5b5035919050565b60005b838110156148155781810151838201526020016147fd565b83811115610ff25750506000910152565b6000815180845261483e8160208601602086016147fa565b601f01601f19169290920160200192915050565b602081526000612c886020830184614826565b600080600080600060a0868803121561487d57600080fd5b505083359560208501359550604085013594606081013594506080013592509050565b6000602082840312156148b257600080fd5b612c888261449f565b600080600080608085870312156148d157600080fd5b5050823594602084013594506040840135936060013592509050565b60008083601f8401126148ff57600080fd5b50813567ffffffffffffffff81111561491757600080fd5b60208301915083602080830285010111156144f857600080fd5b6000806020838503121561494457600080fd5b823567ffffffffffffffff81111561495b57600080fd5b614967858286016148ed565b90969095509350505050565b600160a060020a038116811461290457600080fd5b80356144b181614973565b6000602082840312156149a557600080fd5b8135612c8881614973565b600080600080604085870312156149c657600080fd5b843567ffffffffffffffff808211156149de57600080fd5b6149ea888389016148ed565b90965094506020870135915080821115614a0357600080fd5b50614a10878288016148ed565b95989497509550505050565b60008060008060008060c08789031215614a3557600080fd5b86359550602087013594506040870135935060608701359250608087013567ffffffffffffffff811115614a6857600080fd5b614a7489828a01614659565b92505060a0870135614a8581614973565b809150509295509295509295565b600067ffffffffffffffff821115614aad57614aad614599565b5060209081020190565b600082601f830112614ac857600080fd5b81356020614ad861467883614a93565b82815291810284018101918181019086841115614af457600080fd5b8286015b84811015614b0f5780358352918301918301614af8565b509695505050505050565b600082601f830112614b2b57600080fd5b81356020614b3b61467883614a93565b82815291810284018101918181019086841115614b5757600080fd5b8286015b84811015614b0f57803567ffffffffffffffff811115614b7b5760008081fd5b614b898986838b0101614659565b845250918301918301614b5b565b600082601f830112614ba857600080fd5b81356020614bb861467883614a93565b82815291810284018101918181019086841115614bd457600080fd5b8286015b84811015614b0f57614be98161449f565b8352918301918301614bd8565b60006101208284031215614c0957600080fd5b614c116145b2565b90508135815260208201356020820152604082013567ffffffffffffffff80821115614c3c57600080fd5b614c4885838601614ab7565b60408401526060840135915080821115614c6157600080fd5b614c6d85838601614b1a565b60608401526080840135915080821115614c8657600080fd5b614c9285838601614b97565b608084015260a0840135915080821115614cab57600080fd5b50614cb884828501614ab7565b60a083015250614cca60c08301614988565b60c0820152614cdb60e08301614988565b60e082015261010080830135818301525092915050565b600082601f830112614d0357600080fd5b81356020614d1361467883614a93565b82815291810284018101918181019086841115614d2f57600080fd5b8286015b84811015614b0f578035614d4681614973565b8352918301918301614d33565b600060408284031215614d6557600080fd5b6040516040810167ffffffffffffffff8282108183111715614d8957614d89614599565b816040528293508435915080821115614da157600080fd5b614dad86838701614cf2565b83526020850135915080821115614dc357600080fd5b50614dd085828601614cf2565b6020830152505092915050565b600060608284031215614def57600080fd5b6040516060810181811067ffffffffffffffff82111715614e1257614e12614599565b6040529050808235614e2381614973565b81526020830135614e3381614973565b60208201526040830135614e4681614973565b6040919091015292915050565b600060208284031215614e6557600080fd5b813567ffffffffffffffff80821115614e7d57600080fd5b908301906101a08286031215614e9257600080fd5b614e9a6145dc565b614ea383614988565b8152614eb160208401614988565b6020820152614ec260408401614988565b6040820152614ed360608401614988565b6060820152614ee460808401614988565b6080820152614ef560a08401614988565b60a0820152614f0660c08401614988565b60c0820152614f1760e08401614988565b60e08201526101008084013583811115614f3057600080fd5b614f3c88828701614bf6565b8284015250506101208084013583811115614f5657600080fd5b614f6288828701614d53565b8284015250506101409150614f7986838501614ddd565b91810191909152949350505050565b600080600060608486031215614f9d57600080fd5b8335614fa881614973565b9250602084013591506040840135614fbf81614973565b809150509250925092565b60008060408385031215614fdd57600080fd5b82359150614fed6020840161449f565b90509250929050565b600080600080600080600060e0888a03121561501157600080fd5b873596506020880135955060408801359450606088013593506080880135925060a088013561503f81614973565b915060c088013567ffffffffffffffff81111561505b57600080fd5b6150678a828b01614659565b91505092959891949750929550565b60008060008060008060c0878903121561508f57600080fd5b863595506020870135945060408701359350606087013592506080870135915060a087013567ffffffffffffffff8111156150c957600080fd5b6150d589828a01614659565b9150509295509295509295565b60008060008060008060c087890312156150fb57600080fd5b6151048761449f565b9550602087013567ffffffffffffffff8082111561512157600080fd5b61512d8a838b01614659565b9650604089013595506060890135915061514682614973565b9093506080880135925060a0880135908082111561516357600080fd5b506150d589828a01614659565b600080600080600080600060e0888a03121561518b57600080fd5b873596506020880135955060408801359450606088013567ffffffffffffffff8111156151b757600080fd5b6151c38a828b01614659565b979a969950949760808101359660a0820135965060c090910135945092505050565b600080600080600080600060e0888a03121561520057600080fd5b87359650602088013567ffffffffffffffff8082111561521f57600080fd5b61522b8b838c01614659565b975060408a0135965060608a0135955060808a0135945060a08a0135935060c08a013591508082111561525d57600080fd5b506150678a828b01614659565b6000806020838503121561527d57600080fd5b823567ffffffffffffffff81111561529457600080fd5b614967858286016144b6565b6002810460018216806152b457607f821691505b602082108114156152d85760e060020a634e487b7102600052602260045260246000fd5b50919050565b81546000908190600281046001808316806152fa57607f831692505b602080841082141561531d5760e060020a634e487b710286526022600452602486fd5b81801561533157600181146153425761536f565b60ff1986168952848901965061536f565b60008a81526020902060005b868110156153675781548b82015290850190830161534e565b505084890196505b509498975050505050505050565b600160e060020a031981358181169160048510156153a857808560040360080260020a820283161692505b505092915050565b60208152816020820152818360408301376000818301604090810191909152601f909201601f19160101919050565b600082601f8301126153f057600080fd5b81516153fe61467882614631565b81815284602083860101111561541357600080fd5b613e3b8260208301602087016147fa565b60006020828403121561543657600080fd5b815167ffffffffffffffff81111561544d57600080fd5b613e3b848285016153df565b600080600080600060a0868803121561547157600080fd5b85519450602086015167ffffffffffffffff81111561548f57600080fd5b61549b888289016153df565b60408801516060890151608090990151979a919950979695509350505050565b6020808252818101527f4f776e61626c653a2063616c6c6572206973206e6f7420746865206f776e6572604082015260600190565b80518252602081015160208301526000604082015160606040850152613e3b6060850182614826565b61ffff8616815260ff8516602082015260a06040820152600061553f60a0830186614826565b82810360608401526155518186614826565b9050828103608084015261556581856154f0565b98975050505050505050565b6000806040838503121561558457600080fd5b505080516020909101519092909150565b600160a060020a03919091166c0100000000000000000000000002815260140190565b61ffff86168152600160a060020a038516602082015260a0604082015260006155e460a0830186614826565b841515606084015282810360808401526155658185614826565b6020808252601f908201527f5265656e7472616e637947756172643a207265656e7472616e742063616c6c00604082015260600190565b60008060008060008060c0878903121561564e57600080fd5b865161565981614973565b809650506020870151945060408701519350606087015192506080870151915060a0870151614a8581614973565b60006020828403121561569957600080fd5b5051919050565b60e060020a634e487b7102600052603260045260246000fd5b60e060020a634e487b7102600052601160045260246000fd5b600061ffff808316818114156156ea576156ea6156b9565b6001019392505050565b600081516020830151600160e060020a03198082169350600483101561572757808360040360080260020a820283161693505b505050919050565b60008060008060008060c0878903121561574857600080fd5b86519550602087015194506040870151935060608701519250608087015167ffffffffffffffff81111561577b57600080fd5b61578789828a016153df565b92505060a0870151614a8581614973565b600080600080600060a086880312156157b057600080fd5b855194506020860151935060408601519250606086015167ffffffffffffffff8111156157dc57600080fd5b6157e8888289016153df565b925050608086015190509295509295909350565b600080600080600060a0868803121561581457600080fd5b5050835160208501516040860151606087015160809097015192989197509594509092509050565b6000808585111561584c57600080fd5b8386111561585957600080fd5b5050820193919092039150565b85815260a06020820152600061587f60a0830187614826565b604083019590955250606081019290925260809091015292915050565b600160e060020a031983168152600082516158be8160048501602087016147fa565b919091016004019392505050565b85815284602082015283604082015260a0606082015260006158f160a0830185614826565b90508260808301529695505050505050565b61ffff8716815260c06020820152600061592060c0830188614826565b82810360408401526159328188614826565b600160a060020a0387811660608601528616608085015283810360a0850152905061595d8185614826565b9998505050505050505050565b6000821982111561597d5761597d6156b9565b500190565b600061012061ffff8c1683528a6020840152896040840152600160a060020a03891660608401528760808401528660a08401528060c08401526159c7818401876154f0565b905082810360e08401526159db8186614826565b90508281036101008401526159f08185614826565b9c9b505050505050505050505050565b6020808252602b908201527f496e697469616c697a61626c653a20636f6e7472616374206973206e6f74206960408201527f6e697469616c697a696e67000000000000000000000000000000000000000000606082015260800190565b86815285602082015284604082015283606082015260c060808201526000615a8860c0830185614826565b9050600160a060020a03831660a0830152979650505050505050565b600060208284031215615ab657600080fd5b815160ff81168114612c8857600080fd5b600080600060608486031215615adc57600080fd5b8351925060208401519150604084015190509250925092565b600060208284031215615b0757600080fd5b81518015158114612c8857600080fd5b6000816000190483118215151615615b3157615b316156b9565b500290565b600082615b565760e060020a634e487b7102600052601260045260246000fd5b500490565b805169ffffffffffffffffffff811681146144b157600080fd5b600080600080600060a08688031215615b8d57600080fd5b615b9686615b5b565b9450602086015193506040860151925060608601519150615bb960808701615b5b565b90509295509295909350565b600181815b80851115615c02578160001904821115615be657615be66156b9565b80851615615bf357918102915b60029094049390800290615bca565b509250929050565b600082615c1957506001611f68565b81615c2657506000611f68565b8160018114615c3c5760028114615c4657615c63565b6001915050611f68565b60ff841115615c5757615c576156b9565b8360020a915050611f68565b5060208310610133831016604e8410600b8410161715615c86575081810a611f68565b615c908383615bc5565b8060001904821115615ca457615ca46156b9565b029392505050565b6000612c8860ff841683615c0a565b600081518084526020808501945080840160005b83811015615cf4578151600160a060020a031687529582019590820190600101615ccf565b509495945050505050565b85815284602082015260a060408201526000615d1e60a0830186615cbb565b600160a060020a0394909416606083015250608001529392505050565b828152604060208201526000613e3b6040830184615cbb565b60006020808385031215615d6757600080fd5b825167ffffffffffffffff811115615d7e57600080fd5b8301601f81018513615d8f57600080fd5b8051615d9d61467882614a93565b81815290830282018301908381019087831115615db957600080fd5b928401925b8284101561208557835182529284019290840190615dbe565b60008251615de98184602087016147fa565b9190910192915050565b600082821015615e0557615e056156b9565b50039056fea264697066735822122048e2702dbf9c470af00184d91c50f4b207cb5677a1e7f24298ee624cd2dc99e264736f6c634300080a0033",
  "immutableReferences": {},
  "source": "// SPDX-License-Identifier: MIT\n\npragma solidity ^0.8.0;\n\nimport \"../ZorroControllerXChain.sol\";\n\nimport \"../../interfaces/LayerZero/ILayerZeroEndpoint.sol\";\n\ncontract MockZorroControllerXChain is ZorroControllerXChain {\n    event ReceiveXChainDepositReq(\n        uint256 indexed _pid,\n        uint256 indexed _valueUSD,\n        address indexed _destAccount\n    );\n\n    event ReceiveXChainRepatriationReq(\n        uint256 indexed _originChainId,\n        uint256 indexed _rewardsDue\n    );\n\n    event ReceiveXChainDistributionReq(\n        uint256 indexed _amountUSDBuyback,\n        uint256 indexed _amountUSDRevShare,\n        uint256 indexed _accSlashedRewards\n    );\n\n    event ReceiveXChainWithdrawalReq(\n        uint256 indexed _originChainId,\n        uint256 indexed _pid,\n        uint256 indexed _trancheId\n    );\n\n    function encodeXChainDepositPayload(\n        uint256 _chainId,\n        uint256 _pid,\n        uint256 _valueUSD,\n        uint256 _weeksCommitted,\n        uint256 _maxMarketMovement,\n        address _originWallet,\n        bytes memory _destWallet\n    ) public view returns (bytes memory) {\n        return\n            _encodeXChainDepositPayload(\n                _chainId,\n                _pid,\n                _valueUSD,\n                _weeksCommitted,\n                _maxMarketMovement,\n                _originWallet,\n                _destWallet\n            );\n    }\n\n    function mockReceiveXChainDepositRequest(\n        uint256 _pid,\n        uint256 _valueUSD,\n        uint256 _weeksCommitted,\n        uint256 _maxMarketMovement,\n        bytes memory _originAccount,\n        address _destAccount\n    ) public {\n        _receiveXChainDepositRequest(\n            _pid,\n            _valueUSD,\n            _weeksCommitted,\n            block.timestamp,\n            _maxMarketMovement,\n            _originAccount,\n            _destAccount\n        );\n    }\n\n    function _receiveXChainDepositRequest(\n        uint256 _pid,\n        uint256 _valueUSD,\n        uint256 _weeksCommitted,\n        uint256 _vaultEnteredAt,\n        uint256 _maxMarketMovement,\n        bytes memory _originAccount,\n        address _destAccount\n    ) internal override {\n        // Requirements\n        require(_weeksCommitted >= 0);\n        require(_vaultEnteredAt >= 0);\n        require(_maxMarketMovement > 0);\n        require(_originAccount.length >= 0);\n        // TODO: Consider making this an actual event like for repatriation, instead of one just for test\n        emit ReceiveXChainDepositReq(_pid, _valueUSD, _destAccount);\n    }\n\n    function mockReceiveXChainRepatriationRequest(\n        uint256 _originChainId,\n        uint256 _pid,\n        uint256 _trancheId,\n        bytes memory _originRecipient,\n        uint256 _rewardsDue\n    ) public {\n        _receiveXChainRepatriationRequest(\n            _originChainId,\n            _pid,\n            _trancheId,\n            _originRecipient,\n            _rewardsDue\n        );\n    }\n\n    function _receiveXChainRepatriationRequest(\n        uint256 _originChainId,\n        uint256 _pid,\n        uint256 _trancheId,\n        bytes memory _originRecipient,\n        uint256 _rewardsDue\n    ) internal override {\n        // Requirements\n        require(_pid >= 0);\n        require(_trancheId >= 0);\n        require(_originRecipient.length >= 0);\n\n        emit ReceiveXChainRepatriationReq(\n            _originChainId,\n            _rewardsDue\n        );\n    }\n\n    function mockReceiveXChainDistributionRequest(\n        uint256 _remoteChainId,\n        uint256 _amountUSDBuyback,\n        uint256 _amountUSDRevShare,\n        uint256 _accSlashedRewards,\n        uint256 _maxMarketMovement\n    ) public {\n        _receiveXChainDistributionRequest(\n            _remoteChainId,\n            _amountUSDBuyback,\n            _amountUSDRevShare,\n            _accSlashedRewards,\n            _maxMarketMovement\n        );\n    }\n\n    function _receiveXChainDistributionRequest(\n        uint256 _remoteChainId,\n        uint256 _amountUSDBuyback,\n        uint256 _amountUSDRevShare,\n        uint256 _accSlashedRewards,\n        uint256 _maxMarketMovement\n    ) internal override {\n        // Requirements\n        require(_remoteChainId >= 0);\n        require(_maxMarketMovement > 0);\n\n        emit ReceiveXChainDistributionReq(\n            _amountUSDBuyback,\n            _amountUSDRevShare,\n            _accSlashedRewards\n        );\n    }\n\n    function mockReceiveXChainWithdrawalRequest(\n        uint256 _originChainId,\n        bytes memory _originAccount,\n        uint256 _pid,\n        uint256 _trancheId,\n        uint256 _maxMarketMovement\n    ) public {\n        _receiveXChainWithdrawalRequest(\n            _originChainId,\n            _originAccount,\n            _pid,\n            _trancheId,\n            _maxMarketMovement\n        );\n    }\n\n    function _receiveXChainWithdrawalRequest(\n        uint256 _originChainId,\n        bytes memory _originAccount,\n        uint256 _pid,\n        uint256 _trancheId,\n        uint256 _maxMarketMovement\n    ) internal override {\n        // Requirements\n        require(_originAccount.length >= 0);\n        require(_maxMarketMovement > 0);\n\n        emit ReceiveXChainWithdrawalReq(_originChainId, _pid, _trancheId);\n    }\n\n    function getLZAdapterParamsForWithdraw(uint256 _gasForDestinationLZReceive)\n        public\n        pure\n        returns (bytes memory)\n    {\n        return _getLZAdapterParamsForWithdraw(_gasForDestinationLZReceive);\n    }\n\n    function encodeXChainWithdrawalPayload(\n        uint256 _originChainId,\n        bytes memory _originAccount,\n        uint256 _pid,\n        uint256 _trancheId,\n        uint256 _maxMarketMovement\n    ) public pure returns (bytes memory) {\n        return\n            _encodeXChainWithdrawalPayload(\n                _originChainId,\n                _originAccount,\n                _pid,\n                _trancheId,\n                _maxMarketMovement\n            );\n    }\n\n    function encodeXChainRepatriationPayload(\n        uint256 _originChainId,\n        uint256 _pid,\n        uint256 _trancheId,\n        bytes memory _originRecipient,\n        uint256 _rewardsDue\n    ) public pure returns (bytes memory) {\n        return\n            _encodeXChainRepatriationPayload(\n                _originChainId,\n                _pid,\n                _trancheId,\n                _originRecipient,\n                _rewardsDue\n            );\n    }\n\n    function sendXChainRepatriationRequest(\n        uint256 _originChainId,\n        uint256 _pid,\n        uint256 _trancheId,\n        bytes memory _originRecipient,\n        uint256 _amountUSD,\n        uint256 _rewardsDue,\n        uint256 _maxMarketMovementAllowed\n    ) public payable {\n        _sendXChainRepatriationRequest(\n            _originChainId,\n            _pid,\n            _trancheId,\n            _originRecipient,\n            _amountUSD,\n            _rewardsDue,\n            _maxMarketMovementAllowed\n        );\n    }\n\n    function encodeXChainDistributeEarningsPayload(\n        uint256 _remoteChainId,\n        uint256 _amountUSDBuyback,\n        uint256 _amountUSDRevShare,\n        uint256 _accSlashedRewards,\n        uint256 _maxMarketMovement\n    ) public pure returns (bytes memory) {\n        return\n            _encodeXChainDistributeEarningsPayload(\n                _remoteChainId,\n                _amountUSDBuyback,\n                _amountUSDRevShare,\n                _accSlashedRewards,\n                _maxMarketMovement\n            );\n    }\n\n    function buybackOnChain(uint256 _amountUSD, uint256 _maxMarketMovement)\n        public\n    {\n        _buybackOnChain(_amountUSD, _maxMarketMovement);\n    }\n\n    function revShareOnChain(uint256 _amountUSD, uint256 _maxMarketMovement)\n        public\n    {\n        _revShareOnChain(_amountUSD, _maxMarketMovement);\n    }\n\n    function awardSlashedRewardsToStakers(uint256 _slashedZORRewards)\n        public\n    {\n        _awardSlashedRewardsToStakers(_slashedZORRewards);\n    }\n}\n\ncontract MockLayerZeroEndpoint is ILayerZeroEndpoint {\n    event SentMessage(uint16 indexed _dstChainId, uint256 indexed msgValue);\n\n    uint256 private _dummy; // For compiler satisfaction of state mutability\n\n    function send(\n        uint16 _dstChainId,\n        bytes calldata _destination,\n        bytes calldata _payload,\n        address payable _refundAddress,\n        address _zroPaymentAddress,\n        bytes calldata _adapterParams\n    ) external payable {\n        // Requirements\n        require(_destination.length >= 0);\n        require(_payload.length >= 0);\n        require(_refundAddress != address(0));\n        require(_zroPaymentAddress != address(0));\n        require(_adapterParams.length >= 0);\n\n        emit SentMessage(_dstChainId, msg.value);\n    }\n\n    function receivePayload(\n        uint16 _srcChainId,\n        bytes calldata _srcAddress,\n        address _dstAddress,\n        uint64 _nonce,\n        uint256 _gasLimit,\n        bytes calldata _payload\n    ) external {}\n\n    function getInboundNonce(uint16 _srcChainId, bytes calldata _srcAddress)\n        external\n        view\n        returns (uint64)\n    {}\n\n    function getOutboundNonce(uint16 _dstChainId, address _srcAddress)\n        external\n        view\n        returns (uint64)\n    {}\n\n    function estimateFees(\n        uint16 _dstChainId,\n        address _userApplication,\n        bytes calldata _payload,\n        bool _payInZRO,\n        bytes calldata _adapterParam\n    ) external view returns (uint256 nativeFee, uint256 zroFee) {\n        // Requirements (to satisfy compiler warnings for unused variables)\n        require(_dstChainId >= 0);\n        require(_userApplication != address(0));\n        require(_payload.length >= 0);\n        require(_payInZRO || !_payInZRO); \n        require(_adapterParam.length >= 0);\n        require(_dummy >= 0);\n\n        return (0.1 ether, 0);\n    }\n\n    function getChainId() external view returns (uint16) {}\n\n    function retryPayload(\n        uint16 _srcChainId,\n        bytes calldata _srcAddress,\n        bytes calldata _payload\n    ) external {}\n\n    function hasStoredPayload(uint16 _srcChainId, bytes calldata _srcAddress)\n        external\n        view\n        returns (bool)\n    {}\n\n    function getSendLibraryAddress(address _userApplication)\n        external\n        view\n        returns (address)\n    {}\n\n    function getReceiveLibraryAddress(address _userApplication)\n        external\n        view\n        returns (address)\n    {}\n\n    function isSendingPayload() external view returns (bool) {}\n\n    function isReceivingPayload() external view returns (bool) {}\n\n    function getConfig(\n        uint16 _version,\n        uint16 _chainId,\n        address _userApplication,\n        uint256 _configType\n    ) external view returns (bytes memory) {}\n\n    function getSendVersion(address _userApplication)\n        external\n        view\n        returns (uint16)\n    {}\n\n    function getReceiveVersion(address _userApplication)\n        external\n        view\n        returns (uint16)\n    {}\n\n    function setConfig(\n        uint16 _version,\n        uint16 _chainId,\n        uint256 _configType,\n        bytes calldata _config\n    ) external {}\n\n    function setSendVersion(uint16 _version) external {}\n\n    function setReceiveVersion(uint16 _version) external {}\n\n    function forceResumeReceive(uint16 _srcChainId, bytes calldata _srcAddress)\n        external\n    {}\n}\n",
  "sourcePath": "/Users/kristophm/Documents/workspace/zorro-protocol/contracts/controllers/mocks/MockZorroControllerXChain.sol",
  "compiler": {
    "name": "solc",
    "version": "0.8.10+commit.fc410830.Emscripten.clang"
  },
  "schemaVersion": "3.4.10",
  "updatedAt": "2022-11-20T20:57:38.870Z",
  "devdoc": {
    "kind": "dev",
    "methods": {
      "checkXChainDepositFee(uint256,bytes,uint256,uint256,uint256,uint256,bytes)": {
        "params": {
          "_chainId": "The Zorro Chain ID (not the LayerZero one)",
          "_destWallet": "A valid address on the remote chain that can claim ownership",
          "_dstContract": "The destination contract address on the remote chain",
          "_maxMarketMovement": "Acceptable degree of slippage on any transaction (e.g. 950 = 5%, 990 = 1% etc.)",
          "_pid": "The pool ID on the remote chain",
          "_valueUSD": "The amount of USD to deposit",
          "_weeksCommitted": "Number of weeks to commit to a vault"
        },
        "returns": {
          "_0": "uint256 Expected fee to pay for bridging/cross chain execution"
        }
      },
      "checkXChainDistributeEarningsFee(uint256,uint256,uint256,uint256)": {
        "params": {
          "_accSlashedRewards": "Accumulated slashed rewards on chain",
          "_amountUSDBuyback": "Amount of USD to buy back",
          "_amountUSDRevShare": "Amount of USD to rev share with ZOR single staking vault",
          "_maxMarketMovement": "factor to account for max market movement/slippage."
        },
        "returns": {
          "_0": "uint256 Quantity of native token as fees"
        }
      },
      "checkXChainRepatriationFee(uint256,uint256,uint256,bytes,uint256)": {
        "params": {
          "_originChainId": "Zorro chain ID of chain to which funds are to be repatriated to",
          "_originRecipient": "Recipient of funds on the origin chain",
          "_pid": "Pool ID on current chain",
          "_rewardsDue": "ZOR rewards due to the recipient",
          "_trancheId": "ID of tranche on current chain that funds were withdrawn from"
        },
        "returns": {
          "_0": "uint256 Estimated fee in native tokens"
        }
      },
      "checkXChainWithdrawalFee(uint256,uint256,uint256,uint256,uint256)": {
        "params": {
          "_gasForDestinationLZReceive": "How much additional gas to provide at destination contract",
          "_maxMarketMovement": "Acceptable degree of slippage on any transaction (e.g. 950 = 5%, 990 = 1% etc.)",
          "_pid": "The pool ID on the remote chain",
          "_trancheId": "The tranche ID on the remote chain",
          "_zorroChainId": "The Zorro Chain ID (not the LayerZero one)"
        },
        "returns": {
          "_0": "uint256 Expected fee to pay for bridging/cross chain execution"
        }
      },
      "extractParamsPayload(bytes)": {
        "params": {
          "_payloadWithSig": "ABI encoded payload with function selector"
        },
        "returns": {
          "paramsPayload": "Payload with params only"
        }
      },
      "initialize((address,address,address,address,address,address,address,address,(uint256,uint256,uint256[],bytes[],uint16[],uint256[],address,address,uint256),(address[],address[]),(address,address,address)))": {
        "params": {
          "_initValue": "a ZorroControllerXChainInit struct for initializing this contract"
        }
      },
      "owner()": {
        "details": "Returns the address of the current owner."
      },
      "receiveXChainDepositRequest(uint256,uint256,uint256,uint256,bytes,address)": {
        "details": "Should never ever be actually called."
      },
      "receiveXChainDistributionRequest(uint256,uint256,uint256,uint256,uint256)": {
        "details": "Should never ever be actually called."
      },
      "receiveXChainRepatriationRequest(uint256,uint256,uint256,bytes,uint256)": {
        "details": "Should never ever be actually called."
      },
      "receiveXChainWithdrawalRequest(uint256,bytes,uint256,uint256,uint256)": {
        "details": "Should never ever be actually called."
      },
      "renounceOwnership()": {
        "details": "Leaves the contract without owner. It will not be possible to call `onlyOwner` functions anymore. Can only be called by the current owner. NOTE: Renouncing ownership will leave the contract without an owner, thereby removing any functionality that is only available to the owner."
      },
      "sendXChainDepositRequest(uint256,uint256,uint256,uint256,uint256,bytes)": {
        "details": "Requires appropriate fee to be paid via msg.value (use checkXChainDepositFee() above)",
        "params": {
          "_destWallet": "A valid address on the remote chain that can claim ownership",
          "_maxMarketMovement": "Acceptable degree of slippage on any transaction (e.g. 950 = 5%, 990 = 1% etc.)",
          "_pid": "The pool ID on the remote chain",
          "_valueUSD": "The amount of  to deposit",
          "_weeksCommitted": "Number of weeks to commit to a vault",
          "_zorroChainId": "The Zorro Chain ID (not the LayerZero one)"
        }
      },
      "sendXChainDistributeEarningsRequest(uint256,uint256,uint256,uint256)": {
        "params": {
          "_buybackAmountUSD": "Amount in USD to buy back",
          "_maxMarketMovement": "Acceptable slippage (950 = 5%, 990 = 1% etc.)",
          "_pid": "Pool ID",
          "_revShareAmountUSD": "Amount in USD to revshare w/ ZOR single staking vault"
        }
      },
      "sendXChainWithdrawalRequest(uint256,uint256,uint256,uint256,uint256)": {
        "details": "Requires value to be submitted to pay for cross chain transaction. Use checkXChainWithdrawalFee() to estimate fees",
        "params": {
          "_destZorroChainId": "The Zorro chain ID of the remote chain to withdraw from",
          "_gasForDestinationLZReceive": "How much additional gas to provide at destination contract",
          "_maxMarketMovement": "Acceptable degree of slippage on any transaction (e.g. 950 = 5%, 990 = 1% etc.)",
          "_pid": "The pool ID on the remote chain",
          "_trancheId": "The ID of the tranche for the given user and pool"
        }
      },
      "setControllerContract(uint256,bytes)": {
        "params": {
          "_controller": "Bytes representation of smart contract address for cross chain contract",
          "_zorroChainId": "Zorro Chain ID"
        }
      },
      "setStargateDestPoolIds(uint256,uint16)": {
        "params": {
          "_stargatePoolId": "Stargate pool ID",
          "_zorroChainId": "Zorro chain ID"
        }
      },
      "setZorroChainToLZMap(uint256,uint16)": {
        "params": {
          "_lzChainId": "LayerZero Chain ID",
          "_zorroChainId": "Zorro chain ID"
        }
      },
      "sgReceive(uint16,bytes,uint256,address,uint256,bytes)": {
        "details": "Implements IStargateReceiver interface"
      },
      "transferOwnership(address)": {
        "details": "Transfers ownership of the contract to a new account (`newOwner`). Can only be called by the current owner."
      }
    },
    "version": 1
  },
  "userdoc": {
    "kind": "user",
    "methods": {
      "checkXChainDepositFee(uint256,bytes,uint256,uint256,uint256,uint256,bytes)": {
        "notice": "Checks to see how much a cross chain deposit will cost"
      },
      "checkXChainDistributeEarningsFee(uint256,uint256,uint256,uint256)": {
        "notice": "Checks to see how much a cross chain earnings distribution will cost"
      },
      "checkXChainRepatriationFee(uint256,uint256,uint256,bytes,uint256)": {
        "notice": "Estimates fees for repatriation operation"
      },
      "checkXChainWithdrawalFee(uint256,uint256,uint256,uint256,uint256)": {
        "notice": "Checks to see how much a cross chain withdrawal will cost"
      },
      "extractParamsPayload(bytes)": {
        "notice": "Removes function signature from ABI encoded payload"
      },
      "initialize((address,address,address,address,address,address,address,address,(uint256,uint256,uint256[],bytes[],uint16[],uint256[],address,address,uint256),(address[],address[]),(address,address,address)))": {
        "notice": "Upgradeable constructor"
      },
      "receiveXChainDepositRequest(uint256,uint256,uint256,uint256,bytes,address)": {
        "notice": "Dummy func to allow .selector call above and guarantee typesafety for abi calls."
      },
      "receiveXChainDistributionRequest(uint256,uint256,uint256,uint256,uint256)": {
        "notice": "Dummy func to allow .selector call above and guarantee typesafety for abi calls."
      },
      "receiveXChainRepatriationRequest(uint256,uint256,uint256,bytes,uint256)": {
        "notice": "Dummy func to allow .selector call above and guarantee typesafety for abi calls."
      },
      "receiveXChainWithdrawalRequest(uint256,bytes,uint256,uint256,uint256)": {
        "notice": "Dummy func to allow .selector call above and guarantee typesafety for abi calls."
      },
      "sendXChainDepositRequest(uint256,uint256,uint256,uint256,uint256,bytes)": {
        "notice": "Prepares and sends a cross chain deposit request. Takes care of necessary financial ops (transfer/locking USD)"
      },
      "sendXChainDistributeEarningsRequest(uint256,uint256,uint256,uint256)": {
        "notice": "Sends a request back to the home chain to distribute earnings"
      },
      "sendXChainWithdrawalRequest(uint256,uint256,uint256,uint256,uint256)": {
        "notice": "Prepares and sends a cross chain withdrwal request."
      },
      "setControllerContract(uint256,bytes)": {
        "notice": "Setter: Controller contract for each chain"
      },
      "setLayerZeroParams(address,uint256,address)": {
        "notice": "Setter: Set main LZ params"
      },
      "setStargateDestPoolIds(uint256,uint16)": {
        "notice": "Setter: Stargate dest pool IDs for USD asset"
      },
      "setZorroChainToLZMap(uint256,uint16)": {
        "notice": "Setter: LZ/Stargate params"
      },
      "sgReceive(uint16,bytes,uint256,address,uint256,bytes)": {
        "notice": "Receives stargate cross-chain calls"
      }
    },
    "version": 1
  }
}