{
  "contractName": "MockBalancerVault",
  "abi": [
    {
      "anonymous": false,
      "inputs": [
        {
          "indexed": true,
          "internalType": "address",
          "name": "_dest",
          "type": "address"
        },
        {
          "indexed": true,
          "internalType": "uint256",
          "name": "amountIn",
          "type": "uint256"
        },
        {
          "indexed": true,
          "internalType": "uint256",
          "name": "minAmountOut",
          "type": "uint256"
        }
      ],
      "name": "SwappedToken",
      "type": "event"
    },
    {
      "inputs": [],
      "name": "burnAddress",
      "outputs": [
        {
          "internalType": "address",
          "name": "",
          "type": "address"
        }
      ],
      "stateMutability": "view",
      "type": "function"
    },
    {
      "inputs": [
        {
          "internalType": "address",
          "name": "_token",
          "type": "address"
        },
        {
          "internalType": "uint256",
          "name": "_amount",
          "type": "uint256"
        }
      ],
      "name": "setCash",
      "outputs": [],
      "stateMutability": "nonpayable",
      "type": "function"
    },
    {
      "inputs": [
        {
          "internalType": "address",
          "name": "_burn",
          "type": "address"
        }
      ],
      "name": "setBurnAddress",
      "outputs": [],
      "stateMutability": "nonpayable",
      "type": "function"
    },
    {
      "inputs": [
        {
          "components": [
            {
              "internalType": "bytes32",
              "name": "poolId",
              "type": "bytes32"
            },
            {
              "internalType": "enum SwapKind",
              "name": "kind",
              "type": "uint8"
            },
            {
              "internalType": "contract IAsset",
              "name": "assetIn",
              "type": "address"
            },
            {
              "internalType": "contract IAsset",
              "name": "assetOut",
              "type": "address"
            },
            {
              "internalType": "uint256",
              "name": "amount",
              "type": "uint256"
            },
            {
              "internalType": "bytes",
              "name": "userData",
              "type": "bytes"
            }
          ],
          "internalType": "struct SingleSwap",
          "name": "singleSwap",
          "type": "tuple"
        },
        {
          "components": [
            {
              "internalType": "address",
              "name": "sender",
              "type": "address"
            },
            {
              "internalType": "bool",
              "name": "fromInternalBalance",
              "type": "bool"
            },
            {
              "internalType": "address payable",
              "name": "recipient",
              "type": "address"
            },
            {
              "internalType": "bool",
              "name": "toInternalBalance",
              "type": "bool"
            }
          ],
          "internalType": "struct FundManagement",
          "name": "funds",
          "type": "tuple"
        },
        {
          "internalType": "uint256",
          "name": "limit",
          "type": "uint256"
        },
        {
          "internalType": "uint256",
          "name": "deadline",
          "type": "uint256"
        }
      ],
      "name": "swap",
      "outputs": [
        {
          "internalType": "uint256",
          "name": "amountCalculated",
          "type": "uint256"
        }
      ],
      "stateMutability": "payable",
      "type": "function"
    },
    {
      "inputs": [
        {
          "internalType": "bytes32",
          "name": "poolId",
          "type": "bytes32"
        },
        {
          "internalType": "contract IERC20",
          "name": "token",
          "type": "address"
        }
      ],
      "name": "getPoolTokenInfo",
      "outputs": [
        {
          "internalType": "uint256",
          "name": "cash",
          "type": "uint256"
        },
        {
          "internalType": "uint256",
          "name": "managed",
          "type": "uint256"
        },
        {
          "internalType": "uint256",
          "name": "blockNumber",
          "type": "uint256"
        },
        {
          "internalType": "address",
          "name": "assetManager",
          "type": "address"
        }
      ],
      "stateMutability": "nonpayable",
      "type": "function"
    },
    {
      "inputs": [
        {
          "internalType": "bytes32",
          "name": "poolId",
          "type": "bytes32"
        }
      ],
      "name": "getPoolTokens",
      "outputs": [
        {
          "internalType": "contract IERC20[]",
          "name": "tokens",
          "type": "address[]"
        },
        {
          "internalType": "uint256[]",
          "name": "balances",
          "type": "uint256[]"
        },
        {
          "internalType": "uint256",
          "name": "lastChangeBlock",
          "type": "uint256"
        }
      ],
      "stateMutability": "view",
      "type": "function"
    },
    {
      "inputs": [
        {
          "internalType": "bytes32",
          "name": "poolId",
          "type": "bytes32"
        },
        {
          "internalType": "address",
          "name": "sender",
          "type": "address"
        },
        {
          "internalType": "address",
          "name": "recipient",
          "type": "address"
        },
        {
          "components": [
            {
              "internalType": "contract IAsset[]",
              "name": "assets",
              "type": "address[]"
            },
            {
              "internalType": "uint256[]",
              "name": "maxAmountsIn",
              "type": "uint256[]"
            },
            {
              "internalType": "bytes",
              "name": "userData",
              "type": "bytes"
            },
            {
              "internalType": "bool",
              "name": "fromInternalBalance",
              "type": "bool"
            }
          ],
          "internalType": "struct JoinPoolRequest",
          "name": "request",
          "type": "tuple"
        }
      ],
      "name": "joinPool",
      "outputs": [],
      "stateMutability": "nonpayable",
      "type": "function"
    },
    {
      "inputs": [
        {
          "internalType": "bytes32",
          "name": "poolId",
          "type": "bytes32"
        },
        {
          "internalType": "address",
          "name": "sender",
          "type": "address"
        },
        {
          "internalType": "address payable",
          "name": "recipient",
          "type": "address"
        },
        {
          "components": [
            {
              "internalType": "contract IAsset[]",
              "name": "assets",
              "type": "address[]"
            },
            {
              "internalType": "uint256[]",
              "name": "minAmountsOut",
              "type": "uint256[]"
            },
            {
              "internalType": "bytes",
              "name": "userData",
              "type": "bytes"
            },
            {
              "internalType": "bool",
              "name": "toInternalBalance",
              "type": "bool"
            }
          ],
          "internalType": "struct ExitPoolRequest",
          "name": "request",
          "type": "tuple"
        }
      ],
      "name": "exitPool",
      "outputs": [],
      "stateMutability": "nonpayable",
      "type": "function"
    }
  ],
  "bytecode": "0x608060405234801561001057600080fd5b50610c0c806100206000396000f3fe60806040526004361061007b5760003560e01c8063b05f8e481161004e578063b05f8e481461013e578063b95cac281461011d578063ccdf2065146101aa578063f94d4668146101e157600080fd5b80634b0e72161461008057806352bbbe29146100bf57806370d5ae05146100e55780638bdb39131461011d575b600080fd5b34801561008c57600080fd5b506100bd61009b3660046105bb565b600180546001600160a01b0319166001600160a01b0392909216919091179055565b005b6100d26100cd36600461076c565b610216565b6040519081526020015b60405180910390f35b3480156100f157600080fd5b50600154610105906001600160a01b031681565b6040516001600160a01b0390911681526020016100dc565b34801561012957600080fd5b506100bd6101383660046109d0565b50505050565b34801561014a57600080fd5b50610181610159366004610a3c565b600060028190556001600160a01b039091168152602081905260408120549290915081908190565b604080519485526020850193909352918301526001600160a01b031660608201526080016100dc565b3480156101b657600080fd5b506100bd6101c5366004610a6c565b6001600160a01b03909116600090815260208190526040902055565b3480156101ed57600080fd5b506102076101fc366004610a98565b506060908190600090565b6040516100dc93929190610ab1565b600080821161022457600080fd5b6001546080860151604087015161024c926001600160a01b0391821692339290911690610301565b606085015160408086015190516340c10f1960e01b81526001600160a01b039182166004820152602481018690529116906340c10f1990604401600060405180830381600087803b1580156102a057600080fd5b505af11580156102b4573d6000803e3d6000fd5b5050505082856080015185604001516001600160a01b03167f18ae40116b9304bae046d506ea80406867bd9e5129486046650090b2f5032e2960405160405180910390a450909392505050565b604080516001600160a01b038581166024830152848116604483015260648083018590528351808403909101815260849092018352602080830180516001600160e01b03166323b872dd60e01b17905283518085019094528084527f5361666545524332303a206c6f772d6c6576656c2063616c6c206661696c65649084015261013892879291600091610399918516908490610420565b80519091501561041b57808060200190518101906103b79190610b3e565b61041b5760405162461bcd60e51b815260206004820152602a60248201527f5361666545524332303a204552433230206f7065726174696f6e20646964206e6044820152691bdd081cdd58d8d9595960b21b60648201526084015b60405180910390fd5b505050565b606061042f8484600085610439565b90505b9392505050565b60608247101561049a5760405162461bcd60e51b815260206004820152602660248201527f416464726573733a20696e73756666696369656e742062616c616e636520666f6044820152651c8818d85b1b60d21b6064820152608401610412565b6001600160a01b0385163b6104f15760405162461bcd60e51b815260206004820152601d60248201527f416464726573733a2063616c6c20746f206e6f6e2d636f6e74726163740000006044820152606401610412565b600080866001600160a01b0316858760405161050d9190610b87565b60006040518083038185875af1925050503d806000811461054a576040519150601f19603f3d011682016040523d82523d6000602084013e61054f565b606091505b509150915061055f82828661056a565b979650505050505050565b60608315610579575081610432565b8251156105895782518084602001fd5b8160405162461bcd60e51b81526004016104129190610ba3565b6001600160a01b03811681146105b857600080fd5b50565b6000602082840312156105cd57600080fd5b8135610432816105a3565b634e487b7160e01b600052604160045260246000fd5b6040516080810167ffffffffffffffff81118282101715610611576106116105d8565b60405290565b60405160c0810167ffffffffffffffff81118282101715610611576106116105d8565b604051601f8201601f1916810167ffffffffffffffff81118282101715610663576106636105d8565b604052919050565b8035610676816105a3565b919050565b600082601f83011261068c57600080fd5b813567ffffffffffffffff8111156106a6576106a66105d8565b6106b9601f8201601f191660200161063a565b8181528460208386010111156106ce57600080fd5b816020850160208301376000918101602001919091529392505050565b80151581146105b857600080fd5b8035610676816106eb565b60006080828403121561071657600080fd5b61071e6105ee565b9050813561072b816105a3565b8152602082013561073b816106eb565b6020820152604082013561074e816105a3565b60408201526060820135610761816106eb565b606082015292915050565b60008060008060e0858703121561078257600080fd5b843567ffffffffffffffff8082111561079a57600080fd5b9086019060c082890312156107ae57600080fd5b6107b6610617565b823581526020830135600281106107cc57600080fd5b60208201526107dd6040840161066b565b60408201526107ee6060840161066b565b60608201526080830135608082015260a08301358281111561080f57600080fd5b61081b8a82860161067b565b60a0830152508096505050506108348660208701610704565b939693955050505060a08201359160c0013590565b600067ffffffffffffffff821115610863576108636105d8565b5060051b60200190565b600082601f83011261087e57600080fd5b8135602061089361088e83610849565b61063a565b82815260059290921b840181019181810190868411156108b257600080fd5b8286015b848110156108cd57803583529183019183016108b6565b509695505050505050565b6000608082840312156108ea57600080fd5b6108f26105ee565b9050813567ffffffffffffffff8082111561090c57600080fd5b818401915084601f83011261092057600080fd5b8135602061093061088e83610849565b82815260059290921b8401810191818101908884111561094f57600080fd5b948201945b83861015610976578535610967816105a3565b82529482019490820190610954565b8652508581013593508284111561098c57600080fd5b6109988785880161086d565b908501525060408401359150808211156109b157600080fd5b506109be8482850161067b565b604083015250610761606083016106f9565b600080600080608085870312156109e657600080fd5b8435935060208501356109f8816105a3565b92506040850135610a08816105a3565b9150606085013567ffffffffffffffff811115610a2457600080fd5b610a30878288016108d8565b91505092959194509250565b60008060408385031215610a4f57600080fd5b823591506020830135610a61816105a3565b809150509250929050565b60008060408385031215610a7f57600080fd5b8235610a8a816105a3565b946020939093013593505050565b600060208284031215610aaa57600080fd5b5035919050565b606080825284519082018190526000906020906080840190828801845b82811015610af35781516001600160a01b031684529284019290840190600101610ace565b5050508381038285015285518082528683019183019060005b81811015610b2857835183529284019291840191600101610b0c565b5050809350505050826040830152949350505050565b600060208284031215610b5057600080fd5b8151610432816106eb565b60005b83811015610b76578181015183820152602001610b5e565b838111156101385750506000910152565b60008251610b99818460208701610b5b565b9190910192915050565b6020815260008251806020840152610bc2816040850160208701610b5b565b601f01601f1916919091016040019291505056fea2646970667358221220010f2ed86de8de59c84fe03be2260607030fa8d8e1677461765bb5b54abc55b264736f6c634300080a0033",
  "immutableReferences": {},
  "source": "// SPDX-License-Identifier: MIT\n\npragma solidity ^0.8.0;\n\nimport \"../SafeSwap.sol\";\n\nimport \"@openzeppelin/contracts-upgradeable/token/ERC20/utils/SafeERC20Upgradeable.sol\";\n\nimport \"../../tokens/mocks/MockToken.sol\";\n\n/// @title MockSafeSwapUni: Mock contract for testing the SafeSwapUni library\ncontract MockSafeSwapUni {\n    using SafeSwapUni for IAMMRouter02;\n    using SafeERC20Upgradeable for IERC20Upgradeable;\n\n    function safeSwap(\n        address _uniRouter,\n        uint256 _amountIn,\n        uint256[] memory _priceTokens,\n        uint256 _slippageFactor,\n        address[] memory _path,\n        uint8[] memory _decimals,\n        address _to,\n        uint256 _deadline\n    ) public {\n        // Give permission\n        IERC20Upgradeable(_path[0]).safeIncreaseAllowance(\n            _uniRouter,\n            _amountIn\n        );\n        // Swap\n        IAMMRouter02(_uniRouter).safeSwap(\n            _amountIn,\n            _priceTokens,\n            _slippageFactor,\n            _path,\n            _decimals,\n            _to,\n            _deadline\n        );\n    }\n}\n\n/// @title MockAMMRouter02: Mock contract for the IAMMRouter02 library\ncontract MockAMMRouter02 is IAMMRouter02, MockERC20Upgradeable {\n    using SafeERC20Upgradeable for IERC20Upgradeable;\n\n    address public burnAddress;\n    address public poolAddress;\n    uint256 private _dummy; // Used to satisfy state mutability compiler warnings on Mock contracts\n\n    function setBurnAddress(address _burnAddress) public {\n        burnAddress = _burnAddress;\n    }\n\n    function setPoolAddress(address _poolAddress) public {\n        poolAddress = _poolAddress;\n    }\n\n    event SwappedToken(\n        address indexed _dest,\n        uint256 indexed _amountIn,\n        uint256 indexed _amountOutMin\n    );\n\n    event AddedLiquidity(\n        uint256 indexed _amountA,\n        uint256 indexed _amountB,\n        uint256 indexed _liquidity\n    );\n\n    event RemovedLiquidity(uint256 indexed _amountA, uint256 indexed _amountB);\n\n    function factory() external pure returns (address) {\n        return address(0);\n    }\n\n    function WETH() external pure returns (address) {\n        return address(0);\n    }\n\n    function addLiquidity(\n        address tokenA,\n        address tokenB,\n        uint256 amountADesired,\n        uint256 amountBDesired,\n        uint256 amountAMin,\n        uint256 amountBMin,\n        address to,\n        uint256 deadline\n    )\n        external\n        returns (\n            uint256 amountA,\n            uint256 amountB,\n            uint256 liquidity\n        )\n    {\n        // Requirements\n        require(amountAMin >= 0 && amountBMin >= 0 && deadline > 0);\n\n        // Vars\n        amountA = amountADesired;\n        amountB = amountBDesired;\n        // Safe transfer from\n        IERC20Upgradeable(tokenA).safeTransferFrom(\n            msg.sender,\n            address(this),\n            amountA\n        );\n        IERC20Upgradeable(tokenB).safeTransferFrom(\n            msg.sender,\n            address(this),\n            amountB\n        );\n\n        // Mint LP token (just 1 token for simplicity)\n        liquidity = 1 ether;\n        IMockERC20Upgradeable(address(this)).mint(to, liquidity);\n\n        // Emit event\n        emit AddedLiquidity(amountA, amountB, liquidity);\n    }\n\n    function addLiquidityETH(\n        address token,\n        uint256 amountTokenDesired,\n        uint256 amountTokenMin,\n        uint256 amountETHMin,\n        address to,\n        uint256 deadline\n    )\n        external\n        payable\n        returns (\n            uint256 amountToken,\n            uint256 amountETH,\n            uint256 liquidity\n        )\n    {}\n\n    function removeLiquidity(\n        address tokenA,\n        address tokenB,\n        uint256 liquidity,\n        uint256 amountAMin,\n        uint256 amountBMin,\n        address to,\n        uint256 deadline\n    ) external returns (uint256 amountA, uint256 amountB) {\n        // Requirements\n        require(deadline > 0);\n\n        // Vars\n        amountA = amountAMin;\n        amountB = amountBMin;\n\n        // Safe transfer liquidity & burn\n        IERC20Upgradeable(poolAddress).safeTransferFrom(\n            msg.sender,\n            burnAddress,\n            liquidity\n        );\n\n        // Mint tokens 0, 1\n        IMockERC20Upgradeable(tokenA).mint(to, amountA);\n        IMockERC20Upgradeable(tokenB).mint(to, amountB);\n\n        // Emit event\n        emit RemovedLiquidity(amountA, amountB);\n    }\n\n    function removeLiquidityETH(\n        address token,\n        uint256 liquidity,\n        uint256 amountTokenMin,\n        uint256 amountETHMin,\n        address to,\n        uint256 deadline\n    ) external returns (uint256 amountToken, uint256 amountETH) {}\n\n    function removeLiquidityWithPermit(\n        address tokenA,\n        address tokenB,\n        uint256 liquidity,\n        uint256 amountAMin,\n        uint256 amountBMin,\n        address to,\n        uint256 deadline,\n        bool approveMax,\n        uint8 v,\n        bytes32 r,\n        bytes32 s\n    ) external returns (uint256 amountA, uint256 amountB) {}\n\n    function removeLiquidityETHWithPermit(\n        address token,\n        uint256 liquidity,\n        uint256 amountTokenMin,\n        uint256 amountETHMin,\n        address to,\n        uint256 deadline,\n        bool approveMax,\n        uint8 v,\n        bytes32 r,\n        bytes32 s\n    ) external returns (uint256 amountToken, uint256 amountETH) {}\n\n    function swapExactTokensForTokens(\n        uint256 amountIn,\n        uint256 amountOutMin,\n        address[] calldata path,\n        address to,\n        uint256 deadline\n    ) external returns (uint256[] memory amounts) {\n        return\n            _mockSwapExactTokensForTokens(\n                amountIn,\n                amountOutMin,\n                path,\n                to,\n                deadline\n            );\n    }\n\n    function _mockSwapExactTokensForTokens(\n        uint256 amountIn,\n        uint256 amountOutMin,\n        address[] calldata path,\n        address to,\n        uint256 deadline\n    ) internal returns (uint256[] memory amounts) {\n        // Reqs\n        require(deadline > 0);\n\n        // Vars\n        address _tokenIn = path[0];\n        address _tokenOut = path[path.length - 1];\n\n        // Burn token IN\n        IERC20Upgradeable(_tokenIn).safeTransferFrom(\n            msg.sender,\n            burnAddress,\n            amountIn\n        );\n\n        // Mint token OUT -> to\n        IMockERC20Upgradeable(_tokenOut).mint(to, amountOutMin);\n\n        // Return\n        uint256[] memory _amounts = new uint256[](2);\n        _amounts[0] = amountIn;\n        _amounts[1] = amountOutMin;\n        amounts = _amounts;\n\n        emit SwappedToken(msg.sender, amountIn, amountOutMin);\n    }\n\n    function swapTokensForExactTokens(\n        uint256 amountOut,\n        uint256 amountInMax,\n        address[] calldata path,\n        address to,\n        uint256 deadline\n    ) external returns (uint256[] memory amounts) {}\n\n    function swapExactETHForTokens(\n        uint256 amountOutMin,\n        address[] calldata path,\n        address to,\n        uint256 deadline\n    ) external payable returns (uint256[] memory amounts) {}\n\n    function swapTokensForExactETH(\n        uint256 amountOut,\n        uint256 amountInMax,\n        address[] calldata path,\n        address to,\n        uint256 deadline\n    ) external returns (uint256[] memory amounts) {}\n\n    function swapExactTokensForETH(\n        uint256 amountIn,\n        uint256 amountOutMin,\n        address[] calldata path,\n        address to,\n        uint256 deadline\n    ) external returns (uint256[] memory amounts) {}\n\n    function swapETHForExactTokens(\n        uint256 amountOut,\n        address[] calldata path,\n        address to,\n        uint256 deadline\n    ) external payable returns (uint256[] memory amounts) {}\n\n    function quote(\n        uint256 amountA,\n        uint256 reserveA,\n        uint256 reserveB\n    ) external pure returns (uint256 amountB) {}\n\n    function getAmountOut(\n        uint256 amountIn,\n        uint256 reserveIn,\n        uint256 reserveOut\n    ) external pure returns (uint256 amountOut) {\n        // Reqs\n        require(reserveIn >= 0 && reserveOut >= 0);\n\n        return amountIn;\n    }\n\n    function getAmountIn(\n        uint256 amountOut,\n        uint256 reserveIn,\n        uint256 reserveOut\n    ) external pure returns (uint256 amountIn) {}\n\n    function getAmountsOut(uint256 amountIn, address[] calldata path)\n        external\n        view\n        returns (uint256[] memory amounts)\n    {\n        // Reqs, satisfy compiler state mutability errors\n        require(path.length > 0 && _dummy >= 0);\n\n        uint256[] memory _amounts = new uint256[](1);\n        _amounts[0] = amountIn;\n        return _amounts;\n    }\n\n    function getAmountsIn(uint256 amountOut, address[] calldata path)\n        external\n        view\n        returns (uint256[] memory amounts)\n    {}\n\n    function removeLiquidityETHSupportingFeeOnTransferTokens(\n        address token,\n        uint256 liquidity,\n        uint256 amountTokenMin,\n        uint256 amountETHMin,\n        address to,\n        uint256 deadline\n    ) external returns (uint256 amountETH) {}\n\n    function removeLiquidityETHWithPermitSupportingFeeOnTransferTokens(\n        address token,\n        uint256 liquidity,\n        uint256 amountTokenMin,\n        uint256 amountETHMin,\n        address to,\n        uint256 deadline,\n        bool approveMax,\n        uint8 v,\n        bytes32 r,\n        bytes32 s\n    ) external returns (uint256 amountETH) {}\n\n    function swapExactTokensForTokensSupportingFeeOnTransferTokens(\n        uint256 amountIn,\n        uint256 amountOutMin,\n        address[] calldata path,\n        address to,\n        uint256 deadline\n    ) external {\n        _mockSwapExactTokensForTokens(\n            amountIn,\n            amountOutMin,\n            path,\n            to,\n            deadline\n        );\n    }\n\n    function swapExactETHForTokensSupportingFeeOnTransferTokens(\n        uint256 amountOutMin,\n        address[] calldata path,\n        address to,\n        uint256 deadline\n    ) external payable {}\n\n    function swapExactTokensForETHSupportingFeeOnTransferTokens(\n        uint256 amountIn,\n        uint256 amountOutMin,\n        address[] calldata path,\n        address to,\n        uint256 deadline\n    ) external {}\n}\n\n/// @title MockSafeSwapBalancer: Mock contract for testing the SafeSwapBalancer library\ncontract MockSafeSwapBalancer {\n    using SafeSwapBalancer for IBalancerVault;\n    using SafeERC20Upgradeable for IERC20Upgradeable;\n\n    function safeSwap(\n        address _balancerVault,\n        bytes32 _poolId,\n        SafeSwapParams memory _swapParams,\n        uint8[] memory _decimals\n    ) public {\n        IERC20Upgradeable(_swapParams.token0).safeIncreaseAllowance(\n            _balancerVault,\n            _swapParams.amountIn\n        );\n        IBalancerVault(_balancerVault).safeSwap(_poolId, _swapParams, _decimals);\n    }\n}\n\n/// @title MockBalancerVault: Mock contract for the IBalancerVault library\ncontract MockBalancerVault is IBalancerVault {\n    using SafeERC20Upgradeable for IERC20Upgradeable;\n\n    event SwappedToken(\n        address indexed _dest,\n        uint256 indexed amountIn,\n        uint256 indexed minAmountOut\n    );\n\n    mapping(address => uint256) internal _cash;\n    address public burnAddress;\n    uint256 private _dummy; // For compiler state mutability satisfaction\n\n    function setCash(address _token, uint256 _amount) public {\n        _cash[_token] = _amount;\n    }\n\n    function setBurnAddress(address _burn) public {\n        burnAddress = _burn;\n    }\n\n    function swap(\n        SingleSwap memory singleSwap,\n        FundManagement memory funds,\n        uint256 limit,\n        uint256 deadline\n    ) external payable returns (uint256 amountCalculated) {\n        // Reqs\n        require(deadline > 0);\n\n        // Burn token IN\n        IERC20Upgradeable(address(singleSwap.assetIn)).safeTransferFrom(\n            msg.sender,\n            burnAddress,\n            singleSwap.amount\n        );\n\n        // Mint token OUT -> to\n        IMockERC20Upgradeable(address(singleSwap.assetOut)).mint(\n            funds.recipient,\n            limit\n        );\n\n        // Event\n        emit SwappedToken(funds.recipient, singleSwap.amount, limit);\n\n        // Return\n        amountCalculated = limit;\n    }\n\n    function getPoolTokenInfo(bytes32 poolId, IERC20 token)\n        external\n        returns (\n            uint256 cash,\n            uint256 managed,\n            uint256 blockNumber,\n            address assetManager\n        )\n    {\n        // Reqs\n        // require(abi.encode(poolId).length >= 0); // Satisfy unused variable warning\n        // require(managed >= 0 && blockNumber > 0 && assetManager != address(0));\n        _dummy = 0;\n\n        cash = _cash[address(token)];\n    }\n\n    function getPoolTokens(bytes32 poolId)\n        external\n        view\n        returns (\n            IERC20[] memory tokens,\n            uint256[] memory balances,\n            uint256 lastChangeBlock\n        )\n    {}\n\n    function joinPool(\n        bytes32 poolId,\n        address sender,\n        address recipient,\n        JoinPoolRequest memory request\n    ) external {}\n\n    function exitPool(\n        bytes32 poolId,\n        address sender,\n        address payable recipient,\n        ExitPoolRequest memory request\n    ) external {}\n}\n",
  "sourcePath": "/Users/kristophm/Documents/workspace/zorro-protocol/contracts/libraries/mocks/MockSafeSwap.sol",
  "compiler": {
    "name": "solc",
    "version": "0.8.10+commit.fc410830.Emscripten.clang"
  },
  "schemaVersion": "3.4.4",
  "updatedAt": "2022-09-22T12:16:39.093Z",
  "networkType": "ethereum",
  "devdoc": {
    "kind": "dev",
    "methods": {},
    "title": "MockBalancerVault: Mock contract for the IBalancerVault library",
    "version": 1
  },
  "userdoc": {
    "kind": "user",
    "methods": {},
    "version": 1
  }
}