{
  "contractName": "MockInvestmentVault1",
  "abi": [
    {
      "anonymous": false,
      "inputs": [
        {
          "indexed": true,
          "internalType": "uint256",
          "name": "_amount",
          "type": "uint256"
        }
      ],
      "name": "Buyback",
      "type": "event"
    },
    {
      "anonymous": false,
      "inputs": [
        {
          "indexed": true,
          "internalType": "uint256",
          "name": "_wantAmt",
          "type": "uint256"
        }
      ],
      "name": "DepositedWant",
      "type": "event"
    },
    {
      "anonymous": false,
      "inputs": [
        {
          "indexed": true,
          "internalType": "uint256",
          "name": "_amountUSD",
          "type": "uint256"
        },
        {
          "indexed": true,
          "internalType": "uint256",
          "name": "_amountWant",
          "type": "uint256"
        }
      ],
      "name": "ExchangedUSDForWant",
      "type": "event"
    },
    {
      "anonymous": false,
      "inputs": [
        {
          "indexed": true,
          "internalType": "uint256",
          "name": "_amountWant",
          "type": "uint256"
        },
        {
          "indexed": true,
          "internalType": "uint256",
          "name": "_amountUSD",
          "type": "uint256"
        }
      ],
      "name": "ExchangedWantForUSD",
      "type": "event"
    },
    {
      "anonymous": false,
      "inputs": [
        {
          "indexed": true,
          "internalType": "address",
          "name": "previousOwner",
          "type": "address"
        },
        {
          "indexed": true,
          "internalType": "address",
          "name": "newOwner",
          "type": "address"
        }
      ],
      "name": "OwnershipTransferred",
      "type": "event"
    },
    {
      "anonymous": false,
      "inputs": [
        {
          "indexed": false,
          "internalType": "address",
          "name": "account",
          "type": "address"
        }
      ],
      "name": "Paused",
      "type": "event"
    },
    {
      "anonymous": false,
      "inputs": [
        {
          "indexed": true,
          "internalType": "uint256",
          "name": "_amount",
          "type": "uint256"
        }
      ],
      "name": "RevShare",
      "type": "event"
    },
    {
      "anonymous": false,
      "inputs": [
        {
          "indexed": false,
          "internalType": "address",
          "name": "_govAddress",
          "type": "address"
        }
      ],
      "name": "SetGov",
      "type": "event"
    },
    {
      "anonymous": false,
      "inputs": [
        {
          "indexed": false,
          "internalType": "bool",
          "name": "_onlyGov",
          "type": "bool"
        }
      ],
      "name": "SetOnlyGov",
      "type": "event"
    },
    {
      "anonymous": false,
      "inputs": [
        {
          "indexed": false,
          "internalType": "address",
          "name": "_rewardsAddress",
          "type": "address"
        }
      ],
      "name": "SetRewardsAddress",
      "type": "event"
    },
    {
      "anonymous": false,
      "inputs": [
        {
          "indexed": false,
          "internalType": "uint256",
          "name": "_entranceFeeFactor",
          "type": "uint256"
        },
        {
          "indexed": false,
          "internalType": "uint256",
          "name": "_withdrawFeeFactor",
          "type": "uint256"
        },
        {
          "indexed": false,
          "internalType": "uint256",
          "name": "_controllerFee",
          "type": "uint256"
        },
        {
          "indexed": false,
          "internalType": "uint256",
          "name": "_buyBackRate",
          "type": "uint256"
        },
        {
          "indexed": false,
          "internalType": "uint256",
          "name": "_revShareRate",
          "type": "uint256"
        }
      ],
      "name": "SetSettings",
      "type": "event"
    },
    {
      "anonymous": false,
      "inputs": [
        {
          "indexed": false,
          "internalType": "address",
          "name": "_uniRouterAddress",
          "type": "address"
        }
      ],
      "name": "SetUniRouterAddress",
      "type": "event"
    },
    {
      "anonymous": false,
      "inputs": [
        {
          "indexed": false,
          "internalType": "address",
          "name": "account",
          "type": "address"
        }
      ],
      "name": "Unpaused",
      "type": "event"
    },
    {
      "anonymous": false,
      "inputs": [
        {
          "indexed": true,
          "internalType": "uint256",
          "name": "_wantAmt",
          "type": "uint256"
        }
      ],
      "name": "WithdrewWant",
      "type": "event"
    },
    {
      "inputs": [],
      "name": "ZORROAddress",
      "outputs": [
        {
          "internalType": "address",
          "name": "",
          "type": "address"
        }
      ],
      "stateMutability": "view",
      "type": "function"
    },
    {
      "inputs": [],
      "name": "burnAddress",
      "outputs": [
        {
          "internalType": "address",
          "name": "",
          "type": "address"
        }
      ],
      "stateMutability": "view",
      "type": "function"
    },
    {
      "inputs": [],
      "name": "buyBackRate",
      "outputs": [
        {
          "internalType": "uint256",
          "name": "",
          "type": "uint256"
        }
      ],
      "stateMutability": "view",
      "type": "function"
    },
    {
      "inputs": [],
      "name": "buyBackRateUL",
      "outputs": [
        {
          "internalType": "uint256",
          "name": "",
          "type": "uint256"
        }
      ],
      "stateMutability": "view",
      "type": "function"
    },
    {
      "inputs": [],
      "name": "controllerFee",
      "outputs": [
        {
          "internalType": "uint256",
          "name": "",
          "type": "uint256"
        }
      ],
      "stateMutability": "view",
      "type": "function"
    },
    {
      "inputs": [],
      "name": "controllerFeeUL",
      "outputs": [
        {
          "internalType": "uint256",
          "name": "",
          "type": "uint256"
        }
      ],
      "stateMutability": "view",
      "type": "function"
    },
    {
      "inputs": [],
      "name": "defaultStablecoin",
      "outputs": [
        {
          "internalType": "address",
          "name": "",
          "type": "address"
        }
      ],
      "stateMutability": "view",
      "type": "function"
    },
    {
      "inputs": [
        {
          "internalType": "uint256",
          "name": "_wantAmt",
          "type": "uint256"
        }
      ],
      "name": "depositWantToken",
      "outputs": [
        {
          "internalType": "uint256",
          "name": "sharesAdded",
          "type": "uint256"
        }
      ],
      "stateMutability": "nonpayable",
      "type": "function"
    },
    {
      "inputs": [
        {
          "internalType": "uint256",
          "name": "_maxMarketMovementAllowed",
          "type": "uint256"
        }
      ],
      "name": "earn",
      "outputs": [],
      "stateMutability": "nonpayable",
      "type": "function"
    },
    {
      "inputs": [],
      "name": "earnedAddress",
      "outputs": [
        {
          "internalType": "address",
          "name": "",
          "type": "address"
        }
      ],
      "stateMutability": "view",
      "type": "function"
    },
    {
      "inputs": [],
      "name": "entranceFeeFactor",
      "outputs": [
        {
          "internalType": "uint256",
          "name": "",
          "type": "uint256"
        }
      ],
      "stateMutability": "view",
      "type": "function"
    },
    {
      "inputs": [],
      "name": "entranceFeeFactorLL",
      "outputs": [
        {
          "internalType": "uint256",
          "name": "",
          "type": "uint256"
        }
      ],
      "stateMutability": "view",
      "type": "function"
    },
    {
      "inputs": [
        {
          "internalType": "uint256",
          "name": "_amountUSD",
          "type": "uint256"
        },
        {
          "internalType": "uint256",
          "name": "_maxMarketMovementAllowed",
          "type": "uint256"
        }
      ],
      "name": "exchangeUSDForWantToken",
      "outputs": [
        {
          "internalType": "uint256",
          "name": "",
          "type": "uint256"
        }
      ],
      "stateMutability": "nonpayable",
      "type": "function"
    },
    {
      "inputs": [
        {
          "internalType": "uint256",
          "name": "_amount",
          "type": "uint256"
        },
        {
          "internalType": "uint256",
          "name": "_maxMarketMovementAllowed",
          "type": "uint256"
        }
      ],
      "name": "exchangeWantTokenForUSD",
      "outputs": [
        {
          "internalType": "uint256",
          "name": "",
          "type": "uint256"
        }
      ],
      "stateMutability": "nonpayable",
      "type": "function"
    },
    {
      "inputs": [],
      "name": "farm",
      "outputs": [],
      "stateMutability": "nonpayable",
      "type": "function"
    },
    {
      "inputs": [],
      "name": "farmContractAddress",
      "outputs": [
        {
          "internalType": "address",
          "name": "",
          "type": "address"
        }
      ],
      "stateMutability": "view",
      "type": "function"
    },
    {
      "inputs": [],
      "name": "feeDenominator",
      "outputs": [
        {
          "internalType": "uint256",
          "name": "",
          "type": "uint256"
        }
      ],
      "stateMutability": "view",
      "type": "function"
    },
    {
      "inputs": [],
      "name": "govAddress",
      "outputs": [
        {
          "internalType": "address",
          "name": "",
          "type": "address"
        }
      ],
      "stateMutability": "view",
      "type": "function"
    },
    {
      "inputs": [
        {
          "internalType": "address",
          "name": "_token",
          "type": "address"
        },
        {
          "internalType": "uint256",
          "name": "_amount",
          "type": "uint256"
        },
        {
          "internalType": "address",
          "name": "_to",
          "type": "address"
        }
      ],
      "name": "inCaseTokensGetStuck",
      "outputs": [],
      "stateMutability": "nonpayable",
      "type": "function"
    },
    {
      "inputs": [
        {
          "internalType": "address",
          "name": "_timelockOwner",
          "type": "address"
        }
      ],
      "name": "initialize",
      "outputs": [],
      "stateMutability": "nonpayable",
      "type": "function"
    },
    {
      "inputs": [],
      "name": "isFarmable",
      "outputs": [
        {
          "internalType": "bool",
          "name": "",
          "type": "bool"
        }
      ],
      "stateMutability": "view",
      "type": "function"
    },
    {
      "inputs": [],
      "name": "isHomeChain",
      "outputs": [
        {
          "internalType": "bool",
          "name": "",
          "type": "bool"
        }
      ],
      "stateMutability": "view",
      "type": "function"
    },
    {
      "inputs": [],
      "name": "lastEarnBlock",
      "outputs": [
        {
          "internalType": "uint256",
          "name": "",
          "type": "uint256"
        }
      ],
      "stateMutability": "view",
      "type": "function"
    },
    {
      "inputs": [],
      "name": "maxMarketMovementAllowed",
      "outputs": [
        {
          "internalType": "uint256",
          "name": "",
          "type": "uint256"
        }
      ],
      "stateMutability": "view",
      "type": "function"
    },
    {
      "inputs": [],
      "name": "onlyGov",
      "outputs": [
        {
          "internalType": "bool",
          "name": "",
          "type": "bool"
        }
      ],
      "stateMutability": "view",
      "type": "function"
    },
    {
      "inputs": [],
      "name": "owner",
      "outputs": [
        {
          "internalType": "address",
          "name": "",
          "type": "address"
        }
      ],
      "stateMutability": "view",
      "type": "function"
    },
    {
      "inputs": [],
      "name": "pause",
      "outputs": [],
      "stateMutability": "nonpayable",
      "type": "function"
    },
    {
      "inputs": [],
      "name": "paused",
      "outputs": [
        {
          "internalType": "bool",
          "name": "",
          "type": "bool"
        }
      ],
      "stateMutability": "view",
      "type": "function"
    },
    {
      "inputs": [],
      "name": "pid",
      "outputs": [
        {
          "internalType": "uint256",
          "name": "",
          "type": "uint256"
        }
      ],
      "stateMutability": "view",
      "type": "function"
    },
    {
      "inputs": [],
      "name": "poolAddress",
      "outputs": [
        {
          "internalType": "address",
          "name": "",
          "type": "address"
        }
      ],
      "stateMutability": "view",
      "type": "function"
    },
    {
      "inputs": [
        {
          "internalType": "address",
          "name": "",
          "type": "address"
        }
      ],
      "name": "priceFeeds",
      "outputs": [
        {
          "internalType": "contract AggregatorV3Interface",
          "name": "",
          "type": "address"
        }
      ],
      "stateMutability": "view",
      "type": "function"
    },
    {
      "inputs": [],
      "name": "renounceOwnership",
      "outputs": [],
      "stateMutability": "nonpayable",
      "type": "function"
    },
    {
      "inputs": [],
      "name": "revShareRate",
      "outputs": [
        {
          "internalType": "uint256",
          "name": "",
          "type": "uint256"
        }
      ],
      "stateMutability": "view",
      "type": "function"
    },
    {
      "inputs": [],
      "name": "revShareRateUL",
      "outputs": [
        {
          "internalType": "uint256",
          "name": "",
          "type": "uint256"
        }
      ],
      "stateMutability": "view",
      "type": "function"
    },
    {
      "inputs": [],
      "name": "rewardsAddress",
      "outputs": [
        {
          "internalType": "address",
          "name": "",
          "type": "address"
        }
      ],
      "stateMutability": "view",
      "type": "function"
    },
    {
      "inputs": [
        {
          "internalType": "uint16",
          "name": "_index",
          "type": "uint16"
        },
        {
          "internalType": "address",
          "name": "_addr",
          "type": "address"
        }
      ],
      "name": "setContractAddress",
      "outputs": [],
      "stateMutability": "nonpayable",
      "type": "function"
    },
    {
      "inputs": [
        {
          "internalType": "uint256",
          "name": "_entranceFeeFactor",
          "type": "uint256"
        },
        {
          "internalType": "uint256",
          "name": "_withdrawFeeFactor",
          "type": "uint256"
        },
        {
          "internalType": "uint256",
          "name": "_controllerFee",
          "type": "uint256"
        },
        {
          "internalType": "uint256",
          "name": "_buyBackRate",
          "type": "uint256"
        },
        {
          "internalType": "uint256",
          "name": "_revShareRate",
          "type": "uint256"
        }
      ],
      "name": "setFeeSettings",
      "outputs": [],
      "stateMutability": "nonpayable",
      "type": "function"
    },
    {
      "inputs": [
        {
          "internalType": "address",
          "name": "_govAddress",
          "type": "address"
        }
      ],
      "name": "setGov",
      "outputs": [],
      "stateMutability": "nonpayable",
      "type": "function"
    },
    {
      "inputs": [
        {
          "internalType": "bool",
          "name": "_isFarmable",
          "type": "bool"
        }
      ],
      "name": "setIsFarmable",
      "outputs": [],
      "stateMutability": "nonpayable",
      "type": "function"
    },
    {
      "inputs": [
        {
          "internalType": "uint256",
          "name": "_slippageNumerator",
          "type": "uint256"
        }
      ],
      "name": "setMaxMarketMovementAllowed",
      "outputs": [],
      "stateMutability": "nonpayable",
      "type": "function"
    },
    {
      "inputs": [
        {
          "internalType": "bool",
          "name": "_onlyGov",
          "type": "bool"
        }
      ],
      "name": "setOnlyGov",
      "outputs": [],
      "stateMutability": "nonpayable",
      "type": "function"
    },
    {
      "inputs": [
        {
          "internalType": "uint256",
          "name": "_pid",
          "type": "uint256"
        }
      ],
      "name": "setPid",
      "outputs": [],
      "stateMutability": "nonpayable",
      "type": "function"
    },
    {
      "inputs": [
        {
          "internalType": "address",
          "name": "_token",
          "type": "address"
        },
        {
          "internalType": "address",
          "name": "_priceFeedAddress",
          "type": "address"
        }
      ],
      "name": "setPriceFeed",
      "outputs": [],
      "stateMutability": "nonpayable",
      "type": "function"
    },
    {
      "inputs": [
        {
          "internalType": "address[]",
          "name": "_path",
          "type": "address[]"
        }
      ],
      "name": "setSwapPaths",
      "outputs": [],
      "stateMutability": "nonpayable",
      "type": "function"
    },
    {
      "inputs": [],
      "name": "sharesTotal",
      "outputs": [
        {
          "internalType": "uint256",
          "name": "",
          "type": "uint256"
        }
      ],
      "stateMutability": "view",
      "type": "function"
    },
    {
      "inputs": [
        {
          "internalType": "address",
          "name": "",
          "type": "address"
        },
        {
          "internalType": "address",
          "name": "",
          "type": "address"
        }
      ],
      "name": "swapPathLength",
      "outputs": [
        {
          "internalType": "uint16",
          "name": "",
          "type": "uint16"
        }
      ],
      "stateMutability": "view",
      "type": "function"
    },
    {
      "inputs": [
        {
          "internalType": "address",
          "name": "",
          "type": "address"
        },
        {
          "internalType": "address",
          "name": "",
          "type": "address"
        },
        {
          "internalType": "uint256",
          "name": "",
          "type": "uint256"
        }
      ],
      "name": "swapPaths",
      "outputs": [
        {
          "internalType": "address",
          "name": "",
          "type": "address"
        }
      ],
      "stateMutability": "view",
      "type": "function"
    },
    {
      "inputs": [],
      "name": "token0Address",
      "outputs": [
        {
          "internalType": "address",
          "name": "",
          "type": "address"
        }
      ],
      "stateMutability": "view",
      "type": "function"
    },
    {
      "inputs": [],
      "name": "token1Address",
      "outputs": [
        {
          "internalType": "address",
          "name": "",
          "type": "address"
        }
      ],
      "stateMutability": "view",
      "type": "function"
    },
    {
      "inputs": [
        {
          "internalType": "address",
          "name": "newOwner",
          "type": "address"
        }
      ],
      "name": "transferOwnership",
      "outputs": [],
      "stateMutability": "nonpayable",
      "type": "function"
    },
    {
      "inputs": [],
      "name": "unpause",
      "outputs": [],
      "stateMutability": "nonpayable",
      "type": "function"
    },
    {
      "inputs": [],
      "name": "vaultActions",
      "outputs": [
        {
          "internalType": "address",
          "name": "",
          "type": "address"
        }
      ],
      "stateMutability": "view",
      "type": "function"
    },
    {
      "inputs": [],
      "name": "wantAddress",
      "outputs": [
        {
          "internalType": "address",
          "name": "",
          "type": "address"
        }
      ],
      "stateMutability": "view",
      "type": "function"
    },
    {
      "inputs": [],
      "name": "wantLockedTotal",
      "outputs": [
        {
          "internalType": "uint256",
          "name": "",
          "type": "uint256"
        }
      ],
      "stateMutability": "view",
      "type": "function"
    },
    {
      "inputs": [],
      "name": "withdrawFeeFactor",
      "outputs": [
        {
          "internalType": "uint256",
          "name": "",
          "type": "uint256"
        }
      ],
      "stateMutability": "view",
      "type": "function"
    },
    {
      "inputs": [],
      "name": "withdrawFeeFactorLL",
      "outputs": [
        {
          "internalType": "uint256",
          "name": "",
          "type": "uint256"
        }
      ],
      "stateMutability": "view",
      "type": "function"
    },
    {
      "inputs": [
        {
          "internalType": "uint256",
          "name": "_wantAmt",
          "type": "uint256"
        }
      ],
      "name": "withdrawWantToken",
      "outputs": [
        {
          "internalType": "uint256",
          "name": "sharesRemoved",
          "type": "uint256"
        }
      ],
      "stateMutability": "nonpayable",
      "type": "function"
    },
    {
      "inputs": [],
      "name": "zorroControllerAddress",
      "outputs": [
        {
          "internalType": "address",
          "name": "",
          "type": "address"
        }
      ],
      "stateMutability": "view",
      "type": "function"
    },
    {
      "inputs": [],
      "name": "zorroLPPool",
      "outputs": [
        {
          "internalType": "address",
          "name": "",
          "type": "address"
        }
      ],
      "stateMutability": "view",
      "type": "function"
    },
    {
      "inputs": [],
      "name": "zorroLPPoolOtherToken",
      "outputs": [
        {
          "internalType": "address",
          "name": "",
          "type": "address"
        }
      ],
      "stateMutability": "view",
      "type": "function"
    },
    {
      "inputs": [],
      "name": "zorroStakingVault",
      "outputs": [
        {
          "internalType": "address",
          "name": "",
          "type": "address"
        }
      ],
      "stateMutability": "view",
      "type": "function"
    },
    {
      "inputs": [],
      "name": "zorroXChainController",
      "outputs": [
        {
          "internalType": "address",
          "name": "",
          "type": "address"
        }
      ],
      "stateMutability": "view",
      "type": "function"
    }
  ],
  "bytecode": "0x608060405234801561001057600080fd5b50612591806100206000396000f3fe608060405234801561001057600080fd5b50600436106103d7576000357c010000000000000000000000000000000000000000000000000000000090048063715018a611610211578063b61bb80a11610137578063e7198474116100ca578063f05c09b311610099578063f05c09b3146107cd578063f1068454146107da578063f2fde38b146107e3578063f5046a29146107f657600080fd5b8063e719847414610787578063e7a036791461079a578063ebfba7c4146107ad578063edf5e585146107c057600080fd5b8063cfad57a211610106578063cfad57a21461073d578063d7cb416f14610750578063e502a88d14610763578063e65a01171461077657600080fd5b8063b61bb80a14610704578063c0973eed14610717578063c302a4d014610688578063c4d66de81461072a57600080fd5b806385f02dd6116101af5780639fc33a9f1161017e5780639fc33a9f146106cb578063a4d2b083146106de578063b1414dbb146106f1578063b3545c01146103dc57600080fd5b806385f02dd61461067f578063866b2018146106885780638da5cb5b146106915780639dcb511a146106a257600080fd5b80637bf604d8116101eb5780637bf604d81461063e5780637ff36fbe1461065157806383f01939146106645780638456cb591461067757600080fd5b8063715018a6146106105780637153ef861461061857806376e112861461062b57600080fd5b8063320d47cc116103015780635c975abb1161029457806367206d401161026357806367206d40146105ce578063677379e5146105e157806368f54162146105f457806370d5ae05146105fd57600080fd5b80635c975abb1461058a5780635e835270146105955780635fc77d43146105a8578063648794a4146105bb57600080fd5b806342da4eb3116102d057806342da4eb31461054d57806344a3955e1461055657806346008a071461055f57806355ebedec1461057757600080fd5b8063320d47cc146105295780633214471f1461053c57806336e9332d146104145780633f4ba83a1461054557600080fd5b80631334903f116103795780631b0d8aab116103485780631b0d8aab146104c1578063211019d7146103dc5780632209b59e146104d45780632337b0b1146104e757600080fd5b80631334903f1461047b5780631755ff2114610484578063178a8d07146104af578063180b0d7e146104b857600080fd5b80630b6bb30b116103b55780630b6bb30b146104165780630daef321146104295780630fa4e01e1461045f57806312bc4b9b1461046857600080fd5b8063061c7d48146103dc5780630761a172146103f857806307df604714610401575b600080fd5b6103e561138881565b6040519081526020015b60405180910390f35b6103e560e75481565b61041461040f366004612080565b610809565b005b6104146104243660046120ca565b610b1e565b60cb5461044f907501000000000000000000000000000000000000000000900460ff1681565b60405190151581526020016103ef565b6103e560e15481565b610414610476366004612116565b610bcc565b6103e560df5481565b60d95461049790600160a060020a031681565b604051600160a060020a0390911681526020016103ef565b6103e560dd5481565b6103e561271081565b6104146104cf3660046121da565b610c02565b6103e56104e23660046121da565b610c34565b6105166104f53660046121f3565b60e560209081526000928352604080842090915290825290205461ffff1681565b60405161ffff90911681526020016103ef565b6104146105373660046121da565b610d61565b6103e560de5481565b610414610d95565b6103e560e25481565b6103e560e35481565b60cb54610497906101009004600160a060020a031681565b6103e56105853660046121da565b610dcf565b60975460ff1661044f565b6104976105a336600461220f565b610f5e565b60cd5461049790600160a060020a031681565b6103e56105c936600461224b565b610fa3565b6104146105dc36600461226d565b611106565b60d05461049790600160a060020a031681565b6103e560e05481565b60d75461049790600160a060020a031681565b610414611213565b6104146106263660046122a9565b61124a565b6104146106393660046121f3565b61153e565b60da5461049790600160a060020a031681565b60d25461049790600160a060020a031681565b6104146106723660046120ca565b611599565b6104146115d9565b6103e560dc5481565b6103e561232881565b603354600160a060020a0316610497565b6104976106b03660046122e4565b60e660205260009081526040902054600160a060020a031681565b60d55461049790600160a060020a031681565b60cf5461049790600160a060020a031681565b60cc5461049790600160a060020a031681565b60d65461049790600160a060020a031681565b60d85461049790600160a060020a031681565b6104146107383660046122e4565b611613565b61041461074b3660046122e4565b611703565b60d35461049790600160a060020a031681565b6103e561077136600461224b565b611798565b6104146107843660046121da565b50565b60d45461049790600160a060020a031681565b60d15461049790600160a060020a031681565b60db5461049790600160a060020a031681565b60c95461044f9060ff1681565b60cb5461044f9060ff1681565b6103e560ca5481565b6104146107f13660046122e4565b611918565b60ce5461049790600160a060020a031681565b603354600160a060020a0316331461083f5760405160e560020a62461bcd028152600401610836906122ff565b60405180910390fd5b61ffff82166108675760d28054600160a060020a031916600160a060020a0383161790555050565b8161ffff16600114156108935760d38054600160a060020a031916600160a060020a0383161790555050565b8161ffff16600214156108bf5760d68054600160a060020a031916600160a060020a0383161790555050565b8161ffff16600314156108eb5760ce8054600160a060020a031916600160a060020a0383161790555050565b8161ffff16600414156109175760d18054600160a060020a031916600160a060020a0383161790555050565b8161ffff16600514156109435760d98054600160a060020a031916600160a060020a0383161790555050565b8161ffff166006141561096f5760d48054600160a060020a031916600160a060020a0383161790555050565b8161ffff166007141561099b5760d58054600160a060020a031916600160a060020a0383161790555050565b8161ffff16600814156109c75760d88054600160a060020a031916600160a060020a0383161790555050565b8161ffff16600914156109f35760d78054600160a060020a031916600160a060020a0383161790555050565b8161ffff16600a1415610a1f5760da8054600160a060020a031916600160a060020a0383161790555050565b8161ffff16600b1415610a4b5760db8054600160a060020a031916600160a060020a0383161790555050565b8161ffff16600c1415610a775760cc8054600160a060020a031916600160a060020a0383161790555050565b8161ffff16600d1415610aa35760cd8054600160a060020a031916600160a060020a0383161790555050565b8161ffff16600e1415610acf5760cf8054600160a060020a031916600160a060020a0383161790555050565b60405160e560020a62461bcd02815260206004820152601160248201527f757265636f67436f6e74726163744964780000000000000000000000000000006044820152606401610836565b5050565b60cb546101009004600160a060020a03163314610b505760405160e560020a62461bcd02815260040161083690612334565b60cb805482151575010000000000000000000000000000000000000000000275ff000000000000000000000000000000000000000000199091161790556040517f125177ac7b8930dac1e59c2b30b1b6b9191b30af40cf6bbb5d20fec4d44be60f90610bc190831515815260200190565b60405180910390a150565b603354600160a060020a03163314610bf95760405160e560020a62461bcd028152600401610836906122ff565b610784816119cd565b603354600160a060020a03163314610c2f5760405160e560020a62461bcd028152600401610836906122ff565b60ca55565b60cc54600090600160a060020a031633600160a060020a031614610c6d5760405160e560020a62461bcd0281526004016108369061236b565b60026065541415610cc35760405160e560020a62461bcd02815260206004820152601f60248201527f5265656e7472616e637947756172643a207265656e7472616e742063616c6c006044820152606401610836565b600260655560975460ff1615610cee5760405160e560020a62461bcd028152600401610836906123a2565b60d75460d154610d0d91600160a060020a039182169133911685611a90565b60e354610d1a9083611b47565b60e35560e254610d2a9083611b47565b60e25560405182907fed8a5d040a303ca26fe1ff3b89300b41889113eee6fbc208be0fbbecdcb97d6490600090a250600160655590565b603354600160a060020a03163314610d8e5760405160e560020a62461bcd028152600401610836906122ff565b60e755565b565b60cb546101009004600160a060020a03163314610dc75760405160e560020a62461bcd02815260040161083690612334565b610d93611b5a565b60cc54600090600160a060020a031633600160a060020a031614610e085760405160e560020a62461bcd0281526004016108369061236b565b60026065541415610e5e5760405160e560020a62461bcd02815260206004820152601f60248201527f5265656e7472616e637947756172643a207265656e7472616e742063616c6c006044820152606401610836565b600260655560975460ff1615610e895760405160e560020a62461bcd028152600401610836906123a2565b60e354610e969083611bf9565b60e35560e254610ea69083611bf9565b60e25560d1546040517f40c10f1900000000000000000000000000000000000000000000000000000000815233600482015260248101849052600160a060020a03909116906340c10f1990604401600060405180830381600087803b158015610f0e57600080fd5b505af1158015610f22573d6000803e3d6000fd5b5050604051600093508492507fa8552e40720f0b5ef4eb2b654e8235c6b225d370dcb6fa7681001ebde9ccd52791508390a26001606555919050565b60e46020528260005260406000206020528160005260406000208181548110610f8657600080fd5b600091825260209091200154600160a060020a0316925083915050565b60cc54600090600160a060020a031633600160a060020a031614610fdc5760405160e560020a62461bcd0281526004016108369061236b565b60975460ff16156110025760405160e560020a62461bcd028152600401610836906123a2565b600082116110555760405160e560020a62461bcd02815260206004820152601d60248201527f63616e6e6f74206861766520696e66696e69746520736c6970706167650000006044820152606401610836565b60d6546040517f40c10f1900000000000000000000000000000000000000000000000000000000815233600482015260248101859052600160a060020a03909116906340c10f1990604401600060405180830381600087803b1580156110ba57600080fd5b505af11580156110ce573d6000803e3d6000fd5b50506040518592508291507f6d747e44316ecb7671eae6611ae63f103a7b25c9b0eec542ca87afe327530f7990600090a35090919050565b60cb546101009004600160a060020a031633146111385760405160e560020a62461bcd02815260040161083690612334565b60d454600160a060020a03848116911614156111995760405160e560020a62461bcd02815260206004820152600560248201527f21736166650000000000000000000000000000000000000000000000000000006044820152606401610836565b60d154600160a060020a03848116911614156111fa5760405160e560020a62461bcd02815260206004820152600560248201527f21736166650000000000000000000000000000000000000000000000000000006044820152606401610836565b61120e600160a060020a0384168284611c05565b505050565b603354600160a060020a031633146112405760405160e560020a62461bcd028152600401610836906122ff565b610d936000611c4e565b60cb546101009004600160a060020a0316331461127c5760405160e560020a62461bcd02815260040161083690612334565b6123288510156112d15760405160e560020a62461bcd02815260206004820152601a60248201527f5f656e7472616e6365466565466163746f7220746f6f206c6f770000000000006044820152606401610836565b6127108511156113265760405160e560020a62461bcd02815260206004820152601b60248201527f5f656e7472616e6365466565466163746f7220746f6f206869676800000000006044820152606401610836565b60df8590556123288410156113805760405160e560020a62461bcd02815260206004820152601a60248201527f5f7769746864726177466565466163746f7220746f6f206c6f770000000000006044820152606401610836565b6127108411156113d55760405160e560020a62461bcd02815260206004820152601b60248201527f5f7769746864726177466565466163746f7220746f6f206869676800000000006044820152606401610836565b60e084905561138883111561142f5760405160e560020a62461bcd02815260206004820152601760248201527f5f636f6e74726f6c6c657246656520746f6f20686967680000000000000000006044820152606401610836565b60dc8390556113888211156114895760405160e560020a62461bcd02815260206004820152601560248201527f5f6275794261636b5261746520746f6f206869676800000000000000000000006044820152606401610836565b60dd8290556113888111156114e35760405160e560020a62461bcd02815260206004820152601660248201527f5f72657653686172655261746520746f6f2068696768000000000000000000006044820152606401610836565b60de819055604080518681526020810186905290810184905260608101839052608081018290527fc67e0b149a57a70fa44a531a46c2c6d8e0b242fa12f459f250012c3a5987d29a9060a00160405180910390a15050505050565b603354600160a060020a0316331461156b5760405160e560020a62461bcd028152600401610836906122ff565b600160a060020a03918216600090815260e6602052604090208054600160a060020a03191691909216179055565b603354600160a060020a031633146115c65760405160e560020a62461bcd028152600401610836906122ff565b60cb805460ff1916911515919091179055565b60cb546101009004600160a060020a0316331461160b5760405160e560020a62461bcd02815260040161083690612334565b610d93611ca0565b600054610100900460ff1661162e5760005460ff1615611632565b303b155b6116a75760405160e560020a62461bcd02815260206004820152602e60248201527f496e697469616c697a61626c653a20636f6e747261637420697320616c72656160448201527f647920696e697469616c697a65640000000000000000000000000000000000006064820152608401610836565b600054610100900460ff161580156116c9576000805461ffff19166101011790555b6116d1611cfb565b6116da82611918565b60d78054600160a060020a03191661dead1790558015610b1a576000805461ff00191690555050565b60cb546101009004600160a060020a031633146117355760405160e560020a62461bcd02815260040161083690612334565b60cb805474ffffffffffffffffffffffffffffffffffffffff001916610100600160a060020a038416908102919091179091556040519081527f91a8c1cc2d4a3bb60738481947a00cbb9899c822916694cf8bb1d68172fdcd5490602001610bc1565b60cc54600090600160a060020a031633600160a060020a0316146117d15760405160e560020a62461bcd0281526004016108369061236b565b60975460ff16156117f75760405160e560020a62461bcd028152600401610836906123a2565b6000821161184a5760405160e560020a62461bcd02815260206004820152601b60248201527f736c6970706167652063616e6e6f7420626520696e66696e69746500000000006044820152606401610836565b60d75460d65461186791600160a060020a03918216911685611c05565b60d1546040517f40c10f1900000000000000000000000000000000000000000000000000000000815233600482015260248101859052600160a060020a03909116906340c10f1990604401600060405180830381600087803b1580156118cc57600080fd5b505af11580156118e0573d6000803e3d6000fd5b50506040518592508291507fa47131bab56293bdfad166ce055ce2b65336369bd9c0b1f3d7531ffdf299e37490600090a35090919050565b603354600160a060020a031633146119455760405160e560020a62461bcd028152600401610836906122ff565b600160a060020a0381166119c45760405160e560020a62461bcd02815260206004820152602660248201527f4f776e61626c653a206e6577206f776e657220697320746865207a65726f206160448201527f64647265737300000000000000000000000000000000000000000000000000006064820152608401610836565b61078481611c4e565b6000816000815181106119e2576119e26123d9565b60200260200101519050600082600184516119fd9190612437565b81518110611a0d57611a0d6123d9565b602090810291909101810151600160a060020a03808516600090815260e4845260408082209284168252918452208551919350611a4f92909190860190611fea565b509151600160a060020a03918216600090815260e56020908152604080832094909516825292909252919020805461ffff191661ffff909216919091179055565b604051600160a060020a0380851660248301528316604482015260648101829052611b419085907f23b872dd00000000000000000000000000000000000000000000000000000000906084015b60408051601f198184030181529190526020810180517bffffffffffffffffffffffffffffffffffffffffffffffffffffffff167fffffffff0000000000000000000000000000000000000000000000000000000090931692909217909152611d2d565b50505050565b6000611b53828461244e565b9392505050565b60975460ff16611baf5760405160e560020a62461bcd02815260206004820152601460248201527f5061757361626c653a206e6f74207061757365640000000000000000000000006044820152606401610836565b6097805460ff191690557f5db9ee0a495bf2e6ff9c91a7834c1ba4fdd244a5e8aa4e537bd38aeae4b073aa335b604051600160a060020a03909116815260200160405180910390a1565b6000611b538284612437565b604051600160a060020a03831660248201526044810182905261120e9084907fa9059cbb0000000000000000000000000000000000000000000000000000000090606401611add565b60338054600160a060020a03838116600160a060020a0319831681179093556040519116919082907f8be0079c531659141344cd1fd0a4f28419497f9722a3daafe3b4186f6b6457e090600090a35050565b60975460ff1615611cc65760405160e560020a62461bcd028152600401610836906123a2565b6097805460ff191660011790557f62e78cea01bee320cd4e420270b5ea74000d11b0c9f74754ebdbfc544b05a258611bdc3390565b600054610100900460ff16611d255760405160e560020a62461bcd02815260040161083690612466565b610d93611e15565b6000611d82826040518060400160405280602081526020017f5361666545524332303a206c6f772d6c6576656c2063616c6c206661696c656481525085600160a060020a0316611e489092919063ffffffff16565b80519091501561120e5780806020019051810190611da091906124c3565b61120e5760405160e560020a62461bcd02815260206004820152602a60248201527f5361666545524332303a204552433230206f7065726174696f6e20646964206e60448201527f6f742073756363656564000000000000000000000000000000000000000000006064820152608401610836565b600054610100900460ff16611e3f5760405160e560020a62461bcd02815260040161083690612466565b610d9333611c4e565b6060611e578484600085611e5f565b949350505050565b60603031831115611edb5760405160e560020a62461bcd02815260206004820152602660248201527f416464726573733a20696e73756666696369656e742062616c616e636520666f60448201527f722063616c6c00000000000000000000000000000000000000000000000000006064820152608401610836565b600160a060020a0385163b611f355760405160e560020a62461bcd02815260206004820152601d60248201527f416464726573733a2063616c6c20746f206e6f6e2d636f6e74726163740000006044820152606401610836565b60008086600160a060020a03168587604051611f51919061250c565b60006040518083038185875af1925050503d8060008114611f8e576040519150601f19603f3d011682016040523d82523d6000602084013e611f93565b606091505b5091509150611fa3828286611fae565b979650505050505050565b60608315611fbd575081611b53565b825115611fcd5782518084602001fd5b8160405160e560020a62461bcd0281526004016108369190612528565b82805482825590600052602060002090810192821561203f579160200282015b8281111561203f5782518254600160a060020a031916600160a060020a0390911617825560209092019160019091019061200a565b5061204b92915061204f565b5090565b5b8082111561204b5760008155600101612050565b8035600160a060020a038116811461207b57600080fd5b919050565b6000806040838503121561209357600080fd5b823561ffff811681146120a557600080fd5b91506120b360208401612064565b90509250929050565b801515811461078457600080fd5b6000602082840312156120dc57600080fd5b8135611b53816120bc565b7f4e487b7100000000000000000000000000000000000000000000000000000000600052604160045260246000fd5b6000602080838503121561212957600080fd5b823567ffffffffffffffff8082111561214157600080fd5b818501915085601f83011261215557600080fd5b813581811115612167576121676120e7565b838102604051601f19603f8301168101818110858211171561218b5761218b6120e7565b6040529182528482019250838101850191888311156121a957600080fd5b938501935b828510156121ce576121bf85612064565b845293850193928501926121ae565b98975050505050505050565b6000602082840312156121ec57600080fd5b5035919050565b6000806040838503121561220657600080fd5b6120a583612064565b60008060006060848603121561222457600080fd5b61222d84612064565b925061223b60208501612064565b9150604084013590509250925092565b6000806040838503121561225e57600080fd5b50508035926020909101359150565b60008060006060848603121561228257600080fd5b61228b84612064565b9250602084013591506122a060408501612064565b90509250925092565b600080600080600060a086880312156122c157600080fd5b505083359560208501359550604085013594606081013594506080013592509050565b6000602082840312156122f657600080fd5b611b5382612064565b6020808252818101527f4f776e61626c653a2063616c6c6572206973206e6f7420746865206f776e6572604082015260600190565b60208082526004908201527f21676f7600000000000000000000000000000000000000000000000000000000604082015260600190565b60208082526010908201527f217a6f72726f436f6e74726f6c6c657200000000000000000000000000000000604082015260600190565b60208082526010908201527f5061757361626c653a2070617573656400000000000000000000000000000000604082015260600190565b7f4e487b7100000000000000000000000000000000000000000000000000000000600052603260045260246000fd5b7f4e487b7100000000000000000000000000000000000000000000000000000000600052601160045260246000fd5b60008282101561244957612449612408565b500390565b6000821982111561246157612461612408565b500190565b6020808252602b908201527f496e697469616c697a61626c653a20636f6e7472616374206973206e6f74206960408201527f6e697469616c697a696e67000000000000000000000000000000000000000000606082015260800190565b6000602082840312156124d557600080fd5b8151611b53816120bc565b60005b838110156124fb5781810151838201526020016124e3565b83811115611b415750506000910152565b6000825161251e8184602087016124e0565b9190910192915050565b60208152600082518060208401526125478160408501602087016124e0565b601f01601f1916919091016040019291505056fea26469706673582212206b60d98ddbd236e40b1b07617ca915cd1e5acf2f86673e28372b255beaf8ba4c64736f6c634300080a0033",
  "immutableReferences": {},
  "source": "// SPDX-License-Identifier: MIT\n\npragma solidity ^0.8.0;\n\nimport \"../ZorroController.sol\";\n\nimport \"../../vaults/_VaultBase.sol\";\n\nimport \"../../tokens/mocks/MockToken.sol\";\n\nimport \"../../vaults/actions/_VaultActions.sol\";\n\ncontract MockZorroController is ZorroController {\n    event UpdatedPool(uint256 indexed _amount);\n    event HandledRewards(uint256 indexed _rewardsDue);\n\n    function addTranche(\n        uint256 _pid,\n        address _account,\n        TrancheInfo memory _trancheInfo\n    ) public {\n        trancheInfo[_pid][_account].push(_trancheInfo);\n        poolInfo[_pid].totalTrancheContributions =\n            poolInfo[_pid].totalTrancheContributions +\n            _trancheInfo.contribution;\n    }\n\n    function setLastRewardBlock(uint256 _pid, uint256 _block) public {\n        poolInfo[_pid].lastRewardBlock = _block;\n    }\n\n    function updatePoolMod(uint256 _pid) public {\n        uint256 _res = updatePool(_pid);\n\n        emit UpdatedPool(_res);\n    }\n\n    function withdrawMod(\n        uint256 _pid,\n        address _localAccount,\n        bytes memory _foreignAccount,\n        uint256 _trancheId,\n        bool _harvestOnly,\n        bool _xChainRepatriation\n    ) public returns (WithdrawalResult memory _res) {\n        _res = _withdraw(\n            _pid,\n            _localAccount,\n            _foreignAccount,\n            _trancheId,\n            _harvestOnly,\n            _xChainRepatriation\n        );\n        emit HandledRewards(_res.rewardsDueXChain);\n    }\n\n    function _fetchFundsFromPublicPool(uint256 _amount, address _destination)\n        internal\n        override\n    {\n        // Do nothing. Dummy func.\n    }\n\n    function recordMintedRewards(uint256 _mintedRewards)\n        public\n        nonHomeChainOnly\n    {\n        _recordMintedRewards(_mintedRewards);\n    }\n\n    function recordSlashedRewards(uint256 _slashedRewards)\n        public\n        nonHomeChainOnly\n    {\n        _recordSlashedRewards(_slashedRewards);\n    }\n}\n\ncontract MockInvestmentVault is VaultBase {\n    using SafeERC20Upgradeable for IERC20Upgradeable;\n    using SafeMathUpgradeable for uint256;\n\n    event DepositedWant(uint256 indexed _wantAmt);\n    event ExchangedUSDForWant(\n        uint256 indexed _amountUSD,\n        uint256 indexed _amountWant\n    );\n    event WithdrewWant(uint256 indexed _wantAmt);\n    event ExchangedWantForUSD(\n        uint256 indexed _amountWant,\n        uint256 indexed _amountUSD\n    );\n\n    function depositWantToken(uint256 _wantAmt)\n        public\n        override\n        onlyZorroController\n        nonReentrant\n        whenNotPaused\n        returns (uint256 sharesAdded)\n    {\n        IERC20Upgradeable(wantAddress).safeTransferFrom(\n            msg.sender,\n            burnAddress,\n            _wantAmt\n        );\n\n        sharesTotal = sharesTotal.add(_wantAmt);\n\n        wantLockedTotal = wantLockedTotal.add(_wantAmt);\n\n        emit DepositedWant(_wantAmt);\n\n        return _wantAmt;\n    }\n\n    function exchangeUSDForWantToken(\n        uint256 _amountUSD,\n        uint256 _maxMarketMovementAllowed\n    ) public override onlyZorroController whenNotPaused returns (uint256) {\n        require(_maxMarketMovementAllowed > 0, \"slippage cannot be infinite\");\n\n        IERC20Upgradeable(defaultStablecoin).safeTransfer(\n            burnAddress,\n            _amountUSD\n        );\n        // Assume 1:1 exch rate\n        MockERC20Upgradeable(wantAddress).mint(msg.sender, _amountUSD);\n\n        emit ExchangedUSDForWant(_amountUSD, _amountUSD);\n\n        return _amountUSD;\n    }\n\n    function withdrawWantToken(uint256 _wantAmt)\n        public\n        override\n        onlyZorroController\n        nonReentrant\n        whenNotPaused\n        returns (uint256 sharesRemoved)\n    {\n        sharesTotal = sharesTotal.sub(_wantAmt);\n\n        wantLockedTotal = wantLockedTotal.sub(_wantAmt);\n\n        MockERC20Upgradeable(wantAddress).mint(msg.sender, _wantAmt);\n\n        sharesRemoved = 0;\n\n        emit WithdrewWant(_wantAmt);\n    }\n\n    function exchangeWantTokenForUSD(\n        uint256 _amount,\n        uint256 _maxMarketMovementAllowed\n    )\n        public\n        virtual\n        override\n        onlyZorroController\n        whenNotPaused\n        returns (uint256)\n    {\n        // Requirements\n        require(_maxMarketMovementAllowed > 0, \"cannot have infinite slippage\");\n        // Assume 1:1 exch rate\n        MockERC20Upgradeable(defaultStablecoin).mint(msg.sender, _amount);\n\n        emit ExchangedWantForUSD(_amount, _amount);\n\n        return _amount;\n    }\n\n    function earn(uint256 _maxMarketMovementAllowed) public override {}\n\n    function farm() external {}\n\n    function _farm() internal override {}\n\n    function _unfarm(uint256 _amount) internal override {}\n}\n\ncontract MockInvestmentVault1 is MockInvestmentVault {}\n",
  "sourcePath": "/Users/kristophm/Documents/workspace/zorro-protocol/contracts/controllers/mocks/MockZorroController.sol",
  "compiler": {
    "name": "solc",
    "version": "0.8.10+commit.fc410830.Emscripten.clang"
  },
  "schemaVersion": "3.4.10",
  "updatedAt": "2022-11-26T00:37:03.901Z",
  "devdoc": {
    "kind": "dev",
    "methods": {
      "earn(uint256)": {
        "params": {
          "_maxMarketMovementAllowed": "The max slippage allowed. 1000 = 0 %, 995 = 0.5%, etc."
        }
      },
      "inCaseTokensGetStuck(address,uint256,address)": {
        "params": {
          "_amount": "The amount of the tokens to transfer",
          "_to": "The address to transfer tokens to",
          "_token": "Address of the ERC20 token to transfer"
        }
      },
      "owner()": {
        "details": "Returns the address of the current owner."
      },
      "paused()": {
        "details": "Returns true if the contract is paused, and false otherwise."
      },
      "renounceOwnership()": {
        "details": "Leaves the contract without owner. It will not be possible to call `onlyOwner` functions anymore. Can only be called by the current owner. NOTE: Renouncing ownership will leave the contract without an owner, thereby removing any functionality that is only available to the owner."
      },
      "setFeeSettings(uint256,uint256,uint256,uint256,uint256)": {
        "params": {
          "_buyBackRate": "Buy back rate fee numerator",
          "_controllerFee": "Controller fee numerator",
          "_entranceFeeFactor": "Entrance fee numerator (higher means smaller percentage)",
          "_revShareRate": "Rev share rate fee numerator",
          "_withdrawFeeFactor": "Withdrawal fee numerator (higher means smaller percentage)"
        }
      },
      "setGov(address)": {
        "params": {
          "_govAddress": "The new gov address"
        }
      },
      "setOnlyGov(bool)": {
        "params": {
          "_onlyGov": "whether onlyGov should be enforced"
        }
      },
      "transferOwnership(address)": {
        "details": "Transfers ownership of the contract to a new account (`newOwner`). Can only be called by the current owner."
      }
    },
    "version": 1
  },
  "userdoc": {
    "kind": "user",
    "methods": {
      "earn(uint256)": {
        "notice": "The main compounding (earn) function. Reinvests profits since the last earn event."
      },
      "inCaseTokensGetStuck(address,uint256,address)": {
        "notice": "Safely transfer ERC20 tokens stuck in this contract to a specified address"
      },
      "pause()": {
        "notice": "Pause contract"
      },
      "setFeeSettings(uint256,uint256,uint256,uint256,uint256)": {
        "notice": "Configure key fee parameters"
      },
      "setGov(address)": {
        "notice": "Set governor address"
      },
      "setOnlyGov(bool)": {
        "notice": "Set onlyGov property"
      },
      "unpause()": {
        "notice": "Unpause contract"
      }
    },
    "version": 1
  }
}