{
  "contractName": "MockInvestmentVault",
  "abi": [
    {
      "anonymous": false,
      "inputs": [
        {
          "indexed": true,
          "internalType": "uint256",
          "name": "_amount",
          "type": "uint256"
        }
      ],
      "name": "Buyback",
      "type": "event"
    },
    {
      "anonymous": false,
      "inputs": [
        {
          "indexed": true,
          "internalType": "uint256",
          "name": "_wantAmt",
          "type": "uint256"
        }
      ],
      "name": "DepositedWant",
      "type": "event"
    },
    {
      "anonymous": false,
      "inputs": [
        {
          "indexed": true,
          "internalType": "uint256",
          "name": "_amountUSDC",
          "type": "uint256"
        },
        {
          "indexed": true,
          "internalType": "uint256",
          "name": "_amountWant",
          "type": "uint256"
        }
      ],
      "name": "ExchangedUSDCForWant",
      "type": "event"
    },
    {
      "anonymous": false,
      "inputs": [
        {
          "indexed": true,
          "internalType": "uint256",
          "name": "_amountWant",
          "type": "uint256"
        },
        {
          "indexed": true,
          "internalType": "uint256",
          "name": "_amountUSDC",
          "type": "uint256"
        }
      ],
      "name": "ExchangedWantForUSDC",
      "type": "event"
    },
    {
      "anonymous": false,
      "inputs": [
        {
          "indexed": true,
          "internalType": "address",
          "name": "previousOwner",
          "type": "address"
        },
        {
          "indexed": true,
          "internalType": "address",
          "name": "newOwner",
          "type": "address"
        }
      ],
      "name": "OwnershipTransferred",
      "type": "event"
    },
    {
      "anonymous": false,
      "inputs": [
        {
          "indexed": false,
          "internalType": "address",
          "name": "account",
          "type": "address"
        }
      ],
      "name": "Paused",
      "type": "event"
    },
    {
      "anonymous": false,
      "inputs": [
        {
          "indexed": true,
          "internalType": "uint256",
          "name": "_amount",
          "type": "uint256"
        }
      ],
      "name": "RevShare",
      "type": "event"
    },
    {
      "anonymous": false,
      "inputs": [
        {
          "indexed": false,
          "internalType": "address",
          "name": "_govAddress",
          "type": "address"
        }
      ],
      "name": "SetGov",
      "type": "event"
    },
    {
      "anonymous": false,
      "inputs": [
        {
          "indexed": false,
          "internalType": "bool",
          "name": "_onlyGov",
          "type": "bool"
        }
      ],
      "name": "SetOnlyGov",
      "type": "event"
    },
    {
      "anonymous": false,
      "inputs": [
        {
          "indexed": false,
          "internalType": "address",
          "name": "_rewardsAddress",
          "type": "address"
        }
      ],
      "name": "SetRewardsAddress",
      "type": "event"
    },
    {
      "anonymous": false,
      "inputs": [
        {
          "indexed": false,
          "internalType": "uint256",
          "name": "_entranceFeeFactor",
          "type": "uint256"
        },
        {
          "indexed": false,
          "internalType": "uint256",
          "name": "_withdrawFeeFactor",
          "type": "uint256"
        },
        {
          "indexed": false,
          "internalType": "uint256",
          "name": "_controllerFee",
          "type": "uint256"
        },
        {
          "indexed": false,
          "internalType": "uint256",
          "name": "_buyBackRate",
          "type": "uint256"
        },
        {
          "indexed": false,
          "internalType": "uint256",
          "name": "_revShareRate",
          "type": "uint256"
        }
      ],
      "name": "SetSettings",
      "type": "event"
    },
    {
      "anonymous": false,
      "inputs": [
        {
          "indexed": false,
          "internalType": "address",
          "name": "_uniRouterAddress",
          "type": "address"
        }
      ],
      "name": "SetUniRouterAddress",
      "type": "event"
    },
    {
      "anonymous": false,
      "inputs": [
        {
          "indexed": false,
          "internalType": "address",
          "name": "account",
          "type": "address"
        }
      ],
      "name": "Unpaused",
      "type": "event"
    },
    {
      "anonymous": false,
      "inputs": [
        {
          "indexed": true,
          "internalType": "uint256",
          "name": "_wantAmt",
          "type": "uint256"
        }
      ],
      "name": "WithdrewWant",
      "type": "event"
    },
    {
      "inputs": [
        {
          "internalType": "uint256",
          "name": "",
          "type": "uint256"
        }
      ],
      "name": "USDCToToken0Path",
      "outputs": [
        {
          "internalType": "address",
          "name": "",
          "type": "address"
        }
      ],
      "stateMutability": "view",
      "type": "function"
    },
    {
      "inputs": [
        {
          "internalType": "uint256",
          "name": "",
          "type": "uint256"
        }
      ],
      "name": "USDCToToken1Path",
      "outputs": [
        {
          "internalType": "address",
          "name": "",
          "type": "address"
        }
      ],
      "stateMutability": "view",
      "type": "function"
    },
    {
      "inputs": [],
      "name": "ZORPriceFeed",
      "outputs": [
        {
          "internalType": "contract AggregatorV3Interface",
          "name": "",
          "type": "address"
        }
      ],
      "stateMutability": "view",
      "type": "function"
    },
    {
      "inputs": [],
      "name": "ZORROAddress",
      "outputs": [
        {
          "internalType": "address",
          "name": "",
          "type": "address"
        }
      ],
      "stateMutability": "view",
      "type": "function"
    },
    {
      "inputs": [],
      "name": "burnAddress",
      "outputs": [
        {
          "internalType": "address",
          "name": "",
          "type": "address"
        }
      ],
      "stateMutability": "view",
      "type": "function"
    },
    {
      "inputs": [],
      "name": "buyBackRate",
      "outputs": [
        {
          "internalType": "uint256",
          "name": "",
          "type": "uint256"
        }
      ],
      "stateMutability": "view",
      "type": "function"
    },
    {
      "inputs": [],
      "name": "buyBackRateMax",
      "outputs": [
        {
          "internalType": "uint256",
          "name": "",
          "type": "uint256"
        }
      ],
      "stateMutability": "view",
      "type": "function"
    },
    {
      "inputs": [],
      "name": "buyBackRateUL",
      "outputs": [
        {
          "internalType": "uint256",
          "name": "",
          "type": "uint256"
        }
      ],
      "stateMutability": "view",
      "type": "function"
    },
    {
      "inputs": [],
      "name": "controllerFee",
      "outputs": [
        {
          "internalType": "uint256",
          "name": "",
          "type": "uint256"
        }
      ],
      "stateMutability": "view",
      "type": "function"
    },
    {
      "inputs": [],
      "name": "controllerFeeMax",
      "outputs": [
        {
          "internalType": "uint256",
          "name": "",
          "type": "uint256"
        }
      ],
      "stateMutability": "view",
      "type": "function"
    },
    {
      "inputs": [],
      "name": "controllerFeeUL",
      "outputs": [
        {
          "internalType": "uint256",
          "name": "",
          "type": "uint256"
        }
      ],
      "stateMutability": "view",
      "type": "function"
    },
    {
      "inputs": [],
      "name": "earnTokenPriceFeed",
      "outputs": [
        {
          "internalType": "contract AggregatorV3Interface",
          "name": "",
          "type": "address"
        }
      ],
      "stateMutability": "view",
      "type": "function"
    },
    {
      "inputs": [],
      "name": "earnedAddress",
      "outputs": [
        {
          "internalType": "address",
          "name": "",
          "type": "address"
        }
      ],
      "stateMutability": "view",
      "type": "function"
    },
    {
      "inputs": [
        {
          "internalType": "uint256",
          "name": "",
          "type": "uint256"
        }
      ],
      "name": "earnedToToken0Path",
      "outputs": [
        {
          "internalType": "address",
          "name": "",
          "type": "address"
        }
      ],
      "stateMutability": "view",
      "type": "function"
    },
    {
      "inputs": [
        {
          "internalType": "uint256",
          "name": "",
          "type": "uint256"
        }
      ],
      "name": "earnedToToken1Path",
      "outputs": [
        {
          "internalType": "address",
          "name": "",
          "type": "address"
        }
      ],
      "stateMutability": "view",
      "type": "function"
    },
    {
      "inputs": [
        {
          "internalType": "uint256",
          "name": "",
          "type": "uint256"
        }
      ],
      "name": "earnedToUSDCPath",
      "outputs": [
        {
          "internalType": "address",
          "name": "",
          "type": "address"
        }
      ],
      "stateMutability": "view",
      "type": "function"
    },
    {
      "inputs": [
        {
          "internalType": "uint256",
          "name": "",
          "type": "uint256"
        }
      ],
      "name": "earnedToZORLPPoolOtherTokenPath",
      "outputs": [
        {
          "internalType": "address",
          "name": "",
          "type": "address"
        }
      ],
      "stateMutability": "view",
      "type": "function"
    },
    {
      "inputs": [
        {
          "internalType": "uint256",
          "name": "",
          "type": "uint256"
        }
      ],
      "name": "earnedToZORROPath",
      "outputs": [
        {
          "internalType": "address",
          "name": "",
          "type": "address"
        }
      ],
      "stateMutability": "view",
      "type": "function"
    },
    {
      "inputs": [],
      "name": "entranceFeeFactor",
      "outputs": [
        {
          "internalType": "uint256",
          "name": "",
          "type": "uint256"
        }
      ],
      "stateMutability": "view",
      "type": "function"
    },
    {
      "inputs": [],
      "name": "entranceFeeFactorLL",
      "outputs": [
        {
          "internalType": "uint256",
          "name": "",
          "type": "uint256"
        }
      ],
      "stateMutability": "view",
      "type": "function"
    },
    {
      "inputs": [],
      "name": "entranceFeeFactorMax",
      "outputs": [
        {
          "internalType": "uint256",
          "name": "",
          "type": "uint256"
        }
      ],
      "stateMutability": "view",
      "type": "function"
    },
    {
      "inputs": [],
      "name": "farmContractAddress",
      "outputs": [
        {
          "internalType": "address",
          "name": "",
          "type": "address"
        }
      ],
      "stateMutability": "view",
      "type": "function"
    },
    {
      "inputs": [],
      "name": "govAddress",
      "outputs": [
        {
          "internalType": "address",
          "name": "",
          "type": "address"
        }
      ],
      "stateMutability": "view",
      "type": "function"
    },
    {
      "inputs": [
        {
          "internalType": "address",
          "name": "_token",
          "type": "address"
        },
        {
          "internalType": "uint256",
          "name": "_amount",
          "type": "uint256"
        },
        {
          "internalType": "address",
          "name": "_to",
          "type": "address"
        }
      ],
      "name": "inCaseTokensGetStuck",
      "outputs": [],
      "stateMutability": "nonpayable",
      "type": "function"
    },
    {
      "inputs": [
        {
          "internalType": "address",
          "name": "_timelockOwner",
          "type": "address"
        }
      ],
      "name": "initialize",
      "outputs": [],
      "stateMutability": "nonpayable",
      "type": "function"
    },
    {
      "inputs": [],
      "name": "isFarmable",
      "outputs": [
        {
          "internalType": "bool",
          "name": "",
          "type": "bool"
        }
      ],
      "stateMutability": "view",
      "type": "function"
    },
    {
      "inputs": [],
      "name": "isHomeChain",
      "outputs": [
        {
          "internalType": "bool",
          "name": "",
          "type": "bool"
        }
      ],
      "stateMutability": "view",
      "type": "function"
    },
    {
      "inputs": [],
      "name": "lastEarnBlock",
      "outputs": [
        {
          "internalType": "uint256",
          "name": "",
          "type": "uint256"
        }
      ],
      "stateMutability": "view",
      "type": "function"
    },
    {
      "inputs": [],
      "name": "lpPoolOtherTokenPriceFeed",
      "outputs": [
        {
          "internalType": "contract AggregatorV3Interface",
          "name": "",
          "type": "address"
        }
      ],
      "stateMutability": "view",
      "type": "function"
    },
    {
      "inputs": [],
      "name": "onlyGov",
      "outputs": [
        {
          "internalType": "bool",
          "name": "",
          "type": "bool"
        }
      ],
      "stateMutability": "view",
      "type": "function"
    },
    {
      "inputs": [],
      "name": "owner",
      "outputs": [
        {
          "internalType": "address",
          "name": "",
          "type": "address"
        }
      ],
      "stateMutability": "view",
      "type": "function"
    },
    {
      "inputs": [],
      "name": "pause",
      "outputs": [],
      "stateMutability": "nonpayable",
      "type": "function"
    },
    {
      "inputs": [],
      "name": "paused",
      "outputs": [
        {
          "internalType": "bool",
          "name": "",
          "type": "bool"
        }
      ],
      "stateMutability": "view",
      "type": "function"
    },
    {
      "inputs": [],
      "name": "pid",
      "outputs": [
        {
          "internalType": "uint256",
          "name": "",
          "type": "uint256"
        }
      ],
      "stateMutability": "view",
      "type": "function"
    },
    {
      "inputs": [],
      "name": "poolAddress",
      "outputs": [
        {
          "internalType": "address",
          "name": "",
          "type": "address"
        }
      ],
      "stateMutability": "view",
      "type": "function"
    },
    {
      "inputs": [],
      "name": "renounceOwnership",
      "outputs": [],
      "stateMutability": "nonpayable",
      "type": "function"
    },
    {
      "inputs": [],
      "name": "revShareRate",
      "outputs": [
        {
          "internalType": "uint256",
          "name": "",
          "type": "uint256"
        }
      ],
      "stateMutability": "view",
      "type": "function"
    },
    {
      "inputs": [],
      "name": "revShareRateMax",
      "outputs": [
        {
          "internalType": "uint256",
          "name": "",
          "type": "uint256"
        }
      ],
      "stateMutability": "view",
      "type": "function"
    },
    {
      "inputs": [],
      "name": "revShareRateUL",
      "outputs": [
        {
          "internalType": "uint256",
          "name": "",
          "type": "uint256"
        }
      ],
      "stateMutability": "view",
      "type": "function"
    },
    {
      "inputs": [],
      "name": "rewardsAddress",
      "outputs": [
        {
          "internalType": "address",
          "name": "",
          "type": "address"
        }
      ],
      "stateMutability": "view",
      "type": "function"
    },
    {
      "inputs": [
        {
          "internalType": "address",
          "name": "_burnAddress",
          "type": "address"
        }
      ],
      "name": "setBurnAddress",
      "outputs": [],
      "stateMutability": "nonpayable",
      "type": "function"
    },
    {
      "inputs": [
        {
          "internalType": "address",
          "name": "_earnedAddress",
          "type": "address"
        }
      ],
      "name": "setEarnedAddress",
      "outputs": [],
      "stateMutability": "nonpayable",
      "type": "function"
    },
    {
      "inputs": [
        {
          "internalType": "address",
          "name": "_farmContractAddress",
          "type": "address"
        }
      ],
      "name": "setFarmContractAddress",
      "outputs": [],
      "stateMutability": "nonpayable",
      "type": "function"
    },
    {
      "inputs": [
        {
          "internalType": "uint256",
          "name": "_entranceFeeFactor",
          "type": "uint256"
        },
        {
          "internalType": "uint256",
          "name": "_withdrawFeeFactor",
          "type": "uint256"
        },
        {
          "internalType": "uint256",
          "name": "_controllerFee",
          "type": "uint256"
        },
        {
          "internalType": "uint256",
          "name": "_buyBackRate",
          "type": "uint256"
        },
        {
          "internalType": "uint256",
          "name": "_revShareRate",
          "type": "uint256"
        }
      ],
      "name": "setFeeSettings",
      "outputs": [],
      "stateMutability": "nonpayable",
      "type": "function"
    },
    {
      "inputs": [
        {
          "internalType": "address",
          "name": "_govAddress",
          "type": "address"
        }
      ],
      "name": "setGov",
      "outputs": [],
      "stateMutability": "nonpayable",
      "type": "function"
    },
    {
      "inputs": [
        {
          "internalType": "bool",
          "name": "_isFarmable",
          "type": "bool"
        }
      ],
      "name": "setIsFarmable",
      "outputs": [],
      "stateMutability": "nonpayable",
      "type": "function"
    },
    {
      "inputs": [
        {
          "internalType": "bool",
          "name": "_onlyGov",
          "type": "bool"
        }
      ],
      "name": "setOnlyGov",
      "outputs": [],
      "stateMutability": "nonpayable",
      "type": "function"
    },
    {
      "inputs": [
        {
          "internalType": "uint256",
          "name": "_pid",
          "type": "uint256"
        }
      ],
      "name": "setPid",
      "outputs": [],
      "stateMutability": "nonpayable",
      "type": "function"
    },
    {
      "inputs": [
        {
          "internalType": "address",
          "name": "_poolAddress",
          "type": "address"
        }
      ],
      "name": "setPoolAddress",
      "outputs": [],
      "stateMutability": "nonpayable",
      "type": "function"
    },
    {
      "inputs": [
        {
          "internalType": "uint8",
          "name": "_idx",
          "type": "uint8"
        },
        {
          "internalType": "address",
          "name": "_priceFeed",
          "type": "address"
        }
      ],
      "name": "setPriceFeed",
      "outputs": [],
      "stateMutability": "nonpayable",
      "type": "function"
    },
    {
      "inputs": [
        {
          "internalType": "address",
          "name": "_rewardsAddress",
          "type": "address"
        }
      ],
      "name": "setRewardsAddress",
      "outputs": [],
      "stateMutability": "nonpayable",
      "type": "function"
    },
    {
      "inputs": [
        {
          "internalType": "uint8",
          "name": "_idx",
          "type": "uint8"
        },
        {
          "internalType": "address[]",
          "name": "_path",
          "type": "address[]"
        }
      ],
      "name": "setSwapPaths",
      "outputs": [],
      "stateMutability": "nonpayable",
      "type": "function"
    },
    {
      "inputs": [
        {
          "internalType": "address",
          "name": "_token0Address",
          "type": "address"
        }
      ],
      "name": "setToken0Address",
      "outputs": [],
      "stateMutability": "nonpayable",
      "type": "function"
    },
    {
      "inputs": [
        {
          "internalType": "address",
          "name": "_token1Address",
          "type": "address"
        }
      ],
      "name": "setToken1Address",
      "outputs": [],
      "stateMutability": "nonpayable",
      "type": "function"
    },
    {
      "inputs": [
        {
          "internalType": "address",
          "name": "_tokenUSDCAddress",
          "type": "address"
        }
      ],
      "name": "setTokenUSDCAddress",
      "outputs": [],
      "stateMutability": "nonpayable",
      "type": "function"
    },
    {
      "inputs": [
        {
          "internalType": "address",
          "name": "_uniRouterAddress",
          "type": "address"
        }
      ],
      "name": "setUniRouterAddress",
      "outputs": [],
      "stateMutability": "nonpayable",
      "type": "function"
    },
    {
      "inputs": [
        {
          "internalType": "address",
          "name": "_wantAddress",
          "type": "address"
        }
      ],
      "name": "setWantAddress",
      "outputs": [],
      "stateMutability": "nonpayable",
      "type": "function"
    },
    {
      "inputs": [
        {
          "internalType": "address",
          "name": "_ZORROAddress",
          "type": "address"
        }
      ],
      "name": "setZORROAddress",
      "outputs": [],
      "stateMutability": "nonpayable",
      "type": "function"
    },
    {
      "inputs": [
        {
          "internalType": "address",
          "name": "_zorroControllerAddress",
          "type": "address"
        }
      ],
      "name": "setZorroControllerAddress",
      "outputs": [],
      "stateMutability": "nonpayable",
      "type": "function"
    },
    {
      "inputs": [
        {
          "internalType": "address",
          "name": "_poolAddress",
          "type": "address"
        }
      ],
      "name": "setZorroLPPoolAddress",
      "outputs": [],
      "stateMutability": "nonpayable",
      "type": "function"
    },
    {
      "inputs": [
        {
          "internalType": "address",
          "name": "_otherToken",
          "type": "address"
        }
      ],
      "name": "setZorroLPPoolOtherToken",
      "outputs": [],
      "stateMutability": "nonpayable",
      "type": "function"
    },
    {
      "inputs": [
        {
          "internalType": "address",
          "name": "_stakingVault",
          "type": "address"
        }
      ],
      "name": "setZorroStakingVault",
      "outputs": [],
      "stateMutability": "nonpayable",
      "type": "function"
    },
    {
      "inputs": [
        {
          "internalType": "address",
          "name": "_zorroXChainController",
          "type": "address"
        }
      ],
      "name": "setZorroXChainControllerAddress",
      "outputs": [],
      "stateMutability": "nonpayable",
      "type": "function"
    },
    {
      "inputs": [],
      "name": "sharesTotal",
      "outputs": [
        {
          "internalType": "uint256",
          "name": "",
          "type": "uint256"
        }
      ],
      "stateMutability": "view",
      "type": "function"
    },
    {
      "inputs": [],
      "name": "stablecoinPriceFeed",
      "outputs": [
        {
          "internalType": "contract AggregatorV3Interface",
          "name": "",
          "type": "address"
        }
      ],
      "stateMutability": "view",
      "type": "function"
    },
    {
      "inputs": [],
      "name": "token0Address",
      "outputs": [
        {
          "internalType": "address",
          "name": "",
          "type": "address"
        }
      ],
      "stateMutability": "view",
      "type": "function"
    },
    {
      "inputs": [],
      "name": "token0PriceFeed",
      "outputs": [
        {
          "internalType": "contract AggregatorV3Interface",
          "name": "",
          "type": "address"
        }
      ],
      "stateMutability": "view",
      "type": "function"
    },
    {
      "inputs": [
        {
          "internalType": "uint256",
          "name": "",
          "type": "uint256"
        }
      ],
      "name": "token0ToUSDCPath",
      "outputs": [
        {
          "internalType": "address",
          "name": "",
          "type": "address"
        }
      ],
      "stateMutability": "view",
      "type": "function"
    },
    {
      "inputs": [],
      "name": "token1Address",
      "outputs": [
        {
          "internalType": "address",
          "name": "",
          "type": "address"
        }
      ],
      "stateMutability": "view",
      "type": "function"
    },
    {
      "inputs": [],
      "name": "token1PriceFeed",
      "outputs": [
        {
          "internalType": "contract AggregatorV3Interface",
          "name": "",
          "type": "address"
        }
      ],
      "stateMutability": "view",
      "type": "function"
    },
    {
      "inputs": [
        {
          "internalType": "uint256",
          "name": "",
          "type": "uint256"
        }
      ],
      "name": "token1ToUSDCPath",
      "outputs": [
        {
          "internalType": "address",
          "name": "",
          "type": "address"
        }
      ],
      "stateMutability": "view",
      "type": "function"
    },
    {
      "inputs": [],
      "name": "tokenUSDCAddress",
      "outputs": [
        {
          "internalType": "address",
          "name": "",
          "type": "address"
        }
      ],
      "stateMutability": "view",
      "type": "function"
    },
    {
      "inputs": [
        {
          "internalType": "address",
          "name": "newOwner",
          "type": "address"
        }
      ],
      "name": "transferOwnership",
      "outputs": [],
      "stateMutability": "nonpayable",
      "type": "function"
    },
    {
      "inputs": [],
      "name": "uniRouterAddress",
      "outputs": [
        {
          "internalType": "address",
          "name": "",
          "type": "address"
        }
      ],
      "stateMutability": "view",
      "type": "function"
    },
    {
      "inputs": [],
      "name": "unpause",
      "outputs": [],
      "stateMutability": "nonpayable",
      "type": "function"
    },
    {
      "inputs": [],
      "name": "wantAddress",
      "outputs": [
        {
          "internalType": "address",
          "name": "",
          "type": "address"
        }
      ],
      "stateMutability": "view",
      "type": "function"
    },
    {
      "inputs": [],
      "name": "wantLockedTotal",
      "outputs": [
        {
          "internalType": "uint256",
          "name": "",
          "type": "uint256"
        }
      ],
      "stateMutability": "view",
      "type": "function"
    },
    {
      "inputs": [],
      "name": "withdrawFeeFactor",
      "outputs": [
        {
          "internalType": "uint256",
          "name": "",
          "type": "uint256"
        }
      ],
      "stateMutability": "view",
      "type": "function"
    },
    {
      "inputs": [],
      "name": "withdrawFeeFactorLL",
      "outputs": [
        {
          "internalType": "uint256",
          "name": "",
          "type": "uint256"
        }
      ],
      "stateMutability": "view",
      "type": "function"
    },
    {
      "inputs": [],
      "name": "withdrawFeeFactorMax",
      "outputs": [
        {
          "internalType": "uint256",
          "name": "",
          "type": "uint256"
        }
      ],
      "stateMutability": "view",
      "type": "function"
    },
    {
      "inputs": [],
      "name": "zorroControllerAddress",
      "outputs": [
        {
          "internalType": "address",
          "name": "",
          "type": "address"
        }
      ],
      "stateMutability": "view",
      "type": "function"
    },
    {
      "inputs": [],
      "name": "zorroLPPool",
      "outputs": [
        {
          "internalType": "address",
          "name": "",
          "type": "address"
        }
      ],
      "stateMutability": "view",
      "type": "function"
    },
    {
      "inputs": [],
      "name": "zorroLPPoolOtherToken",
      "outputs": [
        {
          "internalType": "address",
          "name": "",
          "type": "address"
        }
      ],
      "stateMutability": "view",
      "type": "function"
    },
    {
      "inputs": [],
      "name": "zorroStakingVault",
      "outputs": [
        {
          "internalType": "address",
          "name": "",
          "type": "address"
        }
      ],
      "stateMutability": "view",
      "type": "function"
    },
    {
      "inputs": [],
      "name": "zorroXChainController",
      "outputs": [
        {
          "internalType": "address",
          "name": "",
          "type": "address"
        }
      ],
      "stateMutability": "view",
      "type": "function"
    },
    {
      "inputs": [
        {
          "internalType": "uint256",
          "name": "_wantAmt",
          "type": "uint256"
        }
      ],
      "name": "depositWantToken",
      "outputs": [
        {
          "internalType": "uint256",
          "name": "sharesAdded",
          "type": "uint256"
        }
      ],
      "stateMutability": "nonpayable",
      "type": "function"
    },
    {
      "inputs": [
        {
          "internalType": "uint256",
          "name": "_amountUSDC",
          "type": "uint256"
        },
        {
          "internalType": "uint256",
          "name": "_maxMarketMovementAllowed",
          "type": "uint256"
        }
      ],
      "name": "exchangeUSDForWantToken",
      "outputs": [
        {
          "internalType": "uint256",
          "name": "",
          "type": "uint256"
        }
      ],
      "stateMutability": "nonpayable",
      "type": "function"
    },
    {
      "inputs": [
        {
          "internalType": "uint256",
          "name": "_wantAmt",
          "type": "uint256"
        }
      ],
      "name": "withdrawWantToken",
      "outputs": [
        {
          "internalType": "uint256",
          "name": "sharesRemoved",
          "type": "uint256"
        }
      ],
      "stateMutability": "nonpayable",
      "type": "function"
    },
    {
      "inputs": [
        {
          "internalType": "uint256",
          "name": "_amount",
          "type": "uint256"
        },
        {
          "internalType": "uint256",
          "name": "_maxMarketMovementAllowed",
          "type": "uint256"
        }
      ],
      "name": "exchangeWantTokenForUSD",
      "outputs": [
        {
          "internalType": "uint256",
          "name": "",
          "type": "uint256"
        }
      ],
      "stateMutability": "nonpayable",
      "type": "function"
    },
    {
      "inputs": [
        {
          "internalType": "uint256",
          "name": "_maxMarketMovementAllowed",
          "type": "uint256"
        }
      ],
      "name": "earn",
      "outputs": [],
      "stateMutability": "nonpayable",
      "type": "function"
    },
    {
      "inputs": [],
      "name": "farm",
      "outputs": [],
      "stateMutability": "nonpayable",
      "type": "function"
    }
  ],
  "bytecode": "0x608060405234801561001057600080fd5b5061280b806100206000396000f3fe608060405234801561001057600080fd5b50600436106104f95760003560e01c80637ff36fbe11610299578063c4d66de811610167578063e7a03679116100d9578063f106845411610092578063f106845414610a51578063f25342bf14610a5a578063f2fde38b14610a6d578063f5046a2914610a80578063fbf5683f14610a93578063ff29b39514610aa657600080fd5b8063e7a03679146109fe578063e9e15b4f14610a11578063ebfba7c414610a24578063edf5e58514610a37578063ee50dc34146105e5578063f05c09b314610a4457600080fd5b8063cfad57a21161012b578063cfad57a21461098e578063d7cb416f146109a1578063de841991146109b4578063e502a88d146109c7578063e65a0117146109da578063e7198474146109eb57600080fd5b8063c4d66de81461092f578063c5c97cbf14610942578063c6efd57714610955578063c8479cd614610968578063c8e3d18b1461097b57600080fd5b8063a4d2b0831161020b578063b3545c01116101c4578063b3545c0114610513578063b73cba2a146108e3578063b86c5f53146108f6578063bf3a7d4014610909578063c0973eed1461091c578063c302a4d0146107f857600080fd5b8063a4d2b08314610871578063aabf190b14610884578063aada5bf614610897578063ab196def146108aa578063ae53e58a146108bd578063b1414dbb146108d057600080fd5b80638906758d1161025d5780638906758d146108015780638da5cb5b14610814578063959334f41461082557806396e9aff8146108385780639f703a561461084b5780639fc33a9f1461085e57600080fd5b80637ff36fbe146107c157806383f01939146107d45780638456cb59146107e757806385f02dd6146107ef578063866b2018146107f857600080fd5b80634ce54ddb116103d65780636392ab12116103485780636ca8bd65116103015780636ca8bd651461075a5780636f96f6fa1461076d57806370d5ae0514610780578063715018a6146107935780637153ef861461079b5780637bf604d8146107ae57600080fd5b80636392ab1214610705578063648794a41461071857806367057b6c146105e557806367206d401461072b57806368f541621461073e578063693a090b1461074757600080fd5b8063583bda3b1161039a578063583bda3b1461069b5780635c975abb146106ae5780635da79d63146106b95780635fc77d43146106cc5780636183e804146106df57806361b5bf9f146106f257600080fd5b80634ce54ddb1461064f5780634d9f7bb2146105e55780634e2cb8b61461066257806355ebedec14610675578063567e07c91461068857600080fd5b80632209b59e1161046f57806342da4eb31161043357806342da4eb3146105ff57806343788cd2146105e557806344a3955e1461060857806346008a07146106115780634b0e7216146106295780634c5b09da1461063c57600080fd5b80632209b59e146105d25780632717eff3146105e55780633214471f146105ee57806336e9332d146105115780633f4ba83a146105f757600080fd5b80631334903f116104c15780631334903f1461056f5780631755ff2114610578578063178a8d07146105a35780631b0d8aab146105ac5780631e12819a146105bf578063211019d71461051357600080fd5b806305828d3e146104fe578063061c7d48146105135780630b6bb30b1461052f5780630daef321146105425780630fa4e01e14610566575b600080fd5b61051161050c366004612444565b610ab9565b005b61051c6103e881565b6040519081526020015b60405180910390f35b61051161053d36600461246d565b610b0e565b60cb5461055690600160a81b900460ff1681565b6040519015158152602001610526565b61051c60e15481565b61051c60df5481565b60d85461058b906001600160a01b031681565b6040516001600160a01b039091168152602001610526565b61051c60dd5481565b6105116105ba36600461248a565b610b95565b6105116105cd366004612444565b610bc4565b61051c6105e036600461248a565b610c10565b61051c61271081565b61051c60de5481565b610511610d36565b61051c60e25481565b61051c60e35481565b60cb5461058b9061010090046001600160a01b031681565b610511610637366004612444565b610d6d565b61051161064a366004612444565b610db9565b60d55461058b906001600160a01b031681565b61058b61067036600461248a565b610e05565b61051c61068336600461248a565b610e2f565b610511610696366004612444565b610f9c565b6105116106a9366004612444565b610fe8565b60975460ff16610556565b6105116106c7366004612444565b611034565b60cd5461058b906001600160a01b031681565b6105116106ed366004612444565b611080565b610511610700366004612444565b6110cc565b61058b61071336600461248a565b611118565b61051c6107263660046124a3565b611128565b6105116107393660046124c5565b611269565b61051c60e05481565b60d95461058b906001600160a01b031681565b610511610768366004612444565b61133d565b60ef5461058b906001600160a01b031681565b60d65461058b906001600160a01b031681565b610511611389565b6105116107a9366004612501565b6113bd565b60da5461058b906001600160a01b031681565b60d15461058b906001600160a01b031681565b6105116107e236600461246d565b61168a565b6105116116c7565b61051c60dc5481565b61051c61232881565b61051161080f366004612444565b6116fe565b6033546001600160a01b031661058b565b610511610833366004612444565b61174a565b61058b61084636600461248a565b611796565b61058b61085936600461248a565b6117a6565b60d45461058b906001600160a01b031681565b60cf5461058b906001600160a01b031681565b60f05461058b906001600160a01b031681565b60f25461058b906001600160a01b031681565b60f15461058b906001600160a01b031681565b60ee5461058b906001600160a01b031681565b60cc5461058b906001600160a01b031681565b6105116108f1366004612444565b6117b6565b61058b61090436600461248a565b611802565b610511610917366004612444565b611812565b60d75461058b906001600160a01b031681565b61051161093d366004612444565b61185e565b61058b61095036600461248a565b61193d565b61058b61096336600461248a565b61194d565b610511610976366004612444565b61195d565b61058b61098936600461248a565b6119a9565b61051161099c366004612444565b6119b9565b60d25461058b906001600160a01b031681565b6105116109c236600461254d565b611a3e565b61051c6109d53660046124a3565b611bb1565b6105116109e836600461248a565b50565b60d35461058b906001600160a01b031681565b60d05461058b906001600160a01b031681565b610511610a1f366004612444565b611d0f565b60db5461058b906001600160a01b031681565b60c9546105569060ff1681565b60cb546105569060ff1681565b61051c60ca5481565b60ed5461058b906001600160a01b031681565b610511610a7b366004612444565b611d5b565b60ce5461058b906001600160a01b031681565b61058b610aa136600461248a565b611df3565b610511610ab4366004612580565b611e03565b6033546001600160a01b03163314610aec5760405162461bcd60e51b8152600401610ae390612606565b60405180910390fd5b60d280546001600160a01b0319166001600160a01b0392909216919091179055565b60cb5461010090046001600160a01b03163314610b3d5760405162461bcd60e51b8152600401610ae39061263b565b60cb8054821515600160a81b0260ff60a81b199091161790556040517f125177ac7b8930dac1e59c2b30b1b6b9191b30af40cf6bbb5d20fec4d44be60f90610b8a90831515815260200190565b60405180910390a150565b6033546001600160a01b03163314610bbf5760405162461bcd60e51b8152600401610ae390612606565b60ca55565b6033546001600160a01b03163314610bee5760405162461bcd60e51b8152600401610ae390612606565b60d580546001600160a01b0319166001600160a01b0392909216919091179055565b60cc546000906001600160a01b0316336001600160a01b031614610c465760405162461bcd60e51b8152600401610ae390612659565b60026065541415610c995760405162461bcd60e51b815260206004820152601f60248201527f5265656e7472616e637947756172643a207265656e7472616e742063616c6c006044820152606401610ae3565b600260655560975460ff1615610cc15760405162461bcd60e51b8152600401610ae390612683565b60d65460d054610ce0916001600160a01b039182169133911685611f07565b60e354610ced9083611f72565b60e35560e254610cfd9083611f72565b60e25560405182907fed8a5d040a303ca26fe1ff3b89300b41889113eee6fbc208be0fbbecdcb97d6490600090a250600160655590565b565b60cb5461010090046001600160a01b03163314610d655760405162461bcd60e51b8152600401610ae39061263b565b610d34611f85565b6033546001600160a01b03163314610d975760405162461bcd60e51b8152600401610ae390612606565b60d680546001600160a01b0319166001600160a01b0392909216919091179055565b6033546001600160a01b03163314610de35760405162461bcd60e51b8152600401610ae390612606565b60d480546001600160a01b0319166001600160a01b0392909216919091179055565b60e78181548110610e1557600080fd5b6000918252602090912001546001600160a01b0316905081565b60cc546000906001600160a01b0316336001600160a01b031614610e655760405162461bcd60e51b8152600401610ae390612659565b60026065541415610eb85760405162461bcd60e51b815260206004820152601f60248201527f5265656e7472616e637947756172643a207265656e7472616e742063616c6c006044820152606401610ae3565b600260655560975460ff1615610ee05760405162461bcd60e51b8152600401610ae390612683565b60e354610eed9083612018565b60e35560e254610efd9083612018565b60e25560d0546040516340c10f1960e01b8152336004820152602481018490526001600160a01b03909116906340c10f1990604401600060405180830381600087803b158015610f4c57600080fd5b505af1158015610f60573d6000803e3d6000fd5b5050604051600093508492507fa8552e40720f0b5ef4eb2b654e8235c6b225d370dcb6fa7681001ebde9ccd52791508390a26001606555919050565b6033546001600160a01b03163314610fc65760405162461bcd60e51b8152600401610ae390612606565b60cd80546001600160a01b0319166001600160a01b0392909216919091179055565b6033546001600160a01b031633146110125760405162461bcd60e51b8152600401610ae390612606565b60ce80546001600160a01b0319166001600160a01b0392909216919091179055565b6033546001600160a01b0316331461105e5760405162461bcd60e51b8152600401610ae390612606565b60d980546001600160a01b0319166001600160a01b0392909216919091179055565b6033546001600160a01b031633146110aa5760405162461bcd60e51b8152600401610ae390612606565b60d080546001600160a01b0319166001600160a01b0392909216919091179055565b6033546001600160a01b031633146110f65760405162461bcd60e51b8152600401610ae390612606565b60da80546001600160a01b0319166001600160a01b0392909216919091179055565b60ea8181548110610e1557600080fd5b60cc546000906001600160a01b0316336001600160a01b03161461115e5760405162461bcd60e51b8152600401610ae390612659565b60975460ff16156111815760405162461bcd60e51b8152600401610ae390612683565b600082116111d15760405162461bcd60e51b815260206004820152601d60248201527f63616e6e6f74206861766520696e66696e69746520736c6970706167650000006044820152606401610ae3565b60d5546040516340c10f1960e01b8152336004820152602481018590526001600160a01b03909116906340c10f1990604401600060405180830381600087803b15801561121d57600080fd5b505af1158015611231573d6000803e3d6000fd5b50506040518592508291507f2afee031d4753be9a5472c91e97f912c1ecd6d686a8a0d3bf6157a27ac49ebf290600090a35090919050565b60cb5461010090046001600160a01b031633146112985760405162461bcd60e51b8152600401610ae39061263b565b60d3546001600160a01b03848116911614156112de5760405162461bcd60e51b8152602060048201526005602482015264217361666560d81b6044820152606401610ae3565b60d0546001600160a01b03848116911614156113245760405162461bcd60e51b8152602060048201526005602482015264217361666560d81b6044820152606401610ae3565b6113386001600160a01b0384168284612024565b505050565b6033546001600160a01b031633146113675760405162461bcd60e51b8152600401610ae390612606565b60cf80546001600160a01b0319166001600160a01b0392909216919091179055565b6033546001600160a01b031633146113b35760405162461bcd60e51b8152600401610ae390612606565b610d346000612054565b60cb5461010090046001600160a01b031633146113ec5760405162461bcd60e51b8152600401610ae39061263b565b61232885101561143e5760405162461bcd60e51b815260206004820152601a60248201527f5f656e7472616e6365466565466163746f7220746f6f206c6f770000000000006044820152606401610ae3565b6127108511156114905760405162461bcd60e51b815260206004820152601b60248201527f5f656e7472616e6365466565466163746f7220746f6f206869676800000000006044820152606401610ae3565b60df8590556123288410156114e75760405162461bcd60e51b815260206004820152601a60248201527f5f7769746864726177466565466163746f7220746f6f206c6f770000000000006044820152606401610ae3565b6127108411156115395760405162461bcd60e51b815260206004820152601b60248201527f5f7769746864726177466565466163746f7220746f6f206869676800000000006044820152606401610ae3565b60e08490556103e88311156115905760405162461bcd60e51b815260206004820152601760248201527f5f636f6e74726f6c6c657246656520746f6f20686967680000000000000000006044820152606401610ae3565b60dc8390556103e88211156115df5760405162461bcd60e51b81526020600482015260156024820152740bec4eaf284c2c6d6a4c2e8ca40e8dede40d0d2ced605b1b6044820152606401610ae3565b60dd8290556103e881111561162f5760405162461bcd60e51b81526020600482015260166024820152750bee4caeca6d0c2e4caa4c2e8ca40e8dede40d0d2ced60531b6044820152606401610ae3565b60de819055604080518681526020810186905290810184905260608101839052608081018290527fc67e0b149a57a70fa44a531a46c2c6d8e0b242fa12f459f250012c3a5987d29a9060a00160405180910390a15050505050565b6033546001600160a01b031633146116b45760405162461bcd60e51b8152600401610ae390612606565b60cb805460ff1916911515919091179055565b60cb5461010090046001600160a01b031633146116f65760405162461bcd60e51b8152600401610ae39061263b565b610d346120a6565b6033546001600160a01b031633146117285760405162461bcd60e51b8152600401610ae390612606565b60d780546001600160a01b0319166001600160a01b0392909216919091179055565b6033546001600160a01b031633146117745760405162461bcd60e51b8152600401610ae390612606565b60db80546001600160a01b0319166001600160a01b0392909216919091179055565b60e98181548110610e1557600080fd5b60ec8181548110610e1557600080fd5b6033546001600160a01b031633146117e05760405162461bcd60e51b8152600401610ae390612606565b60d380546001600160a01b0319166001600160a01b0392909216919091179055565b60e48181548110610e1557600080fd5b6033546001600160a01b0316331461183c5760405162461bcd60e51b8152600401610ae390612606565b60cc80546001600160a01b0319166001600160a01b0392909216919091179055565b600054610100900460ff166118795760005460ff161561187d565b303b155b6118e05760405162461bcd60e51b815260206004820152602e60248201527f496e697469616c697a61626c653a20636f6e747261637420697320616c72656160448201526d191e481a5b9a5d1a585b1a5e995960921b6064820152608401610ae3565b600054610100900460ff16158015611902576000805461ffff19166101011790555b61190a6120fe565b61191382611d5b565b60d680546001600160a01b03191661dead1790558015611939576000805461ff00191690555b5050565b60e58181548110610e1557600080fd5b60e68181548110610e1557600080fd5b6033546001600160a01b031633146119875760405162461bcd60e51b8152600401610ae390612606565b60d180546001600160a01b0319166001600160a01b0392909216919091179055565b60e88181548110610e1557600080fd5b60cb5461010090046001600160a01b031633146119e85760405162461bcd60e51b8152600401610ae39061263b565b60cb8054610100600160a81b0319166101006001600160a01b038416908102919091179091556040519081527f91a8c1cc2d4a3bb60738481947a00cbb9899c822916694cf8bb1d68172fdcd5490602001610b8a565b6033546001600160a01b03163314611a685760405162461bcd60e51b8152600401610ae390612606565b60ff8216611a915760ed80546001600160a01b0383166001600160a01b03199091161790555050565b8160ff1660011415611abe5760ee80546001600160a01b0383166001600160a01b03199091161790555050565b8160ff1660021415611aeb5760ef80546001600160a01b0383166001600160a01b03199091161790555050565b8160ff1660031415611b185760f180546001600160a01b0383166001600160a01b03199091161790555050565b8160ff1660041415611b455760f080546001600160a01b0383166001600160a01b03199091161790555050565b8160ff1660051415611b725760f280546001600160a01b0383166001600160a01b03199091161790555050565b60405162461bcd60e51b81526020600482015260146024820152730eadce6eae0e0dee4e8cac840cccacac840d2c8f60631b6044820152606401610ae3565b60cc546000906001600160a01b0316336001600160a01b031614611be75760405162461bcd60e51b8152600401610ae390612659565b60975460ff1615611c0a5760405162461bcd60e51b8152600401610ae390612683565b60008211611c5a5760405162461bcd60e51b815260206004820152601b60248201527f736c6970706167652063616e6e6f7420626520696e66696e69746500000000006044820152606401610ae3565b60d65460d554611c77916001600160a01b03918216911685612024565b60d0546040516340c10f1960e01b8152336004820152602481018590526001600160a01b03909116906340c10f1990604401600060405180830381600087803b158015611cc357600080fd5b505af1158015611cd7573d6000803e3d6000fd5b50506040518592508291507f4866b7d53b48d9254194225625d7eae8b6d95ffdaf8df33b5eb4f60a794cea0790600090a35090919050565b6033546001600160a01b03163314611d395760405162461bcd60e51b8152600401610ae390612606565b60d880546001600160a01b0319166001600160a01b0392909216919091179055565b6033546001600160a01b03163314611d855760405162461bcd60e51b8152600401610ae390612606565b6001600160a01b038116611dea5760405162461bcd60e51b815260206004820152602660248201527f4f776e61626c653a206e6577206f776e657220697320746865207a65726f206160448201526564647265737360d01b6064820152608401610ae3565b6109e881612054565b60eb8181548110610e1557600080fd5b6033546001600160a01b03163314611e2d5760405162461bcd60e51b8152600401610ae390612606565b60ff8316611e4757611e4160e483836123b0565b50505050565b8260ff1660011415611e5f57611e4160e583836123b0565b8260ff1660021415611e7757611e4160e683836123b0565b8260ff1660031415611e8f57611e4160e783836123b0565b8260ff1660041415611ea757611e4160e883836123b0565b8260ff1660051415611ebf57611e4160e983836123b0565b8260ff1660061415611ed757611e4160ea83836123b0565b8260ff1660071415611eef57611e4160eb83836123b0565b8260ff1660081415611b7257611e4160ec83836123b0565b6040516001600160a01b0380851660248301528316604482015260648101829052611e419085906323b872dd60e01b906084015b60408051601f198184030181529190526020810180516001600160e01b03166001600160e01b03199093169290921790915261212d565b6000611f7e82846126c3565b9392505050565b60975460ff16611fce5760405162461bcd60e51b815260206004820152601460248201527314185d5cd8589b194e881b9bdd081c185d5cd95960621b6044820152606401610ae3565b6097805460ff191690557f5db9ee0a495bf2e6ff9c91a7834c1ba4fdd244a5e8aa4e537bd38aeae4b073aa335b6040516001600160a01b03909116815260200160405180910390a1565b6000611f7e82846126db565b6040516001600160a01b03831660248201526044810182905261133890849063a9059cbb60e01b90606401611f3b565b603380546001600160a01b038381166001600160a01b0319831681179093556040519116919082907f8be0079c531659141344cd1fd0a4f28419497f9722a3daafe3b4186f6b6457e090600090a35050565b60975460ff16156120c95760405162461bcd60e51b8152600401610ae390612683565b6097805460ff191660011790557f62e78cea01bee320cd4e420270b5ea74000d11b0c9f74754ebdbfc544b05a258611ffb3390565b600054610100900460ff166121255760405162461bcd60e51b8152600401610ae3906126f2565b610d346121ff565b6000612182826040518060400160405280602081526020017f5361666545524332303a206c6f772d6c6576656c2063616c6c206661696c6564815250856001600160a01b031661222f9092919063ffffffff16565b80519091501561133857808060200190518101906121a0919061273d565b6113385760405162461bcd60e51b815260206004820152602a60248201527f5361666545524332303a204552433230206f7065726174696f6e20646964206e6044820152691bdd081cdd58d8d9595960b21b6064820152608401610ae3565b600054610100900460ff166122265760405162461bcd60e51b8152600401610ae3906126f2565b610d3433612054565b606061223e8484600085612246565b949350505050565b6060824710156122a75760405162461bcd60e51b815260206004820152602660248201527f416464726573733a20696e73756666696369656e742062616c616e636520666f6044820152651c8818d85b1b60d21b6064820152608401610ae3565b6001600160a01b0385163b6122fe5760405162461bcd60e51b815260206004820152601d60248201527f416464726573733a2063616c6c20746f206e6f6e2d636f6e74726163740000006044820152606401610ae3565b600080866001600160a01b0316858760405161231a9190612786565b60006040518083038185875af1925050503d8060008114612357576040519150601f19603f3d011682016040523d82523d6000602084013e61235c565b606091505b509150915061236c828286612377565b979650505050505050565b60608315612386575081611f7e565b8251156123965782518084602001fd5b8160405162461bcd60e51b8152600401610ae391906127a2565b828054828255906000526020600020908101928215612403579160200282015b828111156124035781546001600160a01b0319166001600160a01b038435161782556020909201916001909101906123d0565b5061240f929150612413565b5090565b5b8082111561240f5760008155600101612414565b80356001600160a01b038116811461243f57600080fd5b919050565b60006020828403121561245657600080fd5b611f7e82612428565b80151581146109e857600080fd5b60006020828403121561247f57600080fd5b8135611f7e8161245f565b60006020828403121561249c57600080fd5b5035919050565b600080604083850312156124b657600080fd5b50508035926020909101359150565b6000806000606084860312156124da57600080fd5b6124e384612428565b9250602084013591506124f860408501612428565b90509250925092565b600080600080600060a0868803121561251957600080fd5b505083359560208501359550604085013594606081013594506080013592509050565b803560ff8116811461243f57600080fd5b6000806040838503121561256057600080fd5b6125698361253c565b915061257760208401612428565b90509250929050565b60008060006040848603121561259557600080fd5b61259e8461253c565b9250602084013567ffffffffffffffff808211156125bb57600080fd5b818601915086601f8301126125cf57600080fd5b8135818111156125de57600080fd5b8760208260051b85010111156125f357600080fd5b6020830194508093505050509250925092565b6020808252818101527f4f776e61626c653a2063616c6c6572206973206e6f7420746865206f776e6572604082015260600190565b60208082526004908201526310b3b7bb60e11b604082015260600190565b60208082526010908201526f10bd37b93937a1b7b73a3937b63632b960811b604082015260600190565b60208082526010908201526f14185d5cd8589b194e881c185d5cd95960821b604082015260600190565b634e487b7160e01b600052601160045260246000fd5b600082198211156126d6576126d66126ad565b500190565b6000828210156126ed576126ed6126ad565b500390565b6020808252602b908201527f496e697469616c697a61626c653a20636f6e7472616374206973206e6f74206960408201526a6e697469616c697a696e6760a81b606082015260800190565b60006020828403121561274f57600080fd5b8151611f7e8161245f565b60005b8381101561277557818101518382015260200161275d565b83811115611e415750506000910152565b6000825161279881846020870161275a565b9190910192915050565b60208152600082518060208401526127c181604085016020870161275a565b601f01601f1916919091016040019291505056fea26469706673582212204bb17a5947bc51bd46cdf58350a46616508a7eae57d218e85c62eaa46e95e77864736f6c634300080a0033",
  "immutableReferences": {},
  "source": "// SPDX-License-Identifier: MIT\n\npragma solidity ^0.8.0;\n\nimport \"../ZorroController.sol\";\n\nimport \"../../vaults/_VaultBase.sol\";\n\nimport \"../../tokens/mocks/MockToken.sol\";\n\nimport \"../../vaults/VaultLibrary.sol\";\n\ncontract MockZorroController is ZorroController {\n    event UpdatedPool(uint256 indexed _amount);\n    event HandledRewards(uint256 indexed _rewardsDue);\n\n    function addTranche(\n        uint256 _pid,\n        address _account,\n        TrancheInfo memory _trancheInfo\n    ) public {\n        trancheInfo[_pid][_account].push(_trancheInfo);\n        poolInfo[_pid].totalTrancheContributions =\n            poolInfo[_pid].totalTrancheContributions +\n            _trancheInfo.contribution;\n    }\n\n    function setLastRewardBlock(uint256 _pid, uint256 _block) public {\n        poolInfo[_pid].lastRewardBlock = _block;\n    }\n\n    function updatePoolMod(uint256 _pid) public {\n        uint256 _res = updatePool(_pid);\n\n        emit UpdatedPool(_res);\n    }\n\n    function withdrawMod(\n        uint256 _pid,\n        address _localAccount,\n        bytes memory _foreignAccount,\n        uint256 _trancheId,\n        bool _harvestOnly,\n        bool _xChainRepatriation\n    ) public returns (WithdrawalResult memory _res) {\n        _res = _withdraw(\n            _pid,\n            _localAccount,\n            _foreignAccount,\n            _trancheId,\n            _harvestOnly,\n            _xChainRepatriation\n        );\n        emit HandledRewards(_res.rewardsDueXChain);\n    }\n\n    function _fetchFundsFromPublicPool(uint256 _amount, address _destination)\n        internal\n        override\n    {\n        // Do nothing. Dummy func.\n    }\n\n    function recordMintedRewards(uint256 _mintedRewards)\n        public\n        nonHomeChainOnly\n    {\n        _recordMintedRewards(_mintedRewards);\n    }\n\n    function recordSlashedRewards(uint256 _slashedRewards)\n        public\n        nonHomeChainOnly\n    {\n        _recordSlashedRewards(_slashedRewards);\n    }\n}\n\ncontract MockInvestmentVault is VaultBase {\n    using SafeERC20Upgradeable for IERC20Upgradeable;\n    using SafeMathUpgradeable for uint256;\n\n    event DepositedWant(uint256 indexed _wantAmt);\n    event ExchangedUSDCForWant(\n        uint256 indexed _amountUSDC,\n        uint256 indexed _amountWant\n    );\n    event WithdrewWant(uint256 indexed _wantAmt);\n    event ExchangedWantForUSDC(\n        uint256 indexed _amountWant,\n        uint256 indexed _amountUSDC\n    );\n\n    function depositWantToken(uint256 _wantAmt)\n        public\n        override\n        onlyZorroController\n        nonReentrant\n        whenNotPaused\n        returns (uint256 sharesAdded)\n    {\n        IERC20Upgradeable(wantAddress).safeTransferFrom(\n            msg.sender,\n            burnAddress,\n            _wantAmt\n        );\n\n        sharesTotal = sharesTotal.add(_wantAmt);\n\n        wantLockedTotal = wantLockedTotal.add(_wantAmt);\n\n        emit DepositedWant(_wantAmt);\n\n        return _wantAmt;\n    }\n\n    function exchangeUSDForWantToken(\n        uint256 _amountUSDC,\n        uint256 _maxMarketMovementAllowed\n    ) public override onlyZorroController whenNotPaused returns (uint256) {\n        require(_maxMarketMovementAllowed > 0, \"slippage cannot be infinite\");\n\n        IERC20Upgradeable(tokenUSDCAddress).safeTransfer(\n            burnAddress,\n            _amountUSDC\n        );\n        // Assume 1:1 exch rate\n        MockERC20Upgradeable(wantAddress).mint(msg.sender, _amountUSDC);\n\n        emit ExchangedUSDCForWant(_amountUSDC, _amountUSDC);\n\n        return _amountUSDC;\n    }\n\n    function withdrawWantToken(uint256 _wantAmt)\n        public\n        override\n        onlyZorroController\n        nonReentrant\n        whenNotPaused\n        returns (uint256 sharesRemoved)\n    {\n        sharesTotal = sharesTotal.sub(_wantAmt);\n\n        wantLockedTotal = wantLockedTotal.sub(_wantAmt);\n\n        MockERC20Upgradeable(wantAddress).mint(msg.sender, _wantAmt);\n\n        sharesRemoved = 0;\n\n        emit WithdrewWant(_wantAmt);\n    }\n\n    function exchangeWantTokenForUSD(\n        uint256 _amount,\n        uint256 _maxMarketMovementAllowed\n    )\n        public\n        virtual\n        override\n        onlyZorroController\n        whenNotPaused\n        returns (uint256)\n    {\n        // Requirements\n        require(_maxMarketMovementAllowed > 0, \"cannot have infinite slippage\");\n        // Assume 1:1 exch rate\n        MockERC20Upgradeable(tokenUSDCAddress).mint(msg.sender, _amount);\n\n        emit ExchangedWantForUSDC(_amount, _amount);\n\n        return _amount;\n    }\n\n    function earn(uint256 _maxMarketMovementAllowed) public override {}\n\n    function _buybackOnChain(\n        uint256 _amount,\n        uint256 _maxMarketMovementAllowed,\n        VaultLibrary.ExchangeRates memory _rates\n    ) internal override {}\n\n    function _revShareOnChain(\n        uint256 _amount,\n        uint256 _maxMarketMovementAllowed,\n        VaultLibrary.ExchangeRates memory _rates\n    ) internal override {}\n\n    function _swapEarnedToUSDC(\n        uint256 _earnedAmount,\n        address _destination,\n        uint256 _maxMarketMovementAllowed,\n        VaultLibrary.ExchangeRates memory _rates\n    ) internal override {}\n\n    function farm() external {}\n}\n\ncontract MockInvestmentVault1 is MockInvestmentVault {}\n",
  "sourcePath": "/Users/kristophm/Documents/workspace/zorro-protocol/contracts/controllers/mocks/MockZorroController.sol",
  "compiler": {
    "name": "solc",
    "version": "0.8.10+commit.fc410830.Emscripten.clang"
  },
  "schemaVersion": "3.4.4",
  "updatedAt": "2022-08-21T17:21:14.131Z",
  "devdoc": {
    "kind": "dev",
    "methods": {
      "inCaseTokensGetStuck(address,uint256,address)": {
        "params": {
          "_amount": "The amount of the tokens to transfer",
          "_to": "The address to transfer tokens to",
          "_token": "Address of the ERC20 token to transfer"
        }
      },
      "owner()": {
        "details": "Returns the address of the current owner."
      },
      "paused()": {
        "details": "Returns true if the contract is paused, and false otherwise."
      },
      "renounceOwnership()": {
        "details": "Leaves the contract without owner. It will not be possible to call `onlyOwner` functions anymore. Can only be called by the current owner. NOTE: Renouncing ownership will leave the contract without an owner, thereby removing any functionality that is only available to the owner."
      },
      "setFeeSettings(uint256,uint256,uint256,uint256,uint256)": {
        "params": {
          "_buyBackRate": "Buy back rate fee numerator",
          "_controllerFee": "Controller fee numerator",
          "_entranceFeeFactor": "Entrance fee numerator (higher means smaller percentage)",
          "_revShareRate": "Rev share rate fee numerator",
          "_withdrawFeeFactor": "Withdrawal fee numerator (higher means smaller percentage)"
        }
      },
      "setGov(address)": {
        "params": {
          "_govAddress": "The new gov address"
        }
      },
      "setOnlyGov(bool)": {
        "params": {
          "_onlyGov": "whether onlyGov should be enforced"
        }
      },
      "transferOwnership(address)": {
        "details": "Transfers ownership of the contract to a new account (`newOwner`). Can only be called by the current owner."
      }
    },
    "version": 1
  },
  "userdoc": {
    "kind": "user",
    "methods": {
      "inCaseTokensGetStuck(address,uint256,address)": {
        "notice": "Safely transfer ERC20 tokens stuck in this contract to a specified address"
      },
      "pause()": {
        "notice": "Pause contract"
      },
      "setFeeSettings(uint256,uint256,uint256,uint256,uint256)": {
        "notice": "Configure key fee parameters"
      },
      "setGov(address)": {
        "notice": "Set governor address"
      },
      "setOnlyGov(bool)": {
        "notice": "Set onlyGov property"
      },
      "unpause()": {
        "notice": "Unpause contract"
      }
    },
    "version": 1
  }
}