{
  "contractName": "MockStargatePool",
  "abi": [
    {
      "anonymous": false,
      "inputs": [
        {
          "indexed": true,
          "internalType": "address",
          "name": "owner",
          "type": "address"
        },
        {
          "indexed": true,
          "internalType": "address",
          "name": "spender",
          "type": "address"
        },
        {
          "indexed": false,
          "internalType": "uint256",
          "name": "value",
          "type": "uint256"
        }
      ],
      "name": "Approval",
      "type": "event"
    },
    {
      "anonymous": false,
      "inputs": [
        {
          "indexed": true,
          "internalType": "address",
          "name": "from",
          "type": "address"
        },
        {
          "indexed": true,
          "internalType": "address",
          "name": "to",
          "type": "address"
        },
        {
          "indexed": false,
          "internalType": "uint256",
          "name": "value",
          "type": "uint256"
        }
      ],
      "name": "Transfer",
      "type": "event"
    },
    {
      "inputs": [
        {
          "internalType": "address",
          "name": "owner",
          "type": "address"
        },
        {
          "internalType": "address",
          "name": "spender",
          "type": "address"
        }
      ],
      "name": "allowance",
      "outputs": [
        {
          "internalType": "uint256",
          "name": "",
          "type": "uint256"
        }
      ],
      "stateMutability": "view",
      "type": "function"
    },
    {
      "inputs": [
        {
          "internalType": "address",
          "name": "spender",
          "type": "address"
        },
        {
          "internalType": "uint256",
          "name": "amount",
          "type": "uint256"
        }
      ],
      "name": "approve",
      "outputs": [
        {
          "internalType": "bool",
          "name": "",
          "type": "bool"
        }
      ],
      "stateMutability": "nonpayable",
      "type": "function"
    },
    {
      "inputs": [
        {
          "internalType": "address",
          "name": "account",
          "type": "address"
        }
      ],
      "name": "balanceOf",
      "outputs": [
        {
          "internalType": "uint256",
          "name": "",
          "type": "uint256"
        }
      ],
      "stateMutability": "view",
      "type": "function"
    },
    {
      "inputs": [],
      "name": "decimals",
      "outputs": [
        {
          "internalType": "uint8",
          "name": "",
          "type": "uint8"
        }
      ],
      "stateMutability": "view",
      "type": "function"
    },
    {
      "inputs": [
        {
          "internalType": "address",
          "name": "spender",
          "type": "address"
        },
        {
          "internalType": "uint256",
          "name": "subtractedValue",
          "type": "uint256"
        }
      ],
      "name": "decreaseAllowance",
      "outputs": [
        {
          "internalType": "bool",
          "name": "",
          "type": "bool"
        }
      ],
      "stateMutability": "nonpayable",
      "type": "function"
    },
    {
      "inputs": [
        {
          "internalType": "address",
          "name": "spender",
          "type": "address"
        },
        {
          "internalType": "uint256",
          "name": "addedValue",
          "type": "uint256"
        }
      ],
      "name": "increaseAllowance",
      "outputs": [
        {
          "internalType": "bool",
          "name": "",
          "type": "bool"
        }
      ],
      "stateMutability": "nonpayable",
      "type": "function"
    },
    {
      "inputs": [
        {
          "internalType": "address",
          "name": "_account",
          "type": "address"
        },
        {
          "internalType": "uint256",
          "name": "_amount",
          "type": "uint256"
        }
      ],
      "name": "mint",
      "outputs": [],
      "stateMutability": "nonpayable",
      "type": "function"
    },
    {
      "inputs": [],
      "name": "name",
      "outputs": [
        {
          "internalType": "string",
          "name": "",
          "type": "string"
        }
      ],
      "stateMutability": "view",
      "type": "function"
    },
    {
      "inputs": [],
      "name": "symbol",
      "outputs": [
        {
          "internalType": "string",
          "name": "",
          "type": "string"
        }
      ],
      "stateMutability": "view",
      "type": "function"
    },
    {
      "inputs": [],
      "name": "totalSupply",
      "outputs": [
        {
          "internalType": "uint256",
          "name": "",
          "type": "uint256"
        }
      ],
      "stateMutability": "view",
      "type": "function"
    },
    {
      "inputs": [
        {
          "internalType": "address",
          "name": "to",
          "type": "address"
        },
        {
          "internalType": "uint256",
          "name": "amount",
          "type": "uint256"
        }
      ],
      "name": "transfer",
      "outputs": [
        {
          "internalType": "bool",
          "name": "",
          "type": "bool"
        }
      ],
      "stateMutability": "nonpayable",
      "type": "function"
    },
    {
      "inputs": [
        {
          "internalType": "address",
          "name": "from",
          "type": "address"
        },
        {
          "internalType": "address",
          "name": "to",
          "type": "address"
        },
        {
          "internalType": "uint256",
          "name": "amount",
          "type": "uint256"
        }
      ],
      "name": "transferFrom",
      "outputs": [
        {
          "internalType": "bool",
          "name": "",
          "type": "bool"
        }
      ],
      "stateMutability": "nonpayable",
      "type": "function"
    }
  ],
  "bytecode": "0x608060405234801561001057600080fd5b50610ad7806100206000396000f3fe608060405234801561001057600080fd5b50600436106100d1576000357c01000000000000000000000000000000000000000000000000000000009004806340c10f191161008e57806340c10f191461015e57806370a082311461017357806395d89b411461019c578063a457c2d7146101a4578063a9059cbb146101b7578063dd62ed3e146101ca57600080fd5b806306fdde03146100d6578063095ea7b3146100f457806318160ddd1461011757806323b872dd14610129578063313ce5671461013c578063395093511461014b575b600080fd5b6100de610203565b6040516100eb91906108e2565b60405180910390f35b610107610102366004610953565b610295565b60405190151581526020016100eb565b6035545b6040519081526020016100eb565b61010761013736600461097d565b6102ad565b604051601281526020016100eb565b610107610159366004610953565b6102d1565b61017161016c366004610953565b610310565b005b61011b6101813660046109b9565b600160a060020a031660009081526033602052604090205490565b6100de61031e565b6101076101b2366004610953565b61032d565b6101076101c5366004610953565b6103df565b61011b6101d83660046109db565b600160a060020a03918216600090815260346020908152604080832093909416825291909152205490565b60606036805461021290610a0e565b80601f016020809104026020016040519081016040528092919081815260200182805461023e90610a0e565b801561028b5780601f106102605761010080835404028352916020019161028b565b820191906000526020600020905b81548152906001019060200180831161026e57829003601f168201915b5050505050905090565b6000336102a38185856103ed565b5060019392505050565b6000336102bb85828561054b565b6102c68585856105e0565b506001949350505050565b336000818152603460209081526040808320600160a060020a03871684529091528120549091906102a3908290869061030b908790610a62565b6103ed565b61031a8282610800565b5050565b60606037805461021290610a0e565b336000818152603460209081526040808320600160a060020a0387168452909152812054909190838110156103d25760405160e560020a62461bcd02815260206004820152602560248201527f45524332303a2064656372656173656420616c6c6f77616e63652062656c6f7760448201527f207a65726f00000000000000000000000000000000000000000000000000000060648201526084015b60405180910390fd5b6102c682868684036103ed565b6000336102a38185856105e0565b600160a060020a03831661046b5760405160e560020a62461bcd028152602060048201526024808201527f45524332303a20617070726f76652066726f6d20746865207a65726f2061646460448201527f726573730000000000000000000000000000000000000000000000000000000060648201526084016103c9565b600160a060020a0382166104ea5760405160e560020a62461bcd02815260206004820152602260248201527f45524332303a20617070726f766520746f20746865207a65726f20616464726560448201527f737300000000000000000000000000000000000000000000000000000000000060648201526084016103c9565b600160a060020a0383811660008181526034602090815260408083209487168084529482529182902085905590518481527f8c5be1e5ebec7d5bd14f71427d1e84f3dd0314c0f7b2291e5b200ac8c7c3b925910160405180910390a3505050565b600160a060020a0383811660009081526034602090815260408083209386168352929052205460001981146105da57818110156105cd5760405160e560020a62461bcd02815260206004820152601d60248201527f45524332303a20696e73756666696369656e7420616c6c6f77616e636500000060448201526064016103c9565b6105da84848484036103ed565b50505050565b600160a060020a03831661065f5760405160e560020a62461bcd02815260206004820152602560248201527f45524332303a207472616e736665722066726f6d20746865207a65726f20616460448201527f647265737300000000000000000000000000000000000000000000000000000060648201526084016103c9565b600160a060020a0382166106de5760405160e560020a62461bcd02815260206004820152602360248201527f45524332303a207472616e7366657220746f20746865207a65726f206164647260448201527f657373000000000000000000000000000000000000000000000000000000000060648201526084016103c9565b600160a060020a038316600090815260336020526040902054818110156107705760405160e560020a62461bcd02815260206004820152602660248201527f45524332303a207472616e7366657220616d6f756e742065786365656473206260448201527f616c616e6365000000000000000000000000000000000000000000000000000060648201526084016103c9565b600160a060020a038085166000908152603360205260408082208585039055918516815290812080548492906107a7908490610a62565b9250508190555082600160a060020a031684600160a060020a03167fddf252ad1be2c89b69c2b068fc378daa952ba7f163c4a11628f55a4df523b3ef846040516107f391815260200190565b60405180910390a36105da565b600160a060020a0382166108595760405160e560020a62461bcd02815260206004820152601f60248201527f45524332303a206d696e7420746f20746865207a65726f20616464726573730060448201526064016103c9565b806035600082825461086b9190610a62565b9091555050600160a060020a03821660009081526033602052604081208054839290610898908490610a62565b9091555050604051818152600160a060020a038316906000907fddf252ad1be2c89b69c2b068fc378daa952ba7f163c4a11628f55a4df523b3ef9060200160405180910390a35050565b600060208083528351808285015260005b8181101561090f578581018301518582016040015282016108f3565b81811115610921576000604083870101525b50601f01601f1916929092016040019392505050565b8035600160a060020a038116811461094e57600080fd5b919050565b6000806040838503121561096657600080fd5b61096f83610937565b946020939093013593505050565b60008060006060848603121561099257600080fd5b61099b84610937565b92506109a960208501610937565b9150604084013590509250925092565b6000602082840312156109cb57600080fd5b6109d482610937565b9392505050565b600080604083850312156109ee57600080fd5b6109f783610937565b9150610a0560208401610937565b90509250929050565b600281046001821680610a2257607f821691505b60208210811415610a5c577f4e487b7100000000000000000000000000000000000000000000000000000000600052602260045260246000fd5b50919050565b60008219821115610a9c577f4e487b7100000000000000000000000000000000000000000000000000000000600052601160045260246000fd5b50019056fea2646970667358221220519f432656874035605783a44f3342d55747723488f1b1e0568c12fcd3c5bdd364736f6c634300080a0033",
  "immutableReferences": {},
  "source": "// SPDX-License-Identifier: MIT\n\npragma solidity ^0.8.0;\n\nimport \"../VaultStargate.sol\";\n\nimport \"../../tokens/mocks/MockToken.sol\";\n\n// import \"../libraries/VaultLibrary.sol\";\n\ncontract MockVaultStargate is VaultStargate {\n    function unfarm(uint256 _wantAmt) public {\n        _unfarm(_wantAmt);\n    }\n}\n\ncontract MockStargateRouter is IStargateRouter, MockERC20Upgradeable {\n    using SafeERC20Upgradeable for IERC20Upgradeable;\n\n    address public burnAddress;\n    address public stargatePool;\n    address public asset;\n    uint256 private _dummy; // Satisfy compiler state mutability warnings\n\n    function setBurnAddress(address _burnAddress) public {\n        burnAddress = _burnAddress;\n    }\n\n    function setStargatePool(address _pool) public {\n        stargatePool = _pool;\n    }\n\n    function setAsset(address _token) public {\n        asset = _token;\n    }\n\n    event SwappedToken(\n        address indexed _dest,\n        uint256 indexed _amountIn,\n        uint256 indexed _amountOutMin\n    );\n\n    event AddedLiquidity(uint256 indexed _amount, uint256 indexed _liquidity);\n\n    event RemovedLiquidity(uint256 indexed _amount);\n\n    event SgSwapped(uint256 indexed _chainId, uint256 indexed _qty, bytes indexed _dstContract);\n\n    function addLiquidity(\n        uint256 _poolId,\n        uint256 _amountLD,\n        address _to\n    ) external {\n        // Reqs\n        require(_poolId >= 0);\n\n        // Transfer funds & burn\n        IERC20Upgradeable(asset).safeTransferFrom(\n            msg.sender,\n            burnAddress,\n            _amountLD\n        );\n\n        // Mint some LP token\n        uint256 _liquidity = 1 ether; // Hard code 1 token for simplicity\n        // Transfer LP token\n        IMockERC20Upgradeable(stargatePool).mint(_to, _liquidity);\n        // Log liquidity addition\n        emit AddedLiquidity(_amountLD, _liquidity);\n    }\n\n    function swap(\n        uint16 _dstChainId,\n        uint256 _srcPoolId,\n        uint256 _dstPoolId,\n        address payable _refundAddress,\n        uint256 _amountLD,\n        uint256 _minAmountLD,\n        lzTxObj memory _lzTxParams,\n        bytes calldata _to,\n        bytes calldata _payload\n    ) external payable {\n        // Reqs\n        require(_srcPoolId >= 0 && _dstPoolId >= 0);\n        require(_refundAddress != address(0));\n        require(_lzTxParams.dstGasForCall >= 0);\n        require(_payload.length >= 0);\n\n        // Transfer to burn\n        IERC20Upgradeable(asset).safeTransferFrom(msg.sender, burnAddress, _amountLD);\n        // Log\n        emit SgSwapped(_dstChainId, _minAmountLD, _to);\n    }\n\n    function redeemRemote(\n        uint16 _dstChainId,\n        uint256 _srcPoolId,\n        uint256 _dstPoolId,\n        address payable _refundAddress,\n        uint256 _amountLP,\n        uint256 _minAmountLD,\n        bytes calldata _to,\n        lzTxObj memory _lzTxParams\n    ) external payable {}\n\n    function instantRedeemLocal(\n        uint16 _srcPoolId,\n        uint256 _amountLP,\n        address _to\n    ) external returns (uint256) {\n        // Reqs\n        require(_srcPoolId >= 0);\n\n        // Safe transfer liquidity and burn\n        IERC20Upgradeable(stargatePool).safeTransferFrom(\n            msg.sender,\n            burnAddress,\n            _amountLP\n        );\n\n        // Mint asset token\n        uint256 _amount = 2 ether; // Hardcode for simplicity/testing\n        IMockERC20Upgradeable(asset).mint(_to, _amount);\n        // Log removed equidity\n        emit RemovedLiquidity(_amount);\n        // Return\n        return _amount;\n    }\n\n    function redeemLocal(\n        uint16 _dstChainId,\n        uint256 _srcPoolId,\n        uint256 _dstPoolId,\n        address payable _refundAddress,\n        uint256 _amountLP,\n        bytes calldata _to,\n        lzTxObj memory _lzTxParams\n    ) external payable {}\n\n    function sendCredits(\n        uint16 _dstChainId,\n        uint256 _srcPoolId,\n        uint256 _dstPoolId,\n        address payable _refundAddress\n    ) external payable {}\n\n    function quoteLayerZeroFee(\n        uint16 _dstChainId,\n        uint8 _functionType,\n        bytes calldata _toAddress,\n        bytes calldata _transferAndCallPayload,\n        lzTxObj memory _lzTxParams\n    ) external view returns (uint256, uint256) {\n        // Reqs\n        require(_dstChainId >= 0 && _functionType >= 0);\n        require(_toAddress.length >= 0 && _transferAndCallPayload.length >= 0);\n        require(_lzTxParams.dstGasForCall >= 0);\n        require(_dummy >= 0);\n\n        return (0.01 ether, 0.02 ether); // Hardcoded for tests\n    }\n}\n\ncontract MockStargatePool is MockERC20Upgradeable {}\n\ncontract MockStargateLPStaking is IStargateLPStaking {\n    using SafeERC20Upgradeable for IERC20Upgradeable;\n\n    event Deposited(address indexed _want, uint256 indexed _amount);\n    event Withdrew(address indexed _want, uint256 indexed _amount);\n\n    address public burnAddress;\n    address public wantToken;\n\n    function setWantAddress(address _wantToken) public {\n        wantToken = _wantToken;\n    }\n\n    function setBurnAddress(address _burnAddress) public {\n        burnAddress = _burnAddress;\n    }\n\n    function deposit(uint256 _pid, uint256 _amount) external {\n        // Reqs\n        require(_pid >= 0);\n\n        IERC20Upgradeable(wantToken).safeTransferFrom(msg.sender, burnAddress, _amount);\n        emit Deposited(wantToken, _amount);        \n    }\n\n    function withdraw(uint256 _pid, uint256 _amount) external {\n        // Reqs\n        require(_pid >= 0);\n\n        IMockERC20Upgradeable(wantToken).mint(msg.sender, _amount);\n        emit Withdrew(wantToken, _amount);\n    }\n}\n\ncontract MockSTGToken is MockERC20Upgradeable {}",
  "sourcePath": "/Users/kristophm/Documents/workspace/zorro-protocol/contracts/vaults/mocks/MockVaultStargate.sol",
  "compiler": {
    "name": "solc",
    "version": "0.8.10+commit.fc410830.Emscripten.clang"
  },
  "schemaVersion": "3.4.10",
  "updatedAt": "2022-11-21T01:26:32.015Z",
  "devdoc": {
    "kind": "dev",
    "methods": {
      "allowance(address,address)": {
        "details": "See {IERC20-allowance}."
      },
      "approve(address,uint256)": {
        "details": "See {IERC20-approve}. NOTE: If `amount` is the maximum `uint256`, the allowance is not updated on `transferFrom`. This is semantically equivalent to an infinite approval. Requirements: - `spender` cannot be the zero address."
      },
      "balanceOf(address)": {
        "details": "See {IERC20-balanceOf}."
      },
      "decimals()": {
        "details": "Returns the number of decimals used to get its user representation. For example, if `decimals` equals `2`, a balance of `505` tokens should be displayed to a user as `5.05` (`505 / 10 ** 2`). Tokens usually opt for a value of 18, imitating the relationship between Ether and Wei. This is the value {ERC20} uses, unless this function is overridden; NOTE: This information is only used for _display_ purposes: it in no way affects any of the arithmetic of the contract, including {IERC20-balanceOf} and {IERC20-transfer}."
      },
      "decreaseAllowance(address,uint256)": {
        "details": "Atomically decreases the allowance granted to `spender` by the caller. This is an alternative to {approve} that can be used as a mitigation for problems described in {IERC20-approve}. Emits an {Approval} event indicating the updated allowance. Requirements: - `spender` cannot be the zero address. - `spender` must have allowance for the caller of at least `subtractedValue`."
      },
      "increaseAllowance(address,uint256)": {
        "details": "Atomically increases the allowance granted to `spender` by the caller. This is an alternative to {approve} that can be used as a mitigation for problems described in {IERC20-approve}. Emits an {Approval} event indicating the updated allowance. Requirements: - `spender` cannot be the zero address."
      },
      "name()": {
        "details": "Returns the name of the token."
      },
      "symbol()": {
        "details": "Returns the symbol of the token, usually a shorter version of the name."
      },
      "totalSupply()": {
        "details": "See {IERC20-totalSupply}."
      },
      "transfer(address,uint256)": {
        "details": "See {IERC20-transfer}. Requirements: - `to` cannot be the zero address. - the caller must have a balance of at least `amount`."
      },
      "transferFrom(address,address,uint256)": {
        "details": "See {IERC20-transferFrom}. Emits an {Approval} event indicating the updated allowance. This is not required by the EIP. See the note at the beginning of {ERC20}. NOTE: Does not update the allowance if the current allowance is the maximum `uint256`. Requirements: - `from` and `to` cannot be the zero address. - `from` must have a balance of at least `amount`. - the caller must have allowance for ``from``'s tokens of at least `amount`."
      }
    },
    "version": 1
  },
  "userdoc": {
    "kind": "user",
    "methods": {},
    "version": 1
  }
}