{
  "contractName": "MockZorroControllerXChain",
  "abi": [
    {
      "anonymous": false,
      "inputs": [
        {
          "indexed": true,
          "internalType": "address",
          "name": "previousOwner",
          "type": "address"
        },
        {
          "indexed": true,
          "internalType": "address",
          "name": "newOwner",
          "type": "address"
        }
      ],
      "name": "OwnershipTransferred",
      "type": "event"
    },
    {
      "anonymous": false,
      "inputs": [
        {
          "indexed": true,
          "internalType": "uint256",
          "name": "_pid",
          "type": "uint256"
        },
        {
          "indexed": true,
          "internalType": "uint256",
          "name": "_valueUSDC",
          "type": "uint256"
        },
        {
          "indexed": true,
          "internalType": "address",
          "name": "_destAccount",
          "type": "address"
        }
      ],
      "name": "ReceiveXChainDepositReq",
      "type": "event"
    },
    {
      "anonymous": false,
      "inputs": [
        {
          "indexed": true,
          "internalType": "uint256",
          "name": "_amountZOR",
          "type": "uint256"
        }
      ],
      "name": "RemovedSlashedRewards",
      "type": "event"
    },
    {
      "anonymous": false,
      "inputs": [
        {
          "indexed": true,
          "internalType": "uint256",
          "name": "_remoteChainId",
          "type": "uint256"
        },
        {
          "indexed": true,
          "internalType": "uint256",
          "name": "_buybackAmountUSDC",
          "type": "uint256"
        },
        {
          "indexed": true,
          "internalType": "uint256",
          "name": "_revShareAmountUSDC",
          "type": "uint256"
        }
      ],
      "name": "XChainDistributeEarnings",
      "type": "event"
    },
    {
      "anonymous": false,
      "inputs": [
        {
          "indexed": true,
          "internalType": "uint256",
          "name": "_pid",
          "type": "uint256"
        },
        {
          "indexed": true,
          "internalType": "address",
          "name": "_originRecipient",
          "type": "address"
        },
        {
          "indexed": true,
          "internalType": "uint256",
          "name": "_burnableZORRewards",
          "type": "uint256"
        },
        {
          "indexed": false,
          "internalType": "uint256",
          "name": "_trancheId",
          "type": "uint256"
        },
        {
          "indexed": false,
          "internalType": "uint256",
          "name": "_originChainId",
          "type": "uint256"
        }
      ],
      "name": "XChainRepatriation",
      "type": "event"
    },
    {
      "inputs": [
        {
          "internalType": "uint16",
          "name": "",
          "type": "uint16"
        }
      ],
      "name": "LZChainToZorroMap",
      "outputs": [
        {
          "internalType": "uint256",
          "name": "",
          "type": "uint256"
        }
      ],
      "stateMutability": "view",
      "type": "function",
      "constant": true
    },
    {
      "inputs": [
        {
          "internalType": "uint256",
          "name": "",
          "type": "uint256"
        }
      ],
      "name": "USDCToZorroLPPoolOtherTokenPath",
      "outputs": [
        {
          "internalType": "address",
          "name": "",
          "type": "address"
        }
      ],
      "stateMutability": "view",
      "type": "function",
      "constant": true
    },
    {
      "inputs": [
        {
          "internalType": "uint256",
          "name": "",
          "type": "uint256"
        }
      ],
      "name": "USDCToZorroPath",
      "outputs": [
        {
          "internalType": "address",
          "name": "",
          "type": "address"
        }
      ],
      "stateMutability": "view",
      "type": "function",
      "constant": true
    },
    {
      "inputs": [],
      "name": "ZORRO",
      "outputs": [
        {
          "internalType": "address",
          "name": "",
          "type": "address"
        }
      ],
      "stateMutability": "view",
      "type": "function",
      "constant": true
    },
    {
      "inputs": [
        {
          "internalType": "uint256",
          "name": "",
          "type": "uint256"
        }
      ],
      "name": "ZorroChainToLZMap",
      "outputs": [
        {
          "internalType": "uint16",
          "name": "",
          "type": "uint16"
        }
      ],
      "stateMutability": "view",
      "type": "function",
      "constant": true
    },
    {
      "inputs": [],
      "name": "accumulatedSlashedRewards",
      "outputs": [
        {
          "internalType": "uint256",
          "name": "",
          "type": "uint256"
        }
      ],
      "stateMutability": "view",
      "type": "function",
      "constant": true
    },
    {
      "inputs": [],
      "name": "burnAddress",
      "outputs": [
        {
          "internalType": "address",
          "name": "",
          "type": "address"
        }
      ],
      "stateMutability": "view",
      "type": "function",
      "constant": true
    },
    {
      "inputs": [],
      "name": "chainId",
      "outputs": [
        {
          "internalType": "uint256",
          "name": "",
          "type": "uint256"
        }
      ],
      "stateMutability": "view",
      "type": "function",
      "constant": true
    },
    {
      "inputs": [
        {
          "internalType": "uint256",
          "name": "",
          "type": "uint256"
        }
      ],
      "name": "chainTypes",
      "outputs": [
        {
          "internalType": "uint256",
          "name": "",
          "type": "uint256"
        }
      ],
      "stateMutability": "view",
      "type": "function",
      "constant": true
    },
    {
      "inputs": [
        {
          "internalType": "uint256",
          "name": "_chainId",
          "type": "uint256"
        },
        {
          "internalType": "bytes",
          "name": "_dstContract",
          "type": "bytes"
        },
        {
          "internalType": "uint256",
          "name": "_pid",
          "type": "uint256"
        },
        {
          "internalType": "uint256",
          "name": "_valueUSDC",
          "type": "uint256"
        },
        {
          "internalType": "uint256",
          "name": "_weeksCommitted",
          "type": "uint256"
        },
        {
          "internalType": "uint256",
          "name": "_maxMarketMovement",
          "type": "uint256"
        },
        {
          "internalType": "bytes",
          "name": "_destWallet",
          "type": "bytes"
        }
      ],
      "name": "checkXChainDepositFee",
      "outputs": [
        {
          "internalType": "uint256",
          "name": "",
          "type": "uint256"
        }
      ],
      "stateMutability": "view",
      "type": "function",
      "constant": true
    },
    {
      "inputs": [
        {
          "internalType": "uint256",
          "name": "_amountUSDCBuyback",
          "type": "uint256"
        },
        {
          "internalType": "uint256",
          "name": "_amountUSDCRevShare",
          "type": "uint256"
        },
        {
          "internalType": "uint256",
          "name": "_accSlashedRewards",
          "type": "uint256"
        },
        {
          "internalType": "uint256",
          "name": "_maxMarketMovement",
          "type": "uint256"
        }
      ],
      "name": "checkXChainDistributeEarningsFee",
      "outputs": [
        {
          "internalType": "uint256",
          "name": "",
          "type": "uint256"
        }
      ],
      "stateMutability": "view",
      "type": "function",
      "constant": true
    },
    {
      "inputs": [
        {
          "internalType": "uint256",
          "name": "_originChainId",
          "type": "uint256"
        },
        {
          "internalType": "uint256",
          "name": "_pid",
          "type": "uint256"
        },
        {
          "internalType": "uint256",
          "name": "_trancheId",
          "type": "uint256"
        },
        {
          "internalType": "bytes",
          "name": "_originRecipient",
          "type": "bytes"
        },
        {
          "internalType": "uint256",
          "name": "_burnableZORRewards",
          "type": "uint256"
        },
        {
          "internalType": "uint256",
          "name": "_rewardsDue",
          "type": "uint256"
        },
        {
          "internalType": "uint256",
          "name": "_gasForDestinationLZReceive",
          "type": "uint256"
        }
      ],
      "name": "checkXChainRepatriationFee",
      "outputs": [
        {
          "internalType": "uint256",
          "name": "",
          "type": "uint256"
        }
      ],
      "stateMutability": "view",
      "type": "function",
      "constant": true
    },
    {
      "inputs": [
        {
          "internalType": "uint256",
          "name": "_zorroChainId",
          "type": "uint256"
        },
        {
          "internalType": "uint256",
          "name": "_pid",
          "type": "uint256"
        },
        {
          "internalType": "uint256",
          "name": "_trancheId",
          "type": "uint256"
        },
        {
          "internalType": "uint256",
          "name": "_maxMarketMovement",
          "type": "uint256"
        },
        {
          "internalType": "uint256",
          "name": "_gasForDestinationLZReceive",
          "type": "uint256"
        }
      ],
      "name": "checkXChainWithdrawalFee",
      "outputs": [
        {
          "internalType": "uint256",
          "name": "",
          "type": "uint256"
        }
      ],
      "stateMutability": "view",
      "type": "function",
      "constant": true
    },
    {
      "inputs": [
        {
          "internalType": "uint256",
          "name": "",
          "type": "uint256"
        }
      ],
      "name": "controllerContractsMap",
      "outputs": [
        {
          "internalType": "bytes",
          "name": "",
          "type": "bytes"
        }
      ],
      "stateMutability": "view",
      "type": "function",
      "constant": true
    },
    {
      "inputs": [],
      "name": "currentChainController",
      "outputs": [
        {
          "internalType": "address",
          "name": "",
          "type": "address"
        }
      ],
      "stateMutability": "view",
      "type": "function",
      "constant": true
    },
    {
      "inputs": [],
      "name": "defaultStablecoin",
      "outputs": [
        {
          "internalType": "address",
          "name": "",
          "type": "address"
        }
      ],
      "stateMutability": "view",
      "type": "function",
      "constant": true
    },
    {
      "inputs": [
        {
          "internalType": "bytes",
          "name": "_payloadWithSig",
          "type": "bytes"
        }
      ],
      "name": "extractParamsPayload",
      "outputs": [
        {
          "internalType": "bytes",
          "name": "paramsPayload",
          "type": "bytes"
        }
      ],
      "stateMutability": "pure",
      "type": "function",
      "constant": true
    },
    {
      "inputs": [],
      "name": "homeChainId",
      "outputs": [
        {
          "internalType": "uint256",
          "name": "",
          "type": "uint256"
        }
      ],
      "stateMutability": "view",
      "type": "function",
      "constant": true
    },
    {
      "inputs": [],
      "name": "homeChainZorroController",
      "outputs": [
        {
          "internalType": "address",
          "name": "",
          "type": "address"
        }
      ],
      "stateMutability": "view",
      "type": "function",
      "constant": true
    },
    {
      "inputs": [
        {
          "components": [
            {
              "internalType": "address",
              "name": "defaultStablecoin",
              "type": "address"
            },
            {
              "internalType": "address",
              "name": "ZORRO",
              "type": "address"
            },
            {
              "internalType": "address",
              "name": "zorroLPPoolOtherToken",
              "type": "address"
            },
            {
              "internalType": "address",
              "name": "zorroStakingVault",
              "type": "address"
            },
            {
              "internalType": "address",
              "name": "uniRouterAddress",
              "type": "address"
            },
            {
              "internalType": "address",
              "name": "homeChainZorroController",
              "type": "address"
            },
            {
              "internalType": "address",
              "name": "currentChainController",
              "type": "address"
            },
            {
              "internalType": "address",
              "name": "publicPool",
              "type": "address"
            },
            {
              "components": [
                {
                  "internalType": "uint256",
                  "name": "chainId",
                  "type": "uint256"
                },
                {
                  "internalType": "uint256",
                  "name": "homeChainId",
                  "type": "uint256"
                },
                {
                  "internalType": "uint256[]",
                  "name": "ZorroChainIDs",
                  "type": "uint256[]"
                },
                {
                  "internalType": "bytes[]",
                  "name": "controllerContracts",
                  "type": "bytes[]"
                },
                {
                  "internalType": "uint16[]",
                  "name": "LZChainIDs",
                  "type": "uint16[]"
                },
                {
                  "internalType": "uint256[]",
                  "name": "stargateDestPoolIds",
                  "type": "uint256[]"
                },
                {
                  "internalType": "address",
                  "name": "stargateRouter",
                  "type": "address"
                },
                {
                  "internalType": "address",
                  "name": "layerZeroEndpoint",
                  "type": "address"
                },
                {
                  "internalType": "uint256",
                  "name": "stargateSwapPoolId",
                  "type": "uint256"
                }
              ],
              "internalType": "struct ZorroControllerXChain.ZorroControllerXChainBridgeParams",
              "name": "bridge",
              "type": "tuple"
            },
            {
              "components": [
                {
                  "internalType": "address[]",
                  "name": "USDCToZorroPath",
                  "type": "address[]"
                },
                {
                  "internalType": "address[]",
                  "name": "USDCToZorroLPPoolOtherTokenPath",
                  "type": "address[]"
                }
              ],
              "internalType": "struct ZorroControllerXChain.ZorroControllerXChainSwapParams",
              "name": "swaps",
              "type": "tuple"
            },
            {
              "components": [
                {
                  "internalType": "address",
                  "name": "priceFeedZOR",
                  "type": "address"
                },
                {
                  "internalType": "address",
                  "name": "priceFeedLPPoolOtherToken",
                  "type": "address"
                }
              ],
              "internalType": "struct ZorroControllerXChain.ZorroControllerXChainPriceFeedParams",
              "name": "priceFeeds",
              "type": "tuple"
            }
          ],
          "internalType": "struct ZorroControllerXChain.ZorroControllerXChainInit",
          "name": "_initValue",
          "type": "tuple"
        }
      ],
      "name": "initialize",
      "outputs": [],
      "stateMutability": "nonpayable",
      "type": "function"
    },
    {
      "inputs": [],
      "name": "layerZeroEndpoint",
      "outputs": [
        {
          "internalType": "address",
          "name": "",
          "type": "address"
        }
      ],
      "stateMutability": "view",
      "type": "function",
      "constant": true
    },
    {
      "inputs": [
        {
          "internalType": "uint16",
          "name": "_srcChainId",
          "type": "uint16"
        },
        {
          "internalType": "bytes",
          "name": "_srcAddress",
          "type": "bytes"
        },
        {
          "internalType": "uint64",
          "name": "_nonce",
          "type": "uint64"
        },
        {
          "internalType": "bytes",
          "name": "_payload",
          "type": "bytes"
        }
      ],
      "name": "lzReceive",
      "outputs": [],
      "stateMutability": "nonpayable",
      "type": "function"
    },
    {
      "inputs": [],
      "name": "owner",
      "outputs": [
        {
          "internalType": "address",
          "name": "",
          "type": "address"
        }
      ],
      "stateMutability": "view",
      "type": "function",
      "constant": true
    },
    {
      "inputs": [],
      "name": "priceFeedLPPoolOtherToken",
      "outputs": [
        {
          "internalType": "contract AggregatorV3Interface",
          "name": "",
          "type": "address"
        }
      ],
      "stateMutability": "view",
      "type": "function",
      "constant": true
    },
    {
      "inputs": [],
      "name": "priceFeedZOR",
      "outputs": [
        {
          "internalType": "contract AggregatorV3Interface",
          "name": "",
          "type": "address"
        }
      ],
      "stateMutability": "view",
      "type": "function",
      "constant": true
    },
    {
      "inputs": [],
      "name": "publicPool",
      "outputs": [
        {
          "internalType": "address",
          "name": "",
          "type": "address"
        }
      ],
      "stateMutability": "view",
      "type": "function",
      "constant": true
    },
    {
      "inputs": [
        {
          "internalType": "uint256",
          "name": "_pid",
          "type": "uint256"
        },
        {
          "internalType": "uint256",
          "name": "_valueUSDC",
          "type": "uint256"
        },
        {
          "internalType": "uint256",
          "name": "_weeksCommitted",
          "type": "uint256"
        },
        {
          "internalType": "uint256",
          "name": "_maxMarketMovement",
          "type": "uint256"
        },
        {
          "internalType": "bytes",
          "name": "_originAccount",
          "type": "bytes"
        },
        {
          "internalType": "address",
          "name": "_destAccount",
          "type": "address"
        }
      ],
      "name": "receiveXChainDepositRequest",
      "outputs": [],
      "stateMutability": "nonpayable",
      "type": "function"
    },
    {
      "inputs": [
        {
          "internalType": "uint256",
          "name": "_remoteChainId",
          "type": "uint256"
        },
        {
          "internalType": "uint256",
          "name": "_amountUSDCBuyback",
          "type": "uint256"
        },
        {
          "internalType": "uint256",
          "name": "_amountUSDCRevShare",
          "type": "uint256"
        },
        {
          "internalType": "uint256",
          "name": "_accSlashedRewards",
          "type": "uint256"
        },
        {
          "internalType": "uint256",
          "name": "_maxMarketMovement",
          "type": "uint256"
        }
      ],
      "name": "receiveXChainDistributionRequest",
      "outputs": [],
      "stateMutability": "nonpayable",
      "type": "function"
    },
    {
      "inputs": [
        {
          "internalType": "uint256",
          "name": "_originChainId",
          "type": "uint256"
        },
        {
          "internalType": "uint256",
          "name": "_pid",
          "type": "uint256"
        },
        {
          "internalType": "uint256",
          "name": "_trancheId",
          "type": "uint256"
        },
        {
          "internalType": "bytes",
          "name": "_originRecipient",
          "type": "bytes"
        },
        {
          "internalType": "uint256",
          "name": "_burnableZORRewards",
          "type": "uint256"
        },
        {
          "internalType": "uint256",
          "name": "_rewardsDue",
          "type": "uint256"
        }
      ],
      "name": "receiveXChainRepatriationRequest",
      "outputs": [],
      "stateMutability": "nonpayable",
      "type": "function"
    },
    {
      "inputs": [
        {
          "internalType": "uint256",
          "name": "_originChainId",
          "type": "uint256"
        },
        {
          "internalType": "bytes",
          "name": "_originAccount",
          "type": "bytes"
        },
        {
          "internalType": "uint256",
          "name": "_pid",
          "type": "uint256"
        },
        {
          "internalType": "uint256",
          "name": "_trancheId",
          "type": "uint256"
        },
        {
          "internalType": "uint256",
          "name": "_maxMarketMovement",
          "type": "uint256"
        }
      ],
      "name": "receiveXChainWithdrawalRequest",
      "outputs": [],
      "stateMutability": "nonpayable",
      "type": "function"
    },
    {
      "inputs": [],
      "name": "renounceOwnership",
      "outputs": [],
      "stateMutability": "nonpayable",
      "type": "function"
    },
    {
      "inputs": [
        {
          "internalType": "uint256",
          "name": "_zorroChainId",
          "type": "uint256"
        },
        {
          "internalType": "uint256",
          "name": "_pid",
          "type": "uint256"
        },
        {
          "internalType": "uint256",
          "name": "_valueUSDC",
          "type": "uint256"
        },
        {
          "internalType": "uint256",
          "name": "_weeksCommitted",
          "type": "uint256"
        },
        {
          "internalType": "uint256",
          "name": "_maxMarketMovement",
          "type": "uint256"
        },
        {
          "internalType": "bytes",
          "name": "_destWallet",
          "type": "bytes"
        }
      ],
      "name": "sendXChainDepositRequest",
      "outputs": [],
      "stateMutability": "payable",
      "type": "function",
      "payable": true
    },
    {
      "inputs": [
        {
          "internalType": "uint256",
          "name": "_pid",
          "type": "uint256"
        },
        {
          "internalType": "uint256",
          "name": "_buybackAmountUSDC",
          "type": "uint256"
        },
        {
          "internalType": "uint256",
          "name": "_revShareAmountUSDC",
          "type": "uint256"
        },
        {
          "internalType": "uint256",
          "name": "_maxMarketMovement",
          "type": "uint256"
        }
      ],
      "name": "sendXChainDistributeEarningsRequest",
      "outputs": [],
      "stateMutability": "payable",
      "type": "function",
      "payable": true
    },
    {
      "inputs": [
        {
          "internalType": "uint256",
          "name": "_destZorroChainId",
          "type": "uint256"
        },
        {
          "internalType": "uint256",
          "name": "_pid",
          "type": "uint256"
        },
        {
          "internalType": "uint256",
          "name": "_trancheId",
          "type": "uint256"
        },
        {
          "internalType": "uint256",
          "name": "_maxMarketMovement",
          "type": "uint256"
        },
        {
          "internalType": "uint256",
          "name": "_gasForDestinationLZReceive",
          "type": "uint256"
        }
      ],
      "name": "sendXChainWithdrawalRequest",
      "outputs": [],
      "stateMutability": "payable",
      "type": "function",
      "payable": true
    },
    {
      "inputs": [
        {
          "internalType": "uint256",
          "name": "_zorroChainId",
          "type": "uint256"
        },
        {
          "internalType": "uint256",
          "name": "_chainType",
          "type": "uint256"
        }
      ],
      "name": "setChainType",
      "outputs": [],
      "stateMutability": "nonpayable",
      "type": "function"
    },
    {
      "inputs": [
        {
          "internalType": "uint256[]",
          "name": "_chainIds",
          "type": "uint256[]"
        }
      ],
      "name": "setChains",
      "outputs": [],
      "stateMutability": "nonpayable",
      "type": "function"
    },
    {
      "inputs": [
        {
          "internalType": "uint256",
          "name": "_zorroChainId",
          "type": "uint256"
        },
        {
          "internalType": "bytes",
          "name": "_controller",
          "type": "bytes"
        }
      ],
      "name": "setControllerContract",
      "outputs": [],
      "stateMutability": "nonpayable",
      "type": "function"
    },
    {
      "inputs": [
        {
          "internalType": "address[]",
          "name": "_contracts",
          "type": "address[]"
        }
      ],
      "name": "setKeyContracts",
      "outputs": [],
      "stateMutability": "nonpayable",
      "type": "function"
    },
    {
      "inputs": [
        {
          "internalType": "address",
          "name": "_stargateRouter",
          "type": "address"
        },
        {
          "internalType": "uint256",
          "name": "_stargateSwapPoolId",
          "type": "uint256"
        },
        {
          "internalType": "address",
          "name": "_layerZeroEndpoint",
          "type": "address"
        }
      ],
      "name": "setLayerZeroParams",
      "outputs": [],
      "stateMutability": "nonpayable",
      "type": "function"
    },
    {
      "inputs": [
        {
          "internalType": "address[]",
          "name": "_priceFeeds",
          "type": "address[]"
        }
      ],
      "name": "setPriceFeeds",
      "outputs": [],
      "stateMutability": "nonpayable",
      "type": "function"
    },
    {
      "inputs": [
        {
          "internalType": "uint256",
          "name": "_zorroChainId",
          "type": "uint256"
        },
        {
          "internalType": "uint16",
          "name": "_stargatePoolId",
          "type": "uint16"
        }
      ],
      "name": "setStargateDestPoolIds",
      "outputs": [],
      "stateMutability": "nonpayable",
      "type": "function"
    },
    {
      "inputs": [
        {
          "internalType": "address[]",
          "name": "_USDCToZorroPath",
          "type": "address[]"
        },
        {
          "internalType": "address[]",
          "name": "_USDCToZorroLPPoolOtherTokenPath",
          "type": "address[]"
        }
      ],
      "name": "setSwapPaths",
      "outputs": [],
      "stateMutability": "nonpayable",
      "type": "function"
    },
    {
      "inputs": [
        {
          "internalType": "address",
          "name": "_token",
          "type": "address"
        }
      ],
      "name": "setTokenUSDC",
      "outputs": [],
      "stateMutability": "nonpayable",
      "type": "function"
    },
    {
      "inputs": [
        {
          "internalType": "address[]",
          "name": "_tokens",
          "type": "address[]"
        }
      ],
      "name": "setTokens",
      "outputs": [],
      "stateMutability": "nonpayable",
      "type": "function"
    },
    {
      "inputs": [
        {
          "internalType": "address",
          "name": "_contract",
          "type": "address"
        }
      ],
      "name": "setUniRouterAddress",
      "outputs": [],
      "stateMutability": "nonpayable",
      "type": "function"
    },
    {
      "inputs": [
        {
          "internalType": "uint256",
          "name": "_zorroChainId",
          "type": "uint256"
        },
        {
          "internalType": "uint16",
          "name": "_lzChainId",
          "type": "uint16"
        }
      ],
      "name": "setZorroChainToLZMap",
      "outputs": [],
      "stateMutability": "nonpayable",
      "type": "function"
    },
    {
      "inputs": [
        {
          "internalType": "address",
          "name": "_token",
          "type": "address"
        }
      ],
      "name": "setZorroLPPoolOtherToken",
      "outputs": [],
      "stateMutability": "nonpayable",
      "type": "function"
    },
    {
      "inputs": [
        {
          "internalType": "address",
          "name": "_contract",
          "type": "address"
        }
      ],
      "name": "setZorroStakingVault",
      "outputs": [],
      "stateMutability": "nonpayable",
      "type": "function"
    },
    {
      "inputs": [
        {
          "internalType": "uint16",
          "name": "_chainId",
          "type": "uint16"
        },
        {
          "internalType": "bytes",
          "name": "_srcAddress",
          "type": "bytes"
        },
        {
          "internalType": "uint256",
          "name": "_nonce",
          "type": "uint256"
        },
        {
          "internalType": "address",
          "name": "_token",
          "type": "address"
        },
        {
          "internalType": "uint256",
          "name": "amountLD",
          "type": "uint256"
        },
        {
          "internalType": "bytes",
          "name": "payload",
          "type": "bytes"
        }
      ],
      "name": "sgReceive",
      "outputs": [],
      "stateMutability": "nonpayable",
      "type": "function"
    },
    {
      "inputs": [
        {
          "internalType": "uint256",
          "name": "",
          "type": "uint256"
        }
      ],
      "name": "stargateDestPoolIds",
      "outputs": [
        {
          "internalType": "uint256",
          "name": "",
          "type": "uint256"
        }
      ],
      "stateMutability": "view",
      "type": "function",
      "constant": true
    },
    {
      "inputs": [],
      "name": "stargateRouter",
      "outputs": [
        {
          "internalType": "address",
          "name": "",
          "type": "address"
        }
      ],
      "stateMutability": "view",
      "type": "function",
      "constant": true
    },
    {
      "inputs": [],
      "name": "stargateSwapPoolId",
      "outputs": [
        {
          "internalType": "uint256",
          "name": "",
          "type": "uint256"
        }
      ],
      "stateMutability": "view",
      "type": "function",
      "constant": true
    },
    {
      "inputs": [],
      "name": "tokenUSDC",
      "outputs": [
        {
          "internalType": "address",
          "name": "",
          "type": "address"
        }
      ],
      "stateMutability": "view",
      "type": "function",
      "constant": true
    },
    {
      "inputs": [
        {
          "internalType": "address",
          "name": "newOwner",
          "type": "address"
        }
      ],
      "name": "transferOwnership",
      "outputs": [],
      "stateMutability": "nonpayable",
      "type": "function"
    },
    {
      "inputs": [],
      "name": "uniRouterAddress",
      "outputs": [
        {
          "internalType": "address",
          "name": "",
          "type": "address"
        }
      ],
      "stateMutability": "view",
      "type": "function",
      "constant": true
    },
    {
      "inputs": [],
      "name": "zorroLPPoolOtherToken",
      "outputs": [
        {
          "internalType": "address",
          "name": "",
          "type": "address"
        }
      ],
      "stateMutability": "view",
      "type": "function",
      "constant": true
    },
    {
      "inputs": [],
      "name": "zorroStakingVault",
      "outputs": [
        {
          "internalType": "address",
          "name": "",
          "type": "address"
        }
      ],
      "stateMutability": "view",
      "type": "function",
      "constant": true
    },
    {
      "inputs": [
        {
          "internalType": "uint256",
          "name": "_chainId",
          "type": "uint256"
        },
        {
          "internalType": "uint256",
          "name": "_pid",
          "type": "uint256"
        },
        {
          "internalType": "uint256",
          "name": "_valueUSDC",
          "type": "uint256"
        },
        {
          "internalType": "uint256",
          "name": "_weeksCommitted",
          "type": "uint256"
        },
        {
          "internalType": "uint256",
          "name": "_maxMarketMovement",
          "type": "uint256"
        },
        {
          "internalType": "address",
          "name": "_originWallet",
          "type": "address"
        },
        {
          "internalType": "bytes",
          "name": "_destWallet",
          "type": "bytes"
        }
      ],
      "name": "encodeXChainDepositPayload",
      "outputs": [
        {
          "internalType": "bytes",
          "name": "",
          "type": "bytes"
        }
      ],
      "stateMutability": "view",
      "type": "function",
      "constant": true
    },
    {
      "inputs": [
        {
          "internalType": "uint256",
          "name": "_pid",
          "type": "uint256"
        },
        {
          "internalType": "uint256",
          "name": "_valueUSDC",
          "type": "uint256"
        },
        {
          "internalType": "uint256",
          "name": "_weeksCommitted",
          "type": "uint256"
        },
        {
          "internalType": "uint256",
          "name": "_maxMarketMovement",
          "type": "uint256"
        },
        {
          "internalType": "bytes",
          "name": "_originAccount",
          "type": "bytes"
        },
        {
          "internalType": "address",
          "name": "_destAccount",
          "type": "address"
        }
      ],
      "name": "mockReceiveXChainDepositRequest",
      "outputs": [],
      "stateMutability": "nonpayable",
      "type": "function"
    }
  ],
  "bytecode": "0x608060405234801561001057600080fd5b506155da80620000216000396000f3fe60806040526004361061038b5760003560e01c806379777d81116101dc578063ab8236f311610102578063cd01af48116100a0578063ebfba7c41161006f578063ebfba7c414610a8a578063ef12696714610aaa578063f2fde38b14610ac0578063fc39a29e14610ae057600080fd5b8063cd01af4814610a14578063cdabd37114610a34578063e53ac0df14610a54578063e940f6e114610a7457600080fd5b8063c86d4040116100dc578063c86d404014610999578063c8ba44b5146109b9578063c9522cf1146109d4578063c9f363c4146109f457600080fd5b8063ab8236f314610939578063b22f325114610959578063b61bb80a1461097957600080fd5b80638f426e2c1161017a5780639a8a0592116101495780639a8a0592146108d0578063a2df085c146108e6578063a4d2b083146108f9578063a9e56f3c1461091957600080fd5b80638f426e2c1461085057806391a0116814610870578063959334f4146108905780639a448c0c146108b057600080fd5b80638b5694d6116101b65780638b5694d6146107c55780638c157db2146107e55780638d6ffd6a146108055780638da5cb5b1461083257600080fd5b806379777d81146107655780637bd45522146107855780637f633ea8146107a557600080fd5b80634bf76174116102c1578063625adaf21161025f5780636ca8bd651161022e5780636ca8bd65146106fa5780636f53e7011461071a57806370d5ae051461073a578063715018a61461075057600080fd5b8063625adaf21461067f578063668ababb1461069f578063692d8b8b146106bf578063693a090b146106da57600080fd5b8063593af9fe1161029b578063593af9fe146105f75780635da79d6314610624578063610d71b71461064457806361b729dc1461066457600080fd5b80634bf76174146105a15780635175ce1b146105c15780635790f599146105e157600080fd5b806325b438301161032e5780633ad5875c116103085780633ad5875c14610517578063459f47531461052a578063464e3c8b1461056e578063487c38681461058157600080fd5b806325b43830146104aa578063293da9d4146104ca5780633a629121146104f757600080fd5b8063104a61321161036a578063104a61321461040f57806313a2e8801461042f57806315230ae61461044f578063219b38b81461046f57600080fd5b80621d35671461039057806307968db1146103b25780630a34e1a4146103ef575b600080fd5b34801561039c57600080fd5b506103b06103ab366004613c14565b610b00565b005b3480156103be57600080fd5b50609a546103d2906001600160a01b031681565b6040516001600160a01b0390911681526020015b60405180910390f35b3480156103fb57600080fd5b506103b061040a366004613cad565b610c65565b34801561041b57600080fd5b506103d261042a366004613ccf565b610ca1565b34801561043b57600080fd5b506103b061044a366004613ce8565b610ccb565b34801561045b57600080fd5b5060a2546103d2906001600160a01b031681565b34801561047b57600080fd5b5061049c61048a366004613ccf565b60996020526000908152604090205481565b6040519081526020016103e6565b3480156104b657600080fd5b506103b06104c5366004613d33565b610d14565b3480156104d657600080fd5b5061049c6104e5366004613d6e565b609d6020526000908152604090205481565b34801561050357600080fd5b5061049c610512366004613d33565b610d63565b6103b0610525366004613d33565b610e46565b34801561053657600080fd5b5061055b610545366004613ccf565b609c6020526000908152604090205461ffff1681565b60405161ffff90911681526020016103e6565b6103b061057c366004613d89565b610f9b565b34801561058d57600080fd5b506103b061059c366004613dff565b611286565b3480156105ad57600080fd5b506103b06105bc366004613dff565b611344565b3480156105cd57600080fd5b506103b06105dc366004613e40565b61144a565b3480156105ed57600080fd5b5061049c60985481565b34801561060357600080fd5b50610617610612366004613ccf565b61148d565b6040516103e69190613f03565b34801561063057600080fd5b506103b061063f366004613f36565b611527565b34801561065057600080fd5b506103b061065f3660046143fd565b611573565b34801561067057600080fd5b506103b06104c5366004614531565b34801561068b57600080fd5b506103b061069a366004613dff565b6118ae565b3480156106ab57600080fd5b5060a3546103d2906001600160a01b031681565b3480156106cb57600080fd5b506103b06104c5366004614592565b3480156106e657600080fd5b5060aa546103d2906001600160a01b031681565b34801561070657600080fd5b506103b0610715366004613f36565b611983565b34801561072657600080fd5b506103b0610735366004614592565b61196c565b34801561074657600080fd5b506103d261dead81565b34801561075c57600080fd5b506103b06119cf565b34801561077157600080fd5b5060ae546103d2906001600160a01b031681565b34801561079157600080fd5b506103b06107a0366004614608565b611a05565b3480156107b157600080fd5b506103b06107c036600461464a565b611a63565b3480156107d157600080fd5b506103b06107e036600461464a565b611abc565b3480156107f157600080fd5b5060a0546103d2906001600160a01b031681565b34801561081157600080fd5b5061049c610820366004613ccf565b609e6020526000908152604090205481565b34801561083e57600080fd5b506033546001600160a01b03166103d2565b34801561085c57600080fd5b5061049c61086b366004614676565b611aff565b34801561087c57600080fd5b5061061761088b3660046146ea565b611c88565b34801561089c57600080fd5b506103b06108ab366004613f36565b611ca5565b3480156108bc57600080fd5b506103d26108cb366004613ccf565b611cf1565b3480156108dc57600080fd5b5061049c60a45481565b6103b06108f4366004614769565b611d01565b34801561090557600080fd5b5060a9546103d2906001600160a01b031681565b34801561092557600080fd5b506097546103d2906001600160a01b031681565b34801561094557600080fd5b506103b06109543660046147d4565b611edf565b34801561096557600080fd5b5060ad546103d2906001600160a01b031681565b34801561098557600080fd5b50609f546103d2906001600160a01b031681565b3480156109a557600080fd5b5060a7546103d2906001600160a01b031681565b3480156109c557600080fd5b506103b06104c5366004614861565b3480156109e057600080fd5b5061049c6109ef366004613d89565b6121ac565b348015610a0057600080fd5b5061049c610a0f3660046148cc565b6122a9565b348015610a2057600080fd5b506103b0610a2f366004613dff565b612377565b348015610a4057600080fd5b50610617610a4f366004614950565b6123e3565b348015610a6057600080fd5b506103b0610a6f366004613f36565b61242e565b348015610a8057600080fd5b5061049c60a65481565b348015610a9657600080fd5b5060a8546103d2906001600160a01b031681565b348015610ab657600080fd5b5061049c60a55481565b348015610acc57600080fd5b506103b0610adb366004613f36565b61247a565b348015610aec57600080fd5b5060a1546103d2906001600160a01b031681565b8585858080601f016020809104026020016040519081016040528093929190818152602001838380828437600092018290525061ffff86168152609d6020908152604080832054875188840120818552609b909352928190209051929550909350610b6c9250906149c0565b604051809103902014610bc25760405162461bcd60e51b81526020600482015260196024820152782ab73932b1b7b3903c31b430b4b71031b7b73a3937b63632b960391b60448201526064015b60405180910390fd5b6000610bce8587614a5c565b905063186dca7760e21b6001600160e01b031982161415610c1d57600080808080610bfb8a8c018c614aa2565b9550955095509550955050610c138585858585612515565b5050505050610c59565b60405162461bcd60e51b8152602060048201526011602482015270556e7265636f676e697a65642066756e6360781b6044820152606401610bb9565b50505050505050505050565b6033546001600160a01b03163314610c8f5760405162461bcd60e51b8152600401610bb990614b16565b6000918252609e602052604090912055565b60ab8181548110610cb157600080fd5b6000918252602090912001546001600160a01b0316905081565b6033546001600160a01b03163314610cf55760405162461bcd60e51b8152600401610bb990614b16565b6000838152609b60205260409020610d0e908383613a00565b50505050565b60405162461bcd60e51b815260206004820152601760248201527f696c6c6567616c2064756d6d792066756e632063616c6c0000000000000000006044820152606401610bb9565b5050505050565b6000858152609c602090815260408083205460a454915161ffff909116928492610dac929091610d9591339101614b4b565b6040516020818303038152906040528989896127e2565b90506000610db98561284a565b609a5460405163040a7bb160e41b81529192506000916001600160a01b03909116906340a7bb1090610df79087903090889087908990600401614b68565b6040805180830381865afa158015610e13573d6000803e3d6000fd5b505050506040513d601f19601f82011682018060405250810190610e379190614bb0565b509a9950505050505050505050565b60026065541415610e695760405162461bcd60e51b8152600401610bb990614bd4565b600260655560a454604051600091610ea091610e89903390602001614b4b565b6040516020818303038152906040528787876127e2565b6000878152609b6020526040812080549293509091610ebe90614985565b80601f0160208091040260200160405190810160405280929190818152602001828054610eea90614985565b8015610f375780601f10610f0c57610100808354040283529160200191610f37565b820191906000526020600020905b815481529060010190602001808311610f1a57829003601f168201915b50505050509050610f8d6040518060c00160405280898152602001838152602001848152602001336001600160a01b0316815260200160006001600160a01b03168152602001610f868661284a565b9052612873565b505060016065555050505050565b60026065541415610fbe5760405162461bcd60e51b8152600401610bb990614bd4565b600260655560a254604051631526fe2760e01b81526004810186905285916000916001600160a01b0390911690631526fe279060240160c060405180830381865afa158015611011573d6000803e3d6000fd5b505050506040513d601f19601f820116820180604052508101906110359190614c0b565b95505050505050806001600160a01b031661104d3390565b6001600160a01b0316146110945760405162461bcd60e51b815260206004820152600e60248201526d1bdb9b1e481c9959c81d985d5b1d60921b6044820152606401610bb9565b600034116110d85760405162461bcd60e51b8152602060048201526011602482015270139bc81999595cc81cdd589b5a5d1d1959607a1b6044820152606401610bb9565b60006110e4868661290e565b609f549091506110fe906001600160a01b03163083612923565b609f54611116906001600160a01b0316333084612a08565b609f546040516370a0823160e01b81523060048201526000916001600160a01b0316906370a0823190602401602060405180830381865afa15801561115f573d6000803e3d6000fd5b505050506040513d601f19601f820116820180604052508101906111839190614c5d565b9050600061118f612a40565b905060006111a260a4548a8a858b612a76565b60a4546000908152609b60205260408120805492935090916111c390614985565b80601f01602080910402602001604051908101604052809291908181526020018280546111ef90614985565b801561123c5780601f106112115761010080835404028352916020019161123c565b820191906000526020600020905b81548152906001019060200180831161121f57829003601f168201915b505050505090506112746040518060a0016040528060a55481526020018681526020018381526020018481526020018a815250612ab2565b50506001606555505050505050505050565b6033546001600160a01b031633146112b05760405162461bcd60e51b8152600401610bb990614b16565b818160008181106112c3576112c3614c76565b90506020020160208101906112d89190613f36565b60ad80546001600160a01b0319166001600160a01b03929092169190911790558181600181811061130b5761130b614c76565b90506020020160208101906113209190613f36565b60ae80546001600160a01b0319166001600160a01b03929092169190911790555050565b6033546001600160a01b0316331461136e5760405162461bcd60e51b8152600401610bb990614b16565b8181600081811061138157611381614c76565b90506020020160208101906113969190613f36565b60a180546001600160a01b0319166001600160a01b0392909216919091179055818160018181106113c9576113c9614c76565b90506020020160208101906113de9190613f36565b60a280546001600160a01b0319166001600160a01b03929092169190911790558181600281811061141157611411614c76565b90506020020160208101906114269190613f36565b60a380546001600160a01b0319166001600160a01b03929092169190911790555050565b6033546001600160a01b031633146114745760405162461bcd60e51b8152600401610bb990614b16565b61148060ab8585613a84565b50610d5c60ac8383613a84565b609b60205260009081526040902080546114a690614985565b80601f01602080910402602001604051908101604052809291908181526020018280546114d290614985565b801561151f5780601f106114f45761010080835404028352916020019161151f565b820191906000526020600020905b81548152906001019060200180831161150257829003601f168201915b505050505081565b6033546001600160a01b031633146115515760405162461bcd60e51b8152600401610bb990614b16565b60aa80546001600160a01b0319166001600160a01b0392909216919091179055565b600054610100900460ff1661158e5760005460ff1615611592565b303b155b6115f55760405162461bcd60e51b815260206004820152602e60248201527f496e697469616c697a61626c653a20636f6e747261637420697320616c72656160448201526d191e481a5b9a5d1a585b1a5e995960921b6064820152608401610bb9565b600054610100900460ff16158015611617576000805461ffff19166101011790555b6101008281015160c0810151609780546001600160a01b03199081166001600160a01b03938416179091559282015160985560e090910151609a8054909316911617905560005b82610100015160400151518161ffff1610156117d2576000836101000151604001518261ffff168151811061169557611695614c76565b60200260200101519050836101000151606001518261ffff16815181106116be576116be614c76565b6020026020010151609b600083815260200190815260200160002090805190602001906116ec929190613ad7565b50836101000151608001518261ffff168151811061170c5761170c614c76565b6020026020010151609c600083815260200190815260200160002060006101000a81548161ffff021916908361ffff16021790555080609d6000866101000151608001518561ffff168151811061176557611765614c76565b602002602001015161ffff1661ffff1681526020019081526020016000208190555083610100015160a001518261ffff16815181106117a6576117a6614c76565b602090810291909101810151600092835260999091526040909120556117cb81614ca2565b905061165e565b50604082015160a880546001600160a01b039283166001600160a01b031991821617909155606084015160a98054918416918316919091179055608084015160aa80549190931691161790556101208201515180516118399160ab91602090910190613b4b565b5061012082015160209081015180516118569260ac920190613b4b565b50610140820151805160ad80546001600160a01b03199081166001600160a01b039384161790915560209092015160ae80549093169116179055611898612b8c565b80156118aa576000805461ff00191690555b5050565b6033546001600160a01b031633146118d85760405162461bcd60e51b8152600401610bb990614b16565b818160008181106118eb576118eb614c76565b90506020020160208101906119009190613f36565b609f80546001600160a01b0319166001600160a01b03929092169190911790558181600181811061193357611933614c76565b90506020020160208101906119489190613f36565b60a080546001600160a01b0319166001600160a01b03929092169190911790555050565b61197b86868642878787612bbb565b505050505050565b6033546001600160a01b031633146119ad5760405162461bcd60e51b8152600401610bb990614b16565b60a980546001600160a01b0319166001600160a01b0392909216919091179055565b6033546001600160a01b031633146119f95760405162461bcd60e51b8152600401610bb990614b16565b611a036000612bfc565b565b6033546001600160a01b03163314611a2f5760405162461bcd60e51b8152600401610bb990614b16565b609780546001600160a01b039485166001600160a01b031991821617909155609892909255609a8054919093169116179055565b6033546001600160a01b03163314611a8d5760405162461bcd60e51b8152600401610bb990614b16565b6000828152609c60209081526040808320805461ffff90951661ffff1990951685179055928252609d90522055565b6033546001600160a01b03163314611ae65760405162461bcd60e51b8152600401610bb990614b16565b60009182526099602052604090912061ffff9091169055565b6040805160608082018352600080835260208301819052928201526000611b2a8a8a8a8a8a8a612c4e565b60008b8152609b6020526040812080549293509091611b4890614985565b80601f0160208091040260200160405190810160405280929190818152602001828054611b7490614985565b8015611bc15780601f10611b9657610100808354040283529160200191611bc1565b820191906000526020600020905b815481529060010190602001808311611ba457829003601f168201915b505050505090506000609760009054906101000a90046001600160a01b03166001600160a01b0316630a512369609c60008f815260200190815260200160002060009054906101000a900461ffff1660018587896040518663ffffffff1660e01b8152600401611c35959493929190614ced565b6040805180830381865afa158015611c51573d6000803e3d6000fd5b505050506040513d601f19601f82011682018060405250810190611c759190614bb0565b509450505050505b979650505050505050565b6060611c9988888888888888612cb9565b98975050505050505050565b6033546001600160a01b03163314611ccf5760405162461bcd60e51b8152600401610bb990614b16565b60a880546001600160a01b0319166001600160a01b0392909216919091179055565b60ac8181548110610cb157600080fd5b60026065541415611d245760405162461bcd60e51b8152600401610bb990614bd4565b600260655534611d6a5760405162461bcd60e51b8152602060048201526011602482015270139bc81999595cc81cdd589b5a5d1d1959607a1b6044820152606401610bb9565b609f54611d82906001600160a01b0316333087612a08565b609f546040516370a0823160e01b81523060048201526000916001600160a01b0316906370a0823190602401602060405180830381865afa158015611dcb573d6000803e3d6000fd5b505050506040513d601f19601f82011682018060405250810190611def9190614c5d565b90506000611e0288888488883389612cb9565b6000898152609b6020526040812080549293509091611e2090614985565b80601f0160208091040260200160405190810160405280929190818152602001828054611e4c90614985565b8015611e995780601f10611e6e57610100808354040283529160200191611e99565b820191906000526020600020905b815481529060010190602001808311611e7c57829003601f168201915b50505050509050611ecf6040518060a001604052808b815260200185815260200183815260200184815260200187815250612ab2565b5050600160655550505050505050565b61ffff86166000908152609d60209081526040808320548851838a0120818552609b9093529281902090518993899390929091611f1c91906149c0565b604051809103902014611f6d5760405162461bcd60e51b81526020600482015260196024820152782ab73932b1b7b3903c31b430b4b71031b7b73a3937b63632b960391b6044820152606401610bb9565b6040516370a0823160e01b81523060048201526000906001600160a01b038816906370a0823190602401602060405180830381865afa158015611fb4573d6000803e3d6000fd5b505050506040513d601f19601f82011682018060405250810190611fd89190614c5d565b9050808611156120215760405162461bcd60e51b8152602060048201526014602482015273185b5bdd5b9d131108195e18d959591cc818985b60621b6044820152606401610bb9565b600061202c86614d39565b60405163cdabd37160e01b8152909150600090309063cdabd37190612055908a90600401613f03565b600060405180830381865afa158015612072573d6000803e3d6000fd5b505050506040513d6000823e601f3d908101601f1916820160405261209a9190810190614db5565b905063692d8b8b60e01b6001600160e01b0319831614156120f5576000806000806000858060200190518101906120d19190614de9565b95509550955095505094506120eb858e8642878787612bbb565b505050505061219e565b63c8ba44b560e01b6001600160e01b031983161415612151576000806000806000808c80602001905181019061212b9190614e51565b96509650965096509650965050612146868686868686612da3565b50505050505061219e565b63025b438360e41b6001600160e01b031983161415610c1d5760008060008060008b8060200190518101906121869190614ed2565b95509550955095509550506120eb85858585856126e6565b505050505050505050505050565b60408051606080820183526000808352602083018190529282015260006121d860a45488888888612a76565b60a1546040519192506000916121fa916001600160a01b031690602001614b4b565b60408051601f1981840301815282825260975460a5546000908152609c60205292832054630a51236960e01b855291945091926001600160a01b0390921691630a5123699161225b9161ffff90911690600190879089908b90600401614ced565b6040805180830381865afa158015612277573d6000803e3d6000fd5b505050506040513d601f19601f8201168201806040525081019061229b9190614bb0565b509998505050505050505050565b60408051606080820183526000808352602083018190529282015260006122d58a89898989338a612cb9565b60975460008c8152609c6020526040808220549051630a51236960e01b815293945090926001600160a01b0390921691630a512369916123279161ffff909116906001908f9088908a90600401614ced565b6040805180830381865afa158015612343573d6000803e3d6000fd5b505050506040513d601f19601f820116820180604052508101906123679190614bb0565b509b9a5050505050505050505050565b6033546001600160a01b031633146123a15760405162461bcd60e51b8152600401610bb990614b16565b818160008181106123b4576123b4614c76565b602002919091013560a45550818160018181106123d3576123d3614c76565b602002919091013560a555505050565b60606123f28260048186614f25565b8080601f016020809104026020016040519081016040528093929190818152602001838380828437600092019190915250929695505050505050565b6033546001600160a01b031633146124585760405162461bcd60e51b8152600401610bb990614b16565b60a780546001600160a01b0319166001600160a01b0392909216919091179055565b6033546001600160a01b031633146124a45760405162461bcd60e51b8152600401610bb990614b16565b6001600160a01b0381166125095760405162461bcd60e51b815260206004820152602660248201527f4f776e61626c653a206e6577206f776e657220697320746865207a65726f206160448201526564647265737360d01b6064820152608401610bb9565b61251281612bfc565b50565b60a254604051632e31283d60e01b81526000916001600160a01b031690632e31283d9061254a90879089908890600401614f4f565b602060405180830381865afa158015612567573d6000803e3d6000fd5b505050506040513d601f19601f8201168201806040525081019061258b9190614f78565b60a25460405163102af63f60e21b815291925060009182916001600160a01b0316906340abd8fc906125cb9086908b908b908b9088908c90600401614f95565b6080604051808303816000875af11580156125ea573d6000803e3d6000fd5b505050506040513d601f19601f8201168201806040525081019061260e9190614fde565b50609f546040516370a0823160e01b8152306004820152929550909350600092506001600160a01b0316906370a0823190602401602060405180830381865afa15801561265f573d6000803e3d6000fd5b505050506040513d601f19601f820116820180604052508101906126839190614c5d565b9050600081116126cb5760405162461bcd60e51b81526020600482015260136024820152724e6f7468696e6720746f20776974686472617760681b6044820152606401610bb9565b6126db8988888b8588888c612efb565b505050505050505050565b60006126f2858561290e565b609f546040516370a0823160e01b81523060048201529192506000916001600160a01b03909116906370a0823190602401602060405180830381865afa158015612740573d6000803e3d6000fd5b505050506040513d601f19601f820116820180604052508101906127649190614c5d565b9050600061277c83612776848a612fd8565b90612fe4565b90506127888185612ff0565b600061279884612776858a612fd8565b90506127a48186613390565b80828a7f4bda9eedb6fd5c584b11e8c64fc79bbe5c7faf6da945a3c7e0de361b6ee5a1bd60405160405180910390a485156126db576126db8661346c565b60405160609063186dca7760e21b9060009061280a9089908990899089908990602001615014565b6040516020818303038152906040529050818160405160200161282e92919061504a565b6040516020818303038152906040529250505095945050505050565b60408051600160f01b602082015260228082019390935281518082039093018352604201905290565b80516000908152609c602090815260409182902054609a549184015183850151606086015160a0870151955162c5803160e81b815261ffff909416956001600160a01b039095169463c58031009434946128d89489949193909282919060040161507b565b6000604051808303818588803b1580156128f157600080fd5b505af1158015612905573d6000803e3d6000fd5b50505050505050565b600061291a82846150e2565b90505b92915050565b604051636eb1769f60e11b81523060048201526001600160a01b038381166024830152600091839186169063dd62ed3e90604401602060405180830381865afa158015612974573d6000803e3d6000fd5b505050506040513d601f19601f820116820180604052508101906129989190614c5d565b6129a291906150e2565b6040516001600160a01b038516602482015260448101829052909150610d0e90859063095ea7b360e01b906064015b60408051601f198184030181529190526020810180516001600160e01b03166001600160e01b0319909316929092179091526134d0565b6040516001600160a01b0380851660248301528316604482015260648101829052610d0e9085906323b872dd60e01b906084016129d1565b60a65460405181907f18bd4bd6372d39482d375f68791749755bdb38e8768acbfb6af999cef1adc6e090600090a2600060a65590565b604080516020810187905290810185905260608082018590526080820184905260a082018390529063025b438360e41b9060009060c00161280a565b6097546020820151609f54612ad5926001600160a01b0391821692911690612923565b612af960405180606001604052806000815260200160008152602001606081525090565b60975482516000908152609c6020908152604080832054609854875185526099845291909320549186015160808701516001600160a01b0390951694639fbf10fc94349461ffff90911693929091339190612b5d906103e890612776908490612fd8565b898b604001518c606001516040518b63ffffffff1660e01b81526004016128d8999897969594939291906150fa565b600054610100900460ff16612bb35760405162461bcd60e51b8152600401610bb990615177565b611a036135a2565b806001600160a01b031686887f5e10e65c157c78416478d607d143c9fc17915c86ee950496a56552287c6975a360405160405180910390a450505050505050565b603380546001600160a01b038381166001600160a01b0319831681179093556040519116919082907f8be0079c531659141344cd1fd0a4f28419497f9722a3daafe3b4186f6b6457e090600090a35050565b60405160609063c8ba44b560e01b90600090612c78908a908a908a908a908a908a906020016151c2565b60405160208183030381529060405290508181604051602001612c9c92919061504a565b604051602081830303815290604052925050509695505050505050565b6000878152609e6020526040902054606090612d5957600063692d8b8b60e01b905060008888888888604051602001612cf29190614b4b565b604051602081830303815290604052612d0c896014015190565b604051602001612d21969594939291906151fc565b60405160208183030381529060405290508181604051602001612d4592919061504a565b604051602081830303815290604052925050505b6000815111611c7d5760405162461bcd60e51b8152602060048201526016602482015275125b9d985b1a59081e18da185a5b881c185e5b1bd85960521b6044820152606401610bb9565b8183806020019051810190612db89190614f78565b6001600160a01b0316867f6f6e500192a591cd4df1823b5be9f8681a54e919ca055745a13b8715ee3dfb81878a604051612dfc929190918252602082015260400190565b60405180910390a460a05483516001600160a01b03909116906340c10f1990612e2e9086016020908101908701614f78565b6040516001600160e01b031960e084901b1681526001600160a01b03909116600482015260248101849052604401600060405180830381600087803b158015612e7657600080fd5b505af1158015612e8a573d6000803e3d6000fd5b50505050600082111561197b5760a05460a354604051632770a7eb60e21b81526001600160a01b03918216600482015260248101859052911690639dc29fac90604401600060405180830381600087803b158015612ee757600080fd5b505af1158015610c59573d6000803e3d6000fd5b6000612f0b898989898888612c4e565b60008a8152609b6020526040812080549293509091612f2990614985565b80601f0160208091040260200160405190810160405280929190818152602001828054612f5590614985565b8015612fa25780601f10612f7757610100808354040283529160200191612fa2565b820191906000526020600020905b815481529060010190602001808311612f8557829003601f168201915b50505050509050610c596040518060a001604052808c815260200188815260200183815260200184815260200185815250612ab2565b600061291a8284615242565b600061291a8284615261565b60aa54609f5461300d916001600160a01b03918216911684612923565b60ad54600090613025906001600160a01b03166135d2565b60ae54909150600090613040906001600160a01b03166135d2565b60aa5460a754919250613060916001600160a01b03908116911686612923565b6130ff61306e856002612fe4565b64e8d4a51000848660ab8054806020026020016040519081016040528092919081815260200182805480156130cc57602002820191906000526020600020905b81546001600160a01b031681526001909101906020018083116130ae575b5050505050306130e76102584261290e90919063ffffffff16565b60aa546001600160a01b031696959493929190613712565b61318461310d856002612fe4565b64e8d4a51000838660ac8054806020026020016040519081016040528092919081815260200182805480156130cc576020028201919060005260206000209081546001600160a01b031681526001909101906020018083116130ae575050505050306130e76102584261290e90919063ffffffff16565b60a0546040516370a0823160e01b81523060048201526000916001600160a01b0316906370a0823190602401602060405180830381865afa1580156131cd573d6000803e3d6000fd5b505050506040513d601f19601f820116820180604052508101906131f19190614c5d565b60a8546040516370a0823160e01b81523060048201529192506000916001600160a01b03909116906370a0823190602401602060405180830381865afa15801561323f573d6000803e3d6000fd5b505050506040513d601f19601f820116820180604052508101906132639190614c5d565b60aa5460a054919250613283916001600160a01b03908116911684612923565b60aa5460a8546132a0916001600160a01b03918216911683612923565b60aa5460a05460a8546001600160a01b039283169263e8e33700928116911685856132d16103e8612776848e612fd8565b6132e16103e86127768a8f612fd8565b61dead6132f04261025861290e565b60405160e08a901b6001600160e01b03191681526001600160a01b039889166004820152968816602488015260448701959095526064860193909352608485019190915260a484015290921660c482015260e4810191909152610104016060604051808303816000875af115801561336c573d6000803e3d6000fd5b505050506040513d601f19601f820116820180604052508101906126db9190615283565b60aa54609f546133ad916001600160a01b03918216911684612923565b60ad546000906133c5906001600160a01b03166135d2565b60aa5460a7549192506133e5916001600160a01b03908116911685612923565b6134678364e8d4a51000838560ab80548060200260200160405190810160405280929190818152602001828054801561344757602002820191906000526020600020905b81546001600160a01b03168152600190910190602001808311613429575b505060a9546001600160a01b031692506130e7915042905061025861290e565b505050565b60a05460a9546040516340c10f1960e01b81526001600160a01b039182166004820152602481018490529116906340c10f1990604401600060405180830381600087803b1580156134bc57600080fd5b505af1158015610d5c573d6000803e3d6000fd5b6000613525826040518060400160405280602081526020017f5361666545524332303a206c6f772d6c6576656c2063616c6c206661696c6564815250856001600160a01b03166138819092919063ffffffff16565b805190915015613467578080602001905181019061354391906152b1565b6134675760405162461bcd60e51b815260206004820152602a60248201527f5361666545524332303a204552433230206f7065726174696f6e20646964206e6044820152691bdd081cdd58d8d9595960b21b6064820152608401610bb9565b600054610100900460ff166135c95760405162461bcd60e51b8152600401610bb990615177565b611a0333612bfc565b600080826001600160a01b031663313ce5676040518163ffffffff1660e01b8152600401602060405180830381865afa158015613613573d6000803e3d6000fd5b505050506040513d601f19601f8201168201806040525081019061363791906152d3565b90506000836001600160a01b031663feaf968c6040518163ffffffff1660e01b815260040160a060405180830381865afa158015613679573d6000803e3d6000fd5b505050506040513d601f19601f8201168201806040525081019061369d9190615310565b50505091505060008112156136ed5760405162461bcd60e51b81526020600482015260166024820152751b9959c81c1c9a58d95cc81b9bdd08185b1b1bddd95960521b6044820152606401610bb9565b61370a6136fb83600a615444565b6127768364e8d4a51000612fd8565b949350505050565b600086158061371f575085155b156137ea5760405163d06ca61f60e01b81526000906001600160a01b038b169063d06ca61f90613755908c908990600401615497565b600060405180830381865afa158015613772573d6000803e3d6000fd5b505050506040513d6000823e601f3d908101601f1916820160405261379a91908101906154b0565b90506137e26103e861277688846137bc6001875161389a90919063ffffffff16565b815181106137cc576137cc614c76565b6020026020010151612fd890919063ffffffff16565b915050613810565b61380d6137f9876103e8612fd8565b612776876138078c8c612fd8565b90612fd8565b90505b604051635c11d79560e01b81526001600160a01b038a1690635c11d79590613844908b908590899089908990600401615535565b600060405180830381600087803b15801561385e57600080fd5b505af1158015613872573d6000803e3d6000fd5b50505050505050505050505050565b606061389084846000856138a6565b90505b9392505050565b600061291a8284615571565b6060824710156139075760405162461bcd60e51b815260206004820152602660248201527f416464726573733a20696e73756666696369656e742062616c616e636520666f6044820152651c8818d85b1b60d21b6064820152608401610bb9565b6001600160a01b0385163b61395e5760405162461bcd60e51b815260206004820152601d60248201527f416464726573733a2063616c6c20746f206e6f6e2d636f6e74726163740000006044820152606401610bb9565b600080866001600160a01b0316858760405161397a9190615588565b60006040518083038185875af1925050503d80600081146139b7576040519150601f19603f3d011682016040523d82523d6000602084013e6139bc565b606091505b5091509150611c7d828286606083156139d6575081613893565b8251156139e65782518084602001fd5b8160405162461bcd60e51b8152600401610bb99190613f03565b828054613a0c90614985565b90600052602060002090601f016020900481019282613a2e5760008555613a74565b82601f10613a475782800160ff19823516178555613a74565b82800160010185558215613a74579182015b82811115613a74578235825591602001919060010190613a59565b50613a80929150613ba0565b5090565b828054828255906000526020600020908101928215613a74579160200282015b82811115613a745781546001600160a01b0319166001600160a01b03843516178255602090920191600190910190613aa4565b828054613ae390614985565b90600052602060002090601f016020900481019282613b055760008555613a74565b82601f10613b1e57805160ff1916838001178555613a74565b82800160010185558215613a74579182015b82811115613a74578251825591602001919060010190613b30565b828054828255906000526020600020908101928215613a74579160200282015b82811115613a7457825182546001600160a01b0319166001600160a01b03909116178255602090920191600190910190613b6b565b5b80821115613a805760008155600101613ba1565b803561ffff81168114613bc757600080fd5b919050565b60008083601f840112613bde57600080fd5b5081356001600160401b03811115613bf557600080fd5b602083019150836020828501011115613c0d57600080fd5b9250929050565b60008060008060008060808789031215613c2d57600080fd5b613c3687613bb5565b955060208701356001600160401b0380821115613c5257600080fd5b613c5e8a838b01613bcc565b9097509550604089013591508082168214613c7857600080fd5b90935060608801359080821115613c8e57600080fd5b50613c9b89828a01613bcc565b979a9699509497509295939492505050565b60008060408385031215613cc057600080fd5b50508035926020909101359150565b600060208284031215613ce157600080fd5b5035919050565b600080600060408486031215613cfd57600080fd5b8335925060208401356001600160401b03811115613d1a57600080fd5b613d2686828701613bcc565b9497909650939450505050565b600080600080600060a08688031215613d4b57600080fd5b505083359560208501359550604085013594606081013594506080013592509050565b600060208284031215613d8057600080fd5b61291a82613bb5565b60008060008060808587031215613d9f57600080fd5b5050823594602084013594506040840135936060013592509050565b60008083601f840112613dcd57600080fd5b5081356001600160401b03811115613de457600080fd5b6020830191508360208260051b8501011115613c0d57600080fd5b60008060208385031215613e1257600080fd5b82356001600160401b03811115613e2857600080fd5b613e3485828601613dbb565b90969095509350505050565b60008060008060408587031215613e5657600080fd5b84356001600160401b0380821115613e6d57600080fd5b613e7988838901613dbb565b90965094506020870135915080821115613e9257600080fd5b50613e9f87828801613dbb565b95989497509550505050565b60005b83811015613ec6578181015183820152602001613eae565b83811115610d0e5750506000910152565b60008151808452613eef816020860160208601613eab565b601f01601f19169290920160200192915050565b60208152600061291a6020830184613ed7565b6001600160a01b038116811461251257600080fd5b8035613bc781613f16565b600060208284031215613f4857600080fd5b813561389381613f16565b634e487b7160e01b600052604160045260246000fd5b60405161012081016001600160401b0381118282101715613f8c57613f8c613f53565b60405290565b604080519081016001600160401b0381118282101715613f8c57613f8c613f53565b60405161016081016001600160401b0381118282101715613f8c57613f8c613f53565b604051601f8201601f191681016001600160401b0381118282101715613fff57613fff613f53565b604052919050565b60006001600160401b0382111561402057614020613f53565b5060051b60200190565b600082601f83011261403b57600080fd5b8135602061405061404b83614007565b613fd7565b82815260059290921b8401810191818101908684111561406f57600080fd5b8286015b8481101561408a5780358352918301918301614073565b509695505050505050565b60006001600160401b038211156140ae576140ae613f53565b50601f01601f191660200190565b600082601f8301126140cd57600080fd5b81356140db61404b82614095565b8181528460208386010111156140f057600080fd5b816020850160208301376000918101602001919091529392505050565b600082601f83011261411e57600080fd5b8135602061412e61404b83614007565b82815260059290921b8401810191818101908684111561414d57600080fd5b8286015b8481101561408a5780356001600160401b038111156141705760008081fd5b61417e8986838b01016140bc565b845250918301918301614151565b600082601f83011261419d57600080fd5b813560206141ad61404b83614007565b82815260059290921b840181019181810190868411156141cc57600080fd5b8286015b8481101561408a576141e181613bb5565b83529183019183016141d0565b6000610120828403121561420157600080fd5b614209613f69565b9050813581526020820135602082015260408201356001600160401b038082111561423357600080fd5b61423f8583860161402a565b6040840152606084013591508082111561425857600080fd5b6142648583860161410d565b6060840152608084013591508082111561427d57600080fd5b6142898583860161418c565b608084015260a08401359150808211156142a257600080fd5b506142af8482850161402a565b60a0830152506142c160c08301613f2b565b60c08201526142d260e08301613f2b565b60e082015261010080830135818301525092915050565b600082601f8301126142fa57600080fd5b8135602061430a61404b83614007565b82815260059290921b8401810191818101908684111561432957600080fd5b8286015b8481101561408a57803561434081613f16565b835291830191830161432d565b60006040828403121561435f57600080fd5b614367613f92565b905081356001600160401b038082111561438057600080fd5b61438c858386016142e9565b835260208401359150808211156143a257600080fd5b506143af848285016142e9565b60208301525092915050565b6000604082840312156143cd57600080fd5b6143d5613f92565b905081356143e281613f16565b815260208201356143f281613f16565b602082015292915050565b60006020828403121561440f57600080fd5b81356001600160401b038082111561442657600080fd5b90830190610180828603121561443b57600080fd5b614443613fb4565b61444c83613f2b565b815261445a60208401613f2b565b602082015261446b60408401613f2b565b604082015261447c60608401613f2b565b606082015261448d60808401613f2b565b608082015261449e60a08401613f2b565b60a08201526144af60c08401613f2b565b60c08201526144c060e08401613f2b565b60e082015261010080840135838111156144d957600080fd5b6144e5888287016141ee565b82840152505061012080840135838111156144ff57600080fd5b61450b8882870161434d565b8284015250506101409150614522868385016143bb565b91810191909152949350505050565b600080600080600060a0868803121561454957600080fd5b8535945060208601356001600160401b0381111561456657600080fd5b614572888289016140bc565b959895975050505060408401359360608101359360809091013592509050565b60008060008060008060c087890312156145ab57600080fd5b8635955060208701359450604087013593506060870135925060808701356001600160401b038111156145dd57600080fd5b6145e989828a016140bc565b92505060a08701356145fa81613f16565b809150509295509295509295565b60008060006060848603121561461d57600080fd5b833561462881613f16565b925060208401359150604084013561463f81613f16565b809150509250925092565b6000806040838503121561465d57600080fd5b8235915061466d60208401613bb5565b90509250929050565b600080600080600080600060e0888a03121561469157600080fd5b87359650602088013595506040880135945060608801356001600160401b038111156146bc57600080fd5b6146c88a828b016140bc565b979a969950949760808101359660a0820135965060c090910135945092505050565b600080600080600080600060e0888a03121561470557600080fd5b873596506020880135955060408801359450606088013593506080880135925060a088013561473381613f16565b915060c08801356001600160401b0381111561474e57600080fd5b61475a8a828b016140bc565b91505092959891949750929550565b60008060008060008060c0878903121561478257600080fd5b863595506020870135945060408701359350606087013592506080870135915060a08701356001600160401b038111156147bb57600080fd5b6147c789828a016140bc565b9150509295509295509295565b60008060008060008060c087890312156147ed57600080fd5b6147f687613bb5565b955060208701356001600160401b038082111561481257600080fd5b61481e8a838b016140bc565b9650604089013595506060890135915061483782613f16565b9093506080880135925060a0880135908082111561485457600080fd5b506147c789828a016140bc565b60008060008060008060c0878903121561487a57600080fd5b86359550602087013594506040870135935060608701356001600160401b038111156148a557600080fd5b6148b189828a016140bc565b9350506080870135915060a087013590509295509295509295565b600080600080600080600060e0888a0312156148e757600080fd5b8735965060208801356001600160401b038082111561490557600080fd5b6149118b838c016140bc565b975060408a0135965060608a0135955060808a0135945060a08a0135935060c08a013591508082111561494357600080fd5b5061475a8a828b016140bc565b6000806020838503121561496357600080fd5b82356001600160401b0381111561497957600080fd5b613e3485828601613bcc565b600181811c9082168061499957607f821691505b602082108114156149ba57634e487b7160e01b600052602260045260246000fd5b50919050565b600080835481600182811c9150808316806149dc57607f831692505b60208084108214156149fc57634e487b7160e01b86526022600452602486fd5b818015614a105760018114614a2157614a4e565b60ff19861689528489019650614a4e565b60008a81526020902060005b86811015614a465781548b820152908501908301614a2d565b505084890196505b509498975050505050505050565b6001600160e01b03198135818116916004851015614a845780818660040360031b1b83161692505b505092915050565b6001600160e01b03198116811461251257600080fd5b60008060008060008060c08789031215614abb57600080fd5b8635614ac681614a8c565b95506020870135945060408701356001600160401b03811115614ae857600080fd5b614af489828a016140bc565b945050606087013592506080870135915060a087013590509295509295509295565b6020808252818101527f4f776e61626c653a2063616c6c6572206973206e6f7420746865206f776e6572604082015260600190565b60609190911b6bffffffffffffffffffffffff1916815260140190565b61ffff861681526001600160a01b038516602082015260a060408201819052600090614b9690830186613ed7565b84151560608401528281036080840152611c998185613ed7565b60008060408385031215614bc357600080fd5b505080516020909101519092909150565b6020808252601f908201527f5265656e7472616e637947756172643a207265656e7472616e742063616c6c00604082015260600190565b60008060008060008060c08789031215614c2457600080fd5b8651614c2f81613f16565b809650506020870151945060408701519350606087015192506080870151915060a08701516145fa81613f16565b600060208284031215614c6f57600080fd5b5051919050565b634e487b7160e01b600052603260045260246000fd5b634e487b7160e01b600052601160045260246000fd5b600061ffff80831681811415614cba57614cba614c8c565b6001019392505050565b8051825260208101516020830152600060408201516060604085015261370a6060850182613ed7565b61ffff8616815260ff8516602082015260a060408201526000614d1360a0830186613ed7565b8281036060840152614d258186613ed7565b90508281036080840152611c998185614cc4565b805160208201516001600160e01b03198082169291906004831015614d685780818460040360031b1b83161693505b505050919050565b600082601f830112614d8157600080fd5b8151614d8f61404b82614095565b818152846020838601011115614da457600080fd5b61370a826020830160208701613eab565b600060208284031215614dc757600080fd5b81516001600160401b03811115614ddd57600080fd5b61370a84828501614d70565b60008060008060008060c08789031215614e0257600080fd5b8651955060208701519450604087015193506060870151925060808701516001600160401b03811115614e3457600080fd5b614e4089828a01614d70565b92505060a08701516145fa81613f16565b600080600080600080600060e0888a031215614e6c57600080fd5b8751614e7781614a8c565b8097505060208801519550604088015194506060880151935060808801516001600160401b03811115614ea957600080fd5b614eb58a828b01614d70565b93505060a0880151915060c0880151905092959891949750929550565b60008060008060008060c08789031215614eeb57600080fd5b8651614ef681614a8c565b6020880151604089015160608a015160808b015160a0909b0151939c929b509099909850965090945092505050565b60008085851115614f3557600080fd5b83861115614f4257600080fd5b5050820193919092039150565b838152606060208201526000614f686060830185613ed7565b9050826040830152949350505050565b600060208284031215614f8a57600080fd5b815161389381613f16565b6001600160a01b038716815260c060208201819052600090614fb990830188613ed7565b6040830196909652506060810193909352901515608083015260a09091015292915050565b60008060008060808587031215614ff457600080fd5b505082516020840151604085015160609095015191969095509092509050565b85815260a06020820152600061502d60a0830187613ed7565b604083019590955250606081019290925260809091015292915050565b6001600160e01b031983168152815160009061506d816004850160208701613eab565b919091016004019392505050565b61ffff8716815260c06020820152600061509860c0830188613ed7565b82810360408401526150aa8188613ed7565b6001600160a01b0387811660608601528616608085015283810360a085015290506150d58185613ed7565b9998505050505050505050565b600082198211156150f5576150f5614c8c565b500190565b600061012061ffff8c1683528a602084015289604084015260018060a01b03891660608401528760808401528660a08401528060c084015261513e81840187614cc4565b905082810360e08401526151528186613ed7565b90508281036101008401526151678185613ed7565b9c9b505050505050505050505050565b6020808252602b908201527f496e697469616c697a61626c653a20636f6e7472616374206973206e6f74206960408201526a6e697469616c697a696e6760a81b606082015260800190565b86815285602082015284604082015260c0606082015260006151e760c0830186613ed7565b60808301949094525060a00152949350505050565b86815285602082015284604082015283606082015260c06080820152600061522760c0830185613ed7565b905060018060a01b03831660a0830152979650505050505050565b600081600019048311821515161561525c5761525c614c8c565b500290565b60008261527e57634e487b7160e01b600052601260045260246000fd5b500490565b60008060006060848603121561529857600080fd5b8351925060208401519150604084015190509250925092565b6000602082840312156152c357600080fd5b8151801515811461389357600080fd5b6000602082840312156152e557600080fd5b815160ff8116811461389357600080fd5b805169ffffffffffffffffffff81168114613bc757600080fd5b600080600080600060a0868803121561532857600080fd5b615331866152f6565b9450602086015193506040860151925060608601519150615354608087016152f6565b90509295509295909350565b600181815b8085111561539b57816000190482111561538157615381614c8c565b8085161561538e57918102915b93841c9390800290615365565b509250929050565b6000826153b25750600161291d565b816153bf5750600061291d565b81600181146153d557600281146153df576153fb565b600191505061291d565b60ff8411156153f0576153f0614c8c565b50506001821b61291d565b5060208310610133831016604e8410600b841016171561541e575081810a61291d565b6154288383615360565b806000190482111561543c5761543c614c8c565b029392505050565b600061291a60ff8416836153a3565b600081518084526020808501945080840160005b8381101561548c5781516001600160a01b031687529582019590820190600101615467565b509495945050505050565b8281526040602082015260006138906040830184615453565b600060208083850312156154c357600080fd5b82516001600160401b038111156154d957600080fd5b8301601f810185136154ea57600080fd5b80516154f861404b82614007565b81815260059190911b8201830190838101908783111561551757600080fd5b928401925b82841015611c7d5783518252928401929084019061551c565b85815284602082015260a06040820152600061555460a0830186615453565b6001600160a01b0394909416606083015250608001529392505050565b60008282101561558357615583614c8c565b500390565b6000825161559a818460208701613eab565b919091019291505056fea2646970667358221220ec75631abd89c3aae661e9a9027cde7d53cfa34b2e931b261e27c5c64f20f63464736f6c634300080a0033",
  "immutableReferences": {},
  "source": "// SPDX-License-Identifier: MIT\n\npragma solidity ^0.8.0;\n\nimport \"../ZorroControllerXChain.sol\";\n\ncontract MockZorroControllerXChain is ZorroControllerXChain {\n    event ReceiveXChainDepositReq(\n        uint256 indexed _pid,\n        uint256 indexed _valueUSDC,\n        address indexed _destAccount\n    );\n\n    function encodeXChainDepositPayload(\n        uint256 _chainId,\n        uint256 _pid,\n        uint256 _valueUSDC,\n        uint256 _weeksCommitted,\n        uint256 _maxMarketMovement,\n        address _originWallet,\n        bytes memory _destWallet\n    ) public view returns (bytes memory) {\n        return\n            _encodeXChainDepositPayload(\n                _chainId,\n                _pid,\n                _valueUSDC,\n                _weeksCommitted,\n                _maxMarketMovement,\n                _originWallet,\n                _destWallet\n            );\n    }\n\n    function mockReceiveXChainDepositRequest(\n        uint256 _pid,\n        uint256 _valueUSDC,\n        uint256 _weeksCommitted,\n        uint256 _maxMarketMovement,\n        bytes memory _originAccount,\n        address _destAccount\n    ) public {\n        _receiveXChainDepositRequest(_pid, _valueUSDC, _weeksCommitted, block.timestamp, _maxMarketMovement, _originAccount, _destAccount);\n    }\n\n    function _receiveXChainDepositRequest(\n        uint256 _pid,\n        uint256 _valueUSDC,\n        uint256 _weeksCommitted,\n        uint256 _vaultEnteredAt,\n        uint256 _maxMarketMovement,\n        bytes memory _originAccount,\n        address _destAccount\n    ) internal override {\n        emit ReceiveXChainDepositReq(_pid, _valueUSDC, _destAccount);\n    }\n}\n",
  "sourcePath": "/Users/kristophm/Documents/workspace/zorro-protocol/contracts/controllers/mocks/MockZorroControllerXChain.sol",
  "compiler": {
    "name": "solc",
    "version": "0.8.10+commit.fc410830.Emscripten.clang"
  },
  "schemaVersion": "3.4.4",
  "updatedAt": "2022-05-14T17:10:45.090Z",
  "networkType": "ethereum",
  "devdoc": {
    "kind": "dev",
    "methods": {
      "checkXChainDepositFee(uint256,bytes,uint256,uint256,uint256,uint256,bytes)": {
        "params": {
          "_chainId": "The Zorro Chain ID (not the LayerZero one)",
          "_destWallet": "A valid address on the remote chain that can claim ownership",
          "_dstContract": "The destination contract address on the remote chain",
          "_maxMarketMovement": "Acceptable degree of slippage on any transaction (e.g. 950 = 5%, 990 = 1% etc.)",
          "_pid": "The pool ID on the remote chain",
          "_valueUSDC": "The amount of USDC to deposit",
          "_weeksCommitted": "Number of weeks to commit to a vault"
        },
        "returns": {
          "_0": "uint256 Expected fee to pay for bridging/cross chain execution"
        }
      },
      "checkXChainDistributeEarningsFee(uint256,uint256,uint256,uint256)": {
        "params": {
          "_accSlashedRewards": "Accumulated slashed rewards on chain",
          "_amountUSDCBuyback": "Amount of USDC to buy back",
          "_amountUSDCRevShare": "Amount of USDC to rev share with ZOR single staking vault",
          "_maxMarketMovement": "factor to account for max market movement/slippage."
        },
        "returns": {
          "_0": "uint256 Quantity of native token as fees"
        }
      },
      "checkXChainRepatriationFee(uint256,uint256,uint256,bytes,uint256,uint256,uint256)": {
        "params": {
          "_burnableZORRewards": "Quantity of ZOR tokens minted for rewards here that need to be burned on the home chain",
          "_gasForDestinationLZReceive": "How much additional gas to provide at destination contract",
          "_originChainId": "Zorro chain ID of chain to which funds are to be repatriated to",
          "_originRecipient": "Recipient of funds on the origin chain",
          "_pid": "Pool ID on current chain",
          "_rewardsDue": "ZOR rewards due to the recipient",
          "_trancheId": "ID of tranche on current chain that funds were withdrawn from"
        },
        "returns": {
          "_0": "uint256 Estimated fee in native tokens"
        }
      },
      "checkXChainWithdrawalFee(uint256,uint256,uint256,uint256,uint256)": {
        "params": {
          "_gasForDestinationLZReceive": "How much additional gas to provide at destination contract",
          "_maxMarketMovement": "Acceptable degree of slippage on any transaction (e.g. 950 = 5%, 990 = 1% etc.)",
          "_pid": "The pool ID on the remote chain",
          "_trancheId": "The tranche ID on the remote chain",
          "_zorroChainId": "The Zorro Chain ID (not the LayerZero one)"
        },
        "returns": {
          "_0": "uint256 Expected fee to pay for bridging/cross chain execution"
        }
      },
      "extractParamsPayload(bytes)": {
        "params": {
          "_payloadWithSig": "ABI encoded payload with function selector"
        },
        "returns": {
          "paramsPayload": "Payload with params only"
        }
      },
      "initialize((address,address,address,address,address,address,address,address,(uint256,uint256,uint256[],bytes[],uint16[],uint256[],address,address,uint256),(address[],address[]),(address,address)))": {
        "params": {
          "_initValue": "a ZorroControllerXChainInit struct for initializing this contract"
        }
      },
      "owner()": {
        "details": "Returns the address of the current owner."
      },
      "receiveXChainDepositRequest(uint256,uint256,uint256,uint256,bytes,address)": {
        "details": "Should never ever be actually called."
      },
      "receiveXChainDistributionRequest(uint256,uint256,uint256,uint256,uint256)": {
        "details": "Should never ever be actually called."
      },
      "receiveXChainRepatriationRequest(uint256,uint256,uint256,bytes,uint256,uint256)": {
        "details": "Should never ever be actually called."
      },
      "receiveXChainWithdrawalRequest(uint256,bytes,uint256,uint256,uint256)": {
        "details": "Should never ever be actually called."
      },
      "renounceOwnership()": {
        "details": "Leaves the contract without owner. It will not be possible to call `onlyOwner` functions anymore. Can only be called by the current owner. NOTE: Renouncing ownership will leave the contract without an owner, thereby removing any functionality that is only available to the owner."
      },
      "sendXChainDepositRequest(uint256,uint256,uint256,uint256,uint256,bytes)": {
        "details": "Requires appropriate fee to be paid via msg.value (use checkXChainDepositFee() above)",
        "params": {
          "_destWallet": "A valid address on the remote chain that can claim ownership",
          "_maxMarketMovement": "Acceptable degree of slippage on any transaction (e.g. 950 = 5%, 990 = 1% etc.)",
          "_pid": "The pool ID on the remote chain",
          "_valueUSDC": "The amount of USDC to deposit",
          "_weeksCommitted": "Number of weeks to commit to a vault",
          "_zorroChainId": "The Zorro Chain ID (not the LayerZero one)"
        }
      },
      "sendXChainDistributeEarningsRequest(uint256,uint256,uint256,uint256)": {
        "params": {
          "_buybackAmountUSDC": "Amount in USDC to buy back",
          "_maxMarketMovement": "Acceptable slippage (950 = 5%, 990 = 1% etc.)",
          "_pid": "Pool ID",
          "_revShareAmountUSDC": "Amount in USDC to revshare w/ ZOR single staking vault"
        }
      },
      "sendXChainWithdrawalRequest(uint256,uint256,uint256,uint256,uint256)": {
        "details": "Requires value to be submitted to pay for cross chain transaction. Use checkXChainWithdrawalFee() to estimate fees",
        "params": {
          "_destZorroChainId": "The Zorro chain ID of the remote chain to withdraw from",
          "_gasForDestinationLZReceive": "How much additional gas to provide at destination contract",
          "_maxMarketMovement": "Acceptable degree of slippage on any transaction (e.g. 950 = 5%, 990 = 1% etc.)",
          "_pid": "The pool ID on the remote chain",
          "_trancheId": "The ID of the tranche for the given user and pool"
        }
      },
      "setControllerContract(uint256,bytes)": {
        "params": {
          "_controller": "Bytes representation of smart contract address for cross chain contract",
          "_zorroChainId": "Zorro Chain ID"
        }
      },
      "setStargateDestPoolIds(uint256,uint16)": {
        "params": {
          "_stargatePoolId": "Stargate pool ID",
          "_zorroChainId": "Zorro chain ID"
        }
      },
      "setZorroChainToLZMap(uint256,uint16)": {
        "params": {
          "_lzChainId": "LayerZero Chain ID",
          "_zorroChainId": "Zorro chain ID"
        }
      },
      "sgReceive(uint16,bytes,uint256,address,uint256,bytes)": {
        "details": "Implements IStargateReceiver interface"
      },
      "transferOwnership(address)": {
        "details": "Transfers ownership of the contract to a new account (`newOwner`). Can only be called by the current owner."
      }
    },
    "version": 1
  },
  "userdoc": {
    "kind": "user",
    "methods": {
      "checkXChainDepositFee(uint256,bytes,uint256,uint256,uint256,uint256,bytes)": {
        "notice": "Checks to see how much a cross chain deposit will cost"
      },
      "checkXChainDistributeEarningsFee(uint256,uint256,uint256,uint256)": {
        "notice": "Checks to see how much a cross chain earnings distribution will cost"
      },
      "checkXChainRepatriationFee(uint256,uint256,uint256,bytes,uint256,uint256,uint256)": {
        "notice": "Estimates fees for repatriation operation"
      },
      "checkXChainWithdrawalFee(uint256,uint256,uint256,uint256,uint256)": {
        "notice": "Checks to see how much a cross chain withdrawal will cost"
      },
      "extractParamsPayload(bytes)": {
        "notice": "Removes function signature from ABI encoded payload"
      },
      "initialize((address,address,address,address,address,address,address,address,(uint256,uint256,uint256[],bytes[],uint16[],uint256[],address,address,uint256),(address[],address[]),(address,address)))": {
        "notice": "Upgradeable constructor"
      },
      "receiveXChainDepositRequest(uint256,uint256,uint256,uint256,bytes,address)": {
        "notice": "Dummy func to allow .selector call above and guarantee typesafety for abi calls."
      },
      "receiveXChainDistributionRequest(uint256,uint256,uint256,uint256,uint256)": {
        "notice": "Dummy func to allow .selector call above and guarantee typesafety for abi calls."
      },
      "receiveXChainRepatriationRequest(uint256,uint256,uint256,bytes,uint256,uint256)": {
        "notice": "Dummy func to allow .selector call above and guarantee typesafety for abi calls."
      },
      "receiveXChainWithdrawalRequest(uint256,bytes,uint256,uint256,uint256)": {
        "notice": "Dummy func to allow .selector call above and guarantee typesafety for abi calls."
      },
      "sendXChainDepositRequest(uint256,uint256,uint256,uint256,uint256,bytes)": {
        "notice": "Prepares and sends a cross chain deposit request. Takes care of necessary financial ops (transfer/locking USDC)"
      },
      "sendXChainDistributeEarningsRequest(uint256,uint256,uint256,uint256)": {
        "notice": "Sends a request back to the home chain to distribute earnings"
      },
      "sendXChainWithdrawalRequest(uint256,uint256,uint256,uint256,uint256)": {
        "notice": "Prepares and sends a cross chain withdrwal request."
      },
      "setControllerContract(uint256,bytes)": {
        "notice": "Setter: Controller contract for each chain"
      },
      "setLayerZeroParams(address,uint256,address)": {
        "notice": "Setter: Set main LZ params"
      },
      "setStargateDestPoolIds(uint256,uint16)": {
        "notice": "Setter: Stargate dest pool IDs for USD asset"
      },
      "setZorroChainToLZMap(uint256,uint16)": {
        "notice": "Setter: LZ/Stargate params"
      },
      "sgReceive(uint16,bytes,uint256,address,uint256,bytes)": {
        "notice": "Receives stargate cross-chain calls"
      }
    },
    "version": 1
  }
}