{
  "contractName": "MockLayerZeroEndpoint",
  "abi": [
    {
      "anonymous": false,
      "inputs": [
        {
          "indexed": true,
          "internalType": "uint16",
          "name": "_dstChainId",
          "type": "uint16"
        },
        {
          "indexed": true,
          "internalType": "uint256",
          "name": "msgValue",
          "type": "uint256"
        }
      ],
      "name": "SentMessage",
      "type": "event"
    },
    {
      "inputs": [
        {
          "internalType": "uint16",
          "name": "_dstChainId",
          "type": "uint16"
        },
        {
          "internalType": "bytes",
          "name": "_destination",
          "type": "bytes"
        },
        {
          "internalType": "bytes",
          "name": "_payload",
          "type": "bytes"
        },
        {
          "internalType": "address payable",
          "name": "_refundAddress",
          "type": "address"
        },
        {
          "internalType": "address",
          "name": "_zroPaymentAddress",
          "type": "address"
        },
        {
          "internalType": "bytes",
          "name": "_adapterParams",
          "type": "bytes"
        }
      ],
      "name": "send",
      "outputs": [],
      "stateMutability": "payable",
      "type": "function",
      "payable": true
    },
    {
      "inputs": [
        {
          "internalType": "uint16",
          "name": "_srcChainId",
          "type": "uint16"
        },
        {
          "internalType": "bytes",
          "name": "_srcAddress",
          "type": "bytes"
        },
        {
          "internalType": "address",
          "name": "_dstAddress",
          "type": "address"
        },
        {
          "internalType": "uint64",
          "name": "_nonce",
          "type": "uint64"
        },
        {
          "internalType": "uint256",
          "name": "_gasLimit",
          "type": "uint256"
        },
        {
          "internalType": "bytes",
          "name": "_payload",
          "type": "bytes"
        }
      ],
      "name": "receivePayload",
      "outputs": [],
      "stateMutability": "nonpayable",
      "type": "function"
    },
    {
      "inputs": [
        {
          "internalType": "uint16",
          "name": "_srcChainId",
          "type": "uint16"
        },
        {
          "internalType": "bytes",
          "name": "_srcAddress",
          "type": "bytes"
        }
      ],
      "name": "getInboundNonce",
      "outputs": [
        {
          "internalType": "uint64",
          "name": "",
          "type": "uint64"
        }
      ],
      "stateMutability": "view",
      "type": "function",
      "constant": true
    },
    {
      "inputs": [
        {
          "internalType": "uint16",
          "name": "_dstChainId",
          "type": "uint16"
        },
        {
          "internalType": "address",
          "name": "_srcAddress",
          "type": "address"
        }
      ],
      "name": "getOutboundNonce",
      "outputs": [
        {
          "internalType": "uint64",
          "name": "",
          "type": "uint64"
        }
      ],
      "stateMutability": "view",
      "type": "function",
      "constant": true
    },
    {
      "inputs": [
        {
          "internalType": "uint16",
          "name": "_dstChainId",
          "type": "uint16"
        },
        {
          "internalType": "address",
          "name": "_userApplication",
          "type": "address"
        },
        {
          "internalType": "bytes",
          "name": "_payload",
          "type": "bytes"
        },
        {
          "internalType": "bool",
          "name": "_payInZRO",
          "type": "bool"
        },
        {
          "internalType": "bytes",
          "name": "_adapterParam",
          "type": "bytes"
        }
      ],
      "name": "estimateFees",
      "outputs": [
        {
          "internalType": "uint256",
          "name": "nativeFee",
          "type": "uint256"
        },
        {
          "internalType": "uint256",
          "name": "zroFee",
          "type": "uint256"
        }
      ],
      "stateMutability": "view",
      "type": "function",
      "constant": true
    },
    {
      "inputs": [],
      "name": "getChainId",
      "outputs": [
        {
          "internalType": "uint16",
          "name": "",
          "type": "uint16"
        }
      ],
      "stateMutability": "view",
      "type": "function",
      "constant": true
    },
    {
      "inputs": [
        {
          "internalType": "uint16",
          "name": "_srcChainId",
          "type": "uint16"
        },
        {
          "internalType": "bytes",
          "name": "_srcAddress",
          "type": "bytes"
        },
        {
          "internalType": "bytes",
          "name": "_payload",
          "type": "bytes"
        }
      ],
      "name": "retryPayload",
      "outputs": [],
      "stateMutability": "nonpayable",
      "type": "function"
    },
    {
      "inputs": [
        {
          "internalType": "uint16",
          "name": "_srcChainId",
          "type": "uint16"
        },
        {
          "internalType": "bytes",
          "name": "_srcAddress",
          "type": "bytes"
        }
      ],
      "name": "hasStoredPayload",
      "outputs": [
        {
          "internalType": "bool",
          "name": "",
          "type": "bool"
        }
      ],
      "stateMutability": "view",
      "type": "function",
      "constant": true
    },
    {
      "inputs": [
        {
          "internalType": "address",
          "name": "_userApplication",
          "type": "address"
        }
      ],
      "name": "getSendLibraryAddress",
      "outputs": [
        {
          "internalType": "address",
          "name": "",
          "type": "address"
        }
      ],
      "stateMutability": "view",
      "type": "function",
      "constant": true
    },
    {
      "inputs": [
        {
          "internalType": "address",
          "name": "_userApplication",
          "type": "address"
        }
      ],
      "name": "getReceiveLibraryAddress",
      "outputs": [
        {
          "internalType": "address",
          "name": "",
          "type": "address"
        }
      ],
      "stateMutability": "view",
      "type": "function",
      "constant": true
    },
    {
      "inputs": [],
      "name": "isSendingPayload",
      "outputs": [
        {
          "internalType": "bool",
          "name": "",
          "type": "bool"
        }
      ],
      "stateMutability": "view",
      "type": "function",
      "constant": true
    },
    {
      "inputs": [],
      "name": "isReceivingPayload",
      "outputs": [
        {
          "internalType": "bool",
          "name": "",
          "type": "bool"
        }
      ],
      "stateMutability": "view",
      "type": "function",
      "constant": true
    },
    {
      "inputs": [
        {
          "internalType": "uint16",
          "name": "_version",
          "type": "uint16"
        },
        {
          "internalType": "uint16",
          "name": "_chainId",
          "type": "uint16"
        },
        {
          "internalType": "address",
          "name": "_userApplication",
          "type": "address"
        },
        {
          "internalType": "uint256",
          "name": "_configType",
          "type": "uint256"
        }
      ],
      "name": "getConfig",
      "outputs": [
        {
          "internalType": "bytes",
          "name": "",
          "type": "bytes"
        }
      ],
      "stateMutability": "view",
      "type": "function",
      "constant": true
    },
    {
      "inputs": [
        {
          "internalType": "address",
          "name": "_userApplication",
          "type": "address"
        }
      ],
      "name": "getSendVersion",
      "outputs": [
        {
          "internalType": "uint16",
          "name": "",
          "type": "uint16"
        }
      ],
      "stateMutability": "view",
      "type": "function",
      "constant": true
    },
    {
      "inputs": [
        {
          "internalType": "address",
          "name": "_userApplication",
          "type": "address"
        }
      ],
      "name": "getReceiveVersion",
      "outputs": [
        {
          "internalType": "uint16",
          "name": "",
          "type": "uint16"
        }
      ],
      "stateMutability": "view",
      "type": "function",
      "constant": true
    },
    {
      "inputs": [
        {
          "internalType": "uint16",
          "name": "_version",
          "type": "uint16"
        },
        {
          "internalType": "uint16",
          "name": "_chainId",
          "type": "uint16"
        },
        {
          "internalType": "uint256",
          "name": "_configType",
          "type": "uint256"
        },
        {
          "internalType": "bytes",
          "name": "_config",
          "type": "bytes"
        }
      ],
      "name": "setConfig",
      "outputs": [],
      "stateMutability": "nonpayable",
      "type": "function"
    },
    {
      "inputs": [
        {
          "internalType": "uint16",
          "name": "_version",
          "type": "uint16"
        }
      ],
      "name": "setSendVersion",
      "outputs": [],
      "stateMutability": "nonpayable",
      "type": "function"
    },
    {
      "inputs": [
        {
          "internalType": "uint16",
          "name": "_version",
          "type": "uint16"
        }
      ],
      "name": "setReceiveVersion",
      "outputs": [],
      "stateMutability": "nonpayable",
      "type": "function"
    },
    {
      "inputs": [
        {
          "internalType": "uint16",
          "name": "_srcChainId",
          "type": "uint16"
        },
        {
          "internalType": "bytes",
          "name": "_srcAddress",
          "type": "bytes"
        }
      ],
      "name": "forceResumeReceive",
      "outputs": [],
      "stateMutability": "nonpayable",
      "type": "function"
    }
  ],
  "bytecode": "0x608060405234801561001057600080fd5b50610928806100206000396000f3fe6080604052600436106101145760003560e01c80639c729da1116100a0578063cbed8b9c11610064578063cbed8b9c146102ec578063da1a7c9a14610139578063e97a448a146102d8578063f5ecbdbc14610307578063fdc07c701461033957600080fd5b80639c729da11461020f578063aaff5f161461027e578063c2fa4813146102a0578063c5803100146102c5578063ca066b35146102d857600080fd5b80633408e470116100e75780633408e470146101a657806340a7bb10146101ba57806342d65a8d146101ef57806371ba2fd61461020f5780637a1457481461024257600080fd5b806307e0db1714610119578063096568f6146101395780630eaf6ea61461017257806310ddb13714610119575b600080fd5b34801561012557600080fd5b5061013761013436600461040f565b50565b005b34801561014557600080fd5b5061015a610154366004610446565b50600090565b60405161ffff90911681526020015b60405180910390f35b34801561017e57600080fd5b5061019661018d3660046104ac565b60009392505050565b6040519015158152602001610169565b3480156101b257600080fd5b50600061015a565b3480156101c657600080fd5b506101da6101d53660046104ff565b610354565b60408051928352602083019190915201610169565b3480156101fb57600080fd5b5061013761020a3660046104ac565b505050565b34801561021b57600080fd5b5061022a610154366004610446565b6040516001600160a01b039091168152602001610169565b34801561024e57600080fd5b5061026561025d3660046105ac565b600092915050565b60405167ffffffffffffffff9091168152602001610169565b34801561028a57600080fd5b506101376102993660046105e3565b5050505050565b3480156102ac57600080fd5b506101376102bb366004610664565b5050505050505050565b6101376102d336600461071c565b610396565b3480156102e457600080fd5b506000610196565b3480156102f857600080fd5b506101376102993660046107f2565b34801561031357600080fd5b5061032c610322366004610850565b6060949350505050565b604051610169919061089d565b34801561034557600080fd5b5061026561018d3660046104ac565b6000806001600160a01b03881661036a57600080fd5b8480610374575084155b61037d57600080fd5b5067016345785d8a000098600098509650505050505050565b6001600160a01b0384166103a957600080fd5b6001600160a01b0383166103bc57600080fd5b604051349061ffff8b16907fce69d104ffd564ab3937c73b3980eafaac9c99acf8602f1a2b471a0e95b652fe90600090a3505050505050505050565b803561ffff8116811461040a57600080fd5b919050565b60006020828403121561042157600080fd5b61042a826103f8565b9392505050565b6001600160a01b038116811461013457600080fd5b60006020828403121561045857600080fd5b813561042a81610431565b60008083601f84011261047557600080fd5b50813567ffffffffffffffff81111561048d57600080fd5b6020830191508360208285010111156104a557600080fd5b9250929050565b6000806000604084860312156104c157600080fd5b6104ca846103f8565b9250602084013567ffffffffffffffff8111156104e657600080fd5b6104f286828701610463565b9497909650939450505050565b600080600080600080600060a0888a03121561051a57600080fd5b610523886103f8565b9650602088013561053381610431565b9550604088013567ffffffffffffffff8082111561055057600080fd5b61055c8b838c01610463565b909750955060608a01359150811515821461057657600080fd5b9093506080890135908082111561058c57600080fd5b506105998a828b01610463565b989b979a50959850939692959293505050565b600080604083850312156105bf57600080fd5b6105c8836103f8565b915060208301356105d881610431565b809150509250929050565b6000806000806000606086880312156105fb57600080fd5b610604866103f8565b9450602086013567ffffffffffffffff8082111561062157600080fd5b61062d89838a01610463565b9096509450604088013591508082111561064657600080fd5b5061065388828901610463565b969995985093965092949392505050565b60008060008060008060008060c0898b03121561068057600080fd5b610689896103f8565b9750602089013567ffffffffffffffff808211156106a657600080fd5b6106b28c838d01610463565b909950975060408b013591506106c782610431565b90955060608a01359080821682146106de57600080fd5b90945060808a0135935060a08a013590808211156106fb57600080fd5b506107088b828c01610463565b999c989b5096995094979396929594505050565b600080600080600080600080600060c08a8c03121561073a57600080fd5b6107438a6103f8565b985060208a013567ffffffffffffffff8082111561076057600080fd5b61076c8d838e01610463565b909a50985060408c013591508082111561078557600080fd5b6107918d838e01610463565b909850965060608c013591506107a682610431565b90945060808b0135906107b882610431565b90935060a08b013590808211156107ce57600080fd5b506107db8c828d01610463565b915080935050809150509295985092959850929598565b60008060008060006080868803121561080a57600080fd5b610813866103f8565b9450610821602087016103f8565b935060408601359250606086013567ffffffffffffffff81111561084457600080fd5b61065388828901610463565b6000806000806080858703121561086657600080fd5b61086f856103f8565b935061087d602086016103f8565b9250604085013561088d81610431565b9396929550929360600135925050565b600060208083528351808285015260005b818110156108ca578581018301518582016040015282016108ae565b818111156108dc576000604083870101525b50601f01601f191692909201604001939250505056fea26469706673582212203ccec681e9a5e971899ea1068f6b490b4c95f42106edb86847d92a24cfadf7b064736f6c634300080a0033",
  "immutableReferences": {},
  "source": "// SPDX-License-Identifier: MIT\n\npragma solidity ^0.8.0;\n\nimport \"../ZorroControllerXChain.sol\";\n\nimport \"../../interfaces/ILayerZeroEndpoint.sol\";\n\ncontract MockZorroControllerXChain is ZorroControllerXChain {\n    event ReceiveXChainDepositReq(\n        uint256 indexed _pid,\n        uint256 indexed _valueUSD,\n        address indexed _destAccount\n    );\n\n    event ReceiveXChainRepatriationReq(\n        uint256 indexed _originChainId,\n        uint256 indexed _rewardsDue\n    );\n\n    event ReceiveXChainDistributionReq(\n        uint256 indexed _amountUSDBuyback,\n        uint256 indexed _amountUSDRevShare,\n        uint256 indexed _accSlashedRewards\n    );\n\n    event ReceiveXChainWithdrawalReq(\n        uint256 indexed _originChainId,\n        uint256 indexed _pid,\n        uint256 indexed _trancheId\n    );\n\n    function encodeXChainDepositPayload(\n        uint256 _chainId,\n        uint256 _pid,\n        uint256 _valueUSD,\n        uint256 _weeksCommitted,\n        uint256 _maxMarketMovement,\n        address _originWallet,\n        bytes memory _destWallet\n    ) public view returns (bytes memory) {\n        return\n            _encodeXChainDepositPayload(\n                _chainId,\n                _pid,\n                _valueUSD,\n                _weeksCommitted,\n                _maxMarketMovement,\n                _originWallet,\n                _destWallet\n            );\n    }\n\n    function mockReceiveXChainDepositRequest(\n        uint256 _pid,\n        uint256 _valueUSD,\n        uint256 _weeksCommitted,\n        uint256 _maxMarketMovement,\n        bytes memory _originAccount,\n        address _destAccount\n    ) public {\n        _receiveXChainDepositRequest(\n            _pid,\n            _valueUSD,\n            _weeksCommitted,\n            block.timestamp,\n            _maxMarketMovement,\n            _originAccount,\n            _destAccount\n        );\n    }\n\n    function _receiveXChainDepositRequest(\n        uint256 _pid,\n        uint256 _valueUSD,\n        uint256 _weeksCommitted,\n        uint256 _vaultEnteredAt,\n        uint256 _maxMarketMovement,\n        bytes memory _originAccount,\n        address _destAccount\n    ) internal override {\n        // Requirements\n        require(_weeksCommitted >= 0);\n        require(_vaultEnteredAt >= 0);\n        require(_maxMarketMovement > 0);\n        require(_originAccount.length >= 0);\n        // TODO: Consider making this an actual event like for repatriation, instead of one just for test\n        emit ReceiveXChainDepositReq(_pid, _valueUSD, _destAccount);\n    }\n\n    function mockReceiveXChainRepatriationRequest(\n        uint256 _originChainId,\n        uint256 _pid,\n        uint256 _trancheId,\n        bytes memory _originRecipient,\n        uint256 _rewardsDue\n    ) public {\n        _receiveXChainRepatriationRequest(\n            _originChainId,\n            _pid,\n            _trancheId,\n            _originRecipient,\n            _rewardsDue\n        );\n    }\n\n    function _receiveXChainRepatriationRequest(\n        uint256 _originChainId,\n        uint256 _pid,\n        uint256 _trancheId,\n        bytes memory _originRecipient,\n        uint256 _rewardsDue\n    ) internal override {\n        // Requirements\n        require(_pid >= 0);\n        require(_trancheId >= 0);\n        require(_originRecipient.length >= 0);\n\n        emit ReceiveXChainRepatriationReq(\n            _originChainId,\n            _rewardsDue\n        );\n    }\n\n    function mockReceiveXChainDistributionRequest(\n        uint256 _remoteChainId,\n        uint256 _amountUSDBuyback,\n        uint256 _amountUSDRevShare,\n        uint256 _accSlashedRewards,\n        uint256 _maxMarketMovement\n    ) public {\n        _receiveXChainDistributionRequest(\n            _remoteChainId,\n            _amountUSDBuyback,\n            _amountUSDRevShare,\n            _accSlashedRewards,\n            _maxMarketMovement\n        );\n    }\n\n    function _receiveXChainDistributionRequest(\n        uint256 _remoteChainId,\n        uint256 _amountUSDBuyback,\n        uint256 _amountUSDRevShare,\n        uint256 _accSlashedRewards,\n        uint256 _maxMarketMovement\n    ) internal override {\n        // Requirements\n        require(_remoteChainId >= 0);\n        require(_maxMarketMovement > 0);\n\n        emit ReceiveXChainDistributionReq(\n            _amountUSDBuyback,\n            _amountUSDRevShare,\n            _accSlashedRewards\n        );\n    }\n\n    function mockReceiveXChainWithdrawalRequest(\n        uint256 _originChainId,\n        bytes memory _originAccount,\n        uint256 _pid,\n        uint256 _trancheId,\n        uint256 _maxMarketMovement\n    ) public {\n        _receiveXChainWithdrawalRequest(\n            _originChainId,\n            _originAccount,\n            _pid,\n            _trancheId,\n            _maxMarketMovement\n        );\n    }\n\n    function _receiveXChainWithdrawalRequest(\n        uint256 _originChainId,\n        bytes memory _originAccount,\n        uint256 _pid,\n        uint256 _trancheId,\n        uint256 _maxMarketMovement\n    ) internal override {\n        // Requirements\n        require(_originAccount.length >= 0);\n        require(_maxMarketMovement > 0);\n\n        emit ReceiveXChainWithdrawalReq(_originChainId, _pid, _trancheId);\n    }\n\n    function getLZAdapterParamsForWithdraw(uint256 _gasForDestinationLZReceive)\n        public\n        pure\n        returns (bytes memory)\n    {\n        return _getLZAdapterParamsForWithdraw(_gasForDestinationLZReceive);\n    }\n\n    function encodeXChainWithdrawalPayload(\n        uint256 _originChainId,\n        bytes memory _originAccount,\n        uint256 _pid,\n        uint256 _trancheId,\n        uint256 _maxMarketMovement\n    ) public pure returns (bytes memory) {\n        return\n            _encodeXChainWithdrawalPayload(\n                _originChainId,\n                _originAccount,\n                _pid,\n                _trancheId,\n                _maxMarketMovement\n            );\n    }\n\n    function encodeXChainRepatriationPayload(\n        uint256 _originChainId,\n        uint256 _pid,\n        uint256 _trancheId,\n        bytes memory _originRecipient,\n        uint256 _rewardsDue\n    ) public pure returns (bytes memory) {\n        return\n            _encodeXChainRepatriationPayload(\n                _originChainId,\n                _pid,\n                _trancheId,\n                _originRecipient,\n                _rewardsDue\n            );\n    }\n\n    function sendXChainRepatriationRequest(\n        uint256 _originChainId,\n        uint256 _pid,\n        uint256 _trancheId,\n        bytes memory _originRecipient,\n        uint256 _amountUSD,\n        uint256 _rewardsDue,\n        uint256 _maxMarketMovementAllowed\n    ) public payable {\n        _sendXChainRepatriationRequest(\n            _originChainId,\n            _pid,\n            _trancheId,\n            _originRecipient,\n            _amountUSD,\n            _rewardsDue,\n            _maxMarketMovementAllowed\n        );\n    }\n\n    function encodeXChainDistributeEarningsPayload(\n        uint256 _remoteChainId,\n        uint256 _amountUSDBuyback,\n        uint256 _amountUSDRevShare,\n        uint256 _accSlashedRewards,\n        uint256 _maxMarketMovement\n    ) public pure returns (bytes memory) {\n        return\n            _encodeXChainDistributeEarningsPayload(\n                _remoteChainId,\n                _amountUSDBuyback,\n                _amountUSDRevShare,\n                _accSlashedRewards,\n                _maxMarketMovement\n            );\n    }\n\n    function buybackOnChain(uint256 _amountUSD, uint256 _maxMarketMovement)\n        public\n    {\n        _buybackOnChain(_amountUSD, _maxMarketMovement);\n    }\n\n    function revShareOnChain(uint256 _amountUSD, uint256 _maxMarketMovement)\n        public\n    {\n        _revShareOnChain(_amountUSD, _maxMarketMovement);\n    }\n\n    function awardSlashedRewardsToStakers(uint256 _slashedZORRewards)\n        public\n    {\n        _awardSlashedRewardsToStakers(_slashedZORRewards);\n    }\n}\n\ncontract MockLayerZeroEndpoint is ILayerZeroEndpoint {\n    event SentMessage(uint16 indexed _dstChainId, uint256 indexed msgValue);\n\n    uint256 private _dummy; // For compiler satisfaction of state mutability\n\n    function send(\n        uint16 _dstChainId,\n        bytes calldata _destination,\n        bytes calldata _payload,\n        address payable _refundAddress,\n        address _zroPaymentAddress,\n        bytes calldata _adapterParams\n    ) external payable {\n        // Requirements\n        require(_destination.length >= 0);\n        require(_payload.length >= 0);\n        require(_refundAddress != address(0));\n        require(_zroPaymentAddress != address(0));\n        require(_adapterParams.length >= 0);\n\n        emit SentMessage(_dstChainId, msg.value);\n    }\n\n    function receivePayload(\n        uint16 _srcChainId,\n        bytes calldata _srcAddress,\n        address _dstAddress,\n        uint64 _nonce,\n        uint256 _gasLimit,\n        bytes calldata _payload\n    ) external {}\n\n    function getInboundNonce(uint16 _srcChainId, bytes calldata _srcAddress)\n        external\n        view\n        returns (uint64)\n    {}\n\n    function getOutboundNonce(uint16 _dstChainId, address _srcAddress)\n        external\n        view\n        returns (uint64)\n    {}\n\n    function estimateFees(\n        uint16 _dstChainId,\n        address _userApplication,\n        bytes calldata _payload,\n        bool _payInZRO,\n        bytes calldata _adapterParam\n    ) external view returns (uint256 nativeFee, uint256 zroFee) {\n        // Requirements (to satisfy compiler warnings for unused variables)\n        require(_dstChainId >= 0);\n        require(_userApplication != address(0));\n        require(_payload.length >= 0);\n        require(_payInZRO || !_payInZRO); \n        require(_adapterParam.length >= 0);\n        require(_dummy >= 0);\n\n        return (0.1 ether, 0);\n    }\n\n    function getChainId() external view returns (uint16) {}\n\n    function retryPayload(\n        uint16 _srcChainId,\n        bytes calldata _srcAddress,\n        bytes calldata _payload\n    ) external {}\n\n    function hasStoredPayload(uint16 _srcChainId, bytes calldata _srcAddress)\n        external\n        view\n        returns (bool)\n    {}\n\n    function getSendLibraryAddress(address _userApplication)\n        external\n        view\n        returns (address)\n    {}\n\n    function getReceiveLibraryAddress(address _userApplication)\n        external\n        view\n        returns (address)\n    {}\n\n    function isSendingPayload() external view returns (bool) {}\n\n    function isReceivingPayload() external view returns (bool) {}\n\n    function getConfig(\n        uint16 _version,\n        uint16 _chainId,\n        address _userApplication,\n        uint256 _configType\n    ) external view returns (bytes memory) {}\n\n    function getSendVersion(address _userApplication)\n        external\n        view\n        returns (uint16)\n    {}\n\n    function getReceiveVersion(address _userApplication)\n        external\n        view\n        returns (uint16)\n    {}\n\n    function setConfig(\n        uint16 _version,\n        uint16 _chainId,\n        uint256 _configType,\n        bytes calldata _config\n    ) external {}\n\n    function setSendVersion(uint16 _version) external {}\n\n    function setReceiveVersion(uint16 _version) external {}\n\n    function forceResumeReceive(uint16 _srcChainId, bytes calldata _srcAddress)\n        external\n    {}\n}\n",
  "sourcePath": "/Users/kristophm/Documents/workspace/zorro-protocol/contracts/controllers/mocks/MockZorroControllerXChain.sol",
  "compiler": {
    "name": "solc",
    "version": "0.8.10+commit.fc410830.Emscripten.clang"
  },
  "schemaVersion": "3.4.4",
  "updatedAt": "2022-10-07T13:09:10.523Z",
  "networkType": "ethereum",
  "devdoc": {
    "kind": "dev",
    "methods": {},
    "version": 1
  },
  "userdoc": {
    "kind": "user",
    "methods": {},
    "version": 1
  }
}