{
  "contractName": "MockZorroControllerXChain",
  "abi": [
    {
      "anonymous": false,
      "inputs": [
        {
          "indexed": true,
          "internalType": "address",
          "name": "previousOwner",
          "type": "address"
        },
        {
          "indexed": true,
          "internalType": "address",
          "name": "newOwner",
          "type": "address"
        }
      ],
      "name": "OwnershipTransferred",
      "type": "event"
    },
    {
      "anonymous": false,
      "inputs": [
        {
          "indexed": true,
          "internalType": "uint256",
          "name": "_pid",
          "type": "uint256"
        },
        {
          "indexed": true,
          "internalType": "uint256",
          "name": "_valueUSDC",
          "type": "uint256"
        },
        {
          "indexed": true,
          "internalType": "address",
          "name": "_destAccount",
          "type": "address"
        }
      ],
      "name": "ReceiveXChainDepositReq",
      "type": "event"
    },
    {
      "anonymous": false,
      "inputs": [
        {
          "indexed": true,
          "internalType": "uint256",
          "name": "_amountUSDCBuyback",
          "type": "uint256"
        },
        {
          "indexed": true,
          "internalType": "uint256",
          "name": "_amountUSDCRevShare",
          "type": "uint256"
        },
        {
          "indexed": true,
          "internalType": "uint256",
          "name": "_accSlashedRewards",
          "type": "uint256"
        }
      ],
      "name": "ReceiveXChainDistributionReq",
      "type": "event"
    },
    {
      "anonymous": false,
      "inputs": [
        {
          "indexed": true,
          "internalType": "uint256",
          "name": "_originChainId",
          "type": "uint256"
        },
        {
          "indexed": true,
          "internalType": "uint256",
          "name": "_burnableZORRewards",
          "type": "uint256"
        },
        {
          "indexed": true,
          "internalType": "uint256",
          "name": "_rewardsDue",
          "type": "uint256"
        }
      ],
      "name": "ReceiveXChainRepatriationReq",
      "type": "event"
    },
    {
      "anonymous": false,
      "inputs": [
        {
          "indexed": true,
          "internalType": "uint256",
          "name": "_originChainId",
          "type": "uint256"
        },
        {
          "indexed": true,
          "internalType": "uint256",
          "name": "_pid",
          "type": "uint256"
        },
        {
          "indexed": true,
          "internalType": "uint256",
          "name": "_trancheId",
          "type": "uint256"
        }
      ],
      "name": "ReceiveXChainWithdrawalReq",
      "type": "event"
    },
    {
      "anonymous": false,
      "inputs": [
        {
          "indexed": true,
          "internalType": "uint256",
          "name": "_amountZOR",
          "type": "uint256"
        }
      ],
      "name": "RemovedSlashedRewards",
      "type": "event"
    },
    {
      "anonymous": false,
      "inputs": [
        {
          "indexed": true,
          "internalType": "uint256",
          "name": "_remoteChainId",
          "type": "uint256"
        },
        {
          "indexed": true,
          "internalType": "uint256",
          "name": "_buybackAmountUSDC",
          "type": "uint256"
        },
        {
          "indexed": true,
          "internalType": "uint256",
          "name": "_revShareAmountUSDC",
          "type": "uint256"
        }
      ],
      "name": "XChainDistributeEarnings",
      "type": "event"
    },
    {
      "anonymous": false,
      "inputs": [
        {
          "indexed": true,
          "internalType": "uint256",
          "name": "_pid",
          "type": "uint256"
        },
        {
          "indexed": true,
          "internalType": "address",
          "name": "_originRecipient",
          "type": "address"
        },
        {
          "indexed": true,
          "internalType": "uint256",
          "name": "_burnableZORRewards",
          "type": "uint256"
        },
        {
          "indexed": false,
          "internalType": "uint256",
          "name": "_trancheId",
          "type": "uint256"
        },
        {
          "indexed": false,
          "internalType": "uint256",
          "name": "_originChainId",
          "type": "uint256"
        }
      ],
      "name": "XChainRepatriation",
      "type": "event"
    },
    {
      "inputs": [
        {
          "internalType": "uint16",
          "name": "",
          "type": "uint16"
        }
      ],
      "name": "LZChainToZorroMap",
      "outputs": [
        {
          "internalType": "uint256",
          "name": "",
          "type": "uint256"
        }
      ],
      "stateMutability": "view",
      "type": "function",
      "constant": true
    },
    {
      "inputs": [
        {
          "internalType": "uint256",
          "name": "",
          "type": "uint256"
        }
      ],
      "name": "USDCToZorroLPPoolOtherTokenPath",
      "outputs": [
        {
          "internalType": "address",
          "name": "",
          "type": "address"
        }
      ],
      "stateMutability": "view",
      "type": "function",
      "constant": true
    },
    {
      "inputs": [
        {
          "internalType": "uint256",
          "name": "",
          "type": "uint256"
        }
      ],
      "name": "USDCToZorroPath",
      "outputs": [
        {
          "internalType": "address",
          "name": "",
          "type": "address"
        }
      ],
      "stateMutability": "view",
      "type": "function",
      "constant": true
    },
    {
      "inputs": [],
      "name": "ZORRO",
      "outputs": [
        {
          "internalType": "address",
          "name": "",
          "type": "address"
        }
      ],
      "stateMutability": "view",
      "type": "function",
      "constant": true
    },
    {
      "inputs": [
        {
          "internalType": "uint256",
          "name": "",
          "type": "uint256"
        }
      ],
      "name": "ZorroChainToLZMap",
      "outputs": [
        {
          "internalType": "uint16",
          "name": "",
          "type": "uint16"
        }
      ],
      "stateMutability": "view",
      "type": "function",
      "constant": true
    },
    {
      "inputs": [],
      "name": "accumulatedSlashedRewards",
      "outputs": [
        {
          "internalType": "uint256",
          "name": "",
          "type": "uint256"
        }
      ],
      "stateMutability": "view",
      "type": "function",
      "constant": true
    },
    {
      "inputs": [],
      "name": "burnAddress",
      "outputs": [
        {
          "internalType": "address",
          "name": "",
          "type": "address"
        }
      ],
      "stateMutability": "view",
      "type": "function",
      "constant": true
    },
    {
      "inputs": [],
      "name": "chainId",
      "outputs": [
        {
          "internalType": "uint256",
          "name": "",
          "type": "uint256"
        }
      ],
      "stateMutability": "view",
      "type": "function",
      "constant": true
    },
    {
      "inputs": [
        {
          "internalType": "uint256",
          "name": "",
          "type": "uint256"
        }
      ],
      "name": "chainTypes",
      "outputs": [
        {
          "internalType": "uint256",
          "name": "",
          "type": "uint256"
        }
      ],
      "stateMutability": "view",
      "type": "function",
      "constant": true
    },
    {
      "inputs": [
        {
          "internalType": "uint256",
          "name": "_chainId",
          "type": "uint256"
        },
        {
          "internalType": "bytes",
          "name": "_dstContract",
          "type": "bytes"
        },
        {
          "internalType": "uint256",
          "name": "_pid",
          "type": "uint256"
        },
        {
          "internalType": "uint256",
          "name": "_valueUSDC",
          "type": "uint256"
        },
        {
          "internalType": "uint256",
          "name": "_weeksCommitted",
          "type": "uint256"
        },
        {
          "internalType": "uint256",
          "name": "_maxMarketMovement",
          "type": "uint256"
        },
        {
          "internalType": "bytes",
          "name": "_destWallet",
          "type": "bytes"
        }
      ],
      "name": "checkXChainDepositFee",
      "outputs": [
        {
          "internalType": "uint256",
          "name": "",
          "type": "uint256"
        }
      ],
      "stateMutability": "view",
      "type": "function",
      "constant": true
    },
    {
      "inputs": [
        {
          "internalType": "uint256",
          "name": "_amountUSDCBuyback",
          "type": "uint256"
        },
        {
          "internalType": "uint256",
          "name": "_amountUSDCRevShare",
          "type": "uint256"
        },
        {
          "internalType": "uint256",
          "name": "_accSlashedRewards",
          "type": "uint256"
        },
        {
          "internalType": "uint256",
          "name": "_maxMarketMovement",
          "type": "uint256"
        }
      ],
      "name": "checkXChainDistributeEarningsFee",
      "outputs": [
        {
          "internalType": "uint256",
          "name": "",
          "type": "uint256"
        }
      ],
      "stateMutability": "view",
      "type": "function",
      "constant": true
    },
    {
      "inputs": [
        {
          "internalType": "uint256",
          "name": "_originChainId",
          "type": "uint256"
        },
        {
          "internalType": "uint256",
          "name": "_pid",
          "type": "uint256"
        },
        {
          "internalType": "uint256",
          "name": "_trancheId",
          "type": "uint256"
        },
        {
          "internalType": "bytes",
          "name": "_originRecipient",
          "type": "bytes"
        },
        {
          "internalType": "uint256",
          "name": "_burnableZORRewards",
          "type": "uint256"
        },
        {
          "internalType": "uint256",
          "name": "_rewardsDue",
          "type": "uint256"
        },
        {
          "internalType": "uint256",
          "name": "_gasForDestinationLZReceive",
          "type": "uint256"
        }
      ],
      "name": "checkXChainRepatriationFee",
      "outputs": [
        {
          "internalType": "uint256",
          "name": "",
          "type": "uint256"
        }
      ],
      "stateMutability": "view",
      "type": "function",
      "constant": true
    },
    {
      "inputs": [
        {
          "internalType": "uint256",
          "name": "_zorroChainId",
          "type": "uint256"
        },
        {
          "internalType": "uint256",
          "name": "_pid",
          "type": "uint256"
        },
        {
          "internalType": "uint256",
          "name": "_trancheId",
          "type": "uint256"
        },
        {
          "internalType": "uint256",
          "name": "_maxMarketMovement",
          "type": "uint256"
        },
        {
          "internalType": "uint256",
          "name": "_gasForDestinationLZReceive",
          "type": "uint256"
        }
      ],
      "name": "checkXChainWithdrawalFee",
      "outputs": [
        {
          "internalType": "uint256",
          "name": "",
          "type": "uint256"
        }
      ],
      "stateMutability": "view",
      "type": "function",
      "constant": true
    },
    {
      "inputs": [
        {
          "internalType": "uint256",
          "name": "",
          "type": "uint256"
        }
      ],
      "name": "controllerContractsMap",
      "outputs": [
        {
          "internalType": "bytes",
          "name": "",
          "type": "bytes"
        }
      ],
      "stateMutability": "view",
      "type": "function",
      "constant": true
    },
    {
      "inputs": [],
      "name": "currentChainController",
      "outputs": [
        {
          "internalType": "address",
          "name": "",
          "type": "address"
        }
      ],
      "stateMutability": "view",
      "type": "function",
      "constant": true
    },
    {
      "inputs": [],
      "name": "defaultStablecoin",
      "outputs": [
        {
          "internalType": "address",
          "name": "",
          "type": "address"
        }
      ],
      "stateMutability": "view",
      "type": "function",
      "constant": true
    },
    {
      "inputs": [
        {
          "internalType": "bytes",
          "name": "_payloadWithSig",
          "type": "bytes"
        }
      ],
      "name": "extractParamsPayload",
      "outputs": [
        {
          "internalType": "bytes",
          "name": "paramsPayload",
          "type": "bytes"
        }
      ],
      "stateMutability": "pure",
      "type": "function",
      "constant": true
    },
    {
      "inputs": [],
      "name": "homeChainId",
      "outputs": [
        {
          "internalType": "uint256",
          "name": "",
          "type": "uint256"
        }
      ],
      "stateMutability": "view",
      "type": "function",
      "constant": true
    },
    {
      "inputs": [],
      "name": "homeChainZorroController",
      "outputs": [
        {
          "internalType": "address",
          "name": "",
          "type": "address"
        }
      ],
      "stateMutability": "view",
      "type": "function",
      "constant": true
    },
    {
      "inputs": [
        {
          "components": [
            {
              "internalType": "address",
              "name": "defaultStablecoin",
              "type": "address"
            },
            {
              "internalType": "address",
              "name": "ZORRO",
              "type": "address"
            },
            {
              "internalType": "address",
              "name": "zorroLPPoolOtherToken",
              "type": "address"
            },
            {
              "internalType": "address",
              "name": "zorroStakingVault",
              "type": "address"
            },
            {
              "internalType": "address",
              "name": "uniRouterAddress",
              "type": "address"
            },
            {
              "internalType": "address",
              "name": "homeChainZorroController",
              "type": "address"
            },
            {
              "internalType": "address",
              "name": "currentChainController",
              "type": "address"
            },
            {
              "internalType": "address",
              "name": "publicPool",
              "type": "address"
            },
            {
              "components": [
                {
                  "internalType": "uint256",
                  "name": "chainId",
                  "type": "uint256"
                },
                {
                  "internalType": "uint256",
                  "name": "homeChainId",
                  "type": "uint256"
                },
                {
                  "internalType": "uint256[]",
                  "name": "ZorroChainIDs",
                  "type": "uint256[]"
                },
                {
                  "internalType": "bytes[]",
                  "name": "controllerContracts",
                  "type": "bytes[]"
                },
                {
                  "internalType": "uint16[]",
                  "name": "LZChainIDs",
                  "type": "uint16[]"
                },
                {
                  "internalType": "uint256[]",
                  "name": "stargateDestPoolIds",
                  "type": "uint256[]"
                },
                {
                  "internalType": "address",
                  "name": "stargateRouter",
                  "type": "address"
                },
                {
                  "internalType": "address",
                  "name": "layerZeroEndpoint",
                  "type": "address"
                },
                {
                  "internalType": "uint256",
                  "name": "stargateSwapPoolId",
                  "type": "uint256"
                }
              ],
              "internalType": "struct ZorroControllerXChain.ZorroControllerXChainBridgeParams",
              "name": "bridge",
              "type": "tuple"
            },
            {
              "components": [
                {
                  "internalType": "address[]",
                  "name": "USDCToZorroPath",
                  "type": "address[]"
                },
                {
                  "internalType": "address[]",
                  "name": "USDCToZorroLPPoolOtherTokenPath",
                  "type": "address[]"
                }
              ],
              "internalType": "struct ZorroControllerXChain.ZorroControllerXChainSwapParams",
              "name": "swaps",
              "type": "tuple"
            },
            {
              "components": [
                {
                  "internalType": "address",
                  "name": "priceFeedZOR",
                  "type": "address"
                },
                {
                  "internalType": "address",
                  "name": "priceFeedLPPoolOtherToken",
                  "type": "address"
                }
              ],
              "internalType": "struct ZorroControllerXChain.ZorroControllerXChainPriceFeedParams",
              "name": "priceFeeds",
              "type": "tuple"
            }
          ],
          "internalType": "struct ZorroControllerXChain.ZorroControllerXChainInit",
          "name": "_initValue",
          "type": "tuple"
        }
      ],
      "name": "initialize",
      "outputs": [],
      "stateMutability": "nonpayable",
      "type": "function"
    },
    {
      "inputs": [],
      "name": "layerZeroEndpoint",
      "outputs": [
        {
          "internalType": "address",
          "name": "",
          "type": "address"
        }
      ],
      "stateMutability": "view",
      "type": "function",
      "constant": true
    },
    {
      "inputs": [
        {
          "internalType": "uint16",
          "name": "_srcChainId",
          "type": "uint16"
        },
        {
          "internalType": "bytes",
          "name": "_srcAddress",
          "type": "bytes"
        },
        {
          "internalType": "uint64",
          "name": "_nonce",
          "type": "uint64"
        },
        {
          "internalType": "bytes",
          "name": "_payload",
          "type": "bytes"
        }
      ],
      "name": "lzReceive",
      "outputs": [],
      "stateMutability": "nonpayable",
      "type": "function"
    },
    {
      "inputs": [],
      "name": "owner",
      "outputs": [
        {
          "internalType": "address",
          "name": "",
          "type": "address"
        }
      ],
      "stateMutability": "view",
      "type": "function",
      "constant": true
    },
    {
      "inputs": [],
      "name": "priceFeedLPPoolOtherToken",
      "outputs": [
        {
          "internalType": "contract AggregatorV3Interface",
          "name": "",
          "type": "address"
        }
      ],
      "stateMutability": "view",
      "type": "function",
      "constant": true
    },
    {
      "inputs": [],
      "name": "priceFeedZOR",
      "outputs": [
        {
          "internalType": "contract AggregatorV3Interface",
          "name": "",
          "type": "address"
        }
      ],
      "stateMutability": "view",
      "type": "function",
      "constant": true
    },
    {
      "inputs": [],
      "name": "publicPool",
      "outputs": [
        {
          "internalType": "address",
          "name": "",
          "type": "address"
        }
      ],
      "stateMutability": "view",
      "type": "function",
      "constant": true
    },
    {
      "inputs": [
        {
          "internalType": "uint256",
          "name": "_pid",
          "type": "uint256"
        },
        {
          "internalType": "uint256",
          "name": "_valueUSDC",
          "type": "uint256"
        },
        {
          "internalType": "uint256",
          "name": "_weeksCommitted",
          "type": "uint256"
        },
        {
          "internalType": "uint256",
          "name": "_maxMarketMovement",
          "type": "uint256"
        },
        {
          "internalType": "bytes",
          "name": "_originAccount",
          "type": "bytes"
        },
        {
          "internalType": "address",
          "name": "_destAccount",
          "type": "address"
        }
      ],
      "name": "receiveXChainDepositRequest",
      "outputs": [],
      "stateMutability": "nonpayable",
      "type": "function"
    },
    {
      "inputs": [
        {
          "internalType": "uint256",
          "name": "_remoteChainId",
          "type": "uint256"
        },
        {
          "internalType": "uint256",
          "name": "_amountUSDCBuyback",
          "type": "uint256"
        },
        {
          "internalType": "uint256",
          "name": "_amountUSDCRevShare",
          "type": "uint256"
        },
        {
          "internalType": "uint256",
          "name": "_accSlashedRewards",
          "type": "uint256"
        },
        {
          "internalType": "uint256",
          "name": "_maxMarketMovement",
          "type": "uint256"
        }
      ],
      "name": "receiveXChainDistributionRequest",
      "outputs": [],
      "stateMutability": "nonpayable",
      "type": "function"
    },
    {
      "inputs": [
        {
          "internalType": "uint256",
          "name": "_originChainId",
          "type": "uint256"
        },
        {
          "internalType": "uint256",
          "name": "_pid",
          "type": "uint256"
        },
        {
          "internalType": "uint256",
          "name": "_trancheId",
          "type": "uint256"
        },
        {
          "internalType": "bytes",
          "name": "_originRecipient",
          "type": "bytes"
        },
        {
          "internalType": "uint256",
          "name": "_burnableZORRewards",
          "type": "uint256"
        },
        {
          "internalType": "uint256",
          "name": "_rewardsDue",
          "type": "uint256"
        }
      ],
      "name": "receiveXChainRepatriationRequest",
      "outputs": [],
      "stateMutability": "nonpayable",
      "type": "function"
    },
    {
      "inputs": [
        {
          "internalType": "uint256",
          "name": "_originChainId",
          "type": "uint256"
        },
        {
          "internalType": "bytes",
          "name": "_originAccount",
          "type": "bytes"
        },
        {
          "internalType": "uint256",
          "name": "_pid",
          "type": "uint256"
        },
        {
          "internalType": "uint256",
          "name": "_trancheId",
          "type": "uint256"
        },
        {
          "internalType": "uint256",
          "name": "_maxMarketMovement",
          "type": "uint256"
        }
      ],
      "name": "receiveXChainWithdrawalRequest",
      "outputs": [],
      "stateMutability": "nonpayable",
      "type": "function"
    },
    {
      "inputs": [],
      "name": "renounceOwnership",
      "outputs": [],
      "stateMutability": "nonpayable",
      "type": "function"
    },
    {
      "inputs": [
        {
          "internalType": "uint256",
          "name": "_zorroChainId",
          "type": "uint256"
        },
        {
          "internalType": "uint256",
          "name": "_pid",
          "type": "uint256"
        },
        {
          "internalType": "uint256",
          "name": "_valueUSDC",
          "type": "uint256"
        },
        {
          "internalType": "uint256",
          "name": "_weeksCommitted",
          "type": "uint256"
        },
        {
          "internalType": "uint256",
          "name": "_maxMarketMovement",
          "type": "uint256"
        },
        {
          "internalType": "bytes",
          "name": "_destWallet",
          "type": "bytes"
        }
      ],
      "name": "sendXChainDepositRequest",
      "outputs": [],
      "stateMutability": "payable",
      "type": "function",
      "payable": true
    },
    {
      "inputs": [
        {
          "internalType": "uint256",
          "name": "_pid",
          "type": "uint256"
        },
        {
          "internalType": "uint256",
          "name": "_buybackAmountUSDC",
          "type": "uint256"
        },
        {
          "internalType": "uint256",
          "name": "_revShareAmountUSDC",
          "type": "uint256"
        },
        {
          "internalType": "uint256",
          "name": "_maxMarketMovement",
          "type": "uint256"
        }
      ],
      "name": "sendXChainDistributeEarningsRequest",
      "outputs": [],
      "stateMutability": "payable",
      "type": "function",
      "payable": true
    },
    {
      "inputs": [
        {
          "internalType": "uint256",
          "name": "_destZorroChainId",
          "type": "uint256"
        },
        {
          "internalType": "uint256",
          "name": "_pid",
          "type": "uint256"
        },
        {
          "internalType": "uint256",
          "name": "_trancheId",
          "type": "uint256"
        },
        {
          "internalType": "uint256",
          "name": "_maxMarketMovement",
          "type": "uint256"
        },
        {
          "internalType": "uint256",
          "name": "_gasForDestinationLZReceive",
          "type": "uint256"
        }
      ],
      "name": "sendXChainWithdrawalRequest",
      "outputs": [],
      "stateMutability": "payable",
      "type": "function",
      "payable": true
    },
    {
      "inputs": [
        {
          "internalType": "uint256",
          "name": "_zorroChainId",
          "type": "uint256"
        },
        {
          "internalType": "uint256",
          "name": "_chainType",
          "type": "uint256"
        }
      ],
      "name": "setChainType",
      "outputs": [],
      "stateMutability": "nonpayable",
      "type": "function"
    },
    {
      "inputs": [
        {
          "internalType": "uint256[]",
          "name": "_chainIds",
          "type": "uint256[]"
        }
      ],
      "name": "setChains",
      "outputs": [],
      "stateMutability": "nonpayable",
      "type": "function"
    },
    {
      "inputs": [
        {
          "internalType": "uint256",
          "name": "_zorroChainId",
          "type": "uint256"
        },
        {
          "internalType": "bytes",
          "name": "_controller",
          "type": "bytes"
        }
      ],
      "name": "setControllerContract",
      "outputs": [],
      "stateMutability": "nonpayable",
      "type": "function"
    },
    {
      "inputs": [
        {
          "internalType": "address[]",
          "name": "_contracts",
          "type": "address[]"
        }
      ],
      "name": "setKeyContracts",
      "outputs": [],
      "stateMutability": "nonpayable",
      "type": "function"
    },
    {
      "inputs": [
        {
          "internalType": "address",
          "name": "_stargateRouter",
          "type": "address"
        },
        {
          "internalType": "uint256",
          "name": "_stargateSwapPoolId",
          "type": "uint256"
        },
        {
          "internalType": "address",
          "name": "_layerZeroEndpoint",
          "type": "address"
        }
      ],
      "name": "setLayerZeroParams",
      "outputs": [],
      "stateMutability": "nonpayable",
      "type": "function"
    },
    {
      "inputs": [
        {
          "internalType": "address[]",
          "name": "_priceFeeds",
          "type": "address[]"
        }
      ],
      "name": "setPriceFeeds",
      "outputs": [],
      "stateMutability": "nonpayable",
      "type": "function"
    },
    {
      "inputs": [
        {
          "internalType": "uint256",
          "name": "_zorroChainId",
          "type": "uint256"
        },
        {
          "internalType": "uint16",
          "name": "_stargatePoolId",
          "type": "uint16"
        }
      ],
      "name": "setStargateDestPoolIds",
      "outputs": [],
      "stateMutability": "nonpayable",
      "type": "function"
    },
    {
      "inputs": [
        {
          "internalType": "address[]",
          "name": "_USDCToZorroPath",
          "type": "address[]"
        },
        {
          "internalType": "address[]",
          "name": "_USDCToZorroLPPoolOtherTokenPath",
          "type": "address[]"
        }
      ],
      "name": "setSwapPaths",
      "outputs": [],
      "stateMutability": "nonpayable",
      "type": "function"
    },
    {
      "inputs": [
        {
          "internalType": "address",
          "name": "_token",
          "type": "address"
        }
      ],
      "name": "setTokenUSDC",
      "outputs": [],
      "stateMutability": "nonpayable",
      "type": "function"
    },
    {
      "inputs": [
        {
          "internalType": "address[]",
          "name": "_tokens",
          "type": "address[]"
        }
      ],
      "name": "setTokens",
      "outputs": [],
      "stateMutability": "nonpayable",
      "type": "function"
    },
    {
      "inputs": [
        {
          "internalType": "address",
          "name": "_contract",
          "type": "address"
        }
      ],
      "name": "setUniRouterAddress",
      "outputs": [],
      "stateMutability": "nonpayable",
      "type": "function"
    },
    {
      "inputs": [
        {
          "internalType": "uint256",
          "name": "_zorroChainId",
          "type": "uint256"
        },
        {
          "internalType": "uint16",
          "name": "_lzChainId",
          "type": "uint16"
        }
      ],
      "name": "setZorroChainToLZMap",
      "outputs": [],
      "stateMutability": "nonpayable",
      "type": "function"
    },
    {
      "inputs": [
        {
          "internalType": "address",
          "name": "_token",
          "type": "address"
        }
      ],
      "name": "setZorroLPPoolOtherToken",
      "outputs": [],
      "stateMutability": "nonpayable",
      "type": "function"
    },
    {
      "inputs": [
        {
          "internalType": "address",
          "name": "_contract",
          "type": "address"
        }
      ],
      "name": "setZorroStakingVault",
      "outputs": [],
      "stateMutability": "nonpayable",
      "type": "function"
    },
    {
      "inputs": [
        {
          "internalType": "uint16",
          "name": "_chainId",
          "type": "uint16"
        },
        {
          "internalType": "bytes",
          "name": "_srcAddress",
          "type": "bytes"
        },
        {
          "internalType": "uint256",
          "name": "_nonce",
          "type": "uint256"
        },
        {
          "internalType": "address",
          "name": "_token",
          "type": "address"
        },
        {
          "internalType": "uint256",
          "name": "amountLD",
          "type": "uint256"
        },
        {
          "internalType": "bytes",
          "name": "payload",
          "type": "bytes"
        }
      ],
      "name": "sgReceive",
      "outputs": [],
      "stateMutability": "nonpayable",
      "type": "function"
    },
    {
      "inputs": [
        {
          "internalType": "uint256",
          "name": "",
          "type": "uint256"
        }
      ],
      "name": "stargateDestPoolIds",
      "outputs": [
        {
          "internalType": "uint256",
          "name": "",
          "type": "uint256"
        }
      ],
      "stateMutability": "view",
      "type": "function",
      "constant": true
    },
    {
      "inputs": [],
      "name": "stargateRouter",
      "outputs": [
        {
          "internalType": "address",
          "name": "",
          "type": "address"
        }
      ],
      "stateMutability": "view",
      "type": "function",
      "constant": true
    },
    {
      "inputs": [],
      "name": "stargateSwapPoolId",
      "outputs": [
        {
          "internalType": "uint256",
          "name": "",
          "type": "uint256"
        }
      ],
      "stateMutability": "view",
      "type": "function",
      "constant": true
    },
    {
      "inputs": [],
      "name": "tokenUSDC",
      "outputs": [
        {
          "internalType": "address",
          "name": "",
          "type": "address"
        }
      ],
      "stateMutability": "view",
      "type": "function",
      "constant": true
    },
    {
      "inputs": [
        {
          "internalType": "address",
          "name": "newOwner",
          "type": "address"
        }
      ],
      "name": "transferOwnership",
      "outputs": [],
      "stateMutability": "nonpayable",
      "type": "function"
    },
    {
      "inputs": [],
      "name": "uniRouterAddress",
      "outputs": [
        {
          "internalType": "address",
          "name": "",
          "type": "address"
        }
      ],
      "stateMutability": "view",
      "type": "function",
      "constant": true
    },
    {
      "inputs": [],
      "name": "zorroLPPoolOtherToken",
      "outputs": [
        {
          "internalType": "address",
          "name": "",
          "type": "address"
        }
      ],
      "stateMutability": "view",
      "type": "function",
      "constant": true
    },
    {
      "inputs": [],
      "name": "zorroStakingVault",
      "outputs": [
        {
          "internalType": "address",
          "name": "",
          "type": "address"
        }
      ],
      "stateMutability": "view",
      "type": "function",
      "constant": true
    },
    {
      "inputs": [
        {
          "internalType": "uint256",
          "name": "_chainId",
          "type": "uint256"
        },
        {
          "internalType": "uint256",
          "name": "_pid",
          "type": "uint256"
        },
        {
          "internalType": "uint256",
          "name": "_valueUSDC",
          "type": "uint256"
        },
        {
          "internalType": "uint256",
          "name": "_weeksCommitted",
          "type": "uint256"
        },
        {
          "internalType": "uint256",
          "name": "_maxMarketMovement",
          "type": "uint256"
        },
        {
          "internalType": "address",
          "name": "_originWallet",
          "type": "address"
        },
        {
          "internalType": "bytes",
          "name": "_destWallet",
          "type": "bytes"
        }
      ],
      "name": "encodeXChainDepositPayload",
      "outputs": [
        {
          "internalType": "bytes",
          "name": "",
          "type": "bytes"
        }
      ],
      "stateMutability": "view",
      "type": "function",
      "constant": true
    },
    {
      "inputs": [
        {
          "internalType": "uint256",
          "name": "_pid",
          "type": "uint256"
        },
        {
          "internalType": "uint256",
          "name": "_valueUSDC",
          "type": "uint256"
        },
        {
          "internalType": "uint256",
          "name": "_weeksCommitted",
          "type": "uint256"
        },
        {
          "internalType": "uint256",
          "name": "_maxMarketMovement",
          "type": "uint256"
        },
        {
          "internalType": "bytes",
          "name": "_originAccount",
          "type": "bytes"
        },
        {
          "internalType": "address",
          "name": "_destAccount",
          "type": "address"
        }
      ],
      "name": "mockReceiveXChainDepositRequest",
      "outputs": [],
      "stateMutability": "nonpayable",
      "type": "function"
    },
    {
      "inputs": [
        {
          "internalType": "uint256",
          "name": "_originChainId",
          "type": "uint256"
        },
        {
          "internalType": "uint256",
          "name": "_pid",
          "type": "uint256"
        },
        {
          "internalType": "uint256",
          "name": "_trancheId",
          "type": "uint256"
        },
        {
          "internalType": "bytes",
          "name": "_originRecipient",
          "type": "bytes"
        },
        {
          "internalType": "uint256",
          "name": "_burnableZORRewards",
          "type": "uint256"
        },
        {
          "internalType": "uint256",
          "name": "_rewardsDue",
          "type": "uint256"
        }
      ],
      "name": "mockReceiveXChainRepatriationRequest",
      "outputs": [],
      "stateMutability": "nonpayable",
      "type": "function"
    },
    {
      "inputs": [
        {
          "internalType": "uint256",
          "name": "_remoteChainId",
          "type": "uint256"
        },
        {
          "internalType": "uint256",
          "name": "_amountUSDCBuyback",
          "type": "uint256"
        },
        {
          "internalType": "uint256",
          "name": "_amountUSDCRevShare",
          "type": "uint256"
        },
        {
          "internalType": "uint256",
          "name": "_accSlashedRewards",
          "type": "uint256"
        },
        {
          "internalType": "uint256",
          "name": "_maxMarketMovement",
          "type": "uint256"
        }
      ],
      "name": "mockReceiveXChainDistributionRequest",
      "outputs": [],
      "stateMutability": "nonpayable",
      "type": "function"
    },
    {
      "inputs": [
        {
          "internalType": "uint256",
          "name": "_originChainId",
          "type": "uint256"
        },
        {
          "internalType": "bytes",
          "name": "_originAccount",
          "type": "bytes"
        },
        {
          "internalType": "uint256",
          "name": "_pid",
          "type": "uint256"
        },
        {
          "internalType": "uint256",
          "name": "_trancheId",
          "type": "uint256"
        },
        {
          "internalType": "uint256",
          "name": "_maxMarketMovement",
          "type": "uint256"
        }
      ],
      "name": "mockReceiveXChainWithdrawalRequest",
      "outputs": [],
      "stateMutability": "nonpayable",
      "type": "function"
    },
    {
      "inputs": [
        {
          "internalType": "uint256",
          "name": "_gasForDestinationLZReceive",
          "type": "uint256"
        }
      ],
      "name": "getLZAdapterParamsForWithdraw",
      "outputs": [
        {
          "internalType": "bytes",
          "name": "",
          "type": "bytes"
        }
      ],
      "stateMutability": "pure",
      "type": "function",
      "constant": true
    }
  ],
  "bytecode": "0x608060405234801561001057600080fd5b50614779806100206000396000f3fe6080604052600436106103b75760003560e01c806379777d81116101f2578063b22f32511161010d578063cdabd371116100a0578063ef1269671161006f578063ef12696714610b36578063f2fde38b14610b4c578063fc39a29e14610b6c578063fd0a841d14610b8c57600080fd5b8063cdabd37114610ac0578063e53ac0df14610ae0578063e940f6e114610b00578063ebfba7c414610b1657600080fd5b8063c8ba44b5116100dc578063c8ba44b514610a45578063c9522cf114610a60578063c9f363c414610a80578063cd01af4814610aa057600080fd5b8063b22f3251146109c5578063b61bb80a146109e5578063c4201bb014610a05578063c86d404014610a2557600080fd5b806391a0116811610185578063a2df085c11610154578063a2df085c14610952578063a4d2b08314610965578063a9e56f3c14610985578063ab8236f3146109a557600080fd5b806391a01168146108dc578063959334f4146108fc5780639a448c0c1461091c5780639a8a05921461093c57600080fd5b80638c157db2116101c15780638c157db2146108515780638d6ffd6a146108715780638da5cb5b1461089e5780638f426e2c146108bc57600080fd5b806379777d81146107d15780637bd45522146107f15780637f633ea8146108115780638b5694d61461083157600080fd5b80634bf76174116102e2578063668ababb116102755780636f53e701116102445780636f53e7011461076657806370d5ae0514610786578063715018a61461079c578063734d231a146107b157600080fd5b8063668ababb146106eb578063692d8b8b1461070b578063693a090b146107265780636ca8bd651461074657600080fd5b80635da79d63116102b15780635da79d6314610670578063610d71b71461069057806361b729dc146106b0578063625adaf2146106cb57600080fd5b80634bf76174146105ed5780635175ce1b1461060d5780635790f5991461062d578063593af9fe1461064357600080fd5b8063219b38b81161035a5780633ad5875c116103295780633ad5875c14610563578063459f475314610576578063464e3c8b146105ba578063487c3868146105cd57600080fd5b8063219b38b8146104bb57806325b43830146104f6578063293da9d4146105165780633a6291211461054357600080fd5b80630a34e1a4116103965780630a34e1a41461043b578063104a61321461045b57806313a2e8801461047b57806315230ae61461049b57600080fd5b80621d3567146103bc57806303b351f6146103de57806307968db1146103fe575b600080fd5b3480156103c857600080fd5b506103dc6103d736600461317e565b610bac565b005b3480156103ea57600080fd5b506103dc6103f9366004613348565b610d8b565b34801561040a57600080fd5b50609a5461041e906001600160a01b031681565b6040516001600160a01b0390911681526020015b60405180910390f35b34801561044757600080fd5b506103dc6104563660046133a9565b610d9f565b34801561046757600080fd5b5061041e6104763660046133cb565b610ddb565b34801561048757600080fd5b506103dc6104963660046133e4565b610e05565b3480156104a757600080fd5b5060a25461041e906001600160a01b031681565b3480156104c757600080fd5b506104e86104d63660046133cb565b60996020526000908152604090205481565b604051908152602001610432565b34801561050257600080fd5b506103dc61051136600461342f565b610e4e565b34801561052257600080fd5b506104e861053136600461346a565b609d6020526000908152604090205481565b34801561054f57600080fd5b506104e861055e36600461342f565b610ea3565b6103dc61057136600461342f565b610f86565b34801561058257600080fd5b506105a76105913660046133cb565b609c6020526000908152604090205461ffff1681565b60405161ffff9091168152602001610432565b6103dc6105c8366004613485565b6110db565b3480156105d957600080fd5b506103dc6105e83660046134fb565b6113c6565b3480156105f957600080fd5b506103dc6106083660046134fb565b611484565b34801561061957600080fd5b506103dc61062836600461353c565b61158a565b34801561063957600080fd5b506104e860985481565b34801561064f57600080fd5b5061066361065e3660046133cb565b6115cd565b60405161043291906135ff565b34801561067c57600080fd5b506103dc61068b366004613632565b611667565b34801561069c57600080fd5b506103dc6106ab3660046139c8565b6116b3565b3480156106bc57600080fd5b506103dc610511366004613348565b3480156106d757600080fd5b506103dc6106e63660046134fb565b6119ee565b3480156106f757600080fd5b5060a35461041e906001600160a01b031681565b34801561071757600080fd5b506103dc610511366004613afc565b34801561073257600080fd5b5060aa5461041e906001600160a01b031681565b34801561075257600080fd5b506103dc610761366004613632565b611ac3565b34801561077257600080fd5b506103dc610781366004613afc565b611aac565b34801561079257600080fd5b5061041e61dead81565b3480156107a857600080fd5b506103dc611b0f565b3480156107bd57600080fd5b506106636107cc3660046133cb565b611b45565b3480156107dd57600080fd5b5060ae5461041e906001600160a01b031681565b3480156107fd57600080fd5b506103dc61080c366004613b72565b611b56565b34801561081d57600080fd5b506103dc61082c366004613bb4565b611bb4565b34801561083d57600080fd5b506103dc61084c366004613bb4565b611c0d565b34801561085d57600080fd5b5060a05461041e906001600160a01b031681565b34801561087d57600080fd5b506104e861088c3660046133cb565b609e6020526000908152604090205481565b3480156108aa57600080fd5b506033546001600160a01b031661041e565b3480156108c857600080fd5b506104e86108d7366004613be0565b611c50565b3480156108e857600080fd5b506106636108f7366004613c54565b611dd9565b34801561090857600080fd5b506103dc610917366004613632565b611df6565b34801561092857600080fd5b5061041e6109373660046133cb565b611e42565b34801561094857600080fd5b506104e860a45481565b6103dc610960366004613cd3565b611e52565b34801561097157600080fd5b5060a95461041e906001600160a01b031681565b34801561099157600080fd5b5060975461041e906001600160a01b031681565b3480156109b157600080fd5b506103dc6109c0366004613d3e565b612030565b3480156109d157600080fd5b5060ad5461041e906001600160a01b031681565b3480156109f157600080fd5b50609f5461041e906001600160a01b031681565b348015610a1157600080fd5b506103dc610a20366004613dcb565b6122fb565b348015610a3157600080fd5b5060a75461041e906001600160a01b031681565b348015610a5157600080fd5b506103dc610511366004613dcb565b348015610a6c57600080fd5b506104e8610a7b366004613485565b612309565b348015610a8c57600080fd5b506104e8610a9b366004613e36565b612406565b348015610aac57600080fd5b506103dc610abb3660046134fb565b6124d4565b348015610acc57600080fd5b50610663610adb366004613eba565b612540565b348015610aec57600080fd5b506103dc610afb366004613632565b61258b565b348015610b0c57600080fd5b506104e860a65481565b348015610b2257600080fd5b5060a85461041e906001600160a01b031681565b348015610b4257600080fd5b506104e860a55481565b348015610b5857600080fd5b506103dc610b67366004613632565b6125d7565b348015610b7857600080fd5b5060a15461041e906001600160a01b031681565b348015610b9857600080fd5b506103dc610ba736600461342f565b610e96565b8585858080601f016020809104026020016040519081016040528093929190818152602001838380828437600092018290525061ffff86168152609d6020908152604080832054875188840120818552609b909352928190209051929550909350610c18925090613f2a565b604051809103902014610c6e5760405162461bcd60e51b81526020600482015260196024820152782ab73932b1b7b3903c31b430b4b71031b7b73a3937b63632b960391b60448201526064015b60405180910390fd5b6000610c7a8587613fc6565b60405163cdabd37160e01b8152909150600090309063cdabd37190610ca5908a908a90600401613ff6565b600060405180830381865afa158015610cc2573d6000803e3d6000fd5b505050506040513d6000823e601f3d908101601f19168201604052610cea919081019061406a565b905063186dca7760e21b6001600160e01b031983161415610d4257600080600080600085806020019051810190610d21919061409e565b94509450945094509450610d388585858585612672565b5050505050610d7e565b60405162461bcd60e51b8152602060048201526011602482015270556e7265636f676e697a65642066756e6360781b6044820152606401610c65565b5050505050505050505050565b610d988585858585612672565b5050505050565b6033546001600160a01b03163314610dc95760405162461bcd60e51b8152600401610c65906140ff565b6000918252609e602052604090912055565b60ab8181548110610deb57600080fd5b6000918252602090912001546001600160a01b0316905081565b6033546001600160a01b03163314610e2f5760405162461bcd60e51b8152600401610c65906140ff565b6000838152609b60205260409020610e48908383612f6a565b50505050565b60405162461bcd60e51b815260206004820152601760248201527f696c6c6567616c2064756d6d792066756e632063616c6c0000000000000000006044820152606401610c65565b610d9885858585856126a8565b6000858152609c602090815260408083205460a454915161ffff909116928492610eec929091610ed591339101614134565b6040516020818303038152906040528989896126de565b90506000610ef985612746565b609a5460405163040a7bb160e41b81529192506000916001600160a01b03909116906340a7bb1090610f379087903090889087908990600401614151565b6040805180830381865afa158015610f53573d6000803e3d6000fd5b505050506040513d601f19601f82011682018060405250810190610f779190614199565b509a9950505050505050505050565b60026065541415610fa95760405162461bcd60e51b8152600401610c65906141bd565b600260655560a454604051600091610fe091610fc9903390602001614134565b6040516020818303038152906040528787876126de565b6000878152609b6020526040812080549293509091610ffe90613eef565b80601f016020809104026020016040519081016040528092919081815260200182805461102a90613eef565b80156110775780601f1061104c57610100808354040283529160200191611077565b820191906000526020600020905b81548152906001019060200180831161105a57829003601f168201915b505050505090506110cd6040518060c00160405280898152602001838152602001848152602001336001600160a01b0316815260200160006001600160a01b031681526020016110c686612746565b905261276f565b505060016065555050505050565b600260655414156110fe5760405162461bcd60e51b8152600401610c65906141bd565b600260655560a254604051631526fe2760e01b81526004810186905285916000916001600160a01b0390911690631526fe279060240160c060405180830381865afa158015611151573d6000803e3d6000fd5b505050506040513d601f19601f8201168201806040525081019061117591906141f4565b95505050505050806001600160a01b031661118d3390565b6001600160a01b0316146111d45760405162461bcd60e51b815260206004820152600e60248201526d1bdb9b1e481c9959c81d985d5b1d60921b6044820152606401610c65565b600034116112185760405162461bcd60e51b8152602060048201526011602482015270139bc81999595cc81cdd589b5a5d1d1959607a1b6044820152606401610c65565b6000611224868661280a565b609f5490915061123e906001600160a01b0316308361281d565b609f54611256906001600160a01b0316333084612902565b609f546040516370a0823160e01b81523060048201526000916001600160a01b0316906370a0823190602401602060405180830381865afa15801561129f573d6000803e3d6000fd5b505050506040513d601f19601f820116820180604052508101906112c39190614246565b905060006112cf61293a565b905060006112e260a4548a8a858b612970565b60a4546000908152609b602052604081208054929350909161130390613eef565b80601f016020809104026020016040519081016040528092919081815260200182805461132f90613eef565b801561137c5780601f106113515761010080835404028352916020019161137c565b820191906000526020600020905b81548152906001019060200180831161135f57829003601f168201915b505050505090506113b46040518060a0016040528060a55481526020018681526020018381526020018481526020018a8152506129ac565b50506001606555505050505050505050565b6033546001600160a01b031633146113f05760405162461bcd60e51b8152600401610c65906140ff565b818160008181106114035761140361425f565b90506020020160208101906114189190613632565b60ad80546001600160a01b0319166001600160a01b03929092169190911790558181600181811061144b5761144b61425f565b90506020020160208101906114609190613632565b60ae80546001600160a01b0319166001600160a01b03929092169190911790555050565b6033546001600160a01b031633146114ae5760405162461bcd60e51b8152600401610c65906140ff565b818160008181106114c1576114c161425f565b90506020020160208101906114d69190613632565b60a180546001600160a01b0319166001600160a01b0392909216919091179055818160018181106115095761150961425f565b905060200201602081019061151e9190613632565b60a280546001600160a01b0319166001600160a01b0392909216919091179055818160028181106115515761155161425f565b90506020020160208101906115669190613632565b60a380546001600160a01b0319166001600160a01b03929092169190911790555050565b6033546001600160a01b031633146115b45760405162461bcd60e51b8152600401610c65906140ff565b6115c060ab8585612fee565b50610d9860ac8383612fee565b609b60205260009081526040902080546115e690613eef565b80601f016020809104026020016040519081016040528092919081815260200182805461161290613eef565b801561165f5780601f106116345761010080835404028352916020019161165f565b820191906000526020600020905b81548152906001019060200180831161164257829003601f168201915b505050505081565b6033546001600160a01b031633146116915760405162461bcd60e51b8152600401610c65906140ff565b60aa80546001600160a01b0319166001600160a01b0392909216919091179055565b600054610100900460ff166116ce5760005460ff16156116d2565b303b155b6117355760405162461bcd60e51b815260206004820152602e60248201527f496e697469616c697a61626c653a20636f6e747261637420697320616c72656160448201526d191e481a5b9a5d1a585b1a5e995960921b6064820152608401610c65565b600054610100900460ff16158015611757576000805461ffff19166101011790555b6101008281015160c0810151609780546001600160a01b03199081166001600160a01b03938416179091559282015160985560e090910151609a8054909316911617905560005b82610100015160400151518161ffff161015611912576000836101000151604001518261ffff16815181106117d5576117d561425f565b60200260200101519050836101000151606001518261ffff16815181106117fe576117fe61425f565b6020026020010151609b6000838152602001908152602001600020908051906020019061182c929190613041565b50836101000151608001518261ffff168151811061184c5761184c61425f565b6020026020010151609c600083815260200190815260200160002060006101000a81548161ffff021916908361ffff16021790555080609d6000866101000151608001518561ffff16815181106118a5576118a561425f565b602002602001015161ffff1661ffff1681526020019081526020016000208190555083610100015160a001518261ffff16815181106118e6576118e661425f565b6020908102919091018101516000928352609990915260409091205561190b8161428b565b905061179e565b50604082015160a880546001600160a01b039283166001600160a01b031991821617909155606084015160a98054918416918316919091179055608084015160aa80549190931691161790556101208201515180516119799160ab916020909101906130b5565b5061012082015160209081015180516119969260ac9201906130b5565b50610140820151805160ad80546001600160a01b03199081166001600160a01b039384161790915560209092015160ae805490931691161790556119d8612a8c565b80156119ea576000805461ff00191690555b5050565b6033546001600160a01b03163314611a185760405162461bcd60e51b8152600401610c65906140ff565b81816000818110611a2b57611a2b61425f565b9050602002016020810190611a409190613632565b609f80546001600160a01b0319166001600160a01b039290921691909117905581816001818110611a7357611a7361425f565b9050602002016020810190611a889190613632565b60a080546001600160a01b0319166001600160a01b03929092169190911790555050565b611abb86868642878787612abb565b505050505050565b6033546001600160a01b03163314611aed5760405162461bcd60e51b8152600401610c65906140ff565b60a980546001600160a01b0319166001600160a01b0392909216919091179055565b6033546001600160a01b03163314611b395760405162461bcd60e51b8152600401610c65906140ff565b611b436000612afc565b565b6060611b5082612746565b92915050565b6033546001600160a01b03163314611b805760405162461bcd60e51b8152600401610c65906140ff565b609780546001600160a01b039485166001600160a01b031991821617909155609892909255609a8054919093169116179055565b6033546001600160a01b03163314611bde5760405162461bcd60e51b8152600401610c65906140ff565b6000828152609c60209081526040808320805461ffff90951661ffff1990951685179055928252609d90522055565b6033546001600160a01b03163314611c375760405162461bcd60e51b8152600401610c65906140ff565b60009182526099602052604090912061ffff9091169055565b6040805160608082018352600080835260208301819052928201526000611c7b8a8a8a8a8a8a612b4e565b60008b8152609b6020526040812080549293509091611c9990613eef565b80601f0160208091040260200160405190810160405280929190818152602001828054611cc590613eef565b8015611d125780601f10611ce757610100808354040283529160200191611d12565b820191906000526020600020905b815481529060010190602001808311611cf557829003601f168201915b505050505090506000609760009054906101000a90046001600160a01b03166001600160a01b0316630a512369609c60008f815260200190815260200160002060009054906101000a900461ffff1660018587896040518663ffffffff1660e01b8152600401611d869594939291906142d6565b6040805180830381865afa158015611da2573d6000803e3d6000fd5b505050506040513d601f19601f82011682018060405250810190611dc69190614199565b509450505050505b979650505050505050565b6060611dea88888888888888612bb9565b98975050505050505050565b6033546001600160a01b03163314611e205760405162461bcd60e51b8152600401610c65906140ff565b60a880546001600160a01b0319166001600160a01b0392909216919091179055565b60ac8181548110610deb57600080fd5b60026065541415611e755760405162461bcd60e51b8152600401610c65906141bd565b600260655534611ebb5760405162461bcd60e51b8152602060048201526011602482015270139bc81999595cc81cdd589b5a5d1d1959607a1b6044820152606401610c65565b609f54611ed3906001600160a01b0316333087612902565b609f546040516370a0823160e01b81523060048201526000916001600160a01b0316906370a0823190602401602060405180830381865afa158015611f1c573d6000803e3d6000fd5b505050506040513d601f19601f82011682018060405250810190611f409190614246565b90506000611f5388888488883389612bb9565b6000898152609b6020526040812080549293509091611f7190613eef565b80601f0160208091040260200160405190810160405280929190818152602001828054611f9d90613eef565b8015611fea5780601f10611fbf57610100808354040283529160200191611fea565b820191906000526020600020905b815481529060010190602001808311611fcd57829003601f168201915b505050505090506120206040518060a001604052808b8152602001858152602001838152602001848152602001878152506129ac565b5050600160655550505050505050565b61ffff86166000908152609d60209081526040808320548851838a0120818552609b909352928190209051899389939092909161206d9190613f2a565b6040518091039020146120be5760405162461bcd60e51b81526020600482015260196024820152782ab73932b1b7b3903c31b430b4b71031b7b73a3937b63632b960391b6044820152606401610c65565b6040516370a0823160e01b81523060048201526000906001600160a01b038816906370a0823190602401602060405180830381865afa158015612105573d6000803e3d6000fd5b505050506040513d601f19601f820116820180604052508101906121299190614246565b9050808611156121725760405162461bcd60e51b8152602060048201526014602482015273185b5bdd5b9d131108195e18d959591cc818985b60621b6044820152606401610c65565b600061217d86614322565b60405163cdabd37160e01b8152909150600090309063cdabd371906121a6908a906004016135ff565b600060405180830381865afa1580156121c3573d6000803e3d6000fd5b505050506040513d6000823e601f3d908101601f191682016040526121eb919081019061406a565b905063692d8b8b60e01b6001600160e01b031983161415612246576000806000806000858060200190518101906122229190614359565b955095509550955050945061223c858e8642878787612abb565b50505050506122ed565b63c8ba44b560e01b6001600160e01b0319831614156122a1576000806000806000808680602001905181019061227c91906143c1565b955095509550955095509550612296868686868686612ca3565b5050505050506122ed565b63025b438360e41b6001600160e01b031983161415610d42576000806000806000858060200190518101906122d6919061442c565b9450945094509450945061223c85858585856126a8565b505050505050505050505050565b611abb868686868686612ca3565b604080516060808201835260008083526020830181905292820152600061233560a45488888888612970565b60a154604051919250600091612357916001600160a01b031690602001614134565b60408051601f1981840301815282825260975460a5546000908152609c60205292832054630a51236960e01b855291945091926001600160a01b0390921691630a512369916123b89161ffff90911690600190879089908b906004016142d6565b6040805180830381865afa1580156123d4573d6000803e3d6000fd5b505050506040513d601f19601f820116820180604052508101906123f89190614199565b509998505050505050505050565b60408051606080820183526000808352602083018190529282015260006124328a89898989338a612bb9565b60975460008c8152609c6020526040808220549051630a51236960e01b815293945090926001600160a01b0390921691630a512369916124849161ffff909116906001908f9088908a906004016142d6565b6040805180830381865afa1580156124a0573d6000803e3d6000fd5b505050506040513d601f19601f820116820180604052508101906124c49190614199565b509b9a5050505050505050505050565b6033546001600160a01b031633146124fe5760405162461bcd60e51b8152600401610c65906140ff565b818160008181106125115761251161425f565b602002919091013560a45550818160018181106125305761253061425f565b602002919091013560a555505050565b606061254f826004818661446c565b8080601f016020809104026020016040519081016040528093929190818152602001838380828437600092019190915250929695505050505050565b6033546001600160a01b031633146125b55760405162461bcd60e51b8152600401610c65906140ff565b60a780546001600160a01b0319166001600160a01b0392909216919091179055565b6033546001600160a01b031633146126015760405162461bcd60e51b8152600401610c65906140ff565b6001600160a01b0381166126665760405162461bcd60e51b815260206004820152602660248201527f4f776e61626c653a206e6577206f776e657220697320746865207a65726f206160448201526564647265737360d01b6064820152608401610c65565b61266f81612afc565b50565b8183867f8eb6209ab420e0a7fb7c07eced7742886688545f55afb30316b4d6b11b4df28360405160405180910390a45050505050565b8183857fcf0a53e32c8cf2468c3dcc51de515d58e63a0ed4269f8fe8ec1b7434b4a207ea60405160405180910390a45050505050565b60405160609063186dca7760e21b906000906127069089908990899089908990602001614496565b6040516020818303038152906040529050818160405160200161272a9291906144cc565b6040516020818303038152906040529250505095945050505050565b60408051600160f01b602082015260228082019390935281518082039093018352604201905290565b80516000908152609c602090815260409182902054609a549184015183850151606086015160a0870151955162c5803160e81b815261ffff909416956001600160a01b039095169463c58031009434946127d4948994919390928291906004016144fd565b6000604051808303818588803b1580156127ed57600080fd5b505af1158015612801573d6000803e3d6000fd5b50505050505050565b60006128168284614564565b9392505050565b604051636eb1769f60e11b81523060048201526001600160a01b038381166024830152600091839186169063dd62ed3e90604401602060405180830381865afa15801561286e573d6000803e3d6000fd5b505050506040513d601f19601f820116820180604052508101906128929190614246565b61289c9190614564565b6040516001600160a01b038516602482015260448101829052909150610e4890859063095ea7b360e01b906064015b60408051601f198184030181529190526020810180516001600160e01b03166001600160e01b031990931692909217909152612cda565b6040516001600160a01b0380851660248301528316604482015260648101829052610e489085906323b872dd60e01b906084016128cb565b60a65460405181907f18bd4bd6372d39482d375f68791749755bdb38e8768acbfb6af999cef1adc6e090600090a2600060a65590565b604080516020810187905290810185905260608082018590526080820184905260a082018390529063025b438360e41b9060009060c001612706565b6097546020820151609f546129cf926001600160a01b039182169291169061281d565b6129f360405180606001604052806000815260200160008152602001606081525090565b60975482516000908152609c6020908152604080832054609854875185526099845291909320549186015160808701516001600160a01b0390951694639fbf10fc94349461ffff90911693929091339190612a5d906103e890612a57908490612db1565b90612dbd565b898b604001518c606001516040518b63ffffffff1660e01b81526004016127d49998979695949392919061457c565b600054610100900460ff16612ab35760405162461bcd60e51b8152600401610c65906145f9565b611b43612dc9565b806001600160a01b031686887f5e10e65c157c78416478d607d143c9fc17915c86ee950496a56552287c6975a360405160405180910390a450505050505050565b603380546001600160a01b038381166001600160a01b0319831681179093556040519116919082907f8be0079c531659141344cd1fd0a4f28419497f9722a3daafe3b4186f6b6457e090600090a35050565b60405160609063c8ba44b560e01b90600090612b78908a908a908a908a908a908a90602001614644565b60405160208183030381529060405290508181604051602001612b9c9291906144cc565b604051602081830303815290604052925050509695505050505050565b6000878152609e6020526040902054606090612c5957600063692d8b8b60e01b905060008888888888604051602001612bf29190614134565b604051602081830303815290604052612c0c896014015190565b604051602001612c219695949392919061467e565b60405160208183030381529060405290508181604051602001612c459291906144cc565b604051602081830303815290604052925050505b6000815111611dce5760405162461bcd60e51b8152602060048201526016602482015275125b9d985b1a59081e18da185a5b881c185e5b1bd85960521b6044820152606401610c65565b8082877fe80a0bb879c77a4a5fd7986751ff6b58fd43aa589d2f6f5e0368ba8a3c92ad7260405160405180910390a4505050505050565b6000612d2f826040518060400160405280602081526020017f5361666545524332303a206c6f772d6c6576656c2063616c6c206661696c6564815250856001600160a01b0316612df99092919063ffffffff16565b805190915015612dac5780806020019051810190612d4d91906146c4565b612dac5760405162461bcd60e51b815260206004820152602a60248201527f5361666545524332303a204552433230206f7065726174696f6e20646964206e6044820152691bdd081cdd58d8d9595960b21b6064820152608401610c65565b505050565b600061281682846146e6565b60006128168284614705565b600054610100900460ff16612df05760405162461bcd60e51b8152600401610c65906145f9565b611b4333612afc565b6060612e088484600085612e10565b949350505050565b606082471015612e715760405162461bcd60e51b815260206004820152602660248201527f416464726573733a20696e73756666696369656e742062616c616e636520666f6044820152651c8818d85b1b60d21b6064820152608401610c65565b6001600160a01b0385163b612ec85760405162461bcd60e51b815260206004820152601d60248201527f416464726573733a2063616c6c20746f206e6f6e2d636f6e74726163740000006044820152606401610c65565b600080866001600160a01b03168587604051612ee49190614727565b60006040518083038185875af1925050503d8060008114612f21576040519150601f19603f3d011682016040523d82523d6000602084013e612f26565b606091505b5091509150611dce82828660608315612f40575081612816565b825115612f505782518084602001fd5b8160405162461bcd60e51b8152600401610c6591906135ff565b828054612f7690613eef565b90600052602060002090601f016020900481019282612f985760008555612fde565b82601f10612fb15782800160ff19823516178555612fde565b82800160010185558215612fde579182015b82811115612fde578235825591602001919060010190612fc3565b50612fea92915061310a565b5090565b828054828255906000526020600020908101928215612fde579160200282015b82811115612fde5781546001600160a01b0319166001600160a01b0384351617825560209092019160019091019061300e565b82805461304d90613eef565b90600052602060002090601f01602090048101928261306f5760008555612fde565b82601f1061308857805160ff1916838001178555612fde565b82800160010185558215612fde579182015b82811115612fde57825182559160200191906001019061309a565b828054828255906000526020600020908101928215612fde579160200282015b82811115612fde57825182546001600160a01b0319166001600160a01b039091161782556020909201916001909101906130d5565b5b80821115612fea576000815560010161310b565b803561ffff8116811461313157600080fd5b919050565b60008083601f84011261314857600080fd5b5081356001600160401b0381111561315f57600080fd5b60208301915083602082850101111561317757600080fd5b9250929050565b6000806000806000806080878903121561319757600080fd5b6131a08761311f565b955060208701356001600160401b03808211156131bc57600080fd5b6131c88a838b01613136565b90975095506040890135915080821682146131e257600080fd5b909350606088013590808211156131f857600080fd5b5061320589828a01613136565b979a9699509497509295939492505050565b634e487b7160e01b600052604160045260246000fd5b60405161012081016001600160401b038111828210171561325057613250613217565b60405290565b604080519081016001600160401b038111828210171561325057613250613217565b60405161016081016001600160401b038111828210171561325057613250613217565b604051601f8201601f191681016001600160401b03811182821017156132c3576132c3613217565b604052919050565b60006001600160401b038211156132e4576132e4613217565b50601f01601f191660200190565b600082601f83011261330357600080fd5b8135613316613311826132cb565b61329b565b81815284602083860101111561332b57600080fd5b816020850160208301376000918101602001919091529392505050565b600080600080600060a0868803121561336057600080fd5b8535945060208601356001600160401b0381111561337d57600080fd5b613389888289016132f2565b959895975050505060408401359360608101359360809091013592509050565b600080604083850312156133bc57600080fd5b50508035926020909101359150565b6000602082840312156133dd57600080fd5b5035919050565b6000806000604084860312156133f957600080fd5b8335925060208401356001600160401b0381111561341657600080fd5b61342286828701613136565b9497909650939450505050565b600080600080600060a0868803121561344757600080fd5b505083359560208501359550604085013594606081013594506080013592509050565b60006020828403121561347c57600080fd5b6128168261311f565b6000806000806080858703121561349b57600080fd5b5050823594602084013594506040840135936060013592509050565b60008083601f8401126134c957600080fd5b5081356001600160401b038111156134e057600080fd5b6020830191508360208260051b850101111561317757600080fd5b6000806020838503121561350e57600080fd5b82356001600160401b0381111561352457600080fd5b613530858286016134b7565b90969095509350505050565b6000806000806040858703121561355257600080fd5b84356001600160401b038082111561356957600080fd5b613575888389016134b7565b9096509450602087013591508082111561358e57600080fd5b5061359b878288016134b7565b95989497509550505050565b60005b838110156135c25781810151838201526020016135aa565b83811115610e485750506000910152565b600081518084526135eb8160208601602086016135a7565b601f01601f19169290920160200192915050565b60208152600061281660208301846135d3565b6001600160a01b038116811461266f57600080fd5b803561313181613612565b60006020828403121561364457600080fd5b813561281681613612565b60006001600160401b0382111561366857613668613217565b5060051b60200190565b600082601f83011261368357600080fd5b813560206136936133118361364f565b82815260059290921b840181019181810190868411156136b257600080fd5b8286015b848110156136cd57803583529183019183016136b6565b509695505050505050565b600082601f8301126136e957600080fd5b813560206136f96133118361364f565b82815260059290921b8401810191818101908684111561371857600080fd5b8286015b848110156136cd5780356001600160401b0381111561373b5760008081fd5b6137498986838b01016132f2565b84525091830191830161371c565b600082601f83011261376857600080fd5b813560206137786133118361364f565b82815260059290921b8401810191818101908684111561379757600080fd5b8286015b848110156136cd576137ac8161311f565b835291830191830161379b565b600061012082840312156137cc57600080fd5b6137d461322d565b9050813581526020820135602082015260408201356001600160401b03808211156137fe57600080fd5b61380a85838601613672565b6040840152606084013591508082111561382357600080fd5b61382f858386016136d8565b6060840152608084013591508082111561384857600080fd5b61385485838601613757565b608084015260a084013591508082111561386d57600080fd5b5061387a84828501613672565b60a08301525061388c60c08301613627565b60c082015261389d60e08301613627565b60e082015261010080830135818301525092915050565b600082601f8301126138c557600080fd5b813560206138d56133118361364f565b82815260059290921b840181019181810190868411156138f457600080fd5b8286015b848110156136cd57803561390b81613612565b83529183019183016138f8565b60006040828403121561392a57600080fd5b613932613256565b905081356001600160401b038082111561394b57600080fd5b613957858386016138b4565b8352602084013591508082111561396d57600080fd5b5061397a848285016138b4565b60208301525092915050565b60006040828403121561399857600080fd5b6139a0613256565b905081356139ad81613612565b815260208201356139bd81613612565b602082015292915050565b6000602082840312156139da57600080fd5b81356001600160401b03808211156139f157600080fd5b908301906101808286031215613a0657600080fd5b613a0e613278565b613a1783613627565b8152613a2560208401613627565b6020820152613a3660408401613627565b6040820152613a4760608401613627565b6060820152613a5860808401613627565b6080820152613a6960a08401613627565b60a0820152613a7a60c08401613627565b60c0820152613a8b60e08401613627565b60e08201526101008084013583811115613aa457600080fd5b613ab0888287016137b9565b8284015250506101208084013583811115613aca57600080fd5b613ad688828701613918565b8284015250506101409150613aed86838501613986565b91810191909152949350505050565b60008060008060008060c08789031215613b1557600080fd5b8635955060208701359450604087013593506060870135925060808701356001600160401b03811115613b4757600080fd5b613b5389828a016132f2565b92505060a0870135613b6481613612565b809150509295509295509295565b600080600060608486031215613b8757600080fd5b8335613b9281613612565b9250602084013591506040840135613ba981613612565b809150509250925092565b60008060408385031215613bc757600080fd5b82359150613bd76020840161311f565b90509250929050565b600080600080600080600060e0888a031215613bfb57600080fd5b87359650602088013595506040880135945060608801356001600160401b03811115613c2657600080fd5b613c328a828b016132f2565b979a969950949760808101359660a0820135965060c090910135945092505050565b600080600080600080600060e0888a031215613c6f57600080fd5b873596506020880135955060408801359450606088013593506080880135925060a0880135613c9d81613612565b915060c08801356001600160401b03811115613cb857600080fd5b613cc48a828b016132f2565b91505092959891949750929550565b60008060008060008060c08789031215613cec57600080fd5b863595506020870135945060408701359350606087013592506080870135915060a08701356001600160401b03811115613d2557600080fd5b613d3189828a016132f2565b9150509295509295509295565b60008060008060008060c08789031215613d5757600080fd5b613d608761311f565b955060208701356001600160401b0380821115613d7c57600080fd5b613d888a838b016132f2565b96506040890135955060608901359150613da182613612565b9093506080880135925060a08801359080821115613dbe57600080fd5b50613d3189828a016132f2565b60008060008060008060c08789031215613de457600080fd5b86359550602087013594506040870135935060608701356001600160401b03811115613e0f57600080fd5b613e1b89828a016132f2565b9350506080870135915060a087013590509295509295509295565b600080600080600080600060e0888a031215613e5157600080fd5b8735965060208801356001600160401b0380821115613e6f57600080fd5b613e7b8b838c016132f2565b975060408a0135965060608a0135955060808a0135945060a08a0135935060c08a0135915080821115613ead57600080fd5b50613cc48a828b016132f2565b60008060208385031215613ecd57600080fd5b82356001600160401b03811115613ee357600080fd5b61353085828601613136565b600181811c90821680613f0357607f821691505b60208210811415613f2457634e487b7160e01b600052602260045260246000fd5b50919050565b600080835481600182811c915080831680613f4657607f831692505b6020808410821415613f6657634e487b7160e01b86526022600452602486fd5b818015613f7a5760018114613f8b57613fb8565b60ff19861689528489019650613fb8565b60008a81526020902060005b86811015613fb05781548b820152908501908301613f97565b505084890196505b509498975050505050505050565b6001600160e01b03198135818116916004851015613fee5780818660040360031b1b83161692505b505092915050565b60208152816020820152818360408301376000818301604090810191909152601f909201601f19160101919050565b600082601f83011261403657600080fd5b8151614044613311826132cb565b81815284602083860101111561405957600080fd5b612e088260208301602087016135a7565b60006020828403121561407c57600080fd5b81516001600160401b0381111561409257600080fd5b612e0884828501614025565b600080600080600060a086880312156140b657600080fd5b8551945060208601516001600160401b038111156140d357600080fd5b6140df88828901614025565b60408801516060890151608090990151979a919950979695509350505050565b6020808252818101527f4f776e61626c653a2063616c6c6572206973206e6f7420746865206f776e6572604082015260600190565b60609190911b6bffffffffffffffffffffffff1916815260140190565b61ffff861681526001600160a01b038516602082015260a06040820181905260009061417f908301866135d3565b84151560608401528281036080840152611dea81856135d3565b600080604083850312156141ac57600080fd5b505080516020909101519092909150565b6020808252601f908201527f5265656e7472616e637947756172643a207265656e7472616e742063616c6c00604082015260600190565b60008060008060008060c0878903121561420d57600080fd5b865161421881613612565b809650506020870151945060408701519350606087015192506080870151915060a0870151613b6481613612565b60006020828403121561425857600080fd5b5051919050565b634e487b7160e01b600052603260045260246000fd5b634e487b7160e01b600052601160045260246000fd5b600061ffff808316818114156142a3576142a3614275565b6001019392505050565b80518252602081015160208301526000604082015160606040850152612e0860608501826135d3565b61ffff8616815260ff8516602082015260a0604082015260006142fc60a08301866135d3565b828103606084015261430e81866135d3565b90508281036080840152611dea81856142ad565b805160208201516001600160e01b031980821692919060048310156143515780818460040360031b1b83161693505b505050919050565b60008060008060008060c0878903121561437257600080fd5b8651955060208701519450604087015193506060870151925060808701516001600160401b038111156143a457600080fd5b6143b089828a01614025565b92505060a0870151613b6481613612565b60008060008060008060c087890312156143da57600080fd5b86519550602087015194506040870151935060608701516001600160401b0381111561440557600080fd5b61441189828a01614025565b9350506080870151915060a087015190509295509295509295565b600080600080600060a0868803121561444457600080fd5b5050835160208501516040860151606087015160809097015192989197509594509092509050565b6000808585111561447c57600080fd5b8386111561448957600080fd5b5050820193919092039150565b85815260a0602082015260006144af60a08301876135d3565b604083019590955250606081019290925260809091015292915050565b6001600160e01b03198316815281516000906144ef8160048501602087016135a7565b919091016004019392505050565b61ffff8716815260c06020820152600061451a60c08301886135d3565b828103604084015261452c81886135d3565b6001600160a01b0387811660608601528616608085015283810360a0850152905061455781856135d3565b9998505050505050505050565b6000821982111561457757614577614275565b500190565b600061012061ffff8c1683528a602084015289604084015260018060a01b03891660608401528760808401528660a08401528060c08401526145c0818401876142ad565b905082810360e08401526145d481866135d3565b90508281036101008401526145e981856135d3565b9c9b505050505050505050505050565b6020808252602b908201527f496e697469616c697a61626c653a20636f6e7472616374206973206e6f74206960408201526a6e697469616c697a696e6760a81b606082015260800190565b86815285602082015284604082015260c06060820152600061466960c08301866135d3565b60808301949094525060a00152949350505050565b86815285602082015284604082015283606082015260c0608082015260006146a960c08301856135d3565b905060018060a01b03831660a0830152979650505050505050565b6000602082840312156146d657600080fd5b8151801515811461281657600080fd5b600081600019048311821515161561470057614700614275565b500290565b60008261472257634e487b7160e01b600052601260045260246000fd5b500490565b600082516147398184602087016135a7565b919091019291505056fea26469706673582212207faae133fb695c7ce579043239ee243dda28dc9b32861a3e61aba596018d220664736f6c634300080a0033",
  "immutableReferences": {},
  "source": "// SPDX-License-Identifier: MIT\n\npragma solidity ^0.8.0;\n\nimport \"../ZorroControllerXChain.sol\";\n\nimport \"../../interfaces/ILayerZeroEndpoint.sol\";\n\ncontract MockZorroControllerXChain is ZorroControllerXChain {\n    event ReceiveXChainDepositReq(\n        uint256 indexed _pid,\n        uint256 indexed _valueUSDC,\n        address indexed _destAccount\n    );\n\n    event ReceiveXChainRepatriationReq(\n        uint256 indexed _originChainId,\n        uint256 indexed _burnableZORRewards,\n        uint256 indexed _rewardsDue\n    );\n\n    event ReceiveXChainDistributionReq(\n        uint256 indexed _amountUSDCBuyback,\n        uint256 indexed _amountUSDCRevShare,\n        uint256 indexed _accSlashedRewards\n    );\n\n    event ReceiveXChainWithdrawalReq(\n        uint256 indexed _originChainId,\n        uint256 indexed _pid,\n        uint256 indexed _trancheId\n    );\n\n    function encodeXChainDepositPayload(\n        uint256 _chainId,\n        uint256 _pid,\n        uint256 _valueUSDC,\n        uint256 _weeksCommitted,\n        uint256 _maxMarketMovement,\n        address _originWallet,\n        bytes memory _destWallet\n    ) public view returns (bytes memory) {\n        return\n            _encodeXChainDepositPayload(\n                _chainId,\n                _pid,\n                _valueUSDC,\n                _weeksCommitted,\n                _maxMarketMovement,\n                _originWallet,\n                _destWallet\n            );\n    }\n\n    function mockReceiveXChainDepositRequest(\n        uint256 _pid,\n        uint256 _valueUSDC,\n        uint256 _weeksCommitted,\n        uint256 _maxMarketMovement,\n        bytes memory _originAccount,\n        address _destAccount\n    ) public {\n        _receiveXChainDepositRequest(\n            _pid,\n            _valueUSDC,\n            _weeksCommitted,\n            block.timestamp,\n            _maxMarketMovement,\n            _originAccount,\n            _destAccount\n        );\n    }\n\n    function _receiveXChainDepositRequest(\n        uint256 _pid,\n        uint256 _valueUSDC,\n        uint256 _weeksCommitted,\n        uint256 _vaultEnteredAt,\n        uint256 _maxMarketMovement,\n        bytes memory _originAccount,\n        address _destAccount\n    ) internal override {\n        // TODO: Consider making this an actual event like for repatriation, instead of one just for test\n        emit ReceiveXChainDepositReq(_pid, _valueUSDC, _destAccount);\n    }\n\n    function mockReceiveXChainRepatriationRequest(\n        uint256 _originChainId,\n        uint256 _pid,\n        uint256 _trancheId,\n        bytes memory _originRecipient,\n        uint256 _burnableZORRewards,\n        uint256 _rewardsDue\n    ) public {\n        _receiveXChainRepatriationRequest(\n            _originChainId,\n            _pid,\n            _trancheId,\n            _originRecipient,\n            _burnableZORRewards,\n            _rewardsDue\n        );\n    }\n\n    function _receiveXChainRepatriationRequest(\n        uint256 _originChainId,\n        uint256 _pid,\n        uint256 _trancheId,\n        bytes memory _originRecipient,\n        uint256 _burnableZORRewards,\n        uint256 _rewardsDue\n    ) internal override {\n        emit ReceiveXChainRepatriationReq(\n            _originChainId,\n            _burnableZORRewards,\n            _rewardsDue\n        );\n    }\n\n    function mockReceiveXChainDistributionRequest(\n        uint256 _remoteChainId,\n        uint256 _amountUSDCBuyback,\n        uint256 _amountUSDCRevShare,\n        uint256 _accSlashedRewards,\n        uint256 _maxMarketMovement\n    ) public {\n        _receiveXChainDistributionRequest(\n            _remoteChainId,\n            _amountUSDCBuyback,\n            _amountUSDCRevShare,\n            _accSlashedRewards,\n            _maxMarketMovement\n        );\n    }\n\n    function _receiveXChainDistributionRequest(\n        uint256 _remoteChainId,\n        uint256 _amountUSDCBuyback,\n        uint256 _amountUSDCRevShare,\n        uint256 _accSlashedRewards,\n        uint256 _maxMarketMovement\n    ) internal override {\n        emit ReceiveXChainDistributionReq(\n            _amountUSDCBuyback,\n            _amountUSDCRevShare,\n            _accSlashedRewards\n        );\n    }\n\n    function mockReceiveXChainWithdrawalRequest(\n        uint256 _originChainId,\n        bytes memory _originAccount,\n        uint256 _pid,\n        uint256 _trancheId,\n        uint256 _maxMarketMovement\n    ) public {\n        _receiveXChainWithdrawalRequest(\n            _originChainId,\n            _originAccount,\n            _pid,\n            _trancheId,\n            _maxMarketMovement\n        );\n    }\n\n    function _receiveXChainWithdrawalRequest(\n        uint256 _originChainId,\n        bytes memory _originAccount,\n        uint256 _pid,\n        uint256 _trancheId,\n        uint256 _maxMarketMovement\n    ) internal override {\n        emit ReceiveXChainWithdrawalReq(_originChainId, _pid, _trancheId);\n    }\n\n    function getLZAdapterParamsForWithdraw(uint256 _gasForDestinationLZReceive)\n        public\n        pure\n        returns (bytes memory)\n    {\n        return _getLZAdapterParamsForWithdraw(_gasForDestinationLZReceive);\n    }\n}\n\ncontract MockLayerZeroEndpoint is ILayerZeroEndpoint {\n    function send(\n        uint16 _dstChainId,\n        bytes calldata _destination,\n        bytes calldata _payload,\n        address payable _refundAddress,\n        address _zroPaymentAddress,\n        bytes calldata _adapterParams\n    ) external payable {}\n\n    function receivePayload(\n        uint16 _srcChainId,\n        bytes calldata _srcAddress,\n        address _dstAddress,\n        uint64 _nonce,\n        uint256 _gasLimit,\n        bytes calldata _payload\n    ) external {}\n\n    function getInboundNonce(uint16 _srcChainId, bytes calldata _srcAddress)\n        external\n        view\n        returns (uint64)\n    {}\n\n    function getOutboundNonce(uint16 _dstChainId, address _srcAddress)\n        external\n        view\n        returns (uint64)\n    {}\n\n    function estimateFees(\n        uint16 _dstChainId,\n        address _userApplication,\n        bytes calldata _payload,\n        bool _payInZRO,\n        bytes calldata _adapterParam\n    ) external view returns (uint256 nativeFee, uint256 zroFee) {\n        return (0.1 ether, 0);\n    }\n\n    function getChainId() external view returns (uint16) {}\n\n    function retryPayload(\n        uint16 _srcChainId,\n        bytes calldata _srcAddress,\n        bytes calldata _payload\n    ) external {}\n\n    function hasStoredPayload(uint16 _srcChainId, bytes calldata _srcAddress)\n        external\n        view\n        returns (bool)\n    {}\n\n    function getSendLibraryAddress(address _userApplication)\n        external\n        view\n        returns (address)\n    {}\n\n    function getReceiveLibraryAddress(address _userApplication)\n        external\n        view\n        returns (address)\n    {}\n\n    function isSendingPayload() external view returns (bool) {}\n\n    function isReceivingPayload() external view returns (bool) {}\n\n    function getConfig(\n        uint16 _version,\n        uint16 _chainId,\n        address _userApplication,\n        uint256 _configType\n    ) external view returns (bytes memory) {}\n\n    function getSendVersion(address _userApplication)\n        external\n        view\n        returns (uint16)\n    {}\n\n    function getReceiveVersion(address _userApplication)\n        external\n        view\n        returns (uint16)\n    {}\n\n    function setConfig(\n        uint16 _version,\n        uint16 _chainId,\n        uint256 _configType,\n        bytes calldata _config\n    ) external {}\n\n    function setSendVersion(uint16 _version) external {}\n\n    function setReceiveVersion(uint16 _version) external {}\n\n    function forceResumeReceive(uint16 _srcChainId, bytes calldata _srcAddress)\n        external\n    {}\n}\n",
  "sourcePath": "/Users/kristophm/Documents/workspace/zorro-protocol/contracts/controllers/mocks/MockZorroControllerXChain.sol",
  "compiler": {
    "name": "solc",
    "version": "0.8.10+commit.fc410830.Emscripten.clang"
  },
  "schemaVersion": "3.4.4",
  "updatedAt": "2022-05-14T20:51:55.976Z",
  "networkType": "ethereum",
  "devdoc": {
    "kind": "dev",
    "methods": {
      "checkXChainDepositFee(uint256,bytes,uint256,uint256,uint256,uint256,bytes)": {
        "params": {
          "_chainId": "The Zorro Chain ID (not the LayerZero one)",
          "_destWallet": "A valid address on the remote chain that can claim ownership",
          "_dstContract": "The destination contract address on the remote chain",
          "_maxMarketMovement": "Acceptable degree of slippage on any transaction (e.g. 950 = 5%, 990 = 1% etc.)",
          "_pid": "The pool ID on the remote chain",
          "_valueUSDC": "The amount of USDC to deposit",
          "_weeksCommitted": "Number of weeks to commit to a vault"
        },
        "returns": {
          "_0": "uint256 Expected fee to pay for bridging/cross chain execution"
        }
      },
      "checkXChainDistributeEarningsFee(uint256,uint256,uint256,uint256)": {
        "params": {
          "_accSlashedRewards": "Accumulated slashed rewards on chain",
          "_amountUSDCBuyback": "Amount of USDC to buy back",
          "_amountUSDCRevShare": "Amount of USDC to rev share with ZOR single staking vault",
          "_maxMarketMovement": "factor to account for max market movement/slippage."
        },
        "returns": {
          "_0": "uint256 Quantity of native token as fees"
        }
      },
      "checkXChainRepatriationFee(uint256,uint256,uint256,bytes,uint256,uint256,uint256)": {
        "params": {
          "_burnableZORRewards": "Quantity of ZOR tokens minted for rewards here that need to be burned on the home chain",
          "_gasForDestinationLZReceive": "How much additional gas to provide at destination contract",
          "_originChainId": "Zorro chain ID of chain to which funds are to be repatriated to",
          "_originRecipient": "Recipient of funds on the origin chain",
          "_pid": "Pool ID on current chain",
          "_rewardsDue": "ZOR rewards due to the recipient",
          "_trancheId": "ID of tranche on current chain that funds were withdrawn from"
        },
        "returns": {
          "_0": "uint256 Estimated fee in native tokens"
        }
      },
      "checkXChainWithdrawalFee(uint256,uint256,uint256,uint256,uint256)": {
        "params": {
          "_gasForDestinationLZReceive": "How much additional gas to provide at destination contract",
          "_maxMarketMovement": "Acceptable degree of slippage on any transaction (e.g. 950 = 5%, 990 = 1% etc.)",
          "_pid": "The pool ID on the remote chain",
          "_trancheId": "The tranche ID on the remote chain",
          "_zorroChainId": "The Zorro Chain ID (not the LayerZero one)"
        },
        "returns": {
          "_0": "uint256 Expected fee to pay for bridging/cross chain execution"
        }
      },
      "extractParamsPayload(bytes)": {
        "params": {
          "_payloadWithSig": "ABI encoded payload with function selector"
        },
        "returns": {
          "paramsPayload": "Payload with params only"
        }
      },
      "initialize((address,address,address,address,address,address,address,address,(uint256,uint256,uint256[],bytes[],uint16[],uint256[],address,address,uint256),(address[],address[]),(address,address)))": {
        "params": {
          "_initValue": "a ZorroControllerXChainInit struct for initializing this contract"
        }
      },
      "owner()": {
        "details": "Returns the address of the current owner."
      },
      "receiveXChainDepositRequest(uint256,uint256,uint256,uint256,bytes,address)": {
        "details": "Should never ever be actually called."
      },
      "receiveXChainDistributionRequest(uint256,uint256,uint256,uint256,uint256)": {
        "details": "Should never ever be actually called."
      },
      "receiveXChainRepatriationRequest(uint256,uint256,uint256,bytes,uint256,uint256)": {
        "details": "Should never ever be actually called."
      },
      "receiveXChainWithdrawalRequest(uint256,bytes,uint256,uint256,uint256)": {
        "details": "Should never ever be actually called."
      },
      "renounceOwnership()": {
        "details": "Leaves the contract without owner. It will not be possible to call `onlyOwner` functions anymore. Can only be called by the current owner. NOTE: Renouncing ownership will leave the contract without an owner, thereby removing any functionality that is only available to the owner."
      },
      "sendXChainDepositRequest(uint256,uint256,uint256,uint256,uint256,bytes)": {
        "details": "Requires appropriate fee to be paid via msg.value (use checkXChainDepositFee() above)",
        "params": {
          "_destWallet": "A valid address on the remote chain that can claim ownership",
          "_maxMarketMovement": "Acceptable degree of slippage on any transaction (e.g. 950 = 5%, 990 = 1% etc.)",
          "_pid": "The pool ID on the remote chain",
          "_valueUSDC": "The amount of USDC to deposit",
          "_weeksCommitted": "Number of weeks to commit to a vault",
          "_zorroChainId": "The Zorro Chain ID (not the LayerZero one)"
        }
      },
      "sendXChainDistributeEarningsRequest(uint256,uint256,uint256,uint256)": {
        "params": {
          "_buybackAmountUSDC": "Amount in USDC to buy back",
          "_maxMarketMovement": "Acceptable slippage (950 = 5%, 990 = 1% etc.)",
          "_pid": "Pool ID",
          "_revShareAmountUSDC": "Amount in USDC to revshare w/ ZOR single staking vault"
        }
      },
      "sendXChainWithdrawalRequest(uint256,uint256,uint256,uint256,uint256)": {
        "details": "Requires value to be submitted to pay for cross chain transaction. Use checkXChainWithdrawalFee() to estimate fees",
        "params": {
          "_destZorroChainId": "The Zorro chain ID of the remote chain to withdraw from",
          "_gasForDestinationLZReceive": "How much additional gas to provide at destination contract",
          "_maxMarketMovement": "Acceptable degree of slippage on any transaction (e.g. 950 = 5%, 990 = 1% etc.)",
          "_pid": "The pool ID on the remote chain",
          "_trancheId": "The ID of the tranche for the given user and pool"
        }
      },
      "setControllerContract(uint256,bytes)": {
        "params": {
          "_controller": "Bytes representation of smart contract address for cross chain contract",
          "_zorroChainId": "Zorro Chain ID"
        }
      },
      "setStargateDestPoolIds(uint256,uint16)": {
        "params": {
          "_stargatePoolId": "Stargate pool ID",
          "_zorroChainId": "Zorro chain ID"
        }
      },
      "setZorroChainToLZMap(uint256,uint16)": {
        "params": {
          "_lzChainId": "LayerZero Chain ID",
          "_zorroChainId": "Zorro chain ID"
        }
      },
      "sgReceive(uint16,bytes,uint256,address,uint256,bytes)": {
        "details": "Implements IStargateReceiver interface"
      },
      "transferOwnership(address)": {
        "details": "Transfers ownership of the contract to a new account (`newOwner`). Can only be called by the current owner."
      }
    },
    "version": 1
  },
  "userdoc": {
    "kind": "user",
    "methods": {
      "checkXChainDepositFee(uint256,bytes,uint256,uint256,uint256,uint256,bytes)": {
        "notice": "Checks to see how much a cross chain deposit will cost"
      },
      "checkXChainDistributeEarningsFee(uint256,uint256,uint256,uint256)": {
        "notice": "Checks to see how much a cross chain earnings distribution will cost"
      },
      "checkXChainRepatriationFee(uint256,uint256,uint256,bytes,uint256,uint256,uint256)": {
        "notice": "Estimates fees for repatriation operation"
      },
      "checkXChainWithdrawalFee(uint256,uint256,uint256,uint256,uint256)": {
        "notice": "Checks to see how much a cross chain withdrawal will cost"
      },
      "extractParamsPayload(bytes)": {
        "notice": "Removes function signature from ABI encoded payload"
      },
      "initialize((address,address,address,address,address,address,address,address,(uint256,uint256,uint256[],bytes[],uint16[],uint256[],address,address,uint256),(address[],address[]),(address,address)))": {
        "notice": "Upgradeable constructor"
      },
      "receiveXChainDepositRequest(uint256,uint256,uint256,uint256,bytes,address)": {
        "notice": "Dummy func to allow .selector call above and guarantee typesafety for abi calls."
      },
      "receiveXChainDistributionRequest(uint256,uint256,uint256,uint256,uint256)": {
        "notice": "Dummy func to allow .selector call above and guarantee typesafety for abi calls."
      },
      "receiveXChainRepatriationRequest(uint256,uint256,uint256,bytes,uint256,uint256)": {
        "notice": "Dummy func to allow .selector call above and guarantee typesafety for abi calls."
      },
      "receiveXChainWithdrawalRequest(uint256,bytes,uint256,uint256,uint256)": {
        "notice": "Dummy func to allow .selector call above and guarantee typesafety for abi calls."
      },
      "sendXChainDepositRequest(uint256,uint256,uint256,uint256,uint256,bytes)": {
        "notice": "Prepares and sends a cross chain deposit request. Takes care of necessary financial ops (transfer/locking USDC)"
      },
      "sendXChainDistributeEarningsRequest(uint256,uint256,uint256,uint256)": {
        "notice": "Sends a request back to the home chain to distribute earnings"
      },
      "sendXChainWithdrawalRequest(uint256,uint256,uint256,uint256,uint256)": {
        "notice": "Prepares and sends a cross chain withdrwal request."
      },
      "setControllerContract(uint256,bytes)": {
        "notice": "Setter: Controller contract for each chain"
      },
      "setLayerZeroParams(address,uint256,address)": {
        "notice": "Setter: Set main LZ params"
      },
      "setStargateDestPoolIds(uint256,uint16)": {
        "notice": "Setter: Stargate dest pool IDs for USD asset"
      },
      "setZorroChainToLZMap(uint256,uint16)": {
        "notice": "Setter: LZ/Stargate params"
      },
      "sgReceive(uint16,bytes,uint256,address,uint256,bytes)": {
        "notice": "Receives stargate cross-chain calls"
      }
    },
    "version": 1
  }
}