{
  "contractName": "MockVaultZorro",
  "abi": [
    {
      "anonymous": false,
      "inputs": [
        {
          "indexed": true,
          "internalType": "uint256",
          "name": "_amount",
          "type": "uint256"
        }
      ],
      "name": "Buyback",
      "type": "event"
    },
    {
      "anonymous": false,
      "inputs": [
        {
          "indexed": true,
          "internalType": "address",
          "name": "previousOwner",
          "type": "address"
        },
        {
          "indexed": true,
          "internalType": "address",
          "name": "newOwner",
          "type": "address"
        }
      ],
      "name": "OwnershipTransferred",
      "type": "event"
    },
    {
      "anonymous": false,
      "inputs": [
        {
          "indexed": false,
          "internalType": "address",
          "name": "account",
          "type": "address"
        }
      ],
      "name": "Paused",
      "type": "event"
    },
    {
      "anonymous": false,
      "inputs": [
        {
          "indexed": true,
          "internalType": "uint256",
          "name": "_amount",
          "type": "uint256"
        }
      ],
      "name": "RevShare",
      "type": "event"
    },
    {
      "anonymous": false,
      "inputs": [
        {
          "indexed": false,
          "internalType": "address",
          "name": "_govAddress",
          "type": "address"
        }
      ],
      "name": "SetGov",
      "type": "event"
    },
    {
      "anonymous": false,
      "inputs": [
        {
          "indexed": false,
          "internalType": "bool",
          "name": "_onlyGov",
          "type": "bool"
        }
      ],
      "name": "SetOnlyGov",
      "type": "event"
    },
    {
      "anonymous": false,
      "inputs": [
        {
          "indexed": false,
          "internalType": "address",
          "name": "_rewardsAddress",
          "type": "address"
        }
      ],
      "name": "SetRewardsAddress",
      "type": "event"
    },
    {
      "anonymous": false,
      "inputs": [
        {
          "indexed": false,
          "internalType": "uint256",
          "name": "_entranceFeeFactor",
          "type": "uint256"
        },
        {
          "indexed": false,
          "internalType": "uint256",
          "name": "_withdrawFeeFactor",
          "type": "uint256"
        },
        {
          "indexed": false,
          "internalType": "uint256",
          "name": "_controllerFee",
          "type": "uint256"
        },
        {
          "indexed": false,
          "internalType": "uint256",
          "name": "_buyBackRate",
          "type": "uint256"
        },
        {
          "indexed": false,
          "internalType": "uint256",
          "name": "_revShareRate",
          "type": "uint256"
        }
      ],
      "name": "SetSettings",
      "type": "event"
    },
    {
      "anonymous": false,
      "inputs": [
        {
          "indexed": false,
          "internalType": "address",
          "name": "_uniRouterAddress",
          "type": "address"
        }
      ],
      "name": "SetUniRouterAddress",
      "type": "event"
    },
    {
      "anonymous": false,
      "inputs": [
        {
          "indexed": false,
          "internalType": "address",
          "name": "account",
          "type": "address"
        }
      ],
      "name": "Unpaused",
      "type": "event"
    },
    {
      "inputs": [],
      "name": "ZORPriceFeed",
      "outputs": [
        {
          "internalType": "contract AggregatorV3Interface",
          "name": "",
          "type": "address"
        }
      ],
      "stateMutability": "view",
      "type": "function"
    },
    {
      "inputs": [],
      "name": "ZORROAddress",
      "outputs": [
        {
          "internalType": "address",
          "name": "",
          "type": "address"
        }
      ],
      "stateMutability": "view",
      "type": "function"
    },
    {
      "inputs": [],
      "name": "burnAddress",
      "outputs": [
        {
          "internalType": "address",
          "name": "",
          "type": "address"
        }
      ],
      "stateMutability": "view",
      "type": "function"
    },
    {
      "inputs": [],
      "name": "buyBackRate",
      "outputs": [
        {
          "internalType": "uint256",
          "name": "",
          "type": "uint256"
        }
      ],
      "stateMutability": "view",
      "type": "function"
    },
    {
      "inputs": [],
      "name": "buyBackRateMax",
      "outputs": [
        {
          "internalType": "uint256",
          "name": "",
          "type": "uint256"
        }
      ],
      "stateMutability": "view",
      "type": "function"
    },
    {
      "inputs": [],
      "name": "buyBackRateUL",
      "outputs": [
        {
          "internalType": "uint256",
          "name": "",
          "type": "uint256"
        }
      ],
      "stateMutability": "view",
      "type": "function"
    },
    {
      "inputs": [],
      "name": "controllerFee",
      "outputs": [
        {
          "internalType": "uint256",
          "name": "",
          "type": "uint256"
        }
      ],
      "stateMutability": "view",
      "type": "function"
    },
    {
      "inputs": [],
      "name": "controllerFeeMax",
      "outputs": [
        {
          "internalType": "uint256",
          "name": "",
          "type": "uint256"
        }
      ],
      "stateMutability": "view",
      "type": "function"
    },
    {
      "inputs": [],
      "name": "controllerFeeUL",
      "outputs": [
        {
          "internalType": "uint256",
          "name": "",
          "type": "uint256"
        }
      ],
      "stateMutability": "view",
      "type": "function"
    },
    {
      "inputs": [],
      "name": "defaultStablecoin",
      "outputs": [
        {
          "internalType": "address",
          "name": "",
          "type": "address"
        }
      ],
      "stateMutability": "view",
      "type": "function"
    },
    {
      "inputs": [
        {
          "internalType": "uint256",
          "name": "_wantAmt",
          "type": "uint256"
        }
      ],
      "name": "depositWantToken",
      "outputs": [
        {
          "internalType": "uint256",
          "name": "",
          "type": "uint256"
        }
      ],
      "stateMutability": "nonpayable",
      "type": "function"
    },
    {
      "inputs": [
        {
          "internalType": "uint256",
          "name": "_maxMarketMovementAllowed",
          "type": "uint256"
        }
      ],
      "name": "earn",
      "outputs": [],
      "stateMutability": "nonpayable",
      "type": "function"
    },
    {
      "inputs": [],
      "name": "earnTokenPriceFeed",
      "outputs": [
        {
          "internalType": "contract AggregatorV3Interface",
          "name": "",
          "type": "address"
        }
      ],
      "stateMutability": "view",
      "type": "function"
    },
    {
      "inputs": [],
      "name": "earnedAddress",
      "outputs": [
        {
          "internalType": "address",
          "name": "",
          "type": "address"
        }
      ],
      "stateMutability": "view",
      "type": "function"
    },
    {
      "inputs": [
        {
          "internalType": "uint256",
          "name": "",
          "type": "uint256"
        }
      ],
      "name": "earnedToStablecoinPath",
      "outputs": [
        {
          "internalType": "address",
          "name": "",
          "type": "address"
        }
      ],
      "stateMutability": "view",
      "type": "function"
    },
    {
      "inputs": [
        {
          "internalType": "uint256",
          "name": "",
          "type": "uint256"
        }
      ],
      "name": "earnedToToken0Path",
      "outputs": [
        {
          "internalType": "address",
          "name": "",
          "type": "address"
        }
      ],
      "stateMutability": "view",
      "type": "function"
    },
    {
      "inputs": [
        {
          "internalType": "uint256",
          "name": "",
          "type": "uint256"
        }
      ],
      "name": "earnedToToken1Path",
      "outputs": [
        {
          "internalType": "address",
          "name": "",
          "type": "address"
        }
      ],
      "stateMutability": "view",
      "type": "function"
    },
    {
      "inputs": [
        {
          "internalType": "uint256",
          "name": "",
          "type": "uint256"
        }
      ],
      "name": "earnedToZORLPPoolOtherTokenPath",
      "outputs": [
        {
          "internalType": "address",
          "name": "",
          "type": "address"
        }
      ],
      "stateMutability": "view",
      "type": "function"
    },
    {
      "inputs": [
        {
          "internalType": "uint256",
          "name": "",
          "type": "uint256"
        }
      ],
      "name": "earnedToZORROPath",
      "outputs": [
        {
          "internalType": "address",
          "name": "",
          "type": "address"
        }
      ],
      "stateMutability": "view",
      "type": "function"
    },
    {
      "inputs": [],
      "name": "entranceFeeFactor",
      "outputs": [
        {
          "internalType": "uint256",
          "name": "",
          "type": "uint256"
        }
      ],
      "stateMutability": "view",
      "type": "function"
    },
    {
      "inputs": [],
      "name": "entranceFeeFactorLL",
      "outputs": [
        {
          "internalType": "uint256",
          "name": "",
          "type": "uint256"
        }
      ],
      "stateMutability": "view",
      "type": "function"
    },
    {
      "inputs": [],
      "name": "entranceFeeFactorMax",
      "outputs": [
        {
          "internalType": "uint256",
          "name": "",
          "type": "uint256"
        }
      ],
      "stateMutability": "view",
      "type": "function"
    },
    {
      "inputs": [
        {
          "internalType": "uint256",
          "name": "_amountUSD",
          "type": "uint256"
        },
        {
          "internalType": "uint256",
          "name": "_maxMarketMovementAllowed",
          "type": "uint256"
        }
      ],
      "name": "exchangeUSDForWantToken",
      "outputs": [
        {
          "internalType": "uint256",
          "name": "",
          "type": "uint256"
        }
      ],
      "stateMutability": "nonpayable",
      "type": "function"
    },
    {
      "inputs": [
        {
          "internalType": "uint256",
          "name": "_amount",
          "type": "uint256"
        },
        {
          "internalType": "uint256",
          "name": "_maxMarketMovementAllowed",
          "type": "uint256"
        }
      ],
      "name": "exchangeWantTokenForUSD",
      "outputs": [
        {
          "internalType": "uint256",
          "name": "",
          "type": "uint256"
        }
      ],
      "stateMutability": "nonpayable",
      "type": "function"
    },
    {
      "inputs": [],
      "name": "farm",
      "outputs": [],
      "stateMutability": "nonpayable",
      "type": "function"
    },
    {
      "inputs": [],
      "name": "farmContractAddress",
      "outputs": [
        {
          "internalType": "address",
          "name": "",
          "type": "address"
        }
      ],
      "stateMutability": "view",
      "type": "function"
    },
    {
      "inputs": [],
      "name": "govAddress",
      "outputs": [
        {
          "internalType": "address",
          "name": "",
          "type": "address"
        }
      ],
      "stateMutability": "view",
      "type": "function"
    },
    {
      "inputs": [
        {
          "internalType": "address",
          "name": "_token",
          "type": "address"
        },
        {
          "internalType": "uint256",
          "name": "_amount",
          "type": "uint256"
        },
        {
          "internalType": "address",
          "name": "_to",
          "type": "address"
        }
      ],
      "name": "inCaseTokensGetStuck",
      "outputs": [],
      "stateMutability": "nonpayable",
      "type": "function"
    },
    {
      "inputs": [
        {
          "internalType": "address",
          "name": "_timelockOwner",
          "type": "address"
        },
        {
          "components": [
            {
              "internalType": "uint256",
              "name": "pid",
              "type": "uint256"
            },
            {
              "components": [
                {
                  "internalType": "address",
                  "name": "govAddress",
                  "type": "address"
                },
                {
                  "internalType": "address",
                  "name": "zorroControllerAddress",
                  "type": "address"
                },
                {
                  "internalType": "address",
                  "name": "zorroXChainController",
                  "type": "address"
                },
                {
                  "internalType": "address",
                  "name": "ZORROAddress",
                  "type": "address"
                },
                {
                  "internalType": "address",
                  "name": "zorroStakingVault",
                  "type": "address"
                },
                {
                  "internalType": "address",
                  "name": "wantAddress",
                  "type": "address"
                },
                {
                  "internalType": "address",
                  "name": "token0Address",
                  "type": "address"
                },
                {
                  "internalType": "address",
                  "name": "token1Address",
                  "type": "address"
                },
                {
                  "internalType": "address",
                  "name": "earnedAddress",
                  "type": "address"
                },
                {
                  "internalType": "address",
                  "name": "farmContractAddress",
                  "type": "address"
                },
                {
                  "internalType": "address",
                  "name": "rewardsAddress",
                  "type": "address"
                },
                {
                  "internalType": "address",
                  "name": "poolAddress",
                  "type": "address"
                },
                {
                  "internalType": "address",
                  "name": "uniRouterAddress",
                  "type": "address"
                },
                {
                  "internalType": "address",
                  "name": "zorroLPPool",
                  "type": "address"
                },
                {
                  "internalType": "address",
                  "name": "zorroLPPoolOtherToken",
                  "type": "address"
                },
                {
                  "internalType": "address",
                  "name": "defaultStablecoin",
                  "type": "address"
                }
              ],
              "internalType": "struct VaultLibrary.VaultAddresses",
              "name": "keyAddresses",
              "type": "tuple"
            },
            {
              "internalType": "address[]",
              "name": "stablecoinToToken0Path",
              "type": "address[]"
            },
            {
              "components": [
                {
                  "internalType": "uint256",
                  "name": "controllerFee",
                  "type": "uint256"
                },
                {
                  "internalType": "uint256",
                  "name": "buyBackRate",
                  "type": "uint256"
                },
                {
                  "internalType": "uint256",
                  "name": "revShareRate",
                  "type": "uint256"
                },
                {
                  "internalType": "uint256",
                  "name": "entranceFeeFactor",
                  "type": "uint256"
                },
                {
                  "internalType": "uint256",
                  "name": "withdrawFeeFactor",
                  "type": "uint256"
                }
              ],
              "internalType": "struct VaultLibrary.VaultFees",
              "name": "fees",
              "type": "tuple"
            },
            {
              "components": [
                {
                  "internalType": "address",
                  "name": "token0PriceFeed",
                  "type": "address"
                },
                {
                  "internalType": "address",
                  "name": "token1PriceFeed",
                  "type": "address"
                },
                {
                  "internalType": "address",
                  "name": "earnTokenPriceFeed",
                  "type": "address"
                },
                {
                  "internalType": "address",
                  "name": "ZORPriceFeed",
                  "type": "address"
                },
                {
                  "internalType": "address",
                  "name": "lpPoolOtherTokenPriceFeed",
                  "type": "address"
                },
                {
                  "internalType": "address",
                  "name": "stablecoinPriceFeed",
                  "type": "address"
                }
              ],
              "internalType": "struct VaultLibrary.VaultPriceFeeds",
              "name": "priceFeeds",
              "type": "tuple"
            }
          ],
          "internalType": "struct VaultZorro.VaultZorroInit",
          "name": "_initValue",
          "type": "tuple"
        }
      ],
      "name": "initialize",
      "outputs": [],
      "stateMutability": "nonpayable",
      "type": "function"
    },
    {
      "inputs": [
        {
          "internalType": "address",
          "name": "_timelockOwner",
          "type": "address"
        }
      ],
      "name": "initialize",
      "outputs": [],
      "stateMutability": "nonpayable",
      "type": "function"
    },
    {
      "inputs": [],
      "name": "isFarmable",
      "outputs": [
        {
          "internalType": "bool",
          "name": "",
          "type": "bool"
        }
      ],
      "stateMutability": "view",
      "type": "function"
    },
    {
      "inputs": [],
      "name": "isHomeChain",
      "outputs": [
        {
          "internalType": "bool",
          "name": "",
          "type": "bool"
        }
      ],
      "stateMutability": "view",
      "type": "function"
    },
    {
      "inputs": [],
      "name": "lastEarnBlock",
      "outputs": [
        {
          "internalType": "uint256",
          "name": "",
          "type": "uint256"
        }
      ],
      "stateMutability": "view",
      "type": "function"
    },
    {
      "inputs": [],
      "name": "lpPoolOtherTokenPriceFeed",
      "outputs": [
        {
          "internalType": "contract AggregatorV3Interface",
          "name": "",
          "type": "address"
        }
      ],
      "stateMutability": "view",
      "type": "function"
    },
    {
      "inputs": [],
      "name": "onlyGov",
      "outputs": [
        {
          "internalType": "bool",
          "name": "",
          "type": "bool"
        }
      ],
      "stateMutability": "view",
      "type": "function"
    },
    {
      "inputs": [],
      "name": "owner",
      "outputs": [
        {
          "internalType": "address",
          "name": "",
          "type": "address"
        }
      ],
      "stateMutability": "view",
      "type": "function"
    },
    {
      "inputs": [],
      "name": "pause",
      "outputs": [],
      "stateMutability": "nonpayable",
      "type": "function"
    },
    {
      "inputs": [],
      "name": "paused",
      "outputs": [
        {
          "internalType": "bool",
          "name": "",
          "type": "bool"
        }
      ],
      "stateMutability": "view",
      "type": "function"
    },
    {
      "inputs": [],
      "name": "pid",
      "outputs": [
        {
          "internalType": "uint256",
          "name": "",
          "type": "uint256"
        }
      ],
      "stateMutability": "view",
      "type": "function"
    },
    {
      "inputs": [],
      "name": "poolAddress",
      "outputs": [
        {
          "internalType": "address",
          "name": "",
          "type": "address"
        }
      ],
      "stateMutability": "view",
      "type": "function"
    },
    {
      "inputs": [],
      "name": "renounceOwnership",
      "outputs": [],
      "stateMutability": "nonpayable",
      "type": "function"
    },
    {
      "inputs": [],
      "name": "revShareRate",
      "outputs": [
        {
          "internalType": "uint256",
          "name": "",
          "type": "uint256"
        }
      ],
      "stateMutability": "view",
      "type": "function"
    },
    {
      "inputs": [],
      "name": "revShareRateMax",
      "outputs": [
        {
          "internalType": "uint256",
          "name": "",
          "type": "uint256"
        }
      ],
      "stateMutability": "view",
      "type": "function"
    },
    {
      "inputs": [],
      "name": "revShareRateUL",
      "outputs": [
        {
          "internalType": "uint256",
          "name": "",
          "type": "uint256"
        }
      ],
      "stateMutability": "view",
      "type": "function"
    },
    {
      "inputs": [],
      "name": "rewardsAddress",
      "outputs": [
        {
          "internalType": "address",
          "name": "",
          "type": "address"
        }
      ],
      "stateMutability": "view",
      "type": "function"
    },
    {
      "inputs": [
        {
          "internalType": "address",
          "name": "_burnAddress",
          "type": "address"
        }
      ],
      "name": "setBurnAddress",
      "outputs": [],
      "stateMutability": "nonpayable",
      "type": "function"
    },
    {
      "inputs": [
        {
          "internalType": "address",
          "name": "_defaultStablecoin",
          "type": "address"
        }
      ],
      "name": "setDefaultStablecoin",
      "outputs": [],
      "stateMutability": "nonpayable",
      "type": "function"
    },
    {
      "inputs": [
        {
          "internalType": "address",
          "name": "_earnedAddress",
          "type": "address"
        }
      ],
      "name": "setEarnedAddress",
      "outputs": [],
      "stateMutability": "nonpayable",
      "type": "function"
    },
    {
      "inputs": [
        {
          "internalType": "address",
          "name": "_farmContractAddress",
          "type": "address"
        }
      ],
      "name": "setFarmContractAddress",
      "outputs": [],
      "stateMutability": "nonpayable",
      "type": "function"
    },
    {
      "inputs": [
        {
          "internalType": "uint256",
          "name": "_entranceFeeFactor",
          "type": "uint256"
        },
        {
          "internalType": "uint256",
          "name": "_withdrawFeeFactor",
          "type": "uint256"
        },
        {
          "internalType": "uint256",
          "name": "_controllerFee",
          "type": "uint256"
        },
        {
          "internalType": "uint256",
          "name": "_buyBackRate",
          "type": "uint256"
        },
        {
          "internalType": "uint256",
          "name": "_revShareRate",
          "type": "uint256"
        }
      ],
      "name": "setFeeSettings",
      "outputs": [],
      "stateMutability": "nonpayable",
      "type": "function"
    },
    {
      "inputs": [
        {
          "internalType": "address",
          "name": "_govAddress",
          "type": "address"
        }
      ],
      "name": "setGov",
      "outputs": [],
      "stateMutability": "nonpayable",
      "type": "function"
    },
    {
      "inputs": [
        {
          "internalType": "bool",
          "name": "_isFarmable",
          "type": "bool"
        }
      ],
      "name": "setIsFarmable",
      "outputs": [],
      "stateMutability": "nonpayable",
      "type": "function"
    },
    {
      "inputs": [
        {
          "internalType": "bool",
          "name": "_onlyGov",
          "type": "bool"
        }
      ],
      "name": "setOnlyGov",
      "outputs": [],
      "stateMutability": "nonpayable",
      "type": "function"
    },
    {
      "inputs": [
        {
          "internalType": "uint256",
          "name": "_pid",
          "type": "uint256"
        }
      ],
      "name": "setPid",
      "outputs": [],
      "stateMutability": "nonpayable",
      "type": "function"
    },
    {
      "inputs": [
        {
          "internalType": "address",
          "name": "_poolAddress",
          "type": "address"
        }
      ],
      "name": "setPoolAddress",
      "outputs": [],
      "stateMutability": "nonpayable",
      "type": "function"
    },
    {
      "inputs": [
        {
          "internalType": "uint8",
          "name": "_idx",
          "type": "uint8"
        },
        {
          "internalType": "address",
          "name": "_priceFeed",
          "type": "address"
        }
      ],
      "name": "setPriceFeed",
      "outputs": [],
      "stateMutability": "nonpayable",
      "type": "function"
    },
    {
      "inputs": [
        {
          "internalType": "address",
          "name": "_rewardsAddress",
          "type": "address"
        }
      ],
      "name": "setRewardsAddress",
      "outputs": [],
      "stateMutability": "nonpayable",
      "type": "function"
    },
    {
      "inputs": [
        {
          "internalType": "uint8",
          "name": "_idx",
          "type": "uint8"
        },
        {
          "internalType": "address[]",
          "name": "_path",
          "type": "address[]"
        }
      ],
      "name": "setSwapPaths",
      "outputs": [],
      "stateMutability": "nonpayable",
      "type": "function"
    },
    {
      "inputs": [
        {
          "internalType": "address",
          "name": "_token0Address",
          "type": "address"
        }
      ],
      "name": "setToken0Address",
      "outputs": [],
      "stateMutability": "nonpayable",
      "type": "function"
    },
    {
      "inputs": [
        {
          "internalType": "address",
          "name": "_token1Address",
          "type": "address"
        }
      ],
      "name": "setToken1Address",
      "outputs": [],
      "stateMutability": "nonpayable",
      "type": "function"
    },
    {
      "inputs": [
        {
          "internalType": "address",
          "name": "_uniRouterAddress",
          "type": "address"
        }
      ],
      "name": "setUniRouterAddress",
      "outputs": [],
      "stateMutability": "nonpayable",
      "type": "function"
    },
    {
      "inputs": [
        {
          "internalType": "address",
          "name": "_wantAddress",
          "type": "address"
        }
      ],
      "name": "setWantAddress",
      "outputs": [],
      "stateMutability": "nonpayable",
      "type": "function"
    },
    {
      "inputs": [
        {
          "internalType": "address",
          "name": "_ZORROAddress",
          "type": "address"
        }
      ],
      "name": "setZORROAddress",
      "outputs": [],
      "stateMutability": "nonpayable",
      "type": "function"
    },
    {
      "inputs": [
        {
          "internalType": "address",
          "name": "_zorroControllerAddress",
          "type": "address"
        }
      ],
      "name": "setZorroControllerAddress",
      "outputs": [],
      "stateMutability": "nonpayable",
      "type": "function"
    },
    {
      "inputs": [
        {
          "internalType": "address",
          "name": "_poolAddress",
          "type": "address"
        }
      ],
      "name": "setZorroLPPoolAddress",
      "outputs": [],
      "stateMutability": "nonpayable",
      "type": "function"
    },
    {
      "inputs": [
        {
          "internalType": "address",
          "name": "_otherToken",
          "type": "address"
        }
      ],
      "name": "setZorroLPPoolOtherToken",
      "outputs": [],
      "stateMutability": "nonpayable",
      "type": "function"
    },
    {
      "inputs": [
        {
          "internalType": "address",
          "name": "_stakingVault",
          "type": "address"
        }
      ],
      "name": "setZorroStakingVault",
      "outputs": [],
      "stateMutability": "nonpayable",
      "type": "function"
    },
    {
      "inputs": [
        {
          "internalType": "address",
          "name": "_zorroXChainController",
          "type": "address"
        }
      ],
      "name": "setZorroXChainControllerAddress",
      "outputs": [],
      "stateMutability": "nonpayable",
      "type": "function"
    },
    {
      "inputs": [],
      "name": "sharesTotal",
      "outputs": [
        {
          "internalType": "uint256",
          "name": "",
          "type": "uint256"
        }
      ],
      "stateMutability": "view",
      "type": "function"
    },
    {
      "inputs": [],
      "name": "stablecoinPriceFeed",
      "outputs": [
        {
          "internalType": "contract AggregatorV3Interface",
          "name": "",
          "type": "address"
        }
      ],
      "stateMutability": "view",
      "type": "function"
    },
    {
      "inputs": [
        {
          "internalType": "uint256",
          "name": "",
          "type": "uint256"
        }
      ],
      "name": "stablecoinToToken0Path",
      "outputs": [
        {
          "internalType": "address",
          "name": "",
          "type": "address"
        }
      ],
      "stateMutability": "view",
      "type": "function"
    },
    {
      "inputs": [
        {
          "internalType": "uint256",
          "name": "",
          "type": "uint256"
        }
      ],
      "name": "stablecoinToToken1Path",
      "outputs": [
        {
          "internalType": "address",
          "name": "",
          "type": "address"
        }
      ],
      "stateMutability": "view",
      "type": "function"
    },
    {
      "inputs": [],
      "name": "token0Address",
      "outputs": [
        {
          "internalType": "address",
          "name": "",
          "type": "address"
        }
      ],
      "stateMutability": "view",
      "type": "function"
    },
    {
      "inputs": [],
      "name": "token0PriceFeed",
      "outputs": [
        {
          "internalType": "contract AggregatorV3Interface",
          "name": "",
          "type": "address"
        }
      ],
      "stateMutability": "view",
      "type": "function"
    },
    {
      "inputs": [
        {
          "internalType": "uint256",
          "name": "",
          "type": "uint256"
        }
      ],
      "name": "token0ToStablecoinPath",
      "outputs": [
        {
          "internalType": "address",
          "name": "",
          "type": "address"
        }
      ],
      "stateMutability": "view",
      "type": "function"
    },
    {
      "inputs": [],
      "name": "token1Address",
      "outputs": [
        {
          "internalType": "address",
          "name": "",
          "type": "address"
        }
      ],
      "stateMutability": "view",
      "type": "function"
    },
    {
      "inputs": [],
      "name": "token1PriceFeed",
      "outputs": [
        {
          "internalType": "contract AggregatorV3Interface",
          "name": "",
          "type": "address"
        }
      ],
      "stateMutability": "view",
      "type": "function"
    },
    {
      "inputs": [
        {
          "internalType": "uint256",
          "name": "",
          "type": "uint256"
        }
      ],
      "name": "token1ToStablecoinPath",
      "outputs": [
        {
          "internalType": "address",
          "name": "",
          "type": "address"
        }
      ],
      "stateMutability": "view",
      "type": "function"
    },
    {
      "inputs": [
        {
          "internalType": "address",
          "name": "newOwner",
          "type": "address"
        }
      ],
      "name": "transferOwnership",
      "outputs": [],
      "stateMutability": "nonpayable",
      "type": "function"
    },
    {
      "inputs": [],
      "name": "uniRouterAddress",
      "outputs": [
        {
          "internalType": "address",
          "name": "",
          "type": "address"
        }
      ],
      "stateMutability": "view",
      "type": "function"
    },
    {
      "inputs": [],
      "name": "unpause",
      "outputs": [],
      "stateMutability": "nonpayable",
      "type": "function"
    },
    {
      "inputs": [],
      "name": "wantAddress",
      "outputs": [
        {
          "internalType": "address",
          "name": "",
          "type": "address"
        }
      ],
      "stateMutability": "view",
      "type": "function"
    },
    {
      "inputs": [],
      "name": "wantLockedTotal",
      "outputs": [
        {
          "internalType": "uint256",
          "name": "",
          "type": "uint256"
        }
      ],
      "stateMutability": "view",
      "type": "function"
    },
    {
      "inputs": [],
      "name": "withdrawFeeFactor",
      "outputs": [
        {
          "internalType": "uint256",
          "name": "",
          "type": "uint256"
        }
      ],
      "stateMutability": "view",
      "type": "function"
    },
    {
      "inputs": [],
      "name": "withdrawFeeFactorLL",
      "outputs": [
        {
          "internalType": "uint256",
          "name": "",
          "type": "uint256"
        }
      ],
      "stateMutability": "view",
      "type": "function"
    },
    {
      "inputs": [],
      "name": "withdrawFeeFactorMax",
      "outputs": [
        {
          "internalType": "uint256",
          "name": "",
          "type": "uint256"
        }
      ],
      "stateMutability": "view",
      "type": "function"
    },
    {
      "inputs": [
        {
          "internalType": "uint256",
          "name": "_wantAmt",
          "type": "uint256"
        }
      ],
      "name": "withdrawWantToken",
      "outputs": [
        {
          "internalType": "uint256",
          "name": "",
          "type": "uint256"
        }
      ],
      "stateMutability": "nonpayable",
      "type": "function"
    },
    {
      "inputs": [],
      "name": "zorroControllerAddress",
      "outputs": [
        {
          "internalType": "address",
          "name": "",
          "type": "address"
        }
      ],
      "stateMutability": "view",
      "type": "function"
    },
    {
      "inputs": [],
      "name": "zorroLPPool",
      "outputs": [
        {
          "internalType": "address",
          "name": "",
          "type": "address"
        }
      ],
      "stateMutability": "view",
      "type": "function"
    },
    {
      "inputs": [],
      "name": "zorroLPPoolOtherToken",
      "outputs": [
        {
          "internalType": "address",
          "name": "",
          "type": "address"
        }
      ],
      "stateMutability": "view",
      "type": "function"
    },
    {
      "inputs": [],
      "name": "zorroStakingVault",
      "outputs": [
        {
          "internalType": "address",
          "name": "",
          "type": "address"
        }
      ],
      "stateMutability": "view",
      "type": "function"
    },
    {
      "inputs": [],
      "name": "zorroXChainController",
      "outputs": [
        {
          "internalType": "address",
          "name": "",
          "type": "address"
        }
      ],
      "stateMutability": "view",
      "type": "function"
    }
  ],
  "bytecode": "0x608060405234801561001057600080fd5b50613f00806100206000396000f3fe608060405234801561001057600080fd5b50600436106105045760003560e01c80637ff36fbe11610299578063c302a4d011610167578063e7a03679116100d9578063f106845411610092578063f106845414610a79578063f25342bf14610a82578063f2fde38b14610a95578063f5046a2914610aa8578063fbf5683f14610abb578063ff29b39514610ace57600080fd5b8063e7a0367914610a26578063e9e15b4f14610a39578063ebfba7c414610a4c578063edf5e58514610a5f578063ee50dc3414610603578063f05c09b314610a6c57600080fd5b8063cfad57a21161012b578063cfad57a2146109b4578063d7cb416f146109c7578063de841991146109da578063e502a88d146109ed578063e65a011714610a00578063e719847414610a1357600080fd5b8063c302a4d014610831578063c4d66de814610968578063c524a0561461097b578063c8479cd61461098e578063c8e3d18b146109a157600080fd5b8063a04953911161020b578063b1414dbb116101c4578063b1414dbb14610909578063b3545c011461051e578063b61bb80a1461091c578063b73cba2a1461092f578063bf3a7d4014610942578063c0973eed1461095557600080fd5b8063a049539114610897578063a4d2b083146108aa578063aabf190b146108bd578063aada5bf6146108d0578063ab196def146108e3578063ae53e58a146108f657600080fd5b8063866b20181161025d578063866b2018146108315780638906758d1461083a5780638da5cb5b1461084d578063959334f41461085e57806396e9aff8146108715780639fc33a9f1461088457600080fd5b80637ff36fbe146107e7578063833eeab9146107fa57806383f019391461080d5780638456cb591461082057806385f02dd61461082857600080fd5b80634c5b09da116103d6578063648794a4116103485780636f96f6fa116103015780636f96f6fa1461078057806370d5ae0514610793578063715018a6146107a65780637153ef86146107ae5780637bf604d8146107c15780637ccfe8bc146107d457600080fd5b8063648794a41461072b57806367057b6c1461060357806367206d401461073e57806368f5416214610751578063693a090b1461075a5780636ca8bd651461076d57600080fd5b80635c975abb1161039a5780635c975abb146106c15780635da79d63146106cc5780635fc77d43146106df5780636183e804146106f257806361b5bf9f146107055780636392ab121461071857600080fd5b80634c5b09da146106755780634d9f7bb21461060357806355ebedec14610688578063567e07c91461069b578063583bda3b146106ae57600080fd5b8063211019d71161047a57806342da4eb31161043357806342da4eb31461062557806343788cd21461060357806344a3955e1461062e57806346008a07146106375780634b0e72161461064f5780634bf71bb81461066257600080fd5b8063211019d71461051e5780632209b59e146105f05780632717eff3146106035780633214471f1461060c57806336e9332d146106155780633f4ba83a1461061d57600080fd5b80630fa4e01e116104cc5780630fa4e01e1461059c5780631334903f146105a55780631755ff21146105ae578063178a8d07146105c15780631b0d8aab146105ca5780631e85b3ad146105dd57600080fd5b806305828d3e14610509578063061c7d481461051e5780630b6bb30b1461053a5780630bbd6cd61461054d5780630daef32114610578575b600080fd5b61051c61051736600461329d565b610ae1565b005b6105276103e881565b6040519081526020015b60405180910390f35b61051c6105483660046132c8565b610b36565b61056061055b3660046132e5565b610bbd565b6040516001600160a01b039091168152602001610531565b60cb5461058c90600160a81b900460ff1681565b6040519015158152602001610531565b61052760e15481565b61052760df5481565b60d854610560906001600160a01b031681565b61052760dd5481565b61051c6105d83660046132e5565b610be7565b6105606105eb3660046132e5565b610c16565b6105276105fe3660046132e5565b610c26565b61052761271081565b61052760de5481565b61051c610de9565b61051c610e13565b61052760e25481565b61052760e35481565b60cb546105609061010090046001600160a01b031681565b61051c61065d36600461329d565b610e4c565b6105606106703660046132e5565b610e98565b61051c61068336600461329d565b610ea8565b6105276106963660046132e5565b610ef4565b61051c6106a936600461329d565b6110b5565b61051c6106bc36600461329d565b611101565b60975460ff1661058c565b61051c6106da36600461329d565b61114d565b60cd54610560906001600160a01b031681565b61051c61070036600461329d565b611199565b61051c61071336600461329d565b6111e5565b6105606107263660046132e5565b611231565b6105276107393660046132fe565b611241565b61051c61074c366004613320565b6115b8565b61052760e05481565b60d954610560906001600160a01b031681565b61051c61077b36600461329d565b61168c565b60ef54610560906001600160a01b031681565b60d654610560906001600160a01b031681565b61051c6116d8565b61051c6107bc366004613362565b61170c565b60da54610560906001600160a01b031681565b61051c6107e23660046135c6565b6119d9565b60d154610560906001600160a01b031681565b6105606108083660046132e5565b611c55565b61051c61081b3660046132c8565b611c65565b61051c611ca2565b61052760dc5481565b61052761232881565b61051c61084836600461329d565b611cd9565b6033546001600160a01b0316610560565b61051c61086c36600461329d565b611d25565b61056061087f3660046132e5565b611d71565b60d454610560906001600160a01b031681565b6105606108a53660046132e5565b611d81565b60cf54610560906001600160a01b031681565b60f054610560906001600160a01b031681565b60f254610560906001600160a01b031681565b60f154610560906001600160a01b031681565b60ee54610560906001600160a01b031681565b60cc54610560906001600160a01b031681565b60d554610560906001600160a01b031681565b61051c61093d36600461329d565b611d91565b61051c61095036600461329d565b611ddd565b60d754610560906001600160a01b031681565b61051c61097636600461329d565b611e29565b61051c61098936600461329d565b611ec1565b61051c61099c36600461329d565b611f0d565b6105606109af3660046132e5565b611f59565b61051c6109c236600461329d565b611f69565b60d254610560906001600160a01b031681565b61051c6109e83660046137cd565b611fee565b6105276109fb3660046132fe565b612161565b61051c610a0e3660046132e5565b612593565b60d354610560906001600160a01b031681565b60d054610560906001600160a01b031681565b61051c610a4736600461329d565b61269a565b60db54610560906001600160a01b031681565b60c95461058c9060ff1681565b60cb5461058c9060ff1681565b61052760ca5481565b60ed54610560906001600160a01b031681565b61051c610aa336600461329d565b6126e6565b60ce54610560906001600160a01b031681565b610560610ac93660046132e5565b612781565b61051c610adc366004613806565b612791565b6033546001600160a01b03163314610b145760405162461bcd60e51b8152600401610b0b9061388e565b60405180910390fd5b60d280546001600160a01b0319166001600160a01b0392909216919091179055565b60cb5461010090046001600160a01b03163314610b655760405162461bcd60e51b8152600401610b0b906138c3565b60cb8054821515600160a81b0260ff60a81b199091161790556040517f125177ac7b8930dac1e59c2b30b1b6b9191b30af40cf6bbb5d20fec4d44be60f90610bb290831515815260200190565b60405180910390a150565b60e68181548110610bcd57600080fd5b6000918252602090912001546001600160a01b0316905081565b6033546001600160a01b03163314610c115760405162461bcd60e51b8152600401610b0b9061388e565b60ca55565b60e58181548110610bcd57600080fd5b60cc546000906001600160a01b0316336001600160a01b031614610c5c5760405162461bcd60e51b8152600401610b0b906138e1565b60026065541415610c7f5760405162461bcd60e51b8152600401610b0b9061390b565b600260655560975460ff1615610ca75760405162461bcd60e51b8152600401610b0b90613942565b60008211610cf75760405162461bcd60e51b815260206004820152601e60248201527f57616e7420746f6b656e206465706f736974206d757374206265203e203000006044820152606401610b0b565b60d054610d0f906001600160a01b0316333085612895565b60e254829015801590610d245750600060e354115b15610d5f57610d5c612710610d5660e254610d5660df54610d5060e3548a61290090919063ffffffff16565b90612900565b90612913565b90505b60e354610d6c908261291f565b60e35560d1546040516370a0823160e01b81523060048201526001600160a01b03909116906370a0823190602401602060405180830381865afa158015610db7573d6000803e3d6000fd5b505050506040513d601f19601f82011682018060405250810190610ddb919061396c565b60e255600160655592915050565b60026065541415610e0c5760405162461bcd60e51b8152600401610b0b9061390b565b6001606555565b60cb5461010090046001600160a01b03163314610e425760405162461bcd60e51b8152600401610b0b906138c3565b610e4a61292b565b565b6033546001600160a01b03163314610e765760405162461bcd60e51b8152600401610b0b9061388e565b60d680546001600160a01b0319166001600160a01b0392909216919091179055565b60ec8181548110610bcd57600080fd5b6033546001600160a01b03163314610ed25760405162461bcd60e51b8152600401610b0b9061388e565b60d480546001600160a01b0319166001600160a01b0392909216919091179055565b60cc546000906001600160a01b0316336001600160a01b031614610f2a5760405162461bcd60e51b8152600401610b0b906138e1565b60026065541415610f4d5760405162461bcd60e51b8152600401610b0b9061390b565b600260655581610f895760405162461bcd60e51b81526020600482015260076024820152661b9959d5d85b9d60ca1b6044820152606401610b0b565b6000610fa660e254610d5660e3548661290090919063ffffffff16565b905060e354811115610fb7575060e3545b60e354610fc490826129be565b60e35560e0546127101115610ff157610fee612710610d5660e0548661290090919063ffffffff16565b92505b60d0546040516370a0823160e01b81523060048201526000916001600160a01b0316906370a0823190602401602060405180830381865afa15801561103a573d6000803e3d6000fd5b505050506040513d601f19601f8201168201806040525081019061105e919061396c565b90508084111561106c578093505b8360e254101561107c5760e25493505b60e25461108990856129be565b60e25560cc5460d0546110a9916001600160a01b039182169116866129ca565b50600160655592915050565b6033546001600160a01b031633146110df5760405162461bcd60e51b8152600401610b0b9061388e565b60cd80546001600160a01b0319166001600160a01b0392909216919091179055565b6033546001600160a01b0316331461112b5760405162461bcd60e51b8152600401610b0b9061388e565b60ce80546001600160a01b0319166001600160a01b0392909216919091179055565b6033546001600160a01b031633146111775760405162461bcd60e51b8152600401610b0b9061388e565b60d980546001600160a01b0319166001600160a01b0392909216919091179055565b6033546001600160a01b031633146111c35760405162461bcd60e51b8152600401610b0b9061388e565b60d080546001600160a01b0319166001600160a01b0392909216919091179055565b6033546001600160a01b0316331461120f5760405162461bcd60e51b8152600401610b0b9061388e565b60da80546001600160a01b0319166001600160a01b0392909216919091179055565b60ea8181548110610bcd57600080fd5b60cc546000906001600160a01b0316336001600160a01b0316146112775760405162461bcd60e51b8152600401610b0b906138e1565b600083116112b15760405162461bcd60e51b81526020600482015260076024820152661b9959d5d85b9d60ca1b6044820152606401610b0b565b60d0546112c9906001600160a01b0316333086612895565b6040805160028082526060820183526000926020830190803683370190505060ed54909150611300906001600160a01b03166129fa565b8160008151811061131357611313613985565b602090810291909101015260f254611333906001600160a01b03166129fa565b8160018151811061134657611346613985565b602090810291909101015260408051600280825260608201909252600091816020016020820280368337505060d1546040805163313ce56760e01b815290519394506001600160a01b039091169263313ce567925060048083019260209291908290030181865afa1580156113bf573d6000803e3d6000fd5b505050506040513d601f19601f820116820180604052508101906113e3919061399b565b816000815181106113f6576113f6613985565b60ff90921660209283029190910182015260d5546040805163313ce56760e01b815290516001600160a01b039092169263313ce567926004808401938290030181865afa15801561144b573d6000803e3d6000fd5b505050506040513d601f19601f8201168201806040525081019061146f919061399b565b8160018151811061148257611482613985565b60ff9092166020928302919091019091015260d95460d1546114b1916001600160a01b03918216911687612b3a565b61154185838660e680548060200260200160405190810160405280929190818152602001828054801561150d57602002820191906000526020600020905b81546001600160a01b031681526001909101906020018083116114ef575b505050505085336115296102584261291f90919063ffffffff16565b60d9546001600160a01b031696959493929190612bec565b60d5546040516370a0823160e01b81523360048201526001600160a01b03909116906370a0823190602401602060405180830381865afa158015611589573d6000803e3d6000fd5b505050506040513d601f19601f820116820180604052508101906115ad919061396c565b925050505b92915050565b60cb5461010090046001600160a01b031633146115e75760405162461bcd60e51b8152600401610b0b906138c3565b60d3546001600160a01b038481169116141561162d5760405162461bcd60e51b8152602060048201526005602482015264217361666560d81b6044820152606401610b0b565b60d0546001600160a01b03848116911614156116735760405162461bcd60e51b8152602060048201526005602482015264217361666560d81b6044820152606401610b0b565b6116876001600160a01b03841682846129ca565b505050565b6033546001600160a01b031633146116b65760405162461bcd60e51b8152600401610b0b9061388e565b60cf80546001600160a01b0319166001600160a01b0392909216919091179055565b6033546001600160a01b031633146117025760405162461bcd60e51b8152600401610b0b9061388e565b610e4a6000612d3e565b60cb5461010090046001600160a01b0316331461173b5760405162461bcd60e51b8152600401610b0b906138c3565b61232885101561178d5760405162461bcd60e51b815260206004820152601a60248201527f5f656e7472616e6365466565466163746f7220746f6f206c6f770000000000006044820152606401610b0b565b6127108511156117df5760405162461bcd60e51b815260206004820152601b60248201527f5f656e7472616e6365466565466163746f7220746f6f206869676800000000006044820152606401610b0b565b60df8590556123288410156118365760405162461bcd60e51b815260206004820152601a60248201527f5f7769746864726177466565466163746f7220746f6f206c6f770000000000006044820152606401610b0b565b6127108411156118885760405162461bcd60e51b815260206004820152601b60248201527f5f7769746864726177466565466163746f7220746f6f206869676800000000006044820152606401610b0b565b60e08490556103e88311156118df5760405162461bcd60e51b815260206004820152601760248201527f5f636f6e74726f6c6c657246656520746f6f20686967680000000000000000006044820152606401610b0b565b60dc8390556103e882111561192e5760405162461bcd60e51b81526020600482015260156024820152740bec4eaf284c2c6d6a4c2e8ca40e8dede40d0d2ced605b1b6044820152606401610b0b565b60dd8290556103e881111561197e5760405162461bcd60e51b81526020600482015260166024820152750bee4caeca6d0c2e4caa4c2e8ca40e8dede40d0d2ced60531b6044820152606401610b0b565b60de819055604080518681526020810186905290810184905260608101839052608081018290527fc67e0b149a57a70fa44a531a46c2c6d8e0b242fa12f459f250012c3a5987d29a9060a00160405180910390a15050505050565b600054610100900460ff166119f45760005460ff16156119f8565b303b155b611a145760405162461bcd60e51b8152600401610b0b906139b8565b600054610100900460ff16158015611a36576000805461ffff19166101011790555b815160ca5560c98054600160ff19909116179055602080830151805160cb8054600160a81b610100600160b01b03199091166101006001600160a01b039485160260ff60a81b1916171790558183015160cc80546001600160a01b031990811692841692909217905560408084015160cd8054841691851691909117905560608085015160ce8054851691861691909117905560a085015160d08054851691861691909117905560c085015160d18054851691861691909117905561014085015160d78054851691861691909117905561018085015160d9805485169186169190911790556101e09094015160d58054909316931692909217905581850151805160dc558084015160dd558082015160de559182015160df5560809091015160e0558301518051611b6b9260e49201906131ab565b506040516345a62d7760e11b815273__VaultLibrary__________________________90638b4c5aee90611ba49060e490600401613a06565b600060405180830381865af4158015611bc1573d6000803e3d6000fd5b505050506040513d6000823e601f3d908101601f19168201604052611be99190810190613a56565b8051611bfd9160e6916020909101906131ab565b506080820151805160ed80546001600160a01b03199081166001600160a01b039384161790915560a09092015160f280549093169116179055611c3f83611e29565b8015611687576000805461ff0019169055505050565b60e48181548110610bcd57600080fd5b6033546001600160a01b03163314611c8f5760405162461bcd60e51b8152600401610b0b9061388e565b60cb805460ff1916911515919091179055565b60cb5461010090046001600160a01b03163314611cd15760405162461bcd60e51b8152600401610b0b906138c3565b610e4a612d90565b6033546001600160a01b03163314611d035760405162461bcd60e51b8152600401610b0b9061388e565b60d780546001600160a01b0319166001600160a01b0392909216919091179055565b6033546001600160a01b03163314611d4f5760405162461bcd60e51b8152600401610b0b9061388e565b60db80546001600160a01b0319166001600160a01b0392909216919091179055565b60e98181548110610bcd57600080fd5b60e78181548110610bcd57600080fd5b6033546001600160a01b03163314611dbb5760405162461bcd60e51b8152600401610b0b9061388e565b60d380546001600160a01b0319166001600160a01b0392909216919091179055565b6033546001600160a01b03163314611e075760405162461bcd60e51b8152600401610b0b9061388e565b60cc80546001600160a01b0319166001600160a01b0392909216919091179055565b600054610100900460ff16611e445760005460ff1615611e48565b303b155b611e645760405162461bcd60e51b8152600401610b0b906139b8565b600054610100900460ff16158015611e86576000805461ffff19166101011790555b611e8e612de8565b611e97826126e6565b60d680546001600160a01b03191661dead1790558015611ebd576000805461ff00191690555b5050565b6033546001600160a01b03163314611eeb5760405162461bcd60e51b8152600401610b0b9061388e565b60d580546001600160a01b0319166001600160a01b0392909216919091179055565b6033546001600160a01b03163314611f375760405162461bcd60e51b8152600401610b0b9061388e565b60d180546001600160a01b0319166001600160a01b0392909216919091179055565b60e88181548110610bcd57600080fd5b60cb5461010090046001600160a01b03163314611f985760405162461bcd60e51b8152600401610b0b906138c3565b60cb8054610100600160a81b0319166101006001600160a01b038416908102919091179091556040519081527f91a8c1cc2d4a3bb60738481947a00cbb9899c822916694cf8bb1d68172fdcd5490602001610bb2565b6033546001600160a01b031633146120185760405162461bcd60e51b8152600401610b0b9061388e565b60ff82166120415760ed80546001600160a01b0383166001600160a01b03199091161790555050565b8160ff166001141561206e5760ee80546001600160a01b0383166001600160a01b03199091161790555050565b8160ff166002141561209b5760ef80546001600160a01b0383166001600160a01b03199091161790555050565b8160ff16600314156120c85760f180546001600160a01b0383166001600160a01b03199091161790555050565b8160ff16600414156120f55760f080546001600160a01b0383166001600160a01b03199091161790555050565b8160ff16600514156121225760f280546001600160a01b0383166001600160a01b03199091161790555050565b60405162461bcd60e51b81526020600482015260146024820152730eadce6eae0e0dee4e8cac840cccacac840d2c8f60631b6044820152606401610b0b565b60cc546000906001600160a01b0316336001600160a01b0316146121975760405162461bcd60e51b8152600401610b0b906138e1565b60975460ff16156121ba5760405162461bcd60e51b8152600401610b0b90613942565b60d5546040516370a0823160e01b81523060048201526000916001600160a01b0316906370a0823190602401602060405180830381865afa158015612203573d6000803e3d6000fd5b505050506040513d601f19601f82011682018060405250810190612227919061396c565b9050600084116122625760405162461bcd60e51b815260206004820152600660248201526506465703c3d360d41b6044820152606401610b0b565b8084111561229c5760405162461bcd60e51b8152602060048201526007602482015266185b5d0f98985b60ca1b6044820152606401610b0b565b6040805160028082526060820183526000926020830190803683370190505060f2549091506122d3906001600160a01b03166129fa565b816000815181106122e6576122e6613985565b602090810291909101015260ed54612306906001600160a01b03166129fa565b8160018151811061231957612319613985565b602090810291909101015260408051600280825260608201909252600091816020016020820280368337505060d5546040805163313ce56760e01b815290519394506001600160a01b039091169263313ce567925060048083019260209291908290030181865afa158015612392573d6000803e3d6000fd5b505050506040513d601f19601f820116820180604052508101906123b6919061399b565b816000815181106123c9576123c9613985565b60ff90921660209283029190910182015260d1546040805163313ce56760e01b815290516001600160a01b039092169263313ce567926004808401938290030181865afa15801561241e573d6000803e3d6000fd5b505050506040513d601f19601f82011682018060405250810190612442919061399b565b8160018151811061245557612455613985565b60ff9092166020928302919091019091015260d95460d554612484916001600160a01b03918216911688612b3a565b6124fc86838760e48054806020026020016040519081016040528092919081815260200182805480156124e057602002820191906000526020600020905b81546001600160a01b031681526001909101906020018083116124c2575b505050505085306115296102584261291f90919063ffffffff16565b60d0546040516370a0823160e01b81523060048201526000916001600160a01b0316906370a0823190602401602060405180830381865afa158015612545573d6000803e3d6000fd5b505050506040513d601f19601f82011682018060405250810190612569919061396c565b60cc5460d054919250612589916001600160a01b039081169116836129ca565b9695505050505050565b600260655414156125b65760405162461bcd60e51b8152600401610b0b9061390b565b600260655560975460ff16156125de5760405162461bcd60e51b8152600401610b0b90613942565b60cb54600160a81b900460ff161561261f5760cb5461010090046001600160a01b0316331461261f5760405162461bcd60e51b8152600401610b0b906138c3565b4360e15560d1546040516370a0823160e01b81523060048201526001600160a01b03909116906370a0823190602401602060405180830381865afa15801561266b573d6000803e3d6000fd5b505050506040513d601f19601f8201168201806040525081019061268f919061396c565b60e255506001606555565b6033546001600160a01b031633146126c45760405162461bcd60e51b8152600401610b0b9061388e565b60d880546001600160a01b0319166001600160a01b0392909216919091179055565b6033546001600160a01b031633146127105760405162461bcd60e51b8152600401610b0b9061388e565b6001600160a01b0381166127755760405162461bcd60e51b815260206004820152602660248201527f4f776e61626c653a206e6577206f776e657220697320746865207a65726f206160448201526564647265737360d01b6064820152608401610b0b565b61277e81612d3e565b50565b60eb8181548110610bcd57600080fd5b6033546001600160a01b031633146127bb5760405162461bcd60e51b8152600401610b0b9061388e565b60ff83166127d5576127cf60e48383613210565b50505050565b8260ff16600114156127ed576127cf60e58383613210565b8260ff1660021415612805576127cf60e68383613210565b8260ff166003141561281d576127cf60e78383613210565b8260ff1660041415612835576127cf60e88383613210565b8260ff166005141561284d576127cf60e98383613210565b8260ff1660061415612865576127cf60ea8383613210565b8260ff166007141561287d576127cf60eb8383613210565b8260ff1660081415612122576127cf60ec8383613210565b6040516001600160a01b03808516602483015283166044820152606481018290526127cf9085906323b872dd60e01b906084015b60408051601f198184030181529190526020810180516001600160e01b03166001600160e01b031990931692909217909152612e17565b600061290c8284613afb565b9392505050565b600061290c8284613b1a565b600061290c8284613b3c565b60975460ff166129745760405162461bcd60e51b815260206004820152601460248201527314185d5cd8589b194e881b9bdd081c185d5cd95960621b6044820152606401610b0b565b6097805460ff191690557f5db9ee0a495bf2e6ff9c91a7834c1ba4fdd244a5e8aa4e537bd38aeae4b073aa335b6040516001600160a01b03909116815260200160405180910390a1565b600061290c8284613b54565b6040516001600160a01b03831660248201526044810182905261168790849063a9059cbb60e01b906064016128c9565b600080826001600160a01b031663313ce5676040518163ffffffff1660e01b8152600401602060405180830381865afa158015612a3b573d6000803e3d6000fd5b505050506040513d601f19601f82011682018060405250810190612a5f919061399b565b90506000836001600160a01b031663feaf968c6040518163ffffffff1660e01b815260040160a060405180830381865afa158015612aa1573d6000803e3d6000fd5b505050506040513d601f19601f82011682018060405250810190612ac59190613b85565b5050509150506000811215612b155760405162461bcd60e51b81526020600482015260166024820152751b9959c81c1c9a58d95cc81b9bdd08185b1b1bddd95960521b6044820152606401610b0b565b612b32612b2383600a613cb9565b610d568364e8d4a51000612900565b949350505050565b604051636eb1769f60e11b81523060048201526001600160a01b038381166024830152600091839186169063dd62ed3e90604401602060405180830381865afa158015612b8b573d6000803e3d6000fd5b505050506040513d601f19601f82011682018060405250810190612baf919061396c565b612bb99190613b3c565b6040516001600160a01b0385166024820152604481018290529091506127cf90859063095ea7b360e01b906064016128c9565b8251600214612c2b5760405162461bcd60e51b815260206004820152600b60248201526a696e76616c69642064656360a81b6044820152606401610b0b565b600086600081518110612c4057612c40613985565b602002602001015160001480612c70575086600181518110612c6457612c64613985565b60200260200101516000145b15612c8957612c828989878988612ee9565b9050612ccd565b612cca8888600081518110612ca057612ca0613985565b602002602001015189600181518110612cbb57612cbb613985565b60200260200101518988613006565b90505b604051635c11d79560e01b81526001600160a01b038a1690635c11d79590612d01908b9085908a9089908990600401613d0c565b600060405180830381600087803b158015612d1b57600080fd5b505af1158015612d2f573d6000803e3d6000fd5b50505050505050505050505050565b603380546001600160a01b038381166001600160a01b0319831681179093556040519116919082907f8be0079c531659141344cd1fd0a4f28419497f9722a3daafe3b4186f6b6457e090600090a35050565b60975460ff1615612db35760405162461bcd60e51b8152600401610b0b90613942565b6097805460ff191660011790557f62e78cea01bee320cd4e420270b5ea74000d11b0c9f74754ebdbfc544b05a2586129a13390565b600054610100900460ff16612e0f5760405162461bcd60e51b8152600401610b0b90613d48565b610e4a613077565b6000612e6c826040518060400160405280602081526020017f5361666545524332303a206c6f772d6c6576656c2063616c6c206661696c6564815250856001600160a01b03166130a79092919063ffffffff16565b8051909150156116875780806020019051810190612e8a9190613d93565b6116875760405162461bcd60e51b815260206004820152602a60248201527f5361666545524332303a204552433230206f7065726174696f6e20646964206e6044820152691bdd081cdd58d8d9595960b21b6064820152608401610b0b565b600080866001600160a01b031663d06ca61f87876040518363ffffffff1660e01b8152600401612f1a929190613db0565b600060405180830381865afa158015612f37573d6000803e3d6000fd5b505050506040513d6000823e601f3d908101601f19168201604052612f5f9190810190613dc9565b9050612ffb612f916103e885600081518110612f7d57612f7d613985565b6020026020010151600a610d509190613cb9565b610d5685600181518110612fa757612fa7613985565b6020026020010151600a612fbb9190613cb9565b610d508886612fd5600189516129be90919063ffffffff16565b81518110612fe557612fe5613985565b602002602001015161290090919063ffffffff16565b979650505050505050565b60006125896130418360008151811061302157613021613985565b6020026020010151600a6130359190613cb9565b610d50876103e8612900565b610d568460018151811061305757613057613985565b6020026020010151600a61306b9190613cb9565b610d5087818c8c612900565b600054610100900460ff1661309e5760405162461bcd60e51b8152600401610b0b90613d48565b610e4a33612d3e565b6060612b328484600085856001600160a01b0385163b6131095760405162461bcd60e51b815260206004820152601d60248201527f416464726573733a2063616c6c20746f206e6f6e2d636f6e74726163740000006044820152606401610b0b565b600080866001600160a01b031685876040516131259190613e7b565b60006040518083038185875af1925050503d8060008114613162576040519150601f19603f3d011682016040523d82523d6000602084013e613167565b606091505b5091509150612ffb8282866060831561318157508161290c565b8251156131915782518084602001fd5b8160405162461bcd60e51b8152600401610b0b9190613e97565b828054828255906000526020600020908101928215613200579160200282015b8281111561320057825182546001600160a01b0319166001600160a01b039091161782556020909201916001909101906131cb565b5061320c929150613263565b5090565b828054828255906000526020600020908101928215613200579160200282015b828111156132005781546001600160a01b0319166001600160a01b03843516178255602090920191600190910190613230565b5b8082111561320c5760008155600101613264565b6001600160a01b038116811461277e57600080fd5b803561329881613278565b919050565b6000602082840312156132af57600080fd5b813561290c81613278565b801515811461277e57600080fd5b6000602082840312156132da57600080fd5b813561290c816132ba565b6000602082840312156132f757600080fd5b5035919050565b6000806040838503121561331157600080fd5b50508035926020909101359150565b60008060006060848603121561333557600080fd5b833561334081613278565b925060208401359150604084013561335781613278565b809150509250925092565b600080600080600060a0868803121561337a57600080fd5b505083359560208501359550604085013594606081013594506080013592509050565b634e487b7160e01b600052604160045260246000fd5b60405160a0810167ffffffffffffffff811182821017156133d6576133d661339d565b60405290565b604051610200810167ffffffffffffffff811182821017156133d6576133d661339d565b604051601f8201601f1916810167ffffffffffffffff811182821017156134295761342961339d565b604052919050565b600067ffffffffffffffff82111561344b5761344b61339d565b5060051b60200190565b600082601f83011261346657600080fd5b8135602061347b61347683613431565b613400565b82815260059290921b8401810191818101908684111561349a57600080fd5b8286015b848110156134be5780356134b181613278565b835291830191830161349e565b509695505050505050565b600060a082840312156134db57600080fd5b6134e36133b3565b9050813581526020820135602082015260408201356040820152606082013560608201526080820135608082015292915050565b600060c0828403121561352957600080fd5b60405160c0810181811067ffffffffffffffff8211171561354c5761354c61339d565b604052905080823561355d81613278565b8152602083013561356d81613278565b6020820152604083013561358081613278565b6040820152606083013561359381613278565b606082015260808301356135a681613278565b608082015260a08301356135b981613278565b60a0919091015292915050565b600080604083850312156135d957600080fd5b82356135e481613278565b9150602083013567ffffffffffffffff8082111561360157600080fd5b908401908186036103a081121561361757600080fd5b61361f6133b3565b8335815261020080601f198401121561363757600080fd5b61363f6133dc565b925061364d6020860161328d565b835261365b6040860161328d565b602084015261366c6060860161328d565b604084015261367d6080860161328d565b606084015261368e60a0860161328d565b608084015261369f60c0860161328d565b60a08401526136b060e0860161328d565b60c08401526101006136c381870161328d565b60e08501526101206136d681880161328d565b8286015261014091506136ea82880161328d565b908501526101606136fc87820161328d565b82860152610180915061371082880161328d565b908501526101a061372287820161328d565b828601526101c0915061373682880161328d565b908501526101e061374887820161328d565b8286015261375783880161328d565b8186015250505081602082015261022084013591508282111561377957600080fd5b61378588838601613455565b60408201526137988861024086016134c9565b60608201526137ab886102e08601613517565b6080820152809450505050509250929050565b60ff8116811461277e57600080fd5b600080604083850312156137e057600080fd5b82356137eb816137be565b915060208301356137fb81613278565b809150509250929050565b60008060006040848603121561381b57600080fd5b8335613826816137be565b9250602084013567ffffffffffffffff8082111561384357600080fd5b818601915086601f83011261385757600080fd5b81358181111561386657600080fd5b8760208260051b850101111561387b57600080fd5b6020830194508093505050509250925092565b6020808252818101527f4f776e61626c653a2063616c6c6572206973206e6f7420746865206f776e6572604082015260600190565b60208082526004908201526310b3b7bb60e11b604082015260600190565b60208082526010908201526f10bd37b93937a1b7b73a3937b63632b960811b604082015260600190565b6020808252601f908201527f5265656e7472616e637947756172643a207265656e7472616e742063616c6c00604082015260600190565b60208082526010908201526f14185d5cd8589b194e881c185d5cd95960821b604082015260600190565b60006020828403121561397e57600080fd5b5051919050565b634e487b7160e01b600052603260045260246000fd5b6000602082840312156139ad57600080fd5b815161290c816137be565b6020808252602e908201527f496e697469616c697a61626c653a20636f6e747261637420697320616c72656160408201526d191e481a5b9a5d1a585b1a5e995960921b606082015260800190565b6020808252825482820181905260008481528281209092916040850190845b81811015613a4a5783546001600160a01b031683526001938401939285019201613a25565b50909695505050505050565b60006020808385031215613a6957600080fd5b825167ffffffffffffffff811115613a8057600080fd5b8301601f81018513613a9157600080fd5b8051613a9f61347682613431565b81815260059190911b82018301908381019087831115613abe57600080fd5b928401925b82841015612ffb578351613ad681613278565b82529284019290840190613ac3565b634e487b7160e01b600052601160045260246000fd5b6000816000190483118215151615613b1557613b15613ae5565b500290565b600082613b3757634e487b7160e01b600052601260045260246000fd5b500490565b60008219821115613b4f57613b4f613ae5565b500190565b600082821015613b6657613b66613ae5565b500390565b805169ffffffffffffffffffff8116811461329857600080fd5b600080600080600060a08688031215613b9d57600080fd5b613ba686613b6b565b9450602086015193506040860151925060608601519150613bc960808701613b6b565b90509295509295909350565b600181815b80851115613c10578160001904821115613bf657613bf6613ae5565b80851615613c0357918102915b93841c9390800290613bda565b509250929050565b600082613c27575060016115b2565b81613c34575060006115b2565b8160018114613c4a5760028114613c5457613c70565b60019150506115b2565b60ff841115613c6557613c65613ae5565b50506001821b6115b2565b5060208310610133831016604e8410600b8410161715613c93575081810a6115b2565b613c9d8383613bd5565b8060001904821115613cb157613cb1613ae5565b029392505050565b600061290c60ff841683613c18565b600081518084526020808501945080840160005b83811015613d015781516001600160a01b031687529582019590820190600101613cdc565b509495945050505050565b85815284602082015260a060408201526000613d2b60a0830186613cc8565b6001600160a01b0394909416606083015250608001529392505050565b6020808252602b908201527f496e697469616c697a61626c653a20636f6e7472616374206973206e6f74206960408201526a6e697469616c697a696e6760a81b606082015260800190565b600060208284031215613da557600080fd5b815161290c816132ba565b828152604060208201526000612b326040830184613cc8565b60006020808385031215613ddc57600080fd5b825167ffffffffffffffff811115613df357600080fd5b8301601f81018513613e0457600080fd5b8051613e1261347682613431565b81815260059190911b82018301908381019087831115613e3157600080fd5b928401925b82841015612ffb57835182529284019290840190613e36565b60005b83811015613e6a578181015183820152602001613e52565b838111156127cf5750506000910152565b60008251613e8d818460208701613e4f565b9190910192915050565b6020815260008251806020840152613eb6816040850160208701613e4f565b601f01601f1916919091016040019291505056fea2646970667358221220a5ca01d5e4cda65ddd9d1a7731a2c0866040de45d3c48be1d7b9e748ce56b2dc64736f6c634300080a0033",
  "immutableReferences": {},
  "source": "// SPDX-License-Identifier: MIT\n\npragma solidity ^0.8.0;\n\nimport \"../VaultZorro.sol\";\n\ncontract MockVaultZorro is VaultZorro {\n\n}",
  "sourcePath": "/Users/kristophm/Documents/workspace/zorro-protocol/contracts/vaults/mocks/MockVaultZorro.sol",
  "compiler": {
    "name": "solc",
    "version": "0.8.10+commit.fc410830.Emscripten.clang"
  },
  "schemaVersion": "3.4.4",
  "updatedAt": "2022-11-03T02:44:36.288Z",
  "devdoc": {
    "kind": "dev",
    "methods": {
      "depositWantToken(uint256)": {
        "params": {
          "_wantAmt": "amount of Want token to deposit/stake"
        },
        "returns": {
          "_0": "uint256 Number of shares added"
        }
      },
      "earn(uint256)": {
        "params": {
          "_maxMarketMovementAllowed": "The max slippage allowed. (included here just to implement interface; otherwise unused)"
        }
      },
      "exchangeUSDForWantToken(uint256,uint256)": {
        "params": {
          "_amountUSD": "The USD quantity to exchange",
          "_maxMarketMovementAllowed": "The max slippage allowed. 1000 = 0 %, 995 = 0.5%, etc."
        },
        "returns": {
          "_0": "uint256 Amount of Want token obtained"
        }
      },
      "exchangeWantTokenForUSD(uint256,uint256)": {
        "params": {
          "_amount": "The Want token quantity to exchange",
          "_maxMarketMovementAllowed": "The max slippage allowed for swaps. (included here just to implement interface; otherwise unused)"
        },
        "returns": {
          "_0": "uint256 Amount of  token obtained"
        }
      },
      "inCaseTokensGetStuck(address,uint256,address)": {
        "params": {
          "_amount": "The amount of the tokens to transfer",
          "_to": "The address to transfer tokens to",
          "_token": "Address of the ERC20 token to transfer"
        }
      },
      "initialize(address,(uint256,(address,address,address,address,address,address,address,address,address,address,address,address,address,address,address,address),address[],(uint256,uint256,uint256,uint256,uint256),(address,address,address,address,address,address)))": {
        "details": "NOTE: Only to be deployed on home chain!",
        "params": {
          "_initValue": "A VaultZorroInit struct that contains all constructor args",
          "_timelockOwner": "The designated timelock controller address to act as owner"
        }
      },
      "owner()": {
        "details": "Returns the address of the current owner."
      },
      "paused()": {
        "details": "Returns true if the contract is paused, and false otherwise."
      },
      "renounceOwnership()": {
        "details": "Leaves the contract without owner. It will not be possible to call `onlyOwner` functions anymore. Can only be called by the current owner. NOTE: Renouncing ownership will leave the contract without an owner, thereby removing any functionality that is only available to the owner."
      },
      "setFeeSettings(uint256,uint256,uint256,uint256,uint256)": {
        "params": {
          "_buyBackRate": "Buy back rate fee numerator",
          "_controllerFee": "Controller fee numerator",
          "_entranceFeeFactor": "Entrance fee numerator (higher means smaller percentage)",
          "_revShareRate": "Rev share rate fee numerator",
          "_withdrawFeeFactor": "Withdrawal fee numerator (higher means smaller percentage)"
        }
      },
      "setGov(address)": {
        "params": {
          "_govAddress": "The new gov address"
        }
      },
      "setOnlyGov(bool)": {
        "params": {
          "_onlyGov": "whether onlyGov should be enforced"
        }
      },
      "transferOwnership(address)": {
        "details": "Transfers ownership of the contract to a new account (`newOwner`). Can only be called by the current owner."
      },
      "withdrawWantToken(uint256)": {
        "params": {
          "_wantAmt": "The amount of Want token to withdraw"
        },
        "returns": {
          "_0": "uint256 the number of shares removed"
        }
      }
    },
    "version": 1
  },
  "userdoc": {
    "kind": "user",
    "methods": {
      "depositWantToken(uint256)": {
        "notice": "Receives new deposits from user"
      },
      "earn(uint256)": {
        "notice": "The main compounding (earn) function. Reinvests profits since the last earn event."
      },
      "exchangeUSDForWantToken(uint256,uint256)": {
        "notice": "Performs necessary operations to convert USD into Want token"
      },
      "exchangeWantTokenForUSD(uint256,uint256)": {
        "notice": "Converts Want token back into USD to be ready for withdrawal"
      },
      "farm()": {
        "notice": "Public function for farming Want token."
      },
      "inCaseTokensGetStuck(address,uint256,address)": {
        "notice": "Safely transfer ERC20 tokens stuck in this contract to a specified address"
      },
      "initialize(address,(uint256,(address,address,address,address,address,address,address,address,address,address,address,address,address,address,address,address),address[],(uint256,uint256,uint256,uint256,uint256),(address,address,address,address,address,address)))": {
        "notice": "Upgradeable constructor"
      },
      "pause()": {
        "notice": "Pause contract"
      },
      "setFeeSettings(uint256,uint256,uint256,uint256,uint256)": {
        "notice": "Configure key fee parameters"
      },
      "setGov(address)": {
        "notice": "Set governor address"
      },
      "setOnlyGov(bool)": {
        "notice": "Set onlyGov property"
      },
      "unpause()": {
        "notice": "Unpause contract"
      },
      "withdrawWantToken(uint256)": {
        "notice": "Withdraw Want tokens from the Farm contract"
      }
    },
    "version": 1
  }
}