{
  "contractName": "MockVaultAcryptosSingle",
  "abi": [
    {
      "anonymous": false,
      "inputs": [
        {
          "indexed": true,
          "internalType": "uint256",
          "name": "_amount",
          "type": "uint256"
        }
      ],
      "name": "Buyback",
      "type": "event"
    },
    {
      "anonymous": false,
      "inputs": [
        {
          "indexed": true,
          "internalType": "address",
          "name": "previousOwner",
          "type": "address"
        },
        {
          "indexed": true,
          "internalType": "address",
          "name": "newOwner",
          "type": "address"
        }
      ],
      "name": "OwnershipTransferred",
      "type": "event"
    },
    {
      "anonymous": false,
      "inputs": [
        {
          "indexed": false,
          "internalType": "address",
          "name": "account",
          "type": "address"
        }
      ],
      "name": "Paused",
      "type": "event"
    },
    {
      "anonymous": false,
      "inputs": [
        {
          "indexed": true,
          "internalType": "uint256",
          "name": "_amount",
          "type": "uint256"
        }
      ],
      "name": "RevShare",
      "type": "event"
    },
    {
      "anonymous": false,
      "inputs": [
        {
          "indexed": false,
          "internalType": "address",
          "name": "_govAddress",
          "type": "address"
        }
      ],
      "name": "SetGov",
      "type": "event"
    },
    {
      "anonymous": false,
      "inputs": [
        {
          "indexed": false,
          "internalType": "bool",
          "name": "_onlyGov",
          "type": "bool"
        }
      ],
      "name": "SetOnlyGov",
      "type": "event"
    },
    {
      "anonymous": false,
      "inputs": [
        {
          "indexed": false,
          "internalType": "address",
          "name": "_rewardsAddress",
          "type": "address"
        }
      ],
      "name": "SetRewardsAddress",
      "type": "event"
    },
    {
      "anonymous": false,
      "inputs": [
        {
          "indexed": false,
          "internalType": "uint256",
          "name": "_entranceFeeFactor",
          "type": "uint256"
        },
        {
          "indexed": false,
          "internalType": "uint256",
          "name": "_withdrawFeeFactor",
          "type": "uint256"
        },
        {
          "indexed": false,
          "internalType": "uint256",
          "name": "_controllerFee",
          "type": "uint256"
        },
        {
          "indexed": false,
          "internalType": "uint256",
          "name": "_buyBackRate",
          "type": "uint256"
        },
        {
          "indexed": false,
          "internalType": "uint256",
          "name": "_revShareRate",
          "type": "uint256"
        }
      ],
      "name": "SetSettings",
      "type": "event"
    },
    {
      "anonymous": false,
      "inputs": [
        {
          "indexed": false,
          "internalType": "address",
          "name": "_uniRouterAddress",
          "type": "address"
        }
      ],
      "name": "SetUniRouterAddress",
      "type": "event"
    },
    {
      "anonymous": false,
      "inputs": [
        {
          "indexed": false,
          "internalType": "address",
          "name": "account",
          "type": "address"
        }
      ],
      "name": "Unpaused",
      "type": "event"
    },
    {
      "inputs": [
        {
          "internalType": "uint256",
          "name": "",
          "type": "uint256"
        }
      ],
      "name": "BUSDToLPPoolOtherTokenPath",
      "outputs": [
        {
          "internalType": "address",
          "name": "",
          "type": "address"
        }
      ],
      "stateMutability": "view",
      "type": "function"
    },
    {
      "inputs": [
        {
          "internalType": "uint256",
          "name": "",
          "type": "uint256"
        }
      ],
      "name": "BUSDToToken0Path",
      "outputs": [
        {
          "internalType": "address",
          "name": "",
          "type": "address"
        }
      ],
      "stateMutability": "view",
      "type": "function"
    },
    {
      "inputs": [
        {
          "internalType": "uint256",
          "name": "",
          "type": "uint256"
        }
      ],
      "name": "BUSDToZORROPath",
      "outputs": [
        {
          "internalType": "address",
          "name": "",
          "type": "address"
        }
      ],
      "stateMutability": "view",
      "type": "function"
    },
    {
      "inputs": [
        {
          "internalType": "uint256",
          "name": "",
          "type": "uint256"
        }
      ],
      "name": "USDCToToken0Path",
      "outputs": [
        {
          "internalType": "address",
          "name": "",
          "type": "address"
        }
      ],
      "stateMutability": "view",
      "type": "function"
    },
    {
      "inputs": [
        {
          "internalType": "uint256",
          "name": "",
          "type": "uint256"
        }
      ],
      "name": "USDCToToken1Path",
      "outputs": [
        {
          "internalType": "address",
          "name": "",
          "type": "address"
        }
      ],
      "stateMutability": "view",
      "type": "function"
    },
    {
      "inputs": [],
      "name": "ZORPriceFeed",
      "outputs": [
        {
          "internalType": "contract AggregatorV3Interface",
          "name": "",
          "type": "address"
        }
      ],
      "stateMutability": "view",
      "type": "function"
    },
    {
      "inputs": [],
      "name": "ZORROAddress",
      "outputs": [
        {
          "internalType": "address",
          "name": "",
          "type": "address"
        }
      ],
      "stateMutability": "view",
      "type": "function"
    },
    {
      "inputs": [],
      "name": "balancerACSWeightBasisPoints",
      "outputs": [
        {
          "internalType": "uint256",
          "name": "",
          "type": "uint256"
        }
      ],
      "stateMutability": "view",
      "type": "function"
    },
    {
      "inputs": [],
      "name": "balancerBUSDWeightBasisPoints",
      "outputs": [
        {
          "internalType": "uint256",
          "name": "",
          "type": "uint256"
        }
      ],
      "stateMutability": "view",
      "type": "function"
    },
    {
      "inputs": [],
      "name": "balancerPool",
      "outputs": [
        {
          "internalType": "bytes32",
          "name": "",
          "type": "bytes32"
        }
      ],
      "stateMutability": "view",
      "type": "function"
    },
    {
      "inputs": [],
      "name": "balancerVaultAddress",
      "outputs": [
        {
          "internalType": "address",
          "name": "",
          "type": "address"
        }
      ],
      "stateMutability": "view",
      "type": "function"
    },
    {
      "inputs": [],
      "name": "burnAddress",
      "outputs": [
        {
          "internalType": "address",
          "name": "",
          "type": "address"
        }
      ],
      "stateMutability": "view",
      "type": "function"
    },
    {
      "inputs": [],
      "name": "buyBackRate",
      "outputs": [
        {
          "internalType": "uint256",
          "name": "",
          "type": "uint256"
        }
      ],
      "stateMutability": "view",
      "type": "function"
    },
    {
      "inputs": [],
      "name": "buyBackRateMax",
      "outputs": [
        {
          "internalType": "uint256",
          "name": "",
          "type": "uint256"
        }
      ],
      "stateMutability": "view",
      "type": "function"
    },
    {
      "inputs": [],
      "name": "buyBackRateUL",
      "outputs": [
        {
          "internalType": "uint256",
          "name": "",
          "type": "uint256"
        }
      ],
      "stateMutability": "view",
      "type": "function"
    },
    {
      "inputs": [],
      "name": "controllerFee",
      "outputs": [
        {
          "internalType": "uint256",
          "name": "",
          "type": "uint256"
        }
      ],
      "stateMutability": "view",
      "type": "function"
    },
    {
      "inputs": [],
      "name": "controllerFeeMax",
      "outputs": [
        {
          "internalType": "uint256",
          "name": "",
          "type": "uint256"
        }
      ],
      "stateMutability": "view",
      "type": "function"
    },
    {
      "inputs": [],
      "name": "controllerFeeUL",
      "outputs": [
        {
          "internalType": "uint256",
          "name": "",
          "type": "uint256"
        }
      ],
      "stateMutability": "view",
      "type": "function"
    },
    {
      "inputs": [
        {
          "internalType": "uint256",
          "name": "_wantAmt",
          "type": "uint256"
        }
      ],
      "name": "depositWantToken",
      "outputs": [
        {
          "internalType": "uint256",
          "name": "sharesAdded",
          "type": "uint256"
        }
      ],
      "stateMutability": "nonpayable",
      "type": "function"
    },
    {
      "inputs": [
        {
          "internalType": "uint256",
          "name": "_maxMarketMovementAllowed",
          "type": "uint256"
        }
      ],
      "name": "earn",
      "outputs": [],
      "stateMutability": "nonpayable",
      "type": "function"
    },
    {
      "inputs": [],
      "name": "earnTokenPriceFeed",
      "outputs": [
        {
          "internalType": "contract AggregatorV3Interface",
          "name": "",
          "type": "address"
        }
      ],
      "stateMutability": "view",
      "type": "function"
    },
    {
      "inputs": [],
      "name": "earnedAddress",
      "outputs": [
        {
          "internalType": "address",
          "name": "",
          "type": "address"
        }
      ],
      "stateMutability": "view",
      "type": "function"
    },
    {
      "inputs": [
        {
          "internalType": "uint256",
          "name": "",
          "type": "uint256"
        }
      ],
      "name": "earnedToToken0Path",
      "outputs": [
        {
          "internalType": "address",
          "name": "",
          "type": "address"
        }
      ],
      "stateMutability": "view",
      "type": "function"
    },
    {
      "inputs": [
        {
          "internalType": "uint256",
          "name": "",
          "type": "uint256"
        }
      ],
      "name": "earnedToToken1Path",
      "outputs": [
        {
          "internalType": "address",
          "name": "",
          "type": "address"
        }
      ],
      "stateMutability": "view",
      "type": "function"
    },
    {
      "inputs": [
        {
          "internalType": "uint256",
          "name": "",
          "type": "uint256"
        }
      ],
      "name": "earnedToUSDCPath",
      "outputs": [
        {
          "internalType": "address",
          "name": "",
          "type": "address"
        }
      ],
      "stateMutability": "view",
      "type": "function"
    },
    {
      "inputs": [
        {
          "internalType": "uint256",
          "name": "",
          "type": "uint256"
        }
      ],
      "name": "earnedToZORLPPoolOtherTokenPath",
      "outputs": [
        {
          "internalType": "address",
          "name": "",
          "type": "address"
        }
      ],
      "stateMutability": "view",
      "type": "function"
    },
    {
      "inputs": [
        {
          "internalType": "uint256",
          "name": "",
          "type": "uint256"
        }
      ],
      "name": "earnedToZORROPath",
      "outputs": [
        {
          "internalType": "address",
          "name": "",
          "type": "address"
        }
      ],
      "stateMutability": "view",
      "type": "function"
    },
    {
      "inputs": [],
      "name": "entranceFeeFactor",
      "outputs": [
        {
          "internalType": "uint256",
          "name": "",
          "type": "uint256"
        }
      ],
      "stateMutability": "view",
      "type": "function"
    },
    {
      "inputs": [],
      "name": "entranceFeeFactorLL",
      "outputs": [
        {
          "internalType": "uint256",
          "name": "",
          "type": "uint256"
        }
      ],
      "stateMutability": "view",
      "type": "function"
    },
    {
      "inputs": [],
      "name": "entranceFeeFactorMax",
      "outputs": [
        {
          "internalType": "uint256",
          "name": "",
          "type": "uint256"
        }
      ],
      "stateMutability": "view",
      "type": "function"
    },
    {
      "inputs": [
        {
          "internalType": "uint256",
          "name": "_amountUSDC",
          "type": "uint256"
        },
        {
          "internalType": "uint256",
          "name": "_maxMarketMovementAllowed",
          "type": "uint256"
        }
      ],
      "name": "exchangeUSDForWantToken",
      "outputs": [
        {
          "internalType": "uint256",
          "name": "",
          "type": "uint256"
        }
      ],
      "stateMutability": "nonpayable",
      "type": "function"
    },
    {
      "inputs": [
        {
          "internalType": "uint256",
          "name": "_amount",
          "type": "uint256"
        },
        {
          "internalType": "uint256",
          "name": "_maxMarketMovementAllowed",
          "type": "uint256"
        }
      ],
      "name": "exchangeWantTokenForUSD",
      "outputs": [
        {
          "internalType": "uint256",
          "name": "",
          "type": "uint256"
        }
      ],
      "stateMutability": "nonpayable",
      "type": "function"
    },
    {
      "inputs": [],
      "name": "farm",
      "outputs": [],
      "stateMutability": "nonpayable",
      "type": "function"
    },
    {
      "inputs": [],
      "name": "farmContractAddress",
      "outputs": [
        {
          "internalType": "address",
          "name": "",
          "type": "address"
        }
      ],
      "stateMutability": "view",
      "type": "function"
    },
    {
      "inputs": [],
      "name": "govAddress",
      "outputs": [
        {
          "internalType": "address",
          "name": "",
          "type": "address"
        }
      ],
      "stateMutability": "view",
      "type": "function"
    },
    {
      "inputs": [
        {
          "internalType": "address",
          "name": "_token",
          "type": "address"
        },
        {
          "internalType": "uint256",
          "name": "_amount",
          "type": "uint256"
        },
        {
          "internalType": "address",
          "name": "_to",
          "type": "address"
        }
      ],
      "name": "inCaseTokensGetStuck",
      "outputs": [],
      "stateMutability": "nonpayable",
      "type": "function"
    },
    {
      "inputs": [
        {
          "internalType": "address",
          "name": "_timelockOwner",
          "type": "address"
        },
        {
          "components": [
            {
              "internalType": "uint256",
              "name": "pid",
              "type": "uint256"
            },
            {
              "internalType": "bool",
              "name": "isHomeChain",
              "type": "bool"
            },
            {
              "internalType": "bool",
              "name": "isFarmable",
              "type": "bool"
            },
            {
              "components": [
                {
                  "internalType": "address",
                  "name": "govAddress",
                  "type": "address"
                },
                {
                  "internalType": "address",
                  "name": "zorroControllerAddress",
                  "type": "address"
                },
                {
                  "internalType": "address",
                  "name": "zorroXChainController",
                  "type": "address"
                },
                {
                  "internalType": "address",
                  "name": "ZORROAddress",
                  "type": "address"
                },
                {
                  "internalType": "address",
                  "name": "zorroStakingVault",
                  "type": "address"
                },
                {
                  "internalType": "address",
                  "name": "wantAddress",
                  "type": "address"
                },
                {
                  "internalType": "address",
                  "name": "token0Address",
                  "type": "address"
                },
                {
                  "internalType": "address",
                  "name": "token1Address",
                  "type": "address"
                },
                {
                  "internalType": "address",
                  "name": "earnedAddress",
                  "type": "address"
                },
                {
                  "internalType": "address",
                  "name": "farmContractAddress",
                  "type": "address"
                },
                {
                  "internalType": "address",
                  "name": "rewardsAddress",
                  "type": "address"
                },
                {
                  "internalType": "address",
                  "name": "poolAddress",
                  "type": "address"
                },
                {
                  "internalType": "address",
                  "name": "uniRouterAddress",
                  "type": "address"
                },
                {
                  "internalType": "address",
                  "name": "zorroLPPool",
                  "type": "address"
                },
                {
                  "internalType": "address",
                  "name": "zorroLPPoolOtherToken",
                  "type": "address"
                },
                {
                  "internalType": "address",
                  "name": "tokenUSDCAddress",
                  "type": "address"
                }
              ],
              "internalType": "struct VaultBase.VaultAddresses",
              "name": "keyAddresses",
              "type": "tuple"
            },
            {
              "internalType": "address[]",
              "name": "earnedToZORROPath",
              "type": "address[]"
            },
            {
              "internalType": "address[]",
              "name": "earnedToToken0Path",
              "type": "address[]"
            },
            {
              "internalType": "address[]",
              "name": "USDCToToken0Path",
              "type": "address[]"
            },
            {
              "internalType": "address[]",
              "name": "earnedToZORLPPoolOtherTokenPath",
              "type": "address[]"
            },
            {
              "internalType": "address[]",
              "name": "earnedToUSDCPath",
              "type": "address[]"
            },
            {
              "internalType": "address[]",
              "name": "BUSDToToken0Path",
              "type": "address[]"
            },
            {
              "internalType": "address[]",
              "name": "BUSDToZORROPath",
              "type": "address[]"
            },
            {
              "internalType": "address[]",
              "name": "BUSDToLPPoolOtherTokenPath",
              "type": "address[]"
            },
            {
              "components": [
                {
                  "internalType": "uint256",
                  "name": "controllerFee",
                  "type": "uint256"
                },
                {
                  "internalType": "uint256",
                  "name": "buyBackRate",
                  "type": "uint256"
                },
                {
                  "internalType": "uint256",
                  "name": "revShareRate",
                  "type": "uint256"
                },
                {
                  "internalType": "uint256",
                  "name": "entranceFeeFactor",
                  "type": "uint256"
                },
                {
                  "internalType": "uint256",
                  "name": "withdrawFeeFactor",
                  "type": "uint256"
                }
              ],
              "internalType": "struct VaultBase.VaultFees",
              "name": "fees",
              "type": "tuple"
            },
            {
              "components": [
                {
                  "internalType": "address",
                  "name": "token0PriceFeed",
                  "type": "address"
                },
                {
                  "internalType": "address",
                  "name": "token1PriceFeed",
                  "type": "address"
                },
                {
                  "internalType": "address",
                  "name": "earnTokenPriceFeed",
                  "type": "address"
                },
                {
                  "internalType": "address",
                  "name": "ZORPriceFeed",
                  "type": "address"
                },
                {
                  "internalType": "address",
                  "name": "lpPoolOtherTokenPriceFeed",
                  "type": "address"
                }
              ],
              "internalType": "struct VaultBase.VaultPriceFeeds",
              "name": "priceFeeds",
              "type": "tuple"
            }
          ],
          "internalType": "struct VaultAcryptosSingle.VaultAcryptosSingleInit",
          "name": "_initValue",
          "type": "tuple"
        }
      ],
      "name": "initialize",
      "outputs": [],
      "stateMutability": "nonpayable",
      "type": "function"
    },
    {
      "inputs": [
        {
          "internalType": "address",
          "name": "_timelockOwner",
          "type": "address"
        }
      ],
      "name": "initialize",
      "outputs": [],
      "stateMutability": "nonpayable",
      "type": "function"
    },
    {
      "inputs": [],
      "name": "isFarmable",
      "outputs": [
        {
          "internalType": "bool",
          "name": "",
          "type": "bool"
        }
      ],
      "stateMutability": "view",
      "type": "function"
    },
    {
      "inputs": [],
      "name": "isHomeChain",
      "outputs": [
        {
          "internalType": "bool",
          "name": "",
          "type": "bool"
        }
      ],
      "stateMutability": "view",
      "type": "function"
    },
    {
      "inputs": [],
      "name": "lastEarnBlock",
      "outputs": [
        {
          "internalType": "uint256",
          "name": "",
          "type": "uint256"
        }
      ],
      "stateMutability": "view",
      "type": "function"
    },
    {
      "inputs": [],
      "name": "lpPoolOtherTokenPriceFeed",
      "outputs": [
        {
          "internalType": "contract AggregatorV3Interface",
          "name": "",
          "type": "address"
        }
      ],
      "stateMutability": "view",
      "type": "function"
    },
    {
      "inputs": [],
      "name": "onlyGov",
      "outputs": [
        {
          "internalType": "bool",
          "name": "",
          "type": "bool"
        }
      ],
      "stateMutability": "view",
      "type": "function"
    },
    {
      "inputs": [],
      "name": "owner",
      "outputs": [
        {
          "internalType": "address",
          "name": "",
          "type": "address"
        }
      ],
      "stateMutability": "view",
      "type": "function"
    },
    {
      "inputs": [],
      "name": "pause",
      "outputs": [],
      "stateMutability": "nonpayable",
      "type": "function"
    },
    {
      "inputs": [],
      "name": "paused",
      "outputs": [
        {
          "internalType": "bool",
          "name": "",
          "type": "bool"
        }
      ],
      "stateMutability": "view",
      "type": "function"
    },
    {
      "inputs": [],
      "name": "pid",
      "outputs": [
        {
          "internalType": "uint256",
          "name": "",
          "type": "uint256"
        }
      ],
      "stateMutability": "view",
      "type": "function"
    },
    {
      "inputs": [],
      "name": "poolAddress",
      "outputs": [
        {
          "internalType": "address",
          "name": "",
          "type": "address"
        }
      ],
      "stateMutability": "view",
      "type": "function"
    },
    {
      "inputs": [],
      "name": "renounceOwnership",
      "outputs": [],
      "stateMutability": "nonpayable",
      "type": "function"
    },
    {
      "inputs": [],
      "name": "revShareRate",
      "outputs": [
        {
          "internalType": "uint256",
          "name": "",
          "type": "uint256"
        }
      ],
      "stateMutability": "view",
      "type": "function"
    },
    {
      "inputs": [],
      "name": "revShareRateMax",
      "outputs": [
        {
          "internalType": "uint256",
          "name": "",
          "type": "uint256"
        }
      ],
      "stateMutability": "view",
      "type": "function"
    },
    {
      "inputs": [],
      "name": "revShareRateUL",
      "outputs": [
        {
          "internalType": "uint256",
          "name": "",
          "type": "uint256"
        }
      ],
      "stateMutability": "view",
      "type": "function"
    },
    {
      "inputs": [],
      "name": "rewardsAddress",
      "outputs": [
        {
          "internalType": "address",
          "name": "",
          "type": "address"
        }
      ],
      "stateMutability": "view",
      "type": "function"
    },
    {
      "inputs": [
        {
          "internalType": "address",
          "name": "_token",
          "type": "address"
        }
      ],
      "name": "setACS",
      "outputs": [],
      "stateMutability": "nonpayable",
      "type": "function"
    },
    {
      "inputs": [
        {
          "internalType": "address",
          "name": "_token",
          "type": "address"
        }
      ],
      "name": "setBUSD",
      "outputs": [],
      "stateMutability": "nonpayable",
      "type": "function"
    },
    {
      "inputs": [
        {
          "internalType": "uint8",
          "name": "_idx",
          "type": "uint8"
        },
        {
          "internalType": "address[]",
          "name": "_path",
          "type": "address[]"
        }
      ],
      "name": "setBUSDSwapPaths",
      "outputs": [],
      "stateMutability": "nonpayable",
      "type": "function"
    },
    {
      "inputs": [
        {
          "internalType": "bytes32",
          "name": "_pool",
          "type": "bytes32"
        }
      ],
      "name": "setBalancerPool",
      "outputs": [],
      "stateMutability": "nonpayable",
      "type": "function"
    },
    {
      "inputs": [
        {
          "internalType": "address",
          "name": "_vault",
          "type": "address"
        }
      ],
      "name": "setBalancerVaultAddress",
      "outputs": [],
      "stateMutability": "nonpayable",
      "type": "function"
    },
    {
      "inputs": [
        {
          "internalType": "uint256",
          "name": "_acsWeight",
          "type": "uint256"
        },
        {
          "internalType": "uint256",
          "name": "_busdWeight",
          "type": "uint256"
        }
      ],
      "name": "setBalancerWeights",
      "outputs": [],
      "stateMutability": "nonpayable",
      "type": "function"
    },
    {
      "inputs": [
        {
          "internalType": "address",
          "name": "_burnAddress",
          "type": "address"
        }
      ],
      "name": "setBurnAddress",
      "outputs": [],
      "stateMutability": "nonpayable",
      "type": "function"
    },
    {
      "inputs": [
        {
          "internalType": "address",
          "name": "_earnedAddress",
          "type": "address"
        }
      ],
      "name": "setEarnedAddress",
      "outputs": [],
      "stateMutability": "nonpayable",
      "type": "function"
    },
    {
      "inputs": [
        {
          "internalType": "address",
          "name": "_farmContractAddress",
          "type": "address"
        }
      ],
      "name": "setFarmContractAddress",
      "outputs": [],
      "stateMutability": "nonpayable",
      "type": "function"
    },
    {
      "inputs": [
        {
          "internalType": "uint256",
          "name": "_entranceFeeFactor",
          "type": "uint256"
        },
        {
          "internalType": "uint256",
          "name": "_withdrawFeeFactor",
          "type": "uint256"
        },
        {
          "internalType": "uint256",
          "name": "_controllerFee",
          "type": "uint256"
        },
        {
          "internalType": "uint256",
          "name": "_buyBackRate",
          "type": "uint256"
        },
        {
          "internalType": "uint256",
          "name": "_revShareRate",
          "type": "uint256"
        }
      ],
      "name": "setFeeSettings",
      "outputs": [],
      "stateMutability": "nonpayable",
      "type": "function"
    },
    {
      "inputs": [
        {
          "internalType": "address",
          "name": "_govAddress",
          "type": "address"
        }
      ],
      "name": "setGov",
      "outputs": [],
      "stateMutability": "nonpayable",
      "type": "function"
    },
    {
      "inputs": [
        {
          "internalType": "bool",
          "name": "_isFarmable",
          "type": "bool"
        }
      ],
      "name": "setIsFarmable",
      "outputs": [],
      "stateMutability": "nonpayable",
      "type": "function"
    },
    {
      "inputs": [
        {
          "internalType": "bool",
          "name": "_onlyGov",
          "type": "bool"
        }
      ],
      "name": "setOnlyGov",
      "outputs": [],
      "stateMutability": "nonpayable",
      "type": "function"
    },
    {
      "inputs": [
        {
          "internalType": "uint256",
          "name": "_pid",
          "type": "uint256"
        }
      ],
      "name": "setPid",
      "outputs": [],
      "stateMutability": "nonpayable",
      "type": "function"
    },
    {
      "inputs": [
        {
          "internalType": "address",
          "name": "_poolAddress",
          "type": "address"
        }
      ],
      "name": "setPoolAddress",
      "outputs": [],
      "stateMutability": "nonpayable",
      "type": "function"
    },
    {
      "inputs": [
        {
          "internalType": "uint8",
          "name": "_idx",
          "type": "uint8"
        },
        {
          "internalType": "address",
          "name": "_priceFeed",
          "type": "address"
        }
      ],
      "name": "setPriceFeed",
      "outputs": [],
      "stateMutability": "nonpayable",
      "type": "function"
    },
    {
      "inputs": [
        {
          "internalType": "address",
          "name": "_rewardsAddress",
          "type": "address"
        }
      ],
      "name": "setRewardsAddress",
      "outputs": [],
      "stateMutability": "nonpayable",
      "type": "function"
    },
    {
      "inputs": [
        {
          "internalType": "uint8",
          "name": "_idx",
          "type": "uint8"
        },
        {
          "internalType": "address[]",
          "name": "_path",
          "type": "address[]"
        }
      ],
      "name": "setSwapPaths",
      "outputs": [],
      "stateMutability": "nonpayable",
      "type": "function"
    },
    {
      "inputs": [
        {
          "internalType": "address",
          "name": "_token0Address",
          "type": "address"
        }
      ],
      "name": "setToken0Address",
      "outputs": [],
      "stateMutability": "nonpayable",
      "type": "function"
    },
    {
      "inputs": [
        {
          "internalType": "address",
          "name": "_token1Address",
          "type": "address"
        }
      ],
      "name": "setToken1Address",
      "outputs": [],
      "stateMutability": "nonpayable",
      "type": "function"
    },
    {
      "inputs": [
        {
          "internalType": "address",
          "name": "_tokenUSDCAddress",
          "type": "address"
        }
      ],
      "name": "setTokenUSDCAddress",
      "outputs": [],
      "stateMutability": "nonpayable",
      "type": "function"
    },
    {
      "inputs": [
        {
          "internalType": "address",
          "name": "_uniRouterAddress",
          "type": "address"
        }
      ],
      "name": "setUniRouterAddress",
      "outputs": [],
      "stateMutability": "nonpayable",
      "type": "function"
    },
    {
      "inputs": [
        {
          "internalType": "address",
          "name": "_wantAddress",
          "type": "address"
        }
      ],
      "name": "setWantAddress",
      "outputs": [],
      "stateMutability": "nonpayable",
      "type": "function"
    },
    {
      "inputs": [
        {
          "internalType": "address",
          "name": "_ZORROAddress",
          "type": "address"
        }
      ],
      "name": "setZORROAddress",
      "outputs": [],
      "stateMutability": "nonpayable",
      "type": "function"
    },
    {
      "inputs": [
        {
          "internalType": "address",
          "name": "_zorroControllerAddress",
          "type": "address"
        }
      ],
      "name": "setZorroControllerAddress",
      "outputs": [],
      "stateMutability": "nonpayable",
      "type": "function"
    },
    {
      "inputs": [
        {
          "internalType": "address",
          "name": "_poolAddress",
          "type": "address"
        }
      ],
      "name": "setZorroLPPoolAddress",
      "outputs": [],
      "stateMutability": "nonpayable",
      "type": "function"
    },
    {
      "inputs": [
        {
          "internalType": "address",
          "name": "_otherToken",
          "type": "address"
        }
      ],
      "name": "setZorroLPPoolOtherToken",
      "outputs": [],
      "stateMutability": "nonpayable",
      "type": "function"
    },
    {
      "inputs": [
        {
          "internalType": "address",
          "name": "_stakingVault",
          "type": "address"
        }
      ],
      "name": "setZorroStakingVault",
      "outputs": [],
      "stateMutability": "nonpayable",
      "type": "function"
    },
    {
      "inputs": [
        {
          "internalType": "address",
          "name": "_zorroXChainController",
          "type": "address"
        }
      ],
      "name": "setZorroXChainControllerAddress",
      "outputs": [],
      "stateMutability": "nonpayable",
      "type": "function"
    },
    {
      "inputs": [],
      "name": "sharesTotal",
      "outputs": [
        {
          "internalType": "uint256",
          "name": "",
          "type": "uint256"
        }
      ],
      "stateMutability": "view",
      "type": "function"
    },
    {
      "inputs": [],
      "name": "token0Address",
      "outputs": [
        {
          "internalType": "address",
          "name": "",
          "type": "address"
        }
      ],
      "stateMutability": "view",
      "type": "function"
    },
    {
      "inputs": [],
      "name": "token0PriceFeed",
      "outputs": [
        {
          "internalType": "contract AggregatorV3Interface",
          "name": "",
          "type": "address"
        }
      ],
      "stateMutability": "view",
      "type": "function"
    },
    {
      "inputs": [
        {
          "internalType": "uint256",
          "name": "",
          "type": "uint256"
        }
      ],
      "name": "token0ToUSDCPath",
      "outputs": [
        {
          "internalType": "address",
          "name": "",
          "type": "address"
        }
      ],
      "stateMutability": "view",
      "type": "function"
    },
    {
      "inputs": [],
      "name": "token1Address",
      "outputs": [
        {
          "internalType": "address",
          "name": "",
          "type": "address"
        }
      ],
      "stateMutability": "view",
      "type": "function"
    },
    {
      "inputs": [],
      "name": "token1PriceFeed",
      "outputs": [
        {
          "internalType": "contract AggregatorV3Interface",
          "name": "",
          "type": "address"
        }
      ],
      "stateMutability": "view",
      "type": "function"
    },
    {
      "inputs": [
        {
          "internalType": "uint256",
          "name": "",
          "type": "uint256"
        }
      ],
      "name": "token1ToUSDCPath",
      "outputs": [
        {
          "internalType": "address",
          "name": "",
          "type": "address"
        }
      ],
      "stateMutability": "view",
      "type": "function"
    },
    {
      "inputs": [],
      "name": "tokenACS",
      "outputs": [
        {
          "internalType": "address",
          "name": "",
          "type": "address"
        }
      ],
      "stateMutability": "view",
      "type": "function"
    },
    {
      "inputs": [],
      "name": "tokenBUSD",
      "outputs": [
        {
          "internalType": "address",
          "name": "",
          "type": "address"
        }
      ],
      "stateMutability": "view",
      "type": "function"
    },
    {
      "inputs": [],
      "name": "tokenUSDCAddress",
      "outputs": [
        {
          "internalType": "address",
          "name": "",
          "type": "address"
        }
      ],
      "stateMutability": "view",
      "type": "function"
    },
    {
      "inputs": [
        {
          "internalType": "address",
          "name": "newOwner",
          "type": "address"
        }
      ],
      "name": "transferOwnership",
      "outputs": [],
      "stateMutability": "nonpayable",
      "type": "function"
    },
    {
      "inputs": [],
      "name": "uniRouterAddress",
      "outputs": [
        {
          "internalType": "address",
          "name": "",
          "type": "address"
        }
      ],
      "stateMutability": "view",
      "type": "function"
    },
    {
      "inputs": [],
      "name": "unpause",
      "outputs": [],
      "stateMutability": "nonpayable",
      "type": "function"
    },
    {
      "inputs": [],
      "name": "wantAddress",
      "outputs": [
        {
          "internalType": "address",
          "name": "",
          "type": "address"
        }
      ],
      "stateMutability": "view",
      "type": "function"
    },
    {
      "inputs": [],
      "name": "wantLockedTotal",
      "outputs": [
        {
          "internalType": "uint256",
          "name": "",
          "type": "uint256"
        }
      ],
      "stateMutability": "view",
      "type": "function"
    },
    {
      "inputs": [],
      "name": "withdrawFeeFactor",
      "outputs": [
        {
          "internalType": "uint256",
          "name": "",
          "type": "uint256"
        }
      ],
      "stateMutability": "view",
      "type": "function"
    },
    {
      "inputs": [],
      "name": "withdrawFeeFactorLL",
      "outputs": [
        {
          "internalType": "uint256",
          "name": "",
          "type": "uint256"
        }
      ],
      "stateMutability": "view",
      "type": "function"
    },
    {
      "inputs": [],
      "name": "withdrawFeeFactorMax",
      "outputs": [
        {
          "internalType": "uint256",
          "name": "",
          "type": "uint256"
        }
      ],
      "stateMutability": "view",
      "type": "function"
    },
    {
      "inputs": [
        {
          "internalType": "uint256",
          "name": "_wantAmt",
          "type": "uint256"
        }
      ],
      "name": "withdrawWantToken",
      "outputs": [
        {
          "internalType": "uint256",
          "name": "sharesRemoved",
          "type": "uint256"
        }
      ],
      "stateMutability": "nonpayable",
      "type": "function"
    },
    {
      "inputs": [],
      "name": "zorroControllerAddress",
      "outputs": [
        {
          "internalType": "address",
          "name": "",
          "type": "address"
        }
      ],
      "stateMutability": "view",
      "type": "function"
    },
    {
      "inputs": [],
      "name": "zorroLPPool",
      "outputs": [
        {
          "internalType": "address",
          "name": "",
          "type": "address"
        }
      ],
      "stateMutability": "view",
      "type": "function"
    },
    {
      "inputs": [],
      "name": "zorroLPPoolOtherToken",
      "outputs": [
        {
          "internalType": "address",
          "name": "",
          "type": "address"
        }
      ],
      "stateMutability": "view",
      "type": "function"
    },
    {
      "inputs": [],
      "name": "zorroStakingVault",
      "outputs": [
        {
          "internalType": "address",
          "name": "",
          "type": "address"
        }
      ],
      "stateMutability": "view",
      "type": "function"
    },
    {
      "inputs": [],
      "name": "zorroXChainController",
      "outputs": [
        {
          "internalType": "address",
          "name": "",
          "type": "address"
        }
      ],
      "stateMutability": "view",
      "type": "function"
    },
    {
      "inputs": [
        {
          "internalType": "uint256",
          "name": "_wantAmt",
          "type": "uint256"
        }
      ],
      "name": "unfarm",
      "outputs": [],
      "stateMutability": "nonpayable",
      "type": "function"
    },
    {
      "inputs": [
        {
          "internalType": "uint256",
          "name": "_earnedAmount",
          "type": "uint256"
        },
        {
          "internalType": "address",
          "name": "_destination",
          "type": "address"
        },
        {
          "internalType": "uint256",
          "name": "_maxMarketMovementAllowed",
          "type": "uint256"
        },
        {
          "components": [
            {
              "internalType": "uint256",
              "name": "earn",
              "type": "uint256"
            },
            {
              "internalType": "uint256",
              "name": "ZOR",
              "type": "uint256"
            },
            {
              "internalType": "uint256",
              "name": "lpPoolOtherToken",
              "type": "uint256"
            }
          ],
          "internalType": "struct VaultBase.ExchangeRates",
          "name": "_rates",
          "type": "tuple"
        }
      ],
      "name": "swapEarnedToUSDC",
      "outputs": [],
      "stateMutability": "nonpayable",
      "type": "function"
    },
    {
      "inputs": [
        {
          "internalType": "uint256",
          "name": "_amount",
          "type": "uint256"
        },
        {
          "internalType": "uint256",
          "name": "_maxMarketMovementAllowed",
          "type": "uint256"
        },
        {
          "components": [
            {
              "internalType": "uint256",
              "name": "earn",
              "type": "uint256"
            },
            {
              "internalType": "uint256",
              "name": "ZOR",
              "type": "uint256"
            },
            {
              "internalType": "uint256",
              "name": "lpPoolOtherToken",
              "type": "uint256"
            }
          ],
          "internalType": "struct VaultBase.ExchangeRates",
          "name": "_rates",
          "type": "tuple"
        }
      ],
      "name": "revShareOnChain",
      "outputs": [],
      "stateMutability": "nonpayable",
      "type": "function"
    },
    {
      "inputs": [
        {
          "internalType": "uint256",
          "name": "_amount",
          "type": "uint256"
        },
        {
          "internalType": "uint256",
          "name": "_maxMarketMovementAllowed",
          "type": "uint256"
        },
        {
          "components": [
            {
              "internalType": "uint256",
              "name": "earn",
              "type": "uint256"
            },
            {
              "internalType": "uint256",
              "name": "ZOR",
              "type": "uint256"
            },
            {
              "internalType": "uint256",
              "name": "lpPoolOtherToken",
              "type": "uint256"
            }
          ],
          "internalType": "struct VaultBase.ExchangeRates",
          "name": "_rates",
          "type": "tuple"
        }
      ],
      "name": "buybackOnChain",
      "outputs": [],
      "stateMutability": "nonpayable",
      "type": "function"
    }
  ],
  "bytecode": "0x608060405234801561001057600080fd5b50615bbf80620000216000396000f3fe608060405234801561001057600080fd5b50600436106106a95760003560e01c80637bf604d81161036c578063c0973eed116101de578063e71984741161010f578063f05c09b3116100ad578063f2fde38b11610087578063f2fde38b14610d72578063f5046a2914610d85578063fbf5683f14610d98578063ff29b39514610dab57600080fd5b8063f05c09b314610d49578063f106845414610d56578063f25342bf14610d5f57600080fd5b8063ebfba7c4116100e9578063ebfba7c414610d16578063ec69ae1c14610d29578063edf5e58514610d3c578063ee50dc341461080757600080fd5b8063e719847414610cdd578063e7a0367914610cf0578063e9e15b4f14610d0357600080fd5b8063c8e3d18b1161017c578063db31640c11610156578063db31640c14610c91578063de84199114610ca4578063e502a88d14610cb7578063e65a011714610cca57600080fd5b8063c8e3d18b14610c58578063cfad57a214610c6b578063d7cb416f14610c7e57600080fd5b8063c4d66de8116101b8578063c4d66de814610c0c578063c5c97cbf14610c1f578063c6efd57714610c32578063c8479cd614610c4557600080fd5b8063c0973eed14610bf0578063c2dfdcd214610c03578063c302a4d014610aa657600080fd5b80639805f01b116102b8578063b1414dbb11610256578063b6b41a8b11610230578063b6b41a8b14610ba4578063b73cba2a14610bb7578063b86c5f5314610bca578063bf3a7d4014610bdd57600080fd5b8063b1414dbb14610b7e578063b2740cb414610b91578063b3545c01146106d657600080fd5b8063a4d2b08311610292578063a4d2b08314610b32578063aabf190b14610b45578063ab196def14610b58578063ae53e58a14610b6b57600080fd5b80639805f01b14610af95780639f703a5614610b0c5780639fc33a9f14610b1f57600080fd5b8063858c5b68116103255780638906758d116102ff5780638906758d14610aaf5780638da5cb5b14610ac2578063959334f414610ad357806396e9aff814610ae657600080fd5b8063858c5b6814610a8a57806385f02dd614610a9d578063866b201814610aa657600080fd5b80637bf604d814610a2d5780637fe37d3314610a405780637ff36fbe14610a4957806383f0193914610a5c5780638456cb5914610a6f5780638460adc914610a7757600080fd5b80634b0e7216116105205780636392ab12116104515780636f96f6fa116103ef578063715018a6116103c9578063715018a6146109f65780637153ef86146109fe578063776da47014610a1157806379eb16d114610a1a57600080fd5b80636f96f6fa146109bd57806370d5ae05146109d057806370e842a1146109e357600080fd5b806367206d401161042b57806367206d401461097b57806368f541621461098e578063693a090b146109975780636ca8bd65146109aa57600080fd5b80636392ab1214610955578063648794a41461096857806367057b6c1461080757600080fd5b8063567e07c9116104be5780635da79d63116104985780635da79d63146109095780635fc77d431461091c5780636183e8041461092f57806361b5bf9f1461094257600080fd5b8063567e07c9146108d8578063583bda3b146108eb5780635c975abb146108fe57600080fd5b80634d9f7bb2116104fa5780634d9f7bb2146108075780634e2cb8b61461089f57806355ebedec146108b2578063563397d7146108c557600080fd5b80634b0e7216146108665780634c5b09da146108795780634ce54ddb1461088c57600080fd5b80631c885bae116105fa5780633214471f1161059857806342da4eb31161057257806342da4eb31461083c57806343788cd21461080757806344a3955e1461084557806346008a071461084e57600080fd5b80633214471f1461082357806336e9332d1461082c5780633f4ba83a1461083457600080fd5b8063213ef7f7116105d4578063213ef7f7146107e15780632209b59e146107f45780632717eff31461080757806331d14eb91461081057600080fd5b80631c885bae146107bb5780631e12819a146107ce578063211019d7146106d657600080fd5b80630fa4e01e116106675780631334903f116106415780631334903f146107835780631755ff211461078c578063178a8d071461079f5780631b0d8aab146107a857600080fd5b80630fa4e01e14610754578063127b5bbb1461075d578063133033351461077057600080fd5b80629b81db146106ae57806305828d3e146106c3578063061c7d48146106d65780630a868404146106f25780630b6bb30b1461071d5780630daef32114610730575b600080fd5b6106c16106bc366004614d9a565b610dbe565b005b6106c16106d1366004614df0565b610dce565b6106df6103e881565b6040519081526020015b60405180910390f35b610705610700366004614e0d565b610e23565b6040516001600160a01b0390911681526020016106e9565b6106c161072b366004614e3f565b610e4d565b60cb5461074490600160a81b900460ff1681565b60405190151581526020016106e9565b6106df60e15481565b61070561076b366004614e0d565b610ed4565b6106c161077e366004614e5c565b610ee4565b6106df60df5481565b60d854610705906001600160a01b031681565b6106df60dd5481565b6106c16107b6366004614e0d565b610ef6565b6106c16107c9366004614e0d565b610f25565b6106c16107dc366004614df0565b610f31565b60f754610705906001600160a01b031681565b6106df610802366004614e0d565b610f7d565b6106df61271081565b6106c161081e36600461513b565b6110fb565b6106df60de5481565b6106c161156b565b6106c16115a2565b6106df60e25481565b6106df60e35481565b60cb546107059061010090046001600160a01b031681565b6106c1610874366004614df0565b6115db565b6106c1610887366004614df0565b611627565b60d554610705906001600160a01b031681565b6107056108ad366004614e0d565b611673565b6106df6108c0366004614e0d565b611683565b60f854610705906001600160a01b031681565b6106c16108e6366004614df0565b611881565b6106c16108f9366004614df0565b6118cd565b60975460ff16610744565b6106c1610917366004614df0565b611919565b60cd54610705906001600160a01b031681565b6106c161093d366004614df0565b611965565b6106c1610950366004614df0565b6119b1565b610705610963366004614e0d565b6119fd565b6106df61097636600461532c565b611a0d565b6106c161098936600461534e565b611d20565b6106df60e05481565b60d954610705906001600160a01b031681565b6106c16109b8366004614df0565b611def565b60ef54610705906001600160a01b031681565b60d654610705906001600160a01b031681565b60fa54610705906001600160a01b031681565b6106c1611e3b565b6106c1610a0c366004615390565b611e6f565b6106df60f95481565b6106c1610a28366004614df0565b61213c565b60da54610705906001600160a01b031681565b6106df60f35481565b60d154610705906001600160a01b031681565b6106c1610a6a366004614e3f565b612188565b6106c16121c5565b6106c1610a8536600461532c565b6121fc565b6106c1610a983660046153da565b612231565b6106df60dc5481565b6106df61232881565b6106c1610abd366004614df0565b6122e7565b6033546001600160a01b0316610705565b6106c1610ae1366004614df0565b612333565b610705610af4366004614e0d565b61237f565b6106c1610b07366004614df0565b61238f565b610705610b1a366004614e0d565b6123db565b60d454610705906001600160a01b031681565b60cf54610705906001600160a01b031681565b60f054610705906001600160a01b031681565b60f154610705906001600160a01b031681565b60ee54610705906001600160a01b031681565b60cc54610705906001600160a01b031681565b6106c1610b9f366004614e0d565b6123eb565b6106c1610bb2366004614d9a565b61241a565b6106c1610bc5366004614df0565b612425565b610705610bd8366004614e0d565b612471565b6106c1610beb366004614df0565b612481565b60d754610705906001600160a01b031681565b6106df60f25481565b6106c1610c1a366004614df0565b6124cd565b610705610c2d366004614e0d565b612565565b610705610c40366004614e0d565b612575565b6106c1610c53366004614df0565b612585565b610705610c66366004614e0d565b6125d1565b6106c1610c79366004614df0565b6125e1565b60d254610705906001600160a01b031681565b610705610c9f366004614e0d565b612666565b6106c1610cb2366004615462565b612676565b6106df610cc536600461532c565b6127bc565b6106c1610cd8366004614e0d565b612ba2565b60d354610705906001600160a01b031681565b60d054610705906001600160a01b031681565b6106c1610d11366004614df0565b6130d4565b60db54610705906001600160a01b031681565b6106c1610d37366004614df0565b613120565b60c9546107449060ff1681565b60cb546107449060ff1681565b6106df60ca5481565b60ed54610705906001600160a01b031681565b6106c1610d80366004614df0565b61316c565b60ce54610705906001600160a01b031681565b610705610da6366004614e0d565b613204565b6106c1610db93660046153da565b613214565b610dc9838383613312565b505050565b6033546001600160a01b03163314610e015760405162461bcd60e51b8152600401610df89061549b565b60405180910390fd5b60d280546001600160a01b0319166001600160a01b0392909216919091179055565b60f48181548110610e3357600080fd5b6000918252602090912001546001600160a01b0316905081565b60cb5461010090046001600160a01b03163314610e7c5760405162461bcd60e51b8152600401610df8906154d0565b60cb8054821515600160a81b0260ff60a81b199091161790556040517f125177ac7b8930dac1e59c2b30b1b6b9191b30af40cf6bbb5d20fec4d44be60f90610ec990831515815260200190565b60405180910390a150565b60f68181548110610e3357600080fd5b610ef0848484846137d4565b50505050565b6033546001600160a01b03163314610f205760405162461bcd60e51b8152600401610df89061549b565b60ca55565b610f2e81613a1a565b50565b6033546001600160a01b03163314610f5b5760405162461bcd60e51b8152600401610df89061549b565b60d580546001600160a01b0319166001600160a01b0392909216919091179055565b60cc546000906001600160a01b0316336001600160a01b031614610fb35760405162461bcd60e51b8152600401610df8906154ee565b60026065541415610fd65760405162461bcd60e51b8152600401610df890615518565b600260655560975460ff1615610ffe5760405162461bcd60e51b8152600401610df89061554f565b6000821161104e5760405162461bcd60e51b815260206004820152601e60248201527f57616e7420746f6b656e206465706f736974206d757374206265203e203000006044820152606401610df8565b60d054611066906001600160a01b0316333085613a86565b819050600060e25411801561107d5750600060e354115b156110b8576110b56127106110af60e2546110af60df546110a960e35489613af190919063ffffffff16565b90613af1565b90613b04565b90505b60e3546110c59082613b10565b60e35560cb5460ff16156110e0576110db613b1c565b6110f1565b60e2546110ed9083613b10565b60e2555b6001606555919050565b600054610100900460ff166111165760005460ff161561111a565b303b155b6111365760405162461bcd60e51b8152600401610df890615579565b600054610100900460ff16158015611158576000805461ffff19166101011790555b815160ca5560208083015160c9805460ff191691151591909117905560408084015160cb80546060808801518051600160a81b6001600160a81b0319909416951515610100600160a81b031916959095176101006001600160a01b0396871681029190911760ff60a81b1916939093179093558286015160cc80546001600160a01b03199081169287169290921790558386015160cd805483169187169190911790558382015160ce8054831691871691909117905560808085015160cf8054841691881691909117905560a085015160d08054841691881691909117905560c085015160d1805484169188169190911790559284015160d38054831691871691909117905561012084015160d48054831691871691909117905561014084015160d78054831691871691909117905561016084015160d8805483169187169190911790556101808085015160d9805484169188169190911790556101a085015160da805484169188169190911790556101c085015160db805484169188169190911790556101e09094015160d580548316919096161790945560f7805473e9e7cea3dedca5984780bafc599bd69add087d569086161790557f894ed9026de37afd9cce1e6c0be7d6b510e3ffe500010000000000000000000160f95560fa805473a82f327bbbf0667356d2935c6532d164b06ceced90861617905560f88054734197c6ef3879a08cd51e5560da5064b773aa1d29951694909417909355601e60f255600a60f35590860151805160dc558085015160dd559283015160de559082015160df559081015160e05583015180516113b89260ea920190614bb9565b5060a082015180516113d29160e891602090910190614bb9565b5060c082015180516113ec9160e491602090910190614bb9565b5060e082015180516114069160eb91602090910190614bb9565b5061010082015180516114219160ec91602090910190614bb9565b50610120820151805161143c9160f491602090910190614bb9565b5061014082015180516114579160f591602090910190614bb9565b5061016082015180516114729160f691602090910190614bb9565b506114d660e48054806020026020016040519081016040528092919081815260200182805480156114cc57602002820191906000526020600020905b81546001600160a01b031681526001909101906020018083116114ae575b5050505050613c32565b80516114ea9160e691602090910190614bb9565b506101a0820151805160ed80546001600160a01b03199081166001600160a01b0393841617909155604083015160ef80548316918416919091179055608083015160f08054831691841691909117905560609092015160f180549093169116179055611555836124cd565b8015610dc9576000805461ff0019169055505050565b6002606554141561158e5760405162461bcd60e51b8152600401610df890615518565b600260655561159b613b1c565b6001606555565b60cb5461010090046001600160a01b031633146115d15760405162461bcd60e51b8152600401610df8906154d0565b6115d9613d06565b565b6033546001600160a01b031633146116055760405162461bcd60e51b8152600401610df89061549b565b60d680546001600160a01b0319166001600160a01b0392909216919091179055565b6033546001600160a01b031633146116515760405162461bcd60e51b8152600401610df89061549b565b60d480546001600160a01b0319166001600160a01b0392909216919091179055565b60e78181548110610e3357600080fd5b60cc546000906001600160a01b0316336001600160a01b0316146116b95760405162461bcd60e51b8152600401610df8906154ee565b600260655414156116dc5760405162461bcd60e51b8152600401610df890615518565b600260655560975460ff16156117045760405162461bcd60e51b8152600401610df89061554f565b600082116117445760405162461bcd60e51b815260206004820152600d60248201526c077616e7420616d74203c3d203609c1b6044820152606401610df8565b61175f60e2546110af60e35485613af190919063ffffffff16565b905060e354811115611770575060e3545b60e35461177d9082613d99565b60e35560e05461271011156117aa576117a76127106110af60e05485613af190919063ffffffff16565b91505b60cb5460ff16156117be576117be82613a1a565b60d0546040516370a0823160e01b81523060048201526000916001600160a01b0316906370a0823190602401602060405180830381865afa158015611807573d6000803e3d6000fd5b505050506040513d601f19601f8201168201806040525081019061182b91906155c7565b905080831115611839578092505b8260e25410156118495760e25492505b60e2546118569084613d99565b60e25560cc5460d054611876916001600160a01b03918216911685613da5565b506001606555919050565b6033546001600160a01b031633146118ab5760405162461bcd60e51b8152600401610df89061549b565b60cd80546001600160a01b0319166001600160a01b0392909216919091179055565b6033546001600160a01b031633146118f75760405162461bcd60e51b8152600401610df89061549b565b60ce80546001600160a01b0319166001600160a01b0392909216919091179055565b6033546001600160a01b031633146119435760405162461bcd60e51b8152600401610df89061549b565b60d980546001600160a01b0319166001600160a01b0392909216919091179055565b6033546001600160a01b0316331461198f5760405162461bcd60e51b8152600401610df89061549b565b60d080546001600160a01b0319166001600160a01b0392909216919091179055565b6033546001600160a01b031633146119db5760405162461bcd60e51b8152600401610df89061549b565b60da80546001600160a01b0319166001600160a01b0392909216919091179055565b60ea8181548110610e3357600080fd5b60cc546000906001600160a01b0316336001600160a01b031614611a435760405162461bcd60e51b8152600401610df8906154ee565b60975460ff1615611a665760405162461bcd60e51b8152600401610df89061554f565b60008311611aad5760405162461bcd60e51b8152602060048201526014602482015273057616e7420616d74206d757374206265203e20360641b6044820152606401610df8565b60d054611ac5906001600160a01b0316333086613a86565b60d85460d054611ae2916001600160a01b03918216911685613dd5565b60d854604051632e1a7d4d60e01b8152600481018590526001600160a01b0390911690632e1a7d4d90602401600060405180830381600087803b158015611b2857600080fd5b505af1158015611b3c573d6000803e3d6000fd5b505060ed5460009250611b5891506001600160a01b0316613e87565b60d1546040516370a0823160e01b81523060048201529192506000916001600160a01b03909116906370a0823190602401602060405180830381865afa158015611ba6573d6000803e3d6000fd5b505050506040513d601f19601f82011682018060405250810190611bca91906155c7565b60d95460d154919250611bea916001600160a01b03908116911683613dd5565b6040805161014081018252828152602080820185905264e8d4a510008284015260d1546001600160a01b03908116606084015260d554166080830152600060a0830181905260c083015260e0820187905260e68054845181840281018401909552808552611ca99461010085019390929190830182828015611c9557602002820191906000526020600020905b81546001600160a01b03168152600190910190602001808311611c77575b505050918352505033602090910152613fc7565b60d5546040516370a0823160e01b81523360048201526001600160a01b03909116906370a0823190602401602060405180830381865afa158015611cf1573d6000803e3d6000fd5b505050506040513d601f19601f82011682018060405250810190611d1591906155c7565b925050505b92915050565b60cb5461010090046001600160a01b03163314611d4f5760405162461bcd60e51b8152600401610df8906154d0565b60d3546001600160a01b0384811691161415611d955760405162461bcd60e51b8152602060048201526005602482015264217361666560d81b6044820152606401610df8565b60d0546001600160a01b0384811691161415611ddb5760405162461bcd60e51b8152602060048201526005602482015264217361666560d81b6044820152606401610df8565b610dc96001600160a01b0384168284613da5565b6033546001600160a01b03163314611e195760405162461bcd60e51b8152600401610df89061549b565b60cf80546001600160a01b0319166001600160a01b0392909216919091179055565b6033546001600160a01b03163314611e655760405162461bcd60e51b8152600401610df89061549b565b6115d960006140af565b60cb5461010090046001600160a01b03163314611e9e5760405162461bcd60e51b8152600401610df8906154d0565b612328851015611ef05760405162461bcd60e51b815260206004820152601a60248201527f5f656e7472616e6365466565466163746f7220746f6f206c6f770000000000006044820152606401610df8565b612710851115611f425760405162461bcd60e51b815260206004820152601b60248201527f5f656e7472616e6365466565466163746f7220746f6f206869676800000000006044820152606401610df8565b60df859055612328841015611f995760405162461bcd60e51b815260206004820152601a60248201527f5f7769746864726177466565466163746f7220746f6f206c6f770000000000006044820152606401610df8565b612710841115611feb5760405162461bcd60e51b815260206004820152601b60248201527f5f7769746864726177466565466163746f7220746f6f206869676800000000006044820152606401610df8565b60e08490556103e88311156120425760405162461bcd60e51b815260206004820152601760248201527f5f636f6e74726f6c6c657246656520746f6f20686967680000000000000000006044820152606401610df8565b60dc8390556103e88211156120915760405162461bcd60e51b81526020600482015260156024820152740bec4eaf284c2c6d6a4c2e8ca40e8dede40d0d2ced605b1b6044820152606401610df8565b60dd8290556103e88111156120e15760405162461bcd60e51b81526020600482015260166024820152750bee4caeca6d0c2e4caa4c2e8ca40e8dede40d0d2ced60531b6044820152606401610df8565b60de819055604080518681526020810186905290810184905260608101839052608081018290527fc67e0b149a57a70fa44a531a46c2c6d8e0b242fa12f459f250012c3a5987d29a9060a00160405180910390a15050505050565b6033546001600160a01b031633146121665760405162461bcd60e51b8152600401610df89061549b565b60f880546001600160a01b0319166001600160a01b0392909216919091179055565b6033546001600160a01b031633146121b25760405162461bcd60e51b8152600401610df89061549b565b60cb805460ff1916911515919091179055565b60cb5461010090046001600160a01b031633146121f45760405162461bcd60e51b8152600401610df8906154d0565b6115d9614101565b6033546001600160a01b031633146122265760405162461bcd60e51b8152600401610df89061549b565b60f29190915560f355565b6033546001600160a01b0316331461225b5760405162461bcd60e51b8152600401610df89061549b565b60ff831661226f57610ef060f48383614c1e565b8260ff166001141561228757610ef060f58383614c1e565b8260ff166002141561229f57610ef060f68383614c1e565b60405162461bcd60e51b815260206004820152601960248201527f756e737570706f727465642069647820737761702070617468000000000000006044820152606401610df8565b6033546001600160a01b031633146123115760405162461bcd60e51b8152600401610df89061549b565b60d780546001600160a01b0319166001600160a01b0392909216919091179055565b6033546001600160a01b0316331461235d5760405162461bcd60e51b8152600401610df89061549b565b60db80546001600160a01b0319166001600160a01b0392909216919091179055565b60e98181548110610e3357600080fd5b6033546001600160a01b031633146123b95760405162461bcd60e51b8152600401610df89061549b565b60f780546001600160a01b0319166001600160a01b0392909216919091179055565b60ec8181548110610e3357600080fd5b6033546001600160a01b031633146124155760405162461bcd60e51b8152600401610df89061549b565b60f955565b610dc9838383614159565b6033546001600160a01b0316331461244f5760405162461bcd60e51b8152600401610df89061549b565b60d380546001600160a01b0319166001600160a01b0392909216919091179055565b60e48181548110610e3357600080fd5b6033546001600160a01b031633146124ab5760405162461bcd60e51b8152600401610df89061549b565b60cc80546001600160a01b0319166001600160a01b0392909216919091179055565b600054610100900460ff166124e85760005460ff16156124ec565b303b155b6125085760405162461bcd60e51b8152600401610df890615579565b600054610100900460ff1615801561252a576000805461ffff19166101011790555b612532614346565b61253b8261316c565b60d680546001600160a01b03191661dead1790558015612561576000805461ff00191690555b5050565b60e58181548110610e3357600080fd5b60e68181548110610e3357600080fd5b6033546001600160a01b031633146125af5760405162461bcd60e51b8152600401610df89061549b565b60d180546001600160a01b0319166001600160a01b0392909216919091179055565b60e88181548110610e3357600080fd5b60cb5461010090046001600160a01b031633146126105760405162461bcd60e51b8152600401610df8906154d0565b60cb8054610100600160a81b0319166101006001600160a01b038416908102919091179091556040519081527f91a8c1cc2d4a3bb60738481947a00cbb9899c822916694cf8bb1d68172fdcd5490602001610ec9565b60f58181548110610e3357600080fd5b6033546001600160a01b031633146126a05760405162461bcd60e51b8152600401610df89061549b565b60ff82166126c95760ed80546001600160a01b0383166001600160a01b03199091161790555050565b8160ff16600114156126f65760ee80546001600160a01b0383166001600160a01b03199091161790555050565b8160ff16600214156127235760ef80546001600160a01b0383166001600160a01b03199091161790555050565b8160ff16600314156127505760f180546001600160a01b0383166001600160a01b03199091161790555050565b8160ff166004141561277d5760f080546001600160a01b0383166001600160a01b03199091161790555050565b60405162461bcd60e51b81526020600482015260146024820152730eadce6eae0e0dee4e8cac840cccacac840d2c8f60631b6044820152606401610df8565b60cc546000906001600160a01b0316336001600160a01b0316146127f25760405162461bcd60e51b8152600401610df8906154ee565b60975460ff16156128155760405162461bcd60e51b8152600401610df89061554f565b60d5546040516370a0823160e01b81523060048201526000916001600160a01b0316906370a0823190602401602060405180830381865afa15801561285e573d6000803e3d6000fd5b505050506040513d601f19601f8201168201806040525081019061288291906155c7565b9050600084116128d45760405162461bcd60e51b815260206004820152601860248201527f55534443206465706f736974206d757374206265203e203000000000000000006044820152606401610df8565b808411156129245760405162461bcd60e51b815260206004820152601960248201527f5553444320646573697265642065786365656465642062616c000000000000006044820152606401610df8565b60ed5460009061293c906001600160a01b0316613e87565b60d95460d55491925061295c916001600160a01b03908116911687613dd5565b604080516101408101825286815264e8d4a5100060208083019190915281830184905260d5546001600160a01b03908116606084015260d154166080830152600060a0830181905260c083015260e0820187905260e48054845181840281018401909552808552612a1e9461010085019390929190830182828015612a0a57602002820191906000526020600020905b81546001600160a01b031681526001909101906020018083116129ec575b505050918352505030602090910152613fc7565b60d1546040516370a0823160e01b81523060048201526000916001600160a01b0316906370a0823190602401602060405180830381865afa158015612a67573d6000803e3d6000fd5b505050506040513d601f19601f82011682018060405250810190612a8b91906155c7565b60d85460d154919250612aab916001600160a01b03908116911683613dd5565b60d85460405163b6b55f2560e01b8152600481018390526001600160a01b039091169063b6b55f2590602401600060405180830381600087803b158015612af157600080fd5b505af1158015612b05573d6000803e3d6000fd5b505060d0546040516370a0823160e01b8152306004820152600093506001600160a01b0390911691506370a0823190602401602060405180830381865afa158015612b54573d6000803e3d6000fd5b505050506040513d601f19601f82011682018060405250810190612b7891906155c7565b60cc5460d054919250612b98916001600160a01b03908116911683613da5565b9695505050505050565b60026065541415612bc55760405162461bcd60e51b8152600401610df890615518565b600260655560975460ff1615612bed5760405162461bcd60e51b8152600401610df89061554f565b60cb5460ff16612c345760405162461bcd60e51b815260206004820152601260248201527110b330b936b0b13632903337b91032b0b93760711b6044820152606401610df8565b60cb54600160a81b900460ff1615612c755760cb5461010090046001600160a01b03163314612c755760405162461bcd60e51b8152600401610df8906154d0565b612c7f6000613a1a565b60d3546040516370a0823160e01b81523060048201526000916001600160a01b0316906370a0823190602401602060405180830381865afa158015612cc8573d6000803e3d6000fd5b505050506040513d601f19601f82011682018060405250810190612cec91906155c7565b60ef54909150600090612d07906001600160a01b0316613e87565b60ed54909150600090612d22906001600160a01b0316613e87565b60f154909150600090612d3d906001600160a01b0316613e87565b60f154909150600090612d58906001600160a01b0316613e87565b60408051606081018252868152602081018590529081018290529091506000612d8087614375565b9050600080612d90898b866143c5565b90925090506000612dad82612da785818e89613d99565b90613d99565b604080516101408101825282815260208082018d905264e8d4a510008284015260d3546001600160a01b03908116606084015260f75416608083015260f25460a083015260f35460c083015260e082018f905260e88054845181840281018401909552808552949550612e6f9492936101008501939092830182828015612a0a576020028201919060005260206000209081546001600160a01b031681526001909101906020018083116129ec57505050918352505030602090910152613fc7565b60f7546040516370a0823160e01b81523060048201526000916001600160a01b0316906370a0823190602401602060405180830381865afa158015612eb8573d6000803e3d6000fd5b505050506040513d601f19601f82011682018060405250810190612edc91906155c7565b9050612fc860405180610140016040528083815260200164e8d4a5100081526020018b815260200160f760009054906101000a90046001600160a01b03166001600160a01b0316815260200160d160009054906101000a90046001600160a01b03166001600160a01b0316815260200160008152602001600081526020018e815260200160f4805480602002602001604051908101604052809291908181526020018280548015612a0a576020028201919060005260206000209081546001600160a01b031681526001909101906020018083116129ec57505050918352505030602090910152613fc7565b60d1546040516370a0823160e01b81523060048201526000916001600160a01b0316906370a0823190602401602060405180830381865afa158015613011573d6000803e3d6000fd5b505050506040513d601f19601f8201168201806040525081019061303591906155c7565b60d85460d154919250613055916001600160a01b03908116911683613dd5565b60d85460405163b6b55f2560e01b8152600481018390526001600160a01b039091169063b6b55f2590602401600060405180830381600087803b15801561309b57600080fd5b505af11580156130af573d6000803e3d6000fd5b50504360e155506130c09050613b1c565b505060016065555050505050505050505050565b6033546001600160a01b031633146130fe5760405162461bcd60e51b8152600401610df89061549b565b60d880546001600160a01b0319166001600160a01b0392909216919091179055565b6033546001600160a01b0316331461314a5760405162461bcd60e51b8152600401610df89061549b565b60fa80546001600160a01b0319166001600160a01b0392909216919091179055565b6033546001600160a01b031633146131965760405162461bcd60e51b8152600401610df89061549b565b6001600160a01b0381166131fb5760405162461bcd60e51b815260206004820152602660248201527f4f776e61626c653a206e6577206f776e657220697320746865207a65726f206160448201526564647265737360d01b6064820152608401610df8565b610f2e816140af565b60eb8181548110610e3357600080fd5b6033546001600160a01b0316331461323e5760405162461bcd60e51b8152600401610df89061549b565b60ff831661325257610ef060e48383614c1e565b8260ff166001141561326a57610ef060e58383614c1e565b8260ff166002141561328257610ef060e68383614c1e565b8260ff166003141561329a57610ef060e78383614c1e565b8260ff16600414156132b257610ef060e88383614c1e565b8260ff16600514156132ca57610ef060e98383614c1e565b8260ff16600614156132e257610ef060ea8383614c1e565b8260ff16600714156132fa57610ef060eb8383614c1e565b8260ff166008141561277d57610ef060ec8383614c1e565b60408051610140810182528481528251602082015264e8d4a510009181019190915260d3546001600160a01b0390811660608381019190915260f754909116608083015260f25460a083015260f35460c083015260e082018490526101008201819052306101208301529061338690613fc7565b60f7546040516370a0823160e01b81523060048201526000916001600160a01b0316906370a0823190602401602060405180830381865afa1580156133cf573d6000803e3d6000fd5b505050506040513d601f19601f820116820180604052508101906133f391906155c7565b90506134d1604051806101400160405280613418600285613b0490919063ffffffff16565b815264e8d4a510006020808301919091528681015160408084019190915260f7546001600160a01b03908116606085015260ce54166080840152600060a0840181905260c084015260e0830189905260f58054825181850281018501909352808352610100909401939192909190830182828015612a0a576020028201919060005260206000209081546001600160a01b031681526001909101906020018083116129ec57505050918352505030602090910152613fc7565b6135aa6040518061014001604052806134f4600285613b0490919063ffffffff16565b815264e8d4a510006020808301919091526040878101518184015260f7546001600160a01b03908116606085015260db54166080840152600060a0840181905260c084015260e0830189905260f68054825181850281018501909352808352610100909401939192909190830182828015612a0a576020028201919060005260206000209081546001600160a01b031681526001909101906020018083116129ec57505050918352505030602090910152613fc7565b60ce546040516370a0823160e01b81523060048201526000916001600160a01b0316906370a0823190602401602060405180830381865afa1580156135f3573d6000803e3d6000fd5b505050506040513d601f19601f8201168201806040525081019061361791906155c7565b60db546040516370a0823160e01b81523060048201529192506000916001600160a01b03909116906370a0823190602401602060405180830381865afa158015613665573d6000803e3d6000fd5b505050506040513d601f19601f8201168201806040525081019061368991906155c7565b60d95460ce549192506136a9916001600160a01b03908116911684613dd5565b60d95460db546136c6916001600160a01b03918216911683613dd5565b60d95460ce5460db546001600160a01b039283169263e8e33700928116911685856136f76103e86110af848f613af1565b6137106103e86110af8f8b613af190919063ffffffff16565b60d6546001600160a01b031661372842610258613b10565b60405160e08a901b6001600160e01b03191681526001600160a01b039889166004820152968816602488015260448701959095526064860193909352608485019190915260a484015290921660c482015260e4810191909152610104016060604051808303816000875af11580156137a4573d6000803e3d6000fd5b505050506040513d601f19601f820116820180604052508101906137c891906155e0565b50505050505050505050565b6040805161014081018252858152825160208083019190915264e8d4a510008284015260d3546001600160a01b03908116606084015260f75416608083015260f25460a083015260f35460c083015260e0820185905260ec80548451818402810184019095528085526138969461010085019390929190830182828015612a0a576020028201919060005260206000209081546001600160a01b031681526001909101906020018083116129ec57505050918352505030602090910152613fc7565b60f7546040516370a0823160e01b81523060048201526000916001600160a01b0316906370a0823190602401602060405180830381865afa1580156138df573d6000803e3d6000fd5b505050506040513d601f19601f8201168201806040525081019061390391906155c7565b6040805160028082526060820183529293506000929091602083019080368337505060f75482519293506001600160a01b0316918391506000906139495761394961560e565b6001600160a01b03928316602091820292909201015260d55482519116908290600190811061397a5761397a61560e565b6001600160a01b03928316602091820292909201015260d95460f7546139a592908116911684613dd5565b604080516101408101825283815264e8d4a51000602082018190529181019190915260f7546001600160a01b03908116606083015260d55481166080830152600060a0830181905260c083015260e0820186905261010082018390528616610120820152613a1290613fc7565b505050505050565b60d45460d05460405163f3fef3a360e01b81526001600160a01b0391821660048201526024810184905291169063f3fef3a3906044015b600060405180830381600087803b158015613a6b57600080fd5b505af1158015613a7f573d6000803e3d6000fd5b5050505050565b6040516001600160a01b0380851660248301528316604482015260648101829052610ef09085906323b872dd60e01b906084015b60408051601f198184030181529190526020810180516001600160e01b03166001600160e01b0319909316929092179091526144dd565b6000613afd828461563a565b9392505050565b6000613afd8284615659565b6000613afd828461567b565b60cb5460ff16613b5a5760405162461bcd60e51b8152602060048201526009602482015268216661726d61626c6560b81b6044820152606401610df8565b60d0546040516370a0823160e01b81523060048201526000916001600160a01b0316906370a0823190602401602060405180830381865afa158015613ba3573d6000803e3d6000fd5b505050506040513d601f19601f82011682018060405250810190613bc791906155c7565b60e254909150613bd79082613b10565b60e25560d45460d054613bf7916001600160a01b03918216911683613dd5565b60d45460d0546040516311f9fbc960e21b81526001600160a01b039182166004820152602481018490529116906347e7ef2490604401613a51565b80516060908067ffffffffffffffff811115613c5057613c50614c86565b604051908082528060200260200182016040528015613c79578160200160208202803683370190505b50915060005b818161ffff161015613cff5783613ca98261ffff16612da760018851613d9990919063ffffffff16565b81518110613cb957613cb961560e565b6020026020010151838261ffff1681518110613cd757613cd761560e565b6001600160a01b0390921660209283029190910190910152613cf881615693565b9050613c7f565b5050919050565b60975460ff16613d4f5760405162461bcd60e51b815260206004820152601460248201527314185d5cd8589b194e881b9bdd081c185d5cd95960621b6044820152606401610df8565b6097805460ff191690557f5db9ee0a495bf2e6ff9c91a7834c1ba4fdd244a5e8aa4e537bd38aeae4b073aa335b6040516001600160a01b03909116815260200160405180910390a1565b6000613afd82846156b5565b6040516001600160a01b038316602482015260448101829052610dc990849063a9059cbb60e01b90606401613aba565b604051636eb1769f60e11b81523060048201526001600160a01b038381166024830152600091839186169063dd62ed3e90604401602060405180830381865afa158015613e26573d6000803e3d6000fd5b505050506040513d601f19601f82011682018060405250810190613e4a91906155c7565b613e54919061567b565b6040516001600160a01b038516602482015260448101829052909150610ef090859063095ea7b360e01b90606401613aba565b600080826001600160a01b031663313ce5676040518163ffffffff1660e01b8152600401602060405180830381865afa158015613ec8573d6000803e3d6000fd5b505050506040513d601f19601f82011682018060405250810190613eec91906156cc565b90506000836001600160a01b031663feaf968c6040518163ffffffff1660e01b815260040160a060405180830381865afa158015613f2e573d6000803e3d6000fd5b505050506040513d601f19601f82011682018060405250810190613f529190615703565b5050509150506000811215613fa25760405162461bcd60e51b81526020600482015260166024820152751b9959c81c1c9a58d95cc81b9bdd08185b1b1bddd95960521b6044820152606401610df8565b613fbf613fb083600a615837565b6110af8364e8d4a51000613af1565b949350505050565b60f85460608201516001600160a01b0390811691161480613ffa575060f85460808201516001600160a01b039081169116145b1561403d5760fa5481516060830151614021926001600160a01b0391821692911690613dd5565b60f95460fa54610f2e916001600160a01b0390911690836145af565b60d9548151606083015161405f926001600160a01b0391821692911690613dd5565b610f2e8160000151826020015183604001518460e0015185610100015186610120015161409761025842613b1090919063ffffffff16565b60d9546001600160a01b031696959493929190614768565b603380546001600160a01b038381166001600160a01b0319831681179093556040519116919082907f8be0079c531659141344cd1fd0a4f28419497f9722a3daafe3b4186f6b6457e090600090a35050565b60975460ff16156141245760405162461bcd60e51b8152600401610df89061554f565b6097805460ff191660011790557f62e78cea01bee320cd4e420270b5ea74000d11b0c9f74754ebdbfc544b05a258613d7c3390565b60d95460d354614176916001600160a01b03918216911685613dd5565b60408051610140810182528481528251602082015264e8d4a510009181019190915260d3546001600160a01b0390811660608381019190915260f754909116608083015260f25460a083015260f35460c083015260e08201849052610100820181905230610120830152906141ea90613fc7565b60d5546040516370a0823160e01b81523060048201526000916001600160a01b0316906370a0823190602401602060405180830381865afa158015614233573d6000803e3d6000fd5b505050506040513d601f19601f8201168201806040525081019061425791906155c7565b60d95460d554919250614277916001600160a01b03908116911683613dd5565b604080516101408101825282815264e8d4a51000602080830191909152858101518284015260d5546001600160a01b03908116606084015260ce54166080830152600060a0830181905260c083015260e0820187905260f58054845181840281018401909552808552613a7f946101008501939092919083018282801561432757602002820191906000526020600020905b81546001600160a01b03168152600190910190602001808311614309575b505050918352505060cf546001600160a01b0316602090910152613fc7565b600054610100900460ff1661436d5760405162461bcd60e51b8152600401610df890615846565b6115d96148d1565b600081156143c05760dc54156143c0576143a06127106110af60dc5485613af190919063ffffffff16565b60d75460d3549192506143c0916001600160a01b03908116911683613da5565b919050565b600080600060dd5411156143f1576143ee6127106110af60dd5488613af190919063ffffffff16565b91505b60de5415614417576144146127106110af60de5488613af190919063ffffffff16565b90505b60c95460ff161561443d5761442d828585613312565b614438818585614159565b6144d5565b61445d61444a8383613b10565b60cc546001600160a01b031686866137d4565b60cd5460ca5460405163464e3c8b60e01b815260048101919091526024810184905260448101839052606481018690526001600160a01b039091169063464e3c8b90608401600060405180830381600087803b1580156144bc57600080fd5b505af11580156144d0573d6000803e3d6000fd5b505050505b935093915050565b6000614532826040518060400160405280602081526020017f5361666545524332303a206c6f772d6c6576656c2063616c6c206661696c6564815250856001600160a01b03166149019092919063ffffffff16565b805190915015610dc957808060200190518101906145509190615891565b610dc95760405162461bcd60e51b815260206004820152602a60248201527f5361666545524332303a204552433230206f7065726174696f6e20646964206e6044820152691bdd081cdd58d8d9595960b21b6064820152608401610df8565b60008160200151600014806145c657506040820151155b15614604576145fd6145df6103e864e8d4a51000613af1565b6110af8460e001516110a96145f5898989614910565b875190613af1565b9050614637565b604082015161463490614619906103e8613af1565b60e0840151602085015185516110af92916110a99190613af1565b90505b836001600160a01b03166352bbbe296040518060c001604052808681526020016000600181111561466a5761466a6158ae565b815260200185606001516001600160a01b0316815260200185608001516001600160a01b0316815260200185600001518152602001604051806020016040528060008152508152506040518060800160405280306001600160a01b031681526020016000151581526020018661012001516001600160a01b03168152602001600015158152508461470661025842613b1090919063ffffffff16565b6040518563ffffffff1660e01b8152600401614725949392919061591c565b6020604051808303816000875af1158015614744573d6000803e3d6000fd5b505050506040513d601f19601f82011682018060405250810190613a7f91906155c7565b6000861580614775575085155b156148405760405163d06ca61f60e01b81526000906001600160a01b038b169063d06ca61f906147ab908c908990600401615a3e565b600060405180830381865afa1580156147c8573d6000803e3d6000fd5b505050506040513d6000823e601f3d908101601f191682016040526147f09190810190615a57565b90506148386103e86110af888461481260018751613d9990919063ffffffff16565b815181106148225761482261560e565b6020026020010151613af190919063ffffffff16565b915050614860565b61485d61484f876103e8613af1565b6110af876110a98c8c613af1565b90505b604051635c11d79560e01b81526001600160a01b038a1690635c11d79590614894908b908590899089908990600401615add565b600060405180830381600087803b1580156148ae57600080fd5b505af11580156148c2573d6000803e3d6000fd5b50505050505050505050505050565b600054610100900460ff166148f85760405162461bcd60e51b8152600401610df890615846565b6115d9336140af565b6060613fbf8484600085614a4f565b608081015160405163160bf1c960e31b8152600481018490526001600160a01b03918216602482015260009182919086169063b05f8e48906044016080604051808303816000875af115801561496a573d6000803e3d6000fd5b505050506040513d601f19601f8201168201806040525081019061498e9190615b19565b505050606084015160405163160bf1c960e31b8152600481018790526001600160a01b0391821660248201529192506000919087169063b05f8e48906044016080604051808303816000875af11580156149ec573d6000803e3d6000fd5b505050506040513d601f19601f82011682018060405250810190614a109190615b19565b5050509050612b98614a2f8560c0015183613af190919063ffffffff16565b6110af64e8d4a510006110a98860a0015187613af190919063ffffffff16565b606082471015614ab05760405162461bcd60e51b815260206004820152602660248201527f416464726573733a20696e73756666696369656e742062616c616e636520666f6044820152651c8818d85b1b60d21b6064820152608401610df8565b6001600160a01b0385163b614b075760405162461bcd60e51b815260206004820152601d60248201527f416464726573733a2063616c6c20746f206e6f6e2d636f6e74726163740000006044820152606401610df8565b600080866001600160a01b03168587604051614b239190615b5a565b60006040518083038185875af1925050503d8060008114614b60576040519150601f19603f3d011682016040523d82523d6000602084013e614b65565b606091505b5091509150614b75828286614b80565b979650505050505050565b60608315614b8f575081613afd565b825115614b9f5782518084602001fd5b8160405162461bcd60e51b8152600401610df89190615b76565b828054828255906000526020600020908101928215614c0e579160200282015b82811115614c0e57825182546001600160a01b0319166001600160a01b03909116178255602090920191600190910190614bd9565b50614c1a929150614c71565b5090565b828054828255906000526020600020908101928215614c0e579160200282015b82811115614c0e5781546001600160a01b0319166001600160a01b03843516178255602090920191600190910190614c3e565b5b80821115614c1a5760008155600101614c72565b634e487b7160e01b600052604160045260246000fd5b604051610200810167ffffffffffffffff81118282101715614cc057614cc0614c86565b60405290565b60405160a0810167ffffffffffffffff81118282101715614cc057614cc0614c86565b6040516101c0810167ffffffffffffffff81118282101715614cc057614cc0614c86565b604051601f8201601f1916810167ffffffffffffffff81118282101715614d3657614d36614c86565b604052919050565b600060608284031215614d5057600080fd5b6040516060810181811067ffffffffffffffff82111715614d7357614d73614c86565b80604052508091508235815260208301356020820152604083013560408201525092915050565b600080600060a08486031215614daf57600080fd5b8335925060208401359150614dc78560408601614d3e565b90509250925092565b6001600160a01b0381168114610f2e57600080fd5b80356143c081614dd0565b600060208284031215614e0257600080fd5b8135613afd81614dd0565b600060208284031215614e1f57600080fd5b5035919050565b8015158114610f2e57600080fd5b80356143c081614e26565b600060208284031215614e5157600080fd5b8135613afd81614e26565b60008060008060c08587031215614e7257600080fd5b843593506020850135614e8481614dd0565b925060408501359150614e9a8660608701614d3e565b905092959194509250565b60006102008284031215614eb857600080fd5b614ec0614c9c565b9050614ecb82614de5565b8152614ed960208301614de5565b6020820152614eea60408301614de5565b6040820152614efb60608301614de5565b6060820152614f0c60808301614de5565b6080820152614f1d60a08301614de5565b60a0820152614f2e60c08301614de5565b60c0820152614f3f60e08301614de5565b60e0820152610100614f52818401614de5565b90820152610120614f64838201614de5565b90820152610140614f76838201614de5565b90820152610160614f88838201614de5565b90820152610180614f9a838201614de5565b908201526101a0614fac838201614de5565b908201526101c0614fbe838201614de5565b908201526101e0614fd0838201614de5565b9082015292915050565b600067ffffffffffffffff821115614ff457614ff4614c86565b5060051b60200190565b600082601f83011261500f57600080fd5b8135602061502461501f83614fda565b614d0d565b82815260059290921b8401810191818101908684111561504357600080fd5b8286015b8481101561506757803561505a81614dd0565b8352918301918301615047565b509695505050505050565b600060a0828403121561508457600080fd5b61508c614cc6565b9050813581526020820135602082015260408201356040820152606082013560608201526080820135608082015292915050565b600060a082840312156150d257600080fd5b6150da614cc6565b905081356150e781614dd0565b815260208201356150f781614dd0565b6020820152604082013561510a81614dd0565b6040820152606082013561511d81614dd0565b6060820152608082013561513081614dd0565b608082015292915050565b6000806040838503121561514e57600080fd5b823561515981614dd0565b9150602083013567ffffffffffffffff8082111561517657600080fd5b908401906104a0828703121561518b57600080fd5b615193614ce9565b823581526151a360208401614e34565b60208201526151b460408401614e34565b60408201526151c68760608501614ea5565b6060820152610260830135828111156151de57600080fd5b6151ea88828601614ffe565b6080830152506102808301358281111561520357600080fd5b61520f88828601614ffe565b60a0830152506102a08301358281111561522857600080fd5b61523488828601614ffe565b60c0830152506102c08301358281111561524d57600080fd5b61525988828601614ffe565b60e0830152506102e08301358281111561527257600080fd5b61527e88828601614ffe565b610100830152506103008301358281111561529857600080fd5b6152a488828601614ffe565b61012083015250610320830135828111156152be57600080fd5b6152ca88828601614ffe565b61014083015250610340830135828111156152e457600080fd5b6152f088828601614ffe565b61016083015250615305876103608501615072565b6101808201526153198761040085016150c0565b6101a08201528093505050509250929050565b6000806040838503121561533f57600080fd5b50508035926020909101359150565b60008060006060848603121561536357600080fd5b833561536e81614dd0565b925060208401359150604084013561538581614dd0565b809150509250925092565b600080600080600060a086880312156153a857600080fd5b505083359560208501359550604085013594606081013594506080013592509050565b60ff81168114610f2e57600080fd5b6000806000604084860312156153ef57600080fd5b83356153fa816153cb565b9250602084013567ffffffffffffffff8082111561541757600080fd5b818601915086601f83011261542b57600080fd5b81358181111561543a57600080fd5b8760208260051b850101111561544f57600080fd5b6020830194508093505050509250925092565b6000806040838503121561547557600080fd5b8235615480816153cb565b9150602083013561549081614dd0565b809150509250929050565b6020808252818101527f4f776e61626c653a2063616c6c6572206973206e6f7420746865206f776e6572604082015260600190565b60208082526004908201526310b3b7bb60e11b604082015260600190565b60208082526010908201526f10bd37b93937a1b7b73a3937b63632b960811b604082015260600190565b6020808252601f908201527f5265656e7472616e637947756172643a207265656e7472616e742063616c6c00604082015260600190565b60208082526010908201526f14185d5cd8589b194e881c185d5cd95960821b604082015260600190565b6020808252602e908201527f496e697469616c697a61626c653a20636f6e747261637420697320616c72656160408201526d191e481a5b9a5d1a585b1a5e995960921b606082015260800190565b6000602082840312156155d957600080fd5b5051919050565b6000806000606084860312156155f557600080fd5b8351925060208401519150604084015190509250925092565b634e487b7160e01b600052603260045260246000fd5b634e487b7160e01b600052601160045260246000fd5b600081600019048311821515161561565457615654615624565b500290565b60008261567657634e487b7160e01b600052601260045260246000fd5b500490565b6000821982111561568e5761568e615624565b500190565b600061ffff808316818114156156ab576156ab615624565b6001019392505050565b6000828210156156c7576156c7615624565b500390565b6000602082840312156156de57600080fd5b8151613afd816153cb565b805169ffffffffffffffffffff811681146143c057600080fd5b600080600080600060a0868803121561571b57600080fd5b615724866156e9565b9450602086015193506040860151925060608601519150615747608087016156e9565b90509295509295909350565b600181815b8085111561578e57816000190482111561577457615774615624565b8085161561578157918102915b93841c9390800290615758565b509250929050565b6000826157a557506001611d1a565b816157b257506000611d1a565b81600181146157c857600281146157d2576157ee565b6001915050611d1a565b60ff8411156157e3576157e3615624565b50506001821b611d1a565b5060208310610133831016604e8410600b8410161715615811575081810a611d1a565b61581b8383615753565b806000190482111561582f5761582f615624565b029392505050565b6000613afd60ff841683615796565b6020808252602b908201527f496e697469616c697a61626c653a20636f6e7472616374206973206e6f74206960408201526a6e697469616c697a696e6760a81b606082015260800190565b6000602082840312156158a357600080fd5b8151613afd81614e26565b634e487b7160e01b600052602160045260246000fd5b60005b838110156158df5781810151838201526020016158c7565b83811115610ef05750506000910152565b600081518084526159088160208601602086016158c4565b601f01601f19169290920160200192915050565b60e08152845160e0820152600060208601516002811061594c57634e487b7160e01b600052602160045260246000fd5b61010083015260408601516001600160a01b031661012083015260608601516159816101408401826001600160a01b03169052565b50608086015161016083015260a086015160c06101808401526159a86101a08401826158f0565b9150506159e8602083018680516001600160a01b039081168352602080830151151590840152604080830151909116908301526060908101511515910152565b60a082019390935260c0015292915050565b600081518084526020808501945080840160005b83811015615a335781516001600160a01b031687529582019590820190600101615a0e565b509495945050505050565b828152604060208201526000613fbf60408301846159fa565b60006020808385031215615a6a57600080fd5b825167ffffffffffffffff811115615a8157600080fd5b8301601f81018513615a9257600080fd5b8051615aa061501f82614fda565b81815260059190911b82018301908381019087831115615abf57600080fd5b928401925b82841015614b7557835182529284019290840190615ac4565b85815284602082015260a060408201526000615afc60a08301866159fa565b6001600160a01b0394909416606083015250608001529392505050565b60008060008060808587031215615b2f57600080fd5b8451935060208501519250604085015191506060850151615b4f81614dd0565b939692955090935050565b60008251615b6c8184602087016158c4565b9190910192915050565b602081526000613afd60208301846158f056fea2646970667358221220a2597206c520b6dc93aee9f84d834740ed1ccfc936a1c87a9471a197a4d8da2564736f6c634300080a0033",
  "immutableReferences": {},
  "source": "// SPDX-License-Identifier: MIT\n\npragma solidity ^0.8.0;\n\nimport \"../VaultAcryptosSingle.sol\";\n\nimport \"../../tokens/mocks/MockToken.sol\";\n\n\ncontract MockVaultAcryptosSingle is VaultAcryptosSingle {\n    function unfarm(uint256 _wantAmt) public {\n        _unfarm(_wantAmt);\n    }\n    \n    function swapEarnedToUSDC(\n        uint256 _earnedAmount,\n        address _destination,\n        uint256 _maxMarketMovementAllowed,\n        ExchangeRates memory _rates\n    ) public {\n        _swapEarnedToUSDC(_earnedAmount, _destination, _maxMarketMovementAllowed, _rates);\n    }\n\n    function revShareOnChain(\n        uint256 _amount,\n        uint256 _maxMarketMovementAllowed,\n        ExchangeRates memory _rates\n    ) public {\n        _revShareOnChain(_amount, _maxMarketMovementAllowed, _rates);\n    }\n\n    function buybackOnChain(\n        uint256 _amount,\n        uint256 _maxMarketMovementAllowed,\n        ExchangeRates memory _rates\n    ) public {\n        _buybackOnChain(_amount, _maxMarketMovementAllowed, _rates);\n    }\n}\n\ncontract MockAcryptosVault is IAcryptosVault, MockERC20Upgradeable {\n    using SafeERC20Upgradeable for IERC20Upgradeable;\n\n    event AddedLiquidity(uint256 _amount, uint256 _liquidity);\n    event RemovedLiquidity(uint256 _amount);\n\n    address public token0;\n    address public burnAddress;\n\n    function setToken0Address(address _token) public {\n        token0 = _token;\n    }\n\n    function setBurnAddress(address _burn) public {\n        burnAddress = _burn;\n    }\n\n    function deposit(uint256 _amount) public {\n        IERC20Upgradeable(token0).safeTransferFrom(msg.sender, address(this), _amount);\n        uint256 _liquidity = 1 ether; // Hard code for tests\n        _mint(msg.sender, _liquidity);\n        emit AddedLiquidity(_amount, _liquidity);\n    }\n\n    function withdraw(uint256 _shares) public {\n        IERC20Upgradeable(address(this)).safeTransferFrom(msg.sender, burnAddress, _shares);\n        uint256 _withdrawalAmt = 2 ether; // Hard code for tests\n        IMockERC20Upgradeable(token0).mint(msg.sender, _withdrawalAmt);\n        emit RemovedLiquidity(_withdrawalAmt);\n    }\n}\n\ncontract MockAcryptosFarm is IAcryptosFarm, MockERC20Upgradeable {\n    using SafeERC20Upgradeable for IERC20Upgradeable;\n\n    event Deposited(address indexed _want, uint256 indexed _amount);\n    event Withdrew(address indexed _want, uint256 indexed _amount);\n\n    address public burnAddress;\n    address public wantToken;\n\n    function setWantAddress(address _wantToken) public {\n        wantToken = _wantToken;\n    }\n\n    function setBurnAddress(address _burnAddress) public {\n        burnAddress = _burnAddress;\n    }\n\n    function deposit(address _lpToken, uint256 _amount) public {\n        IERC20Upgradeable(wantToken).safeTransferFrom(msg.sender, burnAddress, _amount);\n        emit Deposited(_lpToken, _amount);\n    }\n\n    function withdraw(address _lpToken, uint256 _amount) public {\n        IMockERC20Upgradeable(wantToken).mint(msg.sender, _amount);\n        emit Withdrew(_lpToken, _amount);\n    }\n}\n\ncontract MockBUSD is MockERC20Upgradeable {}\ncontract MockACS is MockERC20Upgradeable {}",
  "sourcePath": "/Users/kristophm/Documents/workspace/zorro-protocol/contracts/vaults/mocks/MockVaultAcryptosSingle.sol",
  "compiler": {
    "name": "solc",
    "version": "0.8.10+commit.fc410830.Emscripten.clang"
  },
  "schemaVersion": "3.4.4",
  "updatedAt": "2022-07-17T22:29:03.522Z",
  "devdoc": {
    "kind": "dev",
    "methods": {
      "depositWantToken(uint256)": {
        "params": {
          "_wantAmt": "amount of Want token to deposit/stake"
        },
        "returns": {
          "sharesAdded": "uint256 Number of shares added"
        }
      },
      "earn(uint256)": {
        "params": {
          "_maxMarketMovementAllowed": "The max slippage allowed. 1000 = 0 %, 995 = 0.5%, etc."
        }
      },
      "exchangeUSDForWantToken(uint256,uint256)": {
        "params": {
          "_amountUSDC": "The USDC quantity to exchange (must already be deposited)",
          "_maxMarketMovementAllowed": "The max slippage allowed. 1000 = 0 %, 995 = 0.5%, etc."
        },
        "returns": {
          "_0": "uint256 Amount of Want token obtained"
        }
      },
      "exchangeWantTokenForUSD(uint256,uint256)": {
        "params": {
          "_amount": "The Want token quantity to exchange (must be deposited beforehand)",
          "_maxMarketMovementAllowed": "The max slippage allowed for swaps. 1000 = 0 %, 995 = 0.5%, etc."
        },
        "returns": {
          "_0": "uint256 Amount of USDC token obtained"
        }
      },
      "inCaseTokensGetStuck(address,uint256,address)": {
        "params": {
          "_amount": "The amount of the tokens to transfer",
          "_to": "The address to transfer tokens to",
          "_token": "Address of the ERC20 token to transfer"
        }
      },
      "initialize(address,(uint256,bool,bool,(address,address,address,address,address,address,address,address,address,address,address,address,address,address,address,address),address[],address[],address[],address[],address[],address[],address[],address[],(uint256,uint256,uint256,uint256,uint256),(address,address,address,address,address)))": {
        "params": {
          "_initValue": "A VaultAcryptosSingleInit struct containing all init values",
          "_timelockOwner": "The designated timelock controller address to act as owner"
        }
      },
      "owner()": {
        "details": "Returns the address of the current owner."
      },
      "paused()": {
        "details": "Returns true if the contract is paused, and false otherwise."
      },
      "renounceOwnership()": {
        "details": "Leaves the contract without owner. It will not be possible to call `onlyOwner` functions anymore. Can only be called by the current owner. NOTE: Renouncing ownership will leave the contract without an owner, thereby removing any functionality that is only available to the owner."
      },
      "setFeeSettings(uint256,uint256,uint256,uint256,uint256)": {
        "params": {
          "_buyBackRate": "Buy back rate fee numerator",
          "_controllerFee": "Controller fee numerator",
          "_entranceFeeFactor": "Entrance fee numerator (higher means smaller percentage)",
          "_revShareRate": "Rev share rate fee numerator",
          "_withdrawFeeFactor": "Withdrawal fee numerator (higher means smaller percentage)"
        }
      },
      "setGov(address)": {
        "params": {
          "_govAddress": "The new gov address"
        }
      },
      "setOnlyGov(bool)": {
        "params": {
          "_onlyGov": "whether onlyGov should be enforced"
        }
      },
      "transferOwnership(address)": {
        "details": "Transfers ownership of the contract to a new account (`newOwner`). Can only be called by the current owner."
      },
      "withdrawWantToken(uint256)": {
        "params": {
          "_wantAmt": "The amount of Want token to withdraw"
        },
        "returns": {
          "sharesRemoved": "The number of shares removed"
        }
      }
    },
    "version": 1
  },
  "userdoc": {
    "kind": "user",
    "methods": {
      "depositWantToken(uint256)": {
        "notice": "Receives new deposits from user"
      },
      "earn(uint256)": {
        "notice": "The main compounding (earn) function. Reinvests profits since the last earn event."
      },
      "exchangeUSDForWantToken(uint256,uint256)": {
        "notice": "Performs necessary operations to convert USDC into Want token"
      },
      "exchangeWantTokenForUSD(uint256,uint256)": {
        "notice": "Converts Want token back into USD to be ready for withdrawal and transfers to sender"
      },
      "farm()": {
        "notice": "Public function for farming Want token."
      },
      "inCaseTokensGetStuck(address,uint256,address)": {
        "notice": "Safely transfer ERC20 tokens stuck in this contract to a specified address"
      },
      "initialize(address,(uint256,bool,bool,(address,address,address,address,address,address,address,address,address,address,address,address,address,address,address,address),address[],address[],address[],address[],address[],address[],address[],address[],(uint256,uint256,uint256,uint256,uint256),(address,address,address,address,address)))": {
        "notice": "Upgradeable constructor"
      },
      "pause()": {
        "notice": "Pause contract"
      },
      "setFeeSettings(uint256,uint256,uint256,uint256,uint256)": {
        "notice": "Configure key fee parameters"
      },
      "setGov(address)": {
        "notice": "Set governor address"
      },
      "setOnlyGov(bool)": {
        "notice": "Set onlyGov property"
      },
      "unpause()": {
        "notice": "Unpause contract"
      },
      "withdrawWantToken(uint256)": {
        "notice": "Fully withdraw Want tokens from the Farm contract (100% withdrawals only)"
      }
    },
    "version": 1
  }
}