{
  "contractName": "MockVaultAcryptosSingle",
  "abi": [
    {
      "anonymous": false,
      "inputs": [
        {
          "indexed": true,
          "internalType": "uint256",
          "name": "_amount",
          "type": "uint256"
        }
      ],
      "name": "Buyback",
      "type": "event"
    },
    {
      "anonymous": false,
      "inputs": [
        {
          "indexed": true,
          "internalType": "address",
          "name": "previousOwner",
          "type": "address"
        },
        {
          "indexed": true,
          "internalType": "address",
          "name": "newOwner",
          "type": "address"
        }
      ],
      "name": "OwnershipTransferred",
      "type": "event"
    },
    {
      "anonymous": false,
      "inputs": [
        {
          "indexed": false,
          "internalType": "address",
          "name": "account",
          "type": "address"
        }
      ],
      "name": "Paused",
      "type": "event"
    },
    {
      "anonymous": false,
      "inputs": [
        {
          "indexed": true,
          "internalType": "uint256",
          "name": "_amount",
          "type": "uint256"
        }
      ],
      "name": "RevShare",
      "type": "event"
    },
    {
      "anonymous": false,
      "inputs": [
        {
          "indexed": false,
          "internalType": "address",
          "name": "_govAddress",
          "type": "address"
        }
      ],
      "name": "SetGov",
      "type": "event"
    },
    {
      "anonymous": false,
      "inputs": [
        {
          "indexed": false,
          "internalType": "bool",
          "name": "_onlyGov",
          "type": "bool"
        }
      ],
      "name": "SetOnlyGov",
      "type": "event"
    },
    {
      "anonymous": false,
      "inputs": [
        {
          "indexed": false,
          "internalType": "address",
          "name": "_rewardsAddress",
          "type": "address"
        }
      ],
      "name": "SetRewardsAddress",
      "type": "event"
    },
    {
      "anonymous": false,
      "inputs": [
        {
          "indexed": false,
          "internalType": "uint256",
          "name": "_entranceFeeFactor",
          "type": "uint256"
        },
        {
          "indexed": false,
          "internalType": "uint256",
          "name": "_withdrawFeeFactor",
          "type": "uint256"
        },
        {
          "indexed": false,
          "internalType": "uint256",
          "name": "_controllerFee",
          "type": "uint256"
        },
        {
          "indexed": false,
          "internalType": "uint256",
          "name": "_buyBackRate",
          "type": "uint256"
        },
        {
          "indexed": false,
          "internalType": "uint256",
          "name": "_revShareRate",
          "type": "uint256"
        }
      ],
      "name": "SetSettings",
      "type": "event"
    },
    {
      "anonymous": false,
      "inputs": [
        {
          "indexed": false,
          "internalType": "address",
          "name": "_uniRouterAddress",
          "type": "address"
        }
      ],
      "name": "SetUniRouterAddress",
      "type": "event"
    },
    {
      "anonymous": false,
      "inputs": [
        {
          "indexed": false,
          "internalType": "address",
          "name": "account",
          "type": "address"
        }
      ],
      "name": "Unpaused",
      "type": "event"
    },
    {
      "inputs": [
        {
          "internalType": "uint256",
          "name": "",
          "type": "uint256"
        }
      ],
      "name": "BUSDToLPPoolOtherTokenPath",
      "outputs": [
        {
          "internalType": "address",
          "name": "",
          "type": "address"
        }
      ],
      "stateMutability": "view",
      "type": "function"
    },
    {
      "inputs": [
        {
          "internalType": "uint256",
          "name": "",
          "type": "uint256"
        }
      ],
      "name": "BUSDToToken0Path",
      "outputs": [
        {
          "internalType": "address",
          "name": "",
          "type": "address"
        }
      ],
      "stateMutability": "view",
      "type": "function"
    },
    {
      "inputs": [
        {
          "internalType": "uint256",
          "name": "",
          "type": "uint256"
        }
      ],
      "name": "BUSDToZORROPath",
      "outputs": [
        {
          "internalType": "address",
          "name": "",
          "type": "address"
        }
      ],
      "stateMutability": "view",
      "type": "function"
    },
    {
      "inputs": [
        {
          "internalType": "uint256",
          "name": "",
          "type": "uint256"
        }
      ],
      "name": "USDCToToken0Path",
      "outputs": [
        {
          "internalType": "address",
          "name": "",
          "type": "address"
        }
      ],
      "stateMutability": "view",
      "type": "function"
    },
    {
      "inputs": [
        {
          "internalType": "uint256",
          "name": "",
          "type": "uint256"
        }
      ],
      "name": "USDCToToken1Path",
      "outputs": [
        {
          "internalType": "address",
          "name": "",
          "type": "address"
        }
      ],
      "stateMutability": "view",
      "type": "function"
    },
    {
      "inputs": [],
      "name": "ZORPriceFeed",
      "outputs": [
        {
          "internalType": "contract AggregatorV3Interface",
          "name": "",
          "type": "address"
        }
      ],
      "stateMutability": "view",
      "type": "function"
    },
    {
      "inputs": [],
      "name": "ZORROAddress",
      "outputs": [
        {
          "internalType": "address",
          "name": "",
          "type": "address"
        }
      ],
      "stateMutability": "view",
      "type": "function"
    },
    {
      "inputs": [],
      "name": "balancerACSWeightBasisPoints",
      "outputs": [
        {
          "internalType": "uint256",
          "name": "",
          "type": "uint256"
        }
      ],
      "stateMutability": "view",
      "type": "function"
    },
    {
      "inputs": [],
      "name": "balancerBUSDWeightBasisPoints",
      "outputs": [
        {
          "internalType": "uint256",
          "name": "",
          "type": "uint256"
        }
      ],
      "stateMutability": "view",
      "type": "function"
    },
    {
      "inputs": [],
      "name": "balancerPool",
      "outputs": [
        {
          "internalType": "bytes32",
          "name": "",
          "type": "bytes32"
        }
      ],
      "stateMutability": "view",
      "type": "function"
    },
    {
      "inputs": [],
      "name": "balancerVaultAddress",
      "outputs": [
        {
          "internalType": "address",
          "name": "",
          "type": "address"
        }
      ],
      "stateMutability": "view",
      "type": "function"
    },
    {
      "inputs": [],
      "name": "burnAddress",
      "outputs": [
        {
          "internalType": "address",
          "name": "",
          "type": "address"
        }
      ],
      "stateMutability": "view",
      "type": "function"
    },
    {
      "inputs": [],
      "name": "buyBackRate",
      "outputs": [
        {
          "internalType": "uint256",
          "name": "",
          "type": "uint256"
        }
      ],
      "stateMutability": "view",
      "type": "function"
    },
    {
      "inputs": [],
      "name": "buyBackRateMax",
      "outputs": [
        {
          "internalType": "uint256",
          "name": "",
          "type": "uint256"
        }
      ],
      "stateMutability": "view",
      "type": "function"
    },
    {
      "inputs": [],
      "name": "buyBackRateUL",
      "outputs": [
        {
          "internalType": "uint256",
          "name": "",
          "type": "uint256"
        }
      ],
      "stateMutability": "view",
      "type": "function"
    },
    {
      "inputs": [],
      "name": "controllerFee",
      "outputs": [
        {
          "internalType": "uint256",
          "name": "",
          "type": "uint256"
        }
      ],
      "stateMutability": "view",
      "type": "function"
    },
    {
      "inputs": [],
      "name": "controllerFeeMax",
      "outputs": [
        {
          "internalType": "uint256",
          "name": "",
          "type": "uint256"
        }
      ],
      "stateMutability": "view",
      "type": "function"
    },
    {
      "inputs": [],
      "name": "controllerFeeUL",
      "outputs": [
        {
          "internalType": "uint256",
          "name": "",
          "type": "uint256"
        }
      ],
      "stateMutability": "view",
      "type": "function"
    },
    {
      "inputs": [
        {
          "internalType": "uint256",
          "name": "_wantAmt",
          "type": "uint256"
        }
      ],
      "name": "depositWantToken",
      "outputs": [
        {
          "internalType": "uint256",
          "name": "sharesAdded",
          "type": "uint256"
        }
      ],
      "stateMutability": "nonpayable",
      "type": "function"
    },
    {
      "inputs": [
        {
          "internalType": "uint256",
          "name": "_maxMarketMovementAllowed",
          "type": "uint256"
        }
      ],
      "name": "earn",
      "outputs": [],
      "stateMutability": "nonpayable",
      "type": "function"
    },
    {
      "inputs": [],
      "name": "earnTokenPriceFeed",
      "outputs": [
        {
          "internalType": "contract AggregatorV3Interface",
          "name": "",
          "type": "address"
        }
      ],
      "stateMutability": "view",
      "type": "function"
    },
    {
      "inputs": [],
      "name": "earnedAddress",
      "outputs": [
        {
          "internalType": "address",
          "name": "",
          "type": "address"
        }
      ],
      "stateMutability": "view",
      "type": "function"
    },
    {
      "inputs": [
        {
          "internalType": "uint256",
          "name": "",
          "type": "uint256"
        }
      ],
      "name": "earnedToToken0Path",
      "outputs": [
        {
          "internalType": "address",
          "name": "",
          "type": "address"
        }
      ],
      "stateMutability": "view",
      "type": "function"
    },
    {
      "inputs": [
        {
          "internalType": "uint256",
          "name": "",
          "type": "uint256"
        }
      ],
      "name": "earnedToToken1Path",
      "outputs": [
        {
          "internalType": "address",
          "name": "",
          "type": "address"
        }
      ],
      "stateMutability": "view",
      "type": "function"
    },
    {
      "inputs": [
        {
          "internalType": "uint256",
          "name": "",
          "type": "uint256"
        }
      ],
      "name": "earnedToUSDCPath",
      "outputs": [
        {
          "internalType": "address",
          "name": "",
          "type": "address"
        }
      ],
      "stateMutability": "view",
      "type": "function"
    },
    {
      "inputs": [
        {
          "internalType": "uint256",
          "name": "",
          "type": "uint256"
        }
      ],
      "name": "earnedToZORLPPoolOtherTokenPath",
      "outputs": [
        {
          "internalType": "address",
          "name": "",
          "type": "address"
        }
      ],
      "stateMutability": "view",
      "type": "function"
    },
    {
      "inputs": [
        {
          "internalType": "uint256",
          "name": "",
          "type": "uint256"
        }
      ],
      "name": "earnedToZORROPath",
      "outputs": [
        {
          "internalType": "address",
          "name": "",
          "type": "address"
        }
      ],
      "stateMutability": "view",
      "type": "function"
    },
    {
      "inputs": [],
      "name": "entranceFeeFactor",
      "outputs": [
        {
          "internalType": "uint256",
          "name": "",
          "type": "uint256"
        }
      ],
      "stateMutability": "view",
      "type": "function"
    },
    {
      "inputs": [],
      "name": "entranceFeeFactorLL",
      "outputs": [
        {
          "internalType": "uint256",
          "name": "",
          "type": "uint256"
        }
      ],
      "stateMutability": "view",
      "type": "function"
    },
    {
      "inputs": [],
      "name": "entranceFeeFactorMax",
      "outputs": [
        {
          "internalType": "uint256",
          "name": "",
          "type": "uint256"
        }
      ],
      "stateMutability": "view",
      "type": "function"
    },
    {
      "inputs": [
        {
          "internalType": "uint256",
          "name": "_amountUSDC",
          "type": "uint256"
        },
        {
          "internalType": "uint256",
          "name": "_maxMarketMovementAllowed",
          "type": "uint256"
        }
      ],
      "name": "exchangeUSDForWantToken",
      "outputs": [
        {
          "internalType": "uint256",
          "name": "",
          "type": "uint256"
        }
      ],
      "stateMutability": "nonpayable",
      "type": "function"
    },
    {
      "inputs": [
        {
          "internalType": "uint256",
          "name": "_amount",
          "type": "uint256"
        },
        {
          "internalType": "uint256",
          "name": "_maxMarketMovementAllowed",
          "type": "uint256"
        }
      ],
      "name": "exchangeWantTokenForUSD",
      "outputs": [
        {
          "internalType": "uint256",
          "name": "",
          "type": "uint256"
        }
      ],
      "stateMutability": "nonpayable",
      "type": "function"
    },
    {
      "inputs": [],
      "name": "farm",
      "outputs": [],
      "stateMutability": "nonpayable",
      "type": "function"
    },
    {
      "inputs": [],
      "name": "farmContractAddress",
      "outputs": [
        {
          "internalType": "address",
          "name": "",
          "type": "address"
        }
      ],
      "stateMutability": "view",
      "type": "function"
    },
    {
      "inputs": [],
      "name": "govAddress",
      "outputs": [
        {
          "internalType": "address",
          "name": "",
          "type": "address"
        }
      ],
      "stateMutability": "view",
      "type": "function"
    },
    {
      "inputs": [
        {
          "internalType": "address",
          "name": "_token",
          "type": "address"
        },
        {
          "internalType": "uint256",
          "name": "_amount",
          "type": "uint256"
        },
        {
          "internalType": "address",
          "name": "_to",
          "type": "address"
        }
      ],
      "name": "inCaseTokensGetStuck",
      "outputs": [],
      "stateMutability": "nonpayable",
      "type": "function"
    },
    {
      "inputs": [
        {
          "internalType": "address",
          "name": "_timelockOwner",
          "type": "address"
        },
        {
          "components": [
            {
              "internalType": "uint256",
              "name": "pid",
              "type": "uint256"
            },
            {
              "internalType": "bool",
              "name": "isHomeChain",
              "type": "bool"
            },
            {
              "internalType": "bool",
              "name": "isFarmable",
              "type": "bool"
            },
            {
              "components": [
                {
                  "internalType": "address",
                  "name": "govAddress",
                  "type": "address"
                },
                {
                  "internalType": "address",
                  "name": "zorroControllerAddress",
                  "type": "address"
                },
                {
                  "internalType": "address",
                  "name": "zorroXChainController",
                  "type": "address"
                },
                {
                  "internalType": "address",
                  "name": "ZORROAddress",
                  "type": "address"
                },
                {
                  "internalType": "address",
                  "name": "zorroStakingVault",
                  "type": "address"
                },
                {
                  "internalType": "address",
                  "name": "wantAddress",
                  "type": "address"
                },
                {
                  "internalType": "address",
                  "name": "token0Address",
                  "type": "address"
                },
                {
                  "internalType": "address",
                  "name": "token1Address",
                  "type": "address"
                },
                {
                  "internalType": "address",
                  "name": "earnedAddress",
                  "type": "address"
                },
                {
                  "internalType": "address",
                  "name": "farmContractAddress",
                  "type": "address"
                },
                {
                  "internalType": "address",
                  "name": "rewardsAddress",
                  "type": "address"
                },
                {
                  "internalType": "address",
                  "name": "poolAddress",
                  "type": "address"
                },
                {
                  "internalType": "address",
                  "name": "uniRouterAddress",
                  "type": "address"
                },
                {
                  "internalType": "address",
                  "name": "zorroLPPool",
                  "type": "address"
                },
                {
                  "internalType": "address",
                  "name": "zorroLPPoolOtherToken",
                  "type": "address"
                },
                {
                  "internalType": "address",
                  "name": "tokenUSDCAddress",
                  "type": "address"
                }
              ],
              "internalType": "struct VaultLibrary.VaultAddresses",
              "name": "keyAddresses",
              "type": "tuple"
            },
            {
              "internalType": "address[]",
              "name": "earnedToZORROPath",
              "type": "address[]"
            },
            {
              "internalType": "address[]",
              "name": "earnedToToken0Path",
              "type": "address[]"
            },
            {
              "internalType": "address[]",
              "name": "USDCToToken0Path",
              "type": "address[]"
            },
            {
              "internalType": "address[]",
              "name": "earnedToZORLPPoolOtherTokenPath",
              "type": "address[]"
            },
            {
              "internalType": "address[]",
              "name": "earnedToUSDCPath",
              "type": "address[]"
            },
            {
              "internalType": "address[]",
              "name": "BUSDToToken0Path",
              "type": "address[]"
            },
            {
              "internalType": "address[]",
              "name": "BUSDToZORROPath",
              "type": "address[]"
            },
            {
              "internalType": "address[]",
              "name": "BUSDToLPPoolOtherTokenPath",
              "type": "address[]"
            },
            {
              "components": [
                {
                  "internalType": "uint256",
                  "name": "controllerFee",
                  "type": "uint256"
                },
                {
                  "internalType": "uint256",
                  "name": "buyBackRate",
                  "type": "uint256"
                },
                {
                  "internalType": "uint256",
                  "name": "revShareRate",
                  "type": "uint256"
                },
                {
                  "internalType": "uint256",
                  "name": "entranceFeeFactor",
                  "type": "uint256"
                },
                {
                  "internalType": "uint256",
                  "name": "withdrawFeeFactor",
                  "type": "uint256"
                }
              ],
              "internalType": "struct VaultLibrary.VaultFees",
              "name": "fees",
              "type": "tuple"
            },
            {
              "components": [
                {
                  "internalType": "address",
                  "name": "token0PriceFeed",
                  "type": "address"
                },
                {
                  "internalType": "address",
                  "name": "token1PriceFeed",
                  "type": "address"
                },
                {
                  "internalType": "address",
                  "name": "earnTokenPriceFeed",
                  "type": "address"
                },
                {
                  "internalType": "address",
                  "name": "ZORPriceFeed",
                  "type": "address"
                },
                {
                  "internalType": "address",
                  "name": "lpPoolOtherTokenPriceFeed",
                  "type": "address"
                },
                {
                  "internalType": "address",
                  "name": "stablecoinPriceFeed",
                  "type": "address"
                }
              ],
              "internalType": "struct VaultLibrary.VaultPriceFeeds",
              "name": "priceFeeds",
              "type": "tuple"
            },
            {
              "internalType": "address",
              "name": "tokenBUSDPriceFeed",
              "type": "address"
            }
          ],
          "internalType": "struct VaultAcryptosSingle.VaultAcryptosSingleInit",
          "name": "_initValue",
          "type": "tuple"
        }
      ],
      "name": "initialize",
      "outputs": [],
      "stateMutability": "nonpayable",
      "type": "function"
    },
    {
      "inputs": [
        {
          "internalType": "address",
          "name": "_timelockOwner",
          "type": "address"
        }
      ],
      "name": "initialize",
      "outputs": [],
      "stateMutability": "nonpayable",
      "type": "function"
    },
    {
      "inputs": [],
      "name": "isFarmable",
      "outputs": [
        {
          "internalType": "bool",
          "name": "",
          "type": "bool"
        }
      ],
      "stateMutability": "view",
      "type": "function"
    },
    {
      "inputs": [],
      "name": "isHomeChain",
      "outputs": [
        {
          "internalType": "bool",
          "name": "",
          "type": "bool"
        }
      ],
      "stateMutability": "view",
      "type": "function"
    },
    {
      "inputs": [],
      "name": "lastEarnBlock",
      "outputs": [
        {
          "internalType": "uint256",
          "name": "",
          "type": "uint256"
        }
      ],
      "stateMutability": "view",
      "type": "function"
    },
    {
      "inputs": [],
      "name": "lpPoolOtherTokenPriceFeed",
      "outputs": [
        {
          "internalType": "contract AggregatorV3Interface",
          "name": "",
          "type": "address"
        }
      ],
      "stateMutability": "view",
      "type": "function"
    },
    {
      "inputs": [],
      "name": "onlyGov",
      "outputs": [
        {
          "internalType": "bool",
          "name": "",
          "type": "bool"
        }
      ],
      "stateMutability": "view",
      "type": "function"
    },
    {
      "inputs": [],
      "name": "owner",
      "outputs": [
        {
          "internalType": "address",
          "name": "",
          "type": "address"
        }
      ],
      "stateMutability": "view",
      "type": "function"
    },
    {
      "inputs": [],
      "name": "pause",
      "outputs": [],
      "stateMutability": "nonpayable",
      "type": "function"
    },
    {
      "inputs": [],
      "name": "paused",
      "outputs": [
        {
          "internalType": "bool",
          "name": "",
          "type": "bool"
        }
      ],
      "stateMutability": "view",
      "type": "function"
    },
    {
      "inputs": [],
      "name": "pid",
      "outputs": [
        {
          "internalType": "uint256",
          "name": "",
          "type": "uint256"
        }
      ],
      "stateMutability": "view",
      "type": "function"
    },
    {
      "inputs": [],
      "name": "poolAddress",
      "outputs": [
        {
          "internalType": "address",
          "name": "",
          "type": "address"
        }
      ],
      "stateMutability": "view",
      "type": "function"
    },
    {
      "inputs": [],
      "name": "renounceOwnership",
      "outputs": [],
      "stateMutability": "nonpayable",
      "type": "function"
    },
    {
      "inputs": [],
      "name": "revShareRate",
      "outputs": [
        {
          "internalType": "uint256",
          "name": "",
          "type": "uint256"
        }
      ],
      "stateMutability": "view",
      "type": "function"
    },
    {
      "inputs": [],
      "name": "revShareRateMax",
      "outputs": [
        {
          "internalType": "uint256",
          "name": "",
          "type": "uint256"
        }
      ],
      "stateMutability": "view",
      "type": "function"
    },
    {
      "inputs": [],
      "name": "revShareRateUL",
      "outputs": [
        {
          "internalType": "uint256",
          "name": "",
          "type": "uint256"
        }
      ],
      "stateMutability": "view",
      "type": "function"
    },
    {
      "inputs": [],
      "name": "rewardsAddress",
      "outputs": [
        {
          "internalType": "address",
          "name": "",
          "type": "address"
        }
      ],
      "stateMutability": "view",
      "type": "function"
    },
    {
      "inputs": [
        {
          "internalType": "address",
          "name": "_token",
          "type": "address"
        }
      ],
      "name": "setACS",
      "outputs": [],
      "stateMutability": "nonpayable",
      "type": "function"
    },
    {
      "inputs": [
        {
          "internalType": "address",
          "name": "_token",
          "type": "address"
        }
      ],
      "name": "setBUSD",
      "outputs": [],
      "stateMutability": "nonpayable",
      "type": "function"
    },
    {
      "inputs": [
        {
          "internalType": "uint8",
          "name": "_idx",
          "type": "uint8"
        },
        {
          "internalType": "address[]",
          "name": "_path",
          "type": "address[]"
        }
      ],
      "name": "setBUSDSwapPaths",
      "outputs": [],
      "stateMutability": "nonpayable",
      "type": "function"
    },
    {
      "inputs": [
        {
          "internalType": "bytes32",
          "name": "_pool",
          "type": "bytes32"
        }
      ],
      "name": "setBalancerPool",
      "outputs": [],
      "stateMutability": "nonpayable",
      "type": "function"
    },
    {
      "inputs": [
        {
          "internalType": "address",
          "name": "_vault",
          "type": "address"
        }
      ],
      "name": "setBalancerVaultAddress",
      "outputs": [],
      "stateMutability": "nonpayable",
      "type": "function"
    },
    {
      "inputs": [
        {
          "internalType": "uint256",
          "name": "_acsWeight",
          "type": "uint256"
        },
        {
          "internalType": "uint256",
          "name": "_busdWeight",
          "type": "uint256"
        }
      ],
      "name": "setBalancerWeights",
      "outputs": [],
      "stateMutability": "nonpayable",
      "type": "function"
    },
    {
      "inputs": [
        {
          "internalType": "address",
          "name": "_burnAddress",
          "type": "address"
        }
      ],
      "name": "setBurnAddress",
      "outputs": [],
      "stateMutability": "nonpayable",
      "type": "function"
    },
    {
      "inputs": [
        {
          "internalType": "address",
          "name": "_earnedAddress",
          "type": "address"
        }
      ],
      "name": "setEarnedAddress",
      "outputs": [],
      "stateMutability": "nonpayable",
      "type": "function"
    },
    {
      "inputs": [
        {
          "internalType": "address",
          "name": "_farmContractAddress",
          "type": "address"
        }
      ],
      "name": "setFarmContractAddress",
      "outputs": [],
      "stateMutability": "nonpayable",
      "type": "function"
    },
    {
      "inputs": [
        {
          "internalType": "uint256",
          "name": "_entranceFeeFactor",
          "type": "uint256"
        },
        {
          "internalType": "uint256",
          "name": "_withdrawFeeFactor",
          "type": "uint256"
        },
        {
          "internalType": "uint256",
          "name": "_controllerFee",
          "type": "uint256"
        },
        {
          "internalType": "uint256",
          "name": "_buyBackRate",
          "type": "uint256"
        },
        {
          "internalType": "uint256",
          "name": "_revShareRate",
          "type": "uint256"
        }
      ],
      "name": "setFeeSettings",
      "outputs": [],
      "stateMutability": "nonpayable",
      "type": "function"
    },
    {
      "inputs": [
        {
          "internalType": "address",
          "name": "_govAddress",
          "type": "address"
        }
      ],
      "name": "setGov",
      "outputs": [],
      "stateMutability": "nonpayable",
      "type": "function"
    },
    {
      "inputs": [
        {
          "internalType": "bool",
          "name": "_isFarmable",
          "type": "bool"
        }
      ],
      "name": "setIsFarmable",
      "outputs": [],
      "stateMutability": "nonpayable",
      "type": "function"
    },
    {
      "inputs": [
        {
          "internalType": "bool",
          "name": "_onlyGov",
          "type": "bool"
        }
      ],
      "name": "setOnlyGov",
      "outputs": [],
      "stateMutability": "nonpayable",
      "type": "function"
    },
    {
      "inputs": [
        {
          "internalType": "uint256",
          "name": "_pid",
          "type": "uint256"
        }
      ],
      "name": "setPid",
      "outputs": [],
      "stateMutability": "nonpayable",
      "type": "function"
    },
    {
      "inputs": [
        {
          "internalType": "address",
          "name": "_poolAddress",
          "type": "address"
        }
      ],
      "name": "setPoolAddress",
      "outputs": [],
      "stateMutability": "nonpayable",
      "type": "function"
    },
    {
      "inputs": [
        {
          "internalType": "uint8",
          "name": "_idx",
          "type": "uint8"
        },
        {
          "internalType": "address",
          "name": "_priceFeed",
          "type": "address"
        }
      ],
      "name": "setPriceFeed",
      "outputs": [],
      "stateMutability": "nonpayable",
      "type": "function"
    },
    {
      "inputs": [
        {
          "internalType": "address",
          "name": "_rewardsAddress",
          "type": "address"
        }
      ],
      "name": "setRewardsAddress",
      "outputs": [],
      "stateMutability": "nonpayable",
      "type": "function"
    },
    {
      "inputs": [
        {
          "internalType": "uint8",
          "name": "_idx",
          "type": "uint8"
        },
        {
          "internalType": "address[]",
          "name": "_path",
          "type": "address[]"
        }
      ],
      "name": "setSwapPaths",
      "outputs": [],
      "stateMutability": "nonpayable",
      "type": "function"
    },
    {
      "inputs": [
        {
          "internalType": "address",
          "name": "_token0Address",
          "type": "address"
        }
      ],
      "name": "setToken0Address",
      "outputs": [],
      "stateMutability": "nonpayable",
      "type": "function"
    },
    {
      "inputs": [
        {
          "internalType": "address",
          "name": "_token1Address",
          "type": "address"
        }
      ],
      "name": "setToken1Address",
      "outputs": [],
      "stateMutability": "nonpayable",
      "type": "function"
    },
    {
      "inputs": [
        {
          "internalType": "address",
          "name": "_priceFeed",
          "type": "address"
        }
      ],
      "name": "setTokenBUSDPriceFeed",
      "outputs": [],
      "stateMutability": "nonpayable",
      "type": "function"
    },
    {
      "inputs": [
        {
          "internalType": "address",
          "name": "_tokenUSDCAddress",
          "type": "address"
        }
      ],
      "name": "setTokenUSDCAddress",
      "outputs": [],
      "stateMutability": "nonpayable",
      "type": "function"
    },
    {
      "inputs": [
        {
          "internalType": "address",
          "name": "_uniRouterAddress",
          "type": "address"
        }
      ],
      "name": "setUniRouterAddress",
      "outputs": [],
      "stateMutability": "nonpayable",
      "type": "function"
    },
    {
      "inputs": [
        {
          "internalType": "address",
          "name": "_wantAddress",
          "type": "address"
        }
      ],
      "name": "setWantAddress",
      "outputs": [],
      "stateMutability": "nonpayable",
      "type": "function"
    },
    {
      "inputs": [
        {
          "internalType": "address",
          "name": "_ZORROAddress",
          "type": "address"
        }
      ],
      "name": "setZORROAddress",
      "outputs": [],
      "stateMutability": "nonpayable",
      "type": "function"
    },
    {
      "inputs": [
        {
          "internalType": "address",
          "name": "_zorroControllerAddress",
          "type": "address"
        }
      ],
      "name": "setZorroControllerAddress",
      "outputs": [],
      "stateMutability": "nonpayable",
      "type": "function"
    },
    {
      "inputs": [
        {
          "internalType": "address",
          "name": "_poolAddress",
          "type": "address"
        }
      ],
      "name": "setZorroLPPoolAddress",
      "outputs": [],
      "stateMutability": "nonpayable",
      "type": "function"
    },
    {
      "inputs": [
        {
          "internalType": "address",
          "name": "_otherToken",
          "type": "address"
        }
      ],
      "name": "setZorroLPPoolOtherToken",
      "outputs": [],
      "stateMutability": "nonpayable",
      "type": "function"
    },
    {
      "inputs": [
        {
          "internalType": "address",
          "name": "_stakingVault",
          "type": "address"
        }
      ],
      "name": "setZorroStakingVault",
      "outputs": [],
      "stateMutability": "nonpayable",
      "type": "function"
    },
    {
      "inputs": [
        {
          "internalType": "address",
          "name": "_zorroXChainController",
          "type": "address"
        }
      ],
      "name": "setZorroXChainControllerAddress",
      "outputs": [],
      "stateMutability": "nonpayable",
      "type": "function"
    },
    {
      "inputs": [],
      "name": "sharesTotal",
      "outputs": [
        {
          "internalType": "uint256",
          "name": "",
          "type": "uint256"
        }
      ],
      "stateMutability": "view",
      "type": "function"
    },
    {
      "inputs": [],
      "name": "stablecoinPriceFeed",
      "outputs": [
        {
          "internalType": "contract AggregatorV3Interface",
          "name": "",
          "type": "address"
        }
      ],
      "stateMutability": "view",
      "type": "function"
    },
    {
      "inputs": [],
      "name": "token0Address",
      "outputs": [
        {
          "internalType": "address",
          "name": "",
          "type": "address"
        }
      ],
      "stateMutability": "view",
      "type": "function"
    },
    {
      "inputs": [],
      "name": "token0PriceFeed",
      "outputs": [
        {
          "internalType": "contract AggregatorV3Interface",
          "name": "",
          "type": "address"
        }
      ],
      "stateMutability": "view",
      "type": "function"
    },
    {
      "inputs": [
        {
          "internalType": "uint256",
          "name": "",
          "type": "uint256"
        }
      ],
      "name": "token0ToUSDCPath",
      "outputs": [
        {
          "internalType": "address",
          "name": "",
          "type": "address"
        }
      ],
      "stateMutability": "view",
      "type": "function"
    },
    {
      "inputs": [],
      "name": "token1Address",
      "outputs": [
        {
          "internalType": "address",
          "name": "",
          "type": "address"
        }
      ],
      "stateMutability": "view",
      "type": "function"
    },
    {
      "inputs": [],
      "name": "token1PriceFeed",
      "outputs": [
        {
          "internalType": "contract AggregatorV3Interface",
          "name": "",
          "type": "address"
        }
      ],
      "stateMutability": "view",
      "type": "function"
    },
    {
      "inputs": [
        {
          "internalType": "uint256",
          "name": "",
          "type": "uint256"
        }
      ],
      "name": "token1ToUSDCPath",
      "outputs": [
        {
          "internalType": "address",
          "name": "",
          "type": "address"
        }
      ],
      "stateMutability": "view",
      "type": "function"
    },
    {
      "inputs": [],
      "name": "tokenACS",
      "outputs": [
        {
          "internalType": "address",
          "name": "",
          "type": "address"
        }
      ],
      "stateMutability": "view",
      "type": "function"
    },
    {
      "inputs": [],
      "name": "tokenBUSD",
      "outputs": [
        {
          "internalType": "address",
          "name": "",
          "type": "address"
        }
      ],
      "stateMutability": "view",
      "type": "function"
    },
    {
      "inputs": [],
      "name": "tokenBUSDPriceFeed",
      "outputs": [
        {
          "internalType": "contract AggregatorV3Interface",
          "name": "",
          "type": "address"
        }
      ],
      "stateMutability": "view",
      "type": "function"
    },
    {
      "inputs": [],
      "name": "tokenUSDCAddress",
      "outputs": [
        {
          "internalType": "address",
          "name": "",
          "type": "address"
        }
      ],
      "stateMutability": "view",
      "type": "function"
    },
    {
      "inputs": [
        {
          "internalType": "address",
          "name": "newOwner",
          "type": "address"
        }
      ],
      "name": "transferOwnership",
      "outputs": [],
      "stateMutability": "nonpayable",
      "type": "function"
    },
    {
      "inputs": [],
      "name": "uniRouterAddress",
      "outputs": [
        {
          "internalType": "address",
          "name": "",
          "type": "address"
        }
      ],
      "stateMutability": "view",
      "type": "function"
    },
    {
      "inputs": [],
      "name": "unpause",
      "outputs": [],
      "stateMutability": "nonpayable",
      "type": "function"
    },
    {
      "inputs": [],
      "name": "wantAddress",
      "outputs": [
        {
          "internalType": "address",
          "name": "",
          "type": "address"
        }
      ],
      "stateMutability": "view",
      "type": "function"
    },
    {
      "inputs": [],
      "name": "wantLockedTotal",
      "outputs": [
        {
          "internalType": "uint256",
          "name": "",
          "type": "uint256"
        }
      ],
      "stateMutability": "view",
      "type": "function"
    },
    {
      "inputs": [],
      "name": "withdrawFeeFactor",
      "outputs": [
        {
          "internalType": "uint256",
          "name": "",
          "type": "uint256"
        }
      ],
      "stateMutability": "view",
      "type": "function"
    },
    {
      "inputs": [],
      "name": "withdrawFeeFactorLL",
      "outputs": [
        {
          "internalType": "uint256",
          "name": "",
          "type": "uint256"
        }
      ],
      "stateMutability": "view",
      "type": "function"
    },
    {
      "inputs": [],
      "name": "withdrawFeeFactorMax",
      "outputs": [
        {
          "internalType": "uint256",
          "name": "",
          "type": "uint256"
        }
      ],
      "stateMutability": "view",
      "type": "function"
    },
    {
      "inputs": [
        {
          "internalType": "uint256",
          "name": "_wantAmt",
          "type": "uint256"
        }
      ],
      "name": "withdrawWantToken",
      "outputs": [
        {
          "internalType": "uint256",
          "name": "sharesRemoved",
          "type": "uint256"
        }
      ],
      "stateMutability": "nonpayable",
      "type": "function"
    },
    {
      "inputs": [],
      "name": "zorroControllerAddress",
      "outputs": [
        {
          "internalType": "address",
          "name": "",
          "type": "address"
        }
      ],
      "stateMutability": "view",
      "type": "function"
    },
    {
      "inputs": [],
      "name": "zorroLPPool",
      "outputs": [
        {
          "internalType": "address",
          "name": "",
          "type": "address"
        }
      ],
      "stateMutability": "view",
      "type": "function"
    },
    {
      "inputs": [],
      "name": "zorroLPPoolOtherToken",
      "outputs": [
        {
          "internalType": "address",
          "name": "",
          "type": "address"
        }
      ],
      "stateMutability": "view",
      "type": "function"
    },
    {
      "inputs": [],
      "name": "zorroStakingVault",
      "outputs": [
        {
          "internalType": "address",
          "name": "",
          "type": "address"
        }
      ],
      "stateMutability": "view",
      "type": "function"
    },
    {
      "inputs": [],
      "name": "zorroXChainController",
      "outputs": [
        {
          "internalType": "address",
          "name": "",
          "type": "address"
        }
      ],
      "stateMutability": "view",
      "type": "function"
    },
    {
      "inputs": [
        {
          "internalType": "uint256",
          "name": "_wantAmt",
          "type": "uint256"
        }
      ],
      "name": "unfarm",
      "outputs": [],
      "stateMutability": "nonpayable",
      "type": "function"
    },
    {
      "inputs": [
        {
          "internalType": "uint256",
          "name": "_earnedAmount",
          "type": "uint256"
        },
        {
          "internalType": "address",
          "name": "_destination",
          "type": "address"
        },
        {
          "internalType": "uint256",
          "name": "_maxMarketMovementAllowed",
          "type": "uint256"
        },
        {
          "components": [
            {
              "internalType": "uint256",
              "name": "earn",
              "type": "uint256"
            },
            {
              "internalType": "uint256",
              "name": "ZOR",
              "type": "uint256"
            },
            {
              "internalType": "uint256",
              "name": "lpPoolOtherToken",
              "type": "uint256"
            },
            {
              "internalType": "uint256",
              "name": "stablecoin",
              "type": "uint256"
            }
          ],
          "internalType": "struct VaultLibrary.ExchangeRates",
          "name": "_rates",
          "type": "tuple"
        }
      ],
      "name": "swapEarnedToUSDC",
      "outputs": [],
      "stateMutability": "nonpayable",
      "type": "function"
    },
    {
      "inputs": [
        {
          "internalType": "uint256",
          "name": "_amount",
          "type": "uint256"
        },
        {
          "internalType": "uint256",
          "name": "_maxMarketMovementAllowed",
          "type": "uint256"
        },
        {
          "components": [
            {
              "internalType": "uint256",
              "name": "earn",
              "type": "uint256"
            },
            {
              "internalType": "uint256",
              "name": "ZOR",
              "type": "uint256"
            },
            {
              "internalType": "uint256",
              "name": "lpPoolOtherToken",
              "type": "uint256"
            },
            {
              "internalType": "uint256",
              "name": "stablecoin",
              "type": "uint256"
            }
          ],
          "internalType": "struct VaultLibrary.ExchangeRates",
          "name": "_rates",
          "type": "tuple"
        }
      ],
      "name": "revShareOnChain",
      "outputs": [],
      "stateMutability": "nonpayable",
      "type": "function"
    },
    {
      "inputs": [
        {
          "internalType": "uint256",
          "name": "_amount",
          "type": "uint256"
        },
        {
          "internalType": "uint256",
          "name": "_maxMarketMovementAllowed",
          "type": "uint256"
        },
        {
          "components": [
            {
              "internalType": "uint256",
              "name": "earn",
              "type": "uint256"
            },
            {
              "internalType": "uint256",
              "name": "ZOR",
              "type": "uint256"
            },
            {
              "internalType": "uint256",
              "name": "lpPoolOtherToken",
              "type": "uint256"
            },
            {
              "internalType": "uint256",
              "name": "stablecoin",
              "type": "uint256"
            }
          ],
          "internalType": "struct VaultLibrary.ExchangeRates",
          "name": "_rates",
          "type": "tuple"
        }
      ],
      "name": "buybackOnChain",
      "outputs": [],
      "stateMutability": "nonpayable",
      "type": "function"
    }
  ],
  "bytecode": "0x608060405234801561001057600080fd5b50615e4b80620000216000396000f3fe608060405234801561001057600080fd5b50600436106106eb5760003560e01c80637fe37d3311610392578063c2dfdcd2116101e9578063e71984741161011a578063f05c09b3116100b8578063f4c6f49711610087578063f4c6f49714610ded578063f5046a2914610e00578063fbf5683f14610e13578063ff29b39514610e2657600080fd5b8063f05c09b314610db1578063f106845414610dbe578063f25342bf14610dc7578063f2fde38b14610dda57600080fd5b8063ebfba7c4116100f4578063ebfba7c414610d7e578063ec69ae1c14610d91578063edf5e58514610da4578063ee50dc341461084957600080fd5b8063e719847414610d45578063e7a0367914610d58578063e9e15b4f14610d6b57600080fd5b8063cfad57a211610187578063db31640c11610161578063db31640c14610cf9578063de84199114610d0c578063e502a88d14610d1f578063e65a011714610d3257600080fd5b8063cfad57a214610cc0578063d732f8db14610cd3578063d7cb416f14610ce657600080fd5b8063c5c97cbf116101c3578063c5c97cbf14610c74578063c6efd57714610c87578063c8479cd614610c9a578063c8e3d18b14610cad57600080fd5b8063c2dfdcd214610c58578063c302a4d014610ae8578063c4d66de814610c6157600080fd5b80639f703a56116102c3578063b1414dbb11610261578063b73cba2a1161023b578063b73cba2a14610c0c578063b86c5f5314610c1f578063bf3a7d4014610c32578063c0973eed14610c4557600080fd5b8063b1414dbb14610be6578063b2740cb414610bf9578063b3545c011461070557600080fd5b8063aabf190b1161029d578063aabf190b14610b9a578063aada5bf614610bad578063ab196def14610bc0578063ae53e58a14610bd357600080fd5b80639f703a5614610b615780639fc33a9f14610b74578063a4d2b08314610b8757600080fd5b8063866b201811610330578063959334f41161030a578063959334f414610b1557806396e9aff814610b285780639805f01b14610b3b578063995125cf14610b4e57600080fd5b8063866b201814610ae85780638906758d14610af15780638da5cb5b14610b0457600080fd5b80638456cb591161036c5780638456cb5914610ab15780638460adc914610ab9578063858c5b6814610acc57806385f02dd614610adf57600080fd5b80637fe37d3314610a825780637ff36fbe14610a8b57806383f0193914610a9e57600080fd5b80634c5b09da11610546578063648794a41161047757806370d5ae05116104155780637153ef86116103ef5780637153ef8614610a40578063776da47014610a5357806379eb16d114610a5c5780637bf604d814610a6f57600080fd5b806370d5ae0514610a1257806370e842a114610a25578063715018a614610a3857600080fd5b806368f541621161045157806368f54162146109d0578063693a090b146109d95780636ca8bd65146109ec5780636f96f6fa146109ff57600080fd5b8063648794a4146109aa57806367057b6c1461084957806367206d40146109bd57600080fd5b8063583bda3b116104e45780635fc77d43116104be5780635fc77d431461095e5780636183e8041461097157806361b5bf9f146109845780636392ab121461099757600080fd5b8063583bda3b1461092d5780635c975abb146109405780635da79d631461094b57600080fd5b80634e2cb8b6116105205780634e2cb8b6146108e157806355ebedec146108f4578063563397d714610907578063567e07c91461091a57600080fd5b80634c5b09da146108bb5780634ce54ddb146108ce5780634d9f7bb21461084957600080fd5b80631e12819a116106205780633f4ba83a116105be57806344a3955e1161059857806344a3955e1461087457806346008a071461087d578063482d98f3146108955780634b0e7216146108a857600080fd5b80633f4ba83a1461086357806342da4eb31461086b57806343788cd21461084957600080fd5b80632209b59e116105fa5780632209b59e146108365780632717eff3146108495780633214471f1461085257806336e9332d1461085b57600080fd5b80631e12819a14610810578063211019d714610705578063213ef7f71461082357600080fd5b80630fa4e01e1161068d5780631755ff21116106675780631755ff21146107ce578063178a8d07146107e15780631b0d8aab146107ea5780631c885bae146107fd57600080fd5b80630fa4e01e146107a9578063127b5bbb146107b25780631334903f146107c557600080fd5b80630a868404116106c95780630a8684041461074c5780630b6bb30b1461075f5780630c51b79b146107725780630daef3211461078557600080fd5b806305828d3e146106f0578063061c7d48146107055780630919b34c14610721575b600080fd5b6107036106fe366004614bc2565b610e39565b005b61070e6103e881565b6040519081526020015b60405180910390f35b60fc54610734906001600160a01b031681565b6040516001600160a01b039091168152602001610718565b61073461075a366004614bdf565b610e8e565b61070361076d366004614c11565b610eb8565b610703610780366004614d29565b610f3f565b60cb5461079990600160a81b900460ff1681565b6040519015158152602001610718565b61070e60e15481565b6107346107c0366004614bdf565b610f4f565b61070e60df5481565b60d854610734906001600160a01b031681565b61070e60dd5481565b6107036107f8366004614bdf565b610f5f565b61070361080b366004614bdf565b610f8e565b61070361081e366004614bc2565b610f9a565b60f854610734906001600160a01b031681565b61070e610844366004614bdf565b610fe6565b61070e61271081565b61070e60de5481565b610703611164565b61070361119b565b61070e60e25481565b61070e60e35481565b60cb546107349061010090046001600160a01b031681565b6107036108a3366004614d5f565b6111d4565b6107036108b6366004614bc2565b6111e6565b6107036108c9366004614bc2565b611232565b60d554610734906001600160a01b031681565b6107346108ef366004614bdf565b61127e565b61070e610902366004614bdf565b61128e565b60f954610734906001600160a01b031681565b610703610928366004614bc2565b611486565b61070361093b366004614bc2565b6114d2565b60975460ff16610799565b610703610959366004614bc2565b61151e565b60cd54610734906001600160a01b031681565b61070361097f366004614bc2565b61156a565b610703610992366004614bc2565b6115b6565b6107346109a5366004614bdf565b611602565b61070e6109b8366004614da8565b611612565b6107036109cb366004614dca565b6117d9565b61070e60e05481565b60d954610734906001600160a01b031681565b6107036109fa366004614bc2565b6118a8565b60ef54610734906001600160a01b031681565b60d654610734906001600160a01b031681565b60fb54610734906001600160a01b031681565b6107036118f4565b610703610a4e366004614e0c565b611928565b61070e60fa5481565b610703610a6a366004614bc2565b611bf5565b60da54610734906001600160a01b031681565b61070e60f45481565b60d154610734906001600160a01b031681565b610703610aac366004614c11565b611c41565b610703611c7e565b610703610ac7366004614da8565b611cb5565b610703610ada366004614e56565b611cea565b61070e60dc5481565b61070e61232881565b610703610aff366004614bc2565b611da0565b6033546001600160a01b0316610734565b610703610b23366004614bc2565b611dec565b610734610b36366004614bdf565b611e38565b610703610b49366004614bc2565b611e48565b610703610b5c3660046151ca565b611e94565b610734610b6f366004614bdf565b612347565b60d454610734906001600160a01b031681565b60cf54610734906001600160a01b031681565b60f054610734906001600160a01b031681565b60f254610734906001600160a01b031681565b60f154610734906001600160a01b031681565b60ee54610734906001600160a01b031681565b60cc54610734906001600160a01b031681565b610703610c07366004614bdf565b612357565b610703610c1a366004614bc2565b612386565b610734610c2d366004614bdf565b6123d2565b610703610c40366004614bc2565b6123e2565b60d754610734906001600160a01b031681565b61070e60f35481565b610703610c6f366004614bc2565b61242e565b610734610c82366004614bdf565b6124c6565b610734610c95366004614bdf565b6124d6565b610703610ca8366004614bc2565b6124e6565b610734610cbb366004614bdf565b612532565b610703610cce366004614bc2565b612542565b610703610ce1366004614bc2565b6125c7565b60d254610734906001600160a01b031681565b610734610d07366004614bdf565b612613565b610703610d1a3660046153ce565b612623565b61070e610d2d366004614da8565b612796565b610703610d40366004614bdf565b612918565b60d354610734906001600160a01b031681565b60d054610734906001600160a01b031681565b610703610d79366004614bc2565b6130bf565b60db54610734906001600160a01b031681565b610703610d9f366004614bc2565b61310b565b60c9546107999060ff1681565b60cb546107999060ff1681565b61070e60ca5481565b60ed54610734906001600160a01b031681565b610703610de8366004614bc2565b613157565b610703610dfb366004614d29565b6131ef565b60ce54610734906001600160a01b031681565b610734610e21366004614bdf565b6131fa565b610703610e34366004614e56565b61320a565b6033546001600160a01b03163314610e6c5760405162461bcd60e51b8152600401610e6390615407565b60405180910390fd5b60d280546001600160a01b0319166001600160a01b0392909216919091179055565b60f58181548110610e9e57600080fd5b6000918252602090912001546001600160a01b0316905081565b60cb5461010090046001600160a01b03163314610ee75760405162461bcd60e51b8152600401610e639061543c565b60cb8054821515600160a81b0260ff60a81b199091161790556040517f125177ac7b8930dac1e59c2b30b1b6b9191b30af40cf6bbb5d20fec4d44be60f90610f3490831515815260200190565b60405180910390a150565b610f4a838383613308565b505050565b60f78181548110610e9e57600080fd5b6033546001600160a01b03163314610f895760405162461bcd60e51b8152600401610e6390615407565b60ca55565b610f9781613b0c565b50565b6033546001600160a01b03163314610fc45760405162461bcd60e51b8152600401610e6390615407565b60d580546001600160a01b0319166001600160a01b0392909216919091179055565b60cc546000906001600160a01b0316336001600160a01b03161461101c5760405162461bcd60e51b8152600401610e639061545a565b6002606554141561103f5760405162461bcd60e51b8152600401610e6390615484565b600260655560975460ff16156110675760405162461bcd60e51b8152600401610e63906154bb565b600082116110b75760405162461bcd60e51b815260206004820152601e60248201527f57616e7420746f6b656e206465706f736974206d757374206265203e203000006044820152606401610e63565b60d0546110cf906001600160a01b0316333085613b78565b819050600060e2541180156110e65750600060e354115b156111215761111e61271061111860e25461111860df5461111260e35489613be390919063ffffffff16565b90613be3565b90613bef565b90505b60e35461112e9082613bfb565b60e35560cb5460ff161561114957611144613c07565b61115a565b60e2546111569083613bfb565b60e2555b6001606555919050565b600260655414156111875760405162461bcd60e51b8152600401610e6390615484565b6002606555611194613c07565b6001606555565b60cb5461010090046001600160a01b031633146111ca5760405162461bcd60e51b8152600401610e639061543c565b6111d2613d1d565b565b6111e084848484613db0565b50505050565b6033546001600160a01b031633146112105760405162461bcd60e51b8152600401610e6390615407565b60d680546001600160a01b0319166001600160a01b0392909216919091179055565b6033546001600160a01b0316331461125c5760405162461bcd60e51b8152600401610e6390615407565b60d480546001600160a01b0319166001600160a01b0392909216919091179055565b60e78181548110610e9e57600080fd5b60cc546000906001600160a01b0316336001600160a01b0316146112c45760405162461bcd60e51b8152600401610e639061545a565b600260655414156112e75760405162461bcd60e51b8152600401610e6390615484565b600260655560975460ff161561130f5760405162461bcd60e51b8152600401610e63906154bb565b600082116113495760405162461bcd60e51b81526020600482015260076024820152661b9959d5d85b9d60ca1b6044820152606401610e63565b61136460e25461111860e35485613be390919063ffffffff16565b905060e354811115611375575060e3545b60e3546113829082613efb565b60e35560e05461271011156113af576113ac61271061111860e05485613be390919063ffffffff16565b91505b60cb5460ff16156113c3576113c382613b0c565b60d0546040516370a0823160e01b81523060048201526000916001600160a01b0316906370a0823190602401602060405180830381865afa15801561140c573d6000803e3d6000fd5b505050506040513d601f19601f8201168201806040525081019061143091906154e5565b90508083111561143e578092505b8260e254101561144e5760e25492505b60e25461145b9084613efb565b60e25560cc5460d05461147b916001600160a01b03918216911685613f07565b506001606555919050565b6033546001600160a01b031633146114b05760405162461bcd60e51b8152600401610e6390615407565b60cd80546001600160a01b0319166001600160a01b0392909216919091179055565b6033546001600160a01b031633146114fc5760405162461bcd60e51b8152600401610e6390615407565b60ce80546001600160a01b0319166001600160a01b0392909216919091179055565b6033546001600160a01b031633146115485760405162461bcd60e51b8152600401610e6390615407565b60d980546001600160a01b0319166001600160a01b0392909216919091179055565b6033546001600160a01b031633146115945760405162461bcd60e51b8152600401610e6390615407565b60d080546001600160a01b0319166001600160a01b0392909216919091179055565b6033546001600160a01b031633146115e05760405162461bcd60e51b8152600401610e6390615407565b60da80546001600160a01b0319166001600160a01b0392909216919091179055565b60ea8181548110610e9e57600080fd5b60cc546000906001600160a01b0316336001600160a01b0316146116485760405162461bcd60e51b8152600401610e639061545a565b60975460ff161561166b5760405162461bcd60e51b8152600401610e63906154bb565b604080516101608101825260d1546001600160a01b03908116825260d554811660208084019190915260f95482168385015260d0548216606084015260d8548216608084015260ed54821660a084015260f25490911660c083015260e6805484518184028101840190955280855273__VaultLibraryAcryptosSingle____________94632d68eab7948994909360e0850193909183018282801561173957602002820191906000526020600020905b81546001600160a01b0316815260019091019060200180831161171b575b505050918352505060d9546001600160a01b03908116602083015260fb541660408083019190915260fa54606090920191909152516001600160e01b031960e085901b16815261178f9291908790600401615542565b602060405180830381865af41580156117ac573d6000803e3d6000fd5b505050506040513d601f19601f820116820180604052508101906117d091906154e5565b90505b92915050565b60cb5461010090046001600160a01b031633146118085760405162461bcd60e51b8152600401610e639061543c565b60d3546001600160a01b038481169116141561184e5760405162461bcd60e51b8152602060048201526005602482015264217361666560d81b6044820152606401610e63565b60d0546001600160a01b03848116911614156118945760405162461bcd60e51b8152602060048201526005602482015264217361666560d81b6044820152606401610e63565b610f4a6001600160a01b0384168284613f07565b6033546001600160a01b031633146118d25760405162461bcd60e51b8152600401610e6390615407565b60cf80546001600160a01b0319166001600160a01b0392909216919091179055565b6033546001600160a01b0316331461191e5760405162461bcd60e51b8152600401610e6390615407565b6111d26000613f37565b60cb5461010090046001600160a01b031633146119575760405162461bcd60e51b8152600401610e639061543c565b6123288510156119a95760405162461bcd60e51b815260206004820152601a60248201527f5f656e7472616e6365466565466163746f7220746f6f206c6f770000000000006044820152606401610e63565b6127108511156119fb5760405162461bcd60e51b815260206004820152601b60248201527f5f656e7472616e6365466565466163746f7220746f6f206869676800000000006044820152606401610e63565b60df859055612328841015611a525760405162461bcd60e51b815260206004820152601a60248201527f5f7769746864726177466565466163746f7220746f6f206c6f770000000000006044820152606401610e63565b612710841115611aa45760405162461bcd60e51b815260206004820152601b60248201527f5f7769746864726177466565466163746f7220746f6f206869676800000000006044820152606401610e63565b60e08490556103e8831115611afb5760405162461bcd60e51b815260206004820152601760248201527f5f636f6e74726f6c6c657246656520746f6f20686967680000000000000000006044820152606401610e63565b60dc8390556103e8821115611b4a5760405162461bcd60e51b81526020600482015260156024820152740bec4eaf284c2c6d6a4c2e8ca40e8dede40d0d2ced605b1b6044820152606401610e63565b60dd8290556103e8811115611b9a5760405162461bcd60e51b81526020600482015260166024820152750bee4caeca6d0c2e4caa4c2e8ca40e8dede40d0d2ced60531b6044820152606401610e63565b60de819055604080518681526020810186905290810184905260608101839052608081018290527fc67e0b149a57a70fa44a531a46c2c6d8e0b242fa12f459f250012c3a5987d29a9060a00160405180910390a15050505050565b6033546001600160a01b03163314611c1f5760405162461bcd60e51b8152600401610e6390615407565b60f980546001600160a01b0319166001600160a01b0392909216919091179055565b6033546001600160a01b03163314611c6b5760405162461bcd60e51b8152600401610e6390615407565b60cb805460ff1916911515919091179055565b60cb5461010090046001600160a01b03163314611cad5760405162461bcd60e51b8152600401610e639061543c565b6111d2613f89565b6033546001600160a01b03163314611cdf5760405162461bcd60e51b8152600401610e6390615407565b60f39190915560f455565b6033546001600160a01b03163314611d145760405162461bcd60e51b8152600401610e6390615407565b60ff8316611d28576111e060f58383614ad5565b8260ff1660011415611d40576111e060f68383614ad5565b8260ff1660021415611d58576111e060f78383614ad5565b60405162461bcd60e51b815260206004820152601960248201527f756e737570706f727465642069647820737761702070617468000000000000006044820152606401610e63565b6033546001600160a01b03163314611dca5760405162461bcd60e51b8152600401610e6390615407565b60d780546001600160a01b0319166001600160a01b0392909216919091179055565b6033546001600160a01b03163314611e165760405162461bcd60e51b8152600401610e6390615407565b60db80546001600160a01b0319166001600160a01b0392909216919091179055565b60e98181548110610e9e57600080fd5b6033546001600160a01b03163314611e725760405162461bcd60e51b8152600401610e6390615407565b60f880546001600160a01b0319166001600160a01b0392909216919091179055565b600054610100900460ff16611eaf5760005460ff1615611eb3565b303b155b611ecf5760405162461bcd60e51b8152600401610e639061564e565b600054610100900460ff16158015611ef1576000805461ffff19166101011790555b815160ca5560208083015160c9805460ff191691151591909117905560408084015160cb80546060808801518051600160a81b6001600160a81b0319909416951515610100600160a81b031916959095176101006001600160a01b0396871681029190911760ff60a81b1916939093179093558286015160cc80546001600160a01b03199081169287169290921790558386015160cd805483169187169190911790558382015160ce8054831691871691909117905560808085015160cf8054841691881691909117905560a085015160d08054841691881691909117905560c085015160d1805484169188169190911790559284015160d38054831691871691909117905561012084015160d48054831691871691909117905561014084015160d78054831691871691909117905561016084015160d8805483169187169190911790556101808085015160d9805484169188169190911790556101a085015160da805484169188169190911790556101c085015160db805484169188169190911790556101e09094015160d580548316919096161790945560f8805473e9e7cea3dedca5984780bafc599bd69add087d569086161790557f894ed9026de37afd9cce1e6c0be7d6b510e3ffe500010000000000000000000160fa5560fb805473a82f327bbbf0667356d2935c6532d164b06ceced90861617905560f98054734197c6ef3879a08cd51e5560da5064b773aa1d29951694909417909355601e60f355600a60f45590860151805160dc558085015160dd559283015160de559082015160df559081015160e05583015180516121519260ea920190614b38565b5060a0820151805161216b9160e891602090910190614b38565b5060c082015180516121859160e491602090910190614b38565b5060e0820151805161219f9160eb91602090910190614b38565b5061010082015180516121ba9160ec91602090910190614b38565b5061012082015180516121d59160f591602090910190614b38565b5061014082015180516121f09160f691602090910190614b38565b50610160820151805161220b9160f791602090910190614b38565b506040516345a62d7760e11b815273__VaultLibrary__________________________90638b4c5aee906122449060e49060040161569c565b600060405180830381865af4158015612261573d6000803e3d6000fd5b505050506040513d6000823e601f3d908101601f1916820160405261228991908101906156ec565b805161229d9160e691602090910190614b38565b506101a0820151805160ed80546001600160a01b03199081166001600160a01b0393841617909155604083015160ef80548316918416919091179055608083015160f080548316918416919091179055606083015160f18054831691841691909117905560a09092015160f2805484169183169190911790556101c084015160fc805490931691161790556123318361242e565b8015610f4a576000805461ff0019169055505050565b60ec8181548110610e9e57600080fd5b6033546001600160a01b031633146123815760405162461bcd60e51b8152600401610e6390615407565b60fa55565b6033546001600160a01b031633146123b05760405162461bcd60e51b8152600401610e6390615407565b60d380546001600160a01b0319166001600160a01b0392909216919091179055565b60e48181548110610e9e57600080fd5b6033546001600160a01b0316331461240c5760405162461bcd60e51b8152600401610e6390615407565b60cc80546001600160a01b0319166001600160a01b0392909216919091179055565b600054610100900460ff166124495760005460ff161561244d565b303b155b6124695760405162461bcd60e51b8152600401610e639061564e565b600054610100900460ff1615801561248b576000805461ffff19166101011790555b612493613fe1565b61249c82613157565b60d680546001600160a01b03191661dead17905580156124c2576000805461ff00191690555b5050565b60e58181548110610e9e57600080fd5b60e68181548110610e9e57600080fd5b6033546001600160a01b031633146125105760405162461bcd60e51b8152600401610e6390615407565b60d180546001600160a01b0319166001600160a01b0392909216919091179055565b60e88181548110610e9e57600080fd5b60cb5461010090046001600160a01b031633146125715760405162461bcd60e51b8152600401610e639061543c565b60cb8054610100600160a81b0319166101006001600160a01b038416908102919091179091556040519081527f91a8c1cc2d4a3bb60738481947a00cbb9899c822916694cf8bb1d68172fdcd5490602001610f34565b6033546001600160a01b031633146125f15760405162461bcd60e51b8152600401610e6390615407565b60fc80546001600160a01b0319166001600160a01b0392909216919091179055565b60f68181548110610e9e57600080fd5b6033546001600160a01b0316331461264d5760405162461bcd60e51b8152600401610e6390615407565b60ff82166126765760ed80546001600160a01b0383166001600160a01b03199091161790555050565b8160ff16600114156126a35760ee80546001600160a01b0383166001600160a01b03199091161790555050565b8160ff16600214156126d05760ef80546001600160a01b0383166001600160a01b03199091161790555050565b8160ff16600314156126fd5760f180546001600160a01b0383166001600160a01b03199091161790555050565b8160ff166004141561272a5760f080546001600160a01b0383166001600160a01b03199091161790555050565b8160ff16600514156127575760f280546001600160a01b0383166001600160a01b03199091161790555050565b60405162461bcd60e51b81526020600482015260146024820152730eadce6eae0e0dee4e8cac840cccacac840d2c8f60631b6044820152606401610e63565b60cc546000906001600160a01b0316336001600160a01b0316146127cc5760405162461bcd60e51b8152600401610e639061545a565b60975460ff16156127ef5760405162461bcd60e51b8152600401610e63906154bb565b604080516101808101825260d1546001600160a01b03908116825260d554811660208084019190915260f95482168385015260ed548216606084015260f2548216608084015260d954821660a084015260fb54821660c084015260fa5460e084015260cc5490911661010083015260e4805484518184028101840190955280855273__VaultLibraryAcryptosSingle____________9463b800482c948994909361012085019390918301828280156128d157602002820191906000526020600020905b81546001600160a01b031681526001909101906020018083116128b3575b505050918352505060d8546001600160a01b03908116602083015260d05416604091820152516001600160e01b031960e085901b16815261178f929190879060040161577b565b6002606554141561293b5760405162461bcd60e51b8152600401610e6390615484565b600260655560975460ff16156129635760405162461bcd60e51b8152600401610e63906154bb565b60cb5460ff166129a15760405162461bcd60e51b8152602060048201526009602482015268216661726d61626c6560b81b6044820152606401610e63565b60cb54600160a81b900460ff16156129e25760cb5461010090046001600160a01b031633146129e25760405162461bcd60e51b8152600401610e639061543c565b6129ec6000613b0c565b60d3546040516370a0823160e01b81523060048201526000916001600160a01b0316906370a0823190602401602060405180830381865afa158015612a35573d6000803e3d6000fd5b505050506040513d601f19601f82011682018060405250810190612a5991906154e5565b905060008111612a935760405162461bcd60e51b81526020600482015260056024820152641832b0b93760d91b6044820152606401610e63565b60ed54600090612aab906001600160a01b0316614010565b60fc54909150600090612ac6906001600160a01b0316614010565b604080516080810190915260ef549192506000918190612aee906001600160a01b0316614010565b815260f154602090910190612b0b906001600160a01b0316614010565b815260f054602090910190612b28906001600160a01b0316614010565b815260f254602090910190612b45906001600160a01b0316614010565b905290506000612b5485614150565b9050600080612b648789866141a0565b90925090506000612b8182612b7b85818c89613efb565b90613efb565b6040805160028082526060820183529293506000929091602083019080368337505060d3546040805163313ce56760e01b815290519394506001600160a01b039091169263313ce567925060048083019260209291908290030181865afa158015612bf0573d6000803e3d6000fd5b505050506040513d601f19601f82011682018060405250810190612c1491906158ab565b81600081518110612c2757612c276158c8565b60ff90921660209283029190910182015260f8546040805163313ce56760e01b815290516001600160a01b039092169263313ce567926004808401938290030181865afa158015612c7c573d6000803e3d6000fd5b505050506040513d601f19601f82011682018060405250810190612ca091906158ab565b81600181518110612cb357612cb36158c8565b60ff92909216602092830291909101820152604080516002808252606082018352600093919290918301908036833701905050905081600181518110612cfb57612cfb6158c8565b602002602001015181600081518110612d1657612d166158c8565b60ff90921660209283029190910182015260d1546040805163313ce56760e01b815290516001600160a01b039092169263313ce567926004808401938290030181865afa158015612d6b573d6000803e3d6000fd5b505050506040513d601f19601f82011682018060405250810190612d8f91906158ab565b81600181518110612da257612da26158c8565b60ff90921660209283029190910182015260408051610140810182528581528951818401528082018b905260d3546001600160a01b03908116606083015260f85416608082015260f35460a082015260f45460c082015260e081018e905260e88054835181860281018601909452808452612e7194929361010085019390929190830182828015612e5c57602002820191906000526020600020905b81546001600160a01b03168152600190910190602001808311612e3e575b505050918352505030602090910152836142b8565b60f8546040516370a0823160e01b81523060048201526000916001600160a01b0316906370a0823190602401602060405180830381865afa158015612eba573d6000803e3d6000fd5b505050506040513d601f19601f82011682018060405250810190612ede91906154e5565b60f85460d1549192506001600160a01b03918216911614612fb357604080516101408101825282815260208082018c90528183018d905260f8546001600160a01b03908116606084015260d154166080830152600060a0830181905260c083015260e082018f905260f58054845181840281018401909552808552612fb39461010085019390929190830182828015612e5c576020028201919060005260206000209081546001600160a01b03168152600190910190602001808311612e3e57505050918352505030602090910152836142b8565b60d1546040516370a0823160e01b81523060048201526000916001600160a01b0316906370a0823190602401602060405180830381865afa158015612ffc573d6000803e3d6000fd5b505050506040513d601f19601f8201168201806040525081019061302091906154e5565b60d85460d154919250613040916001600160a01b03908116911683614372565b60d85460405163b6b55f2560e01b8152600481018390526001600160a01b039091169063b6b55f2590602401600060405180830381600087803b15801561308657600080fd5b505af115801561309a573d6000803e3d6000fd5b50504360e155506130ab9050613c07565b505060016065555050505050505050505050565b6033546001600160a01b031633146130e95760405162461bcd60e51b8152600401610e6390615407565b60d880546001600160a01b0319166001600160a01b0392909216919091179055565b6033546001600160a01b031633146131355760405162461bcd60e51b8152600401610e6390615407565b60fb80546001600160a01b0319166001600160a01b0392909216919091179055565b6033546001600160a01b031633146131815760405162461bcd60e51b8152600401610e6390615407565b6001600160a01b0381166131e65760405162461bcd60e51b815260206004820152602660248201527f4f776e61626c653a206e6577206f776e657220697320746865207a65726f206160448201526564647265737360d01b6064820152608401610e63565b610f9781613f37565b610f4a838383614424565b60eb8181548110610e9e57600080fd5b6033546001600160a01b031633146132345760405162461bcd60e51b8152600401610e6390615407565b60ff8316613248576111e060e48383614ad5565b8260ff1660011415613260576111e060e58383614ad5565b8260ff1660021415613278576111e060e68383614ad5565b8260ff1660031415613290576111e060e78383614ad5565b8260ff16600414156132a8576111e060e88383614ad5565b8260ff16600514156132c0576111e060e98383614ad5565b8260ff16600614156132d8576111e060ea8383614ad5565b8260ff16600714156132f0576111e060eb8383614ad5565b8260ff1660081415612757576111e060ec8383614ad5565b60fc54600090613320906001600160a01b0316614010565b6040805160028082526060820183529293506000929091602083019080368337505060d3546040805163313ce56760e01b815290519394506001600160a01b039091169263313ce567925060048083019260209291908290030181865afa15801561338f573d6000803e3d6000fd5b505050506040513d601f19601f820116820180604052508101906133b391906158ab565b816000815181106133c6576133c66158c8565b60ff90921660209283029190910182015260f8546040805163313ce56760e01b815290516001600160a01b039092169263313ce567926004808401938290030181865afa15801561341b573d6000803e3d6000fd5b505050506040513d601f19601f8201168201806040525081019061343f91906158ab565b81600181518110613452576134526158c8565b60ff9290921660209283029190910182015260408051600280825260608201835260009391929091830190803683370190505090508160018151811061349a5761349a6158c8565b6020026020010151816000815181106134b5576134b56158c8565b60ff90921660209283029190910182015260ce546040805163313ce56760e01b815290516001600160a01b039092169263313ce567926004808401938290030181865afa15801561350a573d6000803e3d6000fd5b505050506040513d601f19601f8201168201806040525081019061352e91906158ab565b81600181518110613541576135416158c8565b60ff92909216602092830291909101820152604080516002808252606082018352600093919290918301908036833701905050905082600181518110613589576135896158c8565b6020026020010151816000815181106135a4576135a46158c8565b60ff90921660209283029190910182015260db546040805163313ce56760e01b815290516001600160a01b039092169263313ce567926004808401938290030181865afa1580156135f9573d6000803e3d6000fd5b505050506040513d601f19601f8201168201806040525081019061361d91906158ab565b81600181518110613630576136306158c8565b60ff9092166020928302919091018201526040805161014081018252898152875192810192909252810185905260d3546001600160a01b0390811660608381019190915260f854909116608083015260f35460a083015260f45460c083015260e08201889052610100820181905230610120830152906136b090856142b8565b60f8546040516370a0823160e01b81523060048201526000916001600160a01b0316906370a0823190602401602060405180830381865afa1580156136f9573d6000803e3d6000fd5b505050506040513d601f19601f8201168201806040525081019061371d91906154e5565b90506137f7604051806101400160405280613742600285613bef90919063ffffffff16565b815260208082018a90528a81015160408084019190915260f8546001600160a01b03908116606085015260ce54166080840152600060a0840181905260c084015260e083018d905260f680548251818502810185019093528083526101009094019391929091908301828280156137e257602002820191906000526020600020905b81546001600160a01b031681526001909101906020018083116137c4575b505050918352505030602090910152856142b8565b60f85460db546001600160a01b039081169116146138e4576138e4604051806101400160405280613832600285613bef90919063ffffffff16565b815260208082018a905260408b8101518184015260f8546001600160a01b03908116606085015260db54166080840152600060a0840181905260c084015260e083018d905260f780548251818502810185019093528083526101009094019391929091908301828280156138cf57602002820191906000526020600020905b81546001600160a01b031681526001909101906020018083116138b1575b505050918352505030602090910152846142b8565b505060ce546040516370a0823160e01b8152306004820152600095506001600160a01b0390911693506370a0823192506024019050602060405180830381865afa158015613936573d6000803e3d6000fd5b505050506040513d601f19601f8201168201806040525081019061395a91906154e5565b60db546040516370a0823160e01b81523060048201529192506000916001600160a01b03909116906370a0823190602401602060405180830381865afa1580156139a8573d6000803e3d6000fd5b505050506040513d601f19601f820116820180604052508101906139cc91906154e5565b60d95460ce549192506139ec916001600160a01b03908116911684614372565b60d95460db54613a09916001600160a01b03918216911683614372565b60d95460ce5460db546001600160a01b039283169263e8e3370092811691168585613a3a6103e8611118848d613be3565b613a4a6103e86111188a8e613be3565b60d6546001600160a01b0316613a6242610258613bfb565b60405160e08a901b6001600160e01b03191681526001600160a01b039889166004820152968816602488015260448701959095526064860193909352608485019190915260a484015290921660c482015260e4810191909152610104016060604051808303816000875af1158015613ade573d6000803e3d6000fd5b505050506040513d601f19601f82011682018060405250810190613b0291906158de565b5050505050505050565b60d45460d05460405163f3fef3a360e01b81526001600160a01b0391821660048201526024810184905291169063f3fef3a3906044015b600060405180830381600087803b158015613b5d57600080fd5b505af1158015613b71573d6000803e3d6000fd5b5050505050565b6040516001600160a01b03808516602483015283166044820152606481018290526111e09085906323b872dd60e01b906084015b60408051601f198184030181529190526020810180516001600160e01b03166001600160e01b031990931692909217909152614850565b60006117d08284615922565b60006117d08284615941565b60006117d08284615963565b60cb5460ff16613c455760405162461bcd60e51b8152602060048201526009602482015268216661726d61626c6560b81b6044820152606401610e63565b60d0546040516370a0823160e01b81523060048201526000916001600160a01b0316906370a0823190602401602060405180830381865afa158015613c8e573d6000803e3d6000fd5b505050506040513d601f19601f82011682018060405250810190613cb291906154e5565b60e254909150613cc29082613bfb565b60e25560d45460d054613ce2916001600160a01b03918216911683614372565b60d45460d0546040516311f9fbc960e21b81526001600160a01b039182166004820152602481018490529116906347e7ef2490604401613b43565b60975460ff16613d665760405162461bcd60e51b815260206004820152601460248201527314185d5cd8589b194e881b9bdd081c185d5cd95960621b6044820152606401610e63565b6097805460ff191690557f5db9ee0a495bf2e6ff9c91a7834c1ba4fdd244a5e8aa4e537bd38aeae4b073aa335b6040516001600160a01b03909116815260200160405180910390a1565b604080516101408101825260d3546001600160a01b03908116825260f854811660208084019190915260d5549091168284015260f354606083015260f454608083015260ec805484518184028101840190955280855273__VaultLibraryAcryptosSingle____________946379308552948a948a948a948a9460a085019390929190830182828015613e6c57602002820191906000526020600020905b81546001600160a01b03168152600190910190602001808311613e4e575b505050918352505060d9546001600160a01b03908116602083015260fb548116604083015260fa54606083015260fc54608090920191613eac9116614010565b8152506040518663ffffffff1660e01b8152600401613ecf95949392919061597b565b60006040518083038186803b158015613ee757600080fd5b505af4158015613b02573d6000803e3d6000fd5b60006117d08284615a96565b6040516001600160a01b038316602482015260448101829052610f4a90849063a9059cbb60e01b90606401613bac565b603380546001600160a01b038381166001600160a01b0319831681179093556040519116919082907f8be0079c531659141344cd1fd0a4f28419497f9722a3daafe3b4186f6b6457e090600090a35050565b60975460ff1615613fac5760405162461bcd60e51b8152600401610e63906154bb565b6097805460ff191660011790557f62e78cea01bee320cd4e420270b5ea74000d11b0c9f74754ebdbfc544b05a258613d933390565b600054610100900460ff166140085760405162461bcd60e51b8152600401610e6390615aad565b6111d2614922565b600080826001600160a01b031663313ce5676040518163ffffffff1660e01b8152600401602060405180830381865afa158015614051573d6000803e3d6000fd5b505050506040513d601f19601f8201168201806040525081019061407591906158ab565b90506000836001600160a01b031663feaf968c6040518163ffffffff1660e01b815260040160a060405180830381865afa1580156140b7573d6000803e3d6000fd5b505050506040513d601f19601f820116820180604052508101906140db9190615b12565b505050915050600081121561412b5760405162461bcd60e51b81526020600482015260166024820152751b9959c81c1c9a58d95cc81b9bdd08185b1b1bddd95960521b6044820152606401610e63565b61414861413983600a615c46565b6111188364e8d4a51000613be3565b949350505050565b6000811561419b5760dc541561419b5761417b61271061111860dc5485613be390919063ffffffff16565b60d75460d35491925061419b916001600160a01b03908116911683613f07565b919050565b600080600060dd5411156141cc576141c961271061111860dd5488613be390919063ffffffff16565b91505b60de54156141f2576141ef61271061111860de5488613be390919063ffffffff16565b90505b60c95460ff161561421857614208828585613308565b614213818585614424565b6142b0565b6142386142258383613bfb565b60cc546001600160a01b03168686613db0565b60cd5460ca5460405163464e3c8b60e01b815260048101919091526024810184905260448101839052606481018690526001600160a01b039091169063464e3c8b90608401600060405180830381600087803b15801561429757600080fd5b505af11580156142ab573d6000803e3d6000fd5b505050505b935093915050565b60fb5460fa5460d95460f954606086015173__VaultLibraryAcryptosSingle____________9463edbcdf8e946001600160a01b03918216949093908216928992899281169116148061431d575060f95460808a01516001600160a01b039081169116145b6040518763ffffffff1660e01b815260040161433e96959493929190615c88565b60006040518083038186803b15801561435657600080fd5b505af415801561436a573d6000803e3d6000fd5b505050505050565b604051636eb1769f60e11b81523060048201526001600160a01b038381166024830152600091839186169063dd62ed3e90604401602060405180830381865afa1580156143c3573d6000803e3d6000fd5b505050506040513d601f19601f820116820180604052508101906143e791906154e5565b6143f19190615963565b6040516001600160a01b0385166024820152604481018290529091506111e090859063095ea7b360e01b90606401613bac565b60fc5460009061443c906001600160a01b0316614010565b6040805160028082526060820183529293506000929091602083019080368337505060d3546040805163313ce56760e01b815290519394506001600160a01b039091169263313ce567925060048083019260209291908290030181865afa1580156144ab573d6000803e3d6000fd5b505050506040513d601f19601f820116820180604052508101906144cf91906158ab565b816000815181106144e2576144e26158c8565b60ff90921660209283029190910182015260f8546040805163313ce56760e01b815290516001600160a01b039092169263313ce567926004808401938290030181865afa158015614537573d6000803e3d6000fd5b505050506040513d601f19601f8201168201806040525081019061455b91906158ab565b8160018151811061456e5761456e6158c8565b60ff929092166020928302919091018201526040805160028082526060820183526000939192909183019080368337019050509050816001815181106145b6576145b66158c8565b6020026020010151816000815181106145d1576145d16158c8565b60ff90921660209283029190910182015260ce546040805163313ce56760e01b815290516001600160a01b039092169263313ce567926004808401938290030181865afa158015614626573d6000803e3d6000fd5b505050506040513d601f19601f8201168201806040525081019061464a91906158ab565b8160018151811061465d5761465d6158c8565b60ff9092166020928302919091019091015260d95460d35461468c916001600160a01b03918216911688614372565b60408051610140810182528781528551602082015290810184905260d3546001600160a01b0390811660608381019190915260f854909116608083015260f35460a083015260f45460c083015260e08201879052610100820181905230610120830152906146fa90846142b8565b60d5546040516370a0823160e01b81523060048201526000916001600160a01b0316906370a0823190602401602060405180830381865afa158015614743573d6000803e3d6000fd5b505050506040513d601f19601f8201168201806040525081019061476791906154e5565b60d95460d554919250614787916001600160a01b03908116911683614372565b60408051610140810182528281526020808201889052888101518284015260f8546001600160a01b03908116606084015260ce54166080830152600060a0830181905260c083015260e082018a905260f68054845181840281018401909552808552613b02946101008501939092919083018282801561483057602002820191906000526020600020905b81546001600160a01b03168152600190910190602001808311614812575b505050918352505060cf546001600160a01b0316602090910152846142b8565b60006148a5826040518060400160405280602081526020017f5361666545524332303a206c6f772d6c6576656c2063616c6c206661696c6564815250856001600160a01b03166149529092919063ffffffff16565b805190915015610f4a57808060200190518101906148c39190615d7d565b610f4a5760405162461bcd60e51b815260206004820152602a60248201527f5361666545524332303a204552433230206f7065726174696f6e20646964206e6044820152691bdd081cdd58d8d9595960b21b6064820152608401610e63565b600054610100900460ff166149495760405162461bcd60e51b8152600401610e6390615aad565b6111d233613f37565b6060614961848460008561496b565b90505b9392505050565b6060824710156149cc5760405162461bcd60e51b815260206004820152602660248201527f416464726573733a20696e73756666696369656e742062616c616e636520666f6044820152651c8818d85b1b60d21b6064820152608401610e63565b6001600160a01b0385163b614a235760405162461bcd60e51b815260206004820152601d60248201527f416464726573733a2063616c6c20746f206e6f6e2d636f6e74726163740000006044820152606401610e63565b600080866001600160a01b03168587604051614a3f9190615dc6565b60006040518083038185875af1925050503d8060008114614a7c576040519150601f19603f3d011682016040523d82523d6000602084013e614a81565b606091505b5091509150614a91828286614a9c565b979650505050505050565b60608315614aab575081614964565b825115614abb5782518084602001fd5b8160405162461bcd60e51b8152600401610e639190615de2565b828054828255906000526020600020908101928215614b28579160200282015b82811115614b285781546001600160a01b0319166001600160a01b03843516178255602090920191600190910190614af5565b50614b34929150614b8d565b5090565b828054828255906000526020600020908101928215614b28579160200282015b82811115614b2857825182546001600160a01b0319166001600160a01b03909116178255602090920191600190910190614b58565b5b80821115614b345760008155600101614b8e565b6001600160a01b0381168114610f9757600080fd5b803561419b81614ba2565b600060208284031215614bd457600080fd5b813561496481614ba2565b600060208284031215614bf157600080fd5b5035919050565b8015158114610f9757600080fd5b803561419b81614bf8565b600060208284031215614c2357600080fd5b813561496481614bf8565b634e487b7160e01b600052604160045260246000fd5b604051610200810167ffffffffffffffff81118282101715614c6857614c68614c2e565b60405290565b6040516101e0810167ffffffffffffffff81118282101715614c6857614c68614c2e565b604051601f8201601f1916810167ffffffffffffffff81118282101715614cbb57614cbb614c2e565b604052919050565b600060808284031215614cd557600080fd5b6040516080810181811067ffffffffffffffff82111715614cf857614cf8614c2e565b8060405250809150823581526020830135602082015260408301356040820152606083013560608201525092915050565b600080600060c08486031215614d3e57600080fd5b8335925060208401359150614d568560408601614cc3565b90509250925092565b60008060008060e08587031215614d7557600080fd5b843593506020850135614d8781614ba2565b925060408501359150614d9d8660608701614cc3565b905092959194509250565b60008060408385031215614dbb57600080fd5b50508035926020909101359150565b600080600060608486031215614ddf57600080fd5b8335614dea81614ba2565b9250602084013591506040840135614e0181614ba2565b809150509250925092565b600080600080600060a08688031215614e2457600080fd5b505083359560208501359550604085013594606081013594506080013592509050565b60ff81168114610f9757600080fd5b600080600060408486031215614e6b57600080fd5b8335614e7681614e47565b9250602084013567ffffffffffffffff80821115614e9357600080fd5b818601915086601f830112614ea757600080fd5b813581811115614eb657600080fd5b8760208260051b8501011115614ecb57600080fd5b6020830194508093505050509250925092565b60006102008284031215614ef157600080fd5b614ef9614c44565b9050614f0482614bb7565b8152614f1260208301614bb7565b6020820152614f2360408301614bb7565b6040820152614f3460608301614bb7565b6060820152614f4560808301614bb7565b6080820152614f5660a08301614bb7565b60a0820152614f6760c08301614bb7565b60c0820152614f7860e08301614bb7565b60e0820152610100614f8b818401614bb7565b90820152610120614f9d838201614bb7565b90820152610140614faf838201614bb7565b90820152610160614fc1838201614bb7565b90820152610180614fd3838201614bb7565b908201526101a0614fe5838201614bb7565b908201526101c0614ff7838201614bb7565b908201526101e0615009838201614bb7565b9082015292915050565b600067ffffffffffffffff82111561502d5761502d614c2e565b5060051b60200190565b600082601f83011261504857600080fd5b8135602061505d61505883615013565b614c92565b82815260059290921b8401810191818101908684111561507c57600080fd5b8286015b848110156150a057803561509381614ba2565b8352918301918301615080565b509695505050505050565b600060a082840312156150bd57600080fd5b60405160a0810181811067ffffffffffffffff821117156150e0576150e0614c2e565b806040525080915082358152602083013560208201526040830135604082015260608301356060820152608083013560808201525092915050565b600060c0828403121561512d57600080fd5b60405160c0810181811067ffffffffffffffff8211171561515057615150614c2e565b604052905080823561516181614ba2565b8152602083013561517181614ba2565b6020820152604083013561518481614ba2565b6040820152606083013561519781614ba2565b606082015260808301356151aa81614ba2565b608082015260a08301356151bd81614ba2565b60a0919091015292915050565b600080604083850312156151dd57600080fd5b82356151e881614ba2565b9150602083013567ffffffffffffffff8082111561520557600080fd5b908401906104e0828703121561521a57600080fd5b615222614c6e565b8235815261523260208401614c06565b602082015261524360408401614c06565b60408201526152558760608501614ede565b60608201526102608301358281111561526d57600080fd5b61527988828601615037565b6080830152506102808301358281111561529257600080fd5b61529e88828601615037565b60a0830152506102a0830135828111156152b757600080fd5b6152c388828601615037565b60c0830152506102c0830135828111156152dc57600080fd5b6152e888828601615037565b60e0830152506102e08301358281111561530157600080fd5b61530d88828601615037565b610100830152506103008301358281111561532757600080fd5b61533388828601615037565b610120830152506103208301358281111561534d57600080fd5b61535988828601615037565b610140830152506103408301358281111561537357600080fd5b61537f88828601615037565b610160830152506153948761036085016150ab565b6101808201526153a887610400850161511b565b6101a08201526153bb6104c08401614bb7565b6101c08201528093505050509250929050565b600080604083850312156153e157600080fd5b82356153ec81614e47565b915060208301356153fc81614ba2565b809150509250929050565b6020808252818101527f4f776e61626c653a2063616c6c6572206973206e6f7420746865206f776e6572604082015260600190565b60208082526004908201526310b3b7bb60e11b604082015260600190565b60208082526010908201526f10bd37b93937a1b7b73a3937b63632b960811b604082015260600190565b6020808252601f908201527f5265656e7472616e637947756172643a207265656e7472616e742063616c6c00604082015260600190565b60208082526010908201526f14185d5cd8589b194e881c185d5cd95960821b604082015260600190565b6000602082840312156154f757600080fd5b5051919050565b600081518084526020808501945080840160005b838110156155375781516001600160a01b031687529582019590820190600101615512565b509495945050505050565b838152606060208201526155626060820184516001600160a01b03169052565b6000602084015161557e60808401826001600160a01b03169052565b5060408401516001600160a01b03811660a08401525060608401516001600160a01b03811660c08401525060808401516001600160a01b03811660e08401525060a08401516101006155da818501836001600160a01b03169052565b60c086015191506101206155f8818601846001600160a01b03169052565b60e0870151925061016061014081818801526156186101c08801866154fe565b938901516001600160a01b03908116928801929092529188015116610180860152909501516101a0840152505060400152919050565b6020808252602e908201527f496e697469616c697a61626c653a20636f6e747261637420697320616c72656160408201526d191e481a5b9a5d1a585b1a5e995960921b606082015260800190565b6020808252825482820181905260008481528281209092916040850190845b818110156156e05783546001600160a01b0316835260019384019392850192016156bb565b50909695505050505050565b600060208083850312156156ff57600080fd5b825167ffffffffffffffff81111561571657600080fd5b8301601f8101851361572757600080fd5b805161573561505882615013565b81815260059190911b8201830190838101908783111561575457600080fd5b928401925b82841015614a9157835161576c81614ba2565b82529284019290840190615759565b8381526060602082015261579b6060820184516001600160a01b03169052565b600060208401516157b760808401826001600160a01b03169052565b5060408401516001600160a01b03811660a08401525060608401516001600160a01b03811660c08401525060808401516001600160a01b03811660e08401525060a0840151610100615813818501836001600160a01b03169052565b60c08601519150610120615831818601846001600160a01b03169052565b60e0870151610140868101919091529187015192506101609161585e838701856001600160a01b03169052565b8188015193506101809150818287015261587c6101e08701856154fe565b908801516001600160a01b039081166101a088015292909701519091166101c085015250505060400152919050565b6000602082840312156158bd57600080fd5b815161496481614e47565b634e487b7160e01b600052603260045260246000fd5b6000806000606084860312156158f357600080fd5b8351925060208401519150604084015190509250925092565b634e487b7160e01b600052601160045260246000fd5b600081600019048311821515161561593c5761593c61590c565b500290565b60008261595e57634e487b7160e01b600052601260045260246000fd5b500490565b600082198211156159765761597661590c565b500190565b600061010087835260018060a01b03871660208401528560408401528451606084015260208501516080840152604085015160a0840152606085015160c08401528060e08401526159d781840185516001600160a01b03169052565b60208401516101206159f3818601836001600160a01b03169052565b60408601519150610140615a11818701846001600160a01b03169052565b6060870151610160870152608087015161018087015260a08701519250806101a087015250615a446102408601836154fe565b915060c0860151615a616101c08701826001600160a01b03169052565b5060e08601516001600160a01b03166101e0860152918501516102008501529301516102209092019190915250949350505050565b600082821015615aa857615aa861590c565b500390565b6020808252602b908201527f496e697469616c697a61626c653a20636f6e7472616374206973206e6f74206960408201526a6e697469616c697a696e6760a81b606082015260800190565b805169ffffffffffffffffffff8116811461419b57600080fd5b600080600080600060a08688031215615b2a57600080fd5b615b3386615af8565b9450602086015193506040860151925060608601519150615b5660808701615af8565b90509295509295909350565b600181815b80851115615b9d578160001904821115615b8357615b8361590c565b80851615615b9057918102915b93841c9390800290615b67565b509250929050565b600082615bb4575060016117d3565b81615bc1575060006117d3565b8160018114615bd75760028114615be157615bfd565b60019150506117d3565b60ff841115615bf257615bf261590c565b50506001821b6117d3565b5060208310610133831016604e8410600b8410161715615c20575081810a6117d3565b615c2a8383615b62565b8060001904821115615c3e57615c3e61590c565b029392505050565b60006117d060ff841683615ba5565b600081518084526020808501945080840160005b8381101561553757815160ff1687529582019590820190600101615c69565b600060018060a01b03808916835287602084015280871660408401525060c06060830152845160c0830152602085015160e08301526040850151610100818185015260608701519150610120615ce8818601846001600160a01b03169052565b60808801519250610140615d06818701856001600160a01b03169052565b60a089015161016087015260c089015161018087015260e08901516101a0870152828901519350806101c087015250615d436102008601846154fe565b908801516001600160a01b03166101e086015284810360808601529150615d6c90508186615c55565b915050614a9160a083018415159052565b600060208284031215615d8f57600080fd5b815161496481614bf8565b60005b83811015615db5578181015183820152602001615d9d565b838111156111e05750506000910152565b60008251615dd8818460208701615d9a565b9190910192915050565b6020815260008251806020840152615e01816040850160208701615d9a565b601f01601f1916919091016040019291505056fea264697066735822122069a3c43e2351169a0b708e4f9697641c66504996f6bdc355d1d0d6cef171f82b64736f6c634300080a0033",
  "immutableReferences": {},
  "source": "// SPDX-License-Identifier: MIT\n\npragma solidity ^0.8.0;\n\nimport \"../VaultAcryptosSingle.sol\";\n\nimport \"../../tokens/mocks/MockToken.sol\";\n\nimport \"../VaultLibrary.sol\";\n\ncontract MockVaultAcryptosSingle is VaultAcryptosSingle {\n    function unfarm(uint256 _wantAmt) public {\n        _unfarm(_wantAmt);\n    }\n    \n    function swapEarnedToUSDC(\n        uint256 _earnedAmount,\n        address _destination,\n        uint256 _maxMarketMovementAllowed,\n        VaultLibrary.ExchangeRates memory _rates\n    ) public {\n        _swapEarnedToUSDC(_earnedAmount, _destination, _maxMarketMovementAllowed, _rates);\n    }\n\n    function revShareOnChain(\n        uint256 _amount,\n        uint256 _maxMarketMovementAllowed,\n        VaultLibrary.ExchangeRates memory _rates\n    ) public {\n        _revShareOnChain(_amount, _maxMarketMovementAllowed, _rates);\n    }\n\n    function buybackOnChain(\n        uint256 _amount,\n        uint256 _maxMarketMovementAllowed,\n        VaultLibrary.ExchangeRates memory _rates\n    ) public {\n        _buybackOnChain(_amount, _maxMarketMovementAllowed, _rates);\n    }\n}\n\ncontract MockAcryptosVault is IAcryptosVault, MockERC20Upgradeable {\n    using SafeERC20Upgradeable for IERC20Upgradeable;\n\n    event AddedLiquidity(uint256 _amount, uint256 _liquidity);\n    event RemovedLiquidity(uint256 _amount);\n\n    address public token0;\n    address public burnAddress;\n\n    function setToken0Address(address _token) public {\n        token0 = _token;\n    }\n\n    function setBurnAddress(address _burn) public {\n        burnAddress = _burn;\n    }\n\n    function deposit(uint256 _amount) public {\n        IERC20Upgradeable(token0).safeTransferFrom(msg.sender, address(this), _amount);\n        uint256 _liquidity = 1 ether; // Hard code for tests\n        _mint(msg.sender, _liquidity);\n        emit AddedLiquidity(_amount, _liquidity);\n    }\n\n    function withdraw(uint256 _shares) public {\n        IERC20Upgradeable(address(this)).safeTransferFrom(msg.sender, burnAddress, _shares);\n        uint256 _withdrawalAmt = 2 ether; // Hard code for tests\n        IMockERC20Upgradeable(token0).mint(msg.sender, _withdrawalAmt);\n        emit RemovedLiquidity(_withdrawalAmt);\n    }\n}\n\ncontract MockAcryptosFarm is IAcryptosFarm, MockERC20Upgradeable {\n    using SafeERC20Upgradeable for IERC20Upgradeable;\n\n    event Deposited(address indexed _want, uint256 indexed _amount);\n    event Withdrew(address indexed _want, uint256 indexed _amount);\n\n    address public burnAddress;\n    address public wantToken;\n\n    function setWantAddress(address _wantToken) public {\n        wantToken = _wantToken;\n    }\n\n    function setBurnAddress(address _burnAddress) public {\n        burnAddress = _burnAddress;\n    }\n\n    function deposit(address _lpToken, uint256 _amount) public {\n        IERC20Upgradeable(wantToken).safeTransferFrom(msg.sender, burnAddress, _amount);\n        emit Deposited(_lpToken, _amount);\n    }\n\n    function withdraw(address _lpToken, uint256 _amount) public {\n        IMockERC20Upgradeable(wantToken).mint(msg.sender, _amount);\n        emit Withdrew(_lpToken, _amount);\n    }\n}\n\ncontract MockBUSD is MockERC20Upgradeable {}\ncontract MockACS is MockERC20Upgradeable {}",
  "sourcePath": "/Users/kristophm/Documents/workspace/zorro-protocol/contracts/vaults/mocks/MockVaultAcryptosSingle.sol",
  "compiler": {
    "name": "solc",
    "version": "0.8.10+commit.fc410830.Emscripten.clang"
  },
  "schemaVersion": "3.4.4",
  "updatedAt": "2022-09-22T12:16:56.458Z",
  "networkType": "ethereum",
  "devdoc": {
    "kind": "dev",
    "methods": {
      "depositWantToken(uint256)": {
        "params": {
          "_wantAmt": "amount of Want token to deposit/stake"
        },
        "returns": {
          "sharesAdded": "uint256 Number of shares added"
        }
      },
      "earn(uint256)": {
        "params": {
          "_maxMarketMovementAllowed": "The max slippage allowed. 1000 = 0 %, 995 = 0.5%, etc."
        }
      },
      "exchangeUSDForWantToken(uint256,uint256)": {
        "params": {
          "_amountUSDC": "The USDC quantity to exchange (must already be deposited)",
          "_maxMarketMovementAllowed": "The max slippage allowed. 1000 = 0 %, 995 = 0.5%, etc."
        },
        "returns": {
          "_0": "uint256 Amount of Want token obtained"
        }
      },
      "exchangeWantTokenForUSD(uint256,uint256)": {
        "params": {
          "_amount": "The Want token quantity to exchange (must be deposited beforehand)",
          "_maxMarketMovementAllowed": "The max slippage allowed for swaps. 1000 = 0 %, 995 = 0.5%, etc."
        },
        "returns": {
          "_0": "uint256 Amount of USDC token obtained"
        }
      },
      "inCaseTokensGetStuck(address,uint256,address)": {
        "params": {
          "_amount": "The amount of the tokens to transfer",
          "_to": "The address to transfer tokens to",
          "_token": "Address of the ERC20 token to transfer"
        }
      },
      "initialize(address,(uint256,bool,bool,(address,address,address,address,address,address,address,address,address,address,address,address,address,address,address,address),address[],address[],address[],address[],address[],address[],address[],address[],(uint256,uint256,uint256,uint256,uint256),(address,address,address,address,address,address),address))": {
        "params": {
          "_initValue": "A VaultAcryptosSingleInit struct containing all init values",
          "_timelockOwner": "The designated timelock controller address to act as owner"
        }
      },
      "owner()": {
        "details": "Returns the address of the current owner."
      },
      "paused()": {
        "details": "Returns true if the contract is paused, and false otherwise."
      },
      "renounceOwnership()": {
        "details": "Leaves the contract without owner. It will not be possible to call `onlyOwner` functions anymore. Can only be called by the current owner. NOTE: Renouncing ownership will leave the contract without an owner, thereby removing any functionality that is only available to the owner."
      },
      "setFeeSettings(uint256,uint256,uint256,uint256,uint256)": {
        "params": {
          "_buyBackRate": "Buy back rate fee numerator",
          "_controllerFee": "Controller fee numerator",
          "_entranceFeeFactor": "Entrance fee numerator (higher means smaller percentage)",
          "_revShareRate": "Rev share rate fee numerator",
          "_withdrawFeeFactor": "Withdrawal fee numerator (higher means smaller percentage)"
        }
      },
      "setGov(address)": {
        "params": {
          "_govAddress": "The new gov address"
        }
      },
      "setOnlyGov(bool)": {
        "params": {
          "_onlyGov": "whether onlyGov should be enforced"
        }
      },
      "transferOwnership(address)": {
        "details": "Transfers ownership of the contract to a new account (`newOwner`). Can only be called by the current owner."
      },
      "withdrawWantToken(uint256)": {
        "params": {
          "_wantAmt": "The amount of Want token to withdraw"
        },
        "returns": {
          "sharesRemoved": "The number of shares removed"
        }
      }
    },
    "version": 1
  },
  "userdoc": {
    "kind": "user",
    "methods": {
      "depositWantToken(uint256)": {
        "notice": "Receives new deposits from user"
      },
      "earn(uint256)": {
        "notice": "The main compounding (earn) function. Reinvests profits since the last earn event."
      },
      "exchangeUSDForWantToken(uint256,uint256)": {
        "notice": "Performs necessary operations to convert USDC into Want token"
      },
      "exchangeWantTokenForUSD(uint256,uint256)": {
        "notice": "Converts Want token back into USD to be ready for withdrawal and transfers to sender"
      },
      "farm()": {
        "notice": "Public function for farming Want token."
      },
      "inCaseTokensGetStuck(address,uint256,address)": {
        "notice": "Safely transfer ERC20 tokens stuck in this contract to a specified address"
      },
      "initialize(address,(uint256,bool,bool,(address,address,address,address,address,address,address,address,address,address,address,address,address,address,address,address),address[],address[],address[],address[],address[],address[],address[],address[],(uint256,uint256,uint256,uint256,uint256),(address,address,address,address,address,address),address))": {
        "notice": "Upgradeable constructor"
      },
      "pause()": {
        "notice": "Pause contract"
      },
      "setFeeSettings(uint256,uint256,uint256,uint256,uint256)": {
        "notice": "Configure key fee parameters"
      },
      "setGov(address)": {
        "notice": "Set governor address"
      },
      "setOnlyGov(bool)": {
        "notice": "Set onlyGov property"
      },
      "unpause()": {
        "notice": "Unpause contract"
      },
      "withdrawWantToken(uint256)": {
        "notice": "Fully withdraw Want tokens from the Farm contract (100% withdrawals only)"
      }
    },
    "version": 1
  }
}