{
  "contractName": "MockSafeSwapUni",
  "abi": [
    {
      "inputs": [
        {
          "internalType": "address",
          "name": "_uniRouter",
          "type": "address"
        },
        {
          "internalType": "uint256",
          "name": "_amountIn",
          "type": "uint256"
        },
        {
          "internalType": "uint256[]",
          "name": "_priceTokens",
          "type": "uint256[]"
        },
        {
          "internalType": "uint256",
          "name": "_slippageFactor",
          "type": "uint256"
        },
        {
          "internalType": "address[]",
          "name": "_path",
          "type": "address[]"
        },
        {
          "internalType": "uint8[]",
          "name": "_decimals",
          "type": "uint8[]"
        },
        {
          "internalType": "address",
          "name": "_to",
          "type": "address"
        },
        {
          "internalType": "uint256",
          "name": "_deadline",
          "type": "uint256"
        }
      ],
      "name": "safeSwap",
      "outputs": [],
      "stateMutability": "nonpayable",
      "type": "function"
    }
  ],
  "bytecode": "0x608060405234801561001057600080fd5b50610d0c806100206000396000f3fe608060405234801561001057600080fd5b506004361061002b5760003560e01c8063586648d114610030575b600080fd5b61004361003e3660046108ab565b610045565b005b61007d88888660008151811061005d5761005d610972565b60200260200101516001600160a01b03166100a09092919063ffffffff16565b6100966001600160a01b0389168888888888888861017a565b5050505050505050565b604051636eb1769f60e11b81523060048201526001600160a01b038381166024830152600091839186169063dd62ed3e90604401602060405180830381865afa1580156100f1573d6000803e3d6000fd5b505050506040513d601f19601f820116820180604052508101906101159190610988565b61011f91906109b7565b604080516001600160a01b038616602482015260448082018490528251808303909101815260649091019091526020810180516001600160e01b031663095ea7b360e01b1790529091506101749085906102d1565b50505050565b82516002146101be5760405162461bcd60e51b815260206004820152600b60248201526a696e76616c69642064656360a81b60448201526064015b60405180910390fd5b6000866000815181106101d3576101d3610972565b6020026020010151600014806102035750866001815181106101f7576101f7610972565b60200260200101516000145b1561021c5761021589898789886103a8565b9050610260565b61025d888860008151811061023357610233610972565b60200260200101518960018151811061024e5761024e610972565b602002602001015189886104d1565b90505b604051635c11d79560e01b81526001600160a01b038a1690635c11d79590610294908b9085908a9089908990600401610a13565b600060405180830381600087803b1580156102ae57600080fd5b505af11580156102c2573d6000803e3d6000fd5b50505050505050505050505050565b6000610326826040518060400160405280602081526020017f5361666545524332303a206c6f772d6c6576656c2063616c6c206661696c6564815250856001600160a01b031661054c9092919063ffffffff16565b8051909150156103a357808060200190518101906103449190610a4f565b6103a35760405162461bcd60e51b815260206004820152602a60248201527f5361666545524332303a204552433230206f7065726174696f6e20646964206e6044820152691bdd081cdd58d8d9595960b21b60648201526084016101b5565b505050565b600080866001600160a01b031663d06ca61f87876040518363ffffffff1660e01b81526004016103d9929190610a71565b600060405180830381865afa1580156103f6573d6000803e3d6000fd5b505050506040513d6000823e601f3d908101601f1916820160405261041e9190810190610a8a565b90506104c66104566103e88560008151811061043c5761043c610972565b6020026020010151600a6104509190610bf4565b90610565565b6104c08560018151811061046c5761046c610972565b6020026020010151600a6104809190610bf4565b610450888661049a6001895161057a90919063ffffffff16565b815181106104aa576104aa610972565b602002602001015161056590919063ffffffff16565b90610586565b979650505050505050565b600061054261050c836000815181106104ec576104ec610972565b6020026020010151600a6105009190610bf4565b610450876103e8610565565b6104c08460018151811061052257610522610972565b6020026020010151600a6105369190610bf4565b61045087818c8c610565565b9695505050505050565b606061055b8484600085610592565b90505b9392505050565b60006105718284610c03565b90505b92915050565b60006105718284610c22565b60006105718284610c39565b6060824710156105f35760405162461bcd60e51b815260206004820152602660248201527f416464726573733a20696e73756666696369656e742062616c616e636520666f6044820152651c8818d85b1b60d21b60648201526084016101b5565b6001600160a01b0385163b61064a5760405162461bcd60e51b815260206004820152601d60248201527f416464726573733a2063616c6c20746f206e6f6e2d636f6e747261637400000060448201526064016101b5565b600080866001600160a01b031685876040516106669190610c87565b60006040518083038185875af1925050503d80600081146106a3576040519150601f19603f3d011682016040523d82523d6000602084013e6106a8565b606091505b50915091506104c6828286606083156106c257508161055e565b8251156106d25782518084602001fd5b8160405162461bcd60e51b81526004016101b59190610ca3565b80356001600160a01b038116811461070357600080fd5b919050565b634e487b7160e01b600052604160045260246000fd5b604051601f8201601f1916810167ffffffffffffffff8111828210171561074757610747610708565b604052919050565b600067ffffffffffffffff82111561076957610769610708565b5060051b60200190565b600082601f83011261078457600080fd5b813560206107996107948361074f565b61071e565b82815260059290921b840181019181810190868411156107b857600080fd5b8286015b848110156107d357803583529183019183016107bc565b509695505050505050565b600082601f8301126107ef57600080fd5b813560206107ff6107948361074f565b82815260059290921b8401810191818101908684111561081e57600080fd5b8286015b848110156107d357610833816106ec565b8352918301918301610822565b600082601f83011261085157600080fd5b813560206108616107948361074f565b82815260059290921b8401810191818101908684111561088057600080fd5b8286015b848110156107d357803560ff8116811461089e5760008081fd5b8352918301918301610884565b600080600080600080600080610100898b0312156108c857600080fd5b6108d1896106ec565b975060208901359650604089013567ffffffffffffffff808211156108f557600080fd5b6109018c838d01610773565b975060608b0135965060808b013591508082111561091e57600080fd5b61092a8c838d016107de565b955060a08b013591508082111561094057600080fd5b5061094d8b828c01610840565b93505061095c60c08a016106ec565b915060e089013590509295985092959890939650565b634e487b7160e01b600052603260045260246000fd5b60006020828403121561099a57600080fd5b5051919050565b634e487b7160e01b600052601160045260246000fd5b600082198211156109ca576109ca6109a1565b500190565b600081518084526020808501945080840160005b83811015610a085781516001600160a01b0316875295820195908201906001016109e3565b509495945050505050565b85815284602082015260a060408201526000610a3260a08301866109cf565b6001600160a01b0394909416606083015250608001529392505050565b600060208284031215610a6157600080fd5b8151801515811461055e57600080fd5b82815260406020820152600061055b60408301846109cf565b60006020808385031215610a9d57600080fd5b825167ffffffffffffffff811115610ab457600080fd5b8301601f81018513610ac557600080fd5b8051610ad36107948261074f565b81815260059190911b82018301908381019087831115610af257600080fd5b928401925b828410156104c657835182529284019290840190610af7565b600181815b80851115610b4b578160001904821115610b3157610b316109a1565b80851615610b3e57918102915b93841c9390800290610b15565b509250929050565b600082610b6257506001610574565b81610b6f57506000610574565b8160018114610b855760028114610b8f57610bab565b6001915050610574565b60ff841115610ba057610ba06109a1565b50506001821b610574565b5060208310610133831016604e8410600b8410161715610bce575081810a610574565b610bd88383610b10565b8060001904821115610bec57610bec6109a1565b029392505050565b600061057160ff841683610b53565b6000816000190483118215151615610c1d57610c1d6109a1565b500290565b600082821015610c3457610c346109a1565b500390565b600082610c5657634e487b7160e01b600052601260045260246000fd5b500490565b60005b83811015610c76578181015183820152602001610c5e565b838111156101745750506000910152565b60008251610c99818460208701610c5b565b9190910192915050565b6020815260008251806020840152610cc2816040850160208701610c5b565b601f01601f1916919091016040019291505056fea26469706673582212203c839455694cd17c49ed87f06557185def4e44e1ee4f045440b8bee70a560ef864736f6c634300080a0033",
  "immutableReferences": {},
  "source": "// SPDX-License-Identifier: MIT\n\npragma solidity ^0.8.0;\n\nimport \"../SafeSwap.sol\";\n\nimport \"@openzeppelin/contracts-upgradeable/token/ERC20/utils/SafeERC20Upgradeable.sol\";\n\nimport \"../../tokens/mocks/MockToken.sol\";\n\n/// @title MockSafeSwapUni: Mock contract for testing the SafeSwapUni library\ncontract MockSafeSwapUni {\n    using SafeSwapUni for IAMMRouter02;\n    using SafeERC20Upgradeable for IERC20Upgradeable;\n\n    function safeSwap(\n        address _uniRouter,\n        uint256 _amountIn,\n        uint256[] memory _priceTokens,\n        uint256 _slippageFactor,\n        address[] memory _path,\n        uint8[] memory _decimals,\n        address _to,\n        uint256 _deadline\n    ) public {\n        // Give permission\n        IERC20Upgradeable(_path[0]).safeIncreaseAllowance(\n            _uniRouter,\n            _amountIn\n        );\n        // Swap\n        IAMMRouter02(_uniRouter).safeSwap(\n            _amountIn,\n            _priceTokens,\n            _slippageFactor,\n            _path,\n            _decimals,\n            _to,\n            _deadline\n        );\n    }\n}\n\n/// @title MockAMMRouter02: Mock contract for the IAMMRouter02 library\ncontract MockAMMRouter02 is IAMMRouter02, MockERC20Upgradeable {\n    using SafeERC20Upgradeable for IERC20Upgradeable;\n\n    address public burnAddress;\n    address public poolAddress;\n    uint256 private _dummy; // Used to satisfy state mutability compiler warnings on Mock contracts\n\n    function setBurnAddress(address _burnAddress) public {\n        burnAddress = _burnAddress;\n    }\n\n    function setPoolAddress(address _poolAddress) public {\n        poolAddress = _poolAddress;\n    }\n\n    event SwappedToken(\n        address indexed _dest,\n        uint256 indexed _amountIn,\n        uint256 indexed _amountOutMin\n    );\n\n    event AddedLiquidity(\n        uint256 indexed _amountA,\n        uint256 indexed _amountB,\n        uint256 indexed _liquidity\n    );\n\n    event RemovedLiquidity(uint256 indexed _amountA, uint256 indexed _amountB);\n\n    function factory() external pure returns (address) {\n        return address(0);\n    }\n\n    function WETH() external pure returns (address) {\n        return address(0);\n    }\n\n    function addLiquidity(\n        address tokenA,\n        address tokenB,\n        uint256 amountADesired,\n        uint256 amountBDesired,\n        uint256 amountAMin,\n        uint256 amountBMin,\n        address to,\n        uint256 deadline\n    )\n        external\n        returns (\n            uint256 amountA,\n            uint256 amountB,\n            uint256 liquidity\n        )\n    {\n        // Requirements\n        require(amountAMin >= 0 && amountBMin >= 0 && deadline > 0);\n\n        // Vars\n        amountA = amountADesired;\n        amountB = amountBDesired;\n        // Safe transfer from\n        IERC20Upgradeable(tokenA).safeTransferFrom(\n            msg.sender,\n            address(this),\n            amountA\n        );\n        IERC20Upgradeable(tokenB).safeTransferFrom(\n            msg.sender,\n            address(this),\n            amountB\n        );\n\n        // Mint LP token (just 1 token for simplicity)\n        liquidity = 1 ether;\n        IMockERC20Upgradeable(address(this)).mint(to, liquidity);\n\n        // Emit event\n        emit AddedLiquidity(amountA, amountB, liquidity);\n    }\n\n    function addLiquidityETH(\n        address token,\n        uint256 amountTokenDesired,\n        uint256 amountTokenMin,\n        uint256 amountETHMin,\n        address to,\n        uint256 deadline\n    )\n        external\n        payable\n        returns (\n            uint256 amountToken,\n            uint256 amountETH,\n            uint256 liquidity\n        )\n    {}\n\n    function removeLiquidity(\n        address tokenA,\n        address tokenB,\n        uint256 liquidity,\n        uint256 amountAMin,\n        uint256 amountBMin,\n        address to,\n        uint256 deadline\n    ) external returns (uint256 amountA, uint256 amountB) {\n        // Requirements\n        require(deadline > 0);\n\n        // Vars\n        amountA = amountAMin;\n        amountB = amountBMin;\n\n        // Safe transfer liquidity & burn\n        IERC20Upgradeable(poolAddress).safeTransferFrom(\n            msg.sender,\n            burnAddress,\n            liquidity\n        );\n\n        // Mint tokens 0, 1\n        IMockERC20Upgradeable(tokenA).mint(to, amountA);\n        IMockERC20Upgradeable(tokenB).mint(to, amountB);\n\n        // Emit event\n        emit RemovedLiquidity(amountA, amountB);\n    }\n\n    function removeLiquidityETH(\n        address token,\n        uint256 liquidity,\n        uint256 amountTokenMin,\n        uint256 amountETHMin,\n        address to,\n        uint256 deadline\n    ) external returns (uint256 amountToken, uint256 amountETH) {}\n\n    function removeLiquidityWithPermit(\n        address tokenA,\n        address tokenB,\n        uint256 liquidity,\n        uint256 amountAMin,\n        uint256 amountBMin,\n        address to,\n        uint256 deadline,\n        bool approveMax,\n        uint8 v,\n        bytes32 r,\n        bytes32 s\n    ) external returns (uint256 amountA, uint256 amountB) {}\n\n    function removeLiquidityETHWithPermit(\n        address token,\n        uint256 liquidity,\n        uint256 amountTokenMin,\n        uint256 amountETHMin,\n        address to,\n        uint256 deadline,\n        bool approveMax,\n        uint8 v,\n        bytes32 r,\n        bytes32 s\n    ) external returns (uint256 amountToken, uint256 amountETH) {}\n\n    function swapExactTokensForTokens(\n        uint256 amountIn,\n        uint256 amountOutMin,\n        address[] calldata path,\n        address to,\n        uint256 deadline\n    ) external returns (uint256[] memory amounts) {\n        return\n            _mockSwapExactTokensForTokens(\n                amountIn,\n                amountOutMin,\n                path,\n                to,\n                deadline\n            );\n    }\n\n    function _mockSwapExactTokensForTokens(\n        uint256 amountIn,\n        uint256 amountOutMin,\n        address[] calldata path,\n        address to,\n        uint256 deadline\n    ) internal returns (uint256[] memory amounts) {\n        // Reqs\n        require(deadline > 0);\n\n        // Vars\n        address _tokenIn = path[0];\n        address _tokenOut = path[path.length - 1];\n\n        // Burn token IN\n        IERC20Upgradeable(_tokenIn).safeTransferFrom(\n            msg.sender,\n            burnAddress,\n            amountIn\n        );\n\n        // Mint token OUT -> to\n        IMockERC20Upgradeable(_tokenOut).mint(to, amountOutMin);\n\n        // Return\n        uint256[] memory _amounts = new uint256[](2);\n        _amounts[0] = amountIn;\n        _amounts[1] = amountOutMin;\n        amounts = _amounts;\n\n        emit SwappedToken(msg.sender, amountIn, amountOutMin);\n    }\n\n    function swapTokensForExactTokens(\n        uint256 amountOut,\n        uint256 amountInMax,\n        address[] calldata path,\n        address to,\n        uint256 deadline\n    ) external returns (uint256[] memory amounts) {}\n\n    function swapExactETHForTokens(\n        uint256 amountOutMin,\n        address[] calldata path,\n        address to,\n        uint256 deadline\n    ) external payable returns (uint256[] memory amounts) {}\n\n    function swapTokensForExactETH(\n        uint256 amountOut,\n        uint256 amountInMax,\n        address[] calldata path,\n        address to,\n        uint256 deadline\n    ) external returns (uint256[] memory amounts) {}\n\n    function swapExactTokensForETH(\n        uint256 amountIn,\n        uint256 amountOutMin,\n        address[] calldata path,\n        address to,\n        uint256 deadline\n    ) external returns (uint256[] memory amounts) {}\n\n    function swapETHForExactTokens(\n        uint256 amountOut,\n        address[] calldata path,\n        address to,\n        uint256 deadline\n    ) external payable returns (uint256[] memory amounts) {}\n\n    function quote(\n        uint256 amountA,\n        uint256 reserveA,\n        uint256 reserveB\n    ) external pure returns (uint256 amountB) {}\n\n    function getAmountOut(\n        uint256 amountIn,\n        uint256 reserveIn,\n        uint256 reserveOut\n    ) external pure returns (uint256 amountOut) {\n        // Reqs\n        require(reserveIn >= 0 && reserveOut >= 0);\n\n        return amountIn;\n    }\n\n    function getAmountIn(\n        uint256 amountOut,\n        uint256 reserveIn,\n        uint256 reserveOut\n    ) external pure returns (uint256 amountIn) {}\n\n    function getAmountsOut(uint256 amountIn, address[] calldata path)\n        external\n        view\n        returns (uint256[] memory amounts)\n    {\n        // Reqs, satisfy compiler state mutability errors\n        require(path.length > 0 && _dummy >= 0);\n\n        uint256[] memory _amounts = new uint256[](1);\n        _amounts[0] = amountIn;\n        return _amounts;\n    }\n\n    function getAmountsIn(uint256 amountOut, address[] calldata path)\n        external\n        view\n        returns (uint256[] memory amounts)\n    {}\n\n    function removeLiquidityETHSupportingFeeOnTransferTokens(\n        address token,\n        uint256 liquidity,\n        uint256 amountTokenMin,\n        uint256 amountETHMin,\n        address to,\n        uint256 deadline\n    ) external returns (uint256 amountETH) {}\n\n    function removeLiquidityETHWithPermitSupportingFeeOnTransferTokens(\n        address token,\n        uint256 liquidity,\n        uint256 amountTokenMin,\n        uint256 amountETHMin,\n        address to,\n        uint256 deadline,\n        bool approveMax,\n        uint8 v,\n        bytes32 r,\n        bytes32 s\n    ) external returns (uint256 amountETH) {}\n\n    function swapExactTokensForTokensSupportingFeeOnTransferTokens(\n        uint256 amountIn,\n        uint256 amountOutMin,\n        address[] calldata path,\n        address to,\n        uint256 deadline\n    ) external {\n        _mockSwapExactTokensForTokens(\n            amountIn,\n            amountOutMin,\n            path,\n            to,\n            deadline\n        );\n    }\n\n    function swapExactETHForTokensSupportingFeeOnTransferTokens(\n        uint256 amountOutMin,\n        address[] calldata path,\n        address to,\n        uint256 deadline\n    ) external payable {}\n\n    function swapExactTokensForETHSupportingFeeOnTransferTokens(\n        uint256 amountIn,\n        uint256 amountOutMin,\n        address[] calldata path,\n        address to,\n        uint256 deadline\n    ) external {}\n}",
  "sourcePath": "/Users/kristophm/Documents/workspace/zorro-protocol/contracts/libraries/mocks/MockSafeSwap.sol",
  "compiler": {
    "name": "solc",
    "version": "0.8.10+commit.fc410830.Emscripten.clang"
  },
  "schemaVersion": "3.4.4",
  "updatedAt": "2022-11-03T02:44:35.597Z",
  "devdoc": {
    "kind": "dev",
    "methods": {},
    "title": "MockSafeSwapUni: Mock contract for testing the SafeSwapUni library",
    "version": 1
  },
  "userdoc": {
    "kind": "user",
    "methods": {},
    "version": 1
  }
}