{
  "contractName": "MockVaultAnkrLiqStakeLP",
  "abi": [
    {
      "anonymous": false,
      "inputs": [
        {
          "indexed": true,
          "internalType": "uint256",
          "name": "_amount",
          "type": "uint256"
        }
      ],
      "name": "Buyback",
      "type": "event"
    },
    {
      "anonymous": false,
      "inputs": [
        {
          "indexed": true,
          "internalType": "address",
          "name": "previousOwner",
          "type": "address"
        },
        {
          "indexed": true,
          "internalType": "address",
          "name": "newOwner",
          "type": "address"
        }
      ],
      "name": "OwnershipTransferred",
      "type": "event"
    },
    {
      "anonymous": false,
      "inputs": [
        {
          "indexed": false,
          "internalType": "address",
          "name": "account",
          "type": "address"
        }
      ],
      "name": "Paused",
      "type": "event"
    },
    {
      "anonymous": false,
      "inputs": [
        {
          "indexed": true,
          "internalType": "uint256",
          "name": "_amount",
          "type": "uint256"
        }
      ],
      "name": "RevShare",
      "type": "event"
    },
    {
      "anonymous": false,
      "inputs": [
        {
          "indexed": false,
          "internalType": "address",
          "name": "_govAddress",
          "type": "address"
        }
      ],
      "name": "SetGov",
      "type": "event"
    },
    {
      "anonymous": false,
      "inputs": [
        {
          "indexed": false,
          "internalType": "bool",
          "name": "_onlyGov",
          "type": "bool"
        }
      ],
      "name": "SetOnlyGov",
      "type": "event"
    },
    {
      "anonymous": false,
      "inputs": [
        {
          "indexed": false,
          "internalType": "address",
          "name": "_rewardsAddress",
          "type": "address"
        }
      ],
      "name": "SetRewardsAddress",
      "type": "event"
    },
    {
      "anonymous": false,
      "inputs": [
        {
          "indexed": false,
          "internalType": "uint256",
          "name": "_entranceFeeFactor",
          "type": "uint256"
        },
        {
          "indexed": false,
          "internalType": "uint256",
          "name": "_withdrawFeeFactor",
          "type": "uint256"
        },
        {
          "indexed": false,
          "internalType": "uint256",
          "name": "_controllerFee",
          "type": "uint256"
        },
        {
          "indexed": false,
          "internalType": "uint256",
          "name": "_buyBackRate",
          "type": "uint256"
        },
        {
          "indexed": false,
          "internalType": "uint256",
          "name": "_revShareRate",
          "type": "uint256"
        }
      ],
      "name": "SetSettings",
      "type": "event"
    },
    {
      "anonymous": false,
      "inputs": [
        {
          "indexed": false,
          "internalType": "address",
          "name": "_uniRouterAddress",
          "type": "address"
        }
      ],
      "name": "SetUniRouterAddress",
      "type": "event"
    },
    {
      "anonymous": false,
      "inputs": [
        {
          "indexed": false,
          "internalType": "address",
          "name": "account",
          "type": "address"
        }
      ],
      "name": "Unpaused",
      "type": "event"
    },
    {
      "inputs": [],
      "name": "ZORPriceFeed",
      "outputs": [
        {
          "internalType": "contract AggregatorV3Interface",
          "name": "",
          "type": "address"
        }
      ],
      "stateMutability": "view",
      "type": "function"
    },
    {
      "inputs": [],
      "name": "ZORROAddress",
      "outputs": [
        {
          "internalType": "address",
          "name": "",
          "type": "address"
        }
      ],
      "stateMutability": "view",
      "type": "function"
    },
    {
      "inputs": [],
      "name": "burnAddress",
      "outputs": [
        {
          "internalType": "address",
          "name": "",
          "type": "address"
        }
      ],
      "stateMutability": "view",
      "type": "function"
    },
    {
      "inputs": [],
      "name": "buyBackRate",
      "outputs": [
        {
          "internalType": "uint256",
          "name": "",
          "type": "uint256"
        }
      ],
      "stateMutability": "view",
      "type": "function"
    },
    {
      "inputs": [],
      "name": "buyBackRateMax",
      "outputs": [
        {
          "internalType": "uint256",
          "name": "",
          "type": "uint256"
        }
      ],
      "stateMutability": "view",
      "type": "function"
    },
    {
      "inputs": [],
      "name": "buyBackRateUL",
      "outputs": [
        {
          "internalType": "uint256",
          "name": "",
          "type": "uint256"
        }
      ],
      "stateMutability": "view",
      "type": "function"
    },
    {
      "inputs": [],
      "name": "controllerFee",
      "outputs": [
        {
          "internalType": "uint256",
          "name": "",
          "type": "uint256"
        }
      ],
      "stateMutability": "view",
      "type": "function"
    },
    {
      "inputs": [],
      "name": "controllerFeeMax",
      "outputs": [
        {
          "internalType": "uint256",
          "name": "",
          "type": "uint256"
        }
      ],
      "stateMutability": "view",
      "type": "function"
    },
    {
      "inputs": [],
      "name": "controllerFeeUL",
      "outputs": [
        {
          "internalType": "uint256",
          "name": "",
          "type": "uint256"
        }
      ],
      "stateMutability": "view",
      "type": "function"
    },
    {
      "inputs": [],
      "name": "defaultStablecoin",
      "outputs": [
        {
          "internalType": "address",
          "name": "",
          "type": "address"
        }
      ],
      "stateMutability": "view",
      "type": "function"
    },
    {
      "inputs": [
        {
          "internalType": "uint256",
          "name": "_wantAmt",
          "type": "uint256"
        }
      ],
      "name": "depositWantToken",
      "outputs": [
        {
          "internalType": "uint256",
          "name": "sharesAdded",
          "type": "uint256"
        }
      ],
      "stateMutability": "nonpayable",
      "type": "function"
    },
    {
      "inputs": [
        {
          "internalType": "uint256",
          "name": "_maxMarketMovementAllowed",
          "type": "uint256"
        }
      ],
      "name": "earn",
      "outputs": [],
      "stateMutability": "nonpayable",
      "type": "function"
    },
    {
      "inputs": [],
      "name": "earnTokenPriceFeed",
      "outputs": [
        {
          "internalType": "contract AggregatorV3Interface",
          "name": "",
          "type": "address"
        }
      ],
      "stateMutability": "view",
      "type": "function"
    },
    {
      "inputs": [],
      "name": "earnedAddress",
      "outputs": [
        {
          "internalType": "address",
          "name": "",
          "type": "address"
        }
      ],
      "stateMutability": "view",
      "type": "function"
    },
    {
      "inputs": [
        {
          "internalType": "uint256",
          "name": "",
          "type": "uint256"
        }
      ],
      "name": "earnedToStablecoinPath",
      "outputs": [
        {
          "internalType": "address",
          "name": "",
          "type": "address"
        }
      ],
      "stateMutability": "view",
      "type": "function"
    },
    {
      "inputs": [
        {
          "internalType": "uint256",
          "name": "",
          "type": "uint256"
        }
      ],
      "name": "earnedToToken0Path",
      "outputs": [
        {
          "internalType": "address",
          "name": "",
          "type": "address"
        }
      ],
      "stateMutability": "view",
      "type": "function"
    },
    {
      "inputs": [
        {
          "internalType": "uint256",
          "name": "",
          "type": "uint256"
        }
      ],
      "name": "earnedToToken1Path",
      "outputs": [
        {
          "internalType": "address",
          "name": "",
          "type": "address"
        }
      ],
      "stateMutability": "view",
      "type": "function"
    },
    {
      "inputs": [
        {
          "internalType": "uint256",
          "name": "",
          "type": "uint256"
        }
      ],
      "name": "earnedToZORLPPoolOtherTokenPath",
      "outputs": [
        {
          "internalType": "address",
          "name": "",
          "type": "address"
        }
      ],
      "stateMutability": "view",
      "type": "function"
    },
    {
      "inputs": [
        {
          "internalType": "uint256",
          "name": "",
          "type": "uint256"
        }
      ],
      "name": "earnedToZORROPath",
      "outputs": [
        {
          "internalType": "address",
          "name": "",
          "type": "address"
        }
      ],
      "stateMutability": "view",
      "type": "function"
    },
    {
      "inputs": [],
      "name": "entranceFeeFactor",
      "outputs": [
        {
          "internalType": "uint256",
          "name": "",
          "type": "uint256"
        }
      ],
      "stateMutability": "view",
      "type": "function"
    },
    {
      "inputs": [],
      "name": "entranceFeeFactorLL",
      "outputs": [
        {
          "internalType": "uint256",
          "name": "",
          "type": "uint256"
        }
      ],
      "stateMutability": "view",
      "type": "function"
    },
    {
      "inputs": [],
      "name": "entranceFeeFactorMax",
      "outputs": [
        {
          "internalType": "uint256",
          "name": "",
          "type": "uint256"
        }
      ],
      "stateMutability": "view",
      "type": "function"
    },
    {
      "inputs": [
        {
          "internalType": "uint256",
          "name": "_amountUSD",
          "type": "uint256"
        },
        {
          "internalType": "uint256",
          "name": "_maxMarketMovementAllowed",
          "type": "uint256"
        }
      ],
      "name": "exchangeUSDForWantToken",
      "outputs": [
        {
          "internalType": "uint256",
          "name": "",
          "type": "uint256"
        }
      ],
      "stateMutability": "nonpayable",
      "type": "function"
    },
    {
      "inputs": [
        {
          "internalType": "uint256",
          "name": "_amount",
          "type": "uint256"
        },
        {
          "internalType": "uint256",
          "name": "_maxMarketMovementAllowed",
          "type": "uint256"
        }
      ],
      "name": "exchangeWantTokenForUSD",
      "outputs": [
        {
          "internalType": "uint256",
          "name": "returnedUSD",
          "type": "uint256"
        }
      ],
      "stateMutability": "nonpayable",
      "type": "function"
    },
    {
      "inputs": [],
      "name": "farm",
      "outputs": [],
      "stateMutability": "nonpayable",
      "type": "function"
    },
    {
      "inputs": [],
      "name": "farmContractAddress",
      "outputs": [
        {
          "internalType": "address",
          "name": "",
          "type": "address"
        }
      ],
      "stateMutability": "view",
      "type": "function"
    },
    {
      "inputs": [],
      "name": "govAddress",
      "outputs": [
        {
          "internalType": "address",
          "name": "",
          "type": "address"
        }
      ],
      "stateMutability": "view",
      "type": "function"
    },
    {
      "inputs": [
        {
          "internalType": "address",
          "name": "_token",
          "type": "address"
        },
        {
          "internalType": "uint256",
          "name": "_amount",
          "type": "uint256"
        },
        {
          "internalType": "address",
          "name": "_to",
          "type": "address"
        }
      ],
      "name": "inCaseTokensGetStuck",
      "outputs": [],
      "stateMutability": "nonpayable",
      "type": "function"
    },
    {
      "inputs": [
        {
          "internalType": "address",
          "name": "_timelockOwner",
          "type": "address"
        },
        {
          "components": [
            {
              "internalType": "uint256",
              "name": "pid",
              "type": "uint256"
            },
            {
              "internalType": "bool",
              "name": "isHomeChain",
              "type": "bool"
            },
            {
              "internalType": "bool",
              "name": "isFarmable",
              "type": "bool"
            },
            {
              "components": [
                {
                  "internalType": "address",
                  "name": "govAddress",
                  "type": "address"
                },
                {
                  "internalType": "address",
                  "name": "zorroControllerAddress",
                  "type": "address"
                },
                {
                  "internalType": "address",
                  "name": "zorroXChainController",
                  "type": "address"
                },
                {
                  "internalType": "address",
                  "name": "ZORROAddress",
                  "type": "address"
                },
                {
                  "internalType": "address",
                  "name": "zorroStakingVault",
                  "type": "address"
                },
                {
                  "internalType": "address",
                  "name": "wantAddress",
                  "type": "address"
                },
                {
                  "internalType": "address",
                  "name": "token0Address",
                  "type": "address"
                },
                {
                  "internalType": "address",
                  "name": "token1Address",
                  "type": "address"
                },
                {
                  "internalType": "address",
                  "name": "earnedAddress",
                  "type": "address"
                },
                {
                  "internalType": "address",
                  "name": "farmContractAddress",
                  "type": "address"
                },
                {
                  "internalType": "address",
                  "name": "rewardsAddress",
                  "type": "address"
                },
                {
                  "internalType": "address",
                  "name": "poolAddress",
                  "type": "address"
                },
                {
                  "internalType": "address",
                  "name": "uniRouterAddress",
                  "type": "address"
                },
                {
                  "internalType": "address",
                  "name": "zorroLPPool",
                  "type": "address"
                },
                {
                  "internalType": "address",
                  "name": "zorroLPPoolOtherToken",
                  "type": "address"
                },
                {
                  "internalType": "address",
                  "name": "defaultStablecoin",
                  "type": "address"
                }
              ],
              "internalType": "struct VaultLibrary.VaultAddresses",
              "name": "keyAddresses",
              "type": "tuple"
            },
            {
              "internalType": "address",
              "name": "liquidStakeToken",
              "type": "address"
            },
            {
              "internalType": "address",
              "name": "liquidStakingPool",
              "type": "address"
            },
            {
              "internalType": "address[]",
              "name": "earnedToZORROPath",
              "type": "address[]"
            },
            {
              "internalType": "address[]",
              "name": "earnedToToken0Path",
              "type": "address[]"
            },
            {
              "internalType": "address[]",
              "name": "stablecoinToToken0Path",
              "type": "address[]"
            },
            {
              "internalType": "address[]",
              "name": "earnedToZORLPPoolOtherTokenPath",
              "type": "address[]"
            },
            {
              "internalType": "address[]",
              "name": "earnedToStablecoinPath",
              "type": "address[]"
            },
            {
              "internalType": "address[]",
              "name": "stablecoinToZORROPath",
              "type": "address[]"
            },
            {
              "internalType": "address[]",
              "name": "stablecoinToLPPoolOtherTokenPath",
              "type": "address[]"
            },
            {
              "internalType": "address[]",
              "name": "liquidStakeToToken0Path",
              "type": "address[]"
            },
            {
              "components": [
                {
                  "internalType": "uint256",
                  "name": "controllerFee",
                  "type": "uint256"
                },
                {
                  "internalType": "uint256",
                  "name": "buyBackRate",
                  "type": "uint256"
                },
                {
                  "internalType": "uint256",
                  "name": "revShareRate",
                  "type": "uint256"
                },
                {
                  "internalType": "uint256",
                  "name": "entranceFeeFactor",
                  "type": "uint256"
                },
                {
                  "internalType": "uint256",
                  "name": "withdrawFeeFactor",
                  "type": "uint256"
                }
              ],
              "internalType": "struct VaultLibrary.VaultFees",
              "name": "fees",
              "type": "tuple"
            },
            {
              "components": [
                {
                  "internalType": "address",
                  "name": "token0PriceFeed",
                  "type": "address"
                },
                {
                  "internalType": "address",
                  "name": "earnTokenPriceFeed",
                  "type": "address"
                },
                {
                  "internalType": "address",
                  "name": "ZORPriceFeed",
                  "type": "address"
                },
                {
                  "internalType": "address",
                  "name": "lpPoolOtherTokenPriceFeed",
                  "type": "address"
                },
                {
                  "internalType": "address",
                  "name": "stablecoinPriceFeed",
                  "type": "address"
                },
                {
                  "internalType": "address",
                  "name": "liquidStakeTokenPriceFeed",
                  "type": "address"
                }
              ],
              "internalType": "struct VaultBaseLiqStakeLP.VaultBaseLiqStakeLPPriceFeeds",
              "name": "priceFeeds",
              "type": "tuple"
            },
            {
              "internalType": "uint256",
              "name": "maxMarketMovementAllowed",
              "type": "uint256"
            }
          ],
          "internalType": "struct VaultBaseLiqStakeLP.VaultBaseLiqStakeLPInit",
          "name": "_initValue",
          "type": "tuple"
        }
      ],
      "name": "initialize",
      "outputs": [],
      "stateMutability": "nonpayable",
      "type": "function"
    },
    {
      "inputs": [
        {
          "internalType": "address",
          "name": "_timelockOwner",
          "type": "address"
        }
      ],
      "name": "initialize",
      "outputs": [],
      "stateMutability": "nonpayable",
      "type": "function"
    },
    {
      "inputs": [],
      "name": "isFarmable",
      "outputs": [
        {
          "internalType": "bool",
          "name": "",
          "type": "bool"
        }
      ],
      "stateMutability": "view",
      "type": "function"
    },
    {
      "inputs": [],
      "name": "isHomeChain",
      "outputs": [
        {
          "internalType": "bool",
          "name": "",
          "type": "bool"
        }
      ],
      "stateMutability": "view",
      "type": "function"
    },
    {
      "inputs": [],
      "name": "lastEarnBlock",
      "outputs": [
        {
          "internalType": "uint256",
          "name": "",
          "type": "uint256"
        }
      ],
      "stateMutability": "view",
      "type": "function"
    },
    {
      "inputs": [
        {
          "internalType": "uint256",
          "name": "",
          "type": "uint256"
        }
      ],
      "name": "liquidStakeToToken0Path",
      "outputs": [
        {
          "internalType": "address",
          "name": "",
          "type": "address"
        }
      ],
      "stateMutability": "view",
      "type": "function"
    },
    {
      "inputs": [],
      "name": "liquidStakeToken",
      "outputs": [
        {
          "internalType": "address",
          "name": "",
          "type": "address"
        }
      ],
      "stateMutability": "view",
      "type": "function"
    },
    {
      "inputs": [],
      "name": "liquidStakeTokenPriceFeed",
      "outputs": [
        {
          "internalType": "contract AggregatorV3Interface",
          "name": "",
          "type": "address"
        }
      ],
      "stateMutability": "view",
      "type": "function"
    },
    {
      "inputs": [],
      "name": "liquidStakingPool",
      "outputs": [
        {
          "internalType": "address",
          "name": "",
          "type": "address"
        }
      ],
      "stateMutability": "view",
      "type": "function"
    },
    {
      "inputs": [],
      "name": "lpPoolOtherTokenPriceFeed",
      "outputs": [
        {
          "internalType": "contract AggregatorV3Interface",
          "name": "",
          "type": "address"
        }
      ],
      "stateMutability": "view",
      "type": "function"
    },
    {
      "inputs": [],
      "name": "maxMarketMovementAllowed",
      "outputs": [
        {
          "internalType": "uint256",
          "name": "",
          "type": "uint256"
        }
      ],
      "stateMutability": "view",
      "type": "function"
    },
    {
      "inputs": [],
      "name": "onlyGov",
      "outputs": [
        {
          "internalType": "bool",
          "name": "",
          "type": "bool"
        }
      ],
      "stateMutability": "view",
      "type": "function"
    },
    {
      "inputs": [],
      "name": "owner",
      "outputs": [
        {
          "internalType": "address",
          "name": "",
          "type": "address"
        }
      ],
      "stateMutability": "view",
      "type": "function"
    },
    {
      "inputs": [],
      "name": "pause",
      "outputs": [],
      "stateMutability": "nonpayable",
      "type": "function"
    },
    {
      "inputs": [],
      "name": "paused",
      "outputs": [
        {
          "internalType": "bool",
          "name": "",
          "type": "bool"
        }
      ],
      "stateMutability": "view",
      "type": "function"
    },
    {
      "inputs": [],
      "name": "pid",
      "outputs": [
        {
          "internalType": "uint256",
          "name": "",
          "type": "uint256"
        }
      ],
      "stateMutability": "view",
      "type": "function"
    },
    {
      "inputs": [],
      "name": "poolAddress",
      "outputs": [
        {
          "internalType": "address",
          "name": "",
          "type": "address"
        }
      ],
      "stateMutability": "view",
      "type": "function"
    },
    {
      "inputs": [],
      "name": "renounceOwnership",
      "outputs": [],
      "stateMutability": "nonpayable",
      "type": "function"
    },
    {
      "inputs": [],
      "name": "revShareRate",
      "outputs": [
        {
          "internalType": "uint256",
          "name": "",
          "type": "uint256"
        }
      ],
      "stateMutability": "view",
      "type": "function"
    },
    {
      "inputs": [],
      "name": "revShareRateMax",
      "outputs": [
        {
          "internalType": "uint256",
          "name": "",
          "type": "uint256"
        }
      ],
      "stateMutability": "view",
      "type": "function"
    },
    {
      "inputs": [],
      "name": "revShareRateUL",
      "outputs": [
        {
          "internalType": "uint256",
          "name": "",
          "type": "uint256"
        }
      ],
      "stateMutability": "view",
      "type": "function"
    },
    {
      "inputs": [],
      "name": "rewardsAddress",
      "outputs": [
        {
          "internalType": "address",
          "name": "",
          "type": "address"
        }
      ],
      "stateMutability": "view",
      "type": "function"
    },
    {
      "inputs": [
        {
          "internalType": "address",
          "name": "_burnAddress",
          "type": "address"
        }
      ],
      "name": "setBurnAddress",
      "outputs": [],
      "stateMutability": "nonpayable",
      "type": "function"
    },
    {
      "inputs": [
        {
          "internalType": "address",
          "name": "_defaultStablecoin",
          "type": "address"
        }
      ],
      "name": "setDefaultStablecoin",
      "outputs": [],
      "stateMutability": "nonpayable",
      "type": "function"
    },
    {
      "inputs": [
        {
          "internalType": "address",
          "name": "_earnedAddress",
          "type": "address"
        }
      ],
      "name": "setEarnedAddress",
      "outputs": [],
      "stateMutability": "nonpayable",
      "type": "function"
    },
    {
      "inputs": [
        {
          "internalType": "address",
          "name": "_farmContractAddress",
          "type": "address"
        }
      ],
      "name": "setFarmContractAddress",
      "outputs": [],
      "stateMutability": "nonpayable",
      "type": "function"
    },
    {
      "inputs": [
        {
          "internalType": "uint256",
          "name": "_entranceFeeFactor",
          "type": "uint256"
        },
        {
          "internalType": "uint256",
          "name": "_withdrawFeeFactor",
          "type": "uint256"
        },
        {
          "internalType": "uint256",
          "name": "_controllerFee",
          "type": "uint256"
        },
        {
          "internalType": "uint256",
          "name": "_buyBackRate",
          "type": "uint256"
        },
        {
          "internalType": "uint256",
          "name": "_revShareRate",
          "type": "uint256"
        }
      ],
      "name": "setFeeSettings",
      "outputs": [],
      "stateMutability": "nonpayable",
      "type": "function"
    },
    {
      "inputs": [
        {
          "internalType": "address",
          "name": "_govAddress",
          "type": "address"
        }
      ],
      "name": "setGov",
      "outputs": [],
      "stateMutability": "nonpayable",
      "type": "function"
    },
    {
      "inputs": [
        {
          "internalType": "bool",
          "name": "_isFarmable",
          "type": "bool"
        }
      ],
      "name": "setIsFarmable",
      "outputs": [],
      "stateMutability": "nonpayable",
      "type": "function"
    },
    {
      "inputs": [
        {
          "internalType": "uint256",
          "name": "_slippageNumerator",
          "type": "uint256"
        }
      ],
      "name": "setMaxMarketMovementAllowed",
      "outputs": [],
      "stateMutability": "nonpayable",
      "type": "function"
    },
    {
      "inputs": [
        {
          "internalType": "bool",
          "name": "_onlyGov",
          "type": "bool"
        }
      ],
      "name": "setOnlyGov",
      "outputs": [],
      "stateMutability": "nonpayable",
      "type": "function"
    },
    {
      "inputs": [
        {
          "internalType": "uint256",
          "name": "_pid",
          "type": "uint256"
        }
      ],
      "name": "setPid",
      "outputs": [],
      "stateMutability": "nonpayable",
      "type": "function"
    },
    {
      "inputs": [
        {
          "internalType": "address",
          "name": "_poolAddress",
          "type": "address"
        }
      ],
      "name": "setPoolAddress",
      "outputs": [],
      "stateMutability": "nonpayable",
      "type": "function"
    },
    {
      "inputs": [
        {
          "internalType": "uint8",
          "name": "_idx",
          "type": "uint8"
        },
        {
          "internalType": "address",
          "name": "_priceFeed",
          "type": "address"
        }
      ],
      "name": "setPriceFeed",
      "outputs": [],
      "stateMutability": "nonpayable",
      "type": "function"
    },
    {
      "inputs": [
        {
          "internalType": "address",
          "name": "_rewardsAddress",
          "type": "address"
        }
      ],
      "name": "setRewardsAddress",
      "outputs": [],
      "stateMutability": "nonpayable",
      "type": "function"
    },
    {
      "inputs": [
        {
          "internalType": "uint8",
          "name": "_idx",
          "type": "uint8"
        },
        {
          "internalType": "address[]",
          "name": "_path",
          "type": "address[]"
        }
      ],
      "name": "setStablecoinSwapPaths",
      "outputs": [],
      "stateMutability": "nonpayable",
      "type": "function"
    },
    {
      "inputs": [
        {
          "internalType": "uint8",
          "name": "_idx",
          "type": "uint8"
        },
        {
          "internalType": "address[]",
          "name": "_path",
          "type": "address[]"
        }
      ],
      "name": "setSwapPaths",
      "outputs": [],
      "stateMutability": "nonpayable",
      "type": "function"
    },
    {
      "inputs": [
        {
          "internalType": "address",
          "name": "_token0Address",
          "type": "address"
        }
      ],
      "name": "setToken0Address",
      "outputs": [],
      "stateMutability": "nonpayable",
      "type": "function"
    },
    {
      "inputs": [
        {
          "internalType": "address",
          "name": "_token1Address",
          "type": "address"
        }
      ],
      "name": "setToken1Address",
      "outputs": [],
      "stateMutability": "nonpayable",
      "type": "function"
    },
    {
      "inputs": [
        {
          "internalType": "address",
          "name": "_uniRouterAddress",
          "type": "address"
        }
      ],
      "name": "setUniRouterAddress",
      "outputs": [],
      "stateMutability": "nonpayable",
      "type": "function"
    },
    {
      "inputs": [
        {
          "internalType": "address",
          "name": "_wantAddress",
          "type": "address"
        }
      ],
      "name": "setWantAddress",
      "outputs": [],
      "stateMutability": "nonpayable",
      "type": "function"
    },
    {
      "inputs": [
        {
          "internalType": "address",
          "name": "_ZORROAddress",
          "type": "address"
        }
      ],
      "name": "setZORROAddress",
      "outputs": [],
      "stateMutability": "nonpayable",
      "type": "function"
    },
    {
      "inputs": [
        {
          "internalType": "address",
          "name": "_zorroControllerAddress",
          "type": "address"
        }
      ],
      "name": "setZorroControllerAddress",
      "outputs": [],
      "stateMutability": "nonpayable",
      "type": "function"
    },
    {
      "inputs": [
        {
          "internalType": "address",
          "name": "_poolAddress",
          "type": "address"
        }
      ],
      "name": "setZorroLPPoolAddress",
      "outputs": [],
      "stateMutability": "nonpayable",
      "type": "function"
    },
    {
      "inputs": [
        {
          "internalType": "address",
          "name": "_otherToken",
          "type": "address"
        }
      ],
      "name": "setZorroLPPoolOtherToken",
      "outputs": [],
      "stateMutability": "nonpayable",
      "type": "function"
    },
    {
      "inputs": [
        {
          "internalType": "address",
          "name": "_stakingVault",
          "type": "address"
        }
      ],
      "name": "setZorroStakingVault",
      "outputs": [],
      "stateMutability": "nonpayable",
      "type": "function"
    },
    {
      "inputs": [
        {
          "internalType": "address",
          "name": "_zorroXChainController",
          "type": "address"
        }
      ],
      "name": "setZorroXChainControllerAddress",
      "outputs": [],
      "stateMutability": "nonpayable",
      "type": "function"
    },
    {
      "inputs": [],
      "name": "sharesTotal",
      "outputs": [
        {
          "internalType": "uint256",
          "name": "",
          "type": "uint256"
        }
      ],
      "stateMutability": "view",
      "type": "function"
    },
    {
      "inputs": [],
      "name": "stablecoinPriceFeed",
      "outputs": [
        {
          "internalType": "contract AggregatorV3Interface",
          "name": "",
          "type": "address"
        }
      ],
      "stateMutability": "view",
      "type": "function"
    },
    {
      "inputs": [
        {
          "internalType": "uint256",
          "name": "",
          "type": "uint256"
        }
      ],
      "name": "stablecoinToLPPoolOtherTokenPath",
      "outputs": [
        {
          "internalType": "address",
          "name": "",
          "type": "address"
        }
      ],
      "stateMutability": "view",
      "type": "function"
    },
    {
      "inputs": [
        {
          "internalType": "uint256",
          "name": "",
          "type": "uint256"
        }
      ],
      "name": "stablecoinToToken0Path",
      "outputs": [
        {
          "internalType": "address",
          "name": "",
          "type": "address"
        }
      ],
      "stateMutability": "view",
      "type": "function"
    },
    {
      "inputs": [
        {
          "internalType": "uint256",
          "name": "",
          "type": "uint256"
        }
      ],
      "name": "stablecoinToToken1Path",
      "outputs": [
        {
          "internalType": "address",
          "name": "",
          "type": "address"
        }
      ],
      "stateMutability": "view",
      "type": "function"
    },
    {
      "inputs": [
        {
          "internalType": "uint256",
          "name": "",
          "type": "uint256"
        }
      ],
      "name": "stablecoinToZORROPath",
      "outputs": [
        {
          "internalType": "address",
          "name": "",
          "type": "address"
        }
      ],
      "stateMutability": "view",
      "type": "function"
    },
    {
      "inputs": [],
      "name": "token0Address",
      "outputs": [
        {
          "internalType": "address",
          "name": "",
          "type": "address"
        }
      ],
      "stateMutability": "view",
      "type": "function"
    },
    {
      "inputs": [],
      "name": "token0PriceFeed",
      "outputs": [
        {
          "internalType": "contract AggregatorV3Interface",
          "name": "",
          "type": "address"
        }
      ],
      "stateMutability": "view",
      "type": "function"
    },
    {
      "inputs": [
        {
          "internalType": "uint256",
          "name": "",
          "type": "uint256"
        }
      ],
      "name": "token0ToStablecoinPath",
      "outputs": [
        {
          "internalType": "address",
          "name": "",
          "type": "address"
        }
      ],
      "stateMutability": "view",
      "type": "function"
    },
    {
      "inputs": [],
      "name": "token1Address",
      "outputs": [
        {
          "internalType": "address",
          "name": "",
          "type": "address"
        }
      ],
      "stateMutability": "view",
      "type": "function"
    },
    {
      "inputs": [],
      "name": "token1PriceFeed",
      "outputs": [
        {
          "internalType": "contract AggregatorV3Interface",
          "name": "",
          "type": "address"
        }
      ],
      "stateMutability": "view",
      "type": "function"
    },
    {
      "inputs": [
        {
          "internalType": "uint256",
          "name": "",
          "type": "uint256"
        }
      ],
      "name": "token1ToStablecoinPath",
      "outputs": [
        {
          "internalType": "address",
          "name": "",
          "type": "address"
        }
      ],
      "stateMutability": "view",
      "type": "function"
    },
    {
      "inputs": [
        {
          "internalType": "address",
          "name": "newOwner",
          "type": "address"
        }
      ],
      "name": "transferOwnership",
      "outputs": [],
      "stateMutability": "nonpayable",
      "type": "function"
    },
    {
      "inputs": [],
      "name": "uniRouterAddress",
      "outputs": [
        {
          "internalType": "address",
          "name": "",
          "type": "address"
        }
      ],
      "stateMutability": "view",
      "type": "function"
    },
    {
      "inputs": [],
      "name": "unpause",
      "outputs": [],
      "stateMutability": "nonpayable",
      "type": "function"
    },
    {
      "inputs": [],
      "name": "wantAddress",
      "outputs": [
        {
          "internalType": "address",
          "name": "",
          "type": "address"
        }
      ],
      "stateMutability": "view",
      "type": "function"
    },
    {
      "inputs": [],
      "name": "wantLockedTotal",
      "outputs": [
        {
          "internalType": "uint256",
          "name": "",
          "type": "uint256"
        }
      ],
      "stateMutability": "view",
      "type": "function"
    },
    {
      "inputs": [],
      "name": "withdrawFeeFactor",
      "outputs": [
        {
          "internalType": "uint256",
          "name": "",
          "type": "uint256"
        }
      ],
      "stateMutability": "view",
      "type": "function"
    },
    {
      "inputs": [],
      "name": "withdrawFeeFactorLL",
      "outputs": [
        {
          "internalType": "uint256",
          "name": "",
          "type": "uint256"
        }
      ],
      "stateMutability": "view",
      "type": "function"
    },
    {
      "inputs": [],
      "name": "withdrawFeeFactorMax",
      "outputs": [
        {
          "internalType": "uint256",
          "name": "",
          "type": "uint256"
        }
      ],
      "stateMutability": "view",
      "type": "function"
    },
    {
      "inputs": [
        {
          "internalType": "uint256",
          "name": "_wantAmt",
          "type": "uint256"
        }
      ],
      "name": "withdrawWantToken",
      "outputs": [
        {
          "internalType": "uint256",
          "name": "sharesRemoved",
          "type": "uint256"
        }
      ],
      "stateMutability": "nonpayable",
      "type": "function"
    },
    {
      "inputs": [],
      "name": "zorroControllerAddress",
      "outputs": [
        {
          "internalType": "address",
          "name": "",
          "type": "address"
        }
      ],
      "stateMutability": "view",
      "type": "function"
    },
    {
      "inputs": [],
      "name": "zorroLPPool",
      "outputs": [
        {
          "internalType": "address",
          "name": "",
          "type": "address"
        }
      ],
      "stateMutability": "view",
      "type": "function"
    },
    {
      "inputs": [],
      "name": "zorroLPPoolOtherToken",
      "outputs": [
        {
          "internalType": "address",
          "name": "",
          "type": "address"
        }
      ],
      "stateMutability": "view",
      "type": "function"
    },
    {
      "inputs": [],
      "name": "zorroStakingVault",
      "outputs": [
        {
          "internalType": "address",
          "name": "",
          "type": "address"
        }
      ],
      "stateMutability": "view",
      "type": "function"
    },
    {
      "inputs": [],
      "name": "zorroXChainController",
      "outputs": [
        {
          "internalType": "address",
          "name": "",
          "type": "address"
        }
      ],
      "stateMutability": "view",
      "type": "function"
    }
  ],
  "bytecode": "0x608060405234801561001057600080fd5b50615def80620000216000396000f3fe608060405234801561001057600080fd5b50600436106105bb5760003560e060020a900480637bf604d811610304578063bf3a7d40116101ac578063e7198474116100f8578063f05c09b3116100b1578063f2fde38b1161008b578063f2fde38b14610bff578063f5046a2914610c12578063fbf5683f14610c25578063ff29b39514610c3857600080fd5b8063f05c09b314610bd6578063f106845414610be3578063f25342bf14610bec57600080fd5b8063e719847414610b7d578063e7a0367914610b90578063e9e15b4f14610ba3578063ebfba7c414610bb6578063edf5e58514610bc9578063ee50dc34146106fb57600080fd5b8063c8e3d18b11610165578063d7cb416f1161013f578063d7cb416f14610b31578063de84199114610b44578063e502a88d14610b57578063e65a011714610b6a57600080fd5b8063c8e3d18b14610af8578063ceb59cf414610b0b578063cfad57a214610b1e57600080fd5b8063bf3a7d4014610a99578063c0973eed14610aac578063c302a4d014610962578063c4d66de814610abf578063c524a05614610ad2578063c8479cd614610ae557600080fd5b806396e9aff81161026b578063ab196def11610224578063b3545c01116101fe578063b3545c01146105e8578063b61bb80a14610a60578063b73cba2a14610a73578063b8d5a72c14610a8657600080fd5b8063ab196def14610a27578063ae53e58a14610a3a578063b1414dbb14610a4d57600080fd5b806396e9aff8146109b55780639fc33a9f146109c8578063a0495391146109db578063a4d2b083146109ee578063aabf190b14610a01578063aada5bf614610a1457600080fd5b806385f02dd6116102bd57806385f02dd614610959578063866b2018146109625780638906758d1461096b5780638da5cb5b1461097e5780639339fd3c1461098f578063959334f4146109a257600080fd5b80637bf604d8146108f25780637ff36fbe1461090557806381aa8d3114610918578063833eeab91461092b57806383f019391461093e5780638456cb591461095157600080fd5b80634b0e72161161046757806361b5bf9f116103ce578063693a090b1161038757806370699c611161036157806370699c61146108b157806370d5ae05146108c4578063715018a6146108d75780637153ef86146108df57600080fd5b8063693a090b146108785780636ca8bd651461088b5780636f96f6fa1461089e57600080fd5b806361b5bf9f146108235780636392ab1214610836578063648794a41461084957806367057b6c146106fb57806367206d401461085c57806368f541621461086f57600080fd5b8063583bda3b11610420578063583bda3b146107b95780635c975abb146107cc5780635da79d63146107d75780635eedc574146107ea5780635fc77d43146107fd5780636183e8041461081057600080fd5b80634b0e72161461075a5780634bf71bb81461076d5780634c5b09da146107805780634d9f7bb2146106fb57806355ebedec14610793578063567e07c9146107a657600080fd5b80631e2bc672116105265780633214471f116104df57806342da4eb3116104b957806342da4eb31461073057806343788cd2146106fb57806344a3955e1461073957806346008a071461074257600080fd5b80633214471f1461071757806336e9332d146107205780633f4ba83a1461072857600080fd5b80631e2bc672146106c25780631e85b3ad146106d5578063211019d7146105e85780632209b59e146106e85780632717eff3146106fb578063320d47cc1461070457600080fd5b80630daef321116105785780630daef3211461064b5780630fa4e01e146106815780631334903f1461068a5780631755ff2114610693578063178a8d07146106a65780631b0d8aab146106af57600080fd5b8063051eed5e146105c057806305828d3e146105d5578063061c7d48146105e85780630761a172146106045780630b6bb30b1461060d5780630bbd6cd614610620575b600080fd5b6105d36105ce366004614e78565b610c4b565b005b6105d36105e336600461509b565b611121565b6105f16103e881565b6040519081526020015b60405180910390f35b6105f160f35481565b6105d361061b3660046150b8565b611170565b61063361062e3660046150d5565b61121e565b604051600160a060020a0390911681526020016105fb565b60cb54610671907501000000000000000000000000000000000000000000900460ff1681565b60405190151581526020016105fb565b6105f160e15481565b6105f160df5481565b60d85461063390600160a060020a031681565b6105f160dd5481565b6105d36106bd3660046150d5565b611248565b6106336106d03660046150d5565b61127a565b6106336106e33660046150d5565b61128a565b6105f16106f63660046150d5565b61129a565b6105f161271081565b6105d36107123660046150d5565b611434565b6105f160de5481565b6105d3611466565b6105d36114a0565b6105f160e25481565b6105f160e35481565b60cb54610633906101009004600160a060020a031681565b6105d361076836600461509b565b6114dc565b61063361077b3660046150d5565b61152b565b6105d361078e36600461509b565b61153b565b6105f16107a13660046150d5565b61158a565b6105d36107b436600461509b565b6117a7565b6105d36107c736600461509b565b6117f6565b60975460ff16610671565b6105d36107e536600461509b565b611845565b60f85461063390600160a060020a031681565b60cd5461063390600160a060020a031681565b6105d361081e36600461509b565b611894565b6105d361083136600461509b565b6118e3565b6106336108443660046150d5565b611932565b6105f16108573660046150ee565b611942565b6105d361086a366004615110565b611b60565b6105f160e05481565b60d95461063390600160a060020a031681565b6105d361089936600461509b565b611c68565b60ef5461063390600160a060020a031681565b60f75461063390600160a060020a031681565b60d65461063390600160a060020a031681565b6105d3611cb7565b6105d36108ed366004615152565b611cee565b60da5461063390600160a060020a031681565b60d15461063390600160a060020a031681565b6106336109263660046150d5565b611fe2565b6106336109393660046150d5565b611ff2565b6105d361094c3660046150b8565b612002565b6105d3612042565b6105f160dc5481565b6105f161232881565b6105d361097936600461509b565b61207c565b603354600160a060020a0316610633565b6105d361099d36600461519c565b6120cb565b6105d36109b036600461509b565b61218d565b6106336109c33660046150d5565b6121dc565b60d45461063390600160a060020a031681565b6106336109e93660046150d5565b6121ec565b60cf5461063390600160a060020a031681565b60f05461063390600160a060020a031681565b60f25461063390600160a060020a031681565b60f15461063390600160a060020a031681565b60ee5461063390600160a060020a031681565b60cc5461063390600160a060020a031681565b60d55461063390600160a060020a031681565b6105d3610a8136600461509b565b6121fc565b610633610a943660046150d5565b61224b565b6105d3610aa736600461509b565b61225b565b60d75461063390600160a060020a031681565b6105d3610acd36600461509b565b6122aa565b6105d3610ae036600461509b565b612345565b6105d3610af336600461509b565b612394565b610633610b063660046150d5565b6123e3565b60f95461063390600160a060020a031681565b6105d3610b2c36600461509b565b6123f3565b60d25461063390600160a060020a031681565b6105d3610b52366004615223565b612488565b6105f1610b653660046150ee565b61260a565b6105d3610b783660046150d5565b6127e7565b60d35461063390600160a060020a031681565b60d05461063390600160a060020a031681565b6105d3610bb136600461509b565b612e67565b60db5461063390600160a060020a031681565b60c9546106719060ff1681565b60cb546106719060ff1681565b6105f160ca5481565b60ed5461063390600160a060020a031681565b6105d3610c0d36600461509b565b612eb6565b60ce5461063390600160a060020a031681565b610633610c333660046150d5565b612f6e565b6105d3610c4636600461519c565b612f7e565b600054610100900460ff16610c665760005460ff1615610c6a565b303b155b610c925760405160e560020a62461bcd028152600401610c899061525c565b60405180910390fd5b600054610100900460ff16158015610cb4576000805461ffff19166101011790555b815160ca5560208083015160c9805460ff191691151591909117905560408084015160cb80546060808801518051750100000000000000000000000000000000000000000074ffffffffffffffffffffffffffffffffffffffffff1990941695151574ffffffffffffffffffffffffffffffffffffffff00191695909517610100600160a060020a0396871681029190911775ff0000000000000000000000000000000000000000001916939093179093558286015160cc8054600160a060020a03199081169287169290921790558386015160cd805483169187169190911790558382015160ce8054831691871691909117905560808085015160cf8054841691881691909117905560a08086015160d08054851691891691909117905560c08087015160d180548616918a169190911790559486015160d38054851691891691909117905561012086015160d48054851691891691909117905561014086015160d78054851691891691909117905561016086015160d88054851691891691909117905561018086015160d9805485169189169190911790556101a086015160da805485169189169190911790556101c08087015160db80548616918a169190911790556101e09096015160d580548516918916919091179055818b015160f7805485169189169190911790558a015160f88054909316961695909517905591870151805160dc558086015160dd559384015160de559083015160df5591015160e0558301518051610eec9260ea9201906149f1565b5060e08201518051610f069160e8916020909101906149f1565b506101008201518051610f219160e4916020909101906149f1565b506101208201518051610f3c9160eb916020909101906149f1565b506101408201518051610f579160ec916020909101906149f1565b506101008201518051610f729160e4916020909101906149f1565b506101608201518051610f8d9160f4916020909101906149f1565b506101808201518051610fa89160f5916020909101906149f1565b506040517f8b4c5aee00000000000000000000000000000000000000000000000000000000815273__VaultLibrary__________________________90638b4c5aee90610ffa9060e4906004016152b9565b600060405180830381865af4158015611017573d6000803e3d6000fd5b505050506040513d6000823e601f3d908101601f1916820160405261103f9190810190615309565b80516110539160e6916020909101906149f1565b506101a0820151805161106e9160f6916020909101906149f1565b506101e0820151805160ed8054600160a060020a0319908116600160a060020a0393841617909155602083015160ef80548316918416919091179055606083015160f080548316918416919091179055604083015160f180548316918416919091179055608083015160f28054831691841691909117905560a09092015160f98054909316911617905561020082015160f35561110a836122aa565b801561111c576000805461ff00191690555b505050565b603354600160a060020a0316331461114e5760405160e560020a62461bcd028152600401610c8990615395565b60d28054600160a060020a031916600160a060020a0392909216919091179055565b60cb546101009004600160a060020a031633146111a25760405160e560020a62461bcd028152600401610c89906153ca565b60cb805482151575010000000000000000000000000000000000000000000275ff000000000000000000000000000000000000000000199091161790556040517f125177ac7b8930dac1e59c2b30b1b6b9191b30af40cf6bbb5d20fec4d44be60f9061121390831515815260200190565b60405180910390a150565b60e6818154811061122e57600080fd5b600091825260209091200154600160a060020a0316905081565b603354600160a060020a031633146112755760405160e560020a62461bcd028152600401610c8990615395565b60ca55565b60f5818154811061122e57600080fd5b60e5818154811061122e57600080fd5b60cc54600090600160a060020a031633600160a060020a0316146112d35760405160e560020a62461bcd028152600401610c8990615401565b600260655414156112f95760405160e560020a62461bcd028152600401610c8990615438565b600260655560975460ff16156113245760405160e560020a62461bcd028152600401610c899061546f565b600082116113775760405160e560020a62461bcd02815260206004820152601e60248201527f57616e7420746f6b656e206465706f736974206d757374206265203e203000006044820152606401610c89565b60d05461138f90600160a060020a031633308561307f565b819050600060e2541180156113a65750600060e354115b156113e1576113de6127106113d860e2546113d860df546113d260e3548961313090919063ffffffff16565b90613130565b9061313c565b90505b60e3546113ee9082613148565b60e35560e2546113fe9083613148565b60e25560cb5460ff161561141957611414613154565b61142a565b60e2546114269083613148565b60e2555b6001606555919050565b603354600160a060020a031633146114615760405160e560020a62461bcd028152600401610c8990615395565b60f355565b6002606554141561148c5760405160e560020a62461bcd028152600401610c8990615438565b6002606555611499613154565b6001606555565b60cb546101009004600160a060020a031633146114d25760405160e560020a62461bcd028152600401610c89906153ca565b6114da6132c3565b565b603354600160a060020a031633146115095760405160e560020a62461bcd028152600401610c8990615395565b60d68054600160a060020a031916600160a060020a0392909216919091179055565b60ec818154811061122e57600080fd5b603354600160a060020a031633146115685760405160e560020a62461bcd028152600401610c8990615395565b60d48054600160a060020a031916600160a060020a0392909216919091179055565b60cc54600090600160a060020a031633600160a060020a0316146115c35760405160e560020a62461bcd028152600401610c8990615401565b600260655414156115e95760405160e560020a62461bcd028152600401610c8990615438565b600260655560975460ff16156116145760405160e560020a62461bcd028152600401610c899061546f565b600082116116675760405160e560020a62461bcd02815260206004820152600760248201527f6e656757616e74000000000000000000000000000000000000000000000000006044820152606401610c89565b61168260e2546113d860e3548561313090919063ffffffff16565b905060e354811115611693575060e3545b60e3546116a09082613362565b60e35560e05461271011156116cd576116ca6127106113d860e0548561313090919063ffffffff16565b91505b60cb5460ff16156116e1576116e18261336e565b60d05460405160e060020a6370a08231028152306004820152600091600160a060020a0316906370a0823190602401602060405180830381865afa15801561172d573d6000803e3d6000fd5b505050506040513d601f19601f8201168201806040525081019061175191906154a6565b90508083111561175f578092505b8260e254101561176f5760e25492505b60e25461177c9084613362565b60e25560cc5460d05461179c91600160a060020a039182169116856133c3565b506001606555919050565b603354600160a060020a031633146117d45760405160e560020a62461bcd028152600401610c8990615395565b60cd8054600160a060020a031916600160a060020a0392909216919091179055565b603354600160a060020a031633146118235760405160e560020a62461bcd028152600401610c8990615395565b60ce8054600160a060020a031916600160a060020a0392909216919091179055565b603354600160a060020a031633146118725760405160e560020a62461bcd028152600401610c8990615395565b60d98054600160a060020a031916600160a060020a0392909216919091179055565b603354600160a060020a031633146118c15760405160e560020a62461bcd028152600401610c8990615395565b60d08054600160a060020a031916600160a060020a0392909216919091179055565b603354600160a060020a031633146119105760405160e560020a62461bcd028152600401610c8990615395565b60da8054600160a060020a031916600160a060020a0392909216919091179055565b60ea818154811061122e57600080fd5b60cc54600090600160a060020a031633600160a060020a03161461197b5760405160e560020a62461bcd028152600401610c8990615401565b60975460ff16156119a15760405160e560020a62461bcd028152600401610c899061546f565b604080516101608101825260d154600160a060020a03908116825260d554811660208084019190915260d05482168385015260d8548216606084015260f7548216608084015260ed54821660a084015260f954821660c084015260f25490911660e083015260f6805484518184028101840190955280855273__VaultAnkrLiqStakeLPLibrary____________946384f00f0994899490936101008501939091830182828015611a7a57602002820191906000526020600020905b8154600160a060020a03168152600190910190602001808311611a5c575b5050505050815260200160e6805480602002602001604051908101604052809291908181526020018280548015611ada57602002820191906000526020600020905b8154600160a060020a03168152600190910190602001808311611abc575b505050918352505060d954600160a060020a031660209091015260405160e060020a63ffffffff8516028152611b169291908790600401615503565b602060405180830381865af4158015611b33573d6000803e3d6000fd5b505050506040513d601f19601f82011682018060405250810190611b5791906154a6565b90505b92915050565b60cb546101009004600160a060020a03163314611b925760405160e560020a62461bcd028152600401610c89906153ca565b60d354600160a060020a0384811691161415611bf35760405160e560020a62461bcd02815260206004820152600560248201527f21736166650000000000000000000000000000000000000000000000000000006044820152606401610c89565b60d054600160a060020a0384811691161415611c545760405160e560020a62461bcd02815260206004820152600560248201527f21736166650000000000000000000000000000000000000000000000000000006044820152606401610c89565b61111c600160a060020a03841682846133c3565b603354600160a060020a03163314611c955760405160e560020a62461bcd028152600401610c8990615395565b60cf8054600160a060020a031916600160a060020a0392909216919091179055565b603354600160a060020a03163314611ce45760405160e560020a62461bcd028152600401610c8990615395565b6114da600061340c565b60cb546101009004600160a060020a03163314611d205760405160e560020a62461bcd028152600401610c89906153ca565b612328851015611d755760405160e560020a62461bcd02815260206004820152601a60248201527f5f656e7472616e6365466565466163746f7220746f6f206c6f770000000000006044820152606401610c89565b612710851115611dca5760405160e560020a62461bcd02815260206004820152601b60248201527f5f656e7472616e6365466565466163746f7220746f6f206869676800000000006044820152606401610c89565b60df859055612328841015611e245760405160e560020a62461bcd02815260206004820152601a60248201527f5f7769746864726177466565466163746f7220746f6f206c6f770000000000006044820152606401610c89565b612710841115611e795760405160e560020a62461bcd02815260206004820152601b60248201527f5f7769746864726177466565466163746f7220746f6f206869676800000000006044820152606401610c89565b60e08490556103e8831115611ed35760405160e560020a62461bcd02815260206004820152601760248201527f5f636f6e74726f6c6c657246656520746f6f20686967680000000000000000006044820152606401610c89565b60dc8390556103e8821115611f2d5760405160e560020a62461bcd02815260206004820152601560248201527f5f6275794261636b5261746520746f6f206869676800000000000000000000006044820152606401610c89565b60dd8290556103e8811115611f875760405160e560020a62461bcd02815260206004820152601660248201527f5f72657653686172655261746520746f6f2068696768000000000000000000006044820152606401610c89565b60de819055604080518681526020810186905290810184905260608101839052608081018290527fc67e0b149a57a70fa44a531a46c2c6d8e0b242fa12f459f250012c3a5987d29a9060a00160405180910390a15050505050565b60f4818154811061122e57600080fd5b60e4818154811061122e57600080fd5b603354600160a060020a0316331461202f5760405160e560020a62461bcd028152600401610c8990615395565b60cb805460ff1916911515919091179055565b60cb546101009004600160a060020a031633146120745760405160e560020a62461bcd028152600401610c89906153ca565b6114da61345e565b603354600160a060020a031633146120a95760405160e560020a62461bcd028152600401610c8990615395565b60d78054600160a060020a031916600160a060020a0392909216919091179055565b603354600160a060020a031633146120f85760405160e560020a62461bcd028152600401610c8990615395565b60ff83166121125761210c60e48383614a56565b50505050565b8260ff166001141561212a5761210c60f48383614a56565b8260ff16600214156121425761210c60f58383614a56565b60405160e560020a62461bcd02815260206004820152601960248201527f756e737570706f727465642069647820737761702070617468000000000000006044820152606401610c89565b603354600160a060020a031633146121ba5760405160e560020a62461bcd028152600401610c8990615395565b60db8054600160a060020a031916600160a060020a0392909216919091179055565b60e9818154811061122e57600080fd5b60e7818154811061122e57600080fd5b603354600160a060020a031633146122295760405160e560020a62461bcd028152600401610c8990615395565b60d38054600160a060020a031916600160a060020a0392909216919091179055565b60f6818154811061122e57600080fd5b603354600160a060020a031633146122885760405160e560020a62461bcd028152600401610c8990615395565b60cc8054600160a060020a031916600160a060020a0392909216919091179055565b600054610100900460ff166122c55760005460ff16156122c9565b303b155b6122e85760405160e560020a62461bcd028152600401610c899061525c565b600054610100900460ff1615801561230a576000805461ffff19166101011790555b6123126134b9565b61231b82612eb6565b60d68054600160a060020a03191661dead1790558015612341576000805461ff00191690555b5050565b603354600160a060020a031633146123725760405160e560020a62461bcd028152600401610c8990615395565b60d58054600160a060020a031916600160a060020a0392909216919091179055565b603354600160a060020a031633146123c15760405160e560020a62461bcd028152600401610c8990615395565b60d18054600160a060020a031916600160a060020a0392909216919091179055565b60e8818154811061122e57600080fd5b60cb546101009004600160a060020a031633146124255760405160e560020a62461bcd028152600401610c89906153ca565b60cb805474ffffffffffffffffffffffffffffffffffffffff001916610100600160a060020a038416908102919091179091556040519081527f91a8c1cc2d4a3bb60738481947a00cbb9899c822916694cf8bb1d68172fdcd5490602001611213565b603354600160a060020a031633146124b55760405160e560020a62461bcd028152600401610c8990615395565b60ff82166124de5760ed8054600160a060020a038316600160a060020a03199091161790555050565b8160ff166001141561250b5760ee8054600160a060020a038316600160a060020a03199091161790555050565b8160ff16600214156125385760ef8054600160a060020a038316600160a060020a03199091161790555050565b8160ff16600314156125655760f18054600160a060020a038316600160a060020a03199091161790555050565b8160ff16600414156125925760f08054600160a060020a038316600160a060020a03199091161790555050565b8160ff16600514156125bf5760f28054600160a060020a038316600160a060020a03199091161790555050565b60405160e560020a62461bcd02815260206004820152601460248201527f756e737570706f727465642066656564206964780000000000000000000000006044820152606401610c89565b60cc54600090600160a060020a031633600160a060020a0316146126435760405160e560020a62461bcd028152600401610c8990615401565b60975460ff16156126695760405160e560020a62461bcd028152600401610c899061546f565b604080516101808101825260d154600160a060020a03908116825260d554811660208084019190915260f75482168385015260f8548216606084015260ed548216608084015260f954821660a084015260f254821660c084015260d95490911660e083015260e4805484518184028101840190955280855273__VaultAnkrLiqStakeLPLibrary____________9463366abee29489949093610100850193909183018282801561274257602002820191906000526020600020905b8154600160a060020a03168152600190910190602001808311612724575b5050505050815260200160f68054806020026020016040519081016040528092919081815260200182805480156127a257602002820191906000526020600020905b8154600160a060020a03168152600190910190602001808311612784575b505050918352505060d854600160a060020a03908116602083015260d054166040918201525160e060020a63ffffffff8516028152611b169291908790600401615646565b6002606554141561280d5760405160e560020a62461bcd028152600401610c8990615438565b600260655560975460ff16156128385760405160e560020a62461bcd028152600401610c899061546f565b60cb547501000000000000000000000000000000000000000000900460ff161561288e5760cb546101009004600160a060020a0316331461288e5760405160e560020a62461bcd028152600401610c89906153ca565b612898600061336e565b60d35460405160e060020a6370a08231028152306004820152600091600160a060020a0316906370a0823190602401602060405180830381865afa1580156128e4573d6000803e3d6000fd5b505050506040513d601f19601f8201168201806040525081019061290891906154a6565b90506000811161295d5760405160e560020a62461bcd02815260206004820152600560248201527f306561726e0000000000000000000000000000000000000000000000000000006044820152606401610c89565b6129886040518060800160405280600081526020016000815260200160008152602001600081525090565b6040805160028082526060820183526000926020830190803683375050604080516002808252606082018352939450600093909250906020830190803683375050604080516080810190915260ef54929350918291506129f090600160a060020a03166134eb565b815260f154602090910190612a0d90600160a060020a03166134eb565b815260f054602090910190612a2a90600160a060020a03166134eb565b815260f254602090910190612a4790600160a060020a03166134eb565b8152509250826000015182600081518110612a6457612a64615792565b602090810291909101015260ed54612a8490600160a060020a03166134eb565b82600181518110612a9757612a97615792565b602002602001018181525050826000015181600081518110612abb57612abb615792565b602090810291909101015260ee54612adb90600160a060020a03166134eb565b81600181518110612aee57612aee615792565b602002602001018181525050600080612b068661363b565b9050600080612b16888a8961368b565b9092509050612b3181612b2b84818c88613362565b90613362565b60d95460d354919550612b559450600160a060020a039182169350169050876137bc565b60d15460d354600160a060020a03908116911614612d4e57604080516002808252606082018352600092602083019080368337505060d3546040805160e060020a63313ce5670281529051939450600160a060020a039091169263313ce567925060048083019260209291908290030181865afa158015612bda573d6000803e3d6000fd5b505050506040513d601f19601f82011682018060405250810190612bfe91906157ab565b81600081518110612c1157612c11615792565b60ff90921660209283029190910182015260d1546040805160e060020a63313ce5670281529051600160a060020a039092169263313ce567926004808401938290030181865afa158015612c69573d6000803e3d6000fd5b505050506040513d601f19601f82011682018060405250810190612c8d91906157ab565b81600181518110612ca057612ca0615792565b60ff90921660209283029190910190910152612d4c612cc083600261313c565b858960e8805480602002602001604051908101604052809291908181526020018280548015612d1857602002820191906000526020600020905b8154600160a060020a03168152600190910190602001808311612cfa575b50505050508530612d346102584261314890919063ffffffff16565b60d954600160a060020a0316969594939291906138a0565b505b60d15460405160e060020a6370a08231028152306004820152600091600160a060020a0316906370a0823190602401602060405180830381865afa158015612d9a573d6000803e3d6000fd5b505050506040513d601f19601f82011682018060405250810190612dbe91906154a6565b90508015612e4d57612dcf81613a20565b60f75460405160e060020a6370a08231028152306004820152600091600160a060020a0316906370a0823190602401602060405180830381865afa158015612e1b573d6000803e3d6000fd5b505050506040513d601f19601f82011682018060405250810190612e3f91906154a6565b9050612e4b8189613ae8565b505b4360e155612e59613154565b505060016065555050505050565b603354600160a060020a03163314612e945760405160e560020a62461bcd028152600401610c8990615395565b60d88054600160a060020a031916600160a060020a0392909216919091179055565b603354600160a060020a03163314612ee35760405160e560020a62461bcd028152600401610c8990615395565b600160a060020a038116612f625760405160e560020a62461bcd02815260206004820152602660248201527f4f776e61626c653a206e6577206f776e657220697320746865207a65726f206160448201527f64647265737300000000000000000000000000000000000000000000000000006064820152608401610c89565b612f6b8161340c565b50565b60eb818154811061122e57600080fd5b603354600160a060020a03163314612fab5760405160e560020a62461bcd028152600401610c8990615395565b60ff8316612fbf5761210c60e48383614a56565b8260ff1660011415612fd75761210c60e58383614a56565b8260ff1660021415612fef5761210c60e68383614a56565b8260ff16600314156130075761210c60e78383614a56565b8260ff166004141561301f5761210c60e88383614a56565b8260ff16600514156130375761210c60e98383614a56565b8260ff166006141561304f5761210c60ea8383614a56565b8260ff16600714156130675761210c60eb8383614a56565b8260ff16600814156125bf5761210c60ec8383614a56565b604051600160a060020a038085166024830152831660448201526064810182905261210c9085907f23b872dd00000000000000000000000000000000000000000000000000000000906084015b60408051601f198184030181529190526020810180517bffffffffffffffffffffffffffffffffffffffffffffffffffffffff167fffffffff0000000000000000000000000000000000000000000000000000000090931692909217909152613c0f565b6000611b5782846157e1565b6000611b578284615800565b6000611b578284615825565b60cb5460ff166131a95760405160e560020a62461bcd02815260206004820152600960248201527f216661726d61626c6500000000000000000000000000000000000000000000006044820152606401610c89565b60d85460405160e060020a6370a08231028152306004820152600091600160a060020a0316906370a0823190602401602060405180830381865afa1580156131f5573d6000803e3d6000fd5b505050506040513d601f19601f8201168201806040525081019061321991906154a6565b60d45460d85491925061323991600160a060020a039081169116836137bc565b60d45460ca546040517fe2bbb158000000000000000000000000000000000000000000000000000000008152600160a060020a039092169163e2bbb1589161328e918590600401918252602082015260400190565b600060405180830381600087803b1580156132a857600080fd5b505af11580156132bc573d6000803e3d6000fd5b5050505050565b60975460ff166133185760405160e560020a62461bcd02815260206004820152601460248201527f5061757361626c653a206e6f74207061757365640000000000000000000000006044820152606401610c89565b6097805460ff191690557f5db9ee0a495bf2e6ff9c91a7834c1ba4fdd244a5e8aa4e537bd38aeae4b073aa335b604051600160a060020a03909116815260200160405180910390a1565b6000611b57828461583d565b60d45460ca546040517f441a3e70000000000000000000000000000000000000000000000000000000008152600160a060020a039092169163441a3e709161328e918590600401918252602082015260400190565b604051600160a060020a03831660248201526044810182905261111c9084907fa9059cbb00000000000000000000000000000000000000000000000000000000906064016130cc565b60338054600160a060020a03838116600160a060020a0319831681179093556040519116919082907f8be0079c531659141344cd1fd0a4f28419497f9722a3daafe3b4186f6b6457e090600090a35050565b60975460ff16156134845760405160e560020a62461bcd028152600401610c899061546f565b6097805460ff191660011790557f62e78cea01bee320cd4e420270b5ea74000d11b0c9f74754ebdbfc544b05a2586133453390565b600054610100900460ff166134e35760405160e560020a62461bcd028152600401610c8990615854565b6114da613cf7565b60008082600160a060020a031663313ce5676040518163ffffffff1660e060020a028152600401602060405180830381865afa15801561352f573d6000803e3d6000fd5b505050506040513d601f19601f8201168201806040525081019061355391906157ab565b9050600083600160a060020a031663feaf968c6040518163ffffffff1660e060020a02815260040160a060405180830381865afa158015613598573d6000803e3d6000fd5b505050506040513d601f19601f820116820180604052508101906135bc91906158cb565b50505091505060008112156136165760405160e560020a62461bcd02815260206004820152601660248201527f6e656720707269636573206e6f7420616c6c6f776564000000000000000000006044820152606401610c89565b61363361362483600a615a02565b6113d88364e8d4a51000613130565b949350505050565b600081156136865760dc5415613686576136666127106113d860dc548561313090919063ffffffff16565b60d75460d35491925061368691600160a060020a039081169116836133c3565b919050565b600080600060dd5411156136b7576136b46127106113d860dd548861313090919063ffffffff16565b91505b60de54156136dd576136da6127106113d860de548861313090919063ffffffff16565b90505b60c95460ff1615613703576136f3828585613d2a565b6136fe818585614337565b6137b4565b6137236137108383613148565b60cc54600160a060020a03168686614556565b60cd5460ca546040517f464e3c8b0000000000000000000000000000000000000000000000000000000081526004810191909152602481018490526044810183905260648101869052600160a060020a039091169063464e3c8b90608401600060405180830381600087803b15801561379b57600080fd5b505af11580156137af573d6000803e3d6000fd5b505050505b935093915050565b6040517fdd62ed3e000000000000000000000000000000000000000000000000000000008152306004820152600160a060020a038381166024830152600091839186169063dd62ed3e90604401602060405180830381865afa158015613826573d6000803e3d6000fd5b505050506040513d601f19601f8201168201806040525081019061384a91906154a6565b6138549190615825565b604051600160a060020a03851660248201526044810182905290915061210c9085907f095ea7b300000000000000000000000000000000000000000000000000000000906064016130cc565b82516002146138f45760405160e560020a62461bcd02815260206004820152600b60248201527f696e76616c6964206465630000000000000000000000000000000000000000006044820152606401610c89565b60008660008151811061390957613909615792565b60200260200101516000148061393957508660018151811061392d5761392d615792565b60200260200101516000145b156139525761394b8989878988614663565b9050613996565b613993888860008151811061396957613969615792565b60200260200101518960018151811061398457613984615792565b60200260200101518988614783565b90505b6040517f5c11d795000000000000000000000000000000000000000000000000000000008152600160a060020a038a1690635c11d795906139e3908b9085908a9089908990600401615a11565b600060405180830381600087803b1580156139fd57600080fd5b505af1158015613a11573d6000803e3d6000fd5b50505050505050505050505050565b60975460ff1615613a465760405160e560020a62461bcd028152600401610c899061546f565b60d15460f75460f8546040517fc99bbd8100000000000000000000000000000000000000000000000000000000815260048101859052600160a060020a039384166024820152918316604483015291909116606482015273__VaultAnkrLiqStakeLPLibrary____________9063c99bbd819060840160006040518083038186803b158015613ad457600080fd5b505af41580156132bc573d6000803e3d6000fd5b6040805160e08101825260d954600160a060020a03908116825260d154811660208084019190915260f7549091168284015260f6805484518184028101840190955280855273__VaultLiqStakeLPLibrary________________94633b367da1948894909360608501939091830182828015613b8d57602002820191906000526020600020905b8154600160a060020a03168152600190910190602001808311613b6f575b505050918352505060ed54600160a060020a03908116602083015260f9541660408083019190915260609091018690525160e060020a63ffffffff8516028152613bdb929190600401615a4d565b60006040518083038186803b158015613bf357600080fd5b505af4158015613c07573d6000803e3d6000fd5b505050505050565b6000613c64826040518060400160405280602081526020017f5361666545524332303a206c6f772d6c6576656c2063616c6c206661696c656481525085600160a060020a03166147fe9092919063ffffffff16565b80519091501561111c5780806020019051810190613c829190615adc565b61111c5760405160e560020a62461bcd02815260206004820152602a60248201527f5361666545524332303a204552433230206f7065726174696f6e20646964206e60448201527f6f742073756363656564000000000000000000000000000000000000000000006064820152608401610c89565b600054610100900460ff16613d215760405160e560020a62461bcd028152600401610c8990615854565b6114da3361340c565b60ef54600090613d4290600160a060020a03166134eb565b6040805160028082526060820183529293506000929091602083019080368337505060d3546040805160e060020a63313ce5670281529051939450600160a060020a039091169263313ce567925060048083019260209291908290030181865afa158015613db4573d6000803e3d6000fd5b505050506040513d601f19601f82011682018060405250810190613dd891906157ab565b81600081518110613deb57613deb615792565b60ff90921660209283029190910182015260ce546040805160e060020a63313ce5670281529051600160a060020a039092169263313ce567926004808401938290030181865afa158015613e43573d6000803e3d6000fd5b505050506040513d601f19601f82011682018060405250810190613e6791906157ab565b81600181518110613e7a57613e7a615792565b60ff92909216602092830291909101820152604080516002808252606082018352600093919290918301908036833701905050905081600081518110613ec257613ec2615792565b602002602001015181600081518110613edd57613edd615792565b60ff90921660209283029190910182015260db546040805160e060020a63313ce5670281529051600160a060020a039092169263313ce567926004808401938290030181865afa158015613f35573d6000803e3d6000fd5b505050506040513d601f19601f82011682018060405250810190613f5991906157ab565b81600181518110613f6c57613f6c615792565b602002602001019060ff16908160ff1681525050614049604051806101000160405280613fa360028a61313c90919063ffffffff16565b815260208082018790528781015160408084019190915260d354600160a060020a03908116606085015260ce5416608084015260a083018a905260ea805482518185028101850190935280835260c090940193919290919083018282801561403457602002820191906000526020600020905b8154600160a060020a03168152600190910190602001808311614016575b50505091835250503060209091015283614817565b61410f60405180610100016040528061406c60028a61313c90919063ffffffff16565b815260208082018790526040888101518184015260d354600160a060020a03908116606085015260db5416608084015260a083018a905260eb805482518185028101850190935280835260c09094019391929091908301828280156140fa57602002820191906000526020600020905b8154600160a060020a031681526001909101906020018083116140dc575b50505091835250503060209091015282614817565b505060ce5460405160e060020a6370a0823102815230600482015260009250600160a060020a03909116906370a0823190602401602060405180830381865afa158015614160573d6000803e3d6000fd5b505050506040513d601f19601f8201168201806040525081019061418491906154a6565b60db5460405160e060020a6370a08231028152306004820152919250600091600160a060020a03909116906370a0823190602401602060405180830381865afa1580156141d5573d6000803e3d6000fd5b505050506040513d601f19601f820116820180604052508101906141f991906154a6565b60d95460ce5491925061421991600160a060020a039081169116846137bc565b60d95460db5461423691600160a060020a039182169116836137bc565b60d95460ce5460db54600160a060020a039283169263e8e33700928116911685856142676103e86113d8848d613130565b6142776103e86113d88a8e613130565b60d654600160a060020a031661428f42610258613148565b60405163ffffffff8a1660e060020a028152600160a060020a039889166004820152968816602488015260448701959095526064860193909352608485019190915260a484015290921660c482015260e4810191909152610104016060604051808303816000875af1158015614309573d6000803e3d6000fd5b505050506040513d601f19601f8201168201806040525081019061432d9190615af9565b5050505050505050565b604080516002808252606082018352600092602083019080368337505060d3546040805160e060020a63313ce5670281529051939450600160a060020a039091169263313ce567925060048083019260209291908290030181865afa1580156143a4573d6000803e3d6000fd5b505050506040513d601f19601f820116820180604052508101906143c891906157ab565b816000815181106143db576143db615792565b60ff90921660209283029190910182015260ce546040805160e060020a63313ce5670281529051600160a060020a039092169263313ce567926004808401938290030181865afa158015614433573d6000803e3d6000fd5b505050506040513d601f19601f8201168201806040525081019061445791906157ab565b8160018151811061446a5761446a615792565b60ff9092166020928302919091019091015260d95460d35461449991600160a060020a039182169116866137bc565b60408051610100810182528581528351602080830191909152848101518284015260d354600160a060020a03908116606084015260ce5416608083015260a0820186905260ea805484518184028101840190955280855261210c9460c08501939092919083018282801561453657602002820191906000526020600020905b8154600160a060020a03168152600190910190602001808311614518575b505050918352505060cf54600160a060020a031660209091015282614817565b6040805160a08101825260d354600160a060020a03908116825260d5541660208083019190915260ec8054845181840281018401865281815273__VaultLibrary__________________________956308386be2958b958b958b958b959394850193928301828280156145f257602002820191906000526020600020905b8154600160a060020a031681526001909101906020018083116145d4575b505050918352505060d954600160a060020a0316602082015260608901516040918201525160e060020a63ffffffff8816028152614637959493929190600401615b27565b60006040518083038186803b15801561464f57600080fd5b505af415801561432d573d6000803e3d6000fd5b60008086600160a060020a031663d06ca61f87876040518363ffffffff1660e060020a028152600401614697929190615bcb565b600060405180830381865afa1580156146b4573d6000803e3d6000fd5b505050506040513d6000823e601f3d908101601f191682016040526146dc9190810190615be4565b905061477861470e6103e8856000815181106146fa576146fa615792565b6020026020010151600a6113d29190615a02565b6113d88560018151811061472457614724615792565b6020026020010151600a6147389190615a02565b6113d288866147526001895161336290919063ffffffff16565b8151811061476257614762615792565b602002602001015161313090919063ffffffff16565b979650505050505050565b60006147f46147be8360008151811061479e5761479e615792565b6020026020010151600a6147b29190615a02565b6113d2876103e8613130565b6113d8846001815181106147d4576147d4615792565b6020026020010151600a6147e89190615a02565b6113d287818c8c613130565b9695505050505050565b606061480d8484600085614876565b90505b9392505050565b60d9546040517f0a18267d00000000000000000000000000000000000000000000000000000000815273__VaultLibrary__________________________91630a18267d91613bdb91600160a060020a03169086908690600401615c9a565b606030318311156148f25760405160e560020a62461bcd02815260206004820152602660248201527f416464726573733a20696e73756666696369656e742062616c616e636520666f60448201527f722063616c6c00000000000000000000000000000000000000000000000000006064820152608401610c89565b600160a060020a0385163b61494c5760405160e560020a62461bcd02815260206004820152601d60248201527f416464726573733a2063616c6c20746f206e6f6e2d636f6e74726163740000006044820152606401610c89565b60008086600160a060020a031685876040516149689190615d6a565b60006040518083038185875af1925050503d80600081146149a5576040519150601f19603f3d011682016040523d82523d6000602084013e6149aa565b606091505b5091509150614778828286606083156149c4575081614810565b8251156149d45782518084602001fd5b8160405160e560020a62461bcd028152600401610c899190615d86565b828054828255906000526020600020908101928215614a46579160200282015b82811115614a465782518254600160a060020a031916600160a060020a03909116178255602090920191600190910190614a11565b50614a52929150614aa9565b5090565b828054828255906000526020600020908101928215614a46579160200282015b82811115614a46578154600160a060020a031916600160a060020a03843516178255602090920191600190910190614a76565b5b80821115614a525760008155600101614aaa565b600160a060020a0381168114612f6b57600080fd5b803561368681614abe565b60e060020a634e487b7102600052604160045260246000fd5b604051610200810167ffffffffffffffff81118282101715614b1b57614b1b614ade565b60405290565b604051610220810167ffffffffffffffff81118282101715614b1b57614b1b614ade565b604051601f8201601f1916810167ffffffffffffffff81118282101715614b6e57614b6e614ade565b604052919050565b8015158114612f6b57600080fd5b803561368681614b76565b60006102008284031215614ba257600080fd5b614baa614af7565b9050614bb582614ad3565b8152614bc360208301614ad3565b6020820152614bd460408301614ad3565b6040820152614be560608301614ad3565b6060820152614bf660808301614ad3565b6080820152614c0760a08301614ad3565b60a0820152614c1860c08301614ad3565b60c0820152614c2960e08301614ad3565b60e0820152610100614c3c818401614ad3565b90820152610120614c4e838201614ad3565b90820152610140614c60838201614ad3565b90820152610160614c72838201614ad3565b90820152610180614c84838201614ad3565b908201526101a0614c96838201614ad3565b908201526101c0614ca8838201614ad3565b908201526101e0614cba838201614ad3565b9082015292915050565b600067ffffffffffffffff821115614cde57614cde614ade565b5060209081020190565b600082601f830112614cf957600080fd5b81356020614d0e614d0983614cc4565b614b45565b82815291810284018101918181019086841115614d2a57600080fd5b8286015b84811015614d4e578035614d4181614abe565b8352918301918301614d2e565b509695505050505050565b600060a08284031215614d6b57600080fd5b60405160a0810181811067ffffffffffffffff82111715614d8e57614d8e614ade565b806040525080915082358152602083013560208201526040830135604082015260608301356060820152608083013560808201525092915050565b600060c08284031215614ddb57600080fd5b60405160c0810181811067ffffffffffffffff82111715614dfe57614dfe614ade565b6040529050808235614e0f81614abe565b81526020830135614e1f81614abe565b60208201526040830135614e3281614abe565b60408201526060830135614e4581614abe565b60608201526080830135614e5881614abe565b608082015260a0830135614e6b81614abe565b60a0919091015292915050565b60008060408385031215614e8b57600080fd5b8235614e9681614abe565b9150602083013567ffffffffffffffff80821115614eb357600080fd5b908401906105208287031215614ec857600080fd5b614ed0614b21565b82358152614ee060208401614b84565b6020820152614ef160408401614b84565b6040820152614f038760608501614b8f565b6060820152614f156102608401614ad3565b6080820152614f276102808401614ad3565b60a08201526102a083013582811115614f3f57600080fd5b614f4b88828601614ce8565b60c0830152506102c083013582811115614f6457600080fd5b614f7088828601614ce8565b60e0830152506102e083013582811115614f8957600080fd5b614f9588828601614ce8565b6101008301525061030083013582811115614faf57600080fd5b614fbb88828601614ce8565b6101208301525061032083013582811115614fd557600080fd5b614fe188828601614ce8565b6101408301525061034083013582811115614ffb57600080fd5b61500788828601614ce8565b610160830152506103608301358281111561502157600080fd5b61502d88828601614ce8565b610180830152506103808301358281111561504757600080fd5b61505388828601614ce8565b6101a083015250615068876103a08501614d59565b6101c082015261507c876104408501614dc9565b6101e08201526105008301356102008201528093505050509250929050565b6000602082840312156150ad57600080fd5b813561481081614abe565b6000602082840312156150ca57600080fd5b813561481081614b76565b6000602082840312156150e757600080fd5b5035919050565b6000806040838503121561510157600080fd5b50508035926020909101359150565b60008060006060848603121561512557600080fd5b833561513081614abe565b925060208401359150604084013561514781614abe565b809150509250925092565b600080600080600060a0868803121561516a57600080fd5b505083359560208501359550604085013594606081013594506080013592509050565b60ff81168114612f6b57600080fd5b6000806000604084860312156151b157600080fd5b83356151bc8161518d565b9250602084013567ffffffffffffffff808211156151d957600080fd5b818601915086601f8301126151ed57600080fd5b8135818111156151fc57600080fd5b876020808302850101111561521057600080fd5b6020830194508093505050509250925092565b6000806040838503121561523657600080fd5b82356152418161518d565b9150602083013561525181614abe565b809150509250929050565b6020808252602e908201527f496e697469616c697a61626c653a20636f6e747261637420697320616c72656160408201527f647920696e697469616c697a6564000000000000000000000000000000000000606082015260800190565b6020808252825482820181905260008481528281209092916040850190845b818110156152fd578354600160a060020a0316835260019384019392850192016152d8565b50909695505050505050565b6000602080838503121561531c57600080fd5b825167ffffffffffffffff81111561533357600080fd5b8301601f8101851361534457600080fd5b8051615352614d0982614cc4565b8181529083028201830190838101908783111561536e57600080fd5b928401925b8284101561477857835161538681614abe565b82529284019290840190615373565b6020808252818101527f4f776e61626c653a2063616c6c6572206973206e6f7420746865206f776e6572604082015260600190565b60208082526004908201527f21676f7600000000000000000000000000000000000000000000000000000000604082015260600190565b60208082526010908201527f217a6f72726f436f6e74726f6c6c657200000000000000000000000000000000604082015260600190565b6020808252601f908201527f5265656e7472616e637947756172643a207265656e7472616e742063616c6c00604082015260600190565b60208082526010908201527f5061757361626c653a2070617573656400000000000000000000000000000000604082015260600190565b6000602082840312156154b857600080fd5b5051919050565b600081518084526020808501945080840160005b838110156154f8578151600160a060020a0316875295820195908201906001016154d3565b509495945050505050565b83815260606020820152615523606082018451600160a060020a03169052565b6000602084015161553f6080840182600160a060020a03169052565b506040840151600160a060020a03811660a0840152506060840151600160a060020a03811660c0840152506080840151600160a060020a03811660e08401525060a084015161010061559b81850183600160a060020a03169052565b60c086015191506101206155b981860184600160a060020a03169052565b60e087015192506101406155d781870185600160a060020a03169052565b828801519350610160925082838701526155f56101c08701856154bf565b9350818801519250605f198685030161018087015261561484846154bf565b935080880151925050506156346101a0850182600160a060020a03169052565b50604092909201929092529392505050565b83815260606020820152615666606082018451600160a060020a03169052565b600060208401516156826080840182600160a060020a03169052565b506040840151600160a060020a03811660a0840152506060840151600160a060020a03811660c0840152506080840151600160a060020a03811660e08401525060a08401516101006156de81850183600160a060020a03169052565b60c086015191506101206156fc81860184600160a060020a03169052565b60e0870151925061014061571a81870185600160a060020a03169052565b8288015193506101809250610160838188015261573b6101e08801866154bf565b92890151878403605f19018589015292945061575785846154bf565b94508189015193506157756101a0880185600160a060020a03169052565b880151600160a060020a0381166101c08801529250615634915050565b60e060020a634e487b7102600052603260045260246000fd5b6000602082840312156157bd57600080fd5b81516148108161518d565b60e060020a634e487b7102600052601160045260246000fd5b60008160001904831182151516156157fb576157fb6157c8565b500290565b6000826158205760e060020a634e487b7102600052601260045260246000fd5b500490565b60008219821115615838576158386157c8565b500190565b60008282101561584f5761584f6157c8565b500390565b6020808252602b908201527f496e697469616c697a61626c653a20636f6e7472616374206973206e6f74206960408201527f6e697469616c697a696e67000000000000000000000000000000000000000000606082015260800190565b805169ffffffffffffffffffff8116811461368657600080fd5b600080600080600060a086880312156158e357600080fd5b6158ec866158b1565b945060208601519350604086015192506060860151915061590f608087016158b1565b90509295509295909350565b600181815b8085111561595857816000190482111561593c5761593c6157c8565b8085161561594957918102915b60029094049390800290615920565b509250929050565b60008261596f57506001611b5a565b8161597c57506000611b5a565b8160018114615992576002811461599c576159b9565b6001915050611b5a565b60ff8411156159ad576159ad6157c8565b8360020a915050611b5a565b5060208310610133831016604e8410600b84101617156159dc575081810a611b5a565b6159e6838361591b565b80600019048211156159fa576159fa6157c8565b029392505050565b6000611b5760ff841683615960565b85815284602082015260a060408201526000615a3060a08301866154bf565b600160a060020a0394909416606083015250608001529392505050565b828152604060208201526000600160a060020a03808451166040840152806020850151166060840152806040850151166080840152606084015160e060a0850152615a9c6101208501826154bf565b608086015190921660c08501525060a084015190615ac560e0850183600160a060020a03169052565b60c085015161010085015280925050509392505050565b600060208284031215615aee57600080fd5b815161481081614b76565b600080600060608486031215615b0e57600080fd5b8351925060208401519150604084015190509250925092565b6000610100878352600160a060020a0380881660208501528660408501528551606085015260208601516080850152604086015160a0850152606086015160c08501528160e08501528085511682850152806020860151166101208501526040850151915060a0610140850152615ba26101a08501836154bf565b915080606086015116610160850152506080840151610180840152809150509695505050505050565b82815260406020820152600061480d60408301846154bf565b60006020808385031215615bf757600080fd5b825167ffffffffffffffff811115615c0e57600080fd5b8301601f81018513615c1f57600080fd5b8051615c2d614d0982614cc4565b81815290830282018301908381019087831115615c4957600080fd5b928401925b8284101561477857835182529284019290840190615c4e565b600081518084526020808501945080840160005b838110156154f857815160ff1687529582019590820190600101615c7b565b6000600160a060020a038086168352606060208401528451606084015260208501516080840152604085015160a08401528060608601511660c08401528060808601511660e08401525060a0840151610100818185015260c086015191508061012085015250615d0e6101608401826154bf565b905060e0850151615d2b610140850182600160a060020a03169052565b5082810360408401526147f48185615c67565b60005b83811015615d59578181015183820152602001615d41565b8381111561210c5750506000910152565b60008251615d7c818460208701615d3e565b9190910192915050565b6020815260008251806020840152615da5816040850160208701615d3e565b601f01601f1916919091016040019291505056fea2646970667358221220702b1fba1eaf26ad5b3592bdfde042dd53721ae34d079c73ec72b3b8a438901d64736f6c634300080a0033",
  "immutableReferences": {},
  "source": "// SPDX-License-Identifier: MIT\n\npragma solidity ^0.8.0;\n\nimport \"../VaultAnkrPCSLiqStake.sol\";\n\nimport \"../../interfaces/Ankr/IBinancePool_R1.sol\";\n\ncontract MockVaultAnkrLiqStakeLP is VaultAnkrLiqStakeLP {\n    // TODO: Fill out any necessary methods for testing here\n}\n\n// TODO: Fill out below\ncontract MockAnkrLiqStakePoolBNB is IBinancePool_R1 {\n    function stake() external payable {\n\n    }\n\n    function unstake(uint256 amount) external {\n\n    }\n\n    function distributeManual(uint256 wrId) external {\n\n    }\n\n    function distributeRewards(uint256 maxClaimers) external payable {\n\n    }\n\n    function pendingUnstakesOf(address account) external returns (uint256) {\n\n    }\n\n    function getMinimumStake() external view returns (uint256) {\n\n    }\n\n    function getRelayerFee() external view returns (uint256) {\n\n    }\n\n    function stakeAndClaimBonds() external payable {\n\n    }\n\n    function stakeAndClaimCerts() external payable {\n\n    }\n\n    function unstakeBonds(uint256 amount) external {\n\n    }\n\n    function unstakeCerts(uint256 shares) external {\n\n    }\n}",
  "sourcePath": "/Users/kristophm/Documents/workspace/zorro-protocol/contracts/vaults/mocks/MockVaultAnkrLiqStakeLP.sol",
  "compiler": {
    "name": "solc",
    "version": "0.8.10+commit.fc410830.Emscripten.clang"
  },
  "schemaVersion": "3.4.10",
  "updatedAt": "2022-11-16T16:38:22.871Z",
  "devdoc": {
    "kind": "dev",
    "methods": {
      "depositWantToken(uint256)": {
        "params": {
          "_wantAmt": "amount of underlying token to deposit/stake"
        },
        "returns": {
          "sharesAdded": "uint256 Number of shares added"
        }
      },
      "earn(uint256)": {
        "params": {
          "_maxMarketMovementAllowed": "The max slippage allowed. 1000 = 0 %, 995 = 0.5%, etc."
        }
      },
      "exchangeUSDForWantToken(uint256,uint256)": {
        "params": {
          "_amountUSD": "The USD quantity to exchange (must already be deposited)",
          "_maxMarketMovementAllowed": "The max slippage allowed. 1000 = 0 %, 995 = 0.5%, etc."
        },
        "returns": {
          "_0": "uint256 Amount of Want token obtained"
        }
      },
      "exchangeWantTokenForUSD(uint256,uint256)": {
        "params": {
          "_amount": "The Want token quantity to exchange (must be deposited beforehand)",
          "_maxMarketMovementAllowed": "The max slippage allowed for swaps. 1000 = 0 %, 995 = 0.5%, etc."
        },
        "returns": {
          "returnedUSD": "Amount of USD token obtained"
        }
      },
      "inCaseTokensGetStuck(address,uint256,address)": {
        "params": {
          "_amount": "The amount of the tokens to transfer",
          "_to": "The address to transfer tokens to",
          "_token": "Address of the ERC20 token to transfer"
        }
      },
      "initialize(address,(uint256,bool,bool,(address,address,address,address,address,address,address,address,address,address,address,address,address,address,address,address),address,address,address[],address[],address[],address[],address[],address[],address[],address[],(uint256,uint256,uint256,uint256,uint256),(address,address,address,address,address,address),uint256))": {
        "params": {
          "_initValue": "A VaultAlpacaInit struct containing all init values",
          "_timelockOwner": "The designated timelock controller address to act as owner"
        }
      },
      "owner()": {
        "details": "Returns the address of the current owner."
      },
      "paused()": {
        "details": "Returns true if the contract is paused, and false otherwise."
      },
      "renounceOwnership()": {
        "details": "Leaves the contract without owner. It will not be possible to call `onlyOwner` functions anymore. Can only be called by the current owner. NOTE: Renouncing ownership will leave the contract without an owner, thereby removing any functionality that is only available to the owner."
      },
      "setFeeSettings(uint256,uint256,uint256,uint256,uint256)": {
        "params": {
          "_buyBackRate": "Buy back rate fee numerator",
          "_controllerFee": "Controller fee numerator",
          "_entranceFeeFactor": "Entrance fee numerator (higher means smaller percentage)",
          "_revShareRate": "Rev share rate fee numerator",
          "_withdrawFeeFactor": "Withdrawal fee numerator (higher means smaller percentage)"
        }
      },
      "setGov(address)": {
        "params": {
          "_govAddress": "The new gov address"
        }
      },
      "setOnlyGov(bool)": {
        "params": {
          "_onlyGov": "whether onlyGov should be enforced"
        }
      },
      "transferOwnership(address)": {
        "details": "Transfers ownership of the contract to a new account (`newOwner`). Can only be called by the current owner."
      },
      "withdrawWantToken(uint256)": {
        "params": {
          "_wantAmt": "The amount of Want token to withdraw"
        },
        "returns": {
          "sharesRemoved": "The number of shares removed"
        }
      }
    },
    "version": 1
  },
  "userdoc": {
    "kind": "user",
    "methods": {
      "depositWantToken(uint256)": {
        "notice": "Receives new deposits from user"
      },
      "earn(uint256)": {
        "notice": "The main compounding (earn) function. Reinvests profits since the last earn event."
      },
      "exchangeUSDForWantToken(uint256,uint256)": {
        "notice": "Performs necessary operations to convert USD into Want token"
      },
      "exchangeWantTokenForUSD(uint256,uint256)": {
        "notice": "Converts Want token back into USD to be ready for withdrawal and transfers to sender"
      },
      "farm()": {
        "notice": "Public function for farming Want token."
      },
      "inCaseTokensGetStuck(address,uint256,address)": {
        "notice": "Safely transfer ERC20 tokens stuck in this contract to a specified address"
      },
      "initialize(address,(uint256,bool,bool,(address,address,address,address,address,address,address,address,address,address,address,address,address,address,address,address),address,address,address[],address[],address[],address[],address[],address[],address[],address[],(uint256,uint256,uint256,uint256,uint256),(address,address,address,address,address,address),uint256))": {
        "notice": "Upgradeable constructor"
      },
      "pause()": {
        "notice": "Pause contract"
      },
      "setFeeSettings(uint256,uint256,uint256,uint256,uint256)": {
        "notice": "Configure key fee parameters"
      },
      "setGov(address)": {
        "notice": "Set governor address"
      },
      "setOnlyGov(bool)": {
        "notice": "Set onlyGov property"
      },
      "unpause()": {
        "notice": "Unpause contract"
      },
      "withdrawWantToken(uint256)": {
        "notice": "Fully withdraw Want tokens from the Farm contract (100% withdrawals only)"
      }
    },
    "version": 1
  }
}