{
  "contractName": "MockVaultStandardAMM",
  "abi": [
    {
      "anonymous": false,
      "inputs": [
        {
          "indexed": true,
          "internalType": "address",
          "name": "previousOwner",
          "type": "address"
        },
        {
          "indexed": true,
          "internalType": "address",
          "name": "newOwner",
          "type": "address"
        }
      ],
      "name": "OwnershipTransferred",
      "type": "event"
    },
    {
      "anonymous": false,
      "inputs": [
        {
          "indexed": false,
          "internalType": "address",
          "name": "account",
          "type": "address"
        }
      ],
      "name": "Paused",
      "type": "event"
    },
    {
      "anonymous": false,
      "inputs": [
        {
          "indexed": false,
          "internalType": "address",
          "name": "_govAddress",
          "type": "address"
        }
      ],
      "name": "SetGov",
      "type": "event"
    },
    {
      "anonymous": false,
      "inputs": [
        {
          "indexed": false,
          "internalType": "bool",
          "name": "_onlyGov",
          "type": "bool"
        }
      ],
      "name": "SetOnlyGov",
      "type": "event"
    },
    {
      "anonymous": false,
      "inputs": [
        {
          "indexed": false,
          "internalType": "address",
          "name": "_rewardsAddress",
          "type": "address"
        }
      ],
      "name": "SetRewardsAddress",
      "type": "event"
    },
    {
      "anonymous": false,
      "inputs": [
        {
          "indexed": false,
          "internalType": "uint256",
          "name": "_entranceFeeFactor",
          "type": "uint256"
        },
        {
          "indexed": false,
          "internalType": "uint256",
          "name": "_withdrawFeeFactor",
          "type": "uint256"
        },
        {
          "indexed": false,
          "internalType": "uint256",
          "name": "_controllerFee",
          "type": "uint256"
        },
        {
          "indexed": false,
          "internalType": "uint256",
          "name": "_buyBackRate",
          "type": "uint256"
        }
      ],
      "name": "SetSettings",
      "type": "event"
    },
    {
      "anonymous": false,
      "inputs": [
        {
          "indexed": false,
          "internalType": "address",
          "name": "_uniRouterAddress",
          "type": "address"
        }
      ],
      "name": "SetUniRouterAddress",
      "type": "event"
    },
    {
      "anonymous": false,
      "inputs": [
        {
          "indexed": false,
          "internalType": "address",
          "name": "account",
          "type": "address"
        }
      ],
      "name": "Unpaused",
      "type": "event"
    },
    {
      "inputs": [
        {
          "internalType": "uint256",
          "name": "",
          "type": "uint256"
        }
      ],
      "name": "USDCToToken0Path",
      "outputs": [
        {
          "internalType": "address",
          "name": "",
          "type": "address"
        }
      ],
      "stateMutability": "view",
      "type": "function",
      "constant": true
    },
    {
      "inputs": [
        {
          "internalType": "uint256",
          "name": "",
          "type": "uint256"
        }
      ],
      "name": "USDCToToken1Path",
      "outputs": [
        {
          "internalType": "address",
          "name": "",
          "type": "address"
        }
      ],
      "stateMutability": "view",
      "type": "function",
      "constant": true
    },
    {
      "inputs": [],
      "name": "ZORPriceFeed",
      "outputs": [
        {
          "internalType": "contract AggregatorV3Interface",
          "name": "",
          "type": "address"
        }
      ],
      "stateMutability": "view",
      "type": "function",
      "constant": true
    },
    {
      "inputs": [],
      "name": "ZORROAddress",
      "outputs": [
        {
          "internalType": "address",
          "name": "",
          "type": "address"
        }
      ],
      "stateMutability": "view",
      "type": "function",
      "constant": true
    },
    {
      "inputs": [],
      "name": "burnAddress",
      "outputs": [
        {
          "internalType": "address",
          "name": "",
          "type": "address"
        }
      ],
      "stateMutability": "view",
      "type": "function",
      "constant": true
    },
    {
      "inputs": [],
      "name": "buyBackRate",
      "outputs": [
        {
          "internalType": "uint256",
          "name": "",
          "type": "uint256"
        }
      ],
      "stateMutability": "view",
      "type": "function",
      "constant": true
    },
    {
      "inputs": [],
      "name": "buyBackRateMax",
      "outputs": [
        {
          "internalType": "uint256",
          "name": "",
          "type": "uint256"
        }
      ],
      "stateMutability": "view",
      "type": "function",
      "constant": true
    },
    {
      "inputs": [],
      "name": "buyBackRateUL",
      "outputs": [
        {
          "internalType": "uint256",
          "name": "",
          "type": "uint256"
        }
      ],
      "stateMutability": "view",
      "type": "function",
      "constant": true
    },
    {
      "inputs": [],
      "name": "controllerFee",
      "outputs": [
        {
          "internalType": "uint256",
          "name": "",
          "type": "uint256"
        }
      ],
      "stateMutability": "view",
      "type": "function",
      "constant": true
    },
    {
      "inputs": [],
      "name": "controllerFeeMax",
      "outputs": [
        {
          "internalType": "uint256",
          "name": "",
          "type": "uint256"
        }
      ],
      "stateMutability": "view",
      "type": "function",
      "constant": true
    },
    {
      "inputs": [],
      "name": "controllerFeeUL",
      "outputs": [
        {
          "internalType": "uint256",
          "name": "",
          "type": "uint256"
        }
      ],
      "stateMutability": "view",
      "type": "function",
      "constant": true
    },
    {
      "inputs": [
        {
          "internalType": "address",
          "name": "_account",
          "type": "address"
        },
        {
          "internalType": "uint256",
          "name": "_wantAmt",
          "type": "uint256"
        }
      ],
      "name": "depositWantToken",
      "outputs": [
        {
          "internalType": "uint256",
          "name": "sharesAdded",
          "type": "uint256"
        }
      ],
      "stateMutability": "nonpayable",
      "type": "function"
    },
    {
      "inputs": [
        {
          "internalType": "uint256",
          "name": "_maxMarketMovementAllowed",
          "type": "uint256"
        }
      ],
      "name": "earn",
      "outputs": [],
      "stateMutability": "nonpayable",
      "type": "function"
    },
    {
      "inputs": [],
      "name": "earnTokenPriceFeed",
      "outputs": [
        {
          "internalType": "contract AggregatorV3Interface",
          "name": "",
          "type": "address"
        }
      ],
      "stateMutability": "view",
      "type": "function",
      "constant": true
    },
    {
      "inputs": [],
      "name": "earnedAddress",
      "outputs": [
        {
          "internalType": "address",
          "name": "",
          "type": "address"
        }
      ],
      "stateMutability": "view",
      "type": "function",
      "constant": true
    },
    {
      "inputs": [
        {
          "internalType": "uint256",
          "name": "",
          "type": "uint256"
        }
      ],
      "name": "earnedToToken0Path",
      "outputs": [
        {
          "internalType": "address",
          "name": "",
          "type": "address"
        }
      ],
      "stateMutability": "view",
      "type": "function",
      "constant": true
    },
    {
      "inputs": [
        {
          "internalType": "uint256",
          "name": "",
          "type": "uint256"
        }
      ],
      "name": "earnedToToken1Path",
      "outputs": [
        {
          "internalType": "address",
          "name": "",
          "type": "address"
        }
      ],
      "stateMutability": "view",
      "type": "function",
      "constant": true
    },
    {
      "inputs": [
        {
          "internalType": "uint256",
          "name": "",
          "type": "uint256"
        }
      ],
      "name": "earnedToUSDCPath",
      "outputs": [
        {
          "internalType": "address",
          "name": "",
          "type": "address"
        }
      ],
      "stateMutability": "view",
      "type": "function",
      "constant": true
    },
    {
      "inputs": [
        {
          "internalType": "uint256",
          "name": "",
          "type": "uint256"
        }
      ],
      "name": "earnedToZORLPPoolOtherTokenPath",
      "outputs": [
        {
          "internalType": "address",
          "name": "",
          "type": "address"
        }
      ],
      "stateMutability": "view",
      "type": "function",
      "constant": true
    },
    {
      "inputs": [
        {
          "internalType": "uint256",
          "name": "",
          "type": "uint256"
        }
      ],
      "name": "earnedToZORROPath",
      "outputs": [
        {
          "internalType": "address",
          "name": "",
          "type": "address"
        }
      ],
      "stateMutability": "view",
      "type": "function",
      "constant": true
    },
    {
      "inputs": [],
      "name": "entranceFeeFactor",
      "outputs": [
        {
          "internalType": "uint256",
          "name": "",
          "type": "uint256"
        }
      ],
      "stateMutability": "view",
      "type": "function",
      "constant": true
    },
    {
      "inputs": [],
      "name": "entranceFeeFactorLL",
      "outputs": [
        {
          "internalType": "uint256",
          "name": "",
          "type": "uint256"
        }
      ],
      "stateMutability": "view",
      "type": "function",
      "constant": true
    },
    {
      "inputs": [],
      "name": "entranceFeeFactorMax",
      "outputs": [
        {
          "internalType": "uint256",
          "name": "",
          "type": "uint256"
        }
      ],
      "stateMutability": "view",
      "type": "function",
      "constant": true
    },
    {
      "inputs": [
        {
          "internalType": "uint256",
          "name": "_amountUSDC",
          "type": "uint256"
        },
        {
          "internalType": "uint256",
          "name": "_maxMarketMovementAllowed",
          "type": "uint256"
        }
      ],
      "name": "exchangeUSDForWantToken",
      "outputs": [
        {
          "internalType": "uint256",
          "name": "",
          "type": "uint256"
        }
      ],
      "stateMutability": "nonpayable",
      "type": "function"
    },
    {
      "inputs": [
        {
          "internalType": "uint256",
          "name": "_amount",
          "type": "uint256"
        },
        {
          "internalType": "uint256",
          "name": "_maxMarketMovementAllowed",
          "type": "uint256"
        }
      ],
      "name": "exchangeWantTokenForUSD",
      "outputs": [
        {
          "internalType": "uint256",
          "name": "",
          "type": "uint256"
        }
      ],
      "stateMutability": "nonpayable",
      "type": "function"
    },
    {
      "inputs": [],
      "name": "farm",
      "outputs": [],
      "stateMutability": "nonpayable",
      "type": "function"
    },
    {
      "inputs": [],
      "name": "farmContractAddress",
      "outputs": [
        {
          "internalType": "address",
          "name": "",
          "type": "address"
        }
      ],
      "stateMutability": "view",
      "type": "function",
      "constant": true
    },
    {
      "inputs": [],
      "name": "govAddress",
      "outputs": [
        {
          "internalType": "address",
          "name": "",
          "type": "address"
        }
      ],
      "stateMutability": "view",
      "type": "function",
      "constant": true
    },
    {
      "inputs": [
        {
          "internalType": "address",
          "name": "_token",
          "type": "address"
        },
        {
          "internalType": "uint256",
          "name": "_amount",
          "type": "uint256"
        },
        {
          "internalType": "address",
          "name": "_to",
          "type": "address"
        }
      ],
      "name": "inCaseTokensGetStuck",
      "outputs": [],
      "stateMutability": "nonpayable",
      "type": "function"
    },
    {
      "inputs": [
        {
          "internalType": "address",
          "name": "_timelockOwner",
          "type": "address"
        },
        {
          "components": [
            {
              "internalType": "uint256",
              "name": "pid",
              "type": "uint256"
            },
            {
              "internalType": "bool",
              "name": "isHomeChain",
              "type": "bool"
            },
            {
              "components": [
                {
                  "internalType": "address",
                  "name": "govAddress",
                  "type": "address"
                },
                {
                  "internalType": "address",
                  "name": "zorroControllerAddress",
                  "type": "address"
                },
                {
                  "internalType": "address",
                  "name": "ZORROAddress",
                  "type": "address"
                },
                {
                  "internalType": "address",
                  "name": "zorroStakingVault",
                  "type": "address"
                },
                {
                  "internalType": "address",
                  "name": "wantAddress",
                  "type": "address"
                },
                {
                  "internalType": "address",
                  "name": "token0Address",
                  "type": "address"
                },
                {
                  "internalType": "address",
                  "name": "token1Address",
                  "type": "address"
                },
                {
                  "internalType": "address",
                  "name": "earnedAddress",
                  "type": "address"
                },
                {
                  "internalType": "address",
                  "name": "farmContractAddress",
                  "type": "address"
                },
                {
                  "internalType": "address",
                  "name": "rewardsAddress",
                  "type": "address"
                },
                {
                  "internalType": "address",
                  "name": "poolAddress",
                  "type": "address"
                },
                {
                  "internalType": "address",
                  "name": "uniRouterAddress",
                  "type": "address"
                },
                {
                  "internalType": "address",
                  "name": "zorroLPPool",
                  "type": "address"
                },
                {
                  "internalType": "address",
                  "name": "zorroLPPoolOtherToken",
                  "type": "address"
                },
                {
                  "internalType": "address",
                  "name": "tokenUSDCAddress",
                  "type": "address"
                }
              ],
              "internalType": "struct VaultBase.VaultAddresses",
              "name": "keyAddresses",
              "type": "tuple"
            },
            {
              "internalType": "address[]",
              "name": "earnedToZORROPath",
              "type": "address[]"
            },
            {
              "internalType": "address[]",
              "name": "earnedToToken0Path",
              "type": "address[]"
            },
            {
              "internalType": "address[]",
              "name": "earnedToToken1Path",
              "type": "address[]"
            },
            {
              "internalType": "address[]",
              "name": "USDCToToken0Path",
              "type": "address[]"
            },
            {
              "internalType": "address[]",
              "name": "USDCToToken1Path",
              "type": "address[]"
            },
            {
              "internalType": "address[]",
              "name": "earnedToZORLPPoolOtherTokenPath",
              "type": "address[]"
            },
            {
              "internalType": "address[]",
              "name": "earnedToUSDCPath",
              "type": "address[]"
            },
            {
              "components": [
                {
                  "internalType": "uint256",
                  "name": "controllerFee",
                  "type": "uint256"
                },
                {
                  "internalType": "uint256",
                  "name": "buyBackRate",
                  "type": "uint256"
                },
                {
                  "internalType": "uint256",
                  "name": "revShareRate",
                  "type": "uint256"
                },
                {
                  "internalType": "uint256",
                  "name": "entranceFeeFactor",
                  "type": "uint256"
                },
                {
                  "internalType": "uint256",
                  "name": "withdrawFeeFactor",
                  "type": "uint256"
                }
              ],
              "internalType": "struct VaultBase.VaultFees",
              "name": "fees",
              "type": "tuple"
            },
            {
              "components": [
                {
                  "internalType": "address",
                  "name": "token0PriceFeed",
                  "type": "address"
                },
                {
                  "internalType": "address",
                  "name": "token1PriceFeed",
                  "type": "address"
                },
                {
                  "internalType": "address",
                  "name": "earnTokenPriceFeed",
                  "type": "address"
                },
                {
                  "internalType": "address",
                  "name": "ZORPriceFeed",
                  "type": "address"
                },
                {
                  "internalType": "address",
                  "name": "lpPoolOtherTokenPriceFeed",
                  "type": "address"
                }
              ],
              "internalType": "struct VaultBase.VaultPriceFeeds",
              "name": "priceFeeds",
              "type": "tuple"
            }
          ],
          "internalType": "struct VaultStandardAMM.VaultStandardAMMInit",
          "name": "_initValue",
          "type": "tuple"
        }
      ],
      "name": "initialize",
      "outputs": [],
      "stateMutability": "nonpayable",
      "type": "function"
    },
    {
      "inputs": [
        {
          "internalType": "address",
          "name": "_timelockOwner",
          "type": "address"
        }
      ],
      "name": "initialize",
      "outputs": [],
      "stateMutability": "nonpayable",
      "type": "function"
    },
    {
      "inputs": [],
      "name": "isHomeChain",
      "outputs": [
        {
          "internalType": "bool",
          "name": "",
          "type": "bool"
        }
      ],
      "stateMutability": "view",
      "type": "function",
      "constant": true
    },
    {
      "inputs": [],
      "name": "lastEarnBlock",
      "outputs": [
        {
          "internalType": "uint256",
          "name": "",
          "type": "uint256"
        }
      ],
      "stateMutability": "view",
      "type": "function",
      "constant": true
    },
    {
      "inputs": [],
      "name": "lpPoolOtherTokenPriceFeed",
      "outputs": [
        {
          "internalType": "contract AggregatorV3Interface",
          "name": "",
          "type": "address"
        }
      ],
      "stateMutability": "view",
      "type": "function",
      "constant": true
    },
    {
      "inputs": [],
      "name": "onlyGov",
      "outputs": [
        {
          "internalType": "bool",
          "name": "",
          "type": "bool"
        }
      ],
      "stateMutability": "view",
      "type": "function",
      "constant": true
    },
    {
      "inputs": [],
      "name": "owner",
      "outputs": [
        {
          "internalType": "address",
          "name": "",
          "type": "address"
        }
      ],
      "stateMutability": "view",
      "type": "function",
      "constant": true
    },
    {
      "inputs": [],
      "name": "pause",
      "outputs": [],
      "stateMutability": "nonpayable",
      "type": "function"
    },
    {
      "inputs": [],
      "name": "paused",
      "outputs": [
        {
          "internalType": "bool",
          "name": "",
          "type": "bool"
        }
      ],
      "stateMutability": "view",
      "type": "function",
      "constant": true
    },
    {
      "inputs": [],
      "name": "pid",
      "outputs": [
        {
          "internalType": "uint256",
          "name": "",
          "type": "uint256"
        }
      ],
      "stateMutability": "view",
      "type": "function",
      "constant": true
    },
    {
      "inputs": [],
      "name": "poolAddress",
      "outputs": [
        {
          "internalType": "address",
          "name": "",
          "type": "address"
        }
      ],
      "stateMutability": "view",
      "type": "function",
      "constant": true
    },
    {
      "inputs": [],
      "name": "renounceOwnership",
      "outputs": [],
      "stateMutability": "nonpayable",
      "type": "function"
    },
    {
      "inputs": [],
      "name": "revShareRate",
      "outputs": [
        {
          "internalType": "uint256",
          "name": "",
          "type": "uint256"
        }
      ],
      "stateMutability": "view",
      "type": "function",
      "constant": true
    },
    {
      "inputs": [],
      "name": "revShareRateMax",
      "outputs": [
        {
          "internalType": "uint256",
          "name": "",
          "type": "uint256"
        }
      ],
      "stateMutability": "view",
      "type": "function",
      "constant": true
    },
    {
      "inputs": [],
      "name": "revShareRateUL",
      "outputs": [
        {
          "internalType": "uint256",
          "name": "",
          "type": "uint256"
        }
      ],
      "stateMutability": "view",
      "type": "function",
      "constant": true
    },
    {
      "inputs": [],
      "name": "rewardsAddress",
      "outputs": [
        {
          "internalType": "address",
          "name": "",
          "type": "address"
        }
      ],
      "stateMutability": "view",
      "type": "function",
      "constant": true
    },
    {
      "inputs": [
        {
          "internalType": "address",
          "name": "_earnedAddress",
          "type": "address"
        }
      ],
      "name": "setEarnedAddress",
      "outputs": [],
      "stateMutability": "nonpayable",
      "type": "function"
    },
    {
      "inputs": [
        {
          "internalType": "address",
          "name": "_farmContractAddress",
          "type": "address"
        }
      ],
      "name": "setFarmContractAddress",
      "outputs": [],
      "stateMutability": "nonpayable",
      "type": "function"
    },
    {
      "inputs": [
        {
          "internalType": "uint256",
          "name": "_entranceFeeFactor",
          "type": "uint256"
        },
        {
          "internalType": "uint256",
          "name": "_withdrawFeeFactor",
          "type": "uint256"
        },
        {
          "internalType": "uint256",
          "name": "_controllerFee",
          "type": "uint256"
        },
        {
          "internalType": "uint256",
          "name": "_buyBackRate",
          "type": "uint256"
        }
      ],
      "name": "setFeeSettings",
      "outputs": [],
      "stateMutability": "nonpayable",
      "type": "function"
    },
    {
      "inputs": [
        {
          "internalType": "address",
          "name": "_govAddress",
          "type": "address"
        }
      ],
      "name": "setGov",
      "outputs": [],
      "stateMutability": "nonpayable",
      "type": "function"
    },
    {
      "inputs": [
        {
          "internalType": "bool",
          "name": "_onlyGov",
          "type": "bool"
        }
      ],
      "name": "setOnlyGov",
      "outputs": [],
      "stateMutability": "nonpayable",
      "type": "function"
    },
    {
      "inputs": [
        {
          "internalType": "uint256",
          "name": "_pid",
          "type": "uint256"
        }
      ],
      "name": "setPid",
      "outputs": [],
      "stateMutability": "nonpayable",
      "type": "function"
    },
    {
      "inputs": [
        {
          "internalType": "address",
          "name": "_poolAddress",
          "type": "address"
        }
      ],
      "name": "setPoolAddress",
      "outputs": [],
      "stateMutability": "nonpayable",
      "type": "function"
    },
    {
      "inputs": [
        {
          "internalType": "uint8",
          "name": "_idx",
          "type": "uint8"
        },
        {
          "internalType": "address",
          "name": "_priceFeed",
          "type": "address"
        }
      ],
      "name": "setPriceFeed",
      "outputs": [],
      "stateMutability": "nonpayable",
      "type": "function"
    },
    {
      "inputs": [
        {
          "internalType": "address",
          "name": "_rewardsAddress",
          "type": "address"
        }
      ],
      "name": "setRewardsAddress",
      "outputs": [],
      "stateMutability": "nonpayable",
      "type": "function"
    },
    {
      "inputs": [
        {
          "internalType": "uint8",
          "name": "_idx",
          "type": "uint8"
        },
        {
          "internalType": "address[]",
          "name": "_path",
          "type": "address[]"
        }
      ],
      "name": "setSwapPaths",
      "outputs": [],
      "stateMutability": "nonpayable",
      "type": "function"
    },
    {
      "inputs": [
        {
          "internalType": "address",
          "name": "_token0Address",
          "type": "address"
        }
      ],
      "name": "setToken0Address",
      "outputs": [],
      "stateMutability": "nonpayable",
      "type": "function"
    },
    {
      "inputs": [
        {
          "internalType": "address",
          "name": "_token1Address",
          "type": "address"
        }
      ],
      "name": "setToken1Address",
      "outputs": [],
      "stateMutability": "nonpayable",
      "type": "function"
    },
    {
      "inputs": [
        {
          "internalType": "address",
          "name": "_tokenUSDCAddress",
          "type": "address"
        }
      ],
      "name": "setTokenUSDCAddress",
      "outputs": [],
      "stateMutability": "nonpayable",
      "type": "function"
    },
    {
      "inputs": [
        {
          "internalType": "address",
          "name": "_uniRouterAddress",
          "type": "address"
        }
      ],
      "name": "setUniRouterAddress",
      "outputs": [],
      "stateMutability": "nonpayable",
      "type": "function"
    },
    {
      "inputs": [
        {
          "internalType": "address",
          "name": "_wantAddress",
          "type": "address"
        }
      ],
      "name": "setWantAddress",
      "outputs": [],
      "stateMutability": "nonpayable",
      "type": "function"
    },
    {
      "inputs": [
        {
          "internalType": "address",
          "name": "_ZORROAddress",
          "type": "address"
        }
      ],
      "name": "setZORROAddress",
      "outputs": [],
      "stateMutability": "nonpayable",
      "type": "function"
    },
    {
      "inputs": [
        {
          "internalType": "address",
          "name": "_zorroControllerAddress",
          "type": "address"
        }
      ],
      "name": "setZorroControllerAddress",
      "outputs": [],
      "stateMutability": "nonpayable",
      "type": "function"
    },
    {
      "inputs": [
        {
          "internalType": "address",
          "name": "_poolAddress",
          "type": "address"
        }
      ],
      "name": "setZorroLPPoolAddress",
      "outputs": [],
      "stateMutability": "nonpayable",
      "type": "function"
    },
    {
      "inputs": [
        {
          "internalType": "address",
          "name": "_otherToken",
          "type": "address"
        }
      ],
      "name": "setZorroLPPoolOtherToken",
      "outputs": [],
      "stateMutability": "nonpayable",
      "type": "function"
    },
    {
      "inputs": [
        {
          "internalType": "address",
          "name": "_stakingVault",
          "type": "address"
        }
      ],
      "name": "setZorroStakingVault",
      "outputs": [],
      "stateMutability": "nonpayable",
      "type": "function"
    },
    {
      "inputs": [],
      "name": "sharesTotal",
      "outputs": [
        {
          "internalType": "uint256",
          "name": "",
          "type": "uint256"
        }
      ],
      "stateMutability": "view",
      "type": "function",
      "constant": true
    },
    {
      "inputs": [],
      "name": "token0Address",
      "outputs": [
        {
          "internalType": "address",
          "name": "",
          "type": "address"
        }
      ],
      "stateMutability": "view",
      "type": "function",
      "constant": true
    },
    {
      "inputs": [],
      "name": "token0PriceFeed",
      "outputs": [
        {
          "internalType": "contract AggregatorV3Interface",
          "name": "",
          "type": "address"
        }
      ],
      "stateMutability": "view",
      "type": "function",
      "constant": true
    },
    {
      "inputs": [
        {
          "internalType": "uint256",
          "name": "",
          "type": "uint256"
        }
      ],
      "name": "token0ToUSDCPath",
      "outputs": [
        {
          "internalType": "address",
          "name": "",
          "type": "address"
        }
      ],
      "stateMutability": "view",
      "type": "function",
      "constant": true
    },
    {
      "inputs": [],
      "name": "token1Address",
      "outputs": [
        {
          "internalType": "address",
          "name": "",
          "type": "address"
        }
      ],
      "stateMutability": "view",
      "type": "function",
      "constant": true
    },
    {
      "inputs": [],
      "name": "token1PriceFeed",
      "outputs": [
        {
          "internalType": "contract AggregatorV3Interface",
          "name": "",
          "type": "address"
        }
      ],
      "stateMutability": "view",
      "type": "function",
      "constant": true
    },
    {
      "inputs": [
        {
          "internalType": "uint256",
          "name": "",
          "type": "uint256"
        }
      ],
      "name": "token1ToUSDCPath",
      "outputs": [
        {
          "internalType": "address",
          "name": "",
          "type": "address"
        }
      ],
      "stateMutability": "view",
      "type": "function",
      "constant": true
    },
    {
      "inputs": [],
      "name": "tokenUSDCAddress",
      "outputs": [
        {
          "internalType": "address",
          "name": "",
          "type": "address"
        }
      ],
      "stateMutability": "view",
      "type": "function",
      "constant": true
    },
    {
      "inputs": [
        {
          "internalType": "address",
          "name": "newOwner",
          "type": "address"
        }
      ],
      "name": "transferOwnership",
      "outputs": [],
      "stateMutability": "nonpayable",
      "type": "function"
    },
    {
      "inputs": [],
      "name": "uniRouterAddress",
      "outputs": [
        {
          "internalType": "address",
          "name": "",
          "type": "address"
        }
      ],
      "stateMutability": "view",
      "type": "function",
      "constant": true
    },
    {
      "inputs": [],
      "name": "unpause",
      "outputs": [],
      "stateMutability": "nonpayable",
      "type": "function"
    },
    {
      "inputs": [
        {
          "internalType": "address",
          "name": "",
          "type": "address"
        }
      ],
      "name": "userShares",
      "outputs": [
        {
          "internalType": "uint256",
          "name": "",
          "type": "uint256"
        }
      ],
      "stateMutability": "view",
      "type": "function",
      "constant": true
    },
    {
      "inputs": [],
      "name": "wantAddress",
      "outputs": [
        {
          "internalType": "address",
          "name": "",
          "type": "address"
        }
      ],
      "stateMutability": "view",
      "type": "function",
      "constant": true
    },
    {
      "inputs": [],
      "name": "wantLockedTotal",
      "outputs": [
        {
          "internalType": "uint256",
          "name": "",
          "type": "uint256"
        }
      ],
      "stateMutability": "view",
      "type": "function",
      "constant": true
    },
    {
      "inputs": [],
      "name": "withdrawFeeFactor",
      "outputs": [
        {
          "internalType": "uint256",
          "name": "",
          "type": "uint256"
        }
      ],
      "stateMutability": "view",
      "type": "function",
      "constant": true
    },
    {
      "inputs": [],
      "name": "withdrawFeeFactorLL",
      "outputs": [
        {
          "internalType": "uint256",
          "name": "",
          "type": "uint256"
        }
      ],
      "stateMutability": "view",
      "type": "function",
      "constant": true
    },
    {
      "inputs": [],
      "name": "withdrawFeeFactorMax",
      "outputs": [
        {
          "internalType": "uint256",
          "name": "",
          "type": "uint256"
        }
      ],
      "stateMutability": "view",
      "type": "function",
      "constant": true
    },
    {
      "inputs": [
        {
          "internalType": "address",
          "name": "_account",
          "type": "address"
        },
        {
          "internalType": "uint256",
          "name": "_wantAmt",
          "type": "uint256"
        }
      ],
      "name": "withdrawWantToken",
      "outputs": [
        {
          "internalType": "uint256",
          "name": "sharesRemoved",
          "type": "uint256"
        }
      ],
      "stateMutability": "nonpayable",
      "type": "function"
    },
    {
      "inputs": [],
      "name": "zorroControllerAddress",
      "outputs": [
        {
          "internalType": "address",
          "name": "",
          "type": "address"
        }
      ],
      "stateMutability": "view",
      "type": "function",
      "constant": true
    },
    {
      "inputs": [],
      "name": "zorroLPPool",
      "outputs": [
        {
          "internalType": "address",
          "name": "",
          "type": "address"
        }
      ],
      "stateMutability": "view",
      "type": "function",
      "constant": true
    },
    {
      "inputs": [],
      "name": "zorroLPPoolOtherToken",
      "outputs": [
        {
          "internalType": "address",
          "name": "",
          "type": "address"
        }
      ],
      "stateMutability": "view",
      "type": "function",
      "constant": true
    },
    {
      "inputs": [],
      "name": "zorroStakingVault",
      "outputs": [
        {
          "internalType": "address",
          "name": "",
          "type": "address"
        }
      ],
      "stateMutability": "view",
      "type": "function",
      "constant": true
    },
    {
      "inputs": [],
      "name": "zorroXChainController",
      "outputs": [
        {
          "internalType": "address",
          "name": "",
          "type": "address"
        }
      ],
      "stateMutability": "view",
      "type": "function",
      "constant": true
    },
    {
      "inputs": [
        {
          "internalType": "address[]",
          "name": "_path",
          "type": "address[]"
        }
      ],
      "name": "reversePath",
      "outputs": [
        {
          "internalType": "address[]",
          "name": "",
          "type": "address[]"
        }
      ],
      "stateMutability": "pure",
      "type": "function",
      "constant": true
    },
    {
      "inputs": [
        {
          "internalType": "uint256",
          "name": "_wantAmt",
          "type": "uint256"
        }
      ],
      "name": "unfarm",
      "outputs": [],
      "stateMutability": "nonpayable",
      "type": "function"
    }
  ],
  "bytecode": "0x608060405234801561001057600080fd5b50614eee806100206000396000f3fe608060405234801561001057600080fd5b50600436106104ee5760003560e01c806385f02dd61161028e578063c5c97cbf11610167578063e7198474116100d9578063f106845411610092578063f106845414610a4e578063f25342bf14610a57578063f2fde38b14610a6a578063f5046a2914610a7d578063fbf5683f14610a90578063ff29b39514610aa357600080fd5b8063e7198474146109f5578063e7a0367914610a08578063e9e15b4f14610a1b578063ebfba7c414610a2e578063edf5e58514610a41578063ee50dc34146105da57600080fd5b8063d7cb416f1161012b578063d7cb416f14610976578063de69b3aa14610989578063de841991146109a9578063e0ccabfa146109bc578063e502a88d146109cf578063e65a0117146109e257600080fd5b8063c5c97cbf14610917578063c6efd5771461092a578063c8479cd61461093d578063c8e3d18b14610950578063cfad57a21461096357600080fd5b8063ab196def11610200578063b86c5f53116101c4578063b86c5f53146108b8578063ba0bb4ab146108cb578063bf3a7d40146108de578063c0973eed146108f1578063c302a4d0146107ad578063c4d66de81461090457600080fd5b8063ab196def1461086c578063ae53e58a1461087f578063b1414dbb14610892578063b3545c0114610508578063b73cba2a146108a557600080fd5b8063959334f411610252578063959334f4146107fa57806396e9aff81461080d5780639f703a56146108205780639fc33a9f14610833578063a4d2b08314610846578063aabf190b1461085957600080fd5b806385f02dd6146107a4578063866b2018146107ad5780638906758d146107b65780638b4c5aee146107c95780638da5cb5b146107e957600080fd5b80634ce54ddb116103cb578063648794a41161033d5780636f96f6fa116102f65780636f96f6fa1461075257806370d5ae0514610765578063715018a61461076e5780637bf604d8146107765780637ff36fbe146107895780638456cb591461079c57600080fd5b8063648794a4146106fd57806367057b6c146105da57806367206d401461071057806368f5416214610723578063693a090b1461072c5780636ca8bd651461073f57600080fd5b80635c975abb1161038f5780635c975abb146106935780635da79d631461069e5780635fc77d43146106b15780636183e804146106c457806361b5bf9f146106d75780636392ab12146106ea57600080fd5b80634ce54ddb146106475780634d9f7bb2146105da5780634e2cb8b61461065a578063583bda3b1461066d5780635b5133931461068057600080fd5b8063211019d7116104645780633f4ba83a116104285780633f4ba83a1461060757806342da4eb31461060f57806343788cd2146105da57806344a3955e1461061857806346008a07146106215780634c5b09da1461063457600080fd5b8063211019d7146105085780632717eff3146105da5780633214471f146105e35780633395cfd6146105ec57806336e9332d146105ff57600080fd5b80631334903f116104b65780631334903f146105645780631755ff211461056d578063178a8d07146105985780631b0d8aab146105a15780631c885bae146105b45780631e12819a146105c757600080fd5b806305828d3e146104f3578063061c7d48146105085780630b6bb30b146105245780630daef321146105375780630fa4e01e1461055b575b600080fd5b61050661050136600461417f565b610ab6565b005b6105116103e881565b6040519081526020015b60405180910390f35b6105066105323660046141b3565b610b0b565b60cb5461054b90600160a01b900460ff1681565b604051901515815260200161051b565b61051160e05481565b61051160de5481565b60d754610580906001600160a01b031681565b6040516001600160a01b03909116815260200161051b565b61051160dc5481565b6105066105af3660046141d0565b610b8d565b6105066105c23660046141d0565b610bbc565b6105066105d536600461417f565b610bc9565b61051161271081565b61051160dd5481565b6105066105fa366004614519565b610c15565b610506611030565b610506611067565b61051160e15481565b61051160e25481565b60cb54610580906001600160a01b031681565b61050661064236600461417f565b61109b565b60d554610580906001600160a01b031681565b6105806106683660046141d0565b6110e7565b61050661067b36600461417f565b611111565b61050661068e3660046146d0565b61115d565b60975460ff1661054b565b6105066106ac36600461417f565b6113cd565b60cd54610580906001600160a01b031681565b6105066106d236600461417f565b611419565b6105066106e536600461417f565b611465565b6105806106f83660046141d0565b6114b1565b61051161070b366004614702565b6114c1565b61050661071e366004614724565b61185e565b61051160df5481565b60d854610580906001600160a01b031681565b61050661074d36600461417f565b611928565b60ef54610580906001600160a01b031681565b61058061dead81565b610506611974565b60d954610580906001600160a01b031681565b60d154610580906001600160a01b031681565b6105066119a8565b61051160db5481565b61051161232881565b6105066107c436600461417f565b6119da565b6107dc6107d7366004614760565b611a26565b60405161051b91906147d9565b6033546001600160a01b0316610580565b61050661080836600461417f565b611a31565b61058061081b3660046141d0565b611a7d565b61058061082e3660046141d0565b611a8d565b60d454610580906001600160a01b031681565b60cf54610580906001600160a01b031681565b60f054610580906001600160a01b031681565b60f154610580906001600160a01b031681565b60ee54610580906001600160a01b031681565b60cc54610580906001600160a01b031681565b6105066108b336600461417f565b611a9d565b6105806108c63660046141d0565b611ae9565b6105116108d93660046147ec565b611af9565b6105066108ec36600461417f565b611c82565b60d654610580906001600160a01b031681565b61050661091236600461417f565b611cce565b6105806109253660046141d0565b611d51565b6105806109383660046141d0565b611d61565b61050661094b36600461417f565b611d71565b61058061095e3660046141d0565b611dbd565b61050661097136600461417f565b611dcd565b60d254610580906001600160a01b031681565b61051161099736600461417f565b60e36020526000908152604090205481565b6105066109b7366004614825565b611e45565b6105116109ca3660046147ec565b611f8b565b6105116109dd366004614702565b612125565b6105066109f03660046141d0565b61258c565b60d354610580906001600160a01b031681565b60d054610580906001600160a01b031681565b610506610a2936600461417f565b612a0c565b60da54610580906001600160a01b031681565b60c95461054b9060ff1681565b61051160ca5481565b60ed54610580906001600160a01b031681565b610506610a7836600461417f565b612a58565b60ce54610580906001600160a01b031681565b610580610a9e3660046141d0565b612af3565b610506610ab136600461485a565b612b03565b6033546001600160a01b03163314610ae95760405162461bcd60e51b8152600401610ae0906148e2565b60405180910390fd5b60d280546001600160a01b0319166001600160a01b0392909216919091179055565b60cb546001600160a01b03163314610b355760405162461bcd60e51b8152600401610ae090614917565b60cb8054821515600160a01b0260ff60a01b199091161790556040517f125177ac7b8930dac1e59c2b30b1b6b9191b30af40cf6bbb5d20fec4d44be60f90610b8290831515815260200190565b60405180910390a150565b6033546001600160a01b03163314610bb75760405162461bcd60e51b8152600401610ae0906148e2565b60ca55565b610bc581612c07565b5050565b6033546001600160a01b03163314610bf35760405162461bcd60e51b8152600401610ae0906148e2565b60d580546001600160a01b0319166001600160a01b0392909216919091179055565b600054610100900460ff16610c305760005460ff1615610c34565b303b155b610c505760405162461bcd60e51b8152600401610ae090614935565b600054610100900460ff16158015610c72576000805461ffff19166101011790555b815160ca5560208083015160c9805460ff1916911515919091179055604080840151805160cb8054600160a01b6001600160a01b039384166001600160a81b0319909216919091171790558184015160cc80546001600160a01b03199081169284169290921790558284015160ce8054831691841691909117905560608084015160cf8054841691851691909117905560808085015160d08054851691861691909117905560a085015160d18054851691861691909117905560e085015160d38054851691861691909117905561010085015160d48054851691861691909117905561012085015160d6805485169186169190911790556101408086015160d78054861691871691909117905561016086015160d88054861691871691909117905561018086015160d9805486169187169190911790556101a086015160da805486169187169190911790556101c09095015160d5805490941694169390931790915591860151805160db558085015160dc559283015160dd558282015160de55919091015160df558301518051610e0e9260ea92019061409a565b5060808201518051610e289160e89160209091019061409a565b5060a08201518051610e429160e99160209091019061409a565b5060c08201518051610e5c9160e49160209091019061409a565b5060e08201518051610e769160e59160209091019061409a565b506101008201518051610e919160eb9160209091019061409a565b506101208201518051610eac9160ec9160209091019061409a565b50610f1060e4805480602002602001604051908101604052809291908181526020018280548015610f0657602002820191906000526020600020905b81546001600160a01b03168152600190910190602001808311610ee8575b5050505050612d17565b8051610f249160e69160209091019061409a565b50610f8660e5805480602002602001604051908101604052809291908181526020018280548015610f06576020028201919060005260206000209081546001600160a01b03168152600190910190602001808311610ee8575050505050612d17565b8051610f9a9160e79160209091019061409a565b50610160820151805160ed80546001600160a01b03199081166001600160a01b0393841617909155602083015160ee80548316918416919091179055604083015160ef80548316918416919091179055608083015160f08054831691841691909117905560609092015160f18054909316911617905561101983611cce565b801561102b576000805461ff00191690555b505050565b600260655414156110535760405162461bcd60e51b8152600401610ae090614983565b6002606555611060612df1565b6001606555565b60cb546001600160a01b031633146110915760405162461bcd60e51b8152600401610ae090614917565b611099612eff565b565b6033546001600160a01b031633146110c55760405162461bcd60e51b8152600401610ae0906148e2565b60d480546001600160a01b0319166001600160a01b0392909216919091179055565b60e781815481106110f757600080fd5b6000918252602090912001546001600160a01b0316905081565b6033546001600160a01b0316331461113b5760405162461bcd60e51b8152600401610ae0906148e2565b60ce80546001600160a01b0319166001600160a01b0392909216919091179055565b60cb546001600160a01b031633146111875760405162461bcd60e51b8152600401610ae090614917565b6123288410156111d95760405162461bcd60e51b815260206004820152601a60248201527f5f656e7472616e6365466565466163746f7220746f6f206c6f770000000000006044820152606401610ae0565b61271084111561122b5760405162461bcd60e51b815260206004820152601b60248201527f5f656e7472616e6365466565466163746f7220746f6f206869676800000000006044820152606401610ae0565b60de8490556123288310156112825760405162461bcd60e51b815260206004820152601a60248201527f5f7769746864726177466565466163746f7220746f6f206c6f770000000000006044820152606401610ae0565b6127108311156112d45760405162461bcd60e51b815260206004820152601b60248201527f5f7769746864726177466565466163746f7220746f6f206869676800000000006044820152606401610ae0565b60df8390556103e882111561132b5760405162461bcd60e51b815260206004820152601760248201527f5f636f6e74726f6c6c657246656520746f6f20686967680000000000000000006044820152606401610ae0565b60db8290556103e881111561137a5760405162461bcd60e51b81526020600482015260156024820152740bec4eaf284c2c6d6a4c2e8ca40e8dede40d0d2ced605b1b6044820152606401610ae0565b60dc8190556040805185815260208101859052908101839052606081018290527fd9968429114ac80bd16723a205e45e46393aefba1f08fb7bdffbad9ef60946089060800160405180910390a150505050565b6033546001600160a01b031633146113f75760405162461bcd60e51b8152600401610ae0906148e2565b60d880546001600160a01b0319166001600160a01b0392909216919091179055565b6033546001600160a01b031633146114435760405162461bcd60e51b8152600401610ae0906148e2565b60d080546001600160a01b0319166001600160a01b0392909216919091179055565b6033546001600160a01b0316331461148f5760405162461bcd60e51b8152600401610ae0906148e2565b60d980546001600160a01b0319166001600160a01b0392909216919091179055565b60ea81815481106110f757600080fd5b60cc546000906001600160a01b0316336001600160a01b0316146114f75760405162461bcd60e51b8152600401610ae0906149ba565b60975460ff161561151a5760405162461bcd60e51b8152600401610ae0906149e4565b600083116115615760405162461bcd60e51b8152602060048201526014602482015273057616e7420616d74206d757374206265203e20360641b6044820152606401610ae0565b60d054611579906001600160a01b0316333086612f92565b60ed54600090611591906001600160a01b0316612ffd565b60ee549091506000906115ac906001600160a01b0316612ffd565b90506115b985853061313d565b60d1546040516370a0823160e01b81523060048201526000916001600160a01b0316906370a0823190602401602060405180830381865afa158015611602573d6000803e3d6000fd5b505050506040513d601f19601f820116820180604052508101906116269190614a0e565b60d2546040516370a0823160e01b81523060048201529192506000916001600160a01b03909116906370a0823190602401602060405180830381865afa158015611674573d6000803e3d6000fd5b505050506040513d601f19601f820116820180604052508101906116989190614a0e565b60d85460d1549192506116b8916001600160a01b039081169116846133ac565b60d85460d2546116d5916001600160a01b039182169116836133ac565b61176a828564e8d4a510008960e680548060200260200160405190810160405280929190818152602001828054801561173757602002820191906000526020600020905b81546001600160a01b03168152600190910190602001808311611719575b5050505050336117526102584261345e90919063ffffffff16565b60d8546001600160a01b031696959493929190613471565b6117e5818464e8d4a510008960e7805480602002602001604051908101604052809291908181526020018280548015611737576020028201919060005260206000209081546001600160a01b03168152600190910190602001808311611719575050505050336117526102584261345e90919063ffffffff16565b60d5546040516370a0823160e01b81523360048201526001600160a01b03909116906370a0823190602401602060405180830381865afa15801561182d573d6000803e3d6000fd5b505050506040513d601f19601f820116820180604052508101906118519190614a0e565b9450505050505b92915050565b60cb546001600160a01b031633146118885760405162461bcd60e51b8152600401610ae090614917565b60d3546001600160a01b03848116911614156118ce5760405162461bcd60e51b8152602060048201526005602482015264217361666560d81b6044820152606401610ae0565b60d0546001600160a01b03848116911614156119145760405162461bcd60e51b8152602060048201526005602482015264217361666560d81b6044820152606401610ae0565b61102b6001600160a01b03841682846135da565b6033546001600160a01b031633146119525760405162461bcd60e51b8152600401610ae0906148e2565b60cf80546001600160a01b0319166001600160a01b0392909216919091179055565b6033546001600160a01b0316331461199e5760405162461bcd60e51b8152600401610ae0906148e2565b611099600061360a565b60cb546001600160a01b031633146119d25760405162461bcd60e51b8152600401610ae090614917565b61109961365c565b6033546001600160a01b03163314611a045760405162461bcd60e51b8152600401610ae0906148e2565b60d680546001600160a01b0319166001600160a01b0392909216919091179055565b606061185882612d17565b6033546001600160a01b03163314611a5b5760405162461bcd60e51b8152600401610ae0906148e2565b60da80546001600160a01b0319166001600160a01b0392909216919091179055565b60e981815481106110f757600080fd5b60ec81815481106110f757600080fd5b6033546001600160a01b03163314611ac75760405162461bcd60e51b8152600401610ae0906148e2565b60d380546001600160a01b0319166001600160a01b0392909216919091179055565b60e481815481106110f757600080fd5b60cc546000906001600160a01b0316336001600160a01b031614611b2f5760405162461bcd60e51b8152600401610ae0906149ba565b60026065541415611b525760405162461bcd60e51b8152600401610ae090614983565b600260655560975460ff1615611b7a5760405162461bcd60e51b8152600401610ae0906149e4565b60008211611bb95760405162461bcd60e51b815260206004820152600c60248201526b057616e7420646570203c20360a41b6044820152606401610ae0565b60d054611bd1906001600160a01b0316333085612f92565b819050600060e154118015611be85750600060e254115b15611c2357611c20612710611c1a60e154611c1a60de54611c1460e254896136b490919063ffffffff16565b906136b4565b906136c0565b90505b60e254611c30908261345e565b60e2556001600160a01b038316600090815260e36020526040902054611c56908261345e565b6001600160a01b038416600090815260e36020526040902055611c77612df1565b600160655592915050565b6033546001600160a01b03163314611cac5760405162461bcd60e51b8152600401610ae0906148e2565b60cc80546001600160a01b0319166001600160a01b0392909216919091179055565b600054610100900460ff16611ce95760005460ff1615611ced565b303b155b611d095760405162461bcd60e51b8152600401610ae090614935565b600054610100900460ff16158015611d2b576000805461ffff19166101011790555b611d336136cc565b611d3c82612a58565b8015610bc5576000805461ff00191690555050565b60e581815481106110f757600080fd5b60e681815481106110f757600080fd5b6033546001600160a01b03163314611d9b5760405162461bcd60e51b8152600401610ae0906148e2565b60d180546001600160a01b0319166001600160a01b0392909216919091179055565b60e881815481106110f757600080fd5b60cb546001600160a01b03163314611df75760405162461bcd60e51b8152600401610ae090614917565b60cb80546001600160a01b0319166001600160a01b0383169081179091556040519081527f91a8c1cc2d4a3bb60738481947a00cbb9899c822916694cf8bb1d68172fdcd5490602001610b82565b6033546001600160a01b03163314611e6f5760405162461bcd60e51b8152600401610ae0906148e2565b60ff8216611e985760ed80546001600160a01b0383166001600160a01b03199091161790555050565b8160ff1660011415611ec55760ee80546001600160a01b0383166001600160a01b03199091161790555050565b8160ff1660021415611ef25760ef80546001600160a01b0383166001600160a01b03199091161790555050565b8160ff1660031415611f1f5760f180546001600160a01b0383166001600160a01b03199091161790555050565b8160ff1660041415611f4c5760f080546001600160a01b0383166001600160a01b03199091161790555050565b60405162461bcd60e51b81526020600482015260146024820152730eadce6eae0e0dee4e8cac840cccacac840d2c8f60631b6044820152606401610ae0565b60cc546000906001600160a01b0316336001600160a01b031614611fc15760405162461bcd60e51b8152600401610ae0906149ba565b60026065541415611fe45760405162461bcd60e51b8152600401610ae090614983565b600260655560975460ff161561200c5760405162461bcd60e51b8152600401610ae0906149e4565b6000821161204c5760405162461bcd60e51b815260206004820152600d60248201526c077616e7420616d74203c3d203609c1b6044820152606401610ae0565b61206760e154611c1a60e254856136b490919063ffffffff16565b905060e254811115612078575060e2545b60e25461208590826136fb565b60e2556001600160a01b038316600090815260e360205260409020546120ab90826136fb565b6001600160a01b038416600090815260e3602052604090205560df5461271011156120ee576120eb612710611c1a60df54856136b490919063ffffffff16565b91505b60006120f983612c07565b60cc5460d054919250612119916001600160a01b039081169116836135da565b50600160655592915050565b60cc546000906001600160a01b0316336001600160a01b03161461215b5760405162461bcd60e51b8152600401610ae0906149ba565b60975460ff161561217e5760405162461bcd60e51b8152600401610ae0906149e4565b60d5546040516370a0823160e01b81523060048201526000916001600160a01b0316906370a0823190602401602060405180830381865afa1580156121c7573d6000803e3d6000fd5b505050506040513d601f19601f820116820180604052508101906121eb9190614a0e565b90506000841161223d5760405162461bcd60e51b815260206004820152601860248201527f55534443206465706f736974206d757374206265203e203000000000000000006044820152606401610ae0565b8084111561228d5760405162461bcd60e51b815260206004820152601960248201527f5553444320646573697265642065786365656465642062616c000000000000006044820152606401610ae0565b60ed546000906122a5906001600160a01b0316612ffd565b60ee549091506000906122c0906001600160a01b0316612ffd565b60d85460d5549192506122e0916001600160a01b039081169116886133ac565b6123676122ee8760026136c0565b64e8d4a51000848860e480548060200260200160405190810160405280929190818152602001828054801561234c57602002820191906000526020600020905b81546001600160a01b0316815260019091019060200180831161232e575b5050505050306117526102584261345e90919063ffffffff16565b6123ec6123758760026136c0565b64e8d4a51000838860e580548060200260200160405190810160405280929190818152602001828054801561234c576020028201919060005260206000209081546001600160a01b0316815260019091019060200180831161232e575050505050306117526102584261345e90919063ffffffff16565b60d1546040516370a0823160e01b81523060048201526000916001600160a01b0316906370a0823190602401602060405180830381865afa158015612435573d6000803e3d6000fd5b505050506040513d601f19601f820116820180604052508101906124599190614a0e565b60d2546040516370a0823160e01b81523060048201529192506000916001600160a01b03909116906370a0823190602401602060405180830381865afa1580156124a7573d6000803e3d6000fd5b505050506040513d601f19601f820116820180604052508101906124cb9190614a0e565b60d85460d1549192506124eb916001600160a01b039081169116846133ac565b60d85460d254612508916001600160a01b039182169116836133ac565b61251482828933613707565b60d0546040516370a0823160e01b81523360048201526001600160a01b03909116906370a0823190602401602060405180830381865afa15801561255c573d6000803e3d6000fd5b505050506040513d601f19601f820116820180604052508101906125809190614a0e565b98975050505050505050565b600260655414156125af5760405162461bcd60e51b8152600401610ae090614983565b600260655560975460ff16156125d75760405162461bcd60e51b8152600401610ae0906149e4565b60cb54600160a01b900460ff16156126135760cb546001600160a01b031633146126135760405162461bcd60e51b8152600401610ae090614917565b61261d6000612c07565b5060d3546040516370a0823160e01b81523060048201526000916001600160a01b0316906370a0823190602401602060405180830381865afa158015612667573d6000803e3d6000fd5b505050506040513d601f19601f8201168201806040525081019061268b9190614a0e565b60ef549091506000906126a6906001600160a01b0316612ffd565b60ed549091506000906126c1906001600160a01b0316612ffd565b60ee549091506000906126dc906001600160a01b0316612ffd565b60f1549091506000906126f7906001600160a01b0316612ffd565b60f154909150600090612712906001600160a01b0316612ffd565b6040805160608101825287815260208101859052908101829052909150612738876137c4565b9650612745878983613823565b60d85460d354919850612766916001600160a01b0390811691166000613926565b60d85460d354612783916001600160a01b039182169116896133ac565b60d15460d3546001600160a01b0390811691161461281b5761281b6127a98860026136c0565b87878b60e880548060200260200160405190810160405280929190818152602001828054801561234c576020028201919060005260206000209081546001600160a01b0316815260019091019060200180831161232e575050505050306117526102584261345e90919063ffffffff16565b60d25460d3546001600160a01b039081169116146128b3576128b36128418860026136c0565b87868b60e980548060200260200160405190810160405280929190818152602001828054801561234c576020028201919060005260206000209081546001600160a01b0316815260019091019060200180831161232e575050505050306117526102584261345e90919063ffffffff16565b60d1546040516370a0823160e01b81523060048201526000916001600160a01b0316906370a0823190602401602060405180830381865afa1580156128fc573d6000803e3d6000fd5b505050506040513d601f19601f820116820180604052508101906129209190614a0e565b60d2546040516370a0823160e01b81523060048201529192506000916001600160a01b03909116906370a0823190602401602060405180830381865afa15801561296e573d6000803e3d6000fd5b505050506040513d601f19601f820116820180604052508101906129929190614a0e565b90506000821180156129a45750600081115b156129ef5760d85460d1546129c6916001600160a01b039182169116846133ac565b60d85460d2546129e3916001600160a01b039182169116836133ac565b6129ef82828c30613707565b4360e0556129fb612df1565b505060016065555050505050505050565b6033546001600160a01b03163314612a365760405162461bcd60e51b8152600401610ae0906148e2565b60d780546001600160a01b0319166001600160a01b0392909216919091179055565b6033546001600160a01b03163314612a825760405162461bcd60e51b8152600401610ae0906148e2565b6001600160a01b038116612ae75760405162461bcd60e51b815260206004820152602660248201527f4f776e61626c653a206e6577206f776e657220697320746865207a65726f206160448201526564647265737360d01b6064820152608401610ae0565b612af08161360a565b50565b60eb81815481106110f757600080fd5b6033546001600160a01b03163314612b2d5760405162461bcd60e51b8152600401610ae0906148e2565b60ff8316612b4757612b4160e483836140fb565b50505050565b8260ff1660011415612b5f57612b4160e583836140fb565b8260ff1660021415612b7757612b4160e683836140fb565b8260ff1660031415612b8f57612b4160e783836140fb565b8260ff1660041415612ba757612b4160e883836140fb565b8260ff1660051415612bbf57612b4160e983836140fb565b8260ff1660061415612bd757612b4160ea83836140fb565b8260ff1660071415612bef57612b4160eb83836140fb565b8260ff1660081415611f4c57612b4160ec83836140fb565b60d45460ca54604051630441a3e760e41b81526004810191909152602481018390526000916001600160a01b03169063441a3e7090604401600060405180830381600087803b158015612c5957600080fd5b505af1158015612c6d573d6000803e3d6000fd5b505060d0546040516370a0823160e01b8152306004820152859450600093506001600160a01b0390911691506370a0823190602401602060405180830381865afa158015612cbf573d6000803e3d6000fd5b505050506040513d601f19601f82011682018060405250810190612ce39190614a0e565b905080821115612cf1578091505b8260e1541015612d015760e15491505b60e154612d0e90836136fb565b60e15550919050565b80516060908067ffffffffffffffff811115612d3557612d356141e9565b604051908082528060200260200182016040528015612d5e578160200160208202803683370190505b50915060005b818161ffff161015612dea5783612d948261ffff16612d8e600188516136fb90919063ffffffff16565b906136fb565b81518110612da457612da4614a27565b6020026020010151838261ffff1681518110612dc257612dc2614a27565b6001600160a01b0390921660209283029190910190910152612de381614a53565b9050612d64565b5050919050565b60d0546040516370a0823160e01b81523060048201526000916001600160a01b0316906370a0823190602401602060405180830381865afa158015612e3a573d6000803e3d6000fd5b505050506040513d601f19601f82011682018060405250810190612e5e9190614a0e565b60e154909150612e6e908261345e565b60e15560d45460d054612e8e916001600160a01b039182169116836133ac565b60d45460ca54604051631c57762b60e31b81526001600160a01b039092169163e2bbb15891612eca918590600401918252602082015260400190565b600060405180830381600087803b158015612ee457600080fd5b505af1158015612ef8573d6000803e3d6000fd5b5050505050565b60975460ff16612f485760405162461bcd60e51b815260206004820152601460248201527314185d5cd8589b194e881b9bdd081c185d5cd95960621b6044820152606401610ae0565b6097805460ff191690557f5db9ee0a495bf2e6ff9c91a7834c1ba4fdd244a5e8aa4e537bd38aeae4b073aa335b6040516001600160a01b03909116815260200160405180910390a1565b6040516001600160a01b0380851660248301528316604482015260648101829052612b419085906323b872dd60e01b906084015b60408051601f198184030181529190526020810180516001600160e01b03166001600160e01b031990931692909217909152613a3b565b600080826001600160a01b031663313ce5676040518163ffffffff1660e01b8152600401602060405180830381865afa15801561303e573d6000803e3d6000fd5b505050506040513d601f19601f820116820180604052508101906130629190614a75565b90506000836001600160a01b031663feaf968c6040518163ffffffff1660e01b815260040160a060405180830381865afa1580156130a4573d6000803e3d6000fd5b505050506040513d601f19601f820116820180604052508101906130c89190614aac565b50505091505060008112156131185760405162461bcd60e51b81526020600482015260166024820152751b9959c81c1c9a58d95cc81b9bdd08185b1b1bddd95960521b6044820152606401610ae0565b61313561312683600a614be0565b611c1a8364e8d4a510006136b4565b949350505050565b60d15460d7546040516370a0823160e01b81526001600160a01b03918216600482015260009291909116906370a0823190602401602060405180830381865afa15801561318e573d6000803e3d6000fd5b505050506040513d601f19601f820116820180604052508101906131b29190614a0e565b60d25460d7546040516370a0823160e01b81526001600160a01b0391821660048201529293506000929116906370a0823190602401602060405180830381865afa158015613204573d6000803e3d6000fd5b505050506040513d601f19601f820116820180604052508101906132289190614a0e565b9050600060d760009054906101000a90046001600160a01b03166001600160a01b03166318160ddd6040518163ffffffff1660e01b8152600401602060405180830381865afa15801561327f573d6000803e3d6000fd5b505050506040513d601f19601f820116820180604052508101906132a39190614a0e565b905060006132bd6103e8611c1a88611c1486838d8b6136b4565b905060006132d76103e8611c1a89611c1487838e8b6136b4565b60d85460d15460d2549293506001600160a01b039182169263baa2abde9291821691168b86868c61330a4261025861345e565b60405160e089901b6001600160e01b03191681526001600160a01b039788166004820152958716602487015260448601949094526064850192909252608484015290921660a482015260c481019190915260e40160408051808303816000875af115801561337c573d6000803e3d6000fd5b505050506040513d601f19601f820116820180604052508101906133a09190614bef565b50505050505050505050565b604051636eb1769f60e11b81523060048201526001600160a01b038381166024830152600091839186169063dd62ed3e90604401602060405180830381865afa1580156133fd573d6000803e3d6000fd5b505050506040513d601f19601f820116820180604052508101906134219190614a0e565b61342b9190614c13565b6040516001600160a01b038516602482015260448101829052909150612b4190859063095ea7b360e01b90606401612fc6565b600061346a8284614c13565b9392505050565b600086158061347e575085155b156135495760405163d06ca61f60e01b81526000906001600160a01b038b169063d06ca61f906134b4908c908990600401614c2b565b600060405180830381865afa1580156134d1573d6000803e3d6000fd5b505050506040513d6000823e601f3d908101601f191682016040526134f99190810190614c44565b90506135416103e8611c1a888461351b600187516136fb90919063ffffffff16565b8151811061352b5761352b614a27565b60200260200101516136b490919063ffffffff16565b915050613569565b613566613558876103e86136b4565b611c1a87611c148c8c6136b4565b90505b604051635c11d79560e01b81526001600160a01b038a1690635c11d7959061359d908b908590899089908990600401614cca565b600060405180830381600087803b1580156135b757600080fd5b505af11580156135cb573d6000803e3d6000fd5b50505050505050505050505050565b6040516001600160a01b03831660248201526044810182905261102b90849063a9059cbb60e01b90606401612fc6565b603380546001600160a01b038381166001600160a01b0319831681179093556040519116919082907f8be0079c531659141344cd1fd0a4f28419497f9722a3daafe3b4186f6b6457e090600090a35050565b60975460ff161561367f5760405162461bcd60e51b8152600401610ae0906149e4565b6097805460ff191660011790557f62e78cea01bee320cd4e420270b5ea74000d11b0c9f74754ebdbfc544b05a258612f753390565b600061346a8284614d06565b600061346a8284614d25565b600054610100900460ff166136f35760405162461bcd60e51b8152600401610ae090614d47565b611099613b0d565b600061346a8284614d92565b60d85460d15460d2546001600160a01b039283169263e8e33700928116911687876137386103e8611c1a848b6136b4565b6137486103e8611c1a8c8c6136b4565b886137554261025861345e565b6040518963ffffffff1660e01b8152600401613778989796959493929190614da9565b6060604051808303816000875af1158015613797573d6000803e3d6000fd5b505050506040513d601f19601f820116820180604052508101906137bb9190614df2565b50505050505050565b6000811561381f5760db541561381f5760006137f1612710611c1a60db54866136b490919063ffffffff16565b60d65460d354919250613811916001600160a01b039081169116836135da565b61381b83826136fb565b9250505b5090565b60dc5460009081901561384e5761384b612710611c1a60dc54886136b490919063ffffffff16565b90505b600060c95460ff161561387657613866828686613b3d565b613871818686613e46565b61390e565b613896613883838361345e565b60cc546001600160a01b03168787613ee8565b60cd5460ca5460405163464e3c8b60e01b815260048101919091526024810184905260448101839052606481018790526001600160a01b039091169063464e3c8b90608401600060405180830381600087803b1580156138f557600080fd5b505af1158015613909573d6000803e3d6000fd5b505050505b61391c81612d8e88856136fb565b9695505050505050565b8015806139a05750604051636eb1769f60e11b81523060048201526001600160a01b03838116602483015284169063dd62ed3e90604401602060405180830381865afa15801561397a573d6000803e3d6000fd5b505050506040513d601f19601f8201168201806040525081019061399e9190614a0e565b155b613a0b5760405162461bcd60e51b815260206004820152603660248201527f5361666545524332303a20617070726f76652066726f6d206e6f6e2d7a65726f60448201527520746f206e6f6e2d7a65726f20616c6c6f77616e636560501b6064820152608401610ae0565b6040516001600160a01b03831660248201526044810182905261102b90849063095ea7b360e01b90606401612fc6565b6000613a90826040518060400160405280602081526020017f5361666545524332303a206c6f772d6c6576656c2063616c6c206661696c6564815250856001600160a01b0316613f869092919063ffffffff16565b80519091501561102b5780806020019051810190613aae9190614e20565b61102b5760405162461bcd60e51b815260206004820152602a60248201527f5361666545524332303a204552433230206f7065726174696f6e20646964206e6044820152691bdd081cdd58d8d9595960b21b6064820152608401610ae0565b600054610100900460ff16613b345760405162461bcd60e51b8152600401610ae090614d47565b6110993361360a565b60d85460d354613b5a916001600160a01b039182169116856133ac565b613be2613b688460026136c0565b826000015183602001518560ea80548060200260200160405190810160405280929190818152602001828054801561234c576020028201919060005260206000209081546001600160a01b0316815260019091019060200180831161232e575050505050306117526102584261345e90919063ffffffff16565b613c6a613bf08460026136c0565b826000015183604001518560eb80548060200260200160405190810160405280929190818152602001828054801561234c576020028201919060005260206000209081546001600160a01b0316815260019091019060200180831161232e575050505050306117526102584261345e90919063ffffffff16565b60ce546040516370a0823160e01b81523060048201526000916001600160a01b0316906370a0823190602401602060405180830381865afa158015613cb3573d6000803e3d6000fd5b505050506040513d601f19601f82011682018060405250810190613cd79190614a0e565b60da546040516370a0823160e01b81523060048201529192506000916001600160a01b03909116906370a0823190602401602060405180830381865afa158015613d25573d6000803e3d6000fd5b505050506040513d601f19601f82011682018060405250810190613d499190614a0e565b60d85460ce54919250613d69916001600160a01b039081169116846133ac565b60d85460da54613d86916001600160a01b039182169116836133ac565b60d85460ce5460da546001600160a01b039283169263e8e3370092811691168585613db76103e8611c1a848d6136b4565b613dc76103e8611c1a8a8e6136b4565b61dead613dd64261025861345e565b6040518963ffffffff1660e01b8152600401613df9989796959493929190614da9565b6060604051808303816000875af1158015613e18573d6000803e3d6000fd5b505050506040513d601f19601f82011682018060405250810190613e3c9190614df2565b5050505050505050565b60d85460d354613e63916001600160a01b039182169116856133ac565b61102b83826000015183602001518560ea805480602002602001604051908101604052809291908181526020018280548015613ec857602002820191906000526020600020905b81546001600160a01b03168152600190910190602001808311613eaa575b505060cf546001600160a01b03169250611752915042905061025861345e565b60d85460d354613f05916001600160a01b039182169116866133ac565b612b4184826000015164e8d4a510008560ec805480602002602001604051908101604052809291908181526020018280548015613f6b57602002820191906000526020600020905b81546001600160a01b03168152600190910190602001808311613f4d575b5050505050886117526102584261345e90919063ffffffff16565b60606131358484600085856001600160a01b0385163b613fe85760405162461bcd60e51b815260206004820152601d60248201527f416464726573733a2063616c6c20746f206e6f6e2d636f6e74726163740000006044820152606401610ae0565b600080866001600160a01b031685876040516140049190614e69565b60006040518083038185875af1925050503d8060008114614041576040519150601f19603f3d011682016040523d82523d6000602084013e614046565b606091505b5091509150614056828286614061565b979650505050505050565b6060831561407057508161346a565b8251156140805782518084602001fd5b8160405162461bcd60e51b8152600401610ae09190614e85565b8280548282559060005260206000209081019282156140ef579160200282015b828111156140ef57825182546001600160a01b0319166001600160a01b039091161782556020909201916001909101906140ba565b5061381f92915061414e565b8280548282559060005260206000209081019282156140ef579160200282015b828111156140ef5781546001600160a01b0319166001600160a01b0384351617825560209092019160019091019061411b565b5b8082111561381f576000815560010161414f565b80356001600160a01b038116811461417a57600080fd5b919050565b60006020828403121561419157600080fd5b61346a82614163565b8015158114612af057600080fd5b803561417a8161419a565b6000602082840312156141c557600080fd5b813561346a8161419a565b6000602082840312156141e257600080fd5b5035919050565b634e487b7160e01b600052604160045260246000fd5b6040516101e0810167ffffffffffffffff81118282101715614223576142236141e9565b60405290565b60405160a0810167ffffffffffffffff81118282101715614223576142236141e9565b604051610180810167ffffffffffffffff81118282101715614223576142236141e9565b604051601f8201601f1916810167ffffffffffffffff81118282101715614299576142996141e9565b604052919050565b60006101e082840312156142b457600080fd5b6142bc6141ff565b90506142c782614163565b81526142d560208301614163565b60208201526142e660408301614163565b60408201526142f760608301614163565b606082015261430860808301614163565b608082015261431960a08301614163565b60a082015261432a60c08301614163565b60c082015261433b60e08301614163565b60e082015261010061434e818401614163565b90820152610120614360838201614163565b90820152610140614372838201614163565b90820152610160614384838201614163565b90820152610180614396838201614163565b908201526101a06143a8838201614163565b908201526101c06143ba838201614163565b9082015292915050565b600067ffffffffffffffff8211156143de576143de6141e9565b5060051b60200190565b600082601f8301126143f957600080fd5b8135602061440e614409836143c4565b614270565b82815260059290921b8401810191818101908684111561442d57600080fd5b8286015b8481101561444f5761444281614163565b8352918301918301614431565b509695505050505050565b600060a0828403121561446c57600080fd5b614474614229565b9050813581526020820135602082015260408201356040820152606082013560608201526080820135608082015292915050565b600060a082840312156144ba57600080fd5b6144c2614229565b90506144cd82614163565b81526144db60208301614163565b60208201526144ec60408301614163565b60408201526144fd60608301614163565b606082015261450e60808301614163565b608082015292915050565b6000806040838503121561452c57600080fd5b61453583614163565b9150602083013567ffffffffffffffff8082111561455257600080fd5b90840190610440828703121561456757600080fd5b61456f61424c565b8235815261457f602084016141a8565b602082015261459187604085016142a1565b6040820152610220830135828111156145a957600080fd5b6145b5888286016143e8565b606083015250610240830135828111156145ce57600080fd5b6145da888286016143e8565b608083015250610260830135828111156145f357600080fd5b6145ff888286016143e8565b60a0830152506102808301358281111561461857600080fd5b614624888286016143e8565b60c0830152506102a08301358281111561463d57600080fd5b614649888286016143e8565b60e0830152506102c08301358281111561466257600080fd5b61466e888286016143e8565b610100830152506102e08301358281111561468857600080fd5b614694888286016143e8565b610120830152506146a987610300850161445a565b6101408201526146bd876103a085016144a8565b6101608201528093505050509250929050565b600080600080608085870312156146e657600080fd5b5050823594602084013594506040840135936060013592509050565b6000806040838503121561471557600080fd5b50508035926020909101359150565b60008060006060848603121561473957600080fd5b61474284614163565b92506020840135915061475760408501614163565b90509250925092565b60006020828403121561477257600080fd5b813567ffffffffffffffff81111561478957600080fd5b613135848285016143e8565b600081518084526020808501945080840160005b838110156147ce5781516001600160a01b0316875295820195908201906001016147a9565b509495945050505050565b60208152600061346a6020830184614795565b600080604083850312156147ff57600080fd5b61480883614163565b946020939093013593505050565b60ff81168114612af057600080fd5b6000806040838503121561483857600080fd5b823561484381614816565b915061485160208401614163565b90509250929050565b60008060006040848603121561486f57600080fd5b833561487a81614816565b9250602084013567ffffffffffffffff8082111561489757600080fd5b818601915086601f8301126148ab57600080fd5b8135818111156148ba57600080fd5b8760208260051b85010111156148cf57600080fd5b6020830194508093505050509250925092565b6020808252818101527f4f776e61626c653a2063616c6c6572206973206e6f7420746865206f776e6572604082015260600190565b60208082526004908201526310b3b7bb60e11b604082015260600190565b6020808252602e908201527f496e697469616c697a61626c653a20636f6e747261637420697320616c72656160408201526d191e481a5b9a5d1a585b1a5e995960921b606082015260800190565b6020808252601f908201527f5265656e7472616e637947756172643a207265656e7472616e742063616c6c00604082015260600190565b60208082526010908201526f10bd37b93937a1b7b73a3937b63632b960811b604082015260600190565b60208082526010908201526f14185d5cd8589b194e881c185d5cd95960821b604082015260600190565b600060208284031215614a2057600080fd5b5051919050565b634e487b7160e01b600052603260045260246000fd5b634e487b7160e01b600052601160045260246000fd5b600061ffff80831681811415614a6b57614a6b614a3d565b6001019392505050565b600060208284031215614a8757600080fd5b815161346a81614816565b805169ffffffffffffffffffff8116811461417a57600080fd5b600080600080600060a08688031215614ac457600080fd5b614acd86614a92565b9450602086015193506040860151925060608601519150614af060808701614a92565b90509295509295909350565b600181815b80851115614b37578160001904821115614b1d57614b1d614a3d565b80851615614b2a57918102915b93841c9390800290614b01565b509250929050565b600082614b4e57506001611858565b81614b5b57506000611858565b8160018114614b715760028114614b7b57614b97565b6001915050611858565b60ff841115614b8c57614b8c614a3d565b50506001821b611858565b5060208310610133831016604e8410600b8410161715614bba575081810a611858565b614bc48383614afc565b8060001904821115614bd857614bd8614a3d565b029392505050565b600061346a60ff841683614b3f565b60008060408385031215614c0257600080fd5b505080516020909101519092909150565b60008219821115614c2657614c26614a3d565b500190565b8281526040602082015260006131356040830184614795565b60006020808385031215614c5757600080fd5b825167ffffffffffffffff811115614c6e57600080fd5b8301601f81018513614c7f57600080fd5b8051614c8d614409826143c4565b81815260059190911b82018301908381019087831115614cac57600080fd5b928401925b8284101561405657835182529284019290840190614cb1565b85815284602082015260a060408201526000614ce960a0830186614795565b6001600160a01b0394909416606083015250608001529392505050565b6000816000190483118215151615614d2057614d20614a3d565b500290565b600082614d4257634e487b7160e01b600052601260045260246000fd5b500490565b6020808252602b908201527f496e697469616c697a61626c653a20636f6e7472616374206973206e6f74206960408201526a6e697469616c697a696e6760a81b606082015260800190565b600082821015614da457614da4614a3d565b500390565b6001600160a01b039889168152968816602088015260408701959095526060860193909352608085019190915260a084015290921660c082015260e08101919091526101000190565b600080600060608486031215614e0757600080fd5b8351925060208401519150604084015190509250925092565b600060208284031215614e3257600080fd5b815161346a8161419a565b60005b83811015614e58578181015183820152602001614e40565b83811115612b415750506000910152565b60008251614e7b818460208701614e3d565b9190910192915050565b6020815260008251806020840152614ea4816040850160208701614e3d565b601f01601f1916919091016040019291505056fea264697066735822122079e70281a704f6ddafcfc3545e16f2af039b40b3f056e522ed81554aebcd2d4c64736f6c634300080a0033",
  "immutableReferences": {},
  "source": "// SPDX-License-Identifier: MIT\n\npragma solidity ^0.8.0;\n\nimport \"../VaultStandardAMM.sol\";\n\nimport \"@openzeppelin/contracts-upgradeable/token/ERC20/ERC20Upgradeable.sol\";\n\nimport \"../../tokens/mocks/MockToken.sol\";\n\ncontract MockVaultFactoryStandardAMM is VaultFactoryStandardAMM {}\n\ncontract MockVaultStandardAMM is VaultStandardAMM {\n    function reversePath(address[] memory _path)\n        public\n        pure\n        returns (address[] memory)\n    {\n        return _reversePath(_path);\n    }\n\n    function unfarm(uint256 _wantAmt) public {\n        _unfarm(_wantAmt);\n    }\n}\n\ncontract MockAMMFarm is IAMMFarm, MockERC20Upgradeable {\n    using SafeERC20Upgradeable for IERC20Upgradeable;\n\n    address public burnAddress;\n    address public wantToken;\n\n    function setWantAddress(address _wantToken) public {\n        wantToken = _wantToken;\n    }\n\n    function setBurnAddress(address _burnAddress) public {\n        burnAddress = _burnAddress;\n    }\n\n    function poolLength() external view returns (uint256) {}\n\n    function userInfo() external view returns (uint256) {}\n\n    // Return reward multiplier over the given _from to _to block.\n    function getMultiplier(uint256 _from, uint256 _to)\n        external\n        view\n        returns (uint256)\n    {}\n\n    // View function to see pending CAKEs on frontend.\n    function pendingCake(uint256 _pid, address _user)\n        external\n        view\n        returns (uint256)\n    {}\n\n    event Deposited(uint256 indexed _pid, uint256 indexed _amount);\n\n    // Deposit LP tokens to MasterChef for CAKE allocation.\n    function deposit(uint256 _pid, uint256 _amount) external {\n        IERC20Upgradeable(wantToken).safeTransferFrom(msg.sender, burnAddress, _amount);\n        emit Deposited(_pid, _amount);\n    }\n\n    event Withdrew(uint256 indexed _pid, uint256 indexed _amount);\n\n    // Withdraw LP tokens from MasterChef.\n    function withdraw(uint256 _pid, uint256 _amount) external {\n        IMockERC20Upgradeable(wantToken).mint(msg.sender, _amount);\n        emit Withdrew(_pid, _amount);\n    }\n\n    // Stake CAKE tokens to MasterChef\n    function enterStaking(uint256 _amount) external {}\n\n    // Withdraw CAKE tokens from STAKING.\n    function leaveStaking(uint256 _amount) external {}\n\n    // Withdraw without caring about rewards. EMERGENCY ONLY.\n    function emergencyWithdraw(uint256 _pid) external {}\n}\n\ncontract MockAMMToken0 is MockERC20Upgradeable {}\ncontract MockAMMToken1 is MockERC20Upgradeable {}\ncontract MockAMMOtherLPToken is MockERC20Upgradeable {}\n",
  "sourcePath": "/Users/kristophm/Documents/workspace/zorro-protocol/contracts/vaults/mocks/MockVaultStandardAMM.sol",
  "compiler": {
    "name": "solc",
    "version": "0.8.10+commit.fc410830.Emscripten.clang"
  },
  "schemaVersion": "3.4.4",
  "updatedAt": "2022-04-30T15:43:36.627Z",
  "networkType": "ethereum",
  "devdoc": {
    "kind": "dev",
    "methods": {
      "depositWantToken(address,uint256)": {
        "params": {
          "_account": "The address of the end user account making the deposit",
          "_wantAmt": "The amount of Want token to deposit (must already be transferred)"
        },
        "returns": {
          "sharesAdded": "Number of shares added"
        }
      },
      "earn(uint256)": {
        "params": {
          "_maxMarketMovementAllowed": "The max slippage allowed. 1000 = 0 %, 995 = 0.5%, etc."
        }
      },
      "exchangeUSDForWantToken(uint256,uint256)": {
        "params": {
          "_amountUSDC": "The amount of USDC to exchange for Want token (must already be deposited on this contract)",
          "_maxMarketMovementAllowed": "The max slippage allowed. 1000 = 0 %, 995 = 0.5%, etc."
        },
        "returns": {
          "_0": "uint256 Amount of Want token obtained"
        }
      },
      "exchangeWantTokenForUSD(uint256,uint256)": {
        "params": {
          "_amount": "The Want token quantity to exchange",
          "_maxMarketMovementAllowed": "The max slippage allowed for swaps. 1000 = 0 %, 995 = 0.5%, etc."
        },
        "returns": {
          "_0": "uint256 Amount of USDC token obtained"
        }
      },
      "inCaseTokensGetStuck(address,uint256,address)": {
        "params": {
          "_amount": "The amount of the tokens to transfer",
          "_to": "The address to transfer tokens to",
          "_token": "Address of the ERC20 token to transfer"
        }
      },
      "initialize(address,(uint256,bool,(address,address,address,address,address,address,address,address,address,address,address,address,address,address,address),address[],address[],address[],address[],address[],address[],address[],(uint256,uint256,uint256,uint256,uint256),(address,address,address,address,address)))": {
        "params": {
          "_initValue": "A VaultStandardAMMInit struct with all constructor params",
          "_timelockOwner": "The designated timelock controller address to act as owner"
        }
      },
      "owner()": {
        "details": "Returns the address of the current owner."
      },
      "paused()": {
        "details": "Returns true if the contract is paused, and false otherwise."
      },
      "renounceOwnership()": {
        "details": "Leaves the contract without owner. It will not be possible to call `onlyOwner` functions anymore. Can only be called by the current owner. NOTE: Renouncing ownership will leave the contract without an owner, thereby removing any functionality that is only available to the owner."
      },
      "setFeeSettings(uint256,uint256,uint256,uint256)": {
        "params": {
          "_buyBackRate": "Buy back rate fee numerator",
          "_controllerFee": "Controller fee numerator",
          "_entranceFeeFactor": "Entrance fee numerator (higher means smaller percentage)",
          "_withdrawFeeFactor": "Withdrawal fee numerator (higher means smaller percentage)"
        }
      },
      "setGov(address)": {
        "params": {
          "_govAddress": "The new gov address"
        }
      },
      "setOnlyGov(bool)": {
        "params": {
          "_onlyGov": "whether onlyGov should be enforced"
        }
      },
      "transferOwnership(address)": {
        "details": "Transfers ownership of the contract to a new account (`newOwner`). Can only be called by the current owner."
      },
      "withdrawWantToken(address,uint256)": {
        "params": {
          "_account": "Address of user",
          "_wantAmt": "The amount of Want token to withdraw"
        },
        "returns": {
          "sharesRemoved": "uint256 The number of shares removed"
        }
      }
    },
    "version": 1
  },
  "userdoc": {
    "kind": "user",
    "methods": {
      "depositWantToken(address,uint256)": {
        "notice": "Receives new deposits from user"
      },
      "earn(uint256)": {
        "notice": "The main compounding (earn) function. Reinvests profits since the last earn event."
      },
      "exchangeUSDForWantToken(uint256,uint256)": {
        "notice": "Performs necessary operations to convert USDC into Want token and transfer back to sender"
      },
      "exchangeWantTokenForUSD(uint256,uint256)": {
        "notice": "Converts Want token back into USD to be ready for withdrawal, transfers back to sender"
      },
      "farm()": {
        "notice": "Public function for farming Want token."
      },
      "inCaseTokensGetStuck(address,uint256,address)": {
        "notice": "Safely transfer ERC20 tokens stuck in this contract to a specified address"
      },
      "initialize(address,(uint256,bool,(address,address,address,address,address,address,address,address,address,address,address,address,address,address,address),address[],address[],address[],address[],address[],address[],address[],(uint256,uint256,uint256,uint256,uint256),(address,address,address,address,address)))": {
        "notice": "Upgradeable constructor"
      },
      "pause()": {
        "notice": "Pause contract"
      },
      "setFeeSettings(uint256,uint256,uint256,uint256)": {
        "notice": "Configure key fee parameters"
      },
      "setGov(address)": {
        "notice": "Set governor address"
      },
      "setOnlyGov(bool)": {
        "notice": "Set onlyGov property"
      },
      "unpause()": {
        "notice": "Unpause contract"
      },
      "withdrawWantToken(address,uint256)": {
        "notice": "Fully withdraw Want tokens from the Farm contract (100% withdrawals only)"
      }
    },
    "version": 1
  }
}