{
  "contractName": "MockAlpacaFarm",
  "abi": [
    {
      "anonymous": false,
      "inputs": [
        {
          "indexed": true,
          "internalType": "address",
          "name": "owner",
          "type": "address"
        },
        {
          "indexed": true,
          "internalType": "address",
          "name": "spender",
          "type": "address"
        },
        {
          "indexed": false,
          "internalType": "uint256",
          "name": "value",
          "type": "uint256"
        }
      ],
      "name": "Approval",
      "type": "event"
    },
    {
      "anonymous": false,
      "inputs": [
        {
          "indexed": true,
          "internalType": "address",
          "name": "_want",
          "type": "address"
        },
        {
          "indexed": true,
          "internalType": "uint256",
          "name": "_amount",
          "type": "uint256"
        }
      ],
      "name": "Deposited",
      "type": "event"
    },
    {
      "anonymous": false,
      "inputs": [
        {
          "indexed": true,
          "internalType": "address",
          "name": "from",
          "type": "address"
        },
        {
          "indexed": true,
          "internalType": "address",
          "name": "to",
          "type": "address"
        },
        {
          "indexed": false,
          "internalType": "uint256",
          "name": "value",
          "type": "uint256"
        }
      ],
      "name": "Transfer",
      "type": "event"
    },
    {
      "anonymous": false,
      "inputs": [
        {
          "indexed": true,
          "internalType": "address",
          "name": "_want",
          "type": "address"
        },
        {
          "indexed": true,
          "internalType": "uint256",
          "name": "_amount",
          "type": "uint256"
        }
      ],
      "name": "Withdrew",
      "type": "event"
    },
    {
      "inputs": [
        {
          "internalType": "address",
          "name": "owner",
          "type": "address"
        },
        {
          "internalType": "address",
          "name": "spender",
          "type": "address"
        }
      ],
      "name": "allowance",
      "outputs": [
        {
          "internalType": "uint256",
          "name": "",
          "type": "uint256"
        }
      ],
      "stateMutability": "view",
      "type": "function"
    },
    {
      "inputs": [
        {
          "internalType": "address",
          "name": "spender",
          "type": "address"
        },
        {
          "internalType": "uint256",
          "name": "amount",
          "type": "uint256"
        }
      ],
      "name": "approve",
      "outputs": [
        {
          "internalType": "bool",
          "name": "",
          "type": "bool"
        }
      ],
      "stateMutability": "nonpayable",
      "type": "function"
    },
    {
      "inputs": [
        {
          "internalType": "address",
          "name": "account",
          "type": "address"
        }
      ],
      "name": "balanceOf",
      "outputs": [
        {
          "internalType": "uint256",
          "name": "",
          "type": "uint256"
        }
      ],
      "stateMutability": "view",
      "type": "function"
    },
    {
      "inputs": [],
      "name": "burnAddress",
      "outputs": [
        {
          "internalType": "address",
          "name": "",
          "type": "address"
        }
      ],
      "stateMutability": "view",
      "type": "function"
    },
    {
      "inputs": [],
      "name": "decimals",
      "outputs": [
        {
          "internalType": "uint8",
          "name": "",
          "type": "uint8"
        }
      ],
      "stateMutability": "view",
      "type": "function"
    },
    {
      "inputs": [
        {
          "internalType": "address",
          "name": "spender",
          "type": "address"
        },
        {
          "internalType": "uint256",
          "name": "subtractedValue",
          "type": "uint256"
        }
      ],
      "name": "decreaseAllowance",
      "outputs": [
        {
          "internalType": "bool",
          "name": "",
          "type": "bool"
        }
      ],
      "stateMutability": "nonpayable",
      "type": "function"
    },
    {
      "inputs": [
        {
          "internalType": "address",
          "name": "spender",
          "type": "address"
        },
        {
          "internalType": "uint256",
          "name": "addedValue",
          "type": "uint256"
        }
      ],
      "name": "increaseAllowance",
      "outputs": [
        {
          "internalType": "bool",
          "name": "",
          "type": "bool"
        }
      ],
      "stateMutability": "nonpayable",
      "type": "function"
    },
    {
      "inputs": [
        {
          "internalType": "address",
          "name": "_account",
          "type": "address"
        },
        {
          "internalType": "uint256",
          "name": "_amount",
          "type": "uint256"
        }
      ],
      "name": "mint",
      "outputs": [],
      "stateMutability": "nonpayable",
      "type": "function"
    },
    {
      "inputs": [],
      "name": "name",
      "outputs": [
        {
          "internalType": "string",
          "name": "",
          "type": "string"
        }
      ],
      "stateMutability": "view",
      "type": "function"
    },
    {
      "inputs": [],
      "name": "symbol",
      "outputs": [
        {
          "internalType": "string",
          "name": "",
          "type": "string"
        }
      ],
      "stateMutability": "view",
      "type": "function"
    },
    {
      "inputs": [],
      "name": "totalSupply",
      "outputs": [
        {
          "internalType": "uint256",
          "name": "",
          "type": "uint256"
        }
      ],
      "stateMutability": "view",
      "type": "function"
    },
    {
      "inputs": [
        {
          "internalType": "address",
          "name": "to",
          "type": "address"
        },
        {
          "internalType": "uint256",
          "name": "amount",
          "type": "uint256"
        }
      ],
      "name": "transfer",
      "outputs": [
        {
          "internalType": "bool",
          "name": "",
          "type": "bool"
        }
      ],
      "stateMutability": "nonpayable",
      "type": "function"
    },
    {
      "inputs": [
        {
          "internalType": "address",
          "name": "from",
          "type": "address"
        },
        {
          "internalType": "address",
          "name": "to",
          "type": "address"
        },
        {
          "internalType": "uint256",
          "name": "amount",
          "type": "uint256"
        }
      ],
      "name": "transferFrom",
      "outputs": [
        {
          "internalType": "bool",
          "name": "",
          "type": "bool"
        }
      ],
      "stateMutability": "nonpayable",
      "type": "function"
    },
    {
      "inputs": [],
      "name": "wantToken",
      "outputs": [
        {
          "internalType": "address",
          "name": "",
          "type": "address"
        }
      ],
      "stateMutability": "view",
      "type": "function"
    },
    {
      "inputs": [
        {
          "internalType": "address",
          "name": "_wantToken",
          "type": "address"
        }
      ],
      "name": "setWantAddress",
      "outputs": [],
      "stateMutability": "nonpayable",
      "type": "function"
    },
    {
      "inputs": [
        {
          "internalType": "address",
          "name": "_burnAddress",
          "type": "address"
        }
      ],
      "name": "setBurnAddress",
      "outputs": [],
      "stateMutability": "nonpayable",
      "type": "function"
    },
    {
      "inputs": [],
      "name": "poolLength",
      "outputs": [
        {
          "internalType": "uint256",
          "name": "",
          "type": "uint256"
        }
      ],
      "stateMutability": "view",
      "type": "function"
    },
    {
      "inputs": [
        {
          "internalType": "uint256",
          "name": "_allocPoint",
          "type": "uint256"
        },
        {
          "internalType": "address",
          "name": "_stakeToken",
          "type": "address"
        },
        {
          "internalType": "bool",
          "name": "_withUpdate",
          "type": "bool"
        }
      ],
      "name": "addPool",
      "outputs": [],
      "stateMutability": "nonpayable",
      "type": "function"
    },
    {
      "inputs": [
        {
          "internalType": "uint256",
          "name": "_pid",
          "type": "uint256"
        },
        {
          "internalType": "uint256",
          "name": "_allocPoint",
          "type": "uint256"
        },
        {
          "internalType": "bool",
          "name": "_withUpdate",
          "type": "bool"
        }
      ],
      "name": "setPool",
      "outputs": [],
      "stateMutability": "nonpayable",
      "type": "function"
    },
    {
      "inputs": [
        {
          "internalType": "uint256",
          "name": "_pid",
          "type": "uint256"
        },
        {
          "internalType": "address",
          "name": "_user",
          "type": "address"
        }
      ],
      "name": "pendingAlpaca",
      "outputs": [
        {
          "internalType": "uint256",
          "name": "",
          "type": "uint256"
        }
      ],
      "stateMutability": "view",
      "type": "function"
    },
    {
      "inputs": [
        {
          "internalType": "uint256",
          "name": "_pid",
          "type": "uint256"
        }
      ],
      "name": "updatePool",
      "outputs": [],
      "stateMutability": "nonpayable",
      "type": "function"
    },
    {
      "inputs": [
        {
          "internalType": "address",
          "name": "_for",
          "type": "address"
        },
        {
          "internalType": "uint256",
          "name": "_pid",
          "type": "uint256"
        },
        {
          "internalType": "uint256",
          "name": "_amount",
          "type": "uint256"
        }
      ],
      "name": "deposit",
      "outputs": [],
      "stateMutability": "nonpayable",
      "type": "function"
    },
    {
      "inputs": [
        {
          "internalType": "address",
          "name": "_for",
          "type": "address"
        },
        {
          "internalType": "uint256",
          "name": "_pid",
          "type": "uint256"
        },
        {
          "internalType": "uint256",
          "name": "_amount",
          "type": "uint256"
        }
      ],
      "name": "withdraw",
      "outputs": [],
      "stateMutability": "nonpayable",
      "type": "function"
    },
    {
      "inputs": [
        {
          "internalType": "address",
          "name": "_for",
          "type": "address"
        },
        {
          "internalType": "uint256",
          "name": "_pid",
          "type": "uint256"
        }
      ],
      "name": "withdrawAll",
      "outputs": [],
      "stateMutability": "nonpayable",
      "type": "function"
    },
    {
      "inputs": [
        {
          "internalType": "uint256",
          "name": "_pid",
          "type": "uint256"
        }
      ],
      "name": "harvest",
      "outputs": [],
      "stateMutability": "nonpayable",
      "type": "function"
    },
    {
      "inputs": [],
      "name": "getFairLaunchPoolId",
      "outputs": [
        {
          "internalType": "uint256",
          "name": "",
          "type": "uint256"
        }
      ],
      "stateMutability": "nonpayable",
      "type": "function"
    },
    {
      "inputs": [
        {
          "internalType": "uint256",
          "name": "_pid",
          "type": "uint256"
        }
      ],
      "name": "poolInfo",
      "outputs": [
        {
          "internalType": "address",
          "name": "",
          "type": "address"
        },
        {
          "internalType": "uint256",
          "name": "",
          "type": "uint256"
        },
        {
          "internalType": "uint256",
          "name": "",
          "type": "uint256"
        },
        {
          "internalType": "uint256",
          "name": "",
          "type": "uint256"
        },
        {
          "internalType": "uint256",
          "name": "",
          "type": "uint256"
        }
      ],
      "stateMutability": "view",
      "type": "function"
    },
    {
      "inputs": [],
      "name": "alpaca",
      "outputs": [
        {
          "internalType": "address",
          "name": "",
          "type": "address"
        }
      ],
      "stateMutability": "nonpayable",
      "type": "function"
    },
    {
      "inputs": [
        {
          "internalType": "uint256",
          "name": "_pid",
          "type": "uint256"
        },
        {
          "internalType": "address",
          "name": "_user",
          "type": "address"
        }
      ],
      "name": "userInfo",
      "outputs": [
        {
          "internalType": "uint256",
          "name": "",
          "type": "uint256"
        },
        {
          "internalType": "uint256",
          "name": "",
          "type": "uint256"
        },
        {
          "internalType": "uint256",
          "name": "",
          "type": "uint256"
        },
        {
          "internalType": "address",
          "name": "",
          "type": "address"
        }
      ],
      "stateMutability": "view",
      "type": "function"
    },
    {
      "inputs": [
        {
          "internalType": "uint256",
          "name": "_pid",
          "type": "uint256"
        }
      ],
      "name": "emergencyWithdraw",
      "outputs": [],
      "stateMutability": "nonpayable",
      "type": "function"
    }
  ],
  "bytecode": "0x608060405234801561001057600080fd5b50611392806100206000396000f3fe608060405234801561001057600080fd5b50600436106101f7576000357c01000000000000000000000000000000000000000000000000000000009004806370a0823111610121578063a457c2d7116100bf578063d23e04801161008e578063d23e0480146104af578063dd62ed3e146104c2578063ddc6326214610351578063eff42ef2146104fb57600080fd5b8063a457c2d714610464578063a9059cbb14610477578063b5c5f6721461048a578063cc6dbc271461049d57600080fd5b806393f1a40b116100fb57806393f1a40b1461040157806394443b731461043d57806394faab231461045057806395d89b411461045c57600080fd5b806370a082311461039f57806370d5ae05146103c85780637abceffd146103f357600080fd5b8063313ce567116101995780634b0e7216116101685780634b0e72161461031457806351eb05a6146103515780635312ea8e146103515780636183e8041461036257600080fd5b8063313ce567146102cc57806339509351146102db57806340c10f19146102ee57806346ca6bea1461030157600080fd5b80630efe6a8b116101d55780630efe6a8b1461024e5780631526fe271461026357806318160ddd146102b157806323b872dd146102b957600080fd5b806306fdde03146101fc578063081e3eda1461021a578063095ea7b31461022b575b600080fd5b610204610507565b60405161021191906110a2565b60405180910390f35b60005b604051908152602001610211565b61023e6102393660046110f1565b610599565b6040519015158152602001610211565b61026161025c36600461111b565b6105b1565b005b61027f61027136600461114e565b506000908190819081908190565b60408051600160a060020a0390961686526020860194909452928401919091526060830152608082015260a001610211565b60355461021d565b61023e6102c7366004611167565b610620565b60405160128152602001610211565b61023e6102e93660046110f1565b610646565b6102616102fc3660046110f1565b610685565b61026161030f3660046111b1565b505050565b6102616103223660046111ea565b6065805473ffffffffffffffffffffffffffffffffffffffff1916600160a060020a0392909216919091179055565b61026161035f36600461114e565b50565b6102616103703660046111ea565b6066805473ffffffffffffffffffffffffffffffffffffffff1916600160a060020a0392909216919091179055565b61021d6103ad3660046111ea565b600160a060020a031660009081526033602052604090205490565b6065546103db90600160a060020a031681565b604051600160a060020a039091168152602001610211565b61026161030f366004611205565b61041461040f36600461123a565b61068f565b60408051948552602085019390935291830152600160a060020a03166060820152608001610211565b61021d61044b36600461123a565b6106b9565b600160675560006103db565b6102046106d7565b61023e6104723660046110f1565b6106e6565b61023e6104853660046110f1565b6107a3565b61026161049836600461111b565b6107b1565b6102616104ab3660046110f1565b5050565b6066546103db90600160a060020a031681565b61021d6104d0366004611266565b600160a060020a03918216600090815260346020908152604080832093909416825291909152205490565b6001606755600061021d565b60606036805461051690611290565b80601f016020809104026020016040519081016040528092919081815260200182805461054290611290565b801561058f5780601f106105645761010080835404028352916020019161058f565b820191906000526020600020905b81548152906001019060200180831161057257829003601f168201915b5050505050905090565b6000336105a781858561086f565b5060019392505050565b600160a060020a0383166105c457600080fd5b6065546066546105e391600160a060020a0391821691339116846109cd565b6066546040518291600160a060020a0316907f2da466a7b24304f47e87fa2e1e5a81b9831ce54fec19055ce277ca2f39ba42c490600090a3505050565b60003361062e858285610a5b565b610639858585610aea565b60019150505b9392505050565b336000818152603460209081526040808320600160a060020a03871684529091528120549091906105a790829086906106809087906112e4565b61086f565b6104ab8282610d0a565b6000808080600160a060020a0385166106a757600080fd5b50600095869550859450849350915050565b6000600160a060020a0382166106ce57600080fd5b50600092915050565b60606037805461051690611290565b336000818152603460209081526040808320600160a060020a03871684529091528120549091908381101561078b5760405160e560020a62461bcd02815260206004820152602560248201527f45524332303a2064656372656173656420616c6c6f77616e63652062656c6f7760448201527f207a65726f00000000000000000000000000000000000000000000000000000060648201526084015b60405180910390fd5b610798828686840361086f565b506001949350505050565b6000336105a7818585610aea565b6066546040517f40c10f19000000000000000000000000000000000000000000000000000000008152600160a060020a03858116600483015260248201849052909116906340c10f1990604401600060405180830381600087803b15801561081857600080fd5b505af115801561082c573d6000803e3d6000fd5b5050606654604051849350600160a060020a0390911691507fb244b9a17ad633c6e83b7983ee04320484956a68ddbe96a0b70dfca1cf19d72390600090a3505050565b600160a060020a0383166108ed5760405160e560020a62461bcd028152602060048201526024808201527f45524332303a20617070726f76652066726f6d20746865207a65726f2061646460448201527f72657373000000000000000000000000000000000000000000000000000000006064820152608401610782565b600160a060020a03821661096c5760405160e560020a62461bcd02815260206004820152602260248201527f45524332303a20617070726f766520746f20746865207a65726f20616464726560448201527f73730000000000000000000000000000000000000000000000000000000000006064820152608401610782565b600160a060020a0383811660008181526034602090815260408083209487168084529482529182902085905590518481527f8c5be1e5ebec7d5bd14f71427d1e84f3dd0314c0f7b2291e5b200ac8c7c3b925910160405180910390a3505050565b60408051600160a060020a0385811660248301528416604482015260648082018490528251808303909101815260849091019091526020810180517bffffffffffffffffffffffffffffffffffffffffffffffffffffffff167f23b872dd00000000000000000000000000000000000000000000000000000000179052610a55908590610dec565b50505050565b600160a060020a038381166000908152603460209081526040808320938616835292905220546000198114610a555781811015610add5760405160e560020a62461bcd02815260206004820152601d60248201527f45524332303a20696e73756666696369656e7420616c6c6f77616e63650000006044820152606401610782565b610a55848484840361086f565b600160a060020a038316610b695760405160e560020a62461bcd02815260206004820152602560248201527f45524332303a207472616e736665722066726f6d20746865207a65726f20616460448201527f64726573730000000000000000000000000000000000000000000000000000006064820152608401610782565b600160a060020a038216610be85760405160e560020a62461bcd02815260206004820152602360248201527f45524332303a207472616e7366657220746f20746865207a65726f206164647260448201527f65737300000000000000000000000000000000000000000000000000000000006064820152608401610782565b600160a060020a03831660009081526033602052604090205481811015610c7a5760405160e560020a62461bcd02815260206004820152602660248201527f45524332303a207472616e7366657220616d6f756e742065786365656473206260448201527f616c616e636500000000000000000000000000000000000000000000000000006064820152608401610782565b600160a060020a03808516600090815260336020526040808220858503905591851681529081208054849290610cb19084906112e4565b9250508190555082600160a060020a031684600160a060020a03167fddf252ad1be2c89b69c2b068fc378daa952ba7f163c4a11628f55a4df523b3ef84604051610cfd91815260200190565b60405180910390a3610a55565b600160a060020a038216610d635760405160e560020a62461bcd02815260206004820152601f60248201527f45524332303a206d696e7420746f20746865207a65726f2061646472657373006044820152606401610782565b8060356000828254610d7591906112e4565b9091555050600160a060020a03821660009081526033602052604081208054839290610da29084906112e4565b9091555050604051818152600160a060020a038316906000907fddf252ad1be2c89b69c2b068fc378daa952ba7f163c4a11628f55a4df523b3ef9060200160405180910390a35050565b6000610e41826040518060400160405280602081526020017f5361666545524332303a206c6f772d6c6576656c2063616c6c206661696c656481525085600160a060020a0316610ed49092919063ffffffff16565b80519091501561030f5780806020019051810190610e5f9190611323565b61030f5760405160e560020a62461bcd02815260206004820152602a60248201527f5361666545524332303a204552433230206f7065726174696f6e20646964206e60448201527f6f742073756363656564000000000000000000000000000000000000000000006064820152608401610782565b6060610ee38484600085610eeb565b949350505050565b60603031831115610f675760405160e560020a62461bcd02815260206004820152602660248201527f416464726573733a20696e73756666696369656e742062616c616e636520666f60448201527f722063616c6c00000000000000000000000000000000000000000000000000006064820152608401610782565b600160a060020a0385163b610fc15760405160e560020a62461bcd02815260206004820152601d60248201527f416464726573733a2063616c6c20746f206e6f6e2d636f6e74726163740000006044820152606401610782565b60008086600160a060020a03168587604051610fdd9190611340565b60006040518083038185875af1925050503d806000811461101a576040519150601f19603f3d011682016040523d82523d6000602084013e61101f565b606091505b509150915061102f82828661103a565b979650505050505050565b6060831561104957508161063f565b8251156110595782518084602001fd5b8160405160e560020a62461bcd02815260040161078291906110a2565b60005b83811015611091578181015183820152602001611079565b83811115610a555750506000910152565b60208152600082518060208401526110c1816040850160208701611076565b601f01601f19169190910160400192915050565b8035600160a060020a03811681146110ec57600080fd5b919050565b6000806040838503121561110457600080fd5b61110d836110d5565b946020939093013593505050565b60008060006060848603121561113057600080fd5b611139846110d5565b95602085013595506040909401359392505050565b60006020828403121561116057600080fd5b5035919050565b60008060006060848603121561117c57600080fd5b611185846110d5565b9250611193602085016110d5565b9150604084013590509250925092565b801515811461035f57600080fd5b6000806000606084860312156111c657600080fd5b833592506020840135915060408401356111df816111a3565b809150509250925092565b6000602082840312156111fc57600080fd5b61063f826110d5565b60008060006060848603121561121a57600080fd5b8335925061122a602085016110d5565b915060408401356111df816111a3565b6000806040838503121561124d57600080fd5b8235915061125d602084016110d5565b90509250929050565b6000806040838503121561127957600080fd5b611282836110d5565b915061125d602084016110d5565b6002810460018216806112a457607f821691505b602082108114156112de577f4e487b7100000000000000000000000000000000000000000000000000000000600052602260045260246000fd5b50919050565b6000821982111561131e577f4e487b7100000000000000000000000000000000000000000000000000000000600052601160045260246000fd5b500190565b60006020828403121561133557600080fd5b815161063f816111a3565b60008251611352818460208701611076565b919091019291505056fea2646970667358221220f4a37f469934bce8d91ed4cf9657c9d383d551ce385af8245269b1fad47dcd1264736f6c634300080a0033",
  "immutableReferences": {},
  "source": "// SPDX-License-Identifier: MIT\n\npragma solidity ^0.8.0;\n\nimport \"../VaultAlpaca.sol\";\n\nimport \"../../tokens/mocks/MockToken.sol\";\n\nimport \"../../interfaces/Alpaca/IAlpacaFairLaunch.sol\";\n\nimport \"../../interfaces/Alpaca/IAlpacaVault.sol\";\n\ncontract MockVaultAlpaca is VaultAlpaca {\n    function unfarm(uint256 _wantAmt) public {\n        _unfarm(_wantAmt);\n    }\n}\n\ncontract MockAlpacaVault is IAlpacaVault, MockERC20Upgradeable {\n    using SafeERC20Upgradeable for IERC20Upgradeable;\n\n    event AddedLiquidity(uint256 _amount, uint256 _liquidity);\n    event RemovedLiquidity(uint256 _amount);\n\n    address public token0;\n    address public burnAddress;\n    uint256 private _dummy;\n\n    function setToken0Address(address _token) public {\n        token0 = _token;\n    }\n\n    function setBurnAddress(address _burn) public {\n        burnAddress = _burn;\n    }\n\n    function totalToken() external view returns (uint256) {\n        require(_dummy>=0);\n        return 0;\n    }\n\n    function deposit(uint256 _amount) public payable {\n        IERC20Upgradeable(token0).safeTransferFrom(\n            msg.sender,\n            address(this),\n            _amount\n        );\n        uint256 _liquidity = 1 ether; // Hard code for tests\n        _mint(msg.sender, _liquidity);\n        emit AddedLiquidity(_amount, _liquidity);\n    }\n\n    function withdraw(uint256 _shares) public {\n        IERC20Upgradeable(address(this)).safeTransferFrom(\n            msg.sender,\n            burnAddress,\n            _shares\n        );\n        uint256 _withdrawalAmt = 2 ether; // Hard code for tests\n        IMockERC20Upgradeable(token0).mint(msg.sender, _withdrawalAmt);\n        emit RemovedLiquidity(_withdrawalAmt);\n    }\n\n    function requestFunds(address targetedToken, uint256 amount) external {}\n\n    function token() external view returns (address) {\n        require(_dummy>=0);\n        return address(0);\n    }\n}\n\ncontract MockAlpacaFarm is IFairLaunch, MockERC20Upgradeable {\n    using SafeERC20Upgradeable for IERC20Upgradeable;\n\n    event Deposited(address indexed _want, uint256 indexed _amount);\n    event Withdrew(address indexed _want, uint256 indexed _amount);\n\n    address public burnAddress;\n    address public wantToken;\n    uint256 private _dummy;\n\n    function setWantAddress(address _wantToken) public {\n        wantToken = _wantToken;\n    }\n\n    function setBurnAddress(address _burnAddress) public {\n        burnAddress = _burnAddress;\n    }\n\n    function poolLength() external view returns (uint256) {\n        require(_dummy>=0);\n        return 0;\n    }\n\n    function addPool(\n        uint256 _allocPoint,\n        address _stakeToken,\n        bool _withUpdate\n    ) external {}\n\n    function setPool(\n        uint256 _pid,\n        uint256 _allocPoint,\n        bool _withUpdate\n    ) external {}\n\n    function pendingAlpaca(uint256 _pid, address _user)\n        external\n        view\n        returns (uint256)\n    {\n        require(_dummy>=0);\n        require(_pid>=0);\n        require(_user != address(0));\n        return 0;\n    }\n\n    function updatePool(uint256 _pid) external {}\n\n    function deposit(\n        address _for,\n        uint256 _pid,\n        uint256 _amount\n    ) public {\n        require(_for != address(0));\n        require(_pid>=0);\n        IERC20Upgradeable(wantToken).safeTransferFrom(\n            msg.sender,\n            burnAddress,\n            _amount\n        );\n        emit Deposited(wantToken, _amount);\n    }\n\n    function withdraw(\n        address _for,\n        uint256 _pid,\n        uint256 _amount\n    ) public {\n        require(_pid>=0);\n        IMockERC20Upgradeable(wantToken).mint(_for, _amount);\n        emit Withdrew(wantToken, _amount);\n    }\n\n    function withdrawAll(address _for, uint256 _pid) external {}\n\n  function harvest(uint256 _pid) external {}\n\n  function getFairLaunchPoolId() external returns (uint256) {\n    require(_dummy>=0);\n    _dummy = 1;\n    return 0;\n  }\n\n  function poolInfo(uint256 _pid)\n    external\n    view\n    returns (\n      address,\n      uint256,\n      uint256,\n      uint256,\n      uint256\n    ) {\n        require(_pid>=0);\n        require(_dummy>=0);\n        return (address(0), 0, 0, 0, 0);\n    }\n\n  function alpaca() external returns (address) {\n    _dummy = 1;\n    return address(0);\n  }\n\n  function userInfo(uint256 _pid, address _user)\n    external\n    view\n    returns (\n      uint256,\n      uint256,\n      uint256,\n      address\n    ) {\n        require(_dummy>=0);\n        require(_pid>=0);\n        require(_user != address(0));\n        return (0, 0, 0, address(0));\n    }\n\n  function emergencyWithdraw(uint256 _pid) external {}\n}\n\ncontract MockBUSD is MockERC20Upgradeable {}\n\ncontract MockAlpaca is MockERC20Upgradeable {}\n",
  "sourcePath": "/Users/kristophm/Documents/workspace/zorro-protocol/contracts/vaults/mocks/MockVaultAlpaca.sol",
  "compiler": {
    "name": "solc",
    "version": "0.8.10+commit.fc410830.Emscripten.clang"
  },
  "schemaVersion": "3.4.10",
  "updatedAt": "2022-12-08T13:57:32.130Z",
  "devdoc": {
    "kind": "dev",
    "methods": {
      "allowance(address,address)": {
        "details": "See {IERC20-allowance}."
      },
      "approve(address,uint256)": {
        "details": "See {IERC20-approve}. NOTE: If `amount` is the maximum `uint256`, the allowance is not updated on `transferFrom`. This is semantically equivalent to an infinite approval. Requirements: - `spender` cannot be the zero address."
      },
      "balanceOf(address)": {
        "details": "See {IERC20-balanceOf}."
      },
      "decimals()": {
        "details": "Returns the number of decimals used to get its user representation. For example, if `decimals` equals `2`, a balance of `505` tokens should be displayed to a user as `5.05` (`505 / 10 ** 2`). Tokens usually opt for a value of 18, imitating the relationship between Ether and Wei. This is the value {ERC20} uses, unless this function is overridden; NOTE: This information is only used for _display_ purposes: it in no way affects any of the arithmetic of the contract, including {IERC20-balanceOf} and {IERC20-transfer}."
      },
      "decreaseAllowance(address,uint256)": {
        "details": "Atomically decreases the allowance granted to `spender` by the caller. This is an alternative to {approve} that can be used as a mitigation for problems described in {IERC20-approve}. Emits an {Approval} event indicating the updated allowance. Requirements: - `spender` cannot be the zero address. - `spender` must have allowance for the caller of at least `subtractedValue`."
      },
      "increaseAllowance(address,uint256)": {
        "details": "Atomically increases the allowance granted to `spender` by the caller. This is an alternative to {approve} that can be used as a mitigation for problems described in {IERC20-approve}. Emits an {Approval} event indicating the updated allowance. Requirements: - `spender` cannot be the zero address."
      },
      "name()": {
        "details": "Returns the name of the token."
      },
      "symbol()": {
        "details": "Returns the symbol of the token, usually a shorter version of the name."
      },
      "totalSupply()": {
        "details": "See {IERC20-totalSupply}."
      },
      "transfer(address,uint256)": {
        "details": "See {IERC20-transfer}. Requirements: - `to` cannot be the zero address. - the caller must have a balance of at least `amount`."
      },
      "transferFrom(address,address,uint256)": {
        "details": "See {IERC20-transferFrom}. Emits an {Approval} event indicating the updated allowance. This is not required by the EIP. See the note at the beginning of {ERC20}. NOTE: Does not update the allowance if the current allowance is the maximum `uint256`. Requirements: - `from` and `to` cannot be the zero address. - `from` must have a balance of at least `amount`. - the caller must have allowance for ``from``'s tokens of at least `amount`."
      }
    },
    "version": 1
  },
  "userdoc": {
    "kind": "user",
    "methods": {},
    "version": 1
  }
}