{
  "contractName": "MockVaultStandardAMM",
  "abi": [
    {
      "anonymous": false,
      "inputs": [
        {
          "indexed": true,
          "internalType": "uint256",
          "name": "_amount",
          "type": "uint256"
        }
      ],
      "name": "Buyback",
      "type": "event"
    },
    {
      "anonymous": false,
      "inputs": [
        {
          "indexed": true,
          "internalType": "address",
          "name": "previousOwner",
          "type": "address"
        },
        {
          "indexed": true,
          "internalType": "address",
          "name": "newOwner",
          "type": "address"
        }
      ],
      "name": "OwnershipTransferred",
      "type": "event"
    },
    {
      "anonymous": false,
      "inputs": [
        {
          "indexed": false,
          "internalType": "address",
          "name": "account",
          "type": "address"
        }
      ],
      "name": "Paused",
      "type": "event"
    },
    {
      "anonymous": false,
      "inputs": [
        {
          "indexed": true,
          "internalType": "uint256",
          "name": "_amount",
          "type": "uint256"
        }
      ],
      "name": "RevShare",
      "type": "event"
    },
    {
      "anonymous": false,
      "inputs": [
        {
          "indexed": false,
          "internalType": "address",
          "name": "_govAddress",
          "type": "address"
        }
      ],
      "name": "SetGov",
      "type": "event"
    },
    {
      "anonymous": false,
      "inputs": [
        {
          "indexed": false,
          "internalType": "bool",
          "name": "_onlyGov",
          "type": "bool"
        }
      ],
      "name": "SetOnlyGov",
      "type": "event"
    },
    {
      "anonymous": false,
      "inputs": [
        {
          "indexed": false,
          "internalType": "address",
          "name": "_rewardsAddress",
          "type": "address"
        }
      ],
      "name": "SetRewardsAddress",
      "type": "event"
    },
    {
      "anonymous": false,
      "inputs": [
        {
          "indexed": false,
          "internalType": "uint256",
          "name": "_entranceFeeFactor",
          "type": "uint256"
        },
        {
          "indexed": false,
          "internalType": "uint256",
          "name": "_withdrawFeeFactor",
          "type": "uint256"
        },
        {
          "indexed": false,
          "internalType": "uint256",
          "name": "_controllerFee",
          "type": "uint256"
        },
        {
          "indexed": false,
          "internalType": "uint256",
          "name": "_buyBackRate",
          "type": "uint256"
        },
        {
          "indexed": false,
          "internalType": "uint256",
          "name": "_revShareRate",
          "type": "uint256"
        }
      ],
      "name": "SetSettings",
      "type": "event"
    },
    {
      "anonymous": false,
      "inputs": [
        {
          "indexed": false,
          "internalType": "address",
          "name": "_uniRouterAddress",
          "type": "address"
        }
      ],
      "name": "SetUniRouterAddress",
      "type": "event"
    },
    {
      "anonymous": false,
      "inputs": [
        {
          "indexed": false,
          "internalType": "address",
          "name": "account",
          "type": "address"
        }
      ],
      "name": "Unpaused",
      "type": "event"
    },
    {
      "inputs": [],
      "name": "ZORPriceFeed",
      "outputs": [
        {
          "internalType": "contract AggregatorV3Interface",
          "name": "",
          "type": "address"
        }
      ],
      "stateMutability": "view",
      "type": "function"
    },
    {
      "inputs": [],
      "name": "ZORROAddress",
      "outputs": [
        {
          "internalType": "address",
          "name": "",
          "type": "address"
        }
      ],
      "stateMutability": "view",
      "type": "function"
    },
    {
      "inputs": [],
      "name": "burnAddress",
      "outputs": [
        {
          "internalType": "address",
          "name": "",
          "type": "address"
        }
      ],
      "stateMutability": "view",
      "type": "function"
    },
    {
      "inputs": [],
      "name": "buyBackRate",
      "outputs": [
        {
          "internalType": "uint256",
          "name": "",
          "type": "uint256"
        }
      ],
      "stateMutability": "view",
      "type": "function"
    },
    {
      "inputs": [],
      "name": "buyBackRateMax",
      "outputs": [
        {
          "internalType": "uint256",
          "name": "",
          "type": "uint256"
        }
      ],
      "stateMutability": "view",
      "type": "function"
    },
    {
      "inputs": [],
      "name": "buyBackRateUL",
      "outputs": [
        {
          "internalType": "uint256",
          "name": "",
          "type": "uint256"
        }
      ],
      "stateMutability": "view",
      "type": "function"
    },
    {
      "inputs": [],
      "name": "controllerFee",
      "outputs": [
        {
          "internalType": "uint256",
          "name": "",
          "type": "uint256"
        }
      ],
      "stateMutability": "view",
      "type": "function"
    },
    {
      "inputs": [],
      "name": "controllerFeeMax",
      "outputs": [
        {
          "internalType": "uint256",
          "name": "",
          "type": "uint256"
        }
      ],
      "stateMutability": "view",
      "type": "function"
    },
    {
      "inputs": [],
      "name": "controllerFeeUL",
      "outputs": [
        {
          "internalType": "uint256",
          "name": "",
          "type": "uint256"
        }
      ],
      "stateMutability": "view",
      "type": "function"
    },
    {
      "inputs": [],
      "name": "defaultStablecoin",
      "outputs": [
        {
          "internalType": "address",
          "name": "",
          "type": "address"
        }
      ],
      "stateMutability": "view",
      "type": "function"
    },
    {
      "inputs": [
        {
          "internalType": "uint256",
          "name": "_wantAmt",
          "type": "uint256"
        }
      ],
      "name": "depositWantToken",
      "outputs": [
        {
          "internalType": "uint256",
          "name": "sharesAdded",
          "type": "uint256"
        }
      ],
      "stateMutability": "nonpayable",
      "type": "function"
    },
    {
      "inputs": [
        {
          "internalType": "uint256",
          "name": "_maxMarketMovementAllowed",
          "type": "uint256"
        }
      ],
      "name": "earn",
      "outputs": [],
      "stateMutability": "nonpayable",
      "type": "function"
    },
    {
      "inputs": [],
      "name": "earnTokenPriceFeed",
      "outputs": [
        {
          "internalType": "contract AggregatorV3Interface",
          "name": "",
          "type": "address"
        }
      ],
      "stateMutability": "view",
      "type": "function"
    },
    {
      "inputs": [],
      "name": "earnedAddress",
      "outputs": [
        {
          "internalType": "address",
          "name": "",
          "type": "address"
        }
      ],
      "stateMutability": "view",
      "type": "function"
    },
    {
      "inputs": [
        {
          "internalType": "uint256",
          "name": "",
          "type": "uint256"
        }
      ],
      "name": "earnedToStablecoinPath",
      "outputs": [
        {
          "internalType": "address",
          "name": "",
          "type": "address"
        }
      ],
      "stateMutability": "view",
      "type": "function"
    },
    {
      "inputs": [
        {
          "internalType": "uint256",
          "name": "",
          "type": "uint256"
        }
      ],
      "name": "earnedToToken0Path",
      "outputs": [
        {
          "internalType": "address",
          "name": "",
          "type": "address"
        }
      ],
      "stateMutability": "view",
      "type": "function"
    },
    {
      "inputs": [
        {
          "internalType": "uint256",
          "name": "",
          "type": "uint256"
        }
      ],
      "name": "earnedToToken1Path",
      "outputs": [
        {
          "internalType": "address",
          "name": "",
          "type": "address"
        }
      ],
      "stateMutability": "view",
      "type": "function"
    },
    {
      "inputs": [
        {
          "internalType": "uint256",
          "name": "",
          "type": "uint256"
        }
      ],
      "name": "earnedToZORLPPoolOtherTokenPath",
      "outputs": [
        {
          "internalType": "address",
          "name": "",
          "type": "address"
        }
      ],
      "stateMutability": "view",
      "type": "function"
    },
    {
      "inputs": [
        {
          "internalType": "uint256",
          "name": "",
          "type": "uint256"
        }
      ],
      "name": "earnedToZORROPath",
      "outputs": [
        {
          "internalType": "address",
          "name": "",
          "type": "address"
        }
      ],
      "stateMutability": "view",
      "type": "function"
    },
    {
      "inputs": [],
      "name": "entranceFeeFactor",
      "outputs": [
        {
          "internalType": "uint256",
          "name": "",
          "type": "uint256"
        }
      ],
      "stateMutability": "view",
      "type": "function"
    },
    {
      "inputs": [],
      "name": "entranceFeeFactorLL",
      "outputs": [
        {
          "internalType": "uint256",
          "name": "",
          "type": "uint256"
        }
      ],
      "stateMutability": "view",
      "type": "function"
    },
    {
      "inputs": [],
      "name": "entranceFeeFactorMax",
      "outputs": [
        {
          "internalType": "uint256",
          "name": "",
          "type": "uint256"
        }
      ],
      "stateMutability": "view",
      "type": "function"
    },
    {
      "inputs": [
        {
          "internalType": "uint256",
          "name": "_amountUSD",
          "type": "uint256"
        },
        {
          "internalType": "uint256",
          "name": "_maxMarketMovementAllowed",
          "type": "uint256"
        }
      ],
      "name": "exchangeUSDForWantToken",
      "outputs": [
        {
          "internalType": "uint256",
          "name": "",
          "type": "uint256"
        }
      ],
      "stateMutability": "nonpayable",
      "type": "function"
    },
    {
      "inputs": [
        {
          "internalType": "uint256",
          "name": "_amount",
          "type": "uint256"
        },
        {
          "internalType": "uint256",
          "name": "_maxMarketMovementAllowed",
          "type": "uint256"
        }
      ],
      "name": "exchangeWantTokenForUSD",
      "outputs": [
        {
          "internalType": "uint256",
          "name": "",
          "type": "uint256"
        }
      ],
      "stateMutability": "nonpayable",
      "type": "function"
    },
    {
      "inputs": [],
      "name": "farm",
      "outputs": [],
      "stateMutability": "nonpayable",
      "type": "function"
    },
    {
      "inputs": [],
      "name": "farmContractAddress",
      "outputs": [
        {
          "internalType": "address",
          "name": "",
          "type": "address"
        }
      ],
      "stateMutability": "view",
      "type": "function"
    },
    {
      "inputs": [],
      "name": "govAddress",
      "outputs": [
        {
          "internalType": "address",
          "name": "",
          "type": "address"
        }
      ],
      "stateMutability": "view",
      "type": "function"
    },
    {
      "inputs": [
        {
          "internalType": "address",
          "name": "_token",
          "type": "address"
        },
        {
          "internalType": "uint256",
          "name": "_amount",
          "type": "uint256"
        },
        {
          "internalType": "address",
          "name": "_to",
          "type": "address"
        }
      ],
      "name": "inCaseTokensGetStuck",
      "outputs": [],
      "stateMutability": "nonpayable",
      "type": "function"
    },
    {
      "inputs": [
        {
          "internalType": "address",
          "name": "_timelockOwner",
          "type": "address"
        },
        {
          "components": [
            {
              "internalType": "uint256",
              "name": "pid",
              "type": "uint256"
            },
            {
              "internalType": "bool",
              "name": "isHomeChain",
              "type": "bool"
            },
            {
              "internalType": "bool",
              "name": "isFarmable",
              "type": "bool"
            },
            {
              "components": [
                {
                  "internalType": "address",
                  "name": "govAddress",
                  "type": "address"
                },
                {
                  "internalType": "address",
                  "name": "zorroControllerAddress",
                  "type": "address"
                },
                {
                  "internalType": "address",
                  "name": "zorroXChainController",
                  "type": "address"
                },
                {
                  "internalType": "address",
                  "name": "ZORROAddress",
                  "type": "address"
                },
                {
                  "internalType": "address",
                  "name": "zorroStakingVault",
                  "type": "address"
                },
                {
                  "internalType": "address",
                  "name": "wantAddress",
                  "type": "address"
                },
                {
                  "internalType": "address",
                  "name": "token0Address",
                  "type": "address"
                },
                {
                  "internalType": "address",
                  "name": "token1Address",
                  "type": "address"
                },
                {
                  "internalType": "address",
                  "name": "earnedAddress",
                  "type": "address"
                },
                {
                  "internalType": "address",
                  "name": "farmContractAddress",
                  "type": "address"
                },
                {
                  "internalType": "address",
                  "name": "rewardsAddress",
                  "type": "address"
                },
                {
                  "internalType": "address",
                  "name": "poolAddress",
                  "type": "address"
                },
                {
                  "internalType": "address",
                  "name": "uniRouterAddress",
                  "type": "address"
                },
                {
                  "internalType": "address",
                  "name": "zorroLPPool",
                  "type": "address"
                },
                {
                  "internalType": "address",
                  "name": "zorroLPPoolOtherToken",
                  "type": "address"
                },
                {
                  "internalType": "address",
                  "name": "defaultStablecoin",
                  "type": "address"
                }
              ],
              "internalType": "struct VaultLibrary.VaultAddresses",
              "name": "keyAddresses",
              "type": "tuple"
            },
            {
              "internalType": "address[]",
              "name": "earnedToZORROPath",
              "type": "address[]"
            },
            {
              "internalType": "address[]",
              "name": "earnedToToken0Path",
              "type": "address[]"
            },
            {
              "internalType": "address[]",
              "name": "earnedToToken1Path",
              "type": "address[]"
            },
            {
              "internalType": "address[]",
              "name": "stablecoinToToken0Path",
              "type": "address[]"
            },
            {
              "internalType": "address[]",
              "name": "stablecoinToToken1Path",
              "type": "address[]"
            },
            {
              "internalType": "address[]",
              "name": "earnedToZORLPPoolOtherTokenPath",
              "type": "address[]"
            },
            {
              "internalType": "address[]",
              "name": "earnedToStablecoinPath",
              "type": "address[]"
            },
            {
              "components": [
                {
                  "internalType": "uint256",
                  "name": "controllerFee",
                  "type": "uint256"
                },
                {
                  "internalType": "uint256",
                  "name": "buyBackRate",
                  "type": "uint256"
                },
                {
                  "internalType": "uint256",
                  "name": "revShareRate",
                  "type": "uint256"
                },
                {
                  "internalType": "uint256",
                  "name": "entranceFeeFactor",
                  "type": "uint256"
                },
                {
                  "internalType": "uint256",
                  "name": "withdrawFeeFactor",
                  "type": "uint256"
                }
              ],
              "internalType": "struct VaultLibrary.VaultFees",
              "name": "fees",
              "type": "tuple"
            },
            {
              "components": [
                {
                  "internalType": "address",
                  "name": "token0PriceFeed",
                  "type": "address"
                },
                {
                  "internalType": "address",
                  "name": "token1PriceFeed",
                  "type": "address"
                },
                {
                  "internalType": "address",
                  "name": "earnTokenPriceFeed",
                  "type": "address"
                },
                {
                  "internalType": "address",
                  "name": "ZORPriceFeed",
                  "type": "address"
                },
                {
                  "internalType": "address",
                  "name": "lpPoolOtherTokenPriceFeed",
                  "type": "address"
                },
                {
                  "internalType": "address",
                  "name": "stablecoinPriceFeed",
                  "type": "address"
                }
              ],
              "internalType": "struct VaultLibrary.VaultPriceFeeds",
              "name": "priceFeeds",
              "type": "tuple"
            }
          ],
          "internalType": "struct VaultStandardAMM.VaultStandardAMMInit",
          "name": "_initValue",
          "type": "tuple"
        }
      ],
      "name": "initialize",
      "outputs": [],
      "stateMutability": "nonpayable",
      "type": "function"
    },
    {
      "inputs": [
        {
          "internalType": "address",
          "name": "_timelockOwner",
          "type": "address"
        }
      ],
      "name": "initialize",
      "outputs": [],
      "stateMutability": "nonpayable",
      "type": "function"
    },
    {
      "inputs": [],
      "name": "isFarmable",
      "outputs": [
        {
          "internalType": "bool",
          "name": "",
          "type": "bool"
        }
      ],
      "stateMutability": "view",
      "type": "function"
    },
    {
      "inputs": [],
      "name": "isHomeChain",
      "outputs": [
        {
          "internalType": "bool",
          "name": "",
          "type": "bool"
        }
      ],
      "stateMutability": "view",
      "type": "function"
    },
    {
      "inputs": [],
      "name": "lastEarnBlock",
      "outputs": [
        {
          "internalType": "uint256",
          "name": "",
          "type": "uint256"
        }
      ],
      "stateMutability": "view",
      "type": "function"
    },
    {
      "inputs": [],
      "name": "lpPoolOtherTokenPriceFeed",
      "outputs": [
        {
          "internalType": "contract AggregatorV3Interface",
          "name": "",
          "type": "address"
        }
      ],
      "stateMutability": "view",
      "type": "function"
    },
    {
      "inputs": [],
      "name": "maxMarketMovementAllowed",
      "outputs": [
        {
          "internalType": "uint256",
          "name": "",
          "type": "uint256"
        }
      ],
      "stateMutability": "view",
      "type": "function"
    },
    {
      "inputs": [],
      "name": "onlyGov",
      "outputs": [
        {
          "internalType": "bool",
          "name": "",
          "type": "bool"
        }
      ],
      "stateMutability": "view",
      "type": "function"
    },
    {
      "inputs": [],
      "name": "owner",
      "outputs": [
        {
          "internalType": "address",
          "name": "",
          "type": "address"
        }
      ],
      "stateMutability": "view",
      "type": "function"
    },
    {
      "inputs": [],
      "name": "pause",
      "outputs": [],
      "stateMutability": "nonpayable",
      "type": "function"
    },
    {
      "inputs": [],
      "name": "paused",
      "outputs": [
        {
          "internalType": "bool",
          "name": "",
          "type": "bool"
        }
      ],
      "stateMutability": "view",
      "type": "function"
    },
    {
      "inputs": [],
      "name": "pid",
      "outputs": [
        {
          "internalType": "uint256",
          "name": "",
          "type": "uint256"
        }
      ],
      "stateMutability": "view",
      "type": "function"
    },
    {
      "inputs": [],
      "name": "poolAddress",
      "outputs": [
        {
          "internalType": "address",
          "name": "",
          "type": "address"
        }
      ],
      "stateMutability": "view",
      "type": "function"
    },
    {
      "inputs": [],
      "name": "renounceOwnership",
      "outputs": [],
      "stateMutability": "nonpayable",
      "type": "function"
    },
    {
      "inputs": [],
      "name": "revShareRate",
      "outputs": [
        {
          "internalType": "uint256",
          "name": "",
          "type": "uint256"
        }
      ],
      "stateMutability": "view",
      "type": "function"
    },
    {
      "inputs": [],
      "name": "revShareRateMax",
      "outputs": [
        {
          "internalType": "uint256",
          "name": "",
          "type": "uint256"
        }
      ],
      "stateMutability": "view",
      "type": "function"
    },
    {
      "inputs": [],
      "name": "revShareRateUL",
      "outputs": [
        {
          "internalType": "uint256",
          "name": "",
          "type": "uint256"
        }
      ],
      "stateMutability": "view",
      "type": "function"
    },
    {
      "inputs": [],
      "name": "rewardsAddress",
      "outputs": [
        {
          "internalType": "address",
          "name": "",
          "type": "address"
        }
      ],
      "stateMutability": "view",
      "type": "function"
    },
    {
      "inputs": [
        {
          "internalType": "address",
          "name": "_burnAddress",
          "type": "address"
        }
      ],
      "name": "setBurnAddress",
      "outputs": [],
      "stateMutability": "nonpayable",
      "type": "function"
    },
    {
      "inputs": [
        {
          "internalType": "address",
          "name": "_defaultStablecoin",
          "type": "address"
        }
      ],
      "name": "setDefaultStablecoin",
      "outputs": [],
      "stateMutability": "nonpayable",
      "type": "function"
    },
    {
      "inputs": [
        {
          "internalType": "address",
          "name": "_earnedAddress",
          "type": "address"
        }
      ],
      "name": "setEarnedAddress",
      "outputs": [],
      "stateMutability": "nonpayable",
      "type": "function"
    },
    {
      "inputs": [
        {
          "internalType": "address",
          "name": "_farmContractAddress",
          "type": "address"
        }
      ],
      "name": "setFarmContractAddress",
      "outputs": [],
      "stateMutability": "nonpayable",
      "type": "function"
    },
    {
      "inputs": [
        {
          "internalType": "uint256",
          "name": "_entranceFeeFactor",
          "type": "uint256"
        },
        {
          "internalType": "uint256",
          "name": "_withdrawFeeFactor",
          "type": "uint256"
        },
        {
          "internalType": "uint256",
          "name": "_controllerFee",
          "type": "uint256"
        },
        {
          "internalType": "uint256",
          "name": "_buyBackRate",
          "type": "uint256"
        },
        {
          "internalType": "uint256",
          "name": "_revShareRate",
          "type": "uint256"
        }
      ],
      "name": "setFeeSettings",
      "outputs": [],
      "stateMutability": "nonpayable",
      "type": "function"
    },
    {
      "inputs": [
        {
          "internalType": "address",
          "name": "_govAddress",
          "type": "address"
        }
      ],
      "name": "setGov",
      "outputs": [],
      "stateMutability": "nonpayable",
      "type": "function"
    },
    {
      "inputs": [
        {
          "internalType": "bool",
          "name": "_isFarmable",
          "type": "bool"
        }
      ],
      "name": "setIsFarmable",
      "outputs": [],
      "stateMutability": "nonpayable",
      "type": "function"
    },
    {
      "inputs": [
        {
          "internalType": "uint256",
          "name": "_slippageNumerator",
          "type": "uint256"
        }
      ],
      "name": "setMaxMarketMovementAllowed",
      "outputs": [],
      "stateMutability": "nonpayable",
      "type": "function"
    },
    {
      "inputs": [
        {
          "internalType": "bool",
          "name": "_onlyGov",
          "type": "bool"
        }
      ],
      "name": "setOnlyGov",
      "outputs": [],
      "stateMutability": "nonpayable",
      "type": "function"
    },
    {
      "inputs": [
        {
          "internalType": "uint256",
          "name": "_pid",
          "type": "uint256"
        }
      ],
      "name": "setPid",
      "outputs": [],
      "stateMutability": "nonpayable",
      "type": "function"
    },
    {
      "inputs": [
        {
          "internalType": "address",
          "name": "_poolAddress",
          "type": "address"
        }
      ],
      "name": "setPoolAddress",
      "outputs": [],
      "stateMutability": "nonpayable",
      "type": "function"
    },
    {
      "inputs": [
        {
          "internalType": "uint8",
          "name": "_idx",
          "type": "uint8"
        },
        {
          "internalType": "address",
          "name": "_priceFeed",
          "type": "address"
        }
      ],
      "name": "setPriceFeed",
      "outputs": [],
      "stateMutability": "nonpayable",
      "type": "function"
    },
    {
      "inputs": [
        {
          "internalType": "address",
          "name": "_rewardsAddress",
          "type": "address"
        }
      ],
      "name": "setRewardsAddress",
      "outputs": [],
      "stateMutability": "nonpayable",
      "type": "function"
    },
    {
      "inputs": [
        {
          "internalType": "uint8",
          "name": "_idx",
          "type": "uint8"
        },
        {
          "internalType": "address[]",
          "name": "_path",
          "type": "address[]"
        }
      ],
      "name": "setSwapPaths",
      "outputs": [],
      "stateMutability": "nonpayable",
      "type": "function"
    },
    {
      "inputs": [
        {
          "internalType": "address",
          "name": "_token0Address",
          "type": "address"
        }
      ],
      "name": "setToken0Address",
      "outputs": [],
      "stateMutability": "nonpayable",
      "type": "function"
    },
    {
      "inputs": [
        {
          "internalType": "address",
          "name": "_token1Address",
          "type": "address"
        }
      ],
      "name": "setToken1Address",
      "outputs": [],
      "stateMutability": "nonpayable",
      "type": "function"
    },
    {
      "inputs": [
        {
          "internalType": "address",
          "name": "_uniRouterAddress",
          "type": "address"
        }
      ],
      "name": "setUniRouterAddress",
      "outputs": [],
      "stateMutability": "nonpayable",
      "type": "function"
    },
    {
      "inputs": [
        {
          "internalType": "address",
          "name": "_wantAddress",
          "type": "address"
        }
      ],
      "name": "setWantAddress",
      "outputs": [],
      "stateMutability": "nonpayable",
      "type": "function"
    },
    {
      "inputs": [
        {
          "internalType": "address",
          "name": "_ZORROAddress",
          "type": "address"
        }
      ],
      "name": "setZORROAddress",
      "outputs": [],
      "stateMutability": "nonpayable",
      "type": "function"
    },
    {
      "inputs": [
        {
          "internalType": "address",
          "name": "_zorroControllerAddress",
          "type": "address"
        }
      ],
      "name": "setZorroControllerAddress",
      "outputs": [],
      "stateMutability": "nonpayable",
      "type": "function"
    },
    {
      "inputs": [
        {
          "internalType": "address",
          "name": "_poolAddress",
          "type": "address"
        }
      ],
      "name": "setZorroLPPoolAddress",
      "outputs": [],
      "stateMutability": "nonpayable",
      "type": "function"
    },
    {
      "inputs": [
        {
          "internalType": "address",
          "name": "_otherToken",
          "type": "address"
        }
      ],
      "name": "setZorroLPPoolOtherToken",
      "outputs": [],
      "stateMutability": "nonpayable",
      "type": "function"
    },
    {
      "inputs": [
        {
          "internalType": "address",
          "name": "_stakingVault",
          "type": "address"
        }
      ],
      "name": "setZorroStakingVault",
      "outputs": [],
      "stateMutability": "nonpayable",
      "type": "function"
    },
    {
      "inputs": [
        {
          "internalType": "address",
          "name": "_zorroXChainController",
          "type": "address"
        }
      ],
      "name": "setZorroXChainControllerAddress",
      "outputs": [],
      "stateMutability": "nonpayable",
      "type": "function"
    },
    {
      "inputs": [],
      "name": "sharesTotal",
      "outputs": [
        {
          "internalType": "uint256",
          "name": "",
          "type": "uint256"
        }
      ],
      "stateMutability": "view",
      "type": "function"
    },
    {
      "inputs": [],
      "name": "stablecoinPriceFeed",
      "outputs": [
        {
          "internalType": "contract AggregatorV3Interface",
          "name": "",
          "type": "address"
        }
      ],
      "stateMutability": "view",
      "type": "function"
    },
    {
      "inputs": [
        {
          "internalType": "uint256",
          "name": "",
          "type": "uint256"
        }
      ],
      "name": "stablecoinToToken0Path",
      "outputs": [
        {
          "internalType": "address",
          "name": "",
          "type": "address"
        }
      ],
      "stateMutability": "view",
      "type": "function"
    },
    {
      "inputs": [
        {
          "internalType": "uint256",
          "name": "",
          "type": "uint256"
        }
      ],
      "name": "stablecoinToToken1Path",
      "outputs": [
        {
          "internalType": "address",
          "name": "",
          "type": "address"
        }
      ],
      "stateMutability": "view",
      "type": "function"
    },
    {
      "inputs": [],
      "name": "token0Address",
      "outputs": [
        {
          "internalType": "address",
          "name": "",
          "type": "address"
        }
      ],
      "stateMutability": "view",
      "type": "function"
    },
    {
      "inputs": [],
      "name": "token0PriceFeed",
      "outputs": [
        {
          "internalType": "contract AggregatorV3Interface",
          "name": "",
          "type": "address"
        }
      ],
      "stateMutability": "view",
      "type": "function"
    },
    {
      "inputs": [
        {
          "internalType": "uint256",
          "name": "",
          "type": "uint256"
        }
      ],
      "name": "token0ToStablecoinPath",
      "outputs": [
        {
          "internalType": "address",
          "name": "",
          "type": "address"
        }
      ],
      "stateMutability": "view",
      "type": "function"
    },
    {
      "inputs": [],
      "name": "token1Address",
      "outputs": [
        {
          "internalType": "address",
          "name": "",
          "type": "address"
        }
      ],
      "stateMutability": "view",
      "type": "function"
    },
    {
      "inputs": [],
      "name": "token1PriceFeed",
      "outputs": [
        {
          "internalType": "contract AggregatorV3Interface",
          "name": "",
          "type": "address"
        }
      ],
      "stateMutability": "view",
      "type": "function"
    },
    {
      "inputs": [
        {
          "internalType": "uint256",
          "name": "",
          "type": "uint256"
        }
      ],
      "name": "token1ToStablecoinPath",
      "outputs": [
        {
          "internalType": "address",
          "name": "",
          "type": "address"
        }
      ],
      "stateMutability": "view",
      "type": "function"
    },
    {
      "inputs": [
        {
          "internalType": "address",
          "name": "newOwner",
          "type": "address"
        }
      ],
      "name": "transferOwnership",
      "outputs": [],
      "stateMutability": "nonpayable",
      "type": "function"
    },
    {
      "inputs": [],
      "name": "uniRouterAddress",
      "outputs": [
        {
          "internalType": "address",
          "name": "",
          "type": "address"
        }
      ],
      "stateMutability": "view",
      "type": "function"
    },
    {
      "inputs": [],
      "name": "unpause",
      "outputs": [],
      "stateMutability": "nonpayable",
      "type": "function"
    },
    {
      "inputs": [],
      "name": "wantAddress",
      "outputs": [
        {
          "internalType": "address",
          "name": "",
          "type": "address"
        }
      ],
      "stateMutability": "view",
      "type": "function"
    },
    {
      "inputs": [],
      "name": "wantLockedTotal",
      "outputs": [
        {
          "internalType": "uint256",
          "name": "",
          "type": "uint256"
        }
      ],
      "stateMutability": "view",
      "type": "function"
    },
    {
      "inputs": [],
      "name": "withdrawFeeFactor",
      "outputs": [
        {
          "internalType": "uint256",
          "name": "",
          "type": "uint256"
        }
      ],
      "stateMutability": "view",
      "type": "function"
    },
    {
      "inputs": [],
      "name": "withdrawFeeFactorLL",
      "outputs": [
        {
          "internalType": "uint256",
          "name": "",
          "type": "uint256"
        }
      ],
      "stateMutability": "view",
      "type": "function"
    },
    {
      "inputs": [],
      "name": "withdrawFeeFactorMax",
      "outputs": [
        {
          "internalType": "uint256",
          "name": "",
          "type": "uint256"
        }
      ],
      "stateMutability": "view",
      "type": "function"
    },
    {
      "inputs": [
        {
          "internalType": "uint256",
          "name": "_wantAmt",
          "type": "uint256"
        }
      ],
      "name": "withdrawWantToken",
      "outputs": [
        {
          "internalType": "uint256",
          "name": "sharesRemoved",
          "type": "uint256"
        }
      ],
      "stateMutability": "nonpayable",
      "type": "function"
    },
    {
      "inputs": [],
      "name": "zorroControllerAddress",
      "outputs": [
        {
          "internalType": "address",
          "name": "",
          "type": "address"
        }
      ],
      "stateMutability": "view",
      "type": "function"
    },
    {
      "inputs": [],
      "name": "zorroLPPool",
      "outputs": [
        {
          "internalType": "address",
          "name": "",
          "type": "address"
        }
      ],
      "stateMutability": "view",
      "type": "function"
    },
    {
      "inputs": [],
      "name": "zorroLPPoolOtherToken",
      "outputs": [
        {
          "internalType": "address",
          "name": "",
          "type": "address"
        }
      ],
      "stateMutability": "view",
      "type": "function"
    },
    {
      "inputs": [],
      "name": "zorroStakingVault",
      "outputs": [
        {
          "internalType": "address",
          "name": "",
          "type": "address"
        }
      ],
      "stateMutability": "view",
      "type": "function"
    },
    {
      "inputs": [],
      "name": "zorroXChainController",
      "outputs": [
        {
          "internalType": "address",
          "name": "",
          "type": "address"
        }
      ],
      "stateMutability": "view",
      "type": "function"
    },
    {
      "inputs": [
        {
          "internalType": "address[]",
          "name": "_path",
          "type": "address[]"
        }
      ],
      "name": "reversePath",
      "outputs": [
        {
          "internalType": "address[]",
          "name": "",
          "type": "address[]"
        }
      ],
      "stateMutability": "pure",
      "type": "function"
    },
    {
      "inputs": [
        {
          "internalType": "uint256",
          "name": "_wantAmt",
          "type": "uint256"
        }
      ],
      "name": "unfarm",
      "outputs": [],
      "stateMutability": "nonpayable",
      "type": "function"
    },
    {
      "inputs": [
        {
          "internalType": "uint256",
          "name": "_earnedAmount",
          "type": "uint256"
        },
        {
          "internalType": "address",
          "name": "_destination",
          "type": "address"
        },
        {
          "internalType": "uint256",
          "name": "_maxMarketMovementAllowed",
          "type": "uint256"
        },
        {
          "components": [
            {
              "internalType": "uint256",
              "name": "earn",
              "type": "uint256"
            },
            {
              "internalType": "uint256",
              "name": "ZOR",
              "type": "uint256"
            },
            {
              "internalType": "uint256",
              "name": "lpPoolOtherToken",
              "type": "uint256"
            },
            {
              "internalType": "uint256",
              "name": "stablecoin",
              "type": "uint256"
            }
          ],
          "internalType": "struct VaultLibrary.ExchangeRates",
          "name": "_rates",
          "type": "tuple"
        }
      ],
      "name": "swapEarnedToUSD",
      "outputs": [],
      "stateMutability": "nonpayable",
      "type": "function"
    },
    {
      "inputs": [
        {
          "internalType": "uint256",
          "name": "_amount",
          "type": "uint256"
        },
        {
          "internalType": "uint256",
          "name": "_maxMarketMovementAllowed",
          "type": "uint256"
        },
        {
          "components": [
            {
              "internalType": "uint256",
              "name": "earn",
              "type": "uint256"
            },
            {
              "internalType": "uint256",
              "name": "ZOR",
              "type": "uint256"
            },
            {
              "internalType": "uint256",
              "name": "lpPoolOtherToken",
              "type": "uint256"
            },
            {
              "internalType": "uint256",
              "name": "stablecoin",
              "type": "uint256"
            }
          ],
          "internalType": "struct VaultLibrary.ExchangeRates",
          "name": "_rates",
          "type": "tuple"
        }
      ],
      "name": "revShareOnChain",
      "outputs": [],
      "stateMutability": "nonpayable",
      "type": "function"
    },
    {
      "inputs": [
        {
          "internalType": "uint256",
          "name": "_amount",
          "type": "uint256"
        },
        {
          "internalType": "uint256",
          "name": "_maxMarketMovementAllowed",
          "type": "uint256"
        },
        {
          "components": [
            {
              "internalType": "uint256",
              "name": "earn",
              "type": "uint256"
            },
            {
              "internalType": "uint256",
              "name": "ZOR",
              "type": "uint256"
            },
            {
              "internalType": "uint256",
              "name": "lpPoolOtherToken",
              "type": "uint256"
            },
            {
              "internalType": "uint256",
              "name": "stablecoin",
              "type": "uint256"
            }
          ],
          "internalType": "struct VaultLibrary.ExchangeRates",
          "name": "_rates",
          "type": "tuple"
        }
      ],
      "name": "buybackOnChain",
      "outputs": [],
      "stateMutability": "nonpayable",
      "type": "function"
    }
  ],
  "bytecode": "0x608060405234801561001057600080fd5b50615dc080620000216000396000f3fe608060405234801561001057600080fd5b50600436106105855760003560e060020a900480637153ef86116102e9578063c0973eed11610191578063e7a03679116100f8578063f1068454116100b1578063f4c6f4971161008b578063f4c6f49714610bb0578063f5046a2914610bc3578063fbf5683f14610bd6578063ff29b39514610be957600080fd5b8063f106845414610b81578063f25342bf14610b8a578063f2fde38b14610b9d57600080fd5b8063e7a0367914610b2e578063e9e15b4f14610b41578063ebfba7c414610b54578063edf5e58514610b67578063ee50dc34146106c5578063f05c09b314610b7457600080fd5b8063cfad57a21161014a578063cfad57a214610abc578063d7cb416f14610acf578063de84199114610ae2578063e502a88d14610af5578063e65a011714610b08578063e719847414610b1b57600080fd5b8063c0973eed14610a5d578063c302a4d014610919578063c4d66de814610a70578063c524a05614610a83578063c8479cd614610a96578063c8e3d18b14610aa957600080fd5b806396e9aff811610250578063ab196def11610209578063b3545c01116101e3578063b3545c011461059f578063b61bb80a14610a24578063b73cba2a14610a37578063bf3a7d4014610a4a57600080fd5b8063ab196def146109eb578063ae53e58a146109fe578063b1414dbb14610a1157600080fd5b806396e9aff8146109795780639fc33a9f1461098c578063a04953911461099f578063a4d2b083146109b2578063aabf190b146109c5578063aada5bf6146109d857600080fd5b806385f02dd6116102a257806385f02dd614610910578063866b2018146109195780638906758d146109225780638b4c5aee146109355780638da5cb5b14610955578063959334f41461096657600080fd5b80637153ef86146108a95780637bf604d8146108bc5780637ff36fbe146108cf578063833eeab9146108e257806383f01939146108f55780638456cb591461090857600080fd5b806344a3955e1161044c5780635fc77d43116103b357806367206d401161036c5780636ca8bd65116103465780636ca8bd65146108685780636f96f6fa1461087b57806370d5ae051461088e578063715018a6146108a157600080fd5b806367206d401461083957806368f541621461084c578063693a090b1461085557600080fd5b80635fc77d43146107da5780636183e804146107ed57806361b5bf9f146108005780636392ab1214610813578063648794a41461082657806367057b6c146106c557600080fd5b80634f4cab67116104055780634f4cab671461077057806355ebedec14610783578063567e07c914610796578063583bda3b146107a95780635c975abb146107bc5780635da79d63146107c757600080fd5b806344a3955e1461071657806346008a071461071f5780634b0e7216146107375780634bf71bb81461074a5780634c5b09da1461075d5780634d9f7bb2146106c557600080fd5b80631c885bae116104f05780633214471f116104a95780633214471f146106e157806334563acc146106ea57806336e9332d146106fd5780633f4ba83a1461070557806342da4eb31461070d57806343788cd2146106c557600080fd5b80631c885bae1461068c5780631e85b3ad1461069f578063211019d71461059f5780632209b59e146106b25780632717eff3146106c5578063320d47cc146106ce57600080fd5b80630daef321116105425780630daef321146106155780630fa4e01e1461064b5780631334903f146106545780631755ff211461065d578063178a8d07146106705780631b0d8aab1461067957600080fd5b806305828d3e1461058a578063061c7d481461059f5780630761a172146105bb5780630b6bb30b146105c45780630bbd6cd6146105d75780630c51b79b14610602575b600080fd5b61059d610598366004614c54565b610bfc565b005b6105a86103e881565b6040519081526020015b60405180910390f35b6105a860f35481565b61059d6105d2366004614c8a565b610c54565b6105ea6105e5366004614ca7565b610d02565b604051600160a060020a0390911681526020016105b2565b61059d610610366004614dbe565b610d2c565b60cb5461063b907501000000000000000000000000000000000000000000900460ff1681565b60405190151581526020016105b2565b6105a860e15481565b6105a860df5481565b60d8546105ea90600160a060020a031681565b6105a860dd5481565b61059d610687366004614ca7565b610d3c565b61059d61069a366004614ca7565b610d6e565b6105ea6106ad366004614ca7565b610d7a565b6105a86106c0366004614ca7565b610d8a565b6105a861271081565b61059d6106dc366004614ca7565b610f14565b6105a860de5481565b61059d6106f83660046150dd565b610f46565b61059d61146b565b61059d6114a5565b6105a860e25481565b6105a860e35481565b60cb546105ea906101009004600160a060020a031681565b61059d610745366004614c54565b6114e1565b6105ea610758366004614ca7565b611530565b61059d61076b366004614c54565b611540565b61059d61077e3660046152a8565b61158f565b6105a8610791366004614ca7565b6115a1565b61059d6107a4366004614c54565b6117be565b61059d6107b7366004614c54565b61180d565b60975460ff1661063b565b61059d6107d5366004614c54565b61185c565b60cd546105ea90600160a060020a031681565b61059d6107fb366004614c54565b6118ab565b61059d61080e366004614c54565b6118fa565b6105ea610821366004614ca7565b611949565b6105a86108343660046152f1565b611959565b61059d610847366004615313565b611b75565b6105a860e05481565b60d9546105ea90600160a060020a031681565b61059d610876366004614c54565b611c7d565b60ef546105ea90600160a060020a031681565b60d6546105ea90600160a060020a031681565b61059d611ccc565b61059d6108b7366004615355565b611d03565b60da546105ea90600160a060020a031681565b60d1546105ea90600160a060020a031681565b6105ea6108f0366004614ca7565b611ff7565b61059d610903366004614c8a565b612007565b61059d612047565b6105a860dc5481565b6105a861232881565b61059d610930366004614c54565b612081565b610948610943366004615390565b6120d0565b6040516105b29190615409565b603354600160a060020a03166105ea565b61059d610974366004614c54565b612168565b6105ea610987366004614ca7565b6121b7565b60d4546105ea90600160a060020a031681565b6105ea6109ad366004614ca7565b6121c7565b60cf546105ea90600160a060020a031681565b60f0546105ea90600160a060020a031681565b60f2546105ea90600160a060020a031681565b60f1546105ea90600160a060020a031681565b60ee546105ea90600160a060020a031681565b60cc546105ea90600160a060020a031681565b60d5546105ea90600160a060020a031681565b61059d610a45366004614c54565b6121d7565b61059d610a58366004614c54565b612226565b60d7546105ea90600160a060020a031681565b61059d610a7e366004614c54565b612275565b61059d610a91366004614c54565b612310565b61059d610aa4366004614c54565b61235f565b6105ea610ab7366004614ca7565b6123ae565b61059d610aca366004614c54565b6123be565b60d2546105ea90600160a060020a031681565b61059d610af036600461542b565b612453565b6105a8610b033660046152f1565b6125d5565b61059d610b16366004614ca7565b61279e565b60d3546105ea90600160a060020a031681565b60d0546105ea90600160a060020a031681565b61059d610b4f366004614c54565b613096565b60db546105ea90600160a060020a031681565b60c95461063b9060ff1681565b60cb5461063b9060ff1681565b6105a860ca5481565b60ed546105ea90600160a060020a031681565b61059d610bab366004614c54565b6130e5565b61059d610bbe366004614dbe565b61319a565b60ce546105ea90600160a060020a031681565b6105ea610be4366004614ca7565b6131a5565b61059d610bf7366004615464565b6131b5565b603354600160a060020a03163314610c325760405160e560020a62461bcd028152600401610c29906154eb565b60405180910390fd5b60d28054600160a060020a031916600160a060020a0392909216919091179055565b60cb546101009004600160a060020a03163314610c865760405160e560020a62461bcd028152600401610c2990615520565b60cb805482151575010000000000000000000000000000000000000000000275ff000000000000000000000000000000000000000000199091161790556040517f125177ac7b8930dac1e59c2b30b1b6b9191b30af40cf6bbb5d20fec4d44be60f90610cf790831515815260200190565b60405180910390a150565b60e68181548110610d1257600080fd5b600091825260209091200154600160a060020a0316905081565b610d378383836132b6565b505050565b603354600160a060020a03163314610d695760405160e560020a62461bcd028152600401610c29906154eb565b60ca55565b610d77816137ff565b50565b60e58181548110610d1257600080fd5b60cc54600090600160a060020a031633600160a060020a031614610dc35760405160e560020a62461bcd028152600401610c2990615557565b60026065541415610de95760405160e560020a62461bcd028152600401610c299061558e565b600260655560975460ff1615610e145760405160e560020a62461bcd028152600401610c29906155c5565b60008211610e675760405160e560020a62461bcd02815260206004820152600660248201527f77616e743c3000000000000000000000000000000000000000000000000000006044820152606401610c29565b60d054610e7f90600160a060020a0316333085613889565b819050600060e254118015610e965750600060e354115b15610ed157610ece612710610ec860e254610ec860df54610ec260e3548961393a90919063ffffffff16565b9061393a565b90613946565b90505b60e354610ede9082613952565b60e35560cb5460ff1615610ef957610ef461395e565b610f0a565b60e254610f069083613952565b60e2555b6001606555919050565b603354600160a060020a03163314610f415760405160e560020a62461bcd028152600401610c29906154eb565b60f355565b600054610100900460ff16610f615760005460ff1615610f65565b303b155b610f845760405160e560020a62461bcd028152600401610c29906155fc565b600054610100900460ff16158015610fa6576000805461ffff19166101011790555b815160ca5560208083015160c9805460ff191691151591909117905560408084015160cb80546060808801518051750100000000000000000000000000000000000000000074ffffffffffffffffffffffffffffffffffffffffff1990941695151574ffffffffffffffffffffffffffffffffffffffff00191695909517610100600160a060020a0396871681029190911775ff0000000000000000000000000000000000000000001916939093179093558286015160cc8054600160a060020a03199081169287169290921790558386015160cd805483169187169190911790558382015160ce8054831691871691909117905560808085015160cf8054841691881691909117905560a085015160d08054841691881691909117905560c085015160d18054841691881691909117905560e08086015160d2805485169189169190911790559385015160d38054841691881691909117905561012085015160d48054841691881691909117905561014085015160d7805484169188169190911790556101608086015160d88054851691891691909117905561018086015160d9805485169189169190911790556101a086015160da805485169189169190911790556101c086015160db805485169189169190911790556101e09095015160d58054909316961695909517905591870151805160dc558086015160dd559384015160de559083015160df559181015190915583015180516111cd9260ea920190614b67565b5060a082015180516111e79160e891602090910190614b67565b5060c082015180516112019160e991602090910190614b67565b5060e0820151805161121b9160e491602090910190614b67565b5061010082015180516112369160e591602090910190614b67565b5061012082015180516112519160eb91602090910190614b67565b50610140820151805161126c9160ec91602090910190614b67565b506040517f8b4c5aee00000000000000000000000000000000000000000000000000000000815273__VaultLibrary__________________________90638b4c5aee906112be9060e490600401615659565b600060405180830381865af41580156112db573d6000803e3d6000fd5b505050506040513d6000823e601f3d908101601f1916820160405261130391908101906156a9565b80516113179160e691602090910190614b67565b506040517f8b4c5aee00000000000000000000000000000000000000000000000000000000815273__VaultLibrary__________________________90638b4c5aee906113699060e590600401615659565b600060405180830381865af4158015611386573d6000803e3d6000fd5b505050506040513d6000823e601f3d908101601f191682016040526113ae91908101906156a9565b80516113c29160e791602090910190614b67565b50610180820151805160ed8054600160a060020a0319908116600160a060020a0393841617909155602083015160ee80548316918416919091179055604083015160ef80548316918416919091179055608083015160f080548316918416919091179055606083015160f18054831691841691909117905560a09092015160f28054909316911617905561145583612275565b8015610d37576000805461ff0019169055505050565b600260655414156114915760405160e560020a62461bcd028152600401610c299061558e565b600260655561149e61395e565b6001606555565b60cb546101009004600160a060020a031633146114d75760405160e560020a62461bcd028152600401610c2990615520565b6114df613aa8565b565b603354600160a060020a0316331461150e5760405160e560020a62461bcd028152600401610c29906154eb565b60d68054600160a060020a031916600160a060020a0392909216919091179055565b60ec8181548110610d1257600080fd5b603354600160a060020a0316331461156d5760405160e560020a62461bcd028152600401610c29906154eb565b60d48054600160a060020a031916600160a060020a0392909216919091179055565b61159b84848484613b47565b50505050565b60cc54600090600160a060020a031633600160a060020a0316146115da5760405160e560020a62461bcd028152600401610c2990615557565b600260655414156116005760405160e560020a62461bcd028152600401610c299061558e565b600260655560975460ff161561162b5760405160e560020a62461bcd028152600401610c29906155c5565b6000821161167e5760405160e560020a62461bcd02815260206004820152600760248201527f6e656757616e74000000000000000000000000000000000000000000000000006044820152606401610c29565b61169960e254610ec860e3548561393a90919063ffffffff16565b905060e3548111156116aa575060e3545b60e3546116b79082613d93565b60e35560e05461271011156116e4576116e1612710610ec860e0548561393a90919063ffffffff16565b91505b60cb5460ff16156116f8576116f8826137ff565b60d05460405160e060020a6370a08231028152306004820152600091600160a060020a0316906370a0823190602401602060405180830381865afa158015611744573d6000803e3d6000fd5b505050506040513d601f19601f820116820180604052508101906117689190615735565b905080831115611776578092505b8260e25410156117865760e25492505b60e2546117939084613d93565b60e25560cc5460d0546117b391600160a060020a03918216911685613d9f565b506001606555919050565b603354600160a060020a031633146117eb5760405160e560020a62461bcd028152600401610c29906154eb565b60cd8054600160a060020a031916600160a060020a0392909216919091179055565b603354600160a060020a0316331461183a5760405160e560020a62461bcd028152600401610c29906154eb565b60ce8054600160a060020a031916600160a060020a0392909216919091179055565b603354600160a060020a031633146118895760405160e560020a62461bcd028152600401610c29906154eb565b60d98054600160a060020a031916600160a060020a0392909216919091179055565b603354600160a060020a031633146118d85760405160e560020a62461bcd028152600401610c29906154eb565b60d08054600160a060020a031916600160a060020a0392909216919091179055565b603354600160a060020a031633146119275760405160e560020a62461bcd028152600401610c29906154eb565b60da8054600160a060020a031916600160a060020a0392909216919091179055565b60ea8181548110610d1257600080fd5b60cc54600090600160a060020a031633600160a060020a0316146119925760405160e560020a62461bcd028152600401610c2990615557565b60975460ff16156119b85760405160e560020a62461bcd028152600401610c29906155c5565b604080516101608101825260ed54600160a060020a03908116825260ee54811660208084019190915260f25482168385015260d1548216606084015260d2548216608084015260d554821660a084015260d95490911660c083015260e6805484518184028101840190955280855273__VaultLibraryStandardAMM_______________9463c8704402948994909360e08501939091830182828015611a8657602002820191906000526020600020905b8154600160a060020a03168152600190910190602001808311611a68575b5050505050815260200160e7805480602002602001604051908101604052809291908181526020018280548015611ae657602002820191906000526020600020905b8154600160a060020a03168152600190910190602001808311611ac8575b505050918352505060d054600160a060020a03908116602083015260d854166040918201525160e060020a63ffffffff8516028152611b2b929190879060040161574e565b602060405180830381865af4158015611b48573d6000803e3d6000fd5b505050506040513d601f19601f82011682018060405250810190611b6c9190615735565b90505b92915050565b60cb546101009004600160a060020a03163314611ba75760405160e560020a62461bcd028152600401610c2990615520565b60d354600160a060020a0384811691161415611c085760405160e560020a62461bcd02815260206004820152600560248201527f21736166650000000000000000000000000000000000000000000000000000006044820152606401610c29565b60d054600160a060020a0384811691161415611c695760405160e560020a62461bcd02815260206004820152600560248201527f21736166650000000000000000000000000000000000000000000000000000006044820152606401610c29565b610d37600160a060020a0384168284613d9f565b603354600160a060020a03163314611caa5760405160e560020a62461bcd028152600401610c29906154eb565b60cf8054600160a060020a031916600160a060020a0392909216919091179055565b603354600160a060020a03163314611cf95760405160e560020a62461bcd028152600401610c29906154eb565b6114df6000613de8565b60cb546101009004600160a060020a03163314611d355760405160e560020a62461bcd028152600401610c2990615520565b612328851015611d8a5760405160e560020a62461bcd02815260206004820152601a60248201527f5f656e7472616e6365466565466163746f7220746f6f206c6f770000000000006044820152606401610c29565b612710851115611ddf5760405160e560020a62461bcd02815260206004820152601b60248201527f5f656e7472616e6365466565466163746f7220746f6f206869676800000000006044820152606401610c29565b60df859055612328841015611e395760405160e560020a62461bcd02815260206004820152601a60248201527f5f7769746864726177466565466163746f7220746f6f206c6f770000000000006044820152606401610c29565b612710841115611e8e5760405160e560020a62461bcd02815260206004820152601b60248201527f5f7769746864726177466565466163746f7220746f6f206869676800000000006044820152606401610c29565b60e08490556103e8831115611ee85760405160e560020a62461bcd02815260206004820152601760248201527f5f636f6e74726f6c6c657246656520746f6f20686967680000000000000000006044820152606401610c29565b60dc8390556103e8821115611f425760405160e560020a62461bcd02815260206004820152601560248201527f5f6275794261636b5261746520746f6f206869676800000000000000000000006044820152606401610c29565b60dd8290556103e8811115611f9c5760405160e560020a62461bcd02815260206004820152601660248201527f5f72657653686172655261746520746f6f2068696768000000000000000000006044820152606401610c29565b60de819055604080518681526020810186905290810184905260608101839052608081018290527fc67e0b149a57a70fa44a531a46c2c6d8e0b242fa12f459f250012c3a5987d29a9060a00160405180910390a15050505050565b60e48181548110610d1257600080fd5b603354600160a060020a031633146120345760405160e560020a62461bcd028152600401610c29906154eb565b60cb805460ff1916911515919091179055565b60cb546101009004600160a060020a031633146120795760405160e560020a62461bcd028152600401610c2990615520565b6114df613e3a565b603354600160a060020a031633146120ae5760405160e560020a62461bcd028152600401610c29906154eb565b60d78054600160a060020a031916600160a060020a0392909216919091179055565b6040517f8b4c5aee00000000000000000000000000000000000000000000000000000000815260609073__VaultLibrary__________________________90638b4c5aee90612123908590600401615409565b600060405180830381865af4158015612140573d6000803e3d6000fd5b505050506040513d6000823e601f3d908101601f19168201604052611b6f91908101906156a9565b603354600160a060020a031633146121955760405160e560020a62461bcd028152600401610c29906154eb565b60db8054600160a060020a031916600160a060020a0392909216919091179055565b60e98181548110610d1257600080fd5b60e78181548110610d1257600080fd5b603354600160a060020a031633146122045760405160e560020a62461bcd028152600401610c29906154eb565b60d38054600160a060020a031916600160a060020a0392909216919091179055565b603354600160a060020a031633146122535760405160e560020a62461bcd028152600401610c29906154eb565b60cc8054600160a060020a031916600160a060020a0392909216919091179055565b600054610100900460ff166122905760005460ff1615612294565b303b155b6122b35760405160e560020a62461bcd028152600401610c29906155fc565b600054610100900460ff161580156122d5576000805461ffff19166101011790555b6122dd613e95565b6122e6826130e5565b60d68054600160a060020a03191661dead179055801561230c576000805461ff00191690555b5050565b603354600160a060020a0316331461233d5760405160e560020a62461bcd028152600401610c29906154eb565b60d58054600160a060020a031916600160a060020a0392909216919091179055565b603354600160a060020a0316331461238c5760405160e560020a62461bcd028152600401610c29906154eb565b60d18054600160a060020a031916600160a060020a0392909216919091179055565b60e88181548110610d1257600080fd5b60cb546101009004600160a060020a031633146123f05760405160e560020a62461bcd028152600401610c2990615520565b60cb805474ffffffffffffffffffffffffffffffffffffffff001916610100600160a060020a038416908102919091179091556040519081527f91a8c1cc2d4a3bb60738481947a00cbb9899c822916694cf8bb1d68172fdcd5490602001610cf7565b603354600160a060020a031633146124805760405160e560020a62461bcd028152600401610c29906154eb565b60ff82166124a95760ed8054600160a060020a038316600160a060020a03199091161790555050565b8160ff16600114156124d65760ee8054600160a060020a038316600160a060020a03199091161790555050565b8160ff16600214156125035760ef8054600160a060020a038316600160a060020a03199091161790555050565b8160ff16600314156125305760f18054600160a060020a038316600160a060020a03199091161790555050565b8160ff166004141561255d5760f08054600160a060020a038316600160a060020a03199091161790555050565b8160ff166005141561258a5760f28054600160a060020a038316600160a060020a03199091161790555050565b60405160e560020a62461bcd02815260206004820152601460248201527f756e737570706f727465642066656564206964780000000000000000000000006044820152606401610c29565b60cc54600090600160a060020a031633600160a060020a03161461260e5760405160e560020a62461bcd028152600401610c2990615557565b60975460ff16156126345760405160e560020a62461bcd028152600401610c29906155c5565b604080516101408101825260d554600160a060020a03908116825260d154811660208084019190915260d25482168385015260d9548216606084015260f2548216608084015260ed54821660a084015260ee5490911660c083015260e4805484518184028101840190955280855273__VaultLibraryStandardAMM_______________94634cc78132948994909360e0850193909183018282801561270257602002820191906000526020600020905b8154600160a060020a031681526001909101906020018083116126e4575b5050505050815260200160e580548060200260200160405190810160405280929190818152602001828054801561276257602002820191906000526020600020905b8154600160a060020a03168152600190910190602001808311612744575b505050918352505060d054600160a060020a031660209091015260405160e060020a63ffffffff8516028152611b2b929190879060040161588d565b600260655414156127c45760405160e560020a62461bcd028152600401610c299061558e565b600260655560975460ff16156127ef5760405160e560020a62461bcd028152600401610c29906155c5565b60cb5460ff166128445760405160e560020a62461bcd02815260206004820152600960248201527f216661726d61626c6500000000000000000000000000000000000000000000006044820152606401610c29565b60cb547501000000000000000000000000000000000000000000900460ff161561289a5760cb546101009004600160a060020a0316331461289a5760405160e560020a62461bcd028152600401610c2990615520565b6128a460006137ff565b60d35460405160e060020a6370a08231028152306004820152600091600160a060020a0316906370a0823190602401602060405180830381865afa1580156128f0573d6000803e3d6000fd5b505050506040513d601f19601f820116820180604052508101906129149190615735565b9050600081116129695760405160e560020a62461bcd02815260206004820152600560248201527f306561726e0000000000000000000000000000000000000000000000000000006044820152606401610c29565b6129946040518060800160405280600081526020016000815260200160008152602001600081525090565b6040805160028082526060820183526000926020830190803683375050604080516002808252606082018352939450600093909250906020830190803683375050604080516080810190915260ef54929350918291506129fc90600160a060020a0316613ec7565b815260f154602090910190612a1990600160a060020a0316613ec7565b815260f054602090910190612a3690600160a060020a0316613ec7565b815260f254602090910190612a5390600160a060020a0316613ec7565b8152509250826000015182600081518110612a7057612a7061599b565b602090810291909101015260ed54612a9090600160a060020a0316613ec7565b82600181518110612aa357612aa361599b565b602002602001018181525050826000015181600081518110612ac757612ac761599b565b602090810291909101015260ee54612ae790600160a060020a0316613ec7565b81600181518110612afa57612afa61599b565b602002602001018181525050600080612b1286614017565b9050600080612b22888a89614067565b9092509050612b3d81612b3784818c88613d93565b90613d93565b60d95460d354919550612b619450600160a060020a03918216935016905087614198565b60d15460d354600160a060020a03908116911614612d5a57604080516002808252606082018352600092602083019080368337505060d3546040805160e060020a63313ce5670281529051939450600160a060020a039091169263313ce567925060048083019260209291908290030181865afa158015612be6573d6000803e3d6000fd5b505050506040513d601f19601f82011682018060405250810190612c0a91906159b4565b81600081518110612c1d57612c1d61599b565b60ff90921660209283029190910182015260d1546040805160e060020a63313ce5670281529051600160a060020a039092169263313ce567926004808401938290030181865afa158015612c75573d6000803e3d6000fd5b505050506040513d601f19601f82011682018060405250810190612c9991906159b4565b81600181518110612cac57612cac61599b565b60ff90921660209283029190910190910152612d58612ccc836002613946565b858960e8805480602002602001604051908101604052809291908181526020018280548015612d2457602002820191906000526020600020905b8154600160a060020a03168152600190910190602001808311612d06575b50505050508530612d406102584261395290919063ffffffff16565b60d954600160a060020a03169695949392919061427c565b505b60d25460d354600160a060020a03908116911614612f3957604080516002808252606082018352600092602083019080368337505060d3546040805160e060020a63313ce5670281529051939450600160a060020a039091169263313ce567925060048083019260209291908290030181865afa158015612ddf573d6000803e3d6000fd5b505050506040513d601f19601f82011682018060405250810190612e0391906159b4565b81600081518110612e1657612e1661599b565b60ff90921660209283029190910182015260d2546040805160e060020a63313ce5670281529051600160a060020a039092169263313ce567926004808401938290030181865afa158015612e6e573d6000803e3d6000fd5b505050506040513d601f19601f82011682018060405250810190612e9291906159b4565b81600181518110612ea557612ea561599b565b60ff90921660209283029190910190910152612f37612ec5836002613946565b848960e9805480602002602001604051908101604052809291908181526020018280548015612d2457602002820191906000526020600020908154600160a060020a03168152600190910190602001808311612d065750505050508530612d406102584261395290919063ffffffff16565b505b60d15460405160e060020a6370a08231028152306004820152600091600160a060020a0316906370a0823190602401602060405180830381865afa158015612f85573d6000803e3d6000fd5b505050506040513d601f19601f82011682018060405250810190612fa99190615735565b60d25460405160e060020a6370a08231028152306004820152919250600091600160a060020a03909116906370a0823190602401602060405180830381865afa158015612ffa573d6000803e3d6000fd5b505050506040513d601f19601f8201168201806040525081019061301e9190615735565b90506000821180156130305750600081115b1561307b5760d95460d15461305291600160a060020a03918216911684614198565b60d95460d25461306f91600160a060020a03918216911683614198565b61307b82828a306143fc565b4360e15561308761395e565b50506001606555505050505050565b603354600160a060020a031633146130c35760405160e560020a62461bcd028152600401610c29906154eb565b60d88054600160a060020a031916600160a060020a0392909216919091179055565b603354600160a060020a031633146131125760405160e560020a62461bcd028152600401610c29906154eb565b600160a060020a0381166131915760405160e560020a62461bcd02815260206004820152602660248201527f4f776e61626c653a206e6577206f776e657220697320746865207a65726f206160448201527f64647265737300000000000000000000000000000000000000000000000000006064820152608401610c29565b610d7781613de8565b610d378383836144bc565b60eb8181548110610d1257600080fd5b603354600160a060020a031633146131e25760405160e560020a62461bcd028152600401610c29906154eb565b60ff83166131f65761159b60e48383614bcc565b8260ff166001141561320e5761159b60e58383614bcc565b8260ff16600214156132265761159b60e68383614bcc565b8260ff166003141561323e5761159b60e78383614bcc565b8260ff16600414156132565761159b60e88383614bcc565b8260ff166005141561326e5761159b60e98383614bcc565b8260ff16600614156132865761159b60ea8383614bcc565b8260ff166007141561329e5761159b60eb8383614bcc565b8260ff166008141561258a5761159b60ec8383614bcc565b604080516002808252606082018352600092602083019080368337505060408051600280825260608201835293945060009390925090602083019080368337505060408051600280825260608201835293945060009390925090602083019080368337505060408051600280825260608201835293945060009390925090602083019080368337505060d3546040805160e060020a63313ce5670281529051939450600160a060020a039091169263313ce567925060048083019260209291908290030181865afa15801561338f573d6000803e3d6000fd5b505050506040513d601f19601f820116820180604052508101906133b391906159b4565b846000815181106133c6576133c661599b565b60ff90921660209283029190910182015260ce546040805160e060020a63313ce5670281529051600160a060020a039092169263313ce567926004808401938290030181865afa15801561341e573d6000803e3d6000fd5b505050506040513d601f19601f8201168201806040525081019061344291906159b4565b846001815181106134555761345561599b565b602002602001019060ff16908160ff16815250508360008151811061347c5761347c61599b565b6020026020010151836000815181106134975761349761599b565b60ff90921660209283029190910182015260db546040805160e060020a63313ce5670281529051600160a060020a039092169263313ce567926004808401938290030181865afa1580156134ef573d6000803e3d6000fd5b505050506040513d601f19601f8201168201806040525081019061351391906159b4565b836001815181106135265761352661599b565b602002602001019060ff16908160ff16815250508460000151826000815181106135525761355261599b565b6020026020010181815250508460200151826001815181106135765761357661599b565b60200260200101818152505084600001518160008151811061359a5761359a61599b565b6020026020010181815250508460400151816001815181106135be576135be61599b565b602090810291909101015260d95460d3546135e691600160a060020a03918216911689614198565b60ce5460d354600160a060020a039081169116146136805761368061360c886002613946565b838860ea80548060200260200160405190810160405280929190818152602001828054801561366457602002820191906000526020600020905b8154600160a060020a03168152600190910190602001808311613646575b50505050508830612d406102584261395290919063ffffffff16565b60db5460d354600160a060020a0390811691161461371a5761371a6136a6886002613946565b828860eb8054806020026020016040519081016040528092919081815260200182805480156136fe57602002820191906000526020600020905b8154600160a060020a031681526001909101906020018083116136e0575b50505050508730612d406102584261395290919063ffffffff16565b6040805160808101825260ce54600160a060020a03908116825260db5481166020830190815260d954821683850190815260d65483166060850190815294517fa92696dc000000000000000000000000000000000000000000000000000000008152600481018c905293518316602485015290518216604484015251811660648301529151909116608482015273__VaultLibraryStandardAMM_______________9063a92696dc9060a40160006040518083038186803b1580156137de57600080fd5b505af41580156137f2573d6000803e3d6000fd5b5050505050505050505050565b60d45460ca546040517f441a3e70000000000000000000000000000000000000000000000000000000008152600160a060020a039092169163441a3e7091613854918590600401918252602082015260400190565b600060405180830381600087803b15801561386e57600080fd5b505af1158015613882573d6000803e3d6000fd5b5050505050565b604051600160a060020a038085166024830152831660448201526064810182905261159b9085907f23b872dd00000000000000000000000000000000000000000000000000000000906084015b60408051601f198184030181529190526020810180517bffffffffffffffffffffffffffffffffffffffffffffffffffffffff167fffffffff000000000000000000000000000000000000000000000000000000009093169290921790915261471d565b6000611b6c82846159ea565b6000611b6c8284615a09565b6000611b6c8284615a2e565b60cb5460ff166139b35760405160e560020a62461bcd02815260206004820152600960248201527f216661726d61626c6500000000000000000000000000000000000000000000006044820152606401610c29565b60d05460405160e060020a6370a08231028152306004820152600091600160a060020a0316906370a0823190602401602060405180830381865afa1580156139ff573d6000803e3d6000fd5b505050506040513d601f19601f82011682018060405250810190613a239190615735565b60e254909150613a339082613952565b60e25560d45460d054613a5391600160a060020a03918216911683614198565b60d45460ca546040517fe2bbb158000000000000000000000000000000000000000000000000000000008152600160a060020a039092169163e2bbb15891613854918590600401918252602082015260400190565b60975460ff16613afd5760405160e560020a62461bcd02815260206004820152601460248201527f5061757361626c653a206e6f74207061757365640000000000000000000000006044820152606401610c29565b6097805460ff191690557f5db9ee0a495bf2e6ff9c91a7834c1ba4fdd244a5e8aa4e537bd38aeae4b073aa335b604051600160a060020a03909116815260200160405180910390a1565b604080516002808252606082018352600092602083019080368337505060d3546040805160e060020a63313ce5670281529051939450600160a060020a039091169263313ce567925060048083019260209291908290030181865afa158015613bb4573d6000803e3d6000fd5b505050506040513d601f19601f82011682018060405250810190613bd891906159b4565b81600081518110613beb57613beb61599b565b60ff90921660209283029190910182015260d5546040805160e060020a63313ce5670281529051600160a060020a039092169263313ce567926004808401938290030181865afa158015613c43573d6000803e3d6000fd5b505050506040513d601f19601f82011682018060405250810190613c6791906159b4565b81600181518110613c7a57613c7a61599b565b60ff929092166020928302919091018201526040805160028082526060820183526000939192909183019080368337019050509050826000015181600081518110613cc757613cc761599b565b602002602001018181525050826060015181600181518110613ceb57613ceb61599b565b602090810291909101015260d95460d354613d1391600160a060020a03918216911688614198565b613d8b86828660ec805480602002602001604051908101604052809291908181526020018280548015613d6f57602002820191906000526020600020905b8154600160a060020a03168152600190910190602001808311613d51575b5050505050868a612d406102584261395290919063ffffffff16565b505050505050565b6000611b6c8284615a46565b604051600160a060020a038316602482015260448101829052610d379084907fa9059cbb00000000000000000000000000000000000000000000000000000000906064016138d6565b60338054600160a060020a03838116600160a060020a0319831681179093556040519116919082907f8be0079c531659141344cd1fd0a4f28419497f9722a3daafe3b4186f6b6457e090600090a35050565b60975460ff1615613e605760405160e560020a62461bcd028152600401610c29906155c5565b6097805460ff191660011790557f62e78cea01bee320cd4e420270b5ea74000d11b0c9f74754ebdbfc544b05a258613b2a3390565b600054610100900460ff16613ebf5760405160e560020a62461bcd028152600401610c2990615a5d565b6114df614805565b60008082600160a060020a031663313ce5676040518163ffffffff1660e060020a028152600401602060405180830381865afa158015613f0b573d6000803e3d6000fd5b505050506040513d601f19601f82011682018060405250810190613f2f91906159b4565b9050600083600160a060020a031663feaf968c6040518163ffffffff1660e060020a02815260040160a060405180830381865afa158015613f74573d6000803e3d6000fd5b505050506040513d601f19601f82011682018060405250810190613f989190615ad4565b5050509150506000811215613ff25760405160e560020a62461bcd02815260206004820152601660248201527f6e656720707269636573206e6f7420616c6c6f776564000000000000000000006044820152606401610c29565b61400f61400083600a615c0b565b610ec88364e8d4a5100061393a565b949350505050565b600081156140625760dc541561406257614042612710610ec860dc548561393a90919063ffffffff16565b60d75460d35491925061406291600160a060020a03908116911683613d9f565b919050565b600080600060dd54111561409357614090612710610ec860dd548861393a90919063ffffffff16565b91505b60de54156140b9576140b6612710610ec860de548861393a90919063ffffffff16565b90505b60c95460ff16156140df576140cf8285856132b6565b6140da8185856144bc565b614190565b6140ff6140ec8383613952565b60cc54600160a060020a03168686613b47565b60cd5460ca546040517f464e3c8b0000000000000000000000000000000000000000000000000000000081526004810191909152602481018490526044810183905260648101869052600160a060020a039091169063464e3c8b90608401600060405180830381600087803b15801561417757600080fd5b505af115801561418b573d6000803e3d6000fd5b505050505b935093915050565b6040517fdd62ed3e000000000000000000000000000000000000000000000000000000008152306004820152600160a060020a038381166024830152600091839186169063dd62ed3e90604401602060405180830381865afa158015614202573d6000803e3d6000fd5b505050506040513d601f19601f820116820180604052508101906142269190615735565b6142309190615a2e565b604051600160a060020a03851660248201526044810182905290915061159b9085907f095ea7b300000000000000000000000000000000000000000000000000000000906064016138d6565b82516002146142d05760405160e560020a62461bcd02815260206004820152600b60248201527f696e76616c6964206465630000000000000000000000000000000000000000006044820152606401610c29565b6000866000815181106142e5576142e561599b565b6020026020010151600014806143155750866001815181106143095761430961599b565b60200260200101516000145b1561432e576143278989878988614838565b9050614372565b61436f88886000815181106143455761434561599b565b6020026020010151896001815181106143605761436061599b565b60200260200101518988614958565b90505b6040517f5c11d795000000000000000000000000000000000000000000000000000000008152600160a060020a038a1690635c11d795906143bf908b9085908a9089908990600401615c1a565b600060405180830381600087803b1580156143d957600080fd5b505af11580156143ed573d6000803e3d6000fd5b50505050505050505050505050565b60d15460d25460d9546040517f809c80da000000000000000000000000000000000000000000000000000000008152600160a060020a039384166004820152918316602483015260448201879052606482018690528216608482015260a4810184905290821660c482015273__VaultLibraryStandardAMM_______________9063809c80da9060e40160006040518083038186803b15801561449e57600080fd5b505af41580156144b2573d6000803e3d6000fd5b5050505050505050565b604080516002808252606082018352600092602083019080368337505060d3546040805160e060020a63313ce5670281529051939450600160a060020a039091169263313ce567925060048083019260209291908290030181865afa158015614529573d6000803e3d6000fd5b505050506040513d601f19601f8201168201806040525081019061454d91906159b4565b816000815181106145605761456061599b565b60ff90921660209283029190910182015260ce546040805160e060020a63313ce5670281529051600160a060020a039092169263313ce567926004808401938290030181865afa1580156145b8573d6000803e3d6000fd5b505050506040513d601f19601f820116820180604052508101906145dc91906159b4565b816001815181106145ef576145ef61599b565b60ff92909216602092830291909101820152604080516002808252606082018352600093919290918301908036833701905050905082600001518160008151811061463c5761463c61599b565b6020026020010181815250508260200151816001815181106146605761466061599b565b602090810291909101015260d95460d35461468891600160a060020a03918216911687614198565b60ce5460d354600160a060020a039081169116146138825761388285828660ea8054806020026020016040519081016040528092919081815260200182805480156146fc57602002820191906000526020600020905b8154600160a060020a031681526001909101906020018083116146de575b505060cf548a9350600160a060020a03169150612d40905042610258613952565b6000614772826040518060400160405280602081526020017f5361666545524332303a206c6f772d6c6576656c2063616c6c206661696c656481525085600160a060020a03166149d39092919063ffffffff16565b805190915015610d3757808060200190518101906147909190615c56565b610d375760405160e560020a62461bcd02815260206004820152602a60248201527f5361666545524332303a204552433230206f7065726174696f6e20646964206e60448201527f6f742073756363656564000000000000000000000000000000000000000000006064820152608401610c29565b600054610100900460ff1661482f5760405160e560020a62461bcd028152600401610c2990615a5d565b6114df33613de8565b60008086600160a060020a031663d06ca61f87876040518363ffffffff1660e060020a02815260040161486c929190615c73565b600060405180830381865afa158015614889573d6000803e3d6000fd5b505050506040513d6000823e601f3d908101601f191682016040526148b19190810190615c8c565b905061494d6148e36103e8856000815181106148cf576148cf61599b565b6020026020010151600a610ec29190615c0b565b610ec8856001815181106148f9576148f961599b565b6020026020010151600a61490d9190615c0b565b610ec2888661492760018951613d9390919063ffffffff16565b815181106149375761493761599b565b602002602001015161393a90919063ffffffff16565b979650505050505050565b60006149c9614993836000815181106149735761497361599b565b6020026020010151600a6149879190615c0b565b610ec2876103e861393a565b610ec8846001815181106149a9576149a961599b565b6020026020010151600a6149bd9190615c0b565b610ec287818c8c61393a565b9695505050505050565b60606149e284846000856149ec565b90505b9392505050565b60603031831115614a685760405160e560020a62461bcd02815260206004820152602660248201527f416464726573733a20696e73756666696369656e742062616c616e636520666f60448201527f722063616c6c00000000000000000000000000000000000000000000000000006064820152608401610c29565b600160a060020a0385163b614ac25760405160e560020a62461bcd02815260206004820152601d60248201527f416464726573733a2063616c6c20746f206e6f6e2d636f6e74726163740000006044820152606401610c29565b60008086600160a060020a03168587604051614ade9190615d3b565b60006040518083038185875af1925050503d8060008114614b1b576040519150601f19603f3d011682016040523d82523d6000602084013e614b20565b606091505b509150915061494d82828660608315614b3a5750816149e5565b825115614b4a5782518084602001fd5b8160405160e560020a62461bcd028152600401610c299190615d57565b828054828255906000526020600020908101928215614bbc579160200282015b82811115614bbc5782518254600160a060020a031916600160a060020a03909116178255602090920191600190910190614b87565b50614bc8929150614c1f565b5090565b828054828255906000526020600020908101928215614bbc579160200282015b82811115614bbc578154600160a060020a031916600160a060020a03843516178255602090920191600190910190614bec565b5b80821115614bc85760008155600101614c20565b600160a060020a0381168114610d7757600080fd5b803561406281614c34565b600060208284031215614c6657600080fd5b81356149e581614c34565b8015158114610d7757600080fd5b803561406281614c71565b600060208284031215614c9c57600080fd5b81356149e581614c71565b600060208284031215614cb957600080fd5b5035919050565b60e060020a634e487b7102600052604160045260246000fd5b604051610200810167ffffffffffffffff81118282101715614cfd57614cfd614cc0565b60405290565b6040516101a0810167ffffffffffffffff81118282101715614cfd57614cfd614cc0565b604051601f8201601f1916810167ffffffffffffffff81118282101715614d5057614d50614cc0565b604052919050565b600060808284031215614d6a57600080fd5b6040516080810181811067ffffffffffffffff82111715614d8d57614d8d614cc0565b8060405250809150823581526020830135602082015260408301356040820152606083013560608201525092915050565b600080600060c08486031215614dd357600080fd5b8335925060208401359150614deb8560408601614d58565b90509250925092565b60006102008284031215614e0757600080fd5b614e0f614cd9565b9050614e1a82614c49565b8152614e2860208301614c49565b6020820152614e3960408301614c49565b6040820152614e4a60608301614c49565b6060820152614e5b60808301614c49565b6080820152614e6c60a08301614c49565b60a0820152614e7d60c08301614c49565b60c0820152614e8e60e08301614c49565b60e0820152610100614ea1818401614c49565b90820152610120614eb3838201614c49565b90820152610140614ec5838201614c49565b90820152610160614ed7838201614c49565b90820152610180614ee9838201614c49565b908201526101a0614efb838201614c49565b908201526101c0614f0d838201614c49565b908201526101e0614f1f838201614c49565b9082015292915050565b600067ffffffffffffffff821115614f4357614f43614cc0565b5060209081020190565b600082601f830112614f5e57600080fd5b81356020614f73614f6e83614f29565b614d27565b82815291810284018101918181019086841115614f8f57600080fd5b8286015b84811015614fb3578035614fa681614c34565b8352918301918301614f93565b509695505050505050565b600060a08284031215614fd057600080fd5b60405160a0810181811067ffffffffffffffff82111715614ff357614ff3614cc0565b806040525080915082358152602083013560208201526040830135604082015260608301356060820152608083013560808201525092915050565b600060c0828403121561504057600080fd5b60405160c0810181811067ffffffffffffffff8211171561506357615063614cc0565b604052905080823561507481614c34565b8152602083013561508481614c34565b6020820152604083013561509781614c34565b604082015260608301356150aa81614c34565b606082015260808301356150bd81614c34565b608082015260a08301356150d081614c34565b60a0919091015292915050565b600080604083850312156150f057600080fd5b82356150fb81614c34565b9150602083013567ffffffffffffffff8082111561511857600080fd5b908401906104a0828703121561512d57600080fd5b615135614d03565b8235815261514560208401614c7f565b602082015261515660408401614c7f565b60408201526151688760608501614df4565b60608201526102608301358281111561518057600080fd5b61518c88828601614f4d565b608083015250610280830135828111156151a557600080fd5b6151b188828601614f4d565b60a0830152506102a0830135828111156151ca57600080fd5b6151d688828601614f4d565b60c0830152506102c0830135828111156151ef57600080fd5b6151fb88828601614f4d565b60e0830152506102e08301358281111561521457600080fd5b61522088828601614f4d565b610100830152506103008301358281111561523a57600080fd5b61524688828601614f4d565b610120830152506103208301358281111561526057600080fd5b61526c88828601614f4d565b61014083015250615281876103408501614fbe565b610160820152615295876103e0850161502e565b6101808201528093505050509250929050565b60008060008060e085870312156152be57600080fd5b8435935060208501356152d081614c34565b9250604085013591506152e68660608701614d58565b905092959194509250565b6000806040838503121561530457600080fd5b50508035926020909101359150565b60008060006060848603121561532857600080fd5b833561533381614c34565b925060208401359150604084013561534a81614c34565b809150509250925092565b600080600080600060a0868803121561536d57600080fd5b505083359560208501359550604085013594606081013594506080013592509050565b6000602082840312156153a257600080fd5b813567ffffffffffffffff8111156153b957600080fd5b61400f84828501614f4d565b600081518084526020808501945080840160005b838110156153fe578151600160a060020a0316875295820195908201906001016153d9565b509495945050505050565b602081526000611b6c60208301846153c5565b60ff81168114610d7757600080fd5b6000806040838503121561543e57600080fd5b82356154498161541c565b9150602083013561545981614c34565b809150509250929050565b60008060006040848603121561547957600080fd5b83356154848161541c565b9250602084013567ffffffffffffffff808211156154a157600080fd5b818601915086601f8301126154b557600080fd5b8135818111156154c457600080fd5b87602080830285010111156154d857600080fd5b6020830194508093505050509250925092565b6020808252818101527f4f776e61626c653a2063616c6c6572206973206e6f7420746865206f776e6572604082015260600190565b60208082526004908201527f21676f7600000000000000000000000000000000000000000000000000000000604082015260600190565b60208082526010908201527f217a6f72726f436f6e74726f6c6c657200000000000000000000000000000000604082015260600190565b6020808252601f908201527f5265656e7472616e637947756172643a207265656e7472616e742063616c6c00604082015260600190565b60208082526010908201527f5061757361626c653a2070617573656400000000000000000000000000000000604082015260600190565b6020808252602e908201527f496e697469616c697a61626c653a20636f6e747261637420697320616c72656160408201527f647920696e697469616c697a6564000000000000000000000000000000000000606082015260800190565b6020808252825482820181905260008481528281209092916040850190845b8181101561569d578354600160a060020a031683526001938401939285019201615678565b50909695505050505050565b600060208083850312156156bc57600080fd5b825167ffffffffffffffff8111156156d357600080fd5b8301601f810185136156e457600080fd5b80516156f2614f6e82614f29565b8181529083028201830190838101908783111561570e57600080fd5b928401925b8284101561494d57835161572681614c34565b82529284019290840190615713565b60006020828403121561574757600080fd5b5051919050565b8381526060602082015261576e606082018451600160a060020a03169052565b6000602084015161578a6080840182600160a060020a03169052565b506040840151600160a060020a03811660a0840152506060840151600160a060020a03811660c0840152506080840151600160a060020a03811660e08401525060a08401516101006157e681850183600160a060020a03169052565b60c0860151915061012061580481860184600160a060020a03169052565b60e0870151925061016061014081818801526158246101c08801866153c5565b93890151878503605f19018389015293945061584085856153c5565b945082890151935061585e610180880185600160a060020a03169052565b880151600160a060020a0381166101a0880152925061587b915050565b50604092909201929092529392505050565b838152606060208201526158ad606082018451600160a060020a03169052565b600060208401516158c96080840182600160a060020a03169052565b506040840151600160a060020a03811660a0840152506060840151600160a060020a03811660c0840152506080840151600160a060020a03811660e08401525060a084015161010061592581850183600160a060020a03169052565b60c0860151915061012061594381860184600160a060020a03169052565b60e087015161014086810152925061595f6101a08601846153c5565b91870151858303605f190161016087015291925061597d83836153c5565b90870151600160a060020a038116610180870152909250905061587b565b60e060020a634e487b7102600052603260045260246000fd5b6000602082840312156159c657600080fd5b81516149e58161541c565b60e060020a634e487b7102600052601160045260246000fd5b6000816000190483118215151615615a0457615a046159d1565b500290565b600082615a295760e060020a634e487b7102600052601260045260246000fd5b500490565b60008219821115615a4157615a416159d1565b500190565b600082821015615a5857615a586159d1565b500390565b6020808252602b908201527f496e697469616c697a61626c653a20636f6e7472616374206973206e6f74206960408201527f6e697469616c697a696e67000000000000000000000000000000000000000000606082015260800190565b805169ffffffffffffffffffff8116811461406257600080fd5b600080600080600060a08688031215615aec57600080fd5b615af586615aba565b9450602086015193506040860151925060608601519150615b1860808701615aba565b90509295509295909350565b600181815b80851115615b61578160001904821115615b4557615b456159d1565b80851615615b5257918102915b60029094049390800290615b29565b509250929050565b600082615b7857506001611b6f565b81615b8557506000611b6f565b8160018114615b9b5760028114615ba557615bc2565b6001915050611b6f565b60ff841115615bb657615bb66159d1565b8360020a915050611b6f565b5060208310610133831016604e8410600b8410161715615be5575081810a611b6f565b615bef8383615b24565b8060001904821115615c0357615c036159d1565b029392505050565b6000611b6c60ff841683615b69565b85815284602082015260a060408201526000615c3960a08301866153c5565b600160a060020a0394909416606083015250608001529392505050565b600060208284031215615c6857600080fd5b81516149e581614c71565b8281526040602082015260006149e260408301846153c5565b60006020808385031215615c9f57600080fd5b825167ffffffffffffffff811115615cb657600080fd5b8301601f81018513615cc757600080fd5b8051615cd5614f6e82614f29565b81815290830282018301908381019087831115615cf157600080fd5b928401925b8284101561494d57835182529284019290840190615cf6565b60005b83811015615d2a578181015183820152602001615d12565b8381111561159b5750506000910152565b60008251615d4d818460208701615d0f565b9190910192915050565b6020815260008251806020840152615d76816040850160208701615d0f565b601f01601f1916919091016040019291505056fea26469706673582212206fcfe04fb658eabea66f17940855fb3cd0ae92e13f8e2939932e88ffc8fa9a7764736f6c634300080a0033",
  "immutableReferences": {},
  "source": "// SPDX-License-Identifier: MIT\n\npragma solidity ^0.8.0;\n\nimport \"../VaultStandardAMM.sol\";\n\nimport \"@openzeppelin/contracts-upgradeable/token/ERC20/ERC20Upgradeable.sol\";\n\nimport \"../../tokens/mocks/MockToken.sol\";\n\nimport \"../libraries/VaultLibrary.sol\";\n\ncontract MockVaultStandardAMM is VaultStandardAMM {\n    function reversePath(address[] memory _path)\n        public\n        pure\n        returns (address[] memory)\n    {\n        return VaultLibrary.reversePath(_path);\n    }\n\n    function unfarm(uint256 _wantAmt) public {\n        _unfarm(_wantAmt);\n    }\n\n    function swapEarnedToUSD(\n        uint256 _earnedAmount,\n        address _destination,\n        uint256 _maxMarketMovementAllowed,\n        VaultLibrary.ExchangeRates memory _rates\n    ) public {\n        _swapEarnedToUSD(_earnedAmount, _destination, _maxMarketMovementAllowed, _rates);\n    }\n\n    function revShareOnChain(\n        uint256 _amount,\n        uint256 _maxMarketMovementAllowed,\n        VaultLibrary.ExchangeRates memory _rates\n    ) public {\n        _revShareOnChain(_amount, _maxMarketMovementAllowed, _rates);\n    }\n\n    function buybackOnChain(\n        uint256 _amount,\n        uint256 _maxMarketMovementAllowed,\n        VaultLibrary.ExchangeRates memory _rates\n    ) public {\n        _buybackOnChain(_amount, _maxMarketMovementAllowed, _rates);\n    }\n}\n\ncontract MockAMMFarm is IAMMFarm, MockERC20Upgradeable {\n    using SafeERC20Upgradeable for IERC20Upgradeable;\n\n    address public burnAddress;\n    address public wantToken;\n\n    function setWantAddress(address _wantToken) public {\n        wantToken = _wantToken;\n    }\n\n    function setBurnAddress(address _burnAddress) public {\n        burnAddress = _burnAddress;\n    }\n\n    function poolLength() external view returns (uint256) {}\n\n    function userInfo() external view returns (uint256) {}\n\n    // Return reward multiplier over the given _from to _to block.\n    function getMultiplier(uint256 _from, uint256 _to)\n        external\n        view\n        returns (uint256)\n    {}\n\n    // View function to see pending CAKEs on frontend.\n    function pendingCake(uint256 _pid, address _user)\n        external\n        view\n        returns (uint256)\n    {}\n\n    event Deposited(uint256 indexed _pid, uint256 indexed _amount);\n\n    // Deposit LP tokens to MasterChef for CAKE allocation.\n    function deposit(uint256 _pid, uint256 _amount) external {\n        IERC20Upgradeable(wantToken).safeTransferFrom(msg.sender, burnAddress, _amount);\n        emit Deposited(_pid, _amount);\n    }\n\n    event Withdrew(uint256 indexed _pid, uint256 indexed _amount);\n\n    // Withdraw LP tokens from MasterChef.\n    function withdraw(uint256 _pid, uint256 _amount) external {\n        IMockERC20Upgradeable(wantToken).mint(msg.sender, _amount);\n        emit Withdrew(_pid, _amount);\n    }\n\n    // Stake CAKE tokens to MasterChef\n    function enterStaking(uint256 _amount) external {}\n\n    // Withdraw CAKE tokens from STAKING.\n    function leaveStaking(uint256 _amount) external {}\n\n    // Withdraw without caring about rewards. EMERGENCY ONLY.\n    function emergencyWithdraw(uint256 _pid) external {}\n}\n\ncontract MockAMMToken0 is MockERC20Upgradeable {}\ncontract MockAMMToken1 is MockERC20Upgradeable {}\ncontract MockAMMOtherLPToken is MockERC20Upgradeable {}\ncontract MockLPPool is MockERC20Upgradeable {}\ncontract MockLPPool1 is MockLPPool {}\n",
  "sourcePath": "/Users/kristophm/Documents/workspace/zorro-protocol/contracts/vaults/mocks/MockVaultStandardAMM.sol",
  "compiler": {
    "name": "solc",
    "version": "0.8.10+commit.fc410830.Emscripten.clang"
  },
  "schemaVersion": "3.4.10",
  "updatedAt": "2022-11-11T13:38:58.719Z",
  "devdoc": {
    "kind": "dev",
    "methods": {
      "depositWantToken(uint256)": {
        "params": {
          "_wantAmt": "The amount of Want token to deposit (must already be transferred)"
        },
        "returns": {
          "sharesAdded": "Number of shares added"
        }
      },
      "earn(uint256)": {
        "params": {
          "_maxMarketMovementAllowed": "The max slippage allowed. 1000 = 0 %, 995 = 0.5%, etc."
        }
      },
      "exchangeUSDForWantToken(uint256,uint256)": {
        "params": {
          "_amountUSD": "The amount of USD to exchange for Want token (must already be deposited on this contract)",
          "_maxMarketMovementAllowed": "The max slippage allowed. 1000 = 0 %, 995 = 0.5%, etc."
        },
        "returns": {
          "_0": "uint256 Amount of Want token obtained"
        }
      },
      "exchangeWantTokenForUSD(uint256,uint256)": {
        "params": {
          "_amount": "The Want token quantity to exchange",
          "_maxMarketMovementAllowed": "The max slippage allowed for swaps. 1000 = 0 %, 995 = 0.5%, etc."
        },
        "returns": {
          "_0": "uint256 Amount of USD token obtained"
        }
      },
      "inCaseTokensGetStuck(address,uint256,address)": {
        "params": {
          "_amount": "The amount of the tokens to transfer",
          "_to": "The address to transfer tokens to",
          "_token": "Address of the ERC20 token to transfer"
        }
      },
      "initialize(address,(uint256,bool,bool,(address,address,address,address,address,address,address,address,address,address,address,address,address,address,address,address),address[],address[],address[],address[],address[],address[],address[],(uint256,uint256,uint256,uint256,uint256),(address,address,address,address,address,address)))": {
        "params": {
          "_initValue": "A VaultStandardAMMInit struct with all constructor params",
          "_timelockOwner": "The designated timelock controller address to act as owner"
        }
      },
      "owner()": {
        "details": "Returns the address of the current owner."
      },
      "paused()": {
        "details": "Returns true if the contract is paused, and false otherwise."
      },
      "renounceOwnership()": {
        "details": "Leaves the contract without owner. It will not be possible to call `onlyOwner` functions anymore. Can only be called by the current owner. NOTE: Renouncing ownership will leave the contract without an owner, thereby removing any functionality that is only available to the owner."
      },
      "setFeeSettings(uint256,uint256,uint256,uint256,uint256)": {
        "params": {
          "_buyBackRate": "Buy back rate fee numerator",
          "_controllerFee": "Controller fee numerator",
          "_entranceFeeFactor": "Entrance fee numerator (higher means smaller percentage)",
          "_revShareRate": "Rev share rate fee numerator",
          "_withdrawFeeFactor": "Withdrawal fee numerator (higher means smaller percentage)"
        }
      },
      "setGov(address)": {
        "params": {
          "_govAddress": "The new gov address"
        }
      },
      "setOnlyGov(bool)": {
        "params": {
          "_onlyGov": "whether onlyGov should be enforced"
        }
      },
      "transferOwnership(address)": {
        "details": "Transfers ownership of the contract to a new account (`newOwner`). Can only be called by the current owner."
      },
      "withdrawWantToken(uint256)": {
        "params": {
          "_wantAmt": "The amount of Want token to withdraw"
        },
        "returns": {
          "sharesRemoved": "The number of shares removed"
        }
      }
    },
    "version": 1
  },
  "userdoc": {
    "kind": "user",
    "methods": {
      "depositWantToken(uint256)": {
        "notice": "Receives new deposits from user"
      },
      "earn(uint256)": {
        "notice": "The main compounding (earn) function. Reinvests profits since the last earn event."
      },
      "exchangeUSDForWantToken(uint256,uint256)": {
        "notice": "Performs necessary operations to convert USD into Want token and transfer back to sender"
      },
      "exchangeWantTokenForUSD(uint256,uint256)": {
        "notice": "Converts Want token back into USD to be ready for withdrawal, transfers back to sender"
      },
      "farm()": {
        "notice": "Public function for farming Want token."
      },
      "inCaseTokensGetStuck(address,uint256,address)": {
        "notice": "Safely transfer ERC20 tokens stuck in this contract to a specified address"
      },
      "initialize(address,(uint256,bool,bool,(address,address,address,address,address,address,address,address,address,address,address,address,address,address,address,address),address[],address[],address[],address[],address[],address[],address[],(uint256,uint256,uint256,uint256,uint256),(address,address,address,address,address,address)))": {
        "notice": "Upgradeable constructor"
      },
      "pause()": {
        "notice": "Pause contract"
      },
      "setFeeSettings(uint256,uint256,uint256,uint256,uint256)": {
        "notice": "Configure key fee parameters"
      },
      "setGov(address)": {
        "notice": "Set governor address"
      },
      "setOnlyGov(bool)": {
        "notice": "Set onlyGov property"
      },
      "unpause()": {
        "notice": "Unpause contract"
      },
      "withdrawWantToken(uint256)": {
        "notice": "Fully withdraw Want tokens from the Farm contract (100% withdrawals only)"
      }
    },
    "version": 1
  }
}