{
  "contractName": "MockPriceUSDC",
  "abi": [
    {
      "inputs": [],
      "name": "decimals",
      "outputs": [
        {
          "internalType": "uint8",
          "name": "",
          "type": "uint8"
        }
      ],
      "stateMutability": "view",
      "type": "function"
    },
    {
      "inputs": [],
      "name": "description",
      "outputs": [
        {
          "internalType": "string",
          "name": "",
          "type": "string"
        }
      ],
      "stateMutability": "view",
      "type": "function"
    },
    {
      "inputs": [
        {
          "internalType": "uint80",
          "name": "_roundId",
          "type": "uint80"
        }
      ],
      "name": "getRoundData",
      "outputs": [
        {
          "internalType": "uint80",
          "name": "roundId",
          "type": "uint80"
        },
        {
          "internalType": "int256",
          "name": "answer",
          "type": "int256"
        },
        {
          "internalType": "uint256",
          "name": "startedAt",
          "type": "uint256"
        },
        {
          "internalType": "uint256",
          "name": "updatedAt",
          "type": "uint256"
        },
        {
          "internalType": "uint80",
          "name": "answeredInRound",
          "type": "uint80"
        }
      ],
      "stateMutability": "view",
      "type": "function"
    },
    {
      "inputs": [],
      "name": "latestRoundData",
      "outputs": [
        {
          "internalType": "uint80",
          "name": "roundId",
          "type": "uint80"
        },
        {
          "internalType": "int256",
          "name": "answer",
          "type": "int256"
        },
        {
          "internalType": "uint256",
          "name": "startedAt",
          "type": "uint256"
        },
        {
          "internalType": "uint256",
          "name": "updatedAt",
          "type": "uint256"
        },
        {
          "internalType": "uint80",
          "name": "answeredInRound",
          "type": "uint80"
        }
      ],
      "stateMutability": "view",
      "type": "function"
    },
    {
      "inputs": [
        {
          "internalType": "int256",
          "name": "_ans",
          "type": "int256"
        }
      ],
      "name": "setAnswer",
      "outputs": [],
      "stateMutability": "nonpayable",
      "type": "function"
    },
    {
      "inputs": [
        {
          "internalType": "uint8",
          "name": "_dec",
          "type": "uint8"
        }
      ],
      "name": "setDecimals",
      "outputs": [],
      "stateMutability": "nonpayable",
      "type": "function"
    },
    {
      "inputs": [],
      "name": "version",
      "outputs": [
        {
          "internalType": "uint256",
          "name": "",
          "type": "uint256"
        }
      ],
      "stateMutability": "view",
      "type": "function"
    }
  ],
  "bytecode": "0x608060405234801561001057600080fd5b506000805460ff19166012179055670de0b6b3a7640000600455610390806100396000396000f3fe608060405234801561001057600080fd5b506004361061009a576000357c0100000000000000000000000000000000000000000000000000000000900480637a1395aa116100785780637a1395aa146100ef57806399213cd8146101155780639a6fc8f514610128578063feaf968c1461019057600080fd5b8063313ce5671461009f57806354fd4d50146100c35780637284e416146100da575b600080fd5b6000546100ac9060ff1681565b60405160ff90911681526020015b60405180910390f35b6100cc60025481565b6040519081526020016100ba565b6100e26101b4565b6040516100ba9190610242565b6101136100fd366004610297565b6000805460ff191660ff92909216919091179055565b005b6101136101233660046102c1565b600455565b6101596101363660046102da565b600454600554600654600754939492939192909169ffffffffffffffffffff1690565b6040805169ffffffffffffffffffff968716815260208101959095528401929092526060830152909116608082015260a0016100ba565b60035460045460055460065460075469ffffffffffffffffffff9485169416610159565b600180546101c190610306565b80601f01602080910402602001604051908101604052809291908181526020018280546101ed90610306565b801561023a5780601f1061020f5761010080835404028352916020019161023a565b820191906000526020600020905b81548152906001019060200180831161021d57829003601f168201915b505050505081565b600060208083528351808285015260005b8181101561026f57858101830151858201604001528201610253565b81811115610281576000604083870101525b50601f01601f1916929092016040019392505050565b6000602082840312156102a957600080fd5b813560ff811681146102ba57600080fd5b9392505050565b6000602082840312156102d357600080fd5b5035919050565b6000602082840312156102ec57600080fd5b813569ffffffffffffffffffff811681146102ba57600080fd5b60028104600182168061031a57607f821691505b60208210811415610354577f4e487b7100000000000000000000000000000000000000000000000000000000600052602260045260246000fd5b5091905056fea2646970667358221220bb2674c2aab3e02b5a9e4f342e907c22f851e75d6951499f7f6a68131e58f85664736f6c634300080a0033",
  "immutableReferences": {},
  "source": "// SPDX-License-Identifier: MIT\n\npragma solidity ^0.8.0;\n\nimport \"../PriceFeed.sol\";\n\nimport \"../../interfaces/IAMMRouter02.sol\";\n\n/// @title MockPriceFeed: Mock contract for testing the PriceFeed library\ncontract MockPriceFeed {\n    using PriceFeed for AggregatorV3Interface;\n\n    function getExchangeRate(address _priceFeed)\n        public\n        view\n        returns (uint256)\n    {\n        return AggregatorV3Interface(_priceFeed).getExchangeRate();\n    }\n}\n\ncontract MockAggregatorV3 is AggregatorV3Interface {\n    constructor() {\n        decimals = 18;\n        _answer = 1e18;\n    }\n\n    uint8 public decimals;\n    string public description;\n    uint256 public version;\n    uint80 internal _rid;\n    int256 internal _answer;\n    uint256 internal _startedAt;\n    uint256 internal _updatedAt;\n    uint80 internal _answeredInRound;\n\n    function setDecimals(uint8 _dec) public {\n        decimals = _dec;\n    }\n\n    function setAnswer(int256 _ans) public {\n        _answer = _ans;\n    }\n\n    // getRoundData and latestRoundData should both raise \"No data present\"\n    // if they do not have data to report, instead of returning unset values\n    // which could be misinterpreted as actual reported values.\n    function getRoundData(uint80 _roundId)\n        external\n        view\n        returns (\n            uint80 roundId,\n            int256 answer,\n            uint256 startedAt,\n            uint256 updatedAt,\n            uint80 answeredInRound\n        )\n    {\n        return (\n            _roundId,\n            _answer,\n            _startedAt,\n            _updatedAt,\n            _answeredInRound\n        );\n    }\n\n    function latestRoundData()\n        external\n        view\n        returns (\n            uint80 roundId,\n            int256 answer,\n            uint256 startedAt,\n            uint256 updatedAt,\n            uint80 answeredInRound\n        )\n    {\n        return (\n            _rid,\n            _answer,\n            _startedAt,\n            _updatedAt,\n            _answeredInRound\n        );\n    }\n}\n\ncontract MockPriceAggToken0 is MockAggregatorV3 {}\ncontract MockPriceAggToken1 is MockAggregatorV3 {}\ncontract MockPriceAggEarnToken is MockAggregatorV3 {}\ncontract MockPriceAggZOR is MockAggregatorV3 {}\ncontract MockPriceAggLPOtherToken is MockAggregatorV3 {}\ncontract MockPriceUSDC is MockAggregatorV3 {}\ncontract MockPriceBUSD is MockAggregatorV3 {}",
  "sourcePath": "/Users/kristophm/Documents/workspace/zorro-protocol/contracts/libraries/mocks/MockPriceFeed.sol",
  "compiler": {
    "name": "solc",
    "version": "0.8.10+commit.fc410830.Emscripten.clang"
  },
  "schemaVersion": "3.4.10",
  "updatedAt": "2022-12-12T21:56:16.421Z",
  "devdoc": {
    "kind": "dev",
    "methods": {},
    "version": 1
  },
  "userdoc": {
    "kind": "user",
    "methods": {},
    "version": 1
  }
}