{
  "contractName": "MockStargateLPStaking",
  "abi": [
    {
      "anonymous": false,
      "inputs": [
        {
          "indexed": true,
          "internalType": "address",
          "name": "_want",
          "type": "address"
        },
        {
          "indexed": true,
          "internalType": "uint256",
          "name": "_amount",
          "type": "uint256"
        }
      ],
      "name": "Deposited",
      "type": "event"
    },
    {
      "anonymous": false,
      "inputs": [
        {
          "indexed": true,
          "internalType": "address",
          "name": "_want",
          "type": "address"
        },
        {
          "indexed": true,
          "internalType": "uint256",
          "name": "_amount",
          "type": "uint256"
        }
      ],
      "name": "Withdrew",
      "type": "event"
    },
    {
      "inputs": [],
      "name": "burnAddress",
      "outputs": [
        {
          "internalType": "address",
          "name": "",
          "type": "address"
        }
      ],
      "stateMutability": "view",
      "type": "function"
    },
    {
      "inputs": [],
      "name": "wantToken",
      "outputs": [
        {
          "internalType": "address",
          "name": "",
          "type": "address"
        }
      ],
      "stateMutability": "view",
      "type": "function"
    },
    {
      "inputs": [
        {
          "internalType": "address",
          "name": "_wantToken",
          "type": "address"
        }
      ],
      "name": "setWantAddress",
      "outputs": [],
      "stateMutability": "nonpayable",
      "type": "function"
    },
    {
      "inputs": [
        {
          "internalType": "address",
          "name": "_burnAddress",
          "type": "address"
        }
      ],
      "name": "setBurnAddress",
      "outputs": [],
      "stateMutability": "nonpayable",
      "type": "function"
    },
    {
      "inputs": [
        {
          "internalType": "uint256",
          "name": "_pid",
          "type": "uint256"
        },
        {
          "internalType": "uint256",
          "name": "_amount",
          "type": "uint256"
        }
      ],
      "name": "deposit",
      "outputs": [],
      "stateMutability": "nonpayable",
      "type": "function"
    },
    {
      "inputs": [
        {
          "internalType": "uint256",
          "name": "_pid",
          "type": "uint256"
        },
        {
          "internalType": "uint256",
          "name": "_amount",
          "type": "uint256"
        }
      ],
      "name": "withdraw",
      "outputs": [],
      "stateMutability": "nonpayable",
      "type": "function"
    }
  ],
  "bytecode": "0x608060405234801561001057600080fd5b5061060b806100206000396000f3fe608060405234801561001057600080fd5b50600436106100625760003560e01c8063441a3e70146100675780634b0e72161461007c5780636183e804146100ac57806370d5ae05146100dc578063d23e04801461010b578063e2bbb1581461011e575b600080fd5b61007a6100753660046104ed565b610131565b005b61007a61008a36600461050f565b600080546001600160a01b0319166001600160a01b0392909216919091179055565b61007a6100ba36600461050f565b600180546001600160a01b0319166001600160a01b0392909216919091179055565b6000546100ef906001600160a01b031681565b6040516001600160a01b03909116815260200160405180910390f35b6001546100ef906001600160a01b031681565b61007a61012c3660046104ed565b6101d3565b6001546040516340c10f1960e01b8152336004820152602481018390526001600160a01b03909116906340c10f1990604401600060405180830381600087803b15801561017d57600080fd5b505af1158015610191573d6000803e3d6000fd5b50506001546040518493506001600160a01b0390911691507fb244b9a17ad633c6e83b7983ee04320484956a68ddbe96a0b70dfca1cf19d72390600090a35050565b6000546001546101f2916001600160a01b03918216913391168461022e565b60015460405182916001600160a01b0316907f2da466a7b24304f47e87fa2e1e5a81b9831ce54fec19055ce277ca2f39ba42c490600090a35050565b604080516001600160a01b0385811660248301528416604482015260648082018490528251808303909101815260849091019091526020810180516001600160e01b03166323b872dd60e01b17905261028890859061028e565b50505050565b60006102e3826040518060400160405280602081526020017f5361666545524332303a206c6f772d6c6576656c2063616c6c206661696c6564815250856001600160a01b031661036a9092919063ffffffff16565b80519091501561036557808060200190518101906103019190610538565b6103655760405162461bcd60e51b815260206004820152602a60248201527f5361666545524332303a204552433230206f7065726174696f6e20646964206e6044820152691bdd081cdd58d8d9595960b21b60648201526084015b60405180910390fd5b505050565b60606103798484600085610383565b90505b9392505050565b6060824710156103e45760405162461bcd60e51b815260206004820152602660248201527f416464726573733a20696e73756666696369656e742062616c616e636520666f6044820152651c8818d85b1b60d21b606482015260840161035c565b6001600160a01b0385163b61043b5760405162461bcd60e51b815260206004820152601d60248201527f416464726573733a2063616c6c20746f206e6f6e2d636f6e7472616374000000604482015260640161035c565b600080866001600160a01b031685876040516104579190610586565b60006040518083038185875af1925050503d8060008114610494576040519150601f19603f3d011682016040523d82523d6000602084013e610499565b606091505b50915091506104a98282866104b4565b979650505050505050565b606083156104c357508161037c565b8251156104d35782518084602001fd5b8160405162461bcd60e51b815260040161035c91906105a2565b6000806040838503121561050057600080fd5b50508035926020909101359150565b60006020828403121561052157600080fd5b81356001600160a01b038116811461037c57600080fd5b60006020828403121561054a57600080fd5b8151801515811461037c57600080fd5b60005b8381101561057557818101518382015260200161055d565b838111156102885750506000910152565b6000825161059881846020870161055a565b9190910192915050565b60208152600082518060208401526105c181604085016020870161055a565b601f01601f1916919091016040019291505056fea264697066735822122015125e9021b1e1f192a58c602082b159f59e36f7fa5a1e5cca79092ea13f644764736f6c634300080a0033",
  "immutableReferences": {},
  "source": "// SPDX-License-Identifier: MIT\n\npragma solidity ^0.8.0;\n\nimport \"../VaultStargate.sol\";\n\nimport \"../../tokens/mocks/MockToken.sol\";\n\nimport \"../VaultLibrary.sol\";\n\ncontract MockVaultStargate is VaultStargate {\n    function unfarm(uint256 _wantAmt) public {\n        _unfarm(_wantAmt);\n    }\n    \n    function swapEarnedToUSD(\n        uint256 _earnedAmount,\n        address _destination,\n        uint256 _maxMarketMovementAllowed,\n        VaultLibrary.ExchangeRates memory _rates\n    ) public {\n        _swapEarnedToUSD(_earnedAmount, _destination, _maxMarketMovementAllowed, _rates);\n    }\n\n    function revShareOnChain(\n        uint256 _amount,\n        uint256 _maxMarketMovementAllowed,\n        VaultLibrary.ExchangeRates memory _rates\n    ) public {\n        _revShareOnChain(_amount, _maxMarketMovementAllowed, _rates);\n    }\n\n    function buybackOnChain(\n        uint256 _amount,\n        uint256 _maxMarketMovementAllowed,\n        VaultLibrary.ExchangeRates memory _rates\n    ) public {\n        _buybackOnChain(_amount, _maxMarketMovementAllowed, _rates);\n    }\n}\n\ncontract MockStargateRouter is IStargateRouter, MockERC20Upgradeable {\n    using SafeERC20Upgradeable for IERC20Upgradeable;\n\n    address public burnAddress;\n    address public stargatePool;\n    address public asset;\n    uint256 private _dummy; // Satisfy compiler state mutability warnings\n\n    function setBurnAddress(address _burnAddress) public {\n        burnAddress = _burnAddress;\n    }\n\n    function setStargatePool(address _pool) public {\n        stargatePool = _pool;\n    }\n\n    function setAsset(address _token) public {\n        asset = _token;\n    }\n\n    event SwappedToken(\n        address indexed _dest,\n        uint256 indexed _amountIn,\n        uint256 indexed _amountOutMin\n    );\n\n    event AddedLiquidity(uint256 indexed _amount, uint256 indexed _liquidity);\n\n    event RemovedLiquidity(uint256 indexed _amount);\n\n    event SgSwapped(uint256 indexed _chainId, uint256 indexed _qty, bytes indexed _dstContract);\n\n    function addLiquidity(\n        uint256 _poolId,\n        uint256 _amountLD,\n        address _to\n    ) external {\n        // Reqs\n        require(_poolId >= 0);\n\n        // Transfer funds & burn\n        IERC20Upgradeable(asset).safeTransferFrom(\n            msg.sender,\n            burnAddress,\n            _amountLD\n        );\n\n        // Mint some LP token\n        uint256 _liquidity = 1 ether; // Hard code 1 token for simplicity\n        // Transfer LP token\n        IMockERC20Upgradeable(stargatePool).mint(_to, _liquidity);\n        // Log liquidity addition\n        emit AddedLiquidity(_amountLD, _liquidity);\n    }\n\n    function swap(\n        uint16 _dstChainId,\n        uint256 _srcPoolId,\n        uint256 _dstPoolId,\n        address payable _refundAddress,\n        uint256 _amountLD,\n        uint256 _minAmountLD,\n        lzTxObj memory _lzTxParams,\n        bytes calldata _to,\n        bytes calldata _payload\n    ) external payable {\n        // Reqs\n        require(_srcPoolId >= 0 && _dstPoolId >= 0);\n        require(_refundAddress != address(0));\n        require(_lzTxParams.dstGasForCall >= 0);\n        require(_payload.length >= 0);\n\n        // Transfer to burn\n        IERC20Upgradeable(asset).safeTransferFrom(msg.sender, burnAddress, _amountLD);\n        // Log\n        emit SgSwapped(_dstChainId, _minAmountLD, _to);\n    }\n\n    function redeemRemote(\n        uint16 _dstChainId,\n        uint256 _srcPoolId,\n        uint256 _dstPoolId,\n        address payable _refundAddress,\n        uint256 _amountLP,\n        uint256 _minAmountLD,\n        bytes calldata _to,\n        lzTxObj memory _lzTxParams\n    ) external payable {}\n\n    function instantRedeemLocal(\n        uint16 _srcPoolId,\n        uint256 _amountLP,\n        address _to\n    ) external returns (uint256) {\n        // Reqs\n        require(_srcPoolId >= 0);\n\n        // Safe transfer liquidity and burn\n        IERC20Upgradeable(stargatePool).safeTransferFrom(\n            msg.sender,\n            burnAddress,\n            _amountLP\n        );\n\n        // Mint asset token\n        uint256 _amount = 2 ether; // Hardcode for simplicity/testing\n        IMockERC20Upgradeable(asset).mint(_to, _amount);\n        // Log removed equidity\n        emit RemovedLiquidity(_amount);\n        // Return\n        return _amount;\n    }\n\n    function redeemLocal(\n        uint16 _dstChainId,\n        uint256 _srcPoolId,\n        uint256 _dstPoolId,\n        address payable _refundAddress,\n        uint256 _amountLP,\n        bytes calldata _to,\n        lzTxObj memory _lzTxParams\n    ) external payable {}\n\n    function sendCredits(\n        uint16 _dstChainId,\n        uint256 _srcPoolId,\n        uint256 _dstPoolId,\n        address payable _refundAddress\n    ) external payable {}\n\n    function quoteLayerZeroFee(\n        uint16 _dstChainId,\n        uint8 _functionType,\n        bytes calldata _toAddress,\n        bytes calldata _transferAndCallPayload,\n        lzTxObj memory _lzTxParams\n    ) external view returns (uint256, uint256) {\n        // Reqs\n        require(_dstChainId >= 0 && _functionType >= 0);\n        require(_toAddress.length >= 0 && _transferAndCallPayload.length >= 0);\n        require(_lzTxParams.dstGasForCall >= 0);\n        require(_dummy >= 0);\n\n        return (0.01 ether, 0.02 ether); // Hardcoded for tests\n    }\n}\n\ncontract MockStargatePool is MockERC20Upgradeable {}\n\ncontract MockStargateLPStaking is IStargateLPStaking {\n    using SafeERC20Upgradeable for IERC20Upgradeable;\n\n    event Deposited(address indexed _want, uint256 indexed _amount);\n    event Withdrew(address indexed _want, uint256 indexed _amount);\n\n    address public burnAddress;\n    address public wantToken;\n\n    function setWantAddress(address _wantToken) public {\n        wantToken = _wantToken;\n    }\n\n    function setBurnAddress(address _burnAddress) public {\n        burnAddress = _burnAddress;\n    }\n\n    function deposit(uint256 _pid, uint256 _amount) external {\n        // Reqs\n        require(_pid >= 0);\n\n        IERC20Upgradeable(wantToken).safeTransferFrom(msg.sender, burnAddress, _amount);\n        emit Deposited(wantToken, _amount);        \n    }\n\n    function withdraw(uint256 _pid, uint256 _amount) external {\n        // Reqs\n        require(_pid >= 0);\n\n        IMockERC20Upgradeable(wantToken).mint(msg.sender, _amount);\n        emit Withdrew(wantToken, _amount);\n    }\n}\n\ncontract MockSTGToken is MockERC20Upgradeable {}",
  "sourcePath": "/Users/kristophm/Documents/workspace/zorro-protocol/contracts/vaults/mocks/MockVaultStargate.sol",
  "compiler": {
    "name": "solc",
    "version": "0.8.10+commit.fc410830.Emscripten.clang"
  },
  "schemaVersion": "3.4.4",
  "updatedAt": "2022-11-09T13:03:18.650Z",
  "devdoc": {
    "kind": "dev",
    "methods": {},
    "version": 1
  },
  "userdoc": {
    "kind": "user",
    "methods": {},
    "version": 1
  }
}