{
  "contractName": "MockCustomMath",
  "abi": [
    {
      "inputs": [
        {
          "internalType": "uint256",
          "name": "x",
          "type": "uint256"
        }
      ],
      "name": "sqrt",
      "outputs": [
        {
          "internalType": "uint256",
          "name": "",
          "type": "uint256"
        }
      ],
      "stateMutability": "pure",
      "type": "function"
    }
  ],
  "bytecode": "0x608060405234801561001057600080fd5b506101c2806100206000396000f3fe608060405234801561001057600080fd5b5060043610610047577c01000000000000000000000000000000000000000000000000000000006000350463677342ce811461004c575b600080fd5b61005f61005a3660046100f9565b610071565b60405190815260200160405180910390f35b600061007c82610082565b92915050565b60008161009157506000919050565b600382116100a157506001919050565b600060026100b0846001610112565b6100ba9190610151565b90508291505b818110156100f3579050806002816100d88186610151565b6100e29190610112565b6100ec9190610151565b90506100c0565b50919050565b60006020828403121561010b57600080fd5b5035919050565b6000821982111561014c577f4e487b7100000000000000000000000000000000000000000000000000000000600052601160045260246000fd5b500190565b600082610187577f4e487b7100000000000000000000000000000000000000000000000000000000600052601260045260246000fd5b50049056fea264697066735822122009dbf539634700c086ec3283466d2e55b800d14891ffe4b4a1d0ef20be8f655264736f6c634300080a0033",
  "immutableReferences": {},
  "source": "// SPDX-License-Identifier: MIT\n\npragma solidity ^0.8.0;\n\nimport \"../Math.sol\";\n\n/// @title MockCustomMath: Mock contract for testing the CustomMath library\ncontract MockCustomMath {\n    using CustomMath for uint256;\n\n    function sqrt(uint256 x) public pure returns (uint256) {\n        return x.sqrt();\n    }\n}",
  "sourcePath": "/Users/kristophm/Documents/workspace/zorro-protocol/contracts/libraries/mocks/MockMath.sol",
  "compiler": {
    "name": "solc",
    "version": "0.8.10+commit.fc410830.Emscripten.clang"
  },
  "schemaVersion": "3.4.10",
  "updatedAt": "2022-11-16T16:38:22.303Z",
  "devdoc": {
    "kind": "dev",
    "methods": {},
    "title": "MockCustomMath: Mock contract for testing the CustomMath library",
    "version": 1
  },
  "userdoc": {
    "kind": "user",
    "methods": {},
    "version": 1
  }
}