{
  "contractName": "MockBUSD",
  "abi": [
    {
      "anonymous": false,
      "inputs": [
        {
          "indexed": true,
          "internalType": "address",
          "name": "owner",
          "type": "address"
        },
        {
          "indexed": true,
          "internalType": "address",
          "name": "spender",
          "type": "address"
        },
        {
          "indexed": false,
          "internalType": "uint256",
          "name": "value",
          "type": "uint256"
        }
      ],
      "name": "Approval",
      "type": "event"
    },
    {
      "anonymous": false,
      "inputs": [
        {
          "indexed": true,
          "internalType": "address",
          "name": "from",
          "type": "address"
        },
        {
          "indexed": true,
          "internalType": "address",
          "name": "to",
          "type": "address"
        },
        {
          "indexed": false,
          "internalType": "uint256",
          "name": "value",
          "type": "uint256"
        }
      ],
      "name": "Transfer",
      "type": "event"
    },
    {
      "inputs": [
        {
          "internalType": "address",
          "name": "owner",
          "type": "address"
        },
        {
          "internalType": "address",
          "name": "spender",
          "type": "address"
        }
      ],
      "name": "allowance",
      "outputs": [
        {
          "internalType": "uint256",
          "name": "",
          "type": "uint256"
        }
      ],
      "stateMutability": "view",
      "type": "function"
    },
    {
      "inputs": [
        {
          "internalType": "address",
          "name": "spender",
          "type": "address"
        },
        {
          "internalType": "uint256",
          "name": "amount",
          "type": "uint256"
        }
      ],
      "name": "approve",
      "outputs": [
        {
          "internalType": "bool",
          "name": "",
          "type": "bool"
        }
      ],
      "stateMutability": "nonpayable",
      "type": "function"
    },
    {
      "inputs": [
        {
          "internalType": "address",
          "name": "account",
          "type": "address"
        }
      ],
      "name": "balanceOf",
      "outputs": [
        {
          "internalType": "uint256",
          "name": "",
          "type": "uint256"
        }
      ],
      "stateMutability": "view",
      "type": "function"
    },
    {
      "inputs": [],
      "name": "decimals",
      "outputs": [
        {
          "internalType": "uint8",
          "name": "",
          "type": "uint8"
        }
      ],
      "stateMutability": "view",
      "type": "function"
    },
    {
      "inputs": [
        {
          "internalType": "address",
          "name": "spender",
          "type": "address"
        },
        {
          "internalType": "uint256",
          "name": "subtractedValue",
          "type": "uint256"
        }
      ],
      "name": "decreaseAllowance",
      "outputs": [
        {
          "internalType": "bool",
          "name": "",
          "type": "bool"
        }
      ],
      "stateMutability": "nonpayable",
      "type": "function"
    },
    {
      "inputs": [
        {
          "internalType": "address",
          "name": "spender",
          "type": "address"
        },
        {
          "internalType": "uint256",
          "name": "addedValue",
          "type": "uint256"
        }
      ],
      "name": "increaseAllowance",
      "outputs": [
        {
          "internalType": "bool",
          "name": "",
          "type": "bool"
        }
      ],
      "stateMutability": "nonpayable",
      "type": "function"
    },
    {
      "inputs": [
        {
          "internalType": "address",
          "name": "_account",
          "type": "address"
        },
        {
          "internalType": "uint256",
          "name": "_amount",
          "type": "uint256"
        }
      ],
      "name": "mint",
      "outputs": [],
      "stateMutability": "nonpayable",
      "type": "function"
    },
    {
      "inputs": [],
      "name": "name",
      "outputs": [
        {
          "internalType": "string",
          "name": "",
          "type": "string"
        }
      ],
      "stateMutability": "view",
      "type": "function"
    },
    {
      "inputs": [],
      "name": "symbol",
      "outputs": [
        {
          "internalType": "string",
          "name": "",
          "type": "string"
        }
      ],
      "stateMutability": "view",
      "type": "function"
    },
    {
      "inputs": [],
      "name": "totalSupply",
      "outputs": [
        {
          "internalType": "uint256",
          "name": "",
          "type": "uint256"
        }
      ],
      "stateMutability": "view",
      "type": "function"
    },
    {
      "inputs": [
        {
          "internalType": "address",
          "name": "to",
          "type": "address"
        },
        {
          "internalType": "uint256",
          "name": "amount",
          "type": "uint256"
        }
      ],
      "name": "transfer",
      "outputs": [
        {
          "internalType": "bool",
          "name": "",
          "type": "bool"
        }
      ],
      "stateMutability": "nonpayable",
      "type": "function"
    },
    {
      "inputs": [
        {
          "internalType": "address",
          "name": "from",
          "type": "address"
        },
        {
          "internalType": "address",
          "name": "to",
          "type": "address"
        },
        {
          "internalType": "uint256",
          "name": "amount",
          "type": "uint256"
        }
      ],
      "name": "transferFrom",
      "outputs": [
        {
          "internalType": "bool",
          "name": "",
          "type": "bool"
        }
      ],
      "stateMutability": "nonpayable",
      "type": "function"
    }
  ],
  "bytecode": "0x608060405234801561001057600080fd5b50610ad7806100206000396000f3fe608060405234801561001057600080fd5b50600436106100d1576000357c01000000000000000000000000000000000000000000000000000000009004806340c10f191161008e57806340c10f191461015e57806370a082311461017357806395d89b411461019c578063a457c2d7146101a4578063a9059cbb146101b7578063dd62ed3e146101ca57600080fd5b806306fdde03146100d6578063095ea7b3146100f457806318160ddd1461011757806323b872dd14610129578063313ce5671461013c578063395093511461014b575b600080fd5b6100de610203565b6040516100eb91906108e2565b60405180910390f35b610107610102366004610953565b610295565b60405190151581526020016100eb565b6035545b6040519081526020016100eb565b61010761013736600461097d565b6102ad565b604051601281526020016100eb565b610107610159366004610953565b6102d1565b61017161016c366004610953565b610310565b005b61011b6101813660046109b9565b600160a060020a031660009081526033602052604090205490565b6100de61031e565b6101076101b2366004610953565b61032d565b6101076101c5366004610953565b6103df565b61011b6101d83660046109db565b600160a060020a03918216600090815260346020908152604080832093909416825291909152205490565b60606036805461021290610a0e565b80601f016020809104026020016040519081016040528092919081815260200182805461023e90610a0e565b801561028b5780601f106102605761010080835404028352916020019161028b565b820191906000526020600020905b81548152906001019060200180831161026e57829003601f168201915b5050505050905090565b6000336102a38185856103ed565b5060019392505050565b6000336102bb85828561054b565b6102c68585856105e0565b506001949350505050565b336000818152603460209081526040808320600160a060020a03871684529091528120549091906102a3908290869061030b908790610a62565b6103ed565b61031a8282610800565b5050565b60606037805461021290610a0e565b336000818152603460209081526040808320600160a060020a0387168452909152812054909190838110156103d25760405160e560020a62461bcd02815260206004820152602560248201527f45524332303a2064656372656173656420616c6c6f77616e63652062656c6f7760448201527f207a65726f00000000000000000000000000000000000000000000000000000060648201526084015b60405180910390fd5b6102c682868684036103ed565b6000336102a38185856105e0565b600160a060020a03831661046b5760405160e560020a62461bcd028152602060048201526024808201527f45524332303a20617070726f76652066726f6d20746865207a65726f2061646460448201527f726573730000000000000000000000000000000000000000000000000000000060648201526084016103c9565b600160a060020a0382166104ea5760405160e560020a62461bcd02815260206004820152602260248201527f45524332303a20617070726f766520746f20746865207a65726f20616464726560448201527f737300000000000000000000000000000000000000000000000000000000000060648201526084016103c9565b600160a060020a0383811660008181526034602090815260408083209487168084529482529182902085905590518481527f8c5be1e5ebec7d5bd14f71427d1e84f3dd0314c0f7b2291e5b200ac8c7c3b925910160405180910390a3505050565b600160a060020a0383811660009081526034602090815260408083209386168352929052205460001981146105da57818110156105cd5760405160e560020a62461bcd02815260206004820152601d60248201527f45524332303a20696e73756666696369656e7420616c6c6f77616e636500000060448201526064016103c9565b6105da84848484036103ed565b50505050565b600160a060020a03831661065f5760405160e560020a62461bcd02815260206004820152602560248201527f45524332303a207472616e736665722066726f6d20746865207a65726f20616460448201527f647265737300000000000000000000000000000000000000000000000000000060648201526084016103c9565b600160a060020a0382166106de5760405160e560020a62461bcd02815260206004820152602360248201527f45524332303a207472616e7366657220746f20746865207a65726f206164647260448201527f657373000000000000000000000000000000000000000000000000000000000060648201526084016103c9565b600160a060020a038316600090815260336020526040902054818110156107705760405160e560020a62461bcd02815260206004820152602660248201527f45524332303a207472616e7366657220616d6f756e742065786365656473206260448201527f616c616e6365000000000000000000000000000000000000000000000000000060648201526084016103c9565b600160a060020a038085166000908152603360205260408082208585039055918516815290812080548492906107a7908490610a62565b9250508190555082600160a060020a031684600160a060020a03167fddf252ad1be2c89b69c2b068fc378daa952ba7f163c4a11628f55a4df523b3ef846040516107f391815260200190565b60405180910390a36105da565b600160a060020a0382166108595760405160e560020a62461bcd02815260206004820152601f60248201527f45524332303a206d696e7420746f20746865207a65726f20616464726573730060448201526064016103c9565b806035600082825461086b9190610a62565b9091555050600160a060020a03821660009081526033602052604081208054839290610898908490610a62565b9091555050604051818152600160a060020a038316906000907fddf252ad1be2c89b69c2b068fc378daa952ba7f163c4a11628f55a4df523b3ef9060200160405180910390a35050565b600060208083528351808285015260005b8181101561090f578581018301518582016040015282016108f3565b81811115610921576000604083870101525b50601f01601f1916929092016040019392505050565b8035600160a060020a038116811461094e57600080fd5b919050565b6000806040838503121561096657600080fd5b61096f83610937565b946020939093013593505050565b60008060006060848603121561099257600080fd5b61099b84610937565b92506109a960208501610937565b9150604084013590509250925092565b6000602082840312156109cb57600080fd5b6109d482610937565b9392505050565b600080604083850312156109ee57600080fd5b6109f783610937565b9150610a0560208401610937565b90509250929050565b600281046001821680610a2257607f821691505b60208210811415610a5c577f4e487b7100000000000000000000000000000000000000000000000000000000600052602260045260246000fd5b50919050565b60008219821115610a9c577f4e487b7100000000000000000000000000000000000000000000000000000000600052601160045260246000fd5b50019056fea264697066735822122061015773a7901f0b62298cfba97803c546f95a1fba62ca6704cb2b8f927e3b5464736f6c634300080a0033",
  "immutableReferences": {},
  "source": "// SPDX-License-Identifier: MIT\n\npragma solidity ^0.8.0;\n\nimport \"../VaultAlpaca.sol\";\n\nimport \"../../tokens/mocks/MockToken.sol\";\n\nimport \"../../interfaces/Alpaca/IAlpacaFairLaunch.sol\";\n\nimport \"../../interfaces/Alpaca/IAlpacaVault.sol\";\n\ncontract MockVaultAlpaca is VaultAlpaca {\n    function unfarm(uint256 _wantAmt) public {\n        _unfarm(_wantAmt);\n    }\n}\n\ncontract MockAlpacaVault is IAlpacaVault, MockERC20Upgradeable {\n    using SafeERC20Upgradeable for IERC20Upgradeable;\n\n    event AddedLiquidity(uint256 _amount, uint256 _liquidity);\n    event RemovedLiquidity(uint256 _amount);\n\n    address public token0;\n    address public burnAddress;\n    uint256 private _dummy;\n\n    function setToken0Address(address _token) public {\n        token0 = _token;\n    }\n\n    function setBurnAddress(address _burn) public {\n        burnAddress = _burn;\n    }\n\n    function totalToken() external view returns (uint256) {\n        require(_dummy>=0);\n        return 0;\n    }\n\n    function deposit(uint256 _amount) public payable {\n        IERC20Upgradeable(token0).safeTransferFrom(\n            msg.sender,\n            address(this),\n            _amount\n        );\n        uint256 _liquidity = 1 ether; // Hard code for tests\n        _mint(msg.sender, _liquidity);\n        emit AddedLiquidity(_amount, _liquidity);\n    }\n\n    function withdraw(uint256 _shares) public {\n        IERC20Upgradeable(address(this)).safeTransferFrom(\n            msg.sender,\n            burnAddress,\n            _shares\n        );\n        uint256 _withdrawalAmt = 2 ether; // Hard code for tests\n        IMockERC20Upgradeable(token0).mint(msg.sender, _withdrawalAmt);\n        emit RemovedLiquidity(_withdrawalAmt);\n    }\n\n    function requestFunds(address targetedToken, uint256 amount) external {}\n\n    function token() external view returns (address) {\n        require(_dummy>=0);\n        return address(0);\n    }\n}\n\ncontract MockAlpacaFarm is IFairLaunch, MockERC20Upgradeable {\n    using SafeERC20Upgradeable for IERC20Upgradeable;\n\n    event Deposited(address indexed _want, uint256 indexed _amount);\n    event Withdrew(address indexed _want, uint256 indexed _amount);\n\n    address public burnAddress;\n    address public wantToken;\n    uint256 private _dummy;\n\n    function setWantAddress(address _wantToken) public {\n        wantToken = _wantToken;\n    }\n\n    function setBurnAddress(address _burnAddress) public {\n        burnAddress = _burnAddress;\n    }\n\n    function poolLength() external view returns (uint256) {\n        require(_dummy>=0);\n        return 0;\n    }\n\n    function addPool(\n        uint256 _allocPoint,\n        address _stakeToken,\n        bool _withUpdate\n    ) external {}\n\n    function setPool(\n        uint256 _pid,\n        uint256 _allocPoint,\n        bool _withUpdate\n    ) external {}\n\n    function pendingAlpaca(uint256 _pid, address _user)\n        external\n        view\n        returns (uint256)\n    {\n        require(_dummy>=0);\n        require(_pid>=0);\n        require(_user != address(0));\n        return 0;\n    }\n\n    function updatePool(uint256 _pid) external {}\n\n    function deposit(\n        address _for,\n        uint256 _pid,\n        uint256 _amount\n    ) public {\n        require(_for != address(0));\n        require(_pid>=0);\n        IERC20Upgradeable(wantToken).safeTransferFrom(\n            msg.sender,\n            burnAddress,\n            _amount\n        );\n        emit Deposited(wantToken, _amount);\n    }\n\n    function withdraw(\n        address _for,\n        uint256 _pid,\n        uint256 _amount\n    ) public {\n        require(_pid>=0);\n        IMockERC20Upgradeable(wantToken).mint(_for, _amount);\n        emit Withdrew(wantToken, _amount);\n    }\n\n    function withdrawAll(address _for, uint256 _pid) external {}\n\n  function harvest(uint256 _pid) external {}\n\n  function getFairLaunchPoolId() external returns (uint256) {\n    require(_dummy>=0);\n    _dummy = 1;\n    return 0;\n  }\n\n  function poolInfo(uint256 _pid)\n    external\n    view\n    returns (\n      address,\n      uint256,\n      uint256,\n      uint256,\n      uint256\n    ) {\n        require(_pid>=0);\n        require(_dummy>=0);\n        return (address(0), 0, 0, 0, 0);\n    }\n\n  function alpaca() external returns (address) {\n    _dummy = 1;\n    return address(0);\n  }\n\n  function userInfo(uint256 _pid, address _user)\n    external\n    view\n    returns (\n      uint256,\n      uint256,\n      uint256,\n      address\n    ) {\n        require(_dummy>=0);\n        require(_pid>=0);\n        require(_user != address(0));\n        return (0, 0, 0, address(0));\n    }\n\n  function emergencyWithdraw(uint256 _pid) external {}\n}\n\ncontract MockBUSD is MockERC20Upgradeable {}\n\ncontract MockAlpaca is MockERC20Upgradeable {}\n",
  "sourcePath": "/Users/kristophm/Documents/workspace/zorro-protocol/contracts/vaults/mocks/MockVaultAlpaca.sol",
  "compiler": {
    "name": "solc",
    "version": "0.8.10+commit.fc410830.Emscripten.clang"
  },
  "schemaVersion": "3.4.10",
  "updatedAt": "2022-11-26T22:09:35.095Z",
  "devdoc": {
    "kind": "dev",
    "methods": {
      "allowance(address,address)": {
        "details": "See {IERC20-allowance}."
      },
      "approve(address,uint256)": {
        "details": "See {IERC20-approve}. NOTE: If `amount` is the maximum `uint256`, the allowance is not updated on `transferFrom`. This is semantically equivalent to an infinite approval. Requirements: - `spender` cannot be the zero address."
      },
      "balanceOf(address)": {
        "details": "See {IERC20-balanceOf}."
      },
      "decimals()": {
        "details": "Returns the number of decimals used to get its user representation. For example, if `decimals` equals `2`, a balance of `505` tokens should be displayed to a user as `5.05` (`505 / 10 ** 2`). Tokens usually opt for a value of 18, imitating the relationship between Ether and Wei. This is the value {ERC20} uses, unless this function is overridden; NOTE: This information is only used for _display_ purposes: it in no way affects any of the arithmetic of the contract, including {IERC20-balanceOf} and {IERC20-transfer}."
      },
      "decreaseAllowance(address,uint256)": {
        "details": "Atomically decreases the allowance granted to `spender` by the caller. This is an alternative to {approve} that can be used as a mitigation for problems described in {IERC20-approve}. Emits an {Approval} event indicating the updated allowance. Requirements: - `spender` cannot be the zero address. - `spender` must have allowance for the caller of at least `subtractedValue`."
      },
      "increaseAllowance(address,uint256)": {
        "details": "Atomically increases the allowance granted to `spender` by the caller. This is an alternative to {approve} that can be used as a mitigation for problems described in {IERC20-approve}. Emits an {Approval} event indicating the updated allowance. Requirements: - `spender` cannot be the zero address."
      },
      "name()": {
        "details": "Returns the name of the token."
      },
      "symbol()": {
        "details": "Returns the symbol of the token, usually a shorter version of the name."
      },
      "totalSupply()": {
        "details": "See {IERC20-totalSupply}."
      },
      "transfer(address,uint256)": {
        "details": "See {IERC20-transfer}. Requirements: - `to` cannot be the zero address. - the caller must have a balance of at least `amount`."
      },
      "transferFrom(address,address,uint256)": {
        "details": "See {IERC20-transferFrom}. Emits an {Approval} event indicating the updated allowance. This is not required by the EIP. See the note at the beginning of {ERC20}. NOTE: Does not update the allowance if the current allowance is the maximum `uint256`. Requirements: - `from` and `to` cannot be the zero address. - `from` must have a balance of at least `amount`. - the caller must have allowance for ``from``'s tokens of at least `amount`."
      }
    },
    "version": 1
  },
  "userdoc": {
    "kind": "user",
    "methods": {},
    "version": 1
  }
}