{
  "contractName": "MockLayerZeroEndpoint",
  "abi": [
    {
      "inputs": [
        {
          "internalType": "uint16",
          "name": "_dstChainId",
          "type": "uint16"
        },
        {
          "internalType": "bytes",
          "name": "_destination",
          "type": "bytes"
        },
        {
          "internalType": "bytes",
          "name": "_payload",
          "type": "bytes"
        },
        {
          "internalType": "address payable",
          "name": "_refundAddress",
          "type": "address"
        },
        {
          "internalType": "address",
          "name": "_zroPaymentAddress",
          "type": "address"
        },
        {
          "internalType": "bytes",
          "name": "_adapterParams",
          "type": "bytes"
        }
      ],
      "name": "send",
      "outputs": [],
      "stateMutability": "payable",
      "type": "function",
      "payable": true
    },
    {
      "inputs": [
        {
          "internalType": "uint16",
          "name": "_srcChainId",
          "type": "uint16"
        },
        {
          "internalType": "bytes",
          "name": "_srcAddress",
          "type": "bytes"
        },
        {
          "internalType": "address",
          "name": "_dstAddress",
          "type": "address"
        },
        {
          "internalType": "uint64",
          "name": "_nonce",
          "type": "uint64"
        },
        {
          "internalType": "uint256",
          "name": "_gasLimit",
          "type": "uint256"
        },
        {
          "internalType": "bytes",
          "name": "_payload",
          "type": "bytes"
        }
      ],
      "name": "receivePayload",
      "outputs": [],
      "stateMutability": "nonpayable",
      "type": "function"
    },
    {
      "inputs": [
        {
          "internalType": "uint16",
          "name": "_srcChainId",
          "type": "uint16"
        },
        {
          "internalType": "bytes",
          "name": "_srcAddress",
          "type": "bytes"
        }
      ],
      "name": "getInboundNonce",
      "outputs": [
        {
          "internalType": "uint64",
          "name": "",
          "type": "uint64"
        }
      ],
      "stateMutability": "view",
      "type": "function",
      "constant": true
    },
    {
      "inputs": [
        {
          "internalType": "uint16",
          "name": "_dstChainId",
          "type": "uint16"
        },
        {
          "internalType": "address",
          "name": "_srcAddress",
          "type": "address"
        }
      ],
      "name": "getOutboundNonce",
      "outputs": [
        {
          "internalType": "uint64",
          "name": "",
          "type": "uint64"
        }
      ],
      "stateMutability": "view",
      "type": "function",
      "constant": true
    },
    {
      "inputs": [
        {
          "internalType": "uint16",
          "name": "_dstChainId",
          "type": "uint16"
        },
        {
          "internalType": "address",
          "name": "_userApplication",
          "type": "address"
        },
        {
          "internalType": "bytes",
          "name": "_payload",
          "type": "bytes"
        },
        {
          "internalType": "bool",
          "name": "_payInZRO",
          "type": "bool"
        },
        {
          "internalType": "bytes",
          "name": "_adapterParam",
          "type": "bytes"
        }
      ],
      "name": "estimateFees",
      "outputs": [
        {
          "internalType": "uint256",
          "name": "nativeFee",
          "type": "uint256"
        },
        {
          "internalType": "uint256",
          "name": "zroFee",
          "type": "uint256"
        }
      ],
      "stateMutability": "view",
      "type": "function",
      "constant": true
    },
    {
      "inputs": [],
      "name": "getChainId",
      "outputs": [
        {
          "internalType": "uint16",
          "name": "",
          "type": "uint16"
        }
      ],
      "stateMutability": "view",
      "type": "function",
      "constant": true
    },
    {
      "inputs": [
        {
          "internalType": "uint16",
          "name": "_srcChainId",
          "type": "uint16"
        },
        {
          "internalType": "bytes",
          "name": "_srcAddress",
          "type": "bytes"
        },
        {
          "internalType": "bytes",
          "name": "_payload",
          "type": "bytes"
        }
      ],
      "name": "retryPayload",
      "outputs": [],
      "stateMutability": "nonpayable",
      "type": "function"
    },
    {
      "inputs": [
        {
          "internalType": "uint16",
          "name": "_srcChainId",
          "type": "uint16"
        },
        {
          "internalType": "bytes",
          "name": "_srcAddress",
          "type": "bytes"
        }
      ],
      "name": "hasStoredPayload",
      "outputs": [
        {
          "internalType": "bool",
          "name": "",
          "type": "bool"
        }
      ],
      "stateMutability": "view",
      "type": "function",
      "constant": true
    },
    {
      "inputs": [
        {
          "internalType": "address",
          "name": "_userApplication",
          "type": "address"
        }
      ],
      "name": "getSendLibraryAddress",
      "outputs": [
        {
          "internalType": "address",
          "name": "",
          "type": "address"
        }
      ],
      "stateMutability": "view",
      "type": "function",
      "constant": true
    },
    {
      "inputs": [
        {
          "internalType": "address",
          "name": "_userApplication",
          "type": "address"
        }
      ],
      "name": "getReceiveLibraryAddress",
      "outputs": [
        {
          "internalType": "address",
          "name": "",
          "type": "address"
        }
      ],
      "stateMutability": "view",
      "type": "function",
      "constant": true
    },
    {
      "inputs": [],
      "name": "isSendingPayload",
      "outputs": [
        {
          "internalType": "bool",
          "name": "",
          "type": "bool"
        }
      ],
      "stateMutability": "view",
      "type": "function",
      "constant": true
    },
    {
      "inputs": [],
      "name": "isReceivingPayload",
      "outputs": [
        {
          "internalType": "bool",
          "name": "",
          "type": "bool"
        }
      ],
      "stateMutability": "view",
      "type": "function",
      "constant": true
    },
    {
      "inputs": [
        {
          "internalType": "uint16",
          "name": "_version",
          "type": "uint16"
        },
        {
          "internalType": "uint16",
          "name": "_chainId",
          "type": "uint16"
        },
        {
          "internalType": "address",
          "name": "_userApplication",
          "type": "address"
        },
        {
          "internalType": "uint256",
          "name": "_configType",
          "type": "uint256"
        }
      ],
      "name": "getConfig",
      "outputs": [
        {
          "internalType": "bytes",
          "name": "",
          "type": "bytes"
        }
      ],
      "stateMutability": "view",
      "type": "function",
      "constant": true
    },
    {
      "inputs": [
        {
          "internalType": "address",
          "name": "_userApplication",
          "type": "address"
        }
      ],
      "name": "getSendVersion",
      "outputs": [
        {
          "internalType": "uint16",
          "name": "",
          "type": "uint16"
        }
      ],
      "stateMutability": "view",
      "type": "function",
      "constant": true
    },
    {
      "inputs": [
        {
          "internalType": "address",
          "name": "_userApplication",
          "type": "address"
        }
      ],
      "name": "getReceiveVersion",
      "outputs": [
        {
          "internalType": "uint16",
          "name": "",
          "type": "uint16"
        }
      ],
      "stateMutability": "view",
      "type": "function",
      "constant": true
    },
    {
      "inputs": [
        {
          "internalType": "uint16",
          "name": "_version",
          "type": "uint16"
        },
        {
          "internalType": "uint16",
          "name": "_chainId",
          "type": "uint16"
        },
        {
          "internalType": "uint256",
          "name": "_configType",
          "type": "uint256"
        },
        {
          "internalType": "bytes",
          "name": "_config",
          "type": "bytes"
        }
      ],
      "name": "setConfig",
      "outputs": [],
      "stateMutability": "nonpayable",
      "type": "function"
    },
    {
      "inputs": [
        {
          "internalType": "uint16",
          "name": "_version",
          "type": "uint16"
        }
      ],
      "name": "setSendVersion",
      "outputs": [],
      "stateMutability": "nonpayable",
      "type": "function"
    },
    {
      "inputs": [
        {
          "internalType": "uint16",
          "name": "_version",
          "type": "uint16"
        }
      ],
      "name": "setReceiveVersion",
      "outputs": [],
      "stateMutability": "nonpayable",
      "type": "function"
    },
    {
      "inputs": [
        {
          "internalType": "uint16",
          "name": "_srcChainId",
          "type": "uint16"
        },
        {
          "internalType": "bytes",
          "name": "_srcAddress",
          "type": "bytes"
        }
      ],
      "name": "forceResumeReceive",
      "outputs": [],
      "stateMutability": "nonpayable",
      "type": "function"
    }
  ],
  "bytecode": "0x608060405234801561001057600080fd5b5061089c806100206000396000f3fe6080604052600436106101145760003560e01c80639c729da1116100a0578063cbed8b9c11610064578063cbed8b9c14610304578063da1a7c9a14610139578063e97a448a146102f0578063f5ecbdbc1461031f578063fdc07c701461035157600080fd5b80639c729da114610221578063aaff5f1614610290578063c2fa4813146102b2578063c5803100146102d7578063ca066b35146102f057600080fd5b80633408e470116100e75780633408e470146101a657806340a7bb10146101ba57806342d65a8d1461020157806371ba2fd6146102215780637a1457481461025457600080fd5b806307e0db1714610119578063096568f6146101395780630eaf6ea61461017257806310ddb13714610119575b600080fd5b34801561012557600080fd5b50610137610134366004610383565b50565b005b34801561014557600080fd5b5061015a6101543660046103ba565b50600090565b60405161ffff90911681526020015b60405180910390f35b34801561017e57600080fd5b5061019661018d366004610420565b60009392505050565b6040519015158152602001610169565b3480156101b257600080fd5b50600061015a565b3480156101c657600080fd5b506101ec6101d5366004610473565b67016345785d8a0000600097509795505050505050565b60408051928352602083019190915201610169565b34801561020d57600080fd5b5061013761021c366004610420565b505050565b34801561022d57600080fd5b5061023c6101543660046103ba565b6040516001600160a01b039091168152602001610169565b34801561026057600080fd5b5061027761026f366004610520565b600092915050565b60405167ffffffffffffffff9091168152602001610169565b34801561029c57600080fd5b506101376102ab366004610557565b5050505050565b3480156102be57600080fd5b506101376102cd3660046105d8565b5050505050505050565b6101376102e5366004610690565b505050505050505050565b3480156102fc57600080fd5b506000610196565b34801561031057600080fd5b506101376102ab366004610766565b34801561032b57600080fd5b5061034461033a3660046107c4565b6060949350505050565b6040516101699190610811565b34801561035d57600080fd5b5061027761018d366004610420565b803561ffff8116811461037e57600080fd5b919050565b60006020828403121561039557600080fd5b61039e8261036c565b9392505050565b6001600160a01b038116811461013457600080fd5b6000602082840312156103cc57600080fd5b813561039e816103a5565b60008083601f8401126103e957600080fd5b50813567ffffffffffffffff81111561040157600080fd5b60208301915083602082850101111561041957600080fd5b9250929050565b60008060006040848603121561043557600080fd5b61043e8461036c565b9250602084013567ffffffffffffffff81111561045a57600080fd5b610466868287016103d7565b9497909650939450505050565b600080600080600080600060a0888a03121561048e57600080fd5b6104978861036c565b965060208801356104a7816103a5565b9550604088013567ffffffffffffffff808211156104c457600080fd5b6104d08b838c016103d7565b909750955060608a0135915081151582146104ea57600080fd5b9093506080890135908082111561050057600080fd5b5061050d8a828b016103d7565b989b979a50959850939692959293505050565b6000806040838503121561053357600080fd5b61053c8361036c565b9150602083013561054c816103a5565b809150509250929050565b60008060008060006060868803121561056f57600080fd5b6105788661036c565b9450602086013567ffffffffffffffff8082111561059557600080fd5b6105a189838a016103d7565b909650945060408801359150808211156105ba57600080fd5b506105c7888289016103d7565b969995985093965092949392505050565b60008060008060008060008060c0898b0312156105f457600080fd5b6105fd8961036c565b9750602089013567ffffffffffffffff8082111561061a57600080fd5b6106268c838d016103d7565b909950975060408b0135915061063b826103a5565b90955060608a013590808216821461065257600080fd5b90945060808a0135935060a08a0135908082111561066f57600080fd5b5061067c8b828c016103d7565b999c989b5096995094979396929594505050565b600080600080600080600080600060c08a8c0312156106ae57600080fd5b6106b78a61036c565b985060208a013567ffffffffffffffff808211156106d457600080fd5b6106e08d838e016103d7565b909a50985060408c01359150808211156106f957600080fd5b6107058d838e016103d7565b909850965060608c0135915061071a826103a5565b90945060808b01359061072c826103a5565b90935060a08b0135908082111561074257600080fd5b5061074f8c828d016103d7565b915080935050809150509295985092959850929598565b60008060008060006080868803121561077e57600080fd5b6107878661036c565b94506107956020870161036c565b935060408601359250606086013567ffffffffffffffff8111156107b857600080fd5b6105c7888289016103d7565b600080600080608085870312156107da57600080fd5b6107e38561036c565b93506107f16020860161036c565b92506040850135610801816103a5565b9396929550929360600135925050565b600060208083528351808285015260005b8181101561083e57858101830151858201604001528201610822565b81811115610850576000604083870101525b50601f01601f191692909201604001939250505056fea2646970667358221220e663814a8cbcbaefe8af65b9ec68271f3366b8d4b3f3aed238cce92ae89aa54164736f6c634300080a0033",
  "immutableReferences": {},
  "source": "// SPDX-License-Identifier: MIT\n\npragma solidity ^0.8.0;\n\nimport \"../ZorroControllerXChain.sol\";\n\nimport \"../../interfaces/ILayerZeroEndpoint.sol\";\n\ncontract MockZorroControllerXChain is ZorroControllerXChain {\n    event ReceiveXChainDepositReq(\n        uint256 indexed _pid,\n        uint256 indexed _valueUSDC,\n        address indexed _destAccount\n    );\n\n    event ReceiveXChainRepatriationReq(\n        uint256 indexed _originChainId,\n        uint256 indexed _burnableZORRewards,\n        uint256 indexed _rewardsDue\n    );\n\n    event ReceiveXChainDistributionReq(\n        uint256 indexed _amountUSDCBuyback,\n        uint256 indexed _amountUSDCRevShare,\n        uint256 indexed _accSlashedRewards\n    );\n\n    event ReceiveXChainWithdrawalReq(\n        uint256 indexed _originChainId,\n        uint256 indexed _pid,\n        uint256 indexed _trancheId\n    );\n\n    function encodeXChainDepositPayload(\n        uint256 _chainId,\n        uint256 _pid,\n        uint256 _valueUSDC,\n        uint256 _weeksCommitted,\n        uint256 _maxMarketMovement,\n        address _originWallet,\n        bytes memory _destWallet\n    ) public view returns (bytes memory) {\n        return\n            _encodeXChainDepositPayload(\n                _chainId,\n                _pid,\n                _valueUSDC,\n                _weeksCommitted,\n                _maxMarketMovement,\n                _originWallet,\n                _destWallet\n            );\n    }\n\n    function mockReceiveXChainDepositRequest(\n        uint256 _pid,\n        uint256 _valueUSDC,\n        uint256 _weeksCommitted,\n        uint256 _maxMarketMovement,\n        bytes memory _originAccount,\n        address _destAccount\n    ) public {\n        _receiveXChainDepositRequest(\n            _pid,\n            _valueUSDC,\n            _weeksCommitted,\n            block.timestamp,\n            _maxMarketMovement,\n            _originAccount,\n            _destAccount\n        );\n    }\n\n    function _receiveXChainDepositRequest(\n        uint256 _pid,\n        uint256 _valueUSDC,\n        uint256 _weeksCommitted,\n        uint256 _vaultEnteredAt,\n        uint256 _maxMarketMovement,\n        bytes memory _originAccount,\n        address _destAccount\n    ) internal override {\n        // TODO: Consider making this an actual event like for repatriation, instead of one just for test\n        emit ReceiveXChainDepositReq(_pid, _valueUSDC, _destAccount);\n    }\n\n    function mockReceiveXChainRepatriationRequest(\n        uint256 _originChainId,\n        uint256 _pid,\n        uint256 _trancheId,\n        bytes memory _originRecipient,\n        uint256 _burnableZORRewards,\n        uint256 _rewardsDue\n    ) public {\n        _receiveXChainRepatriationRequest(\n            _originChainId,\n            _pid,\n            _trancheId,\n            _originRecipient,\n            _burnableZORRewards,\n            _rewardsDue\n        );\n    }\n\n    function _receiveXChainRepatriationRequest(\n        uint256 _originChainId,\n        uint256 _pid,\n        uint256 _trancheId,\n        bytes memory _originRecipient,\n        uint256 _burnableZORRewards,\n        uint256 _rewardsDue\n    ) internal override {\n        emit ReceiveXChainRepatriationReq(\n            _originChainId,\n            _burnableZORRewards,\n            _rewardsDue\n        );\n    }\n\n    function mockReceiveXChainDistributionRequest(\n        uint256 _remoteChainId,\n        uint256 _amountUSDCBuyback,\n        uint256 _amountUSDCRevShare,\n        uint256 _accSlashedRewards,\n        uint256 _maxMarketMovement\n    ) public {\n        _receiveXChainDistributionRequest(\n            _remoteChainId,\n            _amountUSDCBuyback,\n            _amountUSDCRevShare,\n            _accSlashedRewards,\n            _maxMarketMovement\n        );\n    }\n\n    function _receiveXChainDistributionRequest(\n        uint256 _remoteChainId,\n        uint256 _amountUSDCBuyback,\n        uint256 _amountUSDCRevShare,\n        uint256 _accSlashedRewards,\n        uint256 _maxMarketMovement\n    ) internal override {\n        emit ReceiveXChainDistributionReq(\n            _amountUSDCBuyback,\n            _amountUSDCRevShare,\n            _accSlashedRewards\n        );\n    }\n\n    function mockReceiveXChainWithdrawalRequest(\n        uint256 _originChainId,\n        bytes memory _originAccount,\n        uint256 _pid,\n        uint256 _trancheId,\n        uint256 _maxMarketMovement\n    ) public {\n        _receiveXChainWithdrawalRequest(\n            _originChainId,\n            _originAccount,\n            _pid,\n            _trancheId,\n            _maxMarketMovement\n        );\n    }\n\n    function _receiveXChainWithdrawalRequest(\n        uint256 _originChainId,\n        bytes memory _originAccount,\n        uint256 _pid,\n        uint256 _trancheId,\n        uint256 _maxMarketMovement\n    ) internal override {\n        emit ReceiveXChainWithdrawalReq(_originChainId, _pid, _trancheId);\n    }\n\n    function getLZAdapterParamsForWithdraw(uint256 _gasForDestinationLZReceive)\n        public\n        pure\n        returns (bytes memory)\n    {\n        return _getLZAdapterParamsForWithdraw(_gasForDestinationLZReceive);\n    }\n}\n\ncontract MockLayerZeroEndpoint is ILayerZeroEndpoint {\n    function send(\n        uint16 _dstChainId,\n        bytes calldata _destination,\n        bytes calldata _payload,\n        address payable _refundAddress,\n        address _zroPaymentAddress,\n        bytes calldata _adapterParams\n    ) external payable {}\n\n    function receivePayload(\n        uint16 _srcChainId,\n        bytes calldata _srcAddress,\n        address _dstAddress,\n        uint64 _nonce,\n        uint256 _gasLimit,\n        bytes calldata _payload\n    ) external {}\n\n    function getInboundNonce(uint16 _srcChainId, bytes calldata _srcAddress)\n        external\n        view\n        returns (uint64)\n    {}\n\n    function getOutboundNonce(uint16 _dstChainId, address _srcAddress)\n        external\n        view\n        returns (uint64)\n    {}\n\n    function estimateFees(\n        uint16 _dstChainId,\n        address _userApplication,\n        bytes calldata _payload,\n        bool _payInZRO,\n        bytes calldata _adapterParam\n    ) external view returns (uint256 nativeFee, uint256 zroFee) {\n        return (0.1 ether, 0);\n    }\n\n    function getChainId() external view returns (uint16) {}\n\n    function retryPayload(\n        uint16 _srcChainId,\n        bytes calldata _srcAddress,\n        bytes calldata _payload\n    ) external {}\n\n    function hasStoredPayload(uint16 _srcChainId, bytes calldata _srcAddress)\n        external\n        view\n        returns (bool)\n    {}\n\n    function getSendLibraryAddress(address _userApplication)\n        external\n        view\n        returns (address)\n    {}\n\n    function getReceiveLibraryAddress(address _userApplication)\n        external\n        view\n        returns (address)\n    {}\n\n    function isSendingPayload() external view returns (bool) {}\n\n    function isReceivingPayload() external view returns (bool) {}\n\n    function getConfig(\n        uint16 _version,\n        uint16 _chainId,\n        address _userApplication,\n        uint256 _configType\n    ) external view returns (bytes memory) {}\n\n    function getSendVersion(address _userApplication)\n        external\n        view\n        returns (uint16)\n    {}\n\n    function getReceiveVersion(address _userApplication)\n        external\n        view\n        returns (uint16)\n    {}\n\n    function setConfig(\n        uint16 _version,\n        uint16 _chainId,\n        uint256 _configType,\n        bytes calldata _config\n    ) external {}\n\n    function setSendVersion(uint16 _version) external {}\n\n    function setReceiveVersion(uint16 _version) external {}\n\n    function forceResumeReceive(uint16 _srcChainId, bytes calldata _srcAddress)\n        external\n    {}\n}\n",
  "sourcePath": "/Users/kristophm/Documents/workspace/zorro-protocol/contracts/controllers/mocks/MockZorroControllerXChain.sol",
  "compiler": {
    "name": "solc",
    "version": "0.8.10+commit.fc410830.Emscripten.clang"
  },
  "schemaVersion": "3.4.4",
  "updatedAt": "2022-05-14T20:51:56.100Z",
  "networkType": "ethereum",
  "devdoc": {
    "kind": "dev",
    "methods": {},
    "version": 1
  },
  "userdoc": {
    "kind": "user",
    "methods": {},
    "version": 1
  }
}