{
  "contractName": "MockPriceAggZORLP",
  "abi": [
    {
      "inputs": [
        {
          "internalType": "address",
          "name": "_router",
          "type": "address"
        },
        {
          "internalType": "address",
          "name": "_zorToken",
          "type": "address"
        },
        {
          "internalType": "address",
          "name": "_zorLPOtherToken",
          "type": "address"
        },
        {
          "internalType": "address",
          "name": "_usdcToken",
          "type": "address"
        }
      ],
      "stateMutability": "nonpayable",
      "type": "constructor"
    },
    {
      "inputs": [],
      "name": "decimals",
      "outputs": [
        {
          "internalType": "uint8",
          "name": "",
          "type": "uint8"
        }
      ],
      "stateMutability": "view",
      "type": "function"
    },
    {
      "inputs": [],
      "name": "description",
      "outputs": [
        {
          "internalType": "string",
          "name": "",
          "type": "string"
        }
      ],
      "stateMutability": "view",
      "type": "function"
    },
    {
      "inputs": [],
      "name": "router",
      "outputs": [
        {
          "internalType": "address",
          "name": "",
          "type": "address"
        }
      ],
      "stateMutability": "view",
      "type": "function"
    },
    {
      "inputs": [],
      "name": "usdcToken",
      "outputs": [
        {
          "internalType": "address",
          "name": "",
          "type": "address"
        }
      ],
      "stateMutability": "view",
      "type": "function"
    },
    {
      "inputs": [],
      "name": "version",
      "outputs": [
        {
          "internalType": "uint256",
          "name": "",
          "type": "uint256"
        }
      ],
      "stateMutability": "view",
      "type": "function"
    },
    {
      "inputs": [],
      "name": "zorLPOtherToken",
      "outputs": [
        {
          "internalType": "address",
          "name": "",
          "type": "address"
        }
      ],
      "stateMutability": "view",
      "type": "function"
    },
    {
      "inputs": [],
      "name": "zorToken",
      "outputs": [
        {
          "internalType": "address",
          "name": "",
          "type": "address"
        }
      ],
      "stateMutability": "view",
      "type": "function"
    },
    {
      "inputs": [
        {
          "internalType": "uint8",
          "name": "_dec",
          "type": "uint8"
        }
      ],
      "name": "setDecimals",
      "outputs": [],
      "stateMutability": "nonpayable",
      "type": "function"
    },
    {
      "inputs": [
        {
          "internalType": "int256",
          "name": "_ans",
          "type": "int256"
        }
      ],
      "name": "setAnswer",
      "outputs": [],
      "stateMutability": "nonpayable",
      "type": "function"
    },
    {
      "inputs": [
        {
          "internalType": "uint80",
          "name": "_roundId",
          "type": "uint80"
        }
      ],
      "name": "getRoundData",
      "outputs": [
        {
          "internalType": "uint80",
          "name": "roundId",
          "type": "uint80"
        },
        {
          "internalType": "int256",
          "name": "answer",
          "type": "int256"
        },
        {
          "internalType": "uint256",
          "name": "startedAt",
          "type": "uint256"
        },
        {
          "internalType": "uint256",
          "name": "updatedAt",
          "type": "uint256"
        },
        {
          "internalType": "uint80",
          "name": "answeredInRound",
          "type": "uint80"
        }
      ],
      "stateMutability": "view",
      "type": "function"
    },
    {
      "inputs": [],
      "name": "latestRoundData",
      "outputs": [
        {
          "internalType": "uint80",
          "name": "roundId",
          "type": "uint80"
        },
        {
          "internalType": "int256",
          "name": "answer",
          "type": "int256"
        },
        {
          "internalType": "uint256",
          "name": "startedAt",
          "type": "uint256"
        },
        {
          "internalType": "uint256",
          "name": "updatedAt",
          "type": "uint256"
        },
        {
          "internalType": "uint80",
          "name": "answeredInRound",
          "type": "uint80"
        }
      ],
      "stateMutability": "view",
      "type": "function"
    }
  ],
  "bytecode": "0x608060405234801561001057600080fd5b506040516108eb3803806108eb83398101604081905261002f916100cd565b60008054600960a11b6001600160a81b03199091166001600160a01b0396871617179055670de0b6b3a7640000600455600780549385166a010000000000000000000002600160501b600160f01b031990941693909317909255600880549184166001600160a01b031992831617905560098054929093169116179055610121565b80516001600160a01b03811681146100c857600080fd5b919050565b600080600080608085870312156100e357600080fd5b6100ec856100b1565b93506100fa602086016100b1565b9250610108604086016100b1565b9150610116606086016100b1565b905092959194509250565b6107bb806101306000396000f3fe608060405234801561001057600080fd5b50600436106100a95760003560e01c806399213cd81161007157806399213cd8146101605780639a6fc8f514610173578063da9778b4146101ba578063f2d78c38146101d4578063f887ea40146101e7578063feaf968c146101fa57600080fd5b806311eac855146100ae578063313ce567146100de57806354fd4d50146101045780637284e4161461011b5780637a1395aa14610130575b600080fd5b6009546100c1906001600160a01b031681565b6040516001600160a01b0390911681526020015b60405180910390f35b6000546100f290600160a01b900460ff1681565b60405160ff90911681526020016100d5565b61010d60025481565b6040519081526020016100d5565b610123610202565b6040516100d591906104e1565b61015e61013e366004610536565b6000805460ff909216600160a01b0260ff60a01b19909216919091179055565b005b61015e61016e366004610559565b600455565b610186610181366004610572565b610290565b604080516001600160501b03968716815260208101959095528401929092526060830152909116608082015260a0016100d5565b6007546100c190600160501b90046001600160a01b031681565b6008546100c1906001600160a01b031681565b6000546100c1906001600160a01b031681565b6101866102c6565b6001805461020f9061059b565b80601f016020809104026020016040519081016040528092919081815260200182805461023b9061059b565b80156102885780601f1061025d57610100808354040283529160200191610288565b820191906000526020600020905b81548152906001019060200180831161026b57829003601f168201915b505050505081565b6000806000806000856102a1610309565b600554600654600754939a92995090975095506001600160501b039091169350915050565b60035460009081908190819081906001600160501b03166102e5610309565b600554600654600754939992985090965094506001600160501b0390911692509050565b60408051600380825260808201909252600091829190602082016060803683370190505090506007600a9054906101000a90046001600160a01b031681600081518110610358576103586105ec565b6001600160a01b039283166020918202929092010152600854825191169082906001908110610389576103896105ec565b6001600160a01b0392831660209182029290920101526009548251911690829060029081106103ba576103ba6105ec565b6001600160a01b0392831660209182029290920101526000805460405163d06ca61f60e01b8152670de0b6b3a764000093919091169063d06ca61f906104069085908790600401610602565b600060405180830381865afa158015610423573d6000803e3d6000fd5b505050506040513d6000823e601f3d908101601f1916820160405261044b9190810190610659565b90506104ae826104a864e8d4a510006104a2670de0b6b3a76400008661047c600189516104b690919063ffffffff16565b8151811061048c5761048c6105ec565b60200260200101516104c990919063ffffffff16565b906104c9565b906104d5565b935050505090565b60006104c2828461072d565b9392505050565b60006104c28284610744565b60006104c28284610763565b600060208083528351808285015260005b8181101561050e578581018301518582016040015282016104f2565b81811115610520576000604083870101525b50601f01601f1916929092016040019392505050565b60006020828403121561054857600080fd5b813560ff811681146104c257600080fd5b60006020828403121561056b57600080fd5b5035919050565b60006020828403121561058457600080fd5b81356001600160501b03811681146104c257600080fd5b600181811c908216806105af57607f821691505b602082108114156105d057634e487b7160e01b600052602260045260246000fd5b50919050565b634e487b7160e01b600052604160045260246000fd5b634e487b7160e01b600052603260045260246000fd5b6000604082018483526020604081850152818551808452606086019150828701935060005b8181101561064c5784516001600160a01b031683529383019391830191600101610627565b5090979650505050505050565b6000602080838503121561066c57600080fd5b825167ffffffffffffffff8082111561068457600080fd5b818501915085601f83011261069857600080fd5b8151818111156106aa576106aa6105d6565b8060051b604051601f19603f830116810181811085821117156106cf576106cf6105d6565b6040529182528482019250838101850191888311156106ed57600080fd5b938501935b8285101561070b578451845293850193928501926106f2565b98975050505050505050565b634e487b7160e01b600052601160045260246000fd5b60008282101561073f5761073f610717565b500390565b600081600019048311821515161561075e5761075e610717565b500290565b60008261078057634e487b7160e01b600052601260045260246000fd5b50049056fea26469706673582212201cbd78c1fecdc66b00c57fd8d41011a9940f0ebf91bda224e19279f5c4cf549f64736f6c634300080a0033",
  "immutableReferences": {},
  "source": "// SPDX-License-Identifier: MIT\n\npragma solidity ^0.8.0;\n\nimport \"../PriceFeed.sol\";\n\nimport \"../../interfaces/IAMMRouter02.sol\";\n\n/// @title MockPriceFeed: Mock contract for testing the PriceFeed library\ncontract MockPriceFeed {\n    using PriceFeed for AggregatorV3Interface;\n\n    function getExchangeRate(address _priceFeed)\n        public\n        view\n        returns (uint256)\n    {\n        return AggregatorV3Interface(_priceFeed).getExchangeRate();\n    }\n}\n\ncontract MockAggregatorV3 is AggregatorV3Interface {\n    constructor() {\n        decimals = 18;\n        _answer = 1e18;\n    }\n\n    uint8 public decimals;\n    string public description;\n    uint256 public version;\n    uint80 internal _rid;\n    int256 internal _answer;\n    uint256 internal _startedAt;\n    uint256 internal _updatedAt;\n    uint80 internal _answeredInRound;\n\n    function setDecimals(uint8 _dec) public {\n        decimals = _dec;\n    }\n\n    function setAnswer(int256 _ans) public {\n        _answer = _ans;\n    }\n\n    // getRoundData and latestRoundData should both raise \"No data present\"\n    // if they do not have data to report, instead of returning unset values\n    // which could be misinterpreted as actual reported values.\n    function getRoundData(uint80 _roundId)\n        external\n        view\n        returns (\n            uint80 roundId,\n            int256 answer,\n            uint256 startedAt,\n            uint256 updatedAt,\n            uint80 answeredInRound\n        )\n    {\n        return (\n            _roundId,\n            _answer,\n            _startedAt,\n            _updatedAt,\n            _answeredInRound\n        );\n    }\n\n    function latestRoundData()\n        external\n        view\n        returns (\n            uint80 roundId,\n            int256 answer,\n            uint256 startedAt,\n            uint256 updatedAt,\n            uint80 answeredInRound\n        )\n    {\n        return (\n            _rid,\n            _answer,\n            _startedAt,\n            _updatedAt,\n            _answeredInRound\n        );\n    }\n}\n\ncontract MockPriceAggToken0 is MockAggregatorV3 {}\ncontract MockPriceAggToken1 is MockAggregatorV3 {}\ncontract MockPriceAggEarnToken is MockAggregatorV3 {}\ncontract MockPriceAggZOR is MockAggregatorV3 {}\ncontract MockPriceAggLPOtherToken is MockAggregatorV3 {}\ncontract MockPriceUSDC is MockAggregatorV3 {}\ncontract MockPriceBUSD is MockAggregatorV3 {}\n\n/// @title MockPriceAggZORLP \ncontract MockPriceAggZORLP is AggregatorV3Interface {\n    using SafeMathUpgradeable for uint256;\n\n    address public router;\n    uint8 public decimals;\n    string public description;\n    uint256 public version;\n    uint80 internal _rid;\n    int256 internal _answer;\n    uint256 internal _startedAt;\n    uint256 internal _updatedAt;\n    uint80 internal _answeredInRound;\n\n    address public zorToken;\n    address public zorLPOtherToken;\n    address public usdcToken;\n\n    constructor(address _router, address _zorToken, address _zorLPOtherToken, address _usdcToken) {\n        router = _router;\n        decimals = 18;\n        _answer = 1e18;\n        zorToken = _zorToken;\n        zorLPOtherToken = _zorLPOtherToken;\n        usdcToken = _usdcToken;\n    }\n\n    function setDecimals(uint8 _dec) public {\n        decimals = _dec;\n    }\n\n    function setAnswer(int256 _ans) public {\n        _answer = _ans;\n    }\n\n    function getRoundData(uint80 _roundId)\n        external\n        view\n        returns (\n            uint80 roundId,\n            int256 answer,\n            uint256 startedAt,\n            uint256 updatedAt,\n            uint80 answeredInRound\n        )\n    {\n        return (\n            _roundId,\n            int256(_getZORUSDExchRate()),\n            _startedAt,\n            _updatedAt,\n            _answeredInRound\n        );\n    }\n\n    function latestRoundData()\n        external\n        view\n        returns (\n            uint80 roundId,\n            int256 answer,\n            uint256 startedAt,\n            uint256 updatedAt,\n            uint80 answeredInRound\n        )\n    {\n        return (\n            _rid,\n            int256(_getZORUSDExchRate()),\n            _startedAt,\n            _updatedAt,\n            _answeredInRound\n        );\n    }\n\n    function _getZORUSDExchRate() internal view returns (uint256) {\n        address[] memory _path = new address[](3);\n        _path[0] = zorToken;\n        _path[1] = zorLPOtherToken;\n        _path[2] = usdcToken;\n        uint256 _amtIn = 1 ether;\n        uint256[] memory _amts = IAMMRouter02(router).getAmountsOut(_amtIn, _path);\n        return _amts[_amts.length.sub(1)].mul(10**18).mul(10**12).div(_amtIn); \n    }\n}\n\n/// @title MockPriceAggSTG \ncontract MockPriceAggSTG is AggregatorV3Interface {\n    using SafeMathUpgradeable for uint256;\n\n    address public router;\n    uint8 public decimals;\n    string public description;\n    uint256 public version;\n    uint80 internal _rid;\n    int256 internal _answer;\n    uint256 internal _startedAt;\n    uint256 internal _updatedAt;\n    uint80 internal _answeredInRound;\n\n    address public stgToken;\n    address public wavaxToken;\n    address public usdcToken;\n\n    constructor(address _router, address _stgToken, address _wavaxToken, address _usdcToken) {\n        router = _router;\n        decimals = 18;\n        _answer = 1e18;\n        stgToken = _stgToken;\n        wavaxToken = _wavaxToken;\n        usdcToken = _usdcToken;\n    }\n\n    function setDecimals(uint8 _dec) public {\n        decimals = _dec;\n    }\n\n    function setAnswer(int256 _ans) public {\n        _answer = _ans;\n    }\n\n    function getRoundData(uint80 _roundId)\n        external\n        view\n        returns (\n            uint80 roundId,\n            int256 answer,\n            uint256 startedAt,\n            uint256 updatedAt,\n            uint80 answeredInRound\n        )\n    {\n        return (\n            _roundId,\n            int256(_getSTGUSDExchRate()),\n            _startedAt,\n            _updatedAt,\n            _answeredInRound\n        );\n    }\n\n    function latestRoundData()\n        external\n        view\n        returns (\n            uint80 roundId,\n            int256 answer,\n            uint256 startedAt,\n            uint256 updatedAt,\n            uint80 answeredInRound\n        )\n    {\n        return (\n            _rid,\n            int256(_getSTGUSDExchRate()),\n            _startedAt,\n            _updatedAt,\n            _answeredInRound\n        );\n    }\n\n    function _getSTGUSDExchRate() internal view returns (uint256) {\n        address[] memory _path = new address[](3);\n        _path[0] = stgToken;\n        _path[1] = wavaxToken;\n        _path[2] = usdcToken;\n        uint256 _amtIn = 1 ether;\n        uint256[] memory _amts = IAMMRouter02(router).getAmountsOut(_amtIn, _path);\n        return _amts[_amts.length.sub(1)].mul(10**18).mul(10**12).div(_amtIn); \n    }\n}",
  "sourcePath": "/Users/kristophm/Documents/workspace/zorro-protocol/contracts/libraries/mocks/MockPriceFeed.sol",
  "compiler": {
    "name": "solc",
    "version": "0.8.10+commit.fc410830.Emscripten.clang"
  },
  "schemaVersion": "3.4.4",
  "updatedAt": "2022-11-09T13:03:17.879Z",
  "devdoc": {
    "kind": "dev",
    "methods": {},
    "title": "MockPriceAggZORLP ",
    "version": 1
  },
  "userdoc": {
    "kind": "user",
    "methods": {},
    "version": 1
  }
}