{
  "contractName": "MockVaultAlpaca",
  "abi": [
    {
      "anonymous": false,
      "inputs": [
        {
          "indexed": true,
          "internalType": "uint256",
          "name": "_amount",
          "type": "uint256"
        }
      ],
      "name": "Buyback",
      "type": "event"
    },
    {
      "anonymous": false,
      "inputs": [
        {
          "indexed": true,
          "internalType": "address",
          "name": "previousOwner",
          "type": "address"
        },
        {
          "indexed": true,
          "internalType": "address",
          "name": "newOwner",
          "type": "address"
        }
      ],
      "name": "OwnershipTransferred",
      "type": "event"
    },
    {
      "anonymous": false,
      "inputs": [
        {
          "indexed": false,
          "internalType": "address",
          "name": "account",
          "type": "address"
        }
      ],
      "name": "Paused",
      "type": "event"
    },
    {
      "anonymous": false,
      "inputs": [
        {
          "indexed": true,
          "internalType": "uint256",
          "name": "_amount",
          "type": "uint256"
        }
      ],
      "name": "RevShare",
      "type": "event"
    },
    {
      "anonymous": false,
      "inputs": [
        {
          "indexed": false,
          "internalType": "address",
          "name": "_govAddress",
          "type": "address"
        }
      ],
      "name": "SetGov",
      "type": "event"
    },
    {
      "anonymous": false,
      "inputs": [
        {
          "indexed": false,
          "internalType": "bool",
          "name": "_onlyGov",
          "type": "bool"
        }
      ],
      "name": "SetOnlyGov",
      "type": "event"
    },
    {
      "anonymous": false,
      "inputs": [
        {
          "indexed": false,
          "internalType": "address",
          "name": "_rewardsAddress",
          "type": "address"
        }
      ],
      "name": "SetRewardsAddress",
      "type": "event"
    },
    {
      "anonymous": false,
      "inputs": [
        {
          "indexed": false,
          "internalType": "uint256",
          "name": "_entranceFeeFactor",
          "type": "uint256"
        },
        {
          "indexed": false,
          "internalType": "uint256",
          "name": "_withdrawFeeFactor",
          "type": "uint256"
        },
        {
          "indexed": false,
          "internalType": "uint256",
          "name": "_controllerFee",
          "type": "uint256"
        },
        {
          "indexed": false,
          "internalType": "uint256",
          "name": "_buyBackRate",
          "type": "uint256"
        },
        {
          "indexed": false,
          "internalType": "uint256",
          "name": "_revShareRate",
          "type": "uint256"
        }
      ],
      "name": "SetSettings",
      "type": "event"
    },
    {
      "anonymous": false,
      "inputs": [
        {
          "indexed": false,
          "internalType": "address",
          "name": "_uniRouterAddress",
          "type": "address"
        }
      ],
      "name": "SetUniRouterAddress",
      "type": "event"
    },
    {
      "anonymous": false,
      "inputs": [
        {
          "indexed": false,
          "internalType": "address",
          "name": "account",
          "type": "address"
        }
      ],
      "name": "Unpaused",
      "type": "event"
    },
    {
      "inputs": [],
      "name": "ZORPriceFeed",
      "outputs": [
        {
          "internalType": "contract AggregatorV3Interface",
          "name": "",
          "type": "address"
        }
      ],
      "stateMutability": "view",
      "type": "function"
    },
    {
      "inputs": [],
      "name": "ZORROAddress",
      "outputs": [
        {
          "internalType": "address",
          "name": "",
          "type": "address"
        }
      ],
      "stateMutability": "view",
      "type": "function"
    },
    {
      "inputs": [],
      "name": "burnAddress",
      "outputs": [
        {
          "internalType": "address",
          "name": "",
          "type": "address"
        }
      ],
      "stateMutability": "view",
      "type": "function"
    },
    {
      "inputs": [],
      "name": "buyBackRate",
      "outputs": [
        {
          "internalType": "uint256",
          "name": "",
          "type": "uint256"
        }
      ],
      "stateMutability": "view",
      "type": "function"
    },
    {
      "inputs": [],
      "name": "buyBackRateMax",
      "outputs": [
        {
          "internalType": "uint256",
          "name": "",
          "type": "uint256"
        }
      ],
      "stateMutability": "view",
      "type": "function"
    },
    {
      "inputs": [],
      "name": "buyBackRateUL",
      "outputs": [
        {
          "internalType": "uint256",
          "name": "",
          "type": "uint256"
        }
      ],
      "stateMutability": "view",
      "type": "function"
    },
    {
      "inputs": [],
      "name": "controllerFee",
      "outputs": [
        {
          "internalType": "uint256",
          "name": "",
          "type": "uint256"
        }
      ],
      "stateMutability": "view",
      "type": "function"
    },
    {
      "inputs": [],
      "name": "controllerFeeMax",
      "outputs": [
        {
          "internalType": "uint256",
          "name": "",
          "type": "uint256"
        }
      ],
      "stateMutability": "view",
      "type": "function"
    },
    {
      "inputs": [],
      "name": "controllerFeeUL",
      "outputs": [
        {
          "internalType": "uint256",
          "name": "",
          "type": "uint256"
        }
      ],
      "stateMutability": "view",
      "type": "function"
    },
    {
      "inputs": [],
      "name": "defaultStablecoin",
      "outputs": [
        {
          "internalType": "address",
          "name": "",
          "type": "address"
        }
      ],
      "stateMutability": "view",
      "type": "function"
    },
    {
      "inputs": [
        {
          "internalType": "uint256",
          "name": "_wantAmt",
          "type": "uint256"
        }
      ],
      "name": "depositWantToken",
      "outputs": [
        {
          "internalType": "uint256",
          "name": "sharesAdded",
          "type": "uint256"
        }
      ],
      "stateMutability": "nonpayable",
      "type": "function"
    },
    {
      "inputs": [
        {
          "internalType": "uint256",
          "name": "_maxMarketMovementAllowed",
          "type": "uint256"
        }
      ],
      "name": "earn",
      "outputs": [],
      "stateMutability": "nonpayable",
      "type": "function"
    },
    {
      "inputs": [],
      "name": "earnTokenPriceFeed",
      "outputs": [
        {
          "internalType": "contract AggregatorV3Interface",
          "name": "",
          "type": "address"
        }
      ],
      "stateMutability": "view",
      "type": "function"
    },
    {
      "inputs": [],
      "name": "earnedAddress",
      "outputs": [
        {
          "internalType": "address",
          "name": "",
          "type": "address"
        }
      ],
      "stateMutability": "view",
      "type": "function"
    },
    {
      "inputs": [
        {
          "internalType": "uint256",
          "name": "",
          "type": "uint256"
        }
      ],
      "name": "earnedToStablecoinPath",
      "outputs": [
        {
          "internalType": "address",
          "name": "",
          "type": "address"
        }
      ],
      "stateMutability": "view",
      "type": "function"
    },
    {
      "inputs": [
        {
          "internalType": "uint256",
          "name": "",
          "type": "uint256"
        }
      ],
      "name": "earnedToToken0Path",
      "outputs": [
        {
          "internalType": "address",
          "name": "",
          "type": "address"
        }
      ],
      "stateMutability": "view",
      "type": "function"
    },
    {
      "inputs": [
        {
          "internalType": "uint256",
          "name": "",
          "type": "uint256"
        }
      ],
      "name": "earnedToToken1Path",
      "outputs": [
        {
          "internalType": "address",
          "name": "",
          "type": "address"
        }
      ],
      "stateMutability": "view",
      "type": "function"
    },
    {
      "inputs": [
        {
          "internalType": "uint256",
          "name": "",
          "type": "uint256"
        }
      ],
      "name": "earnedToZORLPPoolOtherTokenPath",
      "outputs": [
        {
          "internalType": "address",
          "name": "",
          "type": "address"
        }
      ],
      "stateMutability": "view",
      "type": "function"
    },
    {
      "inputs": [
        {
          "internalType": "uint256",
          "name": "",
          "type": "uint256"
        }
      ],
      "name": "earnedToZORROPath",
      "outputs": [
        {
          "internalType": "address",
          "name": "",
          "type": "address"
        }
      ],
      "stateMutability": "view",
      "type": "function"
    },
    {
      "inputs": [],
      "name": "entranceFeeFactor",
      "outputs": [
        {
          "internalType": "uint256",
          "name": "",
          "type": "uint256"
        }
      ],
      "stateMutability": "view",
      "type": "function"
    },
    {
      "inputs": [],
      "name": "entranceFeeFactorLL",
      "outputs": [
        {
          "internalType": "uint256",
          "name": "",
          "type": "uint256"
        }
      ],
      "stateMutability": "view",
      "type": "function"
    },
    {
      "inputs": [],
      "name": "entranceFeeFactorMax",
      "outputs": [
        {
          "internalType": "uint256",
          "name": "",
          "type": "uint256"
        }
      ],
      "stateMutability": "view",
      "type": "function"
    },
    {
      "inputs": [
        {
          "internalType": "uint256",
          "name": "_amountUSD",
          "type": "uint256"
        },
        {
          "internalType": "uint256",
          "name": "_maxMarketMovementAllowed",
          "type": "uint256"
        }
      ],
      "name": "exchangeUSDForWantToken",
      "outputs": [
        {
          "internalType": "uint256",
          "name": "",
          "type": "uint256"
        }
      ],
      "stateMutability": "nonpayable",
      "type": "function"
    },
    {
      "inputs": [
        {
          "internalType": "uint256",
          "name": "_amount",
          "type": "uint256"
        },
        {
          "internalType": "uint256",
          "name": "_maxMarketMovementAllowed",
          "type": "uint256"
        }
      ],
      "name": "exchangeWantTokenForUSD",
      "outputs": [
        {
          "internalType": "uint256",
          "name": "",
          "type": "uint256"
        }
      ],
      "stateMutability": "nonpayable",
      "type": "function"
    },
    {
      "inputs": [],
      "name": "farm",
      "outputs": [],
      "stateMutability": "nonpayable",
      "type": "function"
    },
    {
      "inputs": [],
      "name": "farmContractAddress",
      "outputs": [
        {
          "internalType": "address",
          "name": "",
          "type": "address"
        }
      ],
      "stateMutability": "view",
      "type": "function"
    },
    {
      "inputs": [],
      "name": "govAddress",
      "outputs": [
        {
          "internalType": "address",
          "name": "",
          "type": "address"
        }
      ],
      "stateMutability": "view",
      "type": "function"
    },
    {
      "inputs": [
        {
          "internalType": "address",
          "name": "_token",
          "type": "address"
        },
        {
          "internalType": "uint256",
          "name": "_amount",
          "type": "uint256"
        },
        {
          "internalType": "address",
          "name": "_to",
          "type": "address"
        }
      ],
      "name": "inCaseTokensGetStuck",
      "outputs": [],
      "stateMutability": "nonpayable",
      "type": "function"
    },
    {
      "inputs": [
        {
          "internalType": "address",
          "name": "_timelockOwner",
          "type": "address"
        },
        {
          "components": [
            {
              "internalType": "uint256",
              "name": "pid",
              "type": "uint256"
            },
            {
              "internalType": "bool",
              "name": "isHomeChain",
              "type": "bool"
            },
            {
              "internalType": "bool",
              "name": "isFarmable",
              "type": "bool"
            },
            {
              "components": [
                {
                  "internalType": "address",
                  "name": "govAddress",
                  "type": "address"
                },
                {
                  "internalType": "address",
                  "name": "zorroControllerAddress",
                  "type": "address"
                },
                {
                  "internalType": "address",
                  "name": "zorroXChainController",
                  "type": "address"
                },
                {
                  "internalType": "address",
                  "name": "ZORROAddress",
                  "type": "address"
                },
                {
                  "internalType": "address",
                  "name": "zorroStakingVault",
                  "type": "address"
                },
                {
                  "internalType": "address",
                  "name": "wantAddress",
                  "type": "address"
                },
                {
                  "internalType": "address",
                  "name": "token0Address",
                  "type": "address"
                },
                {
                  "internalType": "address",
                  "name": "token1Address",
                  "type": "address"
                },
                {
                  "internalType": "address",
                  "name": "earnedAddress",
                  "type": "address"
                },
                {
                  "internalType": "address",
                  "name": "farmContractAddress",
                  "type": "address"
                },
                {
                  "internalType": "address",
                  "name": "rewardsAddress",
                  "type": "address"
                },
                {
                  "internalType": "address",
                  "name": "poolAddress",
                  "type": "address"
                },
                {
                  "internalType": "address",
                  "name": "uniRouterAddress",
                  "type": "address"
                },
                {
                  "internalType": "address",
                  "name": "zorroLPPool",
                  "type": "address"
                },
                {
                  "internalType": "address",
                  "name": "zorroLPPoolOtherToken",
                  "type": "address"
                },
                {
                  "internalType": "address",
                  "name": "defaultStablecoin",
                  "type": "address"
                }
              ],
              "internalType": "struct VaultActions.VaultAddresses",
              "name": "keyAddresses",
              "type": "tuple"
            },
            {
              "internalType": "address[]",
              "name": "earnedToZORROPath",
              "type": "address[]"
            },
            {
              "internalType": "address[]",
              "name": "earnedToToken0Path",
              "type": "address[]"
            },
            {
              "internalType": "address[]",
              "name": "stablecoinToToken0Path",
              "type": "address[]"
            },
            {
              "internalType": "address[]",
              "name": "earnedToZORLPPoolOtherTokenPath",
              "type": "address[]"
            },
            {
              "internalType": "address[]",
              "name": "earnedToStablecoinPath",
              "type": "address[]"
            },
            {
              "internalType": "address[]",
              "name": "stablecoinToZORROPath",
              "type": "address[]"
            },
            {
              "internalType": "address[]",
              "name": "stablecoinToLPPoolOtherTokenPath",
              "type": "address[]"
            },
            {
              "components": [
                {
                  "internalType": "uint256",
                  "name": "controllerFee",
                  "type": "uint256"
                },
                {
                  "internalType": "uint256",
                  "name": "buyBackRate",
                  "type": "uint256"
                },
                {
                  "internalType": "uint256",
                  "name": "revShareRate",
                  "type": "uint256"
                },
                {
                  "internalType": "uint256",
                  "name": "entranceFeeFactor",
                  "type": "uint256"
                },
                {
                  "internalType": "uint256",
                  "name": "withdrawFeeFactor",
                  "type": "uint256"
                }
              ],
              "internalType": "struct VaultActions.VaultFees",
              "name": "fees",
              "type": "tuple"
            },
            {
              "components": [
                {
                  "internalType": "address",
                  "name": "token0PriceFeed",
                  "type": "address"
                },
                {
                  "internalType": "address",
                  "name": "token1PriceFeed",
                  "type": "address"
                },
                {
                  "internalType": "address",
                  "name": "earnTokenPriceFeed",
                  "type": "address"
                },
                {
                  "internalType": "address",
                  "name": "ZORPriceFeed",
                  "type": "address"
                },
                {
                  "internalType": "address",
                  "name": "lpPoolOtherTokenPriceFeed",
                  "type": "address"
                },
                {
                  "internalType": "address",
                  "name": "stablecoinPriceFeed",
                  "type": "address"
                }
              ],
              "internalType": "struct VaultActions.VaultPriceFeeds",
              "name": "priceFeeds",
              "type": "tuple"
            }
          ],
          "internalType": "struct VaultAlpaca.VaultAlpacaInit",
          "name": "_initValue",
          "type": "tuple"
        }
      ],
      "name": "initialize",
      "outputs": [],
      "stateMutability": "nonpayable",
      "type": "function"
    },
    {
      "inputs": [
        {
          "internalType": "address",
          "name": "_timelockOwner",
          "type": "address"
        }
      ],
      "name": "initialize",
      "outputs": [],
      "stateMutability": "nonpayable",
      "type": "function"
    },
    {
      "inputs": [],
      "name": "isFarmable",
      "outputs": [
        {
          "internalType": "bool",
          "name": "",
          "type": "bool"
        }
      ],
      "stateMutability": "view",
      "type": "function"
    },
    {
      "inputs": [],
      "name": "isHomeChain",
      "outputs": [
        {
          "internalType": "bool",
          "name": "",
          "type": "bool"
        }
      ],
      "stateMutability": "view",
      "type": "function"
    },
    {
      "inputs": [],
      "name": "lastEarnBlock",
      "outputs": [
        {
          "internalType": "uint256",
          "name": "",
          "type": "uint256"
        }
      ],
      "stateMutability": "view",
      "type": "function"
    },
    {
      "inputs": [],
      "name": "lpPoolOtherTokenPriceFeed",
      "outputs": [
        {
          "internalType": "contract AggregatorV3Interface",
          "name": "",
          "type": "address"
        }
      ],
      "stateMutability": "view",
      "type": "function"
    },
    {
      "inputs": [],
      "name": "maxMarketMovementAllowed",
      "outputs": [
        {
          "internalType": "uint256",
          "name": "",
          "type": "uint256"
        }
      ],
      "stateMutability": "view",
      "type": "function"
    },
    {
      "inputs": [],
      "name": "onlyGov",
      "outputs": [
        {
          "internalType": "bool",
          "name": "",
          "type": "bool"
        }
      ],
      "stateMutability": "view",
      "type": "function"
    },
    {
      "inputs": [],
      "name": "owner",
      "outputs": [
        {
          "internalType": "address",
          "name": "",
          "type": "address"
        }
      ],
      "stateMutability": "view",
      "type": "function"
    },
    {
      "inputs": [],
      "name": "pause",
      "outputs": [],
      "stateMutability": "nonpayable",
      "type": "function"
    },
    {
      "inputs": [],
      "name": "paused",
      "outputs": [
        {
          "internalType": "bool",
          "name": "",
          "type": "bool"
        }
      ],
      "stateMutability": "view",
      "type": "function"
    },
    {
      "inputs": [],
      "name": "pid",
      "outputs": [
        {
          "internalType": "uint256",
          "name": "",
          "type": "uint256"
        }
      ],
      "stateMutability": "view",
      "type": "function"
    },
    {
      "inputs": [],
      "name": "poolAddress",
      "outputs": [
        {
          "internalType": "address",
          "name": "",
          "type": "address"
        }
      ],
      "stateMutability": "view",
      "type": "function"
    },
    {
      "inputs": [],
      "name": "renounceOwnership",
      "outputs": [],
      "stateMutability": "nonpayable",
      "type": "function"
    },
    {
      "inputs": [],
      "name": "revShareRate",
      "outputs": [
        {
          "internalType": "uint256",
          "name": "",
          "type": "uint256"
        }
      ],
      "stateMutability": "view",
      "type": "function"
    },
    {
      "inputs": [],
      "name": "revShareRateMax",
      "outputs": [
        {
          "internalType": "uint256",
          "name": "",
          "type": "uint256"
        }
      ],
      "stateMutability": "view",
      "type": "function"
    },
    {
      "inputs": [],
      "name": "revShareRateUL",
      "outputs": [
        {
          "internalType": "uint256",
          "name": "",
          "type": "uint256"
        }
      ],
      "stateMutability": "view",
      "type": "function"
    },
    {
      "inputs": [],
      "name": "rewardsAddress",
      "outputs": [
        {
          "internalType": "address",
          "name": "",
          "type": "address"
        }
      ],
      "stateMutability": "view",
      "type": "function"
    },
    {
      "inputs": [
        {
          "internalType": "address",
          "name": "_burnAddress",
          "type": "address"
        }
      ],
      "name": "setBurnAddress",
      "outputs": [],
      "stateMutability": "nonpayable",
      "type": "function"
    },
    {
      "inputs": [
        {
          "internalType": "address",
          "name": "_defaultStablecoin",
          "type": "address"
        }
      ],
      "name": "setDefaultStablecoin",
      "outputs": [],
      "stateMutability": "nonpayable",
      "type": "function"
    },
    {
      "inputs": [
        {
          "internalType": "address",
          "name": "_earnedAddress",
          "type": "address"
        }
      ],
      "name": "setEarnedAddress",
      "outputs": [],
      "stateMutability": "nonpayable",
      "type": "function"
    },
    {
      "inputs": [
        {
          "internalType": "address",
          "name": "_farmContractAddress",
          "type": "address"
        }
      ],
      "name": "setFarmContractAddress",
      "outputs": [],
      "stateMutability": "nonpayable",
      "type": "function"
    },
    {
      "inputs": [
        {
          "internalType": "uint256",
          "name": "_entranceFeeFactor",
          "type": "uint256"
        },
        {
          "internalType": "uint256",
          "name": "_withdrawFeeFactor",
          "type": "uint256"
        },
        {
          "internalType": "uint256",
          "name": "_controllerFee",
          "type": "uint256"
        },
        {
          "internalType": "uint256",
          "name": "_buyBackRate",
          "type": "uint256"
        },
        {
          "internalType": "uint256",
          "name": "_revShareRate",
          "type": "uint256"
        }
      ],
      "name": "setFeeSettings",
      "outputs": [],
      "stateMutability": "nonpayable",
      "type": "function"
    },
    {
      "inputs": [
        {
          "internalType": "address",
          "name": "_govAddress",
          "type": "address"
        }
      ],
      "name": "setGov",
      "outputs": [],
      "stateMutability": "nonpayable",
      "type": "function"
    },
    {
      "inputs": [
        {
          "internalType": "bool",
          "name": "_isFarmable",
          "type": "bool"
        }
      ],
      "name": "setIsFarmable",
      "outputs": [],
      "stateMutability": "nonpayable",
      "type": "function"
    },
    {
      "inputs": [
        {
          "internalType": "uint256",
          "name": "_slippageNumerator",
          "type": "uint256"
        }
      ],
      "name": "setMaxMarketMovementAllowed",
      "outputs": [],
      "stateMutability": "nonpayable",
      "type": "function"
    },
    {
      "inputs": [
        {
          "internalType": "bool",
          "name": "_onlyGov",
          "type": "bool"
        }
      ],
      "name": "setOnlyGov",
      "outputs": [],
      "stateMutability": "nonpayable",
      "type": "function"
    },
    {
      "inputs": [
        {
          "internalType": "uint256",
          "name": "_pid",
          "type": "uint256"
        }
      ],
      "name": "setPid",
      "outputs": [],
      "stateMutability": "nonpayable",
      "type": "function"
    },
    {
      "inputs": [
        {
          "internalType": "address",
          "name": "_poolAddress",
          "type": "address"
        }
      ],
      "name": "setPoolAddress",
      "outputs": [],
      "stateMutability": "nonpayable",
      "type": "function"
    },
    {
      "inputs": [
        {
          "internalType": "uint8",
          "name": "_idx",
          "type": "uint8"
        },
        {
          "internalType": "address",
          "name": "_priceFeed",
          "type": "address"
        }
      ],
      "name": "setPriceFeed",
      "outputs": [],
      "stateMutability": "nonpayable",
      "type": "function"
    },
    {
      "inputs": [
        {
          "internalType": "address",
          "name": "_rewardsAddress",
          "type": "address"
        }
      ],
      "name": "setRewardsAddress",
      "outputs": [],
      "stateMutability": "nonpayable",
      "type": "function"
    },
    {
      "inputs": [
        {
          "internalType": "uint8",
          "name": "_idx",
          "type": "uint8"
        },
        {
          "internalType": "address[]",
          "name": "_path",
          "type": "address[]"
        }
      ],
      "name": "setStablecoinSwapPaths",
      "outputs": [],
      "stateMutability": "nonpayable",
      "type": "function"
    },
    {
      "inputs": [
        {
          "internalType": "uint8",
          "name": "_idx",
          "type": "uint8"
        },
        {
          "internalType": "address[]",
          "name": "_path",
          "type": "address[]"
        }
      ],
      "name": "setSwapPaths",
      "outputs": [],
      "stateMutability": "nonpayable",
      "type": "function"
    },
    {
      "inputs": [
        {
          "internalType": "address",
          "name": "_token0Address",
          "type": "address"
        }
      ],
      "name": "setToken0Address",
      "outputs": [],
      "stateMutability": "nonpayable",
      "type": "function"
    },
    {
      "inputs": [
        {
          "internalType": "address",
          "name": "_token1Address",
          "type": "address"
        }
      ],
      "name": "setToken1Address",
      "outputs": [],
      "stateMutability": "nonpayable",
      "type": "function"
    },
    {
      "inputs": [
        {
          "internalType": "address",
          "name": "_uniRouterAddress",
          "type": "address"
        }
      ],
      "name": "setUniRouterAddress",
      "outputs": [],
      "stateMutability": "nonpayable",
      "type": "function"
    },
    {
      "inputs": [
        {
          "internalType": "address",
          "name": "_wantAddress",
          "type": "address"
        }
      ],
      "name": "setWantAddress",
      "outputs": [],
      "stateMutability": "nonpayable",
      "type": "function"
    },
    {
      "inputs": [
        {
          "internalType": "address",
          "name": "_ZORROAddress",
          "type": "address"
        }
      ],
      "name": "setZORROAddress",
      "outputs": [],
      "stateMutability": "nonpayable",
      "type": "function"
    },
    {
      "inputs": [
        {
          "internalType": "address",
          "name": "_zorroControllerAddress",
          "type": "address"
        }
      ],
      "name": "setZorroControllerAddress",
      "outputs": [],
      "stateMutability": "nonpayable",
      "type": "function"
    },
    {
      "inputs": [
        {
          "internalType": "address",
          "name": "_poolAddress",
          "type": "address"
        }
      ],
      "name": "setZorroLPPoolAddress",
      "outputs": [],
      "stateMutability": "nonpayable",
      "type": "function"
    },
    {
      "inputs": [
        {
          "internalType": "address",
          "name": "_otherToken",
          "type": "address"
        }
      ],
      "name": "setZorroLPPoolOtherToken",
      "outputs": [],
      "stateMutability": "nonpayable",
      "type": "function"
    },
    {
      "inputs": [
        {
          "internalType": "address",
          "name": "_stakingVault",
          "type": "address"
        }
      ],
      "name": "setZorroStakingVault",
      "outputs": [],
      "stateMutability": "nonpayable",
      "type": "function"
    },
    {
      "inputs": [
        {
          "internalType": "address",
          "name": "_zorroXChainController",
          "type": "address"
        }
      ],
      "name": "setZorroXChainControllerAddress",
      "outputs": [],
      "stateMutability": "nonpayable",
      "type": "function"
    },
    {
      "inputs": [],
      "name": "sharesTotal",
      "outputs": [
        {
          "internalType": "uint256",
          "name": "",
          "type": "uint256"
        }
      ],
      "stateMutability": "view",
      "type": "function"
    },
    {
      "inputs": [],
      "name": "stablecoinPriceFeed",
      "outputs": [
        {
          "internalType": "contract AggregatorV3Interface",
          "name": "",
          "type": "address"
        }
      ],
      "stateMutability": "view",
      "type": "function"
    },
    {
      "inputs": [
        {
          "internalType": "uint256",
          "name": "",
          "type": "uint256"
        }
      ],
      "name": "stablecoinToLPPoolOtherTokenPath",
      "outputs": [
        {
          "internalType": "address",
          "name": "",
          "type": "address"
        }
      ],
      "stateMutability": "view",
      "type": "function"
    },
    {
      "inputs": [
        {
          "internalType": "uint256",
          "name": "",
          "type": "uint256"
        }
      ],
      "name": "stablecoinToToken0Path",
      "outputs": [
        {
          "internalType": "address",
          "name": "",
          "type": "address"
        }
      ],
      "stateMutability": "view",
      "type": "function"
    },
    {
      "inputs": [
        {
          "internalType": "uint256",
          "name": "",
          "type": "uint256"
        }
      ],
      "name": "stablecoinToToken1Path",
      "outputs": [
        {
          "internalType": "address",
          "name": "",
          "type": "address"
        }
      ],
      "stateMutability": "view",
      "type": "function"
    },
    {
      "inputs": [
        {
          "internalType": "uint256",
          "name": "",
          "type": "uint256"
        }
      ],
      "name": "stablecoinToZORROPath",
      "outputs": [
        {
          "internalType": "address",
          "name": "",
          "type": "address"
        }
      ],
      "stateMutability": "view",
      "type": "function"
    },
    {
      "inputs": [],
      "name": "token0Address",
      "outputs": [
        {
          "internalType": "address",
          "name": "",
          "type": "address"
        }
      ],
      "stateMutability": "view",
      "type": "function"
    },
    {
      "inputs": [],
      "name": "token0PriceFeed",
      "outputs": [
        {
          "internalType": "contract AggregatorV3Interface",
          "name": "",
          "type": "address"
        }
      ],
      "stateMutability": "view",
      "type": "function"
    },
    {
      "inputs": [
        {
          "internalType": "uint256",
          "name": "",
          "type": "uint256"
        }
      ],
      "name": "token0ToStablecoinPath",
      "outputs": [
        {
          "internalType": "address",
          "name": "",
          "type": "address"
        }
      ],
      "stateMutability": "view",
      "type": "function"
    },
    {
      "inputs": [],
      "name": "token1Address",
      "outputs": [
        {
          "internalType": "address",
          "name": "",
          "type": "address"
        }
      ],
      "stateMutability": "view",
      "type": "function"
    },
    {
      "inputs": [],
      "name": "token1PriceFeed",
      "outputs": [
        {
          "internalType": "contract AggregatorV3Interface",
          "name": "",
          "type": "address"
        }
      ],
      "stateMutability": "view",
      "type": "function"
    },
    {
      "inputs": [
        {
          "internalType": "uint256",
          "name": "",
          "type": "uint256"
        }
      ],
      "name": "token1ToStablecoinPath",
      "outputs": [
        {
          "internalType": "address",
          "name": "",
          "type": "address"
        }
      ],
      "stateMutability": "view",
      "type": "function"
    },
    {
      "inputs": [
        {
          "internalType": "address",
          "name": "newOwner",
          "type": "address"
        }
      ],
      "name": "transferOwnership",
      "outputs": [],
      "stateMutability": "nonpayable",
      "type": "function"
    },
    {
      "inputs": [],
      "name": "uniRouterAddress",
      "outputs": [
        {
          "internalType": "address",
          "name": "",
          "type": "address"
        }
      ],
      "stateMutability": "view",
      "type": "function"
    },
    {
      "inputs": [],
      "name": "unpause",
      "outputs": [],
      "stateMutability": "nonpayable",
      "type": "function"
    },
    {
      "inputs": [],
      "name": "vaultActions",
      "outputs": [
        {
          "internalType": "address",
          "name": "",
          "type": "address"
        }
      ],
      "stateMutability": "view",
      "type": "function"
    },
    {
      "inputs": [],
      "name": "wantAddress",
      "outputs": [
        {
          "internalType": "address",
          "name": "",
          "type": "address"
        }
      ],
      "stateMutability": "view",
      "type": "function"
    },
    {
      "inputs": [],
      "name": "wantLockedTotal",
      "outputs": [
        {
          "internalType": "uint256",
          "name": "",
          "type": "uint256"
        }
      ],
      "stateMutability": "view",
      "type": "function"
    },
    {
      "inputs": [],
      "name": "withdrawFeeFactor",
      "outputs": [
        {
          "internalType": "uint256",
          "name": "",
          "type": "uint256"
        }
      ],
      "stateMutability": "view",
      "type": "function"
    },
    {
      "inputs": [],
      "name": "withdrawFeeFactorLL",
      "outputs": [
        {
          "internalType": "uint256",
          "name": "",
          "type": "uint256"
        }
      ],
      "stateMutability": "view",
      "type": "function"
    },
    {
      "inputs": [],
      "name": "withdrawFeeFactorMax",
      "outputs": [
        {
          "internalType": "uint256",
          "name": "",
          "type": "uint256"
        }
      ],
      "stateMutability": "view",
      "type": "function"
    },
    {
      "inputs": [
        {
          "internalType": "uint256",
          "name": "_wantAmt",
          "type": "uint256"
        }
      ],
      "name": "withdrawWantToken",
      "outputs": [
        {
          "internalType": "uint256",
          "name": "sharesRemoved",
          "type": "uint256"
        }
      ],
      "stateMutability": "nonpayable",
      "type": "function"
    },
    {
      "inputs": [],
      "name": "zorroControllerAddress",
      "outputs": [
        {
          "internalType": "address",
          "name": "",
          "type": "address"
        }
      ],
      "stateMutability": "view",
      "type": "function"
    },
    {
      "inputs": [],
      "name": "zorroLPPool",
      "outputs": [
        {
          "internalType": "address",
          "name": "",
          "type": "address"
        }
      ],
      "stateMutability": "view",
      "type": "function"
    },
    {
      "inputs": [],
      "name": "zorroLPPoolOtherToken",
      "outputs": [
        {
          "internalType": "address",
          "name": "",
          "type": "address"
        }
      ],
      "stateMutability": "view",
      "type": "function"
    },
    {
      "inputs": [],
      "name": "zorroStakingVault",
      "outputs": [
        {
          "internalType": "address",
          "name": "",
          "type": "address"
        }
      ],
      "stateMutability": "view",
      "type": "function"
    },
    {
      "inputs": [],
      "name": "zorroXChainController",
      "outputs": [
        {
          "internalType": "address",
          "name": "",
          "type": "address"
        }
      ],
      "stateMutability": "view",
      "type": "function"
    },
    {
      "inputs": [
        {
          "internalType": "uint256",
          "name": "_wantAmt",
          "type": "uint256"
        }
      ],
      "name": "unfarm",
      "outputs": [],
      "stateMutability": "nonpayable",
      "type": "function"
    }
  ],
  "bytecode": "0x608060405234801561001057600080fd5b50614c78806100206000396000f3fe608060405234801561001057600080fd5b50600436106105855760003560e060020a900480637153ef86116102e9578063bf3a7d4011610191578063e7198474116100f8578063f05c09b3116100b1578063f2fde38b1161008b578063f2fde38b14610ba3578063f5046a2914610bb6578063fbf5683f14610bc9578063ff29b39514610bdc57600080fd5b8063f05c09b314610b7a578063f106845414610b87578063f25342bf14610b9057600080fd5b8063e719847414610b21578063e7a0367914610b34578063e9e15b4f14610b47578063ebfba7c414610b5a578063edf5e58514610b6d578063ee50dc34146106c557600080fd5b8063c8e3d18b1161014a578063c8e3d18b14610aaf578063cfad57a214610ac2578063d7cb416f14610ad5578063de84199114610ae8578063e502a88d14610afb578063e65a011714610b0e57600080fd5b8063bf3a7d4014610a50578063c0973eed14610a63578063c302a4d01461092c578063c4d66de814610a76578063c524a05614610a89578063c8479cd614610a9c57600080fd5b8063959334f411610250578063aada5bf611610209578063b1414dbb116101e3578063b1414dbb14610a17578063b3545c011461059f578063b61bb80a14610a2a578063b73cba2a14610a3d57600080fd5b8063aada5bf6146109de578063ab196def146109f1578063ae53e58a14610a0457600080fd5b8063959334f41461096c57806396e9aff81461097f5780639fc33a9f14610992578063a0495391146109a5578063a4d2b083146109b8578063aabf190b146109cb57600080fd5b80638456cb59116102a25780638456cb591461091b57806385f02dd614610923578063866b20181461092c5780638906758d146109355780638da5cb5b146109485780639339fd3c1461095957600080fd5b80637153ef86146108a95780637bf604d8146108bc5780637ff36fbe146108cf57806381aa8d31146108e2578063833eeab9146108f557806383f019391461090857600080fd5b806344a3955e1161044c5780636183e804116103b3578063677379e51161036c5780636ca8bd65116103465780636ca8bd65146108685780636f96f6fa1461087b57806370d5ae051461088e578063715018a6146108a157600080fd5b8063677379e51461083957806368f541621461084c578063693a090b1461085557600080fd5b80636183e804146107da57806361b5bf9f146107ed5780636392ab1214610800578063648794a41461081357806367057b6c146106c557806367206d401461082657600080fd5b806355ebedec1161040557806355ebedec14610770578063567e07c914610783578063583bda3b146107965780635c975abb146107a95780635da79d63146107b45780635fc77d43146107c757600080fd5b806344a3955e1461071657806346008a071461071f5780634b0e7216146107375780634bf71bb81461074a5780634c5b09da1461075d5780634d9f7bb2146106c557600080fd5b80631e2bc672116104f05780633214471f116104a95780633214471f146106e157806334563acc146106ea57806336e9332d146106fd5780633f4ba83a1461070557806342da4eb31461070d57806343788cd2146106c557600080fd5b80631e2bc6721461068c5780631e85b3ad1461069f578063211019d71461059f5780632209b59e146106b25780632717eff3146106c5578063320d47cc146106ce57600080fd5b80630fa4e01e116105425780630fa4e01e146106385780631334903f146106415780631755ff211461064a578063178a8d071461065d5780631b0d8aab146106665780631c885bae1461067957600080fd5b806305828d3e1461058a578063061c7d481461059f5780630761a172146105bb5780630b6bb30b146105c45780630bbd6cd6146105d75780630daef32114610602575b600080fd5b61059d610598366004613c99565b610bef565b005b6105a86103e881565b6040519081526020015b60405180910390f35b6105a860f45481565b61059d6105d2366004613ccf565b610c47565b6105ea6105e5366004613cec565b610cf5565b604051600160a060020a0390911681526020016105b2565b60cb54610628907501000000000000000000000000000000000000000000900460ff1681565b60405190151581526020016105b2565b6105a860e25481565b6105a860e05481565b60d9546105ea90600160a060020a031681565b6105a860de5481565b61059d610674366004613cec565b610d1f565b61059d610687366004613cec565b610d51565b6105ea61069a366004613cec565b610d5d565b6105ea6106ad366004613cec565b610d6d565b6105a86106c0366004613cec565b610d7d565b6105a861271081565b61059d6106dc366004613cec565b610f0a565b6105a860df5481565b61059d6106f836600461409c565b610f3c565b61059d6113a2565b61059d6113dc565b6105a860e35481565b6105a860e45481565b60cb546105ea906101009004600160a060020a031681565b61059d610745366004613c99565b611418565b6105ea610758366004613cec565b611467565b61059d61076b366004613c99565b611477565b6105a861077e366004613cec565b6114c6565b61059d610791366004613c99565b6116e4565b61059d6107a4366004613c99565b611733565b60975460ff16610628565b61059d6107c2366004613c99565b611782565b60cd546105ea90600160a060020a031681565b61059d6107e8366004613c99565b6117d1565b61059d6107fb366004613c99565b611820565b6105ea61080e366004613cec565b61186f565b6105a8610821366004614267565b61187f565b61059d610834366004614289565b611a25565b60d0546105ea90600160a060020a031681565b6105a860e15481565b60da546105ea90600160a060020a031681565b61059d610876366004613c99565b611b2d565b60f0546105ea90600160a060020a031681565b60d7546105ea90600160a060020a031681565b61059d611b7c565b61059d6108b73660046142cb565b611bb3565b60db546105ea90600160a060020a031681565b60d2546105ea90600160a060020a031681565b6105ea6108f0366004613cec565b611ea7565b6105ea610903366004613cec565b611eb7565b61059d610916366004613ccf565b611ec7565b61059d611f07565b6105a860dd5481565b6105a861232881565b61059d610943366004613c99565b611f41565b603354600160a060020a03166105ea565b61059d610967366004614315565b611f90565b61059d61097a366004613c99565b612052565b6105ea61098d366004613cec565b6120a1565b60d5546105ea90600160a060020a031681565b6105ea6109b3366004613cec565b6120b1565b60cf546105ea90600160a060020a031681565b60f1546105ea90600160a060020a031681565b60f3546105ea90600160a060020a031681565b60f2546105ea90600160a060020a031681565b60ef546105ea90600160a060020a031681565b60cc546105ea90600160a060020a031681565b60d6546105ea90600160a060020a031681565b61059d610a4b366004613c99565b6120c1565b61059d610a5e366004613c99565b612110565b60d8546105ea90600160a060020a031681565b61059d610a84366004613c99565b61215f565b61059d610a97366004613c99565b6121fa565b61059d610aaa366004613c99565b612249565b6105ea610abd366004613cec565b612298565b61059d610ad0366004613c99565b6122a8565b60d3546105ea90600160a060020a031681565b61059d610af636600461439c565b61233d565b6105a8610b09366004614267565b6124bf565b61059d610b1c366004613cec565b612624565b60d4546105ea90600160a060020a031681565b60d1546105ea90600160a060020a031681565b61059d610b55366004613c99565b612b2e565b60dc546105ea90600160a060020a031681565b60c9546106289060ff1681565b60cb546106289060ff1681565b6105a860ca5481565b60ee546105ea90600160a060020a031681565b61059d610bb1366004613c99565b612b7d565b60ce546105ea90600160a060020a031681565b6105ea610bd7366004613cec565b612c32565b61059d610bea366004614315565b612c42565b603354600160a060020a03163314610c255760405160e560020a62461bcd028152600401610c1c906143d5565b60405180910390fd5b60d38054600160a060020a031916600160a060020a0392909216919091179055565b60cb546101009004600160a060020a03163314610c795760405160e560020a62461bcd028152600401610c1c9061440a565b60cb805482151575010000000000000000000000000000000000000000000275ff000000000000000000000000000000000000000000199091161790556040517f125177ac7b8930dac1e59c2b30b1b6b9191b30af40cf6bbb5d20fec4d44be60f90610cea90831515815260200190565b60405180910390a150565b60e78181548110610d0557600080fd5b600091825260209091200154600160a060020a0316905081565b603354600160a060020a03163314610d4c5760405160e560020a62461bcd028152600401610c1c906143d5565b60ca55565b610d5a81612d43565b50565b60f68181548110610d0557600080fd5b60e68181548110610d0557600080fd5b60cc54600090600160a060020a031633600160a060020a031614610db65760405160e560020a62461bcd028152600401610c1c90614441565b60026065541415610ddc5760405160e560020a62461bcd028152600401610c1c90614478565b600260655560975460ff1615610e075760405160e560020a62461bcd028152600401610c1c906144af565b60008211610e5a5760405160e560020a62461bcd02815260206004820152601e60248201527f57616e7420746f6b656e206465706f736974206d757374206265203e203000006044820152606401610c1c565b60d154610e7290600160a060020a0316333085612dcf565b819050600060e354118015610e895750600060e454115b15610ec55761271060e354610e9e9190614515565b60e05460e454610eae9085614515565b610eb89190614515565b610ec29190614534565b90505b8060e454610ed3919061456f565b60e45560cb5460ff1615610eee57610ee9612e80565b610f00565b8160e354610efc919061456f565b60e3555b6001606555919050565b603354600160a060020a03163314610f375760405160e560020a62461bcd028152600401610c1c906143d5565b60f455565b600054610100900460ff16610f575760005460ff1615610f5b565b303b155b610f7a5760405160e560020a62461bcd028152600401610c1c90614587565b600054610100900460ff16158015610f9c576000805461ffff19166101011790555b815160ca5560208083015160c9805460ff191691151591909117905560408084015160cb80546060808801518051750100000000000000000000000000000000000000000074ffffffffffffffffffffffffffffffffffffffffff1990941695151574ffffffffffffffffffffffffffffffffffffffff00191695909517610100600160a060020a0396871681029190911775ff0000000000000000000000000000000000000000001916939093179093558286015160cc8054600160a060020a03199081169287169290921790558386015160cd805483169187169190911790558382015160ce8054831691871691909117905560808085015160cf8054841691881691909117905560a085015160d18054841691881691909117905560c085015160d2805484169188169190911790559284015160d48054831691871691909117905561012084015160d58054831691871691909117905561014084015160d8805483169187169190911790556101608085015160d98054841691881691909117905561018085015160da805484169188169190911790556101a085015160db805484169188169190911790556101c085015160dc805484169188169190911790556101e09094015160d6805490921695169490941790935590860151805160dd558085015160de559283015160df559082015160e0559081015160e15583015180516111af9260eb920190613bac565b5060a082015180516111c99160e991602090910190613bac565b5060c082015180516111e39160e591602090910190613bac565b5060e082015180516111fd9160ec91602090910190613bac565b5061010082015180516112189160ed91602090910190613bac565b5060c082015180516112329160e591602090910190613bac565b50610120820151805161124d9160f591602090910190613bac565b5061014082015180516112689160f691602090910190613bac565b5060d0546040517f8b4c5aee000000000000000000000000000000000000000000000000000000008152600160a060020a0390911690638b4c5aee906112b39060e5906004016145e4565b600060405180830381865afa1580156112d0573d6000803e3d6000fd5b505050506040513d6000823e601f3d908101601f191682016040526112f89190810190614634565b805161130c9160e791602090910190613bac565b50610180820151805160ee8054600160a060020a0319908116600160a060020a0393841617909155604083015160f080548316918416919091179055608083015160f180548316918416919091179055606083015160f28054831691841691909117905560a09092015160f38054909316911617905561138b8361215f565b801561139d576000805461ff00191690555b505050565b600260655414156113c85760405160e560020a62461bcd028152600401610c1c90614478565b60026065556113d5612e80565b6001606555565b60cb546101009004600160a060020a0316331461140e5760405160e560020a62461bcd028152600401610c1c9061440a565b611416612fd0565b565b603354600160a060020a031633146114455760405160e560020a62461bcd028152600401610c1c906143d5565b60d78054600160a060020a031916600160a060020a0392909216919091179055565b60ed8181548110610d0557600080fd5b603354600160a060020a031633146114a45760405160e560020a62461bcd028152600401610c1c906143d5565b60d58054600160a060020a031916600160a060020a0392909216919091179055565b60cc54600090600160a060020a031633600160a060020a0316146114ff5760405160e560020a62461bcd028152600401610c1c90614441565b600260655414156115255760405160e560020a62461bcd028152600401610c1c90614478565b600260655560975460ff16156115505760405160e560020a62461bcd028152600401610c1c906144af565b600082116115a35760405160e560020a62461bcd02815260206004820152600760248201527f6e656757616e74000000000000000000000000000000000000000000000000006044820152606401610c1c565b60e35460e4546115b39084614515565b6115bd9190614534565b905060e4548111156115ce575060e4545b8060e4546115dc91906146c0565b60e45560e15461271011156116095761271060e154836115fc9190614515565b6116069190614534565b91505b60cb5460ff161561161d5761161d82612d43565b60d15460405160e060020a6370a08231028152306004820152600091600160a060020a0316906370a0823190602401602060405180830381865afa158015611669573d6000803e3d6000fd5b505050506040513d601f19601f8201168201806040525081019061168d91906146d7565b90508083111561169b578092505b8260e35410156116ab5760e35492505b8260e3546116b991906146c0565b60e35560cc5460d1546116d991600160a060020a0391821691168561306f565b506001606555919050565b603354600160a060020a031633146117115760405160e560020a62461bcd028152600401610c1c906143d5565b60cd8054600160a060020a031916600160a060020a0392909216919091179055565b603354600160a060020a031633146117605760405160e560020a62461bcd028152600401610c1c906143d5565b60ce8054600160a060020a031916600160a060020a0392909216919091179055565b603354600160a060020a031633146117af5760405160e560020a62461bcd028152600401610c1c906143d5565b60da8054600160a060020a031916600160a060020a0392909216919091179055565b603354600160a060020a031633146117fe5760405160e560020a62461bcd028152600401610c1c906143d5565b60d18054600160a060020a031916600160a060020a0392909216919091179055565b603354600160a060020a0316331461184d5760405160e560020a62461bcd028152600401610c1c906143d5565b60db8054600160a060020a031916600160a060020a0392909216919091179055565b60eb8181548110610d0557600080fd5b60cc54600090600160a060020a031633600160a060020a0316146118b85760405160e560020a62461bcd028152600401610c1c90614441565b60975460ff16156118de5760405160e560020a62461bcd028152600401610c1c906144af565b60d05460d1546118fb91600160a060020a039182169116856130b8565b60d0546040805160e08101825260d654600160a060020a03908116825260d254811660208084019190915260d15482168385015260d9548216606084015260ee548216608084015260f354821660a084015260e78054855181840281018401909652808652929095169463b1c86edb9489949360c08501939192918301828280156119af57602002820191906000526020600020905b8154600160a060020a03168152600190910190602001808311611991575b5050505050815250856040518463ffffffff1660e060020a0281526004016119d993929190614734565b6020604051808303816000875af11580156119f8573d6000803e3d6000fd5b505050506040513d601f19601f82011682018060405250810190611a1c91906146d7565b90505b92915050565b60cb546101009004600160a060020a03163314611a575760405160e560020a62461bcd028152600401610c1c9061440a565b60d454600160a060020a0384811691161415611ab85760405160e560020a62461bcd02815260206004820152600560248201527f21736166650000000000000000000000000000000000000000000000000000006044820152606401610c1c565b60d154600160a060020a0384811691161415611b195760405160e560020a62461bcd02815260206004820152600560248201527f21736166650000000000000000000000000000000000000000000000000000006044820152606401610c1c565b61139d600160a060020a038416828461306f565b603354600160a060020a03163314611b5a5760405160e560020a62461bcd028152600401610c1c906143d5565b60cf8054600160a060020a031916600160a060020a0392909216919091179055565b603354600160a060020a03163314611ba95760405160e560020a62461bcd028152600401610c1c906143d5565b611416600061319c565b60cb546101009004600160a060020a03163314611be55760405160e560020a62461bcd028152600401610c1c9061440a565b612328851015611c3a5760405160e560020a62461bcd02815260206004820152601a60248201527f5f656e7472616e6365466565466163746f7220746f6f206c6f770000000000006044820152606401610c1c565b612710851115611c8f5760405160e560020a62461bcd02815260206004820152601b60248201527f5f656e7472616e6365466565466163746f7220746f6f206869676800000000006044820152606401610c1c565b60e0859055612328841015611ce95760405160e560020a62461bcd02815260206004820152601a60248201527f5f7769746864726177466565466163746f7220746f6f206c6f770000000000006044820152606401610c1c565b612710841115611d3e5760405160e560020a62461bcd02815260206004820152601b60248201527f5f7769746864726177466565466163746f7220746f6f206869676800000000006044820152606401610c1c565b60e18490556103e8831115611d985760405160e560020a62461bcd02815260206004820152601760248201527f5f636f6e74726f6c6c657246656520746f6f20686967680000000000000000006044820152606401610c1c565b60dd8390556103e8821115611df25760405160e560020a62461bcd02815260206004820152601560248201527f5f6275794261636b5261746520746f6f206869676800000000000000000000006044820152606401610c1c565b60de8290556103e8811115611e4c5760405160e560020a62461bcd02815260206004820152601660248201527f5f72657653686172655261746520746f6f2068696768000000000000000000006044820152606401610c1c565b60df819055604080518681526020810186905290810184905260608101839052608081018290527fc67e0b149a57a70fa44a531a46c2c6d8e0b242fa12f459f250012c3a5987d29a9060a00160405180910390a15050505050565b60f58181548110610d0557600080fd5b60e58181548110610d0557600080fd5b603354600160a060020a03163314611ef45760405160e560020a62461bcd028152600401610c1c906143d5565b60cb805460ff1916911515919091179055565b60cb546101009004600160a060020a03163314611f395760405160e560020a62461bcd028152600401610c1c9061440a565b6114166131ee565b603354600160a060020a03163314611f6e5760405160e560020a62461bcd028152600401610c1c906143d5565b60d88054600160a060020a031916600160a060020a0392909216919091179055565b603354600160a060020a03163314611fbd5760405160e560020a62461bcd028152600401610c1c906143d5565b60ff8316611fd757611fd160e58383613c11565b50505050565b8260ff1660011415611fef57611fd160f58383613c11565b8260ff166002141561200757611fd160f68383613c11565b60405160e560020a62461bcd02815260206004820152601960248201527f756e737570706f727465642069647820737761702070617468000000000000006044820152606401610c1c565b603354600160a060020a0316331461207f5760405160e560020a62461bcd028152600401610c1c906143d5565b60dc8054600160a060020a031916600160a060020a0392909216919091179055565b60ea8181548110610d0557600080fd5b60e88181548110610d0557600080fd5b603354600160a060020a031633146120ee5760405160e560020a62461bcd028152600401610c1c906143d5565b60d48054600160a060020a031916600160a060020a0392909216919091179055565b603354600160a060020a0316331461213d5760405160e560020a62461bcd028152600401610c1c906143d5565b60cc8054600160a060020a031916600160a060020a0392909216919091179055565b600054610100900460ff1661217a5760005460ff161561217e565b303b155b61219d5760405160e560020a62461bcd028152600401610c1c90614587565b600054610100900460ff161580156121bf576000805461ffff19166101011790555b6121c7613249565b6121d082612b7d565b60d78054600160a060020a03191661dead17905580156121f6576000805461ff00191690555b5050565b603354600160a060020a031633146122275760405160e560020a62461bcd028152600401610c1c906143d5565b60d68054600160a060020a031916600160a060020a0392909216919091179055565b603354600160a060020a031633146122765760405160e560020a62461bcd028152600401610c1c906143d5565b60d28054600160a060020a031916600160a060020a0392909216919091179055565b60e98181548110610d0557600080fd5b60cb546101009004600160a060020a031633146122da5760405160e560020a62461bcd028152600401610c1c9061440a565b60cb805474ffffffffffffffffffffffffffffffffffffffff001916610100600160a060020a038416908102919091179091556040519081527f91a8c1cc2d4a3bb60738481947a00cbb9899c822916694cf8bb1d68172fdcd5490602001610cea565b603354600160a060020a0316331461236a5760405160e560020a62461bcd028152600401610c1c906143d5565b60ff82166123935760ee8054600160a060020a038316600160a060020a03199091161790555050565b8160ff16600114156123c05760ef8054600160a060020a038316600160a060020a03199091161790555050565b8160ff16600214156123ed5760f08054600160a060020a038316600160a060020a03199091161790555050565b8160ff166003141561241a5760f28054600160a060020a038316600160a060020a03199091161790555050565b8160ff16600414156124475760f18054600160a060020a038316600160a060020a03199091161790555050565b8160ff16600514156124745760f38054600160a060020a038316600160a060020a03199091161790555050565b60405160e560020a62461bcd02815260206004820152601460248201527f756e737570706f727465642066656564206964780000000000000000000000006044820152606401610c1c565b60cc54600090600160a060020a031633600160a060020a0316146124f85760405160e560020a62461bcd028152600401610c1c90614441565b60975460ff161561251e5760405160e560020a62461bcd028152600401610c1c906144af565b60d05460d65461253b91600160a060020a039182169116856130b8565b60d054604080516101008101825260d654600160a060020a03908116825260d254811660208084019190915260ce5482168385015260d9548216606084015260d1548216608084015260ee54821660a084015260f354821660c084015260e58054855181840281018401909652808652929095169463ac64c3369489949360e08501939192918301828280156125fa57602002820191906000526020600020905b8154600160a060020a031681526001909101906020018083116125dc575b5050505050815250856040518463ffffffff1660e060020a0281526004016119d9939291906147dc565b6002606554141561264a5760405160e560020a62461bcd028152600401610c1c90614478565b600260655560975460ff16156126755760405160e560020a62461bcd028152600401610c1c906144af565b60cb5460ff166126ca5760405160e560020a62461bcd02815260206004820152600960248201527f216661726d61626c6500000000000000000000000000000000000000000000006044820152606401610c1c565b60cb547501000000000000000000000000000000000000000000900460ff16156127205760cb546101009004600160a060020a031633146127205760405160e560020a62461bcd028152600401610c1c9061440a565b61272a6000612d43565b60d45460405160e060020a6370a08231028152306004820152600091600160a060020a0316906370a0823190602401602060405180830381865afa158015612776573d6000803e3d6000fd5b505050506040513d601f19601f8201168201806040525081019061279a91906146d7565b9050600081116127ef5760405160e560020a62461bcd02815260206004820152600560248201527f306561726e0000000000000000000000000000000000000000000000000000006044820152606401610c1c565b604080516080810190915260f05460009190819061281590600160a060020a031661327b565b815260f25460209091019061283290600160a060020a031661327b565b815260f15460209091019061284f90600160a060020a031661327b565b815260f35460209091019061286c90600160a060020a031661327b565b90529050600061287b836133d2565b905060008061288b858786613422565b90925090506000818361289e86896146c0565b6128a891906146c0565b6128b291906146c0565b60d45460d254919250600160a060020a03918216911614612a0b5760d05460d4546128ea91600160a060020a039182169116836130b8565b60d05460408051610100810182528381528751602082015260ee54600160a060020a03938416936312ad7eba93830191612924911661327b565b815260d454600160a060020a0390811660208084019190915260d254909116604080840191909152606083018d905260e9805482518185028101850190935280835260809094019391929091908301828280156129aa57602002820191906000526020600020905b8154600160a060020a0316815260019091019060200180831161298c575b50505091835250503060209091015260405160e060020a63ffffffff84160281526129d89190600401614899565b600060405180830381600087803b1580156129f257600080fd5b505af1158015612a06573d6000803e3d6000fd5b505050505b60d25460405160e060020a6370a08231028152306004820152600091600160a060020a0316906370a0823190602401602060405180830381865afa158015612a57573d6000803e3d6000fd5b505050506040513d601f19601f82011682018060405250810190612a7b91906146d7565b60d95460d254919250612a9b91600160a060020a039081169116836130b8565b60d9546040517fb6b55f2500000000000000000000000000000000000000000000000000000000815260048101839052600160a060020a039091169063b6b55f2590602401600060405180830381600087803b158015612afa57600080fd5b505af1158015612b0e573d6000803e3d6000fd5b50504360e25550612b1f9050612e80565b50506001606555505050505050565b603354600160a060020a03163314612b5b5760405160e560020a62461bcd028152600401610c1c906143d5565b60d98054600160a060020a031916600160a060020a0392909216919091179055565b603354600160a060020a03163314612baa5760405160e560020a62461bcd028152600401610c1c906143d5565b600160a060020a038116612c295760405160e560020a62461bcd02815260206004820152602660248201527f4f776e61626c653a206e6577206f776e657220697320746865207a65726f206160448201527f64647265737300000000000000000000000000000000000000000000000000006064820152608401610c1c565b610d5a8161319c565b60ec8181548110610d0557600080fd5b603354600160a060020a03163314612c6f5760405160e560020a62461bcd028152600401610c1c906143d5565b60ff8316612c8357611fd160e58383613c11565b8260ff1660011415612c9b57611fd160e68383613c11565b8260ff1660021415612cb357611fd160e78383613c11565b8260ff1660031415612ccb57611fd160e88383613c11565b8260ff1660041415612ce357611fd160e98383613c11565b8260ff1660051415612cfb57611fd160ea8383613c11565b8260ff1660061415612d1357611fd160eb8383613c11565b8260ff1660071415612d2b57611fd160ec8383613c11565b8260ff166008141561247457611fd160ed8383613c11565b60d55460ca546040517fb5c5f672000000000000000000000000000000000000000000000000000000008152306004820152602481019190915260448101839052600160a060020a039091169063b5c5f672906064015b600060405180830381600087803b158015612db457600080fd5b505af1158015612dc8573d6000803e3d6000fd5b5050505050565b604051600160a060020a0380851660248301528316604482015260648101829052611fd19085907f23b872dd00000000000000000000000000000000000000000000000000000000906084015b60408051601f198184030181529190526020810180517bffffffffffffffffffffffffffffffffffffffffffffffffffffffff167fffffffff0000000000000000000000000000000000000000000000000000000090931692909217909152613676565b60cb5460ff16612ed55760405160e560020a62461bcd02815260206004820152600960248201527f216661726d61626c6500000000000000000000000000000000000000000000006044820152606401610c1c565b60d15460405160e060020a6370a08231028152306004820152600091600160a060020a0316906370a0823190602401602060405180830381865afa158015612f21573d6000803e3d6000fd5b505050506040513d601f19601f82011682018060405250810190612f4591906146d7565b90508060e354612f55919061456f565b60e35560d55460d154612f7591600160a060020a039182169116836130b8565b60d55460ca546040517f0efe6a8b000000000000000000000000000000000000000000000000000000008152306004820152602481019190915260448101839052600160a060020a0390911690630efe6a8b90606401612d9a565b60975460ff166130255760405160e560020a62461bcd02815260206004820152601460248201527f5061757361626c653a206e6f74207061757365640000000000000000000000006044820152606401610c1c565b6097805460ff191690557f5db9ee0a495bf2e6ff9c91a7834c1ba4fdd244a5e8aa4e537bd38aeae4b073aa335b604051600160a060020a03909116815260200160405180910390a1565b604051600160a060020a03831660248201526044810182905261139d9084907fa9059cbb0000000000000000000000000000000000000000000000000000000090606401612e1c565b6040517fdd62ed3e000000000000000000000000000000000000000000000000000000008152306004820152600160a060020a038381166024830152600091839186169063dd62ed3e90604401602060405180830381865afa158015613122573d6000803e3d6000fd5b505050506040513d601f19601f8201168201806040525081019061314691906146d7565b613150919061456f565b604051600160a060020a038516602482015260448101829052909150611fd19085907f095ea7b30000000000000000000000000000000000000000000000000000000090606401612e1c565b60338054600160a060020a03838116600160a060020a0319831681179093556040519116919082907f8be0079c531659141344cd1fd0a4f28419497f9722a3daafe3b4186f6b6457e090600090a35050565b60975460ff16156132145760405160e560020a62461bcd028152600401610c1c906144af565b6097805460ff191660011790557f62e78cea01bee320cd4e420270b5ea74000d11b0c9f74754ebdbfc544b05a2586130523390565b600054610100900460ff166132735760405160e560020a62461bcd028152600401610c1c90614928565b61141661375e565b60008082600160a060020a031663313ce5676040518163ffffffff1660e060020a028152600401602060405180830381865afa1580156132bf573d6000803e3d6000fd5b505050506040513d601f19601f820116820180604052508101906132e39190614985565b9050600083600160a060020a031663feaf968c6040518163ffffffff1660e060020a02815260040160a060405180830381865afa158015613328573d6000803e3d6000fd5b505050506040513d601f19601f8201168201806040525081019061334c91906149bc565b50505091505060008112156133a65760405160e560020a62461bcd02815260206004820152601660248201527f6e656720707269636573206e6f7420616c6c6f776564000000000000000000006044820152606401610c1c565b6133b182600a614af3565b6133c08264e8d4a51000614515565b6133ca9190614534565b949350505050565b6000811561341d5760dd541561341d5761271060dd54836133f39190614515565b6133fd9190614534565b60d85460d45491925061341d91600160a060020a0390811691168361306f565b919050565b600080600060de54111561344e5761271060de54866134419190614515565b61344b9190614534565b91505b60df54156134745761271060df54866134679190614515565b6134719190614534565b90505b60c95460ff161561349a5761348a828585613791565b61349581858561390b565b61366e565b60006134a6828461456f565b60d05460d4549192506134c691600160a060020a039081169116836130b8565b60d054604080516101008101825283815286516020808301919091526060808901518385015260d454600160a060020a039081169184019190915260d6548116608084015260a083018a905260ed805485518185028101850190965280865291909516946312ad7eba9460c085019390929083018282801561357157602002820191906000526020600020905b8154600160a060020a03168152600190910190602001808311613553575b505050918352505060cd54600160a060020a031660209091015260405160e060020a63ffffffff84160281526135aa9190600401614899565b600060405180830381600087803b1580156135c457600080fd5b505af11580156135d8573d6000803e3d6000fd5b505060cd5460ca546040517f464e3c8b0000000000000000000000000000000000000000000000000000000081526004810191909152602481018790526044810186905260648101899052600160a060020a03909116925063464e3c8b9150608401600060405180830381600087803b15801561365457600080fd5b505af1158015613668573d6000803e3d6000fd5b50505050505b935093915050565b60006136cb826040518060400160405280602081526020017f5361666545524332303a206c6f772d6c6576656c2063616c6c206661696c656481525085600160a060020a0316613a089092919063ffffffff16565b80519091501561139d57808060200190518101906136e99190614b02565b61139d5760405160e560020a62461bcd02815260206004820152602a60248201527f5361666545524332303a204552433230206f7065726174696f6e20646964206e60448201527f6f742073756363656564000000000000000000000000000000000000000000006064820152608401610c1c565b600054610100900460ff166137885760405160e560020a62461bcd028152600401610c1c90614928565b6114163361319c565b60d05460d4546137ae91600160a060020a039182169116856130b8565b60d0546040805160a08101825260d454600160a060020a03908116825260ce54811660208084019190915260dc5482168385015260eb80548551818402810184019096528086529290951694638d82ddca94899489948994919360608501939290919083018282801561384a57602002820191906000526020600020905b8154600160a060020a0316815260019091019060200180831161382c575b5050505050815260200160ec8054806020026020016040519081016040528092919081815260200182805480156138aa57602002820191906000526020600020905b8154600160a060020a0316815260019091019060200180831161388c575b50505050508152506040518563ffffffff1660e060020a0281526004016138d49493929190614b1f565b600060405180830381600087803b1580156138ee57600080fd5b505af1158015613902573d6000803e3d6000fd5b50505050505050565b60d05460d45461392891600160a060020a039182169116856130b8565b60d05460408051610100810182528581528351602080830191909152848101518284015260d454600160a060020a03908116606084015260ce548116608084015260a0830187905260eb805485518185028101850190965280865291909516946312ad7eba9460c08501939092908301828280156139cf57602002820191906000526020600020905b8154600160a060020a031681526001909101906020018083116139b1575b505050918352505060cf54600160a060020a031660209091015260405160e060020a63ffffffff84160281526138d49190600401614899565b6060613a178484600085613a21565b90505b9392505050565b60603031831115613a9d5760405160e560020a62461bcd02815260206004820152602660248201527f416464726573733a20696e73756666696369656e742062616c616e636520666f60448201527f722063616c6c00000000000000000000000000000000000000000000000000006064820152608401610c1c565b600160a060020a0385163b613af75760405160e560020a62461bcd02815260206004820152601d60248201527f416464726573733a2063616c6c20746f206e6f6e2d636f6e74726163740000006044820152606401610c1c565b60008086600160a060020a03168587604051613b139190614bf3565b60006040518083038185875af1925050503d8060008114613b50576040519150601f19603f3d011682016040523d82523d6000602084013e613b55565b606091505b5091509150613b65828286613b70565b979650505050505050565b60608315613b7f575081613a1a565b825115613b8f5782518084602001fd5b8160405160e560020a62461bcd028152600401610c1c9190614c0f565b828054828255906000526020600020908101928215613c01579160200282015b82811115613c015782518254600160a060020a031916600160a060020a03909116178255602090920191600190910190613bcc565b50613c0d929150613c64565b5090565b828054828255906000526020600020908101928215613c01579160200282015b82811115613c01578154600160a060020a031916600160a060020a03843516178255602090920191600190910190613c31565b5b80821115613c0d5760008155600101613c65565b600160a060020a0381168114610d5a57600080fd5b803561341d81613c79565b600060208284031215613cab57600080fd5b8135613a1a81613c79565b8015158114610d5a57600080fd5b803561341d81613cb6565b600060208284031215613ce157600080fd5b8135613a1a81613cb6565b600060208284031215613cfe57600080fd5b5035919050565b7f4e487b7100000000000000000000000000000000000000000000000000000000600052604160045260246000fd5b604051610200810167ffffffffffffffff81118282101715613d5857613d58613d05565b60405290565b6040516101a0810167ffffffffffffffff81118282101715613d5857613d58613d05565b604051601f8201601f1916810167ffffffffffffffff81118282101715613dab57613dab613d05565b604052919050565b60006102008284031215613dc657600080fd5b613dce613d34565b9050613dd982613c8e565b8152613de760208301613c8e565b6020820152613df860408301613c8e565b6040820152613e0960608301613c8e565b6060820152613e1a60808301613c8e565b6080820152613e2b60a08301613c8e565b60a0820152613e3c60c08301613c8e565b60c0820152613e4d60e08301613c8e565b60e0820152610100613e60818401613c8e565b90820152610120613e72838201613c8e565b90820152610140613e84838201613c8e565b90820152610160613e96838201613c8e565b90820152610180613ea8838201613c8e565b908201526101a0613eba838201613c8e565b908201526101c0613ecc838201613c8e565b908201526101e0613ede838201613c8e565b9082015292915050565b600067ffffffffffffffff821115613f0257613f02613d05565b5060209081020190565b600082601f830112613f1d57600080fd5b81356020613f32613f2d83613ee8565b613d82565b82815291810284018101918181019086841115613f4e57600080fd5b8286015b84811015613f72578035613f6581613c79565b8352918301918301613f52565b509695505050505050565b600060a08284031215613f8f57600080fd5b60405160a0810181811067ffffffffffffffff82111715613fb257613fb2613d05565b806040525080915082358152602083013560208201526040830135604082015260608301356060820152608083013560808201525092915050565b600060c08284031215613fff57600080fd5b60405160c0810181811067ffffffffffffffff8211171561402257614022613d05565b604052905080823561403381613c79565b8152602083013561404381613c79565b6020820152604083013561405681613c79565b6040820152606083013561406981613c79565b6060820152608083013561407c81613c79565b608082015260a083013561408f81613c79565b60a0919091015292915050565b600080604083850312156140af57600080fd5b82356140ba81613c79565b9150602083013567ffffffffffffffff808211156140d757600080fd5b908401906104a082870312156140ec57600080fd5b6140f4613d5e565b8235815261410460208401613cc4565b602082015261411560408401613cc4565b60408201526141278760608501613db3565b60608201526102608301358281111561413f57600080fd5b61414b88828601613f0c565b6080830152506102808301358281111561416457600080fd5b61417088828601613f0c565b60a0830152506102a08301358281111561418957600080fd5b61419588828601613f0c565b60c0830152506102c0830135828111156141ae57600080fd5b6141ba88828601613f0c565b60e0830152506102e0830135828111156141d357600080fd5b6141df88828601613f0c565b61010083015250610300830135828111156141f957600080fd5b61420588828601613f0c565b610120830152506103208301358281111561421f57600080fd5b61422b88828601613f0c565b61014083015250614240876103408501613f7d565b610160820152614254876103e08501613fed565b6101808201528093505050509250929050565b6000806040838503121561427a57600080fd5b50508035926020909101359150565b60008060006060848603121561429e57600080fd5b83356142a981613c79565b92506020840135915060408401356142c081613c79565b809150509250925092565b600080600080600060a086880312156142e357600080fd5b505083359560208501359550604085013594606081013594506080013592509050565b60ff81168114610d5a57600080fd5b60008060006040848603121561432a57600080fd5b833561433581614306565b9250602084013567ffffffffffffffff8082111561435257600080fd5b818601915086601f83011261436657600080fd5b81358181111561437557600080fd5b876020808302850101111561438957600080fd5b6020830194508093505050509250925092565b600080604083850312156143af57600080fd5b82356143ba81614306565b915060208301356143ca81613c79565b809150509250929050565b6020808252818101527f4f776e61626c653a2063616c6c6572206973206e6f7420746865206f776e6572604082015260600190565b60208082526004908201527f21676f7600000000000000000000000000000000000000000000000000000000604082015260600190565b60208082526010908201527f217a6f72726f436f6e74726f6c6c657200000000000000000000000000000000604082015260600190565b6020808252601f908201527f5265656e7472616e637947756172643a207265656e7472616e742063616c6c00604082015260600190565b60208082526010908201527f5061757361626c653a2070617573656400000000000000000000000000000000604082015260600190565b7f4e487b7100000000000000000000000000000000000000000000000000000000600052601160045260246000fd5b600081600019048311821515161561452f5761452f6144e6565b500290565b60008261456a577f4e487b7100000000000000000000000000000000000000000000000000000000600052601260045260246000fd5b500490565b60008219821115614582576145826144e6565b500190565b6020808252602e908201527f496e697469616c697a61626c653a20636f6e747261637420697320616c72656160408201527f647920696e697469616c697a6564000000000000000000000000000000000000606082015260800190565b6020808252825482820181905260008481528281209092916040850190845b81811015614628578354600160a060020a031683526001938401939285019201614603565b50909695505050505050565b6000602080838503121561464757600080fd5b825167ffffffffffffffff81111561465e57600080fd5b8301601f8101851361466f57600080fd5b805161467d613f2d82613ee8565b8181529083028201830190838101908783111561469957600080fd5b928401925b82841015613b655783516146b181613c79565b8252928401929084019061469e565b6000828210156146d2576146d26144e6565b500390565b6000602082840312156146e957600080fd5b5051919050565b600081518084526020808501945080840160005b83811015614729578151600160a060020a031687529582019590820190600101614704565b509495945050505050565b838152606060208201526000600160a060020a038085511660608401528060208601511660808401528060408601511660a084015250606084015161478460c0840182600160a060020a03169052565b506080840151600160a060020a03811660e08401525060a0840151600160a060020a0381166101008401525060c084015160e06101208401526147cb6101408401826146f0565b915050826040830152949350505050565b838152606060208201526000600160a060020a0380855116606084015280602086015116608084015250604084015161482060a0840182600160a060020a03169052565b506060840151600160a060020a03811660c0840152506080840151600160a060020a03811660e08401525060a084015161010061486781850183600160a060020a03169052565b60c0860151600160a060020a031661012085015260e086015161014085019190915290506147cb6101608401826146f0565b6020815281516020820152602082015160408201526040820151606082015260006060830151600160a060020a0380821660808501528060808601511660a0850152505060a083015160c083015260c08301516101008060e08501526149036101208501836146f0565b915060e085015161491e82860182600160a060020a03169052565b5090949350505050565b6020808252602b908201527f496e697469616c697a61626c653a20636f6e7472616374206973206e6f74206960408201527f6e697469616c697a696e67000000000000000000000000000000000000000000606082015260800190565b60006020828403121561499757600080fd5b8151613a1a81614306565b805169ffffffffffffffffffff8116811461341d57600080fd5b600080600080600060a086880312156149d457600080fd5b6149dd866149a2565b9450602086015193506040860151925060608601519150614a00608087016149a2565b90509295509295909350565b600181815b80851115614a49578160001904821115614a2d57614a2d6144e6565b80851615614a3a57918102915b60029094049390800290614a11565b509250929050565b600082614a6057506001611a1f565b81614a6d57506000611a1f565b8160018114614a835760028114614a8d57614aaa565b6001915050611a1f565b60ff841115614a9e57614a9e6144e6565b8360020a915050611a1f565b5060208310610133831016604e8410600b8410161715614acd575081810a611a1f565b614ad78383614a0c565b8060001904821115614aeb57614aeb6144e6565b029392505050565b6000611a1c60ff841683614a51565b600060208284031215614b1457600080fd5b8151613a1a81613cb6565b848152836020820152825160408201526020830151606082015260408301516080820152606083015160a082015260e060c08201526000600160a060020a038084511660e0840152806020850151166101008401528060408501511661012084015250606083015160a0610140840152614b9d6101808401826146f0565b9050608084015160df1984830301610160850152614bbb82826146f0565b98975050505050505050565b60005b83811015614be2578181015183820152602001614bca565b83811115611fd15750506000910152565b60008251614c05818460208701614bc7565b9190910192915050565b6020815260008251806020840152614c2e816040850160208701614bc7565b601f01601f1916919091016040019291505056fea26469706673582212203b2fc3b8272314e20dd4b94722621f82da597c28573d5b5b13913b8a255a5af464736f6c634300080a0033",
  "immutableReferences": {},
  "source": "// SPDX-License-Identifier: MIT\n\npragma solidity ^0.8.0;\n\nimport \"../VaultAlpaca.sol\";\n\nimport \"../../tokens/mocks/MockToken.sol\";\n\nimport \"../../interfaces/Alpaca/IAlpacaFairLaunch.sol\";\n\nimport \"../../interfaces/Alpaca/IAlpacaVault.sol\";\n\ncontract MockVaultAlpaca is VaultAlpaca {\n    function unfarm(uint256 _wantAmt) public {\n        _unfarm(_wantAmt);\n    }\n}\n\ncontract MockAlpacaVault is IAlpacaVault, MockERC20Upgradeable {\n    using SafeERC20Upgradeable for IERC20Upgradeable;\n\n    event AddedLiquidity(uint256 _amount, uint256 _liquidity);\n    event RemovedLiquidity(uint256 _amount);\n\n    address public token0;\n    address public burnAddress;\n    uint256 private _dummy;\n\n    function setToken0Address(address _token) public {\n        token0 = _token;\n    }\n\n    function setBurnAddress(address _burn) public {\n        burnAddress = _burn;\n    }\n\n    function totalToken() external view returns (uint256) {\n        require(_dummy>=0);\n        return 0;\n    }\n\n    function deposit(uint256 _amount) public payable {\n        IERC20Upgradeable(token0).safeTransferFrom(\n            msg.sender,\n            address(this),\n            _amount\n        );\n        uint256 _liquidity = 1 ether; // Hard code for tests\n        _mint(msg.sender, _liquidity);\n        emit AddedLiquidity(_amount, _liquidity);\n    }\n\n    function withdraw(uint256 _shares) public {\n        IERC20Upgradeable(address(this)).safeTransferFrom(\n            msg.sender,\n            burnAddress,\n            _shares\n        );\n        uint256 _withdrawalAmt = 2 ether; // Hard code for tests\n        IMockERC20Upgradeable(token0).mint(msg.sender, _withdrawalAmt);\n        emit RemovedLiquidity(_withdrawalAmt);\n    }\n\n    function requestFunds(address targetedToken, uint256 amount) external {}\n\n    function token() external view returns (address) {\n        require(_dummy>=0);\n        return address(0);\n    }\n}\n\ncontract MockAlpacaFarm is IFairLaunch, MockERC20Upgradeable {\n    using SafeERC20Upgradeable for IERC20Upgradeable;\n\n    event Deposited(address indexed _want, uint256 indexed _amount);\n    event Withdrew(address indexed _want, uint256 indexed _amount);\n\n    address public burnAddress;\n    address public wantToken;\n    uint256 private _dummy;\n\n    function setWantAddress(address _wantToken) public {\n        wantToken = _wantToken;\n    }\n\n    function setBurnAddress(address _burnAddress) public {\n        burnAddress = _burnAddress;\n    }\n\n    function poolLength() external view returns (uint256) {\n        require(_dummy>=0);\n        return 0;\n    }\n\n    function addPool(\n        uint256 _allocPoint,\n        address _stakeToken,\n        bool _withUpdate\n    ) external {}\n\n    function setPool(\n        uint256 _pid,\n        uint256 _allocPoint,\n        bool _withUpdate\n    ) external {}\n\n    function pendingAlpaca(uint256 _pid, address _user)\n        external\n        view\n        returns (uint256)\n    {\n        require(_dummy>=0);\n        require(_pid>=0);\n        require(_user != address(0));\n        return 0;\n    }\n\n    function updatePool(uint256 _pid) external {}\n\n    function deposit(\n        address _for,\n        uint256 _pid,\n        uint256 _amount\n    ) public {\n        require(_for != address(0));\n        require(_pid>=0);\n        IERC20Upgradeable(wantToken).safeTransferFrom(\n            msg.sender,\n            burnAddress,\n            _amount\n        );\n        emit Deposited(wantToken, _amount);\n    }\n\n    function withdraw(\n        address _for,\n        uint256 _pid,\n        uint256 _amount\n    ) public {\n        require(_pid>=0);\n        IMockERC20Upgradeable(wantToken).mint(_for, _amount);\n        emit Withdrew(wantToken, _amount);\n    }\n\n    function withdrawAll(address _for, uint256 _pid) external {}\n\n  function harvest(uint256 _pid) external {}\n\n  function getFairLaunchPoolId() external returns (uint256) {\n    require(_dummy>=0);\n    _dummy = 1;\n    return 0;\n  }\n\n  function poolInfo(uint256 _pid)\n    external\n    view\n    returns (\n      address,\n      uint256,\n      uint256,\n      uint256,\n      uint256\n    ) {\n        require(_pid>=0);\n        require(_dummy>=0);\n        return (address(0), 0, 0, 0, 0);\n    }\n\n  function alpaca() external returns (address) {\n    _dummy = 1;\n    return address(0);\n  }\n\n  function userInfo(uint256 _pid, address _user)\n    external\n    view\n    returns (\n      uint256,\n      uint256,\n      uint256,\n      address\n    ) {\n        require(_dummy>=0);\n        require(_pid>=0);\n        require(_user != address(0));\n        return (0, 0, 0, address(0));\n    }\n\n  function emergencyWithdraw(uint256 _pid) external {}\n}\n\ncontract MockBUSD is MockERC20Upgradeable {}\n\ncontract MockAlpaca is MockERC20Upgradeable {}\n",
  "sourcePath": "/Users/kristophm/Documents/workspace/zorro-protocol/contracts/vaults/mocks/MockVaultAlpaca.sol",
  "compiler": {
    "name": "solc",
    "version": "0.8.10+commit.fc410830.Emscripten.clang"
  },
  "schemaVersion": "3.4.10",
  "updatedAt": "2022-11-24T02:03:38.476Z",
  "devdoc": {
    "kind": "dev",
    "methods": {
      "depositWantToken(uint256)": {
        "params": {
          "_wantAmt": "amount of Want token to deposit/stake"
        },
        "returns": {
          "sharesAdded": "uint256 Number of shares added"
        }
      },
      "earn(uint256)": {
        "params": {
          "_maxMarketMovementAllowed": "The max slippage allowed. 1000 = 0 %, 995 = 0.5%, etc."
        }
      },
      "exchangeUSDForWantToken(uint256,uint256)": {
        "params": {
          "_amountUSD": "The USD quantity to exchange (must already be deposited)",
          "_maxMarketMovementAllowed": "The max slippage allowed. 1000 = 0 %, 995 = 0.5%, etc."
        },
        "returns": {
          "_0": "uint256 Amount of Want token obtained"
        }
      },
      "exchangeWantTokenForUSD(uint256,uint256)": {
        "params": {
          "_amount": "The Want token quantity to exchange (must be deposited beforehand)",
          "_maxMarketMovementAllowed": "The max slippage allowed for swaps. 1000 = 0 %, 995 = 0.5%, etc."
        },
        "returns": {
          "_0": "uint256 Amount of USD token obtained"
        }
      },
      "inCaseTokensGetStuck(address,uint256,address)": {
        "params": {
          "_amount": "The amount of the tokens to transfer",
          "_to": "The address to transfer tokens to",
          "_token": "Address of the ERC20 token to transfer"
        }
      },
      "initialize(address,(uint256,bool,bool,(address,address,address,address,address,address,address,address,address,address,address,address,address,address,address,address),address[],address[],address[],address[],address[],address[],address[],(uint256,uint256,uint256,uint256,uint256),(address,address,address,address,address,address)))": {
        "params": {
          "_initValue": "A VaultAlpacaInit struct containing all init values",
          "_timelockOwner": "The designated timelock controller address to act as owner"
        }
      },
      "owner()": {
        "details": "Returns the address of the current owner."
      },
      "paused()": {
        "details": "Returns true if the contract is paused, and false otherwise."
      },
      "renounceOwnership()": {
        "details": "Leaves the contract without owner. It will not be possible to call `onlyOwner` functions anymore. Can only be called by the current owner. NOTE: Renouncing ownership will leave the contract without an owner, thereby removing any functionality that is only available to the owner."
      },
      "setFeeSettings(uint256,uint256,uint256,uint256,uint256)": {
        "params": {
          "_buyBackRate": "Buy back rate fee numerator",
          "_controllerFee": "Controller fee numerator",
          "_entranceFeeFactor": "Entrance fee numerator (higher means smaller percentage)",
          "_revShareRate": "Rev share rate fee numerator",
          "_withdrawFeeFactor": "Withdrawal fee numerator (higher means smaller percentage)"
        }
      },
      "setGov(address)": {
        "params": {
          "_govAddress": "The new gov address"
        }
      },
      "setOnlyGov(bool)": {
        "params": {
          "_onlyGov": "whether onlyGov should be enforced"
        }
      },
      "transferOwnership(address)": {
        "details": "Transfers ownership of the contract to a new account (`newOwner`). Can only be called by the current owner."
      },
      "withdrawWantToken(uint256)": {
        "params": {
          "_wantAmt": "The amount of Want token to withdraw"
        },
        "returns": {
          "sharesRemoved": "The number of shares removed"
        }
      }
    },
    "version": 1
  },
  "userdoc": {
    "kind": "user",
    "methods": {
      "depositWantToken(uint256)": {
        "notice": "Receives new deposits from user"
      },
      "earn(uint256)": {
        "notice": "The main compounding (earn) function. Reinvests profits since the last earn event."
      },
      "exchangeUSDForWantToken(uint256,uint256)": {
        "notice": "Performs necessary operations to convert USD into Want token"
      },
      "exchangeWantTokenForUSD(uint256,uint256)": {
        "notice": "Converts Want token back into USD to be ready for withdrawal and transfers to sender"
      },
      "farm()": {
        "notice": "Public function for farming Want token."
      },
      "inCaseTokensGetStuck(address,uint256,address)": {
        "notice": "Safely transfer ERC20 tokens stuck in this contract to a specified address"
      },
      "initialize(address,(uint256,bool,bool,(address,address,address,address,address,address,address,address,address,address,address,address,address,address,address,address),address[],address[],address[],address[],address[],address[],address[],(uint256,uint256,uint256,uint256,uint256),(address,address,address,address,address,address)))": {
        "notice": "Upgradeable constructor"
      },
      "pause()": {
        "notice": "Pause contract"
      },
      "setFeeSettings(uint256,uint256,uint256,uint256,uint256)": {
        "notice": "Configure key fee parameters"
      },
      "setGov(address)": {
        "notice": "Set governor address"
      },
      "setOnlyGov(bool)": {
        "notice": "Set onlyGov property"
      },
      "unpause()": {
        "notice": "Unpause contract"
      },
      "withdrawWantToken(uint256)": {
        "notice": "Fully withdraw Want tokens from the Farm contract (100% withdrawals only)"
      }
    },
    "version": 1
  }
}