{
  "contractName": "MockInvestmentVault1",
  "abi": [
    {
      "anonymous": false,
      "inputs": [
        {
          "indexed": true,
          "internalType": "uint256",
          "name": "_amount",
          "type": "uint256"
        }
      ],
      "name": "Buyback",
      "type": "event"
    },
    {
      "anonymous": false,
      "inputs": [
        {
          "indexed": true,
          "internalType": "uint256",
          "name": "_wantAmt",
          "type": "uint256"
        }
      ],
      "name": "DepositedWant",
      "type": "event"
    },
    {
      "anonymous": false,
      "inputs": [
        {
          "indexed": true,
          "internalType": "uint256",
          "name": "_amountUSD",
          "type": "uint256"
        },
        {
          "indexed": true,
          "internalType": "uint256",
          "name": "_amountWant",
          "type": "uint256"
        }
      ],
      "name": "ExchangedUSDForWant",
      "type": "event"
    },
    {
      "anonymous": false,
      "inputs": [
        {
          "indexed": true,
          "internalType": "uint256",
          "name": "_amountWant",
          "type": "uint256"
        },
        {
          "indexed": true,
          "internalType": "uint256",
          "name": "_amountUSD",
          "type": "uint256"
        }
      ],
      "name": "ExchangedWantForUSD",
      "type": "event"
    },
    {
      "anonymous": false,
      "inputs": [
        {
          "indexed": true,
          "internalType": "address",
          "name": "previousOwner",
          "type": "address"
        },
        {
          "indexed": true,
          "internalType": "address",
          "name": "newOwner",
          "type": "address"
        }
      ],
      "name": "OwnershipTransferred",
      "type": "event"
    },
    {
      "anonymous": false,
      "inputs": [
        {
          "indexed": false,
          "internalType": "address",
          "name": "account",
          "type": "address"
        }
      ],
      "name": "Paused",
      "type": "event"
    },
    {
      "anonymous": false,
      "inputs": [
        {
          "indexed": true,
          "internalType": "uint256",
          "name": "_amount",
          "type": "uint256"
        }
      ],
      "name": "RevShare",
      "type": "event"
    },
    {
      "anonymous": false,
      "inputs": [
        {
          "indexed": false,
          "internalType": "address",
          "name": "_govAddress",
          "type": "address"
        }
      ],
      "name": "SetGov",
      "type": "event"
    },
    {
      "anonymous": false,
      "inputs": [
        {
          "indexed": false,
          "internalType": "bool",
          "name": "_onlyGov",
          "type": "bool"
        }
      ],
      "name": "SetOnlyGov",
      "type": "event"
    },
    {
      "anonymous": false,
      "inputs": [
        {
          "indexed": false,
          "internalType": "address",
          "name": "_rewardsAddress",
          "type": "address"
        }
      ],
      "name": "SetRewardsAddress",
      "type": "event"
    },
    {
      "anonymous": false,
      "inputs": [
        {
          "indexed": false,
          "internalType": "uint256",
          "name": "_entranceFeeFactor",
          "type": "uint256"
        },
        {
          "indexed": false,
          "internalType": "uint256",
          "name": "_withdrawFeeFactor",
          "type": "uint256"
        },
        {
          "indexed": false,
          "internalType": "uint256",
          "name": "_controllerFee",
          "type": "uint256"
        },
        {
          "indexed": false,
          "internalType": "uint256",
          "name": "_buyBackRate",
          "type": "uint256"
        },
        {
          "indexed": false,
          "internalType": "uint256",
          "name": "_revShareRate",
          "type": "uint256"
        }
      ],
      "name": "SetSettings",
      "type": "event"
    },
    {
      "anonymous": false,
      "inputs": [
        {
          "indexed": false,
          "internalType": "address",
          "name": "_uniRouterAddress",
          "type": "address"
        }
      ],
      "name": "SetUniRouterAddress",
      "type": "event"
    },
    {
      "anonymous": false,
      "inputs": [
        {
          "indexed": false,
          "internalType": "address",
          "name": "account",
          "type": "address"
        }
      ],
      "name": "Unpaused",
      "type": "event"
    },
    {
      "anonymous": false,
      "inputs": [
        {
          "indexed": true,
          "internalType": "uint256",
          "name": "_wantAmt",
          "type": "uint256"
        }
      ],
      "name": "WithdrewWant",
      "type": "event"
    },
    {
      "inputs": [],
      "name": "ZORROAddress",
      "outputs": [
        {
          "internalType": "address",
          "name": "",
          "type": "address"
        }
      ],
      "stateMutability": "view",
      "type": "function"
    },
    {
      "inputs": [],
      "name": "burnAddress",
      "outputs": [
        {
          "internalType": "address",
          "name": "",
          "type": "address"
        }
      ],
      "stateMutability": "view",
      "type": "function"
    },
    {
      "inputs": [],
      "name": "buyBackRate",
      "outputs": [
        {
          "internalType": "uint256",
          "name": "",
          "type": "uint256"
        }
      ],
      "stateMutability": "view",
      "type": "function"
    },
    {
      "inputs": [],
      "name": "buyBackRateUL",
      "outputs": [
        {
          "internalType": "uint256",
          "name": "",
          "type": "uint256"
        }
      ],
      "stateMutability": "view",
      "type": "function"
    },
    {
      "inputs": [],
      "name": "controllerFee",
      "outputs": [
        {
          "internalType": "uint256",
          "name": "",
          "type": "uint256"
        }
      ],
      "stateMutability": "view",
      "type": "function"
    },
    {
      "inputs": [],
      "name": "controllerFeeUL",
      "outputs": [
        {
          "internalType": "uint256",
          "name": "",
          "type": "uint256"
        }
      ],
      "stateMutability": "view",
      "type": "function"
    },
    {
      "inputs": [],
      "name": "defaultStablecoin",
      "outputs": [
        {
          "internalType": "address",
          "name": "",
          "type": "address"
        }
      ],
      "stateMutability": "view",
      "type": "function"
    },
    {
      "inputs": [
        {
          "internalType": "uint256",
          "name": "_wantAmt",
          "type": "uint256"
        }
      ],
      "name": "depositWantToken",
      "outputs": [
        {
          "internalType": "uint256",
          "name": "sharesAdded",
          "type": "uint256"
        }
      ],
      "stateMutability": "nonpayable",
      "type": "function"
    },
    {
      "inputs": [
        {
          "internalType": "uint256",
          "name": "_maxMarketMovementAllowed",
          "type": "uint256"
        }
      ],
      "name": "earn",
      "outputs": [],
      "stateMutability": "nonpayable",
      "type": "function"
    },
    {
      "inputs": [],
      "name": "earnedAddress",
      "outputs": [
        {
          "internalType": "address",
          "name": "",
          "type": "address"
        }
      ],
      "stateMutability": "view",
      "type": "function"
    },
    {
      "inputs": [],
      "name": "entranceFeeFactor",
      "outputs": [
        {
          "internalType": "uint256",
          "name": "",
          "type": "uint256"
        }
      ],
      "stateMutability": "view",
      "type": "function"
    },
    {
      "inputs": [],
      "name": "entranceFeeFactorLL",
      "outputs": [
        {
          "internalType": "uint256",
          "name": "",
          "type": "uint256"
        }
      ],
      "stateMutability": "view",
      "type": "function"
    },
    {
      "inputs": [
        {
          "internalType": "uint256",
          "name": "_amountUSD",
          "type": "uint256"
        },
        {
          "internalType": "uint256",
          "name": "_maxMarketMovementAllowed",
          "type": "uint256"
        }
      ],
      "name": "exchangeUSDForWantToken",
      "outputs": [
        {
          "internalType": "uint256",
          "name": "",
          "type": "uint256"
        }
      ],
      "stateMutability": "nonpayable",
      "type": "function"
    },
    {
      "inputs": [
        {
          "internalType": "uint256",
          "name": "_amount",
          "type": "uint256"
        },
        {
          "internalType": "uint256",
          "name": "_maxMarketMovementAllowed",
          "type": "uint256"
        }
      ],
      "name": "exchangeWantTokenForUSD",
      "outputs": [
        {
          "internalType": "uint256",
          "name": "",
          "type": "uint256"
        }
      ],
      "stateMutability": "nonpayable",
      "type": "function"
    },
    {
      "inputs": [],
      "name": "farm",
      "outputs": [],
      "stateMutability": "nonpayable",
      "type": "function"
    },
    {
      "inputs": [],
      "name": "farmContractAddress",
      "outputs": [
        {
          "internalType": "address",
          "name": "",
          "type": "address"
        }
      ],
      "stateMutability": "view",
      "type": "function"
    },
    {
      "inputs": [],
      "name": "feeDenominator",
      "outputs": [
        {
          "internalType": "uint256",
          "name": "",
          "type": "uint256"
        }
      ],
      "stateMutability": "view",
      "type": "function"
    },
    {
      "inputs": [],
      "name": "govAddress",
      "outputs": [
        {
          "internalType": "address",
          "name": "",
          "type": "address"
        }
      ],
      "stateMutability": "view",
      "type": "function"
    },
    {
      "inputs": [
        {
          "internalType": "address",
          "name": "_token",
          "type": "address"
        },
        {
          "internalType": "uint256",
          "name": "_amount",
          "type": "uint256"
        },
        {
          "internalType": "address",
          "name": "_to",
          "type": "address"
        }
      ],
      "name": "inCaseTokensGetStuck",
      "outputs": [],
      "stateMutability": "nonpayable",
      "type": "function"
    },
    {
      "inputs": [
        {
          "internalType": "address",
          "name": "_timelockOwner",
          "type": "address"
        },
        {
          "components": [
            {
              "components": [
                {
                  "internalType": "uint256",
                  "name": "pid",
                  "type": "uint256"
                },
                {
                  "internalType": "bool",
                  "name": "isHomeChain",
                  "type": "bool"
                }
              ],
              "internalType": "struct IVault.VaultConfig",
              "name": "config",
              "type": "tuple"
            },
            {
              "components": [
                {
                  "internalType": "address",
                  "name": "govAddress",
                  "type": "address"
                },
                {
                  "internalType": "address",
                  "name": "zorroControllerAddress",
                  "type": "address"
                },
                {
                  "internalType": "address",
                  "name": "zorroXChainController",
                  "type": "address"
                },
                {
                  "internalType": "address",
                  "name": "ZORROAddress",
                  "type": "address"
                },
                {
                  "internalType": "address",
                  "name": "zorroStakingVault",
                  "type": "address"
                },
                {
                  "internalType": "address",
                  "name": "wantAddress",
                  "type": "address"
                },
                {
                  "internalType": "address",
                  "name": "token0Address",
                  "type": "address"
                },
                {
                  "internalType": "address",
                  "name": "token1Address",
                  "type": "address"
                },
                {
                  "internalType": "address",
                  "name": "earnedAddress",
                  "type": "address"
                },
                {
                  "internalType": "address",
                  "name": "farmContractAddress",
                  "type": "address"
                },
                {
                  "internalType": "address",
                  "name": "rewardsAddress",
                  "type": "address"
                },
                {
                  "internalType": "address",
                  "name": "poolAddress",
                  "type": "address"
                },
                {
                  "internalType": "address",
                  "name": "uniRouterAddress",
                  "type": "address"
                },
                {
                  "internalType": "address",
                  "name": "zorroLPPool",
                  "type": "address"
                },
                {
                  "internalType": "address",
                  "name": "zorroLPPoolOtherToken",
                  "type": "address"
                },
                {
                  "internalType": "address",
                  "name": "defaultStablecoin",
                  "type": "address"
                },
                {
                  "internalType": "address",
                  "name": "vaultActions",
                  "type": "address"
                }
              ],
              "internalType": "struct IVault.VaultAddresses",
              "name": "keyAddresses",
              "type": "tuple"
            },
            {
              "components": [
                {
                  "internalType": "address[]",
                  "name": "earnedToZORROPath",
                  "type": "address[]"
                },
                {
                  "internalType": "address[]",
                  "name": "earnedToToken0Path",
                  "type": "address[]"
                },
                {
                  "internalType": "address[]",
                  "name": "earnedToToken1Path",
                  "type": "address[]"
                },
                {
                  "internalType": "address[]",
                  "name": "stablecoinToToken0Path",
                  "type": "address[]"
                },
                {
                  "internalType": "address[]",
                  "name": "stablecoinToToken1Path",
                  "type": "address[]"
                },
                {
                  "internalType": "address[]",
                  "name": "earnedToZORLPPoolOtherTokenPath",
                  "type": "address[]"
                },
                {
                  "internalType": "address[]",
                  "name": "earnedToStablecoinPath",
                  "type": "address[]"
                },
                {
                  "internalType": "address[]",
                  "name": "stablecoinToZORROPath",
                  "type": "address[]"
                },
                {
                  "internalType": "address[]",
                  "name": "stablecoinToLPPoolOtherTokenPath",
                  "type": "address[]"
                }
              ],
              "internalType": "struct IVault.VaultSwapPaths",
              "name": "swapPaths",
              "type": "tuple"
            },
            {
              "components": [
                {
                  "internalType": "uint256",
                  "name": "controllerFee",
                  "type": "uint256"
                },
                {
                  "internalType": "uint256",
                  "name": "buyBackRate",
                  "type": "uint256"
                },
                {
                  "internalType": "uint256",
                  "name": "revShareRate",
                  "type": "uint256"
                },
                {
                  "internalType": "uint256",
                  "name": "entranceFeeFactor",
                  "type": "uint256"
                },
                {
                  "internalType": "uint256",
                  "name": "withdrawFeeFactor",
                  "type": "uint256"
                }
              ],
              "internalType": "struct IVault.VaultFees",
              "name": "fees",
              "type": "tuple"
            },
            {
              "components": [
                {
                  "internalType": "address",
                  "name": "token0PriceFeed",
                  "type": "address"
                },
                {
                  "internalType": "address",
                  "name": "token1PriceFeed",
                  "type": "address"
                },
                {
                  "internalType": "address",
                  "name": "earnTokenPriceFeed",
                  "type": "address"
                },
                {
                  "internalType": "address",
                  "name": "ZORPriceFeed",
                  "type": "address"
                },
                {
                  "internalType": "address",
                  "name": "lpPoolOtherTokenPriceFeed",
                  "type": "address"
                },
                {
                  "internalType": "address",
                  "name": "stablecoinPriceFeed",
                  "type": "address"
                }
              ],
              "internalType": "struct IVault.VaultPriceFeeds",
              "name": "priceFeeds",
              "type": "tuple"
            }
          ],
          "internalType": "struct IVault.VaultBaseInit",
          "name": "_initValue",
          "type": "tuple"
        }
      ],
      "name": "initialize",
      "outputs": [],
      "stateMutability": "nonpayable",
      "type": "function"
    },
    {
      "inputs": [],
      "name": "isHomeChain",
      "outputs": [
        {
          "internalType": "bool",
          "name": "",
          "type": "bool"
        }
      ],
      "stateMutability": "view",
      "type": "function"
    },
    {
      "inputs": [],
      "name": "lastEarnBlock",
      "outputs": [
        {
          "internalType": "uint256",
          "name": "",
          "type": "uint256"
        }
      ],
      "stateMutability": "view",
      "type": "function"
    },
    {
      "inputs": [],
      "name": "maxMarketMovementAllowed",
      "outputs": [
        {
          "internalType": "uint256",
          "name": "",
          "type": "uint256"
        }
      ],
      "stateMutability": "view",
      "type": "function"
    },
    {
      "inputs": [],
      "name": "onlyGov",
      "outputs": [
        {
          "internalType": "bool",
          "name": "",
          "type": "bool"
        }
      ],
      "stateMutability": "view",
      "type": "function"
    },
    {
      "inputs": [],
      "name": "owner",
      "outputs": [
        {
          "internalType": "address",
          "name": "",
          "type": "address"
        }
      ],
      "stateMutability": "view",
      "type": "function"
    },
    {
      "inputs": [],
      "name": "pause",
      "outputs": [],
      "stateMutability": "nonpayable",
      "type": "function"
    },
    {
      "inputs": [],
      "name": "paused",
      "outputs": [
        {
          "internalType": "bool",
          "name": "",
          "type": "bool"
        }
      ],
      "stateMutability": "view",
      "type": "function"
    },
    {
      "inputs": [],
      "name": "pid",
      "outputs": [
        {
          "internalType": "uint256",
          "name": "",
          "type": "uint256"
        }
      ],
      "stateMutability": "view",
      "type": "function"
    },
    {
      "inputs": [],
      "name": "poolAddress",
      "outputs": [
        {
          "internalType": "address",
          "name": "",
          "type": "address"
        }
      ],
      "stateMutability": "view",
      "type": "function"
    },
    {
      "inputs": [
        {
          "internalType": "address",
          "name": "",
          "type": "address"
        }
      ],
      "name": "priceFeeds",
      "outputs": [
        {
          "internalType": "contract AggregatorV3Interface",
          "name": "",
          "type": "address"
        }
      ],
      "stateMutability": "view",
      "type": "function"
    },
    {
      "inputs": [],
      "name": "principalDebt",
      "outputs": [
        {
          "internalType": "uint256",
          "name": "",
          "type": "uint256"
        }
      ],
      "stateMutability": "view",
      "type": "function"
    },
    {
      "inputs": [],
      "name": "profitDebt",
      "outputs": [
        {
          "internalType": "uint256",
          "name": "",
          "type": "uint256"
        }
      ],
      "stateMutability": "view",
      "type": "function"
    },
    {
      "inputs": [],
      "name": "renounceOwnership",
      "outputs": [],
      "stateMutability": "nonpayable",
      "type": "function"
    },
    {
      "inputs": [],
      "name": "revShareRate",
      "outputs": [
        {
          "internalType": "uint256",
          "name": "",
          "type": "uint256"
        }
      ],
      "stateMutability": "view",
      "type": "function"
    },
    {
      "inputs": [],
      "name": "revShareRateUL",
      "outputs": [
        {
          "internalType": "uint256",
          "name": "",
          "type": "uint256"
        }
      ],
      "stateMutability": "view",
      "type": "function"
    },
    {
      "inputs": [],
      "name": "rewardsAddress",
      "outputs": [
        {
          "internalType": "address",
          "name": "",
          "type": "address"
        }
      ],
      "stateMutability": "view",
      "type": "function"
    },
    {
      "inputs": [
        {
          "internalType": "uint16",
          "name": "_index",
          "type": "uint16"
        },
        {
          "internalType": "address",
          "name": "_addr",
          "type": "address"
        }
      ],
      "name": "setContractAddress",
      "outputs": [],
      "stateMutability": "nonpayable",
      "type": "function"
    },
    {
      "inputs": [
        {
          "internalType": "uint256",
          "name": "_entranceFeeFactor",
          "type": "uint256"
        },
        {
          "internalType": "uint256",
          "name": "_withdrawFeeFactor",
          "type": "uint256"
        },
        {
          "internalType": "uint256",
          "name": "_controllerFee",
          "type": "uint256"
        },
        {
          "internalType": "uint256",
          "name": "_buyBackRate",
          "type": "uint256"
        },
        {
          "internalType": "uint256",
          "name": "_revShareRate",
          "type": "uint256"
        }
      ],
      "name": "setFeeSettings",
      "outputs": [],
      "stateMutability": "nonpayable",
      "type": "function"
    },
    {
      "inputs": [
        {
          "internalType": "address",
          "name": "_govAddress",
          "type": "address"
        }
      ],
      "name": "setGov",
      "outputs": [],
      "stateMutability": "nonpayable",
      "type": "function"
    },
    {
      "inputs": [
        {
          "internalType": "uint256",
          "name": "_slippageNumerator",
          "type": "uint256"
        }
      ],
      "name": "setMaxMarketMovementAllowed",
      "outputs": [],
      "stateMutability": "nonpayable",
      "type": "function"
    },
    {
      "inputs": [
        {
          "internalType": "bool",
          "name": "_onlyGov",
          "type": "bool"
        }
      ],
      "name": "setOnlyGov",
      "outputs": [],
      "stateMutability": "nonpayable",
      "type": "function"
    },
    {
      "inputs": [
        {
          "internalType": "uint256",
          "name": "_pid",
          "type": "uint256"
        }
      ],
      "name": "setPid",
      "outputs": [],
      "stateMutability": "nonpayable",
      "type": "function"
    },
    {
      "inputs": [
        {
          "internalType": "address",
          "name": "_token",
          "type": "address"
        },
        {
          "internalType": "address",
          "name": "_priceFeedAddress",
          "type": "address"
        }
      ],
      "name": "setPriceFeed",
      "outputs": [],
      "stateMutability": "nonpayable",
      "type": "function"
    },
    {
      "inputs": [
        {
          "internalType": "address[]",
          "name": "_path",
          "type": "address[]"
        }
      ],
      "name": "setSwapPaths",
      "outputs": [],
      "stateMutability": "nonpayable",
      "type": "function"
    },
    {
      "inputs": [],
      "name": "sharesTotal",
      "outputs": [
        {
          "internalType": "uint256",
          "name": "",
          "type": "uint256"
        }
      ],
      "stateMutability": "view",
      "type": "function"
    },
    {
      "inputs": [
        {
          "internalType": "address",
          "name": "",
          "type": "address"
        },
        {
          "internalType": "address",
          "name": "",
          "type": "address"
        }
      ],
      "name": "swapPathLength",
      "outputs": [
        {
          "internalType": "uint16",
          "name": "",
          "type": "uint16"
        }
      ],
      "stateMutability": "view",
      "type": "function"
    },
    {
      "inputs": [
        {
          "internalType": "address",
          "name": "",
          "type": "address"
        },
        {
          "internalType": "address",
          "name": "",
          "type": "address"
        },
        {
          "internalType": "uint256",
          "name": "",
          "type": "uint256"
        }
      ],
      "name": "swapPaths",
      "outputs": [
        {
          "internalType": "address",
          "name": "",
          "type": "address"
        }
      ],
      "stateMutability": "view",
      "type": "function"
    },
    {
      "inputs": [],
      "name": "token0Address",
      "outputs": [
        {
          "internalType": "address",
          "name": "",
          "type": "address"
        }
      ],
      "stateMutability": "view",
      "type": "function"
    },
    {
      "inputs": [],
      "name": "token1Address",
      "outputs": [
        {
          "internalType": "address",
          "name": "",
          "type": "address"
        }
      ],
      "stateMutability": "view",
      "type": "function"
    },
    {
      "inputs": [
        {
          "internalType": "address",
          "name": "newOwner",
          "type": "address"
        }
      ],
      "name": "transferOwnership",
      "outputs": [],
      "stateMutability": "nonpayable",
      "type": "function"
    },
    {
      "inputs": [],
      "name": "unpause",
      "outputs": [],
      "stateMutability": "nonpayable",
      "type": "function"
    },
    {
      "inputs": [],
      "name": "vaultActions",
      "outputs": [
        {
          "internalType": "address",
          "name": "",
          "type": "address"
        }
      ],
      "stateMutability": "view",
      "type": "function"
    },
    {
      "inputs": [],
      "name": "wantAddress",
      "outputs": [
        {
          "internalType": "address",
          "name": "",
          "type": "address"
        }
      ],
      "stateMutability": "view",
      "type": "function"
    },
    {
      "inputs": [],
      "name": "withdrawFeeFactor",
      "outputs": [
        {
          "internalType": "uint256",
          "name": "",
          "type": "uint256"
        }
      ],
      "stateMutability": "view",
      "type": "function"
    },
    {
      "inputs": [],
      "name": "withdrawFeeFactorLL",
      "outputs": [
        {
          "internalType": "uint256",
          "name": "",
          "type": "uint256"
        }
      ],
      "stateMutability": "view",
      "type": "function"
    },
    {
      "inputs": [
        {
          "internalType": "uint256",
          "name": "_wantAmt",
          "type": "uint256"
        }
      ],
      "name": "withdrawWantToken",
      "outputs": [
        {
          "internalType": "uint256",
          "name": "sharesRemoved",
          "type": "uint256"
        }
      ],
      "stateMutability": "nonpayable",
      "type": "function"
    },
    {
      "inputs": [],
      "name": "zorroControllerAddress",
      "outputs": [
        {
          "internalType": "address",
          "name": "",
          "type": "address"
        }
      ],
      "stateMutability": "view",
      "type": "function"
    },
    {
      "inputs": [],
      "name": "zorroLPPool",
      "outputs": [
        {
          "internalType": "address",
          "name": "",
          "type": "address"
        }
      ],
      "stateMutability": "view",
      "type": "function"
    },
    {
      "inputs": [],
      "name": "zorroLPPoolOtherToken",
      "outputs": [
        {
          "internalType": "address",
          "name": "",
          "type": "address"
        }
      ],
      "stateMutability": "view",
      "type": "function"
    },
    {
      "inputs": [],
      "name": "zorroStakingVault",
      "outputs": [
        {
          "internalType": "address",
          "name": "",
          "type": "address"
        }
      ],
      "stateMutability": "view",
      "type": "function"
    },
    {
      "inputs": [],
      "name": "zorroXChainController",
      "outputs": [
        {
          "internalType": "address",
          "name": "",
          "type": "address"
        }
      ],
      "stateMutability": "view",
      "type": "function"
    }
  ],
  "bytecode": "0x608060405234801561001057600080fd5b506130f2806100206000396000f3fe608060405234801561001057600080fd5b50600436106103cc576000357c010000000000000000000000000000000000000000000000000000000090048063715018a611610211578063b61bb80a11610137578063e65a0117116100ca578063edf5e58511610099578063edf5e585146107a5578063f1068454146107b2578063f2fde38b146107bb578063f5046a29146107ce57600080fd5b8063e65a01171461075b578063e71984741461076c578063e7a036791461077f578063ebfba7c41461079257600080fd5b8063cfad57a211610106578063cfad57a21461070f578063d7cb416f14610722578063df37af0d14610735578063e502a88d1461074857600080fd5b8063b61bb80a146106e0578063c0973eed146106f3578063c302a4d014610664578063c86274561461070657600080fd5b806385f02dd6116101af5780639fc33a9f1161017e5780639fc33a9f146106a7578063a4d2b083146106ba578063b1414dbb146106cd578063b3545c01146103d157600080fd5b806385f02dd61461065b578063866b2018146106645780638da5cb5b1461066d5780639dcb511a1461067e57600080fd5b80637a8d130f116101eb5780637a8d130f146106245780637bf604d81461062d5780637ff36fbe146106405780638456cb591461065357600080fd5b8063715018a6146105f65780637153ef86146105fe57806376e112861461061157600080fd5b8063320d47cc116102f65780635c975abb1161029457806367206d401161026357806367206d40146105b4578063677379e5146105c757806368f54162146105da57806370d5ae05146105e357600080fd5b80635c975abb146105705780635e8352701461057b5780635fc77d431461058e578063648794a4146105a157600080fd5b80633f4ba83a116102d05780633f4ba83a1461053957806344a3955e1461054157806346008a071461054a57806355ebedec1461055d57600080fd5b8063320d47cc1461051d5780633214471f1461053057806336e9332d1461040957600080fd5b80631334903f1161036e5780631b0d8aab1161033d5780631b0d8aab146104b5578063211019d7146103d15780632209b59e146104c85780632337b0b1146104db57600080fd5b80631334903f1461046f5780631755ff2114610478578063178a8d07146104a3578063180b0d7e146104ac57600080fd5b80630b6bb30b116103aa5780630b6bb30b1461040b5780630daef3211461041e5780630fa4e01e1461045357806312bc4b9b1461045c57600080fd5b8063061c7d48146103d15780630761a172146103ed57806307df6047146103f6575b600080fd5b6103da61138881565b6040519081526020015b60405180910390f35b6103da60e85481565b61040961040436600461255f565b6107e1565b005b6104096104193660046125ad565b610b22565b60cb546104439074010000000000000000000000000000000000000000900460ff1681565b60405190151581526020016103e4565b6103da60e15481565b61040961046a36600461273d565b610bc9565b6103da60df5481565b60d95461048b90600160a060020a031681565b604051600160a060020a0390911681526020016103e4565b6103da60dd5481565b6103da61271081565b6104096104c3366004612772565b610bff565b6103da6104d6366004612772565b610c31565b61050a6104e936600461278b565b60e660209081526000928352604080842090915290825290205461ffff1681565b60405161ffff90911681526020016103e4565b61040961052b366004612772565b610d4e565b6103da60de5481565b610409610d82565b6103da60e45481565b60cb5461048b90600160a060020a031681565b6103da61056b366004612772565b610db7565b60975460ff16610443565b61048b6105893660046127a9565b61108c565b60cd5461048b90600160a060020a031681565b6103da6105af3660046127ea565b6110d1565b6104096105c236600461280c565b611234565b60d05461048b90600160a060020a031681565b6103da60e05481565b60d75461048b90600160a060020a031681565b61040961133c565b61040961060c36600461284e565b611373565b61040961061f36600461278b565b611662565b6103da60e25481565b60da5461048b90600160a060020a031681565b60d25461048b90600160a060020a031681565b610409611699565b6103da60dc5481565b6103da61232881565b603354600160a060020a031661048b565b61048b61068c366004612889565b60e760205260009081526040902054600160a060020a031681565b60d55461048b90600160a060020a031681565b60cf5461048b90600160a060020a031681565b60cc5461048b90600160a060020a031681565b60d65461048b90600160a060020a031681565b60d85461048b90600160a060020a031681565b6103da60e35481565b61040961071d366004612889565b6116ce565b60d35461048b90600160a060020a031681565b610409610743366004612c5f565b611749565b6103da6107563660046127ea565b611c4c565b610409610769366004612772565b50565b60d45461048b90600160a060020a031681565b60d15461048b90600160a060020a031681565b60db5461048b90600160a060020a031681565b60c9546104439060ff1681565b6103da60ca5481565b6104096107c9366004612889565b611dcc565b60ce5461048b90600160a060020a031681565b603354600160a060020a031633146108175760405160e560020a62461bcd02815260040161080e90612d56565b60405180910390fd5b61ffff821661083f5760d28054600160a060020a031916600160a060020a0383161790555050565b8161ffff166001141561086b5760d38054600160a060020a031916600160a060020a0383161790555050565b8161ffff16600214156108975760d68054600160a060020a031916600160a060020a0383161790555050565b8161ffff16600314156108c35760ce8054600160a060020a031916600160a060020a0383161790555050565b8161ffff16600414156108ef5760d18054600160a060020a031916600160a060020a0383161790555050565b8161ffff166005141561091b5760d98054600160a060020a031916600160a060020a0383161790555050565b8161ffff16600614156109475760d48054600160a060020a031916600160a060020a0383161790555050565b8161ffff16600714156109735760d58054600160a060020a031916600160a060020a0383161790555050565b8161ffff166008141561099f5760d88054600160a060020a031916600160a060020a0383161790555050565b8161ffff16600914156109cb5760d78054600160a060020a031916600160a060020a0383161790555050565b8161ffff16600a14156109f75760da8054600160a060020a031916600160a060020a0383161790555050565b8161ffff16600b1415610a235760db8054600160a060020a031916600160a060020a0383161790555050565b8161ffff16600c1415610a4f5760cc8054600160a060020a031916600160a060020a0383161790555050565b8161ffff16600d1415610a7b5760cd8054600160a060020a031916600160a060020a0383161790555050565b8161ffff16600e1415610aa75760cf8054600160a060020a031916600160a060020a0383161790555050565b8161ffff16600f1415610ad35760d08054600160a060020a031916600160a060020a0383161790555050565b60405160e560020a62461bcd02815260206004820152601160248201527f757265636f67436f6e7472616374496478000000000000000000000000000000604482015260640161080e565b5050565b60cb54600160a060020a03163314610b4f5760405160e560020a62461bcd02815260040161080e90612d8b565b60cb8054821515740100000000000000000000000000000000000000000274ff0000000000000000000000000000000000000000199091161790556040517f125177ac7b8930dac1e59c2b30b1b6b9191b30af40cf6bbb5d20fec4d44be60f90610bbe90831515815260200190565b60405180910390a150565b603354600160a060020a03163314610bf65760405160e560020a62461bcd02815260040161080e90612d56565b61076981611e81565b603354600160a060020a03163314610c2c5760405160e560020a62461bcd02815260040161080e90612d56565b60ca55565b60cc54600090600160a060020a031633600160a060020a031614610c6a5760405160e560020a62461bcd02815260040161080e90612dc2565b60026065541415610cc05760405160e560020a62461bcd02815260206004820152601f60248201527f5265656e7472616e637947756172643a207265656e7472616e742063616c6c00604482015260640161080e565b600260655560975460ff1615610ceb5760405160e560020a62461bcd02815260040161080e90612df9565b60d75460d154610d0a91600160a060020a039182169133911685611f44565b60e454610d179083611ffb565b60e45560405182907fed8a5d040a303ca26fe1ff3b89300b41889113eee6fbc208be0fbbecdcb97d6490600090a250600160655590565b603354600160a060020a03163314610d7b5760405160e560020a62461bcd02815260040161080e90612d56565b60e855565b565b60cb54600160a060020a03163314610daf5760405160e560020a62461bcd02815260040161080e90612d8b565b610d8061200e565b60cc54600090600160a060020a031633600160a060020a031614610df05760405160e560020a62461bcd02815260040161080e90612dc2565b60026065541415610e465760405160e560020a62461bcd02815260206004820152601f60248201527f5265656e7472616e637947756172643a207265656e7472616e742063616c6c00604482015260640161080e565b600260655560975460ff1615610e715760405160e560020a62461bcd02815260040161080e90612df9565b60008211610ec45760405160e560020a62461bcd02815260206004820152600760248201527f6e656757616e7400000000000000000000000000000000000000000000000000604482015260640161080e565b60d0546040517ff55850b4000000000000000000000000000000000000000000000000000000008152306004820152600091600160a060020a03169063f55850b490602401602060405180830381865afa158015610f26573d6000803e3d6000fd5b505050506040513d601f19601f82011682018060405250810190610f4a9190612e30565b90508060e45484610f5b9190612e62565b610f659190612e81565b915060e454821115610f775760e45491505b8160e46000828254610f899190612ea6565b909155505060e0546127101115610fb85761271060e05484610fab9190612e62565b610fb59190612e81565b92505b60d1546040517f70a08231000000000000000000000000000000000000000000000000000000008152306004820152600091600160a060020a0316906370a0823190602401602060405180830381865afa15801561101a573d6000803e3d6000fd5b505050506040513d601f19601f8201168201806040525081019061103e9190612e30565b90508084111561104c578093505b8360e2600082825461105e9190612ea6565b909155505060cc5460d15461108091600160a060020a039182169116866120ad565b50506001606555919050565b60e560205282600052604060002060205281600052604060002081815481106110b457600080fd5b600091825260209091200154600160a060020a0316925083915050565b60cc54600090600160a060020a031633600160a060020a03161461110a5760405160e560020a62461bcd02815260040161080e90612dc2565b60975460ff16156111305760405160e560020a62461bcd02815260040161080e90612df9565b600082116111835760405160e560020a62461bcd02815260206004820152601d60248201527f63616e6e6f74206861766520696e66696e69746520736c697070616765000000604482015260640161080e565b60d6546040517f40c10f1900000000000000000000000000000000000000000000000000000000815233600482015260248101859052600160a060020a03909116906340c10f1990604401600060405180830381600087803b1580156111e857600080fd5b505af11580156111fc573d6000803e3d6000fd5b50506040518592508291507f6d747e44316ecb7671eae6611ae63f103a7b25c9b0eec542ca87afe327530f7990600090a35090919050565b60cb54600160a060020a031633146112615760405160e560020a62461bcd02815260040161080e90612d8b565b60d454600160a060020a03848116911614156112c25760405160e560020a62461bcd02815260206004820152600560248201527f2173616665000000000000000000000000000000000000000000000000000000604482015260640161080e565b60d154600160a060020a03848116911614156113235760405160e560020a62461bcd02815260206004820152600560248201527f2173616665000000000000000000000000000000000000000000000000000000604482015260640161080e565b611337600160a060020a03841682846120ad565b505050565b603354600160a060020a031633146113695760405160e560020a62461bcd02815260040161080e90612d56565b610d8060006120f6565b60cb54600160a060020a031633146113a05760405160e560020a62461bcd02815260040161080e90612d8b565b6123288510156113f55760405160e560020a62461bcd02815260206004820152601a60248201527f5f656e7472616e6365466565466163746f7220746f6f206c6f77000000000000604482015260640161080e565b61271085111561144a5760405160e560020a62461bcd02815260206004820152601b60248201527f5f656e7472616e6365466565466163746f7220746f6f20686967680000000000604482015260640161080e565b60df8590556123288410156114a45760405160e560020a62461bcd02815260206004820152601a60248201527f5f7769746864726177466565466163746f7220746f6f206c6f77000000000000604482015260640161080e565b6127108411156114f95760405160e560020a62461bcd02815260206004820152601b60248201527f5f7769746864726177466565466163746f7220746f6f20686967680000000000604482015260640161080e565b60e08490556113888311156115535760405160e560020a62461bcd02815260206004820152601760248201527f5f636f6e74726f6c6c657246656520746f6f2068696768000000000000000000604482015260640161080e565b60dc8390556113888211156115ad5760405160e560020a62461bcd02815260206004820152601560248201527f5f6275794261636b5261746520746f6f20686967680000000000000000000000604482015260640161080e565b60dd8290556113888111156116075760405160e560020a62461bcd02815260206004820152601660248201527f5f72657653686172655261746520746f6f206869676800000000000000000000604482015260640161080e565b60de819055604080518681526020810186905290810184905260608101839052608081018290527fc67e0b149a57a70fa44a531a46c2c6d8e0b242fa12f459f250012c3a5987d29a9060a00160405180910390a15050505050565b603354600160a060020a0316331461168f5760405160e560020a62461bcd02815260040161080e90612d56565b610b1e8282612148565b60cb54600160a060020a031633146116c65760405160e560020a62461bcd02815260040161080e90612d8b565b610d80612176565b60cb54600160a060020a031633146116fb5760405160e560020a62461bcd02815260040161080e90612d8b565b60cb8054600160a060020a031916600160a060020a0383169081179091556040519081527f91a8c1cc2d4a3bb60738481947a00cbb9899c822916694cf8bb1d68172fdcd5490602001610bbe565b600054610100900460ff166117645760005460ff1615611768565b303b155b6117dd5760405160e560020a62461bcd02815260206004820152602e60248201527f496e697469616c697a61626c653a20636f6e747261637420697320616c72656160448201527f647920696e697469616c697a6564000000000000000000000000000000000000606482015260840161080e565b600054610100900460ff161580156117ff576000805461ffff19166101011790555b6118076121d1565b61181083611dcc565b8151805160ca5560209081015160c9805460ff191691151591909117905580830151805160cb805474010000000000000000000000000000000000000000600160a060020a0393841674ffffffffffffffffffffffffffffffffffffffffff19909216919091171790558183015160cc8054600160a060020a031990811692841692909217905560408084015160cd8054841691851691909117905560608085015160ce8054851691861691909117905560808086015160cf8054861691871691909117905560a086015160d18054861691871691909117905560c086015160d28054861691871691909117905560e08087015160d38054871691881691909117905561010087015160d48054871691881691909117905561012087015160d58054871691881691909117905561014087015160d88054871691881691909117905561016087015160d9805487169188169190911790556101a087015160da805487169188169190911790556101c087015160db805487169188169190911790556101e087015160d6805487169188169190911790556102009096015160d0805490951695169490941790925581870151805160dc559485015160dd558481015160de559084015160df559201519055820151516119ed90611e81565b6119fe826040015160200151611e81565b611a0f826040015160400151611e81565b611a20826040015160600151611e81565b611a31826040015160800151611e81565b611a42826040015160a00151611e81565b611a53826040015160c00151611e81565b611a64826040015160e00151611e81565b611a7682604001516101000151611e81565b60d0546040808401516060015190517f8b4c5aee000000000000000000000000000000000000000000000000000000008152611b1392600160a060020a031691638b4c5aee91611ac99190600401612ebd565b600060405180830381865afa158015611ae6573d6000803e3d6000fd5b505050506040513d6000823e601f3d908101601f19168201604052611b0e9190810190612f0a565b611e81565b60d0546040808401516080015190517f8b4c5aee000000000000000000000000000000000000000000000000000000008152611b6692600160a060020a031691638b4c5aee91611ac99190600401612ebd565b60d254608083015151611b8291600160a060020a031690612148565b60d354608083015160200151611ba191600160a060020a031690612148565b60d454608083015160400151611bc091600160a060020a031690612148565b60db546080808401510151611bde91600160a060020a031690612148565b60ce54608083015160600151611bfd91600160a060020a031690612148565b60d654608083015160a00151611c1c91600160a060020a031690612148565b60d78054600160a060020a03191661dead1790556103d960e8558015611337576000805461ff0019169055505050565b60cc54600090600160a060020a031633600160a060020a031614611c855760405160e560020a62461bcd02815260040161080e90612dc2565b60975460ff1615611cab5760405160e560020a62461bcd02815260040161080e90612df9565b60008211611cfe5760405160e560020a62461bcd02815260206004820152601b60248201527f736c6970706167652063616e6e6f7420626520696e66696e6974650000000000604482015260640161080e565b60d75460d654611d1b91600160a060020a039182169116856120ad565b60d1546040517f40c10f1900000000000000000000000000000000000000000000000000000000815233600482015260248101859052600160a060020a03909116906340c10f1990604401600060405180830381600087803b158015611d8057600080fd5b505af1158015611d94573d6000803e3d6000fd5b50506040518592508291507fa47131bab56293bdfad166ce055ce2b65336369bd9c0b1f3d7531ffdf299e37490600090a35090919050565b603354600160a060020a03163314611df95760405160e560020a62461bcd02815260040161080e90612d56565b600160a060020a038116611e785760405160e560020a62461bcd02815260206004820152602660248201527f4f776e61626c653a206e6577206f776e657220697320746865207a65726f206160448201527f6464726573730000000000000000000000000000000000000000000000000000606482015260840161080e565b610769816120f6565b600081600081518110611e9657611e96612f96565b6020026020010151905060008260018451611eb19190612ea6565b81518110611ec157611ec1612f96565b602090810291909101810151600160a060020a03808516600090815260e5845260408082209284168252918452208551919350611f03929091908601906124c0565b509151600160a060020a03918216600090815260e66020908152604080832094909516825292909252919020805461ffff191661ffff909216919091179055565b604051600160a060020a0380851660248301528316604482015260648101829052611ff59085907f23b872dd00000000000000000000000000000000000000000000000000000000906084015b60408051601f198184030181529190526020810180517bffffffffffffffffffffffffffffffffffffffffffffffffffffffff167fffffffff0000000000000000000000000000000000000000000000000000000090931692909217909152612203565b50505050565b60006120078284612faf565b9392505050565b60975460ff166120635760405160e560020a62461bcd02815260206004820152601460248201527f5061757361626c653a206e6f7420706175736564000000000000000000000000604482015260640161080e565b6097805460ff191690557f5db9ee0a495bf2e6ff9c91a7834c1ba4fdd244a5e8aa4e537bd38aeae4b073aa335b604051600160a060020a03909116815260200160405180910390a1565b604051600160a060020a0383166024820152604481018290526113379084907fa9059cbb0000000000000000000000000000000000000000000000000000000090606401611f91565b60338054600160a060020a03838116600160a060020a0319831681179093556040519116919082907f8be0079c531659141344cd1fd0a4f28419497f9722a3daafe3b4186f6b6457e090600090a35050565b600160a060020a03918216600090815260e7602052604090208054600160a060020a03191691909216179055565b60975460ff161561219c5760405160e560020a62461bcd02815260040161080e90612df9565b6097805460ff191660011790557f62e78cea01bee320cd4e420270b5ea74000d11b0c9f74754ebdbfc544b05a2586120903390565b600054610100900460ff166121fb5760405160e560020a62461bcd02815260040161080e90612fc7565b610d806122eb565b6000612258826040518060400160405280602081526020017f5361666545524332303a206c6f772d6c6576656c2063616c6c206661696c656481525085600160a060020a031661231e9092919063ffffffff16565b80519091501561133757808060200190518101906122769190613024565b6113375760405160e560020a62461bcd02815260206004820152602a60248201527f5361666545524332303a204552433230206f7065726174696f6e20646964206e60448201527f6f74207375636365656400000000000000000000000000000000000000000000606482015260840161080e565b600054610100900460ff166123155760405160e560020a62461bcd02815260040161080e90612fc7565b610d80336120f6565b606061232d8484600085612335565b949350505050565b606030318311156123b15760405160e560020a62461bcd02815260206004820152602660248201527f416464726573733a20696e73756666696369656e742062616c616e636520666f60448201527f722063616c6c0000000000000000000000000000000000000000000000000000606482015260840161080e565b600160a060020a0385163b61240b5760405160e560020a62461bcd02815260206004820152601d60248201527f416464726573733a2063616c6c20746f206e6f6e2d636f6e7472616374000000604482015260640161080e565b60008086600160a060020a03168587604051612427919061306d565b60006040518083038185875af1925050503d8060008114612464576040519150601f19603f3d011682016040523d82523d6000602084013e612469565b606091505b5091509150612479828286612484565b979650505050505050565b60608315612493575081612007565b8251156124a35782518084602001fd5b8160405160e560020a62461bcd02815260040161080e9190613089565b828054828255906000526020600020908101928215612515579160200282015b828111156125155782518254600160a060020a031916600160a060020a039091161782556020909201916001909101906124e0565b50612521929150612525565b5090565b5b808211156125215760008155600101612526565b600160a060020a038116811461076957600080fd5b803561255a8161253a565b919050565b6000806040838503121561257257600080fd5b823561ffff8116811461258457600080fd5b915060208301356125948161253a565b809150509250929050565b801515811461076957600080fd5b6000602082840312156125bf57600080fd5b81356120078161259f565b60e060020a634e487b7102600052604160045260246000fd5b604051610220810167ffffffffffffffff81118282101715612607576126076125ca565b60405290565b604051610120810167ffffffffffffffff81118282101715612607576126076125ca565b60405160a0810167ffffffffffffffff81118282101715612607576126076125ca565b6040805190810167ffffffffffffffff81118282101715612607576126076125ca565b604051601f8201601f1916810167ffffffffffffffff811182821017156126a0576126a06125ca565b604052919050565b600067ffffffffffffffff8211156126c2576126c26125ca565b5060209081020190565b600082601f8301126126dd57600080fd5b813560206126f26126ed836126a8565b612677565b8281529181028401810191818101908684111561270e57600080fd5b8286015b848110156127325780356127258161253a565b8352918301918301612712565b509695505050505050565b60006020828403121561274f57600080fd5b813567ffffffffffffffff81111561276657600080fd5b61232d848285016126cc565b60006020828403121561278457600080fd5b5035919050565b6000806040838503121561279e57600080fd5b82356125848161253a565b6000806000606084860312156127be57600080fd5b83356127c98161253a565b925060208401356127d98161253a565b929592945050506040919091013590565b600080604083850312156127fd57600080fd5b50508035926020909101359150565b60008060006060848603121561282157600080fd5b833561282c8161253a565b92506020840135915060408401356128438161253a565b809150509250925092565b600080600080600060a0868803121561286657600080fd5b505083359560208501359550604085013594606081013594506080013592509050565b60006020828403121561289b57600080fd5b81356120078161253a565b600061022082840312156128b957600080fd5b6128c16125e3565b90506128cc8261254f565b81526128da6020830161254f565b60208201526128eb6040830161254f565b60408201526128fc6060830161254f565b606082015261290d6080830161254f565b608082015261291e60a0830161254f565b60a082015261292f60c0830161254f565b60c082015261294060e0830161254f565b60e082015261010061295381840161254f565b9082015261012061296583820161254f565b9082015261014061297783820161254f565b9082015261016061298983820161254f565b9082015261018061299b83820161254f565b908201526101a06129ad83820161254f565b908201526101c06129bf83820161254f565b908201526101e06129d183820161254f565b908201526102006129e383820161254f565b9082015292915050565b60006101208284031215612a0057600080fd5b612a0861260d565b9050813567ffffffffffffffff80821115612a2257600080fd5b612a2e858386016126cc565b83526020840135915080821115612a4457600080fd5b612a50858386016126cc565b60208401526040840135915080821115612a6957600080fd5b612a75858386016126cc565b60408401526060840135915080821115612a8e57600080fd5b612a9a858386016126cc565b60608401526080840135915080821115612ab357600080fd5b612abf858386016126cc565b608084015260a0840135915080821115612ad857600080fd5b612ae4858386016126cc565b60a084015260c0840135915080821115612afd57600080fd5b612b09858386016126cc565b60c084015260e0840135915080821115612b2257600080fd5b612b2e858386016126cc565b60e084015261010091508184013581811115612b4957600080fd5b612b55868287016126cc565b8385015250505092915050565b600060a08284031215612b7457600080fd5b612b7c612631565b9050813581526020820135602082015260408201356040820152606082013560608201526080820135608082015292915050565b600060c08284031215612bc257600080fd5b60405160c0810181811067ffffffffffffffff82111715612be557612be56125ca565b6040529050808235612bf68161253a565b81526020830135612c068161253a565b60208201526040830135612c198161253a565b60408201526060830135612c2c8161253a565b60608201526080830135612c3f8161253a565b608082015260a0830135612c528161253a565b60a0919091015292915050565b60008060408385031215612c7257600080fd5b8235612c7d8161253a565b9150602083013567ffffffffffffffff80821115612c9a57600080fd5b908401908186036103e0811215612cb057600080fd5b612cb8612631565b6040821215612cc657600080fd5b612cce612654565b9150833582526020840135612ce28161259f565b6020830152818152612cf788604086016128a6565b6020820152610260840135915082821115612d1157600080fd5b612d1d888386016129ed565b6040820152612d30886102808601612b62565b6060820152612d43886103208601612bb0565b6080820152809450505050509250929050565b6020808252818101527f4f776e61626c653a2063616c6c6572206973206e6f7420746865206f776e6572604082015260600190565b60208082526004908201527f21676f7600000000000000000000000000000000000000000000000000000000604082015260600190565b60208082526010908201527f217a6f72726f436f6e74726f6c6c657200000000000000000000000000000000604082015260600190565b60208082526010908201527f5061757361626c653a2070617573656400000000000000000000000000000000604082015260600190565b600060208284031215612e4257600080fd5b5051919050565b60e060020a634e487b7102600052601160045260246000fd5b6000816000190483118215151615612e7c57612e7c612e49565b500290565b600082612ea15760e060020a634e487b7102600052601260045260246000fd5b500490565b600082821015612eb857612eb8612e49565b500390565b6020808252825182820181905260009190848201906040850190845b81811015612efe578351600160a060020a031683529284019291840191600101612ed9565b50909695505050505050565b60006020808385031215612f1d57600080fd5b825167ffffffffffffffff811115612f3457600080fd5b8301601f81018513612f4557600080fd5b8051612f536126ed826126a8565b81815290830282018301908381019087831115612f6f57600080fd5b928401925b82841015612479578351612f878161253a565b82529284019290840190612f74565b60e060020a634e487b7102600052603260045260246000fd5b60008219821115612fc257612fc2612e49565b500190565b6020808252602b908201527f496e697469616c697a61626c653a20636f6e7472616374206973206e6f74206960408201527f6e697469616c697a696e67000000000000000000000000000000000000000000606082015260800190565b60006020828403121561303657600080fd5b81516120078161259f565b60005b8381101561305c578181015183820152602001613044565b83811115611ff55750506000910152565b6000825161307f818460208701613041565b9190910192915050565b60208152600082518060208401526130a8816040850160208701613041565b601f01601f1916919091016040019291505056fea2646970667358221220921ceb0e415af07a2efdf1d658b43b64fe901c71cc8607238628a367445d360b64736f6c634300080a0033",
  "immutableReferences": {},
  "source": "// SPDX-License-Identifier: MIT\n\npragma solidity ^0.8.0;\n\nimport \"../ZorroController.sol\";\n\nimport \"../../vaults/_VaultBase.sol\";\n\nimport \"../../tokens/mocks/MockToken.sol\";\n\nimport \"../../vaults/actions/_VaultActions.sol\";\n\ncontract MockZorroController is ZorroController {\n    event UpdatedVault(uint256 indexed _amount);\n    event HandledRewards(uint256 indexed _rewardsDue);\n\n    function addTranche(\n        uint256 _vid,\n        address _account,\n        TrancheInfo memory _trancheInfo\n    ) public {\n        trancheInfo[_vid][_account].push(_trancheInfo);\n        vaultInfo[_vid].totalTrancheContributions =\n            vaultInfo[_vid].totalTrancheContributions +\n            _trancheInfo.contribution;\n    }\n\n    function setLastRewardBlock(uint256 _vid, uint256 _block) public {\n        vaultInfo[_vid].lastRewardBlock = _block;\n    }\n\n    function updateVaultMod(uint256 _vid) public {\n        uint256 _res = updateVault(_vid);\n\n        emit UpdatedVault(_res);\n    }\n\n    function withdrawMod(\n        uint256 _vid,\n        address _localAccount,\n        bytes memory _foreignAccount,\n        uint256 _trancheId,\n        bool _harvestOnly,\n        bool _xChainRepatriation\n    ) public returns (WithdrawalResult memory _res) {\n        _res = _withdraw(\n            _vid,\n            _localAccount,\n            _foreignAccount,\n            _trancheId,\n            _harvestOnly,\n            _xChainRepatriation\n        );\n        emit HandledRewards(_res.rewardsDueXChain);\n    }\n\n    function _fetchFundsFromPublicPool(uint256 _amount, address _destination)\n        internal\n        override\n    {\n        // Do nothing. Dummy func.\n    }\n\n    function recordMintedRewards(uint256 _mintedRewards)\n        public\n        nonHomeChainOnly\n    {\n        _recordMintedRewards(_mintedRewards);\n    }\n\n    function recordSlashedRewards(uint256 _slashedRewards)\n        public\n        nonHomeChainOnly\n    {\n        _recordSlashedRewards(_slashedRewards);\n    }\n}\n\ncontract MockInvestmentVault is VaultBase {\n    using SafeERC20Upgradeable for IERC20Upgradeable;\n    using SafeMathUpgradeable for uint256;\n\n    event DepositedWant(uint256 indexed _wantAmt);\n    event ExchangedUSDForWant(\n        uint256 indexed _amountUSD,\n        uint256 indexed _amountWant\n    );\n    event WithdrewWant(uint256 indexed _wantAmt);\n    event ExchangedWantForUSD(\n        uint256 indexed _amountWant,\n        uint256 indexed _amountUSD\n    );\n\n    function depositWantToken(uint256 _wantAmt)\n        public\n        override\n        onlyZorroController\n        nonReentrant\n        whenNotPaused\n        returns (uint256 sharesAdded)\n    {\n        IERC20Upgradeable(wantAddress).safeTransferFrom(\n            msg.sender,\n            burnAddress,\n            _wantAmt\n        );\n\n        sharesTotal = sharesTotal.add(_wantAmt);\n\n        emit DepositedWant(_wantAmt);\n\n        return _wantAmt;\n    }\n\n    function exchangeUSDForWantToken(\n        uint256 _amountUSD,\n        uint256 _maxMarketMovementAllowed\n    ) public override onlyZorroController whenNotPaused returns (uint256) {\n        require(_maxMarketMovementAllowed > 0, \"slippage cannot be infinite\");\n\n        IERC20Upgradeable(defaultStablecoin).safeTransfer(\n            burnAddress,\n            _amountUSD\n        );\n        // Assume 1:1 exch rate\n        MockERC20Upgradeable(wantAddress).mint(msg.sender, _amountUSD);\n\n        emit ExchangedUSDForWant(_amountUSD, _amountUSD);\n\n        return _amountUSD;\n    }\n\n    function exchangeWantTokenForUSD(\n        uint256 _amount,\n        uint256 _maxMarketMovementAllowed\n    )\n        public\n        virtual\n        override\n        onlyZorroController\n        whenNotPaused\n        returns (uint256)\n    {\n        // Requirements\n        require(_maxMarketMovementAllowed > 0, \"cannot have infinite slippage\");\n        // Assume 1:1 exch rate\n        MockERC20Upgradeable(defaultStablecoin).mint(msg.sender, _amount);\n\n        emit ExchangedWantForUSD(_amount, _amount);\n\n        return _amount;\n    }\n\n    function earn(uint256 _maxMarketMovementAllowed) public override {}\n\n    function farm() external {}\n\n    function _farm() internal override {}\n\n    function _unfarm(uint256 _amount) internal override {}\n}\n\ncontract MockInvestmentVault1 is MockInvestmentVault {}\n",
  "sourcePath": "/Users/kristophm/Documents/workspace/zorro-protocol/contracts/controllers/mocks/MockZorroController.sol",
  "compiler": {
    "name": "solc",
    "version": "0.8.10+commit.fc410830.Emscripten.clang"
  },
  "schemaVersion": "3.4.10",
  "updatedAt": "2022-12-14T17:42:59.033Z",
  "devdoc": {
    "kind": "dev",
    "methods": {
      "depositWantToken(uint256)": {
        "params": {
          "_wantAmt": "amount of underlying token to deposit/stake"
        },
        "returns": {
          "sharesAdded": "uint256 Number of shares added"
        }
      },
      "earn(uint256)": {
        "params": {
          "_maxMarketMovementAllowed": "The max slippage allowed. 1000 = 0 %, 995 = 0.5%, etc."
        }
      },
      "exchangeUSDForWantToken(uint256,uint256)": {
        "params": {
          "_amountUSD": "Amount of USD to exchange",
          "_maxMarketMovementAllowed": "Slippage (990 = 1%)"
        },
        "returns": {
          "_0": "The amount of Want token returned"
        }
      },
      "exchangeWantTokenForUSD(uint256,uint256)": {
        "params": {
          "_amount": "Amount of want to exchange",
          "_maxMarketMovementAllowed": "Slippage (990 = 1%)"
        },
        "returns": {
          "_0": "The amount of USD token returned"
        }
      },
      "inCaseTokensGetStuck(address,uint256,address)": {
        "params": {
          "_amount": "The amount of the tokens to transfer",
          "_to": "The address to transfer tokens to",
          "_token": "Address of the ERC20 token to transfer"
        }
      },
      "owner()": {
        "details": "Returns the address of the current owner."
      },
      "paused()": {
        "details": "Returns true if the contract is paused, and false otherwise."
      },
      "renounceOwnership()": {
        "details": "Leaves the contract without owner. It will not be possible to call `onlyOwner` functions anymore. Can only be called by the current owner. NOTE: Renouncing ownership will leave the contract without an owner, thereby removing any functionality that is only available to the owner."
      },
      "setFeeSettings(uint256,uint256,uint256,uint256,uint256)": {
        "params": {
          "_buyBackRate": "Buy back rate fee numerator",
          "_controllerFee": "Controller fee numerator",
          "_entranceFeeFactor": "Entrance fee numerator (higher means smaller percentage)",
          "_revShareRate": "Rev share rate fee numerator",
          "_withdrawFeeFactor": "Withdrawal fee numerator (higher means smaller percentage)"
        }
      },
      "setGov(address)": {
        "params": {
          "_govAddress": "The new gov address"
        }
      },
      "setOnlyGov(bool)": {
        "params": {
          "_onlyGov": "whether onlyGov should be enforced"
        }
      },
      "transferOwnership(address)": {
        "details": "Transfers ownership of the contract to a new account (`newOwner`). Can only be called by the current owner."
      },
      "withdrawWantToken(uint256)": {
        "params": {
          "_wantAmt": "The amount of Want token to withdraw"
        },
        "returns": {
          "sharesRemoved": "The number of shares removed"
        }
      }
    },
    "version": 1
  },
  "userdoc": {
    "kind": "user",
    "methods": {
      "depositWantToken(uint256)": {
        "notice": "Receives new deposits from user"
      },
      "earn(uint256)": {
        "notice": "The main compounding (earn) function. Reinvests profits since the last earn event."
      },
      "exchangeUSDForWantToken(uint256,uint256)": {
        "notice": "Converts USD to Want token and delivers back to this contract"
      },
      "exchangeWantTokenForUSD(uint256,uint256)": {
        "notice": "Converts Want token to USD and delivers back to this contract"
      },
      "inCaseTokensGetStuck(address,uint256,address)": {
        "notice": "Safely transfer ERC20 tokens stuck in this contract to a specified address"
      },
      "pause()": {
        "notice": "Pause contract"
      },
      "setFeeSettings(uint256,uint256,uint256,uint256,uint256)": {
        "notice": "Configure key fee parameters"
      },
      "setGov(address)": {
        "notice": "Set governor address"
      },
      "setOnlyGov(bool)": {
        "notice": "Set onlyGov property"
      },
      "unpause()": {
        "notice": "Unpause contract"
      },
      "withdrawWantToken(uint256)": {
        "notice": "Fully withdraw Want tokens from the Farm contract (100% withdrawals only)"
      }
    },
    "version": 1
  }
}