{
  "contractName": "MockVaultStargate",
  "abi": [
    {
      "anonymous": false,
      "inputs": [
        {
          "indexed": true,
          "internalType": "uint256",
          "name": "_amount",
          "type": "uint256"
        }
      ],
      "name": "Buyback",
      "type": "event"
    },
    {
      "anonymous": false,
      "inputs": [
        {
          "indexed": true,
          "internalType": "address",
          "name": "previousOwner",
          "type": "address"
        },
        {
          "indexed": true,
          "internalType": "address",
          "name": "newOwner",
          "type": "address"
        }
      ],
      "name": "OwnershipTransferred",
      "type": "event"
    },
    {
      "anonymous": false,
      "inputs": [
        {
          "indexed": false,
          "internalType": "address",
          "name": "account",
          "type": "address"
        }
      ],
      "name": "Paused",
      "type": "event"
    },
    {
      "anonymous": false,
      "inputs": [
        {
          "indexed": true,
          "internalType": "uint256",
          "name": "_amount",
          "type": "uint256"
        }
      ],
      "name": "RevShare",
      "type": "event"
    },
    {
      "anonymous": false,
      "inputs": [
        {
          "indexed": false,
          "internalType": "address",
          "name": "_govAddress",
          "type": "address"
        }
      ],
      "name": "SetGov",
      "type": "event"
    },
    {
      "anonymous": false,
      "inputs": [
        {
          "indexed": false,
          "internalType": "bool",
          "name": "_onlyGov",
          "type": "bool"
        }
      ],
      "name": "SetOnlyGov",
      "type": "event"
    },
    {
      "anonymous": false,
      "inputs": [
        {
          "indexed": false,
          "internalType": "address",
          "name": "_rewardsAddress",
          "type": "address"
        }
      ],
      "name": "SetRewardsAddress",
      "type": "event"
    },
    {
      "anonymous": false,
      "inputs": [
        {
          "indexed": false,
          "internalType": "uint256",
          "name": "_entranceFeeFactor",
          "type": "uint256"
        },
        {
          "indexed": false,
          "internalType": "uint256",
          "name": "_withdrawFeeFactor",
          "type": "uint256"
        },
        {
          "indexed": false,
          "internalType": "uint256",
          "name": "_controllerFee",
          "type": "uint256"
        },
        {
          "indexed": false,
          "internalType": "uint256",
          "name": "_buyBackRate",
          "type": "uint256"
        },
        {
          "indexed": false,
          "internalType": "uint256",
          "name": "_revShareRate",
          "type": "uint256"
        }
      ],
      "name": "SetSettings",
      "type": "event"
    },
    {
      "anonymous": false,
      "inputs": [
        {
          "indexed": false,
          "internalType": "address",
          "name": "_uniRouterAddress",
          "type": "address"
        }
      ],
      "name": "SetUniRouterAddress",
      "type": "event"
    },
    {
      "anonymous": false,
      "inputs": [
        {
          "indexed": false,
          "internalType": "address",
          "name": "account",
          "type": "address"
        }
      ],
      "name": "Unpaused",
      "type": "event"
    },
    {
      "inputs": [],
      "name": "ZORROAddress",
      "outputs": [
        {
          "internalType": "address",
          "name": "",
          "type": "address"
        }
      ],
      "stateMutability": "view",
      "type": "function"
    },
    {
      "inputs": [],
      "name": "burnAddress",
      "outputs": [
        {
          "internalType": "address",
          "name": "",
          "type": "address"
        }
      ],
      "stateMutability": "view",
      "type": "function"
    },
    {
      "inputs": [],
      "name": "buyBackRate",
      "outputs": [
        {
          "internalType": "uint256",
          "name": "",
          "type": "uint256"
        }
      ],
      "stateMutability": "view",
      "type": "function"
    },
    {
      "inputs": [],
      "name": "buyBackRateMax",
      "outputs": [
        {
          "internalType": "uint256",
          "name": "",
          "type": "uint256"
        }
      ],
      "stateMutability": "view",
      "type": "function"
    },
    {
      "inputs": [],
      "name": "buyBackRateUL",
      "outputs": [
        {
          "internalType": "uint256",
          "name": "",
          "type": "uint256"
        }
      ],
      "stateMutability": "view",
      "type": "function"
    },
    {
      "inputs": [],
      "name": "controllerFee",
      "outputs": [
        {
          "internalType": "uint256",
          "name": "",
          "type": "uint256"
        }
      ],
      "stateMutability": "view",
      "type": "function"
    },
    {
      "inputs": [],
      "name": "controllerFeeMax",
      "outputs": [
        {
          "internalType": "uint256",
          "name": "",
          "type": "uint256"
        }
      ],
      "stateMutability": "view",
      "type": "function"
    },
    {
      "inputs": [],
      "name": "controllerFeeUL",
      "outputs": [
        {
          "internalType": "uint256",
          "name": "",
          "type": "uint256"
        }
      ],
      "stateMutability": "view",
      "type": "function"
    },
    {
      "inputs": [],
      "name": "defaultStablecoin",
      "outputs": [
        {
          "internalType": "address",
          "name": "",
          "type": "address"
        }
      ],
      "stateMutability": "view",
      "type": "function"
    },
    {
      "inputs": [
        {
          "internalType": "uint256",
          "name": "_wantAmt",
          "type": "uint256"
        }
      ],
      "name": "depositWantToken",
      "outputs": [
        {
          "internalType": "uint256",
          "name": "",
          "type": "uint256"
        }
      ],
      "stateMutability": "nonpayable",
      "type": "function"
    },
    {
      "inputs": [
        {
          "internalType": "uint256",
          "name": "_maxMarketMovementAllowed",
          "type": "uint256"
        }
      ],
      "name": "earn",
      "outputs": [],
      "stateMutability": "nonpayable",
      "type": "function"
    },
    {
      "inputs": [],
      "name": "earnedAddress",
      "outputs": [
        {
          "internalType": "address",
          "name": "",
          "type": "address"
        }
      ],
      "stateMutability": "view",
      "type": "function"
    },
    {
      "inputs": [],
      "name": "entranceFeeFactor",
      "outputs": [
        {
          "internalType": "uint256",
          "name": "",
          "type": "uint256"
        }
      ],
      "stateMutability": "view",
      "type": "function"
    },
    {
      "inputs": [],
      "name": "entranceFeeFactorLL",
      "outputs": [
        {
          "internalType": "uint256",
          "name": "",
          "type": "uint256"
        }
      ],
      "stateMutability": "view",
      "type": "function"
    },
    {
      "inputs": [],
      "name": "entranceFeeFactorMax",
      "outputs": [
        {
          "internalType": "uint256",
          "name": "",
          "type": "uint256"
        }
      ],
      "stateMutability": "view",
      "type": "function"
    },
    {
      "inputs": [
        {
          "internalType": "uint256",
          "name": "_amountUSD",
          "type": "uint256"
        },
        {
          "internalType": "uint256",
          "name": "_maxMarketMovementAllowed",
          "type": "uint256"
        }
      ],
      "name": "exchangeUSDForWantToken",
      "outputs": [
        {
          "internalType": "uint256",
          "name": "",
          "type": "uint256"
        }
      ],
      "stateMutability": "nonpayable",
      "type": "function"
    },
    {
      "inputs": [
        {
          "internalType": "uint256",
          "name": "_amount",
          "type": "uint256"
        },
        {
          "internalType": "uint256",
          "name": "_maxMarketMovementAllowed",
          "type": "uint256"
        }
      ],
      "name": "exchangeWantTokenForUSD",
      "outputs": [
        {
          "internalType": "uint256",
          "name": "",
          "type": "uint256"
        }
      ],
      "stateMutability": "nonpayable",
      "type": "function"
    },
    {
      "inputs": [],
      "name": "farm",
      "outputs": [],
      "stateMutability": "nonpayable",
      "type": "function"
    },
    {
      "inputs": [],
      "name": "farmContractAddress",
      "outputs": [
        {
          "internalType": "address",
          "name": "",
          "type": "address"
        }
      ],
      "stateMutability": "view",
      "type": "function"
    },
    {
      "inputs": [],
      "name": "govAddress",
      "outputs": [
        {
          "internalType": "address",
          "name": "",
          "type": "address"
        }
      ],
      "stateMutability": "view",
      "type": "function"
    },
    {
      "inputs": [
        {
          "internalType": "address",
          "name": "_token",
          "type": "address"
        },
        {
          "internalType": "uint256",
          "name": "_amount",
          "type": "uint256"
        },
        {
          "internalType": "address",
          "name": "_to",
          "type": "address"
        }
      ],
      "name": "inCaseTokensGetStuck",
      "outputs": [],
      "stateMutability": "nonpayable",
      "type": "function"
    },
    {
      "inputs": [
        {
          "internalType": "address",
          "name": "_timelockOwner",
          "type": "address"
        },
        {
          "components": [
            {
              "internalType": "uint256",
              "name": "pid",
              "type": "uint256"
            },
            {
              "internalType": "bool",
              "name": "isHomeChain",
              "type": "bool"
            },
            {
              "internalType": "bool",
              "name": "isFarmable",
              "type": "bool"
            },
            {
              "components": [
                {
                  "internalType": "address",
                  "name": "govAddress",
                  "type": "address"
                },
                {
                  "internalType": "address",
                  "name": "zorroControllerAddress",
                  "type": "address"
                },
                {
                  "internalType": "address",
                  "name": "zorroXChainController",
                  "type": "address"
                },
                {
                  "internalType": "address",
                  "name": "ZORROAddress",
                  "type": "address"
                },
                {
                  "internalType": "address",
                  "name": "zorroStakingVault",
                  "type": "address"
                },
                {
                  "internalType": "address",
                  "name": "wantAddress",
                  "type": "address"
                },
                {
                  "internalType": "address",
                  "name": "token0Address",
                  "type": "address"
                },
                {
                  "internalType": "address",
                  "name": "token1Address",
                  "type": "address"
                },
                {
                  "internalType": "address",
                  "name": "earnedAddress",
                  "type": "address"
                },
                {
                  "internalType": "address",
                  "name": "farmContractAddress",
                  "type": "address"
                },
                {
                  "internalType": "address",
                  "name": "rewardsAddress",
                  "type": "address"
                },
                {
                  "internalType": "address",
                  "name": "poolAddress",
                  "type": "address"
                },
                {
                  "internalType": "address",
                  "name": "uniRouterAddress",
                  "type": "address"
                },
                {
                  "internalType": "address",
                  "name": "zorroLPPool",
                  "type": "address"
                },
                {
                  "internalType": "address",
                  "name": "zorroLPPoolOtherToken",
                  "type": "address"
                },
                {
                  "internalType": "address",
                  "name": "defaultStablecoin",
                  "type": "address"
                }
              ],
              "internalType": "struct VaultActions.VaultAddresses",
              "name": "keyAddresses",
              "type": "tuple"
            },
            {
              "internalType": "address[]",
              "name": "earnedToZORROPath",
              "type": "address[]"
            },
            {
              "internalType": "address[]",
              "name": "earnedToToken0Path",
              "type": "address[]"
            },
            {
              "internalType": "address[]",
              "name": "stablecoinToToken0Path",
              "type": "address[]"
            },
            {
              "internalType": "address[]",
              "name": "earnedToZORLPPoolOtherTokenPath",
              "type": "address[]"
            },
            {
              "internalType": "address[]",
              "name": "earnedToStablecoinPath",
              "type": "address[]"
            },
            {
              "components": [
                {
                  "internalType": "uint256",
                  "name": "controllerFee",
                  "type": "uint256"
                },
                {
                  "internalType": "uint256",
                  "name": "buyBackRate",
                  "type": "uint256"
                },
                {
                  "internalType": "uint256",
                  "name": "revShareRate",
                  "type": "uint256"
                },
                {
                  "internalType": "uint256",
                  "name": "entranceFeeFactor",
                  "type": "uint256"
                },
                {
                  "internalType": "uint256",
                  "name": "withdrawFeeFactor",
                  "type": "uint256"
                }
              ],
              "internalType": "struct VaultActions.VaultFees",
              "name": "fees",
              "type": "tuple"
            },
            {
              "components": [
                {
                  "internalType": "address",
                  "name": "token0PriceFeed",
                  "type": "address"
                },
                {
                  "internalType": "address",
                  "name": "token1PriceFeed",
                  "type": "address"
                },
                {
                  "internalType": "address",
                  "name": "earnTokenPriceFeed",
                  "type": "address"
                },
                {
                  "internalType": "address",
                  "name": "ZORPriceFeed",
                  "type": "address"
                },
                {
                  "internalType": "address",
                  "name": "lpPoolOtherTokenPriceFeed",
                  "type": "address"
                },
                {
                  "internalType": "address",
                  "name": "stablecoinPriceFeed",
                  "type": "address"
                }
              ],
              "internalType": "struct VaultActions.VaultPriceFeeds",
              "name": "priceFeeds",
              "type": "tuple"
            },
            {
              "internalType": "address",
              "name": "tokenSTG",
              "type": "address"
            },
            {
              "internalType": "address",
              "name": "stargateRouter",
              "type": "address"
            },
            {
              "internalType": "uint16",
              "name": "stargatePoolId",
              "type": "uint16"
            }
          ],
          "internalType": "struct IVaultStargate.VaultStargateInit",
          "name": "_initValue",
          "type": "tuple"
        }
      ],
      "name": "initialize",
      "outputs": [],
      "stateMutability": "nonpayable",
      "type": "function"
    },
    {
      "inputs": [
        {
          "internalType": "address",
          "name": "_timelockOwner",
          "type": "address"
        }
      ],
      "name": "initialize",
      "outputs": [],
      "stateMutability": "nonpayable",
      "type": "function"
    },
    {
      "inputs": [],
      "name": "isFarmable",
      "outputs": [
        {
          "internalType": "bool",
          "name": "",
          "type": "bool"
        }
      ],
      "stateMutability": "view",
      "type": "function"
    },
    {
      "inputs": [],
      "name": "isHomeChain",
      "outputs": [
        {
          "internalType": "bool",
          "name": "",
          "type": "bool"
        }
      ],
      "stateMutability": "view",
      "type": "function"
    },
    {
      "inputs": [],
      "name": "lastEarnBlock",
      "outputs": [
        {
          "internalType": "uint256",
          "name": "",
          "type": "uint256"
        }
      ],
      "stateMutability": "view",
      "type": "function"
    },
    {
      "inputs": [],
      "name": "maxMarketMovementAllowed",
      "outputs": [
        {
          "internalType": "uint256",
          "name": "",
          "type": "uint256"
        }
      ],
      "stateMutability": "view",
      "type": "function"
    },
    {
      "inputs": [],
      "name": "onlyGov",
      "outputs": [
        {
          "internalType": "bool",
          "name": "",
          "type": "bool"
        }
      ],
      "stateMutability": "view",
      "type": "function"
    },
    {
      "inputs": [],
      "name": "owner",
      "outputs": [
        {
          "internalType": "address",
          "name": "",
          "type": "address"
        }
      ],
      "stateMutability": "view",
      "type": "function"
    },
    {
      "inputs": [],
      "name": "pause",
      "outputs": [],
      "stateMutability": "nonpayable",
      "type": "function"
    },
    {
      "inputs": [],
      "name": "paused",
      "outputs": [
        {
          "internalType": "bool",
          "name": "",
          "type": "bool"
        }
      ],
      "stateMutability": "view",
      "type": "function"
    },
    {
      "inputs": [],
      "name": "pid",
      "outputs": [
        {
          "internalType": "uint256",
          "name": "",
          "type": "uint256"
        }
      ],
      "stateMutability": "view",
      "type": "function"
    },
    {
      "inputs": [],
      "name": "poolAddress",
      "outputs": [
        {
          "internalType": "address",
          "name": "",
          "type": "address"
        }
      ],
      "stateMutability": "view",
      "type": "function"
    },
    {
      "inputs": [
        {
          "internalType": "address",
          "name": "",
          "type": "address"
        }
      ],
      "name": "priceFeeds",
      "outputs": [
        {
          "internalType": "contract AggregatorV3Interface",
          "name": "",
          "type": "address"
        }
      ],
      "stateMutability": "view",
      "type": "function"
    },
    {
      "inputs": [],
      "name": "renounceOwnership",
      "outputs": [],
      "stateMutability": "nonpayable",
      "type": "function"
    },
    {
      "inputs": [],
      "name": "revShareRate",
      "outputs": [
        {
          "internalType": "uint256",
          "name": "",
          "type": "uint256"
        }
      ],
      "stateMutability": "view",
      "type": "function"
    },
    {
      "inputs": [],
      "name": "revShareRateMax",
      "outputs": [
        {
          "internalType": "uint256",
          "name": "",
          "type": "uint256"
        }
      ],
      "stateMutability": "view",
      "type": "function"
    },
    {
      "inputs": [],
      "name": "revShareRateUL",
      "outputs": [
        {
          "internalType": "uint256",
          "name": "",
          "type": "uint256"
        }
      ],
      "stateMutability": "view",
      "type": "function"
    },
    {
      "inputs": [],
      "name": "rewardsAddress",
      "outputs": [
        {
          "internalType": "address",
          "name": "",
          "type": "address"
        }
      ],
      "stateMutability": "view",
      "type": "function"
    },
    {
      "inputs": [
        {
          "internalType": "address",
          "name": "_burnAddress",
          "type": "address"
        }
      ],
      "name": "setBurnAddress",
      "outputs": [],
      "stateMutability": "nonpayable",
      "type": "function"
    },
    {
      "inputs": [
        {
          "internalType": "address",
          "name": "_defaultStablecoin",
          "type": "address"
        }
      ],
      "name": "setDefaultStablecoin",
      "outputs": [],
      "stateMutability": "nonpayable",
      "type": "function"
    },
    {
      "inputs": [
        {
          "internalType": "address",
          "name": "_earnedAddress",
          "type": "address"
        }
      ],
      "name": "setEarnedAddress",
      "outputs": [],
      "stateMutability": "nonpayable",
      "type": "function"
    },
    {
      "inputs": [
        {
          "internalType": "address",
          "name": "_farmContractAddress",
          "type": "address"
        }
      ],
      "name": "setFarmContractAddress",
      "outputs": [],
      "stateMutability": "nonpayable",
      "type": "function"
    },
    {
      "inputs": [
        {
          "internalType": "uint256",
          "name": "_entranceFeeFactor",
          "type": "uint256"
        },
        {
          "internalType": "uint256",
          "name": "_withdrawFeeFactor",
          "type": "uint256"
        },
        {
          "internalType": "uint256",
          "name": "_controllerFee",
          "type": "uint256"
        },
        {
          "internalType": "uint256",
          "name": "_buyBackRate",
          "type": "uint256"
        },
        {
          "internalType": "uint256",
          "name": "_revShareRate",
          "type": "uint256"
        }
      ],
      "name": "setFeeSettings",
      "outputs": [],
      "stateMutability": "nonpayable",
      "type": "function"
    },
    {
      "inputs": [
        {
          "internalType": "address",
          "name": "_govAddress",
          "type": "address"
        }
      ],
      "name": "setGov",
      "outputs": [],
      "stateMutability": "nonpayable",
      "type": "function"
    },
    {
      "inputs": [
        {
          "internalType": "bool",
          "name": "_isFarmable",
          "type": "bool"
        }
      ],
      "name": "setIsFarmable",
      "outputs": [],
      "stateMutability": "nonpayable",
      "type": "function"
    },
    {
      "inputs": [
        {
          "internalType": "uint256",
          "name": "_slippageNumerator",
          "type": "uint256"
        }
      ],
      "name": "setMaxMarketMovementAllowed",
      "outputs": [],
      "stateMutability": "nonpayable",
      "type": "function"
    },
    {
      "inputs": [
        {
          "internalType": "bool",
          "name": "_onlyGov",
          "type": "bool"
        }
      ],
      "name": "setOnlyGov",
      "outputs": [],
      "stateMutability": "nonpayable",
      "type": "function"
    },
    {
      "inputs": [
        {
          "internalType": "uint256",
          "name": "_pid",
          "type": "uint256"
        }
      ],
      "name": "setPid",
      "outputs": [],
      "stateMutability": "nonpayable",
      "type": "function"
    },
    {
      "inputs": [
        {
          "internalType": "address",
          "name": "_poolAddress",
          "type": "address"
        }
      ],
      "name": "setPoolAddress",
      "outputs": [],
      "stateMutability": "nonpayable",
      "type": "function"
    },
    {
      "inputs": [
        {
          "internalType": "address",
          "name": "_token",
          "type": "address"
        },
        {
          "internalType": "address",
          "name": "_priceFeedAddress",
          "type": "address"
        }
      ],
      "name": "setPriceFeed",
      "outputs": [],
      "stateMutability": "nonpayable",
      "type": "function"
    },
    {
      "inputs": [
        {
          "internalType": "address",
          "name": "_rewardsAddress",
          "type": "address"
        }
      ],
      "name": "setRewardsAddress",
      "outputs": [],
      "stateMutability": "nonpayable",
      "type": "function"
    },
    {
      "inputs": [
        {
          "internalType": "uint16",
          "name": "_poolId",
          "type": "uint16"
        }
      ],
      "name": "setStargatePoolId",
      "outputs": [],
      "stateMutability": "nonpayable",
      "type": "function"
    },
    {
      "inputs": [
        {
          "internalType": "address",
          "name": "_router",
          "type": "address"
        }
      ],
      "name": "setStargateRouter",
      "outputs": [],
      "stateMutability": "nonpayable",
      "type": "function"
    },
    {
      "inputs": [
        {
          "internalType": "address[]",
          "name": "_path",
          "type": "address[]"
        }
      ],
      "name": "setSwapPaths",
      "outputs": [],
      "stateMutability": "nonpayable",
      "type": "function"
    },
    {
      "inputs": [
        {
          "internalType": "address",
          "name": "_token0Address",
          "type": "address"
        }
      ],
      "name": "setToken0Address",
      "outputs": [],
      "stateMutability": "nonpayable",
      "type": "function"
    },
    {
      "inputs": [
        {
          "internalType": "address",
          "name": "_token1Address",
          "type": "address"
        }
      ],
      "name": "setToken1Address",
      "outputs": [],
      "stateMutability": "nonpayable",
      "type": "function"
    },
    {
      "inputs": [
        {
          "internalType": "address",
          "name": "_token",
          "type": "address"
        }
      ],
      "name": "setTokenSTG",
      "outputs": [],
      "stateMutability": "nonpayable",
      "type": "function"
    },
    {
      "inputs": [
        {
          "internalType": "address",
          "name": "_wantAddress",
          "type": "address"
        }
      ],
      "name": "setWantAddress",
      "outputs": [],
      "stateMutability": "nonpayable",
      "type": "function"
    },
    {
      "inputs": [
        {
          "internalType": "address",
          "name": "_ZORROAddress",
          "type": "address"
        }
      ],
      "name": "setZORROAddress",
      "outputs": [],
      "stateMutability": "nonpayable",
      "type": "function"
    },
    {
      "inputs": [
        {
          "internalType": "address",
          "name": "_zorroControllerAddress",
          "type": "address"
        }
      ],
      "name": "setZorroControllerAddress",
      "outputs": [],
      "stateMutability": "nonpayable",
      "type": "function"
    },
    {
      "inputs": [
        {
          "internalType": "address",
          "name": "_poolAddress",
          "type": "address"
        }
      ],
      "name": "setZorroLPPoolAddress",
      "outputs": [],
      "stateMutability": "nonpayable",
      "type": "function"
    },
    {
      "inputs": [
        {
          "internalType": "address",
          "name": "_otherToken",
          "type": "address"
        }
      ],
      "name": "setZorroLPPoolOtherToken",
      "outputs": [],
      "stateMutability": "nonpayable",
      "type": "function"
    },
    {
      "inputs": [
        {
          "internalType": "address",
          "name": "_stakingVault",
          "type": "address"
        }
      ],
      "name": "setZorroStakingVault",
      "outputs": [],
      "stateMutability": "nonpayable",
      "type": "function"
    },
    {
      "inputs": [
        {
          "internalType": "address",
          "name": "_zorroXChainController",
          "type": "address"
        }
      ],
      "name": "setZorroXChainControllerAddress",
      "outputs": [],
      "stateMutability": "nonpayable",
      "type": "function"
    },
    {
      "inputs": [],
      "name": "sharesTotal",
      "outputs": [
        {
          "internalType": "uint256",
          "name": "",
          "type": "uint256"
        }
      ],
      "stateMutability": "view",
      "type": "function"
    },
    {
      "inputs": [],
      "name": "stargatePoolId",
      "outputs": [
        {
          "internalType": "uint16",
          "name": "",
          "type": "uint16"
        }
      ],
      "stateMutability": "view",
      "type": "function"
    },
    {
      "inputs": [],
      "name": "stargateRouter",
      "outputs": [
        {
          "internalType": "address",
          "name": "",
          "type": "address"
        }
      ],
      "stateMutability": "view",
      "type": "function"
    },
    {
      "inputs": [
        {
          "internalType": "address",
          "name": "",
          "type": "address"
        },
        {
          "internalType": "address",
          "name": "",
          "type": "address"
        }
      ],
      "name": "swapPathLength",
      "outputs": [
        {
          "internalType": "uint16",
          "name": "",
          "type": "uint16"
        }
      ],
      "stateMutability": "view",
      "type": "function"
    },
    {
      "inputs": [
        {
          "internalType": "address",
          "name": "",
          "type": "address"
        },
        {
          "internalType": "address",
          "name": "",
          "type": "address"
        },
        {
          "internalType": "uint256",
          "name": "",
          "type": "uint256"
        }
      ],
      "name": "swapPaths",
      "outputs": [
        {
          "internalType": "address",
          "name": "",
          "type": "address"
        }
      ],
      "stateMutability": "view",
      "type": "function"
    },
    {
      "inputs": [],
      "name": "token0Address",
      "outputs": [
        {
          "internalType": "address",
          "name": "",
          "type": "address"
        }
      ],
      "stateMutability": "view",
      "type": "function"
    },
    {
      "inputs": [],
      "name": "token1Address",
      "outputs": [
        {
          "internalType": "address",
          "name": "",
          "type": "address"
        }
      ],
      "stateMutability": "view",
      "type": "function"
    },
    {
      "inputs": [],
      "name": "tokenSTG",
      "outputs": [
        {
          "internalType": "address",
          "name": "",
          "type": "address"
        }
      ],
      "stateMutability": "view",
      "type": "function"
    },
    {
      "inputs": [
        {
          "internalType": "address",
          "name": "newOwner",
          "type": "address"
        }
      ],
      "name": "transferOwnership",
      "outputs": [],
      "stateMutability": "nonpayable",
      "type": "function"
    },
    {
      "inputs": [],
      "name": "unpause",
      "outputs": [],
      "stateMutability": "nonpayable",
      "type": "function"
    },
    {
      "inputs": [],
      "name": "vaultActions",
      "outputs": [
        {
          "internalType": "address",
          "name": "",
          "type": "address"
        }
      ],
      "stateMutability": "view",
      "type": "function"
    },
    {
      "inputs": [],
      "name": "wantAddress",
      "outputs": [
        {
          "internalType": "address",
          "name": "",
          "type": "address"
        }
      ],
      "stateMutability": "view",
      "type": "function"
    },
    {
      "inputs": [],
      "name": "wantLockedTotal",
      "outputs": [
        {
          "internalType": "uint256",
          "name": "",
          "type": "uint256"
        }
      ],
      "stateMutability": "view",
      "type": "function"
    },
    {
      "inputs": [],
      "name": "withdrawFeeFactor",
      "outputs": [
        {
          "internalType": "uint256",
          "name": "",
          "type": "uint256"
        }
      ],
      "stateMutability": "view",
      "type": "function"
    },
    {
      "inputs": [],
      "name": "withdrawFeeFactorLL",
      "outputs": [
        {
          "internalType": "uint256",
          "name": "",
          "type": "uint256"
        }
      ],
      "stateMutability": "view",
      "type": "function"
    },
    {
      "inputs": [],
      "name": "withdrawFeeFactorMax",
      "outputs": [
        {
          "internalType": "uint256",
          "name": "",
          "type": "uint256"
        }
      ],
      "stateMutability": "view",
      "type": "function"
    },
    {
      "inputs": [
        {
          "internalType": "uint256",
          "name": "_wantAmt",
          "type": "uint256"
        }
      ],
      "name": "withdrawWantToken",
      "outputs": [
        {
          "internalType": "uint256",
          "name": "sharesRemoved",
          "type": "uint256"
        }
      ],
      "stateMutability": "nonpayable",
      "type": "function"
    },
    {
      "inputs": [],
      "name": "zorroControllerAddress",
      "outputs": [
        {
          "internalType": "address",
          "name": "",
          "type": "address"
        }
      ],
      "stateMutability": "view",
      "type": "function"
    },
    {
      "inputs": [],
      "name": "zorroLPPool",
      "outputs": [
        {
          "internalType": "address",
          "name": "",
          "type": "address"
        }
      ],
      "stateMutability": "view",
      "type": "function"
    },
    {
      "inputs": [],
      "name": "zorroLPPoolOtherToken",
      "outputs": [
        {
          "internalType": "address",
          "name": "",
          "type": "address"
        }
      ],
      "stateMutability": "view",
      "type": "function"
    },
    {
      "inputs": [],
      "name": "zorroStakingVault",
      "outputs": [
        {
          "internalType": "address",
          "name": "",
          "type": "address"
        }
      ],
      "stateMutability": "view",
      "type": "function"
    },
    {
      "inputs": [],
      "name": "zorroXChainController",
      "outputs": [
        {
          "internalType": "address",
          "name": "",
          "type": "address"
        }
      ],
      "stateMutability": "view",
      "type": "function"
    },
    {
      "inputs": [
        {
          "internalType": "uint256",
          "name": "_wantAmt",
          "type": "uint256"
        }
      ],
      "name": "unfarm",
      "outputs": [],
      "stateMutability": "nonpayable",
      "type": "function"
    }
  ],
  "bytecode": "0x608060405234801561001057600080fd5b5061436d806100206000396000f3fe608060405234801561001057600080fd5b50600436106104dc5760003560e060020a90048063715018a611610287578063b73cba2a11610160578063e65a0117116100d2578063edf5e58511610096578063edf5e58514610a73578063ee50dc3414610638578063f05c09b314610a80578063f106845414610a8d578063f2fde38b14610a96578063f5046a2914610aa957600080fd5b8063e65a011714610a14578063e719847414610a27578063e7a0367914610a3a578063e9e15b4f14610a4d578063ebfba7c414610a6057600080fd5b8063c524a05611610124578063c524a056146109a2578063c8479cd6146109b5578063cfad57a2146109c8578063d7cb416f146109db578063dc3395dc146109ee578063e502a88d14610a0157600080fd5b8063b73cba2a14610956578063bf3a7d4014610969578063c0973eed1461097c578063c302a4d014610853578063c4d66de81461098f57600080fd5b80638da5cb5b116101f9578063a4d2b083116101bd578063a4d2b083146108f5578063a9e56f3c14610908578063b1414dbb1461091b578063b2bc22981461092e578063b3545c01146104f6578063b61bb80a1461094357600080fd5b80638da5cb5b146108825780639199825114610893578063959334f4146108a65780639dcb511a146108b95780639fc33a9f146108e257600080fd5b806383f019391161024b57806383f019391461082f5780638456cb591461084257806385f02dd61461084a578063866b201814610853578063875b6a7b1461085c5780638906758d1461086f57600080fd5b8063715018a6146107db5780637153ef86146107e357806376e11286146107f65780637bf604d8146108095780637ff36fbe1461081c57600080fd5b806344a3955e116103b95780635e8352701161032b57806367057b6c116102ef57806367057b6c1461063857806367206d4014610786578063677379e51461079957806368f54162146107ac5780636ca8bd65146107b557806370d5ae05146107c857600080fd5b80635e835270146107275780635fc77d431461073a5780636183e8041461074d57806361b5bf9f14610760578063648794a41461077357600080fd5b806351b78b471161037d57806351b78b47146106bd57806355ebedec146106d0578063567e07c9146106e3578063583bda3b146106f65780635bc837fc146107095780635c975abb1461071c57600080fd5b806344a3955e1461067657806346008a071461067f5780634b0e7216146106975780634c5b09da146106aa5780634d9f7bb21461063857600080fd5b80631c885bae11610452578063320d47cc11610416578063320d47cc146106415780633214471f1461065457806336e9332d1461065d5780633f4ba83a1461066557806342da4eb31461066d57806343788cd21461063857600080fd5b80631c885bae146105d0578063211019d7146104f65780632209b59e146105e35780632337b0b1146105f65780632717eff31461063857600080fd5b80630fa4e01e116104a45780630fa4e01e1461056457806312bc4b9b1461056d5780631334903f146105805780631755ff2114610589578063178a8d07146105b45780631b0d8aab146105bd57600080fd5b806305828d3e146104e1578063061c7d48146104f65780630761a172146105125780630b6bb30b1461051b5780630daef3211461052e575b600080fd5b6104f46104ef3660046133fd565b610abc565b005b6104ff6103e881565b6040519081526020015b60405180910390f35b6104ff60e75481565b6104f4610529366004613433565b610b14565b60cb54610554907501000000000000000000000000000000000000000000900460ff1681565b6040519015158152602001610509565b6104ff60e15481565b6104f461057b36600461357d565b610bc2565b6104ff60df5481565b60d95461059c90600160a060020a031681565b604051600160a060020a039091168152602001610509565b6104ff60dd5481565b6104f46105cb3660046135b2565b610cb2565b6104f46105de3660046135b2565b610ce4565b6104ff6105f13660046135b2565b610cf0565b6106256106043660046135cb565b60e560209081526000928352604080842090915290825290205461ffff1681565b60405161ffff9091168152602001610509565b6104ff61271081565b6104f461064f3660046135b2565b610e7c565b6104ff60de5481565b6104f4610eae565b6104f4610ee8565b6104ff60e25481565b6104ff60e35481565b60cb5461059c906101009004600160a060020a031681565b6104f46106a53660046133fd565b610f24565b6104f46106b83660046133fd565b610f73565b6104f46106cb3660046133fd565b610fc2565b6104ff6106de3660046135b2565b611011565b6104f46106f13660046133fd565b611245565b6104f46107043660046133fd565b611294565b6104f461071736600461386a565b6112e3565b60975460ff16610554565b61059c610735366004613a22565b61170d565b60cd5461059c90600160a060020a031681565b6104f461075b3660046133fd565b611752565b6104f461076e3660046133fd565b6117a1565b6104ff610781366004613a63565b6117f0565b6104f4610794366004613a85565b6119cb565b60d05461059c90600160a060020a031681565b6104ff60e05481565b6104f46107c33660046133fd565b611ad3565b60d75461059c90600160a060020a031681565b6104f4611b22565b6104f46107f1366004613ac7565b611b59565b6104f46108043660046135cb565b611e4d565b60da5461059c90600160a060020a031681565b60d25461059c90600160a060020a031681565b6104f461083d366004613433565b611ea8565b6104f4611ee8565b6104ff60dc5481565b6104ff61232881565b60e85461059c90600160a060020a031681565b6104f461087d3660046133fd565b611f22565b603354600160a060020a031661059c565b6104f46108a13660046133fd565b611f71565b6104f46108b43660046133fd565b611fc0565b61059c6108c73660046133fd565b60e660205260009081526040902054600160a060020a031681565b60d55461059c90600160a060020a031681565b60cf5461059c90600160a060020a031681565b60e95461059c90600160a060020a031681565b60cc5461059c90600160a060020a031681565b60e9546106259060a060020a900461ffff1681565b60d65461059c90600160a060020a031681565b6104f46109643660046133fd565b61200f565b6104f46109773660046133fd565b61205e565b60d85461059c90600160a060020a031681565b6104f461099d3660046133fd565b6120ad565b6104f46109b03660046133fd565b612148565b6104f46109c33660046133fd565b612197565b6104f46109d63660046133fd565b6121e6565b60d35461059c90600160a060020a031681565b6104f46109fc366004613b02565b61227b565b6104ff610a0f366004613a63565b6122db565b6104f4610a223660046135b2565b612477565b60d45461059c90600160a060020a031681565b60d15461059c90600160a060020a031681565b6104f4610a5b3660046133fd565b612a51565b60db5461059c90600160a060020a031681565b60c9546105549060ff1681565b60cb546105549060ff1681565b6104ff60ca5481565b6104f4610aa43660046133fd565b612aa0565b60ce5461059c90600160a060020a031681565b603354600160a060020a03163314610af25760405160e560020a62461bcd028152600401610ae990613b1d565b60405180910390fd5b60d38054600160a060020a031916600160a060020a0392909216919091179055565b60cb546101009004600160a060020a03163314610b465760405160e560020a62461bcd028152600401610ae990613b52565b60cb805482151575010000000000000000000000000000000000000000000275ff000000000000000000000000000000000000000000199091161790556040517f125177ac7b8930dac1e59c2b30b1b6b9191b30af40cf6bbb5d20fec4d44be60f90610bb790831515815260200190565b60405180910390a150565b603354600160a060020a03163314610bef5760405160e560020a62461bcd028152600401610ae990613b1d565b600081600081518110610c0457610c04613b89565b6020026020010151905060008260018451610c1f9190613bbb565b81518110610c2f57610c2f613b89565b602090810291909101810151600160a060020a03808516600090815260e4845260408082209284168252918452208551919350610c719290919086019061335e565b509151600160a060020a03918216600090815260e56020908152604080832094909516825292909252919020805461ffff191661ffff909216919091179055565b603354600160a060020a03163314610cdf5760405160e560020a62461bcd028152600401610ae990613b1d565b60ca55565b610ced81612b55565b50565b60cc54600090600160a060020a031633600160a060020a031614610d295760405160e560020a62461bcd028152600401610ae990613bd2565b60026065541415610d4f5760405160e560020a62461bcd028152600401610ae990613c09565b600260655560975460ff1615610d7a5760405160e560020a62461bcd028152600401610ae990613c40565b60008211610dcd5760405160e560020a62461bcd02815260206004820152601e60248201527f57616e7420746f6b656e206465706f736974206d757374206265203e203000006044820152606401610ae9565b60d154610de590600160a060020a0316333085612bdf565b60e254829015801590610dfa5750600060e354115b15610e365761271060e254610e0f9190613c77565b60df5460e354610e1f9086613c77565b610e299190613c77565b610e339190613c96565b90505b8060e354610e449190613cbb565b60e35560cb5460ff1615610e5f57610e5a612c96565b610e71565b8260e254610e6d9190613cbb565b60e2555b600160655592915050565b603354600160a060020a03163314610ea95760405160e560020a62461bcd028152600401610ae990613b1d565b60e755565b60026065541415610ed45760405160e560020a62461bcd028152600401610ae990613c09565b6002606555610ee1612c96565b6001606555565b60cb546101009004600160a060020a03163314610f1a5760405160e560020a62461bcd028152600401610ae990613b52565b610f22612df6565b565b603354600160a060020a03163314610f515760405160e560020a62461bcd028152600401610ae990613b1d565b60d78054600160a060020a031916600160a060020a0392909216919091179055565b603354600160a060020a03163314610fa05760405160e560020a62461bcd028152600401610ae990613b1d565b60d58054600160a060020a031916600160a060020a0392909216919091179055565b603354600160a060020a03163314610fef5760405160e560020a62461bcd028152600401610ae990613b1d565b60e98054600160a060020a031916600160a060020a0392909216919091179055565b60cc54600090600160a060020a031633600160a060020a03161461104a5760405160e560020a62461bcd028152600401610ae990613bd2565b600260655414156110705760405160e560020a62461bcd028152600401610ae990613c09565b600260655560975460ff161561109b5760405160e560020a62461bcd028152600401610ae990613c40565b600082116110ee5760405160e560020a62461bcd02815260206004820152600760248201527f6e656757616e74000000000000000000000000000000000000000000000000006044820152606401610ae9565b60e25460e3546110fe9084613c77565b6111089190613c96565b905060e354811115611119575060e3545b8060e3546111279190613bbb565b60e35560e05461271011156111545761271060e054836111479190613c77565b6111519190613c96565b91505b60cb5460ff16156111685761116882612b55565b60d1546040517f70a08231000000000000000000000000000000000000000000000000000000008152306004820152600091600160a060020a0316906370a0823190602401602060405180830381865afa1580156111ca573d6000803e3d6000fd5b505050506040513d601f19601f820116820180604052508101906111ee9190613cd3565b9050808311156111fc578092505b8260e254101561120c5760e25492505b8260e25461121a9190613bbb565b60e25560cc5460d15461123a91600160a060020a03918216911685612e95565b506001606555919050565b603354600160a060020a031633146112725760405160e560020a62461bcd028152600401610ae990613b1d565b60cd8054600160a060020a031916600160a060020a0392909216919091179055565b603354600160a060020a031633146112c15760405160e560020a62461bcd028152600401610ae990613b1d565b60ce8054600160a060020a031916600160a060020a0392909216919091179055565b600054610100900460ff166112fe5760005460ff1615611302565b303b155b6113215760405160e560020a62461bcd028152600401610ae990613cec565b600054610100900460ff16158015611343576000805461ffff19166101011790555b815160ca5560208083015160c9805460ff191691151591909117905560408084015160cb80546060808801518051750100000000000000000000000000000000000000000074ffffffffffffffffffffffffffffffffffffffffff1990941695151574ffffffffffffffffffffffffffffffffffffffff00191695909517610100600160a060020a0396871681029190911775ff0000000000000000000000000000000000000000001916939093179093558286015160cc8054600160a060020a03199081169287169290921790558386015160cd805483169187169190911790558382015160ce8054831691871691909117905560808085015160cf8054841691881691909117905560a085015160d18054841691881691909117905560c085015160d28054841691881691909117905560e08086015160d3805485169189169190911790559385015160d4805484169188169190911790556101208086015160d58054851691891691909117905561014086015160d8805485169189169190911790556101608087015160d980548616918a169190911790556101808c015160e980546101a0808b015160da80548a16918e169190911790556101c08b015160db80548a16918e169190911790556101e0909a015160d680548916918d16919091179055928e015160e88054909716908b1617909555968c01519690971675ffffffffffffffffffffffffffffffffffffffffffff199097169690961760a060020a61ffff9096169590950294909417905592870151805160dc559485015160dd559284015160de559083015160df559182015190558201516115a790610bc2565b6115b48260a00151610bc2565b6115c18260c00151610bc2565b6115ce8260e00151610bc2565b6115dc826101000151610bc2565b60d05460c08301516040517f8b4c5aee00000000000000000000000000000000000000000000000000000000815261167092600160a060020a031691638b4c5aee9161162b9190600401613d49565b600060405180830381865afa158015611648573d6000803e3d6000fd5b505050506040513d6000823e601f3d908101601f1916820160405261057b9190810190613d96565b60d2546101408301515161168d91600160a060020a031690611e4d565b60d454610140830151604001516116ad91600160a060020a031690611e4d565b60db54610140830151608001516116cd91600160a060020a031690611e4d565b60d65461014083015160a001516116ed91600160a060020a031690611e4d565b6116f6836120ad565b8015611708576000805461ff00191690555b505050565b60e4602052826000526040600020602052816000526040600020818154811061173557600080fd5b600091825260209091200154600160a060020a0316925083915050565b603354600160a060020a0316331461177f5760405160e560020a62461bcd028152600401610ae990613b1d565b60d18054600160a060020a031916600160a060020a0392909216919091179055565b603354600160a060020a031633146117ce5760405160e560020a62461bcd028152600401610ae990613b1d565b60da8054600160a060020a031916600160a060020a0392909216919091179055565b60cc54600090600160a060020a031633600160a060020a0316146118295760405160e560020a62461bcd028152600401610ae990613bd2565b60975460ff161561184f5760405160e560020a62461bcd028152600401610ae990613c40565b60d05460d15461186c91600160a060020a03918216911685612ede565b60d054604080516101008101825260d654600160a060020a0390811680835260d2548216602080850182905260d15484168587015260e95484166060860152600082815260e68083528782205486166080880152848252825286812054851660a087015291825260e481528582209282529182528490208054855181840281018401909652808652929095169463f5c5575b9489949360c085019391929183018282801561194357602002820191906000526020600020905b8154600160a060020a03168152600190910190602001808311611925575b505050918352505060e95460a060020a900461ffff1660209091015260405163ffffffff841660e060020a0281526119819291908790600401613e66565b6020604051808303816000875af11580156119a0573d6000803e3d6000fd5b505050506040513d601f19601f820116820180604052508101906119c49190613cd3565b9392505050565b60cb546101009004600160a060020a031633146119fd5760405160e560020a62461bcd028152600401610ae990613b52565b60d454600160a060020a0384811691161415611a5e5760405160e560020a62461bcd02815260206004820152600560248201527f21736166650000000000000000000000000000000000000000000000000000006044820152606401610ae9565b60d154600160a060020a0384811691161415611abf5760405160e560020a62461bcd02815260206004820152600560248201527f21736166650000000000000000000000000000000000000000000000000000006044820152606401610ae9565b611708600160a060020a0384168284612e95565b603354600160a060020a03163314611b005760405160e560020a62461bcd028152600401610ae990613b1d565b60cf8054600160a060020a031916600160a060020a0392909216919091179055565b603354600160a060020a03163314611b4f5760405160e560020a62461bcd028152600401610ae990613b1d565b610f226000612fc2565b60cb546101009004600160a060020a03163314611b8b5760405160e560020a62461bcd028152600401610ae990613b52565b612328851015611be05760405160e560020a62461bcd02815260206004820152601a60248201527f5f656e7472616e6365466565466163746f7220746f6f206c6f770000000000006044820152606401610ae9565b612710851115611c355760405160e560020a62461bcd02815260206004820152601b60248201527f5f656e7472616e6365466565466163746f7220746f6f206869676800000000006044820152606401610ae9565b60df859055612328841015611c8f5760405160e560020a62461bcd02815260206004820152601a60248201527f5f7769746864726177466565466163746f7220746f6f206c6f770000000000006044820152606401610ae9565b612710841115611ce45760405160e560020a62461bcd02815260206004820152601b60248201527f5f7769746864726177466565466163746f7220746f6f206869676800000000006044820152606401610ae9565b60e08490556103e8831115611d3e5760405160e560020a62461bcd02815260206004820152601760248201527f5f636f6e74726f6c6c657246656520746f6f20686967680000000000000000006044820152606401610ae9565b60dc8390556103e8821115611d985760405160e560020a62461bcd02815260206004820152601560248201527f5f6275794261636b5261746520746f6f206869676800000000000000000000006044820152606401610ae9565b60dd8290556103e8811115611df25760405160e560020a62461bcd02815260206004820152601660248201527f5f72657653686172655261746520746f6f2068696768000000000000000000006044820152606401610ae9565b60de819055604080518681526020810186905290810184905260608101839052608081018290527fc67e0b149a57a70fa44a531a46c2c6d8e0b242fa12f459f250012c3a5987d29a9060a00160405180910390a15050505050565b603354600160a060020a03163314611e7a5760405160e560020a62461bcd028152600401610ae990613b1d565b600160a060020a03918216600090815260e6602052604090208054600160a060020a03191691909216179055565b603354600160a060020a03163314611ed55760405160e560020a62461bcd028152600401610ae990613b1d565b60cb805460ff1916911515919091179055565b60cb546101009004600160a060020a03163314611f1a5760405160e560020a62461bcd028152600401610ae990613b52565b610f22613014565b603354600160a060020a03163314611f4f5760405160e560020a62461bcd028152600401610ae990613b1d565b60d88054600160a060020a031916600160a060020a0392909216919091179055565b603354600160a060020a03163314611f9e5760405160e560020a62461bcd028152600401610ae990613b1d565b60e88054600160a060020a031916600160a060020a0392909216919091179055565b603354600160a060020a03163314611fed5760405160e560020a62461bcd028152600401610ae990613b1d565b60db8054600160a060020a031916600160a060020a0392909216919091179055565b603354600160a060020a0316331461203c5760405160e560020a62461bcd028152600401610ae990613b1d565b60d48054600160a060020a031916600160a060020a0392909216919091179055565b603354600160a060020a0316331461208b5760405160e560020a62461bcd028152600401610ae990613b1d565b60cc8054600160a060020a031916600160a060020a0392909216919091179055565b600054610100900460ff166120c85760005460ff16156120cc565b303b155b6120eb5760405160e560020a62461bcd028152600401610ae990613cec565b600054610100900460ff1615801561210d576000805461ffff19166101011790555b61211561306f565b61211e82612aa0565b60d78054600160a060020a03191661dead1790558015612144576000805461ff00191690555b5050565b603354600160a060020a031633146121755760405160e560020a62461bcd028152600401610ae990613b1d565b60d68054600160a060020a031916600160a060020a0392909216919091179055565b603354600160a060020a031633146121c45760405160e560020a62461bcd028152600401610ae990613b1d565b60d28054600160a060020a031916600160a060020a0392909216919091179055565b60cb546101009004600160a060020a031633146122185760405160e560020a62461bcd028152600401610ae990613b52565b60cb805474ffffffffffffffffffffffffffffffffffffffff001916610100600160a060020a038416908102919091179091556040519081527f91a8c1cc2d4a3bb60738481947a00cbb9899c822916694cf8bb1d68172fdcd5490602001610bb7565b603354600160a060020a031633146122a85760405160e560020a62461bcd028152600401610ae990613b1d565b60e9805461ffff90921660a060020a0275ffff000000000000000000000000000000000000000019909216919091179055565b60cc54600090600160a060020a031633600160a060020a0316146123145760405160e560020a62461bcd028152600401610ae990613bd2565b60975460ff161561233a5760405160e560020a62461bcd028152600401610ae990613c40565b60d05460d65461235791600160a060020a03918216911685612ede565b60d054604080516101208101825260d654600160a060020a0390811680835260d2548216602080850182905260ce5484168587015260d1548416606086015260e95484166080860152600082815260e680835287822054861660a0880152848252825286812054851660c087015292835260e4815285832091835290815290849020805485518184028101840190965280865292909516946312d8654b9489949360e085019391929183018282801561243957602002820191906000526020600020905b8154600160a060020a0316815260019091019060200180831161241b575b505050918352505060e95460a060020a900461ffff1660209091015260405163ffffffff841660e060020a0281526119819291908790600401613f38565b6002606554141561249d5760405160e560020a62461bcd028152600401610ae990613c09565b600260655560975460ff16156124c85760405160e560020a62461bcd028152600401610ae990613c40565b60cb5460ff1661251d5760405160e560020a62461bcd02815260206004820152600960248201527f216661726d61626c6500000000000000000000000000000000000000000000006044820152606401610ae9565b60cb547501000000000000000000000000000000000000000000900460ff16156125735760cb546101009004600160a060020a031633146125735760405160e560020a62461bcd028152600401610ae990613b52565b61257d6000612b55565b60d4546040517f70a08231000000000000000000000000000000000000000000000000000000008152306004820152600091600160a060020a0316906370a0823190602401602060405180830381865afa1580156125df573d6000803e3d6000fd5b505050506040513d601f19601f820116820180604052508101906126039190613cd3565b9050600081116126585760405160e560020a62461bcd02815260206004820152600560248201527f306561726e0000000000000000000000000000000000000000000000000000006044820152606401610ae9565b60d05460d45461267591600160a060020a03918216911683612ede565b60d054604080516102408101825260d454600160a060020a0390811680835260ce548216602080850182905260d85484168587015260d65484166060860181905260cf548516608087015260db54851660a0870181905260d154861660c0880152600085815260e680855289822054881660e08a01528582528085528982205488166101008a0152918152818452888120548716610120890152918252825286812054851661014087015292835260e4815285832091835290815284822080548651818402810184019097528087529296879694169463fdd5b2839489948b94929361016085019390919083018282801561279957602002820191906000526020600020905b8154600160a060020a0316815260019091019060200180831161277b575b505050918352505060d454600160a060020a03908116600090815260e46020908152604080832060db54909416835292815290829020805483518184028101840190945280845293820193909183018282801561281f57602002820191906000526020600020905b8154600160a060020a03168152600190910190602001808311612801575b505050918352505060d454600160a060020a03908116600090815260e46020908152604080832060d65490941683529281529082902080548351818402810184019094528084529382019390918301828280156128a557602002820191906000526020600020905b8154600160a060020a03168152600190910190602001808311612887575b5050505050815260200161271060dc546127106128c29190613c77565b6128cc9190613c96565b61ffff16815260200161271060dd546127106128e89190613c77565b6128f29190613c96565b61ffff16815260200161271060de5461271061290e9190613c77565b6129189190613c96565b61ffff16815260c95460ff16151560209091015260405160e060020a63ffffffff861602815261294d93929190600401614022565b6060604051808303816000875af115801561296c573d6000803e3d6000fd5b505050506040513d601f19601f820116820180604052508101906129909190614214565b925092505060008211806129a45750600081115b15612a3a5760cd5460ca546040517f464e3c8b0000000000000000000000000000000000000000000000000000000081526004810191909152602481018490526044810183905260648101869052600160a060020a039091169063464e3c8b90608401600060405180830381600087803b158015612a2157600080fd5b505af1158015612a35573d6000803e3d6000fd5b505050505b4360e155612a46612c96565b505060016065555050565b603354600160a060020a03163314612a7e5760405160e560020a62461bcd028152600401610ae990613b1d565b60d98054600160a060020a031916600160a060020a0392909216919091179055565b603354600160a060020a03163314612acd5760405160e560020a62461bcd028152600401610ae990613b1d565b600160a060020a038116612b4c5760405160e560020a62461bcd02815260206004820152602660248201527f4f776e61626c653a206e6577206f776e657220697320746865207a65726f206160448201527f64647265737300000000000000000000000000000000000000000000000000006064820152608401610ae9565b610ced81612fc2565b60d55460ca546040517f441a3e70000000000000000000000000000000000000000000000000000000008152600160a060020a039092169163441a3e7091612baa918590600401918252602082015260400190565b600060405180830381600087803b158015612bc457600080fd5b505af1158015612bd8573d6000803e3d6000fd5b5050505050565b604051600160a060020a0380851660248301528316604482015260648101829052612c909085907f23b872dd00000000000000000000000000000000000000000000000000000000906084015b60408051601f198184030181529190526020810180517bffffffffffffffffffffffffffffffffffffffffffffffffffffffff167fffffffff00000000000000000000000000000000000000000000000000000000909316929092179091526130a1565b50505050565b60cb5460ff16612ceb5760405160e560020a62461bcd02815260206004820152600960248201527f216661726d61626c6500000000000000000000000000000000000000000000006044820152606401610ae9565b60d1546040517f70a08231000000000000000000000000000000000000000000000000000000008152306004820152600091600160a060020a0316906370a0823190602401602060405180830381865afa158015612d4d573d6000803e3d6000fd5b505050506040513d601f19601f82011682018060405250810190612d719190613cd3565b90508060e254612d819190613cbb565b60e25560d55460d154612da191600160a060020a03918216911683612ede565b60d55460ca546040517fe2bbb158000000000000000000000000000000000000000000000000000000008152600160a060020a039092169163e2bbb15891612baa918590600401918252602082015260400190565b60975460ff16612e4b5760405160e560020a62461bcd02815260206004820152601460248201527f5061757361626c653a206e6f74207061757365640000000000000000000000006044820152606401610ae9565b6097805460ff191690557f5db9ee0a495bf2e6ff9c91a7834c1ba4fdd244a5e8aa4e537bd38aeae4b073aa335b604051600160a060020a03909116815260200160405180910390a1565b604051600160a060020a0383166024820152604481018290526117089084907fa9059cbb0000000000000000000000000000000000000000000000000000000090606401612c2c565b6040517fdd62ed3e000000000000000000000000000000000000000000000000000000008152306004820152600160a060020a038381166024830152600091839186169063dd62ed3e90604401602060405180830381865afa158015612f48573d6000803e3d6000fd5b505050506040513d601f19601f82011682018060405250810190612f6c9190613cd3565b612f769190613cbb565b604051600160a060020a038516602482015260448101829052909150612c909085907f095ea7b30000000000000000000000000000000000000000000000000000000090606401612c2c565b60338054600160a060020a03838116600160a060020a0319831681179093556040519116919082907f8be0079c531659141344cd1fd0a4f28419497f9722a3daafe3b4186f6b6457e090600090a35050565b60975460ff161561303a5760405160e560020a62461bcd028152600401610ae990613c40565b6097805460ff191660011790557f62e78cea01bee320cd4e420270b5ea74000d11b0c9f74754ebdbfc544b05a258612e783390565b600054610100900460ff166130995760405160e560020a62461bcd028152600401610ae990614242565b610f22613189565b60006130f6826040518060400160405280602081526020017f5361666545524332303a206c6f772d6c6576656c2063616c6c206661696c656481525085600160a060020a03166131bc9092919063ffffffff16565b8051909150156117085780806020019051810190613114919061429f565b6117085760405160e560020a62461bcd02815260206004820152602a60248201527f5361666545524332303a204552433230206f7065726174696f6e20646964206e60448201527f6f742073756363656564000000000000000000000000000000000000000000006064820152608401610ae9565b600054610100900460ff166131b35760405160e560020a62461bcd028152600401610ae990614242565b610f2233612fc2565b60606131cb84846000856131d3565b949350505050565b6060303183111561324f5760405160e560020a62461bcd02815260206004820152602660248201527f416464726573733a20696e73756666696369656e742062616c616e636520666f60448201527f722063616c6c00000000000000000000000000000000000000000000000000006064820152608401610ae9565b600160a060020a0385163b6132a95760405160e560020a62461bcd02815260206004820152601d60248201527f416464726573733a2063616c6c20746f206e6f6e2d636f6e74726163740000006044820152606401610ae9565b60008086600160a060020a031685876040516132c591906142e8565b60006040518083038185875af1925050503d8060008114613302576040519150601f19603f3d011682016040523d82523d6000602084013e613307565b606091505b5091509150613317828286613322565b979650505050505050565b606083156133315750816119c4565b8251156133415782518084602001fd5b8160405160e560020a62461bcd028152600401610ae99190614304565b8280548282559060005260206000209081019282156133b3579160200282015b828111156133b35782518254600160a060020a031916600160a060020a0390911617825560209092019160019091019061337e565b506133bf9291506133c3565b5090565b5b808211156133bf57600081556001016133c4565b600160a060020a0381168114610ced57600080fd5b80356133f8816133d8565b919050565b60006020828403121561340f57600080fd5b81356119c4816133d8565b8015158114610ced57600080fd5b80356133f88161341a565b60006020828403121561344557600080fd5b81356119c48161341a565b60e060020a634e487b7102600052604160045260246000fd5b604051610200810167ffffffffffffffff8111828210171561348d5761348d613450565b60405290565b6040516101c0810167ffffffffffffffff8111828210171561348d5761348d613450565b604051601f8201601f1916810167ffffffffffffffff811182821017156134e0576134e0613450565b604052919050565b600067ffffffffffffffff82111561350257613502613450565b5060209081020190565b600082601f83011261351d57600080fd5b8135602061353261352d836134e8565b6134b7565b8281529181028401810191818101908684111561354e57600080fd5b8286015b84811015613572578035613565816133d8565b8352918301918301613552565b509695505050505050565b60006020828403121561358f57600080fd5b813567ffffffffffffffff8111156135a657600080fd5b6131cb8482850161350c565b6000602082840312156135c457600080fd5b5035919050565b600080604083850312156135de57600080fd5b82356135e9816133d8565b915060208301356135f9816133d8565b809150509250929050565b6000610200828403121561361757600080fd5b61361f613469565b905061362a826133ed565b8152613638602083016133ed565b6020820152613649604083016133ed565b604082015261365a606083016133ed565b606082015261366b608083016133ed565b608082015261367c60a083016133ed565b60a082015261368d60c083016133ed565b60c082015261369e60e083016133ed565b60e08201526101006136b18184016133ed565b908201526101206136c38382016133ed565b908201526101406136d58382016133ed565b908201526101606136e78382016133ed565b908201526101806136f98382016133ed565b908201526101a061370b8382016133ed565b908201526101c061371d8382016133ed565b908201526101e061372f8382016133ed565b9082015292915050565b600060a0828403121561374b57600080fd5b60405160a0810181811067ffffffffffffffff8211171561376e5761376e613450565b806040525080915082358152602083013560208201526040830135604082015260608301356060820152608083013560808201525092915050565b600060c082840312156137bb57600080fd5b60405160c0810181811067ffffffffffffffff821117156137de576137de613450565b60405290508082356137ef816133d8565b815260208301356137ff816133d8565b60208201526040830135613812816133d8565b60408201526060830135613825816133d8565b60608201526080830135613838816133d8565b608082015260a083013561384b816133d8565b60a0919091015292915050565b803561ffff811681146133f857600080fd5b6000806040838503121561387d57600080fd5b8235613888816133d8565b9150602083013567ffffffffffffffff808211156138a557600080fd5b908401906104c082870312156138ba57600080fd5b6138c2613493565b823581526138d260208401613428565b60208201526138e360408401613428565b60408201526138f58760608501613604565b60608201526102608301358281111561390d57600080fd5b6139198882860161350c565b6080830152506102808301358281111561393257600080fd5b61393e8882860161350c565b60a0830152506102a08301358281111561395757600080fd5b6139638882860161350c565b60c0830152506102c08301358281111561397c57600080fd5b6139888882860161350c565b60e0830152506102e0830135828111156139a157600080fd5b6139ad8882860161350c565b610100830152506139c2876103008501613739565b6101208201526139d6876103a085016137a9565b6101408201526139e961046084016133ed565b6101608201526139fc61048084016133ed565b610180820152613a0f6104a08401613858565b6101a08201528093505050509250929050565b600080600060608486031215613a3757600080fd5b8335613a42816133d8565b92506020840135613a52816133d8565b929592945050506040919091013590565b60008060408385031215613a7657600080fd5b50508035926020909101359150565b600080600060608486031215613a9a57600080fd5b8335613aa5816133d8565b9250602084013591506040840135613abc816133d8565b809150509250925092565b600080600080600060a08688031215613adf57600080fd5b505083359560208501359550604085013594606081013594506080013592509050565b600060208284031215613b1457600080fd5b6119c482613858565b6020808252818101527f4f776e61626c653a2063616c6c6572206973206e6f7420746865206f776e6572604082015260600190565b60208082526004908201527f21676f7600000000000000000000000000000000000000000000000000000000604082015260600190565b60e060020a634e487b7102600052603260045260246000fd5b60e060020a634e487b7102600052601160045260246000fd5b600082821015613bcd57613bcd613ba2565b500390565b60208082526010908201527f217a6f72726f436f6e74726f6c6c657200000000000000000000000000000000604082015260600190565b6020808252601f908201527f5265656e7472616e637947756172643a207265656e7472616e742063616c6c00604082015260600190565b60208082526010908201527f5061757361626c653a2070617573656400000000000000000000000000000000604082015260600190565b6000816000190483118215151615613c9157613c91613ba2565b500290565b600082613cb65760e060020a634e487b7102600052601260045260246000fd5b500490565b60008219821115613cce57613cce613ba2565b500190565b600060208284031215613ce557600080fd5b5051919050565b6020808252602e908201527f496e697469616c697a61626c653a20636f6e747261637420697320616c72656160408201527f647920696e697469616c697a6564000000000000000000000000000000000000606082015260800190565b6020808252825182820181905260009190848201906040850190845b81811015613d8a578351600160a060020a031683529284019291840191600101613d65565b50909695505050505050565b60006020808385031215613da957600080fd5b825167ffffffffffffffff811115613dc057600080fd5b8301601f81018513613dd157600080fd5b8051613ddf61352d826134e8565b81815290830282018301908381019087831115613dfb57600080fd5b928401925b82841015613317578351613e13816133d8565b82529284019290840190613e00565b600081518084526020808501945080840160005b83811015613e5b578151600160a060020a031687529582019590820190600101613e36565b509495945050505050565b838152606060208201526000600160a060020a03808551166060840152806020860151166080840152506040840151613eaa60a0840182600160a060020a03169052565b506060840151600160a060020a03811660c0840152506080840151600160a060020a03811660e08401525060a0840151610100613ef181850183600160a060020a03169052565b60c086015191508061012085015250613f0e610160840182613e22565b905060e0850151613f2661014085018261ffff169052565b50604092909201929092529392505050565b83815260606020820152613f58606082018451600160a060020a03169052565b60006020840151613f746080840182600160a060020a03169052565b506040840151600160a060020a03811660a0840152506060840151600160a060020a03811660c0840152506080840151600160a060020a03811660e08401525060a0840151610100613fd081850183600160a060020a03169052565b60c08601519150610120613fee81860184600160a060020a03169052565b60e08701519250806101408601525061400b610180850183613e22565b9086015161ffff8116610160860152909150613f26565b83815282602082015260606040820152614048606082018351600160a060020a03169052565b600060208301516140646080840182600160a060020a03169052565b506040830151600160a060020a03811660a0840152506060830151600160a060020a03811660c0840152506080830151600160a060020a03811660e08401525060a08301516101006140c081850183600160a060020a03169052565b60c085015191506101206140de81860184600160a060020a03169052565b60e086015192506101406140fc81870185600160a060020a03169052565b9186015192506101609161411a86840185600160a060020a03169052565b9086015192506101809061413886830185600160a060020a03169052565b86015192506101a061415486820185600160a060020a03169052565b82870151935061024092506101c083818801526141756102a0880186613e22565b9450828801519250605f196101e08189880301818a01526141968786613e22565b9650838a0151945061020093508189880301848a01526141b68786613e22565b9650828a0151945061022092506141d2838a018661ffff169052565b89015161ffff8116868a015293506141e79050565b9087015161ffff16610260870152860151801515610280870152915061420a9050565b5095945050505050565b60008060006060848603121561422957600080fd5b8351925060208401519150604084015190509250925092565b6020808252602b908201527f496e697469616c697a61626c653a20636f6e7472616374206973206e6f74206960408201527f6e697469616c697a696e67000000000000000000000000000000000000000000606082015260800190565b6000602082840312156142b157600080fd5b81516119c48161341a565b60005b838110156142d75781810151838201526020016142bf565b83811115612c905750506000910152565b600082516142fa8184602087016142bc565b9190910192915050565b60208152600082518060208401526143238160408501602087016142bc565b601f01601f1916919091016040019291505056fea26469706673582212209d0ac370c64f1e1ba5e538fe0c1ecdc5c01f3a36974b0d91d5e5a629a040260c64736f6c634300080a0033",
  "immutableReferences": {},
  "source": "// SPDX-License-Identifier: MIT\n\npragma solidity ^0.8.0;\n\nimport \"../VaultStargate.sol\";\n\nimport \"../../tokens/mocks/MockToken.sol\";\n\n// import \"../libraries/VaultLibrary.sol\";\n\ncontract MockVaultStargate is VaultStargate {\n    function unfarm(uint256 _wantAmt) public {\n        _unfarm(_wantAmt);\n    }\n}\n\ncontract MockStargateRouter is IStargateRouter, MockERC20Upgradeable {\n    using SafeERC20Upgradeable for IERC20Upgradeable;\n\n    address public burnAddress;\n    address public stargatePool;\n    address public asset;\n    uint256 private _dummy; // Satisfy compiler state mutability warnings\n\n    function setBurnAddress(address _burnAddress) public {\n        burnAddress = _burnAddress;\n    }\n\n    function setStargatePool(address _pool) public {\n        stargatePool = _pool;\n    }\n\n    function setAsset(address _token) public {\n        asset = _token;\n    }\n\n    event SwappedToken(\n        address indexed _dest,\n        uint256 indexed _amountIn,\n        uint256 indexed _amountOutMin\n    );\n\n    event AddedLiquidity(uint256 indexed _amount, uint256 indexed _liquidity);\n\n    event RemovedLiquidity(uint256 indexed _amount);\n\n    event SgSwapped(uint256 indexed _chainId, uint256 indexed _qty, bytes indexed _dstContract);\n\n    function addLiquidity(\n        uint256 _poolId,\n        uint256 _amountLD,\n        address _to\n    ) external {\n        // Reqs\n        require(_poolId >= 0);\n\n        // Transfer funds & burn\n        IERC20Upgradeable(asset).safeTransferFrom(\n            msg.sender,\n            burnAddress,\n            _amountLD\n        );\n\n        // Mint some LP token\n        uint256 _liquidity = 1 ether; // Hard code 1 token for simplicity\n        // Transfer LP token\n        IMockERC20Upgradeable(stargatePool).mint(_to, _liquidity);\n        // Log liquidity addition\n        emit AddedLiquidity(_amountLD, _liquidity);\n    }\n\n    function swap(\n        uint16 _dstChainId,\n        uint256 _srcPoolId,\n        uint256 _dstPoolId,\n        address payable _refundAddress,\n        uint256 _amountLD,\n        uint256 _minAmountLD,\n        lzTxObj memory _lzTxParams,\n        bytes calldata _to,\n        bytes calldata _payload\n    ) external payable {\n        // Reqs\n        require(_srcPoolId >= 0 && _dstPoolId >= 0);\n        require(_refundAddress != address(0));\n        require(_lzTxParams.dstGasForCall >= 0);\n        require(_payload.length >= 0);\n\n        // Transfer to burn\n        IERC20Upgradeable(asset).safeTransferFrom(msg.sender, burnAddress, _amountLD);\n        // Log\n        emit SgSwapped(_dstChainId, _minAmountLD, _to);\n    }\n\n    function redeemRemote(\n        uint16 _dstChainId,\n        uint256 _srcPoolId,\n        uint256 _dstPoolId,\n        address payable _refundAddress,\n        uint256 _amountLP,\n        uint256 _minAmountLD,\n        bytes calldata _to,\n        lzTxObj memory _lzTxParams\n    ) external payable {}\n\n    function instantRedeemLocal(\n        uint16 _srcPoolId,\n        uint256 _amountLP,\n        address _to\n    ) external returns (uint256) {\n        // Reqs\n        require(_srcPoolId >= 0);\n\n        // Safe transfer liquidity and burn\n        IERC20Upgradeable(stargatePool).safeTransferFrom(\n            msg.sender,\n            burnAddress,\n            _amountLP\n        );\n\n        // Mint asset token\n        uint256 _amount = 2 ether; // Hardcode for simplicity/testing\n        IMockERC20Upgradeable(asset).mint(_to, _amount);\n        // Log removed equidity\n        emit RemovedLiquidity(_amount);\n        // Return\n        return _amount;\n    }\n\n    function redeemLocal(\n        uint16 _dstChainId,\n        uint256 _srcPoolId,\n        uint256 _dstPoolId,\n        address payable _refundAddress,\n        uint256 _amountLP,\n        bytes calldata _to,\n        lzTxObj memory _lzTxParams\n    ) external payable {}\n\n    function sendCredits(\n        uint16 _dstChainId,\n        uint256 _srcPoolId,\n        uint256 _dstPoolId,\n        address payable _refundAddress\n    ) external payable {}\n\n    function quoteLayerZeroFee(\n        uint16 _dstChainId,\n        uint8 _functionType,\n        bytes calldata _toAddress,\n        bytes calldata _transferAndCallPayload,\n        lzTxObj memory _lzTxParams\n    ) external view returns (uint256, uint256) {\n        // Reqs\n        require(_dstChainId >= 0 && _functionType >= 0);\n        require(_toAddress.length >= 0 && _transferAndCallPayload.length >= 0);\n        require(_lzTxParams.dstGasForCall >= 0);\n        require(_dummy >= 0);\n\n        return (0.01 ether, 0.02 ether); // Hardcoded for tests\n    }\n}\n\ncontract MockStargatePool is MockERC20Upgradeable {}\n\ncontract MockStargateLPStaking is IStargateLPStaking {\n    using SafeERC20Upgradeable for IERC20Upgradeable;\n\n    event Deposited(address indexed _want, uint256 indexed _amount);\n    event Withdrew(address indexed _want, uint256 indexed _amount);\n\n    address public burnAddress;\n    address public wantToken;\n\n    function setWantAddress(address _wantToken) public {\n        wantToken = _wantToken;\n    }\n\n    function setBurnAddress(address _burnAddress) public {\n        burnAddress = _burnAddress;\n    }\n\n    function deposit(uint256 _pid, uint256 _amount) external {\n        // Reqs\n        require(_pid >= 0);\n\n        IERC20Upgradeable(wantToken).safeTransferFrom(msg.sender, burnAddress, _amount);\n        emit Deposited(wantToken, _amount);        \n    }\n\n    function withdraw(uint256 _pid, uint256 _amount) external {\n        // Reqs\n        require(_pid >= 0);\n\n        IMockERC20Upgradeable(wantToken).mint(msg.sender, _amount);\n        emit Withdrew(wantToken, _amount);\n    }\n}\n\ncontract MockSTGToken is MockERC20Upgradeable {}",
  "sourcePath": "/Users/kristophm/Documents/workspace/zorro-protocol/contracts/vaults/mocks/MockVaultStargate.sol",
  "compiler": {
    "name": "solc",
    "version": "0.8.10+commit.fc410830.Emscripten.clang"
  },
  "schemaVersion": "3.4.10",
  "updatedAt": "2022-11-26T00:05:47.243Z",
  "devdoc": {
    "kind": "dev",
    "methods": {
      "depositWantToken(uint256)": {
        "params": {
          "_wantAmt": "amount of Want token to deposit/stake"
        },
        "returns": {
          "_0": "uint256 Number of shares added"
        }
      },
      "earn(uint256)": {
        "params": {
          "_maxMarketMovementAllowed": "The max slippage allowed. 1000 = 0 %, 995 = 0.5%, etc."
        }
      },
      "exchangeUSDForWantToken(uint256,uint256)": {
        "params": {
          "_amountUSD": "The USD quantity to exchange (must already be deposited)",
          "_maxMarketMovementAllowed": "The max slippage allowed. 1000 = 0 %, 995 = 0.5%, etc."
        },
        "returns": {
          "_0": "uint256 Amount of Want token obtained"
        }
      },
      "exchangeWantTokenForUSD(uint256,uint256)": {
        "params": {
          "_amount": "The Want token quantity to exchange (must be deposited beforehand)",
          "_maxMarketMovementAllowed": "The max slippage allowed for swaps. 1000 = 0 %, 995 = 0.5%, etc."
        },
        "returns": {
          "_0": "uint256 Amount of USD token obtained"
        }
      },
      "inCaseTokensGetStuck(address,uint256,address)": {
        "params": {
          "_amount": "The amount of the tokens to transfer",
          "_to": "The address to transfer tokens to",
          "_token": "Address of the ERC20 token to transfer"
        }
      },
      "initialize(address,(uint256,bool,bool,(address,address,address,address,address,address,address,address,address,address,address,address,address,address,address,address),address[],address[],address[],address[],address[],(uint256,uint256,uint256,uint256,uint256),(address,address,address,address,address,address),address,address,uint16))": {
        "params": {
          "_initValue": "A VaultStargateInit struct containing all init values",
          "_timelockOwner": "The designated timelock controller address to act as owner"
        }
      },
      "owner()": {
        "details": "Returns the address of the current owner."
      },
      "paused()": {
        "details": "Returns true if the contract is paused, and false otherwise."
      },
      "renounceOwnership()": {
        "details": "Leaves the contract without owner. It will not be possible to call `onlyOwner` functions anymore. Can only be called by the current owner. NOTE: Renouncing ownership will leave the contract without an owner, thereby removing any functionality that is only available to the owner."
      },
      "setFeeSettings(uint256,uint256,uint256,uint256,uint256)": {
        "params": {
          "_buyBackRate": "Buy back rate fee numerator",
          "_controllerFee": "Controller fee numerator",
          "_entranceFeeFactor": "Entrance fee numerator (higher means smaller percentage)",
          "_revShareRate": "Rev share rate fee numerator",
          "_withdrawFeeFactor": "Withdrawal fee numerator (higher means smaller percentage)"
        }
      },
      "setGov(address)": {
        "params": {
          "_govAddress": "The new gov address"
        }
      },
      "setOnlyGov(bool)": {
        "params": {
          "_onlyGov": "whether onlyGov should be enforced"
        }
      },
      "transferOwnership(address)": {
        "details": "Transfers ownership of the contract to a new account (`newOwner`). Can only be called by the current owner."
      },
      "withdrawWantToken(uint256)": {
        "params": {
          "_wantAmt": "The amount of Want token to withdraw"
        },
        "returns": {
          "sharesRemoved": "The number of shares removed"
        }
      }
    },
    "version": 1
  },
  "userdoc": {
    "kind": "user",
    "methods": {
      "depositWantToken(uint256)": {
        "notice": "Receives new deposits from user"
      },
      "earn(uint256)": {
        "notice": "The main compounding (earn) function. Reinvests profits since the last earn event."
      },
      "exchangeUSDForWantToken(uint256,uint256)": {
        "notice": "Performs necessary operations to convert USD into Want token"
      },
      "exchangeWantTokenForUSD(uint256,uint256)": {
        "notice": "Converts Want token back into USD to be ready for withdrawal and transfers to sender"
      },
      "farm()": {
        "notice": "Public function for farming Want token."
      },
      "inCaseTokensGetStuck(address,uint256,address)": {
        "notice": "Safely transfer ERC20 tokens stuck in this contract to a specified address"
      },
      "initialize(address,(uint256,bool,bool,(address,address,address,address,address,address,address,address,address,address,address,address,address,address,address,address),address[],address[],address[],address[],address[],(uint256,uint256,uint256,uint256,uint256),(address,address,address,address,address,address),address,address,uint16))": {
        "notice": "Upgradeable constructor"
      },
      "pause()": {
        "notice": "Pause contract"
      },
      "setFeeSettings(uint256,uint256,uint256,uint256,uint256)": {
        "notice": "Configure key fee parameters"
      },
      "setGov(address)": {
        "notice": "Set governor address"
      },
      "setOnlyGov(bool)": {
        "notice": "Set onlyGov property"
      },
      "unpause()": {
        "notice": "Unpause contract"
      },
      "withdrawWantToken(uint256)": {
        "notice": "Fully withdraw Want tokens from the Farm contract (100% withdrawals only)"
      }
    },
    "version": 1
  }
}