{
  "contractName": "MockApeLendingRainMaker",
  "abi": [
    {
      "inputs": [
        {
          "internalType": "address",
          "name": "holder",
          "type": "address"
        }
      ],
      "name": "claimComp",
      "outputs": [],
      "stateMutability": "nonpayable",
      "type": "function"
    }
  ],
  "bytecode": "0x608060405234801561001057600080fd5b5060ca8061001f6000396000f3fe6080604052348015600f57600080fd5b50600436106044577c01000000000000000000000000000000000000000000000000000000006000350463e9af029281146049575b600080fd5b605760543660046059565b50565b005b600060208284031215606a57600080fd5b813573ffffffffffffffffffffffffffffffffffffffff81168114608d57600080fd5b939250505056fea2646970667358221220472417eda81c2ecfe0b880e0042b389d89bee3015e1e90caada461c4a84374e164736f6c634300080a0033",
  "immutableReferences": {},
  "source": "// SPDX-License-Identifier: MIT\n\npragma solidity ^0.8.0;\n\nimport \"../VaultApeLending.sol\";\n\nimport \"../../interfaces/Lending/ILendingToken.sol\";\n\nimport \"../../interfaces/ApeLending/IRainMaker.sol\";\n\nimport \"../../interfaces/ApeLending/IUnitroller.sol\";\n\ncontract MockVaultApeLending is VaultApeLending {\n    // TODO: fill in necessary methods to be able to run tests\n}\n\ncontract MockApeLendingRainMaker is IRainMaker {\n    function claimComp(address holder) external {\n\n    }\n}\n\ncontract MockApeLendingUnitroller is IUnitrollerApeLending {\n    function markets ( address ) external view returns ( bool isListed, uint256 collateralFactorMantissa, uint256 liquidationFactorMantissa, uint256 liquidationIncentiveMantissa, uint256 activeCollateralUSDCap, uint256 activeCollateralCTokenUsage) {\n\n    }\n}\n",
  "sourcePath": "/Users/kristophm/Documents/workspace/zorro-protocol/contracts/vaults/mocks/MockVaultApeLending.sol",
  "compiler": {
    "name": "solc",
    "version": "0.8.10+commit.fc410830.Emscripten.clang"
  },
  "schemaVersion": "3.4.10",
  "updatedAt": "2022-11-24T02:03:38.497Z",
  "devdoc": {
    "kind": "dev",
    "methods": {},
    "version": 1
  },
  "userdoc": {
    "kind": "user",
    "methods": {},
    "version": 1
  }
}