{
  "contractName": "MockVaultFactoryStandardAMM",
  "abi": [
    {
      "anonymous": false,
      "inputs": [
        {
          "indexed": true,
          "internalType": "address",
          "name": "previousOwner",
          "type": "address"
        },
        {
          "indexed": true,
          "internalType": "address",
          "name": "newOwner",
          "type": "address"
        }
      ],
      "name": "OwnershipTransferred",
      "type": "event"
    },
    {
      "inputs": [
        {
          "internalType": "address",
          "name": "_timelockOwner",
          "type": "address"
        },
        {
          "components": [
            {
              "internalType": "uint256",
              "name": "pid",
              "type": "uint256"
            },
            {
              "internalType": "bool",
              "name": "isHomeChain",
              "type": "bool"
            },
            {
              "components": [
                {
                  "internalType": "address",
                  "name": "govAddress",
                  "type": "address"
                },
                {
                  "internalType": "address",
                  "name": "zorroControllerAddress",
                  "type": "address"
                },
                {
                  "internalType": "address",
                  "name": "ZORROAddress",
                  "type": "address"
                },
                {
                  "internalType": "address",
                  "name": "zorroStakingVault",
                  "type": "address"
                },
                {
                  "internalType": "address",
                  "name": "wantAddress",
                  "type": "address"
                },
                {
                  "internalType": "address",
                  "name": "token0Address",
                  "type": "address"
                },
                {
                  "internalType": "address",
                  "name": "token1Address",
                  "type": "address"
                },
                {
                  "internalType": "address",
                  "name": "earnedAddress",
                  "type": "address"
                },
                {
                  "internalType": "address",
                  "name": "farmContractAddress",
                  "type": "address"
                },
                {
                  "internalType": "address",
                  "name": "rewardsAddress",
                  "type": "address"
                },
                {
                  "internalType": "address",
                  "name": "poolAddress",
                  "type": "address"
                },
                {
                  "internalType": "address",
                  "name": "uniRouterAddress",
                  "type": "address"
                },
                {
                  "internalType": "address",
                  "name": "zorroLPPool",
                  "type": "address"
                },
                {
                  "internalType": "address",
                  "name": "zorroLPPoolOtherToken",
                  "type": "address"
                },
                {
                  "internalType": "address",
                  "name": "tokenUSDCAddress",
                  "type": "address"
                }
              ],
              "internalType": "struct VaultBase.VaultAddresses",
              "name": "keyAddresses",
              "type": "tuple"
            },
            {
              "internalType": "address[]",
              "name": "earnedToZORROPath",
              "type": "address[]"
            },
            {
              "internalType": "address[]",
              "name": "earnedToToken0Path",
              "type": "address[]"
            },
            {
              "internalType": "address[]",
              "name": "earnedToToken1Path",
              "type": "address[]"
            },
            {
              "internalType": "address[]",
              "name": "USDCToToken0Path",
              "type": "address[]"
            },
            {
              "internalType": "address[]",
              "name": "USDCToToken1Path",
              "type": "address[]"
            },
            {
              "internalType": "address[]",
              "name": "earnedToZORLPPoolOtherTokenPath",
              "type": "address[]"
            },
            {
              "internalType": "address[]",
              "name": "earnedToUSDCPath",
              "type": "address[]"
            },
            {
              "components": [
                {
                  "internalType": "uint256",
                  "name": "controllerFee",
                  "type": "uint256"
                },
                {
                  "internalType": "uint256",
                  "name": "buyBackRate",
                  "type": "uint256"
                },
                {
                  "internalType": "uint256",
                  "name": "revShareRate",
                  "type": "uint256"
                },
                {
                  "internalType": "uint256",
                  "name": "entranceFeeFactor",
                  "type": "uint256"
                },
                {
                  "internalType": "uint256",
                  "name": "withdrawFeeFactor",
                  "type": "uint256"
                }
              ],
              "internalType": "struct VaultBase.VaultFees",
              "name": "fees",
              "type": "tuple"
            },
            {
              "components": [
                {
                  "internalType": "address",
                  "name": "token0PriceFeed",
                  "type": "address"
                },
                {
                  "internalType": "address",
                  "name": "token1PriceFeed",
                  "type": "address"
                },
                {
                  "internalType": "address",
                  "name": "earnTokenPriceFeed",
                  "type": "address"
                },
                {
                  "internalType": "address",
                  "name": "ZORPriceFeed",
                  "type": "address"
                },
                {
                  "internalType": "address",
                  "name": "lpPoolOtherTokenPriceFeed",
                  "type": "address"
                }
              ],
              "internalType": "struct VaultBase.VaultPriceFeeds",
              "name": "priceFeeds",
              "type": "tuple"
            }
          ],
          "internalType": "struct VaultStandardAMM.VaultStandardAMMInit",
          "name": "_initValue",
          "type": "tuple"
        }
      ],
      "name": "createVault",
      "outputs": [],
      "stateMutability": "nonpayable",
      "type": "function"
    },
    {
      "inputs": [
        {
          "internalType": "uint256",
          "name": "",
          "type": "uint256"
        }
      ],
      "name": "deployedVaults",
      "outputs": [
        {
          "internalType": "contract VaultStandardAMM",
          "name": "",
          "type": "address"
        }
      ],
      "stateMutability": "view",
      "type": "function",
      "constant": true
    },
    {
      "inputs": [
        {
          "internalType": "address",
          "name": "_masterVault",
          "type": "address"
        }
      ],
      "name": "initialize",
      "outputs": [],
      "stateMutability": "nonpayable",
      "type": "function"
    },
    {
      "inputs": [],
      "name": "masterVault",
      "outputs": [
        {
          "internalType": "address",
          "name": "",
          "type": "address"
        }
      ],
      "stateMutability": "view",
      "type": "function",
      "constant": true
    },
    {
      "inputs": [],
      "name": "numVaults",
      "outputs": [
        {
          "internalType": "uint256",
          "name": "",
          "type": "uint256"
        }
      ],
      "stateMutability": "view",
      "type": "function",
      "constant": true
    },
    {
      "inputs": [],
      "name": "owner",
      "outputs": [
        {
          "internalType": "address",
          "name": "",
          "type": "address"
        }
      ],
      "stateMutability": "view",
      "type": "function",
      "constant": true
    },
    {
      "inputs": [],
      "name": "renounceOwnership",
      "outputs": [],
      "stateMutability": "nonpayable",
      "type": "function"
    },
    {
      "inputs": [
        {
          "internalType": "address",
          "name": "newOwner",
          "type": "address"
        }
      ],
      "name": "transferOwnership",
      "outputs": [],
      "stateMutability": "nonpayable",
      "type": "function"
    }
  ],
  "bytecode": "0x608060405234801561001057600080fd5b50610e53806100206000396000f3fe608060405234801561001057600080fd5b50600436106100885760003560e01c80638c9adbef1161005b5780638c9adbef146100eb5780638da5cb5b146100fe578063c4d66de81461010f578063f2fde38b1461012257600080fd5b80630ac214df1461008d578063264a6208146100bd5780633b7e3775146100ce578063715018a6146100e1575b600080fd5b6100a061009b366004610559565b610135565b6040516001600160a01b0390911681526020015b60405180910390f35b6065546040519081526020016100b4565b6066546100a0906001600160a01b031681565b6100e961015f565b005b6100e96100f93660046108a4565b61019e565b6033546001600160a01b03166100a0565b6100e961011d366004610a5b565b610298565b6100e9610130366004610a5b565b610375565b6065818154811061014557600080fd5b6000918252602090912001546001600160a01b0316905081565b6033546001600160a01b031633146101925760405162461bcd60e51b815260040161018990610a7d565b60405180910390fd5b61019c6000610410565b565b6033546001600160a01b031633146101c85760405162461bcd60e51b815260040161018990610a7d565b6066546000906101e0906001600160a01b0316610462565b6040516319cae7eb60e11b81529091506001600160a01b03821690633395cfd6906102119086908690600401610c27565b600060405180830381600087803b15801561022b57600080fd5b505af115801561023f573d6000803e3d6000fd5b5050606580546001810182556000919091527f8ff97419363ffd7000167f130ef7168fbea05faf9251824ca5043f113cc6a7c70180546001600160a01b0319166001600160a01b03949094169390931790925550505050565b600054610100900460ff166102b35760005460ff16156102b7565b303b155b61031a5760405162461bcd60e51b815260206004820152602e60248201527f496e697469616c697a61626c653a20636f6e747261637420697320616c72656160448201526d191e481a5b9a5d1a585b1a5e995960921b6064820152608401610189565b600054610100900460ff1615801561033c576000805461ffff19166101011790555b606680546001600160a01b0319166001600160a01b03841617905561035f6104ff565b8015610371576000805461ff00191690555b5050565b6033546001600160a01b0316331461039f5760405162461bcd60e51b815260040161018990610a7d565b6001600160a01b0381166104045760405162461bcd60e51b815260206004820152602660248201527f4f776e61626c653a206e6577206f776e657220697320746865207a65726f206160448201526564647265737360d01b6064820152608401610189565b61040d81610410565b50565b603380546001600160a01b038381166001600160a01b0319831681179093556040519116919082907f8be0079c531659141344cd1fd0a4f28419497f9722a3daafe3b4186f6b6457e090600090a35050565b6000604051733d602d80600a3d3981f3363d3d373d3d3d363d7360601b81528260601b60148201526e5af43d82803e903d91602b57fd5bf360881b60288201526037816000f09150506001600160a01b0381166104fa5760405162461bcd60e51b8152602060048201526016602482015275115490cc4c4d8dce8818dc99585d194819985a5b195960521b6044820152606401610189565b919050565b600054610100900460ff166105265760405162461bcd60e51b815260040161018990610dd2565b61019c600054610100900460ff166105505760405162461bcd60e51b815260040161018990610dd2565b61019c33610410565b60006020828403121561056b57600080fd5b5035919050565b80356001600160a01b03811681146104fa57600080fd5b634e487b7160e01b600052604160045260246000fd5b6040516101e0810167ffffffffffffffff811182821017156105c3576105c3610589565b60405290565b60405160a0810167ffffffffffffffff811182821017156105c3576105c3610589565b604051610180810167ffffffffffffffff811182821017156105c3576105c3610589565b803580151581146104fa57600080fd5b60006101e0828403121561063357600080fd5b61063b61059f565b905061064682610572565b815261065460208301610572565b602082015261066560408301610572565b604082015261067660608301610572565b606082015261068760808301610572565b608082015261069860a08301610572565b60a08201526106a960c08301610572565b60c08201526106ba60e08301610572565b60e08201526101006106cd818401610572565b908201526101206106df838201610572565b908201526101406106f1838201610572565b90820152610160610703838201610572565b90820152610180610715838201610572565b908201526101a0610727838201610572565b908201526101c0610739838201610572565b9082015292915050565b600082601f83011261075457600080fd5b8135602067ffffffffffffffff8083111561077157610771610589565b8260051b604051601f19603f8301168101818110848211171561079657610796610589565b6040529384528581018301938381019250878511156107b457600080fd5b83870191505b848210156107da576107cb82610572565b835291830191908301906107ba565b979650505050505050565b600060a082840312156107f757600080fd5b6107ff6105c9565b9050813581526020820135602082015260408201356040820152606082013560608201526080820135608082015292915050565b600060a0828403121561084557600080fd5b61084d6105c9565b905061085882610572565b815261086660208301610572565b602082015261087760408301610572565b604082015261088860608301610572565b606082015261089960808301610572565b608082015292915050565b600080604083850312156108b757600080fd5b6108c083610572565b9150602083013567ffffffffffffffff808211156108dd57600080fd5b9084019061044082870312156108f257600080fd5b6108fa6105ec565b8235815261090a60208401610610565b602082015261091c8760408501610620565b60408201526102208301358281111561093457600080fd5b61094088828601610743565b6060830152506102408301358281111561095957600080fd5b61096588828601610743565b6080830152506102608301358281111561097e57600080fd5b61098a88828601610743565b60a083015250610280830135828111156109a357600080fd5b6109af88828601610743565b60c0830152506102a0830135828111156109c857600080fd5b6109d488828601610743565b60e0830152506102c0830135828111156109ed57600080fd5b6109f988828601610743565b610100830152506102e083013582811115610a1357600080fd5b610a1f88828601610743565b61012083015250610a348761030085016107e5565b610140820152610a48876103a08501610833565b6101608201528093505050509250929050565b600060208284031215610a6d57600080fd5b610a7682610572565b9392505050565b6020808252818101527f4f776e61626c653a2063616c6c6572206973206e6f7420746865206f776e6572604082015260600190565b80516001600160a01b031682526020810151610ad960208401826001600160a01b03169052565b506040810151610af460408401826001600160a01b03169052565b506060810151610b0f60608401826001600160a01b03169052565b506080810151610b2a60808401826001600160a01b03169052565b5060a0810151610b4560a08401826001600160a01b03169052565b5060c0810151610b6060c08401826001600160a01b03169052565b5060e0810151610b7b60e08401826001600160a01b03169052565b50610100818101516001600160a01b0390811691840191909152610120808301518216908401526101408083015182169084015261016080830151821690840152610180808301518216908401526101a0808301518216908401526101c09182015116910152565b600081518084526020808501945080840160005b83811015610c1c5781516001600160a01b031687529582019590820190600101610bf7565b509495945050505050565b60018060a01b0383168152604060208201528151604082015260006020830151610c55606084018215159052565b506040830151610c686080840182610ab2565b506060830151610440610260840152610c85610480840182610be3565b90506080840151603f198085840301610280860152610ca48383610be3565b925060a0860151915080858403016102a0860152610cc28383610be3565b925060c0860151915080858403016102c0860152610ce08383610be3565b925060e0860151915080858403016102e0860152610cfe8383610be3565b925061010086015191508085840301610300860152610d1d8383610be3565b92506101208601519150808584030161032086015250610d3d8282610be3565b61014086015180516103408701526020810151610360870152604081015161038087015260608101516103a087015260808101516103c087015290925090505061016084015180516001600160a01b039081166103e086015260208201518116610400860152604082015181166104208601526060820151811661044086015260808201511661046085015250949350505050565b6020808252602b908201527f496e697469616c697a61626c653a20636f6e7472616374206973206e6f74206960408201526a6e697469616c697a696e6760a81b60608201526080019056fea26469706673582212205c1f1312061691400f53992259aab2737ef82d45359727d8c316248ec9d1575d64736f6c634300080a0033",
  "immutableReferences": {},
  "source": "// SPDX-License-Identifier: MIT\n\npragma solidity ^0.8.0;\n\nimport \"../VaultStandardAMM.sol\";\n\nimport \"@openzeppelin/contracts-upgradeable/token/ERC20/ERC20Upgradeable.sol\";\n\nimport \"../../tokens/mocks/MockToken.sol\";\n\ncontract MockVaultFactoryStandardAMM is VaultFactoryStandardAMM {}\n\ncontract MockVaultStandardAMM is VaultStandardAMM {\n    function reversePath(address[] memory _path)\n        public\n        pure\n        returns (address[] memory)\n    {\n        return _reversePath(_path);\n    }\n\n    function unfarm(uint256 _wantAmt) public {\n        _unfarm(_wantAmt);\n    }\n\n    function swapEarnedToUSDC(\n        uint256 _earnedAmount,\n        address _destination,\n        uint256 _maxMarketMovementAllowed,\n        ExchangeRates memory _rates\n    ) public {\n        _swapEarnedToUSDC(_earnedAmount, _destination, _maxMarketMovementAllowed, _rates);\n    }\n\n    function revShareOnChain(\n        uint256 _amount,\n        uint256 _maxMarketMovementAllowed,\n        ExchangeRates memory _rates\n    ) public {\n        _revShareOnChain(_amount, _maxMarketMovementAllowed, _rates);\n    }\n\n    function buybackOnChain(\n        uint256 _amount,\n        uint256 _maxMarketMovementAllowed,\n        ExchangeRates memory _rates\n    ) public {\n        _buybackOnChain(_amount, _maxMarketMovementAllowed, _rates);\n    }\n}\n\ncontract MockAMMFarm is IAMMFarm, MockERC20Upgradeable {\n    using SafeERC20Upgradeable for IERC20Upgradeable;\n\n    address public burnAddress;\n    address public wantToken;\n\n    function setWantAddress(address _wantToken) public {\n        wantToken = _wantToken;\n    }\n\n    function setBurnAddress(address _burnAddress) public {\n        burnAddress = _burnAddress;\n    }\n\n    function poolLength() external view returns (uint256) {}\n\n    function userInfo() external view returns (uint256) {}\n\n    // Return reward multiplier over the given _from to _to block.\n    function getMultiplier(uint256 _from, uint256 _to)\n        external\n        view\n        returns (uint256)\n    {}\n\n    // View function to see pending CAKEs on frontend.\n    function pendingCake(uint256 _pid, address _user)\n        external\n        view\n        returns (uint256)\n    {}\n\n    event Deposited(uint256 indexed _pid, uint256 indexed _amount);\n\n    // Deposit LP tokens to MasterChef for CAKE allocation.\n    function deposit(uint256 _pid, uint256 _amount) external {\n        IERC20Upgradeable(wantToken).safeTransferFrom(msg.sender, burnAddress, _amount);\n        emit Deposited(_pid, _amount);\n    }\n\n    event Withdrew(uint256 indexed _pid, uint256 indexed _amount);\n\n    // Withdraw LP tokens from MasterChef.\n    function withdraw(uint256 _pid, uint256 _amount) external {\n        IMockERC20Upgradeable(wantToken).mint(msg.sender, _amount);\n        emit Withdrew(_pid, _amount);\n    }\n\n    // Stake CAKE tokens to MasterChef\n    function enterStaking(uint256 _amount) external {}\n\n    // Withdraw CAKE tokens from STAKING.\n    function leaveStaking(uint256 _amount) external {}\n\n    // Withdraw without caring about rewards. EMERGENCY ONLY.\n    function emergencyWithdraw(uint256 _pid) external {}\n}\n\ncontract MockAMMToken0 is MockERC20Upgradeable {}\ncontract MockAMMToken1 is MockERC20Upgradeable {}\ncontract MockAMMOtherLPToken is MockERC20Upgradeable {}\ncontract MockLPPool is MockERC20Upgradeable {}\n",
  "sourcePath": "/Users/kristophm/Documents/workspace/zorro-protocol/contracts/vaults/mocks/MockVaultStandardAMM.sol",
  "compiler": {
    "name": "solc",
    "version": "0.8.10+commit.fc410830.Emscripten.clang"
  },
  "schemaVersion": "3.4.4",
  "updatedAt": "2022-05-14T17:10:45.204Z",
  "networkType": "ethereum",
  "devdoc": {
    "kind": "dev",
    "methods": {
      "owner()": {
        "details": "Returns the address of the current owner."
      },
      "renounceOwnership()": {
        "details": "Leaves the contract without owner. It will not be possible to call `onlyOwner` functions anymore. Can only be called by the current owner. NOTE: Renouncing ownership will leave the contract without an owner, thereby removing any functionality that is only available to the owner."
      },
      "transferOwnership(address)": {
        "details": "Transfers ownership of the contract to a new account (`newOwner`). Can only be called by the current owner."
      }
    },
    "version": 1
  },
  "userdoc": {
    "kind": "user",
    "methods": {},
    "version": 1
  }
}