{
  "contractName": "MockBalancerVault",
  "abi": [
    {
      "anonymous": false,
      "inputs": [
        {
          "indexed": true,
          "internalType": "address",
          "name": "_dest",
          "type": "address"
        },
        {
          "indexed": true,
          "internalType": "uint256",
          "name": "amountIn",
          "type": "uint256"
        },
        {
          "indexed": true,
          "internalType": "uint256",
          "name": "minAmountOut",
          "type": "uint256"
        }
      ],
      "name": "SwappedToken",
      "type": "event"
    },
    {
      "inputs": [],
      "name": "burnAddress",
      "outputs": [
        {
          "internalType": "address",
          "name": "",
          "type": "address"
        }
      ],
      "stateMutability": "view",
      "type": "function"
    },
    {
      "inputs": [
        {
          "internalType": "address",
          "name": "_token",
          "type": "address"
        },
        {
          "internalType": "uint256",
          "name": "_amount",
          "type": "uint256"
        }
      ],
      "name": "setCash",
      "outputs": [],
      "stateMutability": "nonpayable",
      "type": "function"
    },
    {
      "inputs": [
        {
          "internalType": "address",
          "name": "_burn",
          "type": "address"
        }
      ],
      "name": "setBurnAddress",
      "outputs": [],
      "stateMutability": "nonpayable",
      "type": "function"
    },
    {
      "inputs": [
        {
          "components": [
            {
              "internalType": "bytes32",
              "name": "poolId",
              "type": "bytes32"
            },
            {
              "internalType": "enum SwapKind",
              "name": "kind",
              "type": "uint8"
            },
            {
              "internalType": "contract IAsset",
              "name": "assetIn",
              "type": "address"
            },
            {
              "internalType": "contract IAsset",
              "name": "assetOut",
              "type": "address"
            },
            {
              "internalType": "uint256",
              "name": "amount",
              "type": "uint256"
            },
            {
              "internalType": "bytes",
              "name": "userData",
              "type": "bytes"
            }
          ],
          "internalType": "struct SingleSwap",
          "name": "singleSwap",
          "type": "tuple"
        },
        {
          "components": [
            {
              "internalType": "address",
              "name": "sender",
              "type": "address"
            },
            {
              "internalType": "bool",
              "name": "fromInternalBalance",
              "type": "bool"
            },
            {
              "internalType": "address payable",
              "name": "recipient",
              "type": "address"
            },
            {
              "internalType": "bool",
              "name": "toInternalBalance",
              "type": "bool"
            }
          ],
          "internalType": "struct FundManagement",
          "name": "funds",
          "type": "tuple"
        },
        {
          "internalType": "uint256",
          "name": "limit",
          "type": "uint256"
        },
        {
          "internalType": "uint256",
          "name": "deadline",
          "type": "uint256"
        }
      ],
      "name": "swap",
      "outputs": [
        {
          "internalType": "uint256",
          "name": "amountCalculated",
          "type": "uint256"
        }
      ],
      "stateMutability": "payable",
      "type": "function"
    },
    {
      "inputs": [
        {
          "internalType": "bytes32",
          "name": "poolId",
          "type": "bytes32"
        },
        {
          "internalType": "contract IERC20",
          "name": "token",
          "type": "address"
        }
      ],
      "name": "getPoolTokenInfo",
      "outputs": [
        {
          "internalType": "uint256",
          "name": "cash",
          "type": "uint256"
        },
        {
          "internalType": "uint256",
          "name": "managed",
          "type": "uint256"
        },
        {
          "internalType": "uint256",
          "name": "blockNumber",
          "type": "uint256"
        },
        {
          "internalType": "address",
          "name": "assetManager",
          "type": "address"
        }
      ],
      "stateMutability": "nonpayable",
      "type": "function"
    },
    {
      "inputs": [
        {
          "internalType": "bytes32",
          "name": "poolId",
          "type": "bytes32"
        }
      ],
      "name": "getPoolTokens",
      "outputs": [
        {
          "internalType": "contract IERC20[]",
          "name": "tokens",
          "type": "address[]"
        },
        {
          "internalType": "uint256[]",
          "name": "balances",
          "type": "uint256[]"
        },
        {
          "internalType": "uint256",
          "name": "lastChangeBlock",
          "type": "uint256"
        }
      ],
      "stateMutability": "view",
      "type": "function"
    },
    {
      "inputs": [
        {
          "internalType": "bytes32",
          "name": "poolId",
          "type": "bytes32"
        },
        {
          "internalType": "address",
          "name": "sender",
          "type": "address"
        },
        {
          "internalType": "address",
          "name": "recipient",
          "type": "address"
        },
        {
          "components": [
            {
              "internalType": "contract IAsset[]",
              "name": "assets",
              "type": "address[]"
            },
            {
              "internalType": "uint256[]",
              "name": "maxAmountsIn",
              "type": "uint256[]"
            },
            {
              "internalType": "bytes",
              "name": "userData",
              "type": "bytes"
            },
            {
              "internalType": "bool",
              "name": "fromInternalBalance",
              "type": "bool"
            }
          ],
          "internalType": "struct JoinPoolRequest",
          "name": "request",
          "type": "tuple"
        }
      ],
      "name": "joinPool",
      "outputs": [],
      "stateMutability": "nonpayable",
      "type": "function"
    },
    {
      "inputs": [
        {
          "internalType": "bytes32",
          "name": "poolId",
          "type": "bytes32"
        },
        {
          "internalType": "address",
          "name": "sender",
          "type": "address"
        },
        {
          "internalType": "address payable",
          "name": "recipient",
          "type": "address"
        },
        {
          "components": [
            {
              "internalType": "contract IAsset[]",
              "name": "assets",
              "type": "address[]"
            },
            {
              "internalType": "uint256[]",
              "name": "minAmountsOut",
              "type": "uint256[]"
            },
            {
              "internalType": "bytes",
              "name": "userData",
              "type": "bytes"
            },
            {
              "internalType": "bool",
              "name": "toInternalBalance",
              "type": "bool"
            }
          ],
          "internalType": "struct ExitPoolRequest",
          "name": "request",
          "type": "tuple"
        }
      ],
      "name": "exitPool",
      "outputs": [],
      "stateMutability": "nonpayable",
      "type": "function"
    }
  ],
  "bytecode": "0x608060405234801561001057600080fd5b50610bf9806100206000396000f3fe60806040526004361061007b5760003560e01c8063b05f8e481161004e578063b05f8e481461013e578063b95cac281461011d578063ccdf2065146101a4578063f94d4668146101db57600080fd5b80634b0e72161461008057806352bbbe29146100bf57806370d5ae05146100e55780638bdb39131461011d575b600080fd5b34801561008c57600080fd5b506100bd61009b3660046105a8565b600180546001600160a01b0319166001600160a01b0392909216919091179055565b005b6100d26100cd366004610759565b610210565b6040519081526020015b60405180910390f35b3480156100f157600080fd5b50600154610105906001600160a01b031681565b6040516001600160a01b0390911681526020016100dc565b34801561012957600080fd5b506100bd6101383660046109bd565b50505050565b34801561014a57600080fd5b5061017b610159366004610a29565b6001600160a01b03166000908152602081905260408120549290915081908190565b604080519485526020850193909352918301526001600160a01b031660608201526080016100dc565b3480156101b057600080fd5b506100bd6101bf366004610a59565b6001600160a01b03909116600090815260208190526040902055565b3480156101e757600080fd5b506102016101f6366004610a85565b506060908190600090565b6040516100dc93929190610a9e565b60015460808501516040860151600092610239926001600160a01b0392831692339216906102ee565b606085015160408086015190516340c10f1960e01b81526001600160a01b039182166004820152602481018690529116906340c10f1990604401600060405180830381600087803b15801561028d57600080fd5b505af11580156102a1573d6000803e3d6000fd5b5050505082856080015185604001516001600160a01b03167f18ae40116b9304bae046d506ea80406867bd9e5129486046650090b2f5032e2960405160405180910390a450909392505050565b604080516001600160a01b038581166024830152848116604483015260648083018590528351808403909101815260849092018352602080830180516001600160e01b03166323b872dd60e01b17905283518085019094528084527f5361666545524332303a206c6f772d6c6576656c2063616c6c206661696c6564908401526101389287929160009161038691851690849061040d565b80519091501561040857808060200190518101906103a49190610b2b565b6104085760405162461bcd60e51b815260206004820152602a60248201527f5361666545524332303a204552433230206f7065726174696f6e20646964206e6044820152691bdd081cdd58d8d9595960b21b60648201526084015b60405180910390fd5b505050565b606061041c8484600085610426565b90505b9392505050565b6060824710156104875760405162461bcd60e51b815260206004820152602660248201527f416464726573733a20696e73756666696369656e742062616c616e636520666f6044820152651c8818d85b1b60d21b60648201526084016103ff565b6001600160a01b0385163b6104de5760405162461bcd60e51b815260206004820152601d60248201527f416464726573733a2063616c6c20746f206e6f6e2d636f6e747261637400000060448201526064016103ff565b600080866001600160a01b031685876040516104fa9190610b74565b60006040518083038185875af1925050503d8060008114610537576040519150601f19603f3d011682016040523d82523d6000602084013e61053c565b606091505b509150915061054c828286610557565b979650505050505050565b6060831561056657508161041f565b8251156105765782518084602001fd5b8160405162461bcd60e51b81526004016103ff9190610b90565b6001600160a01b03811681146105a557600080fd5b50565b6000602082840312156105ba57600080fd5b813561041f81610590565b634e487b7160e01b600052604160045260246000fd5b6040516080810167ffffffffffffffff811182821017156105fe576105fe6105c5565b60405290565b60405160c0810167ffffffffffffffff811182821017156105fe576105fe6105c5565b604051601f8201601f1916810167ffffffffffffffff81118282101715610650576106506105c5565b604052919050565b803561066381610590565b919050565b600082601f83011261067957600080fd5b813567ffffffffffffffff811115610693576106936105c5565b6106a6601f8201601f1916602001610627565b8181528460208386010111156106bb57600080fd5b816020850160208301376000918101602001919091529392505050565b80151581146105a557600080fd5b8035610663816106d8565b60006080828403121561070357600080fd5b61070b6105db565b9050813561071881610590565b81526020820135610728816106d8565b6020820152604082013561073b81610590565b6040820152606082013561074e816106d8565b606082015292915050565b60008060008060e0858703121561076f57600080fd5b843567ffffffffffffffff8082111561078757600080fd5b9086019060c0828903121561079b57600080fd5b6107a3610604565b823581526020830135600281106107b957600080fd5b60208201526107ca60408401610658565b60408201526107db60608401610658565b60608201526080830135608082015260a0830135828111156107fc57600080fd5b6108088a828601610668565b60a08301525080965050505061082186602087016106f1565b939693955050505060a08201359160c0013590565b600067ffffffffffffffff821115610850576108506105c5565b5060051b60200190565b600082601f83011261086b57600080fd5b8135602061088061087b83610836565b610627565b82815260059290921b8401810191818101908684111561089f57600080fd5b8286015b848110156108ba57803583529183019183016108a3565b509695505050505050565b6000608082840312156108d757600080fd5b6108df6105db565b9050813567ffffffffffffffff808211156108f957600080fd5b818401915084601f83011261090d57600080fd5b8135602061091d61087b83610836565b82815260059290921b8401810191818101908884111561093c57600080fd5b948201945b8386101561096357853561095481610590565b82529482019490820190610941565b8652508581013593508284111561097957600080fd5b6109858785880161085a565b9085015250604084013591508082111561099e57600080fd5b506109ab84828501610668565b60408301525061074e606083016106e6565b600080600080608085870312156109d357600080fd5b8435935060208501356109e581610590565b925060408501356109f581610590565b9150606085013567ffffffffffffffff811115610a1157600080fd5b610a1d878288016108c5565b91505092959194509250565b60008060408385031215610a3c57600080fd5b823591506020830135610a4e81610590565b809150509250929050565b60008060408385031215610a6c57600080fd5b8235610a7781610590565b946020939093013593505050565b600060208284031215610a9757600080fd5b5035919050565b606080825284519082018190526000906020906080840190828801845b82811015610ae05781516001600160a01b031684529284019290840190600101610abb565b5050508381038285015285518082528683019183019060005b81811015610b1557835183529284019291840191600101610af9565b5050809350505050826040830152949350505050565b600060208284031215610b3d57600080fd5b815161041f816106d8565b60005b83811015610b63578181015183820152602001610b4b565b838111156101385750506000910152565b60008251610b86818460208701610b48565b9190910192915050565b6020815260008251806020840152610baf816040850160208701610b48565b601f01601f1916919091016040019291505056fea264697066735822122028f1830d26b4e897a3f216d2f67148580118c2463631616e444f5a24eb77bfc964736f6c634300080a0033",
  "immutableReferences": {},
  "source": "// SPDX-License-Identifier: MIT\n\npragma solidity ^0.8.0;\n\nimport \"../SafeSwap.sol\";\n\nimport \"@openzeppelin/contracts-upgradeable/token/ERC20/utils/SafeERC20Upgradeable.sol\";\n\nimport \"../../tokens/mocks/MockToken.sol\";\n\n/// @title MockSafeSwapUni: Mock contract for testing the SafeSwapUni library\ncontract MockSafeSwapUni {\n    using SafeSwapUni for IAMMRouter02;\n    using SafeERC20Upgradeable for IERC20Upgradeable;\n\n    function safeSwap(\n        address _uniRouter,\n        uint256 _amountIn,\n        uint256 _priceTokenIn,\n        uint256 _priceTokenOut,\n        uint256 _slippageFactor,\n        address[] memory _path,\n        address _to,\n        uint256 _deadline\n    ) public {\n        // Give permission\n        IERC20Upgradeable(_path[0]).safeIncreaseAllowance(_uniRouter, _amountIn);\n        // Swap\n        IAMMRouter02(_uniRouter).safeSwap(\n            _amountIn,\n            _priceTokenIn,\n            _priceTokenOut,\n            _slippageFactor,\n            _path,\n            _to,\n            _deadline\n        );\n    }\n}\n\n/// @title MockAMMRouter02: Mock contract for the IAMMRouter02 library\ncontract MockAMMRouter02 is IAMMRouter02, MockERC20Upgradeable {\n    using SafeERC20Upgradeable for IERC20Upgradeable;\n\n    address public burnAddress;\n    address public poolAddress;\n\n    function setBurnAddress(address _burnAddress) public {\n        burnAddress = _burnAddress;\n    }\n\n    function setPoolAddress(address _poolAddress) public {\n        poolAddress = _poolAddress;\n    }\n\n    event SwappedToken(\n        address indexed _dest,\n        uint256 indexed _amountIn,\n        uint256 indexed _amountOutMin\n    );\n\n    event AddedLiquidity(\n        uint256 indexed _amountA,\n        uint256 indexed _amountB,\n        uint256 indexed _liquidity\n    );\n\n    event RemovedLiquidity(uint256 indexed _amountA, uint256 indexed _amountB);\n\n    function factory() external pure returns (address) {\n        return address(0);\n    }\n\n    function WETH() external pure returns (address) {\n        return address(0);\n    }\n\n    function addLiquidity(\n        address tokenA,\n        address tokenB,\n        uint256 amountADesired,\n        uint256 amountBDesired,\n        uint256 amountAMin,\n        uint256 amountBMin,\n        address to,\n        uint256 deadline\n    )\n        external\n        returns (\n            uint256 amountA,\n            uint256 amountB,\n            uint256 liquidity\n        )\n    {\n        // Vars\n        amountA = amountADesired;\n        amountB = amountBDesired;\n        // Safe transfer from\n        IERC20Upgradeable(tokenA).safeTransferFrom(\n            msg.sender,\n            address(this),\n            amountA\n        );\n        IERC20Upgradeable(tokenB).safeTransferFrom(\n            msg.sender,\n            address(this),\n            amountB\n        );\n\n        // Mint LP token (just 1 token for simplicity)\n        liquidity = 1 ether;\n        IMockERC20Upgradeable(address(this)).mint(to, liquidity);\n\n        // Emit event\n        emit AddedLiquidity(amountA, amountB, liquidity);\n    }\n\n    function addLiquidityETH(\n        address token,\n        uint256 amountTokenDesired,\n        uint256 amountTokenMin,\n        uint256 amountETHMin,\n        address to,\n        uint256 deadline\n    )\n        external\n        payable\n        returns (\n            uint256 amountToken,\n            uint256 amountETH,\n            uint256 liquidity\n        )\n    {\n        // TODO\n    }\n\n    function removeLiquidity(\n        address tokenA,\n        address tokenB,\n        uint256 liquidity,\n        uint256 amountAMin,\n        uint256 amountBMin,\n        address to,\n        uint256 deadline\n    ) external returns (uint256 amountA, uint256 amountB) {\n        // Vars\n        amountA = amountAMin;\n        amountB = amountBMin;\n\n        // Safe transfer liquidity & burn\n        IERC20Upgradeable(poolAddress).safeTransferFrom(\n            msg.sender,\n            burnAddress,\n            liquidity\n        );\n\n        // Mint tokens 0, 1\n        IMockERC20Upgradeable(tokenA).mint(to, amountA);\n        IMockERC20Upgradeable(tokenB).mint(to, amountB);\n\n        // Emit event\n        emit RemovedLiquidity(amountA, amountB);\n    }\n\n    function removeLiquidityETH(\n        address token,\n        uint256 liquidity,\n        uint256 amountTokenMin,\n        uint256 amountETHMin,\n        address to,\n        uint256 deadline\n    ) external returns (uint256 amountToken, uint256 amountETH) {\n        // TODO\n    }\n\n    function removeLiquidityWithPermit(\n        address tokenA,\n        address tokenB,\n        uint256 liquidity,\n        uint256 amountAMin,\n        uint256 amountBMin,\n        address to,\n        uint256 deadline,\n        bool approveMax,\n        uint8 v,\n        bytes32 r,\n        bytes32 s\n    ) external returns (uint256 amountA, uint256 amountB) {\n        // TODO\n    }\n\n    function removeLiquidityETHWithPermit(\n        address token,\n        uint256 liquidity,\n        uint256 amountTokenMin,\n        uint256 amountETHMin,\n        address to,\n        uint256 deadline,\n        bool approveMax,\n        uint8 v,\n        bytes32 r,\n        bytes32 s\n    ) external returns (uint256 amountToken, uint256 amountETH) {\n        // TODO\n    }\n\n    function swapExactTokensForTokens(\n        uint256 amountIn,\n        uint256 amountOutMin,\n        address[] calldata path,\n        address to,\n        uint256 deadline\n    ) external returns (uint256[] memory amounts) {\n        return\n            _mockSwapExactTokensForTokens(\n                amountIn,\n                amountOutMin,\n                path,\n                to,\n                deadline\n            );\n    }\n\n    function _mockSwapExactTokensForTokens(\n        uint256 amountIn,\n        uint256 amountOutMin,\n        address[] calldata path,\n        address to,\n        uint256 deadline\n    ) internal returns (uint256[] memory amounts) {\n        // Vars\n        address _tokenIn = path[0];\n        address _tokenOut = path[path.length - 1];\n\n        // Burn token IN\n        IERC20Upgradeable(_tokenIn).safeTransferFrom(msg.sender, burnAddress, amountIn);\n\n        // Mint token OUT -> to\n        IMockERC20Upgradeable(_tokenOut).mint(to, amountOutMin);\n\n        // Return\n        uint256[] memory _amounts = new uint256[](2);\n        _amounts[0] = amountIn;\n        _amounts[1] = amountOutMin;\n        amounts = _amounts;\n\n        emit SwappedToken(msg.sender, amountIn, amountOutMin);\n    }\n\n    function swapTokensForExactTokens(\n        uint256 amountOut,\n        uint256 amountInMax,\n        address[] calldata path,\n        address to,\n        uint256 deadline\n    ) external returns (uint256[] memory amounts) {\n        // TODO\n    }\n\n    function swapExactETHForTokens(\n        uint256 amountOutMin,\n        address[] calldata path,\n        address to,\n        uint256 deadline\n    ) external payable returns (uint256[] memory amounts) {\n        // TODO\n    }\n\n    function swapTokensForExactETH(\n        uint256 amountOut,\n        uint256 amountInMax,\n        address[] calldata path,\n        address to,\n        uint256 deadline\n    ) external returns (uint256[] memory amounts) {\n        // TODO\n    }\n\n    function swapExactTokensForETH(\n        uint256 amountIn,\n        uint256 amountOutMin,\n        address[] calldata path,\n        address to,\n        uint256 deadline\n    ) external returns (uint256[] memory amounts) {\n        // TODO\n    }\n\n    function swapETHForExactTokens(\n        uint256 amountOut,\n        address[] calldata path,\n        address to,\n        uint256 deadline\n    ) external payable returns (uint256[] memory amounts) {\n        // TODO\n    }\n\n    function quote(\n        uint256 amountA,\n        uint256 reserveA,\n        uint256 reserveB\n    ) external pure returns (uint256 amountB) {\n        // TODO\n    }\n\n    function getAmountOut(\n        uint256 amountIn,\n        uint256 reserveIn,\n        uint256 reserveOut\n    ) external pure returns (uint256 amountOut) {\n        return amountIn;\n    }\n\n    function getAmountIn(\n        uint256 amountOut,\n        uint256 reserveIn,\n        uint256 reserveOut\n    ) external pure returns (uint256 amountIn) {\n        // TODO\n    }\n\n    function getAmountsOut(uint256 amountIn, address[] calldata path)\n        external\n        view\n        returns (uint256[] memory amounts)\n    {\n        uint256[] memory _amounts = new uint256[](1);\n        _amounts[0] = amountIn;\n        return _amounts;\n    }\n\n    function getAmountsIn(uint256 amountOut, address[] calldata path)\n        external\n        view\n        returns (uint256[] memory amounts)\n    {\n        // TODO\n    }\n\n    function removeLiquidityETHSupportingFeeOnTransferTokens(\n        address token,\n        uint256 liquidity,\n        uint256 amountTokenMin,\n        uint256 amountETHMin,\n        address to,\n        uint256 deadline\n    ) external returns (uint256 amountETH) {}\n\n    function removeLiquidityETHWithPermitSupportingFeeOnTransferTokens(\n        address token,\n        uint256 liquidity,\n        uint256 amountTokenMin,\n        uint256 amountETHMin,\n        address to,\n        uint256 deadline,\n        bool approveMax,\n        uint8 v,\n        bytes32 r,\n        bytes32 s\n    ) external returns (uint256 amountETH) {}\n\n    function swapExactTokensForTokensSupportingFeeOnTransferTokens(\n        uint256 amountIn,\n        uint256 amountOutMin,\n        address[] calldata path,\n        address to,\n        uint256 deadline\n    ) external {\n        _mockSwapExactTokensForTokens(\n                amountIn,\n                amountOutMin,\n                path,\n                to,\n                deadline\n            );\n    }\n\n    function swapExactETHForTokensSupportingFeeOnTransferTokens(\n        uint256 amountOutMin,\n        address[] calldata path,\n        address to,\n        uint256 deadline\n    ) external payable {}\n\n    function swapExactTokensForETHSupportingFeeOnTransferTokens(\n        uint256 amountIn,\n        uint256 amountOutMin,\n        address[] calldata path,\n        address to,\n        uint256 deadline\n    ) external {}\n}\n\n/// @title MockSafeSwapBalancer: Mock contract for testing the SafeSwapBalancer library\ncontract MockSafeSwapBalancer {\n    using SafeSwapBalancer for IBalancerVault;\n    using SafeERC20Upgradeable for IERC20Upgradeable;\n\n    function safeSwap(\n        address _balancerVault,\n        bytes32 _poolId,\n        SafeSwapParams memory _swapParams\n    ) public {\n        IERC20Upgradeable(_swapParams.token0).safeIncreaseAllowance(_balancerVault, _swapParams.amountIn);\n        IBalancerVault(_balancerVault).safeSwap(_poolId, _swapParams);\n    }\n}\n\n/// @title MockBalancerVault: Mock contract for the IBalancerVault library\ncontract MockBalancerVault is IBalancerVault {\n    using SafeERC20Upgradeable for IERC20Upgradeable;\n\n    event SwappedToken(address indexed _dest, uint256 indexed amountIn, uint256 indexed minAmountOut);\n\n    mapping(address => uint256) internal _cash;\n    address public burnAddress;\n\n    function setCash(address _token, uint256 _amount) public {\n        _cash[_token] = _amount;\n    }\n\n    function setBurnAddress(address _burn) public {\n        burnAddress = _burn;\n    }\n\n    function swap(\n        SingleSwap memory singleSwap,\n        FundManagement memory funds,\n        uint256 limit,\n        uint256 deadline\n    ) external payable returns (uint256 amountCalculated) {\n        // Burn token IN\n        IERC20Upgradeable(address(singleSwap.assetIn)).safeTransferFrom(msg.sender, burnAddress, singleSwap.amount);\n\n        // Mint token OUT -> to\n        IMockERC20Upgradeable(address(singleSwap.assetOut)).mint(funds.recipient, limit);\n\n        // Event\n        emit SwappedToken(funds.recipient, singleSwap.amount, limit);\n\n        // Return\n        amountCalculated = limit;\n    }\n\n    function getPoolTokenInfo(bytes32 poolId, IERC20 token)\n        external\n        returns (\n            uint256 cash,\n            uint256 managed,\n            uint256 blockNumber,\n            address assetManager\n        )\n    {\n        cash = _cash[address(token)];\n    }\n\n    function getPoolTokens(bytes32 poolId)\n        external\n        view\n        returns (\n            IERC20[] memory tokens,\n            uint256[] memory balances,\n            uint256 lastChangeBlock\n        )\n    {}\n\n    function joinPool(\n        bytes32 poolId,\n        address sender,\n        address recipient,\n        JoinPoolRequest memory request\n    ) external {\n        \n    }\n\n    function exitPool(\n        bytes32 poolId,\n        address sender,\n        address payable recipient,\n        ExitPoolRequest memory request\n    ) external {\n\n    }\n}\n",
  "sourcePath": "/Users/kristophm/Documents/workspace/zorro-protocol/contracts/libraries/mocks/MockSafeSwap.sol",
  "compiler": {
    "name": "solc",
    "version": "0.8.10+commit.fc410830.Emscripten.clang"
  },
  "schemaVersion": "3.4.4",
  "updatedAt": "2022-05-24T12:09:14.331Z",
  "devdoc": {
    "kind": "dev",
    "methods": {},
    "title": "MockBalancerVault: Mock contract for the IBalancerVault library",
    "version": 1
  },
  "userdoc": {
    "kind": "user",
    "methods": {},
    "version": 1
  }
}