{
  "contractName": "MockVaultStandardAMM",
  "abi": [
    {
      "anonymous": false,
      "inputs": [
        {
          "indexed": true,
          "internalType": "address",
          "name": "previousOwner",
          "type": "address"
        },
        {
          "indexed": true,
          "internalType": "address",
          "name": "newOwner",
          "type": "address"
        }
      ],
      "name": "OwnershipTransferred",
      "type": "event"
    },
    {
      "anonymous": false,
      "inputs": [
        {
          "indexed": false,
          "internalType": "address",
          "name": "account",
          "type": "address"
        }
      ],
      "name": "Paused",
      "type": "event"
    },
    {
      "anonymous": false,
      "inputs": [
        {
          "indexed": false,
          "internalType": "address",
          "name": "_govAddress",
          "type": "address"
        }
      ],
      "name": "SetGov",
      "type": "event"
    },
    {
      "anonymous": false,
      "inputs": [
        {
          "indexed": false,
          "internalType": "bool",
          "name": "_onlyGov",
          "type": "bool"
        }
      ],
      "name": "SetOnlyGov",
      "type": "event"
    },
    {
      "anonymous": false,
      "inputs": [
        {
          "indexed": false,
          "internalType": "address",
          "name": "_rewardsAddress",
          "type": "address"
        }
      ],
      "name": "SetRewardsAddress",
      "type": "event"
    },
    {
      "anonymous": false,
      "inputs": [
        {
          "indexed": false,
          "internalType": "uint256",
          "name": "_entranceFeeFactor",
          "type": "uint256"
        },
        {
          "indexed": false,
          "internalType": "uint256",
          "name": "_withdrawFeeFactor",
          "type": "uint256"
        },
        {
          "indexed": false,
          "internalType": "uint256",
          "name": "_controllerFee",
          "type": "uint256"
        },
        {
          "indexed": false,
          "internalType": "uint256",
          "name": "_buyBackRate",
          "type": "uint256"
        }
      ],
      "name": "SetSettings",
      "type": "event"
    },
    {
      "anonymous": false,
      "inputs": [
        {
          "indexed": false,
          "internalType": "address",
          "name": "_uniRouterAddress",
          "type": "address"
        }
      ],
      "name": "SetUniRouterAddress",
      "type": "event"
    },
    {
      "anonymous": false,
      "inputs": [
        {
          "indexed": false,
          "internalType": "address",
          "name": "account",
          "type": "address"
        }
      ],
      "name": "Unpaused",
      "type": "event"
    },
    {
      "inputs": [
        {
          "internalType": "uint256",
          "name": "",
          "type": "uint256"
        }
      ],
      "name": "USDCToToken0Path",
      "outputs": [
        {
          "internalType": "address",
          "name": "",
          "type": "address"
        }
      ],
      "stateMutability": "view",
      "type": "function",
      "constant": true
    },
    {
      "inputs": [
        {
          "internalType": "uint256",
          "name": "",
          "type": "uint256"
        }
      ],
      "name": "USDCToToken1Path",
      "outputs": [
        {
          "internalType": "address",
          "name": "",
          "type": "address"
        }
      ],
      "stateMutability": "view",
      "type": "function",
      "constant": true
    },
    {
      "inputs": [],
      "name": "ZORPriceFeed",
      "outputs": [
        {
          "internalType": "contract AggregatorV3Interface",
          "name": "",
          "type": "address"
        }
      ],
      "stateMutability": "view",
      "type": "function",
      "constant": true
    },
    {
      "inputs": [],
      "name": "ZORROAddress",
      "outputs": [
        {
          "internalType": "address",
          "name": "",
          "type": "address"
        }
      ],
      "stateMutability": "view",
      "type": "function",
      "constant": true
    },
    {
      "inputs": [],
      "name": "burnAddress",
      "outputs": [
        {
          "internalType": "address",
          "name": "",
          "type": "address"
        }
      ],
      "stateMutability": "view",
      "type": "function",
      "constant": true
    },
    {
      "inputs": [],
      "name": "buyBackRate",
      "outputs": [
        {
          "internalType": "uint256",
          "name": "",
          "type": "uint256"
        }
      ],
      "stateMutability": "view",
      "type": "function",
      "constant": true
    },
    {
      "inputs": [],
      "name": "buyBackRateMax",
      "outputs": [
        {
          "internalType": "uint256",
          "name": "",
          "type": "uint256"
        }
      ],
      "stateMutability": "view",
      "type": "function",
      "constant": true
    },
    {
      "inputs": [],
      "name": "buyBackRateUL",
      "outputs": [
        {
          "internalType": "uint256",
          "name": "",
          "type": "uint256"
        }
      ],
      "stateMutability": "view",
      "type": "function",
      "constant": true
    },
    {
      "inputs": [],
      "name": "controllerFee",
      "outputs": [
        {
          "internalType": "uint256",
          "name": "",
          "type": "uint256"
        }
      ],
      "stateMutability": "view",
      "type": "function",
      "constant": true
    },
    {
      "inputs": [],
      "name": "controllerFeeMax",
      "outputs": [
        {
          "internalType": "uint256",
          "name": "",
          "type": "uint256"
        }
      ],
      "stateMutability": "view",
      "type": "function",
      "constant": true
    },
    {
      "inputs": [],
      "name": "controllerFeeUL",
      "outputs": [
        {
          "internalType": "uint256",
          "name": "",
          "type": "uint256"
        }
      ],
      "stateMutability": "view",
      "type": "function",
      "constant": true
    },
    {
      "inputs": [
        {
          "internalType": "address",
          "name": "_account",
          "type": "address"
        },
        {
          "internalType": "uint256",
          "name": "_wantAmt",
          "type": "uint256"
        }
      ],
      "name": "depositWantToken",
      "outputs": [
        {
          "internalType": "uint256",
          "name": "sharesAdded",
          "type": "uint256"
        }
      ],
      "stateMutability": "nonpayable",
      "type": "function"
    },
    {
      "inputs": [
        {
          "internalType": "uint256",
          "name": "_maxMarketMovementAllowed",
          "type": "uint256"
        }
      ],
      "name": "earn",
      "outputs": [],
      "stateMutability": "nonpayable",
      "type": "function"
    },
    {
      "inputs": [],
      "name": "earnTokenPriceFeed",
      "outputs": [
        {
          "internalType": "contract AggregatorV3Interface",
          "name": "",
          "type": "address"
        }
      ],
      "stateMutability": "view",
      "type": "function",
      "constant": true
    },
    {
      "inputs": [],
      "name": "earnedAddress",
      "outputs": [
        {
          "internalType": "address",
          "name": "",
          "type": "address"
        }
      ],
      "stateMutability": "view",
      "type": "function",
      "constant": true
    },
    {
      "inputs": [
        {
          "internalType": "uint256",
          "name": "",
          "type": "uint256"
        }
      ],
      "name": "earnedToToken0Path",
      "outputs": [
        {
          "internalType": "address",
          "name": "",
          "type": "address"
        }
      ],
      "stateMutability": "view",
      "type": "function",
      "constant": true
    },
    {
      "inputs": [
        {
          "internalType": "uint256",
          "name": "",
          "type": "uint256"
        }
      ],
      "name": "earnedToToken1Path",
      "outputs": [
        {
          "internalType": "address",
          "name": "",
          "type": "address"
        }
      ],
      "stateMutability": "view",
      "type": "function",
      "constant": true
    },
    {
      "inputs": [
        {
          "internalType": "uint256",
          "name": "",
          "type": "uint256"
        }
      ],
      "name": "earnedToUSDCPath",
      "outputs": [
        {
          "internalType": "address",
          "name": "",
          "type": "address"
        }
      ],
      "stateMutability": "view",
      "type": "function",
      "constant": true
    },
    {
      "inputs": [
        {
          "internalType": "uint256",
          "name": "",
          "type": "uint256"
        }
      ],
      "name": "earnedToZORLPPoolOtherTokenPath",
      "outputs": [
        {
          "internalType": "address",
          "name": "",
          "type": "address"
        }
      ],
      "stateMutability": "view",
      "type": "function",
      "constant": true
    },
    {
      "inputs": [
        {
          "internalType": "uint256",
          "name": "",
          "type": "uint256"
        }
      ],
      "name": "earnedToZORROPath",
      "outputs": [
        {
          "internalType": "address",
          "name": "",
          "type": "address"
        }
      ],
      "stateMutability": "view",
      "type": "function",
      "constant": true
    },
    {
      "inputs": [],
      "name": "entranceFeeFactor",
      "outputs": [
        {
          "internalType": "uint256",
          "name": "",
          "type": "uint256"
        }
      ],
      "stateMutability": "view",
      "type": "function",
      "constant": true
    },
    {
      "inputs": [],
      "name": "entranceFeeFactorLL",
      "outputs": [
        {
          "internalType": "uint256",
          "name": "",
          "type": "uint256"
        }
      ],
      "stateMutability": "view",
      "type": "function",
      "constant": true
    },
    {
      "inputs": [],
      "name": "entranceFeeFactorMax",
      "outputs": [
        {
          "internalType": "uint256",
          "name": "",
          "type": "uint256"
        }
      ],
      "stateMutability": "view",
      "type": "function",
      "constant": true
    },
    {
      "inputs": [
        {
          "internalType": "uint256",
          "name": "_amountUSDC",
          "type": "uint256"
        },
        {
          "internalType": "uint256",
          "name": "_maxMarketMovementAllowed",
          "type": "uint256"
        }
      ],
      "name": "exchangeUSDForWantToken",
      "outputs": [
        {
          "internalType": "uint256",
          "name": "",
          "type": "uint256"
        }
      ],
      "stateMutability": "nonpayable",
      "type": "function"
    },
    {
      "inputs": [
        {
          "internalType": "uint256",
          "name": "_amount",
          "type": "uint256"
        },
        {
          "internalType": "uint256",
          "name": "_maxMarketMovementAllowed",
          "type": "uint256"
        }
      ],
      "name": "exchangeWantTokenForUSD",
      "outputs": [
        {
          "internalType": "uint256",
          "name": "",
          "type": "uint256"
        }
      ],
      "stateMutability": "nonpayable",
      "type": "function"
    },
    {
      "inputs": [],
      "name": "farm",
      "outputs": [],
      "stateMutability": "nonpayable",
      "type": "function"
    },
    {
      "inputs": [],
      "name": "farmContractAddress",
      "outputs": [
        {
          "internalType": "address",
          "name": "",
          "type": "address"
        }
      ],
      "stateMutability": "view",
      "type": "function",
      "constant": true
    },
    {
      "inputs": [],
      "name": "govAddress",
      "outputs": [
        {
          "internalType": "address",
          "name": "",
          "type": "address"
        }
      ],
      "stateMutability": "view",
      "type": "function",
      "constant": true
    },
    {
      "inputs": [
        {
          "internalType": "address",
          "name": "_token",
          "type": "address"
        },
        {
          "internalType": "uint256",
          "name": "_amount",
          "type": "uint256"
        },
        {
          "internalType": "address",
          "name": "_to",
          "type": "address"
        }
      ],
      "name": "inCaseTokensGetStuck",
      "outputs": [],
      "stateMutability": "nonpayable",
      "type": "function"
    },
    {
      "inputs": [
        {
          "internalType": "address",
          "name": "_timelockOwner",
          "type": "address"
        },
        {
          "components": [
            {
              "internalType": "uint256",
              "name": "pid",
              "type": "uint256"
            },
            {
              "internalType": "bool",
              "name": "isCOREStaking",
              "type": "bool"
            },
            {
              "internalType": "bool",
              "name": "isZorroComp",
              "type": "bool"
            },
            {
              "internalType": "bool",
              "name": "isHomeChain",
              "type": "bool"
            },
            {
              "internalType": "bool",
              "name": "isSingleAssetDeposit",
              "type": "bool"
            },
            {
              "components": [
                {
                  "internalType": "address",
                  "name": "govAddress",
                  "type": "address"
                },
                {
                  "internalType": "address",
                  "name": "zorroControllerAddress",
                  "type": "address"
                },
                {
                  "internalType": "address",
                  "name": "ZORROAddress",
                  "type": "address"
                },
                {
                  "internalType": "address",
                  "name": "zorroStakingVault",
                  "type": "address"
                },
                {
                  "internalType": "address",
                  "name": "wantAddress",
                  "type": "address"
                },
                {
                  "internalType": "address",
                  "name": "token0Address",
                  "type": "address"
                },
                {
                  "internalType": "address",
                  "name": "token1Address",
                  "type": "address"
                },
                {
                  "internalType": "address",
                  "name": "earnedAddress",
                  "type": "address"
                },
                {
                  "internalType": "address",
                  "name": "farmContractAddress",
                  "type": "address"
                },
                {
                  "internalType": "address",
                  "name": "rewardsAddress",
                  "type": "address"
                },
                {
                  "internalType": "address",
                  "name": "poolAddress",
                  "type": "address"
                },
                {
                  "internalType": "address",
                  "name": "uniRouterAddress",
                  "type": "address"
                },
                {
                  "internalType": "address",
                  "name": "zorroLPPool",
                  "type": "address"
                },
                {
                  "internalType": "address",
                  "name": "zorroLPPoolOtherToken",
                  "type": "address"
                },
                {
                  "internalType": "address",
                  "name": "tokenUSDCAddress",
                  "type": "address"
                }
              ],
              "internalType": "struct VaultBase.VaultAddresses",
              "name": "keyAddresses",
              "type": "tuple"
            },
            {
              "internalType": "address[]",
              "name": "earnedToZORROPath",
              "type": "address[]"
            },
            {
              "internalType": "address[]",
              "name": "earnedToToken0Path",
              "type": "address[]"
            },
            {
              "internalType": "address[]",
              "name": "earnedToToken1Path",
              "type": "address[]"
            },
            {
              "internalType": "address[]",
              "name": "USDCToToken0Path",
              "type": "address[]"
            },
            {
              "internalType": "address[]",
              "name": "USDCToToken1Path",
              "type": "address[]"
            },
            {
              "internalType": "address[]",
              "name": "earnedToZORLPPoolOtherTokenPath",
              "type": "address[]"
            },
            {
              "internalType": "address[]",
              "name": "earnedToUSDCPath",
              "type": "address[]"
            },
            {
              "components": [
                {
                  "internalType": "uint256",
                  "name": "controllerFee",
                  "type": "uint256"
                },
                {
                  "internalType": "uint256",
                  "name": "buyBackRate",
                  "type": "uint256"
                },
                {
                  "internalType": "uint256",
                  "name": "revShareRate",
                  "type": "uint256"
                },
                {
                  "internalType": "uint256",
                  "name": "entranceFeeFactor",
                  "type": "uint256"
                },
                {
                  "internalType": "uint256",
                  "name": "withdrawFeeFactor",
                  "type": "uint256"
                }
              ],
              "internalType": "struct VaultBase.VaultFees",
              "name": "fees",
              "type": "tuple"
            },
            {
              "components": [
                {
                  "internalType": "address",
                  "name": "token0PriceFeed",
                  "type": "address"
                },
                {
                  "internalType": "address",
                  "name": "token1PriceFeed",
                  "type": "address"
                },
                {
                  "internalType": "address",
                  "name": "earnTokenPriceFeed",
                  "type": "address"
                },
                {
                  "internalType": "address",
                  "name": "ZORPriceFeed",
                  "type": "address"
                },
                {
                  "internalType": "address",
                  "name": "lpPoolOtherTokenPriceFeed",
                  "type": "address"
                }
              ],
              "internalType": "struct VaultBase.VaultPriceFeeds",
              "name": "priceFeeds",
              "type": "tuple"
            }
          ],
          "internalType": "struct VaultStandardAMM.VaultStandardAMMInit",
          "name": "_initValue",
          "type": "tuple"
        }
      ],
      "name": "initialize",
      "outputs": [],
      "stateMutability": "nonpayable",
      "type": "function"
    },
    {
      "inputs": [
        {
          "internalType": "address",
          "name": "_timelockOwner",
          "type": "address"
        }
      ],
      "name": "initialize",
      "outputs": [],
      "stateMutability": "nonpayable",
      "type": "function"
    },
    {
      "inputs": [],
      "name": "isCOREStaking",
      "outputs": [
        {
          "internalType": "bool",
          "name": "",
          "type": "bool"
        }
      ],
      "stateMutability": "view",
      "type": "function",
      "constant": true
    },
    {
      "inputs": [],
      "name": "isHomeChain",
      "outputs": [
        {
          "internalType": "bool",
          "name": "",
          "type": "bool"
        }
      ],
      "stateMutability": "view",
      "type": "function",
      "constant": true
    },
    {
      "inputs": [],
      "name": "isSingleAssetDeposit",
      "outputs": [
        {
          "internalType": "bool",
          "name": "",
          "type": "bool"
        }
      ],
      "stateMutability": "view",
      "type": "function",
      "constant": true
    },
    {
      "inputs": [],
      "name": "isZorroComp",
      "outputs": [
        {
          "internalType": "bool",
          "name": "",
          "type": "bool"
        }
      ],
      "stateMutability": "view",
      "type": "function",
      "constant": true
    },
    {
      "inputs": [],
      "name": "lastEarnBlock",
      "outputs": [
        {
          "internalType": "uint256",
          "name": "",
          "type": "uint256"
        }
      ],
      "stateMutability": "view",
      "type": "function",
      "constant": true
    },
    {
      "inputs": [],
      "name": "lpPoolOtherTokenPriceFeed",
      "outputs": [
        {
          "internalType": "contract AggregatorV3Interface",
          "name": "",
          "type": "address"
        }
      ],
      "stateMutability": "view",
      "type": "function",
      "constant": true
    },
    {
      "inputs": [],
      "name": "onlyGov",
      "outputs": [
        {
          "internalType": "bool",
          "name": "",
          "type": "bool"
        }
      ],
      "stateMutability": "view",
      "type": "function",
      "constant": true
    },
    {
      "inputs": [],
      "name": "owner",
      "outputs": [
        {
          "internalType": "address",
          "name": "",
          "type": "address"
        }
      ],
      "stateMutability": "view",
      "type": "function",
      "constant": true
    },
    {
      "inputs": [],
      "name": "pause",
      "outputs": [],
      "stateMutability": "nonpayable",
      "type": "function"
    },
    {
      "inputs": [],
      "name": "paused",
      "outputs": [
        {
          "internalType": "bool",
          "name": "",
          "type": "bool"
        }
      ],
      "stateMutability": "view",
      "type": "function",
      "constant": true
    },
    {
      "inputs": [],
      "name": "pid",
      "outputs": [
        {
          "internalType": "uint256",
          "name": "",
          "type": "uint256"
        }
      ],
      "stateMutability": "view",
      "type": "function",
      "constant": true
    },
    {
      "inputs": [],
      "name": "poolAddress",
      "outputs": [
        {
          "internalType": "address",
          "name": "",
          "type": "address"
        }
      ],
      "stateMutability": "view",
      "type": "function",
      "constant": true
    },
    {
      "inputs": [],
      "name": "renounceOwnership",
      "outputs": [],
      "stateMutability": "nonpayable",
      "type": "function"
    },
    {
      "inputs": [],
      "name": "revShareRate",
      "outputs": [
        {
          "internalType": "uint256",
          "name": "",
          "type": "uint256"
        }
      ],
      "stateMutability": "view",
      "type": "function",
      "constant": true
    },
    {
      "inputs": [],
      "name": "revShareRateMax",
      "outputs": [
        {
          "internalType": "uint256",
          "name": "",
          "type": "uint256"
        }
      ],
      "stateMutability": "view",
      "type": "function",
      "constant": true
    },
    {
      "inputs": [],
      "name": "revShareRateUL",
      "outputs": [
        {
          "internalType": "uint256",
          "name": "",
          "type": "uint256"
        }
      ],
      "stateMutability": "view",
      "type": "function",
      "constant": true
    },
    {
      "inputs": [],
      "name": "rewardsAddress",
      "outputs": [
        {
          "internalType": "address",
          "name": "",
          "type": "address"
        }
      ],
      "stateMutability": "view",
      "type": "function",
      "constant": true
    },
    {
      "inputs": [
        {
          "internalType": "address",
          "name": "_earnedAddress",
          "type": "address"
        }
      ],
      "name": "setEarnedAddress",
      "outputs": [],
      "stateMutability": "nonpayable",
      "type": "function"
    },
    {
      "inputs": [
        {
          "internalType": "address",
          "name": "_farmContractAddress",
          "type": "address"
        }
      ],
      "name": "setFarmContractAddress",
      "outputs": [],
      "stateMutability": "nonpayable",
      "type": "function"
    },
    {
      "inputs": [
        {
          "internalType": "uint256",
          "name": "_entranceFeeFactor",
          "type": "uint256"
        },
        {
          "internalType": "uint256",
          "name": "_withdrawFeeFactor",
          "type": "uint256"
        },
        {
          "internalType": "uint256",
          "name": "_controllerFee",
          "type": "uint256"
        },
        {
          "internalType": "uint256",
          "name": "_buyBackRate",
          "type": "uint256"
        }
      ],
      "name": "setFeeSettings",
      "outputs": [],
      "stateMutability": "nonpayable",
      "type": "function"
    },
    {
      "inputs": [
        {
          "internalType": "address",
          "name": "_govAddress",
          "type": "address"
        }
      ],
      "name": "setGov",
      "outputs": [],
      "stateMutability": "nonpayable",
      "type": "function"
    },
    {
      "inputs": [
        {
          "internalType": "bool",
          "name": "_onlyGov",
          "type": "bool"
        }
      ],
      "name": "setOnlyGov",
      "outputs": [],
      "stateMutability": "nonpayable",
      "type": "function"
    },
    {
      "inputs": [
        {
          "internalType": "uint256",
          "name": "_pid",
          "type": "uint256"
        }
      ],
      "name": "setPid",
      "outputs": [],
      "stateMutability": "nonpayable",
      "type": "function"
    },
    {
      "inputs": [
        {
          "internalType": "address",
          "name": "_poolAddress",
          "type": "address"
        }
      ],
      "name": "setPoolAddress",
      "outputs": [],
      "stateMutability": "nonpayable",
      "type": "function"
    },
    {
      "inputs": [
        {
          "internalType": "uint8",
          "name": "_idx",
          "type": "uint8"
        },
        {
          "internalType": "address",
          "name": "_priceFeed",
          "type": "address"
        }
      ],
      "name": "setPriceFeed",
      "outputs": [],
      "stateMutability": "nonpayable",
      "type": "function"
    },
    {
      "inputs": [
        {
          "internalType": "address",
          "name": "_rewardsAddress",
          "type": "address"
        }
      ],
      "name": "setRewardsAddress",
      "outputs": [],
      "stateMutability": "nonpayable",
      "type": "function"
    },
    {
      "inputs": [
        {
          "internalType": "uint8",
          "name": "_idx",
          "type": "uint8"
        },
        {
          "internalType": "address[]",
          "name": "_path",
          "type": "address[]"
        }
      ],
      "name": "setSwapPaths",
      "outputs": [],
      "stateMutability": "nonpayable",
      "type": "function"
    },
    {
      "inputs": [
        {
          "internalType": "address",
          "name": "_token0Address",
          "type": "address"
        }
      ],
      "name": "setToken0Address",
      "outputs": [],
      "stateMutability": "nonpayable",
      "type": "function"
    },
    {
      "inputs": [
        {
          "internalType": "address",
          "name": "_token1Address",
          "type": "address"
        }
      ],
      "name": "setToken1Address",
      "outputs": [],
      "stateMutability": "nonpayable",
      "type": "function"
    },
    {
      "inputs": [
        {
          "internalType": "address",
          "name": "_tokenUSDCAddress",
          "type": "address"
        }
      ],
      "name": "setTokenUSDCAddress",
      "outputs": [],
      "stateMutability": "nonpayable",
      "type": "function"
    },
    {
      "inputs": [
        {
          "internalType": "address",
          "name": "_uniRouterAddress",
          "type": "address"
        }
      ],
      "name": "setUniRouterAddress",
      "outputs": [],
      "stateMutability": "nonpayable",
      "type": "function"
    },
    {
      "inputs": [
        {
          "internalType": "address",
          "name": "_wantAddress",
          "type": "address"
        }
      ],
      "name": "setWantAddress",
      "outputs": [],
      "stateMutability": "nonpayable",
      "type": "function"
    },
    {
      "inputs": [
        {
          "internalType": "address",
          "name": "_ZORROAddress",
          "type": "address"
        }
      ],
      "name": "setZORROAddress",
      "outputs": [],
      "stateMutability": "nonpayable",
      "type": "function"
    },
    {
      "inputs": [
        {
          "internalType": "address",
          "name": "_zorroControllerAddress",
          "type": "address"
        }
      ],
      "name": "setZorroControllerAddress",
      "outputs": [],
      "stateMutability": "nonpayable",
      "type": "function"
    },
    {
      "inputs": [
        {
          "internalType": "address",
          "name": "_poolAddress",
          "type": "address"
        }
      ],
      "name": "setZorroLPPoolAddress",
      "outputs": [],
      "stateMutability": "nonpayable",
      "type": "function"
    },
    {
      "inputs": [
        {
          "internalType": "address",
          "name": "_otherToken",
          "type": "address"
        }
      ],
      "name": "setZorroLPPoolOtherToken",
      "outputs": [],
      "stateMutability": "nonpayable",
      "type": "function"
    },
    {
      "inputs": [
        {
          "internalType": "address",
          "name": "_stakingVault",
          "type": "address"
        }
      ],
      "name": "setZorroStakingVault",
      "outputs": [],
      "stateMutability": "nonpayable",
      "type": "function"
    },
    {
      "inputs": [],
      "name": "sharesTotal",
      "outputs": [
        {
          "internalType": "uint256",
          "name": "",
          "type": "uint256"
        }
      ],
      "stateMutability": "view",
      "type": "function",
      "constant": true
    },
    {
      "inputs": [],
      "name": "token0Address",
      "outputs": [
        {
          "internalType": "address",
          "name": "",
          "type": "address"
        }
      ],
      "stateMutability": "view",
      "type": "function",
      "constant": true
    },
    {
      "inputs": [],
      "name": "token0PriceFeed",
      "outputs": [
        {
          "internalType": "contract AggregatorV3Interface",
          "name": "",
          "type": "address"
        }
      ],
      "stateMutability": "view",
      "type": "function",
      "constant": true
    },
    {
      "inputs": [
        {
          "internalType": "uint256",
          "name": "",
          "type": "uint256"
        }
      ],
      "name": "token0ToUSDCPath",
      "outputs": [
        {
          "internalType": "address",
          "name": "",
          "type": "address"
        }
      ],
      "stateMutability": "view",
      "type": "function",
      "constant": true
    },
    {
      "inputs": [],
      "name": "token1Address",
      "outputs": [
        {
          "internalType": "address",
          "name": "",
          "type": "address"
        }
      ],
      "stateMutability": "view",
      "type": "function",
      "constant": true
    },
    {
      "inputs": [],
      "name": "token1PriceFeed",
      "outputs": [
        {
          "internalType": "contract AggregatorV3Interface",
          "name": "",
          "type": "address"
        }
      ],
      "stateMutability": "view",
      "type": "function",
      "constant": true
    },
    {
      "inputs": [
        {
          "internalType": "uint256",
          "name": "",
          "type": "uint256"
        }
      ],
      "name": "token1ToUSDCPath",
      "outputs": [
        {
          "internalType": "address",
          "name": "",
          "type": "address"
        }
      ],
      "stateMutability": "view",
      "type": "function",
      "constant": true
    },
    {
      "inputs": [],
      "name": "tokenUSDCAddress",
      "outputs": [
        {
          "internalType": "address",
          "name": "",
          "type": "address"
        }
      ],
      "stateMutability": "view",
      "type": "function",
      "constant": true
    },
    {
      "inputs": [
        {
          "internalType": "address",
          "name": "newOwner",
          "type": "address"
        }
      ],
      "name": "transferOwnership",
      "outputs": [],
      "stateMutability": "nonpayable",
      "type": "function"
    },
    {
      "inputs": [],
      "name": "uniRouterAddress",
      "outputs": [
        {
          "internalType": "address",
          "name": "",
          "type": "address"
        }
      ],
      "stateMutability": "view",
      "type": "function",
      "constant": true
    },
    {
      "inputs": [],
      "name": "unpause",
      "outputs": [],
      "stateMutability": "nonpayable",
      "type": "function"
    },
    {
      "inputs": [
        {
          "internalType": "address",
          "name": "",
          "type": "address"
        }
      ],
      "name": "userShares",
      "outputs": [
        {
          "internalType": "uint256",
          "name": "",
          "type": "uint256"
        }
      ],
      "stateMutability": "view",
      "type": "function",
      "constant": true
    },
    {
      "inputs": [],
      "name": "wantAddress",
      "outputs": [
        {
          "internalType": "address",
          "name": "",
          "type": "address"
        }
      ],
      "stateMutability": "view",
      "type": "function",
      "constant": true
    },
    {
      "inputs": [],
      "name": "wantLockedTotal",
      "outputs": [
        {
          "internalType": "uint256",
          "name": "",
          "type": "uint256"
        }
      ],
      "stateMutability": "view",
      "type": "function",
      "constant": true
    },
    {
      "inputs": [],
      "name": "withdrawFeeFactor",
      "outputs": [
        {
          "internalType": "uint256",
          "name": "",
          "type": "uint256"
        }
      ],
      "stateMutability": "view",
      "type": "function",
      "constant": true
    },
    {
      "inputs": [],
      "name": "withdrawFeeFactorLL",
      "outputs": [
        {
          "internalType": "uint256",
          "name": "",
          "type": "uint256"
        }
      ],
      "stateMutability": "view",
      "type": "function",
      "constant": true
    },
    {
      "inputs": [],
      "name": "withdrawFeeFactorMax",
      "outputs": [
        {
          "internalType": "uint256",
          "name": "",
          "type": "uint256"
        }
      ],
      "stateMutability": "view",
      "type": "function",
      "constant": true
    },
    {
      "inputs": [
        {
          "internalType": "address",
          "name": "_account",
          "type": "address"
        },
        {
          "internalType": "uint256",
          "name": "_wantAmt",
          "type": "uint256"
        }
      ],
      "name": "withdrawWantToken",
      "outputs": [
        {
          "internalType": "uint256",
          "name": "",
          "type": "uint256"
        }
      ],
      "stateMutability": "nonpayable",
      "type": "function"
    },
    {
      "inputs": [],
      "name": "zorroControllerAddress",
      "outputs": [
        {
          "internalType": "address",
          "name": "",
          "type": "address"
        }
      ],
      "stateMutability": "view",
      "type": "function",
      "constant": true
    },
    {
      "inputs": [],
      "name": "zorroLPPool",
      "outputs": [
        {
          "internalType": "address",
          "name": "",
          "type": "address"
        }
      ],
      "stateMutability": "view",
      "type": "function",
      "constant": true
    },
    {
      "inputs": [],
      "name": "zorroLPPoolOtherToken",
      "outputs": [
        {
          "internalType": "address",
          "name": "",
          "type": "address"
        }
      ],
      "stateMutability": "view",
      "type": "function",
      "constant": true
    },
    {
      "inputs": [],
      "name": "zorroStakingVault",
      "outputs": [
        {
          "internalType": "address",
          "name": "",
          "type": "address"
        }
      ],
      "stateMutability": "view",
      "type": "function",
      "constant": true
    },
    {
      "inputs": [],
      "name": "zorroXChainController",
      "outputs": [
        {
          "internalType": "address",
          "name": "",
          "type": "address"
        }
      ],
      "stateMutability": "view",
      "type": "function",
      "constant": true
    },
    {
      "inputs": [
        {
          "internalType": "address[]",
          "name": "_path",
          "type": "address[]"
        }
      ],
      "name": "reversePath",
      "outputs": [
        {
          "internalType": "address[]",
          "name": "",
          "type": "address[]"
        }
      ],
      "stateMutability": "pure",
      "type": "function",
      "constant": true
    }
  ],
  "bytecode": "0x608060405234801561001057600080fd5b506151f7806100206000396000f3fe608060405234801561001057600080fd5b50600436106105045760003560e01c8063866b201811610299578063c6efd57711610167578063e7a03679116100d9578063f106845411610092578063f106845414610a8a578063f25342bf14610a93578063f2fde38b14610aa6578063f5046a2914610ab9578063fbf5683f14610acc578063ff29b39514610adf57600080fd5b8063e7a0367914610a30578063e9e15b4f14610a43578063ebfba7c414610a56578063edf5e58514610a69578063ee50dc34146105dd578063efa0280814610a7d57600080fd5b8063de69b3aa1161012b578063de69b3aa146109b1578063de841991146109d1578063e0ccabfa146109e4578063e502a88d146109f7578063e65a011714610a0a578063e719847414610a1d57600080fd5b8063c6efd57714610952578063c8479cd614610965578063c8e3d18b14610978578063cfad57a21461098b578063d7cb416f1461099e57600080fd5b8063ab196def1161020b578063ba0bb4ab116101c4578063ba0bb4ab146108f3578063bf3a7d4014610906578063c0973eed14610919578063c302a4d0146107c2578063c4d66de81461092c578063c5c97cbf1461093f57600080fd5b8063ab196def14610894578063ae53e58a146108a7578063b1414dbb146108ba578063b3545c011461051e578063b73cba2a146108cd578063b86c5f53146108e057600080fd5b8063959334f41161025d578063959334f41461082257806396e9aff8146108355780639f703a56146108485780639fc33a9f1461085b578063a4d2b0831461086e578063aabf190b1461088157600080fd5b8063866b2018146107c25780638906758d146107cb5780638b4c5aee146107de5780638b9102dc146107fe5780638da5cb5b1461081157600080fd5b8063583bda3b116103d657806367206d401161034857806370d5ae051161030157806370d5ae051461077a578063715018a6146107835780637bf604d81461078b5780637ff36fbe1461079e5780638456cb59146107b157806385f02dd6146107b957600080fd5b806367206d401461071257806368f5416214610725578063693a090b1461072e5780636bf87f96146107415780636ca8bd65146107545780636f96f6fa1461076757600080fd5b80635fc77d431161039a5780635fc77d43146106b35780636183e804146106c657806361b5bf9f146106d95780636392ab12146106ec578063648794a4146106ff57806367057b6c146105dd57600080fd5b8063583bda3b1461065d5780635b513393146106705780635c975abb146106835780635da79d631461068e5780635dc05fd5146106a157600080fd5b80632717eff31161047a57806344a3955e1161043357806344a3955e1461060857806346008a07146106115780634c5b09da146106245780634ce54ddb146106375780634d9f7bb2146105dd5780634e2cb8b61461064a57600080fd5b80632717eff3146105dd5780633214471f146105e657806336e9332d146105ef5780633f4ba83a146105f757806342da4eb3146105ff57806343788cd2146105dd57600080fd5b80631334903f116104cc5780631334903f1461057a5780631755ff2114610583578063178a8d07146105ae5780631b0d8aab146105b75780631e12819a146105ca578063211019d71461051e57600080fd5b806305828d3e14610509578063061c7d481461051e5780630b6bb30b1461053a5780630daef3211461054d5780630fa4e01e14610571575b600080fd5b61051c610517366004614476565b610af2565b005b6105276103e881565b6040519081526020015b60405180910390f35b61051c6105483660046144aa565b610b47565b60cb5461056190600160a01b900460ff1681565b6040519015158152602001610531565b61052760e05481565b61052760de5481565b60d754610596906001600160a01b031681565b6040516001600160a01b039091168152602001610531565b61052760dc5481565b61051c6105c53660046144c7565b610bc9565b61051c6105d8366004614476565b610bf8565b61052761271081565b61052760dd5481565b61051c610c44565b61051c610c7b565b61052760e15481565b61052760e25481565b60cb54610596906001600160a01b031681565b61051c610632366004614476565b610caf565b60d554610596906001600160a01b031681565b6105966106583660046144c7565b610cfb565b61051c61066b366004614476565b610d25565b61051c61067e3660046144e0565b610d71565b60975460ff16610561565b61051c61069c366004614476565b610fe1565b60c95461056190610100900460ff1681565b60cd54610596906001600160a01b031681565b61051c6106d4366004614476565b61102d565b61051c6106e7366004614476565b611079565b6105966106fa3660046144c7565b6110c5565b61052761070d366004614512565b6110d5565b61051c610720366004614534565b611521565b61052760df5481565b60d854610596906001600160a01b031681565b61051c61074f36600461487c565b6115f0565b61051c610762366004614476565b611a52565b60ef54610596906001600160a01b031681565b61059661dead81565b61051c611a9e565b60d954610596906001600160a01b031681565b60d154610596906001600160a01b031681565b61051c611ad2565b61052760db5481565b61052761232881565b61051c6107d9366004614476565b611b04565b6107f16107ec366004614a69565b611b50565b6040516105319190614ae2565b60c9546105619062010000900460ff1681565b6033546001600160a01b0316610596565b61051c610830366004614476565b611b5b565b6105966108433660046144c7565b611ba7565b6105966108563660046144c7565b611bb7565b60d454610596906001600160a01b031681565b60cf54610596906001600160a01b031681565b60f054610596906001600160a01b031681565b60f154610596906001600160a01b031681565b60ee54610596906001600160a01b031681565b60cc54610596906001600160a01b031681565b61051c6108db366004614476565b611bc7565b6105966108ee3660046144c7565b611c13565b610527610901366004614af5565b611c23565b61051c610914366004614476565b611de4565b60d654610596906001600160a01b031681565b61051c61093a366004614476565b611e30565b61059661094d3660046144c7565b611eb4565b6105966109603660046144c7565b611ec4565b61051c610973366004614476565b611ed4565b6105966109863660046144c7565b611f20565b61051c610999366004614476565b611f30565b60d254610596906001600160a01b031681565b6105276109bf366004614476565b60e36020526000908152604090205481565b61051c6109df366004614b2e565b611fa8565b6105276109f2366004614af5565b6120ee565b610527610a05366004614512565b612332565b61051c610a183660046144c7565b61282a565b60d354610596906001600160a01b031681565b60d054610596906001600160a01b031681565b61051c610a51366004614476565b612d26565b60da54610596906001600160a01b031681565b60c954610561906301000000900460ff1681565b60c9546105619060ff1681565b61052760ca5481565b60ed54610596906001600160a01b031681565b61051c610ab4366004614476565b612d72565b60ce54610596906001600160a01b031681565b610596610ada3660046144c7565b612e0d565b61051c610aed366004614b63565b612e1d565b6033546001600160a01b03163314610b255760405162461bcd60e51b8152600401610b1c90614beb565b60405180910390fd5b60d280546001600160a01b0319166001600160a01b0392909216919091179055565b60cb546001600160a01b03163314610b715760405162461bcd60e51b8152600401610b1c90614c20565b60cb8054821515600160a01b0260ff60a01b199091161790556040517f125177ac7b8930dac1e59c2b30b1b6b9191b30af40cf6bbb5d20fec4d44be60f90610bbe90831515815260200190565b60405180910390a150565b6033546001600160a01b03163314610bf35760405162461bcd60e51b8152600401610b1c90614beb565b60ca55565b6033546001600160a01b03163314610c225760405162461bcd60e51b8152600401610b1c90614beb565b60d580546001600160a01b0319166001600160a01b0392909216919091179055565b60026065541415610c675760405162461bcd60e51b8152600401610b1c90614c3e565b6002606555610c74612f21565b6001606555565b60cb546001600160a01b03163314610ca55760405162461bcd60e51b8152600401610b1c90614c20565b610cad6130ae565b565b6033546001600160a01b03163314610cd95760405162461bcd60e51b8152600401610b1c90614beb565b60d480546001600160a01b0319166001600160a01b0392909216919091179055565b60e78181548110610d0b57600080fd5b6000918252602090912001546001600160a01b0316905081565b6033546001600160a01b03163314610d4f5760405162461bcd60e51b8152600401610b1c90614beb565b60ce80546001600160a01b0319166001600160a01b0392909216919091179055565b60cb546001600160a01b03163314610d9b5760405162461bcd60e51b8152600401610b1c90614c20565b612328841015610ded5760405162461bcd60e51b815260206004820152601a60248201527f5f656e7472616e6365466565466163746f7220746f6f206c6f770000000000006044820152606401610b1c565b612710841115610e3f5760405162461bcd60e51b815260206004820152601b60248201527f5f656e7472616e6365466565466163746f7220746f6f206869676800000000006044820152606401610b1c565b60de849055612328831015610e965760405162461bcd60e51b815260206004820152601a60248201527f5f7769746864726177466565466163746f7220746f6f206c6f770000000000006044820152606401610b1c565b612710831115610ee85760405162461bcd60e51b815260206004820152601b60248201527f5f7769746864726177466565466163746f7220746f6f206869676800000000006044820152606401610b1c565b60df8390556103e8821115610f3f5760405162461bcd60e51b815260206004820152601760248201527f5f636f6e74726f6c6c657246656520746f6f20686967680000000000000000006044820152606401610b1c565b60db8290556103e8811115610f8e5760405162461bcd60e51b81526020600482015260156024820152740bec4eaf284c2c6d6a4c2e8ca40e8dede40d0d2ced605b1b6044820152606401610b1c565b60dc8190556040805185815260208101859052908101839052606081018290527fd9968429114ac80bd16723a205e45e46393aefba1f08fb7bdffbad9ef60946089060800160405180910390a150505050565b6033546001600160a01b0316331461100b5760405162461bcd60e51b8152600401610b1c90614beb565b60d880546001600160a01b0319166001600160a01b0392909216919091179055565b6033546001600160a01b031633146110575760405162461bcd60e51b8152600401610b1c90614beb565b60d080546001600160a01b0319166001600160a01b0392909216919091179055565b6033546001600160a01b031633146110a35760405162461bcd60e51b8152600401610b1c90614beb565b60d980546001600160a01b0319166001600160a01b0392909216919091179055565b60ea8181548110610d0b57600080fd5b60cc546000906001600160a01b0316336001600160a01b03161461110b5760405162461bcd60e51b8152600401610b1c90614c75565b60975460ff161561112e5760405162461bcd60e51b8152600401610b1c90614c9f565b600083116111755760405162461bcd60e51b8152602060048201526014602482015273057616e7420616d74206d757374206265203e20360641b6044820152606401610b1c565b60d05461118d906001600160a01b0316333086613141565b60ed546000906111a5906001600160a01b03166131ac565b60ee549091506000906111c0906001600160a01b03166131ac565b60c954909150610100900460ff161561128a5760d85460d1546111f0916001600160a01b039182169116876132ec565b611285858364e8d4a510008760e680548060200260200160405190810160405280929190818152602001828054801561125257602002820191906000526020600020905b81546001600160a01b03168152600190910190602001808311611234575b50505050503361126d6102584261339e90919063ffffffff16565b60d8546001600160a01b0316969594939291906133b1565b6114aa565b611295858530613513565b60d1546040516370a0823160e01b81523060048201526000916001600160a01b0316906370a0823190602401602060405180830381865afa1580156112de573d6000803e3d6000fd5b505050506040513d601f19601f820116820180604052508101906113029190614cc9565b60d2546040516370a0823160e01b81523060048201529192506000916001600160a01b03909116906370a0823190602401602060405180830381865afa158015611350573d6000803e3d6000fd5b505050506040513d601f19601f820116820180604052508101906113749190614cc9565b60d85460d154919250611394916001600160a01b039081169116846132ec565b60d85460d2546113b1916001600160a01b039182169116836132ec565b61142c828564e8d4a510008960e6805480602002602001604051908101604052809291908181526020018280548015611252576020028201919060005260206000209081546001600160a01b031681526001909101906020018083116112345750505050503361126d6102584261339e90919063ffffffff16565b6114a7818464e8d4a510008960e7805480602002602001604051908101604052809291908181526020018280548015611252576020028201919060005260206000209081546001600160a01b031681526001909101906020018083116112345750505050503361126d6102584261339e90919063ffffffff16565b50505b60d5546040516370a0823160e01b81523360048201526001600160a01b03909116906370a0823190602401602060405180830381865afa1580156114f2573d6000803e3d6000fd5b505050506040513d601f19601f820116820180604052508101906115169190614cc9565b925050505b92915050565b60cb546001600160a01b0316331461154b5760405162461bcd60e51b8152600401610b1c90614c20565b60d3546001600160a01b03848116911614156115915760405162461bcd60e51b8152602060048201526005602482015264217361666560d81b6044820152606401610b1c565b60d0546001600160a01b03848116911614156115d75760405162461bcd60e51b8152602060048201526005602482015264217361666560d81b6044820152606401610b1c565b6115eb6001600160a01b0384168284613782565b505050565b600054610100900460ff1661160b5760005460ff161561160f565b303b155b61162b5760405162461bcd60e51b8152600401610b1c90614ce2565b600054610100900460ff1615801561164d576000805461ffff19166101011790555b815160ca5560208083015160c980546080808701516040808901516060808b015161ffff1990961697151561ff0019169790971761010093151584021763ffff00001916620100009115159190910263ff0000001916176301000000941515949094029390931790935560a080880151805160cb8054600160a01b6001600160a01b039384166001600160a81b0319909216919091171790558188015160cc80546001600160a01b03199081169284169290921790558286015160ce805483169184169190911790558288015160cf805483169184169190911790558285015160d0805483169184169190911790559282015160d18054851691831691909117905560e082015160d3805485169183169190911790559481015160d48054841691871691909117905561012081015160d68054841691871691909117905561014081015160d78054841691871691909117905561016081015160d88054841691871691909117905561018081015160d9805484169187169190911790556101a08082015160da805485169188169190911790556101c09091015160d58054909316951694909417905591860151805160db558085015160dc559081015160dd559182015160de55015160df5560c0830151805161182e9260ea920190614391565b5060e082015180516118489160e891602090910190614391565b5061010082015180516118639160e991602090910190614391565b50610120820151805161187e9160e491602090910190614391565b5061014082015180516118999160e591602090910190614391565b5061016082015180516118b49160eb91602090910190614391565b5061018082015180516118cf9160ec91602090910190614391565b5061193360e480548060200260200160405190810160405280929190818152602001828054801561192957602002820191906000526020600020905b81546001600160a01b0316815260019091019060200180831161190b575b50505050506137b2565b80516119479160e691602090910190614391565b506119a960e5805480602002602001604051908101604052809291908181526020018280548015611929576020028201919060005260206000209081546001600160a01b0316815260019091019060200180831161190b5750505050506137b2565b80516119bd9160e791602090910190614391565b506101c0820151805160ed80546001600160a01b03199081166001600160a01b0393841617909155602083015160ee80548316918416919091179055604083015160ef80548316918416919091179055608083015160f08054831691841691909117905560609092015160f180549093169116179055611a3c83611e30565b80156115eb576000805461ff0019169055505050565b6033546001600160a01b03163314611a7c5760405162461bcd60e51b8152600401610b1c90614beb565b60cf80546001600160a01b0319166001600160a01b0392909216919091179055565b6033546001600160a01b03163314611ac85760405162461bcd60e51b8152600401610b1c90614beb565b610cad600061388c565b60cb546001600160a01b03163314611afc5760405162461bcd60e51b8152600401610b1c90614c20565b610cad6138de565b6033546001600160a01b03163314611b2e5760405162461bcd60e51b8152600401610b1c90614beb565b60d680546001600160a01b0319166001600160a01b0392909216919091179055565b606061151b826137b2565b6033546001600160a01b03163314611b855760405162461bcd60e51b8152600401610b1c90614beb565b60da80546001600160a01b0319166001600160a01b0392909216919091179055565b60e98181548110610d0b57600080fd5b60ec8181548110610d0b57600080fd5b6033546001600160a01b03163314611bf15760405162461bcd60e51b8152600401610b1c90614beb565b60d380546001600160a01b0319166001600160a01b0392909216919091179055565b60e48181548110610d0b57600080fd5b60cc546000906001600160a01b0316336001600160a01b031614611c595760405162461bcd60e51b8152600401610b1c90614c75565b60026065541415611c7c5760405162461bcd60e51b8152600401610b1c90614c3e565b600260655560975460ff1615611ca45760405162461bcd60e51b8152600401610b1c90614c9f565b60008211611cf45760405162461bcd60e51b815260206004820152601e60248201527f57616e7420746f6b656e206465706f736974206d757374206265203e203000006044820152606401610b1c565b60d054611d0c906001600160a01b0316333085613141565b819050600060e154118015611d235750600060e254115b15611d5e57611d5b612710611d5560e154611d5560de54611d4f60e2548961393690919063ffffffff16565b90613936565b90613942565b90505b60e254611d6b908261339e565b60e2556001600160a01b038316600090815260e36020526040902054611d91908261339e565b6001600160a01b038416600090815260e3602052604090205560c95462010000900460ff1615611dc857611dc3612f21565b611dd9565b60e154611dd5908361339e565b60e1555b600160655592915050565b6033546001600160a01b03163314611e0e5760405162461bcd60e51b8152600401610b1c90614beb565b60cc80546001600160a01b0319166001600160a01b0392909216919091179055565b600054610100900460ff16611e4b5760005460ff1615611e4f565b303b155b611e6b5760405162461bcd60e51b8152600401610b1c90614ce2565b600054610100900460ff16158015611e8d576000805461ffff19166101011790555b611e9561394e565b611e9e82612d72565b8015611eb0576000805461ff00191690555b5050565b60e58181548110610d0b57600080fd5b60e68181548110610d0b57600080fd5b6033546001600160a01b03163314611efe5760405162461bcd60e51b8152600401610b1c90614beb565b60d180546001600160a01b0319166001600160a01b0392909216919091179055565b60e88181548110610d0b57600080fd5b60cb546001600160a01b03163314611f5a5760405162461bcd60e51b8152600401610b1c90614c20565b60cb80546001600160a01b0319166001600160a01b0383169081179091556040519081527f91a8c1cc2d4a3bb60738481947a00cbb9899c822916694cf8bb1d68172fdcd5490602001610bbe565b6033546001600160a01b03163314611fd25760405162461bcd60e51b8152600401610b1c90614beb565b60ff8216611ffb5760ed80546001600160a01b0383166001600160a01b03199091161790555050565b8160ff16600114156120285760ee80546001600160a01b0383166001600160a01b03199091161790555050565b8160ff16600214156120555760ef80546001600160a01b0383166001600160a01b03199091161790555050565b8160ff16600314156120825760f180546001600160a01b0383166001600160a01b03199091161790555050565b8160ff16600414156120af5760f080546001600160a01b0383166001600160a01b03199091161790555050565b60405162461bcd60e51b81526020600482015260146024820152730eadce6eae0e0dee4e8cac840cccacac840d2c8f60631b6044820152606401610b1c565b60cc546000906001600160a01b0316336001600160a01b0316146121245760405162461bcd60e51b8152600401610b1c90614c75565b600260655414156121475760405162461bcd60e51b8152600401610b1c90614c3e565b600260655560975460ff161561216f5760405162461bcd60e51b8152600401610b1c90614c9f565b600082116121af5760405162461bcd60e51b815260206004820152600d60248201526c077616e7420616d74203c3d203609c1b6044820152606401610b1c565b60006121cc60e154611d5560e2548661393690919063ffffffff16565b905060e2548111156121dd575060e2545b60e2546121ea908261397d565b60e2556001600160a01b038416600090815260e36020526040902054612210908261397d565b6001600160a01b038516600090815260e3602052604090205560df54612710111561225357612250612710611d5560df548661393690919063ffffffff16565b92505b60c95462010000900460ff161561226d5761226d83613989565b60d0546040516370a0823160e01b81523060048201526000916001600160a01b0316906370a0823190602401602060405180830381865afa1580156122b6573d6000803e3d6000fd5b505050506040513d601f19601f820116820180604052508101906122da9190614cc9565b9050808411156122e8578093505b8360e15410156122f85760e15493505b60e154612305908561397d565b60e15560cc5460d054612325916001600160a01b03918216911686613782565b5060016065559392505050565b60cc546000906001600160a01b0316336001600160a01b0316146123685760405162461bcd60e51b8152600401610b1c90614c75565b60975460ff161561238b5760405162461bcd60e51b8152600401610b1c90614c9f565b60d5546040516370a0823160e01b81523360048201526000916001600160a01b0316906370a0823190602401602060405180830381865afa1580156123d4573d6000803e3d6000fd5b505050506040513d601f19601f820116820180604052508101906123f89190614cc9565b90506000841161244a5760405162461bcd60e51b815260206004820152601860248201527f55534443206465706f736974206d757374206265203e203000000000000000006044820152606401610b1c565b8084111561249a5760405162461bcd60e51b815260206004820152601960248201527f5553444320646573697265642065786365656465642062616c000000000000006044820152606401610b1c565b60ed546000906124b2906001600160a01b03166131ac565b60ee549091506000906124cd906001600160a01b03166131ac565b60d85460d5549192506124ed916001600160a01b039081169116886132ec565b60c954610100900460ff161561257d576125788664e8d4a51000848860e4805480602002602001604051908101604052809291908181526020018280548015611252576020028201919060005260206000209081546001600160a01b031681526001909101906020018083116112345750505050503361126d6102584261339e90919063ffffffff16565b6127b4565b61260461258b876002613942565b64e8d4a51000848860e48054806020026020016040519081016040528092919081815260200182805480156125e957602002820191906000526020600020905b81546001600160a01b031681526001909101906020018083116125cb575b50505050503061126d6102584261339e90919063ffffffff16565b612689612612876002613942565b64e8d4a51000838860e58054806020026020016040519081016040528092919081815260200182805480156125e9576020028201919060005260206000209081546001600160a01b031681526001909101906020018083116125cb5750505050503061126d6102584261339e90919063ffffffff16565b60d1546040516370a0823160e01b81523060048201526000916001600160a01b0316906370a0823190602401602060405180830381865afa1580156126d2573d6000803e3d6000fd5b505050506040513d601f19601f820116820180604052508101906126f69190614cc9565b60d2546040516370a0823160e01b81523060048201529192506000916001600160a01b03909116906370a0823190602401602060405180830381865afa158015612744573d6000803e3d6000fd5b505050506040513d601f19601f820116820180604052508101906127689190614cc9565b60d85460d154919250612788916001600160a01b039081169116846132ec565b60d85460d2546127a5916001600160a01b039182169116836132ec565b6127b182828933613a01565b50505b60d0546040516370a0823160e01b81523360048201526001600160a01b03909116906370a0823190602401602060405180830381865afa1580156127fc573d6000803e3d6000fd5b505050506040513d601f19601f820116820180604052508101906128209190614cc9565b9695505050505050565b6002606554141561284d5760405162461bcd60e51b8152600401610b1c90614c3e565b600260655560975460ff16156128755760405162461bcd60e51b8152600401610b1c90614c9f565b60c95462010000900460ff166128bc5760405162461bcd60e51b815260206004820152600c60248201526b02169735a6f72726f436f6d760a41b6044820152606401610b1c565b60cb54600160a01b900460ff16156128f85760cb546001600160a01b031633146128f85760405162461bcd60e51b8152600401610b1c90614c20565b6129026000613989565b60d3546040516370a0823160e01b81523060048201526000916001600160a01b0316906370a0823190602401602060405180830381865afa15801561294b573d6000803e3d6000fd5b505050506040513d601f19601f8201168201806040525081019061296f9190614cc9565b60ef5490915060009061298a906001600160a01b03166131ac565b60ed549091506000906129a5906001600160a01b03166131ac565b60ee549091506000906129c0906001600160a01b03166131ac565b60f1549091506000906129db906001600160a01b03166131ac565b60f1549091506000906129f6906001600160a01b03166131ac565b6040805160608101825287815260208101859052908101829052909150612a1c87613abe565b9650612a29878983613b1d565b60c95490975060ff1680612a44575060c954610100900460ff165b15612a61574360e055612a55612f21565b50505050505050612d1e565b60d85460d354612a7f916001600160a01b0391821691166000613c1d565b60d85460d354612a9c916001600160a01b039182169116896132ec565b60d15460d3546001600160a01b03908116911614612b3457612b34612ac2886002613942565b87878b60e88054806020026020016040519081016040528092919081815260200182805480156125e9576020028201919060005260206000209081546001600160a01b031681526001909101906020018083116125cb5750505050503061126d6102584261339e90919063ffffffff16565b60d25460d3546001600160a01b03908116911614612bcc57612bcc612b5a886002613942565b87868b60e98054806020026020016040519081016040528092919081815260200182805480156125e9576020028201919060005260206000209081546001600160a01b031681526001909101906020018083116125cb5750505050503061126d6102584261339e90919063ffffffff16565b60d1546040516370a0823160e01b81523060048201526000916001600160a01b0316906370a0823190602401602060405180830381865afa158015612c15573d6000803e3d6000fd5b505050506040513d601f19601f82011682018060405250810190612c399190614cc9565b60d2546040516370a0823160e01b81523060048201529192506000916001600160a01b03909116906370a0823190602401602060405180830381865afa158015612c87573d6000803e3d6000fd5b505050506040513d601f19601f82011682018060405250810190612cab9190614cc9565b9050600082118015612cbd5750600081115b15612d085760d85460d154612cdf916001600160a01b039182169116846132ec565b60d85460d254612cfc916001600160a01b039182169116836132ec565b612d0882828c30613a01565b4360e055612d14612f21565b5050505050505050505b506001606555565b6033546001600160a01b03163314612d505760405162461bcd60e51b8152600401610b1c90614beb565b60d780546001600160a01b0319166001600160a01b0392909216919091179055565b6033546001600160a01b03163314612d9c5760405162461bcd60e51b8152600401610b1c90614beb565b6001600160a01b038116612e015760405162461bcd60e51b815260206004820152602660248201527f4f776e61626c653a206e6577206f776e657220697320746865207a65726f206160448201526564647265737360d01b6064820152608401610b1c565b612e0a8161388c565b50565b60eb8181548110610d0b57600080fd5b6033546001600160a01b03163314612e475760405162461bcd60e51b8152600401610b1c90614beb565b60ff8316612e6157612e5b60e483836143f2565b50505050565b8260ff1660011415612e7957612e5b60e583836143f2565b8260ff1660021415612e9157612e5b60e683836143f2565b8260ff1660031415612ea957612e5b60e783836143f2565b8260ff1660041415612ec157612e5b60e883836143f2565b8260ff1660051415612ed957612e5b60e983836143f2565b8260ff1660061415612ef157612e5b60ea83836143f2565b8260ff1660071415612f0957612e5b60eb83836143f2565b8260ff16600814156120af57612e5b60ec83836143f2565b60c95462010000900460ff16612f685760405162461bcd60e51b815260206004820152600c60248201526b02169735a6f72726f436f6d760a41b6044820152606401610b1c565b60d0546040516370a0823160e01b81523060048201526000916001600160a01b0316906370a0823190602401602060405180830381865afa158015612fb1573d6000803e3d6000fd5b505050506040513d601f19601f82011682018060405250810190612fd59190614cc9565b60e154909150612fe5908261339e565b60e15560d45460d054613005916001600160a01b039182169116836132ec565b60c95460ff16156130725760d4546040516341441d3b60e01b8152600481018390526001600160a01b03909116906341441d3b906024015b600060405180830381600087803b15801561305757600080fd5b505af115801561306b573d6000803e3d6000fd5b5050505050565b60d45460ca54604051631c57762b60e31b81526001600160a01b039092169163e2bbb1589161303d918590600401918252602082015260400190565b60975460ff166130f75760405162461bcd60e51b815260206004820152601460248201527314185d5cd8589b194e881b9bdd081c185d5cd95960621b6044820152606401610b1c565b6097805460ff191690557f5db9ee0a495bf2e6ff9c91a7834c1ba4fdd244a5e8aa4e537bd38aeae4b073aa335b6040516001600160a01b03909116815260200160405180910390a1565b6040516001600160a01b0380851660248301528316604482015260648101829052612e5b9085906323b872dd60e01b906084015b60408051601f198184030181529190526020810180516001600160e01b03166001600160e01b031990931692909217909152613d32565b600080826001600160a01b031663313ce5676040518163ffffffff1660e01b8152600401602060405180830381865afa1580156131ed573d6000803e3d6000fd5b505050506040513d601f19601f820116820180604052508101906132119190614d30565b90506000836001600160a01b031663feaf968c6040518163ffffffff1660e01b815260040160a060405180830381865afa158015613253573d6000803e3d6000fd5b505050506040513d601f19601f820116820180604052508101906132779190614d67565b50505091505060008112156132c75760405162461bcd60e51b81526020600482015260166024820152751b9959c81c1c9a58d95cc81b9bdd08185b1b1bddd95960521b6044820152606401610b1c565b6132e46132d583600a614eb1565b611d558364e8d4a51000613936565b949350505050565b604051636eb1769f60e11b81523060048201526001600160a01b038381166024830152600091839186169063dd62ed3e90604401602060405180830381865afa15801561333d573d6000803e3d6000fd5b505050506040513d601f19601f820116820180604052508101906133619190614cc9565b61336b9190614ec0565b6040516001600160a01b038516602482015260448101829052909150612e5b90859063095ea7b360e01b90606401613175565b60006133aa8284614ec0565b9392505050565b60008615806133be575085155b156134895760405163d06ca61f60e01b81526000906001600160a01b038b169063d06ca61f906133f4908c908990600401614ed8565b600060405180830381865afa158015613411573d6000803e3d6000fd5b505050506040513d6000823e601f3d908101601f191682016040526134399190810190614ef1565b90506134816103e8611d55888461345b6001875161397d90919063ffffffff16565b8151811061346b5761346b614f77565b602002602001015161393690919063ffffffff16565b9150506134a2565b61349f6103e8611d5587611d4f8a838e8e613936565b90505b604051635c11d79560e01b81526001600160a01b038a1690635c11d795906134d6908b908590899089908990600401614f8d565b600060405180830381600087803b1580156134f057600080fd5b505af1158015613504573d6000803e3d6000fd5b50505050505050505050505050565b60d15460d7546040516370a0823160e01b81526001600160a01b03918216600482015260009291909116906370a0823190602401602060405180830381865afa158015613564573d6000803e3d6000fd5b505050506040513d601f19601f820116820180604052508101906135889190614cc9565b60d25460d7546040516370a0823160e01b81526001600160a01b0391821660048201529293506000929116906370a0823190602401602060405180830381865afa1580156135da573d6000803e3d6000fd5b505050506040513d601f19601f820116820180604052508101906135fe9190614cc9565b9050600060d760009054906101000a90046001600160a01b03166001600160a01b03166318160ddd6040518163ffffffff1660e01b8152600401602060405180830381865afa158015613655573d6000803e3d6000fd5b505050506040513d601f19601f820116820180604052508101906136799190614cc9565b905060006136936103e8611d5588611d4f86838d8b613936565b905060006136ad6103e8611d5589611d4f87838e8b613936565b60d85460d15460d2549293506001600160a01b039182169263baa2abde9291821691168b86868c6136e04261025861339e565b60405160e089901b6001600160e01b03191681526001600160a01b039788166004820152958716602487015260448601949094526064850192909252608484015290921660a482015260c481019190915260e40160408051808303816000875af1158015613752573d6000803e3d6000fd5b505050506040513d601f19601f820116820180604052508101906137769190614fc9565b50505050505050505050565b6040516001600160a01b0383166024820152604481018290526115eb90849063a9059cbb60e01b90606401613175565b80516060908067ffffffffffffffff8111156137d0576137d0614570565b6040519080825280602002602001820160405280156137f9578160200160208202803683370190505b50915060005b818161ffff161015613885578361382f8261ffff166138296001885161397d90919063ffffffff16565b9061397d565b8151811061383f5761383f614f77565b6020026020010151838261ffff168151811061385d5761385d614f77565b6001600160a01b039092166020928302919091019091015261387e81614fed565b90506137ff565b5050919050565b603380546001600160a01b038381166001600160a01b0319831681179093556040519116919082907f8be0079c531659141344cd1fd0a4f28419497f9722a3daafe3b4186f6b6457e090600090a35050565b60975460ff16156139015760405162461bcd60e51b8152600401610b1c90614c9f565b6097805460ff191660011790557f62e78cea01bee320cd4e420270b5ea74000d11b0c9f74754ebdbfc544b05a2586131243390565b60006133aa828461500f565b60006133aa828461502e565b600054610100900460ff166139755760405162461bcd60e51b8152600401610b1c90615050565b610cad613e04565b60006133aa828461509b565b60c95460ff16156139c55760d454604051631058d28160e01b8152600481018390526001600160a01b0390911690631058d2819060240161303d565b60d45460ca54604051630441a3e760e41b81526001600160a01b039092169163441a3e709161303d918590600401918252602082015260400190565b60d85460d15460d2546001600160a01b039283169263e8e3370092811691168787613a326103e8611d55848b613936565b613a426103e8611d558c8c613936565b88613a4f4261025861339e565b6040518963ffffffff1660e01b8152600401613a729897969594939291906150b2565b6060604051808303816000875af1158015613a91573d6000803e3d6000fd5b505050506040513d601f19601f82011682018060405250810190613ab591906150fb565b50505050505050565b60008115613b195760db5415613b19576000613aeb612710611d5560db548661393690919063ffffffff16565b60d65460d354919250613b0b916001600160a01b03908116911683613782565b613b15838261397d565b9250505b5090565b60dc54600090819015613b4857613b45612710611d5560dc548861393690919063ffffffff16565b90505b600060c9546301000000900460ff1615613b7757613b67828686613e34565b613b7281868661413d565b613c0f565b613b97613b84838361339e565b60cc546001600160a01b031687876141df565b60cd5460ca5460405163464e3c8b60e01b815260048101919091526024810184905260448101839052606481018790526001600160a01b039091169063464e3c8b90608401600060405180830381600087803b158015613bf657600080fd5b505af1158015613c0a573d6000803e3d6000fd5b505050505b61282081613829888561397d565b801580613c975750604051636eb1769f60e11b81523060048201526001600160a01b03838116602483015284169063dd62ed3e90604401602060405180830381865afa158015613c71573d6000803e3d6000fd5b505050506040513d601f19601f82011682018060405250810190613c959190614cc9565b155b613d025760405162461bcd60e51b815260206004820152603660248201527f5361666545524332303a20617070726f76652066726f6d206e6f6e2d7a65726f60448201527520746f206e6f6e2d7a65726f20616c6c6f77616e636560501b6064820152608401610b1c565b6040516001600160a01b0383166024820152604481018290526115eb90849063095ea7b360e01b90606401613175565b6000613d87826040518060400160405280602081526020017f5361666545524332303a206c6f772d6c6576656c2063616c6c206661696c6564815250856001600160a01b031661427d9092919063ffffffff16565b8051909150156115eb5780806020019051810190613da59190615129565b6115eb5760405162461bcd60e51b815260206004820152602a60248201527f5361666545524332303a204552433230206f7065726174696f6e20646964206e6044820152691bdd081cdd58d8d9595960b21b6064820152608401610b1c565b600054610100900460ff16613e2b5760405162461bcd60e51b8152600401610b1c90615050565b610cad3361388c565b60d85460d354613e51916001600160a01b039182169116856132ec565b613ed9613e5f846002613942565b826000015183602001518560ea8054806020026020016040519081016040528092919081815260200182805480156125e9576020028201919060005260206000209081546001600160a01b031681526001909101906020018083116125cb5750505050503061126d6102584261339e90919063ffffffff16565b613f61613ee7846002613942565b826000015183604001518560eb8054806020026020016040519081016040528092919081815260200182805480156125e9576020028201919060005260206000209081546001600160a01b031681526001909101906020018083116125cb5750505050503061126d6102584261339e90919063ffffffff16565b60ce546040516370a0823160e01b81523060048201526000916001600160a01b0316906370a0823190602401602060405180830381865afa158015613faa573d6000803e3d6000fd5b505050506040513d601f19601f82011682018060405250810190613fce9190614cc9565b60da546040516370a0823160e01b81523060048201529192506000916001600160a01b03909116906370a0823190602401602060405180830381865afa15801561401c573d6000803e3d6000fd5b505050506040513d601f19601f820116820180604052508101906140409190614cc9565b60d85460ce54919250614060916001600160a01b039081169116846132ec565b60d85460da5461407d916001600160a01b039182169116836132ec565b60d85460ce5460da546001600160a01b039283169263e8e33700928116911685856140ae6103e8611d55848d613936565b6140be6103e8611d558a8e613936565b61dead6140cd4261025861339e565b6040518963ffffffff1660e01b81526004016140f09897969594939291906150b2565b6060604051808303816000875af115801561410f573d6000803e3d6000fd5b505050506040513d601f19601f8201168201806040525081019061413391906150fb565b5050505050505050565b60d85460d35461415a916001600160a01b039182169116856132ec565b6115eb83826000015183602001518560ea8054806020026020016040519081016040528092919081815260200182805480156141bf57602002820191906000526020600020905b81546001600160a01b031681526001909101906020018083116141a1575b505060cf546001600160a01b0316925061126d915042905061025861339e565b60d85460d3546141fc916001600160a01b039182169116866132ec565b612e5b84826000015164e8d4a510008560ec80548060200260200160405190810160405280929190818152602001828054801561426257602002820191906000526020600020905b81546001600160a01b03168152600190910190602001808311614244575b50505050508861126d6102584261339e90919063ffffffff16565b60606132e48484600085856001600160a01b0385163b6142df5760405162461bcd60e51b815260206004820152601d60248201527f416464726573733a2063616c6c20746f206e6f6e2d636f6e74726163740000006044820152606401610b1c565b600080866001600160a01b031685876040516142fb9190615172565b60006040518083038185875af1925050503d8060008114614338576040519150601f19603f3d011682016040523d82523d6000602084013e61433d565b606091505b509150915061434d828286614358565b979650505050505050565b606083156143675750816133aa565b8251156143775782518084602001fd5b8160405162461bcd60e51b8152600401610b1c919061518e565b8280548282559060005260206000209081019282156143e6579160200282015b828111156143e657825182546001600160a01b0319166001600160a01b039091161782556020909201916001909101906143b1565b50613b19929150614445565b8280548282559060005260206000209081019282156143e6579160200282015b828111156143e65781546001600160a01b0319166001600160a01b03843516178255602090920191600190910190614412565b5b80821115613b195760008155600101614446565b80356001600160a01b038116811461447157600080fd5b919050565b60006020828403121561448857600080fd5b6133aa8261445a565b8015158114612e0a57600080fd5b803561447181614491565b6000602082840312156144bc57600080fd5b81356133aa81614491565b6000602082840312156144d957600080fd5b5035919050565b600080600080608085870312156144f657600080fd5b5050823594602084013594506040840135936060013592509050565b6000806040838503121561452557600080fd5b50508035926020909101359150565b60008060006060848603121561454957600080fd5b6145528461445a565b9250602084013591506145676040850161445a565b90509250925092565b634e487b7160e01b600052604160045260246000fd5b6040516101e0810167ffffffffffffffff811182821017156145aa576145aa614570565b60405290565b60405160a0810167ffffffffffffffff811182821017156145aa576145aa614570565b604051601f8201601f1916810167ffffffffffffffff811182821017156145fc576145fc614570565b604052919050565b60006101e0828403121561461757600080fd5b61461f614586565b905061462a8261445a565b81526146386020830161445a565b60208201526146496040830161445a565b604082015261465a6060830161445a565b606082015261466b6080830161445a565b608082015261467c60a0830161445a565b60a082015261468d60c0830161445a565b60c082015261469e60e0830161445a565b60e08201526101006146b181840161445a565b908201526101206146c383820161445a565b908201526101406146d583820161445a565b908201526101606146e783820161445a565b908201526101806146f983820161445a565b908201526101a061470b83820161445a565b908201526101c061471d83820161445a565b9082015292915050565b600067ffffffffffffffff82111561474157614741614570565b5060051b60200190565b600082601f83011261475c57600080fd5b8135602061477161476c83614727565b6145d3565b82815260059290921b8401810191818101908684111561479057600080fd5b8286015b848110156147b2576147a58161445a565b8352918301918301614794565b509695505050505050565b600060a082840312156147cf57600080fd5b6147d76145b0565b9050813581526020820135602082015260408201356040820152606082013560608201526080820135608082015292915050565b600060a0828403121561481d57600080fd5b6148256145b0565b90506148308261445a565b815261483e6020830161445a565b602082015261484f6040830161445a565b60408201526148606060830161445a565b60608201526148716080830161445a565b608082015292915050565b6000806040838503121561488f57600080fd5b6148988361445a565b9150602083013567ffffffffffffffff808211156148b557600080fd5b908401906104a082870312156148ca57600080fd5b6148d2614586565b823581526148e26020840161449f565b60208201526148f36040840161449f565b60408201526149046060840161449f565b60608201526149156080840161449f565b60808201526149278760a08501614604565b60a08201526102808301358281111561493f57600080fd5b61494b8882860161474b565b60c0830152506102a08301358281111561496457600080fd5b6149708882860161474b565b60e0830152506102c08301358281111561498957600080fd5b6149958882860161474b565b610100830152506102e0830135828111156149af57600080fd5b6149bb8882860161474b565b61012083015250610300830135828111156149d557600080fd5b6149e18882860161474b565b61014083015250610320830135828111156149fb57600080fd5b614a078882860161474b565b6101608301525061034083013582811115614a2157600080fd5b614a2d8882860161474b565b61018083015250614a428761036085016147bd565b6101a0820152614a5687610400850161480b565b6101c08201528093505050509250929050565b600060208284031215614a7b57600080fd5b813567ffffffffffffffff811115614a9257600080fd5b6132e48482850161474b565b600081518084526020808501945080840160005b83811015614ad75781516001600160a01b031687529582019590820190600101614ab2565b509495945050505050565b6020815260006133aa6020830184614a9e565b60008060408385031215614b0857600080fd5b614b118361445a565b946020939093013593505050565b60ff81168114612e0a57600080fd5b60008060408385031215614b4157600080fd5b8235614b4c81614b1f565b9150614b5a6020840161445a565b90509250929050565b600080600060408486031215614b7857600080fd5b8335614b8381614b1f565b9250602084013567ffffffffffffffff80821115614ba057600080fd5b818601915086601f830112614bb457600080fd5b813581811115614bc357600080fd5b8760208260051b8501011115614bd857600080fd5b6020830194508093505050509250925092565b6020808252818101527f4f776e61626c653a2063616c6c6572206973206e6f7420746865206f776e6572604082015260600190565b60208082526004908201526310b3b7bb60e11b604082015260600190565b6020808252601f908201527f5265656e7472616e637947756172643a207265656e7472616e742063616c6c00604082015260600190565b60208082526010908201526f10bd37b93937a1b7b73a3937b63632b960811b604082015260600190565b60208082526010908201526f14185d5cd8589b194e881c185d5cd95960821b604082015260600190565b600060208284031215614cdb57600080fd5b5051919050565b6020808252602e908201527f496e697469616c697a61626c653a20636f6e747261637420697320616c72656160408201526d191e481a5b9a5d1a585b1a5e995960921b606082015260800190565b600060208284031215614d4257600080fd5b81516133aa81614b1f565b805169ffffffffffffffffffff8116811461447157600080fd5b600080600080600060a08688031215614d7f57600080fd5b614d8886614d4d565b9450602086015193506040860151925060608601519150614dab60808701614d4d565b90509295509295909350565b634e487b7160e01b600052601160045260246000fd5b600181815b80851115614e08578160001904821115614dee57614dee614db7565b80851615614dfb57918102915b93841c9390800290614dd2565b509250929050565b600082614e1f5750600161151b565b81614e2c5750600061151b565b8160018114614e425760028114614e4c57614e68565b600191505061151b565b60ff841115614e5d57614e5d614db7565b50506001821b61151b565b5060208310610133831016604e8410600b8410161715614e8b575081810a61151b565b614e958383614dcd565b8060001904821115614ea957614ea9614db7565b029392505050565b60006133aa60ff841683614e10565b60008219821115614ed357614ed3614db7565b500190565b8281526040602082015260006132e46040830184614a9e565b60006020808385031215614f0457600080fd5b825167ffffffffffffffff811115614f1b57600080fd5b8301601f81018513614f2c57600080fd5b8051614f3a61476c82614727565b81815260059190911b82018301908381019087831115614f5957600080fd5b928401925b8284101561434d57835182529284019290840190614f5e565b634e487b7160e01b600052603260045260246000fd5b85815284602082015260a060408201526000614fac60a0830186614a9e565b6001600160a01b0394909416606083015250608001529392505050565b60008060408385031215614fdc57600080fd5b505080516020909101519092909150565b600061ffff8083168181141561500557615005614db7565b6001019392505050565b600081600019048311821515161561502957615029614db7565b500290565b60008261504b57634e487b7160e01b600052601260045260246000fd5b500490565b6020808252602b908201527f496e697469616c697a61626c653a20636f6e7472616374206973206e6f74206960408201526a6e697469616c697a696e6760a81b606082015260800190565b6000828210156150ad576150ad614db7565b500390565b6001600160a01b039889168152968816602088015260408701959095526060860193909352608085019190915260a084015290921660c082015260e08101919091526101000190565b60008060006060848603121561511057600080fd5b8351925060208401519150604084015190509250925092565b60006020828403121561513b57600080fd5b81516133aa81614491565b60005b83811015615161578181015183820152602001615149565b83811115612e5b5750506000910152565b60008251615184818460208701615146565b9190910192915050565b60208152600082518060208401526151ad816040850160208701615146565b601f01601f1916919091016040019291505056fea264697066735822122030c7daf1b50d9faab6d624d5609f767e8acf32bd7152f85517b615be4b3b0c0664736f6c634300080a0033",
  "immutableReferences": {},
  "source": "// SPDX-License-Identifier: MIT\n\npragma solidity ^0.8.0;\n\nimport \"../VaultStandardAMM.sol\";\n\ncontract MockVaultFactoryStandardAMM is VaultFactoryStandardAMM {\n\n}\n\ncontract MockVaultStandardAMM is VaultStandardAMM {\n    function reversePath(address[] memory _path) public pure returns (address[] memory) {\n        return _reversePath(_path);        \n    }\n}",
  "sourcePath": "/Users/kristophm/Documents/workspace/zorro-protocol/contracts/vaults/mocks/MockVaultStandardAMM.sol",
  "compiler": {
    "name": "solc",
    "version": "0.8.10+commit.fc410830.Emscripten.clang"
  },
  "schemaVersion": "3.4.4",
  "updatedAt": "2022-04-25T12:11:28.309Z",
  "networkType": "ethereum",
  "devdoc": {
    "kind": "dev",
    "methods": {
      "depositWantToken(address,uint256)": {
        "params": {
          "_account": "The address of the end user account making the deposit",
          "_wantAmt": "The amount of Want token to deposit (must already be transferred)"
        },
        "returns": {
          "sharesAdded": "Number of shares added"
        }
      },
      "earn(uint256)": {
        "params": {
          "_maxMarketMovementAllowed": "The max slippage allowed. 1000 = 0 %, 995 = 0.5%, etc."
        }
      },
      "exchangeUSDForWantToken(uint256,uint256)": {
        "params": {
          "_amountUSDC": "The amount of USDC to exchange for Want token (must already be deposited on this contract)",
          "_maxMarketMovementAllowed": "The max slippage allowed. 1000 = 0 %, 995 = 0.5%, etc."
        },
        "returns": {
          "_0": "uint256 Amount of Want token obtained"
        }
      },
      "exchangeWantTokenForUSD(uint256,uint256)": {
        "params": {
          "_amount": "The Want token quantity to exchange",
          "_maxMarketMovementAllowed": "The max slippage allowed for swaps. 1000 = 0 %, 995 = 0.5%, etc."
        },
        "returns": {
          "_0": "uint256 Amount of USDC token obtained"
        }
      },
      "inCaseTokensGetStuck(address,uint256,address)": {
        "params": {
          "_amount": "The amount of the tokens to transfer",
          "_to": "The address to transfer tokens to",
          "_token": "Address of the ERC20 token to transfer"
        }
      },
      "initialize(address,(uint256,bool,bool,bool,bool,(address,address,address,address,address,address,address,address,address,address,address,address,address,address,address),address[],address[],address[],address[],address[],address[],address[],(uint256,uint256,uint256,uint256,uint256),(address,address,address,address,address)))": {
        "params": {
          "_initValue": "A VaultStandardAMMInit struct with all constructor params",
          "_timelockOwner": "The designated timelock controller address to act as owner"
        }
      },
      "owner()": {
        "details": "Returns the address of the current owner."
      },
      "paused()": {
        "details": "Returns true if the contract is paused, and false otherwise."
      },
      "renounceOwnership()": {
        "details": "Leaves the contract without owner. It will not be possible to call `onlyOwner` functions anymore. Can only be called by the current owner. NOTE: Renouncing ownership will leave the contract without an owner, thereby removing any functionality that is only available to the owner."
      },
      "setFeeSettings(uint256,uint256,uint256,uint256)": {
        "params": {
          "_buyBackRate": "Buy back rate fee numerator",
          "_controllerFee": "Controller fee numerator",
          "_entranceFeeFactor": "Entrance fee numerator (higher means smaller percentage)",
          "_withdrawFeeFactor": "Withdrawal fee numerator (higher means smaller percentage)"
        }
      },
      "setGov(address)": {
        "params": {
          "_govAddress": "The new gov address"
        }
      },
      "setOnlyGov(bool)": {
        "params": {
          "_onlyGov": "whether onlyGov should be enforced"
        }
      },
      "transferOwnership(address)": {
        "details": "Transfers ownership of the contract to a new account (`newOwner`). Can only be called by the current owner."
      },
      "withdrawWantToken(address,uint256)": {
        "params": {
          "_account": "Address of user",
          "_wantAmt": "The amount of Want token to withdraw"
        },
        "returns": {
          "_0": "uint256 The number of shares removed"
        }
      }
    },
    "version": 1
  },
  "userdoc": {
    "kind": "user",
    "methods": {
      "depositWantToken(address,uint256)": {
        "notice": "Receives new deposits from user"
      },
      "earn(uint256)": {
        "notice": "The main compounding (earn) function. Reinvests profits since the last earn event."
      },
      "exchangeUSDForWantToken(uint256,uint256)": {
        "notice": "Performs necessary operations to convert USDC into Want token and transfer back to sender"
      },
      "exchangeWantTokenForUSD(uint256,uint256)": {
        "notice": "Converts Want token back into USD to be ready for withdrawal, transfers back to sender"
      },
      "farm()": {
        "notice": "Public function for farming Want token."
      },
      "inCaseTokensGetStuck(address,uint256,address)": {
        "notice": "Safely transfer ERC20 tokens stuck in this contract to a specified address"
      },
      "initialize(address,(uint256,bool,bool,bool,bool,(address,address,address,address,address,address,address,address,address,address,address,address,address,address,address),address[],address[],address[],address[],address[],address[],address[],(uint256,uint256,uint256,uint256,uint256),(address,address,address,address,address)))": {
        "notice": "Upgradeable constructor"
      },
      "pause()": {
        "notice": "Pause contract"
      },
      "setFeeSettings(uint256,uint256,uint256,uint256)": {
        "notice": "Configure key fee parameters"
      },
      "setGov(address)": {
        "notice": "Set governor address"
      },
      "setOnlyGov(bool)": {
        "notice": "Set onlyGov property"
      },
      "unpause()": {
        "notice": "Unpause contract"
      },
      "withdrawWantToken(address,uint256)": {
        "notice": "Fully withdraw Want tokens from the Farm contract (100% withdrawals only)"
      }
    },
    "version": 1
  }
}