{
  "contractName": "MockPriceAggZOR",
  "abi": [
    {
      "inputs": [],
      "name": "decimals",
      "outputs": [
        {
          "internalType": "uint8",
          "name": "",
          "type": "uint8"
        }
      ],
      "stateMutability": "view",
      "type": "function"
    },
    {
      "inputs": [],
      "name": "description",
      "outputs": [
        {
          "internalType": "string",
          "name": "",
          "type": "string"
        }
      ],
      "stateMutability": "view",
      "type": "function"
    },
    {
      "inputs": [
        {
          "internalType": "uint80",
          "name": "_roundId",
          "type": "uint80"
        }
      ],
      "name": "getRoundData",
      "outputs": [
        {
          "internalType": "uint80",
          "name": "roundId",
          "type": "uint80"
        },
        {
          "internalType": "int256",
          "name": "answer",
          "type": "int256"
        },
        {
          "internalType": "uint256",
          "name": "startedAt",
          "type": "uint256"
        },
        {
          "internalType": "uint256",
          "name": "updatedAt",
          "type": "uint256"
        },
        {
          "internalType": "uint80",
          "name": "answeredInRound",
          "type": "uint80"
        }
      ],
      "stateMutability": "view",
      "type": "function"
    },
    {
      "inputs": [],
      "name": "latestRoundData",
      "outputs": [
        {
          "internalType": "uint80",
          "name": "roundId",
          "type": "uint80"
        },
        {
          "internalType": "int256",
          "name": "answer",
          "type": "int256"
        },
        {
          "internalType": "uint256",
          "name": "startedAt",
          "type": "uint256"
        },
        {
          "internalType": "uint256",
          "name": "updatedAt",
          "type": "uint256"
        },
        {
          "internalType": "uint80",
          "name": "answeredInRound",
          "type": "uint80"
        }
      ],
      "stateMutability": "view",
      "type": "function"
    },
    {
      "inputs": [
        {
          "internalType": "int256",
          "name": "_ans",
          "type": "int256"
        }
      ],
      "name": "setAnswer",
      "outputs": [],
      "stateMutability": "nonpayable",
      "type": "function"
    },
    {
      "inputs": [
        {
          "internalType": "uint8",
          "name": "_dec",
          "type": "uint8"
        }
      ],
      "name": "setDecimals",
      "outputs": [],
      "stateMutability": "nonpayable",
      "type": "function"
    },
    {
      "inputs": [],
      "name": "version",
      "outputs": [
        {
          "internalType": "uint256",
          "name": "",
          "type": "uint256"
        }
      ],
      "stateMutability": "view",
      "type": "function"
    }
  ],
  "bytecode": "0x608060405234801561001057600080fd5b506000805460ff19166012179055670de0b6b3a764000060045561035a806100396000396000f3fe608060405234801561001057600080fd5b506004361061007d5760003560e01c80637a1395aa1161005b5780637a1395aa146100d257806399213cd8146100f85780639a6fc8f51461010b578063feaf968c1461017357600080fd5b8063313ce5671461008257806354fd4d50146100a65780637284e416146100bd575b600080fd5b60005461008f9060ff1681565b60405160ff90911681526020015b60405180910390f35b6100af60025481565b60405190815260200161009d565b6100c5610197565b60405161009d9190610225565b6100f66100e036600461027a565b6000805460ff191660ff92909216919091179055565b005b6100f66101063660046102a4565b600455565b61013c6101193660046102bd565b600454600554600654600754939492939192909169ffffffffffffffffffff1690565b6040805169ffffffffffffffffffff968716815260208101959095528401929092526060830152909116608082015260a00161009d565b60035460045460055460065460075469ffffffffffffffffffff948516941661013c565b600180546101a4906102e9565b80601f01602080910402602001604051908101604052809291908181526020018280546101d0906102e9565b801561021d5780601f106101f25761010080835404028352916020019161021d565b820191906000526020600020905b81548152906001019060200180831161020057829003601f168201915b505050505081565b600060208083528351808285015260005b8181101561025257858101830151858201604001528201610236565b81811115610264576000604083870101525b50601f01601f1916929092016040019392505050565b60006020828403121561028c57600080fd5b813560ff8116811461029d57600080fd5b9392505050565b6000602082840312156102b657600080fd5b5035919050565b6000602082840312156102cf57600080fd5b813569ffffffffffffffffffff8116811461029d57600080fd5b600181811c908216806102fd57607f821691505b6020821081141561031e57634e487b7160e01b600052602260045260246000fd5b5091905056fea26469706673582212207b4d484e5b40b97204265beaba04e98f5de4b798bd895ff8c53873f4eb63ddcd64736f6c634300080a0033",
  "immutableReferences": {},
  "source": "// SPDX-License-Identifier: MIT\n\npragma solidity ^0.8.0;\n\nimport \"../PriceFeed.sol\";\n\nimport \"../../interfaces/IAMMRouter02.sol\";\n\n/// @title MockPriceFeed: Mock contract for testing the PriceFeed library\ncontract MockPriceFeed {\n    using PriceFeed for AggregatorV3Interface;\n\n    function getExchangeRate(address _priceFeed)\n        public\n        view\n        returns (uint256)\n    {\n        return AggregatorV3Interface(_priceFeed).getExchangeRate();\n    }\n}\n\ncontract MockAggregatorV3 is AggregatorV3Interface {\n    constructor() {\n        decimals = 18;\n        _answer = 1e18;\n    }\n\n    uint8 public decimals;\n    string public description;\n    uint256 public version;\n    uint80 internal _rid;\n    int256 internal _answer;\n    uint256 internal _startedAt;\n    uint256 internal _updatedAt;\n    uint80 internal _answeredInRound;\n\n    function setDecimals(uint8 _dec) public {\n        decimals = _dec;\n    }\n\n    function setAnswer(int256 _ans) public {\n        _answer = _ans;\n    }\n\n    // getRoundData and latestRoundData should both raise \"No data present\"\n    // if they do not have data to report, instead of returning unset values\n    // which could be misinterpreted as actual reported values.\n    function getRoundData(uint80 _roundId)\n        external\n        view\n        returns (\n            uint80 roundId,\n            int256 answer,\n            uint256 startedAt,\n            uint256 updatedAt,\n            uint80 answeredInRound\n        )\n    {\n        return (\n            _roundId,\n            _answer,\n            _startedAt,\n            _updatedAt,\n            _answeredInRound\n        );\n    }\n\n    function latestRoundData()\n        external\n        view\n        returns (\n            uint80 roundId,\n            int256 answer,\n            uint256 startedAt,\n            uint256 updatedAt,\n            uint80 answeredInRound\n        )\n    {\n        return (\n            _rid,\n            _answer,\n            _startedAt,\n            _updatedAt,\n            _answeredInRound\n        );\n    }\n}\n\ncontract MockPriceAggToken0 is MockAggregatorV3 {}\ncontract MockPriceAggToken1 is MockAggregatorV3 {}\ncontract MockPriceAggEarnToken is MockAggregatorV3 {}\ncontract MockPriceAggZOR is MockAggregatorV3 {}\ncontract MockPriceAggLPOtherToken is MockAggregatorV3 {}\ncontract MockPriceUSDC is MockAggregatorV3 {}\ncontract MockPriceBUSD is MockAggregatorV3 {}\n\n/// @title MockPriceAggZORLP \ncontract MockPriceAggZORLP is AggregatorV3Interface {\n    using SafeMathUpgradeable for uint256;\n\n    address public router;\n    uint8 public decimals;\n    string public description;\n    uint256 public version;\n    uint80 internal _rid;\n    int256 internal _answer;\n    uint256 internal _startedAt;\n    uint256 internal _updatedAt;\n    uint80 internal _answeredInRound;\n\n    address public zorToken;\n    address public zorLPOtherToken;\n    address public usdcToken;\n\n    constructor(address _router, address _zorToken, address _zorLPOtherToken, address _usdcToken) {\n        router = _router;\n        decimals = 18;\n        _answer = 1e18;\n        zorToken = _zorToken;\n        zorLPOtherToken = _zorLPOtherToken;\n        usdcToken = _usdcToken;\n    }\n\n    function setDecimals(uint8 _dec) public {\n        decimals = _dec;\n    }\n\n    function setAnswer(int256 _ans) public {\n        _answer = _ans;\n    }\n\n    function getRoundData(uint80 _roundId)\n        external\n        view\n        returns (\n            uint80 roundId,\n            int256 answer,\n            uint256 startedAt,\n            uint256 updatedAt,\n            uint80 answeredInRound\n        )\n    {\n        return (\n            _roundId,\n            int256(_getZORUSDExchRate()),\n            _startedAt,\n            _updatedAt,\n            _answeredInRound\n        );\n    }\n\n    function latestRoundData()\n        external\n        view\n        returns (\n            uint80 roundId,\n            int256 answer,\n            uint256 startedAt,\n            uint256 updatedAt,\n            uint80 answeredInRound\n        )\n    {\n        return (\n            _rid,\n            int256(_getZORUSDExchRate()),\n            _startedAt,\n            _updatedAt,\n            _answeredInRound\n        );\n    }\n\n    function _getZORUSDExchRate() internal view returns (uint256) {\n        address[] memory _path = new address[](3);\n        _path[0] = zorToken;\n        _path[1] = zorLPOtherToken;\n        _path[2] = usdcToken;\n        uint256 _amtIn = 1 ether;\n        uint256[] memory _amts = IAMMRouter02(router).getAmountsOut(_amtIn, _path);\n        return _amts[_amts.length.sub(1)].mul(10**18).mul(10**12).div(_amtIn); \n    }\n}\n\n/// @title MockPriceAggSTG \ncontract MockPriceAggSTG is AggregatorV3Interface {\n    using SafeMathUpgradeable for uint256;\n\n    address public router;\n    uint8 public decimals;\n    string public description;\n    uint256 public version;\n    uint80 internal _rid;\n    int256 internal _answer;\n    uint256 internal _startedAt;\n    uint256 internal _updatedAt;\n    uint80 internal _answeredInRound;\n\n    address public stgToken;\n    address public wavaxToken;\n    address public usdcToken;\n\n    constructor(address _router, address _stgToken, address _wavaxToken, address _usdcToken) {\n        router = _router;\n        decimals = 18;\n        _answer = 1e18;\n        stgToken = _stgToken;\n        wavaxToken = _wavaxToken;\n        usdcToken = _usdcToken;\n    }\n\n    function setDecimals(uint8 _dec) public {\n        decimals = _dec;\n    }\n\n    function setAnswer(int256 _ans) public {\n        _answer = _ans;\n    }\n\n    function getRoundData(uint80 _roundId)\n        external\n        view\n        returns (\n            uint80 roundId,\n            int256 answer,\n            uint256 startedAt,\n            uint256 updatedAt,\n            uint80 answeredInRound\n        )\n    {\n        return (\n            _roundId,\n            int256(_getSTGUSDExchRate()),\n            _startedAt,\n            _updatedAt,\n            _answeredInRound\n        );\n    }\n\n    function latestRoundData()\n        external\n        view\n        returns (\n            uint80 roundId,\n            int256 answer,\n            uint256 startedAt,\n            uint256 updatedAt,\n            uint80 answeredInRound\n        )\n    {\n        return (\n            _rid,\n            int256(_getSTGUSDExchRate()),\n            _startedAt,\n            _updatedAt,\n            _answeredInRound\n        );\n    }\n\n    function _getSTGUSDExchRate() internal view returns (uint256) {\n        address[] memory _path = new address[](3);\n        _path[0] = stgToken;\n        _path[1] = wavaxToken;\n        _path[2] = usdcToken;\n        uint256 _amtIn = 1 ether;\n        uint256[] memory _amts = IAMMRouter02(router).getAmountsOut(_amtIn, _path);\n        return _amts[_amts.length.sub(1)].mul(10**18).mul(10**12).div(_amtIn); \n    }\n}",
  "sourcePath": "/Users/kristophm/Documents/workspace/zorro-protocol/contracts/libraries/mocks/MockPriceFeed.sol",
  "compiler": {
    "name": "solc",
    "version": "0.8.10+commit.fc410830.Emscripten.clang"
  },
  "schemaVersion": "3.4.4",
  "updatedAt": "2022-10-06T12:57:21.256Z",
  "devdoc": {
    "kind": "dev",
    "methods": {},
    "version": 1
  },
  "userdoc": {
    "kind": "user",
    "methods": {},
    "version": 1
  }
}