{
  "contractName": "MockBenqiUnitroller",
  "abi": [
    {
      "inputs": [
        {
          "internalType": "address",
          "name": "",
          "type": "address"
        }
      ],
      "name": "markets",
      "outputs": [
        {
          "internalType": "bool",
          "name": "isListed",
          "type": "bool"
        },
        {
          "internalType": "uint256",
          "name": "collateralFactorMantissa",
          "type": "uint256"
        },
        {
          "internalType": "bool",
          "name": "isQied",
          "type": "bool"
        }
      ],
      "stateMutability": "view",
      "type": "function"
    },
    {
      "inputs": [
        {
          "internalType": "uint8",
          "name": "rewardType",
          "type": "uint8"
        },
        {
          "internalType": "address payable",
          "name": "holder",
          "type": "address"
        }
      ],
      "name": "claimReward",
      "outputs": [],
      "stateMutability": "nonpayable",
      "type": "function"
    }
  ],
  "bytecode": "0x608060405234801561001057600080fd5b50610164806100206000396000f3fe608060405234801561001057600080fd5b5060043610610052577c010000000000000000000000000000000000000000000000000000000060003504630952c56381146100575780638e8f294b1461006b575b600080fd5b6100696100653660046100cb565b5050565b005b61008361007936600461010a565b5060009081908190565b604080519315158452602084019290925215159082015260600160405180910390f35b73ffffffffffffffffffffffffffffffffffffffff811681146100c857600080fd5b50565b600080604083850312156100de57600080fd5b823560ff811681146100ef57600080fd5b915060208301356100ff816100a6565b809150509250929050565b60006020828403121561011c57600080fd5b8135610127816100a6565b939250505056fea2646970667358221220fd516f63ddf9e8c6064b90a1943774287f78cd85dce3160aa3baa910f25799fd64736f6c634300080a0033",
  "immutableReferences": {},
  "source": "// SPDX-License-Identifier: MIT\n\npragma solidity ^0.8.0;\n\nimport \"../VaultBenqiLending.sol\";\n\nimport \"../../interfaces/Benqi/IQiTokenSaleDistributor.sol\";\n\nimport \"../../interfaces/Benqi/IUnitroller.sol\";\n\ncontract MockVaultBenqiLending is VaultBenqiLending {\n    // TODO: Fill in with necessary functions\n}\n\n// TODO: Fill in remaining here: \n\ncontract MockBenqiTokenSaleDistributor is IQiTokenSaleDistributor {\n    function claim() external {\n\n    }\n}\n\ncontract MockBenqiUnitroller is IUnitrollerBenqi {\n    function markets ( address ) external view returns ( bool isListed, uint256 collateralFactorMantissa, bool isQied) {\n\n    }\n\n    function claimReward(uint8 rewardType, address payable holder) external {\n\n    }\n}\n\n",
  "sourcePath": "/Users/kristophm/Documents/workspace/zorro-protocol/contracts/vaults/mocks/MockBenqiLending.sol",
  "compiler": {
    "name": "solc",
    "version": "0.8.10+commit.fc410830.Emscripten.clang"
  },
  "schemaVersion": "3.4.10",
  "updatedAt": "2022-11-20T20:57:39.165Z",
  "devdoc": {
    "kind": "dev",
    "methods": {},
    "version": 1
  },
  "userdoc": {
    "kind": "user",
    "methods": {},
    "version": 1
  }
}