{
  "contractName": "MockStargateRouter",
  "abi": [
    {
      "anonymous": false,
      "inputs": [
        {
          "indexed": true,
          "internalType": "uint256",
          "name": "_amount",
          "type": "uint256"
        },
        {
          "indexed": true,
          "internalType": "uint256",
          "name": "_liquidity",
          "type": "uint256"
        }
      ],
      "name": "AddedLiquidity",
      "type": "event"
    },
    {
      "anonymous": false,
      "inputs": [
        {
          "indexed": true,
          "internalType": "address",
          "name": "owner",
          "type": "address"
        },
        {
          "indexed": true,
          "internalType": "address",
          "name": "spender",
          "type": "address"
        },
        {
          "indexed": false,
          "internalType": "uint256",
          "name": "value",
          "type": "uint256"
        }
      ],
      "name": "Approval",
      "type": "event"
    },
    {
      "anonymous": false,
      "inputs": [
        {
          "indexed": true,
          "internalType": "uint256",
          "name": "_amount",
          "type": "uint256"
        }
      ],
      "name": "RemovedLiquidity",
      "type": "event"
    },
    {
      "anonymous": false,
      "inputs": [
        {
          "indexed": true,
          "internalType": "uint256",
          "name": "_chainId",
          "type": "uint256"
        },
        {
          "indexed": true,
          "internalType": "uint256",
          "name": "_qty",
          "type": "uint256"
        },
        {
          "indexed": true,
          "internalType": "bytes",
          "name": "_dstContract",
          "type": "bytes"
        }
      ],
      "name": "SgSwapped",
      "type": "event"
    },
    {
      "anonymous": false,
      "inputs": [
        {
          "indexed": true,
          "internalType": "address",
          "name": "_dest",
          "type": "address"
        },
        {
          "indexed": true,
          "internalType": "uint256",
          "name": "_amountIn",
          "type": "uint256"
        },
        {
          "indexed": true,
          "internalType": "uint256",
          "name": "_amountOutMin",
          "type": "uint256"
        }
      ],
      "name": "SwappedToken",
      "type": "event"
    },
    {
      "anonymous": false,
      "inputs": [
        {
          "indexed": true,
          "internalType": "address",
          "name": "from",
          "type": "address"
        },
        {
          "indexed": true,
          "internalType": "address",
          "name": "to",
          "type": "address"
        },
        {
          "indexed": false,
          "internalType": "uint256",
          "name": "value",
          "type": "uint256"
        }
      ],
      "name": "Transfer",
      "type": "event"
    },
    {
      "inputs": [
        {
          "internalType": "address",
          "name": "owner",
          "type": "address"
        },
        {
          "internalType": "address",
          "name": "spender",
          "type": "address"
        }
      ],
      "name": "allowance",
      "outputs": [
        {
          "internalType": "uint256",
          "name": "",
          "type": "uint256"
        }
      ],
      "stateMutability": "view",
      "type": "function"
    },
    {
      "inputs": [
        {
          "internalType": "address",
          "name": "spender",
          "type": "address"
        },
        {
          "internalType": "uint256",
          "name": "amount",
          "type": "uint256"
        }
      ],
      "name": "approve",
      "outputs": [
        {
          "internalType": "bool",
          "name": "",
          "type": "bool"
        }
      ],
      "stateMutability": "nonpayable",
      "type": "function"
    },
    {
      "inputs": [],
      "name": "asset",
      "outputs": [
        {
          "internalType": "address",
          "name": "",
          "type": "address"
        }
      ],
      "stateMutability": "view",
      "type": "function"
    },
    {
      "inputs": [
        {
          "internalType": "address",
          "name": "account",
          "type": "address"
        }
      ],
      "name": "balanceOf",
      "outputs": [
        {
          "internalType": "uint256",
          "name": "",
          "type": "uint256"
        }
      ],
      "stateMutability": "view",
      "type": "function"
    },
    {
      "inputs": [],
      "name": "burnAddress",
      "outputs": [
        {
          "internalType": "address",
          "name": "",
          "type": "address"
        }
      ],
      "stateMutability": "view",
      "type": "function"
    },
    {
      "inputs": [],
      "name": "decimals",
      "outputs": [
        {
          "internalType": "uint8",
          "name": "",
          "type": "uint8"
        }
      ],
      "stateMutability": "view",
      "type": "function"
    },
    {
      "inputs": [
        {
          "internalType": "address",
          "name": "spender",
          "type": "address"
        },
        {
          "internalType": "uint256",
          "name": "subtractedValue",
          "type": "uint256"
        }
      ],
      "name": "decreaseAllowance",
      "outputs": [
        {
          "internalType": "bool",
          "name": "",
          "type": "bool"
        }
      ],
      "stateMutability": "nonpayable",
      "type": "function"
    },
    {
      "inputs": [
        {
          "internalType": "address",
          "name": "spender",
          "type": "address"
        },
        {
          "internalType": "uint256",
          "name": "addedValue",
          "type": "uint256"
        }
      ],
      "name": "increaseAllowance",
      "outputs": [
        {
          "internalType": "bool",
          "name": "",
          "type": "bool"
        }
      ],
      "stateMutability": "nonpayable",
      "type": "function"
    },
    {
      "inputs": [
        {
          "internalType": "address",
          "name": "_account",
          "type": "address"
        },
        {
          "internalType": "uint256",
          "name": "_amount",
          "type": "uint256"
        }
      ],
      "name": "mint",
      "outputs": [],
      "stateMutability": "nonpayable",
      "type": "function"
    },
    {
      "inputs": [],
      "name": "name",
      "outputs": [
        {
          "internalType": "string",
          "name": "",
          "type": "string"
        }
      ],
      "stateMutability": "view",
      "type": "function"
    },
    {
      "inputs": [],
      "name": "stargatePool",
      "outputs": [
        {
          "internalType": "address",
          "name": "",
          "type": "address"
        }
      ],
      "stateMutability": "view",
      "type": "function"
    },
    {
      "inputs": [],
      "name": "symbol",
      "outputs": [
        {
          "internalType": "string",
          "name": "",
          "type": "string"
        }
      ],
      "stateMutability": "view",
      "type": "function"
    },
    {
      "inputs": [],
      "name": "totalSupply",
      "outputs": [
        {
          "internalType": "uint256",
          "name": "",
          "type": "uint256"
        }
      ],
      "stateMutability": "view",
      "type": "function"
    },
    {
      "inputs": [
        {
          "internalType": "address",
          "name": "to",
          "type": "address"
        },
        {
          "internalType": "uint256",
          "name": "amount",
          "type": "uint256"
        }
      ],
      "name": "transfer",
      "outputs": [
        {
          "internalType": "bool",
          "name": "",
          "type": "bool"
        }
      ],
      "stateMutability": "nonpayable",
      "type": "function"
    },
    {
      "inputs": [
        {
          "internalType": "address",
          "name": "from",
          "type": "address"
        },
        {
          "internalType": "address",
          "name": "to",
          "type": "address"
        },
        {
          "internalType": "uint256",
          "name": "amount",
          "type": "uint256"
        }
      ],
      "name": "transferFrom",
      "outputs": [
        {
          "internalType": "bool",
          "name": "",
          "type": "bool"
        }
      ],
      "stateMutability": "nonpayable",
      "type": "function"
    },
    {
      "inputs": [
        {
          "internalType": "address",
          "name": "_burnAddress",
          "type": "address"
        }
      ],
      "name": "setBurnAddress",
      "outputs": [],
      "stateMutability": "nonpayable",
      "type": "function"
    },
    {
      "inputs": [
        {
          "internalType": "address",
          "name": "_pool",
          "type": "address"
        }
      ],
      "name": "setStargatePool",
      "outputs": [],
      "stateMutability": "nonpayable",
      "type": "function"
    },
    {
      "inputs": [
        {
          "internalType": "address",
          "name": "_token",
          "type": "address"
        }
      ],
      "name": "setAsset",
      "outputs": [],
      "stateMutability": "nonpayable",
      "type": "function"
    },
    {
      "inputs": [
        {
          "internalType": "uint256",
          "name": "_poolId",
          "type": "uint256"
        },
        {
          "internalType": "uint256",
          "name": "_amountLD",
          "type": "uint256"
        },
        {
          "internalType": "address",
          "name": "_to",
          "type": "address"
        }
      ],
      "name": "addLiquidity",
      "outputs": [],
      "stateMutability": "nonpayable",
      "type": "function"
    },
    {
      "inputs": [
        {
          "internalType": "uint16",
          "name": "_dstChainId",
          "type": "uint16"
        },
        {
          "internalType": "uint256",
          "name": "_srcPoolId",
          "type": "uint256"
        },
        {
          "internalType": "uint256",
          "name": "_dstPoolId",
          "type": "uint256"
        },
        {
          "internalType": "address payable",
          "name": "_refundAddress",
          "type": "address"
        },
        {
          "internalType": "uint256",
          "name": "_amountLD",
          "type": "uint256"
        },
        {
          "internalType": "uint256",
          "name": "_minAmountLD",
          "type": "uint256"
        },
        {
          "components": [
            {
              "internalType": "uint256",
              "name": "dstGasForCall",
              "type": "uint256"
            },
            {
              "internalType": "uint256",
              "name": "dstNativeAmount",
              "type": "uint256"
            },
            {
              "internalType": "bytes",
              "name": "dstNativeAddr",
              "type": "bytes"
            }
          ],
          "internalType": "struct IStargateRouter.lzTxObj",
          "name": "_lzTxParams",
          "type": "tuple"
        },
        {
          "internalType": "bytes",
          "name": "_to",
          "type": "bytes"
        },
        {
          "internalType": "bytes",
          "name": "_payload",
          "type": "bytes"
        }
      ],
      "name": "swap",
      "outputs": [],
      "stateMutability": "payable",
      "type": "function"
    },
    {
      "inputs": [
        {
          "internalType": "uint16",
          "name": "_dstChainId",
          "type": "uint16"
        },
        {
          "internalType": "uint256",
          "name": "_srcPoolId",
          "type": "uint256"
        },
        {
          "internalType": "uint256",
          "name": "_dstPoolId",
          "type": "uint256"
        },
        {
          "internalType": "address payable",
          "name": "_refundAddress",
          "type": "address"
        },
        {
          "internalType": "uint256",
          "name": "_amountLP",
          "type": "uint256"
        },
        {
          "internalType": "uint256",
          "name": "_minAmountLD",
          "type": "uint256"
        },
        {
          "internalType": "bytes",
          "name": "_to",
          "type": "bytes"
        },
        {
          "components": [
            {
              "internalType": "uint256",
              "name": "dstGasForCall",
              "type": "uint256"
            },
            {
              "internalType": "uint256",
              "name": "dstNativeAmount",
              "type": "uint256"
            },
            {
              "internalType": "bytes",
              "name": "dstNativeAddr",
              "type": "bytes"
            }
          ],
          "internalType": "struct IStargateRouter.lzTxObj",
          "name": "_lzTxParams",
          "type": "tuple"
        }
      ],
      "name": "redeemRemote",
      "outputs": [],
      "stateMutability": "payable",
      "type": "function"
    },
    {
      "inputs": [
        {
          "internalType": "uint16",
          "name": "_srcPoolId",
          "type": "uint16"
        },
        {
          "internalType": "uint256",
          "name": "_amountLP",
          "type": "uint256"
        },
        {
          "internalType": "address",
          "name": "_to",
          "type": "address"
        }
      ],
      "name": "instantRedeemLocal",
      "outputs": [
        {
          "internalType": "uint256",
          "name": "",
          "type": "uint256"
        }
      ],
      "stateMutability": "nonpayable",
      "type": "function"
    },
    {
      "inputs": [
        {
          "internalType": "uint16",
          "name": "_dstChainId",
          "type": "uint16"
        },
        {
          "internalType": "uint256",
          "name": "_srcPoolId",
          "type": "uint256"
        },
        {
          "internalType": "uint256",
          "name": "_dstPoolId",
          "type": "uint256"
        },
        {
          "internalType": "address payable",
          "name": "_refundAddress",
          "type": "address"
        },
        {
          "internalType": "uint256",
          "name": "_amountLP",
          "type": "uint256"
        },
        {
          "internalType": "bytes",
          "name": "_to",
          "type": "bytes"
        },
        {
          "components": [
            {
              "internalType": "uint256",
              "name": "dstGasForCall",
              "type": "uint256"
            },
            {
              "internalType": "uint256",
              "name": "dstNativeAmount",
              "type": "uint256"
            },
            {
              "internalType": "bytes",
              "name": "dstNativeAddr",
              "type": "bytes"
            }
          ],
          "internalType": "struct IStargateRouter.lzTxObj",
          "name": "_lzTxParams",
          "type": "tuple"
        }
      ],
      "name": "redeemLocal",
      "outputs": [],
      "stateMutability": "payable",
      "type": "function"
    },
    {
      "inputs": [
        {
          "internalType": "uint16",
          "name": "_dstChainId",
          "type": "uint16"
        },
        {
          "internalType": "uint256",
          "name": "_srcPoolId",
          "type": "uint256"
        },
        {
          "internalType": "uint256",
          "name": "_dstPoolId",
          "type": "uint256"
        },
        {
          "internalType": "address payable",
          "name": "_refundAddress",
          "type": "address"
        }
      ],
      "name": "sendCredits",
      "outputs": [],
      "stateMutability": "payable",
      "type": "function"
    },
    {
      "inputs": [
        {
          "internalType": "uint16",
          "name": "_dstChainId",
          "type": "uint16"
        },
        {
          "internalType": "uint8",
          "name": "_functionType",
          "type": "uint8"
        },
        {
          "internalType": "bytes",
          "name": "_toAddress",
          "type": "bytes"
        },
        {
          "internalType": "bytes",
          "name": "_transferAndCallPayload",
          "type": "bytes"
        },
        {
          "components": [
            {
              "internalType": "uint256",
              "name": "dstGasForCall",
              "type": "uint256"
            },
            {
              "internalType": "uint256",
              "name": "dstNativeAmount",
              "type": "uint256"
            },
            {
              "internalType": "bytes",
              "name": "dstNativeAddr",
              "type": "bytes"
            }
          ],
          "internalType": "struct IStargateRouter.lzTxObj",
          "name": "_lzTxParams",
          "type": "tuple"
        }
      ],
      "name": "quoteLayerZeroFee",
      "outputs": [
        {
          "internalType": "uint256",
          "name": "",
          "type": "uint256"
        },
        {
          "internalType": "uint256",
          "name": "",
          "type": "uint256"
        }
      ],
      "stateMutability": "view",
      "type": "function"
    }
  ],
  "bytecode": "0x608060405234801561001057600080fd5b5061196f806100206000396000f3fe608060405260043610610183576000357c01000000000000000000000000000000000000000000000000000000009004806370d5ae05116100ee5780639ba3aa74116100a7578063a9059cbb11610081578063a9059cbb146104bb578063c4de93a5146104db578063d0d552dd146104fb578063dd62ed3e1461054557600080fd5b80639ba3aa74146104745780639fbf10fc14610488578063a457c2d71461049b57600080fd5b806370d5ae05146103ce57806384d0dba3146103ee57806387b21efc146104075780638f2e1d181461042757806391ca47c71461043f57806395d89b411461045f57600080fd5b8063313ce56711610140578063313ce567146102ba57806338d52e0f146102d6578063395093511461030e57806340c10f191461032e5780634b0e72161461034e57806370a082311461039857600080fd5b806306fdde0314610188578063095ea7b3146101b35780630a512369146101e357806318160ddd1461022f57806323b872dd1461024e5780632fd9470f1461026e575b600080fd5b34801561019457600080fd5b5061019d61058b565b6040516101aa91906111ef565b60405180910390f35b3480156101bf57600080fd5b506101d36101ce36600461123a565b61061d565b60405190151581526020016101aa565b3480156101ef57600080fd5b5061021a6101fe366004611402565b50662386f26fc100009666470de4df8200009650945050505050565b604080519283526020830191909152016101aa565b34801561023b57600080fd5b506035545b6040519081526020016101aa565b34801561025a57600080fd5b506101d36102693660046114bf565b610635565b34801561027a57600080fd5b506102b8610289366004611500565b6066805473ffffffffffffffffffffffffffffffffffffffff1916600160a060020a0392909216919091179055565b005b3480156102c657600080fd5b50604051601281526020016101aa565b3480156102e257600080fd5b506067546102f690600160a060020a031681565b604051600160a060020a0390911681526020016101aa565b34801561031a57600080fd5b506101d361032936600461123a565b61065b565b34801561033a57600080fd5b506102b861034936600461123a565b61069a565b34801561035a57600080fd5b506102b8610369366004611500565b6065805473ffffffffffffffffffffffffffffffffffffffff1916600160a060020a0392909216919091179055565b3480156103a457600080fd5b506102406103b3366004611500565b600160a060020a031660009081526033602052604090205490565b3480156103da57600080fd5b506065546102f690600160a060020a031681565b6102b86103fc366004611528565b505050505050505050565b34801561041357600080fd5b506102b86104223660046115db565b6106a8565b6102b8610435366004611614565b5050505050505050565b34801561044b57600080fd5b506066546102f690600160a060020a031681565b34801561046b57600080fd5b5061019d610781565b6102b86104823660046116bd565b50505050565b6102b8610496366004611705565b610790565b3480156104a757600080fd5b506101d36104b636600461123a565b610817565b3480156104c757600080fd5b506101d36104d636600461123a565b6108d4565b3480156104e757600080fd5b506102406104f63660046117ea565b6108e2565b34801561050757600080fd5b506102b8610516366004611500565b6067805473ffffffffffffffffffffffffffffffffffffffff1916600160a060020a0392909216919091179055565b34801561055157600080fd5b5061024061056036600461181f565b600160a060020a03918216600090815260346020908152604080832093909416825291909152205490565b60606036805461059a90611858565b80601f01602080910402602001604051908101604052809291908181526020018280546105c690611858565b80156106135780601f106105e857610100808354040283529160200191610613565b820191906000526020600020905b8154815290600101906020018083116105f657829003601f168201915b5050505050905090565b60003361062b8185856109bd565b5060019392505050565b600033610643858285610b1b565b61064e858585610baa565b60019150505b9392505050565b336000818152603460209081526040808320600160a060020a038716845290915281205490919061062b90829086906106959087906118ac565b6109bd565b6106a48282610dca565b5050565b6065546067546106c791600160a060020a039182169133911685610eac565b6066546040517f40c10f19000000000000000000000000000000000000000000000000000000008152600160a060020a038381166004830152670de0b6b3a7640000602483018190529216906340c10f1990604401600060405180830381600087803b15801561073657600080fd5b505af115801561074a573d6000803e3d6000fd5b50506040518392508591507fe74b04c1435e286c6b8eba73f0f16a0a2fcc9d21d879598ecacf17db8c49770190600090a350505050565b60606037805461059a90611858565b600160a060020a0388166107a357600080fd5b6065546067546107c291600160a060020a03918216913391168a610eac565b83836040516107d29291906118eb565b60405190819003812090879061ffff8e16907f769d1d8e4b232ae644f34a3d0f4bb87f6c18b9c4e4fe52b96a1b62710fba1ac290600090a45050505050505050505050565b336000818152603460209081526040808320600160a060020a0387168452909152812054909190838110156108bc5760405160e560020a62461bcd02815260206004820152602560248201527f45524332303a2064656372656173656420616c6c6f77616e63652062656c6f7760448201527f207a65726f00000000000000000000000000000000000000000000000000000060648201526084015b60405180910390fd5b6108c982868684036109bd565b506001949350505050565b60003361062b818585610baa565b600060655460665461090391600160a060020a039182169133911686610eac565b6067546040517f40c10f19000000000000000000000000000000000000000000000000000000008152600160a060020a038481166004830152671bc16d674ec80000602483018190529216906340c10f1990604401600060405180830381600087803b15801561097257600080fd5b505af1158015610986573d6000803e3d6000fd5b50506040518392507f04b0a3a0ab96097f4ab2292b42474f44218859ae0f669c636c01fa72712f11219150600090a2949350505050565b600160a060020a038316610a3b5760405160e560020a62461bcd028152602060048201526024808201527f45524332303a20617070726f76652066726f6d20746865207a65726f2061646460448201527f726573730000000000000000000000000000000000000000000000000000000060648201526084016108b3565b600160a060020a038216610aba5760405160e560020a62461bcd02815260206004820152602260248201527f45524332303a20617070726f766520746f20746865207a65726f20616464726560448201527f737300000000000000000000000000000000000000000000000000000000000060648201526084016108b3565b600160a060020a0383811660008181526034602090815260408083209487168084529482529182902085905590518481527f8c5be1e5ebec7d5bd14f71427d1e84f3dd0314c0f7b2291e5b200ac8c7c3b925910160405180910390a3505050565b600160a060020a0383811660009081526034602090815260408083209386168352929052205460001981146104825781811015610b9d5760405160e560020a62461bcd02815260206004820152601d60248201527f45524332303a20696e73756666696369656e7420616c6c6f77616e636500000060448201526064016108b3565b61048284848484036109bd565b600160a060020a038316610c295760405160e560020a62461bcd02815260206004820152602560248201527f45524332303a207472616e736665722066726f6d20746865207a65726f20616460448201527f647265737300000000000000000000000000000000000000000000000000000060648201526084016108b3565b600160a060020a038216610ca85760405160e560020a62461bcd02815260206004820152602360248201527f45524332303a207472616e7366657220746f20746865207a65726f206164647260448201527f657373000000000000000000000000000000000000000000000000000000000060648201526084016108b3565b600160a060020a03831660009081526033602052604090205481811015610d3a5760405160e560020a62461bcd02815260206004820152602660248201527f45524332303a207472616e7366657220616d6f756e742065786365656473206260448201527f616c616e6365000000000000000000000000000000000000000000000000000060648201526084016108b3565b600160a060020a03808516600090815260336020526040808220858503905591851681529081208054849290610d719084906118ac565b9250508190555082600160a060020a031684600160a060020a03167fddf252ad1be2c89b69c2b068fc378daa952ba7f163c4a11628f55a4df523b3ef84604051610dbd91815260200190565b60405180910390a3610482565b600160a060020a038216610e235760405160e560020a62461bcd02815260206004820152601f60248201527f45524332303a206d696e7420746f20746865207a65726f20616464726573730060448201526064016108b3565b8060356000828254610e3591906118ac565b9091555050600160a060020a03821660009081526033602052604081208054839290610e629084906118ac565b9091555050604051818152600160a060020a038316906000907fddf252ad1be2c89b69c2b068fc378daa952ba7f163c4a11628f55a4df523b3ef9060200160405180910390a35050565b60408051600160a060020a0385811660248301528416604482015260648082018490528251808303909101815260849091019091526020810180517bffffffffffffffffffffffffffffffffffffffffffffffffffffffff167f23b872dd00000000000000000000000000000000000000000000000000000000179052610482908590610f39565b505050565b6000610f8e826040518060400160405280602081526020017f5361666545524332303a206c6f772d6c6576656c2063616c6c206661696c656481525085600160a060020a03166110219092919063ffffffff16565b805190915015610f345780806020019051810190610fac91906118fb565b610f345760405160e560020a62461bcd02815260206004820152602a60248201527f5361666545524332303a204552433230206f7065726174696f6e20646964206e60448201527f6f7420737563636565640000000000000000000000000000000000000000000060648201526084016108b3565b60606110308484600085611038565b949350505050565b606030318311156110b45760405160e560020a62461bcd02815260206004820152602660248201527f416464726573733a20696e73756666696369656e742062616c616e636520666f60448201527f722063616c6c000000000000000000000000000000000000000000000000000060648201526084016108b3565b600160a060020a0385163b61110e5760405160e560020a62461bcd02815260206004820152601d60248201527f416464726573733a2063616c6c20746f206e6f6e2d636f6e747261637400000060448201526064016108b3565b60008086600160a060020a0316858760405161112a919061191d565b60006040518083038185875af1925050503d8060008114611167576040519150601f19603f3d011682016040523d82523d6000602084013e61116c565b606091505b509150915061117c828286611187565b979650505050505050565b60608315611196575081610654565b8251156111a65782518084602001fd5b8160405160e560020a62461bcd0281526004016108b391906111ef565b60005b838110156111de5781810151838201526020016111c6565b838111156104825750506000910152565b602081526000825180602084015261120e8160408501602087016111c3565b601f01601f19169190910160400192915050565b600160a060020a038116811461123757600080fd5b50565b6000806040838503121561124d57600080fd5b823561125881611222565b946020939093013593505050565b803561ffff8116811461127857600080fd5b919050565b60008083601f84011261128f57600080fd5b50813567ffffffffffffffff8111156112a757600080fd5b6020830191508360208285010111156112bf57600080fd5b9250929050565b7f4e487b7100000000000000000000000000000000000000000000000000000000600052604160045260246000fd5b6040516060810167ffffffffffffffff81118282101715611318576113186112c6565b60405290565b604051601f8201601f1916810167ffffffffffffffff81118282101715611347576113476112c6565b604052919050565b60006060828403121561136157600080fd5b6113696112f5565b90508135815260208083013581830152604083013567ffffffffffffffff8082111561139457600080fd5b818501915085601f8301126113a857600080fd5b8135818111156113ba576113ba6112c6565b6113cc601f8201601f1916850161131e565b915080825286848285010111156113e257600080fd5b808484018584013760008482840101525080604085015250505092915050565b600080600080600080600060a0888a03121561141d57600080fd5b61142688611266565b9650602088013560ff8116811461143c57600080fd5b9550604088013567ffffffffffffffff8082111561145957600080fd5b6114658b838c0161127d565b909750955060608a013591508082111561147e57600080fd5b61148a8b838c0161127d565b909550935060808a01359150808211156114a357600080fd5b506114b08a828b0161134f565b91505092959891949750929550565b6000806000606084860312156114d457600080fd5b83356114df81611222565b925060208401356114ef81611222565b929592945050506040919091013590565b60006020828403121561151257600080fd5b813561065481611222565b803561127881611222565b60008060008060008060008060006101008a8c03121561154757600080fd5b6115508a611266565b985060208a0135975060408a0135965060608a013561156e81611222565b955060808a0135945060a08a0135935060c08a013567ffffffffffffffff8082111561159957600080fd5b6115a58d838e0161127d565b909550935060e08c01359150808211156115be57600080fd5b506115cb8c828d0161134f565b9150509295985092959850929598565b6000806000606084860312156115f057600080fd5b8335925060208401359150604084013561160981611222565b809150509250925092565b60008060008060008060008060e0898b03121561163057600080fd5b61163989611266565b97506020890135965060408901359550606089013561165781611222565b94506080890135935060a089013567ffffffffffffffff8082111561167b57600080fd5b6116878c838d0161127d565b909550935060c08b01359150808211156116a057600080fd5b506116ad8b828c0161134f565b9150509295985092959890939650565b600080600080608085870312156116d357600080fd5b6116dc85611266565b9350602085013592506040850135915060608501356116fa81611222565b939692955090935050565b60008060008060008060008060008060006101208c8e03121561172757600080fd5b6117308c611266565b9a5060208c0135995060408c0135985061174c60608d0161151d565b975060808c0135965060a08c0135955067ffffffffffffffff8060c08e0135111561177657600080fd5b6117868e60c08f01358f0161134f565b95508060e08e0135111561179957600080fd5b6117a98e60e08f01358f0161127d565b90955093506101008d01358110156117c057600080fd5b506117d28d6101008e01358e0161127d565b81935080925050509295989b509295989b9093969950565b6000806000606084860312156117ff57600080fd5b61180884611266565b925060208401359150604084013561160981611222565b6000806040838503121561183257600080fd5b823561183d81611222565b9150602083013561184d81611222565b809150509250929050565b60028104600182168061186c57607f821691505b602082108114156118a6577f4e487b7100000000000000000000000000000000000000000000000000000000600052602260045260246000fd5b50919050565b600082198211156118e6577f4e487b7100000000000000000000000000000000000000000000000000000000600052601160045260246000fd5b500190565b8183823760009101908152919050565b60006020828403121561190d57600080fd5b8151801515811461065457600080fd5b6000825161192f8184602087016111c3565b919091019291505056fea264697066735822122069ec6275a0c3deb77e5ac8762faec2a30bba99fc9f60c9db3aa7fc1d2bf91a8764736f6c634300080a0033",
  "immutableReferences": {},
  "source": "// SPDX-License-Identifier: MIT\n\npragma solidity ^0.8.0;\n\nimport \"../VaultStargate.sol\";\n\nimport \"../../tokens/mocks/MockToken.sol\";\n\nimport \"../libraries/VaultLibrary.sol\";\n\ncontract MockVaultStargate is VaultStargate {\n    function unfarm(uint256 _wantAmt) public {\n        _unfarm(_wantAmt);\n    }\n    \n    function swapEarnedToUSD(\n        uint256 _earnedAmount,\n        address _destination,\n        uint256 _maxMarketMovementAllowed,\n        VaultLibrary.ExchangeRates memory _rates\n    ) public {\n        _swapEarnedToUSD(_earnedAmount, _destination, _maxMarketMovementAllowed, _rates);\n    }\n\n    function revShareOnChain(\n        uint256 _amount,\n        uint256 _maxMarketMovementAllowed,\n        VaultLibrary.ExchangeRates memory _rates\n    ) public {\n        _revShareOnChain(_amount, _maxMarketMovementAllowed, _rates);\n    }\n\n    function buybackOnChain(\n        uint256 _amount,\n        uint256 _maxMarketMovementAllowed,\n        VaultLibrary.ExchangeRates memory _rates\n    ) public {\n        _buybackOnChain(_amount, _maxMarketMovementAllowed, _rates);\n    }\n}\n\ncontract MockStargateRouter is IStargateRouter, MockERC20Upgradeable {\n    using SafeERC20Upgradeable for IERC20Upgradeable;\n\n    address public burnAddress;\n    address public stargatePool;\n    address public asset;\n    uint256 private _dummy; // Satisfy compiler state mutability warnings\n\n    function setBurnAddress(address _burnAddress) public {\n        burnAddress = _burnAddress;\n    }\n\n    function setStargatePool(address _pool) public {\n        stargatePool = _pool;\n    }\n\n    function setAsset(address _token) public {\n        asset = _token;\n    }\n\n    event SwappedToken(\n        address indexed _dest,\n        uint256 indexed _amountIn,\n        uint256 indexed _amountOutMin\n    );\n\n    event AddedLiquidity(uint256 indexed _amount, uint256 indexed _liquidity);\n\n    event RemovedLiquidity(uint256 indexed _amount);\n\n    event SgSwapped(uint256 indexed _chainId, uint256 indexed _qty, bytes indexed _dstContract);\n\n    function addLiquidity(\n        uint256 _poolId,\n        uint256 _amountLD,\n        address _to\n    ) external {\n        // Reqs\n        require(_poolId >= 0);\n\n        // Transfer funds & burn\n        IERC20Upgradeable(asset).safeTransferFrom(\n            msg.sender,\n            burnAddress,\n            _amountLD\n        );\n\n        // Mint some LP token\n        uint256 _liquidity = 1 ether; // Hard code 1 token for simplicity\n        // Transfer LP token\n        IMockERC20Upgradeable(stargatePool).mint(_to, _liquidity);\n        // Log liquidity addition\n        emit AddedLiquidity(_amountLD, _liquidity);\n    }\n\n    function swap(\n        uint16 _dstChainId,\n        uint256 _srcPoolId,\n        uint256 _dstPoolId,\n        address payable _refundAddress,\n        uint256 _amountLD,\n        uint256 _minAmountLD,\n        lzTxObj memory _lzTxParams,\n        bytes calldata _to,\n        bytes calldata _payload\n    ) external payable {\n        // Reqs\n        require(_srcPoolId >= 0 && _dstPoolId >= 0);\n        require(_refundAddress != address(0));\n        require(_lzTxParams.dstGasForCall >= 0);\n        require(_payload.length >= 0);\n\n        // Transfer to burn\n        IERC20Upgradeable(asset).safeTransferFrom(msg.sender, burnAddress, _amountLD);\n        // Log\n        emit SgSwapped(_dstChainId, _minAmountLD, _to);\n    }\n\n    function redeemRemote(\n        uint16 _dstChainId,\n        uint256 _srcPoolId,\n        uint256 _dstPoolId,\n        address payable _refundAddress,\n        uint256 _amountLP,\n        uint256 _minAmountLD,\n        bytes calldata _to,\n        lzTxObj memory _lzTxParams\n    ) external payable {}\n\n    function instantRedeemLocal(\n        uint16 _srcPoolId,\n        uint256 _amountLP,\n        address _to\n    ) external returns (uint256) {\n        // Reqs\n        require(_srcPoolId >= 0);\n\n        // Safe transfer liquidity and burn\n        IERC20Upgradeable(stargatePool).safeTransferFrom(\n            msg.sender,\n            burnAddress,\n            _amountLP\n        );\n\n        // Mint asset token\n        uint256 _amount = 2 ether; // Hardcode for simplicity/testing\n        IMockERC20Upgradeable(asset).mint(_to, _amount);\n        // Log removed equidity\n        emit RemovedLiquidity(_amount);\n        // Return\n        return _amount;\n    }\n\n    function redeemLocal(\n        uint16 _dstChainId,\n        uint256 _srcPoolId,\n        uint256 _dstPoolId,\n        address payable _refundAddress,\n        uint256 _amountLP,\n        bytes calldata _to,\n        lzTxObj memory _lzTxParams\n    ) external payable {}\n\n    function sendCredits(\n        uint16 _dstChainId,\n        uint256 _srcPoolId,\n        uint256 _dstPoolId,\n        address payable _refundAddress\n    ) external payable {}\n\n    function quoteLayerZeroFee(\n        uint16 _dstChainId,\n        uint8 _functionType,\n        bytes calldata _toAddress,\n        bytes calldata _transferAndCallPayload,\n        lzTxObj memory _lzTxParams\n    ) external view returns (uint256, uint256) {\n        // Reqs\n        require(_dstChainId >= 0 && _functionType >= 0);\n        require(_toAddress.length >= 0 && _transferAndCallPayload.length >= 0);\n        require(_lzTxParams.dstGasForCall >= 0);\n        require(_dummy >= 0);\n\n        return (0.01 ether, 0.02 ether); // Hardcoded for tests\n    }\n}\n\ncontract MockStargatePool is MockERC20Upgradeable {}\n\ncontract MockStargateLPStaking is IStargateLPStaking {\n    using SafeERC20Upgradeable for IERC20Upgradeable;\n\n    event Deposited(address indexed _want, uint256 indexed _amount);\n    event Withdrew(address indexed _want, uint256 indexed _amount);\n\n    address public burnAddress;\n    address public wantToken;\n\n    function setWantAddress(address _wantToken) public {\n        wantToken = _wantToken;\n    }\n\n    function setBurnAddress(address _burnAddress) public {\n        burnAddress = _burnAddress;\n    }\n\n    function deposit(uint256 _pid, uint256 _amount) external {\n        // Reqs\n        require(_pid >= 0);\n\n        IERC20Upgradeable(wantToken).safeTransferFrom(msg.sender, burnAddress, _amount);\n        emit Deposited(wantToken, _amount);        \n    }\n\n    function withdraw(uint256 _pid, uint256 _amount) external {\n        // Reqs\n        require(_pid >= 0);\n\n        IMockERC20Upgradeable(wantToken).mint(msg.sender, _amount);\n        emit Withdrew(wantToken, _amount);\n    }\n}\n\ncontract MockSTGToken is MockERC20Upgradeable {}",
  "sourcePath": "/Users/kristophm/Documents/workspace/zorro-protocol/contracts/vaults/mocks/MockVaultStargate.sol",
  "compiler": {
    "name": "solc",
    "version": "0.8.10+commit.fc410830.Emscripten.clang"
  },
  "schemaVersion": "3.4.10",
  "updatedAt": "2022-11-16T16:38:23.005Z",
  "devdoc": {
    "kind": "dev",
    "methods": {
      "allowance(address,address)": {
        "details": "See {IERC20-allowance}."
      },
      "approve(address,uint256)": {
        "details": "See {IERC20-approve}. NOTE: If `amount` is the maximum `uint256`, the allowance is not updated on `transferFrom`. This is semantically equivalent to an infinite approval. Requirements: - `spender` cannot be the zero address."
      },
      "balanceOf(address)": {
        "details": "See {IERC20-balanceOf}."
      },
      "decimals()": {
        "details": "Returns the number of decimals used to get its user representation. For example, if `decimals` equals `2`, a balance of `505` tokens should be displayed to a user as `5.05` (`505 / 10 ** 2`). Tokens usually opt for a value of 18, imitating the relationship between Ether and Wei. This is the value {ERC20} uses, unless this function is overridden; NOTE: This information is only used for _display_ purposes: it in no way affects any of the arithmetic of the contract, including {IERC20-balanceOf} and {IERC20-transfer}."
      },
      "decreaseAllowance(address,uint256)": {
        "details": "Atomically decreases the allowance granted to `spender` by the caller. This is an alternative to {approve} that can be used as a mitigation for problems described in {IERC20-approve}. Emits an {Approval} event indicating the updated allowance. Requirements: - `spender` cannot be the zero address. - `spender` must have allowance for the caller of at least `subtractedValue`."
      },
      "increaseAllowance(address,uint256)": {
        "details": "Atomically increases the allowance granted to `spender` by the caller. This is an alternative to {approve} that can be used as a mitigation for problems described in {IERC20-approve}. Emits an {Approval} event indicating the updated allowance. Requirements: - `spender` cannot be the zero address."
      },
      "name()": {
        "details": "Returns the name of the token."
      },
      "symbol()": {
        "details": "Returns the symbol of the token, usually a shorter version of the name."
      },
      "totalSupply()": {
        "details": "See {IERC20-totalSupply}."
      },
      "transfer(address,uint256)": {
        "details": "See {IERC20-transfer}. Requirements: - `to` cannot be the zero address. - the caller must have a balance of at least `amount`."
      },
      "transferFrom(address,address,uint256)": {
        "details": "See {IERC20-transferFrom}. Emits an {Approval} event indicating the updated allowance. This is not required by the EIP. See the note at the beginning of {ERC20}. NOTE: Does not update the allowance if the current allowance is the maximum `uint256`. Requirements: - `from` and `to` cannot be the zero address. - `from` must have a balance of at least `amount`. - the caller must have allowance for ``from``'s tokens of at least `amount`."
      }
    },
    "version": 1
  },
  "userdoc": {
    "kind": "user",
    "methods": {},
    "version": 1
  }
}