{
  "contractName": "MockPriceFeed",
  "abi": [
    {
      "inputs": [
        {
          "internalType": "address",
          "name": "_priceFeed",
          "type": "address"
        }
      ],
      "name": "getExchangeRate",
      "outputs": [
        {
          "internalType": "uint256",
          "name": "",
          "type": "uint256"
        }
      ],
      "stateMutability": "view",
      "type": "function"
    }
  ],
  "bytecode": "0x608060405234801561001057600080fd5b5061048f806100206000396000f3fe608060405234801561001057600080fd5b506004361061002e5760e060020a6000350463efb7601d8114610033575b600080fd5b61004661004136600461020b565b610058565b60405190815260200160405180910390f35b60006100798273ffffffffffffffffffffffffffffffffffffffff1661007f565b92915050565b6000808273ffffffffffffffffffffffffffffffffffffffff1663313ce5676040518163ffffffff1660e060020a028152600401602060405180830381865afa1580156100d0573d6000803e3d6000fd5b505050506040513d601f19601f820116820180604052508101906100f49190610248565b905060008373ffffffffffffffffffffffffffffffffffffffff1663feaf968c6040518163ffffffff1660e060020a02815260040160a060405180830381865afa158015610146573d6000803e3d6000fd5b505050506040513d601f19601f8201168201806040525081019061016a919061028a565b50505091505060008112156101df576040517f08c379a000000000000000000000000000000000000000000000000000000000815260206004820152601660248201527f6e656720707269636573206e6f7420616c6c6f77656400000000000000000000604482015260640160405180910390fd5b6101ea82600a6103f0565b6101f98264e8d4a510006103ff565b610203919061041e565b949350505050565b60006020828403121561021d57600080fd5b813573ffffffffffffffffffffffffffffffffffffffff8116811461024157600080fd5b9392505050565b60006020828403121561025a57600080fd5b815160ff8116811461024157600080fd5b805169ffffffffffffffffffff8116811461028557600080fd5b919050565b600080600080600060a086880312156102a257600080fd5b6102ab8661026b565b94506020860151935060408601519250606086015191506102ce6080870161026b565b90509295509295909350565b7f4e487b7100000000000000000000000000000000000000000000000000000000600052601160045260246000fd5b600181815b8085111561034657816000190482111561032a5761032a6102da565b8085161561033757918102915b6002909404939080029061030e565b509250929050565b60008261035d57506001610079565b8161036a57506000610079565b8160018114610380576002811461038a576103a7565b6001915050610079565b60ff84111561039b5761039b6102da565b8360020a915050610079565b5060208310610133831016604e8410600b84101617156103ca575081810a610079565b6103d48383610309565b80600019048211156103e8576103e86102da565b029392505050565b600061024160ff84168361034e565b6000816000190483118215151615610419576104196102da565b500290565b600082610454577f4e487b7100000000000000000000000000000000000000000000000000000000600052601260045260246000fd5b50049056fea2646970667358221220faea3ed9d52ffbbe888d04602493f68399e6a93b12ecdc0a27c89b619b3f028c64736f6c634300080a0033",
  "immutableReferences": {},
  "source": "// SPDX-License-Identifier: MIT\n\npragma solidity ^0.8.0;\n\nimport \"../PriceFeed.sol\";\n\nimport \"../../interfaces/IAMMRouter02.sol\";\n\n/// @title MockPriceFeed: Mock contract for testing the PriceFeed library\ncontract MockPriceFeed {\n    using PriceFeed for AggregatorV3Interface;\n\n    function getExchangeRate(address _priceFeed)\n        public\n        view\n        returns (uint256)\n    {\n        return AggregatorV3Interface(_priceFeed).getExchangeRate();\n    }\n}\n\ncontract MockAggregatorV3 is AggregatorV3Interface {\n    constructor() {\n        decimals = 18;\n        _answer = 1e18;\n    }\n\n    uint8 public decimals;\n    string public description;\n    uint256 public version;\n    uint80 internal _rid;\n    int256 internal _answer;\n    uint256 internal _startedAt;\n    uint256 internal _updatedAt;\n    uint80 internal _answeredInRound;\n\n    function setDecimals(uint8 _dec) public {\n        decimals = _dec;\n    }\n\n    function setAnswer(int256 _ans) public {\n        _answer = _ans;\n    }\n\n    // getRoundData and latestRoundData should both raise \"No data present\"\n    // if they do not have data to report, instead of returning unset values\n    // which could be misinterpreted as actual reported values.\n    function getRoundData(uint80 _roundId)\n        external\n        view\n        returns (\n            uint80 roundId,\n            int256 answer,\n            uint256 startedAt,\n            uint256 updatedAt,\n            uint80 answeredInRound\n        )\n    {\n        return (\n            _roundId,\n            _answer,\n            _startedAt,\n            _updatedAt,\n            _answeredInRound\n        );\n    }\n\n    function latestRoundData()\n        external\n        view\n        returns (\n            uint80 roundId,\n            int256 answer,\n            uint256 startedAt,\n            uint256 updatedAt,\n            uint80 answeredInRound\n        )\n    {\n        return (\n            _rid,\n            _answer,\n            _startedAt,\n            _updatedAt,\n            _answeredInRound\n        );\n    }\n}\n\ncontract MockPriceAggToken0 is MockAggregatorV3 {}\ncontract MockPriceAggToken1 is MockAggregatorV3 {}\ncontract MockPriceAggEarnToken is MockAggregatorV3 {}\ncontract MockPriceAggZOR is MockAggregatorV3 {}\ncontract MockPriceAggLPOtherToken is MockAggregatorV3 {}\ncontract MockPriceUSDC is MockAggregatorV3 {}\ncontract MockPriceBUSD is MockAggregatorV3 {}",
  "sourcePath": "/Users/kristophm/Documents/workspace/zorro-protocol/contracts/libraries/mocks/MockPriceFeed.sol",
  "compiler": {
    "name": "solc",
    "version": "0.8.10+commit.fc410830.Emscripten.clang"
  },
  "schemaVersion": "3.4.10",
  "updatedAt": "2022-12-12T21:56:16.419Z",
  "devdoc": {
    "kind": "dev",
    "methods": {},
    "title": "MockPriceFeed: Mock contract for testing the PriceFeed library",
    "version": 1
  },
  "userdoc": {
    "kind": "user",
    "methods": {},
    "version": 1
  }
}