{
  "contractName": "PoolTreasury",
  "abi": [
    {
      "inputs": [
        {
          "internalType": "address",
          "name": "_timelockOwner",
          "type": "address"
        }
      ],
      "stateMutability": "nonpayable",
      "type": "constructor"
    },
    {
      "anonymous": false,
      "inputs": [
        {
          "indexed": true,
          "internalType": "address",
          "name": "previousOwner",
          "type": "address"
        },
        {
          "indexed": true,
          "internalType": "address",
          "name": "newOwner",
          "type": "address"
        }
      ],
      "name": "OwnershipTransferred",
      "type": "event"
    },
    {
      "inputs": [],
      "name": "owner",
      "outputs": [
        {
          "internalType": "address",
          "name": "",
          "type": "address"
        }
      ],
      "stateMutability": "view",
      "type": "function"
    },
    {
      "inputs": [],
      "name": "renounceOwnership",
      "outputs": [],
      "stateMutability": "nonpayable",
      "type": "function"
    },
    {
      "inputs": [
        {
          "internalType": "address",
          "name": "newOwner",
          "type": "address"
        }
      ],
      "name": "transferOwnership",
      "outputs": [],
      "stateMutability": "nonpayable",
      "type": "function"
    },
    {
      "inputs": [
        {
          "internalType": "address",
          "name": "_token",
          "type": "address"
        },
        {
          "internalType": "uint256",
          "name": "_amount",
          "type": "uint256"
        },
        {
          "internalType": "address",
          "name": "_recipient",
          "type": "address"
        }
      ],
      "name": "transferTokenOut",
      "outputs": [],
      "stateMutability": "nonpayable",
      "type": "function"
    },
    {
      "inputs": [
        {
          "internalType": "uint256",
          "name": "_amount",
          "type": "uint256"
        },
        {
          "internalType": "address payable",
          "name": "_recipient",
          "type": "address"
        }
      ],
      "name": "transferETHOut",
      "outputs": [],
      "stateMutability": "nonpayable",
      "type": "function"
    }
  ],
  "bytecode": "0x608060405234801561001057600080fd5b50604051610b17380380610b1783398101604081905261002f91610217565b610051610043640100000000610069810204565b64010000000061006d810204565b610063816401000000006100bd810204565b50610247565b3390565b60008054600160a060020a03838116600160a060020a0319831681178455604051919092169283917f8be0079c531659141344cd1fd0a4f28419497f9722a3daafe3b4186f6b6457e09190a35050565b6100ce640100000000610069810204565b600160a060020a03166100e8640100000000610208810204565b600160a060020a03161461015d576040517f08c379a000000000000000000000000000000000000000000000000000000000815260206004820181905260248201527f4f776e61626c653a2063616c6c6572206973206e6f7420746865206f776e657260448201526064015b60405180910390fd5b600160a060020a0381166101f3576040517f08c379a000000000000000000000000000000000000000000000000000000000815260206004820152602660248201527f4f776e61626c653a206e6577206f776e657220697320746865207a65726f206160448201527f64647265737300000000000000000000000000000000000000000000000000006064820152608401610154565b6102058164010000000061006d810204565b50565b600054600160a060020a031690565b60006020828403121561022957600080fd5b8151600160a060020a038116811461024057600080fd5b9392505050565b6108c1806102566000396000f3fe608060405234801561001057600080fd5b5060043610610073577c01000000000000000000000000000000000000000000000000000000006000350463465fe0998114610078578063715018a61461008d5780637b1ac0ec146100955780638da5cb5b146100a8578063f2fde38b146100c7575b600080fd5b61008b610086366004610711565b6100da565b005b61008b6101bc565b61008b6100a3366004610753565b6101f5565b60005460408051600160a060020a039092168252519081900360200190f35b61008b6100d5366004610783565b6102d6565b600054600160a060020a031633146101105760405160e560020a62461bcd028152600401610107906107a0565b60405180910390fd5b6040517f70a08231000000000000000000000000000000000000000000000000000000008152306004820152600090600160a060020a038516906370a0823190602401602060405180830381865afa158015610170573d6000803e3d6000fd5b505050506040513d601f19601f8201168201806040525081019061019491906107d5565b9050808311156101a2578092505b6101b6600160a060020a038516838561038e565b50505050565b600054600160a060020a031633146101e95760405160e560020a62461bcd028152600401610107906107a0565b6101f36000610413565b565b600054600160a060020a031633146102225760405160e560020a62461bcd028152600401610107906107a0565b303180831115610230578092505b600082600160a060020a03168460405160006040518083038185875af1925050503d806000811461027d576040519150601f19603f3d011682016040523d82523d6000602084013e610282565b606091505b50509050806101b65760405160e560020a62461bcd02815260206004820152601460248201527f4661696c656420746f2073656e642045746865720000000000000000000000006044820152606401610107565b600054600160a060020a031633146103035760405160e560020a62461bcd028152600401610107906107a0565b600160a060020a0381166103825760405160e560020a62461bcd02815260206004820152602660248201527f4f776e61626c653a206e6577206f776e657220697320746865207a65726f206160448201527f64647265737300000000000000000000000000000000000000000000000000006064820152608401610107565b61038b81610413565b50565b60408051600160a060020a038416602482015260448082018490528251808303909101815260649091019091526020810180517bffffffffffffffffffffffffffffffffffffffffffffffffffffffff167fa9059cbb0000000000000000000000000000000000000000000000000000000017905261040e908490610470565b505050565b60008054600160a060020a0383811673ffffffffffffffffffffffffffffffffffffffff19831681178455604051919092169283917f8be0079c531659141344cd1fd0a4f28419497f9722a3daafe3b4186f6b6457e09190a35050565b60006104c5826040518060400160405280602081526020017f5361666545524332303a206c6f772d6c6576656c2063616c6c206661696c656481525085600160a060020a03166105589092919063ffffffff16565b80519091501561040e57808060200190518101906104e391906107ee565b61040e5760405160e560020a62461bcd02815260206004820152602a60248201527f5361666545524332303a204552433230206f7065726174696f6e20646964206e60448201527f6f742073756363656564000000000000000000000000000000000000000000006064820152608401610107565b60606105678484600085610571565b90505b9392505050565b606030318311156105ed5760405160e560020a62461bcd02815260206004820152602660248201527f416464726573733a20696e73756666696369656e742062616c616e636520666f60448201527f722063616c6c00000000000000000000000000000000000000000000000000006064820152608401610107565b600160a060020a0385163b6106475760405160e560020a62461bcd02815260206004820152601d60248201527f416464726573733a2063616c6c20746f206e6f6e2d636f6e74726163740000006044820152606401610107565b60008086600160a060020a03168587604051610663919061083c565b60006040518083038185875af1925050503d80600081146106a0576040519150601f19603f3d011682016040523d82523d6000602084013e6106a5565b606091505b50915091506106b58282866106c0565b979650505050505050565b606083156106cf57508161056a565b8251156106df5782518084602001fd5b8160405160e560020a62461bcd0281526004016101079190610858565b600160a060020a038116811461038b57600080fd5b60008060006060848603121561072657600080fd5b8335610731816106fc565b9250602084013591506040840135610748816106fc565b809150509250925092565b6000806040838503121561076657600080fd5b823591506020830135610778816106fc565b809150509250929050565b60006020828403121561079557600080fd5b813561056a816106fc565b6020808252818101527f4f776e61626c653a2063616c6c6572206973206e6f7420746865206f776e6572604082015260600190565b6000602082840312156107e757600080fd5b5051919050565b60006020828403121561080057600080fd5b8151801515811461056a57600080fd5b60005b8381101561082b578181015183820152602001610813565b838111156101b65750506000910152565b6000825161084e818460208701610810565b9190910192915050565b6020815260008251806020840152610877816040850160208701610810565b601f01601f1916919091016040019291505056fea2646970667358221220f35a9fcd46a2cbaaddcca46886107e172fe534db79ab0eae3da78054a4984fab64736f6c634300080a0033",
  "immutableReferences": {},
  "source": "// SPDX-License-Identifier: MIT\n\npragma solidity ^0.8.0;\n\nimport \"../helpers/Ownable.sol\";\n\nimport \"../interfaces/IERC20.sol\";\n\nimport \"../libraries/SafeERC20.sol\";\n\ncontract PoolTreasury is Ownable {\n  using SafeERC20 for IERC20;\n\n  /// @notice Constructor\n  /// @param _timelockOwner The address of the Timelock contract that should own this contract\n  constructor(address _timelockOwner) {\n    // Transfer ownership immediately to the Timelock owner\n    transferOwnership(_timelockOwner);\n  }\n\n  /// @notice transfer accumulated ERC20 token on this contract to specified recipient. Used for distribution of warchest funds.\n  /// @param _token address of token to transfer out\n  /// @param _amount amount of token to transfer, up to maximum. Specifying uint256(-1) will transfer maximum amount\n  /// @param _recipient address of recipient to transfer to\n  function transferTokenOut(address _token, uint256 _amount, address _recipient) external onlyOwner {\n    // Check current balance\n    uint256 bal = IERC20(_token).balanceOf(address(this));\n    // Safety: If amount greater than balance, cap at balance\n    if (_amount > bal) {\n      _amount = bal;\n    }\n    // Transfer to recipient\n    IERC20(_token).safeTransfer(_recipient, _amount);\n  }\n\n  /// @notice transfer accumulated ETH on this contract to specified recipient. Used for distribution of warchest funds.\n  /// @param _amount amount of ETH to transfer, up to the balance on this contract. Specifying uint256(-1) will transfer maximum amount\n  /// @param _recipient address of recipient to transfer to\n  function transferETHOut(uint256 _amount, address payable _recipient) external onlyOwner {\n    // Check current balance\n    uint256 bal = address(this).balance;\n    // Safety: If amount greater than balance, cap at balance\n    if (_amount > bal) {\n      _amount = bal;\n    }\n    // Transfer to recipient\n    (bool sent, ) = _recipient.call{value: _amount}(\"\");\n    require(sent, \"Failed to send Ether\");\n  }\n}\n",
  "sourcePath": "/Users/kristophm/Documents/workspace/zorro-protocol/contracts/finance/PoolTreasury.sol",
  "compiler": {
    "name": "solc",
    "version": "0.8.10+commit.fc410830.Emscripten.clang"
  },
  "schemaVersion": "3.4.4",
  "updatedAt": "2022-03-01T14:49:36.803Z",
  "devdoc": {
    "kind": "dev",
    "methods": {
      "constructor": {
        "params": {
          "_timelockOwner": "The address of the Timelock contract that should own this contract"
        }
      },
      "owner()": {
        "details": "Returns the address of the current owner."
      },
      "renounceOwnership()": {
        "details": "Leaves the contract without owner. It will not be possible to call `onlyOwner` functions anymore. Can only be called by the current owner. NOTE: Renouncing ownership will leave the contract without an owner, thereby removing any functionality that is only available to the owner."
      },
      "transferETHOut(uint256,address)": {
        "params": {
          "_amount": "amount of ETH to transfer, up to the balance on this contract. Specifying uint256(-1) will transfer maximum amount",
          "_recipient": "address of recipient to transfer to"
        }
      },
      "transferOwnership(address)": {
        "details": "Transfers ownership of the contract to a new account (`newOwner`). Can only be called by the current owner."
      },
      "transferTokenOut(address,uint256,address)": {
        "params": {
          "_amount": "amount of token to transfer, up to maximum. Specifying uint256(-1) will transfer maximum amount",
          "_recipient": "address of recipient to transfer to",
          "_token": "address of token to transfer out"
        }
      }
    },
    "version": 1
  },
  "userdoc": {
    "kind": "user",
    "methods": {
      "constructor": {
        "notice": "Constructor"
      },
      "transferETHOut(uint256,address)": {
        "notice": "transfer accumulated ETH on this contract to specified recipient. Used for distribution of warchest funds."
      },
      "transferTokenOut(address,uint256,address)": {
        "notice": "transfer accumulated ERC20 token on this contract to specified recipient. Used for distribution of warchest funds."
      }
    },
    "version": 1
  }
}