{
  "contractName": "PoolPublic",
  "abi": [
    {
      "anonymous": false,
      "inputs": [
        {
          "indexed": true,
          "internalType": "address",
          "name": "previousOwner",
          "type": "address"
        },
        {
          "indexed": true,
          "internalType": "address",
          "name": "newOwner",
          "type": "address"
        }
      ],
      "name": "OwnershipTransferred",
      "type": "event"
    },
    {
      "anonymous": false,
      "inputs": [
        {
          "indexed": true,
          "internalType": "address",
          "name": "_controller",
          "type": "address"
        }
      ],
      "name": "SetController",
      "type": "event"
    },
    {
      "inputs": [],
      "name": "ZORRO",
      "outputs": [
        {
          "internalType": "address",
          "name": "",
          "type": "address"
        }
      ],
      "stateMutability": "view",
      "type": "function",
      "constant": true
    },
    {
      "inputs": [],
      "name": "controller",
      "outputs": [
        {
          "internalType": "address",
          "name": "",
          "type": "address"
        }
      ],
      "stateMutability": "view",
      "type": "function",
      "constant": true
    },
    {
      "inputs": [],
      "name": "owner",
      "outputs": [
        {
          "internalType": "address",
          "name": "",
          "type": "address"
        }
      ],
      "stateMutability": "view",
      "type": "function",
      "constant": true
    },
    {
      "inputs": [],
      "name": "renounceOwnership",
      "outputs": [],
      "stateMutability": "nonpayable",
      "type": "function"
    },
    {
      "inputs": [
        {
          "internalType": "address",
          "name": "newOwner",
          "type": "address"
        }
      ],
      "name": "transferOwnership",
      "outputs": [],
      "stateMutability": "nonpayable",
      "type": "function"
    },
    {
      "inputs": [
        {
          "internalType": "address",
          "name": "_zorroTokenAddress",
          "type": "address"
        },
        {
          "internalType": "address",
          "name": "_controller",
          "type": "address"
        }
      ],
      "name": "initialize",
      "outputs": [],
      "stateMutability": "nonpayable",
      "type": "function"
    },
    {
      "inputs": [
        {
          "internalType": "address",
          "name": "_controller",
          "type": "address"
        }
      ],
      "name": "setController",
      "outputs": [],
      "stateMutability": "nonpayable",
      "type": "function"
    }
  ],
  "bytecode": "0x608060405234801561001057600080fd5b506108b6806100206000396000f3fe608060405234801561001057600080fd5b506004361061007d5760003560e01c80638da5cb5b1161005b5780638da5cb5b146100ce57806392eefe9b146100df578063f2fde38b146100f2578063f77c47911461010557600080fd5b8063485cc95514610082578063715018a6146100975780638c157db21461009f575b600080fd5b610095610090366004610721565b610118565b005b610095610210565b6065546100b2906001600160a01b031681565b6040516001600160a01b03909116815260200160405180910390f35b6033546001600160a01b03166100b2565b6100956100ed366004610754565b610246565b610095610100366004610754565b6102ca565b6066546100b2906001600160a01b031681565b600054610100900460ff166101335760005460ff1615610137565b303b155b61019f5760405162461bcd60e51b815260206004820152602e60248201527f496e697469616c697a61626c653a20636f6e747261637420697320616c72656160448201526d191e481a5b9a5d1a585b1a5e995960921b60648201526084015b60405180910390fd5b600054610100900460ff161580156101c1576000805461ffff19166101011790555b606580546001600160a01b038086166001600160a01b03199283161790925560668054928516929091169190911790556101f9610365565b801561020b576000805461ff00191690555b505050565b6033546001600160a01b0316331461023a5760405162461bcd60e51b81526004016101969061076f565b6102446000610384565b565b6033546001600160a01b031633146102705760405162461bcd60e51b81526004016101969061076f565b606680546001600160a01b0319166001600160a01b038316179055610293610365565b6040516001600160a01b038216907f4ff638452bbf33c012645d18ae6f05515ff5f2d1dfb0cece8cbf018c60903f7090600090a250565b6033546001600160a01b031633146102f45760405162461bcd60e51b81526004016101969061076f565b6001600160a01b0381166103595760405162461bcd60e51b815260206004820152602660248201527f4f776e61626c653a206e6577206f776e657220697320746865207a65726f206160448201526564647265737360d01b6064820152608401610196565b61036281610384565b50565b606654606554610244916001600160a01b0391821691166000196103d6565b603380546001600160a01b038381166001600160a01b0319831681179093556040519116919082907f8be0079c531659141344cd1fd0a4f28419497f9722a3daafe3b4186f6b6457e090600090a35050565b604051636eb1769f60e11b81523060048201526001600160a01b038381166024830152600091839186169063dd62ed3e90604401602060405180830381865afa158015610427573d6000803e3d6000fd5b505050506040513d601f19601f8201168201806040525081019061044b91906107a4565b61045591906107bd565b604080516001600160a01b038616602482015260448082018490528251808303909101815260649091019091526020810180516001600160e01b031663095ea7b360e01b1790529091506104aa9085906104b0565b50505050565b6000610505826040518060400160405280602081526020017f5361666545524332303a206c6f772d6c6576656c2063616c6c206661696c6564815250856001600160a01b03166105829092919063ffffffff16565b80519091501561020b578080602001905181019061052391906107e3565b61020b5760405162461bcd60e51b815260206004820152602a60248201527f5361666545524332303a204552433230206f7065726174696f6e20646964206e6044820152691bdd081cdd58d8d9595960b21b6064820152608401610196565b6060610591848460008561059b565b90505b9392505050565b6060824710156105fc5760405162461bcd60e51b815260206004820152602660248201527f416464726573733a20696e73756666696369656e742062616c616e636520666f6044820152651c8818d85b1b60d21b6064820152608401610196565b6001600160a01b0385163b6106535760405162461bcd60e51b815260206004820152601d60248201527f416464726573733a2063616c6c20746f206e6f6e2d636f6e74726163740000006044820152606401610196565b600080866001600160a01b0316858760405161066f9190610831565b60006040518083038185875af1925050503d80600081146106ac576040519150601f19603f3d011682016040523d82523d6000602084013e6106b1565b606091505b50915091506106c18282866106cc565b979650505050505050565b606083156106db575081610594565b8251156106eb5782518084602001fd5b8160405162461bcd60e51b8152600401610196919061084d565b80356001600160a01b038116811461071c57600080fd5b919050565b6000806040838503121561073457600080fd5b61073d83610705565b915061074b60208401610705565b90509250929050565b60006020828403121561076657600080fd5b61059482610705565b6020808252818101527f4f776e61626c653a2063616c6c6572206973206e6f7420746865206f776e6572604082015260600190565b6000602082840312156107b657600080fd5b5051919050565b600082198211156107de57634e487b7160e01b600052601160045260246000fd5b500190565b6000602082840312156107f557600080fd5b8151801515811461059457600080fd5b60005b83811015610820578181015183820152602001610808565b838111156104aa5750506000910152565b60008251610843818460208701610805565b9190910192915050565b602081526000825180602084015261086c816040850160208701610805565b601f01601f1916919091016040019291505056fea26469706673582212202b3eae783e64a18a0aea67b7528f80fd1629302eb3bd2ad2c32ed0da8548553064736f6c634300080a0033",
  "immutableReferences": {},
  "source": "// SPDX-License-Identifier: MIT\n\npragma solidity ^0.8.0;\n\nimport \"@openzeppelin/contracts-upgradeable/token/ERC20/utils/SafeERC20Upgradeable.sol\";\n\nimport \"@openzeppelin/contracts-upgradeable/token/ERC20/IERC20Upgradeable.sol\";\n\nimport \"@openzeppelin/contracts-upgradeable/access/OwnableUpgradeable.sol\";\n\n/// @title PoolPublic: The public pool contract. Hold all Zorro tokens deemed for public pool at inception and gradually emits to ZorroController contract based on market conditions\ncontract PoolPublic is Initializable, OwnableUpgradeable {\n    using SafeERC20Upgradeable for IERC20Upgradeable;\n\n    /* Constructor */\n\n    /// @notice Constructor\n    /// @param _zorroTokenAddress The Zorro token address\n    /// @param _controller The address of the ZorroController\n    function initialize(\n        address _zorroTokenAddress,\n        address _controller\n    ) public initializer {\n        // Set Zorro token address\n        ZORRO = _zorroTokenAddress;\n        // Set controller address\n        controller = _controller;\n        // Allow controller to spend tokens on this contract\n        _allowControllerToSpend();\n    }\n\n    /* State */\n\n    address public ZORRO; // Zorro token contract address\n    address public controller; // ZorroController contract address\n\n    /* Events */\n    event SetController(address indexed _controller);\n\n    /* Functions */\n    /// @notice Increases spending allowance to max amount for Zorro Controller\n    function _allowControllerToSpend() internal {\n        IERC20Upgradeable(ZORRO).safeIncreaseAllowance(controller, type(uint256).max);\n    }\n\n    /// @notice setter for controller\n    function setController(address _controller) external onlyOwner {\n        // Update controller\n        controller = _controller;\n        // Reset spending allowance for new controller\n        _allowControllerToSpend();\n        // Emit event\n        emit SetController(_controller);\n    }\n}\n",
  "sourcePath": "/Users/kristophm/Documents/workspace/zorro-protocol/contracts/finance/PoolPublic.sol",
  "compiler": {
    "name": "solc",
    "version": "0.8.10+commit.fc410830.Emscripten.clang"
  },
  "schemaVersion": "3.4.4",
  "updatedAt": "2022-05-14T19:55:44.506Z",
  "networkType": "ethereum",
  "devdoc": {
    "kind": "dev",
    "methods": {
      "initialize(address,address)": {
        "params": {
          "_controller": "The address of the ZorroController",
          "_zorroTokenAddress": "The Zorro token address"
        }
      },
      "owner()": {
        "details": "Returns the address of the current owner."
      },
      "renounceOwnership()": {
        "details": "Leaves the contract without owner. It will not be possible to call `onlyOwner` functions anymore. Can only be called by the current owner. NOTE: Renouncing ownership will leave the contract without an owner, thereby removing any functionality that is only available to the owner."
      },
      "transferOwnership(address)": {
        "details": "Transfers ownership of the contract to a new account (`newOwner`). Can only be called by the current owner."
      }
    },
    "title": "PoolPublic: The public pool contract. Hold all Zorro tokens deemed for public pool at inception and gradually emits to ZorroController contract based on market conditions",
    "version": 1
  },
  "userdoc": {
    "kind": "user",
    "methods": {
      "initialize(address,address)": {
        "notice": "Constructor"
      },
      "setController(address)": {
        "notice": "setter for controller"
      }
    },
    "version": 1
  }
}