{
  "contractName": "StargateUSDCOnAVAX",
  "abi": [
    {
      "anonymous": false,
      "inputs": [
        {
          "indexed": true,
          "internalType": "uint256",
          "name": "_amount",
          "type": "uint256"
        }
      ],
      "name": "Buyback",
      "type": "event"
    },
    {
      "anonymous": false,
      "inputs": [
        {
          "indexed": true,
          "internalType": "address",
          "name": "previousOwner",
          "type": "address"
        },
        {
          "indexed": true,
          "internalType": "address",
          "name": "newOwner",
          "type": "address"
        }
      ],
      "name": "OwnershipTransferred",
      "type": "event"
    },
    {
      "anonymous": false,
      "inputs": [
        {
          "indexed": false,
          "internalType": "address",
          "name": "account",
          "type": "address"
        }
      ],
      "name": "Paused",
      "type": "event"
    },
    {
      "anonymous": false,
      "inputs": [
        {
          "indexed": true,
          "internalType": "uint256",
          "name": "_amount",
          "type": "uint256"
        }
      ],
      "name": "RevShare",
      "type": "event"
    },
    {
      "anonymous": false,
      "inputs": [
        {
          "indexed": false,
          "internalType": "address",
          "name": "_govAddress",
          "type": "address"
        }
      ],
      "name": "SetGov",
      "type": "event"
    },
    {
      "anonymous": false,
      "inputs": [
        {
          "indexed": false,
          "internalType": "bool",
          "name": "_onlyGov",
          "type": "bool"
        }
      ],
      "name": "SetOnlyGov",
      "type": "event"
    },
    {
      "anonymous": false,
      "inputs": [
        {
          "indexed": false,
          "internalType": "address",
          "name": "_rewardsAddress",
          "type": "address"
        }
      ],
      "name": "SetRewardsAddress",
      "type": "event"
    },
    {
      "anonymous": false,
      "inputs": [
        {
          "indexed": false,
          "internalType": "uint256",
          "name": "_entranceFeeFactor",
          "type": "uint256"
        },
        {
          "indexed": false,
          "internalType": "uint256",
          "name": "_withdrawFeeFactor",
          "type": "uint256"
        },
        {
          "indexed": false,
          "internalType": "uint256",
          "name": "_controllerFee",
          "type": "uint256"
        },
        {
          "indexed": false,
          "internalType": "uint256",
          "name": "_buyBackRate",
          "type": "uint256"
        },
        {
          "indexed": false,
          "internalType": "uint256",
          "name": "_revShareRate",
          "type": "uint256"
        }
      ],
      "name": "SetSettings",
      "type": "event"
    },
    {
      "anonymous": false,
      "inputs": [
        {
          "indexed": false,
          "internalType": "address",
          "name": "_uniRouterAddress",
          "type": "address"
        }
      ],
      "name": "SetUniRouterAddress",
      "type": "event"
    },
    {
      "anonymous": false,
      "inputs": [
        {
          "indexed": false,
          "internalType": "address",
          "name": "account",
          "type": "address"
        }
      ],
      "name": "Unpaused",
      "type": "event"
    },
    {
      "inputs": [],
      "name": "ZORPriceFeed",
      "outputs": [
        {
          "internalType": "contract AggregatorV3Interface",
          "name": "",
          "type": "address"
        }
      ],
      "stateMutability": "view",
      "type": "function"
    },
    {
      "inputs": [],
      "name": "ZORROAddress",
      "outputs": [
        {
          "internalType": "address",
          "name": "",
          "type": "address"
        }
      ],
      "stateMutability": "view",
      "type": "function"
    },
    {
      "inputs": [],
      "name": "burnAddress",
      "outputs": [
        {
          "internalType": "address",
          "name": "",
          "type": "address"
        }
      ],
      "stateMutability": "view",
      "type": "function"
    },
    {
      "inputs": [],
      "name": "buyBackRate",
      "outputs": [
        {
          "internalType": "uint256",
          "name": "",
          "type": "uint256"
        }
      ],
      "stateMutability": "view",
      "type": "function"
    },
    {
      "inputs": [],
      "name": "buyBackRateMax",
      "outputs": [
        {
          "internalType": "uint256",
          "name": "",
          "type": "uint256"
        }
      ],
      "stateMutability": "view",
      "type": "function"
    },
    {
      "inputs": [],
      "name": "buyBackRateUL",
      "outputs": [
        {
          "internalType": "uint256",
          "name": "",
          "type": "uint256"
        }
      ],
      "stateMutability": "view",
      "type": "function"
    },
    {
      "inputs": [],
      "name": "controllerFee",
      "outputs": [
        {
          "internalType": "uint256",
          "name": "",
          "type": "uint256"
        }
      ],
      "stateMutability": "view",
      "type": "function"
    },
    {
      "inputs": [],
      "name": "controllerFeeMax",
      "outputs": [
        {
          "internalType": "uint256",
          "name": "",
          "type": "uint256"
        }
      ],
      "stateMutability": "view",
      "type": "function"
    },
    {
      "inputs": [],
      "name": "controllerFeeUL",
      "outputs": [
        {
          "internalType": "uint256",
          "name": "",
          "type": "uint256"
        }
      ],
      "stateMutability": "view",
      "type": "function"
    },
    {
      "inputs": [],
      "name": "defaultStablecoin",
      "outputs": [
        {
          "internalType": "address",
          "name": "",
          "type": "address"
        }
      ],
      "stateMutability": "view",
      "type": "function"
    },
    {
      "inputs": [
        {
          "internalType": "uint256",
          "name": "_wantAmt",
          "type": "uint256"
        }
      ],
      "name": "depositWantToken",
      "outputs": [
        {
          "internalType": "uint256",
          "name": "",
          "type": "uint256"
        }
      ],
      "stateMutability": "nonpayable",
      "type": "function"
    },
    {
      "inputs": [
        {
          "internalType": "uint256",
          "name": "_maxMarketMovementAllowed",
          "type": "uint256"
        }
      ],
      "name": "earn",
      "outputs": [],
      "stateMutability": "nonpayable",
      "type": "function"
    },
    {
      "inputs": [],
      "name": "earnTokenPriceFeed",
      "outputs": [
        {
          "internalType": "contract AggregatorV3Interface",
          "name": "",
          "type": "address"
        }
      ],
      "stateMutability": "view",
      "type": "function"
    },
    {
      "inputs": [],
      "name": "earnedAddress",
      "outputs": [
        {
          "internalType": "address",
          "name": "",
          "type": "address"
        }
      ],
      "stateMutability": "view",
      "type": "function"
    },
    {
      "inputs": [
        {
          "internalType": "uint256",
          "name": "",
          "type": "uint256"
        }
      ],
      "name": "earnedToStablecoinPath",
      "outputs": [
        {
          "internalType": "address",
          "name": "",
          "type": "address"
        }
      ],
      "stateMutability": "view",
      "type": "function"
    },
    {
      "inputs": [
        {
          "internalType": "uint256",
          "name": "",
          "type": "uint256"
        }
      ],
      "name": "earnedToToken0Path",
      "outputs": [
        {
          "internalType": "address",
          "name": "",
          "type": "address"
        }
      ],
      "stateMutability": "view",
      "type": "function"
    },
    {
      "inputs": [
        {
          "internalType": "uint256",
          "name": "",
          "type": "uint256"
        }
      ],
      "name": "earnedToToken1Path",
      "outputs": [
        {
          "internalType": "address",
          "name": "",
          "type": "address"
        }
      ],
      "stateMutability": "view",
      "type": "function"
    },
    {
      "inputs": [
        {
          "internalType": "uint256",
          "name": "",
          "type": "uint256"
        }
      ],
      "name": "earnedToZORLPPoolOtherTokenPath",
      "outputs": [
        {
          "internalType": "address",
          "name": "",
          "type": "address"
        }
      ],
      "stateMutability": "view",
      "type": "function"
    },
    {
      "inputs": [
        {
          "internalType": "uint256",
          "name": "",
          "type": "uint256"
        }
      ],
      "name": "earnedToZORROPath",
      "outputs": [
        {
          "internalType": "address",
          "name": "",
          "type": "address"
        }
      ],
      "stateMutability": "view",
      "type": "function"
    },
    {
      "inputs": [],
      "name": "entranceFeeFactor",
      "outputs": [
        {
          "internalType": "uint256",
          "name": "",
          "type": "uint256"
        }
      ],
      "stateMutability": "view",
      "type": "function"
    },
    {
      "inputs": [],
      "name": "entranceFeeFactorLL",
      "outputs": [
        {
          "internalType": "uint256",
          "name": "",
          "type": "uint256"
        }
      ],
      "stateMutability": "view",
      "type": "function"
    },
    {
      "inputs": [],
      "name": "entranceFeeFactorMax",
      "outputs": [
        {
          "internalType": "uint256",
          "name": "",
          "type": "uint256"
        }
      ],
      "stateMutability": "view",
      "type": "function"
    },
    {
      "inputs": [
        {
          "internalType": "uint256",
          "name": "_amountUSD",
          "type": "uint256"
        },
        {
          "internalType": "uint256",
          "name": "_maxMarketMovementAllowed",
          "type": "uint256"
        }
      ],
      "name": "exchangeUSDForWantToken",
      "outputs": [
        {
          "internalType": "uint256",
          "name": "",
          "type": "uint256"
        }
      ],
      "stateMutability": "nonpayable",
      "type": "function"
    },
    {
      "inputs": [
        {
          "internalType": "uint256",
          "name": "_amount",
          "type": "uint256"
        },
        {
          "internalType": "uint256",
          "name": "_maxMarketMovementAllowed",
          "type": "uint256"
        }
      ],
      "name": "exchangeWantTokenForUSD",
      "outputs": [
        {
          "internalType": "uint256",
          "name": "",
          "type": "uint256"
        }
      ],
      "stateMutability": "nonpayable",
      "type": "function"
    },
    {
      "inputs": [],
      "name": "farm",
      "outputs": [],
      "stateMutability": "nonpayable",
      "type": "function"
    },
    {
      "inputs": [],
      "name": "farmContractAddress",
      "outputs": [
        {
          "internalType": "address",
          "name": "",
          "type": "address"
        }
      ],
      "stateMutability": "view",
      "type": "function"
    },
    {
      "inputs": [],
      "name": "govAddress",
      "outputs": [
        {
          "internalType": "address",
          "name": "",
          "type": "address"
        }
      ],
      "stateMutability": "view",
      "type": "function"
    },
    {
      "inputs": [
        {
          "internalType": "address",
          "name": "_token",
          "type": "address"
        },
        {
          "internalType": "uint256",
          "name": "_amount",
          "type": "uint256"
        },
        {
          "internalType": "address",
          "name": "_to",
          "type": "address"
        }
      ],
      "name": "inCaseTokensGetStuck",
      "outputs": [],
      "stateMutability": "nonpayable",
      "type": "function"
    },
    {
      "inputs": [
        {
          "internalType": "address",
          "name": "_timelockOwner",
          "type": "address"
        },
        {
          "components": [
            {
              "internalType": "uint256",
              "name": "pid",
              "type": "uint256"
            },
            {
              "internalType": "bool",
              "name": "isHomeChain",
              "type": "bool"
            },
            {
              "internalType": "bool",
              "name": "isFarmable",
              "type": "bool"
            },
            {
              "components": [
                {
                  "internalType": "address",
                  "name": "govAddress",
                  "type": "address"
                },
                {
                  "internalType": "address",
                  "name": "zorroControllerAddress",
                  "type": "address"
                },
                {
                  "internalType": "address",
                  "name": "zorroXChainController",
                  "type": "address"
                },
                {
                  "internalType": "address",
                  "name": "ZORROAddress",
                  "type": "address"
                },
                {
                  "internalType": "address",
                  "name": "zorroStakingVault",
                  "type": "address"
                },
                {
                  "internalType": "address",
                  "name": "wantAddress",
                  "type": "address"
                },
                {
                  "internalType": "address",
                  "name": "token0Address",
                  "type": "address"
                },
                {
                  "internalType": "address",
                  "name": "token1Address",
                  "type": "address"
                },
                {
                  "internalType": "address",
                  "name": "earnedAddress",
                  "type": "address"
                },
                {
                  "internalType": "address",
                  "name": "farmContractAddress",
                  "type": "address"
                },
                {
                  "internalType": "address",
                  "name": "rewardsAddress",
                  "type": "address"
                },
                {
                  "internalType": "address",
                  "name": "poolAddress",
                  "type": "address"
                },
                {
                  "internalType": "address",
                  "name": "uniRouterAddress",
                  "type": "address"
                },
                {
                  "internalType": "address",
                  "name": "zorroLPPool",
                  "type": "address"
                },
                {
                  "internalType": "address",
                  "name": "zorroLPPoolOtherToken",
                  "type": "address"
                },
                {
                  "internalType": "address",
                  "name": "defaultStablecoin",
                  "type": "address"
                }
              ],
              "internalType": "struct VaultActions.VaultAddresses",
              "name": "keyAddresses",
              "type": "tuple"
            },
            {
              "internalType": "address[]",
              "name": "earnedToZORROPath",
              "type": "address[]"
            },
            {
              "internalType": "address[]",
              "name": "earnedToToken0Path",
              "type": "address[]"
            },
            {
              "internalType": "address[]",
              "name": "stablecoinToToken0Path",
              "type": "address[]"
            },
            {
              "internalType": "address[]",
              "name": "earnedToZORLPPoolOtherTokenPath",
              "type": "address[]"
            },
            {
              "internalType": "address[]",
              "name": "earnedToStablecoinPath",
              "type": "address[]"
            },
            {
              "components": [
                {
                  "internalType": "uint256",
                  "name": "controllerFee",
                  "type": "uint256"
                },
                {
                  "internalType": "uint256",
                  "name": "buyBackRate",
                  "type": "uint256"
                },
                {
                  "internalType": "uint256",
                  "name": "revShareRate",
                  "type": "uint256"
                },
                {
                  "internalType": "uint256",
                  "name": "entranceFeeFactor",
                  "type": "uint256"
                },
                {
                  "internalType": "uint256",
                  "name": "withdrawFeeFactor",
                  "type": "uint256"
                }
              ],
              "internalType": "struct VaultActions.VaultFees",
              "name": "fees",
              "type": "tuple"
            },
            {
              "components": [
                {
                  "internalType": "address",
                  "name": "token0PriceFeed",
                  "type": "address"
                },
                {
                  "internalType": "address",
                  "name": "token1PriceFeed",
                  "type": "address"
                },
                {
                  "internalType": "address",
                  "name": "earnTokenPriceFeed",
                  "type": "address"
                },
                {
                  "internalType": "address",
                  "name": "ZORPriceFeed",
                  "type": "address"
                },
                {
                  "internalType": "address",
                  "name": "lpPoolOtherTokenPriceFeed",
                  "type": "address"
                },
                {
                  "internalType": "address",
                  "name": "stablecoinPriceFeed",
                  "type": "address"
                }
              ],
              "internalType": "struct VaultActions.VaultPriceFeeds",
              "name": "priceFeeds",
              "type": "tuple"
            },
            {
              "internalType": "address",
              "name": "tokenSTG",
              "type": "address"
            },
            {
              "internalType": "address",
              "name": "stargateRouter",
              "type": "address"
            },
            {
              "internalType": "uint16",
              "name": "stargatePoolId",
              "type": "uint16"
            }
          ],
          "internalType": "struct VaultStargate.VaultStargateInit",
          "name": "_initValue",
          "type": "tuple"
        }
      ],
      "name": "initialize",
      "outputs": [],
      "stateMutability": "nonpayable",
      "type": "function"
    },
    {
      "inputs": [
        {
          "internalType": "address",
          "name": "_timelockOwner",
          "type": "address"
        }
      ],
      "name": "initialize",
      "outputs": [],
      "stateMutability": "nonpayable",
      "type": "function"
    },
    {
      "inputs": [],
      "name": "isFarmable",
      "outputs": [
        {
          "internalType": "bool",
          "name": "",
          "type": "bool"
        }
      ],
      "stateMutability": "view",
      "type": "function"
    },
    {
      "inputs": [],
      "name": "isHomeChain",
      "outputs": [
        {
          "internalType": "bool",
          "name": "",
          "type": "bool"
        }
      ],
      "stateMutability": "view",
      "type": "function"
    },
    {
      "inputs": [],
      "name": "lastEarnBlock",
      "outputs": [
        {
          "internalType": "uint256",
          "name": "",
          "type": "uint256"
        }
      ],
      "stateMutability": "view",
      "type": "function"
    },
    {
      "inputs": [],
      "name": "lpPoolOtherTokenPriceFeed",
      "outputs": [
        {
          "internalType": "contract AggregatorV3Interface",
          "name": "",
          "type": "address"
        }
      ],
      "stateMutability": "view",
      "type": "function"
    },
    {
      "inputs": [],
      "name": "maxMarketMovementAllowed",
      "outputs": [
        {
          "internalType": "uint256",
          "name": "",
          "type": "uint256"
        }
      ],
      "stateMutability": "view",
      "type": "function"
    },
    {
      "inputs": [],
      "name": "onlyGov",
      "outputs": [
        {
          "internalType": "bool",
          "name": "",
          "type": "bool"
        }
      ],
      "stateMutability": "view",
      "type": "function"
    },
    {
      "inputs": [],
      "name": "owner",
      "outputs": [
        {
          "internalType": "address",
          "name": "",
          "type": "address"
        }
      ],
      "stateMutability": "view",
      "type": "function"
    },
    {
      "inputs": [],
      "name": "pause",
      "outputs": [],
      "stateMutability": "nonpayable",
      "type": "function"
    },
    {
      "inputs": [],
      "name": "paused",
      "outputs": [
        {
          "internalType": "bool",
          "name": "",
          "type": "bool"
        }
      ],
      "stateMutability": "view",
      "type": "function"
    },
    {
      "inputs": [],
      "name": "pid",
      "outputs": [
        {
          "internalType": "uint256",
          "name": "",
          "type": "uint256"
        }
      ],
      "stateMutability": "view",
      "type": "function"
    },
    {
      "inputs": [],
      "name": "poolAddress",
      "outputs": [
        {
          "internalType": "address",
          "name": "",
          "type": "address"
        }
      ],
      "stateMutability": "view",
      "type": "function"
    },
    {
      "inputs": [],
      "name": "renounceOwnership",
      "outputs": [],
      "stateMutability": "nonpayable",
      "type": "function"
    },
    {
      "inputs": [],
      "name": "revShareRate",
      "outputs": [
        {
          "internalType": "uint256",
          "name": "",
          "type": "uint256"
        }
      ],
      "stateMutability": "view",
      "type": "function"
    },
    {
      "inputs": [],
      "name": "revShareRateMax",
      "outputs": [
        {
          "internalType": "uint256",
          "name": "",
          "type": "uint256"
        }
      ],
      "stateMutability": "view",
      "type": "function"
    },
    {
      "inputs": [],
      "name": "revShareRateUL",
      "outputs": [
        {
          "internalType": "uint256",
          "name": "",
          "type": "uint256"
        }
      ],
      "stateMutability": "view",
      "type": "function"
    },
    {
      "inputs": [],
      "name": "rewardsAddress",
      "outputs": [
        {
          "internalType": "address",
          "name": "",
          "type": "address"
        }
      ],
      "stateMutability": "view",
      "type": "function"
    },
    {
      "inputs": [
        {
          "internalType": "address",
          "name": "_burnAddress",
          "type": "address"
        }
      ],
      "name": "setBurnAddress",
      "outputs": [],
      "stateMutability": "nonpayable",
      "type": "function"
    },
    {
      "inputs": [
        {
          "internalType": "address",
          "name": "_defaultStablecoin",
          "type": "address"
        }
      ],
      "name": "setDefaultStablecoin",
      "outputs": [],
      "stateMutability": "nonpayable",
      "type": "function"
    },
    {
      "inputs": [
        {
          "internalType": "address",
          "name": "_earnedAddress",
          "type": "address"
        }
      ],
      "name": "setEarnedAddress",
      "outputs": [],
      "stateMutability": "nonpayable",
      "type": "function"
    },
    {
      "inputs": [
        {
          "internalType": "address",
          "name": "_farmContractAddress",
          "type": "address"
        }
      ],
      "name": "setFarmContractAddress",
      "outputs": [],
      "stateMutability": "nonpayable",
      "type": "function"
    },
    {
      "inputs": [
        {
          "internalType": "uint256",
          "name": "_entranceFeeFactor",
          "type": "uint256"
        },
        {
          "internalType": "uint256",
          "name": "_withdrawFeeFactor",
          "type": "uint256"
        },
        {
          "internalType": "uint256",
          "name": "_controllerFee",
          "type": "uint256"
        },
        {
          "internalType": "uint256",
          "name": "_buyBackRate",
          "type": "uint256"
        },
        {
          "internalType": "uint256",
          "name": "_revShareRate",
          "type": "uint256"
        }
      ],
      "name": "setFeeSettings",
      "outputs": [],
      "stateMutability": "nonpayable",
      "type": "function"
    },
    {
      "inputs": [
        {
          "internalType": "address",
          "name": "_govAddress",
          "type": "address"
        }
      ],
      "name": "setGov",
      "outputs": [],
      "stateMutability": "nonpayable",
      "type": "function"
    },
    {
      "inputs": [
        {
          "internalType": "bool",
          "name": "_isFarmable",
          "type": "bool"
        }
      ],
      "name": "setIsFarmable",
      "outputs": [],
      "stateMutability": "nonpayable",
      "type": "function"
    },
    {
      "inputs": [
        {
          "internalType": "uint256",
          "name": "_slippageNumerator",
          "type": "uint256"
        }
      ],
      "name": "setMaxMarketMovementAllowed",
      "outputs": [],
      "stateMutability": "nonpayable",
      "type": "function"
    },
    {
      "inputs": [
        {
          "internalType": "bool",
          "name": "_onlyGov",
          "type": "bool"
        }
      ],
      "name": "setOnlyGov",
      "outputs": [],
      "stateMutability": "nonpayable",
      "type": "function"
    },
    {
      "inputs": [
        {
          "internalType": "uint256",
          "name": "_pid",
          "type": "uint256"
        }
      ],
      "name": "setPid",
      "outputs": [],
      "stateMutability": "nonpayable",
      "type": "function"
    },
    {
      "inputs": [
        {
          "internalType": "address",
          "name": "_poolAddress",
          "type": "address"
        }
      ],
      "name": "setPoolAddress",
      "outputs": [],
      "stateMutability": "nonpayable",
      "type": "function"
    },
    {
      "inputs": [
        {
          "internalType": "uint8",
          "name": "_idx",
          "type": "uint8"
        },
        {
          "internalType": "address",
          "name": "_priceFeed",
          "type": "address"
        }
      ],
      "name": "setPriceFeed",
      "outputs": [],
      "stateMutability": "nonpayable",
      "type": "function"
    },
    {
      "inputs": [
        {
          "internalType": "address",
          "name": "_rewardsAddress",
          "type": "address"
        }
      ],
      "name": "setRewardsAddress",
      "outputs": [],
      "stateMutability": "nonpayable",
      "type": "function"
    },
    {
      "inputs": [
        {
          "internalType": "uint16",
          "name": "_poolId",
          "type": "uint16"
        }
      ],
      "name": "setStargatePoolId",
      "outputs": [],
      "stateMutability": "nonpayable",
      "type": "function"
    },
    {
      "inputs": [
        {
          "internalType": "address",
          "name": "_router",
          "type": "address"
        }
      ],
      "name": "setStargateRouter",
      "outputs": [],
      "stateMutability": "nonpayable",
      "type": "function"
    },
    {
      "inputs": [
        {
          "internalType": "uint8",
          "name": "_idx",
          "type": "uint8"
        },
        {
          "internalType": "address[]",
          "name": "_path",
          "type": "address[]"
        }
      ],
      "name": "setSwapPaths",
      "outputs": [],
      "stateMutability": "nonpayable",
      "type": "function"
    },
    {
      "inputs": [
        {
          "internalType": "address",
          "name": "_token0Address",
          "type": "address"
        }
      ],
      "name": "setToken0Address",
      "outputs": [],
      "stateMutability": "nonpayable",
      "type": "function"
    },
    {
      "inputs": [
        {
          "internalType": "address",
          "name": "_token1Address",
          "type": "address"
        }
      ],
      "name": "setToken1Address",
      "outputs": [],
      "stateMutability": "nonpayable",
      "type": "function"
    },
    {
      "inputs": [
        {
          "internalType": "address",
          "name": "_token",
          "type": "address"
        }
      ],
      "name": "setTokenSTG",
      "outputs": [],
      "stateMutability": "nonpayable",
      "type": "function"
    },
    {
      "inputs": [
        {
          "internalType": "address",
          "name": "_uniRouterAddress",
          "type": "address"
        }
      ],
      "name": "setUniRouterAddress",
      "outputs": [],
      "stateMutability": "nonpayable",
      "type": "function"
    },
    {
      "inputs": [
        {
          "internalType": "address",
          "name": "_wantAddress",
          "type": "address"
        }
      ],
      "name": "setWantAddress",
      "outputs": [],
      "stateMutability": "nonpayable",
      "type": "function"
    },
    {
      "inputs": [
        {
          "internalType": "address",
          "name": "_ZORROAddress",
          "type": "address"
        }
      ],
      "name": "setZORROAddress",
      "outputs": [],
      "stateMutability": "nonpayable",
      "type": "function"
    },
    {
      "inputs": [
        {
          "internalType": "address",
          "name": "_zorroControllerAddress",
          "type": "address"
        }
      ],
      "name": "setZorroControllerAddress",
      "outputs": [],
      "stateMutability": "nonpayable",
      "type": "function"
    },
    {
      "inputs": [
        {
          "internalType": "address",
          "name": "_poolAddress",
          "type": "address"
        }
      ],
      "name": "setZorroLPPoolAddress",
      "outputs": [],
      "stateMutability": "nonpayable",
      "type": "function"
    },
    {
      "inputs": [
        {
          "internalType": "address",
          "name": "_otherToken",
          "type": "address"
        }
      ],
      "name": "setZorroLPPoolOtherToken",
      "outputs": [],
      "stateMutability": "nonpayable",
      "type": "function"
    },
    {
      "inputs": [
        {
          "internalType": "address",
          "name": "_stakingVault",
          "type": "address"
        }
      ],
      "name": "setZorroStakingVault",
      "outputs": [],
      "stateMutability": "nonpayable",
      "type": "function"
    },
    {
      "inputs": [
        {
          "internalType": "address",
          "name": "_zorroXChainController",
          "type": "address"
        }
      ],
      "name": "setZorroXChainControllerAddress",
      "outputs": [],
      "stateMutability": "nonpayable",
      "type": "function"
    },
    {
      "inputs": [],
      "name": "sharesTotal",
      "outputs": [
        {
          "internalType": "uint256",
          "name": "",
          "type": "uint256"
        }
      ],
      "stateMutability": "view",
      "type": "function"
    },
    {
      "inputs": [],
      "name": "stablecoinPriceFeed",
      "outputs": [
        {
          "internalType": "contract AggregatorV3Interface",
          "name": "",
          "type": "address"
        }
      ],
      "stateMutability": "view",
      "type": "function"
    },
    {
      "inputs": [
        {
          "internalType": "uint256",
          "name": "",
          "type": "uint256"
        }
      ],
      "name": "stablecoinToToken0Path",
      "outputs": [
        {
          "internalType": "address",
          "name": "",
          "type": "address"
        }
      ],
      "stateMutability": "view",
      "type": "function"
    },
    {
      "inputs": [
        {
          "internalType": "uint256",
          "name": "",
          "type": "uint256"
        }
      ],
      "name": "stablecoinToToken1Path",
      "outputs": [
        {
          "internalType": "address",
          "name": "",
          "type": "address"
        }
      ],
      "stateMutability": "view",
      "type": "function"
    },
    {
      "inputs": [],
      "name": "stargatePoolId",
      "outputs": [
        {
          "internalType": "uint16",
          "name": "",
          "type": "uint16"
        }
      ],
      "stateMutability": "view",
      "type": "function"
    },
    {
      "inputs": [],
      "name": "stargateRouter",
      "outputs": [
        {
          "internalType": "address",
          "name": "",
          "type": "address"
        }
      ],
      "stateMutability": "view",
      "type": "function"
    },
    {
      "inputs": [],
      "name": "token0Address",
      "outputs": [
        {
          "internalType": "address",
          "name": "",
          "type": "address"
        }
      ],
      "stateMutability": "view",
      "type": "function"
    },
    {
      "inputs": [],
      "name": "token0PriceFeed",
      "outputs": [
        {
          "internalType": "contract AggregatorV3Interface",
          "name": "",
          "type": "address"
        }
      ],
      "stateMutability": "view",
      "type": "function"
    },
    {
      "inputs": [
        {
          "internalType": "uint256",
          "name": "",
          "type": "uint256"
        }
      ],
      "name": "token0ToStablecoinPath",
      "outputs": [
        {
          "internalType": "address",
          "name": "",
          "type": "address"
        }
      ],
      "stateMutability": "view",
      "type": "function"
    },
    {
      "inputs": [],
      "name": "token1Address",
      "outputs": [
        {
          "internalType": "address",
          "name": "",
          "type": "address"
        }
      ],
      "stateMutability": "view",
      "type": "function"
    },
    {
      "inputs": [],
      "name": "token1PriceFeed",
      "outputs": [
        {
          "internalType": "contract AggregatorV3Interface",
          "name": "",
          "type": "address"
        }
      ],
      "stateMutability": "view",
      "type": "function"
    },
    {
      "inputs": [
        {
          "internalType": "uint256",
          "name": "",
          "type": "uint256"
        }
      ],
      "name": "token1ToStablecoinPath",
      "outputs": [
        {
          "internalType": "address",
          "name": "",
          "type": "address"
        }
      ],
      "stateMutability": "view",
      "type": "function"
    },
    {
      "inputs": [],
      "name": "tokenSTG",
      "outputs": [
        {
          "internalType": "address",
          "name": "",
          "type": "address"
        }
      ],
      "stateMutability": "view",
      "type": "function"
    },
    {
      "inputs": [
        {
          "internalType": "address",
          "name": "newOwner",
          "type": "address"
        }
      ],
      "name": "transferOwnership",
      "outputs": [],
      "stateMutability": "nonpayable",
      "type": "function"
    },
    {
      "inputs": [],
      "name": "uniRouterAddress",
      "outputs": [
        {
          "internalType": "address",
          "name": "",
          "type": "address"
        }
      ],
      "stateMutability": "view",
      "type": "function"
    },
    {
      "inputs": [],
      "name": "unpause",
      "outputs": [],
      "stateMutability": "nonpayable",
      "type": "function"
    },
    {
      "inputs": [],
      "name": "vaultActions",
      "outputs": [
        {
          "internalType": "address",
          "name": "",
          "type": "address"
        }
      ],
      "stateMutability": "view",
      "type": "function"
    },
    {
      "inputs": [],
      "name": "wantAddress",
      "outputs": [
        {
          "internalType": "address",
          "name": "",
          "type": "address"
        }
      ],
      "stateMutability": "view",
      "type": "function"
    },
    {
      "inputs": [],
      "name": "wantLockedTotal",
      "outputs": [
        {
          "internalType": "uint256",
          "name": "",
          "type": "uint256"
        }
      ],
      "stateMutability": "view",
      "type": "function"
    },
    {
      "inputs": [],
      "name": "withdrawFeeFactor",
      "outputs": [
        {
          "internalType": "uint256",
          "name": "",
          "type": "uint256"
        }
      ],
      "stateMutability": "view",
      "type": "function"
    },
    {
      "inputs": [],
      "name": "withdrawFeeFactorLL",
      "outputs": [
        {
          "internalType": "uint256",
          "name": "",
          "type": "uint256"
        }
      ],
      "stateMutability": "view",
      "type": "function"
    },
    {
      "inputs": [],
      "name": "withdrawFeeFactorMax",
      "outputs": [
        {
          "internalType": "uint256",
          "name": "",
          "type": "uint256"
        }
      ],
      "stateMutability": "view",
      "type": "function"
    },
    {
      "inputs": [
        {
          "internalType": "uint256",
          "name": "_wantAmt",
          "type": "uint256"
        }
      ],
      "name": "withdrawWantToken",
      "outputs": [
        {
          "internalType": "uint256",
          "name": "sharesRemoved",
          "type": "uint256"
        }
      ],
      "stateMutability": "nonpayable",
      "type": "function"
    },
    {
      "inputs": [],
      "name": "zorroControllerAddress",
      "outputs": [
        {
          "internalType": "address",
          "name": "",
          "type": "address"
        }
      ],
      "stateMutability": "view",
      "type": "function"
    },
    {
      "inputs": [],
      "name": "zorroLPPool",
      "outputs": [
        {
          "internalType": "address",
          "name": "",
          "type": "address"
        }
      ],
      "stateMutability": "view",
      "type": "function"
    },
    {
      "inputs": [],
      "name": "zorroLPPoolOtherToken",
      "outputs": [
        {
          "internalType": "address",
          "name": "",
          "type": "address"
        }
      ],
      "stateMutability": "view",
      "type": "function"
    },
    {
      "inputs": [],
      "name": "zorroStakingVault",
      "outputs": [
        {
          "internalType": "address",
          "name": "",
          "type": "address"
        }
      ],
      "stateMutability": "view",
      "type": "function"
    },
    {
      "inputs": [],
      "name": "zorroXChainController",
      "outputs": [
        {
          "internalType": "address",
          "name": "",
          "type": "address"
        }
      ],
      "stateMutability": "view",
      "type": "function"
    }
  ],
  "bytecode": "0x608060405234801561001057600080fd5b50614daf806100206000396000f3fe608060405234801561001057600080fd5b50600436106105bb5760003560e060020a900480637ff36fbe11610304578063bf3a7d40116101ac578063e7198474116100f8578063f05c09b3116100b1578063f2fde38b1161008b578063f2fde38b14610c14578063f5046a2914610c27578063fbf5683f14610c3a578063ff29b39514610c4d57600080fd5b8063f05c09b314610beb578063f106845414610bf8578063f25342bf14610c0157600080fd5b8063e719847414610b92578063e7a0367914610ba5578063e9e15b4f14610bb8578063ebfba7c414610bcb578063edf5e58514610bde578063ee50dc34146106d557600080fd5b8063c8e3d18b11610165578063dc3395dc1161013f578063dc3395dc14610b46578063de84199114610b59578063e502a88d14610b6c578063e65a011714610b7f57600080fd5b8063c8e3d18b14610b0d578063cfad57a214610b20578063d7cb416f14610b3357600080fd5b8063bf3a7d4014610aae578063c0973eed14610ac1578063c302a4d01461093c578063c4d66de814610ad4578063c524a05614610ae7578063c8479cd614610afa57600080fd5b80639fc33a9f1161026b578063ab196def11610224578063b2bc2298116101fe578063b2bc229814610a60578063b3545c01146105d5578063b61bb80a14610a88578063b73cba2a14610a9b57600080fd5b8063ab196def14610a27578063ae53e58a14610a3a578063b1414dbb14610a4d57600080fd5b80639fc33a9f146109b5578063a0495391146109c8578063a4d2b083146109db578063a9e56f3c146109ee578063aabf190b14610a01578063aada5bf614610a1457600080fd5b8063875b6a7b116102bd578063875b6a7b146109455780638906758d146109585780638da5cb5b1461096b578063919982511461097c578063959334f41461098f57806396e9aff8146109a257600080fd5b80637ff36fbe146108f2578063833eeab91461090557806383f01939146109185780638456cb591461092b57806385f02dd614610933578063866b20181461093c57600080fd5b80634c5b09da116104675780636392ab12116103ce578063693a090b1161038757806370d5ae051161036157806370d5ae05146108b1578063715018a6146108c45780637153ef86146108cc5780637bf604d8146108df57600080fd5b8063693a090b146108785780636ca8bd651461088b5780636f96f6fa1461089e57600080fd5b80636392ab1214610823578063648794a41461083657806367057b6c146106d557806367206d4014610849578063677379e51461085c57806368f541621461086f57600080fd5b80635bc837fc116104205780635bc837fc146107b95780635c975abb146107cc5780635da79d63146107d75780635fc77d43146107ea5780636183e804146107fd57806361b5bf9f1461081057600080fd5b80634c5b09da1461075a5780634d9f7bb2146106d557806351b78b471461076d57806355ebedec14610780578063567e07c914610793578063583bda3b146107a657600080fd5b8063211019d7116105265780633f4ba83a116104df57806344a3955e116104b957806344a3955e1461071357806346008a071461071c5780634b0e7216146107345780634bf71bb81461074757600080fd5b80633f4ba83a1461070257806342da4eb31461070a57806343788cd2146106d557600080fd5b8063211019d7146105d55780632209b59e146106c25780632717eff3146106d5578063320d47cc146106de5780633214471f146106f157806336e9332d146106fa57600080fd5b80630fa4e01e116105785780630fa4e01e1461066e5780631334903f146106775780631755ff2114610680578063178a8d07146106935780631b0d8aab1461069c5780631e85b3ad146106af57600080fd5b806305828d3e146105c0578063061c7d48146105d55780630761a172146105f15780630b6bb30b146105fa5780630bbd6cd61461060d5780630daef32114610638575b600080fd5b6105d36105ce366004613d5f565b610c60565b005b6105de6103e881565b6040519081526020015b60405180910390f35b6105de60f45481565b6105d3610608366004613d95565b610cb8565b61062061061b366004613db2565b610d66565b604051600160a060020a0390911681526020016105e8565b60cb5461065e907501000000000000000000000000000000000000000000900460ff1681565b60405190151581526020016105e8565b6105de60e25481565b6105de60e05481565b60d95461062090600160a060020a031681565b6105de60de5481565b6105d36106aa366004613db2565b610d90565b6106206106bd366004613db2565b610dc2565b6105de6106d0366004613db2565b610dd2565b6105de61271081565b6105d36106ec366004613db2565b610f5e565b6105de60df5481565b6105d3610f90565b6105d3610fca565b6105de60e35481565b6105de60e45481565b60cb54610620906101009004600160a060020a031681565b6105d3610742366004613d5f565b611006565b610620610755366004613db2565b611055565b6105d3610768366004613d5f565b611065565b6105d361077b366004613d5f565b6110b4565b6105de61078e366004613db2565b611103565b6105d36107a1366004613d5f565b611321565b6105d36107b4366004613d5f565b611370565b6105d36107c7366004614174565b6113bf565b60975460ff1661065e565b6105d36107e5366004613d5f565b611842565b60cd5461062090600160a060020a031681565b6105d361080b366004613d5f565b611891565b6105d361081e366004613d5f565b6118e0565b610620610831366004613db2565b61192f565b6105de61084436600461432c565b61193f565b6105d361085736600461434e565b611afa565b60d05461062090600160a060020a031681565b6105de60e15481565b60da5461062090600160a060020a031681565b6105d3610899366004613d5f565b611c02565b60f05461062090600160a060020a031681565b60d75461062090600160a060020a031681565b6105d3611c51565b6105d36108da366004614390565b611c88565b60db5461062090600160a060020a031681565b60d25461062090600160a060020a031681565b610620610913366004613db2565b611f7c565b6105d3610926366004613d95565b611f8c565b6105d3611fcc565b6105de60dd5481565b6105de61232881565b60f55461062090600160a060020a031681565b6105d3610966366004613d5f565b612006565b603354600160a060020a0316610620565b6105d361098a366004613d5f565b612055565b6105d361099d366004613d5f565b6120a4565b6106206109b0366004613db2565b6120f3565b60d55461062090600160a060020a031681565b6106206109d6366004613db2565b612103565b60cf5461062090600160a060020a031681565b60f65461062090600160a060020a031681565b60f15461062090600160a060020a031681565b60f35461062090600160a060020a031681565b60f25461062090600160a060020a031681565b60ef5461062090600160a060020a031681565b60cc5461062090600160a060020a031681565b60f654610a759060a060020a900461ffff1681565b60405161ffff90911681526020016105e8565b60d65461062090600160a060020a031681565b6105d3610aa9366004613d5f565b612113565b6105d3610abc366004613d5f565b612162565b60d85461062090600160a060020a031681565b6105d3610ae2366004613d5f565b6121b1565b6105d3610af5366004613d5f565b61224c565b6105d3610b08366004613d5f565b61229b565b610620610b1b366004613db2565b6122ea565b6105d3610b2e366004613d5f565b6122fa565b60d35461062090600160a060020a031681565b6105d3610b543660046143cb565b61238f565b6105d3610b673660046143f5565b6123ef565b6105de610b7a36600461432c565b612571565b6105d3610b8d366004613db2565b6126ea565b60d45461062090600160a060020a031681565b60d15461062090600160a060020a031681565b6105d3610bc6366004613d5f565b612bf3565b60dc5461062090600160a060020a031681565b60c95461065e9060ff1681565b60cb5461065e9060ff1681565b6105de60ca5481565b60ee5461062090600160a060020a031681565b6105d3610c22366004613d5f565b612c42565b60ce5461062090600160a060020a031681565b610620610c48366004613db2565b612cfa565b6105d3610c5b36600461442e565b612d0a565b603354600160a060020a03163314610c965760405160e560020a62461bcd028152600401610c8d906144b5565b60405180910390fd5b60d38054600160a060020a031916600160a060020a0392909216919091179055565b60cb546101009004600160a060020a03163314610cea5760405160e560020a62461bcd028152600401610c8d906144ea565b60cb805482151575010000000000000000000000000000000000000000000275ff000000000000000000000000000000000000000000199091161790556040517f125177ac7b8930dac1e59c2b30b1b6b9191b30af40cf6bbb5d20fec4d44be60f90610d5b90831515815260200190565b60405180910390a150565b60e78181548110610d7657600080fd5b600091825260209091200154600160a060020a0316905081565b603354600160a060020a03163314610dbd5760405160e560020a62461bcd028152600401610c8d906144b5565b60ca55565b60e68181548110610d7657600080fd5b60cc54600090600160a060020a031633600160a060020a031614610e0b5760405160e560020a62461bcd028152600401610c8d90614521565b60026065541415610e315760405160e560020a62461bcd028152600401610c8d90614558565b600260655560975460ff1615610e5c5760405160e560020a62461bcd028152600401610c8d9061458f565b60008211610eaf5760405160e560020a62461bcd02815260206004820152601e60248201527f57616e7420746f6b656e206465706f736974206d757374206265203e203000006044820152606401610c8d565b60d154610ec790600160a060020a0316333085612e11565b60e354829015801590610edc5750600060e454115b15610f185761271060e354610ef191906145f5565b60e05460e454610f0190866145f5565b610f0b91906145f5565b610f159190614614565b90505b8060e454610f26919061464f565b60e45560cb5460ff1615610f4157610f3c612ec2565b610f53565b8260e354610f4f919061464f565b60e3555b600160655592915050565b603354600160a060020a03163314610f8b5760405160e560020a62461bcd028152600401610c8d906144b5565b60f455565b60026065541415610fb65760405160e560020a62461bcd028152600401610c8d90614558565b6002606555610fc3612ec2565b6001606555565b60cb546101009004600160a060020a03163314610ffc5760405160e560020a62461bcd028152600401610c8d906144ea565b611004613041565b565b603354600160a060020a031633146110335760405160e560020a62461bcd028152600401610c8d906144b5565b60d78054600160a060020a031916600160a060020a0392909216919091179055565b60ed8181548110610d7657600080fd5b603354600160a060020a031633146110925760405160e560020a62461bcd028152600401610c8d906144b5565b60d58054600160a060020a031916600160a060020a0392909216919091179055565b603354600160a060020a031633146110e15760405160e560020a62461bcd028152600401610c8d906144b5565b60f68054600160a060020a031916600160a060020a0392909216919091179055565b60cc54600090600160a060020a031633600160a060020a03161461113c5760405160e560020a62461bcd028152600401610c8d90614521565b600260655414156111625760405160e560020a62461bcd028152600401610c8d90614558565b600260655560975460ff161561118d5760405160e560020a62461bcd028152600401610c8d9061458f565b600082116111e05760405160e560020a62461bcd02815260206004820152600760248201527f6e656757616e74000000000000000000000000000000000000000000000000006044820152606401610c8d565b60e35460e4546111f090846145f5565b6111fa9190614614565b905060e45481111561120b575060e4545b8060e4546112199190614667565b60e45560e15461271011156112465761271060e1548361123991906145f5565b6112439190614614565b91505b60cb5460ff161561125a5761125a826130e0565b60d15460405160e060020a6370a08231028152306004820152600091600160a060020a0316906370a0823190602401602060405180830381865afa1580156112a6573d6000803e3d6000fd5b505050506040513d601f19601f820116820180604052508101906112ca919061467e565b9050808311156112d8578092505b8260e35410156112e85760e35492505b8260e3546112f69190614667565b60e35560cc5460d15461131691600160a060020a03918216911685613135565b506001606555919050565b603354600160a060020a0316331461134e5760405160e560020a62461bcd028152600401610c8d906144b5565b60cd8054600160a060020a031916600160a060020a0392909216919091179055565b603354600160a060020a0316331461139d5760405160e560020a62461bcd028152600401610c8d906144b5565b60ce8054600160a060020a031916600160a060020a0392909216919091179055565b600054610100900460ff166113da5760005460ff16156113de565b303b155b6113fd5760405160e560020a62461bcd028152600401610c8d90614697565b600054610100900460ff1615801561141f576000805461ffff19166101011790555b815160ca5560208083015160c9805460ff191691151591909117905560408084015160cb80546060808801518051750100000000000000000000000000000000000000000074ffffffffffffffffffffffffffffffffffffffffff1990941695151574ffffffffffffffffffffffffffffffffffffffff00191695909517610100600160a060020a0396871681029190911775ff0000000000000000000000000000000000000000001916939093179093558286015160cc8054600160a060020a03199081169287169290921790558386015160cd805483169187169190911790558382015160ce8054831691871691909117905560808085015160cf8054841691881691909117905560a085015160d18054841691881691909117905560c085015160d28054841691881691909117905560e08086015160d3805485169189169190911790559385015160d4805484169188169190911790556101208086015160d58054851691891691909117905561014086015160d8805485169189169190911790556101608087015160d980548616918a16919091179055610180808d015160f68054928a015160da80548916918d169190911790556101a0808b015160db80548a16918e169190911790556101c08b015160dc80548a16918e169190911790556101e0909a015160d680548916918d16919091179055928e015160f58054909716908b1617909555968c01519390971675ffffffffffffffffffffffffffffffffffffffffffff199096169590951760a060020a61ffff909316929092029190911790945591870151805160dd558086015160de559384015160df559083015190559081015160e155830151805161169f9260eb920190613c72565b5060a082015180516116b99160e991602090910190613c72565b5060c082015180516116d39160e591602090910190613c72565b5060e082015180516116ed9160ec91602090910190613c72565b5061010082015180516117089160ed91602090910190613c72565b5060d0546040517f8b4c5aee000000000000000000000000000000000000000000000000000000008152600160a060020a0390911690638b4c5aee906117539060e5906004016146f4565b600060405180830381865afa158015611770573d6000803e3d6000fd5b505050506040513d6000823e601f3d908101601f191682016040526117989190810190614744565b80516117ac9160e791602090910190613c72565b50610140820151805160ee8054600160a060020a0319908116600160a060020a0393841617909155604083015160f080548316918416919091179055608083015160f180548316918416919091179055606083015160f28054831691841691909117905560a09092015160f38054909316911617905561182b836121b1565b801561183d576000805461ff00191690555b505050565b603354600160a060020a0316331461186f5760405160e560020a62461bcd028152600401610c8d906144b5565b60da8054600160a060020a031916600160a060020a0392909216919091179055565b603354600160a060020a031633146118be5760405160e560020a62461bcd028152600401610c8d906144b5565b60d18054600160a060020a031916600160a060020a0392909216919091179055565b603354600160a060020a0316331461190d5760405160e560020a62461bcd028152600401610c8d906144b5565b60db8054600160a060020a031916600160a060020a0392909216919091179055565b60eb8181548110610d7657600080fd5b60cc54600090600160a060020a031633600160a060020a0316146119785760405160e560020a62461bcd028152600401610c8d90614521565b60975460ff161561199e5760405160e560020a62461bcd028152600401610c8d9061458f565b60d05460d1546119bb91600160a060020a0391821691168561317e565b60d054604080516101008101825260d654600160a060020a03908116825260d254811660208084019190915260d15482168385015260f6548216606084015260ee548216608084015260f354821660a084015260e78054855181840281018401909652808652929095169463f5c5575b9489949360c0850193919291830182828015611a7057602002820191906000526020600020905b8154600160a060020a03168152600190910190602001808311611a52575b505050918352505060f65460a060020a900461ffff1660209091015260405163ffffffff841660e060020a028152611aae9291908790600401614814565b6020604051808303816000875af1158015611acd573d6000803e3d6000fd5b505050506040513d601f19601f82011682018060405250810190611af1919061467e565b90505b92915050565b60cb546101009004600160a060020a03163314611b2c5760405160e560020a62461bcd028152600401610c8d906144ea565b60d454600160a060020a0384811691161415611b8d5760405160e560020a62461bcd02815260206004820152600560248201527f21736166650000000000000000000000000000000000000000000000000000006044820152606401610c8d565b60d154600160a060020a0384811691161415611bee5760405160e560020a62461bcd02815260206004820152600560248201527f21736166650000000000000000000000000000000000000000000000000000006044820152606401610c8d565b61183d600160a060020a0384168284613135565b603354600160a060020a03163314611c2f5760405160e560020a62461bcd028152600401610c8d906144b5565b60cf8054600160a060020a031916600160a060020a0392909216919091179055565b603354600160a060020a03163314611c7e5760405160e560020a62461bcd028152600401610c8d906144b5565b6110046000613262565b60cb546101009004600160a060020a03163314611cba5760405160e560020a62461bcd028152600401610c8d906144ea565b612328851015611d0f5760405160e560020a62461bcd02815260206004820152601a60248201527f5f656e7472616e6365466565466163746f7220746f6f206c6f770000000000006044820152606401610c8d565b612710851115611d645760405160e560020a62461bcd02815260206004820152601b60248201527f5f656e7472616e6365466565466163746f7220746f6f206869676800000000006044820152606401610c8d565b60e0859055612328841015611dbe5760405160e560020a62461bcd02815260206004820152601a60248201527f5f7769746864726177466565466163746f7220746f6f206c6f770000000000006044820152606401610c8d565b612710841115611e135760405160e560020a62461bcd02815260206004820152601b60248201527f5f7769746864726177466565466163746f7220746f6f206869676800000000006044820152606401610c8d565b60e18490556103e8831115611e6d5760405160e560020a62461bcd02815260206004820152601760248201527f5f636f6e74726f6c6c657246656520746f6f20686967680000000000000000006044820152606401610c8d565b60dd8390556103e8821115611ec75760405160e560020a62461bcd02815260206004820152601560248201527f5f6275794261636b5261746520746f6f206869676800000000000000000000006044820152606401610c8d565b60de8290556103e8811115611f215760405160e560020a62461bcd02815260206004820152601660248201527f5f72657653686172655261746520746f6f2068696768000000000000000000006044820152606401610c8d565b60df819055604080518681526020810186905290810184905260608101839052608081018290527fc67e0b149a57a70fa44a531a46c2c6d8e0b242fa12f459f250012c3a5987d29a9060a00160405180910390a15050505050565b60e58181548110610d7657600080fd5b603354600160a060020a03163314611fb95760405160e560020a62461bcd028152600401610c8d906144b5565b60cb805460ff1916911515919091179055565b60cb546101009004600160a060020a03163314611ffe5760405160e560020a62461bcd028152600401610c8d906144ea565b6110046132b4565b603354600160a060020a031633146120335760405160e560020a62461bcd028152600401610c8d906144b5565b60d88054600160a060020a031916600160a060020a0392909216919091179055565b603354600160a060020a031633146120825760405160e560020a62461bcd028152600401610c8d906144b5565b60f58054600160a060020a031916600160a060020a0392909216919091179055565b603354600160a060020a031633146120d15760405160e560020a62461bcd028152600401610c8d906144b5565b60dc8054600160a060020a031916600160a060020a0392909216919091179055565b60ea8181548110610d7657600080fd5b60e88181548110610d7657600080fd5b603354600160a060020a031633146121405760405160e560020a62461bcd028152600401610c8d906144b5565b60d48054600160a060020a031916600160a060020a0392909216919091179055565b603354600160a060020a0316331461218f5760405160e560020a62461bcd028152600401610c8d906144b5565b60cc8054600160a060020a031916600160a060020a0392909216919091179055565b600054610100900460ff166121cc5760005460ff16156121d0565b303b155b6121ef5760405160e560020a62461bcd028152600401610c8d90614697565b600054610100900460ff16158015612211576000805461ffff19166101011790555b61221961330f565b61222282612c42565b60d78054600160a060020a03191661dead1790558015612248576000805461ff00191690555b5050565b603354600160a060020a031633146122795760405160e560020a62461bcd028152600401610c8d906144b5565b60d68054600160a060020a031916600160a060020a0392909216919091179055565b603354600160a060020a031633146122c85760405160e560020a62461bcd028152600401610c8d906144b5565b60d28054600160a060020a031916600160a060020a0392909216919091179055565b60e98181548110610d7657600080fd5b60cb546101009004600160a060020a0316331461232c5760405160e560020a62461bcd028152600401610c8d906144ea565b60cb805474ffffffffffffffffffffffffffffffffffffffff001916610100600160a060020a038416908102919091179091556040519081527f91a8c1cc2d4a3bb60738481947a00cbb9899c822916694cf8bb1d68172fdcd5490602001610d5b565b603354600160a060020a031633146123bc5760405160e560020a62461bcd028152600401610c8d906144b5565b60f6805461ffff90921660a060020a0275ffff000000000000000000000000000000000000000019909216919091179055565b603354600160a060020a0316331461241c5760405160e560020a62461bcd028152600401610c8d906144b5565b60ff82166124455760ee8054600160a060020a038316600160a060020a03199091161790555050565b8160ff16600114156124725760ef8054600160a060020a038316600160a060020a03199091161790555050565b8160ff166002141561249f5760f08054600160a060020a038316600160a060020a03199091161790555050565b8160ff16600314156124cc5760f28054600160a060020a038316600160a060020a03199091161790555050565b8160ff16600414156124f95760f18054600160a060020a038316600160a060020a03199091161790555050565b8160ff16600514156125265760f38054600160a060020a038316600160a060020a03199091161790555050565b60405160e560020a62461bcd02815260206004820152601460248201527f756e737570706f727465642066656564206964780000000000000000000000006044820152606401610c8d565b60cc54600090600160a060020a031633600160a060020a0316146125aa5760405160e560020a62461bcd028152600401610c8d90614521565b60975460ff16156125d05760405160e560020a62461bcd028152600401610c8d9061458f565b60d05460d6546125ed91600160a060020a0391821691168561317e565b60d054604080516101208101825260d654600160a060020a03908116825260d254811660208084019190915260ce5482168385015260d1548216606084015260f6548216608084015260ee54821660a084015260f354821660c084015260e5805485518184028101840190965280865292909516946312d8654b9489949360e08501939192918301828280156126ac57602002820191906000526020600020905b8154600160a060020a0316815260019091019060200180831161268e575b505050918352505060f65460a060020a900461ffff1660209091015260405163ffffffff841660e060020a028152611aae92919087906004016148e6565b600260655414156127105760405160e560020a62461bcd028152600401610c8d90614558565b600260655560975460ff161561273b5760405160e560020a62461bcd028152600401610c8d9061458f565b60cb5460ff166127905760405160e560020a62461bcd02815260206004820152600960248201527f216661726d61626c6500000000000000000000000000000000000000000000006044820152606401610c8d565b60cb547501000000000000000000000000000000000000000000900460ff16156127e65760cb546101009004600160a060020a031633146127e65760405160e560020a62461bcd028152600401610c8d906144ea565b6127f060006130e0565b60d45460405160e060020a6370a08231028152306004820152600091600160a060020a0316906370a0823190602401602060405180830381865afa15801561283c573d6000803e3d6000fd5b505050506040513d601f19601f82011682018060405250810190612860919061467e565b9050600081116128b55760405160e560020a62461bcd02815260206004820152600560248201527f306561726e0000000000000000000000000000000000000000000000000000006044820152606401610c8d565b604080516080810190915260f0546000919081906128db90600160a060020a0316613341565b815260f2546020909101906128f890600160a060020a0316613341565b815260f15460209091019061291590600160a060020a0316613341565b815260f35460209091019061293290600160a060020a0316613341565b90529050600061294183613498565b90506000806129518587866134e8565b9092509050600081836129648689614667565b61296e9190614667565b6129789190614667565b60d05460d45491925061299891600160a060020a0390811691168361317e565b60d05460408051610100810182528381528751602082015260ee54600160a060020a03938416936312ad7eba938301916129d29116613341565b815260d454600160a060020a0390811660208084019190915260d254909116604080840191909152606083018d905260e980548251818502810185019093528083526080909401939192909190830182828015612a5857602002820191906000526020600020905b8154600160a060020a03168152600190910190602001808311612a3a575b50505091835250503060209091015260405160e060020a63ffffffff8416028152612a8691906004016149d0565b600060405180830381600087803b158015612aa057600080fd5b505af1158015612ab4573d6000803e3d6000fd5b505060d25460405160e060020a6370a0823102815230600482015260009350600160a060020a0390911691506370a0823190602401602060405180830381865afa158015612b06573d6000803e3d6000fd5b505050506040513d601f19601f82011682018060405250810190612b2a919061467e565b60f65460d254919250612b4a91600160a060020a0390811691168361317e565b60f6546040517f87b21efc00000000000000000000000000000000000000000000000000000000815260a060020a820461ffff16600482015260248101839052306044820152600160a060020a03909116906387b21efc90606401600060405180830381600087803b158015612bbf57600080fd5b505af1158015612bd3573d6000803e3d6000fd5b50504360e25550612be49050612ec2565b50506001606555505050505050565b603354600160a060020a03163314612c205760405160e560020a62461bcd028152600401610c8d906144b5565b60d98054600160a060020a031916600160a060020a0392909216919091179055565b603354600160a060020a03163314612c6f5760405160e560020a62461bcd028152600401610c8d906144b5565b600160a060020a038116612cee5760405160e560020a62461bcd02815260206004820152602660248201527f4f776e61626c653a206e6577206f776e657220697320746865207a65726f206160448201527f64647265737300000000000000000000000000000000000000000000000000006064820152608401610c8d565b612cf781613262565b50565b60ec8181548110610d7657600080fd5b603354600160a060020a03163314612d375760405160e560020a62461bcd028152600401610c8d906144b5565b60ff8316612d5157612d4b60e58383613cd7565b50505050565b8260ff1660011415612d6957612d4b60e68383613cd7565b8260ff1660021415612d8157612d4b60e78383613cd7565b8260ff1660031415612d9957612d4b60e88383613cd7565b8260ff1660041415612db157612d4b60e98383613cd7565b8260ff1660051415612dc957612d4b60ea8383613cd7565b8260ff1660061415612de157612d4b60eb8383613cd7565b8260ff1660071415612df957612d4b60ec8383613cd7565b8260ff166008141561252657612d4b60ed8383613cd7565b604051600160a060020a0380851660248301528316604482015260648101829052612d4b9085907f23b872dd00000000000000000000000000000000000000000000000000000000906084015b60408051601f198184030181529190526020810180517bffffffffffffffffffffffffffffffffffffffffffffffffffffffff167fffffffff000000000000000000000000000000000000000000000000000000009093169290921790915261373c565b60cb5460ff16612f175760405160e560020a62461bcd02815260206004820152600960248201527f216661726d61626c6500000000000000000000000000000000000000000000006044820152606401610c8d565b60d15460405160e060020a6370a08231028152306004820152600091600160a060020a0316906370a0823190602401602060405180830381865afa158015612f63573d6000803e3d6000fd5b505050506040513d601f19601f82011682018060405250810190612f87919061467e565b90508060e354612f97919061464f565b60e35560d55460d154612fb791600160a060020a0391821691168361317e565b60d55460ca546040517fe2bbb158000000000000000000000000000000000000000000000000000000008152600160a060020a039092169163e2bbb1589161300c918590600401918252602082015260400190565b600060405180830381600087803b15801561302657600080fd5b505af115801561303a573d6000803e3d6000fd5b5050505050565b60975460ff166130965760405160e560020a62461bcd02815260206004820152601460248201527f5061757361626c653a206e6f74207061757365640000000000000000000000006044820152606401610c8d565b6097805460ff191690557f5db9ee0a495bf2e6ff9c91a7834c1ba4fdd244a5e8aa4e537bd38aeae4b073aa335b604051600160a060020a03909116815260200160405180910390a1565b60d55460ca546040517f441a3e70000000000000000000000000000000000000000000000000000000008152600160a060020a039092169163441a3e709161300c918590600401918252602082015260400190565b604051600160a060020a03831660248201526044810182905261183d9084907fa9059cbb0000000000000000000000000000000000000000000000000000000090606401612e5e565b6040517fdd62ed3e000000000000000000000000000000000000000000000000000000008152306004820152600160a060020a038381166024830152600091839186169063dd62ed3e90604401602060405180830381865afa1580156131e8573d6000803e3d6000fd5b505050506040513d601f19601f8201168201806040525081019061320c919061467e565b613216919061464f565b604051600160a060020a038516602482015260448101829052909150612d4b9085907f095ea7b30000000000000000000000000000000000000000000000000000000090606401612e5e565b60338054600160a060020a03838116600160a060020a0319831681179093556040519116919082907f8be0079c531659141344cd1fd0a4f28419497f9722a3daafe3b4186f6b6457e090600090a35050565b60975460ff16156132da5760405160e560020a62461bcd028152600401610c8d9061458f565b6097805460ff191660011790557f62e78cea01bee320cd4e420270b5ea74000d11b0c9f74754ebdbfc544b05a2586130c33390565b600054610100900460ff166133395760405160e560020a62461bcd028152600401610c8d90614a5f565b611004613824565b60008082600160a060020a031663313ce5676040518163ffffffff1660e060020a028152600401602060405180830381865afa158015613385573d6000803e3d6000fd5b505050506040513d601f19601f820116820180604052508101906133a99190614abc565b9050600083600160a060020a031663feaf968c6040518163ffffffff1660e060020a02815260040160a060405180830381865afa1580156133ee573d6000803e3d6000fd5b505050506040513d601f19601f820116820180604052508101906134129190614af3565b505050915050600081121561346c5760405160e560020a62461bcd02815260206004820152601660248201527f6e656720707269636573206e6f7420616c6c6f776564000000000000000000006044820152606401610c8d565b61347782600a614c2a565b6134868264e8d4a510006145f5565b6134909190614614565b949350505050565b600081156134e35760dd54156134e35761271060dd54836134b991906145f5565b6134c39190614614565b60d85460d4549192506134e391600160a060020a03908116911683613135565b919050565b600080600060de5411156135145761271060de548661350791906145f5565b6135119190614614565b91505b60df541561353a5761271060df548661352d91906145f5565b6135379190614614565b90505b60c95460ff161561356057613550828585613857565b61355b8185856139d1565b613734565b600061356c828461464f565b60d05460d45491925061358c91600160a060020a0390811691168361317e565b60d054604080516101008101825283815286516020808301919091526060808901518385015260d454600160a060020a039081169184019190915260d6548116608084015260a083018a905260ed805485518185028101850190965280865291909516946312ad7eba9460c085019390929083018282801561363757602002820191906000526020600020905b8154600160a060020a03168152600190910190602001808311613619575b505050918352505060cd54600160a060020a031660209091015260405160e060020a63ffffffff841602815261367091906004016149d0565b600060405180830381600087803b15801561368a57600080fd5b505af115801561369e573d6000803e3d6000fd5b505060cd5460ca546040517f464e3c8b0000000000000000000000000000000000000000000000000000000081526004810191909152602481018790526044810186905260648101899052600160a060020a03909116925063464e3c8b9150608401600060405180830381600087803b15801561371a57600080fd5b505af115801561372e573d6000803e3d6000fd5b50505050505b935093915050565b6000613791826040518060400160405280602081526020017f5361666545524332303a206c6f772d6c6576656c2063616c6c206661696c656481525085600160a060020a0316613ace9092919063ffffffff16565b80519091501561183d57808060200190518101906137af9190614c39565b61183d5760405160e560020a62461bcd02815260206004820152602a60248201527f5361666545524332303a204552433230206f7065726174696f6e20646964206e60448201527f6f742073756363656564000000000000000000000000000000000000000000006064820152608401610c8d565b600054610100900460ff1661384e5760405160e560020a62461bcd028152600401610c8d90614a5f565b61100433613262565b60d05460d45461387491600160a060020a0391821691168561317e565b60d0546040805160a08101825260d454600160a060020a03908116825260ce54811660208084019190915260dc5482168385015260eb80548551818402810184019096528086529290951694638d82ddca94899489948994919360608501939290919083018282801561391057602002820191906000526020600020905b8154600160a060020a031681526001909101906020018083116138f2575b5050505050815260200160ec80548060200260200160405190810160405280929190818152602001828054801561397057602002820191906000526020600020905b8154600160a060020a03168152600190910190602001808311613952575b50505050508152506040518563ffffffff1660e060020a02815260040161399a9493929190614c56565b600060405180830381600087803b1580156139b457600080fd5b505af11580156139c8573d6000803e3d6000fd5b50505050505050565b60d05460d4546139ee91600160a060020a0391821691168561317e565b60d05460408051610100810182528581528351602080830191909152848101518284015260d454600160a060020a03908116606084015260ce548116608084015260a0830187905260eb805485518185028101850190965280865291909516946312ad7eba9460c0850193909290830182828015613a9557602002820191906000526020600020905b8154600160a060020a03168152600190910190602001808311613a77575b505050918352505060cf54600160a060020a031660209091015260405160e060020a63ffffffff841602815261399a91906004016149d0565b6060613add8484600085613ae7565b90505b9392505050565b60603031831115613b635760405160e560020a62461bcd02815260206004820152602660248201527f416464726573733a20696e73756666696369656e742062616c616e636520666f60448201527f722063616c6c00000000000000000000000000000000000000000000000000006064820152608401610c8d565b600160a060020a0385163b613bbd5760405160e560020a62461bcd02815260206004820152601d60248201527f416464726573733a2063616c6c20746f206e6f6e2d636f6e74726163740000006044820152606401610c8d565b60008086600160a060020a03168587604051613bd99190614d2a565b60006040518083038185875af1925050503d8060008114613c16576040519150601f19603f3d011682016040523d82523d6000602084013e613c1b565b606091505b5091509150613c2b828286613c36565b979650505050505050565b60608315613c45575081613ae0565b825115613c555782518084602001fd5b8160405160e560020a62461bcd028152600401610c8d9190614d46565b828054828255906000526020600020908101928215613cc7579160200282015b82811115613cc75782518254600160a060020a031916600160a060020a03909116178255602090920191600190910190613c92565b50613cd3929150613d2a565b5090565b828054828255906000526020600020908101928215613cc7579160200282015b82811115613cc7578154600160a060020a031916600160a060020a03843516178255602090920191600190910190613cf7565b5b80821115613cd35760008155600101613d2b565b600160a060020a0381168114612cf757600080fd5b80356134e381613d3f565b600060208284031215613d7157600080fd5b8135613ae081613d3f565b8015158114612cf757600080fd5b80356134e381613d7c565b600060208284031215613da757600080fd5b8135613ae081613d7c565b600060208284031215613dc457600080fd5b5035919050565b7f4e487b7100000000000000000000000000000000000000000000000000000000600052604160045260246000fd5b604051610200810167ffffffffffffffff81118282101715613e1e57613e1e613dcb565b60405290565b6040516101c0810167ffffffffffffffff81118282101715613e1e57613e1e613dcb565b604051601f8201601f1916810167ffffffffffffffff81118282101715613e7157613e71613dcb565b604052919050565b60006102008284031215613e8c57600080fd5b613e94613dfa565b9050613e9f82613d54565b8152613ead60208301613d54565b6020820152613ebe60408301613d54565b6040820152613ecf60608301613d54565b6060820152613ee060808301613d54565b6080820152613ef160a08301613d54565b60a0820152613f0260c08301613d54565b60c0820152613f1360e08301613d54565b60e0820152610100613f26818401613d54565b90820152610120613f38838201613d54565b90820152610140613f4a838201613d54565b90820152610160613f5c838201613d54565b90820152610180613f6e838201613d54565b908201526101a0613f80838201613d54565b908201526101c0613f92838201613d54565b908201526101e0613fa4838201613d54565b9082015292915050565b600067ffffffffffffffff821115613fc857613fc8613dcb565b5060209081020190565b600082601f830112613fe357600080fd5b81356020613ff8613ff383613fae565b613e48565b8281529181028401810191818101908684111561401457600080fd5b8286015b8481101561403857803561402b81613d3f565b8352918301918301614018565b509695505050505050565b600060a0828403121561405557600080fd5b60405160a0810181811067ffffffffffffffff8211171561407857614078613dcb565b806040525080915082358152602083013560208201526040830135604082015260608301356060820152608083013560808201525092915050565b600060c082840312156140c557600080fd5b60405160c0810181811067ffffffffffffffff821117156140e8576140e8613dcb565b60405290508082356140f981613d3f565b8152602083013561410981613d3f565b6020820152604083013561411c81613d3f565b6040820152606083013561412f81613d3f565b6060820152608083013561414281613d3f565b608082015260a083013561415581613d3f565b60a0919091015292915050565b803561ffff811681146134e357600080fd5b6000806040838503121561418757600080fd5b823561419281613d3f565b9150602083013567ffffffffffffffff808211156141af57600080fd5b908401906104c082870312156141c457600080fd5b6141cc613e24565b823581526141dc60208401613d8a565b60208201526141ed60408401613d8a565b60408201526141ff8760608501613e79565b60608201526102608301358281111561421757600080fd5b61422388828601613fd2565b6080830152506102808301358281111561423c57600080fd5b61424888828601613fd2565b60a0830152506102a08301358281111561426157600080fd5b61426d88828601613fd2565b60c0830152506102c08301358281111561428657600080fd5b61429288828601613fd2565b60e0830152506102e0830135828111156142ab57600080fd5b6142b788828601613fd2565b610100830152506142cc876103008501614043565b6101208201526142e0876103a085016140b3565b6101408201526142f36104608401613d54565b6101608201526143066104808401613d54565b6101808201526143196104a08401614162565b6101a08201528093505050509250929050565b6000806040838503121561433f57600080fd5b50508035926020909101359150565b60008060006060848603121561436357600080fd5b833561436e81613d3f565b925060208401359150604084013561438581613d3f565b809150509250925092565b600080600080600060a086880312156143a857600080fd5b505083359560208501359550604085013594606081013594506080013592509050565b6000602082840312156143dd57600080fd5b611af182614162565b60ff81168114612cf757600080fd5b6000806040838503121561440857600080fd5b8235614413816143e6565b9150602083013561442381613d3f565b809150509250929050565b60008060006040848603121561444357600080fd5b833561444e816143e6565b9250602084013567ffffffffffffffff8082111561446b57600080fd5b818601915086601f83011261447f57600080fd5b81358181111561448e57600080fd5b87602080830285010111156144a257600080fd5b6020830194508093505050509250925092565b6020808252818101527f4f776e61626c653a2063616c6c6572206973206e6f7420746865206f776e6572604082015260600190565b60208082526004908201527f21676f7600000000000000000000000000000000000000000000000000000000604082015260600190565b60208082526010908201527f217a6f72726f436f6e74726f6c6c657200000000000000000000000000000000604082015260600190565b6020808252601f908201527f5265656e7472616e637947756172643a207265656e7472616e742063616c6c00604082015260600190565b60208082526010908201527f5061757361626c653a2070617573656400000000000000000000000000000000604082015260600190565b7f4e487b7100000000000000000000000000000000000000000000000000000000600052601160045260246000fd5b600081600019048311821515161561460f5761460f6145c6565b500290565b60008261464a577f4e487b7100000000000000000000000000000000000000000000000000000000600052601260045260246000fd5b500490565b60008219821115614662576146626145c6565b500190565b600082821015614679576146796145c6565b500390565b60006020828403121561469057600080fd5b5051919050565b6020808252602e908201527f496e697469616c697a61626c653a20636f6e747261637420697320616c72656160408201527f647920696e697469616c697a6564000000000000000000000000000000000000606082015260800190565b6020808252825482820181905260008481528281209092916040850190845b81811015614738578354600160a060020a031683526001938401939285019201614713565b50909695505050505050565b6000602080838503121561475757600080fd5b825167ffffffffffffffff81111561476e57600080fd5b8301601f8101851361477f57600080fd5b805161478d613ff382613fae565b818152908302820183019083810190878311156147a957600080fd5b928401925b82841015613c2b5783516147c181613d3f565b825292840192908401906147ae565b600081518084526020808501945080840160005b83811015614809578151600160a060020a0316875295820195908201906001016147e4565b509495945050505050565b838152606060208201526000600160a060020a0380855116606084015280602086015116608084015250604084015161485860a0840182600160a060020a03169052565b506060840151600160a060020a03811660c0840152506080840151600160a060020a03811660e08401525060a084015161010061489f81850183600160a060020a03169052565b60c0860151915080610120850152506148bc6101608401826147d0565b905060e08501516148d461014085018261ffff169052565b50604092909201929092529392505050565b83815260606020820152614906606082018451600160a060020a03169052565b600060208401516149226080840182600160a060020a03169052565b506040840151600160a060020a03811660a0840152506060840151600160a060020a03811660c0840152506080840151600160a060020a03811660e08401525060a084015161010061497e81850183600160a060020a03169052565b60c0860151915061012061499c81860184600160a060020a03169052565b60e0870151925080610140860152506149b96101808501836147d0565b9086015161ffff81166101608601529091506148d4565b6020815281516020820152602082015160408201526040820151606082015260006060830151600160a060020a0380821660808501528060808601511660a0850152505060a083015160c083015260c08301516101008060e0850152614a3a6101208501836147d0565b915060e0850151614a5582860182600160a060020a03169052565b5090949350505050565b6020808252602b908201527f496e697469616c697a61626c653a20636f6e7472616374206973206e6f74206960408201527f6e697469616c697a696e67000000000000000000000000000000000000000000606082015260800190565b600060208284031215614ace57600080fd5b8151613ae0816143e6565b805169ffffffffffffffffffff811681146134e357600080fd5b600080600080600060a08688031215614b0b57600080fd5b614b1486614ad9565b9450602086015193506040860151925060608601519150614b3760808701614ad9565b90509295509295909350565b600181815b80851115614b80578160001904821115614b6457614b646145c6565b80851615614b7157918102915b60029094049390800290614b48565b509250929050565b600082614b9757506001611af4565b81614ba457506000611af4565b8160018114614bba5760028114614bc457614be1565b6001915050611af4565b60ff841115614bd557614bd56145c6565b8360020a915050611af4565b5060208310610133831016604e8410600b8410161715614c04575081810a611af4565b614c0e8383614b43565b8060001904821115614c2257614c226145c6565b029392505050565b6000611af160ff841683614b88565b600060208284031215614c4b57600080fd5b8151613ae081613d7c565b848152836020820152825160408201526020830151606082015260408301516080820152606083015160a082015260e060c08201526000600160a060020a038084511660e0840152806020850151166101008401528060408501511661012084015250606083015160a0610140840152614cd46101808401826147d0565b9050608084015160df1984830301610160850152614cf282826147d0565b98975050505050505050565b60005b83811015614d19578181015183820152602001614d01565b83811115612d4b5750506000910152565b60008251614d3c818460208701614cfe565b9190910192915050565b6020815260008251806020840152614d65816040850160208701614cfe565b601f01601f1916919091016040019291505056fea2646970667358221220b3106c5991671db4cec91f1b46389ba9d6eeca16350f3aa1d93d1fdc6a3ac99964736f6c634300080a0033",
  "immutableReferences": {},
  "source": "// SPDX-License-Identifier: MIT\n\npragma solidity ^0.8.0;\n\nimport \"../interfaces/IAMMFarm.sol\";\n\nimport \"../interfaces/Stargate/IStargateRouter.sol\";\n\nimport \"../interfaces/Stargate/IStargateLPStaking.sol\";\n\nimport \"./actions/VaultActionsStargate.sol\";\n\nimport \"./_VaultBase.sol\";\n\n/// @title Vault contract for Stargate single token strategies (e.g. for lending bridgeable tokens)\ncontract VaultStargate is VaultBase {\n    /* Libraries */\n\n    using SafeERC20Upgradeable for IERC20Upgradeable;\n    using PriceFeed for AggregatorV3Interface;\n\n    /* Constructor */\n\n    /// @notice Upgradeable constructor\n    /// @param _initValue A VaultStargateInit struct containing all init values\n    /// @param _timelockOwner The designated timelock controller address to act as owner\n    function initialize(\n        address _timelockOwner,\n        VaultStargateInit memory _initValue\n    ) public initializer {\n        // Vault config\n        pid = _initValue.pid;\n        isHomeChain = _initValue.isHomeChain;\n        isFarmable = _initValue.isFarmable;\n\n        // Addresses\n        govAddress = _initValue.keyAddresses.govAddress;\n        onlyGov = true;\n        zorroControllerAddress = _initValue.keyAddresses.zorroControllerAddress;\n        zorroXChainController = _initValue.keyAddresses.zorroXChainController;\n        ZORROAddress = _initValue.keyAddresses.ZORROAddress;\n        zorroStakingVault = _initValue.keyAddresses.zorroStakingVault;\n        wantAddress = _initValue.keyAddresses.wantAddress;\n        token0Address = _initValue.keyAddresses.token0Address;\n        token1Address = _initValue.keyAddresses.token1Address;\n        earnedAddress = _initValue.keyAddresses.earnedAddress;\n        farmContractAddress = _initValue.keyAddresses.farmContractAddress;\n        rewardsAddress = _initValue.keyAddresses.rewardsAddress;\n        poolAddress = _initValue.keyAddresses.poolAddress;\n        stargateRouter = _initValue.stargateRouter;\n        uniRouterAddress = _initValue.keyAddresses.uniRouterAddress;\n        zorroLPPool = _initValue.keyAddresses.zorroLPPool;\n        zorroLPPoolOtherToken = _initValue.keyAddresses.zorroLPPoolOtherToken;\n        defaultStablecoin = _initValue.keyAddresses.defaultStablecoin;\n        tokenSTG = _initValue.tokenSTG;\n        stargatePoolId = _initValue.stargatePoolId;\n\n        // Fees\n        controllerFee = _initValue.fees.controllerFee;\n        buyBackRate = _initValue.fees.buyBackRate;\n        revShareRate = _initValue.fees.revShareRate;\n        entranceFeeFactor = _initValue.fees.entranceFeeFactor;\n        withdrawFeeFactor = _initValue.fees.withdrawFeeFactor;\n\n        // Swap paths\n        earnedToZORROPath = _initValue.earnedToZORROPath;\n        earnedToToken0Path = _initValue.earnedToToken0Path;\n        stablecoinToToken0Path = _initValue.stablecoinToToken0Path;\n        earnedToZORLPPoolOtherTokenPath = _initValue\n            .earnedToZORLPPoolOtherTokenPath;\n        earnedToStablecoinPath = _initValue.earnedToStablecoinPath;\n\n        // Corresponding reverse paths\n        token0ToStablecoinPath = VaultActions(vaultActions).reversePath(\n            stablecoinToToken0Path\n        );\n\n        // Price feeds\n        token0PriceFeed = AggregatorV3Interface(\n            _initValue.priceFeeds.token0PriceFeed\n        );\n        earnTokenPriceFeed = AggregatorV3Interface(\n            _initValue.priceFeeds.earnTokenPriceFeed\n        );\n        lpPoolOtherTokenPriceFeed = AggregatorV3Interface(\n            _initValue.priceFeeds.lpPoolOtherTokenPriceFeed\n        );\n        ZORPriceFeed = AggregatorV3Interface(\n            _initValue.priceFeeds.ZORPriceFeed\n        );\n        stablecoinPriceFeed = AggregatorV3Interface(\n            _initValue.priceFeeds.stablecoinPriceFeed\n        );\n\n        // Super call\n        VaultBase.initialize(_timelockOwner);\n    }\n\n    /* Structs */\n\n    struct VaultStargateInit {\n        uint256 pid;\n        bool isHomeChain;\n        bool isFarmable;\n        VaultActions.VaultAddresses keyAddresses;\n        address[] earnedToZORROPath;\n        address[] earnedToToken0Path;\n        address[] stablecoinToToken0Path;\n        address[] earnedToZORLPPoolOtherTokenPath;\n        address[] earnedToStablecoinPath;\n        VaultActions.VaultFees fees;\n        VaultActions.VaultPriceFeeds priceFeeds;\n        address tokenSTG;\n        address stargateRouter;\n        uint16 stargatePoolId;\n    }\n\n    /* State */\n\n    address public tokenSTG; // Stargate token\n    address public stargateRouter; // Stargate Router for adding/removing liquidity etc.\n    uint16 public stargatePoolId; // Stargate Pool that tokens shall be lent to\n\n    /* Setters */\n\n    function setTokenSTG(address _token) external onlyOwner {\n        tokenSTG = _token;\n    }\n\n    function setStargatePoolId(uint16 _poolId) external onlyOwner {\n        stargatePoolId = _poolId;\n    }\n\n    function setStargateRouter(address _router) external onlyOwner {\n        stargateRouter = _router;\n    }\n\n    /* Investment Actions */\n\n    /// @notice Receives new deposits from user\n    /// @param _wantAmt amount of Want token to deposit/stake\n    /// @return uint256 Number of shares added\n    function depositWantToken(uint256 _wantAmt)\n        public\n        virtual\n        override\n        onlyZorroController\n        nonReentrant\n        whenNotPaused\n        returns (uint256)\n    {\n        // Preflight checks\n        require(_wantAmt > 0, \"Want token deposit must be > 0\");\n\n        // Transfer Want token from sender\n        IERC20Upgradeable(wantAddress).safeTransferFrom(\n            msg.sender,\n            address(this),\n            _wantAmt\n        );\n\n        // Set sharesAdded to the Want token amount specified\n        uint256 sharesAdded = _wantAmt;\n        // If the total number of shares and want tokens locked both exceed 0, the shares added is the proportion of Want tokens locked,\n        // discounted by the entrance fee\n        if (wantLockedTotal > 0 && sharesTotal > 0) {\n            sharesAdded =\n                (_wantAmt * sharesTotal * entranceFeeFactor) /\n                (wantLockedTotal * entranceFeeFactorMax);\n        }\n        // Increment the shares\n        sharesTotal = sharesTotal + sharesAdded;\n\n        // Farm the want token if applicable. Otherwise increment want locked\n        if (isFarmable) {\n            _farm();\n        } else {\n            wantLockedTotal = wantLockedTotal + _wantAmt;\n        }\n\n        return sharesAdded;\n    }\n\n    /// @notice Performs necessary operations to convert USD into Want token\n    /// @param _amountUSD The USD quantity to exchange (must already be deposited)\n    /// @param _maxMarketMovementAllowed The max slippage allowed. 1000 = 0 %, 995 = 0.5%, etc.\n    /// @return uint256 Amount of Want token obtained\n    function exchangeUSDForWantToken(\n        uint256 _amountUSD,\n        uint256 _maxMarketMovementAllowed\n    ) public override onlyZorroController whenNotPaused returns (uint256) {\n        // Allow spending\n        IERC20Upgradeable(defaultStablecoin).safeIncreaseAllowance(\n            vaultActions,\n            _amountUSD\n        );\n\n        // Exchange\n        return\n            VaultActionsStargate(vaultActions).exchangeUSDForWantToken(\n                _amountUSD,\n                VaultActionsStargate.ExchangeUSDForWantParams({\n                    token0Address: token0Address,\n                    stablecoin: defaultStablecoin,\n                    tokenZorroAddress: ZORROAddress,\n                    token0PriceFeed: token0PriceFeed,\n                    stablecoinPriceFeed: stablecoinPriceFeed,\n                    stablecoinToToken0Path: stablecoinToToken0Path,\n                    stargateRouter: stargateRouter,\n                    wantAddress: wantAddress,\n                    stargatePoolId: stargatePoolId\n                }),\n                _maxMarketMovementAllowed\n            );\n    }\n\n    /// @notice Public function for farming Want token.\n    function farm() public virtual nonReentrant {\n        _farm();\n    }\n\n    /// @notice Internal function for farming Want token. Responsible for staking Want token in a MasterChef/MasterApe-like contract\n    function _farm() internal virtual {\n        require(isFarmable, \"!farmable\");\n\n        // Get the Want token stored on this contract\n        uint256 wantAmt = IERC20Upgradeable(wantAddress).balanceOf(\n            address(this)\n        );\n        // Increment the total Want tokens locked into this contract\n        wantLockedTotal = wantLockedTotal + wantAmt;\n        // Allow the farm contract (e.g. MasterChef) the ability to transfer up to the Want amount\n        IERC20Upgradeable(wantAddress).safeIncreaseAllowance(\n            farmContractAddress,\n            wantAmt\n        );\n\n        // Deposit the Want tokens in the Farm contract\n        IStargateLPStaking(farmContractAddress).deposit(pid, wantAmt);\n    }\n\n    /// @notice Internal function for unfarming Want token. Responsible for unstaking Want token from MasterChef/MasterApe contracts\n    /// @param _wantAmt the amount of Want tokens to withdraw. If 0, will only harvest and not withdraw\n    function _unfarm(uint256 _wantAmt) internal {\n        // Withdraw the Want tokens from the Farm contract\n        IStargateLPStaking(farmContractAddress).withdraw(pid, _wantAmt);\n    }\n\n    /// @notice Fully withdraw Want tokens from the Farm contract (100% withdrawals only)\n    /// @param _wantAmt The amount of Want token to withdraw\n    /// @return sharesRemoved The number of shares removed\n    function withdrawWantToken(uint256 _wantAmt)\n        public\n        virtual\n        override\n        onlyZorroController\n        nonReentrant\n        whenNotPaused\n        returns (uint256 sharesRemoved)\n    {\n        // Preflight checks\n        require(_wantAmt > 0, \"negWant\");\n\n        // Shares removed is proportional to the % of total Want tokens locked that _wantAmt represents\n        sharesRemoved = (_wantAmt * sharesTotal) / wantLockedTotal;\n        // Safety: cap the shares to the total number of shares\n        if (sharesRemoved > sharesTotal) {\n            sharesRemoved = sharesTotal;\n        }\n        // Decrement the total shares by the sharesRemoved\n        sharesTotal = sharesTotal - sharesRemoved;\n\n        // If a withdrawal fee is specified, discount the _wantAmt by the withdrawal fee\n        if (withdrawFeeFactor < withdrawFeeFactorMax) {\n            _wantAmt = (_wantAmt * withdrawFeeFactor) / withdrawFeeFactorMax;\n        }\n\n        // Unfarm Want token if applicable\n        if (isFarmable) {\n            _unfarm(_wantAmt);\n        }\n\n        // Safety: Check balance of this contract's Want tokens held, and cap _wantAmt to that value\n        uint256 _wantBal = IERC20Upgradeable(wantAddress).balanceOf(\n            address(this)\n        );\n        if (_wantAmt > _wantBal) {\n            _wantAmt = _wantBal;\n        }\n        // Safety: cap _wantAmt at the total quantity of Want tokens locked\n        if (wantLockedTotal < _wantAmt) {\n            _wantAmt = wantLockedTotal;\n        }\n\n        // Decrement the total Want locked tokens by the _wantAmt\n        wantLockedTotal = wantLockedTotal - _wantAmt;\n\n        // Finally, transfer the want amount from this contract, back to the ZorroController contract\n        IERC20Upgradeable(wantAddress).safeTransfer(\n            zorroControllerAddress,\n            _wantAmt\n        );\n    }\n\n    /// @notice Converts Want token back into USD to be ready for withdrawal and transfers to sender\n    /// @param _amount The Want token quantity to exchange (must be deposited beforehand)\n    /// @param _maxMarketMovementAllowed The max slippage allowed for swaps. 1000 = 0 %, 995 = 0.5%, etc.\n    /// @return uint256 Amount of USD token obtained\n    function exchangeWantTokenForUSD(\n        uint256 _amount,\n        uint256 _maxMarketMovementAllowed\n    )\n        public\n        virtual\n        override\n        onlyZorroController\n        whenNotPaused\n        returns (uint256)\n    {\n        // Allow spending\n        IERC20Upgradeable(wantAddress).safeIncreaseAllowance(\n            vaultActions,\n            _amount\n        );\n\n        // Exchange\n        return\n            VaultActionsStargate(vaultActions).exchangeWantTokenForUSD(\n                _amount,\n                VaultActionsStargate.ExchangeWantTokenForUSDParams({\n                    token0Address: token0Address,\n                    stablecoin: defaultStablecoin,\n                    wantAddress: wantAddress,\n                    stargateRouter: stargateRouter,\n                    token0PriceFeed: token0PriceFeed,\n                    stablecoinPriceFeed: stablecoinPriceFeed,\n                    token0ToStablecoinPath: token0ToStablecoinPath,\n                    stargatePoolId: stargatePoolId\n                }),\n                _maxMarketMovementAllowed\n            );\n    }\n\n    /// @notice The main compounding (earn) function. Reinvests profits since the last earn event.\n    /// @param _maxMarketMovementAllowed The max slippage allowed. 1000 = 0 %, 995 = 0.5%, etc.\n    function earn(uint256 _maxMarketMovementAllowed)\n        public\n        virtual\n        override\n        nonReentrant\n        whenNotPaused\n    {\n        require(isFarmable, \"!farmable\");\n\n        // If onlyGov is set to true, only allow to proceed if the current caller is the govAddress\n        if (onlyGov) {\n            require(msg.sender == govAddress, \"!gov\");\n        }\n\n        // Harvest farm tokens\n        _unfarm(0);\n\n        // Get the balance of the Earned token on this contract (Alpaca, etc.)\n        uint256 _earnedAmt = IERC20Upgradeable(earnedAddress).balanceOf(\n            address(this)\n        );\n\n        // Require pending rewards in order to continue\n        require(_earnedAmt > 0, \"0earn\");\n\n        // Create rates struct\n        VaultActions.ExchangeRates memory _rates = VaultActions.ExchangeRates({\n            earn: earnTokenPriceFeed.getExchangeRate(),\n            ZOR: ZORPriceFeed.getExchangeRate(),\n            lpPoolOtherToken: lpPoolOtherTokenPriceFeed.getExchangeRate(),\n            stablecoin: stablecoinPriceFeed.getExchangeRate()\n        });\n\n        // Distribute fees\n        uint256 _controllerFee = _distributeFees(_earnedAmt);\n\n        // Buyback & rev share\n        (uint256 _buybackAmt, uint256 _revShareAmt) = _buyBackAndRevShare(\n            _earnedAmt,\n            _maxMarketMovementAllowed,\n            _rates\n        );\n\n        // Net earned amt\n        uint256 _earnedAmtNet = _earnedAmt -\n            _controllerFee -\n            _buybackAmt -\n            _revShareAmt;\n\n        // Allow spending\n        IERC20Upgradeable(earnedAddress).safeIncreaseAllowance(\n            vaultActions,\n            _earnedAmtNet\n        );\n\n        // Swap Earn token for single asset token (STG -> token0)\n        VaultActionsStargate(vaultActions).safeSwap(\n            SafeSwapUni.SafeSwapParams({\n                amountIn: _earnedAmtNet,\n                priceToken0: _rates.earn,\n                priceToken1: token0PriceFeed.getExchangeRate(),\n                token0: earnedAddress,\n                token1: token0Address,\n                maxMarketMovementAllowed: _maxMarketMovementAllowed,\n                path: earnedToToken0Path,\n                destination: address(this)\n            })\n        );\n\n        // Redeposit single asset token to get Want token\n        // Get new Token0 balance\n        uint256 _token0Bal = IERC20Upgradeable(token0Address).balanceOf(\n            address(this)\n        );\n\n        // Safe approve\n        IERC20Upgradeable(token0Address).safeIncreaseAllowance(\n            stargateRouter,\n            _token0Bal\n        );\n\n        // Deposit token to get Want token\n        IStargateRouter(stargateRouter).addLiquidity(\n            stargatePoolId,\n            _token0Bal,\n            address(this)\n        );\n\n        // This vault is only for single asset deposits, so farm that token and exit\n        // Update the last earn block\n        lastEarnBlock = block.number;\n        // Farm LP token\n        _farm();\n    }\n}\n\ncontract StargateUSDCOnAVAX is VaultStargate {}\n",
  "sourcePath": "/Users/kristophm/Documents/workspace/zorro-protocol/contracts/vaults/VaultStargate.sol",
  "compiler": {
    "name": "solc",
    "version": "0.8.10+commit.fc410830.Emscripten.clang"
  },
  "schemaVersion": "3.4.10",
  "updatedAt": "2022-11-24T02:03:38.299Z",
  "devdoc": {
    "kind": "dev",
    "methods": {
      "depositWantToken(uint256)": {
        "params": {
          "_wantAmt": "amount of Want token to deposit/stake"
        },
        "returns": {
          "_0": "uint256 Number of shares added"
        }
      },
      "earn(uint256)": {
        "params": {
          "_maxMarketMovementAllowed": "The max slippage allowed. 1000 = 0 %, 995 = 0.5%, etc."
        }
      },
      "exchangeUSDForWantToken(uint256,uint256)": {
        "params": {
          "_amountUSD": "The USD quantity to exchange (must already be deposited)",
          "_maxMarketMovementAllowed": "The max slippage allowed. 1000 = 0 %, 995 = 0.5%, etc."
        },
        "returns": {
          "_0": "uint256 Amount of Want token obtained"
        }
      },
      "exchangeWantTokenForUSD(uint256,uint256)": {
        "params": {
          "_amount": "The Want token quantity to exchange (must be deposited beforehand)",
          "_maxMarketMovementAllowed": "The max slippage allowed for swaps. 1000 = 0 %, 995 = 0.5%, etc."
        },
        "returns": {
          "_0": "uint256 Amount of USD token obtained"
        }
      },
      "inCaseTokensGetStuck(address,uint256,address)": {
        "params": {
          "_amount": "The amount of the tokens to transfer",
          "_to": "The address to transfer tokens to",
          "_token": "Address of the ERC20 token to transfer"
        }
      },
      "initialize(address,(uint256,bool,bool,(address,address,address,address,address,address,address,address,address,address,address,address,address,address,address,address),address[],address[],address[],address[],address[],(uint256,uint256,uint256,uint256,uint256),(address,address,address,address,address,address),address,address,uint16))": {
        "params": {
          "_initValue": "A VaultStargateInit struct containing all init values",
          "_timelockOwner": "The designated timelock controller address to act as owner"
        }
      },
      "owner()": {
        "details": "Returns the address of the current owner."
      },
      "paused()": {
        "details": "Returns true if the contract is paused, and false otherwise."
      },
      "renounceOwnership()": {
        "details": "Leaves the contract without owner. It will not be possible to call `onlyOwner` functions anymore. Can only be called by the current owner. NOTE: Renouncing ownership will leave the contract without an owner, thereby removing any functionality that is only available to the owner."
      },
      "setFeeSettings(uint256,uint256,uint256,uint256,uint256)": {
        "params": {
          "_buyBackRate": "Buy back rate fee numerator",
          "_controllerFee": "Controller fee numerator",
          "_entranceFeeFactor": "Entrance fee numerator (higher means smaller percentage)",
          "_revShareRate": "Rev share rate fee numerator",
          "_withdrawFeeFactor": "Withdrawal fee numerator (higher means smaller percentage)"
        }
      },
      "setGov(address)": {
        "params": {
          "_govAddress": "The new gov address"
        }
      },
      "setOnlyGov(bool)": {
        "params": {
          "_onlyGov": "whether onlyGov should be enforced"
        }
      },
      "transferOwnership(address)": {
        "details": "Transfers ownership of the contract to a new account (`newOwner`). Can only be called by the current owner."
      },
      "withdrawWantToken(uint256)": {
        "params": {
          "_wantAmt": "The amount of Want token to withdraw"
        },
        "returns": {
          "sharesRemoved": "The number of shares removed"
        }
      }
    },
    "version": 1
  },
  "userdoc": {
    "kind": "user",
    "methods": {
      "depositWantToken(uint256)": {
        "notice": "Receives new deposits from user"
      },
      "earn(uint256)": {
        "notice": "The main compounding (earn) function. Reinvests profits since the last earn event."
      },
      "exchangeUSDForWantToken(uint256,uint256)": {
        "notice": "Performs necessary operations to convert USD into Want token"
      },
      "exchangeWantTokenForUSD(uint256,uint256)": {
        "notice": "Converts Want token back into USD to be ready for withdrawal and transfers to sender"
      },
      "farm()": {
        "notice": "Public function for farming Want token."
      },
      "inCaseTokensGetStuck(address,uint256,address)": {
        "notice": "Safely transfer ERC20 tokens stuck in this contract to a specified address"
      },
      "initialize(address,(uint256,bool,bool,(address,address,address,address,address,address,address,address,address,address,address,address,address,address,address,address),address[],address[],address[],address[],address[],(uint256,uint256,uint256,uint256,uint256),(address,address,address,address,address,address),address,address,uint16))": {
        "notice": "Upgradeable constructor"
      },
      "pause()": {
        "notice": "Pause contract"
      },
      "setFeeSettings(uint256,uint256,uint256,uint256,uint256)": {
        "notice": "Configure key fee parameters"
      },
      "setGov(address)": {
        "notice": "Set governor address"
      },
      "setOnlyGov(bool)": {
        "notice": "Set onlyGov property"
      },
      "unpause()": {
        "notice": "Unpause contract"
      },
      "withdrawWantToken(uint256)": {
        "notice": "Fully withdraw Want tokens from the Farm contract (100% withdrawals only)"
      }
    },
    "version": 1
  }
}