{
  "contractName": "TokenLockController",
  "abi": [
    {
      "inputs": [
        {
          "internalType": "address",
          "name": "_owner",
          "type": "address"
        }
      ],
      "stateMutability": "nonpayable",
      "type": "constructor"
    },
    {
      "anonymous": false,
      "inputs": [
        {
          "indexed": true,
          "internalType": "address",
          "name": "previousOwner",
          "type": "address"
        },
        {
          "indexed": true,
          "internalType": "address",
          "name": "newOwner",
          "type": "address"
        }
      ],
      "name": "OwnershipTransferred",
      "type": "event"
    },
    {
      "anonymous": false,
      "inputs": [
        {
          "indexed": false,
          "internalType": "address",
          "name": "account",
          "type": "address"
        }
      ],
      "name": "Paused",
      "type": "event"
    },
    {
      "anonymous": false,
      "inputs": [
        {
          "indexed": false,
          "internalType": "address",
          "name": "account",
          "type": "address"
        }
      ],
      "name": "Unpaused",
      "type": "event"
    },
    {
      "inputs": [
        {
          "internalType": "address",
          "name": "",
          "type": "address"
        }
      ],
      "name": "allowedOperators",
      "outputs": [
        {
          "internalType": "uint8",
          "name": "",
          "type": "uint8"
        }
      ],
      "stateMutability": "view",
      "type": "function"
    },
    {
      "inputs": [],
      "name": "burnAddress",
      "outputs": [
        {
          "internalType": "address",
          "name": "",
          "type": "address"
        }
      ],
      "stateMutability": "view",
      "type": "function"
    },
    {
      "inputs": [],
      "name": "lockableToken",
      "outputs": [
        {
          "internalType": "address",
          "name": "",
          "type": "address"
        }
      ],
      "stateMutability": "view",
      "type": "function"
    },
    {
      "inputs": [
        {
          "internalType": "address",
          "name": "",
          "type": "address"
        }
      ],
      "name": "lockedFunds",
      "outputs": [
        {
          "internalType": "uint256",
          "name": "",
          "type": "uint256"
        }
      ],
      "stateMutability": "view",
      "type": "function"
    },
    {
      "inputs": [],
      "name": "owner",
      "outputs": [
        {
          "internalType": "address",
          "name": "",
          "type": "address"
        }
      ],
      "stateMutability": "view",
      "type": "function"
    },
    {
      "inputs": [],
      "name": "paused",
      "outputs": [
        {
          "internalType": "bool",
          "name": "",
          "type": "bool"
        }
      ],
      "stateMutability": "view",
      "type": "function"
    },
    {
      "inputs": [],
      "name": "renounceOwnership",
      "outputs": [],
      "stateMutability": "nonpayable",
      "type": "function"
    },
    {
      "inputs": [
        {
          "internalType": "address",
          "name": "newOwner",
          "type": "address"
        }
      ],
      "name": "transferOwnership",
      "outputs": [],
      "stateMutability": "nonpayable",
      "type": "function"
    },
    {
      "inputs": [
        {
          "internalType": "address",
          "name": "_newOperator",
          "type": "address"
        }
      ],
      "name": "addAllowedOperator",
      "outputs": [],
      "stateMutability": "nonpayable",
      "type": "function"
    },
    {
      "inputs": [
        {
          "internalType": "address",
          "name": "_operator",
          "type": "address"
        }
      ],
      "name": "removeAllowedOperator",
      "outputs": [],
      "stateMutability": "nonpayable",
      "type": "function"
    },
    {
      "inputs": [
        {
          "internalType": "address",
          "name": "_account",
          "type": "address"
        },
        {
          "internalType": "uint256",
          "name": "_amount",
          "type": "uint256"
        }
      ],
      "name": "lockFunds",
      "outputs": [],
      "stateMutability": "nonpayable",
      "type": "function"
    },
    {
      "inputs": [
        {
          "internalType": "address",
          "name": "_account",
          "type": "address"
        },
        {
          "internalType": "uint256",
          "name": "_amount",
          "type": "uint256"
        },
        {
          "internalType": "address",
          "name": "_recipient",
          "type": "address"
        }
      ],
      "name": "unlockFunds",
      "outputs": [
        {
          "internalType": "uint256",
          "name": "",
          "type": "uint256"
        }
      ],
      "stateMutability": "nonpayable",
      "type": "function"
    },
    {
      "inputs": [
        {
          "internalType": "uint256",
          "name": "_amount",
          "type": "uint256"
        }
      ],
      "name": "burnFunds",
      "outputs": [
        {
          "internalType": "uint256",
          "name": "",
          "type": "uint256"
        }
      ],
      "stateMutability": "nonpayable",
      "type": "function"
    }
  ],
  "bytecode": "0x60806040523480156200001157600080fd5b5060405162000f6838038062000f68833981016040819052620000349162000240565b6200005a6200004b64010000000062000089810204565b6401000000006200008d810204565b6000805460a060020a60ff0219169055600180556200008281640100000000620000dd810204565b5062000272565b3390565b60008054600160a060020a03838116600160a060020a0319831681178455604051919092169283917f8be0079c531659141344cd1fd0a4f28419497f9722a3daafe3b4186f6b6457e09190a35050565b620000f064010000000062000089810204565b600160a060020a03166200010c64010000000062000231810204565b600160a060020a03161462000182576040517f08c379a000000000000000000000000000000000000000000000000000000000815260206004820181905260248201527f4f776e61626c653a2063616c6c6572206973206e6f7420746865206f776e657260448201526064015b60405180910390fd5b600160a060020a0381166200021a576040517f08c379a000000000000000000000000000000000000000000000000000000000815260206004820152602660248201527f4f776e61626c653a206e6577206f776e657220697320746865207a65726f206160448201527f6464726573730000000000000000000000000000000000000000000000000000606482015260840162000179565b6200022e816401000000006200008d810204565b50565b600054600160a060020a031690565b6000602082840312156200025357600080fd5b8151600160a060020a03811681146200026b57600080fd5b9392505050565b610ce680620002826000396000f3fe608060405234801561001057600080fd5b50600436106100ec576000357c010000000000000000000000000000000000000000000000000000000090048063715018a6116100a9578063a6674f8811610083578063a6674f88146101d7578063b86247d71461020c578063dd9558831461022c578063f2fde38b1461023f57600080fd5b8063715018a6146101ab5780638da5cb5b146101b35780638da7a378146101c457600080fd5b806312e382b4146100f1578063190050ae146101065780631995333b1461011957806345fab3691461013f5780635c975abb1461015257806370d5ae0514610180575b600080fd5b6101046100ff366004610ab6565b610252565b005b610104610114366004610ae0565b6102c1565b61012c610127366004610afb565b610312565b6040519081526020015b60405180910390f35b61012c61014d366004610b14565b610446565b60005474010000000000000000000000000000000000000000900460ff166040519015158152602001610136565b60055461019390600160a060020a031681565b604051600160a060020a039091168152602001610136565b610104610568565b600054600160a060020a0316610193565b6101046101d2366004610ae0565b6105a1565b6101fa6101e5366004610ae0565b60036020526000908152604090205460ff1681565b60405160ff9091168152602001610136565b61012c61021a366004610ae0565b60046020526000908152604090205481565b60025461019390600160a060020a031681565b61010461024d366004610ae0565b6105ef565b3360009081526003602052604090205460ff1661028d5760405160e560020a62461bcd02815260040161028490610b50565b60405180910390fd5b6002546102a590600160a060020a03168330846106a7565b600160a060020a03909116600090815260046020526040902055565b600054600160a060020a031633146102ee5760405160e560020a62461bcd02815260040161028490610b87565b600160a060020a03166000908152600360205260409020805460ff19166001179055565b3360009081526003602052604081205460ff166103445760405160e560020a62461bcd02815260040161028490610b50565b6002546040517f70a08231000000000000000000000000000000000000000000000000000000008152306004820152600091600160a060020a0316906370a0823190602401602060405180830381865afa1580156103a6573d6000803e3d6000fd5b505050506040513d601f19601f820116820180604052508101906103ca9190610bbc565b90508083111561041f5760405160e560020a62461bcd02815260206004820152601b60248201527f43616e6e6f74206275726e206d6f7265207468616e20617661696c00000000006044820152606401610284565b60055460025461043c91600160a060020a0391821691168561075e565b829150505b919050565b3360009081526003602052604081205460ff166104785760405160e560020a62461bcd02815260040161028490610b50565b600160a060020a038416600090815260046020526040902054838181111561049d5750805b6104a782826107ac565b600160a060020a0380881660009081526004602052604090209190915584161561055d576002546040517fa9059cbb000000000000000000000000000000000000000000000000000000008152600160a060020a038681166004830152602482018490529091169063a9059cbb906044016020604051808303816000875af1158015610537573d6000803e3d6000fd5b505050506040513d601f19601f8201168201806040525081019061055b9190610bd5565b505b9150505b9392505050565b600054600160a060020a031633146105955760405160e560020a62461bcd02815260040161028490610b87565b61059f60006107b8565b565b600054600160a060020a031633146105ce5760405160e560020a62461bcd02815260040161028490610b87565b600160a060020a03166000908152600360205260409020805460ff19169055565b600054600160a060020a0316331461061c5760405160e560020a62461bcd02815260040161028490610b87565b600160a060020a03811661069b5760405160e560020a62461bcd02815260206004820152602660248201527f4f776e61626c653a206e6577206f776e657220697320746865207a65726f206160448201527f64647265737300000000000000000000000000000000000000000000000000006064820152608401610284565b6106a4816107b8565b50565b604051600160a060020a03808516602483015283166044820152606481018290526107589085907f23b872dd00000000000000000000000000000000000000000000000000000000906084015b60408051601f198184030181529190526020810180517bffffffffffffffffffffffffffffffffffffffffffffffffffffffff167fffffffff0000000000000000000000000000000000000000000000000000000090931692909217909152610815565b50505050565b604051600160a060020a0383166024820152604481018290526107a79084907fa9059cbb00000000000000000000000000000000000000000000000000000000906064016106f4565b505050565b60006105618284610bf7565b60008054600160a060020a0383811673ffffffffffffffffffffffffffffffffffffffff19831681178455604051919092169283917f8be0079c531659141344cd1fd0a4f28419497f9722a3daafe3b4186f6b6457e09190a35050565b600061086a826040518060400160405280602081526020017f5361666545524332303a206c6f772d6c6576656c2063616c6c206661696c656481525085600160a060020a03166108fd9092919063ffffffff16565b8051909150156107a757808060200190518101906108889190610bd5565b6107a75760405160e560020a62461bcd02815260206004820152602a60248201527f5361666545524332303a204552433230206f7065726174696f6e20646964206e60448201527f6f742073756363656564000000000000000000000000000000000000000000006064820152608401610284565b606061090c8484600085610914565b949350505050565b606030318311156109905760405160e560020a62461bcd02815260206004820152602660248201527f416464726573733a20696e73756666696369656e742062616c616e636520666f60448201527f722063616c6c00000000000000000000000000000000000000000000000000006064820152608401610284565b600160a060020a0385163b6109ea5760405160e560020a62461bcd02815260206004820152601d60248201527f416464726573733a2063616c6c20746f206e6f6e2d636f6e74726163740000006044820152606401610284565b60008086600160a060020a03168587604051610a069190610c61565b60006040518083038185875af1925050503d8060008114610a43576040519150601f19603f3d011682016040523d82523d6000602084013e610a48565b606091505b5091509150610a58828286610a63565b979650505050505050565b60608315610a72575081610561565b825115610a825782518084602001fd5b8160405160e560020a62461bcd0281526004016102849190610c7d565b8035600160a060020a038116811461044157600080fd5b60008060408385031215610ac957600080fd5b610ad283610a9f565b946020939093013593505050565b600060208284031215610af257600080fd5b61056182610a9f565b600060208284031215610b0d57600080fd5b5035919050565b600080600060608486031215610b2957600080fd5b610b3284610a9f565b925060208401359150610b4760408501610a9f565b90509250925092565b6020808252600e908201527f496e76616c69642063616c6c6572000000000000000000000000000000000000604082015260600190565b6020808252818101527f4f776e61626c653a2063616c6c6572206973206e6f7420746865206f776e6572604082015260600190565b600060208284031215610bce57600080fd5b5051919050565b600060208284031215610be757600080fd5b8151801515811461056157600080fd5b600082821015610c30577f4e487b7100000000000000000000000000000000000000000000000000000000600052601160045260246000fd5b500390565b60005b83811015610c50578181015183820152602001610c38565b838111156107585750506000910152565b60008251610c73818460208701610c35565b9190910192915050565b6020815260008251806020840152610c9c816040850160208701610c35565b601f01601f1916919091016040019291505056fea26469706673582212206a65b919b9d8d407dbe1d83a7f59cfc8c6aca3872bbed329398a37d1ce83816064736f6c634300080a0033",
  "immutableReferences": {},
  "source": "// SPDX-License-Identifier: MIT\n\npragma solidity ^0.8.0;\n\nimport \"@openzeppelin/contracts/token/ERC20/utils/SafeERC20.sol\";\n\nimport \"@openzeppelin/contracts/token/ERC20/IERC20.sol\";\n\nimport \"@openzeppelin/contracts/access/Ownable.sol\";\n\nimport \"@openzeppelin/contracts/security/Pausable.sol\";\n\nimport \"@openzeppelin/contracts/security/ReentrancyGuard.sol\";\n\nimport \"@openzeppelin/contracts/utils/math/SafeMath.sol\";\n\n// TODO: Need modifer that only allows certain contracts to call\n\n/// @title TokenLockController. Contract for securely locking, unlocking, and burning tokens\ncontract TokenLockController is Ownable, Pausable, ReentrancyGuard {\n  /* \n  Libraries\n  */\n  using SafeERC20 for IERC20;\n  using SafeMath for uint256;\n\n  /*\n  Constructor\n  */\n  constructor(address _owner) {\n    // TODO - complete this\n    // Immediately transfer ownership to specified owner\n    transferOwnership(_owner);\n  }\n\n  /*\n  Modifiers\n  */\n  /// @notice Requires caller to be in allowed list\n  modifier onlyAllowedOperators() {\n    require(allowedOperators[msg.sender] > 0, \"Invalid caller\");\n    _;\n  }\n\n  /*\n  State\n  */\n  address public lockableToken; // The ERC20 token's address that can be burned\n  mapping(address => uint8) public allowedOperators; // Allowed callers of this contract. Mapping: contract address => 1 or 0. 1 means allowed.\n  mapping(address => uint256) public lockedFunds; // Ledger of locked amount by account. Mapping: wallet address => amount locked\n  address public burnAddress;\n\n  /*\n  Setters/Config\n  */\n  /// @notice Add an allowed operator to the allowedOperators mapping\n  /// @param _newOperator The address of the new operator to add\n  function addAllowedOperator(address _newOperator) public onlyOwner {\n    allowedOperators[_newOperator] = 1;\n  }\n\n  /// @notice Remove an allowed operator from the allowedOperators mapping\n  /// @param _operator The address of the new operator to remove\n  function removeAllowedOperator(address _operator) public onlyOwner {\n    allowedOperators[_operator] = 0;\n  } \n\n  /*\n  Financial functions\n  */\n  /// @notice Lock funds to this contract's ledger\n  /// @dev Assumes that approval has already been given to this contract to transfer the ERC20 token\n  /// @param _account The address whose funds should be locked. \n  /// @param _amount The amount of the token to lock\n  function lockFunds(address _account, uint256 _amount) public onlyAllowedOperators {\n    //  Transfer funds to this contract\n    IERC20(lockableToken).safeTransferFrom(_account, address(this), _amount);\n    // Lock funds on ledger\n    lockedFunds[_account] = _amount;\n  }\n\n  /// @notice Unlock funds from this contract's ledger for a given user account and transfer to user\n  /// @param _account The address whose funds should be unlocked. \n  /// @param _amount The amount of the token to lock\n  /// @param _recipient If set, will transfer unlocked funds to the address set. If not, will not do any transfers (useful for burning)\n  /// @return The amount unlocked\n  function unlockFunds(address _account, uint256 _amount, address _recipient) public onlyAllowedOperators returns (uint256) {\n    // Determine currently locked funds\n    uint256 _currentlyLocked = lockedFunds[_account];\n    uint256 _amountToUnlock = _amount;\n    // Ensure that only funds up to the max currently locked can be unlocked\n    if (_amount > _currentlyLocked) {\n      _amountToUnlock = _currentlyLocked;\n    }\n    // Unlock funds from ledger\n    lockedFunds[_account] = _currentlyLocked.sub(_amountToUnlock);\n    // Transfer funds back to account (if applicable)\n    if (_recipient != address(0)) {\n      IERC20(lockableToken).transfer(_recipient, _amountToUnlock);\n    }\n    // Return amount unlocked\n    return _amountToUnlock;\n  }\n\n  /// @notice Burn funds that are held on this contract\n  /// @param _amount The amount of the token to burn\n  /// @return The amount burned\n  function burnFunds(uint256 _amount) public onlyAllowedOperators returns (uint256) {\n    // Get current balance on this contract\n    uint256 _currentBal = IERC20(lockableToken).balanceOf(address(this));\n    // Amount to burn must be less than total held by this contract\n    require(_amount <= _currentBal, \"Cannot burn more than avail\");\n    // Send funds to burn address\n    IERC20(lockableToken).safeTransfer(burnAddress, _amount);\n    // Return amount burned\n    return _amount;\n  }\n}\n",
  "sourcePath": "/Users/kristophm/Documents/workspace/zorro-protocol/contracts/tokens/TokenLockController.sol",
  "compiler": {
    "name": "solc",
    "version": "0.8.10+commit.fc410830.Emscripten.clang"
  },
  "schemaVersion": "3.4.4",
  "updatedAt": "2022-03-01T15:24:52.988Z",
  "devdoc": {
    "kind": "dev",
    "methods": {
      "addAllowedOperator(address)": {
        "params": {
          "_newOperator": "The address of the new operator to add"
        }
      },
      "burnFunds(uint256)": {
        "params": {
          "_amount": "The amount of the token to burn"
        },
        "returns": {
          "_0": "The amount burned"
        }
      },
      "lockFunds(address,uint256)": {
        "details": "Assumes that approval has already been given to this contract to transfer the ERC20 token",
        "params": {
          "_account": "The address whose funds should be locked. ",
          "_amount": "The amount of the token to lock"
        }
      },
      "owner()": {
        "details": "Returns the address of the current owner."
      },
      "paused()": {
        "details": "Returns true if the contract is paused, and false otherwise."
      },
      "removeAllowedOperator(address)": {
        "params": {
          "_operator": "The address of the new operator to remove"
        }
      },
      "renounceOwnership()": {
        "details": "Leaves the contract without owner. It will not be possible to call `onlyOwner` functions anymore. Can only be called by the current owner. NOTE: Renouncing ownership will leave the contract without an owner, thereby removing any functionality that is only available to the owner."
      },
      "transferOwnership(address)": {
        "details": "Transfers ownership of the contract to a new account (`newOwner`). Can only be called by the current owner."
      },
      "unlockFunds(address,uint256,address)": {
        "params": {
          "_account": "The address whose funds should be unlocked. ",
          "_amount": "The amount of the token to lock",
          "_recipient": "If set, will transfer unlocked funds to the address set. If not, will not do any transfers (useful for burning)"
        },
        "returns": {
          "_0": "The amount unlocked"
        }
      }
    },
    "title": "TokenLockController. Contract for securely locking, unlocking, and burning tokens",
    "version": 1
  },
  "userdoc": {
    "kind": "user",
    "methods": {
      "addAllowedOperator(address)": {
        "notice": "Add an allowed operator to the allowedOperators mapping"
      },
      "burnFunds(uint256)": {
        "notice": "Burn funds that are held on this contract"
      },
      "lockFunds(address,uint256)": {
        "notice": "Lock funds to this contract's ledger"
      },
      "removeAllowedOperator(address)": {
        "notice": "Remove an allowed operator from the allowedOperators mapping"
      },
      "unlockFunds(address,uint256,address)": {
        "notice": "Unlock funds from this contract's ledger for a given user account and transfer to user"
      }
    },
    "version": 1
  }
}