{
  "contractName": "VaultAcryptosSingle",
  "abi": [
    {
      "inputs": [
        {
          "internalType": "address[]",
          "name": "_addresses",
          "type": "address[]"
        },
        {
          "internalType": "uint256",
          "name": "_pid",
          "type": "uint256"
        },
        {
          "internalType": "bool",
          "name": "_isCOREStaking",
          "type": "bool"
        },
        {
          "internalType": "bool",
          "name": "_isZorroComp",
          "type": "bool"
        },
        {
          "internalType": "bool",
          "name": "_isHomeChain",
          "type": "bool"
        },
        {
          "internalType": "address[]",
          "name": "_swapPaths",
          "type": "address[]"
        },
        {
          "internalType": "uint16[]",
          "name": "_swapPathStartIndexes",
          "type": "uint16[]"
        },
        {
          "internalType": "uint256[]",
          "name": "_fees",
          "type": "uint256[]"
        },
        {
          "internalType": "bytes32[]",
          "name": "_balancerPools",
          "type": "bytes32[]"
        }
      ],
      "stateMutability": "nonpayable",
      "type": "constructor"
    },
    {
      "anonymous": false,
      "inputs": [
        {
          "indexed": true,
          "internalType": "address",
          "name": "previousOwner",
          "type": "address"
        },
        {
          "indexed": true,
          "internalType": "address",
          "name": "newOwner",
          "type": "address"
        }
      ],
      "name": "OwnershipTransferred",
      "type": "event"
    },
    {
      "anonymous": false,
      "inputs": [
        {
          "indexed": false,
          "internalType": "address",
          "name": "account",
          "type": "address"
        }
      ],
      "name": "Paused",
      "type": "event"
    },
    {
      "anonymous": false,
      "inputs": [
        {
          "indexed": false,
          "internalType": "address",
          "name": "_govAddress",
          "type": "address"
        }
      ],
      "name": "SetGov",
      "type": "event"
    },
    {
      "anonymous": false,
      "inputs": [
        {
          "indexed": false,
          "internalType": "bool",
          "name": "_onlyGov",
          "type": "bool"
        }
      ],
      "name": "SetOnlyGov",
      "type": "event"
    },
    {
      "anonymous": false,
      "inputs": [
        {
          "indexed": false,
          "internalType": "address",
          "name": "_rewardsAddress",
          "type": "address"
        }
      ],
      "name": "SetRewardsAddress",
      "type": "event"
    },
    {
      "anonymous": false,
      "inputs": [
        {
          "indexed": false,
          "internalType": "uint256",
          "name": "_entranceFeeFactor",
          "type": "uint256"
        },
        {
          "indexed": false,
          "internalType": "uint256",
          "name": "_withdrawFeeFactor",
          "type": "uint256"
        },
        {
          "indexed": false,
          "internalType": "uint256",
          "name": "_controllerFee",
          "type": "uint256"
        },
        {
          "indexed": false,
          "internalType": "uint256",
          "name": "_buyBackRate",
          "type": "uint256"
        },
        {
          "indexed": false,
          "internalType": "uint256",
          "name": "_slippageFactor",
          "type": "uint256"
        }
      ],
      "name": "SetSettings",
      "type": "event"
    },
    {
      "anonymous": false,
      "inputs": [
        {
          "indexed": false,
          "internalType": "address",
          "name": "_uniRouterAddress",
          "type": "address"
        }
      ],
      "name": "SetUniRouterAddress",
      "type": "event"
    },
    {
      "anonymous": false,
      "inputs": [
        {
          "indexed": false,
          "internalType": "address",
          "name": "account",
          "type": "address"
        }
      ],
      "name": "Unpaused",
      "type": "event"
    },
    {
      "inputs": [
        {
          "internalType": "uint256",
          "name": "",
          "type": "uint256"
        }
      ],
      "name": "USDCToToken0Path",
      "outputs": [
        {
          "internalType": "address",
          "name": "",
          "type": "address"
        }
      ],
      "stateMutability": "view",
      "type": "function"
    },
    {
      "inputs": [
        {
          "internalType": "uint256",
          "name": "",
          "type": "uint256"
        }
      ],
      "name": "USDCToToken1Path",
      "outputs": [
        {
          "internalType": "address",
          "name": "",
          "type": "address"
        }
      ],
      "stateMutability": "view",
      "type": "function"
    },
    {
      "inputs": [
        {
          "internalType": "uint256",
          "name": "",
          "type": "uint256"
        }
      ],
      "name": "USDCToWantPath",
      "outputs": [
        {
          "internalType": "address",
          "name": "",
          "type": "address"
        }
      ],
      "stateMutability": "view",
      "type": "function"
    },
    {
      "inputs": [
        {
          "internalType": "uint256",
          "name": "",
          "type": "uint256"
        }
      ],
      "name": "USDCToZORLPPoolOtherTokenPath",
      "outputs": [
        {
          "internalType": "address",
          "name": "",
          "type": "address"
        }
      ],
      "stateMutability": "view",
      "type": "function"
    },
    {
      "inputs": [
        {
          "internalType": "uint256",
          "name": "",
          "type": "uint256"
        }
      ],
      "name": "USDCToZORROPath",
      "outputs": [
        {
          "internalType": "address",
          "name": "",
          "type": "address"
        }
      ],
      "stateMutability": "view",
      "type": "function"
    },
    {
      "inputs": [
        {
          "internalType": "uint256",
          "name": "",
          "type": "uint256"
        }
      ],
      "name": "WantToUSDCPath",
      "outputs": [
        {
          "internalType": "address",
          "name": "",
          "type": "address"
        }
      ],
      "stateMutability": "view",
      "type": "function"
    },
    {
      "inputs": [],
      "name": "ZORPriceFeed",
      "outputs": [
        {
          "internalType": "contract AggregatorV3Interface",
          "name": "",
          "type": "address"
        }
      ],
      "stateMutability": "view",
      "type": "function"
    },
    {
      "inputs": [],
      "name": "ZORROAddress",
      "outputs": [
        {
          "internalType": "address",
          "name": "",
          "type": "address"
        }
      ],
      "stateMutability": "view",
      "type": "function"
    },
    {
      "inputs": [],
      "name": "balancerLPPool",
      "outputs": [
        {
          "internalType": "bytes32",
          "name": "",
          "type": "bytes32"
        }
      ],
      "stateMutability": "view",
      "type": "function"
    },
    {
      "inputs": [],
      "name": "balancerPoolEarnedToTokens",
      "outputs": [
        {
          "internalType": "bytes32",
          "name": "",
          "type": "bytes32"
        }
      ],
      "stateMutability": "view",
      "type": "function"
    },
    {
      "inputs": [],
      "name": "balancerPoolUSDCToToken0",
      "outputs": [
        {
          "internalType": "bytes32",
          "name": "",
          "type": "bytes32"
        }
      ],
      "stateMutability": "view",
      "type": "function"
    },
    {
      "inputs": [],
      "name": "balancerPoolUSDCToWant",
      "outputs": [
        {
          "internalType": "bytes32",
          "name": "",
          "type": "bytes32"
        }
      ],
      "stateMutability": "view",
      "type": "function"
    },
    {
      "inputs": [],
      "name": "balancerVaultAddress",
      "outputs": [
        {
          "internalType": "address",
          "name": "",
          "type": "address"
        }
      ],
      "stateMutability": "view",
      "type": "function"
    },
    {
      "inputs": [],
      "name": "burnAddress",
      "outputs": [
        {
          "internalType": "address",
          "name": "",
          "type": "address"
        }
      ],
      "stateMutability": "view",
      "type": "function"
    },
    {
      "inputs": [],
      "name": "buyBackRate",
      "outputs": [
        {
          "internalType": "uint256",
          "name": "",
          "type": "uint256"
        }
      ],
      "stateMutability": "view",
      "type": "function"
    },
    {
      "inputs": [],
      "name": "buyBackRateMax",
      "outputs": [
        {
          "internalType": "uint256",
          "name": "",
          "type": "uint256"
        }
      ],
      "stateMutability": "view",
      "type": "function"
    },
    {
      "inputs": [],
      "name": "buyBackRateUL",
      "outputs": [
        {
          "internalType": "uint256",
          "name": "",
          "type": "uint256"
        }
      ],
      "stateMutability": "view",
      "type": "function"
    },
    {
      "inputs": [],
      "name": "controllerFee",
      "outputs": [
        {
          "internalType": "uint256",
          "name": "",
          "type": "uint256"
        }
      ],
      "stateMutability": "view",
      "type": "function"
    },
    {
      "inputs": [],
      "name": "controllerFeeMax",
      "outputs": [
        {
          "internalType": "uint256",
          "name": "",
          "type": "uint256"
        }
      ],
      "stateMutability": "view",
      "type": "function"
    },
    {
      "inputs": [],
      "name": "controllerFeeUL",
      "outputs": [
        {
          "internalType": "uint256",
          "name": "",
          "type": "uint256"
        }
      ],
      "stateMutability": "view",
      "type": "function"
    },
    {
      "inputs": [],
      "name": "earnTokenPriceFeed",
      "outputs": [
        {
          "internalType": "contract AggregatorV3Interface",
          "name": "",
          "type": "address"
        }
      ],
      "stateMutability": "view",
      "type": "function"
    },
    {
      "inputs": [],
      "name": "earnedAddress",
      "outputs": [
        {
          "internalType": "address",
          "name": "",
          "type": "address"
        }
      ],
      "stateMutability": "view",
      "type": "function"
    },
    {
      "inputs": [
        {
          "internalType": "uint256",
          "name": "",
          "type": "uint256"
        }
      ],
      "name": "earnedToToken0Path",
      "outputs": [
        {
          "internalType": "address",
          "name": "",
          "type": "address"
        }
      ],
      "stateMutability": "view",
      "type": "function"
    },
    {
      "inputs": [
        {
          "internalType": "uint256",
          "name": "",
          "type": "uint256"
        }
      ],
      "name": "earnedToToken1Path",
      "outputs": [
        {
          "internalType": "address",
          "name": "",
          "type": "address"
        }
      ],
      "stateMutability": "view",
      "type": "function"
    },
    {
      "inputs": [
        {
          "internalType": "uint256",
          "name": "",
          "type": "uint256"
        }
      ],
      "name": "earnedToUSDCPath",
      "outputs": [
        {
          "internalType": "address",
          "name": "",
          "type": "address"
        }
      ],
      "stateMutability": "view",
      "type": "function"
    },
    {
      "inputs": [
        {
          "internalType": "uint256",
          "name": "",
          "type": "uint256"
        }
      ],
      "name": "earnedToZORLPPoolOtherTokenPath",
      "outputs": [
        {
          "internalType": "address",
          "name": "",
          "type": "address"
        }
      ],
      "stateMutability": "view",
      "type": "function"
    },
    {
      "inputs": [
        {
          "internalType": "uint256",
          "name": "",
          "type": "uint256"
        }
      ],
      "name": "earnedToZORROPath",
      "outputs": [
        {
          "internalType": "address",
          "name": "",
          "type": "address"
        }
      ],
      "stateMutability": "view",
      "type": "function"
    },
    {
      "inputs": [],
      "name": "entranceFeeFactor",
      "outputs": [
        {
          "internalType": "uint256",
          "name": "",
          "type": "uint256"
        }
      ],
      "stateMutability": "view",
      "type": "function"
    },
    {
      "inputs": [],
      "name": "entranceFeeFactorLL",
      "outputs": [
        {
          "internalType": "uint256",
          "name": "",
          "type": "uint256"
        }
      ],
      "stateMutability": "view",
      "type": "function"
    },
    {
      "inputs": [],
      "name": "entranceFeeFactorMax",
      "outputs": [
        {
          "internalType": "uint256",
          "name": "",
          "type": "uint256"
        }
      ],
      "stateMutability": "view",
      "type": "function"
    },
    {
      "inputs": [],
      "name": "farmContractAddress",
      "outputs": [
        {
          "internalType": "address",
          "name": "",
          "type": "address"
        }
      ],
      "stateMutability": "view",
      "type": "function"
    },
    {
      "inputs": [
        {
          "internalType": "contract AggregatorV3Interface",
          "name": "_priceFeed",
          "type": "address"
        }
      ],
      "name": "getExchangeRate",
      "outputs": [
        {
          "internalType": "uint256",
          "name": "",
          "type": "uint256"
        }
      ],
      "stateMutability": "view",
      "type": "function"
    },
    {
      "inputs": [],
      "name": "govAddress",
      "outputs": [
        {
          "internalType": "address",
          "name": "",
          "type": "address"
        }
      ],
      "stateMutability": "view",
      "type": "function"
    },
    {
      "inputs": [
        {
          "internalType": "address",
          "name": "_token",
          "type": "address"
        },
        {
          "internalType": "uint256",
          "name": "_amount",
          "type": "uint256"
        },
        {
          "internalType": "address",
          "name": "_to",
          "type": "address"
        }
      ],
      "name": "inCaseTokensGetStuck",
      "outputs": [],
      "stateMutability": "nonpayable",
      "type": "function"
    },
    {
      "inputs": [],
      "name": "isCOREStaking",
      "outputs": [
        {
          "internalType": "bool",
          "name": "",
          "type": "bool"
        }
      ],
      "stateMutability": "view",
      "type": "function"
    },
    {
      "inputs": [],
      "name": "isHomeChain",
      "outputs": [
        {
          "internalType": "bool",
          "name": "",
          "type": "bool"
        }
      ],
      "stateMutability": "view",
      "type": "function"
    },
    {
      "inputs": [],
      "name": "isSingleAssetDeposit",
      "outputs": [
        {
          "internalType": "bool",
          "name": "",
          "type": "bool"
        }
      ],
      "stateMutability": "view",
      "type": "function"
    },
    {
      "inputs": [],
      "name": "isZorroComp",
      "outputs": [
        {
          "internalType": "bool",
          "name": "",
          "type": "bool"
        }
      ],
      "stateMutability": "view",
      "type": "function"
    },
    {
      "inputs": [],
      "name": "lastEarnBlock",
      "outputs": [
        {
          "internalType": "uint256",
          "name": "",
          "type": "uint256"
        }
      ],
      "stateMutability": "view",
      "type": "function"
    },
    {
      "inputs": [
        {
          "internalType": "uint256",
          "name": "",
          "type": "uint256"
        }
      ],
      "name": "lockedXChainEarningsUSDC",
      "outputs": [
        {
          "internalType": "uint256",
          "name": "",
          "type": "uint256"
        }
      ],
      "stateMutability": "view",
      "type": "function"
    },
    {
      "inputs": [],
      "name": "lpPoolOtherTokenPriceFeed",
      "outputs": [
        {
          "internalType": "contract AggregatorV3Interface",
          "name": "",
          "type": "address"
        }
      ],
      "stateMutability": "view",
      "type": "function"
    },
    {
      "inputs": [],
      "name": "onlyGov",
      "outputs": [
        {
          "internalType": "bool",
          "name": "",
          "type": "bool"
        }
      ],
      "stateMutability": "view",
      "type": "function"
    },
    {
      "inputs": [],
      "name": "owner",
      "outputs": [
        {
          "internalType": "address",
          "name": "",
          "type": "address"
        }
      ],
      "stateMutability": "view",
      "type": "function"
    },
    {
      "inputs": [],
      "name": "pause",
      "outputs": [],
      "stateMutability": "nonpayable",
      "type": "function"
    },
    {
      "inputs": [],
      "name": "paused",
      "outputs": [
        {
          "internalType": "bool",
          "name": "",
          "type": "bool"
        }
      ],
      "stateMutability": "view",
      "type": "function"
    },
    {
      "inputs": [],
      "name": "pid",
      "outputs": [
        {
          "internalType": "uint256",
          "name": "",
          "type": "uint256"
        }
      ],
      "stateMutability": "view",
      "type": "function"
    },
    {
      "inputs": [],
      "name": "poolAddress",
      "outputs": [
        {
          "internalType": "address",
          "name": "",
          "type": "address"
        }
      ],
      "stateMutability": "view",
      "type": "function"
    },
    {
      "inputs": [],
      "name": "renounceOwnership",
      "outputs": [],
      "stateMutability": "nonpayable",
      "type": "function"
    },
    {
      "inputs": [],
      "name": "revShareRate",
      "outputs": [
        {
          "internalType": "uint256",
          "name": "",
          "type": "uint256"
        }
      ],
      "stateMutability": "view",
      "type": "function"
    },
    {
      "inputs": [],
      "name": "revShareRateMax",
      "outputs": [
        {
          "internalType": "uint256",
          "name": "",
          "type": "uint256"
        }
      ],
      "stateMutability": "view",
      "type": "function"
    },
    {
      "inputs": [],
      "name": "revShareRateUL",
      "outputs": [
        {
          "internalType": "uint256",
          "name": "",
          "type": "uint256"
        }
      ],
      "stateMutability": "view",
      "type": "function"
    },
    {
      "inputs": [],
      "name": "rewardsAddress",
      "outputs": [
        {
          "internalType": "address",
          "name": "",
          "type": "address"
        }
      ],
      "stateMutability": "view",
      "type": "function"
    },
    {
      "inputs": [
        {
          "internalType": "address",
          "name": "_earnedAddress",
          "type": "address"
        }
      ],
      "name": "setEarnedAddress",
      "outputs": [],
      "stateMutability": "nonpayable",
      "type": "function"
    },
    {
      "inputs": [
        {
          "internalType": "address",
          "name": "_farmContractAddress",
          "type": "address"
        }
      ],
      "name": "setFarmContractAddress",
      "outputs": [],
      "stateMutability": "nonpayable",
      "type": "function"
    },
    {
      "inputs": [
        {
          "internalType": "uint256",
          "name": "_entranceFeeFactor",
          "type": "uint256"
        },
        {
          "internalType": "uint256",
          "name": "_withdrawFeeFactor",
          "type": "uint256"
        },
        {
          "internalType": "uint256",
          "name": "_controllerFee",
          "type": "uint256"
        },
        {
          "internalType": "uint256",
          "name": "_buyBackRate",
          "type": "uint256"
        },
        {
          "internalType": "uint256",
          "name": "_slippageFactor",
          "type": "uint256"
        }
      ],
      "name": "setFeeSettings",
      "outputs": [],
      "stateMutability": "nonpayable",
      "type": "function"
    },
    {
      "inputs": [
        {
          "internalType": "address",
          "name": "_govAddress",
          "type": "address"
        }
      ],
      "name": "setGov",
      "outputs": [],
      "stateMutability": "nonpayable",
      "type": "function"
    },
    {
      "inputs": [
        {
          "internalType": "bool",
          "name": "_isCOREStaking",
          "type": "bool"
        }
      ],
      "name": "setIsCOREStaking",
      "outputs": [],
      "stateMutability": "nonpayable",
      "type": "function"
    },
    {
      "inputs": [
        {
          "internalType": "bool",
          "name": "_isSingleAssetDeposit",
          "type": "bool"
        }
      ],
      "name": "setIsSingleAssetDeposit",
      "outputs": [],
      "stateMutability": "nonpayable",
      "type": "function"
    },
    {
      "inputs": [
        {
          "internalType": "bool",
          "name": "_isZorroComp",
          "type": "bool"
        }
      ],
      "name": "setIsZorroComp",
      "outputs": [],
      "stateMutability": "nonpayable",
      "type": "function"
    },
    {
      "inputs": [
        {
          "internalType": "bool",
          "name": "_onlyGov",
          "type": "bool"
        }
      ],
      "name": "setOnlyGov",
      "outputs": [],
      "stateMutability": "nonpayable",
      "type": "function"
    },
    {
      "inputs": [
        {
          "internalType": "uint256",
          "name": "_pid",
          "type": "uint256"
        }
      ],
      "name": "setPid",
      "outputs": [],
      "stateMutability": "nonpayable",
      "type": "function"
    },
    {
      "inputs": [
        {
          "internalType": "address",
          "name": "_poolAddress",
          "type": "address"
        }
      ],
      "name": "setPoolAddress",
      "outputs": [],
      "stateMutability": "nonpayable",
      "type": "function"
    },
    {
      "inputs": [
        {
          "internalType": "address",
          "name": "_rewardsAddress",
          "type": "address"
        }
      ],
      "name": "setRewardsAddress",
      "outputs": [],
      "stateMutability": "nonpayable",
      "type": "function"
    },
    {
      "inputs": [
        {
          "internalType": "address",
          "name": "_token0Address",
          "type": "address"
        }
      ],
      "name": "setToken0Address",
      "outputs": [],
      "stateMutability": "nonpayable",
      "type": "function"
    },
    {
      "inputs": [
        {
          "internalType": "address",
          "name": "_token1Address",
          "type": "address"
        }
      ],
      "name": "setToken1Address",
      "outputs": [],
      "stateMutability": "nonpayable",
      "type": "function"
    },
    {
      "inputs": [
        {
          "internalType": "address",
          "name": "_tokenUSDCAddress",
          "type": "address"
        }
      ],
      "name": "setTokenUSDCAddress",
      "outputs": [],
      "stateMutability": "nonpayable",
      "type": "function"
    },
    {
      "inputs": [
        {
          "internalType": "address",
          "name": "_uniRouterAddress",
          "type": "address"
        }
      ],
      "name": "setUniRouterAddress",
      "outputs": [],
      "stateMutability": "nonpayable",
      "type": "function"
    },
    {
      "inputs": [
        {
          "internalType": "address",
          "name": "_ZORROAddress",
          "type": "address"
        }
      ],
      "name": "setZORROAddress",
      "outputs": [],
      "stateMutability": "nonpayable",
      "type": "function"
    },
    {
      "inputs": [
        {
          "internalType": "address",
          "name": "_zorroControllerAddress",
          "type": "address"
        }
      ],
      "name": "setZorroControllerAddress",
      "outputs": [],
      "stateMutability": "nonpayable",
      "type": "function"
    },
    {
      "inputs": [],
      "name": "sharesTotal",
      "outputs": [
        {
          "internalType": "uint256",
          "name": "",
          "type": "uint256"
        }
      ],
      "stateMutability": "view",
      "type": "function"
    },
    {
      "inputs": [],
      "name": "slippageFactor",
      "outputs": [
        {
          "internalType": "uint256",
          "name": "",
          "type": "uint256"
        }
      ],
      "stateMutability": "view",
      "type": "function"
    },
    {
      "inputs": [],
      "name": "slippageFactorUL",
      "outputs": [
        {
          "internalType": "uint256",
          "name": "",
          "type": "uint256"
        }
      ],
      "stateMutability": "view",
      "type": "function"
    },
    {
      "inputs": [],
      "name": "token0Address",
      "outputs": [
        {
          "internalType": "address",
          "name": "",
          "type": "address"
        }
      ],
      "stateMutability": "view",
      "type": "function"
    },
    {
      "inputs": [],
      "name": "token0PriceFeed",
      "outputs": [
        {
          "internalType": "contract AggregatorV3Interface",
          "name": "",
          "type": "address"
        }
      ],
      "stateMutability": "view",
      "type": "function"
    },
    {
      "inputs": [
        {
          "internalType": "uint256",
          "name": "",
          "type": "uint256"
        }
      ],
      "name": "token0ToEarnedPath",
      "outputs": [
        {
          "internalType": "address",
          "name": "",
          "type": "address"
        }
      ],
      "stateMutability": "view",
      "type": "function"
    },
    {
      "inputs": [
        {
          "internalType": "uint256",
          "name": "",
          "type": "uint256"
        }
      ],
      "name": "token0ToUSDCPath",
      "outputs": [
        {
          "internalType": "address",
          "name": "",
          "type": "address"
        }
      ],
      "stateMutability": "view",
      "type": "function"
    },
    {
      "inputs": [],
      "name": "token1Address",
      "outputs": [
        {
          "internalType": "address",
          "name": "",
          "type": "address"
        }
      ],
      "stateMutability": "view",
      "type": "function"
    },
    {
      "inputs": [],
      "name": "token1PriceFeed",
      "outputs": [
        {
          "internalType": "contract AggregatorV3Interface",
          "name": "",
          "type": "address"
        }
      ],
      "stateMutability": "view",
      "type": "function"
    },
    {
      "inputs": [
        {
          "internalType": "uint256",
          "name": "",
          "type": "uint256"
        }
      ],
      "name": "token1ToEarnedPath",
      "outputs": [
        {
          "internalType": "address",
          "name": "",
          "type": "address"
        }
      ],
      "stateMutability": "view",
      "type": "function"
    },
    {
      "inputs": [
        {
          "internalType": "uint256",
          "name": "",
          "type": "uint256"
        }
      ],
      "name": "token1ToUSDCPath",
      "outputs": [
        {
          "internalType": "address",
          "name": "",
          "type": "address"
        }
      ],
      "stateMutability": "view",
      "type": "function"
    },
    {
      "inputs": [],
      "name": "tokenACS",
      "outputs": [
        {
          "internalType": "address",
          "name": "",
          "type": "address"
        }
      ],
      "stateMutability": "view",
      "type": "function"
    },
    {
      "inputs": [],
      "name": "tokenACSI",
      "outputs": [
        {
          "internalType": "address",
          "name": "",
          "type": "address"
        }
      ],
      "stateMutability": "view",
      "type": "function"
    },
    {
      "inputs": [],
      "name": "tokenUSDCAddress",
      "outputs": [
        {
          "internalType": "address",
          "name": "",
          "type": "address"
        }
      ],
      "stateMutability": "view",
      "type": "function"
    },
    {
      "inputs": [
        {
          "internalType": "address",
          "name": "newOwner",
          "type": "address"
        }
      ],
      "name": "transferOwnership",
      "outputs": [],
      "stateMutability": "nonpayable",
      "type": "function"
    },
    {
      "inputs": [],
      "name": "uniRouterAddress",
      "outputs": [
        {
          "internalType": "address",
          "name": "",
          "type": "address"
        }
      ],
      "stateMutability": "view",
      "type": "function"
    },
    {
      "inputs": [],
      "name": "unpause",
      "outputs": [],
      "stateMutability": "nonpayable",
      "type": "function"
    },
    {
      "inputs": [
        {
          "internalType": "address",
          "name": "",
          "type": "address"
        }
      ],
      "name": "userShares",
      "outputs": [
        {
          "internalType": "uint256",
          "name": "",
          "type": "uint256"
        }
      ],
      "stateMutability": "view",
      "type": "function"
    },
    {
      "inputs": [],
      "name": "wantAddress",
      "outputs": [
        {
          "internalType": "address",
          "name": "",
          "type": "address"
        }
      ],
      "stateMutability": "view",
      "type": "function"
    },
    {
      "inputs": [],
      "name": "wantLockedTotal",
      "outputs": [
        {
          "internalType": "uint256",
          "name": "",
          "type": "uint256"
        }
      ],
      "stateMutability": "view",
      "type": "function"
    },
    {
      "inputs": [],
      "name": "withdrawFeeFactor",
      "outputs": [
        {
          "internalType": "uint256",
          "name": "",
          "type": "uint256"
        }
      ],
      "stateMutability": "view",
      "type": "function"
    },
    {
      "inputs": [],
      "name": "withdrawFeeFactorLL",
      "outputs": [
        {
          "internalType": "uint256",
          "name": "",
          "type": "uint256"
        }
      ],
      "stateMutability": "view",
      "type": "function"
    },
    {
      "inputs": [],
      "name": "withdrawFeeFactorMax",
      "outputs": [
        {
          "internalType": "uint256",
          "name": "",
          "type": "uint256"
        }
      ],
      "stateMutability": "view",
      "type": "function"
    },
    {
      "inputs": [],
      "name": "xChainEarningsLockEndBlock",
      "outputs": [
        {
          "internalType": "uint256",
          "name": "",
          "type": "uint256"
        }
      ],
      "stateMutability": "view",
      "type": "function"
    },
    {
      "inputs": [],
      "name": "xChainEarningsLockStartBlock",
      "outputs": [
        {
          "internalType": "uint256",
          "name": "",
          "type": "uint256"
        }
      ],
      "stateMutability": "view",
      "type": "function"
    },
    {
      "inputs": [],
      "name": "zorroControllerAddress",
      "outputs": [
        {
          "internalType": "address",
          "name": "",
          "type": "address"
        }
      ],
      "stateMutability": "view",
      "type": "function"
    },
    {
      "inputs": [],
      "name": "zorroLPPool",
      "outputs": [
        {
          "internalType": "address",
          "name": "",
          "type": "address"
        }
      ],
      "stateMutability": "view",
      "type": "function"
    },
    {
      "inputs": [],
      "name": "zorroLPPoolOtherToken",
      "outputs": [
        {
          "internalType": "address",
          "name": "",
          "type": "address"
        }
      ],
      "stateMutability": "view",
      "type": "function"
    },
    {
      "inputs": [],
      "name": "zorroStakingVault",
      "outputs": [
        {
          "internalType": "address",
          "name": "",
          "type": "address"
        }
      ],
      "stateMutability": "view",
      "type": "function"
    },
    {
      "inputs": [
        {
          "internalType": "address",
          "name": "_balancerVaultAddress",
          "type": "address"
        }
      ],
      "name": "setBalancerVaultAddress",
      "outputs": [],
      "stateMutability": "nonpayable",
      "type": "function"
    },
    {
      "inputs": [
        {
          "internalType": "bytes32",
          "name": "_balancerPoolEarnedToToken",
          "type": "bytes32"
        }
      ],
      "name": "setBalancerPoolEarnedToTokens",
      "outputs": [],
      "stateMutability": "nonpayable",
      "type": "function"
    },
    {
      "inputs": [
        {
          "internalType": "bytes32",
          "name": "_balancerLPPool",
          "type": "bytes32"
        }
      ],
      "name": "setBalancerLPPool",
      "outputs": [],
      "stateMutability": "nonpayable",
      "type": "function"
    },
    {
      "inputs": [
        {
          "internalType": "address",
          "name": "_tokenACS",
          "type": "address"
        }
      ],
      "name": "setTokenACS",
      "outputs": [],
      "stateMutability": "nonpayable",
      "type": "function"
    },
    {
      "inputs": [
        {
          "internalType": "address",
          "name": "_tokenACSI",
          "type": "address"
        }
      ],
      "name": "setTokenACSI",
      "outputs": [],
      "stateMutability": "nonpayable",
      "type": "function"
    },
    {
      "inputs": [
        {
          "internalType": "bytes32",
          "name": "_balancerPoolUSDCToWant",
          "type": "bytes32"
        }
      ],
      "name": "setBalancerPoolUSDCToWant",
      "outputs": [],
      "stateMutability": "nonpayable",
      "type": "function"
    },
    {
      "inputs": [
        {
          "internalType": "bytes32",
          "name": "_balancerPoolUSDCToToken0",
          "type": "bytes32"
        }
      ],
      "name": "setBalancerPoolUSDCToToken0",
      "outputs": [],
      "stateMutability": "nonpayable",
      "type": "function"
    },
    {
      "inputs": [
        {
          "internalType": "address",
          "name": "_account",
          "type": "address"
        },
        {
          "internalType": "bytes",
          "name": "_foreignAccount",
          "type": "bytes"
        },
        {
          "internalType": "uint256",
          "name": "_wantAmt",
          "type": "uint256"
        }
      ],
      "name": "depositWantToken",
      "outputs": [
        {
          "internalType": "uint256",
          "name": "",
          "type": "uint256"
        }
      ],
      "stateMutability": "nonpayable",
      "type": "function"
    },
    {
      "inputs": [
        {
          "internalType": "uint256",
          "name": "_amountUSDC",
          "type": "uint256"
        },
        {
          "internalType": "uint256",
          "name": "_maxMarketMovementAllowed",
          "type": "uint256"
        }
      ],
      "name": "exchangeUSDForWantToken",
      "outputs": [
        {
          "internalType": "uint256",
          "name": "",
          "type": "uint256"
        }
      ],
      "stateMutability": "nonpayable",
      "type": "function"
    },
    {
      "inputs": [],
      "name": "farm",
      "outputs": [],
      "stateMutability": "nonpayable",
      "type": "function"
    },
    {
      "inputs": [
        {
          "internalType": "address",
          "name": "_account",
          "type": "address"
        },
        {
          "internalType": "bytes",
          "name": "_foreignAccount",
          "type": "bytes"
        },
        {
          "internalType": "bool",
          "name": "_harvestOnly",
          "type": "bool"
        }
      ],
      "name": "withdrawWantToken",
      "outputs": [
        {
          "internalType": "uint256",
          "name": "",
          "type": "uint256"
        }
      ],
      "stateMutability": "nonpayable",
      "type": "function"
    },
    {
      "inputs": [
        {
          "internalType": "uint256",
          "name": "_amount",
          "type": "uint256"
        },
        {
          "internalType": "uint256",
          "name": "_maxMarketMovementAllowed",
          "type": "uint256"
        }
      ],
      "name": "exchangeWantTokenForUSD",
      "outputs": [
        {
          "internalType": "uint256",
          "name": "",
          "type": "uint256"
        }
      ],
      "stateMutability": "nonpayable",
      "type": "function"
    },
    {
      "inputs": [
        {
          "internalType": "uint256",
          "name": "_maxMarketMovementAllowed",
          "type": "uint256"
        }
      ],
      "name": "earn",
      "outputs": [],
      "stateMutability": "nonpayable",
      "type": "function"
    }
  ],
  "bytecode": "0x6080604052600c8054600160a060020a031990811661dead179091556013805460a060020a60ff02191674010000000000000000000000000000000000000000179055600060148190556015819055601681905560188190556019819055601a55612706601b55612710601c556103b6601d5560358054821673a82f327bbbf0667356d2935c6532d164b06ceced1790557f894ed9026de37afd9cce1e6c0be7d6b510e3ffe5000100000000000000000001603655603880548216734197c6ef3879a08cd51e5560da5064b773aa1d2917905560398054909116735b17b4d5e4009b5c43e3e3d63a5229f794cba389179055348015620000fe57600080fd5b50604051620059a5380380620059a5833981016040819052620001219162000dfd565b6200014762000138640100000000620006e0810204565b640100000000620006e4810204565b600180556002805460ff19169055885189906000906200016b576200016b62000f20565b6020026020010151601360006101000a815481600160a060020a030219169083600160a060020a0316021790555088600181518110620001af57620001af62000f20565b6020026020010151601060006101000a815481600160a060020a030219169083600160a060020a0316021790555088600281518110620001f357620001f362000f20565b6020026020010151601160006101000a815481600160a060020a030219169083600160a060020a031602179055508860038151811062000237576200023762000f20565b6020026020010151600560006101000a815481600160a060020a030219169083600160a060020a03160217905550886004815181106200027b576200027b62000f20565b6020026020010151600660006101000a815481600160a060020a030219169083600160a060020a0316021790555088600581518110620002bf57620002bf62000f20565b6020026020010151600860006101000a815481600160a060020a030219169083600160a060020a031602179055508860068151811062000303576200030362000f20565b6020026020010151600460006101000a815481600160a060020a030219169083600160a060020a031602179055508860078151811062000347576200034762000f20565b6020026020010151600d60006101000a815481600160a060020a030219169083600160a060020a03160217905550886008815181106200038b576200038b62000f20565b6020026020010151600f60006101000a815481600160a060020a030219169083600160a060020a0316021790555088600981518110620003cf57620003cf62000f20565b6020026020010151600e60006101000a815481600160a060020a030219169083600160a060020a0316021790555088600a8151811062000413576200041362000f20565b6020026020010151600a60006101000a815481600160a060020a030219169083600160a060020a0316021790555088600b8151811062000457576200045762000f20565b6020908102919091010151600b8054600160a060020a031916600160a060020a039092169190911790556003889055600280546201000062ffff00199091166101008a15150262ff00001916171764ffff000000191663010000008815150264ff00000000191617640100000000871515810291909117909155620004e3908590859062000734810204565b6200055960238054806020026020016040519081016040528092919081815260200182805480156200053f57602002820191906000526020600020905b8154600160a060020a0316815260019091019060200180831162000520575b505050505062000aa6640100000000026401000000009004565b80516200056f9160259160209091019062000b87565b50620005e4601e8054806020026020016040519081016040528092919081815260200182805480156200053f57602002820191906000526020600020908154600160a060020a031681526001909101906020018083116200052057505050505062000aa6640100000000026401000000009004565b8051620005f8916020919082019062000b87565b50816000815181106200060f576200060f62000f20565b60200260200101516018819055508160018151811062000633576200063362000f20565b60200260200101516019819055508160028151811062000657576200065762000f20565b6020026020010151601b81905550816003815181106200067b576200067b62000f20565b6020026020010151601c81905550806000815181106200069f576200069f62000f20565b6020026020010151603a8190555080600181518110620006c357620006c362000f20565b6020026020010151603b8190555050505050505050505062000fd8565b3390565b60008054600160a060020a03838116600160a060020a0319831681178455604051919092169283917f8be0079c531659141344cd1fd0a4f28419497f9722a3daafe3b4186f6b6457e09190a35050565b6000816000815181106200074c576200074c62000f20565b602002602001015190506000805b84518161ffff16101562000a9f5760008451831015620007ae57846200079084600164010000000062002c3362000b6482021704565b81518110620007a357620007a362000f20565b602002602001015190505b61ffff82161580620007c757508061ffff168261ffff16105b1562000a8b57826200084257858261ffff1681518110620007ec57620007ec62000f20565b602002602001015160228361ffff16815481106200080e576200080e62000f20565b9060005260206000200160006101000a815481600160a060020a030219169083600160a060020a0316021790555062000a8b565b82600114156200088757858261ffff168151811062000865576200086562000f20565b602002602001015160238361ffff16815481106200080e576200080e62000f20565b8260021415620008cc57858261ffff1681518110620008aa57620008aa62000f20565b602002602001015160248361ffff16815481106200080e576200080e62000f20565b82600314156200091157858261ffff1681518110620008ef57620008ef62000f20565b6020026020010151601e8361ffff16815481106200080e576200080e62000f20565b82600414156200095657858261ffff168151811062000934576200093462000f20565b6020026020010151601f8361ffff16815481106200080e576200080e62000f20565b82600514156200099b57858261ffff168151811062000979576200097962000f20565b602002602001015160278361ffff16815481106200080e576200080e62000f20565b8260061415620009e057858261ffff1681518110620009be57620009be62000f20565b6020026020010151602a8361ffff16815481106200080e576200080e62000f20565b826007141562000a2557858261ffff168151811062000a035762000a0362000f20565b6020026020010151602b8361ffff16815481106200080e576200080e62000f20565b6040517f08c379a000000000000000000000000000000000000000000000000000000000815260206004820152600e60248201527f6261642073776170207061746873000000000000000000000000000000000000604482015260640160405180910390fd5b5062000a978162000f7e565b90506200075a565b5050505050565b60608060005b83518161ffff16101562000b5d578362000afe8261ffff1662000ae96001885162000b796401000000000262002c46179091906401000000009004565b9064010000000062002c4662000b7982021704565b8151811062000b115762000b1162000f20565b6020026020010151828261ffff168151811062000b325762000b3262000f20565b600160a060020a039092166020928302919091019091015262000b558162000f7e565b905062000aac565b5092915050565b600062000b72828462000fa3565b9392505050565b600062000b72828462000fbe565b82805482825590600052602060002090810192821562000bdf579160200282015b8281111562000bdf5782518254600160a060020a031916600160a060020a0390911617825560209092019160019091019062000ba8565b5062000bed92915062000bf1565b5090565b5b8082111562000bed576000815560010162000bf2565b7f4e487b7100000000000000000000000000000000000000000000000000000000600052604160045260246000fd5b604051601f8201601f191681016001604060020a038111828210171562000c625762000c6262000c08565b604052919050565b60006001604060020a0382111562000c865762000c8662000c08565b5060209081020190565b600082601f83011262000ca257600080fd5b8151602062000cbb62000cb58362000c6a565b62000c37565b8281529181028401810191818101908684111562000cd857600080fd5b8286015b8481101562000d0c578051600160a060020a038116811462000cfe5760008081fd5b835291830191830162000cdc565b509695505050505050565b8051801515811462000d2857600080fd5b919050565b600082601f83011262000d3f57600080fd5b8151602062000d5262000cb58362000c6a565b8281529181028401810191818101908684111562000d6f57600080fd5b8286015b8481101562000d0c57805161ffff8116811462000d905760008081fd5b835291830191830162000d73565b600082601f83011262000db057600080fd5b8151602062000dc362000cb58362000c6a565b8281529181028401810191818101908684111562000de057600080fd5b8286015b8481101562000d0c578051835291830191830162000de4565b60008060008060008060008060006101208a8c03121562000e1d57600080fd5b89516001604060020a038082111562000e3557600080fd5b62000e438d838e0162000c90565b9a5060208c0151995062000e5a60408d0162000d17565b985062000e6a60608d0162000d17565b975062000e7a60808d0162000d17565b965060a08c015191508082111562000e9157600080fd5b62000e9f8d838e0162000c90565b955060c08c015191508082111562000eb657600080fd5b62000ec48d838e0162000d2d565b945060e08c015191508082111562000edb57600080fd5b62000ee98d838e0162000d9e565b93506101008c015191508082111562000f0157600080fd5b5062000f108c828d0162000d9e565b9150509295985092959850929598565b7f4e487b7100000000000000000000000000000000000000000000000000000000600052603260045260246000fd5b7f4e487b7100000000000000000000000000000000000000000000000000000000600052601160045260246000fd5b600061ffff8083168181141562000f995762000f9962000f4f565b6001019392505050565b6000821982111562000fb95762000fb962000f4f565b500190565b60008282101562000fd35762000fd362000f4f565b500390565b6149bd8062000fe86000396000f3fe608060405234801561001057600080fd5b50600436106106c85760003560e060020a900480638b9102dc1161038b578063c8479cd6116101e2578063e7a0367911610113578063efb7601d116100b1578063f2fde38b1161008b578063f2fde38b14610db9578063f5046a2914610dcc578063fbf5683f14610ddf578063ffbd3b1f14610df257600080fd5b8063efb7601d14610d8a578063f106845414610d9d578063f25342bf14610da657600080fd5b8063ec69ae1c116100ed578063ec69ae1c14610d50578063edf5e58514610d63578063ee50dc3414610814578063efa0280814610d7857600080fd5b8063e7a0367914610d17578063e9e15b4f14610d2a578063ebfba7c414610d3d57600080fd5b8063dc3ae9d311610180578063e502a88d1161015a578063e502a88d14610ccb578063e64f5fc314610cde578063e65a011714610cf1578063e719847414610d0457600080fd5b8063dc3ae9d314610c85578063de69b3aa14610c98578063e1cda03c14610cb857600080fd5b8063cfad57a2116101bc578063cfad57a214610c43578063d1aeabaf14610c56578063d53aa5c614610c69578063d7cb416f14610c7257600080fd5b8063c8479cd614610c0a578063c8e3d18b14610c1d578063cc4c988414610c3057600080fd5b8063b1414dbb116102bc578063bc9460631161025a578063c0973eed11610234578063c0973eed14610bd1578063c302a4d014610a33578063c5c97cbf14610be4578063c6efd57714610bf757600080fd5b8063bc94606314610bac578063bd7aa16514610bb5578063bf3a7d4014610bbe57600080fd5b8063b74cd24211610296578063b74cd24214610b6a578063b77050e714610b73578063b86c5f5314610b86578063b9db191714610b9957600080fd5b8063b1414dbb14610b44578063b3545c011461080b578063b73cba2a14610b5757600080fd5b80639fc33a9f11610329578063aabf190b11610303578063aabf190b14610af8578063ab196def14610b0b578063adfe5a7614610b1e578063ae53e58a14610b3157600080fd5b80639fc33a9f14610ac9578063a4d2b08314610adc578063a8fcbf2214610aef57600080fd5b806392f9576d1161036557806392f9576d14610a8757806396e9aff814610a9a5780639b6017e514610aad5780639f703a5614610ab657600080fd5b80638b9102dc14610a4f5780638d69220014610a635780638da5cb5b14610a7657600080fd5b80634d9f7bb21161053f5780636a91ba85116104705780637c7671e21161040e5780638456cb59116103e85780638456cb5914610a2257806385f02dd614610a2a578063866b201814610a335780638906758d14610a3c57600080fd5b80637c7671e2146109e95780637ec82864146109fc5780637ff36fbe14610a0f57600080fd5b806370e842a11161044a57806370e842a1146109a8578063715018a6146109bb5780637153ef86146109c35780637bf604d8146109d657600080fd5b80636a91ba851461096f5780636f96f6fa1461098257806370d5ae051461099557600080fd5b80636392ab12116104dd57806367057b6c116104b757806367057b6c1461081457806367206d401461094057806368f5416214610953578063693a090b1461095c57600080fd5b80636392ab1214610907578063648794a41461091a57806366aca0a61461092d57600080fd5b8063583bda3b11610519578063583bda3b146108c35780635c975abb146108d65780635da79d63146108e15780635dc05fd5146108f457600080fd5b80634d9f7bb2146108145780634e2cb8b61461089d578063563397d7146108b057600080fd5b80631e12819a1161061957806343788cd2116105b757806348f2d9dd1161059157806348f2d9dd1461085b5780634c5b09da1461086e5780634c8fc2d6146108815780634ce54ddb1461088a57600080fd5b806343788cd21461081457806344a3955e1461083f57806346008a071461084857600080fd5b80633214471f116105f35780633214471f1461081d57806336e9332d146108265780633f4ba83a1461082e57806342da4eb31461083657600080fd5b80631e12819a146107f8578063211019d71461080b5780632717eff31461081457600080fd5b80630daef3211161068657806315bf31791161066057806315bf3179146107b65780631755ff21146107c9578063178a8d07146107dc5780631b0d8aab146107e557600080fd5b80630daef3211461076f5780630fa4e01e146107a45780631334903f146107ad57600080fd5b80627a2ae3146106cd57806305828d3e146106fd578063061c7d48146107125780630873cb9114610729578063095170e9146107495780630b6bb30b1461075c575b600080fd5b6106e06106db366004614130565b610dfb565b604051600160a060020a0390911681526020015b60405180910390f35b61071061070b36600461415e565b610e25565b005b61071b61012c81565b6040519081526020016106f4565b61071b610737366004614130565b602f6020526000908152604090205481565b61071b610757366004614245565b610e7d565b61071061076a3660046142a9565b61113d565b6013546107949074010000000000000000000000000000000000000000900460ff1681565b60405190151581526020016106f4565b61071b60145481565b61071b601b5481565b6107106107c436600461415e565b6111e4565b600f546106e090600160a060020a031681565b61071b60195481565b6107106107f3366004614130565b611233565b61071061080636600461415e565b611265565b61071b61032081565b61071b61271081565b61071b601a5481565b6107106112b4565b6107106112ed565b61071b60155481565b61071b60165481565b6013546106e090600160a060020a031681565b6107106108693660046142a9565b611324565b61071061087c36600461415e565b61136b565b61071b602e5481565b6009546106e090600160a060020a031681565b6106e06108ab366004614130565b6113ba565b6038546106e090600160a060020a031681565b6107106108d136600461415e565b6113ca565b60025460ff16610794565b6107106108ef36600461415e565b611419565b6002546107949062010000900460ff1681565b6106e0610915366004614130565b611468565b61071b6109283660046142c6565b611478565b61071061093b3660046142a9565b61178e565b61071061094e3660046142e8565b6117d7565b61071b601c5481565b600e546106e090600160a060020a031681565b61071061097d366004614130565b6118df565b6032546106e090600160a060020a031681565b600c546106e090600160a060020a031681565b6035546106e090600160a060020a031681565b610710611911565b6107106109d136600461431f565b611948565b600a546106e090600160a060020a031681565b61071b6109f736600461435a565b611c37565b6106e0610a0a366004614130565b611dfe565b6006546106e090600160a060020a031681565b610710611e0e565b61071b60185481565b61071b6126ac81565b610710610a4a36600461415e565b611e43565b600254610794906301000000900460ff1681565b6106e0610a71366004614130565b611e92565b600054600160a060020a03166106e0565b6106e0610a95366004614130565b611ea2565b6106e0610aa8366004614130565b611eb2565b61071b602d5481565b6106e0610ac4366004614130565b611ec2565b6004546106e090600160a060020a031681565b6012546106e090600160a060020a031681565b61071b60365481565b6033546106e090600160a060020a031681565b6034546106e090600160a060020a031681565b6106e0610b2c366004614130565b611ed2565b6031546106e090600160a060020a031681565b6010546106e090600160a060020a031681565b610710610b6536600461415e565b611ee2565b61071b6103e381565b6106e0610b81366004614130565b611f31565b6106e0610b94366004614130565b611f41565b610710610ba7366004614130565b611f51565b61071b603a5481565b61071b60375481565b610710610bcc36600461415e565b611f83565b600d546106e090600160a060020a031681565b6106e0610bf2366004614130565b611fd2565b6106e0610c05366004614130565b611fe2565b610710610c1836600461415e565b611ff2565b6106e0610c2b366004614130565b612041565b6039546106e090600160a060020a031681565b610710610c5136600461415e565b612051565b610710610c643660046142a9565b6120cc565b61071b603b5481565b6007546106e090600160a060020a031681565b610710610c93366004614130565b612117565b61071b610ca636600461415e565b60176020526000908152604090205481565b610710610cc6366004614130565b612149565b61071b610cd93660046142c6565b61217b565b610710610cec36600461415e565b612553565b610710610cff366004614130565b6125a2565b6008546106e090600160a060020a031681565b6005546106e090600160a060020a031681565b610710610d3836600461415e565b61297d565b600b546106e090600160a060020a031681565b610710610d5e36600461415e565b6129cc565b60025461079490640100000000900460ff1681565b60025461079490610100900460ff1681565b61071b610d9836600461415e565b612a1b565b61071b60035481565b6030546106e090600160a060020a031681565b610710610dc736600461415e565b612b6b565b6011546106e090600160a060020a031681565b6106e0610ded366004614130565b612c23565b61071b601d5481565b60268181548110610e0b57600080fd5b600091825260209091200154600160a060020a0316905081565b600054600160a060020a03163314610e5b5760405160e560020a62461bcd028152600401610e52906143b3565b60405180910390fd5b60078054600160a060020a031916600160a060020a0392909216919091179055565b601054600090600160a060020a031633600160a060020a031614610eb65760405160e560020a62461bcd028152600401610e52906143e8565b60026001541415610edc5760405160e560020a62461bcd028152600401610e529061441f565b6002600155610eed60025460ff1690565b15610f0d5760405160e560020a62461bcd028152600401610e5290614456565b600082610fb557600160a060020a038581166000908152601760205260409081902054601654600554925160e060020a6370a082310281523060048201529193610fb1939192610fab92869216906370a0823190602401602060405180830381865afa158015610f81573d6000803e3d6000fd5b505050506040513d601f19601f82011682018060405250810190610fa5919061448d565b90612c52565b90612c5e565b9150505b6000610fd2601554610fab60165485612c5290919063ffffffff16565b9050601654811115610fe357506016545b601654610ff09082612c46565b601655600160a060020a0386166000908152601760205260409020546110169082612c46565b600160a060020a038716600090815260176020526040902055601c54612710111561105957611056612710610fab601c5485612c5290919063ffffffff16565b91505b6002546301000000900460ff16156110745761107482612c6a565b60055460405160e060020a6370a08231028152306004820152600091600160a060020a0316906370a0823190602401602060405180830381865afa1580156110c0573d6000803e3d6000fd5b505050506040513d601f19601f820116820180604052508101906110e4919061448d565b9050808311156110f2578092505b8260155410156111025760155492505b60155461110f9084612c46565b60155560105460055461112f91600160a060020a03918216911685612cf1565b506001805595945050505050565b601354600160a060020a0316331461116a5760405160e560020a62461bcd028152600401610e52906144a6565b60138054821515740100000000000000000000000000000000000000000274ff0000000000000000000000000000000000000000199091161790556040517f125177ac7b8930dac1e59c2b30b1b6b9191b30af40cf6bbb5d20fec4d44be60f906111d990831515815260200190565b60405180910390a150565b600054600160a060020a031633146112115760405160e560020a62461bcd028152600401610e52906143b3565b60398054600160a060020a031916600160a060020a0392909216919091179055565b600054600160a060020a031633146112605760405160e560020a62461bcd028152600401610e52906143b3565b600355565b600054600160a060020a031633146112925760405160e560020a62461bcd028152600401610e52906143b3565b60098054600160a060020a031916600160a060020a0392909216919091179055565b600260015414156112da5760405160e560020a62461bcd028152600401610e529061441f565b60026001556112e7612d9a565b60018055565b601354600160a060020a0316331461131a5760405160e560020a62461bcd028152600401610e52906144a6565b611322612eec565b565b600054600160a060020a031633146113515760405160e560020a62461bcd028152600401610e52906143b3565b600280549115156101000261ff0019909216919091179055565b600054600160a060020a031633146113985760405160e560020a62461bcd028152600401610e52906143b3565b60048054600160a060020a031916600160a060020a0392909216919091179055565b60218181548110610e0b57600080fd5b600054600160a060020a031633146113f75760405160e560020a62461bcd028152600401610e52906143b3565b60118054600160a060020a031916600160a060020a0392909216919091179055565b600054600160a060020a031633146114465760405160e560020a62461bcd028152600401610e52906143b3565b600e8054600160a060020a031916600160a060020a0392909216919091179055565b60228181548110610e0b57600080fd5b601054600090600160a060020a031633600160a060020a0316146114b15760405160e560020a62461bcd028152600401610e52906143e8565b60025460ff16156114d75760405160e560020a62461bcd028152600401610e5290614456565b6000831161152a5760405160e560020a62461bcd02815260206004820152601460248201527f57616e7420616d74206d757374206265203e20300000000000000000000000006044820152606401610e52565b60055461154290600160a060020a0316333086612f8b565b600480546005546040517ff3fef3a3000000000000000000000000000000000000000000000000000000008152600160a060020a039182169381019390935260248301869052169063f3fef3a390604401600060405180830381600087803b1580156115ad57600080fd5b505af11580156115c1573d6000803e3d6000fd5b5050603054600092506115dd9150600160a060020a0316612a1b565b60065460405160e060020a6370a08231028152306004820152919250600091600160a060020a03909116906370a0823190602401602060405180830381865afa15801561162e573d6000803e3d6000fd5b505050506040513d601f19601f82011682018060405250810190611652919061448d565b6040805161014081018252828152602080820186905264e8d4a5100082840152600654600160a060020a039081166060840152600954166080830152600060a0830181905260c083015260e0820188905280548351818302810183019094528084529394506117149391926101008401929091908282018282801561170057602002820191906000526020600020905b8154600160a060020a031681526001909101906020018083116116e2575b505050918352505033602090910152612fe2565b60095460405160e060020a6370a08231028152306004820152600160a060020a03909116906370a0823190602401602060405180830381865afa15801561175f573d6000803e3d6000fd5b505050506040513d601f19601f82011682018060405250810190611783919061448d565b925050505b92915050565b600054600160a060020a031633146117bb5760405160e560020a62461bcd028152600401610e52906143b3565b60028054911515620100000262ff000019909216919091179055565b601354600160a060020a031633146118045760405160e560020a62461bcd028152600401610e52906144a6565b600854600160a060020a03848116911614156118655760405160e560020a62461bcd02815260206004820152600560248201527f21736166650000000000000000000000000000000000000000000000000000006044820152606401610e52565b600554600160a060020a03848116911614156118c65760405160e560020a62461bcd02815260206004820152600560248201527f21736166650000000000000000000000000000000000000000000000000000006044820152606401610e52565b6118da600160a060020a0384168284612cf1565b505050565b600054600160a060020a0316331461190c5760405160e560020a62461bcd028152600401610e52906143b3565b603655565b600054600160a060020a0316331461193e5760405160e560020a62461bcd028152600401610e52906143b3565b611322600061312a565b601354600160a060020a031633146119755760405160e560020a62461bcd028152600401610e52906144a6565b6126ac8510156119ca5760405160e560020a62461bcd02815260206004820152601a60248201527f5f656e7472616e6365466565466163746f7220746f6f206c6f770000000000006044820152606401610e52565b612710851115611a1f5760405160e560020a62461bcd02815260206004820152601b60248201527f5f656e7472616e6365466565466163746f7220746f6f206869676800000000006044820152606401610e52565b601b8590556126ac841015611a795760405160e560020a62461bcd02815260206004820152601a60248201527f5f7769746864726177466565466163746f7220746f6f206c6f770000000000006044820152606401610e52565b612710841115611ace5760405160e560020a62461bcd02815260206004820152601b60248201527f5f7769746864726177466565466163746f7220746f6f206869676800000000006044820152606401610e52565b601c84905561012c831115611b285760405160e560020a62461bcd02815260206004820152601760248201527f5f636f6e74726f6c6c657246656520746f6f20686967680000000000000000006044820152606401610e52565b6018839055610320821115611b825760405160e560020a62461bcd02815260206004820152601560248201527f5f6275794261636b5261746520746f6f206869676800000000000000000000006044820152606401610e52565b60198290556103e3811115611bdc5760405160e560020a62461bcd02815260206004820152601860248201527f5f736c697070616765466163746f7220746f6f206869676800000000000000006044820152606401610e52565b601d819055604080518681526020810186905290810184905260608101839052608081018290527fc67e0b149a57a70fa44a531a46c2c6d8e0b242fa12f459f250012c3a5987d29a9060a00160405180910390a15050505050565b601054600090600160a060020a031633600160a060020a031614611c705760405160e560020a62461bcd028152600401610e52906143e8565b60026001541415611c965760405160e560020a62461bcd028152600401610e529061441f565b6002600155611ca760025460ff1690565b15611cc75760405160e560020a62461bcd028152600401610e5290614456565b60008211611d1a5760405160e560020a62461bcd02815260206004820152601e60248201527f57616e7420746f6b656e206465706f736974206d757374206265203e203000006044820152606401610e52565b600554611d3290600160a060020a0316333085612f8b565b601554829015801590611d4757506000601654115b15611d7657611d73612710610fab601554610fab601b54610fa56016548a612c5290919063ffffffff16565b90505b601654611d839082612c33565b601655600160a060020a038516600090815260176020526040902054611da99082612c33565b600160a060020a0386166000908152601760205260409020556002546301000000900460ff1615611de157611ddc612d9a565b611df2565b601554611dee9084612c33565b6015555b60018055949350505050565b60298181548110610e0b57600080fd5b601354600160a060020a03163314611e3b5760405160e560020a62461bcd028152600401610e52906144a6565b61132261317a565b600054600160a060020a03163314611e705760405160e560020a62461bcd028152600401610e52906143b3565b600d8054600160a060020a031916600160a060020a0392909216919091179055565b602c8181548110610e0b57600080fd5b602b8181548110610e0b57600080fd5b60248181548110610e0b57600080fd5b602a8181548110610e0b57600080fd5b60288181548110610e0b57600080fd5b600054600160a060020a03163314611f0f5760405160e560020a62461bcd028152600401610e52906143b3565b60088054600160a060020a031916600160a060020a0392909216919091179055565b60258181548110610e0b57600080fd5b601e8181548110610e0b57600080fd5b600054600160a060020a03163314611f7e5760405160e560020a62461bcd028152600401610e52906143b3565b603b55565b600054600160a060020a03163314611fb05760405160e560020a62461bcd028152600401610e52906143b3565b60108054600160a060020a031916600160a060020a0392909216919091179055565b601f8181548110610e0b57600080fd5b60208181548110610e0b57600080fd5b600054600160a060020a0316331461201f5760405160e560020a62461bcd028152600401610e52906143b3565b60068054600160a060020a031916600160a060020a0392909216919091179055565b60238181548110610e0b57600080fd5b601354600160a060020a0316331461207e5760405160e560020a62461bcd028152600401610e52906144a6565b60138054600160a060020a031916600160a060020a0383169081179091556040519081527f91a8c1cc2d4a3bb60738481947a00cbb9899c822916694cf8bb1d68172fdcd54906020016111d9565b600054600160a060020a031633146120f95760405160e560020a62461bcd028152600401610e52906143b3565b6002805491151563010000000263ff00000019909216919091179055565b600054600160a060020a031633146121445760405160e560020a62461bcd028152600401610e52906143b3565b603755565b600054600160a060020a031633146121765760405160e560020a62461bcd028152600401610e52906143b3565b603a55565b601054600090600160a060020a031633600160a060020a0316146121b45760405160e560020a62461bcd028152600401610e52906143e8565b60025460ff16156121da5760405160e560020a62461bcd028152600401610e5290614456565b60095460405160e060020a6370a08231028152306004820152600091600160a060020a0316906370a0823190602401602060405180830381865afa158015612226573d6000803e3d6000fd5b505050506040513d601f19601f8201168201806040525081019061224a919061448d565b90506000841161229f5760405160e560020a62461bcd02815260206004820152601860248201527f55534443206465706f736974206d757374206265203e203000000000000000006044820152606401610e52565b808411156122f25760405160e560020a62461bcd02815260206004820152601960248201527f5553444320646573697265642065786365656465642062616c000000000000006044820152606401610e52565b60305460009061230a90600160a060020a0316612a1b565b604080516101408101825287815264e8d4a51000602080830191909152818301849052600954600160a060020a039081166060840152600654166080830152600060a0830181905260c083015260e08201889052601e80548451818402810184019095528085529495506123cf94929361010085019390928301828280156123bb57602002820191906000526020600020905b8154600160a060020a0316815260019091019060200180831161239d575b505050918352505030602090910152612fe2565b60065460405160e060020a6370a08231028152306004820152600091600160a060020a0316906370a0823190602401602060405180830381865afa15801561241b573d6000803e3d6000fd5b505050506040513d601f19601f8201168201806040525081019061243f919061448d565b600f546040517fb6b55f2500000000000000000000000000000000000000000000000000000000815260048101839052919250600160a060020a03169063b6b55f2590602401600060405180830381600087803b15801561249f57600080fd5b505af11580156124b3573d6000803e3d6000fd5b505060055460405160e060020a6370a0823102815230600482015260009350600160a060020a0390911691506370a0823190602401602060405180830381865afa158015612505573d6000803e3d6000fd5b505050506040513d601f19601f82011682018060405250810190612529919061448d565b60105460055491925061254991600160a060020a03908116911683612cf1565b9695505050505050565b600054600160a060020a031633146125805760405160e560020a62461bcd028152600401610e52906143b3565b60388054600160a060020a031916600160a060020a0392909216919091179055565b600260015414156125c85760405160e560020a62461bcd028152600401610e529061441f565b60026001556125d960025460ff1690565b156125f95760405160e560020a62461bcd028152600401610e5290614456565b6002546301000000900460ff166126555760405160e560020a62461bcd02815260206004820152600c60248201527f2169735a6f72726f436f6d7000000000000000000000000000000000000000006044820152606401610e52565b60135474010000000000000000000000000000000000000000900460ff16156126a557601354600160a060020a031633146126a55760405160e560020a62461bcd028152600401610e52906144a6565b6126af6000612c6a565b60085460405160e060020a6370a08231028152306004820152600091600160a060020a0316906370a0823190602401602060405180830381865afa1580156126fb573d6000803e3d6000fd5b505050506040513d601f19601f8201168201806040525081019061271f919061448d565b60325490915060009061273a90600160a060020a0316612a1b565b60305490915060009061275590600160a060020a0316612a1b565b60345490915060009061277090600160a060020a0316612a1b565b60345490915060009061278b90600160a060020a0316612a1b565b60408051606081018252868152602081018590529081018290529091506127b1866131d5565b95506127be868883613234565b60408051610140810182528281526020808201899052818301889052600854600160a060020a039081166060840152600654166080830152600060a0830181905260c083015260e082018b905260238054845181840281018401909552808552949a5061287a94929361010085019390928301828280156123bb57602002820191906000526020600020908154600160a060020a0316815260019091019060200180831161239d57505050918352505030602090910152612fe2565b60065460405160e060020a6370a08231028152306004820152600091600160a060020a0316906370a0823190602401602060405180830381865afa1580156128c6573d6000803e3d6000fd5b505050506040513d601f19601f820116820180604052508101906128ea919061448d565b600f546040517fb6b55f2500000000000000000000000000000000000000000000000000000000815260048101839052919250600160a060020a03169063b6b55f2590602401600060405180830381600087803b15801561294a57600080fd5b505af115801561295e573d6000803e3d6000fd5b5050436014555061296f9050612d9a565b505060018055505050505050565b600054600160a060020a031633146129aa5760405160e560020a62461bcd028152600401610e52906143b3565b600f8054600160a060020a031916600160a060020a0392909216919091179055565b600054600160a060020a031633146129f95760405160e560020a62461bcd028152600401610e52906143b3565b60358054600160a060020a031916600160a060020a0392909216919091179055565b60008082600160a060020a031663313ce5676040518163ffffffff1660e060020a028152600401602060405180830381865afa158015612a5f573d6000803e3d6000fd5b505050506040513d601f19601f82011682018060405250810190612a8391906144dd565b9050600083600160a060020a031663feaf968c6040518163ffffffff1660e060020a02815260040160a060405180830381865afa158015612ac8573d6000803e3d6000fd5b505050506040513d601f19601f82011682018060405250810190612aec919061451f565b5050509150506000811215612b465760405160e560020a62461bcd02815260206004820152601660248201527f6e656720707269636573206e6f7420616c6c6f776564000000000000000000006044820152606401610e52565b612b63612b5483600a614685565b610fab8364e8d4a51000612c52565b949350505050565b600054600160a060020a03163314612b985760405160e560020a62461bcd028152600401610e52906143b3565b600160a060020a038116612c175760405160e560020a62461bcd02815260206004820152602660248201527f4f776e61626c653a206e6577206f776e657220697320746865207a65726f206160448201527f64647265737300000000000000000000000000000000000000000000000000006064820152608401610e52565b612c208161312a565b50565b60278181548110610e0b57600080fd5b6000612c3f8284614694565b9392505050565b6000612c3f82846146ac565b6000612c3f82846146c3565b6000612c3f82846146e2565b600480546005546040517ff3fef3a3000000000000000000000000000000000000000000000000000000008152600160a060020a039182169381019390935260248301849052169063f3fef3a3906044015b600060405180830381600087803b158015612cd657600080fd5b505af1158015612cea573d6000803e3d6000fd5b5050505050565b604051600160a060020a0383166024820152604481018290526118da9084907fa9059cbb00000000000000000000000000000000000000000000000000000000906064015b60408051601f198184030181529190526020810180517bffffffffffffffffffffffffffffffffffffffffffffffffffffffff167fffffffff0000000000000000000000000000000000000000000000000000000090931692909217909152613356565b6002546301000000900460ff16612df65760405160e560020a62461bcd02815260206004820152600c60248201527f2169735a6f72726f436f6d7000000000000000000000000000000000000000006044820152606401610e52565b60055460405160e060020a6370a08231028152306004820152600091600160a060020a0316906370a0823190602401602060405180830381865afa158015612e42573d6000803e3d6000fd5b505050506040513d601f19601f82011682018060405250810190612e66919061448d565b601554909150612e769082612c33565b601555600454600554612e9691600160a060020a0391821691168361343e565b600480546005546040517f47e7ef24000000000000000000000000000000000000000000000000000000008152600160a060020a03918216938101939093526024830184905216906347e7ef2490604401612cbc565b60025460ff16612f415760405160e560020a62461bcd02815260206004820152601460248201527f5061757361626c653a206e6f74207061757365640000000000000000000000006044820152606401610e52565b6002805460ff191690557f5db9ee0a495bf2e6ff9c91a7834c1ba4fdd244a5e8aa4e537bd38aeae4b073aa335b604051600160a060020a03909116815260200160405180910390a1565b604051600160a060020a0380851660248301528316604482015260648101829052612fdc9085907f23b872dd0000000000000000000000000000000000000000000000000000000090608401612d36565b50505050565b6038546060820151600160a060020a039081169116148061301557506039546080820151600160a060020a039081169116145b156130a857603554603a546040517fb288388300000000000000000000000000000000000000000000000000000000815273__SafeSwapBalancer______________________9263b28838839261307c92600160a060020a03909216918690600401614761565b60006040518083038186803b15801561309457600080fd5b505af4158015612cea573d6000803e3d6000fd5b600e5481516020830151604084015160e085015161010086015161012087015173__SafeSwapUni___________________________96632b08bab196600160a060020a0390911695909490939092909161310442610258612c33565b6040518963ffffffff1660e060020a02815260040161307c98979695949392919061482f565b60008054600160a060020a03838116600160a060020a0319831681178455604051919092169283917f8be0079c531659141344cd1fd0a4f28419497f9722a3daafe3b4186f6b6457e09190a35050565b60025460ff16156131a05760405160e560020a62461bcd028152600401610e5290614456565b6002805460ff191660011790557f62e78cea01bee320cd4e420270b5ea74000d11b0c9f74754ebdbfc544b05a258612f6e3390565b600081156132305760185415613230576000613202612710610fab60185486612c5290919063ffffffff16565b600d5460085491925061322291600160a060020a03908116911683612cf1565b61322c8382612c46565b9250505b5090565b60195460009081901561325f5761325c612710610fab60195488612c5290919063ffffffff16565b90505b6000600254640100000000900460ff161561328f5761327f828686613522565b61328a818686613c30565b613342565b601054600160a060020a03166132bb6132a88484612c33565b601054600160a060020a03168888613f4c565b6003546040517fc8d9bc9400000000000000000000000000000000000000000000000000000000815260048101919091526024810184905260448101839052600160a060020a0382169063c8d9bc9490606401600060405180830381600087803b15801561332857600080fd5b505af115801561333c573d6000803e3d6000fd5b50505050505b612549816133508885612c46565b90612c46565b60006133ab826040518060400160405280602081526020017f5361666545524332303a206c6f772d6c6576656c2063616c6c206661696c656481525085600160a060020a03166140169092919063ffffffff16565b8051909150156118da57808060200190518101906133c991906148c1565b6118da5760405160e560020a62461bcd02815260206004820152602a60248201527f5361666545524332303a204552433230206f7065726174696f6e20646964206e60448201527f6f742073756363656564000000000000000000000000000000000000000000006064820152608401610e52565b6040517fdd62ed3e000000000000000000000000000000000000000000000000000000008152306004820152600160a060020a038381166024830152600091839186169063dd62ed3e90604401602060405180830381865afa1580156134a8573d6000803e3d6000fd5b505050506040513d601f19601f820116820180604052508101906134cc919061448d565b6134d69190614694565b604051600160a060020a038516602482015260448101829052909150612fdc9085907f095ea7b30000000000000000000000000000000000000000000000000000000090606401612d36565b600e5460085461353f91600160a060020a0391821691168561343e565b603854600854600160a060020a039081169116148061356e5750603954600854600160a060020a039081169116145b15613860576040805161014081018252848152825160208083019190915264e8d4a5100082840152600854600160a060020a039081166060840152600954166080830152600060a0830181905260c083015260e08201859052602a805484518184028101840190955280855261363394610100850193909291908301828280156123bb57602002820191906000526020600020908154600160a060020a0316815260019091019060200180831161239d57505050918352505030602090910152612fe2565b60095460405160e060020a6370a08231028152306004820152600091600160a060020a0316906370a0823190602401602060405180830381865afa15801561367f573d6000803e3d6000fd5b505050506040513d601f19601f820116820180604052508101906136a3919061448d565b90506137816040518061014001604052806136c8600285612c5e90919063ffffffff16565b815264e8d4a5100060208083019190915285810151604080840191909152600954600160a060020a039081166060850152601154166080840152600060a0840181905260c084015260e08301889052602b80548251818502810185019093528083526101009094019391929091908301828280156123bb57602002820191906000526020600020908154600160a060020a0316815260019091019060200180831161239d57505050918352505030602090910152612fe2565b61385a6040518061014001604052806137a4600285612c5e90919063ffffffff16565b815264e8d4a5100060208083019190915260408681015181840152600954600160a060020a039081166060850152600b54166080840152600060a0840181905260c084015260e08301889052602c80548251818502810185019093528083526101009094019391929091908301828280156123bb57602002820191906000526020600020908154600160a060020a0316815260019091019060200180831161239d57505050918352505030602090910152612fe2565b50613a0d565b613938604051806101400160405280613883600287612c5e90919063ffffffff16565b8152835160208083019190915284810151604080840191909152600854600160a060020a039081166060850152601154166080840152600060a0840181905260c084015260e08301879052602280548251818502810185019093528083526101009094019391929091908301828280156123bb57602002820191906000526020600020908154600160a060020a0316815260019091019060200180831161239d57505050918352505030602090910152612fe2565b613a0d60405180610140016040528061395b600287612c5e90919063ffffffff16565b8152835160208083019190915260408086015181840152600854600160a060020a039081166060850152600b54166080840152600060a0840181905260c084015260e08301879052602780548251818502810185019093528083526101009094019391929091908301828280156123bb57602002820191906000526020600020908154600160a060020a0316815260019091019060200180831161239d57505050918352505030602090910152612fe2565b60115460405160e060020a6370a08231028152306004820152600091600160a060020a0316906370a0823190602401602060405180830381865afa158015613a59573d6000803e3d6000fd5b505050506040513d601f19601f82011682018060405250810190613a7d919061448d565b600b5460405160e060020a6370a08231028152306004820152919250600091600160a060020a03909116906370a0823190602401602060405180830381865afa158015613ace573d6000803e3d6000fd5b505050506040513d601f19601f82011682018060405250810190613af2919061448d565b600e54601154919250613b1291600160a060020a0390811691168461343e565b600e54600b54613b2f91600160a060020a0391821691168361343e565b600e54601154600b54600160a060020a039283169263e8e3370092811691168585613b606103e8610fab848d612c52565b613b706103e8610fab8a8e612c52565b600c54600160a060020a0316613b8842610258612c33565b60405163ffffffff8a1660e060020a028152600160a060020a039889166004820152968816602488015260448701959095526064860193909352608485019190915260a484015290921660c482015260e4810191909152610104016060604051808303816000875af1158015613c02573d6000803e3d6000fd5b505050506040513d601f19601f82011682018060405250810190613c2691906148de565b5050505050505050565b600e54600854613c4d91600160a060020a0391821691168561343e565b603854600854600160a060020a0390811691161480613c7c5750603954600854600160a060020a039081169116145b15613e83576040805161014081018252848152825160208083019190915264e8d4a5100082840152600854600160a060020a039081166060840152600954166080830152600060a0830181905260c083015260e08201859052602a8054845181840281018401909552808552613d4194610100850193909291908301828280156123bb57602002820191906000526020600020908154600160a060020a0316815260019091019060200180831161239d57505050918352505030602090910152612fe2565b60095460405160e060020a6370a08231028152306004820152600091600160a060020a0316906370a0823190602401602060405180830381865afa158015613d8d573d6000803e3d6000fd5b505050506040513d601f19601f82011682018060405250810190613db1919061448d565b604080516101408101825282815264e8d4a510006020808301919091528581015182840152600954600160a060020a039081166060840152601154166080830152600060a0830181905260c083015260e08201879052602b8054845181840281018401909552808552949550612fdc9492936101008501939092830182828015613e6457602002820191906000526020600020905b8154600160a060020a03168152600190910190602001808311613e46575b5050509183525050601254600160a060020a0316602090910152612fe2565b604080516101408101825284815282516020808301919091528381015182840152600854600160a060020a039081166060840152601154166080830152600060a0830181905260c083015260e08201859052602280548451818402810184019095528085526118da9461010085019390929190830182828015613e6457602002820191906000526020600020908154600160a060020a03168152600190910190602001808311613e46575050509183525050601254600160a060020a0316602090910152612fe2565b6040805161014081018252858152825160208083019190915264e8d4a5100082840152600854600160a060020a039081166060840152600954166080830152600060a0830181905260c083015260e08201859052602a8054845181840281018401909552808552612fdc9461010085019390929190830182828015613ffa57602002820191906000526020600020905b8154600160a060020a03168152600190910190602001808311613fdc575b5050505050815260200185600160a060020a0316815250612fe2565b6060612b63848460008585600160a060020a0385163b61407b5760405160e560020a62461bcd02815260206004820152601d60248201527f416464726573733a2063616c6c20746f206e6f6e2d636f6e74726163740000006044820152606401610e52565b60008086600160a060020a031685876040516140979190614938565b60006040518083038185875af1925050503d80600081146140d4576040519150601f19603f3d011682016040523d82523d6000602084013e6140d9565b606091505b50915091506140e98282866140f4565b979650505050505050565b60608315614103575081612c3f565b8251156141135782518084602001fd5b8160405160e560020a62461bcd028152600401610e529190614954565b60006020828403121561414257600080fd5b5035919050565b600160a060020a0381168114612c2057600080fd5b60006020828403121561417057600080fd5b8135612c3f81614149565b7f4e487b7100000000000000000000000000000000000000000000000000000000600052604160045260246000fd5b600082601f8301126141bb57600080fd5b813567ffffffffffffffff808211156141d6576141d661417b565b604051601f8301601f19908116603f011681019082821181831017156141fe576141fe61417b565b8160405283815286602085880101111561421757600080fd5b836020870160208301376000602085830101528094505050505092915050565b8015158114612c2057600080fd5b60008060006060848603121561425a57600080fd5b833561426581614149565b9250602084013567ffffffffffffffff81111561428157600080fd5b61428d868287016141aa565b925050604084013561429e81614237565b809150509250925092565b6000602082840312156142bb57600080fd5b8135612c3f81614237565b600080604083850312156142d957600080fd5b50508035926020909101359150565b6000806000606084860312156142fd57600080fd5b833561430881614149565b925060208401359150604084013561429e81614149565b600080600080600060a0868803121561433757600080fd5b505083359560208501359550604085013594606081013594506080013592509050565b60008060006060848603121561436f57600080fd5b833561437a81614149565b9250602084013567ffffffffffffffff81111561439657600080fd5b6143a2868287016141aa565b925050604084013590509250925092565b6020808252818101527f4f776e61626c653a2063616c6c6572206973206e6f7420746865206f776e6572604082015260600190565b60208082526010908201527f217a6f72726f436f6e74726f6c6c657200000000000000000000000000000000604082015260600190565b6020808252601f908201527f5265656e7472616e637947756172643a207265656e7472616e742063616c6c00604082015260600190565b60208082526010908201527f5061757361626c653a2070617573656400000000000000000000000000000000604082015260600190565b60006020828403121561449f57600080fd5b5051919050565b60208082526004908201527f21676f7600000000000000000000000000000000000000000000000000000000604082015260600190565b6000602082840312156144ef57600080fd5b815160ff81168114612c3f57600080fd5b805169ffffffffffffffffffff8116811461451a57600080fd5b919050565b600080600080600060a0868803121561453757600080fd5b61454086614500565b945060208601519350604086015192506060860151915061456360808701614500565b90509295509295909350565b7f4e487b7100000000000000000000000000000000000000000000000000000000600052601160045260246000fd5b600181815b808511156145db5781600019048211156145bf576145bf61456f565b808516156145cc57918102915b600290940493908002906145a3565b509250929050565b6000826145f257506001611788565b816145ff57506000611788565b8160018114614615576002811461461f5761463c565b6001915050611788565b60ff8411156146305761463061456f565b8360020a915050611788565b5060208310610133831016604e8410600b841016171561465f575081810a611788565b614669838361459e565b806000190482111561467d5761467d61456f565b029392505050565b6000612c3f60ff8416836145e3565b600082198211156146a7576146a761456f565b500190565b6000828210156146be576146be61456f565b500390565b60008160001904831182151516156146dd576146dd61456f565b500290565b600082614718577f4e487b7100000000000000000000000000000000000000000000000000000000600052601260045260246000fd5b500490565b600081518084526020808501945080840160005b83811015614756578151600160a060020a031687529582019590820190600101614731565b509495945050505050565b600160a060020a0384168152826020820152606060408201528151606082015260208201516080820152604082015160a0820152600060608301516147b160c0840182600160a060020a03169052565b506080830151600160a060020a03811660e08401525060a0830151610100818185015260c08501519150610120828186015260e086015192506101408381870152828701519350806101608701525061480e6101a086018461471d565b950151600160a060020a031661018094909401939093525091949350505050565b6000610100808301600160a060020a03808d16855260208c818701528b60408701528a60608701528960808701528360a0870152829350885180845261012087019450818a01935060005b8181101561489857845184168652948201949382019360010161487a565b50505050600160a060020a03861660c08501525090508260e08301529998505050505050505050565b6000602082840312156148d357600080fd5b8151612c3f81614237565b6000806000606084860312156148f357600080fd5b8351925060208401519150604084015190509250925092565b60005b8381101561492757818101518382015260200161490f565b83811115612fdc5750506000910152565b6000825161494a81846020870161490c565b9190910192915050565b602081526000825180602084015261497381604085016020870161490c565b601f01601f1916919091016040019291505056fea2646970667358221220cb69f886f185294111e9623d858f88512192e7dcb6f13479bab96b5a1adf3e1664736f6c634300080a0033",
  "immutableReferences": {},
  "source": "// SPDX-License-Identifier: MIT\n\npragma solidity ^0.8.0;\n\nimport \"@openzeppelin/contracts/token/ERC20/utils/SafeERC20.sol\";\n\nimport \"../interfaces/IAMMFarm.sol\";\n\nimport \"../interfaces/IAcryptosFarm.sol\";\n\nimport \"../interfaces/IAcryptosVault.sol\";\n\nimport \"@openzeppelin/contracts/token/ERC20/IERC20.sol\";\n\nimport \"@openzeppelin/contracts/utils/math/SafeMath.sol\";\n\nimport \"./_VaultBase.sol\";\n\nimport \"../interfaces/IBalancerVault.sol\";\n\n/// @title Vault contract for Acryptos single token strategies (e.g. for lending)\ncontract VaultAcryptosSingle is VaultBase {\n    /* Libraries */\n    using SafeMath for uint256;\n    using SafeERC20 for IERC20;\n    using SafeSwapBalancer for IBalancerVault;\n    using SafeSwapUni for IAMMRouter02;\n\n    /* Constructor */\n    /// @notice Constructor\n    /// @param _addresses Array of [govAddress, zorroControllerAddress, ZORROAddress, wantAddress, token0Address, earnedAddress, farmContractAddress, rewardsAddress, poolAddress, uniRouterAddress, zorroLPPool, zorroLPPoolOtherToken]\n    /// @param _pid Pool ID this Vault is associated with\n    /// @param _isCOREStaking If true, is for staking just core token of AMM (e.g. CAKE for Pancakeswap, BANANA for Apeswap, etc.). Set to false for Zorro single staking vault\n    /// @param _isZorroComp This vault is for compounding. If true, will trigger farming/unfarming on earn events. Set to false for Zorro single staking vault\n    /// @param _isHomeChain Whether this contract is deployed on the home chain\n    /// @param _swapPaths A flattened array of swap paths for a Uniswap style router. Ordered as: [earnedToZORROPath, earnedToToken0Path, earnedToToken1Path, USDCToToken0Path, USDCToToken1Path, earnedToZORLPPoolOtherTokenPath, earnedToUSDCPath, USDCToZORROPath]\n    /// @param _swapPathStartIndexes An array of start indexes within _swapPaths to represent the start of a new swap path\n    /// @param _fees Array of [_controllerFee, _buyBackRate, _entranceFeeFactor, _withdrawFeeFactor]\n    /// @param _balancerPools Addresses of Balancer pools for performing swaps. Array of [balancerPoolUSDCToWant, balancerPoolUSDCToToken0]\n    constructor(\n        address[] memory _addresses,\n        uint256 _pid,\n        bool _isCOREStaking,\n        bool _isZorroComp,\n        bool _isHomeChain,\n        address[] memory _swapPaths,\n        uint16[] memory _swapPathStartIndexes,\n        uint256[] memory _fees,\n        bytes32[] memory _balancerPools\n    ) {\n        // Addresses\n        govAddress = _addresses[0];\n        zorroControllerAddress = _addresses[1];\n        ZORROAddress = _addresses[2];\n        wantAddress = _addresses[3];\n        token0Address = _addresses[4];\n        earnedAddress = _addresses[5];\n        farmContractAddress = _addresses[6];\n        rewardsAddress = _addresses[7];\n        poolAddress = _addresses[8];\n        uniRouterAddress = _addresses[9];\n        zorroLPPool = _addresses[10];\n        zorroLPPoolOtherToken = _addresses[11];\n\n        // Vault config\n        pid = _pid;\n        isCOREStaking = _isCOREStaking;\n        isSingleAssetDeposit = true;\n        isZorroComp = _isZorroComp;\n        isHomeChain = _isHomeChain;\n\n        // Swap paths\n        _unpackSwapPaths(_swapPaths, _swapPathStartIndexes);\n\n        // Corresponding reverse paths\n        token0ToEarnedPath = _reversePath(earnedToToken0Path);\n        token0ToUSDCPath = _reversePath(USDCToToken0Path);\n\n        // Fees\n        controllerFee = _fees[0];\n        buyBackRate = _fees[1];\n        entranceFeeFactor = _fees[2];\n        withdrawFeeFactor = _fees[3];\n\n        // Balancer pools\n        balancerPoolUSDCToWant = _balancerPools[0];\n        balancerPoolUSDCToToken0 = _balancerPools[1];\n    }\n\n    /* State */\n\n    address public balancerVaultAddress =\n        0xa82f327BBbF0667356D2935C6532d164b06cEced; // Address of Balancer/ACSI.finance Vault for swaps etc.\n    bytes32 public balancerPoolEarnedToTokens =\n        0x894ed9026de37afd9cce1e6c0be7d6b510e3ffe5000100000000000000000001; // The Acryptos ACSI.finance pool ID for swapping Earned token to underlying tokens.\n    bytes32 public balancerLPPool;\n    address public tokenACS = 0x4197C6EF3879a08cD51e5560da5064B773aa1d29;\n    address public tokenACSI = 0x5b17b4d5e4009B5C43e3e3d63A5229F794cBA389;\n    bytes32 public balancerPoolUSDCToWant;\n    bytes32 public balancerPoolUSDCToToken0;\n\n    /* Config */\n\n    function setBalancerVaultAddress(address _balancerVaultAddress)\n        public\n        onlyOwner\n    {\n        balancerVaultAddress = _balancerVaultAddress;\n    }\n\n    function setBalancerPoolEarnedToTokens(bytes32 _balancerPoolEarnedToToken)\n        public\n        onlyOwner\n    {\n        balancerPoolEarnedToTokens = _balancerPoolEarnedToToken;\n    }\n\n    function setBalancerLPPool(bytes32 _balancerLPPool) public onlyOwner {\n        balancerLPPool = _balancerLPPool;\n    }\n\n    function setTokenACS(address _tokenACS) public onlyOwner {\n        tokenACS = _tokenACS;\n    }\n\n    function setTokenACSI(address _tokenACSI) public onlyOwner {\n        tokenACSI = _tokenACSI;\n    }\n\n    function setBalancerPoolUSDCToWant(bytes32 _balancerPoolUSDCToWant)\n        public\n        onlyOwner\n    {\n        balancerPoolUSDCToWant = _balancerPoolUSDCToWant;\n    }\n\n    function setBalancerPoolUSDCToToken0(bytes32 _balancerPoolUSDCToToken0)\n        public\n        onlyOwner\n    {\n        balancerPoolUSDCToToken0 = _balancerPoolUSDCToToken0;\n    }\n\n    /* Investment Actions */\n\n    /// @notice Receives new deposits from user\n    /// @param _account address of user that this deposit is intended for\n    /// @param _wantAmt amount of Want token to deposit/stake\n    /// @return uint256 Number of shares added\n    function depositWantToken(\n        address _account,\n        bytes memory _foreignAccount, // TODO: Docstrings for all funcs that have \"foreignAccount\"\n        uint256 _wantAmt\n    )\n        public\n        virtual\n        override\n        onlyZorroController\n        nonReentrant\n        whenNotPaused\n        returns (uint256)\n    {\n        // Preflight checks\n        require(_wantAmt > 0, \"Want token deposit must be > 0\");\n\n        // Transfer Want token from sender\n        IERC20(wantAddress).safeTransferFrom(\n            msg.sender,\n            address(this),\n            _wantAmt\n        );\n\n        // Set sharesAdded to the Want token amount specified\n        uint256 sharesAdded = _wantAmt;\n        // If the total number of shares and want tokens locked both exceed 0, the shares added is the proportion of Want tokens locked,\n        // discounted by the entrance fee\n        if (wantLockedTotal > 0 && sharesTotal > 0) {\n            sharesAdded = _wantAmt\n                .mul(sharesTotal)\n                .mul(entranceFeeFactor)\n                .div(wantLockedTotal)\n                .div(entranceFeeFactorMax);\n        }\n        // Increment the shares\n        sharesTotal = sharesTotal.add(sharesAdded);\n        userShares[_account] = userShares[_account].add(sharesAdded);\n\n        if (isZorroComp) {\n            // If this contract is meant for Autocompounding, start to farm the staked token\n            _farm();\n        } else {\n            // Otherwise, simply increment the quantity of total Want tokens locked\n            wantLockedTotal = wantLockedTotal.add(_wantAmt);\n        }\n\n        return sharesAdded;\n    }\n\n    /// @notice Performs necessary operations to convert USDC into Want token\n    /// @param _amountUSDC The USDC quantity to exchange (must already be deposited)\n    /// @param _maxMarketMovementAllowed The max slippage allowed. 1000 = 0 %, 995 = 0.5%, etc.\n    /// @return uint256 Amount of Want token obtained\n    function exchangeUSDForWantToken(\n        uint256 _amountUSDC,\n        uint256 _maxMarketMovementAllowed\n    ) public override onlyZorroController whenNotPaused returns (uint256) {\n        // Get balance of deposited USDC\n        uint256 _balUSDC = IERC20(tokenUSDCAddress).balanceOf(address(this));\n        // Check that USDC was actually deposited\n        require(_amountUSDC > 0, \"USDC deposit must be > 0\");\n        require(_amountUSDC <= _balUSDC, \"USDC desired exceeded bal\");\n\n        // Use price feed to determine exchange rates\n        uint256 _token0ExchangeRate = getExchangeRate(token0PriceFeed);\n\n        // Swap USDC for tokens\n\n        // Single asset. Swap from USDC directly to Token0\n        _safeSwap(\n            SafeSwapParams({\n                amountIn: _amountUSDC,\n                priceToken0: 1e12,\n                priceToken1: _token0ExchangeRate,\n                token0: tokenUSDCAddress,\n                token1: token0Address,\n                token0Weight: 0,\n                token1Weight: 0,\n                maxMarketMovementAllowed: _maxMarketMovementAllowed,\n                path: USDCToToken0Path,\n                destination: address(this)\n            })\n        );\n\n        // Get new Token0 balance\n        uint256 _token0Bal = IERC20(token0Address).balanceOf(address(this));\n\n        // Deposit token to get Want token\n        IAcryptosVault(poolAddress).deposit(_token0Bal);\n\n        // Calculate resulting want token balance\n        uint256 _wantAmt = IERC20(wantAddress).balanceOf(address(this));\n\n        // Transfer back to sender\n        IERC20(wantAddress).safeTransfer(zorroControllerAddress, _wantAmt);\n\n        return _wantAmt;\n    }\n\n    /// @notice Safely swaps tokens using the most suitable protocol based on token\n    /// @param _swapParams SafeSwapParams for swap\n    function _safeSwap(SafeSwapParams memory _swapParams) internal {\n        if (_swapParams.token0 == tokenACS || _swapParams.token1 == tokenACSI) {\n            // If it's for the Acryptos tokens, swap on ACS Finance (Balancer clone) (Better liquidity for these tokens only)\n            IBalancerVault(balancerVaultAddress).safeSwap(\n                balancerPoolUSDCToWant,\n                _swapParams\n            );\n        } else {\n            // Otherwise, swap on normal Pancakeswap (or Uniswap clone) for simplicity & liquidity\n            IAMMRouter02(uniRouterAddress).safeSwap(\n                _swapParams.amountIn,\n                _swapParams.priceToken0,\n                _swapParams.priceToken1,\n                _swapParams.maxMarketMovementAllowed,\n                _swapParams.path,\n                _swapParams.destination,\n                block.timestamp.add(600)\n            );\n        }\n    }\n\n    /// @notice Public function for farming Want token.\n    function farm() public virtual nonReentrant {\n        _farm();\n    }\n\n    /// @notice Internal function for farming Want token. Responsible for staking Want token in a MasterChef/MasterApe-like contract\n    function _farm() internal virtual {\n        // Farming should only occur if this contract is set for autocompounding\n        require(isZorroComp, \"!isZorroComp\");\n\n        // Get the Want token stored on this contract\n        uint256 wantAmt = IERC20(wantAddress).balanceOf(address(this));\n        // Increment the total Want tokens locked into this contract\n        wantLockedTotal = wantLockedTotal.add(wantAmt);\n        // Allow the farm contract (e.g. MasterChef) the ability to transfer up to the Want amount\n        IERC20(wantAddress).safeIncreaseAllowance(farmContractAddress, wantAmt);\n\n        // Deposit the Want tokens in the Farm contract\n        IAcryptosFarm(farmContractAddress).deposit(wantAddress, wantAmt);\n    }\n\n    /// @notice Internal function for unfarming Want token. Responsible for unstaking Want token from MasterChef/MasterApe contracts\n    /// @param _wantAmt the amount of Want tokens to withdraw. If 0, will only harvest and not withdraw\n    function _unfarm(uint256 _wantAmt) internal virtual {\n        // Withdraw the Want tokens from the Farm contract\n        IAcryptosFarm(farmContractAddress).withdraw(wantAddress, _wantAmt);\n    }\n\n    /// @notice Fully withdraw Want tokens from the Farm contract (100% withdrawals only)\n    /// @param _account The address of the owner of vault investment\n    /// @param _harvestOnly If true, will only harvest Zorro tokens but not do a withdrawal\n    /// @return uint256 The number of shares removed\n    function withdrawWantToken(\n        address _account,\n        bytes memory _foreignAccount,\n        bool _harvestOnly\n    )\n        public\n        virtual\n        override\n        onlyZorroController\n        nonReentrant\n        whenNotPaused\n        returns (uint256)\n    {\n        uint256 _wantAmt = 0;\n        if (!_harvestOnly) {\n            uint256 _userNumShares = userShares[_account];\n            _wantAmt = IERC20(wantAddress)\n                .balanceOf(address(this))\n                .mul(_userNumShares)\n                .div(sharesTotal);\n        }\n\n        // Shares removed is proportional to the % of total Want tokens locked that _wantAmt represents\n        uint256 sharesRemoved = _wantAmt.mul(sharesTotal).div(wantLockedTotal);\n        // Safety: cap the shares to the total number of shares\n        if (sharesRemoved > sharesTotal) {\n            sharesRemoved = sharesTotal;\n        }\n        // Decrement the total shares by the sharesRemoved\n        sharesTotal = sharesTotal.sub(sharesRemoved);\n        userShares[_account] = userShares[_account].sub(sharesRemoved);\n\n        // If a withdrawal fee is specified, discount the _wantAmt by the withdrawal fee\n        if (withdrawFeeFactor < withdrawFeeFactorMax) {\n            _wantAmt = _wantAmt.mul(withdrawFeeFactor).div(\n                withdrawFeeFactorMax\n            );\n        }\n\n        // If this contract is designated for auto compounding, unfarm the Want tokens\n        if (isZorroComp) {\n            _unfarm(_wantAmt);\n        }\n\n        // Safety: Check balance of this contract's Want tokens held, and cap _wantAmt to that value\n        uint256 wantAmt = IERC20(wantAddress).balanceOf(address(this));\n        if (_wantAmt > wantAmt) {\n            _wantAmt = wantAmt;\n        }\n        // Safety: cap _wantAmt at the total quantity of Want tokens locked\n        if (wantLockedTotal < _wantAmt) {\n            _wantAmt = wantLockedTotal;\n        }\n\n        // Decrement the total Want locked tokens by the _wantAmt\n        wantLockedTotal = wantLockedTotal.sub(_wantAmt);\n\n        // Finally, transfer the want amount from this contract, back to the ZorroController contract\n        IERC20(wantAddress).safeTransfer(zorroControllerAddress, _wantAmt);\n\n        return sharesRemoved;\n    }\n\n    /// @notice Converts Want token back into USD to be ready for withdrawal and transfers to sender\n    /// @param _amount The Want token quantity to exchange (must be deposited beforehand)\n    /// @param _maxMarketMovementAllowed The max slippage allowed for swaps. 1000 = 0 %, 995 = 0.5%, etc.\n    /// @return uint256 Amount of USDC token obtained\n    function exchangeWantTokenForUSD(\n        uint256 _amount,\n        uint256 _maxMarketMovementAllowed\n    )\n        public\n        virtual\n        override\n        onlyZorroController\n        whenNotPaused\n        returns (uint256)\n    {\n        // Preflight checks\n        require(_amount > 0, \"Want amt must be > 0\");\n\n        // Safely transfer Want token from sender\n        IERC20(wantAddress).safeTransferFrom(\n            msg.sender,\n            address(this),\n            _amount\n        );\n\n        // Withdraw Want token to get Token0\n        IAcryptosFarm(farmContractAddress).withdraw(wantAddress, _amount);\n\n        // Use price feed to determine exchange rates\n        uint256 _token0ExchangeRate = getExchangeRate(token0PriceFeed);\n\n        // Swap Token0 for USDC\n        // Get Token0 balance\n        uint256 _token0Bal = IERC20(token0Address).balanceOf(address(this));\n        // Swap Token0 -> USDC\n        _safeSwap(SafeSwapParams({\n            amountIn: _token0Bal,\n            priceToken0: _token0ExchangeRate,\n            priceToken1: 1e12,\n            token0: token0Address,\n            token1: tokenUSDCAddress,\n            token0Weight: 0,\n            token1Weight: 0,\n            maxMarketMovementAllowed: _maxMarketMovementAllowed,\n            path: token0ToUSDCPath,\n            destination: msg.sender\n        }));\n\n        // Calculate USDC balance\n        return IERC20(tokenUSDCAddress).balanceOf(address(this));\n    }\n\n    /// @notice The main compounding (earn) function. Reinvests profits since the last earn event.\n    /// @param _maxMarketMovementAllowed The max slippage allowed. 1000 = 0 %, 995 = 0.5%, etc.\n    function earn(uint256 _maxMarketMovementAllowed)\n        public\n        virtual\n        override\n        nonReentrant\n        whenNotPaused\n    {\n        // Only to be run if this contract is configured for auto-comnpounding\n        require(isZorroComp, \"!isZorroComp\");\n        // If onlyGov is set to true, only allow to proceed if the current caller is the govAddress\n        if (onlyGov) {\n            require(msg.sender == govAddress, \"!gov\");\n        }\n\n        // Harvest farm tokens\n        _unfarm(0);\n\n        // Get the balance of the Earned token on this contract (ACS, etc.)\n        uint256 earnedAmt = IERC20(earnedAddress).balanceOf(address(this));\n\n        // Get exchange rate from price feed\n        uint256 _earnTokenExchangeRate = getExchangeRate(earnTokenPriceFeed);\n        uint256 _token0ExchangeRate = getExchangeRate(token0PriceFeed);\n        uint256 _ZORExchangeRate = getExchangeRate(ZORPriceFeed);\n        uint256 _lpPoolOtherTokenExchangeRate = getExchangeRate(ZORPriceFeed);\n        // Create rates struct\n        ExchangeRates memory _rates = ExchangeRates({\n            earn: _earnTokenExchangeRate,\n            ZOR: _ZORExchangeRate,\n            lpPoolOtherToken: _lpPoolOtherTokenExchangeRate\n        });\n\n        // Reassign value of earned amount after distributing fees\n        earnedAmt = _distributeFees(earnedAmt);\n        // Reassign value of earned amount after buying back a certain amount of Zorro, sharing revenue\n        earnedAmt = _buyBackAndRevShare(\n            earnedAmt,\n            _maxMarketMovementAllowed,\n            _rates\n        );\n\n        // Swap Earn token for single asset token\n        _safeSwap(SafeSwapParams({\n            amountIn: earnedAmt,\n            priceToken0: _earnTokenExchangeRate,\n            priceToken1: _token0ExchangeRate,\n            token0: earnedAddress,\n            token1: token0Address,\n            token0Weight: 0,\n            token1Weight: 0,\n            maxMarketMovementAllowed: _maxMarketMovementAllowed,\n            path: earnedToToken0Path,\n            destination: address(this)\n        }));\n\n        // Redeposit single asset token to get Want token\n        // Get new Token0 balance\n        uint256 _token0Bal = IERC20(token0Address).balanceOf(address(this));\n        // Deposit token to get Want token\n        IAcryptosVault(poolAddress).deposit(_token0Bal);\n\n        // This vault is only for single asset deposits, so farm that token and exit\n        // Update the last earn block\n        lastEarnBlock = block.number;\n        // Farm LP token\n        _farm();\n    }\n\n    /// @notice Buys back the earned token on-chain, swaps it to add liquidity to the ZOR pool, then burns the associated LP token\n    /// @dev Requires funds to be sent to this address before calling. Can be called internally OR by controller\n    /// @param _amount The amount of Earn token to buy back\n    /// @param _maxMarketMovementAllowed The max slippage allowed. 1000 = 0 %, 995 = 0.5%, etc.\n    /// @param _rates ExchangeRates struct with realtime rates information for swaps\n    function _buybackOnChain(\n        uint256 _amount,\n        uint256 _maxMarketMovementAllowed,\n        ExchangeRates memory _rates\n    ) internal override {\n        // Authorize spending beforehand\n        IERC20(earnedAddress).safeIncreaseAllowance(uniRouterAddress, _amount);\n\n        // Swap Earn to USDC\n        // First check if Earn is ACS(I). (Low liquidity for ACS(I) on Uni/PCS requires two steps)\n        if (earnedAddress == tokenACS || earnedAddress == tokenACSI) {\n            // Swap first from Earn to USDC on Balancer, then USDC to LPPool tokens\n\n            // Earn -> USDC on Balancer\n            _safeSwap(SafeSwapParams({\n                amountIn: _amount,\n                priceToken0: _rates.earn,\n                priceToken1: 1e12,\n                token0: earnedAddress,\n                token1: tokenUSDCAddress,\n                token0Weight: 0,\n                token1Weight: 0,\n                maxMarketMovementAllowed: _maxMarketMovementAllowed,\n                path: earnedToUSDCPath,\n                destination: address(this)\n            }));\n\n            // Get USDC bal\n            uint256 _balUSDC = IERC20(tokenUSDCAddress).balanceOf(\n                address(this)\n            );\n\n            // USDC -> LP Pool ZOR token\n            _safeSwap(SafeSwapParams({\n                amountIn: _balUSDC.div(2),\n                priceToken0: 1e12,\n                priceToken1: _rates.ZOR,\n                token0: tokenUSDCAddress,\n                token1: ZORROAddress,\n                token0Weight: 0,\n                token1Weight: 0,\n                maxMarketMovementAllowed: _maxMarketMovementAllowed,\n                path: USDCToZORROPath,\n                destination: address(this)\n            }));\n\n            // USDC -> LP Pool Other token\n            _safeSwap(SafeSwapParams({\n                amountIn: _balUSDC.div(2),\n                priceToken0: 1e12,\n                priceToken1: _rates.lpPoolOtherToken,\n                token0: tokenUSDCAddress,\n                token1: zorroLPPoolOtherToken,\n                token0Weight: 0,\n                token1Weight: 0,\n                maxMarketMovementAllowed: _maxMarketMovementAllowed,\n                path: USDCToZORLPPoolOtherTokenPath,\n                destination: address(this)\n            }));\n        } else {\n            // Swap directly to LPPool Tokens (ZOR + other token)\n\n            // Swap Earn to ZOR Token of LP pool\n            _safeSwap(SafeSwapParams({\n                amountIn: _amount.div(2),\n                priceToken0: _rates.earn,\n                priceToken1: _rates.ZOR,\n                token0: earnedAddress,\n                token1: ZORROAddress,\n                token0Weight: 0,\n                token1Weight: 0,\n                maxMarketMovementAllowed: _maxMarketMovementAllowed,\n                path: earnedToZORROPath,\n                destination: address(this)\n            }));\n            // Swap Earn to other token of LP pool\n            _safeSwap(SafeSwapParams({\n                amountIn: _amount.div(2),\n                priceToken0: _rates.earn,\n                priceToken1: _rates.lpPoolOtherToken,\n                token0: earnedAddress,\n                token1: zorroLPPoolOtherToken,\n                token0Weight: 0,\n                token1Weight: 0,\n                maxMarketMovementAllowed: _maxMarketMovementAllowed,\n                path: earnedToZORLPPoolOtherTokenPath,\n                destination: address(this)\n            }));\n        }\n\n        // Enter LP pool and send received token to the burn address\n        uint256 zorroTokenAmt = IERC20(ZORROAddress).balanceOf(address(this));\n        uint256 otherTokenAmt = IERC20(zorroLPPoolOtherToken).balanceOf(\n            address(this)\n        );\n        IERC20(ZORROAddress).safeIncreaseAllowance(\n            uniRouterAddress,\n            zorroTokenAmt\n        );\n        IERC20(zorroLPPoolOtherToken).safeIncreaseAllowance(\n            uniRouterAddress,\n            otherTokenAmt\n        );\n        IAMMRouter02(uniRouterAddress).addLiquidity(\n            ZORROAddress,\n            zorroLPPoolOtherToken,\n            zorroTokenAmt,\n            otherTokenAmt,\n            zorroTokenAmt.mul(_maxMarketMovementAllowed).div(1000),\n            otherTokenAmt.mul(_maxMarketMovementAllowed).div(1000),\n            burnAddress,\n            block.timestamp.add(600)\n        );\n    }\n\n    /// @notice Sends the specified earnings amount as revenue share to ZOR stakers\n    /// @param _amount The amount of Earn token to share as revenue with ZOR stakers\n    /// @param _maxMarketMovementAllowed Max slippage. 950 = 5%, 990 = 1%, etc.\n    /// @param _rates ExchangeRates struct with realtime rates information for swaps\n    function _revShareOnChain(\n        uint256 _amount,\n        uint256 _maxMarketMovementAllowed,\n        ExchangeRates memory _rates\n    ) internal override {\n        // Authorize spending beforehand\n        IERC20(earnedAddress).safeIncreaseAllowance(uniRouterAddress, _amount);\n\n        // Swap Earn to USDC\n        // First check if Earn is ACS(I).\n        if (earnedAddress == tokenACS || earnedAddress == tokenACSI) {\n            // Require two step swap (Balancer + Uni)\n            // 1. Balancer: Earn -> USDC\n            _safeSwap(SafeSwapParams({\n                amountIn: _amount,\n                priceToken0: _rates.earn,\n                priceToken1: 1e12,\n                token0: earnedAddress,\n                token1: tokenUSDCAddress,\n                token0Weight: 0,\n                token1Weight: 0,\n                maxMarketMovementAllowed: _maxMarketMovementAllowed,\n                path: earnedToUSDCPath,\n                destination: address(this)\n            }));\n            // 2. Uni: USDC -> ZOR\n            uint256 _balUSDC = IERC20(tokenUSDCAddress).balanceOf(\n                address(this)\n            );\n            _safeSwap(SafeSwapParams({\n                amountIn: _balUSDC,\n                priceToken0: 1e12,\n                priceToken1: _rates.ZOR,\n                token0: tokenUSDCAddress,\n                token1: ZORROAddress,\n                token0Weight: 0,\n                token1Weight: 0,\n                maxMarketMovementAllowed: _maxMarketMovementAllowed,\n                path: USDCToZORROPath,\n                destination: zorroStakingVault\n            }));\n        } else {\n            // Direct swap (Uni)\n            _safeSwap(SafeSwapParams({\n                amountIn: _amount,\n                priceToken0: _rates.earn,\n                priceToken1: _rates.ZOR,\n                token0: earnedAddress,\n                token1: ZORROAddress,\n                token0Weight: 0,\n                token1Weight: 0,\n                maxMarketMovementAllowed: _maxMarketMovementAllowed,\n                path: earnedToZORROPath,\n                destination: zorroStakingVault\n            }));\n        }\n    }\n\n    /// @notice Swaps Earn token to USDC and sends to destination specified\n    /// @param _earnedAmount Quantity of Earned tokens\n    /// @param _destination Address to send swapped USDC to\n    /// @param _maxMarketMovementAllowed Slippage factor. 950 = 5%, 990 = 1%, etc.\n    /// @param _rates ExchangeRates struct with realtime rates information for swaps\n    function _swapEarnedToUSDC(\n        uint256 _earnedAmount,\n        address _destination,\n        uint256 _maxMarketMovementAllowed,\n        ExchangeRates memory _rates\n    ) internal override {\n        // Swap earned to USDC\n        _safeSwap(SafeSwapParams({\n            amountIn: _earnedAmount,\n            priceToken0: _rates.earn,\n            priceToken1: 1e12,\n            token0: earnedAddress,\n            token1: tokenUSDCAddress,\n            token0Weight: 0,\n            token1Weight: 0,\n            maxMarketMovementAllowed: _maxMarketMovementAllowed,\n            path: earnedToUSDCPath,\n            destination: _destination\n        }));\n    }\n}\n\n// TODO: All the SafeSwap structs have tokenWeight of zero. Let's make this \n// more realistic where relevant. \n",
  "sourcePath": "/Users/kristophm/Documents/workspace/zorro-protocol/contracts/vaults/VaultAcryptosSingle.sol",
  "compiler": {
    "name": "solc",
    "version": "0.8.10+commit.fc410830.Emscripten.clang"
  },
  "schemaVersion": "3.4.4",
  "updatedAt": "2022-04-02T21:35:37.102Z",
  "devdoc": {
    "kind": "dev",
    "methods": {
      "constructor": {
        "params": {
          "_addresses": "Array of [govAddress, zorroControllerAddress, ZORROAddress, wantAddress, token0Address, earnedAddress, farmContractAddress, rewardsAddress, poolAddress, uniRouterAddress, zorroLPPool, zorroLPPoolOtherToken]",
          "_balancerPools": "Addresses of Balancer pools for performing swaps. Array of [balancerPoolUSDCToWant, balancerPoolUSDCToToken0]",
          "_fees": "Array of [_controllerFee, _buyBackRate, _entranceFeeFactor, _withdrawFeeFactor]",
          "_isCOREStaking": "If true, is for staking just core token of AMM (e.g. CAKE for Pancakeswap, BANANA for Apeswap, etc.). Set to false for Zorro single staking vault",
          "_isHomeChain": "Whether this contract is deployed on the home chain",
          "_isZorroComp": "This vault is for compounding. If true, will trigger farming/unfarming on earn events. Set to false for Zorro single staking vault",
          "_pid": "Pool ID this Vault is associated with",
          "_swapPathStartIndexes": "An array of start indexes within _swapPaths to represent the start of a new swap path",
          "_swapPaths": "A flattened array of swap paths for a Uniswap style router. Ordered as: [earnedToZORROPath, earnedToToken0Path, earnedToToken1Path, USDCToToken0Path, USDCToToken1Path, earnedToZORLPPoolOtherTokenPath, earnedToUSDCPath, USDCToZORROPath]"
        }
      },
      "depositWantToken(address,bytes,uint256)": {
        "params": {
          "_account": "address of user that this deposit is intended for",
          "_wantAmt": "amount of Want token to deposit/stake"
        },
        "returns": {
          "_0": "uint256 Number of shares added"
        }
      },
      "earn(uint256)": {
        "params": {
          "_maxMarketMovementAllowed": "The max slippage allowed. 1000 = 0 %, 995 = 0.5%, etc."
        }
      },
      "exchangeUSDForWantToken(uint256,uint256)": {
        "params": {
          "_amountUSDC": "The USDC quantity to exchange (must already be deposited)",
          "_maxMarketMovementAllowed": "The max slippage allowed. 1000 = 0 %, 995 = 0.5%, etc."
        },
        "returns": {
          "_0": "uint256 Amount of Want token obtained"
        }
      },
      "exchangeWantTokenForUSD(uint256,uint256)": {
        "params": {
          "_amount": "The Want token quantity to exchange (must be deposited beforehand)",
          "_maxMarketMovementAllowed": "The max slippage allowed for swaps. 1000 = 0 %, 995 = 0.5%, etc."
        },
        "returns": {
          "_0": "uint256 Amount of USDC token obtained"
        }
      },
      "getExchangeRate(address)": {
        "details": "Assumes price feed is in USD. If not, either multiply obtained exchange rate with another, or override this func.",
        "params": {
          "_priceFeed": "The Chainlink price feed"
        },
        "returns": {
          "_0": "uint256 Exchange rate vs USD, multiplied by 1e12"
        }
      },
      "inCaseTokensGetStuck(address,uint256,address)": {
        "params": {
          "_amount": "The amount of the tokens to transfer",
          "_to": "The address to transfer tokens to",
          "_token": "Address of the ERC20 token to transfer"
        }
      },
      "owner()": {
        "details": "Returns the address of the current owner."
      },
      "paused()": {
        "details": "Returns true if the contract is paused, and false otherwise."
      },
      "renounceOwnership()": {
        "details": "Leaves the contract without owner. It will not be possible to call `onlyOwner` functions anymore. Can only be called by the current owner. NOTE: Renouncing ownership will leave the contract without an owner, thereby removing any functionality that is only available to the owner."
      },
      "setFeeSettings(uint256,uint256,uint256,uint256,uint256)": {
        "params": {
          "_buyBackRate": "Buy back rate fee numerator",
          "_controllerFee": "Controller fee numerator",
          "_entranceFeeFactor": "Entrance fee numerator (higher means smaller percentage)",
          "_slippageFactor": "Slippage factor fee numerator",
          "_withdrawFeeFactor": "Withdrawal fee numerator (higher means smaller percentage)"
        }
      },
      "setGov(address)": {
        "params": {
          "_govAddress": "The new gov address"
        }
      },
      "setOnlyGov(bool)": {
        "params": {
          "_onlyGov": "whether onlyGov should be enforced"
        }
      },
      "transferOwnership(address)": {
        "details": "Transfers ownership of the contract to a new account (`newOwner`). Can only be called by the current owner."
      },
      "withdrawWantToken(address,bytes,bool)": {
        "params": {
          "_account": "The address of the owner of vault investment",
          "_harvestOnly": "If true, will only harvest Zorro tokens but not do a withdrawal"
        },
        "returns": {
          "_0": "uint256 The number of shares removed"
        }
      }
    },
    "title": "Vault contract for Acryptos single token strategies (e.g. for lending)",
    "version": 1
  },
  "userdoc": {
    "kind": "user",
    "methods": {
      "constructor": {
        "notice": "Constructor"
      },
      "depositWantToken(address,bytes,uint256)": {
        "notice": "Receives new deposits from user"
      },
      "earn(uint256)": {
        "notice": "The main compounding (earn) function. Reinvests profits since the last earn event."
      },
      "exchangeUSDForWantToken(uint256,uint256)": {
        "notice": "Performs necessary operations to convert USDC into Want token"
      },
      "exchangeWantTokenForUSD(uint256,uint256)": {
        "notice": "Converts Want token back into USD to be ready for withdrawal and transfers to sender"
      },
      "farm()": {
        "notice": "Public function for farming Want token."
      },
      "getExchangeRate(address)": {
        "notice": "Calculates exchange rate vs USD for a given priceFeed"
      },
      "inCaseTokensGetStuck(address,uint256,address)": {
        "notice": "Safely transfer ERC20 tokens stuck in this contract to a specified address"
      },
      "pause()": {
        "notice": "Pause contract"
      },
      "setFeeSettings(uint256,uint256,uint256,uint256,uint256)": {
        "notice": "Configure key fee parameters"
      },
      "setGov(address)": {
        "notice": "Set governor address"
      },
      "setOnlyGov(bool)": {
        "notice": "Set onlyGov property"
      },
      "unpause()": {
        "notice": "Unpause contract"
      },
      "withdrawWantToken(address,bytes,bool)": {
        "notice": "Fully withdraw Want tokens from the Farm contract (100% withdrawals only)"
      }
    },
    "version": 1
  }
}