{
  "contractName": "VaultStandardAMM",
  "abi": [
    {
      "inputs": [
        {
          "internalType": "address[]",
          "name": "_addresses",
          "type": "address[]"
        },
        {
          "internalType": "uint256",
          "name": "_pid",
          "type": "uint256"
        },
        {
          "internalType": "bool",
          "name": "_isCOREStaking",
          "type": "bool"
        },
        {
          "internalType": "bool",
          "name": "_isSingleAssetDeposit",
          "type": "bool"
        },
        {
          "internalType": "bool",
          "name": "_isZorroComp",
          "type": "bool"
        },
        {
          "internalType": "bool",
          "name": "_isHomeChain",
          "type": "bool"
        },
        {
          "internalType": "address[]",
          "name": "_swapPaths",
          "type": "address[]"
        },
        {
          "internalType": "uint16[]",
          "name": "_swapPathStartIndexes",
          "type": "uint16[]"
        },
        {
          "internalType": "uint256[]",
          "name": "_fees",
          "type": "uint256[]"
        }
      ],
      "stateMutability": "nonpayable",
      "type": "constructor"
    },
    {
      "anonymous": false,
      "inputs": [
        {
          "indexed": true,
          "internalType": "address",
          "name": "previousOwner",
          "type": "address"
        },
        {
          "indexed": true,
          "internalType": "address",
          "name": "newOwner",
          "type": "address"
        }
      ],
      "name": "OwnershipTransferred",
      "type": "event"
    },
    {
      "anonymous": false,
      "inputs": [
        {
          "indexed": false,
          "internalType": "address",
          "name": "account",
          "type": "address"
        }
      ],
      "name": "Paused",
      "type": "event"
    },
    {
      "anonymous": false,
      "inputs": [
        {
          "indexed": false,
          "internalType": "address",
          "name": "_govAddress",
          "type": "address"
        }
      ],
      "name": "SetGov",
      "type": "event"
    },
    {
      "anonymous": false,
      "inputs": [
        {
          "indexed": false,
          "internalType": "bool",
          "name": "_onlyGov",
          "type": "bool"
        }
      ],
      "name": "SetOnlyGov",
      "type": "event"
    },
    {
      "anonymous": false,
      "inputs": [
        {
          "indexed": false,
          "internalType": "address",
          "name": "_rewardsAddress",
          "type": "address"
        }
      ],
      "name": "SetRewardsAddress",
      "type": "event"
    },
    {
      "anonymous": false,
      "inputs": [
        {
          "indexed": false,
          "internalType": "uint256",
          "name": "_entranceFeeFactor",
          "type": "uint256"
        },
        {
          "indexed": false,
          "internalType": "uint256",
          "name": "_withdrawFeeFactor",
          "type": "uint256"
        },
        {
          "indexed": false,
          "internalType": "uint256",
          "name": "_controllerFee",
          "type": "uint256"
        },
        {
          "indexed": false,
          "internalType": "uint256",
          "name": "_buyBackRate",
          "type": "uint256"
        },
        {
          "indexed": false,
          "internalType": "uint256",
          "name": "_slippageFactor",
          "type": "uint256"
        }
      ],
      "name": "SetSettings",
      "type": "event"
    },
    {
      "anonymous": false,
      "inputs": [
        {
          "indexed": false,
          "internalType": "address",
          "name": "_uniRouterAddress",
          "type": "address"
        }
      ],
      "name": "SetUniRouterAddress",
      "type": "event"
    },
    {
      "anonymous": false,
      "inputs": [
        {
          "indexed": false,
          "internalType": "address",
          "name": "account",
          "type": "address"
        }
      ],
      "name": "Unpaused",
      "type": "event"
    },
    {
      "inputs": [
        {
          "internalType": "uint256",
          "name": "",
          "type": "uint256"
        }
      ],
      "name": "USDCToToken0Path",
      "outputs": [
        {
          "internalType": "address",
          "name": "",
          "type": "address"
        }
      ],
      "stateMutability": "view",
      "type": "function"
    },
    {
      "inputs": [
        {
          "internalType": "uint256",
          "name": "",
          "type": "uint256"
        }
      ],
      "name": "USDCToToken1Path",
      "outputs": [
        {
          "internalType": "address",
          "name": "",
          "type": "address"
        }
      ],
      "stateMutability": "view",
      "type": "function"
    },
    {
      "inputs": [
        {
          "internalType": "uint256",
          "name": "",
          "type": "uint256"
        }
      ],
      "name": "USDCToWantPath",
      "outputs": [
        {
          "internalType": "address",
          "name": "",
          "type": "address"
        }
      ],
      "stateMutability": "view",
      "type": "function"
    },
    {
      "inputs": [
        {
          "internalType": "uint256",
          "name": "",
          "type": "uint256"
        }
      ],
      "name": "USDCToZORROPath",
      "outputs": [
        {
          "internalType": "address",
          "name": "",
          "type": "address"
        }
      ],
      "stateMutability": "view",
      "type": "function"
    },
    {
      "inputs": [
        {
          "internalType": "uint256",
          "name": "",
          "type": "uint256"
        }
      ],
      "name": "WantToUSDCPath",
      "outputs": [
        {
          "internalType": "address",
          "name": "",
          "type": "address"
        }
      ],
      "stateMutability": "view",
      "type": "function"
    },
    {
      "inputs": [],
      "name": "ZORROAddress",
      "outputs": [
        {
          "internalType": "address",
          "name": "",
          "type": "address"
        }
      ],
      "stateMutability": "view",
      "type": "function"
    },
    {
      "inputs": [],
      "name": "burnAddress",
      "outputs": [
        {
          "internalType": "address",
          "name": "",
          "type": "address"
        }
      ],
      "stateMutability": "view",
      "type": "function"
    },
    {
      "inputs": [],
      "name": "buyBackRate",
      "outputs": [
        {
          "internalType": "uint256",
          "name": "",
          "type": "uint256"
        }
      ],
      "stateMutability": "view",
      "type": "function"
    },
    {
      "inputs": [],
      "name": "buyBackRateMax",
      "outputs": [
        {
          "internalType": "uint256",
          "name": "",
          "type": "uint256"
        }
      ],
      "stateMutability": "view",
      "type": "function"
    },
    {
      "inputs": [],
      "name": "buyBackRateUL",
      "outputs": [
        {
          "internalType": "uint256",
          "name": "",
          "type": "uint256"
        }
      ],
      "stateMutability": "view",
      "type": "function"
    },
    {
      "inputs": [],
      "name": "controllerFee",
      "outputs": [
        {
          "internalType": "uint256",
          "name": "",
          "type": "uint256"
        }
      ],
      "stateMutability": "view",
      "type": "function"
    },
    {
      "inputs": [],
      "name": "controllerFeeMax",
      "outputs": [
        {
          "internalType": "uint256",
          "name": "",
          "type": "uint256"
        }
      ],
      "stateMutability": "view",
      "type": "function"
    },
    {
      "inputs": [],
      "name": "controllerFeeUL",
      "outputs": [
        {
          "internalType": "uint256",
          "name": "",
          "type": "uint256"
        }
      ],
      "stateMutability": "view",
      "type": "function"
    },
    {
      "inputs": [],
      "name": "earnedAddress",
      "outputs": [
        {
          "internalType": "address",
          "name": "",
          "type": "address"
        }
      ],
      "stateMutability": "view",
      "type": "function"
    },
    {
      "inputs": [
        {
          "internalType": "uint256",
          "name": "",
          "type": "uint256"
        }
      ],
      "name": "earnedToToken0Path",
      "outputs": [
        {
          "internalType": "address",
          "name": "",
          "type": "address"
        }
      ],
      "stateMutability": "view",
      "type": "function"
    },
    {
      "inputs": [
        {
          "internalType": "uint256",
          "name": "",
          "type": "uint256"
        }
      ],
      "name": "earnedToToken1Path",
      "outputs": [
        {
          "internalType": "address",
          "name": "",
          "type": "address"
        }
      ],
      "stateMutability": "view",
      "type": "function"
    },
    {
      "inputs": [
        {
          "internalType": "uint256",
          "name": "",
          "type": "uint256"
        }
      ],
      "name": "earnedToUSDCPath",
      "outputs": [
        {
          "internalType": "address",
          "name": "",
          "type": "address"
        }
      ],
      "stateMutability": "view",
      "type": "function"
    },
    {
      "inputs": [
        {
          "internalType": "uint256",
          "name": "",
          "type": "uint256"
        }
      ],
      "name": "earnedToZORLPPoolToken0Path",
      "outputs": [
        {
          "internalType": "address",
          "name": "",
          "type": "address"
        }
      ],
      "stateMutability": "view",
      "type": "function"
    },
    {
      "inputs": [
        {
          "internalType": "uint256",
          "name": "",
          "type": "uint256"
        }
      ],
      "name": "earnedToZORLPPoolToken1Path",
      "outputs": [
        {
          "internalType": "address",
          "name": "",
          "type": "address"
        }
      ],
      "stateMutability": "view",
      "type": "function"
    },
    {
      "inputs": [
        {
          "internalType": "uint256",
          "name": "",
          "type": "uint256"
        }
      ],
      "name": "earnedToZORROPath",
      "outputs": [
        {
          "internalType": "address",
          "name": "",
          "type": "address"
        }
      ],
      "stateMutability": "view",
      "type": "function"
    },
    {
      "inputs": [],
      "name": "entranceFeeFactor",
      "outputs": [
        {
          "internalType": "uint256",
          "name": "",
          "type": "uint256"
        }
      ],
      "stateMutability": "view",
      "type": "function"
    },
    {
      "inputs": [],
      "name": "entranceFeeFactorLL",
      "outputs": [
        {
          "internalType": "uint256",
          "name": "",
          "type": "uint256"
        }
      ],
      "stateMutability": "view",
      "type": "function"
    },
    {
      "inputs": [],
      "name": "entranceFeeFactorMax",
      "outputs": [
        {
          "internalType": "uint256",
          "name": "",
          "type": "uint256"
        }
      ],
      "stateMutability": "view",
      "type": "function"
    },
    {
      "inputs": [],
      "name": "farmContractAddress",
      "outputs": [
        {
          "internalType": "address",
          "name": "",
          "type": "address"
        }
      ],
      "stateMutability": "view",
      "type": "function"
    },
    {
      "inputs": [],
      "name": "govAddress",
      "outputs": [
        {
          "internalType": "address",
          "name": "",
          "type": "address"
        }
      ],
      "stateMutability": "view",
      "type": "function"
    },
    {
      "inputs": [
        {
          "internalType": "address",
          "name": "_token",
          "type": "address"
        },
        {
          "internalType": "uint256",
          "name": "_amount",
          "type": "uint256"
        },
        {
          "internalType": "address",
          "name": "_to",
          "type": "address"
        }
      ],
      "name": "inCaseTokensGetStuck",
      "outputs": [],
      "stateMutability": "nonpayable",
      "type": "function"
    },
    {
      "inputs": [],
      "name": "isCOREStaking",
      "outputs": [
        {
          "internalType": "bool",
          "name": "",
          "type": "bool"
        }
      ],
      "stateMutability": "view",
      "type": "function"
    },
    {
      "inputs": [],
      "name": "isHomeChain",
      "outputs": [
        {
          "internalType": "bool",
          "name": "",
          "type": "bool"
        }
      ],
      "stateMutability": "view",
      "type": "function"
    },
    {
      "inputs": [],
      "name": "isSingleAssetDeposit",
      "outputs": [
        {
          "internalType": "bool",
          "name": "",
          "type": "bool"
        }
      ],
      "stateMutability": "view",
      "type": "function"
    },
    {
      "inputs": [],
      "name": "isZorroComp",
      "outputs": [
        {
          "internalType": "bool",
          "name": "",
          "type": "bool"
        }
      ],
      "stateMutability": "view",
      "type": "function"
    },
    {
      "inputs": [],
      "name": "lastEarnBlock",
      "outputs": [
        {
          "internalType": "uint256",
          "name": "",
          "type": "uint256"
        }
      ],
      "stateMutability": "view",
      "type": "function"
    },
    {
      "inputs": [
        {
          "internalType": "uint256",
          "name": "",
          "type": "uint256"
        }
      ],
      "name": "lockedXChainEarningsUSDC",
      "outputs": [
        {
          "internalType": "uint256",
          "name": "",
          "type": "uint256"
        }
      ],
      "stateMutability": "view",
      "type": "function"
    },
    {
      "inputs": [],
      "name": "onlyGov",
      "outputs": [
        {
          "internalType": "bool",
          "name": "",
          "type": "bool"
        }
      ],
      "stateMutability": "view",
      "type": "function"
    },
    {
      "inputs": [],
      "name": "owner",
      "outputs": [
        {
          "internalType": "address",
          "name": "",
          "type": "address"
        }
      ],
      "stateMutability": "view",
      "type": "function"
    },
    {
      "inputs": [],
      "name": "pause",
      "outputs": [],
      "stateMutability": "nonpayable",
      "type": "function"
    },
    {
      "inputs": [],
      "name": "paused",
      "outputs": [
        {
          "internalType": "bool",
          "name": "",
          "type": "bool"
        }
      ],
      "stateMutability": "view",
      "type": "function"
    },
    {
      "inputs": [],
      "name": "pid",
      "outputs": [
        {
          "internalType": "uint256",
          "name": "",
          "type": "uint256"
        }
      ],
      "stateMutability": "view",
      "type": "function"
    },
    {
      "inputs": [],
      "name": "poolAddress",
      "outputs": [
        {
          "internalType": "address",
          "name": "",
          "type": "address"
        }
      ],
      "stateMutability": "view",
      "type": "function"
    },
    {
      "inputs": [],
      "name": "renounceOwnership",
      "outputs": [],
      "stateMutability": "nonpayable",
      "type": "function"
    },
    {
      "inputs": [],
      "name": "revShareRate",
      "outputs": [
        {
          "internalType": "uint256",
          "name": "",
          "type": "uint256"
        }
      ],
      "stateMutability": "view",
      "type": "function"
    },
    {
      "inputs": [],
      "name": "revShareRateMax",
      "outputs": [
        {
          "internalType": "uint256",
          "name": "",
          "type": "uint256"
        }
      ],
      "stateMutability": "view",
      "type": "function"
    },
    {
      "inputs": [],
      "name": "revShareRateUL",
      "outputs": [
        {
          "internalType": "uint256",
          "name": "",
          "type": "uint256"
        }
      ],
      "stateMutability": "view",
      "type": "function"
    },
    {
      "inputs": [],
      "name": "rewardsAddress",
      "outputs": [
        {
          "internalType": "address",
          "name": "",
          "type": "address"
        }
      ],
      "stateMutability": "view",
      "type": "function"
    },
    {
      "inputs": [
        {
          "internalType": "address",
          "name": "_earnedAddress",
          "type": "address"
        }
      ],
      "name": "setEarnedAddress",
      "outputs": [],
      "stateMutability": "nonpayable",
      "type": "function"
    },
    {
      "inputs": [
        {
          "internalType": "address",
          "name": "_farmContractAddress",
          "type": "address"
        }
      ],
      "name": "setFarmContractAddress",
      "outputs": [],
      "stateMutability": "nonpayable",
      "type": "function"
    },
    {
      "inputs": [
        {
          "internalType": "uint256",
          "name": "_entranceFeeFactor",
          "type": "uint256"
        },
        {
          "internalType": "uint256",
          "name": "_withdrawFeeFactor",
          "type": "uint256"
        },
        {
          "internalType": "uint256",
          "name": "_controllerFee",
          "type": "uint256"
        },
        {
          "internalType": "uint256",
          "name": "_buyBackRate",
          "type": "uint256"
        },
        {
          "internalType": "uint256",
          "name": "_slippageFactor",
          "type": "uint256"
        }
      ],
      "name": "setFeeSettings",
      "outputs": [],
      "stateMutability": "nonpayable",
      "type": "function"
    },
    {
      "inputs": [
        {
          "internalType": "address",
          "name": "_govAddress",
          "type": "address"
        }
      ],
      "name": "setGov",
      "outputs": [],
      "stateMutability": "nonpayable",
      "type": "function"
    },
    {
      "inputs": [
        {
          "internalType": "bool",
          "name": "_isCOREStaking",
          "type": "bool"
        }
      ],
      "name": "setIsCOREStaking",
      "outputs": [],
      "stateMutability": "nonpayable",
      "type": "function"
    },
    {
      "inputs": [
        {
          "internalType": "bool",
          "name": "_isSingleAssetDeposit",
          "type": "bool"
        }
      ],
      "name": "setIsSingleAssetDeposit",
      "outputs": [],
      "stateMutability": "nonpayable",
      "type": "function"
    },
    {
      "inputs": [
        {
          "internalType": "bool",
          "name": "_isZorroComp",
          "type": "bool"
        }
      ],
      "name": "setIsZorroComp",
      "outputs": [],
      "stateMutability": "nonpayable",
      "type": "function"
    },
    {
      "inputs": [
        {
          "internalType": "bool",
          "name": "_onlyGov",
          "type": "bool"
        }
      ],
      "name": "setOnlyGov",
      "outputs": [],
      "stateMutability": "nonpayable",
      "type": "function"
    },
    {
      "inputs": [
        {
          "internalType": "uint256",
          "name": "_pid",
          "type": "uint256"
        }
      ],
      "name": "setPid",
      "outputs": [],
      "stateMutability": "nonpayable",
      "type": "function"
    },
    {
      "inputs": [
        {
          "internalType": "address",
          "name": "_poolAddress",
          "type": "address"
        }
      ],
      "name": "setPoolAddress",
      "outputs": [],
      "stateMutability": "nonpayable",
      "type": "function"
    },
    {
      "inputs": [
        {
          "internalType": "address",
          "name": "_rewardsAddress",
          "type": "address"
        }
      ],
      "name": "setRewardsAddress",
      "outputs": [],
      "stateMutability": "nonpayable",
      "type": "function"
    },
    {
      "inputs": [
        {
          "internalType": "address",
          "name": "_token0Address",
          "type": "address"
        }
      ],
      "name": "setToken0Address",
      "outputs": [],
      "stateMutability": "nonpayable",
      "type": "function"
    },
    {
      "inputs": [
        {
          "internalType": "address",
          "name": "_token1Address",
          "type": "address"
        }
      ],
      "name": "setToken1Address",
      "outputs": [],
      "stateMutability": "nonpayable",
      "type": "function"
    },
    {
      "inputs": [
        {
          "internalType": "address",
          "name": "_tokenUSDCAddress",
          "type": "address"
        }
      ],
      "name": "setTokenUSDCAddress",
      "outputs": [],
      "stateMutability": "nonpayable",
      "type": "function"
    },
    {
      "inputs": [
        {
          "internalType": "address",
          "name": "_uniRouterAddress",
          "type": "address"
        }
      ],
      "name": "setUniRouterAddress",
      "outputs": [],
      "stateMutability": "nonpayable",
      "type": "function"
    },
    {
      "inputs": [
        {
          "internalType": "address",
          "name": "_ZORROAddress",
          "type": "address"
        }
      ],
      "name": "setZORROAddress",
      "outputs": [],
      "stateMutability": "nonpayable",
      "type": "function"
    },
    {
      "inputs": [
        {
          "internalType": "address",
          "name": "_zorroControllerAddress",
          "type": "address"
        }
      ],
      "name": "setZorroControllerAddress",
      "outputs": [],
      "stateMutability": "nonpayable",
      "type": "function"
    },
    {
      "inputs": [],
      "name": "sharesTotal",
      "outputs": [
        {
          "internalType": "uint256",
          "name": "",
          "type": "uint256"
        }
      ],
      "stateMutability": "view",
      "type": "function"
    },
    {
      "inputs": [],
      "name": "slippageFactor",
      "outputs": [
        {
          "internalType": "uint256",
          "name": "",
          "type": "uint256"
        }
      ],
      "stateMutability": "view",
      "type": "function"
    },
    {
      "inputs": [],
      "name": "slippageFactorUL",
      "outputs": [
        {
          "internalType": "uint256",
          "name": "",
          "type": "uint256"
        }
      ],
      "stateMutability": "view",
      "type": "function"
    },
    {
      "inputs": [],
      "name": "token0Address",
      "outputs": [
        {
          "internalType": "address",
          "name": "",
          "type": "address"
        }
      ],
      "stateMutability": "view",
      "type": "function"
    },
    {
      "inputs": [
        {
          "internalType": "uint256",
          "name": "",
          "type": "uint256"
        }
      ],
      "name": "token0ToEarnedPath",
      "outputs": [
        {
          "internalType": "address",
          "name": "",
          "type": "address"
        }
      ],
      "stateMutability": "view",
      "type": "function"
    },
    {
      "inputs": [
        {
          "internalType": "uint256",
          "name": "",
          "type": "uint256"
        }
      ],
      "name": "token0ToUSDCPath",
      "outputs": [
        {
          "internalType": "address",
          "name": "",
          "type": "address"
        }
      ],
      "stateMutability": "view",
      "type": "function"
    },
    {
      "inputs": [],
      "name": "token1Address",
      "outputs": [
        {
          "internalType": "address",
          "name": "",
          "type": "address"
        }
      ],
      "stateMutability": "view",
      "type": "function"
    },
    {
      "inputs": [
        {
          "internalType": "uint256",
          "name": "",
          "type": "uint256"
        }
      ],
      "name": "token1ToEarnedPath",
      "outputs": [
        {
          "internalType": "address",
          "name": "",
          "type": "address"
        }
      ],
      "stateMutability": "view",
      "type": "function"
    },
    {
      "inputs": [
        {
          "internalType": "uint256",
          "name": "",
          "type": "uint256"
        }
      ],
      "name": "token1ToUSDCPath",
      "outputs": [
        {
          "internalType": "address",
          "name": "",
          "type": "address"
        }
      ],
      "stateMutability": "view",
      "type": "function"
    },
    {
      "inputs": [],
      "name": "tokenUSDCAddress",
      "outputs": [
        {
          "internalType": "address",
          "name": "",
          "type": "address"
        }
      ],
      "stateMutability": "view",
      "type": "function"
    },
    {
      "inputs": [
        {
          "internalType": "address",
          "name": "newOwner",
          "type": "address"
        }
      ],
      "name": "transferOwnership",
      "outputs": [],
      "stateMutability": "nonpayable",
      "type": "function"
    },
    {
      "inputs": [],
      "name": "uniRouterAddress",
      "outputs": [
        {
          "internalType": "address",
          "name": "",
          "type": "address"
        }
      ],
      "stateMutability": "view",
      "type": "function"
    },
    {
      "inputs": [],
      "name": "unpause",
      "outputs": [],
      "stateMutability": "nonpayable",
      "type": "function"
    },
    {
      "inputs": [
        {
          "internalType": "address",
          "name": "",
          "type": "address"
        }
      ],
      "name": "userShares",
      "outputs": [
        {
          "internalType": "uint256",
          "name": "",
          "type": "uint256"
        }
      ],
      "stateMutability": "view",
      "type": "function"
    },
    {
      "inputs": [],
      "name": "wantAddress",
      "outputs": [
        {
          "internalType": "address",
          "name": "",
          "type": "address"
        }
      ],
      "stateMutability": "view",
      "type": "function"
    },
    {
      "inputs": [],
      "name": "wantLockedTotal",
      "outputs": [
        {
          "internalType": "uint256",
          "name": "",
          "type": "uint256"
        }
      ],
      "stateMutability": "view",
      "type": "function"
    },
    {
      "inputs": [],
      "name": "withdrawFeeFactor",
      "outputs": [
        {
          "internalType": "uint256",
          "name": "",
          "type": "uint256"
        }
      ],
      "stateMutability": "view",
      "type": "function"
    },
    {
      "inputs": [],
      "name": "withdrawFeeFactorLL",
      "outputs": [
        {
          "internalType": "uint256",
          "name": "",
          "type": "uint256"
        }
      ],
      "stateMutability": "view",
      "type": "function"
    },
    {
      "inputs": [],
      "name": "withdrawFeeFactorMax",
      "outputs": [
        {
          "internalType": "uint256",
          "name": "",
          "type": "uint256"
        }
      ],
      "stateMutability": "view",
      "type": "function"
    },
    {
      "inputs": [],
      "name": "xChainEarningsLockEndBlock",
      "outputs": [
        {
          "internalType": "uint256",
          "name": "",
          "type": "uint256"
        }
      ],
      "stateMutability": "view",
      "type": "function"
    },
    {
      "inputs": [],
      "name": "xChainEarningsLockStartBlock",
      "outputs": [
        {
          "internalType": "uint256",
          "name": "",
          "type": "uint256"
        }
      ],
      "stateMutability": "view",
      "type": "function"
    },
    {
      "inputs": [],
      "name": "zorroControllerAddress",
      "outputs": [
        {
          "internalType": "address",
          "name": "",
          "type": "address"
        }
      ],
      "stateMutability": "view",
      "type": "function"
    },
    {
      "inputs": [],
      "name": "zorroLPPool",
      "outputs": [
        {
          "internalType": "address",
          "name": "",
          "type": "address"
        }
      ],
      "stateMutability": "view",
      "type": "function"
    },
    {
      "inputs": [],
      "name": "zorroLPPoolToken0",
      "outputs": [
        {
          "internalType": "address",
          "name": "",
          "type": "address"
        }
      ],
      "stateMutability": "view",
      "type": "function"
    },
    {
      "inputs": [],
      "name": "zorroLPPoolToken1",
      "outputs": [
        {
          "internalType": "address",
          "name": "",
          "type": "address"
        }
      ],
      "stateMutability": "view",
      "type": "function"
    },
    {
      "inputs": [],
      "name": "zorroStakingVault",
      "outputs": [
        {
          "internalType": "address",
          "name": "",
          "type": "address"
        }
      ],
      "stateMutability": "view",
      "type": "function"
    },
    {
      "inputs": [
        {
          "internalType": "address",
          "name": "_account",
          "type": "address"
        },
        {
          "internalType": "uint256",
          "name": "_wantAmt",
          "type": "uint256"
        }
      ],
      "name": "depositWantToken",
      "outputs": [
        {
          "internalType": "uint256",
          "name": "",
          "type": "uint256"
        }
      ],
      "stateMutability": "nonpayable",
      "type": "function"
    },
    {
      "inputs": [
        {
          "internalType": "uint256",
          "name": "_amountUSDC",
          "type": "uint256"
        },
        {
          "internalType": "uint256",
          "name": "_maxMarketMovementAllowed",
          "type": "uint256"
        },
        {
          "components": [
            {
              "internalType": "uint256",
              "name": "token0",
              "type": "uint256"
            },
            {
              "internalType": "uint256",
              "name": "token1",
              "type": "uint256"
            },
            {
              "internalType": "uint256",
              "name": "earnToken",
              "type": "uint256"
            },
            {
              "internalType": "uint256",
              "name": "lpPoolToken0",
              "type": "uint256"
            },
            {
              "internalType": "uint256",
              "name": "lpPoolToken1",
              "type": "uint256"
            },
            {
              "internalType": "uint256",
              "name": "zorroToken",
              "type": "uint256"
            },
            {
              "internalType": "uint256",
              "name": "tokenUSDC",
              "type": "uint256"
            }
          ],
          "internalType": "struct PriceData",
          "name": "_priceData",
          "type": "tuple"
        }
      ],
      "name": "exchangeUSDForWantToken",
      "outputs": [
        {
          "internalType": "uint256",
          "name": "",
          "type": "uint256"
        }
      ],
      "stateMutability": "nonpayable",
      "type": "function"
    },
    {
      "inputs": [],
      "name": "farm",
      "outputs": [],
      "stateMutability": "nonpayable",
      "type": "function"
    },
    {
      "inputs": [
        {
          "internalType": "address",
          "name": "_account",
          "type": "address"
        },
        {
          "internalType": "bool",
          "name": "_harvestOnly",
          "type": "bool"
        }
      ],
      "name": "withdrawWantToken",
      "outputs": [
        {
          "internalType": "uint256",
          "name": "",
          "type": "uint256"
        }
      ],
      "stateMutability": "nonpayable",
      "type": "function"
    },
    {
      "inputs": [
        {
          "internalType": "uint256",
          "name": "_amount",
          "type": "uint256"
        },
        {
          "internalType": "uint256",
          "name": "_maxMarketMovementAllowed",
          "type": "uint256"
        },
        {
          "components": [
            {
              "internalType": "uint256",
              "name": "token0",
              "type": "uint256"
            },
            {
              "internalType": "uint256",
              "name": "token1",
              "type": "uint256"
            },
            {
              "internalType": "uint256",
              "name": "earnToken",
              "type": "uint256"
            },
            {
              "internalType": "uint256",
              "name": "lpPoolToken0",
              "type": "uint256"
            },
            {
              "internalType": "uint256",
              "name": "lpPoolToken1",
              "type": "uint256"
            },
            {
              "internalType": "uint256",
              "name": "zorroToken",
              "type": "uint256"
            },
            {
              "internalType": "uint256",
              "name": "tokenUSDC",
              "type": "uint256"
            }
          ],
          "internalType": "struct PriceData",
          "name": "_priceData",
          "type": "tuple"
        }
      ],
      "name": "exchangeWantTokenForUSD",
      "outputs": [
        {
          "internalType": "uint256",
          "name": "",
          "type": "uint256"
        }
      ],
      "stateMutability": "nonpayable",
      "type": "function"
    },
    {
      "inputs": [
        {
          "internalType": "uint256",
          "name": "_maxMarketMovementAllowed",
          "type": "uint256"
        },
        {
          "components": [
            {
              "internalType": "uint256",
              "name": "token0",
              "type": "uint256"
            },
            {
              "internalType": "uint256",
              "name": "token1",
              "type": "uint256"
            },
            {
              "internalType": "uint256",
              "name": "earnToken",
              "type": "uint256"
            },
            {
              "internalType": "uint256",
              "name": "lpPoolToken0",
              "type": "uint256"
            },
            {
              "internalType": "uint256",
              "name": "lpPoolToken1",
              "type": "uint256"
            },
            {
              "internalType": "uint256",
              "name": "zorroToken",
              "type": "uint256"
            },
            {
              "internalType": "uint256",
              "name": "tokenUSDC",
              "type": "uint256"
            }
          ],
          "internalType": "struct PriceData",
          "name": "_priceData",
          "type": "tuple"
        }
      ],
      "name": "earn",
      "outputs": [],
      "stateMutability": "nonpayable",
      "type": "function"
    }
  ],
  "bytecode": "0x6080604052600d8054600160a060020a03191661dead1790556014805460a060020a60ff0219167401000000000000000000000000000000000000000017905560006015819055601681905560178190556019819055601a819055601b55612706601c55612710601d556103b6601e553480156200007c57600080fd5b50604051620052a7380380620052a78339810160408190526200009f9162000f1a565b620000c5620000b6640100000000620007b8810204565b640100000000620007bc810204565b600180556002805460ff1916905588518990600090620000e957620000e962001028565b6020026020010151601460006101000a815481600160a060020a030219169083600160a060020a03160217905550886001815181106200012d576200012d62001028565b6020026020010151601160006101000a815481600160a060020a030219169083600160a060020a031602179055508860028151811062000171576200017162001028565b6020026020010151601260006101000a815481600160a060020a030219169083600160a060020a0316021790555088600381518110620001b557620001b562001028565b6020026020010151600560006101000a815481600160a060020a030219169083600160a060020a0316021790555088600481518110620001f957620001f962001028565b6020026020010151600660006101000a815481600160a060020a030219169083600160a060020a03160217905550886005815181106200023d576200023d62001028565b6020026020010151600760006101000a815481600160a060020a030219169083600160a060020a031602179055508860068151811062000281576200028162001028565b6020026020010151600860006101000a815481600160a060020a030219169083600160a060020a0316021790555088600781518110620002c557620002c562001028565b6020026020010151600460006101000a815481600160a060020a030219169083600160a060020a031602179055508860088151811062000309576200030962001028565b6020026020010151600e60006101000a815481600160a060020a030219169083600160a060020a03160217905550886009815181106200034d576200034d62001028565b6020026020010151601060006101000a815481600160a060020a030219169083600160a060020a0316021790555088600a8151811062000391576200039162001028565b6020026020010151600f60006101000a815481600160a060020a030219169083600160a060020a0316021790555088600b81518110620003d557620003d562001028565b6020026020010151600a60006101000a815481600160a060020a030219169083600160a060020a0316021790555088600c8151811062000419576200041962001028565b6020026020010151600b60006101000a815481600160a060020a030219169083600160a060020a0316021790555088600d815181106200045d576200045d62001028565b6020908102919091010151600c8054600160a060020a031916600160a060020a0390921691909117905560038890556002805462ffff0019166101008915150262ff000019161762010000881515021764ffff000000191663010000008715150264ff00000000191617640100000000861515810291909117909155620004eb90849084906200080c810204565b6200056160248054806020026020016040519081016040528092919081815260200182805480156200054757602002820191906000526020600020905b8154600160a060020a0316815260019091019060200180831162000528575b505050505062000bc3640100000000026401000000009004565b8051620005779160269160209091019062000ca4565b50620005ec60258054806020026020016040519081016040528092919081815260200182805480156200054757602002820191906000526020600020908154600160a060020a031681526001909101906020018083116200052857505050505062000bc3640100000000026401000000009004565b8051620006029160279160209091019062000ca4565b5062000677601f8054806020026020016040519081016040528092919081815260200182805480156200054757602002820191906000526020600020908154600160a060020a031681526001909101906020018083116200052857505050505062000bc3640100000000026401000000009004565b80516200068d9160219160209091019062000ca4565b506200070260208054806020026020016040519081016040528092919081815260200182805480156200054757602002820191906000526020600020908154600160a060020a031681526001909101906020018083116200052857505050505062000bc3640100000000026401000000009004565b8051620007189160229160209091019062000ca4565b50806000815181106200072f576200072f62001028565b60200260200101516019819055508060018151811062000753576200075362001028565b6020026020010151601a819055508060028151811062000777576200077762001028565b6020026020010151601c81905550806003815181106200079b576200079b62001028565b6020026020010151601d81905550505050505050505050620010e0565b3390565b60008054600160a060020a03838116600160a060020a0319831681178455604051919092169283917f8be0079c531659141344cd1fd0a4f28419497f9722a3daafe3b4186f6b6457e09190a35050565b60008160008151811062000824576200082462001028565b602002602001015190506000805b84518161ffff16101562000bbc5760008451831015620008865784620008688460016401000000006200297a62000c8182021704565b815181106200087b576200087b62001028565b602002602001015190505b61ffff821615806200089f57508061ffff168261ffff16105b1562000ba857826200091a57858261ffff1681518110620008c457620008c462001028565b602002602001015160238361ffff1681548110620008e657620008e662001028565b9060005260206000200160006101000a815481600160a060020a030219169083600160a060020a0316021790555062000ba8565b82600114156200095f57858261ffff16815181106200093d576200093d62001028565b602002602001015160248361ffff1681548110620008e657620008e662001028565b8260021415620009a457858261ffff168151811062000982576200098262001028565b602002602001015160258361ffff1681548110620008e657620008e662001028565b8260031415620009e957858261ffff1681518110620009c757620009c762001028565b6020026020010151601f8361ffff1681548110620008e657620008e662001028565b826004141562000a2e57858261ffff168151811062000a0c5762000a0c62001028565b602002602001015160208361ffff1681548110620008e657620008e662001028565b826005141562000a7357858261ffff168151811062000a515762000a5162001028565b602002602001015160288361ffff1681548110620008e657620008e662001028565b826006141562000ab857858261ffff168151811062000a965762000a9662001028565b602002602001015160298361ffff1681548110620008e657620008e662001028565b826007141562000afd57858261ffff168151811062000adb5762000adb62001028565b6020026020010151602c8361ffff1681548110620008e657620008e662001028565b826008141562000b4257858261ffff168151811062000b205762000b2062001028565b6020026020010151602d8361ffff1681548110620008e657620008e662001028565b6040517f08c379a000000000000000000000000000000000000000000000000000000000815260206004820152600e60248201527f6261642073776170207061746873000000000000000000000000000000000000604482015260640160405180910390fd5b5062000bb48162001086565b905062000832565b5050505050565b60608060005b83518161ffff16101562000c7a578362000c1b8261ffff1662000c066001885162000c966401000000000262002986179091906401000000009004565b906401000000006200298662000c9682021704565b8151811062000c2e5762000c2e62001028565b6020026020010151828261ffff168151811062000c4f5762000c4f62001028565b600160a060020a039092166020928302919091019091015262000c728162001086565b905062000bc9565b5092915050565b600062000c8f8284620010ab565b9392505050565b600062000c8f8284620010c6565b82805482825590600052602060002090810192821562000cfc579160200282015b8281111562000cfc5782518254600160a060020a031916600160a060020a0390911617825560209092019160019091019062000cc5565b5062000d0a92915062000d0e565b5090565b5b8082111562000d0a576000815560010162000d0f565b7f4e487b7100000000000000000000000000000000000000000000000000000000600052604160045260246000fd5b604051601f8201601f191681016001604060020a038111828210171562000d7f5762000d7f62000d25565b604052919050565b60006001604060020a0382111562000da35762000da362000d25565b5060209081020190565b600082601f83011262000dbf57600080fd5b8151602062000dd862000dd28362000d87565b62000d54565b8281529181028401810191818101908684111562000df557600080fd5b8286015b8481101562000e29578051600160a060020a038116811462000e1b5760008081fd5b835291830191830162000df9565b509695505050505050565b8051801515811462000e4557600080fd5b919050565b600082601f83011262000e5c57600080fd5b8151602062000e6f62000dd28362000d87565b8281529181028401810191818101908684111562000e8c57600080fd5b8286015b8481101562000e2957805161ffff8116811462000ead5760008081fd5b835291830191830162000e90565b600082601f83011262000ecd57600080fd5b8151602062000ee062000dd28362000d87565b8281529181028401810191818101908684111562000efd57600080fd5b8286015b8481101562000e29578051835291830191830162000f01565b60008060008060008060008060006101208a8c03121562000f3a57600080fd5b89516001604060020a038082111562000f5257600080fd5b62000f608d838e0162000dad565b9a5060208c0151995062000f7760408d0162000e34565b985062000f8760608d0162000e34565b975062000f9760808d0162000e34565b965062000fa760a08d0162000e34565b955060c08c015191508082111562000fbe57600080fd5b62000fcc8d838e0162000dad565b945060e08c015191508082111562000fe357600080fd5b62000ff18d838e0162000e4a565b93506101008c01519150808211156200100957600080fd5b50620010188c828d0162000ebb565b9150509295985092959850929598565b7f4e487b7100000000000000000000000000000000000000000000000000000000600052603260045260246000fd5b7f4e487b7100000000000000000000000000000000000000000000000000000000600052601160045260246000fd5b600061ffff80831681811415620010a157620010a162001057565b6001019392505050565b60008219821115620010c157620010c162001057565b500190565b600082821015620010db57620010db62001057565b500390565b6141b780620010f06000396000f3fe608060405234801561001057600080fd5b50600436106105075760003560e060020a900480638456cb591161029d578063bf3a7d401161016b578063e5eb715c116100dd578063ee50dc3411610096578063ee50dc341461062d578063efa0280814610aaf578063f106845414610ac1578063f2fde38b14610aca578063f5046a2914610add578063ffbd3b1f14610af057600080fd5b8063e5eb715c14610a3b578063e719847414610a4e578063e7a0367914610a61578063e9e15b4f14610a74578063ed148bf314610a87578063edf5e58514610a9a57600080fd5b8063c8479cd61161012f578063c8479cd6146109bc578063c8e3d18b146109cf578063cfad57a2146109e2578063d1aeabaf146109f5578063d7cb416f14610a08578063de69b3aa14610a1b57600080fd5b8063bf3a7d4014610970578063c0973eed14610983578063c302a4d014610813578063c5c97cbf14610996578063c6efd577146109a957600080fd5b80639fc33a9f1161020f578063b73cba2a116101c8578063b73cba2a14610908578063b74cd2421461091b578063b77050e714610924578063b86c5f5314610937578063ba0bb4ab1461094a578063bd530e3f1461095d57600080fd5b80639fc33a9f146108a9578063a4d2b083146108bc578063a51a213e146108cf578063adfe5a76146108e2578063b1414dbb146108f5578063b3545c011461062457600080fd5b80638b9102dc116102615780638b9102dc146108425780638da5cb5b1461085657806392f9576d1461086757806396e9aff81461087a5780639b6017e51461088d5780639f703a561461089657600080fd5b80638456cb591461080257806385f02dd61461080a578063866b2018146108135780638906758d1461081c5780638b2bc8521461082f57600080fd5b80634c5b09da116103da57806367057b6c1161034c5780637153ef86116103055780637153ef861461079057806374515405146107a35780637bf604d8146107b65780637ec82864146107c95780637ff36fbe146107dc57806381e62ea3146107ef57600080fd5b806367057b6c1461062d57806367206d401461074657806368f5416214610759578063693a090b1461076257806370d5ae0514610775578063715018a61461078857600080fd5b8063583bda3b1161039e578063583bda3b146106dc5780635c975abb146106ef5780635da79d63146106fa5780635dc05fd51461070d5780636392ab121461072057806366aca0a61461073357600080fd5b80634c5b09da1461069a5780634c8fc2d6146106ad5780634ce54ddb146106b65780634d9f7bb21461062d5780634e2cb8b6146106c957600080fd5b80631e12819a1161047e57806342da4eb31161043757806342da4eb31461064f57806343788cd21461062d57806344a3955e1461065857806346008a071461066157806348f2d9dd14610674578063495af8ce1461068757600080fd5b80631e12819a14610611578063211019d7146106245780632717eff31461062d5780633214471f1461063657806336e9332d1461063f5780633f4ba83a1461064757600080fd5b80630daef321116104d05780630daef3211461059b5780630fa4e01e146105d05780631334903f146105d95780631755ff21146105e2578063178a8d07146105f55780631b0d8aab146105fe57600080fd5b80627a2ae31461050c57806305828d3e1461053c578063061c7d48146105515780630873cb91146105685780630b6bb30b14610588575b600080fd5b61051f61051a366004613c0e565b610af9565b604051600160a060020a0390911681526020015b60405180910390f35b61054f61054a366004613c43565b610b23565b005b61055a61012c81565b604051908152602001610533565b61055a610576366004613c0e565b60306020526000908152604090205481565b61054f610596366004613c6c565b610b7b565b6014546105c09074010000000000000000000000000000000000000000900460ff1681565b6040519015158152602001610533565b61055a60155481565b61055a601c5481565b60105461051f90600160a060020a031681565b61055a601a5481565b61054f61060c366004613c0e565b610c22565b61054f61061f366004613c43565b610c54565b61055a61032081565b61055a61271081565b61055a601b5481565b61054f610ca3565b61054f610cdc565b61055a60165481565b61055a60175481565b60145461051f90600160a060020a031681565b61054f610682366004613c6c565b610d13565b61055a610695366004613c89565b610d5a565b61054f6106a8366004613c43565b611019565b61055a602f5481565b60095461051f90600160a060020a031681565b61051f6106d7366004613c0e565b611068565b61054f6106ea366004613c43565b611078565b60025460ff166105c0565b61054f610708366004613c43565b6110c7565b6002546105c09062010000900460ff1681565b61051f61072e366004613c0e565b611116565b61054f610741366004613c6c565b611126565b61054f610754366004613cc0565b61116f565b61055a601d5481565b600f5461051f90600160a060020a031681565b600d5461051f90600160a060020a031681565b61054f611277565b61054f61079e366004613cfc565b6112ae565b61055a6107b1366004613d4f565b61159d565b600a5461051f90600160a060020a031681565b61051f6107d7366004613c0e565b611ab1565b60065461051f90600160a060020a031681565b61051f6107fd366004613c0e565b611ac1565b61054f611ad1565b61055a60195481565b61055a6126ac81565b61054f61082a366004613c43565b611b06565b600c5461051f90600160a060020a031681565b6002546105c0906301000000900460ff1681565b600054600160a060020a031661051f565b61051f610875366004613c0e565b611b55565b61051f610888366004613c0e565b611b65565b61055a602e5481565b61051f6108a4366004613c0e565b611b75565b60045461051f90600160a060020a031681565b60135461051f90600160a060020a031681565b61055a6108dd366004613d4f565b611b85565b61051f6108f0366004613c0e565b611fab565b60115461051f90600160a060020a031681565b61054f610916366004613c43565b611fbb565b61055a6103e381565b61051f610932366004613c0e565b61200a565b61051f610945366004613c0e565b61201a565b61055a610958366004613d7d565b61202a565b61054f61096b366004613da7565b6121f0565b61054f61097e366004613c43565b6126cf565b600e5461051f90600160a060020a031681565b61051f6109a4366004613c0e565b61271e565b61051f6109b7366004613c0e565b61272e565b61054f6109ca366004613c43565b61273e565b61051f6109dd366004613c0e565b61278d565b61054f6109f0366004613c43565b61279d565b61054f610a03366004613c6c565b612818565b60075461051f90600160a060020a031681565b61055a610a29366004613c43565b60186020526000908152604090205481565b61051f610a49366004613c0e565b612863565b60085461051f90600160a060020a031681565b60055461051f90600160a060020a031681565b61054f610a82366004613c43565b612873565b600b5461051f90600160a060020a031681565b6002546105c090640100000000900460ff1681565b6002546105c090610100900460ff1681565b61055a60035481565b61054f610ad8366004613c43565b6128c2565b60125461051f90600160a060020a031681565b61055a601e5481565b60278181548110610b0957600080fd5b600091825260209091200154600160a060020a0316905081565b600054600160a060020a03163314610b595760405160e560020a62461bcd028152600401610b5090613dd5565b60405180910390fd5b60078054600160a060020a031916600160a060020a0392909216919091179055565b601454600160a060020a03163314610ba85760405160e560020a62461bcd028152600401610b5090613e0a565b60148054821515740100000000000000000000000000000000000000000274ff0000000000000000000000000000000000000000199091161790556040517f125177ac7b8930dac1e59c2b30b1b6b9191b30af40cf6bbb5d20fec4d44be60f90610c1790831515815260200190565b60405180910390a150565b600054600160a060020a03163314610c4f5760405160e560020a62461bcd028152600401610b5090613dd5565b600355565b600054600160a060020a03163314610c815760405160e560020a62461bcd028152600401610b5090613dd5565b60098054600160a060020a031916600160a060020a0392909216919091179055565b60026001541415610cc95760405160e560020a62461bcd028152600401610b5090613e41565b6002600155610cd6612992565b60018055565b601454600160a060020a03163314610d095760405160e560020a62461bcd028152600401610b5090613e0a565b610d11612b67565b565b600054600160a060020a03163314610d405760405160e560020a62461bcd028152600401610b5090613dd5565b600280549115156101000261ff0019909216919091179055565b601154600090600160a060020a031633600160a060020a031614610d935760405160e560020a62461bcd028152600401610b5090613e78565b60026001541415610db95760405160e560020a62461bcd028152600401610b5090613e41565b6002600155610dca60025460ff1690565b15610dea5760405160e560020a62461bcd028152600401610b5090613eaf565b600082610e9257600160a060020a038481166000908152601860205260409081902054601754600554925160e060020a6370a082310281523060048201529193610e8e939192610e8892869216906370a0823190602401602060405180830381865afa158015610e5e573d6000803e3d6000fd5b505050506040513d601f19601f82011682018060405250810190610e829190613ee6565b90612c06565b90612c12565b9150505b6000610eaf601654610e8860175485612c0690919063ffffffff16565b9050601754811115610ec057506017545b601754610ecd9082612986565b601755600160a060020a038516600090815260186020526040902054610ef39082612986565b600160a060020a038616600090815260186020526040902055601d546127101115610f3657610f33612710610e88601d5485612c0690919063ffffffff16565b91505b6002546301000000900460ff1615610f5157610f5182612c1e565b60055460405160e060020a6370a08231028152306004820152600091600160a060020a0316906370a0823190602401602060405180830381865afa158015610f9d573d6000803e3d6000fd5b505050506040513d601f19601f82011682018060405250810190610fc19190613ee6565b905080831115610fcf578092505b826016541015610fdf5760165492505b601654610fec9084612986565b60165560115460055461100c91600160a060020a03918216911685612cc6565b5060018055949350505050565b600054600160a060020a031633146110465760405160e560020a62461bcd028152600401610b5090613dd5565b60048054600160a060020a031916600160a060020a0392909216919091179055565b60228181548110610b0957600080fd5b600054600160a060020a031633146110a55760405160e560020a62461bcd028152600401610b5090613dd5565b60128054600160a060020a031916600160a060020a0392909216919091179055565b600054600160a060020a031633146110f45760405160e560020a62461bcd028152600401610b5090613dd5565b600f8054600160a060020a031916600160a060020a0392909216919091179055565b60238181548110610b0957600080fd5b600054600160a060020a031633146111535760405160e560020a62461bcd028152600401610b5090613dd5565b60028054911515620100000262ff000019909216919091179055565b601454600160a060020a0316331461119c5760405160e560020a62461bcd028152600401610b5090613e0a565b600854600160a060020a03848116911614156111fd5760405160e560020a62461bcd02815260206004820152600560248201527f21736166650000000000000000000000000000000000000000000000000000006044820152606401610b50565b600554600160a060020a038481169116141561125e5760405160e560020a62461bcd02815260206004820152600560248201527f21736166650000000000000000000000000000000000000000000000000000006044820152606401610b50565b611272600160a060020a0384168284612cc6565b505050565b600054600160a060020a031633146112a45760405160e560020a62461bcd028152600401610b5090613dd5565b610d116000612d6f565b601454600160a060020a031633146112db5760405160e560020a62461bcd028152600401610b5090613e0a565b6126ac8510156113305760405160e560020a62461bcd02815260206004820152601a60248201527f5f656e7472616e6365466565466163746f7220746f6f206c6f770000000000006044820152606401610b50565b6127108511156113855760405160e560020a62461bcd02815260206004820152601b60248201527f5f656e7472616e6365466565466163746f7220746f6f206869676800000000006044820152606401610b50565b601c8590556126ac8410156113df5760405160e560020a62461bcd02815260206004820152601a60248201527f5f7769746864726177466565466163746f7220746f6f206c6f770000000000006044820152606401610b50565b6127108411156114345760405160e560020a62461bcd02815260206004820152601b60248201527f5f7769746864726177466565466163746f7220746f6f206869676800000000006044820152606401610b50565b601d84905561012c83111561148e5760405160e560020a62461bcd02815260206004820152601760248201527f5f636f6e74726f6c6c657246656520746f6f20686967680000000000000000006044820152606401610b50565b60198390556103208211156114e85760405160e560020a62461bcd02815260206004820152601560248201527f5f6275794261636b5261746520746f6f206869676800000000000000000000006044820152606401610b50565b601a8290556103e38111156115425760405160e560020a62461bcd02815260206004820152601860248201527f5f736c697070616765466163746f7220746f6f206869676800000000000000006044820152606401610b50565b601e819055604080518681526020810186905290810184905260608101839052608081018290527fc67e0b149a57a70fa44a531a46c2c6d8e0b242fa12f459f250012c3a5987d29a9060a00160405180910390a15050505050565b601154600090600160a060020a031633600160a060020a0316146115d65760405160e560020a62461bcd028152600401610b5090613e78565b60025460ff16156115fc5760405160e560020a62461bcd028152600401610b5090613eaf565b60095460405160e060020a6370a08231028152336004820152600091600160a060020a0316906370a0823190602401602060405180830381865afa158015611648573d6000803e3d6000fd5b505050506040513d601f19601f8201168201806040525081019061166c9190613ee6565b9050600085116116c15760405160e560020a62461bcd02815260206004820152601860248201527f55534443206465706f736974206d757374206265203e203000000000000000006044820152606401610b50565b808511156117145760405160e560020a62461bcd02815260206004820152601960248201527f5553444320646573697265642065786365656465642062616c000000000000006044820152606401610b50565b60025462010000900460ff16156117c057600f5473__SafeSwapUni___________________________90632b08bab190600160a060020a03168760c0870135873589602a336117654261025861297a565b6040518963ffffffff1660e060020a02815260040161178b989796959493929190613eff565b60006040518083038186803b1580156117a357600080fd5b505af41580156117b7573d6000803e3d6000fd5b50505050611a37565b600f5473__SafeSwapUni___________________________90632b08bab190600160a060020a03166117f3886002612c12565b60c0870135873589601f3061180a4261025861297a565b6040518963ffffffff1660e060020a028152600401611830989796959493929190613eff565b60006040518083038186803b15801561184857600080fd5b505af415801561185c573d6000803e3d6000fd5b5050600f5473__SafeSwapUni___________________________9250632b08bab19150600160a060020a0316611893886002612c12565b60c0870135602080890135908a90306118ae4261025861297a565b6040518963ffffffff1660e060020a0281526004016118d4989796959493929190613eff565b60006040518083038186803b1580156118ec57600080fd5b505af4158015611900573d6000803e3d6000fd5b505060065460405160e060020a6370a0823102815230600482015260009350600160a060020a0390911691506370a0823190602401602060405180830381865afa158015611952573d6000803e3d6000fd5b505050506040513d601f19601f820116820180604052508101906119769190613ee6565b60075460405160e060020a6370a08231028152306004820152919250600091600160a060020a03909116906370a0823190602401602060405180830381865afa1580156119c7573d6000803e3d6000fd5b505050506040513d601f19601f820116820180604052508101906119eb9190613ee6565b600f54600654919250611a0b91600160a060020a03908116911684612dbf565b600f54600754611a2891600160a060020a03918216911683612dbf565b611a3482828833612ea9565b50505b60055460405160e060020a6370a08231028152336004820152600160a060020a03909116906370a0823190602401602060405180830381865afa158015611a82573d6000803e3d6000fd5b505050506040513d601f19601f82011682018060405250810190611aa69190613ee6565b9150505b9392505050565b602b8181548110610b0957600080fd5b60298181548110610b0957600080fd5b601454600160a060020a03163314611afe5760405160e560020a62461bcd028152600401610b5090613e0a565b610d11612f69565b600054600160a060020a03163314611b335760405160e560020a62461bcd028152600401610b5090613dd5565b600e8054600160a060020a031916600160a060020a0392909216919091179055565b602d8181548110610b0957600080fd5b60258181548110610b0957600080fd5b602c8181548110610b0957600080fd5b601154600090600160a060020a031633600160a060020a031614611bbe5760405160e560020a62461bcd028152600401610b5090613e78565b60025460ff1615611be45760405160e560020a62461bcd028152600401610b5090613eaf565b60008411611c375760405160e560020a62461bcd02815260206004820152601460248201527f57616e7420616d74206d757374206265203e20300000000000000000000000006044820152606401610b50565b600554611c4f90600160a060020a0316333087612fc4565b60025462010000900460ff1615611cfb57600f5473__SafeSwapUni___________________________90632b08bab190600160a060020a031686853560c087013588602b33611ca04261025861297a565b6040518963ffffffff1660e060020a028152600401611cc6989796959493929190613eff565b60006040518083038186803b158015611cde57600080fd5b505af4158015611cf2573d6000803e3d6000fd5b50505050611f34565b611d06848430613015565b60065460405160e060020a6370a08231028152306004820152600091600160a060020a0316906370a0823190602401602060405180830381865afa158015611d52573d6000803e3d6000fd5b505050506040513d601f19601f82011682018060405250810190611d769190613ee6565b60075460405160e060020a6370a08231028152306004820152919250600091600160a060020a03909116906370a0823190602401602060405180830381865afa158015611dc7573d6000803e3d6000fd5b505050506040513d601f19601f82011682018060405250810190611deb9190613ee6565b600f5490915073__SafeSwapUni___________________________90632b08bab190600160a060020a031684873560c08901358a602133611e2e4261025861297a565b6040518963ffffffff1660e060020a028152600401611e54989796959493929190613eff565b60006040518083038186803b158015611e6c57600080fd5b505af4158015611e80573d6000803e3d6000fd5b5050600754600160a060020a0316159150611f31905057600f5473__SafeSwapUni___________________________90632b08bab190600160a060020a031683602088013560c08901358a602233611eda4261025861297a565b6040518963ffffffff1660e060020a028152600401611f00989796959493929190613eff565b60006040518083038186803b158015611f1857600080fd5b505af4158015611f2c573d6000803e3d6000fd5b505050505b50505b60095460405160e060020a6370a08231028152336004820152600160a060020a03909116906370a0823190602401602060405180830381865afa158015611f7f573d6000803e3d6000fd5b505050506040513d601f19601f82011682018060405250810190611fa39190613ee6565b949350505050565b602a8181548110610b0957600080fd5b600054600160a060020a03163314611fe85760405160e560020a62461bcd028152600401610b5090613dd5565b60088054600160a060020a031916600160a060020a0392909216919091179055565b60268181548110610b0957600080fd5b601f8181548110610b0957600080fd5b601154600090600160a060020a031633600160a060020a0316146120635760405160e560020a62461bcd028152600401610b5090613e78565b600260015414156120895760405160e560020a62461bcd028152600401610b5090613e41565b600260015561209a60025460ff1690565b156120ba5760405160e560020a62461bcd028152600401610b5090613eaf565b6000821161210d5760405160e560020a62461bcd02815260206004820152601e60248201527f57616e7420746f6b656e206465706f736974206d757374206265203e203000006044820152606401610b50565b60055461212590600160a060020a0316333085612fc4565b60165482901580159061213a57506000601754115b1561216957612166612710610e88601654610e88601c54610e826017548a612c0690919063ffffffff16565b90505b601754612176908261297a565b601755600160a060020a03841660009081526018602052604090205461219c908261297a565b600160a060020a0385166000908152601860205260409020556002546301000000900460ff16156121d4576121cf612992565b6121e5565b6016546121e1908461297a565b6016555b600180559392505050565b600260015414156122165760405160e560020a62461bcd028152600401610b5090613e41565b600260015561222760025460ff1690565b156122475760405160e560020a62461bcd028152600401610b5090613eaf565b6002546301000000900460ff166122a35760405160e560020a62461bcd02815260206004820152600c60248201527f2169735a6f72726f436f6d7000000000000000000000000000000000000000006044820152606401610b50565b60145474010000000000000000000000000000000000000000900460ff16156122f357601454600160a060020a031633146122f35760405160e560020a62461bcd028152600401610b5090613e0a565b6122fd6000612c1e565b60085460405160e060020a6370a08231028152306004820152600091600160a060020a0316906370a0823190602401602060405180830381865afa158015612349573d6000803e3d6000fd5b505050506040513d601f19601f8201168201806040525081019061236d9190613ee6565b90506123788161328b565b90506123858184846132ea565b600254909150610100900460ff16806123a6575060025462010000900460ff165b156123bd57436015556123b7612992565b506126c7565b600f546008546123db91600160a060020a0391821691166000613416565b600f546008546123f891600160a060020a03918216911683612dbf565b600654600854600160a060020a039081169116146124b557600f5473__SafeSwapUni___________________________90632b08bab190600160a060020a0316612443846002612c12565b601e5460408701359087359060243061245e4261025861297a565b6040518963ffffffff1660e060020a028152600401612484989796959493929190613eff565b60006040518083038186803b15801561249c57600080fd5b505af41580156124b0573d6000803e3d6000fd5b505050505b600754600854600160a060020a0390811691161461257557600f5473__SafeSwapUni___________________________90632b08bab190600160a060020a0316612500846002612c12565b601e5460408701359060208801359060253061251e4261025861297a565b6040518963ffffffff1660e060020a028152600401612544989796959493929190613eff565b60006040518083038186803b15801561255c57600080fd5b505af4158015612570573d6000803e3d6000fd5b505050505b60065460405160e060020a6370a08231028152306004820152600091600160a060020a0316906370a0823190602401602060405180830381865afa1580156125c1573d6000803e3d6000fd5b505050506040513d601f19601f820116820180604052508101906125e59190613ee6565b60075460405160e060020a6370a08231028152306004820152919250600091600160a060020a03909116906370a0823190602401602060405180830381865afa158015612636573d6000803e3d6000fd5b505050506040513d601f19601f8201168201806040525081019061265a9190613ee6565b905060008211801561266c5750600081115b156126b757600f5460065461268e91600160a060020a03918216911684612dbf565b600f546007546126ab91600160a060020a03918216911683612dbf565b6126b782828730612ea9565b436015556126c3612992565b5050505b505060018055565b600054600160a060020a031633146126fc5760405160e560020a62461bcd028152600401610b5090613dd5565b60118054600160a060020a031916600160a060020a0392909216919091179055565b60208181548110610b0957600080fd5b60218181548110610b0957600080fd5b600054600160a060020a0316331461276b5760405160e560020a62461bcd028152600401610b5090613dd5565b60068054600160a060020a031916600160a060020a0392909216919091179055565b60248181548110610b0957600080fd5b601454600160a060020a031633146127ca5760405160e560020a62461bcd028152600401610b5090613e0a565b60148054600160a060020a031916600160a060020a0383169081179091556040519081527f91a8c1cc2d4a3bb60738481947a00cbb9899c822916694cf8bb1d68172fdcd5490602001610c17565b600054600160a060020a031633146128455760405160e560020a62461bcd028152600401610b5090613dd5565b6002805491151563010000000263ff00000019909216919091179055565b60288181548110610b0957600080fd5b600054600160a060020a031633146128a05760405160e560020a62461bcd028152600401610b5090613dd5565b60108054600160a060020a031916600160a060020a0392909216919091179055565b600054600160a060020a031633146128ef5760405160e560020a62461bcd028152600401610b5090613dd5565b600160a060020a03811661296e5760405160e560020a62461bcd02815260206004820152602660248201527f4f776e61626c653a206e6577206f776e657220697320746865207a65726f206160448201527f64647265737300000000000000000000000000000000000000000000000000006064820152608401610b50565b61297781612d6f565b50565b6000611aaa8284613fc5565b6000611aaa8284613fdd565b6002546301000000900460ff166129ee5760405160e560020a62461bcd02815260206004820152600c60248201527f2169735a6f72726f436f6d7000000000000000000000000000000000000000006044820152606401610b50565b60055460405160e060020a6370a08231028152306004820152600091600160a060020a0316906370a0823190602401602060405180830381865afa158015612a3a573d6000803e3d6000fd5b505050506040513d601f19601f82011682018060405250810190612a5e9190613ee6565b601654909150612a6e908261297a565b601655600454600554612a8e91600160a060020a03918216911683612dbf565b600254610100900460ff1615612b1757600480546040517f41441d3b000000000000000000000000000000000000000000000000000000008152918201839052600160a060020a0316906341441d3b906024015b600060405180830381600087803b158015612afc57600080fd5b505af1158015612b10573d6000803e3d6000fd5b5050505050565b600480546003546040517fe2bbb1580000000000000000000000000000000000000000000000000000000081529283015260248201839052600160a060020a03169063e2bbb15890604401612ae2565b60025460ff16612bbc5760405160e560020a62461bcd02815260206004820152601460248201527f5061757361626c653a206e6f74207061757365640000000000000000000000006044820152606401610b50565b6002805460ff191690557f5db9ee0a495bf2e6ff9c91a7834c1ba4fdd244a5e8aa4e537bd38aeae4b073aa335b604051600160a060020a03909116815260200160405180910390a1565b6000611aaa8284613ff4565b6000611aaa8284614013565b600254610100900460ff1615612c7657600480546040517f1058d281000000000000000000000000000000000000000000000000000000008152918201839052600160a060020a031690631058d28190602401612ae2565b600480546003546040517f441a3e700000000000000000000000000000000000000000000000000000000081529283015260248201839052600160a060020a03169063441a3e7090604401612ae2565b604051600160a060020a0383166024820152604481018290526112729084907fa9059cbb00000000000000000000000000000000000000000000000000000000906064015b60408051601f198184030181529190526020810180517bffffffffffffffffffffffffffffffffffffffffffffffffffffffff167fffffffff0000000000000000000000000000000000000000000000000000000090931692909217909152613567565b60008054600160a060020a03838116600160a060020a0319831681178455604051919092169283917f8be0079c531659141344cd1fd0a4f28419497f9722a3daafe3b4186f6b6457e09190a35050565b6040517fdd62ed3e000000000000000000000000000000000000000000000000000000008152306004820152600160a060020a038381166024830152600091839186169063dd62ed3e90604401602060405180830381865afa158015612e29573d6000803e3d6000fd5b505050506040513d601f19601f82011682018060405250810190612e4d9190613ee6565b612e579190613fc5565b604051600160a060020a038516602482015260448101829052909150612ea39085907f095ea7b30000000000000000000000000000000000000000000000000000000090606401612d0b565b50505050565b600f54600654600754600160a060020a039283169263e8e3370092811691168787612eda6103e8610e88848b612c06565b612eea6103e8610e888c8c612c06565b88612ef74261025861297a565b6040518963ffffffff1660e060020a028152600401612f1d98979695949392919061404e565b6060604051808303816000875af1158015612f3c573d6000803e3d6000fd5b505050506040513d601f19601f82011682018060405250810190612f609190614097565b50505050505050565b60025460ff1615612f8f5760405160e560020a62461bcd028152600401610b5090613eaf565b6002805460ff191660011790557f62e78cea01bee320cd4e420270b5ea74000d11b0c9f74754ebdbfc544b05a258612be93390565b604051600160a060020a0380851660248301528316604482015260648101829052612ea39085907f23b872dd0000000000000000000000000000000000000000000000000000000090608401612d0b565b60065460105460405160e060020a6370a08231028152600160a060020a03918216600482015260009291909116906370a0823190602401602060405180830381865afa158015613069573d6000803e3d6000fd5b505050506040513d601f19601f8201168201806040525081019061308d9190613ee6565b60075460105460405160e060020a6370a08231028152600160a060020a0391821660048201529293506000929116906370a0823190602401602060405180830381865afa1580156130e2573d6000803e3d6000fd5b505050506040513d601f19601f820116820180604052508101906131069190613ee6565b90506000601060009054906101000a9004600160a060020a0316600160a060020a03166318160ddd6040518163ffffffff1660e060020a028152600401602060405180830381865afa158015613160573d6000803e3d6000fd5b505050506040513d601f19601f820116820180604052508101906131849190613ee6565b9050600061319e6103e8610e8888610e8286838d8b612c06565b905060006131b86103e8610e8889610e8287838e8b612c06565b600f54600654600754929350600160a060020a039182169263baa2abde9291821691168b86868c6131eb4261025861297a565b60405163ffffffff891660e060020a028152600160a060020a039788166004820152958716602487015260448601949094526064850192909252608484015290921660a482015260c481019190915260e40160408051808303816000875af115801561325b573d6000803e3d6000fd5b505050506040513d601f19601f8201168201806040525081019061327f91906140c5565b50505050505050505050565b600081156132e657601954156132e65760006132b8612710610e8860195486612c0690919063ffffffff16565b600e546008549192506132d891600160a060020a03908116911683612cc6565b6132e28382612986565b9250505b5090565b601a5460009081901561331557613312612710610e88601a5488612c0690919063ffffffff16565b90505b6000600254640100000000900460ff16156133455761333582868661364f565b6133408186866139a2565b6133f8565b601154600160a060020a031661337161335e848461297a565b601154600160a060020a03168888613a5f565b6003546040517fc8d9bc9400000000000000000000000000000000000000000000000000000000815260048101919091526024810184905260448101839052600160a060020a0382169063c8d9bc9490606401600060405180830381600087803b1580156133de57600080fd5b505af11580156133f2573d6000803e3d6000fd5b50505050505b61340c816134068885612986565b90612986565b9695505050505050565b8015806134a957506040517fdd62ed3e000000000000000000000000000000000000000000000000000000008152306004820152600160a060020a03838116602483015284169063dd62ed3e90604401602060405180830381865afa158015613483573d6000803e3d6000fd5b505050506040513d601f19601f820116820180604052508101906134a79190613ee6565b155b61351e5760405160e560020a62461bcd02815260206004820152603660248201527f5361666545524332303a20617070726f76652066726f6d206e6f6e2d7a65726f60448201527f20746f206e6f6e2d7a65726f20616c6c6f77616e6365000000000000000000006064820152608401610b50565b604051600160a060020a0383166024820152604481018290526112729084907f095ea7b30000000000000000000000000000000000000000000000000000000090606401612d0b565b60006135bc826040518060400160405280602081526020017f5361666545524332303a206c6f772d6c6576656c2063616c6c206661696c656481525085600160a060020a0316613af49092919063ffffffff16565b80519091501561127257808060200190518101906135da91906140e9565b6112725760405160e560020a62461bcd02815260206004820152602a60248201527f5361666545524332303a204552433230206f7065726174696f6e20646964206e60448201527f6f742073756363656564000000000000000000000000000000000000000000006064820152608401610b50565b600f5460085461366c91600160a060020a03918216911685612dbf565b600f5473__SafeSwapUni___________________________90632b08bab190600160a060020a031661369f866002612c12565b60408501356060860135876028306136b94261025861297a565b6040518963ffffffff1660e060020a0281526004016136df989796959493929190613eff565b60006040518083038186803b1580156136f757600080fd5b505af415801561370b573d6000803e3d6000fd5b5050600f5473__SafeSwapUni___________________________9250632b08bab19150600160a060020a0316613742866002612c12565b604085013560808601358760293061375c4261025861297a565b6040518963ffffffff1660e060020a028152600401613782989796959493929190613eff565b60006040518083038186803b15801561379a57600080fd5b505af41580156137ae573d6000803e3d6000fd5b5050600b5460405160e060020a6370a0823102815230600482015260009350600160a060020a0390911691506370a0823190602401602060405180830381865afa158015613800573d6000803e3d6000fd5b505050506040513d601f19601f820116820180604052508101906138249190613ee6565b600c5460405160e060020a6370a08231028152306004820152919250600091600160a060020a03909116906370a0823190602401602060405180830381865afa158015613875573d6000803e3d6000fd5b505050506040513d601f19601f820116820180604052508101906138999190613ee6565b600f546006549192506138b991600160a060020a03908116911684612dbf565b600f546007546138d691600160a060020a03918216911683612dbf565b600f54600b54600c54600160a060020a039283169263e8e33700928116911685856139076103e8610e88848d612c06565b6139176103e8610e888a8e612c06565b600d54600160a060020a031661392f4261025861297a565b6040518963ffffffff1660e060020a02815260040161395598979695949392919061404e565b6060604051808303816000875af1158015613974573d6000803e3d6000fd5b505050506040513d601f19601f820116820180604052508101906139989190614097565b5050505050505050565b600f546008546139bf91600160a060020a03918216911685612dbf565b600f5460135473__SafeSwapUni___________________________91632b08bab191600160a060020a0391821691879160408701359160a088013591899160239116613a0d4261025861297a565b6040518963ffffffff1660e060020a028152600401613a33989796959493929190613eff565b60006040518083038186803b158015613a4b57600080fd5b505af4158015612f60573d6000803e3d6000fd5b600f5473__SafeSwapUni___________________________90632b08bab190600160a060020a031686604085013560c086013587602c8a613aa24261025861297a565b6040518963ffffffff1660e060020a028152600401613ac8989796959493929190613eff565b60006040518083038186803b158015613ae057600080fd5b505af4158015613998573d6000803e3d6000fd5b6060611fa3848460008585600160a060020a0385163b613b595760405160e560020a62461bcd02815260206004820152601d60248201527f416464726573733a2063616c6c20746f206e6f6e2d636f6e74726163740000006044820152606401610b50565b60008086600160a060020a03168587604051613b759190614132565b60006040518083038185875af1925050503d8060008114613bb2576040519150601f19603f3d011682016040523d82523d6000602084013e613bb7565b606091505b5091509150613bc7828286613bd2565b979650505050505050565b60608315613be1575081611aaa565b825115613bf15782518084602001fd5b8160405160e560020a62461bcd028152600401610b50919061414e565b600060208284031215613c2057600080fd5b5035919050565b8035600160a060020a0381168114613c3e57600080fd5b919050565b600060208284031215613c5557600080fd5b611aaa82613c27565b801515811461297757600080fd5b600060208284031215613c7e57600080fd5b8135611aaa81613c5e565b60008060408385031215613c9c57600080fd5b613ca583613c27565b91506020830135613cb581613c5e565b809150509250929050565b600080600060608486031215613cd557600080fd5b613cde84613c27565b925060208401359150613cf360408501613c27565b90509250925092565b600080600080600060a08688031215613d1457600080fd5b505083359560208501359550604085013594606081013594506080013592509050565b600060e08284031215613d4957600080fd5b50919050565b60008060006101208486031215613d6557600080fd5b8335925060208401359150613cf38560408601613d37565b60008060408385031215613d9057600080fd5b613d9983613c27565b946020939093013593505050565b6000806101008385031215613dbb57600080fd5b82359150613dcc8460208501613d37565b90509250929050565b6020808252818101527f4f776e61626c653a2063616c6c6572206973206e6f7420746865206f776e6572604082015260600190565b60208082526004908201527f21676f7600000000000000000000000000000000000000000000000000000000604082015260600190565b6020808252601f908201527f5265656e7472616e637947756172643a207265656e7472616e742063616c6c00604082015260600190565b60208082526010908201527f217a6f72726f436f6e74726f6c6c657200000000000000000000000000000000604082015260600190565b60208082526010908201527f5061757361626c653a2070617573656400000000000000000000000000000000604082015260600190565b600060208284031215613ef857600080fd5b5051919050565b6000610100808301600160a060020a03808d16855260208c818701528b60408701528a60608701528960808701528360a08701528293508854808452610120870194508960005281600020935060005b81811015613f6d578454841686529482019460019485019401613f4f565b50505050600160a060020a03861660c08501525090508260e08301529998505050505050505050565b7f4e487b7100000000000000000000000000000000000000000000000000000000600052601160045260246000fd5b60008219821115613fd857613fd8613f96565b500190565b600082821015613fef57613fef613f96565b500390565b600081600019048311821515161561400e5761400e613f96565b500290565b600082614049577f4e487b7100000000000000000000000000000000000000000000000000000000600052601260045260246000fd5b500490565b600160a060020a039889168152968816602088015260408701959095526060860193909352608085019190915260a084015290921660c082015260e08101919091526101000190565b6000806000606084860312156140ac57600080fd5b8351925060208401519150604084015190509250925092565b600080604083850312156140d857600080fd5b505080516020909101519092909150565b6000602082840312156140fb57600080fd5b8151611aaa81613c5e565b60005b83811015614121578181015183820152602001614109565b83811115612ea35750506000910152565b60008251614144818460208701614106565b9190910192915050565b602081526000825180602084015261416d816040850160208701614106565b601f01601f1916919091016040019291505056fea264697066735822122099afbd2fc5a4bf49df81287964523037601f7a3bbb16dea00398d37cd4529e2564736f6c634300080a0033",
  "immutableReferences": {},
  "source": "// SPDX-License-Identifier: MIT\n\npragma solidity ^0.8.0;\n\nimport \"@openzeppelin/contracts/token/ERC20/ERC20.sol\";\n\nimport \"@openzeppelin/contracts/utils/Address.sol\";\n\nimport \"../interfaces/IAMMFarm.sol\";\n\nimport \"../interfaces/IAMMRouter02.sol\";\n\nimport \"./_VaultBase.sol\";\n\nimport \"@openzeppelin/contracts/token/ERC20/IERC20.sol\";\n\nimport \"@openzeppelin/contracts/token/ERC20/utils/SafeERC20.sol\";\n\nimport \"@openzeppelin/contracts/utils/math/SafeMath.sol\";\n\nimport \"../libraries/SafeSwap.sol\";\n\n/// @title VaultStandardAMM: abstract base class for all PancakeSwap style AMM contracts. Maximizes yield in AMM.\ncontract VaultStandardAMM is VaultBase {\n    /* Libraries */\n    using SafeERC20 for IERC20;\n    using SafeMath for uint256;\n    using SafeSwapUni for IAMMRouter02;\n\n    /* Constructor */\n    /// @notice Constructor\n    /// @param _addresses Array of [govAddress, zorroControllerAddress, ZORROAddress, wantAddress, token0Address, token1Address, earnedAddress, farmContractAddress, rewardsAddress, poolAddress, uniRouterAddress, zorroLPPool, zorroLPPoolToken0, zorroLPPoolToken1]\n    /// @param _pid Pool ID this Vault is associated with\n    /// @param _isCOREStaking If true, is for staking just core token of AMM (e.g. CAKE for Pancakeswap, BANANA for Apeswap, etc.). Set to false for Zorro single staking vault\n    /// @param _isSingleAssetDeposit Same asset token (not LP pair). Set to True for pools with single assets (ZOR, CAKE, BANANA, ADA, etc.)\n    /// @param _isZorroComp This vault is for compounding. If true, will trigger farming/unfarming on earn events. Set to false for Zorro single staking vault\n    /// @param _isHomeChain Whether this contract is deployed on the home chain\n    /// @param _swapPaths A flattened array of swap paths for a Uniswap style router. Ordered as: [earnedToZORROPath, earnedToToken0Path, earnedToToken1Path, USDCToToken0Path, USDCToToken1Path, earnedToZORLPPoolToken0Path, earnedToZORLPPoolToken1Path, earnedToUSDCPath, USDCToZORROPath]\n    /// @param _swapPathStartIndexes An array of start indexes within _swapPaths to represent the start of a new swap path\n    /// @param _fees Array of [_controllerFee, _buyBackRate, _entranceFeeFactor, _withdrawFeeFactor]\n    constructor(\n        address[] memory _addresses,\n        uint256 _pid,\n        bool _isCOREStaking,\n        bool _isSingleAssetDeposit,\n        bool _isZorroComp,\n        bool _isHomeChain,\n        address[] memory _swapPaths,\n        uint16[] memory _swapPathStartIndexes,\n        uint256[] memory _fees\n    ) {\n        // Key addresses\n        govAddress = _addresses[0];\n        zorroControllerAddress = _addresses[1];\n        ZORROAddress = _addresses[2];\n        wantAddress = _addresses[3];\n        token0Address = _addresses[4];\n        token1Address = _addresses[5];\n        earnedAddress = _addresses[6];\n        farmContractAddress = _addresses[7];\n        rewardsAddress = _addresses[8];\n        poolAddress = _addresses[9];\n        uniRouterAddress = _addresses[10];\n        zorroLPPool = _addresses[11];\n        zorroLPPoolToken0 = _addresses[12];\n        zorroLPPoolToken1 = _addresses[13];\n\n        // Vault characteristics\n        pid = _pid;\n        isCOREStaking = _isCOREStaking;\n        isSingleAssetDeposit = _isSingleAssetDeposit;\n        isZorroComp = _isZorroComp;\n        isHomeChain = _isHomeChain;\n\n        // Swap paths by unflattening _swapPaths\n        _unpackSwapPaths(_swapPaths, _swapPathStartIndexes);\n\n        // Corresponding reverse paths\n        token0ToEarnedPath = _reversePath(earnedToToken0Path);\n        token1ToEarnedPath = _reversePath(earnedToToken1Path);\n        token0ToUSDCPath = _reversePath(USDCToToken0Path);\n        token1ToUSDCPath = _reversePath(USDCToToken1Path);\n\n        // Fees\n        controllerFee = _fees[0];\n        buyBackRate = _fees[1];\n        entranceFeeFactor = _fees[2];\n        withdrawFeeFactor = _fees[3];\n    }\n\n    /* Investment Actions */\n\n    /// @notice Receives new deposits from user\n    /// @param _account The address of the end user account making the deposit\n    /// @param _wantAmt The amount of Want token to deposit (must already be transferred)\n    /// @return Number of shares added\n    function depositWantToken(address _account, uint256 _wantAmt)\n        public\n        override\n        onlyZorroController\n        nonReentrant\n        whenNotPaused\n        returns (uint256)\n    {\n        // Preflight checks\n        require(_wantAmt > 0, \"Want token deposit must be > 0\");\n\n        // Transfer Want token from sender\n        IERC20(wantAddress).safeTransferFrom(\n            msg.sender,\n            address(this),\n            _wantAmt\n        );\n\n        // Set sharesAdded to the Want token amount specified\n        uint256 sharesAdded = _wantAmt;\n        // If the total number of shares and want tokens locked both exceed 0, the shares added is the proportion of Want tokens locked,\n        // discounted by the entrance fee\n        if (wantLockedTotal > 0 && sharesTotal > 0) {\n            sharesAdded = _wantAmt\n                .mul(sharesTotal)\n                .mul(entranceFeeFactor)\n                .div(wantLockedTotal)\n                .div(entranceFeeFactorMax);\n        }\n        // Increment the shares\n        sharesTotal = sharesTotal.add(sharesAdded);\n        userShares[_account] = userShares[_account].add(sharesAdded);\n\n        if (isZorroComp) {\n            // If this contract is meant for Autocompounding, start to farm the staked token\n            _farm();\n        } else {\n            // Otherwise, simply increment the quantity of total Want tokens locked\n            wantLockedTotal = wantLockedTotal.add(_wantAmt);\n        }\n\n        return sharesAdded;\n    }\n\n    /// @notice Performs necessary operations to convert USDC into Want token and transfer back to sender\n    /// @param _amountUSDC The amount of USDC to exchange for Want token (must already be deposited on this contract)\n    /// @param _maxMarketMovementAllowed The max slippage allowed. 1000 = 0 %, 995 = 0.5%, etc.\n    /// @param _priceData A PriceData struct containing the latest prices for relevant tokens\n    /// @return Amount of Want token obtained\n    function exchangeUSDForWantToken(\n        uint256 _amountUSDC,\n        uint256 _maxMarketMovementAllowed,\n        PriceData calldata _priceData\n    ) public override onlyZorroController whenNotPaused returns (uint256) {\n        // Get balance of deposited USDC\n        uint256 _balUSDC = IERC20(tokenUSDCAddress).balanceOf(msg.sender);\n        // Check that USDC was actually deposited\n        require(_amountUSDC > 0, \"USDC deposit must be > 0\");\n        require(_amountUSDC <= _balUSDC, \"USDC desired exceeded bal\");\n\n        // For single token pools, simply swap to Want token right away\n        if (isSingleAssetDeposit) {\n            // Swap USDC for Want token\n            IAMMRouter02(uniRouterAddress).safeSwap(\n                _amountUSDC,\n                _priceData.tokenUSDC,\n                _priceData.token0,\n                _maxMarketMovementAllowed,\n                USDCToWantPath,\n                msg.sender,\n                block.timestamp.add(600)\n            );\n        } else {\n            // For multi token pools (i.e. LP pools)\n\n            // Swap USDC for token0\n            IAMMRouter02(uniRouterAddress).safeSwap(\n                _amountUSDC.div(2),\n                _priceData.tokenUSDC,\n                _priceData.token0,\n                _maxMarketMovementAllowed,\n                USDCToToken0Path,\n                address(this),\n                block.timestamp.add(600)\n            );\n\n            // Swap USDC for token1 (if applicable)\n            IAMMRouter02(uniRouterAddress).safeSwap(\n                _amountUSDC.div(2),\n                _priceData.tokenUSDC,\n                _priceData.token1,\n                _maxMarketMovementAllowed,\n                USDCToToken1Path,\n                address(this),\n                block.timestamp.add(600)\n            );\n\n            // Deposit token0, token1 into LP pool to get Want token (i.e. LP token)\n            uint256 token0Amt = IERC20(token0Address).balanceOf(address(this));\n            uint256 token1Amt = IERC20(token1Address).balanceOf(address(this));\n            IERC20(token0Address).safeIncreaseAllowance(\n                uniRouterAddress,\n                token0Amt\n            );\n            IERC20(token1Address).safeIncreaseAllowance(\n                uniRouterAddress,\n                token1Amt\n            );\n            _joinPool(\n                token0Amt,\n                token1Amt,\n                _maxMarketMovementAllowed,\n                msg.sender\n            );\n        }\n\n        // Calculate resulting want token balance\n        return IERC20(wantAddress).balanceOf(msg.sender);\n    }\n\n    /// @notice Public function for farming Want token.\n    function farm() public nonReentrant {\n        _farm();\n    }\n\n    /// @notice Internal function for farming Want token. Responsible for staking Want token in a MasterChef/MasterApe-like contract\n    function _farm() internal {\n        // Farming should only occur if this contract is set for autocompounding\n        require(isZorroComp, \"!isZorroComp\");\n\n        // Get the Want token stored on this contract\n        uint256 wantAmt = IERC20(wantAddress).balanceOf(address(this));\n        // Increment the total Want tokens locked into this contract\n        wantLockedTotal = wantLockedTotal.add(wantAmt);\n        // Allow the farm contract (e.g. MasterChef/MasterApe) the ability to transfer up to the Want amount\n        IERC20(wantAddress).safeIncreaseAllowance(farmContractAddress, wantAmt);\n\n        if (isCOREStaking) {\n            // If this contract is meant for staking a core asset of the underlying protocol (e.g. CAKE on Pancakeswap, BANANA on Apeswap),\n            // Stake that token in a single-token-staking vault on the Farm contract\n            IAMMFarm(farmContractAddress).enterStaking(wantAmt);\n        } else {\n            // Otherwise deposit the Want tokens in the Farm contract for the appropriate pool ID (PID)\n            IAMMFarm(farmContractAddress).deposit(pid, wantAmt);\n        }\n    }\n\n    /// @notice Internal function for unfarming Want token. Responsible for unstaking Want token from MasterChef/MasterApe contracts\n    /// @param _wantAmt the amount of Want tokens to withdraw. If 0, will only harvest and not withdraw\n    function _unfarm(uint256 _wantAmt) internal {\n        if (isCOREStaking) {\n            // If this is contract is meant for staking a core assets of the underlying protocol,\n            // simply un-stake the asset from the single-token-staking vault on the Farm contract\n            IAMMFarm(farmContractAddress).leaveStaking(_wantAmt); // Just for CAKE staking, we dont use withdraw()\n        } else {\n            // Otherwise simply withdraw the Want tokens from the Farm contract pool\n            IAMMFarm(farmContractAddress).withdraw(pid, _wantAmt);\n        }\n    }\n\n    /// @notice Fully withdraw Want tokens from the Farm contract (100% withdrawals only)\n    /// @param _account address of user\n    /// @param _harvestOnly If true, will only harvest Zorro tokens but not do a withdrawal\n    /// @return The number of shares removed\n    function withdrawWantToken(address _account, bool _harvestOnly)\n        public\n        override\n        onlyZorroController\n        nonReentrant\n        whenNotPaused\n        returns (uint256)\n    {\n        uint256 _wantAmt = 0;\n        if (!_harvestOnly) {\n            uint256 _userNumShares = userShares[_account];\n            _wantAmt = IERC20(wantAddress)\n                .balanceOf(address(this))\n                .mul(_userNumShares)\n                .div(sharesTotal);\n        }\n\n        // Shares removed is proportional to the % of total Want tokens locked that _wantAmt represents\n        uint256 sharesRemoved = _wantAmt.mul(sharesTotal).div(wantLockedTotal);\n        // Safety: cap the shares to the total number of shares\n        if (sharesRemoved > sharesTotal) {\n            sharesRemoved = sharesTotal;\n        }\n        // Decrement the total shares by the sharesRemoved\n        sharesTotal = sharesTotal.sub(sharesRemoved);\n        userShares[_account] = userShares[_account].sub(sharesRemoved);\n\n        // If a withdrawal fee is specified, discount the _wantAmt by the withdrawal fee\n        if (withdrawFeeFactor < withdrawFeeFactorMax) {\n            _wantAmt = _wantAmt.mul(withdrawFeeFactor).div(\n                withdrawFeeFactorMax\n            );\n        }\n\n        // If this contract is designated for auto compounding, unfarm the Want tokens\n        if (isZorroComp) {\n            _unfarm(_wantAmt);\n        }\n\n        // Safety: Check balance of this contract's Want tokens held, and cap _wantAmt to that value\n        uint256 _wantBal = IERC20(wantAddress).balanceOf(address(this));\n        if (_wantAmt > _wantBal) {\n            _wantAmt = _wantBal;\n        }\n        // Safety: cap _wantAmt at the total quantity of Want tokens locked\n        if (wantLockedTotal < _wantAmt) {\n            _wantAmt = wantLockedTotal;\n        }\n\n        // Decrement the total Want locked tokens by the _wantAmt\n        wantLockedTotal = wantLockedTotal.sub(_wantAmt);\n\n        // Finally, transfer the want amount from this contract, back to the ZorroController contract\n        IERC20(wantAddress).safeTransfer(zorroControllerAddress, _wantAmt);\n\n        return sharesRemoved;\n    }\n\n    /// @notice Converts Want token back into USD to be ready for withdrawal, transfers back to sender\n    /// @param _amount The Want token quantity to exchange\n    /// @param _maxMarketMovementAllowed The max slippage allowed for swaps. 1000 = 0 %, 995 = 0.5%, etc.\n    /// @param _priceData A PriceData struct containing the latest prices for relevant tokens\n    /// @return Amount of USDC token obtained\n    function exchangeWantTokenForUSD(\n        uint256 _amount,\n        uint256 _maxMarketMovementAllowed,\n        PriceData calldata _priceData\n    )\n        public\n        virtual\n        override\n        onlyZorroController\n        whenNotPaused\n        returns (uint256)\n    {\n        // Preflight checks\n        require(_amount > 0, \"Want amt must be > 0\");\n\n        // Safely transfer Want token from sender\n        IERC20(wantAddress).safeTransferFrom(\n            msg.sender,\n            address(this),\n            _amount\n        );\n\n        // Check if vault is for single asset staking\n        if (isSingleAssetDeposit) {\n            // If so, immediately swap the Want token for USDC\n\n            IAMMRouter02(uniRouterAddress).safeSwap(\n                _amount,\n                _priceData.token0,\n                _priceData.tokenUSDC,\n                _maxMarketMovementAllowed,\n                WantToUSDCPath,\n                msg.sender,\n                block.timestamp.add(600)\n            );\n        } else {\n            // If not, exit the LP pool and swap assets to USDC\n\n            // Exit LP pool\n            _exitPool(_amount, _maxMarketMovementAllowed, address(this));\n\n            // Swap tokens back to USDC\n            uint256 token0Amt = IERC20(token0Address).balanceOf(address(this));\n            uint256 token1Amt = IERC20(token1Address).balanceOf(address(this));\n            // Swap token0 for USDC\n            IAMMRouter02(uniRouterAddress).safeSwap(\n                token0Amt,\n                _priceData.token0,\n                _priceData.tokenUSDC,\n                _maxMarketMovementAllowed,\n                token0ToUSDCPath,\n                msg.sender,\n                block.timestamp.add(600)\n            );\n\n            // Swap token1 for USDC (if applicable)\n            if (token1Address != address(0)) {\n                IAMMRouter02(uniRouterAddress).safeSwap(\n                    token1Amt,\n                    _priceData.token1,\n                    _priceData.tokenUSDC,\n                    _maxMarketMovementAllowed,\n                    token1ToUSDCPath,\n                    msg.sender,\n                    block.timestamp.add(600)\n                );\n            }\n        }\n\n        // Calculate USDC balance\n        return IERC20(tokenUSDCAddress).balanceOf(msg.sender);\n    }\n\n    /// @notice Adds liquidity to the pool of this contract\n    /// @param _token0Amt Quantity of Token0 to add\n    /// @param _token1Amt Quantity of Token1 to add\n    /// @param _maxMarketMovementAllowed The max slippage allowed for swaps. 1000 = 0 %, 995 = 0.5%, etc.\n    /// @param _recipient The recipient of the LP token\n    function _joinPool(\n        uint256 _token0Amt,\n        uint256 _token1Amt,\n        uint256 _maxMarketMovementAllowed,\n        address _recipient\n    ) internal {\n        IAMMRouter02(uniRouterAddress).addLiquidity(\n            token0Address,\n            token1Address,\n            _token0Amt,\n            _token1Amt,\n            _token0Amt.mul(_maxMarketMovementAllowed).div(1000),\n            _token1Amt.mul(_maxMarketMovementAllowed).div(1000),\n            _recipient,\n            block.timestamp.add(600)\n        );\n    }\n\n    /// @notice Removes liquidity from a pool and sends tokens back to this address\n    /// @param _amountLP The amount of LP (Want) tokens to remove\n    /// @param _maxMarketMovementAllowed The max slippage allowed for swaps. 1000 = 0 %, 995 = 0.5%, etc.\n    /// @param _recipient The recipient of the underlying tokens at pool exit\n    function _exitPool(\n        uint256 _amountLP,\n        uint256 _maxMarketMovementAllowed,\n        address _recipient\n    ) internal {\n        // Get token balances in LP pool\n        uint256 _balance0 = IERC20(token0Address).balanceOf(poolAddress);\n        uint256 _balance1 = IERC20(token1Address).balanceOf(poolAddress);\n\n        // Get total supply and calculate min amounts desired based on slippage\n        uint256 _totalSupply = IERC20(poolAddress).totalSupply();\n        uint256 _amount0Min = (_amountLP.mul(_balance0).div(_totalSupply))\n            .mul(_maxMarketMovementAllowed)\n            .div(1000);\n        uint256 _amount1Min = (_amountLP.mul(_balance1).div(_totalSupply))\n            .mul(_maxMarketMovementAllowed)\n            .div(1000);\n\n        // Remove liquidity\n        IAMMRouter02(uniRouterAddress).removeLiquidity(\n            token0Address,\n            token1Address,\n            _amountLP,\n            _amount0Min,\n            _amount1Min,\n            _recipient,\n            block.timestamp.add(600)\n        );\n    }\n\n    /// @notice The main compounding (earn) function. Reinvests profits since the last earn event.\n    /// @param _maxMarketMovementAllowed The max slippage allowed. 1000 = 0 %, 995 = 0.5%, etc.\n    function earn(\n        uint256 _maxMarketMovementAllowed,\n        PriceData calldata _priceData\n    )\n        public\n        override\n        nonReentrant\n        whenNotPaused\n    {\n        // Only to be run if this contract is configured for auto-comnpounding\n        require(isZorroComp, \"!isZorroComp\");\n        // If onlyGov is set to true, only allow to proceed if the current caller is the govAddress\n        if (onlyGov) {\n            require(msg.sender == govAddress, \"!gov\");\n        }\n\n        // Harvest farm tokens\n        _unfarm(0);\n\n        // Get the balance of the Earned token on this contract (CAKE, BANANA, etc.)\n        uint256 earnedAmt = IERC20(earnedAddress).balanceOf(address(this));\n\n        // Reassign value of earned amount after distributing fees\n        earnedAmt = _distributeFees(earnedAmt);\n        // Reassign value of earned amount after buying back a certain amount of Zorro and sharing revenue w/ ZOR stakeholders\n        earnedAmt = _buyBackAndRevShare(earnedAmt, _maxMarketMovementAllowed, _priceData);\n\n        // If staking a single token (CAKE, BANANA), farm that token and exit\n        if (isCOREStaking || isSingleAssetDeposit) {\n            // Update the last earn block\n            lastEarnBlock = block.number;\n            _farm();\n            return;\n        }\n\n        // Approve the router contract\n        IERC20(earnedAddress).safeApprove(uniRouterAddress, 0);\n        // Allow the router contract to spen up to earnedAmt\n        IERC20(earnedAddress).safeIncreaseAllowance(\n            uniRouterAddress,\n            earnedAmt\n        );\n\n        // Swap Earned token to token0 if token0 is not the Earned token\n        if (earnedAddress != token0Address) {\n            // Swap half earned to token0\n            IAMMRouter02(uniRouterAddress).safeSwap(\n                earnedAmt.div(2),\n                _priceData.earnToken,\n                _priceData.token0,\n                slippageFactor,\n                earnedToToken0Path,\n                address(this),\n                block.timestamp.add(600)\n            );\n        }\n\n        // Swap Earned token to token1 if token0 is not the Earned token\n        if (earnedAddress != token1Address) {\n            // Swap half earned to token1\n            IAMMRouter02(uniRouterAddress).safeSwap(\n                earnedAmt.div(2),\n                _priceData.earnToken,\n                _priceData.token1,\n                slippageFactor,\n                earnedToToken1Path,\n                address(this),\n                block.timestamp.add(600)\n            );\n        }\n\n        // Get values of tokens 0 and 1\n        uint256 token0Amt = IERC20(token0Address).balanceOf(address(this));\n        uint256 token1Amt = IERC20(token1Address).balanceOf(address(this));\n        // Provided that token0 and token1 are both > 0, add liquidity\n        if (token0Amt > 0 && token1Amt > 0) {\n            // Increase the allowance of the router to spend token0\n            IERC20(token0Address).safeIncreaseAllowance(\n                uniRouterAddress,\n                token0Amt\n            );\n            // Increase the allowance of the router to spend token1\n            IERC20(token1Address).safeIncreaseAllowance(\n                uniRouterAddress,\n                token1Amt\n            );\n            // Add liquidity\n            _joinPool(\n                token0Amt,\n                token1Amt,\n                _maxMarketMovementAllowed,\n                address(this)\n            );\n        }\n\n        // Update last earned block\n        lastEarnBlock = block.number;\n\n        // Farm Want token\n        _farm();\n    }\n\n    /// @notice Buys back the earned token on-chain, swaps it to add liquidity to the ZOR pool, then burns the associated LP token\n    /// @dev Requires funds to be sent to this address before calling. Can be called internally OR by controller\n    /// @param _amount The amount of Earn token to buy back\n    /// @param _maxMarketMovementAllowed Slippage factor. 950 = 5%, 990 = 1%, etc.\n    /// @param _priceData A PriceData struct containing the latest prices for relevant tokens\n    function _buybackOnChain(\n        uint256 _amount,\n        uint256 _maxMarketMovementAllowed,\n        PriceData calldata _priceData\n    ) internal override {\n        // Authorize spending beforehand\n        IERC20(earnedAddress).safeIncreaseAllowance(uniRouterAddress, _amount);\n\n        // Swap to Token 0\n        IAMMRouter02(uniRouterAddress).safeSwap(\n            _amount.div(2),\n            _priceData.earnToken,\n            _priceData.lpPoolToken0,\n            _maxMarketMovementAllowed,\n            earnedToZORLPPoolToken0Path,\n            address(this),\n            block.timestamp.add(600)\n        );\n\n        // Swap to Token 1\n        IAMMRouter02(uniRouterAddress).safeSwap(\n            _amount.div(2),\n            _priceData.earnToken,\n            _priceData.lpPoolToken1,\n            _maxMarketMovementAllowed,\n            earnedToZORLPPoolToken1Path,\n            address(this),\n            block.timestamp.add(600)\n        );\n\n        // Enter LP pool\n        uint256 token0Amt = IERC20(zorroLPPoolToken0).balanceOf(address(this));\n        uint256 token1Amt = IERC20(zorroLPPoolToken1).balanceOf(address(this));\n        IERC20(token0Address).safeIncreaseAllowance(\n            uniRouterAddress,\n            token0Amt\n        );\n        IERC20(token1Address).safeIncreaseAllowance(\n            uniRouterAddress,\n            token1Amt\n        );\n        IAMMRouter02(uniRouterAddress).addLiquidity(\n            zorroLPPoolToken0,\n            zorroLPPoolToken1,\n            token0Amt,\n            token1Amt,\n            token0Amt.mul(_maxMarketMovementAllowed).div(1000),\n            token1Amt.mul(_maxMarketMovementAllowed).div(1000),\n            burnAddress,\n            block.timestamp.add(600)\n        );\n    }\n\n    /// @notice Sends the specified earnings amount as revenue share to ZOR stakers\n    /// @param _amount The amount of Earn token to share as revenue with ZOR stakers\n    /// @param _priceData A PriceData struct containing the latest prices for relevant tokens\n    function _revShareOnChain(\n        uint256 _amount,\n        uint256 _maxMarketMovementAllowed,\n        PriceData calldata _priceData\n    ) internal override {\n        // Authorize spending beforehand\n        IERC20(earnedAddress).safeIncreaseAllowance(uniRouterAddress, _amount);\n\n        // Swap to ZOR\n        IAMMRouter02(uniRouterAddress).safeSwap(\n            _amount,\n            _priceData.earnToken,\n            _priceData.zorroToken,\n            _maxMarketMovementAllowed,\n            earnedToZORROPath,\n            zorroStakingVault,\n            block.timestamp.add(600)\n        );\n    }\n\n    /// @notice Swaps Earn token to USDC and sends to destination specified\n    /// @param _earnedAmount Quantity of Earned tokens\n    /// @param _destination Address to send swapped USDC to\n    /// @param _maxMarketMovementAllowed Slippage factor. 950 = 5%, 990 = 1%, etc.\n    /// @param _priceData A PriceData struct containing the latest prices for relevant tokens\n    function _swapEarnedToUSDC(\n        uint256 _earnedAmount,\n        address _destination,\n        uint256 _maxMarketMovementAllowed,\n        PriceData calldata _priceData\n    ) internal override {\n        // Perform swap with Uni router\n        IAMMRouter02(uniRouterAddress).safeSwap(\n            _earnedAmount,\n            _priceData.earnToken,\n            _priceData.tokenUSDC,\n            _maxMarketMovementAllowed,\n            earnedToUSDCPath,\n            _destination,\n            block.timestamp.add(600)\n        );\n    }\n}\n",
  "sourcePath": "/Users/kristophm/Documents/workspace/zorro-protocol/contracts/vaults/VaultStandardAMM.sol",
  "compiler": {
    "name": "solc",
    "version": "0.8.10+commit.fc410830.Emscripten.clang"
  },
  "schemaVersion": "3.4.4",
  "updatedAt": "2022-03-28T17:18:59.800Z",
  "devdoc": {
    "kind": "dev",
    "methods": {
      "constructor": {
        "params": {
          "_addresses": "Array of [govAddress, zorroControllerAddress, ZORROAddress, wantAddress, token0Address, token1Address, earnedAddress, farmContractAddress, rewardsAddress, poolAddress, uniRouterAddress, zorroLPPool, zorroLPPoolToken0, zorroLPPoolToken1]",
          "_fees": "Array of [_controllerFee, _buyBackRate, _entranceFeeFactor, _withdrawFeeFactor]",
          "_isCOREStaking": "If true, is for staking just core token of AMM (e.g. CAKE for Pancakeswap, BANANA for Apeswap, etc.). Set to false for Zorro single staking vault",
          "_isHomeChain": "Whether this contract is deployed on the home chain",
          "_isSingleAssetDeposit": "Same asset token (not LP pair). Set to True for pools with single assets (ZOR, CAKE, BANANA, ADA, etc.)",
          "_isZorroComp": "This vault is for compounding. If true, will trigger farming/unfarming on earn events. Set to false for Zorro single staking vault",
          "_pid": "Pool ID this Vault is associated with",
          "_swapPathStartIndexes": "An array of start indexes within _swapPaths to represent the start of a new swap path",
          "_swapPaths": "A flattened array of swap paths for a Uniswap style router. Ordered as: [earnedToZORROPath, earnedToToken0Path, earnedToToken1Path, USDCToToken0Path, USDCToToken1Path, earnedToZORLPPoolToken0Path, earnedToZORLPPoolToken1Path, earnedToUSDCPath, USDCToZORROPath]"
        }
      },
      "depositWantToken(address,uint256)": {
        "params": {
          "_account": "The address of the end user account making the deposit",
          "_wantAmt": "The amount of Want token to deposit (must already be transferred)"
        },
        "returns": {
          "_0": "Number of shares added"
        }
      },
      "earn(uint256,(uint256,uint256,uint256,uint256,uint256,uint256,uint256))": {
        "params": {
          "_maxMarketMovementAllowed": "The max slippage allowed. 1000 = 0 %, 995 = 0.5%, etc."
        }
      },
      "exchangeUSDForWantToken(uint256,uint256,(uint256,uint256,uint256,uint256,uint256,uint256,uint256))": {
        "params": {
          "_amountUSDC": "The amount of USDC to exchange for Want token (must already be deposited on this contract)",
          "_maxMarketMovementAllowed": "The max slippage allowed. 1000 = 0 %, 995 = 0.5%, etc.",
          "_priceData": "A PriceData struct containing the latest prices for relevant tokens"
        },
        "returns": {
          "_0": "Amount of Want token obtained"
        }
      },
      "exchangeWantTokenForUSD(uint256,uint256,(uint256,uint256,uint256,uint256,uint256,uint256,uint256))": {
        "params": {
          "_amount": "The Want token quantity to exchange",
          "_maxMarketMovementAllowed": "The max slippage allowed for swaps. 1000 = 0 %, 995 = 0.5%, etc.",
          "_priceData": "A PriceData struct containing the latest prices for relevant tokens"
        },
        "returns": {
          "_0": "Amount of USDC token obtained"
        }
      },
      "inCaseTokensGetStuck(address,uint256,address)": {
        "params": {
          "_amount": "The amount of the tokens to transfer",
          "_to": "The address to transfer tokens to",
          "_token": "Address of the ERC20 token to transfer"
        }
      },
      "owner()": {
        "details": "Returns the address of the current owner."
      },
      "paused()": {
        "details": "Returns true if the contract is paused, and false otherwise."
      },
      "renounceOwnership()": {
        "details": "Leaves the contract without owner. It will not be possible to call `onlyOwner` functions anymore. Can only be called by the current owner. NOTE: Renouncing ownership will leave the contract without an owner, thereby removing any functionality that is only available to the owner."
      },
      "setFeeSettings(uint256,uint256,uint256,uint256,uint256)": {
        "params": {
          "_buyBackRate": "Buy back rate fee numerator",
          "_controllerFee": "Controller fee numerator",
          "_entranceFeeFactor": "Entrance fee numerator (higher means smaller percentage)",
          "_slippageFactor": "Slippage factor fee numerator",
          "_withdrawFeeFactor": "Withdrawal fee numerator (higher means smaller percentage)"
        }
      },
      "setGov(address)": {
        "params": {
          "_govAddress": "The new gov address"
        }
      },
      "setOnlyGov(bool)": {
        "params": {
          "_onlyGov": "whether onlyGov should be enforced"
        }
      },
      "transferOwnership(address)": {
        "details": "Transfers ownership of the contract to a new account (`newOwner`). Can only be called by the current owner."
      },
      "withdrawWantToken(address,bool)": {
        "params": {
          "_account": "address of user",
          "_harvestOnly": "If true, will only harvest Zorro tokens but not do a withdrawal"
        },
        "returns": {
          "_0": "The number of shares removed"
        }
      }
    },
    "title": "VaultStandardAMM: abstract base class for all PancakeSwap style AMM contracts. Maximizes yield in AMM.",
    "version": 1
  },
  "userdoc": {
    "kind": "user",
    "methods": {
      "constructor": {
        "notice": "Constructor"
      },
      "depositWantToken(address,uint256)": {
        "notice": "Receives new deposits from user"
      },
      "earn(uint256,(uint256,uint256,uint256,uint256,uint256,uint256,uint256))": {
        "notice": "The main compounding (earn) function. Reinvests profits since the last earn event."
      },
      "exchangeUSDForWantToken(uint256,uint256,(uint256,uint256,uint256,uint256,uint256,uint256,uint256))": {
        "notice": "Performs necessary operations to convert USDC into Want token and transfer back to sender"
      },
      "exchangeWantTokenForUSD(uint256,uint256,(uint256,uint256,uint256,uint256,uint256,uint256,uint256))": {
        "notice": "Converts Want token back into USD to be ready for withdrawal, transfers back to sender"
      },
      "farm()": {
        "notice": "Public function for farming Want token."
      },
      "inCaseTokensGetStuck(address,uint256,address)": {
        "notice": "Safely transfer ERC20 tokens stuck in this contract to a specified address"
      },
      "pause()": {
        "notice": "Pause contract"
      },
      "setFeeSettings(uint256,uint256,uint256,uint256,uint256)": {
        "notice": "Configure key fee parameters"
      },
      "setGov(address)": {
        "notice": "Set governor address"
      },
      "setOnlyGov(bool)": {
        "notice": "Set onlyGov property"
      },
      "unpause()": {
        "notice": "Unpause contract"
      },
      "withdrawWantToken(address,bool)": {
        "notice": "Fully withdraw Want tokens from the Farm contract (100% withdrawals only)"
      }
    },
    "version": 1
  }
}