{
  "contractName": "VaultStandardAMM",
  "abi": [
    {
      "inputs": [
        {
          "internalType": "address[]",
          "name": "_addresses",
          "type": "address[]"
        },
        {
          "internalType": "uint256",
          "name": "_pid",
          "type": "uint256"
        },
        {
          "internalType": "bool",
          "name": "_isCOREStaking",
          "type": "bool"
        },
        {
          "internalType": "bool",
          "name": "_isSingleAssetDeposit",
          "type": "bool"
        },
        {
          "internalType": "bool",
          "name": "_isZorroComp",
          "type": "bool"
        },
        {
          "internalType": "bool",
          "name": "_isHomeChain",
          "type": "bool"
        },
        {
          "internalType": "address[]",
          "name": "_swapPaths",
          "type": "address[]"
        },
        {
          "internalType": "uint16[]",
          "name": "_swapPathStartIndexes",
          "type": "uint16[]"
        },
        {
          "internalType": "uint256[]",
          "name": "_fees",
          "type": "uint256[]"
        }
      ],
      "stateMutability": "nonpayable",
      "type": "constructor"
    },
    {
      "anonymous": false,
      "inputs": [
        {
          "indexed": true,
          "internalType": "address",
          "name": "previousOwner",
          "type": "address"
        },
        {
          "indexed": true,
          "internalType": "address",
          "name": "newOwner",
          "type": "address"
        }
      ],
      "name": "OwnershipTransferred",
      "type": "event"
    },
    {
      "anonymous": false,
      "inputs": [
        {
          "indexed": false,
          "internalType": "address",
          "name": "account",
          "type": "address"
        }
      ],
      "name": "Paused",
      "type": "event"
    },
    {
      "anonymous": false,
      "inputs": [
        {
          "indexed": false,
          "internalType": "address",
          "name": "_govAddress",
          "type": "address"
        }
      ],
      "name": "SetGov",
      "type": "event"
    },
    {
      "anonymous": false,
      "inputs": [
        {
          "indexed": false,
          "internalType": "bool",
          "name": "_onlyGov",
          "type": "bool"
        }
      ],
      "name": "SetOnlyGov",
      "type": "event"
    },
    {
      "anonymous": false,
      "inputs": [
        {
          "indexed": false,
          "internalType": "address",
          "name": "_rewardsAddress",
          "type": "address"
        }
      ],
      "name": "SetRewardsAddress",
      "type": "event"
    },
    {
      "anonymous": false,
      "inputs": [
        {
          "indexed": false,
          "internalType": "uint256",
          "name": "_entranceFeeFactor",
          "type": "uint256"
        },
        {
          "indexed": false,
          "internalType": "uint256",
          "name": "_withdrawFeeFactor",
          "type": "uint256"
        },
        {
          "indexed": false,
          "internalType": "uint256",
          "name": "_controllerFee",
          "type": "uint256"
        },
        {
          "indexed": false,
          "internalType": "uint256",
          "name": "_buyBackRate",
          "type": "uint256"
        },
        {
          "indexed": false,
          "internalType": "uint256",
          "name": "_slippageFactor",
          "type": "uint256"
        }
      ],
      "name": "SetSettings",
      "type": "event"
    },
    {
      "anonymous": false,
      "inputs": [
        {
          "indexed": false,
          "internalType": "address",
          "name": "_uniRouterAddress",
          "type": "address"
        }
      ],
      "name": "SetUniRouterAddress",
      "type": "event"
    },
    {
      "anonymous": false,
      "inputs": [
        {
          "indexed": false,
          "internalType": "address",
          "name": "account",
          "type": "address"
        }
      ],
      "name": "Unpaused",
      "type": "event"
    },
    {
      "inputs": [
        {
          "internalType": "uint256",
          "name": "",
          "type": "uint256"
        }
      ],
      "name": "USDCToToken0Path",
      "outputs": [
        {
          "internalType": "address",
          "name": "",
          "type": "address"
        }
      ],
      "stateMutability": "view",
      "type": "function"
    },
    {
      "inputs": [
        {
          "internalType": "uint256",
          "name": "",
          "type": "uint256"
        }
      ],
      "name": "USDCToToken1Path",
      "outputs": [
        {
          "internalType": "address",
          "name": "",
          "type": "address"
        }
      ],
      "stateMutability": "view",
      "type": "function"
    },
    {
      "inputs": [
        {
          "internalType": "uint256",
          "name": "",
          "type": "uint256"
        }
      ],
      "name": "USDCToWantPath",
      "outputs": [
        {
          "internalType": "address",
          "name": "",
          "type": "address"
        }
      ],
      "stateMutability": "view",
      "type": "function"
    },
    {
      "inputs": [
        {
          "internalType": "uint256",
          "name": "",
          "type": "uint256"
        }
      ],
      "name": "USDCToZORROPath",
      "outputs": [
        {
          "internalType": "address",
          "name": "",
          "type": "address"
        }
      ],
      "stateMutability": "view",
      "type": "function"
    },
    {
      "inputs": [
        {
          "internalType": "uint256",
          "name": "",
          "type": "uint256"
        }
      ],
      "name": "WantToUSDCPath",
      "outputs": [
        {
          "internalType": "address",
          "name": "",
          "type": "address"
        }
      ],
      "stateMutability": "view",
      "type": "function"
    },
    {
      "inputs": [],
      "name": "ZORROAddress",
      "outputs": [
        {
          "internalType": "address",
          "name": "",
          "type": "address"
        }
      ],
      "stateMutability": "view",
      "type": "function"
    },
    {
      "inputs": [],
      "name": "burnAddress",
      "outputs": [
        {
          "internalType": "address",
          "name": "",
          "type": "address"
        }
      ],
      "stateMutability": "view",
      "type": "function"
    },
    {
      "inputs": [],
      "name": "buyBackRate",
      "outputs": [
        {
          "internalType": "uint256",
          "name": "",
          "type": "uint256"
        }
      ],
      "stateMutability": "view",
      "type": "function"
    },
    {
      "inputs": [],
      "name": "buyBackRateMax",
      "outputs": [
        {
          "internalType": "uint256",
          "name": "",
          "type": "uint256"
        }
      ],
      "stateMutability": "view",
      "type": "function"
    },
    {
      "inputs": [],
      "name": "buyBackRateUL",
      "outputs": [
        {
          "internalType": "uint256",
          "name": "",
          "type": "uint256"
        }
      ],
      "stateMutability": "view",
      "type": "function"
    },
    {
      "inputs": [],
      "name": "controllerFee",
      "outputs": [
        {
          "internalType": "uint256",
          "name": "",
          "type": "uint256"
        }
      ],
      "stateMutability": "view",
      "type": "function"
    },
    {
      "inputs": [],
      "name": "controllerFeeMax",
      "outputs": [
        {
          "internalType": "uint256",
          "name": "",
          "type": "uint256"
        }
      ],
      "stateMutability": "view",
      "type": "function"
    },
    {
      "inputs": [],
      "name": "controllerFeeUL",
      "outputs": [
        {
          "internalType": "uint256",
          "name": "",
          "type": "uint256"
        }
      ],
      "stateMutability": "view",
      "type": "function"
    },
    {
      "inputs": [],
      "name": "convertDustToEarned",
      "outputs": [],
      "stateMutability": "nonpayable",
      "type": "function"
    },
    {
      "inputs": [],
      "name": "earnedAddress",
      "outputs": [
        {
          "internalType": "address",
          "name": "",
          "type": "address"
        }
      ],
      "stateMutability": "view",
      "type": "function"
    },
    {
      "inputs": [
        {
          "internalType": "uint256",
          "name": "",
          "type": "uint256"
        }
      ],
      "name": "earnedToToken0Path",
      "outputs": [
        {
          "internalType": "address",
          "name": "",
          "type": "address"
        }
      ],
      "stateMutability": "view",
      "type": "function"
    },
    {
      "inputs": [
        {
          "internalType": "uint256",
          "name": "",
          "type": "uint256"
        }
      ],
      "name": "earnedToToken1Path",
      "outputs": [
        {
          "internalType": "address",
          "name": "",
          "type": "address"
        }
      ],
      "stateMutability": "view",
      "type": "function"
    },
    {
      "inputs": [
        {
          "internalType": "uint256",
          "name": "",
          "type": "uint256"
        }
      ],
      "name": "earnedToUSDCPath",
      "outputs": [
        {
          "internalType": "address",
          "name": "",
          "type": "address"
        }
      ],
      "stateMutability": "view",
      "type": "function"
    },
    {
      "inputs": [
        {
          "internalType": "uint256",
          "name": "",
          "type": "uint256"
        }
      ],
      "name": "earnedToZORLPPoolToken0Path",
      "outputs": [
        {
          "internalType": "address",
          "name": "",
          "type": "address"
        }
      ],
      "stateMutability": "view",
      "type": "function"
    },
    {
      "inputs": [
        {
          "internalType": "uint256",
          "name": "",
          "type": "uint256"
        }
      ],
      "name": "earnedToZORLPPoolToken1Path",
      "outputs": [
        {
          "internalType": "address",
          "name": "",
          "type": "address"
        }
      ],
      "stateMutability": "view",
      "type": "function"
    },
    {
      "inputs": [
        {
          "internalType": "uint256",
          "name": "",
          "type": "uint256"
        }
      ],
      "name": "earnedToZORROPath",
      "outputs": [
        {
          "internalType": "address",
          "name": "",
          "type": "address"
        }
      ],
      "stateMutability": "view",
      "type": "function"
    },
    {
      "inputs": [],
      "name": "entranceFeeFactor",
      "outputs": [
        {
          "internalType": "uint256",
          "name": "",
          "type": "uint256"
        }
      ],
      "stateMutability": "view",
      "type": "function"
    },
    {
      "inputs": [],
      "name": "entranceFeeFactorLL",
      "outputs": [
        {
          "internalType": "uint256",
          "name": "",
          "type": "uint256"
        }
      ],
      "stateMutability": "view",
      "type": "function"
    },
    {
      "inputs": [],
      "name": "entranceFeeFactorMax",
      "outputs": [
        {
          "internalType": "uint256",
          "name": "",
          "type": "uint256"
        }
      ],
      "stateMutability": "view",
      "type": "function"
    },
    {
      "inputs": [],
      "name": "farmContractAddress",
      "outputs": [
        {
          "internalType": "address",
          "name": "",
          "type": "address"
        }
      ],
      "stateMutability": "view",
      "type": "function"
    },
    {
      "inputs": [],
      "name": "govAddress",
      "outputs": [
        {
          "internalType": "address",
          "name": "",
          "type": "address"
        }
      ],
      "stateMutability": "view",
      "type": "function"
    },
    {
      "inputs": [
        {
          "internalType": "address",
          "name": "_token",
          "type": "address"
        },
        {
          "internalType": "uint256",
          "name": "_amount",
          "type": "uint256"
        },
        {
          "internalType": "address",
          "name": "_to",
          "type": "address"
        }
      ],
      "name": "inCaseTokensGetStuck",
      "outputs": [],
      "stateMutability": "nonpayable",
      "type": "function"
    },
    {
      "inputs": [],
      "name": "isCOREStaking",
      "outputs": [
        {
          "internalType": "bool",
          "name": "",
          "type": "bool"
        }
      ],
      "stateMutability": "view",
      "type": "function"
    },
    {
      "inputs": [],
      "name": "isHomeChain",
      "outputs": [
        {
          "internalType": "bool",
          "name": "",
          "type": "bool"
        }
      ],
      "stateMutability": "view",
      "type": "function"
    },
    {
      "inputs": [],
      "name": "isSingleAssetDeposit",
      "outputs": [
        {
          "internalType": "bool",
          "name": "",
          "type": "bool"
        }
      ],
      "stateMutability": "view",
      "type": "function"
    },
    {
      "inputs": [],
      "name": "isZorroComp",
      "outputs": [
        {
          "internalType": "bool",
          "name": "",
          "type": "bool"
        }
      ],
      "stateMutability": "view",
      "type": "function"
    },
    {
      "inputs": [],
      "name": "lastEarnBlock",
      "outputs": [
        {
          "internalType": "uint256",
          "name": "",
          "type": "uint256"
        }
      ],
      "stateMutability": "view",
      "type": "function"
    },
    {
      "inputs": [
        {
          "internalType": "uint256",
          "name": "",
          "type": "uint256"
        }
      ],
      "name": "lockedXChainEarningsUSDC",
      "outputs": [
        {
          "internalType": "uint256",
          "name": "",
          "type": "uint256"
        }
      ],
      "stateMutability": "view",
      "type": "function"
    },
    {
      "inputs": [],
      "name": "onlyGov",
      "outputs": [
        {
          "internalType": "bool",
          "name": "",
          "type": "bool"
        }
      ],
      "stateMutability": "view",
      "type": "function"
    },
    {
      "inputs": [],
      "name": "owner",
      "outputs": [
        {
          "internalType": "address",
          "name": "",
          "type": "address"
        }
      ],
      "stateMutability": "view",
      "type": "function"
    },
    {
      "inputs": [],
      "name": "pause",
      "outputs": [],
      "stateMutability": "nonpayable",
      "type": "function"
    },
    {
      "inputs": [],
      "name": "paused",
      "outputs": [
        {
          "internalType": "bool",
          "name": "",
          "type": "bool"
        }
      ],
      "stateMutability": "view",
      "type": "function"
    },
    {
      "inputs": [],
      "name": "pid",
      "outputs": [
        {
          "internalType": "uint256",
          "name": "",
          "type": "uint256"
        }
      ],
      "stateMutability": "view",
      "type": "function"
    },
    {
      "inputs": [],
      "name": "poolAddress",
      "outputs": [
        {
          "internalType": "address",
          "name": "",
          "type": "address"
        }
      ],
      "stateMutability": "view",
      "type": "function"
    },
    {
      "inputs": [],
      "name": "renounceOwnership",
      "outputs": [],
      "stateMutability": "nonpayable",
      "type": "function"
    },
    {
      "inputs": [],
      "name": "revShareRate",
      "outputs": [
        {
          "internalType": "uint256",
          "name": "",
          "type": "uint256"
        }
      ],
      "stateMutability": "view",
      "type": "function"
    },
    {
      "inputs": [],
      "name": "revShareRateMax",
      "outputs": [
        {
          "internalType": "uint256",
          "name": "",
          "type": "uint256"
        }
      ],
      "stateMutability": "view",
      "type": "function"
    },
    {
      "inputs": [],
      "name": "revShareRateUL",
      "outputs": [
        {
          "internalType": "uint256",
          "name": "",
          "type": "uint256"
        }
      ],
      "stateMutability": "view",
      "type": "function"
    },
    {
      "inputs": [],
      "name": "rewardsAddress",
      "outputs": [
        {
          "internalType": "address",
          "name": "",
          "type": "address"
        }
      ],
      "stateMutability": "view",
      "type": "function"
    },
    {
      "inputs": [
        {
          "internalType": "address",
          "name": "_earnedAddress",
          "type": "address"
        }
      ],
      "name": "setEarnedAddress",
      "outputs": [],
      "stateMutability": "nonpayable",
      "type": "function"
    },
    {
      "inputs": [
        {
          "internalType": "address",
          "name": "_farmContractAddress",
          "type": "address"
        }
      ],
      "name": "setFarmContractAddress",
      "outputs": [],
      "stateMutability": "nonpayable",
      "type": "function"
    },
    {
      "inputs": [
        {
          "internalType": "uint256",
          "name": "_entranceFeeFactor",
          "type": "uint256"
        },
        {
          "internalType": "uint256",
          "name": "_withdrawFeeFactor",
          "type": "uint256"
        },
        {
          "internalType": "uint256",
          "name": "_controllerFee",
          "type": "uint256"
        },
        {
          "internalType": "uint256",
          "name": "_buyBackRate",
          "type": "uint256"
        },
        {
          "internalType": "uint256",
          "name": "_slippageFactor",
          "type": "uint256"
        }
      ],
      "name": "setFeeSettings",
      "outputs": [],
      "stateMutability": "nonpayable",
      "type": "function"
    },
    {
      "inputs": [
        {
          "internalType": "address",
          "name": "_govAddress",
          "type": "address"
        }
      ],
      "name": "setGov",
      "outputs": [],
      "stateMutability": "nonpayable",
      "type": "function"
    },
    {
      "inputs": [
        {
          "internalType": "bool",
          "name": "_isCOREStaking",
          "type": "bool"
        }
      ],
      "name": "setIsCOREStaking",
      "outputs": [],
      "stateMutability": "nonpayable",
      "type": "function"
    },
    {
      "inputs": [
        {
          "internalType": "bool",
          "name": "_isSingleAssetDeposit",
          "type": "bool"
        }
      ],
      "name": "setIsSingleAssetDeposit",
      "outputs": [],
      "stateMutability": "nonpayable",
      "type": "function"
    },
    {
      "inputs": [
        {
          "internalType": "bool",
          "name": "_isZorroComp",
          "type": "bool"
        }
      ],
      "name": "setIsZorroComp",
      "outputs": [],
      "stateMutability": "nonpayable",
      "type": "function"
    },
    {
      "inputs": [
        {
          "internalType": "bool",
          "name": "_onlyGov",
          "type": "bool"
        }
      ],
      "name": "setOnlyGov",
      "outputs": [],
      "stateMutability": "nonpayable",
      "type": "function"
    },
    {
      "inputs": [
        {
          "internalType": "uint256",
          "name": "_pid",
          "type": "uint256"
        }
      ],
      "name": "setPid",
      "outputs": [],
      "stateMutability": "nonpayable",
      "type": "function"
    },
    {
      "inputs": [
        {
          "internalType": "address",
          "name": "_poolAddress",
          "type": "address"
        }
      ],
      "name": "setPoolAddress",
      "outputs": [],
      "stateMutability": "nonpayable",
      "type": "function"
    },
    {
      "inputs": [
        {
          "internalType": "address",
          "name": "_rewardsAddress",
          "type": "address"
        }
      ],
      "name": "setRewardsAddress",
      "outputs": [],
      "stateMutability": "nonpayable",
      "type": "function"
    },
    {
      "inputs": [
        {
          "internalType": "address",
          "name": "_token0Address",
          "type": "address"
        }
      ],
      "name": "setToken0Address",
      "outputs": [],
      "stateMutability": "nonpayable",
      "type": "function"
    },
    {
      "inputs": [
        {
          "internalType": "address",
          "name": "_token1Address",
          "type": "address"
        }
      ],
      "name": "setToken1Address",
      "outputs": [],
      "stateMutability": "nonpayable",
      "type": "function"
    },
    {
      "inputs": [
        {
          "internalType": "address",
          "name": "_tokenUSDCAddress",
          "type": "address"
        }
      ],
      "name": "setTokenUSDCAddress",
      "outputs": [],
      "stateMutability": "nonpayable",
      "type": "function"
    },
    {
      "inputs": [
        {
          "internalType": "address",
          "name": "_uniRouterAddress",
          "type": "address"
        }
      ],
      "name": "setUniRouterAddress",
      "outputs": [],
      "stateMutability": "nonpayable",
      "type": "function"
    },
    {
      "inputs": [
        {
          "internalType": "address",
          "name": "_ZORROAddress",
          "type": "address"
        }
      ],
      "name": "setZORROAddress",
      "outputs": [],
      "stateMutability": "nonpayable",
      "type": "function"
    },
    {
      "inputs": [
        {
          "internalType": "address",
          "name": "_zorroControllerAddress",
          "type": "address"
        }
      ],
      "name": "setZorroControllerAddress",
      "outputs": [],
      "stateMutability": "nonpayable",
      "type": "function"
    },
    {
      "inputs": [],
      "name": "sharesTotal",
      "outputs": [
        {
          "internalType": "uint256",
          "name": "",
          "type": "uint256"
        }
      ],
      "stateMutability": "view",
      "type": "function"
    },
    {
      "inputs": [],
      "name": "slippageFactor",
      "outputs": [
        {
          "internalType": "uint256",
          "name": "",
          "type": "uint256"
        }
      ],
      "stateMutability": "view",
      "type": "function"
    },
    {
      "inputs": [],
      "name": "slippageFactorUL",
      "outputs": [
        {
          "internalType": "uint256",
          "name": "",
          "type": "uint256"
        }
      ],
      "stateMutability": "view",
      "type": "function"
    },
    {
      "inputs": [],
      "name": "token0Address",
      "outputs": [
        {
          "internalType": "address",
          "name": "",
          "type": "address"
        }
      ],
      "stateMutability": "view",
      "type": "function"
    },
    {
      "inputs": [
        {
          "internalType": "uint256",
          "name": "",
          "type": "uint256"
        }
      ],
      "name": "token0ToEarnedPath",
      "outputs": [
        {
          "internalType": "address",
          "name": "",
          "type": "address"
        }
      ],
      "stateMutability": "view",
      "type": "function"
    },
    {
      "inputs": [
        {
          "internalType": "uint256",
          "name": "",
          "type": "uint256"
        }
      ],
      "name": "token0ToUSDCPath",
      "outputs": [
        {
          "internalType": "address",
          "name": "",
          "type": "address"
        }
      ],
      "stateMutability": "view",
      "type": "function"
    },
    {
      "inputs": [],
      "name": "token1Address",
      "outputs": [
        {
          "internalType": "address",
          "name": "",
          "type": "address"
        }
      ],
      "stateMutability": "view",
      "type": "function"
    },
    {
      "inputs": [
        {
          "internalType": "uint256",
          "name": "",
          "type": "uint256"
        }
      ],
      "name": "token1ToEarnedPath",
      "outputs": [
        {
          "internalType": "address",
          "name": "",
          "type": "address"
        }
      ],
      "stateMutability": "view",
      "type": "function"
    },
    {
      "inputs": [
        {
          "internalType": "uint256",
          "name": "",
          "type": "uint256"
        }
      ],
      "name": "token1ToUSDCPath",
      "outputs": [
        {
          "internalType": "address",
          "name": "",
          "type": "address"
        }
      ],
      "stateMutability": "view",
      "type": "function"
    },
    {
      "inputs": [],
      "name": "tokenUSDCAddress",
      "outputs": [
        {
          "internalType": "address",
          "name": "",
          "type": "address"
        }
      ],
      "stateMutability": "view",
      "type": "function"
    },
    {
      "inputs": [
        {
          "internalType": "address",
          "name": "newOwner",
          "type": "address"
        }
      ],
      "name": "transferOwnership",
      "outputs": [],
      "stateMutability": "nonpayable",
      "type": "function"
    },
    {
      "inputs": [],
      "name": "uniRouterAddress",
      "outputs": [
        {
          "internalType": "address",
          "name": "",
          "type": "address"
        }
      ],
      "stateMutability": "view",
      "type": "function"
    },
    {
      "inputs": [],
      "name": "unpause",
      "outputs": [],
      "stateMutability": "nonpayable",
      "type": "function"
    },
    {
      "inputs": [
        {
          "internalType": "address",
          "name": "",
          "type": "address"
        }
      ],
      "name": "userShares",
      "outputs": [
        {
          "internalType": "uint256",
          "name": "",
          "type": "uint256"
        }
      ],
      "stateMutability": "view",
      "type": "function"
    },
    {
      "inputs": [],
      "name": "wantAddress",
      "outputs": [
        {
          "internalType": "address",
          "name": "",
          "type": "address"
        }
      ],
      "stateMutability": "view",
      "type": "function"
    },
    {
      "inputs": [],
      "name": "wantLockedTotal",
      "outputs": [
        {
          "internalType": "uint256",
          "name": "",
          "type": "uint256"
        }
      ],
      "stateMutability": "view",
      "type": "function"
    },
    {
      "inputs": [],
      "name": "withdrawFeeFactor",
      "outputs": [
        {
          "internalType": "uint256",
          "name": "",
          "type": "uint256"
        }
      ],
      "stateMutability": "view",
      "type": "function"
    },
    {
      "inputs": [],
      "name": "withdrawFeeFactorLL",
      "outputs": [
        {
          "internalType": "uint256",
          "name": "",
          "type": "uint256"
        }
      ],
      "stateMutability": "view",
      "type": "function"
    },
    {
      "inputs": [],
      "name": "withdrawFeeFactorMax",
      "outputs": [
        {
          "internalType": "uint256",
          "name": "",
          "type": "uint256"
        }
      ],
      "stateMutability": "view",
      "type": "function"
    },
    {
      "inputs": [],
      "name": "xChainEarningsLockEndBlock",
      "outputs": [
        {
          "internalType": "uint256",
          "name": "",
          "type": "uint256"
        }
      ],
      "stateMutability": "view",
      "type": "function"
    },
    {
      "inputs": [],
      "name": "xChainEarningsLockStartBlock",
      "outputs": [
        {
          "internalType": "uint256",
          "name": "",
          "type": "uint256"
        }
      ],
      "stateMutability": "view",
      "type": "function"
    },
    {
      "inputs": [],
      "name": "zorroControllerAddress",
      "outputs": [
        {
          "internalType": "address",
          "name": "",
          "type": "address"
        }
      ],
      "stateMutability": "view",
      "type": "function"
    },
    {
      "inputs": [],
      "name": "zorroLPPool",
      "outputs": [
        {
          "internalType": "address",
          "name": "",
          "type": "address"
        }
      ],
      "stateMutability": "view",
      "type": "function"
    },
    {
      "inputs": [],
      "name": "zorroLPPoolToken0",
      "outputs": [
        {
          "internalType": "address",
          "name": "",
          "type": "address"
        }
      ],
      "stateMutability": "view",
      "type": "function"
    },
    {
      "inputs": [],
      "name": "zorroLPPoolToken1",
      "outputs": [
        {
          "internalType": "address",
          "name": "",
          "type": "address"
        }
      ],
      "stateMutability": "view",
      "type": "function"
    },
    {
      "inputs": [],
      "name": "zorroStakingVault",
      "outputs": [
        {
          "internalType": "address",
          "name": "",
          "type": "address"
        }
      ],
      "stateMutability": "view",
      "type": "function"
    },
    {
      "inputs": [
        {
          "internalType": "address",
          "name": "_account",
          "type": "address"
        },
        {
          "internalType": "uint256",
          "name": "_wantAmt",
          "type": "uint256"
        }
      ],
      "name": "depositWantToken",
      "outputs": [
        {
          "internalType": "uint256",
          "name": "",
          "type": "uint256"
        }
      ],
      "stateMutability": "nonpayable",
      "type": "function"
    },
    {
      "inputs": [
        {
          "internalType": "uint256",
          "name": "_amountUSDC",
          "type": "uint256"
        },
        {
          "internalType": "uint256",
          "name": "_maxMarketMovementAllowed",
          "type": "uint256"
        }
      ],
      "name": "exchangeUSDForWantToken",
      "outputs": [
        {
          "internalType": "uint256",
          "name": "",
          "type": "uint256"
        }
      ],
      "stateMutability": "nonpayable",
      "type": "function"
    },
    {
      "inputs": [],
      "name": "farm",
      "outputs": [],
      "stateMutability": "nonpayable",
      "type": "function"
    },
    {
      "inputs": [
        {
          "internalType": "address",
          "name": "_account",
          "type": "address"
        },
        {
          "internalType": "bool",
          "name": "_harvestOnly",
          "type": "bool"
        }
      ],
      "name": "withdrawWantToken",
      "outputs": [
        {
          "internalType": "uint256",
          "name": "",
          "type": "uint256"
        }
      ],
      "stateMutability": "nonpayable",
      "type": "function"
    },
    {
      "inputs": [
        {
          "internalType": "uint256",
          "name": "_amount",
          "type": "uint256"
        },
        {
          "internalType": "uint256",
          "name": "_maxMarketMovementAllowed",
          "type": "uint256"
        }
      ],
      "name": "exchangeWantTokenForUSD",
      "outputs": [
        {
          "internalType": "uint256",
          "name": "",
          "type": "uint256"
        }
      ],
      "stateMutability": "nonpayable",
      "type": "function"
    },
    {
      "inputs": [
        {
          "internalType": "uint256",
          "name": "_maxMarketMovementAllowed",
          "type": "uint256"
        }
      ],
      "name": "earn",
      "outputs": [],
      "stateMutability": "nonpayable",
      "type": "function"
    }
  ],
  "bytecode": "0x6080604052600d8054600160a060020a03191661dead1790556014805460a060020a60ff0219167401000000000000000000000000000000000000000017905560006015819055601681905560178190556019819055601a819055601b55612706601c55612710601d556103b6601e553480156200007c57600080fd5b50604051620054b7380380620054b78339810160408190526200009f9162000f1a565b620000c5620000b6640100000000620007b8810204565b640100000000620007bc810204565b600180556002805460ff1916905588518990600090620000e957620000e962001028565b6020026020010151601460006101000a815481600160a060020a030219169083600160a060020a03160217905550886001815181106200012d576200012d62001028565b6020026020010151601160006101000a815481600160a060020a030219169083600160a060020a031602179055508860028151811062000171576200017162001028565b6020026020010151601260006101000a815481600160a060020a030219169083600160a060020a0316021790555088600381518110620001b557620001b562001028565b6020026020010151600560006101000a815481600160a060020a030219169083600160a060020a0316021790555088600481518110620001f957620001f962001028565b6020026020010151600660006101000a815481600160a060020a030219169083600160a060020a03160217905550886005815181106200023d576200023d62001028565b6020026020010151600760006101000a815481600160a060020a030219169083600160a060020a031602179055508860068151811062000281576200028162001028565b6020026020010151600860006101000a815481600160a060020a030219169083600160a060020a0316021790555088600781518110620002c557620002c562001028565b6020026020010151600460006101000a815481600160a060020a030219169083600160a060020a031602179055508860088151811062000309576200030962001028565b6020026020010151600e60006101000a815481600160a060020a030219169083600160a060020a03160217905550886009815181106200034d576200034d62001028565b6020026020010151601060006101000a815481600160a060020a030219169083600160a060020a0316021790555088600a8151811062000391576200039162001028565b6020026020010151600f60006101000a815481600160a060020a030219169083600160a060020a0316021790555088600b81518110620003d557620003d562001028565b6020026020010151600a60006101000a815481600160a060020a030219169083600160a060020a0316021790555088600c8151811062000419576200041962001028565b6020026020010151600b60006101000a815481600160a060020a030219169083600160a060020a0316021790555088600d815181106200045d576200045d62001028565b6020908102919091010151600c8054600160a060020a031916600160a060020a0390921691909117905560038890556002805462ffff0019166101008915150262ff000019161762010000881515021764ffff000000191663010000008715150264ff00000000191617640100000000861515810291909117909155620004eb90849084906200080c810204565b6200056160248054806020026020016040519081016040528092919081815260200182805480156200054757602002820191906000526020600020905b8154600160a060020a0316815260019091019060200180831162000528575b505050505062000bc3640100000000026401000000009004565b8051620005779160269160209091019062000ca4565b50620005ec60258054806020026020016040519081016040528092919081815260200182805480156200054757602002820191906000526020600020908154600160a060020a031681526001909101906020018083116200052857505050505062000bc3640100000000026401000000009004565b8051620006029160279160209091019062000ca4565b5062000677601f8054806020026020016040519081016040528092919081815260200182805480156200054757602002820191906000526020600020908154600160a060020a031681526001909101906020018083116200052857505050505062000bc3640100000000026401000000009004565b80516200068d9160219160209091019062000ca4565b506200070260208054806020026020016040519081016040528092919081815260200182805480156200054757602002820191906000526020600020908154600160a060020a031681526001909101906020018083116200052857505050505062000bc3640100000000026401000000009004565b8051620007189160229160209091019062000ca4565b50806000815181106200072f576200072f62001028565b60200260200101516019819055508060018151811062000753576200075362001028565b6020026020010151601a819055508060028151811062000777576200077762001028565b6020026020010151601c81905550806003815181106200079b576200079b62001028565b6020026020010151601d81905550505050505050505050620010e0565b3390565b60008054600160a060020a03838116600160a060020a0319831681178455604051919092169283917f8be0079c531659141344cd1fd0a4f28419497f9722a3daafe3b4186f6b6457e09190a35050565b60008160008151811062000824576200082462001028565b602002602001015190506000805b84518161ffff16101562000bbc57600084518310156200088657846200086884600164010000000062002d5462000c8182021704565b815181106200087b576200087b62001028565b602002602001015190505b61ffff821615806200089f57508061ffff168261ffff16105b1562000ba857826200091a57858261ffff1681518110620008c457620008c462001028565b602002602001015160238361ffff1681548110620008e657620008e662001028565b9060005260206000200160006101000a815481600160a060020a030219169083600160a060020a0316021790555062000ba8565b82600114156200095f57858261ffff16815181106200093d576200093d62001028565b602002602001015160248361ffff1681548110620008e657620008e662001028565b8260021415620009a457858261ffff168151811062000982576200098262001028565b602002602001015160258361ffff1681548110620008e657620008e662001028565b8260031415620009e957858261ffff1681518110620009c757620009c762001028565b6020026020010151601f8361ffff1681548110620008e657620008e662001028565b826004141562000a2e57858261ffff168151811062000a0c5762000a0c62001028565b602002602001015160208361ffff1681548110620008e657620008e662001028565b826005141562000a7357858261ffff168151811062000a515762000a5162001028565b602002602001015160288361ffff1681548110620008e657620008e662001028565b826006141562000ab857858261ffff168151811062000a965762000a9662001028565b602002602001015160298361ffff1681548110620008e657620008e662001028565b826007141562000afd57858261ffff168151811062000adb5762000adb62001028565b6020026020010151602c8361ffff1681548110620008e657620008e662001028565b826008141562000b4257858261ffff168151811062000b205762000b2062001028565b6020026020010151602d8361ffff1681548110620008e657620008e662001028565b6040517f08c379a000000000000000000000000000000000000000000000000000000000815260206004820152600e60248201527f6261642073776170207061746873000000000000000000000000000000000000604482015260640160405180910390fd5b5062000bb48162001086565b905062000832565b5050505050565b60608060005b83518161ffff16101562000c7a578362000c1b8261ffff1662000c066001885162000c966401000000000262002d67179091906401000000009004565b9064010000000062002d6762000c9682021704565b8151811062000c2e5762000c2e62001028565b6020026020010151828261ffff168151811062000c4f5762000c4f62001028565b600160a060020a039092166020928302919091019091015262000c728162001086565b905062000bc9565b5092915050565b600062000c8f8284620010ab565b9392505050565b600062000c8f8284620010c6565b82805482825590600052602060002090810192821562000cfc579160200282015b8281111562000cfc5782518254600160a060020a031916600160a060020a0390911617825560209092019160019091019062000cc5565b5062000d0a92915062000d0e565b5090565b5b8082111562000d0a576000815560010162000d0f565b7f4e487b7100000000000000000000000000000000000000000000000000000000600052604160045260246000fd5b604051601f8201601f191681016001604060020a038111828210171562000d7f5762000d7f62000d25565b604052919050565b60006001604060020a0382111562000da35762000da362000d25565b5060209081020190565b600082601f83011262000dbf57600080fd5b8151602062000dd862000dd28362000d87565b62000d54565b8281529181028401810191818101908684111562000df557600080fd5b8286015b8481101562000e29578051600160a060020a038116811462000e1b5760008081fd5b835291830191830162000df9565b509695505050505050565b8051801515811462000e4557600080fd5b919050565b600082601f83011262000e5c57600080fd5b8151602062000e6f62000dd28362000d87565b8281529181028401810191818101908684111562000e8c57600080fd5b8286015b8481101562000e2957805161ffff8116811462000ead5760008081fd5b835291830191830162000e90565b600082601f83011262000ecd57600080fd5b8151602062000ee062000dd28362000d87565b8281529181028401810191818101908684111562000efd57600080fd5b8286015b8481101562000e29578051835291830191830162000f01565b60008060008060008060008060006101208a8c03121562000f3a57600080fd5b89516001604060020a038082111562000f5257600080fd5b62000f608d838e0162000dad565b9a5060208c0151995062000f7760408d0162000e34565b985062000f8760608d0162000e34565b975062000f9760808d0162000e34565b965062000fa760a08d0162000e34565b955060c08c015191508082111562000fbe57600080fd5b62000fcc8d838e0162000dad565b945060e08c015191508082111562000fe357600080fd5b62000ff18d838e0162000e4a565b93506101008c01519150808211156200100957600080fd5b50620010188c828d0162000ebb565b9150509295985092959850929598565b7f4e487b7100000000000000000000000000000000000000000000000000000000600052603260045260246000fd5b7f4e487b7100000000000000000000000000000000000000000000000000000000600052601160045260246000fd5b600061ffff80831681811415620010a157620010a162001057565b6001019392505050565b60008219821115620010c157620010c162001057565b500190565b600082821015620010db57620010db62001057565b500390565b6143c780620010f06000396000f3fe608060405234801561001057600080fd5b50600436106105125760003560e060020a900480638456cb59116102a8578063c11c2e9211610176578063e65a0117116100dd578063ee50dc3411610096578063ee50dc3414610638578063efa0280814610ac2578063f106845414610ad4578063f2fde38b14610add578063f5046a2914610af0578063ffbd3b1f14610b0357600080fd5b8063e65a011714610a4e578063e719847414610a61578063e7a0367914610a74578063e9e15b4f14610a87578063ed148bf314610a9a578063edf5e58514610aad57600080fd5b8063cfad57a21161012f578063cfad57a2146109cf578063d1aeabaf146109e2578063d7cb416f146109f5578063de69b3aa14610a08578063e502a88d14610a28578063e5eb715c14610a3b57600080fd5b8063c11c2e921461097b578063c302a4d01461081e578063c5c97cbf14610983578063c6efd57714610996578063c8479cd6146109a9578063c8e3d18b146109bc57600080fd5b80639fc33a9f1161021a578063b74cd242116101d3578063b74cd24214610913578063b77050e71461091c578063b86c5f531461092f578063ba0bb4ab14610942578063bf3a7d4014610955578063c0973eed1461096857600080fd5b80639fc33a9f146108b4578063a4d2b083146108c7578063adfe5a76146108da578063b1414dbb146108ed578063b3545c011461062f578063b73cba2a1461090057600080fd5b80638b9102dc1161026c5780638b9102dc1461084d5780638da5cb5b1461086157806392f9576d1461087257806396e9aff8146108855780639b6017e5146108985780639f703a56146108a157600080fd5b80638456cb591461080d57806385f02dd614610815578063866b20181461081e5780638906758d146108275780638b2bc8521461083a57600080fd5b80634c5b09da116103e557806366aca0a611610357578063715018a611610310578063715018a6146107a65780637153ef86146107ae5780637bf604d8146107c15780637ec82864146107d45780637ff36fbe146107e757806381e62ea3146107fa57600080fd5b806366aca0a61461075157806367057b6c1461063857806367206d401461076457806368f5416214610777578063693a090b1461078057806370d5ae051461079357600080fd5b8063583bda3b116103a9578063583bda3b146106e75780635c975abb146106fa5780635da79d63146107055780635dc05fd5146107185780636392ab121461072b578063648794a41461073e57600080fd5b80634c5b09da146106a55780634c8fc2d6146106b85780634ce54ddb146106c15780634d9f7bb2146106385780634e2cb8b6146106d457600080fd5b80631e12819a1161048957806342da4eb31161044257806342da4eb31461065a57806343788cd21461063857806344a3955e1461066357806346008a071461066c57806348f2d9dd1461067f578063495af8ce1461069257600080fd5b80631e12819a1461061c578063211019d71461062f5780632717eff3146106385780633214471f1461064157806336e9332d1461064a5780633f4ba83a1461065257600080fd5b80630daef321116104db5780630daef321146105a65780630fa4e01e146105db5780631334903f146105e45780631755ff21146105ed578063178a8d07146106005780631b0d8aab1461060957600080fd5b80627a2ae31461051757806305828d3e14610547578063061c7d481461055c5780630873cb91146105735780630b6bb30b14610593575b600080fd5b61052a610525366004613ea1565b610b0c565b604051600160a060020a0390911681526020015b60405180910390f35b61055a610555366004613ed6565b610b36565b005b61056561012c81565b60405190815260200161053e565b610565610581366004613ea1565b60306020526000908152604090205481565b61055a6105a1366004613eff565b610b8e565b6014546105cb9074010000000000000000000000000000000000000000900460ff1681565b604051901515815260200161053e565b61056560155481565b610565601c5481565b60105461052a90600160a060020a031681565b610565601a5481565b61055a610617366004613ea1565b610c35565b61055a61062a366004613ed6565b610c67565b61056561032081565b61056561271081565b610565601b5481565b61055a610cb6565b61055a610cef565b61056560165481565b61056560175481565b60145461052a90600160a060020a031681565b61055a61068d366004613eff565b610d26565b6105656106a0366004613f1c565b610d6d565b61055a6106b3366004613ed6565b61102c565b610565602f5481565b60095461052a90600160a060020a031681565b61052a6106e2366004613ea1565b61107b565b61055a6106f5366004613ed6565b61108b565b60025460ff166105cb565b61055a610713366004613ed6565b6110da565b6002546105cb9062010000900460ff1681565b61052a610739366004613ea1565b611129565b61056561074c366004613f53565b611139565b61055a61075f366004613eff565b6115a0565b61055a610772366004613f75565b6115e9565b610565601d5481565b600f5461052a90600160a060020a031681565b600d5461052a90600160a060020a031681565b61055a6116f1565b61055a6107bc366004613fb1565b611728565b600a5461052a90600160a060020a031681565b61052a6107e2366004613ea1565b611a17565b60065461052a90600160a060020a031681565b61052a610808366004613ea1565b611a27565b61055a611a37565b61056560195481565b6105656126ac81565b61055a610835366004613ed6565b611a6c565b600c5461052a90600160a060020a031681565b6002546105cb906301000000900460ff1681565b600054600160a060020a031661052a565b61052a610880366004613ea1565b611abb565b61052a610893366004613ea1565b611acb565b610565602e5481565b61052a6108af366004613ea1565b611adb565b60045461052a90600160a060020a031681565b60135461052a90600160a060020a031681565b61052a6108e8366004613ea1565b611aeb565b60115461052a90600160a060020a031681565b61055a61090e366004613ed6565b611afb565b6105656103e381565b61052a61092a366004613ea1565b611b4a565b61052a61093d366004613ea1565b611b5a565b610565610950366004613fec565b611b6a565b61055a610963366004613ed6565b611dde565b600e5461052a90600160a060020a031681565b61055a611e2d565b61052a610991366004613ea1565b612172565b61052a6109a4366004613ea1565b612182565b61055a6109b7366004613ed6565b612192565b61052a6109ca366004613ea1565b6121e1565b61055a6109dd366004613ed6565b6121f1565b61055a6109f0366004613eff565b61226c565b60075461052a90600160a060020a031681565b610565610a16366004613ed6565b60186020526000908152604090205481565b610565610a36366004613f53565b6122b7565b61052a610a49366004613ea1565b6127a9565b61055a610a5c366004613ea1565b6127b9565b60085461052a90600160a060020a031681565b60055461052a90600160a060020a031681565b61055a610a95366004613ed6565b612c4d565b600b5461052a90600160a060020a031681565b6002546105cb90640100000000900460ff1681565b6002546105cb90610100900460ff1681565b61056560035481565b61055a610aeb366004613ed6565b612c9c565b60125461052a90600160a060020a031681565b610565601e5481565b60278181548110610b1c57600080fd5b600091825260209091200154600160a060020a0316905081565b600054600160a060020a03163314610b6c5760405160e560020a62461bcd028152600401610b6390614016565b60405180910390fd5b60078054600160a060020a031916600160a060020a0392909216919091179055565b601454600160a060020a03163314610bbb5760405160e560020a62461bcd028152600401610b639061404b565b60148054821515740100000000000000000000000000000000000000000274ff0000000000000000000000000000000000000000199091161790556040517f125177ac7b8930dac1e59c2b30b1b6b9191b30af40cf6bbb5d20fec4d44be60f90610c2a90831515815260200190565b60405180910390a150565b600054600160a060020a03163314610c625760405160e560020a62461bcd028152600401610b6390614016565b600355565b600054600160a060020a03163314610c945760405160e560020a62461bcd028152600401610b6390614016565b60098054600160a060020a031916600160a060020a0392909216919091179055565b60026001541415610cdc5760405160e560020a62461bcd028152600401610b6390614082565b6002600155610ce9612d73565b60018055565b601454600160a060020a03163314610d1c5760405160e560020a62461bcd028152600401610b639061404b565b610d24612f18565b565b600054600160a060020a03163314610d535760405160e560020a62461bcd028152600401610b6390614016565b600280549115156101000261ff0019909216919091179055565b601154600090600160a060020a031633600160a060020a031614610da65760405160e560020a62461bcd028152600401610b63906140b9565b60026001541415610dcc5760405160e560020a62461bcd028152600401610b6390614082565b6002600155610ddd60025460ff1690565b15610dfd5760405160e560020a62461bcd028152600401610b63906140f0565b600082610ea557600160a060020a038481166000908152601860205260409081902054601754600554925160e060020a6370a082310281523060048201529193610ea1939192610e9b92869216906370a0823190602401602060405180830381865afa158015610e71573d6000803e3d6000fd5b505050506040513d601f19601f82011682018060405250810190610e959190614127565b90612fb7565b90612fc3565b9150505b6000610ec2601654610e9b60175485612fb790919063ffffffff16565b9050601754811115610ed357506017545b601754610ee09082612d67565b601755600160a060020a038516600090815260186020526040902054610f069082612d67565b600160a060020a038616600090815260186020526040902055601d546127101115610f4957610f46612710610e9b601d5485612fb790919063ffffffff16565b91505b6002546301000000900460ff1615610f6457610f6482612fcf565b60055460405160e060020a6370a08231028152306004820152600091600160a060020a0316906370a0823190602401602060405180830381865afa158015610fb0573d6000803e3d6000fd5b505050506040513d601f19601f82011682018060405250810190610fd49190614127565b905080831115610fe2578092505b826016541015610ff25760165492505b601654610fff9084612d67565b60165560115460055461101f91600160a060020a03918216911685613077565b5060018055949350505050565b600054600160a060020a031633146110595760405160e560020a62461bcd028152600401610b6390614016565b60048054600160a060020a031916600160a060020a0392909216919091179055565b60228181548110610b1c57600080fd5b600054600160a060020a031633146110b85760405160e560020a62461bcd028152600401610b6390614016565b60128054600160a060020a031916600160a060020a0392909216919091179055565b600054600160a060020a031633146111075760405160e560020a62461bcd028152600401610b6390614016565b600f8054600160a060020a031916600160a060020a0392909216919091179055565b60238181548110610b1c57600080fd5b601154600090600160a060020a031633600160a060020a0316146111725760405160e560020a62461bcd028152600401610b63906140b9565b60025460ff16156111985760405160e560020a62461bcd028152600401610b63906140f0565b60055460405160e060020a6370a082310281523060048201526000918291600160a060020a03909116906370a0823190602401602060405180830381865afa1580156111e8573d6000803e3d6000fd5b505050506040513d601f19601f8201168201806040525081019061120c9190614127565b9050808511156112615760405160e560020a62461bcd02815260206004820152601060248201527f457863656564732077616e742062616c000000000000000000000000000000006044820152606401610b63565b60025462010000900460ff161561130457600f5473__SafeSwapUni___________________________9063709128be90600160a060020a03168787602b336112ab42610258612d54565b6040518763ffffffff1660e060020a0281526004016112cf96959493929190614140565b60006040518083038186803b1580156112e757600080fd5b505af41580156112fb573d6000803e3d6000fd5b50505050611528565b61130f858530613120565b60065460405160e060020a6370a08231028152306004820152600091600160a060020a0316906370a0823190602401602060405180830381865afa15801561135b573d6000803e3d6000fd5b505050506040513d601f19601f8201168201806040525081019061137f9190614127565b60075460405160e060020a6370a08231028152306004820152919250600091600160a060020a03909116906370a0823190602401602060405180830381865afa1580156113d0573d6000803e3d6000fd5b505050506040513d601f19601f820116820180604052508101906113f49190614127565b600f5490915073__SafeSwapUni___________________________9063709128be90600160a060020a0316848960213361143042610258612d54565b6040518763ffffffff1660e060020a02815260040161145496959493929190614140565b60006040518083038186803b15801561146c57600080fd5b505af4158015611480573d6000803e3d6000fd5b5050600754600160a060020a0316159150611525905057600f5473__SafeSwapUni___________________________9063709128be90600160a060020a031683896022336114d042610258612d54565b6040518763ffffffff1660e060020a0281526004016114f496959493929190614140565b60006040518083038186803b15801561150c57600080fd5b505af4158015611520573d6000803e3d6000fd5b505050505b50505b60095460405160e060020a6370a08231028152336004820152600160a060020a03909116906370a0823190602401602060405180830381865afa158015611573573d6000803e3d6000fd5b505050506040513d601f19601f820116820180604052508101906115979190614127565b95945050505050565b600054600160a060020a031633146115cd5760405160e560020a62461bcd028152600401610b6390614016565b60028054911515620100000262ff000019909216919091179055565b601454600160a060020a031633146116165760405160e560020a62461bcd028152600401610b639061404b565b600854600160a060020a03848116911614156116775760405160e560020a62461bcd02815260206004820152600560248201527f21736166650000000000000000000000000000000000000000000000000000006044820152606401610b63565b600554600160a060020a03848116911614156116d85760405160e560020a62461bcd02815260206004820152600560248201527f21736166650000000000000000000000000000000000000000000000000000006044820152606401610b63565b6116ec600160a060020a0384168284613077565b505050565b600054600160a060020a0316331461171e5760405160e560020a62461bcd028152600401610b6390614016565b610d246000613396565b601454600160a060020a031633146117555760405160e560020a62461bcd028152600401610b639061404b565b6126ac8510156117aa5760405160e560020a62461bcd02815260206004820152601a60248201527f5f656e7472616e6365466565466163746f7220746f6f206c6f770000000000006044820152606401610b63565b6127108511156117ff5760405160e560020a62461bcd02815260206004820152601b60248201527f5f656e7472616e6365466565466163746f7220746f6f206869676800000000006044820152606401610b63565b601c8590556126ac8410156118595760405160e560020a62461bcd02815260206004820152601a60248201527f5f7769746864726177466565466163746f7220746f6f206c6f770000000000006044820152606401610b63565b6127108411156118ae5760405160e560020a62461bcd02815260206004820152601b60248201527f5f7769746864726177466565466163746f7220746f6f206869676800000000006044820152606401610b63565b601d84905561012c8311156119085760405160e560020a62461bcd02815260206004820152601760248201527f5f636f6e74726f6c6c657246656520746f6f20686967680000000000000000006044820152606401610b63565b60198390556103208211156119625760405160e560020a62461bcd02815260206004820152601560248201527f5f6275794261636b5261746520746f6f206869676800000000000000000000006044820152606401610b63565b601a8290556103e38111156119bc5760405160e560020a62461bcd02815260206004820152601860248201527f5f736c697070616765466163746f7220746f6f206869676800000000000000006044820152606401610b63565b601e819055604080518681526020810186905290810184905260608101839052608081018290527fc67e0b149a57a70fa44a531a46c2c6d8e0b242fa12f459f250012c3a5987d29a9060a00160405180910390a15050505050565b602b8181548110610b1c57600080fd5b60298181548110610b1c57600080fd5b601454600160a060020a03163314611a645760405160e560020a62461bcd028152600401610b639061404b565b610d246133e6565b600054600160a060020a03163314611a995760405160e560020a62461bcd028152600401610b6390614016565b600e8054600160a060020a031916600160a060020a0392909216919091179055565b602d8181548110610b1c57600080fd5b60258181548110610b1c57600080fd5b602c8181548110610b1c57600080fd5b602a8181548110610b1c57600080fd5b600054600160a060020a03163314611b285760405160e560020a62461bcd028152600401610b6390614016565b60088054600160a060020a031916600160a060020a0392909216919091179055565b60268181548110610b1c57600080fd5b601f8181548110610b1c57600080fd5b601154600090600160a060020a031633600160a060020a031614611ba35760405160e560020a62461bcd028152600401610b63906140b9565b60026001541415611bc95760405160e560020a62461bcd028152600401610b6390614082565b6002600155611bda60025460ff1690565b15611bfa5760405160e560020a62461bcd028152600401610b63906140f0565b60055460405160e060020a6370a08231028152306004820152600091600160a060020a0316906370a0823190602401602060405180830381865afa158015611c46573d6000803e3d6000fd5b505050506040513d601f19601f82011682018060405250810190611c6a9190614127565b905060008311611cbf5760405160e560020a62461bcd02815260206004820152601e60248201527f57616e7420746f6b656e206465706f736974206d757374206265203e203000006044820152606401610b63565b80831115611d125760405160e560020a62461bcd02815260206004820152601c60248201527f457863656564732057616e742062616c20666f72206465706f736974000000006044820152606401610b63565b601654839015801590611d2757506000601754115b15611d5657611d53612710610e9b601654610e9b601c54610e956017548b612fb790919063ffffffff16565b90505b601754611d639082612d54565b601755600160a060020a038516600090815260186020526040902054611d899082612d54565b600160a060020a0386166000908152601860205260409020556002546301000000900460ff1615611dc157611dbc612d73565b611dd2565b601654611dce9085612d54565b6016555b60018055949350505050565b600054600160a060020a03163314611e0b5760405160e560020a62461bcd028152600401610b6390614016565b60118054600160a060020a031916600160a060020a0392909216919091179055565b60025460ff1615611e535760405160e560020a62461bcd028152600401610b63906140f0565b6002546301000000900460ff16611e7f5760405160e560020a62461bcd028152600401610b63906141b8565b600254610100900460ff1615611eda5760405160e560020a62461bcd02815260206004820152600d60248201527f6973434f52455374616b696e67000000000000000000000000000000000000006044820152606401610b63565b60065460405160e060020a6370a08231028152306004820152600091600160a060020a0316906370a0823190602401602060405180830381865afa158015611f26573d6000803e3d6000fd5b505050506040513d601f19601f82011682018060405250810190611f4a9190614127565b600854600654919250600160a060020a03918216911614801590611f6e5750600081115b1561202457600f54600654611f9091600160a060020a03918216911683613441565b600f54601e5473__SafeSwapUni___________________________9163709128be91600160a060020a03909116908490602630611fcf42610258612d54565b6040518763ffffffff1660e060020a028152600401611ff396959493929190614140565b60006040518083038186803b15801561200b57600080fd5b505af415801561201f573d6000803e3d6000fd5b505050505b60075460405160e060020a6370a08231028152306004820152600091600160a060020a0316906370a0823190602401602060405180830381865afa158015612070573d6000803e3d6000fd5b505050506040513d601f19601f820116820180604052508101906120949190614127565b600854600754919250600160a060020a039182169116148015906120b85750600081115b1561216e57600f546007546120da91600160a060020a03918216911683613441565b600f54601e5473__SafeSwapUni___________________________9163709128be91600160a060020a0390911690849060273061211942610258612d54565b6040518763ffffffff1660e060020a02815260040161213d96959493929190614140565b60006040518083038186803b15801561215557600080fd5b505af4158015612169573d6000803e3d6000fd5b505050505b5050565b60208181548110610b1c57600080fd5b60218181548110610b1c57600080fd5b600054600160a060020a031633146121bf5760405160e560020a62461bcd028152600401610b6390614016565b60068054600160a060020a031916600160a060020a0392909216919091179055565b60248181548110610b1c57600080fd5b601454600160a060020a0316331461221e5760405160e560020a62461bcd028152600401610b639061404b565b60148054600160a060020a031916600160a060020a0383169081179091556040519081527f91a8c1cc2d4a3bb60738481947a00cbb9899c822916694cf8bb1d68172fdcd5490602001610c2a565b600054600160a060020a031633146122995760405160e560020a62461bcd028152600401610b6390614016565b6002805491151563010000000263ff00000019909216919091179055565b601154600090600160a060020a031633600160a060020a0316146122f05760405160e560020a62461bcd028152600401610b63906140b9565b60025460ff16156123165760405160e560020a62461bcd028152600401610b63906140f0565b60095460405160e060020a6370a08231028152336004820152600091600160a060020a0316906370a0823190602401602060405180830381865afa158015612362573d6000803e3d6000fd5b505050506040513d601f19601f820116820180604052508101906123869190614127565b9050600084116123db5760405160e560020a62461bcd02815260206004820152601860248201527f55534443206465706f736974206d757374206265203e203000000000000000006044820152606401610b63565b8084111561242e5760405160e560020a62461bcd02815260206004820152601960248201527f5553444320646573697265642065786365656465642062616c000000000000006044820152606401610b63565b60025462010000900460ff16156124d157600f5473__SafeSwapUni___________________________9063709128be90600160a060020a03168686602a3361247842610258612d54565b6040518763ffffffff1660e060020a02815260040161249c96959493929190614140565b60006040518083038186803b1580156124b457600080fd5b505af41580156124c8573d6000803e3d6000fd5b50505050612732565b600f5473__SafeSwapUni___________________________9063709128be90600160a060020a0316612504876002612fc3565b86601f3061251442610258612d54565b6040518763ffffffff1660e060020a02815260040161253896959493929190614140565b60006040518083038186803b15801561255057600080fd5b505af4158015612564573d6000803e3d6000fd5b5050600f5473__SafeSwapUni___________________________925063709128be9150600160a060020a031661259b876002612fc3565b866020306125ab42610258612d54565b6040518763ffffffff1660e060020a0281526004016125cf96959493929190614140565b60006040518083038186803b1580156125e757600080fd5b505af41580156125fb573d6000803e3d6000fd5b505060065460405160e060020a6370a0823102815230600482015260009350600160a060020a0390911691506370a0823190602401602060405180830381865afa15801561264d573d6000803e3d6000fd5b505050506040513d601f19601f820116820180604052508101906126719190614127565b60075460405160e060020a6370a08231028152306004820152919250600091600160a060020a03909116906370a0823190602401602060405180830381865afa1580156126c2573d6000803e3d6000fd5b505050506040513d601f19601f820116820180604052508101906126e69190614127565b600f5460065491925061270691600160a060020a03908116911684613441565b600f5460075461272391600160a060020a03918216911683613441565b61272f8282873361352b565b50505b60055460405160e060020a6370a08231028152336004820152600160a060020a03909116906370a0823190602401602060405180830381865afa15801561277d573d6000803e3d6000fd5b505050506040513d601f19601f820116820180604052508101906127a19190614127565b949350505050565b60288181548110610b1c57600080fd5b600260015414156127df5760405160e560020a62461bcd028152600401610b6390614082565b60026001556127f060025460ff1690565b156128105760405160e560020a62461bcd028152600401610b63906140f0565b6002546301000000900460ff1661283c5760405160e560020a62461bcd028152600401610b63906141b8565b60145474010000000000000000000000000000000000000000900460ff161561288c57601454600160a060020a0316331461288c5760405160e560020a62461bcd028152600401610b639061404b565b6128966000612fcf565b60085460405160e060020a6370a08231028152306004820152600091600160a060020a0316906370a0823190602401602060405180830381865afa1580156128e2573d6000803e3d6000fd5b505050506040513d601f19601f820116820180604052508101906129069190614127565b905061291181613620565b905061291d818361367f565b600254909150610100900460ff168061293e575060025462010000900460ff165b15612955574360155561294f612d73565b50612c46565b600f5460085461297391600160a060020a039182169116600061379e565b600f5460085461299091600160a060020a03918216911683613441565b600654600854600160a060020a03908116911614612a4257600f5473__SafeSwapUni___________________________9063709128be90600160a060020a03166129db846002612fc3565b601e546024306129ed42610258612d54565b6040518763ffffffff1660e060020a028152600401612a1196959493929190614140565b60006040518083038186803b158015612a2957600080fd5b505af4158015612a3d573d6000803e3d6000fd5b505050505b600754600854600160a060020a03908116911614612af457600f5473__SafeSwapUni___________________________9063709128be90600160a060020a0316612a8d846002612fc3565b601e54602530612a9f42610258612d54565b6040518763ffffffff1660e060020a028152600401612ac396959493929190614140565b60006040518083038186803b158015612adb57600080fd5b505af4158015612aef573d6000803e3d6000fd5b505050505b60065460405160e060020a6370a08231028152306004820152600091600160a060020a0316906370a0823190602401602060405180830381865afa158015612b40573d6000803e3d6000fd5b505050506040513d601f19601f82011682018060405250810190612b649190614127565b60075460405160e060020a6370a08231028152306004820152919250600091600160a060020a03909116906370a0823190602401602060405180830381865afa158015612bb5573d6000803e3d6000fd5b505050506040513d601f19601f82011682018060405250810190612bd99190614127565b9050600082118015612beb5750600081115b15612c3657600f54600654612c0d91600160a060020a03918216911684613441565b600f54600754612c2a91600160a060020a03918216911683613441565b612c368282863061352b565b43601555612c42612d73565b5050505b5060018055565b600054600160a060020a03163314612c7a5760405160e560020a62461bcd028152600401610b6390614016565b60108054600160a060020a031916600160a060020a0392909216919091179055565b600054600160a060020a03163314612cc95760405160e560020a62461bcd028152600401610b6390614016565b600160a060020a038116612d485760405160e560020a62461bcd02815260206004820152602660248201527f4f776e61626c653a206e6577206f776e657220697320746865207a65726f206160448201527f64647265737300000000000000000000000000000000000000000000000000006064820152608401610b63565b612d5181613396565b50565b6000612d60828461421e565b9392505050565b6000612d608284614236565b6002546301000000900460ff16612d9f5760405160e560020a62461bcd028152600401610b63906141b8565b60055460405160e060020a6370a08231028152306004820152600091600160a060020a0316906370a0823190602401602060405180830381865afa158015612deb573d6000803e3d6000fd5b505050506040513d601f19601f82011682018060405250810190612e0f9190614127565b601654909150612e1f9082612d54565b601655600454600554612e3f91600160a060020a03918216911683613441565b600254610100900460ff1615612ec857600480546040517f41441d3b000000000000000000000000000000000000000000000000000000008152918201839052600160a060020a0316906341441d3b906024015b600060405180830381600087803b158015612ead57600080fd5b505af1158015612ec1573d6000803e3d6000fd5b5050505050565b600480546003546040517fe2bbb1580000000000000000000000000000000000000000000000000000000081529283015260248201839052600160a060020a03169063e2bbb15890604401612e93565b60025460ff16612f6d5760405160e560020a62461bcd02815260206004820152601460248201527f5061757361626c653a206e6f74207061757365640000000000000000000000006044820152606401610b63565b6002805460ff191690557f5db9ee0a495bf2e6ff9c91a7834c1ba4fdd244a5e8aa4e537bd38aeae4b073aa335b604051600160a060020a03909116815260200160405180910390a1565b6000612d60828461424d565b6000612d60828461426c565b600254610100900460ff161561302757600480546040517f1058d281000000000000000000000000000000000000000000000000000000008152918201839052600160a060020a031690631058d28190602401612e93565b600480546003546040517f441a3e700000000000000000000000000000000000000000000000000000000081529283015260248201839052600160a060020a03169063441a3e7090604401612e93565b604051600160a060020a0383166024820152604481018290526116ec9084907fa9059cbb00000000000000000000000000000000000000000000000000000000906064015b60408051601f198184030181529190526020810180517bffffffffffffffffffffffffffffffffffffffffffffffffffffffff167fffffffff00000000000000000000000000000000000000000000000000000000909316929092179091526138ef565b60065460105460405160e060020a6370a08231028152600160a060020a03918216600482015260009291909116906370a0823190602401602060405180830381865afa158015613174573d6000803e3d6000fd5b505050506040513d601f19601f820116820180604052508101906131989190614127565b60075460105460405160e060020a6370a08231028152600160a060020a0391821660048201529293506000929116906370a0823190602401602060405180830381865afa1580156131ed573d6000803e3d6000fd5b505050506040513d601f19601f820116820180604052508101906132119190614127565b90506000601060009054906101000a9004600160a060020a0316600160a060020a03166318160ddd6040518163ffffffff1660e060020a028152600401602060405180830381865afa15801561326b573d6000803e3d6000fd5b505050506040513d601f19601f8201168201806040525081019061328f9190614127565b905060006132a96103e8610e9b88610e9586838d8b612fb7565b905060006132c36103e8610e9b89610e9587838e8b612fb7565b600f54600654600754929350600160a060020a039182169263baa2abde9291821691168b86868c6132f642610258612d54565b60405163ffffffff891660e060020a028152600160a060020a039788166004820152958716602487015260448601949094526064850192909252608484015290921660a482015260c481019190915260e40160408051808303816000875af1158015613366573d6000803e3d6000fd5b505050506040513d601f19601f8201168201806040525081019061338a91906142a7565b50505050505050505050565b60008054600160a060020a03838116600160a060020a0319831681178455604051919092169283917f8be0079c531659141344cd1fd0a4f28419497f9722a3daafe3b4186f6b6457e09190a35050565b60025460ff161561340c5760405160e560020a62461bcd028152600401610b63906140f0565b6002805460ff191660011790557f62e78cea01bee320cd4e420270b5ea74000d11b0c9f74754ebdbfc544b05a258612f9a3390565b6040517fdd62ed3e000000000000000000000000000000000000000000000000000000008152306004820152600160a060020a038381166024830152600091839186169063dd62ed3e90604401602060405180830381865afa1580156134ab573d6000803e3d6000fd5b505050506040513d601f19601f820116820180604052508101906134cf9190614127565b6134d9919061421e565b604051600160a060020a0385166024820152604481018290529091506135259085907f095ea7b300000000000000000000000000000000000000000000000000000000906064016130bc565b50505050565b600f54600654600754600160a060020a039283169263e8e337009281169116878761355c6103e8610e9b848b612fb7565b61356c6103e8610e9b8c8c612fb7565b8861357942610258612d54565b60405163ffffffff8a1660e060020a028152600160a060020a039889166004820152968816602488015260448701959095526064860193909352608485019190915260a484015290921660c482015260e4810191909152610104016060604051808303816000875af11580156135f3573d6000803e3d6000fd5b505050506040513d601f19601f8201168201806040525081019061361791906142cb565b50505050505050565b6000811561367b576019541561367b57600061364d612710610e9b60195486612fb790919063ffffffff16565b600e5460085491925061366d91600160a060020a03908116911683613077565b6136778382612d67565b9250505b5090565b601a546000908190156136aa576136a7612710610e9b601a5487612fb790919063ffffffff16565b90505b6000600254640100000000900460ff16156136d8576136c982856139d7565b6136d38185613c9f565b61378a565b601154600160a060020a03166137036136f18484612d54565b601154600160a060020a031687613cfe565b6003546040517fc8d9bc9400000000000000000000000000000000000000000000000000000000815260048101919091526024810184905260448101839052600160a060020a0382169063c8d9bc9490606401600060405180830381600087803b15801561377057600080fd5b505af1158015613784573d6000803e3d6000fd5b50505050505b611597816137988785612d67565b90612d67565b80158061383157506040517fdd62ed3e000000000000000000000000000000000000000000000000000000008152306004820152600160a060020a03838116602483015284169063dd62ed3e90604401602060405180830381865afa15801561380b573d6000803e3d6000fd5b505050506040513d601f19601f8201168201806040525081019061382f9190614127565b155b6138a65760405160e560020a62461bcd02815260206004820152603660248201527f5361666545524332303a20617070726f76652066726f6d206e6f6e2d7a65726f60448201527f20746f206e6f6e2d7a65726f20616c6c6f77616e6365000000000000000000006064820152608401610b63565b604051600160a060020a0383166024820152604481018290526116ec9084907f095ea7b300000000000000000000000000000000000000000000000000000000906064016130bc565b6000613944826040518060400160405280602081526020017f5361666545524332303a206c6f772d6c6576656c2063616c6c206661696c656481525085600160a060020a0316613d879092919063ffffffff16565b8051909150156116ec578080602001905181019061396291906142f9565b6116ec5760405160e560020a62461bcd02815260206004820152602a60248201527f5361666545524332303a204552433230206f7065726174696f6e20646964206e60448201527f6f742073756363656564000000000000000000000000000000000000000000006064820152608401610b63565b600f546008546139f491600160a060020a03918216911684613441565b600f5473__SafeSwapUni___________________________9063709128be90600160a060020a0316613a27856002612fc3565b84602830613a3742610258612d54565b6040518763ffffffff1660e060020a028152600401613a5b96959493929190614140565b60006040518083038186803b158015613a7357600080fd5b505af4158015613a87573d6000803e3d6000fd5b5050600f5473__SafeSwapUni___________________________925063709128be9150600160a060020a0316613abe856002612fc3565b84602930613ace42610258612d54565b6040518763ffffffff1660e060020a028152600401613af296959493929190614140565b60006040518083038186803b158015613b0a57600080fd5b505af4158015613b1e573d6000803e3d6000fd5b5050600b5460405160e060020a6370a0823102815230600482015260009350600160a060020a0390911691506370a0823190602401602060405180830381865afa158015613b70573d6000803e3d6000fd5b505050506040513d601f19601f82011682018060405250810190613b949190614127565b600c5460405160e060020a6370a08231028152306004820152919250600091600160a060020a03909116906370a0823190602401602060405180830381865afa158015613be5573d6000803e3d6000fd5b505050506040513d601f19601f82011682018060405250810190613c099190614127565b600f54600654919250613c2991600160a060020a03908116911684613441565b600f54600754613c4691600160a060020a03918216911683613441565b600f54600b54600c54600160a060020a039283169263e8e3370092811691168585613c776103e8610e9b848c612fb7565b613c876103e8610e9b8a8d612fb7565b600d54600160a060020a031661357942610258612d54565b600f54600854613cbc91600160a060020a03918216911684613441565b600f5460135473__SafeSwapUni___________________________9163709128be91600160a060020a0391821691869186916023911661211942610258612d54565b600f5473__SafeSwapUni___________________________9063709128be90600160a060020a03168584602c87613d3742610258612d54565b6040518763ffffffff1660e060020a028152600401613d5b96959493929190614140565b60006040518083038186803b158015613d7357600080fd5b505af4158015613617573d6000803e3d6000fd5b60606127a1848460008585600160a060020a0385163b613dec5760405160e560020a62461bcd02815260206004820152601d60248201527f416464726573733a2063616c6c20746f206e6f6e2d636f6e74726163740000006044820152606401610b63565b60008086600160a060020a03168587604051613e089190614342565b60006040518083038185875af1925050503d8060008114613e45576040519150601f19603f3d011682016040523d82523d6000602084013e613e4a565b606091505b5091509150613e5a828286613e65565b979650505050505050565b60608315613e74575081612d60565b825115613e845782518084602001fd5b8160405160e560020a62461bcd028152600401610b63919061435e565b600060208284031215613eb357600080fd5b5035919050565b8035600160a060020a0381168114613ed157600080fd5b919050565b600060208284031215613ee857600080fd5b612d6082613eba565b8015158114612d5157600080fd5b600060208284031215613f1157600080fd5b8135612d6081613ef1565b60008060408385031215613f2f57600080fd5b613f3883613eba565b91506020830135613f4881613ef1565b809150509250929050565b60008060408385031215613f6657600080fd5b50508035926020909101359150565b600080600060608486031215613f8a57600080fd5b613f9384613eba565b925060208401359150613fa860408501613eba565b90509250925092565b600080600080600060a08688031215613fc957600080fd5b505083359560208501359550604085013594606081013594506080013592509050565b60008060408385031215613fff57600080fd5b61400883613eba565b946020939093013593505050565b6020808252818101527f4f776e61626c653a2063616c6c6572206973206e6f7420746865206f776e6572604082015260600190565b60208082526004908201527f21676f7600000000000000000000000000000000000000000000000000000000604082015260600190565b6020808252601f908201527f5265656e7472616e637947756172643a207265656e7472616e742063616c6c00604082015260600190565b60208082526010908201527f217a6f72726f436f6e74726f6c6c657200000000000000000000000000000000604082015260600190565b60208082526010908201527f5061757361626c653a2070617573656400000000000000000000000000000000604082015260600190565b60006020828403121561413957600080fd5b5051919050565b600060c08201600160a060020a03808a1684526020898186015288604086015260c0606086015282885480855260e0870191508960005282600020945060005b8181101561419e578554851683526001958601959284019201614180565b505096909116608085015250505060a00152949350505050565b6020808252600c908201527f2169735a6f72726f436f6d700000000000000000000000000000000000000000604082015260600190565b7f4e487b7100000000000000000000000000000000000000000000000000000000600052601160045260246000fd5b60008219821115614231576142316141ef565b500190565b600082821015614248576142486141ef565b500390565b6000816000190483118215151615614267576142676141ef565b500290565b6000826142a2577f4e487b7100000000000000000000000000000000000000000000000000000000600052601260045260246000fd5b500490565b600080604083850312156142ba57600080fd5b505080516020909101519092909150565b6000806000606084860312156142e057600080fd5b8351925060208401519150604084015190509250925092565b60006020828403121561430b57600080fd5b8151612d6081613ef1565b60005b83811015614331578181015183820152602001614319565b838111156135255750506000910152565b60008251614354818460208701614316565b9190910192915050565b602081526000825180602084015261437d816040850160208701614316565b601f01601f1916919091016040019291505056fea26469706673582212205e6d3cf3deca716009b1f1966124bcc0d44ffd0165964044747ec6eaa76c1d8464736f6c634300080a0033",
  "immutableReferences": {},
  "source": "// SPDX-License-Identifier: MIT\n\npragma solidity ^0.8.0;\n\nimport \"@openzeppelin/contracts/token/ERC20/ERC20.sol\";\n\nimport \"@openzeppelin/contracts/utils/Address.sol\";\n\nimport \"../interfaces/IAMMFarm.sol\";\n\nimport \"../interfaces/IAMMRouter02.sol\";\n\nimport \"./_VaultBase.sol\";\n\nimport \"@openzeppelin/contracts/token/ERC20/IERC20.sol\";\n\nimport \"@openzeppelin/contracts/token/ERC20/utils/SafeERC20.sol\";\n\nimport \"@openzeppelin/contracts/utils/math/SafeMath.sol\";\n\nimport \"../libraries/SafeSwap.sol\";\n\n\n/// @title VaultStandardAMM: abstract base class for all PancakeSwap style AMM contracts. Maximizes yield in AMM.\ncontract VaultStandardAMM is VaultBase {\n    /* Libraries */\n    using SafeERC20 for IERC20;\n    using SafeMath for uint256;\n    using SafeSwapUni for IAMMRouter02;\n\n    /* Constructor */\n    /// @notice Constructor\n    /// @param _addresses Array of [govAddress, zorroControllerAddress, ZORROAddress, wantAddress, token0Address, token1Address, earnedAddress, farmContractAddress, rewardsAddress, poolAddress, uniRouterAddress, zorroLPPool, zorroLPPoolToken0, zorroLPPoolToken1]\n    /// @param _pid Pool ID this Vault is associated with\n    /// @param _isCOREStaking If true, is for staking just core token of AMM (e.g. CAKE for Pancakeswap, BANANA for Apeswap, etc.). Set to false for Zorro single staking vault\n    /// @param _isSingleAssetDeposit Same asset token (not LP pair). Set to True for pools with single assets (ZOR, CAKE, BANANA, ADA, etc.)\n    /// @param _isZorroComp This vault is for compounding. If true, will trigger farming/unfarming on earn events. Set to false for Zorro single staking vault\n    /// @param _isHomeChain Whether this contract is deployed on the home chain (BSC)\n    /// @param _swapPaths A flattened array of swap paths for a Uniswap style router. Ordered as: [earnedToZORROPath, earnedToToken0Path, earnedToToken1Path, USDCToToken0Path, USDCToToken1Path, earnedToZORLPPoolToken0Path, earnedToZORLPPoolToken1Path, earnedToUSDCPath, USDCToZORROPath]\n    /// @param _swapPathStartIndexes An array of start indexes within _swapPaths to represent the start of a new swap path\n    /// @param _fees Array of [_controllerFee, _buyBackRate, _entranceFeeFactor, _withdrawFeeFactor]\n    constructor(\n        address[] memory _addresses,\n        uint256 _pid,\n        bool _isCOREStaking,\n        bool _isSingleAssetDeposit,\n        bool _isZorroComp,\n        bool _isHomeChain,\n        address[] memory _swapPaths,\n        uint16[] memory _swapPathStartIndexes,\n        uint256[] memory _fees\n    ) {\n        // Key addresses\n        govAddress = _addresses[0];\n        zorroControllerAddress = _addresses[1];\n        ZORROAddress = _addresses[2];\n        wantAddress = _addresses[3];\n        token0Address = _addresses[4];\n        token1Address = _addresses[5];\n        earnedAddress = _addresses[6];\n        farmContractAddress = _addresses[7];\n        rewardsAddress = _addresses[8];\n        poolAddress = _addresses[9];\n        uniRouterAddress = _addresses[10];\n        zorroLPPool = _addresses[11];\n        zorroLPPoolToken0 = _addresses[12];\n        zorroLPPoolToken1 = _addresses[13];\n\n        // Vault characteristics\n        pid = _pid;\n        isCOREStaking = _isCOREStaking;\n        isSingleAssetDeposit = _isSingleAssetDeposit;\n        isZorroComp = _isZorroComp;\n        isHomeChain = _isHomeChain;\n\n        // Swap paths by unflattening _swapPaths\n        _unpackSwapPaths(_swapPaths, _swapPathStartIndexes);\n\n        // Corresponding reverse paths\n        token0ToEarnedPath = _reversePath(earnedToToken0Path);\n        token1ToEarnedPath = _reversePath(earnedToToken1Path);\n        token0ToUSDCPath = _reversePath(USDCToToken0Path);\n        token1ToUSDCPath = _reversePath(USDCToToken1Path);\n\n        // Fees\n        controllerFee = _fees[0];\n        buyBackRate = _fees[1];\n        entranceFeeFactor = _fees[2];\n        withdrawFeeFactor = _fees[3];\n    }\n\n    /* Investment Actions */\n\n    /// @notice Receives new deposits from user\n    /// @param _account The address of the end user account making the deposit\n    /// @param _wantAmt The amount of Want token to deposit (must already be transferred)\n    /// @return Number of shares added\n    function depositWantToken(address _account, uint256 _wantAmt)\n        public\n        override\n        onlyZorroController\n        nonReentrant\n        whenNotPaused\n        returns (uint256)\n    {\n        // Get balance of want token (the deposited amount)\n        uint256 _wantBal = IERC20(wantAddress).balanceOf(address(this));\n        // Check to see if Want token was actually deposited, Want amount already present\n        require(_wantAmt > 0, \"Want token deposit must be > 0\");\n        require(_wantAmt <= _wantBal, \"Exceeds Want bal for deposit\");\n\n        // Set sharesAdded to the Want token amount specified\n        uint256 sharesAdded = _wantAmt;\n        // If the total number of shares and want tokens locked both exceed 0, the shares added is the proportion of Want tokens locked,\n        // discounted by the entrance fee\n        if (wantLockedTotal > 0 && sharesTotal > 0) {\n            sharesAdded = _wantAmt\n                .mul(sharesTotal)\n                .mul(entranceFeeFactor)\n                .div(wantLockedTotal)\n                .div(entranceFeeFactorMax);\n        }\n        // Increment the shares\n        sharesTotal = sharesTotal.add(sharesAdded);\n        userShares[_account] = userShares[_account].add(sharesAdded);\n\n        if (isZorroComp) {\n            // If this contract is meant for Autocompounding, start to farm the staked token\n            _farm();\n        } else {\n            // Otherwise, simply increment the quantity of total Want tokens locked\n            wantLockedTotal = wantLockedTotal.add(_wantAmt);\n        }\n\n        return sharesAdded;\n    }\n\n    /// @notice Performs necessary operations to convert USDC into Want token and transfer back to sender\n    /// @param _amountUSDC The amount of USDC to exchange for Want token (must already be deposited on this contract)\n    /// @param _maxMarketMovementAllowed The max slippage allowed. 1000 = 0 %, 995 = 0.5%, etc.\n    /// @return Amount of Want token obtained\n    function exchangeUSDForWantToken(\n        uint256 _amountUSDC,\n        uint256 _maxMarketMovementAllowed\n    ) public override onlyZorroController whenNotPaused returns (uint256) {\n        // TODO: Take in current market prices (oracle)\n\n        // Get balance of deposited USDC\n        uint256 _balUSDC = IERC20(tokenUSDCAddress).balanceOf(msg.sender);\n        // Check that USDC was actually deposited\n        require(_amountUSDC > 0, \"USDC deposit must be > 0\");\n        require(_amountUSDC <= _balUSDC, \"USDC desired exceeded bal\");\n\n        // For single token pools, simply swap to Want token right away\n        if (isSingleAssetDeposit) {\n            // Swap USDC for Want token\n            IAMMRouter02(uniRouterAddress).safeSwap(\n                _amountUSDC,\n                _maxMarketMovementAllowed,\n                USDCToWantPath,\n                msg.sender,\n                block.timestamp.add(600)\n            );\n        } else {\n            // For multi token pools (i.e. LP pools)\n\n            // Swap USDC for token0\n            IAMMRouter02(uniRouterAddress).safeSwap(\n                _amountUSDC.div(2),\n                _maxMarketMovementAllowed,\n                USDCToToken0Path,\n                address(this),\n                block.timestamp.add(600)\n            );\n\n            // Swap USDC for token1 (if applicable)\n            IAMMRouter02(uniRouterAddress).safeSwap(\n                _amountUSDC.div(2),\n                _maxMarketMovementAllowed,\n                USDCToToken1Path,\n                address(this),\n                block.timestamp.add(600)\n            );\n\n            // Deposit token0, token1 into LP pool to get Want token (i.e. LP token)\n            uint256 token0Amt = IERC20(token0Address).balanceOf(address(this));\n            uint256 token1Amt = IERC20(token1Address).balanceOf(address(this));\n            IERC20(token0Address).safeIncreaseAllowance(\n                    uniRouterAddress,\n                    token0Amt\n                );\n            IERC20(token1Address).safeIncreaseAllowance(\n                uniRouterAddress,\n                token1Amt\n            );\n            _joinPool(token0Amt, token1Amt, _maxMarketMovementAllowed, msg.sender);\n            \n        }\n\n        // Calculate resulting want token balance\n        return IERC20(wantAddress).balanceOf(msg.sender);\n    }\n\n    /// @notice Public function for farming Want token.\n    function farm() public nonReentrant {\n        _farm();\n    }\n\n    /// @notice Internal function for farming Want token. Responsible for staking Want token in a MasterChef/MasterApe-like contract\n    function _farm() internal {\n        // Farming should only occur if this contract is set for autocompounding\n        require(isZorroComp, \"!isZorroComp\");\n\n        // Get the Want token stored on this contract\n        uint256 wantAmt = IERC20(wantAddress).balanceOf(address(this));\n        // Increment the total Want tokens locked into this contract\n        wantLockedTotal = wantLockedTotal.add(wantAmt);\n        // Allow the farm contract (e.g. MasterChef/MasterApe) the ability to transfer up to the Want amount\n        IERC20(wantAddress).safeIncreaseAllowance(farmContractAddress, wantAmt);\n\n        if (isCOREStaking) {\n            // If this contract is meant for staking a core asset of the underlying protocol (e.g. CAKE on Pancakeswap, BANANA on Apeswap),\n            // Stake that token in a single-token-staking vault on the Farm contract\n            IAMMFarm(farmContractAddress).enterStaking(wantAmt);\n        } else {\n            // Otherwise deposit the Want tokens in the Farm contract for the appropriate pool ID (PID)\n            IAMMFarm(farmContractAddress).deposit(pid, wantAmt);\n        }\n    }\n\n    /// @notice Internal function for unfarming Want token. Responsible for unstaking Want token from MasterChef/MasterApe contracts\n    /// @param _wantAmt the amount of Want tokens to withdraw. If 0, will only harvest and not withdraw\n    function _unfarm(uint256 _wantAmt) internal {\n        if (isCOREStaking) {\n            // If this is contract is meant for staking a core assets of the underlying protocol,\n            // simply un-stake the asset from the single-token-staking vault on the Farm contract\n            IAMMFarm(farmContractAddress).leaveStaking(_wantAmt); // Just for CAKE staking, we dont use withdraw()\n        } else {\n            // Otherwise simply withdraw the Want tokens from the Farm contract pool\n            IAMMFarm(farmContractAddress).withdraw(pid, _wantAmt);\n        }\n    }\n\n    /// @notice Fully withdraw Want tokens from the Farm contract (100% withdrawals only)\n    /// @param _account address of user\n    /// @param _harvestOnly If true, will only harvest Zorro tokens but not do a withdrawal\n    /// @return The number of shares removed\n    function withdrawWantToken(address _account, bool _harvestOnly)\n        public\n        onlyZorroController\n        nonReentrant\n        whenNotPaused\n        override\n        returns (uint256)\n    {\n        uint256 _wantAmt = 0;\n        if (!_harvestOnly) {\n            uint256 _userNumShares = userShares[_account];\n            _wantAmt = IERC20(wantAddress).balanceOf(address(this)).mul(_userNumShares).div(sharesTotal);\n        }\n\n        // Shares removed is proportional to the % of total Want tokens locked that _wantAmt represents\n        uint256 sharesRemoved = _wantAmt.mul(sharesTotal).div(wantLockedTotal);\n        // Safety: cap the shares to the total number of shares\n        if (sharesRemoved > sharesTotal) {\n            sharesRemoved = sharesTotal;\n        }\n        // Decrement the total shares by the sharesRemoved\n        sharesTotal = sharesTotal.sub(sharesRemoved);\n        userShares[_account] = userShares[_account].sub(sharesRemoved);\n\n        // If a withdrawal fee is specified, discount the _wantAmt by the withdrawal fee\n        if (withdrawFeeFactor < withdrawFeeFactorMax) {\n            _wantAmt = _wantAmt.mul(withdrawFeeFactor).div(\n                withdrawFeeFactorMax\n            );\n        }\n\n        // If this contract is designated for auto compounding, unfarm the Want tokens\n        if (isZorroComp) {\n            _unfarm(_wantAmt);\n        }\n\n        // Safety: Check balance of this contract's Want tokens held, and cap _wantAmt to that value\n        uint256 _wantBal = IERC20(wantAddress).balanceOf(address(this));\n        if (_wantAmt > _wantBal) {\n            _wantAmt = _wantBal;\n        }\n        // Safety: cap _wantAmt at the total quantity of Want tokens locked\n        if (wantLockedTotal < _wantAmt) {\n            _wantAmt = wantLockedTotal;\n        }\n\n        // Decrement the total Want locked tokens by the _wantAmt\n        wantLockedTotal = wantLockedTotal.sub(_wantAmt);\n\n        // Finally, transfer the want amount from this contract, back to the ZorroController contract\n        IERC20(wantAddress).safeTransfer(zorroControllerAddress, _wantAmt);\n\n        return sharesRemoved;\n    }\n\n    /// @notice Converts Want token back into USD to be ready for withdrawal, transfers back to sender\n    /// @param _amount The Want token quantity to exchange\n    /// @param _maxMarketMovementAllowed The max slippage allowed for swaps. 1000 = 0 %, 995 = 0.5%, etc.\n    /// @return Amount of USDC token obtained\n    function exchangeWantTokenForUSD(\n        uint256 _amount,\n        uint256 _maxMarketMovementAllowed\n    ) public virtual override onlyZorroController whenNotPaused returns (uint256) {\n        // TODO: Take in current market prices (oracle)\n\n        // Init\n        uint256 _amountUSDC;\n\n        // Calculate Want token balance\n        uint256 _wantBal = IERC20(wantAddress).balanceOf(address(this));\n        \n        // Preflight checks\n        require(_amount <= _wantBal, \"Exceeds want bal\");\n\n        // Check if vault is for single asset staking\n        if (isSingleAssetDeposit) {\n            // If so, immediately swap the Want token for USDC\n\n            IAMMRouter02(uniRouterAddress).safeSwap(\n                _amount,\n                _maxMarketMovementAllowed,\n                WantToUSDCPath,\n                msg.sender,\n                block.timestamp.add(600)\n            );\n        } else {\n            // If not, exit the LP pool and swap assets to USDC\n\n            // Exit LP pool \n            _exitPool(_amount, _maxMarketMovementAllowed, address(this));\n\n            // Swap tokens back to USDC\n            uint256 token0Amt = IERC20(token0Address).balanceOf(address(this));\n            uint256 token1Amt = IERC20(token1Address).balanceOf(address(this));\n            // Swap token0 for USDC\n            IAMMRouter02(uniRouterAddress).safeSwap(\n                token0Amt,\n                _maxMarketMovementAllowed,\n                token0ToUSDCPath,\n                msg.sender,\n                block.timestamp.add(600)\n            );\n\n            // Swap token1 for USDC (if applicable)\n            if (token1Address != address(0)) {\n                IAMMRouter02(uniRouterAddress).safeSwap(\n                    token1Amt,\n                    _maxMarketMovementAllowed,\n                    token1ToUSDCPath,\n                    msg.sender,\n                    block.timestamp.add(600)\n                );\n            }\n        }\n\n        // Calculate USDC balance\n        return IERC20(tokenUSDCAddress).balanceOf(msg.sender);\n    }\n\n    /// @notice Adds liquidity to the pool of this contract\n    /// @param _token0Amt Quantity of Token0 to add\n    /// @param _token1Amt Quantity of Token1 to add\n    /// @param _maxMarketMovementAllowed The max slippage allowed for swaps. 1000 = 0 %, 995 = 0.5%, etc.\n    /// @param _recipient The recipient of the LP token\n    function _joinPool(\n        uint256 _token0Amt,\n        uint256 _token1Amt,\n        uint256 _maxMarketMovementAllowed,\n        address _recipient\n    ) internal {\n        IAMMRouter02(uniRouterAddress).addLiquidity(\n            token0Address,\n            token1Address,\n            _token0Amt,\n            _token1Amt,\n            _token0Amt.mul(_maxMarketMovementAllowed).div(1000),\n            _token1Amt.mul(_maxMarketMovementAllowed).div(1000),\n            _recipient,\n            block.timestamp.add(600)\n        );\n    }\n\n    /// @notice Removes liquidity from a pool and sends tokens back to this address\n    /// @param _amountLP The amount of LP (Want) tokens to remove\n    /// @param _maxMarketMovementAllowed The max slippage allowed for swaps. 1000 = 0 %, 995 = 0.5%, etc.\n    /// @param _recipient The recipient of the underlying tokens at pool exit\n    function _exitPool(\n        uint256 _amountLP, \n        uint256 _maxMarketMovementAllowed,\n        address _recipient\n    ) internal {\n        // Get token balances in LP pool\n        uint256 _balance0 = IERC20(token0Address).balanceOf(poolAddress);\n        uint256 _balance1 = IERC20(token1Address).balanceOf(poolAddress);\n\n        // Get total supply and calculate min amounts desired based on slippage\n        uint256 _totalSupply = IERC20(poolAddress).totalSupply();\n        uint256 _amount0Min = (_amountLP.mul(_balance0).div(_totalSupply)).mul(_maxMarketMovementAllowed).div(1000);\n        uint256 _amount1Min = (_amountLP.mul(_balance1).div(_totalSupply)).mul(_maxMarketMovementAllowed).div(1000);\n\n        // Remove liquidity\n        IAMMRouter02(uniRouterAddress).removeLiquidity(\n            token0Address, \n            token1Address,  \n            _amountLP,  \n            _amount0Min,  \n            _amount1Min,  \n            _recipient,\n            block.timestamp.add(600)\n        );\n    }\n\n    /// @notice The main compounding (earn) function. Reinvests profits since the last earn event.\n    /// @param _maxMarketMovementAllowed The max slippage allowed. 1000 = 0 %, 995 = 0.5%, etc.\n    function earn(uint256 _maxMarketMovementAllowed) public override nonReentrant whenNotPaused {\n        // TODO: Take in price oracle to perform safe swaps\n        // Only to be run if this contract is configured for auto-comnpounding\n        require(isZorroComp, \"!isZorroComp\");\n        // If onlyGov is set to true, only allow to proceed if the current caller is the govAddress\n        if (onlyGov) {\n            require(msg.sender == govAddress, \"!gov\");\n        }\n\n        // Harvest farm tokens\n        _unfarm(0);\n\n        // Get the balance of the Earned token on this contract (CAKE, BANANA, etc.)\n        uint256 earnedAmt = IERC20(earnedAddress).balanceOf(address(this));\n\n        // Reassign value of earned amount after distributing fees\n        earnedAmt = _distributeFees(earnedAmt);\n        // Reassign value of earned amount after buying back a certain amount of Zorro and sharing revenue w/ ZOR stakeholders\n        earnedAmt = _buyBackAndRevShare(earnedAmt, _maxMarketMovementAllowed);\n\n        // If staking a single token (CAKE, BANANA), farm that token and exit\n        if (isCOREStaking || isSingleAssetDeposit) {\n            // Update the last earn block\n            lastEarnBlock = block.number;\n            _farm();\n            return;\n        }\n\n        // Approve the router contract\n        IERC20(earnedAddress).safeApprove(uniRouterAddress, 0);\n        // Allow the router contract to spen up to earnedAmt\n        IERC20(earnedAddress).safeIncreaseAllowance(\n            uniRouterAddress,\n            earnedAmt\n        );\n\n        // Swap Earned token to token0 if token0 is not the Earned token\n        if (earnedAddress != token0Address) {\n            // Swap half earned to token0\n            IAMMRouter02(uniRouterAddress).safeSwap(\n                earnedAmt.div(2),\n                slippageFactor,\n                earnedToToken0Path,\n                address(this),\n                block.timestamp.add(600)\n            );\n        }\n\n        // Swap Earned token to token1 if token0 is not the Earned token\n        if (earnedAddress != token1Address) {\n            // Swap half earned to token1\n            IAMMRouter02(uniRouterAddress).safeSwap(\n                earnedAmt.div(2),\n                slippageFactor,\n                earnedToToken1Path,\n                address(this),\n                block.timestamp.add(600)\n            );\n        }\n\n        // Get values of tokens 0 and 1\n        uint256 token0Amt = IERC20(token0Address).balanceOf(address(this));\n        uint256 token1Amt = IERC20(token1Address).balanceOf(address(this));\n        // Provided that token0 and token1 are both > 0, add liquidity\n        if (token0Amt > 0 && token1Amt > 0) {\n            // Increase the allowance of the router to spend token0\n            IERC20(token0Address).safeIncreaseAllowance(\n                uniRouterAddress,\n                token0Amt\n            );\n            // Increase the allowance of the router to spend token1\n            IERC20(token1Address).safeIncreaseAllowance(\n                uniRouterAddress,\n                token1Amt\n            );\n            // Add liquidity\n            _joinPool(token0Amt, token1Amt, _maxMarketMovementAllowed, address(this));\n        }\n\n        // Update last earned block\n        lastEarnBlock = block.number;\n\n        // Farm Want token\n        _farm();\n    }\n\n    /// @notice Buys back the earned token on-chain, swaps it to add liquidity to the ZOR pool, then burns the associated LP token\n    /// @dev Requires funds to be sent to this address before calling. Can be called internally OR by controller\n    /// @param _amount The amount of Earn token to buy back  \n    function _buybackOnChain(uint256 _amount, uint256 _maxMarketMovementAllowed) internal override {\n        // Authorize spending beforehand\n        IERC20(earnedAddress).safeIncreaseAllowance(\n            uniRouterAddress,\n            _amount\n        );\n\n        // Swap to Token 0\n        IAMMRouter02(uniRouterAddress).safeSwap(\n            _amount.div(2),\n            _maxMarketMovementAllowed,\n            earnedToZORLPPoolToken0Path,\n            address(this),\n            block.timestamp.add(600)\n        );\n\n        // Swap to Token 1\n        IAMMRouter02(uniRouterAddress).safeSwap(\n            _amount.div(2),\n            _maxMarketMovementAllowed,\n            earnedToZORLPPoolToken1Path,\n            address(this),\n            block.timestamp.add(600)\n        );\n\n        // Enter LP pool\n        uint256 token0Amt = IERC20(zorroLPPoolToken0).balanceOf(address(this));\n        uint256 token1Amt = IERC20(zorroLPPoolToken1).balanceOf(address(this));\n        IERC20(token0Address).safeIncreaseAllowance(\n            uniRouterAddress,\n            token0Amt\n        );\n        IERC20(token1Address).safeIncreaseAllowance(\n            uniRouterAddress,\n            token1Amt\n        );\n        IAMMRouter02(uniRouterAddress)\n            .addLiquidity(\n                zorroLPPoolToken0,\n                zorroLPPoolToken1,\n                token0Amt,\n                token1Amt,\n                token0Amt.mul(_maxMarketMovementAllowed).div(1000),\n                token1Amt.mul(_maxMarketMovementAllowed).div(1000),\n                burnAddress,\n                block.timestamp.add(600)\n            );\n    }\n\n    /// @notice Sends the specified earnings amount as revenue share to ZOR stakers\n    /// @param _amount The amount of Earn token to share as revenue with ZOR stakers\n    function _revShareOnChain(uint256 _amount, uint256 _maxMarketMovementAllowed) internal override {\n        // Authorize spending beforehand\n        IERC20(earnedAddress).safeIncreaseAllowance(\n            uniRouterAddress,\n            _amount\n        );\n\n        // Swap to ZOR\n        IAMMRouter02(uniRouterAddress).safeSwap(\n            _amount,\n            _maxMarketMovementAllowed,\n            earnedToZORROPath,\n            zorroStakingVault,\n            block.timestamp.add(600)\n        );\n    }\n\n    /// @notice Swaps Earn token to USDC and sends to destination specified\n    /// @param _earnedAmount Quantity of Earned tokens\n    /// @param _destination Address to send swapped USDC to\n    /// @param _maxMarketMovementAllowed Slippage factor. 950 = 5%, 990 = 1%, etc.\n    function _swapEarnedToUSDC(\n        uint256 _earnedAmount,\n        address _destination,\n        uint256 _maxMarketMovementAllowed\n    ) internal override {\n        // Perform swap with Uni router\n        IAMMRouter02(uniRouterAddress).safeSwap(\n            _earnedAmount,\n            _maxMarketMovementAllowed,\n            earnedToUSDCPath,\n            _destination,\n            block.timestamp.add(600)\n        );\n    }\n}\n",
  "sourcePath": "/Users/kristophm/Documents/workspace/zorro-protocol/contracts/vaults/VaultStandardAMM.sol",
  "compiler": {
    "name": "solc",
    "version": "0.8.10+commit.fc410830.Emscripten.clang"
  },
  "schemaVersion": "3.4.4",
  "updatedAt": "2022-03-16T13:36:31.989Z",
  "devdoc": {
    "kind": "dev",
    "methods": {
      "constructor": {
        "params": {
          "_addresses": "Array of [govAddress, zorroControllerAddress, ZORROAddress, wantAddress, token0Address, token1Address, earnedAddress, farmContractAddress, rewardsAddress, poolAddress, uniRouterAddress, zorroLPPool, zorroLPPoolToken0, zorroLPPoolToken1]",
          "_fees": "Array of [_controllerFee, _buyBackRate, _entranceFeeFactor, _withdrawFeeFactor]",
          "_isCOREStaking": "If true, is for staking just core token of AMM (e.g. CAKE for Pancakeswap, BANANA for Apeswap, etc.). Set to false for Zorro single staking vault",
          "_isHomeChain": "Whether this contract is deployed on the home chain (BSC)",
          "_isSingleAssetDeposit": "Same asset token (not LP pair). Set to True for pools with single assets (ZOR, CAKE, BANANA, ADA, etc.)",
          "_isZorroComp": "This vault is for compounding. If true, will trigger farming/unfarming on earn events. Set to false for Zorro single staking vault",
          "_pid": "Pool ID this Vault is associated with",
          "_swapPathStartIndexes": "An array of start indexes within _swapPaths to represent the start of a new swap path",
          "_swapPaths": "A flattened array of swap paths for a Uniswap style router. Ordered as: [earnedToZORROPath, earnedToToken0Path, earnedToToken1Path, USDCToToken0Path, USDCToToken1Path, earnedToZORLPPoolToken0Path, earnedToZORLPPoolToken1Path, earnedToUSDCPath, USDCToZORROPath]"
        }
      },
      "depositWantToken(address,uint256)": {
        "params": {
          "_account": "The address of the end user account making the deposit",
          "_wantAmt": "The amount of Want token to deposit (must already be transferred)"
        },
        "returns": {
          "_0": "Number of shares added"
        }
      },
      "earn(uint256)": {
        "params": {
          "_maxMarketMovementAllowed": "The max slippage allowed. 1000 = 0 %, 995 = 0.5%, etc."
        }
      },
      "exchangeUSDForWantToken(uint256,uint256)": {
        "params": {
          "_amountUSDC": "The amount of USDC to exchange for Want token (must already be deposited on this contract)",
          "_maxMarketMovementAllowed": "The max slippage allowed. 1000 = 0 %, 995 = 0.5%, etc."
        },
        "returns": {
          "_0": "Amount of Want token obtained"
        }
      },
      "exchangeWantTokenForUSD(uint256,uint256)": {
        "params": {
          "_amount": "The Want token quantity to exchange",
          "_maxMarketMovementAllowed": "The max slippage allowed for swaps. 1000 = 0 %, 995 = 0.5%, etc."
        },
        "returns": {
          "_0": "Amount of USDC token obtained"
        }
      },
      "inCaseTokensGetStuck(address,uint256,address)": {
        "params": {
          "_amount": "The amount of the tokens to transfer",
          "_to": "The address to transfer tokens to",
          "_token": "Address of the ERC20 token to transfer"
        }
      },
      "owner()": {
        "details": "Returns the address of the current owner."
      },
      "paused()": {
        "details": "Returns true if the contract is paused, and false otherwise."
      },
      "renounceOwnership()": {
        "details": "Leaves the contract without owner. It will not be possible to call `onlyOwner` functions anymore. Can only be called by the current owner. NOTE: Renouncing ownership will leave the contract without an owner, thereby removing any functionality that is only available to the owner."
      },
      "setFeeSettings(uint256,uint256,uint256,uint256,uint256)": {
        "params": {
          "_buyBackRate": "Buy back rate fee numerator",
          "_controllerFee": "Controller fee numerator",
          "_entranceFeeFactor": "Entrance fee numerator (higher means smaller percentage)",
          "_slippageFactor": "Slippage factor fee numerator",
          "_withdrawFeeFactor": "Withdrawal fee numerator (higher means smaller percentage)"
        }
      },
      "setGov(address)": {
        "params": {
          "_govAddress": "The new gov address"
        }
      },
      "setOnlyGov(bool)": {
        "params": {
          "_onlyGov": "whether onlyGov should be enforced"
        }
      },
      "transferOwnership(address)": {
        "details": "Transfers ownership of the contract to a new account (`newOwner`). Can only be called by the current owner."
      },
      "withdrawWantToken(address,bool)": {
        "params": {
          "_account": "address of user",
          "_harvestOnly": "If true, will only harvest Zorro tokens but not do a withdrawal"
        },
        "returns": {
          "_0": "The number of shares removed"
        }
      }
    },
    "title": "VaultStandardAMM: abstract base class for all PancakeSwap style AMM contracts. Maximizes yield in AMM.",
    "version": 1
  },
  "userdoc": {
    "kind": "user",
    "methods": {
      "constructor": {
        "notice": "Constructor"
      },
      "convertDustToEarned()": {
        "notice": "Converts dust tokens into earned tokens, which will be reinvested on the next earn()"
      },
      "depositWantToken(address,uint256)": {
        "notice": "Receives new deposits from user"
      },
      "earn(uint256)": {
        "notice": "The main compounding (earn) function. Reinvests profits since the last earn event."
      },
      "exchangeUSDForWantToken(uint256,uint256)": {
        "notice": "Performs necessary operations to convert USDC into Want token and transfer back to sender"
      },
      "exchangeWantTokenForUSD(uint256,uint256)": {
        "notice": "Converts Want token back into USD to be ready for withdrawal, transfers back to sender"
      },
      "farm()": {
        "notice": "Public function for farming Want token."
      },
      "inCaseTokensGetStuck(address,uint256,address)": {
        "notice": "Safely transfer ERC20 tokens stuck in this contract to a specified address"
      },
      "pause()": {
        "notice": "Pause contract"
      },
      "setFeeSettings(uint256,uint256,uint256,uint256,uint256)": {
        "notice": "Configure key fee parameters"
      },
      "setGov(address)": {
        "notice": "Set governor address"
      },
      "setOnlyGov(bool)": {
        "notice": "Set onlyGov property"
      },
      "unpause()": {
        "notice": "Unpause contract"
      },
      "withdrawWantToken(address,bool)": {
        "notice": "Fully withdraw Want tokens from the Farm contract (100% withdrawals only)"
      }
    },
    "version": 1
  }
}