{
  "contractName": "VaultActions",
  "abi": [
    {
      "anonymous": false,
      "inputs": [
        {
          "indexed": true,
          "internalType": "address",
          "name": "previousOwner",
          "type": "address"
        },
        {
          "indexed": true,
          "internalType": "address",
          "name": "newOwner",
          "type": "address"
        }
      ],
      "name": "OwnershipTransferred",
      "type": "event"
    },
    {
      "inputs": [],
      "name": "burnAddress",
      "outputs": [
        {
          "internalType": "address",
          "name": "",
          "type": "address"
        }
      ],
      "stateMutability": "view",
      "type": "function"
    },
    {
      "inputs": [],
      "name": "owner",
      "outputs": [
        {
          "internalType": "address",
          "name": "",
          "type": "address"
        }
      ],
      "stateMutability": "view",
      "type": "function"
    },
    {
      "inputs": [],
      "name": "renounceOwnership",
      "outputs": [],
      "stateMutability": "nonpayable",
      "type": "function"
    },
    {
      "inputs": [
        {
          "internalType": "address",
          "name": "newOwner",
          "type": "address"
        }
      ],
      "name": "transferOwnership",
      "outputs": [],
      "stateMutability": "nonpayable",
      "type": "function"
    },
    {
      "inputs": [],
      "name": "uniRouterAddress",
      "outputs": [
        {
          "internalType": "address",
          "name": "",
          "type": "address"
        }
      ],
      "stateMutability": "view",
      "type": "function"
    },
    {
      "inputs": [
        {
          "internalType": "address",
          "name": "_uniRouterAddress",
          "type": "address"
        }
      ],
      "name": "initialize",
      "outputs": [],
      "stateMutability": "nonpayable",
      "type": "function"
    },
    {
      "inputs": [
        {
          "internalType": "address",
          "name": "_uniRouterAddress",
          "type": "address"
        }
      ],
      "name": "setUniRouterAddress",
      "outputs": [],
      "stateMutability": "nonpayable",
      "type": "function"
    },
    {
      "inputs": [
        {
          "internalType": "address",
          "name": "_burnAddress",
          "type": "address"
        }
      ],
      "name": "setBurnAddress",
      "outputs": [],
      "stateMutability": "nonpayable",
      "type": "function"
    },
    {
      "inputs": [
        {
          "internalType": "address",
          "name": "_token0",
          "type": "address"
        },
        {
          "internalType": "address",
          "name": "_token1",
          "type": "address"
        },
        {
          "internalType": "uint256",
          "name": "_token0Amt",
          "type": "uint256"
        },
        {
          "internalType": "uint256",
          "name": "_token1Amt",
          "type": "uint256"
        },
        {
          "internalType": "uint256",
          "name": "_maxMarketMovementAllowed",
          "type": "uint256"
        },
        {
          "internalType": "address",
          "name": "_recipient",
          "type": "address"
        }
      ],
      "name": "joinPool",
      "outputs": [],
      "stateMutability": "nonpayable",
      "type": "function"
    },
    {
      "inputs": [
        {
          "internalType": "uint256",
          "name": "_amountLP",
          "type": "uint256"
        },
        {
          "internalType": "uint256",
          "name": "_maxMarketMovementAllowed",
          "type": "uint256"
        },
        {
          "internalType": "address",
          "name": "_recipient",
          "type": "address"
        },
        {
          "components": [
            {
              "internalType": "address",
              "name": "token0",
              "type": "address"
            },
            {
              "internalType": "address",
              "name": "token1",
              "type": "address"
            },
            {
              "internalType": "address",
              "name": "poolAddress",
              "type": "address"
            },
            {
              "internalType": "address",
              "name": "wantAddress",
              "type": "address"
            }
          ],
          "internalType": "struct VaultActions.ExitPoolParams",
          "name": "_exitPoolParams",
          "type": "tuple"
        }
      ],
      "name": "exitPool",
      "outputs": [],
      "stateMutability": "nonpayable",
      "type": "function"
    },
    {
      "inputs": [
        {
          "components": [
            {
              "internalType": "uint256",
              "name": "amountIn",
              "type": "uint256"
            },
            {
              "internalType": "uint256",
              "name": "priceToken0",
              "type": "uint256"
            },
            {
              "internalType": "uint256",
              "name": "priceToken1",
              "type": "uint256"
            },
            {
              "internalType": "address",
              "name": "token0",
              "type": "address"
            },
            {
              "internalType": "address",
              "name": "token1",
              "type": "address"
            },
            {
              "internalType": "uint256",
              "name": "maxMarketMovementAllowed",
              "type": "uint256"
            },
            {
              "internalType": "address[]",
              "name": "path",
              "type": "address[]"
            },
            {
              "internalType": "address",
              "name": "destination",
              "type": "address"
            }
          ],
          "internalType": "struct SafeSwapParams",
          "name": "_swapParams",
          "type": "tuple"
        }
      ],
      "name": "safeSwap",
      "outputs": [],
      "stateMutability": "nonpayable",
      "type": "function"
    },
    {
      "inputs": [
        {
          "internalType": "uint256",
          "name": "_amount",
          "type": "uint256"
        },
        {
          "internalType": "uint256",
          "name": "_maxMarketMovementAllowed",
          "type": "uint256"
        },
        {
          "components": [
            {
              "internalType": "uint256",
              "name": "earn",
              "type": "uint256"
            },
            {
              "internalType": "uint256",
              "name": "ZOR",
              "type": "uint256"
            },
            {
              "internalType": "uint256",
              "name": "lpPoolOtherToken",
              "type": "uint256"
            },
            {
              "internalType": "uint256",
              "name": "stablecoin",
              "type": "uint256"
            }
          ],
          "internalType": "struct VaultActions.ExchangeRates",
          "name": "_rates",
          "type": "tuple"
        },
        {
          "components": [
            {
              "internalType": "address",
              "name": "earnedAddress",
              "type": "address"
            },
            {
              "internalType": "address",
              "name": "ZORROAddress",
              "type": "address"
            },
            {
              "internalType": "address",
              "name": "zorroLPPoolOtherToken",
              "type": "address"
            },
            {
              "internalType": "address[]",
              "name": "earnedToZORROPath",
              "type": "address[]"
            },
            {
              "internalType": "address[]",
              "name": "earnedToZORLPPoolOtherTokenPath",
              "type": "address[]"
            }
          ],
          "internalType": "struct VaultActions.BuybackBurnLPParams",
          "name": "_params",
          "type": "tuple"
        }
      ],
      "name": "buybackBurnLP",
      "outputs": [],
      "stateMutability": "nonpayable",
      "type": "function"
    },
    {
      "inputs": [
        {
          "internalType": "address[]",
          "name": "_path",
          "type": "address[]"
        }
      ],
      "name": "reversePath",
      "outputs": [
        {
          "internalType": "address[]",
          "name": "_newPath",
          "type": "address[]"
        }
      ],
      "stateMutability": "pure",
      "type": "function"
    }
  ],
  "bytecode": "0x608060405234801561001057600080fd5b50611f34806100206000396000f3fe608060405234801561001057600080fd5b50600436106100d35760003560e060020a9004806370d5ae05116100905780638d82ddca1161006a5780638d82ddca146101a45780638da5cb5b146101b7578063c4d66de8146101c8578063f2fde38b146101db57600080fd5b806370d5ae0514610169578063715018a61461017c5780638b4c5aee1461018457600080fd5b80630c70c281146100d857806312ad7eba146100ed5780634b0e72161461010057806358f5ab9f146101135780635da79d6314610126578063693a090b14610139575b600080fd5b6100eb6100e63660046116b3565b6101ee565b005b6100eb6100fb3660046117dd565b61021a565b6100eb61010e3660046118a6565b610246565b6100eb6101213660046118c1565b6102ab565b6100eb6101343660046118a6565b6102eb565b60655461014c90600160a060020a031681565b604051600160a060020a0390911681526020015b60405180910390f35b60665461014c90600160a060020a031681565b6100eb610347565b610197610192366004611920565b610380565b60405161016091906119a1565b6100eb6101b2366004611a71565b61045a565b603354600160a060020a031661014c565b6100eb6101d63660046118a6565b6106f8565b6100eb6101e93660046118a6565b6107fc565b606081015161020890600160a060020a03163330876108b1565b61021484848484610962565b50505050565b8051606082015161023a91600160a060020a0390911690339030906108b1565b61024381610aec565b50565b603354600160a060020a0316331461027c5760405160e560020a62461bcd02815260040161027390611b09565b60405180910390fd5b6066805473ffffffffffffffffffffffffffffffffffffffff1916600160a060020a0392909216919091179055565b6102c0600160a060020a0387163330876108b1565b6102d5600160a060020a0386163330866108b1565b6102e3868686868686610d03565b505050505050565b603354600160a060020a031633146103185760405160e560020a62461bcd02815260040161027390611b09565b6065805473ffffffffffffffffffffffffffffffffffffffff1916600160a060020a0392909216919091179055565b603354600160a060020a031633146103745760405160e560020a62461bcd02815260040161027390611b09565b61037e6000610e47565b565b80516060908067ffffffffffffffff81111561039e5761039e61161c565b6040519080825280602002602001820160405280156103c7578160200160208202803683370190505b50915060005b818161ffff16101561045357836103fd8261ffff166103f760018851610ea690919063ffffffff16565b90610ea6565b8151811061040d5761040d611b3e565b6020026020010151838261ffff168151811061042b5761042b611b3e565b600160a060020a039092166020928302919091019091015261044c81611b70565b90506103cd565b5050919050565b805161047190600160a060020a03163330876108b1565b8060200151600160a060020a03168160000151600160a060020a031614610516576105166040518061010001604052806104b5600288610ebb90919063ffffffff16565b815260200184600001518152602001846020015181526020018360000151600160a060020a031681526020018360200151600160a060020a031681526020018581526020018360600151815260200130600160a060020a0316815250610aec565b8060400151600160a060020a03168160000151600160a060020a0316146105bb576105bb60405180610100016040528061055a600288610ebb90919063ffffffff16565b815260200184600001518152602001846040015181526020018360000151600160a060020a031681526020018360400151600160a060020a031681526020018581526020018360800151815260200130600160a060020a0316815250610aec565b60208101516040517f70a08231000000000000000000000000000000000000000000000000000000008152306004820152600091600160a060020a0316906370a0823190602401602060405180830381865afa15801561061f573d6000803e3d6000fd5b505050506040513d601f19601f820116820180604052508101906106439190611b92565b60408084015190517f70a08231000000000000000000000000000000000000000000000000000000008152306004820152919250600091600160a060020a03909116906370a0823190602401602060405180830381865afa1580156106ac573d6000803e3d6000fd5b505050506040513d601f19601f820116820180604052508101906106d09190611b92565b602084015160408501516066549293506102e392859085908a90600160a060020a0316610d03565b600054610100900460ff166107135760005460ff1615610717565b303b155b61078c5760405160e560020a62461bcd02815260206004820152602e60248201527f496e697469616c697a61626c653a20636f6e747261637420697320616c72656160448201527f647920696e697469616c697a65640000000000000000000000000000000000006064820152608401610273565b600054610100900460ff161580156107ae576000805461ffff19166101011790555b60658054600160a060020a03841673ffffffffffffffffffffffffffffffffffffffff19918216179091556066805490911661dead17905580156107f8576000805461ff00191690555b5050565b603354600160a060020a031633146108295760405160e560020a62461bcd02815260040161027390611b09565b600160a060020a0381166108a85760405160e560020a62461bcd02815260206004820152602660248201527f4f776e61626c653a206e6577206f776e657220697320746865207a65726f206160448201527f64647265737300000000000000000000000000000000000000000000000000006064820152608401610273565b61024381610e47565b604051600160a060020a03808516602483015283166044820152606481018290526102149085907f23b872dd00000000000000000000000000000000000000000000000000000000906084015b60408051601f198184030181529190526020810180517bffffffffffffffffffffffffffffffffffffffffffffffffffffffff167fffffffff0000000000000000000000000000000000000000000000000000000090931692909217909152610ec7565b60008060008360400151600160a060020a03166318160ddd6040518163ffffffff1660e060020a028152600401602060405180830381865afa1580156109ac573d6000803e3d6000fd5b505050506040513d601f19601f820116820180604052508101906109d09190611b92565b90506109e78785600001518660400151848a610faf565b92506109fe8785602001518660400151848a610faf565b6065546060860151919350610a2091600160a060020a03908116911689611060565b60655484516020860151600160a060020a039092169163baa2abde91908a87878b610a4d42610258611144565b60405163ffffffff891660e060020a028152600160a060020a039788166004820152958716602487015260448601949094526064850192909252608484015290921660a482015260c481019190915260e40160408051808303816000875af1158015610abd573d6000803e3d6000fd5b505050506040513d601f19601f82011682018060405250810190610ae19190611bab565b505050505050505050565b60655481516060830151610b0e92600160a060020a0391821692911690611060565b6040805160028082526060820183526000926020830190803683370190505090508160600151600160a060020a031663313ce5676040518163ffffffff1660e060020a028152600401602060405180830381865afa158015610b74573d6000803e3d6000fd5b505050506040513d601f19601f82011682018060405250810190610b989190611bcf565b81600081518110610bab57610bab611b3e565b602002602001019060ff16908160ff16815250508160800151600160a060020a031663313ce5676040518163ffffffff1660e060020a028152600401602060405180830381865afa158015610c04573d6000803e3d6000fd5b505050506040513d601f19601f82011682018060405250810190610c289190611bcf565b81600181518110610c3b57610c3b611b3e565b60ff929092166020928302919091018201526040805160028082526060820183526000939192909183019080368337019050509050826020015181600081518110610c8857610c88611b3e565b602002602001018181525050826040015181600181518110610cac57610cac611b3e565b602002602001018181525050610cfe8360000151828560a001518660c00151868860e00151610ce66102584261114490919063ffffffff16565b606554600160a060020a031696959493929190611150565b505050565b610d18600160a060020a0387163330876108b1565b610d2d600160a060020a0386163330866108b1565b606554610d4790600160a060020a03888116911686611060565b606554610d6190600160a060020a03878116911685611060565b606554600160a060020a031663e8e3370087878787610d8c6103e8610d86848b6112d0565b90610ebb565b610d9c6103e8610d868c8c6112d0565b88610da942610258611144565b60405163ffffffff8a1660e060020a028152600160a060020a039889166004820152968816602488015260448701959095526064860193909352608485019190915260a484015290921660c482015260e4810191909152610104016060604051808303816000875af1158015610e23573d6000803e3d6000fd5b505050506040513d601f19601f82011682018060405250810190610ae19190611bf2565b60338054600160a060020a0383811673ffffffffffffffffffffffffffffffffffffffff19831681179093556040519116919082907f8be0079c531659141344cd1fd0a4f28419497f9722a3daafe3b4186f6b6457e090600090a35050565b6000610eb28284611c20565b90505b92915050565b6000610eb28284611c37565b6000610f1c826040518060400160405280602081526020017f5361666545524332303a206c6f772d6c6576656c2063616c6c206661696c656481525085600160a060020a03166112dc9092919063ffffffff16565b805190915015610cfe5780806020019051810190610f3a9190611c5c565b610cfe5760405160e560020a62461bcd02815260206004820152602a60248201527f5361666545524332303a204552433230206f7065726174696f6e20646964206e60448201527f6f742073756363656564000000000000000000000000000000000000000000006064820152608401610273565b6040517f70a08231000000000000000000000000000000000000000000000000000000008152600160a060020a03848116600483015260009182918716906370a0823190602401602060405180830381865afa158015611013573d6000803e3d6000fd5b505050506040513d601f19601f820116820180604052508101906110379190611b92565b90506110556103e8610d868561104f88838d886112d0565b906112d0565b979650505050505050565b6040517fdd62ed3e000000000000000000000000000000000000000000000000000000008152306004820152600160a060020a038381166024830152600091839186169063dd62ed3e90604401602060405180830381865afa1580156110ca573d6000803e3d6000fd5b505050506040513d601f19601f820116820180604052508101906110ee9190611b92565b6110f89190611c7e565b604051600160a060020a0385166024820152604481018290529091506102149085907f095ea7b300000000000000000000000000000000000000000000000000000000906064016108fe565b6000610eb28284611c7e565b82516002146111a45760405160e560020a62461bcd02815260206004820152600b60248201527f696e76616c6964206465630000000000000000000000000000000000000000006044820152606401610273565b6000866000815181106111b9576111b9611b3e565b6020026020010151600014806111e95750866001815181106111dd576111dd611b3e565b60200260200101516000145b15611202576111fb89898789886112f5565b9050611246565b611243888860008151811061121957611219611b3e565b60200260200101518960018151811061123457611234611b3e565b6020026020010151898861140a565b90505b6040517f5c11d795000000000000000000000000000000000000000000000000000000008152600160a060020a038a1690635c11d79590611293908b9085908a9089908990600401611c96565b600060405180830381600087803b1580156112ad57600080fd5b505af11580156112c1573d6000803e3d6000fd5b50505050505050505050505050565b6000610eb28284611cd2565b60606112eb8484600085611485565b90505b9392505050565b60008086600160a060020a031663d06ca61f87876040518363ffffffff1660e060020a028152600401611329929190611cf1565b600060405180830381865afa158015611346573d6000803e3d6000fd5b505050506040513d6000823e601f3d908101601f1916820160405261136e9190810190611d0a565b90506110556113a06103e88560008151811061138c5761138c611b3e565b6020026020010151600a61104f9190611e74565b610d86856001815181106113b6576113b6611b3e565b6020026020010151600a6113ca9190611e74565b61104f88866113e460018951610ea690919063ffffffff16565b815181106113f4576113f4611b3e565b60200260200101516112d090919063ffffffff16565b600061147b6114458360008151811061142557611425611b3e565b6020026020010151600a6114399190611e74565b61104f876103e86112d0565b610d868460018151811061145b5761145b611b3e565b6020026020010151600a61146f9190611e74565b61104f87818c8c6112d0565b9695505050505050565b606030318311156115015760405160e560020a62461bcd02815260206004820152602660248201527f416464726573733a20696e73756666696369656e742062616c616e636520666f60448201527f722063616c6c00000000000000000000000000000000000000000000000000006064820152608401610273565b600160a060020a0385163b61155b5760405160e560020a62461bcd02815260206004820152601d60248201527f416464726573733a2063616c6c20746f206e6f6e2d636f6e74726163740000006044820152606401610273565b60008086600160a060020a031685876040516115779190611eaf565b60006040518083038185875af1925050503d80600081146115b4576040519150601f19603f3d011682016040523d82523d6000602084013e6115b9565b606091505b5091509150611055828286606083156115d35750816112ee565b8251156115e35782518084602001fd5b8160405160e560020a62461bcd0281526004016102739190611ecb565b8035600160a060020a038116811461161757600080fd5b919050565b60e060020a634e487b7102600052604160045260246000fd5b6040516080810167ffffffffffffffff811182821017156116585761165861161c565b60405290565b604051610100810167ffffffffffffffff811182821017156116585761165861161c565b604051601f8201601f1916810167ffffffffffffffff811182821017156116ab576116ab61161c565b604052919050565b60008060008084860360e08112156116ca57600080fd5b85359450602086013593506116e160408701611600565b92506080605f19820112156116f557600080fd5b506116fe611635565b61170a60608701611600565b815261171860808701611600565b602082015261172960a08701611600565b604082015261173a60c08701611600565b6060820152939692955090935050565b600067ffffffffffffffff8211156117645761176461161c565b5060209081020190565b600082601f83011261177f57600080fd5b8135602061179461178f8361174a565b611682565b828152918102840181019181810190868411156117b057600080fd5b8286015b848110156117d2576117c581611600565b83529183019183016117b4565b509695505050505050565b6000602082840312156117ef57600080fd5b813567ffffffffffffffff8082111561180757600080fd5b90830190610100828603121561181c57600080fd5b61182461165e565b82358152602083013560208201526040830135604082015261184860608401611600565b606082015261185960808401611600565b608082015260a083013560a082015260c08301358281111561187a57600080fd5b6118868782860161176e565b60c08301525061189860e08401611600565b60e082015295945050505050565b6000602082840312156118b857600080fd5b610eb282611600565b60008060008060008060c087890312156118da57600080fd5b6118e387611600565b95506118f160208801611600565b945060408701359350606087013592506080870135915061191460a08801611600565b90509295509295509295565b60006020828403121561193257600080fd5b813567ffffffffffffffff81111561194957600080fd5b6119558482850161176e565b949350505050565b600081518084526020808501945080840160005b83811015611996578151600160a060020a031687529582019590820190600101611971565b509495945050505050565b602081526000610eb2602083018461195d565b600060a082840312156119c657600080fd5b60405160a0810167ffffffffffffffff82821081831117156119ea576119ea61161c565b816040528293506119fa85611600565b8352611a0860208601611600565b6020840152611a1960408601611600565b60408401526060850135915080821115611a3257600080fd5b611a3e8683870161176e565b60608401526080850135915080821115611a5757600080fd5b50611a648582860161176e565b6080830152505092915050565b60008060008084860360e0811215611a8857600080fd5b85359450602086013593506080603f1982011215611aa557600080fd5b50611aae611635565b60408601358152606086013560208201526080860135604082015260a086013560608201528092505060c085013567ffffffffffffffff811115611af157600080fd5b611afd878288016119b4565b91505092959194509250565b6020808252818101527f4f776e61626c653a2063616c6c6572206973206e6f7420746865206f776e6572604082015260600190565b60e060020a634e487b7102600052603260045260246000fd5b60e060020a634e487b7102600052601160045260246000fd5b600061ffff80831681811415611b8857611b88611b57565b6001019392505050565b600060208284031215611ba457600080fd5b5051919050565b60008060408385031215611bbe57600080fd5b505080516020909101519092909150565b600060208284031215611be157600080fd5b815160ff811681146112ee57600080fd5b600080600060608486031215611c0757600080fd5b8351925060208401519150604084015190509250925092565b600082821015611c3257611c32611b57565b500390565b600082611c575760e060020a634e487b7102600052601260045260246000fd5b500490565b600060208284031215611c6e57600080fd5b815180151581146112ee57600080fd5b60008219821115611c9157611c91611b57565b500190565b85815284602082015260a060408201526000611cb560a083018661195d565b600160a060020a0394909416606083015250608001529392505050565b6000816000190483118215151615611cec57611cec611b57565b500290565b8281526040602082015260006112eb604083018461195d565b60006020808385031215611d1d57600080fd5b825167ffffffffffffffff811115611d3457600080fd5b8301601f81018513611d4557600080fd5b8051611d5361178f8261174a565b81815290830282018301908381019087831115611d6f57600080fd5b928401925b8284101561105557835182529284019290840190611d74565b600181815b80851115611dca578160001904821115611dae57611dae611b57565b80851615611dbb57918102915b60029094049390800290611d92565b509250929050565b600082611de157506001610eb5565b81611dee57506000610eb5565b8160018114611e045760028114611e0e57611e2b565b6001915050610eb5565b60ff841115611e1f57611e1f611b57565b8360020a915050610eb5565b5060208310610133831016604e8410600b8410161715611e4e575081810a610eb5565b611e588383611d8d565b8060001904821115611e6c57611e6c611b57565b029392505050565b6000610eb260ff841683611dd2565b60005b83811015611e9e578181015183820152602001611e86565b838111156102145750506000910152565b60008251611ec1818460208701611e83565b9190910192915050565b6020815260008251806020840152611eea816040850160208701611e83565b601f01601f1916919091016040019291505056fea264697066735822122089cb352ae92107ccb0ff0a06298b359edeac2951f3b476fb485ac3dcfce437e964736f6c634300080a0033",
  "immutableReferences": {},
  "source": "// SPDX-License-Identifier: MIT\n\npragma solidity ^0.8.0;\n\nimport \"@openzeppelin/contracts-upgradeable/utils/math/SafeMathUpgradeable.sol\";\n\nimport \"@openzeppelin/contracts-upgradeable/token/ERC20/IERC20Upgradeable.sol\";\n\nimport \"@openzeppelin/contracts-upgradeable/token/ERC20/ERC20Upgradeable.sol\";\n\nimport \"@openzeppelin/contracts-upgradeable/token/ERC20/utils/SafeERC20Upgradeable.sol\";\n\nimport \"@openzeppelin/contracts-upgradeable/access/OwnableUpgradeable.sol\";\n\nimport \"../../libraries/SafeSwap.sol\";\n\nimport \"../../libraries/PriceFeed.sol\";\n\nimport \"../../interfaces/Alpaca/IAlpacaFairLaunch.sol\";\n\nimport \"../../interfaces/Alpaca/IAlpacaVault.sol\";\n\nimport \"../../interfaces/IAMMRouter02.sol\";\n\n// TODO: Unit tests\n\ncontract VaultActions is OwnableUpgradeable {\n    /* Libs */\n    using SafeMathUpgradeable for uint256;\n    using SafeERC20Upgradeable for IERC20Upgradeable;\n    using SafeSwapUni for IAMMRouter02;\n\n    /* Structs */\n    struct VaultAddresses {\n        address govAddress;\n        address zorroControllerAddress;\n        address zorroXChainController;\n        address ZORROAddress;\n        address zorroStakingVault;\n        address wantAddress;\n        address token0Address;\n        address token1Address;\n        address earnedAddress;\n        address farmContractAddress;\n        address rewardsAddress;\n        address poolAddress;\n        address uniRouterAddress;\n        address zorroLPPool;\n        address zorroLPPoolOtherToken;\n        address defaultStablecoin;\n    }\n\n    struct VaultFees {\n        uint256 controllerFee;\n        uint256 buyBackRate;\n        uint256 revShareRate;\n        uint256 entranceFeeFactor;\n        uint256 withdrawFeeFactor;\n    }\n\n    struct VaultPriceFeeds {\n        address token0PriceFeed;\n        address token1PriceFeed;\n        address earnTokenPriceFeed;\n        address ZORPriceFeed;\n        address lpPoolOtherTokenPriceFeed;\n        address stablecoinPriceFeed;\n    }\n\n    struct ExchangeRates {\n        uint256 earn; // Exchange rate of earn token, times 1e12\n        uint256 ZOR; // Exchange rate of ZOR token, times 1e12\n        uint256 lpPoolOtherToken; // Exchange rate of token paired with ZOR in LP pool, times 1e12\n        uint256 stablecoin; // Exchange rate of stablecoin (e.g. USDC), times 1e12\n    }\n\n    struct BuybackBurnLPParams {\n        address earnedAddress;\n        address ZORROAddress;\n        address zorroLPPoolOtherToken;\n        address[] earnedToZORROPath;\n        address[] earnedToZORLPPoolOtherTokenPath;\n    }\n\n    /* Constructor */\n\n    /// @notice Constructor\n    /// @param _uniRouterAddress Address of Uniswap style router\n    function initialize(address _uniRouterAddress)\n        public\n        initializer\n    {\n        uniRouterAddress = _uniRouterAddress;\n        burnAddress = 0x000000000000000000000000000000000000dEaD;\n    }\n\n    /* State */\n\n    address public uniRouterAddress;\n    address public burnAddress;\n\n    /* Setters */\n\n    function setUniRouterAddress(address _uniRouterAddress) external onlyOwner {\n        uniRouterAddress = _uniRouterAddress;\n    }\n\n    function setBurnAddress(address _burnAddress) external onlyOwner {\n        burnAddress = _burnAddress;\n    }\n\n    /* Functions */\n\n    // TODO: DRY: Convert all .addLiquidity() and .removeLiquidity() across the protocol\n    // to use joinPool, exitPool, below.\n\n    /// @notice Adds liquidity to the pool of this contract\n    /// @dev NOTE: Requires spending approval by caller\n    /// @param _token0 The address of Token0\n    /// @param _token1 The address of Token1\n    /// @param _token0Amt Quantity of Token0 to add\n    /// @param _token1Amt Quantity of Token1 to add\n    /// @param _maxMarketMovementAllowed The max slippage allowed for swaps. 1000 = 0 %, 995 = 0.5%, etc.\n    /// @param _recipient The recipient of the LP token\n    function joinPool(\n        address _token0,\n        address _token1,\n        uint256 _token0Amt,\n        uint256 _token1Amt,\n        uint256 _maxMarketMovementAllowed,\n        address _recipient\n    ) public {\n        // Transfer funds in\n        IERC20Upgradeable(_token0).safeTransferFrom(\n            msg.sender,\n            address(this),\n            _token0Amt\n        );\n        IERC20Upgradeable(_token1).safeTransferFrom(\n            msg.sender,\n            address(this),\n            _token1Amt\n        );\n\n        // Call internal function to add liquidity\n        _joinPool(\n            _token0,\n            _token1,\n            _token0Amt,\n            _token1Amt,\n            _maxMarketMovementAllowed,\n            _recipient\n        );\n    }\n\n    /// @notice Internal function for adding liquidity to the pool of this contract\n    /// @dev NOTE: Unlike public function, does not transfer tokens into contract (assumes already tokens already present)\n    /// @param _token0 The address of Token0\n    /// @param _token1 The address of Token1\n    /// @param _token0Amt Quantity of Token0 to add\n    /// @param _token1Amt Quantity of Token1 to add\n    /// @param _maxMarketMovementAllowed The max slippage allowed for swaps. 1000 = 0 %, 995 = 0.5%, etc.\n    /// @param _recipient The recipient of the LP token\n    function _joinPool(\n        address _token0,\n        address _token1,\n        uint256 _token0Amt,\n        uint256 _token1Amt,\n        uint256 _maxMarketMovementAllowed,\n        address _recipient\n    ) internal {\n        // Transfer funds in\n        IERC20Upgradeable(_token0).safeTransferFrom(\n            msg.sender,\n            address(this),\n            _token0Amt\n        );\n        IERC20Upgradeable(_token1).safeTransferFrom(\n            msg.sender,\n            address(this),\n            _token1Amt\n        );\n\n        // Approve spending\n        IERC20Upgradeable(_token0).safeIncreaseAllowance(\n            uniRouterAddress,\n            _token0Amt\n        );\n        IERC20Upgradeable(_token1).safeIncreaseAllowance(\n            uniRouterAddress,\n            _token1Amt\n        );\n\n        // Add liquidity\n        IAMMRouter02(uniRouterAddress).addLiquidity(\n            _token0,\n            _token1,\n            _token0Amt,\n            _token1Amt,\n            _token0Amt.mul(_maxMarketMovementAllowed).div(1000),\n            _token1Amt.mul(_maxMarketMovementAllowed).div(1000),\n            _recipient,\n            block.timestamp.add(600)\n        );\n    }\n\n    struct ExitPoolParams {\n        address token0;\n        address token1;\n        address poolAddress;\n        address wantAddress;\n    }\n\n    /// @notice Removes liquidity from a pool and sends tokens back to this address\n    /// @dev NOTE: Requires caller to approve want token spending\n    /// @param _amountLP The amount of LP (Want) tokens to remove\n    /// @param _maxMarketMovementAllowed The max slippage allowed for swaps. 1000 = 0 %, 995 = 0.5%, etc.\n    /// @param _recipient The recipient of the underlying tokens at pool exit\n    function exitPool(\n        uint256 _amountLP,\n        uint256 _maxMarketMovementAllowed,\n        address _recipient,\n        ExitPoolParams memory _exitPoolParams\n    ) public {\n        // Transfer LP token in\n        IERC20Upgradeable(_exitPoolParams.wantAddress).safeTransferFrom(\n            msg.sender,\n            address(this),\n            _amountLP\n        );\n\n        // Call internal exitPool()\n        _exitPool(\n            _amountLP,\n            _maxMarketMovementAllowed,\n            _recipient,\n            _exitPoolParams\n        );\n    }\n\n    /// @notice Internal version of exitPool() (Does not transfer tokens IN)\n    /// @dev NOTE: Assumes LP token is already on contract\n    /// @param _amountLP The amount of LP (Want) tokens to remove\n    /// @param _maxMarketMovementAllowed The max slippage allowed for swaps. 1000 = 0 %, 995 = 0.5%, etc.\n    /// @param _recipient The recipient of the underlying tokens at pool exit\n    function _exitPool(\n        uint256 _amountLP,\n        uint256 _maxMarketMovementAllowed,\n        address _recipient,\n        ExitPoolParams memory _exitPoolParams\n    ) internal {\n        // Init\n        uint256 _amount0Min;\n        uint256 _amount1Min;\n        // Get total supply and calculate min amounts desired based on slippage\n        uint256 _totalSupply = IERC20Upgradeable(_exitPoolParams.poolAddress)\n            .totalSupply();\n\n        {\n            _amount0Min = _calcMinAmt(\n                _amountLP,\n                _exitPoolParams.token0,\n                _exitPoolParams.poolAddress,\n                _totalSupply,\n                _maxMarketMovementAllowed\n            );\n            _amount1Min = _calcMinAmt(\n                _amountLP,\n                _exitPoolParams.token1,\n                _exitPoolParams.poolAddress,\n                _totalSupply,\n                _maxMarketMovementAllowed\n            );\n        }\n\n        // Approve\n        IERC20Upgradeable(_exitPoolParams.wantAddress).safeIncreaseAllowance(\n            uniRouterAddress,\n            _amountLP\n        );\n\n        // Remove liquidity\n        IAMMRouter02(uniRouterAddress).removeLiquidity(\n            _exitPoolParams.token0,\n            _exitPoolParams.token1,\n            _amountLP,\n            _amount0Min,\n            _amount1Min,\n            _recipient,\n            block.timestamp.add(600)\n        );\n    }\n\n    /// @notice Calculates minimum amount out for exiting LP pool\n    /// @param _amountLP LP token qty\n    /// @param _token Address of one of the tokens in the pair\n    /// @param _poolAddress Address of LP pair\n    /// @param _totalSupply Total supply of LP tokens\n    /// @param _maxMarketMovementAllowed Slippage (990 = 1% etc.)\n    function _calcMinAmt(\n        uint256 _amountLP,\n        address _token,\n        address _poolAddress,\n        uint256 _totalSupply,\n        uint256 _maxMarketMovementAllowed\n    ) internal view returns (uint256) {\n        uint256 _balance = IERC20Upgradeable(_token).balanceOf(_poolAddress);\n        return\n            (_amountLP.mul(_balance).div(_totalSupply))\n                .mul(_maxMarketMovementAllowed)\n                .div(1000);\n    }\n\n\n    /// @notice Safely swaps tokens using the most suitable protocol based on token\n    /// @dev NOTE: Caller must approve tokens for spending beforehand\n    /// @param _swapParams SafeSwapParams for swap\n    function safeSwap(SafeSwapParams memory _swapParams) public {\n        // Transfer tokens in\n        IERC20Upgradeable(_swapParams.token0).safeTransferFrom(\n            msg.sender,\n            address(this),\n            _swapParams.amountIn\n        );\n\n        // Call internal swap function\n        _safeSwap(_swapParams);\n    }\n\n    /// @notice Internal function for swapping\n    /// @dev Does not transfer tokens to this contract (assumes they are already here)\n    /// @param _swapParams SafeSwapParams for swap\n    function _safeSwap(SafeSwapParams memory _swapParams) internal {\n        // Allowance\n        IERC20Upgradeable(_swapParams.token0).safeIncreaseAllowance(\n            uniRouterAddress,\n            _swapParams.amountIn\n        );\n\n        // Get decimal info\n        uint8[] memory _decimals = new uint8[](2);\n        _decimals[0] = ERC20Upgradeable(_swapParams.token0).decimals();\n        _decimals[1] = ERC20Upgradeable(_swapParams.token1).decimals();\n\n        // Determine exchange rates using price feed oracle\n        uint256[] memory _priceTokens = new uint256[](2);\n        _priceTokens[0] = _swapParams.priceToken0;\n        _priceTokens[1] = _swapParams.priceToken1;\n\n        // Swap\n        IAMMRouter02(uniRouterAddress).safeSwap(\n            _swapParams.amountIn,\n            _priceTokens,\n            _swapParams.maxMarketMovementAllowed,\n            _swapParams.path,\n            _decimals,\n            _swapParams.destination,\n            block.timestamp.add(600)\n        );\n    }\n\n    /// @notice Buys back earn token, adds liquidity, and burns the LP token\n    /// @param _amount The amount of Earn token to swap and buy back\n    /// @param _maxMarketMovementAllowed Acceptable slippage (990 = 1%)\n    /// @param _rates An ExchangeRates struct\n    /// @param _params An BuybackBurnLPParams struct specifying buyback parameters\n    function buybackBurnLP(\n        uint256 _amount, \n        uint256 _maxMarketMovementAllowed,\n        ExchangeRates memory _rates,\n        BuybackBurnLPParams memory _params\n    )\n        public\n    {\n        // Transfer tokens IN\n        IERC20Upgradeable(_params.earnedAddress).safeTransferFrom(\n            msg.sender,\n            address(this),\n            _amount\n        );\n\n        // Swap to ZOR Token\n        if (_params.earnedAddress != _params.ZORROAddress) {\n            _safeSwap(\n                SafeSwapParams({\n                    amountIn: _amount.div(2),\n                    priceToken0: _rates.earn,\n                    priceToken1: _rates.ZOR,\n                    token0: _params.earnedAddress,\n                    token1: _params.ZORROAddress,\n                    maxMarketMovementAllowed: _maxMarketMovementAllowed,\n                    path: _params.earnedToZORROPath,\n                    destination: address(this)\n                })\n            );\n        }\n        // Swap to Other token\n        if (_params.earnedAddress != _params.zorroLPPoolOtherToken) {\n            _safeSwap(\n                SafeSwapParams({\n                    amountIn: _amount.div(2),\n                    priceToken0: _rates.earn,\n                    priceToken1: _rates.lpPoolOtherToken,\n                    token0: _params.earnedAddress,\n                    token1: _params.zorroLPPoolOtherToken,\n                    maxMarketMovementAllowed: _maxMarketMovementAllowed,\n                    path: _params.earnedToZORLPPoolOtherTokenPath,\n                    destination: address(this)\n                })\n            );\n        }\n\n        // Calc balances\n        uint256 _amtZorro = IERC20Upgradeable(_params.ZORROAddress).balanceOf(\n            address(this)\n        );\n        uint256 _amtOtherToken = IERC20Upgradeable(_params.zorroLPPoolOtherToken)\n            .balanceOf(address(this));\n\n        // Add liquidity and burn\n        _joinPool(\n            _params.ZORROAddress,\n            _params.zorroLPPoolOtherToken,\n            _amtZorro,\n            _amtOtherToken,\n            _maxMarketMovementAllowed,\n            burnAddress\n        );\n    }\n\n    /* Utilities */\n\n    /// @notice Gets the swap path in the opposite direction of a trade\n    /// @param _path The swap path to be reversed\n    /// @return _newPath An reversed path array\n    function reversePath(address[] memory _path)\n        public\n        pure\n        returns (address[] memory _newPath)\n    {\n        uint256 _pathLength = _path.length;\n        _newPath = new address[](_pathLength);\n        for (uint16 i = 0; i < _pathLength; ++i) {\n            _newPath[i] = _path[_path.length.sub(1).sub(i)];\n        }\n    }\n}\n",
  "sourcePath": "/Users/kristophm/Documents/workspace/zorro-protocol/contracts/vaults/actions/_VaultActions.sol",
  "compiler": {
    "name": "solc",
    "version": "0.8.10+commit.fc410830.Emscripten.clang"
  },
  "schemaVersion": "3.4.10",
  "updatedAt": "2022-11-20T20:57:39.155Z",
  "devdoc": {
    "kind": "dev",
    "methods": {
      "buybackBurnLP(uint256,uint256,(uint256,uint256,uint256,uint256),(address,address,address,address[],address[]))": {
        "params": {
          "_amount": "The amount of Earn token to swap and buy back",
          "_maxMarketMovementAllowed": "Acceptable slippage (990 = 1%)",
          "_params": "An BuybackBurnLPParams struct specifying buyback parameters",
          "_rates": "An ExchangeRates struct"
        }
      },
      "exitPool(uint256,uint256,address,(address,address,address,address))": {
        "details": "NOTE: Requires caller to approve want token spending",
        "params": {
          "_amountLP": "The amount of LP (Want) tokens to remove",
          "_maxMarketMovementAllowed": "The max slippage allowed for swaps. 1000 = 0 %, 995 = 0.5%, etc.",
          "_recipient": "The recipient of the underlying tokens at pool exit"
        }
      },
      "initialize(address)": {
        "params": {
          "_uniRouterAddress": "Address of Uniswap style router"
        }
      },
      "joinPool(address,address,uint256,uint256,uint256,address)": {
        "details": "NOTE: Requires spending approval by caller",
        "params": {
          "_maxMarketMovementAllowed": "The max slippage allowed for swaps. 1000 = 0 %, 995 = 0.5%, etc.",
          "_recipient": "The recipient of the LP token",
          "_token0": "The address of Token0",
          "_token0Amt": "Quantity of Token0 to add",
          "_token1": "The address of Token1",
          "_token1Amt": "Quantity of Token1 to add"
        }
      },
      "owner()": {
        "details": "Returns the address of the current owner."
      },
      "renounceOwnership()": {
        "details": "Leaves the contract without owner. It will not be possible to call `onlyOwner` functions anymore. Can only be called by the current owner. NOTE: Renouncing ownership will leave the contract without an owner, thereby removing any functionality that is only available to the owner."
      },
      "reversePath(address[])": {
        "params": {
          "_path": "The swap path to be reversed"
        },
        "returns": {
          "_newPath": "An reversed path array"
        }
      },
      "safeSwap((uint256,uint256,uint256,address,address,uint256,address[],address))": {
        "details": "NOTE: Caller must approve tokens for spending beforehand",
        "params": {
          "_swapParams": "SafeSwapParams for swap"
        }
      },
      "transferOwnership(address)": {
        "details": "Transfers ownership of the contract to a new account (`newOwner`). Can only be called by the current owner."
      }
    },
    "version": 1
  },
  "userdoc": {
    "kind": "user",
    "methods": {
      "buybackBurnLP(uint256,uint256,(uint256,uint256,uint256,uint256),(address,address,address,address[],address[]))": {
        "notice": "Buys back earn token, adds liquidity, and burns the LP token"
      },
      "exitPool(uint256,uint256,address,(address,address,address,address))": {
        "notice": "Removes liquidity from a pool and sends tokens back to this address"
      },
      "initialize(address)": {
        "notice": "Constructor"
      },
      "joinPool(address,address,uint256,uint256,uint256,address)": {
        "notice": "Adds liquidity to the pool of this contract"
      },
      "reversePath(address[])": {
        "notice": "Gets the swap path in the opposite direction of a trade"
      },
      "safeSwap((uint256,uint256,uint256,address,address,uint256,address[],address))": {
        "notice": "Safely swaps tokens using the most suitable protocol based on token"
      }
    },
    "version": 1
  }
}