{
  "contractName": "VaultAlpaca",
  "abi": [
    {
      "anonymous": false,
      "inputs": [
        {
          "indexed": true,
          "internalType": "uint256",
          "name": "_amount",
          "type": "uint256"
        }
      ],
      "name": "Buyback",
      "type": "event"
    },
    {
      "anonymous": false,
      "inputs": [
        {
          "indexed": true,
          "internalType": "address",
          "name": "previousOwner",
          "type": "address"
        },
        {
          "indexed": true,
          "internalType": "address",
          "name": "newOwner",
          "type": "address"
        }
      ],
      "name": "OwnershipTransferred",
      "type": "event"
    },
    {
      "anonymous": false,
      "inputs": [
        {
          "indexed": false,
          "internalType": "address",
          "name": "account",
          "type": "address"
        }
      ],
      "name": "Paused",
      "type": "event"
    },
    {
      "anonymous": false,
      "inputs": [
        {
          "indexed": true,
          "internalType": "uint256",
          "name": "_amount",
          "type": "uint256"
        }
      ],
      "name": "RevShare",
      "type": "event"
    },
    {
      "anonymous": false,
      "inputs": [
        {
          "indexed": false,
          "internalType": "address",
          "name": "_govAddress",
          "type": "address"
        }
      ],
      "name": "SetGov",
      "type": "event"
    },
    {
      "anonymous": false,
      "inputs": [
        {
          "indexed": false,
          "internalType": "bool",
          "name": "_onlyGov",
          "type": "bool"
        }
      ],
      "name": "SetOnlyGov",
      "type": "event"
    },
    {
      "anonymous": false,
      "inputs": [
        {
          "indexed": false,
          "internalType": "uint256",
          "name": "_entranceFeeFactor",
          "type": "uint256"
        },
        {
          "indexed": false,
          "internalType": "uint256",
          "name": "_withdrawFeeFactor",
          "type": "uint256"
        },
        {
          "indexed": false,
          "internalType": "uint256",
          "name": "_controllerFee",
          "type": "uint256"
        },
        {
          "indexed": false,
          "internalType": "uint256",
          "name": "_buyBackRate",
          "type": "uint256"
        },
        {
          "indexed": false,
          "internalType": "uint256",
          "name": "_revShareRate",
          "type": "uint256"
        }
      ],
      "name": "SetSettings",
      "type": "event"
    },
    {
      "anonymous": false,
      "inputs": [
        {
          "indexed": false,
          "internalType": "address",
          "name": "_treasuryAddress",
          "type": "address"
        }
      ],
      "name": "SetTreasury",
      "type": "event"
    },
    {
      "anonymous": false,
      "inputs": [
        {
          "indexed": false,
          "internalType": "address",
          "name": "_uniRouterAddress",
          "type": "address"
        }
      ],
      "name": "SetUniRouterAddress",
      "type": "event"
    },
    {
      "anonymous": false,
      "inputs": [
        {
          "indexed": false,
          "internalType": "address",
          "name": "account",
          "type": "address"
        }
      ],
      "name": "Unpaused",
      "type": "event"
    },
    {
      "inputs": [],
      "name": "ZORROAddress",
      "outputs": [
        {
          "internalType": "address",
          "name": "",
          "type": "address"
        }
      ],
      "stateMutability": "view",
      "type": "function"
    },
    {
      "inputs": [],
      "name": "burnAddress",
      "outputs": [
        {
          "internalType": "address",
          "name": "",
          "type": "address"
        }
      ],
      "stateMutability": "view",
      "type": "function"
    },
    {
      "inputs": [],
      "name": "buyBackRate",
      "outputs": [
        {
          "internalType": "uint256",
          "name": "",
          "type": "uint256"
        }
      ],
      "stateMutability": "view",
      "type": "function"
    },
    {
      "inputs": [],
      "name": "buyBackRateUL",
      "outputs": [
        {
          "internalType": "uint256",
          "name": "",
          "type": "uint256"
        }
      ],
      "stateMutability": "view",
      "type": "function"
    },
    {
      "inputs": [],
      "name": "controllerFee",
      "outputs": [
        {
          "internalType": "uint256",
          "name": "",
          "type": "uint256"
        }
      ],
      "stateMutability": "view",
      "type": "function"
    },
    {
      "inputs": [],
      "name": "controllerFeeUL",
      "outputs": [
        {
          "internalType": "uint256",
          "name": "",
          "type": "uint256"
        }
      ],
      "stateMutability": "view",
      "type": "function"
    },
    {
      "inputs": [],
      "name": "defaultStablecoin",
      "outputs": [
        {
          "internalType": "address",
          "name": "",
          "type": "address"
        }
      ],
      "stateMutability": "view",
      "type": "function"
    },
    {
      "inputs": [
        {
          "internalType": "uint256",
          "name": "_wantAmt",
          "type": "uint256"
        }
      ],
      "name": "depositWantToken",
      "outputs": [
        {
          "internalType": "uint256",
          "name": "sharesAdded",
          "type": "uint256"
        }
      ],
      "stateMutability": "nonpayable",
      "type": "function"
    },
    {
      "inputs": [],
      "name": "dstGasForEarningsCall",
      "outputs": [
        {
          "internalType": "uint256",
          "name": "",
          "type": "uint256"
        }
      ],
      "stateMutability": "view",
      "type": "function"
    },
    {
      "inputs": [],
      "name": "earn",
      "outputs": [],
      "stateMutability": "nonpayable",
      "type": "function"
    },
    {
      "inputs": [],
      "name": "earnedAddress",
      "outputs": [
        {
          "internalType": "address",
          "name": "",
          "type": "address"
        }
      ],
      "stateMutability": "view",
      "type": "function"
    },
    {
      "inputs": [],
      "name": "entranceFeeFactor",
      "outputs": [
        {
          "internalType": "uint256",
          "name": "",
          "type": "uint256"
        }
      ],
      "stateMutability": "view",
      "type": "function"
    },
    {
      "inputs": [],
      "name": "entranceFeeFactorLL",
      "outputs": [
        {
          "internalType": "uint256",
          "name": "",
          "type": "uint256"
        }
      ],
      "stateMutability": "view",
      "type": "function"
    },
    {
      "inputs": [
        {
          "internalType": "uint256",
          "name": "_amountUSD",
          "type": "uint256"
        },
        {
          "internalType": "uint256",
          "name": "_maxMarketMovementAllowed",
          "type": "uint256"
        }
      ],
      "name": "exchangeUSDForWantToken",
      "outputs": [
        {
          "internalType": "uint256",
          "name": "wantObtained",
          "type": "uint256"
        }
      ],
      "stateMutability": "nonpayable",
      "type": "function"
    },
    {
      "inputs": [
        {
          "internalType": "uint256",
          "name": "_amount",
          "type": "uint256"
        },
        {
          "internalType": "uint256",
          "name": "_maxMarketMovementAllowed",
          "type": "uint256"
        }
      ],
      "name": "exchangeWantTokenForUSD",
      "outputs": [
        {
          "internalType": "uint256",
          "name": "usdObtained",
          "type": "uint256"
        }
      ],
      "stateMutability": "nonpayable",
      "type": "function"
    },
    {
      "inputs": [],
      "name": "farmContractAddress",
      "outputs": [
        {
          "internalType": "address",
          "name": "",
          "type": "address"
        }
      ],
      "stateMutability": "view",
      "type": "function"
    },
    {
      "inputs": [],
      "name": "feeDenominator",
      "outputs": [
        {
          "internalType": "uint256",
          "name": "",
          "type": "uint256"
        }
      ],
      "stateMutability": "view",
      "type": "function"
    },
    {
      "inputs": [],
      "name": "govAddress",
      "outputs": [
        {
          "internalType": "address",
          "name": "",
          "type": "address"
        }
      ],
      "stateMutability": "view",
      "type": "function"
    },
    {
      "inputs": [
        {
          "internalType": "address",
          "name": "_token",
          "type": "address"
        },
        {
          "internalType": "uint256",
          "name": "_amount",
          "type": "uint256"
        },
        {
          "internalType": "address",
          "name": "_to",
          "type": "address"
        }
      ],
      "name": "inCaseTokensGetStuck",
      "outputs": [],
      "stateMutability": "nonpayable",
      "type": "function"
    },
    {
      "inputs": [],
      "name": "isHomeChain",
      "outputs": [
        {
          "internalType": "bool",
          "name": "",
          "type": "bool"
        }
      ],
      "stateMutability": "view",
      "type": "function"
    },
    {
      "inputs": [],
      "name": "lastEarnBlock",
      "outputs": [
        {
          "internalType": "uint256",
          "name": "",
          "type": "uint256"
        }
      ],
      "stateMutability": "view",
      "type": "function"
    },
    {
      "inputs": [],
      "name": "lendingToken",
      "outputs": [
        {
          "internalType": "address",
          "name": "",
          "type": "address"
        }
      ],
      "stateMutability": "view",
      "type": "function"
    },
    {
      "inputs": [],
      "name": "maxMarketMovementAllowed",
      "outputs": [
        {
          "internalType": "uint256",
          "name": "",
          "type": "uint256"
        }
      ],
      "stateMutability": "view",
      "type": "function"
    },
    {
      "inputs": [],
      "name": "onlyGov",
      "outputs": [
        {
          "internalType": "bool",
          "name": "",
          "type": "bool"
        }
      ],
      "stateMutability": "view",
      "type": "function"
    },
    {
      "inputs": [],
      "name": "owner",
      "outputs": [
        {
          "internalType": "address",
          "name": "",
          "type": "address"
        }
      ],
      "stateMutability": "view",
      "type": "function"
    },
    {
      "inputs": [],
      "name": "pause",
      "outputs": [],
      "stateMutability": "nonpayable",
      "type": "function"
    },
    {
      "inputs": [],
      "name": "paused",
      "outputs": [
        {
          "internalType": "bool",
          "name": "",
          "type": "bool"
        }
      ],
      "stateMutability": "view",
      "type": "function"
    },
    {
      "inputs": [],
      "name": "pid",
      "outputs": [
        {
          "internalType": "uint256",
          "name": "",
          "type": "uint256"
        }
      ],
      "stateMutability": "view",
      "type": "function"
    },
    {
      "inputs": [],
      "name": "poolAddress",
      "outputs": [
        {
          "internalType": "address",
          "name": "",
          "type": "address"
        }
      ],
      "stateMutability": "view",
      "type": "function"
    },
    {
      "inputs": [
        {
          "internalType": "address",
          "name": "",
          "type": "address"
        }
      ],
      "name": "priceFeeds",
      "outputs": [
        {
          "internalType": "contract AggregatorV3Interface",
          "name": "",
          "type": "address"
        }
      ],
      "stateMutability": "view",
      "type": "function"
    },
    {
      "inputs": [],
      "name": "principalDebt",
      "outputs": [
        {
          "internalType": "uint256",
          "name": "",
          "type": "uint256"
        }
      ],
      "stateMutability": "view",
      "type": "function"
    },
    {
      "inputs": [],
      "name": "profitDebt",
      "outputs": [
        {
          "internalType": "uint256",
          "name": "",
          "type": "uint256"
        }
      ],
      "stateMutability": "view",
      "type": "function"
    },
    {
      "inputs": [],
      "name": "renounceOwnership",
      "outputs": [],
      "stateMutability": "nonpayable",
      "type": "function"
    },
    {
      "inputs": [],
      "name": "revShareRate",
      "outputs": [
        {
          "internalType": "uint256",
          "name": "",
          "type": "uint256"
        }
      ],
      "stateMutability": "view",
      "type": "function"
    },
    {
      "inputs": [],
      "name": "revShareRateUL",
      "outputs": [
        {
          "internalType": "uint256",
          "name": "",
          "type": "uint256"
        }
      ],
      "stateMutability": "view",
      "type": "function"
    },
    {
      "inputs": [
        {
          "internalType": "uint16",
          "name": "_index",
          "type": "uint16"
        },
        {
          "internalType": "address",
          "name": "_addr",
          "type": "address"
        }
      ],
      "name": "setContractAddress",
      "outputs": [],
      "stateMutability": "nonpayable",
      "type": "function"
    },
    {
      "inputs": [
        {
          "internalType": "uint256",
          "name": "_amount",
          "type": "uint256"
        }
      ],
      "name": "setDstGasForEarningsCall",
      "outputs": [],
      "stateMutability": "nonpayable",
      "type": "function"
    },
    {
      "inputs": [
        {
          "internalType": "uint256",
          "name": "_entranceFeeFactor",
          "type": "uint256"
        },
        {
          "internalType": "uint256",
          "name": "_withdrawFeeFactor",
          "type": "uint256"
        },
        {
          "internalType": "uint256",
          "name": "_controllerFee",
          "type": "uint256"
        },
        {
          "internalType": "uint256",
          "name": "_buyBackRate",
          "type": "uint256"
        },
        {
          "internalType": "uint256",
          "name": "_revShareRate",
          "type": "uint256"
        }
      ],
      "name": "setFeeSettings",
      "outputs": [],
      "stateMutability": "nonpayable",
      "type": "function"
    },
    {
      "inputs": [
        {
          "internalType": "address",
          "name": "_govAddress",
          "type": "address"
        }
      ],
      "name": "setGov",
      "outputs": [],
      "stateMutability": "nonpayable",
      "type": "function"
    },
    {
      "inputs": [
        {
          "internalType": "uint256",
          "name": "_slippageNumerator",
          "type": "uint256"
        }
      ],
      "name": "setMaxMarketMovementAllowed",
      "outputs": [],
      "stateMutability": "nonpayable",
      "type": "function"
    },
    {
      "inputs": [
        {
          "internalType": "bool",
          "name": "_onlyGov",
          "type": "bool"
        }
      ],
      "name": "setOnlyGov",
      "outputs": [],
      "stateMutability": "nonpayable",
      "type": "function"
    },
    {
      "inputs": [
        {
          "internalType": "uint256",
          "name": "_pid",
          "type": "uint256"
        }
      ],
      "name": "setPid",
      "outputs": [],
      "stateMutability": "nonpayable",
      "type": "function"
    },
    {
      "inputs": [
        {
          "internalType": "address",
          "name": "_token",
          "type": "address"
        },
        {
          "internalType": "address",
          "name": "_priceFeedAddress",
          "type": "address"
        }
      ],
      "name": "setPriceFeed",
      "outputs": [],
      "stateMutability": "nonpayable",
      "type": "function"
    },
    {
      "inputs": [
        {
          "internalType": "address[]",
          "name": "_path",
          "type": "address[]"
        }
      ],
      "name": "setSwapPaths",
      "outputs": [],
      "stateMutability": "nonpayable",
      "type": "function"
    },
    {
      "inputs": [],
      "name": "sharesTotal",
      "outputs": [
        {
          "internalType": "uint256",
          "name": "",
          "type": "uint256"
        }
      ],
      "stateMutability": "view",
      "type": "function"
    },
    {
      "inputs": [
        {
          "internalType": "address",
          "name": "",
          "type": "address"
        },
        {
          "internalType": "address",
          "name": "",
          "type": "address"
        }
      ],
      "name": "swapPathLength",
      "outputs": [
        {
          "internalType": "uint16",
          "name": "",
          "type": "uint16"
        }
      ],
      "stateMutability": "view",
      "type": "function"
    },
    {
      "inputs": [
        {
          "internalType": "address",
          "name": "",
          "type": "address"
        },
        {
          "internalType": "address",
          "name": "",
          "type": "address"
        },
        {
          "internalType": "uint256",
          "name": "",
          "type": "uint256"
        }
      ],
      "name": "swapPaths",
      "outputs": [
        {
          "internalType": "address",
          "name": "",
          "type": "address"
        }
      ],
      "stateMutability": "view",
      "type": "function"
    },
    {
      "inputs": [],
      "name": "token0Address",
      "outputs": [
        {
          "internalType": "address",
          "name": "",
          "type": "address"
        }
      ],
      "stateMutability": "view",
      "type": "function"
    },
    {
      "inputs": [],
      "name": "token1Address",
      "outputs": [
        {
          "internalType": "address",
          "name": "",
          "type": "address"
        }
      ],
      "stateMutability": "view",
      "type": "function"
    },
    {
      "inputs": [
        {
          "internalType": "address",
          "name": "newOwner",
          "type": "address"
        }
      ],
      "name": "transferOwnership",
      "outputs": [],
      "stateMutability": "nonpayable",
      "type": "function"
    },
    {
      "inputs": [],
      "name": "treasury",
      "outputs": [
        {
          "internalType": "address",
          "name": "",
          "type": "address"
        }
      ],
      "stateMutability": "view",
      "type": "function"
    },
    {
      "inputs": [],
      "name": "unpause",
      "outputs": [],
      "stateMutability": "nonpayable",
      "type": "function"
    },
    {
      "inputs": [],
      "name": "vaultActions",
      "outputs": [
        {
          "internalType": "address",
          "name": "",
          "type": "address"
        }
      ],
      "stateMutability": "view",
      "type": "function"
    },
    {
      "inputs": [],
      "name": "wantAddress",
      "outputs": [
        {
          "internalType": "address",
          "name": "",
          "type": "address"
        }
      ],
      "stateMutability": "view",
      "type": "function"
    },
    {
      "inputs": [],
      "name": "withdrawFeeFactor",
      "outputs": [
        {
          "internalType": "uint256",
          "name": "",
          "type": "uint256"
        }
      ],
      "stateMutability": "view",
      "type": "function"
    },
    {
      "inputs": [],
      "name": "withdrawFeeFactorLL",
      "outputs": [
        {
          "internalType": "uint256",
          "name": "",
          "type": "uint256"
        }
      ],
      "stateMutability": "view",
      "type": "function"
    },
    {
      "inputs": [
        {
          "internalType": "uint256",
          "name": "_shares",
          "type": "uint256"
        }
      ],
      "name": "withdrawWantToken",
      "outputs": [
        {
          "internalType": "uint256",
          "name": "wantRemoved",
          "type": "uint256"
        }
      ],
      "stateMutability": "nonpayable",
      "type": "function"
    },
    {
      "inputs": [],
      "name": "zorroControllerAddress",
      "outputs": [
        {
          "internalType": "address",
          "name": "",
          "type": "address"
        }
      ],
      "stateMutability": "view",
      "type": "function"
    },
    {
      "inputs": [],
      "name": "zorroLPPool",
      "outputs": [
        {
          "internalType": "address",
          "name": "",
          "type": "address"
        }
      ],
      "stateMutability": "view",
      "type": "function"
    },
    {
      "inputs": [],
      "name": "zorroLPPoolOtherToken",
      "outputs": [
        {
          "internalType": "address",
          "name": "",
          "type": "address"
        }
      ],
      "stateMutability": "view",
      "type": "function"
    },
    {
      "inputs": [],
      "name": "zorroStakingVault",
      "outputs": [
        {
          "internalType": "address",
          "name": "",
          "type": "address"
        }
      ],
      "stateMutability": "view",
      "type": "function"
    },
    {
      "inputs": [],
      "name": "zorroXChainController",
      "outputs": [
        {
          "internalType": "address",
          "name": "",
          "type": "address"
        }
      ],
      "stateMutability": "view",
      "type": "function"
    },
    {
      "inputs": [
        {
          "internalType": "address",
          "name": "_timelockOwner",
          "type": "address"
        },
        {
          "components": [
            {
              "components": [
                {
                  "components": [
                    {
                      "internalType": "uint256",
                      "name": "pid",
                      "type": "uint256"
                    },
                    {
                      "internalType": "bool",
                      "name": "isHomeChain",
                      "type": "bool"
                    }
                  ],
                  "internalType": "struct IVault.VaultConfig",
                  "name": "config",
                  "type": "tuple"
                },
                {
                  "components": [
                    {
                      "internalType": "address",
                      "name": "govAddress",
                      "type": "address"
                    },
                    {
                      "internalType": "address",
                      "name": "zorroControllerAddress",
                      "type": "address"
                    },
                    {
                      "internalType": "address",
                      "name": "zorroXChainController",
                      "type": "address"
                    },
                    {
                      "internalType": "address",
                      "name": "ZORROAddress",
                      "type": "address"
                    },
                    {
                      "internalType": "address",
                      "name": "zorroStakingVault",
                      "type": "address"
                    },
                    {
                      "internalType": "address",
                      "name": "wantAddress",
                      "type": "address"
                    },
                    {
                      "internalType": "address",
                      "name": "token0Address",
                      "type": "address"
                    },
                    {
                      "internalType": "address",
                      "name": "token1Address",
                      "type": "address"
                    },
                    {
                      "internalType": "address",
                      "name": "earnedAddress",
                      "type": "address"
                    },
                    {
                      "internalType": "address",
                      "name": "farmContractAddress",
                      "type": "address"
                    },
                    {
                      "internalType": "address",
                      "name": "treasury",
                      "type": "address"
                    },
                    {
                      "internalType": "address",
                      "name": "poolAddress",
                      "type": "address"
                    },
                    {
                      "internalType": "address",
                      "name": "uniRouterAddress",
                      "type": "address"
                    },
                    {
                      "internalType": "address",
                      "name": "zorroLPPool",
                      "type": "address"
                    },
                    {
                      "internalType": "address",
                      "name": "zorroLPPoolOtherToken",
                      "type": "address"
                    },
                    {
                      "internalType": "address",
                      "name": "defaultStablecoin",
                      "type": "address"
                    },
                    {
                      "internalType": "address",
                      "name": "vaultActions",
                      "type": "address"
                    }
                  ],
                  "internalType": "struct IVault.VaultAddresses",
                  "name": "keyAddresses",
                  "type": "tuple"
                },
                {
                  "components": [
                    {
                      "internalType": "address[]",
                      "name": "earnedToZORROPath",
                      "type": "address[]"
                    },
                    {
                      "internalType": "address[]",
                      "name": "earnedToToken0Path",
                      "type": "address[]"
                    },
                    {
                      "internalType": "address[]",
                      "name": "earnedToToken1Path",
                      "type": "address[]"
                    },
                    {
                      "internalType": "address[]",
                      "name": "stablecoinToToken0Path",
                      "type": "address[]"
                    },
                    {
                      "internalType": "address[]",
                      "name": "stablecoinToToken1Path",
                      "type": "address[]"
                    },
                    {
                      "internalType": "address[]",
                      "name": "earnedToZORLPPoolOtherTokenPath",
                      "type": "address[]"
                    },
                    {
                      "internalType": "address[]",
                      "name": "earnedToStablecoinPath",
                      "type": "address[]"
                    },
                    {
                      "internalType": "address[]",
                      "name": "stablecoinToZORROPath",
                      "type": "address[]"
                    },
                    {
                      "internalType": "address[]",
                      "name": "stablecoinToLPPoolOtherTokenPath",
                      "type": "address[]"
                    }
                  ],
                  "internalType": "struct IVault.VaultSwapPaths",
                  "name": "swapPaths",
                  "type": "tuple"
                },
                {
                  "components": [
                    {
                      "internalType": "uint256",
                      "name": "controllerFee",
                      "type": "uint256"
                    },
                    {
                      "internalType": "uint256",
                      "name": "buyBackRate",
                      "type": "uint256"
                    },
                    {
                      "internalType": "uint256",
                      "name": "revShareRate",
                      "type": "uint256"
                    },
                    {
                      "internalType": "uint256",
                      "name": "entranceFeeFactor",
                      "type": "uint256"
                    },
                    {
                      "internalType": "uint256",
                      "name": "withdrawFeeFactor",
                      "type": "uint256"
                    }
                  ],
                  "internalType": "struct IVault.VaultFees",
                  "name": "fees",
                  "type": "tuple"
                },
                {
                  "components": [
                    {
                      "internalType": "address",
                      "name": "token0PriceFeed",
                      "type": "address"
                    },
                    {
                      "internalType": "address",
                      "name": "token1PriceFeed",
                      "type": "address"
                    },
                    {
                      "internalType": "address",
                      "name": "earnTokenPriceFeed",
                      "type": "address"
                    },
                    {
                      "internalType": "address",
                      "name": "ZORPriceFeed",
                      "type": "address"
                    },
                    {
                      "internalType": "address",
                      "name": "lpPoolOtherTokenPriceFeed",
                      "type": "address"
                    },
                    {
                      "internalType": "address",
                      "name": "stablecoinPriceFeed",
                      "type": "address"
                    }
                  ],
                  "internalType": "struct IVault.VaultPriceFeeds",
                  "name": "priceFeeds",
                  "type": "tuple"
                },
                {
                  "internalType": "uint256",
                  "name": "dstGasForEarningsCall",
                  "type": "uint256"
                }
              ],
              "internalType": "struct IVault.VaultBaseInit",
              "name": "baseInit",
              "type": "tuple"
            },
            {
              "internalType": "address",
              "name": "lendingToken",
              "type": "address"
            }
          ],
          "internalType": "struct IVaultAlpaca.VaultAlpacaInit",
          "name": "_initValue",
          "type": "tuple"
        }
      ],
      "name": "initialize",
      "outputs": [],
      "stateMutability": "nonpayable",
      "type": "function"
    },
    {
      "inputs": [
        {
          "internalType": "address",
          "name": "_lendingToken",
          "type": "address"
        }
      ],
      "name": "setLendingToken",
      "outputs": [],
      "stateMutability": "nonpayable",
      "type": "function"
    },
    {
      "inputs": [],
      "name": "farm",
      "outputs": [],
      "stateMutability": "nonpayable",
      "type": "function"
    }
  ],
  "bytecode": "0x608060405234801561001057600080fd5b50613d7e806100206000396000f3fe608060405234801561001057600080fd5b50600436106103f8576000357c0100000000000000000000000000000000000000000000000000000000900480637153ef8611610227578063b3545c0111610142578063e502a88d116100d5578063edf5e585116100a4578063edf5e58514610809578063f106845414610816578063f2fde38b1461081f578063f5046a2914610832578063f67b10021461084557600080fd5b8063e502a88d146107bd578063e7198474146107d0578063e7a03679146107e3578063ebfba7c4146107f657600080fd5b8063cfad57a211610111578063cfad57a21461077c578063d389800f1461078f578063d7cb416f14610797578063decac9cf146107aa57600080fd5b8063b3545c01146103fd578063b61bb80a14610760578063c302a4d0146106ab578063c86274561461077357600080fd5b80638be8469b116101ba5780639fc33a9f116101895780639fc33a9f14610714578063a4d2b08314610727578063aaaca5581461073a578063b1414dbb1461074d57600080fd5b80638be8469b146106b45780638da5cb5b146106c75780639438928b146106d85780639dcb511a146106eb57600080fd5b80637ff36fbe116101f65780637ff36fbe146106875780638456cb591461069a57806385f02dd6146106a2578063866b2018146106ab57600080fd5b80637153ef861461064557806376e11286146106585780637a8d130f1461066b5780637bf604d81461067457600080fd5b80633214471f116103175780635fc77d43116102aa578063677379e511610279578063677379e51461060e57806368f541621461062157806370d5ae051461062a578063715018a61461063d57600080fd5b80635fc77d43146105c257806361d027b3146105d5578063648794a4146105e857806367206d40146105fb57600080fd5b806346008a07116102e657806346008a071461057e57806355ebedec146105915780635c975abb146105a45780635e835270146105af57600080fd5b80633214471f1461055c57806336e9332d146105655780633f4ba83a1461056d57806344a3955e1461057557600080fd5b80631755ff211161038f578063211019d71161035e578063211019d7146103fd5780632209b59e146104f45780632337b0b114610507578063320d47cc1461054957600080fd5b80631755ff21146104a4578063178a8d07146104cf578063180b0d7e146104d85780631b0d8aab146104e157600080fd5b80630daef321116103cb5780630daef3211461044a5780630fa4e01e1461047f57806312bc4b9b146104885780631334903f1461049b57600080fd5b8063061c7d48146103fd5780630761a1721461041957806307df6047146104225780630b6bb30b14610437575b600080fd5b61040661138881565b6040519081526020015b60405180910390f35b61040660e85481565b610435610430366004612f82565b61084e565b005b610435610445366004612fd0565b610b8f565b60cb5461046f9074010000000000000000000000000000000000000000900460ff1681565b6040519015158152602001610410565b61040660e15481565b610435610496366004613160565b610c36565b61040660df5481565b60d9546104b790600160a060020a031681565b604051600160a060020a039091168152602001610410565b61040660dd5481565b61040661271081565b6104356104ef366004613195565b610c6f565b610406610502366004613195565b610ca1565b6105366105153660046131ae565b60e660209081526000928352604080842090915290825290205461ffff1681565b60405161ffff9091168152602001610410565b610435610557366004613195565b610ee1565b61040660de5481565b610435610f13565b610435610f4d565b61040660e45481565b60cb546104b790600160a060020a031681565b61040661059f366004613195565b610f84565b60975460ff1661046f565b6104b76105bd3660046131cc565b611240565b60cd546104b790600160a060020a031681565b60d8546104b790600160a060020a031681565b6104066105f636600461320d565b611285565b61043561060936600461322f565b61133c565b60d0546104b790600160a060020a031681565b61040660e05481565b60d7546104b790600160a060020a031681565b610435611444565b610435610653366004613271565b61147b565b6104356106663660046131ae565b61176a565b61040660e25481565b60da546104b790600160a060020a031681565b60d2546104b790600160a060020a031681565b6104356117a1565b61040660dc5481565b61040661232881565b6104356106c23660046136c0565b6117d6565b603354600160a060020a03166104b7565b6104356106e6366004613195565b6118d4565b6104b76106f93660046137d7565b60e760205260009081526040902054600160a060020a031681565b60d5546104b790600160a060020a031681565b60cf546104b790600160a060020a031681565b60ea546104b790600160a060020a031681565b60cc546104b790600160a060020a031681565b60d6546104b790600160a060020a031681565b61040660e35481565b61043561078a3660046137d7565b611906565b610435611981565b60d3546104b790600160a060020a031681565b6104356107b83660046137d7565b611e8a565b6104066107cb36600461320d565b611ed9565b60d4546104b790600160a060020a031681565b60d1546104b790600160a060020a031681565b60db546104b790600160a060020a031681565b60c95461046f9060ff1681565b61040660ca5481565b61043561082d3660046137d7565b611f4a565b60ce546104b790600160a060020a031681565b61040660e95481565b603354600160a060020a031633146108845760405160e560020a62461bcd02815260040161087b906137f4565b60405180910390fd5b61ffff82166108ac5760d28054600160a060020a031916600160a060020a0383161790555050565b8161ffff16600114156108d85760d38054600160a060020a031916600160a060020a0383161790555050565b8161ffff16600214156109045760d68054600160a060020a031916600160a060020a0383161790555050565b8161ffff16600314156109305760ce8054600160a060020a031916600160a060020a0383161790555050565b8161ffff166004141561095c5760d18054600160a060020a031916600160a060020a0383161790555050565b8161ffff16600514156109885760d98054600160a060020a031916600160a060020a0383161790555050565b8161ffff16600614156109b45760d48054600160a060020a031916600160a060020a0383161790555050565b8161ffff16600714156109e05760d58054600160a060020a031916600160a060020a0383161790555050565b8161ffff1660081415610a0c5760d88054600160a060020a031916600160a060020a0383161790555050565b8161ffff1660091415610a385760d78054600160a060020a031916600160a060020a0383161790555050565b8161ffff16600a1415610a645760da8054600160a060020a031916600160a060020a0383161790555050565b8161ffff16600b1415610a905760db8054600160a060020a031916600160a060020a0383161790555050565b8161ffff16600c1415610abc5760cc8054600160a060020a031916600160a060020a0383161790555050565b8161ffff16600d1415610ae85760cd8054600160a060020a031916600160a060020a0383161790555050565b8161ffff16600e1415610b145760cf8054600160a060020a031916600160a060020a0383161790555050565b8161ffff16600f1415610b405760d08054600160a060020a031916600160a060020a0383161790555050565b60405160e560020a62461bcd02815260206004820152601160248201527f757265636f67436f6e7472616374496478000000000000000000000000000000604482015260640161087b565b5050565b60cb54600160a060020a03163314610bbc5760405160e560020a62461bcd02815260040161087b90613829565b60cb8054821515740100000000000000000000000000000000000000000274ff0000000000000000000000000000000000000000199091161790556040517f125177ac7b8930dac1e59c2b30b1b6b9191b30af40cf6bbb5d20fec4d44be60f90610c2b90831515815260200190565b60405180910390a150565b603354600160a060020a03163314610c635760405160e560020a62461bcd02815260040161087b906137f4565b610c6c81611fff565b50565b603354600160a060020a03163314610c9c5760405160e560020a62461bcd02815260040161087b906137f4565b60ca55565b60cc54600090600160a060020a031633600160a060020a031614610d0a5760405160e560020a62461bcd02815260206004820152601060248201527f217a6f72726f436f6e74726f6c6c657200000000000000000000000000000000604482015260640161087b565b60026065541415610d305760405160e560020a62461bcd02815260040161087b90613860565b600260655560975460ff1615610d5b5760405160e560020a62461bcd02815260040161087b90613897565b60008211610dae5760405160e560020a62461bcd02815260206004820152601e60248201527f57616e7420746f6b656e206465706f736974206d757374206265203e20300000604482015260640161087b565b60d154610dc690600160a060020a03163330856120cb565b5060d0546040517ff55850b40000000000000000000000000000000000000000000000000000000081523060048201528291600091600160a060020a039091169063f55850b490602401602060405180830381865afa158015610e2d573d6000803e3d6000fd5b505050506040513d601f19601f82011682018060405250810190610e5191906138ce565b9050600081118015610e655750600060e454115b15610e9d57610e7661271082613900565b60df5460e454610e869086613900565b610e909190613900565b610e9a919061391f565b91505b8160e46000828254610eaf9190613944565b925050819055508260e26000828254610ec89190613944565b90915550610ed69050612182565b506001606555919050565b603354600160a060020a03163314610f0e5760405160e560020a62461bcd02815260040161087b906137f4565b60e855565b60026065541415610f395760405160e560020a62461bcd02815260040161087b90613860565b6002606555610f46612182565b6001606555565b60cb54600160a060020a03163314610f7a5760405160e560020a62461bcd02815260040161087b90613829565b610f826123a8565b565b60cc54600090600160a060020a031633600160a060020a031614610fed5760405160e560020a62461bcd02815260206004820152601060248201527f217a6f72726f436f6e74726f6c6c657200000000000000000000000000000000604482015260640161087b565b600260655414156110135760405160e560020a62461bcd02815260040161087b90613860565b600260655560975460ff161561103e5760405160e560020a62461bcd02815260040161087b90613897565b600082116110915760405160e560020a62461bcd02815260206004820152600960248201527f6e65675368617265730000000000000000000000000000000000000000000000604482015260640161087b565b60d0546040517ff55850b4000000000000000000000000000000000000000000000000000000008152306004820152600091600160a060020a03169063f55850b490602401602060405180830381865afa1580156110f3573d6000803e3d6000fd5b505050506040513d601f19601f8201168201806040525081019061111791906138ce565b905060e4548311156111295760e45492505b60e4546000906111398584613900565b611143919061391f565b90508360e46000828254611157919061395c565b90915550611166905081612447565b60d15460405160e060020a6370a08231028152306004820152600160a060020a03909116906370a0823190602401602060405180830381865afa1580156111b1573d6000803e3d6000fd5b505050506040513d601f19601f820116820180604052508101906111d591906138ce565b925061271060e05410156112005761271060e0546111f3919061391f565b6111fd9084613900565b92505b8260e26000828254611212919061395c565b909155505060cc5460d15461123491600160a060020a039182169116856125ab565b50506001606555919050565b60e5602052826000526040600020602052816000526040600020818154811061126857600080fd5b600091825260209091200154600160a060020a0316925083915050565b60d05460d1546000916112a591600160a060020a039081169116856125f4565b60d0546040517f648794a40000000000000000000000000000000000000000000000000000000081526004810185905260248101849052600160a060020a039091169063648794a4906044015b6020604051808303816000875af1158015611311573d6000803e3d6000fd5b505050506040513d601f19601f8201168201806040525081019061133591906138ce565b9392505050565b60cb54600160a060020a031633146113695760405160e560020a62461bcd02815260040161087b90613829565b60d454600160a060020a03848116911614156113ca5760405160e560020a62461bcd02815260206004820152600560248201527f2173616665000000000000000000000000000000000000000000000000000000604482015260640161087b565b60d154600160a060020a038481169116141561142b5760405160e560020a62461bcd02815260206004820152600560248201527f2173616665000000000000000000000000000000000000000000000000000000604482015260640161087b565b61143f600160a060020a03841682846125ab565b505050565b603354600160a060020a031633146114715760405160e560020a62461bcd02815260040161087b906137f4565b610f8260006126d8565b60cb54600160a060020a031633146114a85760405160e560020a62461bcd02815260040161087b90613829565b6123288510156114fd5760405160e560020a62461bcd02815260206004820152601a60248201527f5f656e7472616e6365466565466163746f7220746f6f206c6f77000000000000604482015260640161087b565b6127108511156115525760405160e560020a62461bcd02815260206004820152601b60248201527f5f656e7472616e6365466565466163746f7220746f6f20686967680000000000604482015260640161087b565b60df8590556123288410156115ac5760405160e560020a62461bcd02815260206004820152601a60248201527f5f7769746864726177466565466163746f7220746f6f206c6f77000000000000604482015260640161087b565b6127108411156116015760405160e560020a62461bcd02815260206004820152601b60248201527f5f7769746864726177466565466163746f7220746f6f20686967680000000000604482015260640161087b565b60e084905561138883111561165b5760405160e560020a62461bcd02815260206004820152601760248201527f5f636f6e74726f6c6c657246656520746f6f2068696768000000000000000000604482015260640161087b565b60dc8390556113888211156116b55760405160e560020a62461bcd02815260206004820152601560248201527f5f6275794261636b5261746520746f6f20686967680000000000000000000000604482015260640161087b565b60dd82905561138881111561170f5760405160e560020a62461bcd02815260206004820152601660248201527f5f72657653686172655261746520746f6f206869676800000000000000000000604482015260640161087b565b60de819055604080518681526020810186905290810184905260608101839052608081018290527fc67e0b149a57a70fa44a531a46c2c6d8e0b242fa12f459f250012c3a5987d29a9060a00160405180910390a15050505050565b603354600160a060020a031633146117975760405160e560020a62461bcd02815260040161087b906137f4565b610b8b828261272a565b60cb54600160a060020a031633146117ce5760405160e560020a62461bcd02815260040161087b90613829565b610f82612758565b600054610100900460ff166117f15760005460ff16156117f5565b303b155b61186a5760405160e560020a62461bcd02815260206004820152602e60248201527f496e697469616c697a61626c653a20636f6e747261637420697320616c72656160448201527f647920696e697469616c697a6564000000000000000000000000000000000000606482015260840161087b565b600054610100900460ff1615801561188c576000805461ffff19166101011790555b61189a8383600001516127b3565b602082015160ea8054600160a060020a031916600160a060020a03909216919091179055801561143f576000805461ff0019169055505050565b603354600160a060020a031633146119015760405160e560020a62461bcd02815260040161087b906137f4565b60e955565b60cb54600160a060020a031633146119335760405160e560020a62461bcd02815260040161087b90613829565b60cb8054600160a060020a031916600160a060020a0383169081179091556040519081527f91a8c1cc2d4a3bb60738481947a00cbb9899c822916694cf8bb1d68172fdcd5490602001610c2b565b600260655414156119a75760405160e560020a62461bcd02815260040161087b90613860565b600260655560975460ff16156119d25760405160e560020a62461bcd02815260040161087b90613897565b60cb5474010000000000000000000000000000000000000000900460ff1615611a225760cb54600160a060020a03163314611a225760405160e560020a62461bcd02815260040161087b90613829565b611a2c6000612447565b60d15460405160e060020a6370a08231028152306004820152600091600160a060020a0316906370a0823190602401602060405180830381865afa158015611a78573d6000803e3d6000fd5b505050506040513d601f19601f82011682018060405250810190611a9c91906138ce565b905060008111611af15760405160e560020a62461bcd02815260206004820152600e60248201527f3077616e74486172766573746564000000000000000000000000000000000000604482015260640161087b565b60d05460d154611b0e91600160a060020a039182169116836125f4565b60d05460e854604080516101c08101825260ce54600160a060020a0390811680835260d854821660208085019190915260d654831684860181905260cf548416606086015260db54841660808601819052600084815260e780855288822054871660a089015291815281845287812054861660c088015282815290835286812054851660e087015290815260e58252858120928152918152848220805486518184028101840190975280875292978897941695636945292a958a959490936101008501939190830182828015611c0d57602002820191906000526020600020905b8154600160a060020a03168152600190910190602001808311611bef575b505050918352505060d654600160a060020a03908116600090815260e56020908152604080832060db549094168352928152908290208054835181840281018401909452808452938201939091830182828015611c9357602002820191906000526020600020905b8154600160a060020a03168152600190910190602001808311611c75575b5050505050815260200161271060dc54612710611cb09190613900565b611cba919061391f565b61ffff16815260200161271060dd54612710611cd69190613900565b611ce0919061391f565b61ffff16815260200161271060de54612710611cfc9190613900565b611d06919061391f565b61ffff16815260c95460ff1615156020909101526040517c010000000000000000000000000000000000000000000000000000000063ffffffff8616028152611d54939291906004016139b7565b6060604051808303816000875af1158015611d73573d6000803e3d6000fd5b505050506040513d601f19601f82011682018060405250810190611d979190613b33565b92509250506000821180611dab5750600081115b15611e6f5760cd54611ddd90600160a060020a0316611dca8385613944565b60d654600160a060020a031691906125f4565b60cd5460e85460e9546040517f464e3c8b000000000000000000000000000000000000000000000000000000008152600481018690526024810185905260448101929092526064820152600160a060020a039091169063464e3c8b90608401600060405180830381600087803b158015611e5657600080fd5b505af1158015611e6a573d6000803e3d6000fd5b505050505b4360e15560e3839055611e80612182565b5050600160655550565b603354600160a060020a03163314611eb75760405160e560020a62461bcd02815260040161087b906137f4565b60ea8054600160a060020a031916600160a060020a0392909216919091179055565b60d05460d654600091611ef991600160a060020a039081169116856125f4565b60d0546040517fe502a88d0000000000000000000000000000000000000000000000000000000081526004810185905260248101849052600160a060020a039091169063e502a88d906044016112f2565b603354600160a060020a03163314611f775760405160e560020a62461bcd02815260040161087b906137f4565b600160a060020a038116611ff65760405160e560020a62461bcd02815260206004820152602660248201527f4f776e61626c653a206e6577206f776e657220697320746865207a65726f206160448201527f6464726573730000000000000000000000000000000000000000000000000000606482015260840161087b565b610c6c816126d8565b80516120085750565b60008160008151811061201d5761201d613b61565b6020026020010151905060008260018451612038919061395c565b8151811061204857612048613b61565b602090810291909101810151600160a060020a03808516600090815260e584526040808220928416825291845220855191935061208a92909190860190612ee3565b509151600160a060020a03918216600090815260e66020908152604080832094909516825292909252919020805461ffff191661ffff909216919091179055565b604051600160a060020a038085166024830152831660448201526064810182905261217c9085907f23b872dd00000000000000000000000000000000000000000000000000000000906084015b60408051601f198184030181529190526020810180517bffffffffffffffffffffffffffffffffffffffffffffffffffffffff167fffffffff0000000000000000000000000000000000000000000000000000000090931692909217909152612bf4565b50505050565b60d15460405160e060020a6370a08231028152306004820152600091600160a060020a0316906370a0823190602401602060405180830381865afa1580156121ce573d6000803e3d6000fd5b505050506040513d601f19601f820116820180604052508101906121f291906138ce565b60d95460d15491925061221291600160a060020a039081169116836125f4565b60d9546040517fb6b55f2500000000000000000000000000000000000000000000000000000000815260048101839052600160a060020a039091169063b6b55f2590602401600060405180830381600087803b15801561227157600080fd5b505af1158015612285573d6000803e3d6000fd5b505060ea5460405160e060020a6370a0823102815230600482015260009350600160a060020a0390911691506370a0823190602401602060405180830381865afa1580156122d7573d6000803e3d6000fd5b505050506040513d601f19601f820116820180604052508101906122fb91906138ce565b60d55460ea5491925061231b91600160a060020a039081169116836125f4565b60d55460ca546040517f0efe6a8b000000000000000000000000000000000000000000000000000000008152306004820152602481019190915260448101849052600160a060020a0390911690630efe6a8b906064015b600060405180830381600087803b15801561238c57600080fd5b505af11580156123a0573d6000803e3d6000fd5b505050505050565b60975460ff166123fd5760405160e560020a62461bcd02815260206004820152601460248201527f5061757361626c653a206e6f7420706175736564000000000000000000000000604482015260640161087b565b6097805460ff191690557f5db9ee0a495bf2e6ff9c91a7834c1ba4fdd244a5e8aa4e537bd38aeae4b073aa335b604051600160a060020a03909116815260200160405180910390a1565b60d55460ca546040517fb5c5f672000000000000000000000000000000000000000000000000000000008152306004820152602481019190915260448101839052600160a060020a039091169063b5c5f67290606401600060405180830381600087803b1580156124b757600080fd5b505af11580156124cb573d6000803e3d6000fd5b505060ea5460405160e060020a6370a0823102815230600482015260009350600160a060020a0390911691506370a0823190602401602060405180830381865afa15801561251d573d6000803e3d6000fd5b505050506040513d601f19601f8201168201806040525081019061254191906138ce565b60d95460ea5491925061256191600160a060020a039081169116836125f4565b60d9546040517f2e1a7d4d00000000000000000000000000000000000000000000000000000000815260048101839052600160a060020a0390911690632e1a7d4d90602401612372565b604051600160a060020a03831660248201526044810182905261143f9084907fa9059cbb0000000000000000000000000000000000000000000000000000000090606401612118565b6040517fdd62ed3e000000000000000000000000000000000000000000000000000000008152306004820152600160a060020a038381166024830152600091839186169063dd62ed3e90604401602060405180830381865afa15801561265e573d6000803e3d6000fd5b505050506040513d601f19601f8201168201806040525081019061268291906138ce565b61268c9190613944565b604051600160a060020a03851660248201526044810182905290915061217c9085907f095ea7b30000000000000000000000000000000000000000000000000000000090606401612118565b60338054600160a060020a03838116600160a060020a0319831681179093556040519116919082907f8be0079c531659141344cd1fd0a4f28419497f9722a3daafe3b4186f6b6457e090600090a35050565b600160a060020a03918216600090815260e7602052604090208054600160a060020a03191691909216179055565b60975460ff161561277e5760405160e560020a62461bcd02815260040161087b90613897565b6097805460ff191660011790557f62e78cea01bee320cd4e420270b5ea74000d11b0c9f74754ebdbfc544b05a25861242a3390565b6127bb612cdc565b6127c482611f4a565b8051805160ca5560209081015160c9805460ff191691151591909117905580820151805160cb805474010000000000000000000000000000000000000000600160a060020a0393841674ffffffffffffffffffffffffffffffffffffffffff19909216919091171790558183015160cc8054600160a060020a031990811692841692909217905560408084015160cd8054841691851691909117905560608085015160ce8054851691861691909117905560808086015160cf8054861691871691909117905560a086015160d18054861691871691909117905560c086015160d28054861691871691909117905560e08087015160d38054871691881691909117905561010087015160d48054871691881691909117905561012087015160d58054871691881691909117905561014087015160d88054871691881691909117905561016087015160d9805487169188169190911790556101a087015160da805487169188169190911790556101c087015160db805487169188169190911790556101e087015160d6805487169188169190911790556102009096015160d0805490951695169490941790925581860151805160dc559485015160dd558481015160de559084015160df559201519055810151516129a190611fff565b6129b2816040015160200151611fff565b6129c3816040015160400151611fff565b6129d4816040015160600151611fff565b6129e5816040015160800151611fff565b6129f6816040015160a00151611fff565b612a07816040015160c00151611fff565b612a18816040015160e00151611fff565b612a2a81604001516101000151611fff565b60d0546040808301516060015190517f8b4c5aee000000000000000000000000000000000000000000000000000000008152612ac792600160a060020a031691638b4c5aee91612a7d9190600401613b7a565b600060405180830381865afa158015612a9a573d6000803e3d6000fd5b505050506040513d6000823e601f3d908101601f19168201604052612ac29190810190613bc7565b611fff565b60d0546040808301516080015190517f8b4c5aee000000000000000000000000000000000000000000000000000000008152612b1a92600160a060020a031691638b4c5aee91612a7d9190600401613b7a565b60d254608082015151612b3691600160a060020a03169061272a565b60d354608082015160200151612b5591600160a060020a03169061272a565b60d454608082015160400151612b7491600160a060020a03169061272a565b60db546080808301510151612b9291600160a060020a03169061272a565b60ce54608082015160600151612bb191600160a060020a03169061272a565b60d654608082015160a00151612bd091600160a060020a03169061272a565b60d78054600160a060020a03191661dead1790556103d960e85560a0015160e95550565b6000612c49826040518060400160405280602081526020017f5361666545524332303a206c6f772d6c6576656c2063616c6c206661696c656481525085600160a060020a0316612d0e9092919063ffffffff16565b80519091501561143f5780806020019051810190612c679190613c53565b61143f5760405160e560020a62461bcd02815260206004820152602a60248201527f5361666545524332303a204552433230206f7065726174696f6e20646964206e60448201527f6f74207375636365656400000000000000000000000000000000000000000000606482015260840161087b565b600054610100900460ff16612d065760405160e560020a62461bcd02815260040161087b90613c70565b610f82612d25565b6060612d1d8484600085612d58565b949350505050565b600054610100900460ff16612d4f5760405160e560020a62461bcd02815260040161087b90613c70565b610f82336126d8565b60603031831115612dd45760405160e560020a62461bcd02815260206004820152602660248201527f416464726573733a20696e73756666696369656e742062616c616e636520666f60448201527f722063616c6c0000000000000000000000000000000000000000000000000000606482015260840161087b565b600160a060020a0385163b612e2e5760405160e560020a62461bcd02815260206004820152601d60248201527f416464726573733a2063616c6c20746f206e6f6e2d636f6e7472616374000000604482015260640161087b565b60008086600160a060020a03168587604051612e4a9190613cf9565b60006040518083038185875af1925050503d8060008114612e87576040519150601f19603f3d011682016040523d82523d6000602084013e612e8c565b606091505b5091509150612e9c828286612ea7565b979650505050505050565b60608315612eb6575081611335565b825115612ec65782518084602001fd5b8160405160e560020a62461bcd02815260040161087b9190613d15565b828054828255906000526020600020908101928215612f38579160200282015b82811115612f385782518254600160a060020a031916600160a060020a03909116178255602090920191600190910190612f03565b50612f44929150612f48565b5090565b5b80821115612f445760008155600101612f49565b600160a060020a0381168114610c6c57600080fd5b8035612f7d81612f5d565b919050565b60008060408385031215612f9557600080fd5b823561ffff81168114612fa757600080fd5b91506020830135612fb781612f5d565b809150509250929050565b8015158114610c6c57600080fd5b600060208284031215612fe257600080fd5b813561133581612fc2565b60e060020a634e487b7102600052604160045260246000fd5b604051610220810167ffffffffffffffff8111828210171561302a5761302a612fed565b60405290565b604051610120810167ffffffffffffffff8111828210171561302a5761302a612fed565b60405160c0810167ffffffffffffffff8111828210171561302a5761302a612fed565b6040805190810167ffffffffffffffff8111828210171561302a5761302a612fed565b604051601f8201601f1916810167ffffffffffffffff811182821017156130c3576130c3612fed565b604052919050565b600067ffffffffffffffff8211156130e5576130e5612fed565b5060209081020190565b600082601f83011261310057600080fd5b81356020613115613110836130cb565b61309a565b8281529181028401810191818101908684111561313157600080fd5b8286015b8481101561315557803561314881612f5d565b8352918301918301613135565b509695505050505050565b60006020828403121561317257600080fd5b813567ffffffffffffffff81111561318957600080fd5b612d1d848285016130ef565b6000602082840312156131a757600080fd5b5035919050565b600080604083850312156131c157600080fd5b8235612fa781612f5d565b6000806000606084860312156131e157600080fd5b83356131ec81612f5d565b925060208401356131fc81612f5d565b929592945050506040919091013590565b6000806040838503121561322057600080fd5b50508035926020909101359150565b60008060006060848603121561324457600080fd5b833561324f81612f5d565b925060208401359150604084013561326681612f5d565b809150509250925092565b600080600080600060a0868803121561328957600080fd5b505083359560208501359550604085013594606081013594506080013592509050565b6000604082840312156132be57600080fd5b6040516040810181811067ffffffffffffffff821117156132e1576132e1612fed565b6040528235815290508060208301356132f981612fc2565b6020919091015292915050565b6000610220828403121561331957600080fd5b613321613006565b905061332c82612f72565b815261333a60208301612f72565b602082015261334b60408301612f72565b604082015261335c60608301612f72565b606082015261336d60808301612f72565b608082015261337e60a08301612f72565b60a082015261338f60c08301612f72565b60c08201526133a060e08301612f72565b60e08201526101006133b3818401612f72565b908201526101206133c5838201612f72565b908201526101406133d7838201612f72565b908201526101606133e9838201612f72565b908201526101806133fb838201612f72565b908201526101a061340d838201612f72565b908201526101c061341f838201612f72565b908201526101e0613431838201612f72565b90820152610200613443838201612f72565b9082015292915050565b6000610120828403121561346057600080fd5b613468613030565b9050813567ffffffffffffffff8082111561348257600080fd5b61348e858386016130ef565b835260208401359150808211156134a457600080fd5b6134b0858386016130ef565b602084015260408401359150808211156134c957600080fd5b6134d5858386016130ef565b604084015260608401359150808211156134ee57600080fd5b6134fa858386016130ef565b6060840152608084013591508082111561351357600080fd5b61351f858386016130ef565b608084015260a084013591508082111561353857600080fd5b613544858386016130ef565b60a084015260c084013591508082111561355d57600080fd5b613569858386016130ef565b60c084015260e084013591508082111561358257600080fd5b61358e858386016130ef565b60e0840152610100915081840135818111156135a957600080fd5b6135b5868287016130ef565b8385015250505092915050565b600060a082840312156135d457600080fd5b60405160a0810181811067ffffffffffffffff821117156135f7576135f7612fed565b806040525080915082358152602083013560208201526040830135604082015260608301356060820152608083013560808201525092915050565b600060c0828403121561364457600080fd5b61364c613054565b9050813561365981612f5d565b8152602082013561366981612f5d565b6020820152604082013561367c81612f5d565b6040820152606082013561368f81612f5d565b606082015260808201356136a281612f5d565b608082015260a08201356136b581612f5d565b60a082015292915050565b600080604083850312156136d357600080fd5b82356136de81612f5d565b9150602083013567ffffffffffffffff808211156136fb57600080fd5b908401906040828703121561370f57600080fd5b613717613077565b82358281111561372657600080fd5b8301610400818903121561373957600080fd5b613741613054565b61374b89836132ac565b815261375a8960408401613306565b60208201526102608201358481111561377257600080fd5b61377e8a82850161344d565b6040830152506137928961028084016135c2565b60608201526137a5896103208401613632565b60808201526103e0919091013560a082015281526137c560208401612f72565b60208201528093505050509250929050565b6000602082840312156137e957600080fd5b813561133581612f5d565b6020808252818101527f4f776e61626c653a2063616c6c6572206973206e6f7420746865206f776e6572604082015260600190565b60208082526004908201527f21676f7600000000000000000000000000000000000000000000000000000000604082015260600190565b6020808252601f908201527f5265656e7472616e637947756172643a207265656e7472616e742063616c6c00604082015260600190565b60208082526010908201527f5061757361626c653a2070617573656400000000000000000000000000000000604082015260600190565b6000602082840312156138e057600080fd5b5051919050565b60e060020a634e487b7102600052601160045260246000fd5b600081600019048311821515161561391a5761391a6138e7565b500290565b60008261393f5760e060020a634e487b7102600052601260045260246000fd5b500490565b60008219821115613957576139576138e7565b500190565b60008282101561396e5761396e6138e7565b500390565b600081518084526020808501945080840160005b838110156139ac578151600160a060020a031687529582019590820190600101613987565b509495945050505050565b838152826020820152606060408201526139dd606082018351600160a060020a03169052565b600060208301516139f96080840182600160a060020a03169052565b506040830151600160a060020a03811660a0840152506060830151600160a060020a03811660c0840152506080830151600160a060020a03811660e08401525060a0830151610100613a5581850183600160a060020a03169052565b60c08501519150610120613a7381860184600160a060020a03169052565b60e08601519250610140613a9181870185600160a060020a03169052565b8287015193506101c092506101608381880152613ab2610220880186613973565b9450828801519250610180605f198887030181890152613ad28685613973565b95508289015193506101a09250613aee8389018561ffff169052565b8882015161ffff811689870152935088015161ffff81166101e08901529350613b149050565b8601518015156102008701529150613b299050565b5095945050505050565b600080600060608486031215613b4857600080fd5b8351925060208401519150604084015190509250925092565b60e060020a634e487b7102600052603260045260246000fd5b6020808252825182820181905260009190848201906040850190845b81811015613bbb578351600160a060020a031683529284019291840191600101613b96565b50909695505050505050565b60006020808385031215613bda57600080fd5b825167ffffffffffffffff811115613bf157600080fd5b8301601f81018513613c0257600080fd5b8051613c10613110826130cb565b81815290830282018301908381019087831115613c2c57600080fd5b928401925b82841015612e9c578351613c4481612f5d565b82529284019290840190613c31565b600060208284031215613c6557600080fd5b815161133581612fc2565b6020808252602b908201527f496e697469616c697a61626c653a20636f6e7472616374206973206e6f74206960408201527f6e697469616c697a696e67000000000000000000000000000000000000000000606082015260800190565b60005b83811015613ce8578181015183820152602001613cd0565b8381111561217c5750506000910152565b60008251613d0b818460208701613ccd565b9190910192915050565b6020815260008251806020840152613d34816040850160208701613ccd565b601f01601f1916919091016040019291505056fea26469706673582212204742d7164d989a73af9a678a94850b428526729d3b81ff0ce78b8f5e1663ecd064736f6c634300080a0033",
  "immutableReferences": {},
  "source": "// SPDX-License-Identifier: MIT\n\npragma solidity ^0.8.0;\n\nimport \"../interfaces/Zorro/Vaults/IVaultAlpaca.sol\";\n\nimport \"./actions/VaultActionsAlpaca.sol\";\n\nimport \"./_VaultBase.sol\";\n\n/// @title Vault contract for Alpaca strategies\ncontract VaultAlpaca is IVaultAlpaca, VaultBase {\n    /* Libraries */\n\n    using SafeERC20Upgradeable for IERC20Upgradeable;\n    using PriceFeed for AggregatorV3Interface;\n\n    /* Constructor */\n\n    /// @notice Upgradeable constructor\n    /// @param _timelockOwner The designated timelock controller address to act as owner\n    /// @param _initValue A VaultAlpacaInit struct containing all init values\n    function initialize(\n        address _timelockOwner,\n        VaultAlpacaInit memory _initValue\n    ) public initializer {\n        // Super call\n        _initialize(_timelockOwner, _initValue.baseInit);\n\n        // Addresses\n        lendingToken = _initValue.lendingToken;\n    }\n\n    /* State */\n\n    address public lendingToken; // Lending token exchanged for supplying underlying asset (e.g. vToken)\n\n    /* Setters */\n\n    function setLendingToken(address _lendingToken) external onlyOwner {\n        lendingToken = _lendingToken;\n    }\n\n    /* Investment Actions */\n\n    /// @notice Public function for farming Want token.\n    function farm() public virtual nonReentrant {\n        _farm();\n    }\n\n    /// @notice Internal function for farming Want token. Responsible for staking Want token in a MasterChef/MasterApe-like contract\n    function _farm() internal override {\n        // Get the Want token stored on this contract\n        uint256 _wantAmt = IERC20Upgradeable(wantAddress).balanceOf(\n            address(this)\n        );\n\n        // Increase allowance\n        IERC20Upgradeable(wantAddress).safeIncreaseAllowance(\n            poolAddress,\n            _wantAmt\n        );\n\n        // Deposit token to get Want token\n        IAlpacaVault(poolAddress).deposit(_wantAmt);\n\n        // Calculate resulting lending token balance\n        uint256 _lendingTokenBal = IERC20Upgradeable(lendingToken).balanceOf(\n            address(this)\n        );\n\n        // Allow the farm contract (e.g. MasterChef) the ability to transfer up to the Want amount\n        IERC20Upgradeable(lendingToken).safeIncreaseAllowance(\n            farmContractAddress,\n            _lendingTokenBal\n        );\n\n        // Deposit the Want tokens in the Farm contract\n        IFairLaunch(farmContractAddress).deposit(address(this), pid, _wantAmt);\n    }\n\n    /// @notice Internal function for unfarming Want token. Responsible for unstaking Want token from MasterChef/MasterApe contracts\n    /// @param _wantAmt the amount of Want tokens to withdraw. If 0, will only harvest and not withdraw\n    function _unfarm(uint256 _wantAmt) internal override {\n        // Withdraw tokens from the Farm contract\n        IFairLaunch(farmContractAddress).withdraw(address(this), pid, _wantAmt);\n\n        // Get balance\n        uint256 _lendingBal = IERC20Upgradeable(lendingToken).balanceOf(address(this));\n\n        // Approve\n        IERC20Upgradeable(lendingToken).safeIncreaseAllowance(\n            poolAddress,\n            _lendingBal\n        );\n\n        // Withdraw lending token to get Token0\n        IAlpacaVault(poolAddress).withdraw(_lendingBal);\n    }\n}\n\ncontract VaultAlpacaBNB is VaultAlpaca {}",
  "sourcePath": "/Users/kristophm/Documents/workspace/zorro-protocol/contracts/vaults/VaultAlpaca.sol",
  "compiler": {
    "name": "solc",
    "version": "0.8.10+commit.fc410830.Emscripten.clang"
  },
  "schemaVersion": "3.4.11",
  "updatedAt": "2023-02-26T16:04:16.929Z",
  "devdoc": {
    "kind": "dev",
    "methods": {
      "depositWantToken(uint256)": {
        "params": {
          "_wantAmt": "amount of underlying token to deposit/stake"
        },
        "returns": {
          "sharesAdded": "uint256 Number of shares added"
        }
      },
      "exchangeUSDForWantToken(uint256,uint256)": {
        "params": {
          "_amountUSD": "Amount of USD to exchange",
          "_maxMarketMovementAllowed": "Slippage (990 = 1%)"
        },
        "returns": {
          "wantObtained": "The amount of Want token returned"
        }
      },
      "exchangeWantTokenForUSD(uint256,uint256)": {
        "params": {
          "_amount": "Amount of want to exchange",
          "_maxMarketMovementAllowed": "Slippage (990 = 1%)"
        },
        "returns": {
          "usdObtained": "The amount of USD token returned"
        }
      },
      "inCaseTokensGetStuck(address,uint256,address)": {
        "params": {
          "_amount": "The amount of the tokens to transfer",
          "_to": "The address to transfer tokens to",
          "_token": "Address of the ERC20 token to transfer"
        }
      },
      "initialize(address,(((uint256,bool),(address,address,address,address,address,address,address,address,address,address,address,address,address,address,address,address,address),(address[],address[],address[],address[],address[],address[],address[],address[],address[]),(uint256,uint256,uint256,uint256,uint256),(address,address,address,address,address,address),uint256),address))": {
        "params": {
          "_initValue": "A VaultAlpacaInit struct containing all init values",
          "_timelockOwner": "The designated timelock controller address to act as owner"
        }
      },
      "owner()": {
        "details": "Returns the address of the current owner."
      },
      "paused()": {
        "details": "Returns true if the contract is paused, and false otherwise."
      },
      "renounceOwnership()": {
        "details": "Leaves the contract without owner. It will not be possible to call `onlyOwner` functions anymore. Can only be called by the current owner. NOTE: Renouncing ownership will leave the contract without an owner, thereby removing any functionality that is only available to the owner."
      },
      "setFeeSettings(uint256,uint256,uint256,uint256,uint256)": {
        "params": {
          "_buyBackRate": "Buy back rate fee numerator",
          "_controllerFee": "Controller fee numerator",
          "_entranceFeeFactor": "Entrance fee numerator (higher means smaller percentage)",
          "_revShareRate": "Rev share rate fee numerator",
          "_withdrawFeeFactor": "Withdrawal fee numerator (higher means smaller percentage)"
        }
      },
      "setGov(address)": {
        "params": {
          "_govAddress": "The new gov address"
        }
      },
      "setOnlyGov(bool)": {
        "params": {
          "_onlyGov": "whether onlyGov should be enforced"
        }
      },
      "transferOwnership(address)": {
        "details": "Transfers ownership of the contract to a new account (`newOwner`). Can only be called by the current owner."
      },
      "withdrawWantToken(uint256)": {
        "params": {
          "_shares": "The number of shares to withdraw"
        },
        "returns": {
          "wantRemoved": "The amount of Want tokens withdrawn"
        }
      }
    },
    "title": "Vault contract for Alpaca strategies",
    "version": 1
  },
  "userdoc": {
    "kind": "user",
    "methods": {
      "depositWantToken(uint256)": {
        "notice": "Receives new deposits from user"
      },
      "earn()": {
        "notice": "The main compounding (earn) function. Reinvests profits since the last earn event."
      },
      "exchangeUSDForWantToken(uint256,uint256)": {
        "notice": "Converts USD to Want token and delivers back to this contract"
      },
      "exchangeWantTokenForUSD(uint256,uint256)": {
        "notice": "Converts Want token to USD and delivers back to this contract"
      },
      "farm()": {
        "notice": "Public function for farming Want token."
      },
      "inCaseTokensGetStuck(address,uint256,address)": {
        "notice": "Safely transfer ERC20 tokens stuck in this contract to a specified address"
      },
      "initialize(address,(((uint256,bool),(address,address,address,address,address,address,address,address,address,address,address,address,address,address,address,address,address),(address[],address[],address[],address[],address[],address[],address[],address[],address[]),(uint256,uint256,uint256,uint256,uint256),(address,address,address,address,address,address),uint256),address))": {
        "notice": "Upgradeable constructor"
      },
      "pause()": {
        "notice": "Pause contract"
      },
      "setFeeSettings(uint256,uint256,uint256,uint256,uint256)": {
        "notice": "Configure key fee parameters"
      },
      "setGov(address)": {
        "notice": "Set governor address"
      },
      "setOnlyGov(bool)": {
        "notice": "Set onlyGov property"
      },
      "unpause()": {
        "notice": "Unpause contract"
      },
      "withdrawWantToken(uint256)": {
        "notice": "Fully withdraw Want tokens from the Farm contract (100% withdrawals only)"
      }
    },
    "version": 1
  }
}