{
  "contractName": "VaultZorro",
  "abi": [
    {
      "inputs": [
        {
          "internalType": "address[]",
          "name": "_addresses",
          "type": "address[]"
        },
        {
          "internalType": "uint256",
          "name": "_pid",
          "type": "uint256"
        },
        {
          "internalType": "bool",
          "name": "_isCOREStaking",
          "type": "bool"
        },
        {
          "internalType": "bool",
          "name": "_isSameAssetDeposit",
          "type": "bool"
        },
        {
          "internalType": "bool",
          "name": "_isZorroComp",
          "type": "bool"
        },
        {
          "internalType": "address[]",
          "name": "_earnedToZORROPath",
          "type": "address[]"
        },
        {
          "internalType": "address[]",
          "name": "_earnedToToken0Path",
          "type": "address[]"
        },
        {
          "internalType": "address[]",
          "name": "_earnedToToken1Path",
          "type": "address[]"
        },
        {
          "internalType": "address[]",
          "name": "_token0ToEarnedPath",
          "type": "address[]"
        },
        {
          "internalType": "address[]",
          "name": "_token1ToEarnedPath",
          "type": "address[]"
        },
        {
          "internalType": "uint256[]",
          "name": "_fees",
          "type": "uint256[]"
        }
      ],
      "stateMutability": "nonpayable",
      "type": "constructor"
    },
    {
      "anonymous": false,
      "inputs": [
        {
          "indexed": true,
          "internalType": "address",
          "name": "previousOwner",
          "type": "address"
        },
        {
          "indexed": true,
          "internalType": "address",
          "name": "newOwner",
          "type": "address"
        }
      ],
      "name": "OwnershipTransferred",
      "type": "event"
    },
    {
      "anonymous": false,
      "inputs": [
        {
          "indexed": false,
          "internalType": "address",
          "name": "account",
          "type": "address"
        }
      ],
      "name": "Paused",
      "type": "event"
    },
    {
      "anonymous": false,
      "inputs": [
        {
          "indexed": false,
          "internalType": "address",
          "name": "_buyBackAddress",
          "type": "address"
        }
      ],
      "name": "SetBurnAddress",
      "type": "event"
    },
    {
      "anonymous": false,
      "inputs": [
        {
          "indexed": false,
          "internalType": "address",
          "name": "_govAddress",
          "type": "address"
        }
      ],
      "name": "SetGov",
      "type": "event"
    },
    {
      "anonymous": false,
      "inputs": [
        {
          "indexed": false,
          "internalType": "bool",
          "name": "_onlyGov",
          "type": "bool"
        }
      ],
      "name": "SetOnlyGov",
      "type": "event"
    },
    {
      "anonymous": false,
      "inputs": [
        {
          "indexed": false,
          "internalType": "address",
          "name": "_rewardsAddress",
          "type": "address"
        }
      ],
      "name": "SetRewardsAddress",
      "type": "event"
    },
    {
      "anonymous": false,
      "inputs": [
        {
          "indexed": false,
          "internalType": "uint256",
          "name": "_entranceFeeFactor",
          "type": "uint256"
        },
        {
          "indexed": false,
          "internalType": "uint256",
          "name": "_withdrawFeeFactor",
          "type": "uint256"
        },
        {
          "indexed": false,
          "internalType": "uint256",
          "name": "_controllerFee",
          "type": "uint256"
        },
        {
          "indexed": false,
          "internalType": "uint256",
          "name": "_buyBackRate",
          "type": "uint256"
        },
        {
          "indexed": false,
          "internalType": "uint256",
          "name": "_slippageFactor",
          "type": "uint256"
        }
      ],
      "name": "SetSettings",
      "type": "event"
    },
    {
      "anonymous": false,
      "inputs": [
        {
          "indexed": false,
          "internalType": "address",
          "name": "_uniRouterAddress",
          "type": "address"
        }
      ],
      "name": "SetUniRouterAddress",
      "type": "event"
    },
    {
      "anonymous": false,
      "inputs": [
        {
          "indexed": false,
          "internalType": "address",
          "name": "account",
          "type": "address"
        }
      ],
      "name": "Unpaused",
      "type": "event"
    },
    {
      "inputs": [
        {
          "internalType": "uint256",
          "name": "",
          "type": "uint256"
        }
      ],
      "name": "USDCToToken0Path",
      "outputs": [
        {
          "internalType": "address",
          "name": "",
          "type": "address"
        }
      ],
      "stateMutability": "view",
      "type": "function"
    },
    {
      "inputs": [
        {
          "internalType": "uint256",
          "name": "",
          "type": "uint256"
        }
      ],
      "name": "USDCToToken1Path",
      "outputs": [
        {
          "internalType": "address",
          "name": "",
          "type": "address"
        }
      ],
      "stateMutability": "view",
      "type": "function"
    },
    {
      "inputs": [],
      "name": "ZORROAddress",
      "outputs": [
        {
          "internalType": "address",
          "name": "",
          "type": "address"
        }
      ],
      "stateMutability": "view",
      "type": "function"
    },
    {
      "inputs": [],
      "name": "burnAddress",
      "outputs": [
        {
          "internalType": "address",
          "name": "",
          "type": "address"
        }
      ],
      "stateMutability": "view",
      "type": "function"
    },
    {
      "inputs": [],
      "name": "buyBackRate",
      "outputs": [
        {
          "internalType": "uint256",
          "name": "",
          "type": "uint256"
        }
      ],
      "stateMutability": "view",
      "type": "function"
    },
    {
      "inputs": [],
      "name": "buyBackRateMax",
      "outputs": [
        {
          "internalType": "uint256",
          "name": "",
          "type": "uint256"
        }
      ],
      "stateMutability": "view",
      "type": "function"
    },
    {
      "inputs": [],
      "name": "buyBackRateUL",
      "outputs": [
        {
          "internalType": "uint256",
          "name": "",
          "type": "uint256"
        }
      ],
      "stateMutability": "view",
      "type": "function"
    },
    {
      "inputs": [],
      "name": "controllerFee",
      "outputs": [
        {
          "internalType": "uint256",
          "name": "",
          "type": "uint256"
        }
      ],
      "stateMutability": "view",
      "type": "function"
    },
    {
      "inputs": [],
      "name": "controllerFeeMax",
      "outputs": [
        {
          "internalType": "uint256",
          "name": "",
          "type": "uint256"
        }
      ],
      "stateMutability": "view",
      "type": "function"
    },
    {
      "inputs": [],
      "name": "controllerFeeUL",
      "outputs": [
        {
          "internalType": "uint256",
          "name": "",
          "type": "uint256"
        }
      ],
      "stateMutability": "view",
      "type": "function"
    },
    {
      "inputs": [],
      "name": "convertDustToEarned",
      "outputs": [],
      "stateMutability": "nonpayable",
      "type": "function"
    },
    {
      "inputs": [],
      "name": "earnedAddress",
      "outputs": [
        {
          "internalType": "address",
          "name": "",
          "type": "address"
        }
      ],
      "stateMutability": "view",
      "type": "function"
    },
    {
      "inputs": [
        {
          "internalType": "uint256",
          "name": "",
          "type": "uint256"
        }
      ],
      "name": "earnedToToken0Path",
      "outputs": [
        {
          "internalType": "address",
          "name": "",
          "type": "address"
        }
      ],
      "stateMutability": "view",
      "type": "function"
    },
    {
      "inputs": [
        {
          "internalType": "uint256",
          "name": "",
          "type": "uint256"
        }
      ],
      "name": "earnedToToken1Path",
      "outputs": [
        {
          "internalType": "address",
          "name": "",
          "type": "address"
        }
      ],
      "stateMutability": "view",
      "type": "function"
    },
    {
      "inputs": [
        {
          "internalType": "uint256",
          "name": "",
          "type": "uint256"
        }
      ],
      "name": "earnedToZORLPPoolToken0Path",
      "outputs": [
        {
          "internalType": "address",
          "name": "",
          "type": "address"
        }
      ],
      "stateMutability": "view",
      "type": "function"
    },
    {
      "inputs": [
        {
          "internalType": "uint256",
          "name": "",
          "type": "uint256"
        }
      ],
      "name": "earnedToZORLPPoolToken1Path",
      "outputs": [
        {
          "internalType": "address",
          "name": "",
          "type": "address"
        }
      ],
      "stateMutability": "view",
      "type": "function"
    },
    {
      "inputs": [
        {
          "internalType": "uint256",
          "name": "",
          "type": "uint256"
        }
      ],
      "name": "earnedToZORROPath",
      "outputs": [
        {
          "internalType": "address",
          "name": "",
          "type": "address"
        }
      ],
      "stateMutability": "view",
      "type": "function"
    },
    {
      "inputs": [],
      "name": "entranceFeeFactor",
      "outputs": [
        {
          "internalType": "uint256",
          "name": "",
          "type": "uint256"
        }
      ],
      "stateMutability": "view",
      "type": "function"
    },
    {
      "inputs": [],
      "name": "entranceFeeFactorLL",
      "outputs": [
        {
          "internalType": "uint256",
          "name": "",
          "type": "uint256"
        }
      ],
      "stateMutability": "view",
      "type": "function"
    },
    {
      "inputs": [],
      "name": "entranceFeeFactorMax",
      "outputs": [
        {
          "internalType": "uint256",
          "name": "",
          "type": "uint256"
        }
      ],
      "stateMutability": "view",
      "type": "function"
    },
    {
      "inputs": [],
      "name": "farmContractAddress",
      "outputs": [
        {
          "internalType": "address",
          "name": "",
          "type": "address"
        }
      ],
      "stateMutability": "view",
      "type": "function"
    },
    {
      "inputs": [],
      "name": "govAddress",
      "outputs": [
        {
          "internalType": "address",
          "name": "",
          "type": "address"
        }
      ],
      "stateMutability": "view",
      "type": "function"
    },
    {
      "inputs": [
        {
          "internalType": "address",
          "name": "_token",
          "type": "address"
        },
        {
          "internalType": "uint256",
          "name": "_amount",
          "type": "uint256"
        },
        {
          "internalType": "address",
          "name": "_to",
          "type": "address"
        }
      ],
      "name": "inCaseTokensGetStuck",
      "outputs": [],
      "stateMutability": "nonpayable",
      "type": "function"
    },
    {
      "inputs": [],
      "name": "isCOREStaking",
      "outputs": [
        {
          "internalType": "bool",
          "name": "",
          "type": "bool"
        }
      ],
      "stateMutability": "view",
      "type": "function"
    },
    {
      "inputs": [],
      "name": "isSameAssetDeposit",
      "outputs": [
        {
          "internalType": "bool",
          "name": "",
          "type": "bool"
        }
      ],
      "stateMutability": "view",
      "type": "function"
    },
    {
      "inputs": [],
      "name": "isZorroComp",
      "outputs": [
        {
          "internalType": "bool",
          "name": "",
          "type": "bool"
        }
      ],
      "stateMutability": "view",
      "type": "function"
    },
    {
      "inputs": [],
      "name": "lastEarnBlock",
      "outputs": [
        {
          "internalType": "uint256",
          "name": "",
          "type": "uint256"
        }
      ],
      "stateMutability": "view",
      "type": "function"
    },
    {
      "inputs": [
        {
          "internalType": "uint256",
          "name": "",
          "type": "uint256"
        }
      ],
      "name": "lockedXChainEarningsUSDC",
      "outputs": [
        {
          "internalType": "uint256",
          "name": "",
          "type": "uint256"
        }
      ],
      "stateMutability": "view",
      "type": "function"
    },
    {
      "inputs": [],
      "name": "onlyGov",
      "outputs": [
        {
          "internalType": "bool",
          "name": "",
          "type": "bool"
        }
      ],
      "stateMutability": "view",
      "type": "function"
    },
    {
      "inputs": [],
      "name": "owner",
      "outputs": [
        {
          "internalType": "address",
          "name": "",
          "type": "address"
        }
      ],
      "stateMutability": "view",
      "type": "function"
    },
    {
      "inputs": [],
      "name": "pause",
      "outputs": [],
      "stateMutability": "nonpayable",
      "type": "function"
    },
    {
      "inputs": [],
      "name": "paused",
      "outputs": [
        {
          "internalType": "bool",
          "name": "",
          "type": "bool"
        }
      ],
      "stateMutability": "view",
      "type": "function"
    },
    {
      "inputs": [],
      "name": "pid",
      "outputs": [
        {
          "internalType": "uint256",
          "name": "",
          "type": "uint256"
        }
      ],
      "stateMutability": "view",
      "type": "function"
    },
    {
      "inputs": [],
      "name": "renounceOwnership",
      "outputs": [],
      "stateMutability": "nonpayable",
      "type": "function"
    },
    {
      "inputs": [],
      "name": "revShareRate",
      "outputs": [
        {
          "internalType": "uint256",
          "name": "",
          "type": "uint256"
        }
      ],
      "stateMutability": "view",
      "type": "function"
    },
    {
      "inputs": [],
      "name": "revShareRateMax",
      "outputs": [
        {
          "internalType": "uint256",
          "name": "",
          "type": "uint256"
        }
      ],
      "stateMutability": "view",
      "type": "function"
    },
    {
      "inputs": [],
      "name": "revShareRateUL",
      "outputs": [
        {
          "internalType": "uint256",
          "name": "",
          "type": "uint256"
        }
      ],
      "stateMutability": "view",
      "type": "function"
    },
    {
      "inputs": [],
      "name": "rewardsAddress",
      "outputs": [
        {
          "internalType": "address",
          "name": "",
          "type": "address"
        }
      ],
      "stateMutability": "view",
      "type": "function"
    },
    {
      "inputs": [
        {
          "internalType": "address",
          "name": "_burnAddress",
          "type": "address"
        }
      ],
      "name": "setBurnAddress",
      "outputs": [],
      "stateMutability": "nonpayable",
      "type": "function"
    },
    {
      "inputs": [
        {
          "internalType": "address",
          "name": "_govAddress",
          "type": "address"
        }
      ],
      "name": "setGov",
      "outputs": [],
      "stateMutability": "nonpayable",
      "type": "function"
    },
    {
      "inputs": [
        {
          "internalType": "bool",
          "name": "_onlyGov",
          "type": "bool"
        }
      ],
      "name": "setOnlyGov",
      "outputs": [],
      "stateMutability": "nonpayable",
      "type": "function"
    },
    {
      "inputs": [
        {
          "internalType": "address",
          "name": "_rewardsAddress",
          "type": "address"
        }
      ],
      "name": "setRewardsAddress",
      "outputs": [],
      "stateMutability": "nonpayable",
      "type": "function"
    },
    {
      "inputs": [
        {
          "internalType": "uint256",
          "name": "_entranceFeeFactor",
          "type": "uint256"
        },
        {
          "internalType": "uint256",
          "name": "_withdrawFeeFactor",
          "type": "uint256"
        },
        {
          "internalType": "uint256",
          "name": "_controllerFee",
          "type": "uint256"
        },
        {
          "internalType": "uint256",
          "name": "_buyBackRate",
          "type": "uint256"
        },
        {
          "internalType": "uint256",
          "name": "_slippageFactor",
          "type": "uint256"
        }
      ],
      "name": "setSettings",
      "outputs": [],
      "stateMutability": "nonpayable",
      "type": "function"
    },
    {
      "inputs": [
        {
          "internalType": "address",
          "name": "_uniRouterAddress",
          "type": "address"
        }
      ],
      "name": "setUniRouterAddress",
      "outputs": [],
      "stateMutability": "nonpayable",
      "type": "function"
    },
    {
      "inputs": [],
      "name": "sharesTotal",
      "outputs": [
        {
          "internalType": "uint256",
          "name": "",
          "type": "uint256"
        }
      ],
      "stateMutability": "view",
      "type": "function"
    },
    {
      "inputs": [],
      "name": "slippageFactor",
      "outputs": [
        {
          "internalType": "uint256",
          "name": "",
          "type": "uint256"
        }
      ],
      "stateMutability": "view",
      "type": "function"
    },
    {
      "inputs": [],
      "name": "slippageFactorUL",
      "outputs": [
        {
          "internalType": "uint256",
          "name": "",
          "type": "uint256"
        }
      ],
      "stateMutability": "view",
      "type": "function"
    },
    {
      "inputs": [],
      "name": "token0Address",
      "outputs": [
        {
          "internalType": "address",
          "name": "",
          "type": "address"
        }
      ],
      "stateMutability": "view",
      "type": "function"
    },
    {
      "inputs": [
        {
          "internalType": "uint256",
          "name": "",
          "type": "uint256"
        }
      ],
      "name": "token0ToEarnedPath",
      "outputs": [
        {
          "internalType": "address",
          "name": "",
          "type": "address"
        }
      ],
      "stateMutability": "view",
      "type": "function"
    },
    {
      "inputs": [],
      "name": "token1Address",
      "outputs": [
        {
          "internalType": "address",
          "name": "",
          "type": "address"
        }
      ],
      "stateMutability": "view",
      "type": "function"
    },
    {
      "inputs": [
        {
          "internalType": "uint256",
          "name": "",
          "type": "uint256"
        }
      ],
      "name": "token1ToEarnedPath",
      "outputs": [
        {
          "internalType": "address",
          "name": "",
          "type": "address"
        }
      ],
      "stateMutability": "view",
      "type": "function"
    },
    {
      "inputs": [],
      "name": "token2Address",
      "outputs": [
        {
          "internalType": "address",
          "name": "",
          "type": "address"
        }
      ],
      "stateMutability": "view",
      "type": "function"
    },
    {
      "inputs": [],
      "name": "token3Address",
      "outputs": [
        {
          "internalType": "address",
          "name": "",
          "type": "address"
        }
      ],
      "stateMutability": "view",
      "type": "function"
    },
    {
      "inputs": [],
      "name": "tokenUSDCAddress",
      "outputs": [
        {
          "internalType": "address",
          "name": "",
          "type": "address"
        }
      ],
      "stateMutability": "view",
      "type": "function"
    },
    {
      "inputs": [
        {
          "internalType": "address",
          "name": "newOwner",
          "type": "address"
        }
      ],
      "name": "transferOwnership",
      "outputs": [],
      "stateMutability": "nonpayable",
      "type": "function"
    },
    {
      "inputs": [],
      "name": "uniPoolAddress",
      "outputs": [
        {
          "internalType": "address",
          "name": "",
          "type": "address"
        }
      ],
      "stateMutability": "view",
      "type": "function"
    },
    {
      "inputs": [],
      "name": "uniRouterAddress",
      "outputs": [
        {
          "internalType": "address",
          "name": "",
          "type": "address"
        }
      ],
      "stateMutability": "view",
      "type": "function"
    },
    {
      "inputs": [],
      "name": "unpause",
      "outputs": [],
      "stateMutability": "nonpayable",
      "type": "function"
    },
    {
      "inputs": [
        {
          "internalType": "address",
          "name": "",
          "type": "address"
        }
      ],
      "name": "userShares",
      "outputs": [
        {
          "internalType": "uint256",
          "name": "",
          "type": "uint256"
        }
      ],
      "stateMutability": "view",
      "type": "function"
    },
    {
      "inputs": [],
      "name": "wantAddress",
      "outputs": [
        {
          "internalType": "address",
          "name": "",
          "type": "address"
        }
      ],
      "stateMutability": "view",
      "type": "function"
    },
    {
      "inputs": [],
      "name": "wantLockedTotal",
      "outputs": [
        {
          "internalType": "uint256",
          "name": "",
          "type": "uint256"
        }
      ],
      "stateMutability": "view",
      "type": "function"
    },
    {
      "inputs": [],
      "name": "withdrawFeeFactor",
      "outputs": [
        {
          "internalType": "uint256",
          "name": "",
          "type": "uint256"
        }
      ],
      "stateMutability": "view",
      "type": "function"
    },
    {
      "inputs": [],
      "name": "withdrawFeeFactorLL",
      "outputs": [
        {
          "internalType": "uint256",
          "name": "",
          "type": "uint256"
        }
      ],
      "stateMutability": "view",
      "type": "function"
    },
    {
      "inputs": [],
      "name": "withdrawFeeFactorMax",
      "outputs": [
        {
          "internalType": "uint256",
          "name": "",
          "type": "uint256"
        }
      ],
      "stateMutability": "view",
      "type": "function"
    },
    {
      "inputs": [],
      "name": "xChainEarningsLockEndBlock",
      "outputs": [
        {
          "internalType": "uint256",
          "name": "",
          "type": "uint256"
        }
      ],
      "stateMutability": "view",
      "type": "function"
    },
    {
      "inputs": [],
      "name": "xChainEarningsLockStartBlock",
      "outputs": [
        {
          "internalType": "uint256",
          "name": "",
          "type": "uint256"
        }
      ],
      "stateMutability": "view",
      "type": "function"
    },
    {
      "inputs": [],
      "name": "zorroControllerAddress",
      "outputs": [
        {
          "internalType": "address",
          "name": "",
          "type": "address"
        }
      ],
      "stateMutability": "view",
      "type": "function"
    },
    {
      "inputs": [
        {
          "internalType": "address",
          "name": "_account",
          "type": "address"
        },
        {
          "internalType": "uint256",
          "name": "_wantAmt",
          "type": "uint256"
        }
      ],
      "name": "depositWantToken",
      "outputs": [
        {
          "internalType": "uint256",
          "name": "",
          "type": "uint256"
        }
      ],
      "stateMutability": "nonpayable",
      "type": "function"
    },
    {
      "inputs": [
        {
          "internalType": "uint256",
          "name": "_amount",
          "type": "uint256"
        },
        {
          "internalType": "uint256",
          "name": "_maxMarketMovementAllowed",
          "type": "uint256"
        }
      ],
      "name": "exchangeUSDForWantToken",
      "outputs": [
        {
          "internalType": "uint256",
          "name": "",
          "type": "uint256"
        }
      ],
      "stateMutability": "nonpayable",
      "type": "function"
    },
    {
      "inputs": [],
      "name": "farm",
      "outputs": [],
      "stateMutability": "nonpayable",
      "type": "function"
    },
    {
      "inputs": [
        {
          "internalType": "address",
          "name": "_account",
          "type": "address"
        },
        {
          "internalType": "bool",
          "name": "_harvestOnly",
          "type": "bool"
        }
      ],
      "name": "withdrawWantToken",
      "outputs": [
        {
          "internalType": "uint256",
          "name": "",
          "type": "uint256"
        }
      ],
      "stateMutability": "nonpayable",
      "type": "function"
    },
    {
      "inputs": [
        {
          "internalType": "uint256",
          "name": "_amount",
          "type": "uint256"
        },
        {
          "internalType": "uint256",
          "name": "_maxMarketMovementAllowed",
          "type": "uint256"
        }
      ],
      "name": "exchangeWantTokenForUSD",
      "outputs": [
        {
          "internalType": "uint256",
          "name": "",
          "type": "uint256"
        }
      ],
      "stateMutability": "nonpayable",
      "type": "function"
    },
    {
      "inputs": [
        {
          "internalType": "uint256",
          "name": "_maxMarketMovementAllowed",
          "type": "uint256"
        }
      ],
      "name": "earn",
      "outputs": [],
      "stateMutability": "nonpayable",
      "type": "function"
    }
  ],
  "bytecode": "0x6080604052600c8054600160a060020a03191661dead1790556012805460a060020a60ff02191674010000000000000000000000000000000000000000179055600060138190556014819055601581905560178190556018819055601955612706601a55612710601b556103b6601c553480156200007c57600080fd5b50604051620033d7380380620033d78339810160408190526200009f91620008dc565b620000c5620000b664010000000062000520810204565b64010000000062000524810204565b600180556002805460ff191690558a518b90600090620000e957620000e962000a73565b6020026020010151601260006101000a815481600160a060020a030219169083600160a060020a031602179055508a6001815181106200012d576200012d62000a73565b6020026020010151601060006101000a815481600160a060020a030219169083600160a060020a031602179055508a60028151811062000171576200017162000a73565b6020026020010151601160006101000a815481600160a060020a030219169083600160a060020a031602179055508a600381518110620001b557620001b562000a73565b6020026020010151600560006101000a815481600160a060020a030219169083600160a060020a031602179055508a600481518110620001f957620001f962000a73565b6020026020010151600660006101000a815481600160a060020a030219169083600160a060020a031602179055508a6005815181106200023d576200023d62000a73565b6020026020010151600760006101000a815481600160a060020a030219169083600160a060020a031602179055508a60068151811062000281576200028162000a73565b6020026020010151600a60006101000a815481600160a060020a030219169083600160a060020a031602179055508a600781518110620002c557620002c562000a73565b602090810291909101015160048054600160a060020a031916600160a060020a0390921691909117905560038a90556002805462ffff0019166101008b15150262ff0000191617620100008a1515021763ff00000019166301000000891515021790558a518b90600890811062000340576200034062000a73565b602090810291909101810151600e8054600160a060020a031916600160a060020a0390921691909117905586516200037f91601d9190890190620006d7565b5084516200039590601e906020880190620006d7565b508351620003ab90601f906020870190620006d7565b508251620003c09060209081860190620006d7565b508151620003d6906021906020850190620006d7565b5080600081518110620003ed57620003ed62000a73565b60200260200101516017819055508a60098151811062000411576200041162000a73565b6020026020010151600d60006101000a815481600160a060020a030219169083600160a060020a031602179055508060018151811062000455576200045562000a73565b60200260200101516018819055508a600a8151811062000479576200047962000a73565b6020026020010151600c60006101000a815481600160a060020a030219169083600160a060020a0316021790555080600281518110620004bd57620004bd62000a73565b6020026020010151601a8190555080600381518110620004e157620004e162000a73565b6020908102919091010151601b556010546200050f90600160a060020a031664010000000062000574810204565b505050505050505050505062000aa2565b3390565b60008054600160a060020a03838116600160a060020a0319831681178455604051919092169283917f8be0079c531659141344cd1fd0a4f28419497f9722a3daafe3b4186f6b6457e09190a35050565b6200058764010000000062000520810204565b600160a060020a0316620005a3640100000000620006c8810204565b600160a060020a03161462000619576040517f08c379a000000000000000000000000000000000000000000000000000000000815260206004820181905260248201527f4f776e61626c653a2063616c6c6572206973206e6f7420746865206f776e657260448201526064015b60405180910390fd5b600160a060020a038116620006b1576040517f08c379a000000000000000000000000000000000000000000000000000000000815260206004820152602660248201527f4f776e61626c653a206e6577206f776e657220697320746865207a65726f206160448201527f6464726573730000000000000000000000000000000000000000000000000000606482015260840162000610565b620006c58164010000000062000524810204565b50565b600054600160a060020a031690565b8280548282559060005260206000209081019282156200072f579160200282015b828111156200072f5782518254600160a060020a031916600160a060020a03909116178255602090920191600190910190620006f8565b506200073d92915062000741565b5090565b5b808211156200073d576000815560010162000742565b7f4e487b7100000000000000000000000000000000000000000000000000000000600052604160045260246000fd5b604051601f8201601f191681016001604060020a0381118282101715620007b257620007b262000758565b604052919050565b60006001604060020a03821115620007d657620007d662000758565b5060209081020190565b600082601f830112620007f257600080fd5b815160206200080b6200080583620007ba565b62000787565b828152918102840181019181810190868411156200082857600080fd5b8286015b848110156200085c578051600160a060020a03811681146200084e5760008081fd5b83529183019183016200082c565b509695505050505050565b805180151581146200087857600080fd5b919050565b600082601f8301126200088f57600080fd5b81516020620008a26200080583620007ba565b82815291810284018101918181019086841115620008bf57600080fd5b8286015b848110156200085c5780518352918301918301620008c3565b60008060008060008060008060008060006101608c8e031215620008ff57600080fd5b8b516001604060020a038111156200091657600080fd5b620009248e828f01620007e0565b9b505060208c015199506200093c60408d0162000867565b98506200094c60608d0162000867565b97506200095c60808d0162000867565b965060a08c01516001604060020a038111156200097857600080fd5b620009868e828f01620007e0565b96505060c08c01516001604060020a03811115620009a357600080fd5b620009b18e828f01620007e0565b95505060e08c01516001604060020a03811115620009ce57600080fd5b620009dc8e828f01620007e0565b9450506101008c01516001604060020a03811115620009fa57600080fd5b62000a088e828f01620007e0565b9350506101208c01516001604060020a0381111562000a2657600080fd5b62000a348e828f01620007e0565b9250506101408c01516001604060020a0381111562000a5257600080fd5b62000a608e828f016200087d565b9150509295989b509295989b9093969950565b7f4e487b7100000000000000000000000000000000000000000000000000000000600052603260045260246000fd5b6129258062000ab26000396000f3fe608060405234801561001057600080fd5b50600436106104365760003560e060020a900480638456cb591161023a578063c11c2e921161013f578063e5eb715c116100c7578063efa028081161008b578063efa0280814610868578063f10684541461087a578063f2fde38b14610883578063f5046a2914610896578063ffbd3b1f146108a957600080fd5b8063e5eb715c1461081c578063e65a01171461082f578063e719847414610842578063e7a0367914610855578063ee50dc341461053657600080fd5b8063c8e3d18b1161010e578063c8e3d18b146107b0578063cfad57a2146107c3578063d7cb416f146107d6578063de69b3aa146107e9578063e502a88d1461080957600080fd5b8063c11c2e9214610782578063c302a4d014610697578063c4dcb5901461078a578063c5c97cbf1461079d57600080fd5b80639b6017e5116101c2578063b74cd24211610191578063b74cd2421461072d578063b77050e714610736578063b86c5f5314610749578063ba0bb4ab1461075c578063c0973eed1461076f57600080fd5b80639b6017e5146106fe5780639fc33a9f14610707578063b1414dbb1461071a578063b3545c011461051a57600080fd5b80638906758d116102095780638906758d146106a05780638b9102dc146106b35780638da5cb5b146106c757806396e9aff8146106d85780639a246643146106eb57600080fd5b80638456cb591461067357806384fa32ac1461067b57806385f02dd61461068e578063866b20181461069757600080fd5b806346008a0711610340578063648794a4116102c8578063693a090b11610297578063693a090b1461061f57806370d5ae0514610632578063715018a6146106455780637ff36fbe1461064d57806381e62ea31461066057600080fd5b8063648794a4146105f057806367057b6c1461053657806367206d401461060357806368f541621461061657600080fd5b80634ce54ddb1161030f5780634ce54ddb146105ac5780634d9f7bb2146105365780635c975abb146105bf5780635da79d63146105ca5780636392ab12146105dd57600080fd5b806346008a071461056a578063495af8ce1461057d5780634b0e7216146105905780634c8fc2d6146105a357600080fd5b8063211019d7116103c357806336e9332d1161039257806336e9332d146105485780633f4ba83a1461055057806342da4eb31461055857806343788cd21461053657806344a3955e1461056157600080fd5b8063211019d71461051a5780632456af82146105235780632717eff3146105365780633214471f1461053f57600080fd5b80630daef3211161040a5780630daef321146104b75780630fa4e01e146104ec57806312462c5e146104f55780631334903f14610508578063178a8d071461051157600080fd5b80627a2ae31461043b578063061c7d481461046b5780630873cb91146104825780630b6bb30b146104a2575b600080fd5b61044e610449366004612488565b6108b2565b604051600160a060020a0390911681526020015b60405180910390f35b61047461012c81565b604051908152602001610462565b610474610490366004612488565b60286020526000908152604090205481565b6104b56104b03660046124af565b6108dc565b005b6012546104dc9074010000000000000000000000000000000000000000900460ff1681565b6040519015158152602001610462565b61047460135481565b60095461044e90600160a060020a031681565b610474601a5481565b61047460185481565b61047461032081565b60085461044e90600160a060020a031681565b61047461271081565b61047460195481565b6104b561098c565b6104b56109b8565b61047460145481565b61047460155481565b60125461044e90600160a060020a031681565b61047461058b3660046124e8565b6109ef565b6104b561059e36600461251f565b610c4f565b61047460275481565b600b5461044e90600160a060020a031681565b60025460ff166104dc565b6104b56105d836600461251f565b610cd7565b61044e6105eb366004612488565b610d5f565b6104746105fe36600461253a565b610d6f565b6104b561061136600461255c565b610daf565b610474601b5481565b600e5461044e90600160a060020a031681565b600c5461044e90600160a060020a031681565b6104b5610eb7565b60065461044e90600160a060020a031681565b61044e61066e366004612488565b610eee565b6104b5610efe565b6104b5610689366004612598565b610f33565b61047460175481565b6104746126ac81565b6104b56106ae36600461251f565b611222565b6002546104dc906301000000900460ff1681565b600054600160a060020a031661044e565b61044e6106e6366004612488565b6112aa565b6002546104dc9062010000900460ff1681565b61047460265481565b60045461044e90600160a060020a031681565b60105461044e90600160a060020a031681565b6104746103e381565b61044e610744366004612488565b6112ba565b61044e610757366004612488565b6112ca565b61047461076a3660046125d3565b6112da565b600d5461044e90600160a060020a031681565b6104b561158c565b600f5461044e90600160a060020a031681565b61044e6107ab366004612488565b611901565b61044e6107be366004612488565b611911565b6104b56107d136600461251f565b611921565b60075461044e90600160a060020a031681565b6104746107f736600461251f565b60166020526000908152604090205481565b61047461081736600461253a565b6119a9565b61044e61082a366004612488565b611a08565b6104b561083d366004612488565b611a18565b600a5461044e90600160a060020a031681565b60055461044e90600160a060020a031681565b6002546104dc90610100900460ff1681565b61047460035481565b6104b561089136600461251f565b611cd4565b60115461044e90600160a060020a031681565b610474601c5481565b602181815481106108c257600080fd5b600091825260209091200154600160a060020a0316905081565b601254600160a060020a031633146109125760405160e560020a62461bcd028152600401610909906125fd565b60405180910390fd5b60128054821515740100000000000000000000000000000000000000000274ff0000000000000000000000000000000000000000199091161790556040517f125177ac7b8930dac1e59c2b30b1b6b9191b30af40cf6bbb5d20fec4d44be60f9061098190831515815260200190565b60405180910390a150565b600260015414156109b25760405160e560020a62461bcd02815260040161090990612634565b60018055565b601254600160a060020a031633146109e55760405160e560020a62461bcd028152600401610909906125fd565b6109ed611d8c565b565b601054600090600160a060020a031633600160a060020a031614610a285760405160e560020a62461bcd0281526004016109099061266b565b600054600160a060020a03163314610a555760405160e560020a62461bcd028152600401610909906126a2565b60026001541415610a7b5760405160e560020a62461bcd02815260040161090990612634565b6002600155600160a060020a0383811660009081526016602052604080822054601554600554925160e060020a6370a082310281523060048201529194610b1c939192610b1692879216906370a0823190602401602060405180830381865afa158015610aec573d6000803e3d6000fd5b505050506040513d601f19601f82011682018060405250810190610b1091906126d7565b90611e2b565b90611e3e565b90506000610b3b601454610b1660155485611e2b90919063ffffffff16565b9050601554811115610b4c57506015545b601554610b599082611e4a565b601555601b546127101115610b8657610b83612710610b16601b5485611e2b90919063ffffffff16565b91505b60055460405160e060020a6370a08231028152306004820152600091600160a060020a0316906370a0823190602401602060405180830381865afa158015610bd2573d6000803e3d6000fd5b505050506040513d601f19601f82011682018060405250810190610bf691906126d7565b905080831115610c04578092505b826014541015610c145760145492505b601454610c219084611e4a565b601455601054600554610c4191600160a060020a03918216911685611e56565b506001805595945050505050565b601254600160a060020a03163314610c7c5760405160e560020a62461bcd028152600401610909906125fd565b600c805473ffffffffffffffffffffffffffffffffffffffff1916600160a060020a0383169081179091556040519081527f3ecbf062376d993d334e6f24b395e87d817f07f4d122b5ab84cef6367ad60cf390602001610981565b601254600160a060020a03163314610d045760405160e560020a62461bcd028152600401610909906125fd565b600e805473ffffffffffffffffffffffffffffffffffffffff1916600160a060020a0383169081179091556040519081527f384f1dcb79da4071839c471d7c81884a43fb946a527f3661fdee5904adc8f65790602001610981565b601d81815481106108c257600080fd5b601054600090600160a060020a031633600160a060020a031614610da85760405160e560020a62461bcd0281526004016109099061266b565b5090919050565b601254600160a060020a03163314610ddc5760405160e560020a62461bcd028152600401610909906125fd565b600a54600160a060020a0384811691161415610e3d5760405160e560020a62461bcd02815260206004820152600560248201527f21736166650000000000000000000000000000000000000000000000000000006044820152606401610909565b600554600160a060020a0384811691161415610e9e5760405160e560020a62461bcd02815260206004820152600560248201527f21736166650000000000000000000000000000000000000000000000000000006044820152606401610909565b610eb2600160a060020a0384168284611e56565b505050565b600054600160a060020a03163314610ee45760405160e560020a62461bcd028152600401610909906126a2565b6109ed6000611eff565b602381815481106108c257600080fd5b601254600160a060020a03163314610f2b5760405160e560020a62461bcd028152600401610909906125fd565b6109ed611f5c565b601254600160a060020a03163314610f605760405160e560020a62461bcd028152600401610909906125fd565b6126ac851015610fb55760405160e560020a62461bcd02815260206004820152601a60248201527f5f656e7472616e6365466565466163746f7220746f6f206c6f770000000000006044820152606401610909565b61271085111561100a5760405160e560020a62461bcd02815260206004820152601b60248201527f5f656e7472616e6365466565466163746f7220746f6f206869676800000000006044820152606401610909565b601a8590556126ac8410156110645760405160e560020a62461bcd02815260206004820152601a60248201527f5f7769746864726177466565466163746f7220746f6f206c6f770000000000006044820152606401610909565b6127108411156110b95760405160e560020a62461bcd02815260206004820152601b60248201527f5f7769746864726177466565466163746f7220746f6f206869676800000000006044820152606401610909565b601b84905561012c8311156111135760405160e560020a62461bcd02815260206004820152601760248201527f5f636f6e74726f6c6c657246656520746f6f20686967680000000000000000006044820152606401610909565b601783905561032082111561116d5760405160e560020a62461bcd02815260206004820152601560248201527f5f6275794261636b5261746520746f6f206869676800000000000000000000006044820152606401610909565b60188290556103e38111156111c75760405160e560020a62461bcd02815260206004820152601860248201527f5f736c697070616765466163746f7220746f6f206869676800000000000000006044820152606401610909565b601c819055604080518681526020810186905290810184905260608101839052608081018290527fc67e0b149a57a70fa44a531a46c2c6d8e0b242fa12f459f250012c3a5987d29a9060a00160405180910390a15050505050565b601254600160a060020a0316331461124f5760405160e560020a62461bcd028152600401610909906125fd565b600d805473ffffffffffffffffffffffffffffffffffffffff1916600160a060020a0383169081179091556040519081527fa69f1931be99336e049905baa11d21ed44204d7686e46b4344404d80d47c298890602001610981565b601f81815481106108c257600080fd5b602081815481106108c257600080fd5b602481815481106108c257600080fd5b601054600090600160a060020a031633600160a060020a0316146113135760405160e560020a62461bcd0281526004016109099061266b565b600260015414156113395760405160e560020a62461bcd02815260040161090990612634565b600260015561134a60025460ff1690565b1561136a5760405160e560020a62461bcd028152600401610909906126f0565b60055460405160e060020a6370a08231028152306004820152600091600160a060020a0316906370a0823190602401602060405180830381865afa1580156113b6573d6000803e3d6000fd5b505050506040513d601f19601f820116820180604052508101906113da91906126d7565b90506000831161142f5760405160e560020a62461bcd02815260206004820152601e60248201527f57616e7420746f6b656e206465706f736974206d757374206265203e203000006044820152606401610909565b808311156114825760405160e560020a62461bcd02815260206004820152601c60248201527f457863656564732057616e742062616c20666f72206465706f736974000000006044820152606401610909565b60145483901580159061149757506000601554115b156114c6576114c3612710610b16601454610b16601a54610b106015548b611e2b90919063ffffffff16565b90505b6015546114d39082611fb7565b601555600160a060020a0385166000908152601660205260409020546114f99082611fb7565b600160a060020a038681166000908152601660205260409081902092909255600654915160e060020a6370a082310281523060048201529116906370a0823190602401602060405180830381865afa158015611559573d6000803e3d6000fd5b505050506040513d601f19601f8201168201806040525081019061157d91906126d7565b60145560018055949350505050565b60025460ff16156115b25760405160e560020a62461bcd028152600401610909906126f0565b6002546301000000900460ff1661160e5760405160e560020a62461bcd02815260206004820152600c60248201527f2169735a6f72726f436f6d7000000000000000000000000000000000000000006044820152606401610909565b600254610100900460ff16156116695760405160e560020a62461bcd02815260206004820152600d60248201527f6973434f52455374616b696e67000000000000000000000000000000000000006044820152606401610909565b60065460405160e060020a6370a08231028152306004820152600091600160a060020a0316906370a0823190602401602060405180830381865afa1580156116b5573d6000803e3d6000fd5b505050506040513d601f19601f820116820180604052508101906116d991906126d7565b600a54600654919250600160a060020a039182169116148015906116fd5750600081115b156117b357600e5460065461171f91600160a060020a03918216911683611fc3565b600e54601c5473__SafeSwapUni___________________________9163709128be91600160a060020a0390911690849060203061175e42610258611fb7565b6040518763ffffffff1660e060020a02815260040161178296959493929190612727565b60006040518083038186803b15801561179a57600080fd5b505af41580156117ae573d6000803e3d6000fd5b505050505b60075460405160e060020a6370a08231028152306004820152600091600160a060020a0316906370a0823190602401602060405180830381865afa1580156117ff573d6000803e3d6000fd5b505050506040513d601f19601f8201168201806040525081019061182391906126d7565b600a54600754919250600160a060020a039182169116148015906118475750600081115b156118fd57600e5460075461186991600160a060020a03918216911683611fc3565b600e54601c5473__SafeSwapUni___________________________9163709128be91600160a060020a039091169084906021306118a842610258611fb7565b6040518763ffffffff1660e060020a0281526004016118cc96959493929190612727565b60006040518083038186803b1580156118e457600080fd5b505af41580156118f8573d6000803e3d6000fd5b505050505b5050565b602581815481106108c257600080fd5b601e81815481106108c257600080fd5b601254600160a060020a0316331461194e5760405160e560020a62461bcd028152600401610909906125fd565b6012805473ffffffffffffffffffffffffffffffffffffffff1916600160a060020a0383169081179091556040519081527f91a8c1cc2d4a3bb60738481947a00cbb9899c822916694cf8bb1d68172fdcd5490602001610981565b601054600090600160a060020a031633600160a060020a0316146119e25760405160e560020a62461bcd0281526004016109099061266b565b60025460ff1615610da85760405160e560020a62461bcd028152600401610909906126f0565b602281815481106108c257600080fd5b60026001541415611a3e5760405160e560020a62461bcd02815260040161090990612634565b6002600155611a4f60025460ff1690565b15611a6f5760405160e560020a62461bcd028152600401610909906126f0565b6002546301000000900460ff16611acb5760405160e560020a62461bcd02815260206004820152600c60248201527f2169735a6f72726f436f6d7000000000000000000000000000000000000000006044820152606401610909565b60125474010000000000000000000000000000000000000000900460ff1615611b1b57601254600160a060020a03163314611b1b5760405160e560020a62461bcd028152600401610909906125fd565b600a5460405160e060020a6370a08231028152306004820152600091600160a060020a0316906370a0823190602401602060405180830381865afa158015611b67573d6000803e3d6000fd5b505050506040513d601f19601f82011682018060405250810190611b8b91906126d7565b600e54600a54919250611bac91600160a060020a03908116911660006120ad565b600e54600a54611bc991600160a060020a03918216911683611fc3565b600e5473__SafeSwapUni___________________________9063709128be90600160a060020a03168385601e30611c0242610258611fb7565b6040518763ffffffff1660e060020a028152600401611c2696959493929190612727565b60006040518083038186803b158015611c3e57600080fd5b505af4158015611c52573d6000803e3d6000fd5b505043601355505060065460405160e060020a6370a08231028152306004820152600160a060020a03909116906370a0823190602401602060405180830381865afa158015611ca5573d6000803e3d6000fd5b505050506040513d601f19601f82011682018060405250810190611cc991906126d7565b601455505060018055565b600054600160a060020a03163314611d015760405160e560020a62461bcd028152600401610909906126a2565b600160a060020a038116611d805760405160e560020a62461bcd02815260206004820152602660248201527f4f776e61626c653a206e6577206f776e657220697320746865207a65726f206160448201527f64647265737300000000000000000000000000000000000000000000000000006064820152608401610909565b611d8981611eff565b50565b60025460ff16611de15760405160e560020a62461bcd02815260206004820152601460248201527f5061757361626c653a206e6f74207061757365640000000000000000000000006044820152606401610909565b6002805460ff191690557f5db9ee0a495bf2e6ff9c91a7834c1ba4fdd244a5e8aa4e537bd38aeae4b073aa335b604051600160a060020a03909116815260200160405180910390a1565b6000611e3782846127ce565b9392505050565b6000611e3782846127ed565b6000611e378284612828565b604051600160a060020a038316602482015260448101829052610eb29084907fa9059cbb00000000000000000000000000000000000000000000000000000000906064015b60408051601f198184030181529190526020810180517bffffffffffffffffffffffffffffffffffffffffffffffffffffffff167fffffffff00000000000000000000000000000000000000000000000000000000909316929092179091526121fe565b60008054600160a060020a0383811673ffffffffffffffffffffffffffffffffffffffff19831681178455604051919092169283917f8be0079c531659141344cd1fd0a4f28419497f9722a3daafe3b4186f6b6457e09190a35050565b60025460ff1615611f825760405160e560020a62461bcd028152600401610909906126f0565b6002805460ff191660011790557f62e78cea01bee320cd4e420270b5ea74000d11b0c9f74754ebdbfc544b05a258611e0e3390565b6000611e37828461283f565b6040517fdd62ed3e000000000000000000000000000000000000000000000000000000008152306004820152600160a060020a038381166024830152600091839186169063dd62ed3e90604401602060405180830381865afa15801561202d573d6000803e3d6000fd5b505050506040513d601f19601f8201168201806040525081019061205191906126d7565b61205b919061283f565b604051600160a060020a0385166024820152604481018290529091506120a79085907f095ea7b30000000000000000000000000000000000000000000000000000000090606401611e9b565b50505050565b80158061214057506040517fdd62ed3e000000000000000000000000000000000000000000000000000000008152306004820152600160a060020a03838116602483015284169063dd62ed3e90604401602060405180830381865afa15801561211a573d6000803e3d6000fd5b505050506040513d601f19601f8201168201806040525081019061213e91906126d7565b155b6121b55760405160e560020a62461bcd02815260206004820152603660248201527f5361666545524332303a20617070726f76652066726f6d206e6f6e2d7a65726f60448201527f20746f206e6f6e2d7a65726f20616c6c6f77616e6365000000000000000000006064820152608401610909565b604051600160a060020a038316602482015260448101829052610eb29084907f095ea7b30000000000000000000000000000000000000000000000000000000090606401611e9b565b6000612253826040518060400160405280602081526020017f5361666545524332303a206c6f772d6c6576656c2063616c6c206661696c656481525085600160a060020a03166122e69092919063ffffffff16565b805190915015610eb257808060200190518101906122719190612857565b610eb25760405160e560020a62461bcd02815260206004820152602a60248201527f5361666545524332303a204552433230206f7065726174696f6e20646964206e60448201527f6f742073756363656564000000000000000000000000000000000000000000006064820152608401610909565b60606122f584846000856122fd565b949350505050565b606030318311156123795760405160e560020a62461bcd02815260206004820152602660248201527f416464726573733a20696e73756666696369656e742062616c616e636520666f60448201527f722063616c6c00000000000000000000000000000000000000000000000000006064820152608401610909565b600160a060020a0385163b6123d35760405160e560020a62461bcd02815260206004820152601d60248201527f416464726573733a2063616c6c20746f206e6f6e2d636f6e74726163740000006044820152606401610909565b60008086600160a060020a031685876040516123ef91906128a0565b60006040518083038185875af1925050503d806000811461242c576040519150601f19603f3d011682016040523d82523d6000602084013e612431565b606091505b509150915061244182828661244c565b979650505050505050565b6060831561245b575081611e37565b82511561246b5782518084602001fd5b8160405160e560020a62461bcd02815260040161090991906128bc565b60006020828403121561249a57600080fd5b5035919050565b8015158114611d8957600080fd5b6000602082840312156124c157600080fd5b8135611e37816124a1565b8035600160a060020a03811681146124e357600080fd5b919050565b600080604083850312156124fb57600080fd5b612504836124cc565b91506020830135612514816124a1565b809150509250929050565b60006020828403121561253157600080fd5b611e37826124cc565b6000806040838503121561254d57600080fd5b50508035926020909101359150565b60008060006060848603121561257157600080fd5b61257a846124cc565b92506020840135915061258f604085016124cc565b90509250925092565b600080600080600060a086880312156125b057600080fd5b505083359560208501359550604085013594606081013594506080013592509050565b600080604083850312156125e657600080fd5b6125ef836124cc565b946020939093013593505050565b60208082526004908201527f21676f7600000000000000000000000000000000000000000000000000000000604082015260600190565b6020808252601f908201527f5265656e7472616e637947756172643a207265656e7472616e742063616c6c00604082015260600190565b60208082526010908201527f217a6f72726f436f6e74726f6c6c657200000000000000000000000000000000604082015260600190565b6020808252818101527f4f776e61626c653a2063616c6c6572206973206e6f7420746865206f776e6572604082015260600190565b6000602082840312156126e957600080fd5b5051919050565b60208082526010908201527f5061757361626c653a2070617573656400000000000000000000000000000000604082015260600190565b600060c08201600160a060020a03808a1684526020898186015288604086015260c0606086015282885480855260e0870191508960005282600020945060005b81811015612785578554851683526001958601959284019201612767565b505096909116608085015250505060a00152949350505050565b7f4e487b7100000000000000000000000000000000000000000000000000000000600052601160045260246000fd5b60008160001904831182151516156127e8576127e861279f565b500290565b600082612823577f4e487b7100000000000000000000000000000000000000000000000000000000600052601260045260246000fd5b500490565b60008282101561283a5761283a61279f565b500390565b600082198211156128525761285261279f565b500190565b60006020828403121561286957600080fd5b8151611e37816124a1565b60005b8381101561288f578181015183820152602001612877565b838111156120a75750506000910152565b600082516128b2818460208701612874565b9190910192915050565b60208152600082518060208401526128db816040850160208701612874565b601f01601f1916919091016040019291505056fea26469706673582212208b0294ab20644ccb0bc30779b64b80fc7775f8f909b34b868c820d886b3e1a6764736f6c634300080a0033",
  "immutableReferences": {},
  "source": "// SPDX-License-Identifier: MIT\npragma solidity ^0.8.0;\n\nimport \"./_VaultBase.sol\";\n\n\n/// @title VaultZorro. The Vault for staking the Zorro token\n/// @dev Only to be deployed on BSC (the home of the ZOR token)\ncontract VaultZorro is VaultBase {\n    /* Libraries */\n    using SafeERC20 for IERC20;\n    using SafeMath for uint256;\n    using SafeSwapUni for IAMMRouter02;\n\n    /* Constructor */\n    // TODO: token0address should be the Zorro token address\n    constructor(\n        address[] memory _addresses,\n        uint256 _pid,\n        bool _isCOREStaking,\n        bool _isSameAssetDeposit,\n        bool _isZorroComp,\n        address[] memory _earnedToZORROPath,\n        address[] memory _earnedToToken0Path,\n        address[] memory _earnedToToken1Path,\n        address[] memory _token0ToEarnedPath,\n        address[] memory _token1ToEarnedPath,\n        uint256[] memory _fees // [_controllerFee, _buyBackRate, _entranceFeeFactor, _withdrawFeeFactor]\n    ) {\n        govAddress = _addresses[0];\n        zorroControllerAddress = _addresses[1];\n        ZORROAddress = _addresses[2];\n\n        wantAddress = _addresses[3];\n        token0Address = _addresses[4];\n        token1Address = _addresses[5];\n        earnedAddress = _addresses[6];\n\n        farmContractAddress = _addresses[7];\n        pid = _pid;\n        isCOREStaking = _isCOREStaking;\n        isSameAssetDeposit = _isSameAssetDeposit;\n        isZorroComp = _isZorroComp;\n\n        uniRouterAddress = _addresses[8];\n        earnedToZORROPath = _earnedToZORROPath;\n        earnedToToken0Path = _earnedToToken0Path;\n        earnedToToken1Path = _earnedToToken1Path;\n        token0ToEarnedPath = _token0ToEarnedPath;\n        token1ToEarnedPath = _token1ToEarnedPath;\n\n        controllerFee = _fees[0];\n        rewardsAddress = _addresses[9];\n        buyBackRate = _fees[1];\n        burnAddress = _addresses[10];\n        entranceFeeFactor = _fees[2];\n        withdrawFeeFactor = _fees[3];\n\n        transferOwnership(zorroControllerAddress);\n    }\n\n    /* Investment Actions */\n\n    /// @notice Receives new deposits from user\n    /// @param _wantAmt amount of Want token to deposit/stake\n    /// @return Number of shares added\n    function depositWantToken(address _account, uint256 _wantAmt)\n        public\n        override\n        onlyZorroController\n        nonReentrant\n        whenNotPaused\n        returns (uint256)\n    {\n        // Get balance of want token (the deposited amount)\n        uint256 _wantBal = IERC20(wantAddress).balanceOf(address(this));\n        // Check to see if Want token was actually deposited, Want amount already present\n        require(_wantAmt > 0, \"Want token deposit must be > 0\");\n        require(_wantAmt <= _wantBal, \"Exceeds Want bal for deposit\");\n\n        // Set sharesAdded to the Want token amount specified\n        uint256 sharesAdded = _wantAmt;\n        // If the total number of shares and want tokens locked both exceed 0, the shares added is the proportion of Want tokens locked,\n        // discounted by the entrance fee\n        if (wantLockedTotal > 0 && sharesTotal > 0) {\n            sharesAdded = _wantAmt\n                .mul(sharesTotal)\n                .mul(entranceFeeFactor)\n                .div(wantLockedTotal)\n                .div(entranceFeeFactorMax);\n        }\n        // Increment the shares\n        sharesTotal = sharesTotal.add(sharesAdded);\n        userShares[_account] = userShares[_account].add(sharesAdded);\n\n        // Update want locked total\n        wantLockedTotal = IERC20(token0Address).balanceOf(address(this));\n\n        return sharesAdded;\n    }\n\n    /// @notice Performs necessary operations to convert USDC into Want token\n    /// @param _amount The USDC quantity to exchange\n    /// @param _maxMarketMovementAllowed The max slippage allowed. 1000 = 0 %, 995 = 0.5%, etc.\n    /// @return Amount of Want token obtained\n    function exchangeUSDForWantToken(\n        uint256 _amount,\n        uint256 _maxMarketMovementAllowed\n    ) public override onlyZorroController whenNotPaused returns (uint256) {\n        // TODO implement (use VaultStandardAMM.sol as example)\n        return _amount;\n    }\n\n    /// @notice Public function for farming Want token.\n    function farm() public nonReentrant {}\n\n    /// @notice Withdraw Want tokens from the Farm contract\n    /// @param _account address of user\n    /// @param _harvestOnly If true, will only harvest Zorro tokens but not do a withdrawal (Should ALWAYS be true for this contract)\n    /// @return the number of shares removed\n    function withdrawWantToken(address _account, bool _harvestOnly)\n        public\n        override\n        onlyZorroController\n        onlyOwner\n        nonReentrant\n        returns (uint256)\n    {\n        uint256 _userNumShares = userShares[_account];\n        uint256 _wantAmt = IERC20(wantAddress).balanceOf(address(this)).mul(_userNumShares).div(sharesTotal);\n\n        // Shares removed is proportional to the % of total Want tokens locked that _wantAmt represents\n        uint256 sharesRemoved = _wantAmt.mul(sharesTotal).div(wantLockedTotal);\n        // Safety: cap the shares to the total number of shares\n        if (sharesRemoved > sharesTotal) {\n            sharesRemoved = sharesTotal;\n        }\n        // Decrement the total shares by the sharesRemoved\n        sharesTotal = sharesTotal.sub(sharesRemoved);\n\n        // If a withdrawal fee is specified, discount the _wantAmt by the withdrawal fee\n        if (withdrawFeeFactor < withdrawFeeFactorMax) {\n            _wantAmt = _wantAmt.mul(withdrawFeeFactor).div(\n                withdrawFeeFactorMax\n            );\n        }\n\n        // Safety: Check balance of this contract's Want tokens held, and cap _wantAmt to that value\n        uint256 wantAmt = IERC20(wantAddress).balanceOf(address(this));\n        if (_wantAmt > wantAmt) {\n            _wantAmt = wantAmt;\n        }\n        // Safety: cap _wantAmt at the total quantity of Want tokens locked\n        if (wantLockedTotal < _wantAmt) {\n            _wantAmt = wantLockedTotal;\n        }\n\n        // Decrement the total Want locked tokens by the _wantAmt\n        wantLockedTotal = wantLockedTotal.sub(_wantAmt);\n\n        // Finally, transfer the want amount from this contract, back to the ZorroController contract\n        IERC20(wantAddress).safeTransfer(zorroControllerAddress, _wantAmt);\n\n        return sharesRemoved;\n    }\n\n    /// @notice Converts Want token back into USD to be ready for withdrawal\n    /// @param _amount The Want token quantity to exchange\n    /// @param _maxMarketMovementAllowed The max slippage allowed for swaps. 1000 = 0 %, 995 = 0.5%, etc.\n    /// @return Amount of USDC token obtained\n    function exchangeWantTokenForUSD(\n        uint256 _amount,\n        uint256 _maxMarketMovementAllowed\n    ) public virtual override onlyZorroController returns (uint256) {\n        // TODO implement!\n        return _amount;\n    }\n\n    /// @notice The main compounding (earn) function. Reinvests profits since the last earn event.\n    /// @param _maxMarketMovementAllowed The max slippage allowed. 1000 = 0 %, 995 = 0.5%, etc.\n    function earn(uint256 _maxMarketMovementAllowed)\n        public\n        override\n        nonReentrant\n        whenNotPaused\n    {\n        // TODO: Take in price oracle to perform safe swaps\n        // Only to be run if this contract is configured for auto-comnpounding\n        require(isZorroComp, \"!isZorroComp\");\n        // If onlyGov is set to true, only allow to proceed if the current caller is the govAddress\n        if (onlyGov) {\n            require(msg.sender == govAddress, \"!gov\");\n        }\n\n        // Get the balance of the Earned token on this contract (USDC)\n        uint256 earnedAmt = IERC20(earnedAddress).balanceOf(address(this));\n\n        // No distribution of fees/buyback\n\n        // Approve the router contract\n        IERC20(earnedAddress).safeApprove(uniRouterAddress, 0);\n        // Allow the router contract to spen up to earnedAmt\n        IERC20(earnedAddress).safeIncreaseAllowance(\n            uniRouterAddress,\n            earnedAmt\n        );\n\n        // Swap earned token (USDC) to token0 (ZORRO)\n        IAMMRouter02(uniRouterAddress).safeSwap(\n            earnedAmt,\n            _maxMarketMovementAllowed,\n            earnedToToken0Path,\n            address(this),\n            block.timestamp.add(600)\n        );\n\n        // Update last earned block\n        lastEarnBlock = block.number;\n\n        // Update want locked total\n        wantLockedTotal = IERC20(token0Address).balanceOf(address(this));\n    }\n}\n",
  "sourcePath": "/Users/kristophm/Documents/workspace/zorro-protocol/contracts/vaults/VaultZorro.sol",
  "compiler": {
    "name": "solc",
    "version": "0.8.10+commit.fc410830.Emscripten.clang"
  },
  "schemaVersion": "3.4.4",
  "updatedAt": "2022-03-09T04:04:37.541Z",
  "devdoc": {
    "details": "Only to be deployed on BSC (the home of the ZOR token)",
    "kind": "dev",
    "methods": {
      "depositWantToken(address,uint256)": {
        "params": {
          "_wantAmt": "amount of Want token to deposit/stake"
        },
        "returns": {
          "_0": "Number of shares added"
        }
      },
      "earn(uint256)": {
        "params": {
          "_maxMarketMovementAllowed": "The max slippage allowed. 1000 = 0 %, 995 = 0.5%, etc."
        }
      },
      "exchangeUSDForWantToken(uint256,uint256)": {
        "params": {
          "_amount": "The USDC quantity to exchange",
          "_maxMarketMovementAllowed": "The max slippage allowed. 1000 = 0 %, 995 = 0.5%, etc."
        },
        "returns": {
          "_0": "Amount of Want token obtained"
        }
      },
      "exchangeWantTokenForUSD(uint256,uint256)": {
        "params": {
          "_amount": "The Want token quantity to exchange",
          "_maxMarketMovementAllowed": "The max slippage allowed for swaps. 1000 = 0 %, 995 = 0.5%, etc."
        },
        "returns": {
          "_0": "Amount of USDC token obtained"
        }
      },
      "inCaseTokensGetStuck(address,uint256,address)": {
        "params": {
          "_amount": "The amount of the tokens to transfer",
          "_to": "The address to transfer tokens to",
          "_token": "Address of the ERC20 token to transfer"
        }
      },
      "owner()": {
        "details": "Returns the address of the current owner."
      },
      "paused()": {
        "details": "Returns true if the contract is paused, and false otherwise."
      },
      "renounceOwnership()": {
        "details": "Leaves the contract without owner. It will not be possible to call `onlyOwner` functions anymore. Can only be called by the current owner. NOTE: Renouncing ownership will leave the contract without an owner, thereby removing any functionality that is only available to the owner."
      },
      "setBurnAddress(address)": {
        "params": {
          "_burnAddress": "the burn address"
        }
      },
      "setGov(address)": {
        "params": {
          "_govAddress": "The new gov address"
        }
      },
      "setOnlyGov(bool)": {
        "params": {
          "_onlyGov": "whether onlyGov should be enforced"
        }
      },
      "setRewardsAddress(address)": {
        "params": {
          "_rewardsAddress": "the address of the Rewards contract"
        }
      },
      "setSettings(uint256,uint256,uint256,uint256,uint256)": {
        "params": {
          "_buyBackRate": "Buy back rate fee numerator",
          "_controllerFee": "Controller fee numerator",
          "_entranceFeeFactor": "Entrance fee numerator (higher means smaller percentage)",
          "_slippageFactor": "Slippage factor fee numerator",
          "_withdrawFeeFactor": "Withdrawal fee numerator (higher means smaller percentage)"
        }
      },
      "transferOwnership(address)": {
        "details": "Transfers ownership of the contract to a new account (`newOwner`). Can only be called by the current owner."
      },
      "withdrawWantToken(address,bool)": {
        "params": {
          "_account": "address of user",
          "_harvestOnly": "If true, will only harvest Zorro tokens but not do a withdrawal (Should ALWAYS be true for this contract)"
        },
        "returns": {
          "_0": "the number of shares removed"
        }
      }
    },
    "title": "VaultZorro. The Vault for staking the Zorro token",
    "version": 1
  },
  "userdoc": {
    "kind": "user",
    "methods": {
      "convertDustToEarned()": {
        "notice": "Converts dust tokens into earned tokens, which will be reinvested on the next earn()"
      },
      "depositWantToken(address,uint256)": {
        "notice": "Receives new deposits from user"
      },
      "earn(uint256)": {
        "notice": "The main compounding (earn) function. Reinvests profits since the last earn event."
      },
      "exchangeUSDForWantToken(uint256,uint256)": {
        "notice": "Performs necessary operations to convert USDC into Want token"
      },
      "exchangeWantTokenForUSD(uint256,uint256)": {
        "notice": "Converts Want token back into USD to be ready for withdrawal"
      },
      "farm()": {
        "notice": "Public function for farming Want token."
      },
      "inCaseTokensGetStuck(address,uint256,address)": {
        "notice": "Safely transfer ERC20 tokens stuck in this contract to a specified address"
      },
      "pause()": {
        "notice": "Pause contract"
      },
      "setBurnAddress(address)": {
        "notice": "Set the burn address (for removing tokens out of existence)"
      },
      "setGov(address)": {
        "notice": "Set governor address"
      },
      "setOnlyGov(bool)": {
        "notice": "Set onlyGov property"
      },
      "setRewardsAddress(address)": {
        "notice": "set the address of the contract to send controller fees to"
      },
      "setSettings(uint256,uint256,uint256,uint256,uint256)": {
        "notice": "Configure key fee parameters"
      },
      "setUniRouterAddress(address)": {
        "notice": "Set the address of the periphery/router contract (Pancakeswap/Apeswap/etc.)"
      },
      "unpause()": {
        "notice": "Unpause contract"
      },
      "withdrawWantToken(address,bool)": {
        "notice": "Withdraw Want tokens from the Farm contract"
      }
    },
    "version": 1
  }
}