{
  "contractName": "VaultStandardAMM",
  "abi": [
    {
      "inputs": [
        {
          "internalType": "address[]",
          "name": "_addresses",
          "type": "address[]"
        },
        {
          "internalType": "uint256",
          "name": "_pid",
          "type": "uint256"
        },
        {
          "internalType": "bool",
          "name": "_isCOREStaking",
          "type": "bool"
        },
        {
          "internalType": "bool",
          "name": "_isSingleAssetDeposit",
          "type": "bool"
        },
        {
          "internalType": "bool",
          "name": "_isZorroComp",
          "type": "bool"
        },
        {
          "internalType": "address[]",
          "name": "_earnedToZORROPath",
          "type": "address[]"
        },
        {
          "internalType": "address[]",
          "name": "_earnedToToken0Path",
          "type": "address[]"
        },
        {
          "internalType": "address[]",
          "name": "_earnedToToken1Path",
          "type": "address[]"
        },
        {
          "internalType": "address[]",
          "name": "_token0ToEarnedPath",
          "type": "address[]"
        },
        {
          "internalType": "address[]",
          "name": "_token1ToEarnedPath",
          "type": "address[]"
        },
        {
          "internalType": "uint256[]",
          "name": "_fees",
          "type": "uint256[]"
        }
      ],
      "stateMutability": "nonpayable",
      "type": "constructor"
    },
    {
      "anonymous": false,
      "inputs": [
        {
          "indexed": true,
          "internalType": "address",
          "name": "previousOwner",
          "type": "address"
        },
        {
          "indexed": true,
          "internalType": "address",
          "name": "newOwner",
          "type": "address"
        }
      ],
      "name": "OwnershipTransferred",
      "type": "event"
    },
    {
      "anonymous": false,
      "inputs": [
        {
          "indexed": false,
          "internalType": "address",
          "name": "account",
          "type": "address"
        }
      ],
      "name": "Paused",
      "type": "event"
    },
    {
      "anonymous": false,
      "inputs": [
        {
          "indexed": false,
          "internalType": "address",
          "name": "_buyBackAddress",
          "type": "address"
        }
      ],
      "name": "SetBurnAddress",
      "type": "event"
    },
    {
      "anonymous": false,
      "inputs": [
        {
          "indexed": false,
          "internalType": "address",
          "name": "_govAddress",
          "type": "address"
        }
      ],
      "name": "SetGov",
      "type": "event"
    },
    {
      "anonymous": false,
      "inputs": [
        {
          "indexed": false,
          "internalType": "bool",
          "name": "_onlyGov",
          "type": "bool"
        }
      ],
      "name": "SetOnlyGov",
      "type": "event"
    },
    {
      "anonymous": false,
      "inputs": [
        {
          "indexed": false,
          "internalType": "address",
          "name": "_rewardsAddress",
          "type": "address"
        }
      ],
      "name": "SetRewardsAddress",
      "type": "event"
    },
    {
      "anonymous": false,
      "inputs": [
        {
          "indexed": false,
          "internalType": "uint256",
          "name": "_entranceFeeFactor",
          "type": "uint256"
        },
        {
          "indexed": false,
          "internalType": "uint256",
          "name": "_withdrawFeeFactor",
          "type": "uint256"
        },
        {
          "indexed": false,
          "internalType": "uint256",
          "name": "_controllerFee",
          "type": "uint256"
        },
        {
          "indexed": false,
          "internalType": "uint256",
          "name": "_buyBackRate",
          "type": "uint256"
        },
        {
          "indexed": false,
          "internalType": "uint256",
          "name": "_slippageFactor",
          "type": "uint256"
        }
      ],
      "name": "SetSettings",
      "type": "event"
    },
    {
      "anonymous": false,
      "inputs": [
        {
          "indexed": false,
          "internalType": "address",
          "name": "_uniRouterAddress",
          "type": "address"
        }
      ],
      "name": "SetUniRouterAddress",
      "type": "event"
    },
    {
      "anonymous": false,
      "inputs": [
        {
          "indexed": false,
          "internalType": "address",
          "name": "account",
          "type": "address"
        }
      ],
      "name": "Unpaused",
      "type": "event"
    },
    {
      "inputs": [
        {
          "internalType": "uint256",
          "name": "",
          "type": "uint256"
        }
      ],
      "name": "USDCToToken0Path",
      "outputs": [
        {
          "internalType": "address",
          "name": "",
          "type": "address"
        }
      ],
      "stateMutability": "view",
      "type": "function"
    },
    {
      "inputs": [
        {
          "internalType": "uint256",
          "name": "",
          "type": "uint256"
        }
      ],
      "name": "USDCToToken1Path",
      "outputs": [
        {
          "internalType": "address",
          "name": "",
          "type": "address"
        }
      ],
      "stateMutability": "view",
      "type": "function"
    },
    {
      "inputs": [],
      "name": "ZORROAddress",
      "outputs": [
        {
          "internalType": "address",
          "name": "",
          "type": "address"
        }
      ],
      "stateMutability": "view",
      "type": "function"
    },
    {
      "inputs": [],
      "name": "burnAddress",
      "outputs": [
        {
          "internalType": "address",
          "name": "",
          "type": "address"
        }
      ],
      "stateMutability": "view",
      "type": "function"
    },
    {
      "inputs": [],
      "name": "buyBackRate",
      "outputs": [
        {
          "internalType": "uint256",
          "name": "",
          "type": "uint256"
        }
      ],
      "stateMutability": "view",
      "type": "function"
    },
    {
      "inputs": [],
      "name": "buyBackRateMax",
      "outputs": [
        {
          "internalType": "uint256",
          "name": "",
          "type": "uint256"
        }
      ],
      "stateMutability": "view",
      "type": "function"
    },
    {
      "inputs": [],
      "name": "buyBackRateUL",
      "outputs": [
        {
          "internalType": "uint256",
          "name": "",
          "type": "uint256"
        }
      ],
      "stateMutability": "view",
      "type": "function"
    },
    {
      "inputs": [],
      "name": "controllerFee",
      "outputs": [
        {
          "internalType": "uint256",
          "name": "",
          "type": "uint256"
        }
      ],
      "stateMutability": "view",
      "type": "function"
    },
    {
      "inputs": [],
      "name": "controllerFeeMax",
      "outputs": [
        {
          "internalType": "uint256",
          "name": "",
          "type": "uint256"
        }
      ],
      "stateMutability": "view",
      "type": "function"
    },
    {
      "inputs": [],
      "name": "controllerFeeUL",
      "outputs": [
        {
          "internalType": "uint256",
          "name": "",
          "type": "uint256"
        }
      ],
      "stateMutability": "view",
      "type": "function"
    },
    {
      "inputs": [],
      "name": "convertDustToEarned",
      "outputs": [],
      "stateMutability": "nonpayable",
      "type": "function"
    },
    {
      "inputs": [],
      "name": "earnedAddress",
      "outputs": [
        {
          "internalType": "address",
          "name": "",
          "type": "address"
        }
      ],
      "stateMutability": "view",
      "type": "function"
    },
    {
      "inputs": [
        {
          "internalType": "uint256",
          "name": "",
          "type": "uint256"
        }
      ],
      "name": "earnedToToken0Path",
      "outputs": [
        {
          "internalType": "address",
          "name": "",
          "type": "address"
        }
      ],
      "stateMutability": "view",
      "type": "function"
    },
    {
      "inputs": [
        {
          "internalType": "uint256",
          "name": "",
          "type": "uint256"
        }
      ],
      "name": "earnedToToken1Path",
      "outputs": [
        {
          "internalType": "address",
          "name": "",
          "type": "address"
        }
      ],
      "stateMutability": "view",
      "type": "function"
    },
    {
      "inputs": [
        {
          "internalType": "uint256",
          "name": "",
          "type": "uint256"
        }
      ],
      "name": "earnedToZORLPPoolToken0Path",
      "outputs": [
        {
          "internalType": "address",
          "name": "",
          "type": "address"
        }
      ],
      "stateMutability": "view",
      "type": "function"
    },
    {
      "inputs": [
        {
          "internalType": "uint256",
          "name": "",
          "type": "uint256"
        }
      ],
      "name": "earnedToZORLPPoolToken1Path",
      "outputs": [
        {
          "internalType": "address",
          "name": "",
          "type": "address"
        }
      ],
      "stateMutability": "view",
      "type": "function"
    },
    {
      "inputs": [
        {
          "internalType": "uint256",
          "name": "",
          "type": "uint256"
        }
      ],
      "name": "earnedToZORROPath",
      "outputs": [
        {
          "internalType": "address",
          "name": "",
          "type": "address"
        }
      ],
      "stateMutability": "view",
      "type": "function"
    },
    {
      "inputs": [],
      "name": "entranceFeeFactor",
      "outputs": [
        {
          "internalType": "uint256",
          "name": "",
          "type": "uint256"
        }
      ],
      "stateMutability": "view",
      "type": "function"
    },
    {
      "inputs": [],
      "name": "entranceFeeFactorLL",
      "outputs": [
        {
          "internalType": "uint256",
          "name": "",
          "type": "uint256"
        }
      ],
      "stateMutability": "view",
      "type": "function"
    },
    {
      "inputs": [],
      "name": "entranceFeeFactorMax",
      "outputs": [
        {
          "internalType": "uint256",
          "name": "",
          "type": "uint256"
        }
      ],
      "stateMutability": "view",
      "type": "function"
    },
    {
      "inputs": [],
      "name": "farmContractAddress",
      "outputs": [
        {
          "internalType": "address",
          "name": "",
          "type": "address"
        }
      ],
      "stateMutability": "view",
      "type": "function"
    },
    {
      "inputs": [],
      "name": "govAddress",
      "outputs": [
        {
          "internalType": "address",
          "name": "",
          "type": "address"
        }
      ],
      "stateMutability": "view",
      "type": "function"
    },
    {
      "inputs": [
        {
          "internalType": "address",
          "name": "_token",
          "type": "address"
        },
        {
          "internalType": "uint256",
          "name": "_amount",
          "type": "uint256"
        },
        {
          "internalType": "address",
          "name": "_to",
          "type": "address"
        }
      ],
      "name": "inCaseTokensGetStuck",
      "outputs": [],
      "stateMutability": "nonpayable",
      "type": "function"
    },
    {
      "inputs": [],
      "name": "isCOREStaking",
      "outputs": [
        {
          "internalType": "bool",
          "name": "",
          "type": "bool"
        }
      ],
      "stateMutability": "view",
      "type": "function"
    },
    {
      "inputs": [],
      "name": "isSingleAssetDeposit",
      "outputs": [
        {
          "internalType": "bool",
          "name": "",
          "type": "bool"
        }
      ],
      "stateMutability": "view",
      "type": "function"
    },
    {
      "inputs": [],
      "name": "isZorroComp",
      "outputs": [
        {
          "internalType": "bool",
          "name": "",
          "type": "bool"
        }
      ],
      "stateMutability": "view",
      "type": "function"
    },
    {
      "inputs": [],
      "name": "lastEarnBlock",
      "outputs": [
        {
          "internalType": "uint256",
          "name": "",
          "type": "uint256"
        }
      ],
      "stateMutability": "view",
      "type": "function"
    },
    {
      "inputs": [
        {
          "internalType": "uint256",
          "name": "",
          "type": "uint256"
        }
      ],
      "name": "lockedXChainEarningsUSDC",
      "outputs": [
        {
          "internalType": "uint256",
          "name": "",
          "type": "uint256"
        }
      ],
      "stateMutability": "view",
      "type": "function"
    },
    {
      "inputs": [],
      "name": "onlyGov",
      "outputs": [
        {
          "internalType": "bool",
          "name": "",
          "type": "bool"
        }
      ],
      "stateMutability": "view",
      "type": "function"
    },
    {
      "inputs": [],
      "name": "owner",
      "outputs": [
        {
          "internalType": "address",
          "name": "",
          "type": "address"
        }
      ],
      "stateMutability": "view",
      "type": "function"
    },
    {
      "inputs": [],
      "name": "pause",
      "outputs": [],
      "stateMutability": "nonpayable",
      "type": "function"
    },
    {
      "inputs": [],
      "name": "paused",
      "outputs": [
        {
          "internalType": "bool",
          "name": "",
          "type": "bool"
        }
      ],
      "stateMutability": "view",
      "type": "function"
    },
    {
      "inputs": [],
      "name": "pid",
      "outputs": [
        {
          "internalType": "uint256",
          "name": "",
          "type": "uint256"
        }
      ],
      "stateMutability": "view",
      "type": "function"
    },
    {
      "inputs": [],
      "name": "renounceOwnership",
      "outputs": [],
      "stateMutability": "nonpayable",
      "type": "function"
    },
    {
      "inputs": [],
      "name": "revShareRate",
      "outputs": [
        {
          "internalType": "uint256",
          "name": "",
          "type": "uint256"
        }
      ],
      "stateMutability": "view",
      "type": "function"
    },
    {
      "inputs": [],
      "name": "revShareRateMax",
      "outputs": [
        {
          "internalType": "uint256",
          "name": "",
          "type": "uint256"
        }
      ],
      "stateMutability": "view",
      "type": "function"
    },
    {
      "inputs": [],
      "name": "revShareRateUL",
      "outputs": [
        {
          "internalType": "uint256",
          "name": "",
          "type": "uint256"
        }
      ],
      "stateMutability": "view",
      "type": "function"
    },
    {
      "inputs": [],
      "name": "rewardsAddress",
      "outputs": [
        {
          "internalType": "address",
          "name": "",
          "type": "address"
        }
      ],
      "stateMutability": "view",
      "type": "function"
    },
    {
      "inputs": [
        {
          "internalType": "address",
          "name": "_burnAddress",
          "type": "address"
        }
      ],
      "name": "setBurnAddress",
      "outputs": [],
      "stateMutability": "nonpayable",
      "type": "function"
    },
    {
      "inputs": [
        {
          "internalType": "address",
          "name": "_govAddress",
          "type": "address"
        }
      ],
      "name": "setGov",
      "outputs": [],
      "stateMutability": "nonpayable",
      "type": "function"
    },
    {
      "inputs": [
        {
          "internalType": "bool",
          "name": "_onlyGov",
          "type": "bool"
        }
      ],
      "name": "setOnlyGov",
      "outputs": [],
      "stateMutability": "nonpayable",
      "type": "function"
    },
    {
      "inputs": [
        {
          "internalType": "address",
          "name": "_rewardsAddress",
          "type": "address"
        }
      ],
      "name": "setRewardsAddress",
      "outputs": [],
      "stateMutability": "nonpayable",
      "type": "function"
    },
    {
      "inputs": [
        {
          "internalType": "uint256",
          "name": "_entranceFeeFactor",
          "type": "uint256"
        },
        {
          "internalType": "uint256",
          "name": "_withdrawFeeFactor",
          "type": "uint256"
        },
        {
          "internalType": "uint256",
          "name": "_controllerFee",
          "type": "uint256"
        },
        {
          "internalType": "uint256",
          "name": "_buyBackRate",
          "type": "uint256"
        },
        {
          "internalType": "uint256",
          "name": "_slippageFactor",
          "type": "uint256"
        }
      ],
      "name": "setSettings",
      "outputs": [],
      "stateMutability": "nonpayable",
      "type": "function"
    },
    {
      "inputs": [
        {
          "internalType": "address",
          "name": "_uniRouterAddress",
          "type": "address"
        }
      ],
      "name": "setUniRouterAddress",
      "outputs": [],
      "stateMutability": "nonpayable",
      "type": "function"
    },
    {
      "inputs": [],
      "name": "sharesTotal",
      "outputs": [
        {
          "internalType": "uint256",
          "name": "",
          "type": "uint256"
        }
      ],
      "stateMutability": "view",
      "type": "function"
    },
    {
      "inputs": [],
      "name": "slippageFactor",
      "outputs": [
        {
          "internalType": "uint256",
          "name": "",
          "type": "uint256"
        }
      ],
      "stateMutability": "view",
      "type": "function"
    },
    {
      "inputs": [],
      "name": "slippageFactorUL",
      "outputs": [
        {
          "internalType": "uint256",
          "name": "",
          "type": "uint256"
        }
      ],
      "stateMutability": "view",
      "type": "function"
    },
    {
      "inputs": [],
      "name": "token0Address",
      "outputs": [
        {
          "internalType": "address",
          "name": "",
          "type": "address"
        }
      ],
      "stateMutability": "view",
      "type": "function"
    },
    {
      "inputs": [
        {
          "internalType": "uint256",
          "name": "",
          "type": "uint256"
        }
      ],
      "name": "token0ToEarnedPath",
      "outputs": [
        {
          "internalType": "address",
          "name": "",
          "type": "address"
        }
      ],
      "stateMutability": "view",
      "type": "function"
    },
    {
      "inputs": [
        {
          "internalType": "uint256",
          "name": "",
          "type": "uint256"
        }
      ],
      "name": "token0ToUSDCPath",
      "outputs": [
        {
          "internalType": "address",
          "name": "",
          "type": "address"
        }
      ],
      "stateMutability": "view",
      "type": "function"
    },
    {
      "inputs": [],
      "name": "token1Address",
      "outputs": [
        {
          "internalType": "address",
          "name": "",
          "type": "address"
        }
      ],
      "stateMutability": "view",
      "type": "function"
    },
    {
      "inputs": [
        {
          "internalType": "uint256",
          "name": "",
          "type": "uint256"
        }
      ],
      "name": "token1ToEarnedPath",
      "outputs": [
        {
          "internalType": "address",
          "name": "",
          "type": "address"
        }
      ],
      "stateMutability": "view",
      "type": "function"
    },
    {
      "inputs": [
        {
          "internalType": "uint256",
          "name": "",
          "type": "uint256"
        }
      ],
      "name": "token1ToUSDCPath",
      "outputs": [
        {
          "internalType": "address",
          "name": "",
          "type": "address"
        }
      ],
      "stateMutability": "view",
      "type": "function"
    },
    {
      "inputs": [],
      "name": "token2Address",
      "outputs": [
        {
          "internalType": "address",
          "name": "",
          "type": "address"
        }
      ],
      "stateMutability": "view",
      "type": "function"
    },
    {
      "inputs": [],
      "name": "token3Address",
      "outputs": [
        {
          "internalType": "address",
          "name": "",
          "type": "address"
        }
      ],
      "stateMutability": "view",
      "type": "function"
    },
    {
      "inputs": [],
      "name": "tokenUSDCAddress",
      "outputs": [
        {
          "internalType": "address",
          "name": "",
          "type": "address"
        }
      ],
      "stateMutability": "view",
      "type": "function"
    },
    {
      "inputs": [
        {
          "internalType": "address",
          "name": "newOwner",
          "type": "address"
        }
      ],
      "name": "transferOwnership",
      "outputs": [],
      "stateMutability": "nonpayable",
      "type": "function"
    },
    {
      "inputs": [],
      "name": "uniPoolAddress",
      "outputs": [
        {
          "internalType": "address",
          "name": "",
          "type": "address"
        }
      ],
      "stateMutability": "view",
      "type": "function"
    },
    {
      "inputs": [],
      "name": "uniRouterAddress",
      "outputs": [
        {
          "internalType": "address",
          "name": "",
          "type": "address"
        }
      ],
      "stateMutability": "view",
      "type": "function"
    },
    {
      "inputs": [],
      "name": "unpause",
      "outputs": [],
      "stateMutability": "nonpayable",
      "type": "function"
    },
    {
      "inputs": [
        {
          "internalType": "address",
          "name": "",
          "type": "address"
        }
      ],
      "name": "userShares",
      "outputs": [
        {
          "internalType": "uint256",
          "name": "",
          "type": "uint256"
        }
      ],
      "stateMutability": "view",
      "type": "function"
    },
    {
      "inputs": [],
      "name": "wantAddress",
      "outputs": [
        {
          "internalType": "address",
          "name": "",
          "type": "address"
        }
      ],
      "stateMutability": "view",
      "type": "function"
    },
    {
      "inputs": [],
      "name": "wantLockedTotal",
      "outputs": [
        {
          "internalType": "uint256",
          "name": "",
          "type": "uint256"
        }
      ],
      "stateMutability": "view",
      "type": "function"
    },
    {
      "inputs": [],
      "name": "withdrawFeeFactor",
      "outputs": [
        {
          "internalType": "uint256",
          "name": "",
          "type": "uint256"
        }
      ],
      "stateMutability": "view",
      "type": "function"
    },
    {
      "inputs": [],
      "name": "withdrawFeeFactorLL",
      "outputs": [
        {
          "internalType": "uint256",
          "name": "",
          "type": "uint256"
        }
      ],
      "stateMutability": "view",
      "type": "function"
    },
    {
      "inputs": [],
      "name": "withdrawFeeFactorMax",
      "outputs": [
        {
          "internalType": "uint256",
          "name": "",
          "type": "uint256"
        }
      ],
      "stateMutability": "view",
      "type": "function"
    },
    {
      "inputs": [],
      "name": "xChainEarningsLockEndBlock",
      "outputs": [
        {
          "internalType": "uint256",
          "name": "",
          "type": "uint256"
        }
      ],
      "stateMutability": "view",
      "type": "function"
    },
    {
      "inputs": [],
      "name": "xChainEarningsLockStartBlock",
      "outputs": [
        {
          "internalType": "uint256",
          "name": "",
          "type": "uint256"
        }
      ],
      "stateMutability": "view",
      "type": "function"
    },
    {
      "inputs": [],
      "name": "zorroControllerAddress",
      "outputs": [
        {
          "internalType": "address",
          "name": "",
          "type": "address"
        }
      ],
      "stateMutability": "view",
      "type": "function"
    },
    {
      "inputs": [
        {
          "internalType": "address",
          "name": "_account",
          "type": "address"
        },
        {
          "internalType": "uint256",
          "name": "_wantAmt",
          "type": "uint256"
        }
      ],
      "name": "depositWantToken",
      "outputs": [
        {
          "internalType": "uint256",
          "name": "",
          "type": "uint256"
        }
      ],
      "stateMutability": "nonpayable",
      "type": "function"
    },
    {
      "inputs": [
        {
          "internalType": "uint256",
          "name": "_amountUSDC",
          "type": "uint256"
        },
        {
          "internalType": "uint256",
          "name": "_maxMarketMovementAllowed",
          "type": "uint256"
        }
      ],
      "name": "exchangeUSDForWantToken",
      "outputs": [
        {
          "internalType": "uint256",
          "name": "",
          "type": "uint256"
        }
      ],
      "stateMutability": "nonpayable",
      "type": "function"
    },
    {
      "inputs": [],
      "name": "farm",
      "outputs": [],
      "stateMutability": "nonpayable",
      "type": "function"
    },
    {
      "inputs": [
        {
          "internalType": "address",
          "name": "_account",
          "type": "address"
        },
        {
          "internalType": "bool",
          "name": "_harvestOnly",
          "type": "bool"
        }
      ],
      "name": "withdrawWantToken",
      "outputs": [
        {
          "internalType": "uint256",
          "name": "",
          "type": "uint256"
        }
      ],
      "stateMutability": "nonpayable",
      "type": "function"
    },
    {
      "inputs": [
        {
          "internalType": "uint256",
          "name": "_amount",
          "type": "uint256"
        },
        {
          "internalType": "uint256",
          "name": "_maxMarketMovementAllowed",
          "type": "uint256"
        }
      ],
      "name": "exchangeWantTokenForUSD",
      "outputs": [
        {
          "internalType": "uint256",
          "name": "",
          "type": "uint256"
        }
      ],
      "stateMutability": "nonpayable",
      "type": "function"
    },
    {
      "inputs": [
        {
          "internalType": "uint256",
          "name": "_maxMarketMovementAllowed",
          "type": "uint256"
        }
      ],
      "name": "earn",
      "outputs": [],
      "stateMutability": "nonpayable",
      "type": "function"
    }
  ],
  "bytecode": "0x6080604052600c8054600160a060020a03191661dead1790556012805460a060020a60ff02191674010000000000000000000000000000000000000000179055600060138190556014819055601581905560178190556018819055601955612706601a55612710601b556103b6601c553480156200007c57600080fd5b5060405162004738380380620047388339810160408190526200009f91620008dc565b620000c5620000b664010000000062000520810204565b64010000000062000524810204565b600180556002805460ff191690558a518b90600090620000e957620000e962000a73565b6020026020010151601260006101000a815481600160a060020a030219169083600160a060020a031602179055508a6001815181106200012d576200012d62000a73565b6020026020010151601060006101000a815481600160a060020a030219169083600160a060020a031602179055508a60028151811062000171576200017162000a73565b6020026020010151601160006101000a815481600160a060020a030219169083600160a060020a031602179055508a600381518110620001b557620001b562000a73565b6020026020010151600560006101000a815481600160a060020a030219169083600160a060020a031602179055508a600481518110620001f957620001f962000a73565b6020026020010151600660006101000a815481600160a060020a030219169083600160a060020a031602179055508a6005815181106200023d576200023d62000a73565b6020026020010151600760006101000a815481600160a060020a030219169083600160a060020a031602179055508a60068151811062000281576200028162000a73565b6020026020010151600a60006101000a815481600160a060020a030219169083600160a060020a031602179055508a600781518110620002c557620002c562000a73565b602090810291909101015160048054600160a060020a031916600160a060020a0390921691909117905560038a90556002805462ffff0019166101008b15150262ff0000191617620100008a1515021763ff00000019166301000000891515021790558a518b90600890811062000340576200034062000a73565b602090810291909101810151600e8054600160a060020a031916600160a060020a0390921691909117905586516200037f91601d9190890190620006d7565b5084516200039590601e906020880190620006d7565b508351620003ab90601f906020870190620006d7565b508251620003c09060209081860190620006d7565b508151620003d6906021906020850190620006d7565b5080600081518110620003ed57620003ed62000a73565b60200260200101516017819055508a60098151811062000411576200041162000a73565b6020026020010151600d60006101000a815481600160a060020a030219169083600160a060020a031602179055508060018151811062000455576200045562000a73565b60200260200101516018819055508a600a8151811062000479576200047962000a73565b6020026020010151600c60006101000a815481600160a060020a030219169083600160a060020a0316021790555080600281518110620004bd57620004bd62000a73565b6020026020010151601a8190555080600381518110620004e157620004e162000a73565b6020908102919091010151601b556010546200050f90600160a060020a031664010000000062000574810204565b505050505050505050505062000aa2565b3390565b60008054600160a060020a03838116600160a060020a0319831681178455604051919092169283917f8be0079c531659141344cd1fd0a4f28419497f9722a3daafe3b4186f6b6457e09190a35050565b6200058764010000000062000520810204565b600160a060020a0316620005a3640100000000620006c8810204565b600160a060020a03161462000619576040517f08c379a000000000000000000000000000000000000000000000000000000000815260206004820181905260248201527f4f776e61626c653a2063616c6c6572206973206e6f7420746865206f776e657260448201526064015b60405180910390fd5b600160a060020a038116620006b1576040517f08c379a000000000000000000000000000000000000000000000000000000000815260206004820152602660248201527f4f776e61626c653a206e6577206f776e657220697320746865207a65726f206160448201527f6464726573730000000000000000000000000000000000000000000000000000606482015260840162000610565b620006c58164010000000062000524810204565b50565b600054600160a060020a031690565b8280548282559060005260206000209081019282156200072f579160200282015b828111156200072f5782518254600160a060020a031916600160a060020a03909116178255602090920191600190910190620006f8565b506200073d92915062000741565b5090565b5b808211156200073d576000815560010162000742565b7f4e487b7100000000000000000000000000000000000000000000000000000000600052604160045260246000fd5b604051601f8201601f191681016001604060020a0381118282101715620007b257620007b262000758565b604052919050565b60006001604060020a03821115620007d657620007d662000758565b5060209081020190565b600082601f830112620007f257600080fd5b815160206200080b6200080583620007ba565b62000787565b828152918102840181019181810190868411156200082857600080fd5b8286015b848110156200085c578051600160a060020a03811681146200084e5760008081fd5b83529183019183016200082c565b509695505050505050565b805180151581146200087857600080fd5b919050565b600082601f8301126200088f57600080fd5b81516020620008a26200080583620007ba565b82815291810284018101918181019086841115620008bf57600080fd5b8286015b848110156200085c5780518352918301918301620008c3565b60008060008060008060008060008060006101608c8e031215620008ff57600080fd5b8b516001604060020a038111156200091657600080fd5b620009248e828f01620007e0565b9b505060208c015199506200093c60408d0162000867565b98506200094c60608d0162000867565b97506200095c60808d0162000867565b965060a08c01516001604060020a038111156200097857600080fd5b620009868e828f01620007e0565b96505060c08c01516001604060020a03811115620009a357600080fd5b620009b18e828f01620007e0565b95505060e08c01516001604060020a03811115620009ce57600080fd5b620009dc8e828f01620007e0565b9450506101008c01516001604060020a03811115620009fa57600080fd5b62000a088e828f01620007e0565b9350506101208c01516001604060020a0381111562000a2657600080fd5b62000a348e828f01620007e0565b9250506101408c01516001604060020a0381111562000a5257600080fd5b62000a608e828f016200087d565b9150509295989b509295989b9093969950565b7f4e487b7100000000000000000000000000000000000000000000000000000000600052603260045260246000fd5b613c868062000ab26000396000f3fe608060405234801561001057600080fd5b506004361061044c5760003560e060020a9004806381e62ea311610245578063c302a4d01161013f578063e5eb715c116100c7578063efa028081161008b578063efa02808146108a4578063f1068454146108b6578063f2fde38b146108bf578063f5046a29146108d2578063ffbd3b1f146108e557600080fd5b8063e5eb715c14610858578063e65a01171461086b578063e71984741461087e578063e7a0367914610891578063ee50dc341461054c57600080fd5b8063c8e3d18b1161010e578063c8e3d18b146107ec578063cfad57a2146107ff578063d7cb416f14610812578063de69b3aa14610825578063e502a88d1461084557600080fd5b8063c302a4d0146106d3578063c4dcb590146107b3578063c5c97cbf146107c6578063c6efd577146107d957600080fd5b80639b6017e5116101cd578063b77050e711610191578063b77050e71461075f578063b86c5f5314610772578063ba0bb4ab14610785578063c0973eed14610798578063c11c2e92146107ab57600080fd5b80639b6017e5146107275780639fc33a9f14610730578063b1414dbb14610743578063b3545c0114610530578063b74cd2421461075657600080fd5b8063866b201811610214578063866b2018146106d35780638906758d146106dc5780638b9102dc146106ef5780638da5cb5b1461070357806396e9aff81461071457600080fd5b806381e62ea31461069c5780638456cb59146106af57806384fa32ac146106b757806385f02dd6146106ca57600080fd5b806346008a07116103565780635dc05fd5116102de57806368f54162116102a257806368f5416214610652578063693a090b1461065b57806370d5ae051461066e578063715018a6146106815780637ff36fbe1461068957600080fd5b80635dc05fd5146106065780636392ab1214610619578063648794a41461062c57806367057b6c1461054c57806367206d401461063f57600080fd5b80634ce54ddb116103255780634ce54ddb146105c25780634d9f7bb21461054c5780634e2cb8b6146105d55780635c975abb146105e85780635da79d63146105f357600080fd5b806346008a0714610580578063495af8ce146105935780634b0e7216146105a65780634c8fc2d6146105b957600080fd5b8063211019d7116103d957806336e9332d116103a857806336e9332d1461055e5780633f4ba83a1461056657806342da4eb31461056e57806343788cd21461054c57806344a3955e1461057757600080fd5b8063211019d7146105305780632456af82146105395780632717eff31461054c5780633214471f1461055557600080fd5b80630daef321116104205780630daef321146104cd5780630fa4e01e1461050257806312462c5e1461050b5780631334903f1461051e578063178a8d071461052757600080fd5b80627a2ae314610451578063061c7d48146104815780630873cb91146104985780630b6bb30b146104b8575b600080fd5b61046461045f366004613613565b6108ee565b604051600160a060020a0390911681526020015b60405180910390f35b61048a61012c81565b604051908152602001610478565b61048a6104a6366004613613565b602a6020526000908152604090205481565b6104cb6104c636600461363a565b610918565b005b6012546104f29074010000000000000000000000000000000000000000900460ff1681565b6040519015158152602001610478565b61048a60135481565b60095461046490600160a060020a031681565b61048a601a5481565b61048a60185481565b61048a61032081565b60085461046490600160a060020a031681565b61048a61271081565b61048a60195481565b6104cb6109c8565b6104cb610a01565b61048a60145481565b61048a60155481565b60125461046490600160a060020a031681565b61048a6105a1366004613673565b610a38565b6104cb6105b43660046136aa565b610cf7565b61048a60295481565b600b5461046490600160a060020a031681565b6104646105e3366004613613565b610d7f565b60025460ff166104f2565b6104cb6106013660046136aa565b610d8f565b6002546104f29062010000900460ff1681565b610464610627366004613613565b610e17565b61048a61063a3660046136c5565b610e27565b6104cb61064d3660046136e7565b611461565b61048a601b5481565b600e5461046490600160a060020a031681565b600c5461046490600160a060020a031681565b6104cb611569565b60065461046490600160a060020a031681565b6104646106aa366004613613565b6115d0565b6104cb6115e0565b6104cb6106c5366004613723565b611615565b61048a60175481565b61048a6126ac81565b6104cb6106ea3660046136aa565b611904565b6002546104f2906301000000900460ff1681565b600054600160a060020a0316610464565b610464610722366004613613565b61198c565b61048a60285481565b60045461046490600160a060020a031681565b60105461046490600160a060020a031681565b61048a6103e381565b61046461076d366004613613565b61199c565b610464610780366004613613565b6119ac565b61048a61079336600461375e565b6119bc565b600d5461046490600160a060020a031681565b6104cb611c30565b600f5461046490600160a060020a031681565b6104646107d4366004613613565b611f75565b6104646107e7366004613613565b611f85565b6104646107fa366004613613565b611f95565b6104cb61080d3660046136aa565b611fa5565b60075461046490600160a060020a031681565b61048a6108333660046136aa565b60166020526000908152604090205481565b61048a6108533660046136c5565b61202d565b610464610866366004613613565b61254c565b6104cb610879366004613613565b61255c565b600a5461046490600160a060020a031681565b60055461046490600160a060020a031681565b6002546104f290610100900460ff1681565b61048a60035481565b6104cb6108cd3660046136aa565b612a9e565b60115461046490600160a060020a031681565b61048a601c5481565b602181815481106108fe57600080fd5b600091825260209091200154600160a060020a0316905081565b601254600160a060020a0316331461094e5760405160e560020a62461bcd02815260040161094590613788565b60405180910390fd5b60128054821515740100000000000000000000000000000000000000000274ff0000000000000000000000000000000000000000199091161790556040517f125177ac7b8930dac1e59c2b30b1b6b9191b30af40cf6bbb5d20fec4d44be60f906109bd90831515815260200190565b60405180910390a150565b600260015414156109ee5760405160e560020a62461bcd028152600401610945906137bf565b60026001556109fb612b86565b60018055565b601254600160a060020a03163314610a2e5760405160e560020a62461bcd02815260040161094590613788565b610a36612d2b565b565b601054600090600160a060020a031633600160a060020a031614610a715760405160e560020a62461bcd028152600401610945906137f6565b60026001541415610a975760405160e560020a62461bcd028152600401610945906137bf565b6002600155610aa860025460ff1690565b15610ac85760405160e560020a62461bcd0281526004016109459061382d565b600082610b7057600160a060020a038481166000908152601660205260409081902054601554600554925160e060020a6370a082310281523060048201529193610b6c939192610b6692869216906370a0823190602401602060405180830381865afa158015610b3c573d6000803e3d6000fd5b505050506040513d601f19601f82011682018060405250810190610b609190613864565b90612dca565b90612ddd565b9150505b6000610b8d601454610b6660155485612dca90919063ffffffff16565b9050601554811115610b9e57506015545b601554610bab9082612de9565b601555600160a060020a038516600090815260166020526040902054610bd19082612de9565b600160a060020a038616600090815260166020526040902055601b546127101115610c1457610c11612710610b66601b5485612dca90919063ffffffff16565b91505b6002546301000000900460ff1615610c2f57610c2f82612df5565b60055460405160e060020a6370a08231028152306004820152600091600160a060020a0316906370a0823190602401602060405180830381865afa158015610c7b573d6000803e3d6000fd5b505050506040513d601f19601f82011682018060405250810190610c9f9190613864565b905080831115610cad578092505b826014541015610cbd5760145492505b601454610cca9084612de9565b601455601054600554610cea91600160a060020a03918216911685612e9d565b5060018055949350505050565b601254600160a060020a03163314610d245760405160e560020a62461bcd02815260040161094590613788565b600c805473ffffffffffffffffffffffffffffffffffffffff1916600160a060020a0383169081179091556040519081527f3ecbf062376d993d334e6f24b395e87d817f07f4d122b5ab84cef6367ad60cf3906020016109bd565b602781815481106108fe57600080fd5b601254600160a060020a03163314610dbc5760405160e560020a62461bcd02815260040161094590613788565b600e805473ffffffffffffffffffffffffffffffffffffffff1916600160a060020a0383169081179091556040519081527f384f1dcb79da4071839c471d7c81884a43fb946a527f3661fdee5904adc8f657906020016109bd565b601d81815481106108fe57600080fd5b601054600090600160a060020a031633600160a060020a031614610e605760405160e560020a62461bcd028152600401610945906137f6565b60025460ff1615610e865760405160e560020a62461bcd0281526004016109459061382d565b600654600f5460405160e060020a6370a08231028152600160a060020a03918216600482015260009291909116906370a0823190602401602060405180830381865afa158015610eda573d6000803e3d6000fd5b505050506040513d601f19601f82011682018060405250810190610efe9190613864565b600754600f5460405160e060020a6370a08231028152600160a060020a0391821660048201529293506000929116906370a0823190602401602060405180830381865afa158015610f53573d6000803e3d6000fd5b505050506040513d601f19601f82011682018060405250810190610f779190613864565b90506000600f60009054906101000a9004600160a060020a0316600160a060020a03166318160ddd6040518163ffffffff1660e060020a028152600401602060405180830381865afa158015610fd1573d6000803e3d6000fd5b505050506040513d601f19601f82011682018060405250810190610ff59190613864565b9050600061100f6103e8610b6688610b6086838d8b612dca565b905060006110296103e8610b6689610b6087838e8b612dca565b600e54600654600754929350600160a060020a039182169263baa2abde9291821691168b86863061105c42610258612f46565b60405163ffffffff891660e060020a028152600160a060020a039788166004820152958716602487015260448601949094526064850192909252608484015290921660a482015260c481019190915260e40160408051808303816000875af11580156110cc573d6000803e3d6000fd5b505050506040513d601f19601f820116820180604052508101906110f0919061387d565b505060065460405160e060020a6370a08231028152306004820152600091600160a060020a0316906370a0823190602401602060405180830381865afa15801561113e573d6000803e3d6000fd5b505050506040513d601f19601f820116820180604052508101906111629190613864565b60075460405160e060020a6370a08231028152306004820152919250600091600160a060020a03909116906370a0823190602401602060405180830381865afa1580156111b3573d6000803e3d6000fd5b505050506040513d601f19601f820116820180604052508101906111d79190613864565b90506060600660009054906101000a9004600160a060020a031681600081518110611204576112046138a1565b600160a060020a039283166020918202929092010152600b54825191169082906001908110611235576112356138a1565b600160a060020a039283166020918202929092010152600e5473__SafeSwapUni___________________________9163709128be9116858d853061127b42610258612f46565b6040518763ffffffff1660e060020a02815260040161129f969594939291906138d0565b60006040518083038186803b1580156112b757600080fd5b505af41580156112cb573d6000803e3d6000fd5b505050506060600760009054906101000a9004600160a060020a0316816000815181106112fa576112fa6138a1565b600160a060020a039283166020918202929092010152600b5482519116908290600190811061132b5761132b6138a1565b600160a060020a039283166020918202929092010152600e5473__SafeSwapUni___________________________9163709128be9116858e853061137142610258612f46565b6040518763ffffffff1660e060020a028152600401611395969594939291906138d0565b60006040518083038186803b1580156113ad57600080fd5b505af41580156113c1573d6000803e3d6000fd5b5050600b5460405160e060020a6370a0823102815230600482015260009350600160a060020a0390911691506370a0823190602401602060405180830381865afa158015611413573d6000803e3d6000fd5b505050506040513d601f19601f820116820180604052508101906114379190613864565b600b5490915061145190600160a060020a03163383612e9d565b9c9b505050505050505050505050565b601254600160a060020a0316331461148e5760405160e560020a62461bcd02815260040161094590613788565b600a54600160a060020a03848116911614156114ef5760405160e560020a62461bcd02815260206004820152600560248201527f21736166650000000000000000000000000000000000000000000000000000006044820152606401610945565b600554600160a060020a03848116911614156115505760405160e560020a62461bcd02815260206004820152600560248201527f21736166650000000000000000000000000000000000000000000000000000006044820152606401610945565b611564600160a060020a0384168284612e9d565b505050565b600054600160a060020a031633146115c65760405160e560020a62461bcd02815260206004820181905260248201527f4f776e61626c653a2063616c6c6572206973206e6f7420746865206f776e65726044820152606401610945565b610a366000612f52565b602381815481106108fe57600080fd5b601254600160a060020a0316331461160d5760405160e560020a62461bcd02815260040161094590613788565b610a36612faf565b601254600160a060020a031633146116425760405160e560020a62461bcd02815260040161094590613788565b6126ac8510156116975760405160e560020a62461bcd02815260206004820152601a60248201527f5f656e7472616e6365466565466163746f7220746f6f206c6f770000000000006044820152606401610945565b6127108511156116ec5760405160e560020a62461bcd02815260206004820152601b60248201527f5f656e7472616e6365466565466163746f7220746f6f206869676800000000006044820152606401610945565b601a8590556126ac8410156117465760405160e560020a62461bcd02815260206004820152601a60248201527f5f7769746864726177466565466163746f7220746f6f206c6f770000000000006044820152606401610945565b61271084111561179b5760405160e560020a62461bcd02815260206004820152601b60248201527f5f7769746864726177466565466163746f7220746f6f206869676800000000006044820152606401610945565b601b84905561012c8311156117f55760405160e560020a62461bcd02815260206004820152601760248201527f5f636f6e74726f6c6c657246656520746f6f20686967680000000000000000006044820152606401610945565b601783905561032082111561184f5760405160e560020a62461bcd02815260206004820152601560248201527f5f6275794261636b5261746520746f6f206869676800000000000000000000006044820152606401610945565b60188290556103e38111156118a95760405160e560020a62461bcd02815260206004820152601860248201527f5f736c697070616765466163746f7220746f6f206869676800000000000000006044820152606401610945565b601c819055604080518681526020810186905290810184905260608101839052608081018290527fc67e0b149a57a70fa44a531a46c2c6d8e0b242fa12f459f250012c3a5987d29a9060a00160405180910390a15050505050565b601254600160a060020a031633146119315760405160e560020a62461bcd02815260040161094590613788565b600d805473ffffffffffffffffffffffffffffffffffffffff1916600160a060020a0383169081179091556040519081527fa69f1931be99336e049905baa11d21ed44204d7686e46b4344404d80d47c2988906020016109bd565b601f81815481106108fe57600080fd5b602081815481106108fe57600080fd5b602481815481106108fe57600080fd5b601054600090600160a060020a031633600160a060020a0316146119f55760405160e560020a62461bcd028152600401610945906137f6565b60026001541415611a1b5760405160e560020a62461bcd028152600401610945906137bf565b6002600155611a2c60025460ff1690565b15611a4c5760405160e560020a62461bcd0281526004016109459061382d565b60055460405160e060020a6370a08231028152306004820152600091600160a060020a0316906370a0823190602401602060405180830381865afa158015611a98573d6000803e3d6000fd5b505050506040513d601f19601f82011682018060405250810190611abc9190613864565b905060008311611b115760405160e560020a62461bcd02815260206004820152601e60248201527f57616e7420746f6b656e206465706f736974206d757374206265203e203000006044820152606401610945565b80831115611b645760405160e560020a62461bcd02815260206004820152601c60248201527f457863656564732057616e742062616c20666f72206465706f736974000000006044820152606401610945565b601454839015801590611b7957506000601554115b15611ba857611ba5612710610b66601454610b66601a54610b606015548b612dca90919063ffffffff16565b90505b601554611bb59082612f46565b601555600160a060020a038516600090815260166020526040902054611bdb9082612f46565b600160a060020a0386166000908152601660205260409020556002546301000000900460ff1615611c1357611c0e612b86565b611c24565b601454611c209085612f46565b6014555b60018055949350505050565b60025460ff1615611c565760405160e560020a62461bcd0281526004016109459061382d565b6002546301000000900460ff16611c825760405160e560020a62461bcd02815260040161094590613943565b600254610100900460ff1615611cdd5760405160e560020a62461bcd02815260206004820152600d60248201527f6973434f52455374616b696e67000000000000000000000000000000000000006044820152606401610945565b60065460405160e060020a6370a08231028152306004820152600091600160a060020a0316906370a0823190602401602060405180830381865afa158015611d29573d6000803e3d6000fd5b505050506040513d601f19601f82011682018060405250810190611d4d9190613864565b600a54600654919250600160a060020a03918216911614801590611d715750600081115b15611e2757600e54600654611d9391600160a060020a0391821691168361300a565b600e54601c5473__SafeSwapUni___________________________9163709128be91600160a060020a03909116908490602030611dd242610258612f46565b6040518763ffffffff1660e060020a028152600401611df69695949392919061397a565b60006040518083038186803b158015611e0e57600080fd5b505af4158015611e22573d6000803e3d6000fd5b505050505b60075460405160e060020a6370a08231028152306004820152600091600160a060020a0316906370a0823190602401602060405180830381865afa158015611e73573d6000803e3d6000fd5b505050506040513d601f19601f82011682018060405250810190611e979190613864565b600a54600754919250600160a060020a03918216911614801590611ebb5750600081115b15611f7157600e54600754611edd91600160a060020a0391821691168361300a565b600e54601c5473__SafeSwapUni___________________________9163709128be91600160a060020a03909116908490602130611f1c42610258612f46565b6040518763ffffffff1660e060020a028152600401611f409695949392919061397a565b60006040518083038186803b158015611f5857600080fd5b505af4158015611f6c573d6000803e3d6000fd5b505050505b5050565b602581815481106108fe57600080fd5b602681815481106108fe57600080fd5b601e81815481106108fe57600080fd5b601254600160a060020a03163314611fd25760405160e560020a62461bcd02815260040161094590613788565b6012805473ffffffffffffffffffffffffffffffffffffffff1916600160a060020a0383169081179091556040519081527f91a8c1cc2d4a3bb60738481947a00cbb9899c822916694cf8bb1d68172fdcd54906020016109bd565b601054600090600160a060020a031633600160a060020a0316146120665760405160e560020a62461bcd028152600401610945906137f6565b60025460ff161561208c5760405160e560020a62461bcd0281526004016109459061382d565b600b5460405160e060020a6370a08231028152306004820152600091600160a060020a0316906370a0823190602401602060405180830381865afa1580156120d8573d6000803e3d6000fd5b505050506040513d601f19601f820116820180604052508101906120fc9190613864565b9050600084116121515760405160e560020a62461bcd02815260206004820152601860248201527f55534443206465706f736974206d757374206265203e203000000000000000006044820152606401610945565b808411156121a45760405160e560020a62461bcd02815260206004820152601960248201527f5553444320646573697265642065786365656465642062616c000000000000006044820152606401610945565b600e5473__SafeSwapUni___________________________9063709128be90600160a060020a03166121d7876002612ddd565b866024306121e742610258612f46565b6040518763ffffffff1660e060020a02815260040161220b9695949392919061397a565b60006040518083038186803b15801561222357600080fd5b505af4158015612237573d6000803e3d6000fd5b5050600e5473__SafeSwapUni___________________________925063709128be9150600160a060020a031661226e876002612ddd565b8660253061227e42610258612f46565b6040518763ffffffff1660e060020a0281526004016122a29695949392919061397a565b60006040518083038186803b1580156122ba57600080fd5b505af41580156122ce573d6000803e3d6000fd5b505060065460405160e060020a6370a0823102815230600482015260009350600160a060020a0390911691506370a0823190602401602060405180830381865afa158015612320573d6000803e3d6000fd5b505050506040513d601f19601f820116820180604052508101906123449190613864565b60075460405160e060020a6370a08231028152306004820152919250600091600160a060020a03909116906370a0823190602401602060405180830381865afa158015612395573d6000803e3d6000fd5b505050506040513d601f19601f820116820180604052508101906123b99190613864565b600e546006549192506123d991600160a060020a0390811691168461300a565b600e546007546123f691600160a060020a0391821691168361300a565b600e54600654600754600160a060020a039283169263e8e33700928116911685856124276103e8610b66848e612dca565b6124376103e8610b668a8f612dca565b3061244442610258612f46565b6040518963ffffffff1660e060020a02815260040161246a9897969594939291906139d8565b6060604051808303816000875af1158015612489573d6000803e3d6000fd5b505050506040513d601f19601f820116820180604052508101906124ad9190613a21565b505060055460405160e060020a6370a0823102815230600482015260009250600160a060020a03909116906370a0823190602401602060405180830381865afa1580156124fe573d6000803e3d6000fd5b505050506040513d601f19601f820116820180604052508101906125229190613864565b60105460055491925061254291600160a060020a03908116911683612e9d565b9695505050505050565b602281815481106108fe57600080fd5b600260015414156125825760405160e560020a62461bcd028152600401610945906137bf565b600260015561259360025460ff1690565b156125b35760405160e560020a62461bcd0281526004016109459061382d565b6002546301000000900460ff166125df5760405160e560020a62461bcd02815260040161094590613943565b60125474010000000000000000000000000000000000000000900460ff161561262f57601254600160a060020a0316331461262f5760405160e560020a62461bcd02815260040161094590613788565b6126396000612df5565b600a5460405160e060020a6370a08231028152306004820152600091600160a060020a0316906370a0823190602401602060405180830381865afa158015612685573d6000803e3d6000fd5b505050506040513d601f19601f820116820180604052508101906126a99190613864565b90506126b4816130f4565b90506126bf81613153565b600254909150610100900460ff16806126e0575060025462010000900460ff165b156126f757436013556126f1612b86565b50612a97565b600e54600a5461271591600160a060020a0391821691166000613238565b600e54600a5461273291600160a060020a0391821691168361300a565b600654600a54600160a060020a039081169116146127e457600e5473__SafeSwapUni___________________________9063709128be90600160a060020a031661277d846002612ddd565b601c54601e3061278f42610258612f46565b6040518763ffffffff1660e060020a0281526004016127b39695949392919061397a565b60006040518083038186803b1580156127cb57600080fd5b505af41580156127df573d6000803e3d6000fd5b505050505b600754600a54600160a060020a0390811691161461289657600e5473__SafeSwapUni___________________________9063709128be90600160a060020a031661282f846002612ddd565b601c54601f3061284142610258612f46565b6040518763ffffffff1660e060020a0281526004016128659695949392919061397a565b60006040518083038186803b15801561287d57600080fd5b505af4158015612891573d6000803e3d6000fd5b505050505b60065460405160e060020a6370a08231028152306004820152600091600160a060020a0316906370a0823190602401602060405180830381865afa1580156128e2573d6000803e3d6000fd5b505050506040513d601f19601f820116820180604052508101906129069190613864565b60075460405160e060020a6370a08231028152306004820152919250600091600160a060020a03909116906370a0823190602401602060405180830381865afa158015612957573d6000803e3d6000fd5b505050506040513d601f19601f8201168201806040525081019061297b9190613864565b905060008211801561298d5750600081115b15612a8757600e546006546129af91600160a060020a0391821691168461300a565b600e546007546129cc91600160a060020a0391821691168361300a565b600e54600654600754600160a060020a039283169263e8e33700928116911685856129fd6103e8610b66848d612dca565b612a0d6103e8610b668a8e612dca565b30612a1a42610258612f46565b6040518963ffffffff1660e060020a028152600401612a409897969594939291906139d8565b6060604051808303816000875af1158015612a5f573d6000803e3d6000fd5b505050506040513d601f19601f82011682018060405250810190612a839190613a21565b5050505b43601355612a93612b86565b5050505b5060018055565b600054600160a060020a03163314612afb5760405160e560020a62461bcd02815260206004820181905260248201527f4f776e61626c653a2063616c6c6572206973206e6f7420746865206f776e65726044820152606401610945565b600160a060020a038116612b7a5760405160e560020a62461bcd02815260206004820152602660248201527f4f776e61626c653a206e6577206f776e657220697320746865207a65726f206160448201527f64647265737300000000000000000000000000000000000000000000000000006064820152608401610945565b612b8381612f52565b50565b6002546301000000900460ff16612bb25760405160e560020a62461bcd02815260040161094590613943565b60055460405160e060020a6370a08231028152306004820152600091600160a060020a0316906370a0823190602401602060405180830381865afa158015612bfe573d6000803e3d6000fd5b505050506040513d601f19601f82011682018060405250810190612c229190613864565b601454909150612c329082612f46565b601455600454600554612c5291600160a060020a0391821691168361300a565b600254610100900460ff1615612cdb57600480546040517f41441d3b000000000000000000000000000000000000000000000000000000008152918201839052600160a060020a0316906341441d3b906024015b600060405180830381600087803b158015612cc057600080fd5b505af1158015612cd4573d6000803e3d6000fd5b5050505050565b600480546003546040517fe2bbb1580000000000000000000000000000000000000000000000000000000081529283015260248201839052600160a060020a03169063e2bbb15890604401612ca6565b60025460ff16612d805760405160e560020a62461bcd02815260206004820152601460248201527f5061757361626c653a206e6f74207061757365640000000000000000000000006044820152606401610945565b6002805460ff191690557f5db9ee0a495bf2e6ff9c91a7834c1ba4fdd244a5e8aa4e537bd38aeae4b073aa335b604051600160a060020a03909116815260200160405180910390a1565b6000612dd68284613a7e565b9392505050565b6000612dd68284613a9d565b6000612dd68284613ad8565b600254610100900460ff1615612e4d57600480546040517f1058d281000000000000000000000000000000000000000000000000000000008152918201839052600160a060020a031690631058d28190602401612ca6565b600480546003546040517f441a3e700000000000000000000000000000000000000000000000000000000081529283015260248201839052600160a060020a03169063441a3e7090604401612ca6565b604051600160a060020a0383166024820152604481018290526115649084907fa9059cbb00000000000000000000000000000000000000000000000000000000906064015b60408051601f198184030181529190526020810180517bffffffffffffffffffffffffffffffffffffffffffffffffffffffff167fffffffff0000000000000000000000000000000000000000000000000000000090931692909217909152613389565b6000612dd68284613aef565b60008054600160a060020a0383811673ffffffffffffffffffffffffffffffffffffffff19831681178455604051919092169283917f8be0079c531659141344cd1fd0a4f28419497f9722a3daafe3b4186f6b6457e09190a35050565b60025460ff1615612fd55760405160e560020a62461bcd0281526004016109459061382d565b6002805460ff191660011790557f62e78cea01bee320cd4e420270b5ea74000d11b0c9f74754ebdbfc544b05a258612dad3390565b6040517fdd62ed3e000000000000000000000000000000000000000000000000000000008152306004820152600160a060020a038381166024830152600091839186169063dd62ed3e90604401602060405180830381865afa158015613074573d6000803e3d6000fd5b505050506040513d601f19601f820116820180604052508101906130989190613864565b6130a29190613aef565b604051600160a060020a0385166024820152604481018290529091506130ee9085907f095ea7b30000000000000000000000000000000000000000000000000000000090606401612ee2565b50505050565b6000811561314f576017541561314f576000613121612710610b6660175486612dca90919063ffffffff16565b600d54600a5491925061314191600160a060020a03908116911683612e9d565b61314b8382612de9565b9250505b5090565b60185460009081901561317e5761317b612710610b6660185486612dca90919063ffffffff16565b90505b6000601054600354600a546040517f270d9de4000000000000000000000000000000000000000000000000000000008152600160a060020a0393841693849363270d9de4936131e0939192169088908890601d90602290602390600401613b50565b600060405180830381600087803b1580156131fa57600080fd5b505af115801561320e573d6000803e3d6000fd5b5050505061322f826132298588612de990919063ffffffff16565b90612de9565b95945050505050565b8015806132cb57506040517fdd62ed3e000000000000000000000000000000000000000000000000000000008152306004820152600160a060020a03838116602483015284169063dd62ed3e90604401602060405180830381865afa1580156132a5573d6000803e3d6000fd5b505050506040513d601f19601f820116820180604052508101906132c99190613864565b155b6133405760405160e560020a62461bcd02815260206004820152603660248201527f5361666545524332303a20617070726f76652066726f6d206e6f6e2d7a65726f60448201527f20746f206e6f6e2d7a65726f20616c6c6f77616e6365000000000000000000006064820152608401610945565b604051600160a060020a0383166024820152604481018290526115649084907f095ea7b30000000000000000000000000000000000000000000000000000000090606401612ee2565b60006133de826040518060400160405280602081526020017f5361666545524332303a206c6f772d6c6576656c2063616c6c206661696c656481525085600160a060020a03166134719092919063ffffffff16565b80519091501561156457808060200190518101906133fc9190613bb8565b6115645760405160e560020a62461bcd02815260206004820152602a60248201527f5361666545524332303a204552433230206f7065726174696f6e20646964206e60448201527f6f742073756363656564000000000000000000000000000000000000000000006064820152608401610945565b60606134808484600085613488565b949350505050565b606030318311156135045760405160e560020a62461bcd02815260206004820152602660248201527f416464726573733a20696e73756666696369656e742062616c616e636520666f60448201527f722063616c6c00000000000000000000000000000000000000000000000000006064820152608401610945565b600160a060020a0385163b61355e5760405160e560020a62461bcd02815260206004820152601d60248201527f416464726573733a2063616c6c20746f206e6f6e2d636f6e74726163740000006044820152606401610945565b60008086600160a060020a0316858760405161357a9190613c01565b60006040518083038185875af1925050503d80600081146135b7576040519150601f19603f3d011682016040523d82523d6000602084013e6135bc565b606091505b50915091506135cc8282866135d7565b979650505050505050565b606083156135e6575081612dd6565b8251156135f65782518084602001fd5b8160405160e560020a62461bcd0281526004016109459190613c1d565b60006020828403121561362557600080fd5b5035919050565b8015158114612b8357600080fd5b60006020828403121561364c57600080fd5b8135612dd68161362c565b8035600160a060020a038116811461366e57600080fd5b919050565b6000806040838503121561368657600080fd5b61368f83613657565b9150602083013561369f8161362c565b809150509250929050565b6000602082840312156136bc57600080fd5b612dd682613657565b600080604083850312156136d857600080fd5b50508035926020909101359150565b6000806000606084860312156136fc57600080fd5b61370584613657565b92506020840135915061371a60408501613657565b90509250925092565b600080600080600060a0868803121561373b57600080fd5b505083359560208501359550604085013594606081013594506080013592509050565b6000806040838503121561377157600080fd5b61377a83613657565b946020939093013593505050565b60208082526004908201527f21676f7600000000000000000000000000000000000000000000000000000000604082015260600190565b6020808252601f908201527f5265656e7472616e637947756172643a207265656e7472616e742063616c6c00604082015260600190565b60208082526010908201527f217a6f72726f436f6e74726f6c6c657200000000000000000000000000000000604082015260600190565b60208082526010908201527f5061757361626c653a2070617573656400000000000000000000000000000000604082015260600190565b60006020828403121561387657600080fd5b5051919050565b6000806040838503121561389057600080fd5b505080516020909101519092909150565b7f4e487b7100000000000000000000000000000000000000000000000000000000600052603260045260246000fd5b600060c08201600160a060020a03808a1684526020898186015288604086015260c0606086015282885180855260e087019150828a01945060005b8181101561392957855185168352948301949183019160010161390b565b505096909116608085015250505060a00152949350505050565b6020808252600c908201527f2169735a6f72726f436f6d700000000000000000000000000000000000000000604082015260600190565b600060c08201600160a060020a03808a1684526020898186015288604086015260c0606086015282885480855260e0870191508960005282600020945060005b818110156139295785548516835260019586019592840192016139ba565b600160a060020a039889168152968816602088015260408701959095526060860193909352608085019190915260a084015290921660c082015260e08101919091526101000190565b600080600060608486031215613a3657600080fd5b8351925060208401519150604084015190509250925092565b7f4e487b7100000000000000000000000000000000000000000000000000000000600052601160045260246000fd5b6000816000190483118215151615613a9857613a98613a4f565b500290565b600082613ad3577f4e487b7100000000000000000000000000000000000000000000000000000000600052601260045260246000fd5b500490565b600082821015613aea57613aea613a4f565b500390565b60008219821115613b0257613b02613a4f565b500190565b6000815480845260208085019450836000528060002060005b83811015613b45578154600160a060020a031687529582019560019182019101613b20565b509495945050505050565b878152600160a060020a038716602082015285604082015284606082015260e060808201526000613b8460e0830186613b07565b82810360a0840152613b968186613b07565b905082810360c0840152613baa8185613b07565b9a9950505050505050505050565b600060208284031215613bca57600080fd5b8151612dd68161362c565b60005b83811015613bf0578181015183820152602001613bd8565b838111156130ee5750506000910152565b60008251613c13818460208701613bd5565b9190910192915050565b6020815260008251806020840152613c3c816040850160208701613bd5565b601f01601f1916919091016040019291505056fea26469706673582212208301dacc7cf312835cd85557f994c1c91331b95584487ecebdc277326b057f4164736f6c634300080a0033",
  "immutableReferences": {},
  "source": "// SPDX-License-Identifier: MIT\n\npragma solidity ^0.8.0;\n\nimport \"@openzeppelin/contracts/token/ERC20/ERC20.sol\";\n\nimport \"@openzeppelin/contracts/utils/Address.sol\";\n\nimport \"../interfaces/IAMMFarm.sol\";\n\nimport \"../interfaces/IAMMRouter02.sol\";\n\nimport \"./_VaultBase.sol\";\n\nimport \"@openzeppelin/contracts/token/ERC20/IERC20.sol\";\n\nimport \"@openzeppelin/contracts/token/ERC20/utils/SafeERC20.sol\";\n\nimport \"@openzeppelin/contracts/utils/math/SafeMath.sol\";\n\nimport \"../libraries/SafeSwap.sol\";\n\n\n/// @title VaultStandardAMM: abstract base class for all PancakeSwap style AMM contracts. Maximizes yield in AMM.\ncontract VaultStandardAMM is VaultBase {\n    /* Libraries */\n    using SafeERC20 for IERC20;\n    using SafeMath for uint256;\n    using SafeSwapUni for IAMMRouter02;\n\n    /* Constructor */\n\n    constructor(\n        address[] memory _addresses,\n        uint256 _pid,\n        bool _isCOREStaking,\n        bool _isSingleAssetDeposit,\n        bool _isZorroComp,\n        address[] memory _earnedToZORROPath,\n        address[] memory _earnedToToken0Path,\n        address[] memory _earnedToToken1Path,\n        address[] memory _token0ToEarnedPath,\n        address[] memory _token1ToEarnedPath,\n        uint256[] memory _fees // [_controllerFee, _buyBackRate, _entranceFeeFactor, _withdrawFeeFactor]\n    ) {\n        govAddress = _addresses[0];\n        zorroControllerAddress = _addresses[1];\n        ZORROAddress = _addresses[2];\n\n        wantAddress = _addresses[3];\n        token0Address = _addresses[4];\n        token1Address = _addresses[5];\n        earnedAddress = _addresses[6];\n\n        farmContractAddress = _addresses[7];\n        pid = _pid;\n        isCOREStaking = _isCOREStaking;\n        isSingleAssetDeposit = _isSingleAssetDeposit;\n        isZorroComp = _isZorroComp;\n\n        uniRouterAddress = _addresses[8];\n        earnedToZORROPath = _earnedToZORROPath;\n        earnedToToken0Path = _earnedToToken0Path;\n        earnedToToken1Path = _earnedToToken1Path;\n        token0ToEarnedPath = _token0ToEarnedPath;\n        token1ToEarnedPath = _token1ToEarnedPath;\n\n        controllerFee = _fees[0];\n        rewardsAddress = _addresses[9];\n        buyBackRate = _fees[1];\n        burnAddress = _addresses[10];\n        entranceFeeFactor = _fees[2];\n        withdrawFeeFactor = _fees[3];\n\n        transferOwnership(zorroControllerAddress);\n    }\n\n    /* Investment Actions */\n\n    /// @notice Receives new deposits from user\n    /// @param _account The address of the end user account making the deposit\n    /// @param _wantAmt The amount of Want token to deposit (must already be transferred)\n    /// @return Number of shares added\n    function depositWantToken(address _account, uint256 _wantAmt)\n        public\n        override\n        onlyZorroController\n        nonReentrant\n        whenNotPaused\n        returns (uint256)\n    {\n        // Get balance of want token (the deposited amount)\n        uint256 _wantBal = IERC20(wantAddress).balanceOf(address(this));\n        // Check to see if Want token was actually deposited, Want amount already present\n        require(_wantAmt > 0, \"Want token deposit must be > 0\");\n        require(_wantAmt <= _wantBal, \"Exceeds Want bal for deposit\");\n\n        // Set sharesAdded to the Want token amount specified\n        uint256 sharesAdded = _wantAmt;\n        // If the total number of shares and want tokens locked both exceed 0, the shares added is the proportion of Want tokens locked,\n        // discounted by the entrance fee\n        if (wantLockedTotal > 0 && sharesTotal > 0) {\n            sharesAdded = _wantAmt\n                .mul(sharesTotal)\n                .mul(entranceFeeFactor)\n                .div(wantLockedTotal)\n                .div(entranceFeeFactorMax);\n        }\n        // Increment the shares\n        sharesTotal = sharesTotal.add(sharesAdded);\n        userShares[_account] = userShares[_account].add(sharesAdded);\n\n        if (isZorroComp) {\n            // If this contract is meant for Autocompounding, start to farm the staked token\n            _farm();\n        } else {\n            // Otherwise, simply increment the quantity of total Want tokens locked\n            wantLockedTotal = wantLockedTotal.add(_wantAmt);\n        }\n\n        return sharesAdded;\n    }\n\n    /// @notice Performs necessary operations to convert USDC into Want token and transfer back to sender\n    /// @param _amountUSDC The amount of USDC to exchange for Want token (must already be deposited on this contract)\n    /// @param _maxMarketMovementAllowed The max slippage allowed. 1000 = 0 %, 995 = 0.5%, etc.\n    /// @return Amount of Want token obtained\n    function exchangeUSDForWantToken(\n        uint256 _amountUSDC,\n        uint256 _maxMarketMovementAllowed\n    ) public override onlyZorroController whenNotPaused returns (uint256) {\n        // TODO: Take in current market prices (oracle)\n\n        // Get balance of deposited USDC\n        uint256 _balUSDC = IERC20(tokenUSDCAddress).balanceOf(address(this));\n        // Check that USDC was actually deposited\n        require(_amountUSDC > 0, \"USDC deposit must be > 0\");\n        require(_amountUSDC <= _balUSDC, \"USDC desired exceeded bal\");\n\n        // Swap USDC for token0\n        IAMMRouter02(uniRouterAddress).safeSwap(\n            _amountUSDC.div(2),\n            _maxMarketMovementAllowed,\n            USDCToToken0Path,\n            address(this),\n            block.timestamp.add(600)\n        );\n\n        // Swap USDC for token1 (if applicable)\n        IAMMRouter02(uniRouterAddress).safeSwap(\n            _amountUSDC.div(2),\n            _maxMarketMovementAllowed,\n            USDCToToken1Path,\n            address(this),\n            block.timestamp.add(600)\n        );\n\n        // Deposit token0, token1 into LP pool to get Want token (i.e. LP token)\n        uint256 token0Amt = IERC20(token0Address).balanceOf(address(this));\n        uint256 token1Amt = IERC20(token1Address).balanceOf(address(this));\n        IERC20(token0Address).safeIncreaseAllowance(\n                uniRouterAddress,\n                token0Amt\n            );\n        IERC20(token1Address).safeIncreaseAllowance(\n            uniRouterAddress,\n            token1Amt\n        );\n        IAMMRouter02(uniRouterAddress).addLiquidity(\n            token0Address,\n            token1Address,\n            token0Amt,\n            token1Amt,\n            token0Amt.mul(_maxMarketMovementAllowed).div(1000),\n            token1Amt.mul(_maxMarketMovementAllowed).div(1000),\n            address(this),\n            block.timestamp.add(600)\n        );\n\n        // TODO: Account for pool with only one token\n\n        // Calculate resulting want token balance\n        uint256 _wantAmt = IERC20(wantAddress).balanceOf(address(this));\n\n        // Transfer back to sender\n        IERC20(wantAddress).safeTransfer(zorroControllerAddress, _wantAmt);\n\n        return _wantAmt;\n    }\n\n    /// @notice Public function for farming Want token.\n    function farm() public nonReentrant {\n        _farm();\n    }\n\n    /// @notice Internal function for farming Want token. Responsible for staking Want token in a MasterChef/MasterApe-like contract\n    function _farm() internal {\n        // Farming should only occur if this contract is set for autocompounding\n        require(isZorroComp, \"!isZorroComp\");\n\n        // Get the Want token stored on this contract\n        uint256 wantAmt = IERC20(wantAddress).balanceOf(address(this));\n        // Increment the total Want tokens locked into this contract\n        wantLockedTotal = wantLockedTotal.add(wantAmt);\n        // Allow the farm contract (e.g. MasterChef/MasterApe) the ability to transfer up to the Want amount\n        IERC20(wantAddress).safeIncreaseAllowance(farmContractAddress, wantAmt);\n\n        if (isCOREStaking) {\n            // If this contract is meant for staking a core asset of the underlying protocol (e.g. CAKE on Pancakeswap, BANANA on Apeswap),\n            // Stake that token in a single-token-staking vault on the Farm contract\n            IAMMFarm(farmContractAddress).enterStaking(wantAmt);\n        } else {\n            // Otherwise deposit the Want tokens in the Farm contract for the appropriate pool ID (PID)\n            IAMMFarm(farmContractAddress).deposit(pid, wantAmt);\n        }\n    }\n\n    /// @notice Internal function for unfarming Want token. Responsible for unstaking Want token from MasterChef/MasterApe contracts\n    /// @param _wantAmt the amount of Want tokens to withdraw. If 0, will only harvest and not withdraw\n    function _unfarm(uint256 _wantAmt) internal {\n        if (isCOREStaking) {\n            // If this is contract is meant for staking a core assets of the underlying protocol,\n            // simply un-stake the asset from the single-token-staking vault on the Farm contract\n            IAMMFarm(farmContractAddress).leaveStaking(_wantAmt); // Just for CAKE staking, we dont use withdraw()\n        } else {\n            // Otherwise simply withdraw the Want tokens from the Farm contract pool\n            IAMMFarm(farmContractAddress).withdraw(pid, _wantAmt);\n        }\n    }\n\n    /// @notice Fully withdraw Want tokens from the Farm contract (100% withdrawals only)\n    /// @param _account address of user\n    /// @param _harvestOnly If true, will only harvest Zorro tokens but not do a withdrawal\n    /// @return The number of shares removed\n    function withdrawWantToken(address _account, bool _harvestOnly)\n        public\n        onlyZorroController\n        nonReentrant\n        whenNotPaused\n        override\n        returns (uint256)\n    {\n        uint256 _wantAmt = 0;\n        if (!_harvestOnly) {\n            uint256 _userNumShares = userShares[_account];\n            _wantAmt = IERC20(wantAddress).balanceOf(address(this)).mul(_userNumShares).div(sharesTotal);\n        }\n\n        // Shares removed is proportional to the % of total Want tokens locked that _wantAmt represents\n        uint256 sharesRemoved = _wantAmt.mul(sharesTotal).div(wantLockedTotal);\n        // Safety: cap the shares to the total number of shares\n        if (sharesRemoved > sharesTotal) {\n            sharesRemoved = sharesTotal;\n        }\n        // Decrement the total shares by the sharesRemoved\n        sharesTotal = sharesTotal.sub(sharesRemoved);\n        userShares[_account] = userShares[_account].sub(sharesRemoved);\n\n        // If a withdrawal fee is specified, discount the _wantAmt by the withdrawal fee\n        if (withdrawFeeFactor < withdrawFeeFactorMax) {\n            _wantAmt = _wantAmt.mul(withdrawFeeFactor).div(\n                withdrawFeeFactorMax\n            );\n        }\n\n        // If this contract is designated for auto compounding, unfarm the Want tokens\n        if (isZorroComp) {\n            _unfarm(_wantAmt);\n        }\n\n        // Safety: Check balance of this contract's Want tokens held, and cap _wantAmt to that value\n        uint256 _wantBal = IERC20(wantAddress).balanceOf(address(this));\n        if (_wantAmt > _wantBal) {\n            _wantAmt = _wantBal;\n        }\n        // Safety: cap _wantAmt at the total quantity of Want tokens locked\n        if (wantLockedTotal < _wantAmt) {\n            _wantAmt = wantLockedTotal;\n        }\n\n        // Decrement the total Want locked tokens by the _wantAmt\n        wantLockedTotal = wantLockedTotal.sub(_wantAmt);\n\n        // Finally, transfer the want amount from this contract, back to the ZorroController contract\n        IERC20(wantAddress).safeTransfer(zorroControllerAddress, _wantAmt);\n\n        return sharesRemoved;\n    }\n\n    /// @notice Converts Want token back into USD to be ready for withdrawal, transfers back to sender\n    /// @param _amount The Want token quantity to exchange\n    /// @param _maxMarketMovementAllowed The max slippage allowed for swaps. 1000 = 0 %, 995 = 0.5%, etc.\n    /// @return Amount of USDC token obtained\n    function exchangeWantTokenForUSD(\n        uint256 _amount,\n        uint256 _maxMarketMovementAllowed\n    ) public virtual override onlyZorroController whenNotPaused returns (uint256) {\n        // TODO: Take in current market prices (oracle)\n\n        // Exit LP pool \n        uint256 balance0 = IERC20(token0Address).balanceOf(uniPoolAddress);\n        uint256 balance1 = IERC20(token1Address).balanceOf(uniPoolAddress);\n        uint256 totalSupply = IERC20(uniPoolAddress).totalSupply();\n        uint256 amount0Min = (_amount.mul(balance0).div(totalSupply)).mul(_maxMarketMovementAllowed).div(1000);\n        uint256 amount1Min = (_amount.mul(balance1).div(totalSupply)).mul(_maxMarketMovementAllowed).div(1000);\n        IAMMRouter02(uniRouterAddress).removeLiquidity(\n            token0Address, \n            token1Address,  \n            _amount,  \n            amount0Min,  \n            amount1Min,  \n            address(this),  \n            block.timestamp.add(600)\n        );\n\n        // Swap tokens back to USDC\n        uint256 token0Amt = IERC20(token0Address).balanceOf(address(this));\n        uint256 token1Amt = IERC20(token1Address).balanceOf(address(this));\n        // Swap token0 for USDC\n        address[] memory token0ToUSDCPath;\n        token0ToUSDCPath[0] = token0Address;\n        token0ToUSDCPath[1] = tokenUSDCAddress;\n        IAMMRouter02(uniRouterAddress).safeSwap(\n            token0Amt,\n            _maxMarketMovementAllowed,\n            token0ToUSDCPath,\n            address(this),\n            block.timestamp.add(600)\n        );\n\n        // Swap token1 for USDC\n        address[] memory token1ToUSDCPath;\n        token1ToUSDCPath[0] = token1Address;\n        token1ToUSDCPath[1] = tokenUSDCAddress;\n        IAMMRouter02(uniRouterAddress).safeSwap(\n            token1Amt,\n            _maxMarketMovementAllowed,\n            token1ToUSDCPath,\n            address(this),\n            block.timestamp.add(600)\n        );\n\n        // TODO - account for pool with only one token\n\n        uint256 amountUSDC = IERC20(tokenUSDCAddress).balanceOf(address(this));\n\n        // Transfer back to sender\n        IERC20(tokenUSDCAddress).safeTransfer(msg.sender, amountUSDC);\n\n        return amountUSDC;\n    }\n\n    /// @notice The main compounding (earn) function. Reinvests profits since the last earn event.\n    /// @param _maxMarketMovementAllowed The max slippage allowed. 1000 = 0 %, 995 = 0.5%, etc.\n    function earn(uint256 _maxMarketMovementAllowed) public override nonReentrant whenNotPaused {\n        // TODO: Take in price oracle to perform safe swaps\n        // Only to be run if this contract is configured for auto-comnpounding\n        require(isZorroComp, \"!isZorroComp\");\n        // If onlyGov is set to true, only allow to proceed if the current caller is the govAddress\n        if (onlyGov) {\n            require(msg.sender == govAddress, \"!gov\");\n        }\n\n        // Harvest farm tokens\n        _unfarm(0);\n\n        // Get the balance of the Earned token on this contract (CAKE, BANANA, etc.)\n        uint256 earnedAmt = IERC20(earnedAddress).balanceOf(address(this));\n\n        // Reassign value of earned amount after distributing fees\n        earnedAmt = _distributeFees(earnedAmt);\n        // Reassign value of earned amount after buying back a certain amount of Zorro and sharing revenue w/ ZOR stakeholders\n        earnedAmt = _buyBackAndRevShare(earnedAmt);\n\n        // If staking a single token (CAKE, BANANA), farm that token and exit\n        if (isCOREStaking || isSingleAssetDeposit) {\n            // Update the last earn block\n            lastEarnBlock = block.number;\n            _farm();\n            return;\n        }\n\n        // Approve the router contract\n        IERC20(earnedAddress).safeApprove(uniRouterAddress, 0);\n        // Allow the router contract to spen up to earnedAmt\n        IERC20(earnedAddress).safeIncreaseAllowance(\n            uniRouterAddress,\n            earnedAmt\n        );\n\n        // Swap Earned token to token0 if token0 is not the Earned token\n        if (earnedAddress != token0Address) {\n            // Swap half earned to token0\n            IAMMRouter02(uniRouterAddress).safeSwap(\n                earnedAmt.div(2),\n                slippageFactor,\n                earnedToToken0Path,\n                address(this),\n                block.timestamp.add(600)\n            );\n        }\n\n        // Swap Earned token to token1 if token0 is not the Earned token\n        if (earnedAddress != token1Address) {\n            // Swap half earned to token1\n            IAMMRouter02(uniRouterAddress).safeSwap(\n                earnedAmt.div(2),\n                slippageFactor,\n                earnedToToken1Path,\n                address(this),\n                block.timestamp.add(600)\n            );\n        }\n\n        // Get values of tokens 0 and 1\n        uint256 token0Amt = IERC20(token0Address).balanceOf(address(this));\n        uint256 token1Amt = IERC20(token1Address).balanceOf(address(this));\n        // Provided that token0 and token1 are both > 0, add liquidity\n        if (token0Amt > 0 && token1Amt > 0) {\n            // Increase the allowance of the router to spend token0\n            IERC20(token0Address).safeIncreaseAllowance(\n                uniRouterAddress,\n                token0Amt\n            );\n            // Increase the allowance of the router to spend token1\n            IERC20(token1Address).safeIncreaseAllowance(\n                uniRouterAddress,\n                token1Amt\n            );\n            // Add liquidity\n            IAMMRouter02(uniRouterAddress).addLiquidity(\n                token0Address,\n                token1Address,\n                token0Amt,\n                token1Amt,\n                token0Amt.mul(_maxMarketMovementAllowed).div(1000),\n                token1Amt.mul(_maxMarketMovementAllowed).div(1000),\n                address(this),\n                block.timestamp.add(600)\n            );\n        }\n\n        // Update last earned block\n        lastEarnBlock = block.number;\n\n        // Farm Want token\n        _farm();\n    }\n}\n",
  "sourcePath": "/Users/kristophm/Documents/workspace/zorro-protocol/contracts/vaults/VaultStandardAMM.sol",
  "compiler": {
    "name": "solc",
    "version": "0.8.10+commit.fc410830.Emscripten.clang"
  },
  "schemaVersion": "3.4.4",
  "updatedAt": "2022-03-09T04:43:35.859Z",
  "devdoc": {
    "kind": "dev",
    "methods": {
      "depositWantToken(address,uint256)": {
        "params": {
          "_account": "The address of the end user account making the deposit",
          "_wantAmt": "The amount of Want token to deposit (must already be transferred)"
        },
        "returns": {
          "_0": "Number of shares added"
        }
      },
      "earn(uint256)": {
        "params": {
          "_maxMarketMovementAllowed": "The max slippage allowed. 1000 = 0 %, 995 = 0.5%, etc."
        }
      },
      "exchangeUSDForWantToken(uint256,uint256)": {
        "params": {
          "_amountUSDC": "The amount of USDC to exchange for Want token (must already be deposited on this contract)",
          "_maxMarketMovementAllowed": "The max slippage allowed. 1000 = 0 %, 995 = 0.5%, etc."
        },
        "returns": {
          "_0": "Amount of Want token obtained"
        }
      },
      "exchangeWantTokenForUSD(uint256,uint256)": {
        "params": {
          "_amount": "The Want token quantity to exchange",
          "_maxMarketMovementAllowed": "The max slippage allowed for swaps. 1000 = 0 %, 995 = 0.5%, etc."
        },
        "returns": {
          "_0": "Amount of USDC token obtained"
        }
      },
      "inCaseTokensGetStuck(address,uint256,address)": {
        "params": {
          "_amount": "The amount of the tokens to transfer",
          "_to": "The address to transfer tokens to",
          "_token": "Address of the ERC20 token to transfer"
        }
      },
      "owner()": {
        "details": "Returns the address of the current owner."
      },
      "paused()": {
        "details": "Returns true if the contract is paused, and false otherwise."
      },
      "renounceOwnership()": {
        "details": "Leaves the contract without owner. It will not be possible to call `onlyOwner` functions anymore. Can only be called by the current owner. NOTE: Renouncing ownership will leave the contract without an owner, thereby removing any functionality that is only available to the owner."
      },
      "setBurnAddress(address)": {
        "params": {
          "_burnAddress": "the burn address"
        }
      },
      "setGov(address)": {
        "params": {
          "_govAddress": "The new gov address"
        }
      },
      "setOnlyGov(bool)": {
        "params": {
          "_onlyGov": "whether onlyGov should be enforced"
        }
      },
      "setRewardsAddress(address)": {
        "params": {
          "_rewardsAddress": "the address of the Rewards contract"
        }
      },
      "setSettings(uint256,uint256,uint256,uint256,uint256)": {
        "params": {
          "_buyBackRate": "Buy back rate fee numerator",
          "_controllerFee": "Controller fee numerator",
          "_entranceFeeFactor": "Entrance fee numerator (higher means smaller percentage)",
          "_slippageFactor": "Slippage factor fee numerator",
          "_withdrawFeeFactor": "Withdrawal fee numerator (higher means smaller percentage)"
        }
      },
      "transferOwnership(address)": {
        "details": "Transfers ownership of the contract to a new account (`newOwner`). Can only be called by the current owner."
      },
      "withdrawWantToken(address,bool)": {
        "params": {
          "_account": "address of user",
          "_harvestOnly": "If true, will only harvest Zorro tokens but not do a withdrawal"
        },
        "returns": {
          "_0": "The number of shares removed"
        }
      }
    },
    "title": "VaultStandardAMM: abstract base class for all PancakeSwap style AMM contracts. Maximizes yield in AMM.",
    "version": 1
  },
  "userdoc": {
    "kind": "user",
    "methods": {
      "convertDustToEarned()": {
        "notice": "Converts dust tokens into earned tokens, which will be reinvested on the next earn()"
      },
      "depositWantToken(address,uint256)": {
        "notice": "Receives new deposits from user"
      },
      "earn(uint256)": {
        "notice": "The main compounding (earn) function. Reinvests profits since the last earn event."
      },
      "exchangeUSDForWantToken(uint256,uint256)": {
        "notice": "Performs necessary operations to convert USDC into Want token and transfer back to sender"
      },
      "exchangeWantTokenForUSD(uint256,uint256)": {
        "notice": "Converts Want token back into USD to be ready for withdrawal, transfers back to sender"
      },
      "farm()": {
        "notice": "Public function for farming Want token."
      },
      "inCaseTokensGetStuck(address,uint256,address)": {
        "notice": "Safely transfer ERC20 tokens stuck in this contract to a specified address"
      },
      "pause()": {
        "notice": "Pause contract"
      },
      "setBurnAddress(address)": {
        "notice": "Set the burn address (for removing tokens out of existence)"
      },
      "setGov(address)": {
        "notice": "Set governor address"
      },
      "setOnlyGov(bool)": {
        "notice": "Set onlyGov property"
      },
      "setRewardsAddress(address)": {
        "notice": "set the address of the contract to send controller fees to"
      },
      "setSettings(uint256,uint256,uint256,uint256,uint256)": {
        "notice": "Configure key fee parameters"
      },
      "setUniRouterAddress(address)": {
        "notice": "Set the address of the periphery/router contract (Pancakeswap/Apeswap/etc.)"
      },
      "unpause()": {
        "notice": "Unpause contract"
      },
      "withdrawWantToken(address,bool)": {
        "notice": "Fully withdraw Want tokens from the Farm contract (100% withdrawals only)"
      }
    },
    "version": 1
  }
}