{
  "contractName": "VaultApeLendingETH",
  "abi": [
    {
      "anonymous": false,
      "inputs": [
        {
          "indexed": true,
          "internalType": "uint256",
          "name": "_amount",
          "type": "uint256"
        }
      ],
      "name": "Buyback",
      "type": "event"
    },
    {
      "anonymous": false,
      "inputs": [
        {
          "indexed": true,
          "internalType": "address",
          "name": "previousOwner",
          "type": "address"
        },
        {
          "indexed": true,
          "internalType": "address",
          "name": "newOwner",
          "type": "address"
        }
      ],
      "name": "OwnershipTransferred",
      "type": "event"
    },
    {
      "anonymous": false,
      "inputs": [
        {
          "indexed": false,
          "internalType": "address",
          "name": "account",
          "type": "address"
        }
      ],
      "name": "Paused",
      "type": "event"
    },
    {
      "anonymous": false,
      "inputs": [
        {
          "indexed": true,
          "internalType": "uint256",
          "name": "_amount",
          "type": "uint256"
        }
      ],
      "name": "RevShare",
      "type": "event"
    },
    {
      "anonymous": false,
      "inputs": [
        {
          "indexed": false,
          "internalType": "address",
          "name": "_govAddress",
          "type": "address"
        }
      ],
      "name": "SetGov",
      "type": "event"
    },
    {
      "anonymous": false,
      "inputs": [
        {
          "indexed": false,
          "internalType": "bool",
          "name": "_onlyGov",
          "type": "bool"
        }
      ],
      "name": "SetOnlyGov",
      "type": "event"
    },
    {
      "anonymous": false,
      "inputs": [
        {
          "indexed": false,
          "internalType": "uint256",
          "name": "_entranceFeeFactor",
          "type": "uint256"
        },
        {
          "indexed": false,
          "internalType": "uint256",
          "name": "_withdrawFeeFactor",
          "type": "uint256"
        },
        {
          "indexed": false,
          "internalType": "uint256",
          "name": "_controllerFee",
          "type": "uint256"
        },
        {
          "indexed": false,
          "internalType": "uint256",
          "name": "_buyBackRate",
          "type": "uint256"
        },
        {
          "indexed": false,
          "internalType": "uint256",
          "name": "_revShareRate",
          "type": "uint256"
        }
      ],
      "name": "SetSettings",
      "type": "event"
    },
    {
      "anonymous": false,
      "inputs": [
        {
          "indexed": false,
          "internalType": "address",
          "name": "_treasuryAddress",
          "type": "address"
        }
      ],
      "name": "SetTreasury",
      "type": "event"
    },
    {
      "anonymous": false,
      "inputs": [
        {
          "indexed": false,
          "internalType": "address",
          "name": "_uniRouterAddress",
          "type": "address"
        }
      ],
      "name": "SetUniRouterAddress",
      "type": "event"
    },
    {
      "anonymous": false,
      "inputs": [
        {
          "indexed": false,
          "internalType": "address",
          "name": "account",
          "type": "address"
        }
      ],
      "name": "Unpaused",
      "type": "event"
    },
    {
      "inputs": [],
      "name": "ZORROAddress",
      "outputs": [
        {
          "internalType": "address",
          "name": "",
          "type": "address"
        }
      ],
      "stateMutability": "view",
      "type": "function"
    },
    {
      "inputs": [],
      "name": "borrowBal",
      "outputs": [
        {
          "internalType": "uint256",
          "name": "",
          "type": "uint256"
        }
      ],
      "stateMutability": "view",
      "type": "function"
    },
    {
      "inputs": [],
      "name": "burnAddress",
      "outputs": [
        {
          "internalType": "address",
          "name": "",
          "type": "address"
        }
      ],
      "stateMutability": "view",
      "type": "function"
    },
    {
      "inputs": [],
      "name": "buyBackRate",
      "outputs": [
        {
          "internalType": "uint256",
          "name": "",
          "type": "uint256"
        }
      ],
      "stateMutability": "view",
      "type": "function"
    },
    {
      "inputs": [],
      "name": "buyBackRateUL",
      "outputs": [
        {
          "internalType": "uint256",
          "name": "",
          "type": "uint256"
        }
      ],
      "stateMutability": "view",
      "type": "function"
    },
    {
      "inputs": [],
      "name": "claimLendingRewards",
      "outputs": [],
      "stateMutability": "nonpayable",
      "type": "function"
    },
    {
      "inputs": [],
      "name": "comptrollerAddress",
      "outputs": [
        {
          "internalType": "address",
          "name": "",
          "type": "address"
        }
      ],
      "stateMutability": "view",
      "type": "function"
    },
    {
      "inputs": [],
      "name": "controllerFee",
      "outputs": [
        {
          "internalType": "uint256",
          "name": "",
          "type": "uint256"
        }
      ],
      "stateMutability": "view",
      "type": "function"
    },
    {
      "inputs": [],
      "name": "controllerFeeUL",
      "outputs": [
        {
          "internalType": "uint256",
          "name": "",
          "type": "uint256"
        }
      ],
      "stateMutability": "view",
      "type": "function"
    },
    {
      "inputs": [],
      "name": "defaultStablecoin",
      "outputs": [
        {
          "internalType": "address",
          "name": "",
          "type": "address"
        }
      ],
      "stateMutability": "view",
      "type": "function"
    },
    {
      "inputs": [
        {
          "internalType": "uint256",
          "name": "_wantAmt",
          "type": "uint256"
        }
      ],
      "name": "depositWantToken",
      "outputs": [
        {
          "internalType": "uint256",
          "name": "sharesAdded",
          "type": "uint256"
        }
      ],
      "stateMutability": "nonpayable",
      "type": "function"
    },
    {
      "inputs": [],
      "name": "dstGasForEarningsCall",
      "outputs": [
        {
          "internalType": "uint256",
          "name": "",
          "type": "uint256"
        }
      ],
      "stateMutability": "view",
      "type": "function"
    },
    {
      "inputs": [],
      "name": "earn",
      "outputs": [],
      "stateMutability": "nonpayable",
      "type": "function"
    },
    {
      "inputs": [],
      "name": "earnedAddress",
      "outputs": [
        {
          "internalType": "address",
          "name": "",
          "type": "address"
        }
      ],
      "stateMutability": "view",
      "type": "function"
    },
    {
      "inputs": [],
      "name": "entranceFeeFactor",
      "outputs": [
        {
          "internalType": "uint256",
          "name": "",
          "type": "uint256"
        }
      ],
      "stateMutability": "view",
      "type": "function"
    },
    {
      "inputs": [],
      "name": "entranceFeeFactorLL",
      "outputs": [
        {
          "internalType": "uint256",
          "name": "",
          "type": "uint256"
        }
      ],
      "stateMutability": "view",
      "type": "function"
    },
    {
      "inputs": [
        {
          "internalType": "uint256",
          "name": "_amountUSD",
          "type": "uint256"
        },
        {
          "internalType": "uint256",
          "name": "_maxMarketMovementAllowed",
          "type": "uint256"
        }
      ],
      "name": "exchangeUSDForWantToken",
      "outputs": [
        {
          "internalType": "uint256",
          "name": "wantObtained",
          "type": "uint256"
        }
      ],
      "stateMutability": "nonpayable",
      "type": "function"
    },
    {
      "inputs": [
        {
          "internalType": "uint256",
          "name": "_amount",
          "type": "uint256"
        },
        {
          "internalType": "uint256",
          "name": "_maxMarketMovementAllowed",
          "type": "uint256"
        }
      ],
      "name": "exchangeWantTokenForUSD",
      "outputs": [
        {
          "internalType": "uint256",
          "name": "usdObtained",
          "type": "uint256"
        }
      ],
      "stateMutability": "nonpayable",
      "type": "function"
    },
    {
      "inputs": [],
      "name": "farm",
      "outputs": [],
      "stateMutability": "nonpayable",
      "type": "function"
    },
    {
      "inputs": [],
      "name": "farmContractAddress",
      "outputs": [
        {
          "internalType": "address",
          "name": "",
          "type": "address"
        }
      ],
      "stateMutability": "view",
      "type": "function"
    },
    {
      "inputs": [],
      "name": "feeDenominator",
      "outputs": [
        {
          "internalType": "uint256",
          "name": "",
          "type": "uint256"
        }
      ],
      "stateMutability": "view",
      "type": "function"
    },
    {
      "inputs": [],
      "name": "govAddress",
      "outputs": [
        {
          "internalType": "address",
          "name": "",
          "type": "address"
        }
      ],
      "stateMutability": "view",
      "type": "function"
    },
    {
      "inputs": [
        {
          "internalType": "address",
          "name": "_token",
          "type": "address"
        },
        {
          "internalType": "uint256",
          "name": "_amount",
          "type": "uint256"
        },
        {
          "internalType": "address",
          "name": "_to",
          "type": "address"
        }
      ],
      "name": "inCaseTokensGetStuck",
      "outputs": [],
      "stateMutability": "nonpayable",
      "type": "function"
    },
    {
      "inputs": [
        {
          "internalType": "address",
          "name": "_timelockOwner",
          "type": "address"
        },
        {
          "components": [
            {
              "components": [
                {
                  "components": [
                    {
                      "internalType": "uint256",
                      "name": "pid",
                      "type": "uint256"
                    },
                    {
                      "internalType": "bool",
                      "name": "isHomeChain",
                      "type": "bool"
                    }
                  ],
                  "internalType": "struct IVault.VaultConfig",
                  "name": "config",
                  "type": "tuple"
                },
                {
                  "components": [
                    {
                      "internalType": "address",
                      "name": "govAddress",
                      "type": "address"
                    },
                    {
                      "internalType": "address",
                      "name": "zorroControllerAddress",
                      "type": "address"
                    },
                    {
                      "internalType": "address",
                      "name": "zorroXChainController",
                      "type": "address"
                    },
                    {
                      "internalType": "address",
                      "name": "ZORROAddress",
                      "type": "address"
                    },
                    {
                      "internalType": "address",
                      "name": "zorroStakingVault",
                      "type": "address"
                    },
                    {
                      "internalType": "address",
                      "name": "wantAddress",
                      "type": "address"
                    },
                    {
                      "internalType": "address",
                      "name": "token0Address",
                      "type": "address"
                    },
                    {
                      "internalType": "address",
                      "name": "token1Address",
                      "type": "address"
                    },
                    {
                      "internalType": "address",
                      "name": "earnedAddress",
                      "type": "address"
                    },
                    {
                      "internalType": "address",
                      "name": "farmContractAddress",
                      "type": "address"
                    },
                    {
                      "internalType": "address",
                      "name": "treasury",
                      "type": "address"
                    },
                    {
                      "internalType": "address",
                      "name": "poolAddress",
                      "type": "address"
                    },
                    {
                      "internalType": "address",
                      "name": "uniRouterAddress",
                      "type": "address"
                    },
                    {
                      "internalType": "address",
                      "name": "zorroLPPool",
                      "type": "address"
                    },
                    {
                      "internalType": "address",
                      "name": "zorroLPPoolOtherToken",
                      "type": "address"
                    },
                    {
                      "internalType": "address",
                      "name": "defaultStablecoin",
                      "type": "address"
                    },
                    {
                      "internalType": "address",
                      "name": "vaultActions",
                      "type": "address"
                    }
                  ],
                  "internalType": "struct IVault.VaultAddresses",
                  "name": "keyAddresses",
                  "type": "tuple"
                },
                {
                  "components": [
                    {
                      "internalType": "address[]",
                      "name": "earnedToZORROPath",
                      "type": "address[]"
                    },
                    {
                      "internalType": "address[]",
                      "name": "earnedToToken0Path",
                      "type": "address[]"
                    },
                    {
                      "internalType": "address[]",
                      "name": "earnedToToken1Path",
                      "type": "address[]"
                    },
                    {
                      "internalType": "address[]",
                      "name": "stablecoinToToken0Path",
                      "type": "address[]"
                    },
                    {
                      "internalType": "address[]",
                      "name": "stablecoinToToken1Path",
                      "type": "address[]"
                    },
                    {
                      "internalType": "address[]",
                      "name": "earnedToZORLPPoolOtherTokenPath",
                      "type": "address[]"
                    },
                    {
                      "internalType": "address[]",
                      "name": "earnedToStablecoinPath",
                      "type": "address[]"
                    },
                    {
                      "internalType": "address[]",
                      "name": "stablecoinToZORROPath",
                      "type": "address[]"
                    },
                    {
                      "internalType": "address[]",
                      "name": "stablecoinToLPPoolOtherTokenPath",
                      "type": "address[]"
                    }
                  ],
                  "internalType": "struct IVault.VaultSwapPaths",
                  "name": "swapPaths",
                  "type": "tuple"
                },
                {
                  "components": [
                    {
                      "internalType": "uint256",
                      "name": "controllerFee",
                      "type": "uint256"
                    },
                    {
                      "internalType": "uint256",
                      "name": "buyBackRate",
                      "type": "uint256"
                    },
                    {
                      "internalType": "uint256",
                      "name": "revShareRate",
                      "type": "uint256"
                    },
                    {
                      "internalType": "uint256",
                      "name": "entranceFeeFactor",
                      "type": "uint256"
                    },
                    {
                      "internalType": "uint256",
                      "name": "withdrawFeeFactor",
                      "type": "uint256"
                    }
                  ],
                  "internalType": "struct IVault.VaultFees",
                  "name": "fees",
                  "type": "tuple"
                },
                {
                  "components": [
                    {
                      "internalType": "address",
                      "name": "token0PriceFeed",
                      "type": "address"
                    },
                    {
                      "internalType": "address",
                      "name": "token1PriceFeed",
                      "type": "address"
                    },
                    {
                      "internalType": "address",
                      "name": "earnTokenPriceFeed",
                      "type": "address"
                    },
                    {
                      "internalType": "address",
                      "name": "ZORPriceFeed",
                      "type": "address"
                    },
                    {
                      "internalType": "address",
                      "name": "lpPoolOtherTokenPriceFeed",
                      "type": "address"
                    },
                    {
                      "internalType": "address",
                      "name": "stablecoinPriceFeed",
                      "type": "address"
                    }
                  ],
                  "internalType": "struct IVault.VaultPriceFeeds",
                  "name": "priceFeeds",
                  "type": "tuple"
                },
                {
                  "internalType": "uint256",
                  "name": "dstGasForEarningsCall",
                  "type": "uint256"
                }
              ],
              "internalType": "struct IVault.VaultBaseInit",
              "name": "baseInit",
              "type": "tuple"
            },
            {
              "internalType": "uint256",
              "name": "targetBorrowLimit",
              "type": "uint256"
            },
            {
              "internalType": "uint256",
              "name": "targetBorrowLimitHysteresis",
              "type": "uint256"
            },
            {
              "internalType": "address",
              "name": "comptrollerAddress",
              "type": "address"
            },
            {
              "internalType": "address",
              "name": "lendingToken",
              "type": "address"
            }
          ],
          "internalType": "struct IVaultLending.VaultLendingInit",
          "name": "_initValue",
          "type": "tuple"
        }
      ],
      "name": "initialize",
      "outputs": [],
      "stateMutability": "nonpayable",
      "type": "function"
    },
    {
      "inputs": [],
      "name": "isHomeChain",
      "outputs": [
        {
          "internalType": "bool",
          "name": "",
          "type": "bool"
        }
      ],
      "stateMutability": "view",
      "type": "function"
    },
    {
      "inputs": [],
      "name": "lastEarnBlock",
      "outputs": [
        {
          "internalType": "uint256",
          "name": "",
          "type": "uint256"
        }
      ],
      "stateMutability": "view",
      "type": "function"
    },
    {
      "inputs": [],
      "name": "lendingToken",
      "outputs": [
        {
          "internalType": "address",
          "name": "",
          "type": "address"
        }
      ],
      "stateMutability": "view",
      "type": "function"
    },
    {
      "inputs": [],
      "name": "maxMarketMovementAllowed",
      "outputs": [
        {
          "internalType": "uint256",
          "name": "",
          "type": "uint256"
        }
      ],
      "stateMutability": "view",
      "type": "function"
    },
    {
      "inputs": [],
      "name": "onlyGov",
      "outputs": [
        {
          "internalType": "bool",
          "name": "",
          "type": "bool"
        }
      ],
      "stateMutability": "view",
      "type": "function"
    },
    {
      "inputs": [],
      "name": "owner",
      "outputs": [
        {
          "internalType": "address",
          "name": "",
          "type": "address"
        }
      ],
      "stateMutability": "view",
      "type": "function"
    },
    {
      "inputs": [],
      "name": "pause",
      "outputs": [],
      "stateMutability": "nonpayable",
      "type": "function"
    },
    {
      "inputs": [],
      "name": "paused",
      "outputs": [
        {
          "internalType": "bool",
          "name": "",
          "type": "bool"
        }
      ],
      "stateMutability": "view",
      "type": "function"
    },
    {
      "inputs": [],
      "name": "pid",
      "outputs": [
        {
          "internalType": "uint256",
          "name": "",
          "type": "uint256"
        }
      ],
      "stateMutability": "view",
      "type": "function"
    },
    {
      "inputs": [],
      "name": "poolAddress",
      "outputs": [
        {
          "internalType": "address",
          "name": "",
          "type": "address"
        }
      ],
      "stateMutability": "view",
      "type": "function"
    },
    {
      "inputs": [
        {
          "internalType": "address",
          "name": "",
          "type": "address"
        }
      ],
      "name": "priceFeeds",
      "outputs": [
        {
          "internalType": "contract AggregatorV3Interface",
          "name": "",
          "type": "address"
        }
      ],
      "stateMutability": "view",
      "type": "function"
    },
    {
      "inputs": [],
      "name": "principalDebt",
      "outputs": [
        {
          "internalType": "uint256",
          "name": "",
          "type": "uint256"
        }
      ],
      "stateMutability": "view",
      "type": "function"
    },
    {
      "inputs": [],
      "name": "profitDebt",
      "outputs": [
        {
          "internalType": "uint256",
          "name": "",
          "type": "uint256"
        }
      ],
      "stateMutability": "view",
      "type": "function"
    },
    {
      "inputs": [],
      "name": "renounceOwnership",
      "outputs": [],
      "stateMutability": "nonpayable",
      "type": "function"
    },
    {
      "inputs": [],
      "name": "revShareRate",
      "outputs": [
        {
          "internalType": "uint256",
          "name": "",
          "type": "uint256"
        }
      ],
      "stateMutability": "view",
      "type": "function"
    },
    {
      "inputs": [],
      "name": "revShareRateUL",
      "outputs": [
        {
          "internalType": "uint256",
          "name": "",
          "type": "uint256"
        }
      ],
      "stateMutability": "view",
      "type": "function"
    },
    {
      "inputs": [
        {
          "internalType": "address",
          "name": "_comptroller",
          "type": "address"
        }
      ],
      "name": "setComptrollerAddress",
      "outputs": [],
      "stateMutability": "nonpayable",
      "type": "function"
    },
    {
      "inputs": [
        {
          "internalType": "uint16",
          "name": "_index",
          "type": "uint16"
        },
        {
          "internalType": "address",
          "name": "_addr",
          "type": "address"
        }
      ],
      "name": "setContractAddress",
      "outputs": [],
      "stateMutability": "nonpayable",
      "type": "function"
    },
    {
      "inputs": [
        {
          "internalType": "uint256",
          "name": "_amount",
          "type": "uint256"
        }
      ],
      "name": "setDstGasForEarningsCall",
      "outputs": [],
      "stateMutability": "nonpayable",
      "type": "function"
    },
    {
      "inputs": [
        {
          "internalType": "uint256",
          "name": "_entranceFeeFactor",
          "type": "uint256"
        },
        {
          "internalType": "uint256",
          "name": "_withdrawFeeFactor",
          "type": "uint256"
        },
        {
          "internalType": "uint256",
          "name": "_controllerFee",
          "type": "uint256"
        },
        {
          "internalType": "uint256",
          "name": "_buyBackRate",
          "type": "uint256"
        },
        {
          "internalType": "uint256",
          "name": "_revShareRate",
          "type": "uint256"
        }
      ],
      "name": "setFeeSettings",
      "outputs": [],
      "stateMutability": "nonpayable",
      "type": "function"
    },
    {
      "inputs": [
        {
          "internalType": "address",
          "name": "_govAddress",
          "type": "address"
        }
      ],
      "name": "setGov",
      "outputs": [],
      "stateMutability": "nonpayable",
      "type": "function"
    },
    {
      "inputs": [
        {
          "internalType": "address",
          "name": "_lendingToken",
          "type": "address"
        }
      ],
      "name": "setLendingToken",
      "outputs": [],
      "stateMutability": "nonpayable",
      "type": "function"
    },
    {
      "inputs": [
        {
          "internalType": "uint256",
          "name": "_slippageNumerator",
          "type": "uint256"
        }
      ],
      "name": "setMaxMarketMovementAllowed",
      "outputs": [],
      "stateMutability": "nonpayable",
      "type": "function"
    },
    {
      "inputs": [
        {
          "internalType": "bool",
          "name": "_onlyGov",
          "type": "bool"
        }
      ],
      "name": "setOnlyGov",
      "outputs": [],
      "stateMutability": "nonpayable",
      "type": "function"
    },
    {
      "inputs": [
        {
          "internalType": "uint256",
          "name": "_pid",
          "type": "uint256"
        }
      ],
      "name": "setPid",
      "outputs": [],
      "stateMutability": "nonpayable",
      "type": "function"
    },
    {
      "inputs": [
        {
          "internalType": "address",
          "name": "_token",
          "type": "address"
        },
        {
          "internalType": "address",
          "name": "_priceFeedAddress",
          "type": "address"
        }
      ],
      "name": "setPriceFeed",
      "outputs": [],
      "stateMutability": "nonpayable",
      "type": "function"
    },
    {
      "inputs": [
        {
          "internalType": "address[]",
          "name": "_path",
          "type": "address[]"
        }
      ],
      "name": "setSwapPaths",
      "outputs": [],
      "stateMutability": "nonpayable",
      "type": "function"
    },
    {
      "inputs": [
        {
          "internalType": "uint256",
          "name": "_targetBorrowLimit",
          "type": "uint256"
        },
        {
          "internalType": "uint256",
          "name": "_hysteresis",
          "type": "uint256"
        }
      ],
      "name": "setTargetBorrowLimits",
      "outputs": [],
      "stateMutability": "nonpayable",
      "type": "function"
    },
    {
      "inputs": [],
      "name": "sharesTotal",
      "outputs": [
        {
          "internalType": "uint256",
          "name": "",
          "type": "uint256"
        }
      ],
      "stateMutability": "view",
      "type": "function"
    },
    {
      "inputs": [],
      "name": "supplyBal",
      "outputs": [
        {
          "internalType": "uint256",
          "name": "",
          "type": "uint256"
        }
      ],
      "stateMutability": "view",
      "type": "function"
    },
    {
      "inputs": [
        {
          "internalType": "address",
          "name": "",
          "type": "address"
        },
        {
          "internalType": "address",
          "name": "",
          "type": "address"
        }
      ],
      "name": "swapPathLength",
      "outputs": [
        {
          "internalType": "uint16",
          "name": "",
          "type": "uint16"
        }
      ],
      "stateMutability": "view",
      "type": "function"
    },
    {
      "inputs": [
        {
          "internalType": "address",
          "name": "",
          "type": "address"
        },
        {
          "internalType": "address",
          "name": "",
          "type": "address"
        },
        {
          "internalType": "uint256",
          "name": "",
          "type": "uint256"
        }
      ],
      "name": "swapPaths",
      "outputs": [
        {
          "internalType": "address",
          "name": "",
          "type": "address"
        }
      ],
      "stateMutability": "view",
      "type": "function"
    },
    {
      "inputs": [],
      "name": "targetBorrowLimit",
      "outputs": [
        {
          "internalType": "uint256",
          "name": "",
          "type": "uint256"
        }
      ],
      "stateMutability": "view",
      "type": "function"
    },
    {
      "inputs": [],
      "name": "targetBorrowLimitHysteresis",
      "outputs": [
        {
          "internalType": "uint256",
          "name": "",
          "type": "uint256"
        }
      ],
      "stateMutability": "view",
      "type": "function"
    },
    {
      "inputs": [],
      "name": "token0Address",
      "outputs": [
        {
          "internalType": "address",
          "name": "",
          "type": "address"
        }
      ],
      "stateMutability": "view",
      "type": "function"
    },
    {
      "inputs": [],
      "name": "token1Address",
      "outputs": [
        {
          "internalType": "address",
          "name": "",
          "type": "address"
        }
      ],
      "stateMutability": "view",
      "type": "function"
    },
    {
      "inputs": [
        {
          "internalType": "address",
          "name": "newOwner",
          "type": "address"
        }
      ],
      "name": "transferOwnership",
      "outputs": [],
      "stateMutability": "nonpayable",
      "type": "function"
    },
    {
      "inputs": [],
      "name": "treasury",
      "outputs": [
        {
          "internalType": "address",
          "name": "",
          "type": "address"
        }
      ],
      "stateMutability": "view",
      "type": "function"
    },
    {
      "inputs": [],
      "name": "unpause",
      "outputs": [],
      "stateMutability": "nonpayable",
      "type": "function"
    },
    {
      "inputs": [],
      "name": "updateBalance",
      "outputs": [],
      "stateMutability": "nonpayable",
      "type": "function"
    },
    {
      "inputs": [],
      "name": "vaultActions",
      "outputs": [
        {
          "internalType": "address",
          "name": "",
          "type": "address"
        }
      ],
      "stateMutability": "view",
      "type": "function"
    },
    {
      "inputs": [],
      "name": "wantAddress",
      "outputs": [
        {
          "internalType": "address",
          "name": "",
          "type": "address"
        }
      ],
      "stateMutability": "view",
      "type": "function"
    },
    {
      "inputs": [],
      "name": "withdrawFeeFactor",
      "outputs": [
        {
          "internalType": "uint256",
          "name": "",
          "type": "uint256"
        }
      ],
      "stateMutability": "view",
      "type": "function"
    },
    {
      "inputs": [],
      "name": "withdrawFeeFactorLL",
      "outputs": [
        {
          "internalType": "uint256",
          "name": "",
          "type": "uint256"
        }
      ],
      "stateMutability": "view",
      "type": "function"
    },
    {
      "inputs": [
        {
          "internalType": "uint256",
          "name": "_wantAmt",
          "type": "uint256"
        }
      ],
      "name": "withdrawWantToken",
      "outputs": [
        {
          "internalType": "uint256",
          "name": "sharesRemoved",
          "type": "uint256"
        }
      ],
      "stateMutability": "nonpayable",
      "type": "function"
    },
    {
      "inputs": [],
      "name": "zorroControllerAddress",
      "outputs": [
        {
          "internalType": "address",
          "name": "",
          "type": "address"
        }
      ],
      "stateMutability": "view",
      "type": "function"
    },
    {
      "inputs": [],
      "name": "zorroLPPool",
      "outputs": [
        {
          "internalType": "address",
          "name": "",
          "type": "address"
        }
      ],
      "stateMutability": "view",
      "type": "function"
    },
    {
      "inputs": [],
      "name": "zorroLPPoolOtherToken",
      "outputs": [
        {
          "internalType": "address",
          "name": "",
          "type": "address"
        }
      ],
      "stateMutability": "view",
      "type": "function"
    },
    {
      "inputs": [],
      "name": "zorroStakingVault",
      "outputs": [
        {
          "internalType": "address",
          "name": "",
          "type": "address"
        }
      ],
      "stateMutability": "view",
      "type": "function"
    },
    {
      "inputs": [],
      "name": "zorroXChainController",
      "outputs": [
        {
          "internalType": "address",
          "name": "",
          "type": "address"
        }
      ],
      "stateMutability": "view",
      "type": "function"
    }
  ],
  "bytecode": "0x608060405234801561001057600080fd5b50614d00806100206000396000f3fe608060405234801561001057600080fd5b50600436106104425760003560e060020a9004806376e112861161023a578063b3545c011161013f578063e502a88d116100c7578063f10684541161008b578063f1068454146108c4578063f151dd70146108cd578063f2fde38b146108d6578063f5046a29146108e9578063f67b1002146108fc57600080fd5b8063e502a88d1461086b578063e71984741461087e578063e7a0367914610891578063ebfba7c4146108a4578063edf5e585146108b757600080fd5b8063c9e2362a1161010e578063c9e2362a14610817578063cfad57a21461082a578063d389800f1461083d578063d7cb416f14610845578063decac9cf1461085857600080fd5b8063b3545c0114610447578063b61bb80a146107fb578063c302a4d014610722578063c86274561461080e57600080fd5b80639dcb511a116101c2578063a4d2b08311610191578063a4d2b083146107b1578063a9559dd7146107c4578063aaaca558146107cc578063aced9a80146107df578063b1414dbb146107e857600080fd5b80639dcb511a1461074f5780639ed836d3146107785780639fc33a9f1461078b578063a0985ba11461079e57600080fd5b80638456cb59116102095780638456cb591461071157806385f02dd614610719578063866b2018146107225780638da5cb5b1461072b5780639438928b1461073c57600080fd5b806376e11286146106cf5780637a8d130f146106e25780637bf604d8146106eb5780637ff36fbe146106fe57600080fd5b80633214471f1161034b5780635fc77d43116102d357806368bde41f1161029757806368bde41f1461068557806368f541621461069857806370d5ae05146106a1578063715018a6146106b45780637153ef86146106bc57600080fd5b80635fc77d431461062657806361d027b314610639578063648794a41461064c57806367206d401461065f578063677379e51461067257600080fd5b806344a3955e1161031a57806344a3955e146105d957806346008a07146105e257806355ebedec146105f55780635c975abb146106085780635e8352701461061357600080fd5b80633214471f146105b7578063333f98fd146105c057806336e9332d146105c95780633f4ba83a146105d157600080fd5b806315b13fe6116103ce5780631b0d8aab1161039d5780631b0d8aab1461053c578063211019d7146104475780632209b59e1461054f5780632337b0b114610562578063320d47cc146105a457600080fd5b806315b13fe6146104f75780631755ff21146104ff578063178a8d071461052a578063180b0d7e1461053357600080fd5b80630bb953e5116104155780630bb953e5146104945780630daef3211461049d5780630fa4e01e146104d257806312bc4b9b146104db5780631334903f146104ee57600080fd5b8063061c7d48146104475780630761a1721461046357806307df60471461046c5780630b6bb30b14610481575b600080fd5b61045061138881565b6040519081526020015b60405180910390f35b61045060e85481565b61047f61047a366004613c6b565b610905565b005b61047f61048f366004613cb9565b610c46565b61045060eb5481565b60cb546104c29074010000000000000000000000000000000000000000900460ff1681565b604051901515815260200161045a565b61045060e15481565b61047f6104e9366004613e49565b610ced565b61045060df5481565b61047f610d26565b60d95461051290600160a060020a031681565b604051600160a060020a03909116815260200161045a565b61045060dd5481565b61045061271081565b61047f61054a366004613e7e565b610dcb565b61045061055d366004613e7e565b610dfd565b610591610570366004613e97565b60e660209081526000928352604080842090915290825290205461ffff1681565b60405161ffff909116815260200161045a565b61047f6105b2366004613e7e565b610ea3565b61045060de5481565b61045060ea5481565b61047f610ed5565b61047f610f0f565b61045060e45481565b60cb5461051290600160a060020a031681565b610450610603366004613e7e565b610f46565b60975460ff166104c2565b610512610621366004613eb5565b610fe1565b60cd5461051290600160a060020a031681565b60d85461051290600160a060020a031681565b61045061065a366004613ef6565b611026565b61047f61066d366004613f18565b6110fb565b60d05461051290600160a060020a031681565b60ec5461051290600160a060020a031681565b61045060e05481565b60d75461051290600160a060020a031681565b61047f611203565b61047f6106ca366004613f5a565b61123a565b61047f6106dd366004613e97565b611529565b61045060e25481565b60da5461051290600160a060020a031681565b60d25461051290600160a060020a031681565b61047f611560565b61045060dc5481565b61045061232881565b603354600160a060020a0316610512565b61047f61074a366004613e7e565b611595565b61051261075d366004613f95565b60e760205260009081526040902054600160a060020a031681565b61047f6107863660046143a4565b6115c7565b60d55461051290600160a060020a031681565b61047f6107ac366004613f95565b6116e6565b60cf5461051290600160a060020a031681565b61047f611735565b60ed5461051290600160a060020a031681565b61045060ef5481565b60cc5461051290600160a060020a031681565b60d65461051290600160a060020a031681565b61045060e35481565b61047f610825366004613ef6565b61184b565b61047f610838366004613f95565b61188c565b61047f611907565b60d35461051290600160a060020a031681565b61047f610866366004613f95565b611df7565b610450610879366004613ef6565b611e46565b60d45461051290600160a060020a031681565b60d15461051290600160a060020a031681565b60db5461051290600160a060020a031681565b60c9546104c29060ff1681565b61045060ca5481565b61045060ee5481565b61047f6108e4366004613f95565b611ebd565b60ce5461051290600160a060020a031681565b61045060e95481565b603354600160a060020a0316331461093b5760405160e560020a62461bcd028152600401610932906144e1565b60405180910390fd5b61ffff82166109635760d28054600160a060020a031916600160a060020a0383161790555050565b8161ffff166001141561098f5760d38054600160a060020a031916600160a060020a0383161790555050565b8161ffff16600214156109bb5760d68054600160a060020a031916600160a060020a0383161790555050565b8161ffff16600314156109e75760ce8054600160a060020a031916600160a060020a0383161790555050565b8161ffff1660041415610a135760d18054600160a060020a031916600160a060020a0383161790555050565b8161ffff1660051415610a3f5760d98054600160a060020a031916600160a060020a0383161790555050565b8161ffff1660061415610a6b5760d48054600160a060020a031916600160a060020a0383161790555050565b8161ffff1660071415610a975760d58054600160a060020a031916600160a060020a0383161790555050565b8161ffff1660081415610ac35760d88054600160a060020a031916600160a060020a0383161790555050565b8161ffff1660091415610aef5760d78054600160a060020a031916600160a060020a0383161790555050565b8161ffff16600a1415610b1b5760da8054600160a060020a031916600160a060020a0383161790555050565b8161ffff16600b1415610b475760db8054600160a060020a031916600160a060020a0383161790555050565b8161ffff16600c1415610b735760cc8054600160a060020a031916600160a060020a0383161790555050565b8161ffff16600d1415610b9f5760cd8054600160a060020a031916600160a060020a0383161790555050565b8161ffff16600e1415610bcb5760cf8054600160a060020a031916600160a060020a0383161790555050565b8161ffff16600f1415610bf75760d08054600160a060020a031916600160a060020a0383161790555050565b60405160e560020a62461bcd02815260206004820152601160248201527f757265636f67436f6e74726163744964780000000000000000000000000000006044820152606401610932565b5050565b60cb54600160a060020a03163314610c735760405160e560020a62461bcd02815260040161093290614516565b60cb8054821515740100000000000000000000000000000000000000000274ff0000000000000000000000000000000000000000199091161790556040517f125177ac7b8930dac1e59c2b30b1b6b9191b30af40cf6bbb5d20fec4d44be60f90610ce290831515815260200190565b60405180910390a150565b603354600160a060020a03163314610d1a5760405160e560020a62461bcd028152600401610932906144e1565b610d2381611f72565b50565b60cb54600160a060020a03163314610d535760405160e560020a62461bcd02815260040161093290614516565b60d5546040517fe9af0292000000000000000000000000000000000000000000000000000000008152306004820152600160a060020a039091169063e9af029290602401600060405180830381600087803b158015610db157600080fd5b505af1158015610dc5573d6000803e3d6000fd5b50505050565b603354600160a060020a03163314610df85760405160e560020a62461bcd028152600401610932906144e1565b60ca55565b60cc54600090600160a060020a031633600160a060020a031614610e365760405160e560020a62461bcd0281526004016109329061454d565b60026065541415610e5c5760405160e560020a62461bcd02815260040161093290614584565b600260655560975460ff1615610e875760405160e560020a62461bcd028152600401610932906145bb565b610e8f611735565b610e988261203e565b600160655592915050565b603354600160a060020a03163314610ed05760405160e560020a62461bcd028152600401610932906144e1565b60e855565b60026065541415610efb5760405160e560020a62461bcd02815260040161093290614584565b6002606555610f0861225e565b6001606555565b60cb54600160a060020a03163314610f3c5760405160e560020a62461bcd02815260040161093290614516565b610f44612270565b565b60cc54600090600160a060020a031633600160a060020a031614610f7f5760405160e560020a62461bcd0281526004016109329061454d565b60026065541415610fa55760405160e560020a62461bcd02815260040161093290614584565b600260655560975460ff1615610fd05760405160e560020a62461bcd028152600401610932906145bb565b610fd8611735565b610e988261230f565b60e5602052826000526040600020602052816000526040600020818154811061100957600080fd5b600091825260209091200154600160a060020a0316925083915050565b60d15460009061104190600160a060020a03163330866125ab565b60d05460d15461105e91600160a060020a0391821691168561265c565b60d0546040517fc80ef8db0000000000000000000000000000000000000000000000000000000081526004810185905260248101849052336044820152600160a060020a039091169063c80ef8db906064015b6020604051808303816000875af11580156110d0573d6000803e3d6000fd5b505050506040513d601f19601f820116820180604052508101906110f491906145f2565b9392505050565b60cb54600160a060020a031633146111285760405160e560020a62461bcd02815260040161093290614516565b60d454600160a060020a03848116911614156111895760405160e560020a62461bcd02815260206004820152600560248201527f21736166650000000000000000000000000000000000000000000000000000006044820152606401610932565b60d154600160a060020a03848116911614156111ea5760405160e560020a62461bcd02815260206004820152600560248201527f21736166650000000000000000000000000000000000000000000000000000006044820152606401610932565b6111fe600160a060020a0384168284612740565b505050565b603354600160a060020a031633146112305760405160e560020a62461bcd028152600401610932906144e1565b610f446000612789565b60cb54600160a060020a031633146112675760405160e560020a62461bcd02815260040161093290614516565b6123288510156112bc5760405160e560020a62461bcd02815260206004820152601a60248201527f5f656e7472616e6365466565466163746f7220746f6f206c6f770000000000006044820152606401610932565b6127108511156113115760405160e560020a62461bcd02815260206004820152601b60248201527f5f656e7472616e6365466565466163746f7220746f6f206869676800000000006044820152606401610932565b60df85905561232884101561136b5760405160e560020a62461bcd02815260206004820152601a60248201527f5f7769746864726177466565466163746f7220746f6f206c6f770000000000006044820152606401610932565b6127108411156113c05760405160e560020a62461bcd02815260206004820152601b60248201527f5f7769746864726177466565466163746f7220746f6f206869676800000000006044820152606401610932565b60e084905561138883111561141a5760405160e560020a62461bcd02815260206004820152601760248201527f5f636f6e74726f6c6c657246656520746f6f20686967680000000000000000006044820152606401610932565b60dc8390556113888211156114745760405160e560020a62461bcd02815260206004820152601560248201527f5f6275794261636b5261746520746f6f206869676800000000000000000000006044820152606401610932565b60dd8290556113888111156114ce5760405160e560020a62461bcd02815260206004820152601660248201527f5f72657653686172655261746520746f6f2068696768000000000000000000006044820152606401610932565b60de819055604080518681526020810186905290810184905260608101839052608081018290527fc67e0b149a57a70fa44a531a46c2c6d8e0b242fa12f459f250012c3a5987d29a9060a00160405180910390a15050505050565b603354600160a060020a031633146115565760405160e560020a62461bcd028152600401610932906144e1565b610c4282826127db565b60cb54600160a060020a0316331461158d5760405160e560020a62461bcd02815260040161093290614516565b610f44612809565b603354600160a060020a031633146115c25760405160e560020a62461bcd028152600401610932906144e1565b60e955565b600054610100900460ff166115e25760005460ff16156115e6565b303b155b61165b5760405160e560020a62461bcd02815260206004820152602e60248201527f496e697469616c697a61626c653a20636f6e747261637420697320616c72656160448201527f647920696e697469616c697a65640000000000000000000000000000000000006064820152608401610932565b600054610100900460ff1615801561167d576000805461ffff19166101011790555b602082015160ea55604082015160eb55606082015160ec8054600160a060020a03928316600160a060020a031991821617909155608084015160ed805491909316911617905581516116d0908490612864565b80156111fe576000805461ff0019169055505050565b603354600160a060020a031633146117135760405160e560020a62461bcd028152600401610932906144e1565b60ec8054600160a060020a031916600160a060020a0392909216919091179055565b60ed546040517f3af9e669000000000000000000000000000000000000000000000000000000008152306004820152600160a060020a0390911690633af9e669906024016020604051808303816000875af1158015611798573d6000803e3d6000fd5b505050506040513d601f19601f820116820180604052508101906117bc91906145f2565b60ee5560ed546040517f17bfdfbc000000000000000000000000000000000000000000000000000000008152306004820152600160a060020a03909116906317bfdfbc906024016020604051808303816000875af1158015611822573d6000803e3d6000fd5b505050506040513d601f19601f8201168201806040525081019061184691906145f2565b60ef55565b603354600160a060020a031633146118785760405160e560020a62461bcd028152600401610932906144e1565b60ea82905560eb819055610c426000612ca5565b60cb54600160a060020a031633146118b95760405160e560020a62461bcd02815260040161093290614516565b60cb8054600160a060020a031916600160a060020a0383169081179091556040519081527f91a8c1cc2d4a3bb60738481947a00cbb9899c822916694cf8bb1d68172fdcd5490602001610ce2565b6002606554141561192d5760405160e560020a62461bcd02815260040161093290614584565b600260655560975460ff16156119585760405160e560020a62461bcd028152600401610932906145bb565b60cb5474010000000000000000000000000000000000000000900460ff16156119a85760cb54600160a060020a031633146119a85760405160e560020a62461bcd02815260040161093290614516565b6119b260006132a8565b60d15460405160e060020a6370a08231028152306004820152600091600160a060020a0316906370a0823190602401602060405180830381865afa1580156119fe573d6000803e3d6000fd5b505050506040513d601f19601f82011682018060405250810190611a2291906145f2565b905060008111611a775760405160e560020a62461bcd02815260206004820152600e60248201527f3077616e744861727665737465640000000000000000000000000000000000006044820152606401610932565b60d05460d154611a9491600160a060020a0391821691168361265c565b60d05460e854604080516101c08101825260ce54600160a060020a0390811680835260d854821660208085019190915260d654831684860181905260cf548416606086015260db54841660808601819052600084815260e780855288822054871660a089015291815281845287812054861660c088015282815290835286812054851660e087015290815260e58252858120928152918152848220805486518184028101840190975280875292978897941695636945292a958a959490936101008501939190830182828015611b9357602002820191906000526020600020905b8154600160a060020a03168152600190910190602001808311611b75575b505050918352505060d654600160a060020a03908116600090815260e56020908152604080832060db549094168352928152908290208054835181840281018401909452808452938201939091830182828015611c1957602002820191906000526020600020905b8154600160a060020a03168152600190910190602001808311611bfb575b5050505050815260200161271060dc54612710611c369190614624565b611c409190614643565b61ffff16815260200161271060dd54612710611c5c9190614624565b611c669190614643565b61ffff16815260200161271060de54612710611c829190614624565b611c8c9190614643565b61ffff16815260c95460ff16151560209091015260405160e060020a63ffffffff8616028152611cc1939291906004016146ac565b6060604051808303816000875af1158015611ce0573d6000803e3d6000fd5b505050506040513d601f19601f82011682018060405250810190611d049190614828565b92509250506000821180611d185750600081115b15611ddc5760cd54611d4a90600160a060020a0316611d378385614856565b60d654600160a060020a0316919061265c565b60cd5460e85460e9546040517f464e3c8b000000000000000000000000000000000000000000000000000000008152600481018690526024810185905260448101929092526064820152600160a060020a039091169063464e3c8b90608401600060405180830381600087803b158015611dc357600080fd5b505af1158015611dd7573d6000803e3d6000fd5b505050505b4360e15560e3839055611ded61225e565b5050600160655550565b603354600160a060020a03163314611e245760405160e560020a62461bcd028152600401610932906144e1565b60ed8054600160a060020a031916600160a060020a0392909216919091179055565b60d05460d654600091611e6691600160a060020a0390811691168561265c565b60d0546040517fca9730e60000000000000000000000000000000000000000000000000000000081526004810185905260248101849052336044820152600160a060020a039091169063ca9730e6906064016110b1565b603354600160a060020a03163314611eea5760405160e560020a62461bcd028152600401610932906144e1565b600160a060020a038116611f695760405160e560020a62461bcd02815260206004820152602660248201527f4f776e61626c653a206e6577206f776e657220697320746865207a65726f206160448201527f64647265737300000000000000000000000000000000000000000000000000006064820152608401610932565b610d2381612789565b8051611f7b5750565b600081600081518110611f9057611f9061486e565b6020026020010151905060008260018451611fab9190614887565b81518110611fbb57611fbb61486e565b602090810291909101810151600160a060020a03808516600090815260e5845260408082209284168252918452208551919350611ffd92909190860190613bcc565b509151600160a060020a03918216600090815260e66020908152604080832094909516825292909252919020805461ffff191661ffff909216919091179055565b60cc54600090600160a060020a031633600160a060020a0316146120775760405160e560020a62461bcd0281526004016109329061454d565b6002606554141561209d5760405160e560020a62461bcd02815260040161093290614584565b600260655560975460ff16156120c85760405160e560020a62461bcd028152600401610932906145bb565b6000821161211b5760405160e560020a62461bcd02815260206004820152601e60248201527f57616e7420746f6b656e206465706f736974206d757374206265203e203000006044820152606401610932565b61212361349b565b60d15461213b90600160a060020a03163330856125ab565b5060d0546040517ff55850b40000000000000000000000000000000000000000000000000000000081523060048201528291600091600160a060020a039091169063f55850b490602401602060405180830381865afa1580156121a2573d6000803e3d6000fd5b505050506040513d601f19601f820116820180604052508101906121c691906145f2565b90506000811180156121da5750600060e454115b15612212576121eb61271082614624565b60df5460e4546121fb9086614624565b6122059190614624565b61220f9190614643565b91505b8160e460008282546122249190614856565b925050819055508260e2600082825461223d9190614856565b9091555061224b905061225e565b61225361349b565b506001606555919050565b6122666134d9565b610f446000612ca5565b60975460ff166122c55760405160e560020a62461bcd02815260206004820152601460248201527f5061757361626c653a206e6f74207061757365640000000000000000000000006044820152606401610932565b6097805460ff191690557f5db9ee0a495bf2e6ff9c91a7834c1ba4fdd244a5e8aa4e537bd38aeae4b073aa335b604051600160a060020a03909116815260200160405180910390a1565b60cc54600090600160a060020a031633600160a060020a0316146123485760405160e560020a62461bcd0281526004016109329061454d565b6002606554141561236e5760405160e560020a62461bcd02815260040161093290614584565b600260655560975460ff16156123995760405160e560020a62461bcd028152600401610932906145bb565b600082116123ec5760405160e560020a62461bcd02815260206004820152600960248201527f6e656753686172657300000000000000000000000000000000000000000000006044820152606401610932565b6123f461349b565b60d0546040517ff55850b4000000000000000000000000000000000000000000000000000000008152306004820152600091600160a060020a03169063f55850b490602401602060405180830381865afa158015612456573d6000803e3d6000fd5b505050506040513d601f19601f8201168201806040525081019061247a91906145f2565b905060e45483111561248c5760e45492505b60e45460009061249c8584614624565b6124a69190614643565b90508360e460008282546124ba9190614887565b909155506124c99050816132a8565b60d15460405160e060020a6370a08231028152306004820152600160a060020a03909116906370a0823190602401602060405180830381865afa158015612514573d6000803e3d6000fd5b505050506040513d601f19601f8201168201806040525081019061253891906145f2565b925061271060e05410156125635761271060e0546125569190614643565b6125609084614624565b92505b8260e260008282546125759190614887565b909155505060cc5460d15461259791600160a060020a03918216911685612740565b61259f61349b565b50506001606555919050565b604051600160a060020a0380851660248301528316604482015260648101829052610dc59085907f23b872dd00000000000000000000000000000000000000000000000000000000906084015b60408051601f198184030181529190526020810180517bffffffffffffffffffffffffffffffffffffffffffffffffffffffff167fffffffff0000000000000000000000000000000000000000000000000000000090931692909217909152613617565b6040517fdd62ed3e000000000000000000000000000000000000000000000000000000008152306004820152600160a060020a038381166024830152600091839186169063dd62ed3e90604401602060405180830381865afa1580156126c6573d6000803e3d6000fd5b505050506040513d601f19601f820116820180604052508101906126ea91906145f2565b6126f49190614856565b604051600160a060020a038516602482015260448101829052909150610dc59085907f095ea7b300000000000000000000000000000000000000000000000000000000906064016125f8565b604051600160a060020a0383166024820152604481018290526111fe9084907fa9059cbb00000000000000000000000000000000000000000000000000000000906064016125f8565b60338054600160a060020a03838116600160a060020a0319831681179093556040519116919082907f8be0079c531659141344cd1fd0a4f28419497f9722a3daafe3b4186f6b6457e090600090a35050565b600160a060020a03918216600090815260e7602052604090208054600160a060020a03191691909216179055565b60975460ff161561282f5760405160e560020a62461bcd028152600401610932906145bb565b6097805460ff191660011790557f62e78cea01bee320cd4e420270b5ea74000d11b0c9f74754ebdbfc544b05a2586122f23390565b61286c6136ff565b61287582611ebd565b8051805160ca5560209081015160c9805460ff191691151591909117905580820151805160cb805474010000000000000000000000000000000000000000600160a060020a0393841674ffffffffffffffffffffffffffffffffffffffffff19909216919091171790558183015160cc8054600160a060020a031990811692841692909217905560408084015160cd8054841691851691909117905560608085015160ce8054851691861691909117905560808086015160cf8054861691871691909117905560a086015160d18054861691871691909117905560c086015160d28054861691871691909117905560e08087015160d38054871691881691909117905561010087015160d48054871691881691909117905561012087015160d58054871691881691909117905561014087015160d88054871691881691909117905561016087015160d9805487169188169190911790556101a087015160da805487169188169190911790556101c087015160db805487169188169190911790556101e087015160d6805487169188169190911790556102009096015160d0805490951695169490941790925581860151805160dc559485015160dd558481015160de559084015160df55920151905581015151612a5290611f72565b612a63816040015160200151611f72565b612a74816040015160400151611f72565b612a85816040015160600151611f72565b612a96816040015160800151611f72565b612aa7816040015160a00151611f72565b612ab8816040015160c00151611f72565b612ac9816040015160e00151611f72565b612adb81604001516101000151611f72565b60d0546040808301516060015190517f8b4c5aee000000000000000000000000000000000000000000000000000000008152612b7892600160a060020a031691638b4c5aee91612b2e919060040161489e565b600060405180830381865afa158015612b4b573d6000803e3d6000fd5b505050506040513d6000823e601f3d908101601f19168201604052612b7391908101906148eb565b611f72565b60d0546040808301516080015190517f8b4c5aee000000000000000000000000000000000000000000000000000000008152612bcb92600160a060020a031691638b4c5aee91612b2e919060040161489e565b60d254608082015151612be791600160a060020a0316906127db565b60d354608082015160200151612c0691600160a060020a0316906127db565b60d454608082015160400151612c2591600160a060020a0316906127db565b60db546080808301510151612c4391600160a060020a0316906127db565b60ce54608082015160600151612c6291600160a060020a0316906127db565b60d654608082015160a00151612c8191600160a060020a0316906127db565b60d78054600160a060020a03191661dead1790556103d960e85560a0015160e95550565b60d9546040517f3af9e669000000000000000000000000000000000000000000000000000000008152306004820152600091600160a060020a031690633af9e669906024016020604051808303816000875af1158015612d09573d6000803e3d6000fd5b505050506040513d601f19601f82011682018060405250810190612d2d91906145f2565b905080612d38575050565b808210612d4d57612d4a600182614887565b91505b60d05460ec5460d95460ea546040517fc1612d0e0000000000000000000000000000000000000000000000000000000081526004810187905260248101869052600160a060020a039384166044820152918316606483015260848201526000928392839283928392839291169063c1612d0e9060a40160c0604051808303816000875af1158015612de2573d6000803e3d6000fd5b505050506040513d601f19601f82011682018060405250810190612e069190614977565b9550955095509550955095508282108015612e2b575060eb54612e298385614887565b115b15612f725760d0546040517f7b592b57000000000000000000000000000000000000000000000000000000008152600481018890526024810187905260448101899052606481018690526084810185905260a48101839052600091600160a060020a031690637b592b579060c401602060405180830381865afa158015612eb6573d6000803e3d6000fd5b505050506040513d601f19601f82011682018060405250810190612eda91906145f2565b60d9546040517fc5ebeaec00000000000000000000000000000000000000000000000000000000815260048101839052919250600160a060020a03169063c5ebeaec906024016020604051808303816000875af1158015612f3f573d6000803e3d6000fd5b505050506040513d601f19601f82011682018060405250810190612f6391906145f2565b50612f6c6134d9565b5061329e565b8282118015612f8b575060eb54612f898484614887565b115b1561329e5760d0546040517ffd30c376000000000000000000000000000000000000000000000000000000008152600481018890526024810187905260448101899052606481018690526084810185905260a48101839052600091600160a060020a03169063fd30c3769060c401602060405180830381865afa158015613016573d6000803e3d6000fd5b505050506040513d601f19601f8201168201806040525081019061303a91906145f2565b60d9546040517f852a12e300000000000000000000000000000000000000000000000000000000815260048101839052919250600160a060020a03169063852a12e3906024016020604051808303816000875af115801561309f573d6000803e3d6000fd5b505050506040513d601f19601f820116820180604052508101906130c391906145f2565b156131135760405160e560020a62461bcd02815260206004820152600a60248201527f726562616c206661696c000000000000000000000000000000000000000000006044820152606401610932565b61311d8189614887565b975087891061313457613131600189614887565b98505b61313e8989614887565b96508581111561314b5750845b60d95460d15461316891600160a060020a0391821691168361265c565b60d9546040517f0e75270200000000000000000000000000000000000000000000000000000000815260048101839052600160a060020a0390911690630e752702906024016020604051808303816000875af11580156131cc573d6000803e3d6000fd5b505050506040513d601f19601f820116820180604052508101906131f091906145f2565b506131fb8187614887565b95508661321087670de0b6b3a7640000614624565b61321a9190614643565b925060d960009054906101000a9004600160a060020a0316600160a060020a0316633b1d21a26040518163ffffffff1660e060020a028152600401602060405180830381865afa158015613272573d6000803e3d6000fd5b505050506040513d601f19601f8201168201806040525081019061329691906145f2565b915050612f72565b5050505050505050565b60d45460405160e060020a6370a08231028152306004820152600091600160a060020a0316906370a0823190602401602060405180830381865afa1580156132f4573d6000803e3d6000fd5b505050506040513d601f19601f8201168201806040525081019061331891906145f2565b905080156134925760d054604080516101008101825283815260d454600160a060020a03908116600090815260e7602090815293902054938116936312ad7eba938301916133669116613731565b815260d254600160a060020a03908116600090815260e760209081526040909120549201916133959116613731565b815260d254600160a060020a03908116602080840182905260d354831660408086019190915260e854606086015260d454909316600090815260e58252838120928152918152908290208054835181840281018401909452808452608090940193909183018282801561343157602002820191906000526020600020905b8154600160a060020a03168152600190910190602001808311613413575b50505091835250503060209091015260405160e060020a63ffffffff841602815261345f91906004016149c1565b600060405180830381600087803b15801561347957600080fd5b505af115801561348d573d6000803e3d6000fd5b505050505b610c4282613888565b30600160a060020a031663a9559dd76040518163ffffffff1660e060020a028152600401600060405180830381600087803b158015610db157600080fd5b60975460ff16156134ff5760405160e560020a62461bcd028152600401610932906145bb565b60d15460405160e060020a6370a08231028152306004820152600091600160a060020a0316906370a0823190602401602060405180830381865afa15801561354b573d6000803e3d6000fd5b505050506040513d601f19601f8201168201806040525081019061356f91906145f2565b60d95460d15491925061358f91600160a060020a0390811691168361265c565b60d9546040517fa0712d6800000000000000000000000000000000000000000000000000000000815260048101839052600160a060020a039091169063a0712d68906024016020604051808303816000875af11580156135f3573d6000803e3d6000fd5b505050506040513d601f19601f82011682018060405250810190610c4291906145f2565b600061366c826040518060400160405280602081526020017f5361666545524332303a206c6f772d6c6576656c2063616c6c206661696c656481525085600160a060020a03166139ff9092919063ffffffff16565b8051909150156111fe578080602001905181019061368a9190614a50565b6111fe5760405160e560020a62461bcd02815260206004820152602a60248201527f5361666545524332303a204552433230206f7065726174696f6e20646964206e60448201527f6f742073756363656564000000000000000000000000000000000000000000006064820152608401610932565b600054610100900460ff166137295760405160e560020a62461bcd02815260040161093290614a6d565b610f44613a0e565b60008082600160a060020a031663313ce5676040518163ffffffff1660e060020a028152600401602060405180830381865afa158015613775573d6000803e3d6000fd5b505050506040513d601f19601f820116820180604052508101906137999190614aca565b9050600083600160a060020a031663feaf968c6040518163ffffffff1660e060020a02815260040160a060405180830381865afa1580156137de573d6000803e3d6000fd5b505050506040513d601f19601f820116820180604052508101906138029190614b07565b505050915050600081121561385c5760405160e560020a62461bcd02815260206004820152601660248201527f6e656720707269636573206e6f7420616c6c6f776564000000000000000000006044820152606401610932565b61386782600a614c40565b6138768264e8d4a51000614624565b6138809190614643565b949350505050565b61389181612ca5565b60d9546040517f3af9e669000000000000000000000000000000000000000000000000000000008152306004820152600091600160a060020a031690633af9e669906024016020604051808303816000875af11580156138f5573d6000803e3d6000fd5b505050506040513d601f19601f8201168201806040525081019061391991906145f2565b905080821115613927578091505b60d9546040517f852a12e300000000000000000000000000000000000000000000000000000000815260048101849052600160a060020a039091169063852a12e3906024016020604051808303816000875af115801561398b573d6000803e3d6000fd5b505050506040513d601f19601f820116820180604052508101906139af91906145f2565b15610c425760405160e560020a62461bcd02815260206004820152601c60248201527f5f7769746864726177536f6d653a2072656465656d206661696c6564000000006044820152606401610932565b60606138808484600085613a41565b600054610100900460ff16613a385760405160e560020a62461bcd02815260040161093290614a6d565b610f4433612789565b60603031831115613abd5760405160e560020a62461bcd02815260206004820152602660248201527f416464726573733a20696e73756666696369656e742062616c616e636520666f60448201527f722063616c6c00000000000000000000000000000000000000000000000000006064820152608401610932565b600160a060020a0385163b613b175760405160e560020a62461bcd02815260206004820152601d60248201527f416464726573733a2063616c6c20746f206e6f6e2d636f6e74726163740000006044820152606401610932565b60008086600160a060020a03168587604051613b339190614c7b565b60006040518083038185875af1925050503d8060008114613b70576040519150601f19603f3d011682016040523d82523d6000602084013e613b75565b606091505b5091509150613b85828286613b90565b979650505050505050565b60608315613b9f5750816110f4565b825115613baf5782518084602001fd5b8160405160e560020a62461bcd0281526004016109329190614c97565b828054828255906000526020600020908101928215613c21579160200282015b82811115613c215782518254600160a060020a031916600160a060020a03909116178255602090920191600190910190613bec565b50613c2d929150613c31565b5090565b5b80821115613c2d5760008155600101613c32565b600160a060020a0381168114610d2357600080fd5b8035613c6681613c46565b919050565b60008060408385031215613c7e57600080fd5b823561ffff81168114613c9057600080fd5b91506020830135613ca081613c46565b809150509250929050565b8015158114610d2357600080fd5b600060208284031215613ccb57600080fd5b81356110f481613cab565b60e060020a634e487b7102600052604160045260246000fd5b604051610220810167ffffffffffffffff81118282101715613d1357613d13613cd6565b60405290565b604051610120810167ffffffffffffffff81118282101715613d1357613d13613cd6565b60405160a0810167ffffffffffffffff81118282101715613d1357613d13613cd6565b60405160c0810167ffffffffffffffff81118282101715613d1357613d13613cd6565b604051601f8201601f1916810167ffffffffffffffff81118282101715613dac57613dac613cd6565b604052919050565b600067ffffffffffffffff821115613dce57613dce613cd6565b5060209081020190565b600082601f830112613de957600080fd5b81356020613dfe613df983613db4565b613d83565b82815291810284018101918181019086841115613e1a57600080fd5b8286015b84811015613e3e578035613e3181613c46565b8352918301918301613e1e565b509695505050505050565b600060208284031215613e5b57600080fd5b813567ffffffffffffffff811115613e7257600080fd5b61388084828501613dd8565b600060208284031215613e9057600080fd5b5035919050565b60008060408385031215613eaa57600080fd5b8235613c9081613c46565b600080600060608486031215613eca57600080fd5b8335613ed581613c46565b92506020840135613ee581613c46565b929592945050506040919091013590565b60008060408385031215613f0957600080fd5b50508035926020909101359150565b600080600060608486031215613f2d57600080fd5b8335613f3881613c46565b9250602084013591506040840135613f4f81613c46565b809150509250925092565b600080600080600060a08688031215613f7257600080fd5b505083359560208501359550604085013594606081013594506080013592509050565b600060208284031215613fa757600080fd5b81356110f481613c46565b600060408284031215613fc457600080fd5b6040516040810181811067ffffffffffffffff82111715613fe757613fe7613cd6565b604052823581529050806020830135613fff81613cab565b6020919091015292915050565b6000610220828403121561401f57600080fd5b614027613cef565b905061403282613c5b565b815261404060208301613c5b565b602082015261405160408301613c5b565b604082015261406260608301613c5b565b606082015261407360808301613c5b565b608082015261408460a08301613c5b565b60a082015261409560c08301613c5b565b60c08201526140a660e08301613c5b565b60e08201526101006140b9818401613c5b565b908201526101206140cb838201613c5b565b908201526101406140dd838201613c5b565b908201526101606140ef838201613c5b565b90820152610180614101838201613c5b565b908201526101a0614113838201613c5b565b908201526101c0614125838201613c5b565b908201526101e0614137838201613c5b565b90820152610200614149838201613c5b565b9082015292915050565b6000610120828403121561416657600080fd5b61416e613d19565b9050813567ffffffffffffffff8082111561418857600080fd5b61419485838601613dd8565b835260208401359150808211156141aa57600080fd5b6141b685838601613dd8565b602084015260408401359150808211156141cf57600080fd5b6141db85838601613dd8565b604084015260608401359150808211156141f457600080fd5b61420085838601613dd8565b6060840152608084013591508082111561421957600080fd5b61422585838601613dd8565b608084015260a084013591508082111561423e57600080fd5b61424a85838601613dd8565b60a084015260c084013591508082111561426357600080fd5b61426f85838601613dd8565b60c084015260e084013591508082111561428857600080fd5b61429485838601613dd8565b60e0840152610100915081840135818111156142af57600080fd5b6142bb86828701613dd8565b8385015250505092915050565b600060a082840312156142da57600080fd5b6142e2613d3d565b9050813581526020820135602082015260408201356040820152606082013560608201526080820135608082015292915050565b600060c0828403121561432857600080fd5b614330613d60565b9050813561433d81613c46565b8152602082013561434d81613c46565b6020820152604082013561436081613c46565b6040820152606082013561437381613c46565b6060820152608082013561438681613c46565b608082015260a082013561439981613c46565b60a082015292915050565b600080604083850312156143b757600080fd5b82356143c281613c46565b9150602083013567ffffffffffffffff808211156143df57600080fd5b9084019060a082870312156143f357600080fd5b6143fb613d3d565b82358281111561440a57600080fd5b8301610400818903121561441d57600080fd5b614425613d60565b61442f8983613fb2565b815261443e896040840161400c565b60208201526102608201358481111561445657600080fd5b6144628a828501614153565b6040830152506144768961028084016142c8565b6060820152614489896103208401614316565b60808201526103e082013560a0820152808352505060208301356020820152604083013560408201526144be60608401613c5b565b60608201526144cf60808401613c5b565b60808201528093505050509250929050565b6020808252818101527f4f776e61626c653a2063616c6c6572206973206e6f7420746865206f776e6572604082015260600190565b60208082526004908201527f21676f7600000000000000000000000000000000000000000000000000000000604082015260600190565b60208082526010908201527f217a6f72726f436f6e74726f6c6c657200000000000000000000000000000000604082015260600190565b6020808252601f908201527f5265656e7472616e637947756172643a207265656e7472616e742063616c6c00604082015260600190565b60208082526010908201527f5061757361626c653a2070617573656400000000000000000000000000000000604082015260600190565b60006020828403121561460457600080fd5b5051919050565b60e060020a634e487b7102600052601160045260246000fd5b600081600019048311821515161561463e5761463e61460b565b500290565b6000826146635760e060020a634e487b7102600052601260045260246000fd5b500490565b600081518084526020808501945080840160005b838110156146a1578151600160a060020a03168752958201959082019060010161467c565b509495945050505050565b838152826020820152606060408201526146d2606082018351600160a060020a03169052565b600060208301516146ee6080840182600160a060020a03169052565b506040830151600160a060020a03811660a0840152506060830151600160a060020a03811660c0840152506080830151600160a060020a03811660e08401525060a083015161010061474a81850183600160a060020a03169052565b60c0850151915061012061476881860184600160a060020a03169052565b60e0860151925061014061478681870185600160a060020a03169052565b8287015193506101c0925061016083818801526147a7610220880186614668565b9450828801519250610180605f1988870301818901526147c78685614668565b95508289015193506101a092506147e38389018561ffff169052565b8882015161ffff811689870152935088015161ffff81166101e089015293506148099050565b860151801515610200870152915061481e9050565b5095945050505050565b60008060006060848603121561483d57600080fd5b8351925060208401519150604084015190509250925092565b600082198211156148695761486961460b565b500190565b60e060020a634e487b7102600052603260045260246000fd5b6000828210156148995761489961460b565b500390565b6020808252825182820181905260009190848201906040850190845b818110156148df578351600160a060020a0316835292840192918401916001016148ba565b50909695505050505050565b600060208083850312156148fe57600080fd5b825167ffffffffffffffff81111561491557600080fd5b8301601f8101851361492657600080fd5b8051614934613df982613db4565b8181529083028201830190838101908783111561495057600080fd5b928401925b82841015613b8557835161496881613c46565b82529284019290840190614955565b60008060008060008060c0878903121561499057600080fd5b865195506020870151945060408701519350606087015192506080870151915060a087015190509295509295509295565b6020815281516020820152602082015160408201526040820151606082015260006060830151600160a060020a0380821660808501528060808601511660a0850152505060a083015160c083015260c08301516101008060e0850152614a2b610120850183614668565b915060e0850151614a4682860182600160a060020a03169052565b5090949350505050565b600060208284031215614a6257600080fd5b81516110f481613cab565b6020808252602b908201527f496e697469616c697a61626c653a20636f6e7472616374206973206e6f74206960408201527f6e697469616c697a696e67000000000000000000000000000000000000000000606082015260800190565b600060208284031215614adc57600080fd5b815160ff811681146110f457600080fd5b805169ffffffffffffffffffff81168114613c6657600080fd5b600080600080600060a08688031215614b1f57600080fd5b614b2886614aed565b9450602086015193506040860151925060608601519150614b4b60808701614aed565b90509295509295909350565b600181815b80851115614b94578160001904821115614b7857614b7861460b565b80851615614b8557918102915b60029094049390800290614b5c565b509250929050565b600082614bab57506001614c3a565b81614bb857506000614c3a565b8160018114614bce5760028114614bd857614bf5565b6001915050614c3a565b60ff841115614be957614be961460b565b8360020a915050614c3a565b5060208310610133831016604e8410600b8410161715614c18575081810a614c3a565b614c228383614b57565b8060001904821115614c3657614c3661460b565b0290505b92915050565b60006110f460ff841683614b9c565b60005b83811015614c6a578181015183820152602001614c52565b83811115610dc55750506000910152565b60008251614c8d818460208701614c4f565b9190910192915050565b6020815260008251806020840152614cb6816040850160208701614c4f565b601f01601f1916919091016040019291505056fea2646970667358221220976bacd6ae321fa8947909ef62ac0d85c4aafae087723ba4dac237106bc4e41f64736f6c634300080a0033",
  "immutableReferences": {},
  "source": "// SPDX-License-Identifier: MIT\n\npragma solidity ^0.8.0;\n\nimport \"./_VaultLending.sol\";\n\nimport \"../interfaces/ApeLending/IRainMaker.sol\";\n\n/// @title Vault contract for ApeLending leveraged lending strategies\ncontract VaultApeLending is VaultLending {\n    /* Libraries */\n    \n    using PriceFeed for AggregatorV3Interface;\n\n    /* Functions */\n\n    /// @notice Claims unclaimed rewards from lending protocols\n    /// @param _amount Amount to unfarm\n    function _unfarm(uint256 _amount) internal override {\n        // Preflight check (unused - just here to satisfy compiler)\n        require(_amount>=0);\n\n        // Get Earn balance that has been accumulated\n        uint256 _balEarn = IERC20Upgradeable(earnedAddress).balanceOf(address(this));\n\n        // Convert earn to underlying token, if applicable\n        if (_balEarn > 0) {\n            IVaultActions(vaultActions).safeSwap(SafeSwapUni.SafeSwapParams({\n                amountIn: _balEarn,\n                priceToken0: priceFeeds[earnedAddress].getExchangeRate(),\n                priceToken1: priceFeeds[token0Address].getExchangeRate(),\n                token0: token0Address,\n                token1: token1Address,\n                maxMarketMovementAllowed: maxMarketMovementAllowed,\n                path: swapPaths[earnedAddress][token0Address],\n                destination: address(this)\n            }));\n        }\n\n        // Withdraw appropriate amount\n        _withdrawSome(_amount);\n    }\n\n    /// @notice Claim pending lending protocol rewards\n    function claimLendingRewards() public override onlyAllowGov {\n        // Claim any outstanding rewards\n        IRainMaker(farmContractAddress).claimComp(address(this));\n    }\n}\n\ncontract VaultApeLendingETH is VaultApeLending {}\n",
  "sourcePath": "/Users/kristophm/Documents/workspace/zorro-protocol/contracts/vaults/VaultApeLending.sol",
  "compiler": {
    "name": "solc",
    "version": "0.8.10+commit.fc410830.Emscripten.clang"
  },
  "schemaVersion": "3.4.11",
  "updatedAt": "2023-03-09T00:49:01.905Z",
  "devdoc": {
    "kind": "dev",
    "methods": {
      "depositWantToken(uint256)": {
        "params": {
          "_wantAmt": "amount of underlying token to deposit/stake"
        },
        "returns": {
          "sharesAdded": "uint256 Number of shares added"
        }
      },
      "exchangeUSDForWantToken(uint256,uint256)": {
        "params": {
          "_amountUSD": "Amount of USD to exchange",
          "_maxMarketMovementAllowed": "Slippage (990 = 1%)"
        },
        "returns": {
          "wantObtained": "The amount of Want token returned"
        }
      },
      "exchangeWantTokenForUSD(uint256,uint256)": {
        "params": {
          "_amount": "Amount of want to exchange",
          "_maxMarketMovementAllowed": "Slippage (990 = 1%)"
        },
        "returns": {
          "usdObtained": "The amount of USD token returned"
        }
      },
      "inCaseTokensGetStuck(address,uint256,address)": {
        "params": {
          "_amount": "The amount of the tokens to transfer",
          "_to": "The address to transfer tokens to",
          "_token": "Address of the ERC20 token to transfer"
        }
      },
      "initialize(address,(((uint256,bool),(address,address,address,address,address,address,address,address,address,address,address,address,address,address,address,address,address),(address[],address[],address[],address[],address[],address[],address[],address[],address[]),(uint256,uint256,uint256,uint256,uint256),(address,address,address,address,address,address),uint256),uint256,uint256,address,address))": {
        "params": {
          "_initValue": "A VaultAlpacaInit struct containing all init values",
          "_timelockOwner": "The designated timelock controller address to act as owner"
        }
      },
      "owner()": {
        "details": "Returns the address of the current owner."
      },
      "paused()": {
        "details": "Returns true if the contract is paused, and false otherwise."
      },
      "renounceOwnership()": {
        "details": "Leaves the contract without owner. It will not be possible to call `onlyOwner` functions anymore. Can only be called by the current owner. NOTE: Renouncing ownership will leave the contract without an owner, thereby removing any functionality that is only available to the owner."
      },
      "setFeeSettings(uint256,uint256,uint256,uint256,uint256)": {
        "params": {
          "_buyBackRate": "Buy back rate fee numerator",
          "_controllerFee": "Controller fee numerator",
          "_entranceFeeFactor": "Entrance fee numerator (higher means smaller percentage)",
          "_revShareRate": "Rev share rate fee numerator",
          "_withdrawFeeFactor": "Withdrawal fee numerator (higher means smaller percentage)"
        }
      },
      "setGov(address)": {
        "params": {
          "_govAddress": "The new gov address"
        }
      },
      "setOnlyGov(bool)": {
        "params": {
          "_onlyGov": "whether onlyGov should be enforced"
        }
      },
      "transferOwnership(address)": {
        "details": "Transfers ownership of the contract to a new account (`newOwner`). Can only be called by the current owner."
      },
      "withdrawWantToken(uint256)": {
        "params": {
          "_wantAmt": "The amount of Want token to withdraw"
        },
        "returns": {
          "sharesRemoved": "The number of shares removed"
        }
      }
    },
    "version": 1
  },
  "userdoc": {
    "kind": "user",
    "methods": {
      "claimLendingRewards()": {
        "notice": "Claim pending lending protocol rewards"
      },
      "depositWantToken(uint256)": {
        "notice": "Receives new deposits from user"
      },
      "earn()": {
        "notice": "The main compounding (earn) function. Reinvests profits since the last earn event."
      },
      "exchangeUSDForWantToken(uint256,uint256)": {
        "notice": "Converts USD to Want token and delivers back to this contract"
      },
      "exchangeWantTokenForUSD(uint256,uint256)": {
        "notice": "Converts Want token to USD and delivers back to this contract"
      },
      "farm()": {
        "notice": "Public function for farming Want token."
      },
      "inCaseTokensGetStuck(address,uint256,address)": {
        "notice": "Safely transfer ERC20 tokens stuck in this contract to a specified address"
      },
      "initialize(address,(((uint256,bool),(address,address,address,address,address,address,address,address,address,address,address,address,address,address,address,address,address),(address[],address[],address[],address[],address[],address[],address[],address[],address[]),(uint256,uint256,uint256,uint256,uint256),(address,address,address,address,address,address),uint256),uint256,uint256,address,address))": {
        "notice": "Upgradeable constructor"
      },
      "pause()": {
        "notice": "Pause contract"
      },
      "setFeeSettings(uint256,uint256,uint256,uint256,uint256)": {
        "notice": "Configure key fee parameters"
      },
      "setGov(address)": {
        "notice": "Set governor address"
      },
      "setOnlyGov(bool)": {
        "notice": "Set onlyGov property"
      },
      "unpause()": {
        "notice": "Unpause contract"
      },
      "updateBalance()": {
        "notice": "Update balance of supply and borrow"
      },
      "withdrawWantToken(uint256)": {
        "notice": "Fully withdraw Want tokens from the Farm contract (100% withdrawals only)"
      }
    },
    "version": 1
  }
}