{
  "contractName": "VaultAcryptosSingle",
  "abi": [
    {
      "anonymous": false,
      "inputs": [
        {
          "indexed": true,
          "internalType": "address",
          "name": "previousOwner",
          "type": "address"
        },
        {
          "indexed": true,
          "internalType": "address",
          "name": "newOwner",
          "type": "address"
        }
      ],
      "name": "OwnershipTransferred",
      "type": "event"
    },
    {
      "anonymous": false,
      "inputs": [
        {
          "indexed": false,
          "internalType": "address",
          "name": "account",
          "type": "address"
        }
      ],
      "name": "Paused",
      "type": "event"
    },
    {
      "anonymous": false,
      "inputs": [
        {
          "indexed": false,
          "internalType": "address",
          "name": "_govAddress",
          "type": "address"
        }
      ],
      "name": "SetGov",
      "type": "event"
    },
    {
      "anonymous": false,
      "inputs": [
        {
          "indexed": false,
          "internalType": "bool",
          "name": "_onlyGov",
          "type": "bool"
        }
      ],
      "name": "SetOnlyGov",
      "type": "event"
    },
    {
      "anonymous": false,
      "inputs": [
        {
          "indexed": false,
          "internalType": "address",
          "name": "_rewardsAddress",
          "type": "address"
        }
      ],
      "name": "SetRewardsAddress",
      "type": "event"
    },
    {
      "anonymous": false,
      "inputs": [
        {
          "indexed": false,
          "internalType": "uint256",
          "name": "_entranceFeeFactor",
          "type": "uint256"
        },
        {
          "indexed": false,
          "internalType": "uint256",
          "name": "_withdrawFeeFactor",
          "type": "uint256"
        },
        {
          "indexed": false,
          "internalType": "uint256",
          "name": "_controllerFee",
          "type": "uint256"
        },
        {
          "indexed": false,
          "internalType": "uint256",
          "name": "_buyBackRate",
          "type": "uint256"
        }
      ],
      "name": "SetSettings",
      "type": "event"
    },
    {
      "anonymous": false,
      "inputs": [
        {
          "indexed": false,
          "internalType": "address",
          "name": "_uniRouterAddress",
          "type": "address"
        }
      ],
      "name": "SetUniRouterAddress",
      "type": "event"
    },
    {
      "anonymous": false,
      "inputs": [
        {
          "indexed": false,
          "internalType": "address",
          "name": "account",
          "type": "address"
        }
      ],
      "name": "Unpaused",
      "type": "event"
    },
    {
      "inputs": [
        {
          "internalType": "uint256",
          "name": "",
          "type": "uint256"
        }
      ],
      "name": "BUSDToLPPoolOtherTokenPath",
      "outputs": [
        {
          "internalType": "address",
          "name": "",
          "type": "address"
        }
      ],
      "stateMutability": "view",
      "type": "function",
      "constant": true
    },
    {
      "inputs": [
        {
          "internalType": "uint256",
          "name": "",
          "type": "uint256"
        }
      ],
      "name": "BUSDToToken0Path",
      "outputs": [
        {
          "internalType": "address",
          "name": "",
          "type": "address"
        }
      ],
      "stateMutability": "view",
      "type": "function",
      "constant": true
    },
    {
      "inputs": [
        {
          "internalType": "uint256",
          "name": "",
          "type": "uint256"
        }
      ],
      "name": "BUSDToZORROPath",
      "outputs": [
        {
          "internalType": "address",
          "name": "",
          "type": "address"
        }
      ],
      "stateMutability": "view",
      "type": "function",
      "constant": true
    },
    {
      "inputs": [
        {
          "internalType": "uint256",
          "name": "",
          "type": "uint256"
        }
      ],
      "name": "USDCToToken0Path",
      "outputs": [
        {
          "internalType": "address",
          "name": "",
          "type": "address"
        }
      ],
      "stateMutability": "view",
      "type": "function",
      "constant": true
    },
    {
      "inputs": [
        {
          "internalType": "uint256",
          "name": "",
          "type": "uint256"
        }
      ],
      "name": "USDCToToken1Path",
      "outputs": [
        {
          "internalType": "address",
          "name": "",
          "type": "address"
        }
      ],
      "stateMutability": "view",
      "type": "function",
      "constant": true
    },
    {
      "inputs": [],
      "name": "ZORPriceFeed",
      "outputs": [
        {
          "internalType": "contract AggregatorV3Interface",
          "name": "",
          "type": "address"
        }
      ],
      "stateMutability": "view",
      "type": "function",
      "constant": true
    },
    {
      "inputs": [],
      "name": "ZORROAddress",
      "outputs": [
        {
          "internalType": "address",
          "name": "",
          "type": "address"
        }
      ],
      "stateMutability": "view",
      "type": "function",
      "constant": true
    },
    {
      "inputs": [],
      "name": "balancerACSWeightBasisPoints",
      "outputs": [
        {
          "internalType": "uint256",
          "name": "",
          "type": "uint256"
        }
      ],
      "stateMutability": "view",
      "type": "function",
      "constant": true
    },
    {
      "inputs": [],
      "name": "balancerBUSDWeightBasisPoints",
      "outputs": [
        {
          "internalType": "uint256",
          "name": "",
          "type": "uint256"
        }
      ],
      "stateMutability": "view",
      "type": "function",
      "constant": true
    },
    {
      "inputs": [],
      "name": "balancerPool",
      "outputs": [
        {
          "internalType": "bytes32",
          "name": "",
          "type": "bytes32"
        }
      ],
      "stateMutability": "view",
      "type": "function",
      "constant": true
    },
    {
      "inputs": [],
      "name": "balancerVaultAddress",
      "outputs": [
        {
          "internalType": "address",
          "name": "",
          "type": "address"
        }
      ],
      "stateMutability": "view",
      "type": "function",
      "constant": true
    },
    {
      "inputs": [],
      "name": "burnAddress",
      "outputs": [
        {
          "internalType": "address",
          "name": "",
          "type": "address"
        }
      ],
      "stateMutability": "view",
      "type": "function",
      "constant": true
    },
    {
      "inputs": [],
      "name": "buyBackRate",
      "outputs": [
        {
          "internalType": "uint256",
          "name": "",
          "type": "uint256"
        }
      ],
      "stateMutability": "view",
      "type": "function",
      "constant": true
    },
    {
      "inputs": [],
      "name": "buyBackRateMax",
      "outputs": [
        {
          "internalType": "uint256",
          "name": "",
          "type": "uint256"
        }
      ],
      "stateMutability": "view",
      "type": "function",
      "constant": true
    },
    {
      "inputs": [],
      "name": "buyBackRateUL",
      "outputs": [
        {
          "internalType": "uint256",
          "name": "",
          "type": "uint256"
        }
      ],
      "stateMutability": "view",
      "type": "function",
      "constant": true
    },
    {
      "inputs": [],
      "name": "controllerFee",
      "outputs": [
        {
          "internalType": "uint256",
          "name": "",
          "type": "uint256"
        }
      ],
      "stateMutability": "view",
      "type": "function",
      "constant": true
    },
    {
      "inputs": [],
      "name": "controllerFeeMax",
      "outputs": [
        {
          "internalType": "uint256",
          "name": "",
          "type": "uint256"
        }
      ],
      "stateMutability": "view",
      "type": "function",
      "constant": true
    },
    {
      "inputs": [],
      "name": "controllerFeeUL",
      "outputs": [
        {
          "internalType": "uint256",
          "name": "",
          "type": "uint256"
        }
      ],
      "stateMutability": "view",
      "type": "function",
      "constant": true
    },
    {
      "inputs": [],
      "name": "earnTokenPriceFeed",
      "outputs": [
        {
          "internalType": "contract AggregatorV3Interface",
          "name": "",
          "type": "address"
        }
      ],
      "stateMutability": "view",
      "type": "function",
      "constant": true
    },
    {
      "inputs": [],
      "name": "earnedAddress",
      "outputs": [
        {
          "internalType": "address",
          "name": "",
          "type": "address"
        }
      ],
      "stateMutability": "view",
      "type": "function",
      "constant": true
    },
    {
      "inputs": [
        {
          "internalType": "uint256",
          "name": "",
          "type": "uint256"
        }
      ],
      "name": "earnedToToken0Path",
      "outputs": [
        {
          "internalType": "address",
          "name": "",
          "type": "address"
        }
      ],
      "stateMutability": "view",
      "type": "function",
      "constant": true
    },
    {
      "inputs": [
        {
          "internalType": "uint256",
          "name": "",
          "type": "uint256"
        }
      ],
      "name": "earnedToToken1Path",
      "outputs": [
        {
          "internalType": "address",
          "name": "",
          "type": "address"
        }
      ],
      "stateMutability": "view",
      "type": "function",
      "constant": true
    },
    {
      "inputs": [
        {
          "internalType": "uint256",
          "name": "",
          "type": "uint256"
        }
      ],
      "name": "earnedToUSDCPath",
      "outputs": [
        {
          "internalType": "address",
          "name": "",
          "type": "address"
        }
      ],
      "stateMutability": "view",
      "type": "function",
      "constant": true
    },
    {
      "inputs": [
        {
          "internalType": "uint256",
          "name": "",
          "type": "uint256"
        }
      ],
      "name": "earnedToZORLPPoolOtherTokenPath",
      "outputs": [
        {
          "internalType": "address",
          "name": "",
          "type": "address"
        }
      ],
      "stateMutability": "view",
      "type": "function",
      "constant": true
    },
    {
      "inputs": [
        {
          "internalType": "uint256",
          "name": "",
          "type": "uint256"
        }
      ],
      "name": "earnedToZORROPath",
      "outputs": [
        {
          "internalType": "address",
          "name": "",
          "type": "address"
        }
      ],
      "stateMutability": "view",
      "type": "function",
      "constant": true
    },
    {
      "inputs": [],
      "name": "entranceFeeFactor",
      "outputs": [
        {
          "internalType": "uint256",
          "name": "",
          "type": "uint256"
        }
      ],
      "stateMutability": "view",
      "type": "function",
      "constant": true
    },
    {
      "inputs": [],
      "name": "entranceFeeFactorLL",
      "outputs": [
        {
          "internalType": "uint256",
          "name": "",
          "type": "uint256"
        }
      ],
      "stateMutability": "view",
      "type": "function",
      "constant": true
    },
    {
      "inputs": [],
      "name": "entranceFeeFactorMax",
      "outputs": [
        {
          "internalType": "uint256",
          "name": "",
          "type": "uint256"
        }
      ],
      "stateMutability": "view",
      "type": "function",
      "constant": true
    },
    {
      "inputs": [],
      "name": "farmContractAddress",
      "outputs": [
        {
          "internalType": "address",
          "name": "",
          "type": "address"
        }
      ],
      "stateMutability": "view",
      "type": "function",
      "constant": true
    },
    {
      "inputs": [],
      "name": "govAddress",
      "outputs": [
        {
          "internalType": "address",
          "name": "",
          "type": "address"
        }
      ],
      "stateMutability": "view",
      "type": "function",
      "constant": true
    },
    {
      "inputs": [
        {
          "internalType": "address",
          "name": "_token",
          "type": "address"
        },
        {
          "internalType": "uint256",
          "name": "_amount",
          "type": "uint256"
        },
        {
          "internalType": "address",
          "name": "_to",
          "type": "address"
        }
      ],
      "name": "inCaseTokensGetStuck",
      "outputs": [],
      "stateMutability": "nonpayable",
      "type": "function"
    },
    {
      "inputs": [],
      "name": "isCOREStaking",
      "outputs": [
        {
          "internalType": "bool",
          "name": "",
          "type": "bool"
        }
      ],
      "stateMutability": "view",
      "type": "function",
      "constant": true
    },
    {
      "inputs": [],
      "name": "isHomeChain",
      "outputs": [
        {
          "internalType": "bool",
          "name": "",
          "type": "bool"
        }
      ],
      "stateMutability": "view",
      "type": "function",
      "constant": true
    },
    {
      "inputs": [],
      "name": "isSingleAssetDeposit",
      "outputs": [
        {
          "internalType": "bool",
          "name": "",
          "type": "bool"
        }
      ],
      "stateMutability": "view",
      "type": "function",
      "constant": true
    },
    {
      "inputs": [],
      "name": "isZorroComp",
      "outputs": [
        {
          "internalType": "bool",
          "name": "",
          "type": "bool"
        }
      ],
      "stateMutability": "view",
      "type": "function",
      "constant": true
    },
    {
      "inputs": [],
      "name": "lastEarnBlock",
      "outputs": [
        {
          "internalType": "uint256",
          "name": "",
          "type": "uint256"
        }
      ],
      "stateMutability": "view",
      "type": "function",
      "constant": true
    },
    {
      "inputs": [],
      "name": "lpPoolOtherTokenPriceFeed",
      "outputs": [
        {
          "internalType": "contract AggregatorV3Interface",
          "name": "",
          "type": "address"
        }
      ],
      "stateMutability": "view",
      "type": "function",
      "constant": true
    },
    {
      "inputs": [],
      "name": "onlyGov",
      "outputs": [
        {
          "internalType": "bool",
          "name": "",
          "type": "bool"
        }
      ],
      "stateMutability": "view",
      "type": "function",
      "constant": true
    },
    {
      "inputs": [],
      "name": "owner",
      "outputs": [
        {
          "internalType": "address",
          "name": "",
          "type": "address"
        }
      ],
      "stateMutability": "view",
      "type": "function",
      "constant": true
    },
    {
      "inputs": [],
      "name": "pause",
      "outputs": [],
      "stateMutability": "nonpayable",
      "type": "function"
    },
    {
      "inputs": [],
      "name": "paused",
      "outputs": [
        {
          "internalType": "bool",
          "name": "",
          "type": "bool"
        }
      ],
      "stateMutability": "view",
      "type": "function",
      "constant": true
    },
    {
      "inputs": [],
      "name": "pid",
      "outputs": [
        {
          "internalType": "uint256",
          "name": "",
          "type": "uint256"
        }
      ],
      "stateMutability": "view",
      "type": "function",
      "constant": true
    },
    {
      "inputs": [],
      "name": "poolAddress",
      "outputs": [
        {
          "internalType": "address",
          "name": "",
          "type": "address"
        }
      ],
      "stateMutability": "view",
      "type": "function",
      "constant": true
    },
    {
      "inputs": [],
      "name": "renounceOwnership",
      "outputs": [],
      "stateMutability": "nonpayable",
      "type": "function"
    },
    {
      "inputs": [],
      "name": "revShareRate",
      "outputs": [
        {
          "internalType": "uint256",
          "name": "",
          "type": "uint256"
        }
      ],
      "stateMutability": "view",
      "type": "function",
      "constant": true
    },
    {
      "inputs": [],
      "name": "revShareRateMax",
      "outputs": [
        {
          "internalType": "uint256",
          "name": "",
          "type": "uint256"
        }
      ],
      "stateMutability": "view",
      "type": "function",
      "constant": true
    },
    {
      "inputs": [],
      "name": "revShareRateUL",
      "outputs": [
        {
          "internalType": "uint256",
          "name": "",
          "type": "uint256"
        }
      ],
      "stateMutability": "view",
      "type": "function",
      "constant": true
    },
    {
      "inputs": [],
      "name": "rewardsAddress",
      "outputs": [
        {
          "internalType": "address",
          "name": "",
          "type": "address"
        }
      ],
      "stateMutability": "view",
      "type": "function",
      "constant": true
    },
    {
      "inputs": [
        {
          "internalType": "address",
          "name": "_earnedAddress",
          "type": "address"
        }
      ],
      "name": "setEarnedAddress",
      "outputs": [],
      "stateMutability": "nonpayable",
      "type": "function"
    },
    {
      "inputs": [
        {
          "internalType": "address",
          "name": "_farmContractAddress",
          "type": "address"
        }
      ],
      "name": "setFarmContractAddress",
      "outputs": [],
      "stateMutability": "nonpayable",
      "type": "function"
    },
    {
      "inputs": [
        {
          "internalType": "uint256",
          "name": "_entranceFeeFactor",
          "type": "uint256"
        },
        {
          "internalType": "uint256",
          "name": "_withdrawFeeFactor",
          "type": "uint256"
        },
        {
          "internalType": "uint256",
          "name": "_controllerFee",
          "type": "uint256"
        },
        {
          "internalType": "uint256",
          "name": "_buyBackRate",
          "type": "uint256"
        }
      ],
      "name": "setFeeSettings",
      "outputs": [],
      "stateMutability": "nonpayable",
      "type": "function"
    },
    {
      "inputs": [
        {
          "internalType": "address",
          "name": "_govAddress",
          "type": "address"
        }
      ],
      "name": "setGov",
      "outputs": [],
      "stateMutability": "nonpayable",
      "type": "function"
    },
    {
      "inputs": [
        {
          "internalType": "bool",
          "name": "_onlyGov",
          "type": "bool"
        }
      ],
      "name": "setOnlyGov",
      "outputs": [],
      "stateMutability": "nonpayable",
      "type": "function"
    },
    {
      "inputs": [
        {
          "internalType": "uint256",
          "name": "_pid",
          "type": "uint256"
        }
      ],
      "name": "setPid",
      "outputs": [],
      "stateMutability": "nonpayable",
      "type": "function"
    },
    {
      "inputs": [
        {
          "internalType": "address",
          "name": "_poolAddress",
          "type": "address"
        }
      ],
      "name": "setPoolAddress",
      "outputs": [],
      "stateMutability": "nonpayable",
      "type": "function"
    },
    {
      "inputs": [
        {
          "internalType": "uint8",
          "name": "_idx",
          "type": "uint8"
        },
        {
          "internalType": "address",
          "name": "_priceFeed",
          "type": "address"
        }
      ],
      "name": "setPriceFeed",
      "outputs": [],
      "stateMutability": "nonpayable",
      "type": "function"
    },
    {
      "inputs": [
        {
          "internalType": "address",
          "name": "_rewardsAddress",
          "type": "address"
        }
      ],
      "name": "setRewardsAddress",
      "outputs": [],
      "stateMutability": "nonpayable",
      "type": "function"
    },
    {
      "inputs": [
        {
          "internalType": "uint8",
          "name": "_idx",
          "type": "uint8"
        },
        {
          "internalType": "address[]",
          "name": "_path",
          "type": "address[]"
        }
      ],
      "name": "setSwapPaths",
      "outputs": [],
      "stateMutability": "nonpayable",
      "type": "function"
    },
    {
      "inputs": [
        {
          "internalType": "address",
          "name": "_token0Address",
          "type": "address"
        }
      ],
      "name": "setToken0Address",
      "outputs": [],
      "stateMutability": "nonpayable",
      "type": "function"
    },
    {
      "inputs": [
        {
          "internalType": "address",
          "name": "_token1Address",
          "type": "address"
        }
      ],
      "name": "setToken1Address",
      "outputs": [],
      "stateMutability": "nonpayable",
      "type": "function"
    },
    {
      "inputs": [
        {
          "internalType": "address",
          "name": "_tokenUSDCAddress",
          "type": "address"
        }
      ],
      "name": "setTokenUSDCAddress",
      "outputs": [],
      "stateMutability": "nonpayable",
      "type": "function"
    },
    {
      "inputs": [
        {
          "internalType": "address",
          "name": "_uniRouterAddress",
          "type": "address"
        }
      ],
      "name": "setUniRouterAddress",
      "outputs": [],
      "stateMutability": "nonpayable",
      "type": "function"
    },
    {
      "inputs": [
        {
          "internalType": "address",
          "name": "_wantAddress",
          "type": "address"
        }
      ],
      "name": "setWantAddress",
      "outputs": [],
      "stateMutability": "nonpayable",
      "type": "function"
    },
    {
      "inputs": [
        {
          "internalType": "address",
          "name": "_ZORROAddress",
          "type": "address"
        }
      ],
      "name": "setZORROAddress",
      "outputs": [],
      "stateMutability": "nonpayable",
      "type": "function"
    },
    {
      "inputs": [
        {
          "internalType": "address",
          "name": "_zorroControllerAddress",
          "type": "address"
        }
      ],
      "name": "setZorroControllerAddress",
      "outputs": [],
      "stateMutability": "nonpayable",
      "type": "function"
    },
    {
      "inputs": [
        {
          "internalType": "address",
          "name": "_poolAddress",
          "type": "address"
        }
      ],
      "name": "setZorroLPPoolAddress",
      "outputs": [],
      "stateMutability": "nonpayable",
      "type": "function"
    },
    {
      "inputs": [
        {
          "internalType": "address",
          "name": "_otherToken",
          "type": "address"
        }
      ],
      "name": "setZorroLPPoolOtherToken",
      "outputs": [],
      "stateMutability": "nonpayable",
      "type": "function"
    },
    {
      "inputs": [
        {
          "internalType": "address",
          "name": "_stakingVault",
          "type": "address"
        }
      ],
      "name": "setZorroStakingVault",
      "outputs": [],
      "stateMutability": "nonpayable",
      "type": "function"
    },
    {
      "inputs": [],
      "name": "sharesTotal",
      "outputs": [
        {
          "internalType": "uint256",
          "name": "",
          "type": "uint256"
        }
      ],
      "stateMutability": "view",
      "type": "function",
      "constant": true
    },
    {
      "inputs": [],
      "name": "token0Address",
      "outputs": [
        {
          "internalType": "address",
          "name": "",
          "type": "address"
        }
      ],
      "stateMutability": "view",
      "type": "function",
      "constant": true
    },
    {
      "inputs": [],
      "name": "token0PriceFeed",
      "outputs": [
        {
          "internalType": "contract AggregatorV3Interface",
          "name": "",
          "type": "address"
        }
      ],
      "stateMutability": "view",
      "type": "function",
      "constant": true
    },
    {
      "inputs": [
        {
          "internalType": "uint256",
          "name": "",
          "type": "uint256"
        }
      ],
      "name": "token0ToUSDCPath",
      "outputs": [
        {
          "internalType": "address",
          "name": "",
          "type": "address"
        }
      ],
      "stateMutability": "view",
      "type": "function",
      "constant": true
    },
    {
      "inputs": [],
      "name": "token1Address",
      "outputs": [
        {
          "internalType": "address",
          "name": "",
          "type": "address"
        }
      ],
      "stateMutability": "view",
      "type": "function",
      "constant": true
    },
    {
      "inputs": [],
      "name": "token1PriceFeed",
      "outputs": [
        {
          "internalType": "contract AggregatorV3Interface",
          "name": "",
          "type": "address"
        }
      ],
      "stateMutability": "view",
      "type": "function",
      "constant": true
    },
    {
      "inputs": [
        {
          "internalType": "uint256",
          "name": "",
          "type": "uint256"
        }
      ],
      "name": "token1ToUSDCPath",
      "outputs": [
        {
          "internalType": "address",
          "name": "",
          "type": "address"
        }
      ],
      "stateMutability": "view",
      "type": "function",
      "constant": true
    },
    {
      "inputs": [],
      "name": "tokenACS",
      "outputs": [
        {
          "internalType": "address",
          "name": "",
          "type": "address"
        }
      ],
      "stateMutability": "view",
      "type": "function",
      "constant": true
    },
    {
      "inputs": [],
      "name": "tokenBUSD",
      "outputs": [
        {
          "internalType": "address",
          "name": "",
          "type": "address"
        }
      ],
      "stateMutability": "view",
      "type": "function",
      "constant": true
    },
    {
      "inputs": [],
      "name": "tokenUSDCAddress",
      "outputs": [
        {
          "internalType": "address",
          "name": "",
          "type": "address"
        }
      ],
      "stateMutability": "view",
      "type": "function",
      "constant": true
    },
    {
      "inputs": [
        {
          "internalType": "address",
          "name": "newOwner",
          "type": "address"
        }
      ],
      "name": "transferOwnership",
      "outputs": [],
      "stateMutability": "nonpayable",
      "type": "function"
    },
    {
      "inputs": [],
      "name": "uniRouterAddress",
      "outputs": [
        {
          "internalType": "address",
          "name": "",
          "type": "address"
        }
      ],
      "stateMutability": "view",
      "type": "function",
      "constant": true
    },
    {
      "inputs": [],
      "name": "unpause",
      "outputs": [],
      "stateMutability": "nonpayable",
      "type": "function"
    },
    {
      "inputs": [
        {
          "internalType": "address",
          "name": "",
          "type": "address"
        }
      ],
      "name": "userShares",
      "outputs": [
        {
          "internalType": "uint256",
          "name": "",
          "type": "uint256"
        }
      ],
      "stateMutability": "view",
      "type": "function",
      "constant": true
    },
    {
      "inputs": [],
      "name": "wantAddress",
      "outputs": [
        {
          "internalType": "address",
          "name": "",
          "type": "address"
        }
      ],
      "stateMutability": "view",
      "type": "function",
      "constant": true
    },
    {
      "inputs": [],
      "name": "wantLockedTotal",
      "outputs": [
        {
          "internalType": "uint256",
          "name": "",
          "type": "uint256"
        }
      ],
      "stateMutability": "view",
      "type": "function",
      "constant": true
    },
    {
      "inputs": [],
      "name": "withdrawFeeFactor",
      "outputs": [
        {
          "internalType": "uint256",
          "name": "",
          "type": "uint256"
        }
      ],
      "stateMutability": "view",
      "type": "function",
      "constant": true
    },
    {
      "inputs": [],
      "name": "withdrawFeeFactorLL",
      "outputs": [
        {
          "internalType": "uint256",
          "name": "",
          "type": "uint256"
        }
      ],
      "stateMutability": "view",
      "type": "function",
      "constant": true
    },
    {
      "inputs": [],
      "name": "withdrawFeeFactorMax",
      "outputs": [
        {
          "internalType": "uint256",
          "name": "",
          "type": "uint256"
        }
      ],
      "stateMutability": "view",
      "type": "function",
      "constant": true
    },
    {
      "inputs": [],
      "name": "zorroControllerAddress",
      "outputs": [
        {
          "internalType": "address",
          "name": "",
          "type": "address"
        }
      ],
      "stateMutability": "view",
      "type": "function",
      "constant": true
    },
    {
      "inputs": [],
      "name": "zorroLPPool",
      "outputs": [
        {
          "internalType": "address",
          "name": "",
          "type": "address"
        }
      ],
      "stateMutability": "view",
      "type": "function",
      "constant": true
    },
    {
      "inputs": [],
      "name": "zorroLPPoolOtherToken",
      "outputs": [
        {
          "internalType": "address",
          "name": "",
          "type": "address"
        }
      ],
      "stateMutability": "view",
      "type": "function",
      "constant": true
    },
    {
      "inputs": [],
      "name": "zorroStakingVault",
      "outputs": [
        {
          "internalType": "address",
          "name": "",
          "type": "address"
        }
      ],
      "stateMutability": "view",
      "type": "function",
      "constant": true
    },
    {
      "inputs": [],
      "name": "zorroXChainController",
      "outputs": [
        {
          "internalType": "address",
          "name": "",
          "type": "address"
        }
      ],
      "stateMutability": "view",
      "type": "function",
      "constant": true
    },
    {
      "inputs": [
        {
          "internalType": "address",
          "name": "_timelockOwner",
          "type": "address"
        },
        {
          "components": [
            {
              "internalType": "uint256",
              "name": "pid",
              "type": "uint256"
            },
            {
              "internalType": "bool",
              "name": "isCOREStaking",
              "type": "bool"
            },
            {
              "internalType": "bool",
              "name": "isZorroComp",
              "type": "bool"
            },
            {
              "internalType": "bool",
              "name": "isHomeChain",
              "type": "bool"
            },
            {
              "components": [
                {
                  "internalType": "address",
                  "name": "govAddress",
                  "type": "address"
                },
                {
                  "internalType": "address",
                  "name": "zorroControllerAddress",
                  "type": "address"
                },
                {
                  "internalType": "address",
                  "name": "ZORROAddress",
                  "type": "address"
                },
                {
                  "internalType": "address",
                  "name": "zorroStakingVault",
                  "type": "address"
                },
                {
                  "internalType": "address",
                  "name": "wantAddress",
                  "type": "address"
                },
                {
                  "internalType": "address",
                  "name": "token0Address",
                  "type": "address"
                },
                {
                  "internalType": "address",
                  "name": "token1Address",
                  "type": "address"
                },
                {
                  "internalType": "address",
                  "name": "earnedAddress",
                  "type": "address"
                },
                {
                  "internalType": "address",
                  "name": "farmContractAddress",
                  "type": "address"
                },
                {
                  "internalType": "address",
                  "name": "rewardsAddress",
                  "type": "address"
                },
                {
                  "internalType": "address",
                  "name": "poolAddress",
                  "type": "address"
                },
                {
                  "internalType": "address",
                  "name": "uniRouterAddress",
                  "type": "address"
                },
                {
                  "internalType": "address",
                  "name": "zorroLPPool",
                  "type": "address"
                },
                {
                  "internalType": "address",
                  "name": "zorroLPPoolOtherToken",
                  "type": "address"
                },
                {
                  "internalType": "address",
                  "name": "tokenUSDCAddress",
                  "type": "address"
                }
              ],
              "internalType": "struct VaultBase.VaultAddresses",
              "name": "keyAddresses",
              "type": "tuple"
            },
            {
              "internalType": "address[]",
              "name": "earnedToZORROPath",
              "type": "address[]"
            },
            {
              "internalType": "address[]",
              "name": "earnedToToken0Path",
              "type": "address[]"
            },
            {
              "internalType": "address[]",
              "name": "USDCToToken0Path",
              "type": "address[]"
            },
            {
              "internalType": "address[]",
              "name": "earnedToZORLPPoolOtherTokenPath",
              "type": "address[]"
            },
            {
              "internalType": "address[]",
              "name": "earnedToUSDCPath",
              "type": "address[]"
            },
            {
              "internalType": "address[]",
              "name": "BUSDToToken0Path",
              "type": "address[]"
            },
            {
              "internalType": "address[]",
              "name": "BUSDToZORROPath",
              "type": "address[]"
            },
            {
              "internalType": "address[]",
              "name": "BUSDToLPPoolOtherTokenPath",
              "type": "address[]"
            },
            {
              "components": [
                {
                  "internalType": "uint256",
                  "name": "controllerFee",
                  "type": "uint256"
                },
                {
                  "internalType": "uint256",
                  "name": "buyBackRate",
                  "type": "uint256"
                },
                {
                  "internalType": "uint256",
                  "name": "revShareRate",
                  "type": "uint256"
                },
                {
                  "internalType": "uint256",
                  "name": "entranceFeeFactor",
                  "type": "uint256"
                },
                {
                  "internalType": "uint256",
                  "name": "withdrawFeeFactor",
                  "type": "uint256"
                }
              ],
              "internalType": "struct VaultBase.VaultFees",
              "name": "fees",
              "type": "tuple"
            },
            {
              "components": [
                {
                  "internalType": "address",
                  "name": "token0PriceFeed",
                  "type": "address"
                },
                {
                  "internalType": "address",
                  "name": "token1PriceFeed",
                  "type": "address"
                },
                {
                  "internalType": "address",
                  "name": "earnTokenPriceFeed",
                  "type": "address"
                },
                {
                  "internalType": "address",
                  "name": "ZORPriceFeed",
                  "type": "address"
                },
                {
                  "internalType": "address",
                  "name": "lpPoolOtherTokenPriceFeed",
                  "type": "address"
                }
              ],
              "internalType": "struct VaultBase.VaultPriceFeeds",
              "name": "priceFeeds",
              "type": "tuple"
            }
          ],
          "internalType": "struct VaultAcryptosSingle.VaultAcryptosSingleInit",
          "name": "_initValue",
          "type": "tuple"
        }
      ],
      "name": "initialize",
      "outputs": [],
      "stateMutability": "nonpayable",
      "type": "function"
    },
    {
      "inputs": [
        {
          "internalType": "address",
          "name": "_timelockOwner",
          "type": "address"
        }
      ],
      "name": "initialize",
      "outputs": [],
      "stateMutability": "nonpayable",
      "type": "function"
    },
    {
      "inputs": [
        {
          "internalType": "uint256",
          "name": "_acsWeight",
          "type": "uint256"
        },
        {
          "internalType": "uint256",
          "name": "_busdWeight",
          "type": "uint256"
        }
      ],
      "name": "setBalancerWeights",
      "outputs": [],
      "stateMutability": "nonpayable",
      "type": "function"
    },
    {
      "inputs": [
        {
          "internalType": "uint8",
          "name": "_idx",
          "type": "uint8"
        },
        {
          "internalType": "address[]",
          "name": "_path",
          "type": "address[]"
        }
      ],
      "name": "setBUSDSwapPaths",
      "outputs": [],
      "stateMutability": "nonpayable",
      "type": "function"
    },
    {
      "inputs": [
        {
          "internalType": "address",
          "name": "_account",
          "type": "address"
        },
        {
          "internalType": "uint256",
          "name": "_wantAmt",
          "type": "uint256"
        }
      ],
      "name": "depositWantToken",
      "outputs": [
        {
          "internalType": "uint256",
          "name": "",
          "type": "uint256"
        }
      ],
      "stateMutability": "nonpayable",
      "type": "function"
    },
    {
      "inputs": [
        {
          "internalType": "uint256",
          "name": "_amountUSDC",
          "type": "uint256"
        },
        {
          "internalType": "uint256",
          "name": "_maxMarketMovementAllowed",
          "type": "uint256"
        }
      ],
      "name": "exchangeUSDForWantToken",
      "outputs": [
        {
          "internalType": "uint256",
          "name": "",
          "type": "uint256"
        }
      ],
      "stateMutability": "nonpayable",
      "type": "function"
    },
    {
      "inputs": [],
      "name": "farm",
      "outputs": [],
      "stateMutability": "nonpayable",
      "type": "function"
    },
    {
      "inputs": [
        {
          "internalType": "address",
          "name": "_account",
          "type": "address"
        },
        {
          "internalType": "uint256",
          "name": "_wantAmt",
          "type": "uint256"
        }
      ],
      "name": "withdrawWantToken",
      "outputs": [
        {
          "internalType": "uint256",
          "name": "",
          "type": "uint256"
        }
      ],
      "stateMutability": "nonpayable",
      "type": "function"
    },
    {
      "inputs": [
        {
          "internalType": "uint256",
          "name": "_amount",
          "type": "uint256"
        },
        {
          "internalType": "uint256",
          "name": "_maxMarketMovementAllowed",
          "type": "uint256"
        }
      ],
      "name": "exchangeWantTokenForUSD",
      "outputs": [
        {
          "internalType": "uint256",
          "name": "",
          "type": "uint256"
        }
      ],
      "stateMutability": "nonpayable",
      "type": "function"
    },
    {
      "inputs": [
        {
          "internalType": "uint256",
          "name": "_maxMarketMovementAllowed",
          "type": "uint256"
        }
      ],
      "name": "earn",
      "outputs": [],
      "stateMutability": "nonpayable",
      "type": "function"
    }
  ],
  "bytecode": "0x608060405234801561001057600080fd5b5061564180620000216000396000f3fe608060405234801561001057600080fd5b50600436106105d25760003560e01c80638460adc911610300578063c4d66de8116101a8578063e7198474116100f4578063efa02808116100ad578063f2fde38b11610087578063f2fde38b14610c40578063f5046a2914610c53578063fbf5683f14610c66578063ff29b39514610c7957600080fd5b8063efa0280814610c17578063f106845414610c24578063f25342bf14610c2d57600080fd5b8063e719847414610bb7578063e7a0367914610bca578063e9e15b4f14610bdd578063ebfba7c414610bf0578063edf5e58514610c03578063ee50dc34146106ef57600080fd5b8063d7cb416f11610161578063de8419911161013b578063de84199114610b6b578063e0ccabfa14610b7e578063e502a88d14610b91578063e65a011714610ba457600080fd5b8063d7cb416f14610b25578063db31640c14610b38578063de69b3aa14610b4b57600080fd5b8063c4d66de814610ab3578063c5c97cbf14610ac6578063c6efd57714610ad9578063c8479cd614610aec578063c8e3d18b14610aff578063cfad57a214610b1257600080fd5b8063aabf190b11610267578063b7c02d5d11610220578063bf3a7d40116101fa578063bf3a7d4014610a84578063c0973eed14610a97578063c2dfdcd214610aaa578063c302a4d01461094d57600080fd5b8063b7c02d5d14610a4b578063b86c5f5314610a5e578063ba0bb4ab14610a7157600080fd5b8063aabf190b146109ec578063ab196def146109ff578063ae53e58a14610a12578063b1414dbb14610a25578063b3545c01146106d1578063b73cba2a14610a3857600080fd5b80638da5cb5b116102b95780638da5cb5b1461097c578063959334f41461098d57806396e9aff8146109a05780639f703a56146109b35780639fc33a9f146109c6578063a4d2b083146109d957600080fd5b80638460adc91461091e578063858c5b681461093157806385f02dd614610944578063866b20181461094d5780638906758d146109565780638b9102dc1461096957600080fd5b80634e2cb8b61161047e57806367206d40116103ca57806370e842a1116103835780637bf604d81161035d5780637bf604d8146108e75780637fe37d33146108fa5780637ff36fbe146109035780638456cb591461091657600080fd5b806370e842a11461089d578063715018a6146108b8578063776da470146108c057600080fd5b806367206d401461083f57806368f5416214610852578063693a090b1461085b5780636ca8bd651461086e5780636f96f6fa1461088157806370d5ae051461089457600080fd5b80635dc05fd51161043757806361b5bf9f1161041157806361b5bf9f146108065780636392ab1214610819578063648794a41461082c57806367057b6c146106ef57600080fd5b80635dc05fd5146107ce5780635fc77d43146107e05780636183e804146107f357600080fd5b80634e2cb8b61461075c578063563397d71461076f578063583bda3b1461078a5780635b5133931461079d5780635c975abb146107b05780635da79d63146107bb57600080fd5b8063211019d71161053d57806342da4eb3116104f657806346008a07116104d057806346008a07146107235780634c5b09da146107365780634ce54ddb146107495780634d9f7bb2146106ef57600080fd5b806342da4eb31461071157806343788cd2146106ef57806344a3955e1461071a57600080fd5b8063211019d7146106d1578063213ef7f7146106da5780632717eff3146106ef5780633214471f146106f857806336e9332d146107015780633f4ba83a1461070957600080fd5b8063127b5bbb1161058f578063127b5bbb146106735780631334903f146106865780631755ff211461068f578063178a8d07146106a25780631b0d8aab146106ab5780631e12819a146106be57600080fd5b806305828d3e146105d7578063061c7d48146105ec5780630a868404146106085780630b6bb30b146106335780630daef321146106465780630fa4e01e1461066a575b600080fd5b6105ea6105e536600461482f565b610c8c565b005b6105f561012c81565b6040519081526020015b60405180910390f35b61061b61061636600461484c565b610ce1565b6040516001600160a01b0390911681526020016105ff565b6105ea61064136600461487e565b610d0b565b60cb5461065a90600160a01b900460ff1681565b60405190151581526020016105ff565b6105f560e05481565b61061b61068136600461484c565b610d8d565b6105f560de5481565b60d75461061b906001600160a01b031681565b6105f560dc5481565b6105ea6106b936600461484c565b610d9d565b6105ea6106cc36600461482f565b610dcc565b6105f561032081565b61061b6000805160206155ec83398151915281565b6105f561271081565b6105f560dd5481565b6105ea610e18565b6105ea610e4f565b6105f560e15481565b6105f560e25481565b60cb5461061b906001600160a01b031681565b6105ea61074436600461482f565b610e83565b60d55461061b906001600160a01b031681565b61061b61076a36600461484c565b610ecf565b61061b734197c6ef3879a08cd51e5560da5064b773aa1d2981565b6105ea61079836600461482f565b610edf565b6105ea6107ab36600461489b565b610f2b565b60975460ff1661065a565b6105ea6107c936600461482f565b61119b565b60c95461065a90610100900460ff1681565b60cd5461061b906001600160a01b031681565b6105ea61080136600461482f565b6111e7565b6105ea61081436600461482f565b611233565b61061b61082736600461484c565b61127f565b6105f561083a3660046148cd565b61128f565b6105ea61084d3660046148ef565b61158f565b6105f560df5481565b60d85461061b906001600160a01b031681565b6105ea61087c36600461482f565b61165e565b60ef5461061b906001600160a01b031681565b61061b61dead81565b61061b73a82f327bbbf0667356d2935c6532d164b06ceced81565b6105ea6116aa565b6105f57f894ed9026de37afd9cce1e6c0be7d6b510e3ffe500010000000000000000000181565b60d95461061b906001600160a01b031681565b6105f560f35481565b60d15461061b906001600160a01b031681565b6105ea6116de565b6105ea61092c3660046148cd565b611710565b6105ea61093f366004614940565b611745565b6105f560db5481565b6105f56126ac81565b6105ea61096436600461482f565b611801565b60c95461065a9062010000900460ff1681565b6033546001600160a01b031661061b565b6105ea61099b36600461482f565b61184d565b61061b6109ae36600461484c565b611899565b61061b6109c136600461484c565b6118a9565b60d45461061b906001600160a01b031681565b60cf5461061b906001600160a01b031681565b60f05461061b906001600160a01b031681565b60f15461061b906001600160a01b031681565b60ee5461061b906001600160a01b031681565b60cc5461061b906001600160a01b031681565b6105ea610a4636600461482f565b6118b9565b6105ea610a59366004614ce0565b611905565b61061b610a6c36600461484c565b611cfb565b6105f5610a7f366004614ee3565b611d0b565b6105ea610a9236600461482f565b611ecb565b60d65461061b906001600160a01b031681565b6105f560f25481565b6105ea610ac136600461482f565b611f17565b61061b610ad436600461484c565b611f93565b61061b610ae736600461484c565b611fa3565b6105ea610afa36600461482f565b611fb3565b61061b610b0d36600461484c565b611fff565b6105ea610b2036600461482f565b61200f565b60d25461061b906001600160a01b031681565b61061b610b4636600461484c565b612087565b6105f5610b5936600461482f565b60e36020526000908152604090205481565b6105ea610b79366004614f0f565b612097565b6105f5610b8c366004614ee3565b6121dd565b6105f5610b9f3660046148cd565b612421565b6105ea610bb236600461484c565b6127e8565b60d35461061b906001600160a01b031681565b60d05461061b906001600160a01b031681565b6105ea610beb36600461482f565b612ce2565b60da5461061b906001600160a01b031681565b60c95461065a906301000000900460ff1681565b60c95461065a9060ff1681565b6105f560ca5481565b60ed5461061b906001600160a01b031681565b6105ea610c4e36600461482f565b612d2e565b60ce5461061b906001600160a01b031681565b61061b610c7436600461484c565b612dc9565b6105ea610c87366004614940565b612dd9565b6033546001600160a01b03163314610cbf5760405162461bcd60e51b8152600401610cb690614f48565b60405180910390fd5b60d280546001600160a01b0319166001600160a01b0392909216919091179055565b60f48181548110610cf157600080fd5b6000918252602090912001546001600160a01b0316905081565b60cb546001600160a01b03163314610d355760405162461bcd60e51b8152600401610cb690614f7d565b60cb8054821515600160a01b0260ff60a01b199091161790556040517f125177ac7b8930dac1e59c2b30b1b6b9191b30af40cf6bbb5d20fec4d44be60f90610d8290831515815260200190565b60405180910390a150565b60f68181548110610cf157600080fd5b6033546001600160a01b03163314610dc75760405162461bcd60e51b8152600401610cb690614f48565b60ca55565b6033546001600160a01b03163314610df65760405162461bcd60e51b8152600401610cb690614f48565b60d580546001600160a01b0319166001600160a01b0392909216919091179055565b60026065541415610e3b5760405162461bcd60e51b8152600401610cb690614f9b565b6002606555610e48612ed7565b6001606555565b60cb546001600160a01b03163314610e795760405162461bcd60e51b8152600401610cb690614f7d565b610e81613027565b565b6033546001600160a01b03163314610ead5760405162461bcd60e51b8152600401610cb690614f48565b60d480546001600160a01b0319166001600160a01b0392909216919091179055565b60e78181548110610cf157600080fd5b6033546001600160a01b03163314610f095760405162461bcd60e51b8152600401610cb690614f48565b60ce80546001600160a01b0319166001600160a01b0392909216919091179055565b60cb546001600160a01b03163314610f555760405162461bcd60e51b8152600401610cb690614f7d565b6126ac841015610fa75760405162461bcd60e51b815260206004820152601a60248201527f5f656e7472616e6365466565466163746f7220746f6f206c6f770000000000006044820152606401610cb6565b612710841115610ff95760405162461bcd60e51b815260206004820152601b60248201527f5f656e7472616e6365466565466163746f7220746f6f206869676800000000006044820152606401610cb6565b60de8490556126ac8310156110505760405162461bcd60e51b815260206004820152601a60248201527f5f7769746864726177466565466163746f7220746f6f206c6f770000000000006044820152606401610cb6565b6127108311156110a25760405162461bcd60e51b815260206004820152601b60248201527f5f7769746864726177466565466163746f7220746f6f206869676800000000006044820152606401610cb6565b60df83905561012c8211156110f95760405162461bcd60e51b815260206004820152601760248201527f5f636f6e74726f6c6c657246656520746f6f20686967680000000000000000006044820152606401610cb6565b60db8290556103208111156111485760405162461bcd60e51b81526020600482015260156024820152740bec4eaf284c2c6d6a4c2e8ca40e8dede40d0d2ced605b1b6044820152606401610cb6565b60dc8190556040805185815260208101859052908101839052606081018290527fd9968429114ac80bd16723a205e45e46393aefba1f08fb7bdffbad9ef60946089060800160405180910390a150505050565b6033546001600160a01b031633146111c55760405162461bcd60e51b8152600401610cb690614f48565b60d880546001600160a01b0319166001600160a01b0392909216919091179055565b6033546001600160a01b031633146112115760405162461bcd60e51b8152600401610cb690614f48565b60d080546001600160a01b0319166001600160a01b0392909216919091179055565b6033546001600160a01b0316331461125d5760405162461bcd60e51b8152600401610cb690614f48565b60d980546001600160a01b0319166001600160a01b0392909216919091179055565b60ea8181548110610cf157600080fd5b60cc546000906001600160a01b0316336001600160a01b0316146112c55760405162461bcd60e51b8152600401610cb690614fd2565b60975460ff16156112e85760405162461bcd60e51b8152600401610cb690614ffc565b6000831161132f5760405162461bcd60e51b8152602060048201526014602482015273057616e7420616d74206d757374206265203e20360641b6044820152606401610cb6565b60d054611347906001600160a01b03163330866130ba565b60d45460d05460405163f3fef3a360e01b81526001600160a01b0391821660048201526024810186905291169063f3fef3a390604401600060405180830381600087803b15801561139757600080fd5b505af11580156113ab573d6000803e3d6000fd5b505060ed54600092506113c791506001600160a01b0316613125565b60d1546040516370a0823160e01b81523060048201529192506000916001600160a01b03909116906370a0823190602401602060405180830381865afa158015611415573d6000803e3d6000fd5b505050506040513d601f19601f820116820180604052508101906114399190615026565b60d85460d154919250611459916001600160a01b03908116911683613265565b6040805161014081018252828152602080820185905264e8d4a510008284015260d1546001600160a01b03908116606084015260d554166080830152600060a0830181905260c083015260e0820187905260e68054845181840281018401909552808552611518946101008501939092919083018282801561150457602002820191906000526020600020905b81546001600160a01b031681526001909101906020018083116114e6575b505050918352505033602090910152613317565b60d5546040516370a0823160e01b81523060048201526001600160a01b03909116906370a0823190602401602060405180830381865afa158015611560573d6000803e3d6000fd5b505050506040513d601f19601f820116820180604052508101906115849190615026565b925050505b92915050565b60cb546001600160a01b031633146115b95760405162461bcd60e51b8152600401610cb690614f7d565b60d3546001600160a01b03848116911614156115ff5760405162461bcd60e51b8152602060048201526005602482015264217361666560d81b6044820152606401610cb6565b60d0546001600160a01b03848116911614156116455760405162461bcd60e51b8152602060048201526005602482015264217361666560d81b6044820152606401610cb6565b6116596001600160a01b03841682846133fa565b505050565b6033546001600160a01b031633146116885760405162461bcd60e51b8152600401610cb690614f48565b60cf80546001600160a01b0319166001600160a01b0392909216919091179055565b6033546001600160a01b031633146116d45760405162461bcd60e51b8152600401610cb690614f48565b610e81600061342a565b60cb546001600160a01b031633146117085760405162461bcd60e51b8152600401610cb690614f7d565b610e8161347c565b6033546001600160a01b0316331461173a5760405162461bcd60e51b8152600401610cb690614f48565b60f29190915560f355565b6033546001600160a01b0316331461176f5760405162461bcd60e51b8152600401610cb690614f48565b60ff83166117895761178360f48383614741565b50505050565b8260ff16600114156117a15761178360f58383614741565b8260ff16600214156117b95761178360f68383614741565b60405162461bcd60e51b815260206004820152601960248201527f756e737570706f727465642069647820737761702070617468000000000000006044820152606401610cb6565b6033546001600160a01b0316331461182b5760405162461bcd60e51b8152600401610cb690614f48565b60d680546001600160a01b0319166001600160a01b0392909216919091179055565b6033546001600160a01b031633146118775760405162461bcd60e51b8152600401610cb690614f48565b60da80546001600160a01b0319166001600160a01b0392909216919091179055565b60e98181548110610cf157600080fd5b60ec8181548110610cf157600080fd5b6033546001600160a01b031633146118e35760405162461bcd60e51b8152600401610cb690614f48565b60d380546001600160a01b0319166001600160a01b0392909216919091179055565b600054610100900460ff166119205760005460ff1615611924565b303b155b6119405760405162461bcd60e51b8152600401610cb69061503f565b600054610100900460ff16158015611962576000805461ffff19166101011790555b815160ca5560208083015160c9805460408087015160608089015161010061ffff1990951696151561ff00191696909617841763ffff00001916620100009215159290920263ff00000019169190911763010000009515159590950294909417909255608080870151805160cb8054600160a01b6001600160a01b039384166001600160a81b0319909216919091171790558187015160cc80546001600160a01b03199081169284169290921790558286015160ce805483169184169190911790558287015160cf805483169184169190911790558284015160d08054831691841691909117905560a08084015160d18054841691851691909117905560c084015160d28054841691851691909117905560e084015160d3805484169185169190911790559483015160d48054831691841691909117905561012083015160d68054831691841691909117905561014083015160d78054831691841691909117905561016083015160d88054831691841691909117905561018083015160d9805483169184169190911790556101a08084015160da805484169185169190911790556101c09093015160d580549092169216919091179055870151805160db558086015160dc559283015160dd559282015160de5591015160df558301518051611b509260ea9201906147a0565b5060c08201518051611b6a9160e8916020909101906147a0565b5060e08201518051611b849160e4916020909101906147a0565b506101008201518051611b9f9160eb916020909101906147a0565b506101208201518051611bba9160ec916020909101906147a0565b506101408201518051611bd59160f4916020909101906147a0565b506101608201518051611bf09160f5916020909101906147a0565b506101808201518051611c0b9160f6916020909101906147a0565b50611c6f60e4805480602002602001604051908101604052809291908181526020018280548015611c6557602002820191906000526020600020905b81546001600160a01b03168152600190910190602001808311611c47575b50505050506134d4565b8051611c839160e6916020909101906147a0565b506101c0820151805160ed80546001600160a01b03199081166001600160a01b0393841617909155604083015160ef80548316918416919091179055608083015160f08054831691841691909117905560609092015160f1805490931691161790558015611659576000805461ff0019169055505050565b60e48181548110610cf157600080fd5b60cc546000906001600160a01b0316336001600160a01b031614611d415760405162461bcd60e51b8152600401610cb690614fd2565b60026065541415611d645760405162461bcd60e51b8152600401610cb690614f9b565b600260655560975460ff1615611d8c5760405162461bcd60e51b8152600401610cb690614ffc565b60008211611ddc5760405162461bcd60e51b815260206004820152601e60248201527f57616e7420746f6b656e206465706f736974206d757374206265203e203000006044820152606401610cb6565b60d054611df4906001600160a01b03163330856130ba565b60e154829015801590611e095750600060e254115b15611e4457611e41612710611e3b60e154611e3b60de54611e3560e2548a61356890919063ffffffff16565b90613568565b9061357b565b90505b60e254611e519082613587565b60e2556001600160a01b038416600090815260e36020526040902054611e779082613587565b6001600160a01b038516600090815260e3602052604090205560c95462010000900460ff1615611eae57611ea9612ed7565b611ebf565b60e154611ebb9084613587565b60e1555b60016065559392505050565b6033546001600160a01b03163314611ef55760405162461bcd60e51b8152600401610cb690614f48565b60cc80546001600160a01b0319166001600160a01b0392909216919091179055565b600054610100900460ff16611f325760005460ff1615611f36565b303b155b611f525760405162461bcd60e51b8152600401610cb69061503f565b600054610100900460ff16158015611f74576000805461ffff19166101011790555b611f7d82612d2e565b8015611f8f576000805461ff00191690555b5050565b60e58181548110610cf157600080fd5b60e68181548110610cf157600080fd5b6033546001600160a01b03163314611fdd5760405162461bcd60e51b8152600401610cb690614f48565b60d180546001600160a01b0319166001600160a01b0392909216919091179055565b60e88181548110610cf157600080fd5b60cb546001600160a01b031633146120395760405162461bcd60e51b8152600401610cb690614f7d565b60cb80546001600160a01b0319166001600160a01b0383169081179091556040519081527f91a8c1cc2d4a3bb60738481947a00cbb9899c822916694cf8bb1d68172fdcd5490602001610d82565b60f58181548110610cf157600080fd5b6033546001600160a01b031633146120c15760405162461bcd60e51b8152600401610cb690614f48565b60ff82166120ea5760ed80546001600160a01b0383166001600160a01b03199091161790555050565b8160ff16600114156121175760ee80546001600160a01b0383166001600160a01b03199091161790555050565b8160ff16600214156121445760ef80546001600160a01b0383166001600160a01b03199091161790555050565b8160ff16600314156121715760f180546001600160a01b0383166001600160a01b03199091161790555050565b8160ff166004141561219e5760f080546001600160a01b0383166001600160a01b03199091161790555050565b60405162461bcd60e51b81526020600482015260146024820152730eadce6eae0e0dee4e8cac840cccacac840d2c8f60631b6044820152606401610cb6565b60cc546000906001600160a01b0316336001600160a01b0316146122135760405162461bcd60e51b8152600401610cb690614fd2565b600260655414156122365760405162461bcd60e51b8152600401610cb690614f9b565b600260655560975460ff161561225e5760405162461bcd60e51b8152600401610cb690614ffc565b6000821161229e5760405162461bcd60e51b815260206004820152600d60248201526c077616e7420616d74203c3d203609c1b6044820152606401610cb6565b60006122bb60e154611e3b60e2548661356890919063ffffffff16565b905060e2548111156122cc575060e2545b60e2546122d99082613593565b60e2556001600160a01b038416600090815260e360205260409020546122ff9082613593565b6001600160a01b038516600090815260e3602052604090205560df5461271011156123425761233f612710611e3b60df548661356890919063ffffffff16565b92505b60c95462010000900460ff161561235c5761235c8361359f565b60d0546040516370a0823160e01b81523060048201526000916001600160a01b0316906370a0823190602401602060405180830381865afa1580156123a5573d6000803e3d6000fd5b505050506040513d601f19601f820116820180604052508101906123c99190615026565b9050808411156123d7578093505b8360e15410156123e75760e15493505b60e1546123f49085613593565b60e15560cc5460d054612414916001600160a01b039182169116866133fa565b5060016065559392505050565b60cc546000906001600160a01b0316336001600160a01b0316146124575760405162461bcd60e51b8152600401610cb690614fd2565b60975460ff161561247a5760405162461bcd60e51b8152600401610cb690614ffc565b60d5546040516370a0823160e01b81523060048201526000916001600160a01b0316906370a0823190602401602060405180830381865afa1580156124c3573d6000803e3d6000fd5b505050506040513d601f19601f820116820180604052508101906124e79190615026565b9050600084116125395760405162461bcd60e51b815260206004820152601860248201527f55534443206465706f736974206d757374206265203e203000000000000000006044820152606401610cb6565b808411156125895760405162461bcd60e51b815260206004820152601960248201527f5553444320646573697265642065786365656465642062616c000000000000006044820152606401610cb6565b60ed546000906125a1906001600160a01b0316613125565b60d85460d5549192506125c1916001600160a01b03908116911687613265565b604080516101408101825286815264e8d4a5100060208083019190915281830184905260d5546001600160a01b03908116606084015260d154166080830152600060a0830181905260c083015260e0820187905260e48054845181840281018401909552808552612683946101008501939092919083018282801561266f57602002820191906000526020600020905b81546001600160a01b03168152600190910190602001808311612651575b505050918352505030602090910152613317565b60d1546040516370a0823160e01b81523060048201526000916001600160a01b0316906370a0823190602401602060405180830381865afa1580156126cc573d6000803e3d6000fd5b505050506040513d601f19601f820116820180604052508101906126f09190615026565b60d75460405163b6b55f2560e01b8152600481018390529192506001600160a01b03169063b6b55f2590602401600060405180830381600087803b15801561273757600080fd5b505af115801561274b573d6000803e3d6000fd5b505060d0546040516370a0823160e01b8152306004820152600093506001600160a01b0390911691506370a0823190602401602060405180830381865afa15801561279a573d6000803e3d6000fd5b505050506040513d601f19601f820116820180604052508101906127be9190615026565b60cc5460d0549192506127de916001600160a01b039081169116836133fa565b9695505050505050565b6002606554141561280b5760405162461bcd60e51b8152600401610cb690614f9b565b600260655560975460ff16156128335760405162461bcd60e51b8152600401610cb690614ffc565b60c95462010000900460ff1661287a5760405162461bcd60e51b815260206004820152600c60248201526b02169735a6f72726f436f6d760a41b6044820152606401610cb6565b60cb54600160a01b900460ff16156128b65760cb546001600160a01b031633146128b65760405162461bcd60e51b8152600401610cb690614f7d565b6128c0600061359f565b60d3546040516370a0823160e01b81523060048201526000916001600160a01b0316906370a0823190602401602060405180830381865afa158015612909573d6000803e3d6000fd5b505050506040513d601f19601f8201168201806040525081019061292d9190615026565b60ef54909150600090612948906001600160a01b0316613125565b60ed54909150600090612963906001600160a01b0316613125565b60f15490915060009061297e906001600160a01b0316613125565b60f154909150600090612999906001600160a01b0316613125565b60408051606081018252868152602081018590529081018290529091506129bf866135da565b95506129cc868883613639565b6040805161014081018252828152602080820189905264e8d4a510008284015260d3546001600160a01b031660608301526000805160206155ec833981519152608083015260f25460a083015260f35460c083015260e082018b905260e88054845181840281018401909552808552949a50612a97949293610100850193909283018282801561266f576020028201919060005260206000209081546001600160a01b0316815260019091019060200180831161265157505050918352505030602090910152613317565b6040516370a0823160e01b81523060048201526000906000805160206155ec833981519152906370a0823190602401602060405180830381865afa158015612ae3573d6000803e3d6000fd5b505050506040513d601f19601f82011682018060405250810190612b079190615026565b60d854909150612b30906000805160206155ec833981519152906001600160a01b031683613265565b604080516101408101825282815264e8d4a510006020808301919091528183018890526000805160206155ec833981519152606083015260d1546001600160a01b03166080830152600060a0830181905260c083015260e082018b905260f48054845181840281018401909552808552612bf9946101008501939092919083018282801561266f576020028201919060005260206000209081546001600160a01b0316815260019091019060200180831161265157505050918352505030602090910152613317565b60d1546040516370a0823160e01b81523060048201526000916001600160a01b0316906370a0823190602401602060405180830381865afa158015612c42573d6000803e3d6000fd5b505050506040513d601f19601f82011682018060405250810190612c669190615026565b60d75460405163b6b55f2560e01b8152600481018390529192506001600160a01b03169063b6b55f2590602401600060405180830381600087803b158015612cad57600080fd5b505af1158015612cc1573d6000803e3d6000fd5b50504360e05550612cd29050612ed7565b5050600160655550505050505050565b6033546001600160a01b03163314612d0c5760405162461bcd60e51b8152600401610cb690614f48565b60d780546001600160a01b0319166001600160a01b0392909216919091179055565b6033546001600160a01b03163314612d585760405162461bcd60e51b8152600401610cb690614f48565b6001600160a01b038116612dbd5760405162461bcd60e51b815260206004820152602660248201527f4f776e61626c653a206e6577206f776e657220697320746865207a65726f206160448201526564647265737360d01b6064820152608401610cb6565b612dc68161342a565b50565b60eb8181548110610cf157600080fd5b6033546001600160a01b03163314612e035760405162461bcd60e51b8152600401610cb690614f48565b60ff8316612e175761178360e48383614741565b8260ff1660011415612e2f5761178360e58383614741565b8260ff1660021415612e475761178360e68383614741565b8260ff1660031415612e5f5761178360e78383614741565b8260ff1660041415612e775761178360e88383614741565b8260ff1660051415612e8f5761178360e98383614741565b8260ff1660061415612ea75761178360ea8383614741565b8260ff1660071415612ebf5761178360eb8383614741565b8260ff166008141561219e5761178360ec8383614741565b60c95462010000900460ff16612f1e5760405162461bcd60e51b815260206004820152600c60248201526b02169735a6f72726f436f6d760a41b6044820152606401610cb6565b60d0546040516370a0823160e01b81523060048201526000916001600160a01b0316906370a0823190602401602060405180830381865afa158015612f67573d6000803e3d6000fd5b505050506040513d601f19601f82011682018060405250810190612f8b9190615026565b60e154909150612f9b9082613587565b60e15560d45460d054612fbb916001600160a01b03918216911683613265565b60d45460d0546040516311f9fbc960e21b81526001600160a01b039182166004820152602481018490529116906347e7ef24906044015b600060405180830381600087803b15801561300c57600080fd5b505af1158015613020573d6000803e3d6000fd5b5050505050565b60975460ff166130705760405162461bcd60e51b815260206004820152601460248201527314185d5cd8589b194e881b9bdd081c185d5cd95960621b6044820152606401610cb6565b6097805460ff191690557f5db9ee0a495bf2e6ff9c91a7834c1ba4fdd244a5e8aa4e537bd38aeae4b073aa335b6040516001600160a01b03909116815260200160405180910390a1565b6040516001600160a01b03808516602483015283166044820152606481018290526117839085906323b872dd60e01b906084015b60408051601f198184030181529190526020810180516001600160e01b03166001600160e01b031990931692909217909152613739565b600080826001600160a01b031663313ce5676040518163ffffffff1660e01b8152600401602060405180830381865afa158015613166573d6000803e3d6000fd5b505050506040513d601f19601f8201168201806040525081019061318a919061508d565b90506000836001600160a01b031663feaf968c6040518163ffffffff1660e01b815260040160a060405180830381865afa1580156131cc573d6000803e3d6000fd5b505050506040513d601f19601f820116820180604052508101906131f091906150c4565b50505091505060008112156132405760405162461bcd60e51b81526020600482015260166024820152751b9959c81c1c9a58d95cc81b9bdd08185b1b1bddd95960521b6044820152606401610cb6565b61325d61324e83600a61520e565b611e3b8364e8d4a51000613568565b949350505050565b604051636eb1769f60e11b81523060048201526001600160a01b038381166024830152600091839186169063dd62ed3e90604401602060405180830381865afa1580156132b6573d6000803e3d6000fd5b505050506040513d601f19601f820116820180604052508101906132da9190615026565b6132e4919061521d565b6040516001600160a01b03851660248201526044810182905290915061178390859063095ea7b360e01b906064016130ee565b60608101516001600160a01b0316734197c6ef3879a08cd51e5560da5064b773aa1d291480613366575060808101516001600160a01b0316734197c6ef3879a08cd51e5560da5064b773aa1d29145b156133aa57612dc673a82f327bbbf0667356d2935c6532d164b06ceced7f894ed9026de37afd9cce1e6c0be7d6b510e3ffe50001000000000000000000018361380b565b612dc68160000151826020015183604001518460e001518561010001518661012001516133e26102584261358790919063ffffffff16565b60d8546001600160a01b0316969594939291906139c0565b6040516001600160a01b03831660248201526044810182905261165990849063a9059cbb60e01b906064016130ee565b603380546001600160a01b038381166001600160a01b0319831681179093556040519116919082907f8be0079c531659141344cd1fd0a4f28419497f9722a3daafe3b4186f6b6457e090600090a35050565b60975460ff161561349f5760405162461bcd60e51b8152600401610cb690614ffc565b6097805460ff191660011790557f62e78cea01bee320cd4e420270b5ea74000d11b0c9f74754ebdbfc544b05a25861309d3390565b60608060005b83518161ffff161015613561578361350b8261ffff166135056001885161359390919063ffffffff16565b90613593565b8151811061351b5761351b615235565b6020026020010151828261ffff168151811061353957613539615235565b6001600160a01b039092166020928302919091019091015261355a8161524b565b90506134da565b5092915050565b6000613574828461526d565b9392505050565b6000613574828461528c565b6000613574828461521d565b600061357482846152ae565b60d45460d05460405163f3fef3a360e01b81526001600160a01b0391821660048201526024810184905291169063f3fef3a390604401612ff2565b600081156136355760db5415613635576000613607612710611e3b60db548661356890919063ffffffff16565b60d65460d354919250613627916001600160a01b039081169116836133fa565b6136318382613593565b9250505b5090565b60dc5460009081901561366457613661612710611e3b60dc548861356890919063ffffffff16565b90505b600060c9546301000000900460ff161561369357613683828686613b22565b61368e818686614050565b61372b565b6136b36136a08383613587565b60cc546001600160a01b03168787614244565b60cd5460ca5460405163464e3c8b60e01b815260048101919091526024810184905260448101839052606481018790526001600160a01b039091169063464e3c8b90608401600060405180830381600087803b15801561371257600080fd5b505af1158015613726573d6000803e3d6000fd5b505050505b6127de816135058885613593565b600061378e826040518060400160405280602081526020017f5361666545524332303a206c6f772d6c6576656c2063616c6c206661696c6564815250856001600160a01b03166144899092919063ffffffff16565b80519091501561165957808060200190518101906137ac91906152c5565b6116595760405162461bcd60e51b815260206004820152602a60248201527f5361666545524332303a204552433230206f7065726174696f6e20646964206e6044820152691bdd081cdd58d8d9595960b21b6064820152608401610cb6565b600081602001516000148061382257506040820151155b1561385b576138546103e8611e3b8460e00151611e3564e8d4a51000611e3b61384c8b8b8b614498565b895190613568565b905061388f565b61388c6103e8611e3b8460e00151611e358660400151611e3b8860200151896000015161356890919063ffffffff16565b90505b836001600160a01b03166352bbbe296040518060c00160405280868152602001600060018111156138c2576138c26152e2565b815260200185606001516001600160a01b0316815260200185608001516001600160a01b0316815260200185600001518152602001604051806020016040528060008152508152506040518060800160405280306001600160a01b031681526020016000151581526020018661012001516001600160a01b03168152602001600015158152508461395e6102584261358790919063ffffffff16565b6040518563ffffffff1660e01b815260040161397d9493929190615350565b6020604051808303816000875af115801561399c573d6000803e3d6000fd5b505050506040513d601f19601f820116820180604052508101906130209190615026565b60008615806139cd575085155b15613a985760405163d06ca61f60e01b81526000906001600160a01b038b169063d06ca61f90613a03908c908990600401615472565b600060405180830381865afa158015613a20573d6000803e3d6000fd5b505050506040513d6000823e601f3d908101601f19168201604052613a48919081019061548b565b9050613a906103e8611e3b8884613a6a6001875161359390919063ffffffff16565b81518110613a7a57613a7a615235565b602002602001015161356890919063ffffffff16565b915050613ab1565b613aae6103e8611e3b87611e358a838e8e613568565b90505b604051635c11d79560e01b81526001600160a01b038a1690635c11d79590613ae5908b908590899089908990600401615511565b600060405180830381600087803b158015613aff57600080fd5b505af1158015613b13573d6000803e3d6000fd5b50505050505050505050505050565b60d85460d354613b3f916001600160a01b03918216911685613265565b60408051610140810182528481528251602082015264e8d4a510009181019190915260d3546001600160a01b03166060828101919091526000805160206155ec833981519152608083015260f25460a083015260f35460c083015260e0820184905261010082018190523061012083015290613bba90613317565b6040516370a0823160e01b81523060048201526000906000805160206155ec833981519152906370a0823190602401602060405180830381865afa158015613c06573d6000803e3d6000fd5b505050506040513d601f19601f82011682018060405250810190613c2a9190615026565b60d854909150613c53906000805160206155ec833981519152906001600160a01b031683613265565b613d4d604051806101400160405280613c7660028561357b90919063ffffffff16565b815260200164e8d4a510008152602001856020015181526020016000805160206155ec8339815191526001600160a01b0316815260200160ce60009054906101000a90046001600160a01b03166001600160a01b03168152602001600081526020016000815260200186815260200160f580548060200260200160405190810160405280929190818152602001828054801561266f576020028201919060005260206000209081546001600160a01b0316815260019091019060200180831161265157505050918352505030602090910152613317565b613e2f604051806101400160405280613d7060028561357b90919063ffffffff16565b815264e8d4a51000602080830191909152604087810151818401526000805160206155ec833981519152606084015260da546001600160a01b03166080840152600060a0840181905260c084015260e0830189905260f6805482518185028101850190935280835261010090940193919290919083018282801561266f576020028201919060005260206000209081546001600160a01b0316815260019091019060200180831161265157505050918352505030602090910152613317565b60ce546040516370a0823160e01b81523060048201526000916001600160a01b0316906370a0823190602401602060405180830381865afa158015613e78573d6000803e3d6000fd5b505050506040513d601f19601f82011682018060405250810190613e9c9190615026565b60da546040516370a0823160e01b81523060048201529192506000916001600160a01b03909116906370a0823190602401602060405180830381865afa158015613eea573d6000803e3d6000fd5b505050506040513d601f19601f82011682018060405250810190613f0e9190615026565b60d85460ce54919250613f2e916001600160a01b03908116911684613265565b60d85460da54613f4b916001600160a01b03918216911683613265565b60d85460ce5460da546001600160a01b039283169263e8e3370092811691168585613f7c6103e8611e3b848f613568565b613f956103e8611e3b8f8b61356890919063ffffffff16565b61dead613fa442610258613587565b60405160e08a901b6001600160e01b03191681526001600160a01b039889166004820152968816602488015260448701959095526064860193909352608485019190915260a484015290921660c482015260e4810191909152610104016060604051808303816000875af1158015614020573d6000803e3d6000fd5b505050506040513d601f19601f82011682018060405250810190614044919061554d565b50505050505050505050565b60d85460d35461406d916001600160a01b03918216911685613265565b60408051610140810182528481528251602082015264e8d4a510009181019190915260d3546001600160a01b03166060828101919091526000805160206155ec833981519152608083015260f25460a083015260f35460c083015260e08201849052610100820181905230610120830152906140e890613317565b60d5546040516370a0823160e01b81523060048201526000916001600160a01b0316906370a0823190602401602060405180830381865afa158015614131573d6000803e3d6000fd5b505050506040513d601f19601f820116820180604052508101906141559190615026565b60d85460d554919250614175916001600160a01b03908116911683613265565b604080516101408101825282815264e8d4a51000602080830191909152858101518284015260d5546001600160a01b03908116606084015260ce54166080830152600060a0830181905260c083015260e0820187905260f58054845181840281018401909552808552613020946101008501939092919083018282801561422557602002820191906000526020600020905b81546001600160a01b03168152600190910190602001808311614207575b505050918352505060cf546001600160a01b0316602090910152613317565b6040805161014081018252858152825160208083019190915264e8d4a510008284015260d3546001600160a01b031660608301526000805160206155ec833981519152608083015260f25460a083015260f35460c083015260e0820185905260ec805484518184028101840190955280855261430f946101008501939092919083018282801561266f576020028201919060005260206000209081546001600160a01b0316815260019091019060200180831161265157505050918352505030602090910152613317565b6040516370a0823160e01b81523060048201526000906000805160206155ec833981519152906370a0823190602401602060405180830381865afa15801561435b573d6000803e3d6000fd5b505050506040513d601f19601f8201168201806040525081019061437f9190615026565b905060606000805160206155ec833981519152816000815181106143a5576143a5615235565b6001600160a01b03928316602091820292909201015260d5548251911690829060019081106143d6576143d6615235565b6001600160a01b03928316602091820292909201015260d85461440a916000805160206155ec833981519152911684613265565b604080516101408101825283815264e8d4a5100060208201819052918101919091526000805160206155ec833981519152606082015260d5546001600160a01b039081166080830152600060a0830181905260c083015260e082018690526101008201839052861661012082015261448190613317565b505050505050565b606061325d84846000856145d7565b608081015160405163160bf1c960e31b8152600481018490526001600160a01b03918216602482015260009182919086169063b05f8e48906044016080604051808303816000875af11580156144f2573d6000803e3d6000fd5b505050506040513d601f19601f82011682018060405250810190614516919061557b565b505050606084015160405163160bf1c960e31b8152600481018790526001600160a01b0391821660248201529192506000919087169063b05f8e48906044016080604051808303816000875af1158015614574573d6000803e3d6000fd5b505050506040513d601f19601f82011682018060405250810190614598919061557b565b50505090506127de6145b78560c001518361356890919063ffffffff16565b611e3b64e8d4a51000611e358860a001518761356890919063ffffffff16565b6060824710156146385760405162461bcd60e51b815260206004820152602660248201527f416464726573733a20696e73756666696369656e742062616c616e636520666f6044820152651c8818d85b1b60d21b6064820152608401610cb6565b6001600160a01b0385163b61468f5760405162461bcd60e51b815260206004820152601d60248201527f416464726573733a2063616c6c20746f206e6f6e2d636f6e74726163740000006044820152606401610cb6565b600080866001600160a01b031685876040516146ab91906155bc565b60006040518083038185875af1925050503d80600081146146e8576040519150601f19603f3d011682016040523d82523d6000602084013e6146ed565b606091505b50915091506146fd828286614708565b979650505050505050565b60608315614717575081613574565b8251156147275782518084602001fd5b8160405162461bcd60e51b8152600401610cb691906155d8565b828054828255906000526020600020908101928215614794579160200282015b828111156147945781546001600160a01b0319166001600160a01b03843516178255602090920191600190910190614761565b506136359291506147f5565b828054828255906000526020600020908101928215614794579160200282015b8281111561479457825182546001600160a01b0319166001600160a01b039091161782556020909201916001909101906147c0565b5b8082111561363557600081556001016147f6565b6001600160a01b0381168114612dc657600080fd5b803561482a8161480a565b919050565b60006020828403121561484157600080fd5b81356135748161480a565b60006020828403121561485e57600080fd5b5035919050565b8015158114612dc657600080fd5b803561482a81614865565b60006020828403121561489057600080fd5b813561357481614865565b600080600080608085870312156148b157600080fd5b5050823594602084013594506040840135936060013592509050565b600080604083850312156148e057600080fd5b50508035926020909101359150565b60008060006060848603121561490457600080fd5b833561490f8161480a565b92506020840135915060408401356149268161480a565b809150509250925092565b60ff81168114612dc657600080fd5b60008060006040848603121561495557600080fd5b833561496081614931565b9250602084013567ffffffffffffffff8082111561497d57600080fd5b818601915086601f83011261499157600080fd5b8135818111156149a057600080fd5b8760208260051b85010111156149b557600080fd5b6020830194508093505050509250925092565b634e487b7160e01b600052604160045260246000fd5b6040516101e0810167ffffffffffffffff81118282101715614a0257614a026149c8565b60405290565b60405160a0810167ffffffffffffffff81118282101715614a0257614a026149c8565b604051601f8201601f1916810167ffffffffffffffff81118282101715614a5457614a546149c8565b604052919050565b60006101e08284031215614a6f57600080fd5b614a776149de565b9050614a828261481f565b8152614a906020830161481f565b6020820152614aa16040830161481f565b6040820152614ab26060830161481f565b6060820152614ac36080830161481f565b6080820152614ad460a0830161481f565b60a0820152614ae560c0830161481f565b60c0820152614af660e0830161481f565b60e0820152610100614b0981840161481f565b90820152610120614b1b83820161481f565b90820152610140614b2d83820161481f565b90820152610160614b3f83820161481f565b90820152610180614b5183820161481f565b908201526101a0614b6383820161481f565b908201526101c0614b7583820161481f565b9082015292915050565b600067ffffffffffffffff821115614b9957614b996149c8565b5060051b60200190565b600082601f830112614bb457600080fd5b81356020614bc9614bc483614b7f565b614a2b565b82815260059290921b84018101918181019086841115614be857600080fd5b8286015b84811015614c0c578035614bff8161480a565b8352918301918301614bec565b509695505050505050565b600060a08284031215614c2957600080fd5b614c31614a08565b9050813581526020820135602082015260408201356040820152606082013560608201526080820135608082015292915050565b600060a08284031215614c7757600080fd5b614c7f614a08565b90508135614c8c8161480a565b81526020820135614c9c8161480a565b60208201526040820135614caf8161480a565b60408201526060820135614cc28161480a565b60608201526080820135614cd58161480a565b608082015292915050565b60008060408385031215614cf357600080fd5b8235614cfe8161480a565b9150602083013567ffffffffffffffff80821115614d1b57600080fd5b908401906104a08287031215614d3057600080fd5b614d386149de565b82358152614d4860208401614873565b6020820152614d5960408401614873565b6040820152614d6a60608401614873565b6060820152614d7c8760808501614a5c565b608082015261026083013582811115614d9457600080fd5b614da088828601614ba3565b60a08301525061028083013582811115614db957600080fd5b614dc588828601614ba3565b60c0830152506102a083013582811115614dde57600080fd5b614dea88828601614ba3565b60e0830152506102c083013582811115614e0357600080fd5b614e0f88828601614ba3565b610100830152506102e083013582811115614e2957600080fd5b614e3588828601614ba3565b6101208301525061030083013582811115614e4f57600080fd5b614e5b88828601614ba3565b6101408301525061032083013582811115614e7557600080fd5b614e8188828601614ba3565b6101608301525061034083013582811115614e9b57600080fd5b614ea788828601614ba3565b61018083015250614ebc876103608501614c17565b6101a0820152614ed0876104008501614c65565b6101c08201528093505050509250929050565b60008060408385031215614ef657600080fd5b8235614f018161480a565b946020939093013593505050565b60008060408385031215614f2257600080fd5b8235614f2d81614931565b91506020830135614f3d8161480a565b809150509250929050565b6020808252818101527f4f776e61626c653a2063616c6c6572206973206e6f7420746865206f776e6572604082015260600190565b60208082526004908201526310b3b7bb60e11b604082015260600190565b6020808252601f908201527f5265656e7472616e637947756172643a207265656e7472616e742063616c6c00604082015260600190565b60208082526010908201526f10bd37b93937a1b7b73a3937b63632b960811b604082015260600190565b60208082526010908201526f14185d5cd8589b194e881c185d5cd95960821b604082015260600190565b60006020828403121561503857600080fd5b5051919050565b6020808252602e908201527f496e697469616c697a61626c653a20636f6e747261637420697320616c72656160408201526d191e481a5b9a5d1a585b1a5e995960921b606082015260800190565b60006020828403121561509f57600080fd5b815161357481614931565b805169ffffffffffffffffffff8116811461482a57600080fd5b600080600080600060a086880312156150dc57600080fd5b6150e5866150aa565b9450602086015193506040860151925060608601519150615108608087016150aa565b90509295509295909350565b634e487b7160e01b600052601160045260246000fd5b600181815b8085111561516557816000190482111561514b5761514b615114565b8085161561515857918102915b93841c939080029061512f565b509250929050565b60008261517c57506001611589565b8161518957506000611589565b816001811461519f57600281146151a9576151c5565b6001915050611589565b60ff8411156151ba576151ba615114565b50506001821b611589565b5060208310610133831016604e8410600b84101617156151e8575081810a611589565b6151f2838361512a565b806000190482111561520657615206615114565b029392505050565b600061357460ff84168361516d565b6000821982111561523057615230615114565b500190565b634e487b7160e01b600052603260045260246000fd5b600061ffff8083168181141561526357615263615114565b6001019392505050565b600081600019048311821515161561528757615287615114565b500290565b6000826152a957634e487b7160e01b600052601260045260246000fd5b500490565b6000828210156152c0576152c0615114565b500390565b6000602082840312156152d757600080fd5b815161357481614865565b634e487b7160e01b600052602160045260246000fd5b60005b838110156153135781810151838201526020016152fb565b838111156117835750506000910152565b6000815180845261533c8160208601602086016152f8565b601f01601f19169290920160200192915050565b60e08152845160e0820152600060208601516002811061538057634e487b7160e01b600052602160045260246000fd5b61010083015260408601516001600160a01b031661012083015260608601516153b56101408401826001600160a01b03169052565b50608086015161016083015260a086015160c06101808401526153dc6101a0840182615324565b91505061541c602083018680516001600160a01b039081168352602080830151151590840152604080830151909116908301526060908101511515910152565b60a082019390935260c0015292915050565b600081518084526020808501945080840160005b838110156154675781516001600160a01b031687529582019590820190600101615442565b509495945050505050565b82815260406020820152600061325d604083018461542e565b6000602080838503121561549e57600080fd5b825167ffffffffffffffff8111156154b557600080fd5b8301601f810185136154c657600080fd5b80516154d4614bc482614b7f565b81815260059190911b820183019083810190878311156154f357600080fd5b928401925b828410156146fd578351825292840192908401906154f8565b85815284602082015260a06040820152600061553060a083018661542e565b6001600160a01b0394909416606083015250608001529392505050565b60008060006060848603121561556257600080fd5b8351925060208401519150604084015190509250925092565b6000806000806080858703121561559157600080fd5b84519350602085015192506040850151915060608501516155b18161480a565b939692955090935050565b600082516155ce8184602087016152f8565b9190910192915050565b602081526000613574602083018461532456fe000000000000000000000000e9e7cea3dedca5984780bafc599bd69add087d56a2646970667358221220bfdc2cc1d96a957163c362ec7dbef6ee1515ac04cd3d79491f546269ee1e481464736f6c634300080a0033",
  "immutableReferences": {},
  "source": "// SPDX-License-Identifier: MIT\n\npragma solidity ^0.8.0;\n\nimport \"@openzeppelin/contracts-upgradeable/token/ERC20/utils/SafeERC20Upgradeable.sol\";\n\nimport \"../interfaces/IAMMFarm.sol\";\n\nimport \"../interfaces/IAcryptosFarm.sol\";\n\nimport \"../interfaces/IAcryptosVault.sol\";\n\nimport \"@openzeppelin/contracts-upgradeable/token/ERC20/IERC20Upgradeable.sol\";\n\nimport \"@openzeppelin/contracts-upgradeable/utils/math/SafeMathUpgradeable.sol\";\n\nimport \"./_VaultBase.sol\";\n\nimport \"../interfaces/IBalancerVault.sol\";\n\nimport \"../libraries/PriceFeed.sol\";\n\nimport \"@openzeppelin/contracts-upgradeable/proxy/ClonesUpgradeable.sol\";\n\n/// @title Vault factory for VaultAcryptosSingle\ncontract VaultFactoryAcryptosSingle is Initializable, OwnableUpgradeable {\n    /* State */\n\n    VaultAcryptosSingle[] public deployedVaults; // All deployed vaults\n    address public masterVault; // Address of the upgradeable proxy that delegates to the master vault contract\n\n    /* Constructor */\n\n    function initialize(address _masterVault) public initializer {\n        // Set master vault address\n        masterVault = _masterVault;\n    }\n\n    /* Factory functions */\n\n    function createVault(\n        address _timelockOwner,\n        VaultAcryptosSingle.VaultAcryptosSingleInit memory _initValue\n    ) external onlyOwner {\n        // Create clone\n        VaultAcryptosSingle _vault = VaultAcryptosSingle(\n            ClonesUpgradeable.clone(masterVault)\n        );\n        // Initialize cloned contract\n        _vault.initialize(_timelockOwner, _initValue);\n        // Add to array of deployed vaults\n        deployedVaults.push(_vault);\n    }\n\n    function numVaults() external view returns (uint256) {\n        return deployedVaults.length;\n    }\n}\n\n/// @title Vault contract for Acryptos single token strategies (e.g. for lending)\ncontract VaultAcryptosSingle is VaultBase {\n    /* Libraries */\n    using SafeMathUpgradeable for uint256;\n    using SafeERC20Upgradeable for IERC20Upgradeable;\n    using SafeSwapBalancer for IBalancerVault;\n    using SafeSwapUni for IAMMRouter02;\n    using PriceFeed for AggregatorV3Interface;\n\n    /* Constructor */\n    /// @notice Upgradeable constructor\n    /// @param _initValue A VaultAcryptosSingleInit struct containing all init values\n    /// @param _timelockOwner The designated timelock controller address to act as owner\n    function initialize(\n        address _timelockOwner,\n        VaultAcryptosSingleInit memory _initValue\n    ) public initializer {\n        // Vault config\n        pid = _initValue.pid;\n        isCOREStaking = _initValue.isCOREStaking;\n        isSingleAssetDeposit = true;\n        isZorroComp = _initValue.isZorroComp;\n        isHomeChain = _initValue.isHomeChain;\n\n        // Addresses\n        govAddress = _initValue.keyAddresses.govAddress;\n        onlyGov = true;\n        zorroControllerAddress = _initValue.keyAddresses.zorroControllerAddress;\n        ZORROAddress = _initValue.keyAddresses.ZORROAddress;\n        zorroStakingVault = _initValue.keyAddresses.zorroStakingVault;\n        wantAddress = _initValue.keyAddresses.wantAddress;\n        token0Address = _initValue.keyAddresses.token0Address;\n        token1Address = _initValue.keyAddresses.token1Address;\n        earnedAddress = _initValue.keyAddresses.earnedAddress;\n        farmContractAddress = _initValue.keyAddresses.farmContractAddress;\n        rewardsAddress = _initValue.keyAddresses.rewardsAddress;\n        poolAddress = _initValue.keyAddresses.poolAddress;\n        uniRouterAddress = _initValue.keyAddresses.uniRouterAddress;\n        zorroLPPool = _initValue.keyAddresses.zorroLPPool;\n        zorroLPPoolOtherToken = _initValue.keyAddresses.zorroLPPoolOtherToken;\n        tokenUSDCAddress = _initValue.keyAddresses.tokenUSDCAddress;\n\n        // Fees\n        controllerFee = _initValue.fees.controllerFee;\n        buyBackRate = _initValue.fees.buyBackRate;\n        revShareRate = _initValue.fees.revShareRate;\n        entranceFeeFactor = _initValue.fees.entranceFeeFactor;\n        withdrawFeeFactor = _initValue.fees.withdrawFeeFactor;\n\n        // Swap paths\n        earnedToZORROPath = _initValue.earnedToZORROPath;\n        earnedToToken0Path = _initValue.earnedToToken0Path;\n        USDCToToken0Path = _initValue.USDCToToken0Path;\n        earnedToZORLPPoolOtherTokenPath = _initValue\n            .earnedToZORLPPoolOtherTokenPath;\n        earnedToUSDCPath = _initValue.earnedToUSDCPath;\n        BUSDToToken0Path = _initValue.BUSDToToken0Path;\n        BUSDToZORROPath = _initValue.BUSDToZORROPath;\n        BUSDToLPPoolOtherTokenPath = _initValue.BUSDToLPPoolOtherTokenPath;\n        // Corresponding reverse paths\n        token0ToUSDCPath = _reversePath(USDCToToken0Path);\n\n        // Price feeds\n        token0PriceFeed = AggregatorV3Interface(\n            _initValue.priceFeeds.token0PriceFeed\n        );\n        earnTokenPriceFeed = AggregatorV3Interface(\n            _initValue.priceFeeds.earnTokenPriceFeed\n        );\n        lpPoolOtherTokenPriceFeed = AggregatorV3Interface(\n            _initValue.priceFeeds.lpPoolOtherTokenPriceFeed\n        );\n        ZORPriceFeed = AggregatorV3Interface(\n            _initValue.priceFeeds.ZORPriceFeed\n        );\n\n        // Super call\n        // TODO: put back in\n        // VaultBase.initialize(_timelockOwner);\n    }\n\n    /* Structs */\n\n    struct VaultAcryptosSingleInit {\n        uint256 pid;\n        bool isCOREStaking;\n        bool isZorroComp;\n        bool isHomeChain;\n        VaultAddresses keyAddresses;\n        address[] earnedToZORROPath;\n        address[] earnedToToken0Path;\n        address[] USDCToToken0Path;\n        address[] earnedToZORLPPoolOtherTokenPath;\n        address[] earnedToUSDCPath;\n        address[] BUSDToToken0Path;\n        address[] BUSDToZORROPath;\n        address[] BUSDToLPPoolOtherTokenPath;\n        VaultFees fees;\n        VaultPriceFeeds priceFeeds;\n    }\n\n    /* Constants */\n\n    address public constant tokenACS =\n        0x4197C6EF3879a08cD51e5560da5064B773aa1d29;\n    address public constant balancerVaultAddress =\n        0xa82f327BBbF0667356D2935C6532d164b06cEced; // Address of Balancer/ACSI.finance Vault for swaps etc.\n    bytes32 public constant balancerPool =\n        0x894ed9026de37afd9cce1e6c0be7d6b510e3ffe5000100000000000000000001; // The Acryptos ACSI.finance pool ID for swapping Earned token to BUSD tokens.\n    address public constant tokenBUSD =\n        0xe9e7CEA3DedcA5984780Bafc599bD69ADd087D56;\n\n    /* State */\n\n    uint256 public balancerACSWeightBasisPoints; // Relative weight of ACS token in balancer pool\n    uint256 public balancerBUSDWeightBasisPoints; // Relative weight of BUSD token in balancer pool\n    address[] public BUSDToToken0Path; // Swap path from BUSD to Token0 (PCS)\n    address[] public BUSDToZORROPath; // Swap path from BUSD to ZOR (PCS)\n    address[] public BUSDToLPPoolOtherTokenPath; // Swap path from BUSD to ZOR LP Pool's \"other token\" (PCS)\n\n    /* Setters */\n\n    function setBalancerWeights(uint256 _acsWeight, uint256 _busdWeight)\n        external\n        onlyOwner\n    {\n        balancerACSWeightBasisPoints = _acsWeight;\n        balancerBUSDWeightBasisPoints = _busdWeight;\n    }\n\n    function setBUSDSwapPaths(uint8 _idx, address[] calldata _path)\n        external\n        onlyOwner\n    {\n        if (_idx == 0) {\n            BUSDToToken0Path = _path;\n        } else if (_idx == 1) {\n            BUSDToZORROPath = _path;\n        } else if (_idx == 2) {\n            BUSDToLPPoolOtherTokenPath = _path;\n        } else {\n            revert(\"unsupported idx swap path\");\n        }\n    }\n\n    /* Investment Actions */\n\n    /// @notice Receives new deposits from user\n    /// @param _account address of user that this deposit is intended for\n    /// @param _wantAmt amount of Want token to deposit/stake\n    /// @return uint256 Number of shares added\n    function depositWantToken(address _account, uint256 _wantAmt)\n        public\n        virtual\n        override\n        onlyZorroController\n        nonReentrant\n        whenNotPaused\n        returns (uint256)\n    {\n        // Preflight checks\n        require(_wantAmt > 0, \"Want token deposit must be > 0\");\n\n        // Transfer Want token from sender\n        IERC20Upgradeable(wantAddress).safeTransferFrom(\n            msg.sender,\n            address(this),\n            _wantAmt\n        );\n\n        // Set sharesAdded to the Want token amount specified\n        uint256 sharesAdded = _wantAmt;\n        // If the total number of shares and want tokens locked both exceed 0, the shares added is the proportion of Want tokens locked,\n        // discounted by the entrance fee\n        if (wantLockedTotal > 0 && sharesTotal > 0) {\n            sharesAdded = _wantAmt\n                .mul(sharesTotal)\n                .mul(entranceFeeFactor)\n                .div(wantLockedTotal)\n                .div(entranceFeeFactorMax);\n        }\n        // Increment the shares\n        sharesTotal = sharesTotal.add(sharesAdded);\n        userShares[_account] = userShares[_account].add(sharesAdded);\n\n        if (isZorroComp) {\n            // If this contract is meant for Autocompounding, start to farm the staked token\n            _farm();\n        } else {\n            // Otherwise, simply increment the quantity of total Want tokens locked\n            wantLockedTotal = wantLockedTotal.add(_wantAmt);\n        }\n\n        return sharesAdded;\n    }\n\n    /// @notice Performs necessary operations to convert USDC into Want token\n    /// @param _amountUSDC The USDC quantity to exchange (must already be deposited)\n    /// @param _maxMarketMovementAllowed The max slippage allowed. 1000 = 0 %, 995 = 0.5%, etc.\n    /// @return uint256 Amount of Want token obtained\n    function exchangeUSDForWantToken(\n        uint256 _amountUSDC,\n        uint256 _maxMarketMovementAllowed\n    ) public override onlyZorroController whenNotPaused returns (uint256) {\n        // Get balance of deposited USDC\n        uint256 _balUSDC = IERC20(tokenUSDCAddress).balanceOf(address(this));\n        // Check that USDC was actually deposited\n        require(_amountUSDC > 0, \"USDC deposit must be > 0\");\n        require(_amountUSDC <= _balUSDC, \"USDC desired exceeded bal\");\n\n        // Use price feed to determine exchange rates\n        uint256 _token0ExchangeRate = token0PriceFeed.getExchangeRate();\n\n        // Swap USDC for tokens\n        // Increase allowance\n        IERC20Upgradeable(tokenUSDCAddress).safeIncreaseAllowance(\n            uniRouterAddress,\n            _amountUSDC\n        );\n        // Single asset. Swap from USDC directly to Token0\n        _safeSwap(\n            SafeSwapParams({\n                amountIn: _amountUSDC,\n                priceToken0: 1e12,\n                priceToken1: _token0ExchangeRate,\n                token0: tokenUSDCAddress,\n                token1: token0Address,\n                token0Weight: 0,\n                token1Weight: 0,\n                maxMarketMovementAllowed: _maxMarketMovementAllowed,\n                path: USDCToToken0Path,\n                destination: address(this)\n            })\n        );\n\n        // Get new Token0 balance\n        uint256 _token0Bal = IERC20Upgradeable(token0Address).balanceOf(\n            address(this)\n        );\n\n        // Deposit token to get Want token\n        IAcryptosVault(poolAddress).deposit(_token0Bal);\n\n        // Calculate resulting want token balance\n        uint256 _wantAmt = IERC20Upgradeable(wantAddress).balanceOf(\n            address(this)\n        );\n\n        // Transfer back to sender\n        IERC20Upgradeable(wantAddress).safeTransfer(\n            zorroControllerAddress,\n            _wantAmt\n        );\n\n        return _wantAmt;\n    }\n\n    /// @notice Safely swaps tokens using the most suitable protocol based on token\n    /// @param _swapParams SafeSwapParams for swap\n    function _safeSwap(SafeSwapParams memory _swapParams) internal {\n        if (_swapParams.token0 == tokenACS || _swapParams.token1 == tokenACS) {\n            // If it's for the Acryptos tokens, swap on ACS Finance (Balancer clone) (Better liquidity for these tokens only)\n            IBalancerVault(balancerVaultAddress).safeSwap(\n                balancerPool,\n                _swapParams\n            );\n        } else {\n            // Otherwise, swap on normal Pancakeswap (or Uniswap clone) for simplicity & liquidity\n            IAMMRouter02(uniRouterAddress).safeSwap(\n                _swapParams.amountIn,\n                _swapParams.priceToken0,\n                _swapParams.priceToken1,\n                _swapParams.maxMarketMovementAllowed,\n                _swapParams.path,\n                _swapParams.destination,\n                block.timestamp.add(600)\n            );\n        }\n    }\n\n    /// @notice Public function for farming Want token.\n    function farm() public virtual nonReentrant {\n        _farm();\n    }\n\n    /// @notice Internal function for farming Want token. Responsible for staking Want token in a MasterChef/MasterApe-like contract\n    function _farm() internal virtual {\n        // Farming should only occur if this contract is set for autocompounding\n        require(isZorroComp, \"!isZorroComp\");\n\n        // Get the Want token stored on this contract\n        uint256 wantAmt = IERC20Upgradeable(wantAddress).balanceOf(\n            address(this)\n        );\n        // Increment the total Want tokens locked into this contract\n        wantLockedTotal = wantLockedTotal.add(wantAmt);\n        // Allow the farm contract (e.g. MasterChef) the ability to transfer up to the Want amount\n        IERC20Upgradeable(wantAddress).safeIncreaseAllowance(\n            farmContractAddress,\n            wantAmt\n        );\n\n        // Deposit the Want tokens in the Farm contract\n        IAcryptosFarm(farmContractAddress).deposit(wantAddress, wantAmt);\n    }\n\n    /// @notice Internal function for unfarming Want token. Responsible for unstaking Want token from MasterChef/MasterApe contracts\n    /// @param _wantAmt the amount of Want tokens to withdraw. If 0, will only harvest and not withdraw\n    function _unfarm(uint256 _wantAmt) internal virtual {\n        // Withdraw the Want tokens from the Farm contract\n        IAcryptosFarm(farmContractAddress).withdraw(wantAddress, _wantAmt);\n    }\n\n    /// @notice Fully withdraw Want tokens from the Farm contract (100% withdrawals only)\n    /// @param _account The address of the owner of vault investment\n    /// @param _wantAmt The amount of Want token to withdraw\n    /// @return uint256 The number of shares removed\n    function withdrawWantToken(address _account, uint256 _wantAmt)\n        public\n        virtual\n        override\n        onlyZorroController\n        nonReentrant\n        whenNotPaused\n        returns (uint256)\n    {\n        // Preflight checks\n        require(_wantAmt > 0, \"want amt <= 0\");\n\n        // Shares removed is proportional to the % of total Want tokens locked that _wantAmt represents\n        uint256 sharesRemoved = _wantAmt.mul(sharesTotal).div(wantLockedTotal);\n        // Safety: cap the shares to the total number of shares\n        if (sharesRemoved > sharesTotal) {\n            sharesRemoved = sharesTotal;\n        }\n        // Decrement the total shares by the sharesRemoved\n        sharesTotal = sharesTotal.sub(sharesRemoved);\n        userShares[_account] = userShares[_account].sub(sharesRemoved);\n\n        // If a withdrawal fee is specified, discount the _wantAmt by the withdrawal fee\n        if (withdrawFeeFactor < withdrawFeeFactorMax) {\n            _wantAmt = _wantAmt.mul(withdrawFeeFactor).div(\n                withdrawFeeFactorMax\n            );\n        }\n\n        // If this contract is designated for auto compounding, unfarm the Want tokens\n        if (isZorroComp) {\n            _unfarm(_wantAmt);\n        }\n\n        // Safety: Check balance of this contract's Want tokens held, and cap _wantAmt to that value\n        uint256 wantAmt = IERC20Upgradeable(wantAddress).balanceOf(\n            address(this)\n        );\n        if (_wantAmt > wantAmt) {\n            _wantAmt = wantAmt;\n        }\n        // Safety: cap _wantAmt at the total quantity of Want tokens locked\n        if (wantLockedTotal < _wantAmt) {\n            _wantAmt = wantLockedTotal;\n        }\n\n        // Decrement the total Want locked tokens by the _wantAmt\n        wantLockedTotal = wantLockedTotal.sub(_wantAmt);\n\n        // Finally, transfer the want amount from this contract, back to the ZorroController contract\n        IERC20Upgradeable(wantAddress).safeTransfer(\n            zorroControllerAddress,\n            _wantAmt\n        );\n\n        return sharesRemoved;\n    }\n\n    /// @notice Converts Want token back into USD to be ready for withdrawal and transfers to sender\n    /// @param _amount The Want token quantity to exchange (must be deposited beforehand)\n    /// @param _maxMarketMovementAllowed The max slippage allowed for swaps. 1000 = 0 %, 995 = 0.5%, etc.\n    /// @return uint256 Amount of USDC token obtained\n    function exchangeWantTokenForUSD(\n        uint256 _amount,\n        uint256 _maxMarketMovementAllowed\n    )\n        public\n        virtual\n        override\n        onlyZorroController\n        whenNotPaused\n        returns (uint256)\n    {\n        // Preflight checks\n        require(_amount > 0, \"Want amt must be > 0\");\n\n        // Safely transfer Want token from sender\n        IERC20Upgradeable(wantAddress).safeTransferFrom(\n            msg.sender,\n            address(this),\n            _amount\n        );\n\n        // Withdraw Want token to get Token0\n        IAcryptosFarm(farmContractAddress).withdraw(wantAddress, _amount);\n\n        // Use price feed to determine exchange rates\n        uint256 _token0ExchangeRate = token0PriceFeed.getExchangeRate();\n\n        // Swap Token0 for USDC\n        // Get Token0 balance\n        uint256 _token0Bal = IERC20Upgradeable(token0Address).balanceOf(\n            address(this)\n        );\n        // Increase allowance\n        IERC20Upgradeable(token0Address).safeIncreaseAllowance(\n            uniRouterAddress,\n            _token0Bal\n        );\n        // Swap Token0 -> USDC\n        _safeSwap(\n            SafeSwapParams({\n                amountIn: _token0Bal,\n                priceToken0: _token0ExchangeRate,\n                priceToken1: 1e12,\n                token0: token0Address,\n                token1: tokenUSDCAddress,\n                token0Weight: 0,\n                token1Weight: 0,\n                maxMarketMovementAllowed: _maxMarketMovementAllowed,\n                path: token0ToUSDCPath,\n                destination: msg.sender\n            })\n        );\n\n        // Calculate USDC balance\n        return IERC20(tokenUSDCAddress).balanceOf(address(this));\n    }\n\n    /// @notice The main compounding (earn) function. Reinvests profits since the last earn event.\n    /// @param _maxMarketMovementAllowed The max slippage allowed. 1000 = 0 %, 995 = 0.5%, etc.\n    function earn(uint256 _maxMarketMovementAllowed)\n        public\n        virtual\n        override\n        nonReentrant\n        whenNotPaused\n    {\n        // Only to be run if this contract is configured for auto-comnpounding\n        require(isZorroComp, \"!isZorroComp\");\n        // If onlyGov is set to true, only allow to proceed if the current caller is the govAddress\n        if (onlyGov) {\n            require(msg.sender == govAddress, \"!gov\");\n        }\n\n        // Harvest farm tokens\n        _unfarm(0);\n\n        // Get the balance of the Earned token on this contract (ACS, etc.)\n        uint256 earnedAmt = IERC20(earnedAddress).balanceOf(address(this));\n\n        // Get exchange rate from price feed\n        uint256 _earnTokenExchangeRate = earnTokenPriceFeed.getExchangeRate();\n        uint256 _token0ExchangeRate = token0PriceFeed.getExchangeRate();\n        uint256 _ZORExchangeRate = ZORPriceFeed.getExchangeRate();\n        uint256 _lpPoolOtherTokenExchangeRate = ZORPriceFeed.getExchangeRate();\n        // Create rates struct\n        ExchangeRates memory _rates = ExchangeRates({\n            earn: _earnTokenExchangeRate,\n            ZOR: _ZORExchangeRate,\n            lpPoolOtherToken: _lpPoolOtherTokenExchangeRate\n        });\n\n        // Reassign value of earned amount after distributing fees\n        earnedAmt = _distributeFees(earnedAmt);\n        // Reassign value of earned amount after buying back a certain amount of Zorro, sharing revenue\n        earnedAmt = _buyBackAndRevShare(\n            earnedAmt,\n            _maxMarketMovementAllowed,\n            _rates\n        );\n\n        // Swap Earn token for single asset token\n\n        // Step 1: Earned to BUSD\n        _safeSwap(\n            SafeSwapParams({\n                amountIn: earnedAmt,\n                priceToken0: _earnTokenExchangeRate,\n                priceToken1: 1e12,\n                token0: earnedAddress,\n                token1: tokenBUSD,\n                token0Weight: balancerACSWeightBasisPoints,\n                token1Weight: balancerBUSDWeightBasisPoints,\n                maxMarketMovementAllowed: _maxMarketMovementAllowed,\n                path: earnedToToken0Path,\n                destination: address(this)\n            })\n        );\n\n        // Step 2: BUSD to Token0\n        uint256 _balBUSD = IERC20Upgradeable(tokenBUSD).balanceOf(\n            address(this)\n        );\n        // Increase allowance\n        IERC20Upgradeable(tokenBUSD).safeIncreaseAllowance(\n            uniRouterAddress,\n            _balBUSD\n        );\n        _safeSwap(\n            SafeSwapParams({\n                amountIn: _balBUSD,\n                priceToken0: 1e12,\n                priceToken1: _token0ExchangeRate,\n                token0: tokenBUSD,\n                token1: token0Address,\n                token0Weight: 0,\n                token1Weight: 0,\n                maxMarketMovementAllowed: _maxMarketMovementAllowed,\n                path: BUSDToToken0Path,\n                destination: address(this)\n            })\n        );\n\n        // Redeposit single asset token to get Want token\n        // Get new Token0 balance\n        uint256 _token0Bal = IERC20(token0Address).balanceOf(address(this));\n        // Deposit token to get Want token\n        IAcryptosVault(poolAddress).deposit(_token0Bal);\n\n        // This vault is only for single asset deposits, so farm that token and exit\n        // Update the last earn block\n        lastEarnBlock = block.number;\n        // Farm LP token\n        _farm();\n    }\n\n    /// @notice Buys back the earned token on-chain, swaps it to add liquidity to the ZOR pool, then burns the associated LP token\n    /// @dev Requires funds to be sent to this address before calling. Can be called internally OR by controller\n    /// @param _amount The amount of Earn token to buy back\n    /// @param _maxMarketMovementAllowed The max slippage allowed. 1000 = 0 %, 995 = 0.5%, etc.\n    /// @param _rates ExchangeRates struct with realtime rates information for swaps\n    function _buybackOnChain(\n        uint256 _amount,\n        uint256 _maxMarketMovementAllowed,\n        ExchangeRates memory _rates\n    ) internal override {\n        // Authorize spending beforehand\n        IERC20Upgradeable(earnedAddress).safeIncreaseAllowance(\n            uniRouterAddress,\n            _amount\n        );\n\n        // 1. Swap Earned -> BUSD\n        address[] memory _dummyEarnedToBUSDPath;\n        _safeSwap(\n            SafeSwapParams({\n                amountIn: _amount,\n                priceToken0: _rates.earn,\n                priceToken1: 1e12,\n                token0: earnedAddress,\n                token1: tokenBUSD,\n                token0Weight: balancerACSWeightBasisPoints,\n                token1Weight: balancerBUSDWeightBasisPoints,\n                maxMarketMovementAllowed: _maxMarketMovementAllowed,\n                path: _dummyEarnedToBUSDPath,\n                destination: address(this)\n            })\n        );\n\n        // Get BUSD bal\n        uint256 _balBUSD = IERC20Upgradeable(tokenBUSD).balanceOf(\n            address(this)\n        );\n        // Approve spending\n        IERC20Upgradeable(tokenBUSD).safeIncreaseAllowance(\n            uniRouterAddress,\n            _balBUSD\n        );\n\n        // 2. Swap 1/2 BUSD -> ZOR\n        _safeSwap(\n            SafeSwapParams({\n                amountIn: _balBUSD.div(2),\n                priceToken0: 1e12,\n                priceToken1: _rates.ZOR,\n                token0: tokenBUSD,\n                token1: ZORROAddress,\n                token0Weight: 0,\n                token1Weight: 0,\n                maxMarketMovementAllowed: _maxMarketMovementAllowed,\n                path: BUSDToZORROPath,\n                destination: address(this)\n            })\n        );\n\n        // 3. Swap 1/2 BUSD -> LP \"other token\"\n        _safeSwap(\n            SafeSwapParams({\n                amountIn: _balBUSD.div(2),\n                priceToken0: 1e12,\n                priceToken1: _rates.lpPoolOtherToken,\n                token0: tokenBUSD,\n                token1: zorroLPPoolOtherToken,\n                token0Weight: 0,\n                token1Weight: 0,\n                maxMarketMovementAllowed: _maxMarketMovementAllowed,\n                path: BUSDToLPPoolOtherTokenPath,\n                destination: address(this)\n            })\n        );\n\n        // Enter LP pool and send received token to the burn address\n        uint256 zorroTokenAmt = IERC20Upgradeable(ZORROAddress).balanceOf(\n            address(this)\n        );\n        uint256 otherTokenAmt = IERC20Upgradeable(zorroLPPoolOtherToken)\n            .balanceOf(address(this));\n        IERC20Upgradeable(ZORROAddress).safeIncreaseAllowance(\n            uniRouterAddress,\n            zorroTokenAmt\n        );\n        IERC20Upgradeable(zorroLPPoolOtherToken).safeIncreaseAllowance(\n            uniRouterAddress,\n            otherTokenAmt\n        );\n        IAMMRouter02(uniRouterAddress).addLiquidity(\n            ZORROAddress,\n            zorroLPPoolOtherToken,\n            zorroTokenAmt,\n            otherTokenAmt,\n            zorroTokenAmt.mul(_maxMarketMovementAllowed).div(1000),\n            otherTokenAmt.mul(_maxMarketMovementAllowed).div(1000),\n            burnAddress,\n            block.timestamp.add(600)\n        );\n    }\n\n    /// @notice Sends the specified earnings amount as revenue share to ZOR stakers\n    /// @param _amount The amount of Earn token to share as revenue with ZOR stakers\n    /// @param _maxMarketMovementAllowed Max slippage. 950 = 5%, 990 = 1%, etc.\n    /// @param _rates ExchangeRates struct with realtime rates information for swaps\n    function _revShareOnChain(\n        uint256 _amount,\n        uint256 _maxMarketMovementAllowed,\n        ExchangeRates memory _rates\n    ) internal override {\n        // Authorize spending beforehand\n        IERC20Upgradeable(earnedAddress).safeIncreaseAllowance(\n            uniRouterAddress,\n            _amount\n        );\n\n        // Swap Earn to USDC\n        // Require two step swap (Balancer + Uni)\n        // 1. Balancer: Earn -> BUSD\n        address[] memory _dummyPath;\n        _safeSwap(\n            SafeSwapParams({\n                amountIn: _amount,\n                priceToken0: _rates.earn,\n                priceToken1: 1e12,\n                token0: earnedAddress,\n                token1: tokenBUSD,\n                token0Weight: balancerACSWeightBasisPoints,\n                token1Weight: balancerBUSDWeightBasisPoints,\n                maxMarketMovementAllowed: _maxMarketMovementAllowed,\n                path: _dummyPath, // Unused\n                destination: address(this)\n            })\n        );\n        // 2. Uni: BUSD -> ZOR\n        uint256 _balUSDC = IERC20Upgradeable(tokenUSDCAddress).balanceOf(\n            address(this)\n        );\n        // Increase allowance\n        IERC20Upgradeable(tokenUSDCAddress).safeIncreaseAllowance(\n            uniRouterAddress,\n            _balUSDC\n        );\n        _safeSwap(\n            SafeSwapParams({\n                amountIn: _balUSDC,\n                priceToken0: 1e12,\n                priceToken1: _rates.ZOR,\n                token0: tokenUSDCAddress,\n                token1: ZORROAddress,\n                token0Weight: 0,\n                token1Weight: 0,\n                maxMarketMovementAllowed: _maxMarketMovementAllowed,\n                path: BUSDToZORROPath,\n                destination: zorroStakingVault\n            })\n        );\n    }\n\n    /// @notice Swaps Earn token to USDC and sends to destination specified\n    /// @param _earnedAmount Quantity of Earned tokens\n    /// @param _destination Address to send swapped USDC to\n    /// @param _maxMarketMovementAllowed Slippage factor. 950 = 5%, 990 = 1%, etc.\n    /// @param _rates ExchangeRates struct with realtime rates information for swaps\n    function _swapEarnedToUSDC(\n        uint256 _earnedAmount,\n        address _destination,\n        uint256 _maxMarketMovementAllowed,\n        ExchangeRates memory _rates\n    ) internal override {\n        // Swap ACS to BUSD (Balancer)\n        _safeSwap(\n            SafeSwapParams({\n                amountIn: _earnedAmount,\n                priceToken0: _rates.earn,\n                priceToken1: 1e12,\n                token0: earnedAddress,\n                token1: tokenBUSD,\n                token0Weight: balancerACSWeightBasisPoints,\n                token1Weight: balancerBUSDWeightBasisPoints,\n                maxMarketMovementAllowed: _maxMarketMovementAllowed,\n                path: earnedToUSDCPath, // Unused\n                destination: address(this)\n            })\n        );\n\n        // BUSD balance\n        uint256 _balBUSD = IERC20Upgradeable(tokenBUSD).balanceOf(\n            address(this)\n        );\n\n        // Swap path\n        address[] memory _path;\n        _path[0] = tokenBUSD;\n        _path[1] = tokenUSDCAddress;\n\n        // Swap BUSD to USDC (PCS)\n        // Increase allowance\n        IERC20Upgradeable(tokenBUSD).safeIncreaseAllowance(\n            uniRouterAddress,\n            _balBUSD\n        );\n        // Swap\n        _safeSwap(\n            SafeSwapParams({\n                amountIn: _balBUSD,\n                priceToken0: 1e12,\n                priceToken1: 1e12,\n                token0: tokenBUSD,\n                token1: tokenUSDCAddress,\n                token0Weight: 0,\n                token1Weight: 0,\n                maxMarketMovementAllowed: _maxMarketMovementAllowed,\n                path: _path,\n                destination: _destination\n            })\n        );\n    }\n}\n",
  "sourcePath": "/Users/kristophm/Documents/workspace/zorro-protocol/contracts/vaults/VaultAcryptosSingle.sol",
  "compiler": {
    "name": "solc",
    "version": "0.8.10+commit.fc410830.Emscripten.clang"
  },
  "schemaVersion": "3.4.4",
  "updatedAt": "2022-04-18T01:48:57.444Z",
  "networkType": "ethereum",
  "devdoc": {
    "kind": "dev",
    "methods": {
      "depositWantToken(address,uint256)": {
        "params": {
          "_account": "address of user that this deposit is intended for",
          "_wantAmt": "amount of Want token to deposit/stake"
        },
        "returns": {
          "_0": "uint256 Number of shares added"
        }
      },
      "earn(uint256)": {
        "params": {
          "_maxMarketMovementAllowed": "The max slippage allowed. 1000 = 0 %, 995 = 0.5%, etc."
        }
      },
      "exchangeUSDForWantToken(uint256,uint256)": {
        "params": {
          "_amountUSDC": "The USDC quantity to exchange (must already be deposited)",
          "_maxMarketMovementAllowed": "The max slippage allowed. 1000 = 0 %, 995 = 0.5%, etc."
        },
        "returns": {
          "_0": "uint256 Amount of Want token obtained"
        }
      },
      "exchangeWantTokenForUSD(uint256,uint256)": {
        "params": {
          "_amount": "The Want token quantity to exchange (must be deposited beforehand)",
          "_maxMarketMovementAllowed": "The max slippage allowed for swaps. 1000 = 0 %, 995 = 0.5%, etc."
        },
        "returns": {
          "_0": "uint256 Amount of USDC token obtained"
        }
      },
      "inCaseTokensGetStuck(address,uint256,address)": {
        "params": {
          "_amount": "The amount of the tokens to transfer",
          "_to": "The address to transfer tokens to",
          "_token": "Address of the ERC20 token to transfer"
        }
      },
      "initialize(address,(uint256,bool,bool,bool,(address,address,address,address,address,address,address,address,address,address,address,address,address,address,address),address[],address[],address[],address[],address[],address[],address[],address[],(uint256,uint256,uint256,uint256,uint256),(address,address,address,address,address)))": {
        "params": {
          "_initValue": "A VaultAcryptosSingleInit struct containing all init values",
          "_timelockOwner": "The designated timelock controller address to act as owner"
        }
      },
      "owner()": {
        "details": "Returns the address of the current owner."
      },
      "paused()": {
        "details": "Returns true if the contract is paused, and false otherwise."
      },
      "renounceOwnership()": {
        "details": "Leaves the contract without owner. It will not be possible to call `onlyOwner` functions anymore. Can only be called by the current owner. NOTE: Renouncing ownership will leave the contract without an owner, thereby removing any functionality that is only available to the owner."
      },
      "setFeeSettings(uint256,uint256,uint256,uint256)": {
        "params": {
          "_buyBackRate": "Buy back rate fee numerator",
          "_controllerFee": "Controller fee numerator",
          "_entranceFeeFactor": "Entrance fee numerator (higher means smaller percentage)",
          "_withdrawFeeFactor": "Withdrawal fee numerator (higher means smaller percentage)"
        }
      },
      "setGov(address)": {
        "params": {
          "_govAddress": "The new gov address"
        }
      },
      "setOnlyGov(bool)": {
        "params": {
          "_onlyGov": "whether onlyGov should be enforced"
        }
      },
      "transferOwnership(address)": {
        "details": "Transfers ownership of the contract to a new account (`newOwner`). Can only be called by the current owner."
      },
      "withdrawWantToken(address,uint256)": {
        "params": {
          "_account": "The address of the owner of vault investment",
          "_wantAmt": "The amount of Want token to withdraw"
        },
        "returns": {
          "_0": "uint256 The number of shares removed"
        }
      }
    },
    "title": "Vault contract for Acryptos single token strategies (e.g. for lending)",
    "version": 1
  },
  "userdoc": {
    "kind": "user",
    "methods": {
      "depositWantToken(address,uint256)": {
        "notice": "Receives new deposits from user"
      },
      "earn(uint256)": {
        "notice": "The main compounding (earn) function. Reinvests profits since the last earn event."
      },
      "exchangeUSDForWantToken(uint256,uint256)": {
        "notice": "Performs necessary operations to convert USDC into Want token"
      },
      "exchangeWantTokenForUSD(uint256,uint256)": {
        "notice": "Converts Want token back into USD to be ready for withdrawal and transfers to sender"
      },
      "farm()": {
        "notice": "Public function for farming Want token."
      },
      "inCaseTokensGetStuck(address,uint256,address)": {
        "notice": "Safely transfer ERC20 tokens stuck in this contract to a specified address"
      },
      "initialize(address,(uint256,bool,bool,bool,(address,address,address,address,address,address,address,address,address,address,address,address,address,address,address),address[],address[],address[],address[],address[],address[],address[],address[],(uint256,uint256,uint256,uint256,uint256),(address,address,address,address,address)))": {
        "notice": "Upgradeable constructor"
      },
      "pause()": {
        "notice": "Pause contract"
      },
      "setFeeSettings(uint256,uint256,uint256,uint256)": {
        "notice": "Configure key fee parameters"
      },
      "setGov(address)": {
        "notice": "Set governor address"
      },
      "setOnlyGov(bool)": {
        "notice": "Set onlyGov property"
      },
      "unpause()": {
        "notice": "Unpause contract"
      },
      "withdrawWantToken(address,uint256)": {
        "notice": "Fully withdraw Want tokens from the Farm contract (100% withdrawals only)"
      }
    },
    "version": 1
  }
}