{
  "contractName": "VaultActionsAlpaca",
  "abi": [
    {
      "anonymous": false,
      "inputs": [
        {
          "indexed": true,
          "internalType": "uint256",
          "name": "wantRemaining",
          "type": "uint256"
        },
        {
          "indexed": true,
          "internalType": "uint256",
          "name": "xChainBuybackAmt",
          "type": "uint256"
        },
        {
          "indexed": true,
          "internalType": "uint256",
          "name": "xChainRevShareAmt",
          "type": "uint256"
        }
      ],
      "name": "DistributedEarnings",
      "type": "event"
    },
    {
      "anonymous": false,
      "inputs": [
        {
          "indexed": true,
          "internalType": "address",
          "name": "previousOwner",
          "type": "address"
        },
        {
          "indexed": true,
          "internalType": "address",
          "name": "newOwner",
          "type": "address"
        }
      ],
      "name": "OwnershipTransferred",
      "type": "event"
    },
    {
      "inputs": [],
      "name": "burnAddress",
      "outputs": [
        {
          "internalType": "address",
          "name": "",
          "type": "address"
        }
      ],
      "stateMutability": "view",
      "type": "function"
    },
    {
      "inputs": [
        {
          "internalType": "uint256",
          "name": "_amount",
          "type": "uint256"
        },
        {
          "internalType": "uint256",
          "name": "_maxMarketMovementAllowed",
          "type": "uint256"
        },
        {
          "components": [
            {
              "internalType": "address",
              "name": "ZORROAddress",
              "type": "address"
            },
            {
              "internalType": "address",
              "name": "treasury",
              "type": "address"
            },
            {
              "internalType": "address",
              "name": "stablecoin",
              "type": "address"
            },
            {
              "internalType": "address",
              "name": "zorroStakingVault",
              "type": "address"
            },
            {
              "internalType": "address",
              "name": "zorroLPPoolOtherToken",
              "type": "address"
            },
            {
              "internalType": "contract AggregatorV3Interface",
              "name": "ZORPriceFeed",
              "type": "address"
            },
            {
              "internalType": "contract AggregatorV3Interface",
              "name": "lpPoolOtherTokenPriceFeed",
              "type": "address"
            },
            {
              "internalType": "contract AggregatorV3Interface",
              "name": "stablecoinPriceFeed",
              "type": "address"
            },
            {
              "internalType": "address[]",
              "name": "stablecoinToZORROPath",
              "type": "address[]"
            },
            {
              "internalType": "address[]",
              "name": "stablecoinToZORLPPoolOtherTokenPath",
              "type": "address[]"
            },
            {
              "internalType": "uint16",
              "name": "controllerFeeBP",
              "type": "uint16"
            },
            {
              "internalType": "uint16",
              "name": "buybackBP",
              "type": "uint16"
            },
            {
              "internalType": "uint16",
              "name": "revShareBP",
              "type": "uint16"
            },
            {
              "internalType": "bool",
              "name": "isHomeChain",
              "type": "bool"
            }
          ],
          "internalType": "struct IVaultActions.DistributeEarningsParams",
          "name": "_params",
          "type": "tuple"
        }
      ],
      "name": "distributeAndReinvestEarnings",
      "outputs": [
        {
          "internalType": "uint256",
          "name": "wantRemaining",
          "type": "uint256"
        },
        {
          "internalType": "uint256",
          "name": "xChainBuybackAmt",
          "type": "uint256"
        },
        {
          "internalType": "uint256",
          "name": "xChainRevShareAmt",
          "type": "uint256"
        }
      ],
      "stateMutability": "nonpayable",
      "type": "function"
    },
    {
      "inputs": [
        {
          "internalType": "uint256",
          "name": "_amountUSD",
          "type": "uint256"
        },
        {
          "internalType": "uint256",
          "name": "_maxMarketMovementAllowed",
          "type": "uint256"
        },
        {
          "internalType": "address",
          "name": "_destination",
          "type": "address"
        }
      ],
      "name": "exchangeUSDForWantToken",
      "outputs": [
        {
          "internalType": "uint256",
          "name": "wantObtained",
          "type": "uint256"
        }
      ],
      "stateMutability": "nonpayable",
      "type": "function"
    },
    {
      "inputs": [
        {
          "internalType": "uint256",
          "name": "_amount",
          "type": "uint256"
        },
        {
          "internalType": "uint256",
          "name": "_maxMarketMovementAllowed",
          "type": "uint256"
        },
        {
          "internalType": "address",
          "name": "_destination",
          "type": "address"
        }
      ],
      "name": "exchangeWantTokenForUSD",
      "outputs": [
        {
          "internalType": "uint256",
          "name": "usdObtained",
          "type": "uint256"
        }
      ],
      "stateMutability": "nonpayable",
      "type": "function"
    },
    {
      "inputs": [
        {
          "internalType": "uint256",
          "name": "_amountLP",
          "type": "uint256"
        },
        {
          "internalType": "uint256",
          "name": "_maxMarketMovementAllowed",
          "type": "uint256"
        },
        {
          "internalType": "address",
          "name": "_recipient",
          "type": "address"
        },
        {
          "components": [
            {
              "internalType": "address",
              "name": "token0",
              "type": "address"
            },
            {
              "internalType": "address",
              "name": "token1",
              "type": "address"
            },
            {
              "internalType": "address",
              "name": "poolAddress",
              "type": "address"
            },
            {
              "internalType": "address",
              "name": "lpTokenAddress",
              "type": "address"
            }
          ],
          "internalType": "struct IVaultActions.ExitPoolParams",
          "name": "_exitPoolParams",
          "type": "tuple"
        }
      ],
      "name": "exitPool",
      "outputs": [],
      "stateMutability": "nonpayable",
      "type": "function"
    },
    {
      "inputs": [
        {
          "internalType": "address",
          "name": "_uniRouterAddress",
          "type": "address"
        }
      ],
      "name": "initialize",
      "outputs": [],
      "stateMutability": "nonpayable",
      "type": "function"
    },
    {
      "inputs": [
        {
          "internalType": "address",
          "name": "_token0",
          "type": "address"
        },
        {
          "internalType": "address",
          "name": "_token1",
          "type": "address"
        },
        {
          "internalType": "uint256",
          "name": "_token0Amt",
          "type": "uint256"
        },
        {
          "internalType": "uint256",
          "name": "_token1Amt",
          "type": "uint256"
        },
        {
          "internalType": "uint256",
          "name": "_maxMarketMovementAllowed",
          "type": "uint256"
        },
        {
          "internalType": "address",
          "name": "_recipient",
          "type": "address"
        }
      ],
      "name": "joinPool",
      "outputs": [],
      "stateMutability": "nonpayable",
      "type": "function"
    },
    {
      "inputs": [],
      "name": "owner",
      "outputs": [
        {
          "internalType": "address",
          "name": "",
          "type": "address"
        }
      ],
      "stateMutability": "view",
      "type": "function"
    },
    {
      "inputs": [],
      "name": "renounceOwnership",
      "outputs": [],
      "stateMutability": "nonpayable",
      "type": "function"
    },
    {
      "inputs": [
        {
          "internalType": "address[]",
          "name": "_path",
          "type": "address[]"
        }
      ],
      "name": "reversePath",
      "outputs": [
        {
          "internalType": "address[]",
          "name": "newPath",
          "type": "address[]"
        }
      ],
      "stateMutability": "pure",
      "type": "function"
    },
    {
      "inputs": [
        {
          "components": [
            {
              "internalType": "uint256",
              "name": "amountIn",
              "type": "uint256"
            },
            {
              "internalType": "uint256",
              "name": "priceToken0",
              "type": "uint256"
            },
            {
              "internalType": "uint256",
              "name": "priceToken1",
              "type": "uint256"
            },
            {
              "internalType": "address",
              "name": "token0",
              "type": "address"
            },
            {
              "internalType": "address",
              "name": "token1",
              "type": "address"
            },
            {
              "internalType": "uint256",
              "name": "maxMarketMovementAllowed",
              "type": "uint256"
            },
            {
              "internalType": "address[]",
              "name": "path",
              "type": "address[]"
            },
            {
              "internalType": "address",
              "name": "destination",
              "type": "address"
            }
          ],
          "internalType": "struct SafeSwapUni.SafeSwapParams",
          "name": "_swapParams",
          "type": "tuple"
        }
      ],
      "name": "safeSwap",
      "outputs": [],
      "stateMutability": "nonpayable",
      "type": "function"
    },
    {
      "inputs": [
        {
          "internalType": "address",
          "name": "_burnAddress",
          "type": "address"
        }
      ],
      "name": "setBurnAddress",
      "outputs": [],
      "stateMutability": "nonpayable",
      "type": "function"
    },
    {
      "inputs": [
        {
          "internalType": "address",
          "name": "_uniRouterAddress",
          "type": "address"
        }
      ],
      "name": "setUniRouterAddress",
      "outputs": [],
      "stateMutability": "nonpayable",
      "type": "function"
    },
    {
      "inputs": [
        {
          "internalType": "address",
          "name": "newOwner",
          "type": "address"
        }
      ],
      "name": "transferOwnership",
      "outputs": [],
      "stateMutability": "nonpayable",
      "type": "function"
    },
    {
      "inputs": [],
      "name": "uniRouterAddress",
      "outputs": [
        {
          "internalType": "address",
          "name": "",
          "type": "address"
        }
      ],
      "stateMutability": "view",
      "type": "function"
    },
    {
      "inputs": [
        {
          "internalType": "address",
          "name": "_vaultAddr",
          "type": "address"
        }
      ],
      "name": "unrealizedProfits",
      "outputs": [
        {
          "internalType": "uint256",
          "name": "accumulatedProfit",
          "type": "uint256"
        },
        {
          "internalType": "uint256",
          "name": "harvestableProfit",
          "type": "uint256"
        }
      ],
      "stateMutability": "view",
      "type": "function"
    },
    {
      "inputs": [
        {
          "internalType": "address",
          "name": "_vaultAddr",
          "type": "address"
        }
      ],
      "name": "currentWantEquity",
      "outputs": [
        {
          "internalType": "uint256",
          "name": "positionVal",
          "type": "uint256"
        }
      ],
      "stateMutability": "view",
      "type": "function"
    }
  ],
  "bytecode": "0x608060405234801561001057600080fd5b506137b2806100206000396000f3fe608060405234801561001057600080fd5b506004361061010f5760003560e060020a90048063715018a6116100a6578063c4d66de811610075578063c4d66de814610247578063c80ef8db1461025a578063ca9730e61461027b578063f2fde38b1461028e578063f55850b4146102a157600080fd5b8063715018a6146101e65780638b4c5aee146101ee5780638da5cb5b1461020e578063a0e16faf1461021f57600080fd5b80635da79d63116100e25780635da79d6314610162578063693a090b146101755780636945292a146101a557806370d5ae05146101d357600080fd5b80630c70c2811461011457806312ad7eba146101295780634b0e72161461013c57806358f5ab9f1461014f575b600080fd5b610127610122366004612dc9565b6102b4565b005b610127610137366004612f1d565b6102e0565b61012761014a366004612fe6565b61030c565b61012761015d366004613003565b610371565b610127610170366004612fe6565b6103b1565b60655461018890600160a060020a031681565b604051600160a060020a0390911681526020015b60405180910390f35b6101b86101b336600461309e565b61040d565b6040805193845260208401929092529082015260600161019c565b60665461018890600160a060020a031681565b61012761062b565b6102016101fc366004613221565b610664565b60405161019c919061329a565b603354600160a060020a0316610188565b61023261022d366004612fe6565b610738565b6040805192835260208301919091520161019c565b610127610255366004612fe6565b6108b0565b61026d6102683660046132ad565b6109b4565b60405190815260200161019c565b61026d6102893660046132ad565b610b18565b61012761029c366004612fe6565b610c0a565b61026d6102af366004612fe6565b610cbf565b60608101516102ce90600160a060020a031633308761125c565b6102da8484848461130d565b50505050565b8051606082015161030091600160a060020a03909116903390309061125c565b61030981611427565b50565b603354600160a060020a031633146103425760405160e560020a62461bcd028152600401610339906132e6565b60405180910390fd5b6066805473ffffffffffffffffffffffffffffffffffffffff1916600160a060020a0392909216919091179055565b610386600160a060020a03871633308761125c565b61039b600160a060020a03861633308661125c565b6103a9868686868686611637565b505050505050565b603354600160a060020a031633146103de5760405160e560020a62461bcd028152600401610339906132e6565b6065805473ffffffffffffffffffffffffffffffffffffffff1916600160a060020a0392909216919091179055565b600080808033600160a060020a031663e7a036796040518163ffffffff1660e060020a028152600401602060405180830381865afa158015610453573d6000803e3d6000fd5b505050506040513d601f19601f82011682018060405250810190610477919061331b565b9050600033600160a060020a031663b61bb80a6040518163ffffffff1660e060020a028152600401602060405180830381865afa1580156104bc573d6000803e3d6000fd5b505050506040513d601f19601f820116820180604052508101906104e0919061331b565b90506104f7600160a060020a03831633308b61125c565b6000610504898989611764565b90965094509050610529846105198784613351565b6105239190613351565b8961193e565b955061053f600160a060020a0384163388611b70565b60405160e060020a6370a08231028152306004820152600090600160a060020a038416906370a0823190602401602060405180830381865afa158015610589573d6000803e3d6000fd5b505050506040513d601f19601f820116820180604052508101906105ad9190613368565b90506105b98587613381565b6105c38288613399565b6105cd91906133b8565b95506105d98682613351565b94506105ef600160a060020a0385163383611b70565b8486887f7b5c55b851dd95ef2956a0907221248d9f0d535431943b759d0bca1f0125520060405160405180910390a45050505093509350939050565b603354600160a060020a031633146106585760405160e560020a62461bcd028152600401610339906132e6565b6106626000611bb9565b565b80516060908067ffffffffffffffff81111561068257610682612d31565b6040519080825280602002602001820160405280156106ab578160200160208202803683370190505b50915060005b818161ffff16101561073157838161ffff16600186516106d19190613351565b6106db9190613351565b815181106106eb576106eb6133dd565b6020026020010151838261ffff1681518110610709576107096133dd565b600160a060020a039092166020928302919091019091015261072a816133f6565b90506106b1565b5050919050565b600080600083600160a060020a0316637a8d130f6040518163ffffffff1660e060020a028152600401602060405180830381865afa15801561077e573d6000803e3d6000fd5b505050506040513d601f19601f820116820180604052508101906107a29190613368565b6040517ff55850b4000000000000000000000000000000000000000000000000000000008152600160a060020a03861660048201529091508190309063f55850b490602401602060405180830381865afa158015610804573d6000803e3d6000fd5b505050506040513d601f19601f820116820180604052508101906108289190613368565b6108329190613351565b9250600084600160a060020a031663c86274566040518163ffffffff1660e060020a028152600401602060405180830381865afa158015610877573d6000803e3d6000fd5b505050506040513d601f19601f8201168201806040525081019061089b9190613368565b90506108a78185613351565b92505050915091565b600054610100900460ff166108cb5760005460ff16156108cf565b303b155b6109445760405160e560020a62461bcd02815260206004820152602e60248201527f496e697469616c697a61626c653a20636f6e747261637420697320616c72656160448201527f647920696e697469616c697a65640000000000000000000000000000000000006064820152608401610339565b600054610100900460ff16158015610966576000805461ffff19166101011790555b60658054600160a060020a03841673ffffffffffffffffffffffffffffffffffffffff19918216179091556066805490911661dead17905580156109b0576000805461ff00191690555b5050565b6000808411610a085760405160e560020a62461bcd02815260206004820152600760248201527f6e656757616e74000000000000000000000000000000000000000000000000006044820152606401610339565b600033600160a060020a031663e7a036796040518163ffffffff1660e060020a028152600401602060405180830381865afa158015610a4b573d6000803e3d6000fd5b505050506040513d601f19601f82011682018060405250810190610a6f919061331b565b9050600033600160a060020a031663b61bb80a6040518163ffffffff1660e060020a028152600401602060405180830381865afa158015610ab4573d6000803e3d6000fd5b505050506040513d601f19601f82011682018060405250810190610ad8919061331b565b9050610aef600160a060020a03831633308961125c565b610af98686611c18565b9250610b0f600160a060020a0382168585611b70565b50509392505050565b60008033600160a060020a031663b61bb80a6040518163ffffffff1660e060020a028152600401602060405180830381865afa158015610b5c573d6000803e3d6000fd5b505050506040513d601f19601f82011682018060405250810190610b80919061331b565b9050600033600160a060020a031663e7a036796040518163ffffffff1660e060020a028152600401602060405180830381865afa158015610bc5573d6000803e3d6000fd5b505050506040513d601f19601f82011682018060405250810190610be9919061331b565b9050610c00600160a060020a03831633308961125c565b610af9868661193e565b603354600160a060020a03163314610c375760405160e560020a62461bcd028152600401610339906132e6565b600160a060020a038116610cb65760405160e560020a62461bcd02815260206004820152602660248201527f4f776e61626c653a206e6577206f776e657220697320746865207a65726f206160448201527f64647265737300000000000000000000000000000000000000000000000000006064820152608401610339565b61030981611bb9565b600080829050600081600160a060020a0316637ff36fbe6040518163ffffffff1660e060020a028152600401602060405180830381865afa158015610d08573d6000803e3d6000fd5b505050506040513d601f19601f82011682018060405250810190610d2c919061331b565b9050600082600160a060020a031663e7a036796040518163ffffffff1660e060020a028152600401602060405180830381865afa158015610d71573d6000803e3d6000fd5b505050506040513d601f19601f82011682018060405250810190610d95919061331b565b9050600083600160a060020a031663e71984746040518163ffffffff1660e060020a028152600401602060405180830381865afa158015610dda573d6000803e3d6000fd5b505050506040513d601f19601f82011682018060405250810190610dfe919061331b565b60405160e160020a634ee5a88d028152600160a060020a038581166004830152919250600091861690639dcb511a90602401602060405180830381865afa158015610e4d573d6000803e3d6000fd5b505050506040513d601f19601f82011682018060405250810190610e71919061331b565b60405160e060020a6370a08231028152600160a060020a0389811660048301529192506000918616906370a0823190602401602060405180830381865afa158015610ec0573d6000803e3d6000fd5b505050506040513d601f19601f82011682018060405250810190610ee49190613368565b60405160e060020a6370a08231028152600160a060020a038a811660048301529192506000918616906370a0823190602401602060405180830381865afa158015610f33573d6000803e3d6000fd5b505050506040513d601f19601f82011682018060405250810190610f579190613368565b9050600085600160a060020a03166318160ddd6040518163ffffffff1660e060020a028152600401602060405180830381865afa158015610f9c573d6000803e3d6000fd5b505050506040513d601f19601f82011682018060405250810190610fc09190613368565b60405160e060020a6370a08231028152600160a060020a0388811660048301528916906370a0823190602401602060405180830381865afa158015611009573d6000803e3d6000fd5b505050506040513d601f19601f8201168201806040525081019061102d9190613368565b6110379084613399565b61104191906133b8565b9050600088600160a060020a0316639fc33a9f6040518163ffffffff1660e060020a028152600401602060405180830381865afa158015611086573d6000803e3d6000fd5b505050506040513d601f19601f820116820180604052508101906110aa919061331b565b600160a060020a03166394443b738a600160a060020a031663f10684546040518163ffffffff1660e060020a028152600401602060405180830381865afa1580156110f9573d6000803e3d6000fd5b505050506040513d601f19601f8201168201806040525081019061111d9190613368565b60405160e060020a63ffffffff84160281526004810191909152600160a060020a038e166024820152604401602060405180830381865afa158015611166573d6000803e3d6000fd5b505050506040513d601f19601f8201168201806040525081019061118a9190613368565b905060006111a086600160a060020a0316611f01565b60405160e160020a634ee5a88d028152600160a060020a03898116600483015261122191908d1690639dcb511a906024015b602060405180830381865afa1580156111ef573d6000803e3d6000fd5b505050506040513d601f19601f82011682018060405250810190611213919061331b565b600160a060020a0316611f01565b61122b9084613399565b61123591906133b8565b9050806112428487613381565b61124c9190613381565b9c9b505050505050505050505050565b604051600160a060020a03808516602483015283166044820152606481018290526102da9085907f23b872dd00000000000000000000000000000000000000000000000000000000906084015b60408051601f198184030181529190526020810180517bffffffffffffffffffffffffffffffffffffffffffffffffffffffff167fffffffff0000000000000000000000000000000000000000000000000000000090931692909217909152612058565b600080611324868460000151856040015188612140565b915061133a868460200151856040015188612140565b606554606085015191925061135c91600160a060020a03908116911688612248565b60655483516020850151600160a060020a039092169163baa2abde91908986868a61138942610258613381565b60405163ffffffff891660e060020a028152600160a060020a039788166004820152958716602487015260448601949094526064850192909252608484015290921660a482015260c481019190915260e40160408051808303816000875af11580156113f9573d6000803e3d6000fd5b505050506040513d601f19601f8201168201806040525081019061141d9190613418565b5050505050505050565b6065548151606083015161144992600160a060020a0391821692911690612248565b6040805160028082526060820183526000926020830190803683370190505090508160600151600160a060020a031663313ce5676040518163ffffffff1660e060020a028152600401602060405180830381865afa1580156114af573d6000803e3d6000fd5b505050506040513d601f19601f820116820180604052508101906114d3919061343c565b816000815181106114e6576114e66133dd565b602002602001019060ff16908160ff16815250508160800151600160a060020a031663313ce5676040518163ffffffff1660e060020a028152600401602060405180830381865afa15801561153f573d6000803e3d6000fd5b505050506040513d601f19601f82011682018060405250810190611563919061343c565b81600181518110611576576115766133dd565b60ff9290921660209283029190910182015260408051600280825260608201835260009391929091830190803683370190505090508260200151816000815181106115c3576115c36133dd565b6020026020010181815250508260400151816001815181106115e7576115e76133dd565b6020026020010181815250506116328360000151828560a001518660c00151868860e001514261025861161a9190613381565b606554600160a060020a03169695949392919061232c565b505050565b60655461165190600160a060020a03888116911686612248565b60655461166b90600160a060020a03878116911685612248565b606554600160a060020a031663e8e33700878787876103e861168d8984613399565b61169791906133b8565b6103e86116a48a8c613399565b6116ae91906133b8565b886116bb42610258613381565b60405163ffffffff8a1660e060020a028152600160a060020a039889166004820152968816602488015260448701959095526064860193909352608485019190915260a484015290921660c482015260e4810191909152610104016060604051808303816000875af1158015611735573d6000803e3d6000fd5b505050506040513d601f19601f82011682018060405250810190611759919061345f565b505050505050505050565b6000806000806117748787611c18565b9050600061179188876040015188602001518961014001516124ac565b9050600061271087610160015161ffff16846117ad9190613399565b6117b791906133b8565b9050600061271088610180015161ffff16856117d39190613399565b6117dd91906133b8565b9050876101a001511561190857611886828a6040518061010001604052808c60400151600160a060020a031681526020018c60000151600160a060020a031681526020018c60800151600160a060020a031681526020018c610100015181526020018c610120015181526020018c60e00151600160a060020a031681526020018c60a00151600160a060020a031681526020018c60c00151600160a060020a03168152506124ef565b611903818a6040518060c001604052808c60400151600160a060020a031681526020018c60000151600160a060020a031681526020018c60600151600160a060020a031681526020018c610100015181526020018c60e00151600160a060020a031681526020018c60a00151600160a060020a031681525061277a565b61190f565b8195508094505b808261191b8587613351565b6119259190613351565b61192f9190613351565b96505050505093509350939050565b600080339050600081600160a060020a031663b61bb80a6040518163ffffffff1660e060020a028152600401602060405180830381865afa158015611987573d6000803e3d6000fd5b505050506040513d601f19601f820116820180604052508101906119ab919061331b565b9050600082600160a060020a0316637ff36fbe6040518163ffffffff1660e060020a028152600401602060405180830381865afa1580156119f0573d6000803e3d6000fd5b505050506040513d601f19601f82011682018060405250810190611a14919061331b565b905081600160a060020a031681600160a060020a031614611afb576040805161010081018252878152905160e160020a634ee5a88d028152600160a060020a038481166004830152611afb92916020830191611a7c9190881690639dcb511a906024016111d2565b815260405160e160020a634ee5a88d028152600160a060020a038581166004830152602090920191611aba9190881690639dcb511a906024016111d2565b815260200184600160a060020a0316815260200183600160a060020a03168152602001878152602001611aed8585612817565b815230602090910152611427565b60405160e060020a6370a08231028152306004820152600160a060020a038216906370a0823190602401602060405180830381865afa158015611b42573d6000803e3d6000fd5b505050506040513d601f19601f82011682018060405250810190611b669190613368565b9695505050505050565b604051600160a060020a0383166024820152604481018290526116329084907fa9059cbb00000000000000000000000000000000000000000000000000000000906064016112a9565b60338054600160a060020a0383811673ffffffffffffffffffffffffffffffffffffffff19831681179093556040519116919082907f8be0079c531659141344cd1fd0a4f28419497f9722a3daafe3b4186f6b6457e090600090a35050565b6000808311611c6c5760405160e560020a62461bcd02815260206004820152600760248201527f6e656757616e74000000000000000000000000000000000000000000000000006044820152606401610339565b6000339050600081600160a060020a0316637ff36fbe6040518163ffffffff1660e060020a028152600401602060405180830381865afa158015611cb4573d6000803e3d6000fd5b505050506040513d601f19601f82011682018060405250810190611cd8919061331b565b9050600082600160a060020a031663b61bb80a6040518163ffffffff1660e060020a028152600401602060405180830381865afa158015611d1d573d6000803e3d6000fd5b505050506040513d601f19601f82011682018060405250810190611d41919061331b565b60405160e060020a6370a08231028152306004820152909150600090600160a060020a038416906370a0823190602401602060405180830381865afa158015611d8e573d6000803e3d6000fd5b505050506040513d601f19601f82011682018060405250810190611db29190613368565b905081600160a060020a031683600160a060020a031614611e8b576040805161010081018252828152905160e160020a634ee5a88d028152600160a060020a038581166004830152611e8b92916020830191611e1a9190891690639dcb511a906024016111d2565b815260405160e160020a634ee5a88d028152600160a060020a038681166004830152602090920191611e589190891690639dcb511a906024016111d2565b815260200185600160a060020a0316815260200184600160a060020a03168152602001888152602001611aed8686612817565b60405160e060020a6370a08231028152306004820152600160a060020a038316906370a0823190602401602060405180830381865afa158015611ed2573d6000803e3d6000fd5b505050506040513d601f19601f82011682018060405250810190611ef69190613368565b979650505050505050565b60008082600160a060020a031663313ce5676040518163ffffffff1660e060020a028152600401602060405180830381865afa158015611f45573d6000803e3d6000fd5b505050506040513d601f19601f82011682018060405250810190611f69919061343c565b9050600083600160a060020a031663feaf968c6040518163ffffffff1660e060020a02815260040160a060405180830381865afa158015611fae573d6000803e3d6000fd5b505050506040513d601f19601f82011682018060405250810190611fd291906134a7565b505050915050600081121561202c5760405160e560020a62461bcd02815260206004820152601660248201527f6e656720707269636573206e6f7420616c6c6f776564000000000000000000006044820152606401610339565b61203782600a6135e0565b6120468264e8d4a51000613399565b61205091906133b8565b949350505050565b60006120ad826040518060400160405280602081526020017f5361666545524332303a206c6f772d6c6576656c2063616c6c206661696c656481525085600160a060020a03166129e29092919063ffffffff16565b80519091501561163257808060200190518101906120cb91906135ef565b6116325760405160e560020a62461bcd02815260206004820152602a60248201527f5361666545524332303a204552433230206f7065726174696f6e20646964206e60448201527f6f742073756363656564000000000000000000000000000000000000000000006064820152608401610339565b60008083600160a060020a03166318160ddd6040518163ffffffff1660e060020a028152600401602060405180830381865afa158015612184573d6000803e3d6000fd5b505050506040513d601f19601f820116820180604052508101906121a89190613368565b60405160e060020a6370a08231028152600160a060020a0386811660048301529192506000918716906370a0823190602401602060405180830381865afa1580156121f7573d6000803e3d6000fd5b505050506040513d601f19601f8201168201806040525081019061221b9190613368565b9050612229826103e8613399565b84612234838a613399565b61223e9190613399565b611ef691906133b8565b6040517fdd62ed3e000000000000000000000000000000000000000000000000000000008152306004820152600160a060020a038381166024830152600091839186169063dd62ed3e90604401602060405180830381865afa1580156122b2573d6000803e3d6000fd5b505050506040513d601f19601f820116820180604052508101906122d69190613368565b6122e09190613381565b604051600160a060020a0385166024820152604481018290529091506102da9085907f095ea7b300000000000000000000000000000000000000000000000000000000906064016112a9565b82516002146123805760405160e560020a62461bcd02815260206004820152600b60248201527f696e76616c6964206465630000000000000000000000000000000000000000006044820152606401610339565b600086600081518110612395576123956133dd565b6020026020010151600014806123c55750866001815181106123b9576123b96133dd565b60200260200101516000145b156123de576123d789898789886129fb565b9050612422565b61241f88886000815181106123f5576123f56133dd565b602002602001015189600181518110612410576124106133dd565b60200260200101518988612b02565b90505b6040517f5c11d795000000000000000000000000000000000000000000000000000000008152600160a060020a038a1690635c11d7959061246f908b9085908a908990899060040161360c565b600060405180830381600087803b15801561248957600080fd5b505af115801561249d573d6000803e3d6000fd5b50505050505050505050505050565b600084156120505761ffff821615612050576127106124cf61ffff841687613399565b6124d991906133b8565b9050612050600160a060020a0385168483611b70565b826124f957505050565b60006125118260a00151600160a060020a0316611f01565b90508160200151600160a060020a03168260000151600160a060020a0316146125be576125be60405180610100016040528060028761255091906133b8565b81526020018381526020016125718560c00151600160a060020a0316611f01565b81526020018460000151600160a060020a031681526020018460200151600160a060020a031681526020018581526020018460600151815260200130600160a060020a0316815250611427565b8160400151600160a060020a03168260000151600160a060020a031614612669576126696040518061010001604052806002876125fb91906133b8565b815260200183815260200161261c8560e00151600160a060020a0316611f01565b81526020018460000151600160a060020a031681526020018460400151600160a060020a031681526020018581526020018460800151815260200130600160a060020a0316815250611427565b602082015160405160e060020a6370a08231028152306004820152600091600160a060020a0316906370a0823190602401602060405180830381865afa1580156126b7573d6000803e3d6000fd5b505050506040513d601f19601f820116820180604052508101906126db9190613368565b604080850151905160e060020a6370a08231028152306004820152919250600091600160a060020a03909116906370a0823190602401602060405180830381865afa15801561272e573d6000803e3d6000fd5b505050506040513d601f19601f820116820180604052508101906127529190613368565b602085015160408601516066549293506103a992859085908a90600160a060020a0316611637565b8215611632576116326040518061010001604052808581526020016127ab8460800151600160a060020a0316611f01565b81526020016127c68460a00151600160a060020a0316611f01565b81526020018360000151600160a060020a031681526020018360200151600160a060020a03168152602001848152602001836060015181526020018360400151600160a060020a0316815250611427565b6040517f2337b0b1000000000000000000000000000000000000000000000000000000008152600160a060020a0380841660048301528216602482015260609033906000908290632337b0b190604401602060405180830381865afa158015612884573d6000803e3d6000fd5b505050506040513d601f19601f820116820180604052508101906128a89190613648565b90508061ffff1667ffffffffffffffff8111156128c7576128c7612d31565b6040519080825280602002602001820160405280156128f0578160200160208202803683370190505b50925060005b8161ffff168161ffff1610156129d9576040517f5e835270000000000000000000000000000000000000000000000000000000008152600160a060020a038781166004830152868116602483015261ffff83166044830152841690635e83527090606401602060405180830381865afa158015612977573d6000803e3d6000fd5b505050506040513d601f19601f8201168201806040525081019061299b919061331b565b848261ffff16815181106129b1576129b16133dd565b600160a060020a03909216602092830291909101909101526129d2816133f6565b90506128f6565b50505092915050565b60606129f18484600085612b91565b90505b9392505050565b60008086600160a060020a031663d06ca61f87876040518363ffffffff1660e060020a028152600401612a2f929190613665565b600060405180830381865afa158015612a4c573d6000803e3d6000fd5b505050506040513d6000823e601f3d908101601f19168201604052612a74919081019061367e565b905082600081518110612a8957612a896133dd565b6020026020010151600a612a9d91906135e0565b612aa9906103e8613399565b83600181518110612abc57612abc6133dd565b6020026020010151600a612ad091906135e0565b858360018551612ae09190613351565b81518110612af057612af06133dd565b60200260200101516122349190613399565b600081600081518110612b1757612b176133dd565b6020026020010151600a612b2b91906135e0565b612b37856103e8613399565b612b419190613399565b82600181518110612b5457612b546133dd565b6020026020010151600a612b6891906135e0565b84612b73888a613399565b612b7d9190613399565b612b879190613399565b611b6691906133b8565b60603031831115612c0d5760405160e560020a62461bcd02815260206004820152602660248201527f416464726573733a20696e73756666696369656e742062616c616e636520666f60448201527f722063616c6c00000000000000000000000000000000000000000000000000006064820152608401610339565b600160a060020a0385163b612c675760405160e560020a62461bcd02815260206004820152601d60248201527f416464726573733a2063616c6c20746f206e6f6e2d636f6e74726163740000006044820152606401610339565b60008086600160a060020a03168587604051612c83919061372d565b60006040518083038185875af1925050503d8060008114612cc0576040519150601f19603f3d011682016040523d82523d6000602084013e612cc5565b606091505b5091509150611ef682828660608315612cdf5750816129f4565b825115612cef5782518084602001fd5b8160405160e560020a62461bcd0281526004016103399190613749565b600160a060020a038116811461030957600080fd5b8035612d2c81612d0c565b919050565b60e060020a634e487b7102600052604160045260246000fd5b604051610100810167ffffffffffffffff81118282101715612d6e57612d6e612d31565b60405290565b6040516101c0810167ffffffffffffffff81118282101715612d6e57612d6e612d31565b604051601f8201601f1916810167ffffffffffffffff81118282101715612dc157612dc1612d31565b604052919050565b60008060008084860360e0811215612de057600080fd5b85359450602086013593506040860135612df981612d0c565b92506080605f1982011215612e0d57600080fd5b506040516080810181811067ffffffffffffffff82111715612e3157612e31612d31565b6040526060860135612e4281612d0c565b81526080860135612e5281612d0c565b602082015260a0860135612e6581612d0c565b604082015260c0860135612e7881612d0c565b6060820152939692955090935050565b600067ffffffffffffffff821115612ea257612ea2612d31565b5060209081020190565b600082601f830112612ebd57600080fd5b81356020612ed2612ecd83612e88565b612d98565b82815291810284018101918181019086841115612eee57600080fd5b8286015b84811015612f12578035612f0581612d0c565b8352918301918301612ef2565b509695505050505050565b600060208284031215612f2f57600080fd5b813567ffffffffffffffff80821115612f4757600080fd5b908301906101008286031215612f5c57600080fd5b612f64612d4a565b823581526020830135602082015260408301356040820152612f8860608401612d21565b6060820152612f9960808401612d21565b608082015260a083013560a082015260c083013582811115612fba57600080fd5b612fc687828601612eac565b60c083015250612fd860e08401612d21565b60e082015295945050505050565b600060208284031215612ff857600080fd5b81356129f481612d0c565b60008060008060008060c0878903121561301c57600080fd5b863561302781612d0c565b9550602087013561303781612d0c565b945060408701359350606087013592506080870135915060a087013561305c81612d0c565b809150509295509295509295565b61ffff8116811461030957600080fd5b8035612d2c8161306a565b801515811461030957600080fd5b8035612d2c81613085565b6000806000606084860312156130b357600080fd5b8335925060208401359150604084013567ffffffffffffffff808211156130d957600080fd5b908501906101c082880312156130ee57600080fd5b6130f6612d74565b6130ff83612d21565b815261310d60208401612d21565b602082015261311e60408401612d21565b604082015261312f60608401612d21565b606082015261314060808401612d21565b608082015261315160a08401612d21565b60a082015261316260c08401612d21565b60c082015261317360e08401612d21565b60e0820152610100808401358381111561318c57600080fd5b6131988a828701612eac565b82840152505061012080840135838111156131b257600080fd5b6131be8a828701612eac565b82840152505061014091506131d482840161307a565b8282015261016091506131e882840161307a565b8282015261018091506131fc82840161307a565b828201526101a09150613210828401613093565b828201528093505050509250925092565b60006020828403121561323357600080fd5b813567ffffffffffffffff81111561324a57600080fd5b61205084828501612eac565b600081518084526020808501945080840160005b8381101561328f578151600160a060020a03168752958201959082019060010161326a565b509495945050505050565b6020815260006129f46020830184613256565b6000806000606084860312156132c257600080fd5b833592506020840135915060408401356132db81612d0c565b809150509250925092565b6020808252818101527f4f776e61626c653a2063616c6c6572206973206e6f7420746865206f776e6572604082015260600190565b60006020828403121561332d57600080fd5b81516129f481612d0c565b60e060020a634e487b7102600052601160045260246000fd5b60008282101561336357613363613338565b500390565b60006020828403121561337a57600080fd5b5051919050565b6000821982111561339457613394613338565b500190565b60008160001904831182151516156133b3576133b3613338565b500290565b6000826133d85760e060020a634e487b7102600052601260045260246000fd5b500490565b60e060020a634e487b7102600052603260045260246000fd5b600061ffff8083168181141561340e5761340e613338565b6001019392505050565b6000806040838503121561342b57600080fd5b505080516020909101519092909150565b60006020828403121561344e57600080fd5b815160ff811681146129f457600080fd5b60008060006060848603121561347457600080fd5b8351925060208401519150604084015190509250925092565b805169ffffffffffffffffffff81168114612d2c57600080fd5b600080600080600060a086880312156134bf57600080fd5b6134c88661348d565b94506020860151935060408601519250606086015191506134eb6080870161348d565b90509295509295909350565b600181815b8085111561353457816000190482111561351857613518613338565b8085161561352557918102915b600290940493908002906134fc565b509250929050565b60008261354b575060016135da565b81613558575060006135da565b816001811461356e576002811461357857613595565b60019150506135da565b60ff84111561358957613589613338565b8360020a9150506135da565b5060208310610133831016604e8410600b84101617156135b8575081810a6135da565b6135c283836134f7565b80600019048211156135d6576135d6613338565b0290505b92915050565b60006129f460ff84168361353c565b60006020828403121561360157600080fd5b81516129f481613085565b85815284602082015260a06040820152600061362b60a0830186613256565b600160a060020a0394909416606083015250608001529392505050565b60006020828403121561365a57600080fd5b81516129f48161306a565b8281526040602082015260006129f16040830184613256565b6000602080838503121561369157600080fd5b825167ffffffffffffffff8111156136a857600080fd5b8301601f810185136136b957600080fd5b80516136c7612ecd82612e88565b818152908302820183019083810190878311156136e357600080fd5b928401925b82841015611ef6578351825292840192908401906136e8565b60005b8381101561371c578181015183820152602001613704565b838111156102da5750506000910152565b6000825161373f818460208701613701565b9190910192915050565b6020815260008251806020840152613768816040850160208701613701565b601f01601f1916919091016040019291505056fea2646970667358221220576eb085780e30f4ac673b1c6a2f4ee07d50c0fe5e0c391c675bfa8518c5fb0464736f6c634300080a0033",
  "immutableReferences": {},
  "source": "// SPDX-License-Identifier: MIT\n\npragma solidity ^0.8.0;\n\nimport \"@openzeppelin/contracts-upgradeable/token/ERC20/IERC20Upgradeable.sol\";\n\nimport \"@openzeppelin/contracts-upgradeable/token/ERC20/ERC20Upgradeable.sol\";\n\nimport \"@openzeppelin/contracts-upgradeable/token/ERC20/utils/SafeERC20Upgradeable.sol\";\n\nimport \"../../interfaces/Alpaca/IAlpacaFairLaunch.sol\";\n\nimport \"../../interfaces/Alpaca/IAlpacaVault.sol\";\n\nimport \"../../interfaces/Uniswap/IAMMRouter02.sol\";\n\nimport \"../../interfaces/Zorro/Vaults/IVaultAlpaca.sol\";\n\nimport \"../../interfaces/Zorro/Vaults/Actions/IVaultActionsAlpaca.sol\";\n\nimport \"../../libraries/SafeSwap.sol\";\n\nimport \"../../libraries/PriceFeed.sol\";\n\nimport \"./_VaultActions.sol\";\n\ncontract VaultActionsAlpaca is IVaultActionsAlpaca, VaultActions {\n    /* Libraries */\n\n    using SafeERC20Upgradeable for IERC20Upgradeable;\n    using SafeSwapUni for IAMMRouter02;\n    using PriceFeed for AggregatorV3Interface;\n\n    /* Functions */\n\n    /// @notice Performs necessary operations to convert USD into Want token\n    /// @param _amountUSD The USD quantity to exchange (must already be deposited)\n    /// @param _maxMarketMovementAllowed The max slippage allowed. 1000 = 0 %, 995 = 0.5%, etc.\n    /// @return wantObtained Amount of Want token obtained\n    function _exchangeUSDForWantToken(\n        uint256 _amountUSD,\n        uint256 _maxMarketMovementAllowed\n    ) internal override returns (uint256 wantObtained) {\n        // Prep\n        IVault _vault = IVault(_msgSender());\n        address _stablecoin = _vault.defaultStablecoin();\n        address _token0Address = _vault.token0Address();\n\n        // Swap USD for token0\n        // Single asset. Swap from USD directly to Token0\n        if (_token0Address != _stablecoin) {\n            _safeSwap(\n                SafeSwapUni.SafeSwapParams({\n                    amountIn: _amountUSD,\n                    priceToken0: _vault\n                        .priceFeeds(_stablecoin)\n                        .getExchangeRate(),\n                    priceToken1: _vault\n                        .priceFeeds(_token0Address)\n                        .getExchangeRate(),\n                    token0: _stablecoin,\n                    token1: _token0Address,\n                    maxMarketMovementAllowed: _maxMarketMovementAllowed,\n                    path: _getSwapPath(_stablecoin, _token0Address),\n                    destination: address(this)\n                })\n            );\n        }\n\n        // Get new Token0 balance\n        wantObtained = IERC20Upgradeable(_token0Address).balanceOf(\n            address(this)\n        );\n    }\n\n    /// @notice Converts Want token back into USD to be ready for withdrawal and transfers to sender\n    /// @param _amount The Want token quantity to exchange (must be deposited beforehand)\n    /// @param _maxMarketMovementAllowed The max slippage allowed for swaps. 1000 = 0 %, 995 = 0.5%, etc.\n    /// @return usdObtained Amount of USD token obtained\n    function _exchangeWantTokenForUSD(\n        uint256 _amount,\n        uint256 _maxMarketMovementAllowed\n    ) internal override returns (uint256 usdObtained) {\n        // Preflight checks\n        require(_amount > 0, \"negWant\");\n\n        // Prep\n        IVault _vault = IVault(_msgSender());\n        address _token0Address = _vault.token0Address();\n        address _stablecoin = _vault.defaultStablecoin();\n\n        // Get Token0 balance\n        uint256 _token0Bal = IERC20Upgradeable(_token0Address).balanceOf(\n            address(this)\n        );\n\n        // Swap Token0 -> USD\n        if (_token0Address != _stablecoin) {\n            _safeSwap(\n                SafeSwapUni.SafeSwapParams({\n                    amountIn: _token0Bal,\n                    priceToken0: _vault\n                        .priceFeeds(_token0Address)\n                        .getExchangeRate(),\n                    priceToken1: _vault\n                        .priceFeeds(_stablecoin)\n                        .getExchangeRate(),\n                    token0: _token0Address,\n                    token1: _stablecoin,\n                    maxMarketMovementAllowed: _maxMarketMovementAllowed,\n                    path: _getSwapPath(_token0Address, _stablecoin),\n                    destination: address(this)\n                })\n            );\n        }\n\n        // Calculate USD balance\n        usdObtained = IERC20Upgradeable(_stablecoin).balanceOf(address(this));\n    }\n\n    /// @notice Measures the current (unrealized) position value (measured in Want token) of the provided vault\n    /// @param _vaultAddr The vault address\n    /// @return positionVal Position value, in units of Want token\n    function currentWantEquity(address _vaultAddr)\n        public\n        view\n        override(IVaultActions, VaultActions)\n        returns (uint256 positionVal)\n    {\n        // Prep\n        IVaultAlpaca _vault = IVaultAlpaca(_vaultAddr);\n        address _token0 = _vault.token0Address(); // Underlying token\n        address _iToken = _vault.wantAddress(); // Amount of LP token (e.g. iBNB)\n        address _alpaca = _vault.earnedAddress(); // Amount of farm token (ALPACA)\n        AggregatorV3Interface _token0PriceFeed = _vault.priceFeeds(_token0);\n\n        // Get balance of underlying (want)\n        uint256 _balToken0 = IERC20Upgradeable(_token0).balanceOf(_vaultAddr);\n\n        // Get balance of LP token\n        uint256 _balIToken = IERC20Upgradeable(_iToken).balanceOf(_vaultAddr);\n\n        // Express balance of LP token in Want token units\n        uint256 _balITokenToken0 = _balIToken * IERC20Upgradeable(_token0).balanceOf(_iToken) / IERC20Upgradeable(_iToken).totalSupply();\n\n        // Get pending Earn\n        uint256 _pendingAlpaca = IFairLaunch(_vault.farmContractAddress()).pendingAlpaca(_vault.pid(), _vaultAddr);\n\n        // Express Earn token quantity in Want token units\n        uint256 _pendingAlpacaToken0 = _pendingAlpaca * _vault.priceFeeds(_alpaca).getExchangeRate() / _token0PriceFeed.getExchangeRate();\n\n        // Sum up equities\n        positionVal = _balToken0 + _balITokenToken0 + _pendingAlpacaToken0;\n    }\n}\n",
  "sourcePath": "/Users/kristophm/Documents/workspace/zorro-protocol/contracts/vaults/actions/VaultActionsAlpaca.sol",
  "compiler": {
    "name": "solc",
    "version": "0.8.10+commit.fc410830.Emscripten.clang"
  },
  "schemaVersion": "3.4.11",
  "updatedAt": "2023-03-09T16:35:32.277Z",
  "networkType": "ethereum",
  "devdoc": {
    "kind": "dev",
    "methods": {
      "currentWantEquity(address)": {
        "params": {
          "_vaultAddr": "The vault address"
        },
        "returns": {
          "positionVal": "Position value, in units of Want token"
        }
      },
      "distributeAndReinvestEarnings(uint256,uint256,(address,address,address,address,address,address,address,address,address[],address[],uint16,uint16,uint16,bool))": {
        "details": "To be run by Vault's earn() func after earnings have been unfarmed",
        "params": {
          "_amount": "Amount of Want token to distribute",
          "_maxMarketMovementAllowed": "Slippage (990 = 1%)",
          "_params": "A DistributeEarningsParams struct"
        },
        "returns": {
          "wantRemaining": "Remaining Want token after distribution (will be sent back to sender)",
          "xChainBuybackAmt": "Amount of Want token reserved for cross chain buyback, if applicable",
          "xChainRevShareAmt": "Amount of Want token reserved for cross chain revshare, if applicable"
        }
      },
      "exchangeUSDForWantToken(uint256,uint256,address)": {
        "params": {
          "_amountUSD": "The USD quantity to exchange (must already be deposited)",
          "_destination": "Where to send want token to",
          "_maxMarketMovementAllowed": "The max slippage allowed. 1000 = 0 %, 995 = 0.5%, etc."
        },
        "returns": {
          "wantObtained": "Amount of Want token obtained and transferred to sender"
        }
      },
      "exchangeWantTokenForUSD(uint256,uint256,address)": {
        "params": {
          "_amount": "The Want token quantity to exchange (must be deposited beforehand)",
          "_destination": "Where to send converted USD to",
          "_maxMarketMovementAllowed": "The max slippage allowed for swaps. 1000 = 0 %, 995 = 0.5%, etc."
        },
        "returns": {
          "usdObtained": "Amount of USD token obtained and transferred to sender"
        }
      },
      "exitPool(uint256,uint256,address,(address,address,address,address))": {
        "details": "NOTE: Requires caller to approve want token spending",
        "params": {
          "_amountLP": "The amount of LP (Want) tokens to remove",
          "_maxMarketMovementAllowed": "The max slippage allowed for swaps. 1000 = 0 %, 995 = 0.5%, etc.",
          "_recipient": "The recipient of the underlying tokens at pool exit"
        }
      },
      "initialize(address)": {
        "params": {
          "_uniRouterAddress": "Address of Uniswap style router"
        }
      },
      "joinPool(address,address,uint256,uint256,uint256,address)": {
        "details": "NOTE: Requires spending approval by caller",
        "params": {
          "_maxMarketMovementAllowed": "The max slippage allowed for swaps. 1000 = 0 %, 995 = 0.5%, etc.",
          "_recipient": "The recipient of the LP token",
          "_token0": "The address of Token0",
          "_token0Amt": "Quantity of Token0 to add",
          "_token1": "The address of Token1",
          "_token1Amt": "Quantity of Token1 to add"
        }
      },
      "owner()": {
        "details": "Returns the address of the current owner."
      },
      "renounceOwnership()": {
        "details": "Leaves the contract without owner. It will not be possible to call `onlyOwner` functions anymore. Can only be called by the current owner. NOTE: Renouncing ownership will leave the contract without an owner, thereby removing any functionality that is only available to the owner."
      },
      "reversePath(address[])": {
        "params": {
          "_path": "The swap path to be reversed"
        },
        "returns": {
          "newPath": "An reversed path array"
        }
      },
      "safeSwap((uint256,uint256,uint256,address,address,uint256,address[],address))": {
        "details": "NOTE: Caller must approve tokens for spending beforehand",
        "params": {
          "_swapParams": "SafeSwapParams for swap"
        }
      },
      "transferOwnership(address)": {
        "details": "Transfers ownership of the contract to a new account (`newOwner`). Can only be called by the current owner."
      },
      "unrealizedProfits(address)": {
        "params": {
          "_vaultAddr": "The vault address"
        },
        "returns": {
          "accumulatedProfit": "Amount of unrealized profit accumulated on the vault (not accounting for past harvests)",
          "harvestableProfit": "Amount of immediately harvestable profits"
        }
      }
    },
    "version": 1
  },
  "userdoc": {
    "kind": "user",
    "methods": {
      "currentWantEquity(address)": {
        "notice": "Measures the current (unrealized) position value (measured in Want token) of the provided vault"
      },
      "distributeAndReinvestEarnings(uint256,uint256,(address,address,address,address,address,address,address,address,address[],address[],uint16,uint16,uint16,bool))": {
        "notice": "Distributes earnings (in the form of Want token) and reinvests remainder into Want token"
      },
      "exchangeUSDForWantToken(uint256,uint256,address)": {
        "notice": "Performs necessary operations to convert USD into Want token"
      },
      "exchangeWantTokenForUSD(uint256,uint256,address)": {
        "notice": "Converts Want token back into USD to be ready for withdrawal and transfers to sender"
      },
      "exitPool(uint256,uint256,address,(address,address,address,address))": {
        "notice": "Removes liquidity from a pool and sends tokens back to this address"
      },
      "initialize(address)": {
        "notice": "Constructor"
      },
      "joinPool(address,address,uint256,uint256,uint256,address)": {
        "notice": "Adds liquidity to the pool of this contract"
      },
      "reversePath(address[])": {
        "notice": "Gets the swap path in the opposite direction of a trade"
      },
      "safeSwap((uint256,uint256,uint256,address,address,uint256,address[],address))": {
        "notice": "Safely swaps tokens using the most suitable protocol based on token"
      },
      "unrealizedProfits(address)": {
        "notice": "Calculates accumulated unrealized profits on a vault"
      }
    },
    "version": 1
  }
}