{
  "contractName": "VaultActionsStandardAMM",
  "abi": [
    {
      "anonymous": false,
      "inputs": [
        {
          "indexed": true,
          "internalType": "uint256",
          "name": "wantRemaining",
          "type": "uint256"
        },
        {
          "indexed": true,
          "internalType": "uint256",
          "name": "xChainBuybackAmt",
          "type": "uint256"
        },
        {
          "indexed": true,
          "internalType": "uint256",
          "name": "xChainRevShareAmt",
          "type": "uint256"
        }
      ],
      "name": "DistributedEarnings",
      "type": "event"
    },
    {
      "anonymous": false,
      "inputs": [
        {
          "indexed": true,
          "internalType": "address",
          "name": "previousOwner",
          "type": "address"
        },
        {
          "indexed": true,
          "internalType": "address",
          "name": "newOwner",
          "type": "address"
        }
      ],
      "name": "OwnershipTransferred",
      "type": "event"
    },
    {
      "inputs": [],
      "name": "burnAddress",
      "outputs": [
        {
          "internalType": "address",
          "name": "",
          "type": "address"
        }
      ],
      "stateMutability": "view",
      "type": "function",
      "constant": true
    },
    {
      "inputs": [
        {
          "internalType": "uint256",
          "name": "_amount",
          "type": "uint256"
        },
        {
          "internalType": "uint256",
          "name": "_maxMarketMovementAllowed",
          "type": "uint256"
        },
        {
          "components": [
            {
              "internalType": "address",
              "name": "ZORROAddress",
              "type": "address"
            },
            {
              "internalType": "address",
              "name": "treasury",
              "type": "address"
            },
            {
              "internalType": "address",
              "name": "stablecoin",
              "type": "address"
            },
            {
              "internalType": "address",
              "name": "zorroStakingVault",
              "type": "address"
            },
            {
              "internalType": "address",
              "name": "zorroLPPoolOtherToken",
              "type": "address"
            },
            {
              "internalType": "contract AggregatorV3Interface",
              "name": "ZORPriceFeed",
              "type": "address"
            },
            {
              "internalType": "contract AggregatorV3Interface",
              "name": "lpPoolOtherTokenPriceFeed",
              "type": "address"
            },
            {
              "internalType": "contract AggregatorV3Interface",
              "name": "stablecoinPriceFeed",
              "type": "address"
            },
            {
              "internalType": "address[]",
              "name": "stablecoinToZORROPath",
              "type": "address[]"
            },
            {
              "internalType": "address[]",
              "name": "stablecoinToZORLPPoolOtherTokenPath",
              "type": "address[]"
            },
            {
              "internalType": "uint16",
              "name": "controllerFeeBP",
              "type": "uint16"
            },
            {
              "internalType": "uint16",
              "name": "buybackBP",
              "type": "uint16"
            },
            {
              "internalType": "uint16",
              "name": "revShareBP",
              "type": "uint16"
            },
            {
              "internalType": "bool",
              "name": "isHomeChain",
              "type": "bool"
            }
          ],
          "internalType": "struct IVaultActions.DistributeEarningsParams",
          "name": "_params",
          "type": "tuple"
        }
      ],
      "name": "distributeAndReinvestEarnings",
      "outputs": [
        {
          "internalType": "uint256",
          "name": "wantRemaining",
          "type": "uint256"
        },
        {
          "internalType": "uint256",
          "name": "xChainBuybackAmt",
          "type": "uint256"
        },
        {
          "internalType": "uint256",
          "name": "xChainRevShareAmt",
          "type": "uint256"
        }
      ],
      "stateMutability": "nonpayable",
      "type": "function"
    },
    {
      "inputs": [
        {
          "internalType": "uint256",
          "name": "_amountUSD",
          "type": "uint256"
        },
        {
          "internalType": "uint256",
          "name": "_maxMarketMovementAllowed",
          "type": "uint256"
        },
        {
          "internalType": "address",
          "name": "_destination",
          "type": "address"
        }
      ],
      "name": "exchangeUSDForWantToken",
      "outputs": [
        {
          "internalType": "uint256",
          "name": "wantObtained",
          "type": "uint256"
        }
      ],
      "stateMutability": "nonpayable",
      "type": "function"
    },
    {
      "inputs": [
        {
          "internalType": "uint256",
          "name": "_amount",
          "type": "uint256"
        },
        {
          "internalType": "uint256",
          "name": "_maxMarketMovementAllowed",
          "type": "uint256"
        },
        {
          "internalType": "address",
          "name": "_destination",
          "type": "address"
        }
      ],
      "name": "exchangeWantTokenForUSD",
      "outputs": [
        {
          "internalType": "uint256",
          "name": "usdObtained",
          "type": "uint256"
        }
      ],
      "stateMutability": "nonpayable",
      "type": "function"
    },
    {
      "inputs": [
        {
          "internalType": "uint256",
          "name": "_amountLP",
          "type": "uint256"
        },
        {
          "internalType": "uint256",
          "name": "_maxMarketMovementAllowed",
          "type": "uint256"
        },
        {
          "internalType": "address",
          "name": "_recipient",
          "type": "address"
        },
        {
          "components": [
            {
              "internalType": "address",
              "name": "token0",
              "type": "address"
            },
            {
              "internalType": "address",
              "name": "token1",
              "type": "address"
            },
            {
              "internalType": "address",
              "name": "poolAddress",
              "type": "address"
            },
            {
              "internalType": "address",
              "name": "lpTokenAddress",
              "type": "address"
            }
          ],
          "internalType": "struct IVaultActions.ExitPoolParams",
          "name": "_exitPoolParams",
          "type": "tuple"
        }
      ],
      "name": "exitPool",
      "outputs": [],
      "stateMutability": "nonpayable",
      "type": "function"
    },
    {
      "inputs": [
        {
          "internalType": "address",
          "name": "_uniRouterAddress",
          "type": "address"
        },
        {
          "internalType": "address",
          "name": "_owner",
          "type": "address"
        }
      ],
      "name": "initialize",
      "outputs": [],
      "stateMutability": "nonpayable",
      "type": "function"
    },
    {
      "inputs": [
        {
          "internalType": "address",
          "name": "_token0",
          "type": "address"
        },
        {
          "internalType": "address",
          "name": "_token1",
          "type": "address"
        },
        {
          "internalType": "uint256",
          "name": "_token0Amt",
          "type": "uint256"
        },
        {
          "internalType": "uint256",
          "name": "_token1Amt",
          "type": "uint256"
        },
        {
          "internalType": "uint256",
          "name": "_maxMarketMovementAllowed",
          "type": "uint256"
        },
        {
          "internalType": "address",
          "name": "_recipient",
          "type": "address"
        }
      ],
      "name": "joinPool",
      "outputs": [],
      "stateMutability": "nonpayable",
      "type": "function"
    },
    {
      "inputs": [],
      "name": "owner",
      "outputs": [
        {
          "internalType": "address",
          "name": "",
          "type": "address"
        }
      ],
      "stateMutability": "view",
      "type": "function",
      "constant": true
    },
    {
      "inputs": [],
      "name": "renounceOwnership",
      "outputs": [],
      "stateMutability": "nonpayable",
      "type": "function"
    },
    {
      "inputs": [
        {
          "internalType": "address[]",
          "name": "_path",
          "type": "address[]"
        }
      ],
      "name": "reversePath",
      "outputs": [
        {
          "internalType": "address[]",
          "name": "newPath",
          "type": "address[]"
        }
      ],
      "stateMutability": "pure",
      "type": "function",
      "constant": true
    },
    {
      "inputs": [
        {
          "components": [
            {
              "internalType": "uint256",
              "name": "amountIn",
              "type": "uint256"
            },
            {
              "internalType": "uint256",
              "name": "priceToken0",
              "type": "uint256"
            },
            {
              "internalType": "uint256",
              "name": "priceToken1",
              "type": "uint256"
            },
            {
              "internalType": "address",
              "name": "token0",
              "type": "address"
            },
            {
              "internalType": "address",
              "name": "token1",
              "type": "address"
            },
            {
              "internalType": "uint256",
              "name": "maxMarketMovementAllowed",
              "type": "uint256"
            },
            {
              "internalType": "address[]",
              "name": "path",
              "type": "address[]"
            },
            {
              "internalType": "address",
              "name": "destination",
              "type": "address"
            }
          ],
          "internalType": "struct SafeSwapUni.SafeSwapParams",
          "name": "_swapParams",
          "type": "tuple"
        }
      ],
      "name": "safeSwap",
      "outputs": [],
      "stateMutability": "nonpayable",
      "type": "function"
    },
    {
      "inputs": [
        {
          "internalType": "address",
          "name": "_burnAddress",
          "type": "address"
        }
      ],
      "name": "setBurnAddress",
      "outputs": [],
      "stateMutability": "nonpayable",
      "type": "function"
    },
    {
      "inputs": [
        {
          "internalType": "address",
          "name": "_uniRouterAddress",
          "type": "address"
        }
      ],
      "name": "setUniRouterAddress",
      "outputs": [],
      "stateMutability": "nonpayable",
      "type": "function"
    },
    {
      "inputs": [
        {
          "internalType": "address",
          "name": "newOwner",
          "type": "address"
        }
      ],
      "name": "transferOwnership",
      "outputs": [],
      "stateMutability": "nonpayable",
      "type": "function"
    },
    {
      "inputs": [],
      "name": "uniRouterAddress",
      "outputs": [
        {
          "internalType": "address",
          "name": "",
          "type": "address"
        }
      ],
      "stateMutability": "view",
      "type": "function",
      "constant": true
    },
    {
      "inputs": [
        {
          "internalType": "address",
          "name": "_vaultAddr",
          "type": "address"
        }
      ],
      "name": "unrealizedProfits",
      "outputs": [
        {
          "internalType": "uint256",
          "name": "accumulatedProfit",
          "type": "uint256"
        },
        {
          "internalType": "uint256",
          "name": "harvestableProfit",
          "type": "uint256"
        }
      ],
      "stateMutability": "view",
      "type": "function",
      "constant": true
    },
    {
      "inputs": [
        {
          "internalType": "address",
          "name": "_vaultAddr",
          "type": "address"
        }
      ],
      "name": "currentWantEquity",
      "outputs": [
        {
          "internalType": "uint256",
          "name": "positionVal",
          "type": "uint256"
        }
      ],
      "stateMutability": "view",
      "type": "function",
      "constant": true
    }
  ],
  "bytecode": "0x608060405234801561001057600080fd5b50613d5b806100206000396000f3fe608060405234801561001057600080fd5b506004361061010f5760003560e060020a9004806370d5ae05116100a6578063a0e16faf11610075578063a0e16faf14610232578063c80ef8db1461025a578063ca9730e61461027b578063f2fde38b1461028e578063f55850b4146102a157600080fd5b806370d5ae05146101e6578063715018a6146101f95780638b4c5aee146102015780638da5cb5b1461022157600080fd5b806358f5ab9f116100e257806358f5ab9f146101625780635da79d6314610175578063693a090b146101885780636945292a146101b857600080fd5b80630c70c2811461011457806312ad7eba14610129578063485cc9551461013c5780634b0e72161461014f575b600080fd5b610127610122366004613339565b6102b4565b005b61012761013736600461348d565b6102e0565b61012761014a366004613556565b61030c565b61012761015d36600461358f565b61041f565b6101276101703660046135ac565b61047b565b61012761018336600461358f565b6104bb565b60655461019b90600160a060020a031681565b604051600160a060020a0390911681526020015b60405180910390f35b6101cb6101c6366004613647565b610517565b604080519384526020840192909252908201526060016101af565b60665461019b90600160a060020a031681565b610127610735565b61021461020f3660046137ca565b61076e565b6040516101af9190613843565b603354600160a060020a031661019b565b61024561024036600461358f565b610842565b604080519283526020830191909152016101af565b61026d610268366004613856565b6109ba565b6040519081526020016101af565b61026d610289366004613856565b610b1e565b61012761029c36600461358f565b610c10565b61026d6102af36600461358f565b610cc5565b60608101516102ce90600160a060020a03163330876112ee565b6102da8484848461139f565b50505050565b8051606082015161030091600160a060020a0390911690339030906112ee565b610309816114b9565b50565b600054610100900460ff166103275760005460ff161561032b565b303b155b6103a55760405160e560020a62461bcd02815260206004820152602e60248201527f496e697469616c697a61626c653a20636f6e747261637420697320616c72656160448201527f647920696e697469616c697a656400000000000000000000000000000000000060648201526084015b60405180910390fd5b600054610100900460ff161580156103c7576000805461ffff19166101011790555b60658054600160a060020a03851673ffffffffffffffffffffffffffffffffffffffff19918216179091556066805490911661dead179055610408826116c4565b801561041a576000805461ff00191690555b505050565b603354600160a060020a0316331461044c5760405160e560020a62461bcd02815260040161039c9061388f565b6066805473ffffffffffffffffffffffffffffffffffffffff1916600160a060020a0392909216919091179055565b610490600160a060020a0387163330876112ee565b6104a5600160a060020a0386163330866112ee565b6104b3868686868686611723565b505050505050565b603354600160a060020a031633146104e85760405160e560020a62461bcd02815260040161039c9061388f565b6065805473ffffffffffffffffffffffffffffffffffffffff1916600160a060020a0392909216919091179055565b600080808033600160a060020a031663e7a036796040518163ffffffff1660e060020a028152600401602060405180830381865afa15801561055d573d6000803e3d6000fd5b505050506040513d601f19601f8201168201806040525081019061058191906138c4565b9050600033600160a060020a031663b61bb80a6040518163ffffffff1660e060020a028152600401602060405180830381865afa1580156105c6573d6000803e3d6000fd5b505050506040513d601f19601f820116820180604052508101906105ea91906138c4565b9050610601600160a060020a03831633308b6112ee565b600061060e898989611850565b909650945090506106338461062387846138fa565b61062d91906138fa565b89611a2a565b9550610649600160a060020a0384163388611f13565b60405160e060020a6370a08231028152306004820152600090600160a060020a038416906370a0823190602401602060405180830381865afa158015610693573d6000803e3d6000fd5b505050506040513d601f19601f820116820180604052508101906106b79190613911565b90506106c3858761392a565b6106cd8288613942565b6106d79190613961565b95506106e386826138fa565b94506106f9600160a060020a0385163383611f13565b8486887f7b5c55b851dd95ef2956a0907221248d9f0d535431943b759d0bca1f0125520060405160405180910390a45050505093509350939050565b603354600160a060020a031633146107625760405160e560020a62461bcd02815260040161039c9061388f565b61076c60006116c4565b565b80516060908067ffffffffffffffff81111561078c5761078c6132a1565b6040519080825280602002602001820160405280156107b5578160200160208202803683370190505b50915060005b818161ffff16101561083b57838161ffff16600186516107db91906138fa565b6107e591906138fa565b815181106107f5576107f5613986565b6020026020010151838261ffff168151811061081357610813613986565b600160a060020a03909216602092830291909101909101526108348161399f565b90506107bb565b5050919050565b600080600083600160a060020a0316637a8d130f6040518163ffffffff1660e060020a028152600401602060405180830381865afa158015610888573d6000803e3d6000fd5b505050506040513d601f19601f820116820180604052508101906108ac9190613911565b6040517ff55850b4000000000000000000000000000000000000000000000000000000008152600160a060020a03861660048201529091508190309063f55850b490602401602060405180830381865afa15801561090e573d6000803e3d6000fd5b505050506040513d601f19601f820116820180604052508101906109329190613911565b61093c91906138fa565b9250600084600160a060020a031663c86274566040518163ffffffff1660e060020a028152600401602060405180830381865afa158015610981573d6000803e3d6000fd5b505050506040513d601f19601f820116820180604052508101906109a59190613911565b90506109b181856138fa565b92505050915091565b6000808411610a0e5760405160e560020a62461bcd02815260206004820152600760248201527f6e656757616e7400000000000000000000000000000000000000000000000000604482015260640161039c565b600033600160a060020a031663e7a036796040518163ffffffff1660e060020a028152600401602060405180830381865afa158015610a51573d6000803e3d6000fd5b505050506040513d601f19601f82011682018060405250810190610a7591906138c4565b9050600033600160a060020a031663b61bb80a6040518163ffffffff1660e060020a028152600401602060405180830381865afa158015610aba573d6000803e3d6000fd5b505050506040513d601f19601f82011682018060405250810190610ade91906138c4565b9050610af5600160a060020a0383163330896112ee565b610aff8686611f5c565b9250610b15600160a060020a0382168585611f13565b50509392505050565b60008033600160a060020a031663b61bb80a6040518163ffffffff1660e060020a028152600401602060405180830381865afa158015610b62573d6000803e3d6000fd5b505050506040513d601f19601f82011682018060405250810190610b8691906138c4565b9050600033600160a060020a031663e7a036796040518163ffffffff1660e060020a028152600401602060405180830381865afa158015610bcb573d6000803e3d6000fd5b505050506040513d601f19601f82011682018060405250810190610bef91906138c4565b9050610c06600160a060020a0383163330896112ee565b610aff8686611a2a565b603354600160a060020a03163314610c3d5760405160e560020a62461bcd02815260040161039c9061388f565b600160a060020a038116610cbc5760405160e560020a62461bcd02815260206004820152602660248201527f4f776e61626c653a206e6577206f776e657220697320746865207a65726f206160448201527f6464726573730000000000000000000000000000000000000000000000000000606482015260840161039c565b610309816116c4565b600080829050600081600160a060020a031663e7a036796040518163ffffffff1660e060020a028152600401602060405180830381865afa158015610d0e573d6000803e3d6000fd5b505050506040513d601f19601f82011682018060405250810190610d3291906138c4565b9050600082600160a060020a0316637ff36fbe6040518163ffffffff1660e060020a028152600401602060405180830381865afa158015610d77573d6000803e3d6000fd5b505050506040513d601f19601f82011682018060405250810190610d9b91906138c4565b905060008084600160a060020a03166337f0aa4e6040518163ffffffff1660e060020a028152600401602060405180830381865afa158015610de1573d6000803e3d6000fd5b505050506040513d601f19601f82011682018060405250810190610e0591906139c1565b156112d957600085600160a060020a0316639fc33a9f6040518163ffffffff1660e060020a028152600401602060405180830381865afa158015610e4d573d6000803e3d6000fd5b505050506040513d601f19601f82011682018060405250810190610e7191906138c4565b600160a060020a03166393f1a40b87600160a060020a031663f10684546040518163ffffffff1660e060020a028152600401602060405180830381865afa158015610ec0573d6000803e3d6000fd5b505050506040513d601f19601f82011682018060405250810190610ee49190613911565b60405160e060020a63ffffffff84160281526004810191909152600160a060020a038b1660248201526044016040805180830381865afa158015610f2c573d6000803e3d6000fd5b505050506040513d601f19601f82011682018060405250810190610f5091906139de565b50905084600160a060020a03166318160ddd6040518163ffffffff1660e060020a028152600401602060405180830381865afa158015610f94573d6000803e3d6000fd5b505050506040513d601f19601f82011682018060405250810190610fb89190613911565b60405160e060020a6370a08231028152600160a060020a0387811660048301528616906370a0823190602401602060405180830381865afa158015611001573d6000803e3d6000fd5b505050506040513d601f19601f820116820180604052508101906110259190613911565b61102f9083613942565b6110399190613961565b9250600088600160a060020a0316636b3071256040518163ffffffff1660e060020a028152600401602060405180830381865afa15801561107e573d6000803e3d6000fd5b505050506040513d601f19601f820116820180604052508101906110a29190613911565b60405160e160020a634ee5a88d028152600160a060020a03878116600483015291925060009161112991908a1690639dcb511a906024015b602060405180830381865afa1580156110f7573d6000803e3d6000fd5b505050506040513d601f19601f8201168201806040525081019061111b91906138c4565b600160a060020a0316612467565b611134906002613942565b6111d589600160a060020a0316639dcb511a8b600160a060020a031663e71984746040518163ffffffff1660e060020a028152600401602060405180830381865afa158015611187573d6000803e3d6000fd5b505050506040513d601f19601f820116820180604052508101906111ab91906138c4565b60405160e060020a63ffffffff8416028152600160a060020a0390911660048201526024016110da565b6111df9084613942565b6111e99190613961565b60405160e060020a6370a08231028152600160a060020a038981166004830152919250908716906370a0823190602401602060405180830381865afa158015611236573d6000803e3d6000fd5b505050506040513d601f19601f8201168201806040525081019061125a9190613911565b87600160a060020a03166318160ddd6040518163ffffffff1660e060020a028152600401602060405180830381865afa15801561129b573d6000803e3d6000fd5b505050506040513d601f19601f820116820180604052508101906112bf9190613911565b6112c99083613942565b6112d39190613961565b93505050505b6112e3818361392a565b979650505050505050565b604051600160a060020a03808516602483015283166044820152606481018290526102da9085907f23b872dd00000000000000000000000000000000000000000000000000000000906084015b60408051601f198184030181529190526020810180517bffffffffffffffffffffffffffffffffffffffffffffffffffffffff167fffffffff00000000000000000000000000000000000000000000000000000000909316929092179091526125be565b6000806113b68684600001518560400151886126a6565b91506113cc8684602001518560400151886126a6565b60655460608501519192506113ee91600160a060020a039081169116886127ae565b60655483516020850151600160a060020a039092169163baa2abde91908986868a61141b4261025861392a565b60405163ffffffff891660e060020a028152600160a060020a039788166004820152958716602487015260448601949094526064850192909252608484015290921660a482015260c481019190915260e40160408051808303816000875af115801561148b573d6000803e3d6000fd5b505050506040513d601f19601f820116820180604052508101906114af91906139de565b5050505050505050565b606554815160608301516114db92600160a060020a03918216929116906127ae565b6040805160028082526060820183526000926020830190803683370190505090508160600151600160a060020a031663313ce5676040518163ffffffff1660e060020a028152600401602060405180830381865afa158015611541573d6000803e3d6000fd5b505050506040513d601f19601f820116820180604052508101906115659190613a02565b8160008151811061157857611578613986565b602002602001019060ff16908160ff16815250508160800151600160a060020a031663313ce5676040518163ffffffff1660e060020a028152600401602060405180830381865afa1580156115d1573d6000803e3d6000fd5b505050506040513d601f19601f820116820180604052508101906115f59190613a02565b8160018151811061160857611608613986565b60ff92909216602092830291909101820152604080516002808252606082018352600093919290918301908036833701905050905082602001518160008151811061165557611655613986565b60200260200101818152505082604001518160018151811061167957611679613986565b60200260200101818152505061041a8360000151828560a001518660c00151868860e00151426102586116ac919061392a565b606554600160a060020a031696959493929190612892565b60338054600160a060020a0383811673ffffffffffffffffffffffffffffffffffffffff19831681179093556040519116919082907f8be0079c531659141344cd1fd0a4f28419497f9722a3daafe3b4186f6b6457e090600090a35050565b60655461173d90600160a060020a038881169116866127ae565b60655461175790600160a060020a038781169116856127ae565b606554600160a060020a031663e8e33700878787876103e86117798984613942565b6117839190613961565b6103e86117908a8c613942565b61179a9190613961565b886117a74261025861392a565b60405163ffffffff8a1660e060020a028152600160a060020a039889166004820152968816602488015260448701959095526064860193909352608485019190915260a484015290921660c482015260e4810191909152610104016060604051808303816000875af1158015611821573d6000803e3d6000fd5b505050506040513d601f19601f820116820180604052508101906118459190613a25565b505050505050505050565b6000806000806118608787611f5c565b9050600061187d8887604001518860200151896101400151612a12565b9050600061271087610160015161ffff16846118999190613942565b6118a39190613961565b9050600061271088610180015161ffff16856118bf9190613942565b6118c99190613961565b9050876101a00151156119f457611972828a6040518061010001604052808c60400151600160a060020a031681526020018c60000151600160a060020a031681526020018c60800151600160a060020a031681526020018c610100015181526020018c610120015181526020018c60e00151600160a060020a031681526020018c60a00151600160a060020a031681526020018c60c00151600160a060020a0316815250612a55565b6119ef818a6040518060c001604052808c60400151600160a060020a031681526020018c60000151600160a060020a031681526020018c60600151600160a060020a031681526020018c610100015181526020018c60e00151600160a060020a031681526020018c60a00151600160a060020a0316815250612ce0565b6119fb565b8195508094505b8082611a0785876138fa565b611a1191906138fa565b611a1b91906138fa565b96505050505093509350939050565b600080339050600081600160a060020a031663b61bb80a6040518163ffffffff1660e060020a028152600401602060405180830381865afa158015611a73573d6000803e3d6000fd5b505050506040513d601f19601f82011682018060405250810190611a9791906138c4565b9050600082600160a060020a0316637ff36fbe6040518163ffffffff1660e060020a028152600401602060405180830381865afa158015611adc573d6000803e3d6000fd5b505050506040513d601f19601f82011682018060405250810190611b0091906138c4565b9050600083600160a060020a031663d7cb416f6040518163ffffffff1660e060020a028152600401602060405180830381865afa158015611b45573d6000803e3d6000fd5b505050506040513d601f19601f82011682018060405250810190611b6991906138c4565b9050600084600160a060020a031663e7a036796040518163ffffffff1660e060020a028152600401602060405180830381865afa158015611bae573d6000803e3d6000fd5b505050506040513d601f19601f82011682018060405250810190611bd291906138c4565b905083600160a060020a031683600160a060020a031614611cc657611cc660405180610100016040528060028b611c099190613961565b815260405160e160020a634ee5a88d028152600160a060020a038881166004830152602090920191611c4791908a1690639dcb511a906024016110da565b815260405160e160020a634ee5a88d028152600160a060020a038781166004830152602090920191611c8591908a1690639dcb511a906024016110da565b815260200186600160a060020a0316815260200185600160a060020a03168152602001898152602001611cb88787612d7d565b8152306020909101526114b9565b83600160a060020a031682600160a060020a031614611daa57611daa60405180610100016040528060028b611cfb9190613961565b815260405160e160020a634ee5a88d028152600160a060020a038881166004830152602090920191611d3991908a1690639dcb511a906024016110da565b815260405160e160020a634ee5a88d028152600160a060020a038681166004830152602090920191611d7791908a1690639dcb511a906024016110da565b815260200186600160a060020a0316815260200184600160a060020a03168152602001898152602001611cb88786612d7d565b60405160e060020a6370a08231028152306004820152600090600160a060020a038516906370a0823190602401602060405180830381865afa158015611df4573d6000803e3d6000fd5b505050506040513d601f19601f82011682018060405250810190611e189190613911565b60405160e060020a6370a08231028152306004820152909150600090600160a060020a038516906370a0823190602401602060405180830381865afa158015611e65573d6000803e3d6000fd5b505050506040513d601f19601f82011682018060405250810190611e899190613911565b9050611e99858584848d30611723565b60405160e060020a6370a08231028152306004820152600160a060020a038416906370a08231906024015b602060405180830381865afa158015611ee1573d6000803e3d6000fd5b505050506040513d601f19601f82011682018060405250810190611f059190613911565b9a9950505050505050505050565b604051600160a060020a03831660248201526044810182905261041a9084907fa9059cbb000000000000000000000000000000000000000000000000000000009060640161133b565b6000808311611fb05760405160e560020a62461bcd02815260206004820152600760248201527f6e656757616e7400000000000000000000000000000000000000000000000000604482015260640161039c565b6000339050600081600160a060020a031663b61bb80a6040518163ffffffff1660e060020a028152600401602060405180830381865afa158015611ff8573d6000803e3d6000fd5b505050506040513d601f19601f8201168201806040525081019061201c91906138c4565b9050600082600160a060020a0316637ff36fbe6040518163ffffffff1660e060020a028152600401602060405180830381865afa158015612061573d6000803e3d6000fd5b505050506040513d601f19601f8201168201806040525081019061208591906138c4565b9050600083600160a060020a031663d7cb416f6040518163ffffffff1660e060020a028152600401602060405180830381865afa1580156120ca573d6000803e3d6000fd5b505050506040513d601f19601f820116820180604052508101906120ee91906138c4565b9050600084600160a060020a031663e7a036796040518163ffffffff1660e060020a028152600401602060405180830381865afa158015612133573d6000803e3d6000fd5b505050506040513d601f19601f8201168201806040525081019061215791906138c4565b90506121a9888830604051806080016040528088600160a060020a0316815260200187600160a060020a0316815260200186600160a060020a0316815260200186600160a060020a031681525061139f565b60405160e060020a6370a08231028152306004820152600090600160a060020a038516906370a0823190602401602060405180830381865afa1580156121f3573d6000803e3d6000fd5b505050506040513d601f19601f820116820180604052508101906122179190613911565b60405160e060020a6370a08231028152306004820152909150600090600160a060020a038516906370a0823190602401602060405180830381865afa158015612264573d6000803e3d6000fd5b505050506040513d601f19601f820116820180604052508101906122889190613911565b905085600160a060020a031685600160a060020a031614612361576040805161010081018252838152905160e160020a634ee5a88d028152600160a060020a038781166004830152612361929160208301916122f091908c1690639dcb511a906024016110da565b815260405160e160020a634ee5a88d028152600160a060020a038a8116600483015260209092019161232e91908c1690639dcb511a906024016110da565b815260200187600160a060020a0316815260200188600160a060020a031681526020018b8152602001611cb8888a612d7d565b85600160a060020a031684600160a060020a031614612438576040805161010081018252828152905160e160020a634ee5a88d028152600160a060020a038681166004830152612438929160208301916123c791908c1690639dcb511a906024016110da565b815260405160e160020a634ee5a88d028152600160a060020a038a8116600483015260209092019161240591908c1690639dcb511a906024016110da565b815260200186600160a060020a0316815260200188600160a060020a031681526020018b8152602001611cb8878a612d7d565b60405160e060020a6370a08231028152306004820152600160a060020a038716906370a0823190602401611ec4565b60008082600160a060020a031663313ce5676040518163ffffffff1660e060020a028152600401602060405180830381865afa1580156124ab573d6000803e3d6000fd5b505050506040513d601f19601f820116820180604052508101906124cf9190613a02565b9050600083600160a060020a031663feaf968c6040518163ffffffff1660e060020a02815260040160a060405180830381865afa158015612514573d6000803e3d6000fd5b505050506040513d601f19601f820116820180604052508101906125389190613a6d565b50505091505060008112156125925760405160e560020a62461bcd02815260206004820152601660248201527f6e656720707269636573206e6f7420616c6c6f77656400000000000000000000604482015260640161039c565b61259d82600a613ba6565b6125ac8264e8d4a51000613942565b6125b69190613961565b949350505050565b6000612613826040518060400160405280602081526020017f5361666545524332303a206c6f772d6c6576656c2063616c6c206661696c656481525085600160a060020a0316612f489092919063ffffffff16565b80519091501561041a578080602001905181019061263191906139c1565b61041a5760405160e560020a62461bcd02815260206004820152602a60248201527f5361666545524332303a204552433230206f7065726174696f6e20646964206e60448201527f6f74207375636365656400000000000000000000000000000000000000000000606482015260840161039c565b60008083600160a060020a03166318160ddd6040518163ffffffff1660e060020a028152600401602060405180830381865afa1580156126ea573d6000803e3d6000fd5b505050506040513d601f19601f8201168201806040525081019061270e9190613911565b60405160e060020a6370a08231028152600160a060020a0386811660048301529192506000918716906370a0823190602401602060405180830381865afa15801561275d573d6000803e3d6000fd5b505050506040513d601f19601f820116820180604052508101906127819190613911565b905061278f826103e8613942565b8461279a838a613942565b6127a49190613942565b6112e39190613961565b6040517fdd62ed3e000000000000000000000000000000000000000000000000000000008152306004820152600160a060020a038381166024830152600091839186169063dd62ed3e90604401602060405180830381865afa158015612818573d6000803e3d6000fd5b505050506040513d601f19601f8201168201806040525081019061283c9190613911565b612846919061392a565b604051600160a060020a0385166024820152604481018290529091506102da9085907f095ea7b3000000000000000000000000000000000000000000000000000000009060640161133b565b82516002146128e65760405160e560020a62461bcd02815260206004820152600b60248201527f696e76616c696420646563000000000000000000000000000000000000000000604482015260640161039c565b6000866000815181106128fb576128fb613986565b60200260200101516000148061292b57508660018151811061291f5761291f613986565b60200260200101516000145b156129445761293d8989878988612f61565b9050612988565b612985888860008151811061295b5761295b613986565b60200260200101518960018151811061297657612976613986565b60200260200101518988613068565b90505b6040517f5c11d795000000000000000000000000000000000000000000000000000000008152600160a060020a038a1690635c11d795906129d5908b9085908a9089908990600401613bb5565b600060405180830381600087803b1580156129ef57600080fd5b505af1158015612a03573d6000803e3d6000fd5b50505050505050505050505050565b600084156125b65761ffff8216156125b657612710612a3561ffff841687613942565b612a3f9190613961565b90506125b6600160a060020a0385168483611f13565b82612a5f57505050565b6000612a778260a00151600160a060020a0316612467565b90508160200151600160a060020a03168260000151600160a060020a031614612b2457612b24604051806101000160405280600287612ab69190613961565b8152602001838152602001612ad78560c00151600160a060020a0316612467565b81526020018460000151600160a060020a031681526020018460200151600160a060020a031681526020018581526020018460600151815260200130600160a060020a03168152506114b9565b8160400151600160a060020a03168260000151600160a060020a031614612bcf57612bcf604051806101000160405280600287612b619190613961565b8152602001838152602001612b828560e00151600160a060020a0316612467565b81526020018460000151600160a060020a031681526020018460400151600160a060020a031681526020018581526020018460800151815260200130600160a060020a03168152506114b9565b602082015160405160e060020a6370a08231028152306004820152600091600160a060020a0316906370a0823190602401602060405180830381865afa158015612c1d573d6000803e3d6000fd5b505050506040513d601f19601f82011682018060405250810190612c419190613911565b604080850151905160e060020a6370a08231028152306004820152919250600091600160a060020a03909116906370a0823190602401602060405180830381865afa158015612c94573d6000803e3d6000fd5b505050506040513d601f19601f82011682018060405250810190612cb89190613911565b602085015160408601516066549293506104b392859085908a90600160a060020a0316611723565b821561041a5761041a604051806101000160405280858152602001612d118460800151600160a060020a0316612467565b8152602001612d2c8460a00151600160a060020a0316612467565b81526020018360000151600160a060020a031681526020018360200151600160a060020a03168152602001848152602001836060015181526020018360400151600160a060020a03168152506114b9565b6040517f2337b0b1000000000000000000000000000000000000000000000000000000008152600160a060020a0380841660048301528216602482015260609033906000908290632337b0b190604401602060405180830381865afa158015612dea573d6000803e3d6000fd5b505050506040513d601f19601f82011682018060405250810190612e0e9190613bf1565b90508061ffff1667ffffffffffffffff811115612e2d57612e2d6132a1565b604051908082528060200260200182016040528015612e56578160200160208202803683370190505b50925060005b8161ffff168161ffff161015612f3f576040517f5e835270000000000000000000000000000000000000000000000000000000008152600160a060020a038781166004830152868116602483015261ffff83166044830152841690635e83527090606401602060405180830381865afa158015612edd573d6000803e3d6000fd5b505050506040513d601f19601f82011682018060405250810190612f0191906138c4565b848261ffff1681518110612f1757612f17613986565b600160a060020a0390921660209283029190910190910152612f388161399f565b9050612e5c565b50505092915050565b6060612f578484600085613101565b90505b9392505050565b60008086600160a060020a031663d06ca61f87876040518363ffffffff1660e060020a028152600401612f95929190613c0e565b600060405180830381865afa158015612fb2573d6000803e3d6000fd5b505050506040513d6000823e601f3d908101601f19168201604052612fda9190810190613c27565b905082600081518110612fef57612fef613986565b6020026020010151600a6130039190613ba6565b61300f906103e8613942565b8360018151811061302257613022613986565b6020026020010151600a6130369190613ba6565b85836001855161304691906138fa565b8151811061305657613056613986565b602002602001015161279a9190613942565b60008160008151811061307d5761307d613986565b6020026020010151600a6130919190613ba6565b61309d856103e8613942565b6130a79190613942565b826001815181106130ba576130ba613986565b6020026020010151600a6130ce9190613ba6565b846130d9888a613942565b6130e39190613942565b6130ed9190613942565b6130f79190613961565b9695505050505050565b6060303183111561317d5760405160e560020a62461bcd02815260206004820152602660248201527f416464726573733a20696e73756666696369656e742062616c616e636520666f60448201527f722063616c6c0000000000000000000000000000000000000000000000000000606482015260840161039c565b600160a060020a0385163b6131d75760405160e560020a62461bcd02815260206004820152601d60248201527f416464726573733a2063616c6c20746f206e6f6e2d636f6e7472616374000000604482015260640161039c565b60008086600160a060020a031685876040516131f39190613cd6565b60006040518083038185875af1925050503d8060008114613230576040519150601f19603f3d011682016040523d82523d6000602084013e613235565b606091505b50915091506112e38282866060831561324f575081612f5a565b82511561325f5782518084602001fd5b8160405160e560020a62461bcd02815260040161039c9190613cf2565b600160a060020a038116811461030957600080fd5b803561329c8161327c565b919050565b60e060020a634e487b7102600052604160045260246000fd5b604051610100810167ffffffffffffffff811182821017156132de576132de6132a1565b60405290565b6040516101c0810167ffffffffffffffff811182821017156132de576132de6132a1565b604051601f8201601f1916810167ffffffffffffffff81118282101715613331576133316132a1565b604052919050565b60008060008084860360e081121561335057600080fd5b853594506020860135935060408601356133698161327c565b92506080605f198201121561337d57600080fd5b506040516080810181811067ffffffffffffffff821117156133a1576133a16132a1565b60405260608601356133b28161327c565b815260808601356133c28161327c565b602082015260a08601356133d58161327c565b604082015260c08601356133e88161327c565b6060820152939692955090935050565b600067ffffffffffffffff821115613412576134126132a1565b5060209081020190565b600082601f83011261342d57600080fd5b8135602061344261343d836133f8565b613308565b8281529181028401810191818101908684111561345e57600080fd5b8286015b848110156134825780356134758161327c565b8352918301918301613462565b509695505050505050565b60006020828403121561349f57600080fd5b813567ffffffffffffffff808211156134b757600080fd5b9083019061010082860312156134cc57600080fd5b6134d46132ba565b8235815260208301356020820152604083013560408201526134f860608401613291565b606082015261350960808401613291565b608082015260a083013560a082015260c08301358281111561352a57600080fd5b6135368782860161341c565b60c08301525061354860e08401613291565b60e082015295945050505050565b6000806040838503121561356957600080fd5b82356135748161327c565b915060208301356135848161327c565b809150509250929050565b6000602082840312156135a157600080fd5b8135612f5a8161327c565b60008060008060008060c087890312156135c557600080fd5b86356135d08161327c565b955060208701356135e08161327c565b945060408701359350606087013592506080870135915060a08701356136058161327c565b809150509295509295509295565b61ffff8116811461030957600080fd5b803561329c81613613565b801515811461030957600080fd5b803561329c8161362e565b60008060006060848603121561365c57600080fd5b8335925060208401359150604084013567ffffffffffffffff8082111561368257600080fd5b908501906101c0828803121561369757600080fd5b61369f6132e4565b6136a883613291565b81526136b660208401613291565b60208201526136c760408401613291565b60408201526136d860608401613291565b60608201526136e960808401613291565b60808201526136fa60a08401613291565b60a082015261370b60c08401613291565b60c082015261371c60e08401613291565b60e0820152610100808401358381111561373557600080fd5b6137418a82870161341c565b828401525050610120808401358381111561375b57600080fd5b6137678a82870161341c565b828401525050610140915061377d828401613623565b828201526101609150613791828401613623565b8282015261018091506137a5828401613623565b828201526101a091506137b982840161363c565b828201528093505050509250925092565b6000602082840312156137dc57600080fd5b813567ffffffffffffffff8111156137f357600080fd5b6125b68482850161341c565b600081518084526020808501945080840160005b83811015613838578151600160a060020a031687529582019590820190600101613813565b509495945050505050565b602081526000612f5a60208301846137ff565b60008060006060848603121561386b57600080fd5b833592506020840135915060408401356138848161327c565b809150509250925092565b6020808252818101527f4f776e61626c653a2063616c6c6572206973206e6f7420746865206f776e6572604082015260600190565b6000602082840312156138d657600080fd5b8151612f5a8161327c565b60e060020a634e487b7102600052601160045260246000fd5b60008282101561390c5761390c6138e1565b500390565b60006020828403121561392357600080fd5b5051919050565b6000821982111561393d5761393d6138e1565b500190565b600081600019048311821515161561395c5761395c6138e1565b500290565b6000826139815760e060020a634e487b7102600052601260045260246000fd5b500490565b60e060020a634e487b7102600052603260045260246000fd5b600061ffff808316818114156139b7576139b76138e1565b6001019392505050565b6000602082840312156139d357600080fd5b8151612f5a8161362e565b600080604083850312156139f157600080fd5b505080516020909101519092909150565b600060208284031215613a1457600080fd5b815160ff81168114612f5a57600080fd5b600080600060608486031215613a3a57600080fd5b8351925060208401519150604084015190509250925092565b805169ffffffffffffffffffff8116811461329c57600080fd5b600080600080600060a08688031215613a8557600080fd5b613a8e86613a53565b9450602086015193506040860151925060608601519150613ab160808701613a53565b90509295509295909350565b600181815b80851115613afa578160001904821115613ade57613ade6138e1565b80851615613aeb57918102915b60029094049390800290613ac2565b509250929050565b600082613b1157506001613ba0565b81613b1e57506000613ba0565b8160018114613b345760028114613b3e57613b5b565b6001915050613ba0565b60ff841115613b4f57613b4f6138e1565b8360020a915050613ba0565b5060208310610133831016604e8410600b8410161715613b7e575081810a613ba0565b613b888383613abd565b8060001904821115613b9c57613b9c6138e1565b0290505b92915050565b6000612f5a60ff841683613b02565b85815284602082015260a060408201526000613bd460a08301866137ff565b600160a060020a0394909416606083015250608001529392505050565b600060208284031215613c0357600080fd5b8151612f5a81613613565b828152604060208201526000612f5760408301846137ff565b60006020808385031215613c3a57600080fd5b825167ffffffffffffffff811115613c5157600080fd5b8301601f81018513613c6257600080fd5b8051613c7061343d826133f8565b81815290830282018301908381019087831115613c8c57600080fd5b928401925b828410156112e357835182529284019290840190613c91565b60005b83811015613cc5578181015183820152602001613cad565b838111156102da5750506000910152565b60008251613ce8818460208701613caa565b9190910192915050565b6020815260008251806020840152613d11816040850160208701613caa565b601f01601f1916919091016040019291505056fea2646970667358221220c03af13de3ba58acb4524044b217913d0030e734ffef8bc8152d53c8bc9f76ee64736f6c634300080a0033",
  "immutableReferences": {},
  "source": "// SPDX-License-Identifier: MIT\n\npragma solidity ^0.8.0;\n\nimport \"../../interfaces/Zorro/Vaults/IVaultStandardAMM.sol\";\n\nimport \"../../interfaces/Uniswap/IAMMFarm.sol\";\n\nimport \"../../interfaces/Zorro/Vaults/Actions/IVaultActionsStandardAMM.sol\";\n\nimport \"./_VaultActions.sol\";\n\ncontract VaultActionsStandardAMM is IVaultActionsStandardAMM, VaultActions {\n    /* Libraries */\n\n    using SafeERC20Upgradeable for IERC20Upgradeable;\n    using SafeSwapUni for IAMMRouter02;\n    using PriceFeed for AggregatorV3Interface;\n\n    /* Functions */\n\n    /// @notice Measures the current (unrealized) position value (measured in Want token) of the provided vault\n    /// @param _vaultAddr The vault address\n    /// @return positionVal Position value, in units of Want token\n    function currentWantEquity(address _vaultAddr)\n        public\n        view\n        override(IVaultActions, VaultActions)\n        returns (uint256 positionVal)\n    {\n        // Prep\n        IVaultStandardAMM _vault = IVaultStandardAMM(_vaultAddr);\n        address _lpToken = _vault.wantAddress();\n        address _token0 = _vault.token0Address();\n\n        // Farm activity (if applicable)\n        uint256 _stakedLP;\n        uint256 _pendingEarnLP;\n\n        if (_vault.isLPFarmable()) {\n            // Get balance of LP token staked on Masterchef (if isFarmable)\n            (uint256 _amtLPStaked, ) = IAMMFarm(_vault.farmContractAddress())\n                .userInfo(_vault.pid(), _vaultAddr);\n\n            // Express in Token0 units\n            _stakedLP =\n                (_amtLPStaked *\n                    IERC20Upgradeable(_token0).balanceOf(_lpToken)) /\n                IERC20Upgradeable(_lpToken).totalSupply();\n\n            // Get pending Earn\n            uint256 _pendingEarn = IVaultStandardAMM(_vaultAddr)\n                .pendingFarmRewards();\n\n            // Convert to equivalent in Want token\n            uint256 _earnEquityInToken0 = (_pendingEarn *\n                _vault.priceFeeds(_vault.earnedAddress()).getExchangeRate()) /\n                (2 * _vault.priceFeeds(_token0).getExchangeRate());\n\n            // Calculate earn balance in units of LP (earn bal in units of Token 0 * total LP token supply / balance of token 0 on LP pool contract)\n            _pendingEarnLP =\n                (_earnEquityInToken0 *\n                    IERC20Upgradeable(_lpToken).totalSupply()) /\n                IERC20Upgradeable(_token0).balanceOf(_lpToken);\n        }\n\n        // Sum up all equity in the units of the Want token\n        positionVal = _stakedLP + _pendingEarnLP;\n    }\n\n    /// @notice Performs necessary operations to convert USD into Want token and transfer back to sender\n    /// @dev NOTE: Requires caller to approve spending beforehand\n    /// @param _amountUSD The amount of USD to exchange for Want token (must already be deposited on this contract)\n    /// @param _maxMarketMovementAllowed Slippage (990 = 1% etc.)\n    /// @return wantObtained Amount of Want token obtained\n    function _exchangeUSDForWantToken(\n        uint256 _amountUSD,\n        uint256 _maxMarketMovementAllowed\n    ) internal override returns (uint256 wantObtained) {\n        // Prep\n        IVault _vault = IVault(_msgSender());\n        address _stablecoin = _vault.defaultStablecoin();\n        address _token0Address = _vault.token0Address();\n        address _token1Address = _vault.token1Address();\n        address _want = _vault.wantAddress();\n\n        // Swap 1/2 USD for token0\n        if (_token0Address != _stablecoin) {\n            _safeSwap(\n                SafeSwapUni.SafeSwapParams({\n                    amountIn: _amountUSD / 2,\n                    priceToken0: _vault\n                        .priceFeeds(_stablecoin)\n                        .getExchangeRate(),\n                    priceToken1: _vault\n                        .priceFeeds(_token0Address)\n                        .getExchangeRate(),\n                    token0: _stablecoin,\n                    token1: _token0Address,\n                    maxMarketMovementAllowed: _maxMarketMovementAllowed,\n                    path: _getSwapPath(_stablecoin, _token0Address),\n                    destination: address(this)\n                })\n            );\n        }\n\n        // Swap 1/2 USD for token1\n        if (_token1Address != _stablecoin) {\n            _safeSwap(\n                SafeSwapUni.SafeSwapParams({\n                    amountIn: _amountUSD / 2,\n                    priceToken0: _vault\n                        .priceFeeds(_stablecoin)\n                        .getExchangeRate(),\n                    priceToken1: _vault\n                        .priceFeeds(_token1Address)\n                        .getExchangeRate(),\n                    token0: _stablecoin,\n                    token1: _token1Address,\n                    maxMarketMovementAllowed: _maxMarketMovementAllowed,\n                    path: _getSwapPath(_stablecoin, _token1Address),\n                    destination: address(this)\n                })\n            );\n        }\n\n        // Deposit token0, token1 into LP pool to get Want token (i.e. LP token)\n        uint256 _token0Amt = IERC20Upgradeable(_token0Address).balanceOf(\n            address(this)\n        );\n        uint256 _token1Amt = IERC20Upgradeable(_token1Address).balanceOf(\n            address(this)\n        );\n\n        // Add liquidity\n        _joinPool(\n            _token0Address,\n            _token1Address,\n            _token0Amt,\n            _token1Amt,\n            _maxMarketMovementAllowed,\n            address(this)\n        );\n\n        // Calculate resulting want token balance\n        wantObtained = IERC20Upgradeable(_want).balanceOf(address(this));\n    }\n\n    /// @notice Converts Want token back into USD to be ready for withdrawal, transfers back to sender\n    /// @param _amount The Want token quantity to exchange\n    /// @param _maxMarketMovementAllowed The max slippage allowed for swaps. 1000 = 0 %, 995 = 0.5%, etc.\n    /// @return usdObtained Amount of USD token obtained\n    function _exchangeWantTokenForUSD(\n        uint256 _amount,\n        uint256 _maxMarketMovementAllowed\n    ) internal override returns (uint256 usdObtained) {\n        // Preflight checks\n        require(_amount > 0, \"negWant\");\n\n        // Prep\n        IVault _vault = IVault(_msgSender());\n        address _stablecoin = _vault.defaultStablecoin();\n        address _token0Address = _vault.token0Address();\n        address _token1Address = _vault.token1Address();\n        address _want = _vault.wantAddress();\n\n        // Exit LP pool\n        _exitPool(\n            _amount,\n            _maxMarketMovementAllowed,\n            address(this),\n            ExitPoolParams({\n                token0: _token0Address,\n                token1: _token1Address,\n                poolAddress: _want,\n                lpTokenAddress: _want\n            })\n        );\n\n        // Calc token balances\n        uint256 _token0Amt = IERC20Upgradeable(_token0Address).balanceOf(\n            address(this)\n        );\n        uint256 _token1Amt = IERC20Upgradeable(_token1Address).balanceOf(\n            address(this)\n        );\n\n        // Swap token0 for USD\n        if (_token0Address != _stablecoin) {\n            _safeSwap(\n                SafeSwapUni.SafeSwapParams({\n                    amountIn: _token0Amt,\n                    priceToken0: _vault\n                        .priceFeeds(_token0Address)\n                        .getExchangeRate(),\n                    priceToken1: _vault\n                        .priceFeeds(_stablecoin)\n                        .getExchangeRate(),\n                    token0: _token0Address,\n                    token1: _stablecoin,\n                    maxMarketMovementAllowed: _maxMarketMovementAllowed,\n                    path: _getSwapPath(_token0Address, _stablecoin),\n                    destination: address(this)\n                })\n            );\n        }\n\n        // Swap token1 for USD\n        if (_token1Address != _stablecoin) {\n            _safeSwap(\n                SafeSwapUni.SafeSwapParams({\n                    amountIn: _token1Amt,\n                    priceToken0: _vault\n                        .priceFeeds(_token1Address)\n                        .getExchangeRate(),\n                    priceToken1: _vault\n                        .priceFeeds(_stablecoin)\n                        .getExchangeRate(),\n                    token0: _token1Address,\n                    token1: _stablecoin,\n                    maxMarketMovementAllowed: _maxMarketMovementAllowed,\n                    path: _getSwapPath(_token1Address, _stablecoin),\n                    destination: address(this)\n                })\n            );\n        }\n\n        // Calculate USD balance\n        usdObtained = IERC20Upgradeable(_stablecoin).balanceOf(address(this));\n    }\n}\n",
  "sourcePath": "/Users/kristophm/Documents/workspace/zorro-protocol/contracts/vaults/actions/_VaultActionsStandardAMM.sol",
  "compiler": {
    "name": "solc",
    "version": "0.8.10+commit.fc410830.Emscripten.clang"
  },
  "schemaVersion": "3.4.11",
  "updatedAt": "2023-03-16T13:33:15.153Z",
  "networkType": "ethereum",
  "devdoc": {
    "kind": "dev",
    "methods": {
      "currentWantEquity(address)": {
        "params": {
          "_vaultAddr": "The vault address"
        },
        "returns": {
          "positionVal": "Position value, in units of Want token"
        }
      },
      "distributeAndReinvestEarnings(uint256,uint256,(address,address,address,address,address,address,address,address,address[],address[],uint16,uint16,uint16,bool))": {
        "details": "To be run by Vault's earn() func after earnings have been unfarmed",
        "params": {
          "_amount": "Amount of Want token to distribute",
          "_maxMarketMovementAllowed": "Slippage (990 = 1%)",
          "_params": "A DistributeEarningsParams struct"
        },
        "returns": {
          "wantRemaining": "Remaining Want token after distribution (will be sent back to sender)",
          "xChainBuybackAmt": "Amount of Want token reserved for cross chain buyback, if applicable",
          "xChainRevShareAmt": "Amount of Want token reserved for cross chain revshare, if applicable"
        }
      },
      "exchangeUSDForWantToken(uint256,uint256,address)": {
        "params": {
          "_amountUSD": "The USD quantity to exchange (must already be deposited)",
          "_destination": "Where to send want token to",
          "_maxMarketMovementAllowed": "The max slippage allowed. 1000 = 0 %, 995 = 0.5%, etc."
        },
        "returns": {
          "wantObtained": "Amount of Want token obtained and transferred to sender"
        }
      },
      "exchangeWantTokenForUSD(uint256,uint256,address)": {
        "params": {
          "_amount": "The Want token quantity to exchange (must be deposited beforehand)",
          "_destination": "Where to send converted USD to",
          "_maxMarketMovementAllowed": "The max slippage allowed for swaps. 1000 = 0 %, 995 = 0.5%, etc."
        },
        "returns": {
          "usdObtained": "Amount of USD token obtained and transferred to sender"
        }
      },
      "exitPool(uint256,uint256,address,(address,address,address,address))": {
        "details": "NOTE: Requires caller to approve want token spending",
        "params": {
          "_amountLP": "The amount of LP (Want) tokens to remove",
          "_maxMarketMovementAllowed": "The max slippage allowed for swaps. 1000 = 0 %, 995 = 0.5%, etc.",
          "_recipient": "The recipient of the underlying tokens at pool exit"
        }
      },
      "initialize(address,address)": {
        "params": {
          "_owner": "The designated owner of this contract (usually a Timelock)",
          "_uniRouterAddress": "Address of Uniswap style router"
        }
      },
      "joinPool(address,address,uint256,uint256,uint256,address)": {
        "details": "NOTE: Requires spending approval by caller",
        "params": {
          "_maxMarketMovementAllowed": "The max slippage allowed for swaps. 1000 = 0 %, 995 = 0.5%, etc.",
          "_recipient": "The recipient of the LP token",
          "_token0": "The address of Token0",
          "_token0Amt": "Quantity of Token0 to add",
          "_token1": "The address of Token1",
          "_token1Amt": "Quantity of Token1 to add"
        }
      },
      "owner()": {
        "details": "Returns the address of the current owner."
      },
      "renounceOwnership()": {
        "details": "Leaves the contract without owner. It will not be possible to call `onlyOwner` functions anymore. Can only be called by the current owner. NOTE: Renouncing ownership will leave the contract without an owner, thereby removing any functionality that is only available to the owner."
      },
      "reversePath(address[])": {
        "params": {
          "_path": "The swap path to be reversed"
        },
        "returns": {
          "newPath": "An reversed path array"
        }
      },
      "safeSwap((uint256,uint256,uint256,address,address,uint256,address[],address))": {
        "details": "NOTE: Caller must approve tokens for spending beforehand",
        "params": {
          "_swapParams": "SafeSwapParams for swap"
        }
      },
      "transferOwnership(address)": {
        "details": "Transfers ownership of the contract to a new account (`newOwner`). Can only be called by the current owner."
      },
      "unrealizedProfits(address)": {
        "params": {
          "_vaultAddr": "The vault address"
        },
        "returns": {
          "accumulatedProfit": "Amount of unrealized profit accumulated on the vault (not accounting for past harvests)",
          "harvestableProfit": "Amount of immediately harvestable profits"
        }
      }
    },
    "version": 1
  },
  "userdoc": {
    "kind": "user",
    "methods": {
      "currentWantEquity(address)": {
        "notice": "Measures the current (unrealized) position value (measured in Want token) of the provided vault"
      },
      "distributeAndReinvestEarnings(uint256,uint256,(address,address,address,address,address,address,address,address,address[],address[],uint16,uint16,uint16,bool))": {
        "notice": "Distributes earnings (in the form of Want token) and reinvests remainder into Want token"
      },
      "exchangeUSDForWantToken(uint256,uint256,address)": {
        "notice": "Performs necessary operations to convert USD into Want token"
      },
      "exchangeWantTokenForUSD(uint256,uint256,address)": {
        "notice": "Converts Want token back into USD to be ready for withdrawal and transfers to sender"
      },
      "exitPool(uint256,uint256,address,(address,address,address,address))": {
        "notice": "Removes liquidity from a pool and sends tokens back to this address"
      },
      "initialize(address,address)": {
        "notice": "Constructor"
      },
      "joinPool(address,address,uint256,uint256,uint256,address)": {
        "notice": "Adds liquidity to the pool of this contract"
      },
      "reversePath(address[])": {
        "notice": "Gets the swap path in the opposite direction of a trade"
      },
      "safeSwap((uint256,uint256,uint256,address,address,uint256,address[],address))": {
        "notice": "Safely swaps tokens using the most suitable protocol based on token"
      },
      "unrealizedProfits(address)": {
        "notice": "Calculates accumulated unrealized profits on a vault"
      }
    },
    "version": 1
  }
}