{
  "contractName": "VaultAcryptosSingle",
  "abi": [
    {
      "inputs": [
        {
          "internalType": "address[]",
          "name": "_addresses",
          "type": "address[]"
        },
        {
          "internalType": "uint256",
          "name": "_pid",
          "type": "uint256"
        },
        {
          "internalType": "bool",
          "name": "_isCOREStaking",
          "type": "bool"
        },
        {
          "internalType": "bool",
          "name": "_isZorroComp",
          "type": "bool"
        },
        {
          "internalType": "bool",
          "name": "_isHomeChain",
          "type": "bool"
        },
        {
          "internalType": "address[]",
          "name": "_swapPaths",
          "type": "address[]"
        },
        {
          "internalType": "uint16[]",
          "name": "_swapPathStartIndexes",
          "type": "uint16[]"
        },
        {
          "internalType": "uint256[]",
          "name": "_fees",
          "type": "uint256[]"
        },
        {
          "internalType": "bytes32[]",
          "name": "_balancerPools",
          "type": "bytes32[]"
        },
        {
          "internalType": "uint256[]",
          "name": "_balancerPoolWeights",
          "type": "uint256[]"
        }
      ],
      "stateMutability": "nonpayable",
      "type": "constructor"
    },
    {
      "anonymous": false,
      "inputs": [
        {
          "indexed": true,
          "internalType": "address",
          "name": "previousOwner",
          "type": "address"
        },
        {
          "indexed": true,
          "internalType": "address",
          "name": "newOwner",
          "type": "address"
        }
      ],
      "name": "OwnershipTransferred",
      "type": "event"
    },
    {
      "anonymous": false,
      "inputs": [
        {
          "indexed": false,
          "internalType": "address",
          "name": "account",
          "type": "address"
        }
      ],
      "name": "Paused",
      "type": "event"
    },
    {
      "anonymous": false,
      "inputs": [
        {
          "indexed": false,
          "internalType": "address",
          "name": "_govAddress",
          "type": "address"
        }
      ],
      "name": "SetGov",
      "type": "event"
    },
    {
      "anonymous": false,
      "inputs": [
        {
          "indexed": false,
          "internalType": "bool",
          "name": "_onlyGov",
          "type": "bool"
        }
      ],
      "name": "SetOnlyGov",
      "type": "event"
    },
    {
      "anonymous": false,
      "inputs": [
        {
          "indexed": false,
          "internalType": "address",
          "name": "_rewardsAddress",
          "type": "address"
        }
      ],
      "name": "SetRewardsAddress",
      "type": "event"
    },
    {
      "anonymous": false,
      "inputs": [
        {
          "indexed": false,
          "internalType": "uint256",
          "name": "_entranceFeeFactor",
          "type": "uint256"
        },
        {
          "indexed": false,
          "internalType": "uint256",
          "name": "_withdrawFeeFactor",
          "type": "uint256"
        },
        {
          "indexed": false,
          "internalType": "uint256",
          "name": "_controllerFee",
          "type": "uint256"
        },
        {
          "indexed": false,
          "internalType": "uint256",
          "name": "_buyBackRate",
          "type": "uint256"
        },
        {
          "indexed": false,
          "internalType": "uint256",
          "name": "_slippageFactor",
          "type": "uint256"
        }
      ],
      "name": "SetSettings",
      "type": "event"
    },
    {
      "anonymous": false,
      "inputs": [
        {
          "indexed": false,
          "internalType": "address",
          "name": "_uniRouterAddress",
          "type": "address"
        }
      ],
      "name": "SetUniRouterAddress",
      "type": "event"
    },
    {
      "anonymous": false,
      "inputs": [
        {
          "indexed": false,
          "internalType": "address",
          "name": "account",
          "type": "address"
        }
      ],
      "name": "Unpaused",
      "type": "event"
    },
    {
      "inputs": [
        {
          "internalType": "uint256",
          "name": "",
          "type": "uint256"
        }
      ],
      "name": "USDCToToken0Path",
      "outputs": [
        {
          "internalType": "address",
          "name": "",
          "type": "address"
        }
      ],
      "stateMutability": "view",
      "type": "function"
    },
    {
      "inputs": [
        {
          "internalType": "uint256",
          "name": "",
          "type": "uint256"
        }
      ],
      "name": "USDCToToken1Path",
      "outputs": [
        {
          "internalType": "address",
          "name": "",
          "type": "address"
        }
      ],
      "stateMutability": "view",
      "type": "function"
    },
    {
      "inputs": [
        {
          "internalType": "uint256",
          "name": "",
          "type": "uint256"
        }
      ],
      "name": "USDCToWantPath",
      "outputs": [
        {
          "internalType": "address",
          "name": "",
          "type": "address"
        }
      ],
      "stateMutability": "view",
      "type": "function"
    },
    {
      "inputs": [
        {
          "internalType": "uint256",
          "name": "",
          "type": "uint256"
        }
      ],
      "name": "WantToUSDCPath",
      "outputs": [
        {
          "internalType": "address",
          "name": "",
          "type": "address"
        }
      ],
      "stateMutability": "view",
      "type": "function"
    },
    {
      "inputs": [],
      "name": "ZORROAddress",
      "outputs": [
        {
          "internalType": "address",
          "name": "",
          "type": "address"
        }
      ],
      "stateMutability": "view",
      "type": "function"
    },
    {
      "inputs": [],
      "name": "balancerLPPool",
      "outputs": [
        {
          "internalType": "bytes32",
          "name": "",
          "type": "bytes32"
        }
      ],
      "stateMutability": "view",
      "type": "function"
    },
    {
      "inputs": [],
      "name": "balancerPoolEarnWeightBasisPoints",
      "outputs": [
        {
          "internalType": "uint256",
          "name": "",
          "type": "uint256"
        }
      ],
      "stateMutability": "view",
      "type": "function"
    },
    {
      "inputs": [],
      "name": "balancerPoolEarnedToTokens",
      "outputs": [
        {
          "internalType": "bytes32",
          "name": "",
          "type": "bytes32"
        }
      ],
      "stateMutability": "view",
      "type": "function"
    },
    {
      "inputs": [],
      "name": "balancerPoolToken0WeightBasisPoints",
      "outputs": [
        {
          "internalType": "uint256",
          "name": "",
          "type": "uint256"
        }
      ],
      "stateMutability": "view",
      "type": "function"
    },
    {
      "inputs": [],
      "name": "balancerPoolUSDCToToken0",
      "outputs": [
        {
          "internalType": "bytes32",
          "name": "",
          "type": "bytes32"
        }
      ],
      "stateMutability": "view",
      "type": "function"
    },
    {
      "inputs": [],
      "name": "balancerPoolUSDCToWant",
      "outputs": [
        {
          "internalType": "bytes32",
          "name": "",
          "type": "bytes32"
        }
      ],
      "stateMutability": "view",
      "type": "function"
    },
    {
      "inputs": [],
      "name": "balancerPoolUSDCWeightBasisPoints",
      "outputs": [
        {
          "internalType": "uint256",
          "name": "",
          "type": "uint256"
        }
      ],
      "stateMutability": "view",
      "type": "function"
    },
    {
      "inputs": [],
      "name": "balancerPoolWantWeightBasisPoints",
      "outputs": [
        {
          "internalType": "uint256",
          "name": "",
          "type": "uint256"
        }
      ],
      "stateMutability": "view",
      "type": "function"
    },
    {
      "inputs": [],
      "name": "balancerVaultAddress",
      "outputs": [
        {
          "internalType": "address",
          "name": "",
          "type": "address"
        }
      ],
      "stateMutability": "view",
      "type": "function"
    },
    {
      "inputs": [],
      "name": "burnAddress",
      "outputs": [
        {
          "internalType": "address",
          "name": "",
          "type": "address"
        }
      ],
      "stateMutability": "view",
      "type": "function"
    },
    {
      "inputs": [],
      "name": "buyBackRate",
      "outputs": [
        {
          "internalType": "uint256",
          "name": "",
          "type": "uint256"
        }
      ],
      "stateMutability": "view",
      "type": "function"
    },
    {
      "inputs": [],
      "name": "buyBackRateMax",
      "outputs": [
        {
          "internalType": "uint256",
          "name": "",
          "type": "uint256"
        }
      ],
      "stateMutability": "view",
      "type": "function"
    },
    {
      "inputs": [],
      "name": "buyBackRateUL",
      "outputs": [
        {
          "internalType": "uint256",
          "name": "",
          "type": "uint256"
        }
      ],
      "stateMutability": "view",
      "type": "function"
    },
    {
      "inputs": [],
      "name": "controllerFee",
      "outputs": [
        {
          "internalType": "uint256",
          "name": "",
          "type": "uint256"
        }
      ],
      "stateMutability": "view",
      "type": "function"
    },
    {
      "inputs": [],
      "name": "controllerFeeMax",
      "outputs": [
        {
          "internalType": "uint256",
          "name": "",
          "type": "uint256"
        }
      ],
      "stateMutability": "view",
      "type": "function"
    },
    {
      "inputs": [],
      "name": "controllerFeeUL",
      "outputs": [
        {
          "internalType": "uint256",
          "name": "",
          "type": "uint256"
        }
      ],
      "stateMutability": "view",
      "type": "function"
    },
    {
      "inputs": [],
      "name": "convertDustToEarned",
      "outputs": [],
      "stateMutability": "nonpayable",
      "type": "function"
    },
    {
      "inputs": [],
      "name": "earnedAddress",
      "outputs": [
        {
          "internalType": "address",
          "name": "",
          "type": "address"
        }
      ],
      "stateMutability": "view",
      "type": "function"
    },
    {
      "inputs": [
        {
          "internalType": "uint256",
          "name": "",
          "type": "uint256"
        }
      ],
      "name": "earnedToToken0Path",
      "outputs": [
        {
          "internalType": "address",
          "name": "",
          "type": "address"
        }
      ],
      "stateMutability": "view",
      "type": "function"
    },
    {
      "inputs": [
        {
          "internalType": "uint256",
          "name": "",
          "type": "uint256"
        }
      ],
      "name": "earnedToToken1Path",
      "outputs": [
        {
          "internalType": "address",
          "name": "",
          "type": "address"
        }
      ],
      "stateMutability": "view",
      "type": "function"
    },
    {
      "inputs": [
        {
          "internalType": "uint256",
          "name": "",
          "type": "uint256"
        }
      ],
      "name": "earnedToUSDCPath",
      "outputs": [
        {
          "internalType": "address",
          "name": "",
          "type": "address"
        }
      ],
      "stateMutability": "view",
      "type": "function"
    },
    {
      "inputs": [
        {
          "internalType": "uint256",
          "name": "",
          "type": "uint256"
        }
      ],
      "name": "earnedToZORLPPoolToken0Path",
      "outputs": [
        {
          "internalType": "address",
          "name": "",
          "type": "address"
        }
      ],
      "stateMutability": "view",
      "type": "function"
    },
    {
      "inputs": [
        {
          "internalType": "uint256",
          "name": "",
          "type": "uint256"
        }
      ],
      "name": "earnedToZORLPPoolToken1Path",
      "outputs": [
        {
          "internalType": "address",
          "name": "",
          "type": "address"
        }
      ],
      "stateMutability": "view",
      "type": "function"
    },
    {
      "inputs": [
        {
          "internalType": "uint256",
          "name": "",
          "type": "uint256"
        }
      ],
      "name": "earnedToZORROPath",
      "outputs": [
        {
          "internalType": "address",
          "name": "",
          "type": "address"
        }
      ],
      "stateMutability": "view",
      "type": "function"
    },
    {
      "inputs": [],
      "name": "entranceFeeFactor",
      "outputs": [
        {
          "internalType": "uint256",
          "name": "",
          "type": "uint256"
        }
      ],
      "stateMutability": "view",
      "type": "function"
    },
    {
      "inputs": [],
      "name": "entranceFeeFactorLL",
      "outputs": [
        {
          "internalType": "uint256",
          "name": "",
          "type": "uint256"
        }
      ],
      "stateMutability": "view",
      "type": "function"
    },
    {
      "inputs": [],
      "name": "entranceFeeFactorMax",
      "outputs": [
        {
          "internalType": "uint256",
          "name": "",
          "type": "uint256"
        }
      ],
      "stateMutability": "view",
      "type": "function"
    },
    {
      "inputs": [],
      "name": "farmContractAddress",
      "outputs": [
        {
          "internalType": "address",
          "name": "",
          "type": "address"
        }
      ],
      "stateMutability": "view",
      "type": "function"
    },
    {
      "inputs": [],
      "name": "govAddress",
      "outputs": [
        {
          "internalType": "address",
          "name": "",
          "type": "address"
        }
      ],
      "stateMutability": "view",
      "type": "function"
    },
    {
      "inputs": [
        {
          "internalType": "address",
          "name": "_token",
          "type": "address"
        },
        {
          "internalType": "uint256",
          "name": "_amount",
          "type": "uint256"
        },
        {
          "internalType": "address",
          "name": "_to",
          "type": "address"
        }
      ],
      "name": "inCaseTokensGetStuck",
      "outputs": [],
      "stateMutability": "nonpayable",
      "type": "function"
    },
    {
      "inputs": [],
      "name": "isCOREStaking",
      "outputs": [
        {
          "internalType": "bool",
          "name": "",
          "type": "bool"
        }
      ],
      "stateMutability": "view",
      "type": "function"
    },
    {
      "inputs": [],
      "name": "isHomeChain",
      "outputs": [
        {
          "internalType": "bool",
          "name": "",
          "type": "bool"
        }
      ],
      "stateMutability": "view",
      "type": "function"
    },
    {
      "inputs": [],
      "name": "isSingleAssetDeposit",
      "outputs": [
        {
          "internalType": "bool",
          "name": "",
          "type": "bool"
        }
      ],
      "stateMutability": "view",
      "type": "function"
    },
    {
      "inputs": [],
      "name": "isZorroComp",
      "outputs": [
        {
          "internalType": "bool",
          "name": "",
          "type": "bool"
        }
      ],
      "stateMutability": "view",
      "type": "function"
    },
    {
      "inputs": [],
      "name": "lastEarnBlock",
      "outputs": [
        {
          "internalType": "uint256",
          "name": "",
          "type": "uint256"
        }
      ],
      "stateMutability": "view",
      "type": "function"
    },
    {
      "inputs": [
        {
          "internalType": "uint256",
          "name": "",
          "type": "uint256"
        }
      ],
      "name": "lockedXChainEarningsUSDC",
      "outputs": [
        {
          "internalType": "uint256",
          "name": "",
          "type": "uint256"
        }
      ],
      "stateMutability": "view",
      "type": "function"
    },
    {
      "inputs": [],
      "name": "onlyGov",
      "outputs": [
        {
          "internalType": "bool",
          "name": "",
          "type": "bool"
        }
      ],
      "stateMutability": "view",
      "type": "function"
    },
    {
      "inputs": [],
      "name": "owner",
      "outputs": [
        {
          "internalType": "address",
          "name": "",
          "type": "address"
        }
      ],
      "stateMutability": "view",
      "type": "function"
    },
    {
      "inputs": [],
      "name": "pause",
      "outputs": [],
      "stateMutability": "nonpayable",
      "type": "function"
    },
    {
      "inputs": [],
      "name": "paused",
      "outputs": [
        {
          "internalType": "bool",
          "name": "",
          "type": "bool"
        }
      ],
      "stateMutability": "view",
      "type": "function"
    },
    {
      "inputs": [],
      "name": "pid",
      "outputs": [
        {
          "internalType": "uint256",
          "name": "",
          "type": "uint256"
        }
      ],
      "stateMutability": "view",
      "type": "function"
    },
    {
      "inputs": [],
      "name": "poolAddress",
      "outputs": [
        {
          "internalType": "address",
          "name": "",
          "type": "address"
        }
      ],
      "stateMutability": "view",
      "type": "function"
    },
    {
      "inputs": [],
      "name": "renounceOwnership",
      "outputs": [],
      "stateMutability": "nonpayable",
      "type": "function"
    },
    {
      "inputs": [],
      "name": "revShareRate",
      "outputs": [
        {
          "internalType": "uint256",
          "name": "",
          "type": "uint256"
        }
      ],
      "stateMutability": "view",
      "type": "function"
    },
    {
      "inputs": [],
      "name": "revShareRateMax",
      "outputs": [
        {
          "internalType": "uint256",
          "name": "",
          "type": "uint256"
        }
      ],
      "stateMutability": "view",
      "type": "function"
    },
    {
      "inputs": [],
      "name": "revShareRateUL",
      "outputs": [
        {
          "internalType": "uint256",
          "name": "",
          "type": "uint256"
        }
      ],
      "stateMutability": "view",
      "type": "function"
    },
    {
      "inputs": [],
      "name": "rewardsAddress",
      "outputs": [
        {
          "internalType": "address",
          "name": "",
          "type": "address"
        }
      ],
      "stateMutability": "view",
      "type": "function"
    },
    {
      "inputs": [
        {
          "internalType": "address",
          "name": "_earnedAddress",
          "type": "address"
        }
      ],
      "name": "setEarnedAddress",
      "outputs": [],
      "stateMutability": "nonpayable",
      "type": "function"
    },
    {
      "inputs": [
        {
          "internalType": "address",
          "name": "_farmContractAddress",
          "type": "address"
        }
      ],
      "name": "setFarmContractAddress",
      "outputs": [],
      "stateMutability": "nonpayable",
      "type": "function"
    },
    {
      "inputs": [
        {
          "internalType": "uint256",
          "name": "_entranceFeeFactor",
          "type": "uint256"
        },
        {
          "internalType": "uint256",
          "name": "_withdrawFeeFactor",
          "type": "uint256"
        },
        {
          "internalType": "uint256",
          "name": "_controllerFee",
          "type": "uint256"
        },
        {
          "internalType": "uint256",
          "name": "_buyBackRate",
          "type": "uint256"
        },
        {
          "internalType": "uint256",
          "name": "_slippageFactor",
          "type": "uint256"
        }
      ],
      "name": "setFeeSettings",
      "outputs": [],
      "stateMutability": "nonpayable",
      "type": "function"
    },
    {
      "inputs": [
        {
          "internalType": "address",
          "name": "_govAddress",
          "type": "address"
        }
      ],
      "name": "setGov",
      "outputs": [],
      "stateMutability": "nonpayable",
      "type": "function"
    },
    {
      "inputs": [
        {
          "internalType": "bool",
          "name": "_isCOREStaking",
          "type": "bool"
        }
      ],
      "name": "setIsCOREStaking",
      "outputs": [],
      "stateMutability": "nonpayable",
      "type": "function"
    },
    {
      "inputs": [
        {
          "internalType": "bool",
          "name": "_isSingleAssetDeposit",
          "type": "bool"
        }
      ],
      "name": "setIsSingleAssetDeposit",
      "outputs": [],
      "stateMutability": "nonpayable",
      "type": "function"
    },
    {
      "inputs": [
        {
          "internalType": "bool",
          "name": "_isZorroComp",
          "type": "bool"
        }
      ],
      "name": "setIsZorroComp",
      "outputs": [],
      "stateMutability": "nonpayable",
      "type": "function"
    },
    {
      "inputs": [
        {
          "internalType": "bool",
          "name": "_onlyGov",
          "type": "bool"
        }
      ],
      "name": "setOnlyGov",
      "outputs": [],
      "stateMutability": "nonpayable",
      "type": "function"
    },
    {
      "inputs": [
        {
          "internalType": "uint256",
          "name": "_pid",
          "type": "uint256"
        }
      ],
      "name": "setPid",
      "outputs": [],
      "stateMutability": "nonpayable",
      "type": "function"
    },
    {
      "inputs": [
        {
          "internalType": "address",
          "name": "_poolAddress",
          "type": "address"
        }
      ],
      "name": "setPoolAddress",
      "outputs": [],
      "stateMutability": "nonpayable",
      "type": "function"
    },
    {
      "inputs": [
        {
          "internalType": "address",
          "name": "_rewardsAddress",
          "type": "address"
        }
      ],
      "name": "setRewardsAddress",
      "outputs": [],
      "stateMutability": "nonpayable",
      "type": "function"
    },
    {
      "inputs": [
        {
          "internalType": "address",
          "name": "_token0Address",
          "type": "address"
        }
      ],
      "name": "setToken0Address",
      "outputs": [],
      "stateMutability": "nonpayable",
      "type": "function"
    },
    {
      "inputs": [
        {
          "internalType": "address",
          "name": "_token1Address",
          "type": "address"
        }
      ],
      "name": "setToken1Address",
      "outputs": [],
      "stateMutability": "nonpayable",
      "type": "function"
    },
    {
      "inputs": [
        {
          "internalType": "address",
          "name": "_tokenUSDCAddress",
          "type": "address"
        }
      ],
      "name": "setTokenUSDCAddress",
      "outputs": [],
      "stateMutability": "nonpayable",
      "type": "function"
    },
    {
      "inputs": [
        {
          "internalType": "address",
          "name": "_uniRouterAddress",
          "type": "address"
        }
      ],
      "name": "setUniRouterAddress",
      "outputs": [],
      "stateMutability": "nonpayable",
      "type": "function"
    },
    {
      "inputs": [
        {
          "internalType": "address",
          "name": "_ZORROAddress",
          "type": "address"
        }
      ],
      "name": "setZORROAddress",
      "outputs": [],
      "stateMutability": "nonpayable",
      "type": "function"
    },
    {
      "inputs": [
        {
          "internalType": "address",
          "name": "_zorroControllerAddress",
          "type": "address"
        }
      ],
      "name": "setZorroControllerAddress",
      "outputs": [],
      "stateMutability": "nonpayable",
      "type": "function"
    },
    {
      "inputs": [],
      "name": "sharesTotal",
      "outputs": [
        {
          "internalType": "uint256",
          "name": "",
          "type": "uint256"
        }
      ],
      "stateMutability": "view",
      "type": "function"
    },
    {
      "inputs": [],
      "name": "slippageFactor",
      "outputs": [
        {
          "internalType": "uint256",
          "name": "",
          "type": "uint256"
        }
      ],
      "stateMutability": "view",
      "type": "function"
    },
    {
      "inputs": [],
      "name": "slippageFactorUL",
      "outputs": [
        {
          "internalType": "uint256",
          "name": "",
          "type": "uint256"
        }
      ],
      "stateMutability": "view",
      "type": "function"
    },
    {
      "inputs": [],
      "name": "token0Address",
      "outputs": [
        {
          "internalType": "address",
          "name": "",
          "type": "address"
        }
      ],
      "stateMutability": "view",
      "type": "function"
    },
    {
      "inputs": [
        {
          "internalType": "uint256",
          "name": "",
          "type": "uint256"
        }
      ],
      "name": "token0ToEarnedPath",
      "outputs": [
        {
          "internalType": "address",
          "name": "",
          "type": "address"
        }
      ],
      "stateMutability": "view",
      "type": "function"
    },
    {
      "inputs": [
        {
          "internalType": "uint256",
          "name": "",
          "type": "uint256"
        }
      ],
      "name": "token0ToUSDCPath",
      "outputs": [
        {
          "internalType": "address",
          "name": "",
          "type": "address"
        }
      ],
      "stateMutability": "view",
      "type": "function"
    },
    {
      "inputs": [],
      "name": "token1Address",
      "outputs": [
        {
          "internalType": "address",
          "name": "",
          "type": "address"
        }
      ],
      "stateMutability": "view",
      "type": "function"
    },
    {
      "inputs": [
        {
          "internalType": "uint256",
          "name": "",
          "type": "uint256"
        }
      ],
      "name": "token1ToEarnedPath",
      "outputs": [
        {
          "internalType": "address",
          "name": "",
          "type": "address"
        }
      ],
      "stateMutability": "view",
      "type": "function"
    },
    {
      "inputs": [
        {
          "internalType": "uint256",
          "name": "",
          "type": "uint256"
        }
      ],
      "name": "token1ToUSDCPath",
      "outputs": [
        {
          "internalType": "address",
          "name": "",
          "type": "address"
        }
      ],
      "stateMutability": "view",
      "type": "function"
    },
    {
      "inputs": [],
      "name": "tokenACS",
      "outputs": [
        {
          "internalType": "address",
          "name": "",
          "type": "address"
        }
      ],
      "stateMutability": "view",
      "type": "function"
    },
    {
      "inputs": [],
      "name": "tokenACSI",
      "outputs": [
        {
          "internalType": "address",
          "name": "",
          "type": "address"
        }
      ],
      "stateMutability": "view",
      "type": "function"
    },
    {
      "inputs": [],
      "name": "tokenUSDCAddress",
      "outputs": [
        {
          "internalType": "address",
          "name": "",
          "type": "address"
        }
      ],
      "stateMutability": "view",
      "type": "function"
    },
    {
      "inputs": [
        {
          "internalType": "address",
          "name": "newOwner",
          "type": "address"
        }
      ],
      "name": "transferOwnership",
      "outputs": [],
      "stateMutability": "nonpayable",
      "type": "function"
    },
    {
      "inputs": [],
      "name": "uniRouterAddress",
      "outputs": [
        {
          "internalType": "address",
          "name": "",
          "type": "address"
        }
      ],
      "stateMutability": "view",
      "type": "function"
    },
    {
      "inputs": [],
      "name": "unpause",
      "outputs": [],
      "stateMutability": "nonpayable",
      "type": "function"
    },
    {
      "inputs": [
        {
          "internalType": "address",
          "name": "",
          "type": "address"
        }
      ],
      "name": "userShares",
      "outputs": [
        {
          "internalType": "uint256",
          "name": "",
          "type": "uint256"
        }
      ],
      "stateMutability": "view",
      "type": "function"
    },
    {
      "inputs": [],
      "name": "wantAddress",
      "outputs": [
        {
          "internalType": "address",
          "name": "",
          "type": "address"
        }
      ],
      "stateMutability": "view",
      "type": "function"
    },
    {
      "inputs": [],
      "name": "wantLockedTotal",
      "outputs": [
        {
          "internalType": "uint256",
          "name": "",
          "type": "uint256"
        }
      ],
      "stateMutability": "view",
      "type": "function"
    },
    {
      "inputs": [],
      "name": "withdrawFeeFactor",
      "outputs": [
        {
          "internalType": "uint256",
          "name": "",
          "type": "uint256"
        }
      ],
      "stateMutability": "view",
      "type": "function"
    },
    {
      "inputs": [],
      "name": "withdrawFeeFactorLL",
      "outputs": [
        {
          "internalType": "uint256",
          "name": "",
          "type": "uint256"
        }
      ],
      "stateMutability": "view",
      "type": "function"
    },
    {
      "inputs": [],
      "name": "withdrawFeeFactorMax",
      "outputs": [
        {
          "internalType": "uint256",
          "name": "",
          "type": "uint256"
        }
      ],
      "stateMutability": "view",
      "type": "function"
    },
    {
      "inputs": [],
      "name": "xChainEarningsLockEndBlock",
      "outputs": [
        {
          "internalType": "uint256",
          "name": "",
          "type": "uint256"
        }
      ],
      "stateMutability": "view",
      "type": "function"
    },
    {
      "inputs": [],
      "name": "xChainEarningsLockStartBlock",
      "outputs": [
        {
          "internalType": "uint256",
          "name": "",
          "type": "uint256"
        }
      ],
      "stateMutability": "view",
      "type": "function"
    },
    {
      "inputs": [],
      "name": "zorroControllerAddress",
      "outputs": [
        {
          "internalType": "address",
          "name": "",
          "type": "address"
        }
      ],
      "stateMutability": "view",
      "type": "function"
    },
    {
      "inputs": [],
      "name": "zorroLPPool",
      "outputs": [
        {
          "internalType": "address",
          "name": "",
          "type": "address"
        }
      ],
      "stateMutability": "view",
      "type": "function"
    },
    {
      "inputs": [],
      "name": "zorroLPPoolToken0",
      "outputs": [
        {
          "internalType": "address",
          "name": "",
          "type": "address"
        }
      ],
      "stateMutability": "view",
      "type": "function"
    },
    {
      "inputs": [],
      "name": "zorroLPPoolToken1",
      "outputs": [
        {
          "internalType": "address",
          "name": "",
          "type": "address"
        }
      ],
      "stateMutability": "view",
      "type": "function"
    },
    {
      "inputs": [],
      "name": "zorroStakingVault",
      "outputs": [
        {
          "internalType": "address",
          "name": "",
          "type": "address"
        }
      ],
      "stateMutability": "view",
      "type": "function"
    },
    {
      "inputs": [
        {
          "internalType": "address",
          "name": "_balancerVaultAddress",
          "type": "address"
        }
      ],
      "name": "setBalancerVaultAddress",
      "outputs": [],
      "stateMutability": "nonpayable",
      "type": "function"
    },
    {
      "inputs": [
        {
          "internalType": "bytes32",
          "name": "_balancerPoolEarnedToToken",
          "type": "bytes32"
        }
      ],
      "name": "setBalancerPoolEarnedToTokens",
      "outputs": [],
      "stateMutability": "nonpayable",
      "type": "function"
    },
    {
      "inputs": [
        {
          "internalType": "bytes32",
          "name": "_balancerLPPool",
          "type": "bytes32"
        }
      ],
      "name": "setBalancerLPPool",
      "outputs": [],
      "stateMutability": "nonpayable",
      "type": "function"
    },
    {
      "inputs": [
        {
          "internalType": "address",
          "name": "_tokenACS",
          "type": "address"
        }
      ],
      "name": "setTokenACS",
      "outputs": [],
      "stateMutability": "nonpayable",
      "type": "function"
    },
    {
      "inputs": [
        {
          "internalType": "address",
          "name": "_tokenACSI",
          "type": "address"
        }
      ],
      "name": "setTokenACSI",
      "outputs": [],
      "stateMutability": "nonpayable",
      "type": "function"
    },
    {
      "inputs": [
        {
          "internalType": "bytes32",
          "name": "_balancerPoolUSDCToWant",
          "type": "bytes32"
        }
      ],
      "name": "setBalancerPoolUSDCToWant",
      "outputs": [],
      "stateMutability": "nonpayable",
      "type": "function"
    },
    {
      "inputs": [
        {
          "internalType": "bytes32",
          "name": "_balancerPoolUSDCToToken0",
          "type": "bytes32"
        }
      ],
      "name": "setBalancerPoolUSDCToToken0",
      "outputs": [],
      "stateMutability": "nonpayable",
      "type": "function"
    },
    {
      "inputs": [
        {
          "internalType": "uint256",
          "name": "_balancerPoolUSDCWeightBasisPoints",
          "type": "uint256"
        }
      ],
      "name": "setBalancerPoolUSDCWeightBasisPoints",
      "outputs": [],
      "stateMutability": "nonpayable",
      "type": "function"
    },
    {
      "inputs": [
        {
          "internalType": "uint256",
          "name": "_balancerPoolWantWeightBasisPoints",
          "type": "uint256"
        }
      ],
      "name": "setBalancerPoolWantWeightBasisPoints",
      "outputs": [],
      "stateMutability": "nonpayable",
      "type": "function"
    },
    {
      "inputs": [
        {
          "internalType": "uint256",
          "name": "_balancerPoolEarnWeightBasisPoints",
          "type": "uint256"
        }
      ],
      "name": "setBalancerPoolEarnWeightBasisPoints",
      "outputs": [],
      "stateMutability": "nonpayable",
      "type": "function"
    },
    {
      "inputs": [
        {
          "internalType": "uint256",
          "name": "_balancerPoolToken0WeightBasisPoints",
          "type": "uint256"
        }
      ],
      "name": "setBalancerPoolToken0WeightBasisPoints",
      "outputs": [],
      "stateMutability": "nonpayable",
      "type": "function"
    },
    {
      "inputs": [
        {
          "internalType": "address",
          "name": "_account",
          "type": "address"
        },
        {
          "internalType": "uint256",
          "name": "_wantAmt",
          "type": "uint256"
        }
      ],
      "name": "depositWantToken",
      "outputs": [
        {
          "internalType": "uint256",
          "name": "",
          "type": "uint256"
        }
      ],
      "stateMutability": "nonpayable",
      "type": "function"
    },
    {
      "inputs": [
        {
          "internalType": "uint256",
          "name": "_amountUSDC",
          "type": "uint256"
        },
        {
          "internalType": "uint256",
          "name": "_maxMarketMovementAllowed",
          "type": "uint256"
        }
      ],
      "name": "exchangeUSDForWantToken",
      "outputs": [
        {
          "internalType": "uint256",
          "name": "",
          "type": "uint256"
        }
      ],
      "stateMutability": "nonpayable",
      "type": "function"
    },
    {
      "inputs": [],
      "name": "farm",
      "outputs": [],
      "stateMutability": "nonpayable",
      "type": "function"
    },
    {
      "inputs": [
        {
          "internalType": "address",
          "name": "_account",
          "type": "address"
        },
        {
          "internalType": "bool",
          "name": "_harvestOnly",
          "type": "bool"
        }
      ],
      "name": "withdrawWantToken",
      "outputs": [
        {
          "internalType": "uint256",
          "name": "",
          "type": "uint256"
        }
      ],
      "stateMutability": "nonpayable",
      "type": "function"
    },
    {
      "inputs": [
        {
          "internalType": "uint256",
          "name": "_amount",
          "type": "uint256"
        },
        {
          "internalType": "uint256",
          "name": "_maxMarketMovementAllowed",
          "type": "uint256"
        }
      ],
      "name": "exchangeWantTokenForUSD",
      "outputs": [
        {
          "internalType": "uint256",
          "name": "",
          "type": "uint256"
        }
      ],
      "stateMutability": "nonpayable",
      "type": "function"
    },
    {
      "inputs": [
        {
          "internalType": "uint256",
          "name": "_maxMarketMovementAllowed",
          "type": "uint256"
        }
      ],
      "name": "earn",
      "outputs": [],
      "stateMutability": "nonpayable",
      "type": "function"
    }
  ],
  "bytecode": "0x6080604052600d8054600160a060020a031990811661dead179091556014805460a060020a60ff0219167401000000000000000000000000000000000000000017905560006015819055601681905560178190556019819055601a819055601b55612706601c55612710601d556103b6601e5560308054821673a82f327bbbf0667356d2935c6532d164b06ceced1790557f894ed9026de37afd9cce1e6c0be7d6b510e3ffe5000100000000000000000001603155603380548216734197c6ef3879a08cd51e5560da5064b773aa1d2917905560348054909116735b17b4d5e4009b5c43e3e3d63a5229f794cba389179055348015620000fe57600080fd5b506040516200527838038062005278833981016040819052620001219162000ed4565b6200014762000138640100000000620007b7810204565b640100000000620007bb810204565b600180556002805460ff1916905589518a906000906200016b576200016b62001020565b6020026020010151601460006101000a815481600160a060020a030219169083600160a060020a0316021790555089600181518110620001af57620001af62001020565b6020026020010151601160006101000a815481600160a060020a030219169083600160a060020a0316021790555089600281518110620001f357620001f362001020565b6020026020010151601260006101000a815481600160a060020a030219169083600160a060020a031602179055508960038151811062000237576200023762001020565b6020026020010151600560006101000a815481600160a060020a030219169083600160a060020a03160217905550896004815181106200027b576200027b62001020565b6020026020010151600660006101000a815481600160a060020a030219169083600160a060020a0316021790555089600581518110620002bf57620002bf62001020565b6020026020010151600860006101000a815481600160a060020a030219169083600160a060020a031602179055508960068151811062000303576200030362001020565b6020026020010151600460006101000a815481600160a060020a030219169083600160a060020a031602179055508960078151811062000347576200034762001020565b6020026020010151600e60006101000a815481600160a060020a030219169083600160a060020a03160217905550896008815181106200038b576200038b62001020565b6020026020010151601060006101000a815481600160a060020a030219169083600160a060020a0316021790555089600981518110620003cf57620003cf62001020565b6020026020010151600f60006101000a815481600160a060020a030219169083600160a060020a0316021790555089600a8151811062000413576200041362001020565b6020026020010151600a60006101000a815481600160a060020a030219169083600160a060020a0316021790555089600b8151811062000457576200045762001020565b6020026020010151600b60006101000a815481600160a060020a030219169083600160a060020a0316021790555089600c815181106200049b576200049b62001020565b6020908102919091010151600c8054600160a060020a031916600160a060020a039092169190911790556003899055600280546201000062ffff00199091166101008b15150262ff00001916171764ffff000000191663010000008915150264ff000000001916176401000000008815158102919091179091556200052790869086906200080b810204565b6200059d60248054806020026020016040519081016040528092919081815260200182805480156200058357602002820191906000526020600020905b8154600160a060020a0316815260019091019060200180831162000564575b505050505062000b7d640100000000026401000000009004565b8051620005b39160269160209091019062000c5e565b5062000628601f8054806020026020016040519081016040528092919081815260200182805480156200058357602002820191906000526020600020908154600160a060020a031681526001909101906020018083116200056457505050505062000b7d640100000000026401000000009004565b80516200063e9160219160209091019062000c5e565b508260008151811062000655576200065562001020565b60200260200101516019819055508260018151811062000679576200067962001020565b6020026020010151601a81905550826002815181106200069d576200069d62001020565b6020026020010151601c8190555082600381518110620006c157620006c162001020565b6020026020010151601d8190555081600081518110620006e557620006e562001020565b60200260200101516035819055508160018151811062000709576200070962001020565b6020026020010151603681905550806000815181106200072d576200072d62001020565b60200260200101516037819055508060018151811062000751576200075162001020565b60200260200101516038819055508060028151811062000775576200077562001020565b60200260200101516039819055508060038151811062000799576200079962001020565b6020026020010151603a8190555050505050505050505050620010d8565b3390565b60008054600160a060020a03838116600160a060020a0319831681178455604051919092169283917f8be0079c531659141344cd1fd0a4f28419497f9722a3daafe3b4186f6b6457e09190a35050565b60008160008151811062000823576200082362001020565b602002602001015190506000805b84518161ffff16101562000b7657600084518310156200088557846200086784600164010000000062002d6e62000c3b82021704565b815181106200087a576200087a62001020565b602002602001015190505b61ffff821615806200089e57508061ffff168261ffff16105b1562000b6257826200091957858261ffff1681518110620008c357620008c362001020565b602002602001015160238361ffff1681548110620008e557620008e562001020565b9060005260206000200160006101000a815481600160a060020a030219169083600160a060020a0316021790555062000b62565b82600114156200095e57858261ffff16815181106200093c576200093c62001020565b602002602001015160248361ffff1681548110620008e557620008e562001020565b8260021415620009a357858261ffff168151811062000981576200098162001020565b602002602001015160258361ffff1681548110620008e557620008e562001020565b8260031415620009e857858261ffff1681518110620009c657620009c662001020565b6020026020010151601f8361ffff1681548110620008e557620008e562001020565b826004141562000a2d57858261ffff168151811062000a0b5762000a0b62001020565b602002602001015160208361ffff1681548110620008e557620008e562001020565b826005141562000a7257858261ffff168151811062000a505762000a5062001020565b602002602001015160288361ffff1681548110620008e557620008e562001020565b826006141562000ab757858261ffff168151811062000a955762000a9562001020565b602002602001015160298361ffff1681548110620008e557620008e562001020565b826007141562000afc57858261ffff168151811062000ada5762000ada62001020565b6020026020010151602c8361ffff1681548110620008e557620008e562001020565b6040517f08c379a000000000000000000000000000000000000000000000000000000000815260206004820152600e60248201527f6261642073776170207061746873000000000000000000000000000000000000604482015260640160405180910390fd5b5062000b6e816200107e565b905062000831565b5050505050565b60608060005b83518161ffff16101562000c34578362000bd58261ffff1662000bc06001885162000c506401000000000262002d81179091906401000000009004565b9064010000000062002d8162000c5082021704565b8151811062000be85762000be862001020565b6020026020010151828261ffff168151811062000c095762000c0962001020565b600160a060020a039092166020928302919091019091015262000c2c816200107e565b905062000b83565b5092915050565b600062000c498284620010a3565b9392505050565b600062000c498284620010be565b82805482825590600052602060002090810192821562000cb6579160200282015b8281111562000cb65782518254600160a060020a031916600160a060020a0390911617825560209092019160019091019062000c7f565b5062000cc492915062000cc8565b5090565b5b8082111562000cc4576000815560010162000cc9565b7f4e487b7100000000000000000000000000000000000000000000000000000000600052604160045260246000fd5b604051601f8201601f191681016001604060020a038111828210171562000d395762000d3962000cdf565b604052919050565b60006001604060020a0382111562000d5d5762000d5d62000cdf565b5060209081020190565b600082601f83011262000d7957600080fd5b8151602062000d9262000d8c8362000d41565b62000d0e565b8281529181028401810191818101908684111562000daf57600080fd5b8286015b8481101562000de3578051600160a060020a038116811462000dd55760008081fd5b835291830191830162000db3565b509695505050505050565b8051801515811462000dff57600080fd5b919050565b600082601f83011262000e1657600080fd5b8151602062000e2962000d8c8362000d41565b8281529181028401810191818101908684111562000e4657600080fd5b8286015b8481101562000de357805161ffff8116811462000e675760008081fd5b835291830191830162000e4a565b600082601f83011262000e8757600080fd5b8151602062000e9a62000d8c8362000d41565b8281529181028401810191818101908684111562000eb757600080fd5b8286015b8481101562000de3578051835291830191830162000ebb565b6000806000806000806000806000806101408b8d03121562000ef557600080fd5b8a516001604060020a038082111562000f0d57600080fd5b62000f1b8e838f0162000d67565b9b5060208d01519a5062000f3260408e0162000dee565b995062000f4260608e0162000dee565b985062000f5260808e0162000dee565b975060a08d015191508082111562000f6957600080fd5b62000f778e838f0162000d67565b965060c08d015191508082111562000f8e57600080fd5b62000f9c8e838f0162000e04565b955060e08d015191508082111562000fb357600080fd5b62000fc18e838f0162000e75565b94506101008d015191508082111562000fd957600080fd5b62000fe78e838f0162000e75565b93506101208d015191508082111562000fff57600080fd5b506200100e8d828e0162000e75565b9150509295989b9194979a5092959850565b7f4e487b7100000000000000000000000000000000000000000000000000000000600052603260045260246000fd5b7f4e487b7100000000000000000000000000000000000000000000000000000000600052601160045260246000fd5b600061ffff808316818114156200109957620010996200104f565b6001019392505050565b60008219821115620010b957620010b96200104f565b500190565b600082821015620010d357620010d36200104f565b500390565b61419080620010e86000396000f3fe608060405234801561001057600080fd5b50600436106106f95760003560e060020a90048063866b201811610396578063c6efd577116101ed578063e65a01171161011e578063ee50dc34116100bc578063f30f45301161008b578063f30f453014610df0578063f5046a2914610e03578063fc2a1b5514610e16578063ffbd3b1f14610e2957600080fd5b8063ee50dc3414610845578063efa0280814610dc2578063f106845414610dd4578063f2fde38b14610ddd57600080fd5b8063e9e15b4f116100f8578063e9e15b4f14610d74578063ec69ae1c14610d87578063ed148bf314610d9a578063edf5e58514610dad57600080fd5b8063e65a011714610d3b578063e719847414610d4e578063e7a0367914610d6157600080fd5b8063d7cb416f1161018b578063e1cda03c11610165578063e1cda03c14610cef578063e502a88d14610d02578063e5eb715c14610d15578063e64f5fc314610d2857600080fd5b8063d7cb416f14610ca9578063dc3ae9d314610cbc578063de69b3aa14610ccf57600080fd5b8063cc4c9884116101c7578063cc4c988414610c67578063cfad57a214610c7a578063d1aeabaf14610c8d578063d53aa5c614610ca057600080fd5b8063c6efd57714610c2e578063c8479cd614610c41578063c8e3d18b14610c5457600080fd5b8063b3545c01116102c7578063bc94606311610265578063c0973eed1161023f578063c0973eed14610c00578063c11c2e9214610c13578063c302a4d014610a92578063c5c97cbf14610c1b57600080fd5b8063bc94606314610bdb578063bd7aa16514610be4578063bf3a7d4014610bed57600080fd5b8063b77050e7116102a1578063b77050e714610b8f578063b86c5f5314610ba2578063b9db191714610bb5578063ba0bb4ab14610bc857600080fd5b8063b3545c011461083c578063b73cba2a14610b73578063b74cd24214610b8657600080fd5b80639b6017e511610334578063a4d2b0831161030e578063a4d2b08314610b31578063a8fcbf2214610b44578063adfe5a7614610b4d578063b1414dbb14610b6057600080fd5b80639b6017e514610b025780639f703a5614610b0b5780639fc33a9f14610b1e57600080fd5b80638b9102dc116103705780638b9102dc14610ac15780638da5cb5b14610ad557806396e9aff814610ae6578063987e684a14610af957600080fd5b8063866b201814610a925780638906758d14610a9b5780638b2bc85214610aae57600080fd5b80634ce54ddb1161055557806367206d4011610486578063715018a6116104245780637ff36fbe116103f35780637ff36fbe14610a5b57806381e62ea314610a6e5780638456cb5914610a8157806385f02dd614610a8957600080fd5b8063715018a614610a1a5780637153ef8614610a225780637bf604d814610a355780637ec8286414610a4857600080fd5b80636a91ba85116104605780636a91ba85146109d8578063701b94dd146109eb57806370d5ae05146109f457806370e842a114610a0757600080fd5b806367206d40146109a957806368f54162146109bc578063693a090b146109c557600080fd5b80635dc05fd5116104f35780636392ab12116104cd5780636392ab1214610970578063648794a41461098357806366aca0a61461099657806367057b6c1461084557600080fd5b80635dc05fd5146109415780635eadce85146109545780636033a85e1461096757600080fd5b8063563397d71161052f578063563397d7146108fd578063583bda3b146109105780635c975abb146109235780635da79d631461092e57600080fd5b80634ce54ddb146108d75780634d9f7bb2146108455780634e2cb8b6146108ea57600080fd5b8063211019d71161062f5780634441fa58116105cd57806348f2d9dd116105a757806348f2d9dd14610895578063495af8ce146108a85780634c5b09da146108bb5780634c8fc2d6146108ce57600080fd5b80634441fa581461087057806344a3955e1461087957806346008a071461088257600080fd5b806336e9332d1161060957806336e9332d146108575780633f4ba83a1461085f57806342da4eb31461086757806343788cd21461084557600080fd5b8063211019d71461083c5780632717eff3146108455780633214471f1461084e57600080fd5b80631334903f1161069c578063178a8d0711610676578063178a8d07146107fa5780631b0d8aab146108035780631e12819a146108165780631f1d7f8e1461082957600080fd5b80631334903f146107cb57806315bf3179146107d45780631755ff21146107e757600080fd5b80630873cb91116106d85780630873cb911461075a5780630b6bb30b1461077a5780630daef3211461078d5780630fa4e01e146107c257600080fd5b80627a2ae3146106fe57806305828d3e1461072e578063061c7d4814610743575b600080fd5b61071161070c366004613c35565b610e32565b604051600160a060020a0390911681526020015b60405180910390f35b61074161073c366004613c6a565b610e5c565b005b61074c61012c81565b604051908152602001610725565b61074c610768366004613c35565b602f6020526000908152604090205481565b610741610788366004613c93565b610eb4565b6014546107b29074010000000000000000000000000000000000000000900460ff1681565b6040519015158152602001610725565b61074c60155481565b61074c601c5481565b6107416107e2366004613c6a565b610f5b565b60105461071190600160a060020a031681565b61074c601a5481565b610741610811366004613c35565b610faa565b610741610824366004613c6a565b610fdc565b610741610837366004613c35565b61102b565b61074c61032081565b61074c61271081565b61074c601b5481565b61074161105d565b610741611096565b61074c60165481565b61074c60385481565b61074c60175481565b60145461071190600160a060020a031681565b6107416108a3366004613c93565b6110cd565b61074c6108b6366004613cb0565b611114565b6107416108c9366004613c6a565b6113d3565b61074c602e5481565b60095461071190600160a060020a031681565b6107116108f8366004613c35565b611422565b60335461071190600160a060020a031681565b61074161091e366004613c6a565b611432565b60025460ff166107b2565b61074161093c366004613c6a565b611481565b6002546107b29062010000900460ff1681565b610741610962366004613c35565b6114d0565b61074c60395481565b61071161097e366004613c35565b611502565b61074c610991366004613ce7565b611512565b6107416109a4366004613c93565b61172f565b6107416109b7366004613d09565b611778565b61074c601d5481565b600f5461071190600160a060020a031681565b6107416109e6366004613c35565b611880565b61074c60375481565b600d5461071190600160a060020a031681565b60305461071190600160a060020a031681565b6107416118b2565b610741610a30366004613d45565b6118e9565b600a5461071190600160a060020a031681565b610711610a56366004613c35565b611bd8565b60065461071190600160a060020a031681565b610711610a7c366004613c35565b611be8565b610741611bf8565b61074c60195481565b61074c6126ac81565b610741610aa9366004613c6a565b611c2d565b600c5461071190600160a060020a031681565b6002546107b2906301000000900460ff1681565b600054600160a060020a0316610711565b610711610af4366004613c35565b611c7c565b61074c603a5481565b61074c602d5481565b610711610b19366004613c35565b611c8c565b60045461071190600160a060020a031681565b60135461071190600160a060020a031681565b61074c60315481565b610711610b5b366004613c35565b611c9c565b60115461071190600160a060020a031681565b610741610b81366004613c6a565b611cac565b61074c6103e381565b610711610b9d366004613c35565b611cfb565b610711610bb0366004613c35565b611d0b565b610741610bc3366004613c35565b611d1b565b61074c610bd6366004613d80565b611d4d565b61074c60355481565b61074c60325481565b610741610bfb366004613c6a565b611fc1565b600e5461071190600160a060020a031681565b610741612010565b610711610c29366004613c35565b612355565b610711610c3c366004613c35565b612365565b610741610c4f366004613c6a565b612375565b610711610c62366004613c35565b6123c4565b60345461071190600160a060020a031681565b610741610c88366004613c6a565b6123d4565b610741610c9b366004613c93565b61244f565b61074c60365481565b60075461071190600160a060020a031681565b610741610cca366004613c35565b61249a565b61074c610cdd366004613c6a565b60186020526000908152604090205481565b610741610cfd366004613c35565b6124cc565b61074c610d10366004613ce7565b6124fe565b610711610d23366004613c35565b61286c565b610741610d36366004613c6a565b61287c565b610741610d49366004613c35565b6128cb565b60085461071190600160a060020a031681565b60055461071190600160a060020a031681565b610741610d82366004613c6a565b612bb4565b610741610d95366004613c6a565b612c03565b600b5461071190600160a060020a031681565b6002546107b290640100000000900460ff1681565b6002546107b290610100900460ff1681565b61074c60035481565b610741610deb366004613c6a565b612c52565b610741610dfe366004613c35565b612d0a565b60125461071190600160a060020a031681565b610741610e24366004613c35565b612d3c565b61074c601e5481565b60278181548110610e4257600080fd5b600091825260209091200154600160a060020a0316905081565b600054600160a060020a03163314610e925760405160e560020a62461bcd028152600401610e8990613daa565b60405180910390fd5b60078054600160a060020a031916600160a060020a0392909216919091179055565b601454600160a060020a03163314610ee15760405160e560020a62461bcd028152600401610e8990613ddf565b60148054821515740100000000000000000000000000000000000000000274ff0000000000000000000000000000000000000000199091161790556040517f125177ac7b8930dac1e59c2b30b1b6b9191b30af40cf6bbb5d20fec4d44be60f90610f5090831515815260200190565b60405180910390a150565b600054600160a060020a03163314610f885760405160e560020a62461bcd028152600401610e8990613daa565b60348054600160a060020a031916600160a060020a0392909216919091179055565b600054600160a060020a03163314610fd75760405160e560020a62461bcd028152600401610e8990613daa565b600355565b600054600160a060020a031633146110095760405160e560020a62461bcd028152600401610e8990613daa565b60098054600160a060020a031916600160a060020a0392909216919091179055565b600054600160a060020a031633146110585760405160e560020a62461bcd028152600401610e8990613daa565b603a55565b600260015414156110835760405160e560020a62461bcd028152600401610e8990613e16565b6002600155611090612d8d565b60018055565b601454600160a060020a031633146110c35760405160e560020a62461bcd028152600401610e8990613ddf565b6110cb612ee0565b565b600054600160a060020a031633146110fa5760405160e560020a62461bcd028152600401610e8990613daa565b600280549115156101000261ff0019909216919091179055565b601154600090600160a060020a031633600160a060020a03161461114d5760405160e560020a62461bcd028152600401610e8990613e4d565b600260015414156111735760405160e560020a62461bcd028152600401610e8990613e16565b600260015561118460025460ff1690565b156111a45760405160e560020a62461bcd028152600401610e8990613e84565b60008261124c57600160a060020a038481166000908152601860205260409081902054601754600554925160e060020a6370a08231028152306004820152919361124893919261124292869216906370a0823190602401602060405180830381865afa158015611218573d6000803e3d6000fd5b505050506040513d601f19601f8201168201806040525081019061123c9190613ebb565b90612f7f565b90612f8b565b9150505b600061126960165461124260175485612f7f90919063ffffffff16565b905060175481111561127a57506017545b6017546112879082612d81565b601755600160a060020a0385166000908152601860205260409020546112ad9082612d81565b600160a060020a038616600090815260186020526040902055601d5461271011156112f0576112ed612710611242601d5485612f7f90919063ffffffff16565b91505b6002546301000000900460ff161561130b5761130b82612f97565b60055460405160e060020a6370a08231028152306004820152600091600160a060020a0316906370a0823190602401602060405180830381865afa158015611357573d6000803e3d6000fd5b505050506040513d601f19601f8201168201806040525081019061137b9190613ebb565b905080831115611389578092505b8260165410156113995760165492505b6016546113a69084612d81565b6016556011546005546113c691600160a060020a03918216911685612fed565b5060018055949350505050565b600054600160a060020a031633146114005760405160e560020a62461bcd028152600401610e8990613daa565b60048054600160a060020a031916600160a060020a0392909216919091179055565b60228181548110610e4257600080fd5b600054600160a060020a0316331461145f5760405160e560020a62461bcd028152600401610e8990613daa565b60128054600160a060020a031916600160a060020a0392909216919091179055565b600054600160a060020a031633146114ae5760405160e560020a62461bcd028152600401610e8990613daa565b600f8054600160a060020a031916600160a060020a0392909216919091179055565b600054600160a060020a031633146114fd5760405160e560020a62461bcd028152600401610e8990613daa565b603855565b60238181548110610e4257600080fd5b601154600090600160a060020a031633600160a060020a03161461154b5760405160e560020a62461bcd028152600401610e8990613e4d565b60025460ff16156115715760405160e560020a62461bcd028152600401610e8990613e84565b60055460405160e060020a6370a082310281523060048201526000918291600160a060020a03909116906370a0823190602401602060405180830381865afa1580156115c1573d6000803e3d6000fd5b505050506040513d601f19601f820116820180604052508101906115e59190613ebb565b90508085111561163a5760405160e560020a62461bcd02815260206004820152601060248201527f457863656564732077616e742062616c000000000000000000000000000000006044820152606401610e89565b600554600954602b8054604080516020808402820181019092528281526116b795600160a060020a039081169516938b938b938301828280156116a657602002820191906000526020600020905b8154600160a060020a03168152600190910190602001808311611688575b505050505060385460375433613096565b60095460405160e060020a6370a08231028152306004820152600160a060020a03909116906370a0823190602401602060405180830381865afa158015611702573d6000803e3d6000fd5b505050506040513d601f19601f820116820180604052508101906117269190613ebb565b95945050505050565b600054600160a060020a0316331461175c5760405160e560020a62461bcd028152600401610e8990613daa565b60028054911515620100000262ff000019909216919091179055565b601454600160a060020a031633146117a55760405160e560020a62461bcd028152600401610e8990613ddf565b600854600160a060020a03848116911614156118065760405160e560020a62461bcd02815260206004820152600560248201527f21736166650000000000000000000000000000000000000000000000000000006044820152606401610e89565b600554600160a060020a03848116911614156118675760405160e560020a62461bcd02815260206004820152600560248201527f21736166650000000000000000000000000000000000000000000000000000006044820152606401610e89565b61187b600160a060020a0384168284612fed565b505050565b600054600160a060020a031633146118ad5760405160e560020a62461bcd028152600401610e8990613daa565b603155565b600054600160a060020a031633146118df5760405160e560020a62461bcd028152600401610e8990613daa565b6110cb6000613229565b601454600160a060020a031633146119165760405160e560020a62461bcd028152600401610e8990613ddf565b6126ac85101561196b5760405160e560020a62461bcd02815260206004820152601a60248201527f5f656e7472616e6365466565466163746f7220746f6f206c6f770000000000006044820152606401610e89565b6127108511156119c05760405160e560020a62461bcd02815260206004820152601b60248201527f5f656e7472616e6365466565466163746f7220746f6f206869676800000000006044820152606401610e89565b601c8590556126ac841015611a1a5760405160e560020a62461bcd02815260206004820152601a60248201527f5f7769746864726177466565466163746f7220746f6f206c6f770000000000006044820152606401610e89565b612710841115611a6f5760405160e560020a62461bcd02815260206004820152601b60248201527f5f7769746864726177466565466163746f7220746f6f206869676800000000006044820152606401610e89565b601d84905561012c831115611ac95760405160e560020a62461bcd02815260206004820152601760248201527f5f636f6e74726f6c6c657246656520746f6f20686967680000000000000000006044820152606401610e89565b6019839055610320821115611b235760405160e560020a62461bcd02815260206004820152601560248201527f5f6275794261636b5261746520746f6f206869676800000000000000000000006044820152606401610e89565b601a8290556103e3811115611b7d5760405160e560020a62461bcd02815260206004820152601860248201527f5f736c697070616765466163746f7220746f6f206869676800000000000000006044820152606401610e89565b601e819055604080518681526020810186905290810184905260608101839052608081018290527fc67e0b149a57a70fa44a531a46c2c6d8e0b242fa12f459f250012c3a5987d29a9060a00160405180910390a15050505050565b602b8181548110610e4257600080fd5b60298181548110610e4257600080fd5b601454600160a060020a03163314611c255760405160e560020a62461bcd028152600401610e8990613ddf565b6110cb613279565b600054600160a060020a03163314611c5a5760405160e560020a62461bcd028152600401610e8990613daa565b600e8054600160a060020a031916600160a060020a0392909216919091179055565b60258181548110610e4257600080fd5b602c8181548110610e4257600080fd5b602a8181548110610e4257600080fd5b600054600160a060020a03163314611cd95760405160e560020a62461bcd028152600401610e8990613daa565b60088054600160a060020a031916600160a060020a0392909216919091179055565b60268181548110610e4257600080fd5b601f8181548110610e4257600080fd5b600054600160a060020a03163314611d485760405160e560020a62461bcd028152600401610e8990613daa565b603655565b601154600090600160a060020a031633600160a060020a031614611d865760405160e560020a62461bcd028152600401610e8990613e4d565b60026001541415611dac5760405160e560020a62461bcd028152600401610e8990613e16565b6002600155611dbd60025460ff1690565b15611ddd5760405160e560020a62461bcd028152600401610e8990613e84565b60055460405160e060020a6370a08231028152306004820152600091600160a060020a0316906370a0823190602401602060405180830381865afa158015611e29573d6000803e3d6000fd5b505050506040513d601f19601f82011682018060405250810190611e4d9190613ebb565b905060008311611ea25760405160e560020a62461bcd02815260206004820152601e60248201527f57616e7420746f6b656e206465706f736974206d757374206265203e203000006044820152606401610e89565b80831115611ef55760405160e560020a62461bcd02815260206004820152601c60248201527f457863656564732057616e742062616c20666f72206465706f736974000000006044820152606401610e89565b601654839015801590611f0a57506000601754115b15611f3957611f36612710611242601654611242601c5461123c6017548b612f7f90919063ffffffff16565b90505b601754611f469082612d6e565b601755600160a060020a038516600090815260186020526040902054611f6c9082612d6e565b600160a060020a0386166000908152601860205260409020556002546301000000900460ff1615611fa457611f9f612d8d565b611fb5565b601654611fb19085612d6e565b6016555b60018055949350505050565b600054600160a060020a03163314611fee5760405160e560020a62461bcd028152600401610e8990613daa565b60118054600160a060020a031916600160a060020a0392909216919091179055565b60025460ff16156120365760405160e560020a62461bcd028152600401610e8990613e84565b6002546301000000900460ff166120625760405160e560020a62461bcd028152600401610e8990613ed4565b600254610100900460ff16156120bd5760405160e560020a62461bcd02815260206004820152600d60248201527f6973434f52455374616b696e67000000000000000000000000000000000000006044820152606401610e89565b60065460405160e060020a6370a08231028152306004820152600091600160a060020a0316906370a0823190602401602060405180830381865afa158015612109573d6000803e3d6000fd5b505050506040513d601f19601f8201168201806040525081019061212d9190613ebb565b600854600654919250600160a060020a039182169116148015906121515750600081115b1561220757600f5460065461217391600160a060020a039182169116836132d4565b600f54601e5473__SafeSwapUni___________________________9163709128be91600160a060020a039091169084906026306121b242610258612d6e565b6040518763ffffffff1660e060020a0281526004016121d696959493929190613f0b565b60006040518083038186803b1580156121ee57600080fd5b505af4158015612202573d6000803e3d6000fd5b505050505b60075460405160e060020a6370a08231028152306004820152600091600160a060020a0316906370a0823190602401602060405180830381865afa158015612253573d6000803e3d6000fd5b505050506040513d601f19601f820116820180604052508101906122779190613ebb565b600854600754919250600160a060020a0391821691161480159061229b5750600081115b1561235157600f546007546122bd91600160a060020a039182169116836132d4565b600f54601e5473__SafeSwapUni___________________________9163709128be91600160a060020a039091169084906027306122fc42610258612d6e565b6040518763ffffffff1660e060020a02815260040161232096959493929190613f0b565b60006040518083038186803b15801561233857600080fd5b505af415801561234c573d6000803e3d6000fd5b505050505b5050565b60208181548110610e4257600080fd5b60218181548110610e4257600080fd5b600054600160a060020a031633146123a25760405160e560020a62461bcd028152600401610e8990613daa565b60068054600160a060020a031916600160a060020a0392909216919091179055565b60248181548110610e4257600080fd5b601454600160a060020a031633146124015760405160e560020a62461bcd028152600401610e8990613ddf565b60148054600160a060020a031916600160a060020a0383169081179091556040519081527f91a8c1cc2d4a3bb60738481947a00cbb9899c822916694cf8bb1d68172fdcd5490602001610f50565b600054600160a060020a0316331461247c5760405160e560020a62461bcd028152600401610e8990613daa565b6002805491151563010000000263ff00000019909216919091179055565b600054600160a060020a031633146124c75760405160e560020a62461bcd028152600401610e8990613daa565b603255565b600054600160a060020a031633146124f95760405160e560020a62461bcd028152600401610e8990613daa565b603555565b601154600090600160a060020a031633600160a060020a0316146125375760405160e560020a62461bcd028152600401610e8990613e4d565b60025460ff161561255d5760405160e560020a62461bcd028152600401610e8990613e84565b60095460405160e060020a6370a08231028152306004820152600091600160a060020a0316906370a0823190602401602060405180830381865afa1580156125a9573d6000803e3d6000fd5b505050506040513d601f19601f820116820180604052508101906125cd9190613ebb565b9050600084116126225760405160e560020a62461bcd02815260206004820152601860248201527f55534443206465706f736974206d757374206265203e203000000000000000006044820152606401610e89565b808411156126755760405160e560020a62461bcd02815260206004820152601960248201527f5553444320646573697265642065786365656465642062616c000000000000006044820152606401610e89565b600954600654601f8054604080516020808402820181019092528281526126f295600160a060020a039081169516938a938a938301828280156126e157602002820191906000526020600020905b8154600160a060020a031681526001909101906020018083116126c3575b5050505050603754603a5430613096565b60065460405160e060020a6370a08231028152306004820152600091600160a060020a0316906370a0823190602401602060405180830381865afa15801561273e573d6000803e3d6000fd5b505050506040513d601f19601f820116820180604052508101906127629190613ebb565b6010546040517fb6b55f2500000000000000000000000000000000000000000000000000000000815260048101839052919250600160a060020a03169063b6b55f2590602401600060405180830381600087803b1580156127c257600080fd5b505af11580156127d6573d6000803e3d6000fd5b505060055460405160e060020a6370a0823102815230600482015260009350600160a060020a0390911691506370a0823190602401602060405180830381865afa158015612828573d6000803e3d6000fd5b505050506040513d601f19601f8201168201806040525081019061284c9190613ebb565b60115460055491925061172691600160a060020a03908116911683612fed565b60288181548110610e4257600080fd5b600054600160a060020a031633146128a95760405160e560020a62461bcd028152600401610e8990613daa565b60338054600160a060020a031916600160a060020a0392909216919091179055565b600260015414156128f15760405160e560020a62461bcd028152600401610e8990613e16565b600260015561290260025460ff1690565b156129225760405160e560020a62461bcd028152600401610e8990613e84565b6002546301000000900460ff1661294e5760405160e560020a62461bcd028152600401610e8990613ed4565b60145474010000000000000000000000000000000000000000900460ff161561299e57601454600160a060020a0316331461299e5760405160e560020a62461bcd028152600401610e8990613ddf565b6129a86000612f97565b60085460405160e060020a6370a08231028152306004820152600091600160a060020a0316906370a0823190602401602060405180830381865afa1580156129f4573d6000803e3d6000fd5b505050506040513d601f19601f82011682018060405250810190612a189190613ebb565b9050612a23816133be565b9050612a2f818361341d565b6008546006546024805460408051602080840282018101909252828152959650612ab695600160a060020a039586169590941693879389939192909190830182828015612aa557602002820191906000526020600020905b8154600160a060020a03168152600190910190602001808311612a87575b5050505050603954603a5430613096565b60065460405160e060020a6370a08231028152306004820152600091600160a060020a0316906370a0823190602401602060405180830381865afa158015612b02573d6000803e3d6000fd5b505050506040513d601f19601f82011682018060405250810190612b269190613ebb565b6010546040517fb6b55f2500000000000000000000000000000000000000000000000000000000815260048101839052919250600160a060020a03169063b6b55f2590602401600060405180830381600087803b158015612b8657600080fd5b505af1158015612b9a573d6000803e3d6000fd5b50504360155550612bab9050612d8d565b50506001805550565b600054600160a060020a03163314612be15760405160e560020a62461bcd028152600401610e8990613daa565b60108054600160a060020a031916600160a060020a0392909216919091179055565b600054600160a060020a03163314612c305760405160e560020a62461bcd028152600401610e8990613daa565b60308054600160a060020a031916600160a060020a0392909216919091179055565b600054600160a060020a03163314612c7f5760405160e560020a62461bcd028152600401610e8990613daa565b600160a060020a038116612cfe5760405160e560020a62461bcd02815260206004820152602660248201527f4f776e61626c653a206e6577206f776e657220697320746865207a65726f206160448201527f64647265737300000000000000000000000000000000000000000000000000006064820152608401610e89565b612d0781613229565b50565b600054600160a060020a03163314612d375760405160e560020a62461bcd028152600401610e8990613daa565b603755565b600054600160a060020a03163314612d695760405160e560020a62461bcd028152600401610e8990613daa565b603955565b6000612d7a8284613fb2565b9392505050565b6000612d7a8284613fca565b6002546301000000900460ff16612db95760405160e560020a62461bcd028152600401610e8990613ed4565b60055460405160e060020a6370a08231028152306004820152600091600160a060020a0316906370a0823190602401602060405180830381865afa158015612e05573d6000803e3d6000fd5b505050506040513d601f19601f82011682018060405250810190612e299190613ebb565b601654909150612e399082612d6e565b601655600454600554612e5991600160a060020a039182169116836132d4565b600480546005546040517f47e7ef24000000000000000000000000000000000000000000000000000000008152600160a060020a03918216938101939093526024830184905216906347e7ef24906044015b600060405180830381600087803b158015612ec557600080fd5b505af1158015612ed9573d6000803e3d6000fd5b5050505050565b60025460ff16612f355760405160e560020a62461bcd02815260206004820152601460248201527f5061757361626c653a206e6f74207061757365640000000000000000000000006044820152606401610e89565b6002805460ff191690557f5db9ee0a495bf2e6ff9c91a7834c1ba4fdd244a5e8aa4e537bd38aeae4b073aa335b604051600160a060020a03909116815260200160405180910390a1565b6000612d7a8284613fe1565b6000612d7a8284614000565b600480546005546040517ff3fef3a3000000000000000000000000000000000000000000000000000000008152600160a060020a039182169381019390935260248301849052169063f3fef3a390604401612eab565b604051600160a060020a03831660248201526044810182905261187b9084907fa9059cbb00000000000000000000000000000000000000000000000000000000906064015b60408051601f198184030181529190526020810180517bffffffffffffffffffffffffffffffffffffffffffffffffffffffff167fffffffff000000000000000000000000000000000000000000000000000000009093169290921790915261353c565b603354600160a060020a03898116911614806130bf5750603454600160a060020a038981169116145b15613192576030546035546040517fec14d757000000000000000000000000000000000000000000000000000000008152600160a060020a0392831660048201526024810191909152604481018890528982166064820152888216608482015260a4810187905260c4810185905260e4810184905290821661010482015273__SafeSwapBalancer______________________9063ec14d757906101240160006040518083038186803b15801561317557600080fd5b505af4158015613189573d6000803e3d6000fd5b5050505061321f565b600f5473__SafeSwapUni___________________________9063709128be90600160a060020a0316888888866131ca42610258612d6e565b6040518763ffffffff1660e060020a0281526004016131ee9695949392919061403b565b60006040518083038186803b15801561320657600080fd5b505af415801561321a573d6000803e3d6000fd5b505050505b5050505050505050565b60008054600160a060020a03838116600160a060020a0319831681178455604051919092169283917f8be0079c531659141344cd1fd0a4f28419497f9722a3daafe3b4186f6b6457e09190a35050565b60025460ff161561329f5760405160e560020a62461bcd028152600401610e8990613e84565b6002805460ff191660011790557f62e78cea01bee320cd4e420270b5ea74000d11b0c9f74754ebdbfc544b05a258612f623390565b6040517fdd62ed3e000000000000000000000000000000000000000000000000000000008152306004820152600160a060020a038381166024830152600091839186169063dd62ed3e90604401602060405180830381865afa15801561333e573d6000803e3d6000fd5b505050506040513d601f19601f820116820180604052508101906133629190613ebb565b61336c9190613fb2565b604051600160a060020a0385166024820152604481018290529091506133b89085907f095ea7b30000000000000000000000000000000000000000000000000000000090606401613032565b50505050565b6000811561341957601954156134195760006133eb61271061124260195486612f7f90919063ffffffff16565b600e5460085491925061340b91600160a060020a03908116911683612fed565b6134158382612d81565b9250505b5090565b601a5460009081901561344857613445612710611242601a5487612f7f90919063ffffffff16565b90505b6000600254640100000000900460ff1615613476576134678285613624565b61347181856139ab565b613528565b601154600160a060020a03166134a161348f8484612d6e565b601154600160a060020a031687613a0a565b6003546040517fc8d9bc9400000000000000000000000000000000000000000000000000000000815260048101919091526024810184905260448101839052600160a060020a0382169063c8d9bc9490606401600060405180830381600087803b15801561350e57600080fd5b505af1158015613522573d6000803e3d6000fd5b50505050505b611726816135368785612d81565b90612d81565b6000613591826040518060400160405280602081526020017f5361666545524332303a206c6f772d6c6576656c2063616c6c206661696c656481525085600160a060020a0316613a939092919063ffffffff16565b80519091501561187b57808060200190518101906135af9190614094565b61187b5760405160e560020a62461bcd02815260206004820152602a60248201527f5361666545524332303a204552433230206f7065726174696f6e20646964206e60448201527f6f742073756363656564000000000000000000000000000000000000000000006064820152608401610e89565b600f5460085461364191600160a060020a039182169116846132d4565b600f5473__SafeSwapUni___________________________9063709128be90600160a060020a0316613674856002612f8b565b601e5460283061368642610258612d6e565b6040518763ffffffff1660e060020a0281526004016136aa96959493929190613f0b565b60006040518083038186803b1580156136c257600080fd5b505af41580156136d6573d6000803e3d6000fd5b5050600f5473__SafeSwapUni___________________________925063709128be9150600160a060020a031661370d856002612f8b565b601e5460293061371f42610258612d6e565b6040518763ffffffff1660e060020a02815260040161374396959493929190613f0b565b60006040518083038186803b15801561375b57600080fd5b505af415801561376f573d6000803e3d6000fd5b5050600b5460405160e060020a6370a0823102815230600482015260009350600160a060020a0390911691506370a0823190602401602060405180830381865afa1580156137c1573d6000803e3d6000fd5b505050506040513d601f19601f820116820180604052508101906137e59190613ebb565b600c5460405160e060020a6370a08231028152306004820152919250600091600160a060020a03909116906370a0823190602401602060405180830381865afa158015613836573d6000803e3d6000fd5b505050506040513d601f19601f8201168201806040525081019061385a9190613ebb565b600f5460065491925061387a91600160a060020a039081169116846132d4565b600f5460075461389791600160a060020a039182169116836132d4565b600f54600b54600c54601e54600160a060020a039384169363e8e33700938116921690869086906138d1906103e890611242908590612f7f565b6138ec6103e8611242601e548b612f7f90919063ffffffff16565b600d54600160a060020a031661390442610258612d6e565b60405163ffffffff8a1660e060020a028152600160a060020a039889166004820152968816602488015260448701959095526064860193909352608485019190915260a484015290921660c482015260e4810191909152610104016060604051808303816000875af115801561397e573d6000803e3d6000fd5b505050506040513d601f19601f820116820180604052508101906139a291906140b1565b50505050505050565b600f546008546139c891600160a060020a039182169116846132d4565b600f5460135473__SafeSwapUni___________________________9163709128be91600160a060020a039182169186918691602391166122fc42610258612d6e565b600f5473__SafeSwapUni___________________________9063709128be90600160a060020a03168584602c87613a4342610258612d6e565b6040518763ffffffff1660e060020a028152600401613a6796959493929190613f0b565b60006040518083038186803b158015613a7f57600080fd5b505af41580156139a2573d6000803e3d6000fd5b6060613aa28484600085613aaa565b949350505050565b60603031831115613b265760405160e560020a62461bcd02815260206004820152602660248201527f416464726573733a20696e73756666696369656e742062616c616e636520666f60448201527f722063616c6c00000000000000000000000000000000000000000000000000006064820152608401610e89565b600160a060020a0385163b613b805760405160e560020a62461bcd02815260206004820152601d60248201527f416464726573733a2063616c6c20746f206e6f6e2d636f6e74726163740000006044820152606401610e89565b60008086600160a060020a03168587604051613b9c919061410b565b60006040518083038185875af1925050503d8060008114613bd9576040519150601f19603f3d011682016040523d82523d6000602084013e613bde565b606091505b5091509150613bee828286613bf9565b979650505050505050565b60608315613c08575081612d7a565b825115613c185782518084602001fd5b8160405160e560020a62461bcd028152600401610e899190614127565b600060208284031215613c4757600080fd5b5035919050565b8035600160a060020a0381168114613c6557600080fd5b919050565b600060208284031215613c7c57600080fd5b612d7a82613c4e565b8015158114612d0757600080fd5b600060208284031215613ca557600080fd5b8135612d7a81613c85565b60008060408385031215613cc357600080fd5b613ccc83613c4e565b91506020830135613cdc81613c85565b809150509250929050565b60008060408385031215613cfa57600080fd5b50508035926020909101359150565b600080600060608486031215613d1e57600080fd5b613d2784613c4e565b925060208401359150613d3c60408501613c4e565b90509250925092565b600080600080600060a08688031215613d5d57600080fd5b505083359560208501359550604085013594606081013594506080013592509050565b60008060408385031215613d9357600080fd5b613d9c83613c4e565b946020939093013593505050565b6020808252818101527f4f776e61626c653a2063616c6c6572206973206e6f7420746865206f776e6572604082015260600190565b60208082526004908201527f21676f7600000000000000000000000000000000000000000000000000000000604082015260600190565b6020808252601f908201527f5265656e7472616e637947756172643a207265656e7472616e742063616c6c00604082015260600190565b60208082526010908201527f217a6f72726f436f6e74726f6c6c657200000000000000000000000000000000604082015260600190565b60208082526010908201527f5061757361626c653a2070617573656400000000000000000000000000000000604082015260600190565b600060208284031215613ecd57600080fd5b5051919050565b6020808252600c908201527f2169735a6f72726f436f6d700000000000000000000000000000000000000000604082015260600190565b600060c08201600160a060020a03808a1684526020898186015288604086015260c0606086015282885480855260e0870191508960005282600020945060005b81811015613f69578554851683526001958601959284019201613f4b565b505096909116608085015250505060a00152949350505050565b7f4e487b7100000000000000000000000000000000000000000000000000000000600052601160045260246000fd5b60008219821115613fc557613fc5613f83565b500190565b600082821015613fdc57613fdc613f83565b500390565b6000816000190483118215151615613ffb57613ffb613f83565b500290565b600082614036577f4e487b7100000000000000000000000000000000000000000000000000000000600052601260045260246000fd5b500490565b600060c08201600160a060020a03808a1684526020898186015288604086015260c0606086015282885180855260e087019150828a01945060005b81811015613f69578551851683529483019491830191600101614076565b6000602082840312156140a657600080fd5b8151612d7a81613c85565b6000806000606084860312156140c657600080fd5b8351925060208401519150604084015190509250925092565b60005b838110156140fa5781810151838201526020016140e2565b838111156133b85750506000910152565b6000825161411d8184602087016140df565b9190910192915050565b60208152600082518060208401526141468160408501602087016140df565b601f01601f1916919091016040019291505056fea2646970667358221220a3c5d6b0e579b7d293b3ae84bfba74f30bb523fb1d8b235d64f0bdffb36459c664736f6c634300080a0033",
  "immutableReferences": {},
  "source": "// SPDX-License-Identifier: MIT\n\npragma solidity ^0.8.0;\n\nimport \"@openzeppelin/contracts/token/ERC20/utils/SafeERC20.sol\";\n\nimport \"../interfaces/IAMMFarm.sol\";\n\nimport \"../interfaces/IAcryptosFarm.sol\";\n\nimport \"../interfaces/IAcryptosVault.sol\";\n\nimport \"@openzeppelin/contracts/token/ERC20/IERC20.sol\";\n\nimport \"@openzeppelin/contracts/utils/math/SafeMath.sol\";\n\nimport \"./_VaultBase.sol\";\n\nimport \"../interfaces/IBalancerVault.sol\";\n\n/// @title Vault contract for Acryptos single token strategies (e.g. for lending)\ncontract VaultAcryptosSingle is VaultBase {\n    /* Libraries */\n    using SafeMath for uint256;\n    using SafeERC20 for IERC20;\n    using SafeSwapBalancer for IBalancerVault;\n    using SafeSwapUni for IAMMRouter02;\n\n    /* Constructor */\n    /// @notice Constructor\n    /// @param _addresses Array of [govAddress, zorroControllerAddress, ZORROAddress, wantAddress, token0Address, earnedAddress, farmContractAddress, rewardsAddress, poolAddress, uniRouterAddress, zorroLPPool, zorroLPPoolToken0, zorroLPPoolToken1]\n    /// @param _pid Pool ID this Vault is associated with\n    /// @param _isCOREStaking If true, is for staking just core token of AMM (e.g. CAKE for Pancakeswap, BANANA for Apeswap, etc.). Set to false for Zorro single staking vault\n    /// @param _isZorroComp This vault is for compounding. If true, will trigger farming/unfarming on earn events. Set to false for Zorro single staking vault\n    /// @param _isHomeChain Whether this contract is deployed on the home chain (BSC)\n    /// @param _swapPaths A flattened array of swap paths for a Uniswap style router. Ordered as: [earnedToZORROPath, earnedToToken0Path, earnedToToken1Path, USDCToToken0Path, USDCToToken1Path, earnedToZORLPPoolToken0Path, earnedToZORLPPoolToken1Path, earnedToUSDCPath]\n    /// @param _swapPathStartIndexes An array of start indexes within _swapPaths to represent the start of a new swap path\n    /// @param _fees Array of [_controllerFee, _buyBackRate, _entranceFeeFactor, _withdrawFeeFactor]\n    /// @param _balancerPools Addresses of Balancer pools for performing swaps. Array of [balancerPoolUSDCToWant, balancerPoolUSDCToToken0]\n    /// @param _balancerPoolWeights Weights of assets in Balancer pools. Array of [balancerPoolUSDCWeightBasisPoints, balancerPoolWantWeightBasisPoints, balancerPoolEarnWeightBasisPoints, balancerPoolToken0WeightBasisPoints]\n    constructor(\n        address[] memory _addresses,\n        uint256 _pid,\n        bool _isCOREStaking,\n        bool _isZorroComp,\n        bool _isHomeChain,\n        address[] memory _swapPaths,\n        uint16[] memory _swapPathStartIndexes,\n        uint256[] memory _fees,\n        bytes32[] memory _balancerPools,\n        uint256[] memory _balancerPoolWeights\n    ) {\n        // Addresses\n        govAddress = _addresses[0];\n        zorroControllerAddress = _addresses[1];\n        ZORROAddress = _addresses[2];\n        wantAddress = _addresses[3];\n        token0Address = _addresses[4];\n        earnedAddress = _addresses[5];\n        farmContractAddress = _addresses[6];\n        rewardsAddress = _addresses[7];\n        poolAddress = _addresses[8];\n        uniRouterAddress = _addresses[9];\n        zorroLPPool = _addresses[10];\n        zorroLPPoolToken0 = _addresses[11];\n        zorroLPPoolToken1 = _addresses[12];\n\n\n        // Vault config\n        pid = _pid;\n        isCOREStaking = _isCOREStaking;\n        isSingleAssetDeposit = true;\n        isZorroComp = _isZorroComp;\n        isHomeChain = _isHomeChain;\n\n        // Swap paths\n        _unpackSwapPaths(_swapPaths, _swapPathStartIndexes);\n\n        // Corresponding reverse paths\n        token0ToEarnedPath = _reversePath(earnedToToken0Path);\n        token0ToUSDCPath = _reversePath(USDCToToken0Path);\n\n        // Fees\n        controllerFee = _fees[0];\n        buyBackRate = _fees[1];\n        entranceFeeFactor = _fees[2];\n        withdrawFeeFactor = _fees[3];\n\n        // Balancer pools\n        balancerPoolUSDCToWant = _balancerPools[0];\n        balancerPoolUSDCToToken0 = _balancerPools[1];\n\n        // Balancer token weights\n        balancerPoolUSDCWeightBasisPoints = _balancerPoolWeights[0];\n        balancerPoolWantWeightBasisPoints = _balancerPoolWeights[1];\n        balancerPoolEarnWeightBasisPoints = _balancerPoolWeights[2];\n        balancerPoolToken0WeightBasisPoints = _balancerPoolWeights[3];\n    }\n\n    /* State */\n\n    address public balancerVaultAddress =\n        0xa82f327BBbF0667356D2935C6532d164b06cEced; // Address of Balancer/ACSI.finance Vault for swaps etc.\n    bytes32 public balancerPoolEarnedToTokens =\n        0x894ed9026de37afd9cce1e6c0be7d6b510e3ffe5000100000000000000000001; // The Acryptos ACSI.finance pool ID for swapping Earned token to underlying tokens.\n    bytes32 public balancerLPPool;\n    address public tokenACS = 0x4197C6EF3879a08cD51e5560da5064B773aa1d29;\n    address public tokenACSI = 0x5b17b4d5e4009B5C43e3e3d63A5229F794cBA389;\n    bytes32 public balancerPoolUSDCToWant;\n    bytes32 public balancerPoolUSDCToToken0;\n    uint256 public balancerPoolUSDCWeightBasisPoints;\n    uint256 public balancerPoolWantWeightBasisPoints;\n    uint256 public balancerPoolEarnWeightBasisPoints;\n    uint256 public balancerPoolToken0WeightBasisPoints;\n\n    /* Config */\n\n    function setBalancerVaultAddress(address _balancerVaultAddress)\n        public\n        onlyOwner\n    {\n        balancerVaultAddress = _balancerVaultAddress;\n    }\n\n    function setBalancerPoolEarnedToTokens(bytes32 _balancerPoolEarnedToToken)\n        public\n        onlyOwner\n    {\n        balancerPoolEarnedToTokens = _balancerPoolEarnedToToken;\n    }\n\n    function setBalancerLPPool(bytes32 _balancerLPPool) public onlyOwner {\n        balancerLPPool = _balancerLPPool;\n    }\n\n    function setTokenACS(address _tokenACS) public onlyOwner {\n        tokenACS = _tokenACS;\n    }\n\n    function setTokenACSI(address _tokenACSI) public onlyOwner {\n        tokenACSI = _tokenACSI;\n    }\n\n    function setBalancerPoolUSDCToWant(bytes32 _balancerPoolUSDCToWant)\n        public\n        onlyOwner\n    {\n        balancerPoolUSDCToWant = _balancerPoolUSDCToWant;\n    }\n\n    function setBalancerPoolUSDCToToken0(bytes32 _balancerPoolUSDCToToken0)\n        public\n        onlyOwner\n    {\n        balancerPoolUSDCToToken0 = _balancerPoolUSDCToToken0;\n    }\n\n    function setBalancerPoolUSDCWeightBasisPoints(\n        uint256 _balancerPoolUSDCWeightBasisPoints\n    ) public onlyOwner {\n        balancerPoolUSDCWeightBasisPoints = _balancerPoolUSDCWeightBasisPoints;\n    }\n\n    function setBalancerPoolWantWeightBasisPoints(\n        uint256 _balancerPoolWantWeightBasisPoints\n    ) public onlyOwner {\n        balancerPoolWantWeightBasisPoints = _balancerPoolWantWeightBasisPoints;\n    }\n\n    function setBalancerPoolEarnWeightBasisPoints(\n        uint256 _balancerPoolEarnWeightBasisPoints\n    ) public onlyOwner {\n        balancerPoolEarnWeightBasisPoints = _balancerPoolEarnWeightBasisPoints;\n    }\n\n    function setBalancerPoolToken0WeightBasisPoints(\n        uint256 _balancerPoolToken0WeightBasisPoints\n    ) public onlyOwner {\n        balancerPoolToken0WeightBasisPoints = _balancerPoolToken0WeightBasisPoints;\n    }\n\n    /* Investment Actions */\n\n    /// @notice Receives new deposits from user\n    /// @param _account address of user that this deposit is intended for\n    /// @param _wantAmt amount of Want token to deposit/stake\n    /// @return Number of shares added\n    function depositWantToken(address _account, uint256 _wantAmt)\n        public\n        virtual\n        override\n        onlyZorroController\n        nonReentrant\n        whenNotPaused\n        returns (uint256)\n    {\n        // Get balance of want token (the deposited amount)\n        uint256 _wantBal = IERC20(wantAddress).balanceOf(address(this));\n        // Check to see if Want token was actually deposited, Want amount already present\n        require(_wantAmt > 0, \"Want token deposit must be > 0\");\n        require(_wantAmt <= _wantBal, \"Exceeds Want bal for deposit\");\n\n        // Set sharesAdded to the Want token amount specified\n        uint256 sharesAdded = _wantAmt;\n        // If the total number of shares and want tokens locked both exceed 0, the shares added is the proportion of Want tokens locked,\n        // discounted by the entrance fee\n        if (wantLockedTotal > 0 && sharesTotal > 0) {\n            sharesAdded = _wantAmt\n                .mul(sharesTotal)\n                .mul(entranceFeeFactor)\n                .div(wantLockedTotal)\n                .div(entranceFeeFactorMax);\n        }\n        // Increment the shares\n        sharesTotal = sharesTotal.add(sharesAdded);\n        userShares[_account] = userShares[_account].add(sharesAdded);\n\n        if (isZorroComp) {\n            // If this contract is meant for Autocompounding, start to farm the staked token\n            _farm();\n        } else {\n            // Otherwise, simply increment the quantity of total Want tokens locked\n            wantLockedTotal = wantLockedTotal.add(_wantAmt);\n        }\n\n        return sharesAdded;\n    }\n\n    /// @notice Performs necessary operations to convert USDC into Want token\n    /// @param _amountUSDC The USDC quantity to exchange (must already be deposited)\n    /// @param _maxMarketMovementAllowed The max slippage allowed. 1000 = 0 %, 995 = 0.5%, etc.\n    /// @return Amount of Want token obtained\n    function exchangeUSDForWantToken(\n        uint256 _amountUSDC,\n        uint256 _maxMarketMovementAllowed\n    ) public override onlyZorroController whenNotPaused returns (uint256) {\n        // TODO: Take in current market prices (oracle)\n\n        // Get balance of deposited USDC\n        uint256 _balUSDC = IERC20(tokenUSDCAddress).balanceOf(address(this));\n        // Check that USDC was actually deposited\n        require(_amountUSDC > 0, \"USDC deposit must be > 0\");\n        require(_amountUSDC <= _balUSDC, \"USDC desired exceeded bal\");\n\n        // Swap USDC for tokens\n\n        // Single asset. Swap from USDC directly to Token0\n        _safeSwap(\n            tokenUSDCAddress,\n            token0Address,\n            _amountUSDC,\n            _maxMarketMovementAllowed,\n            USDCToToken0Path,\n            balancerPoolUSDCWeightBasisPoints,\n            balancerPoolToken0WeightBasisPoints,\n            address(this)\n        );\n\n        // Get new Token0 balance\n        uint256 _token0Bal = IERC20(token0Address).balanceOf(address(this));\n\n        // Deposit token to get Want token\n        IAcryptosVault(poolAddress).deposit(_token0Bal);\n\n        // Calculate resulting want token balance\n        uint256 _wantAmt = IERC20(wantAddress).balanceOf(address(this));\n\n        // Transfer back to sender\n        IERC20(wantAddress).safeTransfer(zorroControllerAddress, _wantAmt);\n\n        return _wantAmt;\n    }\n\n    /// @notice Safely swaps tokens using the most suitable protocol based on token\n    /// @param _tokenIn Address of the token being swapped\n    /// @param _tokenOut Address of the desired token\n    /// @param _maxMarketMovementAllowed The max slippage allowed. 1000 = 0 %, 995 = 0.5%, etc.\n    /// @param _balancerPoolTokenInWeightBasisPoints Percentage weight in basis points for _tokenIn (Only required for Balancer-style swaps)\n    /// @param _balancerPoolTokenOutWeightBasisPoints Percentage weight in basis points for _tokenOut (Only required for Balancer-style swaps)\n    /// @param _path Array of addresses describing the swap path (only required for Uniswap-style swaps. Leave blank for Balancer-style swaps)\n    /// @param _destination Address to send swapped funds to\n    function _safeSwap(\n        address _tokenIn,\n        address _tokenOut,\n        uint256 _amountIn,\n        uint256 _maxMarketMovementAllowed,\n        address[] memory _path,\n        uint256 _balancerPoolTokenInWeightBasisPoints,\n        uint256 _balancerPoolTokenOutWeightBasisPoints,\n        address _destination\n    ) internal {\n        if (_tokenIn == tokenACS || _tokenIn == tokenACSI) {\n            // If it's for the Acryptos tokens, swap on ACS Finance (Balancer clone) (Better liquidity for these tokens only)\n            IBalancerVault(balancerVaultAddress).safeSwap(\n                balancerPoolUSDCToWant,\n                _amountIn,\n                _tokenIn,\n                _tokenOut,\n                _maxMarketMovementAllowed,\n                _balancerPoolTokenInWeightBasisPoints,\n                _balancerPoolTokenOutWeightBasisPoints,\n                _destination\n            );\n        } else {\n            // Otherwise, swap on normal Pancakeswap (or Uniswap clone) for simplicity & liquidity\n            IAMMRouter02(uniRouterAddress).safeSwap(\n                _amountIn,\n                _maxMarketMovementAllowed,\n                _path,\n                _destination,\n                block.timestamp.add(600)\n            );\n        }\n    }\n\n    /// @notice Public function for farming Want token.\n    function farm() public virtual nonReentrant {\n        _farm();\n    }\n\n    /// @notice Internal function for farming Want token. Responsible for staking Want token in a MasterChef/MasterApe-like contract\n    function _farm() internal virtual {\n        // Farming should only occur if this contract is set for autocompounding\n        require(isZorroComp, \"!isZorroComp\");\n\n        // Get the Want token stored on this contract\n        uint256 wantAmt = IERC20(wantAddress).balanceOf(address(this));\n        // Increment the total Want tokens locked into this contract\n        wantLockedTotal = wantLockedTotal.add(wantAmt);\n        // Allow the farm contract (e.g. MasterChef) the ability to transfer up to the Want amount\n        IERC20(wantAddress).safeIncreaseAllowance(farmContractAddress, wantAmt);\n\n        // Deposit the Want tokens in the Farm contract\n        IAcryptosFarm(farmContractAddress).deposit(wantAddress, wantAmt);\n    }\n\n    /// @notice Internal function for unfarming Want token. Responsible for unstaking Want token from MasterChef/MasterApe contracts\n    /// @param _wantAmt the amount of Want tokens to withdraw. If 0, will only harvest and not withdraw\n    function _unfarm(uint256 _wantAmt) internal virtual {\n        // Withdraw the Want tokens from the Farm contract\n        IAcryptosFarm(farmContractAddress).withdraw(wantAddress, _wantAmt);\n    }\n\n    /// @notice Fully withdraw Want tokens from the Farm contract (100% withdrawals only)\n    /// @param _account The address of the owner of vault investment\n    /// @param _harvestOnly If true, will only harvest Zorro tokens but not do a withdrawal\n    /// @return The number of shares removed\n    function withdrawWantToken(address _account, bool _harvestOnly)\n        public\n        virtual\n        override\n        onlyZorroController\n        nonReentrant\n        whenNotPaused\n        returns (uint256)\n    {\n        uint256 _wantAmt = 0;\n        if (!_harvestOnly) {\n            uint256 _userNumShares = userShares[_account];\n            _wantAmt = IERC20(wantAddress)\n                .balanceOf(address(this))\n                .mul(_userNumShares)\n                .div(sharesTotal);\n        }\n\n        // Shares removed is proportional to the % of total Want tokens locked that _wantAmt represents\n        uint256 sharesRemoved = _wantAmt.mul(sharesTotal).div(wantLockedTotal);\n        // Safety: cap the shares to the total number of shares\n        if (sharesRemoved > sharesTotal) {\n            sharesRemoved = sharesTotal;\n        }\n        // Decrement the total shares by the sharesRemoved\n        sharesTotal = sharesTotal.sub(sharesRemoved);\n        userShares[_account] = userShares[_account].sub(sharesRemoved);\n\n        // If a withdrawal fee is specified, discount the _wantAmt by the withdrawal fee\n        if (withdrawFeeFactor < withdrawFeeFactorMax) {\n            _wantAmt = _wantAmt.mul(withdrawFeeFactor).div(\n                withdrawFeeFactorMax\n            );\n        }\n\n        // If this contract is designated for auto compounding, unfarm the Want tokens\n        if (isZorroComp) {\n            _unfarm(_wantAmt);\n        }\n\n        // Safety: Check balance of this contract's Want tokens held, and cap _wantAmt to that value\n        uint256 wantAmt = IERC20(wantAddress).balanceOf(address(this));\n        if (_wantAmt > wantAmt) {\n            _wantAmt = wantAmt;\n        }\n        // Safety: cap _wantAmt at the total quantity of Want tokens locked\n        if (wantLockedTotal < _wantAmt) {\n            _wantAmt = wantLockedTotal;\n        }\n\n        // Decrement the total Want locked tokens by the _wantAmt\n        wantLockedTotal = wantLockedTotal.sub(_wantAmt);\n\n        // Finally, transfer the want amount from this contract, back to the ZorroController contract\n        IERC20(wantAddress).safeTransfer(zorroControllerAddress, _wantAmt);\n\n        return sharesRemoved;\n    }\n\n    /// @notice Converts Want token back into USD to be ready for withdrawal and transfers to sender\n    /// @param _amount The Want token quantity to exchange (must be deposited beforehand)\n    /// @param _maxMarketMovementAllowed The max slippage allowed for swaps. 1000 = 0 %, 995 = 0.5%, etc.\n    /// @return Amount of USDC token obtained\n    function exchangeWantTokenForUSD(\n        uint256 _amount,\n        uint256 _maxMarketMovementAllowed\n    )\n        public\n        virtual\n        override\n        onlyZorroController\n        whenNotPaused\n        returns (uint256)\n    {\n        // Init\n        uint256 _amountUSDC;\n\n        // Calculate Want token balance\n        uint256 _wantBal = IERC20(wantAddress).balanceOf(address(this));\n\n        // Preflight checks\n        require(_amount <= _wantBal, \"Exceeds want bal\");\n\n        // Immediately swap the Want token for USDC\n        _safeSwap(\n            wantAddress,\n            tokenUSDCAddress,\n            _amount,\n            _maxMarketMovementAllowed,\n            WantToUSDCPath,\n            balancerPoolWantWeightBasisPoints,\n            balancerPoolUSDCWeightBasisPoints,\n            msg.sender\n        );\n\n        // Calculate USDC balance\n        return IERC20(tokenUSDCAddress).balanceOf(address(this));\n    }\n\n    /// @notice The main compounding (earn) function. Reinvests profits since the last earn event.\n    /// @param _maxMarketMovementAllowed The max slippage allowed. 1000 = 0 %, 995 = 0.5%, etc.\n    function earn(uint256 _maxMarketMovementAllowed)\n        public\n        virtual\n        override\n        nonReentrant\n        whenNotPaused\n    {\n        // Only to be run if this contract is configured for auto-comnpounding\n        require(isZorroComp, \"!isZorroComp\");\n        // If onlyGov is set to true, only allow to proceed if the current caller is the govAddress\n        if (onlyGov) {\n            require(msg.sender == govAddress, \"!gov\");\n        }\n\n        // Harvest farm tokens\n        _unfarm(0);\n\n        // Get the balance of the Earned token on this contract (ACS, etc.)\n        uint256 earnedAmt = IERC20(earnedAddress).balanceOf(address(this));\n\n        // Reassign value of earned amount after distributing fees\n        earnedAmt = _distributeFees(earnedAmt);\n        // Reassign value of earned amount after buying back a certain amount of Zorro, sharing revenue\n        earnedAmt = _buyBackAndRevShare(earnedAmt, _maxMarketMovementAllowed);\n\n        // Swap Earn token for single asset token\n        _safeSwap(\n            earnedAddress,\n            token0Address,\n            earnedAmt,\n            _maxMarketMovementAllowed,\n            earnedToToken0Path,\n            balancerPoolEarnWeightBasisPoints,\n            balancerPoolToken0WeightBasisPoints, \n            address(this)\n        );\n\n        // Redeposit single asset token to get Want token\n        // Get new Token0 balance\n        uint256 _token0Bal = IERC20(token0Address).balanceOf(address(this));\n        // Deposit token to get Want token\n        IAcryptosVault(poolAddress).deposit(_token0Bal);\n\n        // This vault is only for single asset deposits, so farm that token and exit\n        // Update the last earn block\n        lastEarnBlock = block.number;\n        _farm();\n    }\n\n    /// @notice Buys back the earned token on-chain, swaps it to add liquidity to the ZOR pool, then burns the associated LP token\n    /// @dev Requires funds to be sent to this address before calling. Can be called internally OR by controller\n    /// @param _amount The amount of Earn token to buy back  \n    function _buybackOnChain(uint256 _amount, uint256 _maxMarketMovementAllowed) internal override {\n        // TODO***: Adjust this for Acryptos/balancer protocol\n        \n        // Authorize spending beforehand\n        IERC20(earnedAddress).safeIncreaseAllowance(\n            uniRouterAddress,\n            _amount\n        );\n\n        // Swap to Token 0\n        IAMMRouter02(uniRouterAddress).safeSwap(\n            _amount.div(2),\n            slippageFactor,\n            earnedToZORLPPoolToken0Path,\n            address(this),\n            block.timestamp.add(600)\n        );\n\n        // Swap to Token 1\n        IAMMRouter02(uniRouterAddress).safeSwap(\n            _amount.div(2),\n            slippageFactor,\n            earnedToZORLPPoolToken1Path,\n            address(this),\n            block.timestamp.add(600)\n        );\n\n        // Enter LP pool\n        uint256 token0Amt = IERC20(zorroLPPoolToken0).balanceOf(address(this));\n        uint256 token1Amt = IERC20(zorroLPPoolToken1).balanceOf(address(this));\n        IERC20(token0Address).safeIncreaseAllowance(\n            uniRouterAddress,\n            token0Amt\n        );\n        IERC20(token1Address).safeIncreaseAllowance(\n            uniRouterAddress,\n            token1Amt\n        );\n        IAMMRouter02(uniRouterAddress)\n            .addLiquidity(\n                zorroLPPoolToken0,\n                zorroLPPoolToken1,\n                token0Amt,\n                token1Amt,\n                token0Amt.mul(slippageFactor).div(1000),\n                token1Amt.mul(slippageFactor).div(1000),\n                burnAddress,\n                block.timestamp.add(600)\n            );\n    }\n\n    /// @notice Sends the specified earnings amount as revenue share to ZOR stakers\n    /// @param _amount The amount of Earn token to share as revenue with ZOR stakers\n    function _revShareOnChain(uint256 _amount, uint256 _maxMarketMovementAllowed) internal override {\n        // Authorize spending beforehand\n        IERC20(earnedAddress).safeIncreaseAllowance(\n            uniRouterAddress,\n            _amount\n        );\n\n        // Swap to ZOR\n        IAMMRouter02(uniRouterAddress).safeSwap(\n            _amount,\n            _maxMarketMovementAllowed,\n            earnedToZORROPath,\n            zorroStakingVault,\n            block.timestamp.add(600)\n        );\n    }\n\n    /// @notice Swaps Earn token to USDC and sends to destination specified\n    /// @param _earnedAmount Quantity of Earned tokens\n    /// @param _destination Address to send swapped USDC to\n    /// @param _maxMarketMovementAllowed Slippage factor. 950 = 5%, 990 = 1%, etc.\n    function _swapEarnedToUSDC(\n        uint256 _earnedAmount,\n        address _destination,\n        uint256 _maxMarketMovementAllowed\n    ) internal override {\n        // TODO: Change to make Acryptos/Balancer compatible\n        // Perform swap with Uni router\n        IAMMRouter02(uniRouterAddress).safeSwap(\n            _earnedAmount,\n            _maxMarketMovementAllowed,\n            earnedToUSDCPath,\n            _destination,\n            block.timestamp.add(600)\n        );\n    }\n}\n",
  "sourcePath": "/Users/kristophm/Documents/workspace/zorro-protocol/contracts/vaults/VaultAcryptos.sol",
  "compiler": {
    "name": "solc",
    "version": "0.8.10+commit.fc410830.Emscripten.clang"
  },
  "schemaVersion": "3.4.4",
  "updatedAt": "2022-03-15T13:51:09.775Z",
  "devdoc": {
    "kind": "dev",
    "methods": {
      "constructor": {
        "params": {
          "_addresses": "Array of [govAddress, zorroControllerAddress, ZORROAddress, wantAddress, token0Address, earnedAddress, farmContractAddress, rewardsAddress, poolAddress, uniRouterAddress, zorroLPPool, zorroLPPoolToken0, zorroLPPoolToken1]",
          "_balancerPoolWeights": "Weights of assets in Balancer pools. Array of [balancerPoolUSDCWeightBasisPoints, balancerPoolWantWeightBasisPoints, balancerPoolEarnWeightBasisPoints, balancerPoolToken0WeightBasisPoints]",
          "_balancerPools": "Addresses of Balancer pools for performing swaps. Array of [balancerPoolUSDCToWant, balancerPoolUSDCToToken0]",
          "_fees": "Array of [_controllerFee, _buyBackRate, _entranceFeeFactor, _withdrawFeeFactor]",
          "_isCOREStaking": "If true, is for staking just core token of AMM (e.g. CAKE for Pancakeswap, BANANA for Apeswap, etc.). Set to false for Zorro single staking vault",
          "_isHomeChain": "Whether this contract is deployed on the home chain (BSC)",
          "_isZorroComp": "This vault is for compounding. If true, will trigger farming/unfarming on earn events. Set to false for Zorro single staking vault",
          "_pid": "Pool ID this Vault is associated with",
          "_swapPathStartIndexes": "An array of start indexes within _swapPaths to represent the start of a new swap path",
          "_swapPaths": "A flattened array of swap paths for a Uniswap style router. Ordered as: [earnedToZORROPath, earnedToToken0Path, earnedToToken1Path, USDCToToken0Path, USDCToToken1Path, earnedToZORLPPoolToken0Path, earnedToZORLPPoolToken1Path, earnedToUSDCPath]"
        }
      },
      "depositWantToken(address,uint256)": {
        "params": {
          "_account": "address of user that this deposit is intended for",
          "_wantAmt": "amount of Want token to deposit/stake"
        },
        "returns": {
          "_0": "Number of shares added"
        }
      },
      "earn(uint256)": {
        "params": {
          "_maxMarketMovementAllowed": "The max slippage allowed. 1000 = 0 %, 995 = 0.5%, etc."
        }
      },
      "exchangeUSDForWantToken(uint256,uint256)": {
        "params": {
          "_amountUSDC": "The USDC quantity to exchange (must already be deposited)",
          "_maxMarketMovementAllowed": "The max slippage allowed. 1000 = 0 %, 995 = 0.5%, etc."
        },
        "returns": {
          "_0": "Amount of Want token obtained"
        }
      },
      "exchangeWantTokenForUSD(uint256,uint256)": {
        "params": {
          "_amount": "The Want token quantity to exchange (must be deposited beforehand)",
          "_maxMarketMovementAllowed": "The max slippage allowed for swaps. 1000 = 0 %, 995 = 0.5%, etc."
        },
        "returns": {
          "_0": "Amount of USDC token obtained"
        }
      },
      "inCaseTokensGetStuck(address,uint256,address)": {
        "params": {
          "_amount": "The amount of the tokens to transfer",
          "_to": "The address to transfer tokens to",
          "_token": "Address of the ERC20 token to transfer"
        }
      },
      "owner()": {
        "details": "Returns the address of the current owner."
      },
      "paused()": {
        "details": "Returns true if the contract is paused, and false otherwise."
      },
      "renounceOwnership()": {
        "details": "Leaves the contract without owner. It will not be possible to call `onlyOwner` functions anymore. Can only be called by the current owner. NOTE: Renouncing ownership will leave the contract without an owner, thereby removing any functionality that is only available to the owner."
      },
      "setFeeSettings(uint256,uint256,uint256,uint256,uint256)": {
        "params": {
          "_buyBackRate": "Buy back rate fee numerator",
          "_controllerFee": "Controller fee numerator",
          "_entranceFeeFactor": "Entrance fee numerator (higher means smaller percentage)",
          "_slippageFactor": "Slippage factor fee numerator",
          "_withdrawFeeFactor": "Withdrawal fee numerator (higher means smaller percentage)"
        }
      },
      "setGov(address)": {
        "params": {
          "_govAddress": "The new gov address"
        }
      },
      "setOnlyGov(bool)": {
        "params": {
          "_onlyGov": "whether onlyGov should be enforced"
        }
      },
      "transferOwnership(address)": {
        "details": "Transfers ownership of the contract to a new account (`newOwner`). Can only be called by the current owner."
      },
      "withdrawWantToken(address,bool)": {
        "params": {
          "_account": "The address of the owner of vault investment",
          "_harvestOnly": "If true, will only harvest Zorro tokens but not do a withdrawal"
        },
        "returns": {
          "_0": "The number of shares removed"
        }
      }
    },
    "title": "Vault contract for Acryptos single token strategies (e.g. for lending)",
    "version": 1
  },
  "userdoc": {
    "kind": "user",
    "methods": {
      "constructor": {
        "notice": "Constructor"
      },
      "convertDustToEarned()": {
        "notice": "Converts dust tokens into earned tokens, which will be reinvested on the next earn()"
      },
      "depositWantToken(address,uint256)": {
        "notice": "Receives new deposits from user"
      },
      "earn(uint256)": {
        "notice": "The main compounding (earn) function. Reinvests profits since the last earn event."
      },
      "exchangeUSDForWantToken(uint256,uint256)": {
        "notice": "Performs necessary operations to convert USDC into Want token"
      },
      "exchangeWantTokenForUSD(uint256,uint256)": {
        "notice": "Converts Want token back into USD to be ready for withdrawal and transfers to sender"
      },
      "farm()": {
        "notice": "Public function for farming Want token."
      },
      "inCaseTokensGetStuck(address,uint256,address)": {
        "notice": "Safely transfer ERC20 tokens stuck in this contract to a specified address"
      },
      "pause()": {
        "notice": "Pause contract"
      },
      "setFeeSettings(uint256,uint256,uint256,uint256,uint256)": {
        "notice": "Configure key fee parameters"
      },
      "setGov(address)": {
        "notice": "Set governor address"
      },
      "setOnlyGov(bool)": {
        "notice": "Set onlyGov property"
      },
      "unpause()": {
        "notice": "Unpause contract"
      },
      "withdrawWantToken(address,bool)": {
        "notice": "Fully withdraw Want tokens from the Farm contract (100% withdrawals only)"
      }
    },
    "version": 1
  }
}