{
  "contractName": "VaultZorro",
  "abi": [
    {
      "anonymous": false,
      "inputs": [
        {
          "indexed": true,
          "internalType": "address",
          "name": "previousOwner",
          "type": "address"
        },
        {
          "indexed": true,
          "internalType": "address",
          "name": "newOwner",
          "type": "address"
        }
      ],
      "name": "OwnershipTransferred",
      "type": "event"
    },
    {
      "anonymous": false,
      "inputs": [
        {
          "indexed": false,
          "internalType": "address",
          "name": "account",
          "type": "address"
        }
      ],
      "name": "Paused",
      "type": "event"
    },
    {
      "anonymous": false,
      "inputs": [
        {
          "indexed": false,
          "internalType": "address",
          "name": "_govAddress",
          "type": "address"
        }
      ],
      "name": "SetGov",
      "type": "event"
    },
    {
      "anonymous": false,
      "inputs": [
        {
          "indexed": false,
          "internalType": "bool",
          "name": "_onlyGov",
          "type": "bool"
        }
      ],
      "name": "SetOnlyGov",
      "type": "event"
    },
    {
      "anonymous": false,
      "inputs": [
        {
          "indexed": false,
          "internalType": "address",
          "name": "_rewardsAddress",
          "type": "address"
        }
      ],
      "name": "SetRewardsAddress",
      "type": "event"
    },
    {
      "anonymous": false,
      "inputs": [
        {
          "indexed": false,
          "internalType": "uint256",
          "name": "_entranceFeeFactor",
          "type": "uint256"
        },
        {
          "indexed": false,
          "internalType": "uint256",
          "name": "_withdrawFeeFactor",
          "type": "uint256"
        },
        {
          "indexed": false,
          "internalType": "uint256",
          "name": "_controllerFee",
          "type": "uint256"
        },
        {
          "indexed": false,
          "internalType": "uint256",
          "name": "_buyBackRate",
          "type": "uint256"
        }
      ],
      "name": "SetSettings",
      "type": "event"
    },
    {
      "anonymous": false,
      "inputs": [
        {
          "indexed": false,
          "internalType": "address",
          "name": "_uniRouterAddress",
          "type": "address"
        }
      ],
      "name": "SetUniRouterAddress",
      "type": "event"
    },
    {
      "anonymous": false,
      "inputs": [
        {
          "indexed": false,
          "internalType": "address",
          "name": "account",
          "type": "address"
        }
      ],
      "name": "Unpaused",
      "type": "event"
    },
    {
      "inputs": [
        {
          "internalType": "uint256",
          "name": "",
          "type": "uint256"
        }
      ],
      "name": "USDCToToken0Path",
      "outputs": [
        {
          "internalType": "address",
          "name": "",
          "type": "address"
        }
      ],
      "stateMutability": "view",
      "type": "function"
    },
    {
      "inputs": [
        {
          "internalType": "uint256",
          "name": "",
          "type": "uint256"
        }
      ],
      "name": "USDCToToken1Path",
      "outputs": [
        {
          "internalType": "address",
          "name": "",
          "type": "address"
        }
      ],
      "stateMutability": "view",
      "type": "function"
    },
    {
      "inputs": [],
      "name": "ZORPriceFeed",
      "outputs": [
        {
          "internalType": "contract AggregatorV3Interface",
          "name": "",
          "type": "address"
        }
      ],
      "stateMutability": "view",
      "type": "function"
    },
    {
      "inputs": [],
      "name": "ZORROAddress",
      "outputs": [
        {
          "internalType": "address",
          "name": "",
          "type": "address"
        }
      ],
      "stateMutability": "view",
      "type": "function"
    },
    {
      "inputs": [],
      "name": "burnAddress",
      "outputs": [
        {
          "internalType": "address",
          "name": "",
          "type": "address"
        }
      ],
      "stateMutability": "view",
      "type": "function"
    },
    {
      "inputs": [],
      "name": "buyBackRate",
      "outputs": [
        {
          "internalType": "uint256",
          "name": "",
          "type": "uint256"
        }
      ],
      "stateMutability": "view",
      "type": "function"
    },
    {
      "inputs": [],
      "name": "buyBackRateMax",
      "outputs": [
        {
          "internalType": "uint256",
          "name": "",
          "type": "uint256"
        }
      ],
      "stateMutability": "view",
      "type": "function"
    },
    {
      "inputs": [],
      "name": "buyBackRateUL",
      "outputs": [
        {
          "internalType": "uint256",
          "name": "",
          "type": "uint256"
        }
      ],
      "stateMutability": "view",
      "type": "function"
    },
    {
      "inputs": [],
      "name": "controllerFee",
      "outputs": [
        {
          "internalType": "uint256",
          "name": "",
          "type": "uint256"
        }
      ],
      "stateMutability": "view",
      "type": "function"
    },
    {
      "inputs": [],
      "name": "controllerFeeMax",
      "outputs": [
        {
          "internalType": "uint256",
          "name": "",
          "type": "uint256"
        }
      ],
      "stateMutability": "view",
      "type": "function"
    },
    {
      "inputs": [],
      "name": "controllerFeeUL",
      "outputs": [
        {
          "internalType": "uint256",
          "name": "",
          "type": "uint256"
        }
      ],
      "stateMutability": "view",
      "type": "function"
    },
    {
      "inputs": [],
      "name": "earnTokenPriceFeed",
      "outputs": [
        {
          "internalType": "contract AggregatorV3Interface",
          "name": "",
          "type": "address"
        }
      ],
      "stateMutability": "view",
      "type": "function"
    },
    {
      "inputs": [],
      "name": "earnedAddress",
      "outputs": [
        {
          "internalType": "address",
          "name": "",
          "type": "address"
        }
      ],
      "stateMutability": "view",
      "type": "function"
    },
    {
      "inputs": [
        {
          "internalType": "uint256",
          "name": "",
          "type": "uint256"
        }
      ],
      "name": "earnedToToken0Path",
      "outputs": [
        {
          "internalType": "address",
          "name": "",
          "type": "address"
        }
      ],
      "stateMutability": "view",
      "type": "function"
    },
    {
      "inputs": [
        {
          "internalType": "uint256",
          "name": "",
          "type": "uint256"
        }
      ],
      "name": "earnedToToken1Path",
      "outputs": [
        {
          "internalType": "address",
          "name": "",
          "type": "address"
        }
      ],
      "stateMutability": "view",
      "type": "function"
    },
    {
      "inputs": [
        {
          "internalType": "uint256",
          "name": "",
          "type": "uint256"
        }
      ],
      "name": "earnedToUSDCPath",
      "outputs": [
        {
          "internalType": "address",
          "name": "",
          "type": "address"
        }
      ],
      "stateMutability": "view",
      "type": "function"
    },
    {
      "inputs": [
        {
          "internalType": "uint256",
          "name": "",
          "type": "uint256"
        }
      ],
      "name": "earnedToZORLPPoolOtherTokenPath",
      "outputs": [
        {
          "internalType": "address",
          "name": "",
          "type": "address"
        }
      ],
      "stateMutability": "view",
      "type": "function"
    },
    {
      "inputs": [
        {
          "internalType": "uint256",
          "name": "",
          "type": "uint256"
        }
      ],
      "name": "earnedToZORROPath",
      "outputs": [
        {
          "internalType": "address",
          "name": "",
          "type": "address"
        }
      ],
      "stateMutability": "view",
      "type": "function"
    },
    {
      "inputs": [],
      "name": "entranceFeeFactor",
      "outputs": [
        {
          "internalType": "uint256",
          "name": "",
          "type": "uint256"
        }
      ],
      "stateMutability": "view",
      "type": "function"
    },
    {
      "inputs": [],
      "name": "entranceFeeFactorLL",
      "outputs": [
        {
          "internalType": "uint256",
          "name": "",
          "type": "uint256"
        }
      ],
      "stateMutability": "view",
      "type": "function"
    },
    {
      "inputs": [],
      "name": "entranceFeeFactorMax",
      "outputs": [
        {
          "internalType": "uint256",
          "name": "",
          "type": "uint256"
        }
      ],
      "stateMutability": "view",
      "type": "function"
    },
    {
      "inputs": [],
      "name": "farmContractAddress",
      "outputs": [
        {
          "internalType": "address",
          "name": "",
          "type": "address"
        }
      ],
      "stateMutability": "view",
      "type": "function"
    },
    {
      "inputs": [],
      "name": "govAddress",
      "outputs": [
        {
          "internalType": "address",
          "name": "",
          "type": "address"
        }
      ],
      "stateMutability": "view",
      "type": "function"
    },
    {
      "inputs": [
        {
          "internalType": "address",
          "name": "_token",
          "type": "address"
        },
        {
          "internalType": "uint256",
          "name": "_amount",
          "type": "uint256"
        },
        {
          "internalType": "address",
          "name": "_to",
          "type": "address"
        }
      ],
      "name": "inCaseTokensGetStuck",
      "outputs": [],
      "stateMutability": "nonpayable",
      "type": "function"
    },
    {
      "inputs": [],
      "name": "isCOREStaking",
      "outputs": [
        {
          "internalType": "bool",
          "name": "",
          "type": "bool"
        }
      ],
      "stateMutability": "view",
      "type": "function"
    },
    {
      "inputs": [],
      "name": "isHomeChain",
      "outputs": [
        {
          "internalType": "bool",
          "name": "",
          "type": "bool"
        }
      ],
      "stateMutability": "view",
      "type": "function"
    },
    {
      "inputs": [],
      "name": "isSingleAssetDeposit",
      "outputs": [
        {
          "internalType": "bool",
          "name": "",
          "type": "bool"
        }
      ],
      "stateMutability": "view",
      "type": "function"
    },
    {
      "inputs": [],
      "name": "isZorroComp",
      "outputs": [
        {
          "internalType": "bool",
          "name": "",
          "type": "bool"
        }
      ],
      "stateMutability": "view",
      "type": "function"
    },
    {
      "inputs": [],
      "name": "lastEarnBlock",
      "outputs": [
        {
          "internalType": "uint256",
          "name": "",
          "type": "uint256"
        }
      ],
      "stateMutability": "view",
      "type": "function"
    },
    {
      "inputs": [],
      "name": "lpPoolOtherTokenPriceFeed",
      "outputs": [
        {
          "internalType": "contract AggregatorV3Interface",
          "name": "",
          "type": "address"
        }
      ],
      "stateMutability": "view",
      "type": "function"
    },
    {
      "inputs": [],
      "name": "onlyGov",
      "outputs": [
        {
          "internalType": "bool",
          "name": "",
          "type": "bool"
        }
      ],
      "stateMutability": "view",
      "type": "function"
    },
    {
      "inputs": [],
      "name": "owner",
      "outputs": [
        {
          "internalType": "address",
          "name": "",
          "type": "address"
        }
      ],
      "stateMutability": "view",
      "type": "function"
    },
    {
      "inputs": [],
      "name": "pause",
      "outputs": [],
      "stateMutability": "nonpayable",
      "type": "function"
    },
    {
      "inputs": [],
      "name": "paused",
      "outputs": [
        {
          "internalType": "bool",
          "name": "",
          "type": "bool"
        }
      ],
      "stateMutability": "view",
      "type": "function"
    },
    {
      "inputs": [],
      "name": "pid",
      "outputs": [
        {
          "internalType": "uint256",
          "name": "",
          "type": "uint256"
        }
      ],
      "stateMutability": "view",
      "type": "function"
    },
    {
      "inputs": [],
      "name": "poolAddress",
      "outputs": [
        {
          "internalType": "address",
          "name": "",
          "type": "address"
        }
      ],
      "stateMutability": "view",
      "type": "function"
    },
    {
      "inputs": [],
      "name": "renounceOwnership",
      "outputs": [],
      "stateMutability": "nonpayable",
      "type": "function"
    },
    {
      "inputs": [],
      "name": "revShareRate",
      "outputs": [
        {
          "internalType": "uint256",
          "name": "",
          "type": "uint256"
        }
      ],
      "stateMutability": "view",
      "type": "function"
    },
    {
      "inputs": [],
      "name": "revShareRateMax",
      "outputs": [
        {
          "internalType": "uint256",
          "name": "",
          "type": "uint256"
        }
      ],
      "stateMutability": "view",
      "type": "function"
    },
    {
      "inputs": [],
      "name": "revShareRateUL",
      "outputs": [
        {
          "internalType": "uint256",
          "name": "",
          "type": "uint256"
        }
      ],
      "stateMutability": "view",
      "type": "function"
    },
    {
      "inputs": [],
      "name": "rewardsAddress",
      "outputs": [
        {
          "internalType": "address",
          "name": "",
          "type": "address"
        }
      ],
      "stateMutability": "view",
      "type": "function"
    },
    {
      "inputs": [
        {
          "internalType": "address",
          "name": "_earnedAddress",
          "type": "address"
        }
      ],
      "name": "setEarnedAddress",
      "outputs": [],
      "stateMutability": "nonpayable",
      "type": "function"
    },
    {
      "inputs": [
        {
          "internalType": "address",
          "name": "_farmContractAddress",
          "type": "address"
        }
      ],
      "name": "setFarmContractAddress",
      "outputs": [],
      "stateMutability": "nonpayable",
      "type": "function"
    },
    {
      "inputs": [
        {
          "internalType": "uint256",
          "name": "_entranceFeeFactor",
          "type": "uint256"
        },
        {
          "internalType": "uint256",
          "name": "_withdrawFeeFactor",
          "type": "uint256"
        },
        {
          "internalType": "uint256",
          "name": "_controllerFee",
          "type": "uint256"
        },
        {
          "internalType": "uint256",
          "name": "_buyBackRate",
          "type": "uint256"
        }
      ],
      "name": "setFeeSettings",
      "outputs": [],
      "stateMutability": "nonpayable",
      "type": "function"
    },
    {
      "inputs": [
        {
          "internalType": "address",
          "name": "_govAddress",
          "type": "address"
        }
      ],
      "name": "setGov",
      "outputs": [],
      "stateMutability": "nonpayable",
      "type": "function"
    },
    {
      "inputs": [
        {
          "internalType": "bool",
          "name": "_onlyGov",
          "type": "bool"
        }
      ],
      "name": "setOnlyGov",
      "outputs": [],
      "stateMutability": "nonpayable",
      "type": "function"
    },
    {
      "inputs": [
        {
          "internalType": "uint256",
          "name": "_pid",
          "type": "uint256"
        }
      ],
      "name": "setPid",
      "outputs": [],
      "stateMutability": "nonpayable",
      "type": "function"
    },
    {
      "inputs": [
        {
          "internalType": "address",
          "name": "_poolAddress",
          "type": "address"
        }
      ],
      "name": "setPoolAddress",
      "outputs": [],
      "stateMutability": "nonpayable",
      "type": "function"
    },
    {
      "inputs": [
        {
          "internalType": "uint8",
          "name": "_idx",
          "type": "uint8"
        },
        {
          "internalType": "address",
          "name": "_priceFeed",
          "type": "address"
        }
      ],
      "name": "setPriceFeed",
      "outputs": [],
      "stateMutability": "nonpayable",
      "type": "function"
    },
    {
      "inputs": [
        {
          "internalType": "address",
          "name": "_rewardsAddress",
          "type": "address"
        }
      ],
      "name": "setRewardsAddress",
      "outputs": [],
      "stateMutability": "nonpayable",
      "type": "function"
    },
    {
      "inputs": [
        {
          "internalType": "uint8",
          "name": "_idx",
          "type": "uint8"
        },
        {
          "internalType": "address[]",
          "name": "_path",
          "type": "address[]"
        }
      ],
      "name": "setSwapPaths",
      "outputs": [],
      "stateMutability": "nonpayable",
      "type": "function"
    },
    {
      "inputs": [
        {
          "internalType": "address",
          "name": "_token0Address",
          "type": "address"
        }
      ],
      "name": "setToken0Address",
      "outputs": [],
      "stateMutability": "nonpayable",
      "type": "function"
    },
    {
      "inputs": [
        {
          "internalType": "address",
          "name": "_token1Address",
          "type": "address"
        }
      ],
      "name": "setToken1Address",
      "outputs": [],
      "stateMutability": "nonpayable",
      "type": "function"
    },
    {
      "inputs": [
        {
          "internalType": "address",
          "name": "_tokenUSDCAddress",
          "type": "address"
        }
      ],
      "name": "setTokenUSDCAddress",
      "outputs": [],
      "stateMutability": "nonpayable",
      "type": "function"
    },
    {
      "inputs": [
        {
          "internalType": "address",
          "name": "_uniRouterAddress",
          "type": "address"
        }
      ],
      "name": "setUniRouterAddress",
      "outputs": [],
      "stateMutability": "nonpayable",
      "type": "function"
    },
    {
      "inputs": [
        {
          "internalType": "address",
          "name": "_wantAddress",
          "type": "address"
        }
      ],
      "name": "setWantAddress",
      "outputs": [],
      "stateMutability": "nonpayable",
      "type": "function"
    },
    {
      "inputs": [
        {
          "internalType": "address",
          "name": "_ZORROAddress",
          "type": "address"
        }
      ],
      "name": "setZORROAddress",
      "outputs": [],
      "stateMutability": "nonpayable",
      "type": "function"
    },
    {
      "inputs": [
        {
          "internalType": "address",
          "name": "_zorroControllerAddress",
          "type": "address"
        }
      ],
      "name": "setZorroControllerAddress",
      "outputs": [],
      "stateMutability": "nonpayable",
      "type": "function"
    },
    {
      "inputs": [
        {
          "internalType": "address",
          "name": "_poolAddress",
          "type": "address"
        }
      ],
      "name": "setZorroLPPoolAddress",
      "outputs": [],
      "stateMutability": "nonpayable",
      "type": "function"
    },
    {
      "inputs": [
        {
          "internalType": "address",
          "name": "_otherToken",
          "type": "address"
        }
      ],
      "name": "setZorroLPPoolOtherToken",
      "outputs": [],
      "stateMutability": "nonpayable",
      "type": "function"
    },
    {
      "inputs": [
        {
          "internalType": "address",
          "name": "_stakingVault",
          "type": "address"
        }
      ],
      "name": "setZorroStakingVault",
      "outputs": [],
      "stateMutability": "nonpayable",
      "type": "function"
    },
    {
      "inputs": [],
      "name": "sharesTotal",
      "outputs": [
        {
          "internalType": "uint256",
          "name": "",
          "type": "uint256"
        }
      ],
      "stateMutability": "view",
      "type": "function"
    },
    {
      "inputs": [],
      "name": "token0Address",
      "outputs": [
        {
          "internalType": "address",
          "name": "",
          "type": "address"
        }
      ],
      "stateMutability": "view",
      "type": "function"
    },
    {
      "inputs": [],
      "name": "token0PriceFeed",
      "outputs": [
        {
          "internalType": "contract AggregatorV3Interface",
          "name": "",
          "type": "address"
        }
      ],
      "stateMutability": "view",
      "type": "function"
    },
    {
      "inputs": [
        {
          "internalType": "uint256",
          "name": "",
          "type": "uint256"
        }
      ],
      "name": "token0ToUSDCPath",
      "outputs": [
        {
          "internalType": "address",
          "name": "",
          "type": "address"
        }
      ],
      "stateMutability": "view",
      "type": "function"
    },
    {
      "inputs": [],
      "name": "token1Address",
      "outputs": [
        {
          "internalType": "address",
          "name": "",
          "type": "address"
        }
      ],
      "stateMutability": "view",
      "type": "function"
    },
    {
      "inputs": [],
      "name": "token1PriceFeed",
      "outputs": [
        {
          "internalType": "contract AggregatorV3Interface",
          "name": "",
          "type": "address"
        }
      ],
      "stateMutability": "view",
      "type": "function"
    },
    {
      "inputs": [
        {
          "internalType": "uint256",
          "name": "",
          "type": "uint256"
        }
      ],
      "name": "token1ToUSDCPath",
      "outputs": [
        {
          "internalType": "address",
          "name": "",
          "type": "address"
        }
      ],
      "stateMutability": "view",
      "type": "function"
    },
    {
      "inputs": [],
      "name": "tokenUSDCAddress",
      "outputs": [
        {
          "internalType": "address",
          "name": "",
          "type": "address"
        }
      ],
      "stateMutability": "view",
      "type": "function"
    },
    {
      "inputs": [
        {
          "internalType": "address",
          "name": "newOwner",
          "type": "address"
        }
      ],
      "name": "transferOwnership",
      "outputs": [],
      "stateMutability": "nonpayable",
      "type": "function"
    },
    {
      "inputs": [],
      "name": "uniRouterAddress",
      "outputs": [
        {
          "internalType": "address",
          "name": "",
          "type": "address"
        }
      ],
      "stateMutability": "view",
      "type": "function"
    },
    {
      "inputs": [],
      "name": "unpause",
      "outputs": [],
      "stateMutability": "nonpayable",
      "type": "function"
    },
    {
      "inputs": [
        {
          "internalType": "address",
          "name": "",
          "type": "address"
        }
      ],
      "name": "userShares",
      "outputs": [
        {
          "internalType": "uint256",
          "name": "",
          "type": "uint256"
        }
      ],
      "stateMutability": "view",
      "type": "function"
    },
    {
      "inputs": [],
      "name": "wantAddress",
      "outputs": [
        {
          "internalType": "address",
          "name": "",
          "type": "address"
        }
      ],
      "stateMutability": "view",
      "type": "function"
    },
    {
      "inputs": [],
      "name": "wantLockedTotal",
      "outputs": [
        {
          "internalType": "uint256",
          "name": "",
          "type": "uint256"
        }
      ],
      "stateMutability": "view",
      "type": "function"
    },
    {
      "inputs": [],
      "name": "withdrawFeeFactor",
      "outputs": [
        {
          "internalType": "uint256",
          "name": "",
          "type": "uint256"
        }
      ],
      "stateMutability": "view",
      "type": "function"
    },
    {
      "inputs": [],
      "name": "withdrawFeeFactorLL",
      "outputs": [
        {
          "internalType": "uint256",
          "name": "",
          "type": "uint256"
        }
      ],
      "stateMutability": "view",
      "type": "function"
    },
    {
      "inputs": [],
      "name": "withdrawFeeFactorMax",
      "outputs": [
        {
          "internalType": "uint256",
          "name": "",
          "type": "uint256"
        }
      ],
      "stateMutability": "view",
      "type": "function"
    },
    {
      "inputs": [],
      "name": "zorroControllerAddress",
      "outputs": [
        {
          "internalType": "address",
          "name": "",
          "type": "address"
        }
      ],
      "stateMutability": "view",
      "type": "function"
    },
    {
      "inputs": [],
      "name": "zorroLPPool",
      "outputs": [
        {
          "internalType": "address",
          "name": "",
          "type": "address"
        }
      ],
      "stateMutability": "view",
      "type": "function"
    },
    {
      "inputs": [],
      "name": "zorroLPPoolOtherToken",
      "outputs": [
        {
          "internalType": "address",
          "name": "",
          "type": "address"
        }
      ],
      "stateMutability": "view",
      "type": "function"
    },
    {
      "inputs": [],
      "name": "zorroStakingVault",
      "outputs": [
        {
          "internalType": "address",
          "name": "",
          "type": "address"
        }
      ],
      "stateMutability": "view",
      "type": "function"
    },
    {
      "inputs": [],
      "name": "zorroXChainController",
      "outputs": [
        {
          "internalType": "address",
          "name": "",
          "type": "address"
        }
      ],
      "stateMutability": "view",
      "type": "function"
    },
    {
      "inputs": [
        {
          "internalType": "address",
          "name": "_timelockOwner",
          "type": "address"
        },
        {
          "components": [
            {
              "internalType": "uint256",
              "name": "pid",
              "type": "uint256"
            },
            {
              "components": [
                {
                  "internalType": "address",
                  "name": "govAddress",
                  "type": "address"
                },
                {
                  "internalType": "address",
                  "name": "zorroControllerAddress",
                  "type": "address"
                },
                {
                  "internalType": "address",
                  "name": "ZORROAddress",
                  "type": "address"
                },
                {
                  "internalType": "address",
                  "name": "zorroStakingVault",
                  "type": "address"
                },
                {
                  "internalType": "address",
                  "name": "wantAddress",
                  "type": "address"
                },
                {
                  "internalType": "address",
                  "name": "token0Address",
                  "type": "address"
                },
                {
                  "internalType": "address",
                  "name": "token1Address",
                  "type": "address"
                },
                {
                  "internalType": "address",
                  "name": "earnedAddress",
                  "type": "address"
                },
                {
                  "internalType": "address",
                  "name": "farmContractAddress",
                  "type": "address"
                },
                {
                  "internalType": "address",
                  "name": "rewardsAddress",
                  "type": "address"
                },
                {
                  "internalType": "address",
                  "name": "poolAddress",
                  "type": "address"
                },
                {
                  "internalType": "address",
                  "name": "uniRouterAddress",
                  "type": "address"
                },
                {
                  "internalType": "address",
                  "name": "zorroLPPool",
                  "type": "address"
                },
                {
                  "internalType": "address",
                  "name": "zorroLPPoolOtherToken",
                  "type": "address"
                },
                {
                  "internalType": "address",
                  "name": "tokenUSDCAddress",
                  "type": "address"
                }
              ],
              "internalType": "struct VaultBase.VaultAddresses",
              "name": "keyAddresses",
              "type": "tuple"
            },
            {
              "internalType": "address[]",
              "name": "USDCToToken0Path",
              "type": "address[]"
            },
            {
              "components": [
                {
                  "internalType": "uint256",
                  "name": "controllerFee",
                  "type": "uint256"
                },
                {
                  "internalType": "uint256",
                  "name": "buyBackRate",
                  "type": "uint256"
                },
                {
                  "internalType": "uint256",
                  "name": "revShareRate",
                  "type": "uint256"
                },
                {
                  "internalType": "uint256",
                  "name": "entranceFeeFactor",
                  "type": "uint256"
                },
                {
                  "internalType": "uint256",
                  "name": "withdrawFeeFactor",
                  "type": "uint256"
                }
              ],
              "internalType": "struct VaultBase.VaultFees",
              "name": "fees",
              "type": "tuple"
            },
            {
              "components": [
                {
                  "internalType": "address",
                  "name": "token0PriceFeed",
                  "type": "address"
                },
                {
                  "internalType": "address",
                  "name": "token1PriceFeed",
                  "type": "address"
                },
                {
                  "internalType": "address",
                  "name": "earnTokenPriceFeed",
                  "type": "address"
                },
                {
                  "internalType": "address",
                  "name": "ZORPriceFeed",
                  "type": "address"
                },
                {
                  "internalType": "address",
                  "name": "lpPoolOtherTokenPriceFeed",
                  "type": "address"
                }
              ],
              "internalType": "struct VaultBase.VaultPriceFeeds",
              "name": "priceFeeds",
              "type": "tuple"
            }
          ],
          "internalType": "struct VaultZorro.VaultZorroInit",
          "name": "_initValue",
          "type": "tuple"
        }
      ],
      "name": "initialize",
      "outputs": [],
      "stateMutability": "nonpayable",
      "type": "function"
    },
    {
      "inputs": [
        {
          "internalType": "address",
          "name": "_timelockOwner",
          "type": "address"
        }
      ],
      "name": "initialize",
      "outputs": [],
      "stateMutability": "nonpayable",
      "type": "function"
    },
    {
      "inputs": [
        {
          "internalType": "address",
          "name": "_account",
          "type": "address"
        },
        {
          "internalType": "uint256",
          "name": "_wantAmt",
          "type": "uint256"
        }
      ],
      "name": "depositWantToken",
      "outputs": [
        {
          "internalType": "uint256",
          "name": "",
          "type": "uint256"
        }
      ],
      "stateMutability": "nonpayable",
      "type": "function"
    },
    {
      "inputs": [
        {
          "internalType": "uint256",
          "name": "_amountUSDC",
          "type": "uint256"
        },
        {
          "internalType": "uint256",
          "name": "_maxMarketMovementAllowed",
          "type": "uint256"
        }
      ],
      "name": "exchangeUSDForWantToken",
      "outputs": [
        {
          "internalType": "uint256",
          "name": "",
          "type": "uint256"
        }
      ],
      "stateMutability": "nonpayable",
      "type": "function"
    },
    {
      "inputs": [],
      "name": "farm",
      "outputs": [],
      "stateMutability": "nonpayable",
      "type": "function"
    },
    {
      "inputs": [
        {
          "internalType": "address",
          "name": "_account",
          "type": "address"
        },
        {
          "internalType": "uint256",
          "name": "_wantAmt",
          "type": "uint256"
        }
      ],
      "name": "withdrawWantToken",
      "outputs": [
        {
          "internalType": "uint256",
          "name": "",
          "type": "uint256"
        }
      ],
      "stateMutability": "nonpayable",
      "type": "function"
    },
    {
      "inputs": [
        {
          "internalType": "uint256",
          "name": "_amount",
          "type": "uint256"
        },
        {
          "internalType": "uint256",
          "name": "_maxMarketMovementAllowed",
          "type": "uint256"
        }
      ],
      "name": "exchangeWantTokenForUSD",
      "outputs": [
        {
          "internalType": "uint256",
          "name": "",
          "type": "uint256"
        }
      ],
      "stateMutability": "nonpayable",
      "type": "function"
    },
    {
      "inputs": [
        {
          "internalType": "uint256",
          "name": "_maxMarketMovementAllowed",
          "type": "uint256"
        }
      ],
      "name": "earn",
      "outputs": [],
      "stateMutability": "nonpayable",
      "type": "function"
    }
  ],
  "bytecode": "0x608060405261270660de5561271060df5534801561001c57600080fd5b506137178061002c6000396000f3fe608060405234801561001057600080fd5b50600436106104fd5760003560e060020a90048063866b20181161029d578063c6efd5771161016b578063e7a03679116100dd578063f106845411610096578063f106845414610a7d578063f25342bf14610a86578063f2fde38b14610a99578063f5046a2914610aac578063fbf5683f14610abf578063ff29b39514610ad257600080fd5b8063e7a0367914610a23578063e9e15b4f14610a36578063ebfba7c414610a49578063edf5e58514610a5c578063ee50dc34146105f0578063efa0280814610a7057600080fd5b8063de69b3aa1161012f578063de69b3aa146109a4578063de841991146109c4578063e0ccabfa146109d7578063e502a88d146109ea578063e65a0117146109fd578063e719847414610a1057600080fd5b8063c6efd57714610945578063c8479cd614610958578063c8e3d18b1461096b578063cfad57a21461097e578063d7cb416f1461099157600080fd5b8063ab196def1161020f578063ba0bb4ab116101c8578063ba0bb4ab146108e6578063bf3a7d40146108f9578063c0973eed1461090c578063c302a4d0146107c2578063c4d66de81461091f578063c5c97cbf1461093257600080fd5b8063ab196def14610887578063ae53e58a1461089a578063b1414dbb146108ad578063b3545c01146105e7578063b73cba2a146108c0578063b86c5f53146108d357600080fd5b8063959334f411610261578063959334f41461081557806396e9aff8146108285780639f703a561461083b5780639fc33a9f1461084e578063a4d2b08314610861578063aabf190b1461087457600080fd5b8063866b2018146107c25780638906758d146107cb5780638b9102dc146107de5780638da5cb5b146107f15780638f4795fe1461080257600080fd5b80634e2cb8b6116103da57806367057b6c1161034c57806370d5ae051161030557806370d5ae051461077a578063715018a6146107835780637bf604d81461078b5780637ff36fbe1461079e5780638456cb59146107b157806385f02dd6146107b957600080fd5b806367057b6c146105f057806367206d401461072557806368f5416214610738578063693a090b146107415780636ca8bd65146107545780636f96f6fa1461076757600080fd5b80635dc05fd51161039e5780635dc05fd5146106b45780635fc77d43146106c65780636183e804146106d957806361b5bf9f146106ec5780636392ab12146106ff578063648794a41461071257600080fd5b80634e2cb8b61461065d578063583bda3b146106705780635b513393146106835780635c975abb146106965780635da79d63146106a157600080fd5b80632717eff31161047357806343788cd21161043757806343788cd2146105f057806344a3955e1461061b57806346008a07146106245780634c5b09da146106375780634ce54ddb1461064a5780634d9f7bb2146105f057600080fd5b80632717eff3146105f05780633214471f146105f957806336e9332d146106025780633f4ba83a1461060a57806342da4eb31461061257600080fd5b80631334903f116104c55780631334903f146105845780631755ff211461058d578063178a8d07146105b85780631b0d8aab146105c15780631e12819a146105d4578063211019d7146105e757600080fd5b806305828d3e14610502578063061c7d48146105175780630b6bb30b146105335780630daef321146105465780630fa4e01e1461057b575b600080fd5b610515610510366004612ddf565b610ae5565b005b61052061012c81565b6040519081526020015b60405180910390f35b610515610541366004612e08565b610b3d565b60cb5461056b9074010000000000000000000000000000000000000000900460ff1681565b604051901515815260200161052a565b61052060e05481565b61052060de5481565b60d7546105a090600160a060020a031681565b604051600160a060020a03909116815260200161052a565b61052060dc5481565b6105156105cf366004612e25565b610be4565b6105156105e2366004612ddf565b610c16565b61052061032081565b61052061271081565b61052060dd5481565b610515610c65565b610515610c92565b61052060e15481565b61052060e25481565b60cb546105a090600160a060020a031681565b610515610645366004612ddf565b610cc9565b60d5546105a090600160a060020a031681565b6105a061066b366004612e25565b610d18565b61051561067e366004612ddf565b610d42565b610515610691366004612e3e565b610d91565b60975460ff1661056b565b6105156106af366004612ddf565b61101e565b60c95461056b90610100900460ff1681565b60cd546105a090600160a060020a031681565b6105156106e7366004612ddf565b61106d565b6105156106fa366004612ddf565b6110bc565b6105a061070d366004612e25565b61110b565b610520610720366004612e70565b61111b565b610515610733366004612e92565b611388565b61052060df5481565b60d8546105a090600160a060020a031681565b610515610762366004612ddf565b611490565b60ef546105a090600160a060020a031681565b6105a061dead81565b6105156114df565b60d9546105a090600160a060020a031681565b60d1546105a090600160a060020a031681565b610515611516565b61052060db5481565b6105206126ac81565b6105156107d9366004612ddf565b61154b565b60c95461056b9062010000900460ff1681565b603354600160a060020a03166105a0565b610515610810366004613089565b61159a565b610515610823366004612ddf565b6117f2565b6105a0610836366004612e25565b611841565b6105a0610849366004612e25565b611851565b60d4546105a090600160a060020a031681565b60cf546105a090600160a060020a031681565b60f0546105a090600160a060020a031681565b60f1546105a090600160a060020a031681565b60ee546105a090600160a060020a031681565b60cc546105a090600160a060020a031681565b6105156108ce366004612ddf565b611861565b6105a06108e1366004612e25565b6118b0565b6105206108f436600461326c565b6118c0565b610515610907366004612ddf565b611acb565b60d6546105a090600160a060020a031681565b61051561092d366004612ddf565b611b1a565b6105a0610940366004612e25565b611b99565b6105a0610953366004612e25565b611ba9565b610515610966366004612ddf565b611bb9565b6105a0610979366004612e25565b611c08565b61051561098c366004612ddf565b611c18565b60d2546105a090600160a060020a031681565b6105206109b2366004612ddf565b60e36020526000908152604090205481565b6105156109d23660046132a7565b611c93565b6105206109e536600461326c565b611de8565b6105206109f8366004612e70565b611ff9565b610515610a0b366004612e25565b612367565b60d3546105a090600160a060020a031681565b60d0546105a090600160a060020a031681565b610515610a44366004612ddf565b6124e1565b60da546105a090600160a060020a031681565b60c95461056b906301000000900460ff1681565b60c95461056b9060ff1681565b61052060ca5481565b60ed546105a090600160a060020a031681565b610515610aa7366004612ddf565b612530565b60ce546105a090600160a060020a031681565b6105a0610acd366004612e25565b6125e8565b610515610ae03660046132da565b6125f8565b603354600160a060020a03163314610b1b5760405160e560020a62461bcd028152600401610b129061335f565b60405180910390fd5b60d28054600160a060020a031916600160a060020a0392909216919091179055565b60cb54600160a060020a03163314610b6a5760405160e560020a62461bcd028152600401610b1290613394565b60cb8054821515740100000000000000000000000000000000000000000274ff0000000000000000000000000000000000000000199091161790556040517f125177ac7b8930dac1e59c2b30b1b6b9191b30af40cf6bbb5d20fec4d44be60f90610bd990831515815260200190565b60405180910390a150565b603354600160a060020a03163314610c115760405160e560020a62461bcd028152600401610b129061335f565b60ca55565b603354600160a060020a03163314610c435760405160e560020a62461bcd028152600401610b129061335f565b60d58054600160a060020a031916600160a060020a0392909216919091179055565b60026065541415610c8b5760405160e560020a62461bcd028152600401610b12906133cb565b6001606555565b60cb54600160a060020a03163314610cbf5760405160e560020a62461bcd028152600401610b1290613394565b610cc76126ff565b565b603354600160a060020a03163314610cf65760405160e560020a62461bcd028152600401610b129061335f565b60d48054600160a060020a031916600160a060020a0392909216919091179055565b60e78181548110610d2857600080fd5b600091825260209091200154600160a060020a0316905081565b603354600160a060020a03163314610d6f5760405160e560020a62461bcd028152600401610b129061335f565b60ce8054600160a060020a031916600160a060020a0392909216919091179055565b60cb54600160a060020a03163314610dbe5760405160e560020a62461bcd028152600401610b1290613394565b6126ac841015610e135760405160e560020a62461bcd02815260206004820152601a60248201527f5f656e7472616e6365466565466163746f7220746f6f206c6f770000000000006044820152606401610b12565b612710841115610e685760405160e560020a62461bcd02815260206004820152601b60248201527f5f656e7472616e6365466565466163746f7220746f6f206869676800000000006044820152606401610b12565b60de8490556126ac831015610ec25760405160e560020a62461bcd02815260206004820152601a60248201527f5f7769746864726177466565466163746f7220746f6f206c6f770000000000006044820152606401610b12565b612710831115610f175760405160e560020a62461bcd02815260206004820152601b60248201527f5f7769746864726177466565466163746f7220746f6f206869676800000000006044820152606401610b12565b60df83905561012c821115610f715760405160e560020a62461bcd02815260206004820152601760248201527f5f636f6e74726f6c6c657246656520746f6f20686967680000000000000000006044820152606401610b12565b60db829055610320811115610fcb5760405160e560020a62461bcd02815260206004820152601560248201527f5f6275794261636b5261746520746f6f206869676800000000000000000000006044820152606401610b12565b60dc8190556040805185815260208101859052908101839052606081018290527fd9968429114ac80bd16723a205e45e46393aefba1f08fb7bdffbad9ef60946089060800160405180910390a150505050565b603354600160a060020a0316331461104b5760405160e560020a62461bcd028152600401610b129061335f565b60d88054600160a060020a031916600160a060020a0392909216919091179055565b603354600160a060020a0316331461109a5760405160e560020a62461bcd028152600401610b129061335f565b60d08054600160a060020a031916600160a060020a0392909216919091179055565b603354600160a060020a031633146110e95760405160e560020a62461bcd028152600401610b129061335f565b60d98054600160a060020a031916600160a060020a0392909216919091179055565b60ea8181548110610d2857600080fd5b60cc54600090600160a060020a031633600160a060020a0316146111545760405160e560020a62461bcd028152600401610b1290613402565b600083116111a75760405160e560020a62461bcd02815260206004820152601460248201527f57616e7420616d74206d757374206265203e20300000000000000000000000006044820152606401610b12565b60d0546111bf90600160a060020a031633308661279e565b60ed546040517f871431bc000000000000000000000000000000000000000000000000000000008152600160a060020a03909116600482015260009073__PriceFeed_____________________________9063871431bc90602401602060405180830381865af4158015611237573d6000803e3d6000fd5b505050506040513d601f19601f8201168201806040525081019061125b9190613439565b60d85460d15491925061127b91600160a060020a0390811691168661284f565b60d85473__SafeSwapUni___________________________90632b08bab190600160a060020a0316868464e8d4a510008860e6336112bb42610258612933565b6040518963ffffffff1660e060020a0281526004016112e198979695949392919061349b565b60006040518083038186803b1580156112f957600080fd5b505af415801561130d573d6000803e3d6000fd5b505060d55460405160e060020a6370a08231028152306004820152600160a060020a0390911692506370a082319150602401602060405180830381865afa15801561135c573d6000803e3d6000fd5b505050506040513d601f19601f820116820180604052508101906113809190613439565b949350505050565b60cb54600160a060020a031633146113b55760405160e560020a62461bcd028152600401610b1290613394565b60d354600160a060020a03848116911614156114165760405160e560020a62461bcd02815260206004820152600560248201527f21736166650000000000000000000000000000000000000000000000000000006044820152606401610b12565b60d054600160a060020a03848116911614156114775760405160e560020a62461bcd02815260206004820152600560248201527f21736166650000000000000000000000000000000000000000000000000000006044820152606401610b12565b61148b600160a060020a0384168284612946565b505050565b603354600160a060020a031633146114bd5760405160e560020a62461bcd028152600401610b129061335f565b60cf8054600160a060020a031916600160a060020a0392909216919091179055565b603354600160a060020a0316331461150c5760405160e560020a62461bcd028152600401610b129061335f565b610cc7600061298f565b60cb54600160a060020a031633146115435760405160e560020a62461bcd028152600401610b1290613394565b610cc76129e1565b603354600160a060020a031633146115785760405160e560020a62461bcd028152600401610b129061335f565b60d68054600160a060020a031916600160a060020a0392909216919091179055565b600054610100900460ff166115b55760005460ff16156115b9565b303b155b6115d85760405160e560020a62461bcd028152600401610b12906134ee565b600054610100900460ff161580156115fa576000805461ffff19166101011790555b815160ca5560c9805463ffffffff19166301000100179055602080830151805160cb805474010000000000000000000000000000000000000000600160a060020a0393841674ffffffffffffffffffffffffffffffffffffffffff19909216919091171790558183015160cc8054600160a060020a031990811692841692909217905560408084015160ce8054841691851691909117905560808085015160d08054851691861691909117905560a085015160d18054851691861691909117905561012085015160d68054851691861691909117905561016085015160d8805485169186169190911790556101c09094015160d580549093169316929092179055606080860151805160db558085015160dc558083015160dd559081015160de559091015160df5583015180516117359260e4920190612cf6565b5061179960e480548060200260200160405190810160405280929190818152602001828054801561178f57602002820191906000526020600020905b8154600160a060020a03168152600190910190602001808311611771575b5050505050612a3c565b80516117ad9160e691602090910190612cf6565b5060808201515160ed8054600160a060020a031916600160a060020a039092169190911790556117dc83611b1a565b801561148b576000805461ff0019169055505050565b603354600160a060020a0316331461181f5760405160e560020a62461bcd028152600401610b129061335f565b60da8054600160a060020a031916600160a060020a0392909216919091179055565b60e98181548110610d2857600080fd5b60ec8181548110610d2857600080fd5b603354600160a060020a0316331461188e5760405160e560020a62461bcd028152600401610b129061335f565b60d38054600160a060020a031916600160a060020a0392909216919091179055565b60e48181548110610d2857600080fd5b60cc54600090600160a060020a031633600160a060020a0316146118f95760405160e560020a62461bcd028152600401610b1290613402565b6002606554141561191f5760405160e560020a62461bcd028152600401610b12906133cb565b600260655560975460ff161561194a5760405160e560020a62461bcd028152600401610b129061354b565b6000821161199d5760405160e560020a62461bcd02815260206004820152601e60248201527f57616e7420746f6b656e206465706f736974206d757374206265203e203000006044820152606401610b12565b60d0546119b590600160a060020a031633308561279e565b60e1548290158015906119ca5750600060e254115b15611a0557611a026127106119fc60e1546119fc60de546119f660e2548a612ad090919063ffffffff16565b90612ad0565b90612adc565b90505b60e254611a129082612933565b60e255600160a060020a038416600090815260e36020526040902054611a389082612933565b600160a060020a03858116600090815260e36020526040908190209290925560d154915160e060020a6370a082310281523060048201529116906370a0823190602401602060405180830381865afa158015611a98573d6000803e3d6000fd5b505050506040513d601f19601f82011682018060405250810190611abc9190613439565b60e15560016065559392505050565b603354600160a060020a03163314611af85760405160e560020a62461bcd028152600401610b129061335f565b60cc8054600160a060020a031916600160a060020a0392909216919091179055565b600054610100900460ff16611b355760005460ff1615611b39565b303b155b611b585760405160e560020a62461bcd028152600401610b12906134ee565b600054610100900460ff16158015611b7a576000805461ffff19166101011790555b611b8382612530565b8015611b95576000805461ff00191690555b5050565b60e58181548110610d2857600080fd5b60e68181548110610d2857600080fd5b603354600160a060020a03163314611be65760405160e560020a62461bcd028152600401610b129061335f565b60d18054600160a060020a031916600160a060020a0392909216919091179055565b60e88181548110610d2857600080fd5b60cb54600160a060020a03163314611c455760405160e560020a62461bcd028152600401610b1290613394565b60cb8054600160a060020a031916600160a060020a0383169081179091556040519081527f91a8c1cc2d4a3bb60738481947a00cbb9899c822916694cf8bb1d68172fdcd5490602001610bd9565b603354600160a060020a03163314611cc05760405160e560020a62461bcd028152600401610b129061335f565b60ff8216611ce95760ed8054600160a060020a038316600160a060020a03199091161790555050565b8160ff1660011415611d165760ee8054600160a060020a038316600160a060020a03199091161790555050565b8160ff1660021415611d435760ef8054600160a060020a038316600160a060020a03199091161790555050565b8160ff1660031415611d705760f18054600160a060020a038316600160a060020a03199091161790555050565b8160ff1660041415611d9d5760f08054600160a060020a038316600160a060020a03199091161790555050565b60405160e560020a62461bcd02815260206004820152601460248201527f756e737570706f727465642066656564206964780000000000000000000000006044820152606401610b12565b60cc54600090600160a060020a031633600160a060020a031614611e215760405160e560020a62461bcd028152600401610b1290613402565b603354600160a060020a03163314611e4e5760405160e560020a62461bcd028152600401610b129061335f565b60026065541415611e745760405160e560020a62461bcd028152600401610b12906133cb565b600260655581611ec95760405160e560020a62461bcd02815260206004820152600d60248201527f77616e7420616d74203c3d2030000000000000000000000000000000000000006044820152606401610b12565b6000611ee660e1546119fc60e25486612ad090919063ffffffff16565b905060e254811115611ef7575060e2545b60e254611f049082612ae8565b60e25560df546127101115611f3157611f2e6127106119fc60df5486612ad090919063ffffffff16565b92505b60d05460405160e060020a6370a08231028152306004820152600091600160a060020a0316906370a0823190602401602060405180830381865afa158015611f7d573d6000803e3d6000fd5b505050506040513d601f19601f82011682018060405250810190611fa19190613439565b905080841115611faf578093505b8360e1541015611fbf5760e15493505b60e154611fcc9085612ae8565b60e15560cc5460d054611fec91600160a060020a03918216911686612946565b5060016065559392505050565b60cc54600090600160a060020a031633600160a060020a0316146120325760405160e560020a62461bcd028152600401610b1290613402565b60975460ff16156120585760405160e560020a62461bcd028152600401610b129061354b565b60d55460405160e060020a6370a08231028152306004820152600091600160a060020a0316906370a0823190602401602060405180830381865afa1580156120a4573d6000803e3d6000fd5b505050506040513d601f19601f820116820180604052508101906120c89190613439565b90506000841161211d5760405160e560020a62461bcd02815260206004820152601860248201527f55534443206465706f736974206d757374206265203e203000000000000000006044820152606401610b12565b808411156121705760405160e560020a62461bcd02815260206004820152601960248201527f5553444320646573697265642065786365656465642062616c000000000000006044820152606401610b12565b60ed546040517f871431bc000000000000000000000000000000000000000000000000000000008152600160a060020a03909116600482015260009073__PriceFeed_____________________________9063871431bc90602401602060405180830381865af41580156121e8573d6000803e3d6000fd5b505050506040513d601f19601f8201168201806040525081019061220c9190613439565b60d85460d55491925061222c91600160a060020a0390811691168761284f565b60d85473__SafeSwapUni___________________________90632b08bab190600160a060020a031661225f886002612adc565b64e8d4a51000858960e43061227642610258612933565b6040518963ffffffff1660e060020a02815260040161229c98979695949392919061349b565b60006040518083038186803b1580156122b457600080fd5b505af41580156122c8573d6000803e3d6000fd5b505060d05460405160e060020a6370a0823102815230600482015260009350600160a060020a0390911691506370a0823190602401602060405180830381865afa15801561231a573d6000803e3d6000fd5b505050506040513d601f19601f8201168201806040525081019061233e9190613439565b60cc5460d05491925061235e91600160a060020a03908116911683612946565b95945050505050565b6002606554141561238d5760405160e560020a62461bcd028152600401610b12906133cb565b600260655560975460ff16156123b85760405160e560020a62461bcd028152600401610b129061354b565b60c95462010000900460ff166124135760405160e560020a62461bcd02815260206004820152600c60248201527f2169735a6f72726f436f6d7000000000000000000000000000000000000000006044820152606401610b12565b60cb5474010000000000000000000000000000000000000000900460ff16156124635760cb54600160a060020a031633146124635760405160e560020a62461bcd028152600401610b1290613394565b4360e05560d15460405160e060020a6370a08231028152306004820152600160a060020a03909116906370a0823190602401602060405180830381865afa1580156124b2573d6000803e3d6000fd5b505050506040513d601f19601f820116820180604052508101906124d69190613439565b60e155506001606555565b603354600160a060020a0316331461250e5760405160e560020a62461bcd028152600401610b129061335f565b60d78054600160a060020a031916600160a060020a0392909216919091179055565b603354600160a060020a0316331461255d5760405160e560020a62461bcd028152600401610b129061335f565b600160a060020a0381166125dc5760405160e560020a62461bcd02815260206004820152602660248201527f4f776e61626c653a206e6577206f776e657220697320746865207a65726f206160448201527f64647265737300000000000000000000000000000000000000000000000000006064820152608401610b12565b6125e58161298f565b50565b60eb8181548110610d2857600080fd5b603354600160a060020a031633146126255760405160e560020a62461bcd028152600401610b129061335f565b60ff831661263f5761263960e48383612d5b565b50505050565b8260ff16600114156126575761263960e58383612d5b565b8260ff166002141561266f5761263960e68383612d5b565b8260ff16600314156126875761263960e78383612d5b565b8260ff166004141561269f5761263960e88383612d5b565b8260ff16600514156126b75761263960e98383612d5b565b8260ff16600614156126cf5761263960ea8383612d5b565b8260ff16600714156126e75761263960eb8383612d5b565b8260ff1660081415611d9d5761263960ec8383612d5b565b60975460ff166127545760405160e560020a62461bcd02815260206004820152601460248201527f5061757361626c653a206e6f74207061757365640000000000000000000000006044820152606401610b12565b6097805460ff191690557f5db9ee0a495bf2e6ff9c91a7834c1ba4fdd244a5e8aa4e537bd38aeae4b073aa335b604051600160a060020a03909116815260200160405180910390a1565b604051600160a060020a03808516602483015283166044820152606481018290526126399085907f23b872dd00000000000000000000000000000000000000000000000000000000906084015b60408051601f198184030181529190526020810180517bffffffffffffffffffffffffffffffffffffffffffffffffffffffff167fffffffff0000000000000000000000000000000000000000000000000000000090931692909217909152612af4565b6040517fdd62ed3e000000000000000000000000000000000000000000000000000000008152306004820152600160a060020a038381166024830152600091839186169063dd62ed3e90604401602060405180830381865afa1580156128b9573d6000803e3d6000fd5b505050506040513d601f19601f820116820180604052508101906128dd9190613439565b6128e7919061359b565b604051600160a060020a0385166024820152604481018290529091506126399085907f095ea7b300000000000000000000000000000000000000000000000000000000906064016127eb565b600061293f828461359b565b9392505050565b604051600160a060020a03831660248201526044810182905261148b9084907fa9059cbb00000000000000000000000000000000000000000000000000000000906064016127eb565b60338054600160a060020a03838116600160a060020a0319831681179093556040519116919082907f8be0079c531659141344cd1fd0a4f28419497f9722a3daafe3b4186f6b6457e090600090a35050565b60975460ff1615612a075760405160e560020a62461bcd028152600401610b129061354b565b6097805460ff191660011790557f62e78cea01bee320cd4e420270b5ea74000d11b0c9f74754ebdbfc544b05a2586127813390565b60608060005b83518161ffff161015612ac95783612a738261ffff16612a6d60018851612ae890919063ffffffff16565b90612ae8565b81518110612a8357612a836135b3565b6020026020010151828261ffff1681518110612aa157612aa16135b3565b600160a060020a0390921660209283029190910190910152612ac2816135cc565b9050612a42565b5092915050565b600061293f82846135ee565b600061293f828461360d565b600061293f8284613632565b6000612b49826040518060400160405280602081526020017f5361666545524332303a206c6f772d6c6576656c2063616c6c206661696c656481525085600160a060020a0316612bdc9092919063ffffffff16565b80519091501561148b5780806020019051810190612b679190613649565b61148b5760405160e560020a62461bcd02815260206004820152602a60248201527f5361666545524332303a204552433230206f7065726174696f6e20646964206e60448201527f6f742073756363656564000000000000000000000000000000000000000000006064820152608401610b12565b6060611380848460008585600160a060020a0385163b612c415760405160e560020a62461bcd02815260206004820152601d60248201527f416464726573733a2063616c6c20746f206e6f6e2d636f6e74726163740000006044820152606401610b12565b60008086600160a060020a03168587604051612c5d9190613692565b60006040518083038185875af1925050503d8060008114612c9a576040519150601f19603f3d011682016040523d82523d6000602084013e612c9f565b606091505b5091509150612caf828286612cba565b979650505050505050565b60608315612cc957508161293f565b825115612cd95782518084602001fd5b8160405160e560020a62461bcd028152600401610b1291906136ae565b828054828255906000526020600020908101928215612d4b579160200282015b82811115612d4b5782518254600160a060020a031916600160a060020a03909116178255602090920191600190910190612d16565b50612d57929150612dae565b5090565b828054828255906000526020600020908101928215612d4b579160200282015b82811115612d4b578154600160a060020a031916600160a060020a03843516178255602090920191600190910190612d7b565b5b80821115612d575760008155600101612daf565b8035600160a060020a0381168114612dda57600080fd5b919050565b600060208284031215612df157600080fd5b61293f82612dc3565b80151581146125e557600080fd5b600060208284031215612e1a57600080fd5b813561293f81612dfa565b600060208284031215612e3757600080fd5b5035919050565b60008060008060808587031215612e5457600080fd5b5050823594602084013594506040840135936060013592509050565b60008060408385031215612e8357600080fd5b50508035926020909101359150565b600080600060608486031215612ea757600080fd5b612eb084612dc3565b925060208401359150612ec560408501612dc3565b90509250925092565b60e060020a634e487b7102600052604160045260246000fd5b60405160a0810167ffffffffffffffff81118282101715612f0a57612f0a612ece565b60405290565b6040516101e0810167ffffffffffffffff81118282101715612f0a57612f0a612ece565b600082601f830112612f4557600080fd5b8135602067ffffffffffffffff80831115612f6257612f62612ece565b818302604051601f19603f83011681018181108482111715612f8657612f86612ece565b604052938452858101830193838101925087851115612fa457600080fd5b83870191505b84821015612caf57612fbb82612dc3565b83529183019190830190612faa565b600060a08284031215612fdc57600080fd5b612fe4612ee7565b9050813581526020820135602082015260408201356040820152606082013560608201526080820135608082015292915050565b600060a0828403121561302a57600080fd5b613032612ee7565b905061303d82612dc3565b815261304b60208301612dc3565b602082015261305c60408301612dc3565b604082015261306d60608301612dc3565b606082015261307e60808301612dc3565b608082015292915050565b6000806040838503121561309c57600080fd5b6130a583612dc3565b9150602083013567ffffffffffffffff808211156130c257600080fd5b908401908186036103608112156130d857600080fd5b6130e0612ee7565b833581526101e080601f19840112156130f857600080fd5b613100612f10565b925061310e60208601612dc3565b835261311c60408601612dc3565b602084015261312d60608601612dc3565b604084015261313e60808601612dc3565b606084015261314f60a08601612dc3565b608084015261316060c08601612dc3565b60a084015261317160e08601612dc3565b60c0840152610100613184818701612dc3565b60e0850152610120613197818801612dc3565b8286015261014091506131ab828801612dc3565b908501526101606131bd878201612dc3565b8286015261018091506131d1828801612dc3565b908501526101a06131e3878201612dc3565b828601526101c091506131f7828801612dc3565b90850152613206868301612dc3565b81850152505081602082015261020084013591508282111561322757600080fd5b61323388838601612f34565b6040820152613246886102208601612fca565b6060820152613259886102c08601613018565b6080820152809450505050509250929050565b6000806040838503121561327f57600080fd5b61328883612dc3565b946020939093013593505050565b803560ff81168114612dda57600080fd5b600080604083850312156132ba57600080fd5b6132c383613296565b91506132d160208401612dc3565b90509250929050565b6000806000604084860312156132ef57600080fd5b6132f884613296565b9250602084013567ffffffffffffffff8082111561331557600080fd5b818601915086601f83011261332957600080fd5b81358181111561333857600080fd5b876020808302850101111561334c57600080fd5b6020830194508093505050509250925092565b6020808252818101527f4f776e61626c653a2063616c6c6572206973206e6f7420746865206f776e6572604082015260600190565b60208082526004908201527f21676f7600000000000000000000000000000000000000000000000000000000604082015260600190565b6020808252601f908201527f5265656e7472616e637947756172643a207265656e7472616e742063616c6c00604082015260600190565b60208082526010908201527f217a6f72726f436f6e74726f6c6c657200000000000000000000000000000000604082015260600190565b60006020828403121561344b57600080fd5b5051919050565b6000815480845260208085019450836000528060002060005b83811015613490578154600160a060020a03168752958201956001918201910161346b565b509495945050505050565b6000610100600160a060020a03808c1684528a60208501528960408501528860608501528760808501528160a08501526134d782850188613452565b951660c0840152505060e001529695505050505050565b6020808252602e908201527f496e697469616c697a61626c653a20636f6e747261637420697320616c72656160408201527f647920696e697469616c697a6564000000000000000000000000000000000000606082015260800190565b60208082526010908201527f5061757361626c653a2070617573656400000000000000000000000000000000604082015260600190565b60e060020a634e487b7102600052601160045260246000fd5b600082198211156135ae576135ae613582565b500190565b60e060020a634e487b7102600052603260045260246000fd5b600061ffff808316818114156135e4576135e4613582565b6001019392505050565b600081600019048311821515161561360857613608613582565b500290565b60008261362d5760e060020a634e487b7102600052601260045260246000fd5b500490565b60008282101561364457613644613582565b500390565b60006020828403121561365b57600080fd5b815161293f81612dfa565b60005b83811015613681578181015183820152602001613669565b838111156126395750506000910152565b600082516136a4818460208701613666565b9190910192915050565b60208152600082518060208401526136cd816040850160208701613666565b601f01601f1916919091016040019291505056fea26469706673582212200d994417f6626fe241d3cee82061478a5e459454d38d9b613eed7d725aeba7d464736f6c634300080a0033",
  "immutableReferences": {},
  "source": "// SPDX-License-Identifier: MIT\npragma solidity ^0.8.0;\n\nimport \"./_VaultBase.sol\";\n\nimport \"../libraries/PriceFeed.sol\";\n\n/// @title VaultZorro. The Vault for staking the Zorro token\n/// @dev Only to be deployed on the home of the ZOR token\ncontract VaultZorro is VaultBase {\n    /* Libraries */\n    using SafeERC20Upgradeable for IERC20Upgradeable;\n    using SafeMathUpgradeable for uint256;\n    using SafeSwapUni for IAMMRouter02;\n    using PriceFeed for AggregatorV3Interface;\n\n    /* Constructor */\n    /// @notice Upgradeable constructor\n    /// @dev NOTE: Only to be deployed on home chain!\n    /// @param _initValue A VaultZorroInit struct that contains all constructor args\n    /// @param _timelockOwner The designated timelock controller address to act as owner\n    function initialize(\n        address _timelockOwner,\n        VaultZorroInit memory _initValue\n    ) public initializer {\n        // Vault config\n        pid = _initValue.pid;\n        isCOREStaking = false;\n        isSingleAssetDeposit = true;\n        isZorroComp = false;\n        isHomeChain = true;\n\n        // Addresses\n        govAddress = _initValue.keyAddresses.govAddress;\n        onlyGov = true;\n        zorroControllerAddress = _initValue.keyAddresses.zorroControllerAddress;\n        ZORROAddress = _initValue.keyAddresses.ZORROAddress;\n        wantAddress = _initValue.keyAddresses.wantAddress;\n        token0Address = _initValue.keyAddresses.token0Address;\n        rewardsAddress = _initValue.keyAddresses.rewardsAddress;\n        uniRouterAddress = _initValue.keyAddresses.uniRouterAddress;\n        tokenUSDCAddress = _initValue.keyAddresses.tokenUSDCAddress;\n\n        // Fees\n        controllerFee = _initValue.fees.controllerFee;\n        buyBackRate = _initValue.fees.buyBackRate;\n        revShareRate = _initValue.fees.revShareRate;\n        entranceFeeFactor = _initValue.fees.entranceFeeFactor;\n        withdrawFeeFactor = _initValue.fees.withdrawFeeFactor;\n\n        // Swap paths\n        USDCToToken0Path = _initValue.USDCToToken0Path;\n        token0ToUSDCPath = _reversePath(USDCToToken0Path);\n\n        // Price feeds\n        token0PriceFeed = AggregatorV3Interface(\n            _initValue.priceFeeds.token0PriceFeed\n        );\n\n        // Super call\n        VaultBase.initialize(_timelockOwner);\n    }\n\n    /* Structs */\n\n    struct VaultZorroInit {\n        uint256 pid;\n        VaultAddresses keyAddresses;\n        address[] USDCToToken0Path;\n        VaultFees fees;\n        VaultPriceFeeds priceFeeds;\n    }\n\n    /* Investment Actions */\n\n    /// @notice Receives new deposits from user\n    /// @param _wantAmt amount of Want token to deposit/stake\n    /// @return uiint256 Number of shares added\n    function depositWantToken(address _account, uint256 _wantAmt)\n        public\n        override\n        onlyZorroController\n        nonReentrant\n        whenNotPaused\n        returns (uint256)\n    {\n        // Preflight checks\n        require(_wantAmt > 0, \"Want token deposit must be > 0\");\n\n        // Transfer Want token from sender\n        IERC20Upgradeable(wantAddress).safeTransferFrom(\n            msg.sender,\n            address(this),\n            _wantAmt\n        );\n\n        // Set sharesAdded to the Want token amount specified\n        uint256 sharesAdded = _wantAmt;\n        // If the total number of shares and want tokens locked both exceed 0, the shares added is the proportion of Want tokens locked,\n        // discounted by the entrance fee\n        if (wantLockedTotal > 0 && sharesTotal > 0) {\n            sharesAdded = _wantAmt\n                .mul(sharesTotal)\n                .mul(entranceFeeFactor)\n                .div(wantLockedTotal)\n                .div(entranceFeeFactorMax);\n        }\n        // Increment the shares\n        sharesTotal = sharesTotal.add(sharesAdded);\n        userShares[_account] = userShares[_account].add(sharesAdded);\n\n        // Update want locked total\n        wantLockedTotal = IERC20Upgradeable(token0Address).balanceOf(address(this));\n\n        return sharesAdded;\n    }\n\n    /// @notice Performs necessary operations to convert USDC into Want token\n    /// @param _amountUSDC The USDC quantity to exchange\n    /// @param _maxMarketMovementAllowed The max slippage allowed. 1000 = 0 %, 995 = 0.5%, etc.\n    /// @return uint256 Amount of Want token obtained\n    function exchangeUSDForWantToken(\n        uint256 _amountUSDC,\n        uint256 _maxMarketMovementAllowed\n    ) public override onlyZorroController whenNotPaused returns (uint256) {\n        // Get balance of deposited USDC\n        uint256 _balUSDC = IERC20Upgradeable(tokenUSDCAddress).balanceOf(address(this));\n        // Check that USDC was actually deposited\n        require(_amountUSDC > 0, \"USDC deposit must be > 0\");\n        require(_amountUSDC <= _balUSDC, \"USDC desired exceeded bal\");\n\n        // Use price feed to determine exchange rates\n        uint256 _token0ExchangeRate = token0PriceFeed.getExchangeRate();\n\n        // Increase allowance\n        IERC20Upgradeable(tokenUSDCAddress).safeIncreaseAllowance(\n            uniRouterAddress,\n            _amountUSDC\n        );\n\n        // Swap USDC for token0\n        IAMMRouter02(uniRouterAddress).safeSwap(\n            _amountUSDC.div(2),\n            1e12,\n            _token0ExchangeRate,\n            _maxMarketMovementAllowed,\n            USDCToToken0Path,\n            address(this),\n            block.timestamp.add(600)\n        );\n\n        // Calculate resulting want token balance\n        uint256 _wantAmt = IERC20Upgradeable(wantAddress).balanceOf(address(this));\n\n        // Transfer back to sender\n        IERC20Upgradeable(wantAddress).safeTransfer(zorroControllerAddress, _wantAmt);\n\n        return _wantAmt;\n    }\n\n    /// @notice Public function for farming Want token.\n    function farm() public nonReentrant {}\n\n    /// @notice Withdraw Want tokens from the Farm contract\n    /// @param _account address of user\n    /// @param _wantAmt The amount of Want token to withdraw\n    /// @return uint256 the number of shares removed\n    function withdrawWantToken(address _account, uint256 _wantAmt)\n        public\n        override\n        onlyZorroController\n        onlyOwner\n        nonReentrant\n        returns (uint256)\n    {\n        // Preflight checks\n        require(_wantAmt > 0, \"want amt <= 0\");\n\n        // Shares removed is proportional to the % of total Want tokens locked that _wantAmt represents\n        uint256 sharesRemoved = _wantAmt.mul(sharesTotal).div(wantLockedTotal);\n        // Safety: cap the shares to the total number of shares\n        if (sharesRemoved > sharesTotal) {\n            sharesRemoved = sharesTotal;\n        }\n        // Decrement the total shares by the sharesRemoved\n        sharesTotal = sharesTotal.sub(sharesRemoved);\n\n        // If a withdrawal fee is specified, discount the _wantAmt by the withdrawal fee\n        if (withdrawFeeFactor < withdrawFeeFactorMax) {\n            _wantAmt = _wantAmt.mul(withdrawFeeFactor).div(\n                withdrawFeeFactorMax\n            );\n        }\n\n        // Safety: Check balance of this contract's Want tokens held, and cap _wantAmt to that value\n        uint256 _wantBal = IERC20Upgradeable(wantAddress).balanceOf(address(this));\n        if (_wantAmt > _wantBal) {\n            _wantAmt = _wantBal;\n        }\n        // Safety: cap _wantAmt at the total quantity of Want tokens locked\n        if (wantLockedTotal < _wantAmt) {\n            _wantAmt = wantLockedTotal;\n        }\n\n        // Decrement the total Want locked tokens by the _wantAmt\n        wantLockedTotal = wantLockedTotal.sub(_wantAmt);\n\n        // Finally, transfer the want amount from this contract, back to the ZorroController contract\n        IERC20Upgradeable(wantAddress).safeTransfer(zorroControllerAddress, _wantAmt);\n\n        return sharesRemoved;\n    }\n\n    /// @notice Converts Want token back into USD to be ready for withdrawal\n    /// @param _amount The Want token quantity to exchange\n    /// @param _maxMarketMovementAllowed The max slippage allowed for swaps. (included here just to implement interface; otherwise unused)\n    /// @return uint256 Amount of USDC token obtained\n    function exchangeWantTokenForUSD(\n        uint256 _amount,\n        uint256 _maxMarketMovementAllowed\n    ) public virtual override onlyZorroController returns (uint256) {\n        // Preflight checks\n        require(_amount > 0, \"Want amt must be > 0\");\n\n        // Safely transfer Want token from sender\n        IERC20Upgradeable(wantAddress).safeTransferFrom(\n            msg.sender,\n            address(this),\n            _amount\n        );\n\n        // Use price feed to determine exchange rates\n        uint256 _token0ExchangeRate = token0PriceFeed.getExchangeRate();\n\n        // Increase allowance\n        IERC20Upgradeable(token0Address).safeIncreaseAllowance(uniRouterAddress, _amount);\n\n        // Swap token0 for USDC\n        IAMMRouter02(uniRouterAddress).safeSwap(\n            _amount,\n            _token0ExchangeRate,\n            1e12,\n            _maxMarketMovementAllowed,\n            token0ToUSDCPath,\n            msg.sender,\n            block.timestamp.add(600)\n        );\n\n        return IERC20Upgradeable(tokenUSDCAddress).balanceOf(address(this));\n    }\n\n    /// @notice The main compounding (earn) function. Reinvests profits since the last earn event.\n    /// @param _maxMarketMovementAllowed The max slippage allowed. (included here just to implement interface; otherwise unused)\n    function earn(uint256 _maxMarketMovementAllowed)\n        public\n        override\n        nonReentrant\n        whenNotPaused\n    {\n        // Only to be run if this contract is configured for auto-comnpounding\n        require(isZorroComp, \"!isZorroComp\");\n        // If onlyGov is set to true, only allow to proceed if the current caller is the govAddress\n        if (onlyGov) {\n            require(msg.sender == govAddress, \"!gov\");\n        }\n\n        // (No distribution of fees/buyback)\n\n        // Update last earned block\n        lastEarnBlock = block.number;\n\n        // Update want locked total\n        wantLockedTotal = IERC20Upgradeable(token0Address).balanceOf(address(this));\n    }\n\n    function _buybackOnChain(\n        uint256 _amount,\n        uint256 _maxMarketMovementAllowed,\n        ExchangeRates memory _rates\n    ) internal override {\n        // Dummy function to implement interface\n    }\n\n    function _revShareOnChain(\n        uint256 _amount,\n        uint256 _maxMarketMovementAllowed,\n        ExchangeRates memory _rates\n    ) internal override {\n        // Dummy function to implement interface\n    }\n\n    function _swapEarnedToUSDC(\n        uint256 _earnedAmount,\n        address _destination,\n        uint256 _maxMarketMovementAllowed,\n        ExchangeRates memory _rates\n    ) internal override {\n        // Dummy function to implement interface\n    }\n}\n",
  "sourcePath": "/Users/kristophm/Documents/workspace/zorro-protocol/contracts/vaults/VaultZorro.sol",
  "compiler": {
    "name": "solc",
    "version": "0.8.10+commit.fc410830.Emscripten.clang"
  },
  "schemaVersion": "3.4.4",
  "updatedAt": "2022-04-14T01:01:43.678Z",
  "devdoc": {
    "details": "Only to be deployed on the home of the ZOR token",
    "kind": "dev",
    "methods": {
      "depositWantToken(address,uint256)": {
        "params": {
          "_wantAmt": "amount of Want token to deposit/stake"
        },
        "returns": {
          "_0": "uiint256 Number of shares added"
        }
      },
      "earn(uint256)": {
        "params": {
          "_maxMarketMovementAllowed": "The max slippage allowed. (included here just to implement interface; otherwise unused)"
        }
      },
      "exchangeUSDForWantToken(uint256,uint256)": {
        "params": {
          "_amountUSDC": "The USDC quantity to exchange",
          "_maxMarketMovementAllowed": "The max slippage allowed. 1000 = 0 %, 995 = 0.5%, etc."
        },
        "returns": {
          "_0": "uint256 Amount of Want token obtained"
        }
      },
      "exchangeWantTokenForUSD(uint256,uint256)": {
        "params": {
          "_amount": "The Want token quantity to exchange",
          "_maxMarketMovementAllowed": "The max slippage allowed for swaps. (included here just to implement interface; otherwise unused)"
        },
        "returns": {
          "_0": "uint256 Amount of USDC token obtained"
        }
      },
      "inCaseTokensGetStuck(address,uint256,address)": {
        "params": {
          "_amount": "The amount of the tokens to transfer",
          "_to": "The address to transfer tokens to",
          "_token": "Address of the ERC20 token to transfer"
        }
      },
      "initialize(address,(uint256,(address,address,address,address,address,address,address,address,address,address,address,address,address,address,address),address[],(uint256,uint256,uint256,uint256,uint256),(address,address,address,address,address)))": {
        "details": "NOTE: Only to be deployed on home chain!",
        "params": {
          "_initValue": "A VaultZorroInit struct that contains all constructor args",
          "_timelockOwner": "The designated timelock controller address to act as owner"
        }
      },
      "owner()": {
        "details": "Returns the address of the current owner."
      },
      "paused()": {
        "details": "Returns true if the contract is paused, and false otherwise."
      },
      "renounceOwnership()": {
        "details": "Leaves the contract without owner. It will not be possible to call `onlyOwner` functions anymore. Can only be called by the current owner. NOTE: Renouncing ownership will leave the contract without an owner, thereby removing any functionality that is only available to the owner."
      },
      "setFeeSettings(uint256,uint256,uint256,uint256)": {
        "params": {
          "_buyBackRate": "Buy back rate fee numerator",
          "_controllerFee": "Controller fee numerator",
          "_entranceFeeFactor": "Entrance fee numerator (higher means smaller percentage)",
          "_withdrawFeeFactor": "Withdrawal fee numerator (higher means smaller percentage)"
        }
      },
      "setGov(address)": {
        "params": {
          "_govAddress": "The new gov address"
        }
      },
      "setOnlyGov(bool)": {
        "params": {
          "_onlyGov": "whether onlyGov should be enforced"
        }
      },
      "transferOwnership(address)": {
        "details": "Transfers ownership of the contract to a new account (`newOwner`). Can only be called by the current owner."
      },
      "withdrawWantToken(address,uint256)": {
        "params": {
          "_account": "address of user",
          "_wantAmt": "The amount of Want token to withdraw"
        },
        "returns": {
          "_0": "uint256 the number of shares removed"
        }
      }
    },
    "title": "VaultZorro. The Vault for staking the Zorro token",
    "version": 1
  },
  "userdoc": {
    "kind": "user",
    "methods": {
      "depositWantToken(address,uint256)": {
        "notice": "Receives new deposits from user"
      },
      "earn(uint256)": {
        "notice": "The main compounding (earn) function. Reinvests profits since the last earn event."
      },
      "exchangeUSDForWantToken(uint256,uint256)": {
        "notice": "Performs necessary operations to convert USDC into Want token"
      },
      "exchangeWantTokenForUSD(uint256,uint256)": {
        "notice": "Converts Want token back into USD to be ready for withdrawal"
      },
      "farm()": {
        "notice": "Public function for farming Want token."
      },
      "inCaseTokensGetStuck(address,uint256,address)": {
        "notice": "Safely transfer ERC20 tokens stuck in this contract to a specified address"
      },
      "initialize(address,(uint256,(address,address,address,address,address,address,address,address,address,address,address,address,address,address,address),address[],(uint256,uint256,uint256,uint256,uint256),(address,address,address,address,address)))": {
        "notice": "Upgradeable constructor"
      },
      "pause()": {
        "notice": "Pause contract"
      },
      "setFeeSettings(uint256,uint256,uint256,uint256)": {
        "notice": "Configure key fee parameters"
      },
      "setGov(address)": {
        "notice": "Set governor address"
      },
      "setOnlyGov(bool)": {
        "notice": "Set onlyGov property"
      },
      "unpause()": {
        "notice": "Unpause contract"
      },
      "withdrawWantToken(address,uint256)": {
        "notice": "Withdraw Want tokens from the Farm contract"
      }
    },
    "version": 1
  }
}