{
  "contractName": "VaultAcryptosSingle",
  "abi": [
    {
      "anonymous": false,
      "inputs": [
        {
          "indexed": true,
          "internalType": "uint256",
          "name": "_amount",
          "type": "uint256"
        }
      ],
      "name": "Buyback",
      "type": "event"
    },
    {
      "anonymous": false,
      "inputs": [
        {
          "indexed": true,
          "internalType": "address",
          "name": "previousOwner",
          "type": "address"
        },
        {
          "indexed": true,
          "internalType": "address",
          "name": "newOwner",
          "type": "address"
        }
      ],
      "name": "OwnershipTransferred",
      "type": "event"
    },
    {
      "anonymous": false,
      "inputs": [
        {
          "indexed": false,
          "internalType": "address",
          "name": "account",
          "type": "address"
        }
      ],
      "name": "Paused",
      "type": "event"
    },
    {
      "anonymous": false,
      "inputs": [
        {
          "indexed": true,
          "internalType": "uint256",
          "name": "_amount",
          "type": "uint256"
        }
      ],
      "name": "RevShare",
      "type": "event"
    },
    {
      "anonymous": false,
      "inputs": [
        {
          "indexed": false,
          "internalType": "address",
          "name": "_govAddress",
          "type": "address"
        }
      ],
      "name": "SetGov",
      "type": "event"
    },
    {
      "anonymous": false,
      "inputs": [
        {
          "indexed": false,
          "internalType": "bool",
          "name": "_onlyGov",
          "type": "bool"
        }
      ],
      "name": "SetOnlyGov",
      "type": "event"
    },
    {
      "anonymous": false,
      "inputs": [
        {
          "indexed": false,
          "internalType": "address",
          "name": "_rewardsAddress",
          "type": "address"
        }
      ],
      "name": "SetRewardsAddress",
      "type": "event"
    },
    {
      "anonymous": false,
      "inputs": [
        {
          "indexed": false,
          "internalType": "uint256",
          "name": "_entranceFeeFactor",
          "type": "uint256"
        },
        {
          "indexed": false,
          "internalType": "uint256",
          "name": "_withdrawFeeFactor",
          "type": "uint256"
        },
        {
          "indexed": false,
          "internalType": "uint256",
          "name": "_controllerFee",
          "type": "uint256"
        },
        {
          "indexed": false,
          "internalType": "uint256",
          "name": "_buyBackRate",
          "type": "uint256"
        },
        {
          "indexed": false,
          "internalType": "uint256",
          "name": "_revShareRate",
          "type": "uint256"
        }
      ],
      "name": "SetSettings",
      "type": "event"
    },
    {
      "anonymous": false,
      "inputs": [
        {
          "indexed": false,
          "internalType": "address",
          "name": "_uniRouterAddress",
          "type": "address"
        }
      ],
      "name": "SetUniRouterAddress",
      "type": "event"
    },
    {
      "anonymous": false,
      "inputs": [
        {
          "indexed": false,
          "internalType": "address",
          "name": "account",
          "type": "address"
        }
      ],
      "name": "Unpaused",
      "type": "event"
    },
    {
      "inputs": [
        {
          "internalType": "uint256",
          "name": "",
          "type": "uint256"
        }
      ],
      "name": "BUSDToLPPoolOtherTokenPath",
      "outputs": [
        {
          "internalType": "address",
          "name": "",
          "type": "address"
        }
      ],
      "stateMutability": "view",
      "type": "function",
      "constant": true
    },
    {
      "inputs": [
        {
          "internalType": "uint256",
          "name": "",
          "type": "uint256"
        }
      ],
      "name": "BUSDToToken0Path",
      "outputs": [
        {
          "internalType": "address",
          "name": "",
          "type": "address"
        }
      ],
      "stateMutability": "view",
      "type": "function",
      "constant": true
    },
    {
      "inputs": [
        {
          "internalType": "uint256",
          "name": "",
          "type": "uint256"
        }
      ],
      "name": "BUSDToZORROPath",
      "outputs": [
        {
          "internalType": "address",
          "name": "",
          "type": "address"
        }
      ],
      "stateMutability": "view",
      "type": "function",
      "constant": true
    },
    {
      "inputs": [
        {
          "internalType": "uint256",
          "name": "",
          "type": "uint256"
        }
      ],
      "name": "USDCToToken0Path",
      "outputs": [
        {
          "internalType": "address",
          "name": "",
          "type": "address"
        }
      ],
      "stateMutability": "view",
      "type": "function",
      "constant": true
    },
    {
      "inputs": [
        {
          "internalType": "uint256",
          "name": "",
          "type": "uint256"
        }
      ],
      "name": "USDCToToken1Path",
      "outputs": [
        {
          "internalType": "address",
          "name": "",
          "type": "address"
        }
      ],
      "stateMutability": "view",
      "type": "function",
      "constant": true
    },
    {
      "inputs": [],
      "name": "ZORPriceFeed",
      "outputs": [
        {
          "internalType": "contract AggregatorV3Interface",
          "name": "",
          "type": "address"
        }
      ],
      "stateMutability": "view",
      "type": "function",
      "constant": true
    },
    {
      "inputs": [],
      "name": "ZORROAddress",
      "outputs": [
        {
          "internalType": "address",
          "name": "",
          "type": "address"
        }
      ],
      "stateMutability": "view",
      "type": "function",
      "constant": true
    },
    {
      "inputs": [],
      "name": "balancerACSWeightBasisPoints",
      "outputs": [
        {
          "internalType": "uint256",
          "name": "",
          "type": "uint256"
        }
      ],
      "stateMutability": "view",
      "type": "function",
      "constant": true
    },
    {
      "inputs": [],
      "name": "balancerBUSDWeightBasisPoints",
      "outputs": [
        {
          "internalType": "uint256",
          "name": "",
          "type": "uint256"
        }
      ],
      "stateMutability": "view",
      "type": "function",
      "constant": true
    },
    {
      "inputs": [],
      "name": "balancerPool",
      "outputs": [
        {
          "internalType": "bytes32",
          "name": "",
          "type": "bytes32"
        }
      ],
      "stateMutability": "view",
      "type": "function",
      "constant": true
    },
    {
      "inputs": [],
      "name": "balancerVaultAddress",
      "outputs": [
        {
          "internalType": "address",
          "name": "",
          "type": "address"
        }
      ],
      "stateMutability": "view",
      "type": "function",
      "constant": true
    },
    {
      "inputs": [],
      "name": "burnAddress",
      "outputs": [
        {
          "internalType": "address",
          "name": "",
          "type": "address"
        }
      ],
      "stateMutability": "view",
      "type": "function",
      "constant": true
    },
    {
      "inputs": [],
      "name": "buyBackRate",
      "outputs": [
        {
          "internalType": "uint256",
          "name": "",
          "type": "uint256"
        }
      ],
      "stateMutability": "view",
      "type": "function",
      "constant": true
    },
    {
      "inputs": [],
      "name": "buyBackRateMax",
      "outputs": [
        {
          "internalType": "uint256",
          "name": "",
          "type": "uint256"
        }
      ],
      "stateMutability": "view",
      "type": "function",
      "constant": true
    },
    {
      "inputs": [],
      "name": "buyBackRateUL",
      "outputs": [
        {
          "internalType": "uint256",
          "name": "",
          "type": "uint256"
        }
      ],
      "stateMutability": "view",
      "type": "function",
      "constant": true
    },
    {
      "inputs": [],
      "name": "controllerFee",
      "outputs": [
        {
          "internalType": "uint256",
          "name": "",
          "type": "uint256"
        }
      ],
      "stateMutability": "view",
      "type": "function",
      "constant": true
    },
    {
      "inputs": [],
      "name": "controllerFeeMax",
      "outputs": [
        {
          "internalType": "uint256",
          "name": "",
          "type": "uint256"
        }
      ],
      "stateMutability": "view",
      "type": "function",
      "constant": true
    },
    {
      "inputs": [],
      "name": "controllerFeeUL",
      "outputs": [
        {
          "internalType": "uint256",
          "name": "",
          "type": "uint256"
        }
      ],
      "stateMutability": "view",
      "type": "function",
      "constant": true
    },
    {
      "inputs": [],
      "name": "earnTokenPriceFeed",
      "outputs": [
        {
          "internalType": "contract AggregatorV3Interface",
          "name": "",
          "type": "address"
        }
      ],
      "stateMutability": "view",
      "type": "function",
      "constant": true
    },
    {
      "inputs": [],
      "name": "earnedAddress",
      "outputs": [
        {
          "internalType": "address",
          "name": "",
          "type": "address"
        }
      ],
      "stateMutability": "view",
      "type": "function",
      "constant": true
    },
    {
      "inputs": [
        {
          "internalType": "uint256",
          "name": "",
          "type": "uint256"
        }
      ],
      "name": "earnedToToken0Path",
      "outputs": [
        {
          "internalType": "address",
          "name": "",
          "type": "address"
        }
      ],
      "stateMutability": "view",
      "type": "function",
      "constant": true
    },
    {
      "inputs": [
        {
          "internalType": "uint256",
          "name": "",
          "type": "uint256"
        }
      ],
      "name": "earnedToToken1Path",
      "outputs": [
        {
          "internalType": "address",
          "name": "",
          "type": "address"
        }
      ],
      "stateMutability": "view",
      "type": "function",
      "constant": true
    },
    {
      "inputs": [
        {
          "internalType": "uint256",
          "name": "",
          "type": "uint256"
        }
      ],
      "name": "earnedToUSDCPath",
      "outputs": [
        {
          "internalType": "address",
          "name": "",
          "type": "address"
        }
      ],
      "stateMutability": "view",
      "type": "function",
      "constant": true
    },
    {
      "inputs": [
        {
          "internalType": "uint256",
          "name": "",
          "type": "uint256"
        }
      ],
      "name": "earnedToZORLPPoolOtherTokenPath",
      "outputs": [
        {
          "internalType": "address",
          "name": "",
          "type": "address"
        }
      ],
      "stateMutability": "view",
      "type": "function",
      "constant": true
    },
    {
      "inputs": [
        {
          "internalType": "uint256",
          "name": "",
          "type": "uint256"
        }
      ],
      "name": "earnedToZORROPath",
      "outputs": [
        {
          "internalType": "address",
          "name": "",
          "type": "address"
        }
      ],
      "stateMutability": "view",
      "type": "function",
      "constant": true
    },
    {
      "inputs": [],
      "name": "entranceFeeFactor",
      "outputs": [
        {
          "internalType": "uint256",
          "name": "",
          "type": "uint256"
        }
      ],
      "stateMutability": "view",
      "type": "function",
      "constant": true
    },
    {
      "inputs": [],
      "name": "entranceFeeFactorLL",
      "outputs": [
        {
          "internalType": "uint256",
          "name": "",
          "type": "uint256"
        }
      ],
      "stateMutability": "view",
      "type": "function",
      "constant": true
    },
    {
      "inputs": [],
      "name": "entranceFeeFactorMax",
      "outputs": [
        {
          "internalType": "uint256",
          "name": "",
          "type": "uint256"
        }
      ],
      "stateMutability": "view",
      "type": "function",
      "constant": true
    },
    {
      "inputs": [],
      "name": "farmContractAddress",
      "outputs": [
        {
          "internalType": "address",
          "name": "",
          "type": "address"
        }
      ],
      "stateMutability": "view",
      "type": "function",
      "constant": true
    },
    {
      "inputs": [],
      "name": "govAddress",
      "outputs": [
        {
          "internalType": "address",
          "name": "",
          "type": "address"
        }
      ],
      "stateMutability": "view",
      "type": "function",
      "constant": true
    },
    {
      "inputs": [
        {
          "internalType": "address",
          "name": "_token",
          "type": "address"
        },
        {
          "internalType": "uint256",
          "name": "_amount",
          "type": "uint256"
        },
        {
          "internalType": "address",
          "name": "_to",
          "type": "address"
        }
      ],
      "name": "inCaseTokensGetStuck",
      "outputs": [],
      "stateMutability": "nonpayable",
      "type": "function"
    },
    {
      "inputs": [],
      "name": "isHomeChain",
      "outputs": [
        {
          "internalType": "bool",
          "name": "",
          "type": "bool"
        }
      ],
      "stateMutability": "view",
      "type": "function",
      "constant": true
    },
    {
      "inputs": [],
      "name": "lastEarnBlock",
      "outputs": [
        {
          "internalType": "uint256",
          "name": "",
          "type": "uint256"
        }
      ],
      "stateMutability": "view",
      "type": "function",
      "constant": true
    },
    {
      "inputs": [],
      "name": "lpPoolOtherTokenPriceFeed",
      "outputs": [
        {
          "internalType": "contract AggregatorV3Interface",
          "name": "",
          "type": "address"
        }
      ],
      "stateMutability": "view",
      "type": "function",
      "constant": true
    },
    {
      "inputs": [],
      "name": "onlyGov",
      "outputs": [
        {
          "internalType": "bool",
          "name": "",
          "type": "bool"
        }
      ],
      "stateMutability": "view",
      "type": "function",
      "constant": true
    },
    {
      "inputs": [],
      "name": "owner",
      "outputs": [
        {
          "internalType": "address",
          "name": "",
          "type": "address"
        }
      ],
      "stateMutability": "view",
      "type": "function",
      "constant": true
    },
    {
      "inputs": [],
      "name": "pause",
      "outputs": [],
      "stateMutability": "nonpayable",
      "type": "function"
    },
    {
      "inputs": [],
      "name": "paused",
      "outputs": [
        {
          "internalType": "bool",
          "name": "",
          "type": "bool"
        }
      ],
      "stateMutability": "view",
      "type": "function",
      "constant": true
    },
    {
      "inputs": [],
      "name": "pid",
      "outputs": [
        {
          "internalType": "uint256",
          "name": "",
          "type": "uint256"
        }
      ],
      "stateMutability": "view",
      "type": "function",
      "constant": true
    },
    {
      "inputs": [],
      "name": "poolAddress",
      "outputs": [
        {
          "internalType": "address",
          "name": "",
          "type": "address"
        }
      ],
      "stateMutability": "view",
      "type": "function",
      "constant": true
    },
    {
      "inputs": [],
      "name": "renounceOwnership",
      "outputs": [],
      "stateMutability": "nonpayable",
      "type": "function"
    },
    {
      "inputs": [],
      "name": "revShareRate",
      "outputs": [
        {
          "internalType": "uint256",
          "name": "",
          "type": "uint256"
        }
      ],
      "stateMutability": "view",
      "type": "function",
      "constant": true
    },
    {
      "inputs": [],
      "name": "revShareRateMax",
      "outputs": [
        {
          "internalType": "uint256",
          "name": "",
          "type": "uint256"
        }
      ],
      "stateMutability": "view",
      "type": "function",
      "constant": true
    },
    {
      "inputs": [],
      "name": "revShareRateUL",
      "outputs": [
        {
          "internalType": "uint256",
          "name": "",
          "type": "uint256"
        }
      ],
      "stateMutability": "view",
      "type": "function",
      "constant": true
    },
    {
      "inputs": [],
      "name": "rewardsAddress",
      "outputs": [
        {
          "internalType": "address",
          "name": "",
          "type": "address"
        }
      ],
      "stateMutability": "view",
      "type": "function",
      "constant": true
    },
    {
      "inputs": [
        {
          "internalType": "address",
          "name": "_burnAddress",
          "type": "address"
        }
      ],
      "name": "setBurnAddress",
      "outputs": [],
      "stateMutability": "nonpayable",
      "type": "function"
    },
    {
      "inputs": [
        {
          "internalType": "address",
          "name": "_earnedAddress",
          "type": "address"
        }
      ],
      "name": "setEarnedAddress",
      "outputs": [],
      "stateMutability": "nonpayable",
      "type": "function"
    },
    {
      "inputs": [
        {
          "internalType": "address",
          "name": "_farmContractAddress",
          "type": "address"
        }
      ],
      "name": "setFarmContractAddress",
      "outputs": [],
      "stateMutability": "nonpayable",
      "type": "function"
    },
    {
      "inputs": [
        {
          "internalType": "uint256",
          "name": "_entranceFeeFactor",
          "type": "uint256"
        },
        {
          "internalType": "uint256",
          "name": "_withdrawFeeFactor",
          "type": "uint256"
        },
        {
          "internalType": "uint256",
          "name": "_controllerFee",
          "type": "uint256"
        },
        {
          "internalType": "uint256",
          "name": "_buyBackRate",
          "type": "uint256"
        },
        {
          "internalType": "uint256",
          "name": "_revShareRate",
          "type": "uint256"
        }
      ],
      "name": "setFeeSettings",
      "outputs": [],
      "stateMutability": "nonpayable",
      "type": "function"
    },
    {
      "inputs": [
        {
          "internalType": "address",
          "name": "_govAddress",
          "type": "address"
        }
      ],
      "name": "setGov",
      "outputs": [],
      "stateMutability": "nonpayable",
      "type": "function"
    },
    {
      "inputs": [
        {
          "internalType": "bool",
          "name": "_onlyGov",
          "type": "bool"
        }
      ],
      "name": "setOnlyGov",
      "outputs": [],
      "stateMutability": "nonpayable",
      "type": "function"
    },
    {
      "inputs": [
        {
          "internalType": "uint256",
          "name": "_pid",
          "type": "uint256"
        }
      ],
      "name": "setPid",
      "outputs": [],
      "stateMutability": "nonpayable",
      "type": "function"
    },
    {
      "inputs": [
        {
          "internalType": "address",
          "name": "_poolAddress",
          "type": "address"
        }
      ],
      "name": "setPoolAddress",
      "outputs": [],
      "stateMutability": "nonpayable",
      "type": "function"
    },
    {
      "inputs": [
        {
          "internalType": "uint8",
          "name": "_idx",
          "type": "uint8"
        },
        {
          "internalType": "address",
          "name": "_priceFeed",
          "type": "address"
        }
      ],
      "name": "setPriceFeed",
      "outputs": [],
      "stateMutability": "nonpayable",
      "type": "function"
    },
    {
      "inputs": [
        {
          "internalType": "address",
          "name": "_rewardsAddress",
          "type": "address"
        }
      ],
      "name": "setRewardsAddress",
      "outputs": [],
      "stateMutability": "nonpayable",
      "type": "function"
    },
    {
      "inputs": [
        {
          "internalType": "uint8",
          "name": "_idx",
          "type": "uint8"
        },
        {
          "internalType": "address[]",
          "name": "_path",
          "type": "address[]"
        }
      ],
      "name": "setSwapPaths",
      "outputs": [],
      "stateMutability": "nonpayable",
      "type": "function"
    },
    {
      "inputs": [
        {
          "internalType": "address",
          "name": "_token0Address",
          "type": "address"
        }
      ],
      "name": "setToken0Address",
      "outputs": [],
      "stateMutability": "nonpayable",
      "type": "function"
    },
    {
      "inputs": [
        {
          "internalType": "address",
          "name": "_token1Address",
          "type": "address"
        }
      ],
      "name": "setToken1Address",
      "outputs": [],
      "stateMutability": "nonpayable",
      "type": "function"
    },
    {
      "inputs": [
        {
          "internalType": "address",
          "name": "_tokenUSDCAddress",
          "type": "address"
        }
      ],
      "name": "setTokenUSDCAddress",
      "outputs": [],
      "stateMutability": "nonpayable",
      "type": "function"
    },
    {
      "inputs": [
        {
          "internalType": "address",
          "name": "_uniRouterAddress",
          "type": "address"
        }
      ],
      "name": "setUniRouterAddress",
      "outputs": [],
      "stateMutability": "nonpayable",
      "type": "function"
    },
    {
      "inputs": [
        {
          "internalType": "address",
          "name": "_wantAddress",
          "type": "address"
        }
      ],
      "name": "setWantAddress",
      "outputs": [],
      "stateMutability": "nonpayable",
      "type": "function"
    },
    {
      "inputs": [
        {
          "internalType": "address",
          "name": "_ZORROAddress",
          "type": "address"
        }
      ],
      "name": "setZORROAddress",
      "outputs": [],
      "stateMutability": "nonpayable",
      "type": "function"
    },
    {
      "inputs": [
        {
          "internalType": "address",
          "name": "_zorroControllerAddress",
          "type": "address"
        }
      ],
      "name": "setZorroControllerAddress",
      "outputs": [],
      "stateMutability": "nonpayable",
      "type": "function"
    },
    {
      "inputs": [
        {
          "internalType": "address",
          "name": "_poolAddress",
          "type": "address"
        }
      ],
      "name": "setZorroLPPoolAddress",
      "outputs": [],
      "stateMutability": "nonpayable",
      "type": "function"
    },
    {
      "inputs": [
        {
          "internalType": "address",
          "name": "_otherToken",
          "type": "address"
        }
      ],
      "name": "setZorroLPPoolOtherToken",
      "outputs": [],
      "stateMutability": "nonpayable",
      "type": "function"
    },
    {
      "inputs": [
        {
          "internalType": "address",
          "name": "_stakingVault",
          "type": "address"
        }
      ],
      "name": "setZorroStakingVault",
      "outputs": [],
      "stateMutability": "nonpayable",
      "type": "function"
    },
    {
      "inputs": [],
      "name": "sharesTotal",
      "outputs": [
        {
          "internalType": "uint256",
          "name": "",
          "type": "uint256"
        }
      ],
      "stateMutability": "view",
      "type": "function",
      "constant": true
    },
    {
      "inputs": [],
      "name": "token0Address",
      "outputs": [
        {
          "internalType": "address",
          "name": "",
          "type": "address"
        }
      ],
      "stateMutability": "view",
      "type": "function",
      "constant": true
    },
    {
      "inputs": [],
      "name": "token0PriceFeed",
      "outputs": [
        {
          "internalType": "contract AggregatorV3Interface",
          "name": "",
          "type": "address"
        }
      ],
      "stateMutability": "view",
      "type": "function",
      "constant": true
    },
    {
      "inputs": [
        {
          "internalType": "uint256",
          "name": "",
          "type": "uint256"
        }
      ],
      "name": "token0ToUSDCPath",
      "outputs": [
        {
          "internalType": "address",
          "name": "",
          "type": "address"
        }
      ],
      "stateMutability": "view",
      "type": "function",
      "constant": true
    },
    {
      "inputs": [],
      "name": "token1Address",
      "outputs": [
        {
          "internalType": "address",
          "name": "",
          "type": "address"
        }
      ],
      "stateMutability": "view",
      "type": "function",
      "constant": true
    },
    {
      "inputs": [],
      "name": "token1PriceFeed",
      "outputs": [
        {
          "internalType": "contract AggregatorV3Interface",
          "name": "",
          "type": "address"
        }
      ],
      "stateMutability": "view",
      "type": "function",
      "constant": true
    },
    {
      "inputs": [
        {
          "internalType": "uint256",
          "name": "",
          "type": "uint256"
        }
      ],
      "name": "token1ToUSDCPath",
      "outputs": [
        {
          "internalType": "address",
          "name": "",
          "type": "address"
        }
      ],
      "stateMutability": "view",
      "type": "function",
      "constant": true
    },
    {
      "inputs": [],
      "name": "tokenACS",
      "outputs": [
        {
          "internalType": "address",
          "name": "",
          "type": "address"
        }
      ],
      "stateMutability": "view",
      "type": "function",
      "constant": true
    },
    {
      "inputs": [],
      "name": "tokenBUSD",
      "outputs": [
        {
          "internalType": "address",
          "name": "",
          "type": "address"
        }
      ],
      "stateMutability": "view",
      "type": "function",
      "constant": true
    },
    {
      "inputs": [],
      "name": "tokenUSDCAddress",
      "outputs": [
        {
          "internalType": "address",
          "name": "",
          "type": "address"
        }
      ],
      "stateMutability": "view",
      "type": "function",
      "constant": true
    },
    {
      "inputs": [
        {
          "internalType": "address",
          "name": "newOwner",
          "type": "address"
        }
      ],
      "name": "transferOwnership",
      "outputs": [],
      "stateMutability": "nonpayable",
      "type": "function"
    },
    {
      "inputs": [],
      "name": "uniRouterAddress",
      "outputs": [
        {
          "internalType": "address",
          "name": "",
          "type": "address"
        }
      ],
      "stateMutability": "view",
      "type": "function",
      "constant": true
    },
    {
      "inputs": [],
      "name": "unpause",
      "outputs": [],
      "stateMutability": "nonpayable",
      "type": "function"
    },
    {
      "inputs": [
        {
          "internalType": "address",
          "name": "",
          "type": "address"
        }
      ],
      "name": "userShares",
      "outputs": [
        {
          "internalType": "uint256",
          "name": "",
          "type": "uint256"
        }
      ],
      "stateMutability": "view",
      "type": "function",
      "constant": true
    },
    {
      "inputs": [],
      "name": "wantAddress",
      "outputs": [
        {
          "internalType": "address",
          "name": "",
          "type": "address"
        }
      ],
      "stateMutability": "view",
      "type": "function",
      "constant": true
    },
    {
      "inputs": [],
      "name": "wantLockedTotal",
      "outputs": [
        {
          "internalType": "uint256",
          "name": "",
          "type": "uint256"
        }
      ],
      "stateMutability": "view",
      "type": "function",
      "constant": true
    },
    {
      "inputs": [],
      "name": "withdrawFeeFactor",
      "outputs": [
        {
          "internalType": "uint256",
          "name": "",
          "type": "uint256"
        }
      ],
      "stateMutability": "view",
      "type": "function",
      "constant": true
    },
    {
      "inputs": [],
      "name": "withdrawFeeFactorLL",
      "outputs": [
        {
          "internalType": "uint256",
          "name": "",
          "type": "uint256"
        }
      ],
      "stateMutability": "view",
      "type": "function",
      "constant": true
    },
    {
      "inputs": [],
      "name": "withdrawFeeFactorMax",
      "outputs": [
        {
          "internalType": "uint256",
          "name": "",
          "type": "uint256"
        }
      ],
      "stateMutability": "view",
      "type": "function",
      "constant": true
    },
    {
      "inputs": [],
      "name": "zorroControllerAddress",
      "outputs": [
        {
          "internalType": "address",
          "name": "",
          "type": "address"
        }
      ],
      "stateMutability": "view",
      "type": "function",
      "constant": true
    },
    {
      "inputs": [],
      "name": "zorroLPPool",
      "outputs": [
        {
          "internalType": "address",
          "name": "",
          "type": "address"
        }
      ],
      "stateMutability": "view",
      "type": "function",
      "constant": true
    },
    {
      "inputs": [],
      "name": "zorroLPPoolOtherToken",
      "outputs": [
        {
          "internalType": "address",
          "name": "",
          "type": "address"
        }
      ],
      "stateMutability": "view",
      "type": "function",
      "constant": true
    },
    {
      "inputs": [],
      "name": "zorroStakingVault",
      "outputs": [
        {
          "internalType": "address",
          "name": "",
          "type": "address"
        }
      ],
      "stateMutability": "view",
      "type": "function",
      "constant": true
    },
    {
      "inputs": [],
      "name": "zorroXChainController",
      "outputs": [
        {
          "internalType": "address",
          "name": "",
          "type": "address"
        }
      ],
      "stateMutability": "view",
      "type": "function",
      "constant": true
    },
    {
      "inputs": [
        {
          "internalType": "address",
          "name": "_timelockOwner",
          "type": "address"
        },
        {
          "components": [
            {
              "internalType": "uint256",
              "name": "pid",
              "type": "uint256"
            },
            {
              "internalType": "bool",
              "name": "isHomeChain",
              "type": "bool"
            },
            {
              "components": [
                {
                  "internalType": "address",
                  "name": "govAddress",
                  "type": "address"
                },
                {
                  "internalType": "address",
                  "name": "zorroControllerAddress",
                  "type": "address"
                },
                {
                  "internalType": "address",
                  "name": "ZORROAddress",
                  "type": "address"
                },
                {
                  "internalType": "address",
                  "name": "zorroStakingVault",
                  "type": "address"
                },
                {
                  "internalType": "address",
                  "name": "wantAddress",
                  "type": "address"
                },
                {
                  "internalType": "address",
                  "name": "token0Address",
                  "type": "address"
                },
                {
                  "internalType": "address",
                  "name": "token1Address",
                  "type": "address"
                },
                {
                  "internalType": "address",
                  "name": "earnedAddress",
                  "type": "address"
                },
                {
                  "internalType": "address",
                  "name": "farmContractAddress",
                  "type": "address"
                },
                {
                  "internalType": "address",
                  "name": "rewardsAddress",
                  "type": "address"
                },
                {
                  "internalType": "address",
                  "name": "poolAddress",
                  "type": "address"
                },
                {
                  "internalType": "address",
                  "name": "uniRouterAddress",
                  "type": "address"
                },
                {
                  "internalType": "address",
                  "name": "zorroLPPool",
                  "type": "address"
                },
                {
                  "internalType": "address",
                  "name": "zorroLPPoolOtherToken",
                  "type": "address"
                },
                {
                  "internalType": "address",
                  "name": "tokenUSDCAddress",
                  "type": "address"
                }
              ],
              "internalType": "struct VaultBase.VaultAddresses",
              "name": "keyAddresses",
              "type": "tuple"
            },
            {
              "internalType": "address[]",
              "name": "earnedToZORROPath",
              "type": "address[]"
            },
            {
              "internalType": "address[]",
              "name": "earnedToToken0Path",
              "type": "address[]"
            },
            {
              "internalType": "address[]",
              "name": "USDCToToken0Path",
              "type": "address[]"
            },
            {
              "internalType": "address[]",
              "name": "earnedToZORLPPoolOtherTokenPath",
              "type": "address[]"
            },
            {
              "internalType": "address[]",
              "name": "earnedToUSDCPath",
              "type": "address[]"
            },
            {
              "internalType": "address[]",
              "name": "BUSDToToken0Path",
              "type": "address[]"
            },
            {
              "internalType": "address[]",
              "name": "BUSDToZORROPath",
              "type": "address[]"
            },
            {
              "internalType": "address[]",
              "name": "BUSDToLPPoolOtherTokenPath",
              "type": "address[]"
            },
            {
              "components": [
                {
                  "internalType": "uint256",
                  "name": "controllerFee",
                  "type": "uint256"
                },
                {
                  "internalType": "uint256",
                  "name": "buyBackRate",
                  "type": "uint256"
                },
                {
                  "internalType": "uint256",
                  "name": "revShareRate",
                  "type": "uint256"
                },
                {
                  "internalType": "uint256",
                  "name": "entranceFeeFactor",
                  "type": "uint256"
                },
                {
                  "internalType": "uint256",
                  "name": "withdrawFeeFactor",
                  "type": "uint256"
                }
              ],
              "internalType": "struct VaultBase.VaultFees",
              "name": "fees",
              "type": "tuple"
            },
            {
              "components": [
                {
                  "internalType": "address",
                  "name": "token0PriceFeed",
                  "type": "address"
                },
                {
                  "internalType": "address",
                  "name": "token1PriceFeed",
                  "type": "address"
                },
                {
                  "internalType": "address",
                  "name": "earnTokenPriceFeed",
                  "type": "address"
                },
                {
                  "internalType": "address",
                  "name": "ZORPriceFeed",
                  "type": "address"
                },
                {
                  "internalType": "address",
                  "name": "lpPoolOtherTokenPriceFeed",
                  "type": "address"
                }
              ],
              "internalType": "struct VaultBase.VaultPriceFeeds",
              "name": "priceFeeds",
              "type": "tuple"
            }
          ],
          "internalType": "struct VaultAcryptosSingle.VaultAcryptosSingleInit",
          "name": "_initValue",
          "type": "tuple"
        }
      ],
      "name": "initialize",
      "outputs": [],
      "stateMutability": "nonpayable",
      "type": "function"
    },
    {
      "inputs": [
        {
          "internalType": "address",
          "name": "_timelockOwner",
          "type": "address"
        }
      ],
      "name": "initialize",
      "outputs": [],
      "stateMutability": "nonpayable",
      "type": "function"
    },
    {
      "inputs": [
        {
          "internalType": "uint256",
          "name": "_acsWeight",
          "type": "uint256"
        },
        {
          "internalType": "uint256",
          "name": "_busdWeight",
          "type": "uint256"
        }
      ],
      "name": "setBalancerWeights",
      "outputs": [],
      "stateMutability": "nonpayable",
      "type": "function"
    },
    {
      "inputs": [
        {
          "internalType": "uint8",
          "name": "_idx",
          "type": "uint8"
        },
        {
          "internalType": "address[]",
          "name": "_path",
          "type": "address[]"
        }
      ],
      "name": "setBUSDSwapPaths",
      "outputs": [],
      "stateMutability": "nonpayable",
      "type": "function"
    },
    {
      "inputs": [
        {
          "internalType": "address",
          "name": "_account",
          "type": "address"
        },
        {
          "internalType": "uint256",
          "name": "_wantAmt",
          "type": "uint256"
        }
      ],
      "name": "depositWantToken",
      "outputs": [
        {
          "internalType": "uint256",
          "name": "sharesAdded",
          "type": "uint256"
        }
      ],
      "stateMutability": "nonpayable",
      "type": "function"
    },
    {
      "inputs": [
        {
          "internalType": "uint256",
          "name": "_amountUSDC",
          "type": "uint256"
        },
        {
          "internalType": "uint256",
          "name": "_maxMarketMovementAllowed",
          "type": "uint256"
        }
      ],
      "name": "exchangeUSDForWantToken",
      "outputs": [
        {
          "internalType": "uint256",
          "name": "",
          "type": "uint256"
        }
      ],
      "stateMutability": "nonpayable",
      "type": "function"
    },
    {
      "inputs": [],
      "name": "farm",
      "outputs": [],
      "stateMutability": "nonpayable",
      "type": "function"
    },
    {
      "inputs": [
        {
          "internalType": "address",
          "name": "_account",
          "type": "address"
        },
        {
          "internalType": "uint256",
          "name": "_wantAmt",
          "type": "uint256"
        }
      ],
      "name": "withdrawWantToken",
      "outputs": [
        {
          "internalType": "uint256",
          "name": "",
          "type": "uint256"
        }
      ],
      "stateMutability": "nonpayable",
      "type": "function"
    },
    {
      "inputs": [
        {
          "internalType": "uint256",
          "name": "_amount",
          "type": "uint256"
        },
        {
          "internalType": "uint256",
          "name": "_maxMarketMovementAllowed",
          "type": "uint256"
        }
      ],
      "name": "exchangeWantTokenForUSD",
      "outputs": [
        {
          "internalType": "uint256",
          "name": "",
          "type": "uint256"
        }
      ],
      "stateMutability": "nonpayable",
      "type": "function"
    },
    {
      "inputs": [
        {
          "internalType": "uint256",
          "name": "_maxMarketMovementAllowed",
          "type": "uint256"
        }
      ],
      "name": "earn",
      "outputs": [],
      "stateMutability": "nonpayable",
      "type": "function"
    }
  ],
  "bytecode": "0x608060405234801561001057600080fd5b506156a980620000216000396000f3fe608060405234801561001057600080fd5b506004361061059c5760003560e01c80637ff36fbe116102e5578063c4d66de81161018d578063e65a0117116100f4578063ee50dc34116100ad578063f2fde38b11610087578063f2fde38b14610be5578063f5046a2914610bf8578063fbf5683f14610c0b578063ff29b39514610c1e57600080fd5b8063ee50dc34146106c3578063f106845414610bc9578063f25342bf14610bd257600080fd5b8063e65a011714610b5d578063e719847414610b70578063e7a0367914610b83578063e9e15b4f14610b96578063ebfba7c414610ba9578063edf5e58514610bbc57600080fd5b8063d7cb416f11610146578063d7cb416f14610ade578063db31640c14610af1578063de69b3aa14610b04578063de84199114610b24578063e0ccabfa14610b37578063e502a88d14610b4a57600080fd5b8063c4d66de814610a6c578063c5c97cbf14610a7f578063c6efd57714610a92578063c8479cd614610aa5578063c8e3d18b14610ab8578063cfad57a214610acb57600080fd5b8063a4d2b0831161024c578063b73cba2a11610205578063bf3a7d40116101df578063bf3a7d4014610a3d578063c0973eed14610a50578063c2dfdcd214610a63578063c302a4d01461092c57600080fd5b8063b73cba2a14610a04578063b86c5f5314610a17578063ba0bb4ab14610a2a57600080fd5b8063a4d2b083146109a5578063aabf190b146109b8578063ab196def146109cb578063ae53e58a146109de578063b1414dbb146109f1578063b3545c01146105b657600080fd5b80638906758d1161029e5780638906758d146109355780638da5cb5b14610948578063959334f41461095957806396e9aff81461096c5780639f703a561461097f5780639fc33a9f1461099257600080fd5b80637ff36fbe146108e25780638456cb59146108f55780638460adc9146108fd578063858c5b681461091057806385f02dd614610923578063866b20181461092c57600080fd5b80634ce54ddb1161044857806367057b6c116103af57806370d5ae05116103685780637153ef86116103425780637153ef861461088c578063776da4701461089f5780637bf604d8146108c65780637fe37d33146108d957600080fd5b806370d5ae051461085657806370e842a114610869578063715018a61461088457600080fd5b806367057b6c146106c357806367206d401461080157806368f5416214610814578063693a090b1461081d5780636ca8bd65146108305780636f96f6fa1461084357600080fd5b80635da79d63116104015780635da79d631461078f5780635fc77d43146107a25780636183e804146107b557806361b5bf9f146107c85780636392ab12146107db578063648794a4146107ee57600080fd5b80634ce54ddb146107305780634d9f7bb2146106c35780634e2cb8b614610743578063563397d714610756578063583bda3b146107715780635c975abb1461078457600080fd5b80631e12819a116105075780633f4ba83a116104c057806344a3955e1161049a57806344a3955e146106ee57806346008a07146106f75780634b0e72161461070a5780634c5b09da1461071d57600080fd5b80633f4ba83a146106dd57806342da4eb3146106e557806343788cd2146106c357600080fd5b80631e12819a1461069b578063211019d7146105b6578063213ef7f7146106ae5780632717eff3146106c35780633214471f146106cc57806336e9332d146106d557600080fd5b80630fa4e01e116105595780630fa4e01e14610647578063127b5bbb146106505780631334903f146106635780631755ff211461066c578063178a8d071461067f5780631b0d8aab1461068857600080fd5b806305828d3e146105a1578063061c7d48146105b65780630a868404146105d25780630b6bb30b146105fd5780630bdb9070146106105780630daef32114610623575b600080fd5b6105b46105af366004614843565b610c31565b005b6105bf6103e881565b6040519081526020015b60405180910390f35b6105e56105e0366004614860565b610c86565b6040516001600160a01b0390911681526020016105c9565b6105b461060b366004614892565b610cb0565b6105b461061e366004614beb565b610d32565b60cb5461063790600160a01b900460ff1681565b60405190151581526020016105c9565b6105bf60e15481565b6105e561065e366004614860565b6110f3565b6105bf60df5481565b60d8546105e5906001600160a01b031681565b6105bf60dd5481565b6105b4610696366004614860565b611103565b6105b46106a9366004614843565b611132565b6105e560008051602061565483398151915281565b6105bf61271081565b6105bf60de5481565b6105b461117e565b6105b46111b5565b6105bf60e25481565b6105bf60e35481565b60cb546105e5906001600160a01b031681565b6105b4610718366004614843565b6111e9565b6105b461072b366004614843565b611235565b60d5546105e5906001600160a01b031681565b6105e5610751366004614860565b611281565b6105e5734197c6ef3879a08cd51e5560da5064b773aa1d2981565b6105b461077f366004614843565b611291565b60975460ff16610637565b6105b461079d366004614843565b6112dd565b60cd546105e5906001600160a01b031681565b6105b46107c3366004614843565b611329565b6105b46107d6366004614843565b611375565b6105e56107e9366004614860565b6113c1565b6105bf6107fc366004614dca565b6113d1565b6105b461080f366004614dec565b6116d1565b6105bf60e05481565b60d9546105e5906001600160a01b031681565b6105b461083e366004614843565b61179b565b60f0546105e5906001600160a01b031681565b60d6546105e5906001600160a01b031681565b6105e573a82f327bbbf0667356d2935c6532d164b06ceced81565b6105b46117e7565b6105b461089a366004614e2e565b61181b565b6105bf7f894ed9026de37afd9cce1e6c0be7d6b510e3ffe500010000000000000000000181565b60da546105e5906001600160a01b031681565b6105bf60f45481565b60d1546105e5906001600160a01b031681565b6105b4611ae3565b6105b461090b366004614dca565b611b15565b6105b461091e366004614e78565b611b4a565b6105bf60dc5481565b6105bf61232881565b6105b4610943366004614843565b611c06565b6033546001600160a01b03166105e5565b6105b4610967366004614843565b611c52565b6105e561097a366004614860565b611c9e565b6105e561098d366004614860565b611cae565b60d4546105e5906001600160a01b031681565b60cf546105e5906001600160a01b031681565b60f1546105e5906001600160a01b031681565b60f2546105e5906001600160a01b031681565b60ef546105e5906001600160a01b031681565b60cc546105e5906001600160a01b031681565b6105b4610a12366004614843565b611cbe565b6105e5610a25366004614860565b611d0a565b6105bf610a38366004614f00565b611d1a565b6105b4610a4b366004614843565b611eb4565b60d7546105e5906001600160a01b031681565b6105bf60f35481565b6105b4610a7a366004614843565b611f00565b6105e5610a8d366004614860565b611f98565b6105e5610aa0366004614860565b611fa8565b6105b4610ab3366004614843565b611fb8565b6105e5610ac6366004614860565b612004565b6105b4610ad9366004614843565b612014565b60d2546105e5906001600160a01b031681565b6105e5610aff366004614860565b61208c565b6105bf610b12366004614843565b60e46020526000908152604090205481565b6105b4610b32366004614f2c565b61209c565b6105bf610b45366004614f00565b6121e2565b6105bf610b58366004614dca565b612415565b6105b4610b6b366004614860565b6127dc565b60d3546105e5906001600160a01b031681565b60d0546105e5906001600160a01b031681565b6105b4610ba4366004614843565b612c8f565b60db546105e5906001600160a01b031681565b60c9546106379060ff1681565b6105bf60ca5481565b60ee546105e5906001600160a01b031681565b6105b4610bf3366004614843565b612cdb565b60ce546105e5906001600160a01b031681565b6105e5610c19366004614860565b612d76565b6105b4610c2c366004614e78565b612d86565b6033546001600160a01b03163314610c645760405162461bcd60e51b8152600401610c5b90614f65565b60405180910390fd5b60d280546001600160a01b0319166001600160a01b0392909216919091179055565b60f58181548110610c9657600080fd5b6000918252602090912001546001600160a01b0316905081565b60cb546001600160a01b03163314610cda5760405162461bcd60e51b8152600401610c5b90614f9a565b60cb8054821515600160a01b0260ff60a01b199091161790556040517f125177ac7b8930dac1e59c2b30b1b6b9191b30af40cf6bbb5d20fec4d44be60f90610d2790831515815260200190565b60405180910390a150565b600054610100900460ff16610d4d5760005460ff1615610d51565b303b155b610d6d5760405162461bcd60e51b8152600401610c5b90614fb8565b600054610100900460ff16158015610d8f576000805461ffff19166101011790555b815160ca5560208083015160c9805460ff1916911515919091179055604080840151805160cb8054600160a01b6001600160a01b039384166001600160a81b0319909216919091171790558184015160cc80546001600160a01b03199081169284169290921790558284015160ce8054831691841691909117905560608084015160cf8054841691851691909117905560808085015160d08054851691861691909117905560a085015160d18054851691861691909117905560c085015160d28054851691861691909117905560e08086015160d38054861691871691909117905561010086015160d48054861691871691909117905561012086015160d78054861691871691909117905561014086015160d8805486169187169190911790556101608087015160d98054871691881691909117905561018087015160da805487169188169190911790556101a087015160db805487169188169190911790556101c09096015160d5805490951695169490941790925592870151805160dc558086015160dd559384015160de558383015160df5592909201519091558301518051610f409260eb920190614755565b5060808201518051610f5a9160e991602090910190614755565b5060a08201518051610f749160e591602090910190614755565b5060c08201518051610f8e9160ec91602090910190614755565b5060e08201518051610fa89160ed91602090910190614755565b506101008201518051610fc39160f591602090910190614755565b506101208201518051610fde9160f691602090910190614755565b506101408201518051610ff99160f791602090910190614755565b5061105d60e580548060200260200160405190810160405280929190818152602001828054801561105357602002820191906000526020600020905b81546001600160a01b03168152600190910190602001808311611035575b5050505050612e84565b80516110719160e791602090910190614755565b50610180820151805160ee80546001600160a01b03199081166001600160a01b0393841617909155604083015160f080548316918416919091179055608083015160f18054831691841691909117905560609092015160f2805490931691161790556110dc83611f00565b80156110ee576000805461ff00191690555b505050565b60f78181548110610c9657600080fd5b6033546001600160a01b0316331461112d5760405162461bcd60e51b8152600401610c5b90614f65565b60ca55565b6033546001600160a01b0316331461115c5760405162461bcd60e51b8152600401610c5b90614f65565b60d580546001600160a01b0319166001600160a01b0392909216919091179055565b600260655414156111a15760405162461bcd60e51b8152600401610c5b90615006565b60026065556111ae612f5e565b6001606555565b60cb546001600160a01b031633146111df5760405162461bcd60e51b8152600401610c5b90614f9a565b6111e7613067565b565b6033546001600160a01b031633146112135760405162461bcd60e51b8152600401610c5b90614f65565b60d680546001600160a01b0319166001600160a01b0392909216919091179055565b6033546001600160a01b0316331461125f5760405162461bcd60e51b8152600401610c5b90614f65565b60d480546001600160a01b0319166001600160a01b0392909216919091179055565b60e88181548110610c9657600080fd5b6033546001600160a01b031633146112bb5760405162461bcd60e51b8152600401610c5b90614f65565b60ce80546001600160a01b0319166001600160a01b0392909216919091179055565b6033546001600160a01b031633146113075760405162461bcd60e51b8152600401610c5b90614f65565b60d980546001600160a01b0319166001600160a01b0392909216919091179055565b6033546001600160a01b031633146113535760405162461bcd60e51b8152600401610c5b90614f65565b60d080546001600160a01b0319166001600160a01b0392909216919091179055565b6033546001600160a01b0316331461139f5760405162461bcd60e51b8152600401610c5b90614f65565b60da80546001600160a01b0319166001600160a01b0392909216919091179055565b60eb8181548110610c9657600080fd5b60cc546000906001600160a01b0316336001600160a01b0316146114075760405162461bcd60e51b8152600401610c5b9061503d565b60975460ff161561142a5760405162461bcd60e51b8152600401610c5b90615067565b600083116114715760405162461bcd60e51b8152602060048201526014602482015273057616e7420616d74206d757374206265203e20360641b6044820152606401610c5b565b60d054611489906001600160a01b03163330866130fa565b60d45460d05460405163f3fef3a360e01b81526001600160a01b0391821660048201526024810186905291169063f3fef3a390604401600060405180830381600087803b1580156114d957600080fd5b505af11580156114ed573d6000803e3d6000fd5b505060ee546000925061150991506001600160a01b0316613165565b60d1546040516370a0823160e01b81523060048201529192506000916001600160a01b03909116906370a0823190602401602060405180830381865afa158015611557573d6000803e3d6000fd5b505050506040513d601f19601f8201168201806040525081019061157b9190615091565b60d95460d15491925061159b916001600160a01b039081169116836132a5565b6040805161014081018252828152602080820185905264e8d4a510008284015260d1546001600160a01b03908116606084015260d554166080830152600060a0830181905260c083015260e0820187905260e7805484518184028101840190955280855261165a946101008501939092919083018282801561164657602002820191906000526020600020905b81546001600160a01b03168152600190910190602001808311611628575b505050918352505033602090910152613357565b60d5546040516370a0823160e01b81523060048201526001600160a01b03909116906370a0823190602401602060405180830381865afa1580156116a2573d6000803e3d6000fd5b505050506040513d601f19601f820116820180604052508101906116c69190615091565b925050505b92915050565b60cb546001600160a01b031633146116fb5760405162461bcd60e51b8152600401610c5b90614f9a565b60d3546001600160a01b03848116911614156117415760405162461bcd60e51b8152602060048201526005602482015264217361666560d81b6044820152606401610c5b565b60d0546001600160a01b03848116911614156117875760405162461bcd60e51b8152602060048201526005602482015264217361666560d81b6044820152606401610c5b565b6110ee6001600160a01b038416828461343a565b6033546001600160a01b031633146117c55760405162461bcd60e51b8152600401610c5b90614f65565b60cf80546001600160a01b0319166001600160a01b0392909216919091179055565b6033546001600160a01b031633146118115760405162461bcd60e51b8152600401610c5b90614f65565b6111e7600061346a565b60cb546001600160a01b031633146118455760405162461bcd60e51b8152600401610c5b90614f9a565b6123288510156118975760405162461bcd60e51b815260206004820152601a60248201527f5f656e7472616e6365466565466163746f7220746f6f206c6f770000000000006044820152606401610c5b565b6127108511156118e95760405162461bcd60e51b815260206004820152601b60248201527f5f656e7472616e6365466565466163746f7220746f6f206869676800000000006044820152606401610c5b565b60df8590556123288410156119405760405162461bcd60e51b815260206004820152601a60248201527f5f7769746864726177466565466163746f7220746f6f206c6f770000000000006044820152606401610c5b565b6127108411156119925760405162461bcd60e51b815260206004820152601b60248201527f5f7769746864726177466565466163746f7220746f6f206869676800000000006044820152606401610c5b565b60e08490556103e88311156119e95760405162461bcd60e51b815260206004820152601760248201527f5f636f6e74726f6c6c657246656520746f6f20686967680000000000000000006044820152606401610c5b565b60dc8390556103e8821115611a385760405162461bcd60e51b81526020600482015260156024820152740bec4eaf284c2c6d6a4c2e8ca40e8dede40d0d2ced605b1b6044820152606401610c5b565b60dd8290556103e8811115611a885760405162461bcd60e51b81526020600482015260166024820152750bee4caeca6d0c2e4caa4c2e8ca40e8dede40d0d2ced60531b6044820152606401610c5b565b60de819055604080518681526020810186905290810184905260608101839052608081018290527fc67e0b149a57a70fa44a531a46c2c6d8e0b242fa12f459f250012c3a5987d29a9060a00160405180910390a15050505050565b60cb546001600160a01b03163314611b0d5760405162461bcd60e51b8152600401610c5b90614f9a565b6111e76134bc565b6033546001600160a01b03163314611b3f5760405162461bcd60e51b8152600401610c5b90614f65565b60f39190915560f455565b6033546001600160a01b03163314611b745760405162461bcd60e51b8152600401610c5b90614f65565b60ff8316611b8e57611b8860f583836147b6565b50505050565b8260ff1660011415611ba657611b8860f683836147b6565b8260ff1660021415611bbe57611b8860f783836147b6565b60405162461bcd60e51b815260206004820152601960248201527f756e737570706f727465642069647820737761702070617468000000000000006044820152606401610c5b565b6033546001600160a01b03163314611c305760405162461bcd60e51b8152600401610c5b90614f65565b60d780546001600160a01b0319166001600160a01b0392909216919091179055565b6033546001600160a01b03163314611c7c5760405162461bcd60e51b8152600401610c5b90614f65565b60db80546001600160a01b0319166001600160a01b0392909216919091179055565b60ea8181548110610c9657600080fd5b60ed8181548110610c9657600080fd5b6033546001600160a01b03163314611ce85760405162461bcd60e51b8152600401610c5b90614f65565b60d380546001600160a01b0319166001600160a01b0392909216919091179055565b60e58181548110610c9657600080fd5b60cc546000906001600160a01b0316336001600160a01b031614611d505760405162461bcd60e51b8152600401610c5b9061503d565b60026065541415611d735760405162461bcd60e51b8152600401610c5b90615006565b600260655560975460ff1615611d9b5760405162461bcd60e51b8152600401610c5b90615067565b60008211611deb5760405162461bcd60e51b815260206004820152601e60248201527f57616e7420746f6b656e206465706f736974206d757374206265203e203000006044820152606401610c5b565b60d054611e03906001600160a01b03163330856130fa565b819050600060e254118015611e1a5750600060e354115b15611e5557611e52612710611e4c60e254611e4c60df54611e4660e3548961351490919063ffffffff16565b90613514565b90613527565b90505b60e354611e629082613533565b60e3556001600160a01b038316600090815260e46020526040902054611e889082613533565b6001600160a01b038416600090815260e46020526040902055611ea9612f5e565b600160655592915050565b6033546001600160a01b03163314611ede5760405162461bcd60e51b8152600401610c5b90614f65565b60cc80546001600160a01b0319166001600160a01b0392909216919091179055565b600054610100900460ff16611f1b5760005460ff1615611f1f565b303b155b611f3b5760405162461bcd60e51b8152600401610c5b90614fb8565b600054610100900460ff16158015611f5d576000805461ffff19166101011790555b611f6561353f565b611f6e82612cdb565b60d680546001600160a01b03191661dead1790558015611f94576000805461ff00191690555b5050565b60e68181548110610c9657600080fd5b60e78181548110610c9657600080fd5b6033546001600160a01b03163314611fe25760405162461bcd60e51b8152600401610c5b90614f65565b60d180546001600160a01b0319166001600160a01b0392909216919091179055565b60e98181548110610c9657600080fd5b60cb546001600160a01b0316331461203e5760405162461bcd60e51b8152600401610c5b90614f9a565b60cb80546001600160a01b0319166001600160a01b0383169081179091556040519081527f91a8c1cc2d4a3bb60738481947a00cbb9899c822916694cf8bb1d68172fdcd5490602001610d27565b60f68181548110610c9657600080fd5b6033546001600160a01b031633146120c65760405162461bcd60e51b8152600401610c5b90614f65565b60ff82166120ef5760ee80546001600160a01b0383166001600160a01b03199091161790555050565b8160ff166001141561211c5760ef80546001600160a01b0383166001600160a01b03199091161790555050565b8160ff16600214156121495760f080546001600160a01b0383166001600160a01b03199091161790555050565b8160ff16600314156121765760f280546001600160a01b0383166001600160a01b03199091161790555050565b8160ff16600414156121a35760f180546001600160a01b0383166001600160a01b03199091161790555050565b60405162461bcd60e51b81526020600482015260146024820152730eadce6eae0e0dee4e8cac840cccacac840d2c8f60631b6044820152606401610c5b565b60cc546000906001600160a01b0316336001600160a01b0316146122185760405162461bcd60e51b8152600401610c5b9061503d565b6002606554141561223b5760405162461bcd60e51b8152600401610c5b90615006565b600260655560975460ff16156122635760405162461bcd60e51b8152600401610c5b90615067565b600082116122a35760405162461bcd60e51b815260206004820152600d60248201526c077616e7420616d74203c3d203609c1b6044820152606401610c5b565b60006122c060e254611e4c60e3548661351490919063ffffffff16565b905060e3548111156122d1575060e3545b60e3546122de908261356e565b60e3556001600160a01b038416600090815260e46020526040902054612304908261356e565b6001600160a01b038516600090815260e4602052604090205560e054612710111561234757612344612710611e4c60e0548661351490919063ffffffff16565b92505b6123508361357a565b60d0546040516370a0823160e01b81523060048201526000916001600160a01b0316906370a0823190602401602060405180830381865afa158015612399573d6000803e3d6000fd5b505050506040513d601f19601f820116820180604052508101906123bd9190615091565b9050808411156123cb578093505b8360e25410156123db5760e25493505b60e2546123e8908561356e565b60e25560cc5460d054612408916001600160a01b0391821691168661343a565b5060016065559392505050565b60cc546000906001600160a01b0316336001600160a01b03161461244b5760405162461bcd60e51b8152600401610c5b9061503d565b60975460ff161561246e5760405162461bcd60e51b8152600401610c5b90615067565b60d5546040516370a0823160e01b81523060048201526000916001600160a01b0316906370a0823190602401602060405180830381865afa1580156124b7573d6000803e3d6000fd5b505050506040513d601f19601f820116820180604052508101906124db9190615091565b90506000841161252d5760405162461bcd60e51b815260206004820152601860248201527f55534443206465706f736974206d757374206265203e203000000000000000006044820152606401610c5b565b8084111561257d5760405162461bcd60e51b815260206004820152601960248201527f5553444320646573697265642065786365656465642062616c000000000000006044820152606401610c5b565b60ee54600090612595906001600160a01b0316613165565b60d95460d5549192506125b5916001600160a01b039081169116876132a5565b604080516101408101825286815264e8d4a5100060208083019190915281830184905260d5546001600160a01b03908116606084015260d154166080830152600060a0830181905260c083015260e0820187905260e58054845181840281018401909552808552612677946101008501939092919083018282801561266357602002820191906000526020600020905b81546001600160a01b03168152600190910190602001808311612645575b505050918352505030602090910152613357565b60d1546040516370a0823160e01b81523060048201526000916001600160a01b0316906370a0823190602401602060405180830381865afa1580156126c0573d6000803e3d6000fd5b505050506040513d601f19601f820116820180604052508101906126e49190615091565b60d85460405163b6b55f2560e01b8152600481018390529192506001600160a01b03169063b6b55f2590602401600060405180830381600087803b15801561272b57600080fd5b505af115801561273f573d6000803e3d6000fd5b505060d0546040516370a0823160e01b8152306004820152600093506001600160a01b0390911691506370a0823190602401602060405180830381865afa15801561278e573d6000803e3d6000fd5b505050506040513d601f19601f820116820180604052508101906127b29190615091565b60cc5460d0549192506127d2916001600160a01b0390811691168361343a565b9695505050505050565b600260655414156127ff5760405162461bcd60e51b8152600401610c5b90615006565b600260655560975460ff16156128275760405162461bcd60e51b8152600401610c5b90615067565b60cb54600160a01b900460ff16156128635760cb546001600160a01b031633146128635760405162461bcd60e51b8152600401610c5b90614f9a565b61286d600061357a565b60d3546040516370a0823160e01b81523060048201526000916001600160a01b0316906370a0823190602401602060405180830381865afa1580156128b6573d6000803e3d6000fd5b505050506040513d601f19601f820116820180604052508101906128da9190615091565b60f0549091506000906128f5906001600160a01b0316613165565b60ee54909150600090612910906001600160a01b0316613165565b60f25490915060009061292b906001600160a01b0316613165565b60f254909150600090612946906001600160a01b0316613165565b604080516060810182528681526020810185905290810182905290915061296c866135b5565b9550612979868883613614565b6040805161014081018252828152602080820189905264e8d4a510008284015260d3546001600160a01b03166060830152600080516020615654833981519152608083015260f35460a083015260f45460c083015260e082018b905260e98054845181840281018401909552808552949a50612a449492936101008501939092830182828015612663576020028201919060005260206000209081546001600160a01b0316815260019091019060200180831161264557505050918352505030602090910152613357565b6040516370a0823160e01b8152306004820152600090600080516020615654833981519152906370a0823190602401602060405180830381865afa158015612a90573d6000803e3d6000fd5b505050506040513d601f19601f82011682018060405250810190612ab49190615091565b60d954909150612add90600080516020615654833981519152906001600160a01b0316836132a5565b604080516101408101825282815264e8d4a51000602080830191909152818301889052600080516020615654833981519152606083015260d1546001600160a01b03166080830152600060a0830181905260c083015260e082018b905260f58054845181840281018401909552808552612ba69461010085019390929190830182828015612663576020028201919060005260206000209081546001600160a01b0316815260019091019060200180831161264557505050918352505030602090910152613357565b60d1546040516370a0823160e01b81523060048201526000916001600160a01b0316906370a0823190602401602060405180830381865afa158015612bef573d6000803e3d6000fd5b505050506040513d601f19601f82011682018060405250810190612c139190615091565b60d85460405163b6b55f2560e01b8152600481018390529192506001600160a01b03169063b6b55f2590602401600060405180830381600087803b158015612c5a57600080fd5b505af1158015612c6e573d6000803e3d6000fd5b50504360e15550612c7f9050612f5e565b5050600160655550505050505050565b6033546001600160a01b03163314612cb95760405162461bcd60e51b8152600401610c5b90614f65565b60d880546001600160a01b0319166001600160a01b0392909216919091179055565b6033546001600160a01b03163314612d055760405162461bcd60e51b8152600401610c5b90614f65565b6001600160a01b038116612d6a5760405162461bcd60e51b815260206004820152602660248201527f4f776e61626c653a206e6577206f776e657220697320746865207a65726f206160448201526564647265737360d01b6064820152608401610c5b565b612d738161346a565b50565b60ec8181548110610c9657600080fd5b6033546001600160a01b03163314612db05760405162461bcd60e51b8152600401610c5b90614f65565b60ff8316612dc457611b8860e583836147b6565b8260ff1660011415612ddc57611b8860e683836147b6565b8260ff1660021415612df457611b8860e783836147b6565b8260ff1660031415612e0c57611b8860e883836147b6565b8260ff1660041415612e2457611b8860e983836147b6565b8260ff1660051415612e3c57611b8860ea83836147b6565b8260ff1660061415612e5457611b8860eb83836147b6565b8260ff1660071415612e6c57611b8860ec83836147b6565b8260ff16600814156121a357611b8860ed83836147b6565b80516060908067ffffffffffffffff811115612ea257612ea26148af565b604051908082528060200260200182016040528015612ecb578160200160208202803683370190505b50915060005b818161ffff161015612f575783612f018261ffff16612efb6001885161356e90919063ffffffff16565b9061356e565b81518110612f1157612f116150aa565b6020026020010151838261ffff1681518110612f2f57612f2f6150aa565b6001600160a01b0390921660209283029190910190910152612f50816150d6565b9050612ed1565b5050919050565b60d0546040516370a0823160e01b81523060048201526000916001600160a01b0316906370a0823190602401602060405180830381865afa158015612fa7573d6000803e3d6000fd5b505050506040513d601f19601f82011682018060405250810190612fcb9190615091565b60e254909150612fdb9082613533565b60e25560d45460d054612ffb916001600160a01b039182169116836132a5565b60d45460d0546040516311f9fbc960e21b81526001600160a01b039182166004820152602481018490529116906347e7ef24906044015b600060405180830381600087803b15801561304c57600080fd5b505af1158015613060573d6000803e3d6000fd5b5050505050565b60975460ff166130b05760405162461bcd60e51b815260206004820152601460248201527314185d5cd8589b194e881b9bdd081c185d5cd95960621b6044820152606401610c5b565b6097805460ff191690557f5db9ee0a495bf2e6ff9c91a7834c1ba4fdd244a5e8aa4e537bd38aeae4b073aa335b6040516001600160a01b03909116815260200160405180910390a1565b6040516001600160a01b0380851660248301528316604482015260648101829052611b889085906323b872dd60e01b906084015b60408051601f198184030181529190526020810180516001600160e01b03166001600160e01b03199093169290921790915261370d565b600080826001600160a01b031663313ce5676040518163ffffffff1660e01b8152600401602060405180830381865afa1580156131a6573d6000803e3d6000fd5b505050506040513d601f19601f820116820180604052508101906131ca91906150f8565b90506000836001600160a01b031663feaf968c6040518163ffffffff1660e01b815260040160a060405180830381865afa15801561320c573d6000803e3d6000fd5b505050506040513d601f19601f82011682018060405250810190613230919061512f565b50505091505060008112156132805760405162461bcd60e51b81526020600482015260166024820152751b9959c81c1c9a58d95cc81b9bdd08185b1b1bddd95960521b6044820152606401610c5b565b61329d61328e83600a615263565b611e4c8364e8d4a51000613514565b949350505050565b604051636eb1769f60e11b81523060048201526001600160a01b038381166024830152600091839186169063dd62ed3e90604401602060405180830381865afa1580156132f6573d6000803e3d6000fd5b505050506040513d601f19601f8201168201806040525081019061331a9190615091565b6133249190615272565b6040516001600160a01b038516602482015260448101829052909150611b8890859063095ea7b360e01b9060640161312e565b60608101516001600160a01b0316734197c6ef3879a08cd51e5560da5064b773aa1d2914806133a6575060808101516001600160a01b0316734197c6ef3879a08cd51e5560da5064b773aa1d29145b156133ea57612d7373a82f327bbbf0667356d2935c6532d164b06ceced7f894ed9026de37afd9cce1e6c0be7d6b510e3ffe5000100000000000000000001836137df565b612d738160000151826020015183604001518460e001518561010001518661012001516134226102584261353390919063ffffffff16565b60d9546001600160a01b031696959493929190613994565b6040516001600160a01b0383166024820152604481018290526110ee90849063a9059cbb60e01b9060640161312e565b603380546001600160a01b038381166001600160a01b0319831681179093556040519116919082907f8be0079c531659141344cd1fd0a4f28419497f9722a3daafe3b4186f6b6457e090600090a35050565b60975460ff16156134df5760405162461bcd60e51b8152600401610c5b90615067565b6097805460ff191660011790557f62e78cea01bee320cd4e420270b5ea74000d11b0c9f74754ebdbfc544b05a2586130dd3390565b6000613520828461528a565b9392505050565b600061352082846152a9565b60006135208284615272565b600054610100900460ff166135665760405162461bcd60e51b8152600401610c5b906152cb565b6111e7613afd565b60006135208284615316565b60d45460d05460405163f3fef3a360e01b81526001600160a01b0391821660048201526024810184905291169063f3fef3a390604401613032565b600081156136105760dc54156136105760006135e2612710611e4c60dc548661351490919063ffffffff16565b60d75460d354919250613602916001600160a01b0390811691168361343a565b61360c838261356e565b9250505b5090565b60dd5460009081901561363f5761363c612710611e4c60dd548861351490919063ffffffff16565b90505b600060c95460ff161561366757613657828686613b2d565b613662818686614064565b6136ff565b6136876136748383613533565b60cc546001600160a01b03168787614258565b60cd5460ca5460405163464e3c8b60e01b815260048101919091526024810184905260448101839052606481018790526001600160a01b039091169063464e3c8b90608401600060405180830381600087803b1580156136e657600080fd5b505af11580156136fa573d6000803e3d6000fd5b505050505b6127d281612efb888561356e565b6000613762826040518060400160405280602081526020017f5361666545524332303a206c6f772d6c6576656c2063616c6c206661696c6564815250856001600160a01b031661449d9092919063ffffffff16565b8051909150156110ee5780806020019051810190613780919061532d565b6110ee5760405162461bcd60e51b815260206004820152602a60248201527f5361666545524332303a204552433230206f7065726174696f6e20646964206e6044820152691bdd081cdd58d8d9595960b21b6064820152608401610c5b565b60008160200151600014806137f657506040820151155b1561382f576138286103e8611e4c8460e00151611e4664e8d4a51000611e4c6138208b8b8b6144ac565b895190613514565b9050613863565b6138606103e8611e4c8460e00151611e468660400151611e4c8860200151896000015161351490919063ffffffff16565b90505b836001600160a01b03166352bbbe296040518060c00160405280868152602001600060018111156138965761389661534a565b815260200185606001516001600160a01b0316815260200185608001516001600160a01b0316815260200185600001518152602001604051806020016040528060008152508152506040518060800160405280306001600160a01b031681526020016000151581526020018661012001516001600160a01b0316815260200160001515815250846139326102584261353390919063ffffffff16565b6040518563ffffffff1660e01b815260040161395194939291906153b8565b6020604051808303816000875af1158015613970573d6000803e3d6000fd5b505050506040513d601f19601f820116820180604052508101906130609190615091565b60008615806139a1575085155b15613a6c5760405163d06ca61f60e01b81526000906001600160a01b038b169063d06ca61f906139d7908c9089906004016154da565b600060405180830381865afa1580156139f4573d6000803e3d6000fd5b505050506040513d6000823e601f3d908101601f19168201604052613a1c91908101906154f3565b9050613a646103e8611e4c8884613a3e6001875161356e90919063ffffffff16565b81518110613a4e57613a4e6150aa565b602002602001015161351490919063ffffffff16565b915050613a8c565b613a89613a7b876103e8613514565b611e4c87611e468c8c613514565b90505b604051635c11d79560e01b81526001600160a01b038a1690635c11d79590613ac0908b908590899089908990600401615579565b600060405180830381600087803b158015613ada57600080fd5b505af1158015613aee573d6000803e3d6000fd5b50505050505050505050505050565b600054610100900460ff16613b245760405162461bcd60e51b8152600401610c5b906152cb565b6111e73361346a565b60d95460d354613b4a916001600160a01b039182169116856132a5565b60408051610140810182528481528251602082015264e8d4a510009181019190915260d3546001600160a01b0316606082810191909152600080516020615654833981519152608083015260f35460a083015260f45460c083015260e0820184905261010082018190523061012083015290613bc590613357565b6040516370a0823160e01b8152306004820152600090600080516020615654833981519152906370a0823190602401602060405180830381865afa158015613c11573d6000803e3d6000fd5b505050506040513d601f19601f82011682018060405250810190613c359190615091565b60d954909150613c5e90600080516020615654833981519152906001600160a01b0316836132a5565b613d58604051806101400160405280613c8160028561352790919063ffffffff16565b815260200164e8d4a510008152602001856020015181526020016000805160206156548339815191526001600160a01b0316815260200160ce60009054906101000a90046001600160a01b03166001600160a01b03168152602001600081526020016000815260200186815260200160f6805480602002602001604051908101604052809291908181526020018280548015612663576020028201919060005260206000209081546001600160a01b0316815260019091019060200180831161264557505050918352505030602090910152613357565b613e3a604051806101400160405280613d7b60028561352790919063ffffffff16565b815264e8d4a5100060208083019190915260408781015181840152600080516020615654833981519152606084015260db546001600160a01b03166080840152600060a0840181905260c084015260e0830189905260f78054825181850281018501909352808352610100909401939192909190830182828015612663576020028201919060005260206000209081546001600160a01b0316815260019091019060200180831161264557505050918352505030602090910152613357565b60ce546040516370a0823160e01b81523060048201526000916001600160a01b0316906370a0823190602401602060405180830381865afa158015613e83573d6000803e3d6000fd5b505050506040513d601f19601f82011682018060405250810190613ea79190615091565b60db546040516370a0823160e01b81523060048201529192506000916001600160a01b03909116906370a0823190602401602060405180830381865afa158015613ef5573d6000803e3d6000fd5b505050506040513d601f19601f82011682018060405250810190613f199190615091565b60d95460ce54919250613f39916001600160a01b039081169116846132a5565b60d95460db54613f56916001600160a01b039182169116836132a5565b60d95460ce5460db546001600160a01b039283169263e8e3370092811691168585613f876103e8611e4c848f613514565b613fa06103e8611e4c8f8b61351490919063ffffffff16565b60d6546001600160a01b0316613fb842610258613533565b60405160e08a901b6001600160e01b03191681526001600160a01b039889166004820152968816602488015260448701959095526064860193909352608485019190915260a484015290921660c482015260e4810191909152610104016060604051808303816000875af1158015614034573d6000803e3d6000fd5b505050506040513d601f19601f8201168201806040525081019061405891906155b5565b50505050505050505050565b60d95460d354614081916001600160a01b039182169116856132a5565b60408051610140810182528481528251602082015264e8d4a510009181019190915260d3546001600160a01b0316606082810191909152600080516020615654833981519152608083015260f35460a083015260f45460c083015260e08201849052610100820181905230610120830152906140fc90613357565b60d5546040516370a0823160e01b81523060048201526000916001600160a01b0316906370a0823190602401602060405180830381865afa158015614145573d6000803e3d6000fd5b505050506040513d601f19601f820116820180604052508101906141699190615091565b60d95460d554919250614189916001600160a01b039081169116836132a5565b604080516101408101825282815264e8d4a51000602080830191909152858101518284015260d5546001600160a01b03908116606084015260ce54166080830152600060a0830181905260c083015260e0820187905260f68054845181840281018401909552808552613060946101008501939092919083018282801561423957602002820191906000526020600020905b81546001600160a01b0316815260019091019060200180831161421b575b505050918352505060cf546001600160a01b0316602090910152613357565b6040805161014081018252858152825160208083019190915264e8d4a510008284015260d3546001600160a01b03166060830152600080516020615654833981519152608083015260f35460a083015260f45460c083015260e0820185905260ed80548451818402810184019095528085526143239461010085019390929190830182828015612663576020028201919060005260206000209081546001600160a01b0316815260019091019060200180831161264557505050918352505030602090910152613357565b6040516370a0823160e01b8152306004820152600090600080516020615654833981519152906370a0823190602401602060405180830381865afa15801561436f573d6000803e3d6000fd5b505050506040513d601f19601f820116820180604052508101906143939190615091565b90506060600080516020615654833981519152816000815181106143b9576143b96150aa565b6001600160a01b03928316602091820292909201015260d5548251911690829060019081106143ea576143ea6150aa565b6001600160a01b03928316602091820292909201015260d95461441e916000805160206156548339815191529116846132a5565b604080516101408101825283815264e8d4a510006020820181905291810191909152600080516020615654833981519152606082015260d5546001600160a01b039081166080830152600060a0830181905260c083015260e082018690526101008201839052861661012082015261449590613357565b505050505050565b606061329d84846000856145eb565b608081015160405163160bf1c960e31b8152600481018490526001600160a01b03918216602482015260009182919086169063b05f8e48906044016080604051808303816000875af1158015614506573d6000803e3d6000fd5b505050506040513d601f19601f8201168201806040525081019061452a91906155e3565b505050606084015160405163160bf1c960e31b8152600481018790526001600160a01b0391821660248201529192506000919087169063b05f8e48906044016080604051808303816000875af1158015614588573d6000803e3d6000fd5b505050506040513d601f19601f820116820180604052508101906145ac91906155e3565b50505090506127d26145cb8560c001518361351490919063ffffffff16565b611e4c64e8d4a51000611e468860a001518761351490919063ffffffff16565b60608247101561464c5760405162461bcd60e51b815260206004820152602660248201527f416464726573733a20696e73756666696369656e742062616c616e636520666f6044820152651c8818d85b1b60d21b6064820152608401610c5b565b6001600160a01b0385163b6146a35760405162461bcd60e51b815260206004820152601d60248201527f416464726573733a2063616c6c20746f206e6f6e2d636f6e74726163740000006044820152606401610c5b565b600080866001600160a01b031685876040516146bf9190615624565b60006040518083038185875af1925050503d80600081146146fc576040519150601f19603f3d011682016040523d82523d6000602084013e614701565b606091505b509150915061471182828661471c565b979650505050505050565b6060831561472b575081613520565b82511561473b5782518084602001fd5b8160405162461bcd60e51b8152600401610c5b9190615640565b8280548282559060005260206000209081019282156147aa579160200282015b828111156147aa57825182546001600160a01b0319166001600160a01b03909116178255602090920191600190910190614775565b50613610929150614809565b8280548282559060005260206000209081019282156147aa579160200282015b828111156147aa5781546001600160a01b0319166001600160a01b038435161782556020909201916001909101906147d6565b5b80821115613610576000815560010161480a565b6001600160a01b0381168114612d7357600080fd5b803561483e8161481e565b919050565b60006020828403121561485557600080fd5b81356135208161481e565b60006020828403121561487257600080fd5b5035919050565b8015158114612d7357600080fd5b803561483e81614879565b6000602082840312156148a457600080fd5b813561352081614879565b634e487b7160e01b600052604160045260246000fd5b6040516101e0810167ffffffffffffffff811182821017156148e9576148e96148af565b60405290565b60405160a0810167ffffffffffffffff811182821017156148e9576148e96148af565b6040516101a0810167ffffffffffffffff811182821017156148e9576148e96148af565b604051601f8201601f1916810167ffffffffffffffff8111828210171561495f5761495f6148af565b604052919050565b60006101e0828403121561497a57600080fd5b6149826148c5565b905061498d82614833565b815261499b60208301614833565b60208201526149ac60408301614833565b60408201526149bd60608301614833565b60608201526149ce60808301614833565b60808201526149df60a08301614833565b60a08201526149f060c08301614833565b60c0820152614a0160e08301614833565b60e0820152610100614a14818401614833565b90820152610120614a26838201614833565b90820152610140614a38838201614833565b90820152610160614a4a838201614833565b90820152610180614a5c838201614833565b908201526101a0614a6e838201614833565b908201526101c0614a80838201614833565b9082015292915050565b600067ffffffffffffffff821115614aa457614aa46148af565b5060051b60200190565b600082601f830112614abf57600080fd5b81356020614ad4614acf83614a8a565b614936565b82815260059290921b84018101918181019086841115614af357600080fd5b8286015b84811015614b17578035614b0a8161481e565b8352918301918301614af7565b509695505050505050565b600060a08284031215614b3457600080fd5b614b3c6148ef565b9050813581526020820135602082015260408201356040820152606082013560608201526080820135608082015292915050565b600060a08284031215614b8257600080fd5b614b8a6148ef565b90508135614b978161481e565b81526020820135614ba78161481e565b60208201526040820135614bba8161481e565b60408201526060820135614bcd8161481e565b60608201526080820135614be08161481e565b608082015292915050565b60008060408385031215614bfe57600080fd5b8235614c098161481e565b9150602083013567ffffffffffffffff80821115614c2657600080fd5b908401906104608287031215614c3b57600080fd5b614c43614912565b82358152614c5360208401614887565b6020820152614c658760408501614967565b604082015261022083013582811115614c7d57600080fd5b614c8988828601614aae565b60608301525061024083013582811115614ca257600080fd5b614cae88828601614aae565b60808301525061026083013582811115614cc757600080fd5b614cd388828601614aae565b60a08301525061028083013582811115614cec57600080fd5b614cf888828601614aae565b60c0830152506102a083013582811115614d1157600080fd5b614d1d88828601614aae565b60e0830152506102c083013582811115614d3657600080fd5b614d4288828601614aae565b610100830152506102e083013582811115614d5c57600080fd5b614d6888828601614aae565b6101208301525061030083013582811115614d8257600080fd5b614d8e88828601614aae565b61014083015250614da3876103208501614b22565b610160820152614db7876103c08501614b70565b6101808201528093505050509250929050565b60008060408385031215614ddd57600080fd5b50508035926020909101359150565b600080600060608486031215614e0157600080fd5b8335614e0c8161481e565b9250602084013591506040840135614e238161481e565b809150509250925092565b600080600080600060a08688031215614e4657600080fd5b505083359560208501359550604085013594606081013594506080013592509050565b60ff81168114612d7357600080fd5b600080600060408486031215614e8d57600080fd5b8335614e9881614e69565b9250602084013567ffffffffffffffff80821115614eb557600080fd5b818601915086601f830112614ec957600080fd5b813581811115614ed857600080fd5b8760208260051b8501011115614eed57600080fd5b6020830194508093505050509250925092565b60008060408385031215614f1357600080fd5b8235614f1e8161481e565b946020939093013593505050565b60008060408385031215614f3f57600080fd5b8235614f4a81614e69565b91506020830135614f5a8161481e565b809150509250929050565b6020808252818101527f4f776e61626c653a2063616c6c6572206973206e6f7420746865206f776e6572604082015260600190565b60208082526004908201526310b3b7bb60e11b604082015260600190565b6020808252602e908201527f496e697469616c697a61626c653a20636f6e747261637420697320616c72656160408201526d191e481a5b9a5d1a585b1a5e995960921b606082015260800190565b6020808252601f908201527f5265656e7472616e637947756172643a207265656e7472616e742063616c6c00604082015260600190565b60208082526010908201526f10bd37b93937a1b7b73a3937b63632b960811b604082015260600190565b60208082526010908201526f14185d5cd8589b194e881c185d5cd95960821b604082015260600190565b6000602082840312156150a357600080fd5b5051919050565b634e487b7160e01b600052603260045260246000fd5b634e487b7160e01b600052601160045260246000fd5b600061ffff808316818114156150ee576150ee6150c0565b6001019392505050565b60006020828403121561510a57600080fd5b815161352081614e69565b805169ffffffffffffffffffff8116811461483e57600080fd5b600080600080600060a0868803121561514757600080fd5b61515086615115565b945060208601519350604086015192506060860151915061517360808701615115565b90509295509295909350565b600181815b808511156151ba5781600019048211156151a0576151a06150c0565b808516156151ad57918102915b93841c9390800290615184565b509250929050565b6000826151d1575060016116cb565b816151de575060006116cb565b81600181146151f457600281146151fe5761521a565b60019150506116cb565b60ff84111561520f5761520f6150c0565b50506001821b6116cb565b5060208310610133831016604e8410600b841016171561523d575081810a6116cb565b615247838361517f565b806000190482111561525b5761525b6150c0565b029392505050565b600061352060ff8416836151c2565b60008219821115615285576152856150c0565b500190565b60008160001904831182151516156152a4576152a46150c0565b500290565b6000826152c657634e487b7160e01b600052601260045260246000fd5b500490565b6020808252602b908201527f496e697469616c697a61626c653a20636f6e7472616374206973206e6f74206960408201526a6e697469616c697a696e6760a81b606082015260800190565b600082821015615328576153286150c0565b500390565b60006020828403121561533f57600080fd5b815161352081614879565b634e487b7160e01b600052602160045260246000fd5b60005b8381101561537b578181015183820152602001615363565b83811115611b885750506000910152565b600081518084526153a4816020860160208601615360565b601f01601f19169290920160200192915050565b60e08152845160e082015260006020860151600281106153e857634e487b7160e01b600052602160045260246000fd5b61010083015260408601516001600160a01b0316610120830152606086015161541d6101408401826001600160a01b03169052565b50608086015161016083015260a086015160c06101808401526154446101a084018261538c565b915050615484602083018680516001600160a01b039081168352602080830151151590840152604080830151909116908301526060908101511515910152565b60a082019390935260c0015292915050565b600081518084526020808501945080840160005b838110156154cf5781516001600160a01b0316875295820195908201906001016154aa565b509495945050505050565b82815260406020820152600061329d6040830184615496565b6000602080838503121561550657600080fd5b825167ffffffffffffffff81111561551d57600080fd5b8301601f8101851361552e57600080fd5b805161553c614acf82614a8a565b81815260059190911b8201830190838101908783111561555b57600080fd5b928401925b8284101561471157835182529284019290840190615560565b85815284602082015260a06040820152600061559860a0830186615496565b6001600160a01b0394909416606083015250608001529392505050565b6000806000606084860312156155ca57600080fd5b8351925060208401519150604084015190509250925092565b600080600080608085870312156155f957600080fd5b84519350602085015192506040850151915060608501516156198161481e565b939692955090935050565b60008251615636818460208701615360565b9190910192915050565b602081526000613520602083018461538c56fe000000000000000000000000e9e7cea3dedca5984780bafc599bd69add087d56a2646970667358221220a4a4acdd38220301cca4dfd97e4e43687e81602e2ad4b399f2dd25477d0a454f64736f6c634300080a0033",
  "immutableReferences": {},
  "source": "// SPDX-License-Identifier: MIT\n\npragma solidity ^0.8.0;\n\nimport \"@openzeppelin/contracts-upgradeable/token/ERC20/utils/SafeERC20Upgradeable.sol\";\n\nimport \"../interfaces/IAMMFarm.sol\";\n\nimport \"../interfaces/IAcryptosFarm.sol\";\n\nimport \"../interfaces/IAcryptosVault.sol\";\n\nimport \"@openzeppelin/contracts-upgradeable/token/ERC20/IERC20Upgradeable.sol\";\n\nimport \"@openzeppelin/contracts-upgradeable/utils/math/SafeMathUpgradeable.sol\";\n\nimport \"./_VaultBase.sol\";\n\nimport \"../interfaces/IBalancerVault.sol\";\n\nimport \"../libraries/PriceFeed.sol\";\n\nimport \"@openzeppelin/contracts-upgradeable/proxy/ClonesUpgradeable.sol\";\n\n/// @title Vault factory for VaultAcryptosSingle\ncontract VaultFactoryAcryptosSingle is Initializable, OwnableUpgradeable {\n    /* State */\n\n    VaultAcryptosSingle[] public deployedVaults; // All deployed vaults\n    address public masterVault; // Address of the upgradeable proxy that delegates to the master vault contract\n\n    /* Constructor */\n\n    function initialize(address _masterVault) public initializer {\n        // Set master vault address\n        masterVault = _masterVault;\n\n        // Ownable\n        __Ownable_init();\n    }\n\n    /* Factory functions */\n\n    function createVault(\n        address _timelockOwner,\n        VaultAcryptosSingle.VaultAcryptosSingleInit memory _initValue\n    ) external onlyOwner {\n        // Create clone\n        VaultAcryptosSingle _vault = VaultAcryptosSingle(\n            ClonesUpgradeable.clone(masterVault)\n        );\n        // Initialize cloned contract\n        _vault.initialize(_timelockOwner, _initValue);\n        // Add to array of deployed vaults\n        deployedVaults.push(_vault);\n    }\n\n    function numVaults() external view returns (uint256) {\n        return deployedVaults.length;\n    }\n}\n\n/// @title Vault contract for Acryptos single token strategies (e.g. for lending)\ncontract VaultAcryptosSingle is VaultBase {\n    /* Libraries */\n    using SafeMathUpgradeable for uint256;\n    using SafeERC20Upgradeable for IERC20Upgradeable;\n    using SafeSwapBalancer for IBalancerVault;\n    using SafeSwapUni for IAMMRouter02;\n    using PriceFeed for AggregatorV3Interface;\n\n    /* Constructor */\n    /// @notice Upgradeable constructor\n    /// @param _initValue A VaultAcryptosSingleInit struct containing all init values\n    /// @param _timelockOwner The designated timelock controller address to act as owner\n    function initialize(\n        address _timelockOwner,\n        VaultAcryptosSingleInit memory _initValue\n    ) public initializer {\n        // Vault config\n        pid = _initValue.pid;\n        isHomeChain = _initValue.isHomeChain;\n\n        // Addresses\n        govAddress = _initValue.keyAddresses.govAddress;\n        onlyGov = true;\n        zorroControllerAddress = _initValue.keyAddresses.zorroControllerAddress;\n        ZORROAddress = _initValue.keyAddresses.ZORROAddress;\n        zorroStakingVault = _initValue.keyAddresses.zorroStakingVault;\n        wantAddress = _initValue.keyAddresses.wantAddress;\n        token0Address = _initValue.keyAddresses.token0Address;\n        token1Address = _initValue.keyAddresses.token1Address;\n        earnedAddress = _initValue.keyAddresses.earnedAddress;\n        farmContractAddress = _initValue.keyAddresses.farmContractAddress;\n        rewardsAddress = _initValue.keyAddresses.rewardsAddress;\n        poolAddress = _initValue.keyAddresses.poolAddress;\n        uniRouterAddress = _initValue.keyAddresses.uniRouterAddress;\n        zorroLPPool = _initValue.keyAddresses.zorroLPPool;\n        zorroLPPoolOtherToken = _initValue.keyAddresses.zorroLPPoolOtherToken;\n        tokenUSDCAddress = _initValue.keyAddresses.tokenUSDCAddress;\n\n        // Fees\n        controllerFee = _initValue.fees.controllerFee;\n        buyBackRate = _initValue.fees.buyBackRate;\n        revShareRate = _initValue.fees.revShareRate;\n        entranceFeeFactor = _initValue.fees.entranceFeeFactor;\n        withdrawFeeFactor = _initValue.fees.withdrawFeeFactor;\n\n        // Swap paths\n        earnedToZORROPath = _initValue.earnedToZORROPath;\n        earnedToToken0Path = _initValue.earnedToToken0Path;\n        USDCToToken0Path = _initValue.USDCToToken0Path;\n        earnedToZORLPPoolOtherTokenPath = _initValue\n            .earnedToZORLPPoolOtherTokenPath;\n        earnedToUSDCPath = _initValue.earnedToUSDCPath;\n        BUSDToToken0Path = _initValue.BUSDToToken0Path;\n        BUSDToZORROPath = _initValue.BUSDToZORROPath;\n        BUSDToLPPoolOtherTokenPath = _initValue.BUSDToLPPoolOtherTokenPath;\n        // Corresponding reverse paths\n        token0ToUSDCPath = _reversePath(USDCToToken0Path);\n\n        // Price feeds\n        token0PriceFeed = AggregatorV3Interface(\n            _initValue.priceFeeds.token0PriceFeed\n        );\n        earnTokenPriceFeed = AggregatorV3Interface(\n            _initValue.priceFeeds.earnTokenPriceFeed\n        );\n        lpPoolOtherTokenPriceFeed = AggregatorV3Interface(\n            _initValue.priceFeeds.lpPoolOtherTokenPriceFeed\n        );\n        ZORPriceFeed = AggregatorV3Interface(\n            _initValue.priceFeeds.ZORPriceFeed\n        );\n\n        // Super call\n        VaultBase.initialize(_timelockOwner);\n    }\n\n    /* Structs */\n\n    struct VaultAcryptosSingleInit {\n        uint256 pid;\n        bool isHomeChain;\n        VaultAddresses keyAddresses;\n        address[] earnedToZORROPath;\n        address[] earnedToToken0Path;\n        address[] USDCToToken0Path;\n        address[] earnedToZORLPPoolOtherTokenPath;\n        address[] earnedToUSDCPath;\n        address[] BUSDToToken0Path;\n        address[] BUSDToZORROPath;\n        address[] BUSDToLPPoolOtherTokenPath;\n        VaultFees fees;\n        VaultPriceFeeds priceFeeds;\n    }\n\n    /* Constants */\n\n    address public constant tokenACS =\n        0x4197C6EF3879a08cD51e5560da5064B773aa1d29;\n    address public constant balancerVaultAddress =\n        0xa82f327BBbF0667356D2935C6532d164b06cEced; // Address of Balancer/ACSI.finance Vault for swaps etc.\n    bytes32 public constant balancerPool =\n        0x894ed9026de37afd9cce1e6c0be7d6b510e3ffe5000100000000000000000001; // The Acryptos ACSI.finance pool ID for swapping Earned token to BUSD tokens.\n    address public constant tokenBUSD =\n        0xe9e7CEA3DedcA5984780Bafc599bD69ADd087D56;\n\n    /* State */\n\n    uint256 public balancerACSWeightBasisPoints; // Relative weight of ACS token in balancer pool\n    uint256 public balancerBUSDWeightBasisPoints; // Relative weight of BUSD token in balancer pool\n    address[] public BUSDToToken0Path; // Swap path from BUSD to Token0 (PCS)\n    address[] public BUSDToZORROPath; // Swap path from BUSD to ZOR (PCS)\n    address[] public BUSDToLPPoolOtherTokenPath; // Swap path from BUSD to ZOR LP Pool's \"other token\" (PCS)\n\n    /* Setters */\n\n    function setBalancerWeights(uint256 _acsWeight, uint256 _busdWeight)\n        external\n        onlyOwner\n    {\n        balancerACSWeightBasisPoints = _acsWeight;\n        balancerBUSDWeightBasisPoints = _busdWeight;\n    }\n\n    function setBUSDSwapPaths(uint8 _idx, address[] calldata _path)\n        external\n        onlyOwner\n    {\n        if (_idx == 0) {\n            BUSDToToken0Path = _path;\n        } else if (_idx == 1) {\n            BUSDToZORROPath = _path;\n        } else if (_idx == 2) {\n            BUSDToLPPoolOtherTokenPath = _path;\n        } else {\n            revert(\"unsupported idx swap path\");\n        }\n    }\n\n    /* Investment Actions */\n\n    /// @notice Receives new deposits from user\n    /// @param _account address of user that this deposit is intended for\n    /// @param _wantAmt amount of Want token to deposit/stake\n    /// @return sharesAdded uint256 Number of shares added\n    function depositWantToken(address _account, uint256 _wantAmt)\n        public\n        virtual\n        override\n        onlyZorroController\n        nonReentrant\n        whenNotPaused\n        returns (uint256 sharesAdded)\n    {\n        // Preflight checks\n        require(_wantAmt > 0, \"Want token deposit must be > 0\");\n\n        // Transfer Want token from sender\n        IERC20Upgradeable(wantAddress).safeTransferFrom(\n            msg.sender,\n            address(this),\n            _wantAmt\n        );\n\n        // Set sharesAdded to the Want token amount specified\n        sharesAdded = _wantAmt;\n        // If the total number of shares and want tokens locked both exceed 0, the shares added is the proportion of Want tokens locked,\n        // discounted by the entrance fee\n        if (wantLockedTotal > 0 && sharesTotal > 0) {\n            sharesAdded = _wantAmt\n                .mul(sharesTotal)\n                .mul(entranceFeeFactor)\n                .div(wantLockedTotal)\n                .div(entranceFeeFactorMax);\n        }\n        // Increment the shares\n        sharesTotal = sharesTotal.add(sharesAdded);\n        userShares[_account] = userShares[_account].add(sharesAdded);\n\n        // Farm the want token\n        _farm();\n    }\n\n    /// @notice Performs necessary operations to convert USDC into Want token\n    /// @param _amountUSDC The USDC quantity to exchange (must already be deposited)\n    /// @param _maxMarketMovementAllowed The max slippage allowed. 1000 = 0 %, 995 = 0.5%, etc.\n    /// @return uint256 Amount of Want token obtained\n    function exchangeUSDForWantToken(\n        uint256 _amountUSDC,\n        uint256 _maxMarketMovementAllowed\n    ) public override onlyZorroController whenNotPaused returns (uint256) {\n        // Get balance of deposited USDC\n        uint256 _balUSDC = IERC20(tokenUSDCAddress).balanceOf(address(this));\n        // Check that USDC was actually deposited\n        require(_amountUSDC > 0, \"USDC deposit must be > 0\");\n        require(_amountUSDC <= _balUSDC, \"USDC desired exceeded bal\");\n\n        // Use price feed to determine exchange rates\n        uint256 _token0ExchangeRate = token0PriceFeed.getExchangeRate();\n\n        // Swap USDC for tokens\n        // Increase allowance\n        IERC20Upgradeable(tokenUSDCAddress).safeIncreaseAllowance(\n            uniRouterAddress,\n            _amountUSDC\n        );\n        // Single asset. Swap from USDC directly to Token0\n        _safeSwap(\n            SafeSwapParams({\n                amountIn: _amountUSDC,\n                priceToken0: 1e12,\n                priceToken1: _token0ExchangeRate,\n                token0: tokenUSDCAddress,\n                token1: token0Address,\n                token0Weight: 0,\n                token1Weight: 0,\n                maxMarketMovementAllowed: _maxMarketMovementAllowed,\n                path: USDCToToken0Path,\n                destination: address(this)\n            })\n        );\n\n        // Get new Token0 balance\n        uint256 _token0Bal = IERC20Upgradeable(token0Address).balanceOf(\n            address(this)\n        );\n\n        // Deposit token to get Want token\n        IAcryptosVault(poolAddress).deposit(_token0Bal);\n\n        // Calculate resulting want token balance\n        uint256 _wantAmt = IERC20Upgradeable(wantAddress).balanceOf(\n            address(this)\n        );\n\n        // Transfer back to sender\n        IERC20Upgradeable(wantAddress).safeTransfer(\n            zorroControllerAddress,\n            _wantAmt\n        );\n\n        return _wantAmt;\n    }\n\n    /// @notice Safely swaps tokens using the most suitable protocol based on token\n    /// @param _swapParams SafeSwapParams for swap\n    function _safeSwap(SafeSwapParams memory _swapParams) internal {\n        if (_swapParams.token0 == tokenACS || _swapParams.token1 == tokenACS) {\n            // If it's for the Acryptos tokens, swap on ACS Finance (Balancer clone) (Better liquidity for these tokens only)\n            IBalancerVault(balancerVaultAddress).safeSwap(\n                balancerPool,\n                _swapParams\n            );\n        } else {\n            // Otherwise, swap on normal Pancakeswap (or Uniswap clone) for simplicity & liquidity\n            IAMMRouter02(uniRouterAddress).safeSwap(\n                _swapParams.amountIn,\n                _swapParams.priceToken0,\n                _swapParams.priceToken1,\n                _swapParams.maxMarketMovementAllowed,\n                _swapParams.path,\n                _swapParams.destination,\n                block.timestamp.add(600)\n            );\n        }\n    }\n\n    /// @notice Public function for farming Want token.\n    function farm() public virtual nonReentrant {\n        _farm();\n    }\n\n    /// @notice Internal function for farming Want token. Responsible for staking Want token in a MasterChef/MasterApe-like contract\n    function _farm() internal virtual {\n        // Get the Want token stored on this contract\n        uint256 wantAmt = IERC20Upgradeable(wantAddress).balanceOf(\n            address(this)\n        );\n        // Increment the total Want tokens locked into this contract\n        wantLockedTotal = wantLockedTotal.add(wantAmt);\n        // Allow the farm contract (e.g. MasterChef) the ability to transfer up to the Want amount\n        IERC20Upgradeable(wantAddress).safeIncreaseAllowance(\n            farmContractAddress,\n            wantAmt\n        );\n\n        // Deposit the Want tokens in the Farm contract\n        IAcryptosFarm(farmContractAddress).deposit(wantAddress, wantAmt);\n    }\n\n    /// @notice Internal function for unfarming Want token. Responsible for unstaking Want token from MasterChef/MasterApe contracts\n    /// @param _wantAmt the amount of Want tokens to withdraw. If 0, will only harvest and not withdraw\n    function _unfarm(uint256 _wantAmt) internal virtual {\n        // Withdraw the Want tokens from the Farm contract\n        IAcryptosFarm(farmContractAddress).withdraw(wantAddress, _wantAmt);\n    }\n\n    /// @notice Fully withdraw Want tokens from the Farm contract (100% withdrawals only)\n    /// @param _account The address of the owner of vault investment\n    /// @param _wantAmt The amount of Want token to withdraw\n    /// @return uint256 The number of shares removed\n    function withdrawWantToken(address _account, uint256 _wantAmt)\n        public\n        virtual\n        override\n        onlyZorroController\n        nonReentrant\n        whenNotPaused\n        returns (uint256)\n    {\n        // Preflight checks\n        require(_wantAmt > 0, \"want amt <= 0\");\n\n        // Shares removed is proportional to the % of total Want tokens locked that _wantAmt represents\n        uint256 sharesRemoved = _wantAmt.mul(sharesTotal).div(wantLockedTotal);\n        // Safety: cap the shares to the total number of shares\n        if (sharesRemoved > sharesTotal) {\n            sharesRemoved = sharesTotal;\n        }\n        // Decrement the total shares by the sharesRemoved\n        sharesTotal = sharesTotal.sub(sharesRemoved);\n        userShares[_account] = userShares[_account].sub(sharesRemoved);\n\n        // If a withdrawal fee is specified, discount the _wantAmt by the withdrawal fee\n        if (withdrawFeeFactor < withdrawFeeFactorMax) {\n            _wantAmt = _wantAmt.mul(withdrawFeeFactor).div(\n                withdrawFeeFactorMax\n            );\n        }\n\n        // Unfarm Want token\n        _unfarm(_wantAmt);\n\n        // Safety: Check balance of this contract's Want tokens held, and cap _wantAmt to that value\n        uint256 wantAmt = IERC20Upgradeable(wantAddress).balanceOf(\n            address(this)\n        );\n        if (_wantAmt > wantAmt) {\n            _wantAmt = wantAmt;\n        }\n        // Safety: cap _wantAmt at the total quantity of Want tokens locked\n        if (wantLockedTotal < _wantAmt) {\n            _wantAmt = wantLockedTotal;\n        }\n\n        // Decrement the total Want locked tokens by the _wantAmt\n        wantLockedTotal = wantLockedTotal.sub(_wantAmt);\n\n        // Finally, transfer the want amount from this contract, back to the ZorroController contract\n        IERC20Upgradeable(wantAddress).safeTransfer(\n            zorroControllerAddress,\n            _wantAmt\n        );\n\n        return sharesRemoved;\n    }\n\n    /// @notice Converts Want token back into USD to be ready for withdrawal and transfers to sender\n    /// @param _amount The Want token quantity to exchange (must be deposited beforehand)\n    /// @param _maxMarketMovementAllowed The max slippage allowed for swaps. 1000 = 0 %, 995 = 0.5%, etc.\n    /// @return uint256 Amount of USDC token obtained\n    function exchangeWantTokenForUSD(\n        uint256 _amount,\n        uint256 _maxMarketMovementAllowed\n    )\n        public\n        virtual\n        override\n        onlyZorroController\n        whenNotPaused\n        returns (uint256)\n    {\n        // Preflight checks\n        require(_amount > 0, \"Want amt must be > 0\");\n\n        // Safely transfer Want token from sender\n        IERC20Upgradeable(wantAddress).safeTransferFrom(\n            msg.sender,\n            address(this),\n            _amount\n        );\n\n        // Withdraw Want token to get Token0\n        IAcryptosFarm(farmContractAddress).withdraw(wantAddress, _amount);\n\n        // Use price feed to determine exchange rates\n        uint256 _token0ExchangeRate = token0PriceFeed.getExchangeRate();\n\n        // Swap Token0 for USDC\n        // Get Token0 balance\n        uint256 _token0Bal = IERC20Upgradeable(token0Address).balanceOf(\n            address(this)\n        );\n        // Increase allowance\n        IERC20Upgradeable(token0Address).safeIncreaseAllowance(\n            uniRouterAddress,\n            _token0Bal\n        );\n        // Swap Token0 -> USDC\n        _safeSwap(\n            SafeSwapParams({\n                amountIn: _token0Bal,\n                priceToken0: _token0ExchangeRate,\n                priceToken1: 1e12,\n                token0: token0Address,\n                token1: tokenUSDCAddress,\n                token0Weight: 0,\n                token1Weight: 0,\n                maxMarketMovementAllowed: _maxMarketMovementAllowed,\n                path: token0ToUSDCPath,\n                destination: msg.sender\n            })\n        );\n\n        // Calculate USDC balance\n        return IERC20(tokenUSDCAddress).balanceOf(address(this));\n    }\n\n    /// @notice The main compounding (earn) function. Reinvests profits since the last earn event.\n    /// @param _maxMarketMovementAllowed The max slippage allowed. 1000 = 0 %, 995 = 0.5%, etc.\n    function earn(uint256 _maxMarketMovementAllowed)\n        public\n        virtual\n        override\n        nonReentrant\n        whenNotPaused\n    {\n        // If onlyGov is set to true, only allow to proceed if the current caller is the govAddress\n        if (onlyGov) {\n            require(msg.sender == govAddress, \"!gov\");\n        }\n\n        // Harvest farm tokens\n        _unfarm(0);\n\n        // Get the balance of the Earned token on this contract (ACS, etc.)\n        uint256 earnedAmt = IERC20(earnedAddress).balanceOf(address(this));\n\n        // Get exchange rate from price feed\n        uint256 _earnTokenExchangeRate = earnTokenPriceFeed.getExchangeRate();\n        uint256 _token0ExchangeRate = token0PriceFeed.getExchangeRate();\n        uint256 _ZORExchangeRate = ZORPriceFeed.getExchangeRate();\n        uint256 _lpPoolOtherTokenExchangeRate = ZORPriceFeed.getExchangeRate();\n        // Create rates struct\n        ExchangeRates memory _rates = ExchangeRates({\n            earn: _earnTokenExchangeRate,\n            ZOR: _ZORExchangeRate,\n            lpPoolOtherToken: _lpPoolOtherTokenExchangeRate\n        });\n\n        // Reassign value of earned amount after distributing fees\n        earnedAmt = _distributeFees(earnedAmt);\n        // Reassign value of earned amount after buying back a certain amount of Zorro, sharing revenue\n        earnedAmt = _buyBackAndRevShare(\n            earnedAmt,\n            _maxMarketMovementAllowed,\n            _rates\n        );\n\n        // Swap Earn token for single asset token\n\n        // Step 1: Earned to BUSD\n        _safeSwap(\n            SafeSwapParams({\n                amountIn: earnedAmt,\n                priceToken0: _earnTokenExchangeRate,\n                priceToken1: 1e12,\n                token0: earnedAddress,\n                token1: tokenBUSD,\n                token0Weight: balancerACSWeightBasisPoints,\n                token1Weight: balancerBUSDWeightBasisPoints,\n                maxMarketMovementAllowed: _maxMarketMovementAllowed,\n                path: earnedToToken0Path,\n                destination: address(this)\n            })\n        );\n\n        // Step 2: BUSD to Token0\n        uint256 _balBUSD = IERC20Upgradeable(tokenBUSD).balanceOf(\n            address(this)\n        );\n        // Increase allowance\n        IERC20Upgradeable(tokenBUSD).safeIncreaseAllowance(\n            uniRouterAddress,\n            _balBUSD\n        );\n        _safeSwap(\n            SafeSwapParams({\n                amountIn: _balBUSD,\n                priceToken0: 1e12,\n                priceToken1: _token0ExchangeRate,\n                token0: tokenBUSD,\n                token1: token0Address,\n                token0Weight: 0,\n                token1Weight: 0,\n                maxMarketMovementAllowed: _maxMarketMovementAllowed,\n                path: BUSDToToken0Path,\n                destination: address(this)\n            })\n        );\n\n        // Redeposit single asset token to get Want token\n        // Get new Token0 balance\n        uint256 _token0Bal = IERC20(token0Address).balanceOf(address(this));\n        // Deposit token to get Want token\n        IAcryptosVault(poolAddress).deposit(_token0Bal);\n\n        // This vault is only for single asset deposits, so farm that token and exit\n        // Update the last earn block\n        lastEarnBlock = block.number;\n        // Farm LP token\n        _farm();\n    }\n\n    /// @notice Buys back the earned token on-chain, swaps it to add liquidity to the ZOR pool, then burns the associated LP token\n    /// @dev Requires funds to be sent to this address before calling. Can be called internally OR by controller\n    /// @param _amount The amount of Earn token to buy back\n    /// @param _maxMarketMovementAllowed The max slippage allowed. 1000 = 0 %, 995 = 0.5%, etc.\n    /// @param _rates ExchangeRates struct with realtime rates information for swaps\n    function _buybackOnChain(\n        uint256 _amount,\n        uint256 _maxMarketMovementAllowed,\n        ExchangeRates memory _rates\n    ) internal override {\n        // Authorize spending beforehand\n        IERC20Upgradeable(earnedAddress).safeIncreaseAllowance(\n            uniRouterAddress,\n            _amount\n        );\n\n        // 1. Swap Earned -> BUSD\n        address[] memory _dummyEarnedToBUSDPath;\n        _safeSwap(\n            SafeSwapParams({\n                amountIn: _amount,\n                priceToken0: _rates.earn,\n                priceToken1: 1e12,\n                token0: earnedAddress,\n                token1: tokenBUSD,\n                token0Weight: balancerACSWeightBasisPoints,\n                token1Weight: balancerBUSDWeightBasisPoints,\n                maxMarketMovementAllowed: _maxMarketMovementAllowed,\n                path: _dummyEarnedToBUSDPath,\n                destination: address(this)\n            })\n        );\n\n        // Get BUSD bal\n        uint256 _balBUSD = IERC20Upgradeable(tokenBUSD).balanceOf(\n            address(this)\n        );\n        // Approve spending\n        IERC20Upgradeable(tokenBUSD).safeIncreaseAllowance(\n            uniRouterAddress,\n            _balBUSD\n        );\n\n        // 2. Swap 1/2 BUSD -> ZOR\n        _safeSwap(\n            SafeSwapParams({\n                amountIn: _balBUSD.div(2),\n                priceToken0: 1e12,\n                priceToken1: _rates.ZOR,\n                token0: tokenBUSD,\n                token1: ZORROAddress,\n                token0Weight: 0,\n                token1Weight: 0,\n                maxMarketMovementAllowed: _maxMarketMovementAllowed,\n                path: BUSDToZORROPath,\n                destination: address(this)\n            })\n        );\n\n        // 3. Swap 1/2 BUSD -> LP \"other token\"\n        _safeSwap(\n            SafeSwapParams({\n                amountIn: _balBUSD.div(2),\n                priceToken0: 1e12,\n                priceToken1: _rates.lpPoolOtherToken,\n                token0: tokenBUSD,\n                token1: zorroLPPoolOtherToken,\n                token0Weight: 0,\n                token1Weight: 0,\n                maxMarketMovementAllowed: _maxMarketMovementAllowed,\n                path: BUSDToLPPoolOtherTokenPath,\n                destination: address(this)\n            })\n        );\n\n        // Enter LP pool and send received token to the burn address\n        uint256 zorroTokenAmt = IERC20Upgradeable(ZORROAddress).balanceOf(\n            address(this)\n        );\n        uint256 otherTokenAmt = IERC20Upgradeable(zorroLPPoolOtherToken)\n            .balanceOf(address(this));\n        IERC20Upgradeable(ZORROAddress).safeIncreaseAllowance(\n            uniRouterAddress,\n            zorroTokenAmt\n        );\n        IERC20Upgradeable(zorroLPPoolOtherToken).safeIncreaseAllowance(\n            uniRouterAddress,\n            otherTokenAmt\n        );\n        IAMMRouter02(uniRouterAddress).addLiquidity(\n            ZORROAddress,\n            zorroLPPoolOtherToken,\n            zorroTokenAmt,\n            otherTokenAmt,\n            zorroTokenAmt.mul(_maxMarketMovementAllowed).div(1000),\n            otherTokenAmt.mul(_maxMarketMovementAllowed).div(1000),\n            burnAddress,\n            block.timestamp.add(600)\n        );\n    }\n\n    /// @notice Sends the specified earnings amount as revenue share to ZOR stakers\n    /// @param _amount The amount of Earn token to share as revenue with ZOR stakers\n    /// @param _maxMarketMovementAllowed Max slippage. 950 = 5%, 990 = 1%, etc.\n    /// @param _rates ExchangeRates struct with realtime rates information for swaps\n    function _revShareOnChain(\n        uint256 _amount,\n        uint256 _maxMarketMovementAllowed,\n        ExchangeRates memory _rates\n    ) internal override {\n        // Authorize spending beforehand\n        IERC20Upgradeable(earnedAddress).safeIncreaseAllowance(\n            uniRouterAddress,\n            _amount\n        );\n\n        // Swap Earn to USDC\n        // Require two step swap (Balancer + Uni)\n        // 1. Balancer: Earn -> BUSD\n        address[] memory _dummyPath;\n        _safeSwap(\n            SafeSwapParams({\n                amountIn: _amount,\n                priceToken0: _rates.earn,\n                priceToken1: 1e12,\n                token0: earnedAddress,\n                token1: tokenBUSD,\n                token0Weight: balancerACSWeightBasisPoints,\n                token1Weight: balancerBUSDWeightBasisPoints,\n                maxMarketMovementAllowed: _maxMarketMovementAllowed,\n                path: _dummyPath, // Unused\n                destination: address(this)\n            })\n        );\n        // 2. Uni: BUSD -> ZOR\n        uint256 _balUSDC = IERC20Upgradeable(tokenUSDCAddress).balanceOf(\n            address(this)\n        );\n        // Increase allowance\n        IERC20Upgradeable(tokenUSDCAddress).safeIncreaseAllowance(\n            uniRouterAddress,\n            _balUSDC\n        );\n        _safeSwap(\n            SafeSwapParams({\n                amountIn: _balUSDC,\n                priceToken0: 1e12,\n                priceToken1: _rates.ZOR,\n                token0: tokenUSDCAddress,\n                token1: ZORROAddress,\n                token0Weight: 0,\n                token1Weight: 0,\n                maxMarketMovementAllowed: _maxMarketMovementAllowed,\n                path: BUSDToZORROPath,\n                destination: zorroStakingVault\n            })\n        );\n    }\n\n    /// @notice Swaps Earn token to USDC and sends to destination specified\n    /// @param _earnedAmount Quantity of Earned tokens\n    /// @param _destination Address to send swapped USDC to\n    /// @param _maxMarketMovementAllowed Slippage factor. 950 = 5%, 990 = 1%, etc.\n    /// @param _rates ExchangeRates struct with realtime rates information for swaps\n    function _swapEarnedToUSDC(\n        uint256 _earnedAmount,\n        address _destination,\n        uint256 _maxMarketMovementAllowed,\n        ExchangeRates memory _rates\n    ) internal override {\n        // Swap ACS to BUSD (Balancer)\n        _safeSwap(\n            SafeSwapParams({\n                amountIn: _earnedAmount,\n                priceToken0: _rates.earn,\n                priceToken1: 1e12,\n                token0: earnedAddress,\n                token1: tokenBUSD,\n                token0Weight: balancerACSWeightBasisPoints,\n                token1Weight: balancerBUSDWeightBasisPoints,\n                maxMarketMovementAllowed: _maxMarketMovementAllowed,\n                path: earnedToUSDCPath, // Unused\n                destination: address(this)\n            })\n        );\n\n        // BUSD balance\n        uint256 _balBUSD = IERC20Upgradeable(tokenBUSD).balanceOf(\n            address(this)\n        );\n\n        // Swap path\n        address[] memory _path;\n        _path[0] = tokenBUSD;\n        _path[1] = tokenUSDCAddress;\n\n        // Swap BUSD to USDC (PCS)\n        // Increase allowance\n        IERC20Upgradeable(tokenBUSD).safeIncreaseAllowance(\n            uniRouterAddress,\n            _balBUSD\n        );\n        // Swap\n        _safeSwap(\n            SafeSwapParams({\n                amountIn: _balBUSD,\n                priceToken0: 1e12,\n                priceToken1: 1e12,\n                token0: tokenBUSD,\n                token1: tokenUSDCAddress,\n                token0Weight: 0,\n                token1Weight: 0,\n                maxMarketMovementAllowed: _maxMarketMovementAllowed,\n                path: _path,\n                destination: _destination\n            })\n        );\n    }\n}\n",
  "sourcePath": "/Users/kristophm/Documents/workspace/zorro-protocol/contracts/vaults/VaultAcryptosSingle.sol",
  "compiler": {
    "name": "solc",
    "version": "0.8.10+commit.fc410830.Emscripten.clang"
  },
  "schemaVersion": "3.4.4",
  "updatedAt": "2022-05-02T16:13:10.411Z",
  "networkType": "ethereum",
  "devdoc": {
    "kind": "dev",
    "methods": {
      "depositWantToken(address,uint256)": {
        "params": {
          "_account": "address of user that this deposit is intended for",
          "_wantAmt": "amount of Want token to deposit/stake"
        },
        "returns": {
          "sharesAdded": "uint256 Number of shares added"
        }
      },
      "earn(uint256)": {
        "params": {
          "_maxMarketMovementAllowed": "The max slippage allowed. 1000 = 0 %, 995 = 0.5%, etc."
        }
      },
      "exchangeUSDForWantToken(uint256,uint256)": {
        "params": {
          "_amountUSDC": "The USDC quantity to exchange (must already be deposited)",
          "_maxMarketMovementAllowed": "The max slippage allowed. 1000 = 0 %, 995 = 0.5%, etc."
        },
        "returns": {
          "_0": "uint256 Amount of Want token obtained"
        }
      },
      "exchangeWantTokenForUSD(uint256,uint256)": {
        "params": {
          "_amount": "The Want token quantity to exchange (must be deposited beforehand)",
          "_maxMarketMovementAllowed": "The max slippage allowed for swaps. 1000 = 0 %, 995 = 0.5%, etc."
        },
        "returns": {
          "_0": "uint256 Amount of USDC token obtained"
        }
      },
      "inCaseTokensGetStuck(address,uint256,address)": {
        "params": {
          "_amount": "The amount of the tokens to transfer",
          "_to": "The address to transfer tokens to",
          "_token": "Address of the ERC20 token to transfer"
        }
      },
      "initialize(address,(uint256,bool,(address,address,address,address,address,address,address,address,address,address,address,address,address,address,address),address[],address[],address[],address[],address[],address[],address[],address[],(uint256,uint256,uint256,uint256,uint256),(address,address,address,address,address)))": {
        "params": {
          "_initValue": "A VaultAcryptosSingleInit struct containing all init values",
          "_timelockOwner": "The designated timelock controller address to act as owner"
        }
      },
      "owner()": {
        "details": "Returns the address of the current owner."
      },
      "paused()": {
        "details": "Returns true if the contract is paused, and false otherwise."
      },
      "renounceOwnership()": {
        "details": "Leaves the contract without owner. It will not be possible to call `onlyOwner` functions anymore. Can only be called by the current owner. NOTE: Renouncing ownership will leave the contract without an owner, thereby removing any functionality that is only available to the owner."
      },
      "setFeeSettings(uint256,uint256,uint256,uint256,uint256)": {
        "params": {
          "_buyBackRate": "Buy back rate fee numerator",
          "_controllerFee": "Controller fee numerator",
          "_entranceFeeFactor": "Entrance fee numerator (higher means smaller percentage)",
          "_revShareRate": "Rev share rate fee numerator",
          "_withdrawFeeFactor": "Withdrawal fee numerator (higher means smaller percentage)"
        }
      },
      "setGov(address)": {
        "params": {
          "_govAddress": "The new gov address"
        }
      },
      "setOnlyGov(bool)": {
        "params": {
          "_onlyGov": "whether onlyGov should be enforced"
        }
      },
      "transferOwnership(address)": {
        "details": "Transfers ownership of the contract to a new account (`newOwner`). Can only be called by the current owner."
      },
      "withdrawWantToken(address,uint256)": {
        "params": {
          "_account": "The address of the owner of vault investment",
          "_wantAmt": "The amount of Want token to withdraw"
        },
        "returns": {
          "_0": "uint256 The number of shares removed"
        }
      }
    },
    "title": "Vault contract for Acryptos single token strategies (e.g. for lending)",
    "version": 1
  },
  "userdoc": {
    "kind": "user",
    "methods": {
      "depositWantToken(address,uint256)": {
        "notice": "Receives new deposits from user"
      },
      "earn(uint256)": {
        "notice": "The main compounding (earn) function. Reinvests profits since the last earn event."
      },
      "exchangeUSDForWantToken(uint256,uint256)": {
        "notice": "Performs necessary operations to convert USDC into Want token"
      },
      "exchangeWantTokenForUSD(uint256,uint256)": {
        "notice": "Converts Want token back into USD to be ready for withdrawal and transfers to sender"
      },
      "farm()": {
        "notice": "Public function for farming Want token."
      },
      "inCaseTokensGetStuck(address,uint256,address)": {
        "notice": "Safely transfer ERC20 tokens stuck in this contract to a specified address"
      },
      "initialize(address,(uint256,bool,(address,address,address,address,address,address,address,address,address,address,address,address,address,address,address),address[],address[],address[],address[],address[],address[],address[],address[],(uint256,uint256,uint256,uint256,uint256),(address,address,address,address,address)))": {
        "notice": "Upgradeable constructor"
      },
      "pause()": {
        "notice": "Pause contract"
      },
      "setFeeSettings(uint256,uint256,uint256,uint256,uint256)": {
        "notice": "Configure key fee parameters"
      },
      "setGov(address)": {
        "notice": "Set governor address"
      },
      "setOnlyGov(bool)": {
        "notice": "Set onlyGov property"
      },
      "unpause()": {
        "notice": "Unpause contract"
      },
      "withdrawWantToken(address,uint256)": {
        "notice": "Fully withdraw Want tokens from the Farm contract (100% withdrawals only)"
      }
    },
    "version": 1
  }
}