{
  "contractName": "VaultActionsStargate",
  "abi": [
    {
      "anonymous": false,
      "inputs": [
        {
          "indexed": true,
          "internalType": "address",
          "name": "previousOwner",
          "type": "address"
        },
        {
          "indexed": true,
          "internalType": "address",
          "name": "newOwner",
          "type": "address"
        }
      ],
      "name": "OwnershipTransferred",
      "type": "event"
    },
    {
      "inputs": [],
      "name": "burnAddress",
      "outputs": [
        {
          "internalType": "address",
          "name": "",
          "type": "address"
        }
      ],
      "stateMutability": "view",
      "type": "function"
    },
    {
      "inputs": [
        {
          "internalType": "uint256",
          "name": "_amount",
          "type": "uint256"
        },
        {
          "internalType": "uint256",
          "name": "_maxMarketMovementAllowed",
          "type": "uint256"
        },
        {
          "components": [
            {
              "internalType": "uint256",
              "name": "earn",
              "type": "uint256"
            },
            {
              "internalType": "uint256",
              "name": "ZOR",
              "type": "uint256"
            },
            {
              "internalType": "uint256",
              "name": "lpPoolOtherToken",
              "type": "uint256"
            },
            {
              "internalType": "uint256",
              "name": "stablecoin",
              "type": "uint256"
            }
          ],
          "internalType": "struct VaultActions.ExchangeRates",
          "name": "_rates",
          "type": "tuple"
        },
        {
          "components": [
            {
              "internalType": "address",
              "name": "earnedAddress",
              "type": "address"
            },
            {
              "internalType": "address",
              "name": "ZORROAddress",
              "type": "address"
            },
            {
              "internalType": "address",
              "name": "zorroLPPoolOtherToken",
              "type": "address"
            },
            {
              "internalType": "address[]",
              "name": "earnedToZORROPath",
              "type": "address[]"
            },
            {
              "internalType": "address[]",
              "name": "earnedToZORLPPoolOtherTokenPath",
              "type": "address[]"
            }
          ],
          "internalType": "struct VaultActions.BuybackBurnLPParams",
          "name": "_params",
          "type": "tuple"
        }
      ],
      "name": "buybackBurnLP",
      "outputs": [],
      "stateMutability": "nonpayable",
      "type": "function"
    },
    {
      "inputs": [
        {
          "internalType": "uint256",
          "name": "_amountLP",
          "type": "uint256"
        },
        {
          "internalType": "uint256",
          "name": "_maxMarketMovementAllowed",
          "type": "uint256"
        },
        {
          "internalType": "address",
          "name": "_recipient",
          "type": "address"
        },
        {
          "components": [
            {
              "internalType": "address",
              "name": "token0",
              "type": "address"
            },
            {
              "internalType": "address",
              "name": "token1",
              "type": "address"
            },
            {
              "internalType": "address",
              "name": "poolAddress",
              "type": "address"
            },
            {
              "internalType": "address",
              "name": "wantAddress",
              "type": "address"
            }
          ],
          "internalType": "struct VaultActions.ExitPoolParams",
          "name": "_exitPoolParams",
          "type": "tuple"
        }
      ],
      "name": "exitPool",
      "outputs": [],
      "stateMutability": "nonpayable",
      "type": "function"
    },
    {
      "inputs": [
        {
          "internalType": "address",
          "name": "_uniRouterAddress",
          "type": "address"
        }
      ],
      "name": "initialize",
      "outputs": [],
      "stateMutability": "nonpayable",
      "type": "function"
    },
    {
      "inputs": [
        {
          "internalType": "address",
          "name": "_token0",
          "type": "address"
        },
        {
          "internalType": "address",
          "name": "_token1",
          "type": "address"
        },
        {
          "internalType": "uint256",
          "name": "_token0Amt",
          "type": "uint256"
        },
        {
          "internalType": "uint256",
          "name": "_token1Amt",
          "type": "uint256"
        },
        {
          "internalType": "uint256",
          "name": "_maxMarketMovementAllowed",
          "type": "uint256"
        },
        {
          "internalType": "address",
          "name": "_recipient",
          "type": "address"
        }
      ],
      "name": "joinPool",
      "outputs": [],
      "stateMutability": "nonpayable",
      "type": "function"
    },
    {
      "inputs": [],
      "name": "owner",
      "outputs": [
        {
          "internalType": "address",
          "name": "",
          "type": "address"
        }
      ],
      "stateMutability": "view",
      "type": "function"
    },
    {
      "inputs": [],
      "name": "renounceOwnership",
      "outputs": [],
      "stateMutability": "nonpayable",
      "type": "function"
    },
    {
      "inputs": [
        {
          "internalType": "address[]",
          "name": "_path",
          "type": "address[]"
        }
      ],
      "name": "reversePath",
      "outputs": [
        {
          "internalType": "address[]",
          "name": "_newPath",
          "type": "address[]"
        }
      ],
      "stateMutability": "pure",
      "type": "function"
    },
    {
      "inputs": [
        {
          "components": [
            {
              "internalType": "uint256",
              "name": "amountIn",
              "type": "uint256"
            },
            {
              "internalType": "uint256",
              "name": "priceToken0",
              "type": "uint256"
            },
            {
              "internalType": "uint256",
              "name": "priceToken1",
              "type": "uint256"
            },
            {
              "internalType": "address",
              "name": "token0",
              "type": "address"
            },
            {
              "internalType": "address",
              "name": "token1",
              "type": "address"
            },
            {
              "internalType": "uint256",
              "name": "maxMarketMovementAllowed",
              "type": "uint256"
            },
            {
              "internalType": "address[]",
              "name": "path",
              "type": "address[]"
            },
            {
              "internalType": "address",
              "name": "destination",
              "type": "address"
            }
          ],
          "internalType": "struct SafeSwapParams",
          "name": "_swapParams",
          "type": "tuple"
        }
      ],
      "name": "safeSwap",
      "outputs": [],
      "stateMutability": "nonpayable",
      "type": "function"
    },
    {
      "inputs": [
        {
          "internalType": "address",
          "name": "_burnAddress",
          "type": "address"
        }
      ],
      "name": "setBurnAddress",
      "outputs": [],
      "stateMutability": "nonpayable",
      "type": "function"
    },
    {
      "inputs": [
        {
          "internalType": "address",
          "name": "_uniRouterAddress",
          "type": "address"
        }
      ],
      "name": "setUniRouterAddress",
      "outputs": [],
      "stateMutability": "nonpayable",
      "type": "function"
    },
    {
      "inputs": [
        {
          "internalType": "address",
          "name": "newOwner",
          "type": "address"
        }
      ],
      "name": "transferOwnership",
      "outputs": [],
      "stateMutability": "nonpayable",
      "type": "function"
    },
    {
      "inputs": [],
      "name": "uniRouterAddress",
      "outputs": [
        {
          "internalType": "address",
          "name": "",
          "type": "address"
        }
      ],
      "stateMutability": "view",
      "type": "function"
    },
    {
      "inputs": [
        {
          "internalType": "uint256",
          "name": "_amountUSD",
          "type": "uint256"
        },
        {
          "components": [
            {
              "internalType": "address",
              "name": "stablecoin",
              "type": "address"
            },
            {
              "internalType": "address",
              "name": "token0Address",
              "type": "address"
            },
            {
              "internalType": "address",
              "name": "tokenZorroAddress",
              "type": "address"
            },
            {
              "internalType": "address",
              "name": "wantAddress",
              "type": "address"
            },
            {
              "internalType": "address",
              "name": "stargateRouter",
              "type": "address"
            },
            {
              "internalType": "contract AggregatorV3Interface",
              "name": "token0PriceFeed",
              "type": "address"
            },
            {
              "internalType": "contract AggregatorV3Interface",
              "name": "stablecoinPriceFeed",
              "type": "address"
            },
            {
              "internalType": "address[]",
              "name": "stablecoinToToken0Path",
              "type": "address[]"
            },
            {
              "internalType": "uint16",
              "name": "stargatePoolId",
              "type": "uint16"
            }
          ],
          "internalType": "struct VaultActionsStargate.ExchangeUSDForWantParams",
          "name": "_params",
          "type": "tuple"
        },
        {
          "internalType": "uint256",
          "name": "_maxMarketMovementAllowed",
          "type": "uint256"
        }
      ],
      "name": "exchangeUSDForWantToken",
      "outputs": [
        {
          "internalType": "uint256",
          "name": "",
          "type": "uint256"
        }
      ],
      "stateMutability": "nonpayable",
      "type": "function"
    },
    {
      "inputs": [
        {
          "internalType": "uint256",
          "name": "_amount",
          "type": "uint256"
        },
        {
          "components": [
            {
              "internalType": "address",
              "name": "stablecoin",
              "type": "address"
            },
            {
              "internalType": "address",
              "name": "token0Address",
              "type": "address"
            },
            {
              "internalType": "address",
              "name": "wantAddress",
              "type": "address"
            },
            {
              "internalType": "address",
              "name": "stargateRouter",
              "type": "address"
            },
            {
              "internalType": "contract AggregatorV3Interface",
              "name": "token0PriceFeed",
              "type": "address"
            },
            {
              "internalType": "contract AggregatorV3Interface",
              "name": "stablecoinPriceFeed",
              "type": "address"
            },
            {
              "internalType": "address[]",
              "name": "token0ToStablecoinPath",
              "type": "address[]"
            },
            {
              "internalType": "uint16",
              "name": "stargatePoolId",
              "type": "uint16"
            }
          ],
          "internalType": "struct VaultActionsStargate.ExchangeWantTokenForUSDParams",
          "name": "_params",
          "type": "tuple"
        },
        {
          "internalType": "uint256",
          "name": "_maxMarketMovementAllowed",
          "type": "uint256"
        }
      ],
      "name": "exchangeWantTokenForUSD",
      "outputs": [
        {
          "internalType": "uint256",
          "name": "",
          "type": "uint256"
        }
      ],
      "stateMutability": "nonpayable",
      "type": "function"
    }
  ],
  "bytecode": "0x608060405234801561001057600080fd5b5061299f806100206000396000f3fe608060405234801561001057600080fd5b50600436106100f95760003560e060020a9004806370d5ae051161009b5780638da5cb5b1161006a5780638da5cb5b146101fe578063c4d66de81461020f578063f2fde38b14610222578063f5c5575b1461023557600080fd5b806370d5ae05146101b0578063715018a6146101c35780638b4c5aee146101cb5780638d82ddca146101eb57600080fd5b80634b0e7216116100d75780634b0e72161461014c57806358f5ab9f1461015f5780635da79d6314610172578063693a090b1461018557600080fd5b80630c70c281146100fe57806312ad7eba1461011357806312d8654b14610126575b600080fd5b61011161010c366004611e84565b610248565b005b610111610121366004611fba565b610274565b610139610134366004612095565b6102a0565b6040519081526020015b60405180910390f35b61011161015a3660046121a3565b61052a565b61011161016d3660046121c0565b61058f565b6101116101803660046121a3565b6105cf565b60655461019890600160a060020a031681565b604051600160a060020a039091168152602001610143565b60665461019890600160a060020a031681565b61011161062b565b6101de6101d9366004612227565b610664565b60405161014391906122a0565b6101116101f9366004612379565b61073e565b603354600160a060020a0316610198565b61011161021d3660046121a3565b6109b0565b6101116102303660046121a3565b610ab4565b610139610243366004612411565b610b69565b606081015161026290600160a060020a0316333087610ee4565b61026e84848484610f95565b50505050565b8051606082015161029491600160a060020a039091169033903090610ee4565b61029d8161111f565b50565b81516000906102ba90600160a060020a0316333087610ee4565b8260000151600160a060020a03168360200151600160a060020a03161461036e5761036e6040518061010001604052808681526020016103068660c00151600160a060020a0316611336565b81526020016103218660a00151600160a060020a0316611336565b81526020018560000151600160a060020a031681526020018560200151600160a060020a031681526020018481526020018560e00151815260200130600160a060020a031681525061111f565b602083015160405160e060020a6370a08231028152306004820152600091600160a060020a0316906370a0823190602401602060405180830381865afa1580156103bc573d6000803e3d6000fd5b505050506040513d601f19601f820116820180604052508101906103e0919061250a565b6080850151602086015191925061040191600160a060020a03169083611484565b60808401516101008501516040517f87b21efc00000000000000000000000000000000000000000000000000000000815261ffff909116600482015260248101839052306044820152600160a060020a03909116906387b21efc90606401600060405180830381600087803b15801561047957600080fd5b505af115801561048d573d6000803e3d6000fd5b50505050606084015160405160e060020a6370a08231028152306004820152600091600160a060020a0316906370a0823190602401602060405180830381865afa1580156104df573d6000803e3d6000fd5b505050506040513d601f19601f82011682018060405250810190610503919061250a565b606086015190915061051f90600160a060020a03163383611568565b9150505b9392505050565b603354600160a060020a031633146105605760405160e560020a62461bcd02815260040161055790612523565b60405180910390fd5b6066805473ffffffffffffffffffffffffffffffffffffffff1916600160a060020a0392909216919091179055565b6105a4600160a060020a038716333087610ee4565b6105b9600160a060020a038616333086610ee4565b6105c78686868686866115b1565b505050505050565b603354600160a060020a031633146105fc5760405160e560020a62461bcd02815260040161055790612523565b6065805473ffffffffffffffffffffffffffffffffffffffff1916600160a060020a0392909216919091179055565b603354600160a060020a031633146106585760405160e560020a62461bcd02815260040161055790612523565b61066260006116ef565b565b80516060908067ffffffffffffffff81111561068257610682611dc9565b6040519080825280602002602001820160405280156106ab578160200160208202803683370190505b50915060005b818161ffff16101561073757836106e18261ffff166106db6001885161174e90919063ffffffff16565b9061174e565b815181106106f1576106f1612558565b6020026020010151838261ffff168151811061070f5761070f612558565b600160a060020a03909216602092830291909101909101526107308161258a565b90506106b1565b5050919050565b805161075590600160a060020a0316333087610ee4565b8060200151600160a060020a03168160000151600160a060020a0316146107fa576107fa60405180610100016040528061079960028861176390919063ffffffff16565b815260200184600001518152602001846020015181526020018360000151600160a060020a031681526020018360200151600160a060020a031681526020018581526020018360600151815260200130600160a060020a031681525061111f565b8060400151600160a060020a03168160000151600160a060020a03161461089f5761089f60405180610100016040528061083e60028861176390919063ffffffff16565b815260200184600001518152602001846040015181526020018360000151600160a060020a031681526020018360400151600160a060020a031681526020018581526020018360800151815260200130600160a060020a031681525061111f565b602081015160405160e060020a6370a08231028152306004820152600091600160a060020a0316906370a0823190602401602060405180830381865afa1580156108ed573d6000803e3d6000fd5b505050506040513d601f19601f82011682018060405250810190610911919061250a565b604080840151905160e060020a6370a08231028152306004820152919250600091600160a060020a03909116906370a0823190602401602060405180830381865afa158015610964573d6000803e3d6000fd5b505050506040513d601f19601f82011682018060405250810190610988919061250a565b602084015160408501516066549293506105c792859085908a90600160a060020a03166115b1565b600054610100900460ff166109cb5760005460ff16156109cf565b303b155b610a445760405160e560020a62461bcd02815260206004820152602e60248201527f496e697469616c697a61626c653a20636f6e747261637420697320616c72656160448201527f647920696e697469616c697a65640000000000000000000000000000000000006064820152608401610557565b600054610100900460ff16158015610a66576000805461ffff19166101011790555b60658054600160a060020a03841673ffffffffffffffffffffffffffffffffffffffff19918216179091556066805490911661dead1790558015610ab0576000805461ff00191690555b5050565b603354600160a060020a03163314610ae15760405160e560020a62461bcd02815260040161055790612523565b600160a060020a038116610b605760405160e560020a62461bcd02815260206004820152602660248201527f4f776e61626c653a206e6577206f776e657220697320746865207a65726f206160448201527f64647265737300000000000000000000000000000000000000000000000000006064820152608401610557565b61029d816116ef565b6000808411610bbd5760405160e560020a62461bcd02815260206004820152600760248201527f6e656757616e74000000000000000000000000000000000000000000000000006044820152606401610557565b6040830151610bd790600160a060020a0316333087610ee4565b610bfd8360600151858560400151600160a060020a03166114849092919063ffffffff16565b8260000151600160a060020a03168360200151600160a060020a031614610dcc57606083015160e08401516040517fc4de93a500000000000000000000000000000000000000000000000000000000815261ffff909116600482015260248101869052306044820152600160a060020a039091169063c4de93a5906064016020604051808303816000875af1158015610c9a573d6000803e3d6000fd5b505050506040513d601f19601f82011682018060405250810190610cbe919061250a565b50602083015160405160e060020a6370a08231028152306004820152600091600160a060020a0316906370a0823190602401602060405180830381865afa158015610d0d573d6000803e3d6000fd5b505050506040513d601f19601f82011682018060405250810190610d31919061250a565b9050610dc6604051806101000160405280838152602001610d5e8760800151600160a060020a0316611336565b8152602001610d798760a00151600160a060020a0316611336565b81526020018660200151600160a060020a031681526020018660000151600160a060020a031681526020018581526020018660c00151815260200130600160a060020a031681525061111f565b50610e6e565b606083015160e08401516040517fc4de93a500000000000000000000000000000000000000000000000000000000815261ffff909116600482015260248101869052336044820152600160a060020a039091169063c4de93a5906064016020604051808303816000875af1158015610e48573d6000803e3d6000fd5b505050506040513d601f19601f82011682018060405250810190610e6c919061250a565b505b825160405160e060020a6370a08231028152336004820152600160a060020a03909116906370a0823190602401602060405180830381865afa158015610eb8573d6000803e3d6000fd5b505050506040513d601f19601f82011682018060405250810190610edc919061250a565b949350505050565b604051600160a060020a038085166024830152831660448201526064810182905261026e9085907f23b872dd00000000000000000000000000000000000000000000000000000000906084015b60408051601f198184030181529190526020810180517bffffffffffffffffffffffffffffffffffffffffffffffffffffffff167fffffffff000000000000000000000000000000000000000000000000000000009093169290921790915261176f565b60008060008360400151600160a060020a03166318160ddd6040518163ffffffff1660e060020a028152600401602060405180830381865afa158015610fdf573d6000803e3d6000fd5b505050506040513d601f19601f82011682018060405250810190611003919061250a565b905061101a8785600001518660400151848a611857565b92506110318785602001518660400151848a611857565b606554606086015191935061105391600160a060020a03908116911689611484565b60655484516020860151600160a060020a039092169163baa2abde91908a87878b611080426102586118f2565b60405163ffffffff891660e060020a028152600160a060020a039788166004820152958716602487015260448601949094526064850192909252608484015290921660a482015260c481019190915260e40160408051808303816000875af11580156110f0573d6000803e3d6000fd5b505050506040513d601f19601f8201168201806040525081019061111491906125ac565b505050505050505050565b6065548151606083015161114192600160a060020a0391821692911690611484565b6040805160028082526060820183526000926020830190803683370190505090508160600151600160a060020a031663313ce5676040518163ffffffff1660e060020a028152600401602060405180830381865afa1580156111a7573d6000803e3d6000fd5b505050506040513d601f19601f820116820180604052508101906111cb91906125d0565b816000815181106111de576111de612558565b602002602001019060ff16908160ff16815250508160800151600160a060020a031663313ce5676040518163ffffffff1660e060020a028152600401602060405180830381865afa158015611237573d6000803e3d6000fd5b505050506040513d601f19601f8201168201806040525081019061125b91906125d0565b8160018151811061126e5761126e612558565b60ff9290921660209283029190910182015260408051600280825260608201835260009391929091830190803683370190505090508260200151816000815181106112bb576112bb612558565b6020026020010181815250508260400151816001815181106112df576112df612558565b6020026020010181815250506113318360000151828560a001518660c00151868860e00151611319610258426118f290919063ffffffff16565b606554600160a060020a0316969594939291906118fe565b505050565b60008082600160a060020a031663313ce5676040518163ffffffff1660e060020a028152600401602060405180830381865afa15801561137a573d6000803e3d6000fd5b505050506040513d601f19601f8201168201806040525081019061139e91906125d0565b9050600083600160a060020a031663feaf968c6040518163ffffffff1660e060020a02815260040160a060405180830381865afa1580156113e3573d6000803e3d6000fd5b505050506040513d601f19601f82011682018060405250810190611407919061260d565b50505091505060008112156114615760405160e560020a62461bcd02815260206004820152601660248201527f6e656720707269636573206e6f7420616c6c6f776564000000000000000000006044820152606401610557565b610edc61146f83600a612744565b61147e8364e8d4a51000611a7e565b90611763565b6040517fdd62ed3e000000000000000000000000000000000000000000000000000000008152306004820152600160a060020a038381166024830152600091839186169063dd62ed3e90604401602060405180830381865afa1580156114ee573d6000803e3d6000fd5b505050506040513d601f19601f82011682018060405250810190611512919061250a565b61151c9190612753565b604051600160a060020a03851660248201526044810182905290915061026e9085907f095ea7b30000000000000000000000000000000000000000000000000000000090606401610f31565b604051600160a060020a0383166024820152604481018290526113319084907fa9059cbb0000000000000000000000000000000000000000000000000000000090606401610f31565b6115c6600160a060020a038716333087610ee4565b6115db600160a060020a038616333086610ee4565b6065546115f590600160a060020a03888116911686611484565b60655461160f90600160a060020a03878116911685611484565b606554600160a060020a031663e8e33700878787876116346103e861147e848b611a7e565b6116446103e861147e8c8c611a7e565b88611651426102586118f2565b60405163ffffffff8a1660e060020a028152600160a060020a039889166004820152968816602488015260448701959095526064860193909352608485019190915260a484015290921660c482015260e4810191909152610104016060604051808303816000875af11580156116cb573d6000803e3d6000fd5b505050506040513d601f19601f82011682018060405250810190611114919061276b565b60338054600160a060020a0383811673ffffffffffffffffffffffffffffffffffffffff19831681179093556040519116919082907f8be0079c531659141344cd1fd0a4f28419497f9722a3daafe3b4186f6b6457e090600090a35050565b600061175a8284612799565b90505b92915050565b600061175a82846127b0565b60006117c4826040518060400160405280602081526020017f5361666545524332303a206c6f772d6c6576656c2063616c6c206661696c656481525085600160a060020a0316611a8a9092919063ffffffff16565b80519091501561133157808060200190518101906117e291906127d5565b6113315760405160e560020a62461bcd02815260206004820152602a60248201527f5361666545524332303a204552433230206f7065726174696f6e20646964206e60448201527f6f742073756363656564000000000000000000000000000000000000000000006064820152608401610557565b60405160e060020a6370a08231028152600160a060020a03848116600483015260009182918716906370a0823190602401602060405180830381865afa1580156118a5573d6000803e3d6000fd5b505050506040513d601f19601f820116820180604052508101906118c9919061250a565b90506118e76103e861147e856118e188838d88611a7e565b90611a7e565b979650505050505050565b600061175a8284612753565b82516002146119525760405160e560020a62461bcd02815260206004820152600b60248201527f696e76616c6964206465630000000000000000000000000000000000000000006044820152606401610557565b60008660008151811061196757611967612558565b60200260200101516000148061199757508660018151811061198b5761198b612558565b60200260200101516000145b156119b0576119a98989878988611a99565b90506119f4565b6119f188886000815181106119c7576119c7612558565b6020026020010151896001815181106119e2576119e2612558565b60200260200101518988611bae565b90505b6040517f5c11d795000000000000000000000000000000000000000000000000000000008152600160a060020a038a1690635c11d79590611a41908b9085908a90899089906004016127f7565b600060405180830381600087803b158015611a5b57600080fd5b505af1158015611a6f573d6000803e3d6000fd5b50505050505050505050505050565b600061175a8284612833565b6060610edc8484600085611c29565b60008086600160a060020a031663d06ca61f87876040518363ffffffff1660e060020a028152600401611acd929190612852565b600060405180830381865afa158015611aea573d6000803e3d6000fd5b505050506040513d6000823e601f3d908101601f19168201604052611b12919081019061286b565b90506118e7611b446103e885600081518110611b3057611b30612558565b6020026020010151600a6118e19190612744565b61147e85600181518110611b5a57611b5a612558565b6020026020010151600a611b6e9190612744565b6118e18886611b886001895161174e90919063ffffffff16565b81518110611b9857611b98612558565b6020026020010151611a7e90919063ffffffff16565b6000611c1f611be983600081518110611bc957611bc9612558565b6020026020010151600a611bdd9190612744565b6118e1876103e8611a7e565b61147e84600181518110611bff57611bff612558565b6020026020010151600a611c139190612744565b6118e187818c8c611a7e565b9695505050505050565b60603031831115611ca55760405160e560020a62461bcd02815260206004820152602660248201527f416464726573733a20696e73756666696369656e742062616c616e636520666f60448201527f722063616c6c00000000000000000000000000000000000000000000000000006064820152608401610557565b600160a060020a0385163b611cff5760405160e560020a62461bcd02815260206004820152601d60248201527f416464726573733a2063616c6c20746f206e6f6e2d636f6e74726163740000006044820152606401610557565b60008086600160a060020a03168587604051611d1b919061291a565b60006040518083038185875af1925050503d8060008114611d58576040519150601f19603f3d011682016040523d82523d6000602084013e611d5d565b606091505b50915091506118e782828660608315611d77575081610523565b825115611d875782518084602001fd5b8160405160e560020a62461bcd0281526004016105579190612936565b600160a060020a038116811461029d57600080fd5b8035611dc481611da4565b919050565b60e060020a634e487b7102600052604160045260246000fd5b6040516080810167ffffffffffffffff81118282101715611e0557611e05611dc9565b60405290565b604051610100810167ffffffffffffffff81118282101715611e0557611e05611dc9565b604051610120810167ffffffffffffffff81118282101715611e0557611e05611dc9565b604051601f8201601f1916810167ffffffffffffffff81118282101715611e7c57611e7c611dc9565b604052919050565b60008060008084860360e0811215611e9b57600080fd5b85359450602086013593506040860135611eb481611da4565b92506080605f1982011215611ec857600080fd5b50611ed1611de2565b6060860135611edf81611da4565b81526080860135611eef81611da4565b602082015260a0860135611f0281611da4565b604082015260c0860135611f1581611da4565b6060820152939692955090935050565b600067ffffffffffffffff821115611f3f57611f3f611dc9565b5060209081020190565b600082601f830112611f5a57600080fd5b81356020611f6f611f6a83611f25565b611e53565b82815291810284018101918181019086841115611f8b57600080fd5b8286015b84811015611faf578035611fa281611da4565b8352918301918301611f8f565b509695505050505050565b600060208284031215611fcc57600080fd5b813567ffffffffffffffff80821115611fe457600080fd5b908301906101008286031215611ff957600080fd5b612001611e0b565b82358152602083013560208201526040830135604082015261202560608401611db9565b606082015261203660808401611db9565b608082015260a083013560a082015260c08301358281111561205757600080fd5b61206387828601611f49565b60c08301525061207560e08401611db9565b60e082015295945050505050565b803561ffff81168114611dc457600080fd5b6000806000606084860312156120aa57600080fd5b83359250602084013567ffffffffffffffff808211156120c957600080fd5b9085019061012082880312156120de57600080fd5b6120e6611e2f565b6120ef83611db9565b81526120fd60208401611db9565b602082015261210e60408401611db9565b604082015261211f60608401611db9565b606082015261213060808401611db9565b608082015261214160a08401611db9565b60a082015261215260c08401611db9565b60c082015260e08301358281111561216957600080fd5b61217589828601611f49565b60e083015250610100915061218b828401612083565b82820152809450505050604084013590509250925092565b6000602082840312156121b557600080fd5b813561052381611da4565b60008060008060008060c087890312156121d957600080fd5b86356121e481611da4565b955060208701356121f481611da4565b945060408701359350606087013592506080870135915060a087013561221981611da4565b809150509295509295509295565b60006020828403121561223957600080fd5b813567ffffffffffffffff81111561225057600080fd5b610edc84828501611f49565b600081518084526020808501945080840160005b83811015612295578151600160a060020a031687529582019590820190600101612270565b509495945050505050565b60208152600061175a602083018461225c565b600060a082840312156122c557600080fd5b60405160a0810167ffffffffffffffff82821081831117156122e9576122e9611dc9565b81604052829350843591506122fd82611da4565b90825260208401359061230f82611da4565b81602084015261232160408601611db9565b6040840152606085013591508082111561233a57600080fd5b61234686838701611f49565b6060840152608085013591508082111561235f57600080fd5b5061236c85828601611f49565b6080830152505092915050565b60008060008084860360e081121561239057600080fd5b85359450602086013593506080603f19820112156123ad57600080fd5b506123b6611de2565b60408601358152606086013560208201526080860135604082015260a086013560608201528092505060c085013567ffffffffffffffff8111156123f957600080fd5b612405878288016122b3565b91505092959194509250565b60008060006060848603121561242657600080fd5b83359250602084013567ffffffffffffffff8082111561244557600080fd5b90850190610100828803121561245a57600080fd5b612462611e0b565b61246b83611db9565b815261247960208401611db9565b602082015261248a60408401611db9565b604082015261249b60608401611db9565b60608201526124ac60808401611db9565b60808201526124bd60a08401611db9565b60a082015260c0830135828111156124d457600080fd5b6124e089828601611f49565b60c0830152506124f260e08401612083565b60e08201529497949650505050604092909201359150565b60006020828403121561251c57600080fd5b5051919050565b6020808252818101527f4f776e61626c653a2063616c6c6572206973206e6f7420746865206f776e6572604082015260600190565b60e060020a634e487b7102600052603260045260246000fd5b60e060020a634e487b7102600052601160045260246000fd5b600061ffff808316818114156125a2576125a2612571565b6001019392505050565b600080604083850312156125bf57600080fd5b505080516020909101519092909150565b6000602082840312156125e257600080fd5b815160ff8116811461052357600080fd5b805169ffffffffffffffffffff81168114611dc457600080fd5b600080600080600060a0868803121561262557600080fd5b61262e866125f3565b9450602086015193506040860151925060608601519150612651608087016125f3565b90509295509295909350565b600181815b8085111561269a57816000190482111561267e5761267e612571565b8085161561268b57918102915b60029094049390800290612662565b509250929050565b6000826126b15750600161175d565b816126be5750600061175d565b81600181146126d457600281146126de576126fb565b600191505061175d565b60ff8411156126ef576126ef612571565b8360020a91505061175d565b5060208310610133831016604e8410600b841016171561271e575081810a61175d565b612728838361265d565b806000190482111561273c5761273c612571565b029392505050565b600061175a60ff8416836126a2565b6000821982111561276657612766612571565b500190565b60008060006060848603121561278057600080fd5b8351925060208401519150604084015190509250925092565b6000828210156127ab576127ab612571565b500390565b6000826127d05760e060020a634e487b7102600052601260045260246000fd5b500490565b6000602082840312156127e757600080fd5b8151801515811461052357600080fd5b85815284602082015260a06040820152600061281660a083018661225c565b600160a060020a0394909416606083015250608001529392505050565b600081600019048311821515161561284d5761284d612571565b500290565b828152604060208201526000610edc604083018461225c565b6000602080838503121561287e57600080fd5b825167ffffffffffffffff81111561289557600080fd5b8301601f810185136128a657600080fd5b80516128b4611f6a82611f25565b818152908302820183019083810190878311156128d057600080fd5b928401925b828410156118e7578351825292840192908401906128d5565b60005b838110156129095781810151838201526020016128f1565b8381111561026e5750506000910152565b6000825161292c8184602087016128ee565b9190910192915050565b60208152600082518060208401526129558160408501602087016128ee565b601f01601f1916919091016040019291505056fea2646970667358221220cc323a589fd1c9f9b355c45906e4b28f4b6e2eda3e138f1405bcb05a317fcde164736f6c634300080a0033",
  "immutableReferences": {},
  "source": "// SPDX-License-Identifier: MIT\n\npragma solidity ^0.8.0;\n\nimport \"@openzeppelin/contracts-upgradeable/utils/math/SafeMathUpgradeable.sol\";\n\nimport \"@openzeppelin/contracts-upgradeable/token/ERC20/IERC20Upgradeable.sol\";\n\nimport \"@openzeppelin/contracts-upgradeable/token/ERC20/ERC20Upgradeable.sol\";\n\nimport \"@openzeppelin/contracts-upgradeable/token/ERC20/utils/SafeERC20Upgradeable.sol\";\n\nimport \"../../libraries/SafeSwap.sol\";\n\nimport \"../../libraries/PriceFeed.sol\";\n\nimport \"../../interfaces/Stargate/IStargateRouter.sol\";\n\nimport \"../../interfaces/Stargate/IStargateLPStaking.sol\";\n\nimport \"../../interfaces/IAMMRouter02.sol\";\n\nimport \"./_VaultActions.sol\";\n\ncontract VaultActionsStargate is VaultActions {\n    /* Libraries */\n\n    using SafeERC20Upgradeable for IERC20Upgradeable;\n    using SafeSwapUni for IAMMRouter02;\n    using SafeMathUpgradeable for uint256;\n    using PriceFeed for AggregatorV3Interface;\n\n    /* Structs */\n\n    struct ExchangeUSDForWantParams {\n        address stablecoin;\n        address token0Address;\n        address tokenZorroAddress;\n        address wantAddress;\n        address stargateRouter;\n        AggregatorV3Interface token0PriceFeed;\n        AggregatorV3Interface stablecoinPriceFeed;\n        address[] stablecoinToToken0Path;\n        uint16 stargatePoolId;\n    }\n\n    struct ExchangeWantTokenForUSDParams {\n        address stablecoin;\n        address token0Address;\n        address wantAddress;\n        address stargateRouter;\n        AggregatorV3Interface token0PriceFeed;\n        AggregatorV3Interface stablecoinPriceFeed;\n        address[] token0ToStablecoinPath;\n        uint16 stargatePoolId;\n    }\n\n    /* Functions */\n\n    /// @notice Performs necessary operations to convert USD into Want token\n    /// @param _amountUSD The USD quantity to exchange (must already be deposited)\n    /// @param _params A ExchangeUSDForWantParams struct\n    /// @param _maxMarketMovementAllowed The max slippage allowed. 1000 = 0 %, 995 = 0.5%, etc.\n    /// @return uint256 Amount of Want token obtained\n    function exchangeUSDForWantToken(\n        uint256 _amountUSD,\n        ExchangeUSDForWantParams memory _params,\n        uint256 _maxMarketMovementAllowed\n    ) public returns (uint256) {\n        // Safe transfer IN\n        IERC20Upgradeable(_params.stablecoin).safeTransferFrom(\n            msg.sender,\n            address(this),\n            _amountUSD\n        );\n\n        // Swap USD for token0\n        // Single asset. Swap from USD directly to Token0\n        if (_params.token0Address != _params.stablecoin) {\n            _safeSwap(\n                SafeSwapParams({\n                    amountIn: _amountUSD,\n                    priceToken0: _params.stablecoinPriceFeed.getExchangeRate(),\n                    priceToken1: _params.token0PriceFeed.getExchangeRate(),\n                    token0: _params.stablecoin,\n                    token1: _params.token0Address,\n                    maxMarketMovementAllowed: _maxMarketMovementAllowed,\n                    path: _params.stablecoinToToken0Path,\n                    destination: address(this)\n                })\n            );\n        }\n\n        // Get new Token0 balance\n        uint256 _token0Bal = IERC20Upgradeable(_params.token0Address).balanceOf(\n            address(this)\n        );\n\n        // Increase allowance\n        IERC20Upgradeable(_params.token0Address).safeIncreaseAllowance(\n            _params.stargateRouter,\n            _token0Bal\n        );\n\n        // Deposit token to get Want token\n        IStargateRouter(_params.stargateRouter).addLiquidity(\n            _params.stargatePoolId,\n            _token0Bal,\n            address(this)\n        );\n\n        // Calculate resulting want token balance\n        uint256 _wantAmt = IERC20Upgradeable(_params.wantAddress).balanceOf(\n            address(this)\n        );\n\n        // Transfer back to sender\n        // TODO: Should this in fact be msg.sender?\n        IERC20Upgradeable(_params.wantAddress).safeTransfer(\n            msg.sender,\n            _wantAmt\n        );\n\n        return _wantAmt;\n    }\n\n    /// @notice Converts Want token back into USD to be ready for withdrawal and transfers to sender\n    /// @param _amount The Want token quantity to exchange (must be deposited beforehand)\n    /// @param _params A ExchangeWantTokenForUSDParams struct\n    /// @param _maxMarketMovementAllowed The max slippage allowed for swaps. 1000 = 0 %, 995 = 0.5%, etc.\n    /// @return uint256 Amount of USD token obtained\n    function exchangeWantTokenForUSD(\n        uint256 _amount,\n        ExchangeWantTokenForUSDParams memory _params,\n        uint256 _maxMarketMovementAllowed\n    ) public returns (uint256) {\n        // Preflight checks\n        require(_amount > 0, \"negWant\");\n\n        // Safely transfer Want token from sender\n        IERC20Upgradeable(_params.wantAddress).safeTransferFrom(\n            msg.sender,\n            address(this),\n            _amount\n        );\n\n        // Approve\n        IERC20Upgradeable(_params.wantAddress).safeIncreaseAllowance(\n            _params.stargateRouter,\n            _amount\n        );\n\n        if (_params.token0Address != _params.stablecoin) {\n            // Withdraw Want token to get Token0\n            IStargateRouter(_params.stargateRouter).instantRedeemLocal(\n                _params.stargatePoolId,\n                _amount,\n                address(this)\n            );\n\n            // Get Token0 balance\n            uint256 _token0Bal = IERC20Upgradeable(_params.token0Address).balanceOf(\n                address(this)\n            );\n\n            // Swap Token0 -> USD\n            _safeSwap(\n                SafeSwapParams({\n                    amountIn: _token0Bal,\n                    priceToken0: _params.token0PriceFeed.getExchangeRate(),\n                    priceToken1: _params.stablecoinPriceFeed.getExchangeRate(),\n                    token0: _params.token0Address,\n                    token1: _params.stablecoin,\n                    maxMarketMovementAllowed: _maxMarketMovementAllowed,\n                    path: _params.token0ToStablecoinPath,\n                    destination: address(this)\n                })\n            );\n        } else {\n            // Withdraw Want token to get Token0\n            IStargateRouter(_params.stargateRouter).instantRedeemLocal(\n                _params.stargatePoolId,\n                _amount,\n                msg.sender // TODO: Should this be msg.sender\n            );\n        }\n\n        // Calculate USD balance\n        // TODO: Is this msg.sender in fact?\n        return IERC20Upgradeable(_params.stablecoin).balanceOf(msg.sender);\n    }\n}\n",
  "sourcePath": "/Users/kristophm/Documents/workspace/zorro-protocol/contracts/vaults/actions/VaultActionsStargate.sol",
  "compiler": {
    "name": "solc",
    "version": "0.8.10+commit.fc410830.Emscripten.clang"
  },
  "schemaVersion": "3.4.10",
  "updatedAt": "2022-11-21T01:26:31.868Z",
  "devdoc": {
    "kind": "dev",
    "methods": {
      "buybackBurnLP(uint256,uint256,(uint256,uint256,uint256,uint256),(address,address,address,address[],address[]))": {
        "params": {
          "_amount": "The amount of Earn token to swap and buy back",
          "_maxMarketMovementAllowed": "Acceptable slippage (990 = 1%)",
          "_params": "An BuybackBurnLPParams struct specifying buyback parameters",
          "_rates": "An ExchangeRates struct"
        }
      },
      "exchangeUSDForWantToken(uint256,(address,address,address,address,address,address,address,address[],uint16),uint256)": {
        "params": {
          "_amountUSD": "The USD quantity to exchange (must already be deposited)",
          "_maxMarketMovementAllowed": "The max slippage allowed. 1000 = 0 %, 995 = 0.5%, etc.",
          "_params": "A ExchangeUSDForWantParams struct"
        },
        "returns": {
          "_0": "uint256 Amount of Want token obtained"
        }
      },
      "exchangeWantTokenForUSD(uint256,(address,address,address,address,address,address,address[],uint16),uint256)": {
        "params": {
          "_amount": "The Want token quantity to exchange (must be deposited beforehand)",
          "_maxMarketMovementAllowed": "The max slippage allowed for swaps. 1000 = 0 %, 995 = 0.5%, etc.",
          "_params": "A ExchangeWantTokenForUSDParams struct"
        },
        "returns": {
          "_0": "uint256 Amount of USD token obtained"
        }
      },
      "exitPool(uint256,uint256,address,(address,address,address,address))": {
        "details": "NOTE: Requires caller to approve want token spending",
        "params": {
          "_amountLP": "The amount of LP (Want) tokens to remove",
          "_maxMarketMovementAllowed": "The max slippage allowed for swaps. 1000 = 0 %, 995 = 0.5%, etc.",
          "_recipient": "The recipient of the underlying tokens at pool exit"
        }
      },
      "initialize(address)": {
        "params": {
          "_uniRouterAddress": "Address of Uniswap style router"
        }
      },
      "joinPool(address,address,uint256,uint256,uint256,address)": {
        "details": "NOTE: Requires spending approval by caller",
        "params": {
          "_maxMarketMovementAllowed": "The max slippage allowed for swaps. 1000 = 0 %, 995 = 0.5%, etc.",
          "_recipient": "The recipient of the LP token",
          "_token0": "The address of Token0",
          "_token0Amt": "Quantity of Token0 to add",
          "_token1": "The address of Token1",
          "_token1Amt": "Quantity of Token1 to add"
        }
      },
      "owner()": {
        "details": "Returns the address of the current owner."
      },
      "renounceOwnership()": {
        "details": "Leaves the contract without owner. It will not be possible to call `onlyOwner` functions anymore. Can only be called by the current owner. NOTE: Renouncing ownership will leave the contract without an owner, thereby removing any functionality that is only available to the owner."
      },
      "reversePath(address[])": {
        "params": {
          "_path": "The swap path to be reversed"
        },
        "returns": {
          "_newPath": "An reversed path array"
        }
      },
      "safeSwap((uint256,uint256,uint256,address,address,uint256,address[],address))": {
        "details": "NOTE: Caller must approve tokens for spending beforehand",
        "params": {
          "_swapParams": "SafeSwapParams for swap"
        }
      },
      "transferOwnership(address)": {
        "details": "Transfers ownership of the contract to a new account (`newOwner`). Can only be called by the current owner."
      }
    },
    "version": 1
  },
  "userdoc": {
    "kind": "user",
    "methods": {
      "buybackBurnLP(uint256,uint256,(uint256,uint256,uint256,uint256),(address,address,address,address[],address[]))": {
        "notice": "Buys back earn token, adds liquidity, and burns the LP token"
      },
      "exchangeUSDForWantToken(uint256,(address,address,address,address,address,address,address,address[],uint16),uint256)": {
        "notice": "Performs necessary operations to convert USD into Want token"
      },
      "exchangeWantTokenForUSD(uint256,(address,address,address,address,address,address,address[],uint16),uint256)": {
        "notice": "Converts Want token back into USD to be ready for withdrawal and transfers to sender"
      },
      "exitPool(uint256,uint256,address,(address,address,address,address))": {
        "notice": "Removes liquidity from a pool and sends tokens back to this address"
      },
      "initialize(address)": {
        "notice": "Constructor"
      },
      "joinPool(address,address,uint256,uint256,uint256,address)": {
        "notice": "Adds liquidity to the pool of this contract"
      },
      "reversePath(address[])": {
        "notice": "Gets the swap path in the opposite direction of a trade"
      },
      "safeSwap((uint256,uint256,uint256,address,address,uint256,address[],address))": {
        "notice": "Safely swaps tokens using the most suitable protocol based on token"
      }
    },
    "version": 1
  }
}