{
  "contractName": "VaultAcryptosSingle",
  "abi": [
    {
      "anonymous": false,
      "inputs": [
        {
          "indexed": true,
          "internalType": "uint256",
          "name": "_amount",
          "type": "uint256"
        }
      ],
      "name": "Buyback",
      "type": "event"
    },
    {
      "anonymous": false,
      "inputs": [
        {
          "indexed": true,
          "internalType": "address",
          "name": "previousOwner",
          "type": "address"
        },
        {
          "indexed": true,
          "internalType": "address",
          "name": "newOwner",
          "type": "address"
        }
      ],
      "name": "OwnershipTransferred",
      "type": "event"
    },
    {
      "anonymous": false,
      "inputs": [
        {
          "indexed": false,
          "internalType": "address",
          "name": "account",
          "type": "address"
        }
      ],
      "name": "Paused",
      "type": "event"
    },
    {
      "anonymous": false,
      "inputs": [
        {
          "indexed": true,
          "internalType": "uint256",
          "name": "_amount",
          "type": "uint256"
        }
      ],
      "name": "RevShare",
      "type": "event"
    },
    {
      "anonymous": false,
      "inputs": [
        {
          "indexed": false,
          "internalType": "address",
          "name": "_govAddress",
          "type": "address"
        }
      ],
      "name": "SetGov",
      "type": "event"
    },
    {
      "anonymous": false,
      "inputs": [
        {
          "indexed": false,
          "internalType": "bool",
          "name": "_onlyGov",
          "type": "bool"
        }
      ],
      "name": "SetOnlyGov",
      "type": "event"
    },
    {
      "anonymous": false,
      "inputs": [
        {
          "indexed": false,
          "internalType": "address",
          "name": "_rewardsAddress",
          "type": "address"
        }
      ],
      "name": "SetRewardsAddress",
      "type": "event"
    },
    {
      "anonymous": false,
      "inputs": [
        {
          "indexed": false,
          "internalType": "uint256",
          "name": "_entranceFeeFactor",
          "type": "uint256"
        },
        {
          "indexed": false,
          "internalType": "uint256",
          "name": "_withdrawFeeFactor",
          "type": "uint256"
        },
        {
          "indexed": false,
          "internalType": "uint256",
          "name": "_controllerFee",
          "type": "uint256"
        },
        {
          "indexed": false,
          "internalType": "uint256",
          "name": "_buyBackRate",
          "type": "uint256"
        },
        {
          "indexed": false,
          "internalType": "uint256",
          "name": "_revShareRate",
          "type": "uint256"
        }
      ],
      "name": "SetSettings",
      "type": "event"
    },
    {
      "anonymous": false,
      "inputs": [
        {
          "indexed": false,
          "internalType": "address",
          "name": "_uniRouterAddress",
          "type": "address"
        }
      ],
      "name": "SetUniRouterAddress",
      "type": "event"
    },
    {
      "anonymous": false,
      "inputs": [
        {
          "indexed": false,
          "internalType": "address",
          "name": "account",
          "type": "address"
        }
      ],
      "name": "Unpaused",
      "type": "event"
    },
    {
      "inputs": [
        {
          "internalType": "uint256",
          "name": "",
          "type": "uint256"
        }
      ],
      "name": "BUSDToLPPoolOtherTokenPath",
      "outputs": [
        {
          "internalType": "address",
          "name": "",
          "type": "address"
        }
      ],
      "stateMutability": "view",
      "type": "function",
      "constant": true
    },
    {
      "inputs": [
        {
          "internalType": "uint256",
          "name": "",
          "type": "uint256"
        }
      ],
      "name": "BUSDToToken0Path",
      "outputs": [
        {
          "internalType": "address",
          "name": "",
          "type": "address"
        }
      ],
      "stateMutability": "view",
      "type": "function",
      "constant": true
    },
    {
      "inputs": [
        {
          "internalType": "uint256",
          "name": "",
          "type": "uint256"
        }
      ],
      "name": "BUSDToZORROPath",
      "outputs": [
        {
          "internalType": "address",
          "name": "",
          "type": "address"
        }
      ],
      "stateMutability": "view",
      "type": "function",
      "constant": true
    },
    {
      "inputs": [
        {
          "internalType": "uint256",
          "name": "",
          "type": "uint256"
        }
      ],
      "name": "USDCToToken0Path",
      "outputs": [
        {
          "internalType": "address",
          "name": "",
          "type": "address"
        }
      ],
      "stateMutability": "view",
      "type": "function",
      "constant": true
    },
    {
      "inputs": [
        {
          "internalType": "uint256",
          "name": "",
          "type": "uint256"
        }
      ],
      "name": "USDCToToken1Path",
      "outputs": [
        {
          "internalType": "address",
          "name": "",
          "type": "address"
        }
      ],
      "stateMutability": "view",
      "type": "function",
      "constant": true
    },
    {
      "inputs": [],
      "name": "ZORPriceFeed",
      "outputs": [
        {
          "internalType": "contract AggregatorV3Interface",
          "name": "",
          "type": "address"
        }
      ],
      "stateMutability": "view",
      "type": "function",
      "constant": true
    },
    {
      "inputs": [],
      "name": "ZORROAddress",
      "outputs": [
        {
          "internalType": "address",
          "name": "",
          "type": "address"
        }
      ],
      "stateMutability": "view",
      "type": "function",
      "constant": true
    },
    {
      "inputs": [],
      "name": "balancerACSWeightBasisPoints",
      "outputs": [
        {
          "internalType": "uint256",
          "name": "",
          "type": "uint256"
        }
      ],
      "stateMutability": "view",
      "type": "function",
      "constant": true
    },
    {
      "inputs": [],
      "name": "balancerBUSDWeightBasisPoints",
      "outputs": [
        {
          "internalType": "uint256",
          "name": "",
          "type": "uint256"
        }
      ],
      "stateMutability": "view",
      "type": "function",
      "constant": true
    },
    {
      "inputs": [],
      "name": "balancerPool",
      "outputs": [
        {
          "internalType": "bytes32",
          "name": "",
          "type": "bytes32"
        }
      ],
      "stateMutability": "view",
      "type": "function",
      "constant": true
    },
    {
      "inputs": [],
      "name": "balancerVaultAddress",
      "outputs": [
        {
          "internalType": "address",
          "name": "",
          "type": "address"
        }
      ],
      "stateMutability": "view",
      "type": "function",
      "constant": true
    },
    {
      "inputs": [],
      "name": "burnAddress",
      "outputs": [
        {
          "internalType": "address",
          "name": "",
          "type": "address"
        }
      ],
      "stateMutability": "view",
      "type": "function",
      "constant": true
    },
    {
      "inputs": [],
      "name": "buyBackRate",
      "outputs": [
        {
          "internalType": "uint256",
          "name": "",
          "type": "uint256"
        }
      ],
      "stateMutability": "view",
      "type": "function",
      "constant": true
    },
    {
      "inputs": [],
      "name": "buyBackRateMax",
      "outputs": [
        {
          "internalType": "uint256",
          "name": "",
          "type": "uint256"
        }
      ],
      "stateMutability": "view",
      "type": "function",
      "constant": true
    },
    {
      "inputs": [],
      "name": "buyBackRateUL",
      "outputs": [
        {
          "internalType": "uint256",
          "name": "",
          "type": "uint256"
        }
      ],
      "stateMutability": "view",
      "type": "function",
      "constant": true
    },
    {
      "inputs": [],
      "name": "controllerFee",
      "outputs": [
        {
          "internalType": "uint256",
          "name": "",
          "type": "uint256"
        }
      ],
      "stateMutability": "view",
      "type": "function",
      "constant": true
    },
    {
      "inputs": [],
      "name": "controllerFeeMax",
      "outputs": [
        {
          "internalType": "uint256",
          "name": "",
          "type": "uint256"
        }
      ],
      "stateMutability": "view",
      "type": "function",
      "constant": true
    },
    {
      "inputs": [],
      "name": "controllerFeeUL",
      "outputs": [
        {
          "internalType": "uint256",
          "name": "",
          "type": "uint256"
        }
      ],
      "stateMutability": "view",
      "type": "function",
      "constant": true
    },
    {
      "inputs": [],
      "name": "earnTokenPriceFeed",
      "outputs": [
        {
          "internalType": "contract AggregatorV3Interface",
          "name": "",
          "type": "address"
        }
      ],
      "stateMutability": "view",
      "type": "function",
      "constant": true
    },
    {
      "inputs": [],
      "name": "earnedAddress",
      "outputs": [
        {
          "internalType": "address",
          "name": "",
          "type": "address"
        }
      ],
      "stateMutability": "view",
      "type": "function",
      "constant": true
    },
    {
      "inputs": [
        {
          "internalType": "uint256",
          "name": "",
          "type": "uint256"
        }
      ],
      "name": "earnedToToken0Path",
      "outputs": [
        {
          "internalType": "address",
          "name": "",
          "type": "address"
        }
      ],
      "stateMutability": "view",
      "type": "function",
      "constant": true
    },
    {
      "inputs": [
        {
          "internalType": "uint256",
          "name": "",
          "type": "uint256"
        }
      ],
      "name": "earnedToToken1Path",
      "outputs": [
        {
          "internalType": "address",
          "name": "",
          "type": "address"
        }
      ],
      "stateMutability": "view",
      "type": "function",
      "constant": true
    },
    {
      "inputs": [
        {
          "internalType": "uint256",
          "name": "",
          "type": "uint256"
        }
      ],
      "name": "earnedToUSDCPath",
      "outputs": [
        {
          "internalType": "address",
          "name": "",
          "type": "address"
        }
      ],
      "stateMutability": "view",
      "type": "function",
      "constant": true
    },
    {
      "inputs": [
        {
          "internalType": "uint256",
          "name": "",
          "type": "uint256"
        }
      ],
      "name": "earnedToZORLPPoolOtherTokenPath",
      "outputs": [
        {
          "internalType": "address",
          "name": "",
          "type": "address"
        }
      ],
      "stateMutability": "view",
      "type": "function",
      "constant": true
    },
    {
      "inputs": [
        {
          "internalType": "uint256",
          "name": "",
          "type": "uint256"
        }
      ],
      "name": "earnedToZORROPath",
      "outputs": [
        {
          "internalType": "address",
          "name": "",
          "type": "address"
        }
      ],
      "stateMutability": "view",
      "type": "function",
      "constant": true
    },
    {
      "inputs": [],
      "name": "entranceFeeFactor",
      "outputs": [
        {
          "internalType": "uint256",
          "name": "",
          "type": "uint256"
        }
      ],
      "stateMutability": "view",
      "type": "function",
      "constant": true
    },
    {
      "inputs": [],
      "name": "entranceFeeFactorLL",
      "outputs": [
        {
          "internalType": "uint256",
          "name": "",
          "type": "uint256"
        }
      ],
      "stateMutability": "view",
      "type": "function",
      "constant": true
    },
    {
      "inputs": [],
      "name": "entranceFeeFactorMax",
      "outputs": [
        {
          "internalType": "uint256",
          "name": "",
          "type": "uint256"
        }
      ],
      "stateMutability": "view",
      "type": "function",
      "constant": true
    },
    {
      "inputs": [],
      "name": "farmContractAddress",
      "outputs": [
        {
          "internalType": "address",
          "name": "",
          "type": "address"
        }
      ],
      "stateMutability": "view",
      "type": "function",
      "constant": true
    },
    {
      "inputs": [],
      "name": "govAddress",
      "outputs": [
        {
          "internalType": "address",
          "name": "",
          "type": "address"
        }
      ],
      "stateMutability": "view",
      "type": "function",
      "constant": true
    },
    {
      "inputs": [
        {
          "internalType": "address",
          "name": "_token",
          "type": "address"
        },
        {
          "internalType": "uint256",
          "name": "_amount",
          "type": "uint256"
        },
        {
          "internalType": "address",
          "name": "_to",
          "type": "address"
        }
      ],
      "name": "inCaseTokensGetStuck",
      "outputs": [],
      "stateMutability": "nonpayable",
      "type": "function"
    },
    {
      "inputs": [],
      "name": "isHomeChain",
      "outputs": [
        {
          "internalType": "bool",
          "name": "",
          "type": "bool"
        }
      ],
      "stateMutability": "view",
      "type": "function",
      "constant": true
    },
    {
      "inputs": [],
      "name": "lastEarnBlock",
      "outputs": [
        {
          "internalType": "uint256",
          "name": "",
          "type": "uint256"
        }
      ],
      "stateMutability": "view",
      "type": "function",
      "constant": true
    },
    {
      "inputs": [],
      "name": "lpPoolOtherTokenPriceFeed",
      "outputs": [
        {
          "internalType": "contract AggregatorV3Interface",
          "name": "",
          "type": "address"
        }
      ],
      "stateMutability": "view",
      "type": "function",
      "constant": true
    },
    {
      "inputs": [],
      "name": "onlyGov",
      "outputs": [
        {
          "internalType": "bool",
          "name": "",
          "type": "bool"
        }
      ],
      "stateMutability": "view",
      "type": "function",
      "constant": true
    },
    {
      "inputs": [],
      "name": "owner",
      "outputs": [
        {
          "internalType": "address",
          "name": "",
          "type": "address"
        }
      ],
      "stateMutability": "view",
      "type": "function",
      "constant": true
    },
    {
      "inputs": [],
      "name": "pause",
      "outputs": [],
      "stateMutability": "nonpayable",
      "type": "function"
    },
    {
      "inputs": [],
      "name": "paused",
      "outputs": [
        {
          "internalType": "bool",
          "name": "",
          "type": "bool"
        }
      ],
      "stateMutability": "view",
      "type": "function",
      "constant": true
    },
    {
      "inputs": [],
      "name": "pid",
      "outputs": [
        {
          "internalType": "uint256",
          "name": "",
          "type": "uint256"
        }
      ],
      "stateMutability": "view",
      "type": "function",
      "constant": true
    },
    {
      "inputs": [],
      "name": "poolAddress",
      "outputs": [
        {
          "internalType": "address",
          "name": "",
          "type": "address"
        }
      ],
      "stateMutability": "view",
      "type": "function",
      "constant": true
    },
    {
      "inputs": [],
      "name": "renounceOwnership",
      "outputs": [],
      "stateMutability": "nonpayable",
      "type": "function"
    },
    {
      "inputs": [],
      "name": "revShareRate",
      "outputs": [
        {
          "internalType": "uint256",
          "name": "",
          "type": "uint256"
        }
      ],
      "stateMutability": "view",
      "type": "function",
      "constant": true
    },
    {
      "inputs": [],
      "name": "revShareRateMax",
      "outputs": [
        {
          "internalType": "uint256",
          "name": "",
          "type": "uint256"
        }
      ],
      "stateMutability": "view",
      "type": "function",
      "constant": true
    },
    {
      "inputs": [],
      "name": "revShareRateUL",
      "outputs": [
        {
          "internalType": "uint256",
          "name": "",
          "type": "uint256"
        }
      ],
      "stateMutability": "view",
      "type": "function",
      "constant": true
    },
    {
      "inputs": [],
      "name": "rewardsAddress",
      "outputs": [
        {
          "internalType": "address",
          "name": "",
          "type": "address"
        }
      ],
      "stateMutability": "view",
      "type": "function",
      "constant": true
    },
    {
      "inputs": [
        {
          "internalType": "address",
          "name": "_burnAddress",
          "type": "address"
        }
      ],
      "name": "setBurnAddress",
      "outputs": [],
      "stateMutability": "nonpayable",
      "type": "function"
    },
    {
      "inputs": [
        {
          "internalType": "address",
          "name": "_earnedAddress",
          "type": "address"
        }
      ],
      "name": "setEarnedAddress",
      "outputs": [],
      "stateMutability": "nonpayable",
      "type": "function"
    },
    {
      "inputs": [
        {
          "internalType": "address",
          "name": "_farmContractAddress",
          "type": "address"
        }
      ],
      "name": "setFarmContractAddress",
      "outputs": [],
      "stateMutability": "nonpayable",
      "type": "function"
    },
    {
      "inputs": [
        {
          "internalType": "uint256",
          "name": "_entranceFeeFactor",
          "type": "uint256"
        },
        {
          "internalType": "uint256",
          "name": "_withdrawFeeFactor",
          "type": "uint256"
        },
        {
          "internalType": "uint256",
          "name": "_controllerFee",
          "type": "uint256"
        },
        {
          "internalType": "uint256",
          "name": "_buyBackRate",
          "type": "uint256"
        },
        {
          "internalType": "uint256",
          "name": "_revShareRate",
          "type": "uint256"
        }
      ],
      "name": "setFeeSettings",
      "outputs": [],
      "stateMutability": "nonpayable",
      "type": "function"
    },
    {
      "inputs": [
        {
          "internalType": "address",
          "name": "_govAddress",
          "type": "address"
        }
      ],
      "name": "setGov",
      "outputs": [],
      "stateMutability": "nonpayable",
      "type": "function"
    },
    {
      "inputs": [
        {
          "internalType": "bool",
          "name": "_onlyGov",
          "type": "bool"
        }
      ],
      "name": "setOnlyGov",
      "outputs": [],
      "stateMutability": "nonpayable",
      "type": "function"
    },
    {
      "inputs": [
        {
          "internalType": "uint256",
          "name": "_pid",
          "type": "uint256"
        }
      ],
      "name": "setPid",
      "outputs": [],
      "stateMutability": "nonpayable",
      "type": "function"
    },
    {
      "inputs": [
        {
          "internalType": "address",
          "name": "_poolAddress",
          "type": "address"
        }
      ],
      "name": "setPoolAddress",
      "outputs": [],
      "stateMutability": "nonpayable",
      "type": "function"
    },
    {
      "inputs": [
        {
          "internalType": "uint8",
          "name": "_idx",
          "type": "uint8"
        },
        {
          "internalType": "address",
          "name": "_priceFeed",
          "type": "address"
        }
      ],
      "name": "setPriceFeed",
      "outputs": [],
      "stateMutability": "nonpayable",
      "type": "function"
    },
    {
      "inputs": [
        {
          "internalType": "address",
          "name": "_rewardsAddress",
          "type": "address"
        }
      ],
      "name": "setRewardsAddress",
      "outputs": [],
      "stateMutability": "nonpayable",
      "type": "function"
    },
    {
      "inputs": [
        {
          "internalType": "uint8",
          "name": "_idx",
          "type": "uint8"
        },
        {
          "internalType": "address[]",
          "name": "_path",
          "type": "address[]"
        }
      ],
      "name": "setSwapPaths",
      "outputs": [],
      "stateMutability": "nonpayable",
      "type": "function"
    },
    {
      "inputs": [
        {
          "internalType": "address",
          "name": "_token0Address",
          "type": "address"
        }
      ],
      "name": "setToken0Address",
      "outputs": [],
      "stateMutability": "nonpayable",
      "type": "function"
    },
    {
      "inputs": [
        {
          "internalType": "address",
          "name": "_token1Address",
          "type": "address"
        }
      ],
      "name": "setToken1Address",
      "outputs": [],
      "stateMutability": "nonpayable",
      "type": "function"
    },
    {
      "inputs": [
        {
          "internalType": "address",
          "name": "_tokenUSDCAddress",
          "type": "address"
        }
      ],
      "name": "setTokenUSDCAddress",
      "outputs": [],
      "stateMutability": "nonpayable",
      "type": "function"
    },
    {
      "inputs": [
        {
          "internalType": "address",
          "name": "_uniRouterAddress",
          "type": "address"
        }
      ],
      "name": "setUniRouterAddress",
      "outputs": [],
      "stateMutability": "nonpayable",
      "type": "function"
    },
    {
      "inputs": [
        {
          "internalType": "address",
          "name": "_wantAddress",
          "type": "address"
        }
      ],
      "name": "setWantAddress",
      "outputs": [],
      "stateMutability": "nonpayable",
      "type": "function"
    },
    {
      "inputs": [
        {
          "internalType": "address",
          "name": "_ZORROAddress",
          "type": "address"
        }
      ],
      "name": "setZORROAddress",
      "outputs": [],
      "stateMutability": "nonpayable",
      "type": "function"
    },
    {
      "inputs": [
        {
          "internalType": "address",
          "name": "_zorroControllerAddress",
          "type": "address"
        }
      ],
      "name": "setZorroControllerAddress",
      "outputs": [],
      "stateMutability": "nonpayable",
      "type": "function"
    },
    {
      "inputs": [
        {
          "internalType": "address",
          "name": "_poolAddress",
          "type": "address"
        }
      ],
      "name": "setZorroLPPoolAddress",
      "outputs": [],
      "stateMutability": "nonpayable",
      "type": "function"
    },
    {
      "inputs": [
        {
          "internalType": "address",
          "name": "_otherToken",
          "type": "address"
        }
      ],
      "name": "setZorroLPPoolOtherToken",
      "outputs": [],
      "stateMutability": "nonpayable",
      "type": "function"
    },
    {
      "inputs": [
        {
          "internalType": "address",
          "name": "_stakingVault",
          "type": "address"
        }
      ],
      "name": "setZorroStakingVault",
      "outputs": [],
      "stateMutability": "nonpayable",
      "type": "function"
    },
    {
      "inputs": [],
      "name": "sharesTotal",
      "outputs": [
        {
          "internalType": "uint256",
          "name": "",
          "type": "uint256"
        }
      ],
      "stateMutability": "view",
      "type": "function",
      "constant": true
    },
    {
      "inputs": [],
      "name": "token0Address",
      "outputs": [
        {
          "internalType": "address",
          "name": "",
          "type": "address"
        }
      ],
      "stateMutability": "view",
      "type": "function",
      "constant": true
    },
    {
      "inputs": [],
      "name": "token0PriceFeed",
      "outputs": [
        {
          "internalType": "contract AggregatorV3Interface",
          "name": "",
          "type": "address"
        }
      ],
      "stateMutability": "view",
      "type": "function",
      "constant": true
    },
    {
      "inputs": [
        {
          "internalType": "uint256",
          "name": "",
          "type": "uint256"
        }
      ],
      "name": "token0ToUSDCPath",
      "outputs": [
        {
          "internalType": "address",
          "name": "",
          "type": "address"
        }
      ],
      "stateMutability": "view",
      "type": "function",
      "constant": true
    },
    {
      "inputs": [],
      "name": "token1Address",
      "outputs": [
        {
          "internalType": "address",
          "name": "",
          "type": "address"
        }
      ],
      "stateMutability": "view",
      "type": "function",
      "constant": true
    },
    {
      "inputs": [],
      "name": "token1PriceFeed",
      "outputs": [
        {
          "internalType": "contract AggregatorV3Interface",
          "name": "",
          "type": "address"
        }
      ],
      "stateMutability": "view",
      "type": "function",
      "constant": true
    },
    {
      "inputs": [
        {
          "internalType": "uint256",
          "name": "",
          "type": "uint256"
        }
      ],
      "name": "token1ToUSDCPath",
      "outputs": [
        {
          "internalType": "address",
          "name": "",
          "type": "address"
        }
      ],
      "stateMutability": "view",
      "type": "function",
      "constant": true
    },
    {
      "inputs": [],
      "name": "tokenACS",
      "outputs": [
        {
          "internalType": "address",
          "name": "",
          "type": "address"
        }
      ],
      "stateMutability": "view",
      "type": "function",
      "constant": true
    },
    {
      "inputs": [],
      "name": "tokenBUSD",
      "outputs": [
        {
          "internalType": "address",
          "name": "",
          "type": "address"
        }
      ],
      "stateMutability": "view",
      "type": "function",
      "constant": true
    },
    {
      "inputs": [],
      "name": "tokenUSDCAddress",
      "outputs": [
        {
          "internalType": "address",
          "name": "",
          "type": "address"
        }
      ],
      "stateMutability": "view",
      "type": "function",
      "constant": true
    },
    {
      "inputs": [
        {
          "internalType": "address",
          "name": "newOwner",
          "type": "address"
        }
      ],
      "name": "transferOwnership",
      "outputs": [],
      "stateMutability": "nonpayable",
      "type": "function"
    },
    {
      "inputs": [],
      "name": "uniRouterAddress",
      "outputs": [
        {
          "internalType": "address",
          "name": "",
          "type": "address"
        }
      ],
      "stateMutability": "view",
      "type": "function",
      "constant": true
    },
    {
      "inputs": [],
      "name": "unpause",
      "outputs": [],
      "stateMutability": "nonpayable",
      "type": "function"
    },
    {
      "inputs": [],
      "name": "wantAddress",
      "outputs": [
        {
          "internalType": "address",
          "name": "",
          "type": "address"
        }
      ],
      "stateMutability": "view",
      "type": "function",
      "constant": true
    },
    {
      "inputs": [],
      "name": "wantLockedTotal",
      "outputs": [
        {
          "internalType": "uint256",
          "name": "",
          "type": "uint256"
        }
      ],
      "stateMutability": "view",
      "type": "function",
      "constant": true
    },
    {
      "inputs": [],
      "name": "withdrawFeeFactor",
      "outputs": [
        {
          "internalType": "uint256",
          "name": "",
          "type": "uint256"
        }
      ],
      "stateMutability": "view",
      "type": "function",
      "constant": true
    },
    {
      "inputs": [],
      "name": "withdrawFeeFactorLL",
      "outputs": [
        {
          "internalType": "uint256",
          "name": "",
          "type": "uint256"
        }
      ],
      "stateMutability": "view",
      "type": "function",
      "constant": true
    },
    {
      "inputs": [],
      "name": "withdrawFeeFactorMax",
      "outputs": [
        {
          "internalType": "uint256",
          "name": "",
          "type": "uint256"
        }
      ],
      "stateMutability": "view",
      "type": "function",
      "constant": true
    },
    {
      "inputs": [],
      "name": "zorroControllerAddress",
      "outputs": [
        {
          "internalType": "address",
          "name": "",
          "type": "address"
        }
      ],
      "stateMutability": "view",
      "type": "function",
      "constant": true
    },
    {
      "inputs": [],
      "name": "zorroLPPool",
      "outputs": [
        {
          "internalType": "address",
          "name": "",
          "type": "address"
        }
      ],
      "stateMutability": "view",
      "type": "function",
      "constant": true
    },
    {
      "inputs": [],
      "name": "zorroLPPoolOtherToken",
      "outputs": [
        {
          "internalType": "address",
          "name": "",
          "type": "address"
        }
      ],
      "stateMutability": "view",
      "type": "function",
      "constant": true
    },
    {
      "inputs": [],
      "name": "zorroStakingVault",
      "outputs": [
        {
          "internalType": "address",
          "name": "",
          "type": "address"
        }
      ],
      "stateMutability": "view",
      "type": "function",
      "constant": true
    },
    {
      "inputs": [],
      "name": "zorroXChainController",
      "outputs": [
        {
          "internalType": "address",
          "name": "",
          "type": "address"
        }
      ],
      "stateMutability": "view",
      "type": "function",
      "constant": true
    },
    {
      "inputs": [
        {
          "internalType": "address",
          "name": "_timelockOwner",
          "type": "address"
        },
        {
          "components": [
            {
              "internalType": "uint256",
              "name": "pid",
              "type": "uint256"
            },
            {
              "internalType": "bool",
              "name": "isHomeChain",
              "type": "bool"
            },
            {
              "components": [
                {
                  "internalType": "address",
                  "name": "govAddress",
                  "type": "address"
                },
                {
                  "internalType": "address",
                  "name": "zorroControllerAddress",
                  "type": "address"
                },
                {
                  "internalType": "address",
                  "name": "ZORROAddress",
                  "type": "address"
                },
                {
                  "internalType": "address",
                  "name": "zorroStakingVault",
                  "type": "address"
                },
                {
                  "internalType": "address",
                  "name": "wantAddress",
                  "type": "address"
                },
                {
                  "internalType": "address",
                  "name": "token0Address",
                  "type": "address"
                },
                {
                  "internalType": "address",
                  "name": "token1Address",
                  "type": "address"
                },
                {
                  "internalType": "address",
                  "name": "earnedAddress",
                  "type": "address"
                },
                {
                  "internalType": "address",
                  "name": "farmContractAddress",
                  "type": "address"
                },
                {
                  "internalType": "address",
                  "name": "rewardsAddress",
                  "type": "address"
                },
                {
                  "internalType": "address",
                  "name": "poolAddress",
                  "type": "address"
                },
                {
                  "internalType": "address",
                  "name": "uniRouterAddress",
                  "type": "address"
                },
                {
                  "internalType": "address",
                  "name": "zorroLPPool",
                  "type": "address"
                },
                {
                  "internalType": "address",
                  "name": "zorroLPPoolOtherToken",
                  "type": "address"
                },
                {
                  "internalType": "address",
                  "name": "tokenUSDCAddress",
                  "type": "address"
                }
              ],
              "internalType": "struct VaultBase.VaultAddresses",
              "name": "keyAddresses",
              "type": "tuple"
            },
            {
              "internalType": "address[]",
              "name": "earnedToZORROPath",
              "type": "address[]"
            },
            {
              "internalType": "address[]",
              "name": "earnedToToken0Path",
              "type": "address[]"
            },
            {
              "internalType": "address[]",
              "name": "USDCToToken0Path",
              "type": "address[]"
            },
            {
              "internalType": "address[]",
              "name": "earnedToZORLPPoolOtherTokenPath",
              "type": "address[]"
            },
            {
              "internalType": "address[]",
              "name": "earnedToUSDCPath",
              "type": "address[]"
            },
            {
              "internalType": "address[]",
              "name": "BUSDToToken0Path",
              "type": "address[]"
            },
            {
              "internalType": "address[]",
              "name": "BUSDToZORROPath",
              "type": "address[]"
            },
            {
              "internalType": "address[]",
              "name": "BUSDToLPPoolOtherTokenPath",
              "type": "address[]"
            },
            {
              "components": [
                {
                  "internalType": "uint256",
                  "name": "controllerFee",
                  "type": "uint256"
                },
                {
                  "internalType": "uint256",
                  "name": "buyBackRate",
                  "type": "uint256"
                },
                {
                  "internalType": "uint256",
                  "name": "revShareRate",
                  "type": "uint256"
                },
                {
                  "internalType": "uint256",
                  "name": "entranceFeeFactor",
                  "type": "uint256"
                },
                {
                  "internalType": "uint256",
                  "name": "withdrawFeeFactor",
                  "type": "uint256"
                }
              ],
              "internalType": "struct VaultBase.VaultFees",
              "name": "fees",
              "type": "tuple"
            },
            {
              "components": [
                {
                  "internalType": "address",
                  "name": "token0PriceFeed",
                  "type": "address"
                },
                {
                  "internalType": "address",
                  "name": "token1PriceFeed",
                  "type": "address"
                },
                {
                  "internalType": "address",
                  "name": "earnTokenPriceFeed",
                  "type": "address"
                },
                {
                  "internalType": "address",
                  "name": "ZORPriceFeed",
                  "type": "address"
                },
                {
                  "internalType": "address",
                  "name": "lpPoolOtherTokenPriceFeed",
                  "type": "address"
                }
              ],
              "internalType": "struct VaultBase.VaultPriceFeeds",
              "name": "priceFeeds",
              "type": "tuple"
            }
          ],
          "internalType": "struct VaultAcryptosSingle.VaultAcryptosSingleInit",
          "name": "_initValue",
          "type": "tuple"
        }
      ],
      "name": "initialize",
      "outputs": [],
      "stateMutability": "nonpayable",
      "type": "function"
    },
    {
      "inputs": [
        {
          "internalType": "address",
          "name": "_timelockOwner",
          "type": "address"
        }
      ],
      "name": "initialize",
      "outputs": [],
      "stateMutability": "nonpayable",
      "type": "function"
    },
    {
      "inputs": [
        {
          "internalType": "uint256",
          "name": "_acsWeight",
          "type": "uint256"
        },
        {
          "internalType": "uint256",
          "name": "_busdWeight",
          "type": "uint256"
        }
      ],
      "name": "setBalancerWeights",
      "outputs": [],
      "stateMutability": "nonpayable",
      "type": "function"
    },
    {
      "inputs": [
        {
          "internalType": "uint8",
          "name": "_idx",
          "type": "uint8"
        },
        {
          "internalType": "address[]",
          "name": "_path",
          "type": "address[]"
        }
      ],
      "name": "setBUSDSwapPaths",
      "outputs": [],
      "stateMutability": "nonpayable",
      "type": "function"
    },
    {
      "inputs": [
        {
          "internalType": "address",
          "name": "_token",
          "type": "address"
        }
      ],
      "name": "setBUSD",
      "outputs": [],
      "stateMutability": "nonpayable",
      "type": "function"
    },
    {
      "inputs": [
        {
          "internalType": "address",
          "name": "_token",
          "type": "address"
        }
      ],
      "name": "setACS",
      "outputs": [],
      "stateMutability": "nonpayable",
      "type": "function"
    },
    {
      "inputs": [
        {
          "internalType": "bytes32",
          "name": "_pool",
          "type": "bytes32"
        }
      ],
      "name": "setBalancerPool",
      "outputs": [],
      "stateMutability": "nonpayable",
      "type": "function"
    },
    {
      "inputs": [
        {
          "internalType": "address",
          "name": "_vault",
          "type": "address"
        }
      ],
      "name": "setBalancerVaultAddress",
      "outputs": [],
      "stateMutability": "nonpayable",
      "type": "function"
    },
    {
      "inputs": [
        {
          "internalType": "address",
          "name": "_account",
          "type": "address"
        },
        {
          "internalType": "uint256",
          "name": "_wantAmt",
          "type": "uint256"
        }
      ],
      "name": "depositWantToken",
      "outputs": [
        {
          "internalType": "uint256",
          "name": "sharesAdded",
          "type": "uint256"
        }
      ],
      "stateMutability": "nonpayable",
      "type": "function"
    },
    {
      "inputs": [
        {
          "internalType": "uint256",
          "name": "_amountUSDC",
          "type": "uint256"
        },
        {
          "internalType": "uint256",
          "name": "_maxMarketMovementAllowed",
          "type": "uint256"
        }
      ],
      "name": "exchangeUSDForWantToken",
      "outputs": [
        {
          "internalType": "uint256",
          "name": "",
          "type": "uint256"
        }
      ],
      "stateMutability": "nonpayable",
      "type": "function"
    },
    {
      "inputs": [],
      "name": "farm",
      "outputs": [],
      "stateMutability": "nonpayable",
      "type": "function"
    },
    {
      "inputs": [
        {
          "internalType": "address",
          "name": "_account",
          "type": "address"
        },
        {
          "internalType": "uint256",
          "name": "_wantAmt",
          "type": "uint256"
        }
      ],
      "name": "withdrawWantToken",
      "outputs": [
        {
          "internalType": "uint256",
          "name": "sharesRemoved",
          "type": "uint256"
        }
      ],
      "stateMutability": "nonpayable",
      "type": "function"
    },
    {
      "inputs": [
        {
          "internalType": "uint256",
          "name": "_amount",
          "type": "uint256"
        },
        {
          "internalType": "uint256",
          "name": "_maxMarketMovementAllowed",
          "type": "uint256"
        }
      ],
      "name": "exchangeWantTokenForUSD",
      "outputs": [
        {
          "internalType": "uint256",
          "name": "",
          "type": "uint256"
        }
      ],
      "stateMutability": "nonpayable",
      "type": "function"
    },
    {
      "inputs": [
        {
          "internalType": "uint256",
          "name": "_maxMarketMovementAllowed",
          "type": "uint256"
        }
      ],
      "name": "earn",
      "outputs": [],
      "stateMutability": "nonpayable",
      "type": "function"
    }
  ],
  "bytecode": "0x608060405234801561001057600080fd5b5061582480620000216000396000f3fe608060405234801561001057600080fd5b50600436106105ed5760003560e01c80637ff36fbe1161031b578063c302a4d0116101a8578063e7198474116100f4578063ee50dc34116100ad578063f2fde38b11610087578063f2fde38b14610c32578063f5046a2914610c45578063fbf5683f14610c58578063ff29b39514610c6b57600080fd5b8063ee50dc3414610712578063f106845414610c16578063f25342bf14610c1f57600080fd5b8063e719847414610baa578063e7a0367914610bbd578063e9e15b4f14610bd0578063ebfba7c414610be3578063ec69ae1c14610bf6578063edf5e58514610c0957600080fd5b8063cfad57a211610161578063de8419911161013b578063de84199114610b5e578063e0ccabfa14610b71578063e502a88d14610b84578063e65a011714610b9757600080fd5b8063cfad57a214610b25578063d7cb416f14610b38578063db31640c14610b4b57600080fd5b8063c302a4d014610960578063c4d66de814610ac6578063c5c97cbf14610ad9578063c6efd57714610aec578063c8479cd614610aff578063c8e3d18b14610b1257600080fd5b8063a4d2b08311610267578063b3545c0111610220578063ba0bb4ab116101fa578063ba0bb4ab14610a84578063bf3a7d4014610a97578063c0973eed14610aaa578063c2dfdcd214610abd57600080fd5b8063b3545c0114610607578063b73cba2a14610a5e578063b86c5f5314610a7157600080fd5b8063a4d2b083146109ec578063aabf190b146109ff578063ab196def14610a12578063ae53e58a14610a25578063b1414dbb14610a38578063b2740cb414610a4b57600080fd5b80638906758d116102d457806396e9aff8116102ae57806396e9aff8146109a05780639805f01b146109b35780639f703a56146109c65780639fc33a9f146109d957600080fd5b80638906758d146109695780638da5cb5b1461097c578063959334f41461098d57600080fd5b80637ff36fbe146109165780638456cb59146109295780638460adc914610931578063858c5b681461094457806385f02dd614610957578063866b20181461096057600080fd5b80634ce54ddb1161049957806367206d40116103e557806370e842a11161039e578063776da47011610378578063776da470146108de57806379eb16d1146108e75780637bf604d8146108fa5780637fe37d331461090d57600080fd5b806370e842a1146108b0578063715018a6146108c35780637153ef86146108cb57600080fd5b806367206d401461084857806368f541621461085b578063693a090b146108645780636ca8bd65146108775780636f96f6fa1461088a57806370d5ae051461089d57600080fd5b80635da79d631161045257806361b5bf9f1161042c57806361b5bf9f1461080f5780636392ab1214610822578063648794a41461083557806367057b6c1461071257600080fd5b80635da79d63146107d65780635fc77d43146107e95780636183e804146107fc57600080fd5b80634ce54ddb1461077f5780634d9f7bb2146107125780634e2cb8b614610792578063563397d7146107a5578063583bda3b146107b85780635c975abb146107cb57600080fd5b80631e12819a116105585780633f4ba83a1161051157806344a3955e116104eb57806344a3955e1461073d57806346008a07146107465780634b0e7216146107595780634c5b09da1461076c57600080fd5b80633f4ba83a1461072c57806342da4eb31461073457806343788cd21461071257600080fd5b80631e12819a146106ec578063211019d714610607578063213ef7f7146106ff5780632717eff3146107125780633214471f1461071b57806336e9332d1461072457600080fd5b80630fa4e01e116105aa5780630fa4e01e14610698578063127b5bbb146106a15780631334903f146106b45780631755ff21146106bd578063178a8d07146106d05780631b0d8aab146106d957600080fd5b806305828d3e146105f2578063061c7d48146106075780630a868404146106235780630b6bb30b1461064e5780630bdb9070146106615780630daef32114610674575b600080fd5b6106056106003660046149de565b610c7e565b005b6106106103e881565b6040519081526020015b60405180910390f35b6106366106313660046149fb565b610cd3565b6040516001600160a01b03909116815260200161061a565b61060561065c366004614a2d565b610cfd565b61060561066f366004614d86565b610d7f565b60cb5461068890600160a01b900460ff1681565b604051901515815260200161061a565b61061060e15481565b6106366106af3660046149fb565b6111b8565b61061060df5481565b60d854610636906001600160a01b031681565b61061060dd5481565b6106056106e73660046149fb565b6111c8565b6106056106fa3660046149de565b6111f7565b60f754610636906001600160a01b031681565b61061061271081565b61061060de5481565b610605611243565b61060561127a565b61061060e25481565b61061060e35481565b60cb54610636906001600160a01b031681565b6106056107673660046149de565b6112ae565b61060561077a3660046149de565b6112fa565b60d554610636906001600160a01b031681565b6106366107a03660046149fb565b611346565b60f854610636906001600160a01b031681565b6106056107c63660046149de565b611356565b60975460ff16610688565b6106056107e43660046149de565b6113a2565b60cd54610636906001600160a01b031681565b61060561080a3660046149de565b6113ee565b61060561081d3660046149de565b61143a565b6106366108303660046149fb565b611486565b610610610843366004614f65565b611496565b610605610856366004614f87565b6117a9565b61061060e05481565b60d954610636906001600160a01b031681565b6106056108853660046149de565b611873565b60ef54610636906001600160a01b031681565b60d654610636906001600160a01b031681565b60fa54610636906001600160a01b031681565b6106056118bf565b6106056108d9366004614fc9565b6118f3565b61061060f95481565b6106056108f53660046149de565b611bbb565b60da54610636906001600160a01b031681565b61061060f35481565b60d154610636906001600160a01b031681565b610605611c07565b61060561093f366004614f65565b611c39565b610605610952366004615013565b611c6e565b61061060dc5481565b61061061232881565b6106056109773660046149de565b611d2a565b6033546001600160a01b0316610636565b61060561099b3660046149de565b611d76565b6106366109ae3660046149fb565b611dc2565b6106056109c13660046149de565b611dd2565b6106366109d43660046149fb565b611e1e565b60d454610636906001600160a01b031681565b60cf54610636906001600160a01b031681565b60f054610636906001600160a01b031681565b60f154610636906001600160a01b031681565b60ee54610636906001600160a01b031681565b60cc54610636906001600160a01b031681565b610605610a593660046149fb565b611e2e565b610605610a6c3660046149de565b611e5d565b610636610a7f3660046149fb565b611ea9565b610610610a9236600461509b565b611eb9565b610605610aa53660046149de565b612017565b60d754610636906001600160a01b031681565b61061060f25481565b610605610ad43660046149de565b612063565b610636610ae73660046149fb565b6120fb565b610636610afa3660046149fb565b61210b565b610605610b0d3660046149de565b61211b565b610636610b203660046149fb565b612167565b610605610b333660046149de565b612177565b60d254610636906001600160a01b031681565b610636610b593660046149fb565b6121ef565b610605610b6c3660046150c7565b6121ff565b610610610b7f36600461509b565b612345565b610610610b92366004614f65565b6124a3565b610605610ba53660046149fb565b612889565b60d354610636906001600160a01b031681565b60d054610636906001600160a01b031681565b610605610bde3660046149de565b612d70565b60db54610636906001600160a01b031681565b610605610c043660046149de565b612dbc565b60c9546106889060ff1681565b61061060ca5481565b60ed54610636906001600160a01b031681565b610605610c403660046149de565b612e08565b60ce54610636906001600160a01b031681565b610636610c663660046149fb565b612ea3565b610605610c79366004615013565b612eb3565b6033546001600160a01b03163314610cb15760405162461bcd60e51b8152600401610ca890615100565b60405180910390fd5b60d280546001600160a01b0319166001600160a01b0392909216919091179055565b60f48181548110610ce357600080fd5b6000918252602090912001546001600160a01b0316905081565b60cb546001600160a01b03163314610d275760405162461bcd60e51b8152600401610ca890615135565b60cb8054821515600160a01b0260ff60a01b199091161790556040517f125177ac7b8930dac1e59c2b30b1b6b9191b30af40cf6bbb5d20fec4d44be60f90610d7490831515815260200190565b60405180910390a150565b600054610100900460ff16610d9a5760005460ff1615610d9e565b303b155b610dba5760405162461bcd60e51b8152600401610ca890615153565b600054610100900460ff16158015610ddc576000805461ffff19166101011790555b815160ca5560208083015160c9805460ff1916911515919091179055604080840151805160cb8054600160a01b6001600160a01b039384166001600160a81b0319909216919091171790558184015160cc80546001600160a01b03199081169284169290921790558284015160ce8054831691841691909117905560608084015160cf8054841691851691909117905560808085015160d08054851691861691909117905560a085015160d18054851691861691909117905560e08086015160d38054861691871691909117905561010086015160d48054861691871691909117905561012086015160d78054861691871691909117905561014086015160d8805486169187169190911790556101608087015160d98054871691881691909117905561018087015160da805487169188169190911790556101a087015160db805487169188169190911790556101c09096015160d580548616919096161790945560f7805473e9e7cea3dedca5984780bafc599bd69add087d569085161790557f894ed9026de37afd9cce1e6c0be7d6b510e3ffe500010000000000000000000160f95560fa805473a82f327bbbf0667356d2935c6532d164b06ceced90851617905560f88054734197c6ef3879a08cd51e5560da5064b773aa1d29941693909317909255601e60f255600a60f35592870151805160dc558086015160dd559384015160de558383015160df55929092015190915583015180516110059260ea9201906148f1565b506080820151805161101f9160e8916020909101906148f1565b5060a082015180516110399160e4916020909101906148f1565b5060c082015180516110539160eb916020909101906148f1565b5060e0820151805161106d9160ec916020909101906148f1565b5061010082015180516110889160f4916020909101906148f1565b5061012082015180516110a39160f5916020909101906148f1565b5061014082015180516110be9160f6916020909101906148f1565b5061112260e480548060200260200160405190810160405280929190818152602001828054801561111857602002820191906000526020600020905b81546001600160a01b031681526001909101906020018083116110fa575b5050505050612fb1565b80516111369160e6916020909101906148f1565b50610180820151805160ed80546001600160a01b03199081166001600160a01b0393841617909155604083015160ef80548316918416919091179055608083015160f08054831691841691909117905560609092015160f1805490931691161790556111a183612063565b80156111b3576000805461ff00191690555b505050565b60f68181548110610ce357600080fd5b6033546001600160a01b031633146111f25760405162461bcd60e51b8152600401610ca890615100565b60ca55565b6033546001600160a01b031633146112215760405162461bcd60e51b8152600401610ca890615100565b60d580546001600160a01b0319166001600160a01b0392909216919091179055565b600260655414156112665760405162461bcd60e51b8152600401610ca8906151a1565b6002606555611273613085565b6001606555565b60cb546001600160a01b031633146112a45760405162461bcd60e51b8152600401610ca890615135565b6112ac61318d565b565b6033546001600160a01b031633146112d85760405162461bcd60e51b8152600401610ca890615100565b60d680546001600160a01b0319166001600160a01b0392909216919091179055565b6033546001600160a01b031633146113245760405162461bcd60e51b8152600401610ca890615100565b60d480546001600160a01b0319166001600160a01b0392909216919091179055565b60e78181548110610ce357600080fd5b6033546001600160a01b031633146113805760405162461bcd60e51b8152600401610ca890615100565b60ce80546001600160a01b0319166001600160a01b0392909216919091179055565b6033546001600160a01b031633146113cc5760405162461bcd60e51b8152600401610ca890615100565b60d980546001600160a01b0319166001600160a01b0392909216919091179055565b6033546001600160a01b031633146114185760405162461bcd60e51b8152600401610ca890615100565b60d080546001600160a01b0319166001600160a01b0392909216919091179055565b6033546001600160a01b031633146114645760405162461bcd60e51b8152600401610ca890615100565b60da80546001600160a01b0319166001600160a01b0392909216919091179055565b60ea8181548110610ce357600080fd5b60cc546000906001600160a01b0316336001600160a01b0316146114cc5760405162461bcd60e51b8152600401610ca8906151d8565b60975460ff16156114ef5760405162461bcd60e51b8152600401610ca890615202565b600083116115365760405162461bcd60e51b8152602060048201526014602482015273057616e7420616d74206d757374206265203e20360641b6044820152606401610ca8565b60d05461154e906001600160a01b0316333086613220565b60d85460d05461156b916001600160a01b0391821691168561328b565b60d854604051632e1a7d4d60e01b8152600481018590526001600160a01b0390911690632e1a7d4d90602401600060405180830381600087803b1580156115b157600080fd5b505af11580156115c5573d6000803e3d6000fd5b505060ed54600092506115e191506001600160a01b031661333d565b60d1546040516370a0823160e01b81523060048201529192506000916001600160a01b03909116906370a0823190602401602060405180830381865afa15801561162f573d6000803e3d6000fd5b505050506040513d601f19601f82011682018060405250810190611653919061522c565b60d95460d154919250611673916001600160a01b0390811691168361328b565b6040805161014081018252828152602080820185905264e8d4a510008284015260d1546001600160a01b03908116606084015260d554166080830152600060a0830181905260c083015260e0820187905260e68054845181840281018401909552808552611732946101008501939092919083018282801561171e57602002820191906000526020600020905b81546001600160a01b03168152600190910190602001808311611700575b50505091835250503360209091015261347d565b60d5546040516370a0823160e01b81523060048201526001600160a01b03909116906370a0823190602401602060405180830381865afa15801561177a573d6000803e3d6000fd5b505050506040513d601f19601f8201168201806040525081019061179e919061522c565b925050505b92915050565b60cb546001600160a01b031633146117d35760405162461bcd60e51b8152600401610ca890615135565b60d3546001600160a01b03848116911614156118195760405162461bcd60e51b8152602060048201526005602482015264217361666560d81b6044820152606401610ca8565b60d0546001600160a01b038481169116141561185f5760405162461bcd60e51b8152602060048201526005602482015264217361666560d81b6044820152606401610ca8565b6111b36001600160a01b0384168284613565565b6033546001600160a01b0316331461189d5760405162461bcd60e51b8152600401610ca890615100565b60cf80546001600160a01b0319166001600160a01b0392909216919091179055565b6033546001600160a01b031633146118e95760405162461bcd60e51b8152600401610ca890615100565b6112ac6000613595565b60cb546001600160a01b0316331461191d5760405162461bcd60e51b8152600401610ca890615135565b61232885101561196f5760405162461bcd60e51b815260206004820152601a60248201527f5f656e7472616e6365466565466163746f7220746f6f206c6f770000000000006044820152606401610ca8565b6127108511156119c15760405162461bcd60e51b815260206004820152601b60248201527f5f656e7472616e6365466565466163746f7220746f6f206869676800000000006044820152606401610ca8565b60df859055612328841015611a185760405162461bcd60e51b815260206004820152601a60248201527f5f7769746864726177466565466163746f7220746f6f206c6f770000000000006044820152606401610ca8565b612710841115611a6a5760405162461bcd60e51b815260206004820152601b60248201527f5f7769746864726177466565466163746f7220746f6f206869676800000000006044820152606401610ca8565b60e08490556103e8831115611ac15760405162461bcd60e51b815260206004820152601760248201527f5f636f6e74726f6c6c657246656520746f6f20686967680000000000000000006044820152606401610ca8565b60dc8390556103e8821115611b105760405162461bcd60e51b81526020600482015260156024820152740bec4eaf284c2c6d6a4c2e8ca40e8dede40d0d2ced605b1b6044820152606401610ca8565b60dd8290556103e8811115611b605760405162461bcd60e51b81526020600482015260166024820152750bee4caeca6d0c2e4caa4c2e8ca40e8dede40d0d2ced60531b6044820152606401610ca8565b60de819055604080518681526020810186905290810184905260608101839052608081018290527fc67e0b149a57a70fa44a531a46c2c6d8e0b242fa12f459f250012c3a5987d29a9060a00160405180910390a15050505050565b6033546001600160a01b03163314611be55760405162461bcd60e51b8152600401610ca890615100565b60f880546001600160a01b0319166001600160a01b0392909216919091179055565b60cb546001600160a01b03163314611c315760405162461bcd60e51b8152600401610ca890615135565b6112ac6135e7565b6033546001600160a01b03163314611c635760405162461bcd60e51b8152600401610ca890615100565b60f29190915560f355565b6033546001600160a01b03163314611c985760405162461bcd60e51b8152600401610ca890615100565b60ff8316611cb257611cac60f48383614956565b50505050565b8260ff1660011415611cca57611cac60f58383614956565b8260ff1660021415611ce257611cac60f68383614956565b60405162461bcd60e51b815260206004820152601960248201527f756e737570706f727465642069647820737761702070617468000000000000006044820152606401610ca8565b6033546001600160a01b03163314611d545760405162461bcd60e51b8152600401610ca890615100565b60d780546001600160a01b0319166001600160a01b0392909216919091179055565b6033546001600160a01b03163314611da05760405162461bcd60e51b8152600401610ca890615100565b60db80546001600160a01b0319166001600160a01b0392909216919091179055565b60e98181548110610ce357600080fd5b6033546001600160a01b03163314611dfc5760405162461bcd60e51b8152600401610ca890615100565b60f780546001600160a01b0319166001600160a01b0392909216919091179055565b60ec8181548110610ce357600080fd5b6033546001600160a01b03163314611e585760405162461bcd60e51b8152600401610ca890615100565b60f955565b6033546001600160a01b03163314611e875760405162461bcd60e51b8152600401610ca890615100565b60d380546001600160a01b0319166001600160a01b0392909216919091179055565b60e48181548110610ce357600080fd5b60cc546000906001600160a01b0316336001600160a01b031614611eef5760405162461bcd60e51b8152600401610ca8906151d8565b60026065541415611f125760405162461bcd60e51b8152600401610ca8906151a1565b600260655560975460ff1615611f3a5760405162461bcd60e51b8152600401610ca890615202565b60008211611f8a5760405162461bcd60e51b815260206004820152601e60248201527f57616e7420746f6b656e206465706f736974206d757374206265203e203000006044820152606401610ca8565b60d054611fa2906001600160a01b0316333085613220565b819050600060e254118015611fb95750600060e354115b15611ff457611ff1612710611feb60e254611feb60df54611fe560e3548961363f90919063ffffffff16565b9061363f565b90613652565b90505b60e354612001908261365e565b60e35561200c613085565b600160655592915050565b6033546001600160a01b031633146120415760405162461bcd60e51b8152600401610ca890615100565b60cc80546001600160a01b0319166001600160a01b0392909216919091179055565b600054610100900460ff1661207e5760005460ff1615612082565b303b155b61209e5760405162461bcd60e51b8152600401610ca890615153565b600054610100900460ff161580156120c0576000805461ffff19166101011790555b6120c861366a565b6120d182612e08565b60d680546001600160a01b03191661dead17905580156120f7576000805461ff00191690555b5050565b60e58181548110610ce357600080fd5b60e68181548110610ce357600080fd5b6033546001600160a01b031633146121455760405162461bcd60e51b8152600401610ca890615100565b60d180546001600160a01b0319166001600160a01b0392909216919091179055565b60e88181548110610ce357600080fd5b60cb546001600160a01b031633146121a15760405162461bcd60e51b8152600401610ca890615135565b60cb80546001600160a01b0319166001600160a01b0383169081179091556040519081527f91a8c1cc2d4a3bb60738481947a00cbb9899c822916694cf8bb1d68172fdcd5490602001610d74565b60f58181548110610ce357600080fd5b6033546001600160a01b031633146122295760405162461bcd60e51b8152600401610ca890615100565b60ff82166122525760ed80546001600160a01b0383166001600160a01b03199091161790555050565b8160ff166001141561227f5760ee80546001600160a01b0383166001600160a01b03199091161790555050565b8160ff16600214156122ac5760ef80546001600160a01b0383166001600160a01b03199091161790555050565b8160ff16600314156122d95760f180546001600160a01b0383166001600160a01b03199091161790555050565b8160ff16600414156123065760f080546001600160a01b0383166001600160a01b03199091161790555050565b60405162461bcd60e51b81526020600482015260146024820152730eadce6eae0e0dee4e8cac840cccacac840d2c8f60631b6044820152606401610ca8565b60cc546000906001600160a01b0316336001600160a01b03161461237b5760405162461bcd60e51b8152600401610ca8906151d8565b6002606554141561239e5760405162461bcd60e51b8152600401610ca8906151a1565b600260655560975460ff16156123c65760405162461bcd60e51b8152600401610ca890615202565b600082116124065760405162461bcd60e51b815260206004820152600d60248201526c077616e7420616d74203c3d203609c1b6044820152606401610ca8565b61242160e254611feb60e3548561363f90919063ffffffff16565b905060e354811115612432575060e3545b60e35461243f9082613699565b60e35560e054612710111561246c57612469612710611feb60e0548561363f90919063ffffffff16565b91505b6000612477836136a5565b60cc5460d054919250612497916001600160a01b03908116911683613565565b50600160655592915050565b60cc546000906001600160a01b0316336001600160a01b0316146124d95760405162461bcd60e51b8152600401610ca8906151d8565b60975460ff16156124fc5760405162461bcd60e51b8152600401610ca890615202565b60d5546040516370a0823160e01b81523060048201526000916001600160a01b0316906370a0823190602401602060405180830381865afa158015612545573d6000803e3d6000fd5b505050506040513d601f19601f82011682018060405250810190612569919061522c565b9050600084116125bb5760405162461bcd60e51b815260206004820152601860248201527f55534443206465706f736974206d757374206265203e203000000000000000006044820152606401610ca8565b8084111561260b5760405162461bcd60e51b815260206004820152601960248201527f5553444320646573697265642065786365656465642062616c000000000000006044820152606401610ca8565b60ed54600090612623906001600160a01b031661333d565b60d95460d554919250612643916001600160a01b0390811691168761328b565b604080516101408101825286815264e8d4a5100060208083019190915281830184905260d5546001600160a01b03908116606084015260d154166080830152600060a0830181905260c083015260e0820187905260e4805484518184028101840190955280855261270594610100850193909291908301828280156126f157602002820191906000526020600020905b81546001600160a01b031681526001909101906020018083116126d3575b50505091835250503060209091015261347d565b60d1546040516370a0823160e01b81523060048201526000916001600160a01b0316906370a0823190602401602060405180830381865afa15801561274e573d6000803e3d6000fd5b505050506040513d601f19601f82011682018060405250810190612772919061522c565b60d85460d154919250612792916001600160a01b0390811691168361328b565b60d85460405163b6b55f2560e01b8152600481018390526001600160a01b039091169063b6b55f2590602401600060405180830381600087803b1580156127d857600080fd5b505af11580156127ec573d6000803e3d6000fd5b505060d0546040516370a0823160e01b8152306004820152600093506001600160a01b0390911691506370a0823190602401602060405180830381865afa15801561283b573d6000803e3d6000fd5b505050506040513d601f19601f8201168201806040525081019061285f919061522c565b60cc5460d05491925061287f916001600160a01b03908116911683613565565b9695505050505050565b600260655414156128ac5760405162461bcd60e51b8152600401610ca8906151a1565b600260655560975460ff16156128d45760405162461bcd60e51b8152600401610ca890615202565b60cb54600160a01b900460ff16156129105760cb546001600160a01b031633146129105760405162461bcd60e51b8152600401610ca890615135565b61291a60006136a5565b5060d3546040516370a0823160e01b81523060048201526000916001600160a01b0316906370a0823190602401602060405180830381865afa158015612964573d6000803e3d6000fd5b505050506040513d601f19601f82011682018060405250810190612988919061522c565b60ef549091506000906129a3906001600160a01b031661333d565b60ed549091506000906129be906001600160a01b031661333d565b60f1549091506000906129d9906001600160a01b031661333d565b60f1549091506000906129f4906001600160a01b031661333d565b60408051606081018252868152602081018590529081018290529091506000612a1c876137b8565b9050600080612a2c898b86613808565b90925090506000612a4982612a4385818e89613699565b90613699565b604080516101408101825282815260208082018d905264e8d4a510008284015260d3546001600160a01b03908116606084015260f75416608083015260f25460a083015260f35460c083015260e082018f905260e88054845181840281018401909552808552949550612b0b94929361010085019390928301828280156126f1576020028201919060005260206000209081546001600160a01b031681526001909101906020018083116126d35750505091835250503060209091015261347d565b60f7546040516370a0823160e01b81523060048201526000916001600160a01b0316906370a0823190602401602060405180830381865afa158015612b54573d6000803e3d6000fd5b505050506040513d601f19601f82011682018060405250810190612b78919061522c565b9050612c6460405180610140016040528083815260200164e8d4a5100081526020018b815260200160f760009054906101000a90046001600160a01b03166001600160a01b0316815260200160d160009054906101000a90046001600160a01b03166001600160a01b0316815260200160008152602001600081526020018e815260200160f48054806020026020016040519081016040528092919081815260200182805480156126f1576020028201919060005260206000209081546001600160a01b031681526001909101906020018083116126d35750505091835250503060209091015261347d565b60d1546040516370a0823160e01b81523060048201526000916001600160a01b0316906370a0823190602401602060405180830381865afa158015612cad573d6000803e3d6000fd5b505050506040513d601f19601f82011682018060405250810190612cd1919061522c565b60d85460d154919250612cf1916001600160a01b0390811691168361328b565b60d85460405163b6b55f2560e01b8152600481018390526001600160a01b039091169063b6b55f2590602401600060405180830381600087803b158015612d3757600080fd5b505af1158015612d4b573d6000803e3d6000fd5b50504360e15550612d5c9050613085565b505060016065555050505050505050505050565b6033546001600160a01b03163314612d9a5760405162461bcd60e51b8152600401610ca890615100565b60d880546001600160a01b0319166001600160a01b0392909216919091179055565b6033546001600160a01b03163314612de65760405162461bcd60e51b8152600401610ca890615100565b60fa80546001600160a01b0319166001600160a01b0392909216919091179055565b6033546001600160a01b03163314612e325760405162461bcd60e51b8152600401610ca890615100565b6001600160a01b038116612e975760405162461bcd60e51b815260206004820152602660248201527f4f776e61626c653a206e6577206f776e657220697320746865207a65726f206160448201526564647265737360d01b6064820152608401610ca8565b612ea081613595565b50565b60eb8181548110610ce357600080fd5b6033546001600160a01b03163314612edd5760405162461bcd60e51b8152600401610ca890615100565b60ff8316612ef157611cac60e48383614956565b8260ff1660011415612f0957611cac60e58383614956565b8260ff1660021415612f2157611cac60e68383614956565b8260ff1660031415612f3957611cac60e78383614956565b8260ff1660041415612f5157611cac60e88383614956565b8260ff1660051415612f6957611cac60e98383614956565b8260ff1660061415612f8157611cac60ea8383614956565b8260ff1660071415612f9957611cac60eb8383614956565b8260ff166008141561230657611cac60ec8383614956565b80516060908067ffffffffffffffff811115612fcf57612fcf614a4a565b604051908082528060200260200182016040528015612ff8578160200160208202803683370190505b50915060005b818161ffff16101561307e57836130288261ffff16612a436001885161369990919063ffffffff16565b8151811061303857613038615245565b6020026020010151838261ffff168151811061305657613056615245565b6001600160a01b039092166020928302919091019091015261307781615271565b9050612ffe565b5050919050565b60d0546040516370a0823160e01b81523060048201526000916001600160a01b0316906370a0823190602401602060405180830381865afa1580156130ce573d6000803e3d6000fd5b505050506040513d601f19601f820116820180604052508101906130f2919061522c565b60e254909150613102908261365e565b60e25560d45460d054613122916001600160a01b0391821691168361328b565b60d45460d0546040516311f9fbc960e21b81526001600160a01b039182166004820152602481018490529116906347e7ef2490604401600060405180830381600087803b15801561317257600080fd5b505af1158015613186573d6000803e3d6000fd5b5050505050565b60975460ff166131d65760405162461bcd60e51b815260206004820152601460248201527314185d5cd8589b194e881b9bdd081c185d5cd95960621b6044820152606401610ca8565b6097805460ff191690557f5db9ee0a495bf2e6ff9c91a7834c1ba4fdd244a5e8aa4e537bd38aeae4b073aa335b6040516001600160a01b03909116815260200160405180910390a1565b6040516001600160a01b0380851660248301528316604482015260648101829052611cac9085906323b872dd60e01b906084015b60408051601f198184030181529190526020810180516001600160e01b03166001600160e01b031990931692909217909152613920565b604051636eb1769f60e11b81523060048201526001600160a01b038381166024830152600091839186169063dd62ed3e90604401602060405180830381865afa1580156132dc573d6000803e3d6000fd5b505050506040513d601f19601f82011682018060405250810190613300919061522c565b61330a9190615293565b6040516001600160a01b038516602482015260448101829052909150611cac90859063095ea7b360e01b90606401613254565b600080826001600160a01b031663313ce5676040518163ffffffff1660e01b8152600401602060405180830381865afa15801561337e573d6000803e3d6000fd5b505050506040513d601f19601f820116820180604052508101906133a291906152ab565b90506000836001600160a01b031663feaf968c6040518163ffffffff1660e01b815260040160a060405180830381865afa1580156133e4573d6000803e3d6000fd5b505050506040513d601f19601f8201168201806040525081019061340891906152e2565b50505091505060008112156134585760405162461bcd60e51b81526020600482015260166024820152751b9959c81c1c9a58d95cc81b9bdd08185b1b1bddd95960521b6044820152606401610ca8565b61347561346683600a615416565b611feb8364e8d4a5100061363f565b949350505050565b60f85460608201516001600160a01b03908116911614806134b0575060f85460808201516001600160a01b039081169116145b156134f35760fa54815160608301516134d7926001600160a01b039182169291169061328b565b60f95460fa54612ea0916001600160a01b0390911690836139f2565b60d95481516060830151613515926001600160a01b039182169291169061328b565b612ea08160000151826020015183604001518460e0015185610100015186610120015161354d6102584261365e90919063ffffffff16565b60d9546001600160a01b031696959493929190613bab565b6040516001600160a01b0383166024820152604481018290526111b390849063a9059cbb60e01b90606401613254565b603380546001600160a01b038381166001600160a01b0319831681179093556040519116919082907f8be0079c531659141344cd1fd0a4f28419497f9722a3daafe3b4186f6b6457e090600090a35050565b60975460ff161561360a5760405162461bcd60e51b8152600401610ca890615202565b6097805460ff191660011790557f62e78cea01bee320cd4e420270b5ea74000d11b0c9f74754ebdbfc544b05a2586132033390565b600061364b8284615425565b9392505050565b600061364b8284615444565b600061364b8284615293565b600054610100900460ff166136915760405162461bcd60e51b8152600401610ca890615466565b6112ac613d14565b600061364b82846154b1565b60d45460d05460405163f3fef3a360e01b81526001600160a01b03918216600482015260248101849052600092919091169063f3fef3a390604401600060405180830381600087803b1580156136fa57600080fd5b505af115801561370e573d6000803e3d6000fd5b505060d0546040516370a0823160e01b8152306004820152859450600093506001600160a01b0390911691506370a0823190602401602060405180830381865afa158015613760573d6000803e3d6000fd5b505050506040513d601f19601f82011682018060405250810190613784919061522c565b905080821115613792578091505b8260e25410156137a25760e25491505b60e2546137af9083613699565b60e25550919050565b600081156138035760dc5415613803576137e3612710611feb60dc548561363f90919063ffffffff16565b60d75460d354919250613803916001600160a01b03908116911683613565565b919050565b600080600060dd54111561383457613831612710611feb60dd548861363f90919063ffffffff16565b91505b60de541561385a57613857612710611feb60de548861363f90919063ffffffff16565b90505b60c95460ff161561388057613870828585613d44565b61387b818585614206565b613918565b6138a061388d838361365e565b60cc546001600160a01b031686866143f3565b60cd5460ca5460405163464e3c8b60e01b815260048101919091526024810184905260448101839052606481018690526001600160a01b039091169063464e3c8b90608401600060405180830381600087803b1580156138ff57600080fd5b505af1158015613913573d6000803e3d6000fd5b505050505b935093915050565b6000613975826040518060400160405280602081526020017f5361666545524332303a206c6f772d6c6576656c2063616c6c206661696c6564815250856001600160a01b03166146399092919063ffffffff16565b8051909150156111b3578080602001905181019061399391906154c8565b6111b35760405162461bcd60e51b815260206004820152602a60248201527f5361666545524332303a204552433230206f7065726174696f6e20646964206e6044820152691bdd081cdd58d8d9595960b21b6064820152608401610ca8565b6000816020015160001480613a0957506040820151155b15613a4757613a40613a226103e864e8d4a5100061363f565b611feb8460e00151611fe5613a38898989614648565b87519061363f565b9050613a7a565b6040820151613a7790613a5c906103e861363f565b60e084015160208501518551611feb9291611fe5919061363f565b90505b836001600160a01b03166352bbbe296040518060c0016040528086815260200160006001811115613aad57613aad6154e5565b815260200185606001516001600160a01b0316815260200185608001516001600160a01b0316815260200185600001518152602001604051806020016040528060008152508152506040518060800160405280306001600160a01b031681526020016000151581526020018661012001516001600160a01b031681526020016000151581525084613b496102584261365e90919063ffffffff16565b6040518563ffffffff1660e01b8152600401613b689493929190615553565b6020604051808303816000875af1158015613b87573d6000803e3d6000fd5b505050506040513d601f19601f82011682018060405250810190613186919061522c565b6000861580613bb8575085155b15613c835760405163d06ca61f60e01b81526000906001600160a01b038b169063d06ca61f90613bee908c908990600401615675565b600060405180830381865afa158015613c0b573d6000803e3d6000fd5b505050506040513d6000823e601f3d908101601f19168201604052613c33919081019061568e565b9050613c7b6103e8611feb8884613c556001875161369990919063ffffffff16565b81518110613c6557613c65615245565b602002602001015161363f90919063ffffffff16565b915050613ca3565b613ca0613c92876103e861363f565b611feb87611fe58c8c61363f565b90505b604051635c11d79560e01b81526001600160a01b038a1690635c11d79590613cd7908b908590899089908990600401615714565b600060405180830381600087803b158015613cf157600080fd5b505af1158015613d05573d6000803e3d6000fd5b50505050505050505050505050565b600054610100900460ff16613d3b5760405162461bcd60e51b8152600401610ca890615466565b6112ac33613595565b60408051610140810182528481528251602082015264e8d4a510009181019190915260d3546001600160a01b0390811660608381019190915260f754909116608083015260f25460a083015260f35460c083015260e0820184905261010082018190523061012083015290613db89061347d565b60f7546040516370a0823160e01b81523060048201526000916001600160a01b0316906370a0823190602401602060405180830381865afa158015613e01573d6000803e3d6000fd5b505050506040513d601f19601f82011682018060405250810190613e25919061522c565b9050613f03604051806101400160405280613e4a60028561365290919063ffffffff16565b815264e8d4a510006020808301919091528681015160408084019190915260f7546001600160a01b03908116606085015260ce54166080840152600060a0840181905260c084015260e0830189905260f580548251818502810185019093528083526101009094019391929091908301828280156126f1576020028201919060005260206000209081546001600160a01b031681526001909101906020018083116126d35750505091835250503060209091015261347d565b613fdc604051806101400160405280613f2660028561365290919063ffffffff16565b815264e8d4a510006020808301919091526040878101518184015260f7546001600160a01b03908116606085015260db54166080840152600060a0840181905260c084015260e0830189905260f680548251818502810185019093528083526101009094019391929091908301828280156126f1576020028201919060005260206000209081546001600160a01b031681526001909101906020018083116126d35750505091835250503060209091015261347d565b60ce546040516370a0823160e01b81523060048201526000916001600160a01b0316906370a0823190602401602060405180830381865afa158015614025573d6000803e3d6000fd5b505050506040513d601f19601f82011682018060405250810190614049919061522c565b60db546040516370a0823160e01b81523060048201529192506000916001600160a01b03909116906370a0823190602401602060405180830381865afa158015614097573d6000803e3d6000fd5b505050506040513d601f19601f820116820180604052508101906140bb919061522c565b60d95460ce549192506140db916001600160a01b0390811691168461328b565b60d95460db546140f8916001600160a01b0391821691168361328b565b60d95460ce5460db546001600160a01b039283169263e8e33700928116911685856141296103e8611feb848f61363f565b6141426103e8611feb8f8b61363f90919063ffffffff16565b60d6546001600160a01b031661415a4261025861365e565b60405160e08a901b6001600160e01b03191681526001600160a01b039889166004820152968816602488015260448701959095526064860193909352608485019190915260a484015290921660c482015260e4810191909152610104016060604051808303816000875af11580156141d6573d6000803e3d6000fd5b505050506040513d601f19601f820116820180604052508101906141fa9190615750565b50505050505050505050565b60d95460d354614223916001600160a01b0391821691168561328b565b60408051610140810182528481528251602082015264e8d4a510009181019190915260d3546001600160a01b0390811660608381019190915260f754909116608083015260f25460a083015260f35460c083015260e08201849052610100820181905230610120830152906142979061347d565b60d5546040516370a0823160e01b81523060048201526000916001600160a01b0316906370a0823190602401602060405180830381865afa1580156142e0573d6000803e3d6000fd5b505050506040513d601f19601f82011682018060405250810190614304919061522c565b60d95460d554919250614324916001600160a01b0390811691168361328b565b604080516101408101825282815264e8d4a51000602080830191909152858101518284015260d5546001600160a01b03908116606084015260ce54166080830152600060a0830181905260c083015260e0820187905260f5805484518184028101840190955280855261318694610100850193909291908301828280156143d457602002820191906000526020600020905b81546001600160a01b031681526001909101906020018083116143b6575b505050918352505060cf546001600160a01b031660209091015261347d565b6040805161014081018252858152825160208083019190915264e8d4a510008284015260d3546001600160a01b03908116606084015260f75416608083015260f25460a083015260f35460c083015260e0820185905260ec80548451818402810184019095528085526144b594610100850193909291908301828280156126f1576020028201919060005260206000209081546001600160a01b031681526001909101906020018083116126d35750505091835250503060209091015261347d565b60f7546040516370a0823160e01b81523060048201526000916001600160a01b0316906370a0823190602401602060405180830381865afa1580156144fe573d6000803e3d6000fd5b505050506040513d601f19601f82011682018060405250810190614522919061522c565b6040805160028082526060820183529293506000929091602083019080368337505060f75482519293506001600160a01b03169183915060009061456857614568615245565b6001600160a01b03928316602091820292909201015260d55482519116908290600190811061459957614599615245565b6001600160a01b03928316602091820292909201015260d95460f7546145c49290811691168461328b565b604080516101408101825283815264e8d4a51000602082018190529181019190915260f7546001600160a01b03908116606083015260d55481166080830152600060a0830181905260c083015260e08201869052610100820183905286166101208201526146319061347d565b505050505050565b60606134758484600085614787565b608081015160405163160bf1c960e31b8152600481018490526001600160a01b03918216602482015260009182919086169063b05f8e48906044016080604051808303816000875af11580156146a2573d6000803e3d6000fd5b505050506040513d601f19601f820116820180604052508101906146c6919061577e565b505050606084015160405163160bf1c960e31b8152600481018790526001600160a01b0391821660248201529192506000919087169063b05f8e48906044016080604051808303816000875af1158015614724573d6000803e3d6000fd5b505050506040513d601f19601f82011682018060405250810190614748919061577e565b505050905061287f6147678560c001518361363f90919063ffffffff16565b611feb64e8d4a51000611fe58860a001518761363f90919063ffffffff16565b6060824710156147e85760405162461bcd60e51b815260206004820152602660248201527f416464726573733a20696e73756666696369656e742062616c616e636520666f6044820152651c8818d85b1b60d21b6064820152608401610ca8565b6001600160a01b0385163b61483f5760405162461bcd60e51b815260206004820152601d60248201527f416464726573733a2063616c6c20746f206e6f6e2d636f6e74726163740000006044820152606401610ca8565b600080866001600160a01b0316858760405161485b91906157bf565b60006040518083038185875af1925050503d8060008114614898576040519150601f19603f3d011682016040523d82523d6000602084013e61489d565b606091505b50915091506148ad8282866148b8565b979650505050505050565b606083156148c757508161364b565b8251156148d75782518084602001fd5b8160405162461bcd60e51b8152600401610ca891906157db565b828054828255906000526020600020908101928215614946579160200282015b8281111561494657825182546001600160a01b0319166001600160a01b03909116178255602090920191600190910190614911565b506149529291506149a9565b5090565b828054828255906000526020600020908101928215614946579160200282015b828111156149465781546001600160a01b0319166001600160a01b03843516178255602090920191600190910190614976565b5b8082111561495257600081556001016149aa565b6001600160a01b0381168114612ea057600080fd5b8035613803816149be565b6000602082840312156149f057600080fd5b813561364b816149be565b600060208284031215614a0d57600080fd5b5035919050565b8015158114612ea057600080fd5b803561380381614a14565b600060208284031215614a3f57600080fd5b813561364b81614a14565b634e487b7160e01b600052604160045260246000fd5b6040516101e0810167ffffffffffffffff81118282101715614a8457614a84614a4a565b60405290565b60405160a0810167ffffffffffffffff81118282101715614a8457614a84614a4a565b6040516101a0810167ffffffffffffffff81118282101715614a8457614a84614a4a565b604051601f8201601f1916810167ffffffffffffffff81118282101715614afa57614afa614a4a565b604052919050565b60006101e08284031215614b1557600080fd5b614b1d614a60565b9050614b28826149d3565b8152614b36602083016149d3565b6020820152614b47604083016149d3565b6040820152614b58606083016149d3565b6060820152614b69608083016149d3565b6080820152614b7a60a083016149d3565b60a0820152614b8b60c083016149d3565b60c0820152614b9c60e083016149d3565b60e0820152610100614baf8184016149d3565b90820152610120614bc18382016149d3565b90820152610140614bd38382016149d3565b90820152610160614be58382016149d3565b90820152610180614bf78382016149d3565b908201526101a0614c098382016149d3565b908201526101c0614c1b8382016149d3565b9082015292915050565b600067ffffffffffffffff821115614c3f57614c3f614a4a565b5060051b60200190565b600082601f830112614c5a57600080fd5b81356020614c6f614c6a83614c25565b614ad1565b82815260059290921b84018101918181019086841115614c8e57600080fd5b8286015b84811015614cb2578035614ca5816149be565b8352918301918301614c92565b509695505050505050565b600060a08284031215614ccf57600080fd5b614cd7614a8a565b9050813581526020820135602082015260408201356040820152606082013560608201526080820135608082015292915050565b600060a08284031215614d1d57600080fd5b614d25614a8a565b90508135614d32816149be565b81526020820135614d42816149be565b60208201526040820135614d55816149be565b60408201526060820135614d68816149be565b60608201526080820135614d7b816149be565b608082015292915050565b60008060408385031215614d9957600080fd5b8235614da4816149be565b9150602083013567ffffffffffffffff80821115614dc157600080fd5b908401906104608287031215614dd657600080fd5b614dde614aad565b82358152614dee60208401614a22565b6020820152614e008760408501614b02565b604082015261022083013582811115614e1857600080fd5b614e2488828601614c49565b60608301525061024083013582811115614e3d57600080fd5b614e4988828601614c49565b60808301525061026083013582811115614e6257600080fd5b614e6e88828601614c49565b60a08301525061028083013582811115614e8757600080fd5b614e9388828601614c49565b60c0830152506102a083013582811115614eac57600080fd5b614eb888828601614c49565b60e0830152506102c083013582811115614ed157600080fd5b614edd88828601614c49565b610100830152506102e083013582811115614ef757600080fd5b614f0388828601614c49565b6101208301525061030083013582811115614f1d57600080fd5b614f2988828601614c49565b61014083015250614f3e876103208501614cbd565b610160820152614f52876103c08501614d0b565b6101808201528093505050509250929050565b60008060408385031215614f7857600080fd5b50508035926020909101359150565b600080600060608486031215614f9c57600080fd5b8335614fa7816149be565b9250602084013591506040840135614fbe816149be565b809150509250925092565b600080600080600060a08688031215614fe157600080fd5b505083359560208501359550604085013594606081013594506080013592509050565b60ff81168114612ea057600080fd5b60008060006040848603121561502857600080fd5b833561503381615004565b9250602084013567ffffffffffffffff8082111561505057600080fd5b818601915086601f83011261506457600080fd5b81358181111561507357600080fd5b8760208260051b850101111561508857600080fd5b6020830194508093505050509250925092565b600080604083850312156150ae57600080fd5b82356150b9816149be565b946020939093013593505050565b600080604083850312156150da57600080fd5b82356150e581615004565b915060208301356150f5816149be565b809150509250929050565b6020808252818101527f4f776e61626c653a2063616c6c6572206973206e6f7420746865206f776e6572604082015260600190565b60208082526004908201526310b3b7bb60e11b604082015260600190565b6020808252602e908201527f496e697469616c697a61626c653a20636f6e747261637420697320616c72656160408201526d191e481a5b9a5d1a585b1a5e995960921b606082015260800190565b6020808252601f908201527f5265656e7472616e637947756172643a207265656e7472616e742063616c6c00604082015260600190565b60208082526010908201526f10bd37b93937a1b7b73a3937b63632b960811b604082015260600190565b60208082526010908201526f14185d5cd8589b194e881c185d5cd95960821b604082015260600190565b60006020828403121561523e57600080fd5b5051919050565b634e487b7160e01b600052603260045260246000fd5b634e487b7160e01b600052601160045260246000fd5b600061ffff808316818114156152895761528961525b565b6001019392505050565b600082198211156152a6576152a661525b565b500190565b6000602082840312156152bd57600080fd5b815161364b81615004565b805169ffffffffffffffffffff8116811461380357600080fd5b600080600080600060a086880312156152fa57600080fd5b615303866152c8565b9450602086015193506040860151925060608601519150615326608087016152c8565b90509295509295909350565b600181815b8085111561536d5781600019048211156153535761535361525b565b8085161561536057918102915b93841c9390800290615337565b509250929050565b600082615384575060016117a3565b81615391575060006117a3565b81600181146153a757600281146153b1576153cd565b60019150506117a3565b60ff8411156153c2576153c261525b565b50506001821b6117a3565b5060208310610133831016604e8410600b84101617156153f0575081810a6117a3565b6153fa8383615332565b806000190482111561540e5761540e61525b565b029392505050565b600061364b60ff841683615375565b600081600019048311821515161561543f5761543f61525b565b500290565b60008261546157634e487b7160e01b600052601260045260246000fd5b500490565b6020808252602b908201527f496e697469616c697a61626c653a20636f6e7472616374206973206e6f74206960408201526a6e697469616c697a696e6760a81b606082015260800190565b6000828210156154c3576154c361525b565b500390565b6000602082840312156154da57600080fd5b815161364b81614a14565b634e487b7160e01b600052602160045260246000fd5b60005b838110156155165781810151838201526020016154fe565b83811115611cac5750506000910152565b6000815180845261553f8160208601602086016154fb565b601f01601f19169290920160200192915050565b60e08152845160e0820152600060208601516002811061558357634e487b7160e01b600052602160045260246000fd5b61010083015260408601516001600160a01b031661012083015260608601516155b86101408401826001600160a01b03169052565b50608086015161016083015260a086015160c06101808401526155df6101a0840182615527565b91505061561f602083018680516001600160a01b039081168352602080830151151590840152604080830151909116908301526060908101511515910152565b60a082019390935260c0015292915050565b600081518084526020808501945080840160005b8381101561566a5781516001600160a01b031687529582019590820190600101615645565b509495945050505050565b8281526040602082015260006134756040830184615631565b600060208083850312156156a157600080fd5b825167ffffffffffffffff8111156156b857600080fd5b8301601f810185136156c957600080fd5b80516156d7614c6a82614c25565b81815260059190911b820183019083810190878311156156f657600080fd5b928401925b828410156148ad578351825292840192908401906156fb565b85815284602082015260a06040820152600061573360a0830186615631565b6001600160a01b0394909416606083015250608001529392505050565b60008060006060848603121561576557600080fd5b8351925060208401519150604084015190509250925092565b6000806000806080858703121561579457600080fd5b84519350602085015192506040850151915060608501516157b4816149be565b939692955090935050565b600082516157d18184602087016154fb565b9190910192915050565b60208152600061364b602083018461552756fea2646970667358221220907b7b9dc8781a23b8bf231123203f63852c29b0a8ce4ba9c7ea455604378a7364736f6c634300080a0033",
  "immutableReferences": {},
  "source": "// SPDX-License-Identifier: MIT\n\npragma solidity ^0.8.0;\n\nimport \"@openzeppelin/contracts-upgradeable/token/ERC20/utils/SafeERC20Upgradeable.sol\";\n\nimport \"../interfaces/IAMMFarm.sol\";\n\nimport \"../interfaces/IAcryptosFarm.sol\";\n\nimport \"../interfaces/IAcryptosVault.sol\";\n\nimport \"@openzeppelin/contracts-upgradeable/token/ERC20/IERC20Upgradeable.sol\";\n\nimport \"@openzeppelin/contracts-upgradeable/utils/math/SafeMathUpgradeable.sol\";\n\nimport \"./_VaultBase.sol\";\n\nimport \"../interfaces/IBalancerVault.sol\";\n\nimport \"../libraries/PriceFeed.sol\";\n\nimport \"@openzeppelin/contracts-upgradeable/proxy/ClonesUpgradeable.sol\";\n\n/// @title Vault factory for VaultAcryptosSingle\ncontract VaultFactoryAcryptosSingle is Initializable, OwnableUpgradeable {\n    /* State */\n\n    VaultAcryptosSingle[] public deployedVaults; // All deployed vaults\n    address public masterVault; // Address of the upgradeable proxy that delegates to the master vault contract\n\n    /* Constructor */\n\n    function initialize(address _masterVault) public initializer {\n        // Set master vault address\n        masterVault = _masterVault;\n\n        // Ownable\n        __Ownable_init();\n    }\n\n    /* Factory functions */\n\n    function createVault(\n        address _timelockOwner,\n        VaultAcryptosSingle.VaultAcryptosSingleInit memory _initValue\n    ) external onlyOwner {\n        // Create clone\n        VaultAcryptosSingle _vault = VaultAcryptosSingle(\n            ClonesUpgradeable.clone(masterVault)\n        );\n        // Initialize cloned contract\n        _vault.initialize(_timelockOwner, _initValue);\n        // Add to array of deployed vaults\n        deployedVaults.push(_vault);\n    }\n\n    function numVaults() external view returns (uint256) {\n        return deployedVaults.length;\n    }\n}\n\n/// @title Vault contract for Acryptos single token strategies (e.g. for lending)\ncontract VaultAcryptosSingle is VaultBase {\n    /* Libraries */\n    using SafeMathUpgradeable for uint256;\n    using SafeERC20Upgradeable for IERC20Upgradeable;\n    using SafeSwapBalancer for IBalancerVault;\n    using SafeSwapUni for IAMMRouter02;\n    using PriceFeed for AggregatorV3Interface;\n\n    /* Constructor */\n    /// @notice Upgradeable constructor\n    /// @param _initValue A VaultAcryptosSingleInit struct containing all init values\n    /// @param _timelockOwner The designated timelock controller address to act as owner\n    function initialize(\n        address _timelockOwner,\n        VaultAcryptosSingleInit memory _initValue\n    ) public initializer {\n        // Vault config\n        pid = _initValue.pid;\n        isHomeChain = _initValue.isHomeChain;\n\n        // Addresses\n        govAddress = _initValue.keyAddresses.govAddress;\n        onlyGov = true;\n        zorroControllerAddress = _initValue.keyAddresses.zorroControllerAddress;\n        ZORROAddress = _initValue.keyAddresses.ZORROAddress;\n        zorroStakingVault = _initValue.keyAddresses.zorroStakingVault;\n        wantAddress = _initValue.keyAddresses.wantAddress;\n        token0Address = _initValue.keyAddresses.token0Address;\n        earnedAddress = _initValue.keyAddresses.earnedAddress;\n        farmContractAddress = _initValue.keyAddresses.farmContractAddress;\n        rewardsAddress = _initValue.keyAddresses.rewardsAddress;\n        poolAddress = _initValue.keyAddresses.poolAddress;\n        uniRouterAddress = _initValue.keyAddresses.uniRouterAddress;\n        zorroLPPool = _initValue.keyAddresses.zorroLPPool;\n        zorroLPPoolOtherToken = _initValue.keyAddresses.zorroLPPoolOtherToken;\n        tokenUSDCAddress = _initValue.keyAddresses.tokenUSDCAddress;\n        tokenBUSD = 0xe9e7CEA3DedcA5984780Bafc599bD69ADd087D56;\n        balancerPool = 0x894ed9026de37afd9cce1e6c0be7d6b510e3ffe5000100000000000000000001;\n        balancerVaultAddress = 0xa82f327BBbF0667356D2935C6532d164b06cEced;\n        tokenACS = 0x4197C6EF3879a08cD51e5560da5064B773aa1d29;\n        balancerACSWeightBasisPoints = 30;\n        balancerBUSDWeightBasisPoints = 10;\n\n        // Fees\n        controllerFee = _initValue.fees.controllerFee;\n        buyBackRate = _initValue.fees.buyBackRate;\n        revShareRate = _initValue.fees.revShareRate;\n        entranceFeeFactor = _initValue.fees.entranceFeeFactor;\n        withdrawFeeFactor = _initValue.fees.withdrawFeeFactor;\n\n        // Swap paths\n        earnedToZORROPath = _initValue.earnedToZORROPath;\n        earnedToToken0Path = _initValue.earnedToToken0Path;\n        USDCToToken0Path = _initValue.USDCToToken0Path;\n        earnedToZORLPPoolOtherTokenPath = _initValue\n            .earnedToZORLPPoolOtherTokenPath;\n        earnedToUSDCPath = _initValue.earnedToUSDCPath;\n        BUSDToToken0Path = _initValue.BUSDToToken0Path;\n        BUSDToZORROPath = _initValue.BUSDToZORROPath;\n        BUSDToLPPoolOtherTokenPath = _initValue.BUSDToLPPoolOtherTokenPath;\n        // Corresponding reverse paths\n        token0ToUSDCPath = _reversePath(USDCToToken0Path);\n\n        // Price feeds\n        token0PriceFeed = AggregatorV3Interface(\n            _initValue.priceFeeds.token0PriceFeed\n        );\n        earnTokenPriceFeed = AggregatorV3Interface(\n            _initValue.priceFeeds.earnTokenPriceFeed\n        );\n        lpPoolOtherTokenPriceFeed = AggregatorV3Interface(\n            _initValue.priceFeeds.lpPoolOtherTokenPriceFeed\n        );\n        ZORPriceFeed = AggregatorV3Interface(\n            _initValue.priceFeeds.ZORPriceFeed\n        );\n\n        // Super call\n        VaultBase.initialize(_timelockOwner);\n    }\n\n    /* Structs */\n\n    struct VaultAcryptosSingleInit {\n        uint256 pid;\n        bool isHomeChain;\n        VaultAddresses keyAddresses;\n        address[] earnedToZORROPath;\n        address[] earnedToToken0Path;\n        address[] USDCToToken0Path;\n        address[] earnedToZORLPPoolOtherTokenPath;\n        address[] earnedToUSDCPath;\n        address[] BUSDToToken0Path;\n        address[] BUSDToZORROPath;\n        address[] BUSDToLPPoolOtherTokenPath;\n        VaultFees fees;\n        VaultPriceFeeds priceFeeds;\n    }\n\n    /* State */\n\n    uint256 public balancerACSWeightBasisPoints; // Relative weight of ACS token in balancer pool\n    uint256 public balancerBUSDWeightBasisPoints; // Relative weight of BUSD token in balancer pool\n    address[] public BUSDToToken0Path; // Swap path from BUSD to Token0 (PCS)\n    address[] public BUSDToZORROPath; // Swap path from BUSD to ZOR (PCS)\n    address[] public BUSDToLPPoolOtherTokenPath; // Swap path from BUSD to ZOR LP Pool's \"other token\" (PCS)\n    address public tokenBUSD;\n    address public tokenACS;\n    bytes32 public balancerPool; // The Acryptos ACSI.finance pool ID for swapping Earned token to BUSD tokens.\n    address public balancerVaultAddress; // Address of Balancer/ACSI.finance Vault for swaps etc.\n\n    /* Setters */\n\n    function setBalancerWeights(uint256 _acsWeight, uint256 _busdWeight)\n        external\n        onlyOwner\n    {\n        balancerACSWeightBasisPoints = _acsWeight;\n        balancerBUSDWeightBasisPoints = _busdWeight;\n    }\n\n    function setBUSDSwapPaths(uint8 _idx, address[] calldata _path)\n        external\n        onlyOwner\n    {\n        if (_idx == 0) {\n            BUSDToToken0Path = _path;\n        } else if (_idx == 1) {\n            BUSDToZORROPath = _path;\n        } else if (_idx == 2) {\n            BUSDToLPPoolOtherTokenPath = _path;\n        } else {\n            revert(\"unsupported idx swap path\");\n        }\n    }\n\n    function setBUSD(address _token) external onlyOwner {\n        tokenBUSD = _token;\n    }\n\n    function setACS(address _token) external onlyOwner {\n        tokenACS = _token;\n    }\n\n    function setBalancerPool(bytes32 _pool) external onlyOwner {\n        balancerPool = _pool;\n    }\n\n    function setBalancerVaultAddress(address _vault) external onlyOwner {\n        balancerVaultAddress = _vault;\n    }\n\n    /* Investment Actions */\n\n    /// @notice Receives new deposits from user\n    /// @param _account address of user that this deposit is intended for\n    /// @param _wantAmt amount of Want token to deposit/stake\n    /// @return sharesAdded uint256 Number of shares added\n    function depositWantToken(address _account, uint256 _wantAmt)\n        public\n        virtual\n        override\n        onlyZorroController\n        nonReentrant\n        whenNotPaused\n        returns (uint256 sharesAdded)\n    {\n        // Preflight checks\n        require(_wantAmt > 0, \"Want token deposit must be > 0\");\n\n        // Transfer Want token from sender\n        IERC20Upgradeable(wantAddress).safeTransferFrom(\n            msg.sender,\n            address(this),\n            _wantAmt\n        );\n\n        // Set sharesAdded to the Want token amount specified\n        sharesAdded = _wantAmt;\n        // If the total number of shares and want tokens locked both exceed 0, the shares added is the proportion of Want tokens locked,\n        // discounted by the entrance fee\n        if (wantLockedTotal > 0 && sharesTotal > 0) {\n            sharesAdded = _wantAmt\n                .mul(sharesTotal)\n                .mul(entranceFeeFactor)\n                .div(wantLockedTotal)\n                .div(entranceFeeFactorMax);\n        }\n        // Increment the shares\n        sharesTotal = sharesTotal.add(sharesAdded);\n\n        // Farm the want token\n        _farm();\n    }\n\n    /// @notice Performs necessary operations to convert USDC into Want token\n    /// @param _amountUSDC The USDC quantity to exchange (must already be deposited)\n    /// @param _maxMarketMovementAllowed The max slippage allowed. 1000 = 0 %, 995 = 0.5%, etc.\n    /// @return uint256 Amount of Want token obtained\n    function exchangeUSDForWantToken(\n        uint256 _amountUSDC,\n        uint256 _maxMarketMovementAllowed\n    ) public override onlyZorroController whenNotPaused returns (uint256) {\n        // Get balance of deposited USDC\n        uint256 _balUSDC = IERC20(tokenUSDCAddress).balanceOf(address(this));\n        // Check that USDC was actually deposited\n        require(_amountUSDC > 0, \"USDC deposit must be > 0\");\n        require(_amountUSDC <= _balUSDC, \"USDC desired exceeded bal\");\n\n        // Use price feed to determine exchange rates\n        uint256 _token0ExchangeRate = token0PriceFeed.getExchangeRate();\n\n        // Swap USDC for tokens\n        // Increase allowance\n        IERC20Upgradeable(tokenUSDCAddress).safeIncreaseAllowance(\n            uniRouterAddress,\n            _amountUSDC\n        );\n        // Single asset. Swap from USDC directly to Token0\n        _safeSwap(\n            SafeSwapParams({\n                amountIn: _amountUSDC,\n                priceToken0: 1e12,\n                priceToken1: _token0ExchangeRate,\n                token0: tokenUSDCAddress,\n                token1: token0Address,\n                token0Weight: 0,\n                token1Weight: 0,\n                maxMarketMovementAllowed: _maxMarketMovementAllowed,\n                path: USDCToToken0Path,\n                destination: address(this)\n            })\n        );\n\n        // Get new Token0 balance\n        uint256 _token0Bal = IERC20Upgradeable(token0Address).balanceOf(\n            address(this)\n        );\n\n        // Increase allowance\n        IERC20Upgradeable(token0Address).safeIncreaseAllowance(poolAddress, _token0Bal);\n\n        // Deposit token to get Want token\n        IAcryptosVault(poolAddress).deposit(_token0Bal);\n\n        // Calculate resulting want token balance\n        uint256 _wantAmt = IERC20Upgradeable(wantAddress).balanceOf(\n            address(this)\n        );\n\n        // Transfer back to sender\n        IERC20Upgradeable(wantAddress).safeTransfer(\n            zorroControllerAddress,\n            _wantAmt\n        );\n\n        return _wantAmt;\n    }\n\n    /// @notice Safely swaps tokens using the most suitable protocol based on token\n    /// @param _swapParams SafeSwapParams for swap\n    function _safeSwap(SafeSwapParams memory _swapParams) internal {\n        if (_swapParams.token0 == tokenACS || _swapParams.token1 == tokenACS) {\n            // Allowance\n            IERC20Upgradeable(_swapParams.token0).safeIncreaseAllowance(\n                balancerVaultAddress,\n                _swapParams.amountIn\n            );\n            // If it's for the Acryptos tokens, swap on ACS Finance (Balancer clone) (Better liquidity for these tokens only)\n            IBalancerVault(balancerVaultAddress).safeSwap(\n                balancerPool,\n                _swapParams\n            );\n        } else {\n            // Allowance\n            IERC20Upgradeable(_swapParams.token0).safeIncreaseAllowance(\n                uniRouterAddress,\n                _swapParams.amountIn\n            );\n            // Otherwise, swap on normal Pancakeswap (or Uniswap clone) for simplicity & liquidity\n            IAMMRouter02(uniRouterAddress).safeSwap(\n                _swapParams.amountIn,\n                _swapParams.priceToken0,\n                _swapParams.priceToken1,\n                _swapParams.maxMarketMovementAllowed,\n                _swapParams.path,\n                _swapParams.destination,\n                block.timestamp.add(600)\n            );\n        }\n    }\n\n    /// @notice Public function for farming Want token.\n    function farm() public virtual nonReentrant {\n        _farm();\n    }\n\n    /// @notice Internal function for farming Want token. Responsible for staking Want token in a MasterChef/MasterApe-like contract\n    function _farm() internal virtual {\n        // Get the Want token stored on this contract\n        uint256 wantAmt = IERC20Upgradeable(wantAddress).balanceOf(\n            address(this)\n        );\n        // Increment the total Want tokens locked into this contract\n        wantLockedTotal = wantLockedTotal.add(wantAmt);\n        // Allow the farm contract (e.g. MasterChef) the ability to transfer up to the Want amount\n        IERC20Upgradeable(wantAddress).safeIncreaseAllowance(\n            farmContractAddress,\n            wantAmt\n        );\n\n        // Deposit the Want tokens in the Farm contract\n        IAcryptosFarm(farmContractAddress).deposit(wantAddress, wantAmt);\n    }\n\n    /// @notice Internal function for unfarming Want token. Responsible for unstaking Want token from MasterChef/MasterApe contracts\n    /// @param _wantAmt the amount of Want tokens to withdraw. If 0, will only harvest and not withdraw\n    /// @return wantUnfarmed The net amount of Want tokens unfarmed\n    function _unfarm(uint256 _wantAmt) internal returns (uint256 wantUnfarmed) {\n        // Withdraw the Want tokens from the Farm contract\n        IAcryptosFarm(farmContractAddress).withdraw(wantAddress, _wantAmt);\n\n        // Init\n        wantUnfarmed = _wantAmt;\n\n        // Safety: Check balance of this contract's Want tokens held, and cap _wantAmt to that value\n        uint256 _wantBal = IERC20Upgradeable(wantAddress).balanceOf(\n            address(this)\n        );\n        if (wantUnfarmed > _wantBal) {\n            wantUnfarmed = _wantBal;\n        }\n        // Safety: cap _wantAmt at the total quantity of Want tokens locked\n        if (wantLockedTotal < _wantAmt) {\n            wantUnfarmed = wantLockedTotal;\n        }\n\n        // Decrement the total Want locked tokens by the _wantAmt\n        wantLockedTotal = wantLockedTotal.sub(wantUnfarmed);\n    }\n\n    /// @notice Fully withdraw Want tokens from the Farm contract (100% withdrawals only)\n    /// @param _account The address of the owner of vault investment\n    /// @param _wantAmt The amount of Want token to withdraw\n    /// @return sharesRemoved The number of shares removed\n    function withdrawWantToken(address _account, uint256 _wantAmt)\n        public\n        virtual\n        override\n        onlyZorroController\n        nonReentrant\n        whenNotPaused\n        returns (uint256 sharesRemoved)\n    {\n        // Preflight checks\n        require(_wantAmt > 0, \"want amt <= 0\");\n\n        // Shares removed is proportional to the % of total Want tokens locked that _wantAmt represents\n        sharesRemoved = _wantAmt.mul(sharesTotal).div(wantLockedTotal);\n        // Safety: cap the shares to the total number of shares\n        if (sharesRemoved > sharesTotal) {\n            sharesRemoved = sharesTotal;\n        }\n        // Decrement the total shares by the sharesRemoved\n        sharesTotal = sharesTotal.sub(sharesRemoved);\n\n        // If a withdrawal fee is specified, discount the _wantAmt by the withdrawal fee\n        if (withdrawFeeFactor < withdrawFeeFactorMax) {\n            _wantAmt = _wantAmt.mul(withdrawFeeFactor).div(\n                withdrawFeeFactorMax\n            );\n        }\n\n        // Unfarm Want token\n        uint256 _wantUnfarmed = _unfarm(_wantAmt);\n\n        // Finally, transfer the want amount from this contract, back to the ZorroController contract\n        IERC20Upgradeable(wantAddress).safeTransfer(\n            zorroControllerAddress,\n            _wantUnfarmed\n        );\n    }\n\n    /// @notice Converts Want token back into USD to be ready for withdrawal and transfers to sender\n    /// @param _amount The Want token quantity to exchange (must be deposited beforehand)\n    /// @param _maxMarketMovementAllowed The max slippage allowed for swaps. 1000 = 0 %, 995 = 0.5%, etc.\n    /// @return uint256 Amount of USDC token obtained\n    function exchangeWantTokenForUSD(\n        uint256 _amount,\n        uint256 _maxMarketMovementAllowed\n    )\n        public\n        virtual\n        override\n        onlyZorroController\n        whenNotPaused\n        returns (uint256)\n    {\n        // Preflight checks\n        require(_amount > 0, \"Want amt must be > 0\");\n\n        // Safely transfer Want token from sender\n        IERC20Upgradeable(wantAddress).safeTransferFrom(\n            msg.sender,\n            address(this),\n            _amount\n        );\n\n        // Approve\n        IERC20Upgradeable(wantAddress).safeIncreaseAllowance(poolAddress, _amount);\n\n        // Withdraw Want token to get Token0\n        IAcryptosVault(poolAddress).withdraw(_amount);\n\n        // Use price feed to determine exchange rates\n        uint256 _token0ExchangeRate = token0PriceFeed.getExchangeRate();\n\n        // Swap Token0 for USDC\n        // Get Token0 balance\n        uint256 _token0Bal = IERC20Upgradeable(token0Address).balanceOf(\n            address(this)\n        );\n        // Increase allowance\n        IERC20Upgradeable(token0Address).safeIncreaseAllowance(\n            uniRouterAddress,\n            _token0Bal\n        );\n        // Swap Token0 -> USDC\n        _safeSwap(\n            SafeSwapParams({\n                amountIn: _token0Bal,\n                priceToken0: _token0ExchangeRate,\n                priceToken1: 1e12,\n                token0: token0Address,\n                token1: tokenUSDCAddress,\n                token0Weight: 0,\n                token1Weight: 0,\n                maxMarketMovementAllowed: _maxMarketMovementAllowed,\n                path: token0ToUSDCPath,\n                destination: msg.sender\n            })\n        );\n\n        // Calculate USDC balance\n        return IERC20(tokenUSDCAddress).balanceOf(address(this));\n    }\n\n    /// @notice The main compounding (earn) function. Reinvests profits since the last earn event.\n    /// @param _maxMarketMovementAllowed The max slippage allowed. 1000 = 0 %, 995 = 0.5%, etc.\n    function earn(uint256 _maxMarketMovementAllowed)\n        public\n        virtual\n        override\n        nonReentrant\n        whenNotPaused\n    {\n        // If onlyGov is set to true, only allow to proceed if the current caller is the govAddress\n        if (onlyGov) {\n            require(msg.sender == govAddress, \"!gov\");\n        }\n\n        // Harvest farm tokens\n        _unfarm(0);\n\n        // Get the balance of the Earned token on this contract (ACS, etc.)\n        uint256 _earnedAmt = IERC20(earnedAddress).balanceOf(address(this));\n\n        // Get exchange rate from price feed\n        uint256 _earnTokenExchangeRate = earnTokenPriceFeed.getExchangeRate();\n        uint256 _token0ExchangeRate = token0PriceFeed.getExchangeRate();\n        uint256 _ZORExchangeRate = ZORPriceFeed.getExchangeRate();\n        uint256 _lpPoolOtherTokenExchangeRate = ZORPriceFeed.getExchangeRate();\n        // Create rates struct\n        ExchangeRates memory _rates = ExchangeRates({\n            earn: _earnTokenExchangeRate,\n            ZOR: _ZORExchangeRate,\n            lpPoolOtherToken: _lpPoolOtherTokenExchangeRate\n        });\n\n        // Distribute fees\n        uint256 _controllerFee = _distributeFees(_earnedAmt);\n\n        // Buyback & rev share\n        (uint256 _buybackAmt, uint256 _revShareAmt) = _buyBackAndRevShare(\n            _earnedAmt,\n            _maxMarketMovementAllowed,\n            _rates\n        );\n\n        // Net earned amt\n        uint256 _earnedAmtNet = _earnedAmt\n            .sub(_controllerFee)\n            .sub(_buybackAmt)\n            .sub(_revShareAmt);\n\n        // Swap Earn token for single asset token\n\n        // Step 1: Earned to BUSD\n        _safeSwap(\n            SafeSwapParams({\n                amountIn: _earnedAmtNet,\n                priceToken0: _earnTokenExchangeRate,\n                priceToken1: 1e12,\n                token0: earnedAddress,\n                token1: tokenBUSD,\n                token0Weight: balancerACSWeightBasisPoints,\n                token1Weight: balancerBUSDWeightBasisPoints,\n                maxMarketMovementAllowed: _maxMarketMovementAllowed,\n                path: earnedToToken0Path,\n                destination: address(this)\n            })\n        );\n\n        // Step 2: BUSD to Token0\n        uint256 _balBUSD = IERC20Upgradeable(tokenBUSD).balanceOf(\n            address(this)\n        );\n\n        _safeSwap(\n            SafeSwapParams({\n                amountIn: _balBUSD,\n                priceToken0: 1e12,\n                priceToken1: _token0ExchangeRate,\n                token0: tokenBUSD,\n                token1: token0Address,\n                token0Weight: 0,\n                token1Weight: 0,\n                maxMarketMovementAllowed: _maxMarketMovementAllowed,\n                path: BUSDToToken0Path,\n                destination: address(this)\n            })\n        );\n\n        // Redeposit single asset token to get Want token\n        // Get new Token0 balance\n        uint256 _token0Bal = IERC20Upgradeable(token0Address).balanceOf(address(this));\n        // Allow spending\n        IERC20Upgradeable(token0Address).safeIncreaseAllowance(poolAddress, _token0Bal);\n        // Deposit token to get Want token\n        IAcryptosVault(poolAddress).deposit(_token0Bal);\n\n        // This vault is only for single asset deposits, so farm that token and exit\n        // Update the last earn block\n        lastEarnBlock = block.number;\n        // Farm LP token\n        _farm();\n    }\n\n    /// @notice Buys back the earned token on-chain, swaps it to add liquidity to the ZOR pool, then burns the associated LP token\n    /// @dev Requires funds to be sent to this address before calling. Can be called internally OR by controller\n    /// @param _amount The amount of Earn token to buy back\n    /// @param _maxMarketMovementAllowed The max slippage allowed. 1000 = 0 %, 995 = 0.5%, etc.\n    /// @param _rates ExchangeRates struct with realtime rates information for swaps\n    function _buybackOnChain(\n        uint256 _amount,\n        uint256 _maxMarketMovementAllowed,\n        ExchangeRates memory _rates\n    ) internal override {\n        // 1. Swap Earned -> BUSD\n        address[] memory _dummyEarnedToBUSDPath;\n        _safeSwap(\n            SafeSwapParams({\n                amountIn: _amount,\n                priceToken0: _rates.earn,\n                priceToken1: 1e12,\n                token0: earnedAddress,\n                token1: tokenBUSD,\n                token0Weight: balancerACSWeightBasisPoints,\n                token1Weight: balancerBUSDWeightBasisPoints,\n                maxMarketMovementAllowed: _maxMarketMovementAllowed,\n                path: _dummyEarnedToBUSDPath,\n                destination: address(this)\n            })\n        );\n\n        // Get BUSD bal\n        uint256 _balBUSD = IERC20Upgradeable(tokenBUSD).balanceOf(\n            address(this)\n        );\n\n        // 2. Swap 1/2 BUSD -> ZOR\n        _safeSwap(\n            SafeSwapParams({\n                amountIn: _balBUSD.div(2),\n                priceToken0: 1e12,\n                priceToken1: _rates.ZOR,\n                token0: tokenBUSD,\n                token1: ZORROAddress,\n                token0Weight: 0,\n                token1Weight: 0,\n                maxMarketMovementAllowed: _maxMarketMovementAllowed,\n                path: BUSDToZORROPath,\n                destination: address(this)\n            })\n        );\n\n        // 3. Swap 1/2 BUSD -> LP \"other token\"\n        _safeSwap(\n            SafeSwapParams({\n                amountIn: _balBUSD.div(2),\n                priceToken0: 1e12,\n                priceToken1: _rates.lpPoolOtherToken,\n                token0: tokenBUSD,\n                token1: zorroLPPoolOtherToken,\n                token0Weight: 0,\n                token1Weight: 0,\n                maxMarketMovementAllowed: _maxMarketMovementAllowed,\n                path: BUSDToLPPoolOtherTokenPath,\n                destination: address(this)\n            })\n        );\n\n        // Enter LP pool and send received token to the burn address\n        uint256 zorroTokenAmt = IERC20Upgradeable(ZORROAddress).balanceOf(\n            address(this)\n        );\n        uint256 otherTokenAmt = IERC20Upgradeable(zorroLPPoolOtherToken)\n            .balanceOf(address(this));\n        IERC20Upgradeable(ZORROAddress).safeIncreaseAllowance(\n            uniRouterAddress,\n            zorroTokenAmt\n        );\n        IERC20Upgradeable(zorroLPPoolOtherToken).safeIncreaseAllowance(\n            uniRouterAddress,\n            otherTokenAmt\n        );\n        IAMMRouter02(uniRouterAddress).addLiquidity(\n            ZORROAddress,\n            zorroLPPoolOtherToken,\n            zorroTokenAmt,\n            otherTokenAmt,\n            zorroTokenAmt.mul(_maxMarketMovementAllowed).div(1000),\n            otherTokenAmt.mul(_maxMarketMovementAllowed).div(1000),\n            burnAddress,\n            block.timestamp.add(600)\n        );\n    }\n\n    /// @notice Sends the specified earnings amount as revenue share to ZOR stakers\n    /// @param _amount The amount of Earn token to share as revenue with ZOR stakers\n    /// @param _maxMarketMovementAllowed Max slippage. 950 = 5%, 990 = 1%, etc.\n    /// @param _rates ExchangeRates struct with realtime rates information for swaps\n    function _revShareOnChain(\n        uint256 _amount,\n        uint256 _maxMarketMovementAllowed,\n        ExchangeRates memory _rates\n    ) internal override {\n        // Authorize spending beforehand\n        IERC20Upgradeable(earnedAddress).safeIncreaseAllowance(\n            uniRouterAddress,\n            _amount\n        );\n\n        // Swap Earn to USDC\n        // Require two step swap (Balancer + Uni)\n        // 1. Balancer: Earn -> BUSD\n        address[] memory _dummyPath;\n        _safeSwap(\n            SafeSwapParams({\n                amountIn: _amount,\n                priceToken0: _rates.earn,\n                priceToken1: 1e12,\n                token0: earnedAddress,\n                token1: tokenBUSD,\n                token0Weight: balancerACSWeightBasisPoints,\n                token1Weight: balancerBUSDWeightBasisPoints,\n                maxMarketMovementAllowed: _maxMarketMovementAllowed,\n                path: _dummyPath, // Unused\n                destination: address(this)\n            })\n        );\n        // 2. Uni: BUSD -> ZOR\n        uint256 _balUSDC = IERC20Upgradeable(tokenUSDCAddress).balanceOf(\n            address(this)\n        );\n        // Increase allowance\n        IERC20Upgradeable(tokenUSDCAddress).safeIncreaseAllowance(\n            uniRouterAddress,\n            _balUSDC\n        );\n        _safeSwap(\n            SafeSwapParams({\n                amountIn: _balUSDC,\n                priceToken0: 1e12,\n                priceToken1: _rates.ZOR,\n                token0: tokenUSDCAddress,\n                token1: ZORROAddress,\n                token0Weight: 0,\n                token1Weight: 0,\n                maxMarketMovementAllowed: _maxMarketMovementAllowed,\n                path: BUSDToZORROPath,\n                destination: zorroStakingVault\n            })\n        );\n    }\n\n    /// @notice Swaps Earn token to USDC and sends to destination specified\n    /// @param _earnedAmount Quantity of Earned tokens\n    /// @param _destination Address to send swapped USDC to\n    /// @param _maxMarketMovementAllowed Slippage factor. 950 = 5%, 990 = 1%, etc.\n    /// @param _rates ExchangeRates struct with realtime rates information for swaps\n    function _swapEarnedToUSDC(\n        uint256 _earnedAmount,\n        address _destination,\n        uint256 _maxMarketMovementAllowed,\n        ExchangeRates memory _rates\n    ) internal override {\n        // Swap ACS to BUSD (Balancer)\n        _safeSwap(\n            SafeSwapParams({\n                amountIn: _earnedAmount,\n                priceToken0: _rates.earn,\n                priceToken1: 1e12,\n                token0: earnedAddress,\n                token1: tokenBUSD,\n                token0Weight: balancerACSWeightBasisPoints,\n                token1Weight: balancerBUSDWeightBasisPoints,\n                maxMarketMovementAllowed: _maxMarketMovementAllowed,\n                path: earnedToUSDCPath, // Unused\n                destination: address(this)\n            })\n        );\n\n        // BUSD balance\n        uint256 _balBUSD = IERC20Upgradeable(tokenBUSD).balanceOf(\n            address(this)\n        );\n\n        // Swap path\n        address[] memory _path = new address[](2);\n        _path[0] = tokenBUSD;\n        _path[1] = tokenUSDCAddress;\n\n        // Swap BUSD to USDC (PCS)\n        // Increase allowance\n        IERC20Upgradeable(tokenBUSD).safeIncreaseAllowance(\n            uniRouterAddress,\n            _balBUSD\n        );\n        // Swap\n        _safeSwap(\n            SafeSwapParams({\n                amountIn: _balBUSD,\n                priceToken0: 1e12,\n                priceToken1: 1e12,\n                token0: tokenBUSD,\n                token1: tokenUSDCAddress,\n                token0Weight: 0,\n                token1Weight: 0,\n                maxMarketMovementAllowed: _maxMarketMovementAllowed,\n                path: _path,\n                destination: _destination\n            })\n        );\n    }\n}\n",
  "sourcePath": "/Users/kristophm/Documents/workspace/zorro-protocol/contracts/vaults/VaultAcryptosSingle.sol",
  "compiler": {
    "name": "solc",
    "version": "0.8.10+commit.fc410830.Emscripten.clang"
  },
  "schemaVersion": "3.4.4",
  "updatedAt": "2022-05-17T00:05:30.605Z",
  "networkType": "ethereum",
  "devdoc": {
    "kind": "dev",
    "methods": {
      "depositWantToken(address,uint256)": {
        "params": {
          "_account": "address of user that this deposit is intended for",
          "_wantAmt": "amount of Want token to deposit/stake"
        },
        "returns": {
          "sharesAdded": "uint256 Number of shares added"
        }
      },
      "earn(uint256)": {
        "params": {
          "_maxMarketMovementAllowed": "The max slippage allowed. 1000 = 0 %, 995 = 0.5%, etc."
        }
      },
      "exchangeUSDForWantToken(uint256,uint256)": {
        "params": {
          "_amountUSDC": "The USDC quantity to exchange (must already be deposited)",
          "_maxMarketMovementAllowed": "The max slippage allowed. 1000 = 0 %, 995 = 0.5%, etc."
        },
        "returns": {
          "_0": "uint256 Amount of Want token obtained"
        }
      },
      "exchangeWantTokenForUSD(uint256,uint256)": {
        "params": {
          "_amount": "The Want token quantity to exchange (must be deposited beforehand)",
          "_maxMarketMovementAllowed": "The max slippage allowed for swaps. 1000 = 0 %, 995 = 0.5%, etc."
        },
        "returns": {
          "_0": "uint256 Amount of USDC token obtained"
        }
      },
      "inCaseTokensGetStuck(address,uint256,address)": {
        "params": {
          "_amount": "The amount of the tokens to transfer",
          "_to": "The address to transfer tokens to",
          "_token": "Address of the ERC20 token to transfer"
        }
      },
      "initialize(address,(uint256,bool,(address,address,address,address,address,address,address,address,address,address,address,address,address,address,address),address[],address[],address[],address[],address[],address[],address[],address[],(uint256,uint256,uint256,uint256,uint256),(address,address,address,address,address)))": {
        "params": {
          "_initValue": "A VaultAcryptosSingleInit struct containing all init values",
          "_timelockOwner": "The designated timelock controller address to act as owner"
        }
      },
      "owner()": {
        "details": "Returns the address of the current owner."
      },
      "paused()": {
        "details": "Returns true if the contract is paused, and false otherwise."
      },
      "renounceOwnership()": {
        "details": "Leaves the contract without owner. It will not be possible to call `onlyOwner` functions anymore. Can only be called by the current owner. NOTE: Renouncing ownership will leave the contract without an owner, thereby removing any functionality that is only available to the owner."
      },
      "setFeeSettings(uint256,uint256,uint256,uint256,uint256)": {
        "params": {
          "_buyBackRate": "Buy back rate fee numerator",
          "_controllerFee": "Controller fee numerator",
          "_entranceFeeFactor": "Entrance fee numerator (higher means smaller percentage)",
          "_revShareRate": "Rev share rate fee numerator",
          "_withdrawFeeFactor": "Withdrawal fee numerator (higher means smaller percentage)"
        }
      },
      "setGov(address)": {
        "params": {
          "_govAddress": "The new gov address"
        }
      },
      "setOnlyGov(bool)": {
        "params": {
          "_onlyGov": "whether onlyGov should be enforced"
        }
      },
      "transferOwnership(address)": {
        "details": "Transfers ownership of the contract to a new account (`newOwner`). Can only be called by the current owner."
      },
      "withdrawWantToken(address,uint256)": {
        "params": {
          "_account": "The address of the owner of vault investment",
          "_wantAmt": "The amount of Want token to withdraw"
        },
        "returns": {
          "sharesRemoved": "The number of shares removed"
        }
      }
    },
    "title": "Vault contract for Acryptos single token strategies (e.g. for lending)",
    "version": 1
  },
  "userdoc": {
    "kind": "user",
    "methods": {
      "depositWantToken(address,uint256)": {
        "notice": "Receives new deposits from user"
      },
      "earn(uint256)": {
        "notice": "The main compounding (earn) function. Reinvests profits since the last earn event."
      },
      "exchangeUSDForWantToken(uint256,uint256)": {
        "notice": "Performs necessary operations to convert USDC into Want token"
      },
      "exchangeWantTokenForUSD(uint256,uint256)": {
        "notice": "Converts Want token back into USD to be ready for withdrawal and transfers to sender"
      },
      "farm()": {
        "notice": "Public function for farming Want token."
      },
      "inCaseTokensGetStuck(address,uint256,address)": {
        "notice": "Safely transfer ERC20 tokens stuck in this contract to a specified address"
      },
      "initialize(address,(uint256,bool,(address,address,address,address,address,address,address,address,address,address,address,address,address,address,address),address[],address[],address[],address[],address[],address[],address[],address[],(uint256,uint256,uint256,uint256,uint256),(address,address,address,address,address)))": {
        "notice": "Upgradeable constructor"
      },
      "pause()": {
        "notice": "Pause contract"
      },
      "setFeeSettings(uint256,uint256,uint256,uint256,uint256)": {
        "notice": "Configure key fee parameters"
      },
      "setGov(address)": {
        "notice": "Set governor address"
      },
      "setOnlyGov(bool)": {
        "notice": "Set onlyGov property"
      },
      "unpause()": {
        "notice": "Unpause contract"
      },
      "withdrawWantToken(address,uint256)": {
        "notice": "Fully withdraw Want tokens from the Farm contract (100% withdrawals only)"
      }
    },
    "version": 1
  }
}