{
  "contractName": "VaultBenqiAVAXLiqStakeLP",
  "abi": [
    {
      "anonymous": false,
      "inputs": [
        {
          "indexed": true,
          "internalType": "uint256",
          "name": "_amount",
          "type": "uint256"
        }
      ],
      "name": "Buyback",
      "type": "event"
    },
    {
      "anonymous": false,
      "inputs": [
        {
          "indexed": true,
          "internalType": "address",
          "name": "previousOwner",
          "type": "address"
        },
        {
          "indexed": true,
          "internalType": "address",
          "name": "newOwner",
          "type": "address"
        }
      ],
      "name": "OwnershipTransferred",
      "type": "event"
    },
    {
      "anonymous": false,
      "inputs": [
        {
          "indexed": false,
          "internalType": "address",
          "name": "account",
          "type": "address"
        }
      ],
      "name": "Paused",
      "type": "event"
    },
    {
      "anonymous": false,
      "inputs": [
        {
          "indexed": true,
          "internalType": "uint256",
          "name": "_amount",
          "type": "uint256"
        }
      ],
      "name": "RevShare",
      "type": "event"
    },
    {
      "anonymous": false,
      "inputs": [
        {
          "indexed": false,
          "internalType": "address",
          "name": "_govAddress",
          "type": "address"
        }
      ],
      "name": "SetGov",
      "type": "event"
    },
    {
      "anonymous": false,
      "inputs": [
        {
          "indexed": false,
          "internalType": "bool",
          "name": "_onlyGov",
          "type": "bool"
        }
      ],
      "name": "SetOnlyGov",
      "type": "event"
    },
    {
      "anonymous": false,
      "inputs": [
        {
          "indexed": false,
          "internalType": "uint256",
          "name": "_entranceFeeFactor",
          "type": "uint256"
        },
        {
          "indexed": false,
          "internalType": "uint256",
          "name": "_withdrawFeeFactor",
          "type": "uint256"
        },
        {
          "indexed": false,
          "internalType": "uint256",
          "name": "_controllerFee",
          "type": "uint256"
        },
        {
          "indexed": false,
          "internalType": "uint256",
          "name": "_buyBackRate",
          "type": "uint256"
        },
        {
          "indexed": false,
          "internalType": "uint256",
          "name": "_revShareRate",
          "type": "uint256"
        }
      ],
      "name": "SetSettings",
      "type": "event"
    },
    {
      "anonymous": false,
      "inputs": [
        {
          "indexed": false,
          "internalType": "address",
          "name": "_treasuryAddress",
          "type": "address"
        }
      ],
      "name": "SetTreasury",
      "type": "event"
    },
    {
      "anonymous": false,
      "inputs": [
        {
          "indexed": false,
          "internalType": "address",
          "name": "_uniRouterAddress",
          "type": "address"
        }
      ],
      "name": "SetUniRouterAddress",
      "type": "event"
    },
    {
      "anonymous": false,
      "inputs": [
        {
          "indexed": false,
          "internalType": "address",
          "name": "account",
          "type": "address"
        }
      ],
      "name": "Unpaused",
      "type": "event"
    },
    {
      "inputs": [],
      "name": "ZORROAddress",
      "outputs": [
        {
          "internalType": "address",
          "name": "",
          "type": "address"
        }
      ],
      "stateMutability": "view",
      "type": "function"
    },
    {
      "inputs": [],
      "name": "burnAddress",
      "outputs": [
        {
          "internalType": "address",
          "name": "",
          "type": "address"
        }
      ],
      "stateMutability": "view",
      "type": "function"
    },
    {
      "inputs": [],
      "name": "buyBackRate",
      "outputs": [
        {
          "internalType": "uint256",
          "name": "",
          "type": "uint256"
        }
      ],
      "stateMutability": "view",
      "type": "function"
    },
    {
      "inputs": [],
      "name": "buyBackRateUL",
      "outputs": [
        {
          "internalType": "uint256",
          "name": "",
          "type": "uint256"
        }
      ],
      "stateMutability": "view",
      "type": "function"
    },
    {
      "inputs": [],
      "name": "controllerFee",
      "outputs": [
        {
          "internalType": "uint256",
          "name": "",
          "type": "uint256"
        }
      ],
      "stateMutability": "view",
      "type": "function"
    },
    {
      "inputs": [],
      "name": "controllerFeeUL",
      "outputs": [
        {
          "internalType": "uint256",
          "name": "",
          "type": "uint256"
        }
      ],
      "stateMutability": "view",
      "type": "function"
    },
    {
      "inputs": [],
      "name": "defaultStablecoin",
      "outputs": [
        {
          "internalType": "address",
          "name": "",
          "type": "address"
        }
      ],
      "stateMutability": "view",
      "type": "function"
    },
    {
      "inputs": [
        {
          "internalType": "uint256",
          "name": "_wantAmt",
          "type": "uint256"
        }
      ],
      "name": "depositWantToken",
      "outputs": [
        {
          "internalType": "uint256",
          "name": "sharesAdded",
          "type": "uint256"
        }
      ],
      "stateMutability": "nonpayable",
      "type": "function"
    },
    {
      "inputs": [],
      "name": "earn",
      "outputs": [],
      "stateMutability": "nonpayable",
      "type": "function"
    },
    {
      "inputs": [],
      "name": "earnedAddress",
      "outputs": [
        {
          "internalType": "address",
          "name": "",
          "type": "address"
        }
      ],
      "stateMutability": "view",
      "type": "function"
    },
    {
      "inputs": [],
      "name": "entranceFeeFactor",
      "outputs": [
        {
          "internalType": "uint256",
          "name": "",
          "type": "uint256"
        }
      ],
      "stateMutability": "view",
      "type": "function"
    },
    {
      "inputs": [],
      "name": "entranceFeeFactorLL",
      "outputs": [
        {
          "internalType": "uint256",
          "name": "",
          "type": "uint256"
        }
      ],
      "stateMutability": "view",
      "type": "function"
    },
    {
      "inputs": [
        {
          "internalType": "uint256",
          "name": "_amountUSD",
          "type": "uint256"
        },
        {
          "internalType": "uint256",
          "name": "_maxMarketMovementAllowed",
          "type": "uint256"
        }
      ],
      "name": "exchangeUSDForWantToken",
      "outputs": [
        {
          "internalType": "uint256",
          "name": "wantObtained",
          "type": "uint256"
        }
      ],
      "stateMutability": "nonpayable",
      "type": "function"
    },
    {
      "inputs": [
        {
          "internalType": "uint256",
          "name": "_amount",
          "type": "uint256"
        },
        {
          "internalType": "uint256",
          "name": "_maxMarketMovementAllowed",
          "type": "uint256"
        }
      ],
      "name": "exchangeWantTokenForUSD",
      "outputs": [
        {
          "internalType": "uint256",
          "name": "usdObtained",
          "type": "uint256"
        }
      ],
      "stateMutability": "nonpayable",
      "type": "function"
    },
    {
      "inputs": [],
      "name": "farm",
      "outputs": [],
      "stateMutability": "nonpayable",
      "type": "function"
    },
    {
      "inputs": [],
      "name": "farmContractAddress",
      "outputs": [
        {
          "internalType": "address",
          "name": "",
          "type": "address"
        }
      ],
      "stateMutability": "view",
      "type": "function"
    },
    {
      "inputs": [],
      "name": "feeDenominator",
      "outputs": [
        {
          "internalType": "uint256",
          "name": "",
          "type": "uint256"
        }
      ],
      "stateMutability": "view",
      "type": "function"
    },
    {
      "inputs": [],
      "name": "govAddress",
      "outputs": [
        {
          "internalType": "address",
          "name": "",
          "type": "address"
        }
      ],
      "stateMutability": "view",
      "type": "function"
    },
    {
      "inputs": [
        {
          "internalType": "address",
          "name": "_token",
          "type": "address"
        },
        {
          "internalType": "uint256",
          "name": "_amount",
          "type": "uint256"
        },
        {
          "internalType": "address",
          "name": "_to",
          "type": "address"
        }
      ],
      "name": "inCaseTokensGetStuck",
      "outputs": [],
      "stateMutability": "nonpayable",
      "type": "function"
    },
    {
      "inputs": [
        {
          "internalType": "address",
          "name": "_timelockOwner",
          "type": "address"
        },
        {
          "components": [
            {
              "components": [
                {
                  "components": [
                    {
                      "internalType": "uint256",
                      "name": "pid",
                      "type": "uint256"
                    },
                    {
                      "internalType": "bool",
                      "name": "isHomeChain",
                      "type": "bool"
                    }
                  ],
                  "internalType": "struct IVault.VaultConfig",
                  "name": "config",
                  "type": "tuple"
                },
                {
                  "components": [
                    {
                      "internalType": "address",
                      "name": "govAddress",
                      "type": "address"
                    },
                    {
                      "internalType": "address",
                      "name": "zorroControllerAddress",
                      "type": "address"
                    },
                    {
                      "internalType": "address",
                      "name": "zorroXChainController",
                      "type": "address"
                    },
                    {
                      "internalType": "address",
                      "name": "ZORROAddress",
                      "type": "address"
                    },
                    {
                      "internalType": "address",
                      "name": "zorroStakingVault",
                      "type": "address"
                    },
                    {
                      "internalType": "address",
                      "name": "wantAddress",
                      "type": "address"
                    },
                    {
                      "internalType": "address",
                      "name": "token0Address",
                      "type": "address"
                    },
                    {
                      "internalType": "address",
                      "name": "token1Address",
                      "type": "address"
                    },
                    {
                      "internalType": "address",
                      "name": "earnedAddress",
                      "type": "address"
                    },
                    {
                      "internalType": "address",
                      "name": "farmContractAddress",
                      "type": "address"
                    },
                    {
                      "internalType": "address",
                      "name": "treasury",
                      "type": "address"
                    },
                    {
                      "internalType": "address",
                      "name": "poolAddress",
                      "type": "address"
                    },
                    {
                      "internalType": "address",
                      "name": "uniRouterAddress",
                      "type": "address"
                    },
                    {
                      "internalType": "address",
                      "name": "zorroLPPool",
                      "type": "address"
                    },
                    {
                      "internalType": "address",
                      "name": "zorroLPPoolOtherToken",
                      "type": "address"
                    },
                    {
                      "internalType": "address",
                      "name": "defaultStablecoin",
                      "type": "address"
                    },
                    {
                      "internalType": "address",
                      "name": "vaultActions",
                      "type": "address"
                    }
                  ],
                  "internalType": "struct IVault.VaultAddresses",
                  "name": "keyAddresses",
                  "type": "tuple"
                },
                {
                  "components": [
                    {
                      "internalType": "address[]",
                      "name": "earnedToZORROPath",
                      "type": "address[]"
                    },
                    {
                      "internalType": "address[]",
                      "name": "earnedToToken0Path",
                      "type": "address[]"
                    },
                    {
                      "internalType": "address[]",
                      "name": "earnedToToken1Path",
                      "type": "address[]"
                    },
                    {
                      "internalType": "address[]",
                      "name": "stablecoinToToken0Path",
                      "type": "address[]"
                    },
                    {
                      "internalType": "address[]",
                      "name": "stablecoinToToken1Path",
                      "type": "address[]"
                    },
                    {
                      "internalType": "address[]",
                      "name": "earnedToZORLPPoolOtherTokenPath",
                      "type": "address[]"
                    },
                    {
                      "internalType": "address[]",
                      "name": "earnedToStablecoinPath",
                      "type": "address[]"
                    },
                    {
                      "internalType": "address[]",
                      "name": "stablecoinToZORROPath",
                      "type": "address[]"
                    },
                    {
                      "internalType": "address[]",
                      "name": "stablecoinToLPPoolOtherTokenPath",
                      "type": "address[]"
                    }
                  ],
                  "internalType": "struct IVault.VaultSwapPaths",
                  "name": "swapPaths",
                  "type": "tuple"
                },
                {
                  "components": [
                    {
                      "internalType": "uint256",
                      "name": "controllerFee",
                      "type": "uint256"
                    },
                    {
                      "internalType": "uint256",
                      "name": "buyBackRate",
                      "type": "uint256"
                    },
                    {
                      "internalType": "uint256",
                      "name": "revShareRate",
                      "type": "uint256"
                    },
                    {
                      "internalType": "uint256",
                      "name": "entranceFeeFactor",
                      "type": "uint256"
                    },
                    {
                      "internalType": "uint256",
                      "name": "withdrawFeeFactor",
                      "type": "uint256"
                    }
                  ],
                  "internalType": "struct IVault.VaultFees",
                  "name": "fees",
                  "type": "tuple"
                },
                {
                  "components": [
                    {
                      "internalType": "address",
                      "name": "token0PriceFeed",
                      "type": "address"
                    },
                    {
                      "internalType": "address",
                      "name": "token1PriceFeed",
                      "type": "address"
                    },
                    {
                      "internalType": "address",
                      "name": "earnTokenPriceFeed",
                      "type": "address"
                    },
                    {
                      "internalType": "address",
                      "name": "ZORPriceFeed",
                      "type": "address"
                    },
                    {
                      "internalType": "address",
                      "name": "lpPoolOtherTokenPriceFeed",
                      "type": "address"
                    },
                    {
                      "internalType": "address",
                      "name": "stablecoinPriceFeed",
                      "type": "address"
                    }
                  ],
                  "internalType": "struct IVault.VaultPriceFeeds",
                  "name": "priceFeeds",
                  "type": "tuple"
                }
              ],
              "internalType": "struct IVault.VaultBaseInit",
              "name": "baseInit",
              "type": "tuple"
            },
            {
              "internalType": "address",
              "name": "liquidStakeToken",
              "type": "address"
            },
            {
              "internalType": "address",
              "name": "liquidStakingPool",
              "type": "address"
            },
            {
              "internalType": "address",
              "name": "liquidStakeTokenPriceFeed",
              "type": "address"
            },
            {
              "internalType": "address[]",
              "name": "liquidStakeToToken0Path",
              "type": "address[]"
            },
            {
              "internalType": "bool",
              "name": "isLPFarmable",
              "type": "bool"
            }
          ],
          "internalType": "struct IVaultLiqStakeLP.VaultBaseLiqStakeLPInit",
          "name": "_initValue",
          "type": "tuple"
        }
      ],
      "name": "initialize",
      "outputs": [],
      "stateMutability": "nonpayable",
      "type": "function"
    },
    {
      "inputs": [
        {
          "internalType": "address",
          "name": "_timelockOwner",
          "type": "address"
        },
        {
          "components": [
            {
              "components": [
                {
                  "internalType": "uint256",
                  "name": "pid",
                  "type": "uint256"
                },
                {
                  "internalType": "bool",
                  "name": "isHomeChain",
                  "type": "bool"
                }
              ],
              "internalType": "struct IVault.VaultConfig",
              "name": "config",
              "type": "tuple"
            },
            {
              "components": [
                {
                  "internalType": "address",
                  "name": "govAddress",
                  "type": "address"
                },
                {
                  "internalType": "address",
                  "name": "zorroControllerAddress",
                  "type": "address"
                },
                {
                  "internalType": "address",
                  "name": "zorroXChainController",
                  "type": "address"
                },
                {
                  "internalType": "address",
                  "name": "ZORROAddress",
                  "type": "address"
                },
                {
                  "internalType": "address",
                  "name": "zorroStakingVault",
                  "type": "address"
                },
                {
                  "internalType": "address",
                  "name": "wantAddress",
                  "type": "address"
                },
                {
                  "internalType": "address",
                  "name": "token0Address",
                  "type": "address"
                },
                {
                  "internalType": "address",
                  "name": "token1Address",
                  "type": "address"
                },
                {
                  "internalType": "address",
                  "name": "earnedAddress",
                  "type": "address"
                },
                {
                  "internalType": "address",
                  "name": "farmContractAddress",
                  "type": "address"
                },
                {
                  "internalType": "address",
                  "name": "treasury",
                  "type": "address"
                },
                {
                  "internalType": "address",
                  "name": "poolAddress",
                  "type": "address"
                },
                {
                  "internalType": "address",
                  "name": "uniRouterAddress",
                  "type": "address"
                },
                {
                  "internalType": "address",
                  "name": "zorroLPPool",
                  "type": "address"
                },
                {
                  "internalType": "address",
                  "name": "zorroLPPoolOtherToken",
                  "type": "address"
                },
                {
                  "internalType": "address",
                  "name": "defaultStablecoin",
                  "type": "address"
                },
                {
                  "internalType": "address",
                  "name": "vaultActions",
                  "type": "address"
                }
              ],
              "internalType": "struct IVault.VaultAddresses",
              "name": "keyAddresses",
              "type": "tuple"
            },
            {
              "components": [
                {
                  "internalType": "address[]",
                  "name": "earnedToZORROPath",
                  "type": "address[]"
                },
                {
                  "internalType": "address[]",
                  "name": "earnedToToken0Path",
                  "type": "address[]"
                },
                {
                  "internalType": "address[]",
                  "name": "earnedToToken1Path",
                  "type": "address[]"
                },
                {
                  "internalType": "address[]",
                  "name": "stablecoinToToken0Path",
                  "type": "address[]"
                },
                {
                  "internalType": "address[]",
                  "name": "stablecoinToToken1Path",
                  "type": "address[]"
                },
                {
                  "internalType": "address[]",
                  "name": "earnedToZORLPPoolOtherTokenPath",
                  "type": "address[]"
                },
                {
                  "internalType": "address[]",
                  "name": "earnedToStablecoinPath",
                  "type": "address[]"
                },
                {
                  "internalType": "address[]",
                  "name": "stablecoinToZORROPath",
                  "type": "address[]"
                },
                {
                  "internalType": "address[]",
                  "name": "stablecoinToLPPoolOtherTokenPath",
                  "type": "address[]"
                }
              ],
              "internalType": "struct IVault.VaultSwapPaths",
              "name": "swapPaths",
              "type": "tuple"
            },
            {
              "components": [
                {
                  "internalType": "uint256",
                  "name": "controllerFee",
                  "type": "uint256"
                },
                {
                  "internalType": "uint256",
                  "name": "buyBackRate",
                  "type": "uint256"
                },
                {
                  "internalType": "uint256",
                  "name": "revShareRate",
                  "type": "uint256"
                },
                {
                  "internalType": "uint256",
                  "name": "entranceFeeFactor",
                  "type": "uint256"
                },
                {
                  "internalType": "uint256",
                  "name": "withdrawFeeFactor",
                  "type": "uint256"
                }
              ],
              "internalType": "struct IVault.VaultFees",
              "name": "fees",
              "type": "tuple"
            },
            {
              "components": [
                {
                  "internalType": "address",
                  "name": "token0PriceFeed",
                  "type": "address"
                },
                {
                  "internalType": "address",
                  "name": "token1PriceFeed",
                  "type": "address"
                },
                {
                  "internalType": "address",
                  "name": "earnTokenPriceFeed",
                  "type": "address"
                },
                {
                  "internalType": "address",
                  "name": "ZORPriceFeed",
                  "type": "address"
                },
                {
                  "internalType": "address",
                  "name": "lpPoolOtherTokenPriceFeed",
                  "type": "address"
                },
                {
                  "internalType": "address",
                  "name": "stablecoinPriceFeed",
                  "type": "address"
                }
              ],
              "internalType": "struct IVault.VaultPriceFeeds",
              "name": "priceFeeds",
              "type": "tuple"
            }
          ],
          "internalType": "struct IVault.VaultBaseInit",
          "name": "_initValue",
          "type": "tuple"
        }
      ],
      "name": "initialize",
      "outputs": [],
      "stateMutability": "nonpayable",
      "type": "function"
    },
    {
      "inputs": [],
      "name": "isHomeChain",
      "outputs": [
        {
          "internalType": "bool",
          "name": "",
          "type": "bool"
        }
      ],
      "stateMutability": "view",
      "type": "function"
    },
    {
      "inputs": [],
      "name": "isLPFarmable",
      "outputs": [
        {
          "internalType": "bool",
          "name": "",
          "type": "bool"
        }
      ],
      "stateMutability": "view",
      "type": "function"
    },
    {
      "inputs": [],
      "name": "lastEarnBlock",
      "outputs": [
        {
          "internalType": "uint256",
          "name": "",
          "type": "uint256"
        }
      ],
      "stateMutability": "view",
      "type": "function"
    },
    {
      "inputs": [],
      "name": "liquidStakeToken",
      "outputs": [
        {
          "internalType": "address",
          "name": "",
          "type": "address"
        }
      ],
      "stateMutability": "view",
      "type": "function"
    },
    {
      "inputs": [],
      "name": "liquidStakeTokenPriceFeed",
      "outputs": [
        {
          "internalType": "contract AggregatorV3Interface",
          "name": "",
          "type": "address"
        }
      ],
      "stateMutability": "view",
      "type": "function"
    },
    {
      "inputs": [],
      "name": "liquidStakingPool",
      "outputs": [
        {
          "internalType": "address",
          "name": "",
          "type": "address"
        }
      ],
      "stateMutability": "view",
      "type": "function"
    },
    {
      "inputs": [],
      "name": "lpToken",
      "outputs": [
        {
          "internalType": "address",
          "name": "",
          "type": "address"
        }
      ],
      "stateMutability": "view",
      "type": "function"
    },
    {
      "inputs": [],
      "name": "maxMarketMovementAllowed",
      "outputs": [
        {
          "internalType": "uint256",
          "name": "",
          "type": "uint256"
        }
      ],
      "stateMutability": "view",
      "type": "function"
    },
    {
      "inputs": [],
      "name": "onlyGov",
      "outputs": [
        {
          "internalType": "bool",
          "name": "",
          "type": "bool"
        }
      ],
      "stateMutability": "view",
      "type": "function"
    },
    {
      "inputs": [],
      "name": "owner",
      "outputs": [
        {
          "internalType": "address",
          "name": "",
          "type": "address"
        }
      ],
      "stateMutability": "view",
      "type": "function"
    },
    {
      "inputs": [],
      "name": "pause",
      "outputs": [],
      "stateMutability": "nonpayable",
      "type": "function"
    },
    {
      "inputs": [],
      "name": "paused",
      "outputs": [
        {
          "internalType": "bool",
          "name": "",
          "type": "bool"
        }
      ],
      "stateMutability": "view",
      "type": "function"
    },
    {
      "inputs": [],
      "name": "pid",
      "outputs": [
        {
          "internalType": "uint256",
          "name": "",
          "type": "uint256"
        }
      ],
      "stateMutability": "view",
      "type": "function"
    },
    {
      "inputs": [],
      "name": "poolAddress",
      "outputs": [
        {
          "internalType": "address",
          "name": "",
          "type": "address"
        }
      ],
      "stateMutability": "view",
      "type": "function"
    },
    {
      "inputs": [
        {
          "internalType": "address",
          "name": "",
          "type": "address"
        }
      ],
      "name": "priceFeeds",
      "outputs": [
        {
          "internalType": "contract AggregatorV3Interface",
          "name": "",
          "type": "address"
        }
      ],
      "stateMutability": "view",
      "type": "function"
    },
    {
      "inputs": [],
      "name": "principalDebt",
      "outputs": [
        {
          "internalType": "uint256",
          "name": "",
          "type": "uint256"
        }
      ],
      "stateMutability": "view",
      "type": "function"
    },
    {
      "inputs": [],
      "name": "profitDebt",
      "outputs": [
        {
          "internalType": "uint256",
          "name": "",
          "type": "uint256"
        }
      ],
      "stateMutability": "view",
      "type": "function"
    },
    {
      "inputs": [],
      "name": "renounceOwnership",
      "outputs": [],
      "stateMutability": "nonpayable",
      "type": "function"
    },
    {
      "inputs": [],
      "name": "revShareRate",
      "outputs": [
        {
          "internalType": "uint256",
          "name": "",
          "type": "uint256"
        }
      ],
      "stateMutability": "view",
      "type": "function"
    },
    {
      "inputs": [],
      "name": "revShareRateUL",
      "outputs": [
        {
          "internalType": "uint256",
          "name": "",
          "type": "uint256"
        }
      ],
      "stateMutability": "view",
      "type": "function"
    },
    {
      "inputs": [
        {
          "internalType": "uint16",
          "name": "_index",
          "type": "uint16"
        },
        {
          "internalType": "address",
          "name": "_addr",
          "type": "address"
        }
      ],
      "name": "setContractAddress",
      "outputs": [],
      "stateMutability": "nonpayable",
      "type": "function"
    },
    {
      "inputs": [
        {
          "internalType": "uint256",
          "name": "_entranceFeeFactor",
          "type": "uint256"
        },
        {
          "internalType": "uint256",
          "name": "_withdrawFeeFactor",
          "type": "uint256"
        },
        {
          "internalType": "uint256",
          "name": "_controllerFee",
          "type": "uint256"
        },
        {
          "internalType": "uint256",
          "name": "_buyBackRate",
          "type": "uint256"
        },
        {
          "internalType": "uint256",
          "name": "_revShareRate",
          "type": "uint256"
        }
      ],
      "name": "setFeeSettings",
      "outputs": [],
      "stateMutability": "nonpayable",
      "type": "function"
    },
    {
      "inputs": [
        {
          "internalType": "address",
          "name": "_govAddress",
          "type": "address"
        }
      ],
      "name": "setGov",
      "outputs": [],
      "stateMutability": "nonpayable",
      "type": "function"
    },
    {
      "inputs": [
        {
          "internalType": "bool",
          "name": "_isFarmable",
          "type": "bool"
        }
      ],
      "name": "setIsFarmable",
      "outputs": [],
      "stateMutability": "nonpayable",
      "type": "function"
    },
    {
      "inputs": [
        {
          "internalType": "uint256",
          "name": "_slippageNumerator",
          "type": "uint256"
        }
      ],
      "name": "setMaxMarketMovementAllowed",
      "outputs": [],
      "stateMutability": "nonpayable",
      "type": "function"
    },
    {
      "inputs": [
        {
          "internalType": "bool",
          "name": "_onlyGov",
          "type": "bool"
        }
      ],
      "name": "setOnlyGov",
      "outputs": [],
      "stateMutability": "nonpayable",
      "type": "function"
    },
    {
      "inputs": [
        {
          "internalType": "uint256",
          "name": "_pid",
          "type": "uint256"
        }
      ],
      "name": "setPid",
      "outputs": [],
      "stateMutability": "nonpayable",
      "type": "function"
    },
    {
      "inputs": [
        {
          "internalType": "address",
          "name": "_token",
          "type": "address"
        },
        {
          "internalType": "address",
          "name": "_priceFeedAddress",
          "type": "address"
        }
      ],
      "name": "setPriceFeed",
      "outputs": [],
      "stateMutability": "nonpayable",
      "type": "function"
    },
    {
      "inputs": [
        {
          "internalType": "address[]",
          "name": "_path",
          "type": "address[]"
        }
      ],
      "name": "setSwapPaths",
      "outputs": [],
      "stateMutability": "nonpayable",
      "type": "function"
    },
    {
      "inputs": [],
      "name": "sharesTotal",
      "outputs": [
        {
          "internalType": "uint256",
          "name": "",
          "type": "uint256"
        }
      ],
      "stateMutability": "view",
      "type": "function"
    },
    {
      "inputs": [
        {
          "internalType": "address",
          "name": "",
          "type": "address"
        },
        {
          "internalType": "address",
          "name": "",
          "type": "address"
        }
      ],
      "name": "swapPathLength",
      "outputs": [
        {
          "internalType": "uint16",
          "name": "",
          "type": "uint16"
        }
      ],
      "stateMutability": "view",
      "type": "function"
    },
    {
      "inputs": [
        {
          "internalType": "address",
          "name": "",
          "type": "address"
        },
        {
          "internalType": "address",
          "name": "",
          "type": "address"
        },
        {
          "internalType": "uint256",
          "name": "",
          "type": "uint256"
        }
      ],
      "name": "swapPaths",
      "outputs": [
        {
          "internalType": "address",
          "name": "",
          "type": "address"
        }
      ],
      "stateMutability": "view",
      "type": "function"
    },
    {
      "inputs": [],
      "name": "token0Address",
      "outputs": [
        {
          "internalType": "address",
          "name": "",
          "type": "address"
        }
      ],
      "stateMutability": "view",
      "type": "function"
    },
    {
      "inputs": [],
      "name": "token1Address",
      "outputs": [
        {
          "internalType": "address",
          "name": "",
          "type": "address"
        }
      ],
      "stateMutability": "view",
      "type": "function"
    },
    {
      "inputs": [
        {
          "internalType": "address",
          "name": "newOwner",
          "type": "address"
        }
      ],
      "name": "transferOwnership",
      "outputs": [],
      "stateMutability": "nonpayable",
      "type": "function"
    },
    {
      "inputs": [],
      "name": "treasury",
      "outputs": [
        {
          "internalType": "address",
          "name": "",
          "type": "address"
        }
      ],
      "stateMutability": "view",
      "type": "function"
    },
    {
      "inputs": [],
      "name": "unpause",
      "outputs": [],
      "stateMutability": "nonpayable",
      "type": "function"
    },
    {
      "inputs": [],
      "name": "vaultActions",
      "outputs": [
        {
          "internalType": "address",
          "name": "",
          "type": "address"
        }
      ],
      "stateMutability": "view",
      "type": "function"
    },
    {
      "inputs": [],
      "name": "wantAddress",
      "outputs": [
        {
          "internalType": "address",
          "name": "",
          "type": "address"
        }
      ],
      "stateMutability": "view",
      "type": "function"
    },
    {
      "inputs": [],
      "name": "withdrawFeeFactor",
      "outputs": [
        {
          "internalType": "uint256",
          "name": "",
          "type": "uint256"
        }
      ],
      "stateMutability": "view",
      "type": "function"
    },
    {
      "inputs": [],
      "name": "withdrawFeeFactorLL",
      "outputs": [
        {
          "internalType": "uint256",
          "name": "",
          "type": "uint256"
        }
      ],
      "stateMutability": "view",
      "type": "function"
    },
    {
      "inputs": [
        {
          "internalType": "uint256",
          "name": "_shares",
          "type": "uint256"
        }
      ],
      "name": "withdrawWantToken",
      "outputs": [
        {
          "internalType": "uint256",
          "name": "wantRemoved",
          "type": "uint256"
        }
      ],
      "stateMutability": "nonpayable",
      "type": "function"
    },
    {
      "inputs": [],
      "name": "zorroControllerAddress",
      "outputs": [
        {
          "internalType": "address",
          "name": "",
          "type": "address"
        }
      ],
      "stateMutability": "view",
      "type": "function"
    },
    {
      "inputs": [],
      "name": "zorroLPPool",
      "outputs": [
        {
          "internalType": "address",
          "name": "",
          "type": "address"
        }
      ],
      "stateMutability": "view",
      "type": "function"
    },
    {
      "inputs": [],
      "name": "zorroLPPoolOtherToken",
      "outputs": [
        {
          "internalType": "address",
          "name": "",
          "type": "address"
        }
      ],
      "stateMutability": "view",
      "type": "function"
    },
    {
      "inputs": [],
      "name": "zorroStakingVault",
      "outputs": [
        {
          "internalType": "address",
          "name": "",
          "type": "address"
        }
      ],
      "stateMutability": "view",
      "type": "function"
    },
    {
      "inputs": [],
      "name": "zorroXChainController",
      "outputs": [
        {
          "internalType": "address",
          "name": "",
          "type": "address"
        }
      ],
      "stateMutability": "view",
      "type": "function"
    },
    {
      "inputs": [],
      "name": "pendingLPFarmRewards",
      "outputs": [
        {
          "internalType": "uint256",
          "name": "pendingRewards",
          "type": "uint256"
        }
      ],
      "stateMutability": "view",
      "type": "function"
    }
  ],
  "bytecode": "0x608060405234801561001057600080fd5b506140fc806100206000396000f3fe608060405234801561001057600080fd5b5060043610610424576000357c01000000000000000000000000000000000000000000000000000000009004806370699c611161023d578063b3545c011161014d578063e502a88d116100d5578063edf5e585116100a4578063edf5e58514610871578063f10684541461087e578063f2fde38b14610887578063f5046a291461089a578063f65ed8c1146108ad57600080fd5b8063e502a88d14610825578063e719847414610838578063e7a036791461084b578063ebfba7c41461085e57600080fd5b8063ceb59cf41161011c578063ceb59cf4146107d1578063cfad57a2146107e4578063d389800f146107f7578063d7cb416f146107ff578063df37af0d1461081257600080fd5b8063b3545c0114610429578063b61bb80a146107b5578063c302a4d014610739578063c8627456146107c857600080fd5b806383f01939116101d05780638da5cb5b1161019f5780638da5cb5b146107425780639dcb511a146107535780639fc33a9f1461077c578063a4d2b0831461078f578063b1414dbb146107a257600080fd5b806383f01939146107155780638456cb591461072857806385f02dd614610730578063866b20181461073957600080fd5b806376e112861161020c57806376e11286146106d35780637a8d130f146106e65780637bf604d8146106ef5780637ff36fbe1461070257600080fd5b806370699c611461069257806370d5ae05146106a5578063715018a6146106b85780637153ef86146106c057600080fd5b80633214471f116103385780635e835270116102cb57806361d027b31161029a57806361d027b31461063d578063648794a41461065057806367206d4014610663578063677379e51461067657806368f541621461068957600080fd5b80635e835270146105f15780635eedc574146106045780635fc77d43146106175780635fcbd2851461062a57600080fd5b806344a3955e1161030757806344a3955e146105b757806346008a07146105c057806355ebedec146105d35780635c975abb146105e657600080fd5b80633214471f1461058a57806336e9332d1461059357806337f0aa4e1461059b5780633f4ba83a146105af57600080fd5b80631755ff21116103bb578063211019d71161038a578063211019d7146104295780632209b59e1461050f5780632337b0b1146105225780632ad91bc014610564578063320d47cc1461057757600080fd5b80631755ff21146104bf578063178a8d07146104ea578063180b0d7e146104f35780631b0d8aab146104fc57600080fd5b80630daef321116103f75780630daef321146104765780630fa4e01e1461049a57806312bc4b9b146104a35780631334903f146104b657600080fd5b8063061c7d48146104295780630761a1721461044557806307df60471461044e5780630b6bb30b14610463575b600080fd5b61043261138881565b6040519081526020015b60405180910390f35b61043260e85481565b61046161045c36600461315c565b6108b5565b005b6104616104713660046131b5565b610bf6565b60cb5461048a9060a060020a900460ff1681565b604051901515815260200161043c565b61043260e15481565b6104616104b1366004613368565b610c8c565b61043260df5481565b60d9546104d290600160a060020a031681565b604051600160a060020a03909116815260200161043c565b61043260dd5481565b61043261271081565b61046161050a36600461339d565b610cc5565b61043261051d36600461339d565b610cf7565b6105516105303660046133b6565b60e660209081526000928352604080842090915290825290205461ffff1681565b60405161ffff909116815260200161043c565b610461610572366004613825565b610f37565b61046161058536600461339d565b6110e6565b61043260de5481565b610461611118565b60ec5461048a9060a060020a900460ff1681565b610461611152565b61043260e45481565b60cb546104d290600160a060020a031681565b6104326105e136600461339d565b611189565b60975460ff1661048a565b6104d26105ff36600461390f565b611445565b60ea546104d290600160a060020a031681565b60cd546104d290600160a060020a031681565b60eb546104d290600160a060020a031681565b60d8546104d290600160a060020a031681565b61043261065e366004613950565b61148a565b610461610671366004613972565b611541565b60d0546104d290600160a060020a031681565b61043260e05481565b60e9546104d290600160a060020a031681565b60d7546104d290600160a060020a031681565b610461611644565b6104616106ce3660046139b4565b61167b565b6104616106e13660046133b6565b61196a565b61043260e25481565b60da546104d290600160a060020a031681565b60d2546104d290600160a060020a031681565b6104616107233660046131b5565b6119a1565b6104616119fd565b61043260dc5481565b61043261232881565b603354600160a060020a03166104d2565b6104d26107613660046139ef565b60e760205260009081526040902054600160a060020a031681565b60d5546104d290600160a060020a031681565b60cf546104d290600160a060020a031681565b60cc546104d290600160a060020a031681565b60d6546104d290600160a060020a031681565b61043260e35481565b60ec546104d290600160a060020a031681565b6104616107f23660046139ef565b611a32565b610461611aad565b60d3546104d290600160a060020a031681565b610461610820366004613a0c565b611f9d565b610432610833366004613950565b6123ef565b60d4546104d290600160a060020a031681565b60d1546104d290600160a060020a031681565b60db546104d290600160a060020a031681565b60c95461048a9060ff1681565b61043260ca5481565b6104616108953660046139ef565b612460565b60ce546104d290600160a060020a031681565b610432612515565b603354600160a060020a031633146108eb5760405160e560020a62461bcd0281526004016108e290613a5c565b60405180910390fd5b61ffff82166109135760d28054600160a060020a031916600160a060020a0383161790555050565b8161ffff166001141561093f5760d38054600160a060020a031916600160a060020a0383161790555050565b8161ffff166002141561096b5760d68054600160a060020a031916600160a060020a0383161790555050565b8161ffff16600314156109975760ce8054600160a060020a031916600160a060020a0383161790555050565b8161ffff16600414156109c35760d18054600160a060020a031916600160a060020a0383161790555050565b8161ffff16600514156109ef5760d98054600160a060020a031916600160a060020a0383161790555050565b8161ffff1660061415610a1b5760d48054600160a060020a031916600160a060020a0383161790555050565b8161ffff1660071415610a475760d58054600160a060020a031916600160a060020a0383161790555050565b8161ffff1660081415610a735760d88054600160a060020a031916600160a060020a0383161790555050565b8161ffff1660091415610a9f5760d78054600160a060020a031916600160a060020a0383161790555050565b8161ffff16600a1415610acb5760da8054600160a060020a031916600160a060020a0383161790555050565b8161ffff16600b1415610af75760db8054600160a060020a031916600160a060020a0383161790555050565b8161ffff16600c1415610b235760cc8054600160a060020a031916600160a060020a0383161790555050565b8161ffff16600d1415610b4f5760cd8054600160a060020a031916600160a060020a0383161790555050565b8161ffff16600e1415610b7b5760cf8054600160a060020a031916600160a060020a0383161790555050565b8161ffff16600f1415610ba75760d08054600160a060020a031916600160a060020a0383161790555050565b60405160e560020a62461bcd02815260206004820152601160248201527f757265636f67436f6e747261637449647800000000000000000000000000000060448201526064016108e2565b5050565b60cb54600160a060020a03163314610c235760405160e560020a62461bcd0281526004016108e290613a91565b60cb805482151560a060020a0274ff0000000000000000000000000000000000000000199091161790556040517f125177ac7b8930dac1e59c2b30b1b6b9191b30af40cf6bbb5d20fec4d44be60f90610c8190831515815260200190565b60405180910390a150565b603354600160a060020a03163314610cb95760405160e560020a62461bcd0281526004016108e290613a5c565b610cc2816125b3565b50565b603354600160a060020a03163314610cf25760405160e560020a62461bcd0281526004016108e290613a5c565b60ca55565b60cc54600090600160a060020a031633600160a060020a031614610d605760405160e560020a62461bcd02815260206004820152601060248201527f217a6f72726f436f6e74726f6c6c65720000000000000000000000000000000060448201526064016108e2565b60026065541415610d865760405160e560020a62461bcd0281526004016108e290613ac8565b600260655560975460ff1615610db15760405160e560020a62461bcd0281526004016108e290613aff565b60008211610e045760405160e560020a62461bcd02815260206004820152601e60248201527f57616e7420746f6b656e206465706f736974206d757374206265203e2030000060448201526064016108e2565b60d154610e1c90600160a060020a0316333085612676565b5060d0546040517ff55850b40000000000000000000000000000000000000000000000000000000081523060048201528291600091600160a060020a039091169063f55850b490602401602060405180830381865afa158015610e83573d6000803e3d6000fd5b505050506040513d601f19601f82011682018060405250810190610ea79190613b36565b9050600081118015610ebb5750600060e454115b15610ef357610ecc61271082613b68565b60df5460e454610edc9086613b68565b610ee69190613b68565b610ef09190613b87565b91505b8160e46000828254610f059190613bac565b925050819055508260e26000828254610f1e9190613bac565b90915550610f2c905061272d565b506001606555919050565b600054610100900460ff16610f525760005460ff1615610f56565b303b155b610f755760405160e560020a62461bcd0281526004016108e290613bc4565b600054610100900460ff16158015610f97576000805461ffff19166101011790555b602082015160e98054600160a060020a03928316600160a060020a031991821617909155604084015160ea805491909316911617905560a082015160ec805491151560a060020a0274ff000000000000000000000000000000000000000019909216919091179055608082015161100d906125b3565b60d05460808301516040517f8b4c5aee0000000000000000000000000000000000000000000000000000000081526110a692600160a060020a031691638b4c5aee9161105c9190600401613c21565b600060405180830381865afa158015611079573d6000803e3d6000fd5b505050506040513d6000823e601f3d908101601f191682016040526110a19190810190613c6e565b6125b3565b60e95460608301516110c191600160a060020a03169061298b565b6110cf838360000151611f9d565b80156110e1576000805461ff00191690555b505050565b603354600160a060020a031633146111135760405160e560020a62461bcd0281526004016108e290613a5c565b60e855565b6002606554141561113e5760405160e560020a62461bcd0281526004016108e290613ac8565b600260655561114b61272d565b6001606555565b60cb54600160a060020a0316331461117f5760405160e560020a62461bcd0281526004016108e290613a91565b6111876129b9565b565b60cc54600090600160a060020a031633600160a060020a0316146111f25760405160e560020a62461bcd02815260206004820152601060248201527f217a6f72726f436f6e74726f6c6c65720000000000000000000000000000000060448201526064016108e2565b600260655414156112185760405160e560020a62461bcd0281526004016108e290613ac8565b600260655560975460ff16156112435760405160e560020a62461bcd0281526004016108e290613aff565b600082116112965760405160e560020a62461bcd02815260206004820152600960248201527f6e6567536861726573000000000000000000000000000000000000000000000060448201526064016108e2565b60d0546040517ff55850b4000000000000000000000000000000000000000000000000000000008152306004820152600091600160a060020a03169063f55850b490602401602060405180830381865afa1580156112f8573d6000803e3d6000fd5b505050506040513d601f19601f8201168201806040525081019061131c9190613b36565b905060e45483111561132e5760e45492505b60e45460009061133e8584613b68565b6113489190613b87565b90508360e4600082825461135c9190613cfa565b9091555061136b905081612a58565b60d15460405160e060020a6370a08231028152306004820152600160a060020a03909116906370a0823190602401602060405180830381865afa1580156113b6573d6000803e3d6000fd5b505050506040513d601f19601f820116820180604052508101906113da9190613b36565b925061271060e05410156114055761271060e0546113f89190613b87565b6114029084613b68565b92505b8260e260008282546114179190613cfa565b909155505060cc5460d15461143991600160a060020a03918216911685612bf4565b50506001606555919050565b60e5602052826000526040600020602052816000526040600020818154811061146d57600080fd5b600091825260209091200154600160a060020a0316925083915050565b60d05460d1546000916114aa91600160a060020a03908116911685612c3d565b60d0546040517f648794a40000000000000000000000000000000000000000000000000000000081526004810185905260248101849052600160a060020a039091169063648794a4906044015b6020604051808303816000875af1158015611516573d6000803e3d6000fd5b505050506040513d601f19601f8201168201806040525081019061153a9190613b36565b9392505050565b60cb54600160a060020a0316331461156e5760405160e560020a62461bcd0281526004016108e290613a91565b60d454600160a060020a03848116911614156115cf5760405160e560020a62461bcd02815260206004820152600560248201527f217361666500000000000000000000000000000000000000000000000000000060448201526064016108e2565b60d154600160a060020a03848116911614156116305760405160e560020a62461bcd02815260206004820152600560248201527f217361666500000000000000000000000000000000000000000000000000000060448201526064016108e2565b6110e1600160a060020a0384168284612bf4565b603354600160a060020a031633146116715760405160e560020a62461bcd0281526004016108e290613a5c565b6111876000612d21565b60cb54600160a060020a031633146116a85760405160e560020a62461bcd0281526004016108e290613a91565b6123288510156116fd5760405160e560020a62461bcd02815260206004820152601a60248201527f5f656e7472616e6365466565466163746f7220746f6f206c6f7700000000000060448201526064016108e2565b6127108511156117525760405160e560020a62461bcd02815260206004820152601b60248201527f5f656e7472616e6365466565466163746f7220746f6f2068696768000000000060448201526064016108e2565b60df8590556123288410156117ac5760405160e560020a62461bcd02815260206004820152601a60248201527f5f7769746864726177466565466163746f7220746f6f206c6f7700000000000060448201526064016108e2565b6127108411156118015760405160e560020a62461bcd02815260206004820152601b60248201527f5f7769746864726177466565466163746f7220746f6f2068696768000000000060448201526064016108e2565b60e084905561138883111561185b5760405160e560020a62461bcd02815260206004820152601760248201527f5f636f6e74726f6c6c657246656520746f6f206869676800000000000000000060448201526064016108e2565b60dc8390556113888211156118b55760405160e560020a62461bcd02815260206004820152601560248201527f5f6275794261636b5261746520746f6f2068696768000000000000000000000060448201526064016108e2565b60dd82905561138881111561190f5760405160e560020a62461bcd02815260206004820152601660248201527f5f72657653686172655261746520746f6f20686967680000000000000000000060448201526064016108e2565b60de819055604080518681526020810186905290810184905260608101839052608081018290527fc67e0b149a57a70fa44a531a46c2c6d8e0b242fa12f459f250012c3a5987d29a9060a00160405180910390a15050505050565b603354600160a060020a031633146119975760405160e560020a62461bcd0281526004016108e290613a5c565b610bf2828261298b565b603354600160a060020a031633146119ce5760405160e560020a62461bcd0281526004016108e290613a5c565b60ec805491151560a060020a0274ff000000000000000000000000000000000000000019909216919091179055565b60cb54600160a060020a03163314611a2a5760405160e560020a62461bcd0281526004016108e290613a91565b611187612d73565b60cb54600160a060020a03163314611a5f5760405160e560020a62461bcd0281526004016108e290613a91565b60cb8054600160a060020a031916600160a060020a0383169081179091556040519081527f91a8c1cc2d4a3bb60738481947a00cbb9899c822916694cf8bb1d68172fdcd5490602001610c81565b60026065541415611ad35760405160e560020a62461bcd0281526004016108e290613ac8565b600260655560975460ff1615611afe5760405160e560020a62461bcd0281526004016108e290613aff565b60cb5460a060020a900460ff1615611b3d5760cb54600160a060020a03163314611b3d5760405160e560020a62461bcd0281526004016108e290613a91565b611b476000612a58565b60d15460405160e060020a6370a08231028152306004820152600091600160a060020a0316906370a0823190602401602060405180830381865afa158015611b93573d6000803e3d6000fd5b505050506040513d601f19601f82011682018060405250810190611bb79190613b36565b905060008111611c0c5760405160e560020a62461bcd02815260206004820152600e60248201527f3077616e7448617276657374656400000000000000000000000000000000000060448201526064016108e2565b60d05460d154611c2991600160a060020a03918216911683612c3d565b60d05460e854604080516101c08101825260ce54600160a060020a0390811680835260d854821660208085019190915260d654831684860181905260cf548416606086015260db54841660808601819052600084815260e780855288822054871660a089015291815281845287812054861660c088015282815290835286812054851660e087015290815260e58252858120928152918152848220805486518184028101840190975280875292978897941695636945292a958a959490936101008501939190830182828015611d2857602002820191906000526020600020905b8154600160a060020a03168152600190910190602001808311611d0a575b505050918352505060d654600160a060020a03908116600090815260e56020908152604080832060db549094168352928152908290208054835181840281018401909452808452938201939091830182828015611dae57602002820191906000526020600020905b8154600160a060020a03168152600190910190602001808311611d90575b5050505050815260200161271060dc54612710611dcb9190613b68565b611dd59190613b87565b61ffff16815260200161271060dd54612710611df19190613b68565b611dfb9190613b87565b61ffff16815260200161271060de54612710611e179190613b68565b611e219190613b87565b61ffff16815260c95460ff1615156020909101526040517c010000000000000000000000000000000000000000000000000000000063ffffffff8616028152611e6f93929190600401613d55565b6060604051808303816000875af1158015611e8e573d6000803e3d6000fd5b505050506040513d601f19601f82011682018060405250810190611eb29190613ed1565b92509250506000821180611ec65750600081115b15611f825760cd54611ef890600160a060020a0316611ee58385613bac565b60d654600160a060020a03169190612c3d565b60cd5460e8546040517fc034615400000000000000000000000000000000000000000000000000000000815260048101859052602481018490526044810191909152600160a060020a039091169063c034615490606401600060405180830381600087803b158015611f6957600080fd5b505af1158015611f7d573d6000803e3d6000fd5b505050505b4360e15560e3839055611f9361272d565b5050600160655550565b600054610100900460ff16611fb85760005460ff1615611fbc565b303b155b611fdb5760405160e560020a62461bcd0281526004016108e290613bc4565b600054610100900460ff16158015611ffd576000805461ffff19166101011790555b612005612dce565b61200e83612460565b8151805160ca5560209081015160c9805460ff191691151591909117905580830151805160cb805460a060020a600160a060020a0393841674ffffffffffffffffffffffffffffffffffffffffff19909216919091171790558183015160cc8054600160a060020a031990811692841692909217905560408084015160cd8054841691851691909117905560608085015160ce8054851691861691909117905560808086015160cf8054861691871691909117905560a086015160d18054861691871691909117905560c086015160d28054861691871691909117905560e08087015160d38054871691881691909117905561010087015160d48054871691881691909117905561012087015160d58054871691881691909117905561014087015160d88054871691881691909117905561016087015160d9805487169188169190911790556101a087015160da805487169188169190911790556101c087015160db805487169188169190911790556101e087015160d6805487169188169190911790556102009096015160d0805490951695169490941790925581870151805160dc559485015160dd558481015160de559084015160df559201519055820151516121da906125b3565b6121eb8260400151602001516125b3565b6121fc8260400151604001516125b3565b61220d8260400151606001516125b3565b61221e8260400151608001516125b3565b61222f826040015160a001516125b3565b612240826040015160c001516125b3565b612251826040015160e001516125b3565b612263826040015161010001516125b3565b60d0546040808401516060015190517f8b4c5aee0000000000000000000000000000000000000000000000000000000081526122b692600160a060020a031691638b4c5aee9161105c9190600401613c21565b60d0546040808401516080015190517f8b4c5aee00000000000000000000000000000000000000000000000000000000815261230992600160a060020a031691638b4c5aee9161105c9190600401613c21565b60d25460808301515161232591600160a060020a03169061298b565b60d35460808301516020015161234491600160a060020a03169061298b565b60d45460808301516040015161236391600160a060020a03169061298b565b60db54608080840151015161238191600160a060020a03169061298b565b60ce546080830151606001516123a091600160a060020a03169061298b565b60d654608083015160a001516123bf91600160a060020a03169061298b565b60d78054600160a060020a03191661dead1790556103d960e85580156110e1576000805461ff0019169055505050565b60d05460d65460009161240f91600160a060020a03908116911685612c3d565b60d0546040517fe502a88d0000000000000000000000000000000000000000000000000000000081526004810185905260248101849052600160a060020a039091169063e502a88d906044016114f7565b603354600160a060020a0316331461248d5760405160e560020a62461bcd0281526004016108e290613a5c565b600160a060020a03811661250c5760405160e560020a62461bcd02815260206004820152602660248201527f4f776e61626c653a206e6577206f776e657220697320746865207a65726f206160448201527f646472657373000000000000000000000000000000000000000000000000000060648201526084016108e2565b610cc281612d21565b60d55460ca546040517fffcd42630000000000000000000000000000000000000000000000000000000081526004810191909152306024820152600091600160a060020a03169063ffcd426390604401600060405180830381865afa158015612582573d6000803e3d6000fd5b505050506040513d6000823e601f3d908101601f191682016040526125aa9190810190613f2b565b50919392505050565b6000816000815181106125c8576125c8613fe4565b60200260200101519050600082600184516125e39190613cfa565b815181106125f3576125f3613fe4565b602090810291909101810151600160a060020a03808516600090815260e5845260408082209284168252918452208551919350612635929091908601906130bd565b509151600160a060020a03918216600090815260e66020908152604080832094909516825292909252919020805461ffff191661ffff909216919091179055565b604051600160a060020a03808516602483015283166044820152606481018290526127279085907f23b872dd00000000000000000000000000000000000000000000000000000000906084015b60408051601f198184030181529190526020810180517bffffffffffffffffffffffffffffffffffffffffffffffffffffffff167fffffffff0000000000000000000000000000000000000000000000000000000090931692909217909152612e00565b50505050565b60d25460405160e060020a6370a08231028152306004820152600091600160a060020a0316906370a0823190602401602060405180830381865afa158015612779573d6000803e3d6000fd5b505050506040513d601f19601f8201168201806040525081019061279d9190613b36565b60d05460d2549192506127bd91600160a060020a03908116911683612c3d565b60d05460d25460e95460ea5460e8546040517f265be49700000000000000000000000000000000000000000000000000000000815260048101879052600160a060020a03948516602482015292841660448401529083166064830152608482015291169063265be4979060a401600060405180830381600087803b15801561284457600080fd5b505af1158015612858573d6000803e3d6000fd5b505060ec5460a060020a900460ff16159150610cc290505760d95460405160e060020a6370a08231028152306004820152600091600160a060020a0316906370a0823190602401602060405180830381865afa1580156128bc573d6000803e3d6000fd5b505050506040513d601f19601f820116820180604052508101906128e09190613b36565b60d55460d95491925061290091600160a060020a03908116911683612c3d565b60d55460ca546040517fe2bbb158000000000000000000000000000000000000000000000000000000008152600160a060020a039092169163e2bbb15891612955918590600401918252602082015260400190565b600060405180830381600087803b15801561296f57600080fd5b505af1158015612983573d6000803e3d6000fd5b505050505050565b600160a060020a03918216600090815260e7602052604090208054600160a060020a03191691909216179055565b60975460ff16612a0e5760405160e560020a62461bcd02815260206004820152601460248201527f5061757361626c653a206e6f742070617573656400000000000000000000000060448201526064016108e2565b6097805460ff191690557f5db9ee0a495bf2e6ff9c91a7834c1ba4fdd244a5e8aa4e537bd38aeae4b073aa335b604051600160a060020a03909116815260200160405180910390a1565b60ec5460a060020a900460ff1615612af25760d55460ca546040517f441a3e70000000000000000000000000000000000000000000000000000000008152600160a060020a039092169163441a3e7091612abf918590600401918252602082015260400190565b600060405180830381600087803b158015612ad957600080fd5b505af1158015612aed573d6000803e3d6000fd5b505050505b60d95460405160e060020a6370a08231028152306004820152600091600160a060020a0316906370a0823190602401602060405180830381865afa158015612b3e573d6000803e3d6000fd5b505050506040513d601f19601f82011682018060405250810190612b629190613b36565b60d05460d954919250612b8291600160a060020a03908116911683612c3d565b60d05460d25460e95460d95460e8546040517fc78bb21700000000000000000000000000000000000000000000000000000000815260048101879052600160a060020a03948516602482015292841660448401529083166064830152608482015291169063c78bb2179060a401612955565b604051600160a060020a0383166024820152604481018290526110e19084907fa9059cbb00000000000000000000000000000000000000000000000000000000906064016126c3565b6040517fdd62ed3e000000000000000000000000000000000000000000000000000000008152306004820152600160a060020a038381166024830152600091839186169063dd62ed3e90604401602060405180830381865afa158015612ca7573d6000803e3d6000fd5b505050506040513d601f19601f82011682018060405250810190612ccb9190613b36565b612cd59190613bac565b604051600160a060020a0385166024820152604481018290529091506127279085907f095ea7b300000000000000000000000000000000000000000000000000000000906064016126c3565b60338054600160a060020a03838116600160a060020a0319831681179093556040519116919082907f8be0079c531659141344cd1fd0a4f28419497f9722a3daafe3b4186f6b6457e090600090a35050565b60975460ff1615612d995760405160e560020a62461bcd0281526004016108e290613aff565b6097805460ff191660011790557f62e78cea01bee320cd4e420270b5ea74000d11b0c9f74754ebdbfc544b05a258612a3b3390565b600054610100900460ff16612df85760405160e560020a62461bcd0281526004016108e290613ffd565b611187612ee8565b6000612e55826040518060400160405280602081526020017f5361666545524332303a206c6f772d6c6576656c2063616c6c206661696c656481525085600160a060020a0316612f1b9092919063ffffffff16565b8051909150156110e15780806020019051810190612e73919061405a565b6110e15760405160e560020a62461bcd02815260206004820152602a60248201527f5361666545524332303a204552433230206f7065726174696f6e20646964206e60448201527f6f7420737563636565640000000000000000000000000000000000000000000060648201526084016108e2565b600054610100900460ff16612f125760405160e560020a62461bcd0281526004016108e290613ffd565b61118733612d21565b6060612f2a8484600085612f32565b949350505050565b60603031831115612fae5760405160e560020a62461bcd02815260206004820152602660248201527f416464726573733a20696e73756666696369656e742062616c616e636520666f60448201527f722063616c6c000000000000000000000000000000000000000000000000000060648201526084016108e2565b600160a060020a0385163b6130085760405160e560020a62461bcd02815260206004820152601d60248201527f416464726573733a2063616c6c20746f206e6f6e2d636f6e747261637400000060448201526064016108e2565b60008086600160a060020a031685876040516130249190614077565b60006040518083038185875af1925050503d8060008114613061576040519150601f19603f3d011682016040523d82523d6000602084013e613066565b606091505b5091509150613076828286613081565b979650505050505050565b6060831561309057508161153a565b8251156130a05782518084602001fd5b8160405160e560020a62461bcd0281526004016108e29190614093565b828054828255906000526020600020908101928215613112579160200282015b828111156131125782518254600160a060020a031916600160a060020a039091161782556020909201916001909101906130dd565b5061311e929150613122565b5090565b5b8082111561311e5760008155600101613123565b600160a060020a0381168114610cc257600080fd5b803561315781613137565b919050565b6000806040838503121561316f57600080fd5b823561ffff8116811461318157600080fd5b9150602083013561319181613137565b809150509250929050565b8015158114610cc257600080fd5b80356131578161319c565b6000602082840312156131c757600080fd5b813561153a8161319c565b60e060020a634e487b7102600052604160045260246000fd5b604051610220810167ffffffffffffffff8111828210171561320f5761320f6131d2565b60405290565b604051610120810167ffffffffffffffff8111828210171561320f5761320f6131d2565b60405160a0810167ffffffffffffffff8111828210171561320f5761320f6131d2565b60405160c0810167ffffffffffffffff8111828210171561320f5761320f6131d2565b6040805190810167ffffffffffffffff8111828210171561320f5761320f6131d2565b604051601f8201601f1916810167ffffffffffffffff811182821017156132cb576132cb6131d2565b604052919050565b600067ffffffffffffffff8211156132ed576132ed6131d2565b5060209081020190565b600082601f83011261330857600080fd5b8135602061331d613318836132d3565b6132a2565b8281529181028401810191818101908684111561333957600080fd5b8286015b8481101561335d57803561335081613137565b835291830191830161333d565b509695505050505050565b60006020828403121561337a57600080fd5b813567ffffffffffffffff81111561339157600080fd5b612f2a848285016132f7565b6000602082840312156133af57600080fd5b5035919050565b600080604083850312156133c957600080fd5b823561318181613137565b600061022082840312156133e757600080fd5b6133ef6131eb565b90506133fa8261314c565b81526134086020830161314c565b60208201526134196040830161314c565b604082015261342a6060830161314c565b606082015261343b6080830161314c565b608082015261344c60a0830161314c565b60a082015261345d60c0830161314c565b60c082015261346e60e0830161314c565b60e082015261010061348181840161314c565b9082015261012061349383820161314c565b908201526101406134a583820161314c565b908201526101606134b783820161314c565b908201526101806134c983820161314c565b908201526101a06134db83820161314c565b908201526101c06134ed83820161314c565b908201526101e06134ff83820161314c565b9082015261020061351183820161314c565b9082015292915050565b6000610120828403121561352e57600080fd5b613536613215565b9050813567ffffffffffffffff8082111561355057600080fd5b61355c858386016132f7565b8352602084013591508082111561357257600080fd5b61357e858386016132f7565b6020840152604084013591508082111561359757600080fd5b6135a3858386016132f7565b604084015260608401359150808211156135bc57600080fd5b6135c8858386016132f7565b606084015260808401359150808211156135e157600080fd5b6135ed858386016132f7565b608084015260a084013591508082111561360657600080fd5b613612858386016132f7565b60a084015260c084013591508082111561362b57600080fd5b613637858386016132f7565b60c084015260e084013591508082111561365057600080fd5b61365c858386016132f7565b60e08401526101009150818401358181111561367757600080fd5b613683868287016132f7565b8385015250505092915050565b600060a082840312156136a257600080fd5b6136aa613239565b9050813581526020820135602082015260408201356040820152606082013560608201526080820135608082015292915050565b600060c082840312156136f057600080fd5b6136f861325c565b9050813561370581613137565b8152602082013561371581613137565b6020820152604082013561372881613137565b6040820152606082013561373b81613137565b6060820152608082013561374e81613137565b608082015260a082013561376181613137565b60a082015292915050565b60008183036103e081121561378057600080fd5b613788613239565b9150604081121561379857600080fd5b506137a161327f565b8235815260208301356137b38161319c565b602082015281526137c783604084016133d4565b602082015261026082013567ffffffffffffffff8111156137e757600080fd5b6137f38482850161351b565b604083015250613807836102808401613690565b606082015261381a8361032084016136de565b608082015292915050565b6000806040838503121561383857600080fd5b823561384381613137565b9150602083013567ffffffffffffffff8082111561386057600080fd5b9084019060c0828703121561387457600080fd5b61387c61325c565b82358281111561388b57600080fd5b6138978882860161376c565b8252506138a66020840161314c565b60208201526138b76040840161314c565b60408201526138c86060840161314c565b60608201526080830135828111156138df57600080fd5b6138eb888286016132f7565b6080830152506138fd60a084016131aa565b60a08201528093505050509250929050565b60008060006060848603121561392457600080fd5b833561392f81613137565b9250602084013561393f81613137565b929592945050506040919091013590565b6000806040838503121561396357600080fd5b50508035926020909101359150565b60008060006060848603121561398757600080fd5b833561399281613137565b92506020840135915060408401356139a981613137565b809150509250925092565b600080600080600060a086880312156139cc57600080fd5b505083359560208501359550604085013594606081013594506080013592509050565b600060208284031215613a0157600080fd5b813561153a81613137565b60008060408385031215613a1f57600080fd5b8235613a2a81613137565b9150602083013567ffffffffffffffff811115613a4657600080fd5b613a528582860161376c565b9150509250929050565b6020808252818101527f4f776e61626c653a2063616c6c6572206973206e6f7420746865206f776e6572604082015260600190565b60208082526004908201527f21676f7600000000000000000000000000000000000000000000000000000000604082015260600190565b6020808252601f908201527f5265656e7472616e637947756172643a207265656e7472616e742063616c6c00604082015260600190565b60208082526010908201527f5061757361626c653a2070617573656400000000000000000000000000000000604082015260600190565b600060208284031215613b4857600080fd5b5051919050565b60e060020a634e487b7102600052601160045260246000fd5b6000816000190483118215151615613b8257613b82613b4f565b500290565b600082613ba75760e060020a634e487b7102600052601260045260246000fd5b500490565b60008219821115613bbf57613bbf613b4f565b500190565b6020808252602e908201527f496e697469616c697a61626c653a20636f6e747261637420697320616c72656160408201527f647920696e697469616c697a6564000000000000000000000000000000000000606082015260800190565b6020808252825182820181905260009190848201906040850190845b81811015613c62578351600160a060020a031683529284019291840191600101613c3d565b50909695505050505050565b60006020808385031215613c8157600080fd5b825167ffffffffffffffff811115613c9857600080fd5b8301601f81018513613ca957600080fd5b8051613cb7613318826132d3565b81815290830282018301908381019087831115613cd357600080fd5b928401925b82841015613076578351613ceb81613137565b82529284019290840190613cd8565b600082821015613d0c57613d0c613b4f565b500390565b600081518084526020808501945080840160005b83811015613d4a578151600160a060020a031687529582019590820190600101613d25565b509495945050505050565b83815282602082015260606040820152613d7b606082018351600160a060020a03169052565b60006020830151613d976080840182600160a060020a03169052565b506040830151600160a060020a03811660a0840152506060830151600160a060020a03811660c0840152506080830151600160a060020a03811660e08401525060a0830151610100613df381850183600160a060020a03169052565b60c08501519150610120613e1181860184600160a060020a03169052565b60e08601519250610140613e2f81870185600160a060020a03169052565b8287015193506101c092506101608381880152613e50610220880186613d11565b9450828801519250610180605f198887030181890152613e708685613d11565b95508289015193506101a09250613e8c8389018561ffff169052565b8882015161ffff811689870152935088015161ffff81166101e08901529350613eb29050565b8601518015156102008701529150613ec79050565b5095945050505050565b600080600060608486031215613ee657600080fd5b8351925060208401519150604084015190509250925092565b60005b83811015613f1a578181015183820152602001613f02565b838111156127275750506000910152565b60008060008060808587031215613f4157600080fd5b845193506020850151613f5381613137565b604086015190935067ffffffffffffffff80821115613f7157600080fd5b818701915087601f830112613f8557600080fd5b815181811115613f9757613f976131d2565b613faa601f8201601f19166020016132a2565b9150808252886020828501011115613fc157600080fd5b613fd2816020840160208601613eff565b50606096909601519497939650505050565b60e060020a634e487b7102600052603260045260246000fd5b6020808252602b908201527f496e697469616c697a61626c653a20636f6e7472616374206973206e6f74206960408201527f6e697469616c697a696e67000000000000000000000000000000000000000000606082015260800190565b60006020828403121561406c57600080fd5b815161153a8161319c565b60008251614089818460208701613eff565b9190910192915050565b60208152600082518060208401526140b2816040850160208701613eff565b601f01601f1916919091016040019291505056fea26469706673582212208dab2f9f3990dc2b333728eec748e5099398c0008f634d5fc1f9f92dc2a8eb0264736f6c634300080a0033",
  "immutableReferences": {},
  "source": "// SPDX-License-Identifier: MIT\n\npragma solidity ^0.8.0;\n\nimport \"../interfaces/TraderJoe/IMasterChefJoeV3.sol\";\n\nimport \"./_VaultBaseLiqStakeLP.sol\";\n\ncontract VaultBenqiAVAXLiqStakeLP is VaultBaseLiqStakeLP {\n    function pendingLPFarmRewards() public view override returns (uint256 pendingRewards) {\n        (pendingRewards,,,) = IMasterChefJoeV3(farmContractAddress).pendingTokens(pid, address(this));\n    }\n}\n",
  "sourcePath": "/Users/kristophm/Documents/workspace/zorro-protocol/contracts/vaults/VaultBenqiLiqStakeLP.sol",
  "compiler": {
    "name": "solc",
    "version": "0.8.10+commit.fc410830.Emscripten.clang"
  },
  "schemaVersion": "3.4.10",
  "updatedAt": "2023-02-05T17:37:42.861Z",
  "devdoc": {
    "kind": "dev",
    "methods": {
      "depositWantToken(uint256)": {
        "params": {
          "_wantAmt": "amount of underlying token to deposit/stake"
        },
        "returns": {
          "sharesAdded": "uint256 Number of shares added"
        }
      },
      "exchangeUSDForWantToken(uint256,uint256)": {
        "params": {
          "_amountUSD": "Amount of USD to exchange",
          "_maxMarketMovementAllowed": "Slippage (990 = 1%)"
        },
        "returns": {
          "wantObtained": "The amount of Want token returned"
        }
      },
      "exchangeWantTokenForUSD(uint256,uint256)": {
        "params": {
          "_amount": "Amount of want to exchange",
          "_maxMarketMovementAllowed": "Slippage (990 = 1%)"
        },
        "returns": {
          "usdObtained": "The amount of USD token returned"
        }
      },
      "inCaseTokensGetStuck(address,uint256,address)": {
        "params": {
          "_amount": "The amount of the tokens to transfer",
          "_to": "The address to transfer tokens to",
          "_token": "Address of the ERC20 token to transfer"
        }
      },
      "initialize(address,(((uint256,bool),(address,address,address,address,address,address,address,address,address,address,address,address,address,address,address,address,address),(address[],address[],address[],address[],address[],address[],address[],address[],address[]),(uint256,uint256,uint256,uint256,uint256),(address,address,address,address,address,address)),address,address,address,address[],bool))": {
        "params": {
          "_initValue": "A VaultAlpacaInit struct containing all init values",
          "_timelockOwner": "The designated timelock controller address to act as owner"
        }
      },
      "owner()": {
        "details": "Returns the address of the current owner."
      },
      "paused()": {
        "details": "Returns true if the contract is paused, and false otherwise."
      },
      "pendingLPFarmRewards()": {
        "details": "Every protocol has a different function name for this, so the implementing contract must conform to this abstraction",
        "returns": {
          "pendingRewards": "The quantity of rewards tokens available for harvest"
        }
      },
      "renounceOwnership()": {
        "details": "Leaves the contract without owner. It will not be possible to call `onlyOwner` functions anymore. Can only be called by the current owner. NOTE: Renouncing ownership will leave the contract without an owner, thereby removing any functionality that is only available to the owner."
      },
      "setFeeSettings(uint256,uint256,uint256,uint256,uint256)": {
        "params": {
          "_buyBackRate": "Buy back rate fee numerator",
          "_controllerFee": "Controller fee numerator",
          "_entranceFeeFactor": "Entrance fee numerator (higher means smaller percentage)",
          "_revShareRate": "Rev share rate fee numerator",
          "_withdrawFeeFactor": "Withdrawal fee numerator (higher means smaller percentage)"
        }
      },
      "setGov(address)": {
        "params": {
          "_govAddress": "The new gov address"
        }
      },
      "setOnlyGov(bool)": {
        "params": {
          "_onlyGov": "whether onlyGov should be enforced"
        }
      },
      "transferOwnership(address)": {
        "details": "Transfers ownership of the contract to a new account (`newOwner`). Can only be called by the current owner."
      },
      "withdrawWantToken(uint256)": {
        "params": {
          "_shares": "The number of shares to withdraw"
        },
        "returns": {
          "wantRemoved": "The amount of Want tokens withdrawn"
        }
      }
    },
    "version": 1
  },
  "userdoc": {
    "kind": "user",
    "methods": {
      "depositWantToken(uint256)": {
        "notice": "Receives new deposits from user"
      },
      "earn()": {
        "notice": "The main compounding (earn) function. Reinvests profits since the last earn event."
      },
      "exchangeUSDForWantToken(uint256,uint256)": {
        "notice": "Converts USD to Want token and delivers back to this contract"
      },
      "exchangeWantTokenForUSD(uint256,uint256)": {
        "notice": "Converts Want token to USD and delivers back to this contract"
      },
      "farm()": {
        "notice": "Public function for farming Want token."
      },
      "inCaseTokensGetStuck(address,uint256,address)": {
        "notice": "Safely transfer ERC20 tokens stuck in this contract to a specified address"
      },
      "initialize(address,(((uint256,bool),(address,address,address,address,address,address,address,address,address,address,address,address,address,address,address,address,address),(address[],address[],address[],address[],address[],address[],address[],address[],address[]),(uint256,uint256,uint256,uint256,uint256),(address,address,address,address,address,address)),address,address,address,address[],bool))": {
        "notice": "Upgradeable constructor"
      },
      "pause()": {
        "notice": "Pause contract"
      },
      "pendingLPFarmRewards()": {
        "notice": "Fetches the pending rewards from the underlying protocol's MasterChef contract"
      },
      "setFeeSettings(uint256,uint256,uint256,uint256,uint256)": {
        "notice": "Configure key fee parameters"
      },
      "setGov(address)": {
        "notice": "Set governor address"
      },
      "setOnlyGov(bool)": {
        "notice": "Set onlyGov property"
      },
      "unpause()": {
        "notice": "Unpause contract"
      },
      "withdrawWantToken(uint256)": {
        "notice": "Fully withdraw Want tokens from the Farm contract (100% withdrawals only)"
      }
    },
    "version": 1
  }
}