{
  "contractName": "VaultAcryptosSingle",
  "abi": [
    {
      "inputs": [
        {
          "internalType": "address[]",
          "name": "_addresses",
          "type": "address[]"
        },
        {
          "internalType": "uint256",
          "name": "_pid",
          "type": "uint256"
        },
        {
          "internalType": "bool",
          "name": "_isCOREStaking",
          "type": "bool"
        },
        {
          "internalType": "bool",
          "name": "_isSameAssetDeposit",
          "type": "bool"
        },
        {
          "internalType": "bool",
          "name": "_isZorroComp",
          "type": "bool"
        },
        {
          "internalType": "address[]",
          "name": "_earnedToZORROPath",
          "type": "address[]"
        },
        {
          "internalType": "address[]",
          "name": "_earnedToToken0Path",
          "type": "address[]"
        },
        {
          "internalType": "address[]",
          "name": "_earnedToToken1Path",
          "type": "address[]"
        },
        {
          "internalType": "address[]",
          "name": "_token0ToEarnedPath",
          "type": "address[]"
        },
        {
          "internalType": "address[]",
          "name": "_token1ToEarnedPath",
          "type": "address[]"
        },
        {
          "internalType": "uint256[]",
          "name": "_fees",
          "type": "uint256[]"
        }
      ],
      "stateMutability": "nonpayable",
      "type": "constructor"
    },
    {
      "anonymous": false,
      "inputs": [
        {
          "indexed": true,
          "internalType": "address",
          "name": "previousOwner",
          "type": "address"
        },
        {
          "indexed": true,
          "internalType": "address",
          "name": "newOwner",
          "type": "address"
        }
      ],
      "name": "OwnershipTransferred",
      "type": "event"
    },
    {
      "anonymous": false,
      "inputs": [
        {
          "indexed": false,
          "internalType": "address",
          "name": "account",
          "type": "address"
        }
      ],
      "name": "Paused",
      "type": "event"
    },
    {
      "anonymous": false,
      "inputs": [
        {
          "indexed": false,
          "internalType": "address",
          "name": "_buyBackAddress",
          "type": "address"
        }
      ],
      "name": "SetBurnAddress",
      "type": "event"
    },
    {
      "anonymous": false,
      "inputs": [
        {
          "indexed": false,
          "internalType": "address",
          "name": "_govAddress",
          "type": "address"
        }
      ],
      "name": "SetGov",
      "type": "event"
    },
    {
      "anonymous": false,
      "inputs": [
        {
          "indexed": false,
          "internalType": "bool",
          "name": "_onlyGov",
          "type": "bool"
        }
      ],
      "name": "SetOnlyGov",
      "type": "event"
    },
    {
      "anonymous": false,
      "inputs": [
        {
          "indexed": false,
          "internalType": "address",
          "name": "_rewardsAddress",
          "type": "address"
        }
      ],
      "name": "SetRewardsAddress",
      "type": "event"
    },
    {
      "anonymous": false,
      "inputs": [
        {
          "indexed": false,
          "internalType": "uint256",
          "name": "_entranceFeeFactor",
          "type": "uint256"
        },
        {
          "indexed": false,
          "internalType": "uint256",
          "name": "_withdrawFeeFactor",
          "type": "uint256"
        },
        {
          "indexed": false,
          "internalType": "uint256",
          "name": "_controllerFee",
          "type": "uint256"
        },
        {
          "indexed": false,
          "internalType": "uint256",
          "name": "_buyBackRate",
          "type": "uint256"
        },
        {
          "indexed": false,
          "internalType": "uint256",
          "name": "_slippageFactor",
          "type": "uint256"
        }
      ],
      "name": "SetSettings",
      "type": "event"
    },
    {
      "anonymous": false,
      "inputs": [
        {
          "indexed": false,
          "internalType": "address",
          "name": "_uniRouterAddress",
          "type": "address"
        }
      ],
      "name": "SetUniRouterAddress",
      "type": "event"
    },
    {
      "anonymous": false,
      "inputs": [
        {
          "indexed": false,
          "internalType": "address",
          "name": "account",
          "type": "address"
        }
      ],
      "name": "Unpaused",
      "type": "event"
    },
    {
      "inputs": [],
      "name": "ZORROAddress",
      "outputs": [
        {
          "internalType": "address",
          "name": "",
          "type": "address"
        }
      ],
      "stateMutability": "view",
      "type": "function"
    },
    {
      "inputs": [],
      "name": "balancerPoolEarnedToTokens",
      "outputs": [
        {
          "internalType": "bytes32",
          "name": "",
          "type": "bytes32"
        }
      ],
      "stateMutability": "view",
      "type": "function"
    },
    {
      "inputs": [],
      "name": "balancerVaultAddress",
      "outputs": [
        {
          "internalType": "address",
          "name": "",
          "type": "address"
        }
      ],
      "stateMutability": "view",
      "type": "function"
    },
    {
      "inputs": [],
      "name": "burnAddress",
      "outputs": [
        {
          "internalType": "address",
          "name": "",
          "type": "address"
        }
      ],
      "stateMutability": "view",
      "type": "function"
    },
    {
      "inputs": [],
      "name": "buyBackRate",
      "outputs": [
        {
          "internalType": "uint256",
          "name": "",
          "type": "uint256"
        }
      ],
      "stateMutability": "view",
      "type": "function"
    },
    {
      "inputs": [],
      "name": "buyBackRateMax",
      "outputs": [
        {
          "internalType": "uint256",
          "name": "",
          "type": "uint256"
        }
      ],
      "stateMutability": "view",
      "type": "function"
    },
    {
      "inputs": [],
      "name": "buyBackRateUL",
      "outputs": [
        {
          "internalType": "uint256",
          "name": "",
          "type": "uint256"
        }
      ],
      "stateMutability": "view",
      "type": "function"
    },
    {
      "inputs": [],
      "name": "controllerFee",
      "outputs": [
        {
          "internalType": "uint256",
          "name": "",
          "type": "uint256"
        }
      ],
      "stateMutability": "view",
      "type": "function"
    },
    {
      "inputs": [],
      "name": "controllerFeeMax",
      "outputs": [
        {
          "internalType": "uint256",
          "name": "",
          "type": "uint256"
        }
      ],
      "stateMutability": "view",
      "type": "function"
    },
    {
      "inputs": [],
      "name": "controllerFeeUL",
      "outputs": [
        {
          "internalType": "uint256",
          "name": "",
          "type": "uint256"
        }
      ],
      "stateMutability": "view",
      "type": "function"
    },
    {
      "inputs": [],
      "name": "convertDustToEarned",
      "outputs": [],
      "stateMutability": "nonpayable",
      "type": "function"
    },
    {
      "inputs": [],
      "name": "earnedAddress",
      "outputs": [
        {
          "internalType": "address",
          "name": "",
          "type": "address"
        }
      ],
      "stateMutability": "view",
      "type": "function"
    },
    {
      "inputs": [
        {
          "internalType": "uint256",
          "name": "",
          "type": "uint256"
        }
      ],
      "name": "earnedToToken0Path",
      "outputs": [
        {
          "internalType": "address",
          "name": "",
          "type": "address"
        }
      ],
      "stateMutability": "view",
      "type": "function"
    },
    {
      "inputs": [
        {
          "internalType": "uint256",
          "name": "",
          "type": "uint256"
        }
      ],
      "name": "earnedToToken1Path",
      "outputs": [
        {
          "internalType": "address",
          "name": "",
          "type": "address"
        }
      ],
      "stateMutability": "view",
      "type": "function"
    },
    {
      "inputs": [
        {
          "internalType": "uint256",
          "name": "",
          "type": "uint256"
        }
      ],
      "name": "earnedToZORLPPoolToken0Path",
      "outputs": [
        {
          "internalType": "address",
          "name": "",
          "type": "address"
        }
      ],
      "stateMutability": "view",
      "type": "function"
    },
    {
      "inputs": [
        {
          "internalType": "uint256",
          "name": "",
          "type": "uint256"
        }
      ],
      "name": "earnedToZORLPPoolToken1Path",
      "outputs": [
        {
          "internalType": "address",
          "name": "",
          "type": "address"
        }
      ],
      "stateMutability": "view",
      "type": "function"
    },
    {
      "inputs": [
        {
          "internalType": "uint256",
          "name": "",
          "type": "uint256"
        }
      ],
      "name": "earnedToZORROPath",
      "outputs": [
        {
          "internalType": "address",
          "name": "",
          "type": "address"
        }
      ],
      "stateMutability": "view",
      "type": "function"
    },
    {
      "inputs": [],
      "name": "entranceFeeFactor",
      "outputs": [
        {
          "internalType": "uint256",
          "name": "",
          "type": "uint256"
        }
      ],
      "stateMutability": "view",
      "type": "function"
    },
    {
      "inputs": [],
      "name": "entranceFeeFactorLL",
      "outputs": [
        {
          "internalType": "uint256",
          "name": "",
          "type": "uint256"
        }
      ],
      "stateMutability": "view",
      "type": "function"
    },
    {
      "inputs": [],
      "name": "entranceFeeFactorMax",
      "outputs": [
        {
          "internalType": "uint256",
          "name": "",
          "type": "uint256"
        }
      ],
      "stateMutability": "view",
      "type": "function"
    },
    {
      "inputs": [],
      "name": "farmContractAddress",
      "outputs": [
        {
          "internalType": "address",
          "name": "",
          "type": "address"
        }
      ],
      "stateMutability": "view",
      "type": "function"
    },
    {
      "inputs": [],
      "name": "govAddress",
      "outputs": [
        {
          "internalType": "address",
          "name": "",
          "type": "address"
        }
      ],
      "stateMutability": "view",
      "type": "function"
    },
    {
      "inputs": [
        {
          "internalType": "address",
          "name": "_token",
          "type": "address"
        },
        {
          "internalType": "uint256",
          "name": "_amount",
          "type": "uint256"
        },
        {
          "internalType": "address",
          "name": "_to",
          "type": "address"
        }
      ],
      "name": "inCaseTokensGetStuck",
      "outputs": [],
      "stateMutability": "nonpayable",
      "type": "function"
    },
    {
      "inputs": [],
      "name": "isCOREStaking",
      "outputs": [
        {
          "internalType": "bool",
          "name": "",
          "type": "bool"
        }
      ],
      "stateMutability": "view",
      "type": "function"
    },
    {
      "inputs": [],
      "name": "isSameAssetDeposit",
      "outputs": [
        {
          "internalType": "bool",
          "name": "",
          "type": "bool"
        }
      ],
      "stateMutability": "view",
      "type": "function"
    },
    {
      "inputs": [],
      "name": "isZorroComp",
      "outputs": [
        {
          "internalType": "bool",
          "name": "",
          "type": "bool"
        }
      ],
      "stateMutability": "view",
      "type": "function"
    },
    {
      "inputs": [],
      "name": "lastEarnBlock",
      "outputs": [
        {
          "internalType": "uint256",
          "name": "",
          "type": "uint256"
        }
      ],
      "stateMutability": "view",
      "type": "function"
    },
    {
      "inputs": [
        {
          "internalType": "uint256",
          "name": "",
          "type": "uint256"
        }
      ],
      "name": "lockedXChainEarningsUSDC",
      "outputs": [
        {
          "internalType": "uint256",
          "name": "",
          "type": "uint256"
        }
      ],
      "stateMutability": "view",
      "type": "function"
    },
    {
      "inputs": [],
      "name": "onlyGov",
      "outputs": [
        {
          "internalType": "bool",
          "name": "",
          "type": "bool"
        }
      ],
      "stateMutability": "view",
      "type": "function"
    },
    {
      "inputs": [],
      "name": "owner",
      "outputs": [
        {
          "internalType": "address",
          "name": "",
          "type": "address"
        }
      ],
      "stateMutability": "view",
      "type": "function"
    },
    {
      "inputs": [],
      "name": "pause",
      "outputs": [],
      "stateMutability": "nonpayable",
      "type": "function"
    },
    {
      "inputs": [],
      "name": "paused",
      "outputs": [
        {
          "internalType": "bool",
          "name": "",
          "type": "bool"
        }
      ],
      "stateMutability": "view",
      "type": "function"
    },
    {
      "inputs": [],
      "name": "pid",
      "outputs": [
        {
          "internalType": "uint256",
          "name": "",
          "type": "uint256"
        }
      ],
      "stateMutability": "view",
      "type": "function"
    },
    {
      "inputs": [],
      "name": "renounceOwnership",
      "outputs": [],
      "stateMutability": "nonpayable",
      "type": "function"
    },
    {
      "inputs": [],
      "name": "revShareRate",
      "outputs": [
        {
          "internalType": "uint256",
          "name": "",
          "type": "uint256"
        }
      ],
      "stateMutability": "view",
      "type": "function"
    },
    {
      "inputs": [],
      "name": "revShareRateMax",
      "outputs": [
        {
          "internalType": "uint256",
          "name": "",
          "type": "uint256"
        }
      ],
      "stateMutability": "view",
      "type": "function"
    },
    {
      "inputs": [],
      "name": "revShareRateUL",
      "outputs": [
        {
          "internalType": "uint256",
          "name": "",
          "type": "uint256"
        }
      ],
      "stateMutability": "view",
      "type": "function"
    },
    {
      "inputs": [],
      "name": "rewardsAddress",
      "outputs": [
        {
          "internalType": "address",
          "name": "",
          "type": "address"
        }
      ],
      "stateMutability": "view",
      "type": "function"
    },
    {
      "inputs": [
        {
          "internalType": "address",
          "name": "_burnAddress",
          "type": "address"
        }
      ],
      "name": "setBurnAddress",
      "outputs": [],
      "stateMutability": "nonpayable",
      "type": "function"
    },
    {
      "inputs": [
        {
          "internalType": "address",
          "name": "_govAddress",
          "type": "address"
        }
      ],
      "name": "setGov",
      "outputs": [],
      "stateMutability": "nonpayable",
      "type": "function"
    },
    {
      "inputs": [
        {
          "internalType": "bool",
          "name": "_onlyGov",
          "type": "bool"
        }
      ],
      "name": "setOnlyGov",
      "outputs": [],
      "stateMutability": "nonpayable",
      "type": "function"
    },
    {
      "inputs": [
        {
          "internalType": "address",
          "name": "_rewardsAddress",
          "type": "address"
        }
      ],
      "name": "setRewardsAddress",
      "outputs": [],
      "stateMutability": "nonpayable",
      "type": "function"
    },
    {
      "inputs": [
        {
          "internalType": "uint256",
          "name": "_entranceFeeFactor",
          "type": "uint256"
        },
        {
          "internalType": "uint256",
          "name": "_withdrawFeeFactor",
          "type": "uint256"
        },
        {
          "internalType": "uint256",
          "name": "_controllerFee",
          "type": "uint256"
        },
        {
          "internalType": "uint256",
          "name": "_buyBackRate",
          "type": "uint256"
        },
        {
          "internalType": "uint256",
          "name": "_slippageFactor",
          "type": "uint256"
        }
      ],
      "name": "setSettings",
      "outputs": [],
      "stateMutability": "nonpayable",
      "type": "function"
    },
    {
      "inputs": [
        {
          "internalType": "address",
          "name": "_uniRouterAddress",
          "type": "address"
        }
      ],
      "name": "setUniRouterAddress",
      "outputs": [],
      "stateMutability": "nonpayable",
      "type": "function"
    },
    {
      "inputs": [],
      "name": "sharesTotal",
      "outputs": [
        {
          "internalType": "uint256",
          "name": "",
          "type": "uint256"
        }
      ],
      "stateMutability": "view",
      "type": "function"
    },
    {
      "inputs": [],
      "name": "slippageFactor",
      "outputs": [
        {
          "internalType": "uint256",
          "name": "",
          "type": "uint256"
        }
      ],
      "stateMutability": "view",
      "type": "function"
    },
    {
      "inputs": [],
      "name": "slippageFactorUL",
      "outputs": [
        {
          "internalType": "uint256",
          "name": "",
          "type": "uint256"
        }
      ],
      "stateMutability": "view",
      "type": "function"
    },
    {
      "inputs": [],
      "name": "token0Address",
      "outputs": [
        {
          "internalType": "address",
          "name": "",
          "type": "address"
        }
      ],
      "stateMutability": "view",
      "type": "function"
    },
    {
      "inputs": [
        {
          "internalType": "uint256",
          "name": "",
          "type": "uint256"
        }
      ],
      "name": "token0ToEarnedPath",
      "outputs": [
        {
          "internalType": "address",
          "name": "",
          "type": "address"
        }
      ],
      "stateMutability": "view",
      "type": "function"
    },
    {
      "inputs": [],
      "name": "token1Address",
      "outputs": [
        {
          "internalType": "address",
          "name": "",
          "type": "address"
        }
      ],
      "stateMutability": "view",
      "type": "function"
    },
    {
      "inputs": [
        {
          "internalType": "uint256",
          "name": "",
          "type": "uint256"
        }
      ],
      "name": "token1ToEarnedPath",
      "outputs": [
        {
          "internalType": "address",
          "name": "",
          "type": "address"
        }
      ],
      "stateMutability": "view",
      "type": "function"
    },
    {
      "inputs": [],
      "name": "token2Address",
      "outputs": [
        {
          "internalType": "address",
          "name": "",
          "type": "address"
        }
      ],
      "stateMutability": "view",
      "type": "function"
    },
    {
      "inputs": [],
      "name": "token3Address",
      "outputs": [
        {
          "internalType": "address",
          "name": "",
          "type": "address"
        }
      ],
      "stateMutability": "view",
      "type": "function"
    },
    {
      "inputs": [],
      "name": "tokenUSDCAddress",
      "outputs": [
        {
          "internalType": "address",
          "name": "",
          "type": "address"
        }
      ],
      "stateMutability": "view",
      "type": "function"
    },
    {
      "inputs": [
        {
          "internalType": "address",
          "name": "newOwner",
          "type": "address"
        }
      ],
      "name": "transferOwnership",
      "outputs": [],
      "stateMutability": "nonpayable",
      "type": "function"
    },
    {
      "inputs": [],
      "name": "uniPoolAddress",
      "outputs": [
        {
          "internalType": "address",
          "name": "",
          "type": "address"
        }
      ],
      "stateMutability": "view",
      "type": "function"
    },
    {
      "inputs": [],
      "name": "uniRouterAddress",
      "outputs": [
        {
          "internalType": "address",
          "name": "",
          "type": "address"
        }
      ],
      "stateMutability": "view",
      "type": "function"
    },
    {
      "inputs": [],
      "name": "unpause",
      "outputs": [],
      "stateMutability": "nonpayable",
      "type": "function"
    },
    {
      "inputs": [
        {
          "internalType": "address",
          "name": "",
          "type": "address"
        }
      ],
      "name": "userShares",
      "outputs": [
        {
          "internalType": "uint256",
          "name": "",
          "type": "uint256"
        }
      ],
      "stateMutability": "view",
      "type": "function"
    },
    {
      "inputs": [],
      "name": "wantAddress",
      "outputs": [
        {
          "internalType": "address",
          "name": "",
          "type": "address"
        }
      ],
      "stateMutability": "view",
      "type": "function"
    },
    {
      "inputs": [],
      "name": "wantLockedTotal",
      "outputs": [
        {
          "internalType": "uint256",
          "name": "",
          "type": "uint256"
        }
      ],
      "stateMutability": "view",
      "type": "function"
    },
    {
      "inputs": [
        {
          "internalType": "address",
          "name": "",
          "type": "address"
        }
      ],
      "name": "wantTokensInHolding",
      "outputs": [
        {
          "internalType": "uint256",
          "name": "",
          "type": "uint256"
        }
      ],
      "stateMutability": "view",
      "type": "function"
    },
    {
      "inputs": [],
      "name": "wbnbAddress",
      "outputs": [
        {
          "internalType": "address",
          "name": "",
          "type": "address"
        }
      ],
      "stateMutability": "view",
      "type": "function"
    },
    {
      "inputs": [],
      "name": "withdrawFeeFactor",
      "outputs": [
        {
          "internalType": "uint256",
          "name": "",
          "type": "uint256"
        }
      ],
      "stateMutability": "view",
      "type": "function"
    },
    {
      "inputs": [],
      "name": "withdrawFeeFactorLL",
      "outputs": [
        {
          "internalType": "uint256",
          "name": "",
          "type": "uint256"
        }
      ],
      "stateMutability": "view",
      "type": "function"
    },
    {
      "inputs": [],
      "name": "withdrawFeeFactorMax",
      "outputs": [
        {
          "internalType": "uint256",
          "name": "",
          "type": "uint256"
        }
      ],
      "stateMutability": "view",
      "type": "function"
    },
    {
      "inputs": [],
      "name": "wrapBNB",
      "outputs": [],
      "stateMutability": "nonpayable",
      "type": "function"
    },
    {
      "inputs": [],
      "name": "xChainEarningsLockEndBlock",
      "outputs": [
        {
          "internalType": "uint256",
          "name": "",
          "type": "uint256"
        }
      ],
      "stateMutability": "view",
      "type": "function"
    },
    {
      "inputs": [],
      "name": "xChainEarningsLockStartBlock",
      "outputs": [
        {
          "internalType": "uint256",
          "name": "",
          "type": "uint256"
        }
      ],
      "stateMutability": "view",
      "type": "function"
    },
    {
      "inputs": [],
      "name": "zorroControllerAddress",
      "outputs": [
        {
          "internalType": "address",
          "name": "",
          "type": "address"
        }
      ],
      "stateMutability": "view",
      "type": "function"
    },
    {
      "inputs": [
        {
          "internalType": "address",
          "name": "_balancerVaultAddress",
          "type": "address"
        }
      ],
      "name": "setBalancerVaultAddress",
      "outputs": [],
      "stateMutability": "nonpayable",
      "type": "function"
    },
    {
      "inputs": [
        {
          "internalType": "bytes32",
          "name": "_balancerPoolEarnedToToken",
          "type": "bytes32"
        }
      ],
      "name": "setBalancerPoolEarnedToTokens",
      "outputs": [],
      "stateMutability": "nonpayable",
      "type": "function"
    },
    {
      "inputs": [
        {
          "internalType": "uint256",
          "name": "_balancerPoolEarnedWeightBasisPoints",
          "type": "uint256"
        }
      ],
      "name": "setBalancerPoolEarnedWeightBasisPoints",
      "outputs": [],
      "stateMutability": "nonpayable",
      "type": "function"
    },
    {
      "inputs": [
        {
          "internalType": "uint256",
          "name": "_balancerPoolToken0WeightBasisPoints",
          "type": "uint256"
        }
      ],
      "name": "setBalancerPoolToken0WeightBasisPoints",
      "outputs": [],
      "stateMutability": "nonpayable",
      "type": "function"
    },
    {
      "inputs": [
        {
          "internalType": "address",
          "name": "_account",
          "type": "address"
        },
        {
          "internalType": "uint256",
          "name": "_wantAmt",
          "type": "uint256"
        }
      ],
      "name": "depositWantToken",
      "outputs": [
        {
          "internalType": "uint256",
          "name": "",
          "type": "uint256"
        }
      ],
      "stateMutability": "nonpayable",
      "type": "function"
    },
    {
      "inputs": [
        {
          "internalType": "address",
          "name": "_account",
          "type": "address"
        },
        {
          "internalType": "uint256",
          "name": "_amount",
          "type": "uint256"
        },
        {
          "internalType": "uint256",
          "name": "_maxMarketMovementAllowed",
          "type": "uint256"
        }
      ],
      "name": "exchangeUSDForWantToken",
      "outputs": [
        {
          "internalType": "uint256",
          "name": "",
          "type": "uint256"
        }
      ],
      "stateMutability": "nonpayable",
      "type": "function"
    },
    {
      "inputs": [],
      "name": "farm",
      "outputs": [],
      "stateMutability": "nonpayable",
      "type": "function"
    },
    {
      "inputs": [
        {
          "internalType": "address",
          "name": "_account",
          "type": "address"
        },
        {
          "internalType": "bool",
          "name": "_harvestOnly",
          "type": "bool"
        }
      ],
      "name": "withdrawWantToken",
      "outputs": [
        {
          "internalType": "uint256",
          "name": "",
          "type": "uint256"
        }
      ],
      "stateMutability": "nonpayable",
      "type": "function"
    },
    {
      "inputs": [
        {
          "internalType": "address",
          "name": "_account",
          "type": "address"
        },
        {
          "internalType": "uint256",
          "name": "_amount",
          "type": "uint256"
        },
        {
          "internalType": "uint256",
          "name": "_maxMarketMovementAllowed",
          "type": "uint256"
        }
      ],
      "name": "exchangeWantTokenForUSD",
      "outputs": [
        {
          "internalType": "uint256",
          "name": "",
          "type": "uint256"
        }
      ],
      "stateMutability": "nonpayable",
      "type": "function"
    },
    {
      "inputs": [
        {
          "internalType": "uint256",
          "name": "_maxMarketMovementAllowed",
          "type": "uint256"
        }
      ],
      "name": "earn",
      "outputs": [],
      "stateMutability": "nonpayable",
      "type": "function"
    }
  ],
  "bytecode": "0x60806040526010805460a060020a60ff0219167401000000000000000000000000000000000000000017905560006011819055601281905560138190556014819055601581905560165560178054600160a060020a031990811661dead17909155612706601955612710601a556103b6601b556028805490911673a82f327bbbf0667356d2935c6532d164b06ceced1790557f894ed9026de37afd9cce1e6c0be7d6b510e3ffe5000100000000000000000001602955610fa0602a55610bb8602b55348015620000ce57600080fd5b5060405162003e0338038062003e03833981016040819052620000f19162000979565b6200011762000108640100000000620005bd810204565b640100000000620005c1810204565b600180556002805460ff191690558a518b906000906200013b576200013b62000b10565b6020026020010151600d60006101000a815481600160a060020a030219169083600160a060020a031602179055508a6001815181106200017f576200017f62000b10565b6020026020010151601060006101000a815481600160a060020a030219169083600160a060020a031602179055508a600281518110620001c357620001c362000b10565b6020026020010151600e60006101000a815481600160a060020a030219169083600160a060020a031602179055508a60038151811062000207576200020762000b10565b6020026020010151600f60006101000a815481600160a060020a030219169083600160a060020a031602179055508a6004815181106200024b576200024b62000b10565b6020026020010151600460006101000a815481600160a060020a030219169083600160a060020a031602179055508a6005815181106200028f576200028f62000b10565b6020026020010151600560006101000a815481600160a060020a030219169083600160a060020a031602179055508a600681518110620002d357620002d362000b10565b6020026020010151600660006101000a815481600160a060020a030219169083600160a060020a031602179055508a60078151811062000317576200031762000b10565b6020026020010151600960006101000a815481600160a060020a030219169083600160a060020a031602179055508a6008815181106200035b576200035b62000b10565b60209081029190910101516002805460038d905563ffff010060c060020a031916640100000000600160a060020a039093169290920261ff001916919091176101008b1515021763ffff00001916620100008a15150263ff0000001916176301000000891515021790558a518b906009908110620003dd57620003dd62000b10565b602090810291909101810151600b8054600160a060020a031916600160a060020a0390921691909117905586516200041c91601c919089019062000774565b5084516200043290601d90602088019062000774565b5083516200044890601e90602087019062000774565b5082516200045e90601f90602086019062000774565b50815162000473906020908185019062000774565b50806000815181106200048a576200048a62000b10565b60200260200101516014819055508a600a81518110620004ae57620004ae62000b10565b6020026020010151601860006101000a815481600160a060020a030219169083600160a060020a0316021790555080600181518110620004f257620004f262000b10565b60200260200101516015819055508a600b8151811062000516576200051662000b10565b6020026020010151601760006101000a815481600160a060020a030219169083600160a060020a03160217905550806002815181106200055a576200055a62000b10565b6020026020010151601981905550806003815181106200057e576200057e62000b10565b6020908102919091010151601a55600e54620005ac90600160a060020a031664010000000062000611810204565b505050505050505050505062000b3f565b3390565b60008054600160a060020a03838116600160a060020a0319831681178455604051919092169283917f8be0079c531659141344cd1fd0a4f28419497f9722a3daafe3b4186f6b6457e09190a35050565b62000624640100000000620005bd810204565b600160a060020a03166200064064010000000062000765810204565b600160a060020a031614620006b6576040517f08c379a000000000000000000000000000000000000000000000000000000000815260206004820181905260248201527f4f776e61626c653a2063616c6c6572206973206e6f7420746865206f776e657260448201526064015b60405180910390fd5b600160a060020a0381166200074e576040517f08c379a000000000000000000000000000000000000000000000000000000000815260206004820152602660248201527f4f776e61626c653a206e6577206f776e657220697320746865207a65726f206160448201527f64647265737300000000000000000000000000000000000000000000000000006064820152608401620006ad565b6200076281640100000000620005c1810204565b50565b600054600160a060020a031690565b828054828255906000526020600020908101928215620007cc579160200282015b82811115620007cc5782518254600160a060020a031916600160a060020a0390911617825560209092019160019091019062000795565b50620007da929150620007de565b5090565b5b80821115620007da5760008155600101620007df565b7f4e487b7100000000000000000000000000000000000000000000000000000000600052604160045260246000fd5b604051601f8201601f191681016001604060020a03811182821017156200084f576200084f620007f5565b604052919050565b60006001604060020a03821115620008735762000873620007f5565b5060209081020190565b600082601f8301126200088f57600080fd5b81516020620008a8620008a28362000857565b62000824565b82815291810284018101918181019086841115620008c557600080fd5b8286015b84811015620008f9578051600160a060020a0381168114620008eb5760008081fd5b8352918301918301620008c9565b509695505050505050565b805180151581146200091557600080fd5b919050565b600082601f8301126200092c57600080fd5b815160206200093f620008a28362000857565b828152918102840181019181810190868411156200095c57600080fd5b8286015b84811015620008f9578051835291830191830162000960565b60008060008060008060008060008060006101608c8e0312156200099c57600080fd5b8b516001604060020a03811115620009b357600080fd5b620009c18e828f016200087d565b9b505060208c01519950620009d960408d0162000904565b9850620009e960608d0162000904565b9750620009f960808d0162000904565b965060a08c01516001604060020a0381111562000a1557600080fd5b62000a238e828f016200087d565b96505060c08c01516001604060020a0381111562000a4057600080fd5b62000a4e8e828f016200087d565b95505060e08c01516001604060020a0381111562000a6b57600080fd5b62000a798e828f016200087d565b9450506101008c01516001604060020a0381111562000a9757600080fd5b62000aa58e828f016200087d565b9350506101208c01516001604060020a0381111562000ac357600080fd5b62000ad18e828f016200087d565b9250506101408c01516001604060020a0381111562000aef57600080fd5b62000afd8e828f016200091a565b9150509295989b509295989b9093969950565b7f4e487b7100000000000000000000000000000000000000000000000000000000600052603260045260246000fd5b6132b48062000b4f6000396000f3fe608060405234801561001057600080fd5b50600436106104835760003560e060020a900480638456cb591161025b578063c11c2e921161014a578063e65a0117116100c7578063efa028081161008b578063efa028081461093e578063f106845414610950578063f2fde38b14610959578063f5046a291461096c578063ffbd3b1f1461097f57600080fd5b8063e65a0117146108f2578063e719847414610905578063e7a0367914610918578063ec69ae1c1461092b578063ee50dc34146105a957600080fd5b8063d5b091631161010e578063d5b0916314610884578063d7cb416f1461088c578063de69b3aa1461089f578063de82204d146108bf578063e5eb715c146108df57600080fd5b8063c11c2e9214610843578063c302a4d014610730578063c4dcb5901461084b578063c8e3d18b1461085e578063cfad57a21461087157600080fd5b80639b6017e5116101d8578063b3545c011161019c578063b3545c011461058d578063b74cd24214610801578063b77050e71461080a578063ba0bb4ab1461081d578063c0973eed1461083057600080fd5b80639b6017e5146107aa5780639fc33a9f146107b3578063a8fcbf22146107ce578063b1414dbb146107d7578063b228ab0b146107ea57600080fd5b80638b9102dc1161021f5780638b9102dc1461074c5780638da5cb5b1461076057806396e9aff814610771578063986eb8f5146107845780639a2466431461079757600080fd5b80638456cb591461070c57806384fa32ac1461071457806385f02dd614610727578063866b2018146107305780638906758d1461073957600080fd5b806346008a071161037757806367057b6c116102f457806370d5ae05116102b857806370d5ae05146106b857806370e842a1146106cb578063715018a6146106de5780637ff36fbe146106e657806381e62ea3146106f957600080fd5b806367057b6c146105a957806367206d401461067657806368f5416214610689578063693a090b146106925780636a91ba85146106a557600080fd5b80634d9f7bb21161033b5780634d9f7bb2146105a95780635c975abb146106325780635da79d631461063d5780636392ab121461065057806363fe3e3a1461066357600080fd5b806346008a07146105dd578063495af8ce146105f05780634b0e7216146106035780634c8fc2d6146106165780634ce54ddb1461061f57600080fd5b80631f1d7f8e1161040557806336e9332d116103c957806336e9332d146105bb5780633f4ba83a146105c357806342da4eb3146105cb57806343788cd2146105a957806344a3955e146105d457600080fd5b80631f1d7f8e1461057a578063211019d71461058d5780632456af82146105965780632717eff3146105a95780633214471f146105b257600080fd5b80630daef3211161044c5780630daef321146105175780630fa4e01e1461054c57806312462c5e146105555780631334903f14610568578063178a8d071461057157600080fd5b80627a2ae314610488578063061c7d48146104b857806308202236146104cf5780630873cb91146104e45780630b6bb30b14610504575b600080fd5b61049b610496366004612c08565b610988565b604051600160a060020a0390911681526020015b60405180910390f35b6104c161012c81565b6040519081526020016104af565b6104e26104dd366004612c08565b6109b2565b005b6104c16104f2366004612c08565b60276020526000908152604090205481565b6104e2610512366004612c2f565b6109ed565b60105461053c9074010000000000000000000000000000000000000000900460ff1681565b60405190151581526020016104af565b6104c160115481565b60085461049b90600160a060020a031681565b6104c160195481565b6104c160155481565b6104e2610588366004612c08565b610a94565b6104c161032081565b60075461049b90600160a060020a031681565b6104c161271081565b6104c160165481565b6104e2610ac6565b6104e2610aff565b6104c160125481565b6104c160135481565b60105461049b90600160a060020a031681565b6104c16105fe366004612c61565b610b36565b6104e2610611366004612c9a565b610de0565b6104c160265481565b600a5461049b90600160a060020a031681565b60025460ff1661053c565b6104e261064b366004612c9a565b610e68565b61049b61065e366004612c08565b610ef0565b600d5461049b90600160a060020a031681565b6104e2610684366004612cb7565b610f00565b6104c1601a5481565b600b5461049b90600160a060020a031681565b6104e26106b3366004612c08565b611008565b60175461049b90600160a060020a031681565b60285461049b90600160a060020a031681565b6104e261103a565b60055461049b90600160a060020a031681565b61049b610707366004612c08565b611071565b6104e2611081565b6104e2610722366004612cf9565b6110b6565b6104c160145481565b6104c16126ac81565b6104e2610747366004612c9a565b6113a5565b60025461053c906301000000900460ff1681565b600054600160a060020a031661049b565b61049b61077f366004612c08565b61142d565b6104c1610792366004612d34565b61143d565b60025461053c9062010000900460ff1681565b6104c160255481565b60025461049b906401000000009004600160a060020a031681565b6104c160295481565b600e5461049b90600160a060020a031681565b6104c16107f8366004612d34565b60009392505050565b6104c16103e381565b61049b610818366004612c08565b611460565b6104c161082b366004612d69565b611470565b60185461049b90600160a060020a031681565b6104e2611663565b600c5461049b90600160a060020a031681565b61049b61086c366004612c08565b6119a8565b6104e261087f366004612c9a565b6119b8565b6104e2611a40565b60065461049b90600160a060020a031681565b6104c16108ad366004612c9a565b60246020526000908152604090205481565b6104c16108cd366004612c9a565b60236020526000908152604090205481565b61049b6108ed366004612c08565b611a75565b6104e2610900366004612c08565b611a85565b60095461049b90600160a060020a031681565b60045461049b90600160a060020a031681565b6104e2610939366004612c9a565b611dd8565b60025461053c90610100900460ff1681565b6104c160035481565b6104e2610967366004612c9a565b611e34565b600f5461049b90600160a060020a031681565b6104c1601b5481565b6020818154811061099857600080fd5b600091825260209091200154600160a060020a0316905081565b600054600160a060020a031633146109e85760405160e560020a62461bcd0281526004016109df90612d95565b60405180910390fd5b602a55565b601054600160a060020a03163314610a1a5760405160e560020a62461bcd0281526004016109df90612dca565b60108054821515740100000000000000000000000000000000000000000274ff0000000000000000000000000000000000000000199091161790556040517f125177ac7b8930dac1e59c2b30b1b6b9191b30af40cf6bbb5d20fec4d44be60f90610a8990831515815260200190565b60405180910390a150565b600054600160a060020a03163314610ac15760405160e560020a62461bcd0281526004016109df90612d95565b602b55565b60026001541415610aec5760405160e560020a62461bcd0281526004016109df90612e01565b6002600155610af9611eec565b60018055565b601054600160a060020a03163314610b2c5760405160e560020a62461bcd0281526004016109df90612dca565b610b34612058565b565b60008054600160a060020a03163314610b645760405160e560020a62461bcd0281526004016109df90612d95565b60026001541415610b8a5760405160e560020a62461bcd0281526004016109df90612e01565b6002600155600082610c3c57600160a060020a038481166000908152602460208190526040918290205460135460048054945160e060020a6370a0823102815230918101919091529194610c38949193610c32938793909216916370a082319101602060405180830381865afa158015610c08573d6000803e3d6000fd5b505050506040513d601f19601f82011682018060405250810190610c2c9190612e38565b906120f7565b90612103565b9150505b6000610c59601254610c32601354856120f790919063ffffffff16565b9050601354811115610c6a57506013545b601354610c77908261210f565b601355600160a060020a038516600090815260246020526040902054610c9d908261210f565b600160a060020a038616600090815260246020526040902055601a546127101115610ce057610cdd612710610c32601a54856120f790919063ffffffff16565b91505b6002546301000000900460ff1615610cfb57610cfb8261211b565b6004805460405160e060020a6370a082310281523092810192909252600091600160a060020a03909116906370a0823190602401602060405180830381865afa158015610d4c573d6000803e3d6000fd5b505050506040513d601f19601f82011682018060405250810190610d709190612e38565b905080831115610d7e578092505b826012541015610d8e5760125492505b601254610d9b908461210f565b601255600e54600454610dbb91600160a060020a0391821691168561217c565b50600160a060020a039490941660009081526023602052604090205550506001805590565b601054600160a060020a03163314610e0d5760405160e560020a62461bcd0281526004016109df90612dca565b6017805473ffffffffffffffffffffffffffffffffffffffff1916600160a060020a0383169081179091556040519081527f3ecbf062376d993d334e6f24b395e87d817f07f4d122b5ab84cef6367ad60cf390602001610a89565b601054600160a060020a03163314610e955760405160e560020a62461bcd0281526004016109df90612dca565b600b805473ffffffffffffffffffffffffffffffffffffffff1916600160a060020a0383169081179091556040519081527f384f1dcb79da4071839c471d7c81884a43fb946a527f3661fdee5904adc8f65790602001610a89565b601c818154811061099857600080fd5b601054600160a060020a03163314610f2d5760405160e560020a62461bcd0281526004016109df90612dca565b600954600160a060020a0384811691161415610f8e5760405160e560020a62461bcd02815260206004820152600560248201527f217361666500000000000000000000000000000000000000000000000000000060448201526064016109df565b600454600160a060020a0384811691161415610fef5760405160e560020a62461bcd02815260206004820152600560248201527f217361666500000000000000000000000000000000000000000000000000000060448201526064016109df565b611003600160a060020a038416828461217c565b505050565b600054600160a060020a031633146110355760405160e560020a62461bcd0281526004016109df90612d95565b602955565b600054600160a060020a031633146110675760405160e560020a62461bcd0281526004016109df90612d95565b610b346000612225565b6022818154811061099857600080fd5b601054600160a060020a031633146110ae5760405160e560020a62461bcd0281526004016109df90612dca565b610b34612282565b601054600160a060020a031633146110e35760405160e560020a62461bcd0281526004016109df90612dca565b6126ac8510156111385760405160e560020a62461bcd02815260206004820152601a60248201527f5f656e7472616e6365466565466163746f7220746f6f206c6f7700000000000060448201526064016109df565b61271085111561118d5760405160e560020a62461bcd02815260206004820152601b60248201527f5f656e7472616e6365466565466163746f7220746f6f2068696768000000000060448201526064016109df565b60198590556126ac8410156111e75760405160e560020a62461bcd02815260206004820152601a60248201527f5f7769746864726177466565466163746f7220746f6f206c6f7700000000000060448201526064016109df565b61271084111561123c5760405160e560020a62461bcd02815260206004820152601b60248201527f5f7769746864726177466565466163746f7220746f6f2068696768000000000060448201526064016109df565b601a84905561012c8311156112965760405160e560020a62461bcd02815260206004820152601760248201527f5f636f6e74726f6c6c657246656520746f6f206869676800000000000000000060448201526064016109df565b60148390556103208211156112f05760405160e560020a62461bcd02815260206004820152601560248201527f5f6275794261636b5261746520746f6f2068696768000000000000000000000060448201526064016109df565b60158290556103e381111561134a5760405160e560020a62461bcd02815260206004820152601860248201527f5f736c697070616765466163746f7220746f6f2068696768000000000000000060448201526064016109df565b601b819055604080518681526020810186905290810184905260608101839052608081018290527fc67e0b149a57a70fa44a531a46c2c6d8e0b242fa12f459f250012c3a5987d29a9060a00160405180910390a15050505050565b601054600160a060020a031633146113d25760405160e560020a62461bcd0281526004016109df90612dca565b6018805473ffffffffffffffffffffffffffffffffffffffff1916600160a060020a0383169081179091556040519081527fa69f1931be99336e049905baa11d21ed44204d7686e46b4344404d80d47c298890602001610a89565b601e818154811061099857600080fd5b600160a060020a03831660009081526023602052604081208190555b9392505050565b601f818154811061099857600080fd5b60008054600160a060020a0316331461149e5760405160e560020a62461bcd0281526004016109df90612d95565b600260015414156114c45760405160e560020a62461bcd0281526004016109df90612e01565b60026001556114d560025460ff1690565b156114f55760405160e560020a62461bcd0281526004016109df90612e51565b600160a060020a0383166000908152602360205260409020548211156115865760405160e560020a62461bcd02815260206004820152602c60248201527f457863656564732057616e7420746f6b656e7320696e20686f6c64696e67206660448201527f6f7220746869732075736572000000000000000000000000000000000000000060648201526084016109df565b60125482901580159061159b57506000601354115b156115ca576115c7612710610c32601254610c32601954610c2c6013548a6120f790919063ffffffff16565b90505b6013546115d790826122dd565b601355600160a060020a0384166000908152602460205260409020546115fd90826122dd565b600160a060020a0385166000908152602460205260409020556002546301000000900460ff161561163557611630611eec565b611646565b60125461164290846122dd565b6012555b600160a060020a0393909316600052505060236020526001805590565b60025460ff16156116895760405160e560020a62461bcd0281526004016109df90612e51565b6002546301000000900460ff166116b55760405160e560020a62461bcd0281526004016109df90612e88565b600254610100900460ff16156117105760405160e560020a62461bcd02815260206004820152600d60248201527f6973434f52455374616b696e670000000000000000000000000000000000000060448201526064016109df565b60055460405160e060020a6370a08231028152306004820152600091600160a060020a0316906370a0823190602401602060405180830381865afa15801561175c573d6000803e3d6000fd5b505050506040513d601f19601f820116820180604052508101906117809190612e38565b600954600554919250600160a060020a039182169116148015906117a45750600081115b1561185a57600b546005546117c691600160a060020a039182169116836122e9565b600b54601b5473__SafeSwapUni___________________________9163709128be91600160a060020a03909116908490601f30611805426102586122dd565b6040518763ffffffff1660e060020a02815260040161182996959493929190612ebf565b60006040518083038186803b15801561184157600080fd5b505af4158015611855573d6000803e3d6000fd5b505050505b60065460405160e060020a6370a08231028152306004820152600091600160a060020a0316906370a0823190602401602060405180830381865afa1580156118a6573d6000803e3d6000fd5b505050506040513d601f19601f820116820180604052508101906118ca9190612e38565b600954600654919250600160a060020a039182169116148015906118ee5750600081115b156119a457600b5460065461191091600160a060020a039182169116836122e9565b600b54601b5473__SafeSwapUni___________________________9163709128be91600160a060020a0390911690849060203061194f426102586122dd565b6040518763ffffffff1660e060020a02815260040161197396959493929190612ebf565b60006040518083038186803b15801561198b57600080fd5b505af415801561199f573d6000803e3d6000fd5b505050505b5050565b601d818154811061099857600080fd5b601054600160a060020a031633146119e55760405160e560020a62461bcd0281526004016109df90612dca565b6010805473ffffffffffffffffffffffffffffffffffffffff1916600160a060020a0383169081179091556040519081527f91a8c1cc2d4a3bb60738481947a00cbb9899c822916694cf8bb1d68172fdcd5490602001610a89565b601054600160a060020a03163314611a6d5760405160e560020a62461bcd0281526004016109df90612dca565b610b346123d3565b6021818154811061099857600080fd5b60026001541415611aab5760405160e560020a62461bcd0281526004016109df90612e01565b6002600155611abc60025460ff1690565b15611adc5760405160e560020a62461bcd0281526004016109df90612e51565b6002546301000000900460ff16611b085760405160e560020a62461bcd0281526004016109df90612e88565b60105474010000000000000000000000000000000000000000900460ff1615611b5857601054600160a060020a03163314611b585760405160e560020a62461bcd0281526004016109df90612dca565b611b62600061211b565b600d54600954600160a060020a0390811691161415611b8357611b836123d3565b60095460405160e060020a6370a08231028152306004820152600091600160a060020a0316906370a0823190602401602060405180830381865afa158015611bcf573d6000803e3d6000fd5b505050506040513d601f19601f82011682018060405250810190611bf39190612e38565b9050611bfe81612442565b9050611c09816124a1565b600254909150610100900460ff1680611c2a575060025462010000900460ff165b15611c415743601155611c3b611eec565b50611dd1565b602854600954611c5f91600160a060020a0391821691166000612586565b602854600954611c7c91600160a060020a039182169116836122e9565b600554600954600160a060020a03908116911614611cb757600954600554601b54611cb7928492600160a060020a03918216929116906126d7565b60055460405160e060020a6370a08231028152306004820152600091600160a060020a0316906370a0823190602401602060405180830381865afa158015611d03573d6000803e3d6000fd5b505050506040513d601f19601f82011682018060405250810190611d279190612e38565b90508015611dc257600454600554611d4c91600160a060020a039182169116836122e9565b600480546040517fb6b55f25000000000000000000000000000000000000000000000000000000008152918201839052600160a060020a03169063b6b55f2590602401600060405180830381600087803b158015611da957600080fd5b505af1158015611dbd573d6000803e3d6000fd5b505050505b43601155611dce611eec565b50505b5060018055565b600054600160a060020a03163314611e055760405160e560020a62461bcd0281526004016109df90612d95565b6028805473ffffffffffffffffffffffffffffffffffffffff1916600160a060020a0392909216919091179055565b600054600160a060020a03163314611e615760405160e560020a62461bcd0281526004016109df90612d95565b600160a060020a038116611ee05760405160e560020a62461bcd02815260206004820152602660248201527f4f776e61626c653a206e6577206f776e657220697320746865207a65726f206160448201527f646472657373000000000000000000000000000000000000000000000000000060648201526084016109df565b611ee981612225565b50565b6002546301000000900460ff16611f185760405160e560020a62461bcd0281526004016109df90612e88565b6004805460405160e060020a6370a082310281523092810192909252600091600160a060020a03909116906370a0823190602401602060405180830381865afa158015611f69573d6000803e3d6000fd5b505050506040513d601f19601f82011682018060405250810190611f8d9190612e38565b601254909150611f9d90826122dd565b601255600254600454611fc691600160a060020a039182169164010000000090910416836122e9565b600254600480546040517f47e7ef24000000000000000000000000000000000000000000000000000000008152600160a060020a039182169281019290925260248201849052640100000000909204909116906347e7ef24906044015b600060405180830381600087803b15801561203d57600080fd5b505af1158015612051573d6000803e3d6000fd5b5050505050565b60025460ff166120ad5760405160e560020a62461bcd02815260206004820152601460248201527f5061757361626c653a206e6f742070617573656400000000000000000000000060448201526064016109df565b6002805460ff191690557f5db9ee0a495bf2e6ff9c91a7834c1ba4fdd244a5e8aa4e537bd38aeae4b073aa335b604051600160a060020a03909116815260200160405180910390a1565b60006114598284612f66565b60006114598284612f85565b60006114598284612fc0565b600254600480546040517ff3fef3a3000000000000000000000000000000000000000000000000000000008152600160a060020a0391821692810192909252602482018490526401000000009092049091169063f3fef3a390604401612023565b604051600160a060020a0383166024820152604481018290526110039084907fa9059cbb00000000000000000000000000000000000000000000000000000000906064015b60408051601f198184030181529190526020810180517bffffffffffffffffffffffffffffffffffffffffffffffffffffffff167fffffffff000000000000000000000000000000000000000000000000000000009093169290921790915261281b565b60008054600160a060020a0383811673ffffffffffffffffffffffffffffffffffffffff19831681178455604051919092169283917f8be0079c531659141344cd1fd0a4f28419497f9722a3daafe3b4186f6b6457e09190a35050565b60025460ff16156122a85760405160e560020a62461bcd0281526004016109df90612e51565b6002805460ff191660011790557f62e78cea01bee320cd4e420270b5ea74000d11b0c9f74754ebdbfc544b05a2586120da3390565b60006114598284612fd7565b6040517fdd62ed3e000000000000000000000000000000000000000000000000000000008152306004820152600160a060020a038381166024830152600091839186169063dd62ed3e90604401602060405180830381865afa158015612353573d6000803e3d6000fd5b505050506040513d601f19601f820116820180604052508101906123779190612e38565b6123819190612fd7565b604051600160a060020a0385166024820152604481018290529091506123cd9085907f095ea7b300000000000000000000000000000000000000000000000000000000906064016121c1565b50505050565b30318015611ee957600d60009054906101000a9004600160a060020a0316600160a060020a031663d0e30db0826040518263ffffffff1660e060020a0281526004016000604051808303818588803b15801561242e57600080fd5b505af115801561199f573d6000803e3d6000fd5b6000811561249d576014541561249d57600061246f612710610c32601454866120f790919063ffffffff16565b60185460095491925061248f91600160a060020a0390811691168361217c565b612499838261210f565b9250505b5090565b6015546000908190156124cc576124c9612710610c32601554866120f790919063ffffffff16565b90505b6000600e546003546009546040517f270d9de4000000000000000000000000000000000000000000000000000000008152600160a060020a0393841693849363270d9de49361252e939192169088908890601c90602190602290600401613038565b600060405180830381600087803b15801561254857600080fd5b505af115801561255c573d6000803e3d6000fd5b5050505061257d82612577858861210f90919063ffffffff16565b9061210f565b95945050505050565b80158061261957506040517fdd62ed3e000000000000000000000000000000000000000000000000000000008152306004820152600160a060020a03838116602483015284169063dd62ed3e90604401602060405180830381865afa1580156125f3573d6000803e3d6000fd5b505050506040513d601f19601f820116820180604052508101906126179190612e38565b155b61268e5760405160e560020a62461bcd02815260206004820152603660248201527f5361666545524332303a20617070726f76652066726f6d206e6f6e2d7a65726f60448201527f20746f206e6f6e2d7a65726f20616c6c6f77616e63650000000000000000000060648201526084016109df565b604051600160a060020a0383166024820152604481018290526110039084907f095ea7b300000000000000000000000000000000000000000000000000000000906064016121c1565b6028546000906126ff906103e890610c32908590610c2c90600160a060020a0316888a612903565b6028546040805160c081019091526029548152919250600160a060020a0316906352bbbe2990602081016000815260200187600160a060020a0316815260200186600160a060020a0316815260200188815260200160405180602001604052806000815250815250604051806080016040528030600160a060020a0316815260200160001515815260200130600160a060020a0316815260200160001515815250846127b6610258426122dd90919063ffffffff16565b6040518563ffffffff1660e060020a0281526004016127d894939291906130f8565b6020604051808303816000875af11580156127f7573d6000803e3d6000fd5b505050506040513d601f19601f8201168201806040525081019061199f9190612e38565b6000612870826040518060400160405280602081526020017f5361666545524332303a206c6f772d6c6576656c2063616c6c206661696c656481525085600160a060020a0316612a669092919063ffffffff16565b805190915015611003578080602001905181019061288e91906131f1565b6110035760405160e560020a62461bcd02815260206004820152602a60248201527f5361666545524332303a204552433230206f7065726174696f6e20646964206e60448201527f6f7420737563636565640000000000000000000000000000000000000000000060648201526084016109df565b6029546040517fb05f8e480000000000000000000000000000000000000000000000000000000081526004810191909152600160a060020a038281166024830152600091829186169063b05f8e48906044016080604051808303816000875af1158015612974573d6000803e3d6000fd5b505050506040513d601f19601f82011682018060405250810190612998919061320e565b50506029546040517fb05f8e480000000000000000000000000000000000000000000000000000000081526004810191909152600160a060020a0387811660248301529293506000928816915063b05f8e48906044016080604051808303816000875af1158015612a0d573d6000803e3d6000fd5b505050506040513d601f19601f82011682018060405250810190612a31919061320e565b5050509050612a5c612a4e602a548461210390919063ffffffff16565b602b54610c32908490612103565b9695505050505050565b6060612a758484600085612a7d565b949350505050565b60603031831115612af95760405160e560020a62461bcd02815260206004820152602660248201527f416464726573733a20696e73756666696369656e742062616c616e636520666f60448201527f722063616c6c000000000000000000000000000000000000000000000000000060648201526084016109df565b600160a060020a0385163b612b535760405160e560020a62461bcd02815260206004820152601d60248201527f416464726573733a2063616c6c20746f206e6f6e2d636f6e747261637400000060448201526064016109df565b60008086600160a060020a03168587604051612b6f919061324f565b60006040518083038185875af1925050503d8060008114612bac576040519150601f19603f3d011682016040523d82523d6000602084013e612bb1565b606091505b5091509150612bc1828286612bcc565b979650505050505050565b60608315612bdb575081611459565b825115612beb5782518084602001fd5b8160405160e560020a62461bcd0281526004016109df919061326b565b600060208284031215612c1a57600080fd5b5035919050565b8015158114611ee957600080fd5b600060208284031215612c4157600080fd5b813561145981612c21565b600160a060020a0381168114611ee957600080fd5b60008060408385031215612c7457600080fd5b8235612c7f81612c4c565b91506020830135612c8f81612c21565b809150509250929050565b600060208284031215612cac57600080fd5b813561145981612c4c565b600080600060608486031215612ccc57600080fd5b8335612cd781612c4c565b9250602084013591506040840135612cee81612c4c565b809150509250925092565b600080600080600060a08688031215612d1157600080fd5b505083359560208501359550604085013594606081013594506080013592509050565b600080600060608486031215612d4957600080fd5b8335612d5481612c4c565b95602085013595506040909401359392505050565b60008060408385031215612d7c57600080fd5b8235612d8781612c4c565b946020939093013593505050565b6020808252818101527f4f776e61626c653a2063616c6c6572206973206e6f7420746865206f776e6572604082015260600190565b60208082526004908201527f21676f7600000000000000000000000000000000000000000000000000000000604082015260600190565b6020808252601f908201527f5265656e7472616e637947756172643a207265656e7472616e742063616c6c00604082015260600190565b600060208284031215612e4a57600080fd5b5051919050565b60208082526010908201527f5061757361626c653a2070617573656400000000000000000000000000000000604082015260600190565b6020808252600c908201527f2169735a6f72726f436f6d700000000000000000000000000000000000000000604082015260600190565b600060c08201600160a060020a03808a1684526020898186015288604086015260c0606086015282885480855260e0870191508960005282600020945060005b81811015612f1d578554851683526001958601959284019201612eff565b505096909116608085015250505060a00152949350505050565b7f4e487b7100000000000000000000000000000000000000000000000000000000600052601160045260246000fd5b6000816000190483118215151615612f8057612f80612f37565b500290565b600082612fbb577f4e487b7100000000000000000000000000000000000000000000000000000000600052601260045260246000fd5b500490565b600082821015612fd257612fd2612f37565b500390565b60008219821115612fea57612fea612f37565b500190565b6000815480845260208085019450836000528060002060005b8381101561302d578154600160a060020a031687529582019560019182019101613008565b509495945050505050565b878152600160a060020a038716602082015285604082015284606082015260e06080820152600061306c60e0830186612fef565b82810360a084015261307e8186612fef565b905082810360c08401526130928185612fef565b9a9950505050505050505050565b60005b838110156130bb5781810151838201526020016130a3565b838111156123cd5750506000910152565b600081518084526130e48160208601602086016130a0565b601f01601f19169290920160200192915050565b60e08152845160e08201526000602086015160028110613141577f4e487b7100000000000000000000000000000000000000000000000000000000600052602160045260246000fd5b6101008301526040860151600160a060020a03166101208301526060860151613176610140840182600160a060020a03169052565b50608086015161016083015260a086015160c061018084015261319d6101a08401826130cc565b9150506131df6020830186600160a060020a03808251168352602082015115156020840152806040830151166040840152506060810151151560608301525050565b60a082019390935260c0015292915050565b60006020828403121561320357600080fd5b815161145981612c21565b6000806000806080858703121561322457600080fd5b845193506020850151925060408501519150606085015161324481612c4c565b939692955090935050565b600082516132618184602087016130a0565b9190910192915050565b60208152600061145960208301846130cc56fea2646970667358221220b44b16403d08aad67e5b524333d87c958b6a7b1dfe33762b539028a664983b1764736f6c634300080a0033",
  "immutableReferences": {},
  "source": "// SPDX-License-Identifier: MIT\n\npragma solidity ^0.8.0;\n\nimport \"@openzeppelin/contracts/token/ERC20/utils/SafeERC20.sol\";\n\nimport \"../interfaces/IAMMFarm.sol\";\n\nimport \"../interfaces/IAcryptosFarm.sol\";\n\nimport \"../interfaces/IAcryptosVault.sol\";\n\nimport \"@openzeppelin/contracts/token/ERC20/IERC20.sol\";\n\nimport \"@openzeppelin/contracts/utils/math/SafeMath.sol\";\n\nimport \"./_VaultBase.sol\";\n\nimport \"../interfaces/IBalancerVault.sol\";\n\n/// @title Vault contract for Acryptos single token strategies (e.g. for lending)\ncontract VaultAcryptosSingle is VaultBase {\n    using SafeMath for uint256;\n    using SafeERC20 for IERC20;\n\n    /* Constructor */\n    // TODO: @param descriptions\n    constructor(\n        address[] memory _addresses,\n        uint256 _pid,\n        bool _isCOREStaking,\n        bool _isSameAssetDeposit,\n        bool _isZorroComp,\n        address[] memory _earnedToZORROPath,\n        address[] memory _earnedToToken0Path,\n        address[] memory _earnedToToken1Path,\n        address[] memory _token0ToEarnedPath,\n        address[] memory _token1ToEarnedPath,\n        uint256[] memory _fees // [_controllerFee, _buyBackRate, _entranceFeeFactor, _withdrawFeeFactor]\n    ) {\n        wbnbAddress = _addresses[0];\n        govAddress = _addresses[1];\n        zorroControllerAddress = _addresses[2];\n        ZORROAddress = _addresses[3];\n\n        wantAddress = _addresses[4];\n        token0Address = _addresses[5];\n        token1Address = _addresses[6];\n        // TODO: Allow up to 4 token addresses\n        earnedAddress = _addresses[7];\n\n        farmContractAddress = _addresses[8];\n        pid = _pid;\n        isCOREStaking = _isCOREStaking;\n        isSameAssetDeposit = _isSameAssetDeposit;\n        isZorroComp = _isZorroComp;\n\n        uniRouterAddress = _addresses[9];\n        earnedToZORROPath = _earnedToZORROPath;\n        earnedToToken0Path = _earnedToToken0Path;\n        earnedToToken1Path = _earnedToToken1Path;\n        token0ToEarnedPath = _token0ToEarnedPath;\n        token1ToEarnedPath = _token1ToEarnedPath;\n\n        controllerFee = _fees[0];\n        rewardsAddress = _addresses[10];\n        buyBackRate = _fees[1];\n        burnAddress = _addresses[11];\n        entranceFeeFactor = _fees[2];\n        withdrawFeeFactor = _fees[3];\n\n        transferOwnership(zorroControllerAddress);\n    }\n\n    /* State */\n\n    address public balancerVaultAddress =\n        0xa82f327BBbF0667356D2935C6532d164b06cEced; // Address of Balancer/ACSI.finance Vault for swaps etc.\n    bytes32 public balancerPoolEarnedToTokens =\n        0x894ed9026de37afd9cce1e6c0be7d6b510e3ffe5000100000000000000000001; // The Acryptos ACSI.finance pool ID for swapping Earned token to underlying tokens.\n    uint256 balancerPoolEarnedWeightBasisPoints = 4000;\n    uint256 balancerPoolToken0WeightBasisPoints = 3000;\n    // TODO: Put this in constructor\n    uint256 numTokens; // Number of tokens in the LP pool (number between 1 and 4, inclusive)\n\n    /* Config */\n\n    function setBalancerVaultAddress(address _balancerVaultAddress)\n        public\n        onlyOwner\n    {\n        balancerVaultAddress = _balancerVaultAddress;\n    }\n\n    function setBalancerPoolEarnedToTokens(bytes32 _balancerPoolEarnedToToken)\n        public\n        onlyOwner\n    {\n        balancerPoolEarnedToTokens = _balancerPoolEarnedToToken;\n    }\n\n    function setBalancerPoolEarnedWeightBasisPoints(\n        uint256 _balancerPoolEarnedWeightBasisPoints\n    ) public onlyOwner {\n        balancerPoolEarnedWeightBasisPoints = _balancerPoolEarnedWeightBasisPoints;\n    }\n\n    function setBalancerPoolToken0WeightBasisPoints(\n        uint256 _balancerPoolToken0WeightBasisPoints\n    ) public onlyOwner {\n        balancerPoolToken0WeightBasisPoints = _balancerPoolToken0WeightBasisPoints;\n    }\n\n    /* Investment Actions */\n\n    /// @notice Receives new deposits from user\n    /// @param _account address of user that this deposit is intended for\n    /// @param _wantAmt amount of Want token to deposit/stake\n    /// @return Number of shares added\n    function depositWantToken(address _account, uint256 _wantAmt)\n        public\n        virtual\n        override\n        onlyOwner\n        nonReentrant\n        whenNotPaused\n        returns (uint256)\n    {\n        // Check to make sure Want token is already on this contract and held for this user\n        require(\n            _wantAmt <= wantTokensInHolding[_account],\n            \"Exceeds Want tokens in holding for this user\"\n        );\n\n        // Set sharesAdded to the Want token amount specified\n        uint256 sharesAdded = _wantAmt;\n        // If the total number of shares and want tokens locked both exceed 0, the shares added is the proportion of Want tokens locked,\n        // discounted by the entrance fee\n        if (wantLockedTotal > 0 && sharesTotal > 0) {\n            sharesAdded = _wantAmt\n                .mul(sharesTotal)\n                .mul(entranceFeeFactor)\n                .div(wantLockedTotal)\n                .div(entranceFeeFactorMax);\n        }\n        // Increment the shares\n        sharesTotal = sharesTotal.add(sharesAdded);\n        userShares[_account] = userShares[_account].add(sharesAdded);\n\n        if (isZorroComp) {\n            // If this contract is meant for Autocompounding, start to farm the staked token\n            _farm();\n        } else {\n            // Otherwise, simply increment the quantity of total Want tokens locked\n            wantLockedTotal = wantLockedTotal.add(_wantAmt);\n        }\n\n        // Clear holdings\n        wantTokensInHolding[_account];\n\n        return sharesAdded;\n    }\n\n    /// @notice Performs necessary operations to convert USDC into Want token\n    /// @param _account The user account to transfer USDC from\n    /// @param _amount The USDC quantity to exchange\n    /// @param _maxMarketMovementAllowed The max slippage allowed. 1000 = 0 %, 995 = 0.5%, etc.\n    /// @return Amount of Want token obtained\n    function exchangeUSDForWantToken(\n        address _account,\n        uint256 _amount,\n        uint256 _maxMarketMovementAllowed\n    ) public override returns (uint256) {\n        // TODO: For all swaps, join/exit pools: Ensure to use safety features to prevent front running\n        // Swap USDC for tokens\n        // TODO Consider using a batch swap here\n        // Swap Token0\n        // --\n        if (numTokens > 1) {\n            // Swap Token1\n        }\n        if (numTokens > 2) {\n            // Swap Token2\n        }\n        if (numTokens > 3) {\n            // Swap Token3\n        }\n\n        // Deposit tokens to get Want token (e.g. LP token)\n        // TODO: joinPool: https://dev.balancer.fi/resources/joins-and-exits/pool-joins \n\n        // Update temporary holdings for user\n        wantTokensInHolding[_account] = 0; // TODO <- change this to want tokens obtained.\n\n        return 0; // TODO: Change this to the actual value. This func still needs to be properly inputted\n    }\n\n    /// @notice Public function for farming Want token.\n    function farm() public virtual nonReentrant {\n        _farm();\n    }\n\n    /// @notice Internal function for farming Want token. Responsible for staking Want token in a MasterChef/MasterApe-like contract\n    function _farm() internal virtual {\n        // Farming should only occur if this contract is set for autocompounding\n        require(isZorroComp, \"!isZorroComp\");\n\n        // Get the Want token stored on this contract\n        uint256 wantAmt = IERC20(wantAddress).balanceOf(address(this));\n        // Increment the total Want tokens locked into this contract\n        wantLockedTotal = wantLockedTotal.add(wantAmt);\n        // Allow the farm contract (e.g. MasterChef) the ability to transfer up to the Want amount\n        IERC20(wantAddress).safeIncreaseAllowance(farmContractAddress, wantAmt);\n\n        // Deposit the Want tokens in the Farm contract\n        IAcryptosFarm(farmContractAddress).deposit(wantAddress, wantAmt);\n    }\n\n    /// @notice Internal function for unfarming Want token. Responsible for unstaking Want token from MasterChef/MasterApe contracts\n    /// @param _wantAmt the amount of Want tokens to withdraw. If 0, will only harvest and not withdraw\n    function _unfarm(uint256 _wantAmt) internal virtual {\n        // Withdraw the Want tokens from the Farm contract\n        IAcryptosFarm(farmContractAddress).withdraw(wantAddress, _wantAmt);\n    }\n\n    /// @notice Fully withdraw Want tokens from the Farm contract (100% withdrawals only)\n    /// @param _account The address of the owner of vault investment\n    /// @param _harvestOnly If true, will only harvest Zorro tokens but not do a withdrawal\n    /// @return the number of shares removed\n    function withdrawWantToken(address _account, bool _harvestOnly)\n        public\n        virtual\n        override\n        onlyOwner\n        nonReentrant\n        returns (uint256)\n    {\n        uint256 _wantAmt = 0;\n        if (!_harvestOnly) {\n            uint256 _userNumShares = userShares[_account];\n            _wantAmt = IERC20(wantAddress).balanceOf(address(this)).mul(_userNumShares).div(sharesTotal);\n        }\n\n        // Shares removed is proportional to the % of total Want tokens locked that _wantAmt represents\n        uint256 sharesRemoved = _wantAmt.mul(sharesTotal).div(wantLockedTotal);\n        // Safety: cap the shares to the total number of shares\n        if (sharesRemoved > sharesTotal) {\n            sharesRemoved = sharesTotal;\n        }\n        // Decrement the total shares by the sharesRemoved\n        sharesTotal = sharesTotal.sub(sharesRemoved);\n        userShares[_account] = userShares[_account].sub(sharesRemoved);\n\n        // If a withdrawal fee is specified, discount the _wantAmt by the withdrawal fee\n        if (withdrawFeeFactor < withdrawFeeFactorMax) {\n            _wantAmt = _wantAmt.mul(withdrawFeeFactor).div(\n                withdrawFeeFactorMax\n            );\n        }\n\n        // If this contract is designated for auto compounding, unfarm the Want tokens\n        if (isZorroComp) {\n            _unfarm(_wantAmt);\n        }\n\n        // Safety: Check balance of this contract's Want tokens held, and cap _wantAmt to that value\n        uint256 wantAmt = IERC20(wantAddress).balanceOf(address(this));\n        if (_wantAmt > wantAmt) {\n            _wantAmt = wantAmt;\n        }\n        // Safety: cap _wantAmt at the total quantity of Want tokens locked\n        if (wantLockedTotal < _wantAmt) {\n            _wantAmt = wantLockedTotal;\n        }\n\n        // Decrement the total Want locked tokens by the _wantAmt\n        wantLockedTotal = wantLockedTotal.sub(_wantAmt);\n\n        // Finally, transfer the want amount from this contract, back to the ZorroController contract\n        IERC20(wantAddress).safeTransfer(zorroControllerAddress, _wantAmt);\n\n        // Update holdings\n        wantTokensInHolding[_account] = _wantAmt;\n\n        return sharesRemoved;\n    }\n\n    /// @notice Converts Want token back into USD to be ready for withdrawal\n    /// @param _account The user account to transfer USDC from\n    /// @param _amount The Want token quantity to exchange\n    /// @param _maxMarketMovementAllowed The max slippage allowed for swaps. 1000 = 0 %, 995 = 0.5%, etc.\n    /// @return Amount of USDC token obtained\n    function exchangeWantTokenForUSD(\n        address _account,\n        uint256 _amount,\n        uint256 _maxMarketMovementAllowed\n    ) public virtual override returns (uint256) {\n        // TODO\n    }\n\n    /// @notice The main compounding (earn) function. Reinvests profits since the last earn event.\n    /// @param _maxMarketMovementAllowed The max slippage allowed. 1000 = 0 %, 995 = 0.5%, etc.\n    function earn(uint256 _maxMarketMovementAllowed) public virtual override nonReentrant whenNotPaused {\n        // Only to be run if this contract is configured for auto-comnpounding\n        require(isZorroComp, \"!isZorroComp\");\n        // If onlyGov is set to true, only allow to proceed if the current caller is the govAddress\n        if (onlyGov) {\n            require(msg.sender == govAddress, \"!gov\");\n        }\n\n        // Harvest farm tokens\n        _unfarm(0);\n\n        // If the earned address is the WBNB token, wrap all BNB owned by this contract\n        if (earnedAddress == wbnbAddress) {\n            _wrapBNB();\n        }\n\n        // Get the balance of the Earned token on this contract (ACS, etc.)\n        uint256 earnedAmt = IERC20(earnedAddress).balanceOf(address(this));\n\n        // Reassign value of earned amount after distributing fees\n        earnedAmt = distributeFees(earnedAmt);\n        // Reassign value of earned amount after buying back a certain amount of Zorro, sharing revenue\n        earnedAmt = buyBackAndRevShare(earnedAmt);\n\n        // If staking a single token (CAKE, BANANA), farm that token and exit\n        if (isCOREStaking || isSameAssetDeposit) {\n            // Update the last earn block\n            lastEarnBlock = block.number;\n            _farm();\n            return;\n        }\n\n        // Approve the Balancer Vault contract for swaps\n        IERC20(earnedAddress).safeApprove(balancerVaultAddress, 0);\n        // Allow the Balancer Vault contract to spen up to earnedAmt\n        IERC20(earnedAddress).safeIncreaseAllowance(\n            balancerVaultAddress,\n            earnedAmt\n        );\n\n        // Swap Earned token to token0 if token0 is not the Earned token\n        if (earnedAddress != token0Address) {\n            swapAcryptos(\n                earnedAmt,\n                earnedAddress,\n                token0Address,\n                slippageFactor\n            );\n        }\n\n        // Get balance of token0\n        uint256 token0Amt = IERC20(token0Address).balanceOf(address(this));\n        // Provided that token0 quantity is > 0, redeposit\n        if (token0Amt > 0) {\n            // Increase the allowance of the AcryptosVault to spend token0 (for deposit)\n            IERC20(token0Address).safeIncreaseAllowance(wantAddress, token0Amt);\n            // Re-deposit the newly swapped token0 to get new Want tokens minted\n            IAcryptosVault(wantAddress).deposit(token0Amt);\n        }\n\n        // Update last earned block\n        lastEarnBlock = block.number;\n\n        // Farm Want tokens obtained\n        _farm();\n    }\n\n    function swapAcryptos(\n        uint256 _amountIn,\n        address _assetIn,\n        address _assetOut,\n        uint256 _slippageFactor\n    ) internal {\n        // Determine the limit based on the exchange rate\n        uint256 limit = getExchangeRate(balancerVaultAddress, _assetOut, _assetIn)\n            .mul(_slippageFactor)\n            .div(1000);\n        // Swap Earned token to token0\n        IBalancerVault(balancerVaultAddress).swap(\n            SingleSwap({\n                poolId: balancerPoolEarnedToTokens,\n                kind: SwapKind.GIVEN_IN,\n                assetIn: IAsset(_assetIn),\n                assetOut: IAsset(_assetOut),\n                amount: _amountIn,\n                userData: \"\"\n            }),\n            FundManagement({\n                sender: address(this),\n                fromInternalBalance: false,\n                recipient: payable(address(this)),\n                toInternalBalance: false\n            }),\n            limit,\n            block.timestamp.add(600)\n        );\n    }\n\n    /// @notice Calculates exchange rate of token B per token A. Note: Ignores swap fees!\n    /// @param _balancerVaultAddress Address of Acryptos/Balancer Vault\n    /// @param _tokenA token A address\n    /// @param _tokenB token B address\n    /// @return exhange rate of token B per token A\n    function getExchangeRate(\n        address _balancerVaultAddress,\n        address _tokenA, \n        address _tokenB\n    ) internal returns (uint256) {\n        // Calculate current balances of each token (Earned, and token0)\n        (uint256 cashB, , , ) = IBalancerVault(_balancerVaultAddress)\n            .getPoolTokenInfo(\n                balancerPoolEarnedToTokens,\n                IERC20(_tokenB)\n            );\n        (uint256 cashA, , , ) = IBalancerVault(_balancerVaultAddress)\n            .getPoolTokenInfo(\n                balancerPoolEarnedToTokens,\n                IERC20(_tokenA)\n            );\n        // Return exchange rate, accounting for weightings\n        // TODO - needs to be generalized for all 4 tokens\n        return\n            (cashA.div(balancerPoolToken0WeightBasisPoints)).div(\n                cashB.div(balancerPoolEarnedWeightBasisPoints)\n            );\n    }\n}\n",
  "sourcePath": "/Users/kristophm/Documents/workspace/zorro-protocol/contracts/vaults/VaultAcryptos.sol",
  "compiler": {
    "name": "solc",
    "version": "0.8.10+commit.fc410830.Emscripten.clang"
  },
  "schemaVersion": "3.4.4",
  "updatedAt": "2022-03-01T15:36:14.103Z",
  "devdoc": {
    "kind": "dev",
    "methods": {
      "depositWantToken(address,uint256)": {
        "params": {
          "_account": "address of user that this deposit is intended for",
          "_wantAmt": "amount of Want token to deposit/stake"
        },
        "returns": {
          "_0": "Number of shares added"
        }
      },
      "earn(uint256)": {
        "params": {
          "_maxMarketMovementAllowed": "The max slippage allowed. 1000 = 0 %, 995 = 0.5%, etc."
        }
      },
      "exchangeUSDForWantToken(address,uint256,uint256)": {
        "params": {
          "_account": "The user account to transfer USDC from",
          "_amount": "The USDC quantity to exchange",
          "_maxMarketMovementAllowed": "The max slippage allowed. 1000 = 0 %, 995 = 0.5%, etc."
        },
        "returns": {
          "_0": "Amount of Want token obtained"
        }
      },
      "exchangeWantTokenForUSD(address,uint256,uint256)": {
        "params": {
          "_account": "The user account to transfer USDC from",
          "_amount": "The Want token quantity to exchange",
          "_maxMarketMovementAllowed": "The max slippage allowed for swaps. 1000 = 0 %, 995 = 0.5%, etc."
        },
        "returns": {
          "_0": "Amount of USDC token obtained"
        }
      },
      "inCaseTokensGetStuck(address,uint256,address)": {
        "params": {
          "_amount": "The amount of the tokens to transfer",
          "_to": "The address to transfer tokens to",
          "_token": "Address of the ERC20 token to transfer"
        }
      },
      "owner()": {
        "details": "Returns the address of the current owner."
      },
      "paused()": {
        "details": "Returns true if the contract is paused, and false otherwise."
      },
      "renounceOwnership()": {
        "details": "Leaves the contract without owner. It will not be possible to call `onlyOwner` functions anymore. Can only be called by the current owner. NOTE: Renouncing ownership will leave the contract without an owner, thereby removing any functionality that is only available to the owner."
      },
      "setBurnAddress(address)": {
        "params": {
          "_burnAddress": "the burn address"
        }
      },
      "setGov(address)": {
        "params": {
          "_govAddress": "The new gov address"
        }
      },
      "setOnlyGov(bool)": {
        "params": {
          "_onlyGov": "whether onlyGov should be enforced"
        }
      },
      "setRewardsAddress(address)": {
        "params": {
          "_rewardsAddress": "the address of the Rewards contract"
        }
      },
      "setSettings(uint256,uint256,uint256,uint256,uint256)": {
        "params": {
          "_buyBackRate": "Buy back rate fee numerator",
          "_controllerFee": "Controller fee numerator",
          "_entranceFeeFactor": "Entrance fee numerator (higher means smaller percentage)",
          "_slippageFactor": "Slippage factor fee numerator",
          "_withdrawFeeFactor": "Withdrawal fee numerator (higher means smaller percentage)"
        }
      },
      "transferOwnership(address)": {
        "details": "Transfers ownership of the contract to a new account (`newOwner`). Can only be called by the current owner."
      },
      "withdrawWantToken(address,bool)": {
        "params": {
          "_account": "The address of the owner of vault investment",
          "_harvestOnly": "If true, will only harvest Zorro tokens but not do a withdrawal"
        },
        "returns": {
          "_0": "the number of shares removed"
        }
      }
    },
    "title": "Vault contract for Acryptos single token strategies (e.g. for lending)",
    "version": 1
  },
  "userdoc": {
    "kind": "user",
    "methods": {
      "convertDustToEarned()": {
        "notice": "Converts dust tokens into earned tokens, which will be reinvested on the next earn()"
      },
      "depositWantToken(address,uint256)": {
        "notice": "Receives new deposits from user"
      },
      "earn(uint256)": {
        "notice": "The main compounding (earn) function. Reinvests profits since the last earn event."
      },
      "exchangeUSDForWantToken(address,uint256,uint256)": {
        "notice": "Performs necessary operations to convert USDC into Want token"
      },
      "exchangeWantTokenForUSD(address,uint256,uint256)": {
        "notice": "Converts Want token back into USD to be ready for withdrawal"
      },
      "farm()": {
        "notice": "Public function for farming Want token."
      },
      "inCaseTokensGetStuck(address,uint256,address)": {
        "notice": "Safely transfer ERC20 tokens stuck in this contract to a specified address"
      },
      "pause()": {
        "notice": "Pause contract"
      },
      "setBurnAddress(address)": {
        "notice": "Set the burn address (for removing tokens out of existence)"
      },
      "setGov(address)": {
        "notice": "Set governor address"
      },
      "setOnlyGov(bool)": {
        "notice": "Set onlyGov property"
      },
      "setRewardsAddress(address)": {
        "notice": "set the address of the contract to send controller fees to"
      },
      "setSettings(uint256,uint256,uint256,uint256,uint256)": {
        "notice": "Configure key fee parameters"
      },
      "setUniRouterAddress(address)": {
        "notice": "Set the address of the periphery/router contract (Pancakeswap/Apeswap/etc.)"
      },
      "unpause()": {
        "notice": "Unpause contract"
      },
      "withdrawWantToken(address,bool)": {
        "notice": "Fully withdraw Want tokens from the Farm contract (100% withdrawals only)"
      },
      "wrapBNB()": {
        "notice": "wrap BNB (public version, only callable by gov)"
      }
    },
    "version": 1
  }
}