{
  "contractName": "VaultTimelock",
  "abi": [
    {
      "inputs": [
        {
          "internalType": "uint256",
          "name": "_minDelay",
          "type": "uint256"
        },
        {
          "internalType": "address[]",
          "name": "_proposers",
          "type": "address[]"
        },
        {
          "internalType": "address[]",
          "name": "_executors",
          "type": "address[]"
        }
      ],
      "stateMutability": "nonpayable",
      "type": "constructor"
    },
    {
      "anonymous": false,
      "inputs": [
        {
          "indexed": true,
          "internalType": "bytes32",
          "name": "id",
          "type": "bytes32"
        },
        {
          "indexed": true,
          "internalType": "uint256",
          "name": "index",
          "type": "uint256"
        },
        {
          "indexed": false,
          "internalType": "address",
          "name": "target",
          "type": "address"
        },
        {
          "indexed": false,
          "internalType": "uint256",
          "name": "value",
          "type": "uint256"
        },
        {
          "indexed": false,
          "internalType": "bytes",
          "name": "data",
          "type": "bytes"
        }
      ],
      "name": "CallExecuted",
      "type": "event"
    },
    {
      "anonymous": false,
      "inputs": [
        {
          "indexed": true,
          "internalType": "bytes32",
          "name": "id",
          "type": "bytes32"
        },
        {
          "indexed": true,
          "internalType": "uint256",
          "name": "index",
          "type": "uint256"
        },
        {
          "indexed": false,
          "internalType": "address",
          "name": "target",
          "type": "address"
        },
        {
          "indexed": false,
          "internalType": "uint256",
          "name": "value",
          "type": "uint256"
        },
        {
          "indexed": false,
          "internalType": "bytes",
          "name": "data",
          "type": "bytes"
        },
        {
          "indexed": false,
          "internalType": "bytes32",
          "name": "predecessor",
          "type": "bytes32"
        },
        {
          "indexed": false,
          "internalType": "uint256",
          "name": "delay",
          "type": "uint256"
        }
      ],
      "name": "CallScheduled",
      "type": "event"
    },
    {
      "anonymous": false,
      "inputs": [
        {
          "indexed": true,
          "internalType": "bytes32",
          "name": "id",
          "type": "bytes32"
        }
      ],
      "name": "Cancelled",
      "type": "event"
    },
    {
      "anonymous": false,
      "inputs": [
        {
          "indexed": false,
          "internalType": "uint256",
          "name": "oldDuration",
          "type": "uint256"
        },
        {
          "indexed": false,
          "internalType": "uint256",
          "name": "newDuration",
          "type": "uint256"
        }
      ],
      "name": "MinDelayChange",
      "type": "event"
    },
    {
      "anonymous": false,
      "inputs": [
        {
          "indexed": true,
          "internalType": "bytes32",
          "name": "role",
          "type": "bytes32"
        },
        {
          "indexed": true,
          "internalType": "bytes32",
          "name": "previousAdminRole",
          "type": "bytes32"
        },
        {
          "indexed": true,
          "internalType": "bytes32",
          "name": "newAdminRole",
          "type": "bytes32"
        }
      ],
      "name": "RoleAdminChanged",
      "type": "event"
    },
    {
      "anonymous": false,
      "inputs": [
        {
          "indexed": true,
          "internalType": "bytes32",
          "name": "role",
          "type": "bytes32"
        },
        {
          "indexed": true,
          "internalType": "address",
          "name": "account",
          "type": "address"
        },
        {
          "indexed": true,
          "internalType": "address",
          "name": "sender",
          "type": "address"
        }
      ],
      "name": "RoleGranted",
      "type": "event"
    },
    {
      "anonymous": false,
      "inputs": [
        {
          "indexed": true,
          "internalType": "bytes32",
          "name": "role",
          "type": "bytes32"
        },
        {
          "indexed": true,
          "internalType": "address",
          "name": "account",
          "type": "address"
        },
        {
          "indexed": true,
          "internalType": "address",
          "name": "sender",
          "type": "address"
        }
      ],
      "name": "RoleRevoked",
      "type": "event"
    },
    {
      "inputs": [],
      "name": "DEFAULT_ADMIN_ROLE",
      "outputs": [
        {
          "internalType": "bytes32",
          "name": "",
          "type": "bytes32"
        }
      ],
      "stateMutability": "view",
      "type": "function"
    },
    {
      "inputs": [],
      "name": "EXECUTOR_ROLE",
      "outputs": [
        {
          "internalType": "bytes32",
          "name": "",
          "type": "bytes32"
        }
      ],
      "stateMutability": "view",
      "type": "function"
    },
    {
      "inputs": [],
      "name": "PROPOSER_ROLE",
      "outputs": [
        {
          "internalType": "bytes32",
          "name": "",
          "type": "bytes32"
        }
      ],
      "stateMutability": "view",
      "type": "function"
    },
    {
      "inputs": [],
      "name": "TIMELOCK_ADMIN_ROLE",
      "outputs": [
        {
          "internalType": "bytes32",
          "name": "",
          "type": "bytes32"
        }
      ],
      "stateMutability": "view",
      "type": "function"
    },
    {
      "inputs": [
        {
          "internalType": "bytes32",
          "name": "id",
          "type": "bytes32"
        }
      ],
      "name": "cancel",
      "outputs": [],
      "stateMutability": "nonpayable",
      "type": "function"
    },
    {
      "inputs": [
        {
          "internalType": "address",
          "name": "target",
          "type": "address"
        },
        {
          "internalType": "uint256",
          "name": "value",
          "type": "uint256"
        },
        {
          "internalType": "bytes",
          "name": "data",
          "type": "bytes"
        },
        {
          "internalType": "bytes32",
          "name": "predecessor",
          "type": "bytes32"
        },
        {
          "internalType": "bytes32",
          "name": "salt",
          "type": "bytes32"
        }
      ],
      "name": "execute",
      "outputs": [],
      "stateMutability": "payable",
      "type": "function"
    },
    {
      "inputs": [
        {
          "internalType": "address[]",
          "name": "targets",
          "type": "address[]"
        },
        {
          "internalType": "uint256[]",
          "name": "values",
          "type": "uint256[]"
        },
        {
          "internalType": "bytes[]",
          "name": "datas",
          "type": "bytes[]"
        },
        {
          "internalType": "bytes32",
          "name": "predecessor",
          "type": "bytes32"
        },
        {
          "internalType": "bytes32",
          "name": "salt",
          "type": "bytes32"
        }
      ],
      "name": "executeBatch",
      "outputs": [],
      "stateMutability": "payable",
      "type": "function"
    },
    {
      "inputs": [],
      "name": "getMinDelay",
      "outputs": [
        {
          "internalType": "uint256",
          "name": "duration",
          "type": "uint256"
        }
      ],
      "stateMutability": "view",
      "type": "function"
    },
    {
      "inputs": [
        {
          "internalType": "bytes32",
          "name": "role",
          "type": "bytes32"
        }
      ],
      "name": "getRoleAdmin",
      "outputs": [
        {
          "internalType": "bytes32",
          "name": "",
          "type": "bytes32"
        }
      ],
      "stateMutability": "view",
      "type": "function"
    },
    {
      "inputs": [
        {
          "internalType": "bytes32",
          "name": "id",
          "type": "bytes32"
        }
      ],
      "name": "getTimestamp",
      "outputs": [
        {
          "internalType": "uint256",
          "name": "timestamp",
          "type": "uint256"
        }
      ],
      "stateMutability": "view",
      "type": "function"
    },
    {
      "inputs": [
        {
          "internalType": "bytes32",
          "name": "role",
          "type": "bytes32"
        },
        {
          "internalType": "address",
          "name": "account",
          "type": "address"
        }
      ],
      "name": "grantRole",
      "outputs": [],
      "stateMutability": "nonpayable",
      "type": "function"
    },
    {
      "inputs": [
        {
          "internalType": "bytes32",
          "name": "role",
          "type": "bytes32"
        },
        {
          "internalType": "address",
          "name": "account",
          "type": "address"
        }
      ],
      "name": "hasRole",
      "outputs": [
        {
          "internalType": "bool",
          "name": "",
          "type": "bool"
        }
      ],
      "stateMutability": "view",
      "type": "function"
    },
    {
      "inputs": [
        {
          "internalType": "address",
          "name": "target",
          "type": "address"
        },
        {
          "internalType": "uint256",
          "name": "value",
          "type": "uint256"
        },
        {
          "internalType": "bytes",
          "name": "data",
          "type": "bytes"
        },
        {
          "internalType": "bytes32",
          "name": "predecessor",
          "type": "bytes32"
        },
        {
          "internalType": "bytes32",
          "name": "salt",
          "type": "bytes32"
        }
      ],
      "name": "hashOperation",
      "outputs": [
        {
          "internalType": "bytes32",
          "name": "hash",
          "type": "bytes32"
        }
      ],
      "stateMutability": "pure",
      "type": "function"
    },
    {
      "inputs": [
        {
          "internalType": "address[]",
          "name": "targets",
          "type": "address[]"
        },
        {
          "internalType": "uint256[]",
          "name": "values",
          "type": "uint256[]"
        },
        {
          "internalType": "bytes[]",
          "name": "datas",
          "type": "bytes[]"
        },
        {
          "internalType": "bytes32",
          "name": "predecessor",
          "type": "bytes32"
        },
        {
          "internalType": "bytes32",
          "name": "salt",
          "type": "bytes32"
        }
      ],
      "name": "hashOperationBatch",
      "outputs": [
        {
          "internalType": "bytes32",
          "name": "hash",
          "type": "bytes32"
        }
      ],
      "stateMutability": "pure",
      "type": "function"
    },
    {
      "inputs": [
        {
          "internalType": "bytes32",
          "name": "id",
          "type": "bytes32"
        }
      ],
      "name": "isOperation",
      "outputs": [
        {
          "internalType": "bool",
          "name": "pending",
          "type": "bool"
        }
      ],
      "stateMutability": "view",
      "type": "function"
    },
    {
      "inputs": [
        {
          "internalType": "bytes32",
          "name": "id",
          "type": "bytes32"
        }
      ],
      "name": "isOperationDone",
      "outputs": [
        {
          "internalType": "bool",
          "name": "done",
          "type": "bool"
        }
      ],
      "stateMutability": "view",
      "type": "function"
    },
    {
      "inputs": [
        {
          "internalType": "bytes32",
          "name": "id",
          "type": "bytes32"
        }
      ],
      "name": "isOperationPending",
      "outputs": [
        {
          "internalType": "bool",
          "name": "pending",
          "type": "bool"
        }
      ],
      "stateMutability": "view",
      "type": "function"
    },
    {
      "inputs": [
        {
          "internalType": "bytes32",
          "name": "id",
          "type": "bytes32"
        }
      ],
      "name": "isOperationReady",
      "outputs": [
        {
          "internalType": "bool",
          "name": "ready",
          "type": "bool"
        }
      ],
      "stateMutability": "view",
      "type": "function"
    },
    {
      "inputs": [
        {
          "internalType": "bytes32",
          "name": "role",
          "type": "bytes32"
        },
        {
          "internalType": "address",
          "name": "account",
          "type": "address"
        }
      ],
      "name": "renounceRole",
      "outputs": [],
      "stateMutability": "nonpayable",
      "type": "function"
    },
    {
      "inputs": [
        {
          "internalType": "bytes32",
          "name": "role",
          "type": "bytes32"
        },
        {
          "internalType": "address",
          "name": "account",
          "type": "address"
        }
      ],
      "name": "revokeRole",
      "outputs": [],
      "stateMutability": "nonpayable",
      "type": "function"
    },
    {
      "inputs": [
        {
          "internalType": "address",
          "name": "target",
          "type": "address"
        },
        {
          "internalType": "uint256",
          "name": "value",
          "type": "uint256"
        },
        {
          "internalType": "bytes",
          "name": "data",
          "type": "bytes"
        },
        {
          "internalType": "bytes32",
          "name": "predecessor",
          "type": "bytes32"
        },
        {
          "internalType": "bytes32",
          "name": "salt",
          "type": "bytes32"
        },
        {
          "internalType": "uint256",
          "name": "delay",
          "type": "uint256"
        }
      ],
      "name": "schedule",
      "outputs": [],
      "stateMutability": "nonpayable",
      "type": "function"
    },
    {
      "inputs": [
        {
          "internalType": "address[]",
          "name": "targets",
          "type": "address[]"
        },
        {
          "internalType": "uint256[]",
          "name": "values",
          "type": "uint256[]"
        },
        {
          "internalType": "bytes[]",
          "name": "datas",
          "type": "bytes[]"
        },
        {
          "internalType": "bytes32",
          "name": "predecessor",
          "type": "bytes32"
        },
        {
          "internalType": "bytes32",
          "name": "salt",
          "type": "bytes32"
        },
        {
          "internalType": "uint256",
          "name": "delay",
          "type": "uint256"
        }
      ],
      "name": "scheduleBatch",
      "outputs": [],
      "stateMutability": "nonpayable",
      "type": "function"
    },
    {
      "inputs": [
        {
          "internalType": "bytes4",
          "name": "interfaceId",
          "type": "bytes4"
        }
      ],
      "name": "supportsInterface",
      "outputs": [
        {
          "internalType": "bool",
          "name": "",
          "type": "bool"
        }
      ],
      "stateMutability": "view",
      "type": "function"
    },
    {
      "inputs": [
        {
          "internalType": "uint256",
          "name": "newDelay",
          "type": "uint256"
        }
      ],
      "name": "updateDelay",
      "outputs": [],
      "stateMutability": "nonpayable",
      "type": "function"
    },
    {
      "stateMutability": "payable",
      "type": "receive"
    },
    {
      "inputs": [
        {
          "internalType": "address",
          "name": "_vaultAddress",
          "type": "address"
        },
        {
          "internalType": "uint256",
          "name": "_maxMarketMovement",
          "type": "uint256"
        }
      ],
      "name": "earn",
      "outputs": [],
      "stateMutability": "nonpayable",
      "type": "function"
    },
    {
      "inputs": [
        {
          "internalType": "address",
          "name": "_vaultAddress",
          "type": "address"
        }
      ],
      "name": "farm",
      "outputs": [],
      "stateMutability": "nonpayable",
      "type": "function"
    },
    {
      "inputs": [
        {
          "internalType": "address",
          "name": "_vaultAddress",
          "type": "address"
        }
      ],
      "name": "pause",
      "outputs": [],
      "stateMutability": "nonpayable",
      "type": "function"
    },
    {
      "inputs": [
        {
          "internalType": "address",
          "name": "_vaultAddress",
          "type": "address"
        }
      ],
      "name": "unpause",
      "outputs": [],
      "stateMutability": "nonpayable",
      "type": "function"
    }
  ],
  "bytecode": "0x60806040523480156200001157600080fd5b506040516200230d3803806200230d833981016040819052620000349162000464565b8282826200005b600080516020620022ad8339815191528064010000000062000217810204565b6200008e600080516020620022cd833981519152600080516020620022ad83398151915264010000000062000217810204565b620000c1600080516020620022ed833981519152600080516020620022ad83398151915264010000000062000217810204565b620000f7600080516020620022ad833981519152620000e864010000000062000275810204565b64010000000062000279810204565b6200011b600080516020620022ad8339815191523064010000000062000279810204565b60005b825181101562000181576200016e600080516020620022cd833981519152848381518110620001515762000151620004d7565b602002602001015162000279640100000000026401000000009004565b620001798162000506565b90506200011e565b5060005b8151811015620001cb57620001b8600080516020620022ed833981519152838381518110620001515762000151620004d7565b620001c38162000506565b905062000185565b5060028390556040805160008152602081018590527f11c24f4ead16507c69ac467fbd5e4eed5fb5c699626d2cc6d66421df253886d5910160405180910390a150505050505062000549565b60006200022d8364010000000062000292810204565b600084815260208190526040808220600101859055519192508391839186917fbd79b86ffe0ab8e8776151514217cd7cacd52c909f66475c3af44e129f0b00ff9190a4505050565b3390565b6200028e8282640100000000620002a7810204565b5050565b60009081526020819052604090206001015490565b620002bc828264010000000062000343810204565b6200028e57600082815260208181526040808320600160a060020a03851684529091529020805460ff19166001179055620002ff64010000000062000275810204565b600160a060020a031681600160a060020a0316837f2f8788117e7eff1d82e926ec794901d17c78024a50270940304540a733656f0d60405160405180910390a45050565b600091825260208281526040808420600160a060020a0393909316845291905290205460ff1690565b7f4e487b7100000000000000000000000000000000000000000000000000000000600052604160045260246000fd5b8051600160a060020a0381168114620003b357600080fd5b919050565b600082601f830112620003ca57600080fd5b815160206001604060020a0380831115620003e957620003e96200036c565b818302604051601f19603f830116810181811084821117156200041057620004106200036c565b6040529384528581018301938381019250878511156200042f57600080fd5b83870191505b84821015620004595762000449826200039b565b8352918301919083019062000435565b979650505050505050565b6000806000606084860312156200047a57600080fd5b8351925060208401516001604060020a03808211156200049957600080fd5b620004a787838801620003b8565b93506040860151915080821115620004be57600080fd5b50620004cd86828701620003b8565b9150509250925092565b7f4e487b7100000000000000000000000000000000000000000000000000000000600052603260045260246000fd5b600060001982141562000542577f4e487b7100000000000000000000000000000000000000000000000000000000600052601160045260246000fd5b5060010190565b611d5480620005596000396000f3fe60806040526004361061017f5760003560e060020a9004806376a67a51116100d0578063b02bf4b91161007e578063b02bf4b914610471578063b1c5f42714610491578063c4d252f5146104b1578063d45c4435146104d1578063d547741f146104fe578063e38335e51461051e578063f27a0c921461053157600080fd5b806376a67a511461039a5780638065657f146103ba5780638f2a0bb0146103da5780638f61f4f5146103fa57806391d148541461041c578063a217fddf1461043c578063a90909171461045157600080fd5b80632ab0f5291161012d5780632ab0f529146102a95780632f2ff15d146102da57806331d50750146102fa57806336568abe1461031a57806357b001f91461033a578063584b153e1461035a57806364d623531461037a57600080fd5b806301d5062a1461018b57806301ffc9a7146101ad57806307bd0265146101e25780630d3cf6fc14610212578063134008d31461024657806313bc9f2014610259578063248a9ca31461027957600080fd5b3661018657005b600080fd5b34801561019757600080fd5b506101ab6101a6366004611515565b610546565b005b3480156101b957600080fd5b506101cd6101c836600461158a565b6105ca565b60405190151581526020015b60405180910390f35b3480156101ee57600080fd5b50610204600080516020611cff83398151915281565b6040519081526020016101d9565b34801561021e57600080fd5b506102047f5f58e3a2316349923ce3780f8d587db2d72378aed66a8261c916544fa6846ca581565b6101ab6102543660046115b4565b610633565b34801561026557600080fd5b506101cd610274366004611620565b610699565b34801561028557600080fd5b50610204610294366004611620565b60009081526020819052604090206001015490565b3480156102b557600080fd5b506101cd6102c4366004611620565b6000908152600160208190526040909120541490565b3480156102e657600080fd5b506101ab6102f5366004611639565b6106bf565b34801561030657600080fd5b506101cd610315366004611620565b6106ea565b34801561032657600080fd5b506101ab610335366004611639565b610703565b34801561034657600080fd5b506101ab610355366004611665565b610797565b34801561036657600080fd5b506101cd610375366004611620565b61080a565b34801561038657600080fd5b506101ab610395366004611620565b610820565b3480156103a657600080fd5b506101ab6103b5366004611665565b6108d9565b3480156103c657600080fd5b506102046103d53660046115b4565b610930565b3480156103e657600080fd5b506101ab6103f53660046116c4565b61096f565b34801561040657600080fd5b50610204600080516020611cdf83398151915281565b34801561042857600080fd5b506101cd610437366004611639565b610ab6565b34801561044857600080fd5b50610204600081565b34801561045d57600080fd5b506101ab61046c366004611665565b610adf565b34801561047d57600080fd5b506101ab61048c366004611776565b610b36565b34801561049d57600080fd5b506102046104ac3660046117a0565b610bc7565b3480156104bd57600080fd5b506101ab6104cc366004611620565b610c0c565b3480156104dd57600080fd5b506102046104ec366004611620565b60009081526001602052604090205490565b34801561050a57600080fd5b506101ab610519366004611639565b610cdf565b6101ab61052c3660046117a0565b610d05565b34801561053d57600080fd5b50600254610204565b600080516020611cdf83398151915261055f8133610e2e565b600061056f898989898989610930565b905061057b8184610e95565b6000817f4cf4410cc57040e44862ef0f45f3dd5a5e02db8eb8add648d4b0e236f1d07dca8b8b8b8b8b8a6040516105b796959493929190611872565b60405180910390a3505050505050505050565b6000600160e060020a031982167f7965db0b00000000000000000000000000000000000000000000000000000000148061062d57507f01ffc9a700000000000000000000000000000000000000000000000000000000600160e060020a03198316145b92915050565b600080516020611cff83398151915261064d816000610ab6565b61065b5761065b8133610e2e565b600061066b888888888888610930565b90506106778185610faf565b6106868160008a8a8a8a611068565b61068f81611189565b5050505050505050565b6000818152600160205260408120546001811180156106b85750428111155b9392505050565b6000828152602081905260409020600101546106db8133610e2e565b6106e583836111c5565b505050565b60008181526001602052604081205481905b1192915050565b600160a060020a03811633146107895760405160e560020a62461bcd02815260206004820152602f60248201527f416363657373436f6e74726f6c3a2063616e206f6e6c792072656e6f756e636560448201527f20726f6c657320666f722073656c66000000000000000000000000000000000060648201526084015b60405180910390fd5b6107938282611249565b5050565b600080516020611cff8339815191526107b08133610e2e565b81600160a060020a0316633f4ba83a6040518163ffffffff1660e060020a028152600401600060405180830381600087803b1580156107ee57600080fd5b505af1158015610802573d6000803e3d6000fd5b505050505050565b60008181526001602081905260408220546106fc565b3330146108985760405160e560020a62461bcd02815260206004820152602b60248201527f54696d656c6f636b436f6e74726f6c6c65723a2063616c6c6572206d7573742060448201527f62652074696d656c6f636b0000000000000000000000000000000000000000006064820152608401610780565b60025460408051918252602082018390527f11c24f4ead16507c69ac467fbd5e4eed5fb5c699626d2cc6d66421df253886d5910160405180910390a1600255565b600080516020611cff8339815191526108f28133610e2e565b81600160a060020a0316638456cb596040518163ffffffff1660e060020a028152600401600060405180830381600087803b1580156107ee57600080fd5b600086868686868660405160200161094d96959493929190611872565b6040516020818303038152906040528051906020012090509695505050505050565b600080516020611cdf8339815191526109888133610e2e565b8887146109aa5760405160e560020a62461bcd028152600401610780906118b0565b8885146109cc5760405160e560020a62461bcd028152600401610780906118b0565b60006109de8b8b8b8b8b8b8b8b610bc7565b90506109ea8184610e95565b60005b8a811015610aa85780827f4cf4410cc57040e44862ef0f45f3dd5a5e02db8eb8add648d4b0e236f1d07dca8e8e85818110610a2a57610a2a61190d565b9050602002016020810190610a3f9190611665565b8d8d86818110610a5157610a5161190d565b905060200201358c8c87818110610a6a57610a6a61190d565b9050602002810190610a7c9190611926565b8c8b604051610a9096959493929190611872565b60405180910390a3610aa181611986565b90506109ed565b505050505050505050505050565b600091825260208281526040808420600160a060020a0393909316845291905290205460ff1690565b600080516020611cff833981519152610af88133610e2e565b81600160a060020a03166336e9332d6040518163ffffffff1660e060020a028152600401600060405180830381600087803b1580156107ee57600080fd5b600080516020611cff833981519152610b4f8133610e2e565b6040517fe65a011700000000000000000000000000000000000000000000000000000000815260048101839052600160a060020a0384169063e65a011790602401600060405180830381600087803b158015610baa57600080fd5b505af1158015610bbe573d6000803e3d6000fd5b50505050505050565b60008888888888888888604051602001610be8989796959493929190611a2f565b60405160208183030381529060405280519060200120905098975050505050505050565b600080516020611cdf833981519152610c258133610e2e565b610c2e8261080a565b610ca35760405160e560020a62461bcd02815260206004820152603160248201527f54696d656c6f636b436f6e74726f6c6c65723a206f7065726174696f6e20636160448201527f6e6e6f742062652063616e63656c6c65640000000000000000000000000000006064820152608401610780565b6000828152600160205260408082208290555183917fbaa1eb22f2a492ba1a5fea61b8df4d27c6c8b5f3971e63bb58fa14ff72eedb7091a25050565b600082815260208190526040902060010154610cfb8133610e2e565b6106e58383611249565b600080516020611cff833981519152610d1f816000610ab6565b610d2d57610d2d8133610e2e565b878614610d4f5760405160e560020a62461bcd028152600401610780906118b0565b878414610d715760405160e560020a62461bcd028152600401610780906118b0565b6000610d838a8a8a8a8a8a8a8a610bc7565b9050610d8f8185610faf565b60005b89811015610e1857610e0882828d8d85818110610db157610db161190d565b9050602002016020810190610dc69190611665565b8c8c86818110610dd857610dd861190d565b905060200201358b8b87818110610df157610df161190d565b9050602002810190610e039190611926565b611068565b610e1181611986565b9050610d92565b50610e2281611189565b50505050505050505050565b610e388282610ab6565b61079357610e5081600160a060020a031660146112ae565b610e5b8360206112ae565b604051602001610e6c929190611b23565b60408051601f198184030181529082905260e560020a62461bcd02825261078091600401611ba4565b610e9e826106ea565b15610f145760405160e560020a62461bcd02815260206004820152602f60248201527f54696d656c6f636b436f6e74726f6c6c65723a206f7065726174696f6e20616c60448201527f7265616479207363686564756c656400000000000000000000000000000000006064820152608401610780565b600254811015610f8f5760405160e560020a62461bcd02815260206004820152602660248201527f54696d656c6f636b436f6e74726f6c6c65723a20696e73756666696369656e7460448201527f2064656c617900000000000000000000000000000000000000000000000000006064820152608401610780565b610f998142611bd7565b6000928352600160205260409092209190915550565b610fb882610699565b610fd75760405160e560020a62461bcd02815260040161078090611bef565b801580610ff35750600081815260016020819052604090912054145b6107935760405160e560020a62461bcd02815260206004820152602660248201527f54696d656c6f636b436f6e74726f6c6c65723a206d697373696e67206465706560448201527f6e64656e637900000000000000000000000000000000000000000000000000006064820152608401610780565b600084600160a060020a0316848484604051611085929190611c4c565b60006040518083038185875af1925050503d80600081146110c2576040519150601f19603f3d011682016040523d82523d6000602084013e6110c7565b606091505b50509050806111415760405160e560020a62461bcd02815260206004820152603360248201527f54696d656c6f636b436f6e74726f6c6c65723a20756e6465726c79696e67207460448201527f72616e73616374696f6e207265766572746564000000000000000000000000006064820152608401610780565b85877fc2617efa69bab66782fa219543714338489c4e9e178271560a91b82c3f612b58878787876040516111789493929190611c5c565b60405180910390a350505050505050565b61119281610699565b6111b15760405160e560020a62461bcd02815260040161078090611bef565b600090815260016020819052604090912055565b6111cf8282610ab6565b61079357600082815260208181526040808320600160a060020a03851684529091529020805460ff191660011790556112053390565b600160a060020a031681600160a060020a0316837f2f8788117e7eff1d82e926ec794901d17c78024a50270940304540a733656f0d60405160405180910390a45050565b6112538282610ab6565b1561079357600082815260208181526040808320600160a060020a0385168085529252808320805460ff1916905551339285917ff6391f5c32d9c69d2a47ea670b442974b53935d1edc7fd64eb21e047a839171b9190a45050565b606060006112bd836002611c8f565b6112c8906002611bd7565b67ffffffffffffffff8111156112e0576112e0611cae565b6040519080825280601f01601f19166020018201604052801561130a576020820181803683370190505b5090507f3000000000000000000000000000000000000000000000000000000000000000816000815181106113415761134161190d565b6020010190600160f860020a031916908160001a9053507f78000000000000000000000000000000000000000000000000000000000000008160018151811061138c5761138c61190d565b6020010190600160f860020a031916908160001a90535060006113b0846002611c8f565b6113bb906001611bd7565b90505b600181111561145e577f303132333435363738396162636465660000000000000000000000000000000085600f16601081106113fc576113fc61190d565b1a7f0100000000000000000000000000000000000000000000000000000000000000028282815181106114315761143161190d565b6020010190600160f860020a031916908160001a90535060109094049361145781611cc7565b90506113be565b5083156106b85760405160e560020a62461bcd02815260206004820181905260248201527f537472696e67733a20686578206c656e67746820696e73756666696369656e746044820152606401610780565b8035600160a060020a03811681146114c757600080fd5b919050565b60008083601f8401126114de57600080fd5b50813567ffffffffffffffff8111156114f657600080fd5b60208301915083602082850101111561150e57600080fd5b9250929050565b600080600080600080600060c0888a03121561153057600080fd5b611539886114b0565b965060208801359550604088013567ffffffffffffffff81111561155c57600080fd5b6115688a828b016114cc565b989b979a50986060810135976080820135975060a09091013595509350505050565b60006020828403121561159c57600080fd5b8135600160e060020a0319811681146106b857600080fd5b60008060008060008060a087890312156115cd57600080fd5b6115d6876114b0565b955060208701359450604087013567ffffffffffffffff8111156115f957600080fd5b61160589828a016114cc565b979a9699509760608101359660809091013595509350505050565b60006020828403121561163257600080fd5b5035919050565b6000806040838503121561164c57600080fd5b8235915061165c602084016114b0565b90509250929050565b60006020828403121561167757600080fd5b6106b8826114b0565b60008083601f84011261169257600080fd5b50813567ffffffffffffffff8111156116aa57600080fd5b602083019150836020808302850101111561150e57600080fd5b600080600080600080600080600060c08a8c0312156116e257600080fd5b893567ffffffffffffffff808211156116fa57600080fd5b6117068d838e01611680565b909b50995060208c013591508082111561171f57600080fd5b61172b8d838e01611680565b909950975060408c013591508082111561174457600080fd5b506117518c828d01611680565b9a9d999c50979a969997986060880135976080810135975060a0013595509350505050565b6000806040838503121561178957600080fd5b611792836114b0565b946020939093013593505050565b60008060008060008060008060a0898b0312156117bc57600080fd5b883567ffffffffffffffff808211156117d457600080fd5b6117e08c838d01611680565b909a50985060208b01359150808211156117f957600080fd5b6118058c838d01611680565b909850965060408b013591508082111561181e57600080fd5b5061182b8b828c01611680565b999c989b509699959896976060870135966080013595509350505050565b81835281816020850137506000828201602090810191909152601f909101601f19169091010190565b600160a060020a038716815285602082015260a06040820152600061189b60a083018688611849565b60608301949094525060800152949350505050565b60208082526023908201527f54696d656c6f636b436f6e74726f6c6c65723a206c656e677468206d69736d6160408201527f7463680000000000000000000000000000000000000000000000000000000000606082015260800190565b60e060020a634e487b7102600052603260045260246000fd5b6000808335601e1984360301811261193d57600080fd5b83018035915067ffffffffffffffff82111561195857600080fd5b60200191503681900382131561150e57600080fd5b60e060020a634e487b7102600052601160045260246000fd5b600060001982141561199a5761199a61196d565b5060010190565b818352602080840193600091908185020181018584845b87811015611a225782840389528135601e198836030181126119d957600080fd5b8701803567ffffffffffffffff8111156119f257600080fd5b803603891315611a0157600080fd5b611a0e8682898501611849565b9a87019a95505050908401906001016119b8565b5091979650505050505050565b60a0808252810188905260008960c08301825b8b811015611a7057600160a060020a03611a5b846114b0565b16825260209283019290910190600101611a42565b5083810360208501528881527f07ffffffffffffffffffffffffffffffffffffffffffffffffffffffffffffff891115611aa957600080fd5b602089029150818a602083013781810191505060208101600081526020848303016040850152611ada81888a6119a1565b6060850196909652505050608001529695505050505050565b60005b83811015611b0e578181015183820152602001611af6565b83811115611b1d576000848401525b50505050565b7f416363657373436f6e74726f6c3a206163636f756e7420000000000000000000815260008351611b5b816017850160208801611af3565b7f206973206d697373696e6720726f6c65200000000000000000000000000000006017918401918201528351611b98816028840160208801611af3565b01602801949350505050565b6020815260008251806020840152611bc3816040850160208701611af3565b601f01601f19169190910160400192915050565b60008219821115611bea57611bea61196d565b500190565b6020808252602a908201527f54696d656c6f636b436f6e74726f6c6c65723a206f7065726174696f6e20697360408201527f206e6f7420726561647900000000000000000000000000000000000000000000606082015260800190565b8183823760009101908152919050565b600160a060020a0385168152836020820152606060408201526000611c85606083018486611849565b9695505050505050565b6000816000190483118215151615611ca957611ca961196d565b500290565b60e060020a634e487b7102600052604160045260246000fd5b600081611cd657611cd661196d565b50600019019056feb09aa5aeb3702cfd50b6b62bc4532604938f21248a27a1d5ca736082b6819cc1d8aa0f3194971a2a116679f7c2090f6939c8d4e01a2a8d7e41d55e5351469e63a2646970667358221220c0b2d105e8f33f2328618f517df433a6071cebbfc93c8a7abf694ed9683a8b6864736f6c634300080a00335f58e3a2316349923ce3780f8d587db2d72378aed66a8261c916544fa6846ca5b09aa5aeb3702cfd50b6b62bc4532604938f21248a27a1d5ca736082b6819cc1d8aa0f3194971a2a116679f7c2090f6939c8d4e01a2a8d7e41d55e5351469e63",
  "immutableReferences": {},
  "source": "// SPDX-License-Identifier: MIT\n\npragma solidity ^0.8.0;\n\nimport \"@openzeppelin/contracts/governance/TimelockController.sol\";\n\nimport \"../interfaces/IVault.sol\";\n\n/// @title VaultTimelock: A contract that owns all deployed implementations of IVault for safety\ncontract VaultTimelock is TimelockController {\n    /* Constructors */\n    constructor(\n        uint256 _minDelay,\n        address[] memory _proposers,\n        address[] memory _executors\n    ) TimelockController(_minDelay, _proposers, _executors) {}\n\n    /* No timelock functions */\n\n    function earn(\n        address _vaultAddress,\n        uint256 _maxMarketMovement\n    ) public onlyRole(EXECUTOR_ROLE) {\n        IVault(_vaultAddress).earn(_maxMarketMovement);\n    }\n\n    function farm(address _vaultAddress) public onlyRole(EXECUTOR_ROLE) {\n        IVault(_vaultAddress).farm();\n    }\n\n    function pause(address _vaultAddress) public onlyRole(EXECUTOR_ROLE) {\n        IVault(_vaultAddress).pause();\n    }\n\n    function unpause(address _vaultAddress) public onlyRole(EXECUTOR_ROLE) {\n        IVault(_vaultAddress).unpause();\n    }\n\n}\n",
  "sourcePath": "/Users/kristophm/Documents/workspace/zorro-protocol/contracts/timelock/VaultTimelock.sol",
  "compiler": {
    "name": "solc",
    "version": "0.8.10+commit.fc410830.Emscripten.clang"
  },
  "schemaVersion": "3.4.4",
  "updatedAt": "2022-04-07T12:24:25.873Z",
  "devdoc": {
    "kind": "dev",
    "methods": {
      "cancel(bytes32)": {
        "details": "Cancel an operation. Requirements: - the caller must have the 'proposer' role."
      },
      "execute(address,uint256,bytes,bytes32,bytes32)": {
        "details": "Execute an (ready) operation containing a single transaction. Emits a {CallExecuted} event. Requirements: - the caller must have the 'executor' role."
      },
      "executeBatch(address[],uint256[],bytes[],bytes32,bytes32)": {
        "details": "Execute an (ready) operation containing a batch of transactions. Emits one {CallExecuted} event per transaction in the batch. Requirements: - the caller must have the 'executor' role."
      },
      "getMinDelay()": {
        "details": "Returns the minimum delay for an operation to become valid. This value can be changed by executing an operation that calls `updateDelay`."
      },
      "getRoleAdmin(bytes32)": {
        "details": "Returns the admin role that controls `role`. See {grantRole} and {revokeRole}. To change a role's admin, use {_setRoleAdmin}."
      },
      "getTimestamp(bytes32)": {
        "details": "Returns the timestamp at with an operation becomes ready (0 for unset operations, 1 for done operations)."
      },
      "grantRole(bytes32,address)": {
        "details": "Grants `role` to `account`. If `account` had not been already granted `role`, emits a {RoleGranted} event. Requirements: - the caller must have ``role``'s admin role."
      },
      "hasRole(bytes32,address)": {
        "details": "Returns `true` if `account` has been granted `role`."
      },
      "hashOperation(address,uint256,bytes,bytes32,bytes32)": {
        "details": "Returns the identifier of an operation containing a single transaction."
      },
      "hashOperationBatch(address[],uint256[],bytes[],bytes32,bytes32)": {
        "details": "Returns the identifier of an operation containing a batch of transactions."
      },
      "isOperation(bytes32)": {
        "details": "Returns whether an id correspond to a registered operation. This includes both Pending, Ready and Done operations."
      },
      "isOperationDone(bytes32)": {
        "details": "Returns whether an operation is done or not."
      },
      "isOperationPending(bytes32)": {
        "details": "Returns whether an operation is pending or not."
      },
      "isOperationReady(bytes32)": {
        "details": "Returns whether an operation is ready or not."
      },
      "renounceRole(bytes32,address)": {
        "details": "Revokes `role` from the calling account. Roles are often managed via {grantRole} and {revokeRole}: this function's purpose is to provide a mechanism for accounts to lose their privileges if they are compromised (such as when a trusted device is misplaced). If the calling account had been revoked `role`, emits a {RoleRevoked} event. Requirements: - the caller must be `account`."
      },
      "revokeRole(bytes32,address)": {
        "details": "Revokes `role` from `account`. If `account` had been granted `role`, emits a {RoleRevoked} event. Requirements: - the caller must have ``role``'s admin role."
      },
      "schedule(address,uint256,bytes,bytes32,bytes32,uint256)": {
        "details": "Schedule an operation containing a single transaction. Emits a {CallScheduled} event. Requirements: - the caller must have the 'proposer' role."
      },
      "scheduleBatch(address[],uint256[],bytes[],bytes32,bytes32,uint256)": {
        "details": "Schedule an operation containing a batch of transactions. Emits one {CallScheduled} event per transaction in the batch. Requirements: - the caller must have the 'proposer' role."
      },
      "supportsInterface(bytes4)": {
        "details": "See {IERC165-supportsInterface}."
      },
      "updateDelay(uint256)": {
        "details": "Changes the minimum timelock duration for future operations. Emits a {MinDelayChange} event. Requirements: - the caller must be the timelock itself. This can only be achieved by scheduling and later executing an operation where the timelock is the target and the data is the ABI-encoded call to this function."
      }
    },
    "title": "VaultTimelock: A contract that owns all deployed implementations of IVault for safety",
    "version": 1
  },
  "userdoc": {
    "kind": "user",
    "methods": {},
    "version": 1
  }
}