{
  "contractName": "VaultAlpacaLeveragedBTCB",
  "abi": [
    {
      "anonymous": false,
      "inputs": [
        {
          "indexed": true,
          "internalType": "uint256",
          "name": "_amount",
          "type": "uint256"
        }
      ],
      "name": "Buyback",
      "type": "event"
    },
    {
      "anonymous": false,
      "inputs": [
        {
          "indexed": true,
          "internalType": "address",
          "name": "previousOwner",
          "type": "address"
        },
        {
          "indexed": true,
          "internalType": "address",
          "name": "newOwner",
          "type": "address"
        }
      ],
      "name": "OwnershipTransferred",
      "type": "event"
    },
    {
      "anonymous": false,
      "inputs": [
        {
          "indexed": false,
          "internalType": "address",
          "name": "account",
          "type": "address"
        }
      ],
      "name": "Paused",
      "type": "event"
    },
    {
      "anonymous": false,
      "inputs": [
        {
          "indexed": true,
          "internalType": "uint256",
          "name": "_amount",
          "type": "uint256"
        }
      ],
      "name": "RevShare",
      "type": "event"
    },
    {
      "anonymous": false,
      "inputs": [
        {
          "indexed": false,
          "internalType": "address",
          "name": "_govAddress",
          "type": "address"
        }
      ],
      "name": "SetGov",
      "type": "event"
    },
    {
      "anonymous": false,
      "inputs": [
        {
          "indexed": false,
          "internalType": "bool",
          "name": "_onlyGov",
          "type": "bool"
        }
      ],
      "name": "SetOnlyGov",
      "type": "event"
    },
    {
      "anonymous": false,
      "inputs": [
        {
          "indexed": false,
          "internalType": "address",
          "name": "_rewardsAddress",
          "type": "address"
        }
      ],
      "name": "SetRewardsAddress",
      "type": "event"
    },
    {
      "anonymous": false,
      "inputs": [
        {
          "indexed": false,
          "internalType": "uint256",
          "name": "_entranceFeeFactor",
          "type": "uint256"
        },
        {
          "indexed": false,
          "internalType": "uint256",
          "name": "_withdrawFeeFactor",
          "type": "uint256"
        },
        {
          "indexed": false,
          "internalType": "uint256",
          "name": "_controllerFee",
          "type": "uint256"
        },
        {
          "indexed": false,
          "internalType": "uint256",
          "name": "_buyBackRate",
          "type": "uint256"
        },
        {
          "indexed": false,
          "internalType": "uint256",
          "name": "_revShareRate",
          "type": "uint256"
        }
      ],
      "name": "SetSettings",
      "type": "event"
    },
    {
      "anonymous": false,
      "inputs": [
        {
          "indexed": false,
          "internalType": "address",
          "name": "_uniRouterAddress",
          "type": "address"
        }
      ],
      "name": "SetUniRouterAddress",
      "type": "event"
    },
    {
      "anonymous": false,
      "inputs": [
        {
          "indexed": false,
          "internalType": "address",
          "name": "account",
          "type": "address"
        }
      ],
      "name": "Unpaused",
      "type": "event"
    },
    {
      "inputs": [],
      "name": "ZORROAddress",
      "outputs": [
        {
          "internalType": "address",
          "name": "",
          "type": "address"
        }
      ],
      "stateMutability": "view",
      "type": "function"
    },
    {
      "inputs": [],
      "name": "burnAddress",
      "outputs": [
        {
          "internalType": "address",
          "name": "",
          "type": "address"
        }
      ],
      "stateMutability": "view",
      "type": "function"
    },
    {
      "inputs": [],
      "name": "buyBackRate",
      "outputs": [
        {
          "internalType": "uint256",
          "name": "",
          "type": "uint256"
        }
      ],
      "stateMutability": "view",
      "type": "function"
    },
    {
      "inputs": [],
      "name": "buyBackRateUL",
      "outputs": [
        {
          "internalType": "uint256",
          "name": "",
          "type": "uint256"
        }
      ],
      "stateMutability": "view",
      "type": "function"
    },
    {
      "inputs": [],
      "name": "controllerFee",
      "outputs": [
        {
          "internalType": "uint256",
          "name": "",
          "type": "uint256"
        }
      ],
      "stateMutability": "view",
      "type": "function"
    },
    {
      "inputs": [],
      "name": "controllerFeeUL",
      "outputs": [
        {
          "internalType": "uint256",
          "name": "",
          "type": "uint256"
        }
      ],
      "stateMutability": "view",
      "type": "function"
    },
    {
      "inputs": [],
      "name": "defaultStablecoin",
      "outputs": [
        {
          "internalType": "address",
          "name": "",
          "type": "address"
        }
      ],
      "stateMutability": "view",
      "type": "function"
    },
    {
      "inputs": [
        {
          "internalType": "uint256",
          "name": "_wantAmt",
          "type": "uint256"
        }
      ],
      "name": "depositWantToken",
      "outputs": [
        {
          "internalType": "uint256",
          "name": "sharesAdded",
          "type": "uint256"
        }
      ],
      "stateMutability": "nonpayable",
      "type": "function"
    },
    {
      "inputs": [
        {
          "internalType": "uint256",
          "name": "_maxMarketMovementAllowed",
          "type": "uint256"
        }
      ],
      "name": "earn",
      "outputs": [],
      "stateMutability": "nonpayable",
      "type": "function"
    },
    {
      "inputs": [],
      "name": "earnedAddress",
      "outputs": [
        {
          "internalType": "address",
          "name": "",
          "type": "address"
        }
      ],
      "stateMutability": "view",
      "type": "function"
    },
    {
      "inputs": [],
      "name": "entranceFeeFactor",
      "outputs": [
        {
          "internalType": "uint256",
          "name": "",
          "type": "uint256"
        }
      ],
      "stateMutability": "view",
      "type": "function"
    },
    {
      "inputs": [],
      "name": "entranceFeeFactorLL",
      "outputs": [
        {
          "internalType": "uint256",
          "name": "",
          "type": "uint256"
        }
      ],
      "stateMutability": "view",
      "type": "function"
    },
    {
      "inputs": [
        {
          "internalType": "uint256",
          "name": "_amountUSD",
          "type": "uint256"
        },
        {
          "internalType": "uint256",
          "name": "_maxMarketMovementAllowed",
          "type": "uint256"
        }
      ],
      "name": "exchangeUSDForWantToken",
      "outputs": [
        {
          "internalType": "uint256",
          "name": "wantObtained",
          "type": "uint256"
        }
      ],
      "stateMutability": "nonpayable",
      "type": "function"
    },
    {
      "inputs": [
        {
          "internalType": "uint256",
          "name": "_amount",
          "type": "uint256"
        },
        {
          "internalType": "uint256",
          "name": "_maxMarketMovementAllowed",
          "type": "uint256"
        }
      ],
      "name": "exchangeWantTokenForUSD",
      "outputs": [
        {
          "internalType": "uint256",
          "name": "usdObtained",
          "type": "uint256"
        }
      ],
      "stateMutability": "nonpayable",
      "type": "function"
    },
    {
      "inputs": [],
      "name": "farm",
      "outputs": [],
      "stateMutability": "nonpayable",
      "type": "function"
    },
    {
      "inputs": [],
      "name": "farmContractAddress",
      "outputs": [
        {
          "internalType": "address",
          "name": "",
          "type": "address"
        }
      ],
      "stateMutability": "view",
      "type": "function"
    },
    {
      "inputs": [],
      "name": "feeDenominator",
      "outputs": [
        {
          "internalType": "uint256",
          "name": "",
          "type": "uint256"
        }
      ],
      "stateMutability": "view",
      "type": "function"
    },
    {
      "inputs": [],
      "name": "govAddress",
      "outputs": [
        {
          "internalType": "address",
          "name": "",
          "type": "address"
        }
      ],
      "stateMutability": "view",
      "type": "function"
    },
    {
      "inputs": [
        {
          "internalType": "address",
          "name": "_token",
          "type": "address"
        },
        {
          "internalType": "uint256",
          "name": "_amount",
          "type": "uint256"
        },
        {
          "internalType": "address",
          "name": "_to",
          "type": "address"
        }
      ],
      "name": "inCaseTokensGetStuck",
      "outputs": [],
      "stateMutability": "nonpayable",
      "type": "function"
    },
    {
      "inputs": [
        {
          "internalType": "address",
          "name": "_timelockOwner",
          "type": "address"
        },
        {
          "components": [
            {
              "components": [
                {
                  "components": [
                    {
                      "internalType": "uint256",
                      "name": "pid",
                      "type": "uint256"
                    },
                    {
                      "internalType": "bool",
                      "name": "isHomeChain",
                      "type": "bool"
                    },
                    {
                      "internalType": "bool",
                      "name": "isFarmable",
                      "type": "bool"
                    }
                  ],
                  "internalType": "struct IVault.VaultConfig",
                  "name": "config",
                  "type": "tuple"
                },
                {
                  "components": [
                    {
                      "internalType": "address",
                      "name": "govAddress",
                      "type": "address"
                    },
                    {
                      "internalType": "address",
                      "name": "zorroControllerAddress",
                      "type": "address"
                    },
                    {
                      "internalType": "address",
                      "name": "zorroXChainController",
                      "type": "address"
                    },
                    {
                      "internalType": "address",
                      "name": "ZORROAddress",
                      "type": "address"
                    },
                    {
                      "internalType": "address",
                      "name": "zorroStakingVault",
                      "type": "address"
                    },
                    {
                      "internalType": "address",
                      "name": "wantAddress",
                      "type": "address"
                    },
                    {
                      "internalType": "address",
                      "name": "token0Address",
                      "type": "address"
                    },
                    {
                      "internalType": "address",
                      "name": "token1Address",
                      "type": "address"
                    },
                    {
                      "internalType": "address",
                      "name": "earnedAddress",
                      "type": "address"
                    },
                    {
                      "internalType": "address",
                      "name": "farmContractAddress",
                      "type": "address"
                    },
                    {
                      "internalType": "address",
                      "name": "rewardsAddress",
                      "type": "address"
                    },
                    {
                      "internalType": "address",
                      "name": "poolAddress",
                      "type": "address"
                    },
                    {
                      "internalType": "address",
                      "name": "uniRouterAddress",
                      "type": "address"
                    },
                    {
                      "internalType": "address",
                      "name": "zorroLPPool",
                      "type": "address"
                    },
                    {
                      "internalType": "address",
                      "name": "zorroLPPoolOtherToken",
                      "type": "address"
                    },
                    {
                      "internalType": "address",
                      "name": "defaultStablecoin",
                      "type": "address"
                    }
                  ],
                  "internalType": "struct IVault.VaultAddresses",
                  "name": "keyAddresses",
                  "type": "tuple"
                },
                {
                  "components": [
                    {
                      "internalType": "address[]",
                      "name": "earnedToZORROPath",
                      "type": "address[]"
                    },
                    {
                      "internalType": "address[]",
                      "name": "earnedToToken0Path",
                      "type": "address[]"
                    },
                    {
                      "internalType": "address[]",
                      "name": "earnedToToken1Path",
                      "type": "address[]"
                    },
                    {
                      "internalType": "address[]",
                      "name": "stablecoinToToken0Path",
                      "type": "address[]"
                    },
                    {
                      "internalType": "address[]",
                      "name": "stablecoinToToken1Path",
                      "type": "address[]"
                    },
                    {
                      "internalType": "address[]",
                      "name": "earnedToZORLPPoolOtherTokenPath",
                      "type": "address[]"
                    },
                    {
                      "internalType": "address[]",
                      "name": "earnedToStablecoinPath",
                      "type": "address[]"
                    },
                    {
                      "internalType": "address[]",
                      "name": "stablecoinToZORROPath",
                      "type": "address[]"
                    },
                    {
                      "internalType": "address[]",
                      "name": "stablecoinToLPPoolOtherTokenPath",
                      "type": "address[]"
                    }
                  ],
                  "internalType": "struct IVault.VaultSwapPaths",
                  "name": "swapPaths",
                  "type": "tuple"
                },
                {
                  "components": [
                    {
                      "internalType": "uint256",
                      "name": "controllerFee",
                      "type": "uint256"
                    },
                    {
                      "internalType": "uint256",
                      "name": "buyBackRate",
                      "type": "uint256"
                    },
                    {
                      "internalType": "uint256",
                      "name": "revShareRate",
                      "type": "uint256"
                    },
                    {
                      "internalType": "uint256",
                      "name": "entranceFeeFactor",
                      "type": "uint256"
                    },
                    {
                      "internalType": "uint256",
                      "name": "withdrawFeeFactor",
                      "type": "uint256"
                    }
                  ],
                  "internalType": "struct IVault.VaultFees",
                  "name": "fees",
                  "type": "tuple"
                },
                {
                  "components": [
                    {
                      "internalType": "address",
                      "name": "token0PriceFeed",
                      "type": "address"
                    },
                    {
                      "internalType": "address",
                      "name": "token1PriceFeed",
                      "type": "address"
                    },
                    {
                      "internalType": "address",
                      "name": "earnTokenPriceFeed",
                      "type": "address"
                    },
                    {
                      "internalType": "address",
                      "name": "ZORPriceFeed",
                      "type": "address"
                    },
                    {
                      "internalType": "address",
                      "name": "lpPoolOtherTokenPriceFeed",
                      "type": "address"
                    },
                    {
                      "internalType": "address",
                      "name": "stablecoinPriceFeed",
                      "type": "address"
                    }
                  ],
                  "internalType": "struct IVault.VaultPriceFeeds",
                  "name": "priceFeeds",
                  "type": "tuple"
                }
              ],
              "internalType": "struct IVault.VaultBaseInit",
              "name": "baseInit",
              "type": "tuple"
            }
          ],
          "internalType": "struct IVaultAlpaca.VaultAlpacaInit",
          "name": "_initValue",
          "type": "tuple"
        }
      ],
      "name": "initialize",
      "outputs": [],
      "stateMutability": "nonpayable",
      "type": "function"
    },
    {
      "inputs": [
        {
          "internalType": "address",
          "name": "_timelockOwner",
          "type": "address"
        },
        {
          "components": [
            {
              "components": [
                {
                  "internalType": "uint256",
                  "name": "pid",
                  "type": "uint256"
                },
                {
                  "internalType": "bool",
                  "name": "isHomeChain",
                  "type": "bool"
                },
                {
                  "internalType": "bool",
                  "name": "isFarmable",
                  "type": "bool"
                }
              ],
              "internalType": "struct IVault.VaultConfig",
              "name": "config",
              "type": "tuple"
            },
            {
              "components": [
                {
                  "internalType": "address",
                  "name": "govAddress",
                  "type": "address"
                },
                {
                  "internalType": "address",
                  "name": "zorroControllerAddress",
                  "type": "address"
                },
                {
                  "internalType": "address",
                  "name": "zorroXChainController",
                  "type": "address"
                },
                {
                  "internalType": "address",
                  "name": "ZORROAddress",
                  "type": "address"
                },
                {
                  "internalType": "address",
                  "name": "zorroStakingVault",
                  "type": "address"
                },
                {
                  "internalType": "address",
                  "name": "wantAddress",
                  "type": "address"
                },
                {
                  "internalType": "address",
                  "name": "token0Address",
                  "type": "address"
                },
                {
                  "internalType": "address",
                  "name": "token1Address",
                  "type": "address"
                },
                {
                  "internalType": "address",
                  "name": "earnedAddress",
                  "type": "address"
                },
                {
                  "internalType": "address",
                  "name": "farmContractAddress",
                  "type": "address"
                },
                {
                  "internalType": "address",
                  "name": "rewardsAddress",
                  "type": "address"
                },
                {
                  "internalType": "address",
                  "name": "poolAddress",
                  "type": "address"
                },
                {
                  "internalType": "address",
                  "name": "uniRouterAddress",
                  "type": "address"
                },
                {
                  "internalType": "address",
                  "name": "zorroLPPool",
                  "type": "address"
                },
                {
                  "internalType": "address",
                  "name": "zorroLPPoolOtherToken",
                  "type": "address"
                },
                {
                  "internalType": "address",
                  "name": "defaultStablecoin",
                  "type": "address"
                }
              ],
              "internalType": "struct IVault.VaultAddresses",
              "name": "keyAddresses",
              "type": "tuple"
            },
            {
              "components": [
                {
                  "internalType": "address[]",
                  "name": "earnedToZORROPath",
                  "type": "address[]"
                },
                {
                  "internalType": "address[]",
                  "name": "earnedToToken0Path",
                  "type": "address[]"
                },
                {
                  "internalType": "address[]",
                  "name": "earnedToToken1Path",
                  "type": "address[]"
                },
                {
                  "internalType": "address[]",
                  "name": "stablecoinToToken0Path",
                  "type": "address[]"
                },
                {
                  "internalType": "address[]",
                  "name": "stablecoinToToken1Path",
                  "type": "address[]"
                },
                {
                  "internalType": "address[]",
                  "name": "earnedToZORLPPoolOtherTokenPath",
                  "type": "address[]"
                },
                {
                  "internalType": "address[]",
                  "name": "earnedToStablecoinPath",
                  "type": "address[]"
                },
                {
                  "internalType": "address[]",
                  "name": "stablecoinToZORROPath",
                  "type": "address[]"
                },
                {
                  "internalType": "address[]",
                  "name": "stablecoinToLPPoolOtherTokenPath",
                  "type": "address[]"
                }
              ],
              "internalType": "struct IVault.VaultSwapPaths",
              "name": "swapPaths",
              "type": "tuple"
            },
            {
              "components": [
                {
                  "internalType": "uint256",
                  "name": "controllerFee",
                  "type": "uint256"
                },
                {
                  "internalType": "uint256",
                  "name": "buyBackRate",
                  "type": "uint256"
                },
                {
                  "internalType": "uint256",
                  "name": "revShareRate",
                  "type": "uint256"
                },
                {
                  "internalType": "uint256",
                  "name": "entranceFeeFactor",
                  "type": "uint256"
                },
                {
                  "internalType": "uint256",
                  "name": "withdrawFeeFactor",
                  "type": "uint256"
                }
              ],
              "internalType": "struct IVault.VaultFees",
              "name": "fees",
              "type": "tuple"
            },
            {
              "components": [
                {
                  "internalType": "address",
                  "name": "token0PriceFeed",
                  "type": "address"
                },
                {
                  "internalType": "address",
                  "name": "token1PriceFeed",
                  "type": "address"
                },
                {
                  "internalType": "address",
                  "name": "earnTokenPriceFeed",
                  "type": "address"
                },
                {
                  "internalType": "address",
                  "name": "ZORPriceFeed",
                  "type": "address"
                },
                {
                  "internalType": "address",
                  "name": "lpPoolOtherTokenPriceFeed",
                  "type": "address"
                },
                {
                  "internalType": "address",
                  "name": "stablecoinPriceFeed",
                  "type": "address"
                }
              ],
              "internalType": "struct IVault.VaultPriceFeeds",
              "name": "priceFeeds",
              "type": "tuple"
            }
          ],
          "internalType": "struct IVault.VaultBaseInit",
          "name": "_initValue",
          "type": "tuple"
        }
      ],
      "name": "initialize",
      "outputs": [],
      "stateMutability": "nonpayable",
      "type": "function"
    },
    {
      "inputs": [],
      "name": "isFarmable",
      "outputs": [
        {
          "internalType": "bool",
          "name": "",
          "type": "bool"
        }
      ],
      "stateMutability": "view",
      "type": "function"
    },
    {
      "inputs": [],
      "name": "isHomeChain",
      "outputs": [
        {
          "internalType": "bool",
          "name": "",
          "type": "bool"
        }
      ],
      "stateMutability": "view",
      "type": "function"
    },
    {
      "inputs": [],
      "name": "lastEarnBlock",
      "outputs": [
        {
          "internalType": "uint256",
          "name": "",
          "type": "uint256"
        }
      ],
      "stateMutability": "view",
      "type": "function"
    },
    {
      "inputs": [],
      "name": "lendingToken",
      "outputs": [
        {
          "internalType": "address",
          "name": "",
          "type": "address"
        }
      ],
      "stateMutability": "view",
      "type": "function"
    },
    {
      "inputs": [],
      "name": "maxMarketMovementAllowed",
      "outputs": [
        {
          "internalType": "uint256",
          "name": "",
          "type": "uint256"
        }
      ],
      "stateMutability": "view",
      "type": "function"
    },
    {
      "inputs": [],
      "name": "onlyGov",
      "outputs": [
        {
          "internalType": "bool",
          "name": "",
          "type": "bool"
        }
      ],
      "stateMutability": "view",
      "type": "function"
    },
    {
      "inputs": [],
      "name": "owner",
      "outputs": [
        {
          "internalType": "address",
          "name": "",
          "type": "address"
        }
      ],
      "stateMutability": "view",
      "type": "function"
    },
    {
      "inputs": [],
      "name": "pause",
      "outputs": [],
      "stateMutability": "nonpayable",
      "type": "function"
    },
    {
      "inputs": [],
      "name": "paused",
      "outputs": [
        {
          "internalType": "bool",
          "name": "",
          "type": "bool"
        }
      ],
      "stateMutability": "view",
      "type": "function"
    },
    {
      "inputs": [],
      "name": "pid",
      "outputs": [
        {
          "internalType": "uint256",
          "name": "",
          "type": "uint256"
        }
      ],
      "stateMutability": "view",
      "type": "function"
    },
    {
      "inputs": [],
      "name": "poolAddress",
      "outputs": [
        {
          "internalType": "address",
          "name": "",
          "type": "address"
        }
      ],
      "stateMutability": "view",
      "type": "function"
    },
    {
      "inputs": [
        {
          "internalType": "address",
          "name": "",
          "type": "address"
        }
      ],
      "name": "priceFeeds",
      "outputs": [
        {
          "internalType": "contract AggregatorV3Interface",
          "name": "",
          "type": "address"
        }
      ],
      "stateMutability": "view",
      "type": "function"
    },
    {
      "inputs": [],
      "name": "principalDebt",
      "outputs": [
        {
          "internalType": "uint256",
          "name": "",
          "type": "uint256"
        }
      ],
      "stateMutability": "view",
      "type": "function"
    },
    {
      "inputs": [],
      "name": "profitDebt",
      "outputs": [
        {
          "internalType": "uint256",
          "name": "",
          "type": "uint256"
        }
      ],
      "stateMutability": "view",
      "type": "function"
    },
    {
      "inputs": [],
      "name": "renounceOwnership",
      "outputs": [],
      "stateMutability": "nonpayable",
      "type": "function"
    },
    {
      "inputs": [],
      "name": "revShareRate",
      "outputs": [
        {
          "internalType": "uint256",
          "name": "",
          "type": "uint256"
        }
      ],
      "stateMutability": "view",
      "type": "function"
    },
    {
      "inputs": [],
      "name": "revShareRateUL",
      "outputs": [
        {
          "internalType": "uint256",
          "name": "",
          "type": "uint256"
        }
      ],
      "stateMutability": "view",
      "type": "function"
    },
    {
      "inputs": [],
      "name": "rewardsAddress",
      "outputs": [
        {
          "internalType": "address",
          "name": "",
          "type": "address"
        }
      ],
      "stateMutability": "view",
      "type": "function"
    },
    {
      "inputs": [
        {
          "internalType": "uint16",
          "name": "_index",
          "type": "uint16"
        },
        {
          "internalType": "address",
          "name": "_addr",
          "type": "address"
        }
      ],
      "name": "setContractAddress",
      "outputs": [],
      "stateMutability": "nonpayable",
      "type": "function"
    },
    {
      "inputs": [
        {
          "internalType": "uint256",
          "name": "_entranceFeeFactor",
          "type": "uint256"
        },
        {
          "internalType": "uint256",
          "name": "_withdrawFeeFactor",
          "type": "uint256"
        },
        {
          "internalType": "uint256",
          "name": "_controllerFee",
          "type": "uint256"
        },
        {
          "internalType": "uint256",
          "name": "_buyBackRate",
          "type": "uint256"
        },
        {
          "internalType": "uint256",
          "name": "_revShareRate",
          "type": "uint256"
        }
      ],
      "name": "setFeeSettings",
      "outputs": [],
      "stateMutability": "nonpayable",
      "type": "function"
    },
    {
      "inputs": [
        {
          "internalType": "address",
          "name": "_govAddress",
          "type": "address"
        }
      ],
      "name": "setGov",
      "outputs": [],
      "stateMutability": "nonpayable",
      "type": "function"
    },
    {
      "inputs": [
        {
          "internalType": "bool",
          "name": "_isFarmable",
          "type": "bool"
        }
      ],
      "name": "setIsFarmable",
      "outputs": [],
      "stateMutability": "nonpayable",
      "type": "function"
    },
    {
      "inputs": [
        {
          "internalType": "uint256",
          "name": "_slippageNumerator",
          "type": "uint256"
        }
      ],
      "name": "setMaxMarketMovementAllowed",
      "outputs": [],
      "stateMutability": "nonpayable",
      "type": "function"
    },
    {
      "inputs": [
        {
          "internalType": "bool",
          "name": "_onlyGov",
          "type": "bool"
        }
      ],
      "name": "setOnlyGov",
      "outputs": [],
      "stateMutability": "nonpayable",
      "type": "function"
    },
    {
      "inputs": [
        {
          "internalType": "uint256",
          "name": "_pid",
          "type": "uint256"
        }
      ],
      "name": "setPid",
      "outputs": [],
      "stateMutability": "nonpayable",
      "type": "function"
    },
    {
      "inputs": [
        {
          "internalType": "address",
          "name": "_token",
          "type": "address"
        },
        {
          "internalType": "address",
          "name": "_priceFeedAddress",
          "type": "address"
        }
      ],
      "name": "setPriceFeed",
      "outputs": [],
      "stateMutability": "nonpayable",
      "type": "function"
    },
    {
      "inputs": [
        {
          "internalType": "address[]",
          "name": "_path",
          "type": "address[]"
        }
      ],
      "name": "setSwapPaths",
      "outputs": [],
      "stateMutability": "nonpayable",
      "type": "function"
    },
    {
      "inputs": [],
      "name": "sharesTotal",
      "outputs": [
        {
          "internalType": "uint256",
          "name": "",
          "type": "uint256"
        }
      ],
      "stateMutability": "view",
      "type": "function"
    },
    {
      "inputs": [
        {
          "internalType": "address",
          "name": "",
          "type": "address"
        },
        {
          "internalType": "address",
          "name": "",
          "type": "address"
        }
      ],
      "name": "swapPathLength",
      "outputs": [
        {
          "internalType": "uint16",
          "name": "",
          "type": "uint16"
        }
      ],
      "stateMutability": "view",
      "type": "function"
    },
    {
      "inputs": [
        {
          "internalType": "address",
          "name": "",
          "type": "address"
        },
        {
          "internalType": "address",
          "name": "",
          "type": "address"
        },
        {
          "internalType": "uint256",
          "name": "",
          "type": "uint256"
        }
      ],
      "name": "swapPaths",
      "outputs": [
        {
          "internalType": "address",
          "name": "",
          "type": "address"
        }
      ],
      "stateMutability": "view",
      "type": "function"
    },
    {
      "inputs": [],
      "name": "token0Address",
      "outputs": [
        {
          "internalType": "address",
          "name": "",
          "type": "address"
        }
      ],
      "stateMutability": "view",
      "type": "function"
    },
    {
      "inputs": [],
      "name": "token1Address",
      "outputs": [
        {
          "internalType": "address",
          "name": "",
          "type": "address"
        }
      ],
      "stateMutability": "view",
      "type": "function"
    },
    {
      "inputs": [
        {
          "internalType": "address",
          "name": "newOwner",
          "type": "address"
        }
      ],
      "name": "transferOwnership",
      "outputs": [],
      "stateMutability": "nonpayable",
      "type": "function"
    },
    {
      "inputs": [],
      "name": "unpause",
      "outputs": [],
      "stateMutability": "nonpayable",
      "type": "function"
    },
    {
      "inputs": [],
      "name": "vaultActions",
      "outputs": [
        {
          "internalType": "address",
          "name": "",
          "type": "address"
        }
      ],
      "stateMutability": "view",
      "type": "function"
    },
    {
      "inputs": [],
      "name": "wantAddress",
      "outputs": [
        {
          "internalType": "address",
          "name": "",
          "type": "address"
        }
      ],
      "stateMutability": "view",
      "type": "function"
    },
    {
      "inputs": [],
      "name": "withdrawFeeFactor",
      "outputs": [
        {
          "internalType": "uint256",
          "name": "",
          "type": "uint256"
        }
      ],
      "stateMutability": "view",
      "type": "function"
    },
    {
      "inputs": [],
      "name": "withdrawFeeFactorLL",
      "outputs": [
        {
          "internalType": "uint256",
          "name": "",
          "type": "uint256"
        }
      ],
      "stateMutability": "view",
      "type": "function"
    },
    {
      "inputs": [
        {
          "internalType": "uint256",
          "name": "_wantAmt",
          "type": "uint256"
        }
      ],
      "name": "withdrawWantToken",
      "outputs": [
        {
          "internalType": "uint256",
          "name": "sharesRemoved",
          "type": "uint256"
        }
      ],
      "stateMutability": "nonpayable",
      "type": "function"
    },
    {
      "inputs": [],
      "name": "zorroControllerAddress",
      "outputs": [
        {
          "internalType": "address",
          "name": "",
          "type": "address"
        }
      ],
      "stateMutability": "view",
      "type": "function"
    },
    {
      "inputs": [],
      "name": "zorroLPPool",
      "outputs": [
        {
          "internalType": "address",
          "name": "",
          "type": "address"
        }
      ],
      "stateMutability": "view",
      "type": "function"
    },
    {
      "inputs": [],
      "name": "zorroLPPoolOtherToken",
      "outputs": [
        {
          "internalType": "address",
          "name": "",
          "type": "address"
        }
      ],
      "stateMutability": "view",
      "type": "function"
    },
    {
      "inputs": [],
      "name": "zorroStakingVault",
      "outputs": [
        {
          "internalType": "address",
          "name": "",
          "type": "address"
        }
      ],
      "stateMutability": "view",
      "type": "function"
    },
    {
      "inputs": [],
      "name": "zorroXChainController",
      "outputs": [
        {
          "internalType": "address",
          "name": "",
          "type": "address"
        }
      ],
      "stateMutability": "view",
      "type": "function"
    }
  ],
  "bytecode": "0x608060405234801561001057600080fd5b50613e18806100206000396000f3fe608060405234801561001057600080fd5b50600436106103f8576000357c0100000000000000000000000000000000000000000000000000000000900480637153ef8611610227578063b3545c0111610142578063e65a0117116100d5578063edf5e585116100a4578063edf5e5851461081a578063f05c09b314610827578063f106845414610834578063f2fde38b1461083d578063f5046a291461085057600080fd5b8063e65a0117146107ce578063e7198474146107e1578063e7a03679146107f4578063ebfba7c41461080757600080fd5b8063c862745611610111578063c86274561461078c578063cfad57a214610795578063d7cb416f146107a8578063e502a88d146107bb57600080fd5b8063b3545c01146103fd578063b61bb80a14610766578063c0973eed14610779578063c302a4d0146106c457600080fd5b8063866b2018116101ba5780639fc33a9f116101895780639fc33a9f1461071a578063a4d2b0831461072d578063aaaca55814610740578063b1414dbb1461075357600080fd5b8063866b2018146106c45780638da5cb5b146106cd57806393efb7e4146106de5780639dcb511a146106f157600080fd5b80637ff36fbe116101f65780637ff36fbe1461068d57806383f01939146106a05780638456cb59146106b357806385f02dd6146106bb57600080fd5b80637153ef861461064b57806376e112861461065e5780637a8d130f146106715780637bf604d81461067a57600080fd5b8063320d47cc116103175780635e835270116102aa578063677379e511610279578063677379e51461061457806368f541621461062757806370d5ae0514610630578063715018a61461064357600080fd5b80635e835270146105c85780635fc77d43146105db578063648794a4146105ee57806367206d401461060157600080fd5b806344a3955e116102e657806344a3955e1461058957806346008a071461059257806355ebedec146105aa5780635c975abb146105bd57600080fd5b8063320d47cc1461055d5780633214471f1461057057806336e9332d146105795780633f4ba83a1461058157600080fd5b80631755ff211161038f578063211019d71161035e578063211019d7146103fd5780632209b59e146104f55780632337b0b11461050857806325cdf69c1461054a57600080fd5b80631755ff21146104a5578063178a8d07146104d0578063180b0d7e146104d95780631b0d8aab146104e257600080fd5b80630daef321116103cb5780630daef3211461044a5780630fa4e01e1461048057806312bc4b9b146104895780631334903f1461049c57600080fd5b8063061c7d48146103fd5780630761a1721461041957806307df6047146104225780630b6bb30b14610437575b600080fd5b61040661138881565b6040519081526020015b60405180910390f35b61040660e85481565b610435610430366004612f8f565b610863565b005b610435610445366004612fdd565b610b78565b60cb54610470907501000000000000000000000000000000000000000000900460ff1681565b6040519015158152602001610410565b61040660e15481565b61043561049736600461316d565b610c26565b61040660df5481565b60d9546104b890600160a060020a031681565b604051600160a060020a039091168152602001610410565b61040660dd5481565b61040661271081565b6104356104f03660046131a2565b610c5f565b6104066105033660046131a2565b610c91565b6105376105163660046131bb565b60e660209081526000928352604080842090915290825290205461ffff1681565b60405161ffff9091168152602001610410565b61043561055836600461364c565b610ed1565b61043561056b3660046131a2565b610f56565b61040660de5481565b610435610f88565b610435610fc2565b61040660e45481565b60cb546104b8906101009004600160a060020a031681565b6104066105b83660046131a2565b610ffe565b60975460ff16610470565b6104b86105d63660046136e4565b6112c6565b60cd546104b890600160a060020a031681565b6104066105fc366004613725565b61130b565b61043561060f366004613747565b6113c2565b60d0546104b890600160a060020a031681565b61040660e05481565b60d7546104b890600160a060020a031681565b6104356114ca565b610435610659366004613789565b611501565b61043561066c3660046131bb565b6117f5565b61040660e25481565b60da546104b890600160a060020a031681565b60d2546104b890600160a060020a031681565b6104356106ae366004612fdd565b61182c565b61043561186c565b61040660dc5481565b61040661232881565b603354600160a060020a03166104b8565b6104356106ec3660046137c4565b6118a6565b6104b86106ff366004613814565b60e760205260009081526040902054600160a060020a031681565b60d5546104b890600160a060020a031681565b60cf546104b890600160a060020a031681565b60e9546104b890600160a060020a031681565b60cc546104b890600160a060020a031681565b60d6546104b890600160a060020a031681565b60d8546104b890600160a060020a031681565b61040660e35481565b6104356107a3366004613814565b611d83565b60d3546104b890600160a060020a031681565b6104066107c9366004613725565b611e18565b6104356107dc3660046131a2565b611e89565b60d4546104b890600160a060020a031681565b60d1546104b890600160a060020a031681565b60db546104b890600160a060020a031681565b60c9546104709060ff1681565b60cb546104709060ff1681565b61040660ca5481565b61043561084b366004613814565b6123a1565b60ce546104b890600160a060020a031681565b603354600160a060020a031633146108995760405160e560020a62461bcd02815260040161089090613831565b60405180910390fd5b61ffff82166108c15760d28054600160a060020a031916600160a060020a0383161790555050565b8161ffff16600114156108ed5760d38054600160a060020a031916600160a060020a0383161790555050565b8161ffff16600214156109195760d68054600160a060020a031916600160a060020a0383161790555050565b8161ffff16600314156109455760ce8054600160a060020a031916600160a060020a0383161790555050565b8161ffff16600414156109715760d18054600160a060020a031916600160a060020a0383161790555050565b8161ffff166005141561099d5760d98054600160a060020a031916600160a060020a0383161790555050565b8161ffff16600614156109c95760d48054600160a060020a031916600160a060020a0383161790555050565b8161ffff16600714156109f55760d58054600160a060020a031916600160a060020a0383161790555050565b8161ffff1660081415610a215760d88054600160a060020a031916600160a060020a0383161790555050565b8161ffff1660091415610a4d5760d78054600160a060020a031916600160a060020a0383161790555050565b8161ffff16600a1415610a795760da8054600160a060020a031916600160a060020a0383161790555050565b8161ffff16600b1415610aa55760db8054600160a060020a031916600160a060020a0383161790555050565b8161ffff16600c1415610ad15760cc8054600160a060020a031916600160a060020a0383161790555050565b8161ffff16600d1415610afd5760cd8054600160a060020a031916600160a060020a0383161790555050565b8161ffff16600e1415610b295760cf8054600160a060020a031916600160a060020a0383161790555050565b60405160e560020a62461bcd02815260206004820152601160248201527f757265636f67436f6e74726163744964780000000000000000000000000000006044820152606401610890565b5050565b60cb546101009004600160a060020a03163314610baa5760405160e560020a62461bcd02815260040161089090613866565b60cb805482151575010000000000000000000000000000000000000000000275ff000000000000000000000000000000000000000000199091161790556040517f125177ac7b8930dac1e59c2b30b1b6b9191b30af40cf6bbb5d20fec4d44be60f90610c1b90831515815260200190565b60405180910390a150565b603354600160a060020a03163314610c535760405160e560020a62461bcd02815260040161089090613831565b610c5c81612456565b50565b603354600160a060020a03163314610c8c5760405160e560020a62461bcd02815260040161089090613831565b60ca55565b60cc54600090600160a060020a031633600160a060020a031614610cfa5760405160e560020a62461bcd02815260206004820152601060248201527f217a6f72726f436f6e74726f6c6c6572000000000000000000000000000000006044820152606401610890565b60026065541415610d205760405160e560020a62461bcd0281526004016108909061389d565b600260655560975460ff1615610d4b5760405160e560020a62461bcd028152600401610890906138d4565b60008211610d9e5760405160e560020a62461bcd02815260206004820152601e60248201527f57616e7420746f6b656e206465706f736974206d757374206265203e203000006044820152606401610890565b60d154610db690600160a060020a0316333085612519565b5060d0546040517ff55850b40000000000000000000000000000000000000000000000000000000081523060048201528291600091600160a060020a039091169063f55850b490602401602060405180830381865afa158015610e1d573d6000803e3d6000fd5b505050506040513d601f19601f82011682018060405250810190610e41919061390b565b9050600081118015610e555750600060e454115b15610e8d57610e666127108261393d565b60df5460e454610e76908661393d565b610e80919061393d565b610e8a919061395c565b91505b8160e46000828254610e9f9190613981565b925050819055508260e26000828254610eb89190613981565b90915550610ec690506125d0565b506001606555919050565b600054610100900460ff16610eec5760005460ff1615610ef0565b303b155b610f0f5760405160e560020a62461bcd02815260040161089090613999565b600054610100900460ff16158015610f31576000805461ffff19166101011790555b610f3f8383600001516118a6565b8015610f51576000805461ff00191690555b505050565b603354600160a060020a03163314610f835760405160e560020a62461bcd02815260040161089090613831565b60e855565b60026065541415610fae5760405160e560020a62461bcd0281526004016108909061389d565b6002606555610fbb6125d0565b6001606555565b60cb546101009004600160a060020a03163314610ff45760405160e560020a62461bcd02815260040161089090613866565b610ffc6127f6565b565b60cc54600090600160a060020a031633600160a060020a0316146110675760405160e560020a62461bcd02815260206004820152601060248201527f217a6f72726f436f6e74726f6c6c6572000000000000000000000000000000006044820152606401610890565b6002606554141561108d5760405160e560020a62461bcd0281526004016108909061389d565b600260655560975460ff16156110b85760405160e560020a62461bcd028152600401610890906138d4565b6000821161110b5760405160e560020a62461bcd02815260206004820152600760248201527f6e656757616e74000000000000000000000000000000000000000000000000006044820152606401610890565b60d0546040517ff55850b4000000000000000000000000000000000000000000000000000000008152306004820152600091600160a060020a03169063f55850b490602401602060405180830381865afa15801561116d573d6000803e3d6000fd5b505050506040513d601f19601f82011682018060405250810190611191919061390b565b90508060e454846111a2919061393d565b6111ac919061395c565b915060e4548211156111be5760e45491505b8160e460008282546111d091906139f6565b909155505060e05461271011156111ff5761271060e054846111f2919061393d565b6111fc919061395c565b92505b61120883612895565b60d15460405160e060020a6370a08231028152306004820152600091600160a060020a0316906370a0823190602401602060405180830381865afa158015611254573d6000803e3d6000fd5b505050506040513d601f19601f82011682018060405250810190611278919061390b565b905080841115611286578093505b8360e2600082825461129891906139f6565b909155505060cc5460d1546112ba91600160a060020a039182169116866129f9565b50506001606555919050565b60e560205282600052604060002060205281600052604060002081815481106112ee57600080fd5b600091825260209091200154600160a060020a0316925083915050565b60d05460d15460009161132b91600160a060020a03908116911685612a42565b60d0546040517f648794a40000000000000000000000000000000000000000000000000000000081526004810185905260248101849052600160a060020a039091169063648794a4906044015b6020604051808303816000875af1158015611397573d6000803e3d6000fd5b505050506040513d601f19601f820116820180604052508101906113bb919061390b565b9392505050565b60cb546101009004600160a060020a031633146113f45760405160e560020a62461bcd02815260040161089090613866565b60d454600160a060020a03848116911614156114555760405160e560020a62461bcd02815260206004820152600560248201527f21736166650000000000000000000000000000000000000000000000000000006044820152606401610890565b60d154600160a060020a03848116911614156114b65760405160e560020a62461bcd02815260206004820152600560248201527f21736166650000000000000000000000000000000000000000000000000000006044820152606401610890565b610f51600160a060020a03841682846129f9565b603354600160a060020a031633146114f75760405160e560020a62461bcd02815260040161089090613831565b610ffc6000612b26565b60cb546101009004600160a060020a031633146115335760405160e560020a62461bcd02815260040161089090613866565b6123288510156115885760405160e560020a62461bcd02815260206004820152601a60248201527f5f656e7472616e6365466565466163746f7220746f6f206c6f770000000000006044820152606401610890565b6127108511156115dd5760405160e560020a62461bcd02815260206004820152601b60248201527f5f656e7472616e6365466565466163746f7220746f6f206869676800000000006044820152606401610890565b60df8590556123288410156116375760405160e560020a62461bcd02815260206004820152601a60248201527f5f7769746864726177466565466163746f7220746f6f206c6f770000000000006044820152606401610890565b61271084111561168c5760405160e560020a62461bcd02815260206004820152601b60248201527f5f7769746864726177466565466163746f7220746f6f206869676800000000006044820152606401610890565b60e08490556113888311156116e65760405160e560020a62461bcd02815260206004820152601760248201527f5f636f6e74726f6c6c657246656520746f6f20686967680000000000000000006044820152606401610890565b60dc8390556113888211156117405760405160e560020a62461bcd02815260206004820152601560248201527f5f6275794261636b5261746520746f6f206869676800000000000000000000006044820152606401610890565b60dd82905561138881111561179a5760405160e560020a62461bcd02815260206004820152601660248201527f5f72657653686172655261746520746f6f2068696768000000000000000000006044820152606401610890565b60de819055604080518681526020810186905290810184905260608101839052608081018290527fc67e0b149a57a70fa44a531a46c2c6d8e0b242fa12f459f250012c3a5987d29a9060a00160405180910390a15050505050565b603354600160a060020a031633146118225760405160e560020a62461bcd02815260040161089090613831565b610b748282612b78565b603354600160a060020a031633146118595760405160e560020a62461bcd02815260040161089090613831565b60cb805460ff1916911515919091179055565b60cb546101009004600160a060020a0316331461189e5760405160e560020a62461bcd02815260040161089090613866565b610ffc612ba6565b600054610100900460ff166118c15760005460ff16156118c5565b303b155b6118e45760405160e560020a62461bcd02815260040161089090613999565b600054610100900460ff16158015611906576000805461ffff19166101011790555b61190e612c01565b611917836123a1565b8151805160ca5560208082015160c9805460ff191691151591909117905560409182015160cb8054838701518051750100000000000000000000000000000000000000000074ffffffffffffffffffffffffffffffffffffffffff1990931694151574ffffffffffffffffffffffffffffffffffffffff00191694909417610100600160a060020a0395861681029190911775ff0000000000000000000000000000000000000000001916929092179092558184015160cc8054600160a060020a03199081169286169290921790558286015160cd8054831691861691909117905560608084015160ce8054841691871691909117905560808085015160cf8054851691881691909117905560a085015160d18054851691881691909117905560c085015160d28054851691881691909117905560e08086015160d3805486169189169190911790559385015160d48054851691881691909117905561012085015160d58054851691881691909117905561014085015160d88054851691881691909117905561016085015160d9805485169188169190911790556101a085015160da805485169188169190911790556101c085015160db805485169188169190911790556101e09094015160d68054909316951694909417905582870151805160dc559384015160dd558385015160de559183015160df559190910151905582015151611b2490612456565b611b35826040015160200151612456565b611b46826040015160400151612456565b611b57826040015160600151612456565b611b68826040015160800151612456565b611b79826040015160a00151612456565b611b8a826040015160c00151612456565b611b9b826040015160e00151612456565b611bad82604001516101000151612456565b60d0546040808401516060015190517f8b4c5aee000000000000000000000000000000000000000000000000000000008152611c4a92600160a060020a031691638b4c5aee91611c009190600401613a0d565b600060405180830381865afa158015611c1d573d6000803e3d6000fd5b505050506040513d6000823e601f3d908101601f19168201604052611c459190810190613a5a565b612456565b60d0546040808401516080015190517f8b4c5aee000000000000000000000000000000000000000000000000000000008152611c9d92600160a060020a031691638b4c5aee91611c009190600401613a0d565b60d254608083015151611cb991600160a060020a031690612b78565b60d354608083015160200151611cd891600160a060020a031690612b78565b60d454608083015160400151611cf791600160a060020a031690612b78565b60db546080808401510151611d1591600160a060020a031690612b78565b60ce54608083015160600151611d3491600160a060020a031690612b78565b60d654608083015160a00151611d5391600160a060020a031690612b78565b60d78054600160a060020a03191661dead1790556103d960e8558015610f51576000805461ff0019169055505050565b60cb546101009004600160a060020a03163314611db55760405160e560020a62461bcd02815260040161089090613866565b60cb805474ffffffffffffffffffffffffffffffffffffffff001916610100600160a060020a038416908102919091179091556040519081527f91a8c1cc2d4a3bb60738481947a00cbb9899c822916694cf8bb1d68172fdcd5490602001610c1b565b60d05460d654600091611e3891600160a060020a03908116911685612a42565b60d0546040517fe502a88d0000000000000000000000000000000000000000000000000000000081526004810185905260248101849052600160a060020a039091169063e502a88d90604401611378565b60026065541415611eaf5760405160e560020a62461bcd0281526004016108909061389d565b600260655560975460ff1615611eda5760405160e560020a62461bcd028152600401610890906138d4565b60cb547501000000000000000000000000000000000000000000900460ff1615611f305760cb546101009004600160a060020a03163314611f305760405160e560020a62461bcd02815260040161089090613866565b611f3a6000612895565b60d15460405160e060020a6370a08231028152306004820152600091600160a060020a0316906370a0823190602401602060405180830381865afa158015611f86573d6000803e3d6000fd5b505050506040513d601f19601f82011682018060405250810190611faa919061390b565b905060008111611fff5760405160e560020a62461bcd02815260206004820152600e60248201527f3077616e744861727665737465640000000000000000000000000000000000006044820152606401610890565b60d05460d45461201c91600160a060020a03918216911683612a42565b60d054604080516101c08101825260ce54600160a060020a0390811680835260d854821660208085019190915260d654831684860181905260cf548416606086015260db54841660808601819052600084815260e780855288822054871660a089015291815281845287812054861660c0880152918252825285812054841660e086015260d4548416815260e5825285812092815291815284822080548651818402810184019097528087529296879687969590911694636945292a948a948c9492936101008501939092909183018282801561212257602002820191906000526020600020905b8154600160a060020a03168152600190910190602001808311612104575b505050918352505060d454600160a060020a03908116600090815260e56020908152604080832060db5490941683529281529082902080548351818402810184019094528084529382019390918301828280156121a857602002820191906000526020600020905b8154600160a060020a0316815260019091019060200180831161218a575b5050505050815260200161271060dc546127106121c5919061393d565b6121cf919061395c565b61ffff16815260200161271060dd546127106121eb919061393d565b6121f5919061395c565b61ffff16815260200161271060de54612710612211919061393d565b61221b919061395c565b61ffff16815260c95460ff1615156020909101526040517c010000000000000000000000000000000000000000000000000000000063ffffffff861602815261226993929190600401613b2a565b6060604051808303816000875af1158015612288573d6000803e3d6000fd5b505050506040513d601f19601f820116820180604052508101906122ac9190613ca6565b92509250925060008211806122c15750600081115b156123845760cd546122f390600160a060020a03166122e08385613981565b60d654600160a060020a03169190612a42565b60cd5460ca546040517f464e3c8b0000000000000000000000000000000000000000000000000000000081526004810191909152602481018490526044810183905260648101879052600160a060020a039091169063464e3c8b90608401600060405180830381600087803b15801561236b57600080fd5b505af115801561237f573d6000803e3d6000fd5b505050505b4360e15560e38490556123956125d0565b50506001606555505050565b603354600160a060020a031633146123ce5760405160e560020a62461bcd02815260040161089090613831565b600160a060020a03811661244d5760405160e560020a62461bcd02815260206004820152602660248201527f4f776e61626c653a206e6577206f776e657220697320746865207a65726f206160448201527f64647265737300000000000000000000000000000000000000000000000000006064820152608401610890565b610c5c81612b26565b60008160008151811061246b5761246b613cd4565b602002602001015190506000826001845161248691906139f6565b8151811061249657612496613cd4565b602090810291909101810151600160a060020a03808516600090815260e58452604080822092841682529184522085519193506124d892909190860190612ef0565b509151600160a060020a03918216600090815260e66020908152604080832094909516825292909252919020805461ffff191661ffff909216919091179055565b604051600160a060020a03808516602483015283166044820152606481018290526125ca9085907f23b872dd00000000000000000000000000000000000000000000000000000000906084015b60408051601f198184030181529190526020810180517bffffffffffffffffffffffffffffffffffffffffffffffffffffffff167fffffffff0000000000000000000000000000000000000000000000000000000090931692909217909152612c33565b50505050565b60d15460405160e060020a6370a08231028152306004820152600091600160a060020a0316906370a0823190602401602060405180830381865afa15801561261c573d6000803e3d6000fd5b505050506040513d601f19601f82011682018060405250810190612640919061390b565b60d95460d15491925061266091600160a060020a03908116911683612a42565b60d9546040517fb6b55f2500000000000000000000000000000000000000000000000000000000815260048101839052600160a060020a039091169063b6b55f2590602401600060405180830381600087803b1580156126bf57600080fd5b505af11580156126d3573d6000803e3d6000fd5b505060e95460405160e060020a6370a0823102815230600482015260009350600160a060020a0390911691506370a0823190602401602060405180830381865afa158015612725573d6000803e3d6000fd5b505050506040513d601f19601f82011682018060405250810190612749919061390b565b60d55460e95491925061276991600160a060020a03908116911683612a42565b60d55460ca546040517f0efe6a8b000000000000000000000000000000000000000000000000000000008152306004820152602481019190915260448101849052600160a060020a0390911690630efe6a8b906064015b600060405180830381600087803b1580156127da57600080fd5b505af11580156127ee573d6000803e3d6000fd5b505050505050565b60975460ff1661284b5760405160e560020a62461bcd02815260206004820152601460248201527f5061757361626c653a206e6f74207061757365640000000000000000000000006044820152606401610890565b6097805460ff191690557f5db9ee0a495bf2e6ff9c91a7834c1ba4fdd244a5e8aa4e537bd38aeae4b073aa335b604051600160a060020a03909116815260200160405180910390a1565b60d55460ca546040517fb5c5f672000000000000000000000000000000000000000000000000000000008152306004820152602481019190915260448101839052600160a060020a039091169063b5c5f67290606401600060405180830381600087803b15801561290557600080fd5b505af1158015612919573d6000803e3d6000fd5b505060e95460405160e060020a6370a0823102815230600482015260009350600160a060020a0390911691506370a0823190602401602060405180830381865afa15801561296b573d6000803e3d6000fd5b505050506040513d601f19601f8201168201806040525081019061298f919061390b565b60d95460e9549192506129af91600160a060020a03908116911683612a42565b60d9546040517f2e1a7d4d00000000000000000000000000000000000000000000000000000000815260048101839052600160a060020a0390911690632e1a7d4d906024016127c0565b604051600160a060020a038316602482015260448101829052610f519084907fa9059cbb0000000000000000000000000000000000000000000000000000000090606401612566565b6040517fdd62ed3e000000000000000000000000000000000000000000000000000000008152306004820152600160a060020a038381166024830152600091839186169063dd62ed3e90604401602060405180830381865afa158015612aac573d6000803e3d6000fd5b505050506040513d601f19601f82011682018060405250810190612ad0919061390b565b612ada9190613981565b604051600160a060020a0385166024820152604481018290529091506125ca9085907f095ea7b30000000000000000000000000000000000000000000000000000000090606401612566565b60338054600160a060020a03838116600160a060020a0319831681179093556040519116919082907f8be0079c531659141344cd1fd0a4f28419497f9722a3daafe3b4186f6b6457e090600090a35050565b600160a060020a03918216600090815260e7602052604090208054600160a060020a03191691909216179055565b60975460ff1615612bcc5760405160e560020a62461bcd028152600401610890906138d4565b6097805460ff191660011790557f62e78cea01bee320cd4e420270b5ea74000d11b0c9f74754ebdbfc544b05a2586128783390565b600054610100900460ff16612c2b5760405160e560020a62461bcd02815260040161089090613ced565b610ffc612d1b565b6000612c88826040518060400160405280602081526020017f5361666545524332303a206c6f772d6c6576656c2063616c6c206661696c656481525085600160a060020a0316612d4e9092919063ffffffff16565b805190915015610f515780806020019051810190612ca69190613d4a565b610f515760405160e560020a62461bcd02815260206004820152602a60248201527f5361666545524332303a204552433230206f7065726174696f6e20646964206e60448201527f6f742073756363656564000000000000000000000000000000000000000000006064820152608401610890565b600054610100900460ff16612d455760405160e560020a62461bcd02815260040161089090613ced565b610ffc33612b26565b6060612d5d8484600085612d65565b949350505050565b60603031831115612de15760405160e560020a62461bcd02815260206004820152602660248201527f416464726573733a20696e73756666696369656e742062616c616e636520666f60448201527f722063616c6c00000000000000000000000000000000000000000000000000006064820152608401610890565b600160a060020a0385163b612e3b5760405160e560020a62461bcd02815260206004820152601d60248201527f416464726573733a2063616c6c20746f206e6f6e2d636f6e74726163740000006044820152606401610890565b60008086600160a060020a03168587604051612e579190613d93565b60006040518083038185875af1925050503d8060008114612e94576040519150601f19603f3d011682016040523d82523d6000602084013e612e99565b606091505b5091509150612ea9828286612eb4565b979650505050505050565b60608315612ec35750816113bb565b825115612ed35782518084602001fd5b8160405160e560020a62461bcd0281526004016108909190613daf565b828054828255906000526020600020908101928215612f45579160200282015b82811115612f455782518254600160a060020a031916600160a060020a03909116178255602090920191600190910190612f10565b50612f51929150612f55565b5090565b5b80821115612f515760008155600101612f56565b600160a060020a0381168114610c5c57600080fd5b8035612f8a81612f6a565b919050565b60008060408385031215612fa257600080fd5b823561ffff81168114612fb457600080fd5b91506020830135612fc481612f6a565b809150509250929050565b8015158114610c5c57600080fd5b600060208284031215612fef57600080fd5b81356113bb81612fcf565b60e060020a634e487b7102600052604160045260246000fd5b604051610200810167ffffffffffffffff8111828210171561303757613037612ffa565b60405290565b604051610120810167ffffffffffffffff8111828210171561303757613037612ffa565b60405160a0810167ffffffffffffffff8111828210171561303757613037612ffa565b6040516060810167ffffffffffffffff8111828210171561303757613037612ffa565b604051601f8201601f1916810167ffffffffffffffff811182821017156130d0576130d0612ffa565b604052919050565b600067ffffffffffffffff8211156130f2576130f2612ffa565b5060209081020190565b600082601f83011261310d57600080fd5b8135602061312261311d836130d8565b6130a7565b8281529181028401810191818101908684111561313e57600080fd5b8286015b8481101561316257803561315581612f6a565b8352918301918301613142565b509695505050505050565b60006020828403121561317f57600080fd5b813567ffffffffffffffff81111561319657600080fd5b612d5d848285016130fc565b6000602082840312156131b457600080fd5b5035919050565b600080604083850312156131ce57600080fd5b8235612fb481612f6a565b600061020082840312156131ec57600080fd5b6131f4613013565b90506131ff82612f7f565b815261320d60208301612f7f565b602082015261321e60408301612f7f565b604082015261322f60608301612f7f565b606082015261324060808301612f7f565b608082015261325160a08301612f7f565b60a082015261326260c08301612f7f565b60c082015261327360e08301612f7f565b60e0820152610100613286818401612f7f565b90820152610120613298838201612f7f565b908201526101406132aa838201612f7f565b908201526101606132bc838201612f7f565b908201526101806132ce838201612f7f565b908201526101a06132e0838201612f7f565b908201526101c06132f2838201612f7f565b908201526101e0613304838201612f7f565b9082015292915050565b6000610120828403121561332157600080fd5b61332961303d565b9050813567ffffffffffffffff8082111561334357600080fd5b61334f858386016130fc565b8352602084013591508082111561336557600080fd5b613371858386016130fc565b6020840152604084013591508082111561338a57600080fd5b613396858386016130fc565b604084015260608401359150808211156133af57600080fd5b6133bb858386016130fc565b606084015260808401359150808211156133d457600080fd5b6133e0858386016130fc565b608084015260a08401359150808211156133f957600080fd5b613405858386016130fc565b60a084015260c084013591508082111561341e57600080fd5b61342a858386016130fc565b60c084015260e084013591508082111561344357600080fd5b61344f858386016130fc565b60e08401526101009150818401358181111561346a57600080fd5b613476868287016130fc565b8385015250505092915050565b600060a0828403121561349557600080fd5b61349d613061565b9050813581526020820135602082015260408201356040820152606082013560608201526080820135608082015292915050565b600060c082840312156134e357600080fd5b60405160c0810181811067ffffffffffffffff8211171561350657613506612ffa565b604052905080823561351781612f6a565b8152602083013561352781612f6a565b6020820152604083013561353a81612f6a565b6040820152606083013561354d81612f6a565b6060820152608083013561356081612f6a565b608082015260a083013561357381612f6a565b60a0919091015292915050565b60008183036103e081121561359457600080fd5b61359c613061565b915060608112156135ac57600080fd5b506135b5613084565b8235815260208301356135c781612fcf565b602082015260408301356135da81612fcf565b604082015281526135ee83606084016131d9565b602082015261026082013567ffffffffffffffff81111561360e57600080fd5b61361a8482850161330e565b60408301525061362e836102808401613483565b60608201526136418361032084016134d1565b608082015292915050565b6000806040838503121561365f57600080fd5b823561366a81612f6a565b9150602083013567ffffffffffffffff8082111561368757600080fd5b908401906020828703121561369b57600080fd5b6040516020810181811083821117156136b6576136b6612ffa565b6040528235828111156136c857600080fd5b6136d488828601613580565b8252508093505050509250929050565b6000806000606084860312156136f957600080fd5b833561370481612f6a565b9250602084013561371481612f6a565b929592945050506040919091013590565b6000806040838503121561373857600080fd5b50508035926020909101359150565b60008060006060848603121561375c57600080fd5b833561376781612f6a565b925060208401359150604084013561377e81612f6a565b809150509250925092565b600080600080600060a086880312156137a157600080fd5b505083359560208501359550604085013594606081013594506080013592509050565b600080604083850312156137d757600080fd5b82356137e281612f6a565b9150602083013567ffffffffffffffff8111156137fe57600080fd5b61380a85828601613580565b9150509250929050565b60006020828403121561382657600080fd5b81356113bb81612f6a565b6020808252818101527f4f776e61626c653a2063616c6c6572206973206e6f7420746865206f776e6572604082015260600190565b60208082526004908201527f21676f7600000000000000000000000000000000000000000000000000000000604082015260600190565b6020808252601f908201527f5265656e7472616e637947756172643a207265656e7472616e742063616c6c00604082015260600190565b60208082526010908201527f5061757361626c653a2070617573656400000000000000000000000000000000604082015260600190565b60006020828403121561391d57600080fd5b5051919050565b60e060020a634e487b7102600052601160045260246000fd5b600081600019048311821515161561395757613957613924565b500290565b60008261397c5760e060020a634e487b7102600052601260045260246000fd5b500490565b6000821982111561399457613994613924565b500190565b6020808252602e908201527f496e697469616c697a61626c653a20636f6e747261637420697320616c72656160408201527f647920696e697469616c697a6564000000000000000000000000000000000000606082015260800190565b600082821015613a0857613a08613924565b500390565b6020808252825182820181905260009190848201906040850190845b81811015613a4e578351600160a060020a031683529284019291840191600101613a29565b50909695505050505050565b60006020808385031215613a6d57600080fd5b825167ffffffffffffffff811115613a8457600080fd5b8301601f81018513613a9557600080fd5b8051613aa361311d826130d8565b81815290830282018301908381019087831115613abf57600080fd5b928401925b82841015612ea9578351613ad781612f6a565b82529284019290840190613ac4565b600081518084526020808501945080840160005b83811015613b1f578151600160a060020a031687529582019590820190600101613afa565b509495945050505050565b83815282602082015260606040820152613b50606082018351600160a060020a03169052565b60006020830151613b6c6080840182600160a060020a03169052565b506040830151600160a060020a03811660a0840152506060830151600160a060020a03811660c0840152506080830151600160a060020a03811660e08401525060a0830151610100613bc881850183600160a060020a03169052565b60c08501519150610120613be681860184600160a060020a03169052565b60e08601519250610140613c0481870185600160a060020a03169052565b8287015193506101c092506101608381880152613c25610220880186613ae6565b9450828801519250610180605f198887030181890152613c458685613ae6565b95508289015193506101a09250613c618389018561ffff169052565b8882015161ffff811689870152935088015161ffff81166101e08901529350613c879050565b8601518015156102008701529150613c9c9050565b5095945050505050565b600080600060608486031215613cbb57600080fd5b8351925060208401519150604084015190509250925092565b60e060020a634e487b7102600052603260045260246000fd5b6020808252602b908201527f496e697469616c697a61626c653a20636f6e7472616374206973206e6f74206960408201527f6e697469616c697a696e67000000000000000000000000000000000000000000606082015260800190565b600060208284031215613d5c57600080fd5b81516113bb81612fcf565b60005b83811015613d82578181015183820152602001613d6a565b838111156125ca5750506000910152565b60008251613da5818460208701613d67565b9190910192915050565b6020815260008251806020840152613dce816040850160208701613d67565b601f01601f1916919091016040019291505056fea2646970667358221220b07a45b2a3bd0a6a9a9795d6325a88b4ebb08b4c94958f11bcb26dcb3d37f95a64736f6c634300080a0033",
  "immutableReferences": {},
  "source": "// SPDX-License-Identifier: MIT\n\npragma solidity ^0.8.0;\n\nimport \"../interfaces/Zorro/Vaults/IVaultAlpaca.sol\";\n\nimport \"./actions/VaultActionsAlpaca.sol\";\n\nimport \"./_VaultBase.sol\";\n\n/// @title Vault contract for Alpaca strategies\ncontract VaultAlpaca is IVaultAlpaca, VaultBase {\n    /* Libraries */\n\n    using SafeERC20Upgradeable for IERC20Upgradeable;\n    using PriceFeed for AggregatorV3Interface;\n\n    /* Constructor */\n\n    /// @notice Upgradeable constructor\n    /// @param _initValue A VaultAlpacaInit struct containing all init values\n    /// @param _timelockOwner The designated timelock controller address to act as owner\n    function initialize(\n        address _timelockOwner,\n        VaultAlpacaInit memory _initValue\n    ) public initializer {\n        // Super call\n        VaultBase.initialize(_timelockOwner, _initValue.baseInit);\n    }\n\n    /* State */\n    address public lendingToken; // Lending token exchanged for supplying underlying asset (e.g. vToken) TODO: Constructor, setter\n\n    /* Investment Actions */\n\n    /// @notice Public function for farming Want token.\n    function farm() public virtual nonReentrant {\n        _farm();\n    }\n\n    /// @notice Internal function for farming Want token. Responsible for staking Want token in a MasterChef/MasterApe-like contract\n    function _farm() internal override {\n        // Get the Want token stored on this contract\n        uint256 _wantAmt = IERC20Upgradeable(wantAddress).balanceOf(\n            address(this)\n        );\n\n        // Increase allowance\n        IERC20Upgradeable(wantAddress).safeIncreaseAllowance(\n            poolAddress,\n            _wantAmt\n        );\n\n        // Deposit token to get Want token\n        IAlpacaVault(poolAddress).deposit(_wantAmt);\n\n        // Calculate resulting lending token balance\n        uint256 _lendingTokenBal = IERC20Upgradeable(lendingToken).balanceOf(\n            address(this)\n        );\n\n        // Allow the farm contract (e.g. MasterChef) the ability to transfer up to the Want amount\n        IERC20Upgradeable(lendingToken).safeIncreaseAllowance(\n            farmContractAddress,\n            _lendingTokenBal\n        );\n\n        // Deposit the Want tokens in the Farm contract\n        IFairLaunch(farmContractAddress).deposit(address(this), pid, _wantAmt);\n    }\n\n    /// @notice Internal function for unfarming Want token. Responsible for unstaking Want token from MasterChef/MasterApe contracts\n    /// @param _wantAmt the amount of Want tokens to withdraw. If 0, will only harvest and not withdraw\n    function _unfarm(uint256 _wantAmt) internal override {\n        // Withdraw tokens from the Farm contract\n        IFairLaunch(farmContractAddress).withdraw(address(this), pid, _wantAmt);\n\n        // Get balance\n        uint256 _lendingBal = IERC20Upgradeable(lendingToken).balanceOf(address(this));\n\n        // Approve\n        IERC20Upgradeable(lendingToken).safeIncreaseAllowance(\n            poolAddress,\n            _lendingBal\n        );\n\n        // Withdraw lending token to get Token0\n        IAlpacaVault(poolAddress).withdraw(_lendingBal);\n    }\n}\n\ncontract VaultAlpacaLeveragedBTCB is VaultAlpaca {}\n",
  "sourcePath": "/Users/kristophm/Documents/workspace/zorro-protocol/contracts/vaults/VaultAlpaca.sol",
  "compiler": {
    "name": "solc",
    "version": "0.8.10+commit.fc410830.Emscripten.clang"
  },
  "schemaVersion": "3.4.10",
  "updatedAt": "2022-12-12T22:23:42.432Z",
  "devdoc": {
    "kind": "dev",
    "methods": {
      "depositWantToken(uint256)": {
        "params": {
          "_wantAmt": "amount of underlying token to deposit/stake"
        },
        "returns": {
          "sharesAdded": "uint256 Number of shares added"
        }
      },
      "earn(uint256)": {
        "params": {
          "_maxMarketMovementAllowed": "The max slippage allowed. 1000 = 0 %, 995 = 0.5%, etc."
        }
      },
      "exchangeUSDForWantToken(uint256,uint256)": {
        "params": {
          "_amountUSD": "Amount of USD to exchange",
          "_maxMarketMovementAllowed": "Slippage (990 = 1%)"
        },
        "returns": {
          "wantObtained": "The amount of Want token returned"
        }
      },
      "exchangeWantTokenForUSD(uint256,uint256)": {
        "params": {
          "_amount": "Amount of want to exchange",
          "_maxMarketMovementAllowed": "Slippage (990 = 1%)"
        },
        "returns": {
          "usdObtained": "The amount of USD token returned"
        }
      },
      "inCaseTokensGetStuck(address,uint256,address)": {
        "params": {
          "_amount": "The amount of the tokens to transfer",
          "_to": "The address to transfer tokens to",
          "_token": "Address of the ERC20 token to transfer"
        }
      },
      "initialize(address,(((uint256,bool,bool),(address,address,address,address,address,address,address,address,address,address,address,address,address,address,address,address),(address[],address[],address[],address[],address[],address[],address[],address[],address[]),(uint256,uint256,uint256,uint256,uint256),(address,address,address,address,address,address))))": {
        "params": {
          "_initValue": "A VaultAlpacaInit struct containing all init values",
          "_timelockOwner": "The designated timelock controller address to act as owner"
        }
      },
      "owner()": {
        "details": "Returns the address of the current owner."
      },
      "paused()": {
        "details": "Returns true if the contract is paused, and false otherwise."
      },
      "renounceOwnership()": {
        "details": "Leaves the contract without owner. It will not be possible to call `onlyOwner` functions anymore. Can only be called by the current owner. NOTE: Renouncing ownership will leave the contract without an owner, thereby removing any functionality that is only available to the owner."
      },
      "setFeeSettings(uint256,uint256,uint256,uint256,uint256)": {
        "params": {
          "_buyBackRate": "Buy back rate fee numerator",
          "_controllerFee": "Controller fee numerator",
          "_entranceFeeFactor": "Entrance fee numerator (higher means smaller percentage)",
          "_revShareRate": "Rev share rate fee numerator",
          "_withdrawFeeFactor": "Withdrawal fee numerator (higher means smaller percentage)"
        }
      },
      "setGov(address)": {
        "params": {
          "_govAddress": "The new gov address"
        }
      },
      "setOnlyGov(bool)": {
        "params": {
          "_onlyGov": "whether onlyGov should be enforced"
        }
      },
      "transferOwnership(address)": {
        "details": "Transfers ownership of the contract to a new account (`newOwner`). Can only be called by the current owner."
      },
      "withdrawWantToken(uint256)": {
        "params": {
          "_wantAmt": "The amount of Want token to withdraw"
        },
        "returns": {
          "sharesRemoved": "The number of shares removed"
        }
      }
    },
    "version": 1
  },
  "userdoc": {
    "kind": "user",
    "methods": {
      "depositWantToken(uint256)": {
        "notice": "Receives new deposits from user"
      },
      "earn(uint256)": {
        "notice": "The main compounding (earn) function. Reinvests profits since the last earn event."
      },
      "exchangeUSDForWantToken(uint256,uint256)": {
        "notice": "Converts USD to Want token and delivers back to this contract"
      },
      "exchangeWantTokenForUSD(uint256,uint256)": {
        "notice": "Converts Want token to USD and delivers back to this contract"
      },
      "farm()": {
        "notice": "Public function for farming Want token."
      },
      "inCaseTokensGetStuck(address,uint256,address)": {
        "notice": "Safely transfer ERC20 tokens stuck in this contract to a specified address"
      },
      "initialize(address,(((uint256,bool,bool),(address,address,address,address,address,address,address,address,address,address,address,address,address,address,address,address),(address[],address[],address[],address[],address[],address[],address[],address[],address[]),(uint256,uint256,uint256,uint256,uint256),(address,address,address,address,address,address))))": {
        "notice": "Upgradeable constructor"
      },
      "pause()": {
        "notice": "Pause contract"
      },
      "setFeeSettings(uint256,uint256,uint256,uint256,uint256)": {
        "notice": "Configure key fee parameters"
      },
      "setGov(address)": {
        "notice": "Set governor address"
      },
      "setOnlyGov(bool)": {
        "notice": "Set onlyGov property"
      },
      "unpause()": {
        "notice": "Unpause contract"
      },
      "withdrawWantToken(uint256)": {
        "notice": "Fully withdraw Want tokens from the Farm contract (100% withdrawals only)"
      }
    },
    "version": 1
  }
}