{
  "contractName": "VaultActions",
  "abi": [
    {
      "anonymous": false,
      "inputs": [
        {
          "indexed": true,
          "internalType": "address",
          "name": "previousOwner",
          "type": "address"
        },
        {
          "indexed": true,
          "internalType": "address",
          "name": "newOwner",
          "type": "address"
        }
      ],
      "name": "OwnershipTransferred",
      "type": "event"
    },
    {
      "inputs": [],
      "name": "burnAddress",
      "outputs": [
        {
          "internalType": "address",
          "name": "",
          "type": "address"
        }
      ],
      "stateMutability": "view",
      "type": "function"
    },
    {
      "inputs": [],
      "name": "owner",
      "outputs": [
        {
          "internalType": "address",
          "name": "",
          "type": "address"
        }
      ],
      "stateMutability": "view",
      "type": "function"
    },
    {
      "inputs": [],
      "name": "renounceOwnership",
      "outputs": [],
      "stateMutability": "nonpayable",
      "type": "function"
    },
    {
      "inputs": [
        {
          "internalType": "address",
          "name": "newOwner",
          "type": "address"
        }
      ],
      "name": "transferOwnership",
      "outputs": [],
      "stateMutability": "nonpayable",
      "type": "function"
    },
    {
      "inputs": [],
      "name": "uniRouterAddress",
      "outputs": [
        {
          "internalType": "address",
          "name": "",
          "type": "address"
        }
      ],
      "stateMutability": "view",
      "type": "function"
    },
    {
      "inputs": [
        {
          "internalType": "address",
          "name": "_uniRouterAddress",
          "type": "address"
        }
      ],
      "name": "initialize",
      "outputs": [],
      "stateMutability": "nonpayable",
      "type": "function"
    },
    {
      "inputs": [
        {
          "internalType": "address",
          "name": "_uniRouterAddress",
          "type": "address"
        }
      ],
      "name": "setUniRouterAddress",
      "outputs": [],
      "stateMutability": "nonpayable",
      "type": "function"
    },
    {
      "inputs": [
        {
          "internalType": "address",
          "name": "_burnAddress",
          "type": "address"
        }
      ],
      "name": "setBurnAddress",
      "outputs": [],
      "stateMutability": "nonpayable",
      "type": "function"
    },
    {
      "inputs": [
        {
          "internalType": "address",
          "name": "_token0",
          "type": "address"
        },
        {
          "internalType": "address",
          "name": "_token1",
          "type": "address"
        },
        {
          "internalType": "uint256",
          "name": "_token0Amt",
          "type": "uint256"
        },
        {
          "internalType": "uint256",
          "name": "_token1Amt",
          "type": "uint256"
        },
        {
          "internalType": "uint256",
          "name": "_maxMarketMovementAllowed",
          "type": "uint256"
        },
        {
          "internalType": "address",
          "name": "_recipient",
          "type": "address"
        }
      ],
      "name": "joinPool",
      "outputs": [],
      "stateMutability": "nonpayable",
      "type": "function"
    },
    {
      "inputs": [
        {
          "internalType": "uint256",
          "name": "_amountLP",
          "type": "uint256"
        },
        {
          "internalType": "uint256",
          "name": "_maxMarketMovementAllowed",
          "type": "uint256"
        },
        {
          "internalType": "address",
          "name": "_recipient",
          "type": "address"
        },
        {
          "components": [
            {
              "internalType": "address",
              "name": "token0",
              "type": "address"
            },
            {
              "internalType": "address",
              "name": "token1",
              "type": "address"
            },
            {
              "internalType": "address",
              "name": "poolAddress",
              "type": "address"
            },
            {
              "internalType": "address",
              "name": "lpTokenAddress",
              "type": "address"
            }
          ],
          "internalType": "struct VaultActions.ExitPoolParams",
          "name": "_exitPoolParams",
          "type": "tuple"
        }
      ],
      "name": "exitPool",
      "outputs": [],
      "stateMutability": "nonpayable",
      "type": "function"
    },
    {
      "inputs": [
        {
          "components": [
            {
              "internalType": "uint256",
              "name": "amountIn",
              "type": "uint256"
            },
            {
              "internalType": "uint256",
              "name": "priceToken0",
              "type": "uint256"
            },
            {
              "internalType": "uint256",
              "name": "priceToken1",
              "type": "uint256"
            },
            {
              "internalType": "address",
              "name": "token0",
              "type": "address"
            },
            {
              "internalType": "address",
              "name": "token1",
              "type": "address"
            },
            {
              "internalType": "uint256",
              "name": "maxMarketMovementAllowed",
              "type": "uint256"
            },
            {
              "internalType": "address[]",
              "name": "path",
              "type": "address[]"
            },
            {
              "internalType": "address",
              "name": "destination",
              "type": "address"
            }
          ],
          "internalType": "struct SafeSwapUni.SafeSwapParams",
          "name": "_swapParams",
          "type": "tuple"
        }
      ],
      "name": "safeSwap",
      "outputs": [],
      "stateMutability": "nonpayable",
      "type": "function"
    },
    {
      "inputs": [
        {
          "internalType": "uint256",
          "name": "_amount",
          "type": "uint256"
        },
        {
          "internalType": "uint256",
          "name": "_maxMarketMovementAllowed",
          "type": "uint256"
        },
        {
          "components": [
            {
              "internalType": "uint256",
              "name": "earn",
              "type": "uint256"
            },
            {
              "internalType": "uint256",
              "name": "ZOR",
              "type": "uint256"
            },
            {
              "internalType": "uint256",
              "name": "lpPoolOtherToken",
              "type": "uint256"
            },
            {
              "internalType": "uint256",
              "name": "stablecoin",
              "type": "uint256"
            }
          ],
          "internalType": "struct VaultActions.ExchangeRates",
          "name": "_rates",
          "type": "tuple"
        },
        {
          "components": [
            {
              "internalType": "address",
              "name": "earnedAddress",
              "type": "address"
            },
            {
              "internalType": "address",
              "name": "ZORROAddress",
              "type": "address"
            },
            {
              "internalType": "address",
              "name": "zorroLPPoolOtherToken",
              "type": "address"
            },
            {
              "internalType": "address[]",
              "name": "earnedToZORROPath",
              "type": "address[]"
            },
            {
              "internalType": "address[]",
              "name": "earnedToZORLPPoolOtherTokenPath",
              "type": "address[]"
            }
          ],
          "internalType": "struct VaultActions.BuybackBurnLPParams",
          "name": "_params",
          "type": "tuple"
        }
      ],
      "name": "buybackBurnLP",
      "outputs": [],
      "stateMutability": "nonpayable",
      "type": "function"
    },
    {
      "inputs": [
        {
          "internalType": "address[]",
          "name": "_path",
          "type": "address[]"
        }
      ],
      "name": "reversePath",
      "outputs": [
        {
          "internalType": "address[]",
          "name": "_newPath",
          "type": "address[]"
        }
      ],
      "stateMutability": "pure",
      "type": "function"
    }
  ],
  "bytecode": "0x608060405234801561001057600080fd5b50611edf806100206000396000f3fe608060405234801561001057600080fd5b50600436106100d35760003560e060020a9004806370d5ae05116100905780638d82ddca1161006a5780638d82ddca146101a45780638da5cb5b146101b7578063c4d66de8146101c8578063f2fde38b146101db57600080fd5b806370d5ae0514610169578063715018a61461017c5780638b4c5aee1461018457600080fd5b80630c70c281146100d857806312ad7eba146100ed5780634b0e72161461010057806358f5ab9f146101135780635da79d6314610126578063693a090b14610139575b600080fd5b6100eb6100e636600461165c565b6101ee565b005b6100eb6100fb366004611786565b61021a565b6100eb61010e36600461184f565b610246565b6100eb61012136600461186a565b6102ab565b6100eb61013436600461184f565b6102eb565b60655461014c90600160a060020a031681565b604051600160a060020a0390911681526020015b60405180910390f35b60665461014c90600160a060020a031681565b6100eb610347565b6101976101923660046118c9565b610380565b604051610160919061194a565b6100eb6101b2366004611a1a565b610454565b603354600160a060020a031661014c565b6100eb6101d636600461184f565b6106e4565b6100eb6101e936600461184f565b6107e8565b606081015161020890600160a060020a031633308761089d565b6102148484848461094e565b50505050565b8051606082015161023a91600160a060020a03909116903390309061089d565b61024381610ad8565b50565b603354600160a060020a0316331461027c5760405160e560020a62461bcd02815260040161027390611ab2565b60405180910390fd5b6066805473ffffffffffffffffffffffffffffffffffffffff1916600160a060020a0392909216919091179055565b6102c0600160a060020a03871633308761089d565b6102d5600160a060020a03861633308661089d565b6102e3868686868686610ce8565b505050505050565b603354600160a060020a031633146103185760405160e560020a62461bcd02815260040161027390611ab2565b6065805473ffffffffffffffffffffffffffffffffffffffff1916600160a060020a0392909216919091179055565b603354600160a060020a031633146103745760405160e560020a62461bcd02815260040161027390611ab2565b61037e6000610e0a565b565b80516060908067ffffffffffffffff81111561039e5761039e6115c5565b6040519080825280602002602001820160405280156103c7578160200160208202803683370190505b50915060005b818161ffff16101561044d57838161ffff16600186516103ed9190611b00565b6103f79190611b00565b8151811061040757610407611b17565b6020026020010151838261ffff168151811061042557610425611b17565b600160a060020a039092166020928302919091019091015261044681611b30565b90506103cd565b5050919050565b805161046b90600160a060020a031633308761089d565b8060200151600160a060020a03168160000151600160a060020a031614610509576105096040518061010001604052806002876104a89190611b52565b815260200184600001518152602001846020015181526020018360000151600160a060020a031681526020018360200151600160a060020a031681526020018581526020018360600151815260200130600160a060020a0316815250610ad8565b8060400151600160a060020a03168160000151600160a060020a0316146105a7576105a76040518061010001604052806002876105469190611b52565b815260200184600001518152602001846040015181526020018360000151600160a060020a031681526020018360400151600160a060020a031681526020018581526020018360800151815260200130600160a060020a0316815250610ad8565b60208101516040517f70a08231000000000000000000000000000000000000000000000000000000008152306004820152600091600160a060020a0316906370a0823190602401602060405180830381865afa15801561060b573d6000803e3d6000fd5b505050506040513d601f19601f8201168201806040525081019061062f9190611b77565b60408084015190517f70a08231000000000000000000000000000000000000000000000000000000008152306004820152919250600091600160a060020a03909116906370a0823190602401602060405180830381865afa158015610698573d6000803e3d6000fd5b505050506040513d601f19601f820116820180604052508101906106bc9190611b77565b602084015160408501516066549293506102e392859085908a90600160a060020a0316610ce8565b600054610100900460ff166106ff5760005460ff1615610703565b303b155b6107785760405160e560020a62461bcd02815260206004820152602e60248201527f496e697469616c697a61626c653a20636f6e747261637420697320616c72656160448201527f647920696e697469616c697a65640000000000000000000000000000000000006064820152608401610273565b600054610100900460ff1615801561079a576000805461ffff19166101011790555b60658054600160a060020a03841673ffffffffffffffffffffffffffffffffffffffff19918216179091556066805490911661dead17905580156107e4576000805461ff00191690555b5050565b603354600160a060020a031633146108155760405160e560020a62461bcd02815260040161027390611ab2565b600160a060020a0381166108945760405160e560020a62461bcd02815260206004820152602660248201527f4f776e61626c653a206e6577206f776e657220697320746865207a65726f206160448201527f64647265737300000000000000000000000000000000000000000000000000006064820152608401610273565b61024381610e0a565b604051600160a060020a03808516602483015283166044820152606481018290526102149085907f23b872dd00000000000000000000000000000000000000000000000000000000906084015b60408051601f198184030181529190526020810180517bffffffffffffffffffffffffffffffffffffffffffffffffffffffff167fffffffff0000000000000000000000000000000000000000000000000000000090931692909217909152610e69565b60008060008360400151600160a060020a03166318160ddd6040518163ffffffff1660e060020a028152600401602060405180830381865afa158015610998573d6000803e3d6000fd5b505050506040513d601f19601f820116820180604052508101906109bc9190611b77565b90506109d38785600001518660400151848a610f51565b92506109ea8785602001518660400151848a610f51565b6065546060860151919350610a0c91600160a060020a03908116911689611011565b60655484516020860151600160a060020a039092169163baa2abde91908a87878b610a3942610258611b90565b60405163ffffffff891660e060020a028152600160a060020a039788166004820152958716602487015260448601949094526064850192909252608484015290921660a482015260c481019190915260e40160408051808303816000875af1158015610aa9573d6000803e3d6000fd5b505050506040513d601f19601f82011682018060405250810190610acd9190611ba8565b505050505050505050565b60655481516060830151610afa92600160a060020a0391821692911690611011565b6040805160028082526060820183526000926020830190803683370190505090508160600151600160a060020a031663313ce5676040518163ffffffff1660e060020a028152600401602060405180830381865afa158015610b60573d6000803e3d6000fd5b505050506040513d601f19601f82011682018060405250810190610b849190611bcc565b81600081518110610b9757610b97611b17565b602002602001019060ff16908160ff16815250508160800151600160a060020a031663313ce5676040518163ffffffff1660e060020a028152600401602060405180830381865afa158015610bf0573d6000803e3d6000fd5b505050506040513d601f19601f82011682018060405250810190610c149190611bcc565b81600181518110610c2757610c27611b17565b60ff929092166020928302919091018201526040805160028082526060820183526000939192909183019080368337019050509050826020015181600081518110610c7457610c74611b17565b602002602001018181525050826040015181600181518110610c9857610c98611b17565b602002602001018181525050610ce38360000151828560a001518660c00151868860e0015142610258610ccb9190611b90565b606554600160a060020a0316969594939291906110f5565b505050565b606554610d0290600160a060020a03888116911686611011565b606554610d1c90600160a060020a03878116911685611011565b606554600160a060020a031663e8e33700878787876103e8610d3e8984611bef565b610d489190611b52565b6103e8610d558a8c611bef565b610d5f9190611b52565b88610d6c42610258611b90565b60405163ffffffff8a1660e060020a028152600160a060020a039889166004820152968816602488015260448701959095526064860193909352608485019190915260a484015290921660c482015260e4810191909152610104016060604051808303816000875af1158015610de6573d6000803e3d6000fd5b505050506040513d601f19601f82011682018060405250810190610acd9190611c0e565b60338054600160a060020a0383811673ffffffffffffffffffffffffffffffffffffffff19831681179093556040519116919082907f8be0079c531659141344cd1fd0a4f28419497f9722a3daafe3b4186f6b6457e090600090a35050565b6000610ebe826040518060400160405280602081526020017f5361666545524332303a206c6f772d6c6576656c2063616c6c206661696c656481525085600160a060020a03166112759092919063ffffffff16565b805190915015610ce35780806020019051810190610edc9190611c3c565b610ce35760405160e560020a62461bcd02815260206004820152602a60248201527f5361666545524332303a204552433230206f7065726174696f6e20646964206e60448201527f6f742073756363656564000000000000000000000000000000000000000000006064820152608401610273565b6040517f70a08231000000000000000000000000000000000000000000000000000000008152600160a060020a03848116600483015260009182918716906370a0823190602401602060405180830381865afa158015610fb5573d6000803e3d6000fd5b505050506040513d601f19601f82011682018060405250810190610fd99190611b77565b9050610fe7846103e8611bef565b83610ff2838a611bef565b610ffc9190611bef565b6110069190611b52565b979650505050505050565b6040517fdd62ed3e000000000000000000000000000000000000000000000000000000008152306004820152600160a060020a038381166024830152600091839186169063dd62ed3e90604401602060405180830381865afa15801561107b573d6000803e3d6000fd5b505050506040513d601f19601f8201168201806040525081019061109f9190611b77565b6110a99190611b90565b604051600160a060020a0385166024820152604481018290529091506102149085907f095ea7b300000000000000000000000000000000000000000000000000000000906064016108ea565b82516002146111495760405160e560020a62461bcd02815260206004820152600b60248201527f696e76616c6964206465630000000000000000000000000000000000000000006044820152606401610273565b60008660008151811061115e5761115e611b17565b60200260200101516000148061118e57508660018151811061118257611182611b17565b60200260200101516000145b156111a7576111a0898987898861128e565b90506111eb565b6111e888886000815181106111be576111be611b17565b6020026020010151896001815181106111d9576111d9611b17565b60200260200101518988611395565b90505b6040517f5c11d795000000000000000000000000000000000000000000000000000000008152600160a060020a038a1690635c11d79590611238908b9085908a9089908990600401611c5e565b600060405180830381600087803b15801561125257600080fd5b505af1158015611266573d6000803e3d6000fd5b50505050505050505050505050565b6060611284848460008561142e565b90505b9392505050565b60008086600160a060020a031663d06ca61f87876040518363ffffffff1660e060020a0281526004016112c2929190611c9a565b600060405180830381865afa1580156112df573d6000803e3d6000fd5b505050506040513d6000823e601f3d908101601f191682016040526113079190810190611cb3565b90508260008151811061131c5761131c611b17565b6020026020010151600a6113309190611e1f565b61133c906103e8611bef565b8360018151811061134f5761134f611b17565b6020026020010151600a6113639190611e1f565b8583600185516113739190611b00565b8151811061138357611383611b17565b6020026020010151610ff29190611bef565b6000816000815181106113aa576113aa611b17565b6020026020010151600a6113be9190611e1f565b6113ca856103e8611bef565b6113d49190611bef565b826001815181106113e7576113e7611b17565b6020026020010151600a6113fb9190611e1f565b84611406888a611bef565b6114109190611bef565b61141a9190611bef565b6114249190611b52565b9695505050505050565b606030318311156114aa5760405160e560020a62461bcd02815260206004820152602660248201527f416464726573733a20696e73756666696369656e742062616c616e636520666f60448201527f722063616c6c00000000000000000000000000000000000000000000000000006064820152608401610273565b600160a060020a0385163b6115045760405160e560020a62461bcd02815260206004820152601d60248201527f416464726573733a2063616c6c20746f206e6f6e2d636f6e74726163740000006044820152606401610273565b60008086600160a060020a031685876040516115209190611e5a565b60006040518083038185875af1925050503d806000811461155d576040519150601f19603f3d011682016040523d82523d6000602084013e611562565b606091505b50915091506110068282866060831561157c575081611287565b82511561158c5782518084602001fd5b8160405160e560020a62461bcd0281526004016102739190611e76565b8035600160a060020a03811681146115c057600080fd5b919050565b60e060020a634e487b7102600052604160045260246000fd5b6040516080810167ffffffffffffffff81118282101715611601576116016115c5565b60405290565b604051610100810167ffffffffffffffff81118282101715611601576116016115c5565b604051601f8201601f1916810167ffffffffffffffff81118282101715611654576116546115c5565b604052919050565b60008060008084860360e081121561167357600080fd5b853594506020860135935061168a604087016115a9565b92506080605f198201121561169e57600080fd5b506116a76115de565b6116b3606087016115a9565b81526116c1608087016115a9565b60208201526116d260a087016115a9565b60408201526116e360c087016115a9565b6060820152939692955090935050565b600067ffffffffffffffff82111561170d5761170d6115c5565b5060209081020190565b600082601f83011261172857600080fd5b8135602061173d611738836116f3565b61162b565b8281529181028401810191818101908684111561175957600080fd5b8286015b8481101561177b5761176e816115a9565b835291830191830161175d565b509695505050505050565b60006020828403121561179857600080fd5b813567ffffffffffffffff808211156117b057600080fd5b9083019061010082860312156117c557600080fd5b6117cd611607565b8235815260208301356020820152604083013560408201526117f1606084016115a9565b6060820152611802608084016115a9565b608082015260a083013560a082015260c08301358281111561182357600080fd5b61182f87828601611717565b60c08301525061184160e084016115a9565b60e082015295945050505050565b60006020828403121561186157600080fd5b611287826115a9565b60008060008060008060c0878903121561188357600080fd5b61188c876115a9565b955061189a602088016115a9565b94506040870135935060608701359250608087013591506118bd60a088016115a9565b90509295509295509295565b6000602082840312156118db57600080fd5b813567ffffffffffffffff8111156118f257600080fd5b6118fe84828501611717565b949350505050565b600081518084526020808501945080840160005b8381101561193f578151600160a060020a03168752958201959082019060010161191a565b509495945050505050565b6020815260006112876020830184611906565b600060a0828403121561196f57600080fd5b60405160a0810167ffffffffffffffff8282108183111715611993576119936115c5565b816040528293506119a3856115a9565b83526119b1602086016115a9565b60208401526119c2604086016115a9565b604084015260608501359150808211156119db57600080fd5b6119e786838701611717565b60608401526080850135915080821115611a0057600080fd5b50611a0d85828601611717565b6080830152505092915050565b60008060008084860360e0811215611a3157600080fd5b85359450602086013593506080603f1982011215611a4e57600080fd5b50611a576115de565b60408601358152606086013560208201526080860135604082015260a086013560608201528092505060c085013567ffffffffffffffff811115611a9a57600080fd5b611aa68782880161195d565b91505092959194509250565b6020808252818101527f4f776e61626c653a2063616c6c6572206973206e6f7420746865206f776e6572604082015260600190565b60e060020a634e487b7102600052601160045260246000fd5b600082821015611b1257611b12611ae7565b500390565b60e060020a634e487b7102600052603260045260246000fd5b600061ffff80831681811415611b4857611b48611ae7565b6001019392505050565b600082611b725760e060020a634e487b7102600052601260045260246000fd5b500490565b600060208284031215611b8957600080fd5b5051919050565b60008219821115611ba357611ba3611ae7565b500190565b60008060408385031215611bbb57600080fd5b505080516020909101519092909150565b600060208284031215611bde57600080fd5b815160ff8116811461128757600080fd5b6000816000190483118215151615611c0957611c09611ae7565b500290565b600080600060608486031215611c2357600080fd5b8351925060208401519150604084015190509250925092565b600060208284031215611c4e57600080fd5b8151801515811461128757600080fd5b85815284602082015260a060408201526000611c7d60a0830186611906565b600160a060020a0394909416606083015250608001529392505050565b8281526040602082015260006112846040830184611906565b60006020808385031215611cc657600080fd5b825167ffffffffffffffff811115611cdd57600080fd5b8301601f81018513611cee57600080fd5b8051611cfc611738826116f3565b81815290830282018301908381019087831115611d1857600080fd5b928401925b8284101561100657835182529284019290840190611d1d565b600181815b80851115611d73578160001904821115611d5757611d57611ae7565b80851615611d6457918102915b60029094049390800290611d3b565b509250929050565b600082611d8a57506001611e19565b81611d9757506000611e19565b8160018114611dad5760028114611db757611dd4565b6001915050611e19565b60ff841115611dc857611dc8611ae7565b8360020a915050611e19565b5060208310610133831016604e8410600b8410161715611df7575081810a611e19565b611e018383611d36565b8060001904821115611e1557611e15611ae7565b0290505b92915050565b600061128760ff841683611d7b565b60005b83811015611e49578181015183820152602001611e31565b838111156102145750506000910152565b60008251611e6c818460208701611e2e565b9190910192915050565b6020815260008251806020840152611e95816040850160208701611e2e565b601f01601f1916919091016040019291505056fea2646970667358221220ed28158db398728caa5746441282088f48c2979b27af72a8a1dd3f197799e0b864736f6c634300080a0033",
  "immutableReferences": {},
  "source": "// SPDX-License-Identifier: MIT\n\npragma solidity ^0.8.0;\n\nimport \"@openzeppelin/contracts-upgradeable/token/ERC20/IERC20Upgradeable.sol\";\n\nimport \"@openzeppelin/contracts-upgradeable/token/ERC20/ERC20Upgradeable.sol\";\n\nimport \"@openzeppelin/contracts-upgradeable/token/ERC20/utils/SafeERC20Upgradeable.sol\";\n\nimport \"@openzeppelin/contracts-upgradeable/access/OwnableUpgradeable.sol\";\n\nimport \"../../libraries/SafeSwap.sol\";\n\nimport \"../../libraries/PriceFeed.sol\";\n\nimport \"../../interfaces/Alpaca/IAlpacaFairLaunch.sol\";\n\nimport \"../../interfaces/Alpaca/IAlpacaVault.sol\";\n\nimport \"../../interfaces/IAMMRouter02.sol\";\n\n// TODO: Unit tests\n\ncontract VaultActions is OwnableUpgradeable {\n    /* Libraries */\n\n    using SafeERC20Upgradeable for IERC20Upgradeable;\n    using SafeSwapUni for IAMMRouter02;\n\n    /* Structs */\n\n    struct VaultAddresses {\n        address govAddress;\n        address zorroControllerAddress;\n        address zorroXChainController;\n        address ZORROAddress;\n        address zorroStakingVault;\n        address wantAddress;\n        address token0Address;\n        address token1Address;\n        address earnedAddress;\n        address farmContractAddress;\n        address rewardsAddress;\n        address poolAddress;\n        address uniRouterAddress;\n        address zorroLPPool;\n        address zorroLPPoolOtherToken;\n        address defaultStablecoin;\n    }\n\n    struct VaultFees {\n        uint256 controllerFee;\n        uint256 buyBackRate;\n        uint256 revShareRate;\n        uint256 entranceFeeFactor;\n        uint256 withdrawFeeFactor;\n    }\n\n    struct VaultPriceFeeds {\n        address token0PriceFeed;\n        address token1PriceFeed;\n        address earnTokenPriceFeed;\n        address ZORPriceFeed;\n        address lpPoolOtherTokenPriceFeed;\n        address stablecoinPriceFeed;\n    }\n\n    struct ExchangeRates {\n        uint256 earn; // Exchange rate of earn token, times 1e12\n        uint256 ZOR; // Exchange rate of ZOR token, times 1e12\n        uint256 lpPoolOtherToken; // Exchange rate of token paired with ZOR in LP pool, times 1e12\n        uint256 stablecoin; // Exchange rate of stablecoin (e.g. USDC), times 1e12\n    }\n\n    struct BuybackBurnLPParams {\n        address earnedAddress;\n        address ZORROAddress;\n        address zorroLPPoolOtherToken;\n        address[] earnedToZORROPath;\n        address[] earnedToZORLPPoolOtherTokenPath;\n    }\n\n    struct ExitPoolParams {\n        address token0;\n        address token1;\n        address poolAddress;\n        address lpTokenAddress;\n    }\n\n    /* Constructor */\n\n    /// @notice Constructor\n    /// @param _uniRouterAddress Address of Uniswap style router\n    function initialize(address _uniRouterAddress) public initializer {\n        uniRouterAddress = _uniRouterAddress;\n        burnAddress = 0x000000000000000000000000000000000000dEaD;\n    }\n\n    /* State */\n\n    address public uniRouterAddress;\n    address public burnAddress;\n\n    /* Setters */\n\n    function setUniRouterAddress(address _uniRouterAddress) external onlyOwner {\n        uniRouterAddress = _uniRouterAddress;\n    }\n\n    function setBurnAddress(address _burnAddress) external onlyOwner {\n        burnAddress = _burnAddress;\n    }\n\n    /* Functions */\n\n    // TODO: DRY: Convert all .addLiquidity() and .removeLiquidity() across the protocol\n    // to use joinPool, exitPool, below.\n\n    /// @notice Adds liquidity to the pool of this contract\n    /// @dev NOTE: Requires spending approval by caller\n    /// @param _token0 The address of Token0\n    /// @param _token1 The address of Token1\n    /// @param _token0Amt Quantity of Token0 to add\n    /// @param _token1Amt Quantity of Token1 to add\n    /// @param _maxMarketMovementAllowed The max slippage allowed for swaps. 1000 = 0 %, 995 = 0.5%, etc.\n    /// @param _recipient The recipient of the LP token\n    function joinPool(\n        address _token0,\n        address _token1,\n        uint256 _token0Amt,\n        uint256 _token1Amt,\n        uint256 _maxMarketMovementAllowed,\n        address _recipient\n    ) public {\n        // Transfer funds in\n        IERC20Upgradeable(_token0).safeTransferFrom(\n            msg.sender,\n            address(this),\n            _token0Amt\n        );\n        IERC20Upgradeable(_token1).safeTransferFrom(\n            msg.sender,\n            address(this),\n            _token1Amt\n        );\n\n        // Call internal function to add liquidity\n        _joinPool(\n            _token0,\n            _token1,\n            _token0Amt,\n            _token1Amt,\n            _maxMarketMovementAllowed,\n            _recipient\n        );\n    }\n\n    /// @notice Internal function for adding liquidity to the pool of this contract\n    /// @dev NOTE: Unlike public function, does not transfer tokens into contract (assumes already tokens already present)\n    /// @param _token0 The address of Token0\n    /// @param _token1 The address of Token1\n    /// @param _token0Amt Quantity of Token0 to add\n    /// @param _token1Amt Quantity of Token1 to add\n    /// @param _maxMarketMovementAllowed The max slippage allowed for swaps. 1000 = 0 %, 995 = 0.5%, etc.\n    /// @param _recipient The recipient of the LP token\n    function _joinPool(\n        address _token0,\n        address _token1,\n        uint256 _token0Amt,\n        uint256 _token1Amt,\n        uint256 _maxMarketMovementAllowed,\n        address _recipient\n    ) internal {\n        // Approve spending\n        IERC20Upgradeable(_token0).safeIncreaseAllowance(\n            uniRouterAddress,\n            _token0Amt\n        );\n        IERC20Upgradeable(_token1).safeIncreaseAllowance(\n            uniRouterAddress,\n            _token1Amt\n        );\n\n        // Add liquidity\n        IAMMRouter02(uniRouterAddress).addLiquidity(\n            _token0,\n            _token1,\n            _token0Amt,\n            _token1Amt,\n            (_token0Amt * _maxMarketMovementAllowed) / 1000,\n            (_token1Amt * _maxMarketMovementAllowed) / 1000,\n            _recipient,\n            block.timestamp + 600\n        );\n    }\n\n    /// @notice Removes liquidity from a pool and sends tokens back to this address\n    /// @dev NOTE: Requires caller to approve want token spending\n    /// @param _amountLP The amount of LP (Want) tokens to remove\n    /// @param _maxMarketMovementAllowed The max slippage allowed for swaps. 1000 = 0 %, 995 = 0.5%, etc.\n    /// @param _recipient The recipient of the underlying tokens at pool exit\n    function exitPool(\n        uint256 _amountLP,\n        uint256 _maxMarketMovementAllowed,\n        address _recipient,\n        ExitPoolParams memory _exitPoolParams\n    ) public {\n        // Transfer LP token in\n        IERC20Upgradeable(_exitPoolParams.lpTokenAddress).safeTransferFrom(\n            msg.sender,\n            address(this),\n            _amountLP\n        );\n\n        // Call internal exitPool()\n        _exitPool(\n            _amountLP,\n            _maxMarketMovementAllowed,\n            _recipient,\n            _exitPoolParams\n        );\n    }\n\n    /// @notice Internal version of exitPool() (Does not transfer tokens IN)\n    /// @dev NOTE: Assumes LP token is already on contract\n    /// @param _amountLP The amount of LP (Want) tokens to remove\n    /// @param _maxMarketMovementAllowed The max slippage allowed for swaps. 1000 = 0 %, 995 = 0.5%, etc.\n    /// @param _recipient The recipient of the underlying tokens at pool exit\n    function _exitPool(\n        uint256 _amountLP,\n        uint256 _maxMarketMovementAllowed,\n        address _recipient,\n        ExitPoolParams memory _exitPoolParams\n    ) internal {\n        // Init\n        uint256 _amount0Min;\n        uint256 _amount1Min;\n        // Get total supply and calculate min amounts desired based on slippage\n        uint256 _totalSupply = IERC20Upgradeable(_exitPoolParams.poolAddress)\n            .totalSupply();\n\n        {\n            _amount0Min = _calcMinAmt(\n                _amountLP,\n                _exitPoolParams.token0,\n                _exitPoolParams.poolAddress,\n                _totalSupply,\n                _maxMarketMovementAllowed\n            );\n            _amount1Min = _calcMinAmt(\n                _amountLP,\n                _exitPoolParams.token1,\n                _exitPoolParams.poolAddress,\n                _totalSupply,\n                _maxMarketMovementAllowed\n            );\n        }\n\n        // Approve\n        IERC20Upgradeable(_exitPoolParams.lpTokenAddress).safeIncreaseAllowance(\n                uniRouterAddress,\n                _amountLP\n            );\n\n        // Remove liquidity\n        IAMMRouter02(uniRouterAddress).removeLiquidity(\n            _exitPoolParams.token0,\n            _exitPoolParams.token1,\n            _amountLP,\n            _amount0Min,\n            _amount1Min,\n            _recipient,\n            block.timestamp + 600\n        );\n    }\n\n    /// @notice Calculates minimum amount out for exiting LP pool\n    /// @param _amountLP LP token qty\n    /// @param _token Address of one of the tokens in the pair\n    /// @param _poolAddress Address of LP pair\n    /// @param _totalSupply Total supply of LP tokens\n    /// @param _maxMarketMovementAllowed Slippage (990 = 1% etc.)\n    function _calcMinAmt(\n        uint256 _amountLP,\n        address _token,\n        address _poolAddress,\n        uint256 _totalSupply,\n        uint256 _maxMarketMovementAllowed\n    ) internal view returns (uint256) {\n        uint256 _balance = IERC20Upgradeable(_token).balanceOf(_poolAddress);\n        return\n            (_amountLP * _balance * _maxMarketMovementAllowed) /\n            (1000 * _totalSupply);\n    }\n\n    /// @notice Safely swaps tokens using the most suitable protocol based on token\n    /// @dev NOTE: Caller must approve tokens for spending beforehand\n    /// @param _swapParams SafeSwapParams for swap\n    function safeSwap(SafeSwapUni.SafeSwapParams memory _swapParams) public {\n        // Transfer tokens in\n        IERC20Upgradeable(_swapParams.token0).safeTransferFrom(\n            msg.sender,\n            address(this),\n            _swapParams.amountIn\n        );\n\n        // Call internal swap function\n        _safeSwap(_swapParams);\n    }\n\n    /// @notice Internal function for swapping\n    /// @dev Does not transfer tokens to this contract (assumes they are already here)\n    /// @param _swapParams SafeSwapParams for swap\n    function _safeSwap(SafeSwapUni.SafeSwapParams memory _swapParams) internal {\n        // Allowance\n        IERC20Upgradeable(_swapParams.token0).safeIncreaseAllowance(\n            uniRouterAddress,\n            _swapParams.amountIn\n        );\n\n        // Get decimal info\n        uint8[] memory _decimals = new uint8[](2);\n        _decimals[0] = ERC20Upgradeable(_swapParams.token0).decimals();\n        _decimals[1] = ERC20Upgradeable(_swapParams.token1).decimals();\n\n        // Determine exchange rates using price feed oracle\n        uint256[] memory _priceTokens = new uint256[](2);\n        _priceTokens[0] = _swapParams.priceToken0;\n        _priceTokens[1] = _swapParams.priceToken1;\n\n        // Swap\n        IAMMRouter02(uniRouterAddress).safeSwap(\n            _swapParams.amountIn,\n            _priceTokens,\n            _swapParams.maxMarketMovementAllowed,\n            _swapParams.path,\n            _decimals,\n            _swapParams.destination,\n            block.timestamp + 600\n        );\n    }\n\n    /// @notice Buys back earn token, adds liquidity, and burns the LP token\n    /// @param _amount The amount of Earn token to swap and buy back\n    /// @param _maxMarketMovementAllowed Acceptable slippage (990 = 1%)\n    /// @param _rates An ExchangeRates struct\n    /// @param _params An BuybackBurnLPParams struct specifying buyback parameters\n    function buybackBurnLP(\n        uint256 _amount,\n        uint256 _maxMarketMovementAllowed,\n        ExchangeRates memory _rates,\n        BuybackBurnLPParams memory _params\n    ) public {\n        // Transfer tokens IN\n        IERC20Upgradeable(_params.earnedAddress).safeTransferFrom(\n            msg.sender,\n            address(this),\n            _amount\n        );\n\n        // Swap to ZOR Token\n        if (_params.earnedAddress != _params.ZORROAddress) {\n            _safeSwap(\n                SafeSwapUni.SafeSwapParams({\n                    amountIn: _amount / 2,\n                    priceToken0: _rates.earn,\n                    priceToken1: _rates.ZOR,\n                    token0: _params.earnedAddress,\n                    token1: _params.ZORROAddress,\n                    maxMarketMovementAllowed: _maxMarketMovementAllowed,\n                    path: _params.earnedToZORROPath,\n                    destination: address(this)\n                })\n            );\n        }\n        // Swap to Other token\n        if (_params.earnedAddress != _params.zorroLPPoolOtherToken) {\n            _safeSwap(\n                SafeSwapUni.SafeSwapParams({\n                    amountIn: _amount / 2,\n                    priceToken0: _rates.earn,\n                    priceToken1: _rates.lpPoolOtherToken,\n                    token0: _params.earnedAddress,\n                    token1: _params.zorroLPPoolOtherToken,\n                    maxMarketMovementAllowed: _maxMarketMovementAllowed,\n                    path: _params.earnedToZORLPPoolOtherTokenPath,\n                    destination: address(this)\n                })\n            );\n        }\n\n        // Calc balances\n        uint256 _amtZorro = IERC20Upgradeable(_params.ZORROAddress).balanceOf(\n            address(this)\n        );\n        uint256 _amtOtherToken = IERC20Upgradeable(\n            _params.zorroLPPoolOtherToken\n        ).balanceOf(address(this));\n\n        // Add liquidity and burn\n        _joinPool(\n            _params.ZORROAddress,\n            _params.zorroLPPoolOtherToken,\n            _amtZorro,\n            _amtOtherToken,\n            _maxMarketMovementAllowed,\n            burnAddress\n        );\n    }\n\n    /* Utilities */\n\n    /// @notice Gets the swap path in the opposite direction of a trade\n    /// @param _path The swap path to be reversed\n    /// @return _newPath An reversed path array\n    function reversePath(address[] memory _path)\n        public\n        pure\n        returns (address[] memory _newPath)\n    {\n        uint256 _pathLength = _path.length;\n        _newPath = new address[](_pathLength);\n        for (uint16 i = 0; i < _pathLength; ++i) {\n            _newPath[i] = _path[_path.length - 1 - i];\n        }\n    }\n}\n",
  "sourcePath": "/Users/kristophm/Documents/workspace/zorro-protocol/contracts/vaults/actions/_VaultActions.sol",
  "compiler": {
    "name": "solc",
    "version": "0.8.10+commit.fc410830.Emscripten.clang"
  },
  "schemaVersion": "3.4.10",
  "updatedAt": "2022-11-24T02:03:38.423Z",
  "devdoc": {
    "kind": "dev",
    "methods": {
      "buybackBurnLP(uint256,uint256,(uint256,uint256,uint256,uint256),(address,address,address,address[],address[]))": {
        "params": {
          "_amount": "The amount of Earn token to swap and buy back",
          "_maxMarketMovementAllowed": "Acceptable slippage (990 = 1%)",
          "_params": "An BuybackBurnLPParams struct specifying buyback parameters",
          "_rates": "An ExchangeRates struct"
        }
      },
      "exitPool(uint256,uint256,address,(address,address,address,address))": {
        "details": "NOTE: Requires caller to approve want token spending",
        "params": {
          "_amountLP": "The amount of LP (Want) tokens to remove",
          "_maxMarketMovementAllowed": "The max slippage allowed for swaps. 1000 = 0 %, 995 = 0.5%, etc.",
          "_recipient": "The recipient of the underlying tokens at pool exit"
        }
      },
      "initialize(address)": {
        "params": {
          "_uniRouterAddress": "Address of Uniswap style router"
        }
      },
      "joinPool(address,address,uint256,uint256,uint256,address)": {
        "details": "NOTE: Requires spending approval by caller",
        "params": {
          "_maxMarketMovementAllowed": "The max slippage allowed for swaps. 1000 = 0 %, 995 = 0.5%, etc.",
          "_recipient": "The recipient of the LP token",
          "_token0": "The address of Token0",
          "_token0Amt": "Quantity of Token0 to add",
          "_token1": "The address of Token1",
          "_token1Amt": "Quantity of Token1 to add"
        }
      },
      "owner()": {
        "details": "Returns the address of the current owner."
      },
      "renounceOwnership()": {
        "details": "Leaves the contract without owner. It will not be possible to call `onlyOwner` functions anymore. Can only be called by the current owner. NOTE: Renouncing ownership will leave the contract without an owner, thereby removing any functionality that is only available to the owner."
      },
      "reversePath(address[])": {
        "params": {
          "_path": "The swap path to be reversed"
        },
        "returns": {
          "_newPath": "An reversed path array"
        }
      },
      "safeSwap((uint256,uint256,uint256,address,address,uint256,address[],address))": {
        "details": "NOTE: Caller must approve tokens for spending beforehand",
        "params": {
          "_swapParams": "SafeSwapParams for swap"
        }
      },
      "transferOwnership(address)": {
        "details": "Transfers ownership of the contract to a new account (`newOwner`). Can only be called by the current owner."
      }
    },
    "version": 1
  },
  "userdoc": {
    "kind": "user",
    "methods": {
      "buybackBurnLP(uint256,uint256,(uint256,uint256,uint256,uint256),(address,address,address,address[],address[]))": {
        "notice": "Buys back earn token, adds liquidity, and burns the LP token"
      },
      "exitPool(uint256,uint256,address,(address,address,address,address))": {
        "notice": "Removes liquidity from a pool and sends tokens back to this address"
      },
      "initialize(address)": {
        "notice": "Constructor"
      },
      "joinPool(address,address,uint256,uint256,uint256,address)": {
        "notice": "Adds liquidity to the pool of this contract"
      },
      "reversePath(address[])": {
        "notice": "Gets the swap path in the opposite direction of a trade"
      },
      "safeSwap((uint256,uint256,uint256,address,address,uint256,address[],address))": {
        "notice": "Safely swaps tokens using the most suitable protocol based on token"
      }
    },
    "version": 1
  }
}