{
  "contractName": "VaultAlpacaLeveragedBTCB",
  "abi": [
    {
      "anonymous": false,
      "inputs": [
        {
          "indexed": true,
          "internalType": "uint256",
          "name": "_amount",
          "type": "uint256"
        }
      ],
      "name": "Buyback",
      "type": "event"
    },
    {
      "anonymous": false,
      "inputs": [
        {
          "indexed": true,
          "internalType": "address",
          "name": "previousOwner",
          "type": "address"
        },
        {
          "indexed": true,
          "internalType": "address",
          "name": "newOwner",
          "type": "address"
        }
      ],
      "name": "OwnershipTransferred",
      "type": "event"
    },
    {
      "anonymous": false,
      "inputs": [
        {
          "indexed": false,
          "internalType": "address",
          "name": "account",
          "type": "address"
        }
      ],
      "name": "Paused",
      "type": "event"
    },
    {
      "anonymous": false,
      "inputs": [
        {
          "indexed": true,
          "internalType": "uint256",
          "name": "_amount",
          "type": "uint256"
        }
      ],
      "name": "RevShare",
      "type": "event"
    },
    {
      "anonymous": false,
      "inputs": [
        {
          "indexed": false,
          "internalType": "address",
          "name": "_govAddress",
          "type": "address"
        }
      ],
      "name": "SetGov",
      "type": "event"
    },
    {
      "anonymous": false,
      "inputs": [
        {
          "indexed": false,
          "internalType": "bool",
          "name": "_onlyGov",
          "type": "bool"
        }
      ],
      "name": "SetOnlyGov",
      "type": "event"
    },
    {
      "anonymous": false,
      "inputs": [
        {
          "indexed": false,
          "internalType": "address",
          "name": "_rewardsAddress",
          "type": "address"
        }
      ],
      "name": "SetRewardsAddress",
      "type": "event"
    },
    {
      "anonymous": false,
      "inputs": [
        {
          "indexed": false,
          "internalType": "uint256",
          "name": "_entranceFeeFactor",
          "type": "uint256"
        },
        {
          "indexed": false,
          "internalType": "uint256",
          "name": "_withdrawFeeFactor",
          "type": "uint256"
        },
        {
          "indexed": false,
          "internalType": "uint256",
          "name": "_controllerFee",
          "type": "uint256"
        },
        {
          "indexed": false,
          "internalType": "uint256",
          "name": "_buyBackRate",
          "type": "uint256"
        },
        {
          "indexed": false,
          "internalType": "uint256",
          "name": "_revShareRate",
          "type": "uint256"
        }
      ],
      "name": "SetSettings",
      "type": "event"
    },
    {
      "anonymous": false,
      "inputs": [
        {
          "indexed": false,
          "internalType": "address",
          "name": "_uniRouterAddress",
          "type": "address"
        }
      ],
      "name": "SetUniRouterAddress",
      "type": "event"
    },
    {
      "anonymous": false,
      "inputs": [
        {
          "indexed": false,
          "internalType": "address",
          "name": "account",
          "type": "address"
        }
      ],
      "name": "Unpaused",
      "type": "event"
    },
    {
      "inputs": [],
      "name": "ZORPriceFeed",
      "outputs": [
        {
          "internalType": "contract AggregatorV3Interface",
          "name": "",
          "type": "address"
        }
      ],
      "stateMutability": "view",
      "type": "function"
    },
    {
      "inputs": [],
      "name": "ZORROAddress",
      "outputs": [
        {
          "internalType": "address",
          "name": "",
          "type": "address"
        }
      ],
      "stateMutability": "view",
      "type": "function"
    },
    {
      "inputs": [],
      "name": "burnAddress",
      "outputs": [
        {
          "internalType": "address",
          "name": "",
          "type": "address"
        }
      ],
      "stateMutability": "view",
      "type": "function"
    },
    {
      "inputs": [],
      "name": "buyBackRate",
      "outputs": [
        {
          "internalType": "uint256",
          "name": "",
          "type": "uint256"
        }
      ],
      "stateMutability": "view",
      "type": "function"
    },
    {
      "inputs": [],
      "name": "buyBackRateMax",
      "outputs": [
        {
          "internalType": "uint256",
          "name": "",
          "type": "uint256"
        }
      ],
      "stateMutability": "view",
      "type": "function"
    },
    {
      "inputs": [],
      "name": "buyBackRateUL",
      "outputs": [
        {
          "internalType": "uint256",
          "name": "",
          "type": "uint256"
        }
      ],
      "stateMutability": "view",
      "type": "function"
    },
    {
      "inputs": [],
      "name": "controllerFee",
      "outputs": [
        {
          "internalType": "uint256",
          "name": "",
          "type": "uint256"
        }
      ],
      "stateMutability": "view",
      "type": "function"
    },
    {
      "inputs": [],
      "name": "controllerFeeMax",
      "outputs": [
        {
          "internalType": "uint256",
          "name": "",
          "type": "uint256"
        }
      ],
      "stateMutability": "view",
      "type": "function"
    },
    {
      "inputs": [],
      "name": "controllerFeeUL",
      "outputs": [
        {
          "internalType": "uint256",
          "name": "",
          "type": "uint256"
        }
      ],
      "stateMutability": "view",
      "type": "function"
    },
    {
      "inputs": [],
      "name": "defaultStablecoin",
      "outputs": [
        {
          "internalType": "address",
          "name": "",
          "type": "address"
        }
      ],
      "stateMutability": "view",
      "type": "function"
    },
    {
      "inputs": [
        {
          "internalType": "uint256",
          "name": "_wantAmt",
          "type": "uint256"
        }
      ],
      "name": "depositWantToken",
      "outputs": [
        {
          "internalType": "uint256",
          "name": "sharesAdded",
          "type": "uint256"
        }
      ],
      "stateMutability": "nonpayable",
      "type": "function"
    },
    {
      "inputs": [
        {
          "internalType": "uint256",
          "name": "_maxMarketMovementAllowed",
          "type": "uint256"
        }
      ],
      "name": "earn",
      "outputs": [],
      "stateMutability": "nonpayable",
      "type": "function"
    },
    {
      "inputs": [],
      "name": "earnTokenPriceFeed",
      "outputs": [
        {
          "internalType": "contract AggregatorV3Interface",
          "name": "",
          "type": "address"
        }
      ],
      "stateMutability": "view",
      "type": "function"
    },
    {
      "inputs": [],
      "name": "earnedAddress",
      "outputs": [
        {
          "internalType": "address",
          "name": "",
          "type": "address"
        }
      ],
      "stateMutability": "view",
      "type": "function"
    },
    {
      "inputs": [
        {
          "internalType": "uint256",
          "name": "",
          "type": "uint256"
        }
      ],
      "name": "earnedToStablecoinPath",
      "outputs": [
        {
          "internalType": "address",
          "name": "",
          "type": "address"
        }
      ],
      "stateMutability": "view",
      "type": "function"
    },
    {
      "inputs": [
        {
          "internalType": "uint256",
          "name": "",
          "type": "uint256"
        }
      ],
      "name": "earnedToToken0Path",
      "outputs": [
        {
          "internalType": "address",
          "name": "",
          "type": "address"
        }
      ],
      "stateMutability": "view",
      "type": "function"
    },
    {
      "inputs": [
        {
          "internalType": "uint256",
          "name": "",
          "type": "uint256"
        }
      ],
      "name": "earnedToToken1Path",
      "outputs": [
        {
          "internalType": "address",
          "name": "",
          "type": "address"
        }
      ],
      "stateMutability": "view",
      "type": "function"
    },
    {
      "inputs": [
        {
          "internalType": "uint256",
          "name": "",
          "type": "uint256"
        }
      ],
      "name": "earnedToZORLPPoolOtherTokenPath",
      "outputs": [
        {
          "internalType": "address",
          "name": "",
          "type": "address"
        }
      ],
      "stateMutability": "view",
      "type": "function"
    },
    {
      "inputs": [
        {
          "internalType": "uint256",
          "name": "",
          "type": "uint256"
        }
      ],
      "name": "earnedToZORROPath",
      "outputs": [
        {
          "internalType": "address",
          "name": "",
          "type": "address"
        }
      ],
      "stateMutability": "view",
      "type": "function"
    },
    {
      "inputs": [],
      "name": "entranceFeeFactor",
      "outputs": [
        {
          "internalType": "uint256",
          "name": "",
          "type": "uint256"
        }
      ],
      "stateMutability": "view",
      "type": "function"
    },
    {
      "inputs": [],
      "name": "entranceFeeFactorLL",
      "outputs": [
        {
          "internalType": "uint256",
          "name": "",
          "type": "uint256"
        }
      ],
      "stateMutability": "view",
      "type": "function"
    },
    {
      "inputs": [],
      "name": "entranceFeeFactorMax",
      "outputs": [
        {
          "internalType": "uint256",
          "name": "",
          "type": "uint256"
        }
      ],
      "stateMutability": "view",
      "type": "function"
    },
    {
      "inputs": [
        {
          "internalType": "uint256",
          "name": "_amountUSD",
          "type": "uint256"
        },
        {
          "internalType": "uint256",
          "name": "_maxMarketMovementAllowed",
          "type": "uint256"
        }
      ],
      "name": "exchangeUSDForWantToken",
      "outputs": [
        {
          "internalType": "uint256",
          "name": "",
          "type": "uint256"
        }
      ],
      "stateMutability": "nonpayable",
      "type": "function"
    },
    {
      "inputs": [
        {
          "internalType": "uint256",
          "name": "_amount",
          "type": "uint256"
        },
        {
          "internalType": "uint256",
          "name": "_maxMarketMovementAllowed",
          "type": "uint256"
        }
      ],
      "name": "exchangeWantTokenForUSD",
      "outputs": [
        {
          "internalType": "uint256",
          "name": "",
          "type": "uint256"
        }
      ],
      "stateMutability": "nonpayable",
      "type": "function"
    },
    {
      "inputs": [],
      "name": "farm",
      "outputs": [],
      "stateMutability": "nonpayable",
      "type": "function"
    },
    {
      "inputs": [],
      "name": "farmContractAddress",
      "outputs": [
        {
          "internalType": "address",
          "name": "",
          "type": "address"
        }
      ],
      "stateMutability": "view",
      "type": "function"
    },
    {
      "inputs": [],
      "name": "govAddress",
      "outputs": [
        {
          "internalType": "address",
          "name": "",
          "type": "address"
        }
      ],
      "stateMutability": "view",
      "type": "function"
    },
    {
      "inputs": [
        {
          "internalType": "address",
          "name": "_token",
          "type": "address"
        },
        {
          "internalType": "uint256",
          "name": "_amount",
          "type": "uint256"
        },
        {
          "internalType": "address",
          "name": "_to",
          "type": "address"
        }
      ],
      "name": "inCaseTokensGetStuck",
      "outputs": [],
      "stateMutability": "nonpayable",
      "type": "function"
    },
    {
      "inputs": [
        {
          "internalType": "address",
          "name": "_timelockOwner",
          "type": "address"
        },
        {
          "components": [
            {
              "internalType": "uint256",
              "name": "pid",
              "type": "uint256"
            },
            {
              "internalType": "bool",
              "name": "isHomeChain",
              "type": "bool"
            },
            {
              "internalType": "bool",
              "name": "isFarmable",
              "type": "bool"
            },
            {
              "components": [
                {
                  "internalType": "address",
                  "name": "govAddress",
                  "type": "address"
                },
                {
                  "internalType": "address",
                  "name": "zorroControllerAddress",
                  "type": "address"
                },
                {
                  "internalType": "address",
                  "name": "zorroXChainController",
                  "type": "address"
                },
                {
                  "internalType": "address",
                  "name": "ZORROAddress",
                  "type": "address"
                },
                {
                  "internalType": "address",
                  "name": "zorroStakingVault",
                  "type": "address"
                },
                {
                  "internalType": "address",
                  "name": "wantAddress",
                  "type": "address"
                },
                {
                  "internalType": "address",
                  "name": "token0Address",
                  "type": "address"
                },
                {
                  "internalType": "address",
                  "name": "token1Address",
                  "type": "address"
                },
                {
                  "internalType": "address",
                  "name": "earnedAddress",
                  "type": "address"
                },
                {
                  "internalType": "address",
                  "name": "farmContractAddress",
                  "type": "address"
                },
                {
                  "internalType": "address",
                  "name": "rewardsAddress",
                  "type": "address"
                },
                {
                  "internalType": "address",
                  "name": "poolAddress",
                  "type": "address"
                },
                {
                  "internalType": "address",
                  "name": "uniRouterAddress",
                  "type": "address"
                },
                {
                  "internalType": "address",
                  "name": "zorroLPPool",
                  "type": "address"
                },
                {
                  "internalType": "address",
                  "name": "zorroLPPoolOtherToken",
                  "type": "address"
                },
                {
                  "internalType": "address",
                  "name": "defaultStablecoin",
                  "type": "address"
                }
              ],
              "internalType": "struct VaultActions.VaultAddresses",
              "name": "keyAddresses",
              "type": "tuple"
            },
            {
              "internalType": "address[]",
              "name": "earnedToZORROPath",
              "type": "address[]"
            },
            {
              "internalType": "address[]",
              "name": "earnedToToken0Path",
              "type": "address[]"
            },
            {
              "internalType": "address[]",
              "name": "stablecoinToToken0Path",
              "type": "address[]"
            },
            {
              "internalType": "address[]",
              "name": "earnedToZORLPPoolOtherTokenPath",
              "type": "address[]"
            },
            {
              "internalType": "address[]",
              "name": "earnedToStablecoinPath",
              "type": "address[]"
            },
            {
              "internalType": "address[]",
              "name": "stablecoinToZORROPath",
              "type": "address[]"
            },
            {
              "internalType": "address[]",
              "name": "stablecoinToLPPoolOtherTokenPath",
              "type": "address[]"
            },
            {
              "components": [
                {
                  "internalType": "uint256",
                  "name": "controllerFee",
                  "type": "uint256"
                },
                {
                  "internalType": "uint256",
                  "name": "buyBackRate",
                  "type": "uint256"
                },
                {
                  "internalType": "uint256",
                  "name": "revShareRate",
                  "type": "uint256"
                },
                {
                  "internalType": "uint256",
                  "name": "entranceFeeFactor",
                  "type": "uint256"
                },
                {
                  "internalType": "uint256",
                  "name": "withdrawFeeFactor",
                  "type": "uint256"
                }
              ],
              "internalType": "struct VaultActions.VaultFees",
              "name": "fees",
              "type": "tuple"
            },
            {
              "components": [
                {
                  "internalType": "address",
                  "name": "token0PriceFeed",
                  "type": "address"
                },
                {
                  "internalType": "address",
                  "name": "token1PriceFeed",
                  "type": "address"
                },
                {
                  "internalType": "address",
                  "name": "earnTokenPriceFeed",
                  "type": "address"
                },
                {
                  "internalType": "address",
                  "name": "ZORPriceFeed",
                  "type": "address"
                },
                {
                  "internalType": "address",
                  "name": "lpPoolOtherTokenPriceFeed",
                  "type": "address"
                },
                {
                  "internalType": "address",
                  "name": "stablecoinPriceFeed",
                  "type": "address"
                }
              ],
              "internalType": "struct VaultActions.VaultPriceFeeds",
              "name": "priceFeeds",
              "type": "tuple"
            }
          ],
          "internalType": "struct VaultAlpaca.VaultAlpacaInit",
          "name": "_initValue",
          "type": "tuple"
        }
      ],
      "name": "initialize",
      "outputs": [],
      "stateMutability": "nonpayable",
      "type": "function"
    },
    {
      "inputs": [
        {
          "internalType": "address",
          "name": "_timelockOwner",
          "type": "address"
        }
      ],
      "name": "initialize",
      "outputs": [],
      "stateMutability": "nonpayable",
      "type": "function"
    },
    {
      "inputs": [],
      "name": "isFarmable",
      "outputs": [
        {
          "internalType": "bool",
          "name": "",
          "type": "bool"
        }
      ],
      "stateMutability": "view",
      "type": "function"
    },
    {
      "inputs": [],
      "name": "isHomeChain",
      "outputs": [
        {
          "internalType": "bool",
          "name": "",
          "type": "bool"
        }
      ],
      "stateMutability": "view",
      "type": "function"
    },
    {
      "inputs": [],
      "name": "lastEarnBlock",
      "outputs": [
        {
          "internalType": "uint256",
          "name": "",
          "type": "uint256"
        }
      ],
      "stateMutability": "view",
      "type": "function"
    },
    {
      "inputs": [],
      "name": "lpPoolOtherTokenPriceFeed",
      "outputs": [
        {
          "internalType": "contract AggregatorV3Interface",
          "name": "",
          "type": "address"
        }
      ],
      "stateMutability": "view",
      "type": "function"
    },
    {
      "inputs": [],
      "name": "maxMarketMovementAllowed",
      "outputs": [
        {
          "internalType": "uint256",
          "name": "",
          "type": "uint256"
        }
      ],
      "stateMutability": "view",
      "type": "function"
    },
    {
      "inputs": [],
      "name": "onlyGov",
      "outputs": [
        {
          "internalType": "bool",
          "name": "",
          "type": "bool"
        }
      ],
      "stateMutability": "view",
      "type": "function"
    },
    {
      "inputs": [],
      "name": "owner",
      "outputs": [
        {
          "internalType": "address",
          "name": "",
          "type": "address"
        }
      ],
      "stateMutability": "view",
      "type": "function"
    },
    {
      "inputs": [],
      "name": "pause",
      "outputs": [],
      "stateMutability": "nonpayable",
      "type": "function"
    },
    {
      "inputs": [],
      "name": "paused",
      "outputs": [
        {
          "internalType": "bool",
          "name": "",
          "type": "bool"
        }
      ],
      "stateMutability": "view",
      "type": "function"
    },
    {
      "inputs": [],
      "name": "pid",
      "outputs": [
        {
          "internalType": "uint256",
          "name": "",
          "type": "uint256"
        }
      ],
      "stateMutability": "view",
      "type": "function"
    },
    {
      "inputs": [],
      "name": "poolAddress",
      "outputs": [
        {
          "internalType": "address",
          "name": "",
          "type": "address"
        }
      ],
      "stateMutability": "view",
      "type": "function"
    },
    {
      "inputs": [],
      "name": "renounceOwnership",
      "outputs": [],
      "stateMutability": "nonpayable",
      "type": "function"
    },
    {
      "inputs": [],
      "name": "revShareRate",
      "outputs": [
        {
          "internalType": "uint256",
          "name": "",
          "type": "uint256"
        }
      ],
      "stateMutability": "view",
      "type": "function"
    },
    {
      "inputs": [],
      "name": "revShareRateMax",
      "outputs": [
        {
          "internalType": "uint256",
          "name": "",
          "type": "uint256"
        }
      ],
      "stateMutability": "view",
      "type": "function"
    },
    {
      "inputs": [],
      "name": "revShareRateUL",
      "outputs": [
        {
          "internalType": "uint256",
          "name": "",
          "type": "uint256"
        }
      ],
      "stateMutability": "view",
      "type": "function"
    },
    {
      "inputs": [],
      "name": "rewardsAddress",
      "outputs": [
        {
          "internalType": "address",
          "name": "",
          "type": "address"
        }
      ],
      "stateMutability": "view",
      "type": "function"
    },
    {
      "inputs": [
        {
          "internalType": "address",
          "name": "_burnAddress",
          "type": "address"
        }
      ],
      "name": "setBurnAddress",
      "outputs": [],
      "stateMutability": "nonpayable",
      "type": "function"
    },
    {
      "inputs": [
        {
          "internalType": "address",
          "name": "_defaultStablecoin",
          "type": "address"
        }
      ],
      "name": "setDefaultStablecoin",
      "outputs": [],
      "stateMutability": "nonpayable",
      "type": "function"
    },
    {
      "inputs": [
        {
          "internalType": "address",
          "name": "_earnedAddress",
          "type": "address"
        }
      ],
      "name": "setEarnedAddress",
      "outputs": [],
      "stateMutability": "nonpayable",
      "type": "function"
    },
    {
      "inputs": [
        {
          "internalType": "address",
          "name": "_farmContractAddress",
          "type": "address"
        }
      ],
      "name": "setFarmContractAddress",
      "outputs": [],
      "stateMutability": "nonpayable",
      "type": "function"
    },
    {
      "inputs": [
        {
          "internalType": "uint256",
          "name": "_entranceFeeFactor",
          "type": "uint256"
        },
        {
          "internalType": "uint256",
          "name": "_withdrawFeeFactor",
          "type": "uint256"
        },
        {
          "internalType": "uint256",
          "name": "_controllerFee",
          "type": "uint256"
        },
        {
          "internalType": "uint256",
          "name": "_buyBackRate",
          "type": "uint256"
        },
        {
          "internalType": "uint256",
          "name": "_revShareRate",
          "type": "uint256"
        }
      ],
      "name": "setFeeSettings",
      "outputs": [],
      "stateMutability": "nonpayable",
      "type": "function"
    },
    {
      "inputs": [
        {
          "internalType": "address",
          "name": "_govAddress",
          "type": "address"
        }
      ],
      "name": "setGov",
      "outputs": [],
      "stateMutability": "nonpayable",
      "type": "function"
    },
    {
      "inputs": [
        {
          "internalType": "bool",
          "name": "_isFarmable",
          "type": "bool"
        }
      ],
      "name": "setIsFarmable",
      "outputs": [],
      "stateMutability": "nonpayable",
      "type": "function"
    },
    {
      "inputs": [
        {
          "internalType": "uint256",
          "name": "_slippageNumerator",
          "type": "uint256"
        }
      ],
      "name": "setMaxMarketMovementAllowed",
      "outputs": [],
      "stateMutability": "nonpayable",
      "type": "function"
    },
    {
      "inputs": [
        {
          "internalType": "bool",
          "name": "_onlyGov",
          "type": "bool"
        }
      ],
      "name": "setOnlyGov",
      "outputs": [],
      "stateMutability": "nonpayable",
      "type": "function"
    },
    {
      "inputs": [
        {
          "internalType": "uint256",
          "name": "_pid",
          "type": "uint256"
        }
      ],
      "name": "setPid",
      "outputs": [],
      "stateMutability": "nonpayable",
      "type": "function"
    },
    {
      "inputs": [
        {
          "internalType": "address",
          "name": "_poolAddress",
          "type": "address"
        }
      ],
      "name": "setPoolAddress",
      "outputs": [],
      "stateMutability": "nonpayable",
      "type": "function"
    },
    {
      "inputs": [
        {
          "internalType": "uint8",
          "name": "_idx",
          "type": "uint8"
        },
        {
          "internalType": "address",
          "name": "_priceFeed",
          "type": "address"
        }
      ],
      "name": "setPriceFeed",
      "outputs": [],
      "stateMutability": "nonpayable",
      "type": "function"
    },
    {
      "inputs": [
        {
          "internalType": "address",
          "name": "_rewardsAddress",
          "type": "address"
        }
      ],
      "name": "setRewardsAddress",
      "outputs": [],
      "stateMutability": "nonpayable",
      "type": "function"
    },
    {
      "inputs": [
        {
          "internalType": "uint8",
          "name": "_idx",
          "type": "uint8"
        },
        {
          "internalType": "address[]",
          "name": "_path",
          "type": "address[]"
        }
      ],
      "name": "setStablecoinSwapPaths",
      "outputs": [],
      "stateMutability": "nonpayable",
      "type": "function"
    },
    {
      "inputs": [
        {
          "internalType": "uint8",
          "name": "_idx",
          "type": "uint8"
        },
        {
          "internalType": "address[]",
          "name": "_path",
          "type": "address[]"
        }
      ],
      "name": "setSwapPaths",
      "outputs": [],
      "stateMutability": "nonpayable",
      "type": "function"
    },
    {
      "inputs": [
        {
          "internalType": "address",
          "name": "_token0Address",
          "type": "address"
        }
      ],
      "name": "setToken0Address",
      "outputs": [],
      "stateMutability": "nonpayable",
      "type": "function"
    },
    {
      "inputs": [
        {
          "internalType": "address",
          "name": "_token1Address",
          "type": "address"
        }
      ],
      "name": "setToken1Address",
      "outputs": [],
      "stateMutability": "nonpayable",
      "type": "function"
    },
    {
      "inputs": [
        {
          "internalType": "address",
          "name": "_uniRouterAddress",
          "type": "address"
        }
      ],
      "name": "setUniRouterAddress",
      "outputs": [],
      "stateMutability": "nonpayable",
      "type": "function"
    },
    {
      "inputs": [
        {
          "internalType": "address",
          "name": "_wantAddress",
          "type": "address"
        }
      ],
      "name": "setWantAddress",
      "outputs": [],
      "stateMutability": "nonpayable",
      "type": "function"
    },
    {
      "inputs": [
        {
          "internalType": "address",
          "name": "_ZORROAddress",
          "type": "address"
        }
      ],
      "name": "setZORROAddress",
      "outputs": [],
      "stateMutability": "nonpayable",
      "type": "function"
    },
    {
      "inputs": [
        {
          "internalType": "address",
          "name": "_zorroControllerAddress",
          "type": "address"
        }
      ],
      "name": "setZorroControllerAddress",
      "outputs": [],
      "stateMutability": "nonpayable",
      "type": "function"
    },
    {
      "inputs": [
        {
          "internalType": "address",
          "name": "_poolAddress",
          "type": "address"
        }
      ],
      "name": "setZorroLPPoolAddress",
      "outputs": [],
      "stateMutability": "nonpayable",
      "type": "function"
    },
    {
      "inputs": [
        {
          "internalType": "address",
          "name": "_otherToken",
          "type": "address"
        }
      ],
      "name": "setZorroLPPoolOtherToken",
      "outputs": [],
      "stateMutability": "nonpayable",
      "type": "function"
    },
    {
      "inputs": [
        {
          "internalType": "address",
          "name": "_stakingVault",
          "type": "address"
        }
      ],
      "name": "setZorroStakingVault",
      "outputs": [],
      "stateMutability": "nonpayable",
      "type": "function"
    },
    {
      "inputs": [
        {
          "internalType": "address",
          "name": "_zorroXChainController",
          "type": "address"
        }
      ],
      "name": "setZorroXChainControllerAddress",
      "outputs": [],
      "stateMutability": "nonpayable",
      "type": "function"
    },
    {
      "inputs": [],
      "name": "sharesTotal",
      "outputs": [
        {
          "internalType": "uint256",
          "name": "",
          "type": "uint256"
        }
      ],
      "stateMutability": "view",
      "type": "function"
    },
    {
      "inputs": [],
      "name": "stablecoinPriceFeed",
      "outputs": [
        {
          "internalType": "contract AggregatorV3Interface",
          "name": "",
          "type": "address"
        }
      ],
      "stateMutability": "view",
      "type": "function"
    },
    {
      "inputs": [
        {
          "internalType": "uint256",
          "name": "",
          "type": "uint256"
        }
      ],
      "name": "stablecoinToLPPoolOtherTokenPath",
      "outputs": [
        {
          "internalType": "address",
          "name": "",
          "type": "address"
        }
      ],
      "stateMutability": "view",
      "type": "function"
    },
    {
      "inputs": [
        {
          "internalType": "uint256",
          "name": "",
          "type": "uint256"
        }
      ],
      "name": "stablecoinToToken0Path",
      "outputs": [
        {
          "internalType": "address",
          "name": "",
          "type": "address"
        }
      ],
      "stateMutability": "view",
      "type": "function"
    },
    {
      "inputs": [
        {
          "internalType": "uint256",
          "name": "",
          "type": "uint256"
        }
      ],
      "name": "stablecoinToToken1Path",
      "outputs": [
        {
          "internalType": "address",
          "name": "",
          "type": "address"
        }
      ],
      "stateMutability": "view",
      "type": "function"
    },
    {
      "inputs": [
        {
          "internalType": "uint256",
          "name": "",
          "type": "uint256"
        }
      ],
      "name": "stablecoinToZORROPath",
      "outputs": [
        {
          "internalType": "address",
          "name": "",
          "type": "address"
        }
      ],
      "stateMutability": "view",
      "type": "function"
    },
    {
      "inputs": [],
      "name": "token0Address",
      "outputs": [
        {
          "internalType": "address",
          "name": "",
          "type": "address"
        }
      ],
      "stateMutability": "view",
      "type": "function"
    },
    {
      "inputs": [],
      "name": "token0PriceFeed",
      "outputs": [
        {
          "internalType": "contract AggregatorV3Interface",
          "name": "",
          "type": "address"
        }
      ],
      "stateMutability": "view",
      "type": "function"
    },
    {
      "inputs": [
        {
          "internalType": "uint256",
          "name": "",
          "type": "uint256"
        }
      ],
      "name": "token0ToStablecoinPath",
      "outputs": [
        {
          "internalType": "address",
          "name": "",
          "type": "address"
        }
      ],
      "stateMutability": "view",
      "type": "function"
    },
    {
      "inputs": [],
      "name": "token1Address",
      "outputs": [
        {
          "internalType": "address",
          "name": "",
          "type": "address"
        }
      ],
      "stateMutability": "view",
      "type": "function"
    },
    {
      "inputs": [],
      "name": "token1PriceFeed",
      "outputs": [
        {
          "internalType": "contract AggregatorV3Interface",
          "name": "",
          "type": "address"
        }
      ],
      "stateMutability": "view",
      "type": "function"
    },
    {
      "inputs": [
        {
          "internalType": "uint256",
          "name": "",
          "type": "uint256"
        }
      ],
      "name": "token1ToStablecoinPath",
      "outputs": [
        {
          "internalType": "address",
          "name": "",
          "type": "address"
        }
      ],
      "stateMutability": "view",
      "type": "function"
    },
    {
      "inputs": [
        {
          "internalType": "address",
          "name": "newOwner",
          "type": "address"
        }
      ],
      "name": "transferOwnership",
      "outputs": [],
      "stateMutability": "nonpayable",
      "type": "function"
    },
    {
      "inputs": [],
      "name": "uniRouterAddress",
      "outputs": [
        {
          "internalType": "address",
          "name": "",
          "type": "address"
        }
      ],
      "stateMutability": "view",
      "type": "function"
    },
    {
      "inputs": [],
      "name": "unpause",
      "outputs": [],
      "stateMutability": "nonpayable",
      "type": "function"
    },
    {
      "inputs": [],
      "name": "vaultActions",
      "outputs": [
        {
          "internalType": "address",
          "name": "",
          "type": "address"
        }
      ],
      "stateMutability": "view",
      "type": "function"
    },
    {
      "inputs": [],
      "name": "wantAddress",
      "outputs": [
        {
          "internalType": "address",
          "name": "",
          "type": "address"
        }
      ],
      "stateMutability": "view",
      "type": "function"
    },
    {
      "inputs": [],
      "name": "wantLockedTotal",
      "outputs": [
        {
          "internalType": "uint256",
          "name": "",
          "type": "uint256"
        }
      ],
      "stateMutability": "view",
      "type": "function"
    },
    {
      "inputs": [],
      "name": "withdrawFeeFactor",
      "outputs": [
        {
          "internalType": "uint256",
          "name": "",
          "type": "uint256"
        }
      ],
      "stateMutability": "view",
      "type": "function"
    },
    {
      "inputs": [],
      "name": "withdrawFeeFactorLL",
      "outputs": [
        {
          "internalType": "uint256",
          "name": "",
          "type": "uint256"
        }
      ],
      "stateMutability": "view",
      "type": "function"
    },
    {
      "inputs": [],
      "name": "withdrawFeeFactorMax",
      "outputs": [
        {
          "internalType": "uint256",
          "name": "",
          "type": "uint256"
        }
      ],
      "stateMutability": "view",
      "type": "function"
    },
    {
      "inputs": [
        {
          "internalType": "uint256",
          "name": "_wantAmt",
          "type": "uint256"
        }
      ],
      "name": "withdrawWantToken",
      "outputs": [
        {
          "internalType": "uint256",
          "name": "sharesRemoved",
          "type": "uint256"
        }
      ],
      "stateMutability": "nonpayable",
      "type": "function"
    },
    {
      "inputs": [],
      "name": "zorroControllerAddress",
      "outputs": [
        {
          "internalType": "address",
          "name": "",
          "type": "address"
        }
      ],
      "stateMutability": "view",
      "type": "function"
    },
    {
      "inputs": [],
      "name": "zorroLPPool",
      "outputs": [
        {
          "internalType": "address",
          "name": "",
          "type": "address"
        }
      ],
      "stateMutability": "view",
      "type": "function"
    },
    {
      "inputs": [],
      "name": "zorroLPPoolOtherToken",
      "outputs": [
        {
          "internalType": "address",
          "name": "",
          "type": "address"
        }
      ],
      "stateMutability": "view",
      "type": "function"
    },
    {
      "inputs": [],
      "name": "zorroStakingVault",
      "outputs": [
        {
          "internalType": "address",
          "name": "",
          "type": "address"
        }
      ],
      "stateMutability": "view",
      "type": "function"
    },
    {
      "inputs": [],
      "name": "zorroXChainController",
      "outputs": [
        {
          "internalType": "address",
          "name": "",
          "type": "address"
        }
      ],
      "stateMutability": "view",
      "type": "function"
    }
  ],
  "bytecode": "0x608060405234801561001057600080fd5b50614c41806100206000396000f3fe608060405234801561001057600080fd5b506004361061056a5760003560e060020a900480637bf604d8116102ce578063bf3a7d4011610191578063e7198474116100f8578063f05c09b3116100b1578063f2fde38b1161008b578063f2fde38b14610b75578063f5046a2914610b88578063fbf5683f14610b9b578063ff29b39514610bae57600080fd5b8063f05c09b314610b4c578063f106845414610b59578063f25342bf14610b6257600080fd5b8063e719847414610af3578063e7a0367914610b06578063e9e15b4f14610b19578063ebfba7c414610b2c578063edf5e58514610b3f578063ee50dc341461069757600080fd5b8063c8e3d18b1161014a578063c8e3d18b14610a81578063cfad57a214610a94578063d7cb416f14610aa7578063de84199114610aba578063e502a88d14610acd578063e65a011714610ae057600080fd5b8063bf3a7d4014610a22578063c0973eed14610a35578063c302a4d0146108fe578063c4d66de814610a48578063c524a05614610a5b578063c8479cd614610a6e57600080fd5b806396e9aff811610235578063ab196def116101ee578063ab196def146109c3578063ae53e58a146109d6578063b1414dbb146109e9578063b3545c0114610584578063b61bb80a146109fc578063b73cba2a14610a0f57600080fd5b806396e9aff8146109515780639fc33a9f14610964578063a049539114610977578063a4d2b0831461098a578063aabf190b1461099d578063aada5bf6146109b057600080fd5b806385f02dd61161028757806385f02dd6146108f5578063866b2018146108fe5780638906758d146109075780638da5cb5b1461091a5780639339fd3c1461092b578063959334f41461093e57600080fd5b80637bf604d81461088e5780637ff36fbe146108a157806381aa8d31146108b4578063833eeab9146108c757806383f01939146108da5780638456cb59146108ed57600080fd5b806346008a071161043157806361b5bf9f1161039857806368f54162116103515780636f96f6fa1161032b5780636f96f6fa1461084d57806370d5ae0514610860578063715018a6146108735780637153ef861461087b57600080fd5b806368f541621461081e578063693a090b146108275780636ca8bd651461083a57600080fd5b806361b5bf9f146107bf5780636392ab12146107d2578063648794a4146107e557806367057b6c1461069757806367206d40146107f8578063677379e51461080b57600080fd5b8063567e07c9116103ea578063567e07c914610755578063583bda3b146107685780635c975abb1461077b5780635da79d63146107865780635fc77d43146107995780636183e804146107ac57600080fd5b806346008a07146106f15780634b0e7216146107095780634bf71bb81461071c5780634c5b09da1461072f5780634d9f7bb21461069757806355ebedec1461074257600080fd5b80631e85b3ad116104d557806334563acc1161048e57806334563acc146106bc57806336e9332d146106cf5780633f4ba83a146106d757806342da4eb3146106df57806343788cd21461069757806344a3955e146106e857600080fd5b80631e85b3ad14610671578063211019d7146105845780632209b59e146106845780632717eff314610697578063320d47cc146106a05780633214471f146106b357600080fd5b80630fa4e01e116105275780630fa4e01e1461061d5780631334903f146106265780631755ff211461062f578063178a8d07146106425780631b0d8aab1461064b5780631e2bc6721461065e57600080fd5b806305828d3e1461056f578063061c7d48146105845780630761a172146105a05780630b6bb30b146105a95780630bbd6cd6146105bc5780630daef321146105e7575b600080fd5b61058261057d366004613c62565b610bc1565b005b61058d6103e881565b6040519081526020015b60405180910390f35b61058d60f45481565b6105826105b7366004613c98565b610c19565b6105cf6105ca366004613cb5565b610cc7565b604051600160a060020a039091168152602001610597565b60cb5461060d907501000000000000000000000000000000000000000000900460ff1681565b6040519015158152602001610597565b61058d60e25481565b61058d60e05481565b60d9546105cf90600160a060020a031681565b61058d60de5481565b610582610659366004613cb5565b610cf1565b6105cf61066c366004613cb5565b610d23565b6105cf61067f366004613cb5565b610d33565b61058d610692366004613cb5565b610d43565b61058d61271081565b6105826106ae366004613cb5565b610ed0565b61058d60df5481565b6105826106ca366004614065565b610f02565b610582611368565b6105826113a2565b61058d60e35481565b61058d60e45481565b60cb546105cf906101009004600160a060020a031681565b610582610717366004613c62565b6113de565b6105cf61072a366004613cb5565b61142d565b61058261073d366004613c62565b61143d565b61058d610750366004613cb5565b61148c565b610582610763366004613c62565b6116aa565b610582610776366004613c62565b6116f9565b60975460ff1661060d565b610582610794366004613c62565b611748565b60cd546105cf90600160a060020a031681565b6105826107ba366004613c62565b611797565b6105826107cd366004613c62565b6117e6565b6105cf6107e0366004613cb5565b611835565b61058d6107f3366004614230565b611845565b610582610806366004614252565b6119eb565b60d0546105cf90600160a060020a031681565b61058d60e15481565b60da546105cf90600160a060020a031681565b610582610848366004613c62565b611af3565b60f0546105cf90600160a060020a031681565b60d7546105cf90600160a060020a031681565b610582611b42565b610582610889366004614294565b611b79565b60db546105cf90600160a060020a031681565b60d2546105cf90600160a060020a031681565b6105cf6108c2366004613cb5565b611e6d565b6105cf6108d5366004613cb5565b611e7d565b6105826108e8366004613c98565b611e8d565b610582611ecd565b61058d60dd5481565b61058d61232881565b610582610915366004613c62565b611f07565b603354600160a060020a03166105cf565b6105826109393660046142de565b611f56565b61058261094c366004613c62565b612018565b6105cf61095f366004613cb5565b612067565b60d5546105cf90600160a060020a031681565b6105cf610985366004613cb5565b612077565b60cf546105cf90600160a060020a031681565b60f1546105cf90600160a060020a031681565b60f3546105cf90600160a060020a031681565b60f2546105cf90600160a060020a031681565b60ef546105cf90600160a060020a031681565b60cc546105cf90600160a060020a031681565b60d6546105cf90600160a060020a031681565b610582610a1d366004613c62565b612087565b610582610a30366004613c62565b6120d6565b60d8546105cf90600160a060020a031681565b610582610a56366004613c62565b612125565b610582610a69366004613c62565b6121c0565b610582610a7c366004613c62565b61220f565b6105cf610a8f366004613cb5565b61225e565b610582610aa2366004613c62565b61226e565b60d3546105cf90600160a060020a031681565b610582610ac8366004614365565b612303565b61058d610adb366004614230565b612485565b610582610aee366004613cb5565b6125ea565b60d4546105cf90600160a060020a031681565b60d1546105cf90600160a060020a031681565b610582610b27366004613c62565b612af4565b60dc546105cf90600160a060020a031681565b60c95461060d9060ff1681565b60cb5461060d9060ff1681565b61058d60ca5481565b60ee546105cf90600160a060020a031681565b610582610b83366004613c62565b612b43565b60ce546105cf90600160a060020a031681565b6105cf610ba9366004613cb5565b612bfb565b610582610bbc3660046142de565b612c0b565b603354600160a060020a03163314610bf75760405160e560020a62461bcd028152600401610bee9061439e565b60405180910390fd5b60d38054600160a060020a031916600160a060020a0392909216919091179055565b60cb546101009004600160a060020a03163314610c4b5760405160e560020a62461bcd028152600401610bee906143d3565b60cb805482151575010000000000000000000000000000000000000000000275ff000000000000000000000000000000000000000000199091161790556040517f125177ac7b8930dac1e59c2b30b1b6b9191b30af40cf6bbb5d20fec4d44be60f90610cbc90831515815260200190565b60405180910390a150565b60e78181548110610cd757600080fd5b600091825260209091200154600160a060020a0316905081565b603354600160a060020a03163314610d1e5760405160e560020a62461bcd028152600401610bee9061439e565b60ca55565b60f68181548110610cd757600080fd5b60e68181548110610cd757600080fd5b60cc54600090600160a060020a031633600160a060020a031614610d7c5760405160e560020a62461bcd028152600401610bee9061440a565b60026065541415610da25760405160e560020a62461bcd028152600401610bee90614441565b600260655560975460ff1615610dcd5760405160e560020a62461bcd028152600401610bee90614478565b60008211610e205760405160e560020a62461bcd02815260206004820152601e60248201527f57616e7420746f6b656e206465706f736974206d757374206265203e203000006044820152606401610bee565b60d154610e3890600160a060020a0316333085612d0c565b819050600060e354118015610e4f5750600060e454115b15610e8b5761271060e354610e6491906144de565b60e05460e454610e7490856144de565b610e7e91906144de565b610e8891906144fd565b90505b8060e454610e999190614538565b60e45560cb5460ff1615610eb457610eaf612dbd565b610ec6565b8160e354610ec29190614538565b60e3555b6001606555919050565b603354600160a060020a03163314610efd5760405160e560020a62461bcd028152600401610bee9061439e565b60f455565b600054610100900460ff16610f1d5760005460ff1615610f21565b303b155b610f405760405160e560020a62461bcd028152600401610bee90614550565b600054610100900460ff16158015610f62576000805461ffff19166101011790555b815160ca5560208083015160c9805460ff191691151591909117905560408084015160cb80546060808801518051750100000000000000000000000000000000000000000074ffffffffffffffffffffffffffffffffffffffffff1990941695151574ffffffffffffffffffffffffffffffffffffffff00191695909517610100600160a060020a0396871681029190911775ff0000000000000000000000000000000000000000001916939093179093558286015160cc8054600160a060020a03199081169287169290921790558386015160cd805483169187169190911790558382015160ce8054831691871691909117905560808085015160cf8054841691881691909117905560a085015160d18054841691881691909117905560c085015160d2805484169188169190911790559284015160d48054831691871691909117905561012084015160d58054831691871691909117905561014084015160d8805483169187169190911790556101608085015160d98054841691881691909117905561018085015160da805484169188169190911790556101a085015160db805484169188169190911790556101c085015160dc805484169188169190911790556101e09094015160d6805490921695169490941790935590860151805160dd558085015160de559283015160df559082015160e0559081015160e15583015180516111759260eb920190613b75565b5060a0820151805161118f9160e991602090910190613b75565b5060c082015180516111a99160e591602090910190613b75565b5060e082015180516111c39160ec91602090910190613b75565b5061010082015180516111de9160ed91602090910190613b75565b5060c082015180516111f89160e591602090910190613b75565b5061012082015180516112139160f591602090910190613b75565b50610140820151805161122e9160f691602090910190613b75565b5060d0546040517f8b4c5aee000000000000000000000000000000000000000000000000000000008152600160a060020a0390911690638b4c5aee906112799060e5906004016145ad565b600060405180830381865afa158015611296573d6000803e3d6000fd5b505050506040513d6000823e601f3d908101601f191682016040526112be91908101906145fd565b80516112d29160e791602090910190613b75565b50610180820151805160ee8054600160a060020a0319908116600160a060020a0393841617909155604083015160f080548316918416919091179055608083015160f180548316918416919091179055606083015160f28054831691841691909117905560a09092015160f38054909316911617905561135183612125565b8015611363576000805461ff00191690555b505050565b6002606554141561138e5760405160e560020a62461bcd028152600401610bee90614441565b600260655561139b612dbd565b6001606555565b60cb546101009004600160a060020a031633146113d45760405160e560020a62461bcd028152600401610bee906143d3565b6113dc612f3e565b565b603354600160a060020a0316331461140b5760405160e560020a62461bcd028152600401610bee9061439e565b60d78054600160a060020a031916600160a060020a0392909216919091179055565b60ed8181548110610cd757600080fd5b603354600160a060020a0316331461146a5760405160e560020a62461bcd028152600401610bee9061439e565b60d58054600160a060020a031916600160a060020a0392909216919091179055565b60cc54600090600160a060020a031633600160a060020a0316146114c55760405160e560020a62461bcd028152600401610bee9061440a565b600260655414156114eb5760405160e560020a62461bcd028152600401610bee90614441565b600260655560975460ff16156115165760405160e560020a62461bcd028152600401610bee90614478565b600082116115695760405160e560020a62461bcd02815260206004820152600760248201527f6e656757616e74000000000000000000000000000000000000000000000000006044820152606401610bee565b60e35460e45461157990846144de565b61158391906144fd565b905060e454811115611594575060e4545b8060e4546115a29190614689565b60e45560e15461271011156115cf5761271060e154836115c291906144de565b6115cc91906144fd565b91505b60cb5460ff16156115e3576115e382612fdd565b60d15460405160e060020a6370a08231028152306004820152600091600160a060020a0316906370a0823190602401602060405180830381865afa15801561162f573d6000803e3d6000fd5b505050506040513d601f19601f8201168201806040525081019061165391906146a0565b905080831115611661578092505b8260e35410156116715760e35492505b8260e35461167f9190614689565b60e35560cc5460d15461169f91600160a060020a03918216911685613038565b506001606555919050565b603354600160a060020a031633146116d75760405160e560020a62461bcd028152600401610bee9061439e565b60cd8054600160a060020a031916600160a060020a0392909216919091179055565b603354600160a060020a031633146117265760405160e560020a62461bcd028152600401610bee9061439e565b60ce8054600160a060020a031916600160a060020a0392909216919091179055565b603354600160a060020a031633146117755760405160e560020a62461bcd028152600401610bee9061439e565b60da8054600160a060020a031916600160a060020a0392909216919091179055565b603354600160a060020a031633146117c45760405160e560020a62461bcd028152600401610bee9061439e565b60d18054600160a060020a031916600160a060020a0392909216919091179055565b603354600160a060020a031633146118135760405160e560020a62461bcd028152600401610bee9061439e565b60db8054600160a060020a031916600160a060020a0392909216919091179055565b60eb8181548110610cd757600080fd5b60cc54600090600160a060020a031633600160a060020a03161461187e5760405160e560020a62461bcd028152600401610bee9061440a565b60975460ff16156118a45760405160e560020a62461bcd028152600401610bee90614478565b60d05460d1546118c191600160a060020a03918216911685613081565b60d0546040805160e08101825260d654600160a060020a03908116825260d254811660208084019190915260d15482168385015260d9548216606084015260ee548216608084015260f354821660a084015260e78054855181840281018401909652808652929095169463b1c86edb9489949360c085019391929183018282801561197557602002820191906000526020600020905b8154600160a060020a03168152600190910190602001808311611957575b5050505050815250856040518463ffffffff1660e060020a02815260040161199f939291906146fd565b6020604051808303816000875af11580156119be573d6000803e3d6000fd5b505050506040513d601f19601f820116820180604052508101906119e291906146a0565b90505b92915050565b60cb546101009004600160a060020a03163314611a1d5760405160e560020a62461bcd028152600401610bee906143d3565b60d454600160a060020a0384811691161415611a7e5760405160e560020a62461bcd02815260206004820152600560248201527f21736166650000000000000000000000000000000000000000000000000000006044820152606401610bee565b60d154600160a060020a0384811691161415611adf5760405160e560020a62461bcd02815260206004820152600560248201527f21736166650000000000000000000000000000000000000000000000000000006044820152606401610bee565b611363600160a060020a0384168284613038565b603354600160a060020a03163314611b205760405160e560020a62461bcd028152600401610bee9061439e565b60cf8054600160a060020a031916600160a060020a0392909216919091179055565b603354600160a060020a03163314611b6f5760405160e560020a62461bcd028152600401610bee9061439e565b6113dc6000613165565b60cb546101009004600160a060020a03163314611bab5760405160e560020a62461bcd028152600401610bee906143d3565b612328851015611c005760405160e560020a62461bcd02815260206004820152601a60248201527f5f656e7472616e6365466565466163746f7220746f6f206c6f770000000000006044820152606401610bee565b612710851115611c555760405160e560020a62461bcd02815260206004820152601b60248201527f5f656e7472616e6365466565466163746f7220746f6f206869676800000000006044820152606401610bee565b60e0859055612328841015611caf5760405160e560020a62461bcd02815260206004820152601a60248201527f5f7769746864726177466565466163746f7220746f6f206c6f770000000000006044820152606401610bee565b612710841115611d045760405160e560020a62461bcd02815260206004820152601b60248201527f5f7769746864726177466565466163746f7220746f6f206869676800000000006044820152606401610bee565b60e18490556103e8831115611d5e5760405160e560020a62461bcd02815260206004820152601760248201527f5f636f6e74726f6c6c657246656520746f6f20686967680000000000000000006044820152606401610bee565b60dd8390556103e8821115611db85760405160e560020a62461bcd02815260206004820152601560248201527f5f6275794261636b5261746520746f6f206869676800000000000000000000006044820152606401610bee565b60de8290556103e8811115611e125760405160e560020a62461bcd02815260206004820152601660248201527f5f72657653686172655261746520746f6f2068696768000000000000000000006044820152606401610bee565b60df819055604080518681526020810186905290810184905260608101839052608081018290527fc67e0b149a57a70fa44a531a46c2c6d8e0b242fa12f459f250012c3a5987d29a9060a00160405180910390a15050505050565b60f58181548110610cd757600080fd5b60e58181548110610cd757600080fd5b603354600160a060020a03163314611eba5760405160e560020a62461bcd028152600401610bee9061439e565b60cb805460ff1916911515919091179055565b60cb546101009004600160a060020a03163314611eff5760405160e560020a62461bcd028152600401610bee906143d3565b6113dc6131b7565b603354600160a060020a03163314611f345760405160e560020a62461bcd028152600401610bee9061439e565b60d88054600160a060020a031916600160a060020a0392909216919091179055565b603354600160a060020a03163314611f835760405160e560020a62461bcd028152600401610bee9061439e565b60ff8316611f9d57611f9760e58383613bda565b50505050565b8260ff1660011415611fb557611f9760f58383613bda565b8260ff1660021415611fcd57611f9760f68383613bda565b60405160e560020a62461bcd02815260206004820152601960248201527f756e737570706f727465642069647820737761702070617468000000000000006044820152606401610bee565b603354600160a060020a031633146120455760405160e560020a62461bcd028152600401610bee9061439e565b60dc8054600160a060020a031916600160a060020a0392909216919091179055565b60ea8181548110610cd757600080fd5b60e88181548110610cd757600080fd5b603354600160a060020a031633146120b45760405160e560020a62461bcd028152600401610bee9061439e565b60d48054600160a060020a031916600160a060020a0392909216919091179055565b603354600160a060020a031633146121035760405160e560020a62461bcd028152600401610bee9061439e565b60cc8054600160a060020a031916600160a060020a0392909216919091179055565b600054610100900460ff166121405760005460ff1615612144565b303b155b6121635760405160e560020a62461bcd028152600401610bee90614550565b600054610100900460ff16158015612185576000805461ffff19166101011790555b61218d613212565b61219682612b43565b60d78054600160a060020a03191661dead17905580156121bc576000805461ff00191690555b5050565b603354600160a060020a031633146121ed5760405160e560020a62461bcd028152600401610bee9061439e565b60d68054600160a060020a031916600160a060020a0392909216919091179055565b603354600160a060020a0316331461223c5760405160e560020a62461bcd028152600401610bee9061439e565b60d28054600160a060020a031916600160a060020a0392909216919091179055565b60e98181548110610cd757600080fd5b60cb546101009004600160a060020a031633146122a05760405160e560020a62461bcd028152600401610bee906143d3565b60cb805474ffffffffffffffffffffffffffffffffffffffff001916610100600160a060020a038416908102919091179091556040519081527f91a8c1cc2d4a3bb60738481947a00cbb9899c822916694cf8bb1d68172fdcd5490602001610cbc565b603354600160a060020a031633146123305760405160e560020a62461bcd028152600401610bee9061439e565b60ff82166123595760ee8054600160a060020a038316600160a060020a03199091161790555050565b8160ff16600114156123865760ef8054600160a060020a038316600160a060020a03199091161790555050565b8160ff16600214156123b35760f08054600160a060020a038316600160a060020a03199091161790555050565b8160ff16600314156123e05760f28054600160a060020a038316600160a060020a03199091161790555050565b8160ff166004141561240d5760f18054600160a060020a038316600160a060020a03199091161790555050565b8160ff166005141561243a5760f38054600160a060020a038316600160a060020a03199091161790555050565b60405160e560020a62461bcd02815260206004820152601460248201527f756e737570706f727465642066656564206964780000000000000000000000006044820152606401610bee565b60cc54600090600160a060020a031633600160a060020a0316146124be5760405160e560020a62461bcd028152600401610bee9061440a565b60975460ff16156124e45760405160e560020a62461bcd028152600401610bee90614478565b60d05460d65461250191600160a060020a03918216911685613081565b60d054604080516101008101825260d654600160a060020a03908116825260d254811660208084019190915260ce5482168385015260d9548216606084015260d1548216608084015260ee54821660a084015260f354821660c084015260e58054855181840281018401909652808652929095169463ac64c3369489949360e08501939192918301828280156125c057602002820191906000526020600020905b8154600160a060020a031681526001909101906020018083116125a2575b5050505050815250856040518463ffffffff1660e060020a02815260040161199f939291906147a5565b600260655414156126105760405160e560020a62461bcd028152600401610bee90614441565b600260655560975460ff161561263b5760405160e560020a62461bcd028152600401610bee90614478565b60cb5460ff166126905760405160e560020a62461bcd02815260206004820152600960248201527f216661726d61626c6500000000000000000000000000000000000000000000006044820152606401610bee565b60cb547501000000000000000000000000000000000000000000900460ff16156126e65760cb546101009004600160a060020a031633146126e65760405160e560020a62461bcd028152600401610bee906143d3565b6126f06000612fdd565b60d45460405160e060020a6370a08231028152306004820152600091600160a060020a0316906370a0823190602401602060405180830381865afa15801561273c573d6000803e3d6000fd5b505050506040513d601f19601f8201168201806040525081019061276091906146a0565b9050600081116127b55760405160e560020a62461bcd02815260206004820152600560248201527f306561726e0000000000000000000000000000000000000000000000000000006044820152606401610bee565b604080516080810190915260f0546000919081906127db90600160a060020a0316613244565b815260f2546020909101906127f890600160a060020a0316613244565b815260f15460209091019061281590600160a060020a0316613244565b815260f35460209091019061283290600160a060020a0316613244565b9052905060006128418361339b565b90506000806128518587866133eb565b9092509050600081836128648689614689565b61286e9190614689565b6128789190614689565b60d45460d254919250600160a060020a039182169116146129d15760d05460d4546128b091600160a060020a03918216911683613081565b60d05460408051610100810182528381528751602082015260ee54600160a060020a03938416936312ad7eba938301916128ea9116613244565b815260d454600160a060020a0390811660208084019190915260d254909116604080840191909152606083018d905260e98054825181850281018501909352808352608090940193919290919083018282801561297057602002820191906000526020600020905b8154600160a060020a03168152600190910190602001808311612952575b50505091835250503060209091015260405160e060020a63ffffffff841602815261299e9190600401614862565b600060405180830381600087803b1580156129b857600080fd5b505af11580156129cc573d6000803e3d6000fd5b505050505b60d25460405160e060020a6370a08231028152306004820152600091600160a060020a0316906370a0823190602401602060405180830381865afa158015612a1d573d6000803e3d6000fd5b505050506040513d601f19601f82011682018060405250810190612a4191906146a0565b60d95460d254919250612a6191600160a060020a03908116911683613081565b60d9546040517fb6b55f2500000000000000000000000000000000000000000000000000000000815260048101839052600160a060020a039091169063b6b55f2590602401600060405180830381600087803b158015612ac057600080fd5b505af1158015612ad4573d6000803e3d6000fd5b50504360e25550612ae59050612dbd565b50506001606555505050505050565b603354600160a060020a03163314612b215760405160e560020a62461bcd028152600401610bee9061439e565b60d98054600160a060020a031916600160a060020a0392909216919091179055565b603354600160a060020a03163314612b705760405160e560020a62461bcd028152600401610bee9061439e565b600160a060020a038116612bef5760405160e560020a62461bcd02815260206004820152602660248201527f4f776e61626c653a206e6577206f776e657220697320746865207a65726f206160448201527f64647265737300000000000000000000000000000000000000000000000000006064820152608401610bee565b612bf881613165565b50565b60ec8181548110610cd757600080fd5b603354600160a060020a03163314612c385760405160e560020a62461bcd028152600401610bee9061439e565b60ff8316612c4c57611f9760e58383613bda565b8260ff1660011415612c6457611f9760e68383613bda565b8260ff1660021415612c7c57611f9760e78383613bda565b8260ff1660031415612c9457611f9760e88383613bda565b8260ff1660041415612cac57611f9760e98383613bda565b8260ff1660051415612cc457611f9760ea8383613bda565b8260ff1660061415612cdc57611f9760eb8383613bda565b8260ff1660071415612cf457611f9760ec8383613bda565b8260ff166008141561243a57611f9760ed8383613bda565b604051600160a060020a0380851660248301528316604482015260648101829052611f979085907f23b872dd00000000000000000000000000000000000000000000000000000000906084015b60408051601f198184030181529190526020810180517bffffffffffffffffffffffffffffffffffffffffffffffffffffffff167fffffffff000000000000000000000000000000000000000000000000000000009093169290921790915261363f565b60cb5460ff16612e125760405160e560020a62461bcd02815260206004820152600960248201527f216661726d61626c6500000000000000000000000000000000000000000000006044820152606401610bee565b60d15460405160e060020a6370a08231028152306004820152600091600160a060020a0316906370a0823190602401602060405180830381865afa158015612e5e573d6000803e3d6000fd5b505050506040513d601f19601f82011682018060405250810190612e8291906146a0565b90508060e354612e929190614538565b60e35560d55460d154612eb291600160a060020a03918216911683613081565b60d55460ca546040517f0efe6a8b000000000000000000000000000000000000000000000000000000008152306004820152602481019190915260448101839052600160a060020a0390911690630efe6a8b906064015b600060405180830381600087803b158015612f2357600080fd5b505af1158015612f37573d6000803e3d6000fd5b5050505050565b60975460ff16612f935760405160e560020a62461bcd02815260206004820152601460248201527f5061757361626c653a206e6f74207061757365640000000000000000000000006044820152606401610bee565b6097805460ff191690557f5db9ee0a495bf2e6ff9c91a7834c1ba4fdd244a5e8aa4e537bd38aeae4b073aa335b604051600160a060020a03909116815260200160405180910390a1565b60d55460ca546040517fb5c5f672000000000000000000000000000000000000000000000000000000008152306004820152602481019190915260448101839052600160a060020a039091169063b5c5f67290606401612f09565b604051600160a060020a0383166024820152604481018290526113639084907fa9059cbb0000000000000000000000000000000000000000000000000000000090606401612d59565b6040517fdd62ed3e000000000000000000000000000000000000000000000000000000008152306004820152600160a060020a038381166024830152600091839186169063dd62ed3e90604401602060405180830381865afa1580156130eb573d6000803e3d6000fd5b505050506040513d601f19601f8201168201806040525081019061310f91906146a0565b6131199190614538565b604051600160a060020a038516602482015260448101829052909150611f979085907f095ea7b30000000000000000000000000000000000000000000000000000000090606401612d59565b60338054600160a060020a03838116600160a060020a0319831681179093556040519116919082907f8be0079c531659141344cd1fd0a4f28419497f9722a3daafe3b4186f6b6457e090600090a35050565b60975460ff16156131dd5760405160e560020a62461bcd028152600401610bee90614478565b6097805460ff191660011790557f62e78cea01bee320cd4e420270b5ea74000d11b0c9f74754ebdbfc544b05a258612fc03390565b600054610100900460ff1661323c5760405160e560020a62461bcd028152600401610bee906148f1565b6113dc613727565b60008082600160a060020a031663313ce5676040518163ffffffff1660e060020a028152600401602060405180830381865afa158015613288573d6000803e3d6000fd5b505050506040513d601f19601f820116820180604052508101906132ac919061494e565b9050600083600160a060020a031663feaf968c6040518163ffffffff1660e060020a02815260040160a060405180830381865afa1580156132f1573d6000803e3d6000fd5b505050506040513d601f19601f820116820180604052508101906133159190614985565b505050915050600081121561336f5760405160e560020a62461bcd02815260206004820152601660248201527f6e656720707269636573206e6f7420616c6c6f776564000000000000000000006044820152606401610bee565b61337a82600a614abc565b6133898264e8d4a510006144de565b61339391906144fd565b949350505050565b600081156133e65760dd54156133e65761271060dd54836133bc91906144de565b6133c691906144fd565b60d85460d4549192506133e691600160a060020a03908116911683613038565b919050565b600080600060de5411156134175761271060de548661340a91906144de565b61341491906144fd565b91505b60df541561343d5761271060df548661343091906144de565b61343a91906144fd565b90505b60c95460ff16156134635761345382858561375a565b61345e8185856138d4565b613637565b600061346f8284614538565b60d05460d45491925061348f91600160a060020a03908116911683613081565b60d054604080516101008101825283815286516020808301919091526060808901518385015260d454600160a060020a039081169184019190915260d6548116608084015260a083018a905260ed805485518185028101850190965280865291909516946312ad7eba9460c085019390929083018282801561353a57602002820191906000526020600020905b8154600160a060020a0316815260019091019060200180831161351c575b505050918352505060cd54600160a060020a031660209091015260405160e060020a63ffffffff84160281526135739190600401614862565b600060405180830381600087803b15801561358d57600080fd5b505af11580156135a1573d6000803e3d6000fd5b505060cd5460ca546040517f464e3c8b0000000000000000000000000000000000000000000000000000000081526004810191909152602481018790526044810186905260648101899052600160a060020a03909116925063464e3c8b9150608401600060405180830381600087803b15801561361d57600080fd5b505af1158015613631573d6000803e3d6000fd5b50505050505b935093915050565b6000613694826040518060400160405280602081526020017f5361666545524332303a206c6f772d6c6576656c2063616c6c206661696c656481525085600160a060020a03166139d19092919063ffffffff16565b80519091501561136357808060200190518101906136b29190614acb565b6113635760405160e560020a62461bcd02815260206004820152602a60248201527f5361666545524332303a204552433230206f7065726174696f6e20646964206e60448201527f6f742073756363656564000000000000000000000000000000000000000000006064820152608401610bee565b600054610100900460ff166137515760405160e560020a62461bcd028152600401610bee906148f1565b6113dc33613165565b60d05460d45461377791600160a060020a03918216911685613081565b60d0546040805160a08101825260d454600160a060020a03908116825260ce54811660208084019190915260dc5482168385015260eb80548551818402810184019096528086529290951694638d82ddca94899489948994919360608501939290919083018282801561381357602002820191906000526020600020905b8154600160a060020a031681526001909101906020018083116137f5575b5050505050815260200160ec80548060200260200160405190810160405280929190818152602001828054801561387357602002820191906000526020600020905b8154600160a060020a03168152600190910190602001808311613855575b50505050508152506040518563ffffffff1660e060020a02815260040161389d9493929190614ae8565b600060405180830381600087803b1580156138b757600080fd5b505af11580156138cb573d6000803e3d6000fd5b50505050505050565b60d05460d4546138f191600160a060020a03918216911685613081565b60d05460408051610100810182528581528351602080830191909152848101518284015260d454600160a060020a03908116606084015260ce548116608084015260a0830187905260eb805485518185028101850190965280865291909516946312ad7eba9460c085019390929083018282801561399857602002820191906000526020600020905b8154600160a060020a0316815260019091019060200180831161397a575b505050918352505060cf54600160a060020a031660209091015260405160e060020a63ffffffff841602815261389d9190600401614862565b60606139e084846000856139ea565b90505b9392505050565b60603031831115613a665760405160e560020a62461bcd02815260206004820152602660248201527f416464726573733a20696e73756666696369656e742062616c616e636520666f60448201527f722063616c6c00000000000000000000000000000000000000000000000000006064820152608401610bee565b600160a060020a0385163b613ac05760405160e560020a62461bcd02815260206004820152601d60248201527f416464726573733a2063616c6c20746f206e6f6e2d636f6e74726163740000006044820152606401610bee565b60008086600160a060020a03168587604051613adc9190614bbc565b60006040518083038185875af1925050503d8060008114613b19576040519150601f19603f3d011682016040523d82523d6000602084013e613b1e565b606091505b5091509150613b2e828286613b39565b979650505050505050565b60608315613b485750816139e3565b825115613b585782518084602001fd5b8160405160e560020a62461bcd028152600401610bee9190614bd8565b828054828255906000526020600020908101928215613bca579160200282015b82811115613bca5782518254600160a060020a031916600160a060020a03909116178255602090920191600190910190613b95565b50613bd6929150613c2d565b5090565b828054828255906000526020600020908101928215613bca579160200282015b82811115613bca578154600160a060020a031916600160a060020a03843516178255602090920191600190910190613bfa565b5b80821115613bd65760008155600101613c2e565b600160a060020a0381168114612bf857600080fd5b80356133e681613c42565b600060208284031215613c7457600080fd5b81356139e381613c42565b8015158114612bf857600080fd5b80356133e681613c7f565b600060208284031215613caa57600080fd5b81356139e381613c7f565b600060208284031215613cc757600080fd5b5035919050565b7f4e487b7100000000000000000000000000000000000000000000000000000000600052604160045260246000fd5b604051610200810167ffffffffffffffff81118282101715613d2157613d21613cce565b60405290565b6040516101a0810167ffffffffffffffff81118282101715613d2157613d21613cce565b604051601f8201601f1916810167ffffffffffffffff81118282101715613d7457613d74613cce565b604052919050565b60006102008284031215613d8f57600080fd5b613d97613cfd565b9050613da282613c57565b8152613db060208301613c57565b6020820152613dc160408301613c57565b6040820152613dd260608301613c57565b6060820152613de360808301613c57565b6080820152613df460a08301613c57565b60a0820152613e0560c08301613c57565b60c0820152613e1660e08301613c57565b60e0820152610100613e29818401613c57565b90820152610120613e3b838201613c57565b90820152610140613e4d838201613c57565b90820152610160613e5f838201613c57565b90820152610180613e71838201613c57565b908201526101a0613e83838201613c57565b908201526101c0613e95838201613c57565b908201526101e0613ea7838201613c57565b9082015292915050565b600067ffffffffffffffff821115613ecb57613ecb613cce565b5060209081020190565b600082601f830112613ee657600080fd5b81356020613efb613ef683613eb1565b613d4b565b82815291810284018101918181019086841115613f1757600080fd5b8286015b84811015613f3b578035613f2e81613c42565b8352918301918301613f1b565b509695505050505050565b600060a08284031215613f5857600080fd5b60405160a0810181811067ffffffffffffffff82111715613f7b57613f7b613cce565b806040525080915082358152602083013560208201526040830135604082015260608301356060820152608083013560808201525092915050565b600060c08284031215613fc857600080fd5b60405160c0810181811067ffffffffffffffff82111715613feb57613feb613cce565b6040529050808235613ffc81613c42565b8152602083013561400c81613c42565b6020820152604083013561401f81613c42565b6040820152606083013561403281613c42565b6060820152608083013561404581613c42565b608082015260a083013561405881613c42565b60a0919091015292915050565b6000806040838503121561407857600080fd5b823561408381613c42565b9150602083013567ffffffffffffffff808211156140a057600080fd5b908401906104a082870312156140b557600080fd5b6140bd613d27565b823581526140cd60208401613c8d565b60208201526140de60408401613c8d565b60408201526140f08760608501613d7c565b60608201526102608301358281111561410857600080fd5b61411488828601613ed5565b6080830152506102808301358281111561412d57600080fd5b61413988828601613ed5565b60a0830152506102a08301358281111561415257600080fd5b61415e88828601613ed5565b60c0830152506102c08301358281111561417757600080fd5b61418388828601613ed5565b60e0830152506102e08301358281111561419c57600080fd5b6141a888828601613ed5565b61010083015250610300830135828111156141c257600080fd5b6141ce88828601613ed5565b61012083015250610320830135828111156141e857600080fd5b6141f488828601613ed5565b61014083015250614209876103408501613f46565b61016082015261421d876103e08501613fb6565b6101808201528093505050509250929050565b6000806040838503121561424357600080fd5b50508035926020909101359150565b60008060006060848603121561426757600080fd5b833561427281613c42565b925060208401359150604084013561428981613c42565b809150509250925092565b600080600080600060a086880312156142ac57600080fd5b505083359560208501359550604085013594606081013594506080013592509050565b60ff81168114612bf857600080fd5b6000806000604084860312156142f357600080fd5b83356142fe816142cf565b9250602084013567ffffffffffffffff8082111561431b57600080fd5b818601915086601f83011261432f57600080fd5b81358181111561433e57600080fd5b876020808302850101111561435257600080fd5b6020830194508093505050509250925092565b6000806040838503121561437857600080fd5b8235614383816142cf565b9150602083013561439381613c42565b809150509250929050565b6020808252818101527f4f776e61626c653a2063616c6c6572206973206e6f7420746865206f776e6572604082015260600190565b60208082526004908201527f21676f7600000000000000000000000000000000000000000000000000000000604082015260600190565b60208082526010908201527f217a6f72726f436f6e74726f6c6c657200000000000000000000000000000000604082015260600190565b6020808252601f908201527f5265656e7472616e637947756172643a207265656e7472616e742063616c6c00604082015260600190565b60208082526010908201527f5061757361626c653a2070617573656400000000000000000000000000000000604082015260600190565b7f4e487b7100000000000000000000000000000000000000000000000000000000600052601160045260246000fd5b60008160001904831182151516156144f8576144f86144af565b500290565b600082614533577f4e487b7100000000000000000000000000000000000000000000000000000000600052601260045260246000fd5b500490565b6000821982111561454b5761454b6144af565b500190565b6020808252602e908201527f496e697469616c697a61626c653a20636f6e747261637420697320616c72656160408201527f647920696e697469616c697a6564000000000000000000000000000000000000606082015260800190565b6020808252825482820181905260008481528281209092916040850190845b818110156145f1578354600160a060020a0316835260019384019392850192016145cc565b50909695505050505050565b6000602080838503121561461057600080fd5b825167ffffffffffffffff81111561462757600080fd5b8301601f8101851361463857600080fd5b8051614646613ef682613eb1565b8181529083028201830190838101908783111561466257600080fd5b928401925b82841015613b2e57835161467a81613c42565b82529284019290840190614667565b60008282101561469b5761469b6144af565b500390565b6000602082840312156146b257600080fd5b5051919050565b600081518084526020808501945080840160005b838110156146f2578151600160a060020a0316875295820195908201906001016146cd565b509495945050505050565b838152606060208201526000600160a060020a038085511660608401528060208601511660808401528060408601511660a084015250606084015161474d60c0840182600160a060020a03169052565b506080840151600160a060020a03811660e08401525060a0840151600160a060020a0381166101008401525060c084015160e06101208401526147946101408401826146b9565b915050826040830152949350505050565b838152606060208201526000600160a060020a038085511660608401528060208601511660808401525060408401516147e960a0840182600160a060020a03169052565b506060840151600160a060020a03811660c0840152506080840151600160a060020a03811660e08401525060a084015161010061483081850183600160a060020a03169052565b60c0860151600160a060020a031661012085015260e086015161014085019190915290506147946101608401826146b9565b6020815281516020820152602082015160408201526040820151606082015260006060830151600160a060020a0380821660808501528060808601511660a0850152505060a083015160c083015260c08301516101008060e08501526148cc6101208501836146b9565b915060e08501516148e782860182600160a060020a03169052565b5090949350505050565b6020808252602b908201527f496e697469616c697a61626c653a20636f6e7472616374206973206e6f74206960408201527f6e697469616c697a696e67000000000000000000000000000000000000000000606082015260800190565b60006020828403121561496057600080fd5b81516139e3816142cf565b805169ffffffffffffffffffff811681146133e657600080fd5b600080600080600060a0868803121561499d57600080fd5b6149a68661496b565b94506020860151935060408601519250606086015191506149c96080870161496b565b90509295509295909350565b600181815b80851115614a125781600019048211156149f6576149f66144af565b80851615614a0357918102915b600290940493908002906149da565b509250929050565b600082614a29575060016119e5565b81614a36575060006119e5565b8160018114614a4c5760028114614a5657614a73565b60019150506119e5565b60ff841115614a6757614a676144af565b8360020a9150506119e5565b5060208310610133831016604e8410600b8410161715614a96575081810a6119e5565b614aa083836149d5565b8060001904821115614ab457614ab46144af565b029392505050565b60006119e260ff841683614a1a565b600060208284031215614add57600080fd5b81516139e381613c7f565b848152836020820152825160408201526020830151606082015260408301516080820152606083015160a082015260e060c08201526000600160a060020a038084511660e0840152806020850151166101008401528060408501511661012084015250606083015160a0610140840152614b666101808401826146b9565b9050608084015160df1984830301610160850152614b8482826146b9565b98975050505050505050565b60005b83811015614bab578181015183820152602001614b93565b83811115611f975750506000910152565b60008251614bce818460208701614b90565b9190910192915050565b6020815260008251806020840152614bf7816040850160208701614b90565b601f01601f1916919091016040019291505056fea2646970667358221220f4069f344de4496c6b2bad3ba2e26e00da6c0993769a1ed770e2d310ff45875064736f6c634300080a0033",
  "immutableReferences": {},
  "source": "// SPDX-License-Identifier: MIT\n\npragma solidity ^0.8.0;\n\nimport \"./actions/VaultActionsAlpaca.sol\";\n\nimport \"./_VaultBase.sol\";\n\n/// @title Vault contract for Alpaca strategies\ncontract VaultAlpaca is VaultBase {\n    /* Libraries */\n\n    using SafeERC20Upgradeable for IERC20Upgradeable;\n    using PriceFeed for AggregatorV3Interface;\n\n    /* Constructor */\n\n    /// @notice Upgradeable constructor\n    /// @param _initValue A VaultAlpacaInit struct containing all init values\n    /// @param _timelockOwner The designated timelock controller address to act as owner\n    function initialize(\n        address _timelockOwner,\n        VaultAlpacaInit memory _initValue\n    ) public initializer {\n        // Vault config\n        pid = _initValue.pid;\n        isHomeChain = _initValue.isHomeChain;\n        isFarmable = _initValue.isFarmable;\n\n        // Addresses\n        govAddress = _initValue.keyAddresses.govAddress;\n        onlyGov = true;\n        zorroControllerAddress = _initValue.keyAddresses.zorroControllerAddress;\n        zorroXChainController = _initValue.keyAddresses.zorroXChainController;\n        ZORROAddress = _initValue.keyAddresses.ZORROAddress;\n        zorroStakingVault = _initValue.keyAddresses.zorroStakingVault;\n        wantAddress = _initValue.keyAddresses.wantAddress;\n        token0Address = _initValue.keyAddresses.token0Address;\n        earnedAddress = _initValue.keyAddresses.earnedAddress;\n        farmContractAddress = _initValue.keyAddresses.farmContractAddress;\n        rewardsAddress = _initValue.keyAddresses.rewardsAddress;\n        poolAddress = _initValue.keyAddresses.poolAddress;\n        uniRouterAddress = _initValue.keyAddresses.uniRouterAddress;\n        zorroLPPool = _initValue.keyAddresses.zorroLPPool;\n        zorroLPPoolOtherToken = _initValue.keyAddresses.zorroLPPoolOtherToken;\n        defaultStablecoin = _initValue.keyAddresses.defaultStablecoin;\n\n        // Fees\n        controllerFee = _initValue.fees.controllerFee;\n        buyBackRate = _initValue.fees.buyBackRate;\n        revShareRate = _initValue.fees.revShareRate;\n        entranceFeeFactor = _initValue.fees.entranceFeeFactor;\n        withdrawFeeFactor = _initValue.fees.withdrawFeeFactor;\n\n        // Swap paths\n        earnedToZORROPath = _initValue.earnedToZORROPath;\n        earnedToToken0Path = _initValue.earnedToToken0Path;\n        stablecoinToToken0Path = _initValue.stablecoinToToken0Path;\n        earnedToZORLPPoolOtherTokenPath = _initValue\n            .earnedToZORLPPoolOtherTokenPath;\n        earnedToStablecoinPath = _initValue.earnedToStablecoinPath;\n        stablecoinToToken0Path = _initValue.stablecoinToToken0Path;\n        stablecoinToZORROPath = _initValue.stablecoinToZORROPath;\n        stablecoinToLPPoolOtherTokenPath = _initValue\n            .stablecoinToLPPoolOtherTokenPath;\n        // Corresponding reverse paths\n        token0ToStablecoinPath = VaultActions(vaultActions).reversePath(\n            stablecoinToToken0Path\n        );\n\n        // Price feeds\n        token0PriceFeed = AggregatorV3Interface(\n            _initValue.priceFeeds.token0PriceFeed\n        );\n        earnTokenPriceFeed = AggregatorV3Interface(\n            _initValue.priceFeeds.earnTokenPriceFeed\n        );\n        lpPoolOtherTokenPriceFeed = AggregatorV3Interface(\n            _initValue.priceFeeds.lpPoolOtherTokenPriceFeed\n        );\n        ZORPriceFeed = AggregatorV3Interface(\n            _initValue.priceFeeds.ZORPriceFeed\n        );\n        stablecoinPriceFeed = AggregatorV3Interface(\n            _initValue.priceFeeds.stablecoinPriceFeed\n        );\n\n        // Super call\n        VaultBase.initialize(_timelockOwner);\n    }\n\n    /* Structs */\n\n    struct VaultAlpacaInit {\n        uint256 pid;\n        bool isHomeChain;\n        bool isFarmable;\n        VaultActions.VaultAddresses keyAddresses;\n        address[] earnedToZORROPath;\n        address[] earnedToToken0Path;\n        address[] stablecoinToToken0Path;\n        address[] earnedToZORLPPoolOtherTokenPath;\n        address[] earnedToStablecoinPath;\n        address[] stablecoinToZORROPath;\n        address[] stablecoinToLPPoolOtherTokenPath;\n        VaultActions.VaultFees fees;\n        VaultActions.VaultPriceFeeds priceFeeds;\n    }\n\n    /* State */\n\n    address[] public stablecoinToZORROPath; // Swap path from BUSD to ZOR (PCS)\n    address[] public stablecoinToLPPoolOtherTokenPath; // Swap path from BUSD to ZOR LP Pool's \"other token\" (PCS)\n\n    /* Setters */\n\n    function setStablecoinSwapPaths(uint8 _idx, address[] calldata _path)\n        external\n        onlyOwner\n    {\n        if (_idx == 0) {\n            stablecoinToToken0Path = _path;\n        } else if (_idx == 1) {\n            stablecoinToZORROPath = _path;\n        } else if (_idx == 2) {\n            stablecoinToLPPoolOtherTokenPath = _path;\n        } else {\n            revert(\"unsupported idx swap path\");\n        }\n    }\n\n    /* Investment Actions */\n\n    /// @notice Receives new deposits from user\n    /// @param _wantAmt amount of Want token to deposit/stake\n    /// @return sharesAdded uint256 Number of shares added\n    function depositWantToken(uint256 _wantAmt)\n        public\n        virtual\n        override\n        onlyZorroController\n        nonReentrant\n        whenNotPaused\n        returns (uint256 sharesAdded)\n    {\n        // Preflight checks\n        require(_wantAmt > 0, \"Want token deposit must be > 0\");\n\n        // Transfer Want token from sender\n        IERC20Upgradeable(wantAddress).safeTransferFrom(\n            msg.sender,\n            address(this),\n            _wantAmt\n        );\n\n        // Set sharesAdded to the Want token amount specified\n        sharesAdded = _wantAmt;\n        // If the total number of shares and want tokens locked both exceed 0, the shares added is the proportion of Want tokens locked,\n        // discounted by the entrance fee\n        if (wantLockedTotal > 0 && sharesTotal > 0) {\n            sharesAdded =\n                (_wantAmt * sharesTotal * entranceFeeFactor) /\n                (wantLockedTotal * entranceFeeFactorMax);\n        }\n        // Increment the shares\n        sharesTotal = sharesTotal + sharesAdded;\n\n        // Farm the want token if applicable. Otherwise increment want locked\n        if (isFarmable) {\n            _farm();\n        } else {\n            wantLockedTotal = wantLockedTotal + _wantAmt;\n        }\n    }\n\n    /// @notice Performs necessary operations to convert USD into Want token\n    /// @param _amountUSD The USD quantity to exchange (must already be deposited)\n    /// @param _maxMarketMovementAllowed The max slippage allowed. 1000 = 0 %, 995 = 0.5%, etc.\n    /// @return uint256 Amount of Want token obtained\n    function exchangeUSDForWantToken(\n        uint256 _amountUSD,\n        uint256 _maxMarketMovementAllowed\n    ) public override onlyZorroController whenNotPaused returns (uint256) {\n        // Allow spending\n        IERC20Upgradeable(defaultStablecoin).safeIncreaseAllowance(\n            vaultActions,\n            _amountUSD\n        );\n\n        // Exchange\n        return\n            VaultActionsAlpaca(vaultActions).exchangeUSDForWantToken(\n                _amountUSD,\n                VaultActionsAlpaca.ExchangeUSDForWantParams({\n                    token0Address: token0Address,\n                    stablecoin: defaultStablecoin,\n                    tokenZorroAddress: ZORROAddress,\n                    token0PriceFeed: token0PriceFeed,\n                    stablecoinPriceFeed: stablecoinPriceFeed,\n                    stablecoinToToken0Path: stablecoinToToken0Path,\n                    poolAddress: poolAddress,\n                    wantAddress: wantAddress\n                }),\n                _maxMarketMovementAllowed\n            );\n    }\n\n    /// @notice Public function for farming Want token.\n    function farm() public virtual nonReentrant {\n        _farm();\n    }\n\n    /// @notice Internal function for farming Want token. Responsible for staking Want token in a MasterChef/MasterApe-like contract\n    function _farm() internal virtual {\n        require(isFarmable, \"!farmable\");\n\n        // Get the Want token stored on this contract\n        uint256 _wantAmt = IERC20Upgradeable(wantAddress).balanceOf(\n            address(this)\n        );\n        // Increment the total Want tokens locked into this contract\n        wantLockedTotal = wantLockedTotal + _wantAmt;\n        // Allow the farm contract (e.g. MasterChef) the ability to transfer up to the Want amount\n        IERC20Upgradeable(wantAddress).safeIncreaseAllowance(\n            farmContractAddress,\n            _wantAmt\n        );\n\n        // Deposit the Want tokens in the Farm contract\n        IFairLaunch(farmContractAddress).deposit(address(this), pid, _wantAmt);\n    }\n\n    /// @notice Internal function for unfarming Want token. Responsible for unstaking Want token from MasterChef/MasterApe contracts\n    /// @param _wantAmt the amount of Want tokens to withdraw. If 0, will only harvest and not withdraw\n    function _unfarm(uint256 _wantAmt) internal {\n        // Withdraw the Want tokens from the Farm contract\n        IFairLaunch(farmContractAddress).withdraw(address(this), pid, _wantAmt);\n    }\n\n    /// @notice Fully withdraw Want tokens from the Farm contract (100% withdrawals only)\n    /// @param _wantAmt The amount of Want token to withdraw\n    /// @return sharesRemoved The number of shares removed\n    function withdrawWantToken(uint256 _wantAmt)\n        public\n        virtual\n        override\n        onlyZorroController\n        nonReentrant\n        whenNotPaused\n        returns (uint256 sharesRemoved)\n    {\n        // Preflight checks\n        require(_wantAmt > 0, \"negWant\");\n\n        // Shares removed is proportional to the % of total Want tokens locked that _wantAmt represents\n        sharesRemoved = (_wantAmt * sharesTotal) / wantLockedTotal;\n        // Safety: cap the shares to the total number of shares\n        if (sharesRemoved > sharesTotal) {\n            sharesRemoved = sharesTotal;\n        }\n        // Decrement the total shares by the sharesRemoved\n        sharesTotal = sharesTotal - sharesRemoved;\n\n        // If a withdrawal fee is specified, discount the _wantAmt by the withdrawal fee\n        if (withdrawFeeFactor < withdrawFeeFactorMax) {\n            _wantAmt = (_wantAmt * withdrawFeeFactor) / withdrawFeeFactorMax;\n        }\n\n        // Unfarm Want token if applicable\n        if (isFarmable) {\n            _unfarm(_wantAmt);\n        }\n\n        // Safety: Check balance of this contract's Want tokens held, and cap _wantAmt to that value\n        uint256 _wantBal = IERC20Upgradeable(wantAddress).balanceOf(\n            address(this)\n        );\n        if (_wantAmt > _wantBal) {\n            _wantAmt = _wantBal;\n        }\n        // Safety: cap _wantAmt at the total quantity of Want tokens locked\n        if (wantLockedTotal < _wantAmt) {\n            _wantAmt = wantLockedTotal;\n        }\n\n        // Decrement the total Want locked tokens by the _wantAmt\n        wantLockedTotal = wantLockedTotal - _wantAmt;\n\n        // Finally, transfer the want amount from this contract, back to the ZorroController contract\n        IERC20Upgradeable(wantAddress).safeTransfer(\n            zorroControllerAddress,\n            _wantAmt\n        );\n    }\n\n    /// @notice Converts Want token back into USD to be ready for withdrawal and transfers to sender\n    /// @param _amount The Want token quantity to exchange (must be deposited beforehand)\n    /// @param _maxMarketMovementAllowed The max slippage allowed for swaps. 1000 = 0 %, 995 = 0.5%, etc.\n    /// @return uint256 Amount of USD token obtained\n    function exchangeWantTokenForUSD(\n        uint256 _amount,\n        uint256 _maxMarketMovementAllowed\n    )\n        public\n        virtual\n        override\n        onlyZorroController\n        whenNotPaused\n        returns (uint256)\n    {\n        // Allow spending\n        IERC20Upgradeable(wantAddress).safeIncreaseAllowance(\n            vaultActions,\n            _amount\n        );\n\n        // Exchange\n        return\n            VaultActionsAlpaca(vaultActions).exchangeWantTokenForUSD(\n                _amount,\n                VaultActionsAlpaca.ExchangeWantTokenForUSDParams({\n                    token0Address: token0Address,\n                    stablecoin: defaultStablecoin,\n                    wantAddress: wantAddress,\n                    poolAddress: poolAddress,\n                    token0PriceFeed: token0PriceFeed,\n                    stablecoinPriceFeed: stablecoinPriceFeed,\n                    token0ToStablecoinPath: token0ToStablecoinPath\n                }),\n                _maxMarketMovementAllowed\n            );\n    }\n\n    /// @notice The main compounding (earn) function. Reinvests profits since the last earn event.\n    /// @param _maxMarketMovementAllowed The max slippage allowed. 1000 = 0 %, 995 = 0.5%, etc.\n    function earn(uint256 _maxMarketMovementAllowed)\n        public\n        virtual\n        override\n        nonReentrant\n        whenNotPaused\n    {\n        require(isFarmable, \"!farmable\");\n\n        // If onlyGov is set to true, only allow to proceed if the current caller is the govAddress\n        if (onlyGov) {\n            require(msg.sender == govAddress, \"!gov\");\n        }\n\n        // Harvest farm tokens\n        _unfarm(0);\n\n        // Get the balance of the Earned token on this contract\n        uint256 _earnedAmt = IERC20(earnedAddress).balanceOf(address(this));\n\n        // Require pending rewards in order to continue\n        require(_earnedAmt > 0, \"0earn\");\n\n        // Create rates struct\n        VaultActionsAlpaca.ExchangeRates memory _rates = VaultActions\n            .ExchangeRates({\n                earn: earnTokenPriceFeed.getExchangeRate(),\n                ZOR: ZORPriceFeed.getExchangeRate(),\n                lpPoolOtherToken: lpPoolOtherTokenPriceFeed.getExchangeRate(),\n                stablecoin: stablecoinPriceFeed.getExchangeRate()\n            });\n\n        // Distribute fees\n        uint256 _controllerFee = _distributeFees(_earnedAmt);\n\n        // Buyback & rev share\n        (uint256 _buybackAmt, uint256 _revShareAmt) = _buyBackAndRevShare(\n            _earnedAmt,\n            _maxMarketMovementAllowed,\n            _rates\n        );\n\n        // Net earned amt\n        uint256 _earnedAmtNet = _earnedAmt -\n            _controllerFee -\n            _buybackAmt -\n            _revShareAmt;\n\n        // Swap earn to token0 if token0 is not earn\n        if (token0Address != earnedAddress) {\n            // Approve spending\n            IERC20Upgradeable(earnedAddress).safeIncreaseAllowance(\n                vaultActions,\n                _earnedAmtNet\n            );\n\n            // Swap\n            VaultActionsAlpaca(vaultActions).safeSwap(\n                SafeSwapUni.SafeSwapParams({\n                    amountIn: _earnedAmtNet,\n                    priceToken0: _rates.earn,\n                    priceToken1: token0PriceFeed.getExchangeRate(),\n                    token0: earnedAddress,\n                    token1: token0Address,\n                    maxMarketMovementAllowed: _maxMarketMovementAllowed,\n                    path: earnedToToken0Path,\n                    destination: address(this)\n                })\n            );\n        }\n\n        // Redeposit single asset token to get Want token\n        // Get new Token0 balance\n        uint256 _token0Bal = IERC20Upgradeable(token0Address).balanceOf(\n            address(this)\n        );\n\n        // Allow spending\n        IERC20Upgradeable(token0Address).safeIncreaseAllowance(\n            poolAddress,\n            _token0Bal\n        );\n\n        // Deposit token to get Want token\n        IAlpacaVault(poolAddress).deposit(_token0Bal);\n\n        // This vault is only for single asset deposits, so farm that token and exit\n        // Update the last earn block\n        lastEarnBlock = block.number;\n\n        // Farm LP token\n        _farm();\n    }\n}\n\ncontract VaultAlpacaLeveragedBTCB is VaultAlpaca {}\n",
  "sourcePath": "/Users/kristophm/Documents/workspace/zorro-protocol/contracts/vaults/VaultAlpaca.sol",
  "compiler": {
    "name": "solc",
    "version": "0.8.10+commit.fc410830.Emscripten.clang"
  },
  "schemaVersion": "3.4.10",
  "updatedAt": "2022-11-24T02:03:38.088Z",
  "devdoc": {
    "kind": "dev",
    "methods": {
      "depositWantToken(uint256)": {
        "params": {
          "_wantAmt": "amount of Want token to deposit/stake"
        },
        "returns": {
          "sharesAdded": "uint256 Number of shares added"
        }
      },
      "earn(uint256)": {
        "params": {
          "_maxMarketMovementAllowed": "The max slippage allowed. 1000 = 0 %, 995 = 0.5%, etc."
        }
      },
      "exchangeUSDForWantToken(uint256,uint256)": {
        "params": {
          "_amountUSD": "The USD quantity to exchange (must already be deposited)",
          "_maxMarketMovementAllowed": "The max slippage allowed. 1000 = 0 %, 995 = 0.5%, etc."
        },
        "returns": {
          "_0": "uint256 Amount of Want token obtained"
        }
      },
      "exchangeWantTokenForUSD(uint256,uint256)": {
        "params": {
          "_amount": "The Want token quantity to exchange (must be deposited beforehand)",
          "_maxMarketMovementAllowed": "The max slippage allowed for swaps. 1000 = 0 %, 995 = 0.5%, etc."
        },
        "returns": {
          "_0": "uint256 Amount of USD token obtained"
        }
      },
      "inCaseTokensGetStuck(address,uint256,address)": {
        "params": {
          "_amount": "The amount of the tokens to transfer",
          "_to": "The address to transfer tokens to",
          "_token": "Address of the ERC20 token to transfer"
        }
      },
      "initialize(address,(uint256,bool,bool,(address,address,address,address,address,address,address,address,address,address,address,address,address,address,address,address),address[],address[],address[],address[],address[],address[],address[],(uint256,uint256,uint256,uint256,uint256),(address,address,address,address,address,address)))": {
        "params": {
          "_initValue": "A VaultAlpacaInit struct containing all init values",
          "_timelockOwner": "The designated timelock controller address to act as owner"
        }
      },
      "owner()": {
        "details": "Returns the address of the current owner."
      },
      "paused()": {
        "details": "Returns true if the contract is paused, and false otherwise."
      },
      "renounceOwnership()": {
        "details": "Leaves the contract without owner. It will not be possible to call `onlyOwner` functions anymore. Can only be called by the current owner. NOTE: Renouncing ownership will leave the contract without an owner, thereby removing any functionality that is only available to the owner."
      },
      "setFeeSettings(uint256,uint256,uint256,uint256,uint256)": {
        "params": {
          "_buyBackRate": "Buy back rate fee numerator",
          "_controllerFee": "Controller fee numerator",
          "_entranceFeeFactor": "Entrance fee numerator (higher means smaller percentage)",
          "_revShareRate": "Rev share rate fee numerator",
          "_withdrawFeeFactor": "Withdrawal fee numerator (higher means smaller percentage)"
        }
      },
      "setGov(address)": {
        "params": {
          "_govAddress": "The new gov address"
        }
      },
      "setOnlyGov(bool)": {
        "params": {
          "_onlyGov": "whether onlyGov should be enforced"
        }
      },
      "transferOwnership(address)": {
        "details": "Transfers ownership of the contract to a new account (`newOwner`). Can only be called by the current owner."
      },
      "withdrawWantToken(uint256)": {
        "params": {
          "_wantAmt": "The amount of Want token to withdraw"
        },
        "returns": {
          "sharesRemoved": "The number of shares removed"
        }
      }
    },
    "version": 1
  },
  "userdoc": {
    "kind": "user",
    "methods": {
      "depositWantToken(uint256)": {
        "notice": "Receives new deposits from user"
      },
      "earn(uint256)": {
        "notice": "The main compounding (earn) function. Reinvests profits since the last earn event."
      },
      "exchangeUSDForWantToken(uint256,uint256)": {
        "notice": "Performs necessary operations to convert USD into Want token"
      },
      "exchangeWantTokenForUSD(uint256,uint256)": {
        "notice": "Converts Want token back into USD to be ready for withdrawal and transfers to sender"
      },
      "farm()": {
        "notice": "Public function for farming Want token."
      },
      "inCaseTokensGetStuck(address,uint256,address)": {
        "notice": "Safely transfer ERC20 tokens stuck in this contract to a specified address"
      },
      "initialize(address,(uint256,bool,bool,(address,address,address,address,address,address,address,address,address,address,address,address,address,address,address,address),address[],address[],address[],address[],address[],address[],address[],(uint256,uint256,uint256,uint256,uint256),(address,address,address,address,address,address)))": {
        "notice": "Upgradeable constructor"
      },
      "pause()": {
        "notice": "Pause contract"
      },
      "setFeeSettings(uint256,uint256,uint256,uint256,uint256)": {
        "notice": "Configure key fee parameters"
      },
      "setGov(address)": {
        "notice": "Set governor address"
      },
      "setOnlyGov(bool)": {
        "notice": "Set onlyGov property"
      },
      "unpause()": {
        "notice": "Unpause contract"
      },
      "withdrawWantToken(uint256)": {
        "notice": "Fully withdraw Want tokens from the Farm contract (100% withdrawals only)"
      }
    },
    "version": 1
  }
}