{
  "contractName": "VaultStandardAMM",
  "abi": [
    {
      "anonymous": false,
      "inputs": [
        {
          "indexed": true,
          "internalType": "uint256",
          "name": "_amount",
          "type": "uint256"
        }
      ],
      "name": "Buyback",
      "type": "event"
    },
    {
      "anonymous": false,
      "inputs": [
        {
          "indexed": true,
          "internalType": "address",
          "name": "previousOwner",
          "type": "address"
        },
        {
          "indexed": true,
          "internalType": "address",
          "name": "newOwner",
          "type": "address"
        }
      ],
      "name": "OwnershipTransferred",
      "type": "event"
    },
    {
      "anonymous": false,
      "inputs": [
        {
          "indexed": false,
          "internalType": "address",
          "name": "account",
          "type": "address"
        }
      ],
      "name": "Paused",
      "type": "event"
    },
    {
      "anonymous": false,
      "inputs": [
        {
          "indexed": true,
          "internalType": "uint256",
          "name": "_amount",
          "type": "uint256"
        }
      ],
      "name": "RevShare",
      "type": "event"
    },
    {
      "anonymous": false,
      "inputs": [
        {
          "indexed": false,
          "internalType": "address",
          "name": "_govAddress",
          "type": "address"
        }
      ],
      "name": "SetGov",
      "type": "event"
    },
    {
      "anonymous": false,
      "inputs": [
        {
          "indexed": false,
          "internalType": "bool",
          "name": "_onlyGov",
          "type": "bool"
        }
      ],
      "name": "SetOnlyGov",
      "type": "event"
    },
    {
      "anonymous": false,
      "inputs": [
        {
          "indexed": false,
          "internalType": "address",
          "name": "_rewardsAddress",
          "type": "address"
        }
      ],
      "name": "SetRewardsAddress",
      "type": "event"
    },
    {
      "anonymous": false,
      "inputs": [
        {
          "indexed": false,
          "internalType": "uint256",
          "name": "_entranceFeeFactor",
          "type": "uint256"
        },
        {
          "indexed": false,
          "internalType": "uint256",
          "name": "_withdrawFeeFactor",
          "type": "uint256"
        },
        {
          "indexed": false,
          "internalType": "uint256",
          "name": "_controllerFee",
          "type": "uint256"
        },
        {
          "indexed": false,
          "internalType": "uint256",
          "name": "_buyBackRate",
          "type": "uint256"
        },
        {
          "indexed": false,
          "internalType": "uint256",
          "name": "_revShareRate",
          "type": "uint256"
        }
      ],
      "name": "SetSettings",
      "type": "event"
    },
    {
      "anonymous": false,
      "inputs": [
        {
          "indexed": false,
          "internalType": "address",
          "name": "_uniRouterAddress",
          "type": "address"
        }
      ],
      "name": "SetUniRouterAddress",
      "type": "event"
    },
    {
      "anonymous": false,
      "inputs": [
        {
          "indexed": false,
          "internalType": "address",
          "name": "account",
          "type": "address"
        }
      ],
      "name": "Unpaused",
      "type": "event"
    },
    {
      "inputs": [
        {
          "internalType": "uint256",
          "name": "",
          "type": "uint256"
        }
      ],
      "name": "USDCToToken0Path",
      "outputs": [
        {
          "internalType": "address",
          "name": "",
          "type": "address"
        }
      ],
      "stateMutability": "view",
      "type": "function",
      "constant": true
    },
    {
      "inputs": [
        {
          "internalType": "uint256",
          "name": "",
          "type": "uint256"
        }
      ],
      "name": "USDCToToken1Path",
      "outputs": [
        {
          "internalType": "address",
          "name": "",
          "type": "address"
        }
      ],
      "stateMutability": "view",
      "type": "function",
      "constant": true
    },
    {
      "inputs": [],
      "name": "ZORPriceFeed",
      "outputs": [
        {
          "internalType": "contract AggregatorV3Interface",
          "name": "",
          "type": "address"
        }
      ],
      "stateMutability": "view",
      "type": "function",
      "constant": true
    },
    {
      "inputs": [],
      "name": "ZORROAddress",
      "outputs": [
        {
          "internalType": "address",
          "name": "",
          "type": "address"
        }
      ],
      "stateMutability": "view",
      "type": "function",
      "constant": true
    },
    {
      "inputs": [],
      "name": "burnAddress",
      "outputs": [
        {
          "internalType": "address",
          "name": "",
          "type": "address"
        }
      ],
      "stateMutability": "view",
      "type": "function",
      "constant": true
    },
    {
      "inputs": [],
      "name": "buyBackRate",
      "outputs": [
        {
          "internalType": "uint256",
          "name": "",
          "type": "uint256"
        }
      ],
      "stateMutability": "view",
      "type": "function",
      "constant": true
    },
    {
      "inputs": [],
      "name": "buyBackRateMax",
      "outputs": [
        {
          "internalType": "uint256",
          "name": "",
          "type": "uint256"
        }
      ],
      "stateMutability": "view",
      "type": "function",
      "constant": true
    },
    {
      "inputs": [],
      "name": "buyBackRateUL",
      "outputs": [
        {
          "internalType": "uint256",
          "name": "",
          "type": "uint256"
        }
      ],
      "stateMutability": "view",
      "type": "function",
      "constant": true
    },
    {
      "inputs": [],
      "name": "controllerFee",
      "outputs": [
        {
          "internalType": "uint256",
          "name": "",
          "type": "uint256"
        }
      ],
      "stateMutability": "view",
      "type": "function",
      "constant": true
    },
    {
      "inputs": [],
      "name": "controllerFeeMax",
      "outputs": [
        {
          "internalType": "uint256",
          "name": "",
          "type": "uint256"
        }
      ],
      "stateMutability": "view",
      "type": "function",
      "constant": true
    },
    {
      "inputs": [],
      "name": "controllerFeeUL",
      "outputs": [
        {
          "internalType": "uint256",
          "name": "",
          "type": "uint256"
        }
      ],
      "stateMutability": "view",
      "type": "function",
      "constant": true
    },
    {
      "inputs": [],
      "name": "earnTokenPriceFeed",
      "outputs": [
        {
          "internalType": "contract AggregatorV3Interface",
          "name": "",
          "type": "address"
        }
      ],
      "stateMutability": "view",
      "type": "function",
      "constant": true
    },
    {
      "inputs": [],
      "name": "earnedAddress",
      "outputs": [
        {
          "internalType": "address",
          "name": "",
          "type": "address"
        }
      ],
      "stateMutability": "view",
      "type": "function",
      "constant": true
    },
    {
      "inputs": [
        {
          "internalType": "uint256",
          "name": "",
          "type": "uint256"
        }
      ],
      "name": "earnedToToken0Path",
      "outputs": [
        {
          "internalType": "address",
          "name": "",
          "type": "address"
        }
      ],
      "stateMutability": "view",
      "type": "function",
      "constant": true
    },
    {
      "inputs": [
        {
          "internalType": "uint256",
          "name": "",
          "type": "uint256"
        }
      ],
      "name": "earnedToToken1Path",
      "outputs": [
        {
          "internalType": "address",
          "name": "",
          "type": "address"
        }
      ],
      "stateMutability": "view",
      "type": "function",
      "constant": true
    },
    {
      "inputs": [
        {
          "internalType": "uint256",
          "name": "",
          "type": "uint256"
        }
      ],
      "name": "earnedToUSDCPath",
      "outputs": [
        {
          "internalType": "address",
          "name": "",
          "type": "address"
        }
      ],
      "stateMutability": "view",
      "type": "function",
      "constant": true
    },
    {
      "inputs": [
        {
          "internalType": "uint256",
          "name": "",
          "type": "uint256"
        }
      ],
      "name": "earnedToZORLPPoolOtherTokenPath",
      "outputs": [
        {
          "internalType": "address",
          "name": "",
          "type": "address"
        }
      ],
      "stateMutability": "view",
      "type": "function",
      "constant": true
    },
    {
      "inputs": [
        {
          "internalType": "uint256",
          "name": "",
          "type": "uint256"
        }
      ],
      "name": "earnedToZORROPath",
      "outputs": [
        {
          "internalType": "address",
          "name": "",
          "type": "address"
        }
      ],
      "stateMutability": "view",
      "type": "function",
      "constant": true
    },
    {
      "inputs": [],
      "name": "entranceFeeFactor",
      "outputs": [
        {
          "internalType": "uint256",
          "name": "",
          "type": "uint256"
        }
      ],
      "stateMutability": "view",
      "type": "function",
      "constant": true
    },
    {
      "inputs": [],
      "name": "entranceFeeFactorLL",
      "outputs": [
        {
          "internalType": "uint256",
          "name": "",
          "type": "uint256"
        }
      ],
      "stateMutability": "view",
      "type": "function",
      "constant": true
    },
    {
      "inputs": [],
      "name": "entranceFeeFactorMax",
      "outputs": [
        {
          "internalType": "uint256",
          "name": "",
          "type": "uint256"
        }
      ],
      "stateMutability": "view",
      "type": "function",
      "constant": true
    },
    {
      "inputs": [],
      "name": "farmContractAddress",
      "outputs": [
        {
          "internalType": "address",
          "name": "",
          "type": "address"
        }
      ],
      "stateMutability": "view",
      "type": "function",
      "constant": true
    },
    {
      "inputs": [],
      "name": "govAddress",
      "outputs": [
        {
          "internalType": "address",
          "name": "",
          "type": "address"
        }
      ],
      "stateMutability": "view",
      "type": "function",
      "constant": true
    },
    {
      "inputs": [
        {
          "internalType": "address",
          "name": "_token",
          "type": "address"
        },
        {
          "internalType": "uint256",
          "name": "_amount",
          "type": "uint256"
        },
        {
          "internalType": "address",
          "name": "_to",
          "type": "address"
        }
      ],
      "name": "inCaseTokensGetStuck",
      "outputs": [],
      "stateMutability": "nonpayable",
      "type": "function"
    },
    {
      "inputs": [],
      "name": "isHomeChain",
      "outputs": [
        {
          "internalType": "bool",
          "name": "",
          "type": "bool"
        }
      ],
      "stateMutability": "view",
      "type": "function",
      "constant": true
    },
    {
      "inputs": [],
      "name": "lastEarnBlock",
      "outputs": [
        {
          "internalType": "uint256",
          "name": "",
          "type": "uint256"
        }
      ],
      "stateMutability": "view",
      "type": "function",
      "constant": true
    },
    {
      "inputs": [],
      "name": "lpPoolOtherTokenPriceFeed",
      "outputs": [
        {
          "internalType": "contract AggregatorV3Interface",
          "name": "",
          "type": "address"
        }
      ],
      "stateMutability": "view",
      "type": "function",
      "constant": true
    },
    {
      "inputs": [],
      "name": "onlyGov",
      "outputs": [
        {
          "internalType": "bool",
          "name": "",
          "type": "bool"
        }
      ],
      "stateMutability": "view",
      "type": "function",
      "constant": true
    },
    {
      "inputs": [],
      "name": "owner",
      "outputs": [
        {
          "internalType": "address",
          "name": "",
          "type": "address"
        }
      ],
      "stateMutability": "view",
      "type": "function",
      "constant": true
    },
    {
      "inputs": [],
      "name": "pause",
      "outputs": [],
      "stateMutability": "nonpayable",
      "type": "function"
    },
    {
      "inputs": [],
      "name": "paused",
      "outputs": [
        {
          "internalType": "bool",
          "name": "",
          "type": "bool"
        }
      ],
      "stateMutability": "view",
      "type": "function",
      "constant": true
    },
    {
      "inputs": [],
      "name": "pid",
      "outputs": [
        {
          "internalType": "uint256",
          "name": "",
          "type": "uint256"
        }
      ],
      "stateMutability": "view",
      "type": "function",
      "constant": true
    },
    {
      "inputs": [],
      "name": "poolAddress",
      "outputs": [
        {
          "internalType": "address",
          "name": "",
          "type": "address"
        }
      ],
      "stateMutability": "view",
      "type": "function",
      "constant": true
    },
    {
      "inputs": [],
      "name": "renounceOwnership",
      "outputs": [],
      "stateMutability": "nonpayable",
      "type": "function"
    },
    {
      "inputs": [],
      "name": "revShareRate",
      "outputs": [
        {
          "internalType": "uint256",
          "name": "",
          "type": "uint256"
        }
      ],
      "stateMutability": "view",
      "type": "function",
      "constant": true
    },
    {
      "inputs": [],
      "name": "revShareRateMax",
      "outputs": [
        {
          "internalType": "uint256",
          "name": "",
          "type": "uint256"
        }
      ],
      "stateMutability": "view",
      "type": "function",
      "constant": true
    },
    {
      "inputs": [],
      "name": "revShareRateUL",
      "outputs": [
        {
          "internalType": "uint256",
          "name": "",
          "type": "uint256"
        }
      ],
      "stateMutability": "view",
      "type": "function",
      "constant": true
    },
    {
      "inputs": [],
      "name": "rewardsAddress",
      "outputs": [
        {
          "internalType": "address",
          "name": "",
          "type": "address"
        }
      ],
      "stateMutability": "view",
      "type": "function",
      "constant": true
    },
    {
      "inputs": [
        {
          "internalType": "address",
          "name": "_burnAddress",
          "type": "address"
        }
      ],
      "name": "setBurnAddress",
      "outputs": [],
      "stateMutability": "nonpayable",
      "type": "function"
    },
    {
      "inputs": [
        {
          "internalType": "address",
          "name": "_earnedAddress",
          "type": "address"
        }
      ],
      "name": "setEarnedAddress",
      "outputs": [],
      "stateMutability": "nonpayable",
      "type": "function"
    },
    {
      "inputs": [
        {
          "internalType": "address",
          "name": "_farmContractAddress",
          "type": "address"
        }
      ],
      "name": "setFarmContractAddress",
      "outputs": [],
      "stateMutability": "nonpayable",
      "type": "function"
    },
    {
      "inputs": [
        {
          "internalType": "uint256",
          "name": "_entranceFeeFactor",
          "type": "uint256"
        },
        {
          "internalType": "uint256",
          "name": "_withdrawFeeFactor",
          "type": "uint256"
        },
        {
          "internalType": "uint256",
          "name": "_controllerFee",
          "type": "uint256"
        },
        {
          "internalType": "uint256",
          "name": "_buyBackRate",
          "type": "uint256"
        },
        {
          "internalType": "uint256",
          "name": "_revShareRate",
          "type": "uint256"
        }
      ],
      "name": "setFeeSettings",
      "outputs": [],
      "stateMutability": "nonpayable",
      "type": "function"
    },
    {
      "inputs": [
        {
          "internalType": "address",
          "name": "_govAddress",
          "type": "address"
        }
      ],
      "name": "setGov",
      "outputs": [],
      "stateMutability": "nonpayable",
      "type": "function"
    },
    {
      "inputs": [
        {
          "internalType": "bool",
          "name": "_onlyGov",
          "type": "bool"
        }
      ],
      "name": "setOnlyGov",
      "outputs": [],
      "stateMutability": "nonpayable",
      "type": "function"
    },
    {
      "inputs": [
        {
          "internalType": "uint256",
          "name": "_pid",
          "type": "uint256"
        }
      ],
      "name": "setPid",
      "outputs": [],
      "stateMutability": "nonpayable",
      "type": "function"
    },
    {
      "inputs": [
        {
          "internalType": "address",
          "name": "_poolAddress",
          "type": "address"
        }
      ],
      "name": "setPoolAddress",
      "outputs": [],
      "stateMutability": "nonpayable",
      "type": "function"
    },
    {
      "inputs": [
        {
          "internalType": "uint8",
          "name": "_idx",
          "type": "uint8"
        },
        {
          "internalType": "address",
          "name": "_priceFeed",
          "type": "address"
        }
      ],
      "name": "setPriceFeed",
      "outputs": [],
      "stateMutability": "nonpayable",
      "type": "function"
    },
    {
      "inputs": [
        {
          "internalType": "address",
          "name": "_rewardsAddress",
          "type": "address"
        }
      ],
      "name": "setRewardsAddress",
      "outputs": [],
      "stateMutability": "nonpayable",
      "type": "function"
    },
    {
      "inputs": [
        {
          "internalType": "uint8",
          "name": "_idx",
          "type": "uint8"
        },
        {
          "internalType": "address[]",
          "name": "_path",
          "type": "address[]"
        }
      ],
      "name": "setSwapPaths",
      "outputs": [],
      "stateMutability": "nonpayable",
      "type": "function"
    },
    {
      "inputs": [
        {
          "internalType": "address",
          "name": "_token0Address",
          "type": "address"
        }
      ],
      "name": "setToken0Address",
      "outputs": [],
      "stateMutability": "nonpayable",
      "type": "function"
    },
    {
      "inputs": [
        {
          "internalType": "address",
          "name": "_token1Address",
          "type": "address"
        }
      ],
      "name": "setToken1Address",
      "outputs": [],
      "stateMutability": "nonpayable",
      "type": "function"
    },
    {
      "inputs": [
        {
          "internalType": "address",
          "name": "_tokenUSDCAddress",
          "type": "address"
        }
      ],
      "name": "setTokenUSDCAddress",
      "outputs": [],
      "stateMutability": "nonpayable",
      "type": "function"
    },
    {
      "inputs": [
        {
          "internalType": "address",
          "name": "_uniRouterAddress",
          "type": "address"
        }
      ],
      "name": "setUniRouterAddress",
      "outputs": [],
      "stateMutability": "nonpayable",
      "type": "function"
    },
    {
      "inputs": [
        {
          "internalType": "address",
          "name": "_wantAddress",
          "type": "address"
        }
      ],
      "name": "setWantAddress",
      "outputs": [],
      "stateMutability": "nonpayable",
      "type": "function"
    },
    {
      "inputs": [
        {
          "internalType": "address",
          "name": "_ZORROAddress",
          "type": "address"
        }
      ],
      "name": "setZORROAddress",
      "outputs": [],
      "stateMutability": "nonpayable",
      "type": "function"
    },
    {
      "inputs": [
        {
          "internalType": "address",
          "name": "_zorroControllerAddress",
          "type": "address"
        }
      ],
      "name": "setZorroControllerAddress",
      "outputs": [],
      "stateMutability": "nonpayable",
      "type": "function"
    },
    {
      "inputs": [
        {
          "internalType": "address",
          "name": "_poolAddress",
          "type": "address"
        }
      ],
      "name": "setZorroLPPoolAddress",
      "outputs": [],
      "stateMutability": "nonpayable",
      "type": "function"
    },
    {
      "inputs": [
        {
          "internalType": "address",
          "name": "_otherToken",
          "type": "address"
        }
      ],
      "name": "setZorroLPPoolOtherToken",
      "outputs": [],
      "stateMutability": "nonpayable",
      "type": "function"
    },
    {
      "inputs": [
        {
          "internalType": "address",
          "name": "_stakingVault",
          "type": "address"
        }
      ],
      "name": "setZorroStakingVault",
      "outputs": [],
      "stateMutability": "nonpayable",
      "type": "function"
    },
    {
      "inputs": [],
      "name": "sharesTotal",
      "outputs": [
        {
          "internalType": "uint256",
          "name": "",
          "type": "uint256"
        }
      ],
      "stateMutability": "view",
      "type": "function",
      "constant": true
    },
    {
      "inputs": [],
      "name": "token0Address",
      "outputs": [
        {
          "internalType": "address",
          "name": "",
          "type": "address"
        }
      ],
      "stateMutability": "view",
      "type": "function",
      "constant": true
    },
    {
      "inputs": [],
      "name": "token0PriceFeed",
      "outputs": [
        {
          "internalType": "contract AggregatorV3Interface",
          "name": "",
          "type": "address"
        }
      ],
      "stateMutability": "view",
      "type": "function",
      "constant": true
    },
    {
      "inputs": [
        {
          "internalType": "uint256",
          "name": "",
          "type": "uint256"
        }
      ],
      "name": "token0ToUSDCPath",
      "outputs": [
        {
          "internalType": "address",
          "name": "",
          "type": "address"
        }
      ],
      "stateMutability": "view",
      "type": "function",
      "constant": true
    },
    {
      "inputs": [],
      "name": "token1Address",
      "outputs": [
        {
          "internalType": "address",
          "name": "",
          "type": "address"
        }
      ],
      "stateMutability": "view",
      "type": "function",
      "constant": true
    },
    {
      "inputs": [],
      "name": "token1PriceFeed",
      "outputs": [
        {
          "internalType": "contract AggregatorV3Interface",
          "name": "",
          "type": "address"
        }
      ],
      "stateMutability": "view",
      "type": "function",
      "constant": true
    },
    {
      "inputs": [
        {
          "internalType": "uint256",
          "name": "",
          "type": "uint256"
        }
      ],
      "name": "token1ToUSDCPath",
      "outputs": [
        {
          "internalType": "address",
          "name": "",
          "type": "address"
        }
      ],
      "stateMutability": "view",
      "type": "function",
      "constant": true
    },
    {
      "inputs": [],
      "name": "tokenUSDCAddress",
      "outputs": [
        {
          "internalType": "address",
          "name": "",
          "type": "address"
        }
      ],
      "stateMutability": "view",
      "type": "function",
      "constant": true
    },
    {
      "inputs": [
        {
          "internalType": "address",
          "name": "newOwner",
          "type": "address"
        }
      ],
      "name": "transferOwnership",
      "outputs": [],
      "stateMutability": "nonpayable",
      "type": "function"
    },
    {
      "inputs": [],
      "name": "uniRouterAddress",
      "outputs": [
        {
          "internalType": "address",
          "name": "",
          "type": "address"
        }
      ],
      "stateMutability": "view",
      "type": "function",
      "constant": true
    },
    {
      "inputs": [],
      "name": "unpause",
      "outputs": [],
      "stateMutability": "nonpayable",
      "type": "function"
    },
    {
      "inputs": [
        {
          "internalType": "address",
          "name": "",
          "type": "address"
        }
      ],
      "name": "userShares",
      "outputs": [
        {
          "internalType": "uint256",
          "name": "",
          "type": "uint256"
        }
      ],
      "stateMutability": "view",
      "type": "function",
      "constant": true
    },
    {
      "inputs": [],
      "name": "wantAddress",
      "outputs": [
        {
          "internalType": "address",
          "name": "",
          "type": "address"
        }
      ],
      "stateMutability": "view",
      "type": "function",
      "constant": true
    },
    {
      "inputs": [],
      "name": "wantLockedTotal",
      "outputs": [
        {
          "internalType": "uint256",
          "name": "",
          "type": "uint256"
        }
      ],
      "stateMutability": "view",
      "type": "function",
      "constant": true
    },
    {
      "inputs": [],
      "name": "withdrawFeeFactor",
      "outputs": [
        {
          "internalType": "uint256",
          "name": "",
          "type": "uint256"
        }
      ],
      "stateMutability": "view",
      "type": "function",
      "constant": true
    },
    {
      "inputs": [],
      "name": "withdrawFeeFactorLL",
      "outputs": [
        {
          "internalType": "uint256",
          "name": "",
          "type": "uint256"
        }
      ],
      "stateMutability": "view",
      "type": "function",
      "constant": true
    },
    {
      "inputs": [],
      "name": "withdrawFeeFactorMax",
      "outputs": [
        {
          "internalType": "uint256",
          "name": "",
          "type": "uint256"
        }
      ],
      "stateMutability": "view",
      "type": "function",
      "constant": true
    },
    {
      "inputs": [],
      "name": "zorroControllerAddress",
      "outputs": [
        {
          "internalType": "address",
          "name": "",
          "type": "address"
        }
      ],
      "stateMutability": "view",
      "type": "function",
      "constant": true
    },
    {
      "inputs": [],
      "name": "zorroLPPool",
      "outputs": [
        {
          "internalType": "address",
          "name": "",
          "type": "address"
        }
      ],
      "stateMutability": "view",
      "type": "function",
      "constant": true
    },
    {
      "inputs": [],
      "name": "zorroLPPoolOtherToken",
      "outputs": [
        {
          "internalType": "address",
          "name": "",
          "type": "address"
        }
      ],
      "stateMutability": "view",
      "type": "function",
      "constant": true
    },
    {
      "inputs": [],
      "name": "zorroStakingVault",
      "outputs": [
        {
          "internalType": "address",
          "name": "",
          "type": "address"
        }
      ],
      "stateMutability": "view",
      "type": "function",
      "constant": true
    },
    {
      "inputs": [],
      "name": "zorroXChainController",
      "outputs": [
        {
          "internalType": "address",
          "name": "",
          "type": "address"
        }
      ],
      "stateMutability": "view",
      "type": "function",
      "constant": true
    },
    {
      "inputs": [
        {
          "internalType": "address",
          "name": "_timelockOwner",
          "type": "address"
        },
        {
          "components": [
            {
              "internalType": "uint256",
              "name": "pid",
              "type": "uint256"
            },
            {
              "internalType": "bool",
              "name": "isHomeChain",
              "type": "bool"
            },
            {
              "components": [
                {
                  "internalType": "address",
                  "name": "govAddress",
                  "type": "address"
                },
                {
                  "internalType": "address",
                  "name": "zorroControllerAddress",
                  "type": "address"
                },
                {
                  "internalType": "address",
                  "name": "ZORROAddress",
                  "type": "address"
                },
                {
                  "internalType": "address",
                  "name": "zorroStakingVault",
                  "type": "address"
                },
                {
                  "internalType": "address",
                  "name": "wantAddress",
                  "type": "address"
                },
                {
                  "internalType": "address",
                  "name": "token0Address",
                  "type": "address"
                },
                {
                  "internalType": "address",
                  "name": "token1Address",
                  "type": "address"
                },
                {
                  "internalType": "address",
                  "name": "earnedAddress",
                  "type": "address"
                },
                {
                  "internalType": "address",
                  "name": "farmContractAddress",
                  "type": "address"
                },
                {
                  "internalType": "address",
                  "name": "rewardsAddress",
                  "type": "address"
                },
                {
                  "internalType": "address",
                  "name": "poolAddress",
                  "type": "address"
                },
                {
                  "internalType": "address",
                  "name": "uniRouterAddress",
                  "type": "address"
                },
                {
                  "internalType": "address",
                  "name": "zorroLPPool",
                  "type": "address"
                },
                {
                  "internalType": "address",
                  "name": "zorroLPPoolOtherToken",
                  "type": "address"
                },
                {
                  "internalType": "address",
                  "name": "tokenUSDCAddress",
                  "type": "address"
                }
              ],
              "internalType": "struct VaultBase.VaultAddresses",
              "name": "keyAddresses",
              "type": "tuple"
            },
            {
              "internalType": "address[]",
              "name": "earnedToZORROPath",
              "type": "address[]"
            },
            {
              "internalType": "address[]",
              "name": "earnedToToken0Path",
              "type": "address[]"
            },
            {
              "internalType": "address[]",
              "name": "earnedToToken1Path",
              "type": "address[]"
            },
            {
              "internalType": "address[]",
              "name": "USDCToToken0Path",
              "type": "address[]"
            },
            {
              "internalType": "address[]",
              "name": "USDCToToken1Path",
              "type": "address[]"
            },
            {
              "internalType": "address[]",
              "name": "earnedToZORLPPoolOtherTokenPath",
              "type": "address[]"
            },
            {
              "internalType": "address[]",
              "name": "earnedToUSDCPath",
              "type": "address[]"
            },
            {
              "components": [
                {
                  "internalType": "uint256",
                  "name": "controllerFee",
                  "type": "uint256"
                },
                {
                  "internalType": "uint256",
                  "name": "buyBackRate",
                  "type": "uint256"
                },
                {
                  "internalType": "uint256",
                  "name": "revShareRate",
                  "type": "uint256"
                },
                {
                  "internalType": "uint256",
                  "name": "entranceFeeFactor",
                  "type": "uint256"
                },
                {
                  "internalType": "uint256",
                  "name": "withdrawFeeFactor",
                  "type": "uint256"
                }
              ],
              "internalType": "struct VaultBase.VaultFees",
              "name": "fees",
              "type": "tuple"
            },
            {
              "components": [
                {
                  "internalType": "address",
                  "name": "token0PriceFeed",
                  "type": "address"
                },
                {
                  "internalType": "address",
                  "name": "token1PriceFeed",
                  "type": "address"
                },
                {
                  "internalType": "address",
                  "name": "earnTokenPriceFeed",
                  "type": "address"
                },
                {
                  "internalType": "address",
                  "name": "ZORPriceFeed",
                  "type": "address"
                },
                {
                  "internalType": "address",
                  "name": "lpPoolOtherTokenPriceFeed",
                  "type": "address"
                }
              ],
              "internalType": "struct VaultBase.VaultPriceFeeds",
              "name": "priceFeeds",
              "type": "tuple"
            }
          ],
          "internalType": "struct VaultStandardAMM.VaultStandardAMMInit",
          "name": "_initValue",
          "type": "tuple"
        }
      ],
      "name": "initialize",
      "outputs": [],
      "stateMutability": "nonpayable",
      "type": "function"
    },
    {
      "inputs": [
        {
          "internalType": "address",
          "name": "_timelockOwner",
          "type": "address"
        }
      ],
      "name": "initialize",
      "outputs": [],
      "stateMutability": "nonpayable",
      "type": "function"
    },
    {
      "inputs": [
        {
          "internalType": "address",
          "name": "_account",
          "type": "address"
        },
        {
          "internalType": "uint256",
          "name": "_wantAmt",
          "type": "uint256"
        }
      ],
      "name": "depositWantToken",
      "outputs": [
        {
          "internalType": "uint256",
          "name": "sharesAdded",
          "type": "uint256"
        }
      ],
      "stateMutability": "nonpayable",
      "type": "function"
    },
    {
      "inputs": [
        {
          "internalType": "uint256",
          "name": "_amountUSDC",
          "type": "uint256"
        },
        {
          "internalType": "uint256",
          "name": "_maxMarketMovementAllowed",
          "type": "uint256"
        }
      ],
      "name": "exchangeUSDForWantToken",
      "outputs": [
        {
          "internalType": "uint256",
          "name": "",
          "type": "uint256"
        }
      ],
      "stateMutability": "nonpayable",
      "type": "function"
    },
    {
      "inputs": [],
      "name": "farm",
      "outputs": [],
      "stateMutability": "nonpayable",
      "type": "function"
    },
    {
      "inputs": [
        {
          "internalType": "address",
          "name": "_account",
          "type": "address"
        },
        {
          "internalType": "uint256",
          "name": "_wantAmt",
          "type": "uint256"
        }
      ],
      "name": "withdrawWantToken",
      "outputs": [
        {
          "internalType": "uint256",
          "name": "sharesRemoved",
          "type": "uint256"
        }
      ],
      "stateMutability": "nonpayable",
      "type": "function"
    },
    {
      "inputs": [
        {
          "internalType": "uint256",
          "name": "_amount",
          "type": "uint256"
        },
        {
          "internalType": "uint256",
          "name": "_maxMarketMovementAllowed",
          "type": "uint256"
        }
      ],
      "name": "exchangeWantTokenForUSD",
      "outputs": [
        {
          "internalType": "uint256",
          "name": "",
          "type": "uint256"
        }
      ],
      "stateMutability": "nonpayable",
      "type": "function"
    },
    {
      "inputs": [
        {
          "internalType": "uint256",
          "name": "_maxMarketMovementAllowed",
          "type": "uint256"
        }
      ],
      "name": "earn",
      "outputs": [],
      "stateMutability": "nonpayable",
      "type": "function"
    }
  ],
  "bytecode": "0x608060405234801561001057600080fd5b50614e2d806100206000396000f3fe608060405234801561001057600080fd5b50600436106104e35760003560e01c80638456cb591161028e578063c5c97cbf11610167578063e7198474116100d9578063f106845411610092578063f106845414610a2d578063f25342bf14610a36578063f2fde38b14610a49578063f5046a2914610a5c578063fbf5683f14610a6f578063ff29b39514610a8257600080fd5b8063e7198474146109d4578063e7a03679146109e7578063e9e15b4f146109fa578063ebfba7c414610a0d578063edf5e58514610a20578063ee50dc34146105bc57600080fd5b8063d7cb416f1161012b578063d7cb416f14610955578063de69b3aa14610968578063de84199114610988578063e0ccabfa1461099b578063e502a88d146109ae578063e65a0117146109c157600080fd5b8063c5c97cbf146108f6578063c6efd57714610909578063c8479cd61461091c578063c8e3d18b1461092f578063cfad57a21461094257600080fd5b8063ab196def11610200578063b86c5f53116101c4578063b86c5f5314610897578063ba0bb4ab146108aa578063bf3a7d40146108bd578063c0973eed146108d0578063c302a4d0146107ac578063c4d66de8146108e357600080fd5b8063ab196def1461084b578063ae53e58a1461085e578063b1414dbb14610871578063b3545c01146104fd578063b73cba2a1461088457600080fd5b8063959334f411610252578063959334f4146107d957806396e9aff8146107ec5780639f703a56146107ff5780639fc33a9f14610812578063a4d2b08314610825578063aabf190b1461083857600080fd5b80638456cb591461079b57806385f02dd6146107a3578063866b2018146107ac5780638906758d146107b55780638da5cb5b146107c857600080fd5b80634ce54ddb116103c057806367057b6c116103325780636f96f6fa116102f65780636f96f6fa1461073457806370d5ae0514610747578063715018a61461075a5780637153ef86146107625780637bf604d8146107755780637ff36fbe1461078857600080fd5b806367057b6c146105bc57806367206d40146106f257806368f5416214610705578063693a090b1461070e5780636ca8bd651461072157600080fd5b80635da79d63116103845780635da79d63146106805780635fc77d43146106935780636183e804146106a657806361b5bf9f146106b95780636392ab12146106cc578063648794a4146106df57600080fd5b80634ce54ddb1461063c5780634d9f7bb2146105bc5780634e2cb8b61461064f578063583bda3b146106625780635c975abb1461067557600080fd5b80632717eff31161045957806342da4eb31161041d57806342da4eb3146105f157806343788cd2146105bc57806344a3955e146105fa57806346008a07146106035780634b0e7216146106165780634c5b09da1461062957600080fd5b80632717eff3146105bc5780633214471f146105c55780633395cfd6146105ce57806336e9332d146105e15780633f4ba83a146105e957600080fd5b80631334903f116104ab5780631334903f146105595780631755ff2114610562578063178a8d071461058d5780631b0d8aab146105965780631e12819a146105a9578063211019d7146104fd57600080fd5b806305828d3e146104e8578063061c7d48146104fd5780630b6bb30b146105195780630daef3211461052c5780630fa4e01e14610550575b600080fd5b6104fb6104f63660046140fd565b610a95565b005b6105066103e881565b6040519081526020015b60405180910390f35b6104fb610527366004614131565b610aea565b60cb5461054090600160a01b900460ff1681565b6040519015158152602001610510565b61050660e15481565b61050660df5481565b60d854610575906001600160a01b031681565b6040516001600160a01b039091168152602001610510565b61050660dd5481565b6104fb6105a436600461414e565b610b6c565b6104fb6105b73660046140fd565b610b9b565b61050661271081565b61050660de5481565b6104fb6105dc366004614497565b610be7565b6104fb611003565b6104fb61103a565b61050660e25481565b61050660e35481565b60cb54610575906001600160a01b031681565b6104fb6106243660046140fd565b61106e565b6104fb6106373660046140fd565b6110ba565b60d554610575906001600160a01b031681565b61057561065d36600461414e565b611106565b6104fb6106703660046140fd565b611130565b60975460ff16610540565b6104fb61068e3660046140fd565b61117c565b60cd54610575906001600160a01b031681565b6104fb6106b43660046140fd565b6111c8565b6104fb6106c73660046140fd565b611214565b6105756106da36600461414e565b611260565b6105066106ed36600461464e565b611270565b6104fb610700366004614670565b61160d565b61050660e05481565b60d954610575906001600160a01b031681565b6104fb61072f3660046140fd565b6116d7565b60f054610575906001600160a01b031681565b60d654610575906001600160a01b031681565b6104fb611723565b6104fb6107703660046146ac565b611757565b60da54610575906001600160a01b031681565b60d154610575906001600160a01b031681565b6104fb611a1f565b61050660dc5481565b61050661232881565b6104fb6107c33660046140fd565b611a51565b6033546001600160a01b0316610575565b6104fb6107e73660046140fd565b611a9d565b6105756107fa36600461414e565b611ae9565b61057561080d36600461414e565b611af9565b60d454610575906001600160a01b031681565b60cf54610575906001600160a01b031681565b60f154610575906001600160a01b031681565b60f254610575906001600160a01b031681565b60ef54610575906001600160a01b031681565b60cc54610575906001600160a01b031681565b6104fb6108923660046140fd565b611b09565b6105756108a536600461414e565b611b55565b6105066108b83660046146e7565b611b65565b6104fb6108cb3660046140fd565b611cee565b60d754610575906001600160a01b031681565b6104fb6108f13660046140fd565b611d3a565b61057561090436600461414e565b611dd2565b61057561091736600461414e565b611de2565b6104fb61092a3660046140fd565b611df2565b61057561093d36600461414e565b611e3e565b6104fb6109503660046140fd565b611e4e565b60d254610575906001600160a01b031681565b6105066109763660046140fd565b60e46020526000908152604090205481565b6104fb610996366004614720565b611ec6565b6105066109a93660046146e7565b61200c565b6105066109bc36600461464e565b6121a6565b6104fb6109cf36600461414e565b61260d565b60d354610575906001600160a01b031681565b60d054610575906001600160a01b031681565b6104fb610a083660046140fd565b612a7b565b60db54610575906001600160a01b031681565b60c9546105409060ff1681565b61050660ca5481565b60ee54610575906001600160a01b031681565b6104fb610a573660046140fd565b612ac7565b60ce54610575906001600160a01b031681565b610575610a7d36600461414e565b612b62565b6104fb610a90366004614755565b612b72565b6033546001600160a01b03163314610ac85760405162461bcd60e51b8152600401610abf906147dd565b60405180910390fd5b60d280546001600160a01b0319166001600160a01b0392909216919091179055565b60cb546001600160a01b03163314610b145760405162461bcd60e51b8152600401610abf90614812565b60cb8054821515600160a01b0260ff60a01b199091161790556040517f125177ac7b8930dac1e59c2b30b1b6b9191b30af40cf6bbb5d20fec4d44be60f90610b6190831515815260200190565b60405180910390a150565b6033546001600160a01b03163314610b965760405162461bcd60e51b8152600401610abf906147dd565b60ca55565b6033546001600160a01b03163314610bc55760405162461bcd60e51b8152600401610abf906147dd565b60d580546001600160a01b0319166001600160a01b0392909216919091179055565b600054610100900460ff16610c025760005460ff1615610c06565b303b155b610c225760405162461bcd60e51b8152600401610abf90614830565b600054610100900460ff16158015610c44576000805461ffff19166101011790555b815160ca5560208083015160c9805460ff1916911515919091179055604080840151805160cb8054600160a01b6001600160a01b039384166001600160a81b0319909216919091171790558184015160cc80546001600160a01b03199081169284169290921790558284015160ce8054831691841691909117905560608084015160cf8054841691851691909117905560808085015160d08054851691861691909117905560a085015160d18054851691861691909117905560e08086015160d38054861691871691909117905561010086015160d48054861691871691909117905561012086015160d7805486169187169190911790556101408087015160d88054871691881691909117905561016087015160d98054871691881691909117905561018087015160da805487169188169190911790556101a087015160db805487169188169190911790556101c09096015160d5805490951695169490941790925592870151805160dc558086015160dd559384015160de558383015160df5592909201519091558301518051610de19260eb920190614019565b5060808201518051610dfb9160e991602090910190614019565b5060a08201518051610e159160ea91602090910190614019565b5060c08201518051610e2f9160e591602090910190614019565b5060e08201518051610e499160e691602090910190614019565b506101008201518051610e649160ec91602090910190614019565b506101208201518051610e7f9160ed91602090910190614019565b50610ee360e5805480602002602001604051908101604052809291908181526020018280548015610ed957602002820191906000526020600020905b81546001600160a01b03168152600190910190602001808311610ebb575b5050505050612c76565b8051610ef79160e791602090910190614019565b50610f5960e6805480602002602001604051908101604052809291908181526020018280548015610ed9576020028201919060005260206000209081546001600160a01b03168152600190910190602001808311610ebb575050505050612c76565b8051610f6d9160e891602090910190614019565b50610160820151805160ee80546001600160a01b03199081166001600160a01b0393841617909155602083015160ef80548316918416919091179055604083015160f080548316918416919091179055608083015160f18054831691841691909117905560609092015160f280549093169116179055610fec83611d3a565b8015610ffe576000805461ff00191690555b505050565b600260655414156110265760405162461bcd60e51b8152600401610abf9061487e565b6002606555611033612d4a565b6001606555565b60cb546001600160a01b031633146110645760405162461bcd60e51b8152600401610abf90614812565b61106c612e58565b565b6033546001600160a01b031633146110985760405162461bcd60e51b8152600401610abf906147dd565b60d680546001600160a01b0319166001600160a01b0392909216919091179055565b6033546001600160a01b031633146110e45760405162461bcd60e51b8152600401610abf906147dd565b60d480546001600160a01b0319166001600160a01b0392909216919091179055565b60e8818154811061111657600080fd5b6000918252602090912001546001600160a01b0316905081565b6033546001600160a01b0316331461115a5760405162461bcd60e51b8152600401610abf906147dd565b60ce80546001600160a01b0319166001600160a01b0392909216919091179055565b6033546001600160a01b031633146111a65760405162461bcd60e51b8152600401610abf906147dd565b60d980546001600160a01b0319166001600160a01b0392909216919091179055565b6033546001600160a01b031633146111f25760405162461bcd60e51b8152600401610abf906147dd565b60d080546001600160a01b0319166001600160a01b0392909216919091179055565b6033546001600160a01b0316331461123e5760405162461bcd60e51b8152600401610abf906147dd565b60da80546001600160a01b0319166001600160a01b0392909216919091179055565b60eb818154811061111657600080fd5b60cc546000906001600160a01b0316336001600160a01b0316146112a65760405162461bcd60e51b8152600401610abf906148b5565b60975460ff16156112c95760405162461bcd60e51b8152600401610abf906148df565b600083116113105760405162461bcd60e51b8152602060048201526014602482015273057616e7420616d74206d757374206265203e20360641b6044820152606401610abf565b60d054611328906001600160a01b0316333086612eeb565b60ee54600090611340906001600160a01b0316612f56565b60ef5490915060009061135b906001600160a01b0316612f56565b9050611368858530613096565b60d1546040516370a0823160e01b81523060048201526000916001600160a01b0316906370a0823190602401602060405180830381865afa1580156113b1573d6000803e3d6000fd5b505050506040513d601f19601f820116820180604052508101906113d59190614909565b60d2546040516370a0823160e01b81523060048201529192506000916001600160a01b03909116906370a0823190602401602060405180830381865afa158015611423573d6000803e3d6000fd5b505050506040513d601f19601f820116820180604052508101906114479190614909565b60d95460d154919250611467916001600160a01b03908116911684613321565b60d95460d254611484916001600160a01b03918216911683613321565b611519828564e8d4a510008960e78054806020026020016040519081016040528092919081815260200182805480156114e657602002820191906000526020600020905b81546001600160a01b031681526001909101906020018083116114c8575b505050505033611501610258426133d390919063ffffffff16565b60d9546001600160a01b0316969594939291906133e6565b611594818464e8d4a510008960e88054806020026020016040519081016040528092919081815260200182805480156114e6576020028201919060005260206000209081546001600160a01b031681526001909101906020018083116114c857505050505033611501610258426133d390919063ffffffff16565b60d5546040516370a0823160e01b81523360048201526001600160a01b03909116906370a0823190602401602060405180830381865afa1580156115dc573d6000803e3d6000fd5b505050506040513d601f19601f820116820180604052508101906116009190614909565b9450505050505b92915050565b60cb546001600160a01b031633146116375760405162461bcd60e51b8152600401610abf90614812565b60d3546001600160a01b038481169116141561167d5760405162461bcd60e51b8152602060048201526005602482015264217361666560d81b6044820152606401610abf565b60d0546001600160a01b03848116911614156116c35760405162461bcd60e51b8152602060048201526005602482015264217361666560d81b6044820152606401610abf565b610ffe6001600160a01b038416828461354f565b6033546001600160a01b031633146117015760405162461bcd60e51b8152600401610abf906147dd565b60cf80546001600160a01b0319166001600160a01b0392909216919091179055565b6033546001600160a01b0316331461174d5760405162461bcd60e51b8152600401610abf906147dd565b61106c600061357f565b60cb546001600160a01b031633146117815760405162461bcd60e51b8152600401610abf90614812565b6123288510156117d35760405162461bcd60e51b815260206004820152601a60248201527f5f656e7472616e6365466565466163746f7220746f6f206c6f770000000000006044820152606401610abf565b6127108511156118255760405162461bcd60e51b815260206004820152601b60248201527f5f656e7472616e6365466565466163746f7220746f6f206869676800000000006044820152606401610abf565b60df85905561232884101561187c5760405162461bcd60e51b815260206004820152601a60248201527f5f7769746864726177466565466163746f7220746f6f206c6f770000000000006044820152606401610abf565b6127108411156118ce5760405162461bcd60e51b815260206004820152601b60248201527f5f7769746864726177466565466163746f7220746f6f206869676800000000006044820152606401610abf565b60e08490556103e88311156119255760405162461bcd60e51b815260206004820152601760248201527f5f636f6e74726f6c6c657246656520746f6f20686967680000000000000000006044820152606401610abf565b60dc8390556103e88211156119745760405162461bcd60e51b81526020600482015260156024820152740bec4eaf284c2c6d6a4c2e8ca40e8dede40d0d2ced605b1b6044820152606401610abf565b60dd8290556103e88111156119c45760405162461bcd60e51b81526020600482015260166024820152750bee4caeca6d0c2e4caa4c2e8ca40e8dede40d0d2ced60531b6044820152606401610abf565b60de819055604080518681526020810186905290810184905260608101839052608081018290527fc67e0b149a57a70fa44a531a46c2c6d8e0b242fa12f459f250012c3a5987d29a9060a00160405180910390a15050505050565b60cb546001600160a01b03163314611a495760405162461bcd60e51b8152600401610abf90614812565b61106c6135d1565b6033546001600160a01b03163314611a7b5760405162461bcd60e51b8152600401610abf906147dd565b60d780546001600160a01b0319166001600160a01b0392909216919091179055565b6033546001600160a01b03163314611ac75760405162461bcd60e51b8152600401610abf906147dd565b60db80546001600160a01b0319166001600160a01b0392909216919091179055565b60ea818154811061111657600080fd5b60ed818154811061111657600080fd5b6033546001600160a01b03163314611b335760405162461bcd60e51b8152600401610abf906147dd565b60d380546001600160a01b0319166001600160a01b0392909216919091179055565b60e5818154811061111657600080fd5b60cc546000906001600160a01b0316336001600160a01b031614611b9b5760405162461bcd60e51b8152600401610abf906148b5565b60026065541415611bbe5760405162461bcd60e51b8152600401610abf9061487e565b600260655560975460ff1615611be65760405162461bcd60e51b8152600401610abf906148df565b60008211611c255760405162461bcd60e51b815260206004820152600c60248201526b057616e7420646570203c20360a41b6044820152606401610abf565b60d054611c3d906001600160a01b0316333085612eeb565b819050600060e254118015611c545750600060e354115b15611c8f57611c8c612710611c8660e254611c8660df54611c8060e3548961362990919063ffffffff16565b90613629565b90613635565b90505b60e354611c9c90826133d3565b60e3556001600160a01b038316600090815260e46020526040902054611cc290826133d3565b6001600160a01b038416600090815260e46020526040902055611ce3612d4a565b600160655592915050565b6033546001600160a01b03163314611d185760405162461bcd60e51b8152600401610abf906147dd565b60cc80546001600160a01b0319166001600160a01b0392909216919091179055565b600054610100900460ff16611d555760005460ff1615611d59565b303b155b611d755760405162461bcd60e51b8152600401610abf90614830565b600054610100900460ff16158015611d97576000805461ffff19166101011790555b611d9f613641565b611da882612ac7565b60d680546001600160a01b03191661dead1790558015611dce576000805461ff00191690555b5050565b60e6818154811061111657600080fd5b60e7818154811061111657600080fd5b6033546001600160a01b03163314611e1c5760405162461bcd60e51b8152600401610abf906147dd565b60d180546001600160a01b0319166001600160a01b0392909216919091179055565b60e9818154811061111657600080fd5b60cb546001600160a01b03163314611e785760405162461bcd60e51b8152600401610abf90614812565b60cb80546001600160a01b0319166001600160a01b0383169081179091556040519081527f91a8c1cc2d4a3bb60738481947a00cbb9899c822916694cf8bb1d68172fdcd5490602001610b61565b6033546001600160a01b03163314611ef05760405162461bcd60e51b8152600401610abf906147dd565b60ff8216611f195760ee80546001600160a01b0383166001600160a01b03199091161790555050565b8160ff1660011415611f465760ef80546001600160a01b0383166001600160a01b03199091161790555050565b8160ff1660021415611f735760f080546001600160a01b0383166001600160a01b03199091161790555050565b8160ff1660031415611fa05760f280546001600160a01b0383166001600160a01b03199091161790555050565b8160ff1660041415611fcd5760f180546001600160a01b0383166001600160a01b03199091161790555050565b60405162461bcd60e51b81526020600482015260146024820152730eadce6eae0e0dee4e8cac840cccacac840d2c8f60631b6044820152606401610abf565b60cc546000906001600160a01b0316336001600160a01b0316146120425760405162461bcd60e51b8152600401610abf906148b5565b600260655414156120655760405162461bcd60e51b8152600401610abf9061487e565b600260655560975460ff161561208d5760405162461bcd60e51b8152600401610abf906148df565b600082116120cd5760405162461bcd60e51b815260206004820152600d60248201526c077616e7420616d74203c3d203609c1b6044820152606401610abf565b6120e860e254611c8660e3548561362990919063ffffffff16565b905060e3548111156120f9575060e3545b60e3546121069082613670565b60e3556001600160a01b038316600090815260e4602052604090205461212c9082613670565b6001600160a01b038416600090815260e4602052604090205560e054612710111561216f5761216c612710611c8660e0548561362990919063ffffffff16565b91505b600061217a8361367c565b60cc5460d05491925061219a916001600160a01b0390811691168361354f565b50600160655592915050565b60cc546000906001600160a01b0316336001600160a01b0316146121dc5760405162461bcd60e51b8152600401610abf906148b5565b60975460ff16156121ff5760405162461bcd60e51b8152600401610abf906148df565b60d5546040516370a0823160e01b81523060048201526000916001600160a01b0316906370a0823190602401602060405180830381865afa158015612248573d6000803e3d6000fd5b505050506040513d601f19601f8201168201806040525081019061226c9190614909565b9050600084116122be5760405162461bcd60e51b815260206004820152601860248201527f55534443206465706f736974206d757374206265203e203000000000000000006044820152606401610abf565b8084111561230e5760405162461bcd60e51b815260206004820152601960248201527f5553444320646573697265642065786365656465642062616c000000000000006044820152606401610abf565b60ee54600090612326906001600160a01b0316612f56565b60ef54909150600090612341906001600160a01b0316612f56565b60d95460d554919250612361916001600160a01b03908116911688613321565b6123e861236f876002613635565b64e8d4a51000848860e58054806020026020016040519081016040528092919081815260200182805480156123cd57602002820191906000526020600020905b81546001600160a01b031681526001909101906020018083116123af575b505050505030611501610258426133d390919063ffffffff16565b61246d6123f6876002613635565b64e8d4a51000838860e68054806020026020016040519081016040528092919081815260200182805480156123cd576020028201919060005260206000209081546001600160a01b031681526001909101906020018083116123af57505050505030611501610258426133d390919063ffffffff16565b60d1546040516370a0823160e01b81523060048201526000916001600160a01b0316906370a0823190602401602060405180830381865afa1580156124b6573d6000803e3d6000fd5b505050506040513d601f19601f820116820180604052508101906124da9190614909565b60d2546040516370a0823160e01b81523060048201529192506000916001600160a01b03909116906370a0823190602401602060405180830381865afa158015612528573d6000803e3d6000fd5b505050506040513d601f19601f8201168201806040525081019061254c9190614909565b60d95460d15491925061256c916001600160a01b03908116911684613321565b60d95460d254612589916001600160a01b03918216911683613321565b6125958282893361378c565b60d0546040516370a0823160e01b81523360048201526001600160a01b03909116906370a0823190602401602060405180830381865afa1580156125dd573d6000803e3d6000fd5b505050506040513d601f19601f820116820180604052508101906126019190614909565b98975050505050505050565b600260655414156126305760405162461bcd60e51b8152600401610abf9061487e565b600260655560975460ff16156126585760405162461bcd60e51b8152600401610abf906148df565b60cb54600160a01b900460ff16156126945760cb546001600160a01b031633146126945760405162461bcd60e51b8152600401610abf90614812565b61269e600061367c565b5060d3546040516370a0823160e01b81523060048201526000916001600160a01b0316906370a0823190602401602060405180830381865afa1580156126e8573d6000803e3d6000fd5b505050506040513d601f19601f8201168201806040525081019061270c9190614909565b604080516060810190915260f0549192506000918190612734906001600160a01b0316612f56565b815260f254602090910190612751906001600160a01b0316612f56565b815260f15460209091019061276e906001600160a01b0316612f56565b90529050600061277d83613849565b905060008061278d858786613899565b60d95460d3549294509092506127b0916001600160a01b03908116911687613321565b60d15460d3546001600160a01b0390811691161461286d5761286d6127e66002611c86846127e087818c8b613670565b90613670565b855160ee546127fd906001600160a01b0316612f56565b8960e98054806020026020016040519081016040528092919081815260200182805480156123cd576020028201919060005260206000209081546001600160a01b031681526001909101906020018083116123af57505050505030611501610258426133d390919063ffffffff16565b60d25460d3546001600160a01b039081169116146129245761292461289d6002611c86846127e087818c8b613670565b855160ef546128b4906001600160a01b0316612f56565b8960ea8054806020026020016040519081016040528092919081815260200182805480156123cd576020028201919060005260206000209081546001600160a01b031681526001909101906020018083116123af57505050505030611501610258426133d390919063ffffffff16565b60d1546040516370a0823160e01b81523060048201526000916001600160a01b0316906370a0823190602401602060405180830381865afa15801561296d573d6000803e3d6000fd5b505050506040513d601f19601f820116820180604052508101906129919190614909565b60d2546040516370a0823160e01b81523060048201529192506000916001600160a01b03909116906370a0823190602401602060405180830381865afa1580156129df573d6000803e3d6000fd5b505050506040513d601f19601f82011682018060405250810190612a039190614909565b9050600082118015612a155750600081115b15612a605760d95460d154612a37916001600160a01b03918216911684613321565b60d95460d254612a54916001600160a01b03918216911683613321565b612a6082828a3061378c565b4360e155612a6c612d4a565b50506001606555505050505050565b6033546001600160a01b03163314612aa55760405162461bcd60e51b8152600401610abf906147dd565b60d880546001600160a01b0319166001600160a01b0392909216919091179055565b6033546001600160a01b03163314612af15760405162461bcd60e51b8152600401610abf906147dd565b6001600160a01b038116612b565760405162461bcd60e51b815260206004820152602660248201527f4f776e61626c653a206e6577206f776e657220697320746865207a65726f206160448201526564647265737360d01b6064820152608401610abf565b612b5f8161357f565b50565b60ec818154811061111657600080fd5b6033546001600160a01b03163314612b9c5760405162461bcd60e51b8152600401610abf906147dd565b60ff8316612bb657612bb060e5838361407e565b50505050565b8260ff1660011415612bce57612bb060e6838361407e565b8260ff1660021415612be657612bb060e7838361407e565b8260ff1660031415612bfe57612bb060e8838361407e565b8260ff1660041415612c1657612bb060e9838361407e565b8260ff1660051415612c2e57612bb060ea838361407e565b8260ff1660061415612c4657612bb060eb838361407e565b8260ff1660071415612c5e57612bb060ec838361407e565b8260ff1660081415611fcd57612bb060ed838361407e565b80516060908067ffffffffffffffff811115612c9457612c94614167565b604051908082528060200260200182016040528015612cbd578160200160208202803683370190505b50915060005b818161ffff161015612d435783612ced8261ffff166127e06001885161367090919063ffffffff16565b81518110612cfd57612cfd614922565b6020026020010151838261ffff1681518110612d1b57612d1b614922565b6001600160a01b0390921660209283029190910190910152612d3c8161494e565b9050612cc3565b5050919050565b60d0546040516370a0823160e01b81523060048201526000916001600160a01b0316906370a0823190602401602060405180830381865afa158015612d93573d6000803e3d6000fd5b505050506040513d601f19601f82011682018060405250810190612db79190614909565b60e254909150612dc790826133d3565b60e25560d45460d054612de7916001600160a01b03918216911683613321565b60d45460ca54604051631c57762b60e31b81526001600160a01b039092169163e2bbb15891612e23918590600401918252602082015260400190565b600060405180830381600087803b158015612e3d57600080fd5b505af1158015612e51573d6000803e3d6000fd5b5050505050565b60975460ff16612ea15760405162461bcd60e51b815260206004820152601460248201527314185d5cd8589b194e881b9bdd081c185d5cd95960621b6044820152606401610abf565b6097805460ff191690557f5db9ee0a495bf2e6ff9c91a7834c1ba4fdd244a5e8aa4e537bd38aeae4b073aa335b6040516001600160a01b03909116815260200160405180910390a1565b6040516001600160a01b0380851660248301528316604482015260648101829052612bb09085906323b872dd60e01b906084015b60408051601f198184030181529190526020810180516001600160e01b03166001600160e01b0319909316929092179091526139b1565b600080826001600160a01b031663313ce5676040518163ffffffff1660e01b8152600401602060405180830381865afa158015612f97573d6000803e3d6000fd5b505050506040513d601f19601f82011682018060405250810190612fbb9190614970565b90506000836001600160a01b031663feaf968c6040518163ffffffff1660e01b815260040160a060405180830381865afa158015612ffd573d6000803e3d6000fd5b505050506040513d601f19601f8201168201806040525081019061302191906149a7565b50505091505060008112156130715760405162461bcd60e51b81526020600482015260166024820152751b9959c81c1c9a58d95cc81b9bdd08185b1b1bddd95960521b6044820152606401610abf565b61308e61307f83600a614adb565b611c868364e8d4a51000613629565b949350505050565b60d15460d8546040516370a0823160e01b81526001600160a01b03918216600482015260009291909116906370a0823190602401602060405180830381865afa1580156130e7573d6000803e3d6000fd5b505050506040513d601f19601f8201168201806040525081019061310b9190614909565b60d25460d8546040516370a0823160e01b81526001600160a01b0391821660048201529293506000929116906370a0823190602401602060405180830381865afa15801561315d573d6000803e3d6000fd5b505050506040513d601f19601f820116820180604052508101906131819190614909565b9050600060d860009054906101000a90046001600160a01b03166001600160a01b03166318160ddd6040518163ffffffff1660e01b8152600401602060405180830381865afa1580156131d8573d6000803e3d6000fd5b505050506040513d601f19601f820116820180604052508101906131fc9190614909565b905060006132166103e8611c8688611c8086838d8b613629565b905060006132306103e8611c8689611c8087838e8b613629565b60d95460d054919250613250916001600160a01b0390811691168a613321565b60d95460d15460d2546001600160a01b039283169263baa2abde92811691168b86868c61327f426102586133d3565b60405160e089901b6001600160e01b03191681526001600160a01b039788166004820152958716602487015260448601949094526064850192909252608484015290921660a482015260c481019190915260e40160408051808303816000875af11580156132f1573d6000803e3d6000fd5b505050506040513d601f19601f820116820180604052508101906133159190614aea565b50505050505050505050565b604051636eb1769f60e11b81523060048201526001600160a01b038381166024830152600091839186169063dd62ed3e90604401602060405180830381865afa158015613372573d6000803e3d6000fd5b505050506040513d601f19601f820116820180604052508101906133969190614909565b6133a09190614b0e565b6040516001600160a01b038516602482015260448101829052909150612bb090859063095ea7b360e01b90606401612f1f565b60006133df8284614b0e565b9392505050565b60008615806133f3575085155b156134be5760405163d06ca61f60e01b81526000906001600160a01b038b169063d06ca61f90613429908c908990600401614b6a565b600060405180830381865afa158015613446573d6000803e3d6000fd5b505050506040513d6000823e601f3d908101601f1916820160405261346e9190810190614b83565b90506134b66103e8611c8688846134906001875161367090919063ffffffff16565b815181106134a0576134a0614922565b602002602001015161362990919063ffffffff16565b9150506134de565b6134db6134cd876103e8613629565b611c8687611c808c8c613629565b90505b604051635c11d79560e01b81526001600160a01b038a1690635c11d79590613512908b908590899089908990600401614c09565b600060405180830381600087803b15801561352c57600080fd5b505af1158015613540573d6000803e3d6000fd5b50505050505050505050505050565b6040516001600160a01b038316602482015260448101829052610ffe90849063a9059cbb60e01b90606401612f1f565b603380546001600160a01b038381166001600160a01b0319831681179093556040519116919082907f8be0079c531659141344cd1fd0a4f28419497f9722a3daafe3b4186f6b6457e090600090a35050565b60975460ff16156135f45760405162461bcd60e51b8152600401610abf906148df565b6097805460ff191660011790557f62e78cea01bee320cd4e420270b5ea74000d11b0c9f74754ebdbfc544b05a258612ece3390565b60006133df8284614c45565b60006133df8284614c64565b600054610100900460ff166136685760405162461bcd60e51b8152600401610abf90614c86565b61106c613a83565b60006133df8284614cd1565b60d45460ca54604051630441a3e760e41b81526004810191909152602481018390526000916001600160a01b03169063441a3e7090604401600060405180830381600087803b1580156136ce57600080fd5b505af11580156136e2573d6000803e3d6000fd5b505060d0546040516370a0823160e01b8152306004820152859450600093506001600160a01b0390911691506370a0823190602401602060405180830381865afa158015613734573d6000803e3d6000fd5b505050506040513d601f19601f820116820180604052508101906137589190614909565b905080821115613766578091505b8260e25410156137765760e25491505b60e2546137839083613670565b60e25550919050565b60d95460d15460d2546001600160a01b039283169263e8e33700928116911687876137bd6103e8611c86848b613629565b6137cd6103e8611c868c8c613629565b886137da426102586133d3565b6040518963ffffffff1660e01b81526004016137fd989796959493929190614ce8565b6060604051808303816000875af115801561381c573d6000803e3d6000fd5b505050506040513d601f19601f820116820180604052508101906138409190614d31565b50505050505050565b600081156138945760dc541561389457613874612710611c8660dc548561362990919063ffffffff16565b60d75460d354919250613894916001600160a01b0390811691168361354f565b919050565b600080600060dd5411156138c5576138c2612710611c8660dd548861362990919063ffffffff16565b91505b60de54156138eb576138e8612710611c8660de548861362990919063ffffffff16565b90505b60c95460ff161561391157613901828585613ab3565b61390c818585613dc5565b6139a9565b61393161391e83836133d3565b60cc546001600160a01b03168686613e67565b60cd5460ca5460405163464e3c8b60e01b815260048101919091526024810184905260448101839052606481018690526001600160a01b039091169063464e3c8b90608401600060405180830381600087803b15801561399057600080fd5b505af11580156139a4573d6000803e3d6000fd5b505050505b935093915050565b6000613a06826040518060400160405280602081526020017f5361666545524332303a206c6f772d6c6576656c2063616c6c206661696c6564815250856001600160a01b0316613f059092919063ffffffff16565b805190915015610ffe5780806020019051810190613a249190614d5f565b610ffe5760405162461bcd60e51b815260206004820152602a60248201527f5361666545524332303a204552433230206f7065726174696f6e20646964206e6044820152691bdd081cdd58d8d9595960b21b6064820152608401610abf565b600054610100900460ff16613aaa5760405162461bcd60e51b8152600401610abf90614c86565b61106c3361357f565b60d95460d354613ad0916001600160a01b03918216911685613321565b613b58613ade846002613635565b826000015183602001518560eb8054806020026020016040519081016040528092919081815260200182805480156123cd576020028201919060005260206000209081546001600160a01b031681526001909101906020018083116123af57505050505030611501610258426133d390919063ffffffff16565b613be0613b66846002613635565b826000015183604001518560ec8054806020026020016040519081016040528092919081815260200182805480156123cd576020028201919060005260206000209081546001600160a01b031681526001909101906020018083116123af57505050505030611501610258426133d390919063ffffffff16565b60ce546040516370a0823160e01b81523060048201526000916001600160a01b0316906370a0823190602401602060405180830381865afa158015613c29573d6000803e3d6000fd5b505050506040513d601f19601f82011682018060405250810190613c4d9190614909565b60db546040516370a0823160e01b81523060048201529192506000916001600160a01b03909116906370a0823190602401602060405180830381865afa158015613c9b573d6000803e3d6000fd5b505050506040513d601f19601f82011682018060405250810190613cbf9190614909565b60d95460ce54919250613cdf916001600160a01b03908116911684613321565b60d95460db54613cfc916001600160a01b03918216911683613321565b60d95460ce5460db546001600160a01b039283169263e8e3370092811691168585613d2d6103e8611c86848d613629565b613d3d6103e8611c868a8e613629565b60d6546001600160a01b0316613d55426102586133d3565b6040518963ffffffff1660e01b8152600401613d78989796959493929190614ce8565b6060604051808303816000875af1158015613d97573d6000803e3d6000fd5b505050506040513d601f19601f82011682018060405250810190613dbb9190614d31565b5050505050505050565b60d95460d354613de2916001600160a01b03918216911685613321565b610ffe83826000015183602001518560eb805480602002602001604051908101604052809291908181526020018280548015613e4757602002820191906000526020600020905b81546001600160a01b03168152600190910190602001808311613e29575b505060cf546001600160a01b0316925061150191504290506102586133d3565b60d95460d354613e84916001600160a01b03918216911686613321565b612bb084826000015164e8d4a510008560ed805480602002602001604051908101604052809291908181526020018280548015613eea57602002820191906000526020600020905b81546001600160a01b03168152600190910190602001808311613ecc575b505050505088611501610258426133d390919063ffffffff16565b606061308e8484600085856001600160a01b0385163b613f675760405162461bcd60e51b815260206004820152601d60248201527f416464726573733a2063616c6c20746f206e6f6e2d636f6e74726163740000006044820152606401610abf565b600080866001600160a01b03168587604051613f839190614da8565b60006040518083038185875af1925050503d8060008114613fc0576040519150601f19603f3d011682016040523d82523d6000602084013e613fc5565b606091505b5091509150613fd5828286613fe0565b979650505050505050565b60608315613fef5750816133df565b825115613fff5782518084602001fd5b8160405162461bcd60e51b8152600401610abf9190614dc4565b82805482825590600052602060002090810192821561406e579160200282015b8281111561406e57825182546001600160a01b0319166001600160a01b03909116178255602090920191600190910190614039565b5061407a9291506140d1565b5090565b82805482825590600052602060002090810192821561406e579160200282015b8281111561406e5781546001600160a01b0319166001600160a01b0384351617825560209092019160019091019061409e565b5b8082111561407a57600081556001016140d2565b80356001600160a01b038116811461389457600080fd5b60006020828403121561410f57600080fd5b6133df826140e6565b8015158114612b5f57600080fd5b803561389481614118565b60006020828403121561414357600080fd5b81356133df81614118565b60006020828403121561416057600080fd5b5035919050565b634e487b7160e01b600052604160045260246000fd5b6040516101e0810167ffffffffffffffff811182821017156141a1576141a1614167565b60405290565b60405160a0810167ffffffffffffffff811182821017156141a1576141a1614167565b604051610180810167ffffffffffffffff811182821017156141a1576141a1614167565b604051601f8201601f1916810167ffffffffffffffff8111828210171561421757614217614167565b604052919050565b60006101e0828403121561423257600080fd5b61423a61417d565b9050614245826140e6565b8152614253602083016140e6565b6020820152614264604083016140e6565b6040820152614275606083016140e6565b6060820152614286608083016140e6565b608082015261429760a083016140e6565b60a08201526142a860c083016140e6565b60c08201526142b960e083016140e6565b60e08201526101006142cc8184016140e6565b908201526101206142de8382016140e6565b908201526101406142f08382016140e6565b908201526101606143028382016140e6565b908201526101806143148382016140e6565b908201526101a06143268382016140e6565b908201526101c06143388382016140e6565b9082015292915050565b600067ffffffffffffffff82111561435c5761435c614167565b5060051b60200190565b600082601f83011261437757600080fd5b8135602061438c61438783614342565b6141ee565b82815260059290921b840181019181810190868411156143ab57600080fd5b8286015b848110156143cd576143c0816140e6565b83529183019183016143af565b509695505050505050565b600060a082840312156143ea57600080fd5b6143f26141a7565b9050813581526020820135602082015260408201356040820152606082013560608201526080820135608082015292915050565b600060a0828403121561443857600080fd5b6144406141a7565b905061444b826140e6565b8152614459602083016140e6565b602082015261446a604083016140e6565b604082015261447b606083016140e6565b606082015261448c608083016140e6565b608082015292915050565b600080604083850312156144aa57600080fd5b6144b3836140e6565b9150602083013567ffffffffffffffff808211156144d057600080fd5b9084019061044082870312156144e557600080fd5b6144ed6141ca565b823581526144fd60208401614126565b602082015261450f876040850161421f565b60408201526102208301358281111561452757600080fd5b61453388828601614366565b6060830152506102408301358281111561454c57600080fd5b61455888828601614366565b6080830152506102608301358281111561457157600080fd5b61457d88828601614366565b60a0830152506102808301358281111561459657600080fd5b6145a288828601614366565b60c0830152506102a0830135828111156145bb57600080fd5b6145c788828601614366565b60e0830152506102c0830135828111156145e057600080fd5b6145ec88828601614366565b610100830152506102e08301358281111561460657600080fd5b61461288828601614366565b610120830152506146278761030085016143d8565b61014082015261463b876103a08501614426565b6101608201528093505050509250929050565b6000806040838503121561466157600080fd5b50508035926020909101359150565b60008060006060848603121561468557600080fd5b61468e846140e6565b9250602084013591506146a3604085016140e6565b90509250925092565b600080600080600060a086880312156146c457600080fd5b505083359560208501359550604085013594606081013594506080013592509050565b600080604083850312156146fa57600080fd5b614703836140e6565b946020939093013593505050565b60ff81168114612b5f57600080fd5b6000806040838503121561473357600080fd5b823561473e81614711565b915061474c602084016140e6565b90509250929050565b60008060006040848603121561476a57600080fd5b833561477581614711565b9250602084013567ffffffffffffffff8082111561479257600080fd5b818601915086601f8301126147a657600080fd5b8135818111156147b557600080fd5b8760208260051b85010111156147ca57600080fd5b6020830194508093505050509250925092565b6020808252818101527f4f776e61626c653a2063616c6c6572206973206e6f7420746865206f776e6572604082015260600190565b60208082526004908201526310b3b7bb60e11b604082015260600190565b6020808252602e908201527f496e697469616c697a61626c653a20636f6e747261637420697320616c72656160408201526d191e481a5b9a5d1a585b1a5e995960921b606082015260800190565b6020808252601f908201527f5265656e7472616e637947756172643a207265656e7472616e742063616c6c00604082015260600190565b60208082526010908201526f10bd37b93937a1b7b73a3937b63632b960811b604082015260600190565b60208082526010908201526f14185d5cd8589b194e881c185d5cd95960821b604082015260600190565b60006020828403121561491b57600080fd5b5051919050565b634e487b7160e01b600052603260045260246000fd5b634e487b7160e01b600052601160045260246000fd5b600061ffff8083168181141561496657614966614938565b6001019392505050565b60006020828403121561498257600080fd5b81516133df81614711565b805169ffffffffffffffffffff8116811461389457600080fd5b600080600080600060a086880312156149bf57600080fd5b6149c88661498d565b94506020860151935060408601519250606086015191506149eb6080870161498d565b90509295509295909350565b600181815b80851115614a32578160001904821115614a1857614a18614938565b80851615614a2557918102915b93841c93908002906149fc565b509250929050565b600082614a4957506001611607565b81614a5657506000611607565b8160018114614a6c5760028114614a7657614a92565b6001915050611607565b60ff841115614a8757614a87614938565b50506001821b611607565b5060208310610133831016604e8410600b8410161715614ab5575081810a611607565b614abf83836149f7565b8060001904821115614ad357614ad3614938565b029392505050565b60006133df60ff841683614a3a565b60008060408385031215614afd57600080fd5b505080516020909101519092909150565b60008219821115614b2157614b21614938565b500190565b600081518084526020808501945080840160005b83811015614b5f5781516001600160a01b031687529582019590820190600101614b3a565b509495945050505050565b82815260406020820152600061308e6040830184614b26565b60006020808385031215614b9657600080fd5b825167ffffffffffffffff811115614bad57600080fd5b8301601f81018513614bbe57600080fd5b8051614bcc61438782614342565b81815260059190911b82018301908381019087831115614beb57600080fd5b928401925b82841015613fd557835182529284019290840190614bf0565b85815284602082015260a060408201526000614c2860a0830186614b26565b6001600160a01b0394909416606083015250608001529392505050565b6000816000190483118215151615614c5f57614c5f614938565b500290565b600082614c8157634e487b7160e01b600052601260045260246000fd5b500490565b6020808252602b908201527f496e697469616c697a61626c653a20636f6e7472616374206973206e6f74206960408201526a6e697469616c697a696e6760a81b606082015260800190565b600082821015614ce357614ce3614938565b500390565b6001600160a01b039889168152968816602088015260408701959095526060860193909352608085019190915260a084015290921660c082015260e08101919091526101000190565b600080600060608486031215614d4657600080fd5b8351925060208401519150604084015190509250925092565b600060208284031215614d7157600080fd5b81516133df81614118565b60005b83811015614d97578181015183820152602001614d7f565b83811115612bb05750506000910152565b60008251614dba818460208701614d7c565b9190910192915050565b6020815260008251806020840152614de3816040850160208701614d7c565b601f01601f1916919091016040019291505056fea26469706673582212207dfe8897de48a45151edcfd41340d09604a752b260239f811b524b457402718764736f6c634300080a0033",
  "immutableReferences": {},
  "source": "// SPDX-License-Identifier: MIT\n\npragma solidity ^0.8.0;\n\nimport \"@openzeppelin/contracts-upgradeable/token/ERC20/ERC20Upgradeable.sol\";\n\nimport \"@openzeppelin/contracts-upgradeable/utils/AddressUpgradeable.sol\";\n\nimport \"../interfaces/IAMMFarm.sol\";\n\nimport \"../interfaces/IAMMRouter02.sol\";\n\nimport \"./_VaultBase.sol\";\n\nimport \"@openzeppelin/contracts-upgradeable/token/ERC20/IERC20Upgradeable.sol\";\n\nimport \"@openzeppelin/contracts-upgradeable/token/ERC20/utils/SafeERC20Upgradeable.sol\";\n\nimport \"@openzeppelin/contracts-upgradeable/utils/math/SafeMathUpgradeable.sol\";\n\nimport \"../libraries/SafeSwap.sol\";\n\nimport \"../libraries/PriceFeed.sol\";\n\nimport \"@openzeppelin/contracts-upgradeable/proxy/ClonesUpgradeable.sol\";\n\n/// @title Vault factory for VaultStandardAMM\ncontract VaultFactoryStandardAMM is Initializable, OwnableUpgradeable {\n    /* State */\n\n    VaultStandardAMM[] public deployedVaults; // All deployed vaults\n    address public masterVault; // Address of the upgradeable proxy that delegates to the master vault contract\n\n    /* Constructor */\n\n    function initialize(address _masterVault) public initializer {\n        // Set master vault address\n        masterVault = _masterVault;\n\n        // Ownable\n        __Ownable_init();\n    }\n\n    /* Factory functions */\n\n    function createVault(\n        address _timelockOwner,\n        VaultStandardAMM.VaultStandardAMMInit memory _initValue\n    ) external onlyOwner {\n        // Create clone\n        VaultStandardAMM _vault = VaultStandardAMM(\n            ClonesUpgradeable.clone(masterVault)\n        );\n        // Initialize cloned contract\n        _vault.initialize(_timelockOwner, _initValue);\n        // Add to array of deployed vaults\n        deployedVaults.push(_vault);\n    }\n\n    function numVaults() external view returns (uint256) {\n        return deployedVaults.length;\n    }\n}\n\n/// @title VaultStandardAMM: abstract base class for all PancakeSwap style AMM contracts. Maximizes yield in AMM.\ncontract VaultStandardAMM is VaultBase {\n    /* Libraries */\n    using SafeERC20Upgradeable for IERC20Upgradeable;\n    using SafeMathUpgradeable for uint256;\n    using SafeSwapUni for IAMMRouter02;\n    using PriceFeed for AggregatorV3Interface;\n\n    /* Constructor */\n    /// @notice Upgradeable constructor\n    /// @param _initValue A VaultStandardAMMInit struct with all constructor params\n    /// @param _timelockOwner The designated timelock controller address to act as owner\n    function initialize(\n        address _timelockOwner,\n        VaultStandardAMMInit memory _initValue\n    ) public initializer {\n        // Vault config\n        pid = _initValue.pid;\n        isHomeChain = _initValue.isHomeChain;\n\n        // Addresses\n        govAddress = _initValue.keyAddresses.govAddress;\n        onlyGov = true;\n        zorroControllerAddress = _initValue.keyAddresses.zorroControllerAddress;\n        ZORROAddress = _initValue.keyAddresses.ZORROAddress;\n        zorroStakingVault = _initValue.keyAddresses.zorroStakingVault;\n        wantAddress = _initValue.keyAddresses.wantAddress;\n        token0Address = _initValue.keyAddresses.token0Address;\n        earnedAddress = _initValue.keyAddresses.earnedAddress;\n        farmContractAddress = _initValue.keyAddresses.farmContractAddress;\n        rewardsAddress = _initValue.keyAddresses.rewardsAddress;\n        poolAddress = _initValue.keyAddresses.poolAddress;\n        uniRouterAddress = _initValue.keyAddresses.uniRouterAddress;\n        zorroLPPool = _initValue.keyAddresses.zorroLPPool;\n        zorroLPPoolOtherToken = _initValue.keyAddresses.zorroLPPoolOtherToken;\n        tokenUSDCAddress = _initValue.keyAddresses.tokenUSDCAddress;\n\n        // Fees\n        controllerFee = _initValue.fees.controllerFee;\n        buyBackRate = _initValue.fees.buyBackRate;\n        revShareRate = _initValue.fees.revShareRate;\n        entranceFeeFactor = _initValue.fees.entranceFeeFactor;\n        withdrawFeeFactor = _initValue.fees.withdrawFeeFactor;\n\n        // Swap paths\n        earnedToZORROPath = _initValue.earnedToZORROPath;\n        earnedToToken0Path = _initValue.earnedToToken0Path;\n        earnedToToken1Path = _initValue.earnedToToken1Path;\n        USDCToToken0Path = _initValue.USDCToToken0Path;\n        USDCToToken1Path = _initValue.USDCToToken1Path;\n        earnedToZORLPPoolOtherTokenPath = _initValue\n            .earnedToZORLPPoolOtherTokenPath;\n        earnedToUSDCPath = _initValue.earnedToUSDCPath;\n        // Corresponding reverse paths\n        token0ToUSDCPath = _reversePath(USDCToToken0Path);\n        token1ToUSDCPath = _reversePath(USDCToToken1Path);\n\n        // Price feeds\n        token0PriceFeed = AggregatorV3Interface(\n            _initValue.priceFeeds.token0PriceFeed\n        );\n        token1PriceFeed = AggregatorV3Interface(\n            _initValue.priceFeeds.token1PriceFeed\n        );\n        earnTokenPriceFeed = AggregatorV3Interface(\n            _initValue.priceFeeds.earnTokenPriceFeed\n        );\n        lpPoolOtherTokenPriceFeed = AggregatorV3Interface(\n            _initValue.priceFeeds.lpPoolOtherTokenPriceFeed\n        );\n        ZORPriceFeed = AggregatorV3Interface(\n            _initValue.priceFeeds.ZORPriceFeed\n        );\n\n        // Super call\n        VaultBase.initialize(_timelockOwner);\n    }\n\n    /* Structs */\n\n    struct VaultStandardAMMInit {\n        uint256 pid;\n        bool isHomeChain;\n        VaultAddresses keyAddresses;\n        address[] earnedToZORROPath;\n        address[] earnedToToken0Path;\n        address[] earnedToToken1Path;\n        address[] USDCToToken0Path;\n        address[] USDCToToken1Path;\n        address[] earnedToZORLPPoolOtherTokenPath;\n        address[] earnedToUSDCPath;\n        VaultFees fees;\n        VaultPriceFeeds priceFeeds;\n    }\n\n    /* Investment Actions */\n\n    /// @notice Receives new deposits from user\n    /// @param _account The address of the end user account making the deposit\n    /// @param _wantAmt The amount of Want token to deposit (must already be transferred)\n    /// @return sharesAdded Number of shares added\n    function depositWantToken(address _account, uint256 _wantAmt)\n        public\n        override\n        onlyZorroController\n        nonReentrant\n        whenNotPaused\n        returns (uint256 sharesAdded)\n    {\n        // Preflight checks\n        require(_wantAmt > 0, \"Want dep < 0\");\n\n        // Transfer Want token from sender\n        IERC20Upgradeable(wantAddress).safeTransferFrom(\n            msg.sender,\n            address(this),\n            _wantAmt\n        );\n\n        // Set sharesAdded to the Want token amount specified\n        sharesAdded = _wantAmt;\n        // If the total number of shares and want tokens locked both exceed 0, the shares added is the proportion of Want tokens locked,\n        // discounted by the entrance fee\n        if (wantLockedTotal > 0 && sharesTotal > 0) {\n            sharesAdded = _wantAmt\n                .mul(sharesTotal)\n                .mul(entranceFeeFactor)\n                .div(wantLockedTotal)\n                .div(entranceFeeFactorMax);\n        }\n        // Increment the shares\n        sharesTotal = sharesTotal.add(sharesAdded);\n        userShares[_account] = userShares[_account].add(sharesAdded);\n\n        // Farm Want token\n        _farm();\n    }\n\n    /// @notice Performs necessary operations to convert USDC into Want token and transfer back to sender\n    /// @param _amountUSDC The amount of USDC to exchange for Want token (must already be deposited on this contract)\n    /// @param _maxMarketMovementAllowed The max slippage allowed. 1000 = 0 %, 995 = 0.5%, etc.\n    /// @return uint256 Amount of Want token obtained\n    function exchangeUSDForWantToken(\n        uint256 _amountUSDC,\n        uint256 _maxMarketMovementAllowed\n    ) public override onlyZorroController whenNotPaused returns (uint256) {\n        // Get balance of deposited USDC\n        uint256 _balUSDC = IERC20(tokenUSDCAddress).balanceOf(address(this));\n        // Check that USDC was actually deposited\n        require(_amountUSDC > 0, \"USDC deposit must be > 0\");\n        require(_amountUSDC <= _balUSDC, \"USDC desired exceeded bal\");\n\n        // Use price feed to determine exchange rates\n        uint256 _token0ExchangeRate = token0PriceFeed.getExchangeRate();\n        uint256 _token1ExchangeRate = token1PriceFeed.getExchangeRate();\n\n        // Increase allowance\n        IERC20Upgradeable(tokenUSDCAddress).safeIncreaseAllowance(\n            uniRouterAddress,\n            _amountUSDC\n        );\n\n        // Swap USDC for token0\n        IAMMRouter02(uniRouterAddress).safeSwap(\n            _amountUSDC.div(2),\n            1e12,\n            _token0ExchangeRate,\n            _maxMarketMovementAllowed,\n            USDCToToken0Path,\n            address(this),\n            block.timestamp.add(600)\n        );\n\n        // Swap USDC for token1 (if applicable)\n        IAMMRouter02(uniRouterAddress).safeSwap(\n            _amountUSDC.div(2),\n            1e12,\n            _token1ExchangeRate,\n            _maxMarketMovementAllowed,\n            USDCToToken1Path,\n            address(this),\n            block.timestamp.add(600)\n        );\n\n        // Deposit token0, token1 into LP pool to get Want token (i.e. LP token)\n        uint256 token0Amt = IERC20Upgradeable(token0Address).balanceOf(\n            address(this)\n        );\n        uint256 token1Amt = IERC20Upgradeable(token1Address).balanceOf(\n            address(this)\n        );\n        IERC20Upgradeable(token0Address).safeIncreaseAllowance(\n            uniRouterAddress,\n            token0Amt\n        );\n        IERC20Upgradeable(token1Address).safeIncreaseAllowance(\n            uniRouterAddress,\n            token1Amt\n        );\n\n        _joinPool(token0Amt, token1Amt, _maxMarketMovementAllowed, msg.sender);\n\n        // Calculate resulting want token balance\n        return IERC20Upgradeable(wantAddress).balanceOf(msg.sender);\n    }\n\n    /// @notice Public function for farming Want token.\n    function farm() public nonReentrant {\n        _farm();\n    }\n\n    /// @notice Internal function for farming Want token. Responsible for staking Want token in a MasterChef/MasterApe-like contract\n    function _farm() internal {\n        // Get the Want token stored on this contract\n        uint256 wantBal = IERC20Upgradeable(wantAddress).balanceOf(\n            address(this)\n        );\n        // Increment the total Want tokens locked into this contract\n        wantLockedTotal = wantLockedTotal.add(wantBal);\n        // Allow the farm contract (e.g. MasterChef/MasterApe) the ability to transfer up to the Want amount\n        IERC20Upgradeable(wantAddress).safeIncreaseAllowance(\n            farmContractAddress,\n            wantBal\n        );\n\n        // Deposit the Want tokens in the Farm contract for the appropriate pool ID (PID)\n        IAMMFarm(farmContractAddress).deposit(pid, wantBal);\n    }\n\n    /// @notice Internal function for unfarming Want token. Responsible for unstaking Want token from MasterChef/MasterApe contracts\n    /// @param _wantAmt the amount of Want tokens to withdraw. If 0, will only harvest and not withdraw\n    /// @return wantUnfarmed The net amount of Want tokens unfarmed\n    function _unfarm(uint256 _wantAmt) internal returns (uint256 wantUnfarmed) {\n        // Withdraw the Want tokens from the Farm contract pool\n        IAMMFarm(farmContractAddress).withdraw(pid, _wantAmt);\n\n        // Init\n        wantUnfarmed = _wantAmt;\n\n        // Safety: Check balance of this contract's Want tokens held, and cap _wantAmt to that value\n        uint256 _wantBal = IERC20Upgradeable(wantAddress).balanceOf(\n            address(this)\n        );\n        if (wantUnfarmed > _wantBal) {\n            wantUnfarmed = _wantBal;\n        }\n        // Safety: cap _wantAmt at the total quantity of Want tokens locked\n        if (wantLockedTotal < _wantAmt) {\n            wantUnfarmed = wantLockedTotal;\n        }\n\n        // Decrement the total Want locked tokens by the _wantAmt\n        wantLockedTotal = wantLockedTotal.sub(wantUnfarmed);\n    }\n\n    /// @notice Fully withdraw Want tokens from the Farm contract (100% withdrawals only)\n    /// @param _account Address of user\n    /// @param _wantAmt The amount of Want token to withdraw\n    /// @return sharesRemoved uint256 The number of shares removed\n    function withdrawWantToken(address _account, uint256 _wantAmt)\n        public\n        override\n        onlyZorroController\n        nonReentrant\n        whenNotPaused\n        returns (uint256 sharesRemoved)\n    {\n        // Preflight checks\n        require(_wantAmt > 0, \"want amt <= 0\");\n\n        // Shares removed is proportional to the % of total Want tokens locked that _wantAmt represents\n        sharesRemoved = _wantAmt.mul(sharesTotal).div(wantLockedTotal);\n        // Safety: cap the shares to the total number of shares\n        if (sharesRemoved > sharesTotal) {\n            sharesRemoved = sharesTotal;\n        }\n        // Decrement the total shares by the sharesRemoved\n        sharesTotal = sharesTotal.sub(sharesRemoved);\n        userShares[_account] = userShares[_account].sub(sharesRemoved);\n\n        // If a withdrawal fee is specified, discount the _wantAmt by the withdrawal fee\n        if (withdrawFeeFactor < withdrawFeeFactorMax) {\n            _wantAmt = _wantAmt.mul(withdrawFeeFactor).div(\n                withdrawFeeFactorMax\n            );\n        }\n\n        // Unfarm Want token\n        uint256 _wantUnfarmed = _unfarm(_wantAmt);\n\n        // Finally, transfer the want amount from this contract, back to the ZorroController contract\n        IERC20Upgradeable(wantAddress).safeTransfer(\n            zorroControllerAddress,\n            _wantUnfarmed\n        );\n    }\n\n    /// @notice Converts Want token back into USD to be ready for withdrawal, transfers back to sender\n    /// @param _amount The Want token quantity to exchange\n    /// @param _maxMarketMovementAllowed The max slippage allowed for swaps. 1000 = 0 %, 995 = 0.5%, etc.\n    /// @return uint256 Amount of USDC token obtained\n    function exchangeWantTokenForUSD(\n        uint256 _amount,\n        uint256 _maxMarketMovementAllowed\n    )\n        public\n        virtual\n        override\n        onlyZorroController\n        whenNotPaused\n        returns (uint256)\n    {\n        // Preflight checks\n        require(_amount > 0, \"Want amt must be > 0\");\n\n        // Safely transfer Want token from sender\n        IERC20Upgradeable(wantAddress).safeTransferFrom(\n            msg.sender,\n            address(this),\n            _amount\n        );\n\n        // Use price feed to determine exchange rates\n        uint256 _token0ExchangeRate = token0PriceFeed.getExchangeRate();\n        uint256 _token1ExchangeRate = token1PriceFeed.getExchangeRate();\n\n        // revert(\"pre exit pool\");\n\n        // Exit LP pool\n        _exitPool(_amount, _maxMarketMovementAllowed, address(this));\n\n        // Swap tokens back to USDC\n        uint256 token0Amt = IERC20Upgradeable(token0Address).balanceOf(\n            address(this)\n        );\n        uint256 token1Amt = IERC20Upgradeable(token1Address).balanceOf(\n            address(this)\n        );\n\n        // Increase allowance\n        IERC20Upgradeable(token0Address).safeIncreaseAllowance(\n            uniRouterAddress,\n            token0Amt\n        );\n        IERC20Upgradeable(token1Address).safeIncreaseAllowance(\n            uniRouterAddress,\n            token1Amt\n        );\n\n        // Swap token0 for USDC\n        IAMMRouter02(uniRouterAddress).safeSwap(\n            token0Amt,\n            _token0ExchangeRate,\n            1e12,\n            _maxMarketMovementAllowed,\n            token0ToUSDCPath,\n            msg.sender,\n            block.timestamp.add(600)\n        );\n\n        // Swap token1 for USDC\n        IAMMRouter02(uniRouterAddress).safeSwap(\n            token1Amt,\n            _token1ExchangeRate,\n            1e12,\n            _maxMarketMovementAllowed,\n            token1ToUSDCPath,\n            msg.sender,\n            block.timestamp.add(600)\n        );\n\n        // Calculate USDC balance\n        return IERC20(tokenUSDCAddress).balanceOf(msg.sender);\n    }\n\n    /// @notice Adds liquidity to the pool of this contract\n    /// @param _token0Amt Quantity of Token0 to add\n    /// @param _token1Amt Quantity of Token1 to add\n    /// @param _maxMarketMovementAllowed The max slippage allowed for swaps. 1000 = 0 %, 995 = 0.5%, etc.\n    /// @param _recipient The recipient of the LP token\n    function _joinPool(\n        uint256 _token0Amt,\n        uint256 _token1Amt,\n        uint256 _maxMarketMovementAllowed,\n        address _recipient\n    ) internal {\n        IAMMRouter02(uniRouterAddress).addLiquidity(\n            token0Address,\n            token1Address,\n            _token0Amt,\n            _token1Amt,\n            _token0Amt.mul(_maxMarketMovementAllowed).div(1000),\n            _token1Amt.mul(_maxMarketMovementAllowed).div(1000),\n            _recipient,\n            block.timestamp.add(600)\n        );\n    }\n\n    /// @notice Removes liquidity from a pool and sends tokens back to this address\n    /// @param _amountLP The amount of LP (Want) tokens to remove\n    /// @param _maxMarketMovementAllowed The max slippage allowed for swaps. 1000 = 0 %, 995 = 0.5%, etc.\n    /// @param _recipient The recipient of the underlying tokens at pool exit\n    function _exitPool(\n        uint256 _amountLP,\n        uint256 _maxMarketMovementAllowed,\n        address _recipient\n    ) internal {\n        // Get token balances in LP pool\n        uint256 _balance0 = IERC20Upgradeable(token0Address).balanceOf(\n            poolAddress\n        );\n        uint256 _balance1 = IERC20Upgradeable(token1Address).balanceOf(\n            poolAddress\n        );\n\n        // Get total supply and calculate min amounts desired based on slippage\n        uint256 _totalSupply = IERC20Upgradeable(poolAddress).totalSupply();\n        uint256 _amount0Min = (_amountLP.mul(_balance0).div(_totalSupply))\n            .mul(_maxMarketMovementAllowed)\n            .div(1000);\n        uint256 _amount1Min = (_amountLP.mul(_balance1).div(_totalSupply))\n            .mul(_maxMarketMovementAllowed)\n            .div(1000);\n\n        // Approve\n        IERC20Upgradeable(wantAddress).safeIncreaseAllowance(\n            uniRouterAddress,\n            _amountLP\n        );\n\n        // Remove liquidity\n        IAMMRouter02(uniRouterAddress).removeLiquidity(\n            token0Address,\n            token1Address,\n            _amountLP,\n            _amount0Min,\n            _amount1Min,\n            _recipient,\n            block.timestamp.add(600)\n        );\n    }\n\n    /// @notice The main compounding (earn) function. Reinvests profits since the last earn event.\n    /// @param _maxMarketMovementAllowed The max slippage allowed. 1000 = 0 %, 995 = 0.5%, etc.\n    function earn(uint256 _maxMarketMovementAllowed)\n        public\n        override\n        nonReentrant\n        whenNotPaused\n    {\n        // If onlyGov is set to true, only allow to proceed if the current caller is the govAddress\n        if (onlyGov) {\n            require(msg.sender == govAddress, \"!gov\");\n        }\n\n        // Harvest farm tokens\n        _unfarm(0);\n\n        // Get the balance of the Earned token on this contract (CAKE, BANANA, etc.)\n        uint256 _earnedAmt = IERC20Upgradeable(earnedAddress).balanceOf(\n            address(this)\n        );\n\n        // Create rates struct\n        ExchangeRates memory _rates = ExchangeRates({\n            earn: earnTokenPriceFeed.getExchangeRate(),\n            ZOR: ZORPriceFeed.getExchangeRate(),\n            lpPoolOtherToken: lpPoolOtherTokenPriceFeed.getExchangeRate()\n        });\n\n        // Distribute fees\n        uint256 _controllerFee = _distributeFees(_earnedAmt);\n\n        // Buyback & rev share\n        (uint256 _buybackAmt, uint256 _revShareAmt) = _buyBackAndRevShare(\n            _earnedAmt,\n            _maxMarketMovementAllowed,\n            _rates\n        );\n\n        // Allow the router contract to spen up to earnedAmt\n        IERC20Upgradeable(earnedAddress).safeIncreaseAllowance(\n            uniRouterAddress,\n            _earnedAmt\n        );\n\n        // Swap Earned token to token0 if token0 is not the Earned token\n        if (earnedAddress != token0Address) {\n            // Swap half earned to token0\n            IAMMRouter02(uniRouterAddress).safeSwap(\n                (\n                    _earnedAmt.sub(_controllerFee).sub(_buybackAmt).sub(\n                        _revShareAmt\n                    )\n                ).div(2),\n                _rates.earn,\n                token0PriceFeed.getExchangeRate(),\n                _maxMarketMovementAllowed,\n                earnedToToken0Path,\n                address(this),\n                block.timestamp.add(600)\n            );\n        }\n\n        // Swap Earned token to token1 if token0 is not the Earned token\n        if (earnedAddress != token1Address) {\n            // Swap half earned to token1\n            IAMMRouter02(uniRouterAddress).safeSwap(\n                (\n                    _earnedAmt.sub(_controllerFee).sub(_buybackAmt).sub(\n                        _revShareAmt\n                    )\n                ).div(2),\n                _rates.earn,\n                token1PriceFeed.getExchangeRate(),\n                _maxMarketMovementAllowed,\n                earnedToToken1Path,\n                address(this),\n                block.timestamp.add(600)\n            );\n        }\n\n        // Get values of tokens 0 and 1\n        uint256 token0Amt = IERC20Upgradeable(token0Address).balanceOf(\n            address(this)\n        );\n        uint256 token1Amt = IERC20Upgradeable(token1Address).balanceOf(\n            address(this)\n        );\n\n        // Provided that token0 and token1 are both > 0, add liquidity\n        if (token0Amt > 0 && token1Amt > 0) {\n            // Increase the allowance of the router to spend token0\n            IERC20Upgradeable(token0Address).safeIncreaseAllowance(\n                uniRouterAddress,\n                token0Amt\n            );\n            // Increase the allowance of the router to spend token1\n            IERC20Upgradeable(token1Address).safeIncreaseAllowance(\n                uniRouterAddress,\n                token1Amt\n            );\n            // Add liquidity\n            _joinPool(\n                token0Amt,\n                token1Amt,\n                _maxMarketMovementAllowed,\n                address(this)\n            );\n        }\n\n        // Update last earned block\n        lastEarnBlock = block.number;\n\n        // Farm Want token\n        _farm();\n    }\n\n    /// @notice Buys back the earned token on-chain, swaps it to add liquidity to the ZOR pool, then burns the associated LP token\n    /// @dev Requires funds to be sent to this address before calling. Can be called internally OR by controller\n    /// @param _amount The amount of Earn token to buy back\n    /// @param _maxMarketMovementAllowed Slippage factor. 950 = 5%, 990 = 1%, etc.\n    function _buybackOnChain(\n        uint256 _amount,\n        uint256 _maxMarketMovementAllowed,\n        ExchangeRates memory _rates\n    ) internal override {\n        // Authorize spending beforehand\n        IERC20Upgradeable(earnedAddress).safeIncreaseAllowance(\n            uniRouterAddress,\n            _amount\n        );\n\n        // Swap to ZOR Token\n        IAMMRouter02(uniRouterAddress).safeSwap(\n            _amount.div(2),\n            _rates.earn,\n            _rates.ZOR,\n            _maxMarketMovementAllowed,\n            earnedToZORROPath,\n            address(this),\n            block.timestamp.add(600)\n        );\n        // Swap to Other token\n        IAMMRouter02(uniRouterAddress).safeSwap(\n            _amount.div(2),\n            _rates.earn,\n            _rates.lpPoolOtherToken,\n            _maxMarketMovementAllowed,\n            earnedToZORLPPoolOtherTokenPath,\n            address(this),\n            block.timestamp.add(600)\n        );\n\n        // Enter LP pool and send received token to the burn address\n        uint256 zorroTokenAmt = IERC20Upgradeable(ZORROAddress).balanceOf(\n            address(this)\n        );\n        uint256 otherTokenAmt = IERC20Upgradeable(zorroLPPoolOtherToken)\n            .balanceOf(address(this));\n\n        IERC20Upgradeable(ZORROAddress).safeIncreaseAllowance(\n            uniRouterAddress,\n            zorroTokenAmt\n        );\n        IERC20Upgradeable(zorroLPPoolOtherToken).safeIncreaseAllowance(\n            uniRouterAddress,\n            otherTokenAmt\n        );\n\n        IAMMRouter02(uniRouterAddress).addLiquidity(\n            ZORROAddress,\n            zorroLPPoolOtherToken,\n            zorroTokenAmt,\n            otherTokenAmt,\n            zorroTokenAmt.mul(_maxMarketMovementAllowed).div(1000),\n            otherTokenAmt.mul(_maxMarketMovementAllowed).div(1000),\n            burnAddress,\n            block.timestamp.add(600)\n        );\n    }\n\n    /// @notice Sends the specified earnings amount as revenue share to ZOR stakers\n    /// @param _amount The amount of Earn token to share as revenue with ZOR stakers\n    function _revShareOnChain(\n        uint256 _amount,\n        uint256 _maxMarketMovementAllowed,\n        ExchangeRates memory _rates\n    ) internal override {\n        // Authorize spending beforehand\n        IERC20Upgradeable(earnedAddress).safeIncreaseAllowance(\n            uniRouterAddress,\n            _amount\n        );\n\n        // Swap to ZOR\n        IAMMRouter02(uniRouterAddress).safeSwap(\n            _amount,\n            _rates.earn,\n            _rates.ZOR,\n            _maxMarketMovementAllowed,\n            earnedToZORROPath,\n            zorroStakingVault,\n            block.timestamp.add(600)\n        );\n    }\n\n    /// @notice Swaps Earn token to USDC and sends to destination specified\n    /// @param _earnedAmount Quantity of Earned tokens\n    /// @param _destination Address to send swapped USDC to\n    /// @param _maxMarketMovementAllowed Slippage factor. 950 = 5%, 990 = 1%, etc.\n    function _swapEarnedToUSDC(\n        uint256 _earnedAmount,\n        address _destination,\n        uint256 _maxMarketMovementAllowed,\n        ExchangeRates memory _rates\n    ) internal override {\n        // Increase allowance\n        IERC20Upgradeable(earnedAddress).safeIncreaseAllowance(\n            uniRouterAddress,\n            _earnedAmount\n        );\n\n        // Perform swap with Uni router\n        IAMMRouter02(uniRouterAddress).safeSwap(\n            _earnedAmount,\n            _rates.earn,\n            1e12,\n            _maxMarketMovementAllowed,\n            earnedToUSDCPath,\n            _destination,\n            block.timestamp.add(600)\n        );\n    }\n}\n",
  "sourcePath": "/Users/kristophm/Documents/workspace/zorro-protocol/contracts/vaults/VaultStandardAMM.sol",
  "compiler": {
    "name": "solc",
    "version": "0.8.10+commit.fc410830.Emscripten.clang"
  },
  "schemaVersion": "3.4.4",
  "updatedAt": "2022-05-03T14:14:16.358Z",
  "networkType": "ethereum",
  "devdoc": {
    "kind": "dev",
    "methods": {
      "depositWantToken(address,uint256)": {
        "params": {
          "_account": "The address of the end user account making the deposit",
          "_wantAmt": "The amount of Want token to deposit (must already be transferred)"
        },
        "returns": {
          "sharesAdded": "Number of shares added"
        }
      },
      "earn(uint256)": {
        "params": {
          "_maxMarketMovementAllowed": "The max slippage allowed. 1000 = 0 %, 995 = 0.5%, etc."
        }
      },
      "exchangeUSDForWantToken(uint256,uint256)": {
        "params": {
          "_amountUSDC": "The amount of USDC to exchange for Want token (must already be deposited on this contract)",
          "_maxMarketMovementAllowed": "The max slippage allowed. 1000 = 0 %, 995 = 0.5%, etc."
        },
        "returns": {
          "_0": "uint256 Amount of Want token obtained"
        }
      },
      "exchangeWantTokenForUSD(uint256,uint256)": {
        "params": {
          "_amount": "The Want token quantity to exchange",
          "_maxMarketMovementAllowed": "The max slippage allowed for swaps. 1000 = 0 %, 995 = 0.5%, etc."
        },
        "returns": {
          "_0": "uint256 Amount of USDC token obtained"
        }
      },
      "inCaseTokensGetStuck(address,uint256,address)": {
        "params": {
          "_amount": "The amount of the tokens to transfer",
          "_to": "The address to transfer tokens to",
          "_token": "Address of the ERC20 token to transfer"
        }
      },
      "initialize(address,(uint256,bool,(address,address,address,address,address,address,address,address,address,address,address,address,address,address,address),address[],address[],address[],address[],address[],address[],address[],(uint256,uint256,uint256,uint256,uint256),(address,address,address,address,address)))": {
        "params": {
          "_initValue": "A VaultStandardAMMInit struct with all constructor params",
          "_timelockOwner": "The designated timelock controller address to act as owner"
        }
      },
      "owner()": {
        "details": "Returns the address of the current owner."
      },
      "paused()": {
        "details": "Returns true if the contract is paused, and false otherwise."
      },
      "renounceOwnership()": {
        "details": "Leaves the contract without owner. It will not be possible to call `onlyOwner` functions anymore. Can only be called by the current owner. NOTE: Renouncing ownership will leave the contract without an owner, thereby removing any functionality that is only available to the owner."
      },
      "setFeeSettings(uint256,uint256,uint256,uint256,uint256)": {
        "params": {
          "_buyBackRate": "Buy back rate fee numerator",
          "_controllerFee": "Controller fee numerator",
          "_entranceFeeFactor": "Entrance fee numerator (higher means smaller percentage)",
          "_revShareRate": "Rev share rate fee numerator",
          "_withdrawFeeFactor": "Withdrawal fee numerator (higher means smaller percentage)"
        }
      },
      "setGov(address)": {
        "params": {
          "_govAddress": "The new gov address"
        }
      },
      "setOnlyGov(bool)": {
        "params": {
          "_onlyGov": "whether onlyGov should be enforced"
        }
      },
      "transferOwnership(address)": {
        "details": "Transfers ownership of the contract to a new account (`newOwner`). Can only be called by the current owner."
      },
      "withdrawWantToken(address,uint256)": {
        "params": {
          "_account": "Address of user",
          "_wantAmt": "The amount of Want token to withdraw"
        },
        "returns": {
          "sharesRemoved": "uint256 The number of shares removed"
        }
      }
    },
    "title": "VaultStandardAMM: abstract base class for all PancakeSwap style AMM contracts. Maximizes yield in AMM.",
    "version": 1
  },
  "userdoc": {
    "kind": "user",
    "methods": {
      "depositWantToken(address,uint256)": {
        "notice": "Receives new deposits from user"
      },
      "earn(uint256)": {
        "notice": "The main compounding (earn) function. Reinvests profits since the last earn event."
      },
      "exchangeUSDForWantToken(uint256,uint256)": {
        "notice": "Performs necessary operations to convert USDC into Want token and transfer back to sender"
      },
      "exchangeWantTokenForUSD(uint256,uint256)": {
        "notice": "Converts Want token back into USD to be ready for withdrawal, transfers back to sender"
      },
      "farm()": {
        "notice": "Public function for farming Want token."
      },
      "inCaseTokensGetStuck(address,uint256,address)": {
        "notice": "Safely transfer ERC20 tokens stuck in this contract to a specified address"
      },
      "initialize(address,(uint256,bool,(address,address,address,address,address,address,address,address,address,address,address,address,address,address,address),address[],address[],address[],address[],address[],address[],address[],(uint256,uint256,uint256,uint256,uint256),(address,address,address,address,address)))": {
        "notice": "Upgradeable constructor"
      },
      "pause()": {
        "notice": "Pause contract"
      },
      "setFeeSettings(uint256,uint256,uint256,uint256,uint256)": {
        "notice": "Configure key fee parameters"
      },
      "setGov(address)": {
        "notice": "Set governor address"
      },
      "setOnlyGov(bool)": {
        "notice": "Set onlyGov property"
      },
      "unpause()": {
        "notice": "Unpause contract"
      },
      "withdrawWantToken(address,uint256)": {
        "notice": "Fully withdraw Want tokens from the Farm contract (100% withdrawals only)"
      }
    },
    "version": 1
  }
}