{
  "contractName": "VaultActionsAnkrLiqStakeLP",
  "abi": [
    {
      "anonymous": false,
      "inputs": [
        {
          "indexed": true,
          "internalType": "address",
          "name": "previousOwner",
          "type": "address"
        },
        {
          "indexed": true,
          "internalType": "address",
          "name": "newOwner",
          "type": "address"
        }
      ],
      "name": "OwnershipTransferred",
      "type": "event"
    },
    {
      "inputs": [],
      "name": "burnAddress",
      "outputs": [
        {
          "internalType": "address",
          "name": "",
          "type": "address"
        }
      ],
      "stateMutability": "view",
      "type": "function"
    },
    {
      "inputs": [
        {
          "internalType": "address",
          "name": "_vaultAddr",
          "type": "address"
        }
      ],
      "name": "currentWantEquity",
      "outputs": [
        {
          "internalType": "uint256",
          "name": "positionVal",
          "type": "uint256"
        }
      ],
      "stateMutability": "view",
      "type": "function"
    },
    {
      "inputs": [
        {
          "internalType": "uint256",
          "name": "_amount",
          "type": "uint256"
        },
        {
          "internalType": "uint256",
          "name": "_maxMarketMovementAllowed",
          "type": "uint256"
        },
        {
          "components": [
            {
              "internalType": "address",
              "name": "ZORROAddress",
              "type": "address"
            },
            {
              "internalType": "address",
              "name": "rewardsAddress",
              "type": "address"
            },
            {
              "internalType": "address",
              "name": "stablecoin",
              "type": "address"
            },
            {
              "internalType": "address",
              "name": "zorroStakingVault",
              "type": "address"
            },
            {
              "internalType": "address",
              "name": "zorroLPPoolOtherToken",
              "type": "address"
            },
            {
              "internalType": "contract AggregatorV3Interface",
              "name": "ZORPriceFeed",
              "type": "address"
            },
            {
              "internalType": "contract AggregatorV3Interface",
              "name": "lpPoolOtherTokenPriceFeed",
              "type": "address"
            },
            {
              "internalType": "contract AggregatorV3Interface",
              "name": "stablecoinPriceFeed",
              "type": "address"
            },
            {
              "internalType": "address[]",
              "name": "stablecoinToZORROPath",
              "type": "address[]"
            },
            {
              "internalType": "address[]",
              "name": "stablecoinToZORLPPoolOtherTokenPath",
              "type": "address[]"
            },
            {
              "internalType": "uint16",
              "name": "controllerFeeBP",
              "type": "uint16"
            },
            {
              "internalType": "uint16",
              "name": "buybackBP",
              "type": "uint16"
            },
            {
              "internalType": "uint16",
              "name": "revShareBP",
              "type": "uint16"
            },
            {
              "internalType": "bool",
              "name": "isHomeChain",
              "type": "bool"
            }
          ],
          "internalType": "struct IVaultActions.DistributeEarningsParams",
          "name": "_params",
          "type": "tuple"
        }
      ],
      "name": "distributeAndReinvestEarnings",
      "outputs": [
        {
          "internalType": "uint256",
          "name": "wantRemaining",
          "type": "uint256"
        },
        {
          "internalType": "uint256",
          "name": "xChainBuybackAmt",
          "type": "uint256"
        },
        {
          "internalType": "uint256",
          "name": "xChainRevShareAmt",
          "type": "uint256"
        }
      ],
      "stateMutability": "nonpayable",
      "type": "function"
    },
    {
      "inputs": [
        {
          "internalType": "uint256",
          "name": "_amountUSD",
          "type": "uint256"
        },
        {
          "internalType": "uint256",
          "name": "_maxMarketMovementAllowed",
          "type": "uint256"
        }
      ],
      "name": "exchangeUSDForWantToken",
      "outputs": [
        {
          "internalType": "uint256",
          "name": "wantObtained",
          "type": "uint256"
        }
      ],
      "stateMutability": "nonpayable",
      "type": "function"
    },
    {
      "inputs": [
        {
          "internalType": "uint256",
          "name": "_amount",
          "type": "uint256"
        },
        {
          "internalType": "uint256",
          "name": "_maxMarketMovementAllowed",
          "type": "uint256"
        }
      ],
      "name": "exchangeWantTokenForUSD",
      "outputs": [
        {
          "internalType": "uint256",
          "name": "usdObtained",
          "type": "uint256"
        }
      ],
      "stateMutability": "nonpayable",
      "type": "function"
    },
    {
      "inputs": [
        {
          "internalType": "uint256",
          "name": "_amountLP",
          "type": "uint256"
        },
        {
          "internalType": "uint256",
          "name": "_maxMarketMovementAllowed",
          "type": "uint256"
        },
        {
          "internalType": "address",
          "name": "_recipient",
          "type": "address"
        },
        {
          "components": [
            {
              "internalType": "address",
              "name": "token0",
              "type": "address"
            },
            {
              "internalType": "address",
              "name": "token1",
              "type": "address"
            },
            {
              "internalType": "address",
              "name": "poolAddress",
              "type": "address"
            },
            {
              "internalType": "address",
              "name": "lpTokenAddress",
              "type": "address"
            }
          ],
          "internalType": "struct IVaultActions.ExitPoolParams",
          "name": "_exitPoolParams",
          "type": "tuple"
        }
      ],
      "name": "exitPool",
      "outputs": [],
      "stateMutability": "nonpayable",
      "type": "function"
    },
    {
      "inputs": [
        {
          "internalType": "address",
          "name": "_uniRouterAddress",
          "type": "address"
        }
      ],
      "name": "initialize",
      "outputs": [],
      "stateMutability": "nonpayable",
      "type": "function"
    },
    {
      "inputs": [
        {
          "internalType": "address",
          "name": "_token0",
          "type": "address"
        },
        {
          "internalType": "address",
          "name": "_token1",
          "type": "address"
        },
        {
          "internalType": "uint256",
          "name": "_token0Amt",
          "type": "uint256"
        },
        {
          "internalType": "uint256",
          "name": "_token1Amt",
          "type": "uint256"
        },
        {
          "internalType": "uint256",
          "name": "_maxMarketMovementAllowed",
          "type": "uint256"
        },
        {
          "internalType": "address",
          "name": "_recipient",
          "type": "address"
        }
      ],
      "name": "joinPool",
      "outputs": [],
      "stateMutability": "nonpayable",
      "type": "function"
    },
    {
      "inputs": [
        {
          "internalType": "uint256",
          "name": "_amount",
          "type": "uint256"
        },
        {
          "internalType": "address",
          "name": "_nativeToken",
          "type": "address"
        },
        {
          "internalType": "address",
          "name": "_liqStakeToken",
          "type": "address"
        },
        {
          "internalType": "address",
          "name": "_liqStakePool",
          "type": "address"
        },
        {
          "internalType": "uint256",
          "name": "_maxMarketMovementAllowed",
          "type": "uint256"
        }
      ],
      "name": "liquidStakeAndAddLiq",
      "outputs": [],
      "stateMutability": "nonpayable",
      "type": "function"
    },
    {
      "inputs": [],
      "name": "owner",
      "outputs": [
        {
          "internalType": "address",
          "name": "",
          "type": "address"
        }
      ],
      "stateMutability": "view",
      "type": "function"
    },
    {
      "inputs": [
        {
          "internalType": "uint256",
          "name": "_amount",
          "type": "uint256"
        },
        {
          "internalType": "address",
          "name": "_nativeToken",
          "type": "address"
        },
        {
          "internalType": "address",
          "name": "_liquidStakeToken",
          "type": "address"
        },
        {
          "internalType": "address",
          "name": "_lpToken",
          "type": "address"
        },
        {
          "internalType": "uint256",
          "name": "_maxMarketMovementAllowed",
          "type": "uint256"
        }
      ],
      "name": "removeLiqAndliquidUnstake",
      "outputs": [],
      "stateMutability": "nonpayable",
      "type": "function"
    },
    {
      "inputs": [],
      "name": "renounceOwnership",
      "outputs": [],
      "stateMutability": "nonpayable",
      "type": "function"
    },
    {
      "inputs": [
        {
          "internalType": "address[]",
          "name": "_path",
          "type": "address[]"
        }
      ],
      "name": "reversePath",
      "outputs": [
        {
          "internalType": "address[]",
          "name": "newPath",
          "type": "address[]"
        }
      ],
      "stateMutability": "pure",
      "type": "function"
    },
    {
      "inputs": [
        {
          "components": [
            {
              "internalType": "uint256",
              "name": "amountIn",
              "type": "uint256"
            },
            {
              "internalType": "uint256",
              "name": "priceToken0",
              "type": "uint256"
            },
            {
              "internalType": "uint256",
              "name": "priceToken1",
              "type": "uint256"
            },
            {
              "internalType": "address",
              "name": "token0",
              "type": "address"
            },
            {
              "internalType": "address",
              "name": "token1",
              "type": "address"
            },
            {
              "internalType": "uint256",
              "name": "maxMarketMovementAllowed",
              "type": "uint256"
            },
            {
              "internalType": "address[]",
              "name": "path",
              "type": "address[]"
            },
            {
              "internalType": "address",
              "name": "destination",
              "type": "address"
            }
          ],
          "internalType": "struct SafeSwapUni.SafeSwapParams",
          "name": "_swapParams",
          "type": "tuple"
        }
      ],
      "name": "safeSwap",
      "outputs": [],
      "stateMutability": "nonpayable",
      "type": "function"
    },
    {
      "inputs": [
        {
          "internalType": "address",
          "name": "_burnAddress",
          "type": "address"
        }
      ],
      "name": "setBurnAddress",
      "outputs": [],
      "stateMutability": "nonpayable",
      "type": "function"
    },
    {
      "inputs": [
        {
          "internalType": "address",
          "name": "_uniRouterAddress",
          "type": "address"
        }
      ],
      "name": "setUniRouterAddress",
      "outputs": [],
      "stateMutability": "nonpayable",
      "type": "function"
    },
    {
      "inputs": [
        {
          "internalType": "address",
          "name": "newOwner",
          "type": "address"
        }
      ],
      "name": "transferOwnership",
      "outputs": [],
      "stateMutability": "nonpayable",
      "type": "function"
    },
    {
      "inputs": [],
      "name": "uniRouterAddress",
      "outputs": [
        {
          "internalType": "address",
          "name": "",
          "type": "address"
        }
      ],
      "stateMutability": "view",
      "type": "function"
    },
    {
      "inputs": [
        {
          "internalType": "address",
          "name": "_vault",
          "type": "address"
        }
      ],
      "name": "unrealizedProfits",
      "outputs": [
        {
          "internalType": "uint256",
          "name": "accumulatedProfit",
          "type": "uint256"
        },
        {
          "internalType": "uint256",
          "name": "harvestableProfit",
          "type": "uint256"
        }
      ],
      "stateMutability": "view",
      "type": "function"
    }
  ],
  "bytecode": "0x608060405234801561001057600080fd5b50613a97806100206000396000f3fe608060405234801561001057600080fd5b50600436106101255760003560e060020a9004806370d5ae05116100b1578063c4d66de811610075578063c4d66de814610294578063c78bb217146102a7578063e502a88d146102ba578063f2fde38b146102cd578063f55850b4146102e057600080fd5b806370d5ae051461021d578063715018a6146102305780638b4c5aee146102385780638da5cb5b14610258578063a0e16faf1461026957600080fd5b806358f5ab9f116100f857806358f5ab9f146101785780635da79d631461018b578063648794a41461019e578063693a090b146101c45780636945292a146101ef57600080fd5b80630c70c2811461012a57806312ad7eba1461013f578063265be497146101525780634b0e721614610165575b600080fd5b61013d61013836600461306a565b6102f3565b005b61013d61014d3660046131be565b61031f565b61013d610160366004613287565b61034b565b61013d6101733660046132e2565b610532565b61013d6101863660046132ff565b610597565b61013d6101993660046132e2565b6105d7565b6101b16101ac366004613366565b610633565b6040519081526020015b60405180910390f35b6065546101d790600160a060020a031681565b604051600160a060020a0390911681526020016101bb565b6102026101fd3660046133bc565b610796565b604080519384526020840192909252908201526060016101bb565b6066546101d790600160a060020a031681565b61013d610985565b61024b61024636600461353f565b6109be565b6040516101bb91906135b8565b603354600160a060020a03166101d7565b61027f6102773660046132e2565b600080915091565b604080519283526020830191909152016101bb565b61013d6102a23660046132e2565b610a92565b61013d6102b5366004613287565b610b96565b6101b16102c8366004613366565b610ddb565b61013d6102db3660046132e2565b610ecd565b6101b16102ee3660046132e2565b610f82565b606081015161030d90600160a060020a0316333087611136565b610319848484846111e7565b50505050565b8051606082015161033f91600160a060020a039091169033903090611136565b61034881611366565b50565b610360600160a060020a038516333088611136565b61036c85858585611576565b60405160e060020a6370a08231028152306004820152600090600160a060020a038516906370a0823190602401602060405180830381865afa1580156103b6573d6000803e3d6000fd5b505050506040513d601f19601f820116820180604052508101906103da91906135cb565b60405160e160020a634ee5a88d028152600160a060020a038616600482015290915033906000908290639dcb511a90602401602060405180830381865afa158015610429573d6000803e3d6000fd5b505050506040513d601f19601f8201168201806040525081019061044d91906135e4565b60405160e160020a634ee5a88d028152600160a060020a038981166004830152919250600091841690639dcb511a90602401602060405180830381865afa15801561049c573d6000803e3d6000fd5b505050506040513d601f19601f820116820180604052508101906104c091906135e4565b905060006104ce888a6117ef565b9050610526856040518060a001604052808b600160a060020a031681526020018c600160a060020a0316815260200186600160a060020a0316815260200185600160a060020a031681526020018481525088336119ba565b50505050505050505050565b603354600160a060020a031633146105685760405160e560020a62461bcd02815260040161055f90613601565b60405180910390fd5b6066805473ffffffffffffffffffffffffffffffffffffffff1916600160a060020a0392909216919091179055565b6105ac600160a060020a038716333087611136565b6105c1600160a060020a038616333086611136565b6105cf868686868686611b53565b505050505050565b603354600160a060020a031633146106045760405160e560020a62461bcd02815260040161055f90613601565b6065805473ffffffffffffffffffffffffffffffffffffffff1916600160a060020a0392909216919091179055565b60008083116106875760405160e560020a62461bcd02815260206004820152600760248201527f6e656757616e7400000000000000000000000000000000000000000000000000604482015260640161055f565b600033600160a060020a031663e7a036796040518163ffffffff1660e060020a028152600401602060405180830381865afa1580156106ca573d6000803e3d6000fd5b505050506040513d601f19601f820116820180604052508101906106ee91906135e4565b9050600033600160a060020a031663b61bb80a6040518163ffffffff1660e060020a028152600401602060405180830381865afa158015610733573d6000803e3d6000fd5b505050506040513d601f19601f8201168201806040525081019061075791906135e4565b905061076e600160a060020a038316333088611136565b6107788585611c75565b925061078e600160a060020a0382163385611f4a565b505092915050565b600080808033600160a060020a031663e7a036796040518163ffffffff1660e060020a028152600401602060405180830381865afa1580156107dc573d6000803e3d6000fd5b505050506040513d601f19601f8201168201806040525081019061080091906135e4565b9050600033600160a060020a031663b61bb80a6040518163ffffffff1660e060020a028152600401602060405180830381865afa158015610845573d6000803e3d6000fd5b505050506040513d601f19601f8201168201806040525081019061086991906135e4565b9050610880600160a060020a03831633308b611136565b600061088d898989611f93565b909650945090506108b2846108a2878461364f565b6108ac919061364f565b8961216d565b95506108c8600160a060020a0384163388611f4a565b60405160e060020a6370a08231028152306004820152600090600160a060020a038416906370a0823190602401602060405180830381865afa158015610912573d6000803e3d6000fd5b505050506040513d601f19601f8201168201806040525081019061093691906135cb565b90506109428587613666565b61094c828861367e565b610956919061369d565b9550610962868261364f565b9450610978600160a060020a0385163383611f4a565b5050505093509350939050565b603354600160a060020a031633146109b25760405160e560020a62461bcd02815260040161055f90613601565b6109bc6000612377565b565b80516060908067ffffffffffffffff8111156109dc576109dc612fd2565b604051908082528060200260200182016040528015610a05578160200160208202803683370190505b50915060005b818161ffff161015610a8b57838161ffff1660018651610a2b919061364f565b610a35919061364f565b81518110610a4557610a456136c2565b6020026020010151838261ffff1681518110610a6357610a636136c2565b600160a060020a0390921660209283029190910190910152610a84816136db565b9050610a0b565b5050919050565b600054610100900460ff16610aad5760005460ff1615610ab1565b303b155b610b265760405160e560020a62461bcd02815260206004820152602e60248201527f496e697469616c697a61626c653a20636f6e747261637420697320616c72656160448201527f647920696e697469616c697a6564000000000000000000000000000000000000606482015260840161055f565b600054610100900460ff16158015610b48576000805461ffff19166101011790555b60658054600160a060020a03841673ffffffffffffffffffffffffffffffffffffffff19918216179091556066805490911661dead1790558015610b92576000805461ff00191690555b5050565b610bab600160a060020a038316333088611136565b610bfb858230604051806080016040528089600160a060020a0316815260200188600160a060020a0316815260200187600160a060020a0316815260200187600160a060020a03168152506111e7565b60405160e060020a6370a08231028152306004820152600090600160a060020a038516906370a0823190602401602060405180830381865afa158015610c45573d6000803e3d6000fd5b505050506040513d601f19601f82011682018060405250810190610c6991906135cb565b60405160e160020a634ee5a88d028152600160a060020a038716600482015290915033906000908290639dcb511a90602401602060405180830381865afa158015610cb8573d6000803e3d6000fd5b505050506040513d601f19601f82011682018060405250810190610cdc91906135e4565b60405160e160020a634ee5a88d028152600160a060020a038881166004830152919250600091841690639dcb511a90602401602060405180830381865afa158015610d2b573d6000803e3d6000fd5b505050506040513d601f19601f82011682018060405250810190610d4f91906135e4565b9050610dd0604051806101000160405280868152602001610d7885600160a060020a03166123d6565b8152602001610d8f84600160a060020a03166123d6565b81526020018a600160a060020a0316815260200189600160a060020a03168152602001878152602001610dc28a8c6117ef565b81523360209091015261031f565b505050505050505050565b60008033600160a060020a031663b61bb80a6040518163ffffffff1660e060020a028152600401602060405180830381865afa158015610e1f573d6000803e3d6000fd5b505050506040513d601f19601f82011682018060405250810190610e4391906135e4565b9050600033600160a060020a031663e7a036796040518163ffffffff1660e060020a028152600401602060405180830381865afa158015610e88573d6000803e3d6000fd5b505050506040513d601f19601f82011682018060405250810190610eac91906135e4565b9050610ec3600160a060020a038316333088611136565b610778858561216d565b603354600160a060020a03163314610efa5760405160e560020a62461bcd02815260040161055f90613601565b600160a060020a038116610f795760405160e560020a62461bcd02815260206004820152602660248201527f4f776e61626c653a206e6577206f776e657220697320746865207a65726f206160448201527f6464726573730000000000000000000000000000000000000000000000000000606482015260840161055f565b61034881612377565b600080829050600081600160a060020a0316637ff36fbe6040518163ffffffff1660e060020a028152600401602060405180830381865afa158015610fcb573d6000803e3d6000fd5b505050506040513d601f19601f82011682018060405250810190610fef91906135e4565b9050600082600160a060020a03166370699c616040518163ffffffff1660e060020a028152600401602060405180830381865afa158015611034573d6000803e3d6000fd5b505050506040513d601f19601f8201168201806040525081019061105891906135e4565b9050600083600160a060020a0316635fcbd2856040518163ffffffff1660e060020a028152600401602060405180830381865afa15801561109d573d6000803e3d6000fd5b505050506040513d601f19601f820116820180604052508101906110c191906135e4565b9050600084600160a060020a031663e71984746040518163ffffffff1660e060020a028152600401602060405180830381865afa158015611106573d6000803e3d6000fd5b505050506040513d601f19601f8201168201806040525081019061112a91906135e4565b90505050505050919050565b604051600160a060020a03808516602483015283166044820152606481018290526103199085907f23b872dd00000000000000000000000000000000000000000000000000000000906084015b60408051601f198184030181529190526020810180517bffffffffffffffffffffffffffffffffffffffffffffffffffffffff167fffffffff000000000000000000000000000000000000000000000000000000009093169290921790915261252d565b60008060008360400151600160a060020a03166318160ddd6040518163ffffffff1660e060020a028152600401602060405180830381865afa158015611231573d6000803e3d6000fd5b505050506040513d601f19601f8201168201806040525081019061125591906135cb565b905061126c8785600001518660400151848a612615565b92506112838785602001518660400151848a612615565b60655460608601519193506112a591600160a060020a039081169116896126b4565b60655484516020860151600160a060020a039092169163baa2abde91908a87878b6112d242610258613666565b60405163ffffffff891660e060020a028152600160a060020a039788166004820152958716602487015260448601949094526064850192909252608484015290921660a482015260c481019190915260e40160408051808303816000875af1158015611342573d6000803e3d6000fd5b505050506040513d601f19601f82011682018060405250810190610dd091906136fd565b6065548151606083015161138892600160a060020a03918216929116906126b4565b6040805160028082526060820183526000926020830190803683370190505090508160600151600160a060020a031663313ce5676040518163ffffffff1660e060020a028152600401602060405180830381865afa1580156113ee573d6000803e3d6000fd5b505050506040513d601f19601f820116820180604052508101906114129190613721565b81600081518110611425576114256136c2565b602002602001019060ff16908160ff16815250508160800151600160a060020a031663313ce5676040518163ffffffff1660e060020a028152600401602060405180830381865afa15801561147e573d6000803e3d6000fd5b505050506040513d601f19601f820116820180604052508101906114a29190613721565b816001815181106114b5576114b56136c2565b60ff929092166020928302919091018201526040805160028082526060820183526000939192909183019080368337019050509050826020015181600081518110611502576115026136c2565b602002602001018181525050826040015181600181518110611526576115266136c2565b6020026020010181815250506115718360000151828560a001518660c00151868860e00151426102586115599190613666565b606554600160a060020a031696959493929190612798565b505050565b6706f05b59d3b200008410156115d15760405160e560020a62461bcd02815260206004820152600b60248201527f6d696e4c69715374616b65000000000000000000000000000000000000000000604482015260640161055f565b6040517f2e1a7d4d00000000000000000000000000000000000000000000000000000000815260048101859052600160a060020a03841690632e1a7d4d90602401600060405180830381600087803b15801561162c57600080fd5b505af1158015611640573d6000803e3d6000fd5b505030319150508481116116995760405160e560020a62461bcd02815260206004820152601760248201527f696e73756666696369656e744c69715374616b6542616c000000000000000000604482015260640161055f565b600083600160a060020a031663c2117d826040518163ffffffff1660e060020a028152600401602060405180830381865afa1580156116dc573d6000803e3d6000fd5b505050506040513d601f19601f8201168201806040525081019061170091906135cb565b9050600160a060020a03831663ff0a42de61171b8389613666565b6040518263ffffffff1660e060020a0281526004016000604051808303818588803b15801561174957600080fd5b505af115801561175d573d6000803e3d6000fd5b505060405160e060020a6370a0823102815230600482015260009350600160a060020a03881692506370a082319150602401602060405180830381865afa1580156117ac573d6000803e3d6000fd5b505050506040513d601f19601f820116820180604052508101906117d091906135cb565b90506117e6600160a060020a0386163383611f4a565b50505050505050565b6040517f2337b0b1000000000000000000000000000000000000000000000000000000008152600160a060020a0380841660048301528216602482015260609033906000908290632337b0b190604401602060405180830381865afa15801561185c573d6000803e3d6000fd5b505050506040513d601f19601f820116820180604052508101906118809190613744565b90508061ffff1667ffffffffffffffff81111561189f5761189f612fd2565b6040519080825280602002602001820160405280156118c8578160200160208202803683370190505b50925060005b8161ffff168161ffff1610156119b1576040517f5e835270000000000000000000000000000000000000000000000000000000008152600160a060020a038781166004830152868116602483015261ffff83166044830152841690635e83527090606401602060405180830381865afa15801561194f573d6000803e3d6000fd5b505050506040513d601f19601f8201168201806040525081019061197391906135e4565b848261ffff1681518110611989576119896136c2565b600160a060020a03909216602092830291909101909101526119aa816136db565b90506118ce565b50505092915050565b611a596040518061010001604052806002876119d6919061369d565b81526020016119f18660400151600160a060020a03166123d6565b8152602001611a0c8660600151600160a060020a03166123d6565b81526020018560000151600160a060020a031681526020018560200151600160a060020a031681526020018481526020018560800151815260200130600160a060020a0316815250611366565b825160405160e060020a6370a08231028152306004820152600091600160a060020a0316906370a0823190602401602060405180830381865afa158015611aa4573d6000803e3d6000fd5b505050506040513d601f19601f82011682018060405250810190611ac891906135cb565b602085015160405160e060020a6370a08231028152306004820152919250600091600160a060020a03909116906370a0823190602401602060405180830381865afa158015611b1b573d6000803e3d6000fd5b505050506040513d601f19601f82011682018060405250810190611b3f91906135cb565b90506105cf85600001518660200151848488885b606554611b6d90600160a060020a038881169116866126b4565b606554611b8790600160a060020a038781169116856126b4565b606554600160a060020a031663e8e33700878787876103e8611ba9898461367e565b611bb3919061369d565b6103e8611bc08a8c61367e565b611bca919061369d565b88611bd742610258613666565b60405163ffffffff8a1660e060020a028152600160a060020a039889166004820152968816602488015260448701959095526064860193909352608485019190915260a484015290921660c482015260e4810191909152610104016060604051808303816000875af1158015611c51573d6000803e3d6000fd5b505050506040513d601f19601f82011682018060405250810190610dd09190613761565b600080339050600081600160a060020a0316637ff36fbe6040518163ffffffff1660e060020a028152600401602060405180830381865afa158015611cbe573d6000803e3d6000fd5b505050506040513d601f19601f82011682018060405250810190611ce291906135e4565b9050600082600160a060020a031663b61bb80a6040518163ffffffff1660e060020a028152600401602060405180830381865afa158015611d27573d6000803e3d6000fd5b505050506040513d601f19601f82011682018060405250810190611d4b91906135e4565b60405160e060020a6370a08231028152306004820152909150600090600160a060020a038416906370a0823190602401602060405180830381865afa158015611d98573d6000803e3d6000fd5b505050506040513d601f19601f82011682018060405250810190611dbc91906135cb565b6040805161010081018252828152905160e160020a634ee5a88d028152600160a060020a038681166004830152929350611ed4926020830191611e5591891690639dcb511a906024015b602060405180830381865afa158015611e23573d6000803e3d6000fd5b505050506040513d601f19601f82011682018060405250810190611e4791906135e4565b600160a060020a03166123d6565b815260405160e160020a634ee5a88d028152600160a060020a038681166004830152602090920191611e939190891690639dcb511a90602401611e06565b815260200185600160a060020a0316815260200184600160a060020a03168152602001888152602001611ec686866117ef565b815230602090910152611366565b60405160e060020a6370a08231028152306004820152600160a060020a038316906370a0823190602401602060405180830381865afa158015611f1b573d6000803e3d6000fd5b505050506040513d601f19601f82011682018060405250810190611f3f91906135cb565b979650505050505050565b604051600160a060020a0383166024820152604481018290526115719084907fa9059cbb0000000000000000000000000000000000000000000000000000000090606401611183565b600080600080611fa38787611c75565b90506000611fc08887604001518860200151896101400151612918565b9050600061271087610160015161ffff1684611fdc919061367e565b611fe6919061369d565b9050600061271088610180015161ffff1685612002919061367e565b61200c919061369d565b9050876101a0015115612137576120b5828a6040518061010001604052808c60400151600160a060020a031681526020018c60000151600160a060020a031681526020018c60800151600160a060020a031681526020018c610100015181526020018c610120015181526020018c60e00151600160a060020a031681526020018c60a00151600160a060020a031681526020018c60c00151600160a060020a031681525061295b565b612132818a6040518060c001604052808c60400151600160a060020a031681526020018c60000151600160a060020a031681526020018c60600151600160a060020a031681526020018c610100015181526020018c60e00151600160a060020a031681526020018c60a00151600160a060020a0316815250612be6565b61213e565b8195508094505b808261214a858761364f565b612154919061364f565b61215e919061364f565b96505050505093509350939050565b600080339050600081600160a060020a031663b61bb80a6040518163ffffffff1660e060020a028152600401602060405180830381865afa1580156121b6573d6000803e3d6000fd5b505050506040513d601f19601f820116820180604052508101906121da91906135e4565b9050600082600160a060020a0316637ff36fbe6040518163ffffffff1660e060020a028152600401602060405180830381865afa15801561221f573d6000803e3d6000fd5b505050506040513d601f19601f8201168201806040525081019061224391906135e4565b6040805161010081018252888152905160e160020a634ee5a88d028152600160a060020a03858116600483015292935061230292602083019161229191881690639dcb511a90602401611e06565b815260405160e160020a634ee5a88d028152600160a060020a0385811660048301526020909201916122cf9190881690639dcb511a90602401611e06565b815260200184600160a060020a0316815260200183600160a060020a03168152602001878152602001611ec685856117ef565b60405160e060020a6370a08231028152306004820152600160a060020a038216906370a0823190602401602060405180830381865afa158015612349573d6000803e3d6000fd5b505050506040513d601f19601f8201168201806040525081019061236d91906135cb565b9695505050505050565b60338054600160a060020a0383811673ffffffffffffffffffffffffffffffffffffffff19831681179093556040519116919082907f8be0079c531659141344cd1fd0a4f28419497f9722a3daafe3b4186f6b6457e090600090a35050565b60008082600160a060020a031663313ce5676040518163ffffffff1660e060020a028152600401602060405180830381865afa15801561241a573d6000803e3d6000fd5b505050506040513d601f19601f8201168201806040525081019061243e9190613721565b9050600083600160a060020a031663feaf968c6040518163ffffffff1660e060020a02815260040160a060405180830381865afa158015612483573d6000803e3d6000fd5b505050506040513d601f19601f820116820180604052508101906124a791906137a9565b50505091505060008112156125015760405160e560020a62461bcd02815260206004820152601660248201527f6e656720707269636573206e6f7420616c6c6f77656400000000000000000000604482015260640161055f565b61250c82600a6138e2565b61251b8264e8d4a5100061367e565b612525919061369d565b949350505050565b6000612582826040518060400160405280602081526020017f5361666545524332303a206c6f772d6c6576656c2063616c6c206661696c656481525085600160a060020a0316612c839092919063ffffffff16565b80519091501561157157808060200190518101906125a091906138f1565b6115715760405160e560020a62461bcd02815260206004820152602a60248201527f5361666545524332303a204552433230206f7065726174696f6e20646964206e60448201527f6f74207375636365656400000000000000000000000000000000000000000000606482015260840161055f565b60405160e060020a6370a08231028152600160a060020a03848116600483015260009182918716906370a0823190602401602060405180830381865afa158015612663573d6000803e3d6000fd5b505050506040513d601f19601f8201168201806040525081019061268791906135cb565b9050612695846103e861367e565b836126a0838a61367e565b6126aa919061367e565b611f3f919061369d565b6040517fdd62ed3e000000000000000000000000000000000000000000000000000000008152306004820152600160a060020a038381166024830152600091839186169063dd62ed3e90604401602060405180830381865afa15801561271e573d6000803e3d6000fd5b505050506040513d601f19601f8201168201806040525081019061274291906135cb565b61274c9190613666565b604051600160a060020a0385166024820152604481018290529091506103199085907f095ea7b30000000000000000000000000000000000000000000000000000000090606401611183565b82516002146127ec5760405160e560020a62461bcd02815260206004820152600b60248201527f696e76616c696420646563000000000000000000000000000000000000000000604482015260640161055f565b600086600081518110612801576128016136c2565b602002602001015160001480612831575086600181518110612825576128256136c2565b60200260200101516000145b1561284a576128438989878988612c9c565b905061288e565b61288b8888600081518110612861576128616136c2565b60200260200101518960018151811061287c5761287c6136c2565b60200260200101518988612da3565b90505b6040517f5c11d795000000000000000000000000000000000000000000000000000000008152600160a060020a038a1690635c11d795906128db908b9085908a908990899060040161390e565b600060405180830381600087803b1580156128f557600080fd5b505af1158015612909573d6000803e3d6000fd5b50505050505050505050505050565b600084156125255761ffff8216156125255761271061293b61ffff84168761367e565b612945919061369d565b9050612525600160a060020a0385168483611f4a565b8261296557505050565b600061297d8260a00151600160a060020a03166123d6565b90508160200151600160a060020a03168260000151600160a060020a031614612a2a57612a2a6040518061010001604052806002876129bc919061369d565b81526020018381526020016129dd8560c00151600160a060020a03166123d6565b81526020018460000151600160a060020a031681526020018460200151600160a060020a031681526020018581526020018460600151815260200130600160a060020a0316815250611366565b8160400151600160a060020a03168260000151600160a060020a031614612ad557612ad5604051806101000160405280600287612a67919061369d565b8152602001838152602001612a888560e00151600160a060020a03166123d6565b81526020018460000151600160a060020a031681526020018460400151600160a060020a031681526020018581526020018460800151815260200130600160a060020a0316815250611366565b602082015160405160e060020a6370a08231028152306004820152600091600160a060020a0316906370a0823190602401602060405180830381865afa158015612b23573d6000803e3d6000fd5b505050506040513d601f19601f82011682018060405250810190612b4791906135cb565b604080850151905160e060020a6370a08231028152306004820152919250600091600160a060020a03909116906370a0823190602401602060405180830381865afa158015612b9a573d6000803e3d6000fd5b505050506040513d601f19601f82011682018060405250810190612bbe91906135cb565b602085015160408601516066549293506105cf92859085908a90600160a060020a0316611b53565b821561157157611571604051806101000160405280858152602001612c178460800151600160a060020a03166123d6565b8152602001612c328460a00151600160a060020a03166123d6565b81526020018360000151600160a060020a031681526020018360200151600160a060020a03168152602001848152602001836060015181526020018360400151600160a060020a0316815250611366565b6060612c928484600085612e32565b90505b9392505050565b60008086600160a060020a031663d06ca61f87876040518363ffffffff1660e060020a028152600401612cd092919061394a565b600060405180830381865afa158015612ced573d6000803e3d6000fd5b505050506040513d6000823e601f3d908101601f19168201604052612d159190810190613963565b905082600081518110612d2a57612d2a6136c2565b6020026020010151600a612d3e91906138e2565b612d4a906103e861367e565b83600181518110612d5d57612d5d6136c2565b6020026020010151600a612d7191906138e2565b858360018551612d81919061364f565b81518110612d9157612d916136c2565b60200260200101516126a0919061367e565b600081600081518110612db857612db86136c2565b6020026020010151600a612dcc91906138e2565b612dd8856103e861367e565b612de2919061367e565b82600181518110612df557612df56136c2565b6020026020010151600a612e0991906138e2565b84612e14888a61367e565b612e1e919061367e565b612e28919061367e565b61236d919061369d565b60603031831115612eae5760405160e560020a62461bcd02815260206004820152602660248201527f416464726573733a20696e73756666696369656e742062616c616e636520666f60448201527f722063616c6c0000000000000000000000000000000000000000000000000000606482015260840161055f565b600160a060020a0385163b612f085760405160e560020a62461bcd02815260206004820152601d60248201527f416464726573733a2063616c6c20746f206e6f6e2d636f6e7472616374000000604482015260640161055f565b60008086600160a060020a03168587604051612f249190613a12565b60006040518083038185875af1925050503d8060008114612f61576040519150601f19603f3d011682016040523d82523d6000602084013e612f66565b606091505b5091509150611f3f82828660608315612f80575081612c95565b825115612f905782518084602001fd5b8160405160e560020a62461bcd02815260040161055f9190613a2e565b600160a060020a038116811461034857600080fd5b8035612fcd81612fad565b919050565b60e060020a634e487b7102600052604160045260246000fd5b604051610100810167ffffffffffffffff8111828210171561300f5761300f612fd2565b60405290565b6040516101c0810167ffffffffffffffff8111828210171561300f5761300f612fd2565b604051601f8201601f1916810167ffffffffffffffff8111828210171561306257613062612fd2565b604052919050565b60008060008084860360e081121561308157600080fd5b8535945060208601359350604086013561309a81612fad565b92506080605f19820112156130ae57600080fd5b506040516080810181811067ffffffffffffffff821117156130d2576130d2612fd2565b60405260608601356130e381612fad565b815260808601356130f381612fad565b602082015260a086013561310681612fad565b604082015260c086013561311981612fad565b6060820152939692955090935050565b600067ffffffffffffffff82111561314357613143612fd2565b5060209081020190565b600082601f83011261315e57600080fd5b8135602061317361316e83613129565b613039565b8281529181028401810191818101908684111561318f57600080fd5b8286015b848110156131b35780356131a681612fad565b8352918301918301613193565b509695505050505050565b6000602082840312156131d057600080fd5b813567ffffffffffffffff808211156131e857600080fd5b9083019061010082860312156131fd57600080fd5b613205612feb565b82358152602083013560208201526040830135604082015261322960608401612fc2565b606082015261323a60808401612fc2565b608082015260a083013560a082015260c08301358281111561325b57600080fd5b6132678782860161314d565b60c08301525061327960e08401612fc2565b60e082015295945050505050565b600080600080600060a0868803121561329f57600080fd5b8535945060208601356132b181612fad565b935060408601356132c181612fad565b925060608601356132d181612fad565b949793965091946080013592915050565b6000602082840312156132f457600080fd5b8135612c9581612fad565b60008060008060008060c0878903121561331857600080fd5b863561332381612fad565b9550602087013561333381612fad565b945060408701359350606087013592506080870135915060a087013561335881612fad565b809150509295509295509295565b6000806040838503121561337957600080fd5b50508035926020909101359150565b61ffff8116811461034857600080fd5b8035612fcd81613388565b801515811461034857600080fd5b8035612fcd816133a3565b6000806000606084860312156133d157600080fd5b8335925060208401359150604084013567ffffffffffffffff808211156133f757600080fd5b908501906101c0828803121561340c57600080fd5b613414613015565b61341d83612fc2565b815261342b60208401612fc2565b602082015261343c60408401612fc2565b604082015261344d60608401612fc2565b606082015261345e60808401612fc2565b608082015261346f60a08401612fc2565b60a082015261348060c08401612fc2565b60c082015261349160e08401612fc2565b60e082015261010080840135838111156134aa57600080fd5b6134b68a82870161314d565b82840152505061012080840135838111156134d057600080fd5b6134dc8a82870161314d565b82840152505061014091506134f2828401613398565b828201526101609150613506828401613398565b82820152610180915061351a828401613398565b828201526101a0915061352e8284016133b1565b828201528093505050509250925092565b60006020828403121561355157600080fd5b813567ffffffffffffffff81111561356857600080fd5b6125258482850161314d565b600081518084526020808501945080840160005b838110156135ad578151600160a060020a031687529582019590820190600101613588565b509495945050505050565b602081526000612c956020830184613574565b6000602082840312156135dd57600080fd5b5051919050565b6000602082840312156135f657600080fd5b8151612c9581612fad565b6020808252818101527f4f776e61626c653a2063616c6c6572206973206e6f7420746865206f776e6572604082015260600190565b60e060020a634e487b7102600052601160045260246000fd5b60008282101561366157613661613636565b500390565b6000821982111561367957613679613636565b500190565b600081600019048311821515161561369857613698613636565b500290565b6000826136bd5760e060020a634e487b7102600052601260045260246000fd5b500490565b60e060020a634e487b7102600052603260045260246000fd5b600061ffff808316818114156136f3576136f3613636565b6001019392505050565b6000806040838503121561371057600080fd5b505080516020909101519092909150565b60006020828403121561373357600080fd5b815160ff81168114612c9557600080fd5b60006020828403121561375657600080fd5b8151612c9581613388565b60008060006060848603121561377657600080fd5b8351925060208401519150604084015190509250925092565b805169ffffffffffffffffffff81168114612fcd57600080fd5b600080600080600060a086880312156137c157600080fd5b6137ca8661378f565b94506020860151935060408601519250606086015191506137ed6080870161378f565b90509295509295909350565b600181815b8085111561383657816000190482111561381a5761381a613636565b8085161561382757918102915b600290940493908002906137fe565b509250929050565b60008261384d575060016138dc565b8161385a575060006138dc565b8160018114613870576002811461387a57613897565b60019150506138dc565b60ff84111561388b5761388b613636565b8360020a9150506138dc565b5060208310610133831016604e8410600b84101617156138ba575081810a6138dc565b6138c483836137f9565b80600019048211156138d8576138d8613636565b0290505b92915050565b6000612c9560ff84168361383e565b60006020828403121561390357600080fd5b8151612c95816133a3565b85815284602082015260a06040820152600061392d60a0830186613574565b600160a060020a0394909416606083015250608001529392505050565b828152604060208201526000612c926040830184613574565b6000602080838503121561397657600080fd5b825167ffffffffffffffff81111561398d57600080fd5b8301601f8101851361399e57600080fd5b80516139ac61316e82613129565b818152908302820183019083810190878311156139c857600080fd5b928401925b82841015611f3f578351825292840192908401906139cd565b60005b83811015613a015781810151838201526020016139e9565b838111156103195750506000910152565b60008251613a248184602087016139e6565b9190910192915050565b6020815260008251806020840152613a4d8160408501602087016139e6565b601f01601f1916919091016040019291505056fea2646970667358221220b6711f0023ad16bbb06d667e4cebbe515d01770afe7a107502636df08607c7ed64736f6c634300080a0033",
  "immutableReferences": {},
  "source": "// SPDX-License-Identifier: MIT\n\npragma solidity ^0.8.0;\n\nimport \"@openzeppelin/contracts-upgradeable/token/ERC20/utils/SafeERC20Upgradeable.sol\";\n\nimport \"../../interfaces/Ankr/IBinancePool_R1.sol\";\n\nimport \"../../interfaces/IWETH.sol\";\n\nimport \"../../libraries/SafeSwap.sol\";\n\nimport \"./_VaultActionsLiqStakeLP.sol\";\n\ncontract VaultActionsAnkrLiqStakeLP is VaultActionsLiqStakeLP {\n    /* Libraries */\n\n    using PriceFeed for AggregatorV3Interface;\n    using SafeERC20Upgradeable for IERC20Upgradeable;\n\n    /* Functions */\n\n    /// @notice Deposits liquid stake on protocol\n    /// @param _amount The amount of ETH to liquid stake\n    /// @param _token0 The base (underlying) token to supply\n    /// @param _liqStakeToken The liquid staking synthetic token returned after staking the underlying\n    /// @param _liqStakePool The liquid staking pool address\n    function _liquidStake(\n        uint256 _amount,\n        address _token0,\n        address _liqStakeToken,\n        address _liqStakePool\n    ) internal override {\n        // Preflight checks\n        require(_amount >= 0.5 ether, \"minLiqStake\");\n\n        // Unwrap ETH\n        IWETH(_token0).withdraw(_amount);\n\n        // Get native ETH balance\n        uint256 _bal = address(this).balance;\n\n        // Require balance to be > amount\n        require(_bal > _amount, \"insufficientLiqStakeBal\");\n\n        // Get relayer fee\n        uint256 _relayerFee = IBinancePool_R1(_liqStakeToken).getRelayerFee();\n\n        // Call deposit func\n        IBinancePool_R1(_liqStakePool).stakeAndClaimCerts{\n            value: _amount + _relayerFee\n        }();\n\n        // Calc balance of liquid staking token\n        uint256 _balLiqToken = IERC20Upgradeable(_liqStakeToken).balanceOf(\n            address(this)\n        );\n\n        // Transfer synth token to sender\n        IERC20Upgradeable(_liqStakeToken).safeTransfer(\n            msg.sender,\n            _balLiqToken\n        );\n    }\n\n    /// @notice Withdraws liquid stake on protocol\n    /// @param _swapParams The SafeSwapParams object with swap information\n    function _liquidUnstake(SafeSwapUni.SafeSwapParams memory _swapParams)\n        internal\n        override\n    {\n        // Transfer amount IN\n        IERC20Upgradeable(_swapParams.token0).safeTransferFrom(\n            msg.sender,\n            address(this),\n            _swapParams.amountIn\n        );\n\n        // Swap sETH to WETH\n        _safeSwap(_swapParams);\n    }\n}\n",
  "sourcePath": "/Users/kristophm/Documents/workspace/zorro-protocol/contracts/vaults/actions/VaultActionsAnkrLiqStakeLP.sol",
  "compiler": {
    "name": "solc",
    "version": "0.8.10+commit.fc410830.Emscripten.clang"
  },
  "schemaVersion": "3.4.10",
  "updatedAt": "2022-12-15T02:09:56.231Z",
  "devdoc": {
    "kind": "dev",
    "methods": {
      "currentWantEquity(address)": {
        "params": {
          "_vaultAddr": "The vault address"
        },
        "returns": {
          "positionVal": "Position value, in units of Want token"
        }
      },
      "distributeAndReinvestEarnings(uint256,uint256,(address,address,address,address,address,address,address,address,address[],address[],uint16,uint16,uint16,bool))": {
        "details": "To be run by Vault's earn() func after earnings have been unfarmed",
        "params": {
          "_amount": "Amount of Want token to distribute",
          "_maxMarketMovementAllowed": "Slippage (990 = 1%)",
          "_params": "A DistributeEarningsParams struct"
        },
        "returns": {
          "wantRemaining": "Remaining Want token after distribution (will be sent back to sender)",
          "xChainBuybackAmt": "Amount of Want token reserved for cross chain buyback, if applicable",
          "xChainRevShareAmt": "Amount of Want token reserved for cross chain revshare, if applicable"
        }
      },
      "exchangeUSDForWantToken(uint256,uint256)": {
        "params": {
          "_amountUSD": "The USD quantity to exchange (must already be deposited)",
          "_maxMarketMovementAllowed": "The max slippage allowed. 1000 = 0 %, 995 = 0.5%, etc."
        },
        "returns": {
          "wantObtained": "Amount of Want token obtained and transferred to sender"
        }
      },
      "exchangeWantTokenForUSD(uint256,uint256)": {
        "params": {
          "_amount": "The Want token quantity to exchange (must be deposited beforehand)",
          "_maxMarketMovementAllowed": "The max slippage allowed for swaps. 1000 = 0 %, 995 = 0.5%, etc."
        },
        "returns": {
          "usdObtained": "Amount of USD token obtained and transferred to sender"
        }
      },
      "exitPool(uint256,uint256,address,(address,address,address,address))": {
        "details": "NOTE: Requires caller to approve want token spending",
        "params": {
          "_amountLP": "The amount of LP (Want) tokens to remove",
          "_maxMarketMovementAllowed": "The max slippage allowed for swaps. 1000 = 0 %, 995 = 0.5%, etc.",
          "_recipient": "The recipient of the underlying tokens at pool exit"
        }
      },
      "initialize(address)": {
        "params": {
          "_uniRouterAddress": "Address of Uniswap style router"
        }
      },
      "joinPool(address,address,uint256,uint256,uint256,address)": {
        "details": "NOTE: Requires spending approval by caller",
        "params": {
          "_maxMarketMovementAllowed": "The max slippage allowed for swaps. 1000 = 0 %, 995 = 0.5%, etc.",
          "_recipient": "The recipient of the LP token",
          "_token0": "The address of Token0",
          "_token0Amt": "Quantity of Token0 to add",
          "_token1": "The address of Token1",
          "_token1Amt": "Quantity of Token1 to add"
        }
      },
      "liquidStakeAndAddLiq(uint256,address,address,address,uint256)": {
        "params": {
          "_amount": "Amount of ETH to liquid stake",
          "_liqStakePool": "pool address for liquid staking",
          "_liqStakeToken": "sETH address",
          "_maxMarketMovementAllowed": "Slippage parameter (990 = 1%)",
          "_nativeToken": "ETH address"
        }
      },
      "owner()": {
        "details": "Returns the address of the current owner."
      },
      "removeLiqAndliquidUnstake(uint256,address,address,address,uint256)": {
        "params": {
          "_amount": "The amount of sETH-ETH LP token to remove liquidity with",
          "_liquidStakeToken": "Address of sETH",
          "_lpToken": "Address of sETH-ETH LP Pool",
          "_maxMarketMovementAllowed": "Slippage factor (990 = 1%)",
          "_nativeToken": "Address of ETH"
        }
      },
      "renounceOwnership()": {
        "details": "Leaves the contract without owner. It will not be possible to call `onlyOwner` functions anymore. Can only be called by the current owner. NOTE: Renouncing ownership will leave the contract without an owner, thereby removing any functionality that is only available to the owner."
      },
      "reversePath(address[])": {
        "params": {
          "_path": "The swap path to be reversed"
        },
        "returns": {
          "newPath": "An reversed path array"
        }
      },
      "safeSwap((uint256,uint256,uint256,address,address,uint256,address[],address))": {
        "details": "NOTE: Caller must approve tokens for spending beforehand",
        "params": {
          "_swapParams": "SafeSwapParams for swap"
        }
      },
      "transferOwnership(address)": {
        "details": "Transfers ownership of the contract to a new account (`newOwner`). Can only be called by the current owner."
      },
      "unrealizedProfits(address)": {
        "params": {
          "_vault": "The vault address"
        },
        "returns": {
          "accumulatedProfit": "Amount of unrealized profit accumulated on the vault (not accounting for past harvests)",
          "harvestableProfit": "Amount of immediately harvestable profits"
        }
      }
    },
    "version": 1
  },
  "userdoc": {
    "kind": "user",
    "methods": {
      "currentWantEquity(address)": {
        "notice": "Measures the current (unrealized) position value (measured in Want token) of the provided vault"
      },
      "distributeAndReinvestEarnings(uint256,uint256,(address,address,address,address,address,address,address,address,address[],address[],uint16,uint16,uint16,bool))": {
        "notice": "Distributes earnings (in the form of Want token) and reinvests remainder into Want token"
      },
      "exchangeUSDForWantToken(uint256,uint256)": {
        "notice": "Performs necessary operations to convert USD into Want token"
      },
      "exchangeWantTokenForUSD(uint256,uint256)": {
        "notice": "Converts Want token back into USD to be ready for withdrawal and transfers to sender"
      },
      "exitPool(uint256,uint256,address,(address,address,address,address))": {
        "notice": "Removes liquidity from a pool and sends tokens back to this address"
      },
      "initialize(address)": {
        "notice": "Constructor"
      },
      "joinPool(address,address,uint256,uint256,uint256,address)": {
        "notice": "Adds liquidity to the pool of this contract"
      },
      "liquidStakeAndAddLiq(uint256,address,address,address,uint256)": {
        "notice": "Liquid stakes ETH and adds liquidity to sETH-ETH pool, sending back LP token to sender"
      },
      "removeLiqAndliquidUnstake(uint256,address,address,address,uint256)": {
        "notice": "Removes liquidity from sETH-ETH pool, and exchanges sETH for ETH, back to sender"
      },
      "reversePath(address[])": {
        "notice": "Gets the swap path in the opposite direction of a trade"
      },
      "safeSwap((uint256,uint256,uint256,address,address,uint256,address[],address))": {
        "notice": "Safely swaps tokens using the most suitable protocol based on token"
      },
      "unrealizedProfits(address)": {
        "notice": "Calculates accumulated unrealized profits on a vault"
      }
    },
    "version": 1
  }
}