{
  "contractName": "VaultZorro",
  "abi": [
    {
      "inputs": [
        {
          "internalType": "address[]",
          "name": "_addresses",
          "type": "address[]"
        },
        {
          "internalType": "uint256",
          "name": "_pid",
          "type": "uint256"
        },
        {
          "internalType": "uint256[]",
          "name": "_fees",
          "type": "uint256[]"
        },
        {
          "internalType": "address[]",
          "name": "_token0ToUSDCPath",
          "type": "address[]"
        },
        {
          "internalType": "address[]",
          "name": "_USDCToToken0Path",
          "type": "address[]"
        }
      ],
      "stateMutability": "nonpayable",
      "type": "constructor"
    },
    {
      "anonymous": false,
      "inputs": [
        {
          "indexed": true,
          "internalType": "address",
          "name": "previousOwner",
          "type": "address"
        },
        {
          "indexed": true,
          "internalType": "address",
          "name": "newOwner",
          "type": "address"
        }
      ],
      "name": "OwnershipTransferred",
      "type": "event"
    },
    {
      "anonymous": false,
      "inputs": [
        {
          "indexed": false,
          "internalType": "address",
          "name": "account",
          "type": "address"
        }
      ],
      "name": "Paused",
      "type": "event"
    },
    {
      "anonymous": false,
      "inputs": [
        {
          "indexed": false,
          "internalType": "address",
          "name": "_govAddress",
          "type": "address"
        }
      ],
      "name": "SetGov",
      "type": "event"
    },
    {
      "anonymous": false,
      "inputs": [
        {
          "indexed": false,
          "internalType": "bool",
          "name": "_onlyGov",
          "type": "bool"
        }
      ],
      "name": "SetOnlyGov",
      "type": "event"
    },
    {
      "anonymous": false,
      "inputs": [
        {
          "indexed": false,
          "internalType": "address",
          "name": "_rewardsAddress",
          "type": "address"
        }
      ],
      "name": "SetRewardsAddress",
      "type": "event"
    },
    {
      "anonymous": false,
      "inputs": [
        {
          "indexed": false,
          "internalType": "uint256",
          "name": "_entranceFeeFactor",
          "type": "uint256"
        },
        {
          "indexed": false,
          "internalType": "uint256",
          "name": "_withdrawFeeFactor",
          "type": "uint256"
        },
        {
          "indexed": false,
          "internalType": "uint256",
          "name": "_controllerFee",
          "type": "uint256"
        },
        {
          "indexed": false,
          "internalType": "uint256",
          "name": "_buyBackRate",
          "type": "uint256"
        },
        {
          "indexed": false,
          "internalType": "uint256",
          "name": "_slippageFactor",
          "type": "uint256"
        }
      ],
      "name": "SetSettings",
      "type": "event"
    },
    {
      "anonymous": false,
      "inputs": [
        {
          "indexed": false,
          "internalType": "address",
          "name": "_uniRouterAddress",
          "type": "address"
        }
      ],
      "name": "SetUniRouterAddress",
      "type": "event"
    },
    {
      "anonymous": false,
      "inputs": [
        {
          "indexed": false,
          "internalType": "address",
          "name": "account",
          "type": "address"
        }
      ],
      "name": "Unpaused",
      "type": "event"
    },
    {
      "inputs": [
        {
          "internalType": "uint256",
          "name": "",
          "type": "uint256"
        }
      ],
      "name": "USDCToToken0Path",
      "outputs": [
        {
          "internalType": "address",
          "name": "",
          "type": "address"
        }
      ],
      "stateMutability": "view",
      "type": "function"
    },
    {
      "inputs": [
        {
          "internalType": "uint256",
          "name": "",
          "type": "uint256"
        }
      ],
      "name": "USDCToToken1Path",
      "outputs": [
        {
          "internalType": "address",
          "name": "",
          "type": "address"
        }
      ],
      "stateMutability": "view",
      "type": "function"
    },
    {
      "inputs": [
        {
          "internalType": "uint256",
          "name": "",
          "type": "uint256"
        }
      ],
      "name": "USDCToWantPath",
      "outputs": [
        {
          "internalType": "address",
          "name": "",
          "type": "address"
        }
      ],
      "stateMutability": "view",
      "type": "function"
    },
    {
      "inputs": [
        {
          "internalType": "uint256",
          "name": "",
          "type": "uint256"
        }
      ],
      "name": "WantToUSDCPath",
      "outputs": [
        {
          "internalType": "address",
          "name": "",
          "type": "address"
        }
      ],
      "stateMutability": "view",
      "type": "function"
    },
    {
      "inputs": [],
      "name": "ZORROAddress",
      "outputs": [
        {
          "internalType": "address",
          "name": "",
          "type": "address"
        }
      ],
      "stateMutability": "view",
      "type": "function"
    },
    {
      "inputs": [],
      "name": "burnAddress",
      "outputs": [
        {
          "internalType": "address",
          "name": "",
          "type": "address"
        }
      ],
      "stateMutability": "view",
      "type": "function"
    },
    {
      "inputs": [],
      "name": "buyBackRate",
      "outputs": [
        {
          "internalType": "uint256",
          "name": "",
          "type": "uint256"
        }
      ],
      "stateMutability": "view",
      "type": "function"
    },
    {
      "inputs": [],
      "name": "buyBackRateMax",
      "outputs": [
        {
          "internalType": "uint256",
          "name": "",
          "type": "uint256"
        }
      ],
      "stateMutability": "view",
      "type": "function"
    },
    {
      "inputs": [],
      "name": "buyBackRateUL",
      "outputs": [
        {
          "internalType": "uint256",
          "name": "",
          "type": "uint256"
        }
      ],
      "stateMutability": "view",
      "type": "function"
    },
    {
      "inputs": [],
      "name": "controllerFee",
      "outputs": [
        {
          "internalType": "uint256",
          "name": "",
          "type": "uint256"
        }
      ],
      "stateMutability": "view",
      "type": "function"
    },
    {
      "inputs": [],
      "name": "controllerFeeMax",
      "outputs": [
        {
          "internalType": "uint256",
          "name": "",
          "type": "uint256"
        }
      ],
      "stateMutability": "view",
      "type": "function"
    },
    {
      "inputs": [],
      "name": "controllerFeeUL",
      "outputs": [
        {
          "internalType": "uint256",
          "name": "",
          "type": "uint256"
        }
      ],
      "stateMutability": "view",
      "type": "function"
    },
    {
      "inputs": [],
      "name": "convertDustToEarned",
      "outputs": [],
      "stateMutability": "nonpayable",
      "type": "function"
    },
    {
      "inputs": [],
      "name": "earnedAddress",
      "outputs": [
        {
          "internalType": "address",
          "name": "",
          "type": "address"
        }
      ],
      "stateMutability": "view",
      "type": "function"
    },
    {
      "inputs": [
        {
          "internalType": "uint256",
          "name": "",
          "type": "uint256"
        }
      ],
      "name": "earnedToToken0Path",
      "outputs": [
        {
          "internalType": "address",
          "name": "",
          "type": "address"
        }
      ],
      "stateMutability": "view",
      "type": "function"
    },
    {
      "inputs": [
        {
          "internalType": "uint256",
          "name": "",
          "type": "uint256"
        }
      ],
      "name": "earnedToToken1Path",
      "outputs": [
        {
          "internalType": "address",
          "name": "",
          "type": "address"
        }
      ],
      "stateMutability": "view",
      "type": "function"
    },
    {
      "inputs": [
        {
          "internalType": "uint256",
          "name": "",
          "type": "uint256"
        }
      ],
      "name": "earnedToZORLPPoolToken0Path",
      "outputs": [
        {
          "internalType": "address",
          "name": "",
          "type": "address"
        }
      ],
      "stateMutability": "view",
      "type": "function"
    },
    {
      "inputs": [
        {
          "internalType": "uint256",
          "name": "",
          "type": "uint256"
        }
      ],
      "name": "earnedToZORLPPoolToken1Path",
      "outputs": [
        {
          "internalType": "address",
          "name": "",
          "type": "address"
        }
      ],
      "stateMutability": "view",
      "type": "function"
    },
    {
      "inputs": [
        {
          "internalType": "uint256",
          "name": "",
          "type": "uint256"
        }
      ],
      "name": "earnedToZORROPath",
      "outputs": [
        {
          "internalType": "address",
          "name": "",
          "type": "address"
        }
      ],
      "stateMutability": "view",
      "type": "function"
    },
    {
      "inputs": [],
      "name": "entranceFeeFactor",
      "outputs": [
        {
          "internalType": "uint256",
          "name": "",
          "type": "uint256"
        }
      ],
      "stateMutability": "view",
      "type": "function"
    },
    {
      "inputs": [],
      "name": "entranceFeeFactorLL",
      "outputs": [
        {
          "internalType": "uint256",
          "name": "",
          "type": "uint256"
        }
      ],
      "stateMutability": "view",
      "type": "function"
    },
    {
      "inputs": [],
      "name": "entranceFeeFactorMax",
      "outputs": [
        {
          "internalType": "uint256",
          "name": "",
          "type": "uint256"
        }
      ],
      "stateMutability": "view",
      "type": "function"
    },
    {
      "inputs": [],
      "name": "farmContractAddress",
      "outputs": [
        {
          "internalType": "address",
          "name": "",
          "type": "address"
        }
      ],
      "stateMutability": "view",
      "type": "function"
    },
    {
      "inputs": [],
      "name": "govAddress",
      "outputs": [
        {
          "internalType": "address",
          "name": "",
          "type": "address"
        }
      ],
      "stateMutability": "view",
      "type": "function"
    },
    {
      "inputs": [
        {
          "internalType": "address",
          "name": "_token",
          "type": "address"
        },
        {
          "internalType": "uint256",
          "name": "_amount",
          "type": "uint256"
        },
        {
          "internalType": "address",
          "name": "_to",
          "type": "address"
        }
      ],
      "name": "inCaseTokensGetStuck",
      "outputs": [],
      "stateMutability": "nonpayable",
      "type": "function"
    },
    {
      "inputs": [],
      "name": "isCOREStaking",
      "outputs": [
        {
          "internalType": "bool",
          "name": "",
          "type": "bool"
        }
      ],
      "stateMutability": "view",
      "type": "function"
    },
    {
      "inputs": [],
      "name": "isSingleAssetDeposit",
      "outputs": [
        {
          "internalType": "bool",
          "name": "",
          "type": "bool"
        }
      ],
      "stateMutability": "view",
      "type": "function"
    },
    {
      "inputs": [],
      "name": "isZorroComp",
      "outputs": [
        {
          "internalType": "bool",
          "name": "",
          "type": "bool"
        }
      ],
      "stateMutability": "view",
      "type": "function"
    },
    {
      "inputs": [],
      "name": "lastEarnBlock",
      "outputs": [
        {
          "internalType": "uint256",
          "name": "",
          "type": "uint256"
        }
      ],
      "stateMutability": "view",
      "type": "function"
    },
    {
      "inputs": [
        {
          "internalType": "uint256",
          "name": "",
          "type": "uint256"
        }
      ],
      "name": "lockedXChainEarningsUSDC",
      "outputs": [
        {
          "internalType": "uint256",
          "name": "",
          "type": "uint256"
        }
      ],
      "stateMutability": "view",
      "type": "function"
    },
    {
      "inputs": [],
      "name": "onlyGov",
      "outputs": [
        {
          "internalType": "bool",
          "name": "",
          "type": "bool"
        }
      ],
      "stateMutability": "view",
      "type": "function"
    },
    {
      "inputs": [],
      "name": "owner",
      "outputs": [
        {
          "internalType": "address",
          "name": "",
          "type": "address"
        }
      ],
      "stateMutability": "view",
      "type": "function"
    },
    {
      "inputs": [],
      "name": "pause",
      "outputs": [],
      "stateMutability": "nonpayable",
      "type": "function"
    },
    {
      "inputs": [],
      "name": "paused",
      "outputs": [
        {
          "internalType": "bool",
          "name": "",
          "type": "bool"
        }
      ],
      "stateMutability": "view",
      "type": "function"
    },
    {
      "inputs": [],
      "name": "pid",
      "outputs": [
        {
          "internalType": "uint256",
          "name": "",
          "type": "uint256"
        }
      ],
      "stateMutability": "view",
      "type": "function"
    },
    {
      "inputs": [],
      "name": "poolAddress",
      "outputs": [
        {
          "internalType": "address",
          "name": "",
          "type": "address"
        }
      ],
      "stateMutability": "view",
      "type": "function"
    },
    {
      "inputs": [],
      "name": "renounceOwnership",
      "outputs": [],
      "stateMutability": "nonpayable",
      "type": "function"
    },
    {
      "inputs": [],
      "name": "revShareRate",
      "outputs": [
        {
          "internalType": "uint256",
          "name": "",
          "type": "uint256"
        }
      ],
      "stateMutability": "view",
      "type": "function"
    },
    {
      "inputs": [],
      "name": "revShareRateMax",
      "outputs": [
        {
          "internalType": "uint256",
          "name": "",
          "type": "uint256"
        }
      ],
      "stateMutability": "view",
      "type": "function"
    },
    {
      "inputs": [],
      "name": "revShareRateUL",
      "outputs": [
        {
          "internalType": "uint256",
          "name": "",
          "type": "uint256"
        }
      ],
      "stateMutability": "view",
      "type": "function"
    },
    {
      "inputs": [],
      "name": "rewardsAddress",
      "outputs": [
        {
          "internalType": "address",
          "name": "",
          "type": "address"
        }
      ],
      "stateMutability": "view",
      "type": "function"
    },
    {
      "inputs": [
        {
          "internalType": "address",
          "name": "_earnedAddress",
          "type": "address"
        }
      ],
      "name": "setEarnedAddress",
      "outputs": [],
      "stateMutability": "nonpayable",
      "type": "function"
    },
    {
      "inputs": [
        {
          "internalType": "address",
          "name": "_farmContractAddress",
          "type": "address"
        }
      ],
      "name": "setFarmContractAddress",
      "outputs": [],
      "stateMutability": "nonpayable",
      "type": "function"
    },
    {
      "inputs": [
        {
          "internalType": "uint256",
          "name": "_entranceFeeFactor",
          "type": "uint256"
        },
        {
          "internalType": "uint256",
          "name": "_withdrawFeeFactor",
          "type": "uint256"
        },
        {
          "internalType": "uint256",
          "name": "_controllerFee",
          "type": "uint256"
        },
        {
          "internalType": "uint256",
          "name": "_buyBackRate",
          "type": "uint256"
        },
        {
          "internalType": "uint256",
          "name": "_slippageFactor",
          "type": "uint256"
        }
      ],
      "name": "setFeeSettings",
      "outputs": [],
      "stateMutability": "nonpayable",
      "type": "function"
    },
    {
      "inputs": [
        {
          "internalType": "address",
          "name": "_govAddress",
          "type": "address"
        }
      ],
      "name": "setGov",
      "outputs": [],
      "stateMutability": "nonpayable",
      "type": "function"
    },
    {
      "inputs": [
        {
          "internalType": "bool",
          "name": "_isCOREStaking",
          "type": "bool"
        }
      ],
      "name": "setIsCOREStaking",
      "outputs": [],
      "stateMutability": "nonpayable",
      "type": "function"
    },
    {
      "inputs": [
        {
          "internalType": "bool",
          "name": "_isSingleAssetDeposit",
          "type": "bool"
        }
      ],
      "name": "setIsSingleAssetDeposit",
      "outputs": [],
      "stateMutability": "nonpayable",
      "type": "function"
    },
    {
      "inputs": [
        {
          "internalType": "bool",
          "name": "_isZorroComp",
          "type": "bool"
        }
      ],
      "name": "setIsZorroComp",
      "outputs": [],
      "stateMutability": "nonpayable",
      "type": "function"
    },
    {
      "inputs": [
        {
          "internalType": "bool",
          "name": "_onlyGov",
          "type": "bool"
        }
      ],
      "name": "setOnlyGov",
      "outputs": [],
      "stateMutability": "nonpayable",
      "type": "function"
    },
    {
      "inputs": [
        {
          "internalType": "uint256",
          "name": "_pid",
          "type": "uint256"
        }
      ],
      "name": "setPid",
      "outputs": [],
      "stateMutability": "nonpayable",
      "type": "function"
    },
    {
      "inputs": [
        {
          "internalType": "address",
          "name": "_poolAddress",
          "type": "address"
        }
      ],
      "name": "setPoolAddress",
      "outputs": [],
      "stateMutability": "nonpayable",
      "type": "function"
    },
    {
      "inputs": [
        {
          "internalType": "address",
          "name": "_rewardsAddress",
          "type": "address"
        }
      ],
      "name": "setRewardsAddress",
      "outputs": [],
      "stateMutability": "nonpayable",
      "type": "function"
    },
    {
      "inputs": [
        {
          "internalType": "address",
          "name": "_token0Address",
          "type": "address"
        }
      ],
      "name": "setToken0Address",
      "outputs": [],
      "stateMutability": "nonpayable",
      "type": "function"
    },
    {
      "inputs": [
        {
          "internalType": "address",
          "name": "_token1Address",
          "type": "address"
        }
      ],
      "name": "setToken1Address",
      "outputs": [],
      "stateMutability": "nonpayable",
      "type": "function"
    },
    {
      "inputs": [
        {
          "internalType": "address",
          "name": "_tokenUSDCAddress",
          "type": "address"
        }
      ],
      "name": "setTokenUSDCAddress",
      "outputs": [],
      "stateMutability": "nonpayable",
      "type": "function"
    },
    {
      "inputs": [
        {
          "internalType": "address",
          "name": "_uniRouterAddress",
          "type": "address"
        }
      ],
      "name": "setUniRouterAddress",
      "outputs": [],
      "stateMutability": "nonpayable",
      "type": "function"
    },
    {
      "inputs": [
        {
          "internalType": "address",
          "name": "_ZORROAddress",
          "type": "address"
        }
      ],
      "name": "setZORROAddress",
      "outputs": [],
      "stateMutability": "nonpayable",
      "type": "function"
    },
    {
      "inputs": [
        {
          "internalType": "address",
          "name": "_zorroControllerAddress",
          "type": "address"
        }
      ],
      "name": "setZorroControllerAddress",
      "outputs": [],
      "stateMutability": "nonpayable",
      "type": "function"
    },
    {
      "inputs": [],
      "name": "sharesTotal",
      "outputs": [
        {
          "internalType": "uint256",
          "name": "",
          "type": "uint256"
        }
      ],
      "stateMutability": "view",
      "type": "function"
    },
    {
      "inputs": [],
      "name": "slippageFactor",
      "outputs": [
        {
          "internalType": "uint256",
          "name": "",
          "type": "uint256"
        }
      ],
      "stateMutability": "view",
      "type": "function"
    },
    {
      "inputs": [],
      "name": "slippageFactorUL",
      "outputs": [
        {
          "internalType": "uint256",
          "name": "",
          "type": "uint256"
        }
      ],
      "stateMutability": "view",
      "type": "function"
    },
    {
      "inputs": [],
      "name": "token0Address",
      "outputs": [
        {
          "internalType": "address",
          "name": "",
          "type": "address"
        }
      ],
      "stateMutability": "view",
      "type": "function"
    },
    {
      "inputs": [
        {
          "internalType": "uint256",
          "name": "",
          "type": "uint256"
        }
      ],
      "name": "token0ToEarnedPath",
      "outputs": [
        {
          "internalType": "address",
          "name": "",
          "type": "address"
        }
      ],
      "stateMutability": "view",
      "type": "function"
    },
    {
      "inputs": [
        {
          "internalType": "uint256",
          "name": "",
          "type": "uint256"
        }
      ],
      "name": "token0ToUSDCPath",
      "outputs": [
        {
          "internalType": "address",
          "name": "",
          "type": "address"
        }
      ],
      "stateMutability": "view",
      "type": "function"
    },
    {
      "inputs": [],
      "name": "token1Address",
      "outputs": [
        {
          "internalType": "address",
          "name": "",
          "type": "address"
        }
      ],
      "stateMutability": "view",
      "type": "function"
    },
    {
      "inputs": [
        {
          "internalType": "uint256",
          "name": "",
          "type": "uint256"
        }
      ],
      "name": "token1ToEarnedPath",
      "outputs": [
        {
          "internalType": "address",
          "name": "",
          "type": "address"
        }
      ],
      "stateMutability": "view",
      "type": "function"
    },
    {
      "inputs": [
        {
          "internalType": "uint256",
          "name": "",
          "type": "uint256"
        }
      ],
      "name": "token1ToUSDCPath",
      "outputs": [
        {
          "internalType": "address",
          "name": "",
          "type": "address"
        }
      ],
      "stateMutability": "view",
      "type": "function"
    },
    {
      "inputs": [],
      "name": "tokenUSDCAddress",
      "outputs": [
        {
          "internalType": "address",
          "name": "",
          "type": "address"
        }
      ],
      "stateMutability": "view",
      "type": "function"
    },
    {
      "inputs": [
        {
          "internalType": "address",
          "name": "newOwner",
          "type": "address"
        }
      ],
      "name": "transferOwnership",
      "outputs": [],
      "stateMutability": "nonpayable",
      "type": "function"
    },
    {
      "inputs": [],
      "name": "uniRouterAddress",
      "outputs": [
        {
          "internalType": "address",
          "name": "",
          "type": "address"
        }
      ],
      "stateMutability": "view",
      "type": "function"
    },
    {
      "inputs": [],
      "name": "unpause",
      "outputs": [],
      "stateMutability": "nonpayable",
      "type": "function"
    },
    {
      "inputs": [
        {
          "internalType": "address",
          "name": "",
          "type": "address"
        }
      ],
      "name": "userShares",
      "outputs": [
        {
          "internalType": "uint256",
          "name": "",
          "type": "uint256"
        }
      ],
      "stateMutability": "view",
      "type": "function"
    },
    {
      "inputs": [],
      "name": "wantAddress",
      "outputs": [
        {
          "internalType": "address",
          "name": "",
          "type": "address"
        }
      ],
      "stateMutability": "view",
      "type": "function"
    },
    {
      "inputs": [],
      "name": "wantLockedTotal",
      "outputs": [
        {
          "internalType": "uint256",
          "name": "",
          "type": "uint256"
        }
      ],
      "stateMutability": "view",
      "type": "function"
    },
    {
      "inputs": [],
      "name": "withdrawFeeFactor",
      "outputs": [
        {
          "internalType": "uint256",
          "name": "",
          "type": "uint256"
        }
      ],
      "stateMutability": "view",
      "type": "function"
    },
    {
      "inputs": [],
      "name": "withdrawFeeFactorLL",
      "outputs": [
        {
          "internalType": "uint256",
          "name": "",
          "type": "uint256"
        }
      ],
      "stateMutability": "view",
      "type": "function"
    },
    {
      "inputs": [],
      "name": "withdrawFeeFactorMax",
      "outputs": [
        {
          "internalType": "uint256",
          "name": "",
          "type": "uint256"
        }
      ],
      "stateMutability": "view",
      "type": "function"
    },
    {
      "inputs": [],
      "name": "xChainEarningsLockEndBlock",
      "outputs": [
        {
          "internalType": "uint256",
          "name": "",
          "type": "uint256"
        }
      ],
      "stateMutability": "view",
      "type": "function"
    },
    {
      "inputs": [],
      "name": "xChainEarningsLockStartBlock",
      "outputs": [
        {
          "internalType": "uint256",
          "name": "",
          "type": "uint256"
        }
      ],
      "stateMutability": "view",
      "type": "function"
    },
    {
      "inputs": [],
      "name": "zorroControllerAddress",
      "outputs": [
        {
          "internalType": "address",
          "name": "",
          "type": "address"
        }
      ],
      "stateMutability": "view",
      "type": "function"
    },
    {
      "inputs": [
        {
          "internalType": "address",
          "name": "_account",
          "type": "address"
        },
        {
          "internalType": "uint256",
          "name": "_wantAmt",
          "type": "uint256"
        }
      ],
      "name": "depositWantToken",
      "outputs": [
        {
          "internalType": "uint256",
          "name": "",
          "type": "uint256"
        }
      ],
      "stateMutability": "nonpayable",
      "type": "function"
    },
    {
      "inputs": [
        {
          "internalType": "uint256",
          "name": "_amountUSDC",
          "type": "uint256"
        },
        {
          "internalType": "uint256",
          "name": "_maxMarketMovementAllowed",
          "type": "uint256"
        }
      ],
      "name": "exchangeUSDForWantToken",
      "outputs": [
        {
          "internalType": "uint256",
          "name": "",
          "type": "uint256"
        }
      ],
      "stateMutability": "nonpayable",
      "type": "function"
    },
    {
      "inputs": [],
      "name": "farm",
      "outputs": [],
      "stateMutability": "nonpayable",
      "type": "function"
    },
    {
      "inputs": [
        {
          "internalType": "address",
          "name": "_account",
          "type": "address"
        },
        {
          "internalType": "bool",
          "name": "_harvestOnly",
          "type": "bool"
        }
      ],
      "name": "withdrawWantToken",
      "outputs": [
        {
          "internalType": "uint256",
          "name": "",
          "type": "uint256"
        }
      ],
      "stateMutability": "nonpayable",
      "type": "function"
    },
    {
      "inputs": [
        {
          "internalType": "uint256",
          "name": "_amount",
          "type": "uint256"
        },
        {
          "internalType": "uint256",
          "name": "_maxMarketMovementAllowed",
          "type": "uint256"
        }
      ],
      "name": "exchangeWantTokenForUSD",
      "outputs": [
        {
          "internalType": "uint256",
          "name": "",
          "type": "uint256"
        }
      ],
      "stateMutability": "nonpayable",
      "type": "function"
    },
    {
      "inputs": [
        {
          "internalType": "uint256",
          "name": "_maxMarketMovementAllowed",
          "type": "uint256"
        }
      ],
      "name": "earn",
      "outputs": [],
      "stateMutability": "nonpayable",
      "type": "function"
    }
  ],
  "bytecode": "0x6080604052600a8054600160a060020a03191661dead1790556010805460a060020a60ff021916740100000000000000000000000000000000000000001790556000601181905560128190556013819055601581905560168190556017556127066018556127106019556103b6601a553480156200007c57600080fd5b506040516200352f3803806200352f8339810160408190526200009f916200056f565b620000c5620000b66401000000006200038b810204565b6401000000006200038f810204565b600180556002805460ff1916905584518590600090620000e957620000e962000689565b6020026020010151601060006101000a815481600160a060020a030219169083600160a060020a03160217905550846001815181106200012d576200012d62000689565b6020026020010151600e60006101000a815481600160a060020a030219169083600160a060020a031602179055508460028151811062000171576200017162000689565b6020026020010151600f60006101000a815481600160a060020a030219169083600160a060020a0316021790555084600281518110620001b557620001b562000689565b6020026020010151600560006101000a815481600160a060020a030219169083600160a060020a0316021790555084600281518110620001f957620001f962000689565b6020026020010151600660006101000a815481600160a060020a030219169083600160a060020a03160217905550846002815181106200023d576200023d62000689565b6020026020010151600b60006101000a815481600160a060020a030219169083600160a060020a031602179055508460038151811062000281576200028162000689565b602090810291909101810151600c8054600160a060020a03909216600160a060020a031990921691909117905560038590556002805463ffffff001916620100001790558251620002d991601d9190850190620003df565b508051620002ef90601b906020840190620003df565b508260008151811062000306576200030662000689565b6020026020010151601581905550826001815181106200032a576200032a62000689565b6020026020010151601681905550826002815181106200034e576200034e62000689565b60200260200101516018819055508260038151811062000372576200037262000689565b60200260200101516019819055505050505050620006b8565b3390565b60008054600160a060020a03838116600160a060020a0319831681178455604051919092169283917f8be0079c531659141344cd1fd0a4f28419497f9722a3daafe3b4186f6b6457e09190a35050565b82805482825590600052602060002090810192821562000437579160200282015b82811115620004375782518254600160a060020a031916600160a060020a0390911617825560209092019160019091019062000400565b506200044592915062000449565b5090565b5b808211156200044557600081556001016200044a565b7f4e487b7100000000000000000000000000000000000000000000000000000000600052604160045260246000fd5b604051601f8201601f191681016001604060020a0381118282101715620004ba57620004ba62000460565b604052919050565b60006001604060020a03821115620004de57620004de62000460565b5060209081020190565b600082601f830112620004fa57600080fd5b81516020620005136200050d83620004c2565b6200048f565b828152918102840181019181810190868411156200053057600080fd5b8286015b8481101562000564578051600160a060020a0381168114620005565760008081fd5b835291830191830162000534565b509695505050505050565b600080600080600060a086880312156200058857600080fd5b85516001604060020a0380821115620005a057600080fd5b620005ae89838a01620004e8565b965060209150818801519550604088015181811115620005cd57600080fd5b8801601f81018a13620005df57600080fd5b8051620005f06200050d82620004c2565b8181529084028201840190848101908c8311156200060d57600080fd5b928501925b828410156200062d5783518252928501929085019062000612565b60608c01519098509450505050808211156200064857600080fd5b6200065689838a01620004e8565b935060808801519150808211156200066d57600080fd5b506200067c88828901620004e8565b9150509295509295909350565b7f4e487b7100000000000000000000000000000000000000000000000000000000600052603260045260246000fd5b612e6780620006c86000396000f3fe608060405234801561001057600080fd5b50600436106104c55760003560e060020a900480637ff36fbe1161027c578063c11c2e9211610160578063e5eb715c116100d2578063ee50dc3411610096578063ee50dc34146105eb578063efa02808146109ee578063f106845414610a00578063f2fde38b14610a09578063f5046a2914610a1c578063ffbd3b1f14610a2f57600080fd5b8063e5eb715c1461098f578063e65a0117146109a2578063e7198474146109b5578063e7a03679146109c8578063e9e15b4f146109db57600080fd5b8063c8e3d18b11610124578063c8e3d18b14610910578063cfad57a214610923578063d1aeabaf14610936578063d7cb416f14610949578063de69b3aa1461095c578063e502a88d1461097c57600080fd5b8063c11c2e92146108cf578063c302a4d0146107be578063c5c97cbf146108d7578063c6efd577146108ea578063c8479cd6146108fd57600080fd5b80639fc33a9f116101f9578063b74cd242116101bd578063b74cd24214610867578063b77050e714610870578063b86c5f5314610883578063ba0bb4ab14610896578063bf3a7d40146108a9578063c0973eed146108bc57600080fd5b80639fc33a9f1461081b578063adfe5a761461082e578063b1414dbb14610841578063b3545c01146105e2578063b73cba2a1461085457600080fd5b80638906758d116102405780638906758d146107c75780638b9102dc146107da5780638da5cb5b146107ee57806396e9aff8146107ff5780639b6017e51461081257600080fd5b80637ff36fbe1461078757806381e62ea31461079a5780638456cb59146107ad57806385f02dd6146107b5578063866b2018146107be57600080fd5b806348f2d9dd116103ae5780636392ab121161032057806368f54162116102e457806368f541621461072a578063693a090b1461073357806370d5ae0514610746578063715018a6146107595780637153ef86146107615780637ec828641461077457600080fd5b80636392ab12146106de578063648794a4146106f157806366aca0a61461070457806367057b6c146105eb57806367206d401461071757600080fd5b80634d9f7bb2116103725780634d9f7bb2146105eb5780634e2cb8b614610687578063583bda3b1461069a5780635c975abb146106ad5780635da79d63146106b85780635dc05fd5146106cb57600080fd5b806348f2d9dd14610632578063495af8ce146106455780634c5b09da146106585780634c8fc2d61461066b5780634ce54ddb1461067457600080fd5b80631b0d8aab1161044757806336e9332d1161040b57806336e9332d146105fd5780633f4ba83a1461060557806342da4eb31461060d57806343788cd2146105eb57806344a3955e1461061657806346008a071461061f57600080fd5b80631b0d8aab146105bc5780631e12819a146105cf578063211019d7146105e25780632717eff3146105eb5780633214471f146105f457600080fd5b80630daef3211161048e5780630daef321146105595780630fa4e01e1461058e5780631334903f146105975780631755ff21146105a0578063178a8d07146105b357600080fd5b80627a2ae3146104ca57806305828d3e146104fa578063061c7d481461050f5780630873cb91146105265780630b6bb30b14610546575b600080fd5b6104dd6104d83660046129ca565b610a38565b604051600160a060020a0390911681526020015b60405180910390f35b61050d6105083660046129ff565b610a62565b005b61051861012c81565b6040519081526020016104f1565b6105186105343660046129ca565b602a6020526000908152604090205481565b61050d610554366004612a28565b610aba565b60105461057e9074010000000000000000000000000000000000000000900460ff1681565b60405190151581526020016104f1565b61051860115481565b61051860185481565b600d546104dd90600160a060020a031681565b61051860165481565b61050d6105ca3660046129ca565b610b61565b61050d6105dd3660046129ff565b610b93565b61051861032081565b61051861271081565b61051860175481565b61050d610be2565b61050d610c0e565b61051860125481565b61051860135481565b6010546104dd90600160a060020a031681565b61050d610640366004612a28565b610c45565b610518610653366004612a45565b610c8c565b61050d6106663660046129ff565b610eec565b61051860295481565b6009546104dd90600160a060020a031681565b6104dd6106953660046129ca565b610f3b565b61050d6106a83660046129ff565b610f4b565b60025460ff1661057e565b61050d6106c63660046129ff565b610f9a565b60025461057e9062010000900460ff1681565b6104dd6106ec3660046129ca565b610fe9565b6105186106ff366004612a7c565b610ff9565b61050d610712366004612a28565b611218565b61050d610725366004612a9e565b611261565b61051860195481565b600c546104dd90600160a060020a031681565b600a546104dd90600160a060020a031681565b61050d611369565b61050d61076f366004612ada565b6113a0565b6104dd6107823660046129ca565b61168f565b6006546104dd90600160a060020a031681565b6104dd6107a83660046129ca565b61169f565b61050d6116af565b61051860155481565b6105186126ac81565b61050d6107d53660046129ff565b6116e4565b60025461057e906301000000900460ff1681565b600054600160a060020a03166104dd565b6104dd61080d3660046129ca565b611733565b61051860285481565b6004546104dd90600160a060020a031681565b6104dd61083c3660046129ca565b611743565b600e546104dd90600160a060020a031681565b61050d6108623660046129ff565b611753565b6105186103e381565b6104dd61087e3660046129ca565b6117a2565b6104dd6108913660046129ca565b6117b2565b6105186108a4366004612b15565b6117c2565b61050d6108b73660046129ff565b611a74565b600b546104dd90600160a060020a031681565b61050d611ac3565b6104dd6108e53660046129ca565b611e38565b6104dd6108f83660046129ca565b611e48565b61050d61090b3660046129ff565b611e58565b6104dd61091e3660046129ca565b611ea7565b61050d6109313660046129ff565b611eb7565b61050d610944366004612a28565b611f32565b6007546104dd90600160a060020a031681565b61051861096a3660046129ff565b60146020526000908152604090205481565b61051861098a366004612a7c565b611f7d565b6104dd61099d3660046129ca565b61221d565b61050d6109b03660046129ca565b61222d565b6008546104dd90600160a060020a031681565b6005546104dd90600160a060020a031681565b61050d6109e93660046129ff565b6123ad565b60025461057e90610100900460ff1681565b61051860035481565b61050d610a173660046129ff565b6123fc565b600f546104dd90600160a060020a031681565b610518601a5481565b60238181548110610a4857600080fd5b600091825260209091200154600160a060020a0316905081565b600054600160a060020a03163314610a985760405160e560020a62461bcd028152600401610a8f90612b3f565b60405180910390fd5b60078054600160a060020a031916600160a060020a0392909216919091179055565b601054600160a060020a03163314610ae75760405160e560020a62461bcd028152600401610a8f90612b74565b60108054821515740100000000000000000000000000000000000000000274ff0000000000000000000000000000000000000000199091161790556040517f125177ac7b8930dac1e59c2b30b1b6b9191b30af40cf6bbb5d20fec4d44be60f90610b5690831515815260200190565b60405180910390a150565b600054600160a060020a03163314610b8e5760405160e560020a62461bcd028152600401610a8f90612b3f565b600355565b600054600160a060020a03163314610bc05760405160e560020a62461bcd028152600401610a8f90612b3f565b60098054600160a060020a031916600160a060020a0392909216919091179055565b60026001541415610c085760405160e560020a62461bcd028152600401610a8f90612bab565b60018055565b601054600160a060020a03163314610c3b5760405160e560020a62461bcd028152600401610a8f90612b74565b610c436124b4565b565b600054600160a060020a03163314610c725760405160e560020a62461bcd028152600401610a8f90612b3f565b600280549115156101000261ff0019909216919091179055565b600e54600090600160a060020a031633600160a060020a031614610cc55760405160e560020a62461bcd028152600401610a8f90612be2565b600054600160a060020a03163314610cf25760405160e560020a62461bcd028152600401610a8f90612b3f565b60026001541415610d185760405160e560020a62461bcd028152600401610a8f90612bab565b6002600155600160a060020a0383811660009081526014602052604080822054601354600554925160e060020a6370a082310281523060048201529194610db9939192610db392879216906370a0823190602401602060405180830381865afa158015610d89573d6000803e3d6000fd5b505050506040513d601f19601f82011682018060405250810190610dad9190612c19565b90612553565b90612566565b90506000610dd8601254610db36013548561255390919063ffffffff16565b9050601354811115610de957506013545b601354610df69082612572565b6013556019546127101115610e2357610e20612710610db36019548561255390919063ffffffff16565b91505b60055460405160e060020a6370a08231028152306004820152600091600160a060020a0316906370a0823190602401602060405180830381865afa158015610e6f573d6000803e3d6000fd5b505050506040513d601f19601f82011682018060405250810190610e939190612c19565b905080831115610ea1578092505b826012541015610eb15760125492505b601254610ebe9084612572565b601255600e54600554610ede91600160a060020a0391821691168561257e565b506001805595945050505050565b600054600160a060020a03163314610f195760405160e560020a62461bcd028152600401610a8f90612b3f565b60048054600160a060020a031916600160a060020a0392909216919091179055565b601e8181548110610a4857600080fd5b600054600160a060020a03163314610f785760405160e560020a62461bcd028152600401610a8f90612b3f565b600f8054600160a060020a031916600160a060020a0392909216919091179055565b600054600160a060020a03163314610fc75760405160e560020a62461bcd028152600401610a8f90612b3f565b600c8054600160a060020a031916600160a060020a0392909216919091179055565b601f8181548110610a4857600080fd5b600e54600090600160a060020a031633600160a060020a0316146110325760405160e560020a62461bcd028152600401610a8f90612be2565b60065460405160e060020a6370a08231028152306004820152600091600160a060020a0316906370a0823190602401602060405180830381865afa15801561107e573d6000803e3d6000fd5b505050506040513d601f19601f820116820180604052508101906110a29190612c19565b9050808411156110f75760405160e560020a62461bcd02815260206004820181905260248201527f45786365656465642062616c616e636520666f72205a4f52206465706f7369746044820152606401610a8f565b600c5473__SafeSwapUni___________________________9063709128be90600160a060020a03168686601d3061113042610258612627565b6040518763ffffffff1660e060020a02815260040161115496959493929190612c32565b60006040518083038186803b15801561116c57600080fd5b505af4158015611180573d6000803e3d6000fd5b505060095460405160e060020a6370a0823102815230600482015260009350600160a060020a0390911691506370a0823190602401602060405180830381865afa1580156111d2573d6000803e3d6000fd5b505050506040513d601f19601f820116820180604052508101906111f69190612c19565b60095490915061121090600160a060020a0316338361257e565b949350505050565b600054600160a060020a031633146112455760405160e560020a62461bcd028152600401610a8f90612b3f565b60028054911515620100000262ff000019909216919091179055565b601054600160a060020a0316331461128e5760405160e560020a62461bcd028152600401610a8f90612b74565b600854600160a060020a03848116911614156112ef5760405160e560020a62461bcd02815260206004820152600560248201527f21736166650000000000000000000000000000000000000000000000000000006044820152606401610a8f565b600554600160a060020a03848116911614156113505760405160e560020a62461bcd02815260206004820152600560248201527f21736166650000000000000000000000000000000000000000000000000000006044820152606401610a8f565b611364600160a060020a038416828461257e565b505050565b600054600160a060020a031633146113965760405160e560020a62461bcd028152600401610a8f90612b3f565b610c436000612633565b601054600160a060020a031633146113cd5760405160e560020a62461bcd028152600401610a8f90612b74565b6126ac8510156114225760405160e560020a62461bcd02815260206004820152601a60248201527f5f656e7472616e6365466565466163746f7220746f6f206c6f770000000000006044820152606401610a8f565b6127108511156114775760405160e560020a62461bcd02815260206004820152601b60248201527f5f656e7472616e6365466565466163746f7220746f6f206869676800000000006044820152606401610a8f565b60188590556126ac8410156114d15760405160e560020a62461bcd02815260206004820152601a60248201527f5f7769746864726177466565466163746f7220746f6f206c6f770000000000006044820152606401610a8f565b6127108411156115265760405160e560020a62461bcd02815260206004820152601b60248201527f5f7769746864726177466565466163746f7220746f6f206869676800000000006044820152606401610a8f565b601984905561012c8311156115805760405160e560020a62461bcd02815260206004820152601760248201527f5f636f6e74726f6c6c657246656520746f6f20686967680000000000000000006044820152606401610a8f565b60158390556103208211156115da5760405160e560020a62461bcd02815260206004820152601560248201527f5f6275794261636b5261746520746f6f206869676800000000000000000000006044820152606401610a8f565b60168290556103e38111156116345760405160e560020a62461bcd02815260206004820152601860248201527f5f736c697070616765466163746f7220746f6f206869676800000000000000006044820152606401610a8f565b601a819055604080518681526020810186905290810184905260608101839052608081018290527fc67e0b149a57a70fa44a531a46c2c6d8e0b242fa12f459f250012c3a5987d29a9060a00160405180910390a15050505050565b60278181548110610a4857600080fd5b60258181548110610a4857600080fd5b601054600160a060020a031633146116dc5760405160e560020a62461bcd028152600401610a8f90612b74565b610c43612683565b600054600160a060020a031633146117115760405160e560020a62461bcd028152600401610a8f90612b3f565b600b8054600160a060020a031916600160a060020a0392909216919091179055565b60218181548110610a4857600080fd5b60268181548110610a4857600080fd5b600054600160a060020a031633146117805760405160e560020a62461bcd028152600401610a8f90612b3f565b60088054600160a060020a031916600160a060020a0392909216919091179055565b60228181548110610a4857600080fd5b601b8181548110610a4857600080fd5b600e54600090600160a060020a031633600160a060020a0316146117fb5760405160e560020a62461bcd028152600401610a8f90612be2565b600260015414156118215760405160e560020a62461bcd028152600401610a8f90612bab565b600260015561183260025460ff1690565b156118525760405160e560020a62461bcd028152600401610a8f90612caa565b60055460405160e060020a6370a08231028152306004820152600091600160a060020a0316906370a0823190602401602060405180830381865afa15801561189e573d6000803e3d6000fd5b505050506040513d601f19601f820116820180604052508101906118c29190612c19565b9050600083116119175760405160e560020a62461bcd02815260206004820152601e60248201527f57616e7420746f6b656e206465706f736974206d757374206265203e203000006044820152606401610a8f565b8083111561196a5760405160e560020a62461bcd02815260206004820152601c60248201527f457863656564732057616e742062616c20666f72206465706f736974000000006044820152606401610a8f565b60125483901580159061197f57506000601354115b156119ae576119ab612710610db3601254610db3601854610dad6013548b61255390919063ffffffff16565b90505b6013546119bb9082612627565b601355600160a060020a0385166000908152601460205260409020546119e19082612627565b600160a060020a038681166000908152601460205260409081902092909255600654915160e060020a6370a082310281523060048201529116906370a0823190602401602060405180830381865afa158015611a41573d6000803e3d6000fd5b505050506040513d601f19601f82011682018060405250810190611a659190612c19565b60125560018055949350505050565b600054600160a060020a03163314611aa15760405160e560020a62461bcd028152600401610a8f90612b3f565b600e8054600160a060020a031916600160a060020a0392909216919091179055565b60025460ff1615611ae95760405160e560020a62461bcd028152600401610a8f90612caa565b6002546301000000900460ff16611b455760405160e560020a62461bcd02815260206004820152600c60248201527f2169735a6f72726f436f6d7000000000000000000000000000000000000000006044820152606401610a8f565b600254610100900460ff1615611ba05760405160e560020a62461bcd02815260206004820152600d60248201527f6973434f52455374616b696e67000000000000000000000000000000000000006044820152606401610a8f565b60065460405160e060020a6370a08231028152306004820152600091600160a060020a0316906370a0823190602401602060405180830381865afa158015611bec573d6000803e3d6000fd5b505050506040513d601f19601f82011682018060405250810190611c109190612c19565b600854600654919250600160a060020a03918216911614801590611c345750600081115b15611cea57600c54600654611c5691600160a060020a039182169116836126de565b600c54601a5473__SafeSwapUni___________________________9163709128be91600160a060020a03909116908490602230611c9542610258612627565b6040518763ffffffff1660e060020a028152600401611cb996959493929190612c32565b60006040518083038186803b158015611cd157600080fd5b505af4158015611ce5573d6000803e3d6000fd5b505050505b60075460405160e060020a6370a08231028152306004820152600091600160a060020a0316906370a0823190602401602060405180830381865afa158015611d36573d6000803e3d6000fd5b505050506040513d601f19601f82011682018060405250810190611d5a9190612c19565b600854600754919250600160a060020a03918216911614801590611d7e5750600081115b15611e3457600c54600754611da091600160a060020a039182169116836126de565b600c54601a5473__SafeSwapUni___________________________9163709128be91600160a060020a03909116908490602330611ddf42610258612627565b6040518763ffffffff1660e060020a028152600401611e0396959493929190612c32565b60006040518083038186803b158015611e1b57600080fd5b505af4158015611e2f573d6000803e3d6000fd5b505050505b5050565b601c8181548110610a4857600080fd5b601d8181548110610a4857600080fd5b600054600160a060020a03163314611e855760405160e560020a62461bcd028152600401610a8f90612b3f565b60068054600160a060020a031916600160a060020a0392909216919091179055565b60208181548110610a4857600080fd5b601054600160a060020a03163314611ee45760405160e560020a62461bcd028152600401610a8f90612b74565b60108054600160a060020a031916600160a060020a0383169081179091556040519081527f91a8c1cc2d4a3bb60738481947a00cbb9899c822916694cf8bb1d68172fdcd5490602001610b56565b600054600160a060020a03163314611f5f5760405160e560020a62461bcd028152600401610a8f90612b3f565b6002805491151563010000000263ff00000019909216919091179055565b600e54600090600160a060020a031633600160a060020a031614611fb65760405160e560020a62461bcd028152600401610a8f90612be2565b60025460ff1615611fdc5760405160e560020a62461bcd028152600401610a8f90612caa565b60095460405160e060020a6370a08231028152306004820152600091600160a060020a0316906370a0823190602401602060405180830381865afa158015612028573d6000803e3d6000fd5b505050506040513d601f19601f8201168201806040525081019061204c9190612c19565b9050600084116120a15760405160e560020a62461bcd02815260206004820152601860248201527f55534443206465706f736974206d757374206265203e203000000000000000006044820152606401610a8f565b808411156120f45760405160e560020a62461bcd02815260206004820152601960248201527f5553444320646573697265642065786365656465642062616c000000000000006044820152606401610a8f565b600c5473__SafeSwapUni___________________________9063709128be90600160a060020a0316612127876002612566565b86601b3061213742610258612627565b6040518763ffffffff1660e060020a02815260040161215b96959493929190612c32565b60006040518083038186803b15801561217357600080fd5b505af4158015612187573d6000803e3d6000fd5b505060055460405160e060020a6370a0823102815230600482015260009350600160a060020a0390911691506370a0823190602401602060405180830381865afa1580156121d9573d6000803e3d6000fd5b505050506040513d601f19601f820116820180604052508101906121fd9190612c19565b600e5460055491925061121091600160a060020a0390811691168361257e565b60248181548110610a4857600080fd5b600260015414156122535760405160e560020a62461bcd028152600401610a8f90612bab565b600260015561226460025460ff1690565b156122845760405160e560020a62461bcd028152600401610a8f90612caa565b6002546301000000900460ff166122e05760405160e560020a62461bcd02815260206004820152600c60248201527f2169735a6f72726f436f6d7000000000000000000000000000000000000000006044820152606401610a8f565b60105474010000000000000000000000000000000000000000900460ff161561233057601054600160a060020a031633146123305760405160e560020a62461bcd028152600401610a8f90612b74565b4360115560065460405160e060020a6370a08231028152306004820152600160a060020a03909116906370a0823190602401602060405180830381865afa15801561237f573d6000803e3d6000fd5b505050506040513d601f19601f820116820180604052508101906123a39190612c19565b6012555060018055565b600054600160a060020a031633146123da5760405160e560020a62461bcd028152600401610a8f90612b3f565b600d8054600160a060020a031916600160a060020a0392909216919091179055565b600054600160a060020a031633146124295760405160e560020a62461bcd028152600401610a8f90612b3f565b600160a060020a0381166124a85760405160e560020a62461bcd02815260206004820152602660248201527f4f776e61626c653a206e6577206f776e657220697320746865207a65726f206160448201527f64647265737300000000000000000000000000000000000000000000000000006064820152608401610a8f565b6124b181612633565b50565b60025460ff166125095760405160e560020a62461bcd02815260206004820152601460248201527f5061757361626c653a206e6f74207061757365640000000000000000000000006044820152606401610a8f565b6002805460ff191690557f5db9ee0a495bf2e6ff9c91a7834c1ba4fdd244a5e8aa4e537bd38aeae4b073aa335b604051600160a060020a03909116815260200160405180910390a1565b600061255f8284612d10565b9392505050565b600061255f8284612d2f565b600061255f8284612d6a565b604051600160a060020a0383166024820152604481018290526113649084907fa9059cbb00000000000000000000000000000000000000000000000000000000906064015b60408051601f198184030181529190526020810180517bffffffffffffffffffffffffffffffffffffffffffffffffffffffff167fffffffff00000000000000000000000000000000000000000000000000000000909316929092179091526127c8565b600061255f8284612d81565b60008054600160a060020a03838116600160a060020a0319831681178455604051919092169283917f8be0079c531659141344cd1fd0a4f28419497f9722a3daafe3b4186f6b6457e09190a35050565b60025460ff16156126a95760405160e560020a62461bcd028152600401610a8f90612caa565b6002805460ff191660011790557f62e78cea01bee320cd4e420270b5ea74000d11b0c9f74754ebdbfc544b05a2586125363390565b6040517fdd62ed3e000000000000000000000000000000000000000000000000000000008152306004820152600160a060020a038381166024830152600091839186169063dd62ed3e90604401602060405180830381865afa158015612748573d6000803e3d6000fd5b505050506040513d601f19601f8201168201806040525081019061276c9190612c19565b6127769190612d81565b604051600160a060020a0385166024820152604481018290529091506127c29085907f095ea7b300000000000000000000000000000000000000000000000000000000906064016125c3565b50505050565b600061281d826040518060400160405280602081526020017f5361666545524332303a206c6f772d6c6576656c2063616c6c206661696c656481525085600160a060020a03166128b09092919063ffffffff16565b805190915015611364578080602001905181019061283b9190612d99565b6113645760405160e560020a62461bcd02815260206004820152602a60248201527f5361666545524332303a204552433230206f7065726174696f6e20646964206e60448201527f6f742073756363656564000000000000000000000000000000000000000000006064820152608401610a8f565b6060611210848460008585600160a060020a0385163b6129155760405160e560020a62461bcd02815260206004820152601d60248201527f416464726573733a2063616c6c20746f206e6f6e2d636f6e74726163740000006044820152606401610a8f565b60008086600160a060020a031685876040516129319190612de2565b60006040518083038185875af1925050503d806000811461296e576040519150601f19603f3d011682016040523d82523d6000602084013e612973565b606091505b509150915061298382828661298e565b979650505050505050565b6060831561299d57508161255f565b8251156129ad5782518084602001fd5b8160405160e560020a62461bcd028152600401610a8f9190612dfe565b6000602082840312156129dc57600080fd5b5035919050565b8035600160a060020a03811681146129fa57600080fd5b919050565b600060208284031215612a1157600080fd5b61255f826129e3565b80151581146124b157600080fd5b600060208284031215612a3a57600080fd5b813561255f81612a1a565b60008060408385031215612a5857600080fd5b612a61836129e3565b91506020830135612a7181612a1a565b809150509250929050565b60008060408385031215612a8f57600080fd5b50508035926020909101359150565b600080600060608486031215612ab357600080fd5b612abc846129e3565b925060208401359150612ad1604085016129e3565b90509250925092565b600080600080600060a08688031215612af257600080fd5b505083359560208501359550604085013594606081013594506080013592509050565b60008060408385031215612b2857600080fd5b612b31836129e3565b946020939093013593505050565b6020808252818101527f4f776e61626c653a2063616c6c6572206973206e6f7420746865206f776e6572604082015260600190565b60208082526004908201527f21676f7600000000000000000000000000000000000000000000000000000000604082015260600190565b6020808252601f908201527f5265656e7472616e637947756172643a207265656e7472616e742063616c6c00604082015260600190565b60208082526010908201527f217a6f72726f436f6e74726f6c6c657200000000000000000000000000000000604082015260600190565b600060208284031215612c2b57600080fd5b5051919050565b600060c08201600160a060020a03808a1684526020898186015288604086015260c0606086015282885480855260e0870191508960005282600020945060005b81811015612c90578554851683526001958601959284019201612c72565b505096909116608085015250505060a00152949350505050565b60208082526010908201527f5061757361626c653a2070617573656400000000000000000000000000000000604082015260600190565b7f4e487b7100000000000000000000000000000000000000000000000000000000600052601160045260246000fd5b6000816000190483118215151615612d2a57612d2a612ce1565b500290565b600082612d65577f4e487b7100000000000000000000000000000000000000000000000000000000600052601260045260246000fd5b500490565b600082821015612d7c57612d7c612ce1565b500390565b60008219821115612d9457612d94612ce1565b500190565b600060208284031215612dab57600080fd5b815161255f81612a1a565b60005b83811015612dd1578181015183820152602001612db9565b838111156127c25750506000910152565b60008251612df4818460208701612db6565b9190910192915050565b6020815260008251806020840152612e1d816040850160208701612db6565b601f01601f1916919091016040019291505056fea26469706673582212206acd5c48cf57de5761eae54609d0dada1926a45d34d29da1710434549db31e3064736f6c634300080a0033",
  "immutableReferences": {},
  "source": "// SPDX-License-Identifier: MIT\npragma solidity ^0.8.0;\n\nimport \"./_VaultBase.sol\";\n\n\n/// @title VaultZorro. The Vault for staking the Zorro token\n/// @dev Only to be deployed on BSC (the home of the ZOR token)\ncontract VaultZorro is VaultBase {\n    /* Libraries */\n    using SafeERC20 for IERC20;\n    using SafeMath for uint256;\n    using SafeSwapUni for IAMMRouter02;\n\n    /* Constructor */\n    /// @notice Constructor\n    /// @param _addresses : [gov, Zorro controller, Zorro token, Uni v2 router address]\n    /// @param _pid : The pool ID in the Zorro Controller\n    /// @param _fees : [_controllerFee, _buyBackRate, _entranceFeeFactor, _withdrawFeeFactor]\n    /// @param _token0ToUSDCPath Router path to swap from Zorro to USDC\n    /// @param _USDCToToken0Path Router path to swap from USDC to ZORRO\n    constructor(\n        address[] memory _addresses,\n        uint256 _pid,\n        uint256[] memory _fees,\n        address[] memory _token0ToUSDCPath,\n        address[] memory _USDCToToken0Path\n    ) {\n        // Key addresses\n        govAddress = _addresses[0];\n        zorroControllerAddress = _addresses[1];\n        ZORROAddress = _addresses[2];\n        wantAddress = _addresses[2];\n        token0Address = _addresses[2];\n        rewardsAddress = _addresses[2];\n        uniRouterAddress = _addresses[3];\n\n        // Vault characteristics\n        pid = _pid;\n        isCOREStaking = false;\n        isSingleAssetDeposit = true;\n        isZorroComp = false;\n\n        // Swap paths\n        token0ToUSDCPath = _token0ToUSDCPath;\n        USDCToToken0Path = _USDCToToken0Path;\n\n        // Fees\n        controllerFee = _fees[0];\n        buyBackRate = _fees[1];\n        entranceFeeFactor = _fees[2];\n        withdrawFeeFactor = _fees[3];\n    }\n\n    /* Investment Actions */\n\n    /// @notice Receives new deposits from user\n    /// @param _wantAmt amount of Want token to deposit/stake\n    /// @return Number of shares added\n    function depositWantToken(address _account, uint256 _wantAmt)\n        public\n        override\n        onlyZorroController\n        nonReentrant\n        whenNotPaused\n        returns (uint256)\n    {\n        // Get balance of want token (the deposited amount)\n        uint256 _wantBal = IERC20(wantAddress).balanceOf(address(this));\n        // Check to see if Want token was actually deposited, Want amount already present\n        require(_wantAmt > 0, \"Want token deposit must be > 0\");\n        require(_wantAmt <= _wantBal, \"Exceeds Want bal for deposit\");\n\n        // Set sharesAdded to the Want token amount specified\n        uint256 sharesAdded = _wantAmt;\n        // If the total number of shares and want tokens locked both exceed 0, the shares added is the proportion of Want tokens locked,\n        // discounted by the entrance fee\n        if (wantLockedTotal > 0 && sharesTotal > 0) {\n            sharesAdded = _wantAmt\n                .mul(sharesTotal)\n                .mul(entranceFeeFactor)\n                .div(wantLockedTotal)\n                .div(entranceFeeFactorMax);\n        }\n        // Increment the shares\n        sharesTotal = sharesTotal.add(sharesAdded);\n        userShares[_account] = userShares[_account].add(sharesAdded);\n\n        // Update want locked total\n        wantLockedTotal = IERC20(token0Address).balanceOf(address(this));\n\n        return sharesAdded;\n    }\n\n    /// @notice Performs necessary operations to convert USDC into Want token\n    /// @param _amountUSDC The USDC quantity to exchange\n    /// @param _maxMarketMovementAllowed The max slippage allowed. 1000 = 0 %, 995 = 0.5%, etc.\n    /// @return Amount of Want token obtained\n    function exchangeUSDForWantToken(\n        uint256 _amountUSDC,\n        uint256 _maxMarketMovementAllowed\n    ) public override onlyZorroController whenNotPaused returns (uint256) {\n        // TODO: Take in current market prices (oracle)\n\n        // Get balance of deposited USDC\n        uint256 _balUSDC = IERC20(tokenUSDCAddress).balanceOf(address(this));\n        // Check that USDC was actually deposited\n        require(_amountUSDC > 0, \"USDC deposit must be > 0\");\n        require(_amountUSDC <= _balUSDC, \"USDC desired exceeded bal\");\n\n        // Swap USDC for token0\n        IAMMRouter02(uniRouterAddress).safeSwap(\n            _amountUSDC.div(2),\n            _maxMarketMovementAllowed,\n            USDCToToken0Path,\n            address(this),\n            block.timestamp.add(600)\n        );\n\n        // Calculate resulting want token balance\n        uint256 _wantAmt = IERC20(wantAddress).balanceOf(address(this));\n\n        // Transfer back to sender\n        IERC20(wantAddress).safeTransfer(zorroControllerAddress, _wantAmt);\n\n        return _wantAmt;\n    }\n\n    /// @notice Public function for farming Want token.\n    function farm() public nonReentrant {}\n\n    /// @notice Withdraw Want tokens from the Farm contract\n    /// @param _account address of user\n    /// @param _harvestOnly unused for this function (only here to comply with interface)\n    /// @return the number of shares removed\n    function withdrawWantToken(address _account, bool _harvestOnly)\n        public\n        override\n        onlyZorroController\n        onlyOwner\n        nonReentrant\n        returns (uint256)\n    {\n        uint256 _userNumShares = userShares[_account];\n        uint256 _wantAmt = IERC20(wantAddress).balanceOf(address(this)).mul(_userNumShares).div(sharesTotal);\n\n        // Shares removed is proportional to the % of total Want tokens locked that _wantAmt represents\n        uint256 sharesRemoved = _wantAmt.mul(sharesTotal).div(wantLockedTotal);\n        // Safety: cap the shares to the total number of shares\n        if (sharesRemoved > sharesTotal) {\n            sharesRemoved = sharesTotal;\n        }\n        // Decrement the total shares by the sharesRemoved\n        sharesTotal = sharesTotal.sub(sharesRemoved);\n\n        // If a withdrawal fee is specified, discount the _wantAmt by the withdrawal fee\n        if (withdrawFeeFactor < withdrawFeeFactorMax) {\n            _wantAmt = _wantAmt.mul(withdrawFeeFactor).div(\n                withdrawFeeFactorMax\n            );\n        }\n\n        // Safety: Check balance of this contract's Want tokens held, and cap _wantAmt to that value\n        uint256 _wantBal = IERC20(wantAddress).balanceOf(address(this));\n        if (_wantAmt > _wantBal) {\n            _wantAmt = _wantBal;\n        }\n        // Safety: cap _wantAmt at the total quantity of Want tokens locked\n        if (wantLockedTotal < _wantAmt) {\n            _wantAmt = wantLockedTotal;\n        }\n\n        // Decrement the total Want locked tokens by the _wantAmt\n        wantLockedTotal = wantLockedTotal.sub(_wantAmt);\n\n        // Finally, transfer the want amount from this contract, back to the ZorroController contract\n        IERC20(wantAddress).safeTransfer(zorroControllerAddress, _wantAmt);\n\n        return sharesRemoved;\n    }\n\n    /// @notice Converts Want token back into USD to be ready for withdrawal\n    /// @param _amount The Want token quantity to exchange\n    /// @param _maxMarketMovementAllowed The max slippage allowed for swaps. (included here just to implement interface; otherwise unused)\n    /// @return Amount of USDC token obtained\n    function exchangeWantTokenForUSD(\n        uint256 _amount,\n        uint256 _maxMarketMovementAllowed\n    ) public virtual override onlyZorroController returns (uint256) {\n        // TODO: Take in current market prices (oracle)\n\n        // Get current Zorro balance\n        uint256 token0Amt = IERC20(token0Address).balanceOf(address(this));\n        \n        // Preflight checks\n        require(_amount <= token0Amt, \"Exceeded balance for ZOR deposit\");\n\n        // Swap token0 for USDC\n        IAMMRouter02(uniRouterAddress).safeSwap(\n            _amount,\n            _maxMarketMovementAllowed,\n            token0ToUSDCPath,\n            address(this),\n            block.timestamp.add(600)\n        );\n\n        uint256 amountUSDC = IERC20(tokenUSDCAddress).balanceOf(address(this));\n\n        // Transfer back to sender\n        IERC20(tokenUSDCAddress).safeTransfer(msg.sender, amountUSDC);\n\n        return amountUSDC;\n    }\n\n    /// @notice The main compounding (earn) function. Reinvests profits since the last earn event.\n    /// @param _maxMarketMovementAllowed The max slippage allowed. (included here just to implement interface; otherwise unused)\n    function earn(uint256 _maxMarketMovementAllowed)\n        public\n        override\n        nonReentrant\n        whenNotPaused\n    {\n        // Only to be run if this contract is configured for auto-comnpounding\n        require(isZorroComp, \"!isZorroComp\");\n        // If onlyGov is set to true, only allow to proceed if the current caller is the govAddress\n        if (onlyGov) {\n            require(msg.sender == govAddress, \"!gov\");\n        }\n\n        // (No distribution of fees/buyback)\n\n        // Update last earned block\n        lastEarnBlock = block.number;\n\n        // Update want locked total\n        wantLockedTotal = IERC20(token0Address).balanceOf(address(this));\n    }\n}\n",
  "sourcePath": "/Users/kristophm/Documents/workspace/zorro-protocol/contracts/vaults/VaultZorro.sol",
  "compiler": {
    "name": "solc",
    "version": "0.8.10+commit.fc410830.Emscripten.clang"
  },
  "schemaVersion": "3.4.4",
  "updatedAt": "2022-03-13T22:07:06.818Z",
  "devdoc": {
    "details": "Only to be deployed on BSC (the home of the ZOR token)",
    "kind": "dev",
    "methods": {
      "constructor": {
        "params": {
          "_USDCToToken0Path": "Router path to swap from USDC to ZORRO",
          "_addresses": ": [gov, Zorro controller, Zorro token, Uni v2 router address]",
          "_fees": ": [_controllerFee, _buyBackRate, _entranceFeeFactor, _withdrawFeeFactor]",
          "_pid": ": The pool ID in the Zorro Controller",
          "_token0ToUSDCPath": "Router path to swap from Zorro to USDC"
        }
      },
      "depositWantToken(address,uint256)": {
        "params": {
          "_wantAmt": "amount of Want token to deposit/stake"
        },
        "returns": {
          "_0": "Number of shares added"
        }
      },
      "earn(uint256)": {
        "params": {
          "_maxMarketMovementAllowed": "The max slippage allowed. (included here just to implement interface; otherwise unused)"
        }
      },
      "exchangeUSDForWantToken(uint256,uint256)": {
        "params": {
          "_amountUSDC": "The USDC quantity to exchange",
          "_maxMarketMovementAllowed": "The max slippage allowed. 1000 = 0 %, 995 = 0.5%, etc."
        },
        "returns": {
          "_0": "Amount of Want token obtained"
        }
      },
      "exchangeWantTokenForUSD(uint256,uint256)": {
        "params": {
          "_amount": "The Want token quantity to exchange",
          "_maxMarketMovementAllowed": "The max slippage allowed for swaps. (included here just to implement interface; otherwise unused)"
        },
        "returns": {
          "_0": "Amount of USDC token obtained"
        }
      },
      "inCaseTokensGetStuck(address,uint256,address)": {
        "params": {
          "_amount": "The amount of the tokens to transfer",
          "_to": "The address to transfer tokens to",
          "_token": "Address of the ERC20 token to transfer"
        }
      },
      "owner()": {
        "details": "Returns the address of the current owner."
      },
      "paused()": {
        "details": "Returns true if the contract is paused, and false otherwise."
      },
      "renounceOwnership()": {
        "details": "Leaves the contract without owner. It will not be possible to call `onlyOwner` functions anymore. Can only be called by the current owner. NOTE: Renouncing ownership will leave the contract without an owner, thereby removing any functionality that is only available to the owner."
      },
      "setFeeSettings(uint256,uint256,uint256,uint256,uint256)": {
        "params": {
          "_buyBackRate": "Buy back rate fee numerator",
          "_controllerFee": "Controller fee numerator",
          "_entranceFeeFactor": "Entrance fee numerator (higher means smaller percentage)",
          "_slippageFactor": "Slippage factor fee numerator",
          "_withdrawFeeFactor": "Withdrawal fee numerator (higher means smaller percentage)"
        }
      },
      "setGov(address)": {
        "params": {
          "_govAddress": "The new gov address"
        }
      },
      "setOnlyGov(bool)": {
        "params": {
          "_onlyGov": "whether onlyGov should be enforced"
        }
      },
      "transferOwnership(address)": {
        "details": "Transfers ownership of the contract to a new account (`newOwner`). Can only be called by the current owner."
      },
      "withdrawWantToken(address,bool)": {
        "params": {
          "_account": "address of user",
          "_harvestOnly": "unused for this function (only here to comply with interface)"
        },
        "returns": {
          "_0": "the number of shares removed"
        }
      }
    },
    "title": "VaultZorro. The Vault for staking the Zorro token",
    "version": 1
  },
  "userdoc": {
    "kind": "user",
    "methods": {
      "constructor": {
        "notice": "Constructor"
      },
      "convertDustToEarned()": {
        "notice": "Converts dust tokens into earned tokens, which will be reinvested on the next earn()"
      },
      "depositWantToken(address,uint256)": {
        "notice": "Receives new deposits from user"
      },
      "earn(uint256)": {
        "notice": "The main compounding (earn) function. Reinvests profits since the last earn event."
      },
      "exchangeUSDForWantToken(uint256,uint256)": {
        "notice": "Performs necessary operations to convert USDC into Want token"
      },
      "exchangeWantTokenForUSD(uint256,uint256)": {
        "notice": "Converts Want token back into USD to be ready for withdrawal"
      },
      "farm()": {
        "notice": "Public function for farming Want token."
      },
      "inCaseTokensGetStuck(address,uint256,address)": {
        "notice": "Safely transfer ERC20 tokens stuck in this contract to a specified address"
      },
      "pause()": {
        "notice": "Pause contract"
      },
      "setFeeSettings(uint256,uint256,uint256,uint256,uint256)": {
        "notice": "Configure key fee parameters"
      },
      "setGov(address)": {
        "notice": "Set governor address"
      },
      "setOnlyGov(bool)": {
        "notice": "Set onlyGov property"
      },
      "unpause()": {
        "notice": "Unpause contract"
      },
      "withdrawWantToken(address,bool)": {
        "notice": "Withdraw Want tokens from the Farm contract"
      }
    },
    "version": 1
  }
}