{
  "contractName": "VaultStargate",
  "abi": [
    {
      "anonymous": false,
      "inputs": [
        {
          "indexed": true,
          "internalType": "uint256",
          "name": "_amount",
          "type": "uint256"
        }
      ],
      "name": "Buyback",
      "type": "event"
    },
    {
      "anonymous": false,
      "inputs": [
        {
          "indexed": true,
          "internalType": "address",
          "name": "previousOwner",
          "type": "address"
        },
        {
          "indexed": true,
          "internalType": "address",
          "name": "newOwner",
          "type": "address"
        }
      ],
      "name": "OwnershipTransferred",
      "type": "event"
    },
    {
      "anonymous": false,
      "inputs": [
        {
          "indexed": false,
          "internalType": "address",
          "name": "account",
          "type": "address"
        }
      ],
      "name": "Paused",
      "type": "event"
    },
    {
      "anonymous": false,
      "inputs": [
        {
          "indexed": true,
          "internalType": "uint256",
          "name": "_amount",
          "type": "uint256"
        }
      ],
      "name": "RevShare",
      "type": "event"
    },
    {
      "anonymous": false,
      "inputs": [
        {
          "indexed": false,
          "internalType": "address",
          "name": "_govAddress",
          "type": "address"
        }
      ],
      "name": "SetGov",
      "type": "event"
    },
    {
      "anonymous": false,
      "inputs": [
        {
          "indexed": false,
          "internalType": "bool",
          "name": "_onlyGov",
          "type": "bool"
        }
      ],
      "name": "SetOnlyGov",
      "type": "event"
    },
    {
      "anonymous": false,
      "inputs": [
        {
          "indexed": false,
          "internalType": "address",
          "name": "_rewardsAddress",
          "type": "address"
        }
      ],
      "name": "SetRewardsAddress",
      "type": "event"
    },
    {
      "anonymous": false,
      "inputs": [
        {
          "indexed": false,
          "internalType": "uint256",
          "name": "_entranceFeeFactor",
          "type": "uint256"
        },
        {
          "indexed": false,
          "internalType": "uint256",
          "name": "_withdrawFeeFactor",
          "type": "uint256"
        },
        {
          "indexed": false,
          "internalType": "uint256",
          "name": "_controllerFee",
          "type": "uint256"
        },
        {
          "indexed": false,
          "internalType": "uint256",
          "name": "_buyBackRate",
          "type": "uint256"
        },
        {
          "indexed": false,
          "internalType": "uint256",
          "name": "_revShareRate",
          "type": "uint256"
        }
      ],
      "name": "SetSettings",
      "type": "event"
    },
    {
      "anonymous": false,
      "inputs": [
        {
          "indexed": false,
          "internalType": "address",
          "name": "_uniRouterAddress",
          "type": "address"
        }
      ],
      "name": "SetUniRouterAddress",
      "type": "event"
    },
    {
      "anonymous": false,
      "inputs": [
        {
          "indexed": false,
          "internalType": "address",
          "name": "account",
          "type": "address"
        }
      ],
      "name": "Unpaused",
      "type": "event"
    },
    {
      "inputs": [],
      "name": "ZORPriceFeed",
      "outputs": [
        {
          "internalType": "contract AggregatorV3Interface",
          "name": "",
          "type": "address"
        }
      ],
      "stateMutability": "view",
      "type": "function"
    },
    {
      "inputs": [],
      "name": "ZORROAddress",
      "outputs": [
        {
          "internalType": "address",
          "name": "",
          "type": "address"
        }
      ],
      "stateMutability": "view",
      "type": "function"
    },
    {
      "inputs": [],
      "name": "burnAddress",
      "outputs": [
        {
          "internalType": "address",
          "name": "",
          "type": "address"
        }
      ],
      "stateMutability": "view",
      "type": "function"
    },
    {
      "inputs": [],
      "name": "buyBackRate",
      "outputs": [
        {
          "internalType": "uint256",
          "name": "",
          "type": "uint256"
        }
      ],
      "stateMutability": "view",
      "type": "function"
    },
    {
      "inputs": [],
      "name": "buyBackRateMax",
      "outputs": [
        {
          "internalType": "uint256",
          "name": "",
          "type": "uint256"
        }
      ],
      "stateMutability": "view",
      "type": "function"
    },
    {
      "inputs": [],
      "name": "buyBackRateUL",
      "outputs": [
        {
          "internalType": "uint256",
          "name": "",
          "type": "uint256"
        }
      ],
      "stateMutability": "view",
      "type": "function"
    },
    {
      "inputs": [],
      "name": "controllerFee",
      "outputs": [
        {
          "internalType": "uint256",
          "name": "",
          "type": "uint256"
        }
      ],
      "stateMutability": "view",
      "type": "function"
    },
    {
      "inputs": [],
      "name": "controllerFeeMax",
      "outputs": [
        {
          "internalType": "uint256",
          "name": "",
          "type": "uint256"
        }
      ],
      "stateMutability": "view",
      "type": "function"
    },
    {
      "inputs": [],
      "name": "controllerFeeUL",
      "outputs": [
        {
          "internalType": "uint256",
          "name": "",
          "type": "uint256"
        }
      ],
      "stateMutability": "view",
      "type": "function"
    },
    {
      "inputs": [],
      "name": "defaultStablecoin",
      "outputs": [
        {
          "internalType": "address",
          "name": "",
          "type": "address"
        }
      ],
      "stateMutability": "view",
      "type": "function"
    },
    {
      "inputs": [],
      "name": "earnTokenPriceFeed",
      "outputs": [
        {
          "internalType": "contract AggregatorV3Interface",
          "name": "",
          "type": "address"
        }
      ],
      "stateMutability": "view",
      "type": "function"
    },
    {
      "inputs": [],
      "name": "earnedAddress",
      "outputs": [
        {
          "internalType": "address",
          "name": "",
          "type": "address"
        }
      ],
      "stateMutability": "view",
      "type": "function"
    },
    {
      "inputs": [
        {
          "internalType": "uint256",
          "name": "",
          "type": "uint256"
        }
      ],
      "name": "earnedToStablecoinPath",
      "outputs": [
        {
          "internalType": "address",
          "name": "",
          "type": "address"
        }
      ],
      "stateMutability": "view",
      "type": "function"
    },
    {
      "inputs": [
        {
          "internalType": "uint256",
          "name": "",
          "type": "uint256"
        }
      ],
      "name": "earnedToToken0Path",
      "outputs": [
        {
          "internalType": "address",
          "name": "",
          "type": "address"
        }
      ],
      "stateMutability": "view",
      "type": "function"
    },
    {
      "inputs": [
        {
          "internalType": "uint256",
          "name": "",
          "type": "uint256"
        }
      ],
      "name": "earnedToToken1Path",
      "outputs": [
        {
          "internalType": "address",
          "name": "",
          "type": "address"
        }
      ],
      "stateMutability": "view",
      "type": "function"
    },
    {
      "inputs": [
        {
          "internalType": "uint256",
          "name": "",
          "type": "uint256"
        }
      ],
      "name": "earnedToZORLPPoolOtherTokenPath",
      "outputs": [
        {
          "internalType": "address",
          "name": "",
          "type": "address"
        }
      ],
      "stateMutability": "view",
      "type": "function"
    },
    {
      "inputs": [
        {
          "internalType": "uint256",
          "name": "",
          "type": "uint256"
        }
      ],
      "name": "earnedToZORROPath",
      "outputs": [
        {
          "internalType": "address",
          "name": "",
          "type": "address"
        }
      ],
      "stateMutability": "view",
      "type": "function"
    },
    {
      "inputs": [],
      "name": "entranceFeeFactor",
      "outputs": [
        {
          "internalType": "uint256",
          "name": "",
          "type": "uint256"
        }
      ],
      "stateMutability": "view",
      "type": "function"
    },
    {
      "inputs": [],
      "name": "entranceFeeFactorLL",
      "outputs": [
        {
          "internalType": "uint256",
          "name": "",
          "type": "uint256"
        }
      ],
      "stateMutability": "view",
      "type": "function"
    },
    {
      "inputs": [],
      "name": "entranceFeeFactorMax",
      "outputs": [
        {
          "internalType": "uint256",
          "name": "",
          "type": "uint256"
        }
      ],
      "stateMutability": "view",
      "type": "function"
    },
    {
      "inputs": [],
      "name": "farmContractAddress",
      "outputs": [
        {
          "internalType": "address",
          "name": "",
          "type": "address"
        }
      ],
      "stateMutability": "view",
      "type": "function"
    },
    {
      "inputs": [],
      "name": "govAddress",
      "outputs": [
        {
          "internalType": "address",
          "name": "",
          "type": "address"
        }
      ],
      "stateMutability": "view",
      "type": "function"
    },
    {
      "inputs": [
        {
          "internalType": "address",
          "name": "_token",
          "type": "address"
        },
        {
          "internalType": "uint256",
          "name": "_amount",
          "type": "uint256"
        },
        {
          "internalType": "address",
          "name": "_to",
          "type": "address"
        }
      ],
      "name": "inCaseTokensGetStuck",
      "outputs": [],
      "stateMutability": "nonpayable",
      "type": "function"
    },
    {
      "inputs": [],
      "name": "isFarmable",
      "outputs": [
        {
          "internalType": "bool",
          "name": "",
          "type": "bool"
        }
      ],
      "stateMutability": "view",
      "type": "function"
    },
    {
      "inputs": [],
      "name": "isHomeChain",
      "outputs": [
        {
          "internalType": "bool",
          "name": "",
          "type": "bool"
        }
      ],
      "stateMutability": "view",
      "type": "function"
    },
    {
      "inputs": [],
      "name": "lastEarnBlock",
      "outputs": [
        {
          "internalType": "uint256",
          "name": "",
          "type": "uint256"
        }
      ],
      "stateMutability": "view",
      "type": "function"
    },
    {
      "inputs": [],
      "name": "lpPoolOtherTokenPriceFeed",
      "outputs": [
        {
          "internalType": "contract AggregatorV3Interface",
          "name": "",
          "type": "address"
        }
      ],
      "stateMutability": "view",
      "type": "function"
    },
    {
      "inputs": [],
      "name": "maxMarketMovementAllowed",
      "outputs": [
        {
          "internalType": "uint256",
          "name": "",
          "type": "uint256"
        }
      ],
      "stateMutability": "view",
      "type": "function"
    },
    {
      "inputs": [],
      "name": "onlyGov",
      "outputs": [
        {
          "internalType": "bool",
          "name": "",
          "type": "bool"
        }
      ],
      "stateMutability": "view",
      "type": "function"
    },
    {
      "inputs": [],
      "name": "owner",
      "outputs": [
        {
          "internalType": "address",
          "name": "",
          "type": "address"
        }
      ],
      "stateMutability": "view",
      "type": "function"
    },
    {
      "inputs": [],
      "name": "pause",
      "outputs": [],
      "stateMutability": "nonpayable",
      "type": "function"
    },
    {
      "inputs": [],
      "name": "paused",
      "outputs": [
        {
          "internalType": "bool",
          "name": "",
          "type": "bool"
        }
      ],
      "stateMutability": "view",
      "type": "function"
    },
    {
      "inputs": [],
      "name": "pid",
      "outputs": [
        {
          "internalType": "uint256",
          "name": "",
          "type": "uint256"
        }
      ],
      "stateMutability": "view",
      "type": "function"
    },
    {
      "inputs": [],
      "name": "poolAddress",
      "outputs": [
        {
          "internalType": "address",
          "name": "",
          "type": "address"
        }
      ],
      "stateMutability": "view",
      "type": "function"
    },
    {
      "inputs": [],
      "name": "renounceOwnership",
      "outputs": [],
      "stateMutability": "nonpayable",
      "type": "function"
    },
    {
      "inputs": [],
      "name": "revShareRate",
      "outputs": [
        {
          "internalType": "uint256",
          "name": "",
          "type": "uint256"
        }
      ],
      "stateMutability": "view",
      "type": "function"
    },
    {
      "inputs": [],
      "name": "revShareRateMax",
      "outputs": [
        {
          "internalType": "uint256",
          "name": "",
          "type": "uint256"
        }
      ],
      "stateMutability": "view",
      "type": "function"
    },
    {
      "inputs": [],
      "name": "revShareRateUL",
      "outputs": [
        {
          "internalType": "uint256",
          "name": "",
          "type": "uint256"
        }
      ],
      "stateMutability": "view",
      "type": "function"
    },
    {
      "inputs": [],
      "name": "rewardsAddress",
      "outputs": [
        {
          "internalType": "address",
          "name": "",
          "type": "address"
        }
      ],
      "stateMutability": "view",
      "type": "function"
    },
    {
      "inputs": [
        {
          "internalType": "address",
          "name": "_burnAddress",
          "type": "address"
        }
      ],
      "name": "setBurnAddress",
      "outputs": [],
      "stateMutability": "nonpayable",
      "type": "function"
    },
    {
      "inputs": [
        {
          "internalType": "address",
          "name": "_defaultStablecoin",
          "type": "address"
        }
      ],
      "name": "setDefaultStablecoin",
      "outputs": [],
      "stateMutability": "nonpayable",
      "type": "function"
    },
    {
      "inputs": [
        {
          "internalType": "address",
          "name": "_earnedAddress",
          "type": "address"
        }
      ],
      "name": "setEarnedAddress",
      "outputs": [],
      "stateMutability": "nonpayable",
      "type": "function"
    },
    {
      "inputs": [
        {
          "internalType": "address",
          "name": "_farmContractAddress",
          "type": "address"
        }
      ],
      "name": "setFarmContractAddress",
      "outputs": [],
      "stateMutability": "nonpayable",
      "type": "function"
    },
    {
      "inputs": [
        {
          "internalType": "uint256",
          "name": "_entranceFeeFactor",
          "type": "uint256"
        },
        {
          "internalType": "uint256",
          "name": "_withdrawFeeFactor",
          "type": "uint256"
        },
        {
          "internalType": "uint256",
          "name": "_controllerFee",
          "type": "uint256"
        },
        {
          "internalType": "uint256",
          "name": "_buyBackRate",
          "type": "uint256"
        },
        {
          "internalType": "uint256",
          "name": "_revShareRate",
          "type": "uint256"
        }
      ],
      "name": "setFeeSettings",
      "outputs": [],
      "stateMutability": "nonpayable",
      "type": "function"
    },
    {
      "inputs": [
        {
          "internalType": "address",
          "name": "_govAddress",
          "type": "address"
        }
      ],
      "name": "setGov",
      "outputs": [],
      "stateMutability": "nonpayable",
      "type": "function"
    },
    {
      "inputs": [
        {
          "internalType": "bool",
          "name": "_isFarmable",
          "type": "bool"
        }
      ],
      "name": "setIsFarmable",
      "outputs": [],
      "stateMutability": "nonpayable",
      "type": "function"
    },
    {
      "inputs": [
        {
          "internalType": "uint256",
          "name": "_slippageNumerator",
          "type": "uint256"
        }
      ],
      "name": "setMaxMarketMovementAllowed",
      "outputs": [],
      "stateMutability": "nonpayable",
      "type": "function"
    },
    {
      "inputs": [
        {
          "internalType": "bool",
          "name": "_onlyGov",
          "type": "bool"
        }
      ],
      "name": "setOnlyGov",
      "outputs": [],
      "stateMutability": "nonpayable",
      "type": "function"
    },
    {
      "inputs": [
        {
          "internalType": "uint256",
          "name": "_pid",
          "type": "uint256"
        }
      ],
      "name": "setPid",
      "outputs": [],
      "stateMutability": "nonpayable",
      "type": "function"
    },
    {
      "inputs": [
        {
          "internalType": "address",
          "name": "_poolAddress",
          "type": "address"
        }
      ],
      "name": "setPoolAddress",
      "outputs": [],
      "stateMutability": "nonpayable",
      "type": "function"
    },
    {
      "inputs": [
        {
          "internalType": "uint8",
          "name": "_idx",
          "type": "uint8"
        },
        {
          "internalType": "address",
          "name": "_priceFeed",
          "type": "address"
        }
      ],
      "name": "setPriceFeed",
      "outputs": [],
      "stateMutability": "nonpayable",
      "type": "function"
    },
    {
      "inputs": [
        {
          "internalType": "address",
          "name": "_rewardsAddress",
          "type": "address"
        }
      ],
      "name": "setRewardsAddress",
      "outputs": [],
      "stateMutability": "nonpayable",
      "type": "function"
    },
    {
      "inputs": [
        {
          "internalType": "uint8",
          "name": "_idx",
          "type": "uint8"
        },
        {
          "internalType": "address[]",
          "name": "_path",
          "type": "address[]"
        }
      ],
      "name": "setSwapPaths",
      "outputs": [],
      "stateMutability": "nonpayable",
      "type": "function"
    },
    {
      "inputs": [
        {
          "internalType": "address",
          "name": "_token0Address",
          "type": "address"
        }
      ],
      "name": "setToken0Address",
      "outputs": [],
      "stateMutability": "nonpayable",
      "type": "function"
    },
    {
      "inputs": [
        {
          "internalType": "address",
          "name": "_token1Address",
          "type": "address"
        }
      ],
      "name": "setToken1Address",
      "outputs": [],
      "stateMutability": "nonpayable",
      "type": "function"
    },
    {
      "inputs": [
        {
          "internalType": "address",
          "name": "_uniRouterAddress",
          "type": "address"
        }
      ],
      "name": "setUniRouterAddress",
      "outputs": [],
      "stateMutability": "nonpayable",
      "type": "function"
    },
    {
      "inputs": [
        {
          "internalType": "address",
          "name": "_wantAddress",
          "type": "address"
        }
      ],
      "name": "setWantAddress",
      "outputs": [],
      "stateMutability": "nonpayable",
      "type": "function"
    },
    {
      "inputs": [
        {
          "internalType": "address",
          "name": "_ZORROAddress",
          "type": "address"
        }
      ],
      "name": "setZORROAddress",
      "outputs": [],
      "stateMutability": "nonpayable",
      "type": "function"
    },
    {
      "inputs": [
        {
          "internalType": "address",
          "name": "_zorroControllerAddress",
          "type": "address"
        }
      ],
      "name": "setZorroControllerAddress",
      "outputs": [],
      "stateMutability": "nonpayable",
      "type": "function"
    },
    {
      "inputs": [
        {
          "internalType": "address",
          "name": "_poolAddress",
          "type": "address"
        }
      ],
      "name": "setZorroLPPoolAddress",
      "outputs": [],
      "stateMutability": "nonpayable",
      "type": "function"
    },
    {
      "inputs": [
        {
          "internalType": "address",
          "name": "_otherToken",
          "type": "address"
        }
      ],
      "name": "setZorroLPPoolOtherToken",
      "outputs": [],
      "stateMutability": "nonpayable",
      "type": "function"
    },
    {
      "inputs": [
        {
          "internalType": "address",
          "name": "_stakingVault",
          "type": "address"
        }
      ],
      "name": "setZorroStakingVault",
      "outputs": [],
      "stateMutability": "nonpayable",
      "type": "function"
    },
    {
      "inputs": [
        {
          "internalType": "address",
          "name": "_zorroXChainController",
          "type": "address"
        }
      ],
      "name": "setZorroXChainControllerAddress",
      "outputs": [],
      "stateMutability": "nonpayable",
      "type": "function"
    },
    {
      "inputs": [],
      "name": "sharesTotal",
      "outputs": [
        {
          "internalType": "uint256",
          "name": "",
          "type": "uint256"
        }
      ],
      "stateMutability": "view",
      "type": "function"
    },
    {
      "inputs": [],
      "name": "stablecoinPriceFeed",
      "outputs": [
        {
          "internalType": "contract AggregatorV3Interface",
          "name": "",
          "type": "address"
        }
      ],
      "stateMutability": "view",
      "type": "function"
    },
    {
      "inputs": [
        {
          "internalType": "uint256",
          "name": "",
          "type": "uint256"
        }
      ],
      "name": "stablecoinToToken0Path",
      "outputs": [
        {
          "internalType": "address",
          "name": "",
          "type": "address"
        }
      ],
      "stateMutability": "view",
      "type": "function"
    },
    {
      "inputs": [
        {
          "internalType": "uint256",
          "name": "",
          "type": "uint256"
        }
      ],
      "name": "stablecoinToToken1Path",
      "outputs": [
        {
          "internalType": "address",
          "name": "",
          "type": "address"
        }
      ],
      "stateMutability": "view",
      "type": "function"
    },
    {
      "inputs": [],
      "name": "stargatePoolId",
      "outputs": [
        {
          "internalType": "uint16",
          "name": "",
          "type": "uint16"
        }
      ],
      "stateMutability": "view",
      "type": "function"
    },
    {
      "inputs": [],
      "name": "stargateRouter",
      "outputs": [
        {
          "internalType": "address",
          "name": "",
          "type": "address"
        }
      ],
      "stateMutability": "view",
      "type": "function"
    },
    {
      "inputs": [],
      "name": "token0Address",
      "outputs": [
        {
          "internalType": "address",
          "name": "",
          "type": "address"
        }
      ],
      "stateMutability": "view",
      "type": "function"
    },
    {
      "inputs": [],
      "name": "token0PriceFeed",
      "outputs": [
        {
          "internalType": "contract AggregatorV3Interface",
          "name": "",
          "type": "address"
        }
      ],
      "stateMutability": "view",
      "type": "function"
    },
    {
      "inputs": [
        {
          "internalType": "uint256",
          "name": "",
          "type": "uint256"
        }
      ],
      "name": "token0ToStablecoinPath",
      "outputs": [
        {
          "internalType": "address",
          "name": "",
          "type": "address"
        }
      ],
      "stateMutability": "view",
      "type": "function"
    },
    {
      "inputs": [],
      "name": "token1Address",
      "outputs": [
        {
          "internalType": "address",
          "name": "",
          "type": "address"
        }
      ],
      "stateMutability": "view",
      "type": "function"
    },
    {
      "inputs": [],
      "name": "token1PriceFeed",
      "outputs": [
        {
          "internalType": "contract AggregatorV3Interface",
          "name": "",
          "type": "address"
        }
      ],
      "stateMutability": "view",
      "type": "function"
    },
    {
      "inputs": [
        {
          "internalType": "uint256",
          "name": "",
          "type": "uint256"
        }
      ],
      "name": "token1ToStablecoinPath",
      "outputs": [
        {
          "internalType": "address",
          "name": "",
          "type": "address"
        }
      ],
      "stateMutability": "view",
      "type": "function"
    },
    {
      "inputs": [],
      "name": "tokenSTG",
      "outputs": [
        {
          "internalType": "address",
          "name": "",
          "type": "address"
        }
      ],
      "stateMutability": "view",
      "type": "function"
    },
    {
      "inputs": [
        {
          "internalType": "address",
          "name": "newOwner",
          "type": "address"
        }
      ],
      "name": "transferOwnership",
      "outputs": [],
      "stateMutability": "nonpayable",
      "type": "function"
    },
    {
      "inputs": [],
      "name": "uniRouterAddress",
      "outputs": [
        {
          "internalType": "address",
          "name": "",
          "type": "address"
        }
      ],
      "stateMutability": "view",
      "type": "function"
    },
    {
      "inputs": [],
      "name": "unpause",
      "outputs": [],
      "stateMutability": "nonpayable",
      "type": "function"
    },
    {
      "inputs": [],
      "name": "wantAddress",
      "outputs": [
        {
          "internalType": "address",
          "name": "",
          "type": "address"
        }
      ],
      "stateMutability": "view",
      "type": "function"
    },
    {
      "inputs": [],
      "name": "wantLockedTotal",
      "outputs": [
        {
          "internalType": "uint256",
          "name": "",
          "type": "uint256"
        }
      ],
      "stateMutability": "view",
      "type": "function"
    },
    {
      "inputs": [],
      "name": "withdrawFeeFactor",
      "outputs": [
        {
          "internalType": "uint256",
          "name": "",
          "type": "uint256"
        }
      ],
      "stateMutability": "view",
      "type": "function"
    },
    {
      "inputs": [],
      "name": "withdrawFeeFactorLL",
      "outputs": [
        {
          "internalType": "uint256",
          "name": "",
          "type": "uint256"
        }
      ],
      "stateMutability": "view",
      "type": "function"
    },
    {
      "inputs": [],
      "name": "withdrawFeeFactorMax",
      "outputs": [
        {
          "internalType": "uint256",
          "name": "",
          "type": "uint256"
        }
      ],
      "stateMutability": "view",
      "type": "function"
    },
    {
      "inputs": [],
      "name": "zorroControllerAddress",
      "outputs": [
        {
          "internalType": "address",
          "name": "",
          "type": "address"
        }
      ],
      "stateMutability": "view",
      "type": "function"
    },
    {
      "inputs": [],
      "name": "zorroLPPool",
      "outputs": [
        {
          "internalType": "address",
          "name": "",
          "type": "address"
        }
      ],
      "stateMutability": "view",
      "type": "function"
    },
    {
      "inputs": [],
      "name": "zorroLPPoolOtherToken",
      "outputs": [
        {
          "internalType": "address",
          "name": "",
          "type": "address"
        }
      ],
      "stateMutability": "view",
      "type": "function"
    },
    {
      "inputs": [],
      "name": "zorroStakingVault",
      "outputs": [
        {
          "internalType": "address",
          "name": "",
          "type": "address"
        }
      ],
      "stateMutability": "view",
      "type": "function"
    },
    {
      "inputs": [],
      "name": "zorroXChainController",
      "outputs": [
        {
          "internalType": "address",
          "name": "",
          "type": "address"
        }
      ],
      "stateMutability": "view",
      "type": "function"
    },
    {
      "inputs": [
        {
          "internalType": "address",
          "name": "_timelockOwner",
          "type": "address"
        },
        {
          "components": [
            {
              "internalType": "uint256",
              "name": "pid",
              "type": "uint256"
            },
            {
              "internalType": "bool",
              "name": "isHomeChain",
              "type": "bool"
            },
            {
              "internalType": "bool",
              "name": "isFarmable",
              "type": "bool"
            },
            {
              "components": [
                {
                  "internalType": "address",
                  "name": "govAddress",
                  "type": "address"
                },
                {
                  "internalType": "address",
                  "name": "zorroControllerAddress",
                  "type": "address"
                },
                {
                  "internalType": "address",
                  "name": "zorroXChainController",
                  "type": "address"
                },
                {
                  "internalType": "address",
                  "name": "ZORROAddress",
                  "type": "address"
                },
                {
                  "internalType": "address",
                  "name": "zorroStakingVault",
                  "type": "address"
                },
                {
                  "internalType": "address",
                  "name": "wantAddress",
                  "type": "address"
                },
                {
                  "internalType": "address",
                  "name": "token0Address",
                  "type": "address"
                },
                {
                  "internalType": "address",
                  "name": "token1Address",
                  "type": "address"
                },
                {
                  "internalType": "address",
                  "name": "earnedAddress",
                  "type": "address"
                },
                {
                  "internalType": "address",
                  "name": "farmContractAddress",
                  "type": "address"
                },
                {
                  "internalType": "address",
                  "name": "rewardsAddress",
                  "type": "address"
                },
                {
                  "internalType": "address",
                  "name": "poolAddress",
                  "type": "address"
                },
                {
                  "internalType": "address",
                  "name": "uniRouterAddress",
                  "type": "address"
                },
                {
                  "internalType": "address",
                  "name": "zorroLPPool",
                  "type": "address"
                },
                {
                  "internalType": "address",
                  "name": "zorroLPPoolOtherToken",
                  "type": "address"
                },
                {
                  "internalType": "address",
                  "name": "defaultStablecoin",
                  "type": "address"
                }
              ],
              "internalType": "struct VaultLibrary.VaultAddresses",
              "name": "keyAddresses",
              "type": "tuple"
            },
            {
              "internalType": "address[]",
              "name": "earnedToZORROPath",
              "type": "address[]"
            },
            {
              "internalType": "address[]",
              "name": "earnedToToken0Path",
              "type": "address[]"
            },
            {
              "internalType": "address[]",
              "name": "stablecoinToToken0Path",
              "type": "address[]"
            },
            {
              "internalType": "address[]",
              "name": "earnedToZORLPPoolOtherTokenPath",
              "type": "address[]"
            },
            {
              "internalType": "address[]",
              "name": "earnedToStablecoinPath",
              "type": "address[]"
            },
            {
              "components": [
                {
                  "internalType": "uint256",
                  "name": "controllerFee",
                  "type": "uint256"
                },
                {
                  "internalType": "uint256",
                  "name": "buyBackRate",
                  "type": "uint256"
                },
                {
                  "internalType": "uint256",
                  "name": "revShareRate",
                  "type": "uint256"
                },
                {
                  "internalType": "uint256",
                  "name": "entranceFeeFactor",
                  "type": "uint256"
                },
                {
                  "internalType": "uint256",
                  "name": "withdrawFeeFactor",
                  "type": "uint256"
                }
              ],
              "internalType": "struct VaultLibrary.VaultFees",
              "name": "fees",
              "type": "tuple"
            },
            {
              "components": [
                {
                  "internalType": "address",
                  "name": "token0PriceFeed",
                  "type": "address"
                },
                {
                  "internalType": "address",
                  "name": "token1PriceFeed",
                  "type": "address"
                },
                {
                  "internalType": "address",
                  "name": "earnTokenPriceFeed",
                  "type": "address"
                },
                {
                  "internalType": "address",
                  "name": "ZORPriceFeed",
                  "type": "address"
                },
                {
                  "internalType": "address",
                  "name": "lpPoolOtherTokenPriceFeed",
                  "type": "address"
                },
                {
                  "internalType": "address",
                  "name": "stablecoinPriceFeed",
                  "type": "address"
                }
              ],
              "internalType": "struct VaultLibrary.VaultPriceFeeds",
              "name": "priceFeeds",
              "type": "tuple"
            },
            {
              "internalType": "address",
              "name": "tokenSTG",
              "type": "address"
            },
            {
              "internalType": "address",
              "name": "stargateRouter",
              "type": "address"
            },
            {
              "internalType": "uint16",
              "name": "stargatePoolId",
              "type": "uint16"
            }
          ],
          "internalType": "struct VaultStargate.VaultStargateInit",
          "name": "_initValue",
          "type": "tuple"
        }
      ],
      "name": "initialize",
      "outputs": [],
      "stateMutability": "nonpayable",
      "type": "function"
    },
    {
      "inputs": [
        {
          "internalType": "address",
          "name": "_timelockOwner",
          "type": "address"
        }
      ],
      "name": "initialize",
      "outputs": [],
      "stateMutability": "nonpayable",
      "type": "function"
    },
    {
      "inputs": [
        {
          "internalType": "address",
          "name": "_token",
          "type": "address"
        }
      ],
      "name": "setTokenSTG",
      "outputs": [],
      "stateMutability": "nonpayable",
      "type": "function"
    },
    {
      "inputs": [
        {
          "internalType": "uint16",
          "name": "_poolId",
          "type": "uint16"
        }
      ],
      "name": "setStargatePoolId",
      "outputs": [],
      "stateMutability": "nonpayable",
      "type": "function"
    },
    {
      "inputs": [
        {
          "internalType": "address",
          "name": "_router",
          "type": "address"
        }
      ],
      "name": "setStargateRouter",
      "outputs": [],
      "stateMutability": "nonpayable",
      "type": "function"
    },
    {
      "inputs": [
        {
          "internalType": "uint256",
          "name": "_wantAmt",
          "type": "uint256"
        }
      ],
      "name": "depositWantToken",
      "outputs": [
        {
          "internalType": "uint256",
          "name": "",
          "type": "uint256"
        }
      ],
      "stateMutability": "nonpayable",
      "type": "function"
    },
    {
      "inputs": [
        {
          "internalType": "uint256",
          "name": "_amountUSD",
          "type": "uint256"
        },
        {
          "internalType": "uint256",
          "name": "_maxMarketMovementAllowed",
          "type": "uint256"
        }
      ],
      "name": "exchangeUSDForWantToken",
      "outputs": [
        {
          "internalType": "uint256",
          "name": "",
          "type": "uint256"
        }
      ],
      "stateMutability": "nonpayable",
      "type": "function"
    },
    {
      "inputs": [],
      "name": "farm",
      "outputs": [],
      "stateMutability": "nonpayable",
      "type": "function"
    },
    {
      "inputs": [
        {
          "internalType": "uint256",
          "name": "_wantAmt",
          "type": "uint256"
        }
      ],
      "name": "withdrawWantToken",
      "outputs": [
        {
          "internalType": "uint256",
          "name": "sharesRemoved",
          "type": "uint256"
        }
      ],
      "stateMutability": "nonpayable",
      "type": "function"
    },
    {
      "inputs": [
        {
          "internalType": "uint256",
          "name": "_amount",
          "type": "uint256"
        },
        {
          "internalType": "uint256",
          "name": "_maxMarketMovementAllowed",
          "type": "uint256"
        }
      ],
      "name": "exchangeWantTokenForUSD",
      "outputs": [
        {
          "internalType": "uint256",
          "name": "",
          "type": "uint256"
        }
      ],
      "stateMutability": "nonpayable",
      "type": "function"
    },
    {
      "inputs": [
        {
          "internalType": "uint256",
          "name": "_maxMarketMovementAllowed",
          "type": "uint256"
        }
      ],
      "name": "earn",
      "outputs": [],
      "stateMutability": "nonpayable",
      "type": "function"
    }
  ],
  "bytecode": "0x608060405234801561001057600080fd5b50615f3580620000216000396000f3fe608060405234801561001057600080fd5b50600436106105a05760003560e060020a90048063833eeab9116102e9578063c0973eed11610191578063e7198474116100f8578063f05c09b3116100b1578063f2fde38b1161008b578063f2fde38b14610be6578063f5046a2914610bf9578063fbf5683f14610c0c578063ff29b39514610c1f57600080fd5b8063f05c09b314610bbd578063f106845414610bca578063f25342bf14610bd357600080fd5b8063e719847414610b64578063e7a0367914610b77578063e9e15b4f14610b8a578063ebfba7c414610b9d578063edf5e58514610bb0578063ee50dc34146106ba57600080fd5b8063cfad57a21161014a578063cfad57a214610af2578063d7cb416f14610b05578063dc3395dc14610b18578063de84199114610b2b578063e502a88d14610b3e578063e65a011714610b5157600080fd5b8063c0973eed14610a93578063c302a4d01461090e578063c4d66de814610aa6578063c524a05614610ab9578063c8479cd614610acc578063c8e3d18b14610adf57600080fd5b8063a049539111610250578063ae53e58a11610209578063b3545c01116101e3578063b3545c01146105ba578063b61bb80a14610a5a578063b73cba2a14610a6d578063bf3a7d4014610a8057600080fd5b8063ae53e58a14610a0c578063b1414dbb14610a1f578063b2bc229814610a3257600080fd5b8063a04953911461099a578063a4d2b083146109ad578063a9e56f3c146109c0578063aabf190b146109d3578063aada5bf6146109e6578063ab196def146109f957600080fd5b80638906758d116102a25780638906758d1461092a5780638da5cb5b1461093d578063919982511461094e578063959334f41461096157806396e9aff8146109745780639fc33a9f1461098757600080fd5b8063833eeab9146108d757806383f01939146108ea5780638456cb59146108fd57806385f02dd614610905578063866b20181461090e578063875b6a7b1461091757600080fd5b80634c5b09da1161044c5780636392ab12116103b35780636ca8bd651161036c578063715018a611610346578063715018a6146108965780637153ef861461089e5780637bf604d8146108b15780637ff36fbe146108c457600080fd5b80636ca8bd651461085d5780636f96f6fa1461087057806370d5ae051461088357600080fd5b80636392ab1214610808578063648794a41461081b57806367057b6c146106ba57806367206d401461082e57806368f5416214610841578063693a090b1461084a57600080fd5b80635bc837fc116104055780635bc837fc1461079e5780635c975abb146107b15780635da79d63146107bc5780635fc77d43146107cf5780636183e804146107e257806361b5bf9f146107f557600080fd5b80634c5b09da1461073f5780634d9f7bb2146106ba57806351b78b471461075257806355ebedec14610765578063567e07c914610778578063583bda3b1461078b57600080fd5b8063211019d71161050b5780633f4ba83a116104c457806344a3955e1161049e57806344a3955e146106f857806346008a07146107015780634b0e7216146107195780634bf71bb81461072c57600080fd5b80633f4ba83a146106e757806342da4eb3146106ef57806343788cd2146106ba57600080fd5b8063211019d7146105ba5780632209b59e146106a75780632717eff3146106ba578063320d47cc146106c35780633214471f146106d657806336e9332d146106df57600080fd5b80630fa4e01e1161055d5780630fa4e01e146106535780631334903f1461065c5780631755ff2114610665578063178a8d07146106785780631b0d8aab146106815780631e85b3ad1461069457600080fd5b806305828d3e146105a5578063061c7d48146105ba5780630761a172146105d65780630b6bb30b146105df5780630bbd6cd6146105f25780630daef3211461061d575b600080fd5b6105b86105b33660046150d6565b610c32565b005b6105c36103e881565b6040519081526020015b60405180910390f35b6105c360f35481565b6105b86105ed36600461510c565b610c8a565b610605610600366004615129565b610d38565b604051600160a060020a0390911681526020016105cd565b60cb54610643907501000000000000000000000000000000000000000000900460ff1681565b60405190151581526020016105cd565b6105c360e15481565b6105c360df5481565b60d85461060590600160a060020a031681565b6105c360dd5481565b6105b861068f366004615129565b610d62565b6106056106a2366004615129565b610d94565b6105c36106b5366004615129565b610da4565b6105c361271081565b6105b86106d1366004615129565b610f2d565b6105c360de5481565b6105b8610f5f565b6105b8610f99565b6105c360e25481565b6105c360e35481565b60cb54610605906101009004600160a060020a031681565b6105b86107273660046150d6565b610fd5565b61060561073a366004615129565b611024565b6105b861074d3660046150d6565b611034565b6105b86107603660046150d6565b611083565b6105c3610773366004615129565b6110d2565b6105b86107863660046150d6565b6112ef565b6105b86107993660046150d6565b61133e565b6105b86107ac3660046154d5565b61138d565b60975460ff16610643565b6105b86107ca3660046150d6565b611818565b60cd5461060590600160a060020a031681565b6105b86107f03660046150d6565b611867565b6105b86108033660046150d6565b6118b6565b610605610816366004615129565b611905565b6105c361082936600461568d565b611915565b6105b861083c3660046156af565b611ebc565b6105c360e05481565b60d95461060590600160a060020a031681565b6105b861086b3660046150d6565b611fc4565b60ef5461060590600160a060020a031681565b60d65461060590600160a060020a031681565b6105b8612013565b6105b86108ac3660046156f1565b61204a565b60da5461060590600160a060020a031681565b60d15461060590600160a060020a031681565b6106056108e5366004615129565b61233e565b6105b86108f836600461510c565b61234e565b6105b861238e565b6105c360dc5481565b6105c361232881565b60f45461060590600160a060020a031681565b6105b86109383660046150d6565b6123c8565b603354600160a060020a0316610605565b6105b861095c3660046150d6565b612417565b6105b861096f3660046150d6565b612466565b610605610982366004615129565b6124b5565b60d45461060590600160a060020a031681565b6106056109a8366004615129565b6124c5565b60cf5461060590600160a060020a031681565b60f55461060590600160a060020a031681565b60f05461060590600160a060020a031681565b60f25461060590600160a060020a031681565b60f15461060590600160a060020a031681565b60ee5461060590600160a060020a031681565b60cc5461060590600160a060020a031681565b60f554610a479060a060020a900461ffff1681565b60405161ffff90911681526020016105cd565b60d55461060590600160a060020a031681565b6105b8610a7b3660046150d6565b6124d5565b6105b8610a8e3660046150d6565b612524565b60d75461060590600160a060020a031681565b6105b8610ab43660046150d6565b612573565b6105b8610ac73660046150d6565b61260e565b6105b8610ada3660046150d6565b61265d565b610605610aed366004615129565b6126ac565b6105b8610b003660046150d6565b6126bc565b60d25461060590600160a060020a031681565b6105b8610b2636600461572c565b612751565b6105b8610b39366004615756565b6127b1565b6105c3610b4c36600461568d565b612933565b6105b8610b5f366004615129565b612eda565b60d35461060590600160a060020a031681565b60d05461060590600160a060020a031681565b6105b8610b983660046150d6565b6134ec565b60db5461060590600160a060020a031681565b60c9546106439060ff1681565b60cb546106439060ff1681565b6105c360ca5481565b60ed5461060590600160a060020a031681565b6105b8610bf43660046150d6565b61353b565b60ce5461060590600160a060020a031681565b610605610c1a366004615129565b6135f3565b6105b8610c2d36600461578f565b613603565b603354600160a060020a03163314610c685760405160e560020a62461bcd028152600401610c5f90615816565b60405180910390fd5b60d28054600160a060020a031916600160a060020a0392909216919091179055565b60cb546101009004600160a060020a03163314610cbc5760405160e560020a62461bcd028152600401610c5f9061584b565b60cb805482151575010000000000000000000000000000000000000000000275ff000000000000000000000000000000000000000000199091161790556040517f125177ac7b8930dac1e59c2b30b1b6b9191b30af40cf6bbb5d20fec4d44be60f90610d2d90831515815260200190565b60405180910390a150565b60e68181548110610d4857600080fd5b600091825260209091200154600160a060020a0316905081565b603354600160a060020a03163314610d8f5760405160e560020a62461bcd028152600401610c5f90615816565b60ca55565b60e58181548110610d4857600080fd5b60cc54600090600160a060020a031633600160a060020a031614610ddd5760405160e560020a62461bcd028152600401610c5f90615882565b60026065541415610e035760405160e560020a62461bcd028152600401610c5f906158b9565b600260655560975460ff1615610e2e5760405160e560020a62461bcd028152600401610c5f906158f0565b60008211610e815760405160e560020a62461bcd02815260206004820152601e60248201527f57616e7420746f6b656e206465706f736974206d757374206265203e203000006044820152606401610c5f565b60d054610e9990600160a060020a031633308561370a565b60e254829015801590610eae5750600060e354115b15610ee957610ee6612710610ee060e254610ee060df54610eda60e3548a6137bb90919063ffffffff16565b906137bb565b906137c7565b90505b60e354610ef690826137d3565b60e35560cb5460ff1615610f1157610f0c6137df565b610f22565b60e254610f1e90846137d3565b60e2555b600160655592915050565b603354600160a060020a03163314610f5a5760405160e560020a62461bcd028152600401610c5f90615816565b60f355565b60026065541415610f855760405160e560020a62461bcd028152600401610c5f906158b9565b6002606555610f926137df565b6001606555565b60cb546101009004600160a060020a03163314610fcb5760405160e560020a62461bcd028152600401610c5f9061584b565b610fd361395e565b565b603354600160a060020a031633146110025760405160e560020a62461bcd028152600401610c5f90615816565b60d68054600160a060020a031916600160a060020a0392909216919091179055565b60ec8181548110610d4857600080fd5b603354600160a060020a031633146110615760405160e560020a62461bcd028152600401610c5f90615816565b60d48054600160a060020a031916600160a060020a0392909216919091179055565b603354600160a060020a031633146110b05760405160e560020a62461bcd028152600401610c5f90615816565b60f58054600160a060020a031916600160a060020a0392909216919091179055565b60cc54600090600160a060020a031633600160a060020a03161461110b5760405160e560020a62461bcd028152600401610c5f90615882565b600260655414156111315760405160e560020a62461bcd028152600401610c5f906158b9565b600260655560975460ff161561115c5760405160e560020a62461bcd028152600401610c5f906158f0565b600082116111af5760405160e560020a62461bcd02815260206004820152600760248201527f6e656757616e74000000000000000000000000000000000000000000000000006044820152606401610c5f565b6111ca60e254610ee060e354856137bb90919063ffffffff16565b905060e3548111156111db575060e3545b60e3546111e890826139fd565b60e35560e054612710111561121557611212612710610ee060e054856137bb90919063ffffffff16565b91505b60cb5460ff16156112295761122982613a09565b60d05460405160e060020a6370a08231028152306004820152600091600160a060020a0316906370a0823190602401602060405180830381865afa158015611275573d6000803e3d6000fd5b505050506040513d601f19601f820116820180604052508101906112999190615927565b9050808311156112a7578092505b8260e25410156112b75760e25492505b60e2546112c490846139fd565b60e25560cc5460d0546112e491600160a060020a03918216911685613a5e565b506001606555919050565b603354600160a060020a0316331461131c5760405160e560020a62461bcd028152600401610c5f90615816565b60cd8054600160a060020a031916600160a060020a0392909216919091179055565b603354600160a060020a0316331461136b5760405160e560020a62461bcd028152600401610c5f90615816565b60ce8054600160a060020a031916600160a060020a0392909216919091179055565b600054610100900460ff166113a85760005460ff16156113ac565b303b155b6113cb5760405160e560020a62461bcd028152600401610c5f90615940565b600054610100900460ff161580156113ed576000805461ffff19166101011790555b815160ca5560208083015160c9805460ff191691151591909117905560408084015160cb80546060808801518051750100000000000000000000000000000000000000000074ffffffffffffffffffffffffffffffffffffffffff1990941695151574ffffffffffffffffffffffffffffffffffffffff00191695909517610100600160a060020a0396871681029190911775ff0000000000000000000000000000000000000000001916939093179093558286015160cc8054600160a060020a03199081169287169290921790558386015160cd805483169187169190911790558382015160ce8054831691871691909117905560808085015160cf8054841691881691909117905560a085015160d08054841691881691909117905560c085015160d18054841691881691909117905560e08086015160d2805485169189169190911790559385015160d3805484169188169190911790556101208086015160d48054851691891691909117905561014086015160d7805485169189169190911790556101608087015160d880548616918a16919091179055610180808d015160f58054928a015160d980548916918d169190911790556101a0808b015160da80548a16918e169190911790556101c08b015160db80548a16918e169190911790556101e0909a015160d580548916918d16919091179055928e015160f48054909716908b1617909555968c01519390971675ffffffffffffffffffffffffffffffffffffffffffff199096169590951760a060020a61ffff909316929092029190911790945591870151805160dc558086015160dd559384015160de559083015160df5591810151909155830151805161166e9260ea920190614fe9565b5060a082015180516116889160e891602090910190614fe9565b5060c082015180516116a29160e491602090910190614fe9565b5060e082015180516116bc9160eb91602090910190614fe9565b5061010082015180516116d79160ec91602090910190614fe9565b506040517f8b4c5aee00000000000000000000000000000000000000000000000000000000815273__VaultLibrary__________________________90638b4c5aee906117299060e49060040161599d565b600060405180830381865af4158015611746573d6000803e3d6000fd5b505050506040513d6000823e601f3d908101601f1916820160405261176e91908101906159ed565b80516117829160e691602090910190614fe9565b50610140820151805160ed8054600160a060020a0319908116600160a060020a0393841617909155604083015160ef80548316918416919091179055608083015160f080548316918416919091179055606083015160f18054831691841691909117905560a09092015160f28054909316911617905561180183612573565b8015611813576000805461ff00191690555b505050565b603354600160a060020a031633146118455760405160e560020a62461bcd028152600401610c5f90615816565b60d98054600160a060020a031916600160a060020a0392909216919091179055565b603354600160a060020a031633146118945760405160e560020a62461bcd028152600401610c5f90615816565b60d08054600160a060020a031916600160a060020a0392909216919091179055565b603354600160a060020a031633146118e35760405160e560020a62461bcd028152600401610c5f90615816565b60da8054600160a060020a031916600160a060020a0392909216919091179055565b60ea8181548110610d4857600080fd5b60cc54600090600160a060020a031633600160a060020a03161461194e5760405160e560020a62461bcd028152600401610c5f90615882565b60975460ff16156119745760405160e560020a62461bcd028152600401610c5f906158f0565b600083116119c75760405160e560020a62461bcd02815260206004820152600760248201527f6e656757616e74000000000000000000000000000000000000000000000000006044820152606401610c5f565b60d0546119df90600160a060020a031633308661370a565b60f55460d0546119fc91600160a060020a03918216911685613aa7565b60d55460d154600160a060020a03908116911614611da95760f5546040517fc4de93a5000000000000000000000000000000000000000000000000000000008152600160a060020a0382169163c4de93a591611a6a9160a060020a900461ffff169087903090600401615a79565b6020604051808303816000875af1158015611a89573d6000803e3d6000fd5b505050506040513d601f19601f82011682018060405250810190611aad9190615927565b5060d15460405160e060020a6370a08231028152306004820152600091600160a060020a0316906370a0823190602401602060405180830381865afa158015611afa573d6000803e3d6000fd5b505050506040513d601f19601f82011682018060405250810190611b1e9190615927565b60408051600280825260608201835292935060009290916020830190803683370190505060ed54909150611b5a90600160a060020a0316613b8b565b81600081518110611b6d57611b6d615a9e565b602090810291909101015260f254611b8d90600160a060020a0316613b8b565b81600181518110611ba057611ba0615a9e565b602090810291909101015260408051600280825260608201909252600091816020016020820280368337505060d1546040805160e060020a63313ce5670281529051939450600160a060020a039091169263313ce567925060048083019260209291908290030181865afa158015611c1c573d6000803e3d6000fd5b505050506040513d601f19601f82011682018060405250810190611c409190615ab7565b81600081518110611c5357611c53615a9e565b60ff90921660209283029190910182015260d5546040805160e060020a63313ce5670281529051600160a060020a039092169263313ce567926004808401938290030181865afa158015611cab573d6000803e3d6000fd5b505050506040513d601f19601f82011682018060405250810190611ccf9190615ab7565b81600181518110611ce257611ce2615a9e565b60ff9092166020928302919091019091015260d95460d154611d1191600160a060020a03918216911685613aa7565b611da183838760e6805480602002602001604051908101604052809291908181526020018280548015611d6d57602002820191906000526020600020905b8154600160a060020a03168152600190910190602001808311611d4f575b50505050508533611d89610258426137d390919063ffffffff16565b60d954600160a060020a031696959493929190613cdb565b505050611e44565b60f5546040517fc4de93a5000000000000000000000000000000000000000000000000000000008152600160a060020a0382169163c4de93a591611dff9160a060020a900461ffff169087903390600401615a79565b6020604051808303816000875af1158015611e1e573d6000803e3d6000fd5b505050506040513d601f19601f82011682018060405250810190611e429190615927565b505b60d55460405160e060020a6370a08231028152336004820152600160a060020a03909116906370a0823190602401602060405180830381865afa158015611e8f573d6000803e3d6000fd5b505050506040513d601f19601f82011682018060405250810190611eb39190615927565b90505b92915050565b60cb546101009004600160a060020a03163314611eee5760405160e560020a62461bcd028152600401610c5f9061584b565b60d354600160a060020a0384811691161415611f4f5760405160e560020a62461bcd02815260206004820152600560248201527f21736166650000000000000000000000000000000000000000000000000000006044820152606401610c5f565b60d054600160a060020a0384811691161415611fb05760405160e560020a62461bcd02815260206004820152600560248201527f21736166650000000000000000000000000000000000000000000000000000006044820152606401610c5f565b611813600160a060020a0384168284613a5e565b603354600160a060020a03163314611ff15760405160e560020a62461bcd028152600401610c5f90615816565b60cf8054600160a060020a031916600160a060020a0392909216919091179055565b603354600160a060020a031633146120405760405160e560020a62461bcd028152600401610c5f90615816565b610fd36000613e5b565b60cb546101009004600160a060020a0316331461207c5760405160e560020a62461bcd028152600401610c5f9061584b565b6123288510156120d15760405160e560020a62461bcd02815260206004820152601a60248201527f5f656e7472616e6365466565466163746f7220746f6f206c6f770000000000006044820152606401610c5f565b6127108511156121265760405160e560020a62461bcd02815260206004820152601b60248201527f5f656e7472616e6365466565466163746f7220746f6f206869676800000000006044820152606401610c5f565b60df8590556123288410156121805760405160e560020a62461bcd02815260206004820152601a60248201527f5f7769746864726177466565466163746f7220746f6f206c6f770000000000006044820152606401610c5f565b6127108411156121d55760405160e560020a62461bcd02815260206004820152601b60248201527f5f7769746864726177466565466163746f7220746f6f206869676800000000006044820152606401610c5f565b60e08490556103e883111561222f5760405160e560020a62461bcd02815260206004820152601760248201527f5f636f6e74726f6c6c657246656520746f6f20686967680000000000000000006044820152606401610c5f565b60dc8390556103e88211156122895760405160e560020a62461bcd02815260206004820152601560248201527f5f6275794261636b5261746520746f6f206869676800000000000000000000006044820152606401610c5f565b60dd8290556103e88111156122e35760405160e560020a62461bcd02815260206004820152601660248201527f5f72657653686172655261746520746f6f2068696768000000000000000000006044820152606401610c5f565b60de819055604080518681526020810186905290810184905260608101839052608081018290527fc67e0b149a57a70fa44a531a46c2c6d8e0b242fa12f459f250012c3a5987d29a9060a00160405180910390a15050505050565b60e48181548110610d4857600080fd5b603354600160a060020a0316331461237b5760405160e560020a62461bcd028152600401610c5f90615816565b60cb805460ff1916911515919091179055565b60cb546101009004600160a060020a031633146123c05760405160e560020a62461bcd028152600401610c5f9061584b565b610fd3613ead565b603354600160a060020a031633146123f55760405160e560020a62461bcd028152600401610c5f90615816565b60d78054600160a060020a031916600160a060020a0392909216919091179055565b603354600160a060020a031633146124445760405160e560020a62461bcd028152600401610c5f90615816565b60f48054600160a060020a031916600160a060020a0392909216919091179055565b603354600160a060020a031633146124935760405160e560020a62461bcd028152600401610c5f90615816565b60db8054600160a060020a031916600160a060020a0392909216919091179055565b60e98181548110610d4857600080fd5b60e78181548110610d4857600080fd5b603354600160a060020a031633146125025760405160e560020a62461bcd028152600401610c5f90615816565b60d38054600160a060020a031916600160a060020a0392909216919091179055565b603354600160a060020a031633146125515760405160e560020a62461bcd028152600401610c5f90615816565b60cc8054600160a060020a031916600160a060020a0392909216919091179055565b600054610100900460ff1661258e5760005460ff1615612592565b303b155b6125b15760405160e560020a62461bcd028152600401610c5f90615940565b600054610100900460ff161580156125d3576000805461ffff19166101011790555b6125db613f08565b6125e48261353b565b60d68054600160a060020a03191661dead179055801561260a576000805461ff00191690555b5050565b603354600160a060020a0316331461263b5760405160e560020a62461bcd028152600401610c5f90615816565b60d58054600160a060020a031916600160a060020a0392909216919091179055565b603354600160a060020a0316331461268a5760405160e560020a62461bcd028152600401610c5f90615816565b60d18054600160a060020a031916600160a060020a0392909216919091179055565b60e88181548110610d4857600080fd5b60cb546101009004600160a060020a031633146126ee5760405160e560020a62461bcd028152600401610c5f9061584b565b60cb805474ffffffffffffffffffffffffffffffffffffffff001916610100600160a060020a038416908102919091179091556040519081527f91a8c1cc2d4a3bb60738481947a00cbb9899c822916694cf8bb1d68172fdcd5490602001610d2d565b603354600160a060020a0316331461277e5760405160e560020a62461bcd028152600401610c5f90615816565b60f5805461ffff90921660a060020a0275ffff000000000000000000000000000000000000000019909216919091179055565b603354600160a060020a031633146127de5760405160e560020a62461bcd028152600401610c5f90615816565b60ff82166128075760ed8054600160a060020a038316600160a060020a03199091161790555050565b8160ff16600114156128345760ee8054600160a060020a038316600160a060020a03199091161790555050565b8160ff16600214156128615760ef8054600160a060020a038316600160a060020a03199091161790555050565b8160ff166003141561288e5760f18054600160a060020a038316600160a060020a03199091161790555050565b8160ff16600414156128bb5760f08054600160a060020a038316600160a060020a03199091161790555050565b8160ff16600514156128e85760f28054600160a060020a038316600160a060020a03199091161790555050565b60405160e560020a62461bcd02815260206004820152601460248201527f756e737570706f727465642066656564206964780000000000000000000000006044820152606401610c5f565b60cc54600090600160a060020a031633600160a060020a03161461296c5760405160e560020a62461bcd028152600401610c5f90615882565b60975460ff16156129925760405160e560020a62461bcd028152600401610c5f906158f0565b60d55460405160e060020a6370a08231028152306004820152600091600160a060020a0316906370a0823190602401602060405180830381865afa1580156129de573d6000803e3d6000fd5b505050506040513d601f19601f82011682018060405250810190612a029190615927565b905060008411612a575760405160e560020a62461bcd02815260206004820152600660248201527f6465703c3d3000000000000000000000000000000000000000000000000000006044820152606401610c5f565b80841115612aaa5760405160e560020a62461bcd02815260206004820152600760248201527f616d743e62616c000000000000000000000000000000000000000000000000006044820152606401610c5f565b6040805160028082526060820183526000926020830190803683370190505060f254909150612ae190600160a060020a0316613b8b565b81600081518110612af457612af4615a9e565b602090810291909101015260ed54612b1490600160a060020a0316613b8b565b81600181518110612b2757612b27615a9e565b602090810291909101015260d15460d554600160a060020a03908116911614612d2657604080516002808252606082018352600092602083019080368337505060d5546040805160e060020a63313ce5670281529051939450600160a060020a039091169263313ce567925060048083019260209291908290030181865afa158015612bb7573d6000803e3d6000fd5b505050506040513d601f19601f82011682018060405250810190612bdb9190615ab7565b81600081518110612bee57612bee615a9e565b60ff90921660209283029190910182015260d1546040805160e060020a63313ce5670281529051600160a060020a039092169263313ce567926004808401938290030181865afa158015612c46573d6000803e3d6000fd5b505050506040513d601f19601f82011682018060405250810190612c6a9190615ab7565b81600181518110612c7d57612c7d615a9e565b60ff9092166020928302919091019091015260d95460d554612cac91600160a060020a03918216911688613aa7565b612d2486838760e4805480602002602001604051908101604052809291908181526020018280548015612d0857602002820191906000526020600020905b8154600160a060020a03168152600190910190602001808311612cea575b50505050508530611d89610258426137d390919063ffffffff16565b505b60d15460405160e060020a6370a08231028152306004820152600091600160a060020a0316906370a0823190602401602060405180830381865afa158015612d72573d6000803e3d6000fd5b505050506040513d601f19601f82011682018060405250810190612d969190615927565b60f55460d154919250612db691600160a060020a03908116911683613aa7565b60f5546040517f87b21efc000000000000000000000000000000000000000000000000000000008152600160a060020a038216916387b21efc91612e0c9160a060020a900461ffff169085903090600401615a79565b600060405180830381600087803b158015612e2657600080fd5b505af1158015612e3a573d6000803e3d6000fd5b505060d05460405160e060020a6370a0823102815230600482015260009350600160a060020a0390911691506370a0823190602401602060405180830381865afa158015612e8c573d6000803e3d6000fd5b505050506040513d601f19601f82011682018060405250810190612eb09190615927565b60cc5460d054919250612ed091600160a060020a03908116911683613a5e565b9695505050505050565b60026065541415612f005760405160e560020a62461bcd028152600401610c5f906158b9565b600260655560975460ff1615612f2b5760405160e560020a62461bcd028152600401610c5f906158f0565b60cb5460ff16612f805760405160e560020a62461bcd02815260206004820152600960248201527f216661726d61626c6500000000000000000000000000000000000000000000006044820152606401610c5f565b60cb547501000000000000000000000000000000000000000000900460ff1615612fd65760cb546101009004600160a060020a03163314612fd65760405160e560020a62461bcd028152600401610c5f9061584b565b612fe06000613a09565b60d35460405160e060020a6370a08231028152306004820152600091600160a060020a0316906370a0823190602401602060405180830381865afa15801561302c573d6000803e3d6000fd5b505050506040513d601f19601f820116820180604052508101906130509190615927565b9050600081116130a55760405160e560020a62461bcd02815260206004820152600560248201527f306561726e0000000000000000000000000000000000000000000000000000006044820152606401610c5f565b604080516080810190915260ef546000919081906130cb90600160a060020a0316613b8b565b815260f1546020909101906130e890600160a060020a0316613b8b565b815260f05460209091019061310590600160a060020a0316613b8b565b815260f25460209091019061312290600160a060020a0316613b8b565b9052604080516002808252606082018352929350600092909160208301908036833701905050905081600001518160008151811061316257613162615a9e565b602090810291909101015260ed5461318290600160a060020a0316613b8b565b8160018151811061319557613195615a9e565b60200260200101818152505060006131ac84613f3a565b90506000806131bc868887613f8a565b909250905060006131d9826131d385818b896139fd565b906139fd565b6040805160028082526060820183529293506000929091602083019080368337505060d3546040805160e060020a63313ce5670281529051939450600160a060020a039091169263313ce567925060048083019260209291908290030181865afa15801561324b573d6000803e3d6000fd5b505050506040513d601f19601f8201168201806040525081019061326f9190615ab7565b8160008151811061328257613282615a9e565b60ff90921660209283029190910182015260d1546040805160e060020a63313ce5670281529051600160a060020a039092169263313ce567926004808401938290030181865afa1580156132da573d6000803e3d6000fd5b505050506040513d601f19601f820116820180604052508101906132fe9190615ab7565b8160018151811061331157613311615a9e565b60ff9092166020928302919091019091015260d95460d35461334091600160a060020a0391821691168a613aa7565b6133b682878b60e8805480602002602001604051908101604052809291908181526020018280548015612d0857602002820191906000526020600020908154600160a060020a03168152600190910190602001808311612cea5750505050508530611d89610258426137d390919063ffffffff16565b60d15460405160e060020a6370a08231028152306004820152600091600160a060020a0316906370a0823190602401602060405180830381865afa158015613402573d6000803e3d6000fd5b505050506040513d601f19601f820116820180604052508101906134269190615927565b60f55460d15491925061344691600160a060020a03908116911683613aa7565b60f5546040517f87b21efc000000000000000000000000000000000000000000000000000000008152600160a060020a038216916387b21efc9161349c9160a060020a900461ffff169085903090600401615a79565b600060405180830381600087803b1580156134b657600080fd5b505af11580156134ca573d6000803e3d6000fd5b50504360e155506134db90506137df565b505060016065555050505050505050565b603354600160a060020a031633146135195760405160e560020a62461bcd028152600401610c5f90615816565b60d88054600160a060020a031916600160a060020a0392909216919091179055565b603354600160a060020a031633146135685760405160e560020a62461bcd028152600401610c5f90615816565b600160a060020a0381166135e75760405160e560020a62461bcd02815260206004820152602660248201527f4f776e61626c653a206e6577206f776e657220697320746865207a65726f206160448201527f64647265737300000000000000000000000000000000000000000000000000006064820152608401610c5f565b6135f081613e5b565b50565b60eb8181548110610d4857600080fd5b603354600160a060020a031633146136305760405160e560020a62461bcd028152600401610c5f90615816565b60ff831661364a5761364460e4838361504e565b50505050565b8260ff16600114156136625761364460e5838361504e565b8260ff166002141561367a5761364460e6838361504e565b8260ff16600314156136925761364460e7838361504e565b8260ff16600414156136aa5761364460e8838361504e565b8260ff16600514156136c25761364460e9838361504e565b8260ff16600614156136da5761364460ea838361504e565b8260ff16600714156136f25761364460eb838361504e565b8260ff16600814156128e85761364460ec838361504e565b604051600160a060020a03808516602483015283166044820152606481018290526136449085907f23b872dd00000000000000000000000000000000000000000000000000000000906084015b60408051601f198184030181529190526020810180517bffffffffffffffffffffffffffffffffffffffffffffffffffffffff167fffffffff00000000000000000000000000000000000000000000000000000000909316929092179091526140bb565b6000611eb38284615aed565b6000611eb38284615b0c565b6000611eb38284615b31565b60cb5460ff166138345760405160e560020a62461bcd02815260206004820152600960248201527f216661726d61626c6500000000000000000000000000000000000000000000006044820152606401610c5f565b60d05460405160e060020a6370a08231028152306004820152600091600160a060020a0316906370a0823190602401602060405180830381865afa158015613880573d6000803e3d6000fd5b505050506040513d601f19601f820116820180604052508101906138a49190615927565b60e2549091506138b490826137d3565b60e25560d45460d0546138d491600160a060020a03918216911683613aa7565b60d45460ca546040517fe2bbb158000000000000000000000000000000000000000000000000000000008152600160a060020a039092169163e2bbb15891613929918590600401918252602082015260400190565b600060405180830381600087803b15801561394357600080fd5b505af1158015613957573d6000803e3d6000fd5b5050505050565b60975460ff166139b35760405160e560020a62461bcd02815260206004820152601460248201527f5061757361626c653a206e6f74207061757365640000000000000000000000006044820152606401610c5f565b6097805460ff191690557f5db9ee0a495bf2e6ff9c91a7834c1ba4fdd244a5e8aa4e537bd38aeae4b073aa335b604051600160a060020a03909116815260200160405180910390a1565b6000611eb38284615b49565b60d45460ca546040517f441a3e70000000000000000000000000000000000000000000000000000000008152600160a060020a039092169163441a3e7091613929918590600401918252602082015260400190565b604051600160a060020a0383166024820152604481018290526118139084907fa9059cbb0000000000000000000000000000000000000000000000000000000090606401613757565b6040517fdd62ed3e000000000000000000000000000000000000000000000000000000008152306004820152600160a060020a038381166024830152600091839186169063dd62ed3e90604401602060405180830381865afa158015613b11573d6000803e3d6000fd5b505050506040513d601f19601f82011682018060405250810190613b359190615927565b613b3f9190615b31565b604051600160a060020a0385166024820152604481018290529091506136449085907f095ea7b30000000000000000000000000000000000000000000000000000000090606401613757565b60008082600160a060020a031663313ce5676040518163ffffffff1660e060020a028152600401602060405180830381865afa158015613bcf573d6000803e3d6000fd5b505050506040513d601f19601f82011682018060405250810190613bf39190615ab7565b9050600083600160a060020a031663feaf968c6040518163ffffffff1660e060020a02815260040160a060405180830381865afa158015613c38573d6000803e3d6000fd5b505050506040513d601f19601f82011682018060405250810190613c5c9190615b7a565b5050509150506000811215613cb65760405160e560020a62461bcd02815260206004820152601660248201527f6e656720707269636573206e6f7420616c6c6f776564000000000000000000006044820152606401610c5f565b613cd3613cc483600a615cb1565b610ee08364e8d4a510006137bb565b949350505050565b8251600214613d2f5760405160e560020a62461bcd02815260206004820152600b60248201527f696e76616c6964206465630000000000000000000000000000000000000000006044820152606401610c5f565b600086600081518110613d4457613d44615a9e565b602002602001015160001480613d74575086600181518110613d6857613d68615a9e565b60200260200101516000145b15613d8d57613d8689898789886141a3565b9050613dd1565b613dce8888600081518110613da457613da4615a9e565b602002602001015189600181518110613dbf57613dbf615a9e565b602002602001015189886142c3565b90505b6040517f5c11d795000000000000000000000000000000000000000000000000000000008152600160a060020a038a1690635c11d79590613e1e908b9085908a9089908990600401615d04565b600060405180830381600087803b158015613e3857600080fd5b505af1158015613e4c573d6000803e3d6000fd5b50505050505050505050505050565b60338054600160a060020a03838116600160a060020a0319831681179093556040519116919082907f8be0079c531659141344cd1fd0a4f28419497f9722a3daafe3b4186f6b6457e090600090a35050565b60975460ff1615613ed35760405160e560020a62461bcd028152600401610c5f906158f0565b6097805460ff191660011790557f62e78cea01bee320cd4e420270b5ea74000d11b0c9f74754ebdbfc544b05a2586139e03390565b600054610100900460ff16613f325760405160e560020a62461bcd028152600401610c5f90615d40565b610fd3614334565b60008115613f855760dc5415613f8557613f65612710610ee060dc54856137bb90919063ffffffff16565b60d75460d354919250613f8591600160a060020a03908116911683613a5e565b919050565b600080600060dd541115613fb657613fb3612710610ee060dd54886137bb90919063ffffffff16565b91505b60de5415613fdc57613fd9612710610ee060de54886137bb90919063ffffffff16565b90505b60c95460ff161561400257613ff2828585614367565b613ffd8185856147a7565b6140b3565b61402261400f83836137d3565b60cc54600160a060020a031686866149f0565b60cd5460ca546040517f464e3c8b0000000000000000000000000000000000000000000000000000000081526004810191909152602481018490526044810183905260648101869052600160a060020a039091169063464e3c8b90608401600060405180830381600087803b15801561409a57600080fd5b505af11580156140ae573d6000803e3d6000fd5b505050505b935093915050565b6000614110826040518060400160405280602081526020017f5361666545524332303a206c6f772d6c6576656c2063616c6c206661696c656481525085600160a060020a0316614c3c9092919063ffffffff16565b805190915015611813578080602001905181019061412e9190615d9d565b6118135760405160e560020a62461bcd02815260206004820152602a60248201527f5361666545524332303a204552433230206f7065726174696f6e20646964206e60448201527f6f742073756363656564000000000000000000000000000000000000000000006064820152608401610c5f565b60008086600160a060020a031663d06ca61f87876040518363ffffffff1660e060020a0281526004016141d7929190615dba565b600060405180830381865afa1580156141f4573d6000803e3d6000fd5b505050506040513d6000823e601f3d908101601f1916820160405261421c9190810190615dd3565b90506142b861424e6103e88560008151811061423a5761423a615a9e565b6020026020010151600a610eda9190615cb1565b610ee08560018151811061426457614264615a9e565b6020026020010151600a6142789190615cb1565b610eda8886614292600189516139fd90919063ffffffff16565b815181106142a2576142a2615a9e565b60200260200101516137bb90919063ffffffff16565b979650505050505050565b6000612ed06142fe836000815181106142de576142de615a9e565b6020026020010151600a6142f29190615cb1565b610eda876103e86137bb565b610ee08460018151811061431457614314615a9e565b6020026020010151600a6143289190615cb1565b610eda87818c8c6137bb565b600054610100900460ff1661435e5760405160e560020a62461bcd028152600401610c5f90615d40565b610fd333613e5b565b604080516002808252606082018352600092602083019080368337505060d3546040805160e060020a63313ce5670281529051939450600160a060020a039091169263313ce567925060048083019260209291908290030181865afa1580156143d4573d6000803e3d6000fd5b505050506040513d601f19601f820116820180604052508101906143f89190615ab7565b8160008151811061440b5761440b615a9e565b60ff90921660209283029190910182015260ce546040805160e060020a63313ce5670281529051600160a060020a039092169263313ce567926004808401938290030181865afa158015614463573d6000803e3d6000fd5b505050506040513d601f19601f820116820180604052508101906144879190615ab7565b8160018151811061449a5761449a615a9e565b60ff929092166020928302919091018201526040805160028082526060820183526000939192909183019080368337019050509050816000815181106144e2576144e2615a9e565b6020026020010151816000815181106144fd576144fd615a9e565b60ff90921660209283029190910182015260db546040805160e060020a63313ce5670281529051600160a060020a039092169263313ce567926004808401938290030181865afa158015614555573d6000803e3d6000fd5b505050506040513d601f19601f820116820180604052508101906145799190615ab7565b8160018151811061458c5761458c615a9e565b60ff9290921660209283029190910182015260408051600280825260608201835260009391929091830190803683370190505090508360000151816000815181106145d9576145d9615a9e565b6020026020010181815250508360200151816001815181106145fd576145fd615a9e565b60209081029190910101526040805160028082526060820190925260009181602001602082028036833701905050905084600001518160008151811061464557614645615a9e565b60200260200101818152505084604001518160018151811061466957614669615a9e565b602090810291909101015260d95460d35461469191600160a060020a03918216911689613aa7565b61471361469f8860026137c7565b838860ea8054806020026020016040519081016040528092919081815260200182805480156146f757602002820191906000526020600020905b8154600160a060020a031681526001909101906020018083116146d9575b50505050508830611d89610258426137d390919063ffffffff16565b6147956147218860026137c7565b828860eb80548060200260200160405190810160405280929190818152602001828054801561477957602002820191906000526020600020905b8154600160a060020a0316815260019091019060200180831161475b575b50505050508730611d89610258426137d390919063ffffffff16565b61479e86614c55565b50505050505050565b604080516002808252606082018352600092602083019080368337505060d3546040805160e060020a63313ce5670281529051939450600160a060020a039091169263313ce567925060048083019260209291908290030181865afa158015614814573d6000803e3d6000fd5b505050506040513d601f19601f820116820180604052508101906148389190615ab7565b8160008151811061484b5761484b615a9e565b60ff90921660209283029190910182015260ce546040805160e060020a63313ce5670281529051600160a060020a039092169263313ce567926004808401938290030181865afa1580156148a3573d6000803e3d6000fd5b505050506040513d601f19601f820116820180604052508101906148c79190615ab7565b816001815181106148da576148da615a9e565b60ff92909216602092830291909101820152604080516002808252606082018352600093919290918301908036833701905050905082600001518160008151811061492757614927615a9e565b60200260200101818152505082602001518160018151811061494b5761494b615a9e565b602090810291909101015260d95460d35461497391600160a060020a03918216911687613aa7565b61395785828660ea8054806020026020016040519081016040528092919081815260200182805480156149cf57602002820191906000526020600020905b8154600160a060020a031681526001909101906020018083116149b1575b505060cf548a9350600160a060020a03169150611d899050426102586137d3565b604080516002808252606082018352600092602083019080368337505060d3546040805160e060020a63313ce5670281529051939450600160a060020a039091169263313ce567925060048083019260209291908290030181865afa158015614a5d573d6000803e3d6000fd5b505050506040513d601f19601f82011682018060405250810190614a819190615ab7565b81600081518110614a9457614a94615a9e565b60ff90921660209283029190910182015260d5546040805160e060020a63313ce5670281529051600160a060020a039092169263313ce567926004808401938290030181865afa158015614aec573d6000803e3d6000fd5b505050506040513d601f19601f82011682018060405250810190614b109190615ab7565b81600181518110614b2357614b23615a9e565b60ff929092166020928302919091018201526040805160028082526060820183526000939192909183019080368337019050509050826000015181600081518110614b7057614b70615a9e565b602002602001018181525050826060015181600181518110614b9457614b94615a9e565b602090810291909101015260d95460d354614bbc91600160a060020a03918216911688613aa7565b614c3486828660ec805480602002602001604051908101604052809291908181526020018280548015614c1857602002820191906000526020600020905b8154600160a060020a03168152600190910190602001808311614bfa575b5050505050868a611d89610258426137d390919063ffffffff16565b505050505050565b6060614c4b8484600085614e6e565b90505b9392505050565b60ce5460405160e060020a6370a08231028152306004820152600091600160a060020a0316906370a0823190602401602060405180830381865afa158015614ca1573d6000803e3d6000fd5b505050506040513d601f19601f82011682018060405250810190614cc59190615927565b60db5460405160e060020a6370a08231028152306004820152919250600091600160a060020a03909116906370a0823190602401602060405180830381865afa158015614d16573d6000803e3d6000fd5b505050506040513d601f19601f82011682018060405250810190614d3a9190615927565b60d95460ce54919250614d5a91600160a060020a03908116911684613aa7565b60d95460db54614d7791600160a060020a03918216911683613aa7565b60d95460ce5460db54600160a060020a039283169263e8e3370092811691168585614da86103e8610ee0848c6137bb565b614db86103e8610ee08a8d6137bb565b60d654600160a060020a0316614dd0426102586137d3565b60405163ffffffff8a1660e060020a028152600160a060020a039889166004820152968816602488015260448701959095526064860193909352608485019190915260a484015290921660c482015260e4810191909152610104016060604051808303816000875af1158015614e4a573d6000803e3d6000fd5b505050506040513d601f19601f82011682018060405250810190614c349190615e56565b60603031831115614eea5760405160e560020a62461bcd02815260206004820152602660248201527f416464726573733a20696e73756666696369656e742062616c616e636520666f60448201527f722063616c6c00000000000000000000000000000000000000000000000000006064820152608401610c5f565b600160a060020a0385163b614f445760405160e560020a62461bcd02815260206004820152601d60248201527f416464726573733a2063616c6c20746f206e6f6e2d636f6e74726163740000006044820152606401610c5f565b60008086600160a060020a03168587604051614f609190615eb0565b60006040518083038185875af1925050503d8060008114614f9d576040519150601f19603f3d011682016040523d82523d6000602084013e614fa2565b606091505b50915091506142b882828660608315614fbc575081614c4e565b825115614fcc5782518084602001fd5b8160405160e560020a62461bcd028152600401610c5f9190615ecc565b82805482825590600052602060002090810192821561503e579160200282015b8281111561503e5782518254600160a060020a031916600160a060020a03909116178255602090920191600190910190615009565b5061504a9291506150a1565b5090565b82805482825590600052602060002090810192821561503e579160200282015b8281111561503e578154600160a060020a031916600160a060020a0384351617825560209092019160019091019061506e565b5b8082111561504a57600081556001016150a2565b600160a060020a03811681146135f057600080fd5b8035613f85816150b6565b6000602082840312156150e857600080fd5b8135614c4e816150b6565b80151581146135f057600080fd5b8035613f85816150f3565b60006020828403121561511e57600080fd5b8135614c4e816150f3565b60006020828403121561513b57600080fd5b5035919050565b60e060020a634e487b7102600052604160045260246000fd5b604051610200810167ffffffffffffffff8111828210171561517f5761517f615142565b60405290565b6040516101c0810167ffffffffffffffff8111828210171561517f5761517f615142565b604051601f8201601f1916810167ffffffffffffffff811182821017156151d2576151d2615142565b604052919050565b600061020082840312156151ed57600080fd5b6151f561515b565b9050615200826150cb565b815261520e602083016150cb565b602082015261521f604083016150cb565b6040820152615230606083016150cb565b6060820152615241608083016150cb565b608082015261525260a083016150cb565b60a082015261526360c083016150cb565b60c082015261527460e083016150cb565b60e08201526101006152878184016150cb565b908201526101206152998382016150cb565b908201526101406152ab8382016150cb565b908201526101606152bd8382016150cb565b908201526101806152cf8382016150cb565b908201526101a06152e18382016150cb565b908201526101c06152f38382016150cb565b908201526101e06153058382016150cb565b9082015292915050565b600067ffffffffffffffff82111561532957615329615142565b5060209081020190565b600082601f83011261534457600080fd5b813560206153596153548361530f565b6151a9565b8281529181028401810191818101908684111561537557600080fd5b8286015b8481101561539957803561538c816150b6565b8352918301918301615379565b509695505050505050565b600060a082840312156153b657600080fd5b60405160a0810181811067ffffffffffffffff821117156153d9576153d9615142565b806040525080915082358152602083013560208201526040830135604082015260608301356060820152608083013560808201525092915050565b600060c0828403121561542657600080fd5b60405160c0810181811067ffffffffffffffff8211171561544957615449615142565b604052905080823561545a816150b6565b8152602083013561546a816150b6565b6020820152604083013561547d816150b6565b60408201526060830135615490816150b6565b606082015260808301356154a3816150b6565b608082015260a08301356154b6816150b6565b60a0919091015292915050565b803561ffff81168114613f8557600080fd5b600080604083850312156154e857600080fd5b82356154f3816150b6565b9150602083013567ffffffffffffffff8082111561551057600080fd5b908401906104c0828703121561552557600080fd5b61552d615185565b8235815261553d60208401615101565b602082015261554e60408401615101565b604082015261556087606085016151da565b60608201526102608301358281111561557857600080fd5b61558488828601615333565b6080830152506102808301358281111561559d57600080fd5b6155a988828601615333565b60a0830152506102a0830135828111156155c257600080fd5b6155ce88828601615333565b60c0830152506102c0830135828111156155e757600080fd5b6155f388828601615333565b60e0830152506102e08301358281111561560c57600080fd5b61561888828601615333565b6101008301525061562d8761030085016153a4565b610120820152615641876103a08501615414565b61014082015261565461046084016150cb565b61016082015261566761048084016150cb565b61018082015261567a6104a084016154c3565b6101a08201528093505050509250929050565b600080604083850312156156a057600080fd5b50508035926020909101359150565b6000806000606084860312156156c457600080fd5b83356156cf816150b6565b92506020840135915060408401356156e6816150b6565b809150509250925092565b600080600080600060a0868803121561570957600080fd5b505083359560208501359550604085013594606081013594506080013592509050565b60006020828403121561573e57600080fd5b611eb3826154c3565b60ff811681146135f057600080fd5b6000806040838503121561576957600080fd5b823561577481615747565b91506020830135615784816150b6565b809150509250929050565b6000806000604084860312156157a457600080fd5b83356157af81615747565b9250602084013567ffffffffffffffff808211156157cc57600080fd5b818601915086601f8301126157e057600080fd5b8135818111156157ef57600080fd5b876020808302850101111561580357600080fd5b6020830194508093505050509250925092565b6020808252818101527f4f776e61626c653a2063616c6c6572206973206e6f7420746865206f776e6572604082015260600190565b60208082526004908201527f21676f7600000000000000000000000000000000000000000000000000000000604082015260600190565b60208082526010908201527f217a6f72726f436f6e74726f6c6c657200000000000000000000000000000000604082015260600190565b6020808252601f908201527f5265656e7472616e637947756172643a207265656e7472616e742063616c6c00604082015260600190565b60208082526010908201527f5061757361626c653a2070617573656400000000000000000000000000000000604082015260600190565b60006020828403121561593957600080fd5b5051919050565b6020808252602e908201527f496e697469616c697a61626c653a20636f6e747261637420697320616c72656160408201527f647920696e697469616c697a6564000000000000000000000000000000000000606082015260800190565b6020808252825482820181905260008481528281209092916040850190845b818110156159e1578354600160a060020a0316835260019384019392850192016159bc565b50909695505050505050565b60006020808385031215615a0057600080fd5b825167ffffffffffffffff811115615a1757600080fd5b8301601f81018513615a2857600080fd5b8051615a366153548261530f565b81815290830282018301908381019087831115615a5257600080fd5b928401925b828410156142b8578351615a6a816150b6565b82529284019290840190615a57565b61ffff9390931683526020830191909152600160a060020a0316604082015260600190565b60e060020a634e487b7102600052603260045260246000fd5b600060208284031215615ac957600080fd5b8151614c4e81615747565b60e060020a634e487b7102600052601160045260246000fd5b6000816000190483118215151615615b0757615b07615ad4565b500290565b600082615b2c5760e060020a634e487b7102600052601260045260246000fd5b500490565b60008219821115615b4457615b44615ad4565b500190565b600082821015615b5b57615b5b615ad4565b500390565b805169ffffffffffffffffffff81168114613f8557600080fd5b600080600080600060a08688031215615b9257600080fd5b615b9b86615b60565b9450602086015193506040860151925060608601519150615bbe60808701615b60565b90509295509295909350565b600181815b80851115615c07578160001904821115615beb57615beb615ad4565b80851615615bf857918102915b60029094049390800290615bcf565b509250929050565b600082615c1e57506001611eb6565b81615c2b57506000611eb6565b8160018114615c415760028114615c4b57615c68565b6001915050611eb6565b60ff841115615c5c57615c5c615ad4565b8360020a915050611eb6565b5060208310610133831016604e8410600b8410161715615c8b575081810a611eb6565b615c958383615bca565b8060001904821115615ca957615ca9615ad4565b029392505050565b6000611eb360ff841683615c0f565b600081518084526020808501945080840160005b83811015615cf9578151600160a060020a031687529582019590820190600101615cd4565b509495945050505050565b85815284602082015260a060408201526000615d2360a0830186615cc0565b600160a060020a0394909416606083015250608001529392505050565b6020808252602b908201527f496e697469616c697a61626c653a20636f6e7472616374206973206e6f74206960408201527f6e697469616c697a696e67000000000000000000000000000000000000000000606082015260800190565b600060208284031215615daf57600080fd5b8151614c4e816150f3565b828152604060208201526000614c4b6040830184615cc0565b60006020808385031215615de657600080fd5b825167ffffffffffffffff811115615dfd57600080fd5b8301601f81018513615e0e57600080fd5b8051615e1c6153548261530f565b81815290830282018301908381019087831115615e3857600080fd5b928401925b828410156142b857835182529284019290840190615e3d565b600080600060608486031215615e6b57600080fd5b8351925060208401519150604084015190509250925092565b60005b83811015615e9f578181015183820152602001615e87565b838111156136445750506000910152565b60008251615ec2818460208701615e84565b9190910192915050565b6020815260008251806020840152615eeb816040850160208701615e84565b601f01601f1916919091016040019291505056fea2646970667358221220830f1d44a4903f6e92f6c918254d10bb507f811b6e1d120368292d8778a07e4464736f6c634300080a0033",
  "immutableReferences": {},
  "source": "// SPDX-License-Identifier: MIT\n\npragma solidity ^0.8.0;\n\nimport \"@openzeppelin/contracts-upgradeable/token/ERC20/utils/SafeERC20Upgradeable.sol\";\n\nimport \"../interfaces/IAMMFarm.sol\";\n\nimport \"../interfaces/Stargate/IStargateRouter.sol\";\n\nimport \"@openzeppelin/contracts-upgradeable/token/ERC20/IERC20Upgradeable.sol\";\n\nimport \"@openzeppelin/contracts-upgradeable/token/ERC20/ERC20Upgradeable.sol\";\n\nimport \"@openzeppelin/contracts-upgradeable/utils/math/SafeMathUpgradeable.sol\";\n\nimport \"./_VaultBase.sol\";\n\nimport \"../libraries/PriceFeed.sol\";\n\nimport \"../interfaces/Stargate/IStargateLPStaking.sol\";\n\nimport \"./libraries/VaultLibrary.sol\";\n\n\n/// @title Vault contract for Stargate single token strategies (e.g. for lending bridgeable tokens)\ncontract VaultStargate is VaultBase {\n    /* Libraries */\n    using SafeMathUpgradeable for uint256;\n    using SafeERC20Upgradeable for IERC20Upgradeable;\n    using SafeSwapUni for IAMMRouter02;\n    using PriceFeed for AggregatorV3Interface;\n\n    /* Constructor */\n    /// @notice Upgradeable constructor\n    /// @param _initValue A VaultStargateInit struct containing all init values\n    /// @param _timelockOwner The designated timelock controller address to act as owner\n    function initialize(\n        address _timelockOwner,\n        VaultStargateInit memory _initValue\n    ) public initializer {\n        // Vault config\n        pid = _initValue.pid;\n        isHomeChain = _initValue.isHomeChain;\n        isFarmable = _initValue.isFarmable;\n\n        // Addresses\n        govAddress = _initValue.keyAddresses.govAddress;\n        onlyGov = true;\n        zorroControllerAddress = _initValue.keyAddresses.zorroControllerAddress;\n        zorroXChainController = _initValue.keyAddresses.zorroXChainController;\n        ZORROAddress = _initValue.keyAddresses.ZORROAddress;\n        zorroStakingVault = _initValue.keyAddresses.zorroStakingVault;\n        wantAddress = _initValue.keyAddresses.wantAddress;\n        token0Address = _initValue.keyAddresses.token0Address;\n        token1Address = _initValue.keyAddresses.token1Address;\n        earnedAddress = _initValue.keyAddresses.earnedAddress;\n        farmContractAddress = _initValue.keyAddresses.farmContractAddress;\n        rewardsAddress = _initValue.keyAddresses.rewardsAddress;\n        poolAddress = _initValue.keyAddresses.poolAddress;\n        stargateRouter = _initValue.stargateRouter;\n        uniRouterAddress = _initValue.keyAddresses.uniRouterAddress;\n        zorroLPPool = _initValue.keyAddresses.zorroLPPool;\n        zorroLPPoolOtherToken = _initValue.keyAddresses.zorroLPPoolOtherToken;\n        defaultStablecoin = _initValue.keyAddresses.defaultStablecoin;\n        tokenSTG = _initValue.tokenSTG;\n        stargatePoolId = _initValue.stargatePoolId;\n\n        // Fees\n        controllerFee = _initValue.fees.controllerFee;\n        buyBackRate = _initValue.fees.buyBackRate;\n        revShareRate = _initValue.fees.revShareRate;\n        entranceFeeFactor = _initValue.fees.entranceFeeFactor;\n        withdrawFeeFactor = _initValue.fees.withdrawFeeFactor;\n\n        // Swap paths\n        earnedToZORROPath = _initValue.earnedToZORROPath;\n        earnedToToken0Path = _initValue.earnedToToken0Path;\n        stablecoinToToken0Path = _initValue.stablecoinToToken0Path;\n        earnedToZORLPPoolOtherTokenPath = _initValue\n            .earnedToZORLPPoolOtherTokenPath;\n        earnedToStablecoinPath = _initValue.earnedToStablecoinPath;\n\n        // Corresponding reverse paths\n        token0ToStablecoinPath = VaultLibrary.reversePath(stablecoinToToken0Path);\n\n        // Price feeds\n        token0PriceFeed = AggregatorV3Interface(\n            _initValue.priceFeeds.token0PriceFeed\n        );\n        earnTokenPriceFeed = AggregatorV3Interface(\n            _initValue.priceFeeds.earnTokenPriceFeed\n        );\n        lpPoolOtherTokenPriceFeed = AggregatorV3Interface(\n            _initValue.priceFeeds.lpPoolOtherTokenPriceFeed\n        );\n        ZORPriceFeed = AggregatorV3Interface(\n            _initValue.priceFeeds.ZORPriceFeed\n        );\n        stablecoinPriceFeed = AggregatorV3Interface(\n            _initValue.priceFeeds.stablecoinPriceFeed\n        );\n\n        // Super call\n        VaultBase.initialize(_timelockOwner);\n    }\n\n    /* Structs */\n\n    struct VaultStargateInit {\n        uint256 pid;\n        bool isHomeChain;\n        bool isFarmable;\n        VaultLibrary.VaultAddresses keyAddresses;\n        address[] earnedToZORROPath;\n        address[] earnedToToken0Path;\n        address[] stablecoinToToken0Path;\n        address[] earnedToZORLPPoolOtherTokenPath;\n        address[] earnedToStablecoinPath;\n        VaultLibrary.VaultFees fees;\n        VaultLibrary.VaultPriceFeeds priceFeeds;\n        address tokenSTG;\n        address stargateRouter;\n        uint16 stargatePoolId;\n    }\n\n    /* State */\n    address public tokenSTG; // Stargate token\n    address public stargateRouter; // Stargate Router for adding/removing liquidity etc.\n    uint16 public stargatePoolId; // Stargate Pool that tokens shall be lent to\n\n    /* Setters */\n    function setTokenSTG(address _token) external onlyOwner {\n        tokenSTG = _token;\n    }\n\n    function setStargatePoolId(uint16 _poolId) external onlyOwner {\n        stargatePoolId = _poolId;\n    }\n\n    function setStargateRouter(address _router) external onlyOwner {\n        stargateRouter = _router;\n    }\n\n    /* Investment Actions */\n\n    /// @notice Receives new deposits from user\n    /// @param _wantAmt amount of Want token to deposit/stake\n    /// @return uint256 Number of shares added\n    function depositWantToken(uint256 _wantAmt)\n        public\n        virtual\n        override\n        onlyZorroController\n        nonReentrant\n        whenNotPaused\n        returns (uint256)\n    {\n        // Preflight checks\n        require(_wantAmt > 0, \"Want token deposit must be > 0\");\n\n        // Transfer Want token from sender\n        IERC20Upgradeable(wantAddress).safeTransferFrom(\n            msg.sender,\n            address(this),\n            _wantAmt\n        );\n\n        // Set sharesAdded to the Want token amount specified\n        uint256 sharesAdded = _wantAmt;\n        // If the total number of shares and want tokens locked both exceed 0, the shares added is the proportion of Want tokens locked,\n        // discounted by the entrance fee\n        if (wantLockedTotal > 0 && sharesTotal > 0) {\n            sharesAdded = _wantAmt\n                .mul(sharesTotal)\n                .mul(entranceFeeFactor)\n                .div(wantLockedTotal)\n                .div(entranceFeeFactorMax);\n        }\n        // Increment the shares\n        sharesTotal = sharesTotal.add(sharesAdded);\n\n        // Farm the want token if applicable. Otherwise increment want locked\n        if (isFarmable) {\n            _farm();\n        } else {\n            wantLockedTotal = wantLockedTotal.add(_wantAmt);\n        }\n\n        return sharesAdded;\n    }\n\n    /// @notice Performs necessary operations to convert USD into Want token\n    /// @param _amountUSD The USD quantity to exchange (must already be deposited)\n    /// @param _maxMarketMovementAllowed The max slippage allowed. 1000 = 0 %, 995 = 0.5%, etc.\n    /// @return uint256 Amount of Want token obtained\n    function exchangeUSDForWantToken(\n        uint256 _amountUSD,\n        uint256 _maxMarketMovementAllowed\n    ) public override onlyZorroController whenNotPaused returns (uint256) {\n        // Get balance of deposited USD\n        uint256 _balUSD = IERC20Upgradeable(defaultStablecoin).balanceOf(\n            address(this)\n        );\n        // Check that USD was actually deposited\n        require(_amountUSD > 0, \"dep<=0\");\n        require(_amountUSD <= _balUSD, \"amt>bal\");\n\n        // Use price feed to determine exchange rates\n        uint256[] memory _priceTokens = new uint256[](2);\n        _priceTokens[0] = stablecoinPriceFeed.getExchangeRate();\n        _priceTokens[1] = token0PriceFeed.getExchangeRate();\n\n        if (defaultStablecoin != token0Address) {\n            // Only perform swaps if the token is not USD\n\n            // Get decimal info\n            uint8[] memory _decimals = new uint8[](2);\n            _decimals[0] = ERC20Upgradeable(defaultStablecoin).decimals();\n            _decimals[1] = ERC20Upgradeable(token0Address).decimals();\n\n            // Swap USD for tokens\n            // Increase allowance\n            IERC20Upgradeable(defaultStablecoin).safeIncreaseAllowance(\n                uniRouterAddress,\n                _amountUSD\n            );\n            // Single asset. Swap from USD directly to Token0\n            IAMMRouter02(uniRouterAddress).safeSwap(\n                _amountUSD,\n                _priceTokens,\n                _maxMarketMovementAllowed,\n                stablecoinToToken0Path,\n                _decimals,\n                address(this),\n                block.timestamp.add(600)\n            );\n        }\n\n        // Get new Token0 balance\n        uint256 _token0Bal = IERC20Upgradeable(token0Address).balanceOf(\n            address(this)\n        );\n\n        // Safe approve\n        IERC20Upgradeable(token0Address).safeIncreaseAllowance(stargateRouter, _token0Bal);\n\n        // Deposit token to get Want token\n        IStargateRouter(stargateRouter).addLiquidity(\n            stargatePoolId,\n            _token0Bal,\n            address(this)\n        );\n\n        // Calculate resulting want token balance\n        uint256 _wantAmt = IERC20Upgradeable(wantAddress).balanceOf(\n            address(this)\n        );\n\n        // Transfer back to sender\n        IERC20Upgradeable(wantAddress).safeTransfer(\n            zorroControllerAddress,\n            _wantAmt\n        );\n\n        return _wantAmt;\n    }\n\n    /// @notice Public function for farming Want token.\n    function farm() public virtual nonReentrant {\n        _farm();\n    }\n\n    /// @notice Internal function for farming Want token. Responsible for staking Want token in a MasterChef/MasterApe-like contract\n    function _farm() internal virtual {\n        require(isFarmable, \"!farmable\");\n\n        // Get the Want token stored on this contract\n        uint256 wantAmt = IERC20Upgradeable(wantAddress).balanceOf(\n            address(this)\n        );\n        // Increment the total Want tokens locked into this contract\n        wantLockedTotal = wantLockedTotal.add(wantAmt);\n        // Allow the farm contract (e.g. MasterChef) the ability to transfer up to the Want amount\n        IERC20Upgradeable(wantAddress).safeIncreaseAllowance(\n            farmContractAddress,\n            wantAmt\n        );\n\n        // Deposit the Want tokens in the Farm contract\n        IStargateLPStaking(farmContractAddress).deposit(\n            pid,\n            wantAmt\n        );\n    }\n\n    /// @notice Internal function for unfarming Want token. Responsible for unstaking Want token from MasterChef/MasterApe contracts\n    /// @param _wantAmt the amount of Want tokens to withdraw. If 0, will only harvest and not withdraw\n    function _unfarm(uint256 _wantAmt) internal {\n        // Withdraw the Want tokens from the Farm contract\n        IStargateLPStaking(farmContractAddress).withdraw(\n            pid,\n            _wantAmt\n        );\n    }\n\n    /// @notice Fully withdraw Want tokens from the Farm contract (100% withdrawals only)\n    /// @param _wantAmt The amount of Want token to withdraw\n    /// @return sharesRemoved The number of shares removed\n    function withdrawWantToken(uint256 _wantAmt)\n        public\n        virtual\n        override\n        onlyZorroController\n        nonReentrant\n        whenNotPaused\n        returns (uint256 sharesRemoved)\n    {\n        // Preflight checks\n        require(_wantAmt > 0, \"negWant\");\n\n        // Shares removed is proportional to the % of total Want tokens locked that _wantAmt represents\n        sharesRemoved = _wantAmt.mul(sharesTotal).div(wantLockedTotal);\n        // Safety: cap the shares to the total number of shares\n        if (sharesRemoved > sharesTotal) {\n            sharesRemoved = sharesTotal;\n        }\n        // Decrement the total shares by the sharesRemoved\n        sharesTotal = sharesTotal.sub(sharesRemoved);\n\n        // If a withdrawal fee is specified, discount the _wantAmt by the withdrawal fee\n        if (withdrawFeeFactor < withdrawFeeFactorMax) {\n            _wantAmt = _wantAmt.mul(withdrawFeeFactor).div(\n                withdrawFeeFactorMax\n            );\n        }\n\n        // Unfarm Want token if applicable\n        if (isFarmable) {\n            _unfarm(_wantAmt);\n        }\n\n        // Safety: Check balance of this contract's Want tokens held, and cap _wantAmt to that value\n        uint256 _wantBal = IERC20Upgradeable(wantAddress).balanceOf(\n            address(this)\n        );\n        if (_wantAmt > _wantBal) {\n            _wantAmt = _wantBal;\n        }\n        // Safety: cap _wantAmt at the total quantity of Want tokens locked\n        if (wantLockedTotal < _wantAmt) {\n            _wantAmt = wantLockedTotal;\n        }\n\n        // Decrement the total Want locked tokens by the _wantAmt\n        wantLockedTotal = wantLockedTotal.sub(_wantAmt);\n\n        // Finally, transfer the want amount from this contract, back to the ZorroController contract\n        IERC20Upgradeable(wantAddress).safeTransfer(\n            zorroControllerAddress,\n            _wantAmt\n        );\n    }\n\n    /// @notice Converts Want token back into USD to be ready for withdrawal and transfers to sender\n    /// @param _amount The Want token quantity to exchange (must be deposited beforehand)\n    /// @param _maxMarketMovementAllowed The max slippage allowed for swaps. 1000 = 0 %, 995 = 0.5%, etc.\n    /// @return uint256 Amount of USD token obtained\n    function exchangeWantTokenForUSD(\n        uint256 _amount,\n        uint256 _maxMarketMovementAllowed\n    )\n        public\n        virtual\n        override\n        onlyZorroController\n        whenNotPaused\n        returns (uint256)\n    {\n        // Preflight checks\n        require(_amount > 0, \"negWant\");\n\n        // Safely transfer Want token from sender\n        IERC20Upgradeable(wantAddress).safeTransferFrom(\n            msg.sender,\n            address(this),\n            _amount\n        );\n\n        // Safe approve\n        IERC20Upgradeable(wantAddress).safeIncreaseAllowance(stargateRouter, _amount);\n\n        if (token0Address != defaultStablecoin) {\n            // Withdraw Want token to get Token0\n            IStargateRouter(stargateRouter).instantRedeemLocal(\n                stargatePoolId,\n                _amount,\n                address(this)\n            );\n\n            // Get Token0 balance\n            uint256 _token0Bal = IERC20Upgradeable(token0Address).balanceOf(\n                address(this)\n            );\n\n            // Only swap if the token is not USD\n\n            // Use price feed to determine exchange rates\n            uint256[] memory _priceTokens = new uint256[](2);\n            _priceTokens[0] = token0PriceFeed.getExchangeRate();\n            _priceTokens[1] = stablecoinPriceFeed.getExchangeRate();\n\n            // Swap Token0 for USD\n\n            // Get decimal info\n            uint8[] memory _decimals = new uint8[](2);\n            _decimals[0] = ERC20Upgradeable(token0Address).decimals();\n            _decimals[1] = ERC20Upgradeable(defaultStablecoin).decimals();\n\n            // Increase allowance\n            IERC20Upgradeable(token0Address).safeIncreaseAllowance(\n                uniRouterAddress,\n                _token0Bal\n            );\n\n            // Swap Token0 -> USD\n            IAMMRouter02(uniRouterAddress).safeSwap(\n                _token0Bal,\n                _priceTokens,\n                _maxMarketMovementAllowed,\n                token0ToStablecoinPath,\n                _decimals,\n                msg.sender,\n                block.timestamp.add(600)\n            );\n        } else {\n            // Withdraw Want token to get Token0\n            IStargateRouter(stargateRouter).instantRedeemLocal(\n                stargatePoolId,\n                _amount,\n                msg.sender\n            );\n        }\n\n        // Calculate USD balance.\n        return IERC20Upgradeable(defaultStablecoin).balanceOf(msg.sender);\n    }\n\n    /// @notice The main compounding (earn) function. Reinvests profits since the last earn event.\n    /// @param _maxMarketMovementAllowed The max slippage allowed. 1000 = 0 %, 995 = 0.5%, etc.\n    function earn(uint256 _maxMarketMovementAllowed)\n        public\n        virtual\n        override\n        nonReentrant\n        whenNotPaused\n    {\n        require(isFarmable, \"!farmable\");\n        \n        // If onlyGov is set to true, only allow to proceed if the current caller is the govAddress\n        if (onlyGov) {\n            require(msg.sender == govAddress, \"!gov\");\n        }\n\n        // Harvest farm tokens\n        _unfarm(0);\n\n        // Get the balance of the Earned token on this contract (Alpaca, etc.)\n        uint256 _earnedAmt = IERC20Upgradeable(earnedAddress).balanceOf(\n            address(this)\n        );\n\n        // Require pending rewards in order to continue\n        require(_earnedAmt > 0, \"0earn\");\n\n        // Create rates struct\n        VaultLibrary.ExchangeRates memory _rates = VaultLibrary.ExchangeRates({\n            earn: earnTokenPriceFeed.getExchangeRate(),\n            ZOR: ZORPriceFeed.getExchangeRate(),\n            lpPoolOtherToken: lpPoolOtherTokenPriceFeed.getExchangeRate(),\n            stablecoin: stablecoinPriceFeed.getExchangeRate()\n        });\n        // Other rates\n        uint256[] memory _priceTokens = new uint256[](2);\n        _priceTokens[0] = _rates.earn;\n        _priceTokens[1] = token0PriceFeed.getExchangeRate();\n\n        // Distribute fees\n        uint256 _controllerFee = _distributeFees(_earnedAmt);\n\n        // Buyback & rev share\n        (uint256 _buybackAmt, uint256 _revShareAmt) = _buyBackAndRevShare(\n            _earnedAmt,\n            _maxMarketMovementAllowed,\n            _rates\n        );\n\n        // Net earned amt\n        uint256 _earnedAmtNet = _earnedAmt\n            .sub(_controllerFee)\n            .sub(_buybackAmt)\n            .sub(_revShareAmt);\n\n        // Get decimal info\n        uint8[] memory _decimals = new uint8[](2);\n        _decimals[0] = ERC20Upgradeable(earnedAddress).decimals();\n        _decimals[1] = ERC20Upgradeable(token0Address).decimals();\n\n        // Allow spending\n        IERC20Upgradeable(earnedAddress).safeIncreaseAllowance(\n            uniRouterAddress,\n            _earnedAmt\n        );\n\n        // Swap Earn token for single asset token (STG -> token0)\n        IAMMRouter02(uniRouterAddress).safeSwap(\n            _earnedAmtNet,\n            _priceTokens,\n            _maxMarketMovementAllowed,\n            earnedToToken0Path,\n            _decimals,\n            address(this),\n            block.timestamp.add(600)\n        );\n\n        // Redeposit single asset token to get Want token\n        // Get new Token0 balance\n        uint256 _token0Bal = IERC20Upgradeable(token0Address).balanceOf(\n            address(this)\n        );\n\n        // Safe approve\n        IERC20Upgradeable(token0Address).safeIncreaseAllowance(stargateRouter, _token0Bal);\n\n        // Deposit token to get Want token\n        IStargateRouter(stargateRouter).addLiquidity(\n            stargatePoolId,\n            _token0Bal,\n            address(this)\n        );\n\n        // This vault is only for single asset deposits, so farm that token and exit\n        // Update the last earn block\n        lastEarnBlock = block.number;\n        // Farm LP token\n        _farm();\n    }\n\n    /// @notice Buys back the earned token on-chain, swaps it to add liquidity to the ZOR pool, then burns the associated LP token\n    /// @dev Requires funds to be sent to this address before calling. Can be called internally OR by controller\n    /// @param _amount The amount of Earn token to buy back\n    /// @param _maxMarketMovementAllowed The max slippage allowed. 1000 = 0 %, 995 = 0.5%, etc.\n    /// @param _rates ExchangeRates struct with realtime rates information for swaps\n    function _buybackOnChain(\n        uint256 _amount,\n        uint256 _maxMarketMovementAllowed,\n        VaultLibrary.ExchangeRates memory _rates\n    ) internal override {\n        // Get decimal info\n        uint8[] memory _decimals0 = new uint8[](2);\n        _decimals0[0] = ERC20Upgradeable(earnedAddress).decimals();\n        _decimals0[1] = ERC20Upgradeable(ZORROAddress).decimals();\n        // Get decimal info\n        uint8[] memory _decimals1 = new uint8[](2);\n        _decimals1[0] = _decimals0[0];\n        _decimals1[1] = ERC20Upgradeable(zorroLPPoolOtherToken).decimals();\n\n        // Get exchange rates\n        uint256[] memory _priceTokens0 = new uint256[](2);\n        _priceTokens0[0] = _rates.earn;\n        _priceTokens0[1] = _rates.ZOR;\n        uint256[] memory _priceTokens1 = new uint256[](2);\n        _priceTokens1[0] = _rates.earn;\n        _priceTokens1[1] = _rates.lpPoolOtherToken;\n\n        // Authorize spending beforehand\n        IERC20Upgradeable(earnedAddress).safeIncreaseAllowance(\n            uniRouterAddress,\n            _amount\n        );\n\n        // 1. Swap 1/2 Earned -> ZOR\n        IAMMRouter02(uniRouterAddress).safeSwap(\n            _amount.div(2),\n            _priceTokens0,\n            _maxMarketMovementAllowed,\n            earnedToZORROPath,\n            _decimals0,\n            address(this),\n            block.timestamp.add(600)\n        );\n\n        // 2. Swap 1/2 Earned -> LP \"other token\"\n        IAMMRouter02(uniRouterAddress).safeSwap(\n            _amount.div(2),\n            _priceTokens1,\n            _maxMarketMovementAllowed,\n            earnedToZORLPPoolOtherTokenPath,\n            _decimals1,\n            address(this),\n            block.timestamp.add(600)\n        );\n\n        // Add liquidity and burn\n        _addLiqAndBurn(_maxMarketMovementAllowed);\n    }\n\n    /// @notice Adds liquidity and burns the associated LP token\n    /// @param _maxMarketMovementAllowed Slippage factor (990 = 1% etc.)\n    function _addLiqAndBurn(uint256 _maxMarketMovementAllowed) internal {\n// Enter LP pool and send received token to the burn address\n        uint256 zorroTokenAmt = IERC20Upgradeable(ZORROAddress).balanceOf(\n            address(this)\n        );\n        uint256 otherTokenAmt = IERC20Upgradeable(zorroLPPoolOtherToken)\n            .balanceOf(address(this));\n        IERC20Upgradeable(ZORROAddress).safeIncreaseAllowance(\n            uniRouterAddress,\n            zorroTokenAmt\n        );\n        IERC20Upgradeable(zorroLPPoolOtherToken).safeIncreaseAllowance(\n            uniRouterAddress,\n            otherTokenAmt\n        );\n        IAMMRouter02(uniRouterAddress).addLiquidity(\n            ZORROAddress,\n            zorroLPPoolOtherToken,\n            zorroTokenAmt,\n            otherTokenAmt,\n            zorroTokenAmt.mul(_maxMarketMovementAllowed).div(1000),\n            otherTokenAmt.mul(_maxMarketMovementAllowed).div(1000),\n            burnAddress,\n            block.timestamp.add(600)\n        );\n    }\n\n    /// @notice Sends the specified earnings amount as revenue share to ZOR stakers\n    /// @param _amount The amount of Earn token to share as revenue with ZOR stakers\n    /// @param _maxMarketMovementAllowed Max slippage. 950 = 5%, 990 = 1%, etc.\n    /// @param _rates ExchangeRates struct with realtime rates information for swaps\n    function _revShareOnChain(\n        uint256 _amount,\n        uint256 _maxMarketMovementAllowed,\n        VaultLibrary.ExchangeRates memory _rates\n    ) internal override {\n        // Get decimal info\n        uint8[] memory _decimals = new uint8[](2);\n        _decimals[0] = ERC20Upgradeable(earnedAddress).decimals();\n        _decimals[1] = ERC20Upgradeable(ZORROAddress).decimals();\n\n        // Get exchange rates\n        uint256[] memory _priceTokens = new uint256[](2);\n        _priceTokens[0] = _rates.earn;\n        _priceTokens[1] = _rates.ZOR;\n\n        // Authorize spending beforehand\n        IERC20Upgradeable(earnedAddress).safeIncreaseAllowance(\n            uniRouterAddress,\n            _amount\n        );\n\n        // Swap Earn to ZOR\n        IAMMRouter02(uniRouterAddress).safeSwap(\n            _amount,\n            _priceTokens,\n            _maxMarketMovementAllowed,\n            earnedToZORROPath,\n            _decimals,\n            zorroStakingVault,\n            block.timestamp.add(600)\n        );\n    }\n\n    /// @notice Swaps Earn token to USD and sends to destination specified\n    /// @param _earnedAmount Quantity of Earned tokens\n    /// @param _destination Address to send swapped USD to\n    /// @param _maxMarketMovementAllowed Slippage factor. 950 = 5%, 990 = 1%, etc.\n    /// @param _rates ExchangeRates struct with realtime rates information for swaps\n    function _swapEarnedToUSD(\n        uint256 _earnedAmount,\n        address _destination,\n        uint256 _maxMarketMovementAllowed,\n        VaultLibrary.ExchangeRates memory _rates\n    ) internal override {\n        // Get decimal info\n        uint8[] memory _decimals = new uint8[](2);\n        _decimals[0] = ERC20Upgradeable(earnedAddress).decimals();\n        _decimals[1] = ERC20Upgradeable(defaultStablecoin).decimals();\n\n        // Get exchange rates\n        uint256[] memory _priceTokens = new uint256[](2);\n        _priceTokens[0] = _rates.earn;\n        _priceTokens[1] = _rates.stablecoin;\n\n        // Increase allowance\n        IERC20Upgradeable(earnedAddress).safeIncreaseAllowance(\n            uniRouterAddress,\n            _earnedAmount\n        );\n\n        // Swap\n        IAMMRouter02(uniRouterAddress).safeSwap(\n            _earnedAmount,\n            _priceTokens,\n            _maxMarketMovementAllowed,\n            earnedToStablecoinPath,\n            _decimals,\n            _destination,\n            block.timestamp.add(600)\n        );\n    }\n}\n\ncontract StargateUSDCOnAVAX is VaultStargate {}",
  "sourcePath": "/Users/kristophm/Documents/workspace/zorro-protocol/contracts/vaults/VaultStargate.sol",
  "compiler": {
    "name": "solc",
    "version": "0.8.10+commit.fc410830.Emscripten.clang"
  },
  "schemaVersion": "3.4.10",
  "updatedAt": "2022-11-16T16:38:22.689Z",
  "devdoc": {
    "kind": "dev",
    "methods": {
      "depositWantToken(uint256)": {
        "params": {
          "_wantAmt": "amount of Want token to deposit/stake"
        },
        "returns": {
          "_0": "uint256 Number of shares added"
        }
      },
      "earn(uint256)": {
        "params": {
          "_maxMarketMovementAllowed": "The max slippage allowed. 1000 = 0 %, 995 = 0.5%, etc."
        }
      },
      "exchangeUSDForWantToken(uint256,uint256)": {
        "params": {
          "_amountUSD": "The USD quantity to exchange (must already be deposited)",
          "_maxMarketMovementAllowed": "The max slippage allowed. 1000 = 0 %, 995 = 0.5%, etc."
        },
        "returns": {
          "_0": "uint256 Amount of Want token obtained"
        }
      },
      "exchangeWantTokenForUSD(uint256,uint256)": {
        "params": {
          "_amount": "The Want token quantity to exchange (must be deposited beforehand)",
          "_maxMarketMovementAllowed": "The max slippage allowed for swaps. 1000 = 0 %, 995 = 0.5%, etc."
        },
        "returns": {
          "_0": "uint256 Amount of USD token obtained"
        }
      },
      "inCaseTokensGetStuck(address,uint256,address)": {
        "params": {
          "_amount": "The amount of the tokens to transfer",
          "_to": "The address to transfer tokens to",
          "_token": "Address of the ERC20 token to transfer"
        }
      },
      "initialize(address,(uint256,bool,bool,(address,address,address,address,address,address,address,address,address,address,address,address,address,address,address,address),address[],address[],address[],address[],address[],(uint256,uint256,uint256,uint256,uint256),(address,address,address,address,address,address),address,address,uint16))": {
        "params": {
          "_initValue": "A VaultStargateInit struct containing all init values",
          "_timelockOwner": "The designated timelock controller address to act as owner"
        }
      },
      "owner()": {
        "details": "Returns the address of the current owner."
      },
      "paused()": {
        "details": "Returns true if the contract is paused, and false otherwise."
      },
      "renounceOwnership()": {
        "details": "Leaves the contract without owner. It will not be possible to call `onlyOwner` functions anymore. Can only be called by the current owner. NOTE: Renouncing ownership will leave the contract without an owner, thereby removing any functionality that is only available to the owner."
      },
      "setFeeSettings(uint256,uint256,uint256,uint256,uint256)": {
        "params": {
          "_buyBackRate": "Buy back rate fee numerator",
          "_controllerFee": "Controller fee numerator",
          "_entranceFeeFactor": "Entrance fee numerator (higher means smaller percentage)",
          "_revShareRate": "Rev share rate fee numerator",
          "_withdrawFeeFactor": "Withdrawal fee numerator (higher means smaller percentage)"
        }
      },
      "setGov(address)": {
        "params": {
          "_govAddress": "The new gov address"
        }
      },
      "setOnlyGov(bool)": {
        "params": {
          "_onlyGov": "whether onlyGov should be enforced"
        }
      },
      "transferOwnership(address)": {
        "details": "Transfers ownership of the contract to a new account (`newOwner`). Can only be called by the current owner."
      },
      "withdrawWantToken(uint256)": {
        "params": {
          "_wantAmt": "The amount of Want token to withdraw"
        },
        "returns": {
          "sharesRemoved": "The number of shares removed"
        }
      }
    },
    "title": "Vault contract for Stargate single token strategies (e.g. for lending bridgeable tokens)",
    "version": 1
  },
  "userdoc": {
    "kind": "user",
    "methods": {
      "depositWantToken(uint256)": {
        "notice": "Receives new deposits from user"
      },
      "earn(uint256)": {
        "notice": "The main compounding (earn) function. Reinvests profits since the last earn event."
      },
      "exchangeUSDForWantToken(uint256,uint256)": {
        "notice": "Performs necessary operations to convert USD into Want token"
      },
      "exchangeWantTokenForUSD(uint256,uint256)": {
        "notice": "Converts Want token back into USD to be ready for withdrawal and transfers to sender"
      },
      "farm()": {
        "notice": "Public function for farming Want token."
      },
      "inCaseTokensGetStuck(address,uint256,address)": {
        "notice": "Safely transfer ERC20 tokens stuck in this contract to a specified address"
      },
      "initialize(address,(uint256,bool,bool,(address,address,address,address,address,address,address,address,address,address,address,address,address,address,address,address),address[],address[],address[],address[],address[],(uint256,uint256,uint256,uint256,uint256),(address,address,address,address,address,address),address,address,uint16))": {
        "notice": "Upgradeable constructor"
      },
      "pause()": {
        "notice": "Pause contract"
      },
      "setFeeSettings(uint256,uint256,uint256,uint256,uint256)": {
        "notice": "Configure key fee parameters"
      },
      "setGov(address)": {
        "notice": "Set governor address"
      },
      "setOnlyGov(bool)": {
        "notice": "Set onlyGov property"
      },
      "unpause()": {
        "notice": "Unpause contract"
      },
      "withdrawWantToken(uint256)": {
        "notice": "Fully withdraw Want tokens from the Farm contract (100% withdrawals only)"
      }
    },
    "version": 1
  }
}