{
  "contractName": "VaultActionsAlpaca",
  "abi": [
    {
      "anonymous": false,
      "inputs": [
        {
          "indexed": true,
          "internalType": "address",
          "name": "previousOwner",
          "type": "address"
        },
        {
          "indexed": true,
          "internalType": "address",
          "name": "newOwner",
          "type": "address"
        }
      ],
      "name": "OwnershipTransferred",
      "type": "event"
    },
    {
      "inputs": [],
      "name": "burnAddress",
      "outputs": [
        {
          "internalType": "address",
          "name": "",
          "type": "address"
        }
      ],
      "stateMutability": "view",
      "type": "function"
    },
    {
      "inputs": [
        {
          "internalType": "uint256",
          "name": "_earnedAmt",
          "type": "uint256"
        },
        {
          "internalType": "uint256",
          "name": "_maxMarketMovementAllowed",
          "type": "uint256"
        },
        {
          "components": [
            {
              "internalType": "address",
              "name": "earnedAddress",
              "type": "address"
            },
            {
              "internalType": "address",
              "name": "ZORROAddress",
              "type": "address"
            },
            {
              "internalType": "address",
              "name": "rewardsAddress",
              "type": "address"
            },
            {
              "internalType": "address",
              "name": "stablecoin",
              "type": "address"
            },
            {
              "internalType": "address",
              "name": "zorroStakingVault",
              "type": "address"
            },
            {
              "internalType": "address",
              "name": "zorroLPPoolOtherToken",
              "type": "address"
            },
            {
              "internalType": "address",
              "name": "wantAddress",
              "type": "address"
            },
            {
              "internalType": "contract AggregatorV3Interface",
              "name": "earnTokenPriceFeed",
              "type": "address"
            },
            {
              "internalType": "contract AggregatorV3Interface",
              "name": "ZORPriceFeed",
              "type": "address"
            },
            {
              "internalType": "contract AggregatorV3Interface",
              "name": "lpPoolOtherTokenPriceFeed",
              "type": "address"
            },
            {
              "internalType": "contract AggregatorV3Interface",
              "name": "stablecoinPriceFeed",
              "type": "address"
            },
            {
              "internalType": "address[]",
              "name": "earnedToZORROPath",
              "type": "address[]"
            },
            {
              "internalType": "address[]",
              "name": "earnedToZORLPPoolOtherTokenPath",
              "type": "address[]"
            },
            {
              "internalType": "address[]",
              "name": "earnedToStablecoinPath",
              "type": "address[]"
            },
            {
              "internalType": "uint16",
              "name": "controllerFeeBP",
              "type": "uint16"
            },
            {
              "internalType": "uint16",
              "name": "buybackBP",
              "type": "uint16"
            },
            {
              "internalType": "uint16",
              "name": "revShareBP",
              "type": "uint16"
            },
            {
              "internalType": "bool",
              "name": "isHomeChain",
              "type": "bool"
            }
          ],
          "internalType": "struct VaultActions.DistributeEarningsParams",
          "name": "_params",
          "type": "tuple"
        }
      ],
      "name": "distributeAndReinvestEarnings",
      "outputs": [
        {
          "internalType": "uint256",
          "name": "wantObtained",
          "type": "uint256"
        },
        {
          "internalType": "uint256",
          "name": "xChainBuybackAmt",
          "type": "uint256"
        },
        {
          "internalType": "uint256",
          "name": "xChainRevShareAmt",
          "type": "uint256"
        }
      ],
      "stateMutability": "nonpayable",
      "type": "function"
    },
    {
      "inputs": [
        {
          "internalType": "uint256",
          "name": "_amountLP",
          "type": "uint256"
        },
        {
          "internalType": "uint256",
          "name": "_maxMarketMovementAllowed",
          "type": "uint256"
        },
        {
          "internalType": "address",
          "name": "_recipient",
          "type": "address"
        },
        {
          "components": [
            {
              "internalType": "address",
              "name": "token0",
              "type": "address"
            },
            {
              "internalType": "address",
              "name": "token1",
              "type": "address"
            },
            {
              "internalType": "address",
              "name": "poolAddress",
              "type": "address"
            },
            {
              "internalType": "address",
              "name": "lpTokenAddress",
              "type": "address"
            }
          ],
          "internalType": "struct VaultActions.ExitPoolParams",
          "name": "_exitPoolParams",
          "type": "tuple"
        }
      ],
      "name": "exitPool",
      "outputs": [],
      "stateMutability": "nonpayable",
      "type": "function"
    },
    {
      "inputs": [
        {
          "internalType": "address",
          "name": "_uniRouterAddress",
          "type": "address"
        }
      ],
      "name": "initialize",
      "outputs": [],
      "stateMutability": "nonpayable",
      "type": "function"
    },
    {
      "inputs": [
        {
          "internalType": "address",
          "name": "_token0",
          "type": "address"
        },
        {
          "internalType": "address",
          "name": "_token1",
          "type": "address"
        },
        {
          "internalType": "uint256",
          "name": "_token0Amt",
          "type": "uint256"
        },
        {
          "internalType": "uint256",
          "name": "_token1Amt",
          "type": "uint256"
        },
        {
          "internalType": "uint256",
          "name": "_maxMarketMovementAllowed",
          "type": "uint256"
        },
        {
          "internalType": "address",
          "name": "_recipient",
          "type": "address"
        }
      ],
      "name": "joinPool",
      "outputs": [],
      "stateMutability": "nonpayable",
      "type": "function"
    },
    {
      "inputs": [],
      "name": "owner",
      "outputs": [
        {
          "internalType": "address",
          "name": "",
          "type": "address"
        }
      ],
      "stateMutability": "view",
      "type": "function"
    },
    {
      "inputs": [],
      "name": "renounceOwnership",
      "outputs": [],
      "stateMutability": "nonpayable",
      "type": "function"
    },
    {
      "inputs": [
        {
          "internalType": "address[]",
          "name": "_path",
          "type": "address[]"
        }
      ],
      "name": "reversePath",
      "outputs": [
        {
          "internalType": "address[]",
          "name": "newPath",
          "type": "address[]"
        }
      ],
      "stateMutability": "pure",
      "type": "function"
    },
    {
      "inputs": [
        {
          "components": [
            {
              "internalType": "uint256",
              "name": "amountIn",
              "type": "uint256"
            },
            {
              "internalType": "uint256",
              "name": "priceToken0",
              "type": "uint256"
            },
            {
              "internalType": "uint256",
              "name": "priceToken1",
              "type": "uint256"
            },
            {
              "internalType": "address",
              "name": "token0",
              "type": "address"
            },
            {
              "internalType": "address",
              "name": "token1",
              "type": "address"
            },
            {
              "internalType": "uint256",
              "name": "maxMarketMovementAllowed",
              "type": "uint256"
            },
            {
              "internalType": "address[]",
              "name": "path",
              "type": "address[]"
            },
            {
              "internalType": "address",
              "name": "destination",
              "type": "address"
            }
          ],
          "internalType": "struct SafeSwapUni.SafeSwapParams",
          "name": "_swapParams",
          "type": "tuple"
        }
      ],
      "name": "safeSwap",
      "outputs": [],
      "stateMutability": "nonpayable",
      "type": "function"
    },
    {
      "inputs": [
        {
          "internalType": "address",
          "name": "_burnAddress",
          "type": "address"
        }
      ],
      "name": "setBurnAddress",
      "outputs": [],
      "stateMutability": "nonpayable",
      "type": "function"
    },
    {
      "inputs": [
        {
          "internalType": "address",
          "name": "_uniRouterAddress",
          "type": "address"
        }
      ],
      "name": "setUniRouterAddress",
      "outputs": [],
      "stateMutability": "nonpayable",
      "type": "function"
    },
    {
      "inputs": [
        {
          "internalType": "address",
          "name": "newOwner",
          "type": "address"
        }
      ],
      "name": "transferOwnership",
      "outputs": [],
      "stateMutability": "nonpayable",
      "type": "function"
    },
    {
      "inputs": [],
      "name": "uniRouterAddress",
      "outputs": [
        {
          "internalType": "address",
          "name": "",
          "type": "address"
        }
      ],
      "stateMutability": "view",
      "type": "function"
    },
    {
      "inputs": [
        {
          "internalType": "uint256",
          "name": "_amountUSD",
          "type": "uint256"
        },
        {
          "components": [
            {
              "internalType": "address",
              "name": "stablecoin",
              "type": "address"
            },
            {
              "internalType": "address",
              "name": "token0Address",
              "type": "address"
            },
            {
              "internalType": "address",
              "name": "tokenZorroAddress",
              "type": "address"
            },
            {
              "internalType": "address",
              "name": "poolAddress",
              "type": "address"
            },
            {
              "internalType": "address",
              "name": "wantAddress",
              "type": "address"
            },
            {
              "internalType": "contract AggregatorV3Interface",
              "name": "token0PriceFeed",
              "type": "address"
            },
            {
              "internalType": "contract AggregatorV3Interface",
              "name": "stablecoinPriceFeed",
              "type": "address"
            },
            {
              "internalType": "address[]",
              "name": "stablecoinToToken0Path",
              "type": "address[]"
            }
          ],
          "internalType": "struct VaultActionsAlpaca.ExchangeUSDForWantParams",
          "name": "_params",
          "type": "tuple"
        },
        {
          "internalType": "uint256",
          "name": "_maxMarketMovementAllowed",
          "type": "uint256"
        }
      ],
      "name": "exchangeUSDForWantToken",
      "outputs": [
        {
          "internalType": "uint256",
          "name": "wantObtained",
          "type": "uint256"
        }
      ],
      "stateMutability": "nonpayable",
      "type": "function"
    },
    {
      "inputs": [
        {
          "internalType": "uint256",
          "name": "_amount",
          "type": "uint256"
        },
        {
          "components": [
            {
              "internalType": "address",
              "name": "stablecoin",
              "type": "address"
            },
            {
              "internalType": "address",
              "name": "token0Address",
              "type": "address"
            },
            {
              "internalType": "address",
              "name": "wantAddress",
              "type": "address"
            },
            {
              "internalType": "address",
              "name": "poolAddress",
              "type": "address"
            },
            {
              "internalType": "contract AggregatorV3Interface",
              "name": "token0PriceFeed",
              "type": "address"
            },
            {
              "internalType": "contract AggregatorV3Interface",
              "name": "stablecoinPriceFeed",
              "type": "address"
            },
            {
              "internalType": "address[]",
              "name": "token0ToStablecoinPath",
              "type": "address[]"
            }
          ],
          "internalType": "struct VaultActionsAlpaca.ExchangeWantTokenForUSDParams",
          "name": "_params",
          "type": "tuple"
        },
        {
          "internalType": "uint256",
          "name": "_maxMarketMovementAllowed",
          "type": "uint256"
        }
      ],
      "name": "exchangeWantTokenForUSD",
      "outputs": [
        {
          "internalType": "uint256",
          "name": "usdObtained",
          "type": "uint256"
        }
      ],
      "stateMutability": "nonpayable",
      "type": "function"
    }
  ],
  "bytecode": "0x608060405234801561001057600080fd5b506133dc806100206000396000f3fe608060405234801561001057600080fd5b50600436106100f95760003560e060020a90048063715018a61161009b578063b1c86edb1161006a578063b1c86edb146101fc578063c4d66de81461020f578063f2fde38b14610222578063fdd5b2831461023557600080fd5b8063715018a6146101a25780638b4c5aee146101aa5780638da5cb5b146101ca578063ac64c336146101db57600080fd5b806358f5ab9f116100d757806358f5ab9f146101395780635da79d631461014c578063693a090b1461015f57806370d5ae051461018f57600080fd5b80630c70c281146100fe57806312ad7eba146101135780634b0e721614610126575b600080fd5b61011161010c3660046127f0565b610263565b005b610111610121366004612944565b61028f565b610111610134366004612a0d565b6102bb565b610111610147366004612a2a565b610320565b61011161015a366004612a0d565b610360565b60655461017290600160a060020a031681565b604051600160a060020a0390911681526020015b60405180910390f35b60665461017290600160a060020a031681565b6101116103bc565b6101bd6101b8366004612a91565b6103f5565b6040516101869190612b0a565b603354600160a060020a0316610172565b6101ee6101e9366004612b1d565b6104c9565b604051908152602001610186565b6101ee61020a366004612c16565b610738565b61011161021d366004612a0d565b6109f4565b610111610230366004612a0d565b610af8565b610248610243366004612d31565b610bad565b60408051938452602084019290925290820152606001610186565b606081015161027d90600160a060020a0316333087610bf6565b61028984848484610ca7565b50505050565b805160608201516102af91600160a060020a039091169033903090610bf6565b6102b881610e31565b50565b603354600160a060020a031633146102f15760405160e560020a62461bcd0281526004016102e890612f10565b60405180910390fd5b6066805473ffffffffffffffffffffffffffffffffffffffff1916600160a060020a0392909216919091179055565b610335600160a060020a038716333087610bf6565b61034a600160a060020a038616333086610bf6565b610358868686868686611041565b505050505050565b603354600160a060020a0316331461038d5760405160e560020a62461bcd0281526004016102e890612f10565b6065805473ffffffffffffffffffffffffffffffffffffffff1916600160a060020a0392909216919091179055565b603354600160a060020a031633146103e95760405160e560020a62461bcd0281526004016102e890612f10565b6103f36000611163565b565b80516060908067ffffffffffffffff81111561041357610413612735565b60405190808252806020026020018201604052801561043c578160200160208202803683370190505b50915060005b818161ffff1610156104c257838161ffff16600186516104629190612f5e565b61046c9190612f5e565b8151811061047c5761047c612f75565b6020026020010151838261ffff168151811061049a5761049a612f75565b600160a060020a03909216602092830291909101909101526104bb81612f8e565b9050610442565b5050919050565b81516000906104e390600160a060020a0316333087610bf6565b8260000151600160a060020a03168360200151600160a060020a0316146105975761059760405180610100016040528086815260200161052f8660c00151600160a060020a03166111c2565b815260200161054a8660a00151600160a060020a03166111c2565b81526020018560000151600160a060020a031681526020018560200151600160a060020a031681526020018481526020018560e00151815260200130600160a060020a0316815250610e31565b602083015160405160e060020a6370a08231028152306004820152600091600160a060020a0316906370a0823190602401602060405180830381865afa1580156105e5573d6000803e3d6000fd5b505050506040513d601f19601f820116820180604052508101906106099190612fb0565b6060850151602086015191925061062a91600160a060020a03169083611319565b60608401516040517fb6b55f2500000000000000000000000000000000000000000000000000000000815260048101839052600160a060020a039091169063b6b55f2590602401600060405180830381600087803b15801561068b57600080fd5b505af115801561069f573d6000803e3d6000fd5b505050608085015160405160e060020a6370a08231028152306004820152600160a060020a0390911691506370a0823190602401602060405180830381865afa1580156106f0573d6000803e3d6000fd5b505050506040513d601f19601f820116820180604052508101906107149190612fb0565b608085015190925061073090600160a060020a031633846113fd565b509392505050565b600080841161078c5760405160e560020a62461bcd02815260206004820152600760248201527f6e656757616e740000000000000000000000000000000000000000000000000060448201526064016102e8565b60408301516107a690600160a060020a0316333087610bf6565b6107cc8360600151858560400151600160a060020a03166113199092919063ffffffff16565b60608301516040517f2e1a7d4d00000000000000000000000000000000000000000000000000000000815260048101869052600160a060020a0390911690632e1a7d4d90602401600060405180830381600087803b15801561082d57600080fd5b505af1158015610841573d6000803e3d6000fd5b50505050602083015160405160e060020a6370a08231028152306004820152600091600160a060020a0316906370a0823190602401602060405180830381865afa158015610893573d6000803e3d6000fd5b505050506040513d601f19601f820116820180604052508101906108b79190612fb0565b90508360000151600160a060020a03168460200151600160a060020a03161461096d5761096d6040518061010001604052808381526020016109058760800151600160a060020a03166111c2565b81526020016109208760a00151600160a060020a03166111c2565b81526020018660200151600160a060020a031681526020018660000151600160a060020a031681526020018581526020018660c00151815260200130600160a060020a0316815250610e31565b835160405160e060020a6370a08231028152306004820152600160a060020a03909116906370a0823190602401602060405180830381865afa1580156109b7573d6000803e3d6000fd5b505050506040513d601f19601f820116820180604052508101906109db9190612fb0565b845190925061073090600160a060020a031633846113fd565b600054610100900460ff16610a0f5760005460ff1615610a13565b303b155b610a885760405160e560020a62461bcd02815260206004820152602e60248201527f496e697469616c697a61626c653a20636f6e747261637420697320616c72656160448201527f647920696e697469616c697a656400000000000000000000000000000000000060648201526084016102e8565b600054610100900460ff16158015610aaa576000805461ffff19166101011790555b60658054600160a060020a03841673ffffffffffffffffffffffffffffffffffffffff19918216179091556066805490911661dead1790558015610af4576000805461ff00191690555b5050565b603354600160a060020a03163314610b255760405160e560020a62461bcd0281526004016102e890612f10565b600160a060020a038116610ba45760405160e560020a62461bcd02815260206004820152602660248201527f4f776e61626c653a206e6577206f776e657220697320746865207a65726f206160448201527f646472657373000000000000000000000000000000000000000000000000000060648201526084016102e8565b6102b881611163565b805160009081908190610bcb90600160a060020a0316333089610bf6565b6000610bd8878787611446565b90945092509050610bea8187336116b9565b93505093509350939050565b604051600160a060020a03808516602483015283166044820152606481018290526102899085907f23b872dd00000000000000000000000000000000000000000000000000000000906084015b60408051601f198184030181529190526020810180517bffffffffffffffffffffffffffffffffffffffffffffffffffffffff167fffffffff0000000000000000000000000000000000000000000000000000000090931692909217909152611b94565b60008060008360400151600160a060020a03166318160ddd6040518163ffffffff1660e060020a028152600401602060405180830381865afa158015610cf1573d6000803e3d6000fd5b505050506040513d601f19601f82011682018060405250810190610d159190612fb0565b9050610d2c8785600001518660400151848a611c7c565b9250610d438785602001518660400151848a611c7c565b6065546060860151919350610d6591600160a060020a03908116911689611319565b60655484516020860151600160a060020a039092169163baa2abde91908a87878b610d9242610258612fc9565b60405163ffffffff891660e060020a028152600160a060020a039788166004820152958716602487015260448601949094526064850192909252608484015290921660a482015260c481019190915260e40160408051808303816000875af1158015610e02573d6000803e3d6000fd5b505050506040513d601f19601f82011682018060405250810190610e269190612fe1565b505050505050505050565b60655481516060830151610e5392600160a060020a0391821692911690611319565b6040805160028082526060820183526000926020830190803683370190505090508160600151600160a060020a031663313ce5676040518163ffffffff1660e060020a028152600401602060405180830381865afa158015610eb9573d6000803e3d6000fd5b505050506040513d601f19601f82011682018060405250810190610edd9190613005565b81600081518110610ef057610ef0612f75565b602002602001019060ff16908160ff16815250508160800151600160a060020a031663313ce5676040518163ffffffff1660e060020a028152600401602060405180830381865afa158015610f49573d6000803e3d6000fd5b505050506040513d601f19601f82011682018060405250810190610f6d9190613005565b81600181518110610f8057610f80612f75565b60ff929092166020928302919091018201526040805160028082526060820183526000939192909183019080368337019050509050826020015181600081518110610fcd57610fcd612f75565b602002602001018181525050826040015181600181518110610ff157610ff1612f75565b60200260200101818152505061103c8360000151828560a001518660c00151868860e00151426102586110249190612fc9565b606554600160a060020a031696959493929190611d26565b505050565b60655461105b90600160a060020a03888116911686611319565b60655461107590600160a060020a03878116911685611319565b606554600160a060020a031663e8e33700878787876103e86110978984613028565b6110a19190613047565b6103e86110ae8a8c613028565b6110b89190613047565b886110c542610258612fc9565b60405163ffffffff8a1660e060020a028152600160a060020a039889166004820152968816602488015260448701959095526064860193909352608485019190915260a484015290921660c482015260e4810191909152610104016060604051808303816000875af115801561113f573d6000803e3d6000fd5b505050506040513d601f19601f82011682018060405250810190610e26919061306c565b60338054600160a060020a0383811673ffffffffffffffffffffffffffffffffffffffff19831681179093556040519116919082907f8be0079c531659141344cd1fd0a4f28419497f9722a3daafe3b4186f6b6457e090600090a35050565b60008082600160a060020a031663313ce5676040518163ffffffff1660e060020a028152600401602060405180830381865afa158015611206573d6000803e3d6000fd5b505050506040513d601f19601f8201168201806040525081019061122a9190613005565b9050600083600160a060020a031663feaf968c6040518163ffffffff1660e060020a02815260040160a060405180830381865afa15801561126f573d6000803e3d6000fd5b505050506040513d601f19601f8201168201806040525081019061129391906130b4565b50505091505060008112156112ed5760405160e560020a62461bcd02815260206004820152601660248201527f6e656720707269636573206e6f7420616c6c6f7765640000000000000000000060448201526064016102e8565b6112f882600a6131ed565b6113078264e8d4a51000613028565b6113119190613047565b949350505050565b6040517fdd62ed3e000000000000000000000000000000000000000000000000000000008152306004820152600160a060020a038381166024830152600091839186169063dd62ed3e90604401602060405180830381865afa158015611383573d6000803e3d6000fd5b505050506040513d601f19601f820116820180604052508101906113a79190612fb0565b6113b19190612fc9565b604051600160a060020a0385166024820152604481018290529091506102899085907f095ea7b30000000000000000000000000000000000000000000000000000000090606401610c43565b604051600160a060020a03831660248201526044810182905261103c9084907fa9059cbb0000000000000000000000000000000000000000000000000000000090606401610c43565b6000806000806114658560000151866040015189886101c00151611ea6565b90506000612710866101e0015161ffff16896114819190613028565b61148b9190613047565b9050600061271087610200015161ffff168a6114a79190613028565b6114b19190613047565b9050866102200151156115df5761155c82896040518061010001604052808b60000151600160a060020a031681526020018b60200151600160a060020a031681526020018b60a00151600160a060020a031681526020018b610160015181526020018b610180015181526020018b60e00151600160a060020a031681526020018b6101000151600160a060020a031681526020018b6101200151600160a060020a0316815250611ee9565b6115da81896040518060c001604052808b60000151600160a060020a031681526020018b60200151600160a060020a031681526020018b60800151600160a060020a031681526020018b610160015181526020018b60e00151600160a060020a031681526020018b6101000151600160a060020a0316815250612174565b61168b565b9093509150828260006115f28284612fc9565b905061168960405180610100016040528083815260200161161f8b60e00151600160a060020a03166111c2565b815260200161163b8b6101400151600160a060020a03166111c2565b81526020018a60000151600160a060020a031681526020018a60600151600160a060020a031681526020018b81526020018a6101a00151815260200133600160a060020a0316815250610e31565b505b8082611697858c612f5e565b6116a19190612f5e565b6116ab9190612f5e565b955050505093509350939050565b600080339050600081600160a060020a031663e71984746040518163ffffffff1660e060020a028152600401602060405180830381865afa158015611702573d6000803e3d6000fd5b505050506040513d601f19601f8201168201806040525081019061172691906131fc565b9050600082600160a060020a0316637ff36fbe6040518163ffffffff1660e060020a028152600401602060405180830381865afa15801561176b573d6000803e3d6000fd5b505050506040513d601f19601f8201168201806040525081019061178f91906131fc565b9050600083600160a060020a031663e7a036796040518163ffffffff1660e060020a028152600401602060405180830381865afa1580156117d4573d6000803e3d6000fd5b505050506040513d601f19601f820116820180604052508101906117f891906131fc565b9050600084600160a060020a0316631755ff216040518163ffffffff1660e060020a028152600401602060405180830381865afa15801561183d573d6000803e3d6000fd5b505050506040513d601f19601f8201168201806040525081019061186191906131fc565b6040517f9dcb511a000000000000000000000000000000000000000000000000000000008152600160a060020a038581166004830152919250600091871690639dcb511a90602401602060405180830381865afa1580156118c6573d6000803e3d6000fd5b505050506040513d601f19601f820116820180604052508101906118ea91906131fc565b6040517f9dcb511a000000000000000000000000000000000000000000000000000000008152600160a060020a038781166004830152919250600091881690639dcb511a90602401602060405180830381865afa15801561194f573d6000803e3d6000fd5b505050506040513d601f19601f8201168201806040525081019061197391906131fc565b905085600160a060020a031685600160a060020a031614611a0d57611a0d6040518061010001604052808d81526020016119b584600160a060020a03166111c2565b81526020016119cc85600160a060020a03166111c2565b815260200188600160a060020a0316815260200187600160a060020a031681526020018c81526020016119ff8989612211565b815230602090910152610e31565b60405160e060020a6370a08231028152306004820152600090600160a060020a038716906370a0823190602401602060405180830381865afa158015611a57573d6000803e3d6000fd5b505050506040513d601f19601f82011682018060405250810190611a7b9190612fb0565b9050611a91600160a060020a0387168583611319565b6040517fb6b55f2500000000000000000000000000000000000000000000000000000000815260048101829052600160a060020a0385169063b6b55f2590602401600060405180830381600087803b158015611aec57600080fd5b505af1158015611b00573d6000803e3d6000fd5b505060405160e060020a6370a08231028152306004820152600160a060020a03881692506370a082319150602401602060405180830381865afa158015611b4b573d6000803e3d6000fd5b505050506040513d601f19601f82011682018060405250810190611b6f9190612fb0565b9850611b85600160a060020a0386168b8b6113fd565b50505050505050509392505050565b6000611be9826040518060400160405280602081526020017f5361666545524332303a206c6f772d6c6576656c2063616c6c206661696c656481525085600160a060020a03166123dc9092919063ffffffff16565b80519091501561103c5780806020019051810190611c079190613219565b61103c5760405160e560020a62461bcd02815260206004820152602a60248201527f5361666545524332303a204552433230206f7065726174696f6e20646964206e60448201527f6f7420737563636565640000000000000000000000000000000000000000000060648201526084016102e8565b60405160e060020a6370a08231028152600160a060020a03848116600483015260009182918716906370a0823190602401602060405180830381865afa158015611cca573d6000803e3d6000fd5b505050506040513d601f19601f82011682018060405250810190611cee9190612fb0565b9050611cfc846103e8613028565b83611d07838a613028565b611d119190613028565b611d1b9190613047565b979650505050505050565b8251600214611d7a5760405160e560020a62461bcd02815260206004820152600b60248201527f696e76616c69642064656300000000000000000000000000000000000000000060448201526064016102e8565b600086600081518110611d8f57611d8f612f75565b602002602001015160001480611dbf575086600181518110611db357611db3612f75565b60200260200101516000145b15611dd857611dd189898789886123f5565b9050611e1c565b611e198888600081518110611def57611def612f75565b602002602001015189600181518110611e0a57611e0a612f75565b602002602001015189886124fc565b90505b6040517f5c11d795000000000000000000000000000000000000000000000000000000008152600160a060020a038a1690635c11d79590611e69908b9085908a9089908990600401613236565b600060405180830381600087803b158015611e8357600080fd5b505af1158015611e97573d6000803e3d6000fd5b50505050505050505050505050565b600082156113115761ffff82161561131157612710611ec961ffff841685613028565b611ed39190613047565b9050611311600160a060020a03861685836113fd565b82611ef357505050565b6000611f0b8260a00151600160a060020a03166111c2565b90508160200151600160a060020a03168260000151600160a060020a031614611fb857611fb8604051806101000160405280600287611f4a9190613047565b8152602001838152602001611f6b8560c00151600160a060020a03166111c2565b81526020018460000151600160a060020a031681526020018460200151600160a060020a031681526020018581526020018460600151815260200130600160a060020a0316815250610e31565b8160400151600160a060020a03168260000151600160a060020a03161461206357612063604051806101000160405280600287611ff59190613047565b81526020018381526020016120168560e00151600160a060020a03166111c2565b81526020018460000151600160a060020a031681526020018460400151600160a060020a031681526020018581526020018460800151815260200130600160a060020a0316815250610e31565b602082015160405160e060020a6370a08231028152306004820152600091600160a060020a0316906370a0823190602401602060405180830381865afa1580156120b1573d6000803e3d6000fd5b505050506040513d601f19601f820116820180604052508101906120d59190612fb0565b604080850151905160e060020a6370a08231028152306004820152919250600091600160a060020a03909116906370a0823190602401602060405180830381865afa158015612128573d6000803e3d6000fd5b505050506040513d601f19601f8201168201806040525081019061214c9190612fb0565b6020850151604086015160665492935061035892859085908a90600160a060020a0316611041565b821561103c5761103c6040518061010001604052808581526020016121a58460800151600160a060020a03166111c2565b81526020016121c08460a00151600160a060020a03166111c2565b81526020018360000151600160a060020a031681526020018360200151600160a060020a03168152602001848152602001836060015181526020018360400151600160a060020a0316815250610e31565b6040517f2337b0b1000000000000000000000000000000000000000000000000000000008152600160a060020a0380841660048301528216602482015260609033906000908290632337b0b190604401602060405180830381865afa15801561227e573d6000803e3d6000fd5b505050506040513d601f19601f820116820180604052508101906122a29190613272565b90508061ffff1667ffffffffffffffff8111156122c1576122c1612735565b6040519080825280602002602001820160405280156122ea578160200160208202803683370190505b50925060005b8161ffff168161ffff1610156123d3576040517f5e835270000000000000000000000000000000000000000000000000000000008152600160a060020a038781166004830152868116602483015261ffff83166044830152841690635e83527090606401602060405180830381865afa158015612371573d6000803e3d6000fd5b505050506040513d601f19601f8201168201806040525081019061239591906131fc565b848261ffff16815181106123ab576123ab612f75565b600160a060020a03909216602092830291909101909101526123cc81612f8e565b90506122f0565b50505092915050565b60606123eb8484600085612595565b90505b9392505050565b60008086600160a060020a031663d06ca61f87876040518363ffffffff1660e060020a02815260040161242992919061328f565b600060405180830381865afa158015612446573d6000803e3d6000fd5b505050506040513d6000823e601f3d908101601f1916820160405261246e91908101906132a8565b90508260008151811061248357612483612f75565b6020026020010151600a61249791906131ed565b6124a3906103e8613028565b836001815181106124b6576124b6612f75565b6020026020010151600a6124ca91906131ed565b8583600185516124da9190612f5e565b815181106124ea576124ea612f75565b6020026020010151611d079190613028565b60008160008151811061251157612511612f75565b6020026020010151600a61252591906131ed565b612531856103e8613028565b61253b9190613028565b8260018151811061254e5761254e612f75565b6020026020010151600a61256291906131ed565b8461256d888a613028565b6125779190613028565b6125819190613028565b61258b9190613047565b9695505050505050565b606030318311156126115760405160e560020a62461bcd02815260206004820152602660248201527f416464726573733a20696e73756666696369656e742062616c616e636520666f60448201527f722063616c6c000000000000000000000000000000000000000000000000000060648201526084016102e8565b600160a060020a0385163b61266b5760405160e560020a62461bcd02815260206004820152601d60248201527f416464726573733a2063616c6c20746f206e6f6e2d636f6e747261637400000060448201526064016102e8565b60008086600160a060020a031685876040516126879190613357565b60006040518083038185875af1925050503d80600081146126c4576040519150601f19603f3d011682016040523d82523d6000602084013e6126c9565b606091505b5091509150611d1b828286606083156126e35750816123ee565b8251156126f35782518084602001fd5b8160405160e560020a62461bcd0281526004016102e89190613373565b600160a060020a03811681146102b857600080fd5b803561273081612710565b919050565b60e060020a634e487b7102600052604160045260246000fd5b604051610100810167ffffffffffffffff8111828210171561277257612772612735565b60405290565b60405160e0810167ffffffffffffffff8111828210171561277257612772612735565b604051610240810167ffffffffffffffff8111828210171561277257612772612735565b604051601f8201601f1916810167ffffffffffffffff811182821017156127e8576127e8612735565b604052919050565b60008060008084860360e081121561280757600080fd5b8535945060208601359350604086013561282081612710565b92506080605f198201121561283457600080fd5b506040516080810181811067ffffffffffffffff8211171561285857612858612735565b604052606086013561286981612710565b8152608086013561287981612710565b602082015260a086013561288c81612710565b604082015260c086013561289f81612710565b6060820152939692955090935050565b600067ffffffffffffffff8211156128c9576128c9612735565b5060209081020190565b600082601f8301126128e457600080fd5b813560206128f96128f4836128af565b6127bf565b8281529181028401810191818101908684111561291557600080fd5b8286015b8481101561293957803561292c81612710565b8352918301918301612919565b509695505050505050565b60006020828403121561295657600080fd5b813567ffffffffffffffff8082111561296e57600080fd5b90830190610100828603121561298357600080fd5b61298b61274e565b8235815260208301356020820152604083013560408201526129af60608401612725565b60608201526129c060808401612725565b608082015260a083013560a082015260c0830135828111156129e157600080fd5b6129ed878286016128d3565b60c0830152506129ff60e08401612725565b60e082015295945050505050565b600060208284031215612a1f57600080fd5b81356123ee81612710565b60008060008060008060c08789031215612a4357600080fd5b8635612a4e81612710565b95506020870135612a5e81612710565b945060408701359350606087013592506080870135915060a0870135612a8381612710565b809150509295509295509295565b600060208284031215612aa357600080fd5b813567ffffffffffffffff811115612aba57600080fd5b611311848285016128d3565b600081518084526020808501945080840160005b83811015612aff578151600160a060020a031687529582019590820190600101612ada565b509495945050505050565b6020815260006123ee6020830184612ac6565b600080600060608486031215612b3257600080fd5b83359250602084013567ffffffffffffffff80821115612b5157600080fd5b908501906101008288031215612b6657600080fd5b612b6e61274e565b612b7783612725565b8152612b8560208401612725565b6020820152612b9660408401612725565b6040820152612ba760608401612725565b6060820152612bb860808401612725565b6080820152612bc960a08401612725565b60a0820152612bda60c08401612725565b60c082015260e083013582811115612bf157600080fd5b612bfd898286016128d3565b60e0830152509497949650505050604092909201359150565b600080600060608486031215612c2b57600080fd5b83359250602084013567ffffffffffffffff80821115612c4a57600080fd5b9085019060e08288031215612c5e57600080fd5b612c66612778565b612c6f83612725565b8152612c7d60208401612725565b6020820152612c8e60408401612725565b6040820152612c9f60608401612725565b6060820152612cb060808401612725565b6080820152612cc160a08401612725565b60a082015260c083013582811115612cd857600080fd5b612ce4898286016128d3565b60c0830152509497949650505050604092909201359150565b61ffff811681146102b857600080fd5b803561273081612cfd565b80151581146102b857600080fd5b803561273081612d18565b600080600060608486031215612d4657600080fd5b8335925060208401359150604084013567ffffffffffffffff80821115612d6c57600080fd5b908501906102408288031215612d8157600080fd5b612d8961279b565b612d9283612725565b8152612da060208401612725565b6020820152612db160408401612725565b6040820152612dc260608401612725565b6060820152612dd360808401612725565b6080820152612de460a08401612725565b60a0820152612df560c08401612725565b60c0820152612e0660e08401612725565b60e0820152610100612e19818501612725565b90820152610120612e2b848201612725565b90820152610140612e3d848201612725565b908201526101608381013583811115612e5557600080fd5b612e618a8287016128d3565b8284015250506101808084013583811115612e7b57600080fd5b612e878a8287016128d3565b8284015250506101a08084013583811115612ea157600080fd5b612ead8a8287016128d3565b8284015250506101c09150612ec3828401612d0d565b828201526101e09150612ed7828401612d0d565b828201526102009150612eeb828401612d0d565b828201526102209150612eff828401612d26565b828201528093505050509250925092565b6020808252818101527f4f776e61626c653a2063616c6c6572206973206e6f7420746865206f776e6572604082015260600190565b60e060020a634e487b7102600052601160045260246000fd5b600082821015612f7057612f70612f45565b500390565b60e060020a634e487b7102600052603260045260246000fd5b600061ffff80831681811415612fa657612fa6612f45565b6001019392505050565b600060208284031215612fc257600080fd5b5051919050565b60008219821115612fdc57612fdc612f45565b500190565b60008060408385031215612ff457600080fd5b505080516020909101519092909150565b60006020828403121561301757600080fd5b815160ff811681146123ee57600080fd5b600081600019048311821515161561304257613042612f45565b500290565b6000826130675760e060020a634e487b7102600052601260045260246000fd5b500490565b60008060006060848603121561308157600080fd5b8351925060208401519150604084015190509250925092565b805169ffffffffffffffffffff8116811461273057600080fd5b600080600080600060a086880312156130cc57600080fd5b6130d58661309a565b94506020860151935060408601519250606086015191506130f86080870161309a565b90509295509295909350565b600181815b8085111561314157816000190482111561312557613125612f45565b8085161561313257918102915b60029094049390800290613109565b509250929050565b600082613158575060016131e7565b81613165575060006131e7565b816001811461317b5760028114613185576131a2565b60019150506131e7565b60ff84111561319657613196612f45565b8360020a9150506131e7565b5060208310610133831016604e8410600b84101617156131c5575081810a6131e7565b6131cf8383613104565b80600019048211156131e3576131e3612f45565b0290505b92915050565b60006123ee60ff841683613149565b60006020828403121561320e57600080fd5b81516123ee81612710565b60006020828403121561322b57600080fd5b81516123ee81612d18565b85815284602082015260a06040820152600061325560a0830186612ac6565b600160a060020a0394909416606083015250608001529392505050565b60006020828403121561328457600080fd5b81516123ee81612cfd565b8281526040602082015260006123eb6040830184612ac6565b600060208083850312156132bb57600080fd5b825167ffffffffffffffff8111156132d257600080fd5b8301601f810185136132e357600080fd5b80516132f16128f4826128af565b8181529083028201830190838101908783111561330d57600080fd5b928401925b82841015611d1b57835182529284019290840190613312565b60005b8381101561334657818101518382015260200161332e565b838111156102895750506000910152565b6000825161336981846020870161332b565b9190910192915050565b602081526000825180602084015261339281604085016020870161332b565b601f01601f1916919091016040019291505056fea264697066735822122010916b66fec35536395f5ebe7b7e7e88e651fc237858e6ba43600ee1c1c8eca564736f6c634300080a0033",
  "immutableReferences": {},
  "source": "// SPDX-License-Identifier: MIT\n\npragma solidity ^0.8.0;\n\nimport \"@openzeppelin/contracts-upgradeable/token/ERC20/IERC20Upgradeable.sol\";\n\nimport \"@openzeppelin/contracts-upgradeable/token/ERC20/ERC20Upgradeable.sol\";\n\nimport \"@openzeppelin/contracts-upgradeable/token/ERC20/utils/SafeERC20Upgradeable.sol\";\n\nimport \"../../interfaces/Alpaca/IAlpacaFairLaunch.sol\";\n\nimport \"../../interfaces/Alpaca/IAlpacaVault.sol\";\n\nimport \"../../interfaces/IAMMRouter02.sol\";\n\nimport \"../../interfaces/Zorro/Vaults/IVaultAlpaca.sol\";\n\nimport \"../../libraries/SafeSwap.sol\";\n\nimport \"../../libraries/PriceFeed.sol\";\n\nimport \"./_VaultActions.sol\";\n\ncontract VaultActionsAlpaca is VaultActions {\n    /* Libraries */\n\n    using SafeERC20Upgradeable for IERC20Upgradeable;\n    using SafeSwapUni for IAMMRouter02;\n    using PriceFeed for AggregatorV3Interface;\n\n    /* Structs */\n\n    struct ExchangeUSDForWantParams {\n        address stablecoin;\n        address token0Address;\n        address tokenZorroAddress;\n        address poolAddress;\n        address wantAddress;\n        AggregatorV3Interface token0PriceFeed;\n        AggregatorV3Interface stablecoinPriceFeed;\n        address[] stablecoinToToken0Path;\n    }\n\n    struct ExchangeWantTokenForUSDParams {\n        address stablecoin;\n        address token0Address;\n        address wantAddress;\n        address poolAddress;\n        AggregatorV3Interface token0PriceFeed;\n        AggregatorV3Interface stablecoinPriceFeed;\n        address[] token0ToStablecoinPath;\n    }\n\n    /* Functions */\n\n    /// @notice Performs necessary operations to convert USD into Want token\n    /// @param _amountUSD The USD quantity to exchange (must already be deposited)\n    /// @param _params A ExchangeUSDForWantParams struct\n    /// @param _maxMarketMovementAllowed The max slippage allowed. 1000 = 0 %, 995 = 0.5%, etc.\n    /// @return wantObtained Amount of Want token obtained\n    function exchangeUSDForWantToken(\n        uint256 _amountUSD,\n        ExchangeUSDForWantParams memory _params,\n        uint256 _maxMarketMovementAllowed\n    ) public returns (uint256 wantObtained) {\n        // Safe transfer IN\n        IERC20Upgradeable(_params.stablecoin).safeTransferFrom(\n            msg.sender,\n            address(this),\n            _amountUSD\n        );\n\n        // Swap USD for token0\n        // Single asset. Swap from USD directly to Token0\n        if (_params.token0Address != _params.stablecoin) {\n            _safeSwap(\n                SafeSwapUni.SafeSwapParams({\n                    amountIn: _amountUSD,\n                    priceToken0: _params.stablecoinPriceFeed.getExchangeRate(),\n                    priceToken1: _params.token0PriceFeed.getExchangeRate(),\n                    token0: _params.stablecoin,\n                    token1: _params.token0Address,\n                    maxMarketMovementAllowed: _maxMarketMovementAllowed,\n                    path: _params.stablecoinToToken0Path,\n                    destination: address(this)\n                })\n            );\n        }\n\n        // Get new Token0 balance\n        uint256 _token0Bal = IERC20Upgradeable(_params.token0Address).balanceOf(\n            address(this)\n        );\n\n        // Increase allowance\n        IERC20Upgradeable(_params.token0Address).safeIncreaseAllowance(\n            _params.poolAddress,\n            _token0Bal\n        );\n\n        // Deposit token to get Want token\n        IAlpacaVault(_params.poolAddress).deposit(_token0Bal);\n\n        // Calculate resulting want token balance\n        wantObtained = IERC20Upgradeable(_params.wantAddress).balanceOf(\n            address(this)\n        );\n\n        // Transfer back to sender\n        IERC20Upgradeable(_params.wantAddress).safeTransfer(\n            msg.sender,\n            wantObtained\n        );\n    }\n\n    /// @notice Converts Want token back into USD to be ready for withdrawal and transfers to sender\n    /// @param _amount The Want token quantity to exchange (must be deposited beforehand)\n    /// @param _params A ExchangeWantTokenForUSDParams struct\n    /// @param _maxMarketMovementAllowed The max slippage allowed for swaps. 1000 = 0 %, 995 = 0.5%, etc.\n    /// @return usdObtained Amount of USD token obtained\n    function exchangeWantTokenForUSD(\n        uint256 _amount,\n        ExchangeWantTokenForUSDParams memory _params,\n        uint256 _maxMarketMovementAllowed\n    ) public returns (uint256 usdObtained) {\n        // Preflight checks\n        require(_amount > 0, \"negWant\");\n\n        // Safely transfer Want token from sender\n        IERC20Upgradeable(_params.wantAddress).safeTransferFrom(\n            msg.sender,\n            address(this),\n            _amount\n        );\n\n        // Approve\n        IERC20Upgradeable(_params.wantAddress).safeIncreaseAllowance(\n            _params.poolAddress,\n            _amount\n        );\n\n        // Withdraw Want token to get Token0\n        IAlpacaVault(_params.poolAddress).withdraw(_amount);\n\n        // Get Token0 balance\n        uint256 _token0Bal = IERC20Upgradeable(_params.token0Address).balanceOf(\n            address(this)\n        );\n\n        // Swap Token0 -> BUSD\n        if (_params.token0Address != _params.stablecoin) {\n            _safeSwap(\n                SafeSwapUni.SafeSwapParams({\n                    amountIn: _token0Bal,\n                    priceToken0: _params.token0PriceFeed.getExchangeRate(),\n                    priceToken1: _params.stablecoinPriceFeed.getExchangeRate(),\n                    token0: _params.token0Address,\n                    token1: _params.stablecoin,\n                    maxMarketMovementAllowed: _maxMarketMovementAllowed,\n                    path: _params.token0ToStablecoinPath,\n                    destination: address(this)\n                })\n            );\n        }\n\n        // Calculate USD balance\n        usdObtained = IERC20Upgradeable(_params.stablecoin).balanceOf(\n            address(this)\n        );\n\n        // Transfer back to the sender\n        IERC20Upgradeable(_params.stablecoin).safeTransfer(\n            msg.sender,\n            usdObtained\n        );\n    }\n\n    // TODO: Docstrings\n    function _convertRemainingEarnedToWant(\n        uint256 _remainingEarnAmt,\n        uint256 _maxMarketMovementAllowed,\n        address _destination\n    ) internal override returns (uint256 wantObtained) {\n        // Prep\n        IVaultAlpaca _vault = IVaultAlpaca(msg.sender);\n\n        address _earnedAddress = _vault.earnedAddress();\n        address _token0Address = _vault.token0Address();\n        address _wantAddress = _vault.wantAddress();\n        address _poolAddress = _vault.poolAddress();\n        AggregatorV3Interface _token0PriceFeed = _vault.priceFeeds(_token0Address);\n        AggregatorV3Interface _earnTokenPriceFeed = _vault.priceFeeds(_earnedAddress);\n\n        // Swap earn to token0 if token0 is not earn\n        if (_token0Address != _earnedAddress) {\n            // Swap\n            _safeSwap(\n                SafeSwapUni.SafeSwapParams({\n                    amountIn: _remainingEarnAmt,\n                    priceToken0: _earnTokenPriceFeed.getExchangeRate(),\n                    priceToken1: _token0PriceFeed.getExchangeRate(),\n                    token0: _earnedAddress,\n                    token1: _token0Address,\n                    maxMarketMovementAllowed: _maxMarketMovementAllowed,\n                    path: _getSwapPath(_earnedAddress, _token0Address),\n                    destination: address(this)\n                })\n            );\n        }\n\n        // Redeposit single asset token to get Want token\n        // Get new Token0 balance\n        uint256 _token0Bal = IERC20Upgradeable(_token0Address).balanceOf(\n            address(this)\n        );\n\n        // Allow spending\n        IERC20Upgradeable(_token0Address).safeIncreaseAllowance(\n            _poolAddress,\n            _token0Bal\n        );\n\n        // Deposit token to get Want token\n        IAlpacaVault(_poolAddress).deposit(_token0Bal);\n\n        // Calc want balance\n        wantObtained = IERC20Upgradeable(_wantAddress).balanceOf(address(this));\n\n        // Transfer want token to destination\n        IERC20Upgradeable(_wantAddress).safeTransfer(_destination, wantObtained);\n    }\n}\n",
  "sourcePath": "/Users/kristophm/Documents/workspace/zorro-protocol/contracts/vaults/actions/VaultActionsAlpaca.sol",
  "compiler": {
    "name": "solc",
    "version": "0.8.10+commit.fc410830.Emscripten.clang"
  },
  "schemaVersion": "3.4.10",
  "updatedAt": "2022-11-26T22:09:34.973Z",
  "devdoc": {
    "kind": "dev",
    "methods": {
      "exchangeUSDForWantToken(uint256,(address,address,address,address,address,address,address,address[]),uint256)": {
        "params": {
          "_amountUSD": "The USD quantity to exchange (must already be deposited)",
          "_maxMarketMovementAllowed": "The max slippage allowed. 1000 = 0 %, 995 = 0.5%, etc.",
          "_params": "A ExchangeUSDForWantParams struct"
        },
        "returns": {
          "wantObtained": "Amount of Want token obtained"
        }
      },
      "exchangeWantTokenForUSD(uint256,(address,address,address,address,address,address,address[]),uint256)": {
        "params": {
          "_amount": "The Want token quantity to exchange (must be deposited beforehand)",
          "_maxMarketMovementAllowed": "The max slippage allowed for swaps. 1000 = 0 %, 995 = 0.5%, etc.",
          "_params": "A ExchangeWantTokenForUSDParams struct"
        },
        "returns": {
          "usdObtained": "Amount of USD token obtained"
        }
      },
      "exitPool(uint256,uint256,address,(address,address,address,address))": {
        "details": "NOTE: Requires caller to approve want token spending",
        "params": {
          "_amountLP": "The amount of LP (Want) tokens to remove",
          "_maxMarketMovementAllowed": "The max slippage allowed for swaps. 1000 = 0 %, 995 = 0.5%, etc.",
          "_recipient": "The recipient of the underlying tokens at pool exit"
        }
      },
      "initialize(address)": {
        "params": {
          "_uniRouterAddress": "Address of Uniswap style router"
        }
      },
      "joinPool(address,address,uint256,uint256,uint256,address)": {
        "details": "NOTE: Requires spending approval by caller",
        "params": {
          "_maxMarketMovementAllowed": "The max slippage allowed for swaps. 1000 = 0 %, 995 = 0.5%, etc.",
          "_recipient": "The recipient of the LP token",
          "_token0": "The address of Token0",
          "_token0Amt": "Quantity of Token0 to add",
          "_token1": "The address of Token1",
          "_token1Amt": "Quantity of Token1 to add"
        }
      },
      "owner()": {
        "details": "Returns the address of the current owner."
      },
      "renounceOwnership()": {
        "details": "Leaves the contract without owner. It will not be possible to call `onlyOwner` functions anymore. Can only be called by the current owner. NOTE: Renouncing ownership will leave the contract without an owner, thereby removing any functionality that is only available to the owner."
      },
      "reversePath(address[])": {
        "params": {
          "_path": "The swap path to be reversed"
        },
        "returns": {
          "newPath": "An reversed path array"
        }
      },
      "safeSwap((uint256,uint256,uint256,address,address,uint256,address[],address))": {
        "details": "NOTE: Caller must approve tokens for spending beforehand",
        "params": {
          "_swapParams": "SafeSwapParams for swap"
        }
      },
      "transferOwnership(address)": {
        "details": "Transfers ownership of the contract to a new account (`newOwner`). Can only be called by the current owner."
      }
    },
    "version": 1
  },
  "userdoc": {
    "kind": "user",
    "methods": {
      "distributeAndReinvestEarnings(uint256,uint256,(address,address,address,address,address,address,address,address,address,address,address,address[],address[],address[],uint16,uint16,uint16,bool))": {
        "notice": "Distributes earnings and reinvests remainder into Want token"
      },
      "exchangeUSDForWantToken(uint256,(address,address,address,address,address,address,address,address[]),uint256)": {
        "notice": "Performs necessary operations to convert USD into Want token"
      },
      "exchangeWantTokenForUSD(uint256,(address,address,address,address,address,address,address[]),uint256)": {
        "notice": "Converts Want token back into USD to be ready for withdrawal and transfers to sender"
      },
      "exitPool(uint256,uint256,address,(address,address,address,address))": {
        "notice": "Removes liquidity from a pool and sends tokens back to this address"
      },
      "initialize(address)": {
        "notice": "Constructor"
      },
      "joinPool(address,address,uint256,uint256,uint256,address)": {
        "notice": "Adds liquidity to the pool of this contract"
      },
      "reversePath(address[])": {
        "notice": "Gets the swap path in the opposite direction of a trade"
      },
      "safeSwap((uint256,uint256,uint256,address,address,uint256,address[],address))": {
        "notice": "Safely swaps tokens using the most suitable protocol based on token"
      }
    },
    "version": 1
  }
}