{
  "contractName": "VaultActionsStandardAMM",
  "abi": [
    {
      "anonymous": false,
      "inputs": [
        {
          "indexed": true,
          "internalType": "address",
          "name": "previousOwner",
          "type": "address"
        },
        {
          "indexed": true,
          "internalType": "address",
          "name": "newOwner",
          "type": "address"
        }
      ],
      "name": "OwnershipTransferred",
      "type": "event"
    },
    {
      "inputs": [],
      "name": "burnAddress",
      "outputs": [
        {
          "internalType": "address",
          "name": "",
          "type": "address"
        }
      ],
      "stateMutability": "view",
      "type": "function"
    },
    {
      "inputs": [
        {
          "internalType": "uint256",
          "name": "_amount",
          "type": "uint256"
        },
        {
          "internalType": "uint256",
          "name": "_maxMarketMovementAllowed",
          "type": "uint256"
        },
        {
          "components": [
            {
              "internalType": "uint256",
              "name": "earn",
              "type": "uint256"
            },
            {
              "internalType": "uint256",
              "name": "ZOR",
              "type": "uint256"
            },
            {
              "internalType": "uint256",
              "name": "lpPoolOtherToken",
              "type": "uint256"
            },
            {
              "internalType": "uint256",
              "name": "stablecoin",
              "type": "uint256"
            }
          ],
          "internalType": "struct VaultActions.ExchangeRates",
          "name": "_rates",
          "type": "tuple"
        },
        {
          "components": [
            {
              "internalType": "address",
              "name": "earnedAddress",
              "type": "address"
            },
            {
              "internalType": "address",
              "name": "ZORROAddress",
              "type": "address"
            },
            {
              "internalType": "address",
              "name": "zorroLPPoolOtherToken",
              "type": "address"
            },
            {
              "internalType": "address[]",
              "name": "earnedToZORROPath",
              "type": "address[]"
            },
            {
              "internalType": "address[]",
              "name": "earnedToZORLPPoolOtherTokenPath",
              "type": "address[]"
            }
          ],
          "internalType": "struct VaultActions.BuybackBurnLPParams",
          "name": "_params",
          "type": "tuple"
        }
      ],
      "name": "buybackBurnLP",
      "outputs": [],
      "stateMutability": "nonpayable",
      "type": "function"
    },
    {
      "inputs": [
        {
          "internalType": "uint256",
          "name": "_amountLP",
          "type": "uint256"
        },
        {
          "internalType": "uint256",
          "name": "_maxMarketMovementAllowed",
          "type": "uint256"
        },
        {
          "internalType": "address",
          "name": "_recipient",
          "type": "address"
        },
        {
          "components": [
            {
              "internalType": "address",
              "name": "token0",
              "type": "address"
            },
            {
              "internalType": "address",
              "name": "token1",
              "type": "address"
            },
            {
              "internalType": "address",
              "name": "poolAddress",
              "type": "address"
            },
            {
              "internalType": "address",
              "name": "lpTokenAddress",
              "type": "address"
            }
          ],
          "internalType": "struct VaultActions.ExitPoolParams",
          "name": "_exitPoolParams",
          "type": "tuple"
        }
      ],
      "name": "exitPool",
      "outputs": [],
      "stateMutability": "nonpayable",
      "type": "function"
    },
    {
      "inputs": [
        {
          "internalType": "address",
          "name": "_uniRouterAddress",
          "type": "address"
        }
      ],
      "name": "initialize",
      "outputs": [],
      "stateMutability": "nonpayable",
      "type": "function"
    },
    {
      "inputs": [
        {
          "internalType": "address",
          "name": "_token0",
          "type": "address"
        },
        {
          "internalType": "address",
          "name": "_token1",
          "type": "address"
        },
        {
          "internalType": "uint256",
          "name": "_token0Amt",
          "type": "uint256"
        },
        {
          "internalType": "uint256",
          "name": "_token1Amt",
          "type": "uint256"
        },
        {
          "internalType": "uint256",
          "name": "_maxMarketMovementAllowed",
          "type": "uint256"
        },
        {
          "internalType": "address",
          "name": "_recipient",
          "type": "address"
        }
      ],
      "name": "joinPool",
      "outputs": [],
      "stateMutability": "nonpayable",
      "type": "function"
    },
    {
      "inputs": [],
      "name": "owner",
      "outputs": [
        {
          "internalType": "address",
          "name": "",
          "type": "address"
        }
      ],
      "stateMutability": "view",
      "type": "function"
    },
    {
      "inputs": [],
      "name": "renounceOwnership",
      "outputs": [],
      "stateMutability": "nonpayable",
      "type": "function"
    },
    {
      "inputs": [
        {
          "internalType": "address[]",
          "name": "_path",
          "type": "address[]"
        }
      ],
      "name": "reversePath",
      "outputs": [
        {
          "internalType": "address[]",
          "name": "_newPath",
          "type": "address[]"
        }
      ],
      "stateMutability": "pure",
      "type": "function"
    },
    {
      "inputs": [
        {
          "components": [
            {
              "internalType": "uint256",
              "name": "amountIn",
              "type": "uint256"
            },
            {
              "internalType": "uint256",
              "name": "priceToken0",
              "type": "uint256"
            },
            {
              "internalType": "uint256",
              "name": "priceToken1",
              "type": "uint256"
            },
            {
              "internalType": "address",
              "name": "token0",
              "type": "address"
            },
            {
              "internalType": "address",
              "name": "token1",
              "type": "address"
            },
            {
              "internalType": "uint256",
              "name": "maxMarketMovementAllowed",
              "type": "uint256"
            },
            {
              "internalType": "address[]",
              "name": "path",
              "type": "address[]"
            },
            {
              "internalType": "address",
              "name": "destination",
              "type": "address"
            }
          ],
          "internalType": "struct SafeSwapUni.SafeSwapParams",
          "name": "_swapParams",
          "type": "tuple"
        }
      ],
      "name": "safeSwap",
      "outputs": [],
      "stateMutability": "nonpayable",
      "type": "function"
    },
    {
      "inputs": [
        {
          "internalType": "address",
          "name": "_burnAddress",
          "type": "address"
        }
      ],
      "name": "setBurnAddress",
      "outputs": [],
      "stateMutability": "nonpayable",
      "type": "function"
    },
    {
      "inputs": [
        {
          "internalType": "address",
          "name": "_uniRouterAddress",
          "type": "address"
        }
      ],
      "name": "setUniRouterAddress",
      "outputs": [],
      "stateMutability": "nonpayable",
      "type": "function"
    },
    {
      "inputs": [
        {
          "internalType": "address",
          "name": "newOwner",
          "type": "address"
        }
      ],
      "name": "transferOwnership",
      "outputs": [],
      "stateMutability": "nonpayable",
      "type": "function"
    },
    {
      "inputs": [],
      "name": "uniRouterAddress",
      "outputs": [
        {
          "internalType": "address",
          "name": "",
          "type": "address"
        }
      ],
      "stateMutability": "view",
      "type": "function"
    },
    {
      "inputs": [
        {
          "internalType": "uint256",
          "name": "_amountUSD",
          "type": "uint256"
        },
        {
          "components": [
            {
              "internalType": "address",
              "name": "stablecoin",
              "type": "address"
            },
            {
              "internalType": "address",
              "name": "token0Address",
              "type": "address"
            },
            {
              "internalType": "address",
              "name": "token1Address",
              "type": "address"
            },
            {
              "internalType": "address",
              "name": "wantAddress",
              "type": "address"
            },
            {
              "internalType": "contract AggregatorV3Interface",
              "name": "stablecoinPriceFeed",
              "type": "address"
            },
            {
              "internalType": "contract AggregatorV3Interface",
              "name": "token0PriceFeed",
              "type": "address"
            },
            {
              "internalType": "contract AggregatorV3Interface",
              "name": "token1PriceFeed",
              "type": "address"
            },
            {
              "internalType": "address[]",
              "name": "stablecoinToToken0Path",
              "type": "address[]"
            },
            {
              "internalType": "address[]",
              "name": "stablecoinToToken1Path",
              "type": "address[]"
            }
          ],
          "internalType": "struct VaultActionsStandardAMM.ExchUSDToWantParams",
          "name": "_params",
          "type": "tuple"
        },
        {
          "internalType": "uint256",
          "name": "_maxMarketMovementAllowed",
          "type": "uint256"
        }
      ],
      "name": "exchangeUSDForWantToken",
      "outputs": [
        {
          "internalType": "uint256",
          "name": "wantObtained",
          "type": "uint256"
        }
      ],
      "stateMutability": "nonpayable",
      "type": "function"
    },
    {
      "inputs": [
        {
          "internalType": "uint256",
          "name": "_amount",
          "type": "uint256"
        },
        {
          "components": [
            {
              "internalType": "address",
              "name": "stablecoin",
              "type": "address"
            },
            {
              "internalType": "address",
              "name": "token0Address",
              "type": "address"
            },
            {
              "internalType": "address",
              "name": "token1Address",
              "type": "address"
            },
            {
              "internalType": "address",
              "name": "wantAddress",
              "type": "address"
            },
            {
              "internalType": "address",
              "name": "poolAddress",
              "type": "address"
            },
            {
              "internalType": "contract AggregatorV3Interface",
              "name": "token0PriceFeed",
              "type": "address"
            },
            {
              "internalType": "contract AggregatorV3Interface",
              "name": "token1PriceFeed",
              "type": "address"
            },
            {
              "internalType": "contract AggregatorV3Interface",
              "name": "stablecoinPriceFeed",
              "type": "address"
            },
            {
              "internalType": "address[]",
              "name": "token0ToStablecoinPath",
              "type": "address[]"
            },
            {
              "internalType": "address[]",
              "name": "token1ToStablecoinPath",
              "type": "address[]"
            }
          ],
          "internalType": "struct VaultActionsStandardAMM.ExchWantToUSDParams",
          "name": "_params",
          "type": "tuple"
        },
        {
          "internalType": "uint256",
          "name": "_maxMarketMovementAllowed",
          "type": "uint256"
        }
      ],
      "name": "exchangeWantTokenForUSD",
      "outputs": [
        {
          "internalType": "uint256",
          "name": "usdObtained",
          "type": "uint256"
        }
      ],
      "stateMutability": "nonpayable",
      "type": "function"
    }
  ],
  "bytecode": "0x608060405234801561001057600080fd5b50612a61806100206000396000f3fe608060405234801561001057600080fd5b50600436106100f95760003560e060020a9004806370d5ae051161009b5780638da5cb5b1161006a5780638da5cb5b146101fe578063c4d66de81461020f578063d0c349bf14610222578063f2fde38b1461023557600080fd5b806370d5ae05146101b0578063715018a6146101c35780638b4c5aee146101cb5780638d82ddca146101eb57600080fd5b80634b0e7216116100d75780634b0e72161461014c57806358f5ab9f1461015f5780635da79d6314610172578063693a090b1461018557600080fd5b80630c70c281146100fe57806312ad7eba1461011357806312ff80cf14610126575b600080fd5b61011161010c366004611f30565b610248565b005b610111610121366004612066565b610274565b61013961013436600461212f565b6102a0565b6040519081526020015b60405180910390f35b61011161015a36600461224f565b6105d2565b61011161016d36600461226c565b610637565b61011161018036600461224f565b610677565b60655461019890600160a060020a031681565b604051600160a060020a039091168152602001610143565b60665461019890600160a060020a031681565b6101116106d3565b6101de6101d93660046122d3565b61070c565b604051610143919061234c565b6101116101f9366004612425565b6107e0565b603354600160a060020a0316610198565b61011161021d36600461224f565b610a44565b6101396102303660046124bd565b610b48565b61011161024336600461224f565b610ee1565b606081015161026290600160a060020a0316333087610f96565b61026e84848484611047565b50505050565b8051606082015161029491600160a060020a039091169033903090610f96565b61029d816111d1565b50565b81516000906102ba90600160a060020a0316333087610f96565b8260000151600160a060020a03168360200151600160a060020a03161461037a5761037a6040518061010001604052806002876102f791906125e3565b81526020016103128660800151600160a060020a03166113e1565b815260200161032d8660a00151600160a060020a03166113e1565b81526020018560000151600160a060020a031681526020018560200151600160a060020a031681526020018481526020018560e00151815260200130600160a060020a03168152506111d1565b8260000151600160a060020a03168360400151600160a060020a03161461043b5761043b6040518061010001604052806002876103b791906125e3565b81526020016103d28660800151600160a060020a03166113e1565b81526020016103ed8660c00151600160a060020a03166113e1565b81526020018560000151600160a060020a031681526020018560400151600160a060020a03168152602001848152602001856101000151815260200130600160a060020a03168152506111d1565b602083015160405160e060020a6370a08231028152306004820152600091600160a060020a0316906370a0823190602401602060405180830381865afa158015610489573d6000803e3d6000fd5b505050506040513d601f19601f820116820180604052508101906104ad9190612608565b604080860151905160e060020a6370a08231028152306004820152919250600091600160a060020a03909116906370a0823190602401602060405180830381865afa158015610500573d6000803e3d6000fd5b505050506040513d601f19601f820116820180604052508101906105249190612608565b905061053c8560200151866040015184848833611538565b606085015160405160e060020a6370a08231028152336004820152600160a060020a03909116906370a0823190602401602060405180830381865afa158015610589573d6000803e3d6000fd5b505050506040513d601f19601f820116820180604052508101906105ad9190612608565b60608601519093506105c990600160a060020a0316338561165a565b50509392505050565b603354600160a060020a031633146106085760405160e560020a62461bcd0281526004016105ff90612621565b60405180910390fd5b6066805473ffffffffffffffffffffffffffffffffffffffff1916600160a060020a0392909216919091179055565b61064c600160a060020a038716333087610f96565b610661600160a060020a038616333086610f96565b61066f868686868686611538565b505050505050565b603354600160a060020a031633146106a45760405160e560020a62461bcd0281526004016105ff90612621565b6065805473ffffffffffffffffffffffffffffffffffffffff1916600160a060020a0392909216919091179055565b603354600160a060020a031633146107005760405160e560020a62461bcd0281526004016105ff90612621565b61070a60006116a3565b565b80516060908067ffffffffffffffff81111561072a5761072a611e51565b604051908082528060200260200182016040528015610753578160200160208202803683370190505b50915060005b818161ffff1610156107d957838161ffff16600186516107799190612656565b6107839190612656565b815181106107935761079361266d565b6020026020010151838261ffff16815181106107b1576107b161266d565b600160a060020a03909216602092830291909101909101526107d281612686565b9050610759565b5050919050565b80516107f790600160a060020a0316333087610f96565b8060200151600160a060020a03168160000151600160a060020a0316146108955761089560405180610100016040528060028761083491906125e3565b815260200184600001518152602001846020015181526020018360000151600160a060020a031681526020018360200151600160a060020a031681526020018581526020018360600151815260200130600160a060020a03168152506111d1565b8060400151600160a060020a03168160000151600160a060020a031614610933576109336040518061010001604052806002876108d291906125e3565b815260200184600001518152602001846040015181526020018360000151600160a060020a031681526020018360400151600160a060020a031681526020018581526020018360800151815260200130600160a060020a03168152506111d1565b602081015160405160e060020a6370a08231028152306004820152600091600160a060020a0316906370a0823190602401602060405180830381865afa158015610981573d6000803e3d6000fd5b505050506040513d601f19601f820116820180604052508101906109a59190612608565b604080840151905160e060020a6370a08231028152306004820152919250600091600160a060020a03909116906370a0823190602401602060405180830381865afa1580156109f8573d6000803e3d6000fd5b505050506040513d601f19601f82011682018060405250810190610a1c9190612608565b6020840151604085015160665492935061066f92859085908a90600160a060020a0316611538565b600054610100900460ff16610a5f5760005460ff1615610a63565b303b155b610ad85760405160e560020a62461bcd02815260206004820152602e60248201527f496e697469616c697a61626c653a20636f6e747261637420697320616c72656160448201527f647920696e697469616c697a656400000000000000000000000000000000000060648201526084016105ff565b600054610100900460ff16158015610afa576000805461ffff19166101011790555b60658054600160a060020a03841673ffffffffffffffffffffffffffffffffffffffff19918216179091556066805490911661dead1790558015610b44576000805461ff00191690555b5050565b6000808411610b9c5760405160e560020a62461bcd02815260206004820152600760248201527f6e656757616e740000000000000000000000000000000000000000000000000060448201526064016105ff565b6060830151610bb690600160a060020a0316333087610f96565b610c1684833060405180608001604052808860200151600160a060020a031681526020018860400151600160a060020a031681526020018860800151600160a060020a031681526020018860600151600160a060020a0316815250611047565b602083015160405160e060020a6370a08231028152306004820152600091600160a060020a0316906370a0823190602401602060405180830381865afa158015610c64573d6000803e3d6000fd5b505050506040513d601f19601f82011682018060405250810190610c889190612608565b604080860151905160e060020a6370a08231028152306004820152919250600091600160a060020a03909116906370a0823190602401602060405180830381865afa158015610cdb573d6000803e3d6000fd5b505050506040513d601f19601f82011682018060405250810190610cff9190612608565b90508460000151600160a060020a03168560200151600160a060020a031614610db657610db6604051806101000160405280848152602001610d4d8860a00151600160a060020a03166113e1565b8152602001610d688860e00151600160a060020a03166113e1565b81526020018760200151600160a060020a031681526020018760000151600160a060020a03168152602001868152602001876101000151815260200130600160a060020a03168152506111d1565b8460000151600160a060020a03168560400151600160a060020a031614610e5a57610e5a604051806101000160405280838152602001610e028860c00151600160a060020a03166113e1565b8152602001610e1d8860e00151600160a060020a03166113e1565b8152604080890151600160a060020a039081166020840152895116908201526060810187905261012088015160808201523060a0909101526111d1565b845160405160e060020a6370a08231028152306004820152600160a060020a03909116906370a0823190602401602060405180830381865afa158015610ea4573d6000803e3d6000fd5b505050506040513d601f19601f82011682018060405250810190610ec89190612608565b85519093506105c990600160a060020a0316338561165a565b603354600160a060020a03163314610f0e5760405160e560020a62461bcd0281526004016105ff90612621565b600160a060020a038116610f8d5760405160e560020a62461bcd02815260206004820152602660248201527f4f776e61626c653a206e6577206f776e657220697320746865207a65726f206160448201527f646472657373000000000000000000000000000000000000000000000000000060648201526084016105ff565b61029d816116a3565b604051600160a060020a038085166024830152831660448201526064810182905261026e9085907f23b872dd00000000000000000000000000000000000000000000000000000000906084015b60408051601f198184030181529190526020810180517bffffffffffffffffffffffffffffffffffffffffffffffffffffffff167fffffffff0000000000000000000000000000000000000000000000000000000090931692909217909152611702565b60008060008360400151600160a060020a03166318160ddd6040518163ffffffff1660e060020a028152600401602060405180830381865afa158015611091573d6000803e3d6000fd5b505050506040513d601f19601f820116820180604052508101906110b59190612608565b90506110cc8785600001518660400151848a6117ea565b92506110e38785602001518660400151848a6117ea565b606554606086015191935061110591600160a060020a03908116911689611894565b60655484516020860151600160a060020a039092169163baa2abde91908a87878b611132426102586126a8565b60405163ffffffff891660e060020a028152600160a060020a039788166004820152958716602487015260448601949094526064850192909252608484015290921660a482015260c481019190915260e40160408051808303816000875af11580156111a2573d6000803e3d6000fd5b505050506040513d601f19601f820116820180604052508101906111c691906126c0565b505050505050505050565b606554815160608301516111f392600160a060020a0391821692911690611894565b6040805160028082526060820183526000926020830190803683370190505090508160600151600160a060020a031663313ce5676040518163ffffffff1660e060020a028152600401602060405180830381865afa158015611259573d6000803e3d6000fd5b505050506040513d601f19601f8201168201806040525081019061127d91906126e4565b816000815181106112905761129061266d565b602002602001019060ff16908160ff16815250508160800151600160a060020a031663313ce5676040518163ffffffff1660e060020a028152600401602060405180830381865afa1580156112e9573d6000803e3d6000fd5b505050506040513d601f19601f8201168201806040525081019061130d91906126e4565b816001815181106113205761132061266d565b60ff92909216602092830291909101820152604080516002808252606082018352600093919290918301908036833701905050905082602001518160008151811061136d5761136d61266d565b6020026020010181815250508260400151816001815181106113915761139161266d565b6020026020010181815250506113dc8360000151828560a001518660c00151868860e00151426102586113c491906126a8565b606554600160a060020a031696959493929190611978565b505050565b60008082600160a060020a031663313ce5676040518163ffffffff1660e060020a028152600401602060405180830381865afa158015611425573d6000803e3d6000fd5b505050506040513d601f19601f8201168201806040525081019061144991906126e4565b9050600083600160a060020a031663feaf968c6040518163ffffffff1660e060020a02815260040160a060405180830381865afa15801561148e573d6000803e3d6000fd5b505050506040513d601f19601f820116820180604052508101906114b29190612721565b505050915050600081121561150c5760405160e560020a62461bcd02815260206004820152601660248201527f6e656720707269636573206e6f7420616c6c6f7765640000000000000000000060448201526064016105ff565b61151782600a61285a565b6115268264e8d4a51000612869565b61153091906125e3565b949350505050565b60655461155290600160a060020a03888116911686611894565b60655461156c90600160a060020a03878116911685611894565b606554600160a060020a031663e8e33700878787876103e861158e8984612869565b61159891906125e3565b6103e86115a58a8c612869565b6115af91906125e3565b886115bc426102586126a8565b60405163ffffffff8a1660e060020a028152600160a060020a039889166004820152968816602488015260448701959095526064860193909352608485019190915260a484015290921660c482015260e4810191909152610104016060604051808303816000875af1158015611636573d6000803e3d6000fd5b505050506040513d601f19601f820116820180604052508101906111c69190612888565b604051600160a060020a0383166024820152604481018290526113dc9084907fa9059cbb0000000000000000000000000000000000000000000000000000000090606401610fe3565b60338054600160a060020a0383811673ffffffffffffffffffffffffffffffffffffffff19831681179093556040519116919082907f8be0079c531659141344cd1fd0a4f28419497f9722a3daafe3b4186f6b6457e090600090a35050565b6000611757826040518060400160405280602081526020017f5361666545524332303a206c6f772d6c6576656c2063616c6c206661696c656481525085600160a060020a0316611af89092919063ffffffff16565b8051909150156113dc578080602001905181019061177591906128b6565b6113dc5760405160e560020a62461bcd02815260206004820152602a60248201527f5361666545524332303a204552433230206f7065726174696f6e20646964206e60448201527f6f7420737563636565640000000000000000000000000000000000000000000060648201526084016105ff565b60405160e060020a6370a08231028152600160a060020a03848116600483015260009182918716906370a0823190602401602060405180830381865afa158015611838573d6000803e3d6000fd5b505050506040513d601f19601f8201168201806040525081019061185c9190612608565b905061186a846103e8612869565b83611875838a612869565b61187f9190612869565b61188991906125e3565b979650505050505050565b6040517fdd62ed3e000000000000000000000000000000000000000000000000000000008152306004820152600160a060020a038381166024830152600091839186169063dd62ed3e90604401602060405180830381865afa1580156118fe573d6000803e3d6000fd5b505050506040513d601f19601f820116820180604052508101906119229190612608565b61192c91906126a8565b604051600160a060020a03851660248201526044810182905290915061026e9085907f095ea7b30000000000000000000000000000000000000000000000000000000090606401610fe3565b82516002146119cc5760405160e560020a62461bcd02815260206004820152600b60248201527f696e76616c69642064656300000000000000000000000000000000000000000060448201526064016105ff565b6000866000815181106119e1576119e161266d565b602002602001015160001480611a11575086600181518110611a0557611a0561266d565b60200260200101516000145b15611a2a57611a238989878988611b11565b9050611a6e565b611a6b8888600081518110611a4157611a4161266d565b602002602001015189600181518110611a5c57611a5c61266d565b60200260200101518988611c18565b90505b6040517f5c11d795000000000000000000000000000000000000000000000000000000008152600160a060020a038a1690635c11d79590611abb908b9085908a90899089906004016128d8565b600060405180830381600087803b158015611ad557600080fd5b505af1158015611ae9573d6000803e3d6000fd5b50505050505050505050505050565b6060611b078484600085611cb1565b90505b9392505050565b60008086600160a060020a031663d06ca61f87876040518363ffffffff1660e060020a028152600401611b45929190612914565b600060405180830381865afa158015611b62573d6000803e3d6000fd5b505050506040513d6000823e601f3d908101601f19168201604052611b8a919081019061292d565b905082600081518110611b9f57611b9f61266d565b6020026020010151600a611bb3919061285a565b611bbf906103e8612869565b83600181518110611bd257611bd261266d565b6020026020010151600a611be6919061285a565b858360018551611bf69190612656565b81518110611c0657611c0661266d565b60200260200101516118759190612869565b600081600081518110611c2d57611c2d61266d565b6020026020010151600a611c41919061285a565b611c4d856103e8612869565b611c579190612869565b82600181518110611c6a57611c6a61266d565b6020026020010151600a611c7e919061285a565b84611c89888a612869565b611c939190612869565b611c9d9190612869565b611ca791906125e3565b9695505050505050565b60603031831115611d2d5760405160e560020a62461bcd02815260206004820152602660248201527f416464726573733a20696e73756666696369656e742062616c616e636520666f60448201527f722063616c6c000000000000000000000000000000000000000000000000000060648201526084016105ff565b600160a060020a0385163b611d875760405160e560020a62461bcd02815260206004820152601d60248201527f416464726573733a2063616c6c20746f206e6f6e2d636f6e747261637400000060448201526064016105ff565b60008086600160a060020a03168587604051611da391906129dc565b60006040518083038185875af1925050503d8060008114611de0576040519150601f19603f3d011682016040523d82523d6000602084013e611de5565b606091505b509150915061188982828660608315611dff575081611b0a565b825115611e0f5782518084602001fd5b8160405160e560020a62461bcd0281526004016105ff91906129f8565b600160a060020a038116811461029d57600080fd5b8035611e4c81611e2c565b919050565b60e060020a634e487b7102600052604160045260246000fd5b6040516080810167ffffffffffffffff81118282101715611e8d57611e8d611e51565b60405290565b604051610100810167ffffffffffffffff81118282101715611e8d57611e8d611e51565b604051610120810167ffffffffffffffff81118282101715611e8d57611e8d611e51565b604051610140810167ffffffffffffffff81118282101715611e8d57611e8d611e51565b604051601f8201601f1916810167ffffffffffffffff81118282101715611f2857611f28611e51565b604052919050565b60008060008084860360e0811215611f4757600080fd5b85359450602086013593506040860135611f6081611e2c565b92506080605f1982011215611f7457600080fd5b50611f7d611e6a565b6060860135611f8b81611e2c565b81526080860135611f9b81611e2c565b602082015260a0860135611fae81611e2c565b604082015260c0860135611fc181611e2c565b6060820152939692955090935050565b600067ffffffffffffffff821115611feb57611feb611e51565b5060209081020190565b600082601f83011261200657600080fd5b8135602061201b61201683611fd1565b611eff565b8281529181028401810191818101908684111561203757600080fd5b8286015b8481101561205b57803561204e81611e2c565b835291830191830161203b565b509695505050505050565b60006020828403121561207857600080fd5b813567ffffffffffffffff8082111561209057600080fd5b9083019061010082860312156120a557600080fd5b6120ad611e93565b8235815260208301356020820152604083013560408201526120d160608401611e41565b60608201526120e260808401611e41565b608082015260a083013560a082015260c08301358281111561210357600080fd5b61210f87828601611ff5565b60c08301525061212160e08401611e41565b60e082015295945050505050565b60008060006060848603121561214457600080fd5b83359250602084013567ffffffffffffffff8082111561216357600080fd5b90850190610120828803121561217857600080fd5b612180611eb7565b61218983611e41565b815261219760208401611e41565b60208201526121a860408401611e41565b60408201526121b960608401611e41565b60608201526121ca60808401611e41565b60808201526121db60a08401611e41565b60a08201526121ec60c08401611e41565b60c082015260e08301358281111561220357600080fd5b61220f89828601611ff5565b60e083015250610100808401358381111561222957600080fd5b6122358a828701611ff5565b828401525050809450505050604084013590509250925092565b60006020828403121561226157600080fd5b8135611b0a81611e2c565b60008060008060008060c0878903121561228557600080fd5b863561229081611e2c565b955060208701356122a081611e2c565b945060408701359350606087013592506080870135915060a08701356122c581611e2c565b809150509295509295509295565b6000602082840312156122e557600080fd5b813567ffffffffffffffff8111156122fc57600080fd5b61153084828501611ff5565b600081518084526020808501945080840160005b83811015612341578151600160a060020a03168752958201959082019060010161231c565b509495945050505050565b602081526000611b0a6020830184612308565b600060a0828403121561237157600080fd5b60405160a0810167ffffffffffffffff828210818311171561239557612395611e51565b81604052829350843591506123a982611e2c565b9082526020840135906123bb82611e2c565b8160208401526123cd60408601611e41565b604084015260608501359150808211156123e657600080fd5b6123f286838701611ff5565b6060840152608085013591508082111561240b57600080fd5b5061241885828601611ff5565b6080830152505092915050565b60008060008084860360e081121561243c57600080fd5b85359450602086013593506080603f198201121561245957600080fd5b50612462611e6a565b60408601358152606086013560208201526080860135604082015260a086013560608201528092505060c085013567ffffffffffffffff8111156124a557600080fd5b6124b18782880161235f565b91505092959194509250565b6000806000606084860312156124d257600080fd5b83359250602084013567ffffffffffffffff808211156124f157600080fd5b90850190610140828803121561250657600080fd5b61250e611edb565b61251783611e41565b815261252560208401611e41565b602082015261253660408401611e41565b604082015261254760608401611e41565b606082015261255860808401611e41565b608082015261256960a08401611e41565b60a082015261257a60c08401611e41565b60c082015261258b60e08401611e41565b60e082015261010080840135838111156125a457600080fd5b6125b08a828701611ff5565b828401525050610120808401358381111561222957600080fd5b60e060020a634e487b7102600052601160045260246000fd5b6000826126035760e060020a634e487b7102600052601260045260246000fd5b500490565b60006020828403121561261a57600080fd5b5051919050565b6020808252818101527f4f776e61626c653a2063616c6c6572206973206e6f7420746865206f776e6572604082015260600190565b600082821015612668576126686125ca565b500390565b60e060020a634e487b7102600052603260045260246000fd5b600061ffff8083168181141561269e5761269e6125ca565b6001019392505050565b600082198211156126bb576126bb6125ca565b500190565b600080604083850312156126d357600080fd5b505080516020909101519092909150565b6000602082840312156126f657600080fd5b815160ff81168114611b0a57600080fd5b805169ffffffffffffffffffff81168114611e4c57600080fd5b600080600080600060a0868803121561273957600080fd5b61274286612707565b945060208601519350604086015192506060860151915061276560808701612707565b90509295509295909350565b600181815b808511156127ae578160001904821115612792576127926125ca565b8085161561279f57918102915b60029094049390800290612776565b509250929050565b6000826127c557506001612854565b816127d257506000612854565b81600181146127e857600281146127f25761280f565b6001915050612854565b60ff841115612803576128036125ca565b8360020a915050612854565b5060208310610133831016604e8410600b8410161715612832575081810a612854565b61283c8383612771565b8060001904821115612850576128506125ca565b0290505b92915050565b6000611b0a60ff8416836127b6565b6000816000190483118215151615612883576128836125ca565b500290565b60008060006060848603121561289d57600080fd5b8351925060208401519150604084015190509250925092565b6000602082840312156128c857600080fd5b81518015158114611b0a57600080fd5b85815284602082015260a0604082015260006128f760a0830186612308565b600160a060020a0394909416606083015250608001529392505050565b828152604060208201526000611b076040830184612308565b6000602080838503121561294057600080fd5b825167ffffffffffffffff81111561295757600080fd5b8301601f8101851361296857600080fd5b805161297661201682611fd1565b8181529083028201830190838101908783111561299257600080fd5b928401925b8284101561188957835182529284019290840190612997565b60005b838110156129cb5781810151838201526020016129b3565b8381111561026e5750506000910152565b600082516129ee8184602087016129b0565b9190910192915050565b6020815260008251806020840152612a178160408501602087016129b0565b601f01601f1916919091016040019291505056fea26469706673582212206fac326eece8b7af03ec63d16460c6f2398fbc73befc06bb00e99309e4fb71ef64736f6c634300080a0033",
  "immutableReferences": {},
  "source": "// SPDX-License-Identifier: MIT\n\npragma solidity ^0.8.0;\n\nimport \"@openzeppelin/contracts-upgradeable/token/ERC20/IERC20Upgradeable.sol\";\n\nimport \"@openzeppelin/contracts-upgradeable/token/ERC20/ERC20Upgradeable.sol\";\n\nimport \"@openzeppelin/contracts-upgradeable/token/ERC20/utils/SafeERC20Upgradeable.sol\";\n\nimport \"../../libraries/PriceFeed.sol\";\n\nimport \"../../interfaces/Alpaca/IAlpacaFairLaunch.sol\";\n\nimport \"../../interfaces/Alpaca/IAlpacaVault.sol\";\n\nimport \"../../interfaces/IAMMRouter02.sol\";\n\nimport \"./_VaultActions.sol\";\n\ncontract VaultActionsStandardAMM is VaultActions {\n    /* Libraries */\n\n    using SafeERC20Upgradeable for IERC20Upgradeable;\n    using SafeSwapUni for IAMMRouter02;\n    using PriceFeed for AggregatorV3Interface;\n\n    /* Structs */\n\n    struct ExchUSDToWantParams {\n        address stablecoin;\n        address token0Address;\n        address token1Address;\n        address wantAddress;\n        AggregatorV3Interface stablecoinPriceFeed;\n        AggregatorV3Interface token0PriceFeed;\n        AggregatorV3Interface token1PriceFeed;\n        address[] stablecoinToToken0Path;\n        address[] stablecoinToToken1Path;\n    }\n\n    struct ExchWantToUSDParams {\n        address stablecoin;\n        address token0Address;\n        address token1Address;\n        address wantAddress;\n        address poolAddress;\n        AggregatorV3Interface token0PriceFeed;\n        AggregatorV3Interface token1PriceFeed;\n        AggregatorV3Interface stablecoinPriceFeed;\n        address[] token0ToStablecoinPath;\n        address[] token1ToStablecoinPath;\n    }\n\n    /* Functions */\n\n    /// @notice Performs necessary operations to convert USD into Want token and transfer back to sender\n    /// @dev NOTE: Requires caller to approve spending beforehand\n    /// @param _amountUSD The amount of USD to exchange for Want token (must already be deposited on this contract)\n    /// @param _params A ExchUSDToWantParams struct\n    /// @param _maxMarketMovementAllowed Slippage (990 = 1% etc.)\n    /// @return wantObtained Amount of Want token obtained\n    function exchangeUSDForWantToken(\n        uint256 _amountUSD,\n        ExchUSDToWantParams memory _params,\n        uint256 _maxMarketMovementAllowed\n    ) public returns (uint256 wantObtained) {\n        // Safe transfer IN\n        IERC20Upgradeable(_params.stablecoin).safeTransferFrom(\n            msg.sender,\n            address(this),\n            _amountUSD\n        );\n\n        // Swap 1/2 USD for token0\n        if (_params.token0Address != _params.stablecoin) {\n            _safeSwap(\n                SafeSwapUni.SafeSwapParams({\n                    amountIn: _amountUSD / 2,\n                    priceToken0: _params.stablecoinPriceFeed.getExchangeRate(),\n                    priceToken1: _params.token0PriceFeed.getExchangeRate(),\n                    token0: _params.stablecoin,\n                    token1: _params.token0Address,\n                    maxMarketMovementAllowed: _maxMarketMovementAllowed,\n                    path: _params.stablecoinToToken0Path,\n                    destination: address(this)\n                })\n            );\n        }\n\n        // Swap 1/2 USD for token1\n        if (_params.token1Address != _params.stablecoin) {\n            _safeSwap(\n                SafeSwapUni.SafeSwapParams({\n                    amountIn: _amountUSD / 2,\n                    priceToken0: _params.stablecoinPriceFeed.getExchangeRate(),\n                    priceToken1: _params.token1PriceFeed.getExchangeRate(),\n                    token0: _params.stablecoin,\n                    token1: _params.token1Address,\n                    maxMarketMovementAllowed: _maxMarketMovementAllowed,\n                    path: _params.stablecoinToToken1Path,\n                    destination: address(this)\n                })\n            );\n        }\n\n        // Deposit token0, token1 into LP pool to get Want token (i.e. LP token)\n        uint256 _token0Amt = IERC20Upgradeable(_params.token0Address).balanceOf(\n            address(this)\n        );\n        uint256 _token1Amt = IERC20Upgradeable(_params.token1Address).balanceOf(\n            address(this)\n        );\n\n        // Add liquidity\n        _joinPool(\n            _params.token0Address,\n            _params.token1Address,\n            _token0Amt,\n            _token1Amt,\n            _maxMarketMovementAllowed,\n            msg.sender\n        );\n\n        // Calculate resulting want token balance\n        wantObtained = IERC20Upgradeable(_params.wantAddress).balanceOf(\n            msg.sender\n        );\n\n        // Transfer back to sender\n        IERC20Upgradeable(_params.wantAddress).safeTransfer(\n            msg.sender,\n            wantObtained\n        );\n    }\n\n    /// @notice Converts Want token back into USD to be ready for withdrawal, transfers back to sender\n    /// @param _amount The Want token quantity to exchange\n    /// @param _params ExchWantToUSDParams struct\n    /// @param _maxMarketMovementAllowed The max slippage allowed for swaps. 1000 = 0 %, 995 = 0.5%, etc.\n    /// @return usdObtained Amount of USD token obtained\n    function exchangeWantTokenForUSD(\n        uint256 _amount,\n        ExchWantToUSDParams memory _params,\n        uint256 _maxMarketMovementAllowed\n    ) public returns (uint256 usdObtained) {\n        // Preflight checks\n        require(_amount > 0, \"negWant\");\n\n        // Safely transfer Want token from sender\n        IERC20Upgradeable(_params.wantAddress).safeTransferFrom(\n            msg.sender,\n            address(this),\n            _amount\n        );\n\n        // Exit LP pool\n        _exitPool(\n            _amount,\n            _maxMarketMovementAllowed,\n            address(this),\n            ExitPoolParams({\n                token0: _params.token0Address,\n                token1: _params.token1Address,\n                poolAddress: _params.poolAddress,\n                lpTokenAddress: _params.wantAddress\n            })\n        );\n\n        // Calc token balances\n        uint256 _token0Amt = IERC20Upgradeable(_params.token0Address).balanceOf(\n            address(this)\n        );\n        uint256 _token1Amt = IERC20Upgradeable(_params.token1Address).balanceOf(\n            address(this)\n        );\n\n        // Swap token0 for USD\n        if (_params.token0Address != _params.stablecoin) {\n            _safeSwap(\n                SafeSwapUni.SafeSwapParams({\n                    amountIn: _token0Amt,\n                    priceToken0: _params.token0PriceFeed.getExchangeRate(),\n                    priceToken1: _params.stablecoinPriceFeed.getExchangeRate(),\n                    token0: _params.token0Address,\n                    token1: _params.stablecoin,\n                    maxMarketMovementAllowed: _maxMarketMovementAllowed,\n                    path: _params.token0ToStablecoinPath,\n                    destination: address(this)\n                })\n            );\n        }\n\n        // Swap token1 for USD\n        if (_params.token1Address != _params.stablecoin) {\n            _safeSwap(\n                SafeSwapUni.SafeSwapParams({\n                    amountIn: _token1Amt,\n                    priceToken0: _params.token1PriceFeed.getExchangeRate(),\n                    priceToken1: _params.stablecoinPriceFeed.getExchangeRate(),\n                    token0: _params.token1Address,\n                    token1: _params.stablecoin,\n                    maxMarketMovementAllowed: _maxMarketMovementAllowed,\n                    path: _params.token1ToStablecoinPath,\n                    destination: address(this)\n                })\n            );\n        }\n\n        // Calculate USD balance\n        usdObtained = IERC20Upgradeable(_params.stablecoin).balanceOf(\n            address(this)\n        );\n\n        // Transfer back to sender\n        IERC20Upgradeable(_params.stablecoin).safeTransfer(\n            msg.sender,\n            usdObtained\n        );\n    }\n}\n",
  "sourcePath": "/Users/kristophm/Documents/workspace/zorro-protocol/contracts/vaults/actions/VaultActionsStandardAMM.sol",
  "compiler": {
    "name": "solc",
    "version": "0.8.10+commit.fc410830.Emscripten.clang"
  },
  "schemaVersion": "3.4.10",
  "updatedAt": "2022-11-24T02:03:38.399Z",
  "devdoc": {
    "kind": "dev",
    "methods": {
      "buybackBurnLP(uint256,uint256,(uint256,uint256,uint256,uint256),(address,address,address,address[],address[]))": {
        "params": {
          "_amount": "The amount of Earn token to swap and buy back",
          "_maxMarketMovementAllowed": "Acceptable slippage (990 = 1%)",
          "_params": "An BuybackBurnLPParams struct specifying buyback parameters",
          "_rates": "An ExchangeRates struct"
        }
      },
      "exchangeUSDForWantToken(uint256,(address,address,address,address,address,address,address,address[],address[]),uint256)": {
        "details": "NOTE: Requires caller to approve spending beforehand",
        "params": {
          "_amountUSD": "The amount of USD to exchange for Want token (must already be deposited on this contract)",
          "_maxMarketMovementAllowed": "Slippage (990 = 1% etc.)",
          "_params": "A ExchUSDToWantParams struct"
        },
        "returns": {
          "wantObtained": "Amount of Want token obtained"
        }
      },
      "exchangeWantTokenForUSD(uint256,(address,address,address,address,address,address,address,address,address[],address[]),uint256)": {
        "params": {
          "_amount": "The Want token quantity to exchange",
          "_maxMarketMovementAllowed": "The max slippage allowed for swaps. 1000 = 0 %, 995 = 0.5%, etc.",
          "_params": "ExchWantToUSDParams struct"
        },
        "returns": {
          "usdObtained": "Amount of USD token obtained"
        }
      },
      "exitPool(uint256,uint256,address,(address,address,address,address))": {
        "details": "NOTE: Requires caller to approve want token spending",
        "params": {
          "_amountLP": "The amount of LP (Want) tokens to remove",
          "_maxMarketMovementAllowed": "The max slippage allowed for swaps. 1000 = 0 %, 995 = 0.5%, etc.",
          "_recipient": "The recipient of the underlying tokens at pool exit"
        }
      },
      "initialize(address)": {
        "params": {
          "_uniRouterAddress": "Address of Uniswap style router"
        }
      },
      "joinPool(address,address,uint256,uint256,uint256,address)": {
        "details": "NOTE: Requires spending approval by caller",
        "params": {
          "_maxMarketMovementAllowed": "The max slippage allowed for swaps. 1000 = 0 %, 995 = 0.5%, etc.",
          "_recipient": "The recipient of the LP token",
          "_token0": "The address of Token0",
          "_token0Amt": "Quantity of Token0 to add",
          "_token1": "The address of Token1",
          "_token1Amt": "Quantity of Token1 to add"
        }
      },
      "owner()": {
        "details": "Returns the address of the current owner."
      },
      "renounceOwnership()": {
        "details": "Leaves the contract without owner. It will not be possible to call `onlyOwner` functions anymore. Can only be called by the current owner. NOTE: Renouncing ownership will leave the contract without an owner, thereby removing any functionality that is only available to the owner."
      },
      "reversePath(address[])": {
        "params": {
          "_path": "The swap path to be reversed"
        },
        "returns": {
          "_newPath": "An reversed path array"
        }
      },
      "safeSwap((uint256,uint256,uint256,address,address,uint256,address[],address))": {
        "details": "NOTE: Caller must approve tokens for spending beforehand",
        "params": {
          "_swapParams": "SafeSwapParams for swap"
        }
      },
      "transferOwnership(address)": {
        "details": "Transfers ownership of the contract to a new account (`newOwner`). Can only be called by the current owner."
      }
    },
    "version": 1
  },
  "userdoc": {
    "kind": "user",
    "methods": {
      "buybackBurnLP(uint256,uint256,(uint256,uint256,uint256,uint256),(address,address,address,address[],address[]))": {
        "notice": "Buys back earn token, adds liquidity, and burns the LP token"
      },
      "exchangeUSDForWantToken(uint256,(address,address,address,address,address,address,address,address[],address[]),uint256)": {
        "notice": "Performs necessary operations to convert USD into Want token and transfer back to sender"
      },
      "exchangeWantTokenForUSD(uint256,(address,address,address,address,address,address,address,address,address[],address[]),uint256)": {
        "notice": "Converts Want token back into USD to be ready for withdrawal, transfers back to sender"
      },
      "exitPool(uint256,uint256,address,(address,address,address,address))": {
        "notice": "Removes liquidity from a pool and sends tokens back to this address"
      },
      "initialize(address)": {
        "notice": "Constructor"
      },
      "joinPool(address,address,uint256,uint256,uint256,address)": {
        "notice": "Adds liquidity to the pool of this contract"
      },
      "reversePath(address[])": {
        "notice": "Gets the swap path in the opposite direction of a trade"
      },
      "safeSwap((uint256,uint256,uint256,address,address,uint256,address[],address))": {
        "notice": "Safely swaps tokens using the most suitable protocol based on token"
      }
    },
    "version": 1
  }
}