{
  "contractName": "VaultActionsApeLending",
  "abi": [
    {
      "anonymous": false,
      "inputs": [
        {
          "indexed": true,
          "internalType": "uint256",
          "name": "wantRemaining",
          "type": "uint256"
        },
        {
          "indexed": true,
          "internalType": "uint256",
          "name": "xChainBuybackAmt",
          "type": "uint256"
        },
        {
          "indexed": true,
          "internalType": "uint256",
          "name": "xChainRevShareAmt",
          "type": "uint256"
        }
      ],
      "name": "DistributedEarnings",
      "type": "event"
    },
    {
      "anonymous": false,
      "inputs": [
        {
          "indexed": true,
          "internalType": "address",
          "name": "previousOwner",
          "type": "address"
        },
        {
          "indexed": true,
          "internalType": "address",
          "name": "newOwner",
          "type": "address"
        }
      ],
      "name": "OwnershipTransferred",
      "type": "event"
    },
    {
      "inputs": [],
      "name": "burnAddress",
      "outputs": [
        {
          "internalType": "address",
          "name": "",
          "type": "address"
        }
      ],
      "stateMutability": "view",
      "type": "function"
    },
    {
      "inputs": [
        {
          "internalType": "uint256",
          "name": "_x",
          "type": "uint256"
        },
        {
          "internalType": "uint256",
          "name": "_y",
          "type": "uint256"
        },
        {
          "internalType": "uint256",
          "name": "_ox",
          "type": "uint256"
        },
        {
          "internalType": "uint256",
          "name": "_c",
          "type": "uint256"
        },
        {
          "internalType": "uint256",
          "name": "_targetLeverage",
          "type": "uint256"
        },
        {
          "internalType": "uint256",
          "name": "_liquidityAvailable",
          "type": "uint256"
        }
      ],
      "name": "calcIncBorrowAboveTarget",
      "outputs": [
        {
          "internalType": "uint256",
          "name": "dy",
          "type": "uint256"
        }
      ],
      "stateMutability": "pure",
      "type": "function"
    },
    {
      "inputs": [
        {
          "internalType": "uint256",
          "name": "_x",
          "type": "uint256"
        },
        {
          "internalType": "uint256",
          "name": "_y",
          "type": "uint256"
        },
        {
          "internalType": "uint256",
          "name": "_ox",
          "type": "uint256"
        },
        {
          "internalType": "uint256",
          "name": "_c",
          "type": "uint256"
        },
        {
          "internalType": "uint256",
          "name": "_targetLeverage",
          "type": "uint256"
        },
        {
          "internalType": "uint256",
          "name": "_liquidityAvailable",
          "type": "uint256"
        }
      ],
      "name": "calcIncBorrowBelowTarget",
      "outputs": [
        {
          "internalType": "uint256",
          "name": "dy",
          "type": "uint256"
        }
      ],
      "stateMutability": "pure",
      "type": "function"
    },
    {
      "inputs": [
        {
          "internalType": "address",
          "name": "_vaultAddr",
          "type": "address"
        }
      ],
      "name": "currentWantEquity",
      "outputs": [
        {
          "internalType": "uint256",
          "name": "positionVal",
          "type": "uint256"
        }
      ],
      "stateMutability": "view",
      "type": "function"
    },
    {
      "inputs": [
        {
          "internalType": "uint256",
          "name": "_amount",
          "type": "uint256"
        },
        {
          "internalType": "uint256",
          "name": "_maxMarketMovementAllowed",
          "type": "uint256"
        },
        {
          "components": [
            {
              "internalType": "address",
              "name": "ZORROAddress",
              "type": "address"
            },
            {
              "internalType": "address",
              "name": "treasury",
              "type": "address"
            },
            {
              "internalType": "address",
              "name": "stablecoin",
              "type": "address"
            },
            {
              "internalType": "address",
              "name": "zorroStakingVault",
              "type": "address"
            },
            {
              "internalType": "address",
              "name": "zorroLPPoolOtherToken",
              "type": "address"
            },
            {
              "internalType": "contract AggregatorV3Interface",
              "name": "ZORPriceFeed",
              "type": "address"
            },
            {
              "internalType": "contract AggregatorV3Interface",
              "name": "lpPoolOtherTokenPriceFeed",
              "type": "address"
            },
            {
              "internalType": "contract AggregatorV3Interface",
              "name": "stablecoinPriceFeed",
              "type": "address"
            },
            {
              "internalType": "address[]",
              "name": "stablecoinToZORROPath",
              "type": "address[]"
            },
            {
              "internalType": "address[]",
              "name": "stablecoinToZORLPPoolOtherTokenPath",
              "type": "address[]"
            },
            {
              "internalType": "uint16",
              "name": "controllerFeeBP",
              "type": "uint16"
            },
            {
              "internalType": "uint16",
              "name": "buybackBP",
              "type": "uint16"
            },
            {
              "internalType": "uint16",
              "name": "revShareBP",
              "type": "uint16"
            },
            {
              "internalType": "bool",
              "name": "isHomeChain",
              "type": "bool"
            }
          ],
          "internalType": "struct IVaultActions.DistributeEarningsParams",
          "name": "_params",
          "type": "tuple"
        }
      ],
      "name": "distributeAndReinvestEarnings",
      "outputs": [
        {
          "internalType": "uint256",
          "name": "wantRemaining",
          "type": "uint256"
        },
        {
          "internalType": "uint256",
          "name": "xChainBuybackAmt",
          "type": "uint256"
        },
        {
          "internalType": "uint256",
          "name": "xChainRevShareAmt",
          "type": "uint256"
        }
      ],
      "stateMutability": "nonpayable",
      "type": "function"
    },
    {
      "inputs": [
        {
          "internalType": "uint256",
          "name": "_amountUSD",
          "type": "uint256"
        },
        {
          "internalType": "uint256",
          "name": "_maxMarketMovementAllowed",
          "type": "uint256"
        }
      ],
      "name": "exchangeUSDForWantToken",
      "outputs": [
        {
          "internalType": "uint256",
          "name": "wantObtained",
          "type": "uint256"
        }
      ],
      "stateMutability": "nonpayable",
      "type": "function"
    },
    {
      "inputs": [
        {
          "internalType": "uint256",
          "name": "_amount",
          "type": "uint256"
        },
        {
          "internalType": "uint256",
          "name": "_maxMarketMovementAllowed",
          "type": "uint256"
        }
      ],
      "name": "exchangeWantTokenForUSD",
      "outputs": [
        {
          "internalType": "uint256",
          "name": "usdObtained",
          "type": "uint256"
        }
      ],
      "stateMutability": "nonpayable",
      "type": "function"
    },
    {
      "inputs": [
        {
          "internalType": "uint256",
          "name": "_amountLP",
          "type": "uint256"
        },
        {
          "internalType": "uint256",
          "name": "_maxMarketMovementAllowed",
          "type": "uint256"
        },
        {
          "internalType": "address",
          "name": "_recipient",
          "type": "address"
        },
        {
          "components": [
            {
              "internalType": "address",
              "name": "token0",
              "type": "address"
            },
            {
              "internalType": "address",
              "name": "token1",
              "type": "address"
            },
            {
              "internalType": "address",
              "name": "poolAddress",
              "type": "address"
            },
            {
              "internalType": "address",
              "name": "lpTokenAddress",
              "type": "address"
            }
          ],
          "internalType": "struct IVaultActions.ExitPoolParams",
          "name": "_exitPoolParams",
          "type": "tuple"
        }
      ],
      "name": "exitPool",
      "outputs": [],
      "stateMutability": "nonpayable",
      "type": "function"
    },
    {
      "inputs": [
        {
          "internalType": "address",
          "name": "_uniRouterAddress",
          "type": "address"
        }
      ],
      "name": "initialize",
      "outputs": [],
      "stateMutability": "nonpayable",
      "type": "function"
    },
    {
      "inputs": [
        {
          "internalType": "address",
          "name": "_token0",
          "type": "address"
        },
        {
          "internalType": "address",
          "name": "_token1",
          "type": "address"
        },
        {
          "internalType": "uint256",
          "name": "_token0Amt",
          "type": "uint256"
        },
        {
          "internalType": "uint256",
          "name": "_token1Amt",
          "type": "uint256"
        },
        {
          "internalType": "uint256",
          "name": "_maxMarketMovementAllowed",
          "type": "uint256"
        },
        {
          "internalType": "address",
          "name": "_recipient",
          "type": "address"
        }
      ],
      "name": "joinPool",
      "outputs": [],
      "stateMutability": "nonpayable",
      "type": "function"
    },
    {
      "inputs": [
        {
          "internalType": "uint256",
          "name": "_withdrawAmt",
          "type": "uint256"
        },
        {
          "internalType": "uint256",
          "name": "_ox",
          "type": "uint256"
        },
        {
          "internalType": "address",
          "name": "_comptrollerAddress",
          "type": "address"
        },
        {
          "internalType": "address",
          "name": "_poolAddress",
          "type": "address"
        },
        {
          "internalType": "uint256",
          "name": "_targetBorrowLimit",
          "type": "uint256"
        }
      ],
      "name": "levLendingParams",
      "outputs": [
        {
          "internalType": "uint256",
          "name": "x",
          "type": "uint256"
        },
        {
          "internalType": "uint256",
          "name": "y",
          "type": "uint256"
        },
        {
          "internalType": "uint256",
          "name": "c",
          "type": "uint256"
        },
        {
          "internalType": "uint256",
          "name": "targetL",
          "type": "uint256"
        },
        {
          "internalType": "uint256",
          "name": "currentL",
          "type": "uint256"
        },
        {
          "internalType": "uint256",
          "name": "liquidityAvailable",
          "type": "uint256"
        }
      ],
      "stateMutability": "nonpayable",
      "type": "function"
    },
    {
      "inputs": [],
      "name": "owner",
      "outputs": [
        {
          "internalType": "address",
          "name": "",
          "type": "address"
        }
      ],
      "stateMutability": "view",
      "type": "function"
    },
    {
      "inputs": [],
      "name": "renounceOwnership",
      "outputs": [],
      "stateMutability": "nonpayable",
      "type": "function"
    },
    {
      "inputs": [
        {
          "internalType": "address[]",
          "name": "_path",
          "type": "address[]"
        }
      ],
      "name": "reversePath",
      "outputs": [
        {
          "internalType": "address[]",
          "name": "newPath",
          "type": "address[]"
        }
      ],
      "stateMutability": "pure",
      "type": "function"
    },
    {
      "inputs": [
        {
          "components": [
            {
              "internalType": "uint256",
              "name": "amountIn",
              "type": "uint256"
            },
            {
              "internalType": "uint256",
              "name": "priceToken0",
              "type": "uint256"
            },
            {
              "internalType": "uint256",
              "name": "priceToken1",
              "type": "uint256"
            },
            {
              "internalType": "address",
              "name": "token0",
              "type": "address"
            },
            {
              "internalType": "address",
              "name": "token1",
              "type": "address"
            },
            {
              "internalType": "uint256",
              "name": "maxMarketMovementAllowed",
              "type": "uint256"
            },
            {
              "internalType": "address[]",
              "name": "path",
              "type": "address[]"
            },
            {
              "internalType": "address",
              "name": "destination",
              "type": "address"
            }
          ],
          "internalType": "struct SafeSwapUni.SafeSwapParams",
          "name": "_swapParams",
          "type": "tuple"
        }
      ],
      "name": "safeSwap",
      "outputs": [],
      "stateMutability": "nonpayable",
      "type": "function"
    },
    {
      "inputs": [
        {
          "internalType": "address",
          "name": "_burnAddress",
          "type": "address"
        }
      ],
      "name": "setBurnAddress",
      "outputs": [],
      "stateMutability": "nonpayable",
      "type": "function"
    },
    {
      "inputs": [
        {
          "internalType": "address",
          "name": "_uniRouterAddress",
          "type": "address"
        }
      ],
      "name": "setUniRouterAddress",
      "outputs": [],
      "stateMutability": "nonpayable",
      "type": "function"
    },
    {
      "inputs": [
        {
          "internalType": "address",
          "name": "newOwner",
          "type": "address"
        }
      ],
      "name": "transferOwnership",
      "outputs": [],
      "stateMutability": "nonpayable",
      "type": "function"
    },
    {
      "inputs": [],
      "name": "uniRouterAddress",
      "outputs": [
        {
          "internalType": "address",
          "name": "",
          "type": "address"
        }
      ],
      "stateMutability": "view",
      "type": "function"
    },
    {
      "inputs": [
        {
          "internalType": "address",
          "name": "_vaultAddr",
          "type": "address"
        }
      ],
      "name": "unrealizedProfits",
      "outputs": [
        {
          "internalType": "uint256",
          "name": "accumulatedProfit",
          "type": "uint256"
        },
        {
          "internalType": "uint256",
          "name": "harvestableProfit",
          "type": "uint256"
        }
      ],
      "stateMutability": "view",
      "type": "function"
    },
    {
      "inputs": [
        {
          "internalType": "address",
          "name": "_vault",
          "type": "address"
        },
        {
          "internalType": "address",
          "name": "_tokenAddress",
          "type": "address"
        },
        {
          "internalType": "address",
          "name": "_poolAddress",
          "type": "address"
        }
      ],
      "name": "wantTokenLockedAdj",
      "outputs": [
        {
          "internalType": "uint256",
          "name": "amtLocked",
          "type": "uint256"
        }
      ],
      "stateMutability": "nonpayable",
      "type": "function"
    },
    {
      "inputs": [
        {
          "internalType": "address",
          "name": "_comptrollerAddress",
          "type": "address"
        },
        {
          "internalType": "address",
          "name": "_poolAddress",
          "type": "address"
        }
      ],
      "name": "collateralFactor",
      "outputs": [
        {
          "internalType": "uint256",
          "name": "collFactor",
          "type": "uint256"
        }
      ],
      "stateMutability": "view",
      "type": "function"
    }
  ],
  "bytecode": "0x608060405234801561001057600080fd5b50613c00806100206000396000f3fe608060405234801561001057600080fd5b50600436106101465760003560e060020a900480637b592b57116100bc578063c1612d0e11610080578063c1612d0e146102d8578063c4d66de814610318578063e502a88d1461032b578063f2fde38b1461033e578063f55850b414610351578063fd30c3761461036457600080fd5b80637b592b57146102595780638b4c5aee1461026c5780638da5cb5b1461028c578063a0e16faf1461029d578063b9826d33146102c557600080fd5b80635da79d631161010e5780635da79d63146101bf578063648794a4146101d2578063693a090b146101e55780636945292a1461021057806370d5ae051461023e578063715018a61461025157600080fd5b80630c70c2811461014b57806312ad7eba1461016057806344a393f3146101735780634b0e72161461019957806358f5ab9f146101ac575b600080fd5b61015e6101593660046130cf565b610377565b005b61015e61016e366004613218565b6103a3565b6101866101813660046132e1565b6103cf565b6040519081526020015b60405180910390f35b61015e6101a736600461332c565b610579565b61015e6101ba366004613349565b6105de565b61015e6101cd36600461332c565b61061e565b6101866101e03660046133b0565b61067a565b6065546101f890600160a060020a031681565b604051600160a060020a039091168152602001610190565b61022361021e366004613406565b6107dd565b60408051938452602084019290925290820152606001610190565b6066546101f890600160a060020a031681565b61015e6109fb565b610186610267366004613589565b610a34565b61027f61027a3660046135cc565b610adc565b6040516101909190613645565b603354600160a060020a03166101f8565b6102b06102ab36600461332c565b610bb0565b60408051928352602083019190915201610190565b6101866102d3366004613658565b610d28565b6102eb6102e6366004613691565b610dc0565b604080519687526020870195909552938501929092526060840152608083015260a082015260c001610190565b61015e61032636600461332c565b610f97565b6101866103393660046133b0565b61109b565b61015e61034c36600461332c565b61118d565b61018661035f36600461332c565b611242565b610186610372366004613589565b61159f565b606081015161039190600160a060020a0316333087611621565b61039d848484846116d2565b50505050565b805160608201516103c391600160a060020a039091169033903090611621565b6103cc816117ec565b50565b60405160e060020a6370a08231028152600160a060020a03848116600483015260009182918516906370a0823190602401602060405180830381865afa15801561041d573d6000803e3d6000fd5b505050506040513d601f19601f8201168201806040525081019061044191906136e3565b6040517f3af9e669000000000000000000000000000000000000000000000000000000008152600160a060020a038781166004830152919250600091851690633af9e669906024016020604051808303816000875af11580156104a8573d6000803e3d6000fd5b505050506040513d601f19601f820116820180604052508101906104cc91906136e3565b6040517f17bfdfbc000000000000000000000000000000000000000000000000000000008152600160a060020a0388811660048301529192506000918616906317bfdfbc906024016020604051808303816000875af1158015610533573d6000803e3d6000fd5b505050506040513d601f19601f8201168201806040525081019061055791906136e3565b9050806105648385613715565b61056e919061372d565b979650505050505050565b603354600160a060020a031633146105af5760405160e560020a62461bcd0281526004016105a690613744565b60405180910390fd5b6066805473ffffffffffffffffffffffffffffffffffffffff1916600160a060020a0392909216919091179055565b6105f3600160a060020a038716333087611621565b610608600160a060020a038616333086611621565b6106168686868686866119fc565b505050505050565b603354600160a060020a0316331461064b5760405160e560020a62461bcd0281526004016105a690613744565b6065805473ffffffffffffffffffffffffffffffffffffffff1916600160a060020a0392909216919091179055565b60008083116106ce5760405160e560020a62461bcd02815260206004820152600760248201527f6e656757616e740000000000000000000000000000000000000000000000000060448201526064016105a6565b600033600160a060020a031663e7a036796040518163ffffffff1660e060020a028152600401602060405180830381865afa158015610711573d6000803e3d6000fd5b505050506040513d601f19601f820116820180604052508101906107359190613779565b9050600033600160a060020a031663b61bb80a6040518163ffffffff1660e060020a028152600401602060405180830381865afa15801561077a573d6000803e3d6000fd5b505050506040513d601f19601f8201168201806040525081019061079e9190613779565b90506107b5600160a060020a038316333088611621565b6107bf8585611b29565b92506107d5600160a060020a0382163385611da7565b505092915050565b600080808033600160a060020a031663e7a036796040518163ffffffff1660e060020a028152600401602060405180830381865afa158015610823573d6000803e3d6000fd5b505050506040513d601f19601f820116820180604052508101906108479190613779565b9050600033600160a060020a031663b61bb80a6040518163ffffffff1660e060020a028152600401602060405180830381865afa15801561088c573d6000803e3d6000fd5b505050506040513d601f19601f820116820180604052508101906108b09190613779565b90506108c7600160a060020a03831633308b611621565b60006108d4898989611df0565b909650945090506108f9846108e9878461372d565b6108f3919061372d565b89611fca565b955061090f600160a060020a0384163388611da7565b60405160e060020a6370a08231028152306004820152600090600160a060020a038416906370a0823190602401602060405180830381865afa158015610959573d6000803e3d6000fd5b505050506040513d601f19601f8201168201806040525081019061097d91906136e3565b90506109898587613715565b6109938288613796565b61099d91906137b5565b95506109a9868261372d565b94506109bf600160a060020a0385163383611da7565b8486887f7b5c55b851dd95ef2956a0907221248d9f0d535431943b759d0bca1f0125520060405160405180910390a45050505093509350939050565b603354600160a060020a03163314610a285760405160e560020a62461bcd0281526004016105a690613744565b610a3260006121a8565b565b6000610a4883670de0b6b3a764000061372d565b610a5a87670de0b6b3a7640000613796565b670de0b6b3a7640000610a6d8a87613796565b610a7791906137b5565b610a81919061372d565b610a8b91906137b5565b9050600086670de0b6b3a7640000610aa38789613796565b610aad91906137b5565b610ab7919061372d565b905080821115610ac5578091505b82821115610ad1578291505b509695505050505050565b80516060908067ffffffffffffffff811115610afa57610afa613037565b604051908082528060200260200182016040528015610b23578160200160208202803683370190505b50915060005b818161ffff161015610ba957838161ffff1660018651610b49919061372d565b610b53919061372d565b81518110610b6357610b636137da565b6020026020010151838261ffff1681518110610b8157610b816137da565b600160a060020a0390921660209283029190910190910152610ba2816137f3565b9050610b29565b5050919050565b600080600083600160a060020a0316637a8d130f6040518163ffffffff1660e060020a028152600401602060405180830381865afa158015610bf6573d6000803e3d6000fd5b505050506040513d601f19601f82011682018060405250810190610c1a91906136e3565b6040517ff55850b4000000000000000000000000000000000000000000000000000000008152600160a060020a03861660048201529091508190309063f55850b490602401602060405180830381865afa158015610c7c573d6000803e3d6000fd5b505050506040513d601f19601f82011682018060405250810190610ca091906136e3565b610caa919061372d565b9250600084600160a060020a031663c86274566040518163ffffffff1660e060020a028152600401602060405180830381865afa158015610cef573d6000803e3d6000fd5b505050506040513d601f19601f82011682018060405250810190610d1391906136e3565b9050610d1f818561372d565b92505050915091565b6040517f8e8f294b000000000000000000000000000000000000000000000000000000008152600160a060020a0382811660048301526000918291851690638e8f294b9060240160c060405180830381865afa158015610d8c573d6000803e3d6000fd5b505050506040513d601f19601f82011682018060405250810190610db09190613815565b5092955050505050505b92915050565b60008080808080610dd18b8b61372d565b6040517f17bfdfbc000000000000000000000000000000000000000000000000000000008152306004820152909650600160a060020a038916906317bfdfbc906024016020604051808303816000875af1158015610e33573d6000803e3d6000fd5b505050506040513d601f19601f82011682018060405250810190610e5791906136e3565b6040517fb9826d33000000000000000000000000000000000000000000000000000000008152600160a060020a03808c1660048301528a166024820152909550309063b9826d3390604401602060405180830381865afa158015610ebf573d6000803e3d6000fd5b505050506040513d601f19601f82011682018060405250810190610ee391906136e3565b9350670de0b6b3a7640000610ef88886613796565b610f0291906137b5565b925085610f1786670de0b6b3a7640000613796565b610f2191906137b5565b915087600160a060020a0316633b1d21a26040518163ffffffff1660e060020a028152600401602060405180830381865afa158015610f64573d6000803e3d6000fd5b505050506040513d601f19601f82011682018060405250810190610f8891906136e3565b90509550955095509550955095565b600054610100900460ff16610fb25760005460ff1615610fb6565b303b155b61102b5760405160e560020a62461bcd02815260206004820152602e60248201527f496e697469616c697a61626c653a20636f6e747261637420697320616c72656160448201527f647920696e697469616c697a656400000000000000000000000000000000000060648201526084016105a6565b600054610100900460ff1615801561104d576000805461ffff19166101011790555b60658054600160a060020a03841673ffffffffffffffffffffffffffffffffffffffff19918216179091556066805490911661dead1790558015611097576000805461ff00191690555b5050565b60008033600160a060020a031663b61bb80a6040518163ffffffff1660e060020a028152600401602060405180830381865afa1580156110df573d6000803e3d6000fd5b505050506040513d601f19601f820116820180604052508101906111039190613779565b9050600033600160a060020a031663e7a036796040518163ffffffff1660e060020a028152600401602060405180830381865afa158015611148573d6000803e3d6000fd5b505050506040513d601f19601f8201168201806040525081019061116c9190613779565b9050611183600160a060020a038316333088611621565b6107bf8585611fca565b603354600160a060020a031633146111ba5760405160e560020a62461bcd0281526004016105a690613744565b600160a060020a0381166112395760405160e560020a62461bcd02815260206004820152602660248201527f4f776e61626c653a206e6577206f776e657220697320746865207a65726f206160448201527f646472657373000000000000000000000000000000000000000000000000000060648201526084016105a6565b6103cc816121a8565b600080829050600081600160a060020a0316637ff36fbe6040518163ffffffff1660e060020a028152600401602060405180830381865afa15801561128b573d6000803e3d6000fd5b505050506040513d601f19601f820116820180604052508101906112af9190613779565b9050600082600160a060020a031663e71984746040518163ffffffff1660e060020a028152600401602060405180830381865afa1580156112f4573d6000803e3d6000fd5b505050506040513d601f19601f820116820180604052508101906113189190613779565b60405160e160020a634ee5a88d028152600160a060020a038481166004830152919250600091851690639dcb511a90602401602060405180830381865afa158015611367573d6000803e3d6000fd5b505050506040513d601f19601f8201168201806040525081019061138b9190613779565b60405160e160020a634ee5a88d028152600160a060020a038481166004830152919250600091861690639dcb511a90602401602060405180830381865afa1580156113da573d6000803e3d6000fd5b505050506040513d601f19601f820116820180604052508101906113fe9190613779565b9050600085600160a060020a031663aced9a806040518163ffffffff1660e060020a028152600401602060405180830381865afa158015611443573d6000803e3d6000fd5b505050506040513d601f19601f8201168201806040525081019061146791906136e3565b86600160a060020a031663f151dd706040518163ffffffff1660e060020a028152600401602060405180830381865afa1580156114a8573d6000803e3d6000fd5b505050506040513d601f19601f820116820180604052508101906114cc91906136e3565b6114d6919061372d565b60405160e060020a6370a08231028152600160a060020a038a811660048301529192506000918616906370a0823190602401602060405180830381865afa158015611525573d6000803e3d6000fd5b505050506040513d601f19601f8201168201806040525081019061154991906136e3565b9050600061155f85600160a060020a0316612207565b61157185600160a060020a0316612207565b61157b9084613796565b61158591906137b5565b90506115918184613715565b9a9950505050505050505050565b60006115b383670de0b6b3a764000061372d565b670de0b6b3a76400006115c68986613796565b6115d091906137b5565b6115da908861372d565b6115ec90670de0b6b3a7640000613796565b6115f691906137b5565b905060008461160d88670de0b6b3a7640000613796565b61161791906137b5565b610ab7908761372d565b604051600160a060020a038085166024830152831660448201526064810182905261039d9085907f23b872dd00000000000000000000000000000000000000000000000000000000906084015b60408051601f198184030181529190526020810180517bffffffffffffffffffffffffffffffffffffffffffffffffffffffff167fffffffff000000000000000000000000000000000000000000000000000000009093169290921790915261235e565b6000806116e9868460000151856040015188612446565b91506116ff868460200151856040015188612446565b606554606085015191925061172191600160a060020a0390811691168861254e565b60655483516020850151600160a060020a039092169163baa2abde91908986868a61174e42610258613715565b60405163ffffffff891660e060020a028152600160a060020a039788166004820152958716602487015260448601949094526064850192909252608484015290921660a482015260c481019190915260e40160408051808303816000875af11580156117be573d6000803e3d6000fd5b505050506040513d601f19601f820116820180604052508101906117e29190613868565b5050505050505050565b6065548151606083015161180e92600160a060020a039182169291169061254e565b6040805160028082526060820183526000926020830190803683370190505090508160600151600160a060020a031663313ce5676040518163ffffffff1660e060020a028152600401602060405180830381865afa158015611874573d6000803e3d6000fd5b505050506040513d601f19601f82011682018060405250810190611898919061388c565b816000815181106118ab576118ab6137da565b602002602001019060ff16908160ff16815250508160800151600160a060020a031663313ce5676040518163ffffffff1660e060020a028152600401602060405180830381865afa158015611904573d6000803e3d6000fd5b505050506040513d601f19601f82011682018060405250810190611928919061388c565b8160018151811061193b5761193b6137da565b60ff929092166020928302919091018201526040805160028082526060820183526000939192909183019080368337019050509050826020015181600081518110611988576119886137da565b6020026020010181815250508260400151816001815181106119ac576119ac6137da565b6020026020010181815250506119f78360000151828560a001518660c00151868860e00151426102586119df9190613715565b606554600160a060020a031696959493929190612632565b505050565b606554611a1690600160a060020a0388811691168661254e565b606554611a3090600160a060020a0387811691168561254e565b606554600160a060020a031663e8e33700878787876103e8611a528984613796565b611a5c91906137b5565b6103e8611a698a8c613796565b611a7391906137b5565b88611a8042610258613715565b60405163ffffffff8a1660e060020a028152600160a060020a039889166004820152968816602488015260448701959095526064860193909352608485019190915260a484015290921660c482015260e4810191909152610104016060604051808303816000875af1158015611afa573d6000803e3d6000fd5b505050506040513d601f19601f82011682018060405250810190611b1e91906138af565b505050505050505050565b600080339050600081600160a060020a031663b61bb80a6040518163ffffffff1660e060020a028152600401602060405180830381865afa158015611b72573d6000803e3d6000fd5b505050506040513d601f19601f82011682018060405250810190611b969190613779565b9050600082600160a060020a0316637ff36fbe6040518163ffffffff1660e060020a028152600401602060405180830381865afa158015611bdb573d6000803e3d6000fd5b505050506040513d601f19601f82011682018060405250810190611bff9190613779565b905081600160a060020a031681600160a060020a031614611d31576040805161010081018252878152905160e160020a634ee5a88d028152600160a060020a038381166004830152611d3192916020830191611cb29190881690639dcb511a906024015b602060405180830381865afa158015611c80573d6000803e3d6000fd5b505050506040513d601f19601f82011682018060405250810190611ca49190613779565b600160a060020a0316612207565b815260405160e160020a634ee5a88d028152600160a060020a038681166004830152602090920191611cf09190881690639dcb511a90602401611c63565b815260200183600160a060020a0316815260200184600160a060020a03168152602001878152602001611d2384866127b2565b8152306020909101526117ec565b60405160e060020a6370a08231028152306004820152600160a060020a038316906370a08231906024015b602060405180830381865afa158015611d79573d6000803e3d6000fd5b505050506040513d601f19601f82011682018060405250810190611d9d91906136e3565b9695505050505050565b604051600160a060020a0383166024820152604481018290526119f79084907fa9059cbb000000000000000000000000000000000000000000000000000000009060640161166e565b600080600080611e008787611b29565b90506000611e1d888760400151886020015189610140015161297d565b9050600061271087610160015161ffff1684611e399190613796565b611e4391906137b5565b9050600061271088610180015161ffff1685611e5f9190613796565b611e6991906137b5565b9050876101a0015115611f9457611f12828a6040518061010001604052808c60400151600160a060020a031681526020018c60000151600160a060020a031681526020018c60800151600160a060020a031681526020018c610100015181526020018c610120015181526020018c60e00151600160a060020a031681526020018c60a00151600160a060020a031681526020018c60c00151600160a060020a03168152506129c0565b611f8f818a6040518060c001604052808c60400151600160a060020a031681526020018c60000151600160a060020a031681526020018c60600151600160a060020a031681526020018c610100015181526020018c60e00151600160a060020a031681526020018c60a00151600160a060020a0316815250612c4b565b611f9b565b8195508094505b8082611fa7858761372d565b611fb1919061372d565b611fbb919061372d565b96505050505093509350939050565b600080339050600081600160a060020a031663b61bb80a6040518163ffffffff1660e060020a028152600401602060405180830381865afa158015612013573d6000803e3d6000fd5b505050506040513d601f19601f820116820180604052508101906120379190613779565b9050600082600160a060020a0316637ff36fbe6040518163ffffffff1660e060020a028152600401602060405180830381865afa15801561207c573d6000803e3d6000fd5b505050506040513d601f19601f820116820180604052508101906120a09190613779565b905081600160a060020a031681600160a060020a031614612179576040805161010081018252878152905160e160020a634ee5a88d028152600160a060020a038481166004830152612179929160208301916121089190881690639dcb511a90602401611c63565b815260405160e160020a634ee5a88d028152600160a060020a0385811660048301526020909201916121469190881690639dcb511a90602401611c63565b815260200184600160a060020a0316815260200183600160a060020a03168152602001878152602001611d2385856127b2565b60405160e060020a6370a08231028152306004820152600160a060020a038216906370a0823190602401611d5c565b60338054600160a060020a0383811673ffffffffffffffffffffffffffffffffffffffff19831681179093556040519116919082907f8be0079c531659141344cd1fd0a4f28419497f9722a3daafe3b4186f6b6457e090600090a35050565b60008082600160a060020a031663313ce5676040518163ffffffff1660e060020a028152600401602060405180830381865afa15801561224b573d6000803e3d6000fd5b505050506040513d601f19601f8201168201806040525081019061226f919061388c565b9050600083600160a060020a031663feaf968c6040518163ffffffff1660e060020a02815260040160a060405180830381865afa1580156122b4573d6000803e3d6000fd5b505050506040513d601f19601f820116820180604052508101906122d891906138f7565b50505091505060008112156123325760405160e560020a62461bcd02815260206004820152601660248201527f6e656720707269636573206e6f7420616c6c6f7765640000000000000000000060448201526064016105a6565b61233d82600a613a2e565b61234c8264e8d4a51000613796565b61235691906137b5565b949350505050565b60006123b3826040518060400160405280602081526020017f5361666545524332303a206c6f772d6c6576656c2063616c6c206661696c656481525085600160a060020a0316612ce89092919063ffffffff16565b8051909150156119f757808060200190518101906123d19190613a3d565b6119f75760405160e560020a62461bcd02815260206004820152602a60248201527f5361666545524332303a204552433230206f7065726174696f6e20646964206e60448201527f6f7420737563636565640000000000000000000000000000000000000000000060648201526084016105a6565b60008083600160a060020a03166318160ddd6040518163ffffffff1660e060020a028152600401602060405180830381865afa15801561248a573d6000803e3d6000fd5b505050506040513d601f19601f820116820180604052508101906124ae91906136e3565b60405160e060020a6370a08231028152600160a060020a0386811660048301529192506000918716906370a0823190602401602060405180830381865afa1580156124fd573d6000803e3d6000fd5b505050506040513d601f19601f8201168201806040525081019061252191906136e3565b905061252f826103e8613796565b8461253a838a613796565b6125449190613796565b61056e91906137b5565b6040517fdd62ed3e000000000000000000000000000000000000000000000000000000008152306004820152600160a060020a038381166024830152600091839186169063dd62ed3e90604401602060405180830381865afa1580156125b8573d6000803e3d6000fd5b505050506040513d601f19601f820116820180604052508101906125dc91906136e3565b6125e69190613715565b604051600160a060020a03851660248201526044810182905290915061039d9085907f095ea7b3000000000000000000000000000000000000000000000000000000009060640161166e565b82516002146126865760405160e560020a62461bcd02815260206004820152600b60248201527f696e76616c69642064656300000000000000000000000000000000000000000060448201526064016105a6565b60008660008151811061269b5761269b6137da565b6020026020010151600014806126cb5750866001815181106126bf576126bf6137da565b60200260200101516000145b156126e4576126dd8989878988612d01565b9050612728565b61272588886000815181106126fb576126fb6137da565b602002602001015189600181518110612716576127166137da565b60200260200101518988612e08565b90505b6040517f5c11d795000000000000000000000000000000000000000000000000000000008152600160a060020a038a1690635c11d79590612775908b9085908a9089908990600401613a5a565b600060405180830381600087803b15801561278f57600080fd5b505af11580156127a3573d6000803e3d6000fd5b50505050505050505050505050565b6040517f2337b0b1000000000000000000000000000000000000000000000000000000008152600160a060020a0380841660048301528216602482015260609033906000908290632337b0b190604401602060405180830381865afa15801561281f573d6000803e3d6000fd5b505050506040513d601f19601f820116820180604052508101906128439190613a96565b90508061ffff1667ffffffffffffffff81111561286257612862613037565b60405190808252806020026020018201604052801561288b578160200160208202803683370190505b50925060005b8161ffff168161ffff161015612974576040517f5e835270000000000000000000000000000000000000000000000000000000008152600160a060020a038781166004830152868116602483015261ffff83166044830152841690635e83527090606401602060405180830381865afa158015612912573d6000803e3d6000fd5b505050506040513d601f19601f820116820180604052508101906129369190613779565b848261ffff168151811061294c5761294c6137da565b600160a060020a039092166020928302919091019091015261296d816137f3565b9050612891565b50505092915050565b600084156123565761ffff821615612356576127106129a061ffff841687613796565b6129aa91906137b5565b9050612356600160a060020a0385168483611da7565b826129ca57505050565b60006129e28260a00151600160a060020a0316612207565b90508160200151600160a060020a03168260000151600160a060020a031614612a8f57612a8f604051806101000160405280600287612a2191906137b5565b8152602001838152602001612a428560c00151600160a060020a0316612207565b81526020018460000151600160a060020a031681526020018460200151600160a060020a031681526020018581526020018460600151815260200130600160a060020a03168152506117ec565b8160400151600160a060020a03168260000151600160a060020a031614612b3a57612b3a604051806101000160405280600287612acc91906137b5565b8152602001838152602001612aed8560e00151600160a060020a0316612207565b81526020018460000151600160a060020a031681526020018460400151600160a060020a031681526020018581526020018460800151815260200130600160a060020a03168152506117ec565b602082015160405160e060020a6370a08231028152306004820152600091600160a060020a0316906370a0823190602401602060405180830381865afa158015612b88573d6000803e3d6000fd5b505050506040513d601f19601f82011682018060405250810190612bac91906136e3565b604080850151905160e060020a6370a08231028152306004820152919250600091600160a060020a03909116906370a0823190602401602060405180830381865afa158015612bff573d6000803e3d6000fd5b505050506040513d601f19601f82011682018060405250810190612c2391906136e3565b6020850151604086015160665492935061061692859085908a90600160a060020a03166119fc565b82156119f7576119f7604051806101000160405280858152602001612c7c8460800151600160a060020a0316612207565b8152602001612c978460a00151600160a060020a0316612207565b81526020018360000151600160a060020a031681526020018360200151600160a060020a03168152602001848152602001836060015181526020018360400151600160a060020a03168152506117ec565b6060612cf78484600085612e97565b90505b9392505050565b60008086600160a060020a031663d06ca61f87876040518363ffffffff1660e060020a028152600401612d35929190613ab3565b600060405180830381865afa158015612d52573d6000803e3d6000fd5b505050506040513d6000823e601f3d908101601f19168201604052612d7a9190810190613acc565b905082600081518110612d8f57612d8f6137da565b6020026020010151600a612da39190613a2e565b612daf906103e8613796565b83600181518110612dc257612dc26137da565b6020026020010151600a612dd69190613a2e565b858360018551612de6919061372d565b81518110612df657612df66137da565b602002602001015161253a9190613796565b600081600081518110612e1d57612e1d6137da565b6020026020010151600a612e319190613a2e565b612e3d856103e8613796565b612e479190613796565b82600181518110612e5a57612e5a6137da565b6020026020010151600a612e6e9190613a2e565b84612e79888a613796565b612e839190613796565b612e8d9190613796565b611d9d91906137b5565b60603031831115612f135760405160e560020a62461bcd02815260206004820152602660248201527f416464726573733a20696e73756666696369656e742062616c616e636520666f60448201527f722063616c6c000000000000000000000000000000000000000000000000000060648201526084016105a6565b600160a060020a0385163b612f6d5760405160e560020a62461bcd02815260206004820152601d60248201527f416464726573733a2063616c6c20746f206e6f6e2d636f6e747261637400000060448201526064016105a6565b60008086600160a060020a03168587604051612f899190613b7b565b60006040518083038185875af1925050503d8060008114612fc6576040519150601f19603f3d011682016040523d82523d6000602084013e612fcb565b606091505b509150915061056e82828660608315612fe5575081612cfa565b825115612ff55782518084602001fd5b8160405160e560020a62461bcd0281526004016105a69190613b97565b600160a060020a03811681146103cc57600080fd5b803561303281613012565b919050565b60e060020a634e487b7102600052604160045260246000fd5b604051610100810167ffffffffffffffff8111828210171561307457613074613037565b60405290565b6040516101c0810167ffffffffffffffff8111828210171561307457613074613037565b604051601f8201601f1916810167ffffffffffffffff811182821017156130c7576130c7613037565b604052919050565b60008060008084860360e08112156130e657600080fd5b853594506020860135935060408601356130ff81613012565b92506080605f198201121561311357600080fd5b506040516080810181811067ffffffffffffffff8211171561313757613137613037565b604052606086013561314881613012565b8152608086013561315881613012565b602082015260a086013561316b81613012565b604082015260c086013561317e81613012565b6060820152939692955090935050565b600067ffffffffffffffff8211156131a8576131a8613037565b5060209081020190565b600082601f8301126131c357600080fd5b813560206131d86131d38361318e565b61309e565b828152918102840181019181810190868411156131f457600080fd5b8286015b84811015610ad157803561320b81613012565b83529183019183016131f8565b60006020828403121561322a57600080fd5b813567ffffffffffffffff8082111561324257600080fd5b90830190610100828603121561325757600080fd5b61325f613050565b82358152602083013560208201526040830135604082015261328360608401613027565b606082015261329460808401613027565b608082015260a083013560a082015260c0830135828111156132b557600080fd5b6132c1878286016131b2565b60c0830152506132d360e08401613027565b60e082015295945050505050565b6000806000606084860312156132f657600080fd5b833561330181613012565b9250602084013561331181613012565b9150604084013561332181613012565b809150509250925092565b60006020828403121561333e57600080fd5b8135612cfa81613012565b60008060008060008060c0878903121561336257600080fd5b863561336d81613012565b9550602087013561337d81613012565b945060408701359350606087013592506080870135915060a08701356133a281613012565b809150509295509295509295565b600080604083850312156133c357600080fd5b50508035926020909101359150565b61ffff811681146103cc57600080fd5b8035613032816133d2565b80151581146103cc57600080fd5b8035613032816133ed565b60008060006060848603121561341b57600080fd5b8335925060208401359150604084013567ffffffffffffffff8082111561344157600080fd5b908501906101c0828803121561345657600080fd5b61345e61307a565b61346783613027565b815261347560208401613027565b602082015261348660408401613027565b604082015261349760608401613027565b60608201526134a860808401613027565b60808201526134b960a08401613027565b60a08201526134ca60c08401613027565b60c08201526134db60e08401613027565b60e082015261010080840135838111156134f457600080fd5b6135008a8287016131b2565b828401525050610120808401358381111561351a57600080fd5b6135268a8287016131b2565b828401525050610140915061353c8284016133e2565b8282015261016091506135508284016133e2565b8282015261018091506135648284016133e2565b828201526101a091506135788284016133fb565b828201528093505050509250925092565b60008060008060008060c087890312156135a257600080fd5b505084359660208601359650604086013595606081013595506080810135945060a0013592509050565b6000602082840312156135de57600080fd5b813567ffffffffffffffff8111156135f557600080fd5b612356848285016131b2565b600081518084526020808501945080840160005b8381101561363a578151600160a060020a031687529582019590820190600101613615565b509495945050505050565b602081526000612cfa6020830184613601565b6000806040838503121561366b57600080fd5b823561367681613012565b9150602083013561368681613012565b809150509250929050565b600080600080600060a086880312156136a957600080fd5b853594506020860135935060408601356136c281613012565b925060608601356136d281613012565b949793965091946080013592915050565b6000602082840312156136f557600080fd5b5051919050565b60e060020a634e487b7102600052601160045260246000fd5b60008219821115613728576137286136fc565b500190565b60008282101561373f5761373f6136fc565b500390565b6020808252818101527f4f776e61626c653a2063616c6c6572206973206e6f7420746865206f776e6572604082015260600190565b60006020828403121561378b57600080fd5b8151612cfa81613012565b60008160001904831182151516156137b0576137b06136fc565b500290565b6000826137d55760e060020a634e487b7102600052601260045260246000fd5b500490565b60e060020a634e487b7102600052603260045260246000fd5b600061ffff8083168181141561380b5761380b6136fc565b6001019392505050565b60008060008060008060c0878903121561382e57600080fd5b8651613839816133ed565b6020880151604089015160608a015160808b015160a0909b0151939c929b509099909850965090945092505050565b6000806040838503121561387b57600080fd5b505080516020909101519092909150565b60006020828403121561389e57600080fd5b815160ff81168114612cfa57600080fd5b6000806000606084860312156138c457600080fd5b8351925060208401519150604084015190509250925092565b805169ffffffffffffffffffff8116811461303257600080fd5b600080600080600060a0868803121561390f57600080fd5b613918866138dd565b945060208601519350604086015192506060860151915061393b608087016138dd565b90509295509295909350565b600181815b80851115613984578160001904821115613968576139686136fc565b8085161561397557918102915b6002909404939080029061394c565b509250929050565b60008261399b57506001610dba565b816139a857506000610dba565b81600181146139be57600281146139c8576139e5565b6001915050610dba565b60ff8411156139d9576139d96136fc565b8360020a915050610dba565b5060208310610133831016604e8410600b8410161715613a08575081810a610dba565b613a128383613947565b8060001904821115613a2657613a266136fc565b029392505050565b6000612cfa60ff84168361398c565b600060208284031215613a4f57600080fd5b8151612cfa816133ed565b85815284602082015260a060408201526000613a7960a0830186613601565b600160a060020a0394909416606083015250608001529392505050565b600060208284031215613aa857600080fd5b8151612cfa816133d2565b828152604060208201526000612cf76040830184613601565b60006020808385031215613adf57600080fd5b825167ffffffffffffffff811115613af657600080fd5b8301601f81018513613b0757600080fd5b8051613b156131d38261318e565b81815290830282018301908381019087831115613b3157600080fd5b928401925b8284101561056e57835182529284019290840190613b36565b60005b83811015613b6a578181015183820152602001613b52565b8381111561039d5750506000910152565b60008251613b8d818460208701613b4f565b9190910192915050565b6020815260008251806020840152613bb6816040850160208701613b4f565b601f01601f1916919091016040019291505056fea2646970667358221220040c90661f276e930c5dcd34f75f3b1457fb16ca870e2c134e7ec0b5f5e7002764736f6c634300080a0033",
  "immutableReferences": {},
  "source": "// SPDX-License-Identifier: MIT\n\npragma solidity ^0.8.0;\n\nimport \"../../interfaces/ApeLending/IUnitroller.sol\";\n\nimport \"./_VaultActionsLending.sol\";\n\ncontract VaultActionsApeLending is VaultActionsLending {\n    /* Utilities */\n\n    /// @notice Gets loan collateral factor from lending protocol\n    /// @return collFactor The collateral factor %. (1e18 = 100%)\n    /// @param _comptrollerAddress Address of the ApeLending Unitroller proxy\n    /// @param _poolAddress Address of the lending pool\n    function collateralFactor(address _comptrollerAddress, address _poolAddress)\n        public\n        view\n        override\n        returns (uint256 collFactor)\n    {\n        (, uint256 _collateralFactor, , , , ) = IUnitrollerApeLending(\n            _comptrollerAddress\n        ).markets(_poolAddress);\n        return _collateralFactor;\n    }\n}\n",
  "sourcePath": "/Users/kristophm/Documents/workspace/zorro-protocol/contracts/vaults/actions/VaultActionsApeLending.sol",
  "compiler": {
    "name": "solc",
    "version": "0.8.10+commit.fc410830.Emscripten.clang"
  },
  "schemaVersion": "3.4.10",
  "updatedAt": "2023-02-05T18:00:05.033Z",
  "devdoc": {
    "kind": "dev",
    "methods": {
      "calcIncBorrowAboveTarget(uint256,uint256,uint256,uint256,uint256,uint256)": {
        "params": {
          "_c": "Collateral factor",
          "_liquidityAvailable": "Liquidity available in underlying pool",
          "_ox": "Initial supply (gross of withdrawal amount)",
          "_targetLeverage": "Target leverage amount",
          "_x": "Supply amount",
          "_y": "Borrow amount"
        },
        "returns": {
          "dy": "The incremental amount to be borrowed"
        }
      },
      "calcIncBorrowBelowTarget(uint256,uint256,uint256,uint256,uint256,uint256)": {
        "params": {
          "_c": "Collateral factor",
          "_liquidityAvailable": "Liquidity available in underlying pool",
          "_ox": "Initial supply (gross of withdrawal amount)",
          "_targetLeverage": "Target leverage amount",
          "_x": "Supply amount",
          "_y": "Borrow amount"
        },
        "returns": {
          "dy": "The incremental amount to be borrowed"
        }
      },
      "collateralFactor(address,address)": {
        "params": {
          "_comptrollerAddress": "Address of the ApeLending Unitroller proxy",
          "_poolAddress": "Address of the lending pool"
        },
        "returns": {
          "collFactor": "The collateral factor %. (1e18 = 100%)"
        }
      },
      "currentWantEquity(address)": {
        "params": {
          "_vaultAddr": "The vault address"
        },
        "returns": {
          "positionVal": "Position value, in units of Want token"
        }
      },
      "distributeAndReinvestEarnings(uint256,uint256,(address,address,address,address,address,address,address,address,address[],address[],uint16,uint16,uint16,bool))": {
        "details": "To be run by Vault's earn() func after earnings have been unfarmed",
        "params": {
          "_amount": "Amount of Want token to distribute",
          "_maxMarketMovementAllowed": "Slippage (990 = 1%)",
          "_params": "A DistributeEarningsParams struct"
        },
        "returns": {
          "wantRemaining": "Remaining Want token after distribution (will be sent back to sender)",
          "xChainBuybackAmt": "Amount of Want token reserved for cross chain buyback, if applicable",
          "xChainRevShareAmt": "Amount of Want token reserved for cross chain revshare, if applicable"
        }
      },
      "exchangeUSDForWantToken(uint256,uint256)": {
        "params": {
          "_amountUSD": "The USD quantity to exchange (must already be deposited)",
          "_maxMarketMovementAllowed": "The max slippage allowed. 1000 = 0 %, 995 = 0.5%, etc."
        },
        "returns": {
          "wantObtained": "Amount of Want token obtained and transferred to sender"
        }
      },
      "exchangeWantTokenForUSD(uint256,uint256)": {
        "params": {
          "_amount": "The Want token quantity to exchange (must be deposited beforehand)",
          "_maxMarketMovementAllowed": "The max slippage allowed for swaps. 1000 = 0 %, 995 = 0.5%, etc."
        },
        "returns": {
          "usdObtained": "Amount of USD token obtained and transferred to sender"
        }
      },
      "exitPool(uint256,uint256,address,(address,address,address,address))": {
        "details": "NOTE: Requires caller to approve want token spending",
        "params": {
          "_amountLP": "The amount of LP (Want) tokens to remove",
          "_maxMarketMovementAllowed": "The max slippage allowed for swaps. 1000 = 0 %, 995 = 0.5%, etc.",
          "_recipient": "The recipient of the underlying tokens at pool exit"
        }
      },
      "initialize(address)": {
        "params": {
          "_uniRouterAddress": "Address of Uniswap style router"
        }
      },
      "joinPool(address,address,uint256,uint256,uint256,address)": {
        "details": "NOTE: Requires spending approval by caller",
        "params": {
          "_maxMarketMovementAllowed": "The max slippage allowed for swaps. 1000 = 0 %, 995 = 0.5%, etc.",
          "_recipient": "The recipient of the LP token",
          "_token0": "The address of Token0",
          "_token0Amt": "Quantity of Token0 to add",
          "_token1": "The address of Token1",
          "_token1Amt": "Quantity of Token1 to add"
        }
      },
      "levLendingParams(uint256,uint256,address,address,uint256)": {
        "params": {
          "_comptrollerAddress": "Address of protocol comptroller",
          "_ox": "Raw supply (before any withdrawal)",
          "_poolAddress": "Address of lending pool",
          "_targetBorrowLimit": "Target borrow %",
          "_withdrawAmt": "Amount to withdraw"
        },
        "returns": {
          "c": "Collateral factor",
          "currentL": "Current leverage",
          "liquidityAvailable": "Total liquidity avaialble in pool",
          "targetL": "Target leverage threshold",
          "x": "Adjusted supply (accounts amount to withdraw)",
          "y": "Amount borrowed"
        }
      },
      "owner()": {
        "details": "Returns the address of the current owner."
      },
      "renounceOwnership()": {
        "details": "Leaves the contract without owner. It will not be possible to call `onlyOwner` functions anymore. Can only be called by the current owner. NOTE: Renouncing ownership will leave the contract without an owner, thereby removing any functionality that is only available to the owner."
      },
      "reversePath(address[])": {
        "params": {
          "_path": "The swap path to be reversed"
        },
        "returns": {
          "newPath": "An reversed path array"
        }
      },
      "safeSwap((uint256,uint256,uint256,address,address,uint256,address[],address))": {
        "details": "NOTE: Caller must approve tokens for spending beforehand",
        "params": {
          "_swapParams": "SafeSwapParams for swap"
        }
      },
      "transferOwnership(address)": {
        "details": "Transfers ownership of the contract to a new account (`newOwner`). Can only be called by the current owner."
      },
      "unrealizedProfits(address)": {
        "params": {
          "_vaultAddr": "The vault address"
        },
        "returns": {
          "accumulatedProfit": "Amount of unrealized profit accumulated on the vault (not accounting for past harvests)",
          "harvestableProfit": "Amount of immediately harvestable profits"
        }
      },
      "wantTokenLockedAdj(address,address,address)": {
        "params": {
          "_poolAddress": "The address of the lending pool",
          "_tokenAddress": "The address of the underlying token",
          "_vault": "The vault to check balances of"
        },
        "returns": {
          "amtLocked": "The adjusted wantLockedTotal quantity"
        }
      }
    },
    "version": 1
  },
  "userdoc": {
    "kind": "user",
    "methods": {
      "calcIncBorrowAboveTarget(uint256,uint256,uint256,uint256,uint256,uint256)": {
        "notice": "Calculates incremental borrow amount (_dy) when above leverage target hysteresis envelope"
      },
      "calcIncBorrowBelowTarget(uint256,uint256,uint256,uint256,uint256,uint256)": {
        "notice": "Calculates incremental borrow amount (_dy) when below leverage target hysteresis envelope"
      },
      "collateralFactor(address,address)": {
        "notice": "Gets loan collateral factor from lending protocol"
      },
      "currentWantEquity(address)": {
        "notice": "Measures the current (unrealized) position value (measured in Want token) of the provided vault"
      },
      "distributeAndReinvestEarnings(uint256,uint256,(address,address,address,address,address,address,address,address,address[],address[],uint16,uint16,uint16,bool))": {
        "notice": "Distributes earnings (in the form of Want token) and reinvests remainder into Want token"
      },
      "exchangeUSDForWantToken(uint256,uint256)": {
        "notice": "Performs necessary operations to convert USD into Want token"
      },
      "exchangeWantTokenForUSD(uint256,uint256)": {
        "notice": "Converts Want token back into USD to be ready for withdrawal and transfers to sender"
      },
      "exitPool(uint256,uint256,address,(address,address,address,address))": {
        "notice": "Removes liquidity from a pool and sends tokens back to this address"
      },
      "initialize(address)": {
        "notice": "Constructor"
      },
      "joinPool(address,address,uint256,uint256,uint256,address)": {
        "notice": "Adds liquidity to the pool of this contract"
      },
      "levLendingParams(uint256,uint256,address,address,uint256)": {
        "notice": "Calculates leveraged lending parameters for supply/borrow rebalancing"
      },
      "reversePath(address[])": {
        "notice": "Gets the swap path in the opposite direction of a trade"
      },
      "safeSwap((uint256,uint256,uint256,address,address,uint256,address[],address))": {
        "notice": "Safely swaps tokens using the most suitable protocol based on token"
      },
      "unrealizedProfits(address)": {
        "notice": "Calculates accumulated unrealized profits on a vault"
      },
      "wantTokenLockedAdj(address,address,address)": {
        "notice": "Calc want token locked, accounting for leveraged supply/borrow"
      }
    },
    "version": 1
  }
}