{
  "contractName": "VaultAcryptosSingle",
  "abi": [
    {
      "anonymous": false,
      "inputs": [
        {
          "indexed": true,
          "internalType": "uint256",
          "name": "_amount",
          "type": "uint256"
        }
      ],
      "name": "Buyback",
      "type": "event"
    },
    {
      "anonymous": false,
      "inputs": [
        {
          "indexed": true,
          "internalType": "address",
          "name": "previousOwner",
          "type": "address"
        },
        {
          "indexed": true,
          "internalType": "address",
          "name": "newOwner",
          "type": "address"
        }
      ],
      "name": "OwnershipTransferred",
      "type": "event"
    },
    {
      "anonymous": false,
      "inputs": [
        {
          "indexed": false,
          "internalType": "address",
          "name": "account",
          "type": "address"
        }
      ],
      "name": "Paused",
      "type": "event"
    },
    {
      "anonymous": false,
      "inputs": [
        {
          "indexed": true,
          "internalType": "uint256",
          "name": "_amount",
          "type": "uint256"
        }
      ],
      "name": "RevShare",
      "type": "event"
    },
    {
      "anonymous": false,
      "inputs": [
        {
          "indexed": false,
          "internalType": "address",
          "name": "_govAddress",
          "type": "address"
        }
      ],
      "name": "SetGov",
      "type": "event"
    },
    {
      "anonymous": false,
      "inputs": [
        {
          "indexed": false,
          "internalType": "bool",
          "name": "_onlyGov",
          "type": "bool"
        }
      ],
      "name": "SetOnlyGov",
      "type": "event"
    },
    {
      "anonymous": false,
      "inputs": [
        {
          "indexed": false,
          "internalType": "address",
          "name": "_rewardsAddress",
          "type": "address"
        }
      ],
      "name": "SetRewardsAddress",
      "type": "event"
    },
    {
      "anonymous": false,
      "inputs": [
        {
          "indexed": false,
          "internalType": "uint256",
          "name": "_entranceFeeFactor",
          "type": "uint256"
        },
        {
          "indexed": false,
          "internalType": "uint256",
          "name": "_withdrawFeeFactor",
          "type": "uint256"
        },
        {
          "indexed": false,
          "internalType": "uint256",
          "name": "_controllerFee",
          "type": "uint256"
        },
        {
          "indexed": false,
          "internalType": "uint256",
          "name": "_buyBackRate",
          "type": "uint256"
        },
        {
          "indexed": false,
          "internalType": "uint256",
          "name": "_revShareRate",
          "type": "uint256"
        }
      ],
      "name": "SetSettings",
      "type": "event"
    },
    {
      "anonymous": false,
      "inputs": [
        {
          "indexed": false,
          "internalType": "address",
          "name": "_uniRouterAddress",
          "type": "address"
        }
      ],
      "name": "SetUniRouterAddress",
      "type": "event"
    },
    {
      "anonymous": false,
      "inputs": [
        {
          "indexed": false,
          "internalType": "address",
          "name": "account",
          "type": "address"
        }
      ],
      "name": "Unpaused",
      "type": "event"
    },
    {
      "inputs": [
        {
          "internalType": "uint256",
          "name": "",
          "type": "uint256"
        }
      ],
      "name": "BUSDToLPPoolOtherTokenPath",
      "outputs": [
        {
          "internalType": "address",
          "name": "",
          "type": "address"
        }
      ],
      "stateMutability": "view",
      "type": "function",
      "constant": true
    },
    {
      "inputs": [
        {
          "internalType": "uint256",
          "name": "",
          "type": "uint256"
        }
      ],
      "name": "BUSDToToken0Path",
      "outputs": [
        {
          "internalType": "address",
          "name": "",
          "type": "address"
        }
      ],
      "stateMutability": "view",
      "type": "function",
      "constant": true
    },
    {
      "inputs": [
        {
          "internalType": "uint256",
          "name": "",
          "type": "uint256"
        }
      ],
      "name": "BUSDToZORROPath",
      "outputs": [
        {
          "internalType": "address",
          "name": "",
          "type": "address"
        }
      ],
      "stateMutability": "view",
      "type": "function",
      "constant": true
    },
    {
      "inputs": [
        {
          "internalType": "uint256",
          "name": "",
          "type": "uint256"
        }
      ],
      "name": "USDCToToken0Path",
      "outputs": [
        {
          "internalType": "address",
          "name": "",
          "type": "address"
        }
      ],
      "stateMutability": "view",
      "type": "function",
      "constant": true
    },
    {
      "inputs": [
        {
          "internalType": "uint256",
          "name": "",
          "type": "uint256"
        }
      ],
      "name": "USDCToToken1Path",
      "outputs": [
        {
          "internalType": "address",
          "name": "",
          "type": "address"
        }
      ],
      "stateMutability": "view",
      "type": "function",
      "constant": true
    },
    {
      "inputs": [],
      "name": "ZORPriceFeed",
      "outputs": [
        {
          "internalType": "contract AggregatorV3Interface",
          "name": "",
          "type": "address"
        }
      ],
      "stateMutability": "view",
      "type": "function",
      "constant": true
    },
    {
      "inputs": [],
      "name": "ZORROAddress",
      "outputs": [
        {
          "internalType": "address",
          "name": "",
          "type": "address"
        }
      ],
      "stateMutability": "view",
      "type": "function",
      "constant": true
    },
    {
      "inputs": [],
      "name": "balancerACSWeightBasisPoints",
      "outputs": [
        {
          "internalType": "uint256",
          "name": "",
          "type": "uint256"
        }
      ],
      "stateMutability": "view",
      "type": "function",
      "constant": true
    },
    {
      "inputs": [],
      "name": "balancerBUSDWeightBasisPoints",
      "outputs": [
        {
          "internalType": "uint256",
          "name": "",
          "type": "uint256"
        }
      ],
      "stateMutability": "view",
      "type": "function",
      "constant": true
    },
    {
      "inputs": [],
      "name": "balancerPool",
      "outputs": [
        {
          "internalType": "bytes32",
          "name": "",
          "type": "bytes32"
        }
      ],
      "stateMutability": "view",
      "type": "function",
      "constant": true
    },
    {
      "inputs": [],
      "name": "balancerVaultAddress",
      "outputs": [
        {
          "internalType": "address",
          "name": "",
          "type": "address"
        }
      ],
      "stateMutability": "view",
      "type": "function",
      "constant": true
    },
    {
      "inputs": [],
      "name": "burnAddress",
      "outputs": [
        {
          "internalType": "address",
          "name": "",
          "type": "address"
        }
      ],
      "stateMutability": "view",
      "type": "function",
      "constant": true
    },
    {
      "inputs": [],
      "name": "buyBackRate",
      "outputs": [
        {
          "internalType": "uint256",
          "name": "",
          "type": "uint256"
        }
      ],
      "stateMutability": "view",
      "type": "function",
      "constant": true
    },
    {
      "inputs": [],
      "name": "buyBackRateMax",
      "outputs": [
        {
          "internalType": "uint256",
          "name": "",
          "type": "uint256"
        }
      ],
      "stateMutability": "view",
      "type": "function",
      "constant": true
    },
    {
      "inputs": [],
      "name": "buyBackRateUL",
      "outputs": [
        {
          "internalType": "uint256",
          "name": "",
          "type": "uint256"
        }
      ],
      "stateMutability": "view",
      "type": "function",
      "constant": true
    },
    {
      "inputs": [],
      "name": "controllerFee",
      "outputs": [
        {
          "internalType": "uint256",
          "name": "",
          "type": "uint256"
        }
      ],
      "stateMutability": "view",
      "type": "function",
      "constant": true
    },
    {
      "inputs": [],
      "name": "controllerFeeMax",
      "outputs": [
        {
          "internalType": "uint256",
          "name": "",
          "type": "uint256"
        }
      ],
      "stateMutability": "view",
      "type": "function",
      "constant": true
    },
    {
      "inputs": [],
      "name": "controllerFeeUL",
      "outputs": [
        {
          "internalType": "uint256",
          "name": "",
          "type": "uint256"
        }
      ],
      "stateMutability": "view",
      "type": "function",
      "constant": true
    },
    {
      "inputs": [],
      "name": "earnTokenPriceFeed",
      "outputs": [
        {
          "internalType": "contract AggregatorV3Interface",
          "name": "",
          "type": "address"
        }
      ],
      "stateMutability": "view",
      "type": "function",
      "constant": true
    },
    {
      "inputs": [],
      "name": "earnedAddress",
      "outputs": [
        {
          "internalType": "address",
          "name": "",
          "type": "address"
        }
      ],
      "stateMutability": "view",
      "type": "function",
      "constant": true
    },
    {
      "inputs": [
        {
          "internalType": "uint256",
          "name": "",
          "type": "uint256"
        }
      ],
      "name": "earnedToToken0Path",
      "outputs": [
        {
          "internalType": "address",
          "name": "",
          "type": "address"
        }
      ],
      "stateMutability": "view",
      "type": "function",
      "constant": true
    },
    {
      "inputs": [
        {
          "internalType": "uint256",
          "name": "",
          "type": "uint256"
        }
      ],
      "name": "earnedToToken1Path",
      "outputs": [
        {
          "internalType": "address",
          "name": "",
          "type": "address"
        }
      ],
      "stateMutability": "view",
      "type": "function",
      "constant": true
    },
    {
      "inputs": [
        {
          "internalType": "uint256",
          "name": "",
          "type": "uint256"
        }
      ],
      "name": "earnedToUSDCPath",
      "outputs": [
        {
          "internalType": "address",
          "name": "",
          "type": "address"
        }
      ],
      "stateMutability": "view",
      "type": "function",
      "constant": true
    },
    {
      "inputs": [
        {
          "internalType": "uint256",
          "name": "",
          "type": "uint256"
        }
      ],
      "name": "earnedToZORLPPoolOtherTokenPath",
      "outputs": [
        {
          "internalType": "address",
          "name": "",
          "type": "address"
        }
      ],
      "stateMutability": "view",
      "type": "function",
      "constant": true
    },
    {
      "inputs": [
        {
          "internalType": "uint256",
          "name": "",
          "type": "uint256"
        }
      ],
      "name": "earnedToZORROPath",
      "outputs": [
        {
          "internalType": "address",
          "name": "",
          "type": "address"
        }
      ],
      "stateMutability": "view",
      "type": "function",
      "constant": true
    },
    {
      "inputs": [],
      "name": "entranceFeeFactor",
      "outputs": [
        {
          "internalType": "uint256",
          "name": "",
          "type": "uint256"
        }
      ],
      "stateMutability": "view",
      "type": "function",
      "constant": true
    },
    {
      "inputs": [],
      "name": "entranceFeeFactorLL",
      "outputs": [
        {
          "internalType": "uint256",
          "name": "",
          "type": "uint256"
        }
      ],
      "stateMutability": "view",
      "type": "function",
      "constant": true
    },
    {
      "inputs": [],
      "name": "entranceFeeFactorMax",
      "outputs": [
        {
          "internalType": "uint256",
          "name": "",
          "type": "uint256"
        }
      ],
      "stateMutability": "view",
      "type": "function",
      "constant": true
    },
    {
      "inputs": [],
      "name": "farmContractAddress",
      "outputs": [
        {
          "internalType": "address",
          "name": "",
          "type": "address"
        }
      ],
      "stateMutability": "view",
      "type": "function",
      "constant": true
    },
    {
      "inputs": [],
      "name": "govAddress",
      "outputs": [
        {
          "internalType": "address",
          "name": "",
          "type": "address"
        }
      ],
      "stateMutability": "view",
      "type": "function",
      "constant": true
    },
    {
      "inputs": [
        {
          "internalType": "address",
          "name": "_token",
          "type": "address"
        },
        {
          "internalType": "uint256",
          "name": "_amount",
          "type": "uint256"
        },
        {
          "internalType": "address",
          "name": "_to",
          "type": "address"
        }
      ],
      "name": "inCaseTokensGetStuck",
      "outputs": [],
      "stateMutability": "nonpayable",
      "type": "function"
    },
    {
      "inputs": [],
      "name": "isHomeChain",
      "outputs": [
        {
          "internalType": "bool",
          "name": "",
          "type": "bool"
        }
      ],
      "stateMutability": "view",
      "type": "function",
      "constant": true
    },
    {
      "inputs": [],
      "name": "lastEarnBlock",
      "outputs": [
        {
          "internalType": "uint256",
          "name": "",
          "type": "uint256"
        }
      ],
      "stateMutability": "view",
      "type": "function",
      "constant": true
    },
    {
      "inputs": [],
      "name": "lpPoolOtherTokenPriceFeed",
      "outputs": [
        {
          "internalType": "contract AggregatorV3Interface",
          "name": "",
          "type": "address"
        }
      ],
      "stateMutability": "view",
      "type": "function",
      "constant": true
    },
    {
      "inputs": [],
      "name": "onlyGov",
      "outputs": [
        {
          "internalType": "bool",
          "name": "",
          "type": "bool"
        }
      ],
      "stateMutability": "view",
      "type": "function",
      "constant": true
    },
    {
      "inputs": [],
      "name": "owner",
      "outputs": [
        {
          "internalType": "address",
          "name": "",
          "type": "address"
        }
      ],
      "stateMutability": "view",
      "type": "function",
      "constant": true
    },
    {
      "inputs": [],
      "name": "pause",
      "outputs": [],
      "stateMutability": "nonpayable",
      "type": "function"
    },
    {
      "inputs": [],
      "name": "paused",
      "outputs": [
        {
          "internalType": "bool",
          "name": "",
          "type": "bool"
        }
      ],
      "stateMutability": "view",
      "type": "function",
      "constant": true
    },
    {
      "inputs": [],
      "name": "pid",
      "outputs": [
        {
          "internalType": "uint256",
          "name": "",
          "type": "uint256"
        }
      ],
      "stateMutability": "view",
      "type": "function",
      "constant": true
    },
    {
      "inputs": [],
      "name": "poolAddress",
      "outputs": [
        {
          "internalType": "address",
          "name": "",
          "type": "address"
        }
      ],
      "stateMutability": "view",
      "type": "function",
      "constant": true
    },
    {
      "inputs": [],
      "name": "renounceOwnership",
      "outputs": [],
      "stateMutability": "nonpayable",
      "type": "function"
    },
    {
      "inputs": [],
      "name": "revShareRate",
      "outputs": [
        {
          "internalType": "uint256",
          "name": "",
          "type": "uint256"
        }
      ],
      "stateMutability": "view",
      "type": "function",
      "constant": true
    },
    {
      "inputs": [],
      "name": "revShareRateMax",
      "outputs": [
        {
          "internalType": "uint256",
          "name": "",
          "type": "uint256"
        }
      ],
      "stateMutability": "view",
      "type": "function",
      "constant": true
    },
    {
      "inputs": [],
      "name": "revShareRateUL",
      "outputs": [
        {
          "internalType": "uint256",
          "name": "",
          "type": "uint256"
        }
      ],
      "stateMutability": "view",
      "type": "function",
      "constant": true
    },
    {
      "inputs": [],
      "name": "rewardsAddress",
      "outputs": [
        {
          "internalType": "address",
          "name": "",
          "type": "address"
        }
      ],
      "stateMutability": "view",
      "type": "function",
      "constant": true
    },
    {
      "inputs": [
        {
          "internalType": "address",
          "name": "_burnAddress",
          "type": "address"
        }
      ],
      "name": "setBurnAddress",
      "outputs": [],
      "stateMutability": "nonpayable",
      "type": "function"
    },
    {
      "inputs": [
        {
          "internalType": "address",
          "name": "_earnedAddress",
          "type": "address"
        }
      ],
      "name": "setEarnedAddress",
      "outputs": [],
      "stateMutability": "nonpayable",
      "type": "function"
    },
    {
      "inputs": [
        {
          "internalType": "address",
          "name": "_farmContractAddress",
          "type": "address"
        }
      ],
      "name": "setFarmContractAddress",
      "outputs": [],
      "stateMutability": "nonpayable",
      "type": "function"
    },
    {
      "inputs": [
        {
          "internalType": "uint256",
          "name": "_entranceFeeFactor",
          "type": "uint256"
        },
        {
          "internalType": "uint256",
          "name": "_withdrawFeeFactor",
          "type": "uint256"
        },
        {
          "internalType": "uint256",
          "name": "_controllerFee",
          "type": "uint256"
        },
        {
          "internalType": "uint256",
          "name": "_buyBackRate",
          "type": "uint256"
        },
        {
          "internalType": "uint256",
          "name": "_revShareRate",
          "type": "uint256"
        }
      ],
      "name": "setFeeSettings",
      "outputs": [],
      "stateMutability": "nonpayable",
      "type": "function"
    },
    {
      "inputs": [
        {
          "internalType": "address",
          "name": "_govAddress",
          "type": "address"
        }
      ],
      "name": "setGov",
      "outputs": [],
      "stateMutability": "nonpayable",
      "type": "function"
    },
    {
      "inputs": [
        {
          "internalType": "bool",
          "name": "_onlyGov",
          "type": "bool"
        }
      ],
      "name": "setOnlyGov",
      "outputs": [],
      "stateMutability": "nonpayable",
      "type": "function"
    },
    {
      "inputs": [
        {
          "internalType": "uint256",
          "name": "_pid",
          "type": "uint256"
        }
      ],
      "name": "setPid",
      "outputs": [],
      "stateMutability": "nonpayable",
      "type": "function"
    },
    {
      "inputs": [
        {
          "internalType": "address",
          "name": "_poolAddress",
          "type": "address"
        }
      ],
      "name": "setPoolAddress",
      "outputs": [],
      "stateMutability": "nonpayable",
      "type": "function"
    },
    {
      "inputs": [
        {
          "internalType": "uint8",
          "name": "_idx",
          "type": "uint8"
        },
        {
          "internalType": "address",
          "name": "_priceFeed",
          "type": "address"
        }
      ],
      "name": "setPriceFeed",
      "outputs": [],
      "stateMutability": "nonpayable",
      "type": "function"
    },
    {
      "inputs": [
        {
          "internalType": "address",
          "name": "_rewardsAddress",
          "type": "address"
        }
      ],
      "name": "setRewardsAddress",
      "outputs": [],
      "stateMutability": "nonpayable",
      "type": "function"
    },
    {
      "inputs": [
        {
          "internalType": "uint8",
          "name": "_idx",
          "type": "uint8"
        },
        {
          "internalType": "address[]",
          "name": "_path",
          "type": "address[]"
        }
      ],
      "name": "setSwapPaths",
      "outputs": [],
      "stateMutability": "nonpayable",
      "type": "function"
    },
    {
      "inputs": [
        {
          "internalType": "address",
          "name": "_token0Address",
          "type": "address"
        }
      ],
      "name": "setToken0Address",
      "outputs": [],
      "stateMutability": "nonpayable",
      "type": "function"
    },
    {
      "inputs": [
        {
          "internalType": "address",
          "name": "_token1Address",
          "type": "address"
        }
      ],
      "name": "setToken1Address",
      "outputs": [],
      "stateMutability": "nonpayable",
      "type": "function"
    },
    {
      "inputs": [
        {
          "internalType": "address",
          "name": "_tokenUSDCAddress",
          "type": "address"
        }
      ],
      "name": "setTokenUSDCAddress",
      "outputs": [],
      "stateMutability": "nonpayable",
      "type": "function"
    },
    {
      "inputs": [
        {
          "internalType": "address",
          "name": "_uniRouterAddress",
          "type": "address"
        }
      ],
      "name": "setUniRouterAddress",
      "outputs": [],
      "stateMutability": "nonpayable",
      "type": "function"
    },
    {
      "inputs": [
        {
          "internalType": "address",
          "name": "_wantAddress",
          "type": "address"
        }
      ],
      "name": "setWantAddress",
      "outputs": [],
      "stateMutability": "nonpayable",
      "type": "function"
    },
    {
      "inputs": [
        {
          "internalType": "address",
          "name": "_ZORROAddress",
          "type": "address"
        }
      ],
      "name": "setZORROAddress",
      "outputs": [],
      "stateMutability": "nonpayable",
      "type": "function"
    },
    {
      "inputs": [
        {
          "internalType": "address",
          "name": "_zorroControllerAddress",
          "type": "address"
        }
      ],
      "name": "setZorroControllerAddress",
      "outputs": [],
      "stateMutability": "nonpayable",
      "type": "function"
    },
    {
      "inputs": [
        {
          "internalType": "address",
          "name": "_poolAddress",
          "type": "address"
        }
      ],
      "name": "setZorroLPPoolAddress",
      "outputs": [],
      "stateMutability": "nonpayable",
      "type": "function"
    },
    {
      "inputs": [
        {
          "internalType": "address",
          "name": "_otherToken",
          "type": "address"
        }
      ],
      "name": "setZorroLPPoolOtherToken",
      "outputs": [],
      "stateMutability": "nonpayable",
      "type": "function"
    },
    {
      "inputs": [
        {
          "internalType": "address",
          "name": "_stakingVault",
          "type": "address"
        }
      ],
      "name": "setZorroStakingVault",
      "outputs": [],
      "stateMutability": "nonpayable",
      "type": "function"
    },
    {
      "inputs": [],
      "name": "sharesTotal",
      "outputs": [
        {
          "internalType": "uint256",
          "name": "",
          "type": "uint256"
        }
      ],
      "stateMutability": "view",
      "type": "function",
      "constant": true
    },
    {
      "inputs": [],
      "name": "token0Address",
      "outputs": [
        {
          "internalType": "address",
          "name": "",
          "type": "address"
        }
      ],
      "stateMutability": "view",
      "type": "function",
      "constant": true
    },
    {
      "inputs": [],
      "name": "token0PriceFeed",
      "outputs": [
        {
          "internalType": "contract AggregatorV3Interface",
          "name": "",
          "type": "address"
        }
      ],
      "stateMutability": "view",
      "type": "function",
      "constant": true
    },
    {
      "inputs": [
        {
          "internalType": "uint256",
          "name": "",
          "type": "uint256"
        }
      ],
      "name": "token0ToUSDCPath",
      "outputs": [
        {
          "internalType": "address",
          "name": "",
          "type": "address"
        }
      ],
      "stateMutability": "view",
      "type": "function",
      "constant": true
    },
    {
      "inputs": [],
      "name": "token1Address",
      "outputs": [
        {
          "internalType": "address",
          "name": "",
          "type": "address"
        }
      ],
      "stateMutability": "view",
      "type": "function",
      "constant": true
    },
    {
      "inputs": [],
      "name": "token1PriceFeed",
      "outputs": [
        {
          "internalType": "contract AggregatorV3Interface",
          "name": "",
          "type": "address"
        }
      ],
      "stateMutability": "view",
      "type": "function",
      "constant": true
    },
    {
      "inputs": [
        {
          "internalType": "uint256",
          "name": "",
          "type": "uint256"
        }
      ],
      "name": "token1ToUSDCPath",
      "outputs": [
        {
          "internalType": "address",
          "name": "",
          "type": "address"
        }
      ],
      "stateMutability": "view",
      "type": "function",
      "constant": true
    },
    {
      "inputs": [],
      "name": "tokenACS",
      "outputs": [
        {
          "internalType": "address",
          "name": "",
          "type": "address"
        }
      ],
      "stateMutability": "view",
      "type": "function",
      "constant": true
    },
    {
      "inputs": [],
      "name": "tokenBUSD",
      "outputs": [
        {
          "internalType": "address",
          "name": "",
          "type": "address"
        }
      ],
      "stateMutability": "view",
      "type": "function",
      "constant": true
    },
    {
      "inputs": [],
      "name": "tokenUSDCAddress",
      "outputs": [
        {
          "internalType": "address",
          "name": "",
          "type": "address"
        }
      ],
      "stateMutability": "view",
      "type": "function",
      "constant": true
    },
    {
      "inputs": [
        {
          "internalType": "address",
          "name": "newOwner",
          "type": "address"
        }
      ],
      "name": "transferOwnership",
      "outputs": [],
      "stateMutability": "nonpayable",
      "type": "function"
    },
    {
      "inputs": [],
      "name": "uniRouterAddress",
      "outputs": [
        {
          "internalType": "address",
          "name": "",
          "type": "address"
        }
      ],
      "stateMutability": "view",
      "type": "function",
      "constant": true
    },
    {
      "inputs": [],
      "name": "unpause",
      "outputs": [],
      "stateMutability": "nonpayable",
      "type": "function"
    },
    {
      "inputs": [
        {
          "internalType": "address",
          "name": "",
          "type": "address"
        }
      ],
      "name": "userShares",
      "outputs": [
        {
          "internalType": "uint256",
          "name": "",
          "type": "uint256"
        }
      ],
      "stateMutability": "view",
      "type": "function",
      "constant": true
    },
    {
      "inputs": [],
      "name": "wantAddress",
      "outputs": [
        {
          "internalType": "address",
          "name": "",
          "type": "address"
        }
      ],
      "stateMutability": "view",
      "type": "function",
      "constant": true
    },
    {
      "inputs": [],
      "name": "wantLockedTotal",
      "outputs": [
        {
          "internalType": "uint256",
          "name": "",
          "type": "uint256"
        }
      ],
      "stateMutability": "view",
      "type": "function",
      "constant": true
    },
    {
      "inputs": [],
      "name": "withdrawFeeFactor",
      "outputs": [
        {
          "internalType": "uint256",
          "name": "",
          "type": "uint256"
        }
      ],
      "stateMutability": "view",
      "type": "function",
      "constant": true
    },
    {
      "inputs": [],
      "name": "withdrawFeeFactorLL",
      "outputs": [
        {
          "internalType": "uint256",
          "name": "",
          "type": "uint256"
        }
      ],
      "stateMutability": "view",
      "type": "function",
      "constant": true
    },
    {
      "inputs": [],
      "name": "withdrawFeeFactorMax",
      "outputs": [
        {
          "internalType": "uint256",
          "name": "",
          "type": "uint256"
        }
      ],
      "stateMutability": "view",
      "type": "function",
      "constant": true
    },
    {
      "inputs": [],
      "name": "zorroControllerAddress",
      "outputs": [
        {
          "internalType": "address",
          "name": "",
          "type": "address"
        }
      ],
      "stateMutability": "view",
      "type": "function",
      "constant": true
    },
    {
      "inputs": [],
      "name": "zorroLPPool",
      "outputs": [
        {
          "internalType": "address",
          "name": "",
          "type": "address"
        }
      ],
      "stateMutability": "view",
      "type": "function",
      "constant": true
    },
    {
      "inputs": [],
      "name": "zorroLPPoolOtherToken",
      "outputs": [
        {
          "internalType": "address",
          "name": "",
          "type": "address"
        }
      ],
      "stateMutability": "view",
      "type": "function",
      "constant": true
    },
    {
      "inputs": [],
      "name": "zorroStakingVault",
      "outputs": [
        {
          "internalType": "address",
          "name": "",
          "type": "address"
        }
      ],
      "stateMutability": "view",
      "type": "function",
      "constant": true
    },
    {
      "inputs": [],
      "name": "zorroXChainController",
      "outputs": [
        {
          "internalType": "address",
          "name": "",
          "type": "address"
        }
      ],
      "stateMutability": "view",
      "type": "function",
      "constant": true
    },
    {
      "inputs": [
        {
          "internalType": "address",
          "name": "_timelockOwner",
          "type": "address"
        },
        {
          "components": [
            {
              "internalType": "uint256",
              "name": "pid",
              "type": "uint256"
            },
            {
              "internalType": "bool",
              "name": "isHomeChain",
              "type": "bool"
            },
            {
              "components": [
                {
                  "internalType": "address",
                  "name": "govAddress",
                  "type": "address"
                },
                {
                  "internalType": "address",
                  "name": "zorroControllerAddress",
                  "type": "address"
                },
                {
                  "internalType": "address",
                  "name": "ZORROAddress",
                  "type": "address"
                },
                {
                  "internalType": "address",
                  "name": "zorroStakingVault",
                  "type": "address"
                },
                {
                  "internalType": "address",
                  "name": "wantAddress",
                  "type": "address"
                },
                {
                  "internalType": "address",
                  "name": "token0Address",
                  "type": "address"
                },
                {
                  "internalType": "address",
                  "name": "token1Address",
                  "type": "address"
                },
                {
                  "internalType": "address",
                  "name": "earnedAddress",
                  "type": "address"
                },
                {
                  "internalType": "address",
                  "name": "farmContractAddress",
                  "type": "address"
                },
                {
                  "internalType": "address",
                  "name": "rewardsAddress",
                  "type": "address"
                },
                {
                  "internalType": "address",
                  "name": "poolAddress",
                  "type": "address"
                },
                {
                  "internalType": "address",
                  "name": "uniRouterAddress",
                  "type": "address"
                },
                {
                  "internalType": "address",
                  "name": "zorroLPPool",
                  "type": "address"
                },
                {
                  "internalType": "address",
                  "name": "zorroLPPoolOtherToken",
                  "type": "address"
                },
                {
                  "internalType": "address",
                  "name": "tokenUSDCAddress",
                  "type": "address"
                }
              ],
              "internalType": "struct VaultBase.VaultAddresses",
              "name": "keyAddresses",
              "type": "tuple"
            },
            {
              "internalType": "address[]",
              "name": "earnedToZORROPath",
              "type": "address[]"
            },
            {
              "internalType": "address[]",
              "name": "earnedToToken0Path",
              "type": "address[]"
            },
            {
              "internalType": "address[]",
              "name": "USDCToToken0Path",
              "type": "address[]"
            },
            {
              "internalType": "address[]",
              "name": "earnedToZORLPPoolOtherTokenPath",
              "type": "address[]"
            },
            {
              "internalType": "address[]",
              "name": "earnedToUSDCPath",
              "type": "address[]"
            },
            {
              "internalType": "address[]",
              "name": "BUSDToToken0Path",
              "type": "address[]"
            },
            {
              "internalType": "address[]",
              "name": "BUSDToZORROPath",
              "type": "address[]"
            },
            {
              "internalType": "address[]",
              "name": "BUSDToLPPoolOtherTokenPath",
              "type": "address[]"
            },
            {
              "components": [
                {
                  "internalType": "uint256",
                  "name": "controllerFee",
                  "type": "uint256"
                },
                {
                  "internalType": "uint256",
                  "name": "buyBackRate",
                  "type": "uint256"
                },
                {
                  "internalType": "uint256",
                  "name": "revShareRate",
                  "type": "uint256"
                },
                {
                  "internalType": "uint256",
                  "name": "entranceFeeFactor",
                  "type": "uint256"
                },
                {
                  "internalType": "uint256",
                  "name": "withdrawFeeFactor",
                  "type": "uint256"
                }
              ],
              "internalType": "struct VaultBase.VaultFees",
              "name": "fees",
              "type": "tuple"
            },
            {
              "components": [
                {
                  "internalType": "address",
                  "name": "token0PriceFeed",
                  "type": "address"
                },
                {
                  "internalType": "address",
                  "name": "token1PriceFeed",
                  "type": "address"
                },
                {
                  "internalType": "address",
                  "name": "earnTokenPriceFeed",
                  "type": "address"
                },
                {
                  "internalType": "address",
                  "name": "ZORPriceFeed",
                  "type": "address"
                },
                {
                  "internalType": "address",
                  "name": "lpPoolOtherTokenPriceFeed",
                  "type": "address"
                }
              ],
              "internalType": "struct VaultBase.VaultPriceFeeds",
              "name": "priceFeeds",
              "type": "tuple"
            }
          ],
          "internalType": "struct VaultAcryptosSingle.VaultAcryptosSingleInit",
          "name": "_initValue",
          "type": "tuple"
        }
      ],
      "name": "initialize",
      "outputs": [],
      "stateMutability": "nonpayable",
      "type": "function"
    },
    {
      "inputs": [
        {
          "internalType": "address",
          "name": "_timelockOwner",
          "type": "address"
        }
      ],
      "name": "initialize",
      "outputs": [],
      "stateMutability": "nonpayable",
      "type": "function"
    },
    {
      "inputs": [
        {
          "internalType": "uint256",
          "name": "_acsWeight",
          "type": "uint256"
        },
        {
          "internalType": "uint256",
          "name": "_busdWeight",
          "type": "uint256"
        }
      ],
      "name": "setBalancerWeights",
      "outputs": [],
      "stateMutability": "nonpayable",
      "type": "function"
    },
    {
      "inputs": [
        {
          "internalType": "uint8",
          "name": "_idx",
          "type": "uint8"
        },
        {
          "internalType": "address[]",
          "name": "_path",
          "type": "address[]"
        }
      ],
      "name": "setBUSDSwapPaths",
      "outputs": [],
      "stateMutability": "nonpayable",
      "type": "function"
    },
    {
      "inputs": [
        {
          "internalType": "address",
          "name": "_token",
          "type": "address"
        }
      ],
      "name": "setBUSD",
      "outputs": [],
      "stateMutability": "nonpayable",
      "type": "function"
    },
    {
      "inputs": [
        {
          "internalType": "address",
          "name": "_token",
          "type": "address"
        }
      ],
      "name": "setACS",
      "outputs": [],
      "stateMutability": "nonpayable",
      "type": "function"
    },
    {
      "inputs": [
        {
          "internalType": "bytes32",
          "name": "_pool",
          "type": "bytes32"
        }
      ],
      "name": "setBalancerPool",
      "outputs": [],
      "stateMutability": "nonpayable",
      "type": "function"
    },
    {
      "inputs": [
        {
          "internalType": "address",
          "name": "_vault",
          "type": "address"
        }
      ],
      "name": "setBalancerVaultAddress",
      "outputs": [],
      "stateMutability": "nonpayable",
      "type": "function"
    },
    {
      "inputs": [
        {
          "internalType": "address",
          "name": "_account",
          "type": "address"
        },
        {
          "internalType": "uint256",
          "name": "_wantAmt",
          "type": "uint256"
        }
      ],
      "name": "depositWantToken",
      "outputs": [
        {
          "internalType": "uint256",
          "name": "sharesAdded",
          "type": "uint256"
        }
      ],
      "stateMutability": "nonpayable",
      "type": "function"
    },
    {
      "inputs": [
        {
          "internalType": "uint256",
          "name": "_amountUSDC",
          "type": "uint256"
        },
        {
          "internalType": "uint256",
          "name": "_maxMarketMovementAllowed",
          "type": "uint256"
        }
      ],
      "name": "exchangeUSDForWantToken",
      "outputs": [
        {
          "internalType": "uint256",
          "name": "",
          "type": "uint256"
        }
      ],
      "stateMutability": "nonpayable",
      "type": "function"
    },
    {
      "inputs": [],
      "name": "farm",
      "outputs": [],
      "stateMutability": "nonpayable",
      "type": "function"
    },
    {
      "inputs": [
        {
          "internalType": "address",
          "name": "_account",
          "type": "address"
        },
        {
          "internalType": "uint256",
          "name": "_wantAmt",
          "type": "uint256"
        }
      ],
      "name": "withdrawWantToken",
      "outputs": [
        {
          "internalType": "uint256",
          "name": "",
          "type": "uint256"
        }
      ],
      "stateMutability": "nonpayable",
      "type": "function"
    },
    {
      "inputs": [
        {
          "internalType": "uint256",
          "name": "_amount",
          "type": "uint256"
        },
        {
          "internalType": "uint256",
          "name": "_maxMarketMovementAllowed",
          "type": "uint256"
        }
      ],
      "name": "exchangeWantTokenForUSD",
      "outputs": [
        {
          "internalType": "uint256",
          "name": "",
          "type": "uint256"
        }
      ],
      "stateMutability": "nonpayable",
      "type": "function"
    },
    {
      "inputs": [
        {
          "internalType": "uint256",
          "name": "_maxMarketMovementAllowed",
          "type": "uint256"
        }
      ],
      "name": "earn",
      "outputs": [],
      "stateMutability": "nonpayable",
      "type": "function"
    }
  ],
  "bytecode": "0x608060405234801561001057600080fd5b5061587280620000216000396000f3fe608060405234801561001057600080fd5b50600436106106085760003560e01c80638456cb591161031b578063c4d66de8116101a8578063e7198474116100f4578063ee50dc34116100ad578063f2fde38b11610087578063f2fde38b14610c6d578063f5046a2914610c80578063fbf5683f14610c93578063ff29b39514610ca657600080fd5b8063ee50dc341461072d578063f106845414610c51578063f25342bf14610c5a57600080fd5b8063e719847414610be5578063e7a0367914610bf8578063e9e15b4f14610c0b578063ebfba7c414610c1e578063ec69ae1c14610c31578063edf5e58514610c4457600080fd5b8063d7cb416f11610161578063de8419911161013b578063de84199114610b99578063e0ccabfa14610bac578063e502a88d14610bbf578063e65a011714610bd257600080fd5b8063d7cb416f14610b53578063db31640c14610b66578063de69b3aa14610b7957600080fd5b8063c4d66de814610ae1578063c5c97cbf14610af4578063c6efd57714610b07578063c8479cd614610b1a578063c8e3d18b14610b2d578063cfad57a214610b4057600080fd5b8063aabf190b11610267578063b73cba2a11610220578063bf3a7d40116101fa578063bf3a7d4014610ab2578063c0973eed14610ac5578063c2dfdcd214610ad8578063c302a4d01461097b57600080fd5b8063b73cba2a14610a79578063b86c5f5314610a8c578063ba0bb4ab14610a9f57600080fd5b8063aabf190b14610a1a578063ab196def14610a2d578063ae53e58a14610a40578063b1414dbb14610a53578063b2740cb414610a66578063b3545c011461062257600080fd5b80638da5cb5b116102d45780639805f01b116102ae5780639805f01b146109ce5780639f703a56146109e15780639fc33a9f146109f4578063a4d2b08314610a0757600080fd5b80638da5cb5b14610997578063959334f4146109a857806396e9aff8146109bb57600080fd5b80638456cb59146109445780638460adc91461094c578063858c5b681461095f57806385f02dd614610972578063866b20181461097b5780638906758d1461098457600080fd5b80634d9f7bb21161049957806368f54162116103e5578063715018a61161039e57806379eb16d11161037857806379eb16d1146109025780637bf604d8146109155780637fe37d33146109285780637ff36fbe1461093157600080fd5b8063715018a6146108de5780637153ef86146108e6578063776da470146108f957600080fd5b806368f5416214610876578063693a090b1461087f5780636ca8bd65146108925780636f96f6fa146108a557806370d5ae05146108b857806370e842a1146108cb57600080fd5b80635fc77d43116104525780636392ab121161042c5780636392ab121461083d578063648794a41461085057806367057b6c1461072d57806367206d401461086357600080fd5b80635fc77d43146108045780636183e8041461081757806361b5bf9f1461082a57600080fd5b80634d9f7bb21461072d5780634e2cb8b6146107ad578063563397d7146107c0578063583bda3b146107d35780635c975abb146107e65780635da79d63146107f157600080fd5b8063211019d71161055857806342da4eb31161051157806346008a07116104eb57806346008a07146107615780634b0e7216146107745780634c5b09da146107875780634ce54ddb1461079a57600080fd5b806342da4eb31461074f57806343788cd21461072d57806344a3955e1461075857600080fd5b8063211019d714610622578063213ef7f71461071a5780632717eff31461072d5780633214471f1461073657806336e9332d1461073f5780633f4ba83a1461074757600080fd5b80630fa4e01e116105c55780631755ff211161059f5780631755ff21146106d8578063178a8d07146106eb5780631b0d8aab146106f45780631e12819a1461070757600080fd5b80630fa4e01e146106b3578063127b5bbb146106bc5780631334903f146106cf57600080fd5b806305828d3e1461060d578063061c7d48146106225780630a8684041461063e5780630b6bb30b146106695780630bdb90701461067c5780630daef3211461068f575b600080fd5b61062061061b366004614a2c565b610cb9565b005b61062b6103e881565b6040519081526020015b60405180910390f35b61065161064c366004614a49565b610d0e565b6040516001600160a01b039091168152602001610635565b610620610677366004614a7b565b610d38565b61062061068a366004614dd4565b610dba565b60cb546106a390600160a01b900460ff1681565b6040519015158152602001610635565b61062b60e15481565b6106516106ca366004614a49565b6111f3565b61062b60df5481565b60d854610651906001600160a01b031681565b61062b60dd5481565b610620610702366004614a49565b611203565b610620610715366004614a2c565b611232565b60f854610651906001600160a01b031681565b61062b61271081565b61062b60de5481565b61062061127e565b6106206112b5565b61062b60e25481565b61062b60e35481565b60cb54610651906001600160a01b031681565b610620610782366004614a2c565b6112e9565b610620610795366004614a2c565b611335565b60d554610651906001600160a01b031681565b6106516107bb366004614a49565b611381565b60f954610651906001600160a01b031681565b6106206107e1366004614a2c565b611391565b60975460ff166106a3565b6106206107ff366004614a2c565b6113dd565b60cd54610651906001600160a01b031681565b610620610825366004614a2c565b611429565b610620610838366004614a2c565b611475565b61065161084b366004614a49565b6114c1565b61062b61085e366004614fb3565b6114d1565b610620610871366004614fd5565b6117d1565b61062b60e05481565b60d954610651906001600160a01b031681565b6106206108a0366004614a2c565b61189b565b60f054610651906001600160a01b031681565b60d654610651906001600160a01b031681565b60fb54610651906001600160a01b031681565b6106206118e7565b6106206108f4366004615017565b61191b565b61062b60fa5481565b610620610910366004614a2c565b611be3565b60da54610651906001600160a01b031681565b61062b60f45481565b60d154610651906001600160a01b031681565b610620611c2f565b61062061095a366004614fb3565b611c61565b61062061096d366004615061565b611c96565b61062b60dc5481565b61062b61232881565b610620610992366004614a2c565b611d52565b6033546001600160a01b0316610651565b6106206109b6366004614a2c565b611d9e565b6106516109c9366004614a49565b611dea565b6106206109dc366004614a2c565b611dfa565b6106516109ef366004614a49565b611e46565b60d454610651906001600160a01b031681565b60cf54610651906001600160a01b031681565b60f154610651906001600160a01b031681565b60f254610651906001600160a01b031681565b60ef54610651906001600160a01b031681565b60cc54610651906001600160a01b031681565b610620610a74366004614a49565b611e56565b610620610a87366004614a2c565b611e85565b610651610a9a366004614a49565b611ed1565b61062b610aad3660046150e9565b611ee1565b610620610ac0366004614a2c565b61207b565b60d754610651906001600160a01b031681565b61062b60f35481565b610620610aef366004614a2c565b6120c7565b610651610b02366004614a49565b61215f565b610651610b15366004614a49565b61216f565b610620610b28366004614a2c565b61217f565b610651610b3b366004614a49565b6121cb565b610620610b4e366004614a2c565b6121db565b60d254610651906001600160a01b031681565b610651610b74366004614a49565b612253565b61062b610b87366004614a2c565b60e46020526000908152604090205481565b610620610ba7366004615115565b612263565b61062b610bba3660046150e9565b6123a9565b61062b610bcd366004614fb3565b6125dc565b610620610be0366004614a49565b6129a3565b60d354610651906001600160a01b031681565b60d054610651906001600160a01b031681565b610620610c19366004614a2c565b612e5e565b60db54610651906001600160a01b031681565b610620610c3f366004614a2c565b612eaa565b60c9546106a39060ff1681565b61062b60ca5481565b60ee54610651906001600160a01b031681565b610620610c7b366004614a2c565b612ef6565b60ce54610651906001600160a01b031681565b610651610ca1366004614a49565b612f91565b610620610cb4366004615061565b612fa1565b6033546001600160a01b03163314610cec5760405162461bcd60e51b8152600401610ce39061514e565b60405180910390fd5b60d280546001600160a01b0319166001600160a01b0392909216919091179055565b60f58181548110610d1e57600080fd5b6000918252602090912001546001600160a01b0316905081565b60cb546001600160a01b03163314610d625760405162461bcd60e51b8152600401610ce390615183565b60cb8054821515600160a01b0260ff60a01b199091161790556040517f125177ac7b8930dac1e59c2b30b1b6b9191b30af40cf6bbb5d20fec4d44be60f90610daf90831515815260200190565b60405180910390a150565b600054610100900460ff16610dd55760005460ff1615610dd9565b303b155b610df55760405162461bcd60e51b8152600401610ce3906151a1565b600054610100900460ff16158015610e17576000805461ffff19166101011790555b815160ca5560208083015160c9805460ff1916911515919091179055604080840151805160cb8054600160a01b6001600160a01b039384166001600160a81b0319909216919091171790558184015160cc80546001600160a01b03199081169284169290921790558284015160ce8054831691841691909117905560608084015160cf8054841691851691909117905560808085015160d08054851691861691909117905560a085015160d18054851691861691909117905560e08086015160d38054861691871691909117905561010086015160d48054861691871691909117905561012086015160d78054861691871691909117905561014086015160d8805486169187169190911790556101608087015160d98054871691881691909117905561018087015160da805487169188169190911790556101a087015160db805487169188169190911790556101c09096015160d580548616919096161790945560f8805473e9e7cea3dedca5984780bafc599bd69add087d569085161790557f894ed9026de37afd9cce1e6c0be7d6b510e3ffe500010000000000000000000160fa5560fb805473a82f327bbbf0667356d2935c6532d164b06ceced90851617905560f98054734197c6ef3879a08cd51e5560da5064b773aa1d29941693909317909255601e60f355600a60f45592870151805160dc558086015160dd559384015160de558383015160df55929092015190915583015180516110409260eb92019061493f565b506080820151805161105a9160e99160209091019061493f565b5060a082015180516110749160e59160209091019061493f565b5060c0820151805161108e9160ec9160209091019061493f565b5060e082015180516110a89160ed9160209091019061493f565b5061010082015180516110c39160f59160209091019061493f565b5061012082015180516110de9160f69160209091019061493f565b5061014082015180516110f99160f79160209091019061493f565b5061115d60e580548060200260200160405190810160405280929190818152602001828054801561115357602002820191906000526020600020905b81546001600160a01b03168152600190910190602001808311611135575b505050505061309f565b80516111719160e79160209091019061493f565b50610180820151805160ee80546001600160a01b03199081166001600160a01b0393841617909155604083015160f080548316918416919091179055608083015160f18054831691841691909117905560609092015160f2805490931691161790556111dc836120c7565b80156111ee576000805461ff00191690555b505050565b60f78181548110610d1e57600080fd5b6033546001600160a01b0316331461122d5760405162461bcd60e51b8152600401610ce39061514e565b60ca55565b6033546001600160a01b0316331461125c5760405162461bcd60e51b8152600401610ce39061514e565b60d580546001600160a01b0319166001600160a01b0392909216919091179055565b600260655414156112a15760405162461bcd60e51b8152600401610ce3906151ef565b60026065556112ae613173565b6001606555565b60cb546001600160a01b031633146112df5760405162461bcd60e51b8152600401610ce390615183565b6112e761327c565b565b6033546001600160a01b031633146113135760405162461bcd60e51b8152600401610ce39061514e565b60d680546001600160a01b0319166001600160a01b0392909216919091179055565b6033546001600160a01b0316331461135f5760405162461bcd60e51b8152600401610ce39061514e565b60d480546001600160a01b0319166001600160a01b0392909216919091179055565b60e88181548110610d1e57600080fd5b6033546001600160a01b031633146113bb5760405162461bcd60e51b8152600401610ce39061514e565b60ce80546001600160a01b0319166001600160a01b0392909216919091179055565b6033546001600160a01b031633146114075760405162461bcd60e51b8152600401610ce39061514e565b60d980546001600160a01b0319166001600160a01b0392909216919091179055565b6033546001600160a01b031633146114535760405162461bcd60e51b8152600401610ce39061514e565b60d080546001600160a01b0319166001600160a01b0392909216919091179055565b6033546001600160a01b0316331461149f5760405162461bcd60e51b8152600401610ce39061514e565b60da80546001600160a01b0319166001600160a01b0392909216919091179055565b60eb8181548110610d1e57600080fd5b60cc546000906001600160a01b0316336001600160a01b0316146115075760405162461bcd60e51b8152600401610ce390615226565b60975460ff161561152a5760405162461bcd60e51b8152600401610ce390615250565b600083116115715760405162461bcd60e51b8152602060048201526014602482015273057616e7420616d74206d757374206265203e20360641b6044820152606401610ce3565b60d054611589906001600160a01b031633308661330f565b60d45460d05460405163f3fef3a360e01b81526001600160a01b0391821660048201526024810186905291169063f3fef3a390604401600060405180830381600087803b1580156115d957600080fd5b505af11580156115ed573d6000803e3d6000fd5b505060ee546000925061160991506001600160a01b031661337a565b60d1546040516370a0823160e01b81523060048201529192506000916001600160a01b03909116906370a0823190602401602060405180830381865afa158015611657573d6000803e3d6000fd5b505050506040513d601f19601f8201168201806040525081019061167b919061527a565b60d95460d15491925061169b916001600160a01b039081169116836134ba565b6040805161014081018252828152602080820185905264e8d4a510008284015260d1546001600160a01b03908116606084015260d554166080830152600060a0830181905260c083015260e0820187905260e7805484518184028101840190955280855261175a946101008501939092919083018282801561174657602002820191906000526020600020905b81546001600160a01b03168152600190910190602001808311611728575b50505091835250503360209091015261356c565b60d5546040516370a0823160e01b81523060048201526001600160a01b03909116906370a0823190602401602060405180830381865afa1580156117a2573d6000803e3d6000fd5b505050506040513d601f19601f820116820180604052508101906117c6919061527a565b925050505b92915050565b60cb546001600160a01b031633146117fb5760405162461bcd60e51b8152600401610ce390615183565b60d3546001600160a01b03848116911614156118415760405162461bcd60e51b8152602060048201526005602482015264217361666560d81b6044820152606401610ce3565b60d0546001600160a01b03848116911614156118875760405162461bcd60e51b8152602060048201526005602482015264217361666560d81b6044820152606401610ce3565b6111ee6001600160a01b0384168284613654565b6033546001600160a01b031633146118c55760405162461bcd60e51b8152600401610ce39061514e565b60cf80546001600160a01b0319166001600160a01b0392909216919091179055565b6033546001600160a01b031633146119115760405162461bcd60e51b8152600401610ce39061514e565b6112e76000613684565b60cb546001600160a01b031633146119455760405162461bcd60e51b8152600401610ce390615183565b6123288510156119975760405162461bcd60e51b815260206004820152601a60248201527f5f656e7472616e6365466565466163746f7220746f6f206c6f770000000000006044820152606401610ce3565b6127108511156119e95760405162461bcd60e51b815260206004820152601b60248201527f5f656e7472616e6365466565466163746f7220746f6f206869676800000000006044820152606401610ce3565b60df859055612328841015611a405760405162461bcd60e51b815260206004820152601a60248201527f5f7769746864726177466565466163746f7220746f6f206c6f770000000000006044820152606401610ce3565b612710841115611a925760405162461bcd60e51b815260206004820152601b60248201527f5f7769746864726177466565466163746f7220746f6f206869676800000000006044820152606401610ce3565b60e08490556103e8831115611ae95760405162461bcd60e51b815260206004820152601760248201527f5f636f6e74726f6c6c657246656520746f6f20686967680000000000000000006044820152606401610ce3565b60dc8390556103e8821115611b385760405162461bcd60e51b81526020600482015260156024820152740bec4eaf284c2c6d6a4c2e8ca40e8dede40d0d2ced605b1b6044820152606401610ce3565b60dd8290556103e8811115611b885760405162461bcd60e51b81526020600482015260166024820152750bee4caeca6d0c2e4caa4c2e8ca40e8dede40d0d2ced60531b6044820152606401610ce3565b60de819055604080518681526020810186905290810184905260608101839052608081018290527fc67e0b149a57a70fa44a531a46c2c6d8e0b242fa12f459f250012c3a5987d29a9060a00160405180910390a15050505050565b6033546001600160a01b03163314611c0d5760405162461bcd60e51b8152600401610ce39061514e565b60f980546001600160a01b0319166001600160a01b0392909216919091179055565b60cb546001600160a01b03163314611c595760405162461bcd60e51b8152600401610ce390615183565b6112e76136d6565b6033546001600160a01b03163314611c8b5760405162461bcd60e51b8152600401610ce39061514e565b60f39190915560f455565b6033546001600160a01b03163314611cc05760405162461bcd60e51b8152600401610ce39061514e565b60ff8316611cda57611cd460f583836149a4565b50505050565b8260ff1660011415611cf257611cd460f683836149a4565b8260ff1660021415611d0a57611cd460f783836149a4565b60405162461bcd60e51b815260206004820152601960248201527f756e737570706f727465642069647820737761702070617468000000000000006044820152606401610ce3565b6033546001600160a01b03163314611d7c5760405162461bcd60e51b8152600401610ce39061514e565b60d780546001600160a01b0319166001600160a01b0392909216919091179055565b6033546001600160a01b03163314611dc85760405162461bcd60e51b8152600401610ce39061514e565b60db80546001600160a01b0319166001600160a01b0392909216919091179055565b60ea8181548110610d1e57600080fd5b6033546001600160a01b03163314611e245760405162461bcd60e51b8152600401610ce39061514e565b60f880546001600160a01b0319166001600160a01b0392909216919091179055565b60ed8181548110610d1e57600080fd5b6033546001600160a01b03163314611e805760405162461bcd60e51b8152600401610ce39061514e565b60fa55565b6033546001600160a01b03163314611eaf5760405162461bcd60e51b8152600401610ce39061514e565b60d380546001600160a01b0319166001600160a01b0392909216919091179055565b60e58181548110610d1e57600080fd5b60cc546000906001600160a01b0316336001600160a01b031614611f175760405162461bcd60e51b8152600401610ce390615226565b60026065541415611f3a5760405162461bcd60e51b8152600401610ce3906151ef565b600260655560975460ff1615611f625760405162461bcd60e51b8152600401610ce390615250565b60008211611fb25760405162461bcd60e51b815260206004820152601e60248201527f57616e7420746f6b656e206465706f736974206d757374206265203e203000006044820152606401610ce3565b60d054611fca906001600160a01b031633308561330f565b819050600060e254118015611fe15750600060e354115b1561201c5761201961271061201360e25461201360df5461200d60e3548961372e90919063ffffffff16565b9061372e565b90613741565b90505b60e354612029908261374d565b60e3556001600160a01b038316600090815260e4602052604090205461204f908261374d565b6001600160a01b038416600090815260e46020526040902055612070613173565b600160655592915050565b6033546001600160a01b031633146120a55760405162461bcd60e51b8152600401610ce39061514e565b60cc80546001600160a01b0319166001600160a01b0392909216919091179055565b600054610100900460ff166120e25760005460ff16156120e6565b303b155b6121025760405162461bcd60e51b8152600401610ce3906151a1565b600054610100900460ff16158015612124576000805461ffff19166101011790555b61212c613759565b61213582612ef6565b60d680546001600160a01b03191661dead179055801561215b576000805461ff00191690555b5050565b60e68181548110610d1e57600080fd5b60e78181548110610d1e57600080fd5b6033546001600160a01b031633146121a95760405162461bcd60e51b8152600401610ce39061514e565b60d180546001600160a01b0319166001600160a01b0392909216919091179055565b60e98181548110610d1e57600080fd5b60cb546001600160a01b031633146122055760405162461bcd60e51b8152600401610ce390615183565b60cb80546001600160a01b0319166001600160a01b0383169081179091556040519081527f91a8c1cc2d4a3bb60738481947a00cbb9899c822916694cf8bb1d68172fdcd5490602001610daf565b60f68181548110610d1e57600080fd5b6033546001600160a01b0316331461228d5760405162461bcd60e51b8152600401610ce39061514e565b60ff82166122b65760ee80546001600160a01b0383166001600160a01b03199091161790555050565b8160ff16600114156122e35760ef80546001600160a01b0383166001600160a01b03199091161790555050565b8160ff16600214156123105760f080546001600160a01b0383166001600160a01b03199091161790555050565b8160ff166003141561233d5760f280546001600160a01b0383166001600160a01b03199091161790555050565b8160ff166004141561236a5760f180546001600160a01b0383166001600160a01b03199091161790555050565b60405162461bcd60e51b81526020600482015260146024820152730eadce6eae0e0dee4e8cac840cccacac840d2c8f60631b6044820152606401610ce3565b60cc546000906001600160a01b0316336001600160a01b0316146123df5760405162461bcd60e51b8152600401610ce390615226565b600260655414156124025760405162461bcd60e51b8152600401610ce3906151ef565b600260655560975460ff161561242a5760405162461bcd60e51b8152600401610ce390615250565b6000821161246a5760405162461bcd60e51b815260206004820152600d60248201526c077616e7420616d74203c3d203609c1b6044820152606401610ce3565b600061248760e25461201360e3548661372e90919063ffffffff16565b905060e354811115612498575060e3545b60e3546124a59082613788565b60e3556001600160a01b038416600090815260e460205260409020546124cb9082613788565b6001600160a01b038516600090815260e4602052604090205560e054612710111561250e5761250b61271061201360e0548661372e90919063ffffffff16565b92505b61251783613794565b60d0546040516370a0823160e01b81523060048201526000916001600160a01b0316906370a0823190602401602060405180830381865afa158015612560573d6000803e3d6000fd5b505050506040513d601f19601f82011682018060405250810190612584919061527a565b905080841115612592578093505b8360e25410156125a25760e25493505b60e2546125af9085613788565b60e25560cc5460d0546125cf916001600160a01b03918216911686613654565b5060016065559392505050565b60cc546000906001600160a01b0316336001600160a01b0316146126125760405162461bcd60e51b8152600401610ce390615226565b60975460ff16156126355760405162461bcd60e51b8152600401610ce390615250565b60d5546040516370a0823160e01b81523060048201526000916001600160a01b0316906370a0823190602401602060405180830381865afa15801561267e573d6000803e3d6000fd5b505050506040513d601f19601f820116820180604052508101906126a2919061527a565b9050600084116126f45760405162461bcd60e51b815260206004820152601860248201527f55534443206465706f736974206d757374206265203e203000000000000000006044820152606401610ce3565b808411156127445760405162461bcd60e51b815260206004820152601960248201527f5553444320646573697265642065786365656465642062616c000000000000006044820152606401610ce3565b60ee5460009061275c906001600160a01b031661337a565b60d95460d55491925061277c916001600160a01b039081169116876134ba565b604080516101408101825286815264e8d4a5100060208083019190915281830184905260d5546001600160a01b03908116606084015260d154166080830152600060a0830181905260c083015260e0820187905260e5805484518184028101840190955280855261283e946101008501939092919083018282801561282a57602002820191906000526020600020905b81546001600160a01b0316815260019091019060200180831161280c575b50505091835250503060209091015261356c565b60d1546040516370a0823160e01b81523060048201526000916001600160a01b0316906370a0823190602401602060405180830381865afa158015612887573d6000803e3d6000fd5b505050506040513d601f19601f820116820180604052508101906128ab919061527a565b60d85460405163b6b55f2560e01b8152600481018390529192506001600160a01b03169063b6b55f2590602401600060405180830381600087803b1580156128f257600080fd5b505af1158015612906573d6000803e3d6000fd5b505060d0546040516370a0823160e01b8152306004820152600093506001600160a01b0390911691506370a0823190602401602060405180830381865afa158015612955573d6000803e3d6000fd5b505050506040513d601f19601f82011682018060405250810190612979919061527a565b60cc5460d054919250612999916001600160a01b03908116911683613654565b9695505050505050565b600260655414156129c65760405162461bcd60e51b8152600401610ce3906151ef565b600260655560975460ff16156129ee5760405162461bcd60e51b8152600401610ce390615250565b60cb54600160a01b900460ff1615612a2a5760cb546001600160a01b03163314612a2a5760405162461bcd60e51b8152600401610ce390615183565b612a346000613794565b60d3546040516370a0823160e01b81523060048201526000916001600160a01b0316906370a0823190602401602060405180830381865afa158015612a7d573d6000803e3d6000fd5b505050506040513d601f19601f82011682018060405250810190612aa1919061527a565b60f054909150600090612abc906001600160a01b031661337a565b60ee54909150600090612ad7906001600160a01b031661337a565b60f254909150600090612af2906001600160a01b031661337a565b60f254909150600090612b0d906001600160a01b031661337a565b60408051606081018252868152602081018590529081018290529091506000612b35876137cf565b9050600080612b45898b8661381f565b90925090506000612b6282612b5c85818e89613788565b90613788565b604080516101408101825282815260208082018d905264e8d4a510008284015260d3546001600160a01b03908116606084015260f85416608083015260f35460a083015260f45460c083015260e082018f905260e98054845181840281018401909552808552949550612c24949293610100850193909283018282801561282a576020028201919060005260206000209081546001600160a01b0316815260019091019060200180831161280c5750505091835250503060209091015261356c565b60f8546040516370a0823160e01b81523060048201526000916001600160a01b0316906370a0823190602401602060405180830381865afa158015612c6d573d6000803e3d6000fd5b505050506040513d601f19601f82011682018060405250810190612c91919061527a565b60d95460f854919250612cb1916001600160a01b039081169116836134ba565b604080516101408101825282815264e8d4a510006020808301919091528183018c905260f8546001600160a01b03908116606084015260d154166080830152600060a0830181905260c083015260e082018f905260f58054845181840281018401909552808552612d71946101008501939092919083018282801561282a576020028201919060005260206000209081546001600160a01b0316815260019091019060200180831161280c5750505091835250503060209091015261356c565b60d1546040516370a0823160e01b81523060048201526000916001600160a01b0316906370a0823190602401602060405180830381865afa158015612dba573d6000803e3d6000fd5b505050506040513d601f19601f82011682018060405250810190612dde919061527a565b60d85460405163b6b55f2560e01b8152600481018390529192506001600160a01b03169063b6b55f2590602401600060405180830381600087803b158015612e2557600080fd5b505af1158015612e39573d6000803e3d6000fd5b50504360e15550612e4a9050613173565b505060016065555050505050505050505050565b6033546001600160a01b03163314612e885760405162461bcd60e51b8152600401610ce39061514e565b60d880546001600160a01b0319166001600160a01b0392909216919091179055565b6033546001600160a01b03163314612ed45760405162461bcd60e51b8152600401610ce39061514e565b60fb80546001600160a01b0319166001600160a01b0392909216919091179055565b6033546001600160a01b03163314612f205760405162461bcd60e51b8152600401610ce39061514e565b6001600160a01b038116612f855760405162461bcd60e51b815260206004820152602660248201527f4f776e61626c653a206e6577206f776e657220697320746865207a65726f206160448201526564647265737360d01b6064820152608401610ce3565b612f8e81613684565b50565b60ec8181548110610d1e57600080fd5b6033546001600160a01b03163314612fcb5760405162461bcd60e51b8152600401610ce39061514e565b60ff8316612fdf57611cd460e583836149a4565b8260ff1660011415612ff757611cd460e683836149a4565b8260ff166002141561300f57611cd460e783836149a4565b8260ff166003141561302757611cd460e883836149a4565b8260ff166004141561303f57611cd460e983836149a4565b8260ff166005141561305757611cd460ea83836149a4565b8260ff166006141561306f57611cd460eb83836149a4565b8260ff166007141561308757611cd460ec83836149a4565b8260ff166008141561236a57611cd460ed83836149a4565b80516060908067ffffffffffffffff8111156130bd576130bd614a98565b6040519080825280602002602001820160405280156130e6578160200160208202803683370190505b50915060005b818161ffff16101561316c57836131168261ffff16612b5c6001885161378890919063ffffffff16565b8151811061312657613126615293565b6020026020010151838261ffff168151811061314457613144615293565b6001600160a01b0390921660209283029190910190910152613165816152bf565b90506130ec565b5050919050565b60d0546040516370a0823160e01b81523060048201526000916001600160a01b0316906370a0823190602401602060405180830381865afa1580156131bc573d6000803e3d6000fd5b505050506040513d601f19601f820116820180604052508101906131e0919061527a565b60e2549091506131f0908261374d565b60e25560d45460d054613210916001600160a01b039182169116836134ba565b60d45460d0546040516311f9fbc960e21b81526001600160a01b039182166004820152602481018490529116906347e7ef24906044015b600060405180830381600087803b15801561326157600080fd5b505af1158015613275573d6000803e3d6000fd5b5050505050565b60975460ff166132c55760405162461bcd60e51b815260206004820152601460248201527314185d5cd8589b194e881b9bdd081c185d5cd95960621b6044820152606401610ce3565b6097805460ff191690557f5db9ee0a495bf2e6ff9c91a7834c1ba4fdd244a5e8aa4e537bd38aeae4b073aa335b6040516001600160a01b03909116815260200160405180910390a1565b6040516001600160a01b0380851660248301528316604482015260648101829052611cd49085906323b872dd60e01b906084015b60408051601f198184030181529190526020810180516001600160e01b03166001600160e01b031990931692909217909152613937565b600080826001600160a01b031663313ce5676040518163ffffffff1660e01b8152600401602060405180830381865afa1580156133bb573d6000803e3d6000fd5b505050506040513d601f19601f820116820180604052508101906133df91906152e1565b90506000836001600160a01b031663feaf968c6040518163ffffffff1660e01b815260040160a060405180830381865afa158015613421573d6000803e3d6000fd5b505050506040513d601f19601f820116820180604052508101906134459190615318565b50505091505060008112156134955760405162461bcd60e51b81526020600482015260166024820152751b9959c81c1c9a58d95cc81b9bdd08185b1b1bddd95960521b6044820152606401610ce3565b6134b26134a383600a61544c565b6120138364e8d4a5100061372e565b949350505050565b604051636eb1769f60e11b81523060048201526001600160a01b038381166024830152600091839186169063dd62ed3e90604401602060405180830381865afa15801561350b573d6000803e3d6000fd5b505050506040513d601f19601f8201168201806040525081019061352f919061527a565b613539919061545b565b6040516001600160a01b038516602482015260448101829052909150611cd490859063095ea7b360e01b90606401613343565b60f95460608201516001600160a01b039081169116148061359f575060f95460808201516001600160a01b039081169116145b156135e25760fb54815160608301516135c6926001600160a01b03918216929116906134ba565b60fa5460fb54612f8e916001600160a01b039091169083613a09565b60d95481516060830151613604926001600160a01b03918216929116906134ba565b612f8e8160000151826020015183604001518460e0015185610100015186610120015161363c6102584261374d90919063ffffffff16565b60d9546001600160a01b031696959493929190613bbe565b6040516001600160a01b0383166024820152604481018290526111ee90849063a9059cbb60e01b90606401613343565b603380546001600160a01b038381166001600160a01b0319831681179093556040519116919082907f8be0079c531659141344cd1fd0a4f28419497f9722a3daafe3b4186f6b6457e090600090a35050565b60975460ff16156136f95760405162461bcd60e51b8152600401610ce390615250565b6097805460ff191660011790557f62e78cea01bee320cd4e420270b5ea74000d11b0c9f74754ebdbfc544b05a2586132f23390565b600061373a8284615473565b9392505050565b600061373a8284615492565b600061373a828461545b565b600054610100900460ff166137805760405162461bcd60e51b8152600401610ce3906154b4565b6112e7613d27565b600061373a82846154ff565b60d45460d05460405163f3fef3a360e01b81526001600160a01b0391821660048201526024810184905291169063f3fef3a390604401613247565b6000811561381a5760dc541561381a576137fa61271061201360dc548561372e90919063ffffffff16565b60d75460d35491925061381a916001600160a01b03908116911683613654565b919050565b600080600060dd54111561384b5761384861271061201360dd548861372e90919063ffffffff16565b91505b60de54156138715761386e61271061201360de548861372e90919063ffffffff16565b90505b60c95460ff161561389757613887828585613d57565b613892818585614254565b61392f565b6138b76138a4838361374d565b60cc546001600160a01b03168686614441565b60cd5460ca5460405163464e3c8b60e01b815260048101919091526024810184905260448101839052606481018690526001600160a01b039091169063464e3c8b90608401600060405180830381600087803b15801561391657600080fd5b505af115801561392a573d6000803e3d6000fd5b505050505b935093915050565b600061398c826040518060400160405280602081526020017f5361666545524332303a206c6f772d6c6576656c2063616c6c206661696c6564815250856001600160a01b03166146879092919063ffffffff16565b8051909150156111ee57808060200190518101906139aa9190615516565b6111ee5760405162461bcd60e51b815260206004820152602a60248201527f5361666545524332303a204552433230206f7065726174696f6e20646964206e6044820152691bdd081cdd58d8d9595960b21b6064820152608401610ce3565b6000816020015160001480613a2057506040820151155b15613a5957613a526103e86120138460e0015161200d64e8d4a51000612013613a4a8b8b8b614696565b89519061372e565b9050613a8d565b613a8a6103e86120138460e0015161200d86604001516120138860200151896000015161372e90919063ffffffff16565b90505b836001600160a01b03166352bbbe296040518060c0016040528086815260200160006001811115613ac057613ac0615533565b815260200185606001516001600160a01b0316815260200185608001516001600160a01b0316815260200185600001518152602001604051806020016040528060008152508152506040518060800160405280306001600160a01b031681526020016000151581526020018661012001516001600160a01b031681526020016000151581525084613b5c6102584261374d90919063ffffffff16565b6040518563ffffffff1660e01b8152600401613b7b94939291906155a1565b6020604051808303816000875af1158015613b9a573d6000803e3d6000fd5b505050506040513d601f19601f82011682018060405250810190613275919061527a565b6000861580613bcb575085155b15613c965760405163d06ca61f60e01b81526000906001600160a01b038b169063d06ca61f90613c01908c9089906004016156c3565b600060405180830381865afa158015613c1e573d6000803e3d6000fd5b505050506040513d6000823e601f3d908101601f19168201604052613c4691908101906156dc565b9050613c8e6103e86120138884613c686001875161378890919063ffffffff16565b81518110613c7857613c78615293565b602002602001015161372e90919063ffffffff16565b915050613cb6565b613cb3613ca5876103e861372e565b6120138761200d8c8c61372e565b90505b604051635c11d79560e01b81526001600160a01b038a1690635c11d79590613cea908b908590899089908990600401615762565b600060405180830381600087803b158015613d0457600080fd5b505af1158015613d18573d6000803e3d6000fd5b50505050505050505050505050565b600054610100900460ff16613d4e5760405162461bcd60e51b8152600401610ce3906154b4565b6112e733613684565b60d95460d354613d74916001600160a01b039182169116856134ba565b60408051610140810182528481528251602082015264e8d4a510009181019190915260d3546001600160a01b0390811660608381019190915260f854909116608083015260f35460a083015260f45460c083015260e0820184905261010082018190523061012083015290613de89061356c565b60f8546040516370a0823160e01b81523060048201526000916001600160a01b0316906370a0823190602401602060405180830381865afa158015613e31573d6000803e3d6000fd5b505050506040513d601f19601f82011682018060405250810190613e55919061527a565b60d95460f854919250613e75916001600160a01b039081169116836134ba565b613f51604051806101400160405280613e9860028561374190919063ffffffff16565b815264e8d4a510006020808301919091528681015160408084019190915260f8546001600160a01b03908116606085015260ce54166080840152600060a0840181905260c084015260e0830189905260f6805482518185028101850190935280835261010090940193919290919083018282801561282a576020028201919060005260206000209081546001600160a01b0316815260019091019060200180831161280c5750505091835250503060209091015261356c565b61402a604051806101400160405280613f7460028561374190919063ffffffff16565b815264e8d4a510006020808301919091526040878101518184015260f8546001600160a01b03908116606085015260db54166080840152600060a0840181905260c084015260e0830189905260f7805482518185028101850190935280835261010090940193919290919083018282801561282a576020028201919060005260206000209081546001600160a01b0316815260019091019060200180831161280c5750505091835250503060209091015261356c565b60ce546040516370a0823160e01b81523060048201526000916001600160a01b0316906370a0823190602401602060405180830381865afa158015614073573d6000803e3d6000fd5b505050506040513d601f19601f82011682018060405250810190614097919061527a565b60db546040516370a0823160e01b81523060048201529192506000916001600160a01b03909116906370a0823190602401602060405180830381865afa1580156140e5573d6000803e3d6000fd5b505050506040513d601f19601f82011682018060405250810190614109919061527a565b60d95460ce54919250614129916001600160a01b039081169116846134ba565b60d95460db54614146916001600160a01b039182169116836134ba565b60d95460ce5460db546001600160a01b039283169263e8e33700928116911685856141776103e8612013848f61372e565b6141906103e86120138f8b61372e90919063ffffffff16565b60d6546001600160a01b03166141a84261025861374d565b60405160e08a901b6001600160e01b03191681526001600160a01b039889166004820152968816602488015260448701959095526064860193909352608485019190915260a484015290921660c482015260e4810191909152610104016060604051808303816000875af1158015614224573d6000803e3d6000fd5b505050506040513d601f19601f82011682018060405250810190614248919061579e565b50505050505050505050565b60d95460d354614271916001600160a01b039182169116856134ba565b60408051610140810182528481528251602082015264e8d4a510009181019190915260d3546001600160a01b0390811660608381019190915260f854909116608083015260f35460a083015260f45460c083015260e08201849052610100820181905230610120830152906142e59061356c565b60d5546040516370a0823160e01b81523060048201526000916001600160a01b0316906370a0823190602401602060405180830381865afa15801561432e573d6000803e3d6000fd5b505050506040513d601f19601f82011682018060405250810190614352919061527a565b60d95460d554919250614372916001600160a01b039081169116836134ba565b604080516101408101825282815264e8d4a51000602080830191909152858101518284015260d5546001600160a01b03908116606084015260ce54166080830152600060a0830181905260c083015260e0820187905260f68054845181840281018401909552808552613275946101008501939092919083018282801561442257602002820191906000526020600020905b81546001600160a01b03168152600190910190602001808311614404575b505050918352505060cf546001600160a01b031660209091015261356c565b6040805161014081018252858152825160208083019190915264e8d4a510008284015260d3546001600160a01b03908116606084015260f85416608083015260f35460a083015260f45460c083015260e0820185905260ed8054845181840281018401909552808552614503946101008501939092919083018282801561282a576020028201919060005260206000209081546001600160a01b0316815260019091019060200180831161280c5750505091835250503060209091015261356c565b60f8546040516370a0823160e01b81523060048201526000916001600160a01b0316906370a0823190602401602060405180830381865afa15801561454c573d6000803e3d6000fd5b505050506040513d601f19601f82011682018060405250810190614570919061527a565b6040805160028082526060820183529293506000929091602083019080368337505060f85482519293506001600160a01b0316918391506000906145b6576145b6615293565b6001600160a01b03928316602091820292909201015260d5548251911690829060019081106145e7576145e7615293565b6001600160a01b03928316602091820292909201015260d95460f854614612929081169116846134ba565b604080516101408101825283815264e8d4a51000602082018190529181019190915260f8546001600160a01b03908116606083015260d55481166080830152600060a0830181905260c083015260e082018690526101008201839052861661012082015261467f9061356c565b505050505050565b60606134b284846000856147d5565b608081015160405163160bf1c960e31b8152600481018490526001600160a01b03918216602482015260009182919086169063b05f8e48906044016080604051808303816000875af11580156146f0573d6000803e3d6000fd5b505050506040513d601f19601f8201168201806040525081019061471491906157cc565b505050606084015160405163160bf1c960e31b8152600481018790526001600160a01b0391821660248201529192506000919087169063b05f8e48906044016080604051808303816000875af1158015614772573d6000803e3d6000fd5b505050506040513d601f19601f8201168201806040525081019061479691906157cc565b50505090506129996147b58560c001518361372e90919063ffffffff16565b61201364e8d4a5100061200d8860a001518761372e90919063ffffffff16565b6060824710156148365760405162461bcd60e51b815260206004820152602660248201527f416464726573733a20696e73756666696369656e742062616c616e636520666f6044820152651c8818d85b1b60d21b6064820152608401610ce3565b6001600160a01b0385163b61488d5760405162461bcd60e51b815260206004820152601d60248201527f416464726573733a2063616c6c20746f206e6f6e2d636f6e74726163740000006044820152606401610ce3565b600080866001600160a01b031685876040516148a9919061580d565b60006040518083038185875af1925050503d80600081146148e6576040519150601f19603f3d011682016040523d82523d6000602084013e6148eb565b606091505b50915091506148fb828286614906565b979650505050505050565b6060831561491557508161373a565b8251156149255782518084602001fd5b8160405162461bcd60e51b8152600401610ce39190615829565b828054828255906000526020600020908101928215614994579160200282015b8281111561499457825182546001600160a01b0319166001600160a01b0390911617825560209092019160019091019061495f565b506149a09291506149f7565b5090565b828054828255906000526020600020908101928215614994579160200282015b828111156149945781546001600160a01b0319166001600160a01b038435161782556020909201916001909101906149c4565b5b808211156149a057600081556001016149f8565b6001600160a01b0381168114612f8e57600080fd5b803561381a81614a0c565b600060208284031215614a3e57600080fd5b813561373a81614a0c565b600060208284031215614a5b57600080fd5b5035919050565b8015158114612f8e57600080fd5b803561381a81614a62565b600060208284031215614a8d57600080fd5b813561373a81614a62565b634e487b7160e01b600052604160045260246000fd5b6040516101e0810167ffffffffffffffff81118282101715614ad257614ad2614a98565b60405290565b60405160a0810167ffffffffffffffff81118282101715614ad257614ad2614a98565b6040516101a0810167ffffffffffffffff81118282101715614ad257614ad2614a98565b604051601f8201601f1916810167ffffffffffffffff81118282101715614b4857614b48614a98565b604052919050565b60006101e08284031215614b6357600080fd5b614b6b614aae565b9050614b7682614a21565b8152614b8460208301614a21565b6020820152614b9560408301614a21565b6040820152614ba660608301614a21565b6060820152614bb760808301614a21565b6080820152614bc860a08301614a21565b60a0820152614bd960c08301614a21565b60c0820152614bea60e08301614a21565b60e0820152610100614bfd818401614a21565b90820152610120614c0f838201614a21565b90820152610140614c21838201614a21565b90820152610160614c33838201614a21565b90820152610180614c45838201614a21565b908201526101a0614c57838201614a21565b908201526101c0614c69838201614a21565b9082015292915050565b600067ffffffffffffffff821115614c8d57614c8d614a98565b5060051b60200190565b600082601f830112614ca857600080fd5b81356020614cbd614cb883614c73565b614b1f565b82815260059290921b84018101918181019086841115614cdc57600080fd5b8286015b84811015614d00578035614cf381614a0c565b8352918301918301614ce0565b509695505050505050565b600060a08284031215614d1d57600080fd5b614d25614ad8565b9050813581526020820135602082015260408201356040820152606082013560608201526080820135608082015292915050565b600060a08284031215614d6b57600080fd5b614d73614ad8565b90508135614d8081614a0c565b81526020820135614d9081614a0c565b60208201526040820135614da381614a0c565b60408201526060820135614db681614a0c565b60608201526080820135614dc981614a0c565b608082015292915050565b60008060408385031215614de757600080fd5b8235614df281614a0c565b9150602083013567ffffffffffffffff80821115614e0f57600080fd5b908401906104608287031215614e2457600080fd5b614e2c614afb565b82358152614e3c60208401614a70565b6020820152614e4e8760408501614b50565b604082015261022083013582811115614e6657600080fd5b614e7288828601614c97565b60608301525061024083013582811115614e8b57600080fd5b614e9788828601614c97565b60808301525061026083013582811115614eb057600080fd5b614ebc88828601614c97565b60a08301525061028083013582811115614ed557600080fd5b614ee188828601614c97565b60c0830152506102a083013582811115614efa57600080fd5b614f0688828601614c97565b60e0830152506102c083013582811115614f1f57600080fd5b614f2b88828601614c97565b610100830152506102e083013582811115614f4557600080fd5b614f5188828601614c97565b6101208301525061030083013582811115614f6b57600080fd5b614f7788828601614c97565b61014083015250614f8c876103208501614d0b565b610160820152614fa0876103c08501614d59565b6101808201528093505050509250929050565b60008060408385031215614fc657600080fd5b50508035926020909101359150565b600080600060608486031215614fea57600080fd5b8335614ff581614a0c565b925060208401359150604084013561500c81614a0c565b809150509250925092565b600080600080600060a0868803121561502f57600080fd5b505083359560208501359550604085013594606081013594506080013592509050565b60ff81168114612f8e57600080fd5b60008060006040848603121561507657600080fd5b833561508181615052565b9250602084013567ffffffffffffffff8082111561509e57600080fd5b818601915086601f8301126150b257600080fd5b8135818111156150c157600080fd5b8760208260051b85010111156150d657600080fd5b6020830194508093505050509250925092565b600080604083850312156150fc57600080fd5b823561510781614a0c565b946020939093013593505050565b6000806040838503121561512857600080fd5b823561513381615052565b9150602083013561514381614a0c565b809150509250929050565b6020808252818101527f4f776e61626c653a2063616c6c6572206973206e6f7420746865206f776e6572604082015260600190565b60208082526004908201526310b3b7bb60e11b604082015260600190565b6020808252602e908201527f496e697469616c697a61626c653a20636f6e747261637420697320616c72656160408201526d191e481a5b9a5d1a585b1a5e995960921b606082015260800190565b6020808252601f908201527f5265656e7472616e637947756172643a207265656e7472616e742063616c6c00604082015260600190565b60208082526010908201526f10bd37b93937a1b7b73a3937b63632b960811b604082015260600190565b60208082526010908201526f14185d5cd8589b194e881c185d5cd95960821b604082015260600190565b60006020828403121561528c57600080fd5b5051919050565b634e487b7160e01b600052603260045260246000fd5b634e487b7160e01b600052601160045260246000fd5b600061ffff808316818114156152d7576152d76152a9565b6001019392505050565b6000602082840312156152f357600080fd5b815161373a81615052565b805169ffffffffffffffffffff8116811461381a57600080fd5b600080600080600060a0868803121561533057600080fd5b615339866152fe565b945060208601519350604086015192506060860151915061535c608087016152fe565b90509295509295909350565b600181815b808511156153a3578160001904821115615389576153896152a9565b8085161561539657918102915b93841c939080029061536d565b509250929050565b6000826153ba575060016117cb565b816153c7575060006117cb565b81600181146153dd57600281146153e757615403565b60019150506117cb565b60ff8411156153f8576153f86152a9565b50506001821b6117cb565b5060208310610133831016604e8410600b8410161715615426575081810a6117cb565b6154308383615368565b8060001904821115615444576154446152a9565b029392505050565b600061373a60ff8416836153ab565b6000821982111561546e5761546e6152a9565b500190565b600081600019048311821515161561548d5761548d6152a9565b500290565b6000826154af57634e487b7160e01b600052601260045260246000fd5b500490565b6020808252602b908201527f496e697469616c697a61626c653a20636f6e7472616374206973206e6f74206960408201526a6e697469616c697a696e6760a81b606082015260800190565b600082821015615511576155116152a9565b500390565b60006020828403121561552857600080fd5b815161373a81614a62565b634e487b7160e01b600052602160045260246000fd5b60005b8381101561556457818101518382015260200161554c565b83811115611cd45750506000910152565b6000815180845261558d816020860160208601615549565b601f01601f19169290920160200192915050565b60e08152845160e082015260006020860151600281106155d157634e487b7160e01b600052602160045260246000fd5b61010083015260408601516001600160a01b031661012083015260608601516156066101408401826001600160a01b03169052565b50608086015161016083015260a086015160c061018084015261562d6101a0840182615575565b91505061566d602083018680516001600160a01b039081168352602080830151151590840152604080830151909116908301526060908101511515910152565b60a082019390935260c0015292915050565b600081518084526020808501945080840160005b838110156156b85781516001600160a01b031687529582019590820190600101615693565b509495945050505050565b8281526040602082015260006134b2604083018461567f565b600060208083850312156156ef57600080fd5b825167ffffffffffffffff81111561570657600080fd5b8301601f8101851361571757600080fd5b8051615725614cb882614c73565b81815260059190911b8201830190838101908783111561574457600080fd5b928401925b828410156148fb57835182529284019290840190615749565b85815284602082015260a06040820152600061578160a083018661567f565b6001600160a01b0394909416606083015250608001529392505050565b6000806000606084860312156157b357600080fd5b8351925060208401519150604084015190509250925092565b600080600080608085870312156157e257600080fd5b845193506020850151925060408501519150606085015161580281614a0c565b939692955090935050565b6000825161581f818460208701615549565b9190910192915050565b60208152600061373a602083018461557556fea2646970667358221220f560e84a1c383c8db3e34ef0682894374072d3e4d95a2f08dc7fbfa82471c50764736f6c634300080a0033",
  "immutableReferences": {},
  "source": "// SPDX-License-Identifier: MIT\n\npragma solidity ^0.8.0;\n\nimport \"@openzeppelin/contracts-upgradeable/token/ERC20/utils/SafeERC20Upgradeable.sol\";\n\nimport \"../interfaces/IAMMFarm.sol\";\n\nimport \"../interfaces/IAcryptosFarm.sol\";\n\nimport \"../interfaces/IAcryptosVault.sol\";\n\nimport \"@openzeppelin/contracts-upgradeable/token/ERC20/IERC20Upgradeable.sol\";\n\nimport \"@openzeppelin/contracts-upgradeable/utils/math/SafeMathUpgradeable.sol\";\n\nimport \"./_VaultBase.sol\";\n\nimport \"../interfaces/IBalancerVault.sol\";\n\nimport \"../libraries/PriceFeed.sol\";\n\nimport \"@openzeppelin/contracts-upgradeable/proxy/ClonesUpgradeable.sol\";\n\n/// @title Vault factory for VaultAcryptosSingle\ncontract VaultFactoryAcryptosSingle is Initializable, OwnableUpgradeable {\n    /* State */\n\n    VaultAcryptosSingle[] public deployedVaults; // All deployed vaults\n    address public masterVault; // Address of the upgradeable proxy that delegates to the master vault contract\n\n    /* Constructor */\n\n    function initialize(address _masterVault) public initializer {\n        // Set master vault address\n        masterVault = _masterVault;\n\n        // Ownable\n        __Ownable_init();\n    }\n\n    /* Factory functions */\n\n    function createVault(\n        address _timelockOwner,\n        VaultAcryptosSingle.VaultAcryptosSingleInit memory _initValue\n    ) external onlyOwner {\n        // Create clone\n        VaultAcryptosSingle _vault = VaultAcryptosSingle(\n            ClonesUpgradeable.clone(masterVault)\n        );\n        // Initialize cloned contract\n        _vault.initialize(_timelockOwner, _initValue);\n        // Add to array of deployed vaults\n        deployedVaults.push(_vault);\n    }\n\n    function numVaults() external view returns (uint256) {\n        return deployedVaults.length;\n    }\n}\n\n/// @title Vault contract for Acryptos single token strategies (e.g. for lending)\ncontract VaultAcryptosSingle is VaultBase {\n    /* Libraries */\n    using SafeMathUpgradeable for uint256;\n    using SafeERC20Upgradeable for IERC20Upgradeable;\n    using SafeSwapBalancer for IBalancerVault;\n    using SafeSwapUni for IAMMRouter02;\n    using PriceFeed for AggregatorV3Interface;\n\n    /* Constructor */\n    /// @notice Upgradeable constructor\n    /// @param _initValue A VaultAcryptosSingleInit struct containing all init values\n    /// @param _timelockOwner The designated timelock controller address to act as owner\n    function initialize(\n        address _timelockOwner,\n        VaultAcryptosSingleInit memory _initValue\n    ) public initializer {\n        // Vault config\n        pid = _initValue.pid;\n        isHomeChain = _initValue.isHomeChain;\n\n        // Addresses\n        govAddress = _initValue.keyAddresses.govAddress;\n        onlyGov = true;\n        zorroControllerAddress = _initValue.keyAddresses.zorroControllerAddress;\n        ZORROAddress = _initValue.keyAddresses.ZORROAddress;\n        zorroStakingVault = _initValue.keyAddresses.zorroStakingVault;\n        wantAddress = _initValue.keyAddresses.wantAddress;\n        token0Address = _initValue.keyAddresses.token0Address;\n        earnedAddress = _initValue.keyAddresses.earnedAddress;\n        farmContractAddress = _initValue.keyAddresses.farmContractAddress;\n        rewardsAddress = _initValue.keyAddresses.rewardsAddress;\n        poolAddress = _initValue.keyAddresses.poolAddress;\n        uniRouterAddress = _initValue.keyAddresses.uniRouterAddress;\n        zorroLPPool = _initValue.keyAddresses.zorroLPPool;\n        zorroLPPoolOtherToken = _initValue.keyAddresses.zorroLPPoolOtherToken;\n        tokenUSDCAddress = _initValue.keyAddresses.tokenUSDCAddress;\n        tokenBUSD = 0xe9e7CEA3DedcA5984780Bafc599bD69ADd087D56;\n        balancerPool = 0x894ed9026de37afd9cce1e6c0be7d6b510e3ffe5000100000000000000000001;\n        balancerVaultAddress = 0xa82f327BBbF0667356D2935C6532d164b06cEced;\n        tokenACS = 0x4197C6EF3879a08cD51e5560da5064B773aa1d29;\n        balancerACSWeightBasisPoints = 30;\n        balancerBUSDWeightBasisPoints = 10;\n\n        // Fees\n        controllerFee = _initValue.fees.controllerFee;\n        buyBackRate = _initValue.fees.buyBackRate;\n        revShareRate = _initValue.fees.revShareRate;\n        entranceFeeFactor = _initValue.fees.entranceFeeFactor;\n        withdrawFeeFactor = _initValue.fees.withdrawFeeFactor;\n\n        // Swap paths\n        earnedToZORROPath = _initValue.earnedToZORROPath;\n        earnedToToken0Path = _initValue.earnedToToken0Path;\n        USDCToToken0Path = _initValue.USDCToToken0Path;\n        earnedToZORLPPoolOtherTokenPath = _initValue\n            .earnedToZORLPPoolOtherTokenPath;\n        earnedToUSDCPath = _initValue.earnedToUSDCPath;\n        BUSDToToken0Path = _initValue.BUSDToToken0Path;\n        BUSDToZORROPath = _initValue.BUSDToZORROPath;\n        BUSDToLPPoolOtherTokenPath = _initValue.BUSDToLPPoolOtherTokenPath;\n        // Corresponding reverse paths\n        token0ToUSDCPath = _reversePath(USDCToToken0Path);\n\n        // Price feeds\n        token0PriceFeed = AggregatorV3Interface(\n            _initValue.priceFeeds.token0PriceFeed\n        );\n        earnTokenPriceFeed = AggregatorV3Interface(\n            _initValue.priceFeeds.earnTokenPriceFeed\n        );\n        lpPoolOtherTokenPriceFeed = AggregatorV3Interface(\n            _initValue.priceFeeds.lpPoolOtherTokenPriceFeed\n        );\n        ZORPriceFeed = AggregatorV3Interface(\n            _initValue.priceFeeds.ZORPriceFeed\n        );\n\n        // Super call\n        VaultBase.initialize(_timelockOwner);\n    }\n\n    /* Structs */\n\n    struct VaultAcryptosSingleInit {\n        uint256 pid;\n        bool isHomeChain;\n        VaultAddresses keyAddresses;\n        address[] earnedToZORROPath;\n        address[] earnedToToken0Path;\n        address[] USDCToToken0Path;\n        address[] earnedToZORLPPoolOtherTokenPath;\n        address[] earnedToUSDCPath;\n        address[] BUSDToToken0Path;\n        address[] BUSDToZORROPath;\n        address[] BUSDToLPPoolOtherTokenPath;\n        VaultFees fees;\n        VaultPriceFeeds priceFeeds;\n    }\n\n    /* State */\n\n    uint256 public balancerACSWeightBasisPoints; // Relative weight of ACS token in balancer pool\n    uint256 public balancerBUSDWeightBasisPoints; // Relative weight of BUSD token in balancer pool\n    address[] public BUSDToToken0Path; // Swap path from BUSD to Token0 (PCS)\n    address[] public BUSDToZORROPath; // Swap path from BUSD to ZOR (PCS)\n    address[] public BUSDToLPPoolOtherTokenPath; // Swap path from BUSD to ZOR LP Pool's \"other token\" (PCS)\n    address public tokenBUSD;\n    address public tokenACS;\n    bytes32 public balancerPool; // The Acryptos ACSI.finance pool ID for swapping Earned token to BUSD tokens.\n    address public balancerVaultAddress; // Address of Balancer/ACSI.finance Vault for swaps etc.\n\n    /* Setters */\n\n    function setBalancerWeights(uint256 _acsWeight, uint256 _busdWeight)\n        external\n        onlyOwner\n    {\n        balancerACSWeightBasisPoints = _acsWeight;\n        balancerBUSDWeightBasisPoints = _busdWeight;\n    }\n\n    function setBUSDSwapPaths(uint8 _idx, address[] calldata _path)\n        external\n        onlyOwner\n    {\n        if (_idx == 0) {\n            BUSDToToken0Path = _path;\n        } else if (_idx == 1) {\n            BUSDToZORROPath = _path;\n        } else if (_idx == 2) {\n            BUSDToLPPoolOtherTokenPath = _path;\n        } else {\n            revert(\"unsupported idx swap path\");\n        }\n    }\n\n    function setBUSD(address _token) external onlyOwner {\n        tokenBUSD = _token;\n    }\n\n    function setACS(address _token) external onlyOwner {\n        tokenACS = _token;\n    }\n\n    function setBalancerPool(bytes32 _pool) external onlyOwner {\n        balancerPool = _pool;\n    }\n\n    function setBalancerVaultAddress(address _vault) external onlyOwner {\n        balancerVaultAddress = _vault;\n    }\n\n    /* Investment Actions */\n\n    /// @notice Receives new deposits from user\n    /// @param _account address of user that this deposit is intended for\n    /// @param _wantAmt amount of Want token to deposit/stake\n    /// @return sharesAdded uint256 Number of shares added\n    function depositWantToken(address _account, uint256 _wantAmt)\n        public\n        virtual\n        override\n        onlyZorroController\n        nonReentrant\n        whenNotPaused\n        returns (uint256 sharesAdded)\n    {\n        // Preflight checks\n        require(_wantAmt > 0, \"Want token deposit must be > 0\");\n\n        // Transfer Want token from sender\n        IERC20Upgradeable(wantAddress).safeTransferFrom(\n            msg.sender,\n            address(this),\n            _wantAmt\n        );\n\n        // Set sharesAdded to the Want token amount specified\n        sharesAdded = _wantAmt;\n        // If the total number of shares and want tokens locked both exceed 0, the shares added is the proportion of Want tokens locked,\n        // discounted by the entrance fee\n        if (wantLockedTotal > 0 && sharesTotal > 0) {\n            sharesAdded = _wantAmt\n                .mul(sharesTotal)\n                .mul(entranceFeeFactor)\n                .div(wantLockedTotal)\n                .div(entranceFeeFactorMax);\n        }\n        // Increment the shares\n        sharesTotal = sharesTotal.add(sharesAdded);\n        userShares[_account] = userShares[_account].add(sharesAdded);\n\n        // Farm the want token\n        _farm();\n    }\n\n    /// @notice Performs necessary operations to convert USDC into Want token\n    /// @param _amountUSDC The USDC quantity to exchange (must already be deposited)\n    /// @param _maxMarketMovementAllowed The max slippage allowed. 1000 = 0 %, 995 = 0.5%, etc.\n    /// @return uint256 Amount of Want token obtained\n    function exchangeUSDForWantToken(\n        uint256 _amountUSDC,\n        uint256 _maxMarketMovementAllowed\n    ) public override onlyZorroController whenNotPaused returns (uint256) {\n        // Get balance of deposited USDC\n        uint256 _balUSDC = IERC20(tokenUSDCAddress).balanceOf(address(this));\n        // Check that USDC was actually deposited\n        require(_amountUSDC > 0, \"USDC deposit must be > 0\");\n        require(_amountUSDC <= _balUSDC, \"USDC desired exceeded bal\");\n\n        // Use price feed to determine exchange rates\n        uint256 _token0ExchangeRate = token0PriceFeed.getExchangeRate();\n\n        // Swap USDC for tokens\n        // Increase allowance\n        IERC20Upgradeable(tokenUSDCAddress).safeIncreaseAllowance(\n            uniRouterAddress,\n            _amountUSDC\n        );\n        // Single asset. Swap from USDC directly to Token0\n        _safeSwap(\n            SafeSwapParams({\n                amountIn: _amountUSDC,\n                priceToken0: 1e12,\n                priceToken1: _token0ExchangeRate,\n                token0: tokenUSDCAddress,\n                token1: token0Address,\n                token0Weight: 0,\n                token1Weight: 0,\n                maxMarketMovementAllowed: _maxMarketMovementAllowed,\n                path: USDCToToken0Path,\n                destination: address(this)\n            })\n        );\n\n        // Get new Token0 balance\n        uint256 _token0Bal = IERC20Upgradeable(token0Address).balanceOf(\n            address(this)\n        );\n\n        // Deposit token to get Want token\n        IAcryptosVault(poolAddress).deposit(_token0Bal);\n\n        // Calculate resulting want token balance\n        uint256 _wantAmt = IERC20Upgradeable(wantAddress).balanceOf(\n            address(this)\n        );\n\n        // Transfer back to sender\n        IERC20Upgradeable(wantAddress).safeTransfer(\n            zorroControllerAddress,\n            _wantAmt\n        );\n\n        return _wantAmt;\n    }\n\n    /// @notice Safely swaps tokens using the most suitable protocol based on token\n    /// @param _swapParams SafeSwapParams for swap\n    function _safeSwap(SafeSwapParams memory _swapParams) internal {\n        if (_swapParams.token0 == tokenACS || _swapParams.token1 == tokenACS) {\n            // Allowance\n            IERC20Upgradeable(_swapParams.token0).safeIncreaseAllowance(balancerVaultAddress, _swapParams.amountIn);\n            // If it's for the Acryptos tokens, swap on ACS Finance (Balancer clone) (Better liquidity for these tokens only)\n            IBalancerVault(balancerVaultAddress).safeSwap(\n                balancerPool,\n                _swapParams\n            );\n        } else {\n            // Allowance\n            IERC20Upgradeable(_swapParams.token0).safeIncreaseAllowance(uniRouterAddress, _swapParams.amountIn);\n            // Otherwise, swap on normal Pancakeswap (or Uniswap clone) for simplicity & liquidity\n            IAMMRouter02(uniRouterAddress).safeSwap(\n                _swapParams.amountIn,\n                _swapParams.priceToken0,\n                _swapParams.priceToken1,\n                _swapParams.maxMarketMovementAllowed,\n                _swapParams.path,\n                _swapParams.destination,\n                block.timestamp.add(600)\n            );\n        }\n    }\n\n    /// @notice Public function for farming Want token.\n    function farm() public virtual nonReentrant {\n        _farm();\n    }\n\n    /// @notice Internal function for farming Want token. Responsible for staking Want token in a MasterChef/MasterApe-like contract\n    function _farm() internal virtual {\n        // Get the Want token stored on this contract\n        uint256 wantAmt = IERC20Upgradeable(wantAddress).balanceOf(\n            address(this)\n        );\n        // Increment the total Want tokens locked into this contract\n        wantLockedTotal = wantLockedTotal.add(wantAmt);\n        // Allow the farm contract (e.g. MasterChef) the ability to transfer up to the Want amount\n        IERC20Upgradeable(wantAddress).safeIncreaseAllowance(\n            farmContractAddress,\n            wantAmt\n        );\n\n        // Deposit the Want tokens in the Farm contract\n        IAcryptosFarm(farmContractAddress).deposit(wantAddress, wantAmt);\n    }\n\n    /// @notice Internal function for unfarming Want token. Responsible for unstaking Want token from MasterChef/MasterApe contracts\n    /// @param _wantAmt the amount of Want tokens to withdraw. If 0, will only harvest and not withdraw\n    function _unfarm(uint256 _wantAmt) internal virtual {\n        // Withdraw the Want tokens from the Farm contract\n        IAcryptosFarm(farmContractAddress).withdraw(wantAddress, _wantAmt);\n    }\n\n    /// @notice Fully withdraw Want tokens from the Farm contract (100% withdrawals only)\n    /// @param _account The address of the owner of vault investment\n    /// @param _wantAmt The amount of Want token to withdraw\n    /// @return uint256 The number of shares removed\n    function withdrawWantToken(address _account, uint256 _wantAmt)\n        public\n        virtual\n        override\n        onlyZorroController\n        nonReentrant\n        whenNotPaused\n        returns (uint256)\n    {\n        // Preflight checks\n        require(_wantAmt > 0, \"want amt <= 0\");\n\n        // Shares removed is proportional to the % of total Want tokens locked that _wantAmt represents\n        uint256 sharesRemoved = _wantAmt.mul(sharesTotal).div(wantLockedTotal);\n        // Safety: cap the shares to the total number of shares\n        if (sharesRemoved > sharesTotal) {\n            sharesRemoved = sharesTotal;\n        }\n        // Decrement the total shares by the sharesRemoved\n        sharesTotal = sharesTotal.sub(sharesRemoved);\n        userShares[_account] = userShares[_account].sub(sharesRemoved);\n\n        // If a withdrawal fee is specified, discount the _wantAmt by the withdrawal fee\n        if (withdrawFeeFactor < withdrawFeeFactorMax) {\n            _wantAmt = _wantAmt.mul(withdrawFeeFactor).div(\n                withdrawFeeFactorMax\n            );\n        }\n\n        // Unfarm Want token\n        _unfarm(_wantAmt);\n\n        // Safety: Check balance of this contract's Want tokens held, and cap _wantAmt to that value\n        uint256 wantAmt = IERC20Upgradeable(wantAddress).balanceOf(\n            address(this)\n        );\n        if (_wantAmt > wantAmt) {\n            _wantAmt = wantAmt;\n        }\n        // Safety: cap _wantAmt at the total quantity of Want tokens locked\n        if (wantLockedTotal < _wantAmt) {\n            _wantAmt = wantLockedTotal;\n        }\n\n        // Decrement the total Want locked tokens by the _wantAmt\n        wantLockedTotal = wantLockedTotal.sub(_wantAmt);\n\n        // Finally, transfer the want amount from this contract, back to the ZorroController contract\n        IERC20Upgradeable(wantAddress).safeTransfer(\n            zorroControllerAddress,\n            _wantAmt\n        );\n\n        return sharesRemoved;\n    }\n\n    /// @notice Converts Want token back into USD to be ready for withdrawal and transfers to sender\n    /// @param _amount The Want token quantity to exchange (must be deposited beforehand)\n    /// @param _maxMarketMovementAllowed The max slippage allowed for swaps. 1000 = 0 %, 995 = 0.5%, etc.\n    /// @return uint256 Amount of USDC token obtained\n    function exchangeWantTokenForUSD(\n        uint256 _amount,\n        uint256 _maxMarketMovementAllowed\n    )\n        public\n        virtual\n        override\n        onlyZorroController\n        whenNotPaused\n        returns (uint256)\n    {\n        // Preflight checks\n        require(_amount > 0, \"Want amt must be > 0\");\n\n        // Safely transfer Want token from sender\n        IERC20Upgradeable(wantAddress).safeTransferFrom(\n            msg.sender,\n            address(this),\n            _amount\n        );\n\n        // Withdraw Want token to get Token0\n        IAcryptosFarm(farmContractAddress).withdraw(wantAddress, _amount);\n\n        // Use price feed to determine exchange rates\n        uint256 _token0ExchangeRate = token0PriceFeed.getExchangeRate();\n\n        // Swap Token0 for USDC\n        // Get Token0 balance\n        uint256 _token0Bal = IERC20Upgradeable(token0Address).balanceOf(\n            address(this)\n        );\n        // Increase allowance\n        IERC20Upgradeable(token0Address).safeIncreaseAllowance(\n            uniRouterAddress,\n            _token0Bal\n        );\n        // Swap Token0 -> USDC\n        _safeSwap(\n            SafeSwapParams({\n                amountIn: _token0Bal,\n                priceToken0: _token0ExchangeRate,\n                priceToken1: 1e12,\n                token0: token0Address,\n                token1: tokenUSDCAddress,\n                token0Weight: 0,\n                token1Weight: 0,\n                maxMarketMovementAllowed: _maxMarketMovementAllowed,\n                path: token0ToUSDCPath,\n                destination: msg.sender\n            })\n        );\n\n        // Calculate USDC balance\n        return IERC20(tokenUSDCAddress).balanceOf(address(this));\n    }\n\n    /// @notice The main compounding (earn) function. Reinvests profits since the last earn event.\n    /// @param _maxMarketMovementAllowed The max slippage allowed. 1000 = 0 %, 995 = 0.5%, etc.\n    function earn(uint256 _maxMarketMovementAllowed)\n        public\n        virtual\n        override\n        nonReentrant\n        whenNotPaused\n    {\n        // If onlyGov is set to true, only allow to proceed if the current caller is the govAddress\n        if (onlyGov) {\n            require(msg.sender == govAddress, \"!gov\");\n        }\n\n        // Harvest farm tokens\n        _unfarm(0);\n\n        // Get the balance of the Earned token on this contract (ACS, etc.)\n        uint256 _earnedAmt = IERC20(earnedAddress).balanceOf(address(this));\n\n        // Get exchange rate from price feed\n        uint256 _earnTokenExchangeRate = earnTokenPriceFeed.getExchangeRate();\n        uint256 _token0ExchangeRate = token0PriceFeed.getExchangeRate();\n        uint256 _ZORExchangeRate = ZORPriceFeed.getExchangeRate();\n        uint256 _lpPoolOtherTokenExchangeRate = ZORPriceFeed.getExchangeRate();\n        // Create rates struct\n        ExchangeRates memory _rates = ExchangeRates({\n            earn: _earnTokenExchangeRate,\n            ZOR: _ZORExchangeRate,\n            lpPoolOtherToken: _lpPoolOtherTokenExchangeRate\n        });\n\n        // Distribute fees\n        uint256 _controllerFee = _distributeFees(_earnedAmt);\n\n        // Buyback & rev share\n        (uint256 _buybackAmt, uint256 _revShareAmt) = _buyBackAndRevShare(\n            _earnedAmt,\n            _maxMarketMovementAllowed,\n            _rates\n        );\n\n        // Net earned amt\n        uint256 _earnedAmtNet = _earnedAmt.sub(_controllerFee).sub(_buybackAmt).sub(_revShareAmt);\n\n        // Swap Earn token for single asset token\n\n        // Step 1: Earned to BUSD\n        _safeSwap(\n            SafeSwapParams({\n                amountIn: _earnedAmtNet,\n                priceToken0: _earnTokenExchangeRate,\n                priceToken1: 1e12,\n                token0: earnedAddress,\n                token1: tokenBUSD,\n                token0Weight: balancerACSWeightBasisPoints,\n                token1Weight: balancerBUSDWeightBasisPoints,\n                maxMarketMovementAllowed: _maxMarketMovementAllowed,\n                path: earnedToToken0Path,\n                destination: address(this)\n            })\n        );\n\n        // Step 2: BUSD to Token0\n        uint256 _balBUSD = IERC20Upgradeable(tokenBUSD).balanceOf(\n            address(this)\n        );\n        // Increase allowance\n        IERC20Upgradeable(tokenBUSD).safeIncreaseAllowance(\n            uniRouterAddress,\n            _balBUSD\n        );\n        _safeSwap(\n            SafeSwapParams({\n                amountIn: _balBUSD,\n                priceToken0: 1e12,\n                priceToken1: _token0ExchangeRate,\n                token0: tokenBUSD,\n                token1: token0Address,\n                token0Weight: 0,\n                token1Weight: 0,\n                maxMarketMovementAllowed: _maxMarketMovementAllowed,\n                path: BUSDToToken0Path,\n                destination: address(this)\n            })\n        );\n\n        // Redeposit single asset token to get Want token\n        // Get new Token0 balance\n        uint256 _token0Bal = IERC20(token0Address).balanceOf(address(this));\n        // Deposit token to get Want token\n        IAcryptosVault(poolAddress).deposit(_token0Bal);\n\n        // This vault is only for single asset deposits, so farm that token and exit\n        // Update the last earn block\n        lastEarnBlock = block.number;\n        // Farm LP token\n        _farm();\n    }\n\n    /// @notice Buys back the earned token on-chain, swaps it to add liquidity to the ZOR pool, then burns the associated LP token\n    /// @dev Requires funds to be sent to this address before calling. Can be called internally OR by controller\n    /// @param _amount The amount of Earn token to buy back\n    /// @param _maxMarketMovementAllowed The max slippage allowed. 1000 = 0 %, 995 = 0.5%, etc.\n    /// @param _rates ExchangeRates struct with realtime rates information for swaps\n    function _buybackOnChain(\n        uint256 _amount,\n        uint256 _maxMarketMovementAllowed,\n        ExchangeRates memory _rates\n    ) internal override {\n        // Authorize spending beforehand\n        IERC20Upgradeable(earnedAddress).safeIncreaseAllowance(\n            uniRouterAddress,\n            _amount\n        );\n\n        // 1. Swap Earned -> BUSD\n        address[] memory _dummyEarnedToBUSDPath;\n        _safeSwap(\n            SafeSwapParams({\n                amountIn: _amount,\n                priceToken0: _rates.earn,\n                priceToken1: 1e12,\n                token0: earnedAddress,\n                token1: tokenBUSD,\n                token0Weight: balancerACSWeightBasisPoints,\n                token1Weight: balancerBUSDWeightBasisPoints,\n                maxMarketMovementAllowed: _maxMarketMovementAllowed,\n                path: _dummyEarnedToBUSDPath,\n                destination: address(this)\n            })\n        );\n\n        // Get BUSD bal\n        uint256 _balBUSD = IERC20Upgradeable(tokenBUSD).balanceOf(\n            address(this)\n        );\n        // Approve spending\n        IERC20Upgradeable(tokenBUSD).safeIncreaseAllowance(\n            uniRouterAddress,\n            _balBUSD\n        );\n\n        // 2. Swap 1/2 BUSD -> ZOR\n        _safeSwap(\n            SafeSwapParams({\n                amountIn: _balBUSD.div(2),\n                priceToken0: 1e12,\n                priceToken1: _rates.ZOR,\n                token0: tokenBUSD,\n                token1: ZORROAddress,\n                token0Weight: 0,\n                token1Weight: 0,\n                maxMarketMovementAllowed: _maxMarketMovementAllowed,\n                path: BUSDToZORROPath,\n                destination: address(this)\n            })\n        );\n\n        // 3. Swap 1/2 BUSD -> LP \"other token\"\n        _safeSwap(\n            SafeSwapParams({\n                amountIn: _balBUSD.div(2),\n                priceToken0: 1e12,\n                priceToken1: _rates.lpPoolOtherToken,\n                token0: tokenBUSD,\n                token1: zorroLPPoolOtherToken,\n                token0Weight: 0,\n                token1Weight: 0,\n                maxMarketMovementAllowed: _maxMarketMovementAllowed,\n                path: BUSDToLPPoolOtherTokenPath,\n                destination: address(this)\n            })\n        );\n\n        // Enter LP pool and send received token to the burn address\n        uint256 zorroTokenAmt = IERC20Upgradeable(ZORROAddress).balanceOf(\n            address(this)\n        );\n        uint256 otherTokenAmt = IERC20Upgradeable(zorroLPPoolOtherToken)\n            .balanceOf(address(this));\n        IERC20Upgradeable(ZORROAddress).safeIncreaseAllowance(\n            uniRouterAddress,\n            zorroTokenAmt\n        );\n        IERC20Upgradeable(zorroLPPoolOtherToken).safeIncreaseAllowance(\n            uniRouterAddress,\n            otherTokenAmt\n        );\n        IAMMRouter02(uniRouterAddress).addLiquidity(\n            ZORROAddress,\n            zorroLPPoolOtherToken,\n            zorroTokenAmt,\n            otherTokenAmt,\n            zorroTokenAmt.mul(_maxMarketMovementAllowed).div(1000),\n            otherTokenAmt.mul(_maxMarketMovementAllowed).div(1000),\n            burnAddress,\n            block.timestamp.add(600)\n        );\n    }\n\n    /// @notice Sends the specified earnings amount as revenue share to ZOR stakers\n    /// @param _amount The amount of Earn token to share as revenue with ZOR stakers\n    /// @param _maxMarketMovementAllowed Max slippage. 950 = 5%, 990 = 1%, etc.\n    /// @param _rates ExchangeRates struct with realtime rates information for swaps\n    function _revShareOnChain(\n        uint256 _amount,\n        uint256 _maxMarketMovementAllowed,\n        ExchangeRates memory _rates\n    ) internal override {\n        // Authorize spending beforehand\n        IERC20Upgradeable(earnedAddress).safeIncreaseAllowance(\n            uniRouterAddress,\n            _amount\n        );\n\n        // Swap Earn to USDC\n        // Require two step swap (Balancer + Uni)\n        // 1. Balancer: Earn -> BUSD\n        address[] memory _dummyPath;\n        _safeSwap(\n            SafeSwapParams({\n                amountIn: _amount,\n                priceToken0: _rates.earn,\n                priceToken1: 1e12,\n                token0: earnedAddress,\n                token1: tokenBUSD,\n                token0Weight: balancerACSWeightBasisPoints,\n                token1Weight: balancerBUSDWeightBasisPoints,\n                maxMarketMovementAllowed: _maxMarketMovementAllowed,\n                path: _dummyPath, // Unused\n                destination: address(this)\n            })\n        );\n        // 2. Uni: BUSD -> ZOR\n        uint256 _balUSDC = IERC20Upgradeable(tokenUSDCAddress).balanceOf(\n            address(this)\n        );\n        // Increase allowance\n        IERC20Upgradeable(tokenUSDCAddress).safeIncreaseAllowance(\n            uniRouterAddress,\n            _balUSDC\n        );\n        _safeSwap(\n            SafeSwapParams({\n                amountIn: _balUSDC,\n                priceToken0: 1e12,\n                priceToken1: _rates.ZOR,\n                token0: tokenUSDCAddress,\n                token1: ZORROAddress,\n                token0Weight: 0,\n                token1Weight: 0,\n                maxMarketMovementAllowed: _maxMarketMovementAllowed,\n                path: BUSDToZORROPath,\n                destination: zorroStakingVault\n            })\n        );\n    }\n\n    /// @notice Swaps Earn token to USDC and sends to destination specified\n    /// @param _earnedAmount Quantity of Earned tokens\n    /// @param _destination Address to send swapped USDC to\n    /// @param _maxMarketMovementAllowed Slippage factor. 950 = 5%, 990 = 1%, etc.\n    /// @param _rates ExchangeRates struct with realtime rates information for swaps\n    function _swapEarnedToUSDC(\n        uint256 _earnedAmount,\n        address _destination,\n        uint256 _maxMarketMovementAllowed,\n        ExchangeRates memory _rates\n    ) internal override {\n        // Swap ACS to BUSD (Balancer)\n        _safeSwap(\n            SafeSwapParams({\n                amountIn: _earnedAmount,\n                priceToken0: _rates.earn,\n                priceToken1: 1e12,\n                token0: earnedAddress,\n                token1: tokenBUSD,\n                token0Weight: balancerACSWeightBasisPoints,\n                token1Weight: balancerBUSDWeightBasisPoints,\n                maxMarketMovementAllowed: _maxMarketMovementAllowed,\n                path: earnedToUSDCPath, // Unused\n                destination: address(this)\n            })\n        );\n\n        // BUSD balance\n        uint256 _balBUSD = IERC20Upgradeable(tokenBUSD).balanceOf(\n            address(this)\n        );\n\n        // Swap path\n        address[] memory _path = new address[](2);\n        _path[0] = tokenBUSD;\n        _path[1] = tokenUSDCAddress;\n\n        // Swap BUSD to USDC (PCS)\n        // Increase allowance\n        IERC20Upgradeable(tokenBUSD).safeIncreaseAllowance(\n            uniRouterAddress,\n            _balBUSD\n        );\n        // Swap\n        _safeSwap(\n            SafeSwapParams({\n                amountIn: _balBUSD,\n                priceToken0: 1e12,\n                priceToken1: 1e12,\n                token0: tokenBUSD,\n                token1: tokenUSDCAddress,\n                token0Weight: 0,\n                token1Weight: 0,\n                maxMarketMovementAllowed: _maxMarketMovementAllowed,\n                path: _path,\n                destination: _destination\n            })\n        );\n    }\n}\n",
  "sourcePath": "/Users/kristophm/Documents/workspace/zorro-protocol/contracts/vaults/VaultAcryptosSingle.sol",
  "compiler": {
    "name": "solc",
    "version": "0.8.10+commit.fc410830.Emscripten.clang"
  },
  "schemaVersion": "3.4.4",
  "updatedAt": "2022-05-04T15:04:24.989Z",
  "networkType": "ethereum",
  "devdoc": {
    "kind": "dev",
    "methods": {
      "depositWantToken(address,uint256)": {
        "params": {
          "_account": "address of user that this deposit is intended for",
          "_wantAmt": "amount of Want token to deposit/stake"
        },
        "returns": {
          "sharesAdded": "uint256 Number of shares added"
        }
      },
      "earn(uint256)": {
        "params": {
          "_maxMarketMovementAllowed": "The max slippage allowed. 1000 = 0 %, 995 = 0.5%, etc."
        }
      },
      "exchangeUSDForWantToken(uint256,uint256)": {
        "params": {
          "_amountUSDC": "The USDC quantity to exchange (must already be deposited)",
          "_maxMarketMovementAllowed": "The max slippage allowed. 1000 = 0 %, 995 = 0.5%, etc."
        },
        "returns": {
          "_0": "uint256 Amount of Want token obtained"
        }
      },
      "exchangeWantTokenForUSD(uint256,uint256)": {
        "params": {
          "_amount": "The Want token quantity to exchange (must be deposited beforehand)",
          "_maxMarketMovementAllowed": "The max slippage allowed for swaps. 1000 = 0 %, 995 = 0.5%, etc."
        },
        "returns": {
          "_0": "uint256 Amount of USDC token obtained"
        }
      },
      "inCaseTokensGetStuck(address,uint256,address)": {
        "params": {
          "_amount": "The amount of the tokens to transfer",
          "_to": "The address to transfer tokens to",
          "_token": "Address of the ERC20 token to transfer"
        }
      },
      "initialize(address,(uint256,bool,(address,address,address,address,address,address,address,address,address,address,address,address,address,address,address),address[],address[],address[],address[],address[],address[],address[],address[],(uint256,uint256,uint256,uint256,uint256),(address,address,address,address,address)))": {
        "params": {
          "_initValue": "A VaultAcryptosSingleInit struct containing all init values",
          "_timelockOwner": "The designated timelock controller address to act as owner"
        }
      },
      "owner()": {
        "details": "Returns the address of the current owner."
      },
      "paused()": {
        "details": "Returns true if the contract is paused, and false otherwise."
      },
      "renounceOwnership()": {
        "details": "Leaves the contract without owner. It will not be possible to call `onlyOwner` functions anymore. Can only be called by the current owner. NOTE: Renouncing ownership will leave the contract without an owner, thereby removing any functionality that is only available to the owner."
      },
      "setFeeSettings(uint256,uint256,uint256,uint256,uint256)": {
        "params": {
          "_buyBackRate": "Buy back rate fee numerator",
          "_controllerFee": "Controller fee numerator",
          "_entranceFeeFactor": "Entrance fee numerator (higher means smaller percentage)",
          "_revShareRate": "Rev share rate fee numerator",
          "_withdrawFeeFactor": "Withdrawal fee numerator (higher means smaller percentage)"
        }
      },
      "setGov(address)": {
        "params": {
          "_govAddress": "The new gov address"
        }
      },
      "setOnlyGov(bool)": {
        "params": {
          "_onlyGov": "whether onlyGov should be enforced"
        }
      },
      "transferOwnership(address)": {
        "details": "Transfers ownership of the contract to a new account (`newOwner`). Can only be called by the current owner."
      },
      "withdrawWantToken(address,uint256)": {
        "params": {
          "_account": "The address of the owner of vault investment",
          "_wantAmt": "The amount of Want token to withdraw"
        },
        "returns": {
          "_0": "uint256 The number of shares removed"
        }
      }
    },
    "title": "Vault contract for Acryptos single token strategies (e.g. for lending)",
    "version": 1
  },
  "userdoc": {
    "kind": "user",
    "methods": {
      "depositWantToken(address,uint256)": {
        "notice": "Receives new deposits from user"
      },
      "earn(uint256)": {
        "notice": "The main compounding (earn) function. Reinvests profits since the last earn event."
      },
      "exchangeUSDForWantToken(uint256,uint256)": {
        "notice": "Performs necessary operations to convert USDC into Want token"
      },
      "exchangeWantTokenForUSD(uint256,uint256)": {
        "notice": "Converts Want token back into USD to be ready for withdrawal and transfers to sender"
      },
      "farm()": {
        "notice": "Public function for farming Want token."
      },
      "inCaseTokensGetStuck(address,uint256,address)": {
        "notice": "Safely transfer ERC20 tokens stuck in this contract to a specified address"
      },
      "initialize(address,(uint256,bool,(address,address,address,address,address,address,address,address,address,address,address,address,address,address,address),address[],address[],address[],address[],address[],address[],address[],address[],(uint256,uint256,uint256,uint256,uint256),(address,address,address,address,address)))": {
        "notice": "Upgradeable constructor"
      },
      "pause()": {
        "notice": "Pause contract"
      },
      "setFeeSettings(uint256,uint256,uint256,uint256,uint256)": {
        "notice": "Configure key fee parameters"
      },
      "setGov(address)": {
        "notice": "Set governor address"
      },
      "setOnlyGov(bool)": {
        "notice": "Set onlyGov property"
      },
      "unpause()": {
        "notice": "Unpause contract"
      },
      "withdrawWantToken(address,uint256)": {
        "notice": "Fully withdraw Want tokens from the Farm contract (100% withdrawals only)"
      }
    },
    "version": 1
  }
}