{
  "contractName": "VaultActionsApeLending",
  "abi": [
    {
      "anonymous": false,
      "inputs": [
        {
          "indexed": true,
          "internalType": "address",
          "name": "previousOwner",
          "type": "address"
        },
        {
          "indexed": true,
          "internalType": "address",
          "name": "newOwner",
          "type": "address"
        }
      ],
      "name": "OwnershipTransferred",
      "type": "event"
    },
    {
      "inputs": [],
      "name": "burnAddress",
      "outputs": [
        {
          "internalType": "address",
          "name": "",
          "type": "address"
        }
      ],
      "stateMutability": "view",
      "type": "function"
    },
    {
      "inputs": [
        {
          "internalType": "uint256",
          "name": "_amount",
          "type": "uint256"
        },
        {
          "internalType": "uint256",
          "name": "_maxMarketMovementAllowed",
          "type": "uint256"
        },
        {
          "components": [
            {
              "internalType": "uint256",
              "name": "earn",
              "type": "uint256"
            },
            {
              "internalType": "uint256",
              "name": "ZOR",
              "type": "uint256"
            },
            {
              "internalType": "uint256",
              "name": "lpPoolOtherToken",
              "type": "uint256"
            },
            {
              "internalType": "uint256",
              "name": "stablecoin",
              "type": "uint256"
            }
          ],
          "internalType": "struct VaultActions.ExchangeRates",
          "name": "_rates",
          "type": "tuple"
        },
        {
          "components": [
            {
              "internalType": "address",
              "name": "earnedAddress",
              "type": "address"
            },
            {
              "internalType": "address",
              "name": "ZORROAddress",
              "type": "address"
            },
            {
              "internalType": "address",
              "name": "zorroLPPoolOtherToken",
              "type": "address"
            },
            {
              "internalType": "address[]",
              "name": "earnedToZORROPath",
              "type": "address[]"
            },
            {
              "internalType": "address[]",
              "name": "earnedToZORLPPoolOtherTokenPath",
              "type": "address[]"
            }
          ],
          "internalType": "struct VaultActions.BuybackBurnLPParams",
          "name": "_params",
          "type": "tuple"
        }
      ],
      "name": "buybackBurnLP",
      "outputs": [],
      "stateMutability": "nonpayable",
      "type": "function"
    },
    {
      "inputs": [
        {
          "internalType": "uint256",
          "name": "_x",
          "type": "uint256"
        },
        {
          "internalType": "uint256",
          "name": "_y",
          "type": "uint256"
        },
        {
          "internalType": "uint256",
          "name": "_ox",
          "type": "uint256"
        },
        {
          "internalType": "uint256",
          "name": "_c",
          "type": "uint256"
        },
        {
          "internalType": "uint256",
          "name": "_targetLeverage",
          "type": "uint256"
        },
        {
          "internalType": "uint256",
          "name": "_liquidityAvailable",
          "type": "uint256"
        }
      ],
      "name": "calcIncBorrowAboveTarget",
      "outputs": [
        {
          "internalType": "uint256",
          "name": "dy",
          "type": "uint256"
        }
      ],
      "stateMutability": "pure",
      "type": "function"
    },
    {
      "inputs": [
        {
          "internalType": "uint256",
          "name": "_x",
          "type": "uint256"
        },
        {
          "internalType": "uint256",
          "name": "_y",
          "type": "uint256"
        },
        {
          "internalType": "uint256",
          "name": "_ox",
          "type": "uint256"
        },
        {
          "internalType": "uint256",
          "name": "_c",
          "type": "uint256"
        },
        {
          "internalType": "uint256",
          "name": "_targetLeverage",
          "type": "uint256"
        },
        {
          "internalType": "uint256",
          "name": "_liquidityAvailable",
          "type": "uint256"
        }
      ],
      "name": "calcIncBorrowBelowTarget",
      "outputs": [
        {
          "internalType": "uint256",
          "name": "dy",
          "type": "uint256"
        }
      ],
      "stateMutability": "pure",
      "type": "function"
    },
    {
      "inputs": [
        {
          "internalType": "uint256",
          "name": "_amountUSD",
          "type": "uint256"
        },
        {
          "components": [
            {
              "internalType": "address",
              "name": "token0Address",
              "type": "address"
            },
            {
              "internalType": "address",
              "name": "stablecoin",
              "type": "address"
            },
            {
              "internalType": "address",
              "name": "tokenZorroAddress",
              "type": "address"
            },
            {
              "internalType": "address",
              "name": "poolAddress",
              "type": "address"
            },
            {
              "internalType": "contract AggregatorV3Interface",
              "name": "token0PriceFeed",
              "type": "address"
            },
            {
              "internalType": "contract AggregatorV3Interface",
              "name": "stablecoinPriceFeed",
              "type": "address"
            },
            {
              "internalType": "address[]",
              "name": "stablecoinToToken0Path",
              "type": "address[]"
            }
          ],
          "internalType": "struct VaultActionsLending.ExchangeUSDForWantParams",
          "name": "_params",
          "type": "tuple"
        },
        {
          "internalType": "uint256",
          "name": "_maxMarketMovementAllowed",
          "type": "uint256"
        }
      ],
      "name": "exchangeUSDForWantToken",
      "outputs": [
        {
          "internalType": "uint256",
          "name": "wantObtained",
          "type": "uint256"
        }
      ],
      "stateMutability": "nonpayable",
      "type": "function"
    },
    {
      "inputs": [
        {
          "internalType": "uint256",
          "name": "_amount",
          "type": "uint256"
        },
        {
          "components": [
            {
              "internalType": "address",
              "name": "token0Address",
              "type": "address"
            },
            {
              "internalType": "address",
              "name": "stablecoin",
              "type": "address"
            },
            {
              "internalType": "address",
              "name": "poolAddress",
              "type": "address"
            },
            {
              "internalType": "contract AggregatorV3Interface",
              "name": "token0PriceFeed",
              "type": "address"
            },
            {
              "internalType": "contract AggregatorV3Interface",
              "name": "stablecoinPriceFeed",
              "type": "address"
            },
            {
              "internalType": "address[]",
              "name": "token0ToStablecoinPath",
              "type": "address[]"
            }
          ],
          "internalType": "struct VaultActionsLending.ExchangeWantTokenForUSDParams",
          "name": "_params",
          "type": "tuple"
        },
        {
          "internalType": "uint256",
          "name": "_maxMarketMovementAllowed",
          "type": "uint256"
        }
      ],
      "name": "exchangeWantTokenForUSD",
      "outputs": [
        {
          "internalType": "uint256",
          "name": "usdObtained",
          "type": "uint256"
        }
      ],
      "stateMutability": "nonpayable",
      "type": "function"
    },
    {
      "inputs": [
        {
          "internalType": "uint256",
          "name": "_amountLP",
          "type": "uint256"
        },
        {
          "internalType": "uint256",
          "name": "_maxMarketMovementAllowed",
          "type": "uint256"
        },
        {
          "internalType": "address",
          "name": "_recipient",
          "type": "address"
        },
        {
          "components": [
            {
              "internalType": "address",
              "name": "token0",
              "type": "address"
            },
            {
              "internalType": "address",
              "name": "token1",
              "type": "address"
            },
            {
              "internalType": "address",
              "name": "poolAddress",
              "type": "address"
            },
            {
              "internalType": "address",
              "name": "lpTokenAddress",
              "type": "address"
            }
          ],
          "internalType": "struct VaultActions.ExitPoolParams",
          "name": "_exitPoolParams",
          "type": "tuple"
        }
      ],
      "name": "exitPool",
      "outputs": [],
      "stateMutability": "nonpayable",
      "type": "function"
    },
    {
      "inputs": [
        {
          "internalType": "address",
          "name": "_uniRouterAddress",
          "type": "address"
        }
      ],
      "name": "initialize",
      "outputs": [],
      "stateMutability": "nonpayable",
      "type": "function"
    },
    {
      "inputs": [
        {
          "internalType": "address",
          "name": "_token0",
          "type": "address"
        },
        {
          "internalType": "address",
          "name": "_token1",
          "type": "address"
        },
        {
          "internalType": "uint256",
          "name": "_token0Amt",
          "type": "uint256"
        },
        {
          "internalType": "uint256",
          "name": "_token1Amt",
          "type": "uint256"
        },
        {
          "internalType": "uint256",
          "name": "_maxMarketMovementAllowed",
          "type": "uint256"
        },
        {
          "internalType": "address",
          "name": "_recipient",
          "type": "address"
        }
      ],
      "name": "joinPool",
      "outputs": [],
      "stateMutability": "nonpayable",
      "type": "function"
    },
    {
      "inputs": [
        {
          "internalType": "uint256",
          "name": "_withdrawAmt",
          "type": "uint256"
        },
        {
          "internalType": "uint256",
          "name": "_ox",
          "type": "uint256"
        },
        {
          "internalType": "address",
          "name": "_comptrollerAddress",
          "type": "address"
        },
        {
          "internalType": "address",
          "name": "_poolAddress",
          "type": "address"
        },
        {
          "internalType": "uint256",
          "name": "_targetBorrowLimit",
          "type": "uint256"
        }
      ],
      "name": "levLendingParams",
      "outputs": [
        {
          "internalType": "uint256",
          "name": "x",
          "type": "uint256"
        },
        {
          "internalType": "uint256",
          "name": "y",
          "type": "uint256"
        },
        {
          "internalType": "uint256",
          "name": "c",
          "type": "uint256"
        },
        {
          "internalType": "uint256",
          "name": "targetL",
          "type": "uint256"
        },
        {
          "internalType": "uint256",
          "name": "currentL",
          "type": "uint256"
        },
        {
          "internalType": "uint256",
          "name": "liquidityAvailable",
          "type": "uint256"
        }
      ],
      "stateMutability": "nonpayable",
      "type": "function"
    },
    {
      "inputs": [],
      "name": "owner",
      "outputs": [
        {
          "internalType": "address",
          "name": "",
          "type": "address"
        }
      ],
      "stateMutability": "view",
      "type": "function"
    },
    {
      "inputs": [],
      "name": "renounceOwnership",
      "outputs": [],
      "stateMutability": "nonpayable",
      "type": "function"
    },
    {
      "inputs": [
        {
          "internalType": "address[]",
          "name": "_path",
          "type": "address[]"
        }
      ],
      "name": "reversePath",
      "outputs": [
        {
          "internalType": "address[]",
          "name": "_newPath",
          "type": "address[]"
        }
      ],
      "stateMutability": "pure",
      "type": "function"
    },
    {
      "inputs": [
        {
          "components": [
            {
              "internalType": "uint256",
              "name": "amountIn",
              "type": "uint256"
            },
            {
              "internalType": "uint256",
              "name": "priceToken0",
              "type": "uint256"
            },
            {
              "internalType": "uint256",
              "name": "priceToken1",
              "type": "uint256"
            },
            {
              "internalType": "address",
              "name": "token0",
              "type": "address"
            },
            {
              "internalType": "address",
              "name": "token1",
              "type": "address"
            },
            {
              "internalType": "uint256",
              "name": "maxMarketMovementAllowed",
              "type": "uint256"
            },
            {
              "internalType": "address[]",
              "name": "path",
              "type": "address[]"
            },
            {
              "internalType": "address",
              "name": "destination",
              "type": "address"
            }
          ],
          "internalType": "struct SafeSwapParams",
          "name": "_swapParams",
          "type": "tuple"
        }
      ],
      "name": "safeSwap",
      "outputs": [],
      "stateMutability": "nonpayable",
      "type": "function"
    },
    {
      "inputs": [
        {
          "internalType": "address",
          "name": "_burnAddress",
          "type": "address"
        }
      ],
      "name": "setBurnAddress",
      "outputs": [],
      "stateMutability": "nonpayable",
      "type": "function"
    },
    {
      "inputs": [
        {
          "internalType": "address",
          "name": "_uniRouterAddress",
          "type": "address"
        }
      ],
      "name": "setUniRouterAddress",
      "outputs": [],
      "stateMutability": "nonpayable",
      "type": "function"
    },
    {
      "inputs": [
        {
          "internalType": "address",
          "name": "newOwner",
          "type": "address"
        }
      ],
      "name": "transferOwnership",
      "outputs": [],
      "stateMutability": "nonpayable",
      "type": "function"
    },
    {
      "inputs": [],
      "name": "uniRouterAddress",
      "outputs": [
        {
          "internalType": "address",
          "name": "",
          "type": "address"
        }
      ],
      "stateMutability": "view",
      "type": "function"
    },
    {
      "inputs": [
        {
          "internalType": "address",
          "name": "_vault",
          "type": "address"
        },
        {
          "internalType": "address",
          "name": "_tokenAddress",
          "type": "address"
        },
        {
          "internalType": "address",
          "name": "_poolAddress",
          "type": "address"
        }
      ],
      "name": "wantTokenLockedAdj",
      "outputs": [
        {
          "internalType": "uint256",
          "name": "amtLocked",
          "type": "uint256"
        }
      ],
      "stateMutability": "nonpayable",
      "type": "function"
    },
    {
      "inputs": [
        {
          "internalType": "address",
          "name": "_comptrollerAddress",
          "type": "address"
        },
        {
          "internalType": "address",
          "name": "_poolAddress",
          "type": "address"
        }
      ],
      "name": "collateralFactor",
      "outputs": [
        {
          "internalType": "uint256",
          "name": "collFactor",
          "type": "uint256"
        }
      ],
      "stateMutability": "view",
      "type": "function"
    }
  ],
  "bytecode": "0x608060405234801561001057600080fd5b50612d50806100206000396000f3fe608060405234801561001057600080fd5b50600436106101305760003560e060020a900480638b4c5aee116100b1578063c1612d0e11610075578063c1612d0e1461027f578063c4d66de8146102bf578063cce33c17146102d2578063f2fde38b146102e5578063fd30c376146102f857600080fd5b80638b4c5aee146102155780638d82ddca146102355780638da5cb5b14610248578063a27815d214610259578063b9826d331461026c57600080fd5b80635da79d63116100f85780635da79d63146101a9578063693a090b146101bc57806370d5ae05146101e7578063715018a6146101fa5780637b592b571461020257600080fd5b80630c70c2811461013557806312ad7eba1461014a57806344a393f31461015d5780634b0e72161461018357806358f5ab9f14610196575b600080fd5b610148610143366004612123565b61030b565b005b61014861015836600461224e565b610337565b61017061016b366004612317565b610363565b6040519081526020015b60405180910390f35b610148610191366004612362565b61050c565b6101486101a436600461237f565b610571565b6101486101b7366004612362565b6105b1565b6065546101cf90600160a060020a031681565b604051600160a060020a03909116815260200161017a565b6066546101cf90600160a060020a031681565b61014861060d565b6101706102103660046123e6565b610646565b610228610223366004612429565b6106db565b60405161017a91906124a2565b61014861024336600461257b565b6107af565b603354600160a060020a03166101cf565b610170610267366004612613565b610a21565b61017061027a3660046126fa565b610b80565b61029261028d366004612733565b610c18565b604080519687526020870195909552938501929092526060840152608083015260a082015260c00161017a565b6101486102cd366004612362565b610de1565b6101706102e0366004612785565b610ee5565b6101486102f3366004612362565b611091565b6101706103063660046123e6565b611146565b606081015161032590600160a060020a03163330876111a3565b61033184848484611254565b50505050565b8051606082015161035791600160a060020a0390911690339030906111a3565b610360816113de565b50565b60405160e060020a6370a08231028152600160a060020a03848116600483015260009182918516906370a0823190602401602060405180830381865afa1580156103b1573d6000803e3d6000fd5b505050506040513d601f19601f820116820180604052508101906103d59190612861565b6040517f3af9e669000000000000000000000000000000000000000000000000000000008152600160a060020a038781166004830152919250600091851690633af9e669906024016020604051808303816000875af115801561043c573d6000803e3d6000fd5b505050506040513d601f19601f820116820180604052508101906104609190612861565b6040517f17bfdfbc000000000000000000000000000000000000000000000000000000008152600160a060020a0388811660048301529192506000918616906317bfdfbc906024016020604051808303816000875af11580156104c7573d6000803e3d6000fd5b505050506040513d601f19601f820116820180604052508101906104eb9190612861565b9050610501816104fb85856115f5565b90611601565b979650505050505050565b603354600160a060020a031633146105425760405160e560020a62461bcd0281526004016105399061287a565b60405180910390fd5b6066805473ffffffffffffffffffffffffffffffffffffffff1916600160a060020a0392909216919091179055565b610586600160a060020a0387163330876111a3565b61059b600160a060020a0386163330866111a3565b6105a986868686868661160d565b505050505050565b603354600160a060020a031633146105de5760405160e560020a62461bcd0281526004016105399061287a565b6065805473ffffffffffffffffffffffffffffffffffffffff1916600160a060020a0392909216919091179055565b603354600160a060020a0316331461063a5760405160e560020a62461bcd0281526004016105399061287a565b6106446000611721565b565b600061069861065d670de0b6b3a764000085611601565b61068c670de0b6b3a76400006106928a6104fb670de0b6b3a764000061068c8f8c61178090919063ffffffff16565b9061178c565b90611780565b905060006106b6876104fb670de0b6b3a764000061068c8a8a611780565b9050808211156106c4578091505b828211156106d0578291505b509695505050505050565b80516060908067ffffffffffffffff8111156106f9576106f9612046565b604051908082528060200260200182016040528015610722578160200160208202803683370190505b50915060005b818161ffff1610156107a857836107528261ffff166104fb6001885161160190919063ffffffff16565b81518110610762576107626128af565b6020026020010151838261ffff1681518110610780576107806128af565b600160a060020a03909216602092830291909101909101526107a1816128e1565b9050610728565b5050919050565b80516107c690600160a060020a03163330876111a3565b8060200151600160a060020a03168160000151600160a060020a03161461086b5761086b60405180610100016040528061080a60028861178c90919063ffffffff16565b815260200184600001518152602001846020015181526020018360000151600160a060020a031681526020018360200151600160a060020a031681526020018581526020018360600151815260200130600160a060020a03168152506113de565b8060400151600160a060020a03168160000151600160a060020a031614610910576109106040518061010001604052806108af60028861178c90919063ffffffff16565b815260200184600001518152602001846040015181526020018360000151600160a060020a031681526020018360400151600160a060020a031681526020018581526020018360800151815260200130600160a060020a03168152506113de565b602081015160405160e060020a6370a08231028152306004820152600091600160a060020a0316906370a0823190602401602060405180830381865afa15801561095e573d6000803e3d6000fd5b505050506040513d601f19601f820116820180604052508101906109829190612861565b604080840151905160e060020a6370a08231028152306004820152919250600091600160a060020a03909116906370a0823190602401602060405180830381865afa1580156109d5573d6000803e3d6000fd5b505050506040513d601f19601f820116820180604052508101906109f99190612861565b602084015160408501516066549293506105a992859085908a90600160a060020a031661160d565b6020820151600090610a3e90600160a060020a03163330876111a3565b8260200151600160a060020a03168360000151600160a060020a031614610af257610af2604051806101000160405280868152602001610a8a8660a00151600160a060020a0316611798565b8152602001610aa58660800151600160a060020a0316611798565b81526020018560200151600160a060020a031681526020018560000151600160a060020a031681526020018481526020018560c00151815260200130600160a060020a03168152506113de565b825160405160e060020a6370a08231028152306004820152600160a060020a03909116906370a0823190602401602060405180830381865afa158015610b3c573d6000803e3d6000fd5b505050506040513d601f19601f82011682018060405250810190610b609190612861565b8351909150610b7990600160a060020a031633836118e8565b9392505050565b6040517f8e8f294b000000000000000000000000000000000000000000000000000000008152600160a060020a0382811660048301526000918291851690638e8f294b9060240160c060405180830381865afa158015610be4573d6000803e3d6000fd5b505050506040513d601f19601f82011682018060405250810190610c089190612913565b5092955050505050505b92915050565b60008080808080610c298a8c611601565b6040517f17bfdfbc000000000000000000000000000000000000000000000000000000008152306004820152909650600160a060020a038916906317bfdfbc906024016020604051808303816000875af1158015610c8b573d6000803e3d6000fd5b505050506040513d601f19601f82011682018060405250810190610caf9190612861565b6040517fb9826d33000000000000000000000000000000000000000000000000000000008152600160a060020a03808c1660048301528a166024820152909550309063b9826d3390604401602060405180830381865afa158015610d17573d6000803e3d6000fd5b505050506040513d601f19601f82011682018060405250810190610d3b9190612861565b9350610d53670de0b6b3a764000061068c868a611780565b9250610d6b8661068c87670de0b6b3a7640000611780565b915087600160a060020a0316633b1d21a26040518163ffffffff1660e060020a028152600401602060405180830381865afa158015610dae573d6000803e3d6000fd5b505050506040513d601f19601f82011682018060405250810190610dd29190612861565b90509550955095509550955095565b600054610100900460ff16610dfc5760005460ff1615610e00565b303b155b610e755760405160e560020a62461bcd02815260206004820152602e60248201527f496e697469616c697a61626c653a20636f6e747261637420697320616c72656160448201527f647920696e697469616c697a65640000000000000000000000000000000000006064820152608401610539565b600054610100900460ff16158015610e97576000805461ffff19166101011790555b60658054600160a060020a03841673ffffffffffffffffffffffffffffffffffffffff19918216179091556066805490911661dead1790558015610ee1576000805461ff00191690555b5050565b6000808411610f395760405160e560020a62461bcd02815260206004820152600760248201527f6e656757616e74000000000000000000000000000000000000000000000000006044820152606401610539565b8251610f5090600160a060020a03163330876111a3565b8260200151600160a060020a03168360000151600160a060020a03161461100457611004604051806101000160405280868152602001610f9c8660600151600160a060020a0316611798565b8152602001610fb78660800151600160a060020a0316611798565b81526020018560000151600160a060020a031681526020018560200151600160a060020a031681526020018481526020018560a00151815260200130600160a060020a03168152506113de565b602083015160405160e060020a6370a08231028152306004820152600160a060020a03909116906370a0823190602401602060405180830381865afa158015611051573d6000803e3d6000fd5b505050506040513d601f19601f820116820180604052508101906110759190612861565b6020840151909150610b7990600160a060020a031633836118e8565b603354600160a060020a031633146110be5760405160e560020a62461bcd0281526004016105399061287a565b600160a060020a03811661113d5760405160e560020a62461bcd02815260206004820152602660248201527f4f776e61626c653a206e6577206f776e657220697320746865207a65726f206160448201527f64647265737300000000000000000000000000000000000000000000000000006064820152608401610539565b61036081611721565b600061117f61115d670de0b6b3a764000085611601565b61068c670de0b6b3a764000061069261117882848a8f611780565b8b90611601565b905060006106b661119c8661068c8a670de0b6b3a7640000611780565b8790611601565b604051600160a060020a03808516602483015283166044820152606481018290526103319085907f23b872dd00000000000000000000000000000000000000000000000000000000906084015b60408051601f198184030181529190526020810180517bffffffffffffffffffffffffffffffffffffffffffffffffffffffff167fffffffff0000000000000000000000000000000000000000000000000000000090931692909217909152611931565b60008060008360400151600160a060020a03166318160ddd6040518163ffffffff1660e060020a028152600401602060405180830381865afa15801561129e573d6000803e3d6000fd5b505050506040513d601f19601f820116820180604052508101906112c29190612861565b90506112d98785600001518660400151848a611a19565b92506112f08785602001518660400151848a611a19565b606554606086015191935061131291600160a060020a03908116911689611aa3565b60655484516020860151600160a060020a039092169163baa2abde91908a87878b61133f426102586115f5565b60405163ffffffff891660e060020a028152600160a060020a039788166004820152958716602487015260448601949094526064850192909252608484015290921660a482015260c481019190915260e40160408051808303816000875af11580156113af573d6000803e3d6000fd5b505050506040513d601f19601f820116820180604052508101906113d39190612964565b505050505050505050565b6065548151606083015161140092600160a060020a0391821692911690611aa3565b6040805160028082526060820183526000926020830190803683370190505090508160600151600160a060020a031663313ce5676040518163ffffffff1660e060020a028152600401602060405180830381865afa158015611466573d6000803e3d6000fd5b505050506040513d601f19601f8201168201806040525081019061148a9190612988565b8160008151811061149d5761149d6128af565b602002602001019060ff16908160ff16815250508160800151600160a060020a031663313ce5676040518163ffffffff1660e060020a028152600401602060405180830381865afa1580156114f6573d6000803e3d6000fd5b505050506040513d601f19601f8201168201806040525081019061151a9190612988565b8160018151811061152d5761152d6128af565b60ff92909216602092830291909101820152604080516002808252606082018352600093919290918301908036833701905050905082602001518160008151811061157a5761157a6128af565b60200260200101818152505082604001518160018151811061159e5761159e6128af565b6020026020010181815250506115f08360000151828560a001518660c00151868860e001516115d8610258426115f590919063ffffffff16565b606554600160a060020a031696959493929190611b87565b505050565b6000610b7982846129ab565b6000610b7982846129c3565b60655461162790600160a060020a03888116911686611aa3565b60655461164190600160a060020a03878116911685611aa3565b606554600160a060020a031663e8e33700878787876116666103e861068c848b611780565b6116766103e861068c8c8c611780565b88611683426102586115f5565b60405163ffffffff8a1660e060020a028152600160a060020a039889166004820152968816602488015260448701959095526064860193909352608485019190915260a484015290921660c482015260e4810191909152610104016060604051808303816000875af11580156116fd573d6000803e3d6000fd5b505050506040513d601f19601f820116820180604052508101906113d391906129da565b60338054600160a060020a0383811673ffffffffffffffffffffffffffffffffffffffff19831681179093556040519116919082907f8be0079c531659141344cd1fd0a4f28419497f9722a3daafe3b4186f6b6457e090600090a35050565b6000610b798284612a08565b6000610b798284612a27565b60008082600160a060020a031663313ce5676040518163ffffffff1660e060020a028152600401602060405180830381865afa1580156117dc573d6000803e3d6000fd5b505050506040513d601f19601f820116820180604052508101906118009190612988565b9050600083600160a060020a031663feaf968c6040518163ffffffff1660e060020a02815260040160a060405180830381865afa158015611845573d6000803e3d6000fd5b505050506040513d601f19601f820116820180604052508101906118699190612a66565b50505091505060008112156118c35760405160e560020a62461bcd02815260206004820152601660248201527f6e656720707269636573206e6f7420616c6c6f776564000000000000000000006044820152606401610539565b6118e06118d183600a612b9d565b61068c8364e8d4a51000611780565b949350505050565b604051600160a060020a0383166024820152604481018290526115f09084907fa9059cbb00000000000000000000000000000000000000000000000000000000906064016111f0565b6000611986826040518060400160405280602081526020017f5361666545524332303a206c6f772d6c6576656c2063616c6c206661696c656481525085600160a060020a0316611d079092919063ffffffff16565b8051909150156115f057808060200190518101906119a49190612bac565b6115f05760405160e560020a62461bcd02815260206004820152602a60248201527f5361666545524332303a204552433230206f7065726174696f6e20646964206e60448201527f6f742073756363656564000000000000000000000000000000000000000000006064820152608401610539565b60405160e060020a6370a08231028152600160a060020a03848116600483015260009182918716906370a0823190602401602060405180830381865afa158015611a67573d6000803e3d6000fd5b505050506040513d601f19601f82011682018060405250810190611a8b9190612861565b90506105016103e861068c8561069288838d88611780565b6040517fdd62ed3e000000000000000000000000000000000000000000000000000000008152306004820152600160a060020a038381166024830152600091839186169063dd62ed3e90604401602060405180830381865afa158015611b0d573d6000803e3d6000fd5b505050506040513d601f19601f82011682018060405250810190611b319190612861565b611b3b91906129ab565b604051600160a060020a0385166024820152604481018290529091506103319085907f095ea7b300000000000000000000000000000000000000000000000000000000906064016111f0565b8251600214611bdb5760405160e560020a62461bcd02815260206004820152600b60248201527f696e76616c6964206465630000000000000000000000000000000000000000006044820152606401610539565b600086600081518110611bf057611bf06128af565b602002602001015160001480611c20575086600181518110611c1457611c146128af565b60200260200101516000145b15611c3957611c328989878988611d16565b9050611c7d565b611c7a8888600081518110611c5057611c506128af565b602002602001015189600181518110611c6b57611c6b6128af565b60200260200101518988611e2b565b90505b6040517f5c11d795000000000000000000000000000000000000000000000000000000008152600160a060020a038a1690635c11d79590611cca908b9085908a9089908990600401612bc7565b600060405180830381600087803b158015611ce457600080fd5b505af1158015611cf8573d6000803e3d6000fd5b50505050505050505050505050565b60606118e08484600085611ea6565b60008086600160a060020a031663d06ca61f87876040518363ffffffff1660e060020a028152600401611d4a929190612c03565b600060405180830381865afa158015611d67573d6000803e3d6000fd5b505050506040513d6000823e601f3d908101601f19168201604052611d8f9190810190612c1c565b9050610501611dc16103e885600081518110611dad57611dad6128af565b6020026020010151600a6106929190612b9d565b61068c85600181518110611dd757611dd76128af565b6020026020010151600a611deb9190612b9d565b6106928886611e056001895161160190919063ffffffff16565b81518110611e1557611e156128af565b602002602001015161178090919063ffffffff16565b6000611e9c611e6683600081518110611e4657611e466128af565b6020026020010151600a611e5a9190612b9d565b610692876103e8611780565b61068c84600181518110611e7c57611e7c6128af565b6020026020010151600a611e909190612b9d565b61069287818c8c611780565b9695505050505050565b60603031831115611f225760405160e560020a62461bcd02815260206004820152602660248201527f416464726573733a20696e73756666696369656e742062616c616e636520666f60448201527f722063616c6c00000000000000000000000000000000000000000000000000006064820152608401610539565b600160a060020a0385163b611f7c5760405160e560020a62461bcd02815260206004820152601d60248201527f416464726573733a2063616c6c20746f206e6f6e2d636f6e74726163740000006044820152606401610539565b60008086600160a060020a03168587604051611f989190612ccb565b60006040518083038185875af1925050503d8060008114611fd5576040519150601f19603f3d011682016040523d82523d6000602084013e611fda565b606091505b509150915061050182828660608315611ff4575081610b79565b8251156120045782518084602001fd5b8160405160e560020a62461bcd0281526004016105399190612ce7565b600160a060020a038116811461036057600080fd5b803561204181612021565b919050565b60e060020a634e487b7102600052604160045260246000fd5b6040516080810167ffffffffffffffff8111828210171561208257612082612046565b60405290565b604051610100810167ffffffffffffffff8111828210171561208257612082612046565b60405160e0810167ffffffffffffffff8111828210171561208257612082612046565b60405160c0810167ffffffffffffffff8111828210171561208257612082612046565b604051601f8201601f1916810167ffffffffffffffff8111828210171561211b5761211b612046565b604052919050565b60008060008084860360e081121561213a57600080fd5b8535945060208601359350604086013561215381612021565b92506080605f198201121561216757600080fd5b5061217061205f565b606086013561217e81612021565b8152608086013561218e81612021565b602082015260a08601356121a181612021565b604082015260c08601356121b481612021565b6060820152939692955090935050565b600067ffffffffffffffff8211156121de576121de612046565b5060209081020190565b600082601f8301126121f957600080fd5b8135602061220e612209836121c4565b6120f2565b8281529181028401810191818101908684111561222a57600080fd5b8286015b848110156106d057803561224181612021565b835291830191830161222e565b60006020828403121561226057600080fd5b813567ffffffffffffffff8082111561227857600080fd5b90830190610100828603121561228d57600080fd5b612295612088565b8235815260208301356020820152604083013560408201526122b960608401612036565b60608201526122ca60808401612036565b608082015260a083013560a082015260c0830135828111156122eb57600080fd5b6122f7878286016121e8565b60c08301525061230960e08401612036565b60e082015295945050505050565b60008060006060848603121561232c57600080fd5b833561233781612021565b9250602084013561234781612021565b9150604084013561235781612021565b809150509250925092565b60006020828403121561237457600080fd5b8135610b7981612021565b60008060008060008060c0878903121561239857600080fd5b86356123a381612021565b955060208701356123b381612021565b945060408701359350606087013592506080870135915060a08701356123d881612021565b809150509295509295509295565b60008060008060008060c087890312156123ff57600080fd5b505084359660208601359650604086013595606081013595506080810135945060a0013592509050565b60006020828403121561243b57600080fd5b813567ffffffffffffffff81111561245257600080fd5b6118e0848285016121e8565b600081518084526020808501945080840160005b83811015612497578151600160a060020a031687529582019590820190600101612472565b509495945050505050565b602081526000610b79602083018461245e565b600060a082840312156124c757600080fd5b60405160a0810167ffffffffffffffff82821081831117156124eb576124eb612046565b81604052829350843591506124ff82612021565b90825260208401359061251182612021565b81602084015261252360408601612036565b6040840152606085013591508082111561253c57600080fd5b612548868387016121e8565b6060840152608085013591508082111561256157600080fd5b5061256e858286016121e8565b6080830152505092915050565b60008060008084860360e081121561259257600080fd5b85359450602086013593506080603f19820112156125af57600080fd5b506125b861205f565b60408601358152606086013560208201526080860135604082015260a086013560608201528092505060c085013567ffffffffffffffff8111156125fb57600080fd5b612607878288016124b5565b91505092959194509250565b60008060006060848603121561262857600080fd5b83359250602084013567ffffffffffffffff8082111561264757600080fd5b9085019060e0828803121561265b57600080fd5b6126636120ac565b61266c83612036565b815261267a60208401612036565b602082015261268b60408401612036565b604082015261269c60608401612036565b60608201526126ad60808401612036565b60808201526126be60a08401612036565b60a082015260c0830135828111156126d557600080fd5b6126e1898286016121e8565b60c0830152509497949650505050604092909201359150565b6000806040838503121561270d57600080fd5b823561271881612021565b9150602083013561272881612021565b809150509250929050565b600080600080600060a0868803121561274b57600080fd5b8535945060208601359350604086013561276481612021565b9250606086013561277481612021565b949793965091946080013592915050565b60008060006060848603121561279a57600080fd5b83359250602084013567ffffffffffffffff808211156127b957600080fd5b9085019060c082880312156127cd57600080fd5b6127d56120cf565b82356127e081612021565b815260208301356127f081612021565b6020820152604083013561280381612021565b604082015261281460608401612036565b606082015261282560808401612036565b608082015260a08301358281111561283c57600080fd5b612848898286016121e8565b60a0830152509497949650505050604092909201359150565b60006020828403121561287357600080fd5b5051919050565b6020808252818101527f4f776e61626c653a2063616c6c6572206973206e6f7420746865206f776e6572604082015260600190565b60e060020a634e487b7102600052603260045260246000fd5b60e060020a634e487b7102600052601160045260246000fd5b600061ffff808316818114156128f9576128f96128c8565b6001019392505050565b8051801515811461204157600080fd5b60008060008060008060c0878903121561292c57600080fd5b61293587612903565b95506020870151945060408701519350606087015192506080870151915060a087015190509295509295509295565b6000806040838503121561297757600080fd5b505080516020909101519092909150565b60006020828403121561299a57600080fd5b815160ff81168114610b7957600080fd5b600082198211156129be576129be6128c8565b500190565b6000828210156129d5576129d56128c8565b500390565b6000806000606084860312156129ef57600080fd5b8351925060208401519150604084015190509250925092565b6000816000190483118215151615612a2257612a226128c8565b500290565b600082612a475760e060020a634e487b7102600052601260045260246000fd5b500490565b805169ffffffffffffffffffff8116811461204157600080fd5b600080600080600060a08688031215612a7e57600080fd5b612a8786612a4c565b9450602086015193506040860151925060608601519150612aaa60808701612a4c565b90509295509295909350565b600181815b80851115612af3578160001904821115612ad757612ad76128c8565b80851615612ae457918102915b60029094049390800290612abb565b509250929050565b600082612b0a57506001610c12565b81612b1757506000610c12565b8160018114612b2d5760028114612b3757612b54565b6001915050610c12565b60ff841115612b4857612b486128c8565b8360020a915050610c12565b5060208310610133831016604e8410600b8410161715612b77575081810a610c12565b612b818383612ab6565b8060001904821115612b9557612b956128c8565b029392505050565b6000610b7960ff841683612afb565b600060208284031215612bbe57600080fd5b610b7982612903565b85815284602082015260a060408201526000612be660a083018661245e565b600160a060020a0394909416606083015250608001529392505050565b8281526040602082015260006118e0604083018461245e565b60006020808385031215612c2f57600080fd5b825167ffffffffffffffff811115612c4657600080fd5b8301601f81018513612c5757600080fd5b8051612c65612209826121c4565b81815290830282018301908381019087831115612c8157600080fd5b928401925b8284101561050157835182529284019290840190612c86565b60005b83811015612cba578181015183820152602001612ca2565b838111156103315750506000910152565b60008251612cdd818460208701612c9f565b9190910192915050565b6020815260008251806020840152612d06816040850160208701612c9f565b601f01601f1916919091016040019291505056fea2646970667358221220476b5842e47f79997ce3e2cd16140cb0b0e5109ad4e167df7fa602232949256864736f6c634300080a0033",
  "immutableReferences": {},
  "source": "// SPDX-License-Identifier: MIT\n\npragma solidity ^0.8.0;\n\nimport \"./_VaultActionsLending.sol\";\n\nimport \"../../interfaces/ApeLending/IUnitroller.sol\";\n\ncontract VaultActionsApeLending is VaultActionsLending {\n    /* Utilities */\n\n    /// @notice Gets loan collateral factor from lending protocol\n    /// @return collFactor The collateral factor %. TODO: Specify denominator (1e18?) Check against consuming logic.\n    /// @param _comptrollerAddress Address of the ApeLending Unitroller proxy\n    /// @param _poolAddress Address of the lending pool\n    function collateralFactor(address _comptrollerAddress, address _poolAddress)\n        public\n        view\n        override\n        returns (uint256 collFactor)\n    {\n        (, uint256 _collateralFactor, , , , ) = IUnitrollerApeLending(\n            _comptrollerAddress\n        ).markets(_poolAddress);\n        return _collateralFactor;\n    }\n}\n",
  "sourcePath": "/Users/kristophm/Documents/workspace/zorro-protocol/contracts/vaults/actions/VaultActionsApeLending.sol",
  "compiler": {
    "name": "solc",
    "version": "0.8.10+commit.fc410830.Emscripten.clang"
  },
  "schemaVersion": "3.4.10",
  "updatedAt": "2022-11-22T13:22:22.786Z",
  "devdoc": {
    "kind": "dev",
    "methods": {
      "buybackBurnLP(uint256,uint256,(uint256,uint256,uint256,uint256),(address,address,address,address[],address[]))": {
        "params": {
          "_amount": "The amount of Earn token to swap and buy back",
          "_maxMarketMovementAllowed": "Acceptable slippage (990 = 1%)",
          "_params": "An BuybackBurnLPParams struct specifying buyback parameters",
          "_rates": "An ExchangeRates struct"
        }
      },
      "calcIncBorrowAboveTarget(uint256,uint256,uint256,uint256,uint256,uint256)": {
        "params": {
          "_c": "Collateral factor",
          "_liquidityAvailable": "Liquidity available in underlying pool",
          "_ox": "Initial supply (gross of withdrawal amount)",
          "_targetLeverage": "Target leverage amount",
          "_x": "Supply amount",
          "_y": "Borrow amount"
        },
        "returns": {
          "dy": "The incremental amount to be borrowed"
        }
      },
      "calcIncBorrowBelowTarget(uint256,uint256,uint256,uint256,uint256,uint256)": {
        "params": {
          "_c": "Collateral factor",
          "_liquidityAvailable": "Liquidity available in underlying pool",
          "_ox": "Initial supply (gross of withdrawal amount)",
          "_targetLeverage": "Target leverage amount",
          "_x": "Supply amount",
          "_y": "Borrow amount"
        },
        "returns": {
          "dy": "The incremental amount to be borrowed"
        }
      },
      "collateralFactor(address,address)": {
        "params": {
          "_comptrollerAddress": "Address of the ApeLending Unitroller proxy",
          "_poolAddress": "Address of the lending pool"
        },
        "returns": {
          "collFactor": "The collateral factor %. TODO: Specify denominator (1e18?) Check against consuming logic."
        }
      },
      "exchangeUSDForWantToken(uint256,(address,address,address,address,address,address,address[]),uint256)": {
        "params": {
          "_amountUSD": "The USD quantity to exchange (must already be deposited)",
          "_maxMarketMovementAllowed": "The max slippage allowed. 1000 = 0 %, 995 = 0.5%, etc.",
          "_params": "A ExchangeUSDForWantParams struct"
        },
        "returns": {
          "wantObtained": "Amount of Want token obtained"
        }
      },
      "exchangeWantTokenForUSD(uint256,(address,address,address,address,address,address[]),uint256)": {
        "params": {
          "_amount": "The Want token quantity to exchange (must be deposited beforehand)",
          "_maxMarketMovementAllowed": "The max slippage allowed for swaps. 1000 = 0 %, 995 = 0.5%, etc.",
          "_params": "A ExchangeWantTokenForUSDParams struct"
        },
        "returns": {
          "usdObtained": "Amount of USD token obtained"
        }
      },
      "exitPool(uint256,uint256,address,(address,address,address,address))": {
        "details": "NOTE: Requires caller to approve want token spending",
        "params": {
          "_amountLP": "The amount of LP (Want) tokens to remove",
          "_maxMarketMovementAllowed": "The max slippage allowed for swaps. 1000 = 0 %, 995 = 0.5%, etc.",
          "_recipient": "The recipient of the underlying tokens at pool exit"
        }
      },
      "initialize(address)": {
        "params": {
          "_uniRouterAddress": "Address of Uniswap style router"
        }
      },
      "joinPool(address,address,uint256,uint256,uint256,address)": {
        "details": "NOTE: Requires spending approval by caller",
        "params": {
          "_maxMarketMovementAllowed": "The max slippage allowed for swaps. 1000 = 0 %, 995 = 0.5%, etc.",
          "_recipient": "The recipient of the LP token",
          "_token0": "The address of Token0",
          "_token0Amt": "Quantity of Token0 to add",
          "_token1": "The address of Token1",
          "_token1Amt": "Quantity of Token1 to add"
        }
      },
      "levLendingParams(uint256,uint256,address,address,uint256)": {
        "params": {
          "_comptrollerAddress": "Address of protocol comptroller",
          "_ox": "Raw supply (before any withdrawal)",
          "_poolAddress": "Address of lending pool",
          "_targetBorrowLimit": "Target borrow %",
          "_withdrawAmt": "Amount to withdraw"
        },
        "returns": {
          "c": "Collateral factor",
          "currentL": "Current leverage",
          "liquidityAvailable": "Total liquidity avaialble in pool",
          "targetL": "Target leverage threshold",
          "x": "Adjusted supply (accounts amount to withdraw)",
          "y": "Amount borrowed"
        }
      },
      "owner()": {
        "details": "Returns the address of the current owner."
      },
      "renounceOwnership()": {
        "details": "Leaves the contract without owner. It will not be possible to call `onlyOwner` functions anymore. Can only be called by the current owner. NOTE: Renouncing ownership will leave the contract without an owner, thereby removing any functionality that is only available to the owner."
      },
      "reversePath(address[])": {
        "params": {
          "_path": "The swap path to be reversed"
        },
        "returns": {
          "_newPath": "An reversed path array"
        }
      },
      "safeSwap((uint256,uint256,uint256,address,address,uint256,address[],address))": {
        "details": "NOTE: Caller must approve tokens for spending beforehand",
        "params": {
          "_swapParams": "SafeSwapParams for swap"
        }
      },
      "transferOwnership(address)": {
        "details": "Transfers ownership of the contract to a new account (`newOwner`). Can only be called by the current owner."
      },
      "wantTokenLockedAdj(address,address,address)": {
        "params": {
          "_poolAddress": "The address of the lending pool",
          "_tokenAddress": "The address of the underlying token",
          "_vault": "The vault to check balances of"
        },
        "returns": {
          "amtLocked": "The adjusted wantLockedTotal quantity"
        }
      }
    },
    "version": 1
  },
  "userdoc": {
    "kind": "user",
    "methods": {
      "buybackBurnLP(uint256,uint256,(uint256,uint256,uint256,uint256),(address,address,address,address[],address[]))": {
        "notice": "Buys back earn token, adds liquidity, and burns the LP token"
      },
      "calcIncBorrowAboveTarget(uint256,uint256,uint256,uint256,uint256,uint256)": {
        "notice": "Calculates incremental borrow amount (_dy) when above leverage target hysteresis envelope"
      },
      "calcIncBorrowBelowTarget(uint256,uint256,uint256,uint256,uint256,uint256)": {
        "notice": "Calculates incremental borrow amount (_dy) when below leverage target hysteresis envelope"
      },
      "collateralFactor(address,address)": {
        "notice": "Gets loan collateral factor from lending protocol"
      },
      "exchangeUSDForWantToken(uint256,(address,address,address,address,address,address,address[]),uint256)": {
        "notice": "Performs necessary operations to convert USD into Want token"
      },
      "exchangeWantTokenForUSD(uint256,(address,address,address,address,address,address[]),uint256)": {
        "notice": "Converts Want token back into USD to be ready for withdrawal and transfers to sender"
      },
      "exitPool(uint256,uint256,address,(address,address,address,address))": {
        "notice": "Removes liquidity from a pool and sends tokens back to this address"
      },
      "initialize(address)": {
        "notice": "Constructor"
      },
      "joinPool(address,address,uint256,uint256,uint256,address)": {
        "notice": "Adds liquidity to the pool of this contract"
      },
      "levLendingParams(uint256,uint256,address,address,uint256)": {
        "notice": "Calculates leveraged lending parameters for supply/borrow rebalancing"
      },
      "reversePath(address[])": {
        "notice": "Gets the swap path in the opposite direction of a trade"
      },
      "safeSwap((uint256,uint256,uint256,address,address,uint256,address[],address))": {
        "notice": "Safely swaps tokens using the most suitable protocol based on token"
      },
      "wantTokenLockedAdj(address,address,address)": {
        "notice": "Calc want token locked, accounting for leveraged supply/borrow"
      }
    },
    "version": 1
  }
}