{
  "contractName": "VaultActionsAlpaca",
  "abi": [
    {
      "anonymous": false,
      "inputs": [
        {
          "indexed": true,
          "internalType": "uint256",
          "name": "wantRemaining",
          "type": "uint256"
        },
        {
          "indexed": true,
          "internalType": "uint256",
          "name": "xChainBuybackAmt",
          "type": "uint256"
        },
        {
          "indexed": true,
          "internalType": "uint256",
          "name": "xChainRevShareAmt",
          "type": "uint256"
        }
      ],
      "name": "DistributedEarnings",
      "type": "event"
    },
    {
      "anonymous": false,
      "inputs": [
        {
          "indexed": true,
          "internalType": "address",
          "name": "previousOwner",
          "type": "address"
        },
        {
          "indexed": true,
          "internalType": "address",
          "name": "newOwner",
          "type": "address"
        }
      ],
      "name": "OwnershipTransferred",
      "type": "event"
    },
    {
      "inputs": [],
      "name": "burnAddress",
      "outputs": [
        {
          "internalType": "address",
          "name": "",
          "type": "address"
        }
      ],
      "stateMutability": "view",
      "type": "function"
    },
    {
      "inputs": [
        {
          "internalType": "uint256",
          "name": "_amount",
          "type": "uint256"
        },
        {
          "internalType": "uint256",
          "name": "_maxMarketMovementAllowed",
          "type": "uint256"
        },
        {
          "components": [
            {
              "internalType": "address",
              "name": "ZORROAddress",
              "type": "address"
            },
            {
              "internalType": "address",
              "name": "rewardsAddress",
              "type": "address"
            },
            {
              "internalType": "address",
              "name": "stablecoin",
              "type": "address"
            },
            {
              "internalType": "address",
              "name": "zorroStakingVault",
              "type": "address"
            },
            {
              "internalType": "address",
              "name": "zorroLPPoolOtherToken",
              "type": "address"
            },
            {
              "internalType": "contract AggregatorV3Interface",
              "name": "ZORPriceFeed",
              "type": "address"
            },
            {
              "internalType": "contract AggregatorV3Interface",
              "name": "lpPoolOtherTokenPriceFeed",
              "type": "address"
            },
            {
              "internalType": "contract AggregatorV3Interface",
              "name": "stablecoinPriceFeed",
              "type": "address"
            },
            {
              "internalType": "address[]",
              "name": "stablecoinToZORROPath",
              "type": "address[]"
            },
            {
              "internalType": "address[]",
              "name": "stablecoinToZORLPPoolOtherTokenPath",
              "type": "address[]"
            },
            {
              "internalType": "uint16",
              "name": "controllerFeeBP",
              "type": "uint16"
            },
            {
              "internalType": "uint16",
              "name": "buybackBP",
              "type": "uint16"
            },
            {
              "internalType": "uint16",
              "name": "revShareBP",
              "type": "uint16"
            },
            {
              "internalType": "bool",
              "name": "isHomeChain",
              "type": "bool"
            }
          ],
          "internalType": "struct IVaultActions.DistributeEarningsParams",
          "name": "_params",
          "type": "tuple"
        }
      ],
      "name": "distributeAndReinvestEarnings",
      "outputs": [
        {
          "internalType": "uint256",
          "name": "wantRemaining",
          "type": "uint256"
        },
        {
          "internalType": "uint256",
          "name": "xChainBuybackAmt",
          "type": "uint256"
        },
        {
          "internalType": "uint256",
          "name": "xChainRevShareAmt",
          "type": "uint256"
        }
      ],
      "stateMutability": "nonpayable",
      "type": "function"
    },
    {
      "inputs": [
        {
          "internalType": "uint256",
          "name": "_amountUSD",
          "type": "uint256"
        },
        {
          "internalType": "uint256",
          "name": "_maxMarketMovementAllowed",
          "type": "uint256"
        }
      ],
      "name": "exchangeUSDForWantToken",
      "outputs": [
        {
          "internalType": "uint256",
          "name": "wantObtained",
          "type": "uint256"
        }
      ],
      "stateMutability": "nonpayable",
      "type": "function"
    },
    {
      "inputs": [
        {
          "internalType": "uint256",
          "name": "_amount",
          "type": "uint256"
        },
        {
          "internalType": "uint256",
          "name": "_maxMarketMovementAllowed",
          "type": "uint256"
        }
      ],
      "name": "exchangeWantTokenForUSD",
      "outputs": [
        {
          "internalType": "uint256",
          "name": "usdObtained",
          "type": "uint256"
        }
      ],
      "stateMutability": "nonpayable",
      "type": "function"
    },
    {
      "inputs": [
        {
          "internalType": "uint256",
          "name": "_amountLP",
          "type": "uint256"
        },
        {
          "internalType": "uint256",
          "name": "_maxMarketMovementAllowed",
          "type": "uint256"
        },
        {
          "internalType": "address",
          "name": "_recipient",
          "type": "address"
        },
        {
          "components": [
            {
              "internalType": "address",
              "name": "token0",
              "type": "address"
            },
            {
              "internalType": "address",
              "name": "token1",
              "type": "address"
            },
            {
              "internalType": "address",
              "name": "poolAddress",
              "type": "address"
            },
            {
              "internalType": "address",
              "name": "lpTokenAddress",
              "type": "address"
            }
          ],
          "internalType": "struct IVaultActions.ExitPoolParams",
          "name": "_exitPoolParams",
          "type": "tuple"
        }
      ],
      "name": "exitPool",
      "outputs": [],
      "stateMutability": "nonpayable",
      "type": "function"
    },
    {
      "inputs": [
        {
          "internalType": "address",
          "name": "_uniRouterAddress",
          "type": "address"
        }
      ],
      "name": "initialize",
      "outputs": [],
      "stateMutability": "nonpayable",
      "type": "function"
    },
    {
      "inputs": [
        {
          "internalType": "address",
          "name": "_token0",
          "type": "address"
        },
        {
          "internalType": "address",
          "name": "_token1",
          "type": "address"
        },
        {
          "internalType": "uint256",
          "name": "_token0Amt",
          "type": "uint256"
        },
        {
          "internalType": "uint256",
          "name": "_token1Amt",
          "type": "uint256"
        },
        {
          "internalType": "uint256",
          "name": "_maxMarketMovementAllowed",
          "type": "uint256"
        },
        {
          "internalType": "address",
          "name": "_recipient",
          "type": "address"
        }
      ],
      "name": "joinPool",
      "outputs": [],
      "stateMutability": "nonpayable",
      "type": "function"
    },
    {
      "inputs": [],
      "name": "owner",
      "outputs": [
        {
          "internalType": "address",
          "name": "",
          "type": "address"
        }
      ],
      "stateMutability": "view",
      "type": "function"
    },
    {
      "inputs": [],
      "name": "renounceOwnership",
      "outputs": [],
      "stateMutability": "nonpayable",
      "type": "function"
    },
    {
      "inputs": [
        {
          "internalType": "address[]",
          "name": "_path",
          "type": "address[]"
        }
      ],
      "name": "reversePath",
      "outputs": [
        {
          "internalType": "address[]",
          "name": "newPath",
          "type": "address[]"
        }
      ],
      "stateMutability": "pure",
      "type": "function"
    },
    {
      "inputs": [
        {
          "components": [
            {
              "internalType": "uint256",
              "name": "amountIn",
              "type": "uint256"
            },
            {
              "internalType": "uint256",
              "name": "priceToken0",
              "type": "uint256"
            },
            {
              "internalType": "uint256",
              "name": "priceToken1",
              "type": "uint256"
            },
            {
              "internalType": "address",
              "name": "token0",
              "type": "address"
            },
            {
              "internalType": "address",
              "name": "token1",
              "type": "address"
            },
            {
              "internalType": "uint256",
              "name": "maxMarketMovementAllowed",
              "type": "uint256"
            },
            {
              "internalType": "address[]",
              "name": "path",
              "type": "address[]"
            },
            {
              "internalType": "address",
              "name": "destination",
              "type": "address"
            }
          ],
          "internalType": "struct SafeSwapUni.SafeSwapParams",
          "name": "_swapParams",
          "type": "tuple"
        }
      ],
      "name": "safeSwap",
      "outputs": [],
      "stateMutability": "nonpayable",
      "type": "function"
    },
    {
      "inputs": [
        {
          "internalType": "address",
          "name": "_burnAddress",
          "type": "address"
        }
      ],
      "name": "setBurnAddress",
      "outputs": [],
      "stateMutability": "nonpayable",
      "type": "function"
    },
    {
      "inputs": [
        {
          "internalType": "address",
          "name": "_uniRouterAddress",
          "type": "address"
        }
      ],
      "name": "setUniRouterAddress",
      "outputs": [],
      "stateMutability": "nonpayable",
      "type": "function"
    },
    {
      "inputs": [
        {
          "internalType": "address",
          "name": "newOwner",
          "type": "address"
        }
      ],
      "name": "transferOwnership",
      "outputs": [],
      "stateMutability": "nonpayable",
      "type": "function"
    },
    {
      "inputs": [],
      "name": "uniRouterAddress",
      "outputs": [
        {
          "internalType": "address",
          "name": "",
          "type": "address"
        }
      ],
      "stateMutability": "view",
      "type": "function"
    },
    {
      "inputs": [
        {
          "internalType": "address",
          "name": "_vaultAddr",
          "type": "address"
        }
      ],
      "name": "unrealizedProfits",
      "outputs": [
        {
          "internalType": "uint256",
          "name": "accumulatedProfit",
          "type": "uint256"
        },
        {
          "internalType": "uint256",
          "name": "harvestableProfit",
          "type": "uint256"
        }
      ],
      "stateMutability": "view",
      "type": "function"
    },
    {
      "inputs": [
        {
          "internalType": "address",
          "name": "_vaultAddr",
          "type": "address"
        }
      ],
      "name": "currentWantEquity",
      "outputs": [
        {
          "internalType": "uint256",
          "name": "positionVal",
          "type": "uint256"
        }
      ],
      "stateMutability": "view",
      "type": "function"
    }
  ],
  "bytecode": "0x608060405234801561001057600080fd5b5061379a806100206000396000f3fe608060405234801561001057600080fd5b506004361061010f5760003560e060020a9004806370d5ae05116100a6578063a0e16faf11610075578063a0e16faf14610240578063c4d66de814610268578063e502a88d1461027b578063f2fde38b1461028e578063f55850b4146102a157600080fd5b806370d5ae05146101f4578063715018a6146102075780638b4c5aee1461020f5780638da5cb5b1461022f57600080fd5b80635da79d63116100e25780635da79d6314610162578063648794a414610175578063693a090b1461019b5780636945292a146101c657600080fd5b80630c70c2811461011457806312ad7eba146101295780634b0e72161461013c57806358f5ab9f1461014f575b600080fd5b610127610122366004612dc8565b6102b4565b005b610127610137366004612f1c565b6102e0565b61012761014a366004612fe5565b61030c565b61012761015d366004613002565b610371565b610127610170366004612fe5565b6103b1565b610188610183366004613069565b61040d565b6040519081526020015b60405180910390f35b6065546101ae90600160a060020a031681565b604051600160a060020a039091168152602001610192565b6101d96101d43660046130bf565b610570565b60408051938452602084019290925290820152606001610192565b6066546101ae90600160a060020a031681565b61012761078e565b61022261021d366004613242565b6107c7565b60405161019291906132bb565b603354600160a060020a03166101ae565b61025361024e366004612fe5565b61089b565b60408051928352602083019190915201610192565b610127610276366004612fe5565b610a13565b610188610289366004613069565b610b17565b61012761029c366004612fe5565b610c09565b6101886102af366004612fe5565b610cbe565b60608101516102ce90600160a060020a031633308761125b565b6102da8484848461130c565b50505050565b8051606082015161030091600160a060020a03909116903390309061125b565b61030981611426565b50565b603354600160a060020a031633146103425760405160e560020a62461bcd028152600401610339906132ce565b60405180910390fd5b6066805473ffffffffffffffffffffffffffffffffffffffff1916600160a060020a0392909216919091179055565b610386600160a060020a03871633308761125b565b61039b600160a060020a03861633308661125b565b6103a9868686868686611636565b505050505050565b603354600160a060020a031633146103de5760405160e560020a62461bcd028152600401610339906132ce565b6065805473ffffffffffffffffffffffffffffffffffffffff1916600160a060020a0392909216919091179055565b60008083116104615760405160e560020a62461bcd02815260206004820152600760248201527f6e656757616e74000000000000000000000000000000000000000000000000006044820152606401610339565b600033600160a060020a031663e7a036796040518163ffffffff1660e060020a028152600401602060405180830381865afa1580156104a4573d6000803e3d6000fd5b505050506040513d601f19601f820116820180604052508101906104c89190613303565b9050600033600160a060020a031663b61bb80a6040518163ffffffff1660e060020a028152600401602060405180830381865afa15801561050d573d6000803e3d6000fd5b505050506040513d601f19601f820116820180604052508101906105319190613303565b9050610548600160a060020a03831633308861125b565b6105528585611763565b9250610568600160a060020a0382163385611a5a565b505092915050565b600080808033600160a060020a031663e7a036796040518163ffffffff1660e060020a028152600401602060405180830381865afa1580156105b6573d6000803e3d6000fd5b505050506040513d601f19601f820116820180604052508101906105da9190613303565b9050600033600160a060020a031663b61bb80a6040518163ffffffff1660e060020a028152600401602060405180830381865afa15801561061f573d6000803e3d6000fd5b505050506040513d601f19601f820116820180604052508101906106439190613303565b905061065a600160a060020a03831633308b61125b565b6000610667898989611aa3565b9096509450905061068c8461067c8784613339565b6106869190613339565b89611c7d565b95506106a2600160a060020a0384163388611a5a565b60405160e060020a6370a08231028152306004820152600090600160a060020a038416906370a0823190602401602060405180830381865afa1580156106ec573d6000803e3d6000fd5b505050506040513d601f19601f820116820180604052508101906107109190613350565b905061071c8587613369565b6107268288613381565b61073091906133a0565b955061073c8682613339565b9450610752600160a060020a0385163383611a5a565b8486887f7b5c55b851dd95ef2956a0907221248d9f0d535431943b759d0bca1f0125520060405160405180910390a45050505093509350939050565b603354600160a060020a031633146107bb5760405160e560020a62461bcd028152600401610339906132ce565b6107c56000611ea1565b565b80516060908067ffffffffffffffff8111156107e5576107e5612d30565b60405190808252806020026020018201604052801561080e578160200160208202803683370190505b50915060005b818161ffff16101561089457838161ffff16600186516108349190613339565b61083e9190613339565b8151811061084e5761084e6133c5565b6020026020010151838261ffff168151811061086c5761086c6133c5565b600160a060020a039092166020928302919091019091015261088d816133de565b9050610814565b5050919050565b600080600083600160a060020a0316637a8d130f6040518163ffffffff1660e060020a028152600401602060405180830381865afa1580156108e1573d6000803e3d6000fd5b505050506040513d601f19601f820116820180604052508101906109059190613350565b6040517ff55850b4000000000000000000000000000000000000000000000000000000008152600160a060020a03861660048201529091508190309063f55850b490602401602060405180830381865afa158015610967573d6000803e3d6000fd5b505050506040513d601f19601f8201168201806040525081019061098b9190613350565b6109959190613339565b9250600084600160a060020a031663c86274566040518163ffffffff1660e060020a028152600401602060405180830381865afa1580156109da573d6000803e3d6000fd5b505050506040513d601f19601f820116820180604052508101906109fe9190613350565b9050610a0a8185613339565b92505050915091565b600054610100900460ff16610a2e5760005460ff1615610a32565b303b155b610aa75760405160e560020a62461bcd02815260206004820152602e60248201527f496e697469616c697a61626c653a20636f6e747261637420697320616c72656160448201527f647920696e697469616c697a65640000000000000000000000000000000000006064820152608401610339565b600054610100900460ff16158015610ac9576000805461ffff19166101011790555b60658054600160a060020a03841673ffffffffffffffffffffffffffffffffffffffff19918216179091556066805490911661dead1790558015610b13576000805461ff00191690555b5050565b60008033600160a060020a031663b61bb80a6040518163ffffffff1660e060020a028152600401602060405180830381865afa158015610b5b573d6000803e3d6000fd5b505050506040513d601f19601f82011682018060405250810190610b7f9190613303565b9050600033600160a060020a031663e7a036796040518163ffffffff1660e060020a028152600401602060405180830381865afa158015610bc4573d6000803e3d6000fd5b505050506040513d601f19601f82011682018060405250810190610be89190613303565b9050610bff600160a060020a03831633308861125b565b6105528585611c7d565b603354600160a060020a03163314610c365760405160e560020a62461bcd028152600401610339906132ce565b600160a060020a038116610cb55760405160e560020a62461bcd02815260206004820152602660248201527f4f776e61626c653a206e6577206f776e657220697320746865207a65726f206160448201527f64647265737300000000000000000000000000000000000000000000000000006064820152608401610339565b61030981611ea1565b600080829050600081600160a060020a0316637ff36fbe6040518163ffffffff1660e060020a028152600401602060405180830381865afa158015610d07573d6000803e3d6000fd5b505050506040513d601f19601f82011682018060405250810190610d2b9190613303565b9050600082600160a060020a031663e7a036796040518163ffffffff1660e060020a028152600401602060405180830381865afa158015610d70573d6000803e3d6000fd5b505050506040513d601f19601f82011682018060405250810190610d949190613303565b9050600083600160a060020a031663e71984746040518163ffffffff1660e060020a028152600401602060405180830381865afa158015610dd9573d6000803e3d6000fd5b505050506040513d601f19601f82011682018060405250810190610dfd9190613303565b60405160e160020a634ee5a88d028152600160a060020a038581166004830152919250600091861690639dcb511a90602401602060405180830381865afa158015610e4c573d6000803e3d6000fd5b505050506040513d601f19601f82011682018060405250810190610e709190613303565b60405160e060020a6370a08231028152600160a060020a0389811660048301529192506000918616906370a0823190602401602060405180830381865afa158015610ebf573d6000803e3d6000fd5b505050506040513d601f19601f82011682018060405250810190610ee39190613350565b60405160e060020a6370a08231028152600160a060020a038a811660048301529192506000918616906370a0823190602401602060405180830381865afa158015610f32573d6000803e3d6000fd5b505050506040513d601f19601f82011682018060405250810190610f569190613350565b9050600085600160a060020a03166318160ddd6040518163ffffffff1660e060020a028152600401602060405180830381865afa158015610f9b573d6000803e3d6000fd5b505050506040513d601f19601f82011682018060405250810190610fbf9190613350565b60405160e060020a6370a08231028152600160a060020a0388811660048301528916906370a0823190602401602060405180830381865afa158015611008573d6000803e3d6000fd5b505050506040513d601f19601f8201168201806040525081019061102c9190613350565b6110369084613381565b61104091906133a0565b9050600088600160a060020a0316639fc33a9f6040518163ffffffff1660e060020a028152600401602060405180830381865afa158015611085573d6000803e3d6000fd5b505050506040513d601f19601f820116820180604052508101906110a99190613303565b600160a060020a03166394443b738a600160a060020a031663f10684546040518163ffffffff1660e060020a028152600401602060405180830381865afa1580156110f8573d6000803e3d6000fd5b505050506040513d601f19601f8201168201806040525081019061111c9190613350565b60405160e060020a63ffffffff84160281526004810191909152600160a060020a038e166024820152604401602060405180830381865afa158015611165573d6000803e3d6000fd5b505050506040513d601f19601f820116820180604052508101906111899190613350565b9050600061119f86600160a060020a0316611f00565b60405160e160020a634ee5a88d028152600160a060020a03898116600483015261122091908d1690639dcb511a906024015b602060405180830381865afa1580156111ee573d6000803e3d6000fd5b505050506040513d601f19601f820116820180604052508101906112129190613303565b600160a060020a0316611f00565b61122a9084613381565b61123491906133a0565b9050806112418487613369565b61124b9190613369565b9c9b505050505050505050505050565b604051600160a060020a03808516602483015283166044820152606481018290526102da9085907f23b872dd00000000000000000000000000000000000000000000000000000000906084015b60408051601f198184030181529190526020810180517bffffffffffffffffffffffffffffffffffffffffffffffffffffffff167fffffffff0000000000000000000000000000000000000000000000000000000090931692909217909152612057565b60008061132386846000015185604001518861213f565b915061133986846020015185604001518861213f565b606554606085015191925061135b91600160a060020a03908116911688612247565b60655483516020850151600160a060020a039092169163baa2abde91908986868a61138842610258613369565b60405163ffffffff891660e060020a028152600160a060020a039788166004820152958716602487015260448601949094526064850192909252608484015290921660a482015260c481019190915260e40160408051808303816000875af11580156113f8573d6000803e3d6000fd5b505050506040513d601f19601f8201168201806040525081019061141c9190613400565b5050505050505050565b6065548151606083015161144892600160a060020a0391821692911690612247565b6040805160028082526060820183526000926020830190803683370190505090508160600151600160a060020a031663313ce5676040518163ffffffff1660e060020a028152600401602060405180830381865afa1580156114ae573d6000803e3d6000fd5b505050506040513d601f19601f820116820180604052508101906114d29190613424565b816000815181106114e5576114e56133c5565b602002602001019060ff16908160ff16815250508160800151600160a060020a031663313ce5676040518163ffffffff1660e060020a028152600401602060405180830381865afa15801561153e573d6000803e3d6000fd5b505050506040513d601f19601f820116820180604052508101906115629190613424565b81600181518110611575576115756133c5565b60ff9290921660209283029190910182015260408051600280825260608201835260009391929091830190803683370190505090508260200151816000815181106115c2576115c26133c5565b6020026020010181815250508260400151816001815181106115e6576115e66133c5565b6020026020010181815250506116318360000151828560a001518660c00151868860e00151426102586116199190613369565b606554600160a060020a03169695949392919061232b565b505050565b60655461165090600160a060020a03888116911686612247565b60655461166a90600160a060020a03878116911685612247565b606554600160a060020a031663e8e33700878787876103e861168c8984613381565b61169691906133a0565b6103e86116a38a8c613381565b6116ad91906133a0565b886116ba42610258613369565b60405163ffffffff8a1660e060020a028152600160a060020a039889166004820152968816602488015260448701959095526064860193909352608485019190915260a484015290921660c482015260e4810191909152610104016060604051808303816000875af1158015611734573d6000803e3d6000fd5b505050506040513d601f19601f820116820180604052508101906117589190613447565b505050505050505050565b60008083116117b75760405160e560020a62461bcd02815260206004820152600760248201527f6e656757616e74000000000000000000000000000000000000000000000000006044820152606401610339565b6000339050600081600160a060020a0316637ff36fbe6040518163ffffffff1660e060020a028152600401602060405180830381865afa1580156117ff573d6000803e3d6000fd5b505050506040513d601f19601f820116820180604052508101906118239190613303565b9050600082600160a060020a031663b61bb80a6040518163ffffffff1660e060020a028152600401602060405180830381865afa158015611868573d6000803e3d6000fd5b505050506040513d601f19601f8201168201806040525081019061188c9190613303565b60405160e060020a6370a08231028152306004820152909150600090600160a060020a038416906370a0823190602401602060405180830381865afa1580156118d9573d6000803e3d6000fd5b505050506040513d601f19601f820116820180604052508101906118fd9190613350565b905081600160a060020a031683600160a060020a0316146119e4576040805161010081018252828152905160e160020a634ee5a88d028152600160a060020a0385811660048301526119e4929160208301916119659190891690639dcb511a906024016111d1565b815260405160e160020a634ee5a88d028152600160a060020a0386811660048301526020909201916119a39190891690639dcb511a906024016111d1565b815260200185600160a060020a0316815260200184600160a060020a031681526020018881526020016119d686866124ab565b815230602090910152611426565b60405160e060020a6370a08231028152306004820152600160a060020a038316906370a0823190602401602060405180830381865afa158015611a2b573d6000803e3d6000fd5b505050506040513d601f19601f82011682018060405250810190611a4f9190613350565b979650505050505050565b604051600160a060020a0383166024820152604481018290526116319084907fa9059cbb00000000000000000000000000000000000000000000000000000000906064016112a8565b600080600080611ab38787611763565b90506000611ad08887604001518860200151896101400151612676565b9050600061271087610160015161ffff1684611aec9190613381565b611af691906133a0565b9050600061271088610180015161ffff1685611b129190613381565b611b1c91906133a0565b9050876101a0015115611c4757611bc5828a6040518061010001604052808c60400151600160a060020a031681526020018c60000151600160a060020a031681526020018c60800151600160a060020a031681526020018c610100015181526020018c610120015181526020018c60e00151600160a060020a031681526020018c60a00151600160a060020a031681526020018c60c00151600160a060020a03168152506126b9565b611c42818a6040518060c001604052808c60400151600160a060020a031681526020018c60000151600160a060020a031681526020018c60600151600160a060020a031681526020018c610100015181526020018c60e00151600160a060020a031681526020018c60a00151600160a060020a0316815250612944565b611c4e565b8195508094505b8082611c5a8587613339565b611c649190613339565b611c6e9190613339565b96505050505093509350939050565b600080339050600081600160a060020a031663b61bb80a6040518163ffffffff1660e060020a028152600401602060405180830381865afa158015611cc6573d6000803e3d6000fd5b505050506040513d601f19601f82011682018060405250810190611cea9190613303565b9050600082600160a060020a0316637ff36fbe6040518163ffffffff1660e060020a028152600401602060405180830381865afa158015611d2f573d6000803e3d6000fd5b505050506040513d601f19601f82011682018060405250810190611d539190613303565b905081600160a060020a031681600160a060020a031614611e2c576040805161010081018252878152905160e160020a634ee5a88d028152600160a060020a038481166004830152611e2c92916020830191611dbb9190881690639dcb511a906024016111d1565b815260405160e160020a634ee5a88d028152600160a060020a038581166004830152602090920191611df99190881690639dcb511a906024016111d1565b815260200184600160a060020a0316815260200183600160a060020a031681526020018781526020016119d685856124ab565b60405160e060020a6370a08231028152306004820152600160a060020a038216906370a0823190602401602060405180830381865afa158015611e73573d6000803e3d6000fd5b505050506040513d601f19601f82011682018060405250810190611e979190613350565b9695505050505050565b60338054600160a060020a0383811673ffffffffffffffffffffffffffffffffffffffff19831681179093556040519116919082907f8be0079c531659141344cd1fd0a4f28419497f9722a3daafe3b4186f6b6457e090600090a35050565b60008082600160a060020a031663313ce5676040518163ffffffff1660e060020a028152600401602060405180830381865afa158015611f44573d6000803e3d6000fd5b505050506040513d601f19601f82011682018060405250810190611f689190613424565b9050600083600160a060020a031663feaf968c6040518163ffffffff1660e060020a02815260040160a060405180830381865afa158015611fad573d6000803e3d6000fd5b505050506040513d601f19601f82011682018060405250810190611fd1919061348f565b505050915050600081121561202b5760405160e560020a62461bcd02815260206004820152601660248201527f6e656720707269636573206e6f7420616c6c6f776564000000000000000000006044820152606401610339565b61203682600a6135c8565b6120458264e8d4a51000613381565b61204f91906133a0565b949350505050565b60006120ac826040518060400160405280602081526020017f5361666545524332303a206c6f772d6c6576656c2063616c6c206661696c656481525085600160a060020a03166129e19092919063ffffffff16565b80519091501561163157808060200190518101906120ca91906135d7565b6116315760405160e560020a62461bcd02815260206004820152602a60248201527f5361666545524332303a204552433230206f7065726174696f6e20646964206e60448201527f6f742073756363656564000000000000000000000000000000000000000000006064820152608401610339565b60008083600160a060020a03166318160ddd6040518163ffffffff1660e060020a028152600401602060405180830381865afa158015612183573d6000803e3d6000fd5b505050506040513d601f19601f820116820180604052508101906121a79190613350565b60405160e060020a6370a08231028152600160a060020a0386811660048301529192506000918716906370a0823190602401602060405180830381865afa1580156121f6573d6000803e3d6000fd5b505050506040513d601f19601f8201168201806040525081019061221a9190613350565b9050612228826103e8613381565b84612233838a613381565b61223d9190613381565b611a4f91906133a0565b6040517fdd62ed3e000000000000000000000000000000000000000000000000000000008152306004820152600160a060020a038381166024830152600091839186169063dd62ed3e90604401602060405180830381865afa1580156122b1573d6000803e3d6000fd5b505050506040513d601f19601f820116820180604052508101906122d59190613350565b6122df9190613369565b604051600160a060020a0385166024820152604481018290529091506102da9085907f095ea7b300000000000000000000000000000000000000000000000000000000906064016112a8565b825160021461237f5760405160e560020a62461bcd02815260206004820152600b60248201527f696e76616c6964206465630000000000000000000000000000000000000000006044820152606401610339565b600086600081518110612394576123946133c5565b6020026020010151600014806123c45750866001815181106123b8576123b86133c5565b60200260200101516000145b156123dd576123d689898789886129fa565b9050612421565b61241e88886000815181106123f4576123f46133c5565b60200260200101518960018151811061240f5761240f6133c5565b60200260200101518988612b01565b90505b6040517f5c11d795000000000000000000000000000000000000000000000000000000008152600160a060020a038a1690635c11d7959061246e908b9085908a90899089906004016135f4565b600060405180830381600087803b15801561248857600080fd5b505af115801561249c573d6000803e3d6000fd5b50505050505050505050505050565b6040517f2337b0b1000000000000000000000000000000000000000000000000000000008152600160a060020a0380841660048301528216602482015260609033906000908290632337b0b190604401602060405180830381865afa158015612518573d6000803e3d6000fd5b505050506040513d601f19601f8201168201806040525081019061253c9190613630565b90508061ffff1667ffffffffffffffff81111561255b5761255b612d30565b604051908082528060200260200182016040528015612584578160200160208202803683370190505b50925060005b8161ffff168161ffff16101561266d576040517f5e835270000000000000000000000000000000000000000000000000000000008152600160a060020a038781166004830152868116602483015261ffff83166044830152841690635e83527090606401602060405180830381865afa15801561260b573d6000803e3d6000fd5b505050506040513d601f19601f8201168201806040525081019061262f9190613303565b848261ffff1681518110612645576126456133c5565b600160a060020a0390921660209283029190910190910152612666816133de565b905061258a565b50505092915050565b6000841561204f5761ffff82161561204f5761271061269961ffff841687613381565b6126a391906133a0565b905061204f600160a060020a0385168483611a5a565b826126c357505050565b60006126db8260a00151600160a060020a0316611f00565b90508160200151600160a060020a03168260000151600160a060020a0316146127885761278860405180610100016040528060028761271a91906133a0565b815260200183815260200161273b8560c00151600160a060020a0316611f00565b81526020018460000151600160a060020a031681526020018460200151600160a060020a031681526020018581526020018460600151815260200130600160a060020a0316815250611426565b8160400151600160a060020a03168260000151600160a060020a031614612833576128336040518061010001604052806002876127c591906133a0565b81526020018381526020016127e68560e00151600160a060020a0316611f00565b81526020018460000151600160a060020a031681526020018460400151600160a060020a031681526020018581526020018460800151815260200130600160a060020a0316815250611426565b602082015160405160e060020a6370a08231028152306004820152600091600160a060020a0316906370a0823190602401602060405180830381865afa158015612881573d6000803e3d6000fd5b505050506040513d601f19601f820116820180604052508101906128a59190613350565b604080850151905160e060020a6370a08231028152306004820152919250600091600160a060020a03909116906370a0823190602401602060405180830381865afa1580156128f8573d6000803e3d6000fd5b505050506040513d601f19601f8201168201806040525081019061291c9190613350565b602085015160408601516066549293506103a992859085908a90600160a060020a0316611636565b8215611631576116316040518061010001604052808581526020016129758460800151600160a060020a0316611f00565b81526020016129908460a00151600160a060020a0316611f00565b81526020018360000151600160a060020a031681526020018360200151600160a060020a03168152602001848152602001836060015181526020018360400151600160a060020a0316815250611426565b60606129f08484600085612b90565b90505b9392505050565b60008086600160a060020a031663d06ca61f87876040518363ffffffff1660e060020a028152600401612a2e92919061364d565b600060405180830381865afa158015612a4b573d6000803e3d6000fd5b505050506040513d6000823e601f3d908101601f19168201604052612a739190810190613666565b905082600081518110612a8857612a886133c5565b6020026020010151600a612a9c91906135c8565b612aa8906103e8613381565b83600181518110612abb57612abb6133c5565b6020026020010151600a612acf91906135c8565b858360018551612adf9190613339565b81518110612aef57612aef6133c5565b60200260200101516122339190613381565b600081600081518110612b1657612b166133c5565b6020026020010151600a612b2a91906135c8565b612b36856103e8613381565b612b409190613381565b82600181518110612b5357612b536133c5565b6020026020010151600a612b6791906135c8565b84612b72888a613381565b612b7c9190613381565b612b869190613381565b611e9791906133a0565b60603031831115612c0c5760405160e560020a62461bcd02815260206004820152602660248201527f416464726573733a20696e73756666696369656e742062616c616e636520666f60448201527f722063616c6c00000000000000000000000000000000000000000000000000006064820152608401610339565b600160a060020a0385163b612c665760405160e560020a62461bcd02815260206004820152601d60248201527f416464726573733a2063616c6c20746f206e6f6e2d636f6e74726163740000006044820152606401610339565b60008086600160a060020a03168587604051612c829190613715565b60006040518083038185875af1925050503d8060008114612cbf576040519150601f19603f3d011682016040523d82523d6000602084013e612cc4565b606091505b5091509150611a4f82828660608315612cde5750816129f3565b825115612cee5782518084602001fd5b8160405160e560020a62461bcd0281526004016103399190613731565b600160a060020a038116811461030957600080fd5b8035612d2b81612d0b565b919050565b60e060020a634e487b7102600052604160045260246000fd5b604051610100810167ffffffffffffffff81118282101715612d6d57612d6d612d30565b60405290565b6040516101c0810167ffffffffffffffff81118282101715612d6d57612d6d612d30565b604051601f8201601f1916810167ffffffffffffffff81118282101715612dc057612dc0612d30565b604052919050565b60008060008084860360e0811215612ddf57600080fd5b85359450602086013593506040860135612df881612d0b565b92506080605f1982011215612e0c57600080fd5b506040516080810181811067ffffffffffffffff82111715612e3057612e30612d30565b6040526060860135612e4181612d0b565b81526080860135612e5181612d0b565b602082015260a0860135612e6481612d0b565b604082015260c0860135612e7781612d0b565b6060820152939692955090935050565b600067ffffffffffffffff821115612ea157612ea1612d30565b5060209081020190565b600082601f830112612ebc57600080fd5b81356020612ed1612ecc83612e87565b612d97565b82815291810284018101918181019086841115612eed57600080fd5b8286015b84811015612f11578035612f0481612d0b565b8352918301918301612ef1565b509695505050505050565b600060208284031215612f2e57600080fd5b813567ffffffffffffffff80821115612f4657600080fd5b908301906101008286031215612f5b57600080fd5b612f63612d49565b823581526020830135602082015260408301356040820152612f8760608401612d20565b6060820152612f9860808401612d20565b608082015260a083013560a082015260c083013582811115612fb957600080fd5b612fc587828601612eab565b60c083015250612fd760e08401612d20565b60e082015295945050505050565b600060208284031215612ff757600080fd5b81356129f381612d0b565b60008060008060008060c0878903121561301b57600080fd5b863561302681612d0b565b9550602087013561303681612d0b565b945060408701359350606087013592506080870135915060a087013561305b81612d0b565b809150509295509295509295565b6000806040838503121561307c57600080fd5b50508035926020909101359150565b61ffff8116811461030957600080fd5b8035612d2b8161308b565b801515811461030957600080fd5b8035612d2b816130a6565b6000806000606084860312156130d457600080fd5b8335925060208401359150604084013567ffffffffffffffff808211156130fa57600080fd5b908501906101c0828803121561310f57600080fd5b613117612d73565b61312083612d20565b815261312e60208401612d20565b602082015261313f60408401612d20565b604082015261315060608401612d20565b606082015261316160808401612d20565b608082015261317260a08401612d20565b60a082015261318360c08401612d20565b60c082015261319460e08401612d20565b60e082015261010080840135838111156131ad57600080fd5b6131b98a828701612eab565b82840152505061012080840135838111156131d357600080fd5b6131df8a828701612eab565b82840152505061014091506131f582840161309b565b82820152610160915061320982840161309b565b82820152610180915061321d82840161309b565b828201526101a091506132318284016130b4565b828201528093505050509250925092565b60006020828403121561325457600080fd5b813567ffffffffffffffff81111561326b57600080fd5b61204f84828501612eab565b600081518084526020808501945080840160005b838110156132b0578151600160a060020a03168752958201959082019060010161328b565b509495945050505050565b6020815260006129f36020830184613277565b6020808252818101527f4f776e61626c653a2063616c6c6572206973206e6f7420746865206f776e6572604082015260600190565b60006020828403121561331557600080fd5b81516129f381612d0b565b60e060020a634e487b7102600052601160045260246000fd5b60008282101561334b5761334b613320565b500390565b60006020828403121561336257600080fd5b5051919050565b6000821982111561337c5761337c613320565b500190565b600081600019048311821515161561339b5761339b613320565b500290565b6000826133c05760e060020a634e487b7102600052601260045260246000fd5b500490565b60e060020a634e487b7102600052603260045260246000fd5b600061ffff808316818114156133f6576133f6613320565b6001019392505050565b6000806040838503121561341357600080fd5b505080516020909101519092909150565b60006020828403121561343657600080fd5b815160ff811681146129f357600080fd5b60008060006060848603121561345c57600080fd5b8351925060208401519150604084015190509250925092565b805169ffffffffffffffffffff81168114612d2b57600080fd5b600080600080600060a086880312156134a757600080fd5b6134b086613475565b94506020860151935060408601519250606086015191506134d360808701613475565b90509295509295909350565b600181815b8085111561351c57816000190482111561350057613500613320565b8085161561350d57918102915b600290940493908002906134e4565b509250929050565b600082613533575060016135c2565b81613540575060006135c2565b816001811461355657600281146135605761357d565b60019150506135c2565b60ff84111561357157613571613320565b8360020a9150506135c2565b5060208310610133831016604e8410600b84101617156135a0575081810a6135c2565b6135aa83836134df565b80600019048211156135be576135be613320565b0290505b92915050565b60006129f360ff841683613524565b6000602082840312156135e957600080fd5b81516129f3816130a6565b85815284602082015260a06040820152600061361360a0830186613277565b600160a060020a0394909416606083015250608001529392505050565b60006020828403121561364257600080fd5b81516129f38161308b565b8281526040602082015260006129f06040830184613277565b6000602080838503121561367957600080fd5b825167ffffffffffffffff81111561369057600080fd5b8301601f810185136136a157600080fd5b80516136af612ecc82612e87565b818152908302820183019083810190878311156136cb57600080fd5b928401925b82841015611a4f578351825292840192908401906136d0565b60005b838110156137045781810151838201526020016136ec565b838111156102da5750506000910152565b600082516137278184602087016136e9565b9190910192915050565b60208152600082518060208401526137508160408501602087016136e9565b601f01601f1916919091016040019291505056fea26469706673582212205d5fcf4c81f29bdf9b863d845cb3a25c02df2d546e4496b0aaf0dc2428a9567c64736f6c634300080a0033",
  "immutableReferences": {},
  "source": "// SPDX-License-Identifier: MIT\n\npragma solidity ^0.8.0;\n\nimport \"@openzeppelin/contracts-upgradeable/token/ERC20/IERC20Upgradeable.sol\";\n\nimport \"@openzeppelin/contracts-upgradeable/token/ERC20/ERC20Upgradeable.sol\";\n\nimport \"@openzeppelin/contracts-upgradeable/token/ERC20/utils/SafeERC20Upgradeable.sol\";\n\nimport \"../../interfaces/Alpaca/IAlpacaFairLaunch.sol\";\n\nimport \"../../interfaces/Alpaca/IAlpacaVault.sol\";\n\nimport \"../../interfaces/Uniswap/IAMMRouter02.sol\";\n\nimport \"../../interfaces/Zorro/Vaults/IVaultAlpaca.sol\";\n\nimport \"../../interfaces/Zorro/Vaults/Actions/IVaultActionsAlpaca.sol\";\n\nimport \"../../libraries/SafeSwap.sol\";\n\nimport \"../../libraries/PriceFeed.sol\";\n\nimport \"./_VaultActions.sol\";\n\ncontract VaultActionsAlpaca is IVaultActionsAlpaca, VaultActions {\n    /* Libraries */\n\n    using SafeERC20Upgradeable for IERC20Upgradeable;\n    using SafeSwapUni for IAMMRouter02;\n    using PriceFeed for AggregatorV3Interface;\n\n    /* Functions */\n\n    /// @notice Performs necessary operations to convert USD into Want token\n    /// @param _amountUSD The USD quantity to exchange (must already be deposited)\n    /// @param _maxMarketMovementAllowed The max slippage allowed. 1000 = 0 %, 995 = 0.5%, etc.\n    /// @return wantObtained Amount of Want token obtained\n    function _exchangeUSDForWantToken(\n        uint256 _amountUSD,\n        uint256 _maxMarketMovementAllowed\n    ) internal override returns (uint256 wantObtained) {\n        // Prep\n        IVault _vault = IVault(_msgSender());\n        address _stablecoin = _vault.defaultStablecoin();\n        address _token0Address = _vault.token0Address();\n\n        // Swap USD for token0\n        // Single asset. Swap from USD directly to Token0\n        if (_token0Address != _stablecoin) {\n            _safeSwap(\n                SafeSwapUni.SafeSwapParams({\n                    amountIn: _amountUSD,\n                    priceToken0: _vault\n                        .priceFeeds(_stablecoin)\n                        .getExchangeRate(),\n                    priceToken1: _vault\n                        .priceFeeds(_token0Address)\n                        .getExchangeRate(),\n                    token0: _stablecoin,\n                    token1: _token0Address,\n                    maxMarketMovementAllowed: _maxMarketMovementAllowed,\n                    path: _getSwapPath(_stablecoin, _token0Address),\n                    destination: address(this)\n                })\n            );\n        }\n\n        // Get new Token0 balance\n        wantObtained = IERC20Upgradeable(_token0Address).balanceOf(\n            address(this)\n        );\n    }\n\n    /// @notice Converts Want token back into USD to be ready for withdrawal and transfers to sender\n    /// @param _amount The Want token quantity to exchange (must be deposited beforehand)\n    /// @param _maxMarketMovementAllowed The max slippage allowed for swaps. 1000 = 0 %, 995 = 0.5%, etc.\n    /// @return usdObtained Amount of USD token obtained\n    function _exchangeWantTokenForUSD(\n        uint256 _amount,\n        uint256 _maxMarketMovementAllowed\n    ) internal override returns (uint256 usdObtained) {\n        // Preflight checks\n        require(_amount > 0, \"negWant\");\n\n        // Prep\n        IVault _vault = IVault(_msgSender());\n        address _token0Address = _vault.token0Address();\n        address _stablecoin = _vault.defaultStablecoin();\n\n        // Get Token0 balance\n        uint256 _token0Bal = IERC20Upgradeable(_token0Address).balanceOf(\n            address(this)\n        );\n\n        // Swap Token0 -> USD\n        if (_token0Address != _stablecoin) {\n            _safeSwap(\n                SafeSwapUni.SafeSwapParams({\n                    amountIn: _token0Bal,\n                    priceToken0: _vault\n                        .priceFeeds(_token0Address)\n                        .getExchangeRate(),\n                    priceToken1: _vault\n                        .priceFeeds(_stablecoin)\n                        .getExchangeRate(),\n                    token0: _token0Address,\n                    token1: _stablecoin,\n                    maxMarketMovementAllowed: _maxMarketMovementAllowed,\n                    path: _getSwapPath(_token0Address, _stablecoin),\n                    destination: address(this)\n                })\n            );\n        }\n\n        // Calculate USD balance\n        usdObtained = IERC20Upgradeable(_stablecoin).balanceOf(address(this));\n    }\n\n    /// @notice Measures the current (unrealized) position value (measured in Want token) of the provided vault\n    /// @param _vaultAddr The vault address\n    /// @return positionVal Position value, in units of Want token\n    function currentWantEquity(address _vaultAddr)\n        public\n        view\n        override(IVaultActions, VaultActions)\n        returns (uint256 positionVal)\n    {\n        // Prep\n        IVaultAlpaca _vault = IVaultAlpaca(_vaultAddr);\n        address _token0 = _vault.token0Address(); // Underlying token\n        address _iToken = _vault.wantAddress(); // Amount of LP token (e.g. iBNB)\n        address _alpaca = _vault.earnedAddress(); // Amount of farm token (ALPACA)\n        AggregatorV3Interface _token0PriceFeed = _vault.priceFeeds(_token0);\n\n        // Get balance of underlying (want)\n        uint256 _balToken0 = IERC20Upgradeable(_token0).balanceOf(_vaultAddr);\n\n        // Get balance of LP token\n        uint256 _balIToken = IERC20Upgradeable(_iToken).balanceOf(_vaultAddr);\n\n        // Express balance of LP token in Want token units\n        uint256 _balITokenToken0 = _balIToken * IERC20Upgradeable(_token0).balanceOf(_iToken) / IERC20Upgradeable(_iToken).totalSupply();\n\n        // Get pending Earn\n        uint256 _pendingAlpaca = IFairLaunch(_vault.farmContractAddress()).pendingAlpaca(_vault.pid(), _vaultAddr);\n\n        // Express Earn token quantity in Want token units\n        uint256 _pendingAlpacaToken0 = _pendingAlpaca * _vault.priceFeeds(_alpaca).getExchangeRate() / _token0PriceFeed.getExchangeRate();\n\n        // Sum up equities\n        positionVal = _balToken0 + _balITokenToken0 + _pendingAlpacaToken0;\n    }\n}\n",
  "sourcePath": "/Users/kristophm/Documents/workspace/zorro-protocol/contracts/vaults/actions/VaultActionsAlpaca.sol",
  "compiler": {
    "name": "solc",
    "version": "0.8.10+commit.fc410830.Emscripten.clang"
  },
  "schemaVersion": "3.4.10",
  "updatedAt": "2022-12-20T14:41:46.843Z",
  "devdoc": {
    "kind": "dev",
    "methods": {
      "currentWantEquity(address)": {
        "params": {
          "_vaultAddr": "The vault address"
        },
        "returns": {
          "positionVal": "Position value, in units of Want token"
        }
      },
      "distributeAndReinvestEarnings(uint256,uint256,(address,address,address,address,address,address,address,address,address[],address[],uint16,uint16,uint16,bool))": {
        "details": "To be run by Vault's earn() func after earnings have been unfarmed",
        "params": {
          "_amount": "Amount of Want token to distribute",
          "_maxMarketMovementAllowed": "Slippage (990 = 1%)",
          "_params": "A DistributeEarningsParams struct"
        },
        "returns": {
          "wantRemaining": "Remaining Want token after distribution (will be sent back to sender)",
          "xChainBuybackAmt": "Amount of Want token reserved for cross chain buyback, if applicable",
          "xChainRevShareAmt": "Amount of Want token reserved for cross chain revshare, if applicable"
        }
      },
      "exchangeUSDForWantToken(uint256,uint256)": {
        "params": {
          "_amountUSD": "The USD quantity to exchange (must already be deposited)",
          "_maxMarketMovementAllowed": "The max slippage allowed. 1000 = 0 %, 995 = 0.5%, etc."
        },
        "returns": {
          "wantObtained": "Amount of Want token obtained and transferred to sender"
        }
      },
      "exchangeWantTokenForUSD(uint256,uint256)": {
        "params": {
          "_amount": "The Want token quantity to exchange (must be deposited beforehand)",
          "_maxMarketMovementAllowed": "The max slippage allowed for swaps. 1000 = 0 %, 995 = 0.5%, etc."
        },
        "returns": {
          "usdObtained": "Amount of USD token obtained and transferred to sender"
        }
      },
      "exitPool(uint256,uint256,address,(address,address,address,address))": {
        "details": "NOTE: Requires caller to approve want token spending",
        "params": {
          "_amountLP": "The amount of LP (Want) tokens to remove",
          "_maxMarketMovementAllowed": "The max slippage allowed for swaps. 1000 = 0 %, 995 = 0.5%, etc.",
          "_recipient": "The recipient of the underlying tokens at pool exit"
        }
      },
      "initialize(address)": {
        "params": {
          "_uniRouterAddress": "Address of Uniswap style router"
        }
      },
      "joinPool(address,address,uint256,uint256,uint256,address)": {
        "details": "NOTE: Requires spending approval by caller",
        "params": {
          "_maxMarketMovementAllowed": "The max slippage allowed for swaps. 1000 = 0 %, 995 = 0.5%, etc.",
          "_recipient": "The recipient of the LP token",
          "_token0": "The address of Token0",
          "_token0Amt": "Quantity of Token0 to add",
          "_token1": "The address of Token1",
          "_token1Amt": "Quantity of Token1 to add"
        }
      },
      "owner()": {
        "details": "Returns the address of the current owner."
      },
      "renounceOwnership()": {
        "details": "Leaves the contract without owner. It will not be possible to call `onlyOwner` functions anymore. Can only be called by the current owner. NOTE: Renouncing ownership will leave the contract without an owner, thereby removing any functionality that is only available to the owner."
      },
      "reversePath(address[])": {
        "params": {
          "_path": "The swap path to be reversed"
        },
        "returns": {
          "newPath": "An reversed path array"
        }
      },
      "safeSwap((uint256,uint256,uint256,address,address,uint256,address[],address))": {
        "details": "NOTE: Caller must approve tokens for spending beforehand",
        "params": {
          "_swapParams": "SafeSwapParams for swap"
        }
      },
      "transferOwnership(address)": {
        "details": "Transfers ownership of the contract to a new account (`newOwner`). Can only be called by the current owner."
      },
      "unrealizedProfits(address)": {
        "params": {
          "_vaultAddr": "The vault address"
        },
        "returns": {
          "accumulatedProfit": "Amount of unrealized profit accumulated on the vault (not accounting for past harvests)",
          "harvestableProfit": "Amount of immediately harvestable profits"
        }
      }
    },
    "version": 1
  },
  "userdoc": {
    "kind": "user",
    "methods": {
      "currentWantEquity(address)": {
        "notice": "Measures the current (unrealized) position value (measured in Want token) of the provided vault"
      },
      "distributeAndReinvestEarnings(uint256,uint256,(address,address,address,address,address,address,address,address,address[],address[],uint16,uint16,uint16,bool))": {
        "notice": "Distributes earnings (in the form of Want token) and reinvests remainder into Want token"
      },
      "exchangeUSDForWantToken(uint256,uint256)": {
        "notice": "Performs necessary operations to convert USD into Want token"
      },
      "exchangeWantTokenForUSD(uint256,uint256)": {
        "notice": "Converts Want token back into USD to be ready for withdrawal and transfers to sender"
      },
      "exitPool(uint256,uint256,address,(address,address,address,address))": {
        "notice": "Removes liquidity from a pool and sends tokens back to this address"
      },
      "initialize(address)": {
        "notice": "Constructor"
      },
      "joinPool(address,address,uint256,uint256,uint256,address)": {
        "notice": "Adds liquidity to the pool of this contract"
      },
      "reversePath(address[])": {
        "notice": "Gets the swap path in the opposite direction of a trade"
      },
      "safeSwap((uint256,uint256,uint256,address,address,uint256,address[],address))": {
        "notice": "Safely swaps tokens using the most suitable protocol based on token"
      },
      "unrealizedProfits(address)": {
        "notice": "Calculates accumulated unrealized profits on a vault"
      }
    },
    "version": 1
  }
}