{
  "contractName": "VaultTimelock",
  "abi": [
    {
      "inputs": [
        {
          "internalType": "uint256",
          "name": "_minDelay",
          "type": "uint256"
        },
        {
          "internalType": "address[]",
          "name": "_proposers",
          "type": "address[]"
        },
        {
          "internalType": "address[]",
          "name": "_executors",
          "type": "address[]"
        }
      ],
      "stateMutability": "nonpayable",
      "type": "constructor"
    },
    {
      "anonymous": false,
      "inputs": [
        {
          "indexed": true,
          "internalType": "bytes32",
          "name": "id",
          "type": "bytes32"
        },
        {
          "indexed": true,
          "internalType": "uint256",
          "name": "index",
          "type": "uint256"
        },
        {
          "indexed": false,
          "internalType": "address",
          "name": "target",
          "type": "address"
        },
        {
          "indexed": false,
          "internalType": "uint256",
          "name": "value",
          "type": "uint256"
        },
        {
          "indexed": false,
          "internalType": "bytes",
          "name": "data",
          "type": "bytes"
        }
      ],
      "name": "CallExecuted",
      "type": "event"
    },
    {
      "anonymous": false,
      "inputs": [
        {
          "indexed": true,
          "internalType": "bytes32",
          "name": "id",
          "type": "bytes32"
        },
        {
          "indexed": true,
          "internalType": "uint256",
          "name": "index",
          "type": "uint256"
        },
        {
          "indexed": false,
          "internalType": "address",
          "name": "target",
          "type": "address"
        },
        {
          "indexed": false,
          "internalType": "uint256",
          "name": "value",
          "type": "uint256"
        },
        {
          "indexed": false,
          "internalType": "bytes",
          "name": "data",
          "type": "bytes"
        },
        {
          "indexed": false,
          "internalType": "bytes32",
          "name": "predecessor",
          "type": "bytes32"
        },
        {
          "indexed": false,
          "internalType": "uint256",
          "name": "delay",
          "type": "uint256"
        }
      ],
      "name": "CallScheduled",
      "type": "event"
    },
    {
      "anonymous": false,
      "inputs": [
        {
          "indexed": true,
          "internalType": "bytes32",
          "name": "id",
          "type": "bytes32"
        }
      ],
      "name": "Cancelled",
      "type": "event"
    },
    {
      "anonymous": false,
      "inputs": [
        {
          "indexed": false,
          "internalType": "uint256",
          "name": "oldDuration",
          "type": "uint256"
        },
        {
          "indexed": false,
          "internalType": "uint256",
          "name": "newDuration",
          "type": "uint256"
        }
      ],
      "name": "MinDelayChange",
      "type": "event"
    },
    {
      "anonymous": false,
      "inputs": [
        {
          "indexed": true,
          "internalType": "bytes32",
          "name": "role",
          "type": "bytes32"
        },
        {
          "indexed": true,
          "internalType": "bytes32",
          "name": "previousAdminRole",
          "type": "bytes32"
        },
        {
          "indexed": true,
          "internalType": "bytes32",
          "name": "newAdminRole",
          "type": "bytes32"
        }
      ],
      "name": "RoleAdminChanged",
      "type": "event"
    },
    {
      "anonymous": false,
      "inputs": [
        {
          "indexed": true,
          "internalType": "bytes32",
          "name": "role",
          "type": "bytes32"
        },
        {
          "indexed": true,
          "internalType": "address",
          "name": "account",
          "type": "address"
        },
        {
          "indexed": true,
          "internalType": "address",
          "name": "sender",
          "type": "address"
        }
      ],
      "name": "RoleGranted",
      "type": "event"
    },
    {
      "anonymous": false,
      "inputs": [
        {
          "indexed": true,
          "internalType": "bytes32",
          "name": "role",
          "type": "bytes32"
        },
        {
          "indexed": true,
          "internalType": "address",
          "name": "account",
          "type": "address"
        },
        {
          "indexed": true,
          "internalType": "address",
          "name": "sender",
          "type": "address"
        }
      ],
      "name": "RoleRevoked",
      "type": "event"
    },
    {
      "inputs": [],
      "name": "DEFAULT_ADMIN_ROLE",
      "outputs": [
        {
          "internalType": "bytes32",
          "name": "",
          "type": "bytes32"
        }
      ],
      "stateMutability": "view",
      "type": "function"
    },
    {
      "inputs": [],
      "name": "EXECUTOR_ROLE",
      "outputs": [
        {
          "internalType": "bytes32",
          "name": "",
          "type": "bytes32"
        }
      ],
      "stateMutability": "view",
      "type": "function"
    },
    {
      "inputs": [],
      "name": "PROPOSER_ROLE",
      "outputs": [
        {
          "internalType": "bytes32",
          "name": "",
          "type": "bytes32"
        }
      ],
      "stateMutability": "view",
      "type": "function"
    },
    {
      "inputs": [],
      "name": "TIMELOCK_ADMIN_ROLE",
      "outputs": [
        {
          "internalType": "bytes32",
          "name": "",
          "type": "bytes32"
        }
      ],
      "stateMutability": "view",
      "type": "function"
    },
    {
      "inputs": [
        {
          "internalType": "bytes32",
          "name": "id",
          "type": "bytes32"
        }
      ],
      "name": "cancel",
      "outputs": [],
      "stateMutability": "nonpayable",
      "type": "function"
    },
    {
      "inputs": [
        {
          "internalType": "address",
          "name": "target",
          "type": "address"
        },
        {
          "internalType": "uint256",
          "name": "value",
          "type": "uint256"
        },
        {
          "internalType": "bytes",
          "name": "data",
          "type": "bytes"
        },
        {
          "internalType": "bytes32",
          "name": "predecessor",
          "type": "bytes32"
        },
        {
          "internalType": "bytes32",
          "name": "salt",
          "type": "bytes32"
        }
      ],
      "name": "execute",
      "outputs": [],
      "stateMutability": "payable",
      "type": "function"
    },
    {
      "inputs": [
        {
          "internalType": "address[]",
          "name": "targets",
          "type": "address[]"
        },
        {
          "internalType": "uint256[]",
          "name": "values",
          "type": "uint256[]"
        },
        {
          "internalType": "bytes[]",
          "name": "datas",
          "type": "bytes[]"
        },
        {
          "internalType": "bytes32",
          "name": "predecessor",
          "type": "bytes32"
        },
        {
          "internalType": "bytes32",
          "name": "salt",
          "type": "bytes32"
        }
      ],
      "name": "executeBatch",
      "outputs": [],
      "stateMutability": "payable",
      "type": "function"
    },
    {
      "inputs": [],
      "name": "getMinDelay",
      "outputs": [
        {
          "internalType": "uint256",
          "name": "duration",
          "type": "uint256"
        }
      ],
      "stateMutability": "view",
      "type": "function"
    },
    {
      "inputs": [
        {
          "internalType": "bytes32",
          "name": "role",
          "type": "bytes32"
        }
      ],
      "name": "getRoleAdmin",
      "outputs": [
        {
          "internalType": "bytes32",
          "name": "",
          "type": "bytes32"
        }
      ],
      "stateMutability": "view",
      "type": "function"
    },
    {
      "inputs": [
        {
          "internalType": "bytes32",
          "name": "id",
          "type": "bytes32"
        }
      ],
      "name": "getTimestamp",
      "outputs": [
        {
          "internalType": "uint256",
          "name": "timestamp",
          "type": "uint256"
        }
      ],
      "stateMutability": "view",
      "type": "function"
    },
    {
      "inputs": [
        {
          "internalType": "bytes32",
          "name": "role",
          "type": "bytes32"
        },
        {
          "internalType": "address",
          "name": "account",
          "type": "address"
        }
      ],
      "name": "grantRole",
      "outputs": [],
      "stateMutability": "nonpayable",
      "type": "function"
    },
    {
      "inputs": [
        {
          "internalType": "bytes32",
          "name": "role",
          "type": "bytes32"
        },
        {
          "internalType": "address",
          "name": "account",
          "type": "address"
        }
      ],
      "name": "hasRole",
      "outputs": [
        {
          "internalType": "bool",
          "name": "",
          "type": "bool"
        }
      ],
      "stateMutability": "view",
      "type": "function"
    },
    {
      "inputs": [
        {
          "internalType": "address",
          "name": "target",
          "type": "address"
        },
        {
          "internalType": "uint256",
          "name": "value",
          "type": "uint256"
        },
        {
          "internalType": "bytes",
          "name": "data",
          "type": "bytes"
        },
        {
          "internalType": "bytes32",
          "name": "predecessor",
          "type": "bytes32"
        },
        {
          "internalType": "bytes32",
          "name": "salt",
          "type": "bytes32"
        }
      ],
      "name": "hashOperation",
      "outputs": [
        {
          "internalType": "bytes32",
          "name": "hash",
          "type": "bytes32"
        }
      ],
      "stateMutability": "pure",
      "type": "function"
    },
    {
      "inputs": [
        {
          "internalType": "address[]",
          "name": "targets",
          "type": "address[]"
        },
        {
          "internalType": "uint256[]",
          "name": "values",
          "type": "uint256[]"
        },
        {
          "internalType": "bytes[]",
          "name": "datas",
          "type": "bytes[]"
        },
        {
          "internalType": "bytes32",
          "name": "predecessor",
          "type": "bytes32"
        },
        {
          "internalType": "bytes32",
          "name": "salt",
          "type": "bytes32"
        }
      ],
      "name": "hashOperationBatch",
      "outputs": [
        {
          "internalType": "bytes32",
          "name": "hash",
          "type": "bytes32"
        }
      ],
      "stateMutability": "pure",
      "type": "function"
    },
    {
      "inputs": [
        {
          "internalType": "bytes32",
          "name": "id",
          "type": "bytes32"
        }
      ],
      "name": "isOperation",
      "outputs": [
        {
          "internalType": "bool",
          "name": "pending",
          "type": "bool"
        }
      ],
      "stateMutability": "view",
      "type": "function"
    },
    {
      "inputs": [
        {
          "internalType": "bytes32",
          "name": "id",
          "type": "bytes32"
        }
      ],
      "name": "isOperationDone",
      "outputs": [
        {
          "internalType": "bool",
          "name": "done",
          "type": "bool"
        }
      ],
      "stateMutability": "view",
      "type": "function"
    },
    {
      "inputs": [
        {
          "internalType": "bytes32",
          "name": "id",
          "type": "bytes32"
        }
      ],
      "name": "isOperationPending",
      "outputs": [
        {
          "internalType": "bool",
          "name": "pending",
          "type": "bool"
        }
      ],
      "stateMutability": "view",
      "type": "function"
    },
    {
      "inputs": [
        {
          "internalType": "bytes32",
          "name": "id",
          "type": "bytes32"
        }
      ],
      "name": "isOperationReady",
      "outputs": [
        {
          "internalType": "bool",
          "name": "ready",
          "type": "bool"
        }
      ],
      "stateMutability": "view",
      "type": "function"
    },
    {
      "inputs": [
        {
          "internalType": "bytes32",
          "name": "role",
          "type": "bytes32"
        },
        {
          "internalType": "address",
          "name": "account",
          "type": "address"
        }
      ],
      "name": "renounceRole",
      "outputs": [],
      "stateMutability": "nonpayable",
      "type": "function"
    },
    {
      "inputs": [
        {
          "internalType": "bytes32",
          "name": "role",
          "type": "bytes32"
        },
        {
          "internalType": "address",
          "name": "account",
          "type": "address"
        }
      ],
      "name": "revokeRole",
      "outputs": [],
      "stateMutability": "nonpayable",
      "type": "function"
    },
    {
      "inputs": [
        {
          "internalType": "address",
          "name": "target",
          "type": "address"
        },
        {
          "internalType": "uint256",
          "name": "value",
          "type": "uint256"
        },
        {
          "internalType": "bytes",
          "name": "data",
          "type": "bytes"
        },
        {
          "internalType": "bytes32",
          "name": "predecessor",
          "type": "bytes32"
        },
        {
          "internalType": "bytes32",
          "name": "salt",
          "type": "bytes32"
        },
        {
          "internalType": "uint256",
          "name": "delay",
          "type": "uint256"
        }
      ],
      "name": "schedule",
      "outputs": [],
      "stateMutability": "nonpayable",
      "type": "function"
    },
    {
      "inputs": [
        {
          "internalType": "address[]",
          "name": "targets",
          "type": "address[]"
        },
        {
          "internalType": "uint256[]",
          "name": "values",
          "type": "uint256[]"
        },
        {
          "internalType": "bytes[]",
          "name": "datas",
          "type": "bytes[]"
        },
        {
          "internalType": "bytes32",
          "name": "predecessor",
          "type": "bytes32"
        },
        {
          "internalType": "bytes32",
          "name": "salt",
          "type": "bytes32"
        },
        {
          "internalType": "uint256",
          "name": "delay",
          "type": "uint256"
        }
      ],
      "name": "scheduleBatch",
      "outputs": [],
      "stateMutability": "nonpayable",
      "type": "function"
    },
    {
      "inputs": [
        {
          "internalType": "bytes4",
          "name": "interfaceId",
          "type": "bytes4"
        }
      ],
      "name": "supportsInterface",
      "outputs": [
        {
          "internalType": "bool",
          "name": "",
          "type": "bool"
        }
      ],
      "stateMutability": "view",
      "type": "function"
    },
    {
      "inputs": [
        {
          "internalType": "uint256",
          "name": "newDelay",
          "type": "uint256"
        }
      ],
      "name": "updateDelay",
      "outputs": [],
      "stateMutability": "nonpayable",
      "type": "function"
    },
    {
      "stateMutability": "payable",
      "type": "receive"
    },
    {
      "inputs": [
        {
          "internalType": "address",
          "name": "_vaultAddress",
          "type": "address"
        },
        {
          "internalType": "uint256",
          "name": "_maxMarketMovement",
          "type": "uint256"
        }
      ],
      "name": "earn",
      "outputs": [],
      "stateMutability": "nonpayable",
      "type": "function"
    },
    {
      "inputs": [
        {
          "internalType": "address",
          "name": "_vaultAddress",
          "type": "address"
        }
      ],
      "name": "farm",
      "outputs": [],
      "stateMutability": "nonpayable",
      "type": "function"
    },
    {
      "inputs": [
        {
          "internalType": "address",
          "name": "_vaultAddress",
          "type": "address"
        }
      ],
      "name": "pause",
      "outputs": [],
      "stateMutability": "nonpayable",
      "type": "function"
    },
    {
      "inputs": [
        {
          "internalType": "address",
          "name": "_vaultAddress",
          "type": "address"
        }
      ],
      "name": "unpause",
      "outputs": [],
      "stateMutability": "nonpayable",
      "type": "function"
    }
  ],
  "bytecode": "0x60806040523480156200001157600080fd5b506040516200241638038062002416833981016040819052620000349162000464565b8282826200005b600080516020620023b68339815191528064010000000062000217810204565b6200008e600080516020620023d6833981519152600080516020620023b683398151915264010000000062000217810204565b620000c1600080516020620023f6833981519152600080516020620023b683398151915264010000000062000217810204565b620000f7600080516020620023b6833981519152620000e864010000000062000275810204565b64010000000062000279810204565b6200011b600080516020620023b68339815191523064010000000062000279810204565b60005b825181101562000181576200016e600080516020620023d6833981519152848381518110620001515762000151620004d7565b602002602001015162000279640100000000026401000000009004565b620001798162000506565b90506200011e565b5060005b8151811015620001cb57620001b8600080516020620023f6833981519152838381518110620001515762000151620004d7565b620001c38162000506565b905062000185565b5060028390556040805160008152602081018590527f11c24f4ead16507c69ac467fbd5e4eed5fb5c699626d2cc6d66421df253886d5910160405180910390a150505050505062000549565b60006200022d8364010000000062000292810204565b600084815260208190526040808220600101859055519192508391839186917fbd79b86ffe0ab8e8776151514217cd7cacd52c909f66475c3af44e129f0b00ff9190a4505050565b3390565b6200028e8282640100000000620002a7810204565b5050565b60009081526020819052604090206001015490565b620002bc828264010000000062000343810204565b6200028e57600082815260208181526040808320600160a060020a03851684529091529020805460ff19166001179055620002ff64010000000062000275810204565b600160a060020a031681600160a060020a0316837f2f8788117e7eff1d82e926ec794901d17c78024a50270940304540a733656f0d60405160405180910390a45050565b600091825260208281526040808420600160a060020a0393909316845291905290205460ff1690565b7f4e487b7100000000000000000000000000000000000000000000000000000000600052604160045260246000fd5b8051600160a060020a0381168114620003b357600080fd5b919050565b600082601f830112620003ca57600080fd5b815160206001604060020a0380831115620003e957620003e96200036c565b818302604051601f19603f830116810181811084821117156200041057620004106200036c565b6040529384528581018301938381019250878511156200042f57600080fd5b83870191505b84821015620004595762000449826200039b565b8352918301919083019062000435565b979650505050505050565b6000806000606084860312156200047a57600080fd5b8351925060208401516001604060020a03808211156200049957600080fd5b620004a787838801620003b8565b93506040860151915080821115620004be57600080fd5b50620004cd86828701620003b8565b9150509250925092565b7f4e487b7100000000000000000000000000000000000000000000000000000000600052603260045260246000fd5b600060001982141562000542577f4e487b7100000000000000000000000000000000000000000000000000000000600052601160045260246000fd5b5060010190565b611e5d80620005596000396000f3fe6080604052600436106101bf5760003560e060020a9004806376a67a51116100f0578063b02bf4b91161008e578063d45c443511610068578063d45c443514610511578063d547741f1461053e578063e38335e51461055e578063f27a0c921461057157600080fd5b8063b02bf4b9146104b1578063b1c5f427146104d1578063c4d252f5146104f157600080fd5b80638f61f4f5116100ca5780638f61f4f51461043a57806391d148541461045c578063a217fddf1461047c578063a90909171461049157600080fd5b806376a67a51146103da5780638065657f146103fa5780638f2a0bb01461041a57600080fd5b80632ab0f5291161015d57806336568abe1161013757806336568abe1461035a57806357b001f91461037a578063584b153e1461039a57806364d62353146103ba57600080fd5b80632ab0f529146102e95780632f2ff15d1461031a57806331d507501461033a57600080fd5b80630d3cf6fc116101995780630d3cf6fc14610252578063134008d31461028657806313bc9f2014610299578063248a9ca3146102b957600080fd5b806301d5062a146101cb57806301ffc9a7146101ed57806307bd02651461022257600080fd5b366101c657005b600080fd5b3480156101d757600080fd5b506101eb6101e63660046115c7565b610586565b005b3480156101f957600080fd5b5061020d61020836600461163c565b61060a565b60405190151581526020015b60405180910390f35b34801561022e57600080fd5b50610244600080516020611e0883398151915281565b604051908152602001610219565b34801561025e57600080fd5b506102447f5f58e3a2316349923ce3780f8d587db2d72378aed66a8261c916544fa6846ca581565b6101eb61029436600461167b565b61069d565b3480156102a557600080fd5b5061020d6102b43660046116e7565b610703565b3480156102c557600080fd5b506102446102d43660046116e7565b60009081526020819052604090206001015490565b3480156102f557600080fd5b5061020d6103043660046116e7565b6000908152600160208190526040909120541490565b34801561032657600080fd5b506101eb610335366004611700565b610729565b34801561034657600080fd5b5061020d6103553660046116e7565b610754565b34801561036657600080fd5b506101eb610375366004611700565b61076d565b34801561038657600080fd5b506101eb61039536600461172c565b610801565b3480156103a657600080fd5b5061020d6103b53660046116e7565b610874565b3480156103c657600080fd5b506101eb6103d53660046116e7565b61088a565b3480156103e657600080fd5b506101eb6103f536600461172c565b610943565b34801561040657600080fd5b5061024461041536600461167b565b61099a565b34801561042657600080fd5b506101eb61043536600461178b565b6109d9565b34801561044657600080fd5b50610244600080516020611de883398151915281565b34801561046857600080fd5b5061020d610477366004611700565b610b20565b34801561048857600080fd5b50610244600081565b34801561049d57600080fd5b506101eb6104ac36600461172c565b610b49565b3480156104bd57600080fd5b506101eb6104cc36600461183d565b610ba0565b3480156104dd57600080fd5b506102446104ec366004611867565b610c31565b3480156104fd57600080fd5b506101eb61050c3660046116e7565b610c76565b34801561051d57600080fd5b5061024461052c3660046116e7565b60009081526001602052604090205490565b34801561054a57600080fd5b506101eb610559366004611700565b610d49565b6101eb61056c366004611867565b610d6f565b34801561057d57600080fd5b50600254610244565b600080516020611de883398151915261059f8133610e98565b60006105af89898989898961099a565b90506105bb8184610eff565b6000817f4cf4410cc57040e44862ef0f45f3dd5a5e02db8eb8add648d4b0e236f1d07dca8b8b8b8b8b8a6040516105f796959493929190611939565b60405180910390a3505050505050505050565b60007bffffffffffffffffffffffffffffffffffffffffffffffffffffffff1982167f7965db0b00000000000000000000000000000000000000000000000000000000148061069757507f01ffc9a7000000000000000000000000000000000000000000000000000000007bffffffffffffffffffffffffffffffffffffffffffffffffffffffff198316145b92915050565b600080516020611e088339815191526106b7816000610b20565b6106c5576106c58133610e98565b60006106d588888888888861099a565b90506106e18185611019565b6106f08160008a8a8a8a6110d2565b6106f9816111f3565b5050505050505050565b6000818152600160205260408120546001811180156107225750428111155b9392505050565b6000828152602081905260409020600101546107458133610e98565b61074f838361122f565b505050565b60008181526001602052604081205481905b1192915050565b600160a060020a03811633146107f35760405160e560020a62461bcd02815260206004820152602f60248201527f416363657373436f6e74726f6c3a2063616e206f6e6c792072656e6f756e636560448201527f20726f6c657320666f722073656c66000000000000000000000000000000000060648201526084015b60405180910390fd5b6107fd82826112b3565b5050565b600080516020611e0883398151915261081a8133610e98565b81600160a060020a0316633f4ba83a6040518163ffffffff1660e060020a028152600401600060405180830381600087803b15801561085857600080fd5b505af115801561086c573d6000803e3d6000fd5b505050505050565b6000818152600160208190526040822054610766565b3330146109025760405160e560020a62461bcd02815260206004820152602b60248201527f54696d656c6f636b436f6e74726f6c6c65723a2063616c6c6572206d7573742060448201527f62652074696d656c6f636b00000000000000000000000000000000000000000060648201526084016107ea565b60025460408051918252602082018390527f11c24f4ead16507c69ac467fbd5e4eed5fb5c699626d2cc6d66421df253886d5910160405180910390a1600255565b600080516020611e0883398151915261095c8133610e98565b81600160a060020a0316638456cb596040518163ffffffff1660e060020a028152600401600060405180830381600087803b15801561085857600080fd5b60008686868686866040516020016109b796959493929190611939565b6040516020818303038152906040528051906020012090509695505050505050565b600080516020611de88339815191526109f28133610e98565b888714610a145760405160e560020a62461bcd0281526004016107ea90611977565b888514610a365760405160e560020a62461bcd0281526004016107ea90611977565b6000610a488b8b8b8b8b8b8b8b610c31565b9050610a548184610eff565b60005b8a811015610b125780827f4cf4410cc57040e44862ef0f45f3dd5a5e02db8eb8add648d4b0e236f1d07dca8e8e85818110610a9457610a946119d4565b9050602002016020810190610aa9919061172c565b8d8d86818110610abb57610abb6119d4565b905060200201358c8c87818110610ad457610ad46119d4565b9050602002810190610ae69190611a03565b8c8b604051610afa96959493929190611939565b60405180910390a3610b0b81611a79565b9050610a57565b505050505050505050505050565b600091825260208281526040808420600160a060020a0393909316845291905290205460ff1690565b600080516020611e08833981519152610b628133610e98565b81600160a060020a03166336e9332d6040518163ffffffff1660e060020a028152600401600060405180830381600087803b15801561085857600080fd5b600080516020611e08833981519152610bb98133610e98565b6040517fe65a011700000000000000000000000000000000000000000000000000000000815260048101839052600160a060020a0384169063e65a011790602401600060405180830381600087803b158015610c1457600080fd5b505af1158015610c28573d6000803e3d6000fd5b50505050505050565b60008888888888888888604051602001610c52989796959493929190611b22565b60405160208183030381529060405280519060200120905098975050505050505050565b600080516020611de8833981519152610c8f8133610e98565b610c9882610874565b610d0d5760405160e560020a62461bcd02815260206004820152603160248201527f54696d656c6f636b436f6e74726f6c6c65723a206f7065726174696f6e20636160448201527f6e6e6f742062652063616e63656c6c656400000000000000000000000000000060648201526084016107ea565b6000828152600160205260408082208290555183917fbaa1eb22f2a492ba1a5fea61b8df4d27c6c8b5f3971e63bb58fa14ff72eedb7091a25050565b600082815260208190526040902060010154610d658133610e98565b61074f83836112b3565b600080516020611e08833981519152610d89816000610b20565b610d9757610d978133610e98565b878614610db95760405160e560020a62461bcd0281526004016107ea90611977565b878414610ddb5760405160e560020a62461bcd0281526004016107ea90611977565b6000610ded8a8a8a8a8a8a8a8a610c31565b9050610df98185611019565b60005b89811015610e8257610e7282828d8d85818110610e1b57610e1b6119d4565b9050602002016020810190610e30919061172c565b8c8c86818110610e4257610e426119d4565b905060200201358b8b87818110610e5b57610e5b6119d4565b9050602002810190610e6d9190611a03565b6110d2565b610e7b81611a79565b9050610dfc565b50610e8c816111f3565b50505050505050505050565b610ea28282610b20565b6107fd57610eba81600160a060020a03166014611318565b610ec5836020611318565b604051602001610ed6929190611c16565b60408051601f198184030181529082905260e560020a62461bcd0282526107ea91600401611c97565b610f0882610754565b15610f7e5760405160e560020a62461bcd02815260206004820152602f60248201527f54696d656c6f636b436f6e74726f6c6c65723a206f7065726174696f6e20616c60448201527f7265616479207363686564756c6564000000000000000000000000000000000060648201526084016107ea565b600254811015610ff95760405160e560020a62461bcd02815260206004820152602660248201527f54696d656c6f636b436f6e74726f6c6c65723a20696e73756666696369656e7460448201527f2064656c6179000000000000000000000000000000000000000000000000000060648201526084016107ea565b6110038142611cca565b6000928352600160205260409092209190915550565b61102282610703565b6110415760405160e560020a62461bcd0281526004016107ea90611ce2565b80158061105d5750600081815260016020819052604090912054145b6107fd5760405160e560020a62461bcd02815260206004820152602660248201527f54696d656c6f636b436f6e74726f6c6c65723a206d697373696e67206465706560448201527f6e64656e6379000000000000000000000000000000000000000000000000000060648201526084016107ea565b600084600160a060020a03168484846040516110ef929190611d3f565b60006040518083038185875af1925050503d806000811461112c576040519150601f19603f3d011682016040523d82523d6000602084013e611131565b606091505b50509050806111ab5760405160e560020a62461bcd02815260206004820152603360248201527f54696d656c6f636b436f6e74726f6c6c65723a20756e6465726c79696e67207460448201527f72616e73616374696f6e2072657665727465640000000000000000000000000060648201526084016107ea565b85877fc2617efa69bab66782fa219543714338489c4e9e178271560a91b82c3f612b58878787876040516111e29493929190611d4f565b60405180910390a350505050505050565b6111fc81610703565b61121b5760405160e560020a62461bcd0281526004016107ea90611ce2565b600090815260016020819052604090912055565b6112398282610b20565b6107fd57600082815260208181526040808320600160a060020a03851684529091529020805460ff1916600117905561126f3390565b600160a060020a031681600160a060020a0316837f2f8788117e7eff1d82e926ec794901d17c78024a50270940304540a733656f0d60405160405180910390a45050565b6112bd8282610b20565b156107fd57600082815260208181526040808320600160a060020a0385168085529252808320805460ff1916905551339285917ff6391f5c32d9c69d2a47ea670b442974b53935d1edc7fd64eb21e047a839171b9190a45050565b60606000611327836002611d82565b611332906002611cca565b67ffffffffffffffff81111561134a5761134a611da1565b6040519080825280601f01601f191660200182016040528015611374576020820181803683370190505b5090507f3000000000000000000000000000000000000000000000000000000000000000816000815181106113ab576113ab6119d4565b60200101907effffffffffffffffffffffffffffffffffffffffffffffffffffffffffffff1916908160001a9053507f78000000000000000000000000000000000000000000000000000000000000008160018151811061140e5761140e6119d4565b60200101907effffffffffffffffffffffffffffffffffffffffffffffffffffffffffffff1916908160001a905350600061144a846002611d82565b611455906001611cca565b90505b6001811115611510577f303132333435363738396162636465660000000000000000000000000000000085600f1660108110611496576114966119d4565b1a7f0100000000000000000000000000000000000000000000000000000000000000028282815181106114cb576114cb6119d4565b60200101907effffffffffffffffffffffffffffffffffffffffffffffffffffffffffffff1916908160001a90535060109094049361150981611dd0565b9050611458565b5083156107225760405160e560020a62461bcd02815260206004820181905260248201527f537472696e67733a20686578206c656e67746820696e73756666696369656e7460448201526064016107ea565b8035600160a060020a038116811461157957600080fd5b919050565b60008083601f84011261159057600080fd5b50813567ffffffffffffffff8111156115a857600080fd5b6020830191508360208285010111156115c057600080fd5b9250929050565b600080600080600080600060c0888a0312156115e257600080fd5b6115eb88611562565b965060208801359550604088013567ffffffffffffffff81111561160e57600080fd5b61161a8a828b0161157e565b989b979a50986060810135976080820135975060a09091013595509350505050565b60006020828403121561164e57600080fd5b81357bffffffffffffffffffffffffffffffffffffffffffffffffffffffff198116811461072257600080fd5b60008060008060008060a0878903121561169457600080fd5b61169d87611562565b955060208701359450604087013567ffffffffffffffff8111156116c057600080fd5b6116cc89828a0161157e565b979a9699509760608101359660809091013595509350505050565b6000602082840312156116f957600080fd5b5035919050565b6000806040838503121561171357600080fd5b8235915061172360208401611562565b90509250929050565b60006020828403121561173e57600080fd5b61072282611562565b60008083601f84011261175957600080fd5b50813567ffffffffffffffff81111561177157600080fd5b60208301915083602080830285010111156115c057600080fd5b600080600080600080600080600060c08a8c0312156117a957600080fd5b893567ffffffffffffffff808211156117c157600080fd5b6117cd8d838e01611747565b909b50995060208c01359150808211156117e657600080fd5b6117f28d838e01611747565b909950975060408c013591508082111561180b57600080fd5b506118188c828d01611747565b9a9d999c50979a969997986060880135976080810135975060a0013595509350505050565b6000806040838503121561185057600080fd5b61185983611562565b946020939093013593505050565b60008060008060008060008060a0898b03121561188357600080fd5b883567ffffffffffffffff8082111561189b57600080fd5b6118a78c838d01611747565b909a50985060208b01359150808211156118c057600080fd5b6118cc8c838d01611747565b909850965060408b01359150808211156118e557600080fd5b506118f28b828c01611747565b999c989b509699959896976060870135966080013595509350505050565b81835281816020850137506000828201602090810191909152601f909101601f19169091010190565b600160a060020a038716815285602082015260a06040820152600061196260a083018688611910565b60608301949094525060800152949350505050565b60208082526023908201527f54696d656c6f636b436f6e74726f6c6c65723a206c656e677468206d69736d6160408201527f7463680000000000000000000000000000000000000000000000000000000000606082015260800190565b7f4e487b7100000000000000000000000000000000000000000000000000000000600052603260045260246000fd5b6000808335601e19843603018112611a1a57600080fd5b83018035915067ffffffffffffffff821115611a3557600080fd5b6020019150368190038213156115c057600080fd5b7f4e487b7100000000000000000000000000000000000000000000000000000000600052601160045260246000fd5b6000600019821415611a8d57611a8d611a4a565b5060010190565b818352602080840193600091908185020181018584845b87811015611b155782840389528135601e19883603018112611acc57600080fd5b8701803567ffffffffffffffff811115611ae557600080fd5b803603891315611af457600080fd5b611b018682898501611910565b9a87019a9550505090840190600101611aab565b5091979650505050505050565b60a0808252810188905260008960c08301825b8b811015611b6357600160a060020a03611b4e84611562565b16825260209283019290910190600101611b35565b5083810360208501528881527f07ffffffffffffffffffffffffffffffffffffffffffffffffffffffffffffff891115611b9c57600080fd5b602089029150818a602083013781810191505060208101600081526020848303016040850152611bcd81888a611a94565b6060850196909652505050608001529695505050505050565b60005b83811015611c01578181015183820152602001611be9565b83811115611c10576000848401525b50505050565b7f416363657373436f6e74726f6c3a206163636f756e7420000000000000000000815260008351611c4e816017850160208801611be6565b7f206973206d697373696e6720726f6c65200000000000000000000000000000006017918401918201528351611c8b816028840160208801611be6565b01602801949350505050565b6020815260008251806020840152611cb6816040850160208701611be6565b601f01601f19169190910160400192915050565b60008219821115611cdd57611cdd611a4a565b500190565b6020808252602a908201527f54696d656c6f636b436f6e74726f6c6c65723a206f7065726174696f6e20697360408201527f206e6f7420726561647900000000000000000000000000000000000000000000606082015260800190565b8183823760009101908152919050565b600160a060020a0385168152836020820152606060408201526000611d78606083018486611910565b9695505050505050565b6000816000190483118215151615611d9c57611d9c611a4a565b500290565b7f4e487b7100000000000000000000000000000000000000000000000000000000600052604160045260246000fd5b600081611ddf57611ddf611a4a565b50600019019056feb09aa5aeb3702cfd50b6b62bc4532604938f21248a27a1d5ca736082b6819cc1d8aa0f3194971a2a116679f7c2090f6939c8d4e01a2a8d7e41d55e5351469e63a2646970667358221220d978c26042fdf73d3f131a5faf38d87e0dd2cea9969e18d5e1aeb4e762c61cc964736f6c634300080a00335f58e3a2316349923ce3780f8d587db2d72378aed66a8261c916544fa6846ca5b09aa5aeb3702cfd50b6b62bc4532604938f21248a27a1d5ca736082b6819cc1d8aa0f3194971a2a116679f7c2090f6939c8d4e01a2a8d7e41d55e5351469e63",
  "immutableReferences": {},
  "source": "// SPDX-License-Identifier: MIT\n\npragma solidity ^0.8.0;\n\nimport \"@openzeppelin/contracts/governance/TimelockController.sol\";\n\nimport \"../interfaces/IVault.sol\";\n\n/// @title VaultTimelock: A contract that owns all deployed implementations of IVault for safety\ncontract VaultTimelock is TimelockController {\n    /* Constructors */\n    constructor(\n        uint256 _minDelay,\n        address[] memory _proposers,\n        address[] memory _executors\n    ) TimelockController(_minDelay, _proposers, _executors) {}\n\n    /* No timelock functions */\n\n    function earn(\n        address _vaultAddress,\n        uint256 _maxMarketMovement\n    ) public onlyRole(EXECUTOR_ROLE) {\n        IVault(_vaultAddress).earn(_maxMarketMovement);\n    }\n\n    function farm(address _vaultAddress) public onlyRole(EXECUTOR_ROLE) {\n        IVault(_vaultAddress).farm();\n    }\n\n    function pause(address _vaultAddress) public onlyRole(EXECUTOR_ROLE) {\n        IVault(_vaultAddress).pause();\n    }\n\n    function unpause(address _vaultAddress) public onlyRole(EXECUTOR_ROLE) {\n        IVault(_vaultAddress).unpause();\n    }\n\n}\n",
  "sourcePath": "/Users/kristophm/Documents/workspace/zorro-protocol/contracts/timelock/VaultTimelock.sol",
  "compiler": {
    "name": "solc",
    "version": "0.8.10+commit.fc410830.Emscripten.clang"
  },
  "schemaVersion": "3.4.10",
  "updatedAt": "2022-11-11T13:38:58.384Z",
  "devdoc": {
    "kind": "dev",
    "methods": {
      "cancel(bytes32)": {
        "details": "Cancel an operation. Requirements: - the caller must have the 'proposer' role."
      },
      "execute(address,uint256,bytes,bytes32,bytes32)": {
        "details": "Execute an (ready) operation containing a single transaction. Emits a {CallExecuted} event. Requirements: - the caller must have the 'executor' role."
      },
      "executeBatch(address[],uint256[],bytes[],bytes32,bytes32)": {
        "details": "Execute an (ready) operation containing a batch of transactions. Emits one {CallExecuted} event per transaction in the batch. Requirements: - the caller must have the 'executor' role."
      },
      "getMinDelay()": {
        "details": "Returns the minimum delay for an operation to become valid. This value can be changed by executing an operation that calls `updateDelay`."
      },
      "getRoleAdmin(bytes32)": {
        "details": "Returns the admin role that controls `role`. See {grantRole} and {revokeRole}. To change a role's admin, use {_setRoleAdmin}."
      },
      "getTimestamp(bytes32)": {
        "details": "Returns the timestamp at with an operation becomes ready (0 for unset operations, 1 for done operations)."
      },
      "grantRole(bytes32,address)": {
        "details": "Grants `role` to `account`. If `account` had not been already granted `role`, emits a {RoleGranted} event. Requirements: - the caller must have ``role``'s admin role."
      },
      "hasRole(bytes32,address)": {
        "details": "Returns `true` if `account` has been granted `role`."
      },
      "hashOperation(address,uint256,bytes,bytes32,bytes32)": {
        "details": "Returns the identifier of an operation containing a single transaction."
      },
      "hashOperationBatch(address[],uint256[],bytes[],bytes32,bytes32)": {
        "details": "Returns the identifier of an operation containing a batch of transactions."
      },
      "isOperation(bytes32)": {
        "details": "Returns whether an id correspond to a registered operation. This includes both Pending, Ready and Done operations."
      },
      "isOperationDone(bytes32)": {
        "details": "Returns whether an operation is done or not."
      },
      "isOperationPending(bytes32)": {
        "details": "Returns whether an operation is pending or not."
      },
      "isOperationReady(bytes32)": {
        "details": "Returns whether an operation is ready or not."
      },
      "renounceRole(bytes32,address)": {
        "details": "Revokes `role` from the calling account. Roles are often managed via {grantRole} and {revokeRole}: this function's purpose is to provide a mechanism for accounts to lose their privileges if they are compromised (such as when a trusted device is misplaced). If the calling account had been revoked `role`, emits a {RoleRevoked} event. Requirements: - the caller must be `account`."
      },
      "revokeRole(bytes32,address)": {
        "details": "Revokes `role` from `account`. If `account` had been granted `role`, emits a {RoleRevoked} event. Requirements: - the caller must have ``role``'s admin role."
      },
      "schedule(address,uint256,bytes,bytes32,bytes32,uint256)": {
        "details": "Schedule an operation containing a single transaction. Emits a {CallScheduled} event. Requirements: - the caller must have the 'proposer' role."
      },
      "scheduleBatch(address[],uint256[],bytes[],bytes32,bytes32,uint256)": {
        "details": "Schedule an operation containing a batch of transactions. Emits one {CallScheduled} event per transaction in the batch. Requirements: - the caller must have the 'proposer' role."
      },
      "supportsInterface(bytes4)": {
        "details": "See {IERC165-supportsInterface}."
      },
      "updateDelay(uint256)": {
        "details": "Changes the minimum timelock duration for future operations. Emits a {MinDelayChange} event. Requirements: - the caller must be the timelock itself. This can only be achieved by scheduling and later executing an operation where the timelock is the target and the data is the ABI-encoded call to this function."
      }
    },
    "title": "VaultTimelock: A contract that owns all deployed implementations of IVault for safety",
    "version": 1
  },
  "userdoc": {
    "kind": "user",
    "methods": {},
    "version": 1
  }
}