{
  "contractName": "VaultStandardAMM",
  "abi": [
    {
      "inputs": [
        {
          "components": [
            {
              "internalType": "uint256",
              "name": "pid",
              "type": "uint256"
            },
            {
              "internalType": "bool",
              "name": "isCOREStaking",
              "type": "bool"
            },
            {
              "internalType": "bool",
              "name": "isZorroComp",
              "type": "bool"
            },
            {
              "internalType": "bool",
              "name": "isHomeChain",
              "type": "bool"
            },
            {
              "internalType": "bool",
              "name": "isSingleAssetDeposit",
              "type": "bool"
            },
            {
              "components": [
                {
                  "internalType": "address",
                  "name": "govAddress",
                  "type": "address"
                },
                {
                  "internalType": "address",
                  "name": "zorroControllerAddress",
                  "type": "address"
                },
                {
                  "internalType": "address",
                  "name": "ZORROAddress",
                  "type": "address"
                },
                {
                  "internalType": "address",
                  "name": "zorroStakingVault",
                  "type": "address"
                },
                {
                  "internalType": "address",
                  "name": "wantAddress",
                  "type": "address"
                },
                {
                  "internalType": "address",
                  "name": "token0Address",
                  "type": "address"
                },
                {
                  "internalType": "address",
                  "name": "token1Address",
                  "type": "address"
                },
                {
                  "internalType": "address",
                  "name": "earnedAddress",
                  "type": "address"
                },
                {
                  "internalType": "address",
                  "name": "farmContractAddress",
                  "type": "address"
                },
                {
                  "internalType": "address",
                  "name": "rewardsAddress",
                  "type": "address"
                },
                {
                  "internalType": "address",
                  "name": "poolAddress",
                  "type": "address"
                },
                {
                  "internalType": "address",
                  "name": "uniRouterAddress",
                  "type": "address"
                },
                {
                  "internalType": "address",
                  "name": "zorroLPPool",
                  "type": "address"
                },
                {
                  "internalType": "address",
                  "name": "zorroLPPoolOtherToken",
                  "type": "address"
                },
                {
                  "internalType": "address",
                  "name": "tokenUSDCAddress",
                  "type": "address"
                }
              ],
              "internalType": "struct VaultBase.VaultAddresses",
              "name": "keyAddresses",
              "type": "tuple"
            },
            {
              "internalType": "address[]",
              "name": "earnedToZORROPath",
              "type": "address[]"
            },
            {
              "internalType": "address[]",
              "name": "earnedToToken0Path",
              "type": "address[]"
            },
            {
              "internalType": "address[]",
              "name": "earnedToToken1Path",
              "type": "address[]"
            },
            {
              "internalType": "address[]",
              "name": "USDCToToken0Path",
              "type": "address[]"
            },
            {
              "internalType": "address[]",
              "name": "USDCToToken1Path",
              "type": "address[]"
            },
            {
              "internalType": "address[]",
              "name": "earnedToZORLPPoolOtherTokenPath",
              "type": "address[]"
            },
            {
              "internalType": "address[]",
              "name": "earnedToUSDCPath",
              "type": "address[]"
            },
            {
              "components": [
                {
                  "internalType": "uint256",
                  "name": "controllerFee",
                  "type": "uint256"
                },
                {
                  "internalType": "uint256",
                  "name": "buyBackRate",
                  "type": "uint256"
                },
                {
                  "internalType": "uint256",
                  "name": "revShareRate",
                  "type": "uint256"
                },
                {
                  "internalType": "uint256",
                  "name": "entranceFeeFactor",
                  "type": "uint256"
                },
                {
                  "internalType": "uint256",
                  "name": "withdrawFeeFactor",
                  "type": "uint256"
                }
              ],
              "internalType": "struct VaultBase.VaultFees",
              "name": "fees",
              "type": "tuple"
            },
            {
              "components": [
                {
                  "internalType": "address",
                  "name": "token0PriceFeed",
                  "type": "address"
                },
                {
                  "internalType": "address",
                  "name": "token1PriceFeed",
                  "type": "address"
                },
                {
                  "internalType": "address",
                  "name": "earnTokenPriceFeed",
                  "type": "address"
                },
                {
                  "internalType": "address",
                  "name": "ZORPriceFeed",
                  "type": "address"
                },
                {
                  "internalType": "address",
                  "name": "lpPoolOtherTokenPriceFeed",
                  "type": "address"
                }
              ],
              "internalType": "struct VaultBase.VaultPriceFeeds",
              "name": "priceFeeds",
              "type": "tuple"
            }
          ],
          "internalType": "struct VaultStandardAMM.VaultStandardAMMInit",
          "name": "_initValue",
          "type": "tuple"
        }
      ],
      "stateMutability": "nonpayable",
      "type": "constructor"
    },
    {
      "anonymous": false,
      "inputs": [
        {
          "indexed": true,
          "internalType": "address",
          "name": "previousOwner",
          "type": "address"
        },
        {
          "indexed": true,
          "internalType": "address",
          "name": "newOwner",
          "type": "address"
        }
      ],
      "name": "OwnershipTransferred",
      "type": "event"
    },
    {
      "anonymous": false,
      "inputs": [
        {
          "indexed": false,
          "internalType": "address",
          "name": "account",
          "type": "address"
        }
      ],
      "name": "Paused",
      "type": "event"
    },
    {
      "anonymous": false,
      "inputs": [
        {
          "indexed": false,
          "internalType": "address",
          "name": "_govAddress",
          "type": "address"
        }
      ],
      "name": "SetGov",
      "type": "event"
    },
    {
      "anonymous": false,
      "inputs": [
        {
          "indexed": false,
          "internalType": "bool",
          "name": "_onlyGov",
          "type": "bool"
        }
      ],
      "name": "SetOnlyGov",
      "type": "event"
    },
    {
      "anonymous": false,
      "inputs": [
        {
          "indexed": false,
          "internalType": "address",
          "name": "_rewardsAddress",
          "type": "address"
        }
      ],
      "name": "SetRewardsAddress",
      "type": "event"
    },
    {
      "anonymous": false,
      "inputs": [
        {
          "indexed": false,
          "internalType": "uint256",
          "name": "_entranceFeeFactor",
          "type": "uint256"
        },
        {
          "indexed": false,
          "internalType": "uint256",
          "name": "_withdrawFeeFactor",
          "type": "uint256"
        },
        {
          "indexed": false,
          "internalType": "uint256",
          "name": "_controllerFee",
          "type": "uint256"
        },
        {
          "indexed": false,
          "internalType": "uint256",
          "name": "_buyBackRate",
          "type": "uint256"
        }
      ],
      "name": "SetSettings",
      "type": "event"
    },
    {
      "anonymous": false,
      "inputs": [
        {
          "indexed": false,
          "internalType": "address",
          "name": "_uniRouterAddress",
          "type": "address"
        }
      ],
      "name": "SetUniRouterAddress",
      "type": "event"
    },
    {
      "anonymous": false,
      "inputs": [
        {
          "indexed": false,
          "internalType": "address",
          "name": "account",
          "type": "address"
        }
      ],
      "name": "Unpaused",
      "type": "event"
    },
    {
      "inputs": [
        {
          "internalType": "uint256",
          "name": "",
          "type": "uint256"
        }
      ],
      "name": "USDCToToken0Path",
      "outputs": [
        {
          "internalType": "address",
          "name": "",
          "type": "address"
        }
      ],
      "stateMutability": "view",
      "type": "function"
    },
    {
      "inputs": [
        {
          "internalType": "uint256",
          "name": "",
          "type": "uint256"
        }
      ],
      "name": "USDCToToken1Path",
      "outputs": [
        {
          "internalType": "address",
          "name": "",
          "type": "address"
        }
      ],
      "stateMutability": "view",
      "type": "function"
    },
    {
      "inputs": [],
      "name": "ZORPriceFeed",
      "outputs": [
        {
          "internalType": "contract AggregatorV3Interface",
          "name": "",
          "type": "address"
        }
      ],
      "stateMutability": "view",
      "type": "function"
    },
    {
      "inputs": [],
      "name": "ZORROAddress",
      "outputs": [
        {
          "internalType": "address",
          "name": "",
          "type": "address"
        }
      ],
      "stateMutability": "view",
      "type": "function"
    },
    {
      "inputs": [],
      "name": "burnAddress",
      "outputs": [
        {
          "internalType": "address",
          "name": "",
          "type": "address"
        }
      ],
      "stateMutability": "view",
      "type": "function"
    },
    {
      "inputs": [],
      "name": "buyBackRate",
      "outputs": [
        {
          "internalType": "uint256",
          "name": "",
          "type": "uint256"
        }
      ],
      "stateMutability": "view",
      "type": "function"
    },
    {
      "inputs": [],
      "name": "buyBackRateMax",
      "outputs": [
        {
          "internalType": "uint256",
          "name": "",
          "type": "uint256"
        }
      ],
      "stateMutability": "view",
      "type": "function"
    },
    {
      "inputs": [],
      "name": "buyBackRateUL",
      "outputs": [
        {
          "internalType": "uint256",
          "name": "",
          "type": "uint256"
        }
      ],
      "stateMutability": "view",
      "type": "function"
    },
    {
      "inputs": [],
      "name": "controllerFee",
      "outputs": [
        {
          "internalType": "uint256",
          "name": "",
          "type": "uint256"
        }
      ],
      "stateMutability": "view",
      "type": "function"
    },
    {
      "inputs": [],
      "name": "controllerFeeMax",
      "outputs": [
        {
          "internalType": "uint256",
          "name": "",
          "type": "uint256"
        }
      ],
      "stateMutability": "view",
      "type": "function"
    },
    {
      "inputs": [],
      "name": "controllerFeeUL",
      "outputs": [
        {
          "internalType": "uint256",
          "name": "",
          "type": "uint256"
        }
      ],
      "stateMutability": "view",
      "type": "function"
    },
    {
      "inputs": [],
      "name": "earnTokenPriceFeed",
      "outputs": [
        {
          "internalType": "contract AggregatorV3Interface",
          "name": "",
          "type": "address"
        }
      ],
      "stateMutability": "view",
      "type": "function"
    },
    {
      "inputs": [],
      "name": "earnedAddress",
      "outputs": [
        {
          "internalType": "address",
          "name": "",
          "type": "address"
        }
      ],
      "stateMutability": "view",
      "type": "function"
    },
    {
      "inputs": [
        {
          "internalType": "uint256",
          "name": "",
          "type": "uint256"
        }
      ],
      "name": "earnedToToken0Path",
      "outputs": [
        {
          "internalType": "address",
          "name": "",
          "type": "address"
        }
      ],
      "stateMutability": "view",
      "type": "function"
    },
    {
      "inputs": [
        {
          "internalType": "uint256",
          "name": "",
          "type": "uint256"
        }
      ],
      "name": "earnedToToken1Path",
      "outputs": [
        {
          "internalType": "address",
          "name": "",
          "type": "address"
        }
      ],
      "stateMutability": "view",
      "type": "function"
    },
    {
      "inputs": [
        {
          "internalType": "uint256",
          "name": "",
          "type": "uint256"
        }
      ],
      "name": "earnedToUSDCPath",
      "outputs": [
        {
          "internalType": "address",
          "name": "",
          "type": "address"
        }
      ],
      "stateMutability": "view",
      "type": "function"
    },
    {
      "inputs": [
        {
          "internalType": "uint256",
          "name": "",
          "type": "uint256"
        }
      ],
      "name": "earnedToZORLPPoolOtherTokenPath",
      "outputs": [
        {
          "internalType": "address",
          "name": "",
          "type": "address"
        }
      ],
      "stateMutability": "view",
      "type": "function"
    },
    {
      "inputs": [
        {
          "internalType": "uint256",
          "name": "",
          "type": "uint256"
        }
      ],
      "name": "earnedToZORROPath",
      "outputs": [
        {
          "internalType": "address",
          "name": "",
          "type": "address"
        }
      ],
      "stateMutability": "view",
      "type": "function"
    },
    {
      "inputs": [],
      "name": "entranceFeeFactor",
      "outputs": [
        {
          "internalType": "uint256",
          "name": "",
          "type": "uint256"
        }
      ],
      "stateMutability": "view",
      "type": "function"
    },
    {
      "inputs": [],
      "name": "entranceFeeFactorLL",
      "outputs": [
        {
          "internalType": "uint256",
          "name": "",
          "type": "uint256"
        }
      ],
      "stateMutability": "view",
      "type": "function"
    },
    {
      "inputs": [],
      "name": "entranceFeeFactorMax",
      "outputs": [
        {
          "internalType": "uint256",
          "name": "",
          "type": "uint256"
        }
      ],
      "stateMutability": "view",
      "type": "function"
    },
    {
      "inputs": [],
      "name": "farmContractAddress",
      "outputs": [
        {
          "internalType": "address",
          "name": "",
          "type": "address"
        }
      ],
      "stateMutability": "view",
      "type": "function"
    },
    {
      "inputs": [],
      "name": "govAddress",
      "outputs": [
        {
          "internalType": "address",
          "name": "",
          "type": "address"
        }
      ],
      "stateMutability": "view",
      "type": "function"
    },
    {
      "inputs": [
        {
          "internalType": "address",
          "name": "_token",
          "type": "address"
        },
        {
          "internalType": "uint256",
          "name": "_amount",
          "type": "uint256"
        },
        {
          "internalType": "address",
          "name": "_to",
          "type": "address"
        }
      ],
      "name": "inCaseTokensGetStuck",
      "outputs": [],
      "stateMutability": "nonpayable",
      "type": "function"
    },
    {
      "inputs": [],
      "name": "isCOREStaking",
      "outputs": [
        {
          "internalType": "bool",
          "name": "",
          "type": "bool"
        }
      ],
      "stateMutability": "view",
      "type": "function"
    },
    {
      "inputs": [],
      "name": "isHomeChain",
      "outputs": [
        {
          "internalType": "bool",
          "name": "",
          "type": "bool"
        }
      ],
      "stateMutability": "view",
      "type": "function"
    },
    {
      "inputs": [],
      "name": "isSingleAssetDeposit",
      "outputs": [
        {
          "internalType": "bool",
          "name": "",
          "type": "bool"
        }
      ],
      "stateMutability": "view",
      "type": "function"
    },
    {
      "inputs": [],
      "name": "isZorroComp",
      "outputs": [
        {
          "internalType": "bool",
          "name": "",
          "type": "bool"
        }
      ],
      "stateMutability": "view",
      "type": "function"
    },
    {
      "inputs": [],
      "name": "lastEarnBlock",
      "outputs": [
        {
          "internalType": "uint256",
          "name": "",
          "type": "uint256"
        }
      ],
      "stateMutability": "view",
      "type": "function"
    },
    {
      "inputs": [],
      "name": "lpPoolOtherTokenPriceFeed",
      "outputs": [
        {
          "internalType": "contract AggregatorV3Interface",
          "name": "",
          "type": "address"
        }
      ],
      "stateMutability": "view",
      "type": "function"
    },
    {
      "inputs": [],
      "name": "onlyGov",
      "outputs": [
        {
          "internalType": "bool",
          "name": "",
          "type": "bool"
        }
      ],
      "stateMutability": "view",
      "type": "function"
    },
    {
      "inputs": [],
      "name": "owner",
      "outputs": [
        {
          "internalType": "address",
          "name": "",
          "type": "address"
        }
      ],
      "stateMutability": "view",
      "type": "function"
    },
    {
      "inputs": [],
      "name": "pause",
      "outputs": [],
      "stateMutability": "nonpayable",
      "type": "function"
    },
    {
      "inputs": [],
      "name": "paused",
      "outputs": [
        {
          "internalType": "bool",
          "name": "",
          "type": "bool"
        }
      ],
      "stateMutability": "view",
      "type": "function"
    },
    {
      "inputs": [],
      "name": "pid",
      "outputs": [
        {
          "internalType": "uint256",
          "name": "",
          "type": "uint256"
        }
      ],
      "stateMutability": "view",
      "type": "function"
    },
    {
      "inputs": [],
      "name": "poolAddress",
      "outputs": [
        {
          "internalType": "address",
          "name": "",
          "type": "address"
        }
      ],
      "stateMutability": "view",
      "type": "function"
    },
    {
      "inputs": [],
      "name": "renounceOwnership",
      "outputs": [],
      "stateMutability": "nonpayable",
      "type": "function"
    },
    {
      "inputs": [],
      "name": "revShareRate",
      "outputs": [
        {
          "internalType": "uint256",
          "name": "",
          "type": "uint256"
        }
      ],
      "stateMutability": "view",
      "type": "function"
    },
    {
      "inputs": [],
      "name": "revShareRateMax",
      "outputs": [
        {
          "internalType": "uint256",
          "name": "",
          "type": "uint256"
        }
      ],
      "stateMutability": "view",
      "type": "function"
    },
    {
      "inputs": [],
      "name": "revShareRateUL",
      "outputs": [
        {
          "internalType": "uint256",
          "name": "",
          "type": "uint256"
        }
      ],
      "stateMutability": "view",
      "type": "function"
    },
    {
      "inputs": [],
      "name": "rewardsAddress",
      "outputs": [
        {
          "internalType": "address",
          "name": "",
          "type": "address"
        }
      ],
      "stateMutability": "view",
      "type": "function"
    },
    {
      "inputs": [
        {
          "internalType": "address",
          "name": "_earnedAddress",
          "type": "address"
        }
      ],
      "name": "setEarnedAddress",
      "outputs": [],
      "stateMutability": "nonpayable",
      "type": "function"
    },
    {
      "inputs": [
        {
          "internalType": "address",
          "name": "_farmContractAddress",
          "type": "address"
        }
      ],
      "name": "setFarmContractAddress",
      "outputs": [],
      "stateMutability": "nonpayable",
      "type": "function"
    },
    {
      "inputs": [
        {
          "internalType": "uint256",
          "name": "_entranceFeeFactor",
          "type": "uint256"
        },
        {
          "internalType": "uint256",
          "name": "_withdrawFeeFactor",
          "type": "uint256"
        },
        {
          "internalType": "uint256",
          "name": "_controllerFee",
          "type": "uint256"
        },
        {
          "internalType": "uint256",
          "name": "_buyBackRate",
          "type": "uint256"
        }
      ],
      "name": "setFeeSettings",
      "outputs": [],
      "stateMutability": "nonpayable",
      "type": "function"
    },
    {
      "inputs": [
        {
          "internalType": "address",
          "name": "_govAddress",
          "type": "address"
        }
      ],
      "name": "setGov",
      "outputs": [],
      "stateMutability": "nonpayable",
      "type": "function"
    },
    {
      "inputs": [
        {
          "internalType": "bool",
          "name": "_onlyGov",
          "type": "bool"
        }
      ],
      "name": "setOnlyGov",
      "outputs": [],
      "stateMutability": "nonpayable",
      "type": "function"
    },
    {
      "inputs": [
        {
          "internalType": "uint256",
          "name": "_pid",
          "type": "uint256"
        }
      ],
      "name": "setPid",
      "outputs": [],
      "stateMutability": "nonpayable",
      "type": "function"
    },
    {
      "inputs": [
        {
          "internalType": "address",
          "name": "_poolAddress",
          "type": "address"
        }
      ],
      "name": "setPoolAddress",
      "outputs": [],
      "stateMutability": "nonpayable",
      "type": "function"
    },
    {
      "inputs": [
        {
          "internalType": "uint8",
          "name": "_idx",
          "type": "uint8"
        },
        {
          "internalType": "address",
          "name": "_priceFeed",
          "type": "address"
        }
      ],
      "name": "setPriceFeed",
      "outputs": [],
      "stateMutability": "nonpayable",
      "type": "function"
    },
    {
      "inputs": [
        {
          "internalType": "address",
          "name": "_rewardsAddress",
          "type": "address"
        }
      ],
      "name": "setRewardsAddress",
      "outputs": [],
      "stateMutability": "nonpayable",
      "type": "function"
    },
    {
      "inputs": [
        {
          "internalType": "uint8",
          "name": "_idx",
          "type": "uint8"
        },
        {
          "internalType": "address[]",
          "name": "_path",
          "type": "address[]"
        }
      ],
      "name": "setSwapPaths",
      "outputs": [],
      "stateMutability": "nonpayable",
      "type": "function"
    },
    {
      "inputs": [
        {
          "internalType": "address",
          "name": "_token0Address",
          "type": "address"
        }
      ],
      "name": "setToken0Address",
      "outputs": [],
      "stateMutability": "nonpayable",
      "type": "function"
    },
    {
      "inputs": [
        {
          "internalType": "address",
          "name": "_token1Address",
          "type": "address"
        }
      ],
      "name": "setToken1Address",
      "outputs": [],
      "stateMutability": "nonpayable",
      "type": "function"
    },
    {
      "inputs": [
        {
          "internalType": "address",
          "name": "_tokenUSDCAddress",
          "type": "address"
        }
      ],
      "name": "setTokenUSDCAddress",
      "outputs": [],
      "stateMutability": "nonpayable",
      "type": "function"
    },
    {
      "inputs": [
        {
          "internalType": "address",
          "name": "_uniRouterAddress",
          "type": "address"
        }
      ],
      "name": "setUniRouterAddress",
      "outputs": [],
      "stateMutability": "nonpayable",
      "type": "function"
    },
    {
      "inputs": [
        {
          "internalType": "address",
          "name": "_wantAddress",
          "type": "address"
        }
      ],
      "name": "setWantAddress",
      "outputs": [],
      "stateMutability": "nonpayable",
      "type": "function"
    },
    {
      "inputs": [
        {
          "internalType": "address",
          "name": "_ZORROAddress",
          "type": "address"
        }
      ],
      "name": "setZORROAddress",
      "outputs": [],
      "stateMutability": "nonpayable",
      "type": "function"
    },
    {
      "inputs": [
        {
          "internalType": "address",
          "name": "_zorroControllerAddress",
          "type": "address"
        }
      ],
      "name": "setZorroControllerAddress",
      "outputs": [],
      "stateMutability": "nonpayable",
      "type": "function"
    },
    {
      "inputs": [
        {
          "internalType": "address",
          "name": "_poolAddress",
          "type": "address"
        }
      ],
      "name": "setZorroLPPoolAddress",
      "outputs": [],
      "stateMutability": "nonpayable",
      "type": "function"
    },
    {
      "inputs": [
        {
          "internalType": "address",
          "name": "_otherToken",
          "type": "address"
        }
      ],
      "name": "setZorroLPPoolOtherToken",
      "outputs": [],
      "stateMutability": "nonpayable",
      "type": "function"
    },
    {
      "inputs": [
        {
          "internalType": "address",
          "name": "_stakingVault",
          "type": "address"
        }
      ],
      "name": "setZorroStakingVault",
      "outputs": [],
      "stateMutability": "nonpayable",
      "type": "function"
    },
    {
      "inputs": [],
      "name": "sharesTotal",
      "outputs": [
        {
          "internalType": "uint256",
          "name": "",
          "type": "uint256"
        }
      ],
      "stateMutability": "view",
      "type": "function"
    },
    {
      "inputs": [],
      "name": "token0Address",
      "outputs": [
        {
          "internalType": "address",
          "name": "",
          "type": "address"
        }
      ],
      "stateMutability": "view",
      "type": "function"
    },
    {
      "inputs": [],
      "name": "token0PriceFeed",
      "outputs": [
        {
          "internalType": "contract AggregatorV3Interface",
          "name": "",
          "type": "address"
        }
      ],
      "stateMutability": "view",
      "type": "function"
    },
    {
      "inputs": [
        {
          "internalType": "uint256",
          "name": "",
          "type": "uint256"
        }
      ],
      "name": "token0ToUSDCPath",
      "outputs": [
        {
          "internalType": "address",
          "name": "",
          "type": "address"
        }
      ],
      "stateMutability": "view",
      "type": "function"
    },
    {
      "inputs": [],
      "name": "token1Address",
      "outputs": [
        {
          "internalType": "address",
          "name": "",
          "type": "address"
        }
      ],
      "stateMutability": "view",
      "type": "function"
    },
    {
      "inputs": [],
      "name": "token1PriceFeed",
      "outputs": [
        {
          "internalType": "contract AggregatorV3Interface",
          "name": "",
          "type": "address"
        }
      ],
      "stateMutability": "view",
      "type": "function"
    },
    {
      "inputs": [
        {
          "internalType": "uint256",
          "name": "",
          "type": "uint256"
        }
      ],
      "name": "token1ToUSDCPath",
      "outputs": [
        {
          "internalType": "address",
          "name": "",
          "type": "address"
        }
      ],
      "stateMutability": "view",
      "type": "function"
    },
    {
      "inputs": [],
      "name": "tokenUSDCAddress",
      "outputs": [
        {
          "internalType": "address",
          "name": "",
          "type": "address"
        }
      ],
      "stateMutability": "view",
      "type": "function"
    },
    {
      "inputs": [
        {
          "internalType": "address",
          "name": "newOwner",
          "type": "address"
        }
      ],
      "name": "transferOwnership",
      "outputs": [],
      "stateMutability": "nonpayable",
      "type": "function"
    },
    {
      "inputs": [],
      "name": "uniRouterAddress",
      "outputs": [
        {
          "internalType": "address",
          "name": "",
          "type": "address"
        }
      ],
      "stateMutability": "view",
      "type": "function"
    },
    {
      "inputs": [],
      "name": "unpause",
      "outputs": [],
      "stateMutability": "nonpayable",
      "type": "function"
    },
    {
      "inputs": [
        {
          "internalType": "address",
          "name": "",
          "type": "address"
        }
      ],
      "name": "userShares",
      "outputs": [
        {
          "internalType": "uint256",
          "name": "",
          "type": "uint256"
        }
      ],
      "stateMutability": "view",
      "type": "function"
    },
    {
      "inputs": [],
      "name": "wantAddress",
      "outputs": [
        {
          "internalType": "address",
          "name": "",
          "type": "address"
        }
      ],
      "stateMutability": "view",
      "type": "function"
    },
    {
      "inputs": [],
      "name": "wantLockedTotal",
      "outputs": [
        {
          "internalType": "uint256",
          "name": "",
          "type": "uint256"
        }
      ],
      "stateMutability": "view",
      "type": "function"
    },
    {
      "inputs": [],
      "name": "withdrawFeeFactor",
      "outputs": [
        {
          "internalType": "uint256",
          "name": "",
          "type": "uint256"
        }
      ],
      "stateMutability": "view",
      "type": "function"
    },
    {
      "inputs": [],
      "name": "withdrawFeeFactorLL",
      "outputs": [
        {
          "internalType": "uint256",
          "name": "",
          "type": "uint256"
        }
      ],
      "stateMutability": "view",
      "type": "function"
    },
    {
      "inputs": [],
      "name": "withdrawFeeFactorMax",
      "outputs": [
        {
          "internalType": "uint256",
          "name": "",
          "type": "uint256"
        }
      ],
      "stateMutability": "view",
      "type": "function"
    },
    {
      "inputs": [],
      "name": "zorroControllerAddress",
      "outputs": [
        {
          "internalType": "address",
          "name": "",
          "type": "address"
        }
      ],
      "stateMutability": "view",
      "type": "function"
    },
    {
      "inputs": [],
      "name": "zorroLPPool",
      "outputs": [
        {
          "internalType": "address",
          "name": "",
          "type": "address"
        }
      ],
      "stateMutability": "view",
      "type": "function"
    },
    {
      "inputs": [],
      "name": "zorroLPPoolOtherToken",
      "outputs": [
        {
          "internalType": "address",
          "name": "",
          "type": "address"
        }
      ],
      "stateMutability": "view",
      "type": "function"
    },
    {
      "inputs": [],
      "name": "zorroStakingVault",
      "outputs": [
        {
          "internalType": "address",
          "name": "",
          "type": "address"
        }
      ],
      "stateMutability": "view",
      "type": "function"
    },
    {
      "inputs": [
        {
          "internalType": "address",
          "name": "_account",
          "type": "address"
        },
        {
          "internalType": "uint256",
          "name": "_wantAmt",
          "type": "uint256"
        }
      ],
      "name": "depositWantToken",
      "outputs": [
        {
          "internalType": "uint256",
          "name": "",
          "type": "uint256"
        }
      ],
      "stateMutability": "nonpayable",
      "type": "function"
    },
    {
      "inputs": [
        {
          "internalType": "uint256",
          "name": "_amountUSDC",
          "type": "uint256"
        },
        {
          "internalType": "uint256",
          "name": "_maxMarketMovementAllowed",
          "type": "uint256"
        }
      ],
      "name": "exchangeUSDForWantToken",
      "outputs": [
        {
          "internalType": "uint256",
          "name": "",
          "type": "uint256"
        }
      ],
      "stateMutability": "nonpayable",
      "type": "function"
    },
    {
      "inputs": [],
      "name": "farm",
      "outputs": [],
      "stateMutability": "nonpayable",
      "type": "function"
    },
    {
      "inputs": [
        {
          "internalType": "address",
          "name": "_account",
          "type": "address"
        },
        {
          "internalType": "uint256",
          "name": "_wantAmt",
          "type": "uint256"
        }
      ],
      "name": "withdrawWantToken",
      "outputs": [
        {
          "internalType": "uint256",
          "name": "",
          "type": "uint256"
        }
      ],
      "stateMutability": "nonpayable",
      "type": "function"
    },
    {
      "inputs": [
        {
          "internalType": "uint256",
          "name": "_amount",
          "type": "uint256"
        },
        {
          "internalType": "uint256",
          "name": "_maxMarketMovementAllowed",
          "type": "uint256"
        }
      ],
      "name": "exchangeWantTokenForUSD",
      "outputs": [
        {
          "internalType": "uint256",
          "name": "",
          "type": "uint256"
        }
      ],
      "stateMutability": "nonpayable",
      "type": "function"
    },
    {
      "inputs": [
        {
          "internalType": "uint256",
          "name": "_maxMarketMovementAllowed",
          "type": "uint256"
        }
      ],
      "name": "earn",
      "outputs": [],
      "stateMutability": "nonpayable",
      "type": "function"
    }
  ],
  "bytecode": "0x60806040526127066016556127106017553480156200001d57600080fd5b50604051620055ef380380620055ef8339810160408190526200004091620009c0565b6200006662000057640100000000620004ab810204565b640100000000620004af810204565b600180556002805482516003556020808401516080808601516040808801516060808a015162ffffff19909816610100961515870262ff000019161762010000941515949094029390931764ffff000000191663010000009115159190910264ff00000000191617640100000000961515969096029590951790955560a08087015180516004805474010000000000000000000000000000000000000000600160a060020a03938416600160a860020a0319909216919091171790558186015160058054600160a060020a03199081169284169290921790558288015160068054831691841691909117905582890151600780548316918416919091179055828501516008805483169184169190911790559282015160098054851691831691909117905560e0820151600b8054851691831691909117905593810151600c80548416918616919091179055610120810151600e80548416918616919091179055610140810151600f805484169186169190911790556101608101516010805484169186169190911790556101808101516011805484169186169190911790556101a0808201516012805485169187169190911790556101c090910151600d8054909316941693909317905590850151805160135580830151601455928301516015559282015160165591015160175560c082015180516200026d926022920190620005d2565b5060e08101518051620002879160209190820190620005d2565b506101008101518051620002a491602191602090910190620005d2565b506101208101518051620002c191601c91602090910190620005d2565b506101408101518051620002de91601d91602090910190620005d2565b506101608101518051620002fb91602391602090910190620005d2565b5061018081015180516200031891602491602090910190620005d2565b506200038f601c8054806020026020016040519081016040528092919081815260200182805480156200037557602002820191906000526020600020905b8154600160a060020a0316815260019091019060200180831162000356575b5050505050620004ff640100000000026401000000009004565b8051620003a591601e91602090910190620005d2565b506200041a601d8054806020026020016040519081016040528092919081815260200182805480156200037557602002820191906000526020600020908154600160a060020a0316815260019091019060200180831162000356575050505050620004ff640100000000026401000000009004565b80516200043091601f91602090910190620005d2565b506101c00151805160258054600160a060020a0319908116600160a060020a039384161790915560208301516026805483169184169190911790556040830151602780548316918416919091179055608083015160288054831691841691909117905560609092015160298054909316911617905562000c5e565b3390565b60008054600160a060020a03838116600160a060020a0319831681178455604051919092169283917f8be0079c531659141344cd1fd0a4f28419497f9722a3daafe3b4186f6b6457e09190a35050565b60608060005b83518161ffff161015620005b65783620005578261ffff166200054260018851620005bd6401000000000262002ff6179091906401000000009004565b9064010000000062002ff6620005bd82021704565b815181106200056a576200056a62000bc1565b6020026020010151828261ffff16815181106200058b576200058b62000bc1565b600160a060020a0390921660209283029190910190910152620005ae8162000c1f565b905062000505565b5092915050565b6000620005cb828462000c44565b9392505050565b8280548282559060005260206000209081019282156200062a579160200282015b828111156200062a5782518254600160a060020a031916600160a060020a03909116178255602090920191600190910190620005f3565b50620006389291506200063c565b5090565b5b808211156200063857600081556001016200063d565b7f4e487b7100000000000000000000000000000000000000000000000000000000600052604160045260246000fd5b6040516101e081016001604060020a0381118282101715620006a857620006a862000653565b60405290565b60405160a081016001604060020a0381118282101715620006a857620006a862000653565b80518015158114620006e457600080fd5b919050565b8051600160a060020a0381168114620006e457600080fd5b60006101e082840312156200071557600080fd5b6200071f62000682565b90506200072c82620006e9565b81526200073c60208301620006e9565b60208201526200074f60408301620006e9565b60408201526200076260608301620006e9565b60608201526200077560808301620006e9565b60808201526200078860a08301620006e9565b60a08201526200079b60c08301620006e9565b60c0820152620007ae60e08301620006e9565b60e0820152610100620007c3818401620006e9565b90820152610120620007d7838201620006e9565b90820152610140620007eb838201620006e9565b90820152610160620007ff838201620006e9565b9082015261018062000813838201620006e9565b908201526101a062000827838201620006e9565b908201526101c06200083b838201620006e9565b9082015292915050565b600082601f8301126200085757600080fd5b815160206001604060020a038083111562000876576200087662000653565b818302604051601f19603f830116810181811084821117156200089d576200089d62000653565b604052938452858101830193838101925087851115620008bc57600080fd5b83870191505b84821015620008e657620008d682620006e9565b83529183019190830190620008c2565b979650505050505050565b600060a082840312156200090457600080fd5b6200090e620006ae565b9050815181526020820151602082015260408201516040820152606082015160608201526080820151608082015292915050565b600060a082840312156200095557600080fd5b6200095f620006ae565b90506200096c82620006e9565b81526200097c60208301620006e9565b60208201526200098f60408301620006e9565b6040820152620009a260608301620006e9565b6060820152620009b560808301620006e9565b608082015292915050565b600060208284031215620009d357600080fd5b81516001604060020a0380821115620009eb57600080fd5b908301906104a0828603121562000a0157600080fd5b62000a0b62000682565b8251815262000a1d60208401620006d3565b602082015262000a3060408401620006d3565b604082015262000a4360608401620006d3565b606082015262000a5660808401620006d3565b608082015262000a6a8660a0850162000701565b60a08201526102808301518281111562000a8357600080fd5b62000a918782860162000845565b60c0830152506102a08301518281111562000aab57600080fd5b62000ab98782860162000845565b60e0830152506102c08301518281111562000ad357600080fd5b62000ae18782860162000845565b610100830152506102e08301518281111562000afc57600080fd5b62000b0a8782860162000845565b610120830152506103008301518281111562000b2557600080fd5b62000b338782860162000845565b610140830152506103208301518281111562000b4e57600080fd5b62000b5c8782860162000845565b610160830152506103408301518281111562000b7757600080fd5b62000b858782860162000845565b6101808301525062000b9c866103608501620008f1565b6101a082015262000bb286610400850162000942565b6101c082015295945050505050565b7f4e487b7100000000000000000000000000000000000000000000000000000000600052603260045260246000fd5b7f4e487b7100000000000000000000000000000000000000000000000000000000600052601160045260246000fd5b600061ffff8083168181141562000c3a5762000c3a62000bf0565b6001019392505050565b60008282101562000c595762000c5962000bf0565b500390565b6149818062000c6e6000396000f3fe608060405234801561001057600080fd5b50600436106104dc5760003560e060020a90048063866b201811610287578063c8479cd611610160578063e9e15b4f116100d2578063f106845411610096578063f106845414610a2b578063f25342bf14610a34578063f2fde38b14610a47578063f5046a2914610a5a578063fbf5683f14610a6d578063ff29b39514610a8057600080fd5b8063e9e15b4f146109de578063ebfba7c4146109f1578063edf5e58514610a04578063ee50dc34146105cf578063efa0280814610a1957600080fd5b8063de84199111610124578063de8419911461096c578063e0ccabfa1461097f578063e502a88d14610992578063e65a0117146109a5578063e7198474146109b8578063e7a03679146109cb57600080fd5b8063c8479cd614610900578063c8e3d18b14610913578063cfad57a214610926578063d7cb416f14610939578063de69b3aa1461094c57600080fd5b8063ae53e58a116101f9578063ba0bb4ab116101bd578063ba0bb4ab146108a1578063bf3a7d40146108b4578063c0973eed146108c7578063c302a4d01461078f578063c5c97cbf146108da578063c6efd577146108ed57600080fd5b8063ae53e58a14610855578063b1414dbb14610868578063b3545c01146105c6578063b73cba2a1461087b578063b86c5f531461088e57600080fd5b806396e9aff81161024b57806396e9aff8146107e35780639f703a56146107f65780639fc33a9f14610809578063a4d2b0831461081c578063aabf190b1461082f578063ab196def1461084257600080fd5b8063866b20181461078f5780638906758d146107985780638b9102dc146107ab5780638da5cb5b146107bf578063959334f4146107d057600080fd5b80634e2cb8b6116103b957806367206d401161032b57806370d5ae05116102ef57806370d5ae0514610747578063715018a6146107505780637bf604d8146107585780637ff36fbe1461076b5780638456cb591461077e57806385f02dd61461078657600080fd5b806367206d40146106f257806368f5416214610705578063693a090b1461070e5780636ca8bd65146107215780636f96f6fa1461073457600080fd5b80635dc05fd51161037d5780635dc05fd5146106935780636183e804146106a657806361b5bf9f146106b95780636392ab12146106cc578063648794a4146106df57806367057b6c146105cf57600080fd5b80634e2cb8b61461063c578063583bda3b1461064f5780635b513393146106625780635c975abb146106755780635da79d631461068057600080fd5b80632717eff31161045257806343788cd21161041657806343788cd2146105cf57806344a3955e146105fa57806346008a07146106035780634c5b09da146106165780634ce54ddb146106295780634d9f7bb2146105cf57600080fd5b80632717eff3146105cf5780633214471f146105d857806336e9332d146105e15780633f4ba83a146105e957806342da4eb3146105f157600080fd5b80631334903f116104a45780631334903f146105635780631755ff211461056c578063178a8d07146105975780631b0d8aab146105a05780631e12819a146105b3578063211019d7146105c657600080fd5b806305828d3e146104e1578063061c7d48146104f65780630b6bb30b146105125780630daef321146105255780630fa4e01e1461055a575b600080fd5b6104f46104ef3660046143b8565b610a93565b005b6104ff61012c81565b6040519081526020015b60405180910390f35b6104f46105203660046143e1565b610aeb565b60045461054a9074010000000000000000000000000000000000000000900460ff1681565b6040519015158152602001610509565b6104ff60185481565b6104ff60165481565b600f5461057f90600160a060020a031681565b604051600160a060020a039091168152602001610509565b6104ff60145481565b6104f46105ae3660046143fe565b610b92565b6104f46105c13660046143b8565b610bc4565b6104ff61032081565b6104ff61271081565b6104ff60155481565b6104f4610c13565b6104f4610c4c565b6104ff60195481565b6104ff601a5481565b60045461057f90600160a060020a031681565b6104f46106243660046143b8565b610c83565b600d5461057f90600160a060020a031681565b61057f61064a3660046143fe565b610cd2565b6104f461065d3660046143b8565b610cfc565b6104f4610670366004614417565b610d4b565b60025460ff1661054a565b6104f461068e3660046143b8565b610fd8565b60025461054a9062010000900460ff1681565b6104f46106b43660046143b8565b611027565b6104f46106c73660046143b8565b611076565b61057f6106da3660046143fe565b6110c5565b6104ff6106ed366004614449565b6110d5565b6104f461070036600461446b565b61164e565b6104ff60175481565b60105461057f90600160a060020a031681565b6104f461072f3660046143b8565b611756565b60275461057f90600160a060020a031681565b61057f61dead81565b6104f46117a5565b60115461057f90600160a060020a031681565b60095461057f90600160a060020a031681565b6104f46117dc565b6104ff60135481565b6104ff6126ac81565b6104f46107a63660046143b8565b611811565b60025461054a906301000000900460ff1681565b600054600160a060020a031661057f565b6104f46107de3660046143b8565b611860565b61057f6107f13660046143fe565b6118af565b61057f6108043660046143fe565b6118bf565b600c5461057f90600160a060020a031681565b60075461057f90600160a060020a031681565b60285461057f90600160a060020a031681565b60295461057f90600160a060020a031681565b60265461057f90600160a060020a031681565b60055461057f90600160a060020a031681565b6104f46108893660046143b8565b6118cf565b61057f61089c3660046143fe565b61191e565b6104ff6108af3660046144a7565b61192e565b6104f46108c23660046143b8565b611b00565b600e5461057f90600160a060020a031681565b61057f6108e83660046143fe565b611b4f565b61057f6108fb3660046143fe565b611b5f565b6104f461090e3660046143b8565b611b6f565b61057f6109213660046143fe565b611bbe565b6104f46109343660046143b8565b611bce565b600a5461057f90600160a060020a031681565b6104ff61095a3660046143b8565b601b6020526000908152604090205481565b6104f461097a3660046144e2565b611c49565b6104ff61098d3660046144a7565b611d94565b6104ff6109a0366004614449565b611ffd565b6104f46109b33660046143fe565b61263b565b600b5461057f90600160a060020a031681565b60085461057f90600160a060020a031681565b6104f46109ec3660046143b8565b612dd8565b60125461057f90600160a060020a031681565b60025461054a90640100000000900460ff1681565b60025461054a90610100900460ff1681565b6104ff60035481565b60255461057f90600160a060020a031681565b6104f4610a553660046143b8565b612e27565b60065461057f90600160a060020a031681565b61057f610a7b3660046143fe565b612edf565b6104f4610a8e366004614515565b612eef565b600054600160a060020a03163314610ac95760405160e560020a62461bcd028152600401610ac09061459a565b60405180910390fd5b600a8054600160a060020a031916600160a060020a0392909216919091179055565b600454600160a060020a03163314610b185760405160e560020a62461bcd028152600401610ac0906145cf565b60048054821515740100000000000000000000000000000000000000000274ff0000000000000000000000000000000000000000199091161790556040517f125177ac7b8930dac1e59c2b30b1b6b9191b30af40cf6bbb5d20fec4d44be60f90610b8790831515815260200190565b60405180910390a150565b600054600160a060020a03163314610bbf5760405160e560020a62461bcd028152600401610ac09061459a565b600355565b600054600160a060020a03163314610bf15760405160e560020a62461bcd028152600401610ac09061459a565b600d8054600160a060020a031916600160a060020a0392909216919091179055565b60026001541415610c395760405160e560020a62461bcd028152600401610ac090614606565b6002600155610c46613009565b60018055565b600454600160a060020a03163314610c795760405160e560020a62461bcd028152600401610ac0906145cf565b610c816131e5565b565b600054600160a060020a03163314610cb05760405160e560020a62461bcd028152600401610ac09061459a565b600c8054600160a060020a031916600160a060020a0392909216919091179055565b601f8181548110610ce257600080fd5b600091825260209091200154600160a060020a0316905081565b600054600160a060020a03163314610d295760405160e560020a62461bcd028152600401610ac09061459a565b60068054600160a060020a031916600160a060020a0392909216919091179055565b600454600160a060020a03163314610d785760405160e560020a62461bcd028152600401610ac0906145cf565b6126ac841015610dcd5760405160e560020a62461bcd02815260206004820152601a60248201527f5f656e7472616e6365466565466163746f7220746f6f206c6f770000000000006044820152606401610ac0565b612710841115610e225760405160e560020a62461bcd02815260206004820152601b60248201527f5f656e7472616e6365466565466163746f7220746f6f206869676800000000006044820152606401610ac0565b60168490556126ac831015610e7c5760405160e560020a62461bcd02815260206004820152601a60248201527f5f7769746864726177466565466163746f7220746f6f206c6f770000000000006044820152606401610ac0565b612710831115610ed15760405160e560020a62461bcd02815260206004820152601b60248201527f5f7769746864726177466565466163746f7220746f6f206869676800000000006044820152606401610ac0565b601783905561012c821115610f2b5760405160e560020a62461bcd02815260206004820152601760248201527f5f636f6e74726f6c6c657246656520746f6f20686967680000000000000000006044820152606401610ac0565b6013829055610320811115610f855760405160e560020a62461bcd02815260206004820152601560248201527f5f6275794261636b5261746520746f6f206869676800000000000000000000006044820152606401610ac0565b60148190556040805185815260208101859052908101839052606081018290527fd9968429114ac80bd16723a205e45e46393aefba1f08fb7bdffbad9ef60946089060800160405180910390a150505050565b600054600160a060020a031633146110055760405160e560020a62461bcd028152600401610ac09061459a565b60108054600160a060020a031916600160a060020a0392909216919091179055565b600054600160a060020a031633146110545760405160e560020a62461bcd028152600401610ac09061459a565b60088054600160a060020a031916600160a060020a0392909216919091179055565b600054600160a060020a031633146110a35760405160e560020a62461bcd028152600401610ac09061459a565b60118054600160a060020a031916600160a060020a0392909216919091179055565b60228181548110610ce257600080fd5b600554600090600160a060020a031633600160a060020a03161461110e5760405160e560020a62461bcd028152600401610ac09061463d565b60025460ff16156111345760405160e560020a62461bcd028152600401610ac090614674565b600083116111875760405160e560020a62461bcd02815260206004820152601460248201527f57616e7420616d74206d757374206265203e20300000000000000000000000006044820152606401610ac0565b60085461119f90600160a060020a0316333086613284565b60255460405160e260020a6321c50c6f028152600160a060020a03909116600482015260009073__PriceFeed_____________________________9063871431bc90602401602060405180830381865af4158015611201573d6000803e3d6000fd5b505050506040513d601f19601f8201168201806040525081019061122591906146ab565b60265460405160e260020a6321c50c6f028152600160a060020a03909116600482015290915060009073__PriceFeed_____________________________9063871431bc90602401602060405180830381865af415801561128a573d6000803e3d6000fd5b505050506040513d601f19601f820116820180604052508101906112ae91906146ab565b60025490915062010000900460ff161561137a576010546009546112df91600160a060020a03918216911687613335565b60105473__SafeSwapUni___________________________90632b08bab190600160a060020a0316878564e8d4a5100089601e3361131f42610258613419565b6040518963ffffffff1660e060020a02815260040161134598979695949392919061470d565b60006040518083038186803b15801561135d57600080fd5b505af4158015611371573d6000803e3d6000fd5b505050506115d6565b611385858530613425565b60095460405160e060020a6370a08231028152306004820152600091600160a060020a0316906370a0823190602401602060405180830381865afa1580156113d1573d6000803e3d6000fd5b505050506040513d601f19601f820116820180604052508101906113f591906146ab565b600a5460405160e060020a6370a08231028152306004820152919250600091600160a060020a03909116906370a0823190602401602060405180830381865afa158015611446573d6000803e3d6000fd5b505050506040513d601f19601f8201168201806040525081019061146a91906146ab565b60105460095491925061148a91600160a060020a03908116911684613335565b601054600a546114a791600160a060020a03918216911683613335565b60105473__SafeSwapUni___________________________90632b08bab190600160a060020a0316848764e8d4a510008b601e336114e742610258613419565b6040518963ffffffff1660e060020a02815260040161150d98979695949392919061470d565b60006040518083038186803b15801561152557600080fd5b505af4158015611539573d6000803e3d6000fd5b505060105473__SafeSwapUni___________________________9250632b08bab19150600160a060020a0316838664e8d4a510008b601f3361157d42610258613419565b6040518963ffffffff1660e060020a0281526004016115a398979695949392919061470d565b60006040518083038186803b1580156115bb57600080fd5b505af41580156115cf573d6000803e3d6000fd5b5050505050505b600d5460405160e060020a6370a08231028152336004820152600160a060020a03909116906370a0823190602401602060405180830381865afa158015611621573d6000803e3d6000fd5b505050506040513d601f19601f8201168201806040525081019061164591906146ab565b95945050505050565b600454600160a060020a0316331461167b5760405160e560020a62461bcd028152600401610ac0906145cf565b600b54600160a060020a03848116911614156116dc5760405160e560020a62461bcd02815260206004820152600560248201527f21736166650000000000000000000000000000000000000000000000000000006044820152606401610ac0565b600854600160a060020a038481169116141561173d5760405160e560020a62461bcd02815260206004820152600560248201527f21736166650000000000000000000000000000000000000000000000000000006044820152606401610ac0565b611751600160a060020a038416828461369b565b505050565b600054600160a060020a031633146117835760405160e560020a62461bcd028152600401610ac09061459a565b60078054600160a060020a031916600160a060020a0392909216919091179055565b600054600160a060020a031633146117d25760405160e560020a62461bcd028152600401610ac09061459a565b610c8160006136e4565b600454600160a060020a031633146118095760405160e560020a62461bcd028152600401610ac0906145cf565b610c81613734565b600054600160a060020a0316331461183e5760405160e560020a62461bcd028152600401610ac09061459a565b600e8054600160a060020a031916600160a060020a0392909216919091179055565b600054600160a060020a0316331461188d5760405160e560020a62461bcd028152600401610ac09061459a565b60128054600160a060020a031916600160a060020a0392909216919091179055565b60218181548110610ce257600080fd5b60248181548110610ce257600080fd5b600054600160a060020a031633146118fc5760405160e560020a62461bcd028152600401610ac09061459a565b600b8054600160a060020a031916600160a060020a0392909216919091179055565b601c8181548110610ce257600080fd5b600554600090600160a060020a031633600160a060020a0316146119675760405160e560020a62461bcd028152600401610ac09061463d565b6002600154141561198d5760405160e560020a62461bcd028152600401610ac090614606565b600260015561199e60025460ff1690565b156119be5760405160e560020a62461bcd028152600401610ac090614674565b60008211611a115760405160e560020a62461bcd02815260206004820152601e60248201527f57616e7420746f6b656e206465706f736974206d757374206265203e203000006044820152606401610ac0565b600854611a2990600160a060020a0316333085613284565b601954829015801590611a3e57506000601a54115b15611a7957611a76612710611a70601954611a70601654611a6a601a548a61378f90919063ffffffff16565b9061378f565b9061379b565b90505b601a54611a869082613419565b601a55600160a060020a0384166000908152601b6020526040902054611aac9082613419565b600160a060020a0385166000908152601b60205260409020556002546301000000900460ff1615611ae457611adf613009565b611af5565b601954611af19084613419565b6019555b600180559392505050565b600054600160a060020a03163314611b2d5760405160e560020a62461bcd028152600401610ac09061459a565b60058054600160a060020a031916600160a060020a0392909216919091179055565b601d8181548110610ce257600080fd5b601e8181548110610ce257600080fd5b600054600160a060020a03163314611b9c5760405160e560020a62461bcd028152600401610ac09061459a565b60098054600160a060020a031916600160a060020a0392909216919091179055565b60208181548110610ce257600080fd5b600454600160a060020a03163314611bfb5760405160e560020a62461bcd028152600401610ac0906145cf565b60048054600160a060020a031916600160a060020a0383169081179091556040519081527f91a8c1cc2d4a3bb60738481947a00cbb9899c822916694cf8bb1d68172fdcd5490602001610b87565b600054600160a060020a03163314611c765760405160e560020a62461bcd028152600401610ac09061459a565b60ff8216611c9d5760258054600160a060020a031916600160a060020a0383161790555050565b8160ff1660011415611cc85760268054600160a060020a031916600160a060020a0383161790555050565b8160ff1660021415611cf35760278054600160a060020a031916600160a060020a0383161790555050565b8160ff1660031415611d1e5760298054600160a060020a031916600160a060020a0383161790555050565b8160ff1660041415611d495760288054600160a060020a031916600160a060020a0383161790555050565b60405160e560020a62461bcd02815260206004820152601460248201527f756e737570706f727465642066656564206964780000000000000000000000006044820152606401610ac0565b600554600090600160a060020a031633600160a060020a031614611dcd5760405160e560020a62461bcd028152600401610ac09061463d565b60026001541415611df35760405160e560020a62461bcd028152600401610ac090614606565b6002600155611e0460025460ff1690565b15611e245760405160e560020a62461bcd028152600401610ac090614674565b60008211611e775760405160e560020a62461bcd02815260206004820152600d60248201527f77616e7420616d74203c3d2030000000000000000000000000000000000000006044820152606401610ac0565b6000611e94601954611a70601a548661378f90919063ffffffff16565b9050601a54811115611ea55750601a545b601a54611eb29082612ff6565b601a55600160a060020a0384166000908152601b6020526040902054611ed89082612ff6565b600160a060020a0385166000908152601b60205260409020556017546127101115611f1b57611f18612710611a706017548661378f90919063ffffffff16565b92505b6002546301000000900460ff1615611f3657611f36836137a7565b60085460405160e060020a6370a08231028152306004820152600091600160a060020a0316906370a0823190602401602060405180830381865afa158015611f82573d6000803e3d6000fd5b505050506040513d601f19601f82011682018060405250810190611fa691906146ab565b905080841115611fb4578093505b836019541015611fc45760195493505b601954611fd19085612ff6565b601955600554600854611ff191600160a060020a0391821691168661369b565b50600180559392505050565b600554600090600160a060020a031633600160a060020a0316146120365760405160e560020a62461bcd028152600401610ac09061463d565b60025460ff161561205c5760405160e560020a62461bcd028152600401610ac090614674565b600d5460405160e060020a6370a08231028152336004820152600091600160a060020a0316906370a0823190602401602060405180830381865afa1580156120a8573d6000803e3d6000fd5b505050506040513d601f19601f820116820180604052508101906120cc91906146ab565b9050600084116121215760405160e560020a62461bcd02815260206004820152601860248201527f55534443206465706f736974206d757374206265203e203000000000000000006044820152606401610ac0565b808411156121745760405160e560020a62461bcd02815260206004820152601960248201527f5553444320646573697265642065786365656465642062616c000000000000006044820152606401610ac0565b60255460405160e260020a6321c50c6f028152600160a060020a03909116600482015260009073__PriceFeed_____________________________9063871431bc90602401602060405180830381865af41580156121d6573d6000803e3d6000fd5b505050506040513d601f19601f820116820180604052508101906121fa91906146ab565b60265460405160e260020a6321c50c6f028152600160a060020a03909116600482015290915060009073__PriceFeed_____________________________9063871431bc90602401602060405180830381865af415801561225f573d6000803e3d6000fd5b505050506040513d601f19601f8201168201806040525081019061228391906146ab565b601054600d549192506122a391600160a060020a03908116911688613335565b60025462010000900460ff161561234f5760105473__SafeSwapUni___________________________90632b08bab190600160a060020a03168864e8d4a51000868a601c336122f442610258613419565b6040518963ffffffff1660e060020a02815260040161231a98979695949392919061470d565b60006040518083038186803b15801561233257600080fd5b505af4158015612346573d6000803e3d6000fd5b505050506125c2565b60105473__SafeSwapUni___________________________90632b08bab190600160a060020a031661238289600261379b565b64e8d4a51000868a601c3061239942610258613419565b6040518963ffffffff1660e060020a0281526004016123bf98979695949392919061470d565b60006040518083038186803b1580156123d757600080fd5b505af41580156123eb573d6000803e3d6000fd5b505060105473__SafeSwapUni___________________________9250632b08bab19150600160a060020a031661242289600261379b565b64e8d4a51000858a601d3061243942610258613419565b6040518963ffffffff1660e060020a02815260040161245f98979695949392919061470d565b60006040518083038186803b15801561247757600080fd5b505af415801561248b573d6000803e3d6000fd5b505060095460405160e060020a6370a0823102815230600482015260009350600160a060020a0390911691506370a0823190602401602060405180830381865afa1580156124dd573d6000803e3d6000fd5b505050506040513d601f19601f8201168201806040525081019061250191906146ab565b600a5460405160e060020a6370a08231028152306004820152919250600091600160a060020a03909116906370a0823190602401602060405180830381865afa158015612552573d6000803e3d6000fd5b505050506040513d601f19601f8201168201806040525081019061257691906146ab565b60105460095491925061259691600160a060020a03908116911684613335565b601054600a546125b391600160a060020a03918216911683613335565b6125bf82828933613856565b50505b60085460405160e060020a6370a08231028152336004820152600160a060020a03909116906370a0823190602401602060405180830381865afa15801561260d573d6000803e3d6000fd5b505050506040513d601f19601f8201168201806040525081019061263191906146ab565b9695505050505050565b600260015414156126615760405160e560020a62461bcd028152600401610ac090614606565b600260015561267260025460ff1690565b156126925760405160e560020a62461bcd028152600401610ac090614674565b6002546301000000900460ff166126ee5760405160e560020a62461bcd02815260206004820152600c60248201527f2169735a6f72726f436f6d7000000000000000000000000000000000000000006044820152606401610ac0565b60045474010000000000000000000000000000000000000000900460ff161561273e57600454600160a060020a0316331461273e5760405160e560020a62461bcd028152600401610ac0906145cf565b61274860006137a7565b600b5460405160e060020a6370a08231028152306004820152600091600160a060020a0316906370a0823190602401602060405180830381865afa158015612794573d6000803e3d6000fd5b505050506040513d601f19601f820116820180604052508101906127b891906146ab565b60275460405160e260020a6321c50c6f028152600160a060020a03909116600482015290915060009073__PriceFeed_____________________________9063871431bc90602401602060405180830381865af415801561281d573d6000803e3d6000fd5b505050506040513d601f19601f8201168201806040525081019061284191906146ab565b60255460405160e260020a6321c50c6f028152600160a060020a03909116600482015290915060009073__PriceFeed_____________________________9063871431bc90602401602060405180830381865af41580156128a6573d6000803e3d6000fd5b505050506040513d601f19601f820116820180604052508101906128ca91906146ab565b60265460405160e260020a6321c50c6f028152600160a060020a03909116600482015290915060009073__PriceFeed_____________________________9063871431bc90602401602060405180830381865af415801561292f573d6000803e3d6000fd5b505050506040513d601f19601f8201168201806040525081019061295391906146ab565b60295460405160e260020a6321c50c6f028152600160a060020a03909116600482015290915060009073__PriceFeed_____________________________9063871431bc90602401602060405180830381865af41580156129b8573d6000803e3d6000fd5b505050506040513d601f19601f820116820180604052508101906129dc91906146ab565b60295460405160e260020a6321c50c6f028152600160a060020a03909116600482015290915060009073__PriceFeed_____________________________9063871431bc90602401602060405180830381865af4158015612a41573d6000803e3d6000fd5b505050506040513d601f19601f82011682018060405250810190612a6591906146ab565b6040805160608101825287815260208101859052908101829052909150612a8b87613916565b9650612a98878983613975565b600254909750610100900460ff1680612ab9575060025462010000900460ff165b15612ad65743601855612aca613009565b50505050505050612dd1565b601054600b54612af491600160a060020a0391821691166000613a9e565b601054600b54612b1191600160a060020a03918216911689613335565b600954600b54600160a060020a03908116911614612bc55760105473__SafeSwapUni___________________________90632b08bab190600160a060020a0316612b5c8a600261379b565b89898d602030612b6e42610258613419565b6040518963ffffffff1660e060020a028152600401612b9498979695949392919061470d565b60006040518083038186803b158015612bac57600080fd5b505af4158015612bc0573d6000803e3d6000fd5b505050505b600a54600b54600160a060020a03908116911614612c795760105473__SafeSwapUni___________________________90632b08bab190600160a060020a0316612c108a600261379b565b89888d602130612c2242610258613419565b6040518963ffffffff1660e060020a028152600401612c4898979695949392919061470d565b60006040518083038186803b158015612c6057600080fd5b505af4158015612c74573d6000803e3d6000fd5b505050505b60095460405160e060020a6370a08231028152306004820152600091600160a060020a0316906370a0823190602401602060405180830381865afa158015612cc5573d6000803e3d6000fd5b505050506040513d601f19601f82011682018060405250810190612ce991906146ab565b600a5460405160e060020a6370a08231028152306004820152919250600091600160a060020a03909116906370a0823190602401602060405180830381865afa158015612d3a573d6000803e3d6000fd5b505050506040513d601f19601f82011682018060405250810190612d5e91906146ab565b9050600082118015612d705750600081115b15612dbb57601054600954612d9291600160a060020a03918216911684613335565b601054600a54612daf91600160a060020a03918216911683613335565b612dbb82828c30613856565b43601855612dc7613009565b5050505050505050505b5060018055565b600054600160a060020a03163314612e055760405160e560020a62461bcd028152600401610ac09061459a565b600f8054600160a060020a031916600160a060020a0392909216919091179055565b600054600160a060020a03163314612e545760405160e560020a62461bcd028152600401610ac09061459a565b600160a060020a038116612ed35760405160e560020a62461bcd02815260206004820152602660248201527f4f776e61626c653a206e6577206f776e657220697320746865207a65726f206160448201527f64647265737300000000000000000000000000000000000000000000000000006064820152608401610ac0565b612edc816136e4565b50565b60238181548110610ce257600080fd5b600054600160a060020a03163314612f1c5760405160e560020a62461bcd028152600401610ac09061459a565b60ff8316612f3657612f30601c838361432d565b50505050565b8260ff1660011415612f4e57612f30601d838361432d565b8260ff1660021415612f6657612f30601e838361432d565b8260ff1660031415612f7e57612f30601f838361432d565b8260ff1660041415612f9657612f306020838361432d565b8260ff1660051415612fae57612f306021838361432d565b8260ff1660061415612fc657612f306022838361432d565b8260ff1660071415612fde57612f306023838361432d565b8260ff1660081415611d4957612f306024838361432d565b6000613002828461478f565b9392505050565b6002546301000000900460ff166130655760405160e560020a62461bcd02815260206004820152600c60248201527f2169735a6f72726f436f6d7000000000000000000000000000000000000000006044820152606401610ac0565b60085460405160e060020a6370a08231028152306004820152600091600160a060020a0316906370a0823190602401602060405180830381865afa1580156130b1573d6000803e3d6000fd5b505050506040513d601f19601f820116820180604052508101906130d591906146ab565b6019549091506130e59082613419565b601955600c5460085461310591600160a060020a03918216911683613335565b600254610100900460ff161561319057600c546040517f41441d3b00000000000000000000000000000000000000000000000000000000815260048101839052600160a060020a03909116906341441d3b906024015b600060405180830381600087803b15801561317557600080fd5b505af1158015613189573d6000803e3d6000fd5b5050505050565b600c546003546040517fe2bbb158000000000000000000000000000000000000000000000000000000008152600160a060020a039092169163e2bbb1589161315b918590600401918252602082015260400190565b60025460ff1661323a5760405160e560020a62461bcd02815260206004820152601460248201527f5061757361626c653a206e6f74207061757365640000000000000000000000006044820152606401610ac0565b6002805460ff191690557f5db9ee0a495bf2e6ff9c91a7834c1ba4fdd244a5e8aa4e537bd38aeae4b073aa335b604051600160a060020a03909116815260200160405180910390a1565b604051600160a060020a0380851660248301528316604482015260648101829052612f309085907f23b872dd00000000000000000000000000000000000000000000000000000000906084015b60408051601f198184030181529190526020810180517bffffffffffffffffffffffffffffffffffffffffffffffffffffffff167fffffffff0000000000000000000000000000000000000000000000000000000090931692909217909152613bef565b6040517fdd62ed3e000000000000000000000000000000000000000000000000000000008152306004820152600160a060020a038381166024830152600091839186169063dd62ed3e90604401602060405180830381865afa15801561339f573d6000803e3d6000fd5b505050506040513d601f19601f820116820180604052508101906133c391906146ab565b6133cd91906147a6565b604051600160a060020a038516602482015260448101829052909150612f309085907f095ea7b300000000000000000000000000000000000000000000000000000000906064016132d1565b600061300282846147a6565b600954600f5460405160e060020a6370a08231028152600160a060020a03918216600482015260009291909116906370a0823190602401602060405180830381865afa158015613479573d6000803e3d6000fd5b505050506040513d601f19601f8201168201806040525081019061349d91906146ab565b600a54600f5460405160e060020a6370a08231028152600160a060020a0391821660048201529293506000929116906370a0823190602401602060405180830381865afa1580156134f2573d6000803e3d6000fd5b505050506040513d601f19601f8201168201806040525081019061351691906146ab565b90506000600f60009054906101000a9004600160a060020a0316600160a060020a03166318160ddd6040518163ffffffff1660e060020a028152600401602060405180830381865afa158015613570573d6000803e3d6000fd5b505050506040513d601f19601f8201168201806040525081019061359491906146ab565b905060006135ae6103e8611a7088611a6a86838d8b61378f565b905060006135c86103e8611a7089611a6a87838e8b61378f565b601054600954600a54929350600160a060020a039182169263baa2abde9291821691168b86868c6135fb42610258613419565b60405163ffffffff891660e060020a028152600160a060020a039788166004820152958716602487015260448601949094526064850192909252608484015290921660a482015260c481019190915260e40160408051808303816000875af115801561366b573d6000803e3d6000fd5b505050506040513d601f19601f8201168201806040525081019061368f91906147be565b50505050505050505050565b604051600160a060020a0383166024820152604481018290526117519084907fa9059cbb00000000000000000000000000000000000000000000000000000000906064016132d1565b60008054600160a060020a03838116600160a060020a0319831681178455604051919092169283917f8be0079c531659141344cd1fd0a4f28419497f9722a3daafe3b4186f6b6457e09190a35050565b60025460ff161561375a5760405160e560020a62461bcd028152600401610ac090614674565b6002805460ff191660011790557f62e78cea01bee320cd4e420270b5ea74000d11b0c9f74754ebdbfc544b05a2586132673390565b600061300282846147e2565b60006130028284614801565b600254610100900460ff161561380157600c546040517f1058d28100000000000000000000000000000000000000000000000000000000815260048101839052600160a060020a0390911690631058d2819060240161315b565b600c546003546040517f441a3e70000000000000000000000000000000000000000000000000000000008152600160a060020a039092169163441a3e709161315b918590600401918252602082015260400190565b601054600954600a54600160a060020a039283169263e8e33700928116911687876138876103e8611a70848b61378f565b6138976103e8611a708c8c61378f565b886138a442610258613419565b6040518963ffffffff1660e060020a0281526004016138ca98979695949392919061483c565b6060604051808303816000875af11580156138e9573d6000803e3d6000fd5b505050506040513d601f19601f8201168201806040525081019061390d9190614885565b50505050505050565b600081156139715760135415613971576000613943612710611a706013548661378f90919063ffffffff16565b600e54600b5491925061396391600160a060020a0390811691168361369b565b61396d8382612ff6565b9250505b5090565b6014546000908190156139a05761399d612710611a706014548861378f90919063ffffffff16565b90505b6000600254640100000000900460ff16156139d0576139c0828686613cd7565b6139cb81868661401b565b613a8a565b600554600160a060020a03166139fc6139e98484613419565b600554600160a060020a031688886140d7565b6003546040517f464e3c8b0000000000000000000000000000000000000000000000000000000081526004810191909152602481018490526044810183905260648101879052600160a060020a0382169063464e3c8b90608401600060405180830381600087803b158015613a7057600080fd5b505af1158015613a84573d6000803e3d6000fd5b50505050505b61263181613a988885612ff6565b90612ff6565b801580613b3157506040517fdd62ed3e000000000000000000000000000000000000000000000000000000008152306004820152600160a060020a03838116602483015284169063dd62ed3e90604401602060405180830381865afa158015613b0b573d6000803e3d6000fd5b505050506040513d601f19601f82011682018060405250810190613b2f91906146ab565b155b613ba65760405160e560020a62461bcd02815260206004820152603660248201527f5361666545524332303a20617070726f76652066726f6d206e6f6e2d7a65726f60448201527f20746f206e6f6e2d7a65726f20616c6c6f77616e6365000000000000000000006064820152608401610ac0565b604051600160a060020a0383166024820152604481018290526117519084907f095ea7b300000000000000000000000000000000000000000000000000000000906064016132d1565b6000613c44826040518060400160405280602081526020017f5361666545524332303a206c6f772d6c6576656c2063616c6c206661696c656481525085600160a060020a031661418b9092919063ffffffff16565b8051909150156117515780806020019051810190613c6291906148b3565b6117515760405160e560020a62461bcd02815260206004820152602a60248201527f5361666545524332303a204552433230206f7065726174696f6e20646964206e60448201527f6f742073756363656564000000000000000000000000000000000000000000006064820152608401610ac0565b601054600b54613cf491600160a060020a03918216911685613335565b60105473__SafeSwapUni___________________________90632b08bab190600160a060020a0316613d2786600261379b565b8451602086015187602230613d3e42610258613419565b6040518963ffffffff1660e060020a028152600401613d6498979695949392919061470d565b60006040518083038186803b158015613d7c57600080fd5b505af4158015613d90573d6000803e3d6000fd5b505060105473__SafeSwapUni___________________________9250632b08bab19150600160a060020a0316613dc786600261379b565b8451604086015187602330613dde42610258613419565b6040518963ffffffff1660e060020a028152600401613e0498979695949392919061470d565b60006040518083038186803b158015613e1c57600080fd5b505af4158015613e30573d6000803e3d6000fd5b505060065460405160e060020a6370a0823102815230600482015260009350600160a060020a0390911691506370a0823190602401602060405180830381865afa158015613e82573d6000803e3d6000fd5b505050506040513d601f19601f82011682018060405250810190613ea691906146ab565b60125460405160e060020a6370a08231028152306004820152919250600091600160a060020a03909116906370a0823190602401602060405180830381865afa158015613ef7573d6000803e3d6000fd5b505050506040513d601f19601f82011682018060405250810190613f1b91906146ab565b601054600654919250613f3b91600160a060020a03908116911684613335565b601054601254613f5891600160a060020a03918216911683613335565b601054600654601254600160a060020a039283169263e8e3370092811691168585613f896103e8611a70848d61378f565b613f996103e8611a708a8e61378f565b61dead613fa842610258613419565b6040518963ffffffff1660e060020a028152600401613fce98979695949392919061483c565b6060604051808303816000875af1158015613fed573d6000803e3d6000fd5b505050506040513d601f19601f820116820180604052508101906140119190614885565b5050505050505050565b601054600b5461403891600160a060020a03918216911685613335565b6010548151602083015160075473__SafeSwapUni___________________________93632b08bab193600160a060020a039182169389939192909189916022911661408542610258613419565b6040518963ffffffff1660e060020a0281526004016140ab98979695949392919061470d565b60006040518083038186803b1580156140c357600080fd5b505af415801561390d573d6000803e3d6000fd5b601054600b546140f491600160a060020a03918216911686613335565b601054815173__SafeSwapUni___________________________91632b08bab191600160a060020a0390911690879064e8d4a510008760248a61413942610258613419565b6040518963ffffffff1660e060020a02815260040161415f98979695949392919061470d565b60006040518083038186803b15801561417757600080fd5b505af4158015614011573d6000803e3d6000fd5b606061419a84846000856141a2565b949350505050565b6060303183111561421e5760405160e560020a62461bcd02815260206004820152602660248201527f416464726573733a20696e73756666696369656e742062616c616e636520666f60448201527f722063616c6c00000000000000000000000000000000000000000000000000006064820152608401610ac0565b600160a060020a0385163b6142785760405160e560020a62461bcd02815260206004820152601d60248201527f416464726573733a2063616c6c20746f206e6f6e2d636f6e74726163740000006044820152606401610ac0565b60008086600160a060020a0316858760405161429491906148fc565b60006040518083038185875af1925050503d80600081146142d1576040519150601f19603f3d011682016040523d82523d6000602084013e6142d6565b606091505b50915091506142e68282866142f1565b979650505050505050565b60608315614300575081613002565b8251156143105782518084602001fd5b8160405160e560020a62461bcd028152600401610ac09190614918565b828054828255906000526020600020908101928215614380579160200282015b82811115614380578154600160a060020a031916600160a060020a0384351617825560209092019160019091019061434d565b506139719291505b808211156139715760008155600101614388565b8035600160a060020a03811681146143b357600080fd5b919050565b6000602082840312156143ca57600080fd5b6130028261439c565b8015158114612edc57600080fd5b6000602082840312156143f357600080fd5b8135613002816143d3565b60006020828403121561441057600080fd5b5035919050565b6000806000806080858703121561442d57600080fd5b5050823594602084013594506040840135936060013592509050565b6000806040838503121561445c57600080fd5b50508035926020909101359150565b60008060006060848603121561448057600080fd5b6144898461439c565b92506020840135915061449e6040850161439c565b90509250925092565b600080604083850312156144ba57600080fd5b6144c38361439c565b946020939093013593505050565b803560ff811681146143b357600080fd5b600080604083850312156144f557600080fd5b6144fe836144d1565b915061450c6020840161439c565b90509250929050565b60008060006040848603121561452a57600080fd5b614533846144d1565b9250602084013567ffffffffffffffff8082111561455057600080fd5b818601915086601f83011261456457600080fd5b81358181111561457357600080fd5b876020808302850101111561458757600080fd5b6020830194508093505050509250925092565b6020808252818101527f4f776e61626c653a2063616c6c6572206973206e6f7420746865206f776e6572604082015260600190565b60208082526004908201527f21676f7600000000000000000000000000000000000000000000000000000000604082015260600190565b6020808252601f908201527f5265656e7472616e637947756172643a207265656e7472616e742063616c6c00604082015260600190565b60208082526010908201527f217a6f72726f436f6e74726f6c6c657200000000000000000000000000000000604082015260600190565b60208082526010908201527f5061757361626c653a2070617573656400000000000000000000000000000000604082015260600190565b6000602082840312156146bd57600080fd5b5051919050565b6000815480845260208085019450836000528060002060005b83811015614702578154600160a060020a0316875295820195600191820191016146dd565b509495945050505050565b6000610100600160a060020a03808c1684528a60208501528960408501528860608501528760808501528160a0850152614749828501886146c4565b951660c0840152505060e001529695505050505050565b7f4e487b7100000000000000000000000000000000000000000000000000000000600052601160045260246000fd5b6000828210156147a1576147a1614760565b500390565b600082198211156147b9576147b9614760565b500190565b600080604083850312156147d157600080fd5b505080516020909101519092909150565b60008160001904831182151516156147fc576147fc614760565b500290565b600082614837577f4e487b7100000000000000000000000000000000000000000000000000000000600052601260045260246000fd5b500490565b600160a060020a039889168152968816602088015260408701959095526060860193909352608085019190915260a084015290921660c082015260e08101919091526101000190565b60008060006060848603121561489a57600080fd5b8351925060208401519150604084015190509250925092565b6000602082840312156148c557600080fd5b8151613002816143d3565b60005b838110156148eb5781810151838201526020016148d3565b83811115612f305750506000910152565b6000825161490e8184602087016148d0565b9190910192915050565b60208152600082518060208401526149378160408501602087016148d0565b601f01601f1916919091016040019291505056fea2646970667358221220ab2682c05177927ef4035ea5e55e49c2bb7230a72d3608e3df19c758ab2c96db64736f6c634300080a0033",
  "immutableReferences": {},
  "source": "// SPDX-License-Identifier: MIT\n\npragma solidity ^0.8.0;\n\nimport \"@openzeppelin/contracts/token/ERC20/ERC20.sol\";\n\nimport \"@openzeppelin/contracts/utils/Address.sol\";\n\nimport \"../interfaces/IAMMFarm.sol\";\n\nimport \"../interfaces/IAMMRouter02.sol\";\n\nimport \"./_VaultBase.sol\";\n\nimport \"@openzeppelin/contracts/token/ERC20/IERC20.sol\";\n\nimport \"@openzeppelin/contracts/token/ERC20/utils/SafeERC20.sol\";\n\nimport \"@openzeppelin/contracts/utils/math/SafeMath.sol\";\n\nimport \"../libraries/SafeSwap.sol\";\n\nimport \"../libraries/PriceFeed.sol\";\n\n/// @title VaultStandardAMM: abstract base class for all PancakeSwap style AMM contracts. Maximizes yield in AMM.\ncontract VaultStandardAMM is VaultBase {\n    /* Libraries */\n    using SafeERC20 for IERC20;\n    using SafeMath for uint256;\n    using SafeSwapUni for IAMMRouter02;\n    using PriceFeed for AggregatorV3Interface;\n\n    /* Constructor */\n    /// @notice Constructor\n    /// @param _initValue A VaultStandardAMMInit struct with all constructor params\n    constructor(VaultStandardAMMInit memory _initValue) {\n        // Vault config\n        pid = _initValue.pid;\n        isCOREStaking = _initValue.isCOREStaking;\n        isSingleAssetDeposit = _initValue.isSingleAssetDeposit;\n        isZorroComp = _initValue.isZorroComp;\n        isHomeChain = _initValue.isHomeChain;\n\n        // Addresses\n        govAddress = _initValue.keyAddresses.govAddress;\n        onlyGov = true;\n        zorroControllerAddress = _initValue.keyAddresses.zorroControllerAddress;\n        ZORROAddress = _initValue.keyAddresses.ZORROAddress;\n        zorroStakingVault = _initValue.keyAddresses.zorroStakingVault;\n        wantAddress = _initValue.keyAddresses.wantAddress;\n        token0Address = _initValue.keyAddresses.token0Address;\n        earnedAddress = _initValue.keyAddresses.earnedAddress;\n        farmContractAddress = _initValue.keyAddresses.farmContractAddress;\n        rewardsAddress = _initValue.keyAddresses.rewardsAddress;\n        poolAddress = _initValue.keyAddresses.poolAddress;\n        uniRouterAddress = _initValue.keyAddresses.uniRouterAddress;\n        zorroLPPool = _initValue.keyAddresses.zorroLPPool;\n        zorroLPPoolOtherToken = _initValue.keyAddresses.zorroLPPoolOtherToken;\n        tokenUSDCAddress = _initValue.keyAddresses.tokenUSDCAddress;\n\n        // Fees\n        controllerFee = _initValue.fees.controllerFee;\n        buyBackRate = _initValue.fees.buyBackRate;\n        revShareRate = _initValue.fees.revShareRate;\n        entranceFeeFactor = _initValue.fees.entranceFeeFactor;\n        withdrawFeeFactor = _initValue.fees.withdrawFeeFactor;\n\n        // Swap paths\n        earnedToZORROPath = _initValue.earnedToZORROPath;\n        earnedToToken0Path = _initValue.earnedToToken0Path;\n        earnedToToken1Path = _initValue.earnedToToken1Path;\n        USDCToToken0Path = _initValue.USDCToToken0Path;\n        USDCToToken1Path = _initValue.USDCToToken1Path;\n        earnedToZORLPPoolOtherTokenPath = _initValue\n            .earnedToZORLPPoolOtherTokenPath;\n        earnedToUSDCPath = _initValue.earnedToUSDCPath;\n        // Corresponding reverse paths\n        token0ToUSDCPath = _reversePath(USDCToToken0Path);\n        token1ToUSDCPath = _reversePath(USDCToToken1Path);\n\n        // Price feeds\n        token0PriceFeed = AggregatorV3Interface(\n            _initValue.priceFeeds.token0PriceFeed\n        );\n        token1PriceFeed = AggregatorV3Interface(\n            _initValue.priceFeeds.token1PriceFeed\n        );\n        earnTokenPriceFeed = AggregatorV3Interface(\n            _initValue.priceFeeds.earnTokenPriceFeed\n        );\n        lpPoolOtherTokenPriceFeed = AggregatorV3Interface(\n            _initValue.priceFeeds.lpPoolOtherTokenPriceFeed\n        );\n        ZORPriceFeed = AggregatorV3Interface(\n            _initValue.priceFeeds.ZORPriceFeed\n        );\n    }\n\n    /* Structs */\n\n    struct VaultStandardAMMInit {\n        uint256 pid;\n        bool isCOREStaking;\n        bool isZorroComp;\n        bool isHomeChain;\n        bool isSingleAssetDeposit;\n        VaultAddresses keyAddresses;\n        address[] earnedToZORROPath;\n        address[] earnedToToken0Path;\n        address[] earnedToToken1Path;\n        address[] USDCToToken0Path;\n        address[] USDCToToken1Path;\n        address[] earnedToZORLPPoolOtherTokenPath;\n        address[] earnedToUSDCPath;\n        VaultFees fees;\n        VaultPriceFeeds priceFeeds;\n    }\n\n    /* Investment Actions */\n\n    /// @notice Receives new deposits from user\n    /// @param _account The address of the end user account making the deposit\n    /// @param _wantAmt The amount of Want token to deposit (must already be transferred)\n    /// @return Number of shares added\n    function depositWantToken(address _account, uint256 _wantAmt)\n        public\n        override\n        onlyZorroController\n        nonReentrant\n        whenNotPaused\n        returns (uint256)\n    {\n        // Preflight checks\n        require(_wantAmt > 0, \"Want token deposit must be > 0\");\n\n        // Transfer Want token from sender\n        IERC20(wantAddress).safeTransferFrom(\n            msg.sender,\n            address(this),\n            _wantAmt\n        );\n\n        // Set sharesAdded to the Want token amount specified\n        uint256 sharesAdded = _wantAmt;\n        // If the total number of shares and want tokens locked both exceed 0, the shares added is the proportion of Want tokens locked,\n        // discounted by the entrance fee\n        if (wantLockedTotal > 0 && sharesTotal > 0) {\n            sharesAdded = _wantAmt\n                .mul(sharesTotal)\n                .mul(entranceFeeFactor)\n                .div(wantLockedTotal)\n                .div(entranceFeeFactorMax);\n        }\n        // Increment the shares\n        sharesTotal = sharesTotal.add(sharesAdded);\n        userShares[_account] = userShares[_account].add(sharesAdded);\n\n        if (isZorroComp) {\n            // If this contract is meant for Autocompounding, start to farm the staked token\n            _farm();\n        } else {\n            // Otherwise, simply increment the quantity of total Want tokens locked\n            wantLockedTotal = wantLockedTotal.add(_wantAmt);\n        }\n\n        return sharesAdded;\n    }\n\n    /// @notice Performs necessary operations to convert USDC into Want token and transfer back to sender\n    /// @param _amountUSDC The amount of USDC to exchange for Want token (must already be deposited on this contract)\n    /// @param _maxMarketMovementAllowed The max slippage allowed. 1000 = 0 %, 995 = 0.5%, etc.\n    /// @return uint256 Amount of Want token obtained\n    function exchangeUSDForWantToken(\n        uint256 _amountUSDC,\n        uint256 _maxMarketMovementAllowed\n    ) public override onlyZorroController whenNotPaused returns (uint256) {\n        // Get balance of deposited USDC\n        uint256 _balUSDC = IERC20(tokenUSDCAddress).balanceOf(msg.sender);\n        // Check that USDC was actually deposited\n        require(_amountUSDC > 0, \"USDC deposit must be > 0\");\n        require(_amountUSDC <= _balUSDC, \"USDC desired exceeded bal\");\n\n        // Use price feed to determine exchange rates\n        uint256 _token0ExchangeRate = token0PriceFeed.getExchangeRate();\n        uint256 _token1ExchangeRate = token1PriceFeed.getExchangeRate();\n\n        // Increase allowance\n        IERC20(tokenUSDCAddress).safeIncreaseAllowance(\n            uniRouterAddress,\n            _amountUSDC\n        );\n\n        // For single token pools, simply swap to Want token right away\n        if (isSingleAssetDeposit) {\n            // Swap USDC for Want token (e.g. Token0)\n            IAMMRouter02(uniRouterAddress).safeSwap(\n                _amountUSDC,\n                1e12,\n                _token0ExchangeRate,\n                _maxMarketMovementAllowed,\n                USDCToToken0Path,\n                msg.sender,\n                block.timestamp.add(600)\n            );\n        } else {\n            // For multi token pools (i.e. LP pools)\n\n            // Swap USDC for token0\n            IAMMRouter02(uniRouterAddress).safeSwap(\n                _amountUSDC.div(2),\n                1e12,\n                _token0ExchangeRate,\n                _maxMarketMovementAllowed,\n                USDCToToken0Path,\n                address(this),\n                block.timestamp.add(600)\n            );\n\n            // Swap USDC for token1 (if applicable)\n            IAMMRouter02(uniRouterAddress).safeSwap(\n                _amountUSDC.div(2),\n                1e12,\n                _token1ExchangeRate,\n                _maxMarketMovementAllowed,\n                USDCToToken1Path,\n                address(this),\n                block.timestamp.add(600)\n            );\n\n            // Deposit token0, token1 into LP pool to get Want token (i.e. LP token)\n            uint256 token0Amt = IERC20(token0Address).balanceOf(address(this));\n            uint256 token1Amt = IERC20(token1Address).balanceOf(address(this));\n            IERC20(token0Address).safeIncreaseAllowance(\n                uniRouterAddress,\n                token0Amt\n            );\n            IERC20(token1Address).safeIncreaseAllowance(\n                uniRouterAddress,\n                token1Amt\n            );\n            _joinPool(\n                token0Amt,\n                token1Amt,\n                _maxMarketMovementAllowed,\n                msg.sender\n            );\n        }\n\n        // Calculate resulting want token balance\n        return IERC20(wantAddress).balanceOf(msg.sender);\n    }\n\n    /// @notice Public function for farming Want token.\n    function farm() public nonReentrant {\n        _farm();\n    }\n\n    /// @notice Internal function for farming Want token. Responsible for staking Want token in a MasterChef/MasterApe-like contract\n    function _farm() internal {\n        // Farming should only occur if this contract is set for autocompounding\n        require(isZorroComp, \"!isZorroComp\");\n\n        // Get the Want token stored on this contract\n        uint256 wantAmt = IERC20(wantAddress).balanceOf(address(this));\n        // Increment the total Want tokens locked into this contract\n        wantLockedTotal = wantLockedTotal.add(wantAmt);\n        // Allow the farm contract (e.g. MasterChef/MasterApe) the ability to transfer up to the Want amount\n        IERC20(wantAddress).safeIncreaseAllowance(farmContractAddress, wantAmt);\n\n        if (isCOREStaking) {\n            // If this contract is meant for staking a core asset of the underlying protocol (e.g. CAKE on Pancakeswap, BANANA on Apeswap),\n            // Stake that token in a single-token-staking vault on the Farm contract\n            IAMMFarm(farmContractAddress).enterStaking(wantAmt);\n        } else {\n            // Otherwise deposit the Want tokens in the Farm contract for the appropriate pool ID (PID)\n            IAMMFarm(farmContractAddress).deposit(pid, wantAmt);\n        }\n    }\n\n    /// @notice Internal function for unfarming Want token. Responsible for unstaking Want token from MasterChef/MasterApe contracts\n    /// @param _wantAmt the amount of Want tokens to withdraw. If 0, will only harvest and not withdraw\n    function _unfarm(uint256 _wantAmt) internal {\n        if (isCOREStaking) {\n            // If this is contract is meant for staking a core assets of the underlying protocol,\n            // simply un-stake the asset from the single-token-staking vault on the Farm contract\n            IAMMFarm(farmContractAddress).leaveStaking(_wantAmt); // Just for CAKE staking, we dont use withdraw()\n        } else {\n            // Otherwise simply withdraw the Want tokens from the Farm contract pool\n            IAMMFarm(farmContractAddress).withdraw(pid, _wantAmt);\n        }\n    }\n\n    /// @notice Fully withdraw Want tokens from the Farm contract (100% withdrawals only)\n    /// @param _account Address of user\n    /// @param _wantAmt The amount of Want token to withdraw\n    /// @return uint256 The number of shares removed\n    function withdrawWantToken(address _account, uint256 _wantAmt)\n        public\n        override\n        onlyZorroController\n        nonReentrant\n        whenNotPaused\n        returns (uint256)\n    {\n        // Preflight checks\n        require(_wantAmt > 0, \"want amt <= 0\");\n\n        // Shares removed is proportional to the % of total Want tokens locked that _wantAmt represents\n        uint256 sharesRemoved = _wantAmt.mul(sharesTotal).div(wantLockedTotal);\n        // Safety: cap the shares to the total number of shares\n        if (sharesRemoved > sharesTotal) {\n            sharesRemoved = sharesTotal;\n        }\n        // Decrement the total shares by the sharesRemoved\n        sharesTotal = sharesTotal.sub(sharesRemoved);\n        userShares[_account] = userShares[_account].sub(sharesRemoved);\n\n        // If a withdrawal fee is specified, discount the _wantAmt by the withdrawal fee\n        if (withdrawFeeFactor < withdrawFeeFactorMax) {\n            _wantAmt = _wantAmt.mul(withdrawFeeFactor).div(\n                withdrawFeeFactorMax\n            );\n        }\n\n        // If this contract is designated for auto compounding, unfarm the Want tokens\n        if (isZorroComp) {\n            _unfarm(_wantAmt);\n        }\n\n        // Safety: Check balance of this contract's Want tokens held, and cap _wantAmt to that value\n        uint256 _wantBal = IERC20(wantAddress).balanceOf(address(this));\n        if (_wantAmt > _wantBal) {\n            _wantAmt = _wantBal;\n        }\n        // Safety: cap _wantAmt at the total quantity of Want tokens locked\n        if (wantLockedTotal < _wantAmt) {\n            _wantAmt = wantLockedTotal;\n        }\n\n        // Decrement the total Want locked tokens by the _wantAmt\n        wantLockedTotal = wantLockedTotal.sub(_wantAmt);\n\n        // Finally, transfer the want amount from this contract, back to the ZorroController contract\n        IERC20(wantAddress).safeTransfer(zorroControllerAddress, _wantAmt);\n\n        return sharesRemoved;\n    }\n\n    /// @notice Converts Want token back into USD to be ready for withdrawal, transfers back to sender\n    /// @param _amount The Want token quantity to exchange\n    /// @param _maxMarketMovementAllowed The max slippage allowed for swaps. 1000 = 0 %, 995 = 0.5%, etc.\n    /// @return uint256 Amount of USDC token obtained\n    function exchangeWantTokenForUSD(\n        uint256 _amount,\n        uint256 _maxMarketMovementAllowed\n    )\n        public\n        virtual\n        override\n        onlyZorroController\n        whenNotPaused\n        returns (uint256)\n    {\n        // Preflight checks\n        require(_amount > 0, \"Want amt must be > 0\");\n\n        // Safely transfer Want token from sender\n        IERC20(wantAddress).safeTransferFrom(\n            msg.sender,\n            address(this),\n            _amount\n        );\n\n        // Use price feed to determine exchange rates\n        uint256 _token0ExchangeRate = token0PriceFeed.getExchangeRate();\n        uint256 _token1ExchangeRate = token1PriceFeed.getExchangeRate();\n\n        // Check if vault is for single asset staking\n        if (isSingleAssetDeposit) {\n            // If so, immediately swap the Want token for USDC\n\n            // Increase allowance\n            IERC20(token0Address).safeIncreaseAllowance(\n                uniRouterAddress,\n                _amount\n            );\n            // Swap\n            IAMMRouter02(uniRouterAddress).safeSwap(\n                _amount,\n                _token0ExchangeRate,\n                1e12,\n                _maxMarketMovementAllowed,\n                token0ToUSDCPath,\n                msg.sender,\n                block.timestamp.add(600)\n            );\n        } else {\n            // If not, exit the LP pool and swap assets to USDC\n\n            // Exit LP pool\n            _exitPool(_amount, _maxMarketMovementAllowed, address(this));\n\n            // Swap tokens back to USDC\n            uint256 token0Amt = IERC20(token0Address).balanceOf(address(this));\n            uint256 token1Amt = IERC20(token1Address).balanceOf(address(this));\n\n            // Increase allowance\n            IERC20(token0Address).safeIncreaseAllowance(\n                uniRouterAddress,\n                token0Amt\n            );\n            IERC20(token1Address).safeIncreaseAllowance(\n                uniRouterAddress,\n                token1Amt\n            );\n\n            // Swap token0 for USDC\n            IAMMRouter02(uniRouterAddress).safeSwap(\n                token0Amt,\n                _token0ExchangeRate,\n                1e12,\n                _maxMarketMovementAllowed,\n                token0ToUSDCPath,\n                msg.sender,\n                block.timestamp.add(600)\n            );\n\n            // Swap token1 for USDC\n            IAMMRouter02(uniRouterAddress).safeSwap(\n                token1Amt,\n                _token1ExchangeRate,\n                1e12,\n                _maxMarketMovementAllowed,\n                token1ToUSDCPath,\n                msg.sender,\n                block.timestamp.add(600)\n            );\n        }\n\n        // Calculate USDC balance\n        return IERC20(tokenUSDCAddress).balanceOf(msg.sender);\n    }\n\n    /// @notice Adds liquidity to the pool of this contract\n    /// @param _token0Amt Quantity of Token0 to add\n    /// @param _token1Amt Quantity of Token1 to add\n    /// @param _maxMarketMovementAllowed The max slippage allowed for swaps. 1000 = 0 %, 995 = 0.5%, etc.\n    /// @param _recipient The recipient of the LP token\n    function _joinPool(\n        uint256 _token0Amt,\n        uint256 _token1Amt,\n        uint256 _maxMarketMovementAllowed,\n        address _recipient\n    ) internal {\n        IAMMRouter02(uniRouterAddress).addLiquidity(\n            token0Address,\n            token1Address,\n            _token0Amt,\n            _token1Amt,\n            _token0Amt.mul(_maxMarketMovementAllowed).div(1000),\n            _token1Amt.mul(_maxMarketMovementAllowed).div(1000),\n            _recipient,\n            block.timestamp.add(600)\n        );\n    }\n\n    /// @notice Removes liquidity from a pool and sends tokens back to this address\n    /// @param _amountLP The amount of LP (Want) tokens to remove\n    /// @param _maxMarketMovementAllowed The max slippage allowed for swaps. 1000 = 0 %, 995 = 0.5%, etc.\n    /// @param _recipient The recipient of the underlying tokens at pool exit\n    function _exitPool(\n        uint256 _amountLP,\n        uint256 _maxMarketMovementAllowed,\n        address _recipient\n    ) internal {\n        // Get token balances in LP pool\n        uint256 _balance0 = IERC20(token0Address).balanceOf(poolAddress);\n        uint256 _balance1 = IERC20(token1Address).balanceOf(poolAddress);\n\n        // Get total supply and calculate min amounts desired based on slippage\n        uint256 _totalSupply = IERC20(poolAddress).totalSupply();\n        uint256 _amount0Min = (_amountLP.mul(_balance0).div(_totalSupply))\n            .mul(_maxMarketMovementAllowed)\n            .div(1000);\n        uint256 _amount1Min = (_amountLP.mul(_balance1).div(_totalSupply))\n            .mul(_maxMarketMovementAllowed)\n            .div(1000);\n\n        // Remove liquidity\n        IAMMRouter02(uniRouterAddress).removeLiquidity(\n            token0Address,\n            token1Address,\n            _amountLP,\n            _amount0Min,\n            _amount1Min,\n            _recipient,\n            block.timestamp.add(600)\n        );\n    }\n\n    /// @notice The main compounding (earn) function. Reinvests profits since the last earn event.\n    /// @param _maxMarketMovementAllowed The max slippage allowed. 1000 = 0 %, 995 = 0.5%, etc.\n    function earn(uint256 _maxMarketMovementAllowed)\n        public\n        override\n        nonReentrant\n        whenNotPaused\n    {\n        // Only to be run if this contract is configured for auto-comnpounding\n        require(isZorroComp, \"!isZorroComp\");\n        // If onlyGov is set to true, only allow to proceed if the current caller is the govAddress\n        if (onlyGov) {\n            require(msg.sender == govAddress, \"!gov\");\n        }\n\n        // Harvest farm tokens\n        _unfarm(0);\n\n        // Get the balance of the Earned token on this contract (CAKE, BANANA, etc.)\n        uint256 earnedAmt = IERC20(earnedAddress).balanceOf(address(this));\n\n        // Get exchange rate from price feed\n        uint256 _earnTokenExchangeRate = earnTokenPriceFeed.getExchangeRate();\n        uint256 _token0ExchangeRate = token0PriceFeed.getExchangeRate();\n        uint256 _token1ExchangeRate = token1PriceFeed.getExchangeRate();\n        uint256 _ZORExchangeRate = ZORPriceFeed.getExchangeRate();\n        uint256 _lpPoolOtherTokenExchangeRate = ZORPriceFeed.getExchangeRate();\n        // Create rates struct\n        ExchangeRates memory _rates = ExchangeRates({\n            earn: _earnTokenExchangeRate,\n            ZOR: _ZORExchangeRate,\n            lpPoolOtherToken: _lpPoolOtherTokenExchangeRate\n        });\n\n        // Reassign value of earned amount after distributing fees\n        earnedAmt = _distributeFees(earnedAmt);\n        // Reassign value of earned amount after buying back a certain amount of Zorro and sharing revenue w/ ZOR stakeholders\n        earnedAmt = _buyBackAndRevShare(\n            earnedAmt,\n            _maxMarketMovementAllowed,\n            _rates\n        );\n\n        // If staking a single token (CAKE, BANANA), farm that token and exit\n        if (isCOREStaking || isSingleAssetDeposit) {\n            // Update the last earn block\n            lastEarnBlock = block.number;\n            _farm();\n            return;\n        }\n\n        // Approve the router contract\n        IERC20(earnedAddress).safeApprove(uniRouterAddress, 0);\n        // Allow the router contract to spen up to earnedAmt\n        IERC20(earnedAddress).safeIncreaseAllowance(\n            uniRouterAddress,\n            earnedAmt\n        );\n\n        // Swap Earned token to token0 if token0 is not the Earned token\n        if (earnedAddress != token0Address) {\n            // Swap half earned to token0\n            IAMMRouter02(uniRouterAddress).safeSwap(\n                earnedAmt.div(2),\n                _earnTokenExchangeRate,\n                _token0ExchangeRate,\n                _maxMarketMovementAllowed,\n                earnedToToken0Path,\n                address(this),\n                block.timestamp.add(600)\n            );\n        }\n\n        // Swap Earned token to token1 if token0 is not the Earned token\n        if (earnedAddress != token1Address) {\n            // Swap half earned to token1\n            IAMMRouter02(uniRouterAddress).safeSwap(\n                earnedAmt.div(2),\n                _earnTokenExchangeRate,\n                _token1ExchangeRate,\n                _maxMarketMovementAllowed,\n                earnedToToken1Path,\n                address(this),\n                block.timestamp.add(600)\n            );\n        }\n\n        // Get values of tokens 0 and 1\n        uint256 token0Amt = IERC20(token0Address).balanceOf(address(this));\n        uint256 token1Amt = IERC20(token1Address).balanceOf(address(this));\n        // Provided that token0 and token1 are both > 0, add liquidity\n        if (token0Amt > 0 && token1Amt > 0) {\n            // Increase the allowance of the router to spend token0\n            IERC20(token0Address).safeIncreaseAllowance(\n                uniRouterAddress,\n                token0Amt\n            );\n            // Increase the allowance of the router to spend token1\n            IERC20(token1Address).safeIncreaseAllowance(\n                uniRouterAddress,\n                token1Amt\n            );\n            // Add liquidity\n            _joinPool(\n                token0Amt,\n                token1Amt,\n                _maxMarketMovementAllowed,\n                address(this)\n            );\n        }\n\n        // Update last earned block\n        lastEarnBlock = block.number;\n\n        // Farm Want token\n        _farm();\n    }\n\n    /// @notice Buys back the earned token on-chain, swaps it to add liquidity to the ZOR pool, then burns the associated LP token\n    /// @dev Requires funds to be sent to this address before calling. Can be called internally OR by controller\n    /// @param _amount The amount of Earn token to buy back\n    /// @param _maxMarketMovementAllowed Slippage factor. 950 = 5%, 990 = 1%, etc.\n    function _buybackOnChain(\n        uint256 _amount,\n        uint256 _maxMarketMovementAllowed,\n        ExchangeRates memory _rates\n    ) internal override {\n        // Authorize spending beforehand\n        IERC20(earnedAddress).safeIncreaseAllowance(uniRouterAddress, _amount);\n\n        // Swap to ZOR Token\n        IAMMRouter02(uniRouterAddress).safeSwap(\n            _amount.div(2),\n            _rates.earn,\n            _rates.ZOR,\n            _maxMarketMovementAllowed,\n            earnedToZORROPath,\n            address(this),\n            block.timestamp.add(600)\n        );\n\n        // Swap to Other token\n        IAMMRouter02(uniRouterAddress).safeSwap(\n            _amount.div(2),\n            _rates.earn,\n            _rates.lpPoolOtherToken,\n            _maxMarketMovementAllowed,\n            earnedToZORLPPoolOtherTokenPath,\n            address(this),\n            block.timestamp.add(600)\n        );\n\n        // Enter LP pool and send received token to the burn address\n        uint256 zorroTokenAmt = IERC20(ZORROAddress).balanceOf(address(this));\n        uint256 otherTokenAmt = IERC20(zorroLPPoolOtherToken).balanceOf(\n            address(this)\n        );\n        IERC20(ZORROAddress).safeIncreaseAllowance(\n            uniRouterAddress,\n            zorroTokenAmt\n        );\n        IERC20(zorroLPPoolOtherToken).safeIncreaseAllowance(\n            uniRouterAddress,\n            otherTokenAmt\n        );\n        IAMMRouter02(uniRouterAddress).addLiquidity(\n            ZORROAddress,\n            zorroLPPoolOtherToken,\n            zorroTokenAmt,\n            otherTokenAmt,\n            zorroTokenAmt.mul(_maxMarketMovementAllowed).div(1000),\n            otherTokenAmt.mul(_maxMarketMovementAllowed).div(1000),\n            burnAddress,\n            block.timestamp.add(600)\n        );\n    }\n\n    /// @notice Sends the specified earnings amount as revenue share to ZOR stakers\n    /// @param _amount The amount of Earn token to share as revenue with ZOR stakers\n    function _revShareOnChain(\n        uint256 _amount,\n        uint256 _maxMarketMovementAllowed,\n        ExchangeRates memory _rates\n    ) internal override {\n        // Authorize spending beforehand\n        IERC20(earnedAddress).safeIncreaseAllowance(uniRouterAddress, _amount);\n\n        // Swap to ZOR\n        IAMMRouter02(uniRouterAddress).safeSwap(\n            _amount,\n            _rates.earn,\n            _rates.ZOR,\n            _maxMarketMovementAllowed,\n            earnedToZORROPath,\n            zorroStakingVault,\n            block.timestamp.add(600)\n        );\n    }\n\n    /// @notice Swaps Earn token to USDC and sends to destination specified\n    /// @param _earnedAmount Quantity of Earned tokens\n    /// @param _destination Address to send swapped USDC to\n    /// @param _maxMarketMovementAllowed Slippage factor. 950 = 5%, 990 = 1%, etc.\n    function _swapEarnedToUSDC(\n        uint256 _earnedAmount,\n        address _destination,\n        uint256 _maxMarketMovementAllowed,\n        ExchangeRates memory _rates\n    ) internal override {\n        // Increase allowance\n        IERC20(earnedAddress).safeIncreaseAllowance(\n            uniRouterAddress,\n            _earnedAmount\n        );\n\n        // Perform swap with Uni router\n        IAMMRouter02(uniRouterAddress).safeSwap(\n            _earnedAmount,\n            _rates.earn,\n            1e12,\n            _maxMarketMovementAllowed,\n            earnedToUSDCPath,\n            _destination,\n            block.timestamp.add(600)\n        );\n    }\n}\n",
  "sourcePath": "/Users/kristophm/Documents/workspace/zorro-protocol/contracts/vaults/VaultStandardAMM.sol",
  "compiler": {
    "name": "solc",
    "version": "0.8.10+commit.fc410830.Emscripten.clang"
  },
  "schemaVersion": "3.4.4",
  "updatedAt": "2022-04-06T14:47:14.409Z",
  "devdoc": {
    "kind": "dev",
    "methods": {
      "constructor": {
        "params": {
          "_initValue": "A VaultStandardAMMInit struct with all constructor params"
        }
      },
      "depositWantToken(address,uint256)": {
        "params": {
          "_account": "The address of the end user account making the deposit",
          "_wantAmt": "The amount of Want token to deposit (must already be transferred)"
        },
        "returns": {
          "_0": "Number of shares added"
        }
      },
      "earn(uint256)": {
        "params": {
          "_maxMarketMovementAllowed": "The max slippage allowed. 1000 = 0 %, 995 = 0.5%, etc."
        }
      },
      "exchangeUSDForWantToken(uint256,uint256)": {
        "params": {
          "_amountUSDC": "The amount of USDC to exchange for Want token (must already be deposited on this contract)",
          "_maxMarketMovementAllowed": "The max slippage allowed. 1000 = 0 %, 995 = 0.5%, etc."
        },
        "returns": {
          "_0": "uint256 Amount of Want token obtained"
        }
      },
      "exchangeWantTokenForUSD(uint256,uint256)": {
        "params": {
          "_amount": "The Want token quantity to exchange",
          "_maxMarketMovementAllowed": "The max slippage allowed for swaps. 1000 = 0 %, 995 = 0.5%, etc."
        },
        "returns": {
          "_0": "uint256 Amount of USDC token obtained"
        }
      },
      "inCaseTokensGetStuck(address,uint256,address)": {
        "params": {
          "_amount": "The amount of the tokens to transfer",
          "_to": "The address to transfer tokens to",
          "_token": "Address of the ERC20 token to transfer"
        }
      },
      "owner()": {
        "details": "Returns the address of the current owner."
      },
      "paused()": {
        "details": "Returns true if the contract is paused, and false otherwise."
      },
      "renounceOwnership()": {
        "details": "Leaves the contract without owner. It will not be possible to call `onlyOwner` functions anymore. Can only be called by the current owner. NOTE: Renouncing ownership will leave the contract without an owner, thereby removing any functionality that is only available to the owner."
      },
      "setFeeSettings(uint256,uint256,uint256,uint256)": {
        "params": {
          "_buyBackRate": "Buy back rate fee numerator",
          "_controllerFee": "Controller fee numerator",
          "_entranceFeeFactor": "Entrance fee numerator (higher means smaller percentage)",
          "_withdrawFeeFactor": "Withdrawal fee numerator (higher means smaller percentage)"
        }
      },
      "setGov(address)": {
        "params": {
          "_govAddress": "The new gov address"
        }
      },
      "setOnlyGov(bool)": {
        "params": {
          "_onlyGov": "whether onlyGov should be enforced"
        }
      },
      "transferOwnership(address)": {
        "details": "Transfers ownership of the contract to a new account (`newOwner`). Can only be called by the current owner."
      },
      "withdrawWantToken(address,uint256)": {
        "params": {
          "_account": "Address of user",
          "_wantAmt": "The amount of Want token to withdraw"
        },
        "returns": {
          "_0": "uint256 The number of shares removed"
        }
      }
    },
    "title": "VaultStandardAMM: abstract base class for all PancakeSwap style AMM contracts. Maximizes yield in AMM.",
    "version": 1
  },
  "userdoc": {
    "kind": "user",
    "methods": {
      "constructor": {
        "notice": "Constructor"
      },
      "depositWantToken(address,uint256)": {
        "notice": "Receives new deposits from user"
      },
      "earn(uint256)": {
        "notice": "The main compounding (earn) function. Reinvests profits since the last earn event."
      },
      "exchangeUSDForWantToken(uint256,uint256)": {
        "notice": "Performs necessary operations to convert USDC into Want token and transfer back to sender"
      },
      "exchangeWantTokenForUSD(uint256,uint256)": {
        "notice": "Converts Want token back into USD to be ready for withdrawal, transfers back to sender"
      },
      "farm()": {
        "notice": "Public function for farming Want token."
      },
      "inCaseTokensGetStuck(address,uint256,address)": {
        "notice": "Safely transfer ERC20 tokens stuck in this contract to a specified address"
      },
      "pause()": {
        "notice": "Pause contract"
      },
      "setFeeSettings(uint256,uint256,uint256,uint256)": {
        "notice": "Configure key fee parameters"
      },
      "setGov(address)": {
        "notice": "Set governor address"
      },
      "setOnlyGov(bool)": {
        "notice": "Set onlyGov property"
      },
      "unpause()": {
        "notice": "Unpause contract"
      },
      "withdrawWantToken(address,uint256)": {
        "notice": "Fully withdraw Want tokens from the Farm contract (100% withdrawals only)"
      }
    },
    "version": 1
  }
}