{
  "contractName": "VaultActionsBenqiLiqStakeLP",
  "abi": [
    {
      "anonymous": false,
      "inputs": [
        {
          "indexed": true,
          "internalType": "address",
          "name": "previousOwner",
          "type": "address"
        },
        {
          "indexed": true,
          "internalType": "address",
          "name": "newOwner",
          "type": "address"
        }
      ],
      "name": "OwnershipTransferred",
      "type": "event"
    },
    {
      "inputs": [],
      "name": "burnAddress",
      "outputs": [
        {
          "internalType": "address",
          "name": "",
          "type": "address"
        }
      ],
      "stateMutability": "view",
      "type": "function"
    },
    {
      "inputs": [
        {
          "internalType": "uint256",
          "name": "_amount",
          "type": "uint256"
        },
        {
          "internalType": "uint256",
          "name": "_maxMarketMovementAllowed",
          "type": "uint256"
        },
        {
          "components": [
            {
              "internalType": "uint256",
              "name": "earn",
              "type": "uint256"
            },
            {
              "internalType": "uint256",
              "name": "ZOR",
              "type": "uint256"
            },
            {
              "internalType": "uint256",
              "name": "lpPoolOtherToken",
              "type": "uint256"
            },
            {
              "internalType": "uint256",
              "name": "stablecoin",
              "type": "uint256"
            }
          ],
          "internalType": "struct VaultActions.ExchangeRates",
          "name": "_rates",
          "type": "tuple"
        },
        {
          "components": [
            {
              "internalType": "address",
              "name": "earnedAddress",
              "type": "address"
            },
            {
              "internalType": "address",
              "name": "ZORROAddress",
              "type": "address"
            },
            {
              "internalType": "address",
              "name": "zorroLPPoolOtherToken",
              "type": "address"
            },
            {
              "internalType": "address[]",
              "name": "earnedToZORROPath",
              "type": "address[]"
            },
            {
              "internalType": "address[]",
              "name": "earnedToZORLPPoolOtherTokenPath",
              "type": "address[]"
            }
          ],
          "internalType": "struct VaultActions.BuybackBurnLPParams",
          "name": "_params",
          "type": "tuple"
        }
      ],
      "name": "buybackBurnLP",
      "outputs": [],
      "stateMutability": "nonpayable",
      "type": "function"
    },
    {
      "inputs": [
        {
          "internalType": "uint256",
          "name": "_amountUSD",
          "type": "uint256"
        },
        {
          "components": [
            {
              "internalType": "address",
              "name": "token0Address",
              "type": "address"
            },
            {
              "internalType": "address",
              "name": "stablecoin",
              "type": "address"
            },
            {
              "internalType": "address",
              "name": "liquidStakeToken",
              "type": "address"
            },
            {
              "internalType": "address",
              "name": "liquidStakePool",
              "type": "address"
            },
            {
              "internalType": "address",
              "name": "poolAddress",
              "type": "address"
            },
            {
              "internalType": "address",
              "name": "wantAddress",
              "type": "address"
            },
            {
              "internalType": "contract AggregatorV3Interface",
              "name": "token0PriceFeed",
              "type": "address"
            },
            {
              "internalType": "contract AggregatorV3Interface",
              "name": "liquidStakeTokenPriceFeed",
              "type": "address"
            },
            {
              "internalType": "contract AggregatorV3Interface",
              "name": "stablecoinPriceFeed",
              "type": "address"
            },
            {
              "internalType": "address[]",
              "name": "stablecoinToToken0Path",
              "type": "address[]"
            },
            {
              "internalType": "address[]",
              "name": "liquidStakeToToken0Path",
              "type": "address[]"
            }
          ],
          "internalType": "struct VaultActionsLiqStakeLP.ExchangeUSDForWantParams",
          "name": "_params",
          "type": "tuple"
        },
        {
          "internalType": "uint256",
          "name": "_maxMarketMovementAllowed",
          "type": "uint256"
        }
      ],
      "name": "exchangeUSDForWantToken",
      "outputs": [
        {
          "internalType": "uint256",
          "name": "returnedWant",
          "type": "uint256"
        }
      ],
      "stateMutability": "nonpayable",
      "type": "function"
    },
    {
      "inputs": [
        {
          "internalType": "uint256",
          "name": "_amount",
          "type": "uint256"
        },
        {
          "components": [
            {
              "internalType": "address",
              "name": "token0Address",
              "type": "address"
            },
            {
              "internalType": "address",
              "name": "stablecoin",
              "type": "address"
            },
            {
              "internalType": "address",
              "name": "wantAddress",
              "type": "address"
            },
            {
              "internalType": "address",
              "name": "poolAddress",
              "type": "address"
            },
            {
              "internalType": "address",
              "name": "liquidStakeToken",
              "type": "address"
            },
            {
              "internalType": "contract AggregatorV3Interface",
              "name": "token0PriceFeed",
              "type": "address"
            },
            {
              "internalType": "contract AggregatorV3Interface",
              "name": "liquidStakeTokenPriceFeed",
              "type": "address"
            },
            {
              "internalType": "contract AggregatorV3Interface",
              "name": "stablecoinPriceFeed",
              "type": "address"
            },
            {
              "internalType": "address[]",
              "name": "liquidStakeToToken0Path",
              "type": "address[]"
            },
            {
              "internalType": "address[]",
              "name": "token0ToStablecoinPath",
              "type": "address[]"
            }
          ],
          "internalType": "struct VaultActionsLiqStakeLP.ExchangeWantTokenForUSDParams",
          "name": "_params",
          "type": "tuple"
        },
        {
          "internalType": "uint256",
          "name": "_maxMarketMovementAllowed",
          "type": "uint256"
        }
      ],
      "name": "exchangeWantTokenForUSD",
      "outputs": [
        {
          "internalType": "uint256",
          "name": "returnedUSD",
          "type": "uint256"
        }
      ],
      "stateMutability": "nonpayable",
      "type": "function"
    },
    {
      "inputs": [
        {
          "internalType": "uint256",
          "name": "_amountLP",
          "type": "uint256"
        },
        {
          "internalType": "uint256",
          "name": "_maxMarketMovementAllowed",
          "type": "uint256"
        },
        {
          "internalType": "address",
          "name": "_recipient",
          "type": "address"
        },
        {
          "components": [
            {
              "internalType": "address",
              "name": "token0",
              "type": "address"
            },
            {
              "internalType": "address",
              "name": "token1",
              "type": "address"
            },
            {
              "internalType": "address",
              "name": "poolAddress",
              "type": "address"
            },
            {
              "internalType": "address",
              "name": "wantAddress",
              "type": "address"
            }
          ],
          "internalType": "struct VaultActions.ExitPoolParams",
          "name": "_exitPoolParams",
          "type": "tuple"
        }
      ],
      "name": "exitPool",
      "outputs": [],
      "stateMutability": "nonpayable",
      "type": "function"
    },
    {
      "inputs": [
        {
          "internalType": "address",
          "name": "_uniRouterAddress",
          "type": "address"
        }
      ],
      "name": "initialize",
      "outputs": [],
      "stateMutability": "nonpayable",
      "type": "function"
    },
    {
      "inputs": [
        {
          "internalType": "address",
          "name": "_token0",
          "type": "address"
        },
        {
          "internalType": "address",
          "name": "_token1",
          "type": "address"
        },
        {
          "internalType": "uint256",
          "name": "_token0Amt",
          "type": "uint256"
        },
        {
          "internalType": "uint256",
          "name": "_token1Amt",
          "type": "uint256"
        },
        {
          "internalType": "uint256",
          "name": "_maxMarketMovementAllowed",
          "type": "uint256"
        },
        {
          "internalType": "address",
          "name": "_recipient",
          "type": "address"
        }
      ],
      "name": "joinPool",
      "outputs": [],
      "stateMutability": "nonpayable",
      "type": "function"
    },
    {
      "inputs": [],
      "name": "owner",
      "outputs": [
        {
          "internalType": "address",
          "name": "",
          "type": "address"
        }
      ],
      "stateMutability": "view",
      "type": "function"
    },
    {
      "inputs": [],
      "name": "renounceOwnership",
      "outputs": [],
      "stateMutability": "nonpayable",
      "type": "function"
    },
    {
      "inputs": [
        {
          "internalType": "address[]",
          "name": "_path",
          "type": "address[]"
        }
      ],
      "name": "reversePath",
      "outputs": [
        {
          "internalType": "address[]",
          "name": "_newPath",
          "type": "address[]"
        }
      ],
      "stateMutability": "pure",
      "type": "function"
    },
    {
      "inputs": [
        {
          "components": [
            {
              "internalType": "uint256",
              "name": "amountIn",
              "type": "uint256"
            },
            {
              "internalType": "uint256",
              "name": "priceToken0",
              "type": "uint256"
            },
            {
              "internalType": "uint256",
              "name": "priceToken1",
              "type": "uint256"
            },
            {
              "internalType": "address",
              "name": "token0",
              "type": "address"
            },
            {
              "internalType": "address",
              "name": "token1",
              "type": "address"
            },
            {
              "internalType": "uint256",
              "name": "maxMarketMovementAllowed",
              "type": "uint256"
            },
            {
              "internalType": "address[]",
              "name": "path",
              "type": "address[]"
            },
            {
              "internalType": "address",
              "name": "destination",
              "type": "address"
            }
          ],
          "internalType": "struct SafeSwapParams",
          "name": "_swapParams",
          "type": "tuple"
        }
      ],
      "name": "safeSwap",
      "outputs": [],
      "stateMutability": "nonpayable",
      "type": "function"
    },
    {
      "inputs": [
        {
          "internalType": "address",
          "name": "_burnAddress",
          "type": "address"
        }
      ],
      "name": "setBurnAddress",
      "outputs": [],
      "stateMutability": "nonpayable",
      "type": "function"
    },
    {
      "inputs": [
        {
          "internalType": "address",
          "name": "_uniRouterAddress",
          "type": "address"
        }
      ],
      "name": "setUniRouterAddress",
      "outputs": [],
      "stateMutability": "nonpayable",
      "type": "function"
    },
    {
      "inputs": [
        {
          "internalType": "address",
          "name": "newOwner",
          "type": "address"
        }
      ],
      "name": "transferOwnership",
      "outputs": [],
      "stateMutability": "nonpayable",
      "type": "function"
    },
    {
      "inputs": [],
      "name": "uniRouterAddress",
      "outputs": [
        {
          "internalType": "address",
          "name": "",
          "type": "address"
        }
      ],
      "stateMutability": "view",
      "type": "function"
    },
    {
      "inputs": [
        {
          "internalType": "uint256",
          "name": "_amount",
          "type": "uint256"
        },
        {
          "internalType": "address",
          "name": "_token0",
          "type": "address"
        },
        {
          "internalType": "address",
          "name": "_liqStakeToken",
          "type": "address"
        },
        {
          "internalType": "address",
          "name": "_liqStakePool",
          "type": "address"
        }
      ],
      "name": "liquidStake",
      "outputs": [],
      "stateMutability": "nonpayable",
      "type": "function"
    },
    {
      "inputs": [
        {
          "components": [
            {
              "internalType": "uint256",
              "name": "amountIn",
              "type": "uint256"
            },
            {
              "internalType": "uint256",
              "name": "priceToken0",
              "type": "uint256"
            },
            {
              "internalType": "uint256",
              "name": "priceToken1",
              "type": "uint256"
            },
            {
              "internalType": "address",
              "name": "token0",
              "type": "address"
            },
            {
              "internalType": "address",
              "name": "token1",
              "type": "address"
            },
            {
              "internalType": "uint256",
              "name": "maxMarketMovementAllowed",
              "type": "uint256"
            },
            {
              "internalType": "address[]",
              "name": "path",
              "type": "address[]"
            },
            {
              "internalType": "address",
              "name": "destination",
              "type": "address"
            }
          ],
          "internalType": "struct SafeSwapParams",
          "name": "_swapParams",
          "type": "tuple"
        }
      ],
      "name": "liquidUnstake",
      "outputs": [],
      "stateMutability": "nonpayable",
      "type": "function"
    }
  ],
  "bytecode": "0x608060405234801561001057600080fd5b50612d07806100206000396000f3fe608060405234801561001057600080fd5b506004361061010f5760003560e060020a90048063715018a6116100a65780638da5cb5b116100755780638da5cb5b14610214578063c4d66de814610225578063c99bbd8114610238578063d0c349bf1461024b578063f2fde38b1461025e57600080fd5b8063715018a6146101b8578063739ef6a1146101c05780638b4c5aee146101e15780638d82ddca1461020157600080fd5b806358f5ab9f116100e257806358f5ab9f1461014f5780635da79d6314610162578063693a090b1461017557806370d5ae05146101a557600080fd5b80630c70c2811461011457806312ad7eba14610129578063193d7ade146101295780634b0e72161461013c575b600080fd5b610127610122366004612160565b610271565b005b610127610137366004612296565b61029d565b61012761014a36600461235f565b6102c9565b61012761015d36600461237c565b61032e565b61012761017036600461235f565b61036e565b60655461018890600160a060020a031681565b604051600160a060020a0390911681526020015b60405180910390f35b60665461018890600160a060020a031681565b6101276103ca565b6101d36101ce3660046123e3565b610403565b60405190815260200161019c565b6101f46101ef366004612528565b6107d6565b60405161019c91906125a1565b61012761020f36600461267a565b6108b0565b603354600160a060020a0316610188565b61012761023336600461235f565b610b22565b610127610246366004612712565b610c26565b6101d3610259366004612765565b610dcf565b61012761026c36600461235f565b6110d5565b606081015161028b90600160a060020a031633308761118a565b6102978484848461123b565b50505050565b805160608201516102bd91600160a060020a03909116903390309061118a565b6102c6816113c5565b50565b603354600160a060020a031633146102ff5760405160e560020a62461bcd0281526004016102f690612872565b60405180910390fd5b6066805473ffffffffffffffffffffffffffffffffffffffff1916600160a060020a0392909216919091179055565b610343600160a060020a03871633308761118a565b610358600160a060020a03861633308661118a565b6103668686868686866115dc565b505050505050565b603354600160a060020a0316331461039b5760405160e560020a62461bcd0281526004016102f690612872565b6065805473ffffffffffffffffffffffffffffffffffffffff1916600160a060020a0392909216919091179055565b603354600160a060020a031633146103f75760405160e560020a62461bcd0281526004016102f690612872565b6104016000611720565b565b602082015160009061042090600160a060020a031633308761118a565b6104b560405180610100016040528086815260200161044c866101000151600160a060020a031661177f565b81526020016104678660c00151600160a060020a031661177f565b81526020018560200151600160a060020a031681526020018560000151600160a060020a03168152602001848152602001856101200151815260200130600160a060020a03168152506113c5565b825160405160e060020a6370a08231028152306004820152600091600160a060020a0316906370a0823190602401602060405180830381865afa158015610500573d6000803e3d6000fd5b505050506040513d601f19601f8201168201806040525081019061052491906128a7565b905061053e81856000015186604001518760600151610c26565b604080850151905160e060020a6370a08231028152306004820152600091600160a060020a0316906370a0823190602401602060405180830381865afa15801561058c573d6000803e3d6000fd5b505050506040513d601f19601f820116820180604052508101906105b091906128a7565b90506106486040518061010001604052806105d56002856118cf90919063ffffffff16565b81526020016105f08860e00151600160a060020a031661177f565b815260200161060b8860c00151600160a060020a031661177f565b8152604080890151600160a060020a039081166020840152895116908201526060810187905261014088015160808201523060a0909101526113c5565b604080860151905160e060020a6370a08231028152306004820152600160a060020a03909116906370a0823190602401602060405180830381865afa158015610695573d6000803e3d6000fd5b505050506040513d601f19601f820116820180604052508101906106b991906128a7565b855160405160e060020a6370a08231028152306004820152919250600160a060020a0316906370a0823190602401602060405180830381865afa158015610704573d6000803e3d6000fd5b505050506040513d601f19601f8201168201806040525081019061072891906128a7565b915061074085604001518660000151838588306115dc565b60a085015160405160e060020a6370a08231028152306004820152600160a060020a03909116906370a0823190602401602060405180830381865afa15801561078d573d6000803e3d6000fd5b505050506040513d601f19601f820116820180604052508101906107b191906128a7565b60a08601519093506107cd90600160a060020a031633856118e4565b50509392505050565b80516060908067ffffffffffffffff8111156107f4576107f4612081565b60405190808252806020026020018201604052801561081d578160200160208202803683370190505b50915060005b818161ffff1610156108a957836108538261ffff1661084d6001885161192d90919063ffffffff16565b9061192d565b81518110610863576108636128c0565b6020026020010151838261ffff1681518110610881576108816128c0565b600160a060020a03909216602092830291909101909101526108a2816128f2565b9050610823565b5050919050565b80516108c790600160a060020a031633308761118a565b8060200151600160a060020a03168160000151600160a060020a03161461096c5761096c60405180610100016040528061090b6002886118cf90919063ffffffff16565b815260200184600001518152602001846020015181526020018360000151600160a060020a031681526020018360200151600160a060020a031681526020018581526020018360600151815260200130600160a060020a03168152506113c5565b8060400151600160a060020a03168160000151600160a060020a031614610a1157610a116040518061010001604052806109b06002886118cf90919063ffffffff16565b815260200184600001518152602001846040015181526020018360000151600160a060020a031681526020018360400151600160a060020a031681526020018581526020018360800151815260200130600160a060020a03168152506113c5565b602081015160405160e060020a6370a08231028152306004820152600091600160a060020a0316906370a0823190602401602060405180830381865afa158015610a5f573d6000803e3d6000fd5b505050506040513d601f19601f82011682018060405250810190610a8391906128a7565b604080840151905160e060020a6370a08231028152306004820152919250600091600160a060020a03909116906370a0823190602401602060405180830381865afa158015610ad6573d6000803e3d6000fd5b505050506040513d601f19601f82011682018060405250810190610afa91906128a7565b6020840151604085015160665492935061036692859085908a90600160a060020a03166115dc565b600054610100900460ff16610b3d5760005460ff1615610b41565b303b155b610bb65760405160e560020a62461bcd02815260206004820152602e60248201527f496e697469616c697a61626c653a20636f6e747261637420697320616c72656160448201527f647920696e697469616c697a656400000000000000000000000000000000000060648201526084016102f6565b600054610100900460ff16158015610bd8576000805461ffff19166101011790555b60658054600160a060020a03841673ffffffffffffffffffffffffffffffffffffffff19918216179091556066805490911661dead1790558015610c22576000805461ff00191690555b5050565b81600160a060020a031681600160a060020a031614610c8a5760405160e560020a62461bcd02815260206004820152601160248201527f6c69717374616b65206d69736d6174636800000000000000000000000000000060448201526064016102f6565b610c9f600160a060020a03841633308761118a565b6040517f2e1a7d4d00000000000000000000000000000000000000000000000000000000815260048101859052600160a060020a03841690632e1a7d4d90602401600060405180830381600087803b158015610cfa57600080fd5b505af1158015610d0e573d6000803e3d6000fd5b50503031915050848111610d675760405160e560020a62461bcd02815260206004820152601760248201527f696e73756666696369656e744c69715374616b6542616c00000000000000000060448201526064016102f6565b81600160a060020a0316635bcb2fc6866040518263ffffffff1660e060020a02815260040160206040518083038185885af1158015610daa573d6000803e3d6000fd5b50505050506040513d601f19601f8201168201806040525081019061036691906128a7565b6040820151600090610dec90600160a060020a031633308761118a565b610e4c84833060405180608001604052808860800151600160a060020a031681526020018860000151600160a060020a031681526020018860600151600160a060020a031681526020018860400151600160a060020a031681525061123b565b608083015160405160e060020a6370a08231028152306004820152600091600160a060020a0316906370a0823190602401602060405180830381865afa158015610e9a573d6000803e3d6000fd5b505050506040513d601f19601f82011682018060405250810190610ebe91906128a7565b9050610f43604051806101000160405280838152602001610eeb8760c00151600160a060020a031661177f565b8152602001610f068760a00151600160a060020a031661177f565b8152608080880151600160a060020a039081166020840152885116604083015260608201879052610100880151908201523060a09091015261029d565b835160405160e060020a6370a08231028152306004820152600091600160a060020a0316906370a0823190602401602060405180830381865afa158015610f8e573d6000803e3d6000fd5b505050506040513d601f19601f82011682018060405250810190610fb291906128a7565b9050611048604051806101000160405280838152602001610fdf8860a00151600160a060020a031661177f565b8152602001610ffa8860e00151600160a060020a031661177f565b81526020018760000151600160a060020a031681526020018760200151600160a060020a03168152602001868152602001876101200151815260200130600160a060020a03168152506113c5565b602085015160405160e060020a6370a08231028152306004820152600160a060020a03909116906370a0823190602401602060405180830381865afa158015611095573d6000803e3d6000fd5b505050506040513d601f19601f820116820180604052508101906110b991906128a7565b60208601519093506107cd90600160a060020a031633856118e4565b603354600160a060020a031633146111025760405160e560020a62461bcd0281526004016102f690612872565b600160a060020a0381166111815760405160e560020a62461bcd02815260206004820152602660248201527f4f776e61626c653a206e6577206f776e657220697320746865207a65726f206160448201527f646472657373000000000000000000000000000000000000000000000000000060648201526084016102f6565b6102c681611720565b604051600160a060020a03808516602483015283166044820152606481018290526102979085907f23b872dd00000000000000000000000000000000000000000000000000000000906084015b60408051601f198184030181529190526020810180517bffffffffffffffffffffffffffffffffffffffffffffffffffffffff167fffffffff0000000000000000000000000000000000000000000000000000000090931692909217909152611939565b60008060008360400151600160a060020a03166318160ddd6040518163ffffffff1660e060020a028152600401602060405180830381865afa158015611285573d6000803e3d6000fd5b505050506040513d601f19601f820116820180604052508101906112a991906128a7565b90506112c08785600001518660400151848a611a21565b92506112d78785602001518660400151848a611a21565b60655460608601519193506112f991600160a060020a03908116911689611abc565b60655484516020860151600160a060020a039092169163baa2abde91908a87878b61132642610258611ba0565b60405163ffffffff891660e060020a028152600160a060020a039788166004820152958716602487015260448601949094526064850192909252608484015290921660a482015260c481019190915260e40160408051808303816000875af1158015611396573d6000803e3d6000fd5b505050506040513d601f19601f820116820180604052508101906113ba9190612914565b505050505050505050565b606554815160608301516113e792600160a060020a0391821692911690611abc565b6040805160028082526060820183526000926020830190803683370190505090508160600151600160a060020a031663313ce5676040518163ffffffff1660e060020a028152600401602060405180830381865afa15801561144d573d6000803e3d6000fd5b505050506040513d601f19601f820116820180604052508101906114719190612938565b81600081518110611484576114846128c0565b602002602001019060ff16908160ff16815250508160800151600160a060020a031663313ce5676040518163ffffffff1660e060020a028152600401602060405180830381865afa1580156114dd573d6000803e3d6000fd5b505050506040513d601f19601f820116820180604052508101906115019190612938565b81600181518110611514576115146128c0565b60ff929092166020928302919091018201526040805160028082526060820183526000939192909183019080368337019050509050826020015181600081518110611561576115616128c0565b602002602001018181525050826040015181600181518110611585576115856128c0565b6020026020010181815250506115d78360000151828560a001518660c00151868860e001516115bf61025842611ba090919063ffffffff16565b606554600160a060020a031696959493929190611bac565b505050565b6115f1600160a060020a03871633308761118a565b611606600160a060020a03861633308661118a565b60655461162090600160a060020a03888116911686611abc565b60655461163a90600160a060020a03878116911685611abc565b606554600160a060020a031663e8e33700878787876116656103e861165f848b611d2c565b906118cf565b6116756103e861165f8c8c611d2c565b8861168242610258611ba0565b60405163ffffffff8a1660e060020a028152600160a060020a039889166004820152968816602488015260448701959095526064860193909352608485019190915260a484015290921660c482015260e4810191909152610104016060604051808303816000875af11580156116fc573d6000803e3d6000fd5b505050506040513d601f19601f820116820180604052508101906113ba919061295b565b60338054600160a060020a0383811673ffffffffffffffffffffffffffffffffffffffff19831681179093556040519116919082907f8be0079c531659141344cd1fd0a4f28419497f9722a3daafe3b4186f6b6457e090600090a35050565b60008082600160a060020a031663313ce5676040518163ffffffff1660e060020a028152600401602060405180830381865afa1580156117c3573d6000803e3d6000fd5b505050506040513d601f19601f820116820180604052508101906117e79190612938565b9050600083600160a060020a031663feaf968c6040518163ffffffff1660e060020a02815260040160a060405180830381865afa15801561182c573d6000803e3d6000fd5b505050506040513d601f19601f8201168201806040525081019061185091906129a3565b50505091505060008112156118aa5760405160e560020a62461bcd02815260206004820152601660248201527f6e656720707269636573206e6f7420616c6c6f7765640000000000000000000060448201526064016102f6565b6118c76118b883600a612ada565b61165f8364e8d4a51000611d2c565b949350505050565b60006118db8284612ae9565b90505b92915050565b604051600160a060020a0383166024820152604481018290526115d79084907fa9059cbb00000000000000000000000000000000000000000000000000000000906064016111d7565b60006118db8284612b0e565b600061198e826040518060400160405280602081526020017f5361666545524332303a206c6f772d6c6576656c2063616c6c206661696c656481525085600160a060020a0316611d389092919063ffffffff16565b8051909150156115d757808060200190518101906119ac9190612b25565b6115d75760405160e560020a62461bcd02815260206004820152602a60248201527f5361666545524332303a204552433230206f7065726174696f6e20646964206e60448201527f6f7420737563636565640000000000000000000000000000000000000000000060648201526084016102f6565b60405160e060020a6370a08231028152600160a060020a03848116600483015260009182918716906370a0823190602401602060405180830381865afa158015611a6f573d6000803e3d6000fd5b505050506040513d601f19601f82011682018060405250810190611a9391906128a7565b9050611ab16103e861165f85611aab88838d88611d2c565b90611d2c565b979650505050505050565b6040517fdd62ed3e000000000000000000000000000000000000000000000000000000008152306004820152600160a060020a038381166024830152600091839186169063dd62ed3e90604401602060405180830381865afa158015611b26573d6000803e3d6000fd5b505050506040513d601f19601f82011682018060405250810190611b4a91906128a7565b611b549190612b47565b604051600160a060020a0385166024820152604481018290529091506102979085907f095ea7b300000000000000000000000000000000000000000000000000000000906064016111d7565b60006118db8284612b47565b8251600214611c005760405160e560020a62461bcd02815260206004820152600b60248201527f696e76616c69642064656300000000000000000000000000000000000000000060448201526064016102f6565b600086600081518110611c1557611c156128c0565b602002602001015160001480611c45575086600181518110611c3957611c396128c0565b60200260200101516000145b15611c5e57611c578989878988611d51565b9050611ca2565b611c9f8888600081518110611c7557611c756128c0565b602002602001015189600181518110611c9057611c906128c0565b60200260200101518988611e66565b90505b6040517f5c11d795000000000000000000000000000000000000000000000000000000008152600160a060020a038a1690635c11d79590611cef908b9085908a9089908990600401612b5f565b600060405180830381600087803b158015611d0957600080fd5b505af1158015611d1d573d6000803e3d6000fd5b50505050505050505050505050565b60006118db8284612b9b565b6060611d478484600085611ee1565b90505b9392505050565b60008086600160a060020a031663d06ca61f87876040518363ffffffff1660e060020a028152600401611d85929190612bba565b600060405180830381865afa158015611da2573d6000803e3d6000fd5b505050506040513d6000823e601f3d908101601f19168201604052611dca9190810190612bd3565b9050611ab1611dfc6103e885600081518110611de857611de86128c0565b6020026020010151600a611aab9190612ada565b61165f85600181518110611e1257611e126128c0565b6020026020010151600a611e269190612ada565b611aab8886611e406001895161192d90919063ffffffff16565b81518110611e5057611e506128c0565b6020026020010151611d2c90919063ffffffff16565b6000611ed7611ea183600081518110611e8157611e816128c0565b6020026020010151600a611e959190612ada565b611aab876103e8611d2c565b61165f84600181518110611eb757611eb76128c0565b6020026020010151600a611ecb9190612ada565b611aab87818c8c611d2c565b9695505050505050565b60603031831115611f5d5760405160e560020a62461bcd02815260206004820152602660248201527f416464726573733a20696e73756666696369656e742062616c616e636520666f60448201527f722063616c6c000000000000000000000000000000000000000000000000000060648201526084016102f6565b600160a060020a0385163b611fb75760405160e560020a62461bcd02815260206004820152601d60248201527f416464726573733a2063616c6c20746f206e6f6e2d636f6e747261637400000060448201526064016102f6565b60008086600160a060020a03168587604051611fd39190612c82565b60006040518083038185875af1925050503d8060008114612010576040519150601f19603f3d011682016040523d82523d6000602084013e612015565b606091505b5091509150611ab18282866060831561202f575081611d4a565b82511561203f5782518084602001fd5b8160405160e560020a62461bcd0281526004016102f69190612c9e565b600160a060020a03811681146102c657600080fd5b803561207c8161205c565b919050565b60e060020a634e487b7102600052604160045260246000fd5b6040516080810167ffffffffffffffff811182821017156120bd576120bd612081565b60405290565b604051610100810167ffffffffffffffff811182821017156120bd576120bd612081565b604051610160810167ffffffffffffffff811182821017156120bd576120bd612081565b604051610140810167ffffffffffffffff811182821017156120bd576120bd612081565b604051601f8201601f1916810167ffffffffffffffff8111828210171561215857612158612081565b604052919050565b60008060008084860360e081121561217757600080fd5b853594506020860135935060408601356121908161205c565b92506080605f19820112156121a457600080fd5b506121ad61209a565b60608601356121bb8161205c565b815260808601356121cb8161205c565b602082015260a08601356121de8161205c565b604082015260c08601356121f18161205c565b6060820152939692955090935050565b600067ffffffffffffffff82111561221b5761221b612081565b5060209081020190565b600082601f83011261223657600080fd5b8135602061224b61224683612201565b61212f565b8281529181028401810191818101908684111561226757600080fd5b8286015b8481101561228b57803561227e8161205c565b835291830191830161226b565b509695505050505050565b6000602082840312156122a857600080fd5b813567ffffffffffffffff808211156122c057600080fd5b9083019061010082860312156122d557600080fd5b6122dd6120c3565b82358152602083013560208201526040830135604082015261230160608401612071565b606082015261231260808401612071565b608082015260a083013560a082015260c08301358281111561233357600080fd5b61233f87828601612225565b60c08301525061235160e08401612071565b60e082015295945050505050565b60006020828403121561237157600080fd5b8135611d4a8161205c565b60008060008060008060c0878903121561239557600080fd5b86356123a08161205c565b955060208701356123b08161205c565b945060408701359350606087013592506080870135915060a08701356123d58161205c565b809150509295509295509295565b6000806000606084860312156123f857600080fd5b83359250602084013567ffffffffffffffff8082111561241757600080fd5b90850190610160828803121561242c57600080fd5b6124346120e7565b61243d83612071565b815261244b60208401612071565b602082015261245c60408401612071565b604082015261246d60608401612071565b606082015261247e60808401612071565b608082015261248f60a08401612071565b60a08201526124a060c08401612071565b60c08201526124b160e08401612071565b60e08201526101006124c4818501612071565b9082015261012083810135838111156124dc57600080fd5b6124e88a828701612225565b828401525050610140808401358381111561250257600080fd5b61250e8a828701612225565b828401525050809450505050604084013590509250925092565b60006020828403121561253a57600080fd5b813567ffffffffffffffff81111561255157600080fd5b6118c784828501612225565b600081518084526020808501945080840160005b83811015612596578151600160a060020a031687529582019590820190600101612571565b509495945050505050565b6020815260006118db602083018461255d565b600060a082840312156125c657600080fd5b60405160a0810167ffffffffffffffff82821081831117156125ea576125ea612081565b81604052829350843591506125fe8261205c565b9082526020840135906126108261205c565b81602084015261262260408601612071565b6040840152606085013591508082111561263b57600080fd5b61264786838701612225565b6060840152608085013591508082111561266057600080fd5b5061266d85828601612225565b6080830152505092915050565b60008060008084860360e081121561269157600080fd5b85359450602086013593506080603f19820112156126ae57600080fd5b506126b761209a565b60408601358152606086013560208201526080860135604082015260a086013560608201528092505060c085013567ffffffffffffffff8111156126fa57600080fd5b612706878288016125b4565b91505092959194509250565b6000806000806080858703121561272857600080fd5b84359350602085013561273a8161205c565b9250604085013561274a8161205c565b9150606085013561275a8161205c565b939692955090935050565b60008060006060848603121561277a57600080fd5b83359250602084013567ffffffffffffffff8082111561279957600080fd5b9085019061014082880312156127ae57600080fd5b6127b661210b565b6127bf83612071565b81526127cd60208401612071565b60208201526127de60408401612071565b60408201526127ef60608401612071565b606082015261280060808401612071565b608082015261281160a08401612071565b60a082015261282260c08401612071565b60c082015261283360e08401612071565b60e0820152610100808401358381111561284c57600080fd5b6128588a828701612225565b828401525050610120808401358381111561250257600080fd5b6020808252818101527f4f776e61626c653a2063616c6c6572206973206e6f7420746865206f776e6572604082015260600190565b6000602082840312156128b957600080fd5b5051919050565b60e060020a634e487b7102600052603260045260246000fd5b60e060020a634e487b7102600052601160045260246000fd5b600061ffff8083168181141561290a5761290a6128d9565b6001019392505050565b6000806040838503121561292757600080fd5b505080516020909101519092909150565b60006020828403121561294a57600080fd5b815160ff81168114611d4a57600080fd5b60008060006060848603121561297057600080fd5b8351925060208401519150604084015190509250925092565b805169ffffffffffffffffffff8116811461207c57600080fd5b600080600080600060a086880312156129bb57600080fd5b6129c486612989565b94506020860151935060408601519250606086015191506129e760808701612989565b90509295509295909350565b600181815b80851115612a30578160001904821115612a1457612a146128d9565b80851615612a2157918102915b600290940493908002906129f8565b509250929050565b600082612a47575060016118de565b81612a54575060006118de565b8160018114612a6a5760028114612a7457612a91565b60019150506118de565b60ff841115612a8557612a856128d9565b8360020a9150506118de565b5060208310610133831016604e8410600b8410161715612ab4575081810a6118de565b612abe83836129f3565b8060001904821115612ad257612ad26128d9565b029392505050565b60006118db60ff841683612a38565b600082612b095760e060020a634e487b7102600052601260045260246000fd5b500490565b600082821015612b2057612b206128d9565b500390565b600060208284031215612b3757600080fd5b81518015158114611d4a57600080fd5b60008219821115612b5a57612b5a6128d9565b500190565b85815284602082015260a060408201526000612b7e60a083018661255d565b600160a060020a0394909416606083015250608001529392505050565b6000816000190483118215151615612bb557612bb56128d9565b500290565b828152604060208201526000611d47604083018461255d565b60006020808385031215612be657600080fd5b825167ffffffffffffffff811115612bfd57600080fd5b8301601f81018513612c0e57600080fd5b8051612c1c61224682612201565b81815290830282018301908381019087831115612c3857600080fd5b928401925b82841015611ab157835182529284019290840190612c3d565b60005b83811015612c71578181015183820152602001612c59565b838111156102975750506000910152565b60008251612c94818460208701612c56565b9190910192915050565b6020815260008251806020840152612cbd816040850160208701612c56565b601f01601f1916919091016040019291505056fea2646970667358221220f90c8000ebdb79c5969f24d5c647ec87c96c25d66549985ecd076bf1379a961d64736f6c634300080a0033",
  "immutableReferences": {},
  "source": "// SPDX-License-Identifier: MIT\n\npragma solidity ^0.8.0;\n\nimport \"@openzeppelin/contracts-upgradeable/token/ERC20/utils/SafeERC20Upgradeable.sol\";\n\nimport \"../../interfaces/Benqi/IStakedAvax.sol\";\n\nimport \"../../interfaces/IWETH.sol\";\n\nimport \"../../libraries/SafeSwap.sol\";\n\nimport \"./_VaultActionsLiqStakeLP.sol\";\n\ncontract VaultActionsBenqiLiqStakeLP is VaultActionsLiqStakeLP {\n    /* Libs */\n\n    using PriceFeed for AggregatorV3Interface;\n    using SafeERC20Upgradeable for IERC20Upgradeable;\n\n    /* Functions */\n\n    /// @notice Deposits liquid stake on protocol\n    /// @param _amount The amount of ETH to liquid stake\n    /// @param _token0 The base (underlying) token to supply\n    /// @param _liqStakeToken The liquid staking synthetic token returned after staking the underlying\n    /// @param _liqStakePool The liquid staking pool address\n    function liquidStake(\n        uint256 _amount,\n        address _token0,\n        address _liqStakeToken,\n        address _liqStakePool\n    ) public override {\n        // Peflight checks\n        require(_liqStakePool == _liqStakeToken, \"liqstake mismatch\");\n        \n        // Transfer amount IN\n        IERC20Upgradeable(_token0).safeTransferFrom(\n            msg.sender,\n            address(this),\n            _amount\n        );\n\n        // Unwrap ETH\n        IWETH(_token0).withdraw(_amount);\n\n        // Get native ETH balance\n        uint256 _bal = address(this).balance;\n\n        // Require balance to be > amount\n        require(_bal > _amount, \"insufficientLiqStakeBal\");\n\n        // Call deposit func\n        IStakedAvax(_liqStakePool).submit{value: _amount}();\n    }\n\n    /// @notice Withdraws liquid stake on Benqi protocol\n    /// @param _swapParams The SafeSwapParams object with swap information\n    function liquidUnstake(SafeSwapParams memory _swapParams) public override {\n        // Transfer amount IN\n        IERC20Upgradeable(_swapParams.token0).safeTransferFrom(\n            msg.sender,\n            address(this),\n            _swapParams.amountIn\n        );\n\n        // Swap sETH to WETH\n        _safeSwap(_swapParams);\n    }\n}\n",
  "sourcePath": "/Users/kristophm/Documents/workspace/zorro-protocol/contracts/vaults/actions/VaultActionsBenqiLiqStakeLP.sol",
  "compiler": {
    "name": "solc",
    "version": "0.8.10+commit.fc410830.Emscripten.clang"
  },
  "schemaVersion": "3.4.10",
  "updatedAt": "2022-11-21T01:35:07.540Z",
  "devdoc": {
    "kind": "dev",
    "methods": {
      "buybackBurnLP(uint256,uint256,(uint256,uint256,uint256,uint256),(address,address,address,address[],address[]))": {
        "params": {
          "_amount": "The amount of Earn token to swap and buy back",
          "_maxMarketMovementAllowed": "Acceptable slippage (990 = 1%)",
          "_params": "An BuybackBurnLPParams struct specifying buyback parameters",
          "_rates": "An ExchangeRates struct"
        }
      },
      "exchangeWantTokenForUSD(uint256,(address,address,address,address,address,address,address,address,address[],address[]),uint256)": {
        "params": {
          "_amount": "The Want token quantity to exchange (must be deposited beforehand)",
          "_maxMarketMovementAllowed": "The max slippage allowed for swaps. 1000 = 0 %, 995 = 0.5%, etc.",
          "_params": "ExchangeWantTokenForUSDParams struct"
        },
        "returns": {
          "returnedUSD": "Amount of USD token obtained"
        }
      },
      "exitPool(uint256,uint256,address,(address,address,address,address))": {
        "details": "NOTE: Requires caller to approve want token spending",
        "params": {
          "_amountLP": "The amount of LP (Want) tokens to remove",
          "_maxMarketMovementAllowed": "The max slippage allowed for swaps. 1000 = 0 %, 995 = 0.5%, etc.",
          "_recipient": "The recipient of the underlying tokens at pool exit"
        }
      },
      "initialize(address)": {
        "params": {
          "_uniRouterAddress": "Address of Uniswap style router"
        }
      },
      "joinPool(address,address,uint256,uint256,uint256,address)": {
        "details": "NOTE: Requires spending approval by caller",
        "params": {
          "_maxMarketMovementAllowed": "The max slippage allowed for swaps. 1000 = 0 %, 995 = 0.5%, etc.",
          "_recipient": "The recipient of the LP token",
          "_token0": "The address of Token0",
          "_token0Amt": "Quantity of Token0 to add",
          "_token1": "The address of Token1",
          "_token1Amt": "Quantity of Token1 to add"
        }
      },
      "liquidStake(uint256,address,address,address)": {
        "params": {
          "_amount": "The amount of ETH to liquid stake",
          "_liqStakePool": "The liquid staking pool address",
          "_liqStakeToken": "The liquid staking synthetic token returned after staking the underlying",
          "_token0": "The base (underlying) token to supply"
        }
      },
      "liquidUnstake((uint256,uint256,uint256,address,address,uint256,address[],address))": {
        "params": {
          "_swapParams": "The SafeSwapParams object with swap information"
        }
      },
      "owner()": {
        "details": "Returns the address of the current owner."
      },
      "renounceOwnership()": {
        "details": "Leaves the contract without owner. It will not be possible to call `onlyOwner` functions anymore. Can only be called by the current owner. NOTE: Renouncing ownership will leave the contract without an owner, thereby removing any functionality that is only available to the owner."
      },
      "reversePath(address[])": {
        "params": {
          "_path": "The swap path to be reversed"
        },
        "returns": {
          "_newPath": "An reversed path array"
        }
      },
      "safeSwap((uint256,uint256,uint256,address,address,uint256,address[],address))": {
        "details": "NOTE: Caller must approve tokens for spending beforehand",
        "params": {
          "_swapParams": "SafeSwapParams for swap"
        }
      },
      "transferOwnership(address)": {
        "details": "Transfers ownership of the contract to a new account (`newOwner`). Can only be called by the current owner."
      }
    },
    "version": 1
  },
  "userdoc": {
    "kind": "user",
    "methods": {
      "buybackBurnLP(uint256,uint256,(uint256,uint256,uint256,uint256),(address,address,address,address[],address[]))": {
        "notice": "Buys back earn token, adds liquidity, and burns the LP token"
      },
      "exchangeWantTokenForUSD(uint256,(address,address,address,address,address,address,address,address,address[],address[]),uint256)": {
        "notice": "Converts Want token back into USD to be ready for withdrawal and transfers to sender"
      },
      "exitPool(uint256,uint256,address,(address,address,address,address))": {
        "notice": "Removes liquidity from a pool and sends tokens back to this address"
      },
      "initialize(address)": {
        "notice": "Constructor"
      },
      "joinPool(address,address,uint256,uint256,uint256,address)": {
        "notice": "Adds liquidity to the pool of this contract"
      },
      "liquidStake(uint256,address,address,address)": {
        "notice": "Deposits liquid stake on protocol"
      },
      "liquidUnstake((uint256,uint256,uint256,address,address,uint256,address[],address))": {
        "notice": "Withdraws liquid stake on Benqi protocol"
      },
      "reversePath(address[])": {
        "notice": "Gets the swap path in the opposite direction of a trade"
      },
      "safeSwap((uint256,uint256,uint256,address,address,uint256,address[],address))": {
        "notice": "Safely swaps tokens using the most suitable protocol based on token"
      }
    },
    "version": 1
  }
}