{
  "contractName": "VaultApeLending",
  "abi": [
    {
      "anonymous": false,
      "inputs": [
        {
          "indexed": true,
          "internalType": "uint256",
          "name": "_amount",
          "type": "uint256"
        }
      ],
      "name": "Buyback",
      "type": "event"
    },
    {
      "anonymous": false,
      "inputs": [
        {
          "indexed": true,
          "internalType": "address",
          "name": "previousOwner",
          "type": "address"
        },
        {
          "indexed": true,
          "internalType": "address",
          "name": "newOwner",
          "type": "address"
        }
      ],
      "name": "OwnershipTransferred",
      "type": "event"
    },
    {
      "anonymous": false,
      "inputs": [
        {
          "indexed": false,
          "internalType": "address",
          "name": "account",
          "type": "address"
        }
      ],
      "name": "Paused",
      "type": "event"
    },
    {
      "anonymous": false,
      "inputs": [
        {
          "indexed": true,
          "internalType": "uint256",
          "name": "_amount",
          "type": "uint256"
        }
      ],
      "name": "RevShare",
      "type": "event"
    },
    {
      "anonymous": false,
      "inputs": [
        {
          "indexed": false,
          "internalType": "address",
          "name": "_govAddress",
          "type": "address"
        }
      ],
      "name": "SetGov",
      "type": "event"
    },
    {
      "anonymous": false,
      "inputs": [
        {
          "indexed": false,
          "internalType": "bool",
          "name": "_onlyGov",
          "type": "bool"
        }
      ],
      "name": "SetOnlyGov",
      "type": "event"
    },
    {
      "anonymous": false,
      "inputs": [
        {
          "indexed": false,
          "internalType": "address",
          "name": "_rewardsAddress",
          "type": "address"
        }
      ],
      "name": "SetRewardsAddress",
      "type": "event"
    },
    {
      "anonymous": false,
      "inputs": [
        {
          "indexed": false,
          "internalType": "uint256",
          "name": "_entranceFeeFactor",
          "type": "uint256"
        },
        {
          "indexed": false,
          "internalType": "uint256",
          "name": "_withdrawFeeFactor",
          "type": "uint256"
        },
        {
          "indexed": false,
          "internalType": "uint256",
          "name": "_controllerFee",
          "type": "uint256"
        },
        {
          "indexed": false,
          "internalType": "uint256",
          "name": "_buyBackRate",
          "type": "uint256"
        },
        {
          "indexed": false,
          "internalType": "uint256",
          "name": "_revShareRate",
          "type": "uint256"
        }
      ],
      "name": "SetSettings",
      "type": "event"
    },
    {
      "anonymous": false,
      "inputs": [
        {
          "indexed": false,
          "internalType": "address",
          "name": "_uniRouterAddress",
          "type": "address"
        }
      ],
      "name": "SetUniRouterAddress",
      "type": "event"
    },
    {
      "anonymous": false,
      "inputs": [
        {
          "indexed": false,
          "internalType": "address",
          "name": "account",
          "type": "address"
        }
      ],
      "name": "Unpaused",
      "type": "event"
    },
    {
      "inputs": [],
      "name": "ZORROAddress",
      "outputs": [
        {
          "internalType": "address",
          "name": "",
          "type": "address"
        }
      ],
      "stateMutability": "view",
      "type": "function"
    },
    {
      "inputs": [],
      "name": "burnAddress",
      "outputs": [
        {
          "internalType": "address",
          "name": "",
          "type": "address"
        }
      ],
      "stateMutability": "view",
      "type": "function"
    },
    {
      "inputs": [],
      "name": "buyBackRate",
      "outputs": [
        {
          "internalType": "uint256",
          "name": "",
          "type": "uint256"
        }
      ],
      "stateMutability": "view",
      "type": "function"
    },
    {
      "inputs": [],
      "name": "buyBackRateUL",
      "outputs": [
        {
          "internalType": "uint256",
          "name": "",
          "type": "uint256"
        }
      ],
      "stateMutability": "view",
      "type": "function"
    },
    {
      "inputs": [],
      "name": "comptrollerAddress",
      "outputs": [
        {
          "internalType": "address",
          "name": "",
          "type": "address"
        }
      ],
      "stateMutability": "view",
      "type": "function"
    },
    {
      "inputs": [],
      "name": "controllerFee",
      "outputs": [
        {
          "internalType": "uint256",
          "name": "",
          "type": "uint256"
        }
      ],
      "stateMutability": "view",
      "type": "function"
    },
    {
      "inputs": [],
      "name": "controllerFeeUL",
      "outputs": [
        {
          "internalType": "uint256",
          "name": "",
          "type": "uint256"
        }
      ],
      "stateMutability": "view",
      "type": "function"
    },
    {
      "inputs": [],
      "name": "defaultStablecoin",
      "outputs": [
        {
          "internalType": "address",
          "name": "",
          "type": "address"
        }
      ],
      "stateMutability": "view",
      "type": "function"
    },
    {
      "inputs": [
        {
          "internalType": "uint256",
          "name": "_wantAmt",
          "type": "uint256"
        }
      ],
      "name": "depositWantToken",
      "outputs": [
        {
          "internalType": "uint256",
          "name": "sharesAdded",
          "type": "uint256"
        }
      ],
      "stateMutability": "nonpayable",
      "type": "function"
    },
    {
      "inputs": [
        {
          "internalType": "uint256",
          "name": "_maxMarketMovementAllowed",
          "type": "uint256"
        }
      ],
      "name": "earn",
      "outputs": [],
      "stateMutability": "nonpayable",
      "type": "function"
    },
    {
      "inputs": [],
      "name": "earnedAddress",
      "outputs": [
        {
          "internalType": "address",
          "name": "",
          "type": "address"
        }
      ],
      "stateMutability": "view",
      "type": "function"
    },
    {
      "inputs": [],
      "name": "entranceFeeFactor",
      "outputs": [
        {
          "internalType": "uint256",
          "name": "",
          "type": "uint256"
        }
      ],
      "stateMutability": "view",
      "type": "function"
    },
    {
      "inputs": [],
      "name": "entranceFeeFactorLL",
      "outputs": [
        {
          "internalType": "uint256",
          "name": "",
          "type": "uint256"
        }
      ],
      "stateMutability": "view",
      "type": "function"
    },
    {
      "inputs": [
        {
          "internalType": "uint256",
          "name": "_amountUSD",
          "type": "uint256"
        },
        {
          "internalType": "uint256",
          "name": "_maxMarketMovementAllowed",
          "type": "uint256"
        }
      ],
      "name": "exchangeUSDForWantToken",
      "outputs": [
        {
          "internalType": "uint256",
          "name": "",
          "type": "uint256"
        }
      ],
      "stateMutability": "nonpayable",
      "type": "function"
    },
    {
      "inputs": [
        {
          "internalType": "uint256",
          "name": "_amount",
          "type": "uint256"
        },
        {
          "internalType": "uint256",
          "name": "_maxMarketMovementAllowed",
          "type": "uint256"
        }
      ],
      "name": "exchangeWantTokenForUSD",
      "outputs": [
        {
          "internalType": "uint256",
          "name": "",
          "type": "uint256"
        }
      ],
      "stateMutability": "nonpayable",
      "type": "function"
    },
    {
      "inputs": [],
      "name": "farm",
      "outputs": [],
      "stateMutability": "nonpayable",
      "type": "function"
    },
    {
      "inputs": [],
      "name": "farmContractAddress",
      "outputs": [
        {
          "internalType": "address",
          "name": "",
          "type": "address"
        }
      ],
      "stateMutability": "view",
      "type": "function"
    },
    {
      "inputs": [],
      "name": "feeDenominator",
      "outputs": [
        {
          "internalType": "uint256",
          "name": "",
          "type": "uint256"
        }
      ],
      "stateMutability": "view",
      "type": "function"
    },
    {
      "inputs": [],
      "name": "govAddress",
      "outputs": [
        {
          "internalType": "address",
          "name": "",
          "type": "address"
        }
      ],
      "stateMutability": "view",
      "type": "function"
    },
    {
      "inputs": [
        {
          "internalType": "address",
          "name": "_token",
          "type": "address"
        },
        {
          "internalType": "uint256",
          "name": "_amount",
          "type": "uint256"
        },
        {
          "internalType": "address",
          "name": "_to",
          "type": "address"
        }
      ],
      "name": "inCaseTokensGetStuck",
      "outputs": [],
      "stateMutability": "nonpayable",
      "type": "function"
    },
    {
      "inputs": [
        {
          "internalType": "address",
          "name": "_timelockOwner",
          "type": "address"
        },
        {
          "components": [
            {
              "components": [
                {
                  "internalType": "uint256",
                  "name": "pid",
                  "type": "uint256"
                },
                {
                  "internalType": "bool",
                  "name": "isHomeChain",
                  "type": "bool"
                },
                {
                  "internalType": "bool",
                  "name": "isFarmable",
                  "type": "bool"
                }
              ],
              "internalType": "struct IVault.VaultConfig",
              "name": "config",
              "type": "tuple"
            },
            {
              "components": [
                {
                  "internalType": "address",
                  "name": "govAddress",
                  "type": "address"
                },
                {
                  "internalType": "address",
                  "name": "zorroControllerAddress",
                  "type": "address"
                },
                {
                  "internalType": "address",
                  "name": "zorroXChainController",
                  "type": "address"
                },
                {
                  "internalType": "address",
                  "name": "ZORROAddress",
                  "type": "address"
                },
                {
                  "internalType": "address",
                  "name": "zorroStakingVault",
                  "type": "address"
                },
                {
                  "internalType": "address",
                  "name": "wantAddress",
                  "type": "address"
                },
                {
                  "internalType": "address",
                  "name": "token0Address",
                  "type": "address"
                },
                {
                  "internalType": "address",
                  "name": "token1Address",
                  "type": "address"
                },
                {
                  "internalType": "address",
                  "name": "earnedAddress",
                  "type": "address"
                },
                {
                  "internalType": "address",
                  "name": "farmContractAddress",
                  "type": "address"
                },
                {
                  "internalType": "address",
                  "name": "rewardsAddress",
                  "type": "address"
                },
                {
                  "internalType": "address",
                  "name": "poolAddress",
                  "type": "address"
                },
                {
                  "internalType": "address",
                  "name": "uniRouterAddress",
                  "type": "address"
                },
                {
                  "internalType": "address",
                  "name": "zorroLPPool",
                  "type": "address"
                },
                {
                  "internalType": "address",
                  "name": "zorroLPPoolOtherToken",
                  "type": "address"
                },
                {
                  "internalType": "address",
                  "name": "defaultStablecoin",
                  "type": "address"
                }
              ],
              "internalType": "struct IVault.VaultAddresses",
              "name": "keyAddresses",
              "type": "tuple"
            },
            {
              "components": [
                {
                  "internalType": "address[]",
                  "name": "earnedToZORROPath",
                  "type": "address[]"
                },
                {
                  "internalType": "address[]",
                  "name": "earnedToToken0Path",
                  "type": "address[]"
                },
                {
                  "internalType": "address[]",
                  "name": "earnedToToken1Path",
                  "type": "address[]"
                },
                {
                  "internalType": "address[]",
                  "name": "stablecoinToToken0Path",
                  "type": "address[]"
                },
                {
                  "internalType": "address[]",
                  "name": "stablecoinToToken1Path",
                  "type": "address[]"
                },
                {
                  "internalType": "address[]",
                  "name": "earnedToZORLPPoolOtherTokenPath",
                  "type": "address[]"
                },
                {
                  "internalType": "address[]",
                  "name": "earnedToStablecoinPath",
                  "type": "address[]"
                },
                {
                  "internalType": "address[]",
                  "name": "stablecoinToZORROPath",
                  "type": "address[]"
                },
                {
                  "internalType": "address[]",
                  "name": "stablecoinToLPPoolOtherTokenPath",
                  "type": "address[]"
                }
              ],
              "internalType": "struct IVault.VaultSwapPaths",
              "name": "swapPaths",
              "type": "tuple"
            },
            {
              "components": [
                {
                  "internalType": "uint256",
                  "name": "controllerFee",
                  "type": "uint256"
                },
                {
                  "internalType": "uint256",
                  "name": "buyBackRate",
                  "type": "uint256"
                },
                {
                  "internalType": "uint256",
                  "name": "revShareRate",
                  "type": "uint256"
                },
                {
                  "internalType": "uint256",
                  "name": "entranceFeeFactor",
                  "type": "uint256"
                },
                {
                  "internalType": "uint256",
                  "name": "withdrawFeeFactor",
                  "type": "uint256"
                }
              ],
              "internalType": "struct IVault.VaultFees",
              "name": "fees",
              "type": "tuple"
            },
            {
              "components": [
                {
                  "internalType": "address",
                  "name": "token0PriceFeed",
                  "type": "address"
                },
                {
                  "internalType": "address",
                  "name": "token1PriceFeed",
                  "type": "address"
                },
                {
                  "internalType": "address",
                  "name": "earnTokenPriceFeed",
                  "type": "address"
                },
                {
                  "internalType": "address",
                  "name": "ZORPriceFeed",
                  "type": "address"
                },
                {
                  "internalType": "address",
                  "name": "lpPoolOtherTokenPriceFeed",
                  "type": "address"
                },
                {
                  "internalType": "address",
                  "name": "stablecoinPriceFeed",
                  "type": "address"
                }
              ],
              "internalType": "struct IVault.VaultPriceFeeds",
              "name": "priceFeeds",
              "type": "tuple"
            }
          ],
          "internalType": "struct IVault.VaultBaseInit",
          "name": "_initValue",
          "type": "tuple"
        }
      ],
      "name": "initialize",
      "outputs": [],
      "stateMutability": "nonpayable",
      "type": "function"
    },
    {
      "inputs": [
        {
          "internalType": "address",
          "name": "_timelockOwner",
          "type": "address"
        },
        {
          "components": [
            {
              "components": [
                {
                  "components": [
                    {
                      "internalType": "uint256",
                      "name": "pid",
                      "type": "uint256"
                    },
                    {
                      "internalType": "bool",
                      "name": "isHomeChain",
                      "type": "bool"
                    },
                    {
                      "internalType": "bool",
                      "name": "isFarmable",
                      "type": "bool"
                    }
                  ],
                  "internalType": "struct IVault.VaultConfig",
                  "name": "config",
                  "type": "tuple"
                },
                {
                  "components": [
                    {
                      "internalType": "address",
                      "name": "govAddress",
                      "type": "address"
                    },
                    {
                      "internalType": "address",
                      "name": "zorroControllerAddress",
                      "type": "address"
                    },
                    {
                      "internalType": "address",
                      "name": "zorroXChainController",
                      "type": "address"
                    },
                    {
                      "internalType": "address",
                      "name": "ZORROAddress",
                      "type": "address"
                    },
                    {
                      "internalType": "address",
                      "name": "zorroStakingVault",
                      "type": "address"
                    },
                    {
                      "internalType": "address",
                      "name": "wantAddress",
                      "type": "address"
                    },
                    {
                      "internalType": "address",
                      "name": "token0Address",
                      "type": "address"
                    },
                    {
                      "internalType": "address",
                      "name": "token1Address",
                      "type": "address"
                    },
                    {
                      "internalType": "address",
                      "name": "earnedAddress",
                      "type": "address"
                    },
                    {
                      "internalType": "address",
                      "name": "farmContractAddress",
                      "type": "address"
                    },
                    {
                      "internalType": "address",
                      "name": "rewardsAddress",
                      "type": "address"
                    },
                    {
                      "internalType": "address",
                      "name": "poolAddress",
                      "type": "address"
                    },
                    {
                      "internalType": "address",
                      "name": "uniRouterAddress",
                      "type": "address"
                    },
                    {
                      "internalType": "address",
                      "name": "zorroLPPool",
                      "type": "address"
                    },
                    {
                      "internalType": "address",
                      "name": "zorroLPPoolOtherToken",
                      "type": "address"
                    },
                    {
                      "internalType": "address",
                      "name": "defaultStablecoin",
                      "type": "address"
                    }
                  ],
                  "internalType": "struct IVault.VaultAddresses",
                  "name": "keyAddresses",
                  "type": "tuple"
                },
                {
                  "components": [
                    {
                      "internalType": "address[]",
                      "name": "earnedToZORROPath",
                      "type": "address[]"
                    },
                    {
                      "internalType": "address[]",
                      "name": "earnedToToken0Path",
                      "type": "address[]"
                    },
                    {
                      "internalType": "address[]",
                      "name": "earnedToToken1Path",
                      "type": "address[]"
                    },
                    {
                      "internalType": "address[]",
                      "name": "stablecoinToToken0Path",
                      "type": "address[]"
                    },
                    {
                      "internalType": "address[]",
                      "name": "stablecoinToToken1Path",
                      "type": "address[]"
                    },
                    {
                      "internalType": "address[]",
                      "name": "earnedToZORLPPoolOtherTokenPath",
                      "type": "address[]"
                    },
                    {
                      "internalType": "address[]",
                      "name": "earnedToStablecoinPath",
                      "type": "address[]"
                    },
                    {
                      "internalType": "address[]",
                      "name": "stablecoinToZORROPath",
                      "type": "address[]"
                    },
                    {
                      "internalType": "address[]",
                      "name": "stablecoinToLPPoolOtherTokenPath",
                      "type": "address[]"
                    }
                  ],
                  "internalType": "struct IVault.VaultSwapPaths",
                  "name": "swapPaths",
                  "type": "tuple"
                },
                {
                  "components": [
                    {
                      "internalType": "uint256",
                      "name": "controllerFee",
                      "type": "uint256"
                    },
                    {
                      "internalType": "uint256",
                      "name": "buyBackRate",
                      "type": "uint256"
                    },
                    {
                      "internalType": "uint256",
                      "name": "revShareRate",
                      "type": "uint256"
                    },
                    {
                      "internalType": "uint256",
                      "name": "entranceFeeFactor",
                      "type": "uint256"
                    },
                    {
                      "internalType": "uint256",
                      "name": "withdrawFeeFactor",
                      "type": "uint256"
                    }
                  ],
                  "internalType": "struct IVault.VaultFees",
                  "name": "fees",
                  "type": "tuple"
                },
                {
                  "components": [
                    {
                      "internalType": "address",
                      "name": "token0PriceFeed",
                      "type": "address"
                    },
                    {
                      "internalType": "address",
                      "name": "token1PriceFeed",
                      "type": "address"
                    },
                    {
                      "internalType": "address",
                      "name": "earnTokenPriceFeed",
                      "type": "address"
                    },
                    {
                      "internalType": "address",
                      "name": "ZORPriceFeed",
                      "type": "address"
                    },
                    {
                      "internalType": "address",
                      "name": "lpPoolOtherTokenPriceFeed",
                      "type": "address"
                    },
                    {
                      "internalType": "address",
                      "name": "stablecoinPriceFeed",
                      "type": "address"
                    }
                  ],
                  "internalType": "struct IVault.VaultPriceFeeds",
                  "name": "priceFeeds",
                  "type": "tuple"
                }
              ],
              "internalType": "struct IVault.VaultBaseInit",
              "name": "baseInit",
              "type": "tuple"
            },
            {
              "internalType": "uint256",
              "name": "targetBorrowLimit",
              "type": "uint256"
            },
            {
              "internalType": "uint256",
              "name": "targetBorrowLimitHysteresis",
              "type": "uint256"
            },
            {
              "internalType": "address",
              "name": "comptrollerAddress",
              "type": "address"
            }
          ],
          "internalType": "struct IVaultLending.VaultLendingInit",
          "name": "_initValue",
          "type": "tuple"
        }
      ],
      "name": "initialize",
      "outputs": [],
      "stateMutability": "nonpayable",
      "type": "function"
    },
    {
      "inputs": [],
      "name": "isFarmable",
      "outputs": [
        {
          "internalType": "bool",
          "name": "",
          "type": "bool"
        }
      ],
      "stateMutability": "view",
      "type": "function"
    },
    {
      "inputs": [],
      "name": "isHomeChain",
      "outputs": [
        {
          "internalType": "bool",
          "name": "",
          "type": "bool"
        }
      ],
      "stateMutability": "view",
      "type": "function"
    },
    {
      "inputs": [],
      "name": "lastEarnBlock",
      "outputs": [
        {
          "internalType": "uint256",
          "name": "",
          "type": "uint256"
        }
      ],
      "stateMutability": "view",
      "type": "function"
    },
    {
      "inputs": [],
      "name": "maxMarketMovementAllowed",
      "outputs": [
        {
          "internalType": "uint256",
          "name": "",
          "type": "uint256"
        }
      ],
      "stateMutability": "view",
      "type": "function"
    },
    {
      "inputs": [],
      "name": "onlyGov",
      "outputs": [
        {
          "internalType": "bool",
          "name": "",
          "type": "bool"
        }
      ],
      "stateMutability": "view",
      "type": "function"
    },
    {
      "inputs": [],
      "name": "owner",
      "outputs": [
        {
          "internalType": "address",
          "name": "",
          "type": "address"
        }
      ],
      "stateMutability": "view",
      "type": "function"
    },
    {
      "inputs": [],
      "name": "pause",
      "outputs": [],
      "stateMutability": "nonpayable",
      "type": "function"
    },
    {
      "inputs": [],
      "name": "paused",
      "outputs": [
        {
          "internalType": "bool",
          "name": "",
          "type": "bool"
        }
      ],
      "stateMutability": "view",
      "type": "function"
    },
    {
      "inputs": [],
      "name": "pid",
      "outputs": [
        {
          "internalType": "uint256",
          "name": "",
          "type": "uint256"
        }
      ],
      "stateMutability": "view",
      "type": "function"
    },
    {
      "inputs": [],
      "name": "poolAddress",
      "outputs": [
        {
          "internalType": "address",
          "name": "",
          "type": "address"
        }
      ],
      "stateMutability": "view",
      "type": "function"
    },
    {
      "inputs": [
        {
          "internalType": "address",
          "name": "",
          "type": "address"
        }
      ],
      "name": "priceFeeds",
      "outputs": [
        {
          "internalType": "contract AggregatorV3Interface",
          "name": "",
          "type": "address"
        }
      ],
      "stateMutability": "view",
      "type": "function"
    },
    {
      "inputs": [],
      "name": "renounceOwnership",
      "outputs": [],
      "stateMutability": "nonpayable",
      "type": "function"
    },
    {
      "inputs": [],
      "name": "revShareRate",
      "outputs": [
        {
          "internalType": "uint256",
          "name": "",
          "type": "uint256"
        }
      ],
      "stateMutability": "view",
      "type": "function"
    },
    {
      "inputs": [],
      "name": "revShareRateUL",
      "outputs": [
        {
          "internalType": "uint256",
          "name": "",
          "type": "uint256"
        }
      ],
      "stateMutability": "view",
      "type": "function"
    },
    {
      "inputs": [],
      "name": "rewardsAddress",
      "outputs": [
        {
          "internalType": "address",
          "name": "",
          "type": "address"
        }
      ],
      "stateMutability": "view",
      "type": "function"
    },
    {
      "inputs": [
        {
          "internalType": "address",
          "name": "_comptroller",
          "type": "address"
        }
      ],
      "name": "setComptrollerAddress",
      "outputs": [],
      "stateMutability": "nonpayable",
      "type": "function"
    },
    {
      "inputs": [
        {
          "internalType": "uint16",
          "name": "_index",
          "type": "uint16"
        },
        {
          "internalType": "address",
          "name": "_addr",
          "type": "address"
        }
      ],
      "name": "setContractAddress",
      "outputs": [],
      "stateMutability": "nonpayable",
      "type": "function"
    },
    {
      "inputs": [
        {
          "internalType": "uint256",
          "name": "_entranceFeeFactor",
          "type": "uint256"
        },
        {
          "internalType": "uint256",
          "name": "_withdrawFeeFactor",
          "type": "uint256"
        },
        {
          "internalType": "uint256",
          "name": "_controllerFee",
          "type": "uint256"
        },
        {
          "internalType": "uint256",
          "name": "_buyBackRate",
          "type": "uint256"
        },
        {
          "internalType": "uint256",
          "name": "_revShareRate",
          "type": "uint256"
        }
      ],
      "name": "setFeeSettings",
      "outputs": [],
      "stateMutability": "nonpayable",
      "type": "function"
    },
    {
      "inputs": [
        {
          "internalType": "address",
          "name": "_govAddress",
          "type": "address"
        }
      ],
      "name": "setGov",
      "outputs": [],
      "stateMutability": "nonpayable",
      "type": "function"
    },
    {
      "inputs": [
        {
          "internalType": "bool",
          "name": "_isFarmable",
          "type": "bool"
        }
      ],
      "name": "setIsFarmable",
      "outputs": [],
      "stateMutability": "nonpayable",
      "type": "function"
    },
    {
      "inputs": [
        {
          "internalType": "uint256",
          "name": "_slippageNumerator",
          "type": "uint256"
        }
      ],
      "name": "setMaxMarketMovementAllowed",
      "outputs": [],
      "stateMutability": "nonpayable",
      "type": "function"
    },
    {
      "inputs": [
        {
          "internalType": "bool",
          "name": "_onlyGov",
          "type": "bool"
        }
      ],
      "name": "setOnlyGov",
      "outputs": [],
      "stateMutability": "nonpayable",
      "type": "function"
    },
    {
      "inputs": [
        {
          "internalType": "uint256",
          "name": "_pid",
          "type": "uint256"
        }
      ],
      "name": "setPid",
      "outputs": [],
      "stateMutability": "nonpayable",
      "type": "function"
    },
    {
      "inputs": [
        {
          "internalType": "address",
          "name": "_token",
          "type": "address"
        },
        {
          "internalType": "address",
          "name": "_priceFeedAddress",
          "type": "address"
        }
      ],
      "name": "setPriceFeed",
      "outputs": [],
      "stateMutability": "nonpayable",
      "type": "function"
    },
    {
      "inputs": [
        {
          "internalType": "address[]",
          "name": "_path",
          "type": "address[]"
        }
      ],
      "name": "setSwapPaths",
      "outputs": [],
      "stateMutability": "nonpayable",
      "type": "function"
    },
    {
      "inputs": [
        {
          "internalType": "uint256",
          "name": "_targetBorrowLimit",
          "type": "uint256"
        },
        {
          "internalType": "uint256",
          "name": "_hysteresis",
          "type": "uint256"
        }
      ],
      "name": "setTargetBorrowLimits",
      "outputs": [],
      "stateMutability": "nonpayable",
      "type": "function"
    },
    {
      "inputs": [],
      "name": "sharesTotal",
      "outputs": [
        {
          "internalType": "uint256",
          "name": "",
          "type": "uint256"
        }
      ],
      "stateMutability": "view",
      "type": "function"
    },
    {
      "inputs": [
        {
          "internalType": "address",
          "name": "",
          "type": "address"
        },
        {
          "internalType": "address",
          "name": "",
          "type": "address"
        }
      ],
      "name": "swapPathLength",
      "outputs": [
        {
          "internalType": "uint16",
          "name": "",
          "type": "uint16"
        }
      ],
      "stateMutability": "view",
      "type": "function"
    },
    {
      "inputs": [
        {
          "internalType": "address",
          "name": "",
          "type": "address"
        },
        {
          "internalType": "address",
          "name": "",
          "type": "address"
        },
        {
          "internalType": "uint256",
          "name": "",
          "type": "uint256"
        }
      ],
      "name": "swapPaths",
      "outputs": [
        {
          "internalType": "address",
          "name": "",
          "type": "address"
        }
      ],
      "stateMutability": "view",
      "type": "function"
    },
    {
      "inputs": [],
      "name": "targetBorrowLimit",
      "outputs": [
        {
          "internalType": "uint256",
          "name": "",
          "type": "uint256"
        }
      ],
      "stateMutability": "view",
      "type": "function"
    },
    {
      "inputs": [],
      "name": "targetBorrowLimitHysteresis",
      "outputs": [
        {
          "internalType": "uint256",
          "name": "",
          "type": "uint256"
        }
      ],
      "stateMutability": "view",
      "type": "function"
    },
    {
      "inputs": [],
      "name": "token0Address",
      "outputs": [
        {
          "internalType": "address",
          "name": "",
          "type": "address"
        }
      ],
      "stateMutability": "view",
      "type": "function"
    },
    {
      "inputs": [],
      "name": "token1Address",
      "outputs": [
        {
          "internalType": "address",
          "name": "",
          "type": "address"
        }
      ],
      "stateMutability": "view",
      "type": "function"
    },
    {
      "inputs": [
        {
          "internalType": "address",
          "name": "newOwner",
          "type": "address"
        }
      ],
      "name": "transferOwnership",
      "outputs": [],
      "stateMutability": "nonpayable",
      "type": "function"
    },
    {
      "inputs": [],
      "name": "unpause",
      "outputs": [],
      "stateMutability": "nonpayable",
      "type": "function"
    },
    {
      "inputs": [],
      "name": "vaultActions",
      "outputs": [
        {
          "internalType": "address",
          "name": "",
          "type": "address"
        }
      ],
      "stateMutability": "view",
      "type": "function"
    },
    {
      "inputs": [],
      "name": "wantAddress",
      "outputs": [
        {
          "internalType": "address",
          "name": "",
          "type": "address"
        }
      ],
      "stateMutability": "view",
      "type": "function"
    },
    {
      "inputs": [],
      "name": "wantLockedTotal",
      "outputs": [
        {
          "internalType": "uint256",
          "name": "",
          "type": "uint256"
        }
      ],
      "stateMutability": "view",
      "type": "function"
    },
    {
      "inputs": [],
      "name": "wantTokenLockedAdj",
      "outputs": [
        {
          "internalType": "uint256",
          "name": "amtLocked",
          "type": "uint256"
        }
      ],
      "stateMutability": "nonpayable",
      "type": "function"
    },
    {
      "inputs": [],
      "name": "withdrawFeeFactor",
      "outputs": [
        {
          "internalType": "uint256",
          "name": "",
          "type": "uint256"
        }
      ],
      "stateMutability": "view",
      "type": "function"
    },
    {
      "inputs": [],
      "name": "withdrawFeeFactorLL",
      "outputs": [
        {
          "internalType": "uint256",
          "name": "",
          "type": "uint256"
        }
      ],
      "stateMutability": "view",
      "type": "function"
    },
    {
      "inputs": [
        {
          "internalType": "uint256",
          "name": "_wantAmt",
          "type": "uint256"
        }
      ],
      "name": "withdrawWantToken",
      "outputs": [
        {
          "internalType": "uint256",
          "name": "sharesRemoved",
          "type": "uint256"
        }
      ],
      "stateMutability": "nonpayable",
      "type": "function"
    },
    {
      "inputs": [],
      "name": "zorroControllerAddress",
      "outputs": [
        {
          "internalType": "address",
          "name": "",
          "type": "address"
        }
      ],
      "stateMutability": "view",
      "type": "function"
    },
    {
      "inputs": [],
      "name": "zorroLPPool",
      "outputs": [
        {
          "internalType": "address",
          "name": "",
          "type": "address"
        }
      ],
      "stateMutability": "view",
      "type": "function"
    },
    {
      "inputs": [],
      "name": "zorroLPPoolOtherToken",
      "outputs": [
        {
          "internalType": "address",
          "name": "",
          "type": "address"
        }
      ],
      "stateMutability": "view",
      "type": "function"
    },
    {
      "inputs": [],
      "name": "zorroStakingVault",
      "outputs": [
        {
          "internalType": "address",
          "name": "",
          "type": "address"
        }
      ],
      "stateMutability": "view",
      "type": "function"
    },
    {
      "inputs": [],
      "name": "zorroXChainController",
      "outputs": [
        {
          "internalType": "address",
          "name": "",
          "type": "address"
        }
      ],
      "stateMutability": "view",
      "type": "function"
    }
  ],
  "bytecode": "0x608060405234801561001057600080fd5b50614909806100206000396000f3fe608060405234801561001057600080fd5b506004361061040b5760003560e060020a90048063715018a611610224578063b61bb80a11610134578063e7a03679116100bc578063f05c09b31161008b578063f05c09b31461085e578063f10684541461086b578063f2fde38b14610874578063f5046a2914610887578063fee50a581461089a57600080fd5b8063e7a0367914610823578063ebfba7c414610836578063ed89b0d814610849578063edf5e5851461085157600080fd5b8063cfad57a211610103578063cfad57a2146107c4578063d7cb416f146107d7578063e502a88d146107ea578063e65a0117146107fd578063e71984741461081057600080fd5b8063b61bb80a1461078b578063c0973eed1461079e578063c302a4d0146106e9578063c9e2362a146107b157600080fd5b8063866b2018116101b75780639fc33a9f116101865780639fc33a9f1461073f578063a0985ba114610752578063a4d2b08314610765578063b1414dbb14610778578063b3545c011461041057600080fd5b8063866b2018146106e95780638da5cb5b146106f257806393efb7e4146107035780639dcb511a1461071657600080fd5b80637ff36fbe116101f35780637ff36fbe146106b257806383f01939146106c55780638456cb59146106d857806385f02dd6146106e057600080fd5b8063715018a6146106715780637153ef861461067957806376e112861461068c5780637bf604d81461069f57600080fd5b80633214471f1161031f5780635c975abb116102b257806367206d401161028157806367206d401461061c578063677379e51461062f57806368bde41f1461064257806368f541621461065557806370d5ae051461065e57600080fd5b80635c975abb146105d85780635e835270146105e35780635fc77d43146105f6578063648794a41461060957600080fd5b806342da4eb3116102ee57806342da4eb31461059b57806344a3955e146105a457806346008a07146105ad57806355ebedec146105c557600080fd5b80633214471f14610579578063333f98fd1461058257806336e9332d1461058b5780633f4ba83a1461059357600080fd5b80631334903f116103a25780631b0d8aab116103715780631b0d8aab146104fe578063211019d7146104105780632209b59e146105115780632337b0b114610524578063320d47cc1461056657600080fd5b80631334903f146104b85780631755ff21146104c1578063178a8d07146104ec578063180b0d7e146104f557600080fd5b80630bb953e5116103de5780630bb953e51461045d5780630daef321146104665780630fa4e01e1461049c57806312bc4b9b146104a557600080fd5b8063061c7d48146104105780630761a1721461042c57806307df6047146104355780630b6bb30b1461044a575b600080fd5b61041961138881565b6040519081526020015b60405180910390f35b61041960e75481565b610448610443366004613841565b6108ad565b005b61044861045836600461388f565b610bc2565b61041960e95481565b60cb5461048c907501000000000000000000000000000000000000000000900460ff1681565b6040519015158152602001610423565b61041960e15481565b6104486104b3366004613a42565b610c70565b61041960df5481565b60d9546104d490600160a060020a031681565b604051600160a060020a039091168152602001610423565b61041960dd5481565b61041961271081565b61044861050c366004613a77565b610ca9565b61041961051f366004613a77565b610cdb565b610553610532366004613a90565b60e560209081526000928352604080842090915290825290205461ffff1681565b60405161ffff9091168152602001610423565b610448610574366004613a77565b610e57565b61041960de5481565b61041960e85481565b610448610e89565b610448610ec3565b61041960e25481565b61041960e35481565b60cb546104d4906101009004600160a060020a031681565b6104196105d3366004613a77565b610eff565b60975460ff1661048c565b6104d46105f1366004613aae565b611133565b60cd546104d490600160a060020a031681565b610419610617366004613aef565b611178565b61044861062a366004613b11565b611335565b60d0546104d490600160a060020a031681565b60ea546104d490600160a060020a031681565b61041960e05481565b60d7546104d490600160a060020a031681565b610448611442565b610448610687366004613b53565b611479565b61044861069a366004613a90565b61176d565b60da546104d490600160a060020a031681565b60d2546104d490600160a060020a031681565b6104486106d336600461388f565b6117a4565b6104486117e4565b61041960dc5481565b61041961232881565b603354600160a060020a03166104d4565b610448610711366004614001565b61181e565b6104d4610724366004614051565b60e660205260009081526040902054600160a060020a031681565b60d5546104d490600160a060020a031681565b610448610760366004614051565b611cfb565b60cf546104d490600160a060020a031681565b60cc546104d490600160a060020a031681565b60d6546104d490600160a060020a031681565b60d8546104d490600160a060020a031681565b6104486107bf366004613aef565b611d4a565b6104486107d2366004614051565b611d8b565b60d3546104d490600160a060020a031681565b6104196107f8366004613aef565b611e20565b61044861080b366004613a77565b611f9c565b60d4546104d490600160a060020a031681565b60d1546104d490600160a060020a031681565b60db546104d490600160a060020a031681565b610419612521565b60c95461048c9060ff1681565b60cb5461048c9060ff1681565b61041960ca5481565b610448610882366004614051565b6125c7565b60ce546104d490600160a060020a031681565b6104486108a836600461406e565b61267c565b603354600160a060020a031633146108e35760405160e560020a62461bcd0281526004016108da9061411a565b60405180910390fd5b61ffff821661090b5760d28054600160a060020a031916600160a060020a0383161790555050565b8161ffff16600114156109375760d38054600160a060020a031916600160a060020a0383161790555050565b8161ffff16600214156109635760d68054600160a060020a031916600160a060020a0383161790555050565b8161ffff166003141561098f5760ce8054600160a060020a031916600160a060020a0383161790555050565b8161ffff16600414156109bb5760d18054600160a060020a031916600160a060020a0383161790555050565b8161ffff16600514156109e75760d98054600160a060020a031916600160a060020a0383161790555050565b8161ffff1660061415610a135760d48054600160a060020a031916600160a060020a0383161790555050565b8161ffff1660071415610a3f5760d58054600160a060020a031916600160a060020a0383161790555050565b8161ffff1660081415610a6b5760d88054600160a060020a031916600160a060020a0383161790555050565b8161ffff1660091415610a975760d78054600160a060020a031916600160a060020a0383161790555050565b8161ffff16600a1415610ac35760da8054600160a060020a031916600160a060020a0383161790555050565b8161ffff16600b1415610aef5760db8054600160a060020a031916600160a060020a0383161790555050565b8161ffff16600c1415610b1b5760cc8054600160a060020a031916600160a060020a0383161790555050565b8161ffff16600d1415610b475760cd8054600160a060020a031916600160a060020a0383161790555050565b8161ffff16600e1415610b735760cf8054600160a060020a031916600160a060020a0383161790555050565b60405160e560020a62461bcd02815260206004820152601160248201527f757265636f67436f6e747261637449647800000000000000000000000000000060448201526064016108da565b5050565b60cb546101009004600160a060020a03163314610bf45760405160e560020a62461bcd0281526004016108da9061414f565b60cb805482151575010000000000000000000000000000000000000000000275ff000000000000000000000000000000000000000000199091161790556040517f125177ac7b8930dac1e59c2b30b1b6b9191b30af40cf6bbb5d20fec4d44be60f90610c6590831515815260200190565b60405180910390a150565b603354600160a060020a03163314610c9d5760405160e560020a62461bcd0281526004016108da9061411a565b610ca681612733565b50565b603354600160a060020a03163314610cd65760405160e560020a62461bcd0281526004016108da9061411a565b60ca55565b60cc54600090600160a060020a031633600160a060020a031614610d145760405160e560020a62461bcd0281526004016108da90614186565b60026065541415610d3a5760405160e560020a62461bcd0281526004016108da906141bd565b600260655560975460ff1615610d655760405160e560020a62461bcd0281526004016108da906141f4565b60008211610db85760405160e560020a62461bcd02815260206004820152601e60248201527f57616e7420746f6b656e206465706f736974206d757374206265203e2030000060448201526064016108da565b60d154610dd090600160a060020a03163330856127f6565b819050600060e254118015610de75750600060e354115b15610e235761271060e254610dfc9190614244565b60df5460e354610e0c9085614244565b610e169190614244565b610e209190614263565b90505b8060e354610e319190614288565b60e35560e254610e42908390614288565b60e255610e4d6128ad565b6001606555919050565b603354600160a060020a03163314610e845760405160e560020a62461bcd0281526004016108da9061411a565b60e755565b60026065541415610eaf5760405160e560020a62461bcd0281526004016108da906141bd565b6002606555610ebc6128ad565b6001606555565b60cb546101009004600160a060020a03163314610ef55760405160e560020a62461bcd0281526004016108da9061414f565b610efd6128bf565b565b60cc54600090600160a060020a031633600160a060020a031614610f385760405160e560020a62461bcd0281526004016108da90614186565b60026065541415610f5e5760405160e560020a62461bcd0281526004016108da906141bd565b600260655560975460ff1615610f895760405160e560020a62461bcd0281526004016108da906141f4565b60008211610fdc5760405160e560020a62461bcd02815260206004820152600760248201527f6e656757616e740000000000000000000000000000000000000000000000000060448201526064016108da565b60e25460e354610fec9084614244565b610ff69190614263565b905060e354811115611007575060e3545b8060e35461101591906142a0565b60e35560e05461271011156110425761271060e054836110359190614244565b61103f9190614263565b91505b60cb5460ff1615611056576110568261295e565b60d1546040517f70a08231000000000000000000000000000000000000000000000000000000008152306004820152600091600160a060020a0316906370a0823190602401602060405180830381865afa1580156110b8573d6000803e3d6000fd5b505050506040513d601f19601f820116820180604052508101906110dc91906142b7565b9050808311156110ea578092505b8260e25410156110fa5760e25492505b8260e25461110891906142a0565b60e25560cc5460d15461112891600160a060020a039182169116856129dd565b506001606555919050565b60e4602052826000526040600020602052816000526040600020818154811061115b57600080fd5b600091825260209091200154600160a060020a0316925083915050565b60cc54600090600160a060020a031633600160a060020a0316146111b15760405160e560020a62461bcd0281526004016108da90614186565b60975460ff16156111d75760405160e560020a62461bcd0281526004016108da906141f4565b60d05460d1546111f491600160a060020a03918216911685612a26565b60d0546040805160c08101825260d254600160a060020a0390811680835260d6548216602080850182905260d954841685870152600083815260e680835287822054861660608801528382528252868120548516608087015292835260e48152858320918352908152908490208054855181840281018401909652808652929095169463cce33c179489949360a08501939192918301828280156112c157602002820191906000526020600020905b8154600160a060020a031681526001909101906020018083116112a3575b5050505050815250856040518463ffffffff1660e060020a0281526004016112eb93929190614314565b6020604051808303816000875af115801561130a573d6000803e3d6000fd5b505050506040513d601f19601f8201168201806040525081019061132e91906142b7565b9392505050565b60cb546101009004600160a060020a031633146113675760405160e560020a62461bcd0281526004016108da9061414f565b60d454600160a060020a03848116911614156113c85760405160e560020a62461bcd02815260206004820152600560248201527f217361666500000000000000000000000000000000000000000000000000000060448201526064016108da565b60d154600160a060020a03848116911614156114295760405160e560020a62461bcd02815260206004820152600560248201527f217361666500000000000000000000000000000000000000000000000000000060448201526064016108da565b61143d600160a060020a03841682846129dd565b505050565b603354600160a060020a0316331461146f5760405160e560020a62461bcd0281526004016108da9061411a565b610efd6000612b0a565b60cb546101009004600160a060020a031633146114ab5760405160e560020a62461bcd0281526004016108da9061414f565b6123288510156115005760405160e560020a62461bcd02815260206004820152601a60248201527f5f656e7472616e6365466565466163746f7220746f6f206c6f7700000000000060448201526064016108da565b6127108511156115555760405160e560020a62461bcd02815260206004820152601b60248201527f5f656e7472616e6365466565466163746f7220746f6f2068696768000000000060448201526064016108da565b60df8590556123288410156115af5760405160e560020a62461bcd02815260206004820152601a60248201527f5f7769746864726177466565466163746f7220746f6f206c6f7700000000000060448201526064016108da565b6127108411156116045760405160e560020a62461bcd02815260206004820152601b60248201527f5f7769746864726177466565466163746f7220746f6f2068696768000000000060448201526064016108da565b60e084905561138883111561165e5760405160e560020a62461bcd02815260206004820152601760248201527f5f636f6e74726f6c6c657246656520746f6f206869676800000000000000000060448201526064016108da565b60dc8390556113888211156116b85760405160e560020a62461bcd02815260206004820152601560248201527f5f6275794261636b5261746520746f6f2068696768000000000000000000000060448201526064016108da565b60dd8290556113888111156117125760405160e560020a62461bcd02815260206004820152601660248201527f5f72657653686172655261746520746f6f20686967680000000000000000000060448201526064016108da565b60de819055604080518681526020810186905290810184905260608101839052608081018290527fc67e0b149a57a70fa44a531a46c2c6d8e0b242fa12f459f250012c3a5987d29a9060a00160405180910390a15050505050565b603354600160a060020a0316331461179a5760405160e560020a62461bcd0281526004016108da9061411a565b610bbe8282612b5c565b603354600160a060020a031633146117d15760405160e560020a62461bcd0281526004016108da9061411a565b60cb805460ff1916911515919091179055565b60cb546101009004600160a060020a031633146118165760405160e560020a62461bcd0281526004016108da9061414f565b610efd612b8a565b600054610100900460ff166118395760005460ff161561183d565b303b155b61185c5760405160e560020a62461bcd0281526004016108da9061438e565b600054610100900460ff1615801561187e576000805461ffff19166101011790555b611886612be5565b61188f836125c7565b8151805160ca5560208082015160c9805460ff191691151591909117905560409182015160cb8054838701518051750100000000000000000000000000000000000000000074ffffffffffffffffffffffffffffffffffffffffff1990931694151574ffffffffffffffffffffffffffffffffffffffff00191694909417610100600160a060020a0395861681029190911775ff0000000000000000000000000000000000000000001916929092179092558184015160cc8054600160a060020a03199081169286169290921790558286015160cd8054831691861691909117905560608084015160ce8054841691871691909117905560808085015160cf8054851691881691909117905560a085015160d18054851691881691909117905560c085015160d28054851691881691909117905560e08086015160d3805486169189169190911790559385015160d48054851691881691909117905561012085015160d58054851691881691909117905561014085015160d88054851691881691909117905561016085015160d9805485169188169190911790556101a085015160da805485169188169190911790556101c085015160db805485169188169190911790556101e09094015160d68054909316951694909417905582870151805160dc559384015160dd558385015160de559183015160df559190910151905582015151611a9c90612733565b611aad826040015160200151612733565b611abe826040015160400151612733565b611acf826040015160600151612733565b611ae0826040015160800151612733565b611af1826040015160a00151612733565b611b02826040015160c00151612733565b611b13826040015160e00151612733565b611b2582604001516101000151612733565b60d0546040808401516060015190517f8b4c5aee000000000000000000000000000000000000000000000000000000008152611bc292600160a060020a031691638b4c5aee91611b7891906004016143eb565b600060405180830381865afa158015611b95573d6000803e3d6000fd5b505050506040513d6000823e601f3d908101601f19168201604052611bbd9190810190614438565b612733565b60d0546040808401516080015190517f8b4c5aee000000000000000000000000000000000000000000000000000000008152611c1592600160a060020a031691638b4c5aee91611b7891906004016143eb565b60d254608083015151611c3191600160a060020a031690612b5c565b60d354608083015160200151611c5091600160a060020a031690612b5c565b60d454608083015160400151611c6f91600160a060020a031690612b5c565b60db546080808401510151611c8d91600160a060020a031690612b5c565b60ce54608083015160600151611cac91600160a060020a031690612b5c565b60d654608083015160a00151611ccb91600160a060020a031690612b5c565b60d78054600160a060020a03191661dead1790556103d960e755801561143d576000805461ff0019169055505050565b603354600160a060020a03163314611d285760405160e560020a62461bcd0281526004016108da9061411a565b60ea8054600160a060020a031916600160a060020a0392909216919091179055565b603354600160a060020a03163314611d775760405160e560020a62461bcd0281526004016108da9061411a565b60e882905560e9819055610bbe6000612c17565b60cb546101009004600160a060020a03163314611dbd5760405160e560020a62461bcd0281526004016108da9061414f565b60cb805474ffffffffffffffffffffffffffffffffffffffff001916610100600160a060020a038416908102919091179091556040519081527f91a8c1cc2d4a3bb60738481947a00cbb9899c822916694cf8bb1d68172fdcd5490602001610c65565b60cc54600090600160a060020a031633600160a060020a031614611e595760405160e560020a62461bcd0281526004016108da90614186565b60975460ff1615611e7f5760405160e560020a62461bcd0281526004016108da906141f4565b60d05460d654611e9c91600160a060020a03918216911685612a26565b60d0546040805160e08101825260d254600160a060020a0390811680835260d6548216602080850182905260ce5484168587015260d95484166060860152600083815260e68083528782205486166080880152838252825286812054851660a087015291825260e481528582209282529182528490208054855181840281018401909652808652929095169463a27815d29489949360c0850193919291830182828015611f7257602002820191906000526020600020905b8154600160a060020a03168152600190910190602001808311611f54575b5050505050815250856040518463ffffffff1660e060020a0281526004016112eb939291906144c4565b60026065541415611fc25760405160e560020a62461bcd0281526004016108da906141bd565b600260655560975460ff1615611fed5760405160e560020a62461bcd0281526004016108da906141f4565b60cb547501000000000000000000000000000000000000000000900460ff16156120435760cb546101009004600160a060020a031633146120435760405160e560020a62461bcd0281526004016108da9061414f565b61204d600061295e565b60d4546040517f70a08231000000000000000000000000000000000000000000000000000000008152306004820152600091600160a060020a0316906370a0823190602401602060405180830381865afa1580156120af573d6000803e3d6000fd5b505050506040513d601f19601f820116820180604052508101906120d391906142b7565b9050600081116121285760405160e560020a62461bcd02815260206004820152600560248201527f306561726e00000000000000000000000000000000000000000000000000000060448201526064016108da565b60d05460d45461214591600160a060020a03918216911683612a26565b60d054604080516102408101825260d454600160a060020a0390811680835260ce548216602080850182905260d85484168587015260d65484166060860181905260cf548516608087015260db54851660a0870181905260d154861660c0880152600085815260e680855289822054881660e08a01528582528085528982205488166101008a0152918152818452888120548716610120890152918252825286812054851661014087015292835260e4815285832091835290815284822080548651818402810184019097528087529296879694169463fdd5b2839489948b94929361016085019390919083018282801561226957602002820191906000526020600020905b8154600160a060020a0316815260019091019060200180831161224b575b505050918352505060d454600160a060020a03908116600090815260e46020908152604080832060db5490941683529281529082902080548351818402810184019094528084529382019390918301828280156122ef57602002820191906000526020600020905b8154600160a060020a031681526001909101906020018083116122d1575b505050918352505060d454600160a060020a03908116600090815260e46020908152604080832060d654909416835292815290829020805483518184028101840190945280845293820193909183018282801561237557602002820191906000526020600020905b8154600160a060020a03168152600190910190602001808311612357575b5050505050815260200161271060dc546127106123929190614244565b61239c9190614263565b61ffff16815260200161271060dd546127106123b89190614244565b6123c29190614263565b61ffff16815260200161271060de546127106123de9190614244565b6123e89190614263565b61ffff16815260c95460ff16151560209091015260405160e060020a63ffffffff861602815261241d9392919060040161455b565b6060604051808303816000875af115801561243c573d6000803e3d6000fd5b505050506040513d601f19601f82011682018060405250810190612460919061474d565b925092505060008211806124745750600081115b1561250a5760cd5460ca546040517f464e3c8b0000000000000000000000000000000000000000000000000000000081526004810191909152602481018490526044810183905260648101869052600160a060020a039091169063464e3c8b90608401600060405180830381600087803b1580156124f157600080fd5b505af1158015612505573d6000803e3d6000fd5b505050505b4360e1556125166128ad565b505060016065555050565b60d05460d25460d9546040517f44a393f3000000000000000000000000000000000000000000000000000000008152306004820152600160a060020a039283166024820152908216604482015260009291909116906344a393f3906064016020604051808303816000875af115801561259e573d6000803e3d6000fd5b505050506040513d601f19601f820116820180604052508101906125c291906142b7565b905090565b603354600160a060020a031633146125f45760405160e560020a62461bcd0281526004016108da9061411a565b600160a060020a0381166126735760405160e560020a62461bcd02815260206004820152602660248201527f4f776e61626c653a206e6577206f776e657220697320746865207a65726f206160448201527f646472657373000000000000000000000000000000000000000000000000000060648201526084016108da565b610ca681612b0a565b600054610100900460ff166126975760005460ff161561269b565b303b155b6126ba5760405160e560020a62461bcd0281526004016108da9061438e565b600054610100900460ff161580156126dc576000805461ffff19166101011790555b602082015160e855604082015160e955606082015160ea8054600160a060020a031916600160a060020a03909216919091179055815161271d90849061181e565b801561143d576000805461ff0019169055505050565b6000816000815181106127485761274861477b565b602002602001015190506000826001845161276391906142a0565b815181106127735761277361477b565b602090810291909101810151600160a060020a03808516600090815260e48452604080822092841682529184522085519193506127b5929091908601906137a2565b509151600160a060020a03918216600090815260e56020908152604080832094909516825292909252919020805461ffff191661ffff909216919091179055565b604051600160a060020a03808516602483015283166044820152606481018290526128a79085907f23b872dd00000000000000000000000000000000000000000000000000000000906084015b60408051601f198184030181529190526020810180517bffffffffffffffffffffffffffffffffffffffffffffffffffffffff167fffffffff000000000000000000000000000000000000000000000000000000009093169290921790915261321a565b50505050565b6128b5613302565b610efd6000612c17565b60975460ff166129145760405160e560020a62461bcd02815260206004820152601460248201527f5061757361626c653a206e6f742070617573656400000000000000000000000060448201526064016108da565b6097805460ff191690557f5db9ee0a495bf2e6ff9c91a7834c1ba4fdd244a5e8aa4e537bd38aeae4b073aa335b604051600160a060020a03909116815260200160405180910390a1565b60d5546040517fe9af0292000000000000000000000000000000000000000000000000000000008152306004820152600160a060020a039091169063e9af029290602401600060405180830381600087803b1580156129bc57600080fd5b505af11580156129d0573d6000803e3d6000fd5b50505050610ca681613456565b604051600160a060020a03831660248201526044810182905261143d9084907fa9059cbb0000000000000000000000000000000000000000000000000000000090606401612843565b6040517fdd62ed3e000000000000000000000000000000000000000000000000000000008152306004820152600160a060020a038381166024830152600091839186169063dd62ed3e90604401602060405180830381865afa158015612a90573d6000803e3d6000fd5b505050506040513d601f19601f82011682018060405250810190612ab491906142b7565b612abe9190614288565b604051600160a060020a0385166024820152604481018290529091506128a79085907f095ea7b30000000000000000000000000000000000000000000000000000000090606401612843565b60338054600160a060020a03838116600160a060020a0319831681179093556040519116919082907f8be0079c531659141344cd1fd0a4f28419497f9722a3daafe3b4186f6b6457e090600090a35050565b600160a060020a03918216600090815260e6602052604090208054600160a060020a03191691909216179055565b60975460ff1615612bb05760405160e560020a62461bcd0281526004016108da906141f4565b6097805460ff191660011790557f62e78cea01bee320cd4e420270b5ea74000d11b0c9f74754ebdbfc544b05a2586129413390565b600054610100900460ff16612c0f5760405160e560020a62461bcd0281526004016108da90614794565b610efd6135cd565b60d9546040517f3af9e669000000000000000000000000000000000000000000000000000000008152306004820152600091600160a060020a031690633af9e669906024016020604051808303816000875af1158015612c7b573d6000803e3d6000fd5b505050506040513d601f19601f82011682018060405250810190612c9f91906142b7565b905080612caa575050565b808210612cbf57612cbc6001826142a0565b91505b60d05460ea5460d95460e8546040517fc1612d0e0000000000000000000000000000000000000000000000000000000081526004810187905260248101869052600160a060020a039384166044820152918316606483015260848201526000928392839283928392839291169063c1612d0e9060a40160c0604051808303816000875af1158015612d54573d6000803e3d6000fd5b505050506040513d601f19601f82011682018060405250810190612d7891906147f1565b9550955095509550955095508282108015612d9d575060e954612d9b83856142a0565b115b15612ee45760d0546040517f7b592b57000000000000000000000000000000000000000000000000000000008152600481018890526024810187905260448101899052606481018690526084810185905260a48101839052600091600160a060020a031690637b592b579060c401602060405180830381865afa158015612e28573d6000803e3d6000fd5b505050506040513d601f19601f82011682018060405250810190612e4c91906142b7565b60d9546040517fc5ebeaec00000000000000000000000000000000000000000000000000000000815260048101839052919250600160a060020a03169063c5ebeaec906024016020604051808303816000875af1158015612eb1573d6000803e3d6000fd5b505050506040513d601f19601f82011682018060405250810190612ed591906142b7565b50612ede613302565b50613210565b8282118015612efd575060e954612efb84846142a0565b115b156132105760d0546040517ffd30c376000000000000000000000000000000000000000000000000000000008152600481018890526024810187905260448101899052606481018690526084810185905260a48101839052600091600160a060020a03169063fd30c3769060c401602060405180830381865afa158015612f88573d6000803e3d6000fd5b505050506040513d601f19601f82011682018060405250810190612fac91906142b7565b60d9546040517f852a12e300000000000000000000000000000000000000000000000000000000815260048101839052919250600160a060020a03169063852a12e3906024016020604051808303816000875af1158015613011573d6000803e3d6000fd5b505050506040513d601f19601f8201168201806040525081019061303591906142b7565b156130855760405160e560020a62461bcd02815260206004820152600a60248201527f726562616c206661696c0000000000000000000000000000000000000000000060448201526064016108da565b61308f81896142a0565b97508789106130a6576130a36001896142a0565b98505b6130b089896142a0565b9650858111156130bd5750845b60d95460d1546130da91600160a060020a03918216911683612a26565b60d9546040517f0e75270200000000000000000000000000000000000000000000000000000000815260048101839052600160a060020a0390911690630e752702906024016020604051808303816000875af115801561313e573d6000803e3d6000fd5b505050506040513d601f19601f8201168201806040525081019061316291906142b7565b5061316d81876142a0565b95508661318287670de0b6b3a7640000614244565b61318c9190614263565b925060d960009054906101000a9004600160a060020a0316600160a060020a0316633b1d21a26040518163ffffffff1660e060020a028152600401602060405180830381865afa1580156131e4573d6000803e3d6000fd5b505050506040513d601f19601f8201168201806040525081019061320891906142b7565b915050612ee4565b5050505050505050565b600061326f826040518060400160405280602081526020017f5361666545524332303a206c6f772d6c6576656c2063616c6c206661696c656481525085600160a060020a03166136009092919063ffffffff16565b80519091501561143d578080602001905181019061328d919061483b565b61143d5760405160e560020a62461bcd02815260206004820152602a60248201527f5361666545524332303a204552433230206f7065726174696f6e20646964206e60448201527f6f7420737563636565640000000000000000000000000000000000000000000060648201526084016108da565b60975460ff16156133285760405160e560020a62461bcd0281526004016108da906141f4565b60d1546040517f70a08231000000000000000000000000000000000000000000000000000000008152306004820152600091600160a060020a0316906370a0823190602401602060405180830381865afa15801561338a573d6000803e3d6000fd5b505050506040513d601f19601f820116820180604052508101906133ae91906142b7565b60d95460d1549192506133ce91600160a060020a03908116911683612a26565b60d9546040517fa0712d6800000000000000000000000000000000000000000000000000000000815260048101839052600160a060020a039091169063a0712d68906024016020604051808303816000875af1158015613432573d6000803e3d6000fd5b505050506040513d601f19601f82011682018060405250810190610bbe91906142b7565b61345f81612c17565b60d9546040517f3af9e669000000000000000000000000000000000000000000000000000000008152306004820152600091600160a060020a031690633af9e669906024016020604051808303816000875af11580156134c3573d6000803e3d6000fd5b505050506040513d601f19601f820116820180604052508101906134e791906142b7565b9050808211156134f5578091505b60d9546040517f852a12e300000000000000000000000000000000000000000000000000000000815260048101849052600160a060020a039091169063852a12e3906024016020604051808303816000875af1158015613559573d6000803e3d6000fd5b505050506040513d601f19601f8201168201806040525081019061357d91906142b7565b15610bbe5760405160e560020a62461bcd02815260206004820152601c60248201527f5f7769746864726177536f6d653a2072656465656d206661696c65640000000060448201526064016108da565b600054610100900460ff166135f75760405160e560020a62461bcd0281526004016108da90614794565b610efd33612b0a565b606061360f8484600085613617565b949350505050565b606030318311156136935760405160e560020a62461bcd02815260206004820152602660248201527f416464726573733a20696e73756666696369656e742062616c616e636520666f60448201527f722063616c6c000000000000000000000000000000000000000000000000000060648201526084016108da565b600160a060020a0385163b6136ed5760405160e560020a62461bcd02815260206004820152601d60248201527f416464726573733a2063616c6c20746f206e6f6e2d636f6e747261637400000060448201526064016108da565b60008086600160a060020a031685876040516137099190614884565b60006040518083038185875af1925050503d8060008114613746576040519150601f19603f3d011682016040523d82523d6000602084013e61374b565b606091505b509150915061375b828286613766565b979650505050505050565b6060831561377557508161132e565b8251156137855782518084602001fd5b8160405160e560020a62461bcd0281526004016108da91906148a0565b8280548282559060005260206000209081019282156137f7579160200282015b828111156137f75782518254600160a060020a031916600160a060020a039091161782556020909201916001909101906137c2565b50613803929150613807565b5090565b5b808211156138035760008155600101613808565b600160a060020a0381168114610ca657600080fd5b803561383c8161381c565b919050565b6000806040838503121561385457600080fd5b823561ffff8116811461386657600080fd5b915060208301356138768161381c565b809150509250929050565b8015158114610ca657600080fd5b6000602082840312156138a157600080fd5b813561132e81613881565b60e060020a634e487b7102600052604160045260246000fd5b604051610200810167ffffffffffffffff811182821017156138e9576138e96138ac565b60405290565b604051610120810167ffffffffffffffff811182821017156138e9576138e96138ac565b60405160a0810167ffffffffffffffff811182821017156138e9576138e96138ac565b6040516060810167ffffffffffffffff811182821017156138e9576138e96138ac565b6040516080810167ffffffffffffffff811182821017156138e9576138e96138ac565b604051601f8201601f1916810167ffffffffffffffff811182821017156139a5576139a56138ac565b604052919050565b600067ffffffffffffffff8211156139c7576139c76138ac565b5060209081020190565b600082601f8301126139e257600080fd5b813560206139f76139f2836139ad565b61397c565b82815291810284018101918181019086841115613a1357600080fd5b8286015b84811015613a37578035613a2a8161381c565b8352918301918301613a17565b509695505050505050565b600060208284031215613a5457600080fd5b813567ffffffffffffffff811115613a6b57600080fd5b61360f848285016139d1565b600060208284031215613a8957600080fd5b5035919050565b60008060408385031215613aa357600080fd5b82356138668161381c565b600080600060608486031215613ac357600080fd5b8335613ace8161381c565b92506020840135613ade8161381c565b929592945050506040919091013590565b60008060408385031215613b0257600080fd5b50508035926020909101359150565b600080600060608486031215613b2657600080fd5b8335613b318161381c565b9250602084013591506040840135613b488161381c565b809150509250925092565b600080600080600060a08688031215613b6b57600080fd5b505083359560208501359550604085013594606081013594506080013592509050565b60006102008284031215613ba157600080fd5b613ba96138c5565b9050613bb482613831565b8152613bc260208301613831565b6020820152613bd360408301613831565b6040820152613be460608301613831565b6060820152613bf560808301613831565b6080820152613c0660a08301613831565b60a0820152613c1760c08301613831565b60c0820152613c2860e08301613831565b60e0820152610100613c3b818401613831565b90820152610120613c4d838201613831565b90820152610140613c5f838201613831565b90820152610160613c71838201613831565b90820152610180613c83838201613831565b908201526101a0613c95838201613831565b908201526101c0613ca7838201613831565b908201526101e0613cb9838201613831565b9082015292915050565b60006101208284031215613cd657600080fd5b613cde6138ef565b9050813567ffffffffffffffff80821115613cf857600080fd5b613d04858386016139d1565b83526020840135915080821115613d1a57600080fd5b613d26858386016139d1565b60208401526040840135915080821115613d3f57600080fd5b613d4b858386016139d1565b60408401526060840135915080821115613d6457600080fd5b613d70858386016139d1565b60608401526080840135915080821115613d8957600080fd5b613d95858386016139d1565b608084015260a0840135915080821115613dae57600080fd5b613dba858386016139d1565b60a084015260c0840135915080821115613dd357600080fd5b613ddf858386016139d1565b60c084015260e0840135915080821115613df857600080fd5b613e04858386016139d1565b60e084015261010091508184013581811115613e1f57600080fd5b613e2b868287016139d1565b8385015250505092915050565b600060a08284031215613e4a57600080fd5b613e52613913565b9050813581526020820135602082015260408201356040820152606082013560608201526080820135608082015292915050565b600060c08284031215613e9857600080fd5b60405160c0810181811067ffffffffffffffff82111715613ebb57613ebb6138ac565b6040529050808235613ecc8161381c565b81526020830135613edc8161381c565b60208201526040830135613eef8161381c565b60408201526060830135613f028161381c565b60608201526080830135613f158161381c565b608082015260a0830135613f288161381c565b60a0919091015292915050565b60008183036103e0811215613f4957600080fd5b613f51613913565b91506060811215613f6157600080fd5b50613f6a613936565b823581526020830135613f7c81613881565b60208201526040830135613f8f81613881565b60408201528152613fa38360608401613b8e565b602082015261026082013567ffffffffffffffff811115613fc357600080fd5b613fcf84828501613cc3565b604083015250613fe3836102808401613e38565b6060820152613ff6836103208401613e86565b608082015292915050565b6000806040838503121561401457600080fd5b823561401f8161381c565b9150602083013567ffffffffffffffff81111561403b57600080fd5b61404785828601613f35565b9150509250929050565b60006020828403121561406357600080fd5b813561132e8161381c565b6000806040838503121561408157600080fd5b823561408c8161381c565b9150602083013567ffffffffffffffff808211156140a957600080fd5b90840190608082870312156140bd57600080fd5b6140c5613959565b8235828111156140d457600080fd5b6140e088828601613f35565b8252506020830135602082015260408301356040820152606083013592506141078361381c565b8260608201528093505050509250929050565b6020808252818101527f4f776e61626c653a2063616c6c6572206973206e6f7420746865206f776e6572604082015260600190565b60208082526004908201527f21676f7600000000000000000000000000000000000000000000000000000000604082015260600190565b60208082526010908201527f217a6f72726f436f6e74726f6c6c657200000000000000000000000000000000604082015260600190565b6020808252601f908201527f5265656e7472616e637947756172643a207265656e7472616e742063616c6c00604082015260600190565b60208082526010908201527f5061757361626c653a2070617573656400000000000000000000000000000000604082015260600190565b60e060020a634e487b7102600052601160045260246000fd5b600081600019048311821515161561425e5761425e61422b565b500290565b6000826142835760e060020a634e487b7102600052601260045260246000fd5b500490565b6000821982111561429b5761429b61422b565b500190565b6000828210156142b2576142b261422b565b500390565b6000602082840312156142c957600080fd5b5051919050565b600081518084526020808501945080840160005b83811015614309578151600160a060020a0316875295820195908201906001016142e4565b509495945050505050565b838152606060208201526000600160a060020a038085511660608401528060208601511660808401528060408601511660a08401528060608601511660c08401528060808601511660e08401525060a084015160c061010084015261437d6101208401826142d0565b915050826040830152949350505050565b6020808252602e908201527f496e697469616c697a61626c653a20636f6e747261637420697320616c72656160408201527f647920696e697469616c697a6564000000000000000000000000000000000000606082015260800190565b6020808252825182820181905260009190848201906040850190845b8181101561442c578351600160a060020a031683529284019291840191600101614407565b50909695505050505050565b6000602080838503121561444b57600080fd5b825167ffffffffffffffff81111561446257600080fd5b8301601f8101851361447357600080fd5b80516144816139f2826139ad565b8181529083028201830190838101908783111561449d57600080fd5b928401925b8284101561375b5783516144b58161381c565b825292840192908401906144a2565b838152606060208201526000600160a060020a038085511660608401528060208601511660808401528060408601511660a084015250606084015161451460c0840182600160a060020a03169052565b506080840151600160a060020a03811660e08401525060a0840151600160a060020a0381166101008401525060c084015160e061012084015261437d6101408401826142d0565b83815282602082015260606040820152614581606082018351600160a060020a03169052565b6000602083015161459d6080840182600160a060020a03169052565b506040830151600160a060020a03811660a0840152506060830151600160a060020a03811660c0840152506080830151600160a060020a03811660e08401525060a08301516101006145f981850183600160a060020a03169052565b60c0850151915061012061461781860184600160a060020a03169052565b60e0860151925061014061463581870185600160a060020a03169052565b9186015192506101609161465386840185600160a060020a03169052565b9086015192506101809061467186830185600160a060020a03169052565b86015192506101a061468d86820185600160a060020a03169052565b82870151935061024092506101c083818801526146ae6102a08801866142d0565b9450828801519250605f196101e08189880301818a01526146cf87866142d0565b9650838a0151945061020093508189880301848a01526146ef87866142d0565b9650828a01519450610220925061470b838a018661ffff169052565b89015161ffff8116868a015293506147209050565b9087015161ffff1661026087015286015180151561028087015291506147439050565b5095945050505050565b60008060006060848603121561476257600080fd5b8351925060208401519150604084015190509250925092565b60e060020a634e487b7102600052603260045260246000fd5b6020808252602b908201527f496e697469616c697a61626c653a20636f6e7472616374206973206e6f74206960408201527f6e697469616c697a696e67000000000000000000000000000000000000000000606082015260800190565b60008060008060008060c0878903121561480a57600080fd5b865195506020870151945060408701519350606087015192506080870151915060a087015190509295509295509295565b60006020828403121561484d57600080fd5b815161132e81613881565b60005b8381101561487357818101518382015260200161485b565b838111156128a75750506000910152565b60008251614896818460208701614858565b9190910192915050565b60208152600082518060208401526148bf816040850160208701614858565b601f01601f1916919091016040019291505056fea2646970667358221220897355612f96ff7510804e5a34d461d0025028a2446c46408099edad0dede5b064736f6c634300080a0033",
  "immutableReferences": {},
  "source": "// SPDX-License-Identifier: MIT\n\npragma solidity ^0.8.0;\n\nimport \"./_VaultLending.sol\";\n\nimport \"../interfaces/ApeLending/IRainMaker.sol\";\n\n/// @title Vault contract for ApeLending leveraged lending strategies\ncontract VaultApeLending is VaultLending {\n    /* Functions */\n\n    /// @notice Claims unclaimed rewards from lending protocols\n    /// @param _amount Amount to unfarm\n    function _unfarm(uint256 _amount) internal override {\n        // Claim any outstanding rewards\n        IRainMaker(farmContractAddress).claimComp(address(this));\n\n        // TODO: Based on the new logic, we should probably be convering the earn to want. \n\n        // Withdraw appropriate amount\n        _withdrawSome(_amount);\n\n        // TODO: Need to re-supply/rebalance after (farm())? Check Acryptos\n    }\n}\n\ncontract VaultApeLendingETH is VaultApeLending {}\n",
  "sourcePath": "/Users/kristophm/Documents/workspace/zorro-protocol/contracts/vaults/VaultApeLending.sol",
  "compiler": {
    "name": "solc",
    "version": "0.8.10+commit.fc410830.Emscripten.clang"
  },
  "schemaVersion": "3.4.10",
  "updatedAt": "2022-11-26T23:10:35.208Z",
  "devdoc": {
    "kind": "dev",
    "methods": {
      "depositWantToken(uint256)": {
        "params": {
          "_wantAmt": "amount of underlying token to deposit/stake"
        },
        "returns": {
          "sharesAdded": "uint256 Number of shares added"
        }
      },
      "earn(uint256)": {
        "params": {
          "_maxMarketMovementAllowed": "The max slippage allowed. 1000 = 0 %, 995 = 0.5%, etc."
        }
      },
      "exchangeUSDForWantToken(uint256,uint256)": {
        "params": {
          "_amountUSD": "The USD quantity to exchange (must already be deposited)",
          "_maxMarketMovementAllowed": "The max slippage allowed. 1000 = 0 %, 995 = 0.5%, etc."
        },
        "returns": {
          "_0": "uint256 Amount of Want token obtained"
        }
      },
      "exchangeWantTokenForUSD(uint256,uint256)": {
        "params": {
          "_amount": "The Want token quantity to exchange (must be deposited beforehand)",
          "_maxMarketMovementAllowed": "The max slippage allowed for swaps. 1000 = 0 %, 995 = 0.5%, etc."
        },
        "returns": {
          "_0": "uint256 Amount of USD token obtained"
        }
      },
      "inCaseTokensGetStuck(address,uint256,address)": {
        "params": {
          "_amount": "The amount of the tokens to transfer",
          "_to": "The address to transfer tokens to",
          "_token": "Address of the ERC20 token to transfer"
        }
      },
      "initialize(address,(((uint256,bool,bool),(address,address,address,address,address,address,address,address,address,address,address,address,address,address,address,address),(address[],address[],address[],address[],address[],address[],address[],address[],address[]),(uint256,uint256,uint256,uint256,uint256),(address,address,address,address,address,address)),uint256,uint256,address))": {
        "params": {
          "_initValue": "A VaultAlpacaInit struct containing all init values",
          "_timelockOwner": "The designated timelock controller address to act as owner"
        }
      },
      "owner()": {
        "details": "Returns the address of the current owner."
      },
      "paused()": {
        "details": "Returns true if the contract is paused, and false otherwise."
      },
      "renounceOwnership()": {
        "details": "Leaves the contract without owner. It will not be possible to call `onlyOwner` functions anymore. Can only be called by the current owner. NOTE: Renouncing ownership will leave the contract without an owner, thereby removing any functionality that is only available to the owner."
      },
      "setFeeSettings(uint256,uint256,uint256,uint256,uint256)": {
        "params": {
          "_buyBackRate": "Buy back rate fee numerator",
          "_controllerFee": "Controller fee numerator",
          "_entranceFeeFactor": "Entrance fee numerator (higher means smaller percentage)",
          "_revShareRate": "Rev share rate fee numerator",
          "_withdrawFeeFactor": "Withdrawal fee numerator (higher means smaller percentage)"
        }
      },
      "setGov(address)": {
        "params": {
          "_govAddress": "The new gov address"
        }
      },
      "setOnlyGov(bool)": {
        "params": {
          "_onlyGov": "whether onlyGov should be enforced"
        }
      },
      "transferOwnership(address)": {
        "details": "Transfers ownership of the contract to a new account (`newOwner`). Can only be called by the current owner."
      },
      "wantTokenLockedAdj()": {
        "returns": {
          "amtLocked": "The adjusted wantLockedTotal quantity"
        }
      },
      "withdrawWantToken(uint256)": {
        "params": {
          "_wantAmt": "The amount of Want token to withdraw"
        },
        "returns": {
          "sharesRemoved": "The number of shares removed"
        }
      }
    },
    "title": "Vault contract for ApeLending leveraged lending strategies",
    "version": 1
  },
  "userdoc": {
    "kind": "user",
    "methods": {
      "depositWantToken(uint256)": {
        "notice": "Receives new deposits from user"
      },
      "earn(uint256)": {
        "notice": "The main compounding (earn) function. Reinvests profits since the last earn event."
      },
      "exchangeUSDForWantToken(uint256,uint256)": {
        "notice": "Performs necessary operations to convert USD into Want token"
      },
      "exchangeWantTokenForUSD(uint256,uint256)": {
        "notice": "Converts Want token back into USD to be ready for withdrawal and transfers to sender"
      },
      "farm()": {
        "notice": "Public function for farming Want token."
      },
      "inCaseTokensGetStuck(address,uint256,address)": {
        "notice": "Safely transfer ERC20 tokens stuck in this contract to a specified address"
      },
      "initialize(address,(((uint256,bool,bool),(address,address,address,address,address,address,address,address,address,address,address,address,address,address,address,address),(address[],address[],address[],address[],address[],address[],address[],address[],address[]),(uint256,uint256,uint256,uint256,uint256),(address,address,address,address,address,address)),uint256,uint256,address))": {
        "notice": "Upgradeable constructor"
      },
      "pause()": {
        "notice": "Pause contract"
      },
      "setFeeSettings(uint256,uint256,uint256,uint256,uint256)": {
        "notice": "Configure key fee parameters"
      },
      "setGov(address)": {
        "notice": "Set governor address"
      },
      "setOnlyGov(bool)": {
        "notice": "Set onlyGov property"
      },
      "unpause()": {
        "notice": "Unpause contract"
      },
      "wantTokenLockedAdj()": {
        "notice": "Calc want token locked, accounting for leveraged supply/borrow"
      },
      "withdrawWantToken(uint256)": {
        "notice": "Fully withdraw Want tokens from the Farm contract (100% withdrawals only)"
      }
    },
    "version": 1
  }
}