{
  "contractName": "VaultActionsBenqiLending",
  "abi": [
    {
      "anonymous": false,
      "inputs": [
        {
          "indexed": true,
          "internalType": "uint256",
          "name": "wantRemaining",
          "type": "uint256"
        },
        {
          "indexed": true,
          "internalType": "uint256",
          "name": "xChainBuybackAmt",
          "type": "uint256"
        },
        {
          "indexed": true,
          "internalType": "uint256",
          "name": "xChainRevShareAmt",
          "type": "uint256"
        }
      ],
      "name": "DistributedEarnings",
      "type": "event"
    },
    {
      "anonymous": false,
      "inputs": [
        {
          "indexed": true,
          "internalType": "address",
          "name": "previousOwner",
          "type": "address"
        },
        {
          "indexed": true,
          "internalType": "address",
          "name": "newOwner",
          "type": "address"
        }
      ],
      "name": "OwnershipTransferred",
      "type": "event"
    },
    {
      "inputs": [],
      "name": "burnAddress",
      "outputs": [
        {
          "internalType": "address",
          "name": "",
          "type": "address"
        }
      ],
      "stateMutability": "view",
      "type": "function"
    },
    {
      "inputs": [
        {
          "internalType": "uint256",
          "name": "_x",
          "type": "uint256"
        },
        {
          "internalType": "uint256",
          "name": "_y",
          "type": "uint256"
        },
        {
          "internalType": "uint256",
          "name": "_ox",
          "type": "uint256"
        },
        {
          "internalType": "uint256",
          "name": "_c",
          "type": "uint256"
        },
        {
          "internalType": "uint256",
          "name": "_targetLeverage",
          "type": "uint256"
        },
        {
          "internalType": "uint256",
          "name": "_liquidityAvailable",
          "type": "uint256"
        }
      ],
      "name": "calcIncBorrowAboveTarget",
      "outputs": [
        {
          "internalType": "uint256",
          "name": "dy",
          "type": "uint256"
        }
      ],
      "stateMutability": "pure",
      "type": "function"
    },
    {
      "inputs": [
        {
          "internalType": "uint256",
          "name": "_x",
          "type": "uint256"
        },
        {
          "internalType": "uint256",
          "name": "_y",
          "type": "uint256"
        },
        {
          "internalType": "uint256",
          "name": "_ox",
          "type": "uint256"
        },
        {
          "internalType": "uint256",
          "name": "_c",
          "type": "uint256"
        },
        {
          "internalType": "uint256",
          "name": "_targetLeverage",
          "type": "uint256"
        },
        {
          "internalType": "uint256",
          "name": "_liquidityAvailable",
          "type": "uint256"
        }
      ],
      "name": "calcIncBorrowBelowTarget",
      "outputs": [
        {
          "internalType": "uint256",
          "name": "dy",
          "type": "uint256"
        }
      ],
      "stateMutability": "pure",
      "type": "function"
    },
    {
      "inputs": [
        {
          "internalType": "address",
          "name": "_vaultAddr",
          "type": "address"
        }
      ],
      "name": "currentWantEquity",
      "outputs": [
        {
          "internalType": "uint256",
          "name": "positionVal",
          "type": "uint256"
        }
      ],
      "stateMutability": "view",
      "type": "function"
    },
    {
      "inputs": [
        {
          "internalType": "uint256",
          "name": "_amount",
          "type": "uint256"
        },
        {
          "internalType": "uint256",
          "name": "_maxMarketMovementAllowed",
          "type": "uint256"
        },
        {
          "components": [
            {
              "internalType": "address",
              "name": "ZORROAddress",
              "type": "address"
            },
            {
              "internalType": "address",
              "name": "treasury",
              "type": "address"
            },
            {
              "internalType": "address",
              "name": "stablecoin",
              "type": "address"
            },
            {
              "internalType": "address",
              "name": "zorroStakingVault",
              "type": "address"
            },
            {
              "internalType": "address",
              "name": "zorroLPPoolOtherToken",
              "type": "address"
            },
            {
              "internalType": "contract AggregatorV3Interface",
              "name": "ZORPriceFeed",
              "type": "address"
            },
            {
              "internalType": "contract AggregatorV3Interface",
              "name": "lpPoolOtherTokenPriceFeed",
              "type": "address"
            },
            {
              "internalType": "contract AggregatorV3Interface",
              "name": "stablecoinPriceFeed",
              "type": "address"
            },
            {
              "internalType": "address[]",
              "name": "stablecoinToZORROPath",
              "type": "address[]"
            },
            {
              "internalType": "address[]",
              "name": "stablecoinToZORLPPoolOtherTokenPath",
              "type": "address[]"
            },
            {
              "internalType": "uint16",
              "name": "controllerFeeBP",
              "type": "uint16"
            },
            {
              "internalType": "uint16",
              "name": "buybackBP",
              "type": "uint16"
            },
            {
              "internalType": "uint16",
              "name": "revShareBP",
              "type": "uint16"
            },
            {
              "internalType": "bool",
              "name": "isHomeChain",
              "type": "bool"
            }
          ],
          "internalType": "struct IVaultActions.DistributeEarningsParams",
          "name": "_params",
          "type": "tuple"
        }
      ],
      "name": "distributeAndReinvestEarnings",
      "outputs": [
        {
          "internalType": "uint256",
          "name": "wantRemaining",
          "type": "uint256"
        },
        {
          "internalType": "uint256",
          "name": "xChainBuybackAmt",
          "type": "uint256"
        },
        {
          "internalType": "uint256",
          "name": "xChainRevShareAmt",
          "type": "uint256"
        }
      ],
      "stateMutability": "nonpayable",
      "type": "function"
    },
    {
      "inputs": [
        {
          "internalType": "uint256",
          "name": "_amountUSD",
          "type": "uint256"
        },
        {
          "internalType": "uint256",
          "name": "_maxMarketMovementAllowed",
          "type": "uint256"
        }
      ],
      "name": "exchangeUSDForWantToken",
      "outputs": [
        {
          "internalType": "uint256",
          "name": "wantObtained",
          "type": "uint256"
        }
      ],
      "stateMutability": "nonpayable",
      "type": "function"
    },
    {
      "inputs": [
        {
          "internalType": "uint256",
          "name": "_amount",
          "type": "uint256"
        },
        {
          "internalType": "uint256",
          "name": "_maxMarketMovementAllowed",
          "type": "uint256"
        }
      ],
      "name": "exchangeWantTokenForUSD",
      "outputs": [
        {
          "internalType": "uint256",
          "name": "usdObtained",
          "type": "uint256"
        }
      ],
      "stateMutability": "nonpayable",
      "type": "function"
    },
    {
      "inputs": [
        {
          "internalType": "uint256",
          "name": "_amountLP",
          "type": "uint256"
        },
        {
          "internalType": "uint256",
          "name": "_maxMarketMovementAllowed",
          "type": "uint256"
        },
        {
          "internalType": "address",
          "name": "_recipient",
          "type": "address"
        },
        {
          "components": [
            {
              "internalType": "address",
              "name": "token0",
              "type": "address"
            },
            {
              "internalType": "address",
              "name": "token1",
              "type": "address"
            },
            {
              "internalType": "address",
              "name": "poolAddress",
              "type": "address"
            },
            {
              "internalType": "address",
              "name": "lpTokenAddress",
              "type": "address"
            }
          ],
          "internalType": "struct IVaultActions.ExitPoolParams",
          "name": "_exitPoolParams",
          "type": "tuple"
        }
      ],
      "name": "exitPool",
      "outputs": [],
      "stateMutability": "nonpayable",
      "type": "function"
    },
    {
      "inputs": [
        {
          "internalType": "address",
          "name": "_uniRouterAddress",
          "type": "address"
        }
      ],
      "name": "initialize",
      "outputs": [],
      "stateMutability": "nonpayable",
      "type": "function"
    },
    {
      "inputs": [
        {
          "internalType": "address",
          "name": "_token0",
          "type": "address"
        },
        {
          "internalType": "address",
          "name": "_token1",
          "type": "address"
        },
        {
          "internalType": "uint256",
          "name": "_token0Amt",
          "type": "uint256"
        },
        {
          "internalType": "uint256",
          "name": "_token1Amt",
          "type": "uint256"
        },
        {
          "internalType": "uint256",
          "name": "_maxMarketMovementAllowed",
          "type": "uint256"
        },
        {
          "internalType": "address",
          "name": "_recipient",
          "type": "address"
        }
      ],
      "name": "joinPool",
      "outputs": [],
      "stateMutability": "nonpayable",
      "type": "function"
    },
    {
      "inputs": [
        {
          "internalType": "uint256",
          "name": "_withdrawAmt",
          "type": "uint256"
        },
        {
          "internalType": "uint256",
          "name": "_ox",
          "type": "uint256"
        },
        {
          "internalType": "address",
          "name": "_comptrollerAddress",
          "type": "address"
        },
        {
          "internalType": "address",
          "name": "_poolAddress",
          "type": "address"
        },
        {
          "internalType": "uint256",
          "name": "_targetBorrowLimit",
          "type": "uint256"
        }
      ],
      "name": "levLendingParams",
      "outputs": [
        {
          "internalType": "uint256",
          "name": "x",
          "type": "uint256"
        },
        {
          "internalType": "uint256",
          "name": "y",
          "type": "uint256"
        },
        {
          "internalType": "uint256",
          "name": "c",
          "type": "uint256"
        },
        {
          "internalType": "uint256",
          "name": "targetL",
          "type": "uint256"
        },
        {
          "internalType": "uint256",
          "name": "currentL",
          "type": "uint256"
        },
        {
          "internalType": "uint256",
          "name": "liquidityAvailable",
          "type": "uint256"
        }
      ],
      "stateMutability": "nonpayable",
      "type": "function"
    },
    {
      "inputs": [],
      "name": "owner",
      "outputs": [
        {
          "internalType": "address",
          "name": "",
          "type": "address"
        }
      ],
      "stateMutability": "view",
      "type": "function"
    },
    {
      "inputs": [],
      "name": "renounceOwnership",
      "outputs": [],
      "stateMutability": "nonpayable",
      "type": "function"
    },
    {
      "inputs": [
        {
          "internalType": "address[]",
          "name": "_path",
          "type": "address[]"
        }
      ],
      "name": "reversePath",
      "outputs": [
        {
          "internalType": "address[]",
          "name": "newPath",
          "type": "address[]"
        }
      ],
      "stateMutability": "pure",
      "type": "function"
    },
    {
      "inputs": [
        {
          "components": [
            {
              "internalType": "uint256",
              "name": "amountIn",
              "type": "uint256"
            },
            {
              "internalType": "uint256",
              "name": "priceToken0",
              "type": "uint256"
            },
            {
              "internalType": "uint256",
              "name": "priceToken1",
              "type": "uint256"
            },
            {
              "internalType": "address",
              "name": "token0",
              "type": "address"
            },
            {
              "internalType": "address",
              "name": "token1",
              "type": "address"
            },
            {
              "internalType": "uint256",
              "name": "maxMarketMovementAllowed",
              "type": "uint256"
            },
            {
              "internalType": "address[]",
              "name": "path",
              "type": "address[]"
            },
            {
              "internalType": "address",
              "name": "destination",
              "type": "address"
            }
          ],
          "internalType": "struct SafeSwapUni.SafeSwapParams",
          "name": "_swapParams",
          "type": "tuple"
        }
      ],
      "name": "safeSwap",
      "outputs": [],
      "stateMutability": "nonpayable",
      "type": "function"
    },
    {
      "inputs": [
        {
          "internalType": "address",
          "name": "_burnAddress",
          "type": "address"
        }
      ],
      "name": "setBurnAddress",
      "outputs": [],
      "stateMutability": "nonpayable",
      "type": "function"
    },
    {
      "inputs": [
        {
          "internalType": "address",
          "name": "_uniRouterAddress",
          "type": "address"
        }
      ],
      "name": "setUniRouterAddress",
      "outputs": [],
      "stateMutability": "nonpayable",
      "type": "function"
    },
    {
      "inputs": [
        {
          "internalType": "address",
          "name": "newOwner",
          "type": "address"
        }
      ],
      "name": "transferOwnership",
      "outputs": [],
      "stateMutability": "nonpayable",
      "type": "function"
    },
    {
      "inputs": [],
      "name": "uniRouterAddress",
      "outputs": [
        {
          "internalType": "address",
          "name": "",
          "type": "address"
        }
      ],
      "stateMutability": "view",
      "type": "function"
    },
    {
      "inputs": [
        {
          "internalType": "address",
          "name": "_vaultAddr",
          "type": "address"
        }
      ],
      "name": "unrealizedProfits",
      "outputs": [
        {
          "internalType": "uint256",
          "name": "accumulatedProfit",
          "type": "uint256"
        },
        {
          "internalType": "uint256",
          "name": "harvestableProfit",
          "type": "uint256"
        }
      ],
      "stateMutability": "view",
      "type": "function"
    },
    {
      "inputs": [
        {
          "internalType": "address",
          "name": "_vault",
          "type": "address"
        },
        {
          "internalType": "address",
          "name": "_tokenAddress",
          "type": "address"
        },
        {
          "internalType": "address",
          "name": "_poolAddress",
          "type": "address"
        }
      ],
      "name": "wantTokenLockedAdj",
      "outputs": [
        {
          "internalType": "uint256",
          "name": "amtLocked",
          "type": "uint256"
        }
      ],
      "stateMutability": "nonpayable",
      "type": "function"
    },
    {
      "inputs": [
        {
          "internalType": "address",
          "name": "_comptrollerAddress",
          "type": "address"
        },
        {
          "internalType": "address",
          "name": "_poolAddress",
          "type": "address"
        }
      ],
      "name": "collateralFactor",
      "outputs": [
        {
          "internalType": "uint256",
          "name": "collFactor",
          "type": "uint256"
        }
      ],
      "stateMutability": "view",
      "type": "function"
    }
  ],
  "bytecode": "0x608060405234801561001057600080fd5b50613be1806100206000396000f3fe608060405234801561001057600080fd5b50600436106101465760003560e060020a900480637b592b57116100bc578063c1612d0e11610080578063c1612d0e146102d8578063c4d66de814610318578063e502a88d1461032b578063f2fde38b1461033e578063f55850b414610351578063fd30c3761461036457600080fd5b80637b592b57146102595780638b4c5aee1461026c5780638da5cb5b1461028c578063a0e16faf1461029d578063b9826d33146102c557600080fd5b80635da79d631161010e5780635da79d63146101bf578063648794a4146101d2578063693a090b146101e55780636945292a1461021057806370d5ae051461023e578063715018a61461025157600080fd5b80630c70c2811461014b57806312ad7eba1461016057806344a393f3146101735780634b0e72161461019957806358f5ab9f146101ac575b600080fd5b61015e6101593660046130cb565b610377565b005b61015e61016e366004613214565b6103a3565b6101866101813660046132dd565b6103cf565b6040519081526020015b60405180910390f35b61015e6101a7366004613328565b610579565b61015e6101ba366004613345565b6105de565b61015e6101cd366004613328565b61061e565b6101866101e03660046133ac565b61067a565b6065546101f890600160a060020a031681565b604051600160a060020a039091168152602001610190565b61022361021e366004613402565b6107dd565b60408051938452602084019290925290820152606001610190565b6066546101f890600160a060020a031681565b61015e6109fb565b610186610267366004613585565b610a34565b61027f61027a3660046135c8565b610adc565b6040516101909190613641565b603354600160a060020a03166101f8565b6102b06102ab366004613328565b610bb0565b60408051928352602083019190915201610190565b6101866102d3366004613654565b610d28565b6102eb6102e636600461368d565b610dbc565b604080519687526020870195909552938501929092526060840152608083015260a082015260c001610190565b61015e610326366004613328565b610f93565b6101866103393660046133ac565b611097565b61015e61034c366004613328565b611189565b61018661035f366004613328565b61123e565b610186610372366004613585565b61159b565b606081015161039190600160a060020a031633308761161d565b61039d848484846116ce565b50505050565b805160608201516103c391600160a060020a03909116903390309061161d565b6103cc816117e8565b50565b60405160e060020a6370a08231028152600160a060020a03848116600483015260009182918516906370a0823190602401602060405180830381865afa15801561041d573d6000803e3d6000fd5b505050506040513d601f19601f8201168201806040525081019061044191906136df565b6040517f3af9e669000000000000000000000000000000000000000000000000000000008152600160a060020a038781166004830152919250600091851690633af9e669906024016020604051808303816000875af11580156104a8573d6000803e3d6000fd5b505050506040513d601f19601f820116820180604052508101906104cc91906136df565b6040517f17bfdfbc000000000000000000000000000000000000000000000000000000008152600160a060020a0388811660048301529192506000918616906317bfdfbc906024016020604051808303816000875af1158015610533573d6000803e3d6000fd5b505050506040513d601f19601f8201168201806040525081019061055791906136df565b9050806105648385613711565b61056e9190613729565b979650505050505050565b603354600160a060020a031633146105af5760405160e560020a62461bcd0281526004016105a690613740565b60405180910390fd5b6066805473ffffffffffffffffffffffffffffffffffffffff1916600160a060020a0392909216919091179055565b6105f3600160a060020a03871633308761161d565b610608600160a060020a03861633308661161d565b6106168686868686866119f8565b505050505050565b603354600160a060020a0316331461064b5760405160e560020a62461bcd0281526004016105a690613740565b6065805473ffffffffffffffffffffffffffffffffffffffff1916600160a060020a0392909216919091179055565b60008083116106ce5760405160e560020a62461bcd02815260206004820152600760248201527f6e656757616e740000000000000000000000000000000000000000000000000060448201526064016105a6565b600033600160a060020a031663e7a036796040518163ffffffff1660e060020a028152600401602060405180830381865afa158015610711573d6000803e3d6000fd5b505050506040513d601f19601f820116820180604052508101906107359190613775565b9050600033600160a060020a031663b61bb80a6040518163ffffffff1660e060020a028152600401602060405180830381865afa15801561077a573d6000803e3d6000fd5b505050506040513d601f19601f8201168201806040525081019061079e9190613775565b90506107b5600160a060020a03831633308861161d565b6107bf8585611b25565b92506107d5600160a060020a0382163385611da3565b505092915050565b600080808033600160a060020a031663e7a036796040518163ffffffff1660e060020a028152600401602060405180830381865afa158015610823573d6000803e3d6000fd5b505050506040513d601f19601f820116820180604052508101906108479190613775565b9050600033600160a060020a031663b61bb80a6040518163ffffffff1660e060020a028152600401602060405180830381865afa15801561088c573d6000803e3d6000fd5b505050506040513d601f19601f820116820180604052508101906108b09190613775565b90506108c7600160a060020a03831633308b61161d565b60006108d4898989611dec565b909650945090506108f9846108e98784613729565b6108f39190613729565b89611fc6565b955061090f600160a060020a0384163388611da3565b60405160e060020a6370a08231028152306004820152600090600160a060020a038416906370a0823190602401602060405180830381865afa158015610959573d6000803e3d6000fd5b505050506040513d601f19601f8201168201806040525081019061097d91906136df565b90506109898587613711565b6109938288613792565b61099d91906137b1565b95506109a98682613729565b94506109bf600160a060020a0385163383611da3565b8486887f7b5c55b851dd95ef2956a0907221248d9f0d535431943b759d0bca1f0125520060405160405180910390a45050505093509350939050565b603354600160a060020a03163314610a285760405160e560020a62461bcd0281526004016105a690613740565b610a3260006121a4565b565b6000610a4883670de0b6b3a7640000613729565b610a5a87670de0b6b3a7640000613792565b670de0b6b3a7640000610a6d8a87613792565b610a7791906137b1565b610a819190613729565b610a8b91906137b1565b9050600086670de0b6b3a7640000610aa38789613792565b610aad91906137b1565b610ab79190613729565b905080821115610ac5578091505b82821115610ad1578291505b509695505050505050565b80516060908067ffffffffffffffff811115610afa57610afa613033565b604051908082528060200260200182016040528015610b23578160200160208202803683370190505b50915060005b818161ffff161015610ba957838161ffff1660018651610b499190613729565b610b539190613729565b81518110610b6357610b636137d6565b6020026020010151838261ffff1681518110610b8157610b816137d6565b600160a060020a0390921660209283029190910190910152610ba2816137ef565b9050610b29565b5050919050565b600080600083600160a060020a0316637a8d130f6040518163ffffffff1660e060020a028152600401602060405180830381865afa158015610bf6573d6000803e3d6000fd5b505050506040513d601f19601f82011682018060405250810190610c1a91906136df565b6040517ff55850b4000000000000000000000000000000000000000000000000000000008152600160a060020a03861660048201529091508190309063f55850b490602401602060405180830381865afa158015610c7c573d6000803e3d6000fd5b505050506040513d601f19601f82011682018060405250810190610ca091906136df565b610caa9190613729565b9250600084600160a060020a031663c86274566040518163ffffffff1660e060020a028152600401602060405180830381865afa158015610cef573d6000803e3d6000fd5b505050506040513d601f19601f82011682018060405250810190610d1391906136df565b9050610d1f8185613729565b92505050915091565b6040517f8e8f294b000000000000000000000000000000000000000000000000000000008152600160a060020a0382811660048301526000918291851690638e8f294b90602401606060405180830381865afa158015610d8c573d6000803e3d6000fd5b505050506040513d601f19601f82011682018060405250810190610db09190613811565b50925050505b92915050565b60008080808080610dcd8b8b613729565b6040517f17bfdfbc000000000000000000000000000000000000000000000000000000008152306004820152909650600160a060020a038916906317bfdfbc906024016020604051808303816000875af1158015610e2f573d6000803e3d6000fd5b505050506040513d601f19601f82011682018060405250810190610e5391906136df565b6040517fb9826d33000000000000000000000000000000000000000000000000000000008152600160a060020a03808c1660048301528a166024820152909550309063b9826d3390604401602060405180830381865afa158015610ebb573d6000803e3d6000fd5b505050506040513d601f19601f82011682018060405250810190610edf91906136df565b9350670de0b6b3a7640000610ef48886613792565b610efe91906137b1565b925085610f1386670de0b6b3a7640000613792565b610f1d91906137b1565b915087600160a060020a0316633b1d21a26040518163ffffffff1660e060020a028152600401602060405180830381865afa158015610f60573d6000803e3d6000fd5b505050506040513d601f19601f82011682018060405250810190610f8491906136df565b90509550955095509550955095565b600054610100900460ff16610fae5760005460ff1615610fb2565b303b155b6110275760405160e560020a62461bcd02815260206004820152602e60248201527f496e697469616c697a61626c653a20636f6e747261637420697320616c72656160448201527f647920696e697469616c697a656400000000000000000000000000000000000060648201526084016105a6565b600054610100900460ff16158015611049576000805461ffff19166101011790555b60658054600160a060020a03841673ffffffffffffffffffffffffffffffffffffffff19918216179091556066805490911661dead1790558015611093576000805461ff00191690555b5050565b60008033600160a060020a031663b61bb80a6040518163ffffffff1660e060020a028152600401602060405180830381865afa1580156110db573d6000803e3d6000fd5b505050506040513d601f19601f820116820180604052508101906110ff9190613775565b9050600033600160a060020a031663e7a036796040518163ffffffff1660e060020a028152600401602060405180830381865afa158015611144573d6000803e3d6000fd5b505050506040513d601f19601f820116820180604052508101906111689190613775565b905061117f600160a060020a03831633308861161d565b6107bf8585611fc6565b603354600160a060020a031633146111b65760405160e560020a62461bcd0281526004016105a690613740565b600160a060020a0381166112355760405160e560020a62461bcd02815260206004820152602660248201527f4f776e61626c653a206e6577206f776e657220697320746865207a65726f206160448201527f646472657373000000000000000000000000000000000000000000000000000060648201526084016105a6565b6103cc816121a4565b600080829050600081600160a060020a0316637ff36fbe6040518163ffffffff1660e060020a028152600401602060405180830381865afa158015611287573d6000803e3d6000fd5b505050506040513d601f19601f820116820180604052508101906112ab9190613775565b9050600082600160a060020a031663e71984746040518163ffffffff1660e060020a028152600401602060405180830381865afa1580156112f0573d6000803e3d6000fd5b505050506040513d601f19601f820116820180604052508101906113149190613775565b60405160e160020a634ee5a88d028152600160a060020a038481166004830152919250600091851690639dcb511a90602401602060405180830381865afa158015611363573d6000803e3d6000fd5b505050506040513d601f19601f820116820180604052508101906113879190613775565b60405160e160020a634ee5a88d028152600160a060020a038481166004830152919250600091861690639dcb511a90602401602060405180830381865afa1580156113d6573d6000803e3d6000fd5b505050506040513d601f19601f820116820180604052508101906113fa9190613775565b9050600085600160a060020a031663aced9a806040518163ffffffff1660e060020a028152600401602060405180830381865afa15801561143f573d6000803e3d6000fd5b505050506040513d601f19601f8201168201806040525081019061146391906136df565b86600160a060020a031663f151dd706040518163ffffffff1660e060020a028152600401602060405180830381865afa1580156114a4573d6000803e3d6000fd5b505050506040513d601f19601f820116820180604052508101906114c891906136df565b6114d29190613729565b60405160e060020a6370a08231028152600160a060020a038a811660048301529192506000918616906370a0823190602401602060405180830381865afa158015611521573d6000803e3d6000fd5b505050506040513d601f19601f8201168201806040525081019061154591906136df565b9050600061155b85600160a060020a0316612203565b61156d85600160a060020a0316612203565b6115779084613792565b61158191906137b1565b905061158d8184613711565b9a9950505050505050505050565b60006115af83670de0b6b3a7640000613729565b670de0b6b3a76400006115c28986613792565b6115cc91906137b1565b6115d69088613729565b6115e890670de0b6b3a7640000613792565b6115f291906137b1565b905060008461160988670de0b6b3a7640000613792565b61161391906137b1565b610ab79087613729565b604051600160a060020a038085166024830152831660448201526064810182905261039d9085907f23b872dd00000000000000000000000000000000000000000000000000000000906084015b60408051601f198184030181529190526020810180517bffffffffffffffffffffffffffffffffffffffffffffffffffffffff167fffffffff000000000000000000000000000000000000000000000000000000009093169290921790915261235a565b6000806116e5868460000151856040015188612442565b91506116fb868460200151856040015188612442565b606554606085015191925061171d91600160a060020a0390811691168861254a565b60655483516020850151600160a060020a039092169163baa2abde91908986868a61174a42610258613711565b60405163ffffffff891660e060020a028152600160a060020a039788166004820152958716602487015260448601949094526064850192909252608484015290921660a482015260c481019190915260e40160408051808303816000875af11580156117ba573d6000803e3d6000fd5b505050506040513d601f19601f820116820180604052508101906117de9190613849565b5050505050505050565b6065548151606083015161180a92600160a060020a039182169291169061254a565b6040805160028082526060820183526000926020830190803683370190505090508160600151600160a060020a031663313ce5676040518163ffffffff1660e060020a028152600401602060405180830381865afa158015611870573d6000803e3d6000fd5b505050506040513d601f19601f82011682018060405250810190611894919061386d565b816000815181106118a7576118a76137d6565b602002602001019060ff16908160ff16815250508160800151600160a060020a031663313ce5676040518163ffffffff1660e060020a028152600401602060405180830381865afa158015611900573d6000803e3d6000fd5b505050506040513d601f19601f82011682018060405250810190611924919061386d565b81600181518110611937576119376137d6565b60ff929092166020928302919091018201526040805160028082526060820183526000939192909183019080368337019050509050826020015181600081518110611984576119846137d6565b6020026020010181815250508260400151816001815181106119a8576119a86137d6565b6020026020010181815250506119f38360000151828560a001518660c00151868860e00151426102586119db9190613711565b606554600160a060020a03169695949392919061262e565b505050565b606554611a1290600160a060020a0388811691168661254a565b606554611a2c90600160a060020a0387811691168561254a565b606554600160a060020a031663e8e33700878787876103e8611a4e8984613792565b611a5891906137b1565b6103e8611a658a8c613792565b611a6f91906137b1565b88611a7c42610258613711565b60405163ffffffff8a1660e060020a028152600160a060020a039889166004820152968816602488015260448701959095526064860193909352608485019190915260a484015290921660c482015260e4810191909152610104016060604051808303816000875af1158015611af6573d6000803e3d6000fd5b505050506040513d601f19601f82011682018060405250810190611b1a9190613890565b505050505050505050565b600080339050600081600160a060020a031663b61bb80a6040518163ffffffff1660e060020a028152600401602060405180830381865afa158015611b6e573d6000803e3d6000fd5b505050506040513d601f19601f82011682018060405250810190611b929190613775565b9050600082600160a060020a0316637ff36fbe6040518163ffffffff1660e060020a028152600401602060405180830381865afa158015611bd7573d6000803e3d6000fd5b505050506040513d601f19601f82011682018060405250810190611bfb9190613775565b905081600160a060020a031681600160a060020a031614611d2d576040805161010081018252878152905160e160020a634ee5a88d028152600160a060020a038381166004830152611d2d92916020830191611cae9190881690639dcb511a906024015b602060405180830381865afa158015611c7c573d6000803e3d6000fd5b505050506040513d601f19601f82011682018060405250810190611ca09190613775565b600160a060020a0316612203565b815260405160e160020a634ee5a88d028152600160a060020a038681166004830152602090920191611cec9190881690639dcb511a90602401611c5f565b815260200183600160a060020a0316815260200184600160a060020a03168152602001878152602001611d1f84866127ae565b8152306020909101526117e8565b60405160e060020a6370a08231028152306004820152600160a060020a038316906370a08231906024015b602060405180830381865afa158015611d75573d6000803e3d6000fd5b505050506040513d601f19601f82011682018060405250810190611d9991906136df565b9695505050505050565b604051600160a060020a0383166024820152604481018290526119f39084907fa9059cbb000000000000000000000000000000000000000000000000000000009060640161166a565b600080600080611dfc8787611b25565b90506000611e198887604001518860200151896101400151612979565b9050600061271087610160015161ffff1684611e359190613792565b611e3f91906137b1565b9050600061271088610180015161ffff1685611e5b9190613792565b611e6591906137b1565b9050876101a0015115611f9057611f0e828a6040518061010001604052808c60400151600160a060020a031681526020018c60000151600160a060020a031681526020018c60800151600160a060020a031681526020018c610100015181526020018c610120015181526020018c60e00151600160a060020a031681526020018c60a00151600160a060020a031681526020018c60c00151600160a060020a03168152506129bc565b611f8b818a6040518060c001604052808c60400151600160a060020a031681526020018c60000151600160a060020a031681526020018c60600151600160a060020a031681526020018c610100015181526020018c60e00151600160a060020a031681526020018c60a00151600160a060020a0316815250612c47565b611f97565b8195508094505b8082611fa38587613729565b611fad9190613729565b611fb79190613729565b96505050505093509350939050565b600080339050600081600160a060020a031663b61bb80a6040518163ffffffff1660e060020a028152600401602060405180830381865afa15801561200f573d6000803e3d6000fd5b505050506040513d601f19601f820116820180604052508101906120339190613775565b9050600082600160a060020a0316637ff36fbe6040518163ffffffff1660e060020a028152600401602060405180830381865afa158015612078573d6000803e3d6000fd5b505050506040513d601f19601f8201168201806040525081019061209c9190613775565b905081600160a060020a031681600160a060020a031614612175576040805161010081018252878152905160e160020a634ee5a88d028152600160a060020a038481166004830152612175929160208301916121049190881690639dcb511a90602401611c5f565b815260405160e160020a634ee5a88d028152600160a060020a0385811660048301526020909201916121429190881690639dcb511a90602401611c5f565b815260200184600160a060020a0316815260200183600160a060020a03168152602001878152602001611d1f85856127ae565b60405160e060020a6370a08231028152306004820152600160a060020a038216906370a0823190602401611d58565b60338054600160a060020a0383811673ffffffffffffffffffffffffffffffffffffffff19831681179093556040519116919082907f8be0079c531659141344cd1fd0a4f28419497f9722a3daafe3b4186f6b6457e090600090a35050565b60008082600160a060020a031663313ce5676040518163ffffffff1660e060020a028152600401602060405180830381865afa158015612247573d6000803e3d6000fd5b505050506040513d601f19601f8201168201806040525081019061226b919061386d565b9050600083600160a060020a031663feaf968c6040518163ffffffff1660e060020a02815260040160a060405180830381865afa1580156122b0573d6000803e3d6000fd5b505050506040513d601f19601f820116820180604052508101906122d491906138d8565b505050915050600081121561232e5760405160e560020a62461bcd02815260206004820152601660248201527f6e656720707269636573206e6f7420616c6c6f7765640000000000000000000060448201526064016105a6565b61233982600a613a0f565b6123488264e8d4a51000613792565b61235291906137b1565b949350505050565b60006123af826040518060400160405280602081526020017f5361666545524332303a206c6f772d6c6576656c2063616c6c206661696c656481525085600160a060020a0316612ce49092919063ffffffff16565b8051909150156119f357808060200190518101906123cd9190613a1e565b6119f35760405160e560020a62461bcd02815260206004820152602a60248201527f5361666545524332303a204552433230206f7065726174696f6e20646964206e60448201527f6f7420737563636565640000000000000000000000000000000000000000000060648201526084016105a6565b60008083600160a060020a03166318160ddd6040518163ffffffff1660e060020a028152600401602060405180830381865afa158015612486573d6000803e3d6000fd5b505050506040513d601f19601f820116820180604052508101906124aa91906136df565b60405160e060020a6370a08231028152600160a060020a0386811660048301529192506000918716906370a0823190602401602060405180830381865afa1580156124f9573d6000803e3d6000fd5b505050506040513d601f19601f8201168201806040525081019061251d91906136df565b905061252b826103e8613792565b84612536838a613792565b6125409190613792565b61056e91906137b1565b6040517fdd62ed3e000000000000000000000000000000000000000000000000000000008152306004820152600160a060020a038381166024830152600091839186169063dd62ed3e90604401602060405180830381865afa1580156125b4573d6000803e3d6000fd5b505050506040513d601f19601f820116820180604052508101906125d891906136df565b6125e29190613711565b604051600160a060020a03851660248201526044810182905290915061039d9085907f095ea7b3000000000000000000000000000000000000000000000000000000009060640161166a565b82516002146126825760405160e560020a62461bcd02815260206004820152600b60248201527f696e76616c69642064656300000000000000000000000000000000000000000060448201526064016105a6565b600086600081518110612697576126976137d6565b6020026020010151600014806126c75750866001815181106126bb576126bb6137d6565b60200260200101516000145b156126e0576126d98989878988612cfd565b9050612724565b61272188886000815181106126f7576126f76137d6565b602002602001015189600181518110612712576127126137d6565b60200260200101518988612e04565b90505b6040517f5c11d795000000000000000000000000000000000000000000000000000000008152600160a060020a038a1690635c11d79590612771908b9085908a9089908990600401613a3b565b600060405180830381600087803b15801561278b57600080fd5b505af115801561279f573d6000803e3d6000fd5b50505050505050505050505050565b6040517f2337b0b1000000000000000000000000000000000000000000000000000000008152600160a060020a0380841660048301528216602482015260609033906000908290632337b0b190604401602060405180830381865afa15801561281b573d6000803e3d6000fd5b505050506040513d601f19601f8201168201806040525081019061283f9190613a77565b90508061ffff1667ffffffffffffffff81111561285e5761285e613033565b604051908082528060200260200182016040528015612887578160200160208202803683370190505b50925060005b8161ffff168161ffff161015612970576040517f5e835270000000000000000000000000000000000000000000000000000000008152600160a060020a038781166004830152868116602483015261ffff83166044830152841690635e83527090606401602060405180830381865afa15801561290e573d6000803e3d6000fd5b505050506040513d601f19601f820116820180604052508101906129329190613775565b848261ffff1681518110612948576129486137d6565b600160a060020a0390921660209283029190910190910152612969816137ef565b905061288d565b50505092915050565b600084156123525761ffff8216156123525761271061299c61ffff841687613792565b6129a691906137b1565b9050612352600160a060020a0385168483611da3565b826129c657505050565b60006129de8260a00151600160a060020a0316612203565b90508160200151600160a060020a03168260000151600160a060020a031614612a8b57612a8b604051806101000160405280600287612a1d91906137b1565b8152602001838152602001612a3e8560c00151600160a060020a0316612203565b81526020018460000151600160a060020a031681526020018460200151600160a060020a031681526020018581526020018460600151815260200130600160a060020a03168152506117e8565b8160400151600160a060020a03168260000151600160a060020a031614612b3657612b36604051806101000160405280600287612ac891906137b1565b8152602001838152602001612ae98560e00151600160a060020a0316612203565b81526020018460000151600160a060020a031681526020018460400151600160a060020a031681526020018581526020018460800151815260200130600160a060020a03168152506117e8565b602082015160405160e060020a6370a08231028152306004820152600091600160a060020a0316906370a0823190602401602060405180830381865afa158015612b84573d6000803e3d6000fd5b505050506040513d601f19601f82011682018060405250810190612ba891906136df565b604080850151905160e060020a6370a08231028152306004820152919250600091600160a060020a03909116906370a0823190602401602060405180830381865afa158015612bfb573d6000803e3d6000fd5b505050506040513d601f19601f82011682018060405250810190612c1f91906136df565b6020850151604086015160665492935061061692859085908a90600160a060020a03166119f8565b82156119f3576119f3604051806101000160405280858152602001612c788460800151600160a060020a0316612203565b8152602001612c938460a00151600160a060020a0316612203565b81526020018360000151600160a060020a031681526020018360200151600160a060020a03168152602001848152602001836060015181526020018360400151600160a060020a03168152506117e8565b6060612cf38484600085612e93565b90505b9392505050565b60008086600160a060020a031663d06ca61f87876040518363ffffffff1660e060020a028152600401612d31929190613a94565b600060405180830381865afa158015612d4e573d6000803e3d6000fd5b505050506040513d6000823e601f3d908101601f19168201604052612d769190810190613aad565b905082600081518110612d8b57612d8b6137d6565b6020026020010151600a612d9f9190613a0f565b612dab906103e8613792565b83600181518110612dbe57612dbe6137d6565b6020026020010151600a612dd29190613a0f565b858360018551612de29190613729565b81518110612df257612df26137d6565b60200260200101516125369190613792565b600081600081518110612e1957612e196137d6565b6020026020010151600a612e2d9190613a0f565b612e39856103e8613792565b612e439190613792565b82600181518110612e5657612e566137d6565b6020026020010151600a612e6a9190613a0f565b84612e75888a613792565b612e7f9190613792565b612e899190613792565b611d9991906137b1565b60603031831115612f0f5760405160e560020a62461bcd02815260206004820152602660248201527f416464726573733a20696e73756666696369656e742062616c616e636520666f60448201527f722063616c6c000000000000000000000000000000000000000000000000000060648201526084016105a6565b600160a060020a0385163b612f695760405160e560020a62461bcd02815260206004820152601d60248201527f416464726573733a2063616c6c20746f206e6f6e2d636f6e747261637400000060448201526064016105a6565b60008086600160a060020a03168587604051612f859190613b5c565b60006040518083038185875af1925050503d8060008114612fc2576040519150601f19603f3d011682016040523d82523d6000602084013e612fc7565b606091505b509150915061056e82828660608315612fe1575081612cf6565b825115612ff15782518084602001fd5b8160405160e560020a62461bcd0281526004016105a69190613b78565b600160a060020a03811681146103cc57600080fd5b803561302e8161300e565b919050565b60e060020a634e487b7102600052604160045260246000fd5b604051610100810167ffffffffffffffff8111828210171561307057613070613033565b60405290565b6040516101c0810167ffffffffffffffff8111828210171561307057613070613033565b604051601f8201601f1916810167ffffffffffffffff811182821017156130c3576130c3613033565b604052919050565b60008060008084860360e08112156130e257600080fd5b853594506020860135935060408601356130fb8161300e565b92506080605f198201121561310f57600080fd5b506040516080810181811067ffffffffffffffff8211171561313357613133613033565b60405260608601356131448161300e565b815260808601356131548161300e565b602082015260a08601356131678161300e565b604082015260c086013561317a8161300e565b6060820152939692955090935050565b600067ffffffffffffffff8211156131a4576131a4613033565b5060209081020190565b600082601f8301126131bf57600080fd5b813560206131d46131cf8361318a565b61309a565b828152918102840181019181810190868411156131f057600080fd5b8286015b84811015610ad15780356132078161300e565b83529183019183016131f4565b60006020828403121561322657600080fd5b813567ffffffffffffffff8082111561323e57600080fd5b90830190610100828603121561325357600080fd5b61325b61304c565b82358152602083013560208201526040830135604082015261327f60608401613023565b606082015261329060808401613023565b608082015260a083013560a082015260c0830135828111156132b157600080fd5b6132bd878286016131ae565b60c0830152506132cf60e08401613023565b60e082015295945050505050565b6000806000606084860312156132f257600080fd5b83356132fd8161300e565b9250602084013561330d8161300e565b9150604084013561331d8161300e565b809150509250925092565b60006020828403121561333a57600080fd5b8135612cf68161300e565b60008060008060008060c0878903121561335e57600080fd5b86356133698161300e565b955060208701356133798161300e565b945060408701359350606087013592506080870135915060a087013561339e8161300e565b809150509295509295509295565b600080604083850312156133bf57600080fd5b50508035926020909101359150565b61ffff811681146103cc57600080fd5b803561302e816133ce565b80151581146103cc57600080fd5b803561302e816133e9565b60008060006060848603121561341757600080fd5b8335925060208401359150604084013567ffffffffffffffff8082111561343d57600080fd5b908501906101c0828803121561345257600080fd5b61345a613076565b61346383613023565b815261347160208401613023565b602082015261348260408401613023565b604082015261349360608401613023565b60608201526134a460808401613023565b60808201526134b560a08401613023565b60a08201526134c660c08401613023565b60c08201526134d760e08401613023565b60e082015261010080840135838111156134f057600080fd5b6134fc8a8287016131ae565b828401525050610120808401358381111561351657600080fd5b6135228a8287016131ae565b82840152505061014091506135388284016133de565b82820152610160915061354c8284016133de565b8282015261018091506135608284016133de565b828201526101a091506135748284016133f7565b828201528093505050509250925092565b60008060008060008060c0878903121561359e57600080fd5b505084359660208601359650604086013595606081013595506080810135945060a0013592509050565b6000602082840312156135da57600080fd5b813567ffffffffffffffff8111156135f157600080fd5b612352848285016131ae565b600081518084526020808501945080840160005b83811015613636578151600160a060020a031687529582019590820190600101613611565b509495945050505050565b602081526000612cf660208301846135fd565b6000806040838503121561366757600080fd5b82356136728161300e565b915060208301356136828161300e565b809150509250929050565b600080600080600060a086880312156136a557600080fd5b853594506020860135935060408601356136be8161300e565b925060608601356136ce8161300e565b949793965091946080013592915050565b6000602082840312156136f157600080fd5b5051919050565b60e060020a634e487b7102600052601160045260246000fd5b60008219821115613724576137246136f8565b500190565b60008282101561373b5761373b6136f8565b500390565b6020808252818101527f4f776e61626c653a2063616c6c6572206973206e6f7420746865206f776e6572604082015260600190565b60006020828403121561378757600080fd5b8151612cf68161300e565b60008160001904831182151516156137ac576137ac6136f8565b500290565b6000826137d15760e060020a634e487b7102600052601260045260246000fd5b500490565b60e060020a634e487b7102600052603260045260246000fd5b600061ffff80831681811415613807576138076136f8565b6001019392505050565b60008060006060848603121561382657600080fd5b8351613831816133e9565b60208501516040860151919450925061331d816133e9565b6000806040838503121561385c57600080fd5b505080516020909101519092909150565b60006020828403121561387f57600080fd5b815160ff81168114612cf657600080fd5b6000806000606084860312156138a557600080fd5b8351925060208401519150604084015190509250925092565b805169ffffffffffffffffffff8116811461302e57600080fd5b600080600080600060a086880312156138f057600080fd5b6138f9866138be565b945060208601519350604086015192506060860151915061391c608087016138be565b90509295509295909350565b600181815b80851115613965578160001904821115613949576139496136f8565b8085161561395657918102915b6002909404939080029061392d565b509250929050565b60008261397c57506001610db6565b8161398957506000610db6565b816001811461399f57600281146139a9576139c6565b6001915050610db6565b60ff8411156139ba576139ba6136f8565b8360020a915050610db6565b5060208310610133831016604e8410600b84101617156139e9575081810a610db6565b6139f38383613928565b8060001904821115613a0757613a076136f8565b029392505050565b6000612cf660ff84168361396d565b600060208284031215613a3057600080fd5b8151612cf6816133e9565b85815284602082015260a060408201526000613a5a60a08301866135fd565b600160a060020a0394909416606083015250608001529392505050565b600060208284031215613a8957600080fd5b8151612cf6816133ce565b828152604060208201526000612cf360408301846135fd565b60006020808385031215613ac057600080fd5b825167ffffffffffffffff811115613ad757600080fd5b8301601f81018513613ae857600080fd5b8051613af66131cf8261318a565b81815290830282018301908381019087831115613b1257600080fd5b928401925b8284101561056e57835182529284019290840190613b17565b60005b83811015613b4b578181015183820152602001613b33565b8381111561039d5750506000910152565b60008251613b6e818460208701613b30565b9190910192915050565b6020815260008251806020840152613b97816040850160208701613b30565b601f01601f1916919091016040019291505056fea26469706673582212200f3b0d48b1ca4e4f3cdd859358015982f01dc5bd1e3df51eddaa67f27462a6d264736f6c634300080a0033",
  "immutableReferences": {},
  "source": "// SPDX-License-Identifier: MIT\n\npragma solidity ^0.8.0;\n\nimport \"../../interfaces/Benqi/IUnitroller.sol\";\n\nimport \"./_VaultActionsLending.sol\";\n\ncontract VaultActionsBenqiLending is VaultActionsLending {\n    /* Utilities */\n\n    /// @notice Gets loan collateral factor from lending protocol\n    /// @return collFactor The collateral factor %. (1e18 = 100%)\n    /// @param _comptrollerAddress Address of the ApeLending Unitroller proxy\n    /// @param _poolAddress Address of the lending pool\n    function collateralFactor(address _comptrollerAddress, address _poolAddress)\n        public\n        view\n        override\n        returns (uint256 collFactor)\n    {\n        (, uint256 _collateralFactor, ) = IUnitrollerBenqi(_comptrollerAddress)\n            .markets(_poolAddress);\n        return _collateralFactor;\n    }\n}\n",
  "sourcePath": "/Users/kristophm/Documents/workspace/zorro-protocol/contracts/vaults/actions/VaultActionsBenqiLending.sol",
  "compiler": {
    "name": "solc",
    "version": "0.8.10+commit.fc410830.Emscripten.clang"
  },
  "schemaVersion": "3.4.10",
  "updatedAt": "2023-02-05T18:00:05.038Z",
  "devdoc": {
    "kind": "dev",
    "methods": {
      "calcIncBorrowAboveTarget(uint256,uint256,uint256,uint256,uint256,uint256)": {
        "params": {
          "_c": "Collateral factor",
          "_liquidityAvailable": "Liquidity available in underlying pool",
          "_ox": "Initial supply (gross of withdrawal amount)",
          "_targetLeverage": "Target leverage amount",
          "_x": "Supply amount",
          "_y": "Borrow amount"
        },
        "returns": {
          "dy": "The incremental amount to be borrowed"
        }
      },
      "calcIncBorrowBelowTarget(uint256,uint256,uint256,uint256,uint256,uint256)": {
        "params": {
          "_c": "Collateral factor",
          "_liquidityAvailable": "Liquidity available in underlying pool",
          "_ox": "Initial supply (gross of withdrawal amount)",
          "_targetLeverage": "Target leverage amount",
          "_x": "Supply amount",
          "_y": "Borrow amount"
        },
        "returns": {
          "dy": "The incremental amount to be borrowed"
        }
      },
      "collateralFactor(address,address)": {
        "params": {
          "_comptrollerAddress": "Address of the ApeLending Unitroller proxy",
          "_poolAddress": "Address of the lending pool"
        },
        "returns": {
          "collFactor": "The collateral factor %. (1e18 = 100%)"
        }
      },
      "currentWantEquity(address)": {
        "params": {
          "_vaultAddr": "The vault address"
        },
        "returns": {
          "positionVal": "Position value, in units of Want token"
        }
      },
      "distributeAndReinvestEarnings(uint256,uint256,(address,address,address,address,address,address,address,address,address[],address[],uint16,uint16,uint16,bool))": {
        "details": "To be run by Vault's earn() func after earnings have been unfarmed",
        "params": {
          "_amount": "Amount of Want token to distribute",
          "_maxMarketMovementAllowed": "Slippage (990 = 1%)",
          "_params": "A DistributeEarningsParams struct"
        },
        "returns": {
          "wantRemaining": "Remaining Want token after distribution (will be sent back to sender)",
          "xChainBuybackAmt": "Amount of Want token reserved for cross chain buyback, if applicable",
          "xChainRevShareAmt": "Amount of Want token reserved for cross chain revshare, if applicable"
        }
      },
      "exchangeUSDForWantToken(uint256,uint256)": {
        "params": {
          "_amountUSD": "The USD quantity to exchange (must already be deposited)",
          "_maxMarketMovementAllowed": "The max slippage allowed. 1000 = 0 %, 995 = 0.5%, etc."
        },
        "returns": {
          "wantObtained": "Amount of Want token obtained and transferred to sender"
        }
      },
      "exchangeWantTokenForUSD(uint256,uint256)": {
        "params": {
          "_amount": "The Want token quantity to exchange (must be deposited beforehand)",
          "_maxMarketMovementAllowed": "The max slippage allowed for swaps. 1000 = 0 %, 995 = 0.5%, etc."
        },
        "returns": {
          "usdObtained": "Amount of USD token obtained and transferred to sender"
        }
      },
      "exitPool(uint256,uint256,address,(address,address,address,address))": {
        "details": "NOTE: Requires caller to approve want token spending",
        "params": {
          "_amountLP": "The amount of LP (Want) tokens to remove",
          "_maxMarketMovementAllowed": "The max slippage allowed for swaps. 1000 = 0 %, 995 = 0.5%, etc.",
          "_recipient": "The recipient of the underlying tokens at pool exit"
        }
      },
      "initialize(address)": {
        "params": {
          "_uniRouterAddress": "Address of Uniswap style router"
        }
      },
      "joinPool(address,address,uint256,uint256,uint256,address)": {
        "details": "NOTE: Requires spending approval by caller",
        "params": {
          "_maxMarketMovementAllowed": "The max slippage allowed for swaps. 1000 = 0 %, 995 = 0.5%, etc.",
          "_recipient": "The recipient of the LP token",
          "_token0": "The address of Token0",
          "_token0Amt": "Quantity of Token0 to add",
          "_token1": "The address of Token1",
          "_token1Amt": "Quantity of Token1 to add"
        }
      },
      "levLendingParams(uint256,uint256,address,address,uint256)": {
        "params": {
          "_comptrollerAddress": "Address of protocol comptroller",
          "_ox": "Raw supply (before any withdrawal)",
          "_poolAddress": "Address of lending pool",
          "_targetBorrowLimit": "Target borrow %",
          "_withdrawAmt": "Amount to withdraw"
        },
        "returns": {
          "c": "Collateral factor",
          "currentL": "Current leverage",
          "liquidityAvailable": "Total liquidity avaialble in pool",
          "targetL": "Target leverage threshold",
          "x": "Adjusted supply (accounts amount to withdraw)",
          "y": "Amount borrowed"
        }
      },
      "owner()": {
        "details": "Returns the address of the current owner."
      },
      "renounceOwnership()": {
        "details": "Leaves the contract without owner. It will not be possible to call `onlyOwner` functions anymore. Can only be called by the current owner. NOTE: Renouncing ownership will leave the contract without an owner, thereby removing any functionality that is only available to the owner."
      },
      "reversePath(address[])": {
        "params": {
          "_path": "The swap path to be reversed"
        },
        "returns": {
          "newPath": "An reversed path array"
        }
      },
      "safeSwap((uint256,uint256,uint256,address,address,uint256,address[],address))": {
        "details": "NOTE: Caller must approve tokens for spending beforehand",
        "params": {
          "_swapParams": "SafeSwapParams for swap"
        }
      },
      "transferOwnership(address)": {
        "details": "Transfers ownership of the contract to a new account (`newOwner`). Can only be called by the current owner."
      },
      "unrealizedProfits(address)": {
        "params": {
          "_vaultAddr": "The vault address"
        },
        "returns": {
          "accumulatedProfit": "Amount of unrealized profit accumulated on the vault (not accounting for past harvests)",
          "harvestableProfit": "Amount of immediately harvestable profits"
        }
      },
      "wantTokenLockedAdj(address,address,address)": {
        "params": {
          "_poolAddress": "The address of the lending pool",
          "_tokenAddress": "The address of the underlying token",
          "_vault": "The vault to check balances of"
        },
        "returns": {
          "amtLocked": "The adjusted wantLockedTotal quantity"
        }
      }
    },
    "version": 1
  },
  "userdoc": {
    "kind": "user",
    "methods": {
      "calcIncBorrowAboveTarget(uint256,uint256,uint256,uint256,uint256,uint256)": {
        "notice": "Calculates incremental borrow amount (_dy) when above leverage target hysteresis envelope"
      },
      "calcIncBorrowBelowTarget(uint256,uint256,uint256,uint256,uint256,uint256)": {
        "notice": "Calculates incremental borrow amount (_dy) when below leverage target hysteresis envelope"
      },
      "collateralFactor(address,address)": {
        "notice": "Gets loan collateral factor from lending protocol"
      },
      "currentWantEquity(address)": {
        "notice": "Measures the current (unrealized) position value (measured in Want token) of the provided vault"
      },
      "distributeAndReinvestEarnings(uint256,uint256,(address,address,address,address,address,address,address,address,address[],address[],uint16,uint16,uint16,bool))": {
        "notice": "Distributes earnings (in the form of Want token) and reinvests remainder into Want token"
      },
      "exchangeUSDForWantToken(uint256,uint256)": {
        "notice": "Performs necessary operations to convert USD into Want token"
      },
      "exchangeWantTokenForUSD(uint256,uint256)": {
        "notice": "Converts Want token back into USD to be ready for withdrawal and transfers to sender"
      },
      "exitPool(uint256,uint256,address,(address,address,address,address))": {
        "notice": "Removes liquidity from a pool and sends tokens back to this address"
      },
      "initialize(address)": {
        "notice": "Constructor"
      },
      "joinPool(address,address,uint256,uint256,uint256,address)": {
        "notice": "Adds liquidity to the pool of this contract"
      },
      "levLendingParams(uint256,uint256,address,address,uint256)": {
        "notice": "Calculates leveraged lending parameters for supply/borrow rebalancing"
      },
      "reversePath(address[])": {
        "notice": "Gets the swap path in the opposite direction of a trade"
      },
      "safeSwap((uint256,uint256,uint256,address,address,uint256,address[],address))": {
        "notice": "Safely swaps tokens using the most suitable protocol based on token"
      },
      "unrealizedProfits(address)": {
        "notice": "Calculates accumulated unrealized profits on a vault"
      },
      "wantTokenLockedAdj(address,address,address)": {
        "notice": "Calc want token locked, accounting for leveraged supply/borrow"
      }
    },
    "version": 1
  }
}