{
  "contractName": "VaultFactoryStandardAMM",
  "abi": [
    {
      "anonymous": false,
      "inputs": [
        {
          "indexed": true,
          "internalType": "address",
          "name": "previousOwner",
          "type": "address"
        },
        {
          "indexed": true,
          "internalType": "address",
          "name": "newOwner",
          "type": "address"
        }
      ],
      "name": "OwnershipTransferred",
      "type": "event"
    },
    {
      "inputs": [
        {
          "internalType": "uint256",
          "name": "",
          "type": "uint256"
        }
      ],
      "name": "deployedVaults",
      "outputs": [
        {
          "internalType": "contract VaultStandardAMM",
          "name": "",
          "type": "address"
        }
      ],
      "stateMutability": "view",
      "type": "function",
      "constant": true
    },
    {
      "inputs": [],
      "name": "masterVault",
      "outputs": [
        {
          "internalType": "address",
          "name": "",
          "type": "address"
        }
      ],
      "stateMutability": "view",
      "type": "function",
      "constant": true
    },
    {
      "inputs": [],
      "name": "owner",
      "outputs": [
        {
          "internalType": "address",
          "name": "",
          "type": "address"
        }
      ],
      "stateMutability": "view",
      "type": "function",
      "constant": true
    },
    {
      "inputs": [],
      "name": "renounceOwnership",
      "outputs": [],
      "stateMutability": "nonpayable",
      "type": "function"
    },
    {
      "inputs": [
        {
          "internalType": "address",
          "name": "newOwner",
          "type": "address"
        }
      ],
      "name": "transferOwnership",
      "outputs": [],
      "stateMutability": "nonpayable",
      "type": "function"
    },
    {
      "inputs": [
        {
          "internalType": "address",
          "name": "_masterVault",
          "type": "address"
        }
      ],
      "name": "initialize",
      "outputs": [],
      "stateMutability": "nonpayable",
      "type": "function"
    },
    {
      "inputs": [
        {
          "internalType": "address",
          "name": "_timelockOwner",
          "type": "address"
        },
        {
          "components": [
            {
              "internalType": "uint256",
              "name": "pid",
              "type": "uint256"
            },
            {
              "internalType": "bool",
              "name": "isHomeChain",
              "type": "bool"
            },
            {
              "components": [
                {
                  "internalType": "address",
                  "name": "govAddress",
                  "type": "address"
                },
                {
                  "internalType": "address",
                  "name": "zorroControllerAddress",
                  "type": "address"
                },
                {
                  "internalType": "address",
                  "name": "ZORROAddress",
                  "type": "address"
                },
                {
                  "internalType": "address",
                  "name": "zorroStakingVault",
                  "type": "address"
                },
                {
                  "internalType": "address",
                  "name": "wantAddress",
                  "type": "address"
                },
                {
                  "internalType": "address",
                  "name": "token0Address",
                  "type": "address"
                },
                {
                  "internalType": "address",
                  "name": "token1Address",
                  "type": "address"
                },
                {
                  "internalType": "address",
                  "name": "earnedAddress",
                  "type": "address"
                },
                {
                  "internalType": "address",
                  "name": "farmContractAddress",
                  "type": "address"
                },
                {
                  "internalType": "address",
                  "name": "rewardsAddress",
                  "type": "address"
                },
                {
                  "internalType": "address",
                  "name": "poolAddress",
                  "type": "address"
                },
                {
                  "internalType": "address",
                  "name": "uniRouterAddress",
                  "type": "address"
                },
                {
                  "internalType": "address",
                  "name": "zorroLPPool",
                  "type": "address"
                },
                {
                  "internalType": "address",
                  "name": "zorroLPPoolOtherToken",
                  "type": "address"
                },
                {
                  "internalType": "address",
                  "name": "tokenUSDCAddress",
                  "type": "address"
                }
              ],
              "internalType": "struct VaultBase.VaultAddresses",
              "name": "keyAddresses",
              "type": "tuple"
            },
            {
              "internalType": "address[]",
              "name": "earnedToZORROPath",
              "type": "address[]"
            },
            {
              "internalType": "address[]",
              "name": "earnedToToken0Path",
              "type": "address[]"
            },
            {
              "internalType": "address[]",
              "name": "earnedToToken1Path",
              "type": "address[]"
            },
            {
              "internalType": "address[]",
              "name": "USDCToToken0Path",
              "type": "address[]"
            },
            {
              "internalType": "address[]",
              "name": "USDCToToken1Path",
              "type": "address[]"
            },
            {
              "internalType": "address[]",
              "name": "earnedToZORLPPoolOtherTokenPath",
              "type": "address[]"
            },
            {
              "internalType": "address[]",
              "name": "earnedToUSDCPath",
              "type": "address[]"
            },
            {
              "components": [
                {
                  "internalType": "uint256",
                  "name": "controllerFee",
                  "type": "uint256"
                },
                {
                  "internalType": "uint256",
                  "name": "buyBackRate",
                  "type": "uint256"
                },
                {
                  "internalType": "uint256",
                  "name": "revShareRate",
                  "type": "uint256"
                },
                {
                  "internalType": "uint256",
                  "name": "entranceFeeFactor",
                  "type": "uint256"
                },
                {
                  "internalType": "uint256",
                  "name": "withdrawFeeFactor",
                  "type": "uint256"
                }
              ],
              "internalType": "struct VaultBase.VaultFees",
              "name": "fees",
              "type": "tuple"
            },
            {
              "components": [
                {
                  "internalType": "address",
                  "name": "token0PriceFeed",
                  "type": "address"
                },
                {
                  "internalType": "address",
                  "name": "token1PriceFeed",
                  "type": "address"
                },
                {
                  "internalType": "address",
                  "name": "earnTokenPriceFeed",
                  "type": "address"
                },
                {
                  "internalType": "address",
                  "name": "ZORPriceFeed",
                  "type": "address"
                },
                {
                  "internalType": "address",
                  "name": "lpPoolOtherTokenPriceFeed",
                  "type": "address"
                }
              ],
              "internalType": "struct VaultBase.VaultPriceFeeds",
              "name": "priceFeeds",
              "type": "tuple"
            }
          ],
          "internalType": "struct VaultStandardAMM.VaultStandardAMMInit",
          "name": "_initValue",
          "type": "tuple"
        }
      ],
      "name": "createVault",
      "outputs": [],
      "stateMutability": "nonpayable",
      "type": "function"
    },
    {
      "inputs": [],
      "name": "numVaults",
      "outputs": [
        {
          "internalType": "uint256",
          "name": "",
          "type": "uint256"
        }
      ],
      "stateMutability": "view",
      "type": "function",
      "constant": true
    }
  ],
  "bytecode": "0x608060405234801561001057600080fd5b50610e53806100206000396000f3fe608060405234801561001057600080fd5b50600436106100885760003560e01c80638c9adbef1161005b5780638c9adbef146100eb5780638da5cb5b146100fe578063c4d66de81461010f578063f2fde38b1461012257600080fd5b80630ac214df1461008d578063264a6208146100bd5780633b7e3775146100ce578063715018a6146100e1575b600080fd5b6100a061009b366004610559565b610135565b6040516001600160a01b0390911681526020015b60405180910390f35b6065546040519081526020016100b4565b6066546100a0906001600160a01b031681565b6100e961015f565b005b6100e96100f93660046108a4565b61019e565b6033546001600160a01b03166100a0565b6100e961011d366004610a5b565b610298565b6100e9610130366004610a5b565b610375565b6065818154811061014557600080fd5b6000918252602090912001546001600160a01b0316905081565b6033546001600160a01b031633146101925760405162461bcd60e51b815260040161018990610a7d565b60405180910390fd5b61019c6000610410565b565b6033546001600160a01b031633146101c85760405162461bcd60e51b815260040161018990610a7d565b6066546000906101e0906001600160a01b0316610462565b6040516319cae7eb60e11b81529091506001600160a01b03821690633395cfd6906102119086908690600401610c27565b600060405180830381600087803b15801561022b57600080fd5b505af115801561023f573d6000803e3d6000fd5b5050606580546001810182556000919091527f8ff97419363ffd7000167f130ef7168fbea05faf9251824ca5043f113cc6a7c70180546001600160a01b0319166001600160a01b03949094169390931790925550505050565b600054610100900460ff166102b35760005460ff16156102b7565b303b155b61031a5760405162461bcd60e51b815260206004820152602e60248201527f496e697469616c697a61626c653a20636f6e747261637420697320616c72656160448201526d191e481a5b9a5d1a585b1a5e995960921b6064820152608401610189565b600054610100900460ff1615801561033c576000805461ffff19166101011790555b606680546001600160a01b0319166001600160a01b03841617905561035f6104ff565b8015610371576000805461ff00191690555b5050565b6033546001600160a01b0316331461039f5760405162461bcd60e51b815260040161018990610a7d565b6001600160a01b0381166104045760405162461bcd60e51b815260206004820152602660248201527f4f776e61626c653a206e6577206f776e657220697320746865207a65726f206160448201526564647265737360d01b6064820152608401610189565b61040d81610410565b50565b603380546001600160a01b038381166001600160a01b0319831681179093556040519116919082907f8be0079c531659141344cd1fd0a4f28419497f9722a3daafe3b4186f6b6457e090600090a35050565b6000604051733d602d80600a3d3981f3363d3d373d3d3d363d7360601b81528260601b60148201526e5af43d82803e903d91602b57fd5bf360881b60288201526037816000f09150506001600160a01b0381166104fa5760405162461bcd60e51b8152602060048201526016602482015275115490cc4c4d8dce8818dc99585d194819985a5b195960521b6044820152606401610189565b919050565b600054610100900460ff166105265760405162461bcd60e51b815260040161018990610dd2565b61019c600054610100900460ff166105505760405162461bcd60e51b815260040161018990610dd2565b61019c33610410565b60006020828403121561056b57600080fd5b5035919050565b80356001600160a01b03811681146104fa57600080fd5b634e487b7160e01b600052604160045260246000fd5b6040516101e0810167ffffffffffffffff811182821017156105c3576105c3610589565b60405290565b60405160a0810167ffffffffffffffff811182821017156105c3576105c3610589565b604051610180810167ffffffffffffffff811182821017156105c3576105c3610589565b803580151581146104fa57600080fd5b60006101e0828403121561063357600080fd5b61063b61059f565b905061064682610572565b815261065460208301610572565b602082015261066560408301610572565b604082015261067660608301610572565b606082015261068760808301610572565b608082015261069860a08301610572565b60a08201526106a960c08301610572565b60c08201526106ba60e08301610572565b60e08201526101006106cd818401610572565b908201526101206106df838201610572565b908201526101406106f1838201610572565b90820152610160610703838201610572565b90820152610180610715838201610572565b908201526101a0610727838201610572565b908201526101c0610739838201610572565b9082015292915050565b600082601f83011261075457600080fd5b8135602067ffffffffffffffff8083111561077157610771610589565b8260051b604051601f19603f8301168101818110848211171561079657610796610589565b6040529384528581018301938381019250878511156107b457600080fd5b83870191505b848210156107da576107cb82610572565b835291830191908301906107ba565b979650505050505050565b600060a082840312156107f757600080fd5b6107ff6105c9565b9050813581526020820135602082015260408201356040820152606082013560608201526080820135608082015292915050565b600060a0828403121561084557600080fd5b61084d6105c9565b905061085882610572565b815261086660208301610572565b602082015261087760408301610572565b604082015261088860608301610572565b606082015261089960808301610572565b608082015292915050565b600080604083850312156108b757600080fd5b6108c083610572565b9150602083013567ffffffffffffffff808211156108dd57600080fd5b9084019061044082870312156108f257600080fd5b6108fa6105ec565b8235815261090a60208401610610565b602082015261091c8760408501610620565b60408201526102208301358281111561093457600080fd5b61094088828601610743565b6060830152506102408301358281111561095957600080fd5b61096588828601610743565b6080830152506102608301358281111561097e57600080fd5b61098a88828601610743565b60a083015250610280830135828111156109a357600080fd5b6109af88828601610743565b60c0830152506102a0830135828111156109c857600080fd5b6109d488828601610743565b60e0830152506102c0830135828111156109ed57600080fd5b6109f988828601610743565b610100830152506102e083013582811115610a1357600080fd5b610a1f88828601610743565b61012083015250610a348761030085016107e5565b610140820152610a48876103a08501610833565b6101608201528093505050509250929050565b600060208284031215610a6d57600080fd5b610a7682610572565b9392505050565b6020808252818101527f4f776e61626c653a2063616c6c6572206973206e6f7420746865206f776e6572604082015260600190565b80516001600160a01b031682526020810151610ad960208401826001600160a01b03169052565b506040810151610af460408401826001600160a01b03169052565b506060810151610b0f60608401826001600160a01b03169052565b506080810151610b2a60808401826001600160a01b03169052565b5060a0810151610b4560a08401826001600160a01b03169052565b5060c0810151610b6060c08401826001600160a01b03169052565b5060e0810151610b7b60e08401826001600160a01b03169052565b50610100818101516001600160a01b0390811691840191909152610120808301518216908401526101408083015182169084015261016080830151821690840152610180808301518216908401526101a0808301518216908401526101c09182015116910152565b600081518084526020808501945080840160005b83811015610c1c5781516001600160a01b031687529582019590820190600101610bf7565b509495945050505050565b60018060a01b0383168152604060208201528151604082015260006020830151610c55606084018215159052565b506040830151610c686080840182610ab2565b506060830151610440610260840152610c85610480840182610be3565b90506080840151603f198085840301610280860152610ca48383610be3565b925060a0860151915080858403016102a0860152610cc28383610be3565b925060c0860151915080858403016102c0860152610ce08383610be3565b925060e0860151915080858403016102e0860152610cfe8383610be3565b925061010086015191508085840301610300860152610d1d8383610be3565b92506101208601519150808584030161032086015250610d3d8282610be3565b61014086015180516103408701526020810151610360870152604081015161038087015260608101516103a087015260808101516103c087015290925090505061016084015180516001600160a01b039081166103e086015260208201518116610400860152604082015181166104208601526060820151811661044086015260808201511661046085015250949350505050565b6020808252602b908201527f496e697469616c697a61626c653a20636f6e7472616374206973206e6f74206960408201526a6e697469616c697a696e6760a81b60608201526080019056fea2646970667358221220a0c9ce3956c71b2fe364e393924b9c387f6164f5918cc6996f38c7ed25e993f664736f6c634300080a0033",
  "immutableReferences": {},
  "source": "// SPDX-License-Identifier: MIT\n\npragma solidity ^0.8.0;\n\nimport \"@openzeppelin/contracts-upgradeable/token/ERC20/ERC20Upgradeable.sol\";\n\nimport \"@openzeppelin/contracts-upgradeable/utils/AddressUpgradeable.sol\";\n\nimport \"../interfaces/IAMMFarm.sol\";\n\nimport \"../interfaces/IAMMRouter02.sol\";\n\nimport \"./_VaultBase.sol\";\n\nimport \"@openzeppelin/contracts-upgradeable/token/ERC20/IERC20Upgradeable.sol\";\n\nimport \"@openzeppelin/contracts-upgradeable/token/ERC20/utils/SafeERC20Upgradeable.sol\";\n\nimport \"@openzeppelin/contracts-upgradeable/utils/math/SafeMathUpgradeable.sol\";\n\nimport \"../libraries/SafeSwap.sol\";\n\nimport \"../libraries/PriceFeed.sol\";\n\nimport \"@openzeppelin/contracts-upgradeable/proxy/ClonesUpgradeable.sol\";\n\n/// @title Vault factory for VaultStandardAMM\ncontract VaultFactoryStandardAMM is Initializable, OwnableUpgradeable {\n    /* State */\n\n    VaultStandardAMM[] public deployedVaults; // All deployed vaults\n    address public masterVault; // Address of the upgradeable proxy that delegates to the master vault contract\n\n    /* Constructor */\n\n    function initialize(address _masterVault) public initializer {\n        // Set master vault address\n        masterVault = _masterVault;\n\n        // Ownable\n        __Ownable_init();\n    }\n\n    /* Factory functions */\n\n    function createVault(\n        address _timelockOwner,\n        VaultStandardAMM.VaultStandardAMMInit memory _initValue\n    ) external onlyOwner {\n        // Create clone\n        VaultStandardAMM _vault = VaultStandardAMM(\n            ClonesUpgradeable.clone(masterVault)\n        );\n        // Initialize cloned contract\n        _vault.initialize(_timelockOwner, _initValue);\n        // Add to array of deployed vaults\n        deployedVaults.push(_vault);\n    }\n\n    function numVaults() external view returns (uint256) {\n        return deployedVaults.length;\n    }\n}\n\n/// @title VaultStandardAMM: abstract base class for all PancakeSwap style AMM contracts. Maximizes yield in AMM.\ncontract VaultStandardAMM is VaultBase {\n    /* Libraries */\n    using SafeERC20Upgradeable for IERC20Upgradeable;\n    using SafeMathUpgradeable for uint256;\n    using SafeSwapUni for IAMMRouter02;\n    using PriceFeed for AggregatorV3Interface;\n\n    /* Constructor */\n    /// @notice Upgradeable constructor\n    /// @param _initValue A VaultStandardAMMInit struct with all constructor params\n    /// @param _timelockOwner The designated timelock controller address to act as owner\n    function initialize(\n        address _timelockOwner,\n        VaultStandardAMMInit memory _initValue\n    ) public initializer {\n        // Vault config\n        pid = _initValue.pid;\n        isHomeChain = _initValue.isHomeChain;\n\n        // Addresses\n        govAddress = _initValue.keyAddresses.govAddress;\n        onlyGov = true;\n        zorroControllerAddress = _initValue.keyAddresses.zorroControllerAddress;\n        ZORROAddress = _initValue.keyAddresses.ZORROAddress;\n        zorroStakingVault = _initValue.keyAddresses.zorroStakingVault;\n        wantAddress = _initValue.keyAddresses.wantAddress;\n        token0Address = _initValue.keyAddresses.token0Address;\n        earnedAddress = _initValue.keyAddresses.earnedAddress;\n        farmContractAddress = _initValue.keyAddresses.farmContractAddress;\n        rewardsAddress = _initValue.keyAddresses.rewardsAddress;\n        poolAddress = _initValue.keyAddresses.poolAddress;\n        uniRouterAddress = _initValue.keyAddresses.uniRouterAddress;\n        zorroLPPool = _initValue.keyAddresses.zorroLPPool;\n        zorroLPPoolOtherToken = _initValue.keyAddresses.zorroLPPoolOtherToken;\n        tokenUSDCAddress = _initValue.keyAddresses.tokenUSDCAddress;\n\n        // Fees\n        controllerFee = _initValue.fees.controllerFee;\n        buyBackRate = _initValue.fees.buyBackRate;\n        revShareRate = _initValue.fees.revShareRate;\n        entranceFeeFactor = _initValue.fees.entranceFeeFactor;\n        withdrawFeeFactor = _initValue.fees.withdrawFeeFactor;\n\n        // Swap paths\n        earnedToZORROPath = _initValue.earnedToZORROPath;\n        earnedToToken0Path = _initValue.earnedToToken0Path;\n        earnedToToken1Path = _initValue.earnedToToken1Path;\n        USDCToToken0Path = _initValue.USDCToToken0Path;\n        USDCToToken1Path = _initValue.USDCToToken1Path;\n        earnedToZORLPPoolOtherTokenPath = _initValue\n            .earnedToZORLPPoolOtherTokenPath;\n        earnedToUSDCPath = _initValue.earnedToUSDCPath;\n        // Corresponding reverse paths\n        token0ToUSDCPath = _reversePath(USDCToToken0Path);\n        token1ToUSDCPath = _reversePath(USDCToToken1Path);\n\n        // Price feeds\n        token0PriceFeed = AggregatorV3Interface(\n            _initValue.priceFeeds.token0PriceFeed\n        );\n        token1PriceFeed = AggregatorV3Interface(\n            _initValue.priceFeeds.token1PriceFeed\n        );\n        earnTokenPriceFeed = AggregatorV3Interface(\n            _initValue.priceFeeds.earnTokenPriceFeed\n        );\n        lpPoolOtherTokenPriceFeed = AggregatorV3Interface(\n            _initValue.priceFeeds.lpPoolOtherTokenPriceFeed\n        );\n        ZORPriceFeed = AggregatorV3Interface(\n            _initValue.priceFeeds.ZORPriceFeed\n        );\n\n        // Super call\n        VaultBase.initialize(_timelockOwner);\n    }\n\n    /* Structs */\n\n    struct VaultStandardAMMInit {\n        uint256 pid;\n        bool isHomeChain;\n        VaultAddresses keyAddresses;\n        address[] earnedToZORROPath;\n        address[] earnedToToken0Path;\n        address[] earnedToToken1Path;\n        address[] USDCToToken0Path;\n        address[] USDCToToken1Path;\n        address[] earnedToZORLPPoolOtherTokenPath;\n        address[] earnedToUSDCPath;\n        VaultFees fees;\n        VaultPriceFeeds priceFeeds;\n    }\n\n    /* Investment Actions */\n\n    /// @notice Receives new deposits from user\n    /// @param _account The address of the end user account making the deposit\n    /// @param _wantAmt The amount of Want token to deposit (must already be transferred)\n    /// @return sharesAdded Number of shares added\n    function depositWantToken(address _account, uint256 _wantAmt)\n        public\n        override\n        onlyZorroController\n        nonReentrant\n        whenNotPaused\n        returns (uint256 sharesAdded)\n    {\n        // Preflight checks\n        require(_wantAmt > 0, \"Want dep < 0\");\n\n        // Transfer Want token from sender\n        IERC20Upgradeable(wantAddress).safeTransferFrom(\n            msg.sender,\n            address(this),\n            _wantAmt\n        );\n\n        // Set sharesAdded to the Want token amount specified\n        sharesAdded = _wantAmt;\n        // If the total number of shares and want tokens locked both exceed 0, the shares added is the proportion of Want tokens locked,\n        // discounted by the entrance fee\n        if (wantLockedTotal > 0 && sharesTotal > 0) {\n            sharesAdded = _wantAmt\n                .mul(sharesTotal)\n                .mul(entranceFeeFactor)\n                .div(wantLockedTotal)\n                .div(entranceFeeFactorMax);\n        }\n        // Increment the shares\n        sharesTotal = sharesTotal.add(sharesAdded);\n        userShares[_account] = userShares[_account].add(sharesAdded);\n\n        // Farm Want token\n        _farm();\n    }\n\n    /// @notice Performs necessary operations to convert USDC into Want token and transfer back to sender\n    /// @param _amountUSDC The amount of USDC to exchange for Want token (must already be deposited on this contract)\n    /// @param _maxMarketMovementAllowed The max slippage allowed. 1000 = 0 %, 995 = 0.5%, etc.\n    /// @return uint256 Amount of Want token obtained\n    function exchangeUSDForWantToken(\n        uint256 _amountUSDC,\n        uint256 _maxMarketMovementAllowed\n    ) public override onlyZorroController whenNotPaused returns (uint256) {\n        // Get balance of deposited USDC\n        uint256 _balUSDC = IERC20(tokenUSDCAddress).balanceOf(address(this));\n        // Check that USDC was actually deposited\n        require(_amountUSDC > 0, \"USDC deposit must be > 0\");\n        require(_amountUSDC <= _balUSDC, \"USDC desired exceeded bal\");\n\n        // Use price feed to determine exchange rates\n        uint256 _token0ExchangeRate = token0PriceFeed.getExchangeRate();\n        uint256 _token1ExchangeRate = token1PriceFeed.getExchangeRate();\n\n        // Increase allowance\n        IERC20Upgradeable(tokenUSDCAddress).safeIncreaseAllowance(\n            uniRouterAddress,\n            _amountUSDC\n        );\n\n        // Swap USDC for token0\n        IAMMRouter02(uniRouterAddress).safeSwap(\n            _amountUSDC.div(2),\n            1e12,\n            _token0ExchangeRate,\n            _maxMarketMovementAllowed,\n            USDCToToken0Path,\n            address(this),\n            block.timestamp.add(600)\n        );\n\n        // Swap USDC for token1 (if applicable)\n        IAMMRouter02(uniRouterAddress).safeSwap(\n            _amountUSDC.div(2),\n            1e12,\n            _token1ExchangeRate,\n            _maxMarketMovementAllowed,\n            USDCToToken1Path,\n            address(this),\n            block.timestamp.add(600)\n        );\n\n        // Deposit token0, token1 into LP pool to get Want token (i.e. LP token)\n        uint256 token0Amt = IERC20Upgradeable(token0Address).balanceOf(\n            address(this)\n        );\n        uint256 token1Amt = IERC20Upgradeable(token1Address).balanceOf(\n            address(this)\n        );\n        IERC20Upgradeable(token0Address).safeIncreaseAllowance(\n            uniRouterAddress,\n            token0Amt\n        );\n        IERC20Upgradeable(token1Address).safeIncreaseAllowance(\n            uniRouterAddress,\n            token1Amt\n        );\n\n        _joinPool(token0Amt, token1Amt, _maxMarketMovementAllowed, msg.sender);\n\n        // Calculate resulting want token balance\n        return IERC20Upgradeable(wantAddress).balanceOf(msg.sender);\n    }\n\n    /// @notice Public function for farming Want token.\n    function farm() public nonReentrant {\n        _farm();\n    }\n\n    /// @notice Internal function for farming Want token. Responsible for staking Want token in a MasterChef/MasterApe-like contract\n    function _farm() internal {\n        // Get the Want token stored on this contract\n        uint256 wantBal = IERC20Upgradeable(wantAddress).balanceOf(\n            address(this)\n        );\n        // Increment the total Want tokens locked into this contract\n        wantLockedTotal = wantLockedTotal.add(wantBal);\n        // Allow the farm contract (e.g. MasterChef/MasterApe) the ability to transfer up to the Want amount\n        IERC20Upgradeable(wantAddress).safeIncreaseAllowance(\n            farmContractAddress,\n            wantBal\n        );\n\n        // Deposit the Want tokens in the Farm contract for the appropriate pool ID (PID)\n        IAMMFarm(farmContractAddress).deposit(pid, wantBal);\n    }\n\n    /// @notice Internal function for unfarming Want token. Responsible for unstaking Want token from MasterChef/MasterApe contracts\n    /// @param _wantAmt the amount of Want tokens to withdraw. If 0, will only harvest and not withdraw\n    /// @return wantUnfarmed The net amount of Want tokens unfarmed\n    function _unfarm(uint256 _wantAmt) internal returns (uint256 wantUnfarmed) {\n        // Withdraw the Want tokens from the Farm contract pool\n        IAMMFarm(farmContractAddress).withdraw(pid, _wantAmt);\n\n        // Init\n        wantUnfarmed = _wantAmt;\n\n        // Safety: Check balance of this contract's Want tokens held, and cap _wantAmt to that value\n        uint256 _wantBal = IERC20Upgradeable(wantAddress).balanceOf(\n            address(this)\n        );\n        if (wantUnfarmed > _wantBal) {\n            wantUnfarmed = _wantBal;\n        }\n        // Safety: cap _wantAmt at the total quantity of Want tokens locked\n        if (wantLockedTotal < _wantAmt) {\n            wantUnfarmed = wantLockedTotal;\n        }\n\n        // Decrement the total Want locked tokens by the _wantAmt\n        wantLockedTotal = wantLockedTotal.sub(wantUnfarmed);\n    }\n\n    /// @notice Fully withdraw Want tokens from the Farm contract (100% withdrawals only)\n    /// @param _account Address of user\n    /// @param _wantAmt The amount of Want token to withdraw\n    /// @return sharesRemoved uint256 The number of shares removed\n    function withdrawWantToken(address _account, uint256 _wantAmt)\n        public\n        override\n        onlyZorroController\n        nonReentrant\n        whenNotPaused\n        returns (uint256 sharesRemoved)\n    {\n        // Preflight checks\n        require(_wantAmt > 0, \"want amt <= 0\");\n\n        // Shares removed is proportional to the % of total Want tokens locked that _wantAmt represents\n        sharesRemoved = _wantAmt.mul(sharesTotal).div(wantLockedTotal);\n        // Safety: cap the shares to the total number of shares\n        if (sharesRemoved > sharesTotal) {\n            sharesRemoved = sharesTotal;\n        }\n        // Decrement the total shares by the sharesRemoved\n        sharesTotal = sharesTotal.sub(sharesRemoved);\n        userShares[_account] = userShares[_account].sub(sharesRemoved);\n\n        // If a withdrawal fee is specified, discount the _wantAmt by the withdrawal fee\n        if (withdrawFeeFactor < withdrawFeeFactorMax) {\n            _wantAmt = _wantAmt.mul(withdrawFeeFactor).div(\n                withdrawFeeFactorMax\n            );\n        }\n\n        // Unfarm Want token\n        uint256 _wantUnfarmed = _unfarm(_wantAmt);\n\n        // Finally, transfer the want amount from this contract, back to the ZorroController contract\n        IERC20Upgradeable(wantAddress).safeTransfer(\n            zorroControllerAddress,\n            _wantUnfarmed\n        );\n    }\n\n    /// @notice Converts Want token back into USD to be ready for withdrawal, transfers back to sender\n    /// @param _amount The Want token quantity to exchange\n    /// @param _maxMarketMovementAllowed The max slippage allowed for swaps. 1000 = 0 %, 995 = 0.5%, etc.\n    /// @return uint256 Amount of USDC token obtained\n    function exchangeWantTokenForUSD(\n        uint256 _amount,\n        uint256 _maxMarketMovementAllowed\n    )\n        public\n        virtual\n        override\n        onlyZorroController\n        whenNotPaused\n        returns (uint256)\n    {\n        // Preflight checks\n        require(_amount > 0, \"Want amt must be > 0\");\n\n        // Safely transfer Want token from sender\n        IERC20Upgradeable(wantAddress).safeTransferFrom(\n            msg.sender,\n            address(this),\n            _amount\n        );\n\n        // Use price feed to determine exchange rates\n        uint256 _token0ExchangeRate = token0PriceFeed.getExchangeRate();\n        uint256 _token1ExchangeRate = token1PriceFeed.getExchangeRate();\n\n        // revert(\"pre exit pool\");\n\n        // Exit LP pool\n        _exitPool(_amount, _maxMarketMovementAllowed, address(this));\n\n        // Swap tokens back to USDC\n        uint256 token0Amt = IERC20Upgradeable(token0Address).balanceOf(\n            address(this)\n        );\n        uint256 token1Amt = IERC20Upgradeable(token1Address).balanceOf(\n            address(this)\n        );\n\n        // Increase allowance\n        IERC20Upgradeable(token0Address).safeIncreaseAllowance(\n            uniRouterAddress,\n            token0Amt\n        );\n        IERC20Upgradeable(token1Address).safeIncreaseAllowance(\n            uniRouterAddress,\n            token1Amt\n        );\n\n        // Swap token0 for USDC\n        IAMMRouter02(uniRouterAddress).safeSwap(\n            token0Amt,\n            _token0ExchangeRate,\n            1e12,\n            _maxMarketMovementAllowed,\n            token0ToUSDCPath,\n            msg.sender,\n            block.timestamp.add(600)\n        );\n\n        // Swap token1 for USDC\n        IAMMRouter02(uniRouterAddress).safeSwap(\n            token1Amt,\n            _token1ExchangeRate,\n            1e12,\n            _maxMarketMovementAllowed,\n            token1ToUSDCPath,\n            msg.sender,\n            block.timestamp.add(600)\n        );\n\n        // Calculate USDC balance\n        return IERC20(tokenUSDCAddress).balanceOf(msg.sender);\n    }\n\n    /// @notice Adds liquidity to the pool of this contract\n    /// @param _token0Amt Quantity of Token0 to add\n    /// @param _token1Amt Quantity of Token1 to add\n    /// @param _maxMarketMovementAllowed The max slippage allowed for swaps. 1000 = 0 %, 995 = 0.5%, etc.\n    /// @param _recipient The recipient of the LP token\n    function _joinPool(\n        uint256 _token0Amt,\n        uint256 _token1Amt,\n        uint256 _maxMarketMovementAllowed,\n        address _recipient\n    ) internal {\n        IAMMRouter02(uniRouterAddress).addLiquidity(\n            token0Address,\n            token1Address,\n            _token0Amt,\n            _token1Amt,\n            _token0Amt.mul(_maxMarketMovementAllowed).div(1000),\n            _token1Amt.mul(_maxMarketMovementAllowed).div(1000),\n            _recipient,\n            block.timestamp.add(600)\n        );\n    }\n\n    /// @notice Removes liquidity from a pool and sends tokens back to this address\n    /// @param _amountLP The amount of LP (Want) tokens to remove\n    /// @param _maxMarketMovementAllowed The max slippage allowed for swaps. 1000 = 0 %, 995 = 0.5%, etc.\n    /// @param _recipient The recipient of the underlying tokens at pool exit\n    function _exitPool(\n        uint256 _amountLP,\n        uint256 _maxMarketMovementAllowed,\n        address _recipient\n    ) internal {\n        // Get token balances in LP pool\n        uint256 _balance0 = IERC20Upgradeable(token0Address).balanceOf(\n            poolAddress\n        );\n        uint256 _balance1 = IERC20Upgradeable(token1Address).balanceOf(\n            poolAddress\n        );\n\n        // Get total supply and calculate min amounts desired based on slippage\n        uint256 _totalSupply = IERC20Upgradeable(poolAddress).totalSupply();\n        uint256 _amount0Min = (_amountLP.mul(_balance0).div(_totalSupply))\n            .mul(_maxMarketMovementAllowed)\n            .div(1000);\n        uint256 _amount1Min = (_amountLP.mul(_balance1).div(_totalSupply))\n            .mul(_maxMarketMovementAllowed)\n            .div(1000);\n\n        // Approve\n        IERC20Upgradeable(wantAddress).safeIncreaseAllowance(\n            uniRouterAddress,\n            _amountLP\n        );\n\n        // Remove liquidity\n        IAMMRouter02(uniRouterAddress).removeLiquidity(\n            token0Address,\n            token1Address,\n            _amountLP,\n            _amount0Min,\n            _amount1Min,\n            _recipient,\n            block.timestamp.add(600)\n        );\n    }\n\n    /// @notice The main compounding (earn) function. Reinvests profits since the last earn event.\n    /// @param _maxMarketMovementAllowed The max slippage allowed. 1000 = 0 %, 995 = 0.5%, etc.\n    function earn(uint256 _maxMarketMovementAllowed)\n        public\n        override\n        nonReentrant\n        whenNotPaused\n    {\n        // If onlyGov is set to true, only allow to proceed if the current caller is the govAddress\n        if (onlyGov) {\n            require(msg.sender == govAddress, \"!gov\");\n        }\n\n        // Harvest farm tokens\n        _unfarm(0);\n\n        // Get the balance of the Earned token on this contract (CAKE, BANANA, etc.)\n        uint256 _earnedAmt = IERC20Upgradeable(earnedAddress).balanceOf(\n            address(this)\n        );\n\n        // Create rates struct\n        ExchangeRates memory _rates = ExchangeRates({\n            earn: earnTokenPriceFeed.getExchangeRate(),\n            ZOR: ZORPriceFeed.getExchangeRate(),\n            lpPoolOtherToken: lpPoolOtherTokenPriceFeed.getExchangeRate()\n        });\n\n        // Distribute fees\n        uint256 _controllerFee = _distributeFees(_earnedAmt);\n\n        // Buyback & rev share\n        (uint256 _buybackAmt, uint256 _revShareAmt) = _buyBackAndRevShare(\n            _earnedAmt,\n            _maxMarketMovementAllowed,\n            _rates\n        );\n\n        // Allow the router contract to spen up to earnedAmt\n        IERC20Upgradeable(earnedAddress).safeIncreaseAllowance(\n            uniRouterAddress,\n            _earnedAmt\n        );\n\n        // Swap Earned token to token0 if token0 is not the Earned token\n        if (earnedAddress != token0Address) {\n            // Swap half earned to token0\n            IAMMRouter02(uniRouterAddress).safeSwap(\n                (\n                    _earnedAmt.sub(_controllerFee).sub(_buybackAmt).sub(\n                        _revShareAmt\n                    )\n                ).div(2),\n                _rates.earn,\n                token0PriceFeed.getExchangeRate(),\n                _maxMarketMovementAllowed,\n                earnedToToken0Path,\n                address(this),\n                block.timestamp.add(600)\n            );\n        }\n\n        // Swap Earned token to token1 if token0 is not the Earned token\n        if (earnedAddress != token1Address) {\n            // Swap half earned to token1\n            IAMMRouter02(uniRouterAddress).safeSwap(\n                (\n                    _earnedAmt.sub(_controllerFee).sub(_buybackAmt).sub(\n                        _revShareAmt\n                    )\n                ).div(2),\n                _rates.earn,\n                token1PriceFeed.getExchangeRate(),\n                _maxMarketMovementAllowed,\n                earnedToToken1Path,\n                address(this),\n                block.timestamp.add(600)\n            );\n        }\n\n        // Get values of tokens 0 and 1\n        uint256 token0Amt = IERC20Upgradeable(token0Address).balanceOf(\n            address(this)\n        );\n        uint256 token1Amt = IERC20Upgradeable(token1Address).balanceOf(\n            address(this)\n        );\n\n        // Provided that token0 and token1 are both > 0, add liquidity\n        if (token0Amt > 0 && token1Amt > 0) {\n            // Increase the allowance of the router to spend token0\n            IERC20Upgradeable(token0Address).safeIncreaseAllowance(\n                uniRouterAddress,\n                token0Amt\n            );\n            // Increase the allowance of the router to spend token1\n            IERC20Upgradeable(token1Address).safeIncreaseAllowance(\n                uniRouterAddress,\n                token1Amt\n            );\n            // Add liquidity\n            _joinPool(\n                token0Amt,\n                token1Amt,\n                _maxMarketMovementAllowed,\n                address(this)\n            );\n        }\n\n        // Update last earned block\n        lastEarnBlock = block.number;\n\n        // Farm Want token\n        _farm();\n    }\n\n    /// @notice Buys back the earned token on-chain, swaps it to add liquidity to the ZOR pool, then burns the associated LP token\n    /// @dev Requires funds to be sent to this address before calling. Can be called internally OR by controller\n    /// @param _amount The amount of Earn token to buy back\n    /// @param _maxMarketMovementAllowed Slippage factor. 950 = 5%, 990 = 1%, etc.\n    function _buybackOnChain(\n        uint256 _amount,\n        uint256 _maxMarketMovementAllowed,\n        ExchangeRates memory _rates\n    ) internal override {\n        // Authorize spending beforehand\n        IERC20Upgradeable(earnedAddress).safeIncreaseAllowance(\n            uniRouterAddress,\n            _amount\n        );\n\n        // Swap to ZOR Token\n        IAMMRouter02(uniRouterAddress).safeSwap(\n            _amount.div(2),\n            _rates.earn,\n            _rates.ZOR,\n            _maxMarketMovementAllowed,\n            earnedToZORROPath,\n            address(this),\n            block.timestamp.add(600)\n        );\n        // Swap to Other token\n        IAMMRouter02(uniRouterAddress).safeSwap(\n            _amount.div(2),\n            _rates.earn,\n            _rates.lpPoolOtherToken,\n            _maxMarketMovementAllowed,\n            earnedToZORLPPoolOtherTokenPath,\n            address(this),\n            block.timestamp.add(600)\n        );\n\n        // Enter LP pool and send received token to the burn address\n        uint256 zorroTokenAmt = IERC20Upgradeable(ZORROAddress).balanceOf(\n            address(this)\n        );\n        uint256 otherTokenAmt = IERC20Upgradeable(zorroLPPoolOtherToken)\n            .balanceOf(address(this));\n\n        IERC20Upgradeable(ZORROAddress).safeIncreaseAllowance(\n            uniRouterAddress,\n            zorroTokenAmt\n        );\n        IERC20Upgradeable(zorroLPPoolOtherToken).safeIncreaseAllowance(\n            uniRouterAddress,\n            otherTokenAmt\n        );\n\n        IAMMRouter02(uniRouterAddress).addLiquidity(\n            ZORROAddress,\n            zorroLPPoolOtherToken,\n            zorroTokenAmt,\n            otherTokenAmt,\n            zorroTokenAmt.mul(_maxMarketMovementAllowed).div(1000),\n            otherTokenAmt.mul(_maxMarketMovementAllowed).div(1000),\n            burnAddress,\n            block.timestamp.add(600)\n        );\n    }\n\n    /// @notice Sends the specified earnings amount as revenue share to ZOR stakers\n    /// @param _amount The amount of Earn token to share as revenue with ZOR stakers\n    function _revShareOnChain(\n        uint256 _amount,\n        uint256 _maxMarketMovementAllowed,\n        ExchangeRates memory _rates\n    ) internal override {\n        // Authorize spending beforehand\n        IERC20Upgradeable(earnedAddress).safeIncreaseAllowance(\n            uniRouterAddress,\n            _amount\n        );\n\n        // Swap to ZOR\n        IAMMRouter02(uniRouterAddress).safeSwap(\n            _amount,\n            _rates.earn,\n            _rates.ZOR,\n            _maxMarketMovementAllowed,\n            earnedToZORROPath,\n            zorroStakingVault,\n            block.timestamp.add(600)\n        );\n    }\n\n    /// @notice Swaps Earn token to USDC and sends to destination specified\n    /// @param _earnedAmount Quantity of Earned tokens\n    /// @param _destination Address to send swapped USDC to\n    /// @param _maxMarketMovementAllowed Slippage factor. 950 = 5%, 990 = 1%, etc.\n    function _swapEarnedToUSDC(\n        uint256 _earnedAmount,\n        address _destination,\n        uint256 _maxMarketMovementAllowed,\n        ExchangeRates memory _rates\n    ) internal override {\n        // Increase allowance\n        IERC20Upgradeable(earnedAddress).safeIncreaseAllowance(\n            uniRouterAddress,\n            _earnedAmount\n        );\n\n        // Perform swap with Uni router\n        IAMMRouter02(uniRouterAddress).safeSwap(\n            _earnedAmount,\n            _rates.earn,\n            1e12,\n            _maxMarketMovementAllowed,\n            earnedToUSDCPath,\n            _destination,\n            block.timestamp.add(600)\n        );\n    }\n}\n",
  "sourcePath": "/Users/kristophm/Documents/workspace/zorro-protocol/contracts/vaults/VaultStandardAMM.sol",
  "compiler": {
    "name": "solc",
    "version": "0.8.10+commit.fc410830.Emscripten.clang"
  },
  "schemaVersion": "3.4.4",
  "updatedAt": "2022-05-04T15:04:26.608Z",
  "networkType": "ethereum",
  "devdoc": {
    "kind": "dev",
    "methods": {
      "owner()": {
        "details": "Returns the address of the current owner."
      },
      "renounceOwnership()": {
        "details": "Leaves the contract without owner. It will not be possible to call `onlyOwner` functions anymore. Can only be called by the current owner. NOTE: Renouncing ownership will leave the contract without an owner, thereby removing any functionality that is only available to the owner."
      },
      "transferOwnership(address)": {
        "details": "Transfers ownership of the contract to a new account (`newOwner`). Can only be called by the current owner."
      }
    },
    "title": "Vault factory for VaultStandardAMM",
    "version": 1
  },
  "userdoc": {
    "kind": "user",
    "methods": {},
    "version": 1
  }
}