{
  "contractName": "VaultBenqiLiqStakeLP",
  "abi": [
    {
      "anonymous": false,
      "inputs": [
        {
          "indexed": true,
          "internalType": "uint256",
          "name": "_amount",
          "type": "uint256"
        }
      ],
      "name": "Buyback",
      "type": "event"
    },
    {
      "anonymous": false,
      "inputs": [
        {
          "indexed": true,
          "internalType": "address",
          "name": "previousOwner",
          "type": "address"
        },
        {
          "indexed": true,
          "internalType": "address",
          "name": "newOwner",
          "type": "address"
        }
      ],
      "name": "OwnershipTransferred",
      "type": "event"
    },
    {
      "anonymous": false,
      "inputs": [
        {
          "indexed": false,
          "internalType": "address",
          "name": "account",
          "type": "address"
        }
      ],
      "name": "Paused",
      "type": "event"
    },
    {
      "anonymous": false,
      "inputs": [
        {
          "indexed": true,
          "internalType": "uint256",
          "name": "_amount",
          "type": "uint256"
        }
      ],
      "name": "RevShare",
      "type": "event"
    },
    {
      "anonymous": false,
      "inputs": [
        {
          "indexed": false,
          "internalType": "address",
          "name": "_govAddress",
          "type": "address"
        }
      ],
      "name": "SetGov",
      "type": "event"
    },
    {
      "anonymous": false,
      "inputs": [
        {
          "indexed": false,
          "internalType": "bool",
          "name": "_onlyGov",
          "type": "bool"
        }
      ],
      "name": "SetOnlyGov",
      "type": "event"
    },
    {
      "anonymous": false,
      "inputs": [
        {
          "indexed": false,
          "internalType": "address",
          "name": "_rewardsAddress",
          "type": "address"
        }
      ],
      "name": "SetRewardsAddress",
      "type": "event"
    },
    {
      "anonymous": false,
      "inputs": [
        {
          "indexed": false,
          "internalType": "uint256",
          "name": "_entranceFeeFactor",
          "type": "uint256"
        },
        {
          "indexed": false,
          "internalType": "uint256",
          "name": "_withdrawFeeFactor",
          "type": "uint256"
        },
        {
          "indexed": false,
          "internalType": "uint256",
          "name": "_controllerFee",
          "type": "uint256"
        },
        {
          "indexed": false,
          "internalType": "uint256",
          "name": "_buyBackRate",
          "type": "uint256"
        },
        {
          "indexed": false,
          "internalType": "uint256",
          "name": "_revShareRate",
          "type": "uint256"
        }
      ],
      "name": "SetSettings",
      "type": "event"
    },
    {
      "anonymous": false,
      "inputs": [
        {
          "indexed": false,
          "internalType": "address",
          "name": "_uniRouterAddress",
          "type": "address"
        }
      ],
      "name": "SetUniRouterAddress",
      "type": "event"
    },
    {
      "anonymous": false,
      "inputs": [
        {
          "indexed": false,
          "internalType": "address",
          "name": "account",
          "type": "address"
        }
      ],
      "name": "Unpaused",
      "type": "event"
    },
    {
      "inputs": [],
      "name": "ZORPriceFeed",
      "outputs": [
        {
          "internalType": "contract AggregatorV3Interface",
          "name": "",
          "type": "address"
        }
      ],
      "stateMutability": "view",
      "type": "function"
    },
    {
      "inputs": [],
      "name": "ZORROAddress",
      "outputs": [
        {
          "internalType": "address",
          "name": "",
          "type": "address"
        }
      ],
      "stateMutability": "view",
      "type": "function"
    },
    {
      "inputs": [],
      "name": "burnAddress",
      "outputs": [
        {
          "internalType": "address",
          "name": "",
          "type": "address"
        }
      ],
      "stateMutability": "view",
      "type": "function"
    },
    {
      "inputs": [],
      "name": "buyBackRate",
      "outputs": [
        {
          "internalType": "uint256",
          "name": "",
          "type": "uint256"
        }
      ],
      "stateMutability": "view",
      "type": "function"
    },
    {
      "inputs": [],
      "name": "buyBackRateMax",
      "outputs": [
        {
          "internalType": "uint256",
          "name": "",
          "type": "uint256"
        }
      ],
      "stateMutability": "view",
      "type": "function"
    },
    {
      "inputs": [],
      "name": "buyBackRateUL",
      "outputs": [
        {
          "internalType": "uint256",
          "name": "",
          "type": "uint256"
        }
      ],
      "stateMutability": "view",
      "type": "function"
    },
    {
      "inputs": [],
      "name": "controllerFee",
      "outputs": [
        {
          "internalType": "uint256",
          "name": "",
          "type": "uint256"
        }
      ],
      "stateMutability": "view",
      "type": "function"
    },
    {
      "inputs": [],
      "name": "controllerFeeMax",
      "outputs": [
        {
          "internalType": "uint256",
          "name": "",
          "type": "uint256"
        }
      ],
      "stateMutability": "view",
      "type": "function"
    },
    {
      "inputs": [],
      "name": "controllerFeeUL",
      "outputs": [
        {
          "internalType": "uint256",
          "name": "",
          "type": "uint256"
        }
      ],
      "stateMutability": "view",
      "type": "function"
    },
    {
      "inputs": [],
      "name": "defaultStablecoin",
      "outputs": [
        {
          "internalType": "address",
          "name": "",
          "type": "address"
        }
      ],
      "stateMutability": "view",
      "type": "function"
    },
    {
      "inputs": [
        {
          "internalType": "uint256",
          "name": "_wantAmt",
          "type": "uint256"
        }
      ],
      "name": "depositWantToken",
      "outputs": [
        {
          "internalType": "uint256",
          "name": "sharesAdded",
          "type": "uint256"
        }
      ],
      "stateMutability": "nonpayable",
      "type": "function"
    },
    {
      "inputs": [
        {
          "internalType": "uint256",
          "name": "_maxMarketMovementAllowed",
          "type": "uint256"
        }
      ],
      "name": "earn",
      "outputs": [],
      "stateMutability": "nonpayable",
      "type": "function"
    },
    {
      "inputs": [],
      "name": "earnTokenPriceFeed",
      "outputs": [
        {
          "internalType": "contract AggregatorV3Interface",
          "name": "",
          "type": "address"
        }
      ],
      "stateMutability": "view",
      "type": "function"
    },
    {
      "inputs": [],
      "name": "earnedAddress",
      "outputs": [
        {
          "internalType": "address",
          "name": "",
          "type": "address"
        }
      ],
      "stateMutability": "view",
      "type": "function"
    },
    {
      "inputs": [
        {
          "internalType": "uint256",
          "name": "",
          "type": "uint256"
        }
      ],
      "name": "earnedToStablecoinPath",
      "outputs": [
        {
          "internalType": "address",
          "name": "",
          "type": "address"
        }
      ],
      "stateMutability": "view",
      "type": "function"
    },
    {
      "inputs": [
        {
          "internalType": "uint256",
          "name": "",
          "type": "uint256"
        }
      ],
      "name": "earnedToToken0Path",
      "outputs": [
        {
          "internalType": "address",
          "name": "",
          "type": "address"
        }
      ],
      "stateMutability": "view",
      "type": "function"
    },
    {
      "inputs": [
        {
          "internalType": "uint256",
          "name": "",
          "type": "uint256"
        }
      ],
      "name": "earnedToToken1Path",
      "outputs": [
        {
          "internalType": "address",
          "name": "",
          "type": "address"
        }
      ],
      "stateMutability": "view",
      "type": "function"
    },
    {
      "inputs": [
        {
          "internalType": "uint256",
          "name": "",
          "type": "uint256"
        }
      ],
      "name": "earnedToZORLPPoolOtherTokenPath",
      "outputs": [
        {
          "internalType": "address",
          "name": "",
          "type": "address"
        }
      ],
      "stateMutability": "view",
      "type": "function"
    },
    {
      "inputs": [
        {
          "internalType": "uint256",
          "name": "",
          "type": "uint256"
        }
      ],
      "name": "earnedToZORROPath",
      "outputs": [
        {
          "internalType": "address",
          "name": "",
          "type": "address"
        }
      ],
      "stateMutability": "view",
      "type": "function"
    },
    {
      "inputs": [],
      "name": "entranceFeeFactor",
      "outputs": [
        {
          "internalType": "uint256",
          "name": "",
          "type": "uint256"
        }
      ],
      "stateMutability": "view",
      "type": "function"
    },
    {
      "inputs": [],
      "name": "entranceFeeFactorLL",
      "outputs": [
        {
          "internalType": "uint256",
          "name": "",
          "type": "uint256"
        }
      ],
      "stateMutability": "view",
      "type": "function"
    },
    {
      "inputs": [],
      "name": "entranceFeeFactorMax",
      "outputs": [
        {
          "internalType": "uint256",
          "name": "",
          "type": "uint256"
        }
      ],
      "stateMutability": "view",
      "type": "function"
    },
    {
      "inputs": [
        {
          "internalType": "uint256",
          "name": "_amountUSD",
          "type": "uint256"
        },
        {
          "internalType": "uint256",
          "name": "_maxMarketMovementAllowed",
          "type": "uint256"
        }
      ],
      "name": "exchangeUSDForWantToken",
      "outputs": [
        {
          "internalType": "uint256",
          "name": "",
          "type": "uint256"
        }
      ],
      "stateMutability": "nonpayable",
      "type": "function"
    },
    {
      "inputs": [
        {
          "internalType": "uint256",
          "name": "_amount",
          "type": "uint256"
        },
        {
          "internalType": "uint256",
          "name": "_maxMarketMovementAllowed",
          "type": "uint256"
        }
      ],
      "name": "exchangeWantTokenForUSD",
      "outputs": [
        {
          "internalType": "uint256",
          "name": "returnedUSD",
          "type": "uint256"
        }
      ],
      "stateMutability": "nonpayable",
      "type": "function"
    },
    {
      "inputs": [],
      "name": "farm",
      "outputs": [],
      "stateMutability": "nonpayable",
      "type": "function"
    },
    {
      "inputs": [],
      "name": "farmContractAddress",
      "outputs": [
        {
          "internalType": "address",
          "name": "",
          "type": "address"
        }
      ],
      "stateMutability": "view",
      "type": "function"
    },
    {
      "inputs": [],
      "name": "govAddress",
      "outputs": [
        {
          "internalType": "address",
          "name": "",
          "type": "address"
        }
      ],
      "stateMutability": "view",
      "type": "function"
    },
    {
      "inputs": [
        {
          "internalType": "address",
          "name": "_token",
          "type": "address"
        },
        {
          "internalType": "uint256",
          "name": "_amount",
          "type": "uint256"
        },
        {
          "internalType": "address",
          "name": "_to",
          "type": "address"
        }
      ],
      "name": "inCaseTokensGetStuck",
      "outputs": [],
      "stateMutability": "nonpayable",
      "type": "function"
    },
    {
      "inputs": [
        {
          "internalType": "address",
          "name": "_timelockOwner",
          "type": "address"
        },
        {
          "components": [
            {
              "internalType": "uint256",
              "name": "pid",
              "type": "uint256"
            },
            {
              "internalType": "bool",
              "name": "isHomeChain",
              "type": "bool"
            },
            {
              "internalType": "bool",
              "name": "isFarmable",
              "type": "bool"
            },
            {
              "components": [
                {
                  "internalType": "address",
                  "name": "govAddress",
                  "type": "address"
                },
                {
                  "internalType": "address",
                  "name": "zorroControllerAddress",
                  "type": "address"
                },
                {
                  "internalType": "address",
                  "name": "zorroXChainController",
                  "type": "address"
                },
                {
                  "internalType": "address",
                  "name": "ZORROAddress",
                  "type": "address"
                },
                {
                  "internalType": "address",
                  "name": "zorroStakingVault",
                  "type": "address"
                },
                {
                  "internalType": "address",
                  "name": "wantAddress",
                  "type": "address"
                },
                {
                  "internalType": "address",
                  "name": "token0Address",
                  "type": "address"
                },
                {
                  "internalType": "address",
                  "name": "token1Address",
                  "type": "address"
                },
                {
                  "internalType": "address",
                  "name": "earnedAddress",
                  "type": "address"
                },
                {
                  "internalType": "address",
                  "name": "farmContractAddress",
                  "type": "address"
                },
                {
                  "internalType": "address",
                  "name": "rewardsAddress",
                  "type": "address"
                },
                {
                  "internalType": "address",
                  "name": "poolAddress",
                  "type": "address"
                },
                {
                  "internalType": "address",
                  "name": "uniRouterAddress",
                  "type": "address"
                },
                {
                  "internalType": "address",
                  "name": "zorroLPPool",
                  "type": "address"
                },
                {
                  "internalType": "address",
                  "name": "zorroLPPoolOtherToken",
                  "type": "address"
                },
                {
                  "internalType": "address",
                  "name": "defaultStablecoin",
                  "type": "address"
                }
              ],
              "internalType": "struct VaultActions.VaultAddresses",
              "name": "keyAddresses",
              "type": "tuple"
            },
            {
              "internalType": "address",
              "name": "liquidStakeToken",
              "type": "address"
            },
            {
              "internalType": "address",
              "name": "liquidStakingPool",
              "type": "address"
            },
            {
              "internalType": "address[]",
              "name": "earnedToZORROPath",
              "type": "address[]"
            },
            {
              "internalType": "address[]",
              "name": "earnedToToken0Path",
              "type": "address[]"
            },
            {
              "internalType": "address[]",
              "name": "stablecoinToToken0Path",
              "type": "address[]"
            },
            {
              "internalType": "address[]",
              "name": "earnedToZORLPPoolOtherTokenPath",
              "type": "address[]"
            },
            {
              "internalType": "address[]",
              "name": "earnedToStablecoinPath",
              "type": "address[]"
            },
            {
              "internalType": "address[]",
              "name": "stablecoinToZORROPath",
              "type": "address[]"
            },
            {
              "internalType": "address[]",
              "name": "stablecoinToLPPoolOtherTokenPath",
              "type": "address[]"
            },
            {
              "internalType": "address[]",
              "name": "liquidStakeToToken0Path",
              "type": "address[]"
            },
            {
              "components": [
                {
                  "internalType": "uint256",
                  "name": "controllerFee",
                  "type": "uint256"
                },
                {
                  "internalType": "uint256",
                  "name": "buyBackRate",
                  "type": "uint256"
                },
                {
                  "internalType": "uint256",
                  "name": "revShareRate",
                  "type": "uint256"
                },
                {
                  "internalType": "uint256",
                  "name": "entranceFeeFactor",
                  "type": "uint256"
                },
                {
                  "internalType": "uint256",
                  "name": "withdrawFeeFactor",
                  "type": "uint256"
                }
              ],
              "internalType": "struct VaultActions.VaultFees",
              "name": "fees",
              "type": "tuple"
            },
            {
              "components": [
                {
                  "internalType": "address",
                  "name": "token0PriceFeed",
                  "type": "address"
                },
                {
                  "internalType": "address",
                  "name": "earnTokenPriceFeed",
                  "type": "address"
                },
                {
                  "internalType": "address",
                  "name": "ZORPriceFeed",
                  "type": "address"
                },
                {
                  "internalType": "address",
                  "name": "lpPoolOtherTokenPriceFeed",
                  "type": "address"
                },
                {
                  "internalType": "address",
                  "name": "stablecoinPriceFeed",
                  "type": "address"
                },
                {
                  "internalType": "address",
                  "name": "liquidStakeTokenPriceFeed",
                  "type": "address"
                }
              ],
              "internalType": "struct VaultBaseLiqStakeLP.VaultBaseLiqStakeLPPriceFeeds",
              "name": "priceFeeds",
              "type": "tuple"
            },
            {
              "internalType": "uint256",
              "name": "maxMarketMovementAllowed",
              "type": "uint256"
            }
          ],
          "internalType": "struct VaultBaseLiqStakeLP.VaultBaseLiqStakeLPInit",
          "name": "_initValue",
          "type": "tuple"
        }
      ],
      "name": "initialize",
      "outputs": [],
      "stateMutability": "nonpayable",
      "type": "function"
    },
    {
      "inputs": [
        {
          "internalType": "address",
          "name": "_timelockOwner",
          "type": "address"
        }
      ],
      "name": "initialize",
      "outputs": [],
      "stateMutability": "nonpayable",
      "type": "function"
    },
    {
      "inputs": [],
      "name": "isFarmable",
      "outputs": [
        {
          "internalType": "bool",
          "name": "",
          "type": "bool"
        }
      ],
      "stateMutability": "view",
      "type": "function"
    },
    {
      "inputs": [],
      "name": "isHomeChain",
      "outputs": [
        {
          "internalType": "bool",
          "name": "",
          "type": "bool"
        }
      ],
      "stateMutability": "view",
      "type": "function"
    },
    {
      "inputs": [],
      "name": "lastEarnBlock",
      "outputs": [
        {
          "internalType": "uint256",
          "name": "",
          "type": "uint256"
        }
      ],
      "stateMutability": "view",
      "type": "function"
    },
    {
      "inputs": [
        {
          "internalType": "uint256",
          "name": "",
          "type": "uint256"
        }
      ],
      "name": "liquidStakeToToken0Path",
      "outputs": [
        {
          "internalType": "address",
          "name": "",
          "type": "address"
        }
      ],
      "stateMutability": "view",
      "type": "function"
    },
    {
      "inputs": [],
      "name": "liquidStakeToken",
      "outputs": [
        {
          "internalType": "address",
          "name": "",
          "type": "address"
        }
      ],
      "stateMutability": "view",
      "type": "function"
    },
    {
      "inputs": [],
      "name": "liquidStakeTokenPriceFeed",
      "outputs": [
        {
          "internalType": "contract AggregatorV3Interface",
          "name": "",
          "type": "address"
        }
      ],
      "stateMutability": "view",
      "type": "function"
    },
    {
      "inputs": [],
      "name": "liquidStakingPool",
      "outputs": [
        {
          "internalType": "address",
          "name": "",
          "type": "address"
        }
      ],
      "stateMutability": "view",
      "type": "function"
    },
    {
      "inputs": [],
      "name": "lpPoolOtherTokenPriceFeed",
      "outputs": [
        {
          "internalType": "contract AggregatorV3Interface",
          "name": "",
          "type": "address"
        }
      ],
      "stateMutability": "view",
      "type": "function"
    },
    {
      "inputs": [],
      "name": "maxMarketMovementAllowed",
      "outputs": [
        {
          "internalType": "uint256",
          "name": "",
          "type": "uint256"
        }
      ],
      "stateMutability": "view",
      "type": "function"
    },
    {
      "inputs": [],
      "name": "onlyGov",
      "outputs": [
        {
          "internalType": "bool",
          "name": "",
          "type": "bool"
        }
      ],
      "stateMutability": "view",
      "type": "function"
    },
    {
      "inputs": [],
      "name": "owner",
      "outputs": [
        {
          "internalType": "address",
          "name": "",
          "type": "address"
        }
      ],
      "stateMutability": "view",
      "type": "function"
    },
    {
      "inputs": [],
      "name": "pause",
      "outputs": [],
      "stateMutability": "nonpayable",
      "type": "function"
    },
    {
      "inputs": [],
      "name": "paused",
      "outputs": [
        {
          "internalType": "bool",
          "name": "",
          "type": "bool"
        }
      ],
      "stateMutability": "view",
      "type": "function"
    },
    {
      "inputs": [],
      "name": "pid",
      "outputs": [
        {
          "internalType": "uint256",
          "name": "",
          "type": "uint256"
        }
      ],
      "stateMutability": "view",
      "type": "function"
    },
    {
      "inputs": [],
      "name": "poolAddress",
      "outputs": [
        {
          "internalType": "address",
          "name": "",
          "type": "address"
        }
      ],
      "stateMutability": "view",
      "type": "function"
    },
    {
      "inputs": [],
      "name": "renounceOwnership",
      "outputs": [],
      "stateMutability": "nonpayable",
      "type": "function"
    },
    {
      "inputs": [],
      "name": "revShareRate",
      "outputs": [
        {
          "internalType": "uint256",
          "name": "",
          "type": "uint256"
        }
      ],
      "stateMutability": "view",
      "type": "function"
    },
    {
      "inputs": [],
      "name": "revShareRateMax",
      "outputs": [
        {
          "internalType": "uint256",
          "name": "",
          "type": "uint256"
        }
      ],
      "stateMutability": "view",
      "type": "function"
    },
    {
      "inputs": [],
      "name": "revShareRateUL",
      "outputs": [
        {
          "internalType": "uint256",
          "name": "",
          "type": "uint256"
        }
      ],
      "stateMutability": "view",
      "type": "function"
    },
    {
      "inputs": [],
      "name": "rewardsAddress",
      "outputs": [
        {
          "internalType": "address",
          "name": "",
          "type": "address"
        }
      ],
      "stateMutability": "view",
      "type": "function"
    },
    {
      "inputs": [
        {
          "internalType": "address",
          "name": "_burnAddress",
          "type": "address"
        }
      ],
      "name": "setBurnAddress",
      "outputs": [],
      "stateMutability": "nonpayable",
      "type": "function"
    },
    {
      "inputs": [
        {
          "internalType": "address",
          "name": "_defaultStablecoin",
          "type": "address"
        }
      ],
      "name": "setDefaultStablecoin",
      "outputs": [],
      "stateMutability": "nonpayable",
      "type": "function"
    },
    {
      "inputs": [
        {
          "internalType": "address",
          "name": "_earnedAddress",
          "type": "address"
        }
      ],
      "name": "setEarnedAddress",
      "outputs": [],
      "stateMutability": "nonpayable",
      "type": "function"
    },
    {
      "inputs": [
        {
          "internalType": "address",
          "name": "_farmContractAddress",
          "type": "address"
        }
      ],
      "name": "setFarmContractAddress",
      "outputs": [],
      "stateMutability": "nonpayable",
      "type": "function"
    },
    {
      "inputs": [
        {
          "internalType": "uint256",
          "name": "_entranceFeeFactor",
          "type": "uint256"
        },
        {
          "internalType": "uint256",
          "name": "_withdrawFeeFactor",
          "type": "uint256"
        },
        {
          "internalType": "uint256",
          "name": "_controllerFee",
          "type": "uint256"
        },
        {
          "internalType": "uint256",
          "name": "_buyBackRate",
          "type": "uint256"
        },
        {
          "internalType": "uint256",
          "name": "_revShareRate",
          "type": "uint256"
        }
      ],
      "name": "setFeeSettings",
      "outputs": [],
      "stateMutability": "nonpayable",
      "type": "function"
    },
    {
      "inputs": [
        {
          "internalType": "address",
          "name": "_govAddress",
          "type": "address"
        }
      ],
      "name": "setGov",
      "outputs": [],
      "stateMutability": "nonpayable",
      "type": "function"
    },
    {
      "inputs": [
        {
          "internalType": "bool",
          "name": "_isFarmable",
          "type": "bool"
        }
      ],
      "name": "setIsFarmable",
      "outputs": [],
      "stateMutability": "nonpayable",
      "type": "function"
    },
    {
      "inputs": [
        {
          "internalType": "uint256",
          "name": "_slippageNumerator",
          "type": "uint256"
        }
      ],
      "name": "setMaxMarketMovementAllowed",
      "outputs": [],
      "stateMutability": "nonpayable",
      "type": "function"
    },
    {
      "inputs": [
        {
          "internalType": "bool",
          "name": "_onlyGov",
          "type": "bool"
        }
      ],
      "name": "setOnlyGov",
      "outputs": [],
      "stateMutability": "nonpayable",
      "type": "function"
    },
    {
      "inputs": [
        {
          "internalType": "uint256",
          "name": "_pid",
          "type": "uint256"
        }
      ],
      "name": "setPid",
      "outputs": [],
      "stateMutability": "nonpayable",
      "type": "function"
    },
    {
      "inputs": [
        {
          "internalType": "address",
          "name": "_poolAddress",
          "type": "address"
        }
      ],
      "name": "setPoolAddress",
      "outputs": [],
      "stateMutability": "nonpayable",
      "type": "function"
    },
    {
      "inputs": [
        {
          "internalType": "uint8",
          "name": "_idx",
          "type": "uint8"
        },
        {
          "internalType": "address",
          "name": "_priceFeed",
          "type": "address"
        }
      ],
      "name": "setPriceFeed",
      "outputs": [],
      "stateMutability": "nonpayable",
      "type": "function"
    },
    {
      "inputs": [
        {
          "internalType": "address",
          "name": "_rewardsAddress",
          "type": "address"
        }
      ],
      "name": "setRewardsAddress",
      "outputs": [],
      "stateMutability": "nonpayable",
      "type": "function"
    },
    {
      "inputs": [
        {
          "internalType": "uint8",
          "name": "_idx",
          "type": "uint8"
        },
        {
          "internalType": "address[]",
          "name": "_path",
          "type": "address[]"
        }
      ],
      "name": "setStablecoinSwapPaths",
      "outputs": [],
      "stateMutability": "nonpayable",
      "type": "function"
    },
    {
      "inputs": [
        {
          "internalType": "uint8",
          "name": "_idx",
          "type": "uint8"
        },
        {
          "internalType": "address[]",
          "name": "_path",
          "type": "address[]"
        }
      ],
      "name": "setSwapPaths",
      "outputs": [],
      "stateMutability": "nonpayable",
      "type": "function"
    },
    {
      "inputs": [
        {
          "internalType": "address",
          "name": "_token0Address",
          "type": "address"
        }
      ],
      "name": "setToken0Address",
      "outputs": [],
      "stateMutability": "nonpayable",
      "type": "function"
    },
    {
      "inputs": [
        {
          "internalType": "address",
          "name": "_token1Address",
          "type": "address"
        }
      ],
      "name": "setToken1Address",
      "outputs": [],
      "stateMutability": "nonpayable",
      "type": "function"
    },
    {
      "inputs": [
        {
          "internalType": "address",
          "name": "_uniRouterAddress",
          "type": "address"
        }
      ],
      "name": "setUniRouterAddress",
      "outputs": [],
      "stateMutability": "nonpayable",
      "type": "function"
    },
    {
      "inputs": [
        {
          "internalType": "address",
          "name": "_wantAddress",
          "type": "address"
        }
      ],
      "name": "setWantAddress",
      "outputs": [],
      "stateMutability": "nonpayable",
      "type": "function"
    },
    {
      "inputs": [
        {
          "internalType": "address",
          "name": "_ZORROAddress",
          "type": "address"
        }
      ],
      "name": "setZORROAddress",
      "outputs": [],
      "stateMutability": "nonpayable",
      "type": "function"
    },
    {
      "inputs": [
        {
          "internalType": "address",
          "name": "_zorroControllerAddress",
          "type": "address"
        }
      ],
      "name": "setZorroControllerAddress",
      "outputs": [],
      "stateMutability": "nonpayable",
      "type": "function"
    },
    {
      "inputs": [
        {
          "internalType": "address",
          "name": "_poolAddress",
          "type": "address"
        }
      ],
      "name": "setZorroLPPoolAddress",
      "outputs": [],
      "stateMutability": "nonpayable",
      "type": "function"
    },
    {
      "inputs": [
        {
          "internalType": "address",
          "name": "_otherToken",
          "type": "address"
        }
      ],
      "name": "setZorroLPPoolOtherToken",
      "outputs": [],
      "stateMutability": "nonpayable",
      "type": "function"
    },
    {
      "inputs": [
        {
          "internalType": "address",
          "name": "_stakingVault",
          "type": "address"
        }
      ],
      "name": "setZorroStakingVault",
      "outputs": [],
      "stateMutability": "nonpayable",
      "type": "function"
    },
    {
      "inputs": [
        {
          "internalType": "address",
          "name": "_zorroXChainController",
          "type": "address"
        }
      ],
      "name": "setZorroXChainControllerAddress",
      "outputs": [],
      "stateMutability": "nonpayable",
      "type": "function"
    },
    {
      "inputs": [],
      "name": "sharesTotal",
      "outputs": [
        {
          "internalType": "uint256",
          "name": "",
          "type": "uint256"
        }
      ],
      "stateMutability": "view",
      "type": "function"
    },
    {
      "inputs": [],
      "name": "stablecoinPriceFeed",
      "outputs": [
        {
          "internalType": "contract AggregatorV3Interface",
          "name": "",
          "type": "address"
        }
      ],
      "stateMutability": "view",
      "type": "function"
    },
    {
      "inputs": [
        {
          "internalType": "uint256",
          "name": "",
          "type": "uint256"
        }
      ],
      "name": "stablecoinToLPPoolOtherTokenPath",
      "outputs": [
        {
          "internalType": "address",
          "name": "",
          "type": "address"
        }
      ],
      "stateMutability": "view",
      "type": "function"
    },
    {
      "inputs": [
        {
          "internalType": "uint256",
          "name": "",
          "type": "uint256"
        }
      ],
      "name": "stablecoinToToken0Path",
      "outputs": [
        {
          "internalType": "address",
          "name": "",
          "type": "address"
        }
      ],
      "stateMutability": "view",
      "type": "function"
    },
    {
      "inputs": [
        {
          "internalType": "uint256",
          "name": "",
          "type": "uint256"
        }
      ],
      "name": "stablecoinToToken1Path",
      "outputs": [
        {
          "internalType": "address",
          "name": "",
          "type": "address"
        }
      ],
      "stateMutability": "view",
      "type": "function"
    },
    {
      "inputs": [
        {
          "internalType": "uint256",
          "name": "",
          "type": "uint256"
        }
      ],
      "name": "stablecoinToZORROPath",
      "outputs": [
        {
          "internalType": "address",
          "name": "",
          "type": "address"
        }
      ],
      "stateMutability": "view",
      "type": "function"
    },
    {
      "inputs": [],
      "name": "token0Address",
      "outputs": [
        {
          "internalType": "address",
          "name": "",
          "type": "address"
        }
      ],
      "stateMutability": "view",
      "type": "function"
    },
    {
      "inputs": [],
      "name": "token0PriceFeed",
      "outputs": [
        {
          "internalType": "contract AggregatorV3Interface",
          "name": "",
          "type": "address"
        }
      ],
      "stateMutability": "view",
      "type": "function"
    },
    {
      "inputs": [
        {
          "internalType": "uint256",
          "name": "",
          "type": "uint256"
        }
      ],
      "name": "token0ToLiquidStakePath",
      "outputs": [
        {
          "internalType": "address",
          "name": "",
          "type": "address"
        }
      ],
      "stateMutability": "view",
      "type": "function"
    },
    {
      "inputs": [
        {
          "internalType": "uint256",
          "name": "",
          "type": "uint256"
        }
      ],
      "name": "token0ToStablecoinPath",
      "outputs": [
        {
          "internalType": "address",
          "name": "",
          "type": "address"
        }
      ],
      "stateMutability": "view",
      "type": "function"
    },
    {
      "inputs": [],
      "name": "token1Address",
      "outputs": [
        {
          "internalType": "address",
          "name": "",
          "type": "address"
        }
      ],
      "stateMutability": "view",
      "type": "function"
    },
    {
      "inputs": [],
      "name": "token1PriceFeed",
      "outputs": [
        {
          "internalType": "contract AggregatorV3Interface",
          "name": "",
          "type": "address"
        }
      ],
      "stateMutability": "view",
      "type": "function"
    },
    {
      "inputs": [
        {
          "internalType": "uint256",
          "name": "",
          "type": "uint256"
        }
      ],
      "name": "token1ToStablecoinPath",
      "outputs": [
        {
          "internalType": "address",
          "name": "",
          "type": "address"
        }
      ],
      "stateMutability": "view",
      "type": "function"
    },
    {
      "inputs": [
        {
          "internalType": "address",
          "name": "newOwner",
          "type": "address"
        }
      ],
      "name": "transferOwnership",
      "outputs": [],
      "stateMutability": "nonpayable",
      "type": "function"
    },
    {
      "inputs": [],
      "name": "uniRouterAddress",
      "outputs": [
        {
          "internalType": "address",
          "name": "",
          "type": "address"
        }
      ],
      "stateMutability": "view",
      "type": "function"
    },
    {
      "inputs": [],
      "name": "unpause",
      "outputs": [],
      "stateMutability": "nonpayable",
      "type": "function"
    },
    {
      "inputs": [],
      "name": "vaultActions",
      "outputs": [
        {
          "internalType": "address",
          "name": "",
          "type": "address"
        }
      ],
      "stateMutability": "view",
      "type": "function"
    },
    {
      "inputs": [],
      "name": "wantAddress",
      "outputs": [
        {
          "internalType": "address",
          "name": "",
          "type": "address"
        }
      ],
      "stateMutability": "view",
      "type": "function"
    },
    {
      "inputs": [],
      "name": "wantLockedTotal",
      "outputs": [
        {
          "internalType": "uint256",
          "name": "",
          "type": "uint256"
        }
      ],
      "stateMutability": "view",
      "type": "function"
    },
    {
      "inputs": [],
      "name": "withdrawFeeFactor",
      "outputs": [
        {
          "internalType": "uint256",
          "name": "",
          "type": "uint256"
        }
      ],
      "stateMutability": "view",
      "type": "function"
    },
    {
      "inputs": [],
      "name": "withdrawFeeFactorLL",
      "outputs": [
        {
          "internalType": "uint256",
          "name": "",
          "type": "uint256"
        }
      ],
      "stateMutability": "view",
      "type": "function"
    },
    {
      "inputs": [],
      "name": "withdrawFeeFactorMax",
      "outputs": [
        {
          "internalType": "uint256",
          "name": "",
          "type": "uint256"
        }
      ],
      "stateMutability": "view",
      "type": "function"
    },
    {
      "inputs": [
        {
          "internalType": "uint256",
          "name": "_wantAmt",
          "type": "uint256"
        }
      ],
      "name": "withdrawWantToken",
      "outputs": [
        {
          "internalType": "uint256",
          "name": "sharesRemoved",
          "type": "uint256"
        }
      ],
      "stateMutability": "nonpayable",
      "type": "function"
    },
    {
      "inputs": [],
      "name": "zorroControllerAddress",
      "outputs": [
        {
          "internalType": "address",
          "name": "",
          "type": "address"
        }
      ],
      "stateMutability": "view",
      "type": "function"
    },
    {
      "inputs": [],
      "name": "zorroLPPool",
      "outputs": [
        {
          "internalType": "address",
          "name": "",
          "type": "address"
        }
      ],
      "stateMutability": "view",
      "type": "function"
    },
    {
      "inputs": [],
      "name": "zorroLPPoolOtherToken",
      "outputs": [
        {
          "internalType": "address",
          "name": "",
          "type": "address"
        }
      ],
      "stateMutability": "view",
      "type": "function"
    },
    {
      "inputs": [],
      "name": "zorroStakingVault",
      "outputs": [
        {
          "internalType": "address",
          "name": "",
          "type": "address"
        }
      ],
      "stateMutability": "view",
      "type": "function"
    },
    {
      "inputs": [],
      "name": "zorroXChainController",
      "outputs": [
        {
          "internalType": "address",
          "name": "",
          "type": "address"
        }
      ],
      "stateMutability": "view",
      "type": "function"
    }
  ],
  "bytecode": "0x608060405234801561001057600080fd5b50615405806100206000396000f3fe608060405234801561001057600080fd5b50600436106105f15760003560e060020a900480637bf604d81161031f578063bf3a7d40116101ac578063e7198474116100f8578063f05c09b3116100b1578063f2fde38b1161008b578063f2fde38b14610c5b578063f5046a2914610c6e578063fbf5683f14610c81578063ff29b39514610c9457600080fd5b8063f05c09b314610c32578063f106845414610c3f578063f25342bf14610c4857600080fd5b8063e719847414610bd9578063e7a0367914610bec578063e9e15b4f14610bff578063ebfba7c414610c12578063edf5e58514610c25578063ee50dc341461073157600080fd5b8063c8e3d18b11610165578063d7cb416f1161013f578063d7cb416f14610b8d578063de84199114610ba0578063e502a88d14610bb3578063e65a011714610bc657600080fd5b8063c8e3d18b14610b54578063ceb59cf414610b67578063cfad57a214610b7a57600080fd5b8063bf3a7d4014610af5578063c0973eed14610b08578063c302a4d0146109ab578063c4d66de814610b1b578063c524a05614610b2e578063c8479cd614610b4157600080fd5b806396e9aff81161026b578063ab196def11610224578063b3545c01116101fe578063b3545c011461061e578063b61bb80a14610abc578063b73cba2a14610acf578063b8d5a72c14610ae257600080fd5b8063ab196def14610a83578063ae53e58a14610a96578063b1414dbb14610aa957600080fd5b806396e9aff814610a115780639fc33a9f14610a24578063a049539114610a37578063a4d2b08314610a4a578063aabf190b14610a5d578063aada5bf614610a7057600080fd5b806385f02dd6116102d85780638da5cb5b116102b25780638da5cb5b146109c75780639192ce1e146109d85780639339fd3c146109eb578063959334f4146109fe57600080fd5b806385f02dd6146109a2578063866b2018146109ab5780638906758d146109b457600080fd5b80637bf604d81461093b5780637ff36fbe1461094e57806381aa8d3114610961578063833eeab91461097457806383f01939146109875780638456cb591461099a57600080fd5b80634b0e72161161049d5780636392ab12116103e9578063693a090b116103a257806370699c611161037c57806370699c61146108fa57806370d5ae051461090d578063715018a6146109205780637153ef861461092857600080fd5b8063693a090b146108c15780636ca8bd65146108d45780636f96f6fa146108e757600080fd5b80636392ab121461086c578063648794a41461087f57806367057b6c1461073157806367206d4014610892578063677379e5146108a557806368f54162146108b857600080fd5b8063583bda3b116104565780635eedc574116104305780635eedc574146108205780635fc77d43146108335780636183e8041461084657806361b5bf9f1461085957600080fd5b8063583bda3b146107ef5780635c975abb146108025780635da79d631461080d57600080fd5b80634b0e7216146107905780634bf71bb8146107a35780634c5b09da146107b65780634d9f7bb21461073157806355ebedec146107c9578063567e07c9146107dc57600080fd5b80631e2bc6721161055c5780633214471f1161051557806342da4eb3116104ef57806342da4eb31461076657806343788cd21461073157806344a3955e1461076f57806346008a071461077857600080fd5b80633214471f1461074d57806336e9332d146107565780633f4ba83a1461075e57600080fd5b80631e2bc672146106f85780631e85b3ad1461070b578063211019d71461061e5780632209b59e1461071e5780632717eff314610731578063320d47cc1461073a57600080fd5b80630daef321116105ae5780630daef321146106815780630fa4e01e146106b75780631334903f146106c05780631755ff21146106c9578063178a8d07146106dc5780631b0d8aab146106e557600080fd5b8063051eed5e146105f657806305828d3e1461060b578063061c7d481461061e5780630761a1721461063a5780630b6bb30b146106435780630bbd6cd614610656575b600080fd5b6106096106043660046145fa565b610ca7565b005b61060961061936600461481d565b61121a565b6106276103e881565b6040519081526020015b60405180910390f35b61062760f45481565b61060961065136600461483a565b611269565b610669610664366004614857565b611317565b604051600160a060020a039091168152602001610631565b60cb546106a7907501000000000000000000000000000000000000000000900460ff1681565b6040519015158152602001610631565b61062760e25481565b61062760e05481565b60d95461066990600160a060020a031681565b61062760de5481565b6106096106f3366004614857565b611341565b610669610706366004614857565b611373565b610669610719366004614857565b611383565b61062761072c366004614857565b611393565b61062761271081565b610609610748366004614857565b611531565b61062760df5481565b610609611563565b61060961159d565b61062760e35481565b61062760e45481565b60cb54610669906101009004600160a060020a031681565b61060961079e36600461481d565b6115d9565b6106696107b1366004614857565b611628565b6106096107c436600461481d565b611638565b6106276107d7366004614857565b611687565b6106096107ea36600461481d565b6118a5565b6106096107fd36600461481d565b6118f4565b60975460ff166106a7565b61060961081b36600461481d565b611943565b60fa5461066990600160a060020a031681565b60cd5461066990600160a060020a031681565b61060961085436600461481d565b611992565b61060961086736600461481d565b6119e1565b61066961087a366004614857565b611a30565b61062761088d366004614870565b611a40565b6106096108a0366004614892565b611c51565b60d05461066990600160a060020a031681565b61062760e15481565b60da5461066990600160a060020a031681565b6106096108e236600461481d565b611d59565b60f05461066990600160a060020a031681565b60f95461066990600160a060020a031681565b60d75461066990600160a060020a031681565b610609611da8565b6106096109363660046148d4565b611ddf565b60db5461066990600160a060020a031681565b60d25461066990600160a060020a031681565b61066961096f366004614857565b6120d3565b610669610982366004614857565b6120e3565b61060961099536600461483a565b6120f3565b610609612133565b61062760dd5481565b61062761232881565b6106096109c236600461481d565b61216d565b603354600160a060020a0316610669565b6106696109e6366004614857565b6121bc565b6106096109f936600461491e565b6121cc565b610609610a0c36600461481d565b61228e565b610669610a1f366004614857565b6122dd565b60d55461066990600160a060020a031681565b610669610a45366004614857565b6122ed565b60cf5461066990600160a060020a031681565b60f15461066990600160a060020a031681565b60f35461066990600160a060020a031681565b60f25461066990600160a060020a031681565b60ef5461066990600160a060020a031681565b60cc5461066990600160a060020a031681565b60d65461066990600160a060020a031681565b610609610add36600461481d565b6122fd565b610669610af0366004614857565b61234c565b610609610b0336600461481d565b61235c565b60d85461066990600160a060020a031681565b610609610b2936600461481d565b6123ab565b610609610b3c36600461481d565b612446565b610609610b4f36600461481d565b612495565b610669610b62366004614857565b6124e4565b60fb5461066990600160a060020a031681565b610609610b8836600461481d565b6124f4565b60d35461066990600160a060020a031681565b610609610bae3660046149a5565b612589565b610627610bc1366004614870565b61270b565b610609610bd4366004614857565b6128db565b60d45461066990600160a060020a031681565b60d15461066990600160a060020a031681565b610609610c0d36600461481d565b612d0a565b60dc5461066990600160a060020a031681565b60c9546106a79060ff1681565b60cb546106a79060ff1681565b61062760ca5481565b60ee5461066990600160a060020a031681565b610609610c6936600461481d565b612d59565b60ce5461066990600160a060020a031681565b610669610c8f366004614857565b612e11565b610609610ca236600461491e565b612e21565b600054610100900460ff16610cc25760005460ff1615610cc6565b303b155b610cee5760405160e560020a62461bcd028152600401610ce5906149de565b60405180910390fd5b600054610100900460ff16158015610d10576000805461ffff19166101011790555b815160ca5560208083015160c9805460ff191691151591909117905560408084015160cb80546060808801518051750100000000000000000000000000000000000000000074ffffffffffffffffffffffffffffffffffffffffff1990941695151574ffffffffffffffffffffffffffffffffffffffff00191695909517610100600160a060020a0396871681029190911775ff0000000000000000000000000000000000000000001916939093179093558286015160cc8054600160a060020a03199081169287169290921790558386015160cd805483169187169190911790558382015160ce8054831691871691909117905560808085015160cf8054841691881691909117905560a08086015160d18054851691891691909117905560c08087015160d280548616918a169190911790559486015160d48054851691891691909117905561012086015160d58054851691891691909117905561014086015160d88054851691891691909117905561016086015160d98054851691891691909117905561018086015160da805485169189169190911790556101a086015160db805485169189169190911790556101c08087015160dc80548616918a169190911790556101e09096015160d680548516918916919091179055818b015160f9805485169189169190911790558a015160fa8054909316961695909517905591870151805160dd558086015160de559384015160df559083015160e05591015160e1558301518051610f489260eb92019061415d565b5060e08201518051610f629160e99160209091019061415d565b506101008201518051610f7d9160e59160209091019061415d565b506101208201518051610f989160ec9160209091019061415d565b506101408201518051610fb39160ed9160209091019061415d565b506101008201518051610fce9160e59160209091019061415d565b506101608201518051610fe99160f59160209091019061415d565b5061018082015180516110049160f69160209091019061415d565b506101a0820151805161101f9160f79160209091019061415d565b5060d0546040517f8b4c5aee000000000000000000000000000000000000000000000000000000008152600160a060020a0390911690638b4c5aee9061106a9060e590600401614a3b565b600060405180830381865afa158015611087573d6000803e3d6000fd5b505050506040513d6000823e601f3d908101601f191682016040526110af9190810190614a8b565b80516110c39160e79160209091019061415d565b5060d0546040517f8b4c5aee000000000000000000000000000000000000000000000000000000008152600160a060020a0390911690638b4c5aee9061110e9060f790600401614a3b565b600060405180830381865afa15801561112b573d6000803e3d6000fd5b505050506040513d6000823e601f3d908101601f191682016040526111539190810190614a8b565b80516111679160f89160209091019061415d565b506101e0820151805160ee8054600160a060020a0319908116600160a060020a0393841617909155602083015160f080548316918416919091179055606083015160f180548316918416919091179055604083015160f280548316918416919091179055608083015160f38054831691841691909117905560a09092015160fb8054909316911617905561020082015160f455611203836123ab565b8015611215576000805461ff00191690555b505050565b603354600160a060020a031633146112475760405160e560020a62461bcd028152600401610ce590614b17565b60d38054600160a060020a031916600160a060020a0392909216919091179055565b60cb546101009004600160a060020a0316331461129b5760405160e560020a62461bcd028152600401610ce590614b4c565b60cb805482151575010000000000000000000000000000000000000000000275ff000000000000000000000000000000000000000000199091161790556040517f125177ac7b8930dac1e59c2b30b1b6b9191b30af40cf6bbb5d20fec4d44be60f9061130c90831515815260200190565b60405180910390a150565b60e7818154811061132757600080fd5b600091825260209091200154600160a060020a0316905081565b603354600160a060020a0316331461136e5760405160e560020a62461bcd028152600401610ce590614b17565b60ca55565b60f6818154811061132757600080fd5b60e6818154811061132757600080fd5b60cc54600090600160a060020a031633600160a060020a0316146113cc5760405160e560020a62461bcd028152600401610ce590614b83565b600260655414156113f25760405160e560020a62461bcd028152600401610ce590614bba565b600260655560975460ff161561141d5760405160e560020a62461bcd028152600401610ce590614bf1565b600082116114705760405160e560020a62461bcd02815260206004820152601e60248201527f57616e7420746f6b656e206465706f736974206d757374206265203e203000006044820152606401610ce5565b60d15461148890600160a060020a0316333085612f22565b819050600060e35411801561149f5750600060e454115b156114db5761271060e3546114b49190614c57565b60e05460e4546114c49085614c57565b6114ce9190614c57565b6114d89190614c76565b90505b8060e4546114e99190614cb1565b60e45560e3546114fa908390614cb1565b60e35560cb5460ff161561151557611510612fd3565b611527565b8160e3546115239190614cb1565b60e3555b6001606555919050565b603354600160a060020a0316331461155e5760405160e560020a62461bcd028152600401610ce590614b17565b60f455565b600260655414156115895760405160e560020a62461bcd028152600401610ce590614bba565b6002606555611596612fd3565b6001606555565b60cb546101009004600160a060020a031633146115cf5760405160e560020a62461bcd028152600401610ce590614b4c565b6115d76132d3565b565b603354600160a060020a031633146116065760405160e560020a62461bcd028152600401610ce590614b17565b60d78054600160a060020a031916600160a060020a0392909216919091179055565b60ed818154811061132757600080fd5b603354600160a060020a031633146116655760405160e560020a62461bcd028152600401610ce590614b17565b60d58054600160a060020a031916600160a060020a0392909216919091179055565b60cc54600090600160a060020a031633600160a060020a0316146116c05760405160e560020a62461bcd028152600401610ce590614b83565b600260655414156116e65760405160e560020a62461bcd028152600401610ce590614bba565b600260655560975460ff16156117115760405160e560020a62461bcd028152600401610ce590614bf1565b600082116117645760405160e560020a62461bcd02815260206004820152600760248201527f6e656757616e74000000000000000000000000000000000000000000000000006044820152606401610ce5565b60e35460e4546117749084614c57565b61177e9190614c76565b905060e45481111561178f575060e4545b8060e45461179d9190614cc9565b60e45560e15461271011156117ca5761271060e154836117bd9190614c57565b6117c79190614c76565b91505b60cb5460ff16156117de576117de82613372565b60d15460405160e060020a6370a08231028152306004820152600091600160a060020a0316906370a0823190602401602060405180830381865afa15801561182a573d6000803e3d6000fd5b505050506040513d601f19601f8201168201806040525081019061184e9190614ce0565b90508083111561185c578092505b8260e354101561186c5760e35492505b8260e35461187a9190614cc9565b60e35560cc5460d15461189a91600160a060020a03918216911685613544565b506001606555919050565b603354600160a060020a031633146118d25760405160e560020a62461bcd028152600401610ce590614b17565b60cd8054600160a060020a031916600160a060020a0392909216919091179055565b603354600160a060020a031633146119215760405160e560020a62461bcd028152600401610ce590614b17565b60ce8054600160a060020a031916600160a060020a0392909216919091179055565b603354600160a060020a031633146119705760405160e560020a62461bcd028152600401610ce590614b17565b60da8054600160a060020a031916600160a060020a0392909216919091179055565b603354600160a060020a031633146119bf5760405160e560020a62461bcd028152600401610ce590614b17565b60d18054600160a060020a031916600160a060020a0392909216919091179055565b603354600160a060020a03163314611a0e5760405160e560020a62461bcd028152600401610ce590614b17565b60db8054600160a060020a031916600160a060020a0392909216919091179055565b60eb818154811061132757600080fd5b60cc54600090600160a060020a031633600160a060020a031614611a795760405160e560020a62461bcd028152600401610ce590614b83565b60975460ff1615611a9f5760405160e560020a62461bcd028152600401610ce590614bf1565b60d05460d154611abc91600160a060020a0391821691168561358d565b60d054604080516101208101825260d254600160a060020a03908116825260d654811660208084019190915260d95482168385015260f9548216606084015260ee548216608084015260fb54821660a084015260f354821660c084015260f78054855181840281018401909652808652929095169463714fc10b9489949360e0850193919291830182828015611b7b57602002820191906000526020600020905b8154600160a060020a03168152600190910190602001808311611b5d575b5050505050815260200160e7805480602002602001604051908101604052809291908181526020018280548015611bdb57602002820191906000526020600020905b8154600160a060020a03168152600190910190602001808311611bbd575b5050505050815250856040518463ffffffff1660e060020a028152600401611c0593929190614d3d565b6020604051808303816000875af1158015611c24573d6000803e3d6000fd5b505050506040513d601f19601f82011682018060405250810190611c489190614ce0565b90505b92915050565b60cb546101009004600160a060020a03163314611c835760405160e560020a62461bcd028152600401610ce590614b4c565b60d454600160a060020a0384811691161415611ce45760405160e560020a62461bcd02815260206004820152600560248201527f21736166650000000000000000000000000000000000000000000000000000006044820152606401610ce5565b60d154600160a060020a0384811691161415611d455760405160e560020a62461bcd02815260206004820152600560248201527f21736166650000000000000000000000000000000000000000000000000000006044820152606401610ce5565b611215600160a060020a0384168284613544565b603354600160a060020a03163314611d865760405160e560020a62461bcd028152600401610ce590614b17565b60cf8054600160a060020a031916600160a060020a0392909216919091179055565b603354600160a060020a03163314611dd55760405160e560020a62461bcd028152600401610ce590614b17565b6115d76000613671565b60cb546101009004600160a060020a03163314611e115760405160e560020a62461bcd028152600401610ce590614b4c565b612328851015611e665760405160e560020a62461bcd02815260206004820152601a60248201527f5f656e7472616e6365466565466163746f7220746f6f206c6f770000000000006044820152606401610ce5565b612710851115611ebb5760405160e560020a62461bcd02815260206004820152601b60248201527f5f656e7472616e6365466565466163746f7220746f6f206869676800000000006044820152606401610ce5565b60e0859055612328841015611f155760405160e560020a62461bcd02815260206004820152601a60248201527f5f7769746864726177466565466163746f7220746f6f206c6f770000000000006044820152606401610ce5565b612710841115611f6a5760405160e560020a62461bcd02815260206004820152601b60248201527f5f7769746864726177466565466163746f7220746f6f206869676800000000006044820152606401610ce5565b60e18490556103e8831115611fc45760405160e560020a62461bcd02815260206004820152601760248201527f5f636f6e74726f6c6c657246656520746f6f20686967680000000000000000006044820152606401610ce5565b60dd8390556103e882111561201e5760405160e560020a62461bcd02815260206004820152601560248201527f5f6275794261636b5261746520746f6f206869676800000000000000000000006044820152606401610ce5565b60de8290556103e88111156120785760405160e560020a62461bcd02815260206004820152601660248201527f5f72657653686172655261746520746f6f2068696768000000000000000000006044820152606401610ce5565b60df819055604080518681526020810186905290810184905260608101839052608081018290527fc67e0b149a57a70fa44a531a46c2c6d8e0b242fa12f459f250012c3a5987d29a9060a00160405180910390a15050505050565b60f5818154811061132757600080fd5b60e5818154811061132757600080fd5b603354600160a060020a031633146121205760405160e560020a62461bcd028152600401610ce590614b17565b60cb805460ff1916911515919091179055565b60cb546101009004600160a060020a031633146121655760405160e560020a62461bcd028152600401610ce590614b4c565b6115d76136c3565b603354600160a060020a0316331461219a5760405160e560020a62461bcd028152600401610ce590614b17565b60d88054600160a060020a031916600160a060020a0392909216919091179055565b60f8818154811061132757600080fd5b603354600160a060020a031633146121f95760405160e560020a62461bcd028152600401610ce590614b17565b60ff83166122135761220d60e583836141c2565b50505050565b8260ff166001141561222b5761220d60f583836141c2565b8260ff16600214156122435761220d60f683836141c2565b60405160e560020a62461bcd02815260206004820152601960248201527f756e737570706f727465642069647820737761702070617468000000000000006044820152606401610ce5565b603354600160a060020a031633146122bb5760405160e560020a62461bcd028152600401610ce590614b17565b60dc8054600160a060020a031916600160a060020a0392909216919091179055565b60ea818154811061132757600080fd5b60e8818154811061132757600080fd5b603354600160a060020a0316331461232a5760405160e560020a62461bcd028152600401610ce590614b17565b60d48054600160a060020a031916600160a060020a0392909216919091179055565b60f7818154811061132757600080fd5b603354600160a060020a031633146123895760405160e560020a62461bcd028152600401610ce590614b17565b60cc8054600160a060020a031916600160a060020a0392909216919091179055565b600054610100900460ff166123c65760005460ff16156123ca565b303b155b6123e95760405160e560020a62461bcd028152600401610ce5906149de565b600054610100900460ff1615801561240b576000805461ffff19166101011790555b61241361371e565b61241c82612d59565b60d78054600160a060020a03191661dead1790558015612442576000805461ff00191690555b5050565b603354600160a060020a031633146124735760405160e560020a62461bcd028152600401610ce590614b17565b60d68054600160a060020a031916600160a060020a0392909216919091179055565b603354600160a060020a031633146124c25760405160e560020a62461bcd028152600401610ce590614b17565b60d28054600160a060020a031916600160a060020a0392909216919091179055565b60e9818154811061132757600080fd5b60cb546101009004600160a060020a031633146125265760405160e560020a62461bcd028152600401610ce590614b4c565b60cb805474ffffffffffffffffffffffffffffffffffffffff001916610100600160a060020a038416908102919091179091556040519081527f91a8c1cc2d4a3bb60738481947a00cbb9899c822916694cf8bb1d68172fdcd549060200161130c565b603354600160a060020a031633146125b65760405160e560020a62461bcd028152600401610ce590614b17565b60ff82166125df5760ee8054600160a060020a038316600160a060020a03199091161790555050565b8160ff166001141561260c5760ef8054600160a060020a038316600160a060020a03199091161790555050565b8160ff16600214156126395760f08054600160a060020a038316600160a060020a03199091161790555050565b8160ff16600314156126665760f28054600160a060020a038316600160a060020a03199091161790555050565b8160ff16600414156126935760f18054600160a060020a038316600160a060020a03199091161790555050565b8160ff16600514156126c05760f38054600160a060020a038316600160a060020a03199091161790555050565b60405160e560020a62461bcd02815260206004820152601460248201527f756e737570706f727465642066656564206964780000000000000000000000006044820152606401610ce5565b60cc54600090600160a060020a031633600160a060020a0316146127445760405160e560020a62461bcd028152600401610ce590614b83565b60975460ff161561276a5760405160e560020a62461bcd028152600401610ce590614bf1565b60d05460d65461278791600160a060020a0391821691168561358d565b60d054604080516101408101825260d254600160a060020a03908116825260d654811660208084019190915260f95482168385015260fa548216606084015260d9548216608084015260ee54821660a084015260fb54821660c084015260f354821660e084015260e5805485518184028101840190965280865292909516946394219e3b9489949361010085019391929183018282801561285157602002820191906000526020600020905b8154600160a060020a03168152600190910190602001808311612833575b5050505050815260200160f78054806020026020016040519081016040528092919081815260200182805480156128b157602002820191906000526020600020905b8154600160a060020a03168152600190910190602001808311612893575b5050505050815250856040518463ffffffff1660e060020a028152600401611c0593929190614e40565b600260655414156129015760405160e560020a62461bcd028152600401610ce590614bba565b600260655560975460ff161561292c5760405160e560020a62461bcd028152600401610ce590614bf1565b60cb547501000000000000000000000000000000000000000000900460ff16156129825760cb546101009004600160a060020a031633146129825760405160e560020a62461bcd028152600401610ce590614b4c565b61298c6000613372565b60d45460405160e060020a6370a08231028152306004820152600091600160a060020a0316906370a0823190602401602060405180830381865afa1580156129d8573d6000803e3d6000fd5b505050506040513d601f19601f820116820180604052508101906129fc9190614ce0565b905060008111612a515760405160e560020a62461bcd02815260206004820152600560248201527f306561726e0000000000000000000000000000000000000000000000000000006044820152606401610ce5565b604080516080810190915260f054600091908190612a7790600160a060020a0316613750565b815260f254602090910190612a9490600160a060020a0316613750565b815260f154602090910190612ab190600160a060020a0316613750565b815260f354602090910190612ace90600160a060020a0316613750565b90529050600080612ade846138a7565b9050600080612aee8688876138f7565b90925090508082612aff8589614cc9565b612b099190614cc9565b612b139190614cc9565b60d25460d454919550600160a060020a039182169116149250612c719150505760d05460d454612b5091600160a060020a0391821691168361358d565b60d05460408051610100810182528381528451602082015260ee54600160a060020a03938416936312ad7eba93830191612b8a9116613750565b815260d454600160a060020a0390811660208084019190915260d254909116604080840191909152606083018a905260e980548251818502810185019093528083526080909401939192909190830182828015612c1057602002820191906000526020600020905b8154600160a060020a03168152600190910190602001808311612bf2575b50505091835250503060209091015260405160e060020a63ffffffff8416028152612c3e9190600401614f50565b600060405180830381600087803b158015612c5857600080fd5b505af1158015612c6c573d6000803e3d6000fd5b505050505b60d25460405160e060020a6370a08231028152306004820152600091600160a060020a0316906370a0823190602401602060405180830381865afa158015612cbd573d6000803e3d6000fd5b505050506040513d601f19601f82011682018060405250810190612ce19190614ce0565b90508015612cfa57612cf281613b4b565b612cfa612fd3565b50504360e2555050600160655550565b603354600160a060020a03163314612d375760405160e560020a62461bcd028152600401610ce590614b17565b60d98054600160a060020a031916600160a060020a0392909216919091179055565b603354600160a060020a03163314612d865760405160e560020a62461bcd028152600401610ce590614b17565b600160a060020a038116612e055760405160e560020a62461bcd02815260206004820152602660248201527f4f776e61626c653a206e6577206f776e657220697320746865207a65726f206160448201527f64647265737300000000000000000000000000000000000000000000000000006064820152608401610ce5565b612e0e81613671565b50565b60ec818154811061132757600080fd5b603354600160a060020a03163314612e4e5760405160e560020a62461bcd028152600401610ce590614b17565b60ff8316612e625761220d60e583836141c2565b8260ff1660011415612e7a5761220d60e683836141c2565b8260ff1660021415612e925761220d60e783836141c2565b8260ff1660031415612eaa5761220d60e883836141c2565b8260ff1660041415612ec25761220d60e983836141c2565b8260ff1660051415612eda5761220d60ea83836141c2565b8260ff1660061415612ef25761220d60eb83836141c2565b8260ff1660071415612f0a5761220d60ec83836141c2565b8260ff16600814156126c05761220d60ed83836141c2565b604051600160a060020a038085166024830152831660448201526064810182905261220d9085907f23b872dd00000000000000000000000000000000000000000000000000000000906084015b60408051601f198184030181529190526020810180517bffffffffffffffffffffffffffffffffffffffffffffffffffffffff167fffffffff0000000000000000000000000000000000000000000000000000000090931692909217909152613c27565b60cb5460ff166130285760405160e560020a62461bcd02815260206004820152600960248201527f216661726d61626c6500000000000000000000000000000000000000000000006044820152606401610ce5565b60f95460405160e060020a6370a08231028152306004820152600091600160a060020a0316906370a0823190602401602060405180830381865afa158015613074573d6000803e3d6000fd5b505050506040513d601f19601f820116820180604052508101906130989190614ce0565b60d05460f9549192506130b891600160a060020a0390811691168361358d565b60d0546040805160a08101825260f954600160a060020a03908116825260d254811660208084019190915260fb5482168385015260ee548216606084015260f78054855181840281018401909652808652929095169463bb81a18d94879493608085019391929183018282801561315857602002820191906000526020600020905b8154600160a060020a0316815260019091019060200180831161313a575b505050505081525060f4546040518463ffffffff1660e060020a02815260040161318493929190614fdf565b600060405180830381600087803b15801561319e57600080fd5b505af11580156131b2573d6000803e3d6000fd5b505060d95460405160e060020a6370a0823102815230600482015260009350600160a060020a0390911691506370a0823190602401602060405180830381865afa158015613204573d6000803e3d6000fd5b505050506040513d601f19601f820116820180604052508101906132289190614ce0565b60d55460d95491925061324891600160a060020a0390811691168361358d565b60d55460ca546040517fe2bbb158000000000000000000000000000000000000000000000000000000008152600160a060020a039092169163e2bbb1589161329d918590600401918252602082015260400190565b600060405180830381600087803b1580156132b757600080fd5b505af11580156132cb573d6000803e3d6000fd5b505050505050565b60975460ff166133285760405160e560020a62461bcd02815260206004820152601460248201527f5061757361626c653a206e6f74207061757365640000000000000000000000006044820152606401610ce5565b6097805460ff191690557f5db9ee0a495bf2e6ff9c91a7834c1ba4fdd244a5e8aa4e537bd38aeae4b073aa335b604051600160a060020a03909116815260200160405180910390a1565b60d55460ca546040517f441a3e70000000000000000000000000000000000000000000000000000000008152600160a060020a039092169163441a3e70916133c7918590600401918252602082015260400190565b600060405180830381600087803b1580156133e157600080fd5b505af11580156133f5573d6000803e3d6000fd5b505060d95460405160e060020a6370a0823102815230600482015260009350600160a060020a0390911691506370a0823190602401602060405180830381865afa158015613447573d6000803e3d6000fd5b505050506040513d601f19601f8201168201806040525081019061346b9190614ce0565b60d0546040805160c08101825260f954600160a060020a03908116825260d254811660208084019190915260d95482168385015260fb548216606084015260ee548216608084015260f880548551818402810184019096528086529697509190941694639cab372b94879460a08501939092909183018282801561351857602002820191906000526020600020905b8154600160a060020a031681526001909101906020018083116134fa575b505050505081525060f4546040518463ffffffff1660e060020a02815260040161329d9392919061504c565b604051600160a060020a0383166024820152604481018290526112159084907fa9059cbb0000000000000000000000000000000000000000000000000000000090606401612f6f565b6040517fdd62ed3e000000000000000000000000000000000000000000000000000000008152306004820152600160a060020a038381166024830152600091839186169063dd62ed3e90604401602060405180830381865afa1580156135f7573d6000803e3d6000fd5b505050506040513d601f19601f8201168201806040525081019061361b9190614ce0565b6136259190614cb1565b604051600160a060020a03851660248201526044810182905290915061220d9085907f095ea7b30000000000000000000000000000000000000000000000000000000090606401612f6f565b60338054600160a060020a03838116600160a060020a0319831681179093556040519116919082907f8be0079c531659141344cd1fd0a4f28419497f9722a3daafe3b4186f6b6457e090600090a35050565b60975460ff16156136e95760405160e560020a62461bcd028152600401610ce590614bf1565b6097805460ff191660011790557f62e78cea01bee320cd4e420270b5ea74000d11b0c9f74754ebdbfc544b05a2586133553390565b600054610100900460ff166137485760405160e560020a62461bcd028152600401610ce5906150b5565b6115d7613d0f565b60008082600160a060020a031663313ce5676040518163ffffffff1660e060020a028152600401602060405180830381865afa158015613794573d6000803e3d6000fd5b505050506040513d601f19601f820116820180604052508101906137b89190615112565b9050600083600160a060020a031663feaf968c6040518163ffffffff1660e060020a02815260040160a060405180830381865afa1580156137fd573d6000803e3d6000fd5b505050506040513d601f19601f820116820180604052508101906138219190615149565b505050915050600081121561387b5760405160e560020a62461bcd02815260206004820152601660248201527f6e656720707269636573206e6f7420616c6c6f776564000000000000000000006044820152606401610ce5565b61388682600a615280565b6138958264e8d4a51000614c57565b61389f9190614c76565b949350505050565b600081156138f25760dd54156138f25761271060dd54836138c89190614c57565b6138d29190614c76565b60d85460d4549192506138f291600160a060020a03908116911683613544565b919050565b600080600060de5411156139235761271060de54866139169190614c57565b6139209190614c76565b91505b60df54156139495761271060df548661393c9190614c57565b6139469190614c76565b90505b60c95460ff161561396f5761395f828585613d42565b61396a818585613ebc565b613b43565b600061397b8284614cb1565b60d05460d45491925061399b91600160a060020a0390811691168361358d565b60d054604080516101008101825283815286516020808301919091526060808901518385015260d454600160a060020a039081169184019190915260d6548116608084015260a083018a905260ed805485518185028101850190965280865291909516946312ad7eba9460c0850193909290830182828015613a4657602002820191906000526020600020905b8154600160a060020a03168152600190910190602001808311613a28575b505050918352505060cd54600160a060020a031660209091015260405160e060020a63ffffffff8416028152613a7f9190600401614f50565b600060405180830381600087803b158015613a9957600080fd5b505af1158015613aad573d6000803e3d6000fd5b505060cd5460ca546040517f464e3c8b0000000000000000000000000000000000000000000000000000000081526004810191909152602481018790526044810186905260648101899052600160a060020a03909116925063464e3c8b9150608401600060405180830381600087803b158015613b2957600080fd5b505af1158015613b3d573d6000803e3d6000fd5b50505050505b935093915050565b60975460ff1615613b715760405160e560020a62461bcd028152600401610ce590614bf1565b60d05460d254613b8e91600160a060020a0391821691168361358d565b60d05460d25460f95460fa546040517fc99bbd8100000000000000000000000000000000000000000000000000000000815260048101869052600160a060020a03938416602482015291831660448301528216606482015291169063c99bbd8190608401600060405180830381600087803b158015613c0c57600080fd5b505af1158015613c20573d6000803e3d6000fd5b5050505050565b6000613c7c826040518060400160405280602081526020017f5361666545524332303a206c6f772d6c6576656c2063616c6c206661696c656481525085600160a060020a0316613fb99092919063ffffffff16565b8051909150156112155780806020019051810190613c9a919061528f565b6112155760405160e560020a62461bcd02815260206004820152602a60248201527f5361666545524332303a204552433230206f7065726174696f6e20646964206e60448201527f6f742073756363656564000000000000000000000000000000000000000000006064820152608401610ce5565b600054610100900460ff16613d395760405160e560020a62461bcd028152600401610ce5906150b5565b6115d733613671565b60d05460d454613d5f91600160a060020a0391821691168561358d565b60d0546040805160a08101825260d454600160a060020a03908116825260ce54811660208084019190915260dc5482168385015260eb80548551818402810184019096528086529290951694638d82ddca948994899489949193606085019392909190830182828015613dfb57602002820191906000526020600020905b8154600160a060020a03168152600190910190602001808311613ddd575b5050505050815260200160ec805480602002602001604051908101604052809291908181526020018280548015613e5b57602002820191906000526020600020905b8154600160a060020a03168152600190910190602001808311613e3d575b50505050508152506040518563ffffffff1660e060020a028152600401613e8594939291906152ac565b600060405180830381600087803b158015613e9f57600080fd5b505af1158015613eb3573d6000803e3d6000fd5b50505050505050565b60d05460d454613ed991600160a060020a0391821691168561358d565b60d05460408051610100810182528581528351602080830191909152848101518284015260d454600160a060020a03908116606084015260ce548116608084015260a0830187905260eb805485518185028101850190965280865291909516946312ad7eba9460c0850193909290830182828015613f8057602002820191906000526020600020905b8154600160a060020a03168152600190910190602001808311613f62575b505050918352505060cf54600160a060020a031660209091015260405160e060020a63ffffffff8416028152613e859190600401614f50565b6060613fc88484600085613fd2565b90505b9392505050565b6060303183111561404e5760405160e560020a62461bcd02815260206004820152602660248201527f416464726573733a20696e73756666696369656e742062616c616e636520666f60448201527f722063616c6c00000000000000000000000000000000000000000000000000006064820152608401610ce5565b600160a060020a0385163b6140a85760405160e560020a62461bcd02815260206004820152601d60248201527f416464726573733a2063616c6c20746f206e6f6e2d636f6e74726163740000006044820152606401610ce5565b60008086600160a060020a031685876040516140c49190615380565b60006040518083038185875af1925050503d8060008114614101576040519150601f19603f3d011682016040523d82523d6000602084013e614106565b606091505b5091509150614116828286614121565b979650505050505050565b60608315614130575081613fcb565b8251156141405782518084602001fd5b8160405160e560020a62461bcd028152600401610ce5919061539c565b8280548282559060005260206000209081019282156141b2579160200282015b828111156141b25782518254600160a060020a031916600160a060020a0390911617825560209092019160019091019061417d565b506141be929150614215565b5090565b8280548282559060005260206000209081019282156141b2579160200282015b828111156141b2578154600160a060020a031916600160a060020a038435161782556020909201916001909101906141e2565b5b808211156141be5760008155600101614216565b600160a060020a0381168114612e0e57600080fd5b80356138f28161422a565b7f4e487b7100000000000000000000000000000000000000000000000000000000600052604160045260246000fd5b604051610200810167ffffffffffffffff8111828210171561429d5761429d61424a565b60405290565b604051610220810167ffffffffffffffff8111828210171561429d5761429d61424a565b604051601f8201601f1916810167ffffffffffffffff811182821017156142f0576142f061424a565b604052919050565b8015158114612e0e57600080fd5b80356138f2816142f8565b6000610200828403121561432457600080fd5b61432c614279565b90506143378261423f565b81526143456020830161423f565b60208201526143566040830161423f565b60408201526143676060830161423f565b60608201526143786080830161423f565b608082015261438960a0830161423f565b60a082015261439a60c0830161423f565b60c08201526143ab60e0830161423f565b60e08201526101006143be81840161423f565b908201526101206143d083820161423f565b908201526101406143e283820161423f565b908201526101606143f483820161423f565b9082015261018061440683820161423f565b908201526101a061441883820161423f565b908201526101c061442a83820161423f565b908201526101e061443c83820161423f565b9082015292915050565b600067ffffffffffffffff8211156144605761446061424a565b5060209081020190565b600082601f83011261447b57600080fd5b8135602061449061448b83614446565b6142c7565b828152918102840181019181810190868411156144ac57600080fd5b8286015b848110156144d05780356144c38161422a565b83529183019183016144b0565b509695505050505050565b600060a082840312156144ed57600080fd5b60405160a0810181811067ffffffffffffffff821117156145105761451061424a565b806040525080915082358152602083013560208201526040830135604082015260608301356060820152608083013560808201525092915050565b600060c0828403121561455d57600080fd5b60405160c0810181811067ffffffffffffffff821117156145805761458061424a565b60405290508082356145918161422a565b815260208301356145a18161422a565b602082015260408301356145b48161422a565b604082015260608301356145c78161422a565b606082015260808301356145da8161422a565b608082015260a08301356145ed8161422a565b60a0919091015292915050565b6000806040838503121561460d57600080fd5b82356146188161422a565b9150602083013567ffffffffffffffff8082111561463557600080fd5b90840190610520828703121561464a57600080fd5b6146526142a3565b8235815261466260208401614306565b602082015261467360408401614306565b60408201526146858760608501614311565b6060820152614697610260840161423f565b60808201526146a9610280840161423f565b60a08201526102a0830135828111156146c157600080fd5b6146cd8882860161446a565b60c0830152506102c0830135828111156146e657600080fd5b6146f28882860161446a565b60e0830152506102e08301358281111561470b57600080fd5b6147178882860161446a565b610100830152506103008301358281111561473157600080fd5b61473d8882860161446a565b610120830152506103208301358281111561475757600080fd5b6147638882860161446a565b610140830152506103408301358281111561477d57600080fd5b6147898882860161446a565b61016083015250610360830135828111156147a357600080fd5b6147af8882860161446a565b61018083015250610380830135828111156147c957600080fd5b6147d58882860161446a565b6101a0830152506147ea876103a085016144db565b6101c08201526147fe87610440850161454b565b6101e08201526105008301356102008201528093505050509250929050565b60006020828403121561482f57600080fd5b8135613fcb8161422a565b60006020828403121561484c57600080fd5b8135613fcb816142f8565b60006020828403121561486957600080fd5b5035919050565b6000806040838503121561488357600080fd5b50508035926020909101359150565b6000806000606084860312156148a757600080fd5b83356148b28161422a565b92506020840135915060408401356148c98161422a565b809150509250925092565b600080600080600060a086880312156148ec57600080fd5b505083359560208501359550604085013594606081013594506080013592509050565b60ff81168114612e0e57600080fd5b60008060006040848603121561493357600080fd5b833561493e8161490f565b9250602084013567ffffffffffffffff8082111561495b57600080fd5b818601915086601f83011261496f57600080fd5b81358181111561497e57600080fd5b876020808302850101111561499257600080fd5b6020830194508093505050509250925092565b600080604083850312156149b857600080fd5b82356149c38161490f565b915060208301356149d38161422a565b809150509250929050565b6020808252602e908201527f496e697469616c697a61626c653a20636f6e747261637420697320616c72656160408201527f647920696e697469616c697a6564000000000000000000000000000000000000606082015260800190565b6020808252825482820181905260008481528281209092916040850190845b81811015614a7f578354600160a060020a031683526001938401939285019201614a5a565b50909695505050505050565b60006020808385031215614a9e57600080fd5b825167ffffffffffffffff811115614ab557600080fd5b8301601f81018513614ac657600080fd5b8051614ad461448b82614446565b81815290830282018301908381019087831115614af057600080fd5b928401925b82841015614116578351614b088161422a565b82529284019290840190614af5565b6020808252818101527f4f776e61626c653a2063616c6c6572206973206e6f7420746865206f776e6572604082015260600190565b60208082526004908201527f21676f7600000000000000000000000000000000000000000000000000000000604082015260600190565b60208082526010908201527f217a6f72726f436f6e74726f6c6c657200000000000000000000000000000000604082015260600190565b6020808252601f908201527f5265656e7472616e637947756172643a207265656e7472616e742063616c6c00604082015260600190565b60208082526010908201527f5061757361626c653a2070617573656400000000000000000000000000000000604082015260600190565b7f4e487b7100000000000000000000000000000000000000000000000000000000600052601160045260246000fd5b6000816000190483118215151615614c7157614c71614c28565b500290565b600082614cac577f4e487b7100000000000000000000000000000000000000000000000000000000600052601260045260246000fd5b500490565b60008219821115614cc457614cc4614c28565b500190565b600082821015614cdb57614cdb614c28565b500390565b600060208284031215614cf257600080fd5b5051919050565b600081518084526020808501945080840160005b83811015614d32578151600160a060020a031687529582019590820190600101614d0d565b509495945050505050565b83815260606020820152614d5d606082018451600160a060020a03169052565b60006020840151614d796080840182600160a060020a03169052565b506040840151600160a060020a03811660a0840152506060840151600160a060020a03811660c0840152506080840151600160a060020a03811660e08401525060a0840151610100614dd581850183600160a060020a03169052565b60c08601519150610120614df381860184600160a060020a03169052565b60e087015192508061014086015250614e10610180850183614cf9565b90860151848203605f1901610160860152909150614e2e8282614cf9565b92505050826040830152949350505050565b83815260606020820152614e60606082018451600160a060020a03169052565b60006020840151614e7c6080840182600160a060020a03169052565b506040840151600160a060020a03811660a0840152506060840151600160a060020a03811660c0840152506080840151600160a060020a03811660e08401525060a0840151610100614ed881850183600160a060020a03169052565b60c08601519150610120614ef681860184600160a060020a03169052565b60e08701519250610140614f1481870185600160a060020a03169052565b8288015193508061016087015250614f306101a0860184614cf9565b90870151858203605f19016101808701529092509050614e2e8282614cf9565b6020815281516020820152602082015160408201526040820151606082015260006060830151600160a060020a0380821660808501528060808601511660a0850152505060a083015160c083015260c08301516101008060e0850152614fba610120850183614cf9565b915060e0850151614fd582860182600160a060020a03169052565b5090949350505050565b838152606060208201526000600160a060020a038085511660608401528060208601511660808401528060408601511660a08401528060608601511660c084015250608084015160a060e084015261503b610100840182614cf9565b915050826040830152949350505050565b838152606060208201526000600160a060020a038085511660608401528060208601511660808401528060408601511660a08401528060608601511660c08401528060808601511660e08401525060a084015160c061010084015261503b610120840182614cf9565b6020808252602b908201527f496e697469616c697a61626c653a20636f6e7472616374206973206e6f74206960408201527f6e697469616c697a696e67000000000000000000000000000000000000000000606082015260800190565b60006020828403121561512457600080fd5b8151613fcb8161490f565b805169ffffffffffffffffffff811681146138f257600080fd5b600080600080600060a0868803121561516157600080fd5b61516a8661512f565b945060208601519350604086015192506060860151915061518d6080870161512f565b90509295509295909350565b600181815b808511156151d65781600019048211156151ba576151ba614c28565b808516156151c757918102915b6002909404939080029061519e565b509250929050565b6000826151ed57506001611c4b565b816151fa57506000611c4b565b8160018114615210576002811461521a57615237565b6001915050611c4b565b60ff84111561522b5761522b614c28565b8360020a915050611c4b565b5060208310610133831016604e8410600b841016171561525a575081810a611c4b565b6152648383615199565b806000190482111561527857615278614c28565b029392505050565b6000611c4860ff8416836151de565b6000602082840312156152a157600080fd5b8151613fcb816142f8565b848152836020820152825160408201526020830151606082015260408301516080820152606083015160a082015260e060c08201526000600160a060020a038084511660e0840152806020850151166101008401528060408501511661012084015250606083015160a061014084015261532a610180840182614cf9565b9050608084015160df19848303016101608501526153488282614cf9565b98975050505050505050565b60005b8381101561536f578181015183820152602001615357565b8381111561220d5750506000910152565b60008251615392818460208701615354565b9190910192915050565b60208152600082518060208401526153bb816040850160208701615354565b601f01601f1916919091016040019291505056fea2646970667358221220952eb6724c1aca3f2c9d9d5ad48ed08832d8c597fdab41dbe54669131725792564736f6c634300080a0033",
  "immutableReferences": {},
  "source": "// SPDX-License-Identifier: MIT\n\npragma solidity ^0.8.0;\n\nimport \"./_VaultBaseLiqStakeLP.sol\";\n\nimport \"./actions/VaultActionsBenqiLiqStakeLP.sol\";\n\n/// @title Vault contract for Benqi liquid staking + LP strategy\ncontract VaultBenqiLiqStakeLP is VaultBaseLiqStakeLP {\n    /* Libraries */\n\n    using SafeERC20Upgradeable for IERC20Upgradeable;\n    using PriceFeed for AggregatorV3Interface;\n\n    /* Functions */\n\n    /// @notice Deposits liquid stake on Benqi protocol\n    /// @param _amount The amount of AVAX to liquid stake\n    function _liquidStake(uint256 _amount) internal override whenNotPaused {\n        // Allow spending\n        IERC20Upgradeable(token0Address).safeIncreaseAllowance(\n            vaultActions,\n            _amount\n        );\n\n        // Stake\n        VaultActionsBenqiLiqStakeLP(vaultActions).liquidStake(\n            _amount,\n            token0Address,\n            liquidStakeToken,\n            liquidStakingPool\n        );\n    }\n\n    /// @notice Withdraws liquid stake on Benqi protocol\n    /// @param _amount The amount of AVAX to unstake\n    function _liquidUnstake(uint256 _amount) internal override whenNotPaused {\n        VaultActionsBenqiLiqStakeLP(vaultActions).liquidUnstake(\n            SafeSwapUni.SafeSwapParams({\n                amountIn: _amount,\n                priceToken0: liquidStakeTokenPriceFeed.getExchangeRate(),\n                priceToken1: token0PriceFeed.getExchangeRate(),\n                token0: liquidStakeToken,\n                token1: token0Address,\n                maxMarketMovementAllowed: maxMarketMovementAllowed,\n                path: liquidStakeToToken0Path,\n                destination: address(this)\n            })\n        );\n    }\n}\n\ncontract VaultBenqiAVAXLiqStakeLP is VaultBenqiLiqStakeLP {}\n",
  "sourcePath": "/Users/kristophm/Documents/workspace/zorro-protocol/contracts/vaults/VaultBenqiLiqStakeLP.sol",
  "compiler": {
    "name": "solc",
    "version": "0.8.10+commit.fc410830.Emscripten.clang"
  },
  "schemaVersion": "3.4.10",
  "updatedAt": "2022-11-24T02:03:38.238Z",
  "devdoc": {
    "kind": "dev",
    "methods": {
      "depositWantToken(uint256)": {
        "params": {
          "_wantAmt": "amount of underlying token to deposit/stake"
        },
        "returns": {
          "sharesAdded": "uint256 Number of shares added"
        }
      },
      "earn(uint256)": {
        "params": {
          "_maxMarketMovementAllowed": "The max slippage allowed. 1000 = 0 %, 995 = 0.5%, etc."
        }
      },
      "exchangeUSDForWantToken(uint256,uint256)": {
        "params": {
          "_amountUSD": "The USD quantity to exchange (must already be deposited)",
          "_maxMarketMovementAllowed": "The max slippage allowed. 1000 = 0 %, 995 = 0.5%, etc."
        },
        "returns": {
          "_0": "uint256 Amount of Want token obtained"
        }
      },
      "exchangeWantTokenForUSD(uint256,uint256)": {
        "params": {
          "_amount": "The Want token quantity to exchange (must be deposited beforehand)",
          "_maxMarketMovementAllowed": "The max slippage allowed for swaps. 1000 = 0 %, 995 = 0.5%, etc."
        },
        "returns": {
          "returnedUSD": "Amount of USD token obtained"
        }
      },
      "inCaseTokensGetStuck(address,uint256,address)": {
        "params": {
          "_amount": "The amount of the tokens to transfer",
          "_to": "The address to transfer tokens to",
          "_token": "Address of the ERC20 token to transfer"
        }
      },
      "initialize(address,(uint256,bool,bool,(address,address,address,address,address,address,address,address,address,address,address,address,address,address,address,address),address,address,address[],address[],address[],address[],address[],address[],address[],address[],(uint256,uint256,uint256,uint256,uint256),(address,address,address,address,address,address),uint256))": {
        "params": {
          "_initValue": "A VaultAlpacaInit struct containing all init values",
          "_timelockOwner": "The designated timelock controller address to act as owner"
        }
      },
      "owner()": {
        "details": "Returns the address of the current owner."
      },
      "paused()": {
        "details": "Returns true if the contract is paused, and false otherwise."
      },
      "renounceOwnership()": {
        "details": "Leaves the contract without owner. It will not be possible to call `onlyOwner` functions anymore. Can only be called by the current owner. NOTE: Renouncing ownership will leave the contract without an owner, thereby removing any functionality that is only available to the owner."
      },
      "setFeeSettings(uint256,uint256,uint256,uint256,uint256)": {
        "params": {
          "_buyBackRate": "Buy back rate fee numerator",
          "_controllerFee": "Controller fee numerator",
          "_entranceFeeFactor": "Entrance fee numerator (higher means smaller percentage)",
          "_revShareRate": "Rev share rate fee numerator",
          "_withdrawFeeFactor": "Withdrawal fee numerator (higher means smaller percentage)"
        }
      },
      "setGov(address)": {
        "params": {
          "_govAddress": "The new gov address"
        }
      },
      "setOnlyGov(bool)": {
        "params": {
          "_onlyGov": "whether onlyGov should be enforced"
        }
      },
      "transferOwnership(address)": {
        "details": "Transfers ownership of the contract to a new account (`newOwner`). Can only be called by the current owner."
      },
      "withdrawWantToken(uint256)": {
        "params": {
          "_wantAmt": "The amount of Want token to withdraw"
        },
        "returns": {
          "sharesRemoved": "The number of shares removed"
        }
      }
    },
    "title": "Vault contract for Benqi liquid staking + LP strategy",
    "version": 1
  },
  "userdoc": {
    "kind": "user",
    "methods": {
      "depositWantToken(uint256)": {
        "notice": "Receives new deposits from user"
      },
      "earn(uint256)": {
        "notice": "The main compounding (earn) function. Reinvests profits since the last earn event."
      },
      "exchangeUSDForWantToken(uint256,uint256)": {
        "notice": "Performs necessary operations to convert USD into Want token"
      },
      "exchangeWantTokenForUSD(uint256,uint256)": {
        "notice": "Converts Want token back into USD to be ready for withdrawal and transfers to sender"
      },
      "farm()": {
        "notice": "Public function for farming Want token."
      },
      "inCaseTokensGetStuck(address,uint256,address)": {
        "notice": "Safely transfer ERC20 tokens stuck in this contract to a specified address"
      },
      "initialize(address,(uint256,bool,bool,(address,address,address,address,address,address,address,address,address,address,address,address,address,address,address,address),address,address,address[],address[],address[],address[],address[],address[],address[],address[],(uint256,uint256,uint256,uint256,uint256),(address,address,address,address,address,address),uint256))": {
        "notice": "Upgradeable constructor"
      },
      "pause()": {
        "notice": "Pause contract"
      },
      "setFeeSettings(uint256,uint256,uint256,uint256,uint256)": {
        "notice": "Configure key fee parameters"
      },
      "setGov(address)": {
        "notice": "Set governor address"
      },
      "setOnlyGov(bool)": {
        "notice": "Set onlyGov property"
      },
      "unpause()": {
        "notice": "Unpause contract"
      },
      "withdrawWantToken(uint256)": {
        "notice": "Fully withdraw Want tokens from the Farm contract (100% withdrawals only)"
      }
    },
    "version": 1
  }
}