{
  "contractName": "VaultBenqiAVAXLiqStakeLP",
  "abi": [
    {
      "anonymous": false,
      "inputs": [
        {
          "indexed": true,
          "internalType": "uint256",
          "name": "_amount",
          "type": "uint256"
        }
      ],
      "name": "Buyback",
      "type": "event"
    },
    {
      "anonymous": false,
      "inputs": [
        {
          "indexed": true,
          "internalType": "address",
          "name": "previousOwner",
          "type": "address"
        },
        {
          "indexed": true,
          "internalType": "address",
          "name": "newOwner",
          "type": "address"
        }
      ],
      "name": "OwnershipTransferred",
      "type": "event"
    },
    {
      "anonymous": false,
      "inputs": [
        {
          "indexed": false,
          "internalType": "address",
          "name": "account",
          "type": "address"
        }
      ],
      "name": "Paused",
      "type": "event"
    },
    {
      "anonymous": false,
      "inputs": [
        {
          "indexed": true,
          "internalType": "uint256",
          "name": "_amount",
          "type": "uint256"
        }
      ],
      "name": "RevShare",
      "type": "event"
    },
    {
      "anonymous": false,
      "inputs": [
        {
          "indexed": false,
          "internalType": "address",
          "name": "_govAddress",
          "type": "address"
        }
      ],
      "name": "SetGov",
      "type": "event"
    },
    {
      "anonymous": false,
      "inputs": [
        {
          "indexed": false,
          "internalType": "bool",
          "name": "_onlyGov",
          "type": "bool"
        }
      ],
      "name": "SetOnlyGov",
      "type": "event"
    },
    {
      "anonymous": false,
      "inputs": [
        {
          "indexed": false,
          "internalType": "address",
          "name": "_rewardsAddress",
          "type": "address"
        }
      ],
      "name": "SetRewardsAddress",
      "type": "event"
    },
    {
      "anonymous": false,
      "inputs": [
        {
          "indexed": false,
          "internalType": "uint256",
          "name": "_entranceFeeFactor",
          "type": "uint256"
        },
        {
          "indexed": false,
          "internalType": "uint256",
          "name": "_withdrawFeeFactor",
          "type": "uint256"
        },
        {
          "indexed": false,
          "internalType": "uint256",
          "name": "_controllerFee",
          "type": "uint256"
        },
        {
          "indexed": false,
          "internalType": "uint256",
          "name": "_buyBackRate",
          "type": "uint256"
        },
        {
          "indexed": false,
          "internalType": "uint256",
          "name": "_revShareRate",
          "type": "uint256"
        }
      ],
      "name": "SetSettings",
      "type": "event"
    },
    {
      "anonymous": false,
      "inputs": [
        {
          "indexed": false,
          "internalType": "address",
          "name": "_uniRouterAddress",
          "type": "address"
        }
      ],
      "name": "SetUniRouterAddress",
      "type": "event"
    },
    {
      "anonymous": false,
      "inputs": [
        {
          "indexed": false,
          "internalType": "address",
          "name": "account",
          "type": "address"
        }
      ],
      "name": "Unpaused",
      "type": "event"
    },
    {
      "inputs": [],
      "name": "ZORPriceFeed",
      "outputs": [
        {
          "internalType": "contract AggregatorV3Interface",
          "name": "",
          "type": "address"
        }
      ],
      "stateMutability": "view",
      "type": "function"
    },
    {
      "inputs": [],
      "name": "ZORROAddress",
      "outputs": [
        {
          "internalType": "address",
          "name": "",
          "type": "address"
        }
      ],
      "stateMutability": "view",
      "type": "function"
    },
    {
      "inputs": [],
      "name": "burnAddress",
      "outputs": [
        {
          "internalType": "address",
          "name": "",
          "type": "address"
        }
      ],
      "stateMutability": "view",
      "type": "function"
    },
    {
      "inputs": [],
      "name": "buyBackRate",
      "outputs": [
        {
          "internalType": "uint256",
          "name": "",
          "type": "uint256"
        }
      ],
      "stateMutability": "view",
      "type": "function"
    },
    {
      "inputs": [],
      "name": "buyBackRateMax",
      "outputs": [
        {
          "internalType": "uint256",
          "name": "",
          "type": "uint256"
        }
      ],
      "stateMutability": "view",
      "type": "function"
    },
    {
      "inputs": [],
      "name": "buyBackRateUL",
      "outputs": [
        {
          "internalType": "uint256",
          "name": "",
          "type": "uint256"
        }
      ],
      "stateMutability": "view",
      "type": "function"
    },
    {
      "inputs": [],
      "name": "controllerFee",
      "outputs": [
        {
          "internalType": "uint256",
          "name": "",
          "type": "uint256"
        }
      ],
      "stateMutability": "view",
      "type": "function"
    },
    {
      "inputs": [],
      "name": "controllerFeeMax",
      "outputs": [
        {
          "internalType": "uint256",
          "name": "",
          "type": "uint256"
        }
      ],
      "stateMutability": "view",
      "type": "function"
    },
    {
      "inputs": [],
      "name": "controllerFeeUL",
      "outputs": [
        {
          "internalType": "uint256",
          "name": "",
          "type": "uint256"
        }
      ],
      "stateMutability": "view",
      "type": "function"
    },
    {
      "inputs": [],
      "name": "defaultStablecoin",
      "outputs": [
        {
          "internalType": "address",
          "name": "",
          "type": "address"
        }
      ],
      "stateMutability": "view",
      "type": "function"
    },
    {
      "inputs": [
        {
          "internalType": "uint256",
          "name": "_wantAmt",
          "type": "uint256"
        }
      ],
      "name": "depositWantToken",
      "outputs": [
        {
          "internalType": "uint256",
          "name": "sharesAdded",
          "type": "uint256"
        }
      ],
      "stateMutability": "nonpayable",
      "type": "function"
    },
    {
      "inputs": [
        {
          "internalType": "uint256",
          "name": "_maxMarketMovementAllowed",
          "type": "uint256"
        }
      ],
      "name": "earn",
      "outputs": [],
      "stateMutability": "nonpayable",
      "type": "function"
    },
    {
      "inputs": [],
      "name": "earnTokenPriceFeed",
      "outputs": [
        {
          "internalType": "contract AggregatorV3Interface",
          "name": "",
          "type": "address"
        }
      ],
      "stateMutability": "view",
      "type": "function"
    },
    {
      "inputs": [],
      "name": "earnedAddress",
      "outputs": [
        {
          "internalType": "address",
          "name": "",
          "type": "address"
        }
      ],
      "stateMutability": "view",
      "type": "function"
    },
    {
      "inputs": [
        {
          "internalType": "uint256",
          "name": "",
          "type": "uint256"
        }
      ],
      "name": "earnedToStablecoinPath",
      "outputs": [
        {
          "internalType": "address",
          "name": "",
          "type": "address"
        }
      ],
      "stateMutability": "view",
      "type": "function"
    },
    {
      "inputs": [
        {
          "internalType": "uint256",
          "name": "",
          "type": "uint256"
        }
      ],
      "name": "earnedToToken0Path",
      "outputs": [
        {
          "internalType": "address",
          "name": "",
          "type": "address"
        }
      ],
      "stateMutability": "view",
      "type": "function"
    },
    {
      "inputs": [
        {
          "internalType": "uint256",
          "name": "",
          "type": "uint256"
        }
      ],
      "name": "earnedToToken1Path",
      "outputs": [
        {
          "internalType": "address",
          "name": "",
          "type": "address"
        }
      ],
      "stateMutability": "view",
      "type": "function"
    },
    {
      "inputs": [
        {
          "internalType": "uint256",
          "name": "",
          "type": "uint256"
        }
      ],
      "name": "earnedToZORLPPoolOtherTokenPath",
      "outputs": [
        {
          "internalType": "address",
          "name": "",
          "type": "address"
        }
      ],
      "stateMutability": "view",
      "type": "function"
    },
    {
      "inputs": [
        {
          "internalType": "uint256",
          "name": "",
          "type": "uint256"
        }
      ],
      "name": "earnedToZORROPath",
      "outputs": [
        {
          "internalType": "address",
          "name": "",
          "type": "address"
        }
      ],
      "stateMutability": "view",
      "type": "function"
    },
    {
      "inputs": [],
      "name": "entranceFeeFactor",
      "outputs": [
        {
          "internalType": "uint256",
          "name": "",
          "type": "uint256"
        }
      ],
      "stateMutability": "view",
      "type": "function"
    },
    {
      "inputs": [],
      "name": "entranceFeeFactorLL",
      "outputs": [
        {
          "internalType": "uint256",
          "name": "",
          "type": "uint256"
        }
      ],
      "stateMutability": "view",
      "type": "function"
    },
    {
      "inputs": [],
      "name": "entranceFeeFactorMax",
      "outputs": [
        {
          "internalType": "uint256",
          "name": "",
          "type": "uint256"
        }
      ],
      "stateMutability": "view",
      "type": "function"
    },
    {
      "inputs": [
        {
          "internalType": "uint256",
          "name": "_amountUSD",
          "type": "uint256"
        },
        {
          "internalType": "uint256",
          "name": "_maxMarketMovementAllowed",
          "type": "uint256"
        }
      ],
      "name": "exchangeUSDForWantToken",
      "outputs": [
        {
          "internalType": "uint256",
          "name": "",
          "type": "uint256"
        }
      ],
      "stateMutability": "nonpayable",
      "type": "function"
    },
    {
      "inputs": [
        {
          "internalType": "uint256",
          "name": "_amount",
          "type": "uint256"
        },
        {
          "internalType": "uint256",
          "name": "_maxMarketMovementAllowed",
          "type": "uint256"
        }
      ],
      "name": "exchangeWantTokenForUSD",
      "outputs": [
        {
          "internalType": "uint256",
          "name": "returnedUSD",
          "type": "uint256"
        }
      ],
      "stateMutability": "nonpayable",
      "type": "function"
    },
    {
      "inputs": [],
      "name": "farm",
      "outputs": [],
      "stateMutability": "nonpayable",
      "type": "function"
    },
    {
      "inputs": [],
      "name": "farmContractAddress",
      "outputs": [
        {
          "internalType": "address",
          "name": "",
          "type": "address"
        }
      ],
      "stateMutability": "view",
      "type": "function"
    },
    {
      "inputs": [],
      "name": "govAddress",
      "outputs": [
        {
          "internalType": "address",
          "name": "",
          "type": "address"
        }
      ],
      "stateMutability": "view",
      "type": "function"
    },
    {
      "inputs": [
        {
          "internalType": "address",
          "name": "_token",
          "type": "address"
        },
        {
          "internalType": "uint256",
          "name": "_amount",
          "type": "uint256"
        },
        {
          "internalType": "address",
          "name": "_to",
          "type": "address"
        }
      ],
      "name": "inCaseTokensGetStuck",
      "outputs": [],
      "stateMutability": "nonpayable",
      "type": "function"
    },
    {
      "inputs": [
        {
          "internalType": "address",
          "name": "_timelockOwner",
          "type": "address"
        },
        {
          "components": [
            {
              "internalType": "uint256",
              "name": "pid",
              "type": "uint256"
            },
            {
              "internalType": "bool",
              "name": "isHomeChain",
              "type": "bool"
            },
            {
              "internalType": "bool",
              "name": "isFarmable",
              "type": "bool"
            },
            {
              "components": [
                {
                  "internalType": "address",
                  "name": "govAddress",
                  "type": "address"
                },
                {
                  "internalType": "address",
                  "name": "zorroControllerAddress",
                  "type": "address"
                },
                {
                  "internalType": "address",
                  "name": "zorroXChainController",
                  "type": "address"
                },
                {
                  "internalType": "address",
                  "name": "ZORROAddress",
                  "type": "address"
                },
                {
                  "internalType": "address",
                  "name": "zorroStakingVault",
                  "type": "address"
                },
                {
                  "internalType": "address",
                  "name": "wantAddress",
                  "type": "address"
                },
                {
                  "internalType": "address",
                  "name": "token0Address",
                  "type": "address"
                },
                {
                  "internalType": "address",
                  "name": "token1Address",
                  "type": "address"
                },
                {
                  "internalType": "address",
                  "name": "earnedAddress",
                  "type": "address"
                },
                {
                  "internalType": "address",
                  "name": "farmContractAddress",
                  "type": "address"
                },
                {
                  "internalType": "address",
                  "name": "rewardsAddress",
                  "type": "address"
                },
                {
                  "internalType": "address",
                  "name": "poolAddress",
                  "type": "address"
                },
                {
                  "internalType": "address",
                  "name": "uniRouterAddress",
                  "type": "address"
                },
                {
                  "internalType": "address",
                  "name": "zorroLPPool",
                  "type": "address"
                },
                {
                  "internalType": "address",
                  "name": "zorroLPPoolOtherToken",
                  "type": "address"
                },
                {
                  "internalType": "address",
                  "name": "defaultStablecoin",
                  "type": "address"
                }
              ],
              "internalType": "struct VaultLibrary.VaultAddresses",
              "name": "keyAddresses",
              "type": "tuple"
            },
            {
              "internalType": "address",
              "name": "liquidStakeToken",
              "type": "address"
            },
            {
              "internalType": "address",
              "name": "liquidStakingPool",
              "type": "address"
            },
            {
              "internalType": "address[]",
              "name": "earnedToZORROPath",
              "type": "address[]"
            },
            {
              "internalType": "address[]",
              "name": "earnedToToken0Path",
              "type": "address[]"
            },
            {
              "internalType": "address[]",
              "name": "stablecoinToToken0Path",
              "type": "address[]"
            },
            {
              "internalType": "address[]",
              "name": "earnedToZORLPPoolOtherTokenPath",
              "type": "address[]"
            },
            {
              "internalType": "address[]",
              "name": "earnedToStablecoinPath",
              "type": "address[]"
            },
            {
              "internalType": "address[]",
              "name": "stablecoinToZORROPath",
              "type": "address[]"
            },
            {
              "internalType": "address[]",
              "name": "stablecoinToLPPoolOtherTokenPath",
              "type": "address[]"
            },
            {
              "internalType": "address[]",
              "name": "liquidStakeToToken0Path",
              "type": "address[]"
            },
            {
              "components": [
                {
                  "internalType": "uint256",
                  "name": "controllerFee",
                  "type": "uint256"
                },
                {
                  "internalType": "uint256",
                  "name": "buyBackRate",
                  "type": "uint256"
                },
                {
                  "internalType": "uint256",
                  "name": "revShareRate",
                  "type": "uint256"
                },
                {
                  "internalType": "uint256",
                  "name": "entranceFeeFactor",
                  "type": "uint256"
                },
                {
                  "internalType": "uint256",
                  "name": "withdrawFeeFactor",
                  "type": "uint256"
                }
              ],
              "internalType": "struct VaultLibrary.VaultFees",
              "name": "fees",
              "type": "tuple"
            },
            {
              "components": [
                {
                  "internalType": "address",
                  "name": "token0PriceFeed",
                  "type": "address"
                },
                {
                  "internalType": "address",
                  "name": "earnTokenPriceFeed",
                  "type": "address"
                },
                {
                  "internalType": "address",
                  "name": "ZORPriceFeed",
                  "type": "address"
                },
                {
                  "internalType": "address",
                  "name": "lpPoolOtherTokenPriceFeed",
                  "type": "address"
                },
                {
                  "internalType": "address",
                  "name": "stablecoinPriceFeed",
                  "type": "address"
                },
                {
                  "internalType": "address",
                  "name": "liquidStakeTokenPriceFeed",
                  "type": "address"
                }
              ],
              "internalType": "struct VaultBaseLiqStakeLP.VaultBaseLiqStakeLPPriceFeeds",
              "name": "priceFeeds",
              "type": "tuple"
            },
            {
              "internalType": "uint256",
              "name": "maxMarketMovementAllowed",
              "type": "uint256"
            }
          ],
          "internalType": "struct VaultBaseLiqStakeLP.VaultBaseLiqStakeLPInit",
          "name": "_initValue",
          "type": "tuple"
        }
      ],
      "name": "initialize",
      "outputs": [],
      "stateMutability": "nonpayable",
      "type": "function"
    },
    {
      "inputs": [
        {
          "internalType": "address",
          "name": "_timelockOwner",
          "type": "address"
        }
      ],
      "name": "initialize",
      "outputs": [],
      "stateMutability": "nonpayable",
      "type": "function"
    },
    {
      "inputs": [],
      "name": "isFarmable",
      "outputs": [
        {
          "internalType": "bool",
          "name": "",
          "type": "bool"
        }
      ],
      "stateMutability": "view",
      "type": "function"
    },
    {
      "inputs": [],
      "name": "isHomeChain",
      "outputs": [
        {
          "internalType": "bool",
          "name": "",
          "type": "bool"
        }
      ],
      "stateMutability": "view",
      "type": "function"
    },
    {
      "inputs": [],
      "name": "lastEarnBlock",
      "outputs": [
        {
          "internalType": "uint256",
          "name": "",
          "type": "uint256"
        }
      ],
      "stateMutability": "view",
      "type": "function"
    },
    {
      "inputs": [
        {
          "internalType": "uint256",
          "name": "",
          "type": "uint256"
        }
      ],
      "name": "liquidStakeToToken0Path",
      "outputs": [
        {
          "internalType": "address",
          "name": "",
          "type": "address"
        }
      ],
      "stateMutability": "view",
      "type": "function"
    },
    {
      "inputs": [],
      "name": "liquidStakeToken",
      "outputs": [
        {
          "internalType": "address",
          "name": "",
          "type": "address"
        }
      ],
      "stateMutability": "view",
      "type": "function"
    },
    {
      "inputs": [],
      "name": "liquidStakeTokenPriceFeed",
      "outputs": [
        {
          "internalType": "contract AggregatorV3Interface",
          "name": "",
          "type": "address"
        }
      ],
      "stateMutability": "view",
      "type": "function"
    },
    {
      "inputs": [],
      "name": "liquidStakingPool",
      "outputs": [
        {
          "internalType": "address",
          "name": "",
          "type": "address"
        }
      ],
      "stateMutability": "view",
      "type": "function"
    },
    {
      "inputs": [],
      "name": "lpPoolOtherTokenPriceFeed",
      "outputs": [
        {
          "internalType": "contract AggregatorV3Interface",
          "name": "",
          "type": "address"
        }
      ],
      "stateMutability": "view",
      "type": "function"
    },
    {
      "inputs": [],
      "name": "maxMarketMovementAllowed",
      "outputs": [
        {
          "internalType": "uint256",
          "name": "",
          "type": "uint256"
        }
      ],
      "stateMutability": "view",
      "type": "function"
    },
    {
      "inputs": [],
      "name": "onlyGov",
      "outputs": [
        {
          "internalType": "bool",
          "name": "",
          "type": "bool"
        }
      ],
      "stateMutability": "view",
      "type": "function"
    },
    {
      "inputs": [],
      "name": "owner",
      "outputs": [
        {
          "internalType": "address",
          "name": "",
          "type": "address"
        }
      ],
      "stateMutability": "view",
      "type": "function"
    },
    {
      "inputs": [],
      "name": "pause",
      "outputs": [],
      "stateMutability": "nonpayable",
      "type": "function"
    },
    {
      "inputs": [],
      "name": "paused",
      "outputs": [
        {
          "internalType": "bool",
          "name": "",
          "type": "bool"
        }
      ],
      "stateMutability": "view",
      "type": "function"
    },
    {
      "inputs": [],
      "name": "pid",
      "outputs": [
        {
          "internalType": "uint256",
          "name": "",
          "type": "uint256"
        }
      ],
      "stateMutability": "view",
      "type": "function"
    },
    {
      "inputs": [],
      "name": "poolAddress",
      "outputs": [
        {
          "internalType": "address",
          "name": "",
          "type": "address"
        }
      ],
      "stateMutability": "view",
      "type": "function"
    },
    {
      "inputs": [],
      "name": "renounceOwnership",
      "outputs": [],
      "stateMutability": "nonpayable",
      "type": "function"
    },
    {
      "inputs": [],
      "name": "revShareRate",
      "outputs": [
        {
          "internalType": "uint256",
          "name": "",
          "type": "uint256"
        }
      ],
      "stateMutability": "view",
      "type": "function"
    },
    {
      "inputs": [],
      "name": "revShareRateMax",
      "outputs": [
        {
          "internalType": "uint256",
          "name": "",
          "type": "uint256"
        }
      ],
      "stateMutability": "view",
      "type": "function"
    },
    {
      "inputs": [],
      "name": "revShareRateUL",
      "outputs": [
        {
          "internalType": "uint256",
          "name": "",
          "type": "uint256"
        }
      ],
      "stateMutability": "view",
      "type": "function"
    },
    {
      "inputs": [],
      "name": "rewardsAddress",
      "outputs": [
        {
          "internalType": "address",
          "name": "",
          "type": "address"
        }
      ],
      "stateMutability": "view",
      "type": "function"
    },
    {
      "inputs": [
        {
          "internalType": "address",
          "name": "_burnAddress",
          "type": "address"
        }
      ],
      "name": "setBurnAddress",
      "outputs": [],
      "stateMutability": "nonpayable",
      "type": "function"
    },
    {
      "inputs": [
        {
          "internalType": "address",
          "name": "_defaultStablecoin",
          "type": "address"
        }
      ],
      "name": "setDefaultStablecoin",
      "outputs": [],
      "stateMutability": "nonpayable",
      "type": "function"
    },
    {
      "inputs": [
        {
          "internalType": "address",
          "name": "_earnedAddress",
          "type": "address"
        }
      ],
      "name": "setEarnedAddress",
      "outputs": [],
      "stateMutability": "nonpayable",
      "type": "function"
    },
    {
      "inputs": [
        {
          "internalType": "address",
          "name": "_farmContractAddress",
          "type": "address"
        }
      ],
      "name": "setFarmContractAddress",
      "outputs": [],
      "stateMutability": "nonpayable",
      "type": "function"
    },
    {
      "inputs": [
        {
          "internalType": "uint256",
          "name": "_entranceFeeFactor",
          "type": "uint256"
        },
        {
          "internalType": "uint256",
          "name": "_withdrawFeeFactor",
          "type": "uint256"
        },
        {
          "internalType": "uint256",
          "name": "_controllerFee",
          "type": "uint256"
        },
        {
          "internalType": "uint256",
          "name": "_buyBackRate",
          "type": "uint256"
        },
        {
          "internalType": "uint256",
          "name": "_revShareRate",
          "type": "uint256"
        }
      ],
      "name": "setFeeSettings",
      "outputs": [],
      "stateMutability": "nonpayable",
      "type": "function"
    },
    {
      "inputs": [
        {
          "internalType": "address",
          "name": "_govAddress",
          "type": "address"
        }
      ],
      "name": "setGov",
      "outputs": [],
      "stateMutability": "nonpayable",
      "type": "function"
    },
    {
      "inputs": [
        {
          "internalType": "bool",
          "name": "_isFarmable",
          "type": "bool"
        }
      ],
      "name": "setIsFarmable",
      "outputs": [],
      "stateMutability": "nonpayable",
      "type": "function"
    },
    {
      "inputs": [
        {
          "internalType": "uint256",
          "name": "_slippageNumerator",
          "type": "uint256"
        }
      ],
      "name": "setMaxMarketMovementAllowed",
      "outputs": [],
      "stateMutability": "nonpayable",
      "type": "function"
    },
    {
      "inputs": [
        {
          "internalType": "bool",
          "name": "_onlyGov",
          "type": "bool"
        }
      ],
      "name": "setOnlyGov",
      "outputs": [],
      "stateMutability": "nonpayable",
      "type": "function"
    },
    {
      "inputs": [
        {
          "internalType": "uint256",
          "name": "_pid",
          "type": "uint256"
        }
      ],
      "name": "setPid",
      "outputs": [],
      "stateMutability": "nonpayable",
      "type": "function"
    },
    {
      "inputs": [
        {
          "internalType": "address",
          "name": "_poolAddress",
          "type": "address"
        }
      ],
      "name": "setPoolAddress",
      "outputs": [],
      "stateMutability": "nonpayable",
      "type": "function"
    },
    {
      "inputs": [
        {
          "internalType": "uint8",
          "name": "_idx",
          "type": "uint8"
        },
        {
          "internalType": "address",
          "name": "_priceFeed",
          "type": "address"
        }
      ],
      "name": "setPriceFeed",
      "outputs": [],
      "stateMutability": "nonpayable",
      "type": "function"
    },
    {
      "inputs": [
        {
          "internalType": "address",
          "name": "_rewardsAddress",
          "type": "address"
        }
      ],
      "name": "setRewardsAddress",
      "outputs": [],
      "stateMutability": "nonpayable",
      "type": "function"
    },
    {
      "inputs": [
        {
          "internalType": "uint8",
          "name": "_idx",
          "type": "uint8"
        },
        {
          "internalType": "address[]",
          "name": "_path",
          "type": "address[]"
        }
      ],
      "name": "setStablecoinSwapPaths",
      "outputs": [],
      "stateMutability": "nonpayable",
      "type": "function"
    },
    {
      "inputs": [
        {
          "internalType": "uint8",
          "name": "_idx",
          "type": "uint8"
        },
        {
          "internalType": "address[]",
          "name": "_path",
          "type": "address[]"
        }
      ],
      "name": "setSwapPaths",
      "outputs": [],
      "stateMutability": "nonpayable",
      "type": "function"
    },
    {
      "inputs": [
        {
          "internalType": "address",
          "name": "_token0Address",
          "type": "address"
        }
      ],
      "name": "setToken0Address",
      "outputs": [],
      "stateMutability": "nonpayable",
      "type": "function"
    },
    {
      "inputs": [
        {
          "internalType": "address",
          "name": "_token1Address",
          "type": "address"
        }
      ],
      "name": "setToken1Address",
      "outputs": [],
      "stateMutability": "nonpayable",
      "type": "function"
    },
    {
      "inputs": [
        {
          "internalType": "address",
          "name": "_uniRouterAddress",
          "type": "address"
        }
      ],
      "name": "setUniRouterAddress",
      "outputs": [],
      "stateMutability": "nonpayable",
      "type": "function"
    },
    {
      "inputs": [
        {
          "internalType": "address",
          "name": "_wantAddress",
          "type": "address"
        }
      ],
      "name": "setWantAddress",
      "outputs": [],
      "stateMutability": "nonpayable",
      "type": "function"
    },
    {
      "inputs": [
        {
          "internalType": "address",
          "name": "_ZORROAddress",
          "type": "address"
        }
      ],
      "name": "setZORROAddress",
      "outputs": [],
      "stateMutability": "nonpayable",
      "type": "function"
    },
    {
      "inputs": [
        {
          "internalType": "address",
          "name": "_zorroControllerAddress",
          "type": "address"
        }
      ],
      "name": "setZorroControllerAddress",
      "outputs": [],
      "stateMutability": "nonpayable",
      "type": "function"
    },
    {
      "inputs": [
        {
          "internalType": "address",
          "name": "_poolAddress",
          "type": "address"
        }
      ],
      "name": "setZorroLPPoolAddress",
      "outputs": [],
      "stateMutability": "nonpayable",
      "type": "function"
    },
    {
      "inputs": [
        {
          "internalType": "address",
          "name": "_otherToken",
          "type": "address"
        }
      ],
      "name": "setZorroLPPoolOtherToken",
      "outputs": [],
      "stateMutability": "nonpayable",
      "type": "function"
    },
    {
      "inputs": [
        {
          "internalType": "address",
          "name": "_stakingVault",
          "type": "address"
        }
      ],
      "name": "setZorroStakingVault",
      "outputs": [],
      "stateMutability": "nonpayable",
      "type": "function"
    },
    {
      "inputs": [
        {
          "internalType": "address",
          "name": "_zorroXChainController",
          "type": "address"
        }
      ],
      "name": "setZorroXChainControllerAddress",
      "outputs": [],
      "stateMutability": "nonpayable",
      "type": "function"
    },
    {
      "inputs": [],
      "name": "sharesTotal",
      "outputs": [
        {
          "internalType": "uint256",
          "name": "",
          "type": "uint256"
        }
      ],
      "stateMutability": "view",
      "type": "function"
    },
    {
      "inputs": [],
      "name": "stablecoinPriceFeed",
      "outputs": [
        {
          "internalType": "contract AggregatorV3Interface",
          "name": "",
          "type": "address"
        }
      ],
      "stateMutability": "view",
      "type": "function"
    },
    {
      "inputs": [
        {
          "internalType": "uint256",
          "name": "",
          "type": "uint256"
        }
      ],
      "name": "stablecoinToLPPoolOtherTokenPath",
      "outputs": [
        {
          "internalType": "address",
          "name": "",
          "type": "address"
        }
      ],
      "stateMutability": "view",
      "type": "function"
    },
    {
      "inputs": [
        {
          "internalType": "uint256",
          "name": "",
          "type": "uint256"
        }
      ],
      "name": "stablecoinToToken0Path",
      "outputs": [
        {
          "internalType": "address",
          "name": "",
          "type": "address"
        }
      ],
      "stateMutability": "view",
      "type": "function"
    },
    {
      "inputs": [
        {
          "internalType": "uint256",
          "name": "",
          "type": "uint256"
        }
      ],
      "name": "stablecoinToToken1Path",
      "outputs": [
        {
          "internalType": "address",
          "name": "",
          "type": "address"
        }
      ],
      "stateMutability": "view",
      "type": "function"
    },
    {
      "inputs": [
        {
          "internalType": "uint256",
          "name": "",
          "type": "uint256"
        }
      ],
      "name": "stablecoinToZORROPath",
      "outputs": [
        {
          "internalType": "address",
          "name": "",
          "type": "address"
        }
      ],
      "stateMutability": "view",
      "type": "function"
    },
    {
      "inputs": [],
      "name": "token0Address",
      "outputs": [
        {
          "internalType": "address",
          "name": "",
          "type": "address"
        }
      ],
      "stateMutability": "view",
      "type": "function"
    },
    {
      "inputs": [],
      "name": "token0PriceFeed",
      "outputs": [
        {
          "internalType": "contract AggregatorV3Interface",
          "name": "",
          "type": "address"
        }
      ],
      "stateMutability": "view",
      "type": "function"
    },
    {
      "inputs": [
        {
          "internalType": "uint256",
          "name": "",
          "type": "uint256"
        }
      ],
      "name": "token0ToStablecoinPath",
      "outputs": [
        {
          "internalType": "address",
          "name": "",
          "type": "address"
        }
      ],
      "stateMutability": "view",
      "type": "function"
    },
    {
      "inputs": [],
      "name": "token1Address",
      "outputs": [
        {
          "internalType": "address",
          "name": "",
          "type": "address"
        }
      ],
      "stateMutability": "view",
      "type": "function"
    },
    {
      "inputs": [],
      "name": "token1PriceFeed",
      "outputs": [
        {
          "internalType": "contract AggregatorV3Interface",
          "name": "",
          "type": "address"
        }
      ],
      "stateMutability": "view",
      "type": "function"
    },
    {
      "inputs": [
        {
          "internalType": "uint256",
          "name": "",
          "type": "uint256"
        }
      ],
      "name": "token1ToStablecoinPath",
      "outputs": [
        {
          "internalType": "address",
          "name": "",
          "type": "address"
        }
      ],
      "stateMutability": "view",
      "type": "function"
    },
    {
      "inputs": [
        {
          "internalType": "address",
          "name": "newOwner",
          "type": "address"
        }
      ],
      "name": "transferOwnership",
      "outputs": [],
      "stateMutability": "nonpayable",
      "type": "function"
    },
    {
      "inputs": [],
      "name": "uniRouterAddress",
      "outputs": [
        {
          "internalType": "address",
          "name": "",
          "type": "address"
        }
      ],
      "stateMutability": "view",
      "type": "function"
    },
    {
      "inputs": [],
      "name": "unpause",
      "outputs": [],
      "stateMutability": "nonpayable",
      "type": "function"
    },
    {
      "inputs": [],
      "name": "wantAddress",
      "outputs": [
        {
          "internalType": "address",
          "name": "",
          "type": "address"
        }
      ],
      "stateMutability": "view",
      "type": "function"
    },
    {
      "inputs": [],
      "name": "wantLockedTotal",
      "outputs": [
        {
          "internalType": "uint256",
          "name": "",
          "type": "uint256"
        }
      ],
      "stateMutability": "view",
      "type": "function"
    },
    {
      "inputs": [],
      "name": "withdrawFeeFactor",
      "outputs": [
        {
          "internalType": "uint256",
          "name": "",
          "type": "uint256"
        }
      ],
      "stateMutability": "view",
      "type": "function"
    },
    {
      "inputs": [],
      "name": "withdrawFeeFactorLL",
      "outputs": [
        {
          "internalType": "uint256",
          "name": "",
          "type": "uint256"
        }
      ],
      "stateMutability": "view",
      "type": "function"
    },
    {
      "inputs": [],
      "name": "withdrawFeeFactorMax",
      "outputs": [
        {
          "internalType": "uint256",
          "name": "",
          "type": "uint256"
        }
      ],
      "stateMutability": "view",
      "type": "function"
    },
    {
      "inputs": [
        {
          "internalType": "uint256",
          "name": "_wantAmt",
          "type": "uint256"
        }
      ],
      "name": "withdrawWantToken",
      "outputs": [
        {
          "internalType": "uint256",
          "name": "sharesRemoved",
          "type": "uint256"
        }
      ],
      "stateMutability": "nonpayable",
      "type": "function"
    },
    {
      "inputs": [],
      "name": "zorroControllerAddress",
      "outputs": [
        {
          "internalType": "address",
          "name": "",
          "type": "address"
        }
      ],
      "stateMutability": "view",
      "type": "function"
    },
    {
      "inputs": [],
      "name": "zorroLPPool",
      "outputs": [
        {
          "internalType": "address",
          "name": "",
          "type": "address"
        }
      ],
      "stateMutability": "view",
      "type": "function"
    },
    {
      "inputs": [],
      "name": "zorroLPPoolOtherToken",
      "outputs": [
        {
          "internalType": "address",
          "name": "",
          "type": "address"
        }
      ],
      "stateMutability": "view",
      "type": "function"
    },
    {
      "inputs": [],
      "name": "zorroStakingVault",
      "outputs": [
        {
          "internalType": "address",
          "name": "",
          "type": "address"
        }
      ],
      "stateMutability": "view",
      "type": "function"
    },
    {
      "inputs": [],
      "name": "zorroXChainController",
      "outputs": [
        {
          "internalType": "address",
          "name": "",
          "type": "address"
        }
      ],
      "stateMutability": "view",
      "type": "function"
    }
  ],
  "bytecode": "0x608060405234801561001057600080fd5b50615db880620000216000396000f3fe608060405234801561001057600080fd5b50600436106105bb5760003560e060020a900480637bf604d811610304578063bf3a7d40116101ac578063e7198474116100f8578063f05c09b3116100b1578063f2fde38b1161008b578063f2fde38b14610bff578063f5046a2914610c12578063fbf5683f14610c25578063ff29b39514610c3857600080fd5b8063f05c09b314610bd6578063f106845414610be3578063f25342bf14610bec57600080fd5b8063e719847414610b7d578063e7a0367914610b90578063e9e15b4f14610ba3578063ebfba7c414610bb6578063edf5e58514610bc9578063ee50dc34146106fb57600080fd5b8063c8e3d18b11610165578063d7cb416f1161013f578063d7cb416f14610b31578063de84199114610b44578063e502a88d14610b57578063e65a011714610b6a57600080fd5b8063c8e3d18b14610af8578063ceb59cf414610b0b578063cfad57a214610b1e57600080fd5b8063bf3a7d4014610a99578063c0973eed14610aac578063c302a4d014610962578063c4d66de814610abf578063c524a05614610ad2578063c8479cd614610ae557600080fd5b806396e9aff81161026b578063ab196def11610224578063b3545c01116101fe578063b3545c01146105e8578063b61bb80a14610a60578063b73cba2a14610a73578063b8d5a72c14610a8657600080fd5b8063ab196def14610a27578063ae53e58a14610a3a578063b1414dbb14610a4d57600080fd5b806396e9aff8146109b55780639fc33a9f146109c8578063a0495391146109db578063a4d2b083146109ee578063aabf190b14610a01578063aada5bf614610a1457600080fd5b806385f02dd6116102bd57806385f02dd614610959578063866b2018146109625780638906758d1461096b5780638da5cb5b1461097e5780639339fd3c1461098f578063959334f4146109a257600080fd5b80637bf604d8146108f25780637ff36fbe1461090557806381aa8d3114610918578063833eeab91461092b57806383f019391461093e5780638456cb591461095157600080fd5b80634b0e72161161046757806361b5bf9f116103ce578063693a090b1161038757806370699c611161036157806370699c61146108b157806370d5ae05146108c4578063715018a6146108d75780637153ef86146108df57600080fd5b8063693a090b146108785780636ca8bd651461088b5780636f96f6fa1461089e57600080fd5b806361b5bf9f146108235780636392ab1214610836578063648794a41461084957806367057b6c146106fb57806367206d401461085c57806368f541621461086f57600080fd5b8063583bda3b11610420578063583bda3b146107b95780635c975abb146107cc5780635da79d63146107d75780635eedc574146107ea5780635fc77d43146107fd5780636183e8041461081057600080fd5b80634b0e72161461075a5780634bf71bb81461076d5780634c5b09da146107805780634d9f7bb2146106fb57806355ebedec14610793578063567e07c9146107a657600080fd5b80631e2bc672116105265780633214471f116104df57806342da4eb3116104b957806342da4eb31461073057806343788cd2146106fb57806344a3955e1461073957806346008a071461074257600080fd5b80633214471f1461071757806336e9332d146107205780633f4ba83a1461072857600080fd5b80631e2bc672146106c25780631e85b3ad146106d5578063211019d7146105e85780632209b59e146106e85780632717eff3146106fb578063320d47cc1461070457600080fd5b80630daef321116105785780630daef3211461064b5780630fa4e01e146106815780631334903f1461068a5780631755ff2114610693578063178a8d07146106a65780631b0d8aab146106af57600080fd5b8063051eed5e146105c057806305828d3e146105d5578063061c7d48146105e85780630761a172146106045780630b6bb30b1461060d5780630bbd6cd614610620575b600080fd5b6105d36105ce366004614e60565b610c4b565b005b6105d36105e3366004615083565b611121565b6105f16103e881565b6040519081526020015b60405180910390f35b6105f160f35481565b6105d361061b3660046150a0565b611170565b61063361062e3660046150bd565b61121e565b604051600160a060020a0390911681526020016105fb565b60cb54610671907501000000000000000000000000000000000000000000900460ff1681565b60405190151581526020016105fb565b6105f160e15481565b6105f160df5481565b60d85461063390600160a060020a031681565b6105f160dd5481565b6105d36106bd3660046150bd565b611248565b6106336106d03660046150bd565b61127a565b6106336106e33660046150bd565b61128a565b6105f16106f63660046150bd565b61129a565b6105f161271081565b6105d36107123660046150bd565b611434565b6105f160de5481565b6105d3611466565b6105d36114a0565b6105f160e25481565b6105f160e35481565b60cb54610633906101009004600160a060020a031681565b6105d3610768366004615083565b6114dc565b61063361077b3660046150bd565b61152b565b6105d361078e366004615083565b61153b565b6105f16107a13660046150bd565b61158a565b6105d36107b4366004615083565b6117a7565b6105d36107c7366004615083565b6117f6565b60975460ff16610671565b6105d36107e5366004615083565b611845565b60f85461063390600160a060020a031681565b60cd5461063390600160a060020a031681565b6105d361081e366004615083565b611894565b6105d3610831366004615083565b6118e3565b6106336108443660046150bd565b611932565b6105f16108573660046150d6565b611942565b6105d361086a3660046150f8565b611b60565b6105f160e05481565b60d95461063390600160a060020a031681565b6105d3610899366004615083565b611c68565b60ef5461063390600160a060020a031681565b60f75461063390600160a060020a031681565b60d65461063390600160a060020a031681565b6105d3611cb7565b6105d36108ed36600461513a565b611cee565b60da5461063390600160a060020a031681565b60d15461063390600160a060020a031681565b6106336109263660046150bd565b611fe2565b6106336109393660046150bd565b611ff2565b6105d361094c3660046150a0565b612002565b6105d3612042565b6105f160dc5481565b6105f161232881565b6105d3610979366004615083565b61207c565b603354600160a060020a0316610633565b6105d361099d366004615184565b6120cb565b6105d36109b0366004615083565b61218d565b6106336109c33660046150bd565b6121dc565b60d45461063390600160a060020a031681565b6106336109e93660046150bd565b6121ec565b60cf5461063390600160a060020a031681565b60f05461063390600160a060020a031681565b60f25461063390600160a060020a031681565b60f15461063390600160a060020a031681565b60ee5461063390600160a060020a031681565b60cc5461063390600160a060020a031681565b60d55461063390600160a060020a031681565b6105d3610a81366004615083565b6121fc565b610633610a943660046150bd565b61224b565b6105d3610aa7366004615083565b61225b565b60d75461063390600160a060020a031681565b6105d3610acd366004615083565b6122aa565b6105d3610ae0366004615083565b612345565b6105d3610af3366004615083565b612394565b610633610b063660046150bd565b6123e3565b60f95461063390600160a060020a031681565b6105d3610b2c366004615083565b6123f3565b60d25461063390600160a060020a031681565b6105d3610b5236600461520b565b612488565b6105f1610b653660046150d6565b61260a565b6105d3610b783660046150bd565b6127dc565b60d35461063390600160a060020a031681565b60d05461063390600160a060020a031681565b6105d3610bb1366004615083565b612e5c565b60db5461063390600160a060020a031681565b60c9546106719060ff1681565b60cb546106719060ff1681565b6105f160ca5481565b60ed5461063390600160a060020a031681565b6105d3610c0d366004615083565b612eab565b60ce5461063390600160a060020a031681565b610633610c333660046150bd565b612f63565b6105d3610c46366004615184565b612f73565b600054610100900460ff16610c665760005460ff1615610c6a565b303b155b610c925760405160e560020a62461bcd028152600401610c8990615244565b60405180910390fd5b600054610100900460ff16158015610cb4576000805461ffff19166101011790555b815160ca5560208083015160c9805460ff191691151591909117905560408084015160cb80546060808801518051750100000000000000000000000000000000000000000074ffffffffffffffffffffffffffffffffffffffffff1990941695151574ffffffffffffffffffffffffffffffffffffffff00191695909517610100600160a060020a0396871681029190911775ff0000000000000000000000000000000000000000001916939093179093558286015160cc8054600160a060020a03199081169287169290921790558386015160cd805483169187169190911790558382015160ce8054831691871691909117905560808085015160cf8054841691881691909117905560a08086015160d08054851691891691909117905560c08087015160d180548616918a169190911790559486015160d38054851691891691909117905561012086015160d48054851691891691909117905561014086015160d78054851691891691909117905561016086015160d88054851691891691909117905561018086015160d9805485169189169190911790556101a086015160da805485169189169190911790556101c08087015160db80548616918a169190911790556101e09096015160d580548516918916919091179055818b015160f7805485169189169190911790558a015160f88054909316961695909517905591870151805160dc558086015160dd559384015160de559083015160df5591015160e0558301518051610eec9260ea9201906149d9565b5060e08201518051610f069160e8916020909101906149d9565b506101008201518051610f219160e4916020909101906149d9565b506101208201518051610f3c9160eb916020909101906149d9565b506101408201518051610f579160ec916020909101906149d9565b506101008201518051610f729160e4916020909101906149d9565b506101608201518051610f8d9160f4916020909101906149d9565b506101808201518051610fa89160f5916020909101906149d9565b506040517f8b4c5aee00000000000000000000000000000000000000000000000000000000815273__VaultLibrary__________________________90638b4c5aee90610ffa9060e4906004016152a1565b600060405180830381865af4158015611017573d6000803e3d6000fd5b505050506040513d6000823e601f3d908101601f1916820160405261103f91908101906152f1565b80516110539160e6916020909101906149d9565b506101a0820151805161106e9160f6916020909101906149d9565b506101e0820151805160ed8054600160a060020a0319908116600160a060020a0393841617909155602083015160ef80548316918416919091179055606083015160f080548316918416919091179055604083015160f180548316918416919091179055608083015160f28054831691841691909117905560a09092015160f98054909316911617905561020082015160f35561110a836122aa565b801561111c576000805461ff00191690555b505050565b603354600160a060020a0316331461114e5760405160e560020a62461bcd028152600401610c899061537d565b60d28054600160a060020a031916600160a060020a0392909216919091179055565b60cb546101009004600160a060020a031633146111a25760405160e560020a62461bcd028152600401610c89906153b2565b60cb805482151575010000000000000000000000000000000000000000000275ff000000000000000000000000000000000000000000199091161790556040517f125177ac7b8930dac1e59c2b30b1b6b9191b30af40cf6bbb5d20fec4d44be60f9061121390831515815260200190565b60405180910390a150565b60e6818154811061122e57600080fd5b600091825260209091200154600160a060020a0316905081565b603354600160a060020a031633146112755760405160e560020a62461bcd028152600401610c899061537d565b60ca55565b60f5818154811061122e57600080fd5b60e5818154811061122e57600080fd5b60cc54600090600160a060020a031633600160a060020a0316146112d35760405160e560020a62461bcd028152600401610c89906153e9565b600260655414156112f95760405160e560020a62461bcd028152600401610c8990615420565b600260655560975460ff16156113245760405160e560020a62461bcd028152600401610c8990615457565b600082116113775760405160e560020a62461bcd02815260206004820152601e60248201527f57616e7420746f6b656e206465706f736974206d757374206265203e203000006044820152606401610c89565b60d05461138f90600160a060020a0316333085613074565b819050600060e2541180156113a65750600060e354115b156113e1576113de6127106113d860e2546113d860df546113d260e3548961312590919063ffffffff16565b90613125565b90613131565b90505b60e3546113ee908261313d565b60e35560e2546113fe908361313d565b60e25560cb5460ff161561141957611414613149565b61142a565b60e254611426908361313d565b60e2555b6001606555919050565b603354600160a060020a031633146114615760405160e560020a62461bcd028152600401610c899061537d565b60f355565b6002606554141561148c5760405160e560020a62461bcd028152600401610c8990615420565b6002606555611499613149565b6001606555565b60cb546101009004600160a060020a031633146114d25760405160e560020a62461bcd028152600401610c89906153b2565b6114da6132b8565b565b603354600160a060020a031633146115095760405160e560020a62461bcd028152600401610c899061537d565b60d68054600160a060020a031916600160a060020a0392909216919091179055565b60ec818154811061122e57600080fd5b603354600160a060020a031633146115685760405160e560020a62461bcd028152600401610c899061537d565b60d48054600160a060020a031916600160a060020a0392909216919091179055565b60cc54600090600160a060020a031633600160a060020a0316146115c35760405160e560020a62461bcd028152600401610c89906153e9565b600260655414156115e95760405160e560020a62461bcd028152600401610c8990615420565b600260655560975460ff16156116145760405160e560020a62461bcd028152600401610c8990615457565b600082116116675760405160e560020a62461bcd02815260206004820152600760248201527f6e656757616e74000000000000000000000000000000000000000000000000006044820152606401610c89565b61168260e2546113d860e3548561312590919063ffffffff16565b905060e354811115611693575060e3545b60e3546116a09082613357565b60e35560e05461271011156116cd576116ca6127106113d860e0548561312590919063ffffffff16565b91505b60cb5460ff16156116e1576116e182613363565b60d05460405160e060020a6370a08231028152306004820152600091600160a060020a0316906370a0823190602401602060405180830381865afa15801561172d573d6000803e3d6000fd5b505050506040513d601f19601f82011682018060405250810190611751919061548e565b90508083111561175f578092505b8260e254101561176f5760e25492505b60e25461177c9084613357565b60e25560cc5460d05461179c91600160a060020a039182169116856133b8565b506001606555919050565b603354600160a060020a031633146117d45760405160e560020a62461bcd028152600401610c899061537d565b60cd8054600160a060020a031916600160a060020a0392909216919091179055565b603354600160a060020a031633146118235760405160e560020a62461bcd028152600401610c899061537d565b60ce8054600160a060020a031916600160a060020a0392909216919091179055565b603354600160a060020a031633146118725760405160e560020a62461bcd028152600401610c899061537d565b60d98054600160a060020a031916600160a060020a0392909216919091179055565b603354600160a060020a031633146118c15760405160e560020a62461bcd028152600401610c899061537d565b60d08054600160a060020a031916600160a060020a0392909216919091179055565b603354600160a060020a031633146119105760405160e560020a62461bcd028152600401610c899061537d565b60da8054600160a060020a031916600160a060020a0392909216919091179055565b60ea818154811061122e57600080fd5b60cc54600090600160a060020a031633600160a060020a03161461197b5760405160e560020a62461bcd028152600401610c89906153e9565b60975460ff16156119a15760405160e560020a62461bcd028152600401610c8990615457565b604080516101608101825260d154600160a060020a03908116825260d554811660208084019190915260d05482168385015260d8548216606084015260f7548216608084015260ed54821660a084015260f954821660c084015260f25490911660e083015260f6805484518184028101840190955280855273__VaultBenqiLiqStakeLPLibrary___________9463951a52f394899490936101008501939091830182828015611a7a57602002820191906000526020600020905b8154600160a060020a03168152600190910190602001808311611a5c575b5050505050815260200160e6805480602002602001604051908101604052809291908181526020018280548015611ada57602002820191906000526020600020905b8154600160a060020a03168152600190910190602001808311611abc575b505050918352505060d954600160a060020a031660209091015260405160e060020a63ffffffff8516028152611b1692919087906004016154eb565b602060405180830381865af4158015611b33573d6000803e3d6000fd5b505050506040513d601f19601f82011682018060405250810190611b57919061548e565b90505b92915050565b60cb546101009004600160a060020a03163314611b925760405160e560020a62461bcd028152600401610c89906153b2565b60d354600160a060020a0384811691161415611bf35760405160e560020a62461bcd02815260206004820152600560248201527f21736166650000000000000000000000000000000000000000000000000000006044820152606401610c89565b60d054600160a060020a0384811691161415611c545760405160e560020a62461bcd02815260206004820152600560248201527f21736166650000000000000000000000000000000000000000000000000000006044820152606401610c89565b61111c600160a060020a03841682846133b8565b603354600160a060020a03163314611c955760405160e560020a62461bcd028152600401610c899061537d565b60cf8054600160a060020a031916600160a060020a0392909216919091179055565b603354600160a060020a03163314611ce45760405160e560020a62461bcd028152600401610c899061537d565b6114da6000613401565b60cb546101009004600160a060020a03163314611d205760405160e560020a62461bcd028152600401610c89906153b2565b612328851015611d755760405160e560020a62461bcd02815260206004820152601a60248201527f5f656e7472616e6365466565466163746f7220746f6f206c6f770000000000006044820152606401610c89565b612710851115611dca5760405160e560020a62461bcd02815260206004820152601b60248201527f5f656e7472616e6365466565466163746f7220746f6f206869676800000000006044820152606401610c89565b60df859055612328841015611e245760405160e560020a62461bcd02815260206004820152601a60248201527f5f7769746864726177466565466163746f7220746f6f206c6f770000000000006044820152606401610c89565b612710841115611e795760405160e560020a62461bcd02815260206004820152601b60248201527f5f7769746864726177466565466163746f7220746f6f206869676800000000006044820152606401610c89565b60e08490556103e8831115611ed35760405160e560020a62461bcd02815260206004820152601760248201527f5f636f6e74726f6c6c657246656520746f6f20686967680000000000000000006044820152606401610c89565b60dc8390556103e8821115611f2d5760405160e560020a62461bcd02815260206004820152601560248201527f5f6275794261636b5261746520746f6f206869676800000000000000000000006044820152606401610c89565b60dd8290556103e8811115611f875760405160e560020a62461bcd02815260206004820152601660248201527f5f72657653686172655261746520746f6f2068696768000000000000000000006044820152606401610c89565b60de819055604080518681526020810186905290810184905260608101839052608081018290527fc67e0b149a57a70fa44a531a46c2c6d8e0b242fa12f459f250012c3a5987d29a9060a00160405180910390a15050505050565b60f4818154811061122e57600080fd5b60e4818154811061122e57600080fd5b603354600160a060020a0316331461202f5760405160e560020a62461bcd028152600401610c899061537d565b60cb805460ff1916911515919091179055565b60cb546101009004600160a060020a031633146120745760405160e560020a62461bcd028152600401610c89906153b2565b6114da613453565b603354600160a060020a031633146120a95760405160e560020a62461bcd028152600401610c899061537d565b60d78054600160a060020a031916600160a060020a0392909216919091179055565b603354600160a060020a031633146120f85760405160e560020a62461bcd028152600401610c899061537d565b60ff83166121125761210c60e48383614a3e565b50505050565b8260ff166001141561212a5761210c60f48383614a3e565b8260ff16600214156121425761210c60f58383614a3e565b60405160e560020a62461bcd02815260206004820152601960248201527f756e737570706f727465642069647820737761702070617468000000000000006044820152606401610c89565b603354600160a060020a031633146121ba5760405160e560020a62461bcd028152600401610c899061537d565b60db8054600160a060020a031916600160a060020a0392909216919091179055565b60e9818154811061122e57600080fd5b60e7818154811061122e57600080fd5b603354600160a060020a031633146122295760405160e560020a62461bcd028152600401610c899061537d565b60d38054600160a060020a031916600160a060020a0392909216919091179055565b60f6818154811061122e57600080fd5b603354600160a060020a031633146122885760405160e560020a62461bcd028152600401610c899061537d565b60cc8054600160a060020a031916600160a060020a0392909216919091179055565b600054610100900460ff166122c55760005460ff16156122c9565b303b155b6122e85760405160e560020a62461bcd028152600401610c8990615244565b600054610100900460ff1615801561230a576000805461ffff19166101011790555b6123126134ae565b61231b82612eab565b60d68054600160a060020a03191661dead1790558015612341576000805461ff00191690555b5050565b603354600160a060020a031633146123725760405160e560020a62461bcd028152600401610c899061537d565b60d58054600160a060020a031916600160a060020a0392909216919091179055565b603354600160a060020a031633146123c15760405160e560020a62461bcd028152600401610c899061537d565b60d18054600160a060020a031916600160a060020a0392909216919091179055565b60e8818154811061122e57600080fd5b60cb546101009004600160a060020a031633146124255760405160e560020a62461bcd028152600401610c89906153b2565b60cb805474ffffffffffffffffffffffffffffffffffffffff001916610100600160a060020a038416908102919091179091556040519081527f91a8c1cc2d4a3bb60738481947a00cbb9899c822916694cf8bb1d68172fdcd5490602001611213565b603354600160a060020a031633146124b55760405160e560020a62461bcd028152600401610c899061537d565b60ff82166124de5760ed8054600160a060020a038316600160a060020a03199091161790555050565b8160ff166001141561250b5760ee8054600160a060020a038316600160a060020a03199091161790555050565b8160ff16600214156125385760ef8054600160a060020a038316600160a060020a03199091161790555050565b8160ff16600314156125655760f18054600160a060020a038316600160a060020a03199091161790555050565b8160ff16600414156125925760f08054600160a060020a038316600160a060020a03199091161790555050565b8160ff16600514156125bf5760f28054600160a060020a038316600160a060020a03199091161790555050565b60405160e560020a62461bcd02815260206004820152601460248201527f756e737570706f727465642066656564206964780000000000000000000000006044820152606401610c89565b60cc54600090600160a060020a031633600160a060020a0316146126435760405160e560020a62461bcd028152600401610c89906153e9565b60975460ff16156126695760405160e560020a62461bcd028152600401610c8990615457565b604080516101608101825260d154600160a060020a03908116825260d554811660208084019190915260f75482168385015260ed548216606084015260f9548216608084015260f254821660a084015260d95490911660c083015260e4805484518184028101840190955280855273__VaultBenqiLiqStakeLPLibrary___________9463c4932d7a948994909360e0850193909183018282801561273757602002820191906000526020600020905b8154600160a060020a03168152600190910190602001808311612719575b5050505050815260200160f680548060200260200160405190810160405280929190818152602001828054801561279757602002820191906000526020600020905b8154600160a060020a03168152600190910190602001808311612779575b505050918352505060d854600160a060020a03908116602083015260d054166040918201525160e060020a63ffffffff8516028152611b16929190879060040161562e565b600260655414156128025760405160e560020a62461bcd028152600401610c8990615420565b600260655560975460ff161561282d5760405160e560020a62461bcd028152600401610c8990615457565b60cb547501000000000000000000000000000000000000000000900460ff16156128835760cb546101009004600160a060020a031633146128835760405160e560020a62461bcd028152600401610c89906153b2565b61288d6000613363565b60d35460405160e060020a6370a08231028152306004820152600091600160a060020a0316906370a0823190602401602060405180830381865afa1580156128d9573d6000803e3d6000fd5b505050506040513d601f19601f820116820180604052508101906128fd919061548e565b9050600081116129525760405160e560020a62461bcd02815260206004820152600560248201527f306561726e0000000000000000000000000000000000000000000000000000006044820152606401610c89565b61297d6040518060800160405280600081526020016000815260200160008152602001600081525090565b6040805160028082526060820183526000926020830190803683375050604080516002808252606082018352939450600093909250906020830190803683375050604080516080810190915260ef54929350918291506129e590600160a060020a03166134e0565b815260f154602090910190612a0290600160a060020a03166134e0565b815260f054602090910190612a1f90600160a060020a03166134e0565b815260f254602090910190612a3c90600160a060020a03166134e0565b8152509250826000015182600081518110612a5957612a5961575b565b602090810291909101015260ed54612a7990600160a060020a03166134e0565b82600181518110612a8c57612a8c61575b565b602002602001018181525050826000015181600081518110612ab057612ab061575b565b602090810291909101015260ee54612ad090600160a060020a03166134e0565b81600181518110612ae357612ae361575b565b602002602001018181525050600080612afb86613630565b9050600080612b0b888a89613680565b9092509050612b2681612b2084818c88613357565b90613357565b60d95460d354919550612b4a9450600160a060020a039182169350169050876137b1565b60d15460d354600160a060020a03908116911614612d4357604080516002808252606082018352600092602083019080368337505060d3546040805160e060020a63313ce5670281529051939450600160a060020a039091169263313ce567925060048083019260209291908290030181865afa158015612bcf573d6000803e3d6000fd5b505050506040513d601f19601f82011682018060405250810190612bf39190615774565b81600081518110612c0657612c0661575b565b60ff90921660209283029190910182015260d1546040805160e060020a63313ce5670281529051600160a060020a039092169263313ce567926004808401938290030181865afa158015612c5e573d6000803e3d6000fd5b505050506040513d601f19601f82011682018060405250810190612c829190615774565b81600181518110612c9557612c9561575b565b60ff90921660209283029190910190910152612d41612cb5836002613131565b858960e8805480602002602001604051908101604052809291908181526020018280548015612d0d57602002820191906000526020600020905b8154600160a060020a03168152600190910190602001808311612cef575b50505050508530612d296102584261313d90919063ffffffff16565b60d954600160a060020a031696959493929190613895565b505b60d15460405160e060020a6370a08231028152306004820152600091600160a060020a0316906370a0823190602401602060405180830381865afa158015612d8f573d6000803e3d6000fd5b505050506040513d601f19601f82011682018060405250810190612db3919061548e565b90508015612e4257612dc481613a15565b60f75460405160e060020a6370a08231028152306004820152600091600160a060020a0316906370a0823190602401602060405180830381865afa158015612e10573d6000803e3d6000fd5b505050506040513d601f19601f82011682018060405250810190612e34919061548e565b9050612e408189613ad0565b505b4360e155612e4e613149565b505060016065555050505050565b603354600160a060020a03163314612e895760405160e560020a62461bcd028152600401610c899061537d565b60d88054600160a060020a031916600160a060020a0392909216919091179055565b603354600160a060020a03163314612ed85760405160e560020a62461bcd028152600401610c899061537d565b600160a060020a038116612f575760405160e560020a62461bcd02815260206004820152602660248201527f4f776e61626c653a206e6577206f776e657220697320746865207a65726f206160448201527f64647265737300000000000000000000000000000000000000000000000000006064820152608401610c89565b612f6081613401565b50565b60eb818154811061122e57600080fd5b603354600160a060020a03163314612fa05760405160e560020a62461bcd028152600401610c899061537d565b60ff8316612fb45761210c60e48383614a3e565b8260ff1660011415612fcc5761210c60e58383614a3e565b8260ff1660021415612fe45761210c60e68383614a3e565b8260ff1660031415612ffc5761210c60e78383614a3e565b8260ff16600414156130145761210c60e88383614a3e565b8260ff166005141561302c5761210c60e98383614a3e565b8260ff16600614156130445761210c60ea8383614a3e565b8260ff166007141561305c5761210c60eb8383614a3e565b8260ff16600814156125bf5761210c60ec8383614a3e565b604051600160a060020a038085166024830152831660448201526064810182905261210c9085907f23b872dd00000000000000000000000000000000000000000000000000000000906084015b60408051601f198184030181529190526020810180517bffffffffffffffffffffffffffffffffffffffffffffffffffffffff167fffffffff0000000000000000000000000000000000000000000000000000000090931692909217909152613bf7565b6000611b5782846157aa565b6000611b5782846157c9565b6000611b5782846157ee565b60cb5460ff1661319e5760405160e560020a62461bcd02815260206004820152600960248201527f216661726d61626c6500000000000000000000000000000000000000000000006044820152606401610c89565b60d85460405160e060020a6370a08231028152306004820152600091600160a060020a0316906370a0823190602401602060405180830381865afa1580156131ea573d6000803e3d6000fd5b505050506040513d601f19601f8201168201806040525081019061320e919061548e565b60d45460d85491925061322e91600160a060020a039081169116836137b1565b60d45460ca546040517fe2bbb158000000000000000000000000000000000000000000000000000000008152600160a060020a039092169163e2bbb15891613283918590600401918252602082015260400190565b600060405180830381600087803b15801561329d57600080fd5b505af11580156132b1573d6000803e3d6000fd5b5050505050565b60975460ff1661330d5760405160e560020a62461bcd02815260206004820152601460248201527f5061757361626c653a206e6f74207061757365640000000000000000000000006044820152606401610c89565b6097805460ff191690557f5db9ee0a495bf2e6ff9c91a7834c1ba4fdd244a5e8aa4e537bd38aeae4b073aa335b604051600160a060020a03909116815260200160405180910390a1565b6000611b578284615806565b60d45460ca546040517f441a3e70000000000000000000000000000000000000000000000000000000008152600160a060020a039092169163441a3e7091613283918590600401918252602082015260400190565b604051600160a060020a03831660248201526044810182905261111c9084907fa9059cbb00000000000000000000000000000000000000000000000000000000906064016130c1565b60338054600160a060020a03838116600160a060020a0319831681179093556040519116919082907f8be0079c531659141344cd1fd0a4f28419497f9722a3daafe3b4186f6b6457e090600090a35050565b60975460ff16156134795760405160e560020a62461bcd028152600401610c8990615457565b6097805460ff191660011790557f62e78cea01bee320cd4e420270b5ea74000d11b0c9f74754ebdbfc544b05a25861333a3390565b600054610100900460ff166134d85760405160e560020a62461bcd028152600401610c899061581d565b6114da613cdf565b60008082600160a060020a031663313ce5676040518163ffffffff1660e060020a028152600401602060405180830381865afa158015613524573d6000803e3d6000fd5b505050506040513d601f19601f820116820180604052508101906135489190615774565b9050600083600160a060020a031663feaf968c6040518163ffffffff1660e060020a02815260040160a060405180830381865afa15801561358d573d6000803e3d6000fd5b505050506040513d601f19601f820116820180604052508101906135b19190615894565b505050915050600081121561360b5760405160e560020a62461bcd02815260206004820152601660248201527f6e656720707269636573206e6f7420616c6c6f776564000000000000000000006044820152606401610c89565b61362861361983600a6159cb565b6113d88364e8d4a51000613125565b949350505050565b6000811561367b5760dc541561367b5761365b6127106113d860dc548561312590919063ffffffff16565b60d75460d35491925061367b91600160a060020a039081169116836133b8565b919050565b600080600060dd5411156136ac576136a96127106113d860dd548861312590919063ffffffff16565b91505b60de54156136d2576136cf6127106113d860de548861312590919063ffffffff16565b90505b60c95460ff16156136f8576136e8828585613d12565b6136f381858561431f565b6137a9565b613718613705838361313d565b60cc54600160a060020a0316868661453e565b60cd5460ca546040517f464e3c8b0000000000000000000000000000000000000000000000000000000081526004810191909152602481018490526044810183905260648101869052600160a060020a039091169063464e3c8b90608401600060405180830381600087803b15801561379057600080fd5b505af11580156137a4573d6000803e3d6000fd5b505050505b935093915050565b6040517fdd62ed3e000000000000000000000000000000000000000000000000000000008152306004820152600160a060020a038381166024830152600091839186169063dd62ed3e90604401602060405180830381865afa15801561381b573d6000803e3d6000fd5b505050506040513d601f19601f8201168201806040525081019061383f919061548e565b61384991906157ee565b604051600160a060020a03851660248201526044810182905290915061210c9085907f095ea7b300000000000000000000000000000000000000000000000000000000906064016130c1565b82516002146138e95760405160e560020a62461bcd02815260206004820152600b60248201527f696e76616c6964206465630000000000000000000000000000000000000000006044820152606401610c89565b6000866000815181106138fe576138fe61575b565b60200260200101516000148061392e5750866001815181106139225761392261575b565b60200260200101516000145b1561394757613940898987898861464b565b905061398b565b613988888860008151811061395e5761395e61575b565b6020026020010151896001815181106139795761397961575b565b6020026020010151898861476b565b90505b6040517f5c11d795000000000000000000000000000000000000000000000000000000008152600160a060020a038a1690635c11d795906139d8908b9085908a90899089906004016159da565b600060405180830381600087803b1580156139f257600080fd5b505af1158015613a06573d6000803e3d6000fd5b50505050505050505050505050565b60975460ff1615613a3b5760405160e560020a62461bcd028152600401610c8990615457565b60d15460f7546040517f2ff198df00000000000000000000000000000000000000000000000000000000815260048101849052600160a060020a0392831660248201529116604482015273__VaultBenqiLiqStakeLPLibrary___________90632ff198df9060640160006040518083038186803b158015613abc57600080fd5b505af41580156132b1573d6000803e3d6000fd5b6040805160e08101825260d954600160a060020a03908116825260d154811660208084019190915260f7549091168284015260f6805484518184028101840190955280855273__VaultLiqStakeLPLibrary________________94633b367da1948894909360608501939091830182828015613b7557602002820191906000526020600020905b8154600160a060020a03168152600190910190602001808311613b57575b505050918352505060ed54600160a060020a03908116602083015260f9541660408083019190915260609091018690525160e060020a63ffffffff8516028152613bc3929190600401615a16565b60006040518083038186803b158015613bdb57600080fd5b505af4158015613bef573d6000803e3d6000fd5b505050505050565b6000613c4c826040518060400160405280602081526020017f5361666545524332303a206c6f772d6c6576656c2063616c6c206661696c656481525085600160a060020a03166147e69092919063ffffffff16565b80519091501561111c5780806020019051810190613c6a9190615aa5565b61111c5760405160e560020a62461bcd02815260206004820152602a60248201527f5361666545524332303a204552433230206f7065726174696f6e20646964206e60448201527f6f742073756363656564000000000000000000000000000000000000000000006064820152608401610c89565b600054610100900460ff16613d095760405160e560020a62461bcd028152600401610c899061581d565b6114da33613401565b60ef54600090613d2a90600160a060020a03166134e0565b6040805160028082526060820183529293506000929091602083019080368337505060d3546040805160e060020a63313ce5670281529051939450600160a060020a039091169263313ce567925060048083019260209291908290030181865afa158015613d9c573d6000803e3d6000fd5b505050506040513d601f19601f82011682018060405250810190613dc09190615774565b81600081518110613dd357613dd361575b565b60ff90921660209283029190910182015260ce546040805160e060020a63313ce5670281529051600160a060020a039092169263313ce567926004808401938290030181865afa158015613e2b573d6000803e3d6000fd5b505050506040513d601f19601f82011682018060405250810190613e4f9190615774565b81600181518110613e6257613e6261575b565b60ff92909216602092830291909101820152604080516002808252606082018352600093919290918301908036833701905050905081600081518110613eaa57613eaa61575b565b602002602001015181600081518110613ec557613ec561575b565b60ff90921660209283029190910182015260db546040805160e060020a63313ce5670281529051600160a060020a039092169263313ce567926004808401938290030181865afa158015613f1d573d6000803e3d6000fd5b505050506040513d601f19601f82011682018060405250810190613f419190615774565b81600181518110613f5457613f5461575b565b602002602001019060ff16908160ff1681525050614031604051806101000160405280613f8b60028a61313190919063ffffffff16565b815260208082018790528781015160408084019190915260d354600160a060020a03908116606085015260ce5416608084015260a083018a905260ea805482518185028101850190935280835260c090940193919290919083018282801561401c57602002820191906000526020600020905b8154600160a060020a03168152600190910190602001808311613ffe575b505050918352505030602090910152836147ff565b6140f760405180610100016040528061405460028a61313190919063ffffffff16565b815260208082018790526040888101518184015260d354600160a060020a03908116606085015260db5416608084015260a083018a905260eb805482518185028101850190935280835260c09094019391929091908301828280156140e257602002820191906000526020600020905b8154600160a060020a031681526001909101906020018083116140c4575b505050918352505030602090910152826147ff565b505060ce5460405160e060020a6370a0823102815230600482015260009250600160a060020a03909116906370a0823190602401602060405180830381865afa158015614148573d6000803e3d6000fd5b505050506040513d601f19601f8201168201806040525081019061416c919061548e565b60db5460405160e060020a6370a08231028152306004820152919250600091600160a060020a03909116906370a0823190602401602060405180830381865afa1580156141bd573d6000803e3d6000fd5b505050506040513d601f19601f820116820180604052508101906141e1919061548e565b60d95460ce5491925061420191600160a060020a039081169116846137b1565b60d95460db5461421e91600160a060020a039182169116836137b1565b60d95460ce5460db54600160a060020a039283169263e8e337009281169116858561424f6103e86113d8848d613125565b61425f6103e86113d88a8e613125565b60d654600160a060020a03166142774261025861313d565b60405163ffffffff8a1660e060020a028152600160a060020a039889166004820152968816602488015260448701959095526064860193909352608485019190915260a484015290921660c482015260e4810191909152610104016060604051808303816000875af11580156142f1573d6000803e3d6000fd5b505050506040513d601f19601f820116820180604052508101906143159190615ac2565b5050505050505050565b604080516002808252606082018352600092602083019080368337505060d3546040805160e060020a63313ce5670281529051939450600160a060020a039091169263313ce567925060048083019260209291908290030181865afa15801561438c573d6000803e3d6000fd5b505050506040513d601f19601f820116820180604052508101906143b09190615774565b816000815181106143c3576143c361575b565b60ff90921660209283029190910182015260ce546040805160e060020a63313ce5670281529051600160a060020a039092169263313ce567926004808401938290030181865afa15801561441b573d6000803e3d6000fd5b505050506040513d601f19601f8201168201806040525081019061443f9190615774565b816001815181106144525761445261575b565b60ff9092166020928302919091019091015260d95460d35461448191600160a060020a039182169116866137b1565b60408051610100810182528581528351602080830191909152848101518284015260d354600160a060020a03908116606084015260ce5416608083015260a0820186905260ea805484518184028101840190955280855261210c9460c08501939092919083018282801561451e57602002820191906000526020600020905b8154600160a060020a03168152600190910190602001808311614500575b505050918352505060cf54600160a060020a0316602090910152826147ff565b6040805160a08101825260d354600160a060020a03908116825260d5541660208083019190915260ec8054845181840281018401865281815273__VaultLibrary__________________________956308386be2958b958b958b958b959394850193928301828280156145da57602002820191906000526020600020905b8154600160a060020a031681526001909101906020018083116145bc575b505050918352505060d954600160a060020a0316602082015260608901516040918201525160e060020a63ffffffff881602815261461f959493929190600401615af0565b60006040518083038186803b15801561463757600080fd5b505af4158015614315573d6000803e3d6000fd5b60008086600160a060020a031663d06ca61f87876040518363ffffffff1660e060020a02815260040161467f929190615b94565b600060405180830381865afa15801561469c573d6000803e3d6000fd5b505050506040513d6000823e601f3d908101601f191682016040526146c49190810190615bad565b90506147606146f66103e8856000815181106146e2576146e261575b565b6020026020010151600a6113d291906159cb565b6113d88560018151811061470c5761470c61575b565b6020026020010151600a61472091906159cb565b6113d2888661473a6001895161335790919063ffffffff16565b8151811061474a5761474a61575b565b602002602001015161312590919063ffffffff16565b979650505050505050565b60006147dc6147a6836000815181106147865761478661575b565b6020026020010151600a61479a91906159cb565b6113d2876103e8613125565b6113d8846001815181106147bc576147bc61575b565b6020026020010151600a6147d091906159cb565b6113d287818c8c613125565b9695505050505050565b60606147f5848460008561485e565b90505b9392505050565b60d9546040517f0a18267d00000000000000000000000000000000000000000000000000000000815273__VaultLibrary__________________________91630a18267d91613bc391600160a060020a03169086908690600401615c63565b606030318311156148da5760405160e560020a62461bcd02815260206004820152602660248201527f416464726573733a20696e73756666696369656e742062616c616e636520666f60448201527f722063616c6c00000000000000000000000000000000000000000000000000006064820152608401610c89565b600160a060020a0385163b6149345760405160e560020a62461bcd02815260206004820152601d60248201527f416464726573733a2063616c6c20746f206e6f6e2d636f6e74726163740000006044820152606401610c89565b60008086600160a060020a031685876040516149509190615d33565b60006040518083038185875af1925050503d806000811461498d576040519150601f19603f3d011682016040523d82523d6000602084013e614992565b606091505b5091509150614760828286606083156149ac5750816147f8565b8251156149bc5782518084602001fd5b8160405160e560020a62461bcd028152600401610c899190615d4f565b828054828255906000526020600020908101928215614a2e579160200282015b82811115614a2e5782518254600160a060020a031916600160a060020a039091161782556020909201916001909101906149f9565b50614a3a929150614a91565b5090565b828054828255906000526020600020908101928215614a2e579160200282015b82811115614a2e578154600160a060020a031916600160a060020a03843516178255602090920191600190910190614a5e565b5b80821115614a3a5760008155600101614a92565b600160a060020a0381168114612f6057600080fd5b803561367b81614aa6565b60e060020a634e487b7102600052604160045260246000fd5b604051610200810167ffffffffffffffff81118282101715614b0357614b03614ac6565b60405290565b604051610220810167ffffffffffffffff81118282101715614b0357614b03614ac6565b604051601f8201601f1916810167ffffffffffffffff81118282101715614b5657614b56614ac6565b604052919050565b8015158114612f6057600080fd5b803561367b81614b5e565b60006102008284031215614b8a57600080fd5b614b92614adf565b9050614b9d82614abb565b8152614bab60208301614abb565b6020820152614bbc60408301614abb565b6040820152614bcd60608301614abb565b6060820152614bde60808301614abb565b6080820152614bef60a08301614abb565b60a0820152614c0060c08301614abb565b60c0820152614c1160e08301614abb565b60e0820152610100614c24818401614abb565b90820152610120614c36838201614abb565b90820152610140614c48838201614abb565b90820152610160614c5a838201614abb565b90820152610180614c6c838201614abb565b908201526101a0614c7e838201614abb565b908201526101c0614c90838201614abb565b908201526101e0614ca2838201614abb565b9082015292915050565b600067ffffffffffffffff821115614cc657614cc6614ac6565b5060209081020190565b600082601f830112614ce157600080fd5b81356020614cf6614cf183614cac565b614b2d565b82815291810284018101918181019086841115614d1257600080fd5b8286015b84811015614d36578035614d2981614aa6565b8352918301918301614d16565b509695505050505050565b600060a08284031215614d5357600080fd5b60405160a0810181811067ffffffffffffffff82111715614d7657614d76614ac6565b806040525080915082358152602083013560208201526040830135604082015260608301356060820152608083013560808201525092915050565b600060c08284031215614dc357600080fd5b60405160c0810181811067ffffffffffffffff82111715614de657614de6614ac6565b6040529050808235614df781614aa6565b81526020830135614e0781614aa6565b60208201526040830135614e1a81614aa6565b60408201526060830135614e2d81614aa6565b60608201526080830135614e4081614aa6565b608082015260a0830135614e5381614aa6565b60a0919091015292915050565b60008060408385031215614e7357600080fd5b8235614e7e81614aa6565b9150602083013567ffffffffffffffff80821115614e9b57600080fd5b908401906105208287031215614eb057600080fd5b614eb8614b09565b82358152614ec860208401614b6c565b6020820152614ed960408401614b6c565b6040820152614eeb8760608501614b77565b6060820152614efd6102608401614abb565b6080820152614f0f6102808401614abb565b60a08201526102a083013582811115614f2757600080fd5b614f3388828601614cd0565b60c0830152506102c083013582811115614f4c57600080fd5b614f5888828601614cd0565b60e0830152506102e083013582811115614f7157600080fd5b614f7d88828601614cd0565b6101008301525061030083013582811115614f9757600080fd5b614fa388828601614cd0565b6101208301525061032083013582811115614fbd57600080fd5b614fc988828601614cd0565b6101408301525061034083013582811115614fe357600080fd5b614fef88828601614cd0565b610160830152506103608301358281111561500957600080fd5b61501588828601614cd0565b610180830152506103808301358281111561502f57600080fd5b61503b88828601614cd0565b6101a083015250615050876103a08501614d41565b6101c0820152615064876104408501614db1565b6101e08201526105008301356102008201528093505050509250929050565b60006020828403121561509557600080fd5b81356147f881614aa6565b6000602082840312156150b257600080fd5b81356147f881614b5e565b6000602082840312156150cf57600080fd5b5035919050565b600080604083850312156150e957600080fd5b50508035926020909101359150565b60008060006060848603121561510d57600080fd5b833561511881614aa6565b925060208401359150604084013561512f81614aa6565b809150509250925092565b600080600080600060a0868803121561515257600080fd5b505083359560208501359550604085013594606081013594506080013592509050565b60ff81168114612f6057600080fd5b60008060006040848603121561519957600080fd5b83356151a481615175565b9250602084013567ffffffffffffffff808211156151c157600080fd5b818601915086601f8301126151d557600080fd5b8135818111156151e457600080fd5b87602080830285010111156151f857600080fd5b6020830194508093505050509250925092565b6000806040838503121561521e57600080fd5b823561522981615175565b9150602083013561523981614aa6565b809150509250929050565b6020808252602e908201527f496e697469616c697a61626c653a20636f6e747261637420697320616c72656160408201527f647920696e697469616c697a6564000000000000000000000000000000000000606082015260800190565b6020808252825482820181905260008481528281209092916040850190845b818110156152e5578354600160a060020a0316835260019384019392850192016152c0565b50909695505050505050565b6000602080838503121561530457600080fd5b825167ffffffffffffffff81111561531b57600080fd5b8301601f8101851361532c57600080fd5b805161533a614cf182614cac565b8181529083028201830190838101908783111561535657600080fd5b928401925b8284101561476057835161536e81614aa6565b8252928401929084019061535b565b6020808252818101527f4f776e61626c653a2063616c6c6572206973206e6f7420746865206f776e6572604082015260600190565b60208082526004908201527f21676f7600000000000000000000000000000000000000000000000000000000604082015260600190565b60208082526010908201527f217a6f72726f436f6e74726f6c6c657200000000000000000000000000000000604082015260600190565b6020808252601f908201527f5265656e7472616e637947756172643a207265656e7472616e742063616c6c00604082015260600190565b60208082526010908201527f5061757361626c653a2070617573656400000000000000000000000000000000604082015260600190565b6000602082840312156154a057600080fd5b5051919050565b600081518084526020808501945080840160005b838110156154e0578151600160a060020a0316875295820195908201906001016154bb565b509495945050505050565b8381526060602082015261550b606082018451600160a060020a03169052565b600060208401516155276080840182600160a060020a03169052565b506040840151600160a060020a03811660a0840152506060840151600160a060020a03811660c0840152506080840151600160a060020a03811660e08401525060a084015161010061558381850183600160a060020a03169052565b60c086015191506101206155a181860184600160a060020a03169052565b60e087015192506101406155bf81870185600160a060020a03169052565b828801519350610160925082838701526155dd6101c08701856154a7565b9350818801519250605f19868503016101808701526155fc84846154a7565b9350808801519250505061561c6101a0850182600160a060020a03169052565b50604092909201929092529392505050565b8381526060602082015261564e606082018451600160a060020a03169052565b6000602084015161566a6080840182600160a060020a03169052565b506040840151600160a060020a03811660a0840152506060840151600160a060020a03811660c0840152506080840151600160a060020a03811660e08401525060a08401516101006156c681850183600160a060020a03169052565b60c086015191506101206156e481860184600160a060020a03169052565b60e0870151925061016061014081818801526157046101c08801866154a7565b93890151878503605f19018389015293945061572085856154a7565b945082890151935061573e610180880185600160a060020a03169052565b880151600160a060020a0381166101a0880152925061561c915050565b60e060020a634e487b7102600052603260045260246000fd5b60006020828403121561578657600080fd5b81516147f881615175565b60e060020a634e487b7102600052601160045260246000fd5b60008160001904831182151516156157c4576157c4615791565b500290565b6000826157e95760e060020a634e487b7102600052601260045260246000fd5b500490565b6000821982111561580157615801615791565b500190565b60008282101561581857615818615791565b500390565b6020808252602b908201527f496e697469616c697a61626c653a20636f6e7472616374206973206e6f74206960408201527f6e697469616c697a696e67000000000000000000000000000000000000000000606082015260800190565b805169ffffffffffffffffffff8116811461367b57600080fd5b600080600080600060a086880312156158ac57600080fd5b6158b58661587a565b94506020860151935060408601519250606086015191506158d86080870161587a565b90509295509295909350565b600181815b8085111561592157816000190482111561590557615905615791565b8085161561591257918102915b600290940493908002906158e9565b509250929050565b60008261593857506001611b5a565b8161594557506000611b5a565b816001811461595b576002811461596557615982565b6001915050611b5a565b60ff84111561597657615976615791565b8360020a915050611b5a565b5060208310610133831016604e8410600b84101617156159a5575081810a611b5a565b6159af83836158e4565b80600019048211156159c3576159c3615791565b029392505050565b6000611b5760ff841683615929565b85815284602082015260a0604082015260006159f960a08301866154a7565b600160a060020a0394909416606083015250608001529392505050565b828152604060208201526000600160a060020a03808451166040840152806020850151166060840152806040850151166080840152606084015160e060a0850152615a656101208501826154a7565b608086015190921660c08501525060a084015190615a8e60e0850183600160a060020a03169052565b60c085015161010085015280925050509392505050565b600060208284031215615ab757600080fd5b81516147f881614b5e565b600080600060608486031215615ad757600080fd5b8351925060208401519150604084015190509250925092565b6000610100878352600160a060020a0380881660208501528660408501528551606085015260208601516080850152604086015160a0850152606086015160c08501528160e08501528085511682850152806020860151166101208501526040850151915060a0610140850152615b6b6101a08501836154a7565b915080606086015116610160850152506080840151610180840152809150509695505050505050565b8281526040602082015260006147f560408301846154a7565b60006020808385031215615bc057600080fd5b825167ffffffffffffffff811115615bd757600080fd5b8301601f81018513615be857600080fd5b8051615bf6614cf182614cac565b81815290830282018301908381019087831115615c1257600080fd5b928401925b8284101561476057835182529284019290840190615c17565b600081518084526020808501945080840160005b838110156154e057815160ff1687529582019590820190600101615c44565b6000600160a060020a038086168352606060208401528451606084015260208501516080840152604085015160a08401528060608601511660c08401528060808601511660e08401525060a0840151610100818185015260c086015191508061012085015250615cd76101608401826154a7565b905060e0850151615cf4610140850182600160a060020a03169052565b5082810360408401526147dc8185615c30565b60005b83811015615d22578181015183820152602001615d0a565b8381111561210c5750506000910152565b60008251615d45818460208701615d07565b9190910192915050565b6020815260008251806020840152615d6e816040850160208701615d07565b601f01601f1916919091016040019291505056fea26469706673582212203da3735c936598488f0af8a178bc0e5ad7d11ade367b25ca5b4c75cd909c3ba264736f6c634300080a0033",
  "immutableReferences": {},
  "source": "// SPDX-License-Identifier: MIT\n\npragma solidity ^0.8.0;\n\nimport \"./_VaultBaseLiqStakeLP.sol\";\n\nimport \"./libraries/VaultLiqStakeLPLibrary.sol\";\n\nimport \"./libraries/VaultBenqiLiqStakeLPLibrary.sol\";\n\n/// @title Vault contract for Benqi liquid staking + LP strategy\ncontract VaultBenqiLiqStakeLP is VaultBaseLiqStakeLP {\n    /* Libraries */\n    using SafeERC20Upgradeable for IERC20Upgradeable; \n    using PriceFeed for AggregatorV3Interface;\n    using SafeMathUpgradeable for uint256;\n    using SafeSwapUni for IAMMRouter02;\n\n    /* Investment Actions */\n\n    /// @notice Deposits liquid stake on Benqi protocol\n    /// @param _amount The amount of AVAX to liquid stake\n    function _liquidStake(uint256 _amount) internal override whenNotPaused {\n        VaultBenqiLiqStakeLPLibrary.liquidStake(_amount, token0Address, liquidStakeToken);\n    }\n\n    /// @notice Withdraws liquid stake on Benqi protocol\n    /// @param _amount The amount of AVAX to unstake\n    function _liquidUnstake(uint256 _amount) internal override whenNotPaused {\n        VaultBenqiLiqStakeLPLibrary.liquidUnstake(\n            uniRouterAddress,\n            SafeSwapParams({\n                amountIn: _amount,\n                priceToken0: liquidStakeTokenPriceFeed.getExchangeRate(),\n                priceToken1: token0PriceFeed.getExchangeRate(),\n                token0: liquidStakeToken,\n                token1: token0Address,\n                maxMarketMovementAllowed: maxMarketMovementAllowed,\n                path: liquidStakeToToken0Path,\n                destination: address(this)\n            })\n        );\n    }\n\n    /* Functions */\n    /// @notice Supplies sAVAX token to AMM\n    /// @param _amount Quantity of sAVAX (synth token) to swap and add as a liquidty\n    /// @param _maxMarketMovementAllowed The max slippage allowed. 1000 = 0 %, 995 = 0.5%, etc.\n    function _addLiquidity(uint256 _amount, uint256 _maxMarketMovementAllowed) internal {\n        VaultLiqStakeLPLibrary.addLiquidity(\n            _amount, \n            VaultLiqStakeLPLibrary.AddLiquidityParams({\n                uniRouterAddress: uniRouterAddress,\n                token0Address: token0Address,\n                liquidStakeToken: liquidStakeToken,\n                liquidStakeToToken0Path: liquidStakeToToken0Path,\n                token0PriceFeed: token0PriceFeed,\n                liquidStakeTokenPriceFeed: liquidStakeTokenPriceFeed,\n                maxMarketMovementAllowed: _maxMarketMovementAllowed\n            })\n        );\n    }\n\n    /// @notice Performs necessary operations to convert USD into Want token\n    /// @param _amountUSD The USD quantity to exchange (must already be deposited)\n    /// @param _maxMarketMovementAllowed The max slippage allowed. 1000 = 0 %, 995 = 0.5%, etc.\n    /// @return uint256 Amount of Want token obtained\n    function exchangeUSDForWantToken(\n        uint256 _amountUSD,\n        uint256 _maxMarketMovementAllowed\n    ) public override onlyZorroController whenNotPaused returns (uint256) {\n        return VaultBenqiLiqStakeLPLibrary.exchangeUSDForWantToken(\n            _amountUSD, \n            VaultBenqiLiqStakeLPLibrary.ExchangeUSDForWantParams({\n                token0Address: token0Address,\n                stablecoin: defaultStablecoin,\n                liquidStakeToken: liquidStakeToken,\n                token0PriceFeed: token0PriceFeed,\n                liquidStakeTokenPriceFeed: liquidStakeTokenPriceFeed,\n                stablecoinPriceFeed: stablecoinPriceFeed,\n                uniRouterAddress: uniRouterAddress,\n                stablecoinToToken0Path: stablecoinToToken0Path,\n                liquidStakeToToken0Path: liquidStakeToToken0Path,\n                poolAddress: poolAddress,\n                wantAddress: wantAddress\n            }), \n            _maxMarketMovementAllowed\n        );\n    }\n\n    /// @notice Converts Want token back into USD to be ready for withdrawal and transfers to sender\n    /// @param _amount The Want token quantity to exchange (must be deposited beforehand)\n    /// @param _maxMarketMovementAllowed The max slippage allowed for swaps. 1000 = 0 %, 995 = 0.5%, etc.\n    /// @return returnedUSD Amount of USD token obtained\n    function exchangeWantTokenForUSD(\n        uint256 _amount,\n        uint256 _maxMarketMovementAllowed\n    )\n        public\n        virtual\n        override\n        onlyZorroController\n        whenNotPaused\n        returns (uint256 returnedUSD)\n    {\n        return VaultBenqiLiqStakeLPLibrary.exchangeWantTokenForUSD(\n            _amount, \n            VaultBenqiLiqStakeLPLibrary.ExchangeWantTokenForUSDParams({\n                token0Address: token0Address,\n                stablecoin: defaultStablecoin,\n                wantAddress: wantAddress,\n                poolAddress: poolAddress,\n                liquidStakeToken: liquidStakeToken,\n                token0PriceFeed: token0PriceFeed,\n                liquidStakeTokenPriceFeed: liquidStakeTokenPriceFeed,\n                stablecoinPriceFeed: stablecoinPriceFeed,\n                liquidStakeToToken0Path: liquidStakeToToken0Path, \n                token0ToStablecoinPath: token0ToStablecoinPath, \n                uniRouterAddress: uniRouterAddress\n            }), \n            _maxMarketMovementAllowed\n        );\n    }\n\n    /// @notice The main compounding (earn) function. Reinvests profits since the last earn event.\n    /// @param _maxMarketMovementAllowed The max slippage allowed. 1000 = 0 %, 995 = 0.5%, etc.\n    function earn(uint256 _maxMarketMovementAllowed)\n        public\n        virtual\n        override\n        nonReentrant\n        whenNotPaused\n    {\n        // If onlyGov is set to true, only allow to proceed if the current caller is the govAddress\n        if (onlyGov) {\n            require(msg.sender == govAddress, \"!gov\");\n        }\n\n        // Harvest farm tokens\n        _unfarm(0);\n\n        // Get the balance of the Earned token on this contract\n        uint256 _earnedAmt = IERC20Upgradeable(earnedAddress).balanceOf(address(this));\n\n        // Require pending rewards in order to continue\n        require(_earnedAmt > 0, \"0earn\");\n\n        // Create rates struct\n        VaultLibrary.ExchangeRates memory _rates;\n        uint256[] memory _priceTokens0 = new uint256[](2);\n        uint256[] memory _priceTokens1 = new uint256[](2);\n        {\n            _rates = VaultLibrary.ExchangeRates({\n                earn: earnTokenPriceFeed.getExchangeRate(),\n                ZOR: ZORPriceFeed.getExchangeRate(),\n                lpPoolOtherToken: lpPoolOtherTokenPriceFeed.getExchangeRate(),\n                stablecoin: stablecoinPriceFeed.getExchangeRate()\n            });\n            _priceTokens0[0] = _rates.earn;\n            _priceTokens0[1] = token0PriceFeed.getExchangeRate();\n            _priceTokens1[0] = _rates.earn;\n            _priceTokens1[1] = token1PriceFeed.getExchangeRate();\n        }\n\n        // Calc remainder\n        uint256 _remainingAmt;\n\n        {\n            // Distribute fees\n            uint256 _controllerFee = _distributeFees(_earnedAmt);\n\n            // Buyback & rev share\n            (uint256 _buybackAmt, uint256 _revShareAmt) = _buyBackAndRevShare(\n                _earnedAmt,\n                _maxMarketMovementAllowed,\n                _rates\n            );\n\n            _remainingAmt = _earnedAmt.sub(_controllerFee).sub(_buybackAmt).sub(\n                    _revShareAmt\n                );\n        }\n\n        // Allow the router contract to spen up to earnedAmt\n        IERC20Upgradeable(earnedAddress).safeIncreaseAllowance(\n            uniRouterAddress,\n            _earnedAmt\n        );\n\n        // Swap Earned token to token0 if token0 is not the Earned token\n        if (earnedAddress != token0Address) {\n            // Get decimal info\n            uint8[] memory _decimals0 = new uint8[](2);\n            _decimals0[0] = ERC20Upgradeable(earnedAddress).decimals();\n            _decimals0[1] = ERC20Upgradeable(token0Address).decimals();\n\n            // Swap half earned to token0\n            IAMMRouter02(uniRouterAddress).safeSwap(\n                _remainingAmt.div(2),\n                _priceTokens0,\n                _maxMarketMovementAllowed,\n                earnedToToken0Path,\n                _decimals0,\n                address(this),\n                block.timestamp.add(600)\n            );\n        }\n\n        // Get values of tokens 0 and 1\n        uint256 _token0Amt = IERC20Upgradeable(token0Address).balanceOf(\n            address(this)\n        );\n    \n        // Provided that token0 is > 0, re-deposit\n        if (_token0Amt > 0) {            \n            // Stake\n            _liquidStake(_token0Amt);\n\n            // Add liquidity\n            uint256 _synthTokenAmt = IERC20Upgradeable(liquidStakeToken).balanceOf(address(this));\n            _addLiquidity(_synthTokenAmt, _maxMarketMovementAllowed);\n        }\n\n        // Update last earned block\n        lastEarnBlock = block.number;\n\n        // Farm Want token\n        _farm();\n    }\n}\n\ncontract VaultBenqiAVAXLiqStakeLP is VaultBenqiLiqStakeLP {}",
  "sourcePath": "/Users/kristophm/Documents/workspace/zorro-protocol/contracts/vaults/VaultBenqiLiqStakeLP.sol",
  "compiler": {
    "name": "solc",
    "version": "0.8.10+commit.fc410830.Emscripten.clang"
  },
  "schemaVersion": "3.4.10",
  "updatedAt": "2022-11-16T16:38:22.590Z",
  "devdoc": {
    "kind": "dev",
    "methods": {
      "depositWantToken(uint256)": {
        "params": {
          "_wantAmt": "amount of underlying token to deposit/stake"
        },
        "returns": {
          "sharesAdded": "uint256 Number of shares added"
        }
      },
      "earn(uint256)": {
        "params": {
          "_maxMarketMovementAllowed": "The max slippage allowed. 1000 = 0 %, 995 = 0.5%, etc."
        }
      },
      "exchangeUSDForWantToken(uint256,uint256)": {
        "params": {
          "_amountUSD": "The USD quantity to exchange (must already be deposited)",
          "_maxMarketMovementAllowed": "The max slippage allowed. 1000 = 0 %, 995 = 0.5%, etc."
        },
        "returns": {
          "_0": "uint256 Amount of Want token obtained"
        }
      },
      "exchangeWantTokenForUSD(uint256,uint256)": {
        "params": {
          "_amount": "The Want token quantity to exchange (must be deposited beforehand)",
          "_maxMarketMovementAllowed": "The max slippage allowed for swaps. 1000 = 0 %, 995 = 0.5%, etc."
        },
        "returns": {
          "returnedUSD": "Amount of USD token obtained"
        }
      },
      "inCaseTokensGetStuck(address,uint256,address)": {
        "params": {
          "_amount": "The amount of the tokens to transfer",
          "_to": "The address to transfer tokens to",
          "_token": "Address of the ERC20 token to transfer"
        }
      },
      "initialize(address,(uint256,bool,bool,(address,address,address,address,address,address,address,address,address,address,address,address,address,address,address,address),address,address,address[],address[],address[],address[],address[],address[],address[],address[],(uint256,uint256,uint256,uint256,uint256),(address,address,address,address,address,address),uint256))": {
        "params": {
          "_initValue": "A VaultAlpacaInit struct containing all init values",
          "_timelockOwner": "The designated timelock controller address to act as owner"
        }
      },
      "owner()": {
        "details": "Returns the address of the current owner."
      },
      "paused()": {
        "details": "Returns true if the contract is paused, and false otherwise."
      },
      "renounceOwnership()": {
        "details": "Leaves the contract without owner. It will not be possible to call `onlyOwner` functions anymore. Can only be called by the current owner. NOTE: Renouncing ownership will leave the contract without an owner, thereby removing any functionality that is only available to the owner."
      },
      "setFeeSettings(uint256,uint256,uint256,uint256,uint256)": {
        "params": {
          "_buyBackRate": "Buy back rate fee numerator",
          "_controllerFee": "Controller fee numerator",
          "_entranceFeeFactor": "Entrance fee numerator (higher means smaller percentage)",
          "_revShareRate": "Rev share rate fee numerator",
          "_withdrawFeeFactor": "Withdrawal fee numerator (higher means smaller percentage)"
        }
      },
      "setGov(address)": {
        "params": {
          "_govAddress": "The new gov address"
        }
      },
      "setOnlyGov(bool)": {
        "params": {
          "_onlyGov": "whether onlyGov should be enforced"
        }
      },
      "transferOwnership(address)": {
        "details": "Transfers ownership of the contract to a new account (`newOwner`). Can only be called by the current owner."
      },
      "withdrawWantToken(uint256)": {
        "params": {
          "_wantAmt": "The amount of Want token to withdraw"
        },
        "returns": {
          "sharesRemoved": "The number of shares removed"
        }
      }
    },
    "version": 1
  },
  "userdoc": {
    "kind": "user",
    "methods": {
      "depositWantToken(uint256)": {
        "notice": "Receives new deposits from user"
      },
      "earn(uint256)": {
        "notice": "The main compounding (earn) function. Reinvests profits since the last earn event."
      },
      "exchangeUSDForWantToken(uint256,uint256)": {
        "notice": "Performs necessary operations to convert USD into Want token"
      },
      "exchangeWantTokenForUSD(uint256,uint256)": {
        "notice": "Converts Want token back into USD to be ready for withdrawal and transfers to sender"
      },
      "farm()": {
        "notice": "Public function for farming Want token."
      },
      "inCaseTokensGetStuck(address,uint256,address)": {
        "notice": "Safely transfer ERC20 tokens stuck in this contract to a specified address"
      },
      "initialize(address,(uint256,bool,bool,(address,address,address,address,address,address,address,address,address,address,address,address,address,address,address,address),address,address,address[],address[],address[],address[],address[],address[],address[],address[],(uint256,uint256,uint256,uint256,uint256),(address,address,address,address,address,address),uint256))": {
        "notice": "Upgradeable constructor"
      },
      "pause()": {
        "notice": "Pause contract"
      },
      "setFeeSettings(uint256,uint256,uint256,uint256,uint256)": {
        "notice": "Configure key fee parameters"
      },
      "setGov(address)": {
        "notice": "Set governor address"
      },
      "setOnlyGov(bool)": {
        "notice": "Set onlyGov property"
      },
      "unpause()": {
        "notice": "Unpause contract"
      },
      "withdrawWantToken(uint256)": {
        "notice": "Fully withdraw Want tokens from the Farm contract (100% withdrawals only)"
      }
    },
    "version": 1
  }
}