{
  "contractName": "VaultApeLendingETH",
  "abi": [
    {
      "anonymous": false,
      "inputs": [
        {
          "indexed": true,
          "internalType": "uint256",
          "name": "_amount",
          "type": "uint256"
        }
      ],
      "name": "Buyback",
      "type": "event"
    },
    {
      "anonymous": false,
      "inputs": [
        {
          "indexed": true,
          "internalType": "address",
          "name": "previousOwner",
          "type": "address"
        },
        {
          "indexed": true,
          "internalType": "address",
          "name": "newOwner",
          "type": "address"
        }
      ],
      "name": "OwnershipTransferred",
      "type": "event"
    },
    {
      "anonymous": false,
      "inputs": [
        {
          "indexed": false,
          "internalType": "address",
          "name": "account",
          "type": "address"
        }
      ],
      "name": "Paused",
      "type": "event"
    },
    {
      "anonymous": false,
      "inputs": [
        {
          "indexed": true,
          "internalType": "uint256",
          "name": "_amount",
          "type": "uint256"
        }
      ],
      "name": "RevShare",
      "type": "event"
    },
    {
      "anonymous": false,
      "inputs": [
        {
          "indexed": false,
          "internalType": "address",
          "name": "_govAddress",
          "type": "address"
        }
      ],
      "name": "SetGov",
      "type": "event"
    },
    {
      "anonymous": false,
      "inputs": [
        {
          "indexed": false,
          "internalType": "bool",
          "name": "_onlyGov",
          "type": "bool"
        }
      ],
      "name": "SetOnlyGov",
      "type": "event"
    },
    {
      "anonymous": false,
      "inputs": [
        {
          "indexed": false,
          "internalType": "address",
          "name": "_rewardsAddress",
          "type": "address"
        }
      ],
      "name": "SetRewardsAddress",
      "type": "event"
    },
    {
      "anonymous": false,
      "inputs": [
        {
          "indexed": false,
          "internalType": "uint256",
          "name": "_entranceFeeFactor",
          "type": "uint256"
        },
        {
          "indexed": false,
          "internalType": "uint256",
          "name": "_withdrawFeeFactor",
          "type": "uint256"
        },
        {
          "indexed": false,
          "internalType": "uint256",
          "name": "_controllerFee",
          "type": "uint256"
        },
        {
          "indexed": false,
          "internalType": "uint256",
          "name": "_buyBackRate",
          "type": "uint256"
        },
        {
          "indexed": false,
          "internalType": "uint256",
          "name": "_revShareRate",
          "type": "uint256"
        }
      ],
      "name": "SetSettings",
      "type": "event"
    },
    {
      "anonymous": false,
      "inputs": [
        {
          "indexed": false,
          "internalType": "address",
          "name": "_uniRouterAddress",
          "type": "address"
        }
      ],
      "name": "SetUniRouterAddress",
      "type": "event"
    },
    {
      "anonymous": false,
      "inputs": [
        {
          "indexed": false,
          "internalType": "address",
          "name": "account",
          "type": "address"
        }
      ],
      "name": "Unpaused",
      "type": "event"
    },
    {
      "inputs": [],
      "name": "ZORPriceFeed",
      "outputs": [
        {
          "internalType": "contract AggregatorV3Interface",
          "name": "",
          "type": "address"
        }
      ],
      "stateMutability": "view",
      "type": "function"
    },
    {
      "inputs": [],
      "name": "ZORROAddress",
      "outputs": [
        {
          "internalType": "address",
          "name": "",
          "type": "address"
        }
      ],
      "stateMutability": "view",
      "type": "function"
    },
    {
      "inputs": [],
      "name": "burnAddress",
      "outputs": [
        {
          "internalType": "address",
          "name": "",
          "type": "address"
        }
      ],
      "stateMutability": "view",
      "type": "function"
    },
    {
      "inputs": [],
      "name": "buyBackRate",
      "outputs": [
        {
          "internalType": "uint256",
          "name": "",
          "type": "uint256"
        }
      ],
      "stateMutability": "view",
      "type": "function"
    },
    {
      "inputs": [],
      "name": "buyBackRateMax",
      "outputs": [
        {
          "internalType": "uint256",
          "name": "",
          "type": "uint256"
        }
      ],
      "stateMutability": "view",
      "type": "function"
    },
    {
      "inputs": [],
      "name": "buyBackRateUL",
      "outputs": [
        {
          "internalType": "uint256",
          "name": "",
          "type": "uint256"
        }
      ],
      "stateMutability": "view",
      "type": "function"
    },
    {
      "inputs": [],
      "name": "collateralFactor",
      "outputs": [
        {
          "internalType": "uint256",
          "name": "collFactor",
          "type": "uint256"
        }
      ],
      "stateMutability": "view",
      "type": "function"
    },
    {
      "inputs": [],
      "name": "comptrollerAddress",
      "outputs": [
        {
          "internalType": "address",
          "name": "",
          "type": "address"
        }
      ],
      "stateMutability": "view",
      "type": "function"
    },
    {
      "inputs": [],
      "name": "controllerFee",
      "outputs": [
        {
          "internalType": "uint256",
          "name": "",
          "type": "uint256"
        }
      ],
      "stateMutability": "view",
      "type": "function"
    },
    {
      "inputs": [],
      "name": "controllerFeeMax",
      "outputs": [
        {
          "internalType": "uint256",
          "name": "",
          "type": "uint256"
        }
      ],
      "stateMutability": "view",
      "type": "function"
    },
    {
      "inputs": [],
      "name": "controllerFeeUL",
      "outputs": [
        {
          "internalType": "uint256",
          "name": "",
          "type": "uint256"
        }
      ],
      "stateMutability": "view",
      "type": "function"
    },
    {
      "inputs": [],
      "name": "defaultStablecoin",
      "outputs": [
        {
          "internalType": "address",
          "name": "",
          "type": "address"
        }
      ],
      "stateMutability": "view",
      "type": "function"
    },
    {
      "inputs": [
        {
          "internalType": "uint256",
          "name": "_wantAmt",
          "type": "uint256"
        }
      ],
      "name": "depositWantToken",
      "outputs": [
        {
          "internalType": "uint256",
          "name": "sharesAdded",
          "type": "uint256"
        }
      ],
      "stateMutability": "nonpayable",
      "type": "function"
    },
    {
      "inputs": [
        {
          "internalType": "uint256",
          "name": "_maxMarketMovementAllowed",
          "type": "uint256"
        }
      ],
      "name": "earn",
      "outputs": [],
      "stateMutability": "nonpayable",
      "type": "function"
    },
    {
      "inputs": [],
      "name": "earnTokenPriceFeed",
      "outputs": [
        {
          "internalType": "contract AggregatorV3Interface",
          "name": "",
          "type": "address"
        }
      ],
      "stateMutability": "view",
      "type": "function"
    },
    {
      "inputs": [],
      "name": "earnedAddress",
      "outputs": [
        {
          "internalType": "address",
          "name": "",
          "type": "address"
        }
      ],
      "stateMutability": "view",
      "type": "function"
    },
    {
      "inputs": [
        {
          "internalType": "uint256",
          "name": "",
          "type": "uint256"
        }
      ],
      "name": "earnedToStablecoinPath",
      "outputs": [
        {
          "internalType": "address",
          "name": "",
          "type": "address"
        }
      ],
      "stateMutability": "view",
      "type": "function"
    },
    {
      "inputs": [
        {
          "internalType": "uint256",
          "name": "",
          "type": "uint256"
        }
      ],
      "name": "earnedToToken0Path",
      "outputs": [
        {
          "internalType": "address",
          "name": "",
          "type": "address"
        }
      ],
      "stateMutability": "view",
      "type": "function"
    },
    {
      "inputs": [
        {
          "internalType": "uint256",
          "name": "",
          "type": "uint256"
        }
      ],
      "name": "earnedToToken1Path",
      "outputs": [
        {
          "internalType": "address",
          "name": "",
          "type": "address"
        }
      ],
      "stateMutability": "view",
      "type": "function"
    },
    {
      "inputs": [
        {
          "internalType": "uint256",
          "name": "",
          "type": "uint256"
        }
      ],
      "name": "earnedToZORLPPoolOtherTokenPath",
      "outputs": [
        {
          "internalType": "address",
          "name": "",
          "type": "address"
        }
      ],
      "stateMutability": "view",
      "type": "function"
    },
    {
      "inputs": [
        {
          "internalType": "uint256",
          "name": "",
          "type": "uint256"
        }
      ],
      "name": "earnedToZORROPath",
      "outputs": [
        {
          "internalType": "address",
          "name": "",
          "type": "address"
        }
      ],
      "stateMutability": "view",
      "type": "function"
    },
    {
      "inputs": [],
      "name": "entranceFeeFactor",
      "outputs": [
        {
          "internalType": "uint256",
          "name": "",
          "type": "uint256"
        }
      ],
      "stateMutability": "view",
      "type": "function"
    },
    {
      "inputs": [],
      "name": "entranceFeeFactorLL",
      "outputs": [
        {
          "internalType": "uint256",
          "name": "",
          "type": "uint256"
        }
      ],
      "stateMutability": "view",
      "type": "function"
    },
    {
      "inputs": [],
      "name": "entranceFeeFactorMax",
      "outputs": [
        {
          "internalType": "uint256",
          "name": "",
          "type": "uint256"
        }
      ],
      "stateMutability": "view",
      "type": "function"
    },
    {
      "inputs": [
        {
          "internalType": "uint256",
          "name": "_amountUSD",
          "type": "uint256"
        },
        {
          "internalType": "uint256",
          "name": "_maxMarketMovementAllowed",
          "type": "uint256"
        }
      ],
      "name": "exchangeUSDForWantToken",
      "outputs": [
        {
          "internalType": "uint256",
          "name": "",
          "type": "uint256"
        }
      ],
      "stateMutability": "nonpayable",
      "type": "function"
    },
    {
      "inputs": [
        {
          "internalType": "uint256",
          "name": "_amount",
          "type": "uint256"
        },
        {
          "internalType": "uint256",
          "name": "_maxMarketMovementAllowed",
          "type": "uint256"
        }
      ],
      "name": "exchangeWantTokenForUSD",
      "outputs": [
        {
          "internalType": "uint256",
          "name": "",
          "type": "uint256"
        }
      ],
      "stateMutability": "nonpayable",
      "type": "function"
    },
    {
      "inputs": [],
      "name": "farm",
      "outputs": [],
      "stateMutability": "nonpayable",
      "type": "function"
    },
    {
      "inputs": [],
      "name": "farmContractAddress",
      "outputs": [
        {
          "internalType": "address",
          "name": "",
          "type": "address"
        }
      ],
      "stateMutability": "view",
      "type": "function"
    },
    {
      "inputs": [],
      "name": "govAddress",
      "outputs": [
        {
          "internalType": "address",
          "name": "",
          "type": "address"
        }
      ],
      "stateMutability": "view",
      "type": "function"
    },
    {
      "inputs": [
        {
          "internalType": "address",
          "name": "_token",
          "type": "address"
        },
        {
          "internalType": "uint256",
          "name": "_amount",
          "type": "uint256"
        },
        {
          "internalType": "address",
          "name": "_to",
          "type": "address"
        }
      ],
      "name": "inCaseTokensGetStuck",
      "outputs": [],
      "stateMutability": "nonpayable",
      "type": "function"
    },
    {
      "inputs": [
        {
          "internalType": "address",
          "name": "_timelockOwner",
          "type": "address"
        },
        {
          "components": [
            {
              "internalType": "uint256",
              "name": "pid",
              "type": "uint256"
            },
            {
              "internalType": "bool",
              "name": "isHomeChain",
              "type": "bool"
            },
            {
              "components": [
                {
                  "internalType": "address",
                  "name": "govAddress",
                  "type": "address"
                },
                {
                  "internalType": "address",
                  "name": "zorroControllerAddress",
                  "type": "address"
                },
                {
                  "internalType": "address",
                  "name": "zorroXChainController",
                  "type": "address"
                },
                {
                  "internalType": "address",
                  "name": "ZORROAddress",
                  "type": "address"
                },
                {
                  "internalType": "address",
                  "name": "zorroStakingVault",
                  "type": "address"
                },
                {
                  "internalType": "address",
                  "name": "wantAddress",
                  "type": "address"
                },
                {
                  "internalType": "address",
                  "name": "token0Address",
                  "type": "address"
                },
                {
                  "internalType": "address",
                  "name": "token1Address",
                  "type": "address"
                },
                {
                  "internalType": "address",
                  "name": "earnedAddress",
                  "type": "address"
                },
                {
                  "internalType": "address",
                  "name": "farmContractAddress",
                  "type": "address"
                },
                {
                  "internalType": "address",
                  "name": "rewardsAddress",
                  "type": "address"
                },
                {
                  "internalType": "address",
                  "name": "poolAddress",
                  "type": "address"
                },
                {
                  "internalType": "address",
                  "name": "uniRouterAddress",
                  "type": "address"
                },
                {
                  "internalType": "address",
                  "name": "zorroLPPool",
                  "type": "address"
                },
                {
                  "internalType": "address",
                  "name": "zorroLPPoolOtherToken",
                  "type": "address"
                },
                {
                  "internalType": "address",
                  "name": "defaultStablecoin",
                  "type": "address"
                }
              ],
              "internalType": "struct VaultLibrary.VaultAddresses",
              "name": "keyAddresses",
              "type": "tuple"
            },
            {
              "internalType": "uint256",
              "name": "targetBorrowLimit",
              "type": "uint256"
            },
            {
              "internalType": "uint256",
              "name": "targetBorrowLimitHysteresis",
              "type": "uint256"
            },
            {
              "internalType": "address[]",
              "name": "earnedToZORROPath",
              "type": "address[]"
            },
            {
              "internalType": "address[]",
              "name": "earnedToToken0Path",
              "type": "address[]"
            },
            {
              "internalType": "address[]",
              "name": "stablecoinToToken0Path",
              "type": "address[]"
            },
            {
              "internalType": "address[]",
              "name": "earnedToZORLPPoolOtherTokenPath",
              "type": "address[]"
            },
            {
              "internalType": "address[]",
              "name": "earnedToStablecoinPath",
              "type": "address[]"
            },
            {
              "internalType": "address[]",
              "name": "stablecoinToZORROPath",
              "type": "address[]"
            },
            {
              "internalType": "address[]",
              "name": "stablecoinToLPPoolOtherTokenPath",
              "type": "address[]"
            },
            {
              "components": [
                {
                  "internalType": "uint256",
                  "name": "controllerFee",
                  "type": "uint256"
                },
                {
                  "internalType": "uint256",
                  "name": "buyBackRate",
                  "type": "uint256"
                },
                {
                  "internalType": "uint256",
                  "name": "revShareRate",
                  "type": "uint256"
                },
                {
                  "internalType": "uint256",
                  "name": "entranceFeeFactor",
                  "type": "uint256"
                },
                {
                  "internalType": "uint256",
                  "name": "withdrawFeeFactor",
                  "type": "uint256"
                }
              ],
              "internalType": "struct VaultLibrary.VaultFees",
              "name": "fees",
              "type": "tuple"
            },
            {
              "components": [
                {
                  "internalType": "address",
                  "name": "token0PriceFeed",
                  "type": "address"
                },
                {
                  "internalType": "address",
                  "name": "token1PriceFeed",
                  "type": "address"
                },
                {
                  "internalType": "address",
                  "name": "earnTokenPriceFeed",
                  "type": "address"
                },
                {
                  "internalType": "address",
                  "name": "ZORPriceFeed",
                  "type": "address"
                },
                {
                  "internalType": "address",
                  "name": "lpPoolOtherTokenPriceFeed",
                  "type": "address"
                },
                {
                  "internalType": "address",
                  "name": "stablecoinPriceFeed",
                  "type": "address"
                }
              ],
              "internalType": "struct VaultLibrary.VaultPriceFeeds",
              "name": "priceFeeds",
              "type": "tuple"
            },
            {
              "internalType": "address",
              "name": "comptrollerAddress",
              "type": "address"
            }
          ],
          "internalType": "struct VaultApeLending.VaultApeLendingInit",
          "name": "_initValue",
          "type": "tuple"
        }
      ],
      "name": "initialize",
      "outputs": [],
      "stateMutability": "nonpayable",
      "type": "function"
    },
    {
      "inputs": [
        {
          "internalType": "address",
          "name": "_timelockOwner",
          "type": "address"
        }
      ],
      "name": "initialize",
      "outputs": [],
      "stateMutability": "nonpayable",
      "type": "function"
    },
    {
      "inputs": [],
      "name": "isFarmable",
      "outputs": [
        {
          "internalType": "bool",
          "name": "",
          "type": "bool"
        }
      ],
      "stateMutability": "view",
      "type": "function"
    },
    {
      "inputs": [],
      "name": "isHomeChain",
      "outputs": [
        {
          "internalType": "bool",
          "name": "",
          "type": "bool"
        }
      ],
      "stateMutability": "view",
      "type": "function"
    },
    {
      "inputs": [],
      "name": "lastEarnBlock",
      "outputs": [
        {
          "internalType": "uint256",
          "name": "",
          "type": "uint256"
        }
      ],
      "stateMutability": "view",
      "type": "function"
    },
    {
      "inputs": [],
      "name": "lpPoolOtherTokenPriceFeed",
      "outputs": [
        {
          "internalType": "contract AggregatorV3Interface",
          "name": "",
          "type": "address"
        }
      ],
      "stateMutability": "view",
      "type": "function"
    },
    {
      "inputs": [],
      "name": "maxMarketMovementAllowed",
      "outputs": [
        {
          "internalType": "uint256",
          "name": "",
          "type": "uint256"
        }
      ],
      "stateMutability": "view",
      "type": "function"
    },
    {
      "inputs": [],
      "name": "onlyGov",
      "outputs": [
        {
          "internalType": "bool",
          "name": "",
          "type": "bool"
        }
      ],
      "stateMutability": "view",
      "type": "function"
    },
    {
      "inputs": [],
      "name": "owner",
      "outputs": [
        {
          "internalType": "address",
          "name": "",
          "type": "address"
        }
      ],
      "stateMutability": "view",
      "type": "function"
    },
    {
      "inputs": [],
      "name": "pause",
      "outputs": [],
      "stateMutability": "nonpayable",
      "type": "function"
    },
    {
      "inputs": [],
      "name": "paused",
      "outputs": [
        {
          "internalType": "bool",
          "name": "",
          "type": "bool"
        }
      ],
      "stateMutability": "view",
      "type": "function"
    },
    {
      "inputs": [],
      "name": "pid",
      "outputs": [
        {
          "internalType": "uint256",
          "name": "",
          "type": "uint256"
        }
      ],
      "stateMutability": "view",
      "type": "function"
    },
    {
      "inputs": [],
      "name": "poolAddress",
      "outputs": [
        {
          "internalType": "address",
          "name": "",
          "type": "address"
        }
      ],
      "stateMutability": "view",
      "type": "function"
    },
    {
      "inputs": [],
      "name": "renounceOwnership",
      "outputs": [],
      "stateMutability": "nonpayable",
      "type": "function"
    },
    {
      "inputs": [],
      "name": "revShareRate",
      "outputs": [
        {
          "internalType": "uint256",
          "name": "",
          "type": "uint256"
        }
      ],
      "stateMutability": "view",
      "type": "function"
    },
    {
      "inputs": [],
      "name": "revShareRateMax",
      "outputs": [
        {
          "internalType": "uint256",
          "name": "",
          "type": "uint256"
        }
      ],
      "stateMutability": "view",
      "type": "function"
    },
    {
      "inputs": [],
      "name": "revShareRateUL",
      "outputs": [
        {
          "internalType": "uint256",
          "name": "",
          "type": "uint256"
        }
      ],
      "stateMutability": "view",
      "type": "function"
    },
    {
      "inputs": [],
      "name": "rewardsAddress",
      "outputs": [
        {
          "internalType": "address",
          "name": "",
          "type": "address"
        }
      ],
      "stateMutability": "view",
      "type": "function"
    },
    {
      "inputs": [
        {
          "internalType": "address",
          "name": "_burnAddress",
          "type": "address"
        }
      ],
      "name": "setBurnAddress",
      "outputs": [],
      "stateMutability": "nonpayable",
      "type": "function"
    },
    {
      "inputs": [
        {
          "internalType": "address",
          "name": "_comptroller",
          "type": "address"
        }
      ],
      "name": "setComptrollerAddress",
      "outputs": [],
      "stateMutability": "nonpayable",
      "type": "function"
    },
    {
      "inputs": [
        {
          "internalType": "address",
          "name": "_defaultStablecoin",
          "type": "address"
        }
      ],
      "name": "setDefaultStablecoin",
      "outputs": [],
      "stateMutability": "nonpayable",
      "type": "function"
    },
    {
      "inputs": [
        {
          "internalType": "address",
          "name": "_earnedAddress",
          "type": "address"
        }
      ],
      "name": "setEarnedAddress",
      "outputs": [],
      "stateMutability": "nonpayable",
      "type": "function"
    },
    {
      "inputs": [
        {
          "internalType": "address",
          "name": "_farmContractAddress",
          "type": "address"
        }
      ],
      "name": "setFarmContractAddress",
      "outputs": [],
      "stateMutability": "nonpayable",
      "type": "function"
    },
    {
      "inputs": [
        {
          "internalType": "uint256",
          "name": "_entranceFeeFactor",
          "type": "uint256"
        },
        {
          "internalType": "uint256",
          "name": "_withdrawFeeFactor",
          "type": "uint256"
        },
        {
          "internalType": "uint256",
          "name": "_controllerFee",
          "type": "uint256"
        },
        {
          "internalType": "uint256",
          "name": "_buyBackRate",
          "type": "uint256"
        },
        {
          "internalType": "uint256",
          "name": "_revShareRate",
          "type": "uint256"
        }
      ],
      "name": "setFeeSettings",
      "outputs": [],
      "stateMutability": "nonpayable",
      "type": "function"
    },
    {
      "inputs": [
        {
          "internalType": "address",
          "name": "_govAddress",
          "type": "address"
        }
      ],
      "name": "setGov",
      "outputs": [],
      "stateMutability": "nonpayable",
      "type": "function"
    },
    {
      "inputs": [
        {
          "internalType": "bool",
          "name": "_isFarmable",
          "type": "bool"
        }
      ],
      "name": "setIsFarmable",
      "outputs": [],
      "stateMutability": "nonpayable",
      "type": "function"
    },
    {
      "inputs": [
        {
          "internalType": "uint256",
          "name": "_slippageNumerator",
          "type": "uint256"
        }
      ],
      "name": "setMaxMarketMovementAllowed",
      "outputs": [],
      "stateMutability": "nonpayable",
      "type": "function"
    },
    {
      "inputs": [
        {
          "internalType": "bool",
          "name": "_onlyGov",
          "type": "bool"
        }
      ],
      "name": "setOnlyGov",
      "outputs": [],
      "stateMutability": "nonpayable",
      "type": "function"
    },
    {
      "inputs": [
        {
          "internalType": "uint256",
          "name": "_pid",
          "type": "uint256"
        }
      ],
      "name": "setPid",
      "outputs": [],
      "stateMutability": "nonpayable",
      "type": "function"
    },
    {
      "inputs": [
        {
          "internalType": "address",
          "name": "_poolAddress",
          "type": "address"
        }
      ],
      "name": "setPoolAddress",
      "outputs": [],
      "stateMutability": "nonpayable",
      "type": "function"
    },
    {
      "inputs": [
        {
          "internalType": "uint8",
          "name": "_idx",
          "type": "uint8"
        },
        {
          "internalType": "address",
          "name": "_priceFeed",
          "type": "address"
        }
      ],
      "name": "setPriceFeed",
      "outputs": [],
      "stateMutability": "nonpayable",
      "type": "function"
    },
    {
      "inputs": [
        {
          "internalType": "address",
          "name": "_rewardsAddress",
          "type": "address"
        }
      ],
      "name": "setRewardsAddress",
      "outputs": [],
      "stateMutability": "nonpayable",
      "type": "function"
    },
    {
      "inputs": [
        {
          "internalType": "uint8",
          "name": "_idx",
          "type": "uint8"
        },
        {
          "internalType": "address[]",
          "name": "_path",
          "type": "address[]"
        }
      ],
      "name": "setStablecoinSwapPaths",
      "outputs": [],
      "stateMutability": "nonpayable",
      "type": "function"
    },
    {
      "inputs": [
        {
          "internalType": "uint8",
          "name": "_idx",
          "type": "uint8"
        },
        {
          "internalType": "address[]",
          "name": "_path",
          "type": "address[]"
        }
      ],
      "name": "setSwapPaths",
      "outputs": [],
      "stateMutability": "nonpayable",
      "type": "function"
    },
    {
      "inputs": [
        {
          "internalType": "uint256",
          "name": "_tbl",
          "type": "uint256"
        }
      ],
      "name": "setTargetBorrowLimit",
      "outputs": [],
      "stateMutability": "nonpayable",
      "type": "function"
    },
    {
      "inputs": [
        {
          "internalType": "uint256",
          "name": "_tblh",
          "type": "uint256"
        }
      ],
      "name": "setTargetBorrowLimitHysteresis",
      "outputs": [],
      "stateMutability": "nonpayable",
      "type": "function"
    },
    {
      "inputs": [
        {
          "internalType": "address",
          "name": "_token0Address",
          "type": "address"
        }
      ],
      "name": "setToken0Address",
      "outputs": [],
      "stateMutability": "nonpayable",
      "type": "function"
    },
    {
      "inputs": [
        {
          "internalType": "address",
          "name": "_token1Address",
          "type": "address"
        }
      ],
      "name": "setToken1Address",
      "outputs": [],
      "stateMutability": "nonpayable",
      "type": "function"
    },
    {
      "inputs": [
        {
          "internalType": "address",
          "name": "_uniRouterAddress",
          "type": "address"
        }
      ],
      "name": "setUniRouterAddress",
      "outputs": [],
      "stateMutability": "nonpayable",
      "type": "function"
    },
    {
      "inputs": [
        {
          "internalType": "address",
          "name": "_wantAddress",
          "type": "address"
        }
      ],
      "name": "setWantAddress",
      "outputs": [],
      "stateMutability": "nonpayable",
      "type": "function"
    },
    {
      "inputs": [
        {
          "internalType": "address",
          "name": "_ZORROAddress",
          "type": "address"
        }
      ],
      "name": "setZORROAddress",
      "outputs": [],
      "stateMutability": "nonpayable",
      "type": "function"
    },
    {
      "inputs": [
        {
          "internalType": "address",
          "name": "_zorroControllerAddress",
          "type": "address"
        }
      ],
      "name": "setZorroControllerAddress",
      "outputs": [],
      "stateMutability": "nonpayable",
      "type": "function"
    },
    {
      "inputs": [
        {
          "internalType": "address",
          "name": "_poolAddress",
          "type": "address"
        }
      ],
      "name": "setZorroLPPoolAddress",
      "outputs": [],
      "stateMutability": "nonpayable",
      "type": "function"
    },
    {
      "inputs": [
        {
          "internalType": "address",
          "name": "_otherToken",
          "type": "address"
        }
      ],
      "name": "setZorroLPPoolOtherToken",
      "outputs": [],
      "stateMutability": "nonpayable",
      "type": "function"
    },
    {
      "inputs": [
        {
          "internalType": "address",
          "name": "_stakingVault",
          "type": "address"
        }
      ],
      "name": "setZorroStakingVault",
      "outputs": [],
      "stateMutability": "nonpayable",
      "type": "function"
    },
    {
      "inputs": [
        {
          "internalType": "address",
          "name": "_zorroXChainController",
          "type": "address"
        }
      ],
      "name": "setZorroXChainControllerAddress",
      "outputs": [],
      "stateMutability": "nonpayable",
      "type": "function"
    },
    {
      "inputs": [],
      "name": "sharesTotal",
      "outputs": [
        {
          "internalType": "uint256",
          "name": "",
          "type": "uint256"
        }
      ],
      "stateMutability": "view",
      "type": "function"
    },
    {
      "inputs": [],
      "name": "stablecoinPriceFeed",
      "outputs": [
        {
          "internalType": "contract AggregatorV3Interface",
          "name": "",
          "type": "address"
        }
      ],
      "stateMutability": "view",
      "type": "function"
    },
    {
      "inputs": [
        {
          "internalType": "uint256",
          "name": "",
          "type": "uint256"
        }
      ],
      "name": "stablecoinToLPPoolOtherTokenPath",
      "outputs": [
        {
          "internalType": "address",
          "name": "",
          "type": "address"
        }
      ],
      "stateMutability": "view",
      "type": "function"
    },
    {
      "inputs": [
        {
          "internalType": "uint256",
          "name": "",
          "type": "uint256"
        }
      ],
      "name": "stablecoinToToken0Path",
      "outputs": [
        {
          "internalType": "address",
          "name": "",
          "type": "address"
        }
      ],
      "stateMutability": "view",
      "type": "function"
    },
    {
      "inputs": [
        {
          "internalType": "uint256",
          "name": "",
          "type": "uint256"
        }
      ],
      "name": "stablecoinToToken1Path",
      "outputs": [
        {
          "internalType": "address",
          "name": "",
          "type": "address"
        }
      ],
      "stateMutability": "view",
      "type": "function"
    },
    {
      "inputs": [
        {
          "internalType": "uint256",
          "name": "",
          "type": "uint256"
        }
      ],
      "name": "stablecoinToZORROPath",
      "outputs": [
        {
          "internalType": "address",
          "name": "",
          "type": "address"
        }
      ],
      "stateMutability": "view",
      "type": "function"
    },
    {
      "inputs": [],
      "name": "targetBorrowLimit",
      "outputs": [
        {
          "internalType": "uint256",
          "name": "",
          "type": "uint256"
        }
      ],
      "stateMutability": "view",
      "type": "function"
    },
    {
      "inputs": [],
      "name": "targetBorrowLimitHysteresis",
      "outputs": [
        {
          "internalType": "uint256",
          "name": "",
          "type": "uint256"
        }
      ],
      "stateMutability": "view",
      "type": "function"
    },
    {
      "inputs": [],
      "name": "token0Address",
      "outputs": [
        {
          "internalType": "address",
          "name": "",
          "type": "address"
        }
      ],
      "stateMutability": "view",
      "type": "function"
    },
    {
      "inputs": [],
      "name": "token0PriceFeed",
      "outputs": [
        {
          "internalType": "contract AggregatorV3Interface",
          "name": "",
          "type": "address"
        }
      ],
      "stateMutability": "view",
      "type": "function"
    },
    {
      "inputs": [
        {
          "internalType": "uint256",
          "name": "",
          "type": "uint256"
        }
      ],
      "name": "token0ToStablecoinPath",
      "outputs": [
        {
          "internalType": "address",
          "name": "",
          "type": "address"
        }
      ],
      "stateMutability": "view",
      "type": "function"
    },
    {
      "inputs": [],
      "name": "token1Address",
      "outputs": [
        {
          "internalType": "address",
          "name": "",
          "type": "address"
        }
      ],
      "stateMutability": "view",
      "type": "function"
    },
    {
      "inputs": [],
      "name": "token1PriceFeed",
      "outputs": [
        {
          "internalType": "contract AggregatorV3Interface",
          "name": "",
          "type": "address"
        }
      ],
      "stateMutability": "view",
      "type": "function"
    },
    {
      "inputs": [
        {
          "internalType": "uint256",
          "name": "",
          "type": "uint256"
        }
      ],
      "name": "token1ToStablecoinPath",
      "outputs": [
        {
          "internalType": "address",
          "name": "",
          "type": "address"
        }
      ],
      "stateMutability": "view",
      "type": "function"
    },
    {
      "inputs": [
        {
          "internalType": "address",
          "name": "newOwner",
          "type": "address"
        }
      ],
      "name": "transferOwnership",
      "outputs": [],
      "stateMutability": "nonpayable",
      "type": "function"
    },
    {
      "inputs": [],
      "name": "uniRouterAddress",
      "outputs": [
        {
          "internalType": "address",
          "name": "",
          "type": "address"
        }
      ],
      "stateMutability": "view",
      "type": "function"
    },
    {
      "inputs": [],
      "name": "unpause",
      "outputs": [],
      "stateMutability": "nonpayable",
      "type": "function"
    },
    {
      "inputs": [],
      "name": "wantAddress",
      "outputs": [
        {
          "internalType": "address",
          "name": "",
          "type": "address"
        }
      ],
      "stateMutability": "view",
      "type": "function"
    },
    {
      "inputs": [],
      "name": "wantLockedTotal",
      "outputs": [
        {
          "internalType": "uint256",
          "name": "",
          "type": "uint256"
        }
      ],
      "stateMutability": "view",
      "type": "function"
    },
    {
      "inputs": [],
      "name": "withdrawFeeFactor",
      "outputs": [
        {
          "internalType": "uint256",
          "name": "",
          "type": "uint256"
        }
      ],
      "stateMutability": "view",
      "type": "function"
    },
    {
      "inputs": [],
      "name": "withdrawFeeFactorLL",
      "outputs": [
        {
          "internalType": "uint256",
          "name": "",
          "type": "uint256"
        }
      ],
      "stateMutability": "view",
      "type": "function"
    },
    {
      "inputs": [],
      "name": "withdrawFeeFactorMax",
      "outputs": [
        {
          "internalType": "uint256",
          "name": "",
          "type": "uint256"
        }
      ],
      "stateMutability": "view",
      "type": "function"
    },
    {
      "inputs": [
        {
          "internalType": "uint256",
          "name": "_wantAmt",
          "type": "uint256"
        }
      ],
      "name": "withdrawWantToken",
      "outputs": [
        {
          "internalType": "uint256",
          "name": "sharesRemoved",
          "type": "uint256"
        }
      ],
      "stateMutability": "nonpayable",
      "type": "function"
    },
    {
      "inputs": [],
      "name": "zorroControllerAddress",
      "outputs": [
        {
          "internalType": "address",
          "name": "",
          "type": "address"
        }
      ],
      "stateMutability": "view",
      "type": "function"
    },
    {
      "inputs": [],
      "name": "zorroLPPool",
      "outputs": [
        {
          "internalType": "address",
          "name": "",
          "type": "address"
        }
      ],
      "stateMutability": "view",
      "type": "function"
    },
    {
      "inputs": [],
      "name": "zorroLPPoolOtherToken",
      "outputs": [
        {
          "internalType": "address",
          "name": "",
          "type": "address"
        }
      ],
      "stateMutability": "view",
      "type": "function"
    },
    {
      "inputs": [],
      "name": "zorroStakingVault",
      "outputs": [
        {
          "internalType": "address",
          "name": "",
          "type": "address"
        }
      ],
      "stateMutability": "view",
      "type": "function"
    },
    {
      "inputs": [],
      "name": "zorroXChainController",
      "outputs": [
        {
          "internalType": "address",
          "name": "",
          "type": "address"
        }
      ],
      "stateMutability": "view",
      "type": "function"
    }
  ],
  "bytecode": "0x608060405234801561001057600080fd5b50615fab80620000216000396000f3fe608060405234801561001057600080fd5b50600436106106085760003560e01c806381aa8d311161031b578063c0973eed116101a8578063e7198474116100f4578063f05c09b3116100ad578063f2fde38b11610087578063f2fde38b14610c54578063f5046a2914610c67578063fbf5683f14610c7a578063ff29b39514610c8d57600080fd5b8063f05c09b314610c2b578063f106845414610c38578063f25342bf14610c4157600080fd5b8063e719847414610bd2578063e7a0367914610be5578063e9e15b4f14610bf8578063ebfba7c414610c0b578063edf5e58514610c1e578063ee50dc341461072c57600080fd5b8063cbb2cd1a11610161578063de8419911161013b578063de84199114610b91578063df011c4114610ba4578063e502a88d14610bac578063e65a011714610bbf57600080fd5b8063cbb2cd1a14610b58578063cfad57a214610b6b578063d7cb416f14610b7e57600080fd5b8063c0973eed14610af9578063c302a4d014610989578063c4d66de814610b0c578063c524a05614610b1f578063c8479cd614610b32578063c8e3d18b14610b4557600080fd5b8063a049539111610267578063ae53e58a11610220578063b46d27d5116101fa578063b46d27d514610aad578063b61bb80a14610ac0578063b73cba2a14610ad3578063bf3a7d4014610ae657600080fd5b8063ae53e58a14610a87578063b1414dbb14610a9a578063b3545c011461062257600080fd5b8063a049539114610a15578063a0985ba114610a28578063a4d2b08314610a3b578063aabf190b14610a4e578063aada5bf614610a61578063ab196def14610a7457600080fd5b80638906758d116102d4578063939c5fb1116102ae578063939c5fb1146109c9578063959334f4146109dc57806396e9aff8146109ef5780639fc33a9f14610a0257600080fd5b80638906758d146109925780638da5cb5b146109a55780639339fd3c146109b657600080fd5b806381aa8d311461093f578063833eeab91461095257806383f01939146109655780638456cb591461097857806385f02dd614610980578063866b20181461098957600080fd5b80634b0e721611610499578063648794a4116103e55780636ca8bd651161039e578063715018a611610378578063715018a6146108fe5780637153ef86146109065780637bf604d8146109195780637ff36fbe1461092c57600080fd5b80636ca8bd65146108c55780636f96f6fa146108d857806370d5ae05146108eb57600080fd5b8063648794a41461087057806367057b6c1461072c57806367206d401461088357806368bde41f1461089657806368f54162146108a9578063693a090b146108b257600080fd5b8063583bda3b116104525780635fc77d431161042c5780635fc77d43146108245780636183e8041461083757806361b5bf9f1461084a5780636392ab121461085d57600080fd5b8063583bda3b146107f35780635c975abb146108065780635da79d631461081157600080fd5b80634b0e7216146107945780634bf71bb8146107a75780634c5b09da146107ba5780634d9f7bb21461072c57806355ebedec146107cd578063567e07c9146107e057600080fd5b80631e85b3ad11610558578063333f98fd1161051157806342da4eb3116104eb57806342da4eb31461076a57806343788cd21461072c57806344a3955e1461077357806346008a071461077c57600080fd5b8063333f98fd1461075157806336e9332d1461075a5780633f4ba83a1461076257600080fd5b80631e85b3ad14610706578063211019d7146106225780632209b59e146107195780632717eff31461072c578063320d47cc146107355780633214471f1461074857600080fd5b80630daef321116105c55780631755ff211161059f5780631755ff21146106c4578063178a8d07146106d75780631b0d8aab146106e05780631e2bc672146106f357600080fd5b80630daef3211461068e5780630fa4e01e146106b25780631334903f146106bb57600080fd5b806305828d3e1461060d578063061c7d48146106225780630761a1721461063e5780630b6bb30b146106475780630bb953e51461065a5780630bbd6cd614610663575b600080fd5b61062061061b366004614f5d565b610ca0565b005b61062b6103e881565b6040519081526020015b60405180910390f35b61062b60f35481565b610620610655366004614f93565b610cf5565b61062b60f75481565b610676610671366004614fb0565b610d7c565b6040516001600160a01b039091168152602001610635565b60cb546106a290600160a81b900460ff1681565b6040519015158152602001610635565b61062b60e15481565b61062b60df5481565b60d854610676906001600160a01b031681565b61062b60dd5481565b6106206106ee366004614fb0565b610da6565b610676610701366004614fb0565b610dd5565b610676610714366004614fb0565b610de5565b61062b610727366004614fb0565b610df5565b61062b61271081565b610620610743366004614fb0565b610f5b565b61062b60de5481565b61062b60f65481565b610620610f8a565b610620610fc1565b61062b60e25481565b61062b60e35481565b60cb546106769061010090046001600160a01b031681565b6106206107a2366004614f5d565b610ffa565b6106766107b5366004614fb0565b611046565b6106206107c8366004614f5d565b611056565b61062b6107db366004614fb0565b6110a2565b6106206107ee366004614f5d565b61130d565b610620610801366004614f5d565b611359565b60975460ff166106a2565b61062061081f366004614f5d565b6113a5565b60cd54610676906001600160a01b031681565b610620610845366004614f5d565b6113f1565b610620610858366004614f5d565b61143d565b61067661086b366004614fb0565b611489565b61062b61087e366004614fc9565b611499565b610620610891366004614feb565b611633565b60f854610676906001600160a01b031681565b61062b60e05481565b60d954610676906001600160a01b031681565b6106206108d3366004614f5d565b611707565b60ef54610676906001600160a01b031681565b60d654610676906001600160a01b031681565b610620611753565b61062061091436600461502d565b611787565b60da54610676906001600160a01b031681565b60d154610676906001600160a01b031681565b61067661094d366004614fb0565b611a54565b610676610960366004614fb0565b611a64565b610620610973366004614f93565b611a74565b610620611ab1565b61062b60dc5481565b61062b61232881565b6106206109a0366004614f5d565b611ae8565b6033546001600160a01b0316610676565b6106206109c4366004615077565b611b34565b6106206109d7366004614fb0565b611bf0565b6106206109ea366004614f5d565b611c1f565b6106766109fd366004614fb0565b611c6b565b60d454610676906001600160a01b031681565b610676610a23366004614fb0565b611c7b565b610620610a36366004614f5d565b611c8b565b60cf54610676906001600160a01b031681565b60f054610676906001600160a01b031681565b60f254610676906001600160a01b031681565b60f154610676906001600160a01b031681565b60ee54610676906001600160a01b031681565b60cc54610676906001600160a01b031681565b610620610abb366004615480565b611cd7565b60d554610676906001600160a01b031681565b610620610ae1366004614f5d565b6120f5565b610620610af4366004614f5d565b612141565b60d754610676906001600160a01b031681565b610620610b1a366004614f5d565b61218d565b610620610b2d366004614f5d565b612225565b610620610b40366004614f5d565b612271565b610676610b53366004614fb0565b6122bd565b610620610b66366004614fb0565b6122cd565b610620610b79366004614f5d565b6122fc565b60d254610676906001600160a01b031681565b610620610b9f366004615664565b612381565b61062b6124f4565b61062b610bba366004614fc9565b612574565b610620610bcd366004614fb0565b6126cf565b60d354610676906001600160a01b031681565b60d054610676906001600160a01b031681565b610620610c06366004614f5d565b612ce4565b60db54610676906001600160a01b031681565b60c9546106a29060ff1681565b60cb546106a29060ff1681565b61062b60ca5481565b60ed54610676906001600160a01b031681565b610620610c62366004614f5d565b612d30565b60ce54610676906001600160a01b031681565b610676610c88366004614fb0565b612dcb565b610620610c9b366004615077565b612ddb565b6033546001600160a01b03163314610cd35760405162461bcd60e51b8152600401610cca9061569d565b60405180910390fd5b60d280546001600160a01b0319166001600160a01b0392909216919091179055565b60cb5461010090046001600160a01b03163314610d245760405162461bcd60e51b8152600401610cca906156d2565b60cb8054821515600160a81b0260ff60a81b199091161790556040517f125177ac7b8930dac1e59c2b30b1b6b9191b30af40cf6bbb5d20fec4d44be60f90610d7190831515815260200190565b60405180910390a150565b60e68181548110610d8c57600080fd5b6000918252602090912001546001600160a01b0316905081565b6033546001600160a01b03163314610dd05760405162461bcd60e51b8152600401610cca9061569d565b60ca55565b60f58181548110610d8c57600080fd5b60e58181548110610d8c57600080fd5b60cc546000906001600160a01b0316336001600160a01b031614610e2b5760405162461bcd60e51b8152600401610cca906156f0565b60026065541415610e4e5760405162461bcd60e51b8152600401610cca9061571a565b600260655560975460ff1615610e765760405162461bcd60e51b8152600401610cca90615751565b60008211610ec65760405162461bcd60e51b815260206004820152601e60248201527f57616e7420746f6b656e206465706f736974206d757374206265203e203000006044820152606401610cca565b60d054610ede906001600160a01b0316333085612ed9565b50806000610eea612f44565b118015610ef95750600060e354115b15610f3957610f36612710610f30610f0f612f44565b610f3060df54610f2a60e354896130b590919063ffffffff16565b906130b5565b906130c1565b90505b60e354610f4690826130cd565b60e355610f516130d9565b6001606555919050565b6033546001600160a01b03163314610f855760405162461bcd60e51b8152600401610cca9061569d565b60f355565b60026065541415610fad5760405162461bcd60e51b8152600401610cca9061571a565b6002606555610fba6130d9565b6001606555565b60cb5461010090046001600160a01b03163314610ff05760405162461bcd60e51b8152600401610cca906156d2565b610ff86130eb565b565b6033546001600160a01b031633146110245760405162461bcd60e51b8152600401610cca9061569d565b60d680546001600160a01b0319166001600160a01b0392909216919091179055565b60ec8181548110610d8c57600080fd5b6033546001600160a01b031633146110805760405162461bcd60e51b8152600401610cca9061569d565b60d480546001600160a01b0319166001600160a01b0392909216919091179055565b60cc546000906001600160a01b0316336001600160a01b0316146110d85760405162461bcd60e51b8152600401610cca906156f0565b600260655414156110fb5760405162461bcd60e51b8152600401610cca9061571a565b600260655560975460ff16156111235760405162461bcd60e51b8152600401610cca90615751565b6000821161115d5760405162461bcd60e51b81526020600482015260076024820152661b9959d5d85b9d60ca1b6044820152606401610cca565b611176611168612f44565b60e354610f309085906130b5565b905060e354811115611187575060e3545b60e354611194908261317e565b60e35560d0546040516370a0823160e01b81523060048201526000916001600160a01b0316906370a0823190602401602060405180830381865afa1580156111e0573d6000803e3d6000fd5b505050506040513d601f19601f82011682018060405250810190611204919061577b565b90508083111561122f5761122061121b848361317e565b61318a565b925061122c83826130cd565b92505b60d0546040516370a0823160e01b81523060048201526001600160a01b03909116906370a0823190602401602060405180830381865afa158015611277573d6000803e3d6000fd5b505050506040513d601f19601f8201168201806040525081019061129b919061577b565b9050808311156112a9578092505b61271060e05410156112d3576112d0612710610f3060e054866130b590919063ffffffff16565b92505b60cc5460d0546112f0916001600160a01b039182169116856132d5565b6112f8613305565b6113026000613424565b506001606555919050565b6033546001600160a01b031633146113375760405162461bcd60e51b8152600401610cca9061569d565b60cd80546001600160a01b0319166001600160a01b0392909216919091179055565b6033546001600160a01b031633146113835760405162461bcd60e51b8152600401610cca9061569d565b60ce80546001600160a01b0319166001600160a01b0392909216919091179055565b6033546001600160a01b031633146113cf5760405162461bcd60e51b8152600401610cca9061569d565b60d980546001600160a01b0319166001600160a01b0392909216919091179055565b6033546001600160a01b0316331461141b5760405162461bcd60e51b8152600401610cca9061569d565b60d080546001600160a01b0319166001600160a01b0392909216919091179055565b6033546001600160a01b031633146114675760405162461bcd60e51b8152600401610cca9061569d565b60da80546001600160a01b0319166001600160a01b0392909216919091179055565b60ea8181548110610d8c57600080fd5b60cc546000906001600160a01b0316336001600160a01b0316146114cf5760405162461bcd60e51b8152600401610cca906156f0565b60975460ff16156114f25760405162461bcd60e51b8152600401610cca90615751565b6040805160e08101825260d1546001600160a01b03908116825260d554811660208084019190915260d85482168385015260ed548216606084015260f254909116608083015260e6805484518184028101840190955280855273__VaultLibraryApeLending________________94636ac41179948994909360a085019390918301828280156115ab57602002820191906000526020600020905b81546001600160a01b0316815260019091019060200180831161158d575b505050918352505060d9546001600160a01b03166020909101526040516001600160e01b031960e085901b1681526115e992919087906004016157d8565b602060405180830381865af4158015611606573d6000803e3d6000fd5b505050506040513d601f19601f8201168201806040525081019061162a919061577b565b90505b92915050565b60cb5461010090046001600160a01b031633146116625760405162461bcd60e51b8152600401610cca906156d2565b60d3546001600160a01b03848116911614156116a85760405162461bcd60e51b8152602060048201526005602482015264217361666560d81b6044820152606401610cca565b60d0546001600160a01b03848116911614156116ee5760405162461bcd60e51b8152602060048201526005602482015264217361666560d81b6044820152606401610cca565b6117026001600160a01b03841682846132d5565b505050565b6033546001600160a01b031633146117315760405162461bcd60e51b8152600401610cca9061569d565b60cf80546001600160a01b0319166001600160a01b0392909216919091179055565b6033546001600160a01b0316331461177d5760405162461bcd60e51b8152600401610cca9061569d565b610ff860006139c8565b60cb5461010090046001600160a01b031633146117b65760405162461bcd60e51b8152600401610cca906156d2565b6123288510156118085760405162461bcd60e51b815260206004820152601a60248201527f5f656e7472616e6365466565466163746f7220746f6f206c6f770000000000006044820152606401610cca565b61271085111561185a5760405162461bcd60e51b815260206004820152601b60248201527f5f656e7472616e6365466565466163746f7220746f6f206869676800000000006044820152606401610cca565b60df8590556123288410156118b15760405162461bcd60e51b815260206004820152601a60248201527f5f7769746864726177466565466163746f7220746f6f206c6f770000000000006044820152606401610cca565b6127108411156119035760405162461bcd60e51b815260206004820152601b60248201527f5f7769746864726177466565466163746f7220746f6f206869676800000000006044820152606401610cca565b60e08490556103e883111561195a5760405162461bcd60e51b815260206004820152601760248201527f5f636f6e74726f6c6c657246656520746f6f20686967680000000000000000006044820152606401610cca565b60dc8390556103e88211156119a95760405162461bcd60e51b81526020600482015260156024820152740bec4eaf284c2c6d6a4c2e8ca40e8dede40d0d2ced605b1b6044820152606401610cca565b60dd8290556103e88111156119f95760405162461bcd60e51b81526020600482015260166024820152750bee4caeca6d0c2e4caa4c2e8ca40e8dede40d0d2ced60531b6044820152606401610cca565b60de819055604080518681526020810186905290810184905260608101839052608081018290527fc67e0b149a57a70fa44a531a46c2c6d8e0b242fa12f459f250012c3a5987d29a9060a00160405180910390a15050505050565b60f48181548110610d8c57600080fd5b60e48181548110610d8c57600080fd5b6033546001600160a01b03163314611a9e5760405162461bcd60e51b8152600401610cca9061569d565b60cb805460ff1916911515919091179055565b60cb5461010090046001600160a01b03163314611ae05760405162461bcd60e51b8152600401610cca906156d2565b610ff8613a1a565b6033546001600160a01b03163314611b125760405162461bcd60e51b8152600401610cca9061569d565b60d780546001600160a01b0319166001600160a01b0392909216919091179055565b6033546001600160a01b03163314611b5e5760405162461bcd60e51b8152600401610cca9061569d565b60ff8316611b7857611b7260e48383614e70565b50505050565b8260ff1660011415611b9057611b7260f48383614e70565b8260ff1660021415611ba857611b7260f58383614e70565b60405162461bcd60e51b815260206004820152601960248201527f756e737570706f727465642069647820737761702070617468000000000000006044820152606401610cca565b6033546001600160a01b03163314611c1a5760405162461bcd60e51b8152600401610cca9061569d565b60f755565b6033546001600160a01b03163314611c495760405162461bcd60e51b8152600401610cca9061569d565b60db80546001600160a01b0319166001600160a01b0392909216919091179055565b60e98181548110610d8c57600080fd5b60e78181548110610d8c57600080fd5b6033546001600160a01b03163314611cb55760405162461bcd60e51b8152600401610cca9061569d565b60f880546001600160a01b0319166001600160a01b0392909216919091179055565b600054610100900460ff16611cf25760005460ff1615611cf6565b303b155b611d125760405162461bcd60e51b8152600401610cca90615887565b600054610100900460ff16158015611d34576000805461ffff19166101011790555b815160ca5560208083015160c9805460ff191691151591909117905560608084015160f65560808085015160f755604080860151805160cb8054600160a81b610100600160b01b03199091166101006001600160a01b03948516810260ff60a81b191691909117919091179091558287015160cc80546001600160a01b03199081169285169290921790558385015160cd805483169185169190911790558387015160ce805483169185169190911790558386015160cf8054831691851691909117905560a08085015160d08054841691861691909117905560c085015160d1805484169186169190911790559184015160d38054831691851691909117905561012084015160d48054831691851691909117905561014084015160d78054831691851691909117905561016084015160d8805483169185169190911790556101808085015160d9805484169186169190911790556101a085015160da805484169186169190911790556101c08086015160db805485169187169190911790556101e09095015160d580548416918616919091179055938a015160f8805490921693169290921790915590870151805160dc558086015160dd559182015160de559281015160df55015160e0558301518051611f149260ea920190614ed3565b5060c08201518051611f2e9160e891602090910190614ed3565b5060e08201518051611f489160e491602090910190614ed3565b506101008201518051611f639160eb91602090910190614ed3565b506101208201518051611f7e9160ec91602090910190614ed3565b5060e08201518051611f989160e491602090910190614ed3565b506101408201518051611fb39160f491602090910190614ed3565b506101608201518051611fce9160f591602090910190614ed3565b506040516345a62d7760e11b815273__VaultLibrary__________________________90638b4c5aee906120079060e4906004016158d5565b600060405180830381865af4158015612024573d6000803e3d6000fd5b505050506040513d6000823e601f3d908101601f1916820160405261204c9190810190615925565b80516120609160e691602090910190614ed3565b506101a0820151805160ed80546001600160a01b03199081166001600160a01b0393841617909155604083015160ef80548316918416919091179055608083015160f080548316918416919091179055606083015160f18054831691841691909117905560a09092015160f2805490931691161790556120df8361218d565b8015611702576000805461ff0019169055505050565b6033546001600160a01b0316331461211f5760405162461bcd60e51b8152600401610cca9061569d565b60d380546001600160a01b0319166001600160a01b0392909216919091179055565b6033546001600160a01b0316331461216b5760405162461bcd60e51b8152600401610cca9061569d565b60cc80546001600160a01b0319166001600160a01b0392909216919091179055565b600054610100900460ff166121a85760005460ff16156121ac565b303b155b6121c85760405162461bcd60e51b8152600401610cca90615887565b600054610100900460ff161580156121ea576000805461ffff19166101011790555b6121f2613a72565b6121fb82612d30565b60d680546001600160a01b03191661dead1790558015612221576000805461ff00191690555b5050565b6033546001600160a01b0316331461224f5760405162461bcd60e51b8152600401610cca9061569d565b60d580546001600160a01b0319166001600160a01b0392909216919091179055565b6033546001600160a01b0316331461229b5760405162461bcd60e51b8152600401610cca9061569d565b60d180546001600160a01b0319166001600160a01b0392909216919091179055565b60e88181548110610d8c57600080fd5b6033546001600160a01b031633146122f75760405162461bcd60e51b8152600401610cca9061569d565b60f655565b60cb5461010090046001600160a01b0316331461232b5760405162461bcd60e51b8152600401610cca906156d2565b60cb8054610100600160a81b0319166101006001600160a01b038416908102919091179091556040519081527f91a8c1cc2d4a3bb60738481947a00cbb9899c822916694cf8bb1d68172fdcd5490602001610d71565b6033546001600160a01b031633146123ab5760405162461bcd60e51b8152600401610cca9061569d565b60ff82166123d45760ed80546001600160a01b0383166001600160a01b03199091161790555050565b8160ff16600114156124015760ee80546001600160a01b0383166001600160a01b03199091161790555050565b8160ff166002141561242e5760ef80546001600160a01b0383166001600160a01b03199091161790555050565b8160ff166003141561245b5760f180546001600160a01b0383166001600160a01b03199091161790555050565b8160ff16600414156124885760f080546001600160a01b0383166001600160a01b03199091161790555050565b8160ff16600514156124b55760f280546001600160a01b0383166001600160a01b03199091161790555050565b60405162461bcd60e51b81526020600482015260146024820152730eadce6eae0e0dee4e8cac840cccacac840d2c8f60631b6044820152606401610cca565b60f85460d854604051638e8f294b60e01b81526001600160a01b03918216600482015260009283921690638e8f294b9060240160c060405180830381865afa158015612544573d6000803e3d6000fd5b505050506040513d601f19601f8201168201806040525081019061256891906159b4565b50929695505050505050565b60cc546000906001600160a01b0316336001600160a01b0316146125aa5760405162461bcd60e51b8152600401610cca906156f0565b60975460ff16156125cd5760405162461bcd60e51b8152600401610cca90615751565b604080516101008101825260d1546001600160a01b03908116825260d554811660208084019190915260ce5482168385015260ed548216606084015260f2548216608084015260d95490911660a083015260e4805484518184028101840190955280855273__VaultLibraryApeLending________________946360966156948994909360c0850193909183018282801561269157602002820191906000526020600020905b81546001600160a01b03168152600190910190602001808311612673575b505050918352505060d8546001600160a01b03166020909101526040516001600160e01b031960e085901b1681526115e99291908790600401615a07565b600260655414156126f25760405162461bcd60e51b8152600401610cca9061571a565b600260655560975460ff161561271a5760405162461bcd60e51b8152600401610cca90615751565b60cb54600160a81b900460ff161561275b5760cb5461010090046001600160a01b0316331461275b5760405162461bcd60e51b8152600401610cca906156d2565b60d4546040516374d7814960e11b81523060048201526001600160a01b039091169063e9af029290602401600060405180830381600087803b1580156127a057600080fd5b505af11580156127b4573d6000803e3d6000fd5b505060d3546040516370a0823160e01b8152306004820152600093506001600160a01b0390911691506370a0823190602401602060405180830381865afa158015612803573d6000803e3d6000fd5b505050506040513d601f19601f82011682018060405250810190612827919061577b565b9050600081116128615760405162461bcd60e51b81526020600482015260056024820152641832b0b93760d91b6044820152606401610cca565b60ed54600090612879906001600160a01b0316613aa1565b604080516080810190915260ef5491925060009181906128a1906001600160a01b0316613aa1565b815260f1546020909101906128be906001600160a01b0316613aa1565b815260f0546020909101906128db906001600160a01b0316613aa1565b815260f2546020909101906128f8906001600160a01b0316613aa1565b90529050600061290784613be1565b9050600080612917868886613c31565b909250905060006129348261292e85818b8961317e565b9061317e565b6040805160028082526060820183529293506000929091602083019080368337505060d3546040805163313ce56760e01b815290519394506001600160a01b039091169263313ce567925060048083019260209291908290030181865afa1580156129a3573d6000803e3d6000fd5b505050506040513d601f19601f820116820180604052508101906129c79190615acb565b816000815181106129da576129da615ae8565b60ff90921660209283029190910182015260d5546040805163313ce56760e01b815290516001600160a01b039092169263313ce567926004808401938290030181865afa158015612a2f573d6000803e3d6000fd5b505050506040513d601f19601f82011682018060405250810190612a539190615acb565b81600181518110612a6657612a66615ae8565b60ff92909216602092830291909101820152604080516002808252606082018352600093919290918301908036833701905050905081600181518110612aae57612aae615ae8565b602002602001015181600081518110612ac957612ac9615ae8565b60ff90921660209283029190910182015260d1546040805163313ce56760e01b815290516001600160a01b039092169263313ce567926004808401938290030181865afa158015612b1e573d6000803e3d6000fd5b505050506040513d601f19601f82011682018060405250810190612b429190615acb565b81600181518110612b5557612b55615ae8565b60ff9092166020928302919091019091015260d35460d1546001600160a01b03908116911614612c2f57604080516101008101825284815288516020808301919091528183018b905260d3546001600160a01b03908116606084015260d15416608083015260a082018d905260e88054845181840281018401909552808552612c2f9460c085019390929190830182828015612c1a57602002820191906000526020600020905b81546001600160a01b03168152600190910190602001808311612bfc575b50505091835250503060209091015282613d49565b60d1546040516370a0823160e01b81523060048201526000916001600160a01b0316906370a0823190602401602060405180830381865afa158015612c78573d6000803e3d6000fd5b505050506040513d601f19601f82011682018060405250810190612c9c919061577b565b60d85460d154919250612cbc916001600160a01b03908116911683613dc3565b612cc4613305565b612cce6000613424565b50504360e1555050600160655550505050505050565b6033546001600160a01b03163314612d0e5760405162461bcd60e51b8152600401610cca9061569d565b60d880546001600160a01b0319166001600160a01b0392909216919091179055565b6033546001600160a01b03163314612d5a5760405162461bcd60e51b8152600401610cca9061569d565b6001600160a01b038116612dbf5760405162461bcd60e51b815260206004820152602660248201527f4f776e61626c653a206e6577206f776e657220697320746865207a65726f206160448201526564647265737360d01b6064820152608401610cca565b612dc8816139c8565b50565b60eb8181548110610d8c57600080fd5b6033546001600160a01b03163314612e055760405162461bcd60e51b8152600401610cca9061569d565b60ff8316612e1957611b7260e48383614e70565b8260ff1660011415612e3157611b7260e58383614e70565b8260ff1660021415612e4957611b7260e68383614e70565b8260ff1660031415612e6157611b7260e78383614e70565b8260ff1660041415612e7957611b7260e88383614e70565b8260ff1660051415612e9157611b7260e98383614e70565b8260ff1660061415612ea957611b7260ea8383614e70565b8260ff1660071415612ec157611b7260eb8383614e70565b8260ff16600814156124b557611b7260ec8383614e70565b6040516001600160a01b0380851660248301528316604482015260648101829052611b729085906323b872dd60e01b906084015b60408051601f198184030181529190526020810180516001600160e01b03166001600160e01b031990931692909217909152613e75565b60d0546040516370a0823160e01b815230600482015260009182916001600160a01b03909116906370a0823190602401602060405180830381865afa158015612f91573d6000803e3d6000fd5b505050506040513d601f19601f82011682018060405250810190612fb5919061577b565b60d854604051633af9e66960e01b81523060048201529192506000916001600160a01b0390911690633af9e669906024016020604051808303816000875af1158015613005573d6000803e3d6000fd5b505050506040513d601f19601f82011682018060405250810190613029919061577b565b60d8546040516305eff7ef60e21b81523060048201529192506000916001600160a01b03909116906317bfdfbc906024016020604051808303816000875af1158015613079573d6000803e3d6000fd5b505050506040513d601f19601f8201168201806040525081019061309d919061577b565b90506130ad8161292e85856130cd565b935050505090565b600061162a8284615b14565b600061162a8284615b33565b600061162a8284615b55565b6130e1613305565b610ff86000613424565b60975460ff166131345760405162461bcd60e51b815260206004820152601460248201527314185d5cd8589b194e881b9bdd081c185d5cd95960621b6044820152606401610cca565b6097805460ff191690557f5db9ee0a495bf2e6ff9c91a7834c1ba4fdd244a5e8aa4e537bd38aeae4b073aa335b6040516001600160a01b03909116815260200160405180910390a1565b600061162a8284615b6d565b600061319582613424565b60d854604051633af9e66960e01b81523060048201526000916001600160a01b031690633af9e669906024016020604051808303816000875af11580156131e0573d6000803e3d6000fd5b505050506040513d601f19601f82011682018060405250810190613204919061577b565b905080831115613212578092505b60d85460405163852a12e360e01b8152600481018590526001600160a01b039091169063852a12e3906024016020604051808303816000875af115801561325d573d6000803e3d6000fd5b505050506040513d601f19601f82011682018060405250810190613281919061577b565b156132ce5760405162461bcd60e51b815260206004820152601c60248201527f5f7769746864726177536f6d653a2072656465656d206661696c6564000000006044820152606401610cca565b5090919050565b6040516001600160a01b03831660248201526044810182905261170290849063a9059cbb60e01b90606401612f0d565b60975460ff16156133285760405162461bcd60e51b8152600401610cca90615751565b60d0546040516370a0823160e01b81523060048201526000916001600160a01b0316906370a0823190602401602060405180830381865afa158015613371573d6000803e3d6000fd5b505050506040513d601f19601f82011682018060405250810190613395919061577b565b60d85460d0549192506133b5916001600160a01b03908116911683613dc3565b60d85460405163140e25ad60e31b8152600481018390526001600160a01b039091169063a0712d68906024016020604051808303816000875af1158015613400573d6000803e3d6000fd5b505050506040513d601f19601f82011682018060405250810190612221919061577b565b60d854604051633af9e66960e01b81523060048201526000916001600160a01b031690633af9e669906024016020604051808303816000875af115801561346f573d6000803e3d6000fd5b505050506040513d601f19601f82011682018060405250810190613493919061577b565b90508061349e575050565b8082106134b3576134b081600161317e565b91505b60006134bf828461317e565b60d8546040516305eff7ef60e21b81523060048201529192506000916001600160a01b03909116906317bfdfbc906024016020604051808303816000875af115801561350f573d6000803e3d6000fd5b505050506040513d601f19601f82011682018060405250810190613533919061577b565b9050600061353f6124f4565b90506000613564670de0b6b3a7640000610f3060f654856130b590919063ffffffff16565b9050600061357e85610f3086670de0b6b3a76400006130b5565b9050600060d860009054906101000a90046001600160a01b03166001600160a01b0316633b1d21a26040518163ffffffff1660e01b8152600401602060405180830381865afa1580156135d5573d6000803e3d6000fd5b505050506040513d601f19601f820116820180604052508101906135f9919061577b565b90508282108015613614575060f754613612848461317e565b115b1561371657600061365f613630670de0b6b3a76400008661317e565b610f30670de0b6b3a7640000610f2a8a61292e670de0b6b3a7640000610f308f8d6130b590919063ffffffff16565b9050600061367d8761292e670de0b6b3a7640000610f308d8b6130b5565b90508082111561368b578091505b82821115613697578291505b60d85460405163317afabb60e21b8152600481018490526001600160a01b039091169063c5ebeaec906024016020604051808303816000875af11580156136e2573d6000803e3d6000fd5b505050506040513d601f19601f82011682018060405250810190613706919061577b565b5061370f613305565b50506139be565b828211801561372f575060f75461372d838561317e565b115b156139be57600061376d61374b670de0b6b3a76400008661317e565b610f30670de0b6b3a7640000610f2a61376682848b8f6130b5565b8b9061317e565b9050600061379161378a87610f308a670de0b6b3a76400006130b5565b8a9061317e565b90508082111561379f578091505b828211156137ab578291505b60d85460405163852a12e360e01b8152600481018490526001600160a01b039091169063852a12e3906024016020604051808303816000875af11580156137f6573d6000803e3d6000fd5b505050506040513d601f19601f8201168201806040525081019061381a919061577b565b156138545760405162461bcd60e51b815260206004820152600a6024820152691c9958985b0819985a5b60b21b6044820152606401610cca565b61385e898361317e565b9850888a106138755761387289600161317e565b99505b61387f898b61317e565b97508682111561388d578691505b60d85460d0546138aa916001600160a01b03918216911684613dc3565b60d85460405163073a938160e11b8152600481018490526001600160a01b0390911690630e752702906024016020604051808303816000875af11580156138f5573d6000803e3d6000fd5b505050506040513d601f19601f82011682018060405250810190613919919061577b565b50613924878361317e565b965061393c88610f3089670de0b6b3a76400006130b5565b935060d860009054906101000a90046001600160a01b03166001600160a01b0316633b1d21a26040518163ffffffff1660e01b8152600401602060405180830381865afa158015613991573d6000803e3d6000fd5b505050506040513d601f19601f820116820180604052508101906139b5919061577b565b92505050613716565b5050505050505050565b603380546001600160a01b038381166001600160a01b0319831681179093556040519116919082907f8be0079c531659141344cd1fd0a4f28419497f9722a3daafe3b4186f6b6457e090600090a35050565b60975460ff1615613a3d5760405162461bcd60e51b8152600401610cca90615751565b6097805460ff191660011790557f62e78cea01bee320cd4e420270b5ea74000d11b0c9f74754ebdbfc544b05a2586131613390565b600054610100900460ff16613a995760405162461bcd60e51b8152600401610cca90615b84565b610ff8613f47565b600080826001600160a01b031663313ce5676040518163ffffffff1660e01b8152600401602060405180830381865afa158015613ae2573d6000803e3d6000fd5b505050506040513d601f19601f82011682018060405250810190613b069190615acb565b90506000836001600160a01b031663feaf968c6040518163ffffffff1660e01b815260040160a060405180830381865afa158015613b48573d6000803e3d6000fd5b505050506040513d601f19601f82011682018060405250810190613b6c9190615be9565b5050509150506000811215613bbc5760405162461bcd60e51b81526020600482015260166024820152751b9959c81c1c9a58d95cc81b9bdd08185b1b1bddd95960521b6044820152606401610cca565b613bd9613bca83600a615d1d565b610f308364e8d4a510006130b5565b949350505050565b60008115613c2c5760dc5415613c2c57613c0c612710610f3060dc54856130b590919063ffffffff16565b60d75460d354919250613c2c916001600160a01b039081169116836132d5565b919050565b600080600060dd541115613c5d57613c5a612710610f3060dd54886130b590919063ffffffff16565b91505b60de5415613c8357613c80612710610f3060de54886130b590919063ffffffff16565b90505b60c95460ff1615613ca957613c99828585613f77565b613ca481858561478d565b613d41565b613cc9613cb683836130cd565b60cc546001600160a01b03168686614bde565b60cd5460ca5460405163464e3c8b60e01b815260048101919091526024810184905260448101839052606481018690526001600160a01b039091169063464e3c8b90608401600060405180830381600087803b158015613d2857600080fd5b505af1158015613d3c573d6000803e3d6000fd5b505050505b935093915050565b60d954604051630a18267d60e01b815273__VaultLibrary__________________________91630a18267d91613d8f916001600160a01b03169086908690600401615d5f565b60006040518083038186803b158015613da757600080fd5b505af4158015613dbb573d6000803e3d6000fd5b505050505050565b604051636eb1769f60e11b81523060048201526001600160a01b038381166024830152600091839186169063dd62ed3e90604401602060405180830381865afa158015613e14573d6000803e3d6000fd5b505050506040513d601f19601f82011682018060405250810190613e38919061577b565b613e429190615b55565b6040516001600160a01b038516602482015260448101829052909150611b7290859063095ea7b360e01b90606401612f0d565b6000613eca826040518060400160405280602081526020017f5361666545524332303a206c6f772d6c6576656c2063616c6c206661696c6564815250856001600160a01b0316614ced9092919063ffffffff16565b8051909150156117025780806020019051810190613ee89190615e0c565b6117025760405162461bcd60e51b815260206004820152602a60248201527f5361666545524332303a204552433230206f7065726174696f6e20646964206e6044820152691bdd081cdd58d8d9595960b21b6064820152608401610cca565b600054610100900460ff16613f6e5760405162461bcd60e51b8152600401610cca90615b84565b610ff8336139c8565b60f254600090613f8f906001600160a01b0316613aa1565b6040805160028082526060820183529293506000929091602083019080368337505060d3546040805163313ce56760e01b815290519394506001600160a01b039091169263313ce567925060048083019260209291908290030181865afa158015613ffe573d6000803e3d6000fd5b505050506040513d601f19601f820116820180604052508101906140229190615acb565b8160008151811061403557614035615ae8565b60ff90921660209283029190910182015260d5546040805163313ce56760e01b815290516001600160a01b039092169263313ce567926004808401938290030181865afa15801561408a573d6000803e3d6000fd5b505050506040513d601f19601f820116820180604052508101906140ae9190615acb565b816001815181106140c1576140c1615ae8565b60ff9290921660209283029190910182015260408051600280825260608201835260009391929091830190803683370190505090508160018151811061410957614109615ae8565b60200260200101518160008151811061412457614124615ae8565b60ff90921660209283029190910182015260ce546040805163313ce56760e01b815290516001600160a01b039092169263313ce567926004808401938290030181865afa158015614179573d6000803e3d6000fd5b505050506040513d601f19601f8201168201806040525081019061419d9190615acb565b816001815181106141b0576141b0615ae8565b60ff929092166020928302919091018201526040805160028082526060820183526000939192909183019080368337019050509050826001815181106141f8576141f8615ae8565b60200260200101518160008151811061421357614213615ae8565b60ff90921660209283029190910182015260db546040805163313ce56760e01b815290516001600160a01b039092169263313ce567926004808401938290030181865afa158015614268573d6000803e3d6000fd5b505050506040513d601f19601f8201168201806040525081019061428c9190615acb565b8160018151811061429f5761429f615ae8565b60ff909216602092830291909101820152604080516101008101825289815287518184015280820187905260d3546001600160a01b03908116606083015260d55416608082015260a0810189905260ec805483518186028101860190945280845261435d94929360c08501939092919083018282801561434857602002820191906000526020600020905b81546001600160a01b0316815260019091019060200180831161432a575b50505091835250503060209091015284613d49565b60d5546040516370a0823160e01b81523060048201526000916001600160a01b0316906370a0823190602401602060405180830381865afa1580156143a6573d6000803e3d6000fd5b505050506040513d601f19601f820116820180604052508101906143ca919061577b565b90506144936040518061010001604052806143ef6002856130c190919063ffffffff16565b815260208082018990528981015160408084019190915260d5546001600160a01b03908116606085015260ce5416608084015260a083018c905260f4805482518185028101850190935280835260c0909401939192909190830182828015614348576020028201919060005260206000209081546001600160a01b0316815260019091019060200180831161432a5750505091835250503060209091015284613d49565b60d55460db546001600160a01b03908116911614614571576145716040518061010001604052806144ce6002856130c190919063ffffffff16565b8152602080820189905260408a8101518184015260d5546001600160a01b03908116606085015260db5416608084015260a083018c905260f5805482518185028101850190935280835260c090940193919290919083018282801561455c57602002820191906000526020600020905b81546001600160a01b0316815260019091019060200180831161453e575b50505091835250503060209091015283613d49565b505060ce546040516370a0823160e01b8152306004820152600094506001600160a01b0390911692506370a082319150602401602060405180830381865afa1580156145c1573d6000803e3d6000fd5b505050506040513d601f19601f820116820180604052508101906145e5919061577b565b60db546040516370a0823160e01b81523060048201529192506000916001600160a01b03909116906370a0823190602401602060405180830381865afa158015614633573d6000803e3d6000fd5b505050506040513d601f19601f82011682018060405250810190614657919061577b565b60d95460ce54919250614677916001600160a01b03908116911684613dc3565b60d95460db54614694916001600160a01b03918216911683613dc3565b60d95460ce5460db546001600160a01b039283169263e8e33700928116911685856146c56103e8610f30848d6130b5565b6146d56103e8610f308a8e6130b5565b60d6546001600160a01b03166146ed426102586130cd565b60405160e08a901b6001600160e01b03191681526001600160a01b039889166004820152968816602488015260448701959095526064860193909352608485019190915260a484015290921660c482015260e4810191909152610104016060604051808303816000875af1158015614769573d6000803e3d6000fd5b505050506040513d601f19601f820116820180604052508101906139be9190615e29565b604080516002808252606082018352600092602083019080368337505060d3546040805163313ce56760e01b815290519394506001600160a01b039091169263313ce567925060048083019260209291908290030181865afa1580156147f7573d6000803e3d6000fd5b505050506040513d601f19601f8201168201806040525081019061481b9190615acb565b8160008151811061482e5761482e615ae8565b60ff90921660209283029190910182015260d5546040805163313ce56760e01b815290516001600160a01b039092169263313ce567926004808401938290030181865afa158015614883573d6000803e3d6000fd5b505050506040513d601f19601f820116820180604052508101906148a79190615acb565b816001815181106148ba576148ba615ae8565b60ff9290921660209283029190910182015260408051600280825260608201835260009391929091830190803683370190505090508160018151811061490257614902615ae8565b60200260200101518160008151811061491d5761491d615ae8565b60ff90921660209283029190910182015260ce546040805163313ce56760e01b815290516001600160a01b039092169263313ce567926004808401938290030181865afa158015614972573d6000803e3d6000fd5b505050506040513d601f19601f820116820180604052508101906149969190615acb565b816001815181106149a9576149a9615ae8565b60ff9092166020928302919091019091015260d95460d3546149d8916001600160a01b03918216911687613dc3565b604080516101008101825286815284516020808301919091526060808701518385015260d3546001600160a01b039081169184019190915260d55416608083015260a0820187905260ec8054845181840281018401909552808552614a8c9460c08501939092919083018282801561455c576020028201919060005260206000209081546001600160a01b0316815260019091019060200180831161453e5750505091835250503060209091015283613d49565b60d5546040516370a0823160e01b81523060048201526000916001600160a01b0316906370a0823190602401602060405180830381865afa158015614ad5573d6000803e3d6000fd5b505050506040513d601f19601f82011682018060405250810190614af9919061577b565b60d95460d554919250614b19916001600160a01b03908116911683613dc3565b6040805161010081018252828152606080870151602080840191909152878101518385015260d5546001600160a01b039081169284019290925260ce54909116608083015260a0820188905260f48054845181840281018401909552808552613dbb9460c085019390929190830182828015614bbe57602002820191906000526020600020905b81546001600160a01b03168152600190910190602001808311614ba0575b505050918352505060cf546001600160a01b031660209091015283613d49565b6040805160a08101825260d3546001600160a01b03908116825260d5541660208083019190915260ec8054845181840281018401865281815273__VaultLibrary__________________________956308386be2958b958b958b958b95939485019392830182828015614c7a57602002820191906000526020600020905b81546001600160a01b03168152600190910190602001808311614c5c575b505050918352505060d9546001600160a01b031660208201526060890151604091820152516001600160e01b031960e088901b168152614cc1959493929190600401615e57565b60006040518083038186803b158015614cd957600080fd5b505af41580156139be573d6000803e3d6000fd5b6060614cfc8484600085614d06565b90505b9392505050565b606082471015614d675760405162461bcd60e51b815260206004820152602660248201527f416464726573733a20696e73756666696369656e742062616c616e636520666f6044820152651c8818d85b1b60d21b6064820152608401610cca565b6001600160a01b0385163b614dbe5760405162461bcd60e51b815260206004820152601d60248201527f416464726573733a2063616c6c20746f206e6f6e2d636f6e74726163740000006044820152606401610cca565b600080866001600160a01b03168587604051614dda9190615f26565b60006040518083038185875af1925050503d8060008114614e17576040519150601f19603f3d011682016040523d82523d6000602084013e614e1c565b606091505b5091509150614e2c828286614e37565b979650505050505050565b60608315614e46575081614cff565b825115614e565782518084602001fd5b8160405162461bcd60e51b8152600401610cca9190615f42565b828054828255906000526020600020908101928215614ec3579160200282015b82811115614ec35781546001600160a01b0319166001600160a01b03843516178255602090920191600190910190614e90565b50614ecf929150614f28565b5090565b828054828255906000526020600020908101928215614ec3579160200282015b82811115614ec357825182546001600160a01b0319166001600160a01b03909116178255602090920191600190910190614ef3565b5b80821115614ecf5760008155600101614f29565b6001600160a01b0381168114612dc857600080fd5b8035613c2c81614f3d565b600060208284031215614f6f57600080fd5b8135614cff81614f3d565b8015158114612dc857600080fd5b8035613c2c81614f7a565b600060208284031215614fa557600080fd5b8135614cff81614f7a565b600060208284031215614fc257600080fd5b5035919050565b60008060408385031215614fdc57600080fd5b50508035926020909101359150565b60008060006060848603121561500057600080fd5b833561500b81614f3d565b925060208401359150604084013561502281614f3d565b809150509250925092565b600080600080600060a0868803121561504557600080fd5b505083359560208501359550604085013594606081013594506080013592509050565b60ff81168114612dc857600080fd5b60008060006040848603121561508c57600080fd5b833561509781615068565b9250602084013567ffffffffffffffff808211156150b457600080fd5b818601915086601f8301126150c857600080fd5b8135818111156150d757600080fd5b8760208260051b85010111156150ec57600080fd5b6020830194508093505050509250925092565b634e487b7160e01b600052604160045260246000fd5b604051610200810167ffffffffffffffff81118282101715615139576151396150ff565b60405290565b6040516101e0810167ffffffffffffffff81118282101715615139576151396150ff565b604051601f8201601f1916810167ffffffffffffffff8111828210171561518c5761518c6150ff565b604052919050565b600061020082840312156151a757600080fd5b6151af615115565b90506151ba82614f52565b81526151c860208301614f52565b60208201526151d960408301614f52565b60408201526151ea60608301614f52565b60608201526151fb60808301614f52565b608082015261520c60a08301614f52565b60a082015261521d60c08301614f52565b60c082015261522e60e08301614f52565b60e0820152610100615241818401614f52565b90820152610120615253838201614f52565b90820152610140615265838201614f52565b90820152610160615277838201614f52565b90820152610180615289838201614f52565b908201526101a061529b838201614f52565b908201526101c06152ad838201614f52565b908201526101e06152bf838201614f52565b9082015292915050565b600067ffffffffffffffff8211156152e3576152e36150ff565b5060051b60200190565b600082601f8301126152fe57600080fd5b8135602061531361530e836152c9565b615163565b82815260059290921b8401810191818101908684111561533257600080fd5b8286015b8481101561535657803561534981614f3d565b8352918301918301615336565b509695505050505050565b600060a0828403121561537357600080fd5b60405160a0810181811067ffffffffffffffff82111715615396576153966150ff565b806040525080915082358152602083013560208201526040830135604082015260608301356060820152608083013560808201525092915050565b600060c082840312156153e357600080fd5b60405160c0810181811067ffffffffffffffff82111715615406576154066150ff565b604052905080823561541781614f3d565b8152602083013561542781614f3d565b6020820152604083013561543a81614f3d565b6040820152606083013561544d81614f3d565b6060820152608083013561546081614f3d565b608082015260a083013561547381614f3d565b60a0919091015292915050565b6000806040838503121561549357600080fd5b823561549e81614f3d565b9150602083013567ffffffffffffffff808211156154bb57600080fd5b908401906104e082870312156154d057600080fd5b6154d861513f565b823581526154e860208401614f88565b60208201526154fa8760408501615194565b6040820152610240830135606082015261026083013560808201526102808301358281111561552857600080fd5b615534888286016152ed565b60a0830152506102a08301358281111561554d57600080fd5b615559888286016152ed565b60c0830152506102c08301358281111561557257600080fd5b61557e888286016152ed565b60e0830152506102e08301358281111561559757600080fd5b6155a3888286016152ed565b61010083015250610300830135828111156155bd57600080fd5b6155c9888286016152ed565b61012083015250610320830135828111156155e357600080fd5b6155ef888286016152ed565b610140830152506103408301358281111561560957600080fd5b615615888286016152ed565b6101608301525061562a876103608501615361565b61018082015261563e8761040085016153d1565b6101a08201526156516104c08401614f52565b6101c08201528093505050509250929050565b6000806040838503121561567757600080fd5b823561568281615068565b9150602083013561569281614f3d565b809150509250929050565b6020808252818101527f4f776e61626c653a2063616c6c6572206973206e6f7420746865206f776e6572604082015260600190565b60208082526004908201526310b3b7bb60e11b604082015260600190565b60208082526010908201526f10bd37b93937a1b7b73a3937b63632b960811b604082015260600190565b6020808252601f908201527f5265656e7472616e637947756172643a207265656e7472616e742063616c6c00604082015260600190565b60208082526010908201526f14185d5cd8589b194e881c185d5cd95960821b604082015260600190565b60006020828403121561578d57600080fd5b5051919050565b600081518084526020808501945080840160005b838110156157cd5781516001600160a01b0316875295820195908201906001016157a8565b509495945050505050565b8381526060602080830182905284516001600160a01b0390811683850152908501518116608084015260408501511660a083015283015160009061582760c08401826001600160a01b03169052565b5060808401516001600160a01b03811660e08401525060a084015160e0610100840152615858610140840182615794565b905060c08501516158756101208501826001600160a01b03169052565b50604092909201929092529392505050565b6020808252602e908201527f496e697469616c697a61626c653a20636f6e747261637420697320616c72656160408201526d191e481a5b9a5d1a585b1a5e995960921b606082015260800190565b6020808252825482820181905260008481528281209092916040850190845b818110156159195783546001600160a01b0316835260019384019392850192016158f4565b50909695505050505050565b6000602080838503121561593857600080fd5b825167ffffffffffffffff81111561594f57600080fd5b8301601f8101851361596057600080fd5b805161596e61530e826152c9565b81815260059190911b8201830190838101908783111561598d57600080fd5b928401925b82841015614e2c5783516159a581614f3d565b82529284019290840190615992565b60008060008060008060c087890312156159cd57600080fd5b86516159d881614f7a565b6020880151604089015160608a015160808b015160a0909b0151939c929b509099909850965090945092505050565b83815260606020820152600060018060a01b03808551166060840152806020860151166080840152506040840151615a4a60a08401826001600160a01b03169052565b5060608401516001600160a01b03811660c08401525060808401516001600160a01b03811660e08401525060a0840151610100615a91818501836001600160a01b03169052565b60c086015191508061012085015250615aae610160840182615794565b905060e08501516158756101408501826001600160a01b03169052565b600060208284031215615add57600080fd5b8151614cff81615068565b634e487b7160e01b600052603260045260246000fd5b634e487b7160e01b600052601160045260246000fd5b6000816000190483118215151615615b2e57615b2e615afe565b500290565b600082615b5057634e487b7160e01b600052601260045260246000fd5b500490565b60008219821115615b6857615b68615afe565b500190565b600082821015615b7f57615b7f615afe565b500390565b6020808252602b908201527f496e697469616c697a61626c653a20636f6e7472616374206973206e6f74206960408201526a6e697469616c697a696e6760a81b606082015260800190565b805169ffffffffffffffffffff81168114613c2c57600080fd5b600080600080600060a08688031215615c0157600080fd5b615c0a86615bcf565b9450602086015193506040860151925060608601519150615c2d60808701615bcf565b90509295509295909350565b600181815b80851115615c74578160001904821115615c5a57615c5a615afe565b80851615615c6757918102915b93841c9390800290615c3e565b509250929050565b600082615c8b5750600161162d565b81615c985750600061162d565b8160018114615cae5760028114615cb857615cd4565b600191505061162d565b60ff841115615cc957615cc9615afe565b50506001821b61162d565b5060208310610133831016604e8410600b8410161715615cf7575081810a61162d565b615d018383615c39565b8060001904821115615d1557615d15615afe565b029392505050565b600061162a60ff841683615c7c565b600081518084526020808501945080840160005b838110156157cd57815160ff1687529582019590820190600101615d40565b600060018060a01b038086168352606060208401528451606084015260208501516080840152604085015160a08401528060608601511660c08401528060808601511660e08401525060a0840151610100818185015260c086015191508061012085015250615dd2610160840182615794565b905060e0850151615def6101408501826001600160a01b03169052565b508281036040840152615e028185615d2c565b9695505050505050565b600060208284031215615e1e57600080fd5b8151614cff81614f7a565b600080600060608486031215615e3e57600080fd5b8351925060208401519150604084015190509250925092565b600061010087835260018060a01b0380881660208501528660408501528551606085015260208601516080850152604086015160a0850152606086015160c08501528160e08501528085511682850152806020860151166101208501526040850151915060a0610140850152615ed16101a0850183615794565b915080606086015116610160850152506080840151610180840152809150509695505050505050565b60005b83811015615f15578181015183820152602001615efd565b83811115611b725750506000910152565b60008251615f38818460208701615efa565b9190910192915050565b6020815260008251806020840152615f61816040850160208701615efa565b601f01601f1916919091016040019291505056fea264697066735822122012a966b38d23ab76f3d751e924485a36d6a32b8d2239c0adf0753613c00ce64b64736f6c634300080a0033",
  "immutableReferences": {},
  "source": "// SPDX-License-Identifier: MIT\n\npragma solidity ^0.8.0;\n\nimport \"@openzeppelin/contracts-upgradeable/token/ERC20/utils/SafeERC20Upgradeable.sol\";\n\nimport \"@openzeppelin/contracts-upgradeable/token/ERC20/IERC20Upgradeable.sol\";\n\nimport \"@openzeppelin/contracts-upgradeable/token/ERC20/ERC20Upgradeable.sol\";\n\nimport \"@openzeppelin/contracts-upgradeable/utils/math/SafeMathUpgradeable.sol\";\n\nimport \"./_VaultBase.sol\";\n\nimport \"../libraries/PriceFeed.sol\";\n\nimport \"./VaultLibrary.sol\";\n\nimport \"../interfaces/ApeLending/ICErc20Interface.sol\";\n\nimport \"../interfaces/ApeLending/IRainMaker.sol\";\n\nimport \"../interfaces/ApeLending/IUnitroller.sol\";\n\nimport \"./VaultLendingLibrary.sol\";\n\n/// @title Vault contract for ApeLending leveraged lending strategies\ncontract VaultApeLending is VaultBase {\n    /* Libraries */\n    using SafeMathUpgradeable for uint256;\n    using SafeERC20Upgradeable for IERC20Upgradeable;\n    using SafeSwapUni for IAMMRouter02;\n    using PriceFeed for AggregatorV3Interface;\n\n    /* Constructor */\n    /// @notice Upgradeable constructor\n    /// @param _initValue A VaultApeLendingInit struct containing all init values\n    /// @param _timelockOwner The designated timelock controller address to act as owner\n    function initialize(\n        address _timelockOwner,\n        VaultApeLendingInit memory _initValue\n    ) public initializer {\n        // Vault config\n        pid = _initValue.pid;\n        isHomeChain = _initValue.isHomeChain;\n\n        // Lending params\n        targetBorrowLimit = _initValue.targetBorrowLimit;\n        targetBorrowLimitHysteresis = _initValue.targetBorrowLimitHysteresis;\n\n        // Addresses\n        govAddress = _initValue.keyAddresses.govAddress;\n        onlyGov = true;\n        zorroControllerAddress = _initValue.keyAddresses.zorroControllerAddress;\n        zorroXChainController = _initValue.keyAddresses.zorroXChainController;\n        ZORROAddress = _initValue.keyAddresses.ZORROAddress;\n        zorroStakingVault = _initValue.keyAddresses.zorroStakingVault;\n        wantAddress = _initValue.keyAddresses.wantAddress;\n        token0Address = _initValue.keyAddresses.token0Address;\n        earnedAddress = _initValue.keyAddresses.earnedAddress;\n        farmContractAddress = _initValue.keyAddresses.farmContractAddress;\n        rewardsAddress = _initValue.keyAddresses.rewardsAddress;\n        poolAddress = _initValue.keyAddresses.poolAddress;\n        uniRouterAddress = _initValue.keyAddresses.uniRouterAddress;\n        zorroLPPool = _initValue.keyAddresses.zorroLPPool;\n        zorroLPPoolOtherToken = _initValue.keyAddresses.zorroLPPoolOtherToken;\n        defaultStablecoin = _initValue.keyAddresses.defaultStablecoin;\n        comptrollerAddress = _initValue.comptrollerAddress;\n\n        // Fees\n        controllerFee = _initValue.fees.controllerFee;\n        buyBackRate = _initValue.fees.buyBackRate;\n        revShareRate = _initValue.fees.revShareRate;\n        entranceFeeFactor = _initValue.fees.entranceFeeFactor;\n        withdrawFeeFactor = _initValue.fees.withdrawFeeFactor;\n\n        // Swap paths\n        earnedToZORROPath = _initValue.earnedToZORROPath;\n        earnedToToken0Path = _initValue.earnedToToken0Path;\n        stablecoinToToken0Path = _initValue.stablecoinToToken0Path;\n        earnedToZORLPPoolOtherTokenPath = _initValue\n            .earnedToZORLPPoolOtherTokenPath;\n        earnedToStablecoinPath = _initValue.earnedToStablecoinPath;\n        stablecoinToToken0Path = _initValue.stablecoinToToken0Path;\n        stablecoinToZORROPath = _initValue.stablecoinToZORROPath;\n        stablecoinToLPPoolOtherTokenPath = _initValue\n            .stablecoinToLPPoolOtherTokenPath;\n        // Corresponding reverse paths\n        token0ToStablecoinPath = VaultLibrary.reversePath(\n            stablecoinToToken0Path\n        );\n\n        // Price feeds\n        token0PriceFeed = AggregatorV3Interface(\n            _initValue.priceFeeds.token0PriceFeed\n        );\n        earnTokenPriceFeed = AggregatorV3Interface(\n            _initValue.priceFeeds.earnTokenPriceFeed\n        );\n        lpPoolOtherTokenPriceFeed = AggregatorV3Interface(\n            _initValue.priceFeeds.lpPoolOtherTokenPriceFeed\n        );\n        ZORPriceFeed = AggregatorV3Interface(\n            _initValue.priceFeeds.ZORPriceFeed\n        );\n        stablecoinPriceFeed = AggregatorV3Interface(\n            _initValue.priceFeeds.stablecoinPriceFeed\n        );\n\n        // Super call\n        VaultBase.initialize(_timelockOwner);\n    }\n\n    /* Structs */\n\n    struct VaultApeLendingInit {\n        uint256 pid;\n        bool isHomeChain;\n        VaultLibrary.VaultAddresses keyAddresses;\n        uint256 targetBorrowLimit;\n        uint256 targetBorrowLimitHysteresis;\n        address[] earnedToZORROPath;\n        address[] earnedToToken0Path;\n        address[] stablecoinToToken0Path;\n        address[] earnedToZORLPPoolOtherTokenPath;\n        address[] earnedToStablecoinPath;\n        address[] stablecoinToZORROPath;\n        address[] stablecoinToLPPoolOtherTokenPath;\n        VaultLibrary.VaultFees fees;\n        VaultLibrary.VaultPriceFeeds priceFeeds;\n        address comptrollerAddress;\n    }\n\n    /* State */\n\n    address[] public stablecoinToZORROPath; // Swap path from BUSD to ZOR (PCS)\n    address[] public stablecoinToLPPoolOtherTokenPath; // Swap path from BUSD to ZOR LP Pool's \"other token\" (PCS)\n    uint256 public targetBorrowLimit; // Max borrow rate % (1e18 = 100%)\n    uint256 public targetBorrowLimitHysteresis; // +/- envelope (1% = 1e16)\n    address public comptrollerAddress; // Unitroller address\n\n    /* Setters */\n\n    function setStablecoinSwapPaths(uint8 _idx, address[] calldata _path)\n        external\n        onlyOwner\n    {\n        if (_idx == 0) {\n            stablecoinToToken0Path = _path;\n        } else if (_idx == 1) {\n            stablecoinToZORROPath = _path;\n        } else if (_idx == 2) {\n            stablecoinToLPPoolOtherTokenPath = _path;\n        } else {\n            revert(\"unsupported idx swap path\");\n        }\n    }\n\n    function setTargetBorrowLimit(uint256 _tbl) external onlyOwner {\n        targetBorrowLimit = _tbl;\n    }\n\n    function setTargetBorrowLimitHysteresis(uint256 _tblh) external onlyOwner {\n        targetBorrowLimitHysteresis = _tblh;\n    }\n\n    function setComptrollerAddress(address _comptroller) external onlyOwner {\n        comptrollerAddress = _comptroller;\n    }\n\n    /* Investment Actions */\n\n    /// @notice Receives new deposits from user\n    /// @param _wantAmt amount of underlying token to deposit/stake\n    /// @return sharesAdded uint256 Number of shares added\n    function depositWantToken(uint256 _wantAmt)\n        public\n        virtual\n        override\n        onlyZorroController\n        nonReentrant\n        whenNotPaused\n        returns (uint256 sharesAdded)\n    {\n        // Preflight checks\n        require(_wantAmt > 0, \"Want token deposit must be > 0\");\n\n        // Calc balances\n        \n\n        // Transfer Want token from sender\n        IERC20Upgradeable(wantAddress).safeTransferFrom(\n            msg.sender,\n            address(this),\n            _wantAmt\n        );\n\n        // Set sharesAdded to the Want token amount specified\n        sharesAdded = _wantAmt;\n        // If the total number of shares and want tokens locked both exceed 0, the shares added is the proportion of Want tokens locked,\n        // discounted by the entrance fee\n        if (_wantTokenLockedAdj() > 0 && sharesTotal > 0) {\n            sharesAdded = _wantAmt\n                .mul(sharesTotal)\n                .mul(entranceFeeFactor)\n                .div(_wantTokenLockedAdj())\n                .div(entranceFeeFactorMax);\n        }\n        // Increment the shares\n        sharesTotal = sharesTotal.add(sharesAdded);\n\n        // Farm (leverage)\n        _farm();\n    }\n\n    /// @notice Calc want token locked, accounting for leveraged supply/borrow\n    /// @return amtLocked The adjusted wantLockedTotal quantity\n    function _wantTokenLockedAdj() internal returns (uint256 amtLocked) {\n        uint256 _wantBal = IERC20Upgradeable(wantAddress).balanceOf(address(this));\n        uint256 _supplyBal = ICErc20Interface(poolAddress).balanceOfUnderlying(address(this));\n        uint256 _borrowBal = ICErc20Interface(poolAddress).borrowBalanceCurrent(address(this));\n        amtLocked = _wantBal.add(_supplyBal).sub(_borrowBal);\n    }\n\n    /// @notice Performs necessary operations to convert USD into Want token\n    /// @param _amountUSD The USD quantity to exchange (must already be deposited)\n    /// @param _maxMarketMovementAllowed The max slippage allowed. 1000 = 0 %, 995 = 0.5%, etc.\n    /// @return uint256 Amount of Want token obtained\n    function exchangeUSDForWantToken(\n        uint256 _amountUSD,\n        uint256 _maxMarketMovementAllowed\n    ) public override onlyZorroController whenNotPaused returns (uint256) {\n        return\n            VaultLibraryApeLending.exchangeUSDForWantToken(\n                _amountUSD,\n                VaultLibraryApeLending.ExchangeUSDForWantParams({\n                    token0Address: token0Address,\n                    stablecoin: defaultStablecoin,\n                    tokenZorroAddress: ZORROAddress,\n                    token0PriceFeed: token0PriceFeed,\n                    stablecoinPriceFeed: stablecoinPriceFeed,\n                    uniRouterAddress: uniRouterAddress,\n                    stablecoinToToken0Path: stablecoinToToken0Path,\n                    poolAddress: poolAddress\n                }),\n                _maxMarketMovementAllowed\n            );\n    }\n\n    // TODO: Consider abstracting all instances of this (in every vault to VaultBase contract)\n    /// @notice Safely swaps tokens using the most suitable protocol based on token\n    /// @param _swapParams SafeSwapParams for swap\n    /// @param _decimals Array of decimals for amount In, amount Out\n    function _safeSwap(\n        SafeSwapParams memory _swapParams,\n        uint8[] memory _decimals\n    ) internal {\n        VaultLibrary.safeSwap(uniRouterAddress, _swapParams, _decimals);\n    }\n\n    /// @notice Fully withdraw Want tokens from the Farm contract (100% withdrawals only)\n    /// @param _wantAmt The amount of Want token to withdraw\n    /// @return sharesRemoved The number of shares removed\n    function withdrawWantToken(uint256 _wantAmt)\n        public\n        virtual\n        override\n        onlyZorroController\n        nonReentrant\n        whenNotPaused\n        returns (uint256 sharesRemoved)\n    {\n        // Preflight checks\n        require(_wantAmt > 0, \"negWant\");\n\n        // Shares removed is proportional to the % of total Want tokens locked that _wantAmt represents\n        sharesRemoved = _wantAmt.mul(sharesTotal).div(_wantTokenLockedAdj());\n        // Safety: cap the shares to the total number of shares\n        if (sharesRemoved > sharesTotal) {\n            sharesRemoved = sharesTotal;\n        }\n        // Decrement the total shares by the sharesRemoved\n        sharesTotal = sharesTotal.sub(sharesRemoved);\n\n\n        // Get balance of underlying on this contract\n        uint256 _wantBal = IERC20Upgradeable(wantAddress).balanceOf(\n            address(this)\n        );\n\n        // If amount to withdraw is gt balance, delever by appropriate amount\n        if (_wantAmt > _wantBal) {\n            // Delever the incremental amount needed and reassign _wantAmt\n            _wantAmt = _withdrawSome(_wantAmt.sub(_wantBal));\n            // Add back the existing balance and reassign _wantAmt\n            _wantAmt = _wantAmt.add(_wantBal);\n        }\n        // Recalc balance \n        _wantBal = IERC20Upgradeable(wantAddress).balanceOf(\n            address(this)\n        );\n        // Safety: Cap want amount to new balance (after delevering some), as a last resort\n        if (_wantAmt > _wantBal) {\n            _wantAmt = _wantBal;\n        }\n\n\n        // If a withdrawal fee is specified, discount the _wantAmt by the withdrawal fee\n        if (withdrawFeeFactor < withdrawFeeFactorMax) {\n            _wantAmt = _wantAmt.mul(withdrawFeeFactor).div(\n                withdrawFeeFactorMax\n            );\n        }\n\n        // Finally, transfer the want amount from this contract, back to the ZorroController contract\n        IERC20Upgradeable(wantAddress).safeTransfer(\n            zorroControllerAddress,\n            _wantAmt\n        );\n        \n        // Rebalance\n        _supplyWant();\n        _rebalance(0);\n    }\n\n    /// @notice TODO\n    function _withdrawSome(uint256 _amount) internal returns (uint256) {\n        _rebalance(_amount);\n        uint256 _balance = ICErc20Interface(poolAddress).balanceOfUnderlying(\n            address(this)\n        );\n        if (_amount > _balance) _amount = _balance;\n        require(\n            ICErc20Interface(poolAddress).redeemUnderlying(_amount) == 0,\n            \"_withdrawSome: redeem failed\"\n        );\n        return _amount;\n    }\n\n    /// @notice Converts Want token back into USD to be ready for withdrawal and transfers to sender\n    /// @param _amount The Want token quantity to exchange (must be deposited beforehand)\n    /// @param _maxMarketMovementAllowed The max slippage allowed for swaps. 1000 = 0 %, 995 = 0.5%, etc.\n    /// @return uint256 Amount of USD token obtained\n    function exchangeWantTokenForUSD(\n        uint256 _amount,\n        uint256 _maxMarketMovementAllowed\n    )\n        public\n        virtual\n        override\n        onlyZorroController\n        whenNotPaused\n        returns (uint256)\n    {\n        return\n            VaultLibraryApeLending.exchangeWantTokenForUSD(\n                _amount,\n                VaultLibraryApeLending.ExchangeWantTokenForUSDParams({\n                    token0Address: token0Address,\n                    stablecoin: defaultStablecoin,\n                    poolAddress: poolAddress,\n                    token0PriceFeed: token0PriceFeed,\n                    stablecoinPriceFeed: stablecoinPriceFeed,\n                    token0ToStablecoinPath: token0ToStablecoinPath,\n                    uniRouterAddress: uniRouterAddress\n                }),\n                _maxMarketMovementAllowed\n            );\n    }\n\n    /// @notice The main compounding (earn) function. Reinvests profits since the last earn event.\n    /// @param _maxMarketMovementAllowed The max slippage allowed. 1000 = 0 %, 995 = 0.5%, etc.\n    function earn(uint256 _maxMarketMovementAllowed)\n        public\n        virtual\n        override\n        nonReentrant\n        whenNotPaused\n    {\n        // If onlyGov is set to true, only allow to proceed if the current caller is the govAddress\n        if (onlyGov) {\n            require(msg.sender == govAddress, \"!gov\");\n        }\n\n        // Claim any outstanding farm rewards\n        IRainMaker(farmContractAddress).claimComp(address(this));\n\n        // Get the balance of the Earned token on this contract\n        uint256 _earnedAmt = IERC20(earnedAddress).balanceOf(address(this));\n\n        // Require pending rewards in order to continue\n        require(_earnedAmt > 0, \"0earn\");\n\n        // Get exchange rate from price feed\n        uint256 _token0ExchangeRate = token0PriceFeed.getExchangeRate();\n\n        // Create rates struct\n        VaultLibrary.ExchangeRates memory _rates = VaultLibrary.ExchangeRates({\n            earn: earnTokenPriceFeed.getExchangeRate(),\n            ZOR: ZORPriceFeed.getExchangeRate(),\n            lpPoolOtherToken: lpPoolOtherTokenPriceFeed.getExchangeRate(),\n            stablecoin: stablecoinPriceFeed.getExchangeRate()\n        });\n\n        // Distribute fees\n        uint256 _controllerFee = _distributeFees(_earnedAmt);\n\n        // Buyback & rev share\n        (uint256 _buybackAmt, uint256 _revShareAmt) = _buyBackAndRevShare(\n            _earnedAmt,\n            _maxMarketMovementAllowed,\n            _rates\n        );\n\n        // Net earned amt\n        uint256 _earnedAmtNet = _earnedAmt\n            .sub(_controllerFee)\n            .sub(_buybackAmt)\n            .sub(_revShareAmt);\n\n        // Swap Earn token for single asset token\n\n        // Get decimal info\n        uint8[] memory _decimals0 = new uint8[](2);\n        _decimals0[0] = ERC20Upgradeable(earnedAddress).decimals();\n        _decimals0[1] = ERC20Upgradeable(defaultStablecoin).decimals();\n        uint8[] memory _decimals1 = new uint8[](2);\n        _decimals1[0] = _decimals0[1];\n        _decimals1[1] = ERC20Upgradeable(token0Address).decimals();\n\n        // Swap earn to token0 if token0 is not earn\n        if (token0Address != earnedAddress) {\n            _safeSwap(\n                SafeSwapParams({\n                    amountIn: _earnedAmtNet,\n                    priceToken0: _rates.earn,\n                    priceToken1: _token0ExchangeRate,\n                    token0: earnedAddress,\n                    token1: token0Address,\n                    maxMarketMovementAllowed: _maxMarketMovementAllowed,\n                    path: earnedToToken0Path,\n                    destination: address(this)\n                }),\n                _decimals1\n            );\n        }\n\n        // Redeposit single asset token to get Want token\n        // Get new Token0 balance\n        uint256 _token0Bal = IERC20Upgradeable(token0Address).balanceOf(\n            address(this)\n        );\n        // Allow spending\n        IERC20Upgradeable(token0Address).safeIncreaseAllowance(\n            poolAddress,\n            _token0Bal\n        );\n        // Re-supply\n        _supplyWant();\n        // Re-lever\n        _rebalance(0);\n\n        // This vault is only for single asset deposits, so farm that token and exit\n        // Update the last earn block\n        lastEarnBlock = block.number;\n    }\n\n    /// @notice Buys back the earned token on-chain, swaps it to add liquidity to the ZOR pool, then burns the associated LP token\n    /// @dev Requires funds to be sent to this address before calling. Can be called internally OR by controller\n    /// @param _amount The amount of Earn token to buy back\n    /// @param _maxMarketMovementAllowed The max slippage allowed. 1000 = 0 %, 995 = 0.5%, etc.\n    /// @param _rates ExchangeRates struct with realtime rates information for swaps\n    function _buybackOnChain(\n        uint256 _amount,\n        uint256 _maxMarketMovementAllowed,\n        VaultLibrary.ExchangeRates memory _rates\n    ) internal override {\n        // Self contained block to limit stack depth\n        {\n            // Get exchange rate\n            uint256 _stablecoinExchangeRate = stablecoinPriceFeed\n                .getExchangeRate();\n\n            // Get decimal info\n            uint8[] memory _decimals0 = new uint8[](2);\n            _decimals0[0] = ERC20Upgradeable(earnedAddress).decimals();\n            _decimals0[1] = ERC20Upgradeable(defaultStablecoin).decimals();\n            uint8[] memory _decimals1 = new uint8[](2);\n            _decimals1[0] = _decimals0[1];\n            _decimals1[1] = ERC20Upgradeable(ZORROAddress).decimals();\n            uint8[] memory _decimals2 = new uint8[](2);\n            _decimals2[0] = _decimals0[1];\n            _decimals2[1] = ERC20Upgradeable(zorroLPPoolOtherToken).decimals();\n\n            // 1. Swap Earned -> BUSD\n            _safeSwap(\n                SafeSwapParams({\n                    amountIn: _amount,\n                    priceToken0: _rates.earn,\n                    priceToken1: _stablecoinExchangeRate,\n                    token0: earnedAddress,\n                    token1: defaultStablecoin,\n                    maxMarketMovementAllowed: _maxMarketMovementAllowed,\n                    path: earnedToStablecoinPath,\n                    destination: address(this)\n                }),\n                _decimals0\n            );\n\n            // Get BUSD bal\n            uint256 _balBUSD = IERC20Upgradeable(defaultStablecoin).balanceOf(\n                address(this)\n            );\n\n            // 2. Swap 1/2 BUSD -> ZOR\n            _safeSwap(\n                SafeSwapParams({\n                    amountIn: _balBUSD.div(2),\n                    priceToken0: _stablecoinExchangeRate,\n                    priceToken1: _rates.ZOR,\n                    token0: defaultStablecoin,\n                    token1: ZORROAddress,\n                    maxMarketMovementAllowed: _maxMarketMovementAllowed,\n                    path: stablecoinToZORROPath,\n                    destination: address(this)\n                }),\n                _decimals1\n            );\n\n            // 3. Swap 1/2 BUSD -> LP \"other token\"\n            if (zorroLPPoolOtherToken != defaultStablecoin) {\n                _safeSwap(\n                    SafeSwapParams({\n                        amountIn: _balBUSD.div(2),\n                        priceToken0: _stablecoinExchangeRate,\n                        priceToken1: _rates.lpPoolOtherToken,\n                        token0: defaultStablecoin,\n                        token1: zorroLPPoolOtherToken,\n                        maxMarketMovementAllowed: _maxMarketMovementAllowed,\n                        path: stablecoinToLPPoolOtherTokenPath,\n                        destination: address(this)\n                    }),\n                    _decimals2\n                );\n            }\n        }\n\n        // Enter LP pool and send received token to the burn address\n        uint256 zorroTokenAmt = IERC20Upgradeable(ZORROAddress).balanceOf(\n            address(this)\n        );\n        uint256 otherTokenAmt = IERC20Upgradeable(zorroLPPoolOtherToken)\n            .balanceOf(address(this));\n        IERC20Upgradeable(ZORROAddress).safeIncreaseAllowance(\n            uniRouterAddress,\n            zorroTokenAmt\n        );\n        IERC20Upgradeable(zorroLPPoolOtherToken).safeIncreaseAllowance(\n            uniRouterAddress,\n            otherTokenAmt\n        );\n        IAMMRouter02(uniRouterAddress).addLiquidity(\n            ZORROAddress,\n            zorroLPPoolOtherToken,\n            zorroTokenAmt,\n            otherTokenAmt,\n            zorroTokenAmt.mul(_maxMarketMovementAllowed).div(1000),\n            otherTokenAmt.mul(_maxMarketMovementAllowed).div(1000),\n            burnAddress,\n            block.timestamp.add(600)\n        );\n    }\n\n    /// @notice Sends the specified earnings amount as revenue share to ZOR stakers\n    /// @param _amount The amount of Earn token to share as revenue with ZOR stakers\n    /// @param _maxMarketMovementAllowed Max slippage. 950 = 5%, 990 = 1%, etc.\n    /// @param _rates ExchangeRates struct with realtime rates information for swaps\n    function _revShareOnChain(\n        uint256 _amount,\n        uint256 _maxMarketMovementAllowed,\n        VaultLibrary.ExchangeRates memory _rates\n    ) internal override {\n        // Get decimal info\n        uint8[] memory _decimals0 = new uint8[](2);\n        _decimals0[0] = ERC20Upgradeable(earnedAddress).decimals();\n        _decimals0[1] = ERC20Upgradeable(defaultStablecoin).decimals();\n        // Get decimal info\n        uint8[] memory _decimals1 = new uint8[](2);\n        _decimals1[0] = _decimals0[1];\n        _decimals1[1] = ERC20Upgradeable(ZORROAddress).decimals();\n\n        // Authorize spending beforehand\n        IERC20Upgradeable(earnedAddress).safeIncreaseAllowance(\n            uniRouterAddress,\n            _amount\n        );\n\n        // Swap Earn to USD\n        // 1. Router: Earn -> BUSD\n        _safeSwap(\n            SafeSwapParams({\n                amountIn: _amount,\n                priceToken0: _rates.earn,\n                priceToken1: _rates.stablecoin,\n                token0: earnedAddress,\n                token1: defaultStablecoin,\n                maxMarketMovementAllowed: _maxMarketMovementAllowed,\n                path: earnedToStablecoinPath,\n                destination: address(this)\n            }),\n            _decimals0\n        );\n        // 2. Uni: BUSD -> ZOR\n        uint256 _balUSD = IERC20Upgradeable(defaultStablecoin).balanceOf(\n            address(this)\n        );\n        // Increase allowance\n        IERC20Upgradeable(defaultStablecoin).safeIncreaseAllowance(\n            uniRouterAddress,\n            _balUSD\n        );\n        _safeSwap(\n            SafeSwapParams({\n                amountIn: _balUSD,\n                priceToken0: _rates.stablecoin,\n                priceToken1: _rates.ZOR,\n                token0: defaultStablecoin,\n                token1: ZORROAddress,\n                maxMarketMovementAllowed: _maxMarketMovementAllowed,\n                path: stablecoinToZORROPath,\n                destination: zorroStakingVault\n            }),\n            _decimals1\n        );\n    }\n\n    /// @notice Swaps Earn token to USD and sends to destination specified\n    /// @param _earnedAmount Quantity of Earned tokens\n    /// @param _destination Address to send swapped USD to\n    /// @param _maxMarketMovementAllowed Slippage factor. 950 = 5%, 990 = 1%, etc.\n    /// @param _rates ExchangeRates struct with realtime rates information for swaps\n    function _swapEarnedToUSD(\n        uint256 _earnedAmount,\n        address _destination,\n        uint256 _maxMarketMovementAllowed,\n        VaultLibrary.ExchangeRates memory _rates\n    ) internal override {\n        VaultLibrary.swapEarnedToUSD(\n            _earnedAmount,\n            _destination,\n            _maxMarketMovementAllowed,\n            _rates,\n            VaultLibrary.SwapEarnedToUSDParams({\n                earnedAddress: earnedAddress,\n                stablecoin: defaultStablecoin,\n                earnedToStablecoinPath: earnedToStablecoinPath,\n                uniRouterAddress: uniRouterAddress,\n                stablecoinExchangeRate: _rates.stablecoin\n            })\n        );\n    }\n\n    /// @notice Public function for farming Want token.\n    function farm() public nonReentrant {\n        _farm();\n    }\n\n    /// @notice Function for farming want token\n    function _farm() internal {\n        // Supply the underlying token\n        _supplyWant();\n\n        // Leverage up to target leverage (using supply-borrow)\n        _rebalance(0);\n    }\n\n    /// @notice Supplies underlying token to Pool (vToken contract)\n    function _supplyWant() internal whenNotPaused {\n        // Get underlying balance\n        uint256 _wantBal = IERC20Upgradeable(wantAddress).balanceOf(\n            address(this)\n        );\n        // Allow spending of underlying token by Pool (VToken contract)\n        IERC20Upgradeable(wantAddress).safeIncreaseAllowance(\n            poolAddress,\n            _wantBal\n        );\n        // Supply underlying token\n        ICErc20Interface(poolAddress).mint(_wantBal);\n    }\n\n    /// @notice Maintains target leverage amount, within tolerance\n    /// @param _withdrawAmt The amount of tokens to deleverage for withdrawal\n    function _rebalance(uint256 _withdrawAmt) internal {\n        /* Init */\n\n        // Be initial supply balance of underlying.\n        uint256 _ox = ICErc20Interface(poolAddress).balanceOfUnderlying(\n            address(this)\n        );\n        // If no supply, nothing to do so exit.\n        if (_ox == 0) return;\n\n        // If withdrawal greater than balance of underlying, cap it (account for rounding)\n        if (_withdrawAmt >= _ox) _withdrawAmt = _ox.sub(1);\n        // Adjusted supply = init supply - amt to withdraw\n        uint256 _x = _ox.sub(_withdrawAmt);\n        // Calc init borrow balance\n        uint256 _y = ICErc20Interface(poolAddress).borrowBalanceCurrent(\n            address(this)\n        );\n        // Get collateral factor from protocol\n        uint256 _c = collateralFactor();\n        // Target leverage\n        uint256 _L = _c.mul(targetBorrowLimit).div(1e18);\n        // Current leverage = borrow / supply\n        uint256 _currentL = _y.mul(1e18).div(_x);\n        // Liquidity (of underlying) available in the pool overall\n        uint256 _liquidityAvailable = ICErc20Interface(poolAddress).getCash();\n\n        /* Leverage targeting */\n\n        if (_currentL < _L && _L.sub(_currentL) > targetBorrowLimitHysteresis) {\n            // If BELOW leverage target and below hysteresis envelope\n\n            // Calculate incremental amount to borrow:\n            // (Target lev % * curr supply - curr borrowed)/(1 - Target lev %)\n            uint256 _dy = _L.mul(_x).div(1e18).sub(_y).mul(1e18).div(\n                uint256(1e18).sub(_L)\n            );\n\n            // Cap incremental borrow to init supply * collateral fact % - curr borrowed\n            uint256 _max_dy = _ox.mul(_c).div(1e18).sub(_y);\n            if (_dy > _max_dy) _dy = _max_dy;\n            // Also cap to max liq available\n            if (_dy > _liquidityAvailable) _dy = _liquidityAvailable;\n\n            // Borrow incremental amount\n            ICErc20Interface(poolAddress).borrow(_dy);\n\n            // Supply the amount borrowed\n            _supplyWant();\n        } else {\n            // If ABOVE leverage target, iteratively deleverage until within hysteresis envelope\n            while (\n                _currentL > _L &&\n                _currentL.sub(_L) > targetBorrowLimitHysteresis\n            ) {\n                // Calculate incremental amount to borrow:\n                // (Curr borrowed - (Target lev % * Curr supply)) / (1 - Target lev %)\n                uint256 _dy = _y.sub(_L.mul(_x).div(1e18)).mul(1e18).div(\n                    uint256(1e18).sub(_L)\n                );\n                // Cap incremental borrow-repay to init supply - (curr borrowed / collateral fact %)\n                uint256 _max_dy = _ox.sub(_y.mul(1e18).div(_c));\n                if (_dy > _max_dy) _dy = _max_dy;\n                // Also cap to max liq available\n                if (_dy > _liquidityAvailable) _dy = _liquidityAvailable;\n\n                // Redeem underlying increment. Return val must be 0 (success)\n                require(\n                    ICErc20Interface(poolAddress).redeemUnderlying(_dy) == 0,\n                    \"rebal fail\"\n                );\n\n                // Decrement supply bal by amount repaid\n                _ox = _ox.sub(_dy);\n                // Cap withdrawal amount to new supply (account for rounding)\n                if (_withdrawAmt >= _ox) _withdrawAmt = _ox.sub(1);\n                // Adjusted supply decremented by withdrawal amount\n                _x = _ox.sub(_withdrawAmt);\n\n                // Cap incremental borrow-repay to total amount borrowed\n                if (_dy > _y) _dy = _y;\n                // Allow pool to spend underlying\n                IERC20Upgradeable(wantAddress).safeIncreaseAllowance(\n                    poolAddress,\n                    _dy\n                );\n                // Repay borrowed amount (increment)\n                ICErc20Interface(poolAddress).repayBorrow(_dy);\n                // Decrement total amount borrowed\n                _y = _y.sub(_dy);\n\n                // Update current leverage (borrowed / supplied)\n                _currentL = _y.mul(1e18).div(_x);\n                // Update current liquidity of underlying pool\n                _liquidityAvailable = ICErc20Interface(poolAddress).getCash();\n            }\n        }\n    }\n\n    /// @notice Gets loan collateral factor from lending protocol\n    /// @return collFactor The collateral factor %. TODO: Specify denominator (1e18?) Check against consuming logic. \n    function collateralFactor() public view returns (uint256 collFactor) {\n        (,uint256 _collateralFactor,,,,) = IUnitrollerApeLending(comptrollerAddress).markets(poolAddress);\n        return _collateralFactor;\n    }\n}\n\ncontract VaultApeLendingETH is VaultApeLending {}\n",
  "sourcePath": "/Users/kristophm/Documents/workspace/zorro-protocol/contracts/vaults/VaultApeLending.sol",
  "compiler": {
    "name": "solc",
    "version": "0.8.10+commit.fc410830.Emscripten.clang"
  },
  "schemaVersion": "3.4.4",
  "updatedAt": "2022-11-10T01:45:43.949Z",
  "devdoc": {
    "kind": "dev",
    "methods": {
      "collateralFactor()": {
        "returns": {
          "collFactor": "The collateral factor %. TODO: Specify denominator (1e18?) Check against consuming logic. "
        }
      },
      "depositWantToken(uint256)": {
        "params": {
          "_wantAmt": "amount of underlying token to deposit/stake"
        },
        "returns": {
          "sharesAdded": "uint256 Number of shares added"
        }
      },
      "earn(uint256)": {
        "params": {
          "_maxMarketMovementAllowed": "The max slippage allowed. 1000 = 0 %, 995 = 0.5%, etc."
        }
      },
      "exchangeUSDForWantToken(uint256,uint256)": {
        "params": {
          "_amountUSD": "The USD quantity to exchange (must already be deposited)",
          "_maxMarketMovementAllowed": "The max slippage allowed. 1000 = 0 %, 995 = 0.5%, etc."
        },
        "returns": {
          "_0": "uint256 Amount of Want token obtained"
        }
      },
      "exchangeWantTokenForUSD(uint256,uint256)": {
        "params": {
          "_amount": "The Want token quantity to exchange (must be deposited beforehand)",
          "_maxMarketMovementAllowed": "The max slippage allowed for swaps. 1000 = 0 %, 995 = 0.5%, etc."
        },
        "returns": {
          "_0": "uint256 Amount of USD token obtained"
        }
      },
      "inCaseTokensGetStuck(address,uint256,address)": {
        "params": {
          "_amount": "The amount of the tokens to transfer",
          "_to": "The address to transfer tokens to",
          "_token": "Address of the ERC20 token to transfer"
        }
      },
      "initialize(address,(uint256,bool,(address,address,address,address,address,address,address,address,address,address,address,address,address,address,address,address),uint256,uint256,address[],address[],address[],address[],address[],address[],address[],(uint256,uint256,uint256,uint256,uint256),(address,address,address,address,address,address),address))": {
        "params": {
          "_initValue": "A VaultApeLendingInit struct containing all init values",
          "_timelockOwner": "The designated timelock controller address to act as owner"
        }
      },
      "owner()": {
        "details": "Returns the address of the current owner."
      },
      "paused()": {
        "details": "Returns true if the contract is paused, and false otherwise."
      },
      "renounceOwnership()": {
        "details": "Leaves the contract without owner. It will not be possible to call `onlyOwner` functions anymore. Can only be called by the current owner. NOTE: Renouncing ownership will leave the contract without an owner, thereby removing any functionality that is only available to the owner."
      },
      "setFeeSettings(uint256,uint256,uint256,uint256,uint256)": {
        "params": {
          "_buyBackRate": "Buy back rate fee numerator",
          "_controllerFee": "Controller fee numerator",
          "_entranceFeeFactor": "Entrance fee numerator (higher means smaller percentage)",
          "_revShareRate": "Rev share rate fee numerator",
          "_withdrawFeeFactor": "Withdrawal fee numerator (higher means smaller percentage)"
        }
      },
      "setGov(address)": {
        "params": {
          "_govAddress": "The new gov address"
        }
      },
      "setOnlyGov(bool)": {
        "params": {
          "_onlyGov": "whether onlyGov should be enforced"
        }
      },
      "transferOwnership(address)": {
        "details": "Transfers ownership of the contract to a new account (`newOwner`). Can only be called by the current owner."
      },
      "withdrawWantToken(uint256)": {
        "params": {
          "_wantAmt": "The amount of Want token to withdraw"
        },
        "returns": {
          "sharesRemoved": "The number of shares removed"
        }
      }
    },
    "version": 1
  },
  "userdoc": {
    "kind": "user",
    "methods": {
      "collateralFactor()": {
        "notice": "Gets loan collateral factor from lending protocol"
      },
      "depositWantToken(uint256)": {
        "notice": "Receives new deposits from user"
      },
      "earn(uint256)": {
        "notice": "The main compounding (earn) function. Reinvests profits since the last earn event."
      },
      "exchangeUSDForWantToken(uint256,uint256)": {
        "notice": "Performs necessary operations to convert USD into Want token"
      },
      "exchangeWantTokenForUSD(uint256,uint256)": {
        "notice": "Converts Want token back into USD to be ready for withdrawal and transfers to sender"
      },
      "farm()": {
        "notice": "Public function for farming Want token."
      },
      "inCaseTokensGetStuck(address,uint256,address)": {
        "notice": "Safely transfer ERC20 tokens stuck in this contract to a specified address"
      },
      "initialize(address,(uint256,bool,(address,address,address,address,address,address,address,address,address,address,address,address,address,address,address,address),uint256,uint256,address[],address[],address[],address[],address[],address[],address[],(uint256,uint256,uint256,uint256,uint256),(address,address,address,address,address,address),address))": {
        "notice": "Upgradeable constructor"
      },
      "pause()": {
        "notice": "Pause contract"
      },
      "setFeeSettings(uint256,uint256,uint256,uint256,uint256)": {
        "notice": "Configure key fee parameters"
      },
      "setGov(address)": {
        "notice": "Set governor address"
      },
      "setOnlyGov(bool)": {
        "notice": "Set onlyGov property"
      },
      "unpause()": {
        "notice": "Unpause contract"
      },
      "withdrawWantToken(uint256)": {
        "notice": "Fully withdraw Want tokens from the Farm contract (100% withdrawals only)"
      }
    },
    "version": 1
  }
}