{
  "contractName": "VaultApeLending",
  "abi": [
    {
      "anonymous": false,
      "inputs": [
        {
          "indexed": true,
          "internalType": "uint256",
          "name": "_amount",
          "type": "uint256"
        }
      ],
      "name": "Buyback",
      "type": "event"
    },
    {
      "anonymous": false,
      "inputs": [
        {
          "indexed": true,
          "internalType": "address",
          "name": "previousOwner",
          "type": "address"
        },
        {
          "indexed": true,
          "internalType": "address",
          "name": "newOwner",
          "type": "address"
        }
      ],
      "name": "OwnershipTransferred",
      "type": "event"
    },
    {
      "anonymous": false,
      "inputs": [
        {
          "indexed": false,
          "internalType": "address",
          "name": "account",
          "type": "address"
        }
      ],
      "name": "Paused",
      "type": "event"
    },
    {
      "anonymous": false,
      "inputs": [
        {
          "indexed": true,
          "internalType": "uint256",
          "name": "_amount",
          "type": "uint256"
        }
      ],
      "name": "RevShare",
      "type": "event"
    },
    {
      "anonymous": false,
      "inputs": [
        {
          "indexed": false,
          "internalType": "address",
          "name": "_govAddress",
          "type": "address"
        }
      ],
      "name": "SetGov",
      "type": "event"
    },
    {
      "anonymous": false,
      "inputs": [
        {
          "indexed": false,
          "internalType": "bool",
          "name": "_onlyGov",
          "type": "bool"
        }
      ],
      "name": "SetOnlyGov",
      "type": "event"
    },
    {
      "anonymous": false,
      "inputs": [
        {
          "indexed": false,
          "internalType": "address",
          "name": "_rewardsAddress",
          "type": "address"
        }
      ],
      "name": "SetRewardsAddress",
      "type": "event"
    },
    {
      "anonymous": false,
      "inputs": [
        {
          "indexed": false,
          "internalType": "uint256",
          "name": "_entranceFeeFactor",
          "type": "uint256"
        },
        {
          "indexed": false,
          "internalType": "uint256",
          "name": "_withdrawFeeFactor",
          "type": "uint256"
        },
        {
          "indexed": false,
          "internalType": "uint256",
          "name": "_controllerFee",
          "type": "uint256"
        },
        {
          "indexed": false,
          "internalType": "uint256",
          "name": "_buyBackRate",
          "type": "uint256"
        },
        {
          "indexed": false,
          "internalType": "uint256",
          "name": "_revShareRate",
          "type": "uint256"
        }
      ],
      "name": "SetSettings",
      "type": "event"
    },
    {
      "anonymous": false,
      "inputs": [
        {
          "indexed": false,
          "internalType": "address",
          "name": "_uniRouterAddress",
          "type": "address"
        }
      ],
      "name": "SetUniRouterAddress",
      "type": "event"
    },
    {
      "anonymous": false,
      "inputs": [
        {
          "indexed": false,
          "internalType": "address",
          "name": "account",
          "type": "address"
        }
      ],
      "name": "Unpaused",
      "type": "event"
    },
    {
      "inputs": [],
      "name": "ZORPriceFeed",
      "outputs": [
        {
          "internalType": "contract AggregatorV3Interface",
          "name": "",
          "type": "address"
        }
      ],
      "stateMutability": "view",
      "type": "function"
    },
    {
      "inputs": [],
      "name": "ZORROAddress",
      "outputs": [
        {
          "internalType": "address",
          "name": "",
          "type": "address"
        }
      ],
      "stateMutability": "view",
      "type": "function"
    },
    {
      "inputs": [],
      "name": "burnAddress",
      "outputs": [
        {
          "internalType": "address",
          "name": "",
          "type": "address"
        }
      ],
      "stateMutability": "view",
      "type": "function"
    },
    {
      "inputs": [],
      "name": "buyBackRate",
      "outputs": [
        {
          "internalType": "uint256",
          "name": "",
          "type": "uint256"
        }
      ],
      "stateMutability": "view",
      "type": "function"
    },
    {
      "inputs": [],
      "name": "buyBackRateMax",
      "outputs": [
        {
          "internalType": "uint256",
          "name": "",
          "type": "uint256"
        }
      ],
      "stateMutability": "view",
      "type": "function"
    },
    {
      "inputs": [],
      "name": "buyBackRateUL",
      "outputs": [
        {
          "internalType": "uint256",
          "name": "",
          "type": "uint256"
        }
      ],
      "stateMutability": "view",
      "type": "function"
    },
    {
      "inputs": [],
      "name": "comptrollerAddress",
      "outputs": [
        {
          "internalType": "address",
          "name": "",
          "type": "address"
        }
      ],
      "stateMutability": "view",
      "type": "function"
    },
    {
      "inputs": [],
      "name": "controllerFee",
      "outputs": [
        {
          "internalType": "uint256",
          "name": "",
          "type": "uint256"
        }
      ],
      "stateMutability": "view",
      "type": "function"
    },
    {
      "inputs": [],
      "name": "controllerFeeMax",
      "outputs": [
        {
          "internalType": "uint256",
          "name": "",
          "type": "uint256"
        }
      ],
      "stateMutability": "view",
      "type": "function"
    },
    {
      "inputs": [],
      "name": "controllerFeeUL",
      "outputs": [
        {
          "internalType": "uint256",
          "name": "",
          "type": "uint256"
        }
      ],
      "stateMutability": "view",
      "type": "function"
    },
    {
      "inputs": [],
      "name": "defaultStablecoin",
      "outputs": [
        {
          "internalType": "address",
          "name": "",
          "type": "address"
        }
      ],
      "stateMutability": "view",
      "type": "function"
    },
    {
      "inputs": [],
      "name": "earnTokenPriceFeed",
      "outputs": [
        {
          "internalType": "contract AggregatorV3Interface",
          "name": "",
          "type": "address"
        }
      ],
      "stateMutability": "view",
      "type": "function"
    },
    {
      "inputs": [],
      "name": "earnedAddress",
      "outputs": [
        {
          "internalType": "address",
          "name": "",
          "type": "address"
        }
      ],
      "stateMutability": "view",
      "type": "function"
    },
    {
      "inputs": [
        {
          "internalType": "uint256",
          "name": "",
          "type": "uint256"
        }
      ],
      "name": "earnedToStablecoinPath",
      "outputs": [
        {
          "internalType": "address",
          "name": "",
          "type": "address"
        }
      ],
      "stateMutability": "view",
      "type": "function"
    },
    {
      "inputs": [
        {
          "internalType": "uint256",
          "name": "",
          "type": "uint256"
        }
      ],
      "name": "earnedToToken0Path",
      "outputs": [
        {
          "internalType": "address",
          "name": "",
          "type": "address"
        }
      ],
      "stateMutability": "view",
      "type": "function"
    },
    {
      "inputs": [
        {
          "internalType": "uint256",
          "name": "",
          "type": "uint256"
        }
      ],
      "name": "earnedToToken1Path",
      "outputs": [
        {
          "internalType": "address",
          "name": "",
          "type": "address"
        }
      ],
      "stateMutability": "view",
      "type": "function"
    },
    {
      "inputs": [
        {
          "internalType": "uint256",
          "name": "",
          "type": "uint256"
        }
      ],
      "name": "earnedToZORLPPoolOtherTokenPath",
      "outputs": [
        {
          "internalType": "address",
          "name": "",
          "type": "address"
        }
      ],
      "stateMutability": "view",
      "type": "function"
    },
    {
      "inputs": [
        {
          "internalType": "uint256",
          "name": "",
          "type": "uint256"
        }
      ],
      "name": "earnedToZORROPath",
      "outputs": [
        {
          "internalType": "address",
          "name": "",
          "type": "address"
        }
      ],
      "stateMutability": "view",
      "type": "function"
    },
    {
      "inputs": [],
      "name": "entranceFeeFactor",
      "outputs": [
        {
          "internalType": "uint256",
          "name": "",
          "type": "uint256"
        }
      ],
      "stateMutability": "view",
      "type": "function"
    },
    {
      "inputs": [],
      "name": "entranceFeeFactorLL",
      "outputs": [
        {
          "internalType": "uint256",
          "name": "",
          "type": "uint256"
        }
      ],
      "stateMutability": "view",
      "type": "function"
    },
    {
      "inputs": [],
      "name": "entranceFeeFactorMax",
      "outputs": [
        {
          "internalType": "uint256",
          "name": "",
          "type": "uint256"
        }
      ],
      "stateMutability": "view",
      "type": "function"
    },
    {
      "inputs": [],
      "name": "farmContractAddress",
      "outputs": [
        {
          "internalType": "address",
          "name": "",
          "type": "address"
        }
      ],
      "stateMutability": "view",
      "type": "function"
    },
    {
      "inputs": [],
      "name": "govAddress",
      "outputs": [
        {
          "internalType": "address",
          "name": "",
          "type": "address"
        }
      ],
      "stateMutability": "view",
      "type": "function"
    },
    {
      "inputs": [
        {
          "internalType": "address",
          "name": "_token",
          "type": "address"
        },
        {
          "internalType": "uint256",
          "name": "_amount",
          "type": "uint256"
        },
        {
          "internalType": "address",
          "name": "_to",
          "type": "address"
        }
      ],
      "name": "inCaseTokensGetStuck",
      "outputs": [],
      "stateMutability": "nonpayable",
      "type": "function"
    },
    {
      "inputs": [],
      "name": "isFarmable",
      "outputs": [
        {
          "internalType": "bool",
          "name": "",
          "type": "bool"
        }
      ],
      "stateMutability": "view",
      "type": "function"
    },
    {
      "inputs": [],
      "name": "isHomeChain",
      "outputs": [
        {
          "internalType": "bool",
          "name": "",
          "type": "bool"
        }
      ],
      "stateMutability": "view",
      "type": "function"
    },
    {
      "inputs": [],
      "name": "lastEarnBlock",
      "outputs": [
        {
          "internalType": "uint256",
          "name": "",
          "type": "uint256"
        }
      ],
      "stateMutability": "view",
      "type": "function"
    },
    {
      "inputs": [],
      "name": "lpPoolOtherTokenPriceFeed",
      "outputs": [
        {
          "internalType": "contract AggregatorV3Interface",
          "name": "",
          "type": "address"
        }
      ],
      "stateMutability": "view",
      "type": "function"
    },
    {
      "inputs": [],
      "name": "maxMarketMovementAllowed",
      "outputs": [
        {
          "internalType": "uint256",
          "name": "",
          "type": "uint256"
        }
      ],
      "stateMutability": "view",
      "type": "function"
    },
    {
      "inputs": [],
      "name": "onlyGov",
      "outputs": [
        {
          "internalType": "bool",
          "name": "",
          "type": "bool"
        }
      ],
      "stateMutability": "view",
      "type": "function"
    },
    {
      "inputs": [],
      "name": "owner",
      "outputs": [
        {
          "internalType": "address",
          "name": "",
          "type": "address"
        }
      ],
      "stateMutability": "view",
      "type": "function"
    },
    {
      "inputs": [],
      "name": "pause",
      "outputs": [],
      "stateMutability": "nonpayable",
      "type": "function"
    },
    {
      "inputs": [],
      "name": "paused",
      "outputs": [
        {
          "internalType": "bool",
          "name": "",
          "type": "bool"
        }
      ],
      "stateMutability": "view",
      "type": "function"
    },
    {
      "inputs": [],
      "name": "pid",
      "outputs": [
        {
          "internalType": "uint256",
          "name": "",
          "type": "uint256"
        }
      ],
      "stateMutability": "view",
      "type": "function"
    },
    {
      "inputs": [],
      "name": "poolAddress",
      "outputs": [
        {
          "internalType": "address",
          "name": "",
          "type": "address"
        }
      ],
      "stateMutability": "view",
      "type": "function"
    },
    {
      "inputs": [],
      "name": "renounceOwnership",
      "outputs": [],
      "stateMutability": "nonpayable",
      "type": "function"
    },
    {
      "inputs": [],
      "name": "revShareRate",
      "outputs": [
        {
          "internalType": "uint256",
          "name": "",
          "type": "uint256"
        }
      ],
      "stateMutability": "view",
      "type": "function"
    },
    {
      "inputs": [],
      "name": "revShareRateMax",
      "outputs": [
        {
          "internalType": "uint256",
          "name": "",
          "type": "uint256"
        }
      ],
      "stateMutability": "view",
      "type": "function"
    },
    {
      "inputs": [],
      "name": "revShareRateUL",
      "outputs": [
        {
          "internalType": "uint256",
          "name": "",
          "type": "uint256"
        }
      ],
      "stateMutability": "view",
      "type": "function"
    },
    {
      "inputs": [],
      "name": "rewardsAddress",
      "outputs": [
        {
          "internalType": "address",
          "name": "",
          "type": "address"
        }
      ],
      "stateMutability": "view",
      "type": "function"
    },
    {
      "inputs": [
        {
          "internalType": "address",
          "name": "_burnAddress",
          "type": "address"
        }
      ],
      "name": "setBurnAddress",
      "outputs": [],
      "stateMutability": "nonpayable",
      "type": "function"
    },
    {
      "inputs": [
        {
          "internalType": "address",
          "name": "_defaultStablecoin",
          "type": "address"
        }
      ],
      "name": "setDefaultStablecoin",
      "outputs": [],
      "stateMutability": "nonpayable",
      "type": "function"
    },
    {
      "inputs": [
        {
          "internalType": "address",
          "name": "_earnedAddress",
          "type": "address"
        }
      ],
      "name": "setEarnedAddress",
      "outputs": [],
      "stateMutability": "nonpayable",
      "type": "function"
    },
    {
      "inputs": [
        {
          "internalType": "address",
          "name": "_farmContractAddress",
          "type": "address"
        }
      ],
      "name": "setFarmContractAddress",
      "outputs": [],
      "stateMutability": "nonpayable",
      "type": "function"
    },
    {
      "inputs": [
        {
          "internalType": "uint256",
          "name": "_entranceFeeFactor",
          "type": "uint256"
        },
        {
          "internalType": "uint256",
          "name": "_withdrawFeeFactor",
          "type": "uint256"
        },
        {
          "internalType": "uint256",
          "name": "_controllerFee",
          "type": "uint256"
        },
        {
          "internalType": "uint256",
          "name": "_buyBackRate",
          "type": "uint256"
        },
        {
          "internalType": "uint256",
          "name": "_revShareRate",
          "type": "uint256"
        }
      ],
      "name": "setFeeSettings",
      "outputs": [],
      "stateMutability": "nonpayable",
      "type": "function"
    },
    {
      "inputs": [
        {
          "internalType": "address",
          "name": "_govAddress",
          "type": "address"
        }
      ],
      "name": "setGov",
      "outputs": [],
      "stateMutability": "nonpayable",
      "type": "function"
    },
    {
      "inputs": [
        {
          "internalType": "bool",
          "name": "_isFarmable",
          "type": "bool"
        }
      ],
      "name": "setIsFarmable",
      "outputs": [],
      "stateMutability": "nonpayable",
      "type": "function"
    },
    {
      "inputs": [
        {
          "internalType": "uint256",
          "name": "_slippageNumerator",
          "type": "uint256"
        }
      ],
      "name": "setMaxMarketMovementAllowed",
      "outputs": [],
      "stateMutability": "nonpayable",
      "type": "function"
    },
    {
      "inputs": [
        {
          "internalType": "bool",
          "name": "_onlyGov",
          "type": "bool"
        }
      ],
      "name": "setOnlyGov",
      "outputs": [],
      "stateMutability": "nonpayable",
      "type": "function"
    },
    {
      "inputs": [
        {
          "internalType": "uint256",
          "name": "_pid",
          "type": "uint256"
        }
      ],
      "name": "setPid",
      "outputs": [],
      "stateMutability": "nonpayable",
      "type": "function"
    },
    {
      "inputs": [
        {
          "internalType": "address",
          "name": "_poolAddress",
          "type": "address"
        }
      ],
      "name": "setPoolAddress",
      "outputs": [],
      "stateMutability": "nonpayable",
      "type": "function"
    },
    {
      "inputs": [
        {
          "internalType": "uint8",
          "name": "_idx",
          "type": "uint8"
        },
        {
          "internalType": "address",
          "name": "_priceFeed",
          "type": "address"
        }
      ],
      "name": "setPriceFeed",
      "outputs": [],
      "stateMutability": "nonpayable",
      "type": "function"
    },
    {
      "inputs": [
        {
          "internalType": "address",
          "name": "_rewardsAddress",
          "type": "address"
        }
      ],
      "name": "setRewardsAddress",
      "outputs": [],
      "stateMutability": "nonpayable",
      "type": "function"
    },
    {
      "inputs": [
        {
          "internalType": "uint8",
          "name": "_idx",
          "type": "uint8"
        },
        {
          "internalType": "address[]",
          "name": "_path",
          "type": "address[]"
        }
      ],
      "name": "setSwapPaths",
      "outputs": [],
      "stateMutability": "nonpayable",
      "type": "function"
    },
    {
      "inputs": [
        {
          "internalType": "address",
          "name": "_token0Address",
          "type": "address"
        }
      ],
      "name": "setToken0Address",
      "outputs": [],
      "stateMutability": "nonpayable",
      "type": "function"
    },
    {
      "inputs": [
        {
          "internalType": "address",
          "name": "_token1Address",
          "type": "address"
        }
      ],
      "name": "setToken1Address",
      "outputs": [],
      "stateMutability": "nonpayable",
      "type": "function"
    },
    {
      "inputs": [
        {
          "internalType": "address",
          "name": "_uniRouterAddress",
          "type": "address"
        }
      ],
      "name": "setUniRouterAddress",
      "outputs": [],
      "stateMutability": "nonpayable",
      "type": "function"
    },
    {
      "inputs": [
        {
          "internalType": "address",
          "name": "_wantAddress",
          "type": "address"
        }
      ],
      "name": "setWantAddress",
      "outputs": [],
      "stateMutability": "nonpayable",
      "type": "function"
    },
    {
      "inputs": [
        {
          "internalType": "address",
          "name": "_ZORROAddress",
          "type": "address"
        }
      ],
      "name": "setZORROAddress",
      "outputs": [],
      "stateMutability": "nonpayable",
      "type": "function"
    },
    {
      "inputs": [
        {
          "internalType": "address",
          "name": "_zorroControllerAddress",
          "type": "address"
        }
      ],
      "name": "setZorroControllerAddress",
      "outputs": [],
      "stateMutability": "nonpayable",
      "type": "function"
    },
    {
      "inputs": [
        {
          "internalType": "address",
          "name": "_poolAddress",
          "type": "address"
        }
      ],
      "name": "setZorroLPPoolAddress",
      "outputs": [],
      "stateMutability": "nonpayable",
      "type": "function"
    },
    {
      "inputs": [
        {
          "internalType": "address",
          "name": "_otherToken",
          "type": "address"
        }
      ],
      "name": "setZorroLPPoolOtherToken",
      "outputs": [],
      "stateMutability": "nonpayable",
      "type": "function"
    },
    {
      "inputs": [
        {
          "internalType": "address",
          "name": "_stakingVault",
          "type": "address"
        }
      ],
      "name": "setZorroStakingVault",
      "outputs": [],
      "stateMutability": "nonpayable",
      "type": "function"
    },
    {
      "inputs": [
        {
          "internalType": "address",
          "name": "_zorroXChainController",
          "type": "address"
        }
      ],
      "name": "setZorroXChainControllerAddress",
      "outputs": [],
      "stateMutability": "nonpayable",
      "type": "function"
    },
    {
      "inputs": [],
      "name": "sharesTotal",
      "outputs": [
        {
          "internalType": "uint256",
          "name": "",
          "type": "uint256"
        }
      ],
      "stateMutability": "view",
      "type": "function"
    },
    {
      "inputs": [],
      "name": "stablecoinPriceFeed",
      "outputs": [
        {
          "internalType": "contract AggregatorV3Interface",
          "name": "",
          "type": "address"
        }
      ],
      "stateMutability": "view",
      "type": "function"
    },
    {
      "inputs": [
        {
          "internalType": "uint256",
          "name": "",
          "type": "uint256"
        }
      ],
      "name": "stablecoinToLPPoolOtherTokenPath",
      "outputs": [
        {
          "internalType": "address",
          "name": "",
          "type": "address"
        }
      ],
      "stateMutability": "view",
      "type": "function"
    },
    {
      "inputs": [
        {
          "internalType": "uint256",
          "name": "",
          "type": "uint256"
        }
      ],
      "name": "stablecoinToToken0Path",
      "outputs": [
        {
          "internalType": "address",
          "name": "",
          "type": "address"
        }
      ],
      "stateMutability": "view",
      "type": "function"
    },
    {
      "inputs": [
        {
          "internalType": "uint256",
          "name": "",
          "type": "uint256"
        }
      ],
      "name": "stablecoinToToken1Path",
      "outputs": [
        {
          "internalType": "address",
          "name": "",
          "type": "address"
        }
      ],
      "stateMutability": "view",
      "type": "function"
    },
    {
      "inputs": [
        {
          "internalType": "uint256",
          "name": "",
          "type": "uint256"
        }
      ],
      "name": "stablecoinToZORROPath",
      "outputs": [
        {
          "internalType": "address",
          "name": "",
          "type": "address"
        }
      ],
      "stateMutability": "view",
      "type": "function"
    },
    {
      "inputs": [],
      "name": "targetBorrowLimit",
      "outputs": [
        {
          "internalType": "uint256",
          "name": "",
          "type": "uint256"
        }
      ],
      "stateMutability": "view",
      "type": "function"
    },
    {
      "inputs": [],
      "name": "targetBorrowLimitHysteresis",
      "outputs": [
        {
          "internalType": "uint256",
          "name": "",
          "type": "uint256"
        }
      ],
      "stateMutability": "view",
      "type": "function"
    },
    {
      "inputs": [],
      "name": "token0Address",
      "outputs": [
        {
          "internalType": "address",
          "name": "",
          "type": "address"
        }
      ],
      "stateMutability": "view",
      "type": "function"
    },
    {
      "inputs": [],
      "name": "token0PriceFeed",
      "outputs": [
        {
          "internalType": "contract AggregatorV3Interface",
          "name": "",
          "type": "address"
        }
      ],
      "stateMutability": "view",
      "type": "function"
    },
    {
      "inputs": [
        {
          "internalType": "uint256",
          "name": "",
          "type": "uint256"
        }
      ],
      "name": "token0ToStablecoinPath",
      "outputs": [
        {
          "internalType": "address",
          "name": "",
          "type": "address"
        }
      ],
      "stateMutability": "view",
      "type": "function"
    },
    {
      "inputs": [],
      "name": "token1Address",
      "outputs": [
        {
          "internalType": "address",
          "name": "",
          "type": "address"
        }
      ],
      "stateMutability": "view",
      "type": "function"
    },
    {
      "inputs": [],
      "name": "token1PriceFeed",
      "outputs": [
        {
          "internalType": "contract AggregatorV3Interface",
          "name": "",
          "type": "address"
        }
      ],
      "stateMutability": "view",
      "type": "function"
    },
    {
      "inputs": [
        {
          "internalType": "uint256",
          "name": "",
          "type": "uint256"
        }
      ],
      "name": "token1ToStablecoinPath",
      "outputs": [
        {
          "internalType": "address",
          "name": "",
          "type": "address"
        }
      ],
      "stateMutability": "view",
      "type": "function"
    },
    {
      "inputs": [
        {
          "internalType": "address",
          "name": "newOwner",
          "type": "address"
        }
      ],
      "name": "transferOwnership",
      "outputs": [],
      "stateMutability": "nonpayable",
      "type": "function"
    },
    {
      "inputs": [],
      "name": "uniRouterAddress",
      "outputs": [
        {
          "internalType": "address",
          "name": "",
          "type": "address"
        }
      ],
      "stateMutability": "view",
      "type": "function"
    },
    {
      "inputs": [],
      "name": "unpause",
      "outputs": [],
      "stateMutability": "nonpayable",
      "type": "function"
    },
    {
      "inputs": [],
      "name": "wantAddress",
      "outputs": [
        {
          "internalType": "address",
          "name": "",
          "type": "address"
        }
      ],
      "stateMutability": "view",
      "type": "function"
    },
    {
      "inputs": [],
      "name": "wantLockedTotal",
      "outputs": [
        {
          "internalType": "uint256",
          "name": "",
          "type": "uint256"
        }
      ],
      "stateMutability": "view",
      "type": "function"
    },
    {
      "inputs": [],
      "name": "withdrawFeeFactor",
      "outputs": [
        {
          "internalType": "uint256",
          "name": "",
          "type": "uint256"
        }
      ],
      "stateMutability": "view",
      "type": "function"
    },
    {
      "inputs": [],
      "name": "withdrawFeeFactorLL",
      "outputs": [
        {
          "internalType": "uint256",
          "name": "",
          "type": "uint256"
        }
      ],
      "stateMutability": "view",
      "type": "function"
    },
    {
      "inputs": [],
      "name": "withdrawFeeFactorMax",
      "outputs": [
        {
          "internalType": "uint256",
          "name": "",
          "type": "uint256"
        }
      ],
      "stateMutability": "view",
      "type": "function"
    },
    {
      "inputs": [],
      "name": "zorroControllerAddress",
      "outputs": [
        {
          "internalType": "address",
          "name": "",
          "type": "address"
        }
      ],
      "stateMutability": "view",
      "type": "function"
    },
    {
      "inputs": [],
      "name": "zorroLPPool",
      "outputs": [
        {
          "internalType": "address",
          "name": "",
          "type": "address"
        }
      ],
      "stateMutability": "view",
      "type": "function"
    },
    {
      "inputs": [],
      "name": "zorroLPPoolOtherToken",
      "outputs": [
        {
          "internalType": "address",
          "name": "",
          "type": "address"
        }
      ],
      "stateMutability": "view",
      "type": "function"
    },
    {
      "inputs": [],
      "name": "zorroStakingVault",
      "outputs": [
        {
          "internalType": "address",
          "name": "",
          "type": "address"
        }
      ],
      "stateMutability": "view",
      "type": "function"
    },
    {
      "inputs": [],
      "name": "zorroXChainController",
      "outputs": [
        {
          "internalType": "address",
          "name": "",
          "type": "address"
        }
      ],
      "stateMutability": "view",
      "type": "function"
    },
    {
      "inputs": [
        {
          "internalType": "address",
          "name": "_timelockOwner",
          "type": "address"
        },
        {
          "components": [
            {
              "internalType": "uint256",
              "name": "pid",
              "type": "uint256"
            },
            {
              "internalType": "bool",
              "name": "isHomeChain",
              "type": "bool"
            },
            {
              "components": [
                {
                  "internalType": "address",
                  "name": "govAddress",
                  "type": "address"
                },
                {
                  "internalType": "address",
                  "name": "zorroControllerAddress",
                  "type": "address"
                },
                {
                  "internalType": "address",
                  "name": "zorroXChainController",
                  "type": "address"
                },
                {
                  "internalType": "address",
                  "name": "ZORROAddress",
                  "type": "address"
                },
                {
                  "internalType": "address",
                  "name": "zorroStakingVault",
                  "type": "address"
                },
                {
                  "internalType": "address",
                  "name": "wantAddress",
                  "type": "address"
                },
                {
                  "internalType": "address",
                  "name": "token0Address",
                  "type": "address"
                },
                {
                  "internalType": "address",
                  "name": "token1Address",
                  "type": "address"
                },
                {
                  "internalType": "address",
                  "name": "earnedAddress",
                  "type": "address"
                },
                {
                  "internalType": "address",
                  "name": "farmContractAddress",
                  "type": "address"
                },
                {
                  "internalType": "address",
                  "name": "rewardsAddress",
                  "type": "address"
                },
                {
                  "internalType": "address",
                  "name": "poolAddress",
                  "type": "address"
                },
                {
                  "internalType": "address",
                  "name": "uniRouterAddress",
                  "type": "address"
                },
                {
                  "internalType": "address",
                  "name": "zorroLPPool",
                  "type": "address"
                },
                {
                  "internalType": "address",
                  "name": "zorroLPPoolOtherToken",
                  "type": "address"
                },
                {
                  "internalType": "address",
                  "name": "defaultStablecoin",
                  "type": "address"
                }
              ],
              "internalType": "struct VaultLibrary.VaultAddresses",
              "name": "keyAddresses",
              "type": "tuple"
            },
            {
              "internalType": "uint256",
              "name": "targetBorrowLimit",
              "type": "uint256"
            },
            {
              "internalType": "uint256",
              "name": "targetBorrowLimitHysteresis",
              "type": "uint256"
            },
            {
              "internalType": "address[]",
              "name": "earnedToZORROPath",
              "type": "address[]"
            },
            {
              "internalType": "address[]",
              "name": "earnedToToken0Path",
              "type": "address[]"
            },
            {
              "internalType": "address[]",
              "name": "stablecoinToToken0Path",
              "type": "address[]"
            },
            {
              "internalType": "address[]",
              "name": "earnedToZORLPPoolOtherTokenPath",
              "type": "address[]"
            },
            {
              "internalType": "address[]",
              "name": "earnedToStablecoinPath",
              "type": "address[]"
            },
            {
              "internalType": "address[]",
              "name": "stablecoinToZORROPath",
              "type": "address[]"
            },
            {
              "internalType": "address[]",
              "name": "stablecoinToLPPoolOtherTokenPath",
              "type": "address[]"
            },
            {
              "components": [
                {
                  "internalType": "uint256",
                  "name": "controllerFee",
                  "type": "uint256"
                },
                {
                  "internalType": "uint256",
                  "name": "buyBackRate",
                  "type": "uint256"
                },
                {
                  "internalType": "uint256",
                  "name": "revShareRate",
                  "type": "uint256"
                },
                {
                  "internalType": "uint256",
                  "name": "entranceFeeFactor",
                  "type": "uint256"
                },
                {
                  "internalType": "uint256",
                  "name": "withdrawFeeFactor",
                  "type": "uint256"
                }
              ],
              "internalType": "struct VaultLibrary.VaultFees",
              "name": "fees",
              "type": "tuple"
            },
            {
              "components": [
                {
                  "internalType": "address",
                  "name": "token0PriceFeed",
                  "type": "address"
                },
                {
                  "internalType": "address",
                  "name": "token1PriceFeed",
                  "type": "address"
                },
                {
                  "internalType": "address",
                  "name": "earnTokenPriceFeed",
                  "type": "address"
                },
                {
                  "internalType": "address",
                  "name": "ZORPriceFeed",
                  "type": "address"
                },
                {
                  "internalType": "address",
                  "name": "lpPoolOtherTokenPriceFeed",
                  "type": "address"
                },
                {
                  "internalType": "address",
                  "name": "stablecoinPriceFeed",
                  "type": "address"
                }
              ],
              "internalType": "struct VaultLibrary.VaultPriceFeeds",
              "name": "priceFeeds",
              "type": "tuple"
            },
            {
              "internalType": "address",
              "name": "comptrollerAddress",
              "type": "address"
            }
          ],
          "internalType": "struct VaultApeLending.VaultApeLendingInit",
          "name": "_initValue",
          "type": "tuple"
        }
      ],
      "name": "initialize",
      "outputs": [],
      "stateMutability": "nonpayable",
      "type": "function"
    },
    {
      "inputs": [
        {
          "internalType": "address",
          "name": "_timelockOwner",
          "type": "address"
        }
      ],
      "name": "initialize",
      "outputs": [],
      "stateMutability": "nonpayable",
      "type": "function"
    },
    {
      "inputs": [
        {
          "internalType": "uint8",
          "name": "_idx",
          "type": "uint8"
        },
        {
          "internalType": "address[]",
          "name": "_path",
          "type": "address[]"
        }
      ],
      "name": "setStablecoinSwapPaths",
      "outputs": [],
      "stateMutability": "nonpayable",
      "type": "function"
    },
    {
      "inputs": [
        {
          "internalType": "uint256",
          "name": "_tbl",
          "type": "uint256"
        }
      ],
      "name": "setTargetBorrowLimit",
      "outputs": [],
      "stateMutability": "nonpayable",
      "type": "function"
    },
    {
      "inputs": [
        {
          "internalType": "uint256",
          "name": "_tblh",
          "type": "uint256"
        }
      ],
      "name": "setTargetBorrowLimitHysteresis",
      "outputs": [],
      "stateMutability": "nonpayable",
      "type": "function"
    },
    {
      "inputs": [
        {
          "internalType": "address",
          "name": "_comptroller",
          "type": "address"
        }
      ],
      "name": "setComptrollerAddress",
      "outputs": [],
      "stateMutability": "nonpayable",
      "type": "function"
    },
    {
      "inputs": [
        {
          "internalType": "uint256",
          "name": "_wantAmt",
          "type": "uint256"
        }
      ],
      "name": "depositWantToken",
      "outputs": [
        {
          "internalType": "uint256",
          "name": "sharesAdded",
          "type": "uint256"
        }
      ],
      "stateMutability": "nonpayable",
      "type": "function"
    },
    {
      "inputs": [
        {
          "internalType": "uint256",
          "name": "_amountUSD",
          "type": "uint256"
        },
        {
          "internalType": "uint256",
          "name": "_maxMarketMovementAllowed",
          "type": "uint256"
        }
      ],
      "name": "exchangeUSDForWantToken",
      "outputs": [
        {
          "internalType": "uint256",
          "name": "",
          "type": "uint256"
        }
      ],
      "stateMutability": "nonpayable",
      "type": "function"
    },
    {
      "inputs": [
        {
          "internalType": "uint256",
          "name": "_wantAmt",
          "type": "uint256"
        }
      ],
      "name": "withdrawWantToken",
      "outputs": [
        {
          "internalType": "uint256",
          "name": "sharesRemoved",
          "type": "uint256"
        }
      ],
      "stateMutability": "nonpayable",
      "type": "function"
    },
    {
      "inputs": [
        {
          "internalType": "uint256",
          "name": "_amount",
          "type": "uint256"
        },
        {
          "internalType": "uint256",
          "name": "_maxMarketMovementAllowed",
          "type": "uint256"
        }
      ],
      "name": "exchangeWantTokenForUSD",
      "outputs": [
        {
          "internalType": "uint256",
          "name": "",
          "type": "uint256"
        }
      ],
      "stateMutability": "nonpayable",
      "type": "function"
    },
    {
      "inputs": [
        {
          "internalType": "uint256",
          "name": "_maxMarketMovementAllowed",
          "type": "uint256"
        }
      ],
      "name": "earn",
      "outputs": [],
      "stateMutability": "nonpayable",
      "type": "function"
    },
    {
      "inputs": [],
      "name": "farm",
      "outputs": [],
      "stateMutability": "nonpayable",
      "type": "function"
    },
    {
      "inputs": [],
      "name": "collateralFactor",
      "outputs": [
        {
          "internalType": "uint256",
          "name": "collFactor",
          "type": "uint256"
        }
      ],
      "stateMutability": "view",
      "type": "function"
    }
  ],
  "bytecode": "0x608060405234801561001057600080fd5b5061649d80620000216000396000f3fe608060405234801561001057600080fd5b506004361061060c5760003560e060020a9004806381aa8d311161031f578063c0973eed116101ac578063e7198474116100f8578063f05c09b3116100b1578063f2fde38b1161008b578063f2fde38b14610c6a578063f5046a2914610c7d578063fbf5683f14610c90578063ff29b39514610ca357600080fd5b8063f05c09b314610c41578063f106845414610c4e578063f25342bf14610c5757600080fd5b8063e719847414610be8578063e7a0367914610bfb578063e9e15b4f14610c0e578063ebfba7c414610c21578063edf5e58514610c34578063ee50dc341461074257600080fd5b8063cbb2cd1a11610165578063de8419911161013f578063de84199114610ba7578063df011c4114610bba578063e502a88d14610bc2578063e65a011714610bd557600080fd5b8063cbb2cd1a14610b6e578063cfad57a214610b81578063d7cb416f14610b9457600080fd5b8063c0973eed14610b0f578063c302a4d01461099f578063c4d66de814610b22578063c524a05614610b35578063c8479cd614610b48578063c8e3d18b14610b5b57600080fd5b8063a04953911161026b578063ae53e58a11610224578063b46d27d5116101fe578063b46d27d514610ac3578063b61bb80a14610ad6578063b73cba2a14610ae9578063bf3a7d4014610afc57600080fd5b8063ae53e58a14610a9d578063b1414dbb14610ab0578063b3545c011461062657600080fd5b8063a049539114610a2b578063a0985ba114610a3e578063a4d2b08314610a51578063aabf190b14610a64578063aada5bf614610a77578063ab196def14610a8a57600080fd5b80638906758d116102d8578063939c5fb1116102b2578063939c5fb1146109df578063959334f4146109f257806396e9aff814610a055780639fc33a9f14610a1857600080fd5b80638906758d146109a85780638da5cb5b146109bb5780639339fd3c146109cc57600080fd5b806381aa8d3114610955578063833eeab91461096857806383f019391461097b5780638456cb591461098e57806385f02dd614610996578063866b20181461099f57600080fd5b80634b0e72161161049d578063648794a4116103e95780636ca8bd65116103a2578063715018a61161037c578063715018a6146109145780637153ef861461091c5780637bf604d81461092f5780637ff36fbe1461094257600080fd5b80636ca8bd65146108db5780636f96f6fa146108ee57806370d5ae051461090157600080fd5b8063648794a41461088657806367057b6c1461074257806367206d401461089957806368bde41f146108ac57806368f54162146108bf578063693a090b146108c857600080fd5b8063583bda3b116104565780635fc77d43116104305780635fc77d431461083a5780636183e8041461084d57806361b5bf9f146108605780636392ab121461087357600080fd5b8063583bda3b146108095780635c975abb1461081c5780635da79d631461082757600080fd5b80634b0e7216146107aa5780634bf71bb8146107bd5780634c5b09da146107d05780634d9f7bb21461074257806355ebedec146107e3578063567e07c9146107f657600080fd5b80631e85b3ad1161055c578063333f98fd1161051557806342da4eb3116104ef57806342da4eb31461078057806343788cd21461074257806344a3955e1461078957806346008a071461079257600080fd5b8063333f98fd1461076757806336e9332d146107705780633f4ba83a1461077857600080fd5b80631e85b3ad1461071c578063211019d7146106265780632209b59e1461072f5780632717eff314610742578063320d47cc1461074b5780633214471f1461075e57600080fd5b80630daef321116105c95780631755ff21116105a35780631755ff21146106da578063178a8d07146106ed5780631b0d8aab146106f65780631e2bc6721461070957600080fd5b80630daef321146106925780630fa4e01e146106c85780631334903f146106d157600080fd5b806305828d3e14610611578063061c7d48146106265780630761a172146106425780630b6bb30b1461064b5780630bb953e51461065e5780630bbd6cd614610667575b600080fd5b61062461061f3660046153ef565b610cb6565b005b61062f6103e881565b6040519081526020015b60405180910390f35b61062f60f35481565b610624610659366004615425565b610d0e565b61062f60f75481565b61067a610675366004615442565b610dbc565b604051600160a060020a039091168152602001610639565b60cb546106b8907501000000000000000000000000000000000000000000900460ff1681565b6040519015158152602001610639565b61062f60e15481565b61062f60df5481565b60d85461067a90600160a060020a031681565b61062f60dd5481565b610624610704366004615442565b610de6565b61067a610717366004615442565b610e18565b61067a61072a366004615442565b610e28565b61062f61073d366004615442565b610e38565b61062f61271081565b610624610759366004615442565b610faa565b61062f60de5481565b61062f60f65481565b610624610fdc565b610624611016565b61062f60e25481565b61062f60e35481565b60cb5461067a906101009004600160a060020a031681565b6106246107b83660046153ef565b611052565b61067a6107cb366004615442565b6110a1565b6106246107de3660046153ef565b6110b1565b61062f6107f1366004615442565b611100565b6106246108043660046153ef565b611393565b6106246108173660046153ef565b6113e2565b60975460ff166106b8565b6106246108353660046153ef565b611431565b60cd5461067a90600160a060020a031681565b61062461085b3660046153ef565b611480565b61062461086e3660046153ef565b6114cf565b61067a610881366004615442565b61151e565b61062f61089436600461545b565b61152e565b6106246108a736600461547d565b6116cc565b60f85461067a90600160a060020a031681565b61062f60e05481565b60d95461067a90600160a060020a031681565b6106246108e93660046153ef565b6117d9565b60ef5461067a90600160a060020a031681565b60d65461067a90600160a060020a031681565b610624611828565b61062461092a3660046154bf565b61185f565b60da5461067a90600160a060020a031681565b60d15461067a90600160a060020a031681565b61067a610963366004615442565b611b53565b61067a610976366004615442565b611b63565b610624610989366004615425565b611b73565b610624611bb3565b61062f60dc5481565b61062f61232881565b6106246109b63660046153ef565b611bed565b603354600160a060020a031661067a565b6106246109da366004615509565b611c3c565b6106246109ed366004615442565b611cfe565b610624610a003660046153ef565b611d30565b61067a610a13366004615442565b611d7f565b60d45461067a90600160a060020a031681565b61067a610a39366004615442565b611d8f565b610624610a4c3660046153ef565b611d9f565b60cf5461067a90600160a060020a031681565b60f05461067a90600160a060020a031681565b60f25461067a90600160a060020a031681565b60f15461067a90600160a060020a031681565b60ee5461067a90600160a060020a031681565b60cc5461067a90600160a060020a031681565b610624610ad1366004615911565b611dee565b60d55461067a90600160a060020a031681565b610624610af73660046153ef565b61225a565b610624610b0a3660046153ef565b6122a9565b60d75461067a90600160a060020a031681565b610624610b303660046153ef565b6122f8565b610624610b433660046153ef565b612393565b610624610b563660046153ef565b6123e2565b61067a610b69366004615442565b612431565b610624610b7c366004615442565b612441565b610624610b8f3660046153ef565b612473565b60d25461067a90600160a060020a031681565b610624610bb5366004615af5565b612508565b61062f61268a565b61062f610bd036600461545b565b612723565b610624610be3366004615442565b612882565b60d35461067a90600160a060020a031681565b60d05461067a90600160a060020a031681565b610624610c1c3660046153ef565b612ef5565b60db5461067a90600160a060020a031681565b60c9546106b89060ff1681565b60cb546106b89060ff1681565b61062f60ca5481565b60ed5461067a90600160a060020a031681565b610624610c783660046153ef565b612f44565b60ce5461067a90600160a060020a031681565b61067a610c9e366004615442565b612ffc565b610624610cb1366004615509565b61300c565b603354600160a060020a03163314610cec5760405160e560020a62461bcd028152600401610ce390615b2e565b60405180910390fd5b60d28054600160a060020a031916600160a060020a0392909216919091179055565b60cb546101009004600160a060020a03163314610d405760405160e560020a62461bcd028152600401610ce390615b63565b60cb805482151575010000000000000000000000000000000000000000000275ff000000000000000000000000000000000000000000199091161790556040517f125177ac7b8930dac1e59c2b30b1b6b9191b30af40cf6bbb5d20fec4d44be60f90610db190831515815260200190565b60405180910390a150565b60e68181548110610dcc57600080fd5b600091825260209091200154600160a060020a0316905081565b603354600160a060020a03163314610e135760405160e560020a62461bcd028152600401610ce390615b2e565b60ca55565b60f58181548110610dcc57600080fd5b60e58181548110610dcc57600080fd5b60cc54600090600160a060020a031633600160a060020a031614610e715760405160e560020a62461bcd028152600401610ce390615b9a565b60026065541415610e975760405160e560020a62461bcd028152600401610ce390615bd1565b600260655560975460ff1615610ec25760405160e560020a62461bcd028152600401610ce390615c08565b60008211610f155760405160e560020a62461bcd02815260206004820152601e60248201527f57616e7420746f6b656e206465706f736974206d757374206265203e203000006044820152606401610ce3565b60d054610f2d90600160a060020a031633308561310d565b50806000610f396131be565b118015610f485750600060e354115b15610f8857610f85612710610f7f610f5e6131be565b610f7f60df54610f7960e3548961336490919063ffffffff16565b90613364565b90613370565b90505b60e354610f95908261337c565b60e355610fa0613388565b6001606555919050565b603354600160a060020a03163314610fd75760405160e560020a62461bcd028152600401610ce390615b2e565b60f355565b600260655414156110025760405160e560020a62461bcd028152600401610ce390615bd1565b600260655561100f613388565b6001606555565b60cb546101009004600160a060020a031633146110485760405160e560020a62461bcd028152600401610ce390615b63565b61105061339a565b565b603354600160a060020a0316331461107f5760405160e560020a62461bcd028152600401610ce390615b2e565b60d68054600160a060020a031916600160a060020a0392909216919091179055565b60ec8181548110610dcc57600080fd5b603354600160a060020a031633146110de5760405160e560020a62461bcd028152600401610ce390615b2e565b60d48054600160a060020a031916600160a060020a0392909216919091179055565b60cc54600090600160a060020a031633600160a060020a0316146111395760405160e560020a62461bcd028152600401610ce390615b9a565b6002606554141561115f5760405160e560020a62461bcd028152600401610ce390615bd1565b600260655560975460ff161561118a5760405160e560020a62461bcd028152600401610ce390615c08565b600082116111dd5760405160e560020a62461bcd02815260206004820152600760248201527f6e656757616e74000000000000000000000000000000000000000000000000006044820152606401610ce3565b6111f66111e86131be565b60e354610f7f908590613364565b905060e354811115611207575060e3545b60e3546112149082613439565b60e35560d05460405160e060020a6370a08231028152306004820152600091600160a060020a0316906370a0823190602401602060405180830381865afa158015611263573d6000803e3d6000fd5b505050506040513d601f19601f820116820180604052508101906112879190615c3f565b9050808311156112b2576112a361129e8483613439565b613445565b92506112af838261337c565b92505b60d05460405160e060020a6370a08231028152306004820152600160a060020a03909116906370a0823190602401602060405180830381865afa1580156112fd573d6000803e3d6000fd5b505050506040513d601f19601f820116820180604052508101906113219190615c3f565b90508083111561132f578092505b61271060e054101561135957611356612710610f7f60e0548661336490919063ffffffff16565b92505b60cc5460d05461137691600160a060020a039182169116856135c5565b61137e61360e565b611388600061374c565b506001606555919050565b603354600160a060020a031633146113c05760405160e560020a62461bcd028152600401610ce390615b2e565b60cd8054600160a060020a031916600160a060020a0392909216919091179055565b603354600160a060020a0316331461140f5760405160e560020a62461bcd028152600401610ce390615b2e565b60ce8054600160a060020a031916600160a060020a0392909216919091179055565b603354600160a060020a0316331461145e5760405160e560020a62461bcd028152600401610ce390615b2e565b60d98054600160a060020a031916600160a060020a0392909216919091179055565b603354600160a060020a031633146114ad5760405160e560020a62461bcd028152600401610ce390615b2e565b60d08054600160a060020a031916600160a060020a0392909216919091179055565b603354600160a060020a031633146114fc5760405160e560020a62461bcd028152600401610ce390615b2e565b60da8054600160a060020a031916600160a060020a0392909216919091179055565b60ea8181548110610dcc57600080fd5b60cc54600090600160a060020a031633600160a060020a0316146115675760405160e560020a62461bcd028152600401610ce390615b9a565b60975460ff161561158d5760405160e560020a62461bcd028152600401610ce390615c08565b6040805160e08101825260d154600160a060020a03908116825260d554811660208084019190915260d85482168385015260ed548216606084015260f254909116608083015260e6805484518184028101840190955280855273__VaultLibraryApeLending________________94636ac41179948994909360a0850193909183018282801561164657602002820191906000526020600020905b8154600160a060020a03168152600190910190602001808311611628575b505050918352505060d954600160a060020a031660209091015260405160e060020a63ffffffff85160281526116829291908790600401615c9c565b602060405180830381865af415801561169f573d6000803e3d6000fd5b505050506040513d601f19601f820116820180604052508101906116c39190615c3f565b90505b92915050565b60cb546101009004600160a060020a031633146116fe5760405160e560020a62461bcd028152600401610ce390615b63565b60d354600160a060020a038481169116141561175f5760405160e560020a62461bcd02815260206004820152600560248201527f21736166650000000000000000000000000000000000000000000000000000006044820152606401610ce3565b60d054600160a060020a03848116911614156117c05760405160e560020a62461bcd02815260206004820152600560248201527f21736166650000000000000000000000000000000000000000000000000000006044820152606401610ce3565b6117d4600160a060020a03841682846135c5565b505050565b603354600160a060020a031633146118065760405160e560020a62461bcd028152600401610ce390615b2e565b60cf8054600160a060020a031916600160a060020a0392909216919091179055565b603354600160a060020a031633146118555760405160e560020a62461bcd028152600401610ce390615b2e565b6110506000613d89565b60cb546101009004600160a060020a031633146118915760405160e560020a62461bcd028152600401610ce390615b63565b6123288510156118e65760405160e560020a62461bcd02815260206004820152601a60248201527f5f656e7472616e6365466565466163746f7220746f6f206c6f770000000000006044820152606401610ce3565b61271085111561193b5760405160e560020a62461bcd02815260206004820152601b60248201527f5f656e7472616e6365466565466163746f7220746f6f206869676800000000006044820152606401610ce3565b60df8590556123288410156119955760405160e560020a62461bcd02815260206004820152601a60248201527f5f7769746864726177466565466163746f7220746f6f206c6f770000000000006044820152606401610ce3565b6127108411156119ea5760405160e560020a62461bcd02815260206004820152601b60248201527f5f7769746864726177466565466163746f7220746f6f206869676800000000006044820152606401610ce3565b60e08490556103e8831115611a445760405160e560020a62461bcd02815260206004820152601760248201527f5f636f6e74726f6c6c657246656520746f6f20686967680000000000000000006044820152606401610ce3565b60dc8390556103e8821115611a9e5760405160e560020a62461bcd02815260206004820152601560248201527f5f6275794261636b5261746520746f6f206869676800000000000000000000006044820152606401610ce3565b60dd8290556103e8811115611af85760405160e560020a62461bcd02815260206004820152601660248201527f5f72657653686172655261746520746f6f2068696768000000000000000000006044820152606401610ce3565b60de819055604080518681526020810186905290810184905260608101839052608081018290527fc67e0b149a57a70fa44a531a46c2c6d8e0b242fa12f459f250012c3a5987d29a9060a00160405180910390a15050505050565b60f48181548110610dcc57600080fd5b60e48181548110610dcc57600080fd5b603354600160a060020a03163314611ba05760405160e560020a62461bcd028152600401610ce390615b2e565b60cb805460ff1916911515919091179055565b60cb546101009004600160a060020a03163314611be55760405160e560020a62461bcd028152600401610ce390615b63565b611050613ddb565b603354600160a060020a03163314611c1a5760405160e560020a62461bcd028152600401610ce390615b2e565b60d78054600160a060020a031916600160a060020a0392909216919091179055565b603354600160a060020a03163314611c695760405160e560020a62461bcd028152600401610ce390615b2e565b60ff8316611c8357611c7d60e48383615302565b50505050565b8260ff1660011415611c9b57611c7d60f48383615302565b8260ff1660021415611cb357611c7d60f58383615302565b60405160e560020a62461bcd02815260206004820152601960248201527f756e737570706f727465642069647820737761702070617468000000000000006044820152606401610ce3565b603354600160a060020a03163314611d2b5760405160e560020a62461bcd028152600401610ce390615b2e565b60f755565b603354600160a060020a03163314611d5d5760405160e560020a62461bcd028152600401610ce390615b2e565b60db8054600160a060020a031916600160a060020a0392909216919091179055565b60e98181548110610dcc57600080fd5b60e78181548110610dcc57600080fd5b603354600160a060020a03163314611dcc5760405160e560020a62461bcd028152600401610ce390615b2e565b60f88054600160a060020a031916600160a060020a0392909216919091179055565b600054610100900460ff16611e095760005460ff1615611e0d565b303b155b611e2c5760405160e560020a62461bcd028152600401610ce390615d4c565b600054610100900460ff16158015611e4e576000805461ffff19166101011790555b815160ca5560208083015160c9805460ff191691151591909117905560608084015160f65560808085015160f755604080860151805160cb8054750100000000000000000000000000000000000000000075ffffffffffffffffffffffffffffffffffffffffff0019909116610100600160a060020a03948516810275ff000000000000000000000000000000000000000000191691909117919091179091558287015160cc8054600160a060020a03199081169285169290921790558385015160cd805483169185169190911790558387015160ce805483169185169190911790558386015160cf8054831691851691909117905560a08085015160d08054841691861691909117905560c085015160d1805484169186169190911790559184015160d38054831691851691909117905561012084015160d48054831691851691909117905561014084015160d78054831691851691909117905561016084015160d8805483169185169190911790556101808085015160d9805484169186169190911790556101a085015160da805484169186169190911790556101c08086015160db805485169187169190911790556101e09095015160d580548416918616919091179055938a015160f8805490921693169290921790915590870151805160dc558086015160dd559182015160de559281015160df55015160e05583015180516120609260ea920190615365565b5060c0820151805161207a9160e891602090910190615365565b5060e082015180516120949160e491602090910190615365565b5061010082015180516120af9160eb91602090910190615365565b5061012082015180516120ca9160ec91602090910190615365565b5060e082015180516120e49160e491602090910190615365565b5061014082015180516120ff9160f491602090910190615365565b50610160820151805161211a9160f591602090910190615365565b506040517f8b4c5aee00000000000000000000000000000000000000000000000000000000815273__VaultLibrary__________________________90638b4c5aee9061216c9060e490600401615da9565b600060405180830381865af4158015612189573d6000803e3d6000fd5b505050506040513d6000823e601f3d908101601f191682016040526121b19190810190615df9565b80516121c59160e691602090910190615365565b506101a0820151805160ed8054600160a060020a0319908116600160a060020a0393841617909155604083015160ef80548316918416919091179055608083015160f080548316918416919091179055606083015160f18054831691841691909117905560a09092015160f280549093169116179055612244836122f8565b80156117d4576000805461ff0019169055505050565b603354600160a060020a031633146122875760405160e560020a62461bcd028152600401610ce390615b2e565b60d38054600160a060020a031916600160a060020a0392909216919091179055565b603354600160a060020a031633146122d65760405160e560020a62461bcd028152600401610ce390615b2e565b60cc8054600160a060020a031916600160a060020a0392909216919091179055565b600054610100900460ff166123135760005460ff1615612317565b303b155b6123365760405160e560020a62461bcd028152600401610ce390615d4c565b600054610100900460ff16158015612358576000805461ffff19166101011790555b612360613e36565b61236982612f44565b60d68054600160a060020a03191661dead179055801561238f576000805461ff00191690555b5050565b603354600160a060020a031633146123c05760405160e560020a62461bcd028152600401610ce390615b2e565b60d58054600160a060020a031916600160a060020a0392909216919091179055565b603354600160a060020a0316331461240f5760405160e560020a62461bcd028152600401610ce390615b2e565b60d18054600160a060020a031916600160a060020a0392909216919091179055565b60e88181548110610dcc57600080fd5b603354600160a060020a0316331461246e5760405160e560020a62461bcd028152600401610ce390615b2e565b60f655565b60cb546101009004600160a060020a031633146124a55760405160e560020a62461bcd028152600401610ce390615b63565b60cb805474ffffffffffffffffffffffffffffffffffffffff001916610100600160a060020a038416908102919091179091556040519081527f91a8c1cc2d4a3bb60738481947a00cbb9899c822916694cf8bb1d68172fdcd5490602001610db1565b603354600160a060020a031633146125355760405160e560020a62461bcd028152600401610ce390615b2e565b60ff821661255e5760ed8054600160a060020a038316600160a060020a03199091161790555050565b8160ff166001141561258b5760ee8054600160a060020a038316600160a060020a03199091161790555050565b8160ff16600214156125b85760ef8054600160a060020a038316600160a060020a03199091161790555050565b8160ff16600314156125e55760f18054600160a060020a038316600160a060020a03199091161790555050565b8160ff16600414156126125760f08054600160a060020a038316600160a060020a03199091161790555050565b8160ff166005141561263f5760f28054600160a060020a038316600160a060020a03199091161790555050565b60405160e560020a62461bcd02815260206004820152601460248201527f756e737570706f727465642066656564206964780000000000000000000000006044820152606401610ce3565b60f85460d8546040517f8e8f294b000000000000000000000000000000000000000000000000000000008152600160a060020a03918216600482015260009283921690638e8f294b9060240160c060405180830381865afa1580156126f3573d6000803e3d6000fd5b505050506040513d601f19601f820116820180604052508101906127179190615e85565b50929695505050505050565b60cc54600090600160a060020a031633600160a060020a03161461275c5760405160e560020a62461bcd028152600401610ce390615b9a565b60975460ff16156127825760405160e560020a62461bcd028152600401610ce390615c08565b604080516101008101825260d154600160a060020a03908116825260d554811660208084019190915260ce5482168385015260ed548216606084015260f2548216608084015260d95490911660a083015260e4805484518184028101840190955280855273__VaultLibraryApeLending________________946360966156948994909360c0850193909183018282801561284657602002820191906000526020600020905b8154600160a060020a03168152600190910190602001808311612828575b505050918352505060d854600160a060020a031660209091015260405160e060020a63ffffffff85160281526116829291908790600401615ed8565b600260655414156128a85760405160e560020a62461bcd028152600401610ce390615bd1565b600260655560975460ff16156128d35760405160e560020a62461bcd028152600401610ce390615c08565b60cb547501000000000000000000000000000000000000000000900460ff16156129295760cb546101009004600160a060020a031633146129295760405160e560020a62461bcd028152600401610ce390615b63565b60d4546040517fe9af0292000000000000000000000000000000000000000000000000000000008152306004820152600160a060020a039091169063e9af029290602401600060405180830381600087803b15801561298757600080fd5b505af115801561299b573d6000803e3d6000fd5b505060d35460405160e060020a6370a0823102815230600482015260009350600160a060020a0390911691506370a0823190602401602060405180830381865afa1580156129ed573d6000803e3d6000fd5b505050506040513d601f19601f82011682018060405250810190612a119190615c3f565b905060008111612a665760405160e560020a62461bcd02815260206004820152600560248201527f306561726e0000000000000000000000000000000000000000000000000000006044820152606401610ce3565b60ed54600090612a7e90600160a060020a0316613e68565b604080516080810190915260ef549192506000918190612aa690600160a060020a0316613e68565b815260f154602090910190612ac390600160a060020a0316613e68565b815260f054602090910190612ae090600160a060020a0316613e68565b815260f254602090910190612afd90600160a060020a0316613e68565b905290506000612b0c84613fb8565b9050600080612b1c868886614008565b90925090506000612b3982612b3385818b89613439565b90613439565b6040805160028082526060820183529293506000929091602083019080368337505060d3546040805160e060020a63313ce5670281529051939450600160a060020a039091169263313ce567925060048083019260209291908290030181865afa158015612bab573d6000803e3d6000fd5b505050506040513d601f19601f82011682018060405250810190612bcf9190615f9d565b81600081518110612be257612be2615fba565b60ff90921660209283029190910182015260d5546040805160e060020a63313ce5670281529051600160a060020a039092169263313ce567926004808401938290030181865afa158015612c3a573d6000803e3d6000fd5b505050506040513d601f19601f82011682018060405250810190612c5e9190615f9d565b81600181518110612c7157612c71615fba565b60ff92909216602092830291909101820152604080516002808252606082018352600093919290918301908036833701905050905081600181518110612cb957612cb9615fba565b602002602001015181600081518110612cd457612cd4615fba565b60ff90921660209283029190910182015260d1546040805160e060020a63313ce5670281529051600160a060020a039092169263313ce567926004808401938290030181865afa158015612d2c573d6000803e3d6000fd5b505050506040513d601f19601f82011682018060405250810190612d509190615f9d565b81600181518110612d6357612d63615fba565b60ff9092166020928302919091019091015260d35460d154600160a060020a03908116911614612e3d57604080516101008101825284815288516020808301919091528183018b905260d354600160a060020a03908116606084015260d15416608083015260a082018d905260e88054845181840281018401909552808552612e3d9460c085019390929190830182828015612e2857602002820191906000526020600020905b8154600160a060020a03168152600190910190602001808311612e0a575b50505091835250503060209091015282614139565b60d15460405160e060020a6370a08231028152306004820152600091600160a060020a0316906370a0823190602401602060405180830381865afa158015612e89573d6000803e3d6000fd5b505050506040513d601f19601f82011682018060405250810190612ead9190615c3f565b60d85460d154919250612ecd91600160a060020a039081169116836141cc565b612ed561360e565b612edf600061374c565b50504360e1555050600160655550505050505050565b603354600160a060020a03163314612f225760405160e560020a62461bcd028152600401610ce390615b2e565b60d88054600160a060020a031916600160a060020a0392909216919091179055565b603354600160a060020a03163314612f715760405160e560020a62461bcd028152600401610ce390615b2e565b600160a060020a038116612ff05760405160e560020a62461bcd02815260206004820152602660248201527f4f776e61626c653a206e6577206f776e657220697320746865207a65726f206160448201527f64647265737300000000000000000000000000000000000000000000000000006064820152608401610ce3565b612ff981613d89565b50565b60eb8181548110610dcc57600080fd5b603354600160a060020a031633146130395760405160e560020a62461bcd028152600401610ce390615b2e565b60ff831661304d57611c7d60e48383615302565b8260ff166001141561306557611c7d60e58383615302565b8260ff166002141561307d57611c7d60e68383615302565b8260ff166003141561309557611c7d60e78383615302565b8260ff16600414156130ad57611c7d60e88383615302565b8260ff16600514156130c557611c7d60e98383615302565b8260ff16600614156130dd57611c7d60ea8383615302565b8260ff16600714156130f557611c7d60eb8383615302565b8260ff166008141561263f57611c7d60ec8383615302565b604051600160a060020a0380851660248301528316604482015260648101829052611c7d9085907f23b872dd00000000000000000000000000000000000000000000000000000000906084015b60408051601f198184030181529190526020810180517bffffffffffffffffffffffffffffffffffffffffffffffffffffffff167fffffffff00000000000000000000000000000000000000000000000000000000909316929092179091526142b0565b60d05460405160e060020a6370a082310281523060048201526000918291600160a060020a03909116906370a0823190602401602060405180830381865afa15801561320e573d6000803e3d6000fd5b505050506040513d601f19601f820116820180604052508101906132329190615c3f565b60d8546040517f3af9e669000000000000000000000000000000000000000000000000000000008152306004820152919250600091600160a060020a0390911690633af9e669906024016020604051808303816000875af115801561329b573d6000803e3d6000fd5b505050506040513d601f19601f820116820180604052508101906132bf9190615c3f565b60d8546040517f17bfdfbc000000000000000000000000000000000000000000000000000000008152306004820152919250600091600160a060020a03909116906317bfdfbc906024016020604051808303816000875af1158015613328573d6000803e3d6000fd5b505050506040513d601f19601f8201168201806040525081019061334c9190615c3f565b905061335c81612b33858561337c565b935050505090565b60006116c38284615fec565b60006116c3828461600b565b60006116c38284616030565b61339061360e565b611050600061374c565b60975460ff166133ef5760405160e560020a62461bcd02815260206004820152601460248201527f5061757361626c653a206e6f74207061757365640000000000000000000000006044820152606401610ce3565b6097805460ff191690557f5db9ee0a495bf2e6ff9c91a7834c1ba4fdd244a5e8aa4e537bd38aeae4b073aa335b604051600160a060020a03909116815260200160405180910390a1565b60006116c38284616048565b60006134508261374c565b60d8546040517f3af9e669000000000000000000000000000000000000000000000000000000008152306004820152600091600160a060020a031690633af9e669906024016020604051808303816000875af11580156134b4573d6000803e3d6000fd5b505050506040513d601f19601f820116820180604052508101906134d89190615c3f565b9050808311156134e6578092505b60d8546040517f852a12e300000000000000000000000000000000000000000000000000000000815260048101859052600160a060020a039091169063852a12e3906024016020604051808303816000875af115801561354a573d6000803e3d6000fd5b505050506040513d601f19601f8201168201806040525081019061356e9190615c3f565b156135be5760405160e560020a62461bcd02815260206004820152601c60248201527f5f7769746864726177536f6d653a2072656465656d206661696c6564000000006044820152606401610ce3565b5090919050565b604051600160a060020a0383166024820152604481018290526117d49084907fa9059cbb000000000000000000000000000000000000000000000000000000009060640161315a565b60975460ff16156136345760405160e560020a62461bcd028152600401610ce390615c08565b60d05460405160e060020a6370a08231028152306004820152600091600160a060020a0316906370a0823190602401602060405180830381865afa158015613680573d6000803e3d6000fd5b505050506040513d601f19601f820116820180604052508101906136a49190615c3f565b60d85460d0549192506136c491600160a060020a039081169116836141cc565b60d8546040517fa0712d6800000000000000000000000000000000000000000000000000000000815260048101839052600160a060020a039091169063a0712d68906024016020604051808303816000875af1158015613728573d6000803e3d6000fd5b505050506040513d601f19601f8201168201806040525081019061238f9190615c3f565b60d8546040517f3af9e669000000000000000000000000000000000000000000000000000000008152306004820152600091600160a060020a031690633af9e669906024016020604051808303816000875af11580156137b0573d6000803e3d6000fd5b505050506040513d601f19601f820116820180604052508101906137d49190615c3f565b9050806137df575050565b8082106137f4576137f1816001613439565b91505b60006138008284613439565b60d8546040517f17bfdfbc000000000000000000000000000000000000000000000000000000008152306004820152919250600091600160a060020a03909116906317bfdfbc906024016020604051808303816000875af1158015613869573d6000803e3d6000fd5b505050506040513d601f19601f8201168201806040525081019061388d9190615c3f565b9050600061389961268a565b905060006138be670de0b6b3a7640000610f7f60f6548561336490919063ffffffff16565b905060006138d885610f7f86670de0b6b3a7640000613364565b9050600060d860009054906101000a9004600160a060020a0316600160a060020a0316633b1d21a26040518163ffffffff1660e060020a028152600401602060405180830381865afa158015613932573d6000803e3d6000fd5b505050506040513d601f19601f820116820180604052508101906139569190615c3f565b90508282108015613971575060f75461396f8484613439565b115b15613a8c5760006139bc61398d670de0b6b3a764000086613439565b610f7f670de0b6b3a7640000610f798a612b33670de0b6b3a7640000610f7f8f8d61336490919063ffffffff16565b905060006139da87612b33670de0b6b3a7640000610f7f8d8b613364565b9050808211156139e8578091505b828211156139f4578291505b60d8546040517fc5ebeaec00000000000000000000000000000000000000000000000000000000815260048101849052600160a060020a039091169063c5ebeaec906024016020604051808303816000875af1158015613a58573d6000803e3d6000fd5b505050506040513d601f19601f82011682018060405250810190613a7c9190615c3f565b50613a8561360e565b5050613d7f565b8282118015613aa5575060f754613aa38385613439565b115b15613d7f576000613ae3613ac1670de0b6b3a764000086613439565b610f7f670de0b6b3a7640000610f79613adc82848b8f613364565b8b90613439565b90506000613b07613b0087610f7f8a670de0b6b3a7640000613364565b8a90613439565b905080821115613b15578091505b82821115613b21578291505b60d8546040517f852a12e300000000000000000000000000000000000000000000000000000000815260048101849052600160a060020a039091169063852a12e3906024016020604051808303816000875af1158015613b85573d6000803e3d6000fd5b505050506040513d601f19601f82011682018060405250810190613ba99190615c3f565b15613bf95760405160e560020a62461bcd02815260206004820152600a60248201527f726562616c206661696c000000000000000000000000000000000000000000006044820152606401610ce3565b613c038983613439565b9850888a10613c1a57613c17896001613439565b99505b613c24898b613439565b975086821115613c32578691505b60d85460d054613c4f91600160a060020a039182169116846141cc565b60d8546040517f0e75270200000000000000000000000000000000000000000000000000000000815260048101849052600160a060020a0390911690630e752702906024016020604051808303816000875af1158015613cb3573d6000803e3d6000fd5b505050506040513d601f19601f82011682018060405250810190613cd79190615c3f565b50613ce28783613439565b9650613cfa88610f7f89670de0b6b3a7640000613364565b935060d860009054906101000a9004600160a060020a0316600160a060020a0316633b1d21a26040518163ffffffff1660e060020a028152600401602060405180830381865afa158015613d52573d6000803e3d6000fd5b505050506040513d601f19601f82011682018060405250810190613d769190615c3f565b92505050613a8c565b5050505050505050565b60338054600160a060020a03838116600160a060020a0319831681179093556040519116919082907f8be0079c531659141344cd1fd0a4f28419497f9722a3daafe3b4186f6b6457e090600090a35050565b60975460ff1615613e015760405160e560020a62461bcd028152600401610ce390615c08565b6097805460ff191660011790557f62e78cea01bee320cd4e420270b5ea74000d11b0c9f74754ebdbfc544b05a25861341c3390565b600054610100900460ff16613e605760405160e560020a62461bcd028152600401610ce39061605f565b611050614398565b60008082600160a060020a031663313ce5676040518163ffffffff1660e060020a028152600401602060405180830381865afa158015613eac573d6000803e3d6000fd5b505050506040513d601f19601f82011682018060405250810190613ed09190615f9d565b9050600083600160a060020a031663feaf968c6040518163ffffffff1660e060020a02815260040160a060405180830381865afa158015613f15573d6000803e3d6000fd5b505050506040513d601f19601f82011682018060405250810190613f3991906160d6565b5050509150506000811215613f935760405160e560020a62461bcd02815260206004820152601660248201527f6e656720707269636573206e6f7420616c6c6f776564000000000000000000006044820152606401610ce3565b613fb0613fa183600a61620d565b610f7f8364e8d4a51000613364565b949350505050565b600081156140035760dc541561400357613fe3612710610f7f60dc548561336490919063ffffffff16565b60d75460d35491925061400391600160a060020a039081169116836135c5565b919050565b600080600060dd54111561403457614031612710610f7f60dd548861336490919063ffffffff16565b91505b60de541561405a57614057612710610f7f60de548861336490919063ffffffff16565b90505b60c95460ff1615614080576140708285856143cb565b61407b818585614bf4565b614131565b6140a061408d838361337c565b60cc54600160a060020a03168686615051565b60cd5460ca546040517f464e3c8b0000000000000000000000000000000000000000000000000000000081526004810191909152602481018490526044810183905260648101869052600160a060020a039091169063464e3c8b90608401600060405180830381600087803b15801561411857600080fd5b505af115801561412c573d6000803e3d6000fd5b505050505b935093915050565b60d9546040517f0a18267d00000000000000000000000000000000000000000000000000000000815273__VaultLibrary__________________________91630a18267d9161419891600160a060020a0316908690869060040161624f565b60006040518083038186803b1580156141b057600080fd5b505af41580156141c4573d6000803e3d6000fd5b505050505050565b6040517fdd62ed3e000000000000000000000000000000000000000000000000000000008152306004820152600160a060020a038381166024830152600091839186169063dd62ed3e90604401602060405180830381865afa158015614236573d6000803e3d6000fd5b505050506040513d601f19601f8201168201806040525081019061425a9190615c3f565b6142649190616030565b604051600160a060020a038516602482015260448101829052909150611c7d9085907f095ea7b3000000000000000000000000000000000000000000000000000000009060640161315a565b6000614305826040518060400160405280602081526020017f5361666545524332303a206c6f772d6c6576656c2063616c6c206661696c656481525085600160a060020a031661515e9092919063ffffffff16565b8051909150156117d4578080602001905181019061432391906162fd565b6117d45760405160e560020a62461bcd02815260206004820152602a60248201527f5361666545524332303a204552433230206f7065726174696f6e20646964206e60448201527f6f742073756363656564000000000000000000000000000000000000000000006064820152608401610ce3565b600054610100900460ff166143c25760405160e560020a62461bcd028152600401610ce39061605f565b61105033613d89565b60f2546000906143e390600160a060020a0316613e68565b6040805160028082526060820183529293506000929091602083019080368337505060d3546040805160e060020a63313ce5670281529051939450600160a060020a039091169263313ce567925060048083019260209291908290030181865afa158015614455573d6000803e3d6000fd5b505050506040513d601f19601f820116820180604052508101906144799190615f9d565b8160008151811061448c5761448c615fba565b60ff90921660209283029190910182015260d5546040805160e060020a63313ce5670281529051600160a060020a039092169263313ce567926004808401938290030181865afa1580156144e4573d6000803e3d6000fd5b505050506040513d601f19601f820116820180604052508101906145089190615f9d565b8160018151811061451b5761451b615fba565b60ff9290921660209283029190910182015260408051600280825260608201835260009391929091830190803683370190505090508160018151811061456357614563615fba565b60200260200101518160008151811061457e5761457e615fba565b60ff90921660209283029190910182015260ce546040805160e060020a63313ce5670281529051600160a060020a039092169263313ce567926004808401938290030181865afa1580156145d6573d6000803e3d6000fd5b505050506040513d601f19601f820116820180604052508101906145fa9190615f9d565b8160018151811061460d5761460d615fba565b60ff9290921660209283029190910182015260408051600280825260608201835260009391929091830190803683370190505090508260018151811061465557614655615fba565b60200260200101518160008151811061467057614670615fba565b60ff90921660209283029190910182015260db546040805160e060020a63313ce5670281529051600160a060020a039092169263313ce567926004808401938290030181865afa1580156146c8573d6000803e3d6000fd5b505050506040513d601f19601f820116820180604052508101906146ec9190615f9d565b816001815181106146ff576146ff615fba565b60ff909216602092830291909101820152604080516101008101825289815287518184015280820187905260d354600160a060020a03908116606083015260d55416608082015260a0810189905260ec80548351818602810186019094528084526147bd94929360c0850193909291908301828280156147a857602002820191906000526020600020905b8154600160a060020a0316815260019091019060200180831161478a575b50505091835250503060209091015284614139565b60d55460405160e060020a6370a08231028152306004820152600091600160a060020a0316906370a0823190602401602060405180830381865afa158015614809573d6000803e3d6000fd5b505050506040513d601f19601f8201168201806040525081019061482d9190615c3f565b90506148f660405180610100016040528061485260028561337090919063ffffffff16565b815260208082018990528981015160408084019190915260d554600160a060020a03908116606085015260ce5416608084015260a083018c905260f4805482518185028101850190935280835260c09094019391929091908301828280156147a857602002820191906000526020600020908154600160a060020a0316815260019091019060200180831161478a5750505091835250503060209091015284614139565b60d55460db54600160a060020a039081169116146149d4576149d460405180610100016040528061493160028561337090919063ffffffff16565b8152602080820189905260408a8101518184015260d554600160a060020a03908116606085015260db5416608084015260a083018c905260f5805482518185028101850190935280835260c09094019391929091908301828280156149bf57602002820191906000526020600020905b8154600160a060020a031681526001909101906020018083116149a1575b50505091835250503060209091015283614139565b505060ce5460405160e060020a6370a0823102815230600482015260009450600160a060020a0390911692506370a082319150602401602060405180830381865afa158015614a27573d6000803e3d6000fd5b505050506040513d601f19601f82011682018060405250810190614a4b9190615c3f565b60db5460405160e060020a6370a08231028152306004820152919250600091600160a060020a03909116906370a0823190602401602060405180830381865afa158015614a9c573d6000803e3d6000fd5b505050506040513d601f19601f82011682018060405250810190614ac09190615c3f565b60d95460ce54919250614ae091600160a060020a039081169116846141cc565b60d95460db54614afd91600160a060020a039182169116836141cc565b60d95460ce5460db54600160a060020a039283169263e8e3370092811691168585614b2e6103e8610f7f848d613364565b614b3e6103e8610f7f8a8e613364565b60d654600160a060020a0316614b564261025861337c565b60405163ffffffff8a1660e060020a028152600160a060020a039889166004820152968816602488015260448701959095526064860193909352608485019190915260a484015290921660c482015260e4810191909152610104016060604051808303816000875af1158015614bd0573d6000803e3d6000fd5b505050506040513d601f19601f82011682018060405250810190613d7f919061631a565b604080516002808252606082018352600092602083019080368337505060d3546040805160e060020a63313ce5670281529051939450600160a060020a039091169263313ce567925060048083019260209291908290030181865afa158015614c61573d6000803e3d6000fd5b505050506040513d601f19601f82011682018060405250810190614c859190615f9d565b81600081518110614c9857614c98615fba565b60ff90921660209283029190910182015260d5546040805160e060020a63313ce5670281529051600160a060020a039092169263313ce567926004808401938290030181865afa158015614cf0573d6000803e3d6000fd5b505050506040513d601f19601f82011682018060405250810190614d149190615f9d565b81600181518110614d2757614d27615fba565b60ff92909216602092830291909101820152604080516002808252606082018352600093919290918301908036833701905050905081600181518110614d6f57614d6f615fba565b602002602001015181600081518110614d8a57614d8a615fba565b60ff90921660209283029190910182015260ce546040805160e060020a63313ce5670281529051600160a060020a039092169263313ce567926004808401938290030181865afa158015614de2573d6000803e3d6000fd5b505050506040513d601f19601f82011682018060405250810190614e069190615f9d565b81600181518110614e1957614e19615fba565b60ff9092166020928302919091019091015260d95460d354614e4891600160a060020a039182169116876141cc565b604080516101008101825286815284516020808301919091526060808701518385015260d354600160a060020a039081169184019190915260d55416608083015260a0820187905260ec8054845181840281018401909552808552614efc9460c0850193909291908301828280156149bf57602002820191906000526020600020908154600160a060020a031681526001909101906020018083116149a15750505091835250503060209091015283614139565b60d55460405160e060020a6370a08231028152306004820152600091600160a060020a0316906370a0823190602401602060405180830381865afa158015614f48573d6000803e3d6000fd5b505050506040513d601f19601f82011682018060405250810190614f6c9190615c3f565b60d95460d554919250614f8c91600160a060020a039081169116836141cc565b6040805161010081018252828152606080870151602080840191909152878101518385015260d554600160a060020a039081169284019290925260ce54909116608083015260a0820188905260f480548451818402810184019095528085526141c49460c08501939092919083018282801561503157602002820191906000526020600020905b8154600160a060020a03168152600190910190602001808311615013575b505050918352505060cf54600160a060020a031660209091015283614139565b6040805160a08101825260d354600160a060020a03908116825260d5541660208083019190915260ec8054845181840281018401865281815273__VaultLibrary__________________________956308386be2958b958b958b958b959394850193928301828280156150ed57602002820191906000526020600020905b8154600160a060020a031681526001909101906020018083116150cf575b505050918352505060d954600160a060020a0316602082015260608901516040918201525160e060020a63ffffffff8816028152615132959493929190600401616348565b60006040518083038186803b15801561514a57600080fd5b505af4158015613d7f573d6000803e3d6000fd5b606061516d8484600085615177565b90505b9392505050565b606030318311156151f35760405160e560020a62461bcd02815260206004820152602660248201527f416464726573733a20696e73756666696369656e742062616c616e636520666f60448201527f722063616c6c00000000000000000000000000000000000000000000000000006064820152608401610ce3565b600160a060020a0385163b61524d5760405160e560020a62461bcd02815260206004820152601d60248201527f416464726573733a2063616c6c20746f206e6f6e2d636f6e74726163740000006044820152606401610ce3565b60008086600160a060020a031685876040516152699190616418565b60006040518083038185875af1925050503d80600081146152a6576040519150601f19603f3d011682016040523d82523d6000602084013e6152ab565b606091505b50915091506152bb8282866152c6565b979650505050505050565b606083156152d5575081615170565b8251156152e55782518084602001fd5b8160405160e560020a62461bcd028152600401610ce39190616434565b828054828255906000526020600020908101928215615355579160200282015b82811115615355578154600160a060020a031916600160a060020a03843516178255602090920191600190910190615322565b506153619291506153ba565b5090565b828054828255906000526020600020908101928215615355579160200282015b828111156153555782518254600160a060020a031916600160a060020a03909116178255602090920191600190910190615385565b5b8082111561536157600081556001016153bb565b600160a060020a0381168114612ff957600080fd5b8035614003816153cf565b60006020828403121561540157600080fd5b8135615170816153cf565b8015158114612ff957600080fd5b80356140038161540c565b60006020828403121561543757600080fd5b81356151708161540c565b60006020828403121561545457600080fd5b5035919050565b6000806040838503121561546e57600080fd5b50508035926020909101359150565b60008060006060848603121561549257600080fd5b833561549d816153cf565b92506020840135915060408401356154b4816153cf565b809150509250925092565b600080600080600060a086880312156154d757600080fd5b505083359560208501359550604085013594606081013594506080013592509050565b60ff81168114612ff957600080fd5b60008060006040848603121561551e57600080fd5b8335615529816154fa565b9250602084013567ffffffffffffffff8082111561554657600080fd5b818601915086601f83011261555a57600080fd5b81358181111561556957600080fd5b876020808302850101111561557d57600080fd5b6020830194508093505050509250925092565b60e060020a634e487b7102600052604160045260246000fd5b604051610200810167ffffffffffffffff811182821017156155cd576155cd615590565b60405290565b6040516101e0810167ffffffffffffffff811182821017156155cd576155cd615590565b604051601f8201601f1916810167ffffffffffffffff8111828210171561562057615620615590565b604052919050565b6000610200828403121561563b57600080fd5b6156436155a9565b905061564e826153e4565b815261565c602083016153e4565b602082015261566d604083016153e4565b604082015261567e606083016153e4565b606082015261568f608083016153e4565b60808201526156a060a083016153e4565b60a08201526156b160c083016153e4565b60c08201526156c260e083016153e4565b60e08201526101006156d58184016153e4565b908201526101206156e78382016153e4565b908201526101406156f98382016153e4565b9082015261016061570b8382016153e4565b9082015261018061571d8382016153e4565b908201526101a061572f8382016153e4565b908201526101c06157418382016153e4565b908201526101e06157538382016153e4565b9082015292915050565b600067ffffffffffffffff82111561577757615777615590565b5060209081020190565b600082601f83011261579257600080fd5b813560206157a76157a28361575d565b6155f7565b828152918102840181019181810190868411156157c357600080fd5b8286015b848110156157e75780356157da816153cf565b83529183019183016157c7565b509695505050505050565b600060a0828403121561580457600080fd5b60405160a0810181811067ffffffffffffffff8211171561582757615827615590565b806040525080915082358152602083013560208201526040830135604082015260608301356060820152608083013560808201525092915050565b600060c0828403121561587457600080fd5b60405160c0810181811067ffffffffffffffff8211171561589757615897615590565b60405290508082356158a8816153cf565b815260208301356158b8816153cf565b602082015260408301356158cb816153cf565b604082015260608301356158de816153cf565b606082015260808301356158f1816153cf565b608082015260a0830135615904816153cf565b60a0919091015292915050565b6000806040838503121561592457600080fd5b823561592f816153cf565b9150602083013567ffffffffffffffff8082111561594c57600080fd5b908401906104e0828703121561596157600080fd5b6159696155d3565b823581526159796020840161541a565b602082015261598b8760408501615628565b604082015261024083013560608201526102608301356080820152610280830135828111156159b957600080fd5b6159c588828601615781565b60a0830152506102a0830135828111156159de57600080fd5b6159ea88828601615781565b60c0830152506102c083013582811115615a0357600080fd5b615a0f88828601615781565b60e0830152506102e083013582811115615a2857600080fd5b615a3488828601615781565b6101008301525061030083013582811115615a4e57600080fd5b615a5a88828601615781565b6101208301525061032083013582811115615a7457600080fd5b615a8088828601615781565b6101408301525061034083013582811115615a9a57600080fd5b615aa688828601615781565b61016083015250615abb8761036085016157f2565b610180820152615acf876104008501615862565b6101a0820152615ae26104c084016153e4565b6101c08201528093505050509250929050565b60008060408385031215615b0857600080fd5b8235615b13816154fa565b91506020830135615b23816153cf565b809150509250929050565b6020808252818101527f4f776e61626c653a2063616c6c6572206973206e6f7420746865206f776e6572604082015260600190565b60208082526004908201527f21676f7600000000000000000000000000000000000000000000000000000000604082015260600190565b60208082526010908201527f217a6f72726f436f6e74726f6c6c657200000000000000000000000000000000604082015260600190565b6020808252601f908201527f5265656e7472616e637947756172643a207265656e7472616e742063616c6c00604082015260600190565b60208082526010908201527f5061757361626c653a2070617573656400000000000000000000000000000000604082015260600190565b600060208284031215615c5157600080fd5b5051919050565b600081518084526020808501945080840160005b83811015615c91578151600160a060020a031687529582019590820190600101615c6c565b509495945050505050565b838152606060208201526000600160a060020a038085511660608401528060208601511660808401528060408601511660a0840152506060840151615cec60c0840182600160a060020a03169052565b506080840151600160a060020a03811660e08401525060a084015160e0610100840152615d1d610140840182615c58565b905060c0850151615d3a610120850182600160a060020a03169052565b50604092909201929092529392505050565b6020808252602e908201527f496e697469616c697a61626c653a20636f6e747261637420697320616c72656160408201527f647920696e697469616c697a6564000000000000000000000000000000000000606082015260800190565b6020808252825482820181905260008481528281209092916040850190845b81811015615ded578354600160a060020a031683526001938401939285019201615dc8565b50909695505050505050565b60006020808385031215615e0c57600080fd5b825167ffffffffffffffff811115615e2357600080fd5b8301601f81018513615e3457600080fd5b8051615e426157a28261575d565b81815290830282018301908381019087831115615e5e57600080fd5b928401925b828410156152bb578351615e76816153cf565b82529284019290840190615e63565b60008060008060008060c08789031215615e9e57600080fd5b8651615ea98161540c565b6020880151604089015160608a015160808b015160a0909b0151939c929b509099909850965090945092505050565b838152606060208201526000600160a060020a03808551166060840152806020860151166080840152506040840151615f1c60a0840182600160a060020a03169052565b506060840151600160a060020a03811660c0840152506080840151600160a060020a03811660e08401525060a0840151610100615f6381850183600160a060020a03169052565b60c086015191508061012085015250615f80610160840182615c58565b905060e0850151615d3a610140850182600160a060020a03169052565b600060208284031215615faf57600080fd5b8151615170816154fa565b60e060020a634e487b7102600052603260045260246000fd5b60e060020a634e487b7102600052601160045260246000fd5b600081600019048311821515161561600657616006615fd3565b500290565b60008261602b5760e060020a634e487b7102600052601260045260246000fd5b500490565b6000821982111561604357616043615fd3565b500190565b60008282101561605a5761605a615fd3565b500390565b6020808252602b908201527f496e697469616c697a61626c653a20636f6e7472616374206973206e6f74206960408201527f6e697469616c697a696e67000000000000000000000000000000000000000000606082015260800190565b805169ffffffffffffffffffff8116811461400357600080fd5b600080600080600060a086880312156160ee57600080fd5b6160f7866160bc565b945060208601519350604086015192506060860151915061611a608087016160bc565b90509295509295909350565b600181815b8085111561616357816000190482111561614757616147615fd3565b8085161561615457918102915b6002909404939080029061612b565b509250929050565b60008261617a575060016116c6565b81616187575060006116c6565b816001811461619d57600281146161a7576161c4565b60019150506116c6565b60ff8411156161b8576161b8615fd3565b8360020a9150506116c6565b5060208310610133831016604e8410600b84101617156161e7575081810a6116c6565b6161f18383616126565b806000190482111561620557616205615fd3565b029392505050565b60006116c360ff84168361616b565b600081518084526020808501945080840160005b83811015615c9157815160ff1687529582019590820190600101616230565b6000600160a060020a038086168352606060208401528451606084015260208501516080840152604085015160a08401528060608601511660c08401528060808601511660e08401525060a0840151610100818185015260c0860151915080610120850152506162c3610160840182615c58565b905060e08501516162e0610140850182600160a060020a03169052565b5082810360408401526162f3818561621c565b9695505050505050565b60006020828403121561630f57600080fd5b81516151708161540c565b60008060006060848603121561632f57600080fd5b8351925060208401519150604084015190509250925092565b6000610100878352600160a060020a0380881660208501528660408501528551606085015260208601516080850152604086015160a0850152606086015160c08501528160e08501528085511682850152806020860151166101208501526040850151915060a06101408501526163c36101a0850183615c58565b915080606086015116610160850152506080840151610180840152809150509695505050505050565b60005b838110156164075781810151838201526020016163ef565b83811115611c7d5750506000910152565b6000825161642a8184602087016163ec565b9190910192915050565b60208152600082518060208401526164538160408501602087016163ec565b601f01601f1916919091016040019291505056fea264697066735822122064c73c35f2001b2c7b42599a5eb04e4097dbb522c0e03de7dbc8310badc5c75464736f6c634300080a0033",
  "immutableReferences": {},
  "source": "// SPDX-License-Identifier: MIT\n\npragma solidity ^0.8.0;\n\nimport \"@openzeppelin/contracts-upgradeable/token/ERC20/utils/SafeERC20Upgradeable.sol\";\n\nimport \"@openzeppelin/contracts-upgradeable/token/ERC20/IERC20Upgradeable.sol\";\n\nimport \"@openzeppelin/contracts-upgradeable/token/ERC20/ERC20Upgradeable.sol\";\n\nimport \"@openzeppelin/contracts-upgradeable/utils/math/SafeMathUpgradeable.sol\";\n\nimport \"./_VaultBase.sol\";\n\nimport \"../libraries/PriceFeed.sol\";\n\nimport \"./libraries/VaultLibrary.sol\";\n\nimport \"../interfaces/ApeLending/ICErc20Interface.sol\";\n\nimport \"../interfaces/ApeLending/IRainMaker.sol\";\n\nimport \"../interfaces/ApeLending/IUnitroller.sol\";\n\nimport \"./libraries/VaultLendingLibrary.sol\";\n\n/// @title Vault contract for ApeLending leveraged lending strategies\ncontract VaultApeLending is VaultBase {\n    /* Libraries */\n    using SafeMathUpgradeable for uint256;\n    using SafeERC20Upgradeable for IERC20Upgradeable;\n    using SafeSwapUni for IAMMRouter02;\n    using PriceFeed for AggregatorV3Interface;\n\n    /* Constructor */\n    /// @notice Upgradeable constructor\n    /// @param _initValue A VaultApeLendingInit struct containing all init values\n    /// @param _timelockOwner The designated timelock controller address to act as owner\n    function initialize(\n        address _timelockOwner,\n        VaultApeLendingInit memory _initValue\n    ) public initializer {\n        // Vault config\n        pid = _initValue.pid;\n        isHomeChain = _initValue.isHomeChain;\n\n        // Lending params\n        targetBorrowLimit = _initValue.targetBorrowLimit;\n        targetBorrowLimitHysteresis = _initValue.targetBorrowLimitHysteresis;\n\n        // Addresses\n        govAddress = _initValue.keyAddresses.govAddress;\n        onlyGov = true;\n        zorroControllerAddress = _initValue.keyAddresses.zorroControllerAddress;\n        zorroXChainController = _initValue.keyAddresses.zorroXChainController;\n        ZORROAddress = _initValue.keyAddresses.ZORROAddress;\n        zorroStakingVault = _initValue.keyAddresses.zorroStakingVault;\n        wantAddress = _initValue.keyAddresses.wantAddress;\n        token0Address = _initValue.keyAddresses.token0Address;\n        earnedAddress = _initValue.keyAddresses.earnedAddress;\n        farmContractAddress = _initValue.keyAddresses.farmContractAddress;\n        rewardsAddress = _initValue.keyAddresses.rewardsAddress;\n        poolAddress = _initValue.keyAddresses.poolAddress;\n        uniRouterAddress = _initValue.keyAddresses.uniRouterAddress;\n        zorroLPPool = _initValue.keyAddresses.zorroLPPool;\n        zorroLPPoolOtherToken = _initValue.keyAddresses.zorroLPPoolOtherToken;\n        defaultStablecoin = _initValue.keyAddresses.defaultStablecoin;\n        comptrollerAddress = _initValue.comptrollerAddress;\n\n        // Fees\n        controllerFee = _initValue.fees.controllerFee;\n        buyBackRate = _initValue.fees.buyBackRate;\n        revShareRate = _initValue.fees.revShareRate;\n        entranceFeeFactor = _initValue.fees.entranceFeeFactor;\n        withdrawFeeFactor = _initValue.fees.withdrawFeeFactor;\n\n        // Swap paths\n        earnedToZORROPath = _initValue.earnedToZORROPath;\n        earnedToToken0Path = _initValue.earnedToToken0Path;\n        stablecoinToToken0Path = _initValue.stablecoinToToken0Path;\n        earnedToZORLPPoolOtherTokenPath = _initValue\n            .earnedToZORLPPoolOtherTokenPath;\n        earnedToStablecoinPath = _initValue.earnedToStablecoinPath;\n        stablecoinToToken0Path = _initValue.stablecoinToToken0Path;\n        stablecoinToZORROPath = _initValue.stablecoinToZORROPath;\n        stablecoinToLPPoolOtherTokenPath = _initValue\n            .stablecoinToLPPoolOtherTokenPath;\n        // Corresponding reverse paths\n        token0ToStablecoinPath = VaultLibrary.reversePath(\n            stablecoinToToken0Path\n        );\n\n        // Price feeds\n        token0PriceFeed = AggregatorV3Interface(\n            _initValue.priceFeeds.token0PriceFeed\n        );\n        earnTokenPriceFeed = AggregatorV3Interface(\n            _initValue.priceFeeds.earnTokenPriceFeed\n        );\n        lpPoolOtherTokenPriceFeed = AggregatorV3Interface(\n            _initValue.priceFeeds.lpPoolOtherTokenPriceFeed\n        );\n        ZORPriceFeed = AggregatorV3Interface(\n            _initValue.priceFeeds.ZORPriceFeed\n        );\n        stablecoinPriceFeed = AggregatorV3Interface(\n            _initValue.priceFeeds.stablecoinPriceFeed\n        );\n\n        // Super call\n        VaultBase.initialize(_timelockOwner);\n    }\n\n    /* Structs */\n\n    struct VaultApeLendingInit {\n        uint256 pid;\n        bool isHomeChain;\n        VaultLibrary.VaultAddresses keyAddresses;\n        uint256 targetBorrowLimit;\n        uint256 targetBorrowLimitHysteresis;\n        address[] earnedToZORROPath;\n        address[] earnedToToken0Path;\n        address[] stablecoinToToken0Path;\n        address[] earnedToZORLPPoolOtherTokenPath;\n        address[] earnedToStablecoinPath;\n        address[] stablecoinToZORROPath;\n        address[] stablecoinToLPPoolOtherTokenPath;\n        VaultLibrary.VaultFees fees;\n        VaultLibrary.VaultPriceFeeds priceFeeds;\n        address comptrollerAddress;\n    }\n\n    /* State */\n\n    address[] public stablecoinToZORROPath; // Swap path from BUSD to ZOR (PCS)\n    address[] public stablecoinToLPPoolOtherTokenPath; // Swap path from BUSD to ZOR LP Pool's \"other token\" (PCS)\n    uint256 public targetBorrowLimit; // Max borrow rate % (1e18 = 100%)\n    uint256 public targetBorrowLimitHysteresis; // +/- envelope (1% = 1e16)\n    address public comptrollerAddress; // Unitroller address\n\n    /* Setters */\n\n    function setStablecoinSwapPaths(uint8 _idx, address[] calldata _path)\n        external\n        onlyOwner\n    {\n        if (_idx == 0) {\n            stablecoinToToken0Path = _path;\n        } else if (_idx == 1) {\n            stablecoinToZORROPath = _path;\n        } else if (_idx == 2) {\n            stablecoinToLPPoolOtherTokenPath = _path;\n        } else {\n            revert(\"unsupported idx swap path\");\n        }\n    }\n\n    function setTargetBorrowLimit(uint256 _tbl) external onlyOwner {\n        targetBorrowLimit = _tbl;\n    }\n\n    function setTargetBorrowLimitHysteresis(uint256 _tblh) external onlyOwner {\n        targetBorrowLimitHysteresis = _tblh;\n    }\n\n    function setComptrollerAddress(address _comptroller) external onlyOwner {\n        comptrollerAddress = _comptroller;\n    }\n\n    /* Investment Actions */\n\n    /// @notice Receives new deposits from user\n    /// @param _wantAmt amount of underlying token to deposit/stake\n    /// @return sharesAdded uint256 Number of shares added\n    function depositWantToken(uint256 _wantAmt)\n        public\n        virtual\n        override\n        onlyZorroController\n        nonReentrant\n        whenNotPaused\n        returns (uint256 sharesAdded)\n    {\n        // Preflight checks\n        require(_wantAmt > 0, \"Want token deposit must be > 0\");\n\n        // Calc balances\n        \n\n        // Transfer Want token from sender\n        IERC20Upgradeable(wantAddress).safeTransferFrom(\n            msg.sender,\n            address(this),\n            _wantAmt\n        );\n\n        // Set sharesAdded to the Want token amount specified\n        sharesAdded = _wantAmt;\n        // If the total number of shares and want tokens locked both exceed 0, the shares added is the proportion of Want tokens locked,\n        // discounted by the entrance fee\n        if (_wantTokenLockedAdj() > 0 && sharesTotal > 0) {\n            sharesAdded = _wantAmt\n                .mul(sharesTotal)\n                .mul(entranceFeeFactor)\n                .div(_wantTokenLockedAdj())\n                .div(entranceFeeFactorMax);\n        }\n        // Increment the shares\n        sharesTotal = sharesTotal.add(sharesAdded);\n\n        // Farm (leverage)\n        _farm();\n    }\n\n    /// @notice Calc want token locked, accounting for leveraged supply/borrow\n    /// @return amtLocked The adjusted wantLockedTotal quantity\n    function _wantTokenLockedAdj() internal returns (uint256 amtLocked) {\n        uint256 _wantBal = IERC20Upgradeable(wantAddress).balanceOf(address(this));\n        uint256 _supplyBal = ICErc20Interface(poolAddress).balanceOfUnderlying(address(this));\n        uint256 _borrowBal = ICErc20Interface(poolAddress).borrowBalanceCurrent(address(this));\n        amtLocked = _wantBal.add(_supplyBal).sub(_borrowBal);\n    }\n\n    /// @notice Performs necessary operations to convert USD into Want token\n    /// @param _amountUSD The USD quantity to exchange (must already be deposited)\n    /// @param _maxMarketMovementAllowed The max slippage allowed. 1000 = 0 %, 995 = 0.5%, etc.\n    /// @return uint256 Amount of Want token obtained\n    function exchangeUSDForWantToken(\n        uint256 _amountUSD,\n        uint256 _maxMarketMovementAllowed\n    ) public override onlyZorroController whenNotPaused returns (uint256) {\n        return\n            VaultLibraryApeLending.exchangeUSDForWantToken(\n                _amountUSD,\n                VaultLibraryApeLending.ExchangeUSDForWantParams({\n                    token0Address: token0Address,\n                    stablecoin: defaultStablecoin,\n                    tokenZorroAddress: ZORROAddress,\n                    token0PriceFeed: token0PriceFeed,\n                    stablecoinPriceFeed: stablecoinPriceFeed,\n                    uniRouterAddress: uniRouterAddress,\n                    stablecoinToToken0Path: stablecoinToToken0Path,\n                    poolAddress: poolAddress\n                }),\n                _maxMarketMovementAllowed\n            );\n    }\n\n    // TODO: Consider abstracting all instances of this (in every vault to VaultBase contract)\n    /// @notice Safely swaps tokens using the most suitable protocol based on token\n    /// @param _swapParams SafeSwapParams for swap\n    /// @param _decimals Array of decimals for amount In, amount Out\n    function _safeSwap(\n        SafeSwapParams memory _swapParams,\n        uint8[] memory _decimals\n    ) internal {\n        VaultLibrary.safeSwap(uniRouterAddress, _swapParams, _decimals);\n    }\n\n    /// @notice Fully withdraw Want tokens from the Farm contract (100% withdrawals only)\n    /// @param _wantAmt The amount of Want token to withdraw\n    /// @return sharesRemoved The number of shares removed\n    function withdrawWantToken(uint256 _wantAmt)\n        public\n        virtual\n        override\n        onlyZorroController\n        nonReentrant\n        whenNotPaused\n        returns (uint256 sharesRemoved)\n    {\n        // Preflight checks\n        require(_wantAmt > 0, \"negWant\");\n\n        // Shares removed is proportional to the % of total Want tokens locked that _wantAmt represents\n        sharesRemoved = _wantAmt.mul(sharesTotal).div(_wantTokenLockedAdj());\n        // Safety: cap the shares to the total number of shares\n        if (sharesRemoved > sharesTotal) {\n            sharesRemoved = sharesTotal;\n        }\n        // Decrement the total shares by the sharesRemoved\n        sharesTotal = sharesTotal.sub(sharesRemoved);\n\n\n        // Get balance of underlying on this contract\n        uint256 _wantBal = IERC20Upgradeable(wantAddress).balanceOf(\n            address(this)\n        );\n\n        // If amount to withdraw is gt balance, delever by appropriate amount\n        if (_wantAmt > _wantBal) {\n            // Delever the incremental amount needed and reassign _wantAmt\n            _wantAmt = _withdrawSome(_wantAmt.sub(_wantBal));\n            // Add back the existing balance and reassign _wantAmt\n            _wantAmt = _wantAmt.add(_wantBal);\n        }\n        // Recalc balance \n        _wantBal = IERC20Upgradeable(wantAddress).balanceOf(\n            address(this)\n        );\n        // Safety: Cap want amount to new balance (after delevering some), as a last resort\n        if (_wantAmt > _wantBal) {\n            _wantAmt = _wantBal;\n        }\n\n\n        // If a withdrawal fee is specified, discount the _wantAmt by the withdrawal fee\n        if (withdrawFeeFactor < withdrawFeeFactorMax) {\n            _wantAmt = _wantAmt.mul(withdrawFeeFactor).div(\n                withdrawFeeFactorMax\n            );\n        }\n\n        // Finally, transfer the want amount from this contract, back to the ZorroController contract\n        IERC20Upgradeable(wantAddress).safeTransfer(\n            zorroControllerAddress,\n            _wantAmt\n        );\n        \n        // Rebalance\n        _supplyWant();\n        _rebalance(0);\n    }\n\n    /// @notice TODO\n    function _withdrawSome(uint256 _amount) internal returns (uint256) {\n        _rebalance(_amount);\n        uint256 _balance = ICErc20Interface(poolAddress).balanceOfUnderlying(\n            address(this)\n        );\n        if (_amount > _balance) _amount = _balance;\n        require(\n            ICErc20Interface(poolAddress).redeemUnderlying(_amount) == 0,\n            \"_withdrawSome: redeem failed\"\n        );\n        return _amount;\n    }\n\n    /// @notice Converts Want token back into USD to be ready for withdrawal and transfers to sender\n    /// @param _amount The Want token quantity to exchange (must be deposited beforehand)\n    /// @param _maxMarketMovementAllowed The max slippage allowed for swaps. 1000 = 0 %, 995 = 0.5%, etc.\n    /// @return uint256 Amount of USD token obtained\n    function exchangeWantTokenForUSD(\n        uint256 _amount,\n        uint256 _maxMarketMovementAllowed\n    )\n        public\n        virtual\n        override\n        onlyZorroController\n        whenNotPaused\n        returns (uint256)\n    {\n        return\n            VaultLibraryApeLending.exchangeWantTokenForUSD(\n                _amount,\n                VaultLibraryApeLending.ExchangeWantTokenForUSDParams({\n                    token0Address: token0Address,\n                    stablecoin: defaultStablecoin,\n                    poolAddress: poolAddress,\n                    token0PriceFeed: token0PriceFeed,\n                    stablecoinPriceFeed: stablecoinPriceFeed,\n                    token0ToStablecoinPath: token0ToStablecoinPath,\n                    uniRouterAddress: uniRouterAddress\n                }),\n                _maxMarketMovementAllowed\n            );\n    }\n\n    /// @notice The main compounding (earn) function. Reinvests profits since the last earn event.\n    /// @param _maxMarketMovementAllowed The max slippage allowed. 1000 = 0 %, 995 = 0.5%, etc.\n    function earn(uint256 _maxMarketMovementAllowed)\n        public\n        virtual\n        override\n        nonReentrant\n        whenNotPaused\n    {\n        // If onlyGov is set to true, only allow to proceed if the current caller is the govAddress\n        if (onlyGov) {\n            require(msg.sender == govAddress, \"!gov\");\n        }\n\n        // Claim any outstanding farm rewards\n        IRainMaker(farmContractAddress).claimComp(address(this));\n\n        // Get the balance of the Earned token on this contract\n        uint256 _earnedAmt = IERC20(earnedAddress).balanceOf(address(this));\n\n        // Require pending rewards in order to continue\n        require(_earnedAmt > 0, \"0earn\");\n\n        // Get exchange rate from price feed\n        uint256 _token0ExchangeRate = token0PriceFeed.getExchangeRate();\n\n        // Create rates struct\n        VaultLibrary.ExchangeRates memory _rates = VaultLibrary.ExchangeRates({\n            earn: earnTokenPriceFeed.getExchangeRate(),\n            ZOR: ZORPriceFeed.getExchangeRate(),\n            lpPoolOtherToken: lpPoolOtherTokenPriceFeed.getExchangeRate(),\n            stablecoin: stablecoinPriceFeed.getExchangeRate()\n        });\n\n        // Distribute fees\n        uint256 _controllerFee = _distributeFees(_earnedAmt);\n\n        // Buyback & rev share\n        (uint256 _buybackAmt, uint256 _revShareAmt) = _buyBackAndRevShare(\n            _earnedAmt,\n            _maxMarketMovementAllowed,\n            _rates\n        );\n\n        // Net earned amt\n        uint256 _earnedAmtNet = _earnedAmt\n            .sub(_controllerFee)\n            .sub(_buybackAmt)\n            .sub(_revShareAmt);\n\n        // Swap Earn token for single asset token\n\n        // Get decimal info\n        uint8[] memory _decimals0 = new uint8[](2);\n        _decimals0[0] = ERC20Upgradeable(earnedAddress).decimals();\n        _decimals0[1] = ERC20Upgradeable(defaultStablecoin).decimals();\n        uint8[] memory _decimals1 = new uint8[](2);\n        _decimals1[0] = _decimals0[1];\n        _decimals1[1] = ERC20Upgradeable(token0Address).decimals();\n\n        // Swap earn to token0 if token0 is not earn\n        if (token0Address != earnedAddress) {\n            _safeSwap(\n                SafeSwapParams({\n                    amountIn: _earnedAmtNet,\n                    priceToken0: _rates.earn,\n                    priceToken1: _token0ExchangeRate,\n                    token0: earnedAddress,\n                    token1: token0Address,\n                    maxMarketMovementAllowed: _maxMarketMovementAllowed,\n                    path: earnedToToken0Path,\n                    destination: address(this)\n                }),\n                _decimals1\n            );\n        }\n\n        // Redeposit single asset token to get Want token\n        // Get new Token0 balance\n        uint256 _token0Bal = IERC20Upgradeable(token0Address).balanceOf(\n            address(this)\n        );\n        // Allow spending\n        IERC20Upgradeable(token0Address).safeIncreaseAllowance(\n            poolAddress,\n            _token0Bal\n        );\n        // Re-supply\n        _supplyWant();\n        // Re-lever\n        _rebalance(0);\n\n        // This vault is only for single asset deposits, so farm that token and exit\n        // Update the last earn block\n        lastEarnBlock = block.number;\n    }\n\n    /// @notice Buys back the earned token on-chain, swaps it to add liquidity to the ZOR pool, then burns the associated LP token\n    /// @dev Requires funds to be sent to this address before calling. Can be called internally OR by controller\n    /// @param _amount The amount of Earn token to buy back\n    /// @param _maxMarketMovementAllowed The max slippage allowed. 1000 = 0 %, 995 = 0.5%, etc.\n    /// @param _rates ExchangeRates struct with realtime rates information for swaps\n    function _buybackOnChain(\n        uint256 _amount,\n        uint256 _maxMarketMovementAllowed,\n        VaultLibrary.ExchangeRates memory _rates\n    ) internal override {\n        // Self contained block to limit stack depth\n        {\n            // Get exchange rate\n            uint256 _stablecoinExchangeRate = stablecoinPriceFeed\n                .getExchangeRate();\n\n            // Get decimal info\n            uint8[] memory _decimals0 = new uint8[](2);\n            _decimals0[0] = ERC20Upgradeable(earnedAddress).decimals();\n            _decimals0[1] = ERC20Upgradeable(defaultStablecoin).decimals();\n            uint8[] memory _decimals1 = new uint8[](2);\n            _decimals1[0] = _decimals0[1];\n            _decimals1[1] = ERC20Upgradeable(ZORROAddress).decimals();\n            uint8[] memory _decimals2 = new uint8[](2);\n            _decimals2[0] = _decimals0[1];\n            _decimals2[1] = ERC20Upgradeable(zorroLPPoolOtherToken).decimals();\n\n            // 1. Swap Earned -> BUSD\n            _safeSwap(\n                SafeSwapParams({\n                    amountIn: _amount,\n                    priceToken0: _rates.earn,\n                    priceToken1: _stablecoinExchangeRate,\n                    token0: earnedAddress,\n                    token1: defaultStablecoin,\n                    maxMarketMovementAllowed: _maxMarketMovementAllowed,\n                    path: earnedToStablecoinPath,\n                    destination: address(this)\n                }),\n                _decimals0\n            );\n\n            // Get BUSD bal\n            uint256 _balBUSD = IERC20Upgradeable(defaultStablecoin).balanceOf(\n                address(this)\n            );\n\n            // 2. Swap 1/2 BUSD -> ZOR\n            _safeSwap(\n                SafeSwapParams({\n                    amountIn: _balBUSD.div(2),\n                    priceToken0: _stablecoinExchangeRate,\n                    priceToken1: _rates.ZOR,\n                    token0: defaultStablecoin,\n                    token1: ZORROAddress,\n                    maxMarketMovementAllowed: _maxMarketMovementAllowed,\n                    path: stablecoinToZORROPath,\n                    destination: address(this)\n                }),\n                _decimals1\n            );\n\n            // 3. Swap 1/2 BUSD -> LP \"other token\"\n            if (zorroLPPoolOtherToken != defaultStablecoin) {\n                _safeSwap(\n                    SafeSwapParams({\n                        amountIn: _balBUSD.div(2),\n                        priceToken0: _stablecoinExchangeRate,\n                        priceToken1: _rates.lpPoolOtherToken,\n                        token0: defaultStablecoin,\n                        token1: zorroLPPoolOtherToken,\n                        maxMarketMovementAllowed: _maxMarketMovementAllowed,\n                        path: stablecoinToLPPoolOtherTokenPath,\n                        destination: address(this)\n                    }),\n                    _decimals2\n                );\n            }\n        }\n\n        // Enter LP pool and send received token to the burn address\n        uint256 zorroTokenAmt = IERC20Upgradeable(ZORROAddress).balanceOf(\n            address(this)\n        );\n        uint256 otherTokenAmt = IERC20Upgradeable(zorroLPPoolOtherToken)\n            .balanceOf(address(this));\n        IERC20Upgradeable(ZORROAddress).safeIncreaseAllowance(\n            uniRouterAddress,\n            zorroTokenAmt\n        );\n        IERC20Upgradeable(zorroLPPoolOtherToken).safeIncreaseAllowance(\n            uniRouterAddress,\n            otherTokenAmt\n        );\n        IAMMRouter02(uniRouterAddress).addLiquidity(\n            ZORROAddress,\n            zorroLPPoolOtherToken,\n            zorroTokenAmt,\n            otherTokenAmt,\n            zorroTokenAmt.mul(_maxMarketMovementAllowed).div(1000),\n            otherTokenAmt.mul(_maxMarketMovementAllowed).div(1000),\n            burnAddress,\n            block.timestamp.add(600)\n        );\n    }\n\n    /// @notice Sends the specified earnings amount as revenue share to ZOR stakers\n    /// @param _amount The amount of Earn token to share as revenue with ZOR stakers\n    /// @param _maxMarketMovementAllowed Max slippage. 950 = 5%, 990 = 1%, etc.\n    /// @param _rates ExchangeRates struct with realtime rates information for swaps\n    function _revShareOnChain(\n        uint256 _amount,\n        uint256 _maxMarketMovementAllowed,\n        VaultLibrary.ExchangeRates memory _rates\n    ) internal override {\n        // Get decimal info\n        uint8[] memory _decimals0 = new uint8[](2);\n        _decimals0[0] = ERC20Upgradeable(earnedAddress).decimals();\n        _decimals0[1] = ERC20Upgradeable(defaultStablecoin).decimals();\n        // Get decimal info\n        uint8[] memory _decimals1 = new uint8[](2);\n        _decimals1[0] = _decimals0[1];\n        _decimals1[1] = ERC20Upgradeable(ZORROAddress).decimals();\n\n        // Authorize spending beforehand\n        IERC20Upgradeable(earnedAddress).safeIncreaseAllowance(\n            uniRouterAddress,\n            _amount\n        );\n\n        // Swap Earn to USD\n        // 1. Router: Earn -> BUSD\n        _safeSwap(\n            SafeSwapParams({\n                amountIn: _amount,\n                priceToken0: _rates.earn,\n                priceToken1: _rates.stablecoin,\n                token0: earnedAddress,\n                token1: defaultStablecoin,\n                maxMarketMovementAllowed: _maxMarketMovementAllowed,\n                path: earnedToStablecoinPath,\n                destination: address(this)\n            }),\n            _decimals0\n        );\n        // 2. Uni: BUSD -> ZOR\n        uint256 _balUSD = IERC20Upgradeable(defaultStablecoin).balanceOf(\n            address(this)\n        );\n        // Increase allowance\n        IERC20Upgradeable(defaultStablecoin).safeIncreaseAllowance(\n            uniRouterAddress,\n            _balUSD\n        );\n        _safeSwap(\n            SafeSwapParams({\n                amountIn: _balUSD,\n                priceToken0: _rates.stablecoin,\n                priceToken1: _rates.ZOR,\n                token0: defaultStablecoin,\n                token1: ZORROAddress,\n                maxMarketMovementAllowed: _maxMarketMovementAllowed,\n                path: stablecoinToZORROPath,\n                destination: zorroStakingVault\n            }),\n            _decimals1\n        );\n    }\n\n    /// @notice Swaps Earn token to USD and sends to destination specified\n    /// @param _earnedAmount Quantity of Earned tokens\n    /// @param _destination Address to send swapped USD to\n    /// @param _maxMarketMovementAllowed Slippage factor. 950 = 5%, 990 = 1%, etc.\n    /// @param _rates ExchangeRates struct with realtime rates information for swaps\n    function _swapEarnedToUSD(\n        uint256 _earnedAmount,\n        address _destination,\n        uint256 _maxMarketMovementAllowed,\n        VaultLibrary.ExchangeRates memory _rates\n    ) internal override {\n        VaultLibrary.swapEarnedToUSD(\n            _earnedAmount,\n            _destination,\n            _maxMarketMovementAllowed,\n            _rates,\n            VaultLibrary.SwapEarnedToUSDParams({\n                earnedAddress: earnedAddress,\n                stablecoin: defaultStablecoin,\n                earnedToStablecoinPath: earnedToStablecoinPath,\n                uniRouterAddress: uniRouterAddress,\n                stablecoinExchangeRate: _rates.stablecoin\n            })\n        );\n    }\n\n    /// @notice Public function for farming Want token.\n    function farm() public nonReentrant {\n        _farm();\n    }\n\n    /// @notice Function for farming want token\n    function _farm() internal {\n        // Supply the underlying token\n        _supplyWant();\n\n        // Leverage up to target leverage (using supply-borrow)\n        _rebalance(0);\n    }\n\n    /// @notice Supplies underlying token to Pool (vToken contract)\n    function _supplyWant() internal whenNotPaused {\n        // Get underlying balance\n        uint256 _wantBal = IERC20Upgradeable(wantAddress).balanceOf(\n            address(this)\n        );\n        // Allow spending of underlying token by Pool (VToken contract)\n        IERC20Upgradeable(wantAddress).safeIncreaseAllowance(\n            poolAddress,\n            _wantBal\n        );\n        // Supply underlying token\n        ICErc20Interface(poolAddress).mint(_wantBal);\n    }\n\n    /// @notice Maintains target leverage amount, within tolerance\n    /// @param _withdrawAmt The amount of tokens to deleverage for withdrawal\n    function _rebalance(uint256 _withdrawAmt) internal {\n        /* Init */\n\n        // Be initial supply balance of underlying.\n        uint256 _ox = ICErc20Interface(poolAddress).balanceOfUnderlying(\n            address(this)\n        );\n        // If no supply, nothing to do so exit.\n        if (_ox == 0) return;\n\n        // If withdrawal greater than balance of underlying, cap it (account for rounding)\n        if (_withdrawAmt >= _ox) _withdrawAmt = _ox.sub(1);\n        // Adjusted supply = init supply - amt to withdraw\n        uint256 _x = _ox.sub(_withdrawAmt);\n        // Calc init borrow balance\n        uint256 _y = ICErc20Interface(poolAddress).borrowBalanceCurrent(\n            address(this)\n        );\n        // Get collateral factor from protocol\n        uint256 _c = collateralFactor();\n        // Target leverage\n        uint256 _L = _c.mul(targetBorrowLimit).div(1e18);\n        // Current leverage = borrow / supply\n        uint256 _currentL = _y.mul(1e18).div(_x);\n        // Liquidity (of underlying) available in the pool overall\n        uint256 _liquidityAvailable = ICErc20Interface(poolAddress).getCash();\n\n        /* Leverage targeting */\n\n        if (_currentL < _L && _L.sub(_currentL) > targetBorrowLimitHysteresis) {\n            // If BELOW leverage target and below hysteresis envelope\n\n            // Calculate incremental amount to borrow:\n            // (Target lev % * curr supply - curr borrowed)/(1 - Target lev %)\n            uint256 _dy = _L.mul(_x).div(1e18).sub(_y).mul(1e18).div(\n                uint256(1e18).sub(_L)\n            );\n\n            // Cap incremental borrow to init supply * collateral fact % - curr borrowed\n            uint256 _max_dy = _ox.mul(_c).div(1e18).sub(_y);\n            if (_dy > _max_dy) _dy = _max_dy;\n            // Also cap to max liq available\n            if (_dy > _liquidityAvailable) _dy = _liquidityAvailable;\n\n            // Borrow incremental amount\n            ICErc20Interface(poolAddress).borrow(_dy);\n\n            // Supply the amount borrowed\n            _supplyWant();\n        } else {\n            // If ABOVE leverage target, iteratively deleverage until within hysteresis envelope\n            while (\n                _currentL > _L &&\n                _currentL.sub(_L) > targetBorrowLimitHysteresis\n            ) {\n                // Calculate incremental amount to borrow:\n                // (Curr borrowed - (Target lev % * Curr supply)) / (1 - Target lev %)\n                uint256 _dy = _y.sub(_L.mul(_x).div(1e18)).mul(1e18).div(\n                    uint256(1e18).sub(_L)\n                );\n                // Cap incremental borrow-repay to init supply - (curr borrowed / collateral fact %)\n                uint256 _max_dy = _ox.sub(_y.mul(1e18).div(_c));\n                if (_dy > _max_dy) _dy = _max_dy;\n                // Also cap to max liq available\n                if (_dy > _liquidityAvailable) _dy = _liquidityAvailable;\n\n                // Redeem underlying increment. Return val must be 0 (success)\n                require(\n                    ICErc20Interface(poolAddress).redeemUnderlying(_dy) == 0,\n                    \"rebal fail\"\n                );\n\n                // Decrement supply bal by amount repaid\n                _ox = _ox.sub(_dy);\n                // Cap withdrawal amount to new supply (account for rounding)\n                if (_withdrawAmt >= _ox) _withdrawAmt = _ox.sub(1);\n                // Adjusted supply decremented by withdrawal amount\n                _x = _ox.sub(_withdrawAmt);\n\n                // Cap incremental borrow-repay to total amount borrowed\n                if (_dy > _y) _dy = _y;\n                // Allow pool to spend underlying\n                IERC20Upgradeable(wantAddress).safeIncreaseAllowance(\n                    poolAddress,\n                    _dy\n                );\n                // Repay borrowed amount (increment)\n                ICErc20Interface(poolAddress).repayBorrow(_dy);\n                // Decrement total amount borrowed\n                _y = _y.sub(_dy);\n\n                // Update current leverage (borrowed / supplied)\n                _currentL = _y.mul(1e18).div(_x);\n                // Update current liquidity of underlying pool\n                _liquidityAvailable = ICErc20Interface(poolAddress).getCash();\n            }\n        }\n    }\n\n    /// @notice Gets loan collateral factor from lending protocol\n    /// @return collFactor The collateral factor %. TODO: Specify denominator (1e18?) Check against consuming logic. \n    function collateralFactor() public view returns (uint256 collFactor) {\n        (,uint256 _collateralFactor,,,,) = IUnitrollerApeLending(comptrollerAddress).markets(poolAddress);\n        return _collateralFactor;\n    }\n}\n\ncontract VaultApeLendingETH is VaultApeLending {}\n",
  "sourcePath": "/Users/kristophm/Documents/workspace/zorro-protocol/contracts/vaults/VaultApeLending.sol",
  "compiler": {
    "name": "solc",
    "version": "0.8.10+commit.fc410830.Emscripten.clang"
  },
  "schemaVersion": "3.4.10",
  "updatedAt": "2022-11-18T16:31:27.225Z",
  "devdoc": {
    "kind": "dev",
    "methods": {
      "collateralFactor()": {
        "returns": {
          "collFactor": "The collateral factor %. TODO: Specify denominator (1e18?) Check against consuming logic. "
        }
      },
      "depositWantToken(uint256)": {
        "params": {
          "_wantAmt": "amount of underlying token to deposit/stake"
        },
        "returns": {
          "sharesAdded": "uint256 Number of shares added"
        }
      },
      "earn(uint256)": {
        "params": {
          "_maxMarketMovementAllowed": "The max slippage allowed. 1000 = 0 %, 995 = 0.5%, etc."
        }
      },
      "exchangeUSDForWantToken(uint256,uint256)": {
        "params": {
          "_amountUSD": "The USD quantity to exchange (must already be deposited)",
          "_maxMarketMovementAllowed": "The max slippage allowed. 1000 = 0 %, 995 = 0.5%, etc."
        },
        "returns": {
          "_0": "uint256 Amount of Want token obtained"
        }
      },
      "exchangeWantTokenForUSD(uint256,uint256)": {
        "params": {
          "_amount": "The Want token quantity to exchange (must be deposited beforehand)",
          "_maxMarketMovementAllowed": "The max slippage allowed for swaps. 1000 = 0 %, 995 = 0.5%, etc."
        },
        "returns": {
          "_0": "uint256 Amount of USD token obtained"
        }
      },
      "inCaseTokensGetStuck(address,uint256,address)": {
        "params": {
          "_amount": "The amount of the tokens to transfer",
          "_to": "The address to transfer tokens to",
          "_token": "Address of the ERC20 token to transfer"
        }
      },
      "initialize(address,(uint256,bool,(address,address,address,address,address,address,address,address,address,address,address,address,address,address,address,address),uint256,uint256,address[],address[],address[],address[],address[],address[],address[],(uint256,uint256,uint256,uint256,uint256),(address,address,address,address,address,address),address))": {
        "params": {
          "_initValue": "A VaultApeLendingInit struct containing all init values",
          "_timelockOwner": "The designated timelock controller address to act as owner"
        }
      },
      "owner()": {
        "details": "Returns the address of the current owner."
      },
      "paused()": {
        "details": "Returns true if the contract is paused, and false otherwise."
      },
      "renounceOwnership()": {
        "details": "Leaves the contract without owner. It will not be possible to call `onlyOwner` functions anymore. Can only be called by the current owner. NOTE: Renouncing ownership will leave the contract without an owner, thereby removing any functionality that is only available to the owner."
      },
      "setFeeSettings(uint256,uint256,uint256,uint256,uint256)": {
        "params": {
          "_buyBackRate": "Buy back rate fee numerator",
          "_controllerFee": "Controller fee numerator",
          "_entranceFeeFactor": "Entrance fee numerator (higher means smaller percentage)",
          "_revShareRate": "Rev share rate fee numerator",
          "_withdrawFeeFactor": "Withdrawal fee numerator (higher means smaller percentage)"
        }
      },
      "setGov(address)": {
        "params": {
          "_govAddress": "The new gov address"
        }
      },
      "setOnlyGov(bool)": {
        "params": {
          "_onlyGov": "whether onlyGov should be enforced"
        }
      },
      "transferOwnership(address)": {
        "details": "Transfers ownership of the contract to a new account (`newOwner`). Can only be called by the current owner."
      },
      "withdrawWantToken(uint256)": {
        "params": {
          "_wantAmt": "The amount of Want token to withdraw"
        },
        "returns": {
          "sharesRemoved": "The number of shares removed"
        }
      }
    },
    "title": "Vault contract for ApeLending leveraged lending strategies",
    "version": 1
  },
  "userdoc": {
    "kind": "user",
    "methods": {
      "collateralFactor()": {
        "notice": "Gets loan collateral factor from lending protocol"
      },
      "depositWantToken(uint256)": {
        "notice": "Receives new deposits from user"
      },
      "earn(uint256)": {
        "notice": "The main compounding (earn) function. Reinvests profits since the last earn event."
      },
      "exchangeUSDForWantToken(uint256,uint256)": {
        "notice": "Performs necessary operations to convert USD into Want token"
      },
      "exchangeWantTokenForUSD(uint256,uint256)": {
        "notice": "Converts Want token back into USD to be ready for withdrawal and transfers to sender"
      },
      "farm()": {
        "notice": "Public function for farming Want token."
      },
      "inCaseTokensGetStuck(address,uint256,address)": {
        "notice": "Safely transfer ERC20 tokens stuck in this contract to a specified address"
      },
      "initialize(address,(uint256,bool,(address,address,address,address,address,address,address,address,address,address,address,address,address,address,address,address),uint256,uint256,address[],address[],address[],address[],address[],address[],address[],(uint256,uint256,uint256,uint256,uint256),(address,address,address,address,address,address),address))": {
        "notice": "Upgradeable constructor"
      },
      "pause()": {
        "notice": "Pause contract"
      },
      "setFeeSettings(uint256,uint256,uint256,uint256,uint256)": {
        "notice": "Configure key fee parameters"
      },
      "setGov(address)": {
        "notice": "Set governor address"
      },
      "setOnlyGov(bool)": {
        "notice": "Set onlyGov property"
      },
      "unpause()": {
        "notice": "Unpause contract"
      },
      "withdrawWantToken(uint256)": {
        "notice": "Fully withdraw Want tokens from the Farm contract (100% withdrawals only)"
      }
    },
    "version": 1
  }
}