{
  "contractName": "VaultAcryptosSingle",
  "abi": [
    {
      "anonymous": false,
      "inputs": [
        {
          "indexed": true,
          "internalType": "address",
          "name": "previousOwner",
          "type": "address"
        },
        {
          "indexed": true,
          "internalType": "address",
          "name": "newOwner",
          "type": "address"
        }
      ],
      "name": "OwnershipTransferred",
      "type": "event"
    },
    {
      "anonymous": false,
      "inputs": [
        {
          "indexed": false,
          "internalType": "address",
          "name": "account",
          "type": "address"
        }
      ],
      "name": "Paused",
      "type": "event"
    },
    {
      "anonymous": false,
      "inputs": [
        {
          "indexed": false,
          "internalType": "address",
          "name": "_govAddress",
          "type": "address"
        }
      ],
      "name": "SetGov",
      "type": "event"
    },
    {
      "anonymous": false,
      "inputs": [
        {
          "indexed": false,
          "internalType": "bool",
          "name": "_onlyGov",
          "type": "bool"
        }
      ],
      "name": "SetOnlyGov",
      "type": "event"
    },
    {
      "anonymous": false,
      "inputs": [
        {
          "indexed": false,
          "internalType": "address",
          "name": "_rewardsAddress",
          "type": "address"
        }
      ],
      "name": "SetRewardsAddress",
      "type": "event"
    },
    {
      "anonymous": false,
      "inputs": [
        {
          "indexed": false,
          "internalType": "uint256",
          "name": "_entranceFeeFactor",
          "type": "uint256"
        },
        {
          "indexed": false,
          "internalType": "uint256",
          "name": "_withdrawFeeFactor",
          "type": "uint256"
        },
        {
          "indexed": false,
          "internalType": "uint256",
          "name": "_controllerFee",
          "type": "uint256"
        },
        {
          "indexed": false,
          "internalType": "uint256",
          "name": "_buyBackRate",
          "type": "uint256"
        }
      ],
      "name": "SetSettings",
      "type": "event"
    },
    {
      "anonymous": false,
      "inputs": [
        {
          "indexed": false,
          "internalType": "address",
          "name": "_uniRouterAddress",
          "type": "address"
        }
      ],
      "name": "SetUniRouterAddress",
      "type": "event"
    },
    {
      "anonymous": false,
      "inputs": [
        {
          "indexed": false,
          "internalType": "address",
          "name": "account",
          "type": "address"
        }
      ],
      "name": "Unpaused",
      "type": "event"
    },
    {
      "inputs": [
        {
          "internalType": "uint256",
          "name": "",
          "type": "uint256"
        }
      ],
      "name": "BUSDToLPPoolOtherTokenPath",
      "outputs": [
        {
          "internalType": "address",
          "name": "",
          "type": "address"
        }
      ],
      "stateMutability": "view",
      "type": "function",
      "constant": true
    },
    {
      "inputs": [
        {
          "internalType": "uint256",
          "name": "",
          "type": "uint256"
        }
      ],
      "name": "BUSDToToken0Path",
      "outputs": [
        {
          "internalType": "address",
          "name": "",
          "type": "address"
        }
      ],
      "stateMutability": "view",
      "type": "function",
      "constant": true
    },
    {
      "inputs": [
        {
          "internalType": "uint256",
          "name": "",
          "type": "uint256"
        }
      ],
      "name": "BUSDToZORROPath",
      "outputs": [
        {
          "internalType": "address",
          "name": "",
          "type": "address"
        }
      ],
      "stateMutability": "view",
      "type": "function",
      "constant": true
    },
    {
      "inputs": [
        {
          "internalType": "uint256",
          "name": "",
          "type": "uint256"
        }
      ],
      "name": "USDCToToken0Path",
      "outputs": [
        {
          "internalType": "address",
          "name": "",
          "type": "address"
        }
      ],
      "stateMutability": "view",
      "type": "function",
      "constant": true
    },
    {
      "inputs": [
        {
          "internalType": "uint256",
          "name": "",
          "type": "uint256"
        }
      ],
      "name": "USDCToToken1Path",
      "outputs": [
        {
          "internalType": "address",
          "name": "",
          "type": "address"
        }
      ],
      "stateMutability": "view",
      "type": "function",
      "constant": true
    },
    {
      "inputs": [],
      "name": "ZORPriceFeed",
      "outputs": [
        {
          "internalType": "contract AggregatorV3Interface",
          "name": "",
          "type": "address"
        }
      ],
      "stateMutability": "view",
      "type": "function",
      "constant": true
    },
    {
      "inputs": [],
      "name": "ZORROAddress",
      "outputs": [
        {
          "internalType": "address",
          "name": "",
          "type": "address"
        }
      ],
      "stateMutability": "view",
      "type": "function",
      "constant": true
    },
    {
      "inputs": [],
      "name": "balancerACSWeightBasisPoints",
      "outputs": [
        {
          "internalType": "uint256",
          "name": "",
          "type": "uint256"
        }
      ],
      "stateMutability": "view",
      "type": "function",
      "constant": true
    },
    {
      "inputs": [],
      "name": "balancerBUSDWeightBasisPoints",
      "outputs": [
        {
          "internalType": "uint256",
          "name": "",
          "type": "uint256"
        }
      ],
      "stateMutability": "view",
      "type": "function",
      "constant": true
    },
    {
      "inputs": [],
      "name": "balancerPool",
      "outputs": [
        {
          "internalType": "bytes32",
          "name": "",
          "type": "bytes32"
        }
      ],
      "stateMutability": "view",
      "type": "function",
      "constant": true
    },
    {
      "inputs": [],
      "name": "balancerVaultAddress",
      "outputs": [
        {
          "internalType": "address",
          "name": "",
          "type": "address"
        }
      ],
      "stateMutability": "view",
      "type": "function",
      "constant": true
    },
    {
      "inputs": [],
      "name": "burnAddress",
      "outputs": [
        {
          "internalType": "address",
          "name": "",
          "type": "address"
        }
      ],
      "stateMutability": "view",
      "type": "function",
      "constant": true
    },
    {
      "inputs": [],
      "name": "buyBackRate",
      "outputs": [
        {
          "internalType": "uint256",
          "name": "",
          "type": "uint256"
        }
      ],
      "stateMutability": "view",
      "type": "function",
      "constant": true
    },
    {
      "inputs": [],
      "name": "buyBackRateMax",
      "outputs": [
        {
          "internalType": "uint256",
          "name": "",
          "type": "uint256"
        }
      ],
      "stateMutability": "view",
      "type": "function",
      "constant": true
    },
    {
      "inputs": [],
      "name": "buyBackRateUL",
      "outputs": [
        {
          "internalType": "uint256",
          "name": "",
          "type": "uint256"
        }
      ],
      "stateMutability": "view",
      "type": "function",
      "constant": true
    },
    {
      "inputs": [],
      "name": "controllerFee",
      "outputs": [
        {
          "internalType": "uint256",
          "name": "",
          "type": "uint256"
        }
      ],
      "stateMutability": "view",
      "type": "function",
      "constant": true
    },
    {
      "inputs": [],
      "name": "controllerFeeMax",
      "outputs": [
        {
          "internalType": "uint256",
          "name": "",
          "type": "uint256"
        }
      ],
      "stateMutability": "view",
      "type": "function",
      "constant": true
    },
    {
      "inputs": [],
      "name": "controllerFeeUL",
      "outputs": [
        {
          "internalType": "uint256",
          "name": "",
          "type": "uint256"
        }
      ],
      "stateMutability": "view",
      "type": "function",
      "constant": true
    },
    {
      "inputs": [],
      "name": "earnTokenPriceFeed",
      "outputs": [
        {
          "internalType": "contract AggregatorV3Interface",
          "name": "",
          "type": "address"
        }
      ],
      "stateMutability": "view",
      "type": "function",
      "constant": true
    },
    {
      "inputs": [],
      "name": "earnedAddress",
      "outputs": [
        {
          "internalType": "address",
          "name": "",
          "type": "address"
        }
      ],
      "stateMutability": "view",
      "type": "function",
      "constant": true
    },
    {
      "inputs": [
        {
          "internalType": "uint256",
          "name": "",
          "type": "uint256"
        }
      ],
      "name": "earnedToToken0Path",
      "outputs": [
        {
          "internalType": "address",
          "name": "",
          "type": "address"
        }
      ],
      "stateMutability": "view",
      "type": "function",
      "constant": true
    },
    {
      "inputs": [
        {
          "internalType": "uint256",
          "name": "",
          "type": "uint256"
        }
      ],
      "name": "earnedToToken1Path",
      "outputs": [
        {
          "internalType": "address",
          "name": "",
          "type": "address"
        }
      ],
      "stateMutability": "view",
      "type": "function",
      "constant": true
    },
    {
      "inputs": [
        {
          "internalType": "uint256",
          "name": "",
          "type": "uint256"
        }
      ],
      "name": "earnedToUSDCPath",
      "outputs": [
        {
          "internalType": "address",
          "name": "",
          "type": "address"
        }
      ],
      "stateMutability": "view",
      "type": "function",
      "constant": true
    },
    {
      "inputs": [
        {
          "internalType": "uint256",
          "name": "",
          "type": "uint256"
        }
      ],
      "name": "earnedToZORLPPoolOtherTokenPath",
      "outputs": [
        {
          "internalType": "address",
          "name": "",
          "type": "address"
        }
      ],
      "stateMutability": "view",
      "type": "function",
      "constant": true
    },
    {
      "inputs": [
        {
          "internalType": "uint256",
          "name": "",
          "type": "uint256"
        }
      ],
      "name": "earnedToZORROPath",
      "outputs": [
        {
          "internalType": "address",
          "name": "",
          "type": "address"
        }
      ],
      "stateMutability": "view",
      "type": "function",
      "constant": true
    },
    {
      "inputs": [],
      "name": "entranceFeeFactor",
      "outputs": [
        {
          "internalType": "uint256",
          "name": "",
          "type": "uint256"
        }
      ],
      "stateMutability": "view",
      "type": "function",
      "constant": true
    },
    {
      "inputs": [],
      "name": "entranceFeeFactorLL",
      "outputs": [
        {
          "internalType": "uint256",
          "name": "",
          "type": "uint256"
        }
      ],
      "stateMutability": "view",
      "type": "function",
      "constant": true
    },
    {
      "inputs": [],
      "name": "entranceFeeFactorMax",
      "outputs": [
        {
          "internalType": "uint256",
          "name": "",
          "type": "uint256"
        }
      ],
      "stateMutability": "view",
      "type": "function",
      "constant": true
    },
    {
      "inputs": [],
      "name": "farmContractAddress",
      "outputs": [
        {
          "internalType": "address",
          "name": "",
          "type": "address"
        }
      ],
      "stateMutability": "view",
      "type": "function",
      "constant": true
    },
    {
      "inputs": [],
      "name": "govAddress",
      "outputs": [
        {
          "internalType": "address",
          "name": "",
          "type": "address"
        }
      ],
      "stateMutability": "view",
      "type": "function",
      "constant": true
    },
    {
      "inputs": [
        {
          "internalType": "address",
          "name": "_token",
          "type": "address"
        },
        {
          "internalType": "uint256",
          "name": "_amount",
          "type": "uint256"
        },
        {
          "internalType": "address",
          "name": "_to",
          "type": "address"
        }
      ],
      "name": "inCaseTokensGetStuck",
      "outputs": [],
      "stateMutability": "nonpayable",
      "type": "function"
    },
    {
      "inputs": [],
      "name": "isHomeChain",
      "outputs": [
        {
          "internalType": "bool",
          "name": "",
          "type": "bool"
        }
      ],
      "stateMutability": "view",
      "type": "function",
      "constant": true
    },
    {
      "inputs": [],
      "name": "lastEarnBlock",
      "outputs": [
        {
          "internalType": "uint256",
          "name": "",
          "type": "uint256"
        }
      ],
      "stateMutability": "view",
      "type": "function",
      "constant": true
    },
    {
      "inputs": [],
      "name": "lpPoolOtherTokenPriceFeed",
      "outputs": [
        {
          "internalType": "contract AggregatorV3Interface",
          "name": "",
          "type": "address"
        }
      ],
      "stateMutability": "view",
      "type": "function",
      "constant": true
    },
    {
      "inputs": [],
      "name": "onlyGov",
      "outputs": [
        {
          "internalType": "bool",
          "name": "",
          "type": "bool"
        }
      ],
      "stateMutability": "view",
      "type": "function",
      "constant": true
    },
    {
      "inputs": [],
      "name": "owner",
      "outputs": [
        {
          "internalType": "address",
          "name": "",
          "type": "address"
        }
      ],
      "stateMutability": "view",
      "type": "function",
      "constant": true
    },
    {
      "inputs": [],
      "name": "pause",
      "outputs": [],
      "stateMutability": "nonpayable",
      "type": "function"
    },
    {
      "inputs": [],
      "name": "paused",
      "outputs": [
        {
          "internalType": "bool",
          "name": "",
          "type": "bool"
        }
      ],
      "stateMutability": "view",
      "type": "function",
      "constant": true
    },
    {
      "inputs": [],
      "name": "pid",
      "outputs": [
        {
          "internalType": "uint256",
          "name": "",
          "type": "uint256"
        }
      ],
      "stateMutability": "view",
      "type": "function",
      "constant": true
    },
    {
      "inputs": [],
      "name": "poolAddress",
      "outputs": [
        {
          "internalType": "address",
          "name": "",
          "type": "address"
        }
      ],
      "stateMutability": "view",
      "type": "function",
      "constant": true
    },
    {
      "inputs": [],
      "name": "renounceOwnership",
      "outputs": [],
      "stateMutability": "nonpayable",
      "type": "function"
    },
    {
      "inputs": [],
      "name": "revShareRate",
      "outputs": [
        {
          "internalType": "uint256",
          "name": "",
          "type": "uint256"
        }
      ],
      "stateMutability": "view",
      "type": "function",
      "constant": true
    },
    {
      "inputs": [],
      "name": "revShareRateMax",
      "outputs": [
        {
          "internalType": "uint256",
          "name": "",
          "type": "uint256"
        }
      ],
      "stateMutability": "view",
      "type": "function",
      "constant": true
    },
    {
      "inputs": [],
      "name": "revShareRateUL",
      "outputs": [
        {
          "internalType": "uint256",
          "name": "",
          "type": "uint256"
        }
      ],
      "stateMutability": "view",
      "type": "function",
      "constant": true
    },
    {
      "inputs": [],
      "name": "rewardsAddress",
      "outputs": [
        {
          "internalType": "address",
          "name": "",
          "type": "address"
        }
      ],
      "stateMutability": "view",
      "type": "function",
      "constant": true
    },
    {
      "inputs": [
        {
          "internalType": "address",
          "name": "_earnedAddress",
          "type": "address"
        }
      ],
      "name": "setEarnedAddress",
      "outputs": [],
      "stateMutability": "nonpayable",
      "type": "function"
    },
    {
      "inputs": [
        {
          "internalType": "address",
          "name": "_farmContractAddress",
          "type": "address"
        }
      ],
      "name": "setFarmContractAddress",
      "outputs": [],
      "stateMutability": "nonpayable",
      "type": "function"
    },
    {
      "inputs": [
        {
          "internalType": "uint256",
          "name": "_entranceFeeFactor",
          "type": "uint256"
        },
        {
          "internalType": "uint256",
          "name": "_withdrawFeeFactor",
          "type": "uint256"
        },
        {
          "internalType": "uint256",
          "name": "_controllerFee",
          "type": "uint256"
        },
        {
          "internalType": "uint256",
          "name": "_buyBackRate",
          "type": "uint256"
        }
      ],
      "name": "setFeeSettings",
      "outputs": [],
      "stateMutability": "nonpayable",
      "type": "function"
    },
    {
      "inputs": [
        {
          "internalType": "address",
          "name": "_govAddress",
          "type": "address"
        }
      ],
      "name": "setGov",
      "outputs": [],
      "stateMutability": "nonpayable",
      "type": "function"
    },
    {
      "inputs": [
        {
          "internalType": "bool",
          "name": "_onlyGov",
          "type": "bool"
        }
      ],
      "name": "setOnlyGov",
      "outputs": [],
      "stateMutability": "nonpayable",
      "type": "function"
    },
    {
      "inputs": [
        {
          "internalType": "uint256",
          "name": "_pid",
          "type": "uint256"
        }
      ],
      "name": "setPid",
      "outputs": [],
      "stateMutability": "nonpayable",
      "type": "function"
    },
    {
      "inputs": [
        {
          "internalType": "address",
          "name": "_poolAddress",
          "type": "address"
        }
      ],
      "name": "setPoolAddress",
      "outputs": [],
      "stateMutability": "nonpayable",
      "type": "function"
    },
    {
      "inputs": [
        {
          "internalType": "uint8",
          "name": "_idx",
          "type": "uint8"
        },
        {
          "internalType": "address",
          "name": "_priceFeed",
          "type": "address"
        }
      ],
      "name": "setPriceFeed",
      "outputs": [],
      "stateMutability": "nonpayable",
      "type": "function"
    },
    {
      "inputs": [
        {
          "internalType": "address",
          "name": "_rewardsAddress",
          "type": "address"
        }
      ],
      "name": "setRewardsAddress",
      "outputs": [],
      "stateMutability": "nonpayable",
      "type": "function"
    },
    {
      "inputs": [
        {
          "internalType": "uint8",
          "name": "_idx",
          "type": "uint8"
        },
        {
          "internalType": "address[]",
          "name": "_path",
          "type": "address[]"
        }
      ],
      "name": "setSwapPaths",
      "outputs": [],
      "stateMutability": "nonpayable",
      "type": "function"
    },
    {
      "inputs": [
        {
          "internalType": "address",
          "name": "_token0Address",
          "type": "address"
        }
      ],
      "name": "setToken0Address",
      "outputs": [],
      "stateMutability": "nonpayable",
      "type": "function"
    },
    {
      "inputs": [
        {
          "internalType": "address",
          "name": "_token1Address",
          "type": "address"
        }
      ],
      "name": "setToken1Address",
      "outputs": [],
      "stateMutability": "nonpayable",
      "type": "function"
    },
    {
      "inputs": [
        {
          "internalType": "address",
          "name": "_tokenUSDCAddress",
          "type": "address"
        }
      ],
      "name": "setTokenUSDCAddress",
      "outputs": [],
      "stateMutability": "nonpayable",
      "type": "function"
    },
    {
      "inputs": [
        {
          "internalType": "address",
          "name": "_uniRouterAddress",
          "type": "address"
        }
      ],
      "name": "setUniRouterAddress",
      "outputs": [],
      "stateMutability": "nonpayable",
      "type": "function"
    },
    {
      "inputs": [
        {
          "internalType": "address",
          "name": "_wantAddress",
          "type": "address"
        }
      ],
      "name": "setWantAddress",
      "outputs": [],
      "stateMutability": "nonpayable",
      "type": "function"
    },
    {
      "inputs": [
        {
          "internalType": "address",
          "name": "_ZORROAddress",
          "type": "address"
        }
      ],
      "name": "setZORROAddress",
      "outputs": [],
      "stateMutability": "nonpayable",
      "type": "function"
    },
    {
      "inputs": [
        {
          "internalType": "address",
          "name": "_zorroControllerAddress",
          "type": "address"
        }
      ],
      "name": "setZorroControllerAddress",
      "outputs": [],
      "stateMutability": "nonpayable",
      "type": "function"
    },
    {
      "inputs": [
        {
          "internalType": "address",
          "name": "_poolAddress",
          "type": "address"
        }
      ],
      "name": "setZorroLPPoolAddress",
      "outputs": [],
      "stateMutability": "nonpayable",
      "type": "function"
    },
    {
      "inputs": [
        {
          "internalType": "address",
          "name": "_otherToken",
          "type": "address"
        }
      ],
      "name": "setZorroLPPoolOtherToken",
      "outputs": [],
      "stateMutability": "nonpayable",
      "type": "function"
    },
    {
      "inputs": [
        {
          "internalType": "address",
          "name": "_stakingVault",
          "type": "address"
        }
      ],
      "name": "setZorroStakingVault",
      "outputs": [],
      "stateMutability": "nonpayable",
      "type": "function"
    },
    {
      "inputs": [],
      "name": "sharesTotal",
      "outputs": [
        {
          "internalType": "uint256",
          "name": "",
          "type": "uint256"
        }
      ],
      "stateMutability": "view",
      "type": "function",
      "constant": true
    },
    {
      "inputs": [],
      "name": "token0Address",
      "outputs": [
        {
          "internalType": "address",
          "name": "",
          "type": "address"
        }
      ],
      "stateMutability": "view",
      "type": "function",
      "constant": true
    },
    {
      "inputs": [],
      "name": "token0PriceFeed",
      "outputs": [
        {
          "internalType": "contract AggregatorV3Interface",
          "name": "",
          "type": "address"
        }
      ],
      "stateMutability": "view",
      "type": "function",
      "constant": true
    },
    {
      "inputs": [
        {
          "internalType": "uint256",
          "name": "",
          "type": "uint256"
        }
      ],
      "name": "token0ToUSDCPath",
      "outputs": [
        {
          "internalType": "address",
          "name": "",
          "type": "address"
        }
      ],
      "stateMutability": "view",
      "type": "function",
      "constant": true
    },
    {
      "inputs": [],
      "name": "token1Address",
      "outputs": [
        {
          "internalType": "address",
          "name": "",
          "type": "address"
        }
      ],
      "stateMutability": "view",
      "type": "function",
      "constant": true
    },
    {
      "inputs": [],
      "name": "token1PriceFeed",
      "outputs": [
        {
          "internalType": "contract AggregatorV3Interface",
          "name": "",
          "type": "address"
        }
      ],
      "stateMutability": "view",
      "type": "function",
      "constant": true
    },
    {
      "inputs": [
        {
          "internalType": "uint256",
          "name": "",
          "type": "uint256"
        }
      ],
      "name": "token1ToUSDCPath",
      "outputs": [
        {
          "internalType": "address",
          "name": "",
          "type": "address"
        }
      ],
      "stateMutability": "view",
      "type": "function",
      "constant": true
    },
    {
      "inputs": [],
      "name": "tokenACS",
      "outputs": [
        {
          "internalType": "address",
          "name": "",
          "type": "address"
        }
      ],
      "stateMutability": "view",
      "type": "function",
      "constant": true
    },
    {
      "inputs": [],
      "name": "tokenBUSD",
      "outputs": [
        {
          "internalType": "address",
          "name": "",
          "type": "address"
        }
      ],
      "stateMutability": "view",
      "type": "function",
      "constant": true
    },
    {
      "inputs": [],
      "name": "tokenUSDCAddress",
      "outputs": [
        {
          "internalType": "address",
          "name": "",
          "type": "address"
        }
      ],
      "stateMutability": "view",
      "type": "function",
      "constant": true
    },
    {
      "inputs": [
        {
          "internalType": "address",
          "name": "newOwner",
          "type": "address"
        }
      ],
      "name": "transferOwnership",
      "outputs": [],
      "stateMutability": "nonpayable",
      "type": "function"
    },
    {
      "inputs": [],
      "name": "uniRouterAddress",
      "outputs": [
        {
          "internalType": "address",
          "name": "",
          "type": "address"
        }
      ],
      "stateMutability": "view",
      "type": "function",
      "constant": true
    },
    {
      "inputs": [],
      "name": "unpause",
      "outputs": [],
      "stateMutability": "nonpayable",
      "type": "function"
    },
    {
      "inputs": [
        {
          "internalType": "address",
          "name": "",
          "type": "address"
        }
      ],
      "name": "userShares",
      "outputs": [
        {
          "internalType": "uint256",
          "name": "",
          "type": "uint256"
        }
      ],
      "stateMutability": "view",
      "type": "function",
      "constant": true
    },
    {
      "inputs": [],
      "name": "wantAddress",
      "outputs": [
        {
          "internalType": "address",
          "name": "",
          "type": "address"
        }
      ],
      "stateMutability": "view",
      "type": "function",
      "constant": true
    },
    {
      "inputs": [],
      "name": "wantLockedTotal",
      "outputs": [
        {
          "internalType": "uint256",
          "name": "",
          "type": "uint256"
        }
      ],
      "stateMutability": "view",
      "type": "function",
      "constant": true
    },
    {
      "inputs": [],
      "name": "withdrawFeeFactor",
      "outputs": [
        {
          "internalType": "uint256",
          "name": "",
          "type": "uint256"
        }
      ],
      "stateMutability": "view",
      "type": "function",
      "constant": true
    },
    {
      "inputs": [],
      "name": "withdrawFeeFactorLL",
      "outputs": [
        {
          "internalType": "uint256",
          "name": "",
          "type": "uint256"
        }
      ],
      "stateMutability": "view",
      "type": "function",
      "constant": true
    },
    {
      "inputs": [],
      "name": "withdrawFeeFactorMax",
      "outputs": [
        {
          "internalType": "uint256",
          "name": "",
          "type": "uint256"
        }
      ],
      "stateMutability": "view",
      "type": "function",
      "constant": true
    },
    {
      "inputs": [],
      "name": "zorroControllerAddress",
      "outputs": [
        {
          "internalType": "address",
          "name": "",
          "type": "address"
        }
      ],
      "stateMutability": "view",
      "type": "function",
      "constant": true
    },
    {
      "inputs": [],
      "name": "zorroLPPool",
      "outputs": [
        {
          "internalType": "address",
          "name": "",
          "type": "address"
        }
      ],
      "stateMutability": "view",
      "type": "function",
      "constant": true
    },
    {
      "inputs": [],
      "name": "zorroLPPoolOtherToken",
      "outputs": [
        {
          "internalType": "address",
          "name": "",
          "type": "address"
        }
      ],
      "stateMutability": "view",
      "type": "function",
      "constant": true
    },
    {
      "inputs": [],
      "name": "zorroStakingVault",
      "outputs": [
        {
          "internalType": "address",
          "name": "",
          "type": "address"
        }
      ],
      "stateMutability": "view",
      "type": "function",
      "constant": true
    },
    {
      "inputs": [],
      "name": "zorroXChainController",
      "outputs": [
        {
          "internalType": "address",
          "name": "",
          "type": "address"
        }
      ],
      "stateMutability": "view",
      "type": "function",
      "constant": true
    },
    {
      "inputs": [
        {
          "internalType": "address",
          "name": "_timelockOwner",
          "type": "address"
        },
        {
          "components": [
            {
              "internalType": "uint256",
              "name": "pid",
              "type": "uint256"
            },
            {
              "internalType": "bool",
              "name": "isHomeChain",
              "type": "bool"
            },
            {
              "components": [
                {
                  "internalType": "address",
                  "name": "govAddress",
                  "type": "address"
                },
                {
                  "internalType": "address",
                  "name": "zorroControllerAddress",
                  "type": "address"
                },
                {
                  "internalType": "address",
                  "name": "ZORROAddress",
                  "type": "address"
                },
                {
                  "internalType": "address",
                  "name": "zorroStakingVault",
                  "type": "address"
                },
                {
                  "internalType": "address",
                  "name": "wantAddress",
                  "type": "address"
                },
                {
                  "internalType": "address",
                  "name": "token0Address",
                  "type": "address"
                },
                {
                  "internalType": "address",
                  "name": "token1Address",
                  "type": "address"
                },
                {
                  "internalType": "address",
                  "name": "earnedAddress",
                  "type": "address"
                },
                {
                  "internalType": "address",
                  "name": "farmContractAddress",
                  "type": "address"
                },
                {
                  "internalType": "address",
                  "name": "rewardsAddress",
                  "type": "address"
                },
                {
                  "internalType": "address",
                  "name": "poolAddress",
                  "type": "address"
                },
                {
                  "internalType": "address",
                  "name": "uniRouterAddress",
                  "type": "address"
                },
                {
                  "internalType": "address",
                  "name": "zorroLPPool",
                  "type": "address"
                },
                {
                  "internalType": "address",
                  "name": "zorroLPPoolOtherToken",
                  "type": "address"
                },
                {
                  "internalType": "address",
                  "name": "tokenUSDCAddress",
                  "type": "address"
                }
              ],
              "internalType": "struct VaultBase.VaultAddresses",
              "name": "keyAddresses",
              "type": "tuple"
            },
            {
              "internalType": "address[]",
              "name": "earnedToZORROPath",
              "type": "address[]"
            },
            {
              "internalType": "address[]",
              "name": "earnedToToken0Path",
              "type": "address[]"
            },
            {
              "internalType": "address[]",
              "name": "USDCToToken0Path",
              "type": "address[]"
            },
            {
              "internalType": "address[]",
              "name": "earnedToZORLPPoolOtherTokenPath",
              "type": "address[]"
            },
            {
              "internalType": "address[]",
              "name": "earnedToUSDCPath",
              "type": "address[]"
            },
            {
              "internalType": "address[]",
              "name": "BUSDToToken0Path",
              "type": "address[]"
            },
            {
              "internalType": "address[]",
              "name": "BUSDToZORROPath",
              "type": "address[]"
            },
            {
              "internalType": "address[]",
              "name": "BUSDToLPPoolOtherTokenPath",
              "type": "address[]"
            },
            {
              "components": [
                {
                  "internalType": "uint256",
                  "name": "controllerFee",
                  "type": "uint256"
                },
                {
                  "internalType": "uint256",
                  "name": "buyBackRate",
                  "type": "uint256"
                },
                {
                  "internalType": "uint256",
                  "name": "revShareRate",
                  "type": "uint256"
                },
                {
                  "internalType": "uint256",
                  "name": "entranceFeeFactor",
                  "type": "uint256"
                },
                {
                  "internalType": "uint256",
                  "name": "withdrawFeeFactor",
                  "type": "uint256"
                }
              ],
              "internalType": "struct VaultBase.VaultFees",
              "name": "fees",
              "type": "tuple"
            },
            {
              "components": [
                {
                  "internalType": "address",
                  "name": "token0PriceFeed",
                  "type": "address"
                },
                {
                  "internalType": "address",
                  "name": "token1PriceFeed",
                  "type": "address"
                },
                {
                  "internalType": "address",
                  "name": "earnTokenPriceFeed",
                  "type": "address"
                },
                {
                  "internalType": "address",
                  "name": "ZORPriceFeed",
                  "type": "address"
                },
                {
                  "internalType": "address",
                  "name": "lpPoolOtherTokenPriceFeed",
                  "type": "address"
                }
              ],
              "internalType": "struct VaultBase.VaultPriceFeeds",
              "name": "priceFeeds",
              "type": "tuple"
            }
          ],
          "internalType": "struct VaultAcryptosSingle.VaultAcryptosSingleInit",
          "name": "_initValue",
          "type": "tuple"
        }
      ],
      "name": "initialize",
      "outputs": [],
      "stateMutability": "nonpayable",
      "type": "function"
    },
    {
      "inputs": [
        {
          "internalType": "address",
          "name": "_timelockOwner",
          "type": "address"
        }
      ],
      "name": "initialize",
      "outputs": [],
      "stateMutability": "nonpayable",
      "type": "function"
    },
    {
      "inputs": [
        {
          "internalType": "uint256",
          "name": "_acsWeight",
          "type": "uint256"
        },
        {
          "internalType": "uint256",
          "name": "_busdWeight",
          "type": "uint256"
        }
      ],
      "name": "setBalancerWeights",
      "outputs": [],
      "stateMutability": "nonpayable",
      "type": "function"
    },
    {
      "inputs": [
        {
          "internalType": "uint8",
          "name": "_idx",
          "type": "uint8"
        },
        {
          "internalType": "address[]",
          "name": "_path",
          "type": "address[]"
        }
      ],
      "name": "setBUSDSwapPaths",
      "outputs": [],
      "stateMutability": "nonpayable",
      "type": "function"
    },
    {
      "inputs": [
        {
          "internalType": "address",
          "name": "_account",
          "type": "address"
        },
        {
          "internalType": "uint256",
          "name": "_wantAmt",
          "type": "uint256"
        }
      ],
      "name": "depositWantToken",
      "outputs": [
        {
          "internalType": "uint256",
          "name": "sharesAdded",
          "type": "uint256"
        }
      ],
      "stateMutability": "nonpayable",
      "type": "function"
    },
    {
      "inputs": [
        {
          "internalType": "uint256",
          "name": "_amountUSDC",
          "type": "uint256"
        },
        {
          "internalType": "uint256",
          "name": "_maxMarketMovementAllowed",
          "type": "uint256"
        }
      ],
      "name": "exchangeUSDForWantToken",
      "outputs": [
        {
          "internalType": "uint256",
          "name": "",
          "type": "uint256"
        }
      ],
      "stateMutability": "nonpayable",
      "type": "function"
    },
    {
      "inputs": [],
      "name": "farm",
      "outputs": [],
      "stateMutability": "nonpayable",
      "type": "function"
    },
    {
      "inputs": [
        {
          "internalType": "address",
          "name": "_account",
          "type": "address"
        },
        {
          "internalType": "uint256",
          "name": "_wantAmt",
          "type": "uint256"
        }
      ],
      "name": "withdrawWantToken",
      "outputs": [
        {
          "internalType": "uint256",
          "name": "",
          "type": "uint256"
        }
      ],
      "stateMutability": "nonpayable",
      "type": "function"
    },
    {
      "inputs": [
        {
          "internalType": "uint256",
          "name": "_amount",
          "type": "uint256"
        },
        {
          "internalType": "uint256",
          "name": "_maxMarketMovementAllowed",
          "type": "uint256"
        }
      ],
      "name": "exchangeWantTokenForUSD",
      "outputs": [
        {
          "internalType": "uint256",
          "name": "",
          "type": "uint256"
        }
      ],
      "stateMutability": "nonpayable",
      "type": "function"
    },
    {
      "inputs": [
        {
          "internalType": "uint256",
          "name": "_maxMarketMovementAllowed",
          "type": "uint256"
        }
      ],
      "name": "earn",
      "outputs": [],
      "stateMutability": "nonpayable",
      "type": "function"
    }
  ],
  "bytecode": "0x608060405234801561001057600080fd5b5061559f80620000216000396000f3fe608060405234801561001057600080fd5b50600436106105815760003560e01c80637ff36fbe116102e5578063c4d66de81161018d578063e65a0117116100f4578063ee50dc34116100ad578063f2fde38b11610087578063f2fde38b14610bad578063f5046a2914610bc0578063fbf5683f14610bd3578063ff29b39514610be657600080fd5b8063ee50dc34146106a8578063f106845414610b91578063f25342bf14610b9a57600080fd5b8063e65a011714610b25578063e719847414610b38578063e7a0367914610b4b578063e9e15b4f14610b5e578063ebfba7c414610b71578063edf5e58514610b8457600080fd5b8063d7cb416f11610146578063d7cb416f14610aa6578063db31640c14610ab9578063de69b3aa14610acc578063de84199114610aec578063e0ccabfa14610aff578063e502a88d14610b1257600080fd5b8063c4d66de814610a34578063c5c97cbf14610a47578063c6efd57714610a5a578063c8479cd614610a6d578063c8e3d18b14610a80578063cfad57a214610a9357600080fd5b8063a4d2b0831161024c578063b73cba2a11610205578063bf3a7d40116101df578063bf3a7d4014610a05578063c0973eed14610a18578063c2dfdcd214610a2b578063c302a4d0146108f457600080fd5b8063b73cba2a146109cc578063b86c5f53146109df578063ba0bb4ab146109f257600080fd5b8063a4d2b0831461096d578063aabf190b14610980578063ab196def14610993578063ae53e58a146109a6578063b1414dbb146109b9578063b3545c011461059b57600080fd5b80638906758d1161029e5780638906758d146108fd5780638da5cb5b14610910578063959334f41461092157806396e9aff8146109345780639f703a56146109475780639fc33a9f1461095a57600080fd5b80637ff36fbe146108aa5780638456cb59146108bd5780638460adc9146108c5578063858c5b68146108d857806385f02dd6146108eb578063866b2018146108f457600080fd5b80634ce54ddb11610448578063648794a4116103af5780636f96f6fa11610368578063715018a611610342578063715018a61461085f578063776da470146108675780637bf604d81461088e5780637fe37d33146108a157600080fd5b80636f96f6fa1461082857806370d5ae051461083b57806370e842a11461084457600080fd5b8063648794a4146107d357806367057b6c146106a857806367206d40146107e657806368f54162146107f9578063693a090b146108025780636ca8bd651461081557600080fd5b80635c975abb116104015780635c975abb146107695780635da79d63146107745780635fc77d43146107875780636183e8041461079a57806361b5bf9f146107ad5780636392ab12146107c057600080fd5b80634ce54ddb146107025780634d9f7bb2146106a85780634e2cb8b614610715578063563397d714610728578063583bda3b146107435780635b5133931461075657600080fd5b80631e12819a116104ec5780633f4ba83a116104a55780633f4ba83a146106c257806342da4eb3146106ca57806343788cd2146106a857806344a3955e146106d357806346008a07146106dc5780634c5b09da146106ef57600080fd5b80631e12819a14610680578063211019d71461059b578063213ef7f7146106935780632717eff3146106a85780633214471f146106b157806336e9332d146106ba57600080fd5b80630fa4e01e1161053e5780630fa4e01e1461062c578063127b5bbb146106355780631334903f146106485780631755ff2114610651578063178a8d07146106645780631b0d8aab1461066d57600080fd5b806305828d3e14610586578063061c7d481461059b5780630a868404146105b75780630b6bb30b146105e25780630bdb9070146105f55780630daef32114610608575b600080fd5b610599610594366004614742565b610bf9565b005b6105a46103e881565b6040519081526020015b60405180910390f35b6105ca6105c536600461475f565b610c4e565b6040516001600160a01b0390911681526020016105ae565b6105996105f0366004614791565b610c78565b610599610603366004614aea565b610cfa565b60cb5461061c90600160a01b900460ff1681565b60405190151581526020016105ae565b6105a460e05481565b6105ca61064336600461475f565b6110ba565b6105a460de5481565b60d7546105ca906001600160a01b031681565b6105a460dc5481565b61059961067b36600461475f565b6110ca565b61059961068e366004614742565b6110f9565b6105ca60008051602061554a83398151915281565b6105a461271081565b6105a460dd5481565b610599611145565b61059961117c565b6105a460e15481565b6105a460e25481565b60cb546105ca906001600160a01b031681565b6105996106fd366004614742565b6111b0565b60d5546105ca906001600160a01b031681565b6105ca61072336600461475f565b6111fc565b6105ca734197c6ef3879a08cd51e5560da5064b773aa1d2981565b610599610751366004614742565b61120c565b610599610764366004614cc9565b611258565b60975460ff1661061c565b610599610782366004614742565b6114c8565b60cd546105ca906001600160a01b031681565b6105996107a8366004614742565b611514565b6105996107bb366004614742565b611560565b6105ca6107ce36600461475f565b6115ac565b6105a46107e1366004614cfb565b6115bc565b6105996107f4366004614d1d565b6118bc565b6105a460df5481565b60d8546105ca906001600160a01b031681565b610599610823366004614742565b611986565b60ef546105ca906001600160a01b031681565b6105ca61dead81565b6105ca73a82f327bbbf0667356d2935c6532d164b06ceced81565b6105996119d2565b6105a47f894ed9026de37afd9cce1e6c0be7d6b510e3ffe500010000000000000000000181565b60d9546105ca906001600160a01b031681565b6105a460f35481565b60d1546105ca906001600160a01b031681565b610599611a06565b6105996108d3366004614cfb565b611a38565b6105996108e6366004614d6e565b611a6d565b6105a460db5481565b6105a461232881565b61059961090b366004614742565b611b29565b6033546001600160a01b03166105ca565b61059961092f366004614742565b611b75565b6105ca61094236600461475f565b611bc1565b6105ca61095536600461475f565b611bd1565b60d4546105ca906001600160a01b031681565b60cf546105ca906001600160a01b031681565b60f0546105ca906001600160a01b031681565b60f1546105ca906001600160a01b031681565b60ee546105ca906001600160a01b031681565b60cc546105ca906001600160a01b031681565b6105996109da366004614742565b611be1565b6105ca6109ed36600461475f565b611c2d565b6105a4610a00366004614df6565b611c3d565b610599610a13366004614742565b611dd7565b60d6546105ca906001600160a01b031681565b6105a460f25481565b610599610a42366004614742565b611e23565b6105ca610a5536600461475f565b611ea7565b6105ca610a6836600461475f565b611eb7565b610599610a7b366004614742565b611ec7565b6105ca610a8e36600461475f565b611f13565b610599610aa1366004614742565b611f23565b60d2546105ca906001600160a01b031681565b6105ca610ac736600461475f565b611f9b565b6105a4610ada366004614742565b60e36020526000908152604090205481565b610599610afa366004614e22565b611fab565b6105a4610b0d366004614df6565b6120f1565b6105a4610b20366004614cfb565b612324565b610599610b3336600461475f565b6126eb565b60d3546105ca906001600160a01b031681565b60d0546105ca906001600160a01b031681565b610599610b6c366004614742565b612b9e565b60da546105ca906001600160a01b031681565b60c95461061c9060ff1681565b6105a460ca5481565b60ed546105ca906001600160a01b031681565b610599610bbb366004614742565b612bea565b60ce546105ca906001600160a01b031681565b6105ca610be136600461475f565b612c85565b610599610bf4366004614d6e565b612c95565b6033546001600160a01b03163314610c2c5760405162461bcd60e51b8152600401610c2390614e5b565b60405180910390fd5b60d280546001600160a01b0319166001600160a01b0392909216919091179055565b60f48181548110610c5e57600080fd5b6000918252602090912001546001600160a01b0316905081565b60cb546001600160a01b03163314610ca25760405162461bcd60e51b8152600401610c2390614e90565b60cb8054821515600160a01b0260ff60a01b199091161790556040517f125177ac7b8930dac1e59c2b30b1b6b9191b30af40cf6bbb5d20fec4d44be60f90610cef90831515815260200190565b60405180910390a150565b600054610100900460ff16610d155760005460ff1615610d19565b303b155b610d355760405162461bcd60e51b8152600401610c2390614eae565b600054610100900460ff16158015610d57576000805461ffff19166101011790555b815160ca5560208083015160c9805460ff1916911515919091179055604080840151805160cb8054600160a01b6001600160a01b039384166001600160a81b0319909216919091171790558184015160cc80546001600160a01b03199081169284169290921790558284015160ce8054831691841691909117905560608084015160cf8054841691851691909117905560808085015160d08054851691861691909117905560a085015160d18054851691861691909117905560c085015160d28054851691861691909117905560e085015160d38054851691861691909117905561010085015160d48054851691861691909117905561012085015160d68054851691861691909117905561014085015160d7805485169186169190911790556101608086015160d88054861691871691909117905561018086015160d9805486169187169190911790556101a086015160da805486169187169190911790556101c09095015160d5805490941694169390931790915591860151805160db558085015160dc559283015160dd558282015160de55919091015160df558301518051610f079260ea920190614654565b5060808201518051610f219160e891602090910190614654565b5060a08201518051610f3b9160e491602090910190614654565b5060c08201518051610f559160eb91602090910190614654565b5060e08201518051610f6f9160ec91602090910190614654565b506101008201518051610f8a9160f491602090910190614654565b506101208201518051610fa59160f591602090910190614654565b506101408201518051610fc09160f691602090910190614654565b5061102460e480548060200260200160405190810160405280929190818152602001828054801561101a57602002820191906000526020600020905b81546001600160a01b03168152600190910190602001808311610ffc575b5050505050612d93565b80516110389160e691602090910190614654565b50610180820151805160ed80546001600160a01b03199081166001600160a01b0393841617909155604083015160ef80548316918416919091179055608083015160f08054831691841691909117905560609092015160f1805490931691161790556110a383611e23565b80156110b5576000805461ff00191690555b505050565b60f68181548110610c5e57600080fd5b6033546001600160a01b031633146110f45760405162461bcd60e51b8152600401610c2390614e5b565b60ca55565b6033546001600160a01b031633146111235760405162461bcd60e51b8152600401610c2390614e5b565b60d580546001600160a01b0319166001600160a01b0392909216919091179055565b600260655414156111685760405162461bcd60e51b8152600401610c2390614efc565b6002606555611175612e6d565b6001606555565b60cb546001600160a01b031633146111a65760405162461bcd60e51b8152600401610c2390614e90565b6111ae612f76565b565b6033546001600160a01b031633146111da5760405162461bcd60e51b8152600401610c2390614e5b565b60d480546001600160a01b0319166001600160a01b0392909216919091179055565b60e78181548110610c5e57600080fd5b6033546001600160a01b031633146112365760405162461bcd60e51b8152600401610c2390614e5b565b60ce80546001600160a01b0319166001600160a01b0392909216919091179055565b60cb546001600160a01b031633146112825760405162461bcd60e51b8152600401610c2390614e90565b6123288410156112d45760405162461bcd60e51b815260206004820152601a60248201527f5f656e7472616e6365466565466163746f7220746f6f206c6f770000000000006044820152606401610c23565b6127108411156113265760405162461bcd60e51b815260206004820152601b60248201527f5f656e7472616e6365466565466163746f7220746f6f206869676800000000006044820152606401610c23565b60de84905561232883101561137d5760405162461bcd60e51b815260206004820152601a60248201527f5f7769746864726177466565466163746f7220746f6f206c6f770000000000006044820152606401610c23565b6127108311156113cf5760405162461bcd60e51b815260206004820152601b60248201527f5f7769746864726177466565466163746f7220746f6f206869676800000000006044820152606401610c23565b60df8390556103e88211156114265760405162461bcd60e51b815260206004820152601760248201527f5f636f6e74726f6c6c657246656520746f6f20686967680000000000000000006044820152606401610c23565b60db8290556103e88111156114755760405162461bcd60e51b81526020600482015260156024820152740bec4eaf284c2c6d6a4c2e8ca40e8dede40d0d2ced605b1b6044820152606401610c23565b60dc8190556040805185815260208101859052908101839052606081018290527fd9968429114ac80bd16723a205e45e46393aefba1f08fb7bdffbad9ef60946089060800160405180910390a150505050565b6033546001600160a01b031633146114f25760405162461bcd60e51b8152600401610c2390614e5b565b60d880546001600160a01b0319166001600160a01b0392909216919091179055565b6033546001600160a01b0316331461153e5760405162461bcd60e51b8152600401610c2390614e5b565b60d080546001600160a01b0319166001600160a01b0392909216919091179055565b6033546001600160a01b0316331461158a5760405162461bcd60e51b8152600401610c2390614e5b565b60d980546001600160a01b0319166001600160a01b0392909216919091179055565b60ea8181548110610c5e57600080fd5b60cc546000906001600160a01b0316336001600160a01b0316146115f25760405162461bcd60e51b8152600401610c2390614f33565b60975460ff16156116155760405162461bcd60e51b8152600401610c2390614f5d565b6000831161165c5760405162461bcd60e51b8152602060048201526014602482015273057616e7420616d74206d757374206265203e20360641b6044820152606401610c23565b60d054611674906001600160a01b0316333086613009565b60d45460d05460405163f3fef3a360e01b81526001600160a01b0391821660048201526024810186905291169063f3fef3a390604401600060405180830381600087803b1580156116c457600080fd5b505af11580156116d8573d6000803e3d6000fd5b505060ed54600092506116f491506001600160a01b0316613074565b60d1546040516370a0823160e01b81523060048201529192506000916001600160a01b03909116906370a0823190602401602060405180830381865afa158015611742573d6000803e3d6000fd5b505050506040513d601f19601f820116820180604052508101906117669190614f87565b60d85460d154919250611786916001600160a01b039081169116836131b4565b6040805161014081018252828152602080820185905264e8d4a510008284015260d1546001600160a01b03908116606084015260d554166080830152600060a0830181905260c083015260e0820187905260e68054845181840281018401909552808552611845946101008501939092919083018282801561183157602002820191906000526020600020905b81546001600160a01b03168152600190910190602001808311611813575b505050918352505033602090910152613266565b60d5546040516370a0823160e01b81523060048201526001600160a01b03909116906370a0823190602401602060405180830381865afa15801561188d573d6000803e3d6000fd5b505050506040513d601f19601f820116820180604052508101906118b19190614f87565b925050505b92915050565b60cb546001600160a01b031633146118e65760405162461bcd60e51b8152600401610c2390614e90565b60d3546001600160a01b038481169116141561192c5760405162461bcd60e51b8152602060048201526005602482015264217361666560d81b6044820152606401610c23565b60d0546001600160a01b03848116911614156119725760405162461bcd60e51b8152602060048201526005602482015264217361666560d81b6044820152606401610c23565b6110b56001600160a01b0384168284613349565b6033546001600160a01b031633146119b05760405162461bcd60e51b8152600401610c2390614e5b565b60cf80546001600160a01b0319166001600160a01b0392909216919091179055565b6033546001600160a01b031633146119fc5760405162461bcd60e51b8152600401610c2390614e5b565b6111ae6000613379565b60cb546001600160a01b03163314611a305760405162461bcd60e51b8152600401610c2390614e90565b6111ae6133cb565b6033546001600160a01b03163314611a625760405162461bcd60e51b8152600401610c2390614e5b565b60f29190915560f355565b6033546001600160a01b03163314611a975760405162461bcd60e51b8152600401610c2390614e5b565b60ff8316611ab157611aab60f483836146b5565b50505050565b8260ff1660011415611ac957611aab60f583836146b5565b8260ff1660021415611ae157611aab60f683836146b5565b60405162461bcd60e51b815260206004820152601960248201527f756e737570706f727465642069647820737761702070617468000000000000006044820152606401610c23565b6033546001600160a01b03163314611b535760405162461bcd60e51b8152600401610c2390614e5b565b60d680546001600160a01b0319166001600160a01b0392909216919091179055565b6033546001600160a01b03163314611b9f5760405162461bcd60e51b8152600401610c2390614e5b565b60da80546001600160a01b0319166001600160a01b0392909216919091179055565b60e98181548110610c5e57600080fd5b60ec8181548110610c5e57600080fd5b6033546001600160a01b03163314611c0b5760405162461bcd60e51b8152600401610c2390614e5b565b60d380546001600160a01b0319166001600160a01b0392909216919091179055565b60e48181548110610c5e57600080fd5b60cc546000906001600160a01b0316336001600160a01b031614611c735760405162461bcd60e51b8152600401610c2390614f33565b60026065541415611c965760405162461bcd60e51b8152600401610c2390614efc565b600260655560975460ff1615611cbe5760405162461bcd60e51b8152600401610c2390614f5d565b60008211611d0e5760405162461bcd60e51b815260206004820152601e60248201527f57616e7420746f6b656e206465706f736974206d757374206265203e203000006044820152606401610c23565b60d054611d26906001600160a01b0316333085613009565b819050600060e154118015611d3d5750600060e254115b15611d7857611d75612710611d6f60e154611d6f60de54611d6960e2548961342390919063ffffffff16565b90613423565b90613436565b90505b60e254611d859082613442565b60e2556001600160a01b038316600090815260e36020526040902054611dab9082613442565b6001600160a01b038416600090815260e36020526040902055611dcc612e6d565b600160655592915050565b6033546001600160a01b03163314611e015760405162461bcd60e51b8152600401610c2390614e5b565b60cc80546001600160a01b0319166001600160a01b0392909216919091179055565b600054610100900460ff16611e3e5760005460ff1615611e42565b303b155b611e5e5760405162461bcd60e51b8152600401610c2390614eae565b600054610100900460ff16158015611e80576000805461ffff19166101011790555b611e8861344e565b611e9182612bea565b8015611ea3576000805461ff00191690555b5050565b60e58181548110610c5e57600080fd5b60e68181548110610c5e57600080fd5b6033546001600160a01b03163314611ef15760405162461bcd60e51b8152600401610c2390614e5b565b60d180546001600160a01b0319166001600160a01b0392909216919091179055565b60e88181548110610c5e57600080fd5b60cb546001600160a01b03163314611f4d5760405162461bcd60e51b8152600401610c2390614e90565b60cb80546001600160a01b0319166001600160a01b0383169081179091556040519081527f91a8c1cc2d4a3bb60738481947a00cbb9899c822916694cf8bb1d68172fdcd5490602001610cef565b60f58181548110610c5e57600080fd5b6033546001600160a01b03163314611fd55760405162461bcd60e51b8152600401610c2390614e5b565b60ff8216611ffe5760ed80546001600160a01b0383166001600160a01b03199091161790555050565b8160ff166001141561202b5760ee80546001600160a01b0383166001600160a01b03199091161790555050565b8160ff16600214156120585760ef80546001600160a01b0383166001600160a01b03199091161790555050565b8160ff16600314156120855760f180546001600160a01b0383166001600160a01b03199091161790555050565b8160ff16600414156120b25760f080546001600160a01b0383166001600160a01b03199091161790555050565b60405162461bcd60e51b81526020600482015260146024820152730eadce6eae0e0dee4e8cac840cccacac840d2c8f60631b6044820152606401610c23565b60cc546000906001600160a01b0316336001600160a01b0316146121275760405162461bcd60e51b8152600401610c2390614f33565b6002606554141561214a5760405162461bcd60e51b8152600401610c2390614efc565b600260655560975460ff16156121725760405162461bcd60e51b8152600401610c2390614f5d565b600082116121b25760405162461bcd60e51b815260206004820152600d60248201526c077616e7420616d74203c3d203609c1b6044820152606401610c23565b60006121cf60e154611d6f60e2548661342390919063ffffffff16565b905060e2548111156121e0575060e2545b60e2546121ed908261347d565b60e2556001600160a01b038416600090815260e36020526040902054612213908261347d565b6001600160a01b038516600090815260e3602052604090205560df54612710111561225657612253612710611d6f60df548661342390919063ffffffff16565b92505b61225f83613489565b60d0546040516370a0823160e01b81523060048201526000916001600160a01b0316906370a0823190602401602060405180830381865afa1580156122a8573d6000803e3d6000fd5b505050506040513d601f19601f820116820180604052508101906122cc9190614f87565b9050808411156122da578093505b8360e15410156122ea5760e15493505b60e1546122f7908561347d565b60e15560cc5460d054612317916001600160a01b03918216911686613349565b5060016065559392505050565b60cc546000906001600160a01b0316336001600160a01b03161461235a5760405162461bcd60e51b8152600401610c2390614f33565b60975460ff161561237d5760405162461bcd60e51b8152600401610c2390614f5d565b60d5546040516370a0823160e01b81523060048201526000916001600160a01b0316906370a0823190602401602060405180830381865afa1580156123c6573d6000803e3d6000fd5b505050506040513d601f19601f820116820180604052508101906123ea9190614f87565b90506000841161243c5760405162461bcd60e51b815260206004820152601860248201527f55534443206465706f736974206d757374206265203e203000000000000000006044820152606401610c23565b8084111561248c5760405162461bcd60e51b815260206004820152601960248201527f5553444320646573697265642065786365656465642062616c000000000000006044820152606401610c23565b60ed546000906124a4906001600160a01b0316613074565b60d85460d5549192506124c4916001600160a01b039081169116876131b4565b604080516101408101825286815264e8d4a5100060208083019190915281830184905260d5546001600160a01b03908116606084015260d154166080830152600060a0830181905260c083015260e0820187905260e48054845181840281018401909552808552612586946101008501939092919083018282801561257257602002820191906000526020600020905b81546001600160a01b03168152600190910190602001808311612554575b505050918352505030602090910152613266565b60d1546040516370a0823160e01b81523060048201526000916001600160a01b0316906370a0823190602401602060405180830381865afa1580156125cf573d6000803e3d6000fd5b505050506040513d601f19601f820116820180604052508101906125f39190614f87565b60d75460405163b6b55f2560e01b8152600481018390529192506001600160a01b03169063b6b55f2590602401600060405180830381600087803b15801561263a57600080fd5b505af115801561264e573d6000803e3d6000fd5b505060d0546040516370a0823160e01b8152306004820152600093506001600160a01b0390911691506370a0823190602401602060405180830381865afa15801561269d573d6000803e3d6000fd5b505050506040513d601f19601f820116820180604052508101906126c19190614f87565b60cc5460d0549192506126e1916001600160a01b03908116911683613349565b9695505050505050565b6002606554141561270e5760405162461bcd60e51b8152600401610c2390614efc565b600260655560975460ff16156127365760405162461bcd60e51b8152600401610c2390614f5d565b60cb54600160a01b900460ff16156127725760cb546001600160a01b031633146127725760405162461bcd60e51b8152600401610c2390614e90565b61277c6000613489565b60d3546040516370a0823160e01b81523060048201526000916001600160a01b0316906370a0823190602401602060405180830381865afa1580156127c5573d6000803e3d6000fd5b505050506040513d601f19601f820116820180604052508101906127e99190614f87565b60ef54909150600090612804906001600160a01b0316613074565b60ed5490915060009061281f906001600160a01b0316613074565b60f15490915060009061283a906001600160a01b0316613074565b60f154909150600090612855906001600160a01b0316613074565b604080516060810182528681526020810185905290810182905290915061287b866134c4565b9550612888868883613523565b6040805161014081018252828152602080820189905264e8d4a510008284015260d3546001600160a01b0316606083015260008051602061554a833981519152608083015260f25460a083015260f35460c083015260e082018b905260e88054845181840281018401909552808552949a506129539492936101008501939092830182828015612572576020028201919060005260206000209081546001600160a01b0316815260019091019060200180831161255457505050918352505030602090910152613266565b6040516370a0823160e01b815230600482015260009060008051602061554a833981519152906370a0823190602401602060405180830381865afa15801561299f573d6000803e3d6000fd5b505050506040513d601f19601f820116820180604052508101906129c39190614f87565b60d8549091506129ec9060008051602061554a833981519152906001600160a01b0316836131b4565b604080516101408101825282815264e8d4a5100060208083019190915281830188905260008051602061554a833981519152606083015260d1546001600160a01b03166080830152600060a0830181905260c083015260e082018b905260f48054845181840281018401909552808552612ab59461010085019390929190830182828015612572576020028201919060005260206000209081546001600160a01b0316815260019091019060200180831161255457505050918352505030602090910152613266565b60d1546040516370a0823160e01b81523060048201526000916001600160a01b0316906370a0823190602401602060405180830381865afa158015612afe573d6000803e3d6000fd5b505050506040513d601f19601f82011682018060405250810190612b229190614f87565b60d75460405163b6b55f2560e01b8152600481018390529192506001600160a01b03169063b6b55f2590602401600060405180830381600087803b158015612b6957600080fd5b505af1158015612b7d573d6000803e3d6000fd5b50504360e05550612b8e9050612e6d565b5050600160655550505050505050565b6033546001600160a01b03163314612bc85760405162461bcd60e51b8152600401610c2390614e5b565b60d780546001600160a01b0319166001600160a01b0392909216919091179055565b6033546001600160a01b03163314612c145760405162461bcd60e51b8152600401610c2390614e5b565b6001600160a01b038116612c795760405162461bcd60e51b815260206004820152602660248201527f4f776e61626c653a206e6577206f776e657220697320746865207a65726f206160448201526564647265737360d01b6064820152608401610c23565b612c8281613379565b50565b60eb8181548110610c5e57600080fd5b6033546001600160a01b03163314612cbf5760405162461bcd60e51b8152600401610c2390614e5b565b60ff8316612cd357611aab60e483836146b5565b8260ff1660011415612ceb57611aab60e583836146b5565b8260ff1660021415612d0357611aab60e683836146b5565b8260ff1660031415612d1b57611aab60e783836146b5565b8260ff1660041415612d3357611aab60e883836146b5565b8260ff1660051415612d4b57611aab60e983836146b5565b8260ff1660061415612d6357611aab60ea83836146b5565b8260ff1660071415612d7b57611aab60eb83836146b5565b8260ff16600814156120b257611aab60ec83836146b5565b80516060908067ffffffffffffffff811115612db157612db16147ae565b604051908082528060200260200182016040528015612dda578160200160208202803683370190505b50915060005b818161ffff161015612e665783612e108261ffff16612e0a6001885161347d90919063ffffffff16565b9061347d565b81518110612e2057612e20614fa0565b6020026020010151838261ffff1681518110612e3e57612e3e614fa0565b6001600160a01b0390921660209283029190910190910152612e5f81614fcc565b9050612de0565b5050919050565b60d0546040516370a0823160e01b81523060048201526000916001600160a01b0316906370a0823190602401602060405180830381865afa158015612eb6573d6000803e3d6000fd5b505050506040513d601f19601f82011682018060405250810190612eda9190614f87565b60e154909150612eea9082613442565b60e15560d45460d054612f0a916001600160a01b039182169116836131b4565b60d45460d0546040516311f9fbc960e21b81526001600160a01b039182166004820152602481018490529116906347e7ef24906044015b600060405180830381600087803b158015612f5b57600080fd5b505af1158015612f6f573d6000803e3d6000fd5b5050505050565b60975460ff16612fbf5760405162461bcd60e51b815260206004820152601460248201527314185d5cd8589b194e881b9bdd081c185d5cd95960621b6044820152606401610c23565b6097805460ff191690557f5db9ee0a495bf2e6ff9c91a7834c1ba4fdd244a5e8aa4e537bd38aeae4b073aa335b6040516001600160a01b03909116815260200160405180910390a1565b6040516001600160a01b0380851660248301528316604482015260648101829052611aab9085906323b872dd60e01b906084015b60408051601f198184030181529190526020810180516001600160e01b03166001600160e01b03199093169290921790915261361c565b600080826001600160a01b031663313ce5676040518163ffffffff1660e01b8152600401602060405180830381865afa1580156130b5573d6000803e3d6000fd5b505050506040513d601f19601f820116820180604052508101906130d99190614fee565b90506000836001600160a01b031663feaf968c6040518163ffffffff1660e01b815260040160a060405180830381865afa15801561311b573d6000803e3d6000fd5b505050506040513d601f19601f8201168201806040525081019061313f9190615025565b505050915050600081121561318f5760405162461bcd60e51b81526020600482015260166024820152751b9959c81c1c9a58d95cc81b9bdd08185b1b1bddd95960521b6044820152606401610c23565b6131ac61319d83600a615159565b611d6f8364e8d4a51000613423565b949350505050565b604051636eb1769f60e11b81523060048201526001600160a01b038381166024830152600091839186169063dd62ed3e90604401602060405180830381865afa158015613205573d6000803e3d6000fd5b505050506040513d601f19601f820116820180604052508101906132299190614f87565b6132339190615168565b6040516001600160a01b038516602482015260448101829052909150611aab90859063095ea7b360e01b9060640161303d565b60608101516001600160a01b0316734197c6ef3879a08cd51e5560da5064b773aa1d2914806132b5575060808101516001600160a01b0316734197c6ef3879a08cd51e5560da5064b773aa1d29145b156132f957612c8273a82f327bbbf0667356d2935c6532d164b06ceced7f894ed9026de37afd9cce1e6c0be7d6b510e3ffe5000100000000000000000001836136ee565b612c828160000151826020015183604001518460e001518561010001518661012001516133316102584261344290919063ffffffff16565b60d8546001600160a01b0316969594939291906138a3565b6040516001600160a01b0383166024820152604481018290526110b590849063a9059cbb60e01b9060640161303d565b603380546001600160a01b038381166001600160a01b0319831681179093556040519116919082907f8be0079c531659141344cd1fd0a4f28419497f9722a3daafe3b4186f6b6457e090600090a35050565b60975460ff16156133ee5760405162461bcd60e51b8152600401610c2390614f5d565b6097805460ff191660011790557f62e78cea01bee320cd4e420270b5ea74000d11b0c9f74754ebdbfc544b05a258612fec3390565b600061342f8284615180565b9392505050565b600061342f828461519f565b600061342f8284615168565b600054610100900460ff166134755760405162461bcd60e51b8152600401610c23906151c1565b6111ae613a05565b600061342f828461520c565b60d45460d05460405163f3fef3a360e01b81526001600160a01b0391821660048201526024810184905291169063f3fef3a390604401612f41565b6000811561351f5760db541561351f5760006134f1612710611d6f60db548661342390919063ffffffff16565b60d65460d354919250613511916001600160a01b03908116911683613349565b61351b838261347d565b9250505b5090565b60dc5460009081901561354e5761354b612710611d6f60dc548861342390919063ffffffff16565b90505b600060c95460ff161561357657613566828686613a35565b613571818686613f63565b61360e565b6135966135838383613442565b60cc546001600160a01b03168787614157565b60cd5460ca5460405163464e3c8b60e01b815260048101919091526024810184905260448101839052606481018790526001600160a01b039091169063464e3c8b90608401600060405180830381600087803b1580156135f557600080fd5b505af1158015613609573d6000803e3d6000fd5b505050505b6126e181612e0a888561347d565b6000613671826040518060400160405280602081526020017f5361666545524332303a206c6f772d6c6576656c2063616c6c206661696c6564815250856001600160a01b031661439c9092919063ffffffff16565b8051909150156110b5578080602001905181019061368f9190615223565b6110b55760405162461bcd60e51b815260206004820152602a60248201527f5361666545524332303a204552433230206f7065726174696f6e20646964206e6044820152691bdd081cdd58d8d9595960b21b6064820152608401610c23565b600081602001516000148061370557506040820151155b1561373e576137376103e8611d6f8460e00151611d6964e8d4a51000611d6f61372f8b8b8b6143ab565b895190613423565b9050613772565b61376f6103e8611d6f8460e00151611d698660400151611d6f8860200151896000015161342390919063ffffffff16565b90505b836001600160a01b03166352bbbe296040518060c00160405280868152602001600060018111156137a5576137a5615240565b815260200185606001516001600160a01b0316815260200185608001516001600160a01b0316815260200185600001518152602001604051806020016040528060008152508152506040518060800160405280306001600160a01b031681526020016000151581526020018661012001516001600160a01b0316815260200160001515815250846138416102584261344290919063ffffffff16565b6040518563ffffffff1660e01b815260040161386094939291906152ae565b6020604051808303816000875af115801561387f573d6000803e3d6000fd5b505050506040513d601f19601f82011682018060405250810190612f6f9190614f87565b60008615806138b0575085155b1561397b5760405163d06ca61f60e01b81526000906001600160a01b038b169063d06ca61f906138e6908c9089906004016153d0565b600060405180830381865afa158015613903573d6000803e3d6000fd5b505050506040513d6000823e601f3d908101601f1916820160405261392b91908101906153e9565b90506139736103e8611d6f888461394d6001875161347d90919063ffffffff16565b8151811061395d5761395d614fa0565b602002602001015161342390919063ffffffff16565b915050613994565b6139916103e8611d6f87611d698a838e8e613423565b90505b604051635c11d79560e01b81526001600160a01b038a1690635c11d795906139c8908b90859089908990899060040161546f565b600060405180830381600087803b1580156139e257600080fd5b505af11580156139f6573d6000803e3d6000fd5b50505050505050505050505050565b600054610100900460ff16613a2c5760405162461bcd60e51b8152600401610c23906151c1565b6111ae33613379565b60d85460d354613a52916001600160a01b039182169116856131b4565b60408051610140810182528481528251602082015264e8d4a510009181019190915260d3546001600160a01b031660608281019190915260008051602061554a833981519152608083015260f25460a083015260f35460c083015260e0820184905261010082018190523061012083015290613acd90613266565b6040516370a0823160e01b815230600482015260009060008051602061554a833981519152906370a0823190602401602060405180830381865afa158015613b19573d6000803e3d6000fd5b505050506040513d601f19601f82011682018060405250810190613b3d9190614f87565b60d854909150613b669060008051602061554a833981519152906001600160a01b0316836131b4565b613c60604051806101400160405280613b8960028561343690919063ffffffff16565b815260200164e8d4a5100081526020018560200151815260200160008051602061554a8339815191526001600160a01b0316815260200160ce60009054906101000a90046001600160a01b03166001600160a01b03168152602001600081526020016000815260200186815260200160f5805480602002602001604051908101604052809291908181526020018280548015612572576020028201919060005260206000209081546001600160a01b0316815260019091019060200180831161255457505050918352505030602090910152613266565b613d42604051806101400160405280613c8360028561343690919063ffffffff16565b815264e8d4a510006020808301919091526040878101518184015260008051602061554a833981519152606084015260da546001600160a01b03166080840152600060a0840181905260c084015260e0830189905260f68054825181850281018501909352808352610100909401939192909190830182828015612572576020028201919060005260206000209081546001600160a01b0316815260019091019060200180831161255457505050918352505030602090910152613266565b60ce546040516370a0823160e01b81523060048201526000916001600160a01b0316906370a0823190602401602060405180830381865afa158015613d8b573d6000803e3d6000fd5b505050506040513d601f19601f82011682018060405250810190613daf9190614f87565b60da546040516370a0823160e01b81523060048201529192506000916001600160a01b03909116906370a0823190602401602060405180830381865afa158015613dfd573d6000803e3d6000fd5b505050506040513d601f19601f82011682018060405250810190613e219190614f87565b60d85460ce54919250613e41916001600160a01b039081169116846131b4565b60d85460da54613e5e916001600160a01b039182169116836131b4565b60d85460ce5460da546001600160a01b039283169263e8e3370092811691168585613e8f6103e8611d6f848f613423565b613ea86103e8611d6f8f8b61342390919063ffffffff16565b61dead613eb742610258613442565b60405160e08a901b6001600160e01b03191681526001600160a01b039889166004820152968816602488015260448701959095526064860193909352608485019190915260a484015290921660c482015260e4810191909152610104016060604051808303816000875af1158015613f33573d6000803e3d6000fd5b505050506040513d601f19601f82011682018060405250810190613f5791906154ab565b50505050505050505050565b60d85460d354613f80916001600160a01b039182169116856131b4565b60408051610140810182528481528251602082015264e8d4a510009181019190915260d3546001600160a01b031660608281019190915260008051602061554a833981519152608083015260f25460a083015260f35460c083015260e0820184905261010082018190523061012083015290613ffb90613266565b60d5546040516370a0823160e01b81523060048201526000916001600160a01b0316906370a0823190602401602060405180830381865afa158015614044573d6000803e3d6000fd5b505050506040513d601f19601f820116820180604052508101906140689190614f87565b60d85460d554919250614088916001600160a01b039081169116836131b4565b604080516101408101825282815264e8d4a51000602080830191909152858101518284015260d5546001600160a01b03908116606084015260ce54166080830152600060a0830181905260c083015260e0820187905260f58054845181840281018401909552808552612f6f946101008501939092919083018282801561413857602002820191906000526020600020905b81546001600160a01b0316815260019091019060200180831161411a575b505050918352505060cf546001600160a01b0316602090910152613266565b6040805161014081018252858152825160208083019190915264e8d4a510008284015260d3546001600160a01b0316606083015260008051602061554a833981519152608083015260f25460a083015260f35460c083015260e0820185905260ec80548451818402810184019095528085526142229461010085019390929190830182828015612572576020028201919060005260206000209081546001600160a01b0316815260019091019060200180831161255457505050918352505030602090910152613266565b6040516370a0823160e01b815230600482015260009060008051602061554a833981519152906370a0823190602401602060405180830381865afa15801561426e573d6000803e3d6000fd5b505050506040513d601f19601f820116820180604052508101906142929190614f87565b9050606060008051602061554a833981519152816000815181106142b8576142b8614fa0565b6001600160a01b03928316602091820292909201015260d5548251911690829060019081106142e9576142e9614fa0565b6001600160a01b03928316602091820292909201015260d85461431d9160008051602061554a8339815191529116846131b4565b604080516101408101825283815264e8d4a51000602082018190529181019190915260008051602061554a833981519152606082015260d5546001600160a01b039081166080830152600060a0830181905260c083015260e082018690526101008201839052861661012082015261439490613266565b505050505050565b60606131ac84846000856144ea565b608081015160405163160bf1c960e31b8152600481018490526001600160a01b03918216602482015260009182919086169063b05f8e48906044016080604051808303816000875af1158015614405573d6000803e3d6000fd5b505050506040513d601f19601f8201168201806040525081019061442991906154d9565b505050606084015160405163160bf1c960e31b8152600481018790526001600160a01b0391821660248201529192506000919087169063b05f8e48906044016080604051808303816000875af1158015614487573d6000803e3d6000fd5b505050506040513d601f19601f820116820180604052508101906144ab91906154d9565b50505090506126e16144ca8560c001518361342390919063ffffffff16565b611d6f64e8d4a51000611d698860a001518761342390919063ffffffff16565b60608247101561454b5760405162461bcd60e51b815260206004820152602660248201527f416464726573733a20696e73756666696369656e742062616c616e636520666f6044820152651c8818d85b1b60d21b6064820152608401610c23565b6001600160a01b0385163b6145a25760405162461bcd60e51b815260206004820152601d60248201527f416464726573733a2063616c6c20746f206e6f6e2d636f6e74726163740000006044820152606401610c23565b600080866001600160a01b031685876040516145be919061551a565b60006040518083038185875af1925050503d80600081146145fb576040519150601f19603f3d011682016040523d82523d6000602084013e614600565b606091505b509150915061461082828661461b565b979650505050505050565b6060831561462a57508161342f565b82511561463a5782518084602001fd5b8160405162461bcd60e51b8152600401610c239190615536565b8280548282559060005260206000209081019282156146a9579160200282015b828111156146a957825182546001600160a01b0319166001600160a01b03909116178255602090920191600190910190614674565b5061351f929150614708565b8280548282559060005260206000209081019282156146a9579160200282015b828111156146a95781546001600160a01b0319166001600160a01b038435161782556020909201916001909101906146d5565b5b8082111561351f5760008155600101614709565b6001600160a01b0381168114612c8257600080fd5b803561473d8161471d565b919050565b60006020828403121561475457600080fd5b813561342f8161471d565b60006020828403121561477157600080fd5b5035919050565b8015158114612c8257600080fd5b803561473d81614778565b6000602082840312156147a357600080fd5b813561342f81614778565b634e487b7160e01b600052604160045260246000fd5b6040516101e0810167ffffffffffffffff811182821017156147e8576147e86147ae565b60405290565b60405160a0810167ffffffffffffffff811182821017156147e8576147e86147ae565b6040516101a0810167ffffffffffffffff811182821017156147e8576147e86147ae565b604051601f8201601f1916810167ffffffffffffffff8111828210171561485e5761485e6147ae565b604052919050565b60006101e0828403121561487957600080fd5b6148816147c4565b905061488c82614732565b815261489a60208301614732565b60208201526148ab60408301614732565b60408201526148bc60608301614732565b60608201526148cd60808301614732565b60808201526148de60a08301614732565b60a08201526148ef60c08301614732565b60c082015261490060e08301614732565b60e0820152610100614913818401614732565b90820152610120614925838201614732565b90820152610140614937838201614732565b90820152610160614949838201614732565b9082015261018061495b838201614732565b908201526101a061496d838201614732565b908201526101c061497f838201614732565b9082015292915050565b600067ffffffffffffffff8211156149a3576149a36147ae565b5060051b60200190565b600082601f8301126149be57600080fd5b813560206149d36149ce83614989565b614835565b82815260059290921b840181019181810190868411156149f257600080fd5b8286015b84811015614a16578035614a098161471d565b83529183019183016149f6565b509695505050505050565b600060a08284031215614a3357600080fd5b614a3b6147ee565b9050813581526020820135602082015260408201356040820152606082013560608201526080820135608082015292915050565b600060a08284031215614a8157600080fd5b614a896147ee565b90508135614a968161471d565b81526020820135614aa68161471d565b60208201526040820135614ab98161471d565b60408201526060820135614acc8161471d565b60608201526080820135614adf8161471d565b608082015292915050565b60008060408385031215614afd57600080fd5b8235614b088161471d565b9150602083013567ffffffffffffffff80821115614b2557600080fd5b908401906104608287031215614b3a57600080fd5b614b42614811565b82358152614b5260208401614786565b6020820152614b648760408501614866565b604082015261022083013582811115614b7c57600080fd5b614b88888286016149ad565b60608301525061024083013582811115614ba157600080fd5b614bad888286016149ad565b60808301525061026083013582811115614bc657600080fd5b614bd2888286016149ad565b60a08301525061028083013582811115614beb57600080fd5b614bf7888286016149ad565b60c0830152506102a083013582811115614c1057600080fd5b614c1c888286016149ad565b60e0830152506102c083013582811115614c3557600080fd5b614c41888286016149ad565b610100830152506102e083013582811115614c5b57600080fd5b614c67888286016149ad565b6101208301525061030083013582811115614c8157600080fd5b614c8d888286016149ad565b61014083015250614ca2876103208501614a21565b610160820152614cb6876103c08501614a6f565b6101808201528093505050509250929050565b60008060008060808587031215614cdf57600080fd5b5050823594602084013594506040840135936060013592509050565b60008060408385031215614d0e57600080fd5b50508035926020909101359150565b600080600060608486031215614d3257600080fd5b8335614d3d8161471d565b9250602084013591506040840135614d548161471d565b809150509250925092565b60ff81168114612c8257600080fd5b600080600060408486031215614d8357600080fd5b8335614d8e81614d5f565b9250602084013567ffffffffffffffff80821115614dab57600080fd5b818601915086601f830112614dbf57600080fd5b813581811115614dce57600080fd5b8760208260051b8501011115614de357600080fd5b6020830194508093505050509250925092565b60008060408385031215614e0957600080fd5b8235614e148161471d565b946020939093013593505050565b60008060408385031215614e3557600080fd5b8235614e4081614d5f565b91506020830135614e508161471d565b809150509250929050565b6020808252818101527f4f776e61626c653a2063616c6c6572206973206e6f7420746865206f776e6572604082015260600190565b60208082526004908201526310b3b7bb60e11b604082015260600190565b6020808252602e908201527f496e697469616c697a61626c653a20636f6e747261637420697320616c72656160408201526d191e481a5b9a5d1a585b1a5e995960921b606082015260800190565b6020808252601f908201527f5265656e7472616e637947756172643a207265656e7472616e742063616c6c00604082015260600190565b60208082526010908201526f10bd37b93937a1b7b73a3937b63632b960811b604082015260600190565b60208082526010908201526f14185d5cd8589b194e881c185d5cd95960821b604082015260600190565b600060208284031215614f9957600080fd5b5051919050565b634e487b7160e01b600052603260045260246000fd5b634e487b7160e01b600052601160045260246000fd5b600061ffff80831681811415614fe457614fe4614fb6565b6001019392505050565b60006020828403121561500057600080fd5b815161342f81614d5f565b805169ffffffffffffffffffff8116811461473d57600080fd5b600080600080600060a0868803121561503d57600080fd5b6150468661500b565b94506020860151935060408601519250606086015191506150696080870161500b565b90509295509295909350565b600181815b808511156150b057816000190482111561509657615096614fb6565b808516156150a357918102915b93841c939080029061507a565b509250929050565b6000826150c7575060016118b6565b816150d4575060006118b6565b81600181146150ea57600281146150f457615110565b60019150506118b6565b60ff84111561510557615105614fb6565b50506001821b6118b6565b5060208310610133831016604e8410600b8410161715615133575081810a6118b6565b61513d8383615075565b806000190482111561515157615151614fb6565b029392505050565b600061342f60ff8416836150b8565b6000821982111561517b5761517b614fb6565b500190565b600081600019048311821515161561519a5761519a614fb6565b500290565b6000826151bc57634e487b7160e01b600052601260045260246000fd5b500490565b6020808252602b908201527f496e697469616c697a61626c653a20636f6e7472616374206973206e6f74206960408201526a6e697469616c697a696e6760a81b606082015260800190565b60008282101561521e5761521e614fb6565b500390565b60006020828403121561523557600080fd5b815161342f81614778565b634e487b7160e01b600052602160045260246000fd5b60005b83811015615271578181015183820152602001615259565b83811115611aab5750506000910152565b6000815180845261529a816020860160208601615256565b601f01601f19169290920160200192915050565b60e08152845160e082015260006020860151600281106152de57634e487b7160e01b600052602160045260246000fd5b61010083015260408601516001600160a01b031661012083015260608601516153136101408401826001600160a01b03169052565b50608086015161016083015260a086015160c061018084015261533a6101a0840182615282565b91505061537a602083018680516001600160a01b039081168352602080830151151590840152604080830151909116908301526060908101511515910152565b60a082019390935260c0015292915050565b600081518084526020808501945080840160005b838110156153c55781516001600160a01b0316875295820195908201906001016153a0565b509495945050505050565b8281526040602082015260006131ac604083018461538c565b600060208083850312156153fc57600080fd5b825167ffffffffffffffff81111561541357600080fd5b8301601f8101851361542457600080fd5b80516154326149ce82614989565b81815260059190911b8201830190838101908783111561545157600080fd5b928401925b8284101561461057835182529284019290840190615456565b85815284602082015260a06040820152600061548e60a083018661538c565b6001600160a01b0394909416606083015250608001529392505050565b6000806000606084860312156154c057600080fd5b8351925060208401519150604084015190509250925092565b600080600080608085870312156154ef57600080fd5b845193506020850151925060408501519150606085015161550f8161471d565b939692955090935050565b6000825161552c818460208701615256565b9190910192915050565b60208152600061342f602083018461528256fe000000000000000000000000e9e7cea3dedca5984780bafc599bd69add087d56a2646970667358221220e09f07e0b6112b86f128b0eb468af539ca5b00636e58ee3b0a4dc6abc9e79dbc64736f6c634300080a0033",
  "immutableReferences": {},
  "source": "// SPDX-License-Identifier: MIT\n\npragma solidity ^0.8.0;\n\nimport \"@openzeppelin/contracts-upgradeable/token/ERC20/utils/SafeERC20Upgradeable.sol\";\n\nimport \"../interfaces/IAMMFarm.sol\";\n\nimport \"../interfaces/IAcryptosFarm.sol\";\n\nimport \"../interfaces/IAcryptosVault.sol\";\n\nimport \"@openzeppelin/contracts-upgradeable/token/ERC20/IERC20Upgradeable.sol\";\n\nimport \"@openzeppelin/contracts-upgradeable/utils/math/SafeMathUpgradeable.sol\";\n\nimport \"./_VaultBase.sol\";\n\nimport \"../interfaces/IBalancerVault.sol\";\n\nimport \"../libraries/PriceFeed.sol\";\n\nimport \"@openzeppelin/contracts-upgradeable/proxy/ClonesUpgradeable.sol\";\n\n/// @title Vault factory for VaultAcryptosSingle\ncontract VaultFactoryAcryptosSingle is Initializable, OwnableUpgradeable {\n    /* State */\n\n    VaultAcryptosSingle[] public deployedVaults; // All deployed vaults\n    address public masterVault; // Address of the upgradeable proxy that delegates to the master vault contract\n\n    /* Constructor */\n\n    function initialize(address _masterVault) public initializer {\n        // Set master vault address\n        masterVault = _masterVault;\n\n        // Ownable\n        __Ownable_init();\n    }\n\n    /* Factory functions */\n\n    function createVault(\n        address _timelockOwner,\n        VaultAcryptosSingle.VaultAcryptosSingleInit memory _initValue\n    ) external onlyOwner {\n        // Create clone\n        VaultAcryptosSingle _vault = VaultAcryptosSingle(\n            ClonesUpgradeable.clone(masterVault)\n        );\n        // Initialize cloned contract\n        _vault.initialize(_timelockOwner, _initValue);\n        // Add to array of deployed vaults\n        deployedVaults.push(_vault);\n    }\n\n    function numVaults() external view returns (uint256) {\n        return deployedVaults.length;\n    }\n}\n\n/// @title Vault contract for Acryptos single token strategies (e.g. for lending)\ncontract VaultAcryptosSingle is VaultBase {\n    /* Libraries */\n    using SafeMathUpgradeable for uint256;\n    using SafeERC20Upgradeable for IERC20Upgradeable;\n    using SafeSwapBalancer for IBalancerVault;\n    using SafeSwapUni for IAMMRouter02;\n    using PriceFeed for AggregatorV3Interface;\n\n    /* Constructor */\n    /// @notice Upgradeable constructor\n    /// @param _initValue A VaultAcryptosSingleInit struct containing all init values\n    /// @param _timelockOwner The designated timelock controller address to act as owner\n    function initialize(\n        address _timelockOwner,\n        VaultAcryptosSingleInit memory _initValue\n    ) public initializer {\n        // Vault config\n        pid = _initValue.pid;\n        isHomeChain = _initValue.isHomeChain;\n\n        // Addresses\n        govAddress = _initValue.keyAddresses.govAddress;\n        onlyGov = true;\n        zorroControllerAddress = _initValue.keyAddresses.zorroControllerAddress;\n        ZORROAddress = _initValue.keyAddresses.ZORROAddress;\n        zorroStakingVault = _initValue.keyAddresses.zorroStakingVault;\n        wantAddress = _initValue.keyAddresses.wantAddress;\n        token0Address = _initValue.keyAddresses.token0Address;\n        token1Address = _initValue.keyAddresses.token1Address;\n        earnedAddress = _initValue.keyAddresses.earnedAddress;\n        farmContractAddress = _initValue.keyAddresses.farmContractAddress;\n        rewardsAddress = _initValue.keyAddresses.rewardsAddress;\n        poolAddress = _initValue.keyAddresses.poolAddress;\n        uniRouterAddress = _initValue.keyAddresses.uniRouterAddress;\n        zorroLPPool = _initValue.keyAddresses.zorroLPPool;\n        zorroLPPoolOtherToken = _initValue.keyAddresses.zorroLPPoolOtherToken;\n        tokenUSDCAddress = _initValue.keyAddresses.tokenUSDCAddress;\n\n        // Fees\n        controllerFee = _initValue.fees.controllerFee;\n        buyBackRate = _initValue.fees.buyBackRate;\n        revShareRate = _initValue.fees.revShareRate;\n        entranceFeeFactor = _initValue.fees.entranceFeeFactor;\n        withdrawFeeFactor = _initValue.fees.withdrawFeeFactor;\n\n        // Swap paths\n        earnedToZORROPath = _initValue.earnedToZORROPath;\n        earnedToToken0Path = _initValue.earnedToToken0Path;\n        USDCToToken0Path = _initValue.USDCToToken0Path;\n        earnedToZORLPPoolOtherTokenPath = _initValue\n            .earnedToZORLPPoolOtherTokenPath;\n        earnedToUSDCPath = _initValue.earnedToUSDCPath;\n        BUSDToToken0Path = _initValue.BUSDToToken0Path;\n        BUSDToZORROPath = _initValue.BUSDToZORROPath;\n        BUSDToLPPoolOtherTokenPath = _initValue.BUSDToLPPoolOtherTokenPath;\n        // Corresponding reverse paths\n        token0ToUSDCPath = _reversePath(USDCToToken0Path);\n\n        // Price feeds\n        token0PriceFeed = AggregatorV3Interface(\n            _initValue.priceFeeds.token0PriceFeed\n        );\n        earnTokenPriceFeed = AggregatorV3Interface(\n            _initValue.priceFeeds.earnTokenPriceFeed\n        );\n        lpPoolOtherTokenPriceFeed = AggregatorV3Interface(\n            _initValue.priceFeeds.lpPoolOtherTokenPriceFeed\n        );\n        ZORPriceFeed = AggregatorV3Interface(\n            _initValue.priceFeeds.ZORPriceFeed\n        );\n\n        // Super call\n        VaultBase.initialize(_timelockOwner);\n    }\n\n    /* Structs */\n\n    struct VaultAcryptosSingleInit {\n        uint256 pid;\n        bool isHomeChain;\n        VaultAddresses keyAddresses;\n        address[] earnedToZORROPath;\n        address[] earnedToToken0Path;\n        address[] USDCToToken0Path;\n        address[] earnedToZORLPPoolOtherTokenPath;\n        address[] earnedToUSDCPath;\n        address[] BUSDToToken0Path;\n        address[] BUSDToZORROPath;\n        address[] BUSDToLPPoolOtherTokenPath;\n        VaultFees fees;\n        VaultPriceFeeds priceFeeds;\n    }\n\n    /* Constants */\n\n    address public constant tokenACS =\n        0x4197C6EF3879a08cD51e5560da5064B773aa1d29;\n    address public constant balancerVaultAddress =\n        0xa82f327BBbF0667356D2935C6532d164b06cEced; // Address of Balancer/ACSI.finance Vault for swaps etc.\n    bytes32 public constant balancerPool =\n        0x894ed9026de37afd9cce1e6c0be7d6b510e3ffe5000100000000000000000001; // The Acryptos ACSI.finance pool ID for swapping Earned token to BUSD tokens.\n    address public constant tokenBUSD =\n        0xe9e7CEA3DedcA5984780Bafc599bD69ADd087D56;\n\n    /* State */\n\n    uint256 public balancerACSWeightBasisPoints; // Relative weight of ACS token in balancer pool\n    uint256 public balancerBUSDWeightBasisPoints; // Relative weight of BUSD token in balancer pool\n    address[] public BUSDToToken0Path; // Swap path from BUSD to Token0 (PCS)\n    address[] public BUSDToZORROPath; // Swap path from BUSD to ZOR (PCS)\n    address[] public BUSDToLPPoolOtherTokenPath; // Swap path from BUSD to ZOR LP Pool's \"other token\" (PCS)\n\n    /* Setters */\n\n    function setBalancerWeights(uint256 _acsWeight, uint256 _busdWeight)\n        external\n        onlyOwner\n    {\n        balancerACSWeightBasisPoints = _acsWeight;\n        balancerBUSDWeightBasisPoints = _busdWeight;\n    }\n\n    function setBUSDSwapPaths(uint8 _idx, address[] calldata _path)\n        external\n        onlyOwner\n    {\n        if (_idx == 0) {\n            BUSDToToken0Path = _path;\n        } else if (_idx == 1) {\n            BUSDToZORROPath = _path;\n        } else if (_idx == 2) {\n            BUSDToLPPoolOtherTokenPath = _path;\n        } else {\n            revert(\"unsupported idx swap path\");\n        }\n    }\n\n    /* Investment Actions */\n\n    /// @notice Receives new deposits from user\n    /// @param _account address of user that this deposit is intended for\n    /// @param _wantAmt amount of Want token to deposit/stake\n    /// @return sharesAdded uint256 Number of shares added\n    function depositWantToken(address _account, uint256 _wantAmt)\n        public\n        virtual\n        override\n        onlyZorroController\n        nonReentrant\n        whenNotPaused\n        returns (uint256 sharesAdded)\n    {\n        // Preflight checks\n        require(_wantAmt > 0, \"Want token deposit must be > 0\");\n\n        // Transfer Want token from sender\n        IERC20Upgradeable(wantAddress).safeTransferFrom(\n            msg.sender,\n            address(this),\n            _wantAmt\n        );\n\n        // Set sharesAdded to the Want token amount specified\n        sharesAdded = _wantAmt;\n        // If the total number of shares and want tokens locked both exceed 0, the shares added is the proportion of Want tokens locked,\n        // discounted by the entrance fee\n        if (wantLockedTotal > 0 && sharesTotal > 0) {\n            sharesAdded = _wantAmt\n                .mul(sharesTotal)\n                .mul(entranceFeeFactor)\n                .div(wantLockedTotal)\n                .div(entranceFeeFactorMax);\n        }\n        // Increment the shares\n        sharesTotal = sharesTotal.add(sharesAdded);\n        userShares[_account] = userShares[_account].add(sharesAdded);\n\n        // Farm the want token\n        _farm();\n    }\n\n    /// @notice Performs necessary operations to convert USDC into Want token\n    /// @param _amountUSDC The USDC quantity to exchange (must already be deposited)\n    /// @param _maxMarketMovementAllowed The max slippage allowed. 1000 = 0 %, 995 = 0.5%, etc.\n    /// @return uint256 Amount of Want token obtained\n    function exchangeUSDForWantToken(\n        uint256 _amountUSDC,\n        uint256 _maxMarketMovementAllowed\n    ) public override onlyZorroController whenNotPaused returns (uint256) {\n        // Get balance of deposited USDC\n        uint256 _balUSDC = IERC20(tokenUSDCAddress).balanceOf(address(this));\n        // Check that USDC was actually deposited\n        require(_amountUSDC > 0, \"USDC deposit must be > 0\");\n        require(_amountUSDC <= _balUSDC, \"USDC desired exceeded bal\");\n\n        // Use price feed to determine exchange rates\n        uint256 _token0ExchangeRate = token0PriceFeed.getExchangeRate();\n\n        // Swap USDC for tokens\n        // Increase allowance\n        IERC20Upgradeable(tokenUSDCAddress).safeIncreaseAllowance(\n            uniRouterAddress,\n            _amountUSDC\n        );\n        // Single asset. Swap from USDC directly to Token0\n        _safeSwap(\n            SafeSwapParams({\n                amountIn: _amountUSDC,\n                priceToken0: 1e12,\n                priceToken1: _token0ExchangeRate,\n                token0: tokenUSDCAddress,\n                token1: token0Address,\n                token0Weight: 0,\n                token1Weight: 0,\n                maxMarketMovementAllowed: _maxMarketMovementAllowed,\n                path: USDCToToken0Path,\n                destination: address(this)\n            })\n        );\n\n        // Get new Token0 balance\n        uint256 _token0Bal = IERC20Upgradeable(token0Address).balanceOf(\n            address(this)\n        );\n\n        // Deposit token to get Want token\n        IAcryptosVault(poolAddress).deposit(_token0Bal);\n\n        // Calculate resulting want token balance\n        uint256 _wantAmt = IERC20Upgradeable(wantAddress).balanceOf(\n            address(this)\n        );\n\n        // Transfer back to sender\n        IERC20Upgradeable(wantAddress).safeTransfer(\n            zorroControllerAddress,\n            _wantAmt\n        );\n\n        return _wantAmt;\n    }\n\n    /// @notice Safely swaps tokens using the most suitable protocol based on token\n    /// @param _swapParams SafeSwapParams for swap\n    function _safeSwap(SafeSwapParams memory _swapParams) internal {\n        if (_swapParams.token0 == tokenACS || _swapParams.token1 == tokenACS) {\n            // If it's for the Acryptos tokens, swap on ACS Finance (Balancer clone) (Better liquidity for these tokens only)\n            IBalancerVault(balancerVaultAddress).safeSwap(\n                balancerPool,\n                _swapParams\n            );\n        } else {\n            // Otherwise, swap on normal Pancakeswap (or Uniswap clone) for simplicity & liquidity\n            IAMMRouter02(uniRouterAddress).safeSwap(\n                _swapParams.amountIn,\n                _swapParams.priceToken0,\n                _swapParams.priceToken1,\n                _swapParams.maxMarketMovementAllowed,\n                _swapParams.path,\n                _swapParams.destination,\n                block.timestamp.add(600)\n            );\n        }\n    }\n\n    /// @notice Public function for farming Want token.\n    function farm() public virtual nonReentrant {\n        _farm();\n    }\n\n    /// @notice Internal function for farming Want token. Responsible for staking Want token in a MasterChef/MasterApe-like contract\n    function _farm() internal virtual {\n        // Get the Want token stored on this contract\n        uint256 wantAmt = IERC20Upgradeable(wantAddress).balanceOf(\n            address(this)\n        );\n        // Increment the total Want tokens locked into this contract\n        wantLockedTotal = wantLockedTotal.add(wantAmt);\n        // Allow the farm contract (e.g. MasterChef) the ability to transfer up to the Want amount\n        IERC20Upgradeable(wantAddress).safeIncreaseAllowance(\n            farmContractAddress,\n            wantAmt\n        );\n\n        // Deposit the Want tokens in the Farm contract\n        IAcryptosFarm(farmContractAddress).deposit(wantAddress, wantAmt);\n    }\n\n    /// @notice Internal function for unfarming Want token. Responsible for unstaking Want token from MasterChef/MasterApe contracts\n    /// @param _wantAmt the amount of Want tokens to withdraw. If 0, will only harvest and not withdraw\n    function _unfarm(uint256 _wantAmt) internal virtual {\n        // Withdraw the Want tokens from the Farm contract\n        IAcryptosFarm(farmContractAddress).withdraw(wantAddress, _wantAmt);\n    }\n\n    /// @notice Fully withdraw Want tokens from the Farm contract (100% withdrawals only)\n    /// @param _account The address of the owner of vault investment\n    /// @param _wantAmt The amount of Want token to withdraw\n    /// @return uint256 The number of shares removed\n    function withdrawWantToken(address _account, uint256 _wantAmt)\n        public\n        virtual\n        override\n        onlyZorroController\n        nonReentrant\n        whenNotPaused\n        returns (uint256)\n    {\n        // Preflight checks\n        require(_wantAmt > 0, \"want amt <= 0\");\n\n        // Shares removed is proportional to the % of total Want tokens locked that _wantAmt represents\n        uint256 sharesRemoved = _wantAmt.mul(sharesTotal).div(wantLockedTotal);\n        // Safety: cap the shares to the total number of shares\n        if (sharesRemoved > sharesTotal) {\n            sharesRemoved = sharesTotal;\n        }\n        // Decrement the total shares by the sharesRemoved\n        sharesTotal = sharesTotal.sub(sharesRemoved);\n        userShares[_account] = userShares[_account].sub(sharesRemoved);\n\n        // If a withdrawal fee is specified, discount the _wantAmt by the withdrawal fee\n        if (withdrawFeeFactor < withdrawFeeFactorMax) {\n            _wantAmt = _wantAmt.mul(withdrawFeeFactor).div(\n                withdrawFeeFactorMax\n            );\n        }\n\n        // Unfarm Want token\n        _unfarm(_wantAmt);\n\n        // Safety: Check balance of this contract's Want tokens held, and cap _wantAmt to that value\n        uint256 wantAmt = IERC20Upgradeable(wantAddress).balanceOf(\n            address(this)\n        );\n        if (_wantAmt > wantAmt) {\n            _wantAmt = wantAmt;\n        }\n        // Safety: cap _wantAmt at the total quantity of Want tokens locked\n        if (wantLockedTotal < _wantAmt) {\n            _wantAmt = wantLockedTotal;\n        }\n\n        // Decrement the total Want locked tokens by the _wantAmt\n        wantLockedTotal = wantLockedTotal.sub(_wantAmt);\n\n        // Finally, transfer the want amount from this contract, back to the ZorroController contract\n        IERC20Upgradeable(wantAddress).safeTransfer(\n            zorroControllerAddress,\n            _wantAmt\n        );\n\n        return sharesRemoved;\n    }\n\n    /// @notice Converts Want token back into USD to be ready for withdrawal and transfers to sender\n    /// @param _amount The Want token quantity to exchange (must be deposited beforehand)\n    /// @param _maxMarketMovementAllowed The max slippage allowed for swaps. 1000 = 0 %, 995 = 0.5%, etc.\n    /// @return uint256 Amount of USDC token obtained\n    function exchangeWantTokenForUSD(\n        uint256 _amount,\n        uint256 _maxMarketMovementAllowed\n    )\n        public\n        virtual\n        override\n        onlyZorroController\n        whenNotPaused\n        returns (uint256)\n    {\n        // Preflight checks\n        require(_amount > 0, \"Want amt must be > 0\");\n\n        // Safely transfer Want token from sender\n        IERC20Upgradeable(wantAddress).safeTransferFrom(\n            msg.sender,\n            address(this),\n            _amount\n        );\n\n        // Withdraw Want token to get Token0\n        IAcryptosFarm(farmContractAddress).withdraw(wantAddress, _amount);\n\n        // Use price feed to determine exchange rates\n        uint256 _token0ExchangeRate = token0PriceFeed.getExchangeRate();\n\n        // Swap Token0 for USDC\n        // Get Token0 balance\n        uint256 _token0Bal = IERC20Upgradeable(token0Address).balanceOf(\n            address(this)\n        );\n        // Increase allowance\n        IERC20Upgradeable(token0Address).safeIncreaseAllowance(\n            uniRouterAddress,\n            _token0Bal\n        );\n        // Swap Token0 -> USDC\n        _safeSwap(\n            SafeSwapParams({\n                amountIn: _token0Bal,\n                priceToken0: _token0ExchangeRate,\n                priceToken1: 1e12,\n                token0: token0Address,\n                token1: tokenUSDCAddress,\n                token0Weight: 0,\n                token1Weight: 0,\n                maxMarketMovementAllowed: _maxMarketMovementAllowed,\n                path: token0ToUSDCPath,\n                destination: msg.sender\n            })\n        );\n\n        // Calculate USDC balance\n        return IERC20(tokenUSDCAddress).balanceOf(address(this));\n    }\n\n    /// @notice The main compounding (earn) function. Reinvests profits since the last earn event.\n    /// @param _maxMarketMovementAllowed The max slippage allowed. 1000 = 0 %, 995 = 0.5%, etc.\n    function earn(uint256 _maxMarketMovementAllowed)\n        public\n        virtual\n        override\n        nonReentrant\n        whenNotPaused\n    {\n        // If onlyGov is set to true, only allow to proceed if the current caller is the govAddress\n        if (onlyGov) {\n            require(msg.sender == govAddress, \"!gov\");\n        }\n\n        // Harvest farm tokens\n        _unfarm(0);\n\n        // Get the balance of the Earned token on this contract (ACS, etc.)\n        uint256 earnedAmt = IERC20(earnedAddress).balanceOf(address(this));\n\n        // Get exchange rate from price feed\n        uint256 _earnTokenExchangeRate = earnTokenPriceFeed.getExchangeRate();\n        uint256 _token0ExchangeRate = token0PriceFeed.getExchangeRate();\n        uint256 _ZORExchangeRate = ZORPriceFeed.getExchangeRate();\n        uint256 _lpPoolOtherTokenExchangeRate = ZORPriceFeed.getExchangeRate();\n        // Create rates struct\n        ExchangeRates memory _rates = ExchangeRates({\n            earn: _earnTokenExchangeRate,\n            ZOR: _ZORExchangeRate,\n            lpPoolOtherToken: _lpPoolOtherTokenExchangeRate\n        });\n\n        // Reassign value of earned amount after distributing fees\n        earnedAmt = _distributeFees(earnedAmt);\n        // Reassign value of earned amount after buying back a certain amount of Zorro, sharing revenue\n        earnedAmt = _buyBackAndRevShare(\n            earnedAmt,\n            _maxMarketMovementAllowed,\n            _rates\n        );\n\n        // Swap Earn token for single asset token\n\n        // Step 1: Earned to BUSD\n        _safeSwap(\n            SafeSwapParams({\n                amountIn: earnedAmt,\n                priceToken0: _earnTokenExchangeRate,\n                priceToken1: 1e12,\n                token0: earnedAddress,\n                token1: tokenBUSD,\n                token0Weight: balancerACSWeightBasisPoints,\n                token1Weight: balancerBUSDWeightBasisPoints,\n                maxMarketMovementAllowed: _maxMarketMovementAllowed,\n                path: earnedToToken0Path,\n                destination: address(this)\n            })\n        );\n\n        // Step 2: BUSD to Token0\n        uint256 _balBUSD = IERC20Upgradeable(tokenBUSD).balanceOf(\n            address(this)\n        );\n        // Increase allowance\n        IERC20Upgradeable(tokenBUSD).safeIncreaseAllowance(\n            uniRouterAddress,\n            _balBUSD\n        );\n        _safeSwap(\n            SafeSwapParams({\n                amountIn: _balBUSD,\n                priceToken0: 1e12,\n                priceToken1: _token0ExchangeRate,\n                token0: tokenBUSD,\n                token1: token0Address,\n                token0Weight: 0,\n                token1Weight: 0,\n                maxMarketMovementAllowed: _maxMarketMovementAllowed,\n                path: BUSDToToken0Path,\n                destination: address(this)\n            })\n        );\n\n        // Redeposit single asset token to get Want token\n        // Get new Token0 balance\n        uint256 _token0Bal = IERC20(token0Address).balanceOf(address(this));\n        // Deposit token to get Want token\n        IAcryptosVault(poolAddress).deposit(_token0Bal);\n\n        // This vault is only for single asset deposits, so farm that token and exit\n        // Update the last earn block\n        lastEarnBlock = block.number;\n        // Farm LP token\n        _farm();\n    }\n\n    /// @notice Buys back the earned token on-chain, swaps it to add liquidity to the ZOR pool, then burns the associated LP token\n    /// @dev Requires funds to be sent to this address before calling. Can be called internally OR by controller\n    /// @param _amount The amount of Earn token to buy back\n    /// @param _maxMarketMovementAllowed The max slippage allowed. 1000 = 0 %, 995 = 0.5%, etc.\n    /// @param _rates ExchangeRates struct with realtime rates information for swaps\n    function _buybackOnChain(\n        uint256 _amount,\n        uint256 _maxMarketMovementAllowed,\n        ExchangeRates memory _rates\n    ) internal override {\n        // Authorize spending beforehand\n        IERC20Upgradeable(earnedAddress).safeIncreaseAllowance(\n            uniRouterAddress,\n            _amount\n        );\n\n        // 1. Swap Earned -> BUSD\n        address[] memory _dummyEarnedToBUSDPath;\n        _safeSwap(\n            SafeSwapParams({\n                amountIn: _amount,\n                priceToken0: _rates.earn,\n                priceToken1: 1e12,\n                token0: earnedAddress,\n                token1: tokenBUSD,\n                token0Weight: balancerACSWeightBasisPoints,\n                token1Weight: balancerBUSDWeightBasisPoints,\n                maxMarketMovementAllowed: _maxMarketMovementAllowed,\n                path: _dummyEarnedToBUSDPath,\n                destination: address(this)\n            })\n        );\n\n        // Get BUSD bal\n        uint256 _balBUSD = IERC20Upgradeable(tokenBUSD).balanceOf(\n            address(this)\n        );\n        // Approve spending\n        IERC20Upgradeable(tokenBUSD).safeIncreaseAllowance(\n            uniRouterAddress,\n            _balBUSD\n        );\n\n        // 2. Swap 1/2 BUSD -> ZOR\n        _safeSwap(\n            SafeSwapParams({\n                amountIn: _balBUSD.div(2),\n                priceToken0: 1e12,\n                priceToken1: _rates.ZOR,\n                token0: tokenBUSD,\n                token1: ZORROAddress,\n                token0Weight: 0,\n                token1Weight: 0,\n                maxMarketMovementAllowed: _maxMarketMovementAllowed,\n                path: BUSDToZORROPath,\n                destination: address(this)\n            })\n        );\n\n        // 3. Swap 1/2 BUSD -> LP \"other token\"\n        _safeSwap(\n            SafeSwapParams({\n                amountIn: _balBUSD.div(2),\n                priceToken0: 1e12,\n                priceToken1: _rates.lpPoolOtherToken,\n                token0: tokenBUSD,\n                token1: zorroLPPoolOtherToken,\n                token0Weight: 0,\n                token1Weight: 0,\n                maxMarketMovementAllowed: _maxMarketMovementAllowed,\n                path: BUSDToLPPoolOtherTokenPath,\n                destination: address(this)\n            })\n        );\n\n        // Enter LP pool and send received token to the burn address\n        uint256 zorroTokenAmt = IERC20Upgradeable(ZORROAddress).balanceOf(\n            address(this)\n        );\n        uint256 otherTokenAmt = IERC20Upgradeable(zorroLPPoolOtherToken)\n            .balanceOf(address(this));\n        IERC20Upgradeable(ZORROAddress).safeIncreaseAllowance(\n            uniRouterAddress,\n            zorroTokenAmt\n        );\n        IERC20Upgradeable(zorroLPPoolOtherToken).safeIncreaseAllowance(\n            uniRouterAddress,\n            otherTokenAmt\n        );\n        IAMMRouter02(uniRouterAddress).addLiquidity(\n            ZORROAddress,\n            zorroLPPoolOtherToken,\n            zorroTokenAmt,\n            otherTokenAmt,\n            zorroTokenAmt.mul(_maxMarketMovementAllowed).div(1000),\n            otherTokenAmt.mul(_maxMarketMovementAllowed).div(1000),\n            burnAddress,\n            block.timestamp.add(600)\n        );\n    }\n\n    /// @notice Sends the specified earnings amount as revenue share to ZOR stakers\n    /// @param _amount The amount of Earn token to share as revenue with ZOR stakers\n    /// @param _maxMarketMovementAllowed Max slippage. 950 = 5%, 990 = 1%, etc.\n    /// @param _rates ExchangeRates struct with realtime rates information for swaps\n    function _revShareOnChain(\n        uint256 _amount,\n        uint256 _maxMarketMovementAllowed,\n        ExchangeRates memory _rates\n    ) internal override {\n        // Authorize spending beforehand\n        IERC20Upgradeable(earnedAddress).safeIncreaseAllowance(\n            uniRouterAddress,\n            _amount\n        );\n\n        // Swap Earn to USDC\n        // Require two step swap (Balancer + Uni)\n        // 1. Balancer: Earn -> BUSD\n        address[] memory _dummyPath;\n        _safeSwap(\n            SafeSwapParams({\n                amountIn: _amount,\n                priceToken0: _rates.earn,\n                priceToken1: 1e12,\n                token0: earnedAddress,\n                token1: tokenBUSD,\n                token0Weight: balancerACSWeightBasisPoints,\n                token1Weight: balancerBUSDWeightBasisPoints,\n                maxMarketMovementAllowed: _maxMarketMovementAllowed,\n                path: _dummyPath, // Unused\n                destination: address(this)\n            })\n        );\n        // 2. Uni: BUSD -> ZOR\n        uint256 _balUSDC = IERC20Upgradeable(tokenUSDCAddress).balanceOf(\n            address(this)\n        );\n        // Increase allowance\n        IERC20Upgradeable(tokenUSDCAddress).safeIncreaseAllowance(\n            uniRouterAddress,\n            _balUSDC\n        );\n        _safeSwap(\n            SafeSwapParams({\n                amountIn: _balUSDC,\n                priceToken0: 1e12,\n                priceToken1: _rates.ZOR,\n                token0: tokenUSDCAddress,\n                token1: ZORROAddress,\n                token0Weight: 0,\n                token1Weight: 0,\n                maxMarketMovementAllowed: _maxMarketMovementAllowed,\n                path: BUSDToZORROPath,\n                destination: zorroStakingVault\n            })\n        );\n    }\n\n    /// @notice Swaps Earn token to USDC and sends to destination specified\n    /// @param _earnedAmount Quantity of Earned tokens\n    /// @param _destination Address to send swapped USDC to\n    /// @param _maxMarketMovementAllowed Slippage factor. 950 = 5%, 990 = 1%, etc.\n    /// @param _rates ExchangeRates struct with realtime rates information for swaps\n    function _swapEarnedToUSDC(\n        uint256 _earnedAmount,\n        address _destination,\n        uint256 _maxMarketMovementAllowed,\n        ExchangeRates memory _rates\n    ) internal override {\n        // Swap ACS to BUSD (Balancer)\n        _safeSwap(\n            SafeSwapParams({\n                amountIn: _earnedAmount,\n                priceToken0: _rates.earn,\n                priceToken1: 1e12,\n                token0: earnedAddress,\n                token1: tokenBUSD,\n                token0Weight: balancerACSWeightBasisPoints,\n                token1Weight: balancerBUSDWeightBasisPoints,\n                maxMarketMovementAllowed: _maxMarketMovementAllowed,\n                path: earnedToUSDCPath, // Unused\n                destination: address(this)\n            })\n        );\n\n        // BUSD balance\n        uint256 _balBUSD = IERC20Upgradeable(tokenBUSD).balanceOf(\n            address(this)\n        );\n\n        // Swap path\n        address[] memory _path;\n        _path[0] = tokenBUSD;\n        _path[1] = tokenUSDCAddress;\n\n        // Swap BUSD to USDC (PCS)\n        // Increase allowance\n        IERC20Upgradeable(tokenBUSD).safeIncreaseAllowance(\n            uniRouterAddress,\n            _balBUSD\n        );\n        // Swap\n        _safeSwap(\n            SafeSwapParams({\n                amountIn: _balBUSD,\n                priceToken0: 1e12,\n                priceToken1: 1e12,\n                token0: tokenBUSD,\n                token1: tokenUSDCAddress,\n                token0Weight: 0,\n                token1Weight: 0,\n                maxMarketMovementAllowed: _maxMarketMovementAllowed,\n                path: _path,\n                destination: _destination\n            })\n        );\n    }\n}\n",
  "sourcePath": "/Users/kristophm/Documents/workspace/zorro-protocol/contracts/vaults/VaultAcryptosSingle.sol",
  "compiler": {
    "name": "solc",
    "version": "0.8.10+commit.fc410830.Emscripten.clang"
  },
  "schemaVersion": "3.4.4",
  "updatedAt": "2022-04-27T12:35:26.892Z",
  "networkType": "ethereum",
  "devdoc": {
    "kind": "dev",
    "methods": {
      "depositWantToken(address,uint256)": {
        "params": {
          "_account": "address of user that this deposit is intended for",
          "_wantAmt": "amount of Want token to deposit/stake"
        },
        "returns": {
          "sharesAdded": "uint256 Number of shares added"
        }
      },
      "earn(uint256)": {
        "params": {
          "_maxMarketMovementAllowed": "The max slippage allowed. 1000 = 0 %, 995 = 0.5%, etc."
        }
      },
      "exchangeUSDForWantToken(uint256,uint256)": {
        "params": {
          "_amountUSDC": "The USDC quantity to exchange (must already be deposited)",
          "_maxMarketMovementAllowed": "The max slippage allowed. 1000 = 0 %, 995 = 0.5%, etc."
        },
        "returns": {
          "_0": "uint256 Amount of Want token obtained"
        }
      },
      "exchangeWantTokenForUSD(uint256,uint256)": {
        "params": {
          "_amount": "The Want token quantity to exchange (must be deposited beforehand)",
          "_maxMarketMovementAllowed": "The max slippage allowed for swaps. 1000 = 0 %, 995 = 0.5%, etc."
        },
        "returns": {
          "_0": "uint256 Amount of USDC token obtained"
        }
      },
      "inCaseTokensGetStuck(address,uint256,address)": {
        "params": {
          "_amount": "The amount of the tokens to transfer",
          "_to": "The address to transfer tokens to",
          "_token": "Address of the ERC20 token to transfer"
        }
      },
      "initialize(address,(uint256,bool,(address,address,address,address,address,address,address,address,address,address,address,address,address,address,address),address[],address[],address[],address[],address[],address[],address[],address[],(uint256,uint256,uint256,uint256,uint256),(address,address,address,address,address)))": {
        "params": {
          "_initValue": "A VaultAcryptosSingleInit struct containing all init values",
          "_timelockOwner": "The designated timelock controller address to act as owner"
        }
      },
      "owner()": {
        "details": "Returns the address of the current owner."
      },
      "paused()": {
        "details": "Returns true if the contract is paused, and false otherwise."
      },
      "renounceOwnership()": {
        "details": "Leaves the contract without owner. It will not be possible to call `onlyOwner` functions anymore. Can only be called by the current owner. NOTE: Renouncing ownership will leave the contract without an owner, thereby removing any functionality that is only available to the owner."
      },
      "setFeeSettings(uint256,uint256,uint256,uint256)": {
        "params": {
          "_buyBackRate": "Buy back rate fee numerator",
          "_controllerFee": "Controller fee numerator",
          "_entranceFeeFactor": "Entrance fee numerator (higher means smaller percentage)",
          "_withdrawFeeFactor": "Withdrawal fee numerator (higher means smaller percentage)"
        }
      },
      "setGov(address)": {
        "params": {
          "_govAddress": "The new gov address"
        }
      },
      "setOnlyGov(bool)": {
        "params": {
          "_onlyGov": "whether onlyGov should be enforced"
        }
      },
      "transferOwnership(address)": {
        "details": "Transfers ownership of the contract to a new account (`newOwner`). Can only be called by the current owner."
      },
      "withdrawWantToken(address,uint256)": {
        "params": {
          "_account": "The address of the owner of vault investment",
          "_wantAmt": "The amount of Want token to withdraw"
        },
        "returns": {
          "_0": "uint256 The number of shares removed"
        }
      }
    },
    "title": "Vault contract for Acryptos single token strategies (e.g. for lending)",
    "version": 1
  },
  "userdoc": {
    "kind": "user",
    "methods": {
      "depositWantToken(address,uint256)": {
        "notice": "Receives new deposits from user"
      },
      "earn(uint256)": {
        "notice": "The main compounding (earn) function. Reinvests profits since the last earn event."
      },
      "exchangeUSDForWantToken(uint256,uint256)": {
        "notice": "Performs necessary operations to convert USDC into Want token"
      },
      "exchangeWantTokenForUSD(uint256,uint256)": {
        "notice": "Converts Want token back into USD to be ready for withdrawal and transfers to sender"
      },
      "farm()": {
        "notice": "Public function for farming Want token."
      },
      "inCaseTokensGetStuck(address,uint256,address)": {
        "notice": "Safely transfer ERC20 tokens stuck in this contract to a specified address"
      },
      "initialize(address,(uint256,bool,(address,address,address,address,address,address,address,address,address,address,address,address,address,address,address),address[],address[],address[],address[],address[],address[],address[],address[],(uint256,uint256,uint256,uint256,uint256),(address,address,address,address,address)))": {
        "notice": "Upgradeable constructor"
      },
      "pause()": {
        "notice": "Pause contract"
      },
      "setFeeSettings(uint256,uint256,uint256,uint256)": {
        "notice": "Configure key fee parameters"
      },
      "setGov(address)": {
        "notice": "Set governor address"
      },
      "setOnlyGov(bool)": {
        "notice": "Set onlyGov property"
      },
      "unpause()": {
        "notice": "Unpause contract"
      },
      "withdrawWantToken(address,uint256)": {
        "notice": "Fully withdraw Want tokens from the Farm contract (100% withdrawals only)"
      }
    },
    "version": 1
  }
}