{
  "contractName": "XChainEndpoint",
  "abi": [
    {
      "inputs": [
        {
          "internalType": "address",
          "name": "_owner",
          "type": "address"
        },
        {
          "internalType": "address",
          "name": "_authorizedOracle",
          "type": "address"
        },
        {
          "internalType": "address",
          "name": "_authorizedRelayer",
          "type": "address"
        }
      ],
      "stateMutability": "nonpayable",
      "type": "constructor"
    },
    {
      "anonymous": false,
      "inputs": [
        {
          "indexed": true,
          "internalType": "bytes32",
          "name": "id",
          "type": "bytes32"
        }
      ],
      "name": "ChainlinkCancelled",
      "type": "event"
    },
    {
      "anonymous": false,
      "inputs": [
        {
          "indexed": true,
          "internalType": "bytes32",
          "name": "id",
          "type": "bytes32"
        }
      ],
      "name": "ChainlinkFulfilled",
      "type": "event"
    },
    {
      "anonymous": false,
      "inputs": [
        {
          "indexed": true,
          "internalType": "bytes32",
          "name": "id",
          "type": "bytes32"
        }
      ],
      "name": "ChainlinkRequested",
      "type": "event"
    },
    {
      "anonymous": false,
      "inputs": [
        {
          "indexed": true,
          "internalType": "uint256",
          "name": "originChainBlockNumber",
          "type": "uint256"
        }
      ],
      "name": "OracleReceivedCrossChainBlock",
      "type": "event"
    },
    {
      "anonymous": false,
      "inputs": [
        {
          "indexed": true,
          "internalType": "address",
          "name": "previousOwner",
          "type": "address"
        },
        {
          "indexed": true,
          "internalType": "address",
          "name": "newOwner",
          "type": "address"
        }
      ],
      "name": "OwnershipTransferred",
      "type": "event"
    },
    {
      "anonymous": false,
      "inputs": [
        {
          "indexed": false,
          "internalType": "address",
          "name": "account",
          "type": "address"
        }
      ],
      "name": "Paused",
      "type": "event"
    },
    {
      "anonymous": false,
      "inputs": [
        {
          "indexed": true,
          "internalType": "bytes",
          "name": "transactionId",
          "type": "bytes"
        }
      ],
      "name": "RelayerReceivedCrossChainTx",
      "type": "event"
    },
    {
      "anonymous": false,
      "inputs": [
        {
          "indexed": true,
          "internalType": "uint256",
          "name": "originChainBlockNumber",
          "type": "uint256"
        }
      ],
      "name": "SentCrossChainBlockToOracle",
      "type": "event"
    },
    {
      "anonymous": false,
      "inputs": [
        {
          "indexed": false,
          "internalType": "address",
          "name": "account",
          "type": "address"
        }
      ],
      "name": "Unpaused",
      "type": "event"
    },
    {
      "inputs": [],
      "name": "owner",
      "outputs": [
        {
          "internalType": "address",
          "name": "",
          "type": "address"
        }
      ],
      "stateMutability": "view",
      "type": "function"
    },
    {
      "inputs": [],
      "name": "paused",
      "outputs": [
        {
          "internalType": "bool",
          "name": "",
          "type": "bool"
        }
      ],
      "stateMutability": "view",
      "type": "function"
    },
    {
      "inputs": [],
      "name": "renounceOwnership",
      "outputs": [],
      "stateMutability": "nonpayable",
      "type": "function"
    },
    {
      "inputs": [
        {
          "internalType": "address",
          "name": "_authorizedOracle",
          "type": "address"
        }
      ],
      "name": "setAuthorizedOracle",
      "outputs": [],
      "stateMutability": "nonpayable",
      "type": "function"
    },
    {
      "inputs": [
        {
          "internalType": "address",
          "name": "_authorizedRelayer",
          "type": "address"
        }
      ],
      "name": "setAuthorizedRelayer",
      "outputs": [],
      "stateMutability": "nonpayable",
      "type": "function"
    },
    {
      "inputs": [
        {
          "internalType": "address",
          "name": "newOwner",
          "type": "address"
        }
      ],
      "name": "transferOwnership",
      "outputs": [],
      "stateMutability": "nonpayable",
      "type": "function"
    },
    {
      "inputs": [
        {
          "internalType": "bytes",
          "name": "_destinationContract",
          "type": "bytes"
        },
        {
          "internalType": "bytes",
          "name": "_payload",
          "type": "bytes"
        }
      ],
      "name": "sendXChainTransaction",
      "outputs": [],
      "stateMutability": "nonpayable",
      "type": "function"
    },
    {
      "inputs": [
        {
          "internalType": "bytes",
          "name": "_transactionId",
          "type": "bytes"
        }
      ],
      "name": "sendTransactionPacketToRelayerCallback",
      "outputs": [],
      "stateMutability": "nonpayable",
      "type": "function"
    },
    {
      "inputs": [
        {
          "internalType": "address[]",
          "name": "_destinationContracts",
          "type": "address[]"
        },
        {
          "internalType": "bytes[]",
          "name": "_payloads",
          "type": "bytes[]"
        },
        {
          "internalType": "bytes[]",
          "name": "_proofs",
          "type": "bytes[]"
        }
      ],
      "name": "validateTxProofsCallback",
      "outputs": [],
      "stateMutability": "nonpayable",
      "type": "function"
    },
    {
      "inputs": [
        {
          "internalType": "uint256",
          "name": "_blockNumber",
          "type": "uint256"
        }
      ],
      "name": "notifyOracleCallback",
      "outputs": [],
      "stateMutability": "nonpayable",
      "type": "function"
    },
    {
      "inputs": [
        {
          "internalType": "uint256",
          "name": "_blockNumber",
          "type": "uint256"
        },
        {
          "internalType": "bytes",
          "name": "_blockHeaderHash",
          "type": "bytes"
        }
      ],
      "name": "receiveOracleNotification",
      "outputs": [],
      "stateMutability": "nonpayable",
      "type": "function"
    }
  ],
  "bytecode": "0x60806040526001600e553480156200001657600080fd5b50604051620017d8380380620017d8833981016040819052620000399162000292565b6200005f62000050640100000000620000be810204565b640100000000620000c2810204565b600180556002805460ff19169055620000818364010000000062000112810204565b6002805461010060a860020a031916610100600160a060020a039485160217905560038054600160a060020a0319169190921617905550620002dc565b3390565b60008054600160a060020a03838116600160a060020a0319831681178455604051919092169283917f8be0079c531659141344cd1fd0a4f28419497f9722a3daafe3b4186f6b6457e09190a35050565b62000125640100000000620000be810204565b600160a060020a03166200014164010000000062000266810204565b600160a060020a031614620001b7576040517f08c379a000000000000000000000000000000000000000000000000000000000815260206004820181905260248201527f4f776e61626c653a2063616c6c6572206973206e6f7420746865206f776e657260448201526064015b60405180910390fd5b600160a060020a0381166200024f576040517f08c379a000000000000000000000000000000000000000000000000000000000815260206004820152602660248201527f4f776e61626c653a206e6577206f776e657220697320746865207a65726f206160448201527f64647265737300000000000000000000000000000000000000000000000000006064820152608401620001ae565b6200026381640100000000620000c2810204565b50565b600054600160a060020a031690565b8051600160a060020a03811681146200028d57600080fd5b919050565b600080600060608486031215620002a857600080fd5b620002b38462000275565b9250620002c36020850162000275565b9150620002d36040850162000275565b90509250925092565b6114ec80620002ec6000396000f3fe608060405234801561001057600080fd5b50600436106100ad5760003560e060020a900480635c975abb116100755780635c975abb14610113578063715018a61461012e5780638da5cb5b14610136578063a7fdc4bc14610151578063f2c2408c14610164578063f2fde38b1461017757600080fd5b806306c53710146100b25780631204b370146100c75780632729ef74146100da5780632a6d2c17146100ed57806336481b1114610100575b600080fd5b6100c56100c0366004610f65565b61018a565b005b6100c56100d5366004610fb1565b610208565b6100c56100e8366004610fda565b610264565b6100c56100fb366004610fb1565b6102ab565b6100c561010e36600461108a565b61030d565b60025460ff1660405190151581526020015b60405180910390f35b6100c561037b565b600054604051600160a060020a039091168152602001610125565b6100c561015f366004611124565b6103b4565b6100c5610172366004611166565b610433565b6100c5610185366004610fb1565b61049c565b6002546101009004600160a060020a031633600160a060020a0316146101ce5760405160e560020a62461bcd0281526004016101c59061117f565b60405180910390fd5b6101d88282610554565b60405183907f018e4690e874aee3d07f0297b719f45cf53e674f8a8a83974c2b87fe1282fac190600090a2505050565b600054600160a060020a031633146102355760405160e560020a62461bcd0281526004016101c5906111b6565b6003805473ffffffffffffffffffffffffffffffffffffffff1916600160a060020a0392909216919091179055565b600054600160a060020a031633146102915760405160e560020a62461bcd0281526004016101c5906111b6565b61029d84848484610603565b6102a561072b565b50505050565b600054600160a060020a031633146102d85760405160e560020a62461bcd0281526004016101c5906111b6565b60028054600160a060020a039092166101000274ffffffffffffffffffffffffffffffffffffffff0019909216919091179055565b600354600160a060020a031633600160a060020a0316146103735760405160e560020a62461bcd02815260206004820181905260248201527f4f6e6c792061757468642072656c617965722063616e206d616b652063616c6c60448201526064016101c5565b505050505050565b600054600160a060020a031633146103a85760405160e560020a62461bcd0281526004016101c5906111b6565b6103b26000610768565b565b6002546101009004600160a060020a031633600160a060020a0316146103ef5760405160e560020a62461bcd0281526004016101c59061117f565b81816040516103ff9291906111eb565b604051908190038120907f2f2c40d0526d758a009bc6f16741aadf226409e6d483c210f2979f12401de29490600090a25050565b6002546101009004600160a060020a031633600160a060020a03161461046e5760405160e560020a62461bcd0281526004016101c59061117f565b60405181907f99dc9718ae66b495de31b72cd30621c21e60d8b1e66be0bcb879f4745024108c90600090a250565b600054600160a060020a031633146104c95760405160e560020a62461bcd0281526004016101c5906111b6565b600160a060020a0381166105485760405160e560020a62461bcd02815260206004820152602660248201527f4f776e61626c653a206e6577206f776e657220697320746865207a65726f206160448201527f646472657373000000000000000000000000000000000000000000000000000060648201526084016101c5565b61055181610768565b50565b600061056d600854306336481b1160e060020a026107c5565b90506105e86040518060400160405280600981526020017f626c6f636b48617368000000000000000000000000000000000000000000000081525084848080601f0160208091040260200160405190810160405280939291908181526020018383808284376000920191909152508694939250506107ea9050565b6005546009546102a591600160a060020a031690839061080d565b600061061c6007543063a7fdc4bc60e060020a026107c5565b90506106976040518060400160405280600c81526020017f64657374436f6e7472616374000000000000000000000000000000000000000081525086868080601f0160208091040260200160405190810160405280939291908181526020018383808284376000920191909152508694939250506107ea9050565b6107106040518060400160405280600781526020017f7061796c6f61640000000000000000000000000000000000000000000000000081525084848080601f0160208091040260200160405190810160405280939291908181526020018383808284376000920191909152508694939250506107ea9050565b60055460095461037391600160a060020a031690839061080d565b60006107446006543063f2c2408c60e060020a026107c5565b60045460095491925061076491600160a060020a0390911690839061080d565b5050565b60008054600160a060020a0383811673ffffffffffffffffffffffffffffffffffffffff19831681178455604051919092169283917f8be0079c531659141344cd1fd0a4f28419497f9722a3daafe3b4186f6b6457e09190a35050565b6107cd610ee1565b6107d5610ee1565b6107e1818686866108e3565b95945050505050565b60808301516107f9908361093e565b60808301516108089082610955565b505050565b600e5460009061081e81600161122a565b600e55835160408086015160808701515191516000937f40429946000000000000000000000000000000000000000000000000000000009361086f9386938493923092918a9160019160240161128f565b60408051601f198184030181529190526020810180517bffffffffffffffffffffffffffffffffffffffffffffffffffffffff167bffffffffffffffffffffffffffffffffffffffffffffffffffffffff199093169290921790915290506108d986838684610962565b9695505050505050565b6108eb610ee1565b6108fb8560800151610100610b00565b5050828452600160a060020a03821660208501527bffffffffffffffffffffffffffffffffffffffffffffffffffffffff1981166040850152835b949350505050565b61094b8260038351610b6b565b6108088282610c73565b61094b8260028351610b6b565b6040516c01000000000000000000000000300260208201526034810184905260009060540160408051808303601f1901815282825280516020918201206000818152600f909252918120805473ffffffffffffffffffffffffffffffffffffffff1916600160a060020a038a1617905590925082917fb5e6e01e79f91267dc17b4e6314d5d4d03593d2ceee0fbb452b750bd70ea5af99190a2600c546040517f4000aea0000000000000000000000000000000000000000000000000000000008152600160a060020a0390911690634000aea090610a4890889087908790600401611308565b6020604051808303816000875af1158015610a67573d6000803e3d6000fd5b505050506040513d601f19601f82011682018060405250810190610a8b9190611330565b6109365760405160e560020a62461bcd02815260206004820152602360248201527f756e61626c6520746f207472616e73666572416e6443616c6c20746f206f726160448201527f636c65000000000000000000000000000000000000000000000000000000000060648201526084016101c5565b604080518082019091526060815260006020820152610b20602083611352565b15610b4857610b30602083611352565b610b3b90602061138d565b610b45908361122a565b91505b506020808301829052604080518085526000815283019091019052815b92915050565b60178167ffffffffffffffff1611610b91576102a58360ff848116602002168317610ca1565b60ff8167ffffffffffffffff1611610bcd57610bb6836018602060ff86160217610ca1565b506102a58367ffffffffffffffff83166001610cc6565b61ffff8167ffffffffffffffff1611610c0a57610bf3836019602060ff86160217610ca1565b506102a58367ffffffffffffffff83166002610cc6565b63ffffffff8167ffffffffffffffff1611610c4957610c3283601a602060ff86160217610ca1565b506102a58367ffffffffffffffff83166004610cc6565b610c5c83601b602060ff86160217610ca1565b506102a58367ffffffffffffffff83166008610cc6565b604080518082019091526060815260006020820152610c9a83846000015151848551610cec565b9392505050565b604080518082019091526060815260006020820152610c9a8384600001515184610dd6565b604080518082019091526060815260006020820152610936848560000151518585610e32565b6040805180820190915260608152600060208201528251821115610d0f57600080fd5b6020850151610d1e838661122a565b1115610d5157610d5185610d4187602001518786610d3c919061122a565b610eb3565b610d4c9060026113a4565b610eca565b600080865180518760208301019350808887011115610d705787860182525b505050602084015b60208410610db05780518252610d8f60208361122a565b9150610d9c60208261122a565b9050610da960208561138d565b9350610d78565b51815160001960208690036101000a019081169019919091161790525083949350505050565b60408051808201909152606081526000602082015283602001518310610e0b57610e0b8485602001516002610d4c91906113a4565b835180516020858301018481535080851415610e28576001810182525b5093949350505050565b6040805180820190915260608152600060208201526020850151610e56858461122a565b1115610e6a57610e6a85610d41868561122a565b60006001610e7a846101006114aa565b610e84919061138d565b9050855183868201018583198251161781525080518487011115610ea85783860181525b509495945050505050565b600081831115610ec4575081610b65565b50919050565b8151610ed68383610b00565b506102a58382610c73565b6040805160a0810182526000808252602080830182905282840182905260608084018390528451808601909552845283015290608082015290565b60008083601f840112610f2e57600080fd5b50813567ffffffffffffffff811115610f4657600080fd5b602083019150836020828501011115610f5e57600080fd5b9250929050565b600080600060408486031215610f7a57600080fd5b83359250602084013567ffffffffffffffff811115610f9857600080fd5b610fa486828701610f1c565b9497909650939450505050565b600060208284031215610fc357600080fd5b8135600160a060020a0381168114610c9a57600080fd5b60008060008060408587031215610ff057600080fd5b843567ffffffffffffffff8082111561100857600080fd5b61101488838901610f1c565b9096509450602087013591508082111561102d57600080fd5b5061103a87828801610f1c565b95989497509550505050565b60008083601f84011261105857600080fd5b50813567ffffffffffffffff81111561107057600080fd5b6020830191508360208083028501011115610f5e57600080fd5b600080600080600080606087890312156110a357600080fd5b863567ffffffffffffffff808211156110bb57600080fd5b6110c78a838b01611046565b909850965060208901359150808211156110e057600080fd5b6110ec8a838b01611046565b9096509450604089013591508082111561110557600080fd5b5061111289828a01611046565b979a9699509497509295939492505050565b6000806020838503121561113757600080fd5b823567ffffffffffffffff81111561114e57600080fd5b61115a85828601610f1c565b90969095509350505050565b60006020828403121561117857600080fd5b5035919050565b6020808252601f908201527f4f6e6c79206175746864206f7261636c652063616e206d616b652063616c6c00604082015260600190565b6020808252818101527f4f776e61626c653a2063616c6c6572206973206e6f7420746865206f776e6572604082015260600190565b8183823760009101908152919050565b7f4e487b7100000000000000000000000000000000000000000000000000000000600052601160045260246000fd5b6000821982111561123d5761123d6111fb565b500190565b6000815180845260005b818110156112685760208185018101518683018201520161124c565b8181111561127a576000602083870101525b50601f01601f19169290920160200192915050565b6000610100600160a060020a03808c1684528a60208501528960408501528089166060850152507bffffffffffffffffffffffffffffffffffffffffffffffffffffffff19871660808401528560a08401528460c08401528060e08401526112f981840185611242565b9b9a5050505050505050505050565b600160a060020a03841681528260208201526060604082015260006107e16060830184611242565b60006020828403121561134257600080fd5b81518015158114610c9a57600080fd5b600082611388577f4e487b7100000000000000000000000000000000000000000000000000000000600052601260045260246000fd5b500690565b60008282101561139f5761139f6111fb565b500390565b60008160001904831182151516156113be576113be6111fb565b500290565b600181815b808511156114005781600019048211156113e4576113e46111fb565b808516156113f157918102915b600290940493908002906113c8565b509250929050565b60008261141757506001610b65565b8161142457506000610b65565b816001811461143a576002811461144457611461565b6001915050610b65565b60ff841115611455576114556111fb565b8360020a915050610b65565b5060208310610133831016604e8410600b8410161715611484575081810a610b65565b61148e83836113c3565b80600019048211156114a2576114a26111fb565b029392505050565b6000610c9a838361140856fea26469706673582212207d2a4db2855cd4cb5ee783ba4b99b519c85e35212b46dca4f99f7614820209a964736f6c634300080a0033",
  "immutableReferences": {},
  "source": "// SPDX-License-Identifier: MIT\npragma solidity ^0.8.0;\n\nimport \"./helpers/ReentrancyGuard.sol\";\n\nimport \"./helpers/Pausable.sol\";\n\nimport \"./helpers/Ownable.sol\";\n\nimport \"@chainlink/contracts/src/v0.8/ChainlinkClient.sol\";\n\n/// @title XChainBaseLayer. Base contract for cross-chain functionality\ncontract XChainBaseLayer is Ownable, ReentrancyGuard, Pausable {\n    /* Modifiers */\n    /// @notice Only allows functions to be executed where the sender matches the authorizedOracle address\n    modifier onlyAuthorizedOracle() {\n        require(\n            _msgSender() == authorizedOracle,\n            \"Only authd oracle can make call\"\n        );\n        _;\n    }\n    /// @notice Only allows functions to be executed where the sender matches the authorizedRelayer address\n    modifier onlyAuthorizedRelayer() {\n        require(\n            _msgSender() == authorizedRelayer,\n            \"Only authd relayer can make call\"\n        );\n        _;\n    }\n\n    /* Events */\n    event SentCrossChainBlockToOracle(uint256 indexed originChainBlockNumber);\n    event OracleReceivedCrossChainBlock(uint256 indexed originChainBlockNumber);\n    event RelayerReceivedCrossChainTx(bytes indexed transactionId);\n\n    /* State */\n    // TODO: Need to differentiate between Chainlink oracle and the account on the cloud function. Extra modifiers are needed\n    address authorizedOracle;\n    address authorizedRelayer;\n    address oracleContract; // TODO setter, constructor\n    address relayerContract; // TODO setter, constructor\n    bytes32 notifyOracleJobId; // TODO setter, constructor\n    bytes32 sendTxToRelayerJobId; // TODO setter, constructor\n    bytes32 requestProofJobId; // TODO setter, constructor\n    uint256 oraclePayment; // TODO setter\n\n    /* Setters */\n    /// @notice Sets the `authorizedOracle` address to a new address. This is designed to allow only a certain address to make calls\n    /// @param _authorizedOracle The new address to authorize as the oracle\n    function setAuthorizedOracle(address _authorizedOracle) public onlyOwner {\n        authorizedOracle = _authorizedOracle;\n    }\n\n    /// @notice Sets the `authorizedRelayer` address to a new address. This is designed to allow only a certain address to make calls\n    /// @param _authorizedRelayer The new address to authorize as the oracle\n    function setAuthorizedRelayer(address _authorizedRelayer) public onlyOwner {\n        authorizedRelayer = _authorizedRelayer;\n    }\n}\n\n// TODO: How is a cross chain vault even defined? Where will logic for encoding the payload and function go? (Chain ID, contract address, function signature)\n// TODO: How do we handle non EVM cross chain tx encoding? -> Serialize to bytes (whatever dest. chain's ABI equivalent is)\n// TODO: Where do we decide on minting/burning etc.?\n// TODO: Should we lock before burning?\n// TODO: Consider emitting events to make debugging easier\n// TODO: *** How do we keep chain of custody of msg.sender all the way across chains? -> Encode this in proveth.py, dest. contract needs to call the appropriate investment function and put in the replacement value for msg.sender\n// TODO: *** How do we know that the payload hasn't been tampered with? Merkle proof? -> Check the `input` field\n\n/// @title XChainEndpoint. The full contract (inherits from all contracts above) that interfaces with all cross-chain interactions\ncontract XChainEndpoint is XChainBaseLayer, ChainlinkClient {\n    using Chainlink for Chainlink.Request;\n\n    /* Constructor */\n    /// @notice Constructor. Sets permissions\n    /// @param _owner Address of intended owner for this contract\n    /// @param _authorizedOracle Address of the only Oracle node allowed to make calls to this contract\n    /// @param _authorizedRelayer Address of the only Relayer node allowed to make calls to this contract\n    constructor(\n        address _owner,\n        address _authorizedOracle,\n        address _authorizedRelayer\n    ) {\n        transferOwnership(_owner);\n        authorizedOracle = _authorizedOracle;\n        authorizedRelayer = _authorizedRelayer;\n    }\n\n    /*\n    /// Contract Layer. Functions for interacting with other smart contracts for cross-chain purposes\n    */\n\n    /* Sending chain */\n    /// @notice Starts off cross chain transaction by accepting contract & payload, and sending to Relay/Oracle layers\n    /// @param _destinationContract Address of the destination contract to call (in bytes to keep generic)\n    /// @param _payload Payload in ABI encoded bytes (or equivalent depending on chain)\n    function sendXChainTransaction(\n        bytes calldata _destinationContract,\n        bytes calldata _payload\n    ) public onlyOwner {\n        // Call relay\n        sendTransactionPacketToRelayer(_destinationContract, _payload);\n        // Call oracle\n        notifyOracle();\n    }\n\n    /* Receiving chain */\n    /// @notice receives a validated transaction from the Relay layer and calls the on-chain destination contract to make a transaction\n    /// @param _destinationContract Address of the destination contract to call to complete the cross chain transaction (in bytes to keep generic)\n    /// @param _payload Payload in ABI encoded bytes (or equivalent depending on chain)\n    function receiveXChainTransaction(\n        address _destinationContract,\n        bytes calldata _payload\n    ) internal {\n        // Perform contract call with the abi encoded payload\n        (bool success, ) = _destinationContract.call(_payload);\n        // Reverts if transaction does not succeed\n        require(success, \"Call to destination contract failed\");\n    }\n\n    /*\n    /// Relay Layer. Functions for interacting with the off-chain relayer.\n    */\n\n    /* Sending chain */\n    /// @notice Sends transaction information to the Relayer\n    /// @param _destinationContract universal address of the destination contract (in bytes to keep generic)\n    /// @param _payload ABI-encoded payload (or equivalent). Encodes both the function call and the payload\n    function sendTransactionPacketToRelayer(\n        bytes calldata _destinationContract,\n        bytes calldata _payload\n    ) internal {\n        // Create a Chainlink Request to send transaction info to the Relayer\n        Chainlink.Request memory req = buildChainlinkRequest(\n            sendTxToRelayerJobId,\n            address(this),\n            this.sendTransactionPacketToRelayerCallback.selector\n        );\n        req.addBytes(\"destContract\", _destinationContract);\n        req.addBytes(\"payload\", _payload);\n        sendChainlinkRequestTo(relayerContract, req, oraclePayment);\n    }\n\n    /// @notice Receives callback from Relayer, acknowledging receipt of transaction info\n    /// @param _transactionId Universal transaction ID (e.g. transaction hash) of the tx info that was successfully sent to the Relayer\n    function sendTransactionPacketToRelayerCallback(\n        bytes calldata _transactionId\n    ) external onlyAuthorizedOracle {\n        // Emits notification to acknowledge transaction processed by relayer\n        emit RelayerReceivedCrossChainTx(_transactionId);\n    }\n\n    /* Receiving chain */\n    /// @notice Allows Endpoint to query Relayer for any transactions (and their proofs) matching the block hash provided\n    /// @dev Meant to only be called internally by the Oracle layer. Triggers an async callback (validateTransactionsCallback)\n    /// @param _blockHeaderHash Bytes representing the block header hash for the block of interest\n    function requestTxProofsForBlock(bytes calldata _blockHeaderHash) internal {\n        // Create Chainlink Direct Request that queries Relayer w/ block header hash\n        Chainlink.Request memory req = buildChainlinkRequest(\n            requestProofJobId,\n            address(this),\n            this.validateTxProofsCallback.selector\n        );\n        req.addBytes(\"blockHash\", _blockHeaderHash);\n        sendChainlinkRequestTo(relayerContract, req, oraclePayment);\n    }\n\n    /// @notice Receives callback from Relayer in order to validate all cross chain transactions in a given block on the sending chain\n    /// @param _destinationContracts Array of addresses of destination contracts (one per tx)\n    /// @param _payloads Array of payloads for each transaction\n    /// @param _proofs Array of proofs (one per tx)\n    function validateTxProofsCallback(\n        address[] calldata _destinationContracts,\n        bytes[] calldata _payloads,\n        bytes[] calldata _proofs\n    ) external onlyAuthorizedRelayer {\n        // TODO complete function\n        // Iterate through length of _proofs\n        // For each proof, check against block header hash for validity\n        // For the first failure, revert the entire transaction\n        // Otherwise, call the Contract layer with the payloads and destination contracts\n        // TODO - where are we getting the block header hash from to compare proofs? Probably store a hash as private var?\n    }\n\n    /*\n    /// Oracle Layer. Functions for interacting with the oracle.\n    */\n\n    /* Sending chain */\n    /// @notice Notifies the Oracle that the current block contains Zorro cross chain transactions\n    /// @dev Meant to be called internally by the Contract layer\n    function notifyOracle() internal {\n        // Create Chainlink Direct Request that notifies Oracle\n        Chainlink.Request memory req = buildChainlinkRequest(\n            notifyOracleJobId,\n            address(this),\n            this.notifyOracleCallback.selector\n        );\n        sendChainlinkRequestTo(oracleContract, req, oraclePayment);\n    }\n\n    /// @notice Callback function for notifyOracle. Receives callback from Chainlink node after oracle job is run\n    /// @param _blockNumber The number of the block that was recorded by the Oracle in the notifyOracle() call\n    function notifyOracleCallback(uint256 _blockNumber)\n        external\n        onlyAuthorizedOracle\n    {\n        // Emit log\n        emit SentCrossChainBlockToOracle(_blockNumber);\n    }\n\n    /* Receiving chain */\n    /// @notice Receives message from the Oracle to begin the cross chain transaction on the receiving chain\n    /// @dev Can only be called by Oracle\n    /// @param _blockNumber A number representing the block of interest from the sending chain\n    /// @param _blockHeaderHash A string of the block header hash from the sending chain\n    function receiveOracleNotification(\n        uint256 _blockNumber,\n        bytes calldata _blockHeaderHash\n    ) external onlyAuthorizedOracle {\n        // Call Relay layer with block header hash\n        requestTxProofsForBlock(_blockHeaderHash);\n        // Emit log\n        emit OracleReceivedCrossChainBlock(_blockNumber);\n    }\n}\n",
  "sourcePath": "/Users/kristophm/workspace/crypto/zorro/zorro-protocol/contracts/XChainEndpoint.sol",
  "compiler": {
    "name": "solc",
    "version": "0.8.10+commit.fc410830.Emscripten.clang"
  },
  "schemaVersion": "3.4.3",
  "updatedAt": "2022-01-27T02:34:03.914Z",
  "devdoc": {
    "kind": "dev",
    "methods": {
      "constructor": {
        "params": {
          "_authorizedOracle": "Address of the only Oracle node allowed to make calls to this contract",
          "_authorizedRelayer": "Address of the only Relayer node allowed to make calls to this contract",
          "_owner": "Address of intended owner for this contract"
        }
      },
      "notifyOracleCallback(uint256)": {
        "params": {
          "_blockNumber": "The number of the block that was recorded by the Oracle in the notifyOracle() call"
        }
      },
      "owner()": {
        "details": "Returns the address of the current owner."
      },
      "paused()": {
        "details": "Returns true if the contract is paused, and false otherwise."
      },
      "receiveOracleNotification(uint256,bytes)": {
        "details": "Can only be called by Oracle",
        "params": {
          "_blockHeaderHash": "A string of the block header hash from the sending chain",
          "_blockNumber": "A number representing the block of interest from the sending chain"
        }
      },
      "renounceOwnership()": {
        "details": "Leaves the contract without owner. It will not be possible to call `onlyOwner` functions anymore. Can only be called by the current owner. NOTE: Renouncing ownership will leave the contract without an owner, thereby removing any functionality that is only available to the owner."
      },
      "sendTransactionPacketToRelayerCallback(bytes)": {
        "params": {
          "_transactionId": "Universal transaction ID (e.g. transaction hash) of the tx info that was successfully sent to the Relayer"
        }
      },
      "sendXChainTransaction(bytes,bytes)": {
        "params": {
          "_destinationContract": "Address of the destination contract to call (in bytes to keep generic)",
          "_payload": "Payload in ABI encoded bytes (or equivalent depending on chain)"
        }
      },
      "setAuthorizedOracle(address)": {
        "params": {
          "_authorizedOracle": "The new address to authorize as the oracle"
        }
      },
      "setAuthorizedRelayer(address)": {
        "params": {
          "_authorizedRelayer": "The new address to authorize as the oracle"
        }
      },
      "transferOwnership(address)": {
        "details": "Transfers ownership of the contract to a new account (`newOwner`). Can only be called by the current owner."
      },
      "validateTxProofsCallback(address[],bytes[],bytes[])": {
        "params": {
          "_destinationContracts": "Array of addresses of destination contracts (one per tx)",
          "_payloads": "Array of payloads for each transaction",
          "_proofs": "Array of proofs (one per tx)"
        }
      }
    },
    "title": "XChainEndpoint. The full contract (inherits from all contracts above) that interfaces with all cross-chain interactions",
    "version": 1
  },
  "userdoc": {
    "kind": "user",
    "methods": {
      "constructor": {
        "notice": "Constructor. Sets permissions"
      },
      "notifyOracleCallback(uint256)": {
        "notice": "Callback function for notifyOracle. Receives callback from Chainlink node after oracle job is run"
      },
      "receiveOracleNotification(uint256,bytes)": {
        "notice": "Receives message from the Oracle to begin the cross chain transaction on the receiving chain"
      },
      "sendTransactionPacketToRelayerCallback(bytes)": {
        "notice": "Receives callback from Relayer, acknowledging receipt of transaction info"
      },
      "sendXChainTransaction(bytes,bytes)": {
        "notice": "Starts off cross chain transaction by accepting contract & payload, and sending to Relay/Oracle layers"
      },
      "setAuthorizedOracle(address)": {
        "notice": "Sets the `authorizedOracle` address to a new address. This is designed to allow only a certain address to make calls"
      },
      "setAuthorizedRelayer(address)": {
        "notice": "Sets the `authorizedRelayer` address to a new address. This is designed to allow only a certain address to make calls"
      },
      "validateTxProofsCallback(address[],bytes[],bytes[])": {
        "notice": "Receives callback from Relayer in order to validate all cross chain transactions in a given block on the sending chain"
      }
    },
    "version": 1
  }
}