{
  "contractName": "ZORPriceFeed",
  "abi": [
    {
      "anonymous": false,
      "inputs": [
        {
          "indexed": true,
          "internalType": "address",
          "name": "previousOwner",
          "type": "address"
        },
        {
          "indexed": true,
          "internalType": "address",
          "name": "newOwner",
          "type": "address"
        }
      ],
      "name": "OwnershipTransferred",
      "type": "event"
    },
    {
      "inputs": [],
      "name": "decimals",
      "outputs": [
        {
          "internalType": "uint8",
          "name": "",
          "type": "uint8"
        }
      ],
      "stateMutability": "view",
      "type": "function"
    },
    {
      "inputs": [],
      "name": "description",
      "outputs": [
        {
          "internalType": "string",
          "name": "",
          "type": "string"
        }
      ],
      "stateMutability": "view",
      "type": "function"
    },
    {
      "inputs": [
        {
          "internalType": "uint80",
          "name": "_roundId",
          "type": "uint80"
        }
      ],
      "name": "getRoundData",
      "outputs": [
        {
          "internalType": "uint80",
          "name": "roundId",
          "type": "uint80"
        },
        {
          "internalType": "int256",
          "name": "answer",
          "type": "int256"
        },
        {
          "internalType": "uint256",
          "name": "startedAt",
          "type": "uint256"
        },
        {
          "internalType": "uint256",
          "name": "updatedAt",
          "type": "uint256"
        },
        {
          "internalType": "uint80",
          "name": "answeredInRound",
          "type": "uint80"
        }
      ],
      "stateMutability": "view",
      "type": "function"
    },
    {
      "inputs": [],
      "name": "latestRoundData",
      "outputs": [
        {
          "internalType": "uint80",
          "name": "roundId",
          "type": "uint80"
        },
        {
          "internalType": "int256",
          "name": "answer",
          "type": "int256"
        },
        {
          "internalType": "uint256",
          "name": "startedAt",
          "type": "uint256"
        },
        {
          "internalType": "uint256",
          "name": "updatedAt",
          "type": "uint256"
        },
        {
          "internalType": "uint80",
          "name": "answeredInRound",
          "type": "uint80"
        }
      ],
      "stateMutability": "view",
      "type": "function"
    },
    {
      "inputs": [],
      "name": "owner",
      "outputs": [
        {
          "internalType": "address",
          "name": "",
          "type": "address"
        }
      ],
      "stateMutability": "view",
      "type": "function"
    },
    {
      "inputs": [],
      "name": "renounceOwnership",
      "outputs": [],
      "stateMutability": "nonpayable",
      "type": "function"
    },
    {
      "inputs": [],
      "name": "router",
      "outputs": [
        {
          "internalType": "address",
          "name": "",
          "type": "address"
        }
      ],
      "stateMutability": "view",
      "type": "function"
    },
    {
      "inputs": [
        {
          "internalType": "address",
          "name": "newOwner",
          "type": "address"
        }
      ],
      "name": "transferOwnership",
      "outputs": [],
      "stateMutability": "nonpayable",
      "type": "function"
    },
    {
      "inputs": [],
      "name": "usdcToken",
      "outputs": [
        {
          "internalType": "address",
          "name": "",
          "type": "address"
        }
      ],
      "stateMutability": "view",
      "type": "function"
    },
    {
      "inputs": [],
      "name": "version",
      "outputs": [
        {
          "internalType": "uint256",
          "name": "",
          "type": "uint256"
        }
      ],
      "stateMutability": "view",
      "type": "function"
    },
    {
      "inputs": [],
      "name": "zorLPOtherToken",
      "outputs": [
        {
          "internalType": "address",
          "name": "",
          "type": "address"
        }
      ],
      "stateMutability": "view",
      "type": "function"
    },
    {
      "inputs": [],
      "name": "zorToken",
      "outputs": [
        {
          "internalType": "address",
          "name": "",
          "type": "address"
        }
      ],
      "stateMutability": "view",
      "type": "function"
    },
    {
      "inputs": [
        {
          "internalType": "address",
          "name": "_router",
          "type": "address"
        },
        {
          "internalType": "uint8",
          "name": "_decimals",
          "type": "uint8"
        }
      ],
      "name": "initialize",
      "outputs": [],
      "stateMutability": "nonpayable",
      "type": "function"
    },
    {
      "inputs": [
        {
          "internalType": "address",
          "name": "_router",
          "type": "address"
        },
        {
          "internalType": "address",
          "name": "_zorToken",
          "type": "address"
        },
        {
          "internalType": "address",
          "name": "_zorLPOtherToken",
          "type": "address"
        },
        {
          "internalType": "address",
          "name": "_usdcToken",
          "type": "address"
        }
      ],
      "name": "initialize",
      "outputs": [],
      "stateMutability": "nonpayable",
      "type": "function"
    }
  ],
  "bytecode": "0x608060405234801561001057600080fd5b50610d60806100206000396000f3fe608060405234801561001057600080fd5b5060043610610107576000357c0100000000000000000000000000000000000000000000000000000000900480639a6fc8f5116100a9578063f2fde38b11610083578063f2fde38b1461024b578063f887ea401461025e578063f8c8765e14610271578063feaf968c1461028457600080fd5b80639a6fc8f5146101cd578063da9778b414610217578063f2d78c381461023857600080fd5b8063715018a6116100e5578063715018a61461018a5780637284e416146101945780638da5cb5b146101a9578063943b24b2146101ba57600080fd5b806311eac8551461010c578063313ce5671461013c57806354fd4d5014610173575b600080fd5b606d5461011f90600160a060020a031681565b604051600160a060020a0390911681526020015b60405180910390f35b6065546101619074010000000000000000000000000000000000000000900460ff1681565b60405160ff9091168152602001610133565b61017c60675481565b604051908152602001610133565b61019261028c565b005b61019c6102fa565b6040516101339190610924565b603354600160a060020a031661011f565b6101926101c8366004610995565b610388565b6101e06101db3660046109ea565b610446565b6040805169ffffffffffffffffffff968716815260208101959095528401929092526060830152909116608082015260a001610133565b606b5461011f906a01000000000000000000009004600160a060020a031681565b606c5461011f90600160a060020a031681565b610192610259366004610a0e565b6104dc565b60655461011f90600160a060020a031681565b61019261027f366004610a29565b6105c4565b6101e06106c4565b603354600160a060020a031633146102ee5760405160e560020a62461bcd02815260206004820181905260248201527f4f776e61626c653a2063616c6c6572206973206e6f7420746865206f776e657260448201526064015b60405180910390fd5b6102f8600061070d565b565b6066805461030790610a7d565b80601f016020809104026020016040519081016040528092919081815260200182805461033390610a7d565b80156103805780601f1061035557610100808354040283529160200191610380565b820191906000526020600020905b81548152906001019060200180831161036357829003601f168201915b505050505081565b600054610100900460ff166103a35760005460ff16156103a7565b303b155b6103c65760405160e560020a62461bcd0281526004016102e590610abb565b600054610100900460ff161580156103e8576000805461ffff19166101011790555b6065805460ff8416740100000000000000000000000000000000000000000274ffffffffffffffffffffffffffffffffffffffffff19909116600160a060020a038616171790558015610441576000805461ff00191690555b505050565b60008080808030600160a060020a031663feaf968c6040518163ffffffff167c010000000000000000000000000000000000000000000000000000000002815260040160a060405180830381865afa1580156104a6573d6000803e3d6000fd5b505050506040513d601f19601f820116820180604052508101906104ca9190610b18565b939a9299509097509550909350915050565b603354600160a060020a031633146105395760405160e560020a62461bcd02815260206004820181905260248201527f4f776e61626c653a2063616c6c6572206973206e6f7420746865206f776e657260448201526064016102e5565b600160a060020a0381166105b85760405160e560020a62461bcd02815260206004820152602660248201527f4f776e61626c653a206e6577206f776e657220697320746865207a65726f206160448201527f646472657373000000000000000000000000000000000000000000000000000060648201526084016102e5565b6105c18161070d565b50565b600054610100900460ff166105df5760005460ff16156105e3565b303b155b6106025760405160e560020a62461bcd0281526004016102e590610abb565b600054610100900460ff16158015610624576000805461ffff19166101011790555b61062f856012610388565b606b8054600160a060020a038087166a0100000000000000000000027fffff0000000000000000000000000000000000000000ffffffffffffffffffff90921691909117909155606c805485831673ffffffffffffffffffffffffffffffffffffffff1991821617909155606d80549285169290911691909117905580156106bd576000805461ff00191690555b5050505050565b606854600090819081908190819069ffffffffffffffffffff166106e661076c565b606954606a54606b549399929850909650945069ffffffffffffffffffff90911692509050565b60338054600160a060020a0383811673ffffffffffffffffffffffffffffffffffffffff19831681179093556040519116919082907f8be0079c531659141344cd1fd0a4f28419497f9722a3daafe3b4186f6b6457e090600090a35050565b6040805160038082526080820190925260009182919060208201606080368337019050509050606b600a9054906101000a9004600160a060020a0316816000815181106107bb576107bb610b89565b600160a060020a039283166020918202929092010152606c548251911690829060019081106107ec576107ec610b89565b600160a060020a039283166020918202929092010152606d5482519116908290600290811061081d5761081d610b89565b600160a060020a0392831660209182029290920101526065546040517fd06ca61f000000000000000000000000000000000000000000000000000000008152670de0b6b3a764000092600092169063d06ca61f906108819085908790600401610ba2565b600060405180830381865afa15801561089e573d6000803e3d6000fd5b505050506040513d6000823e601f3d908101601f191682016040526108c69190810190610bf9565b90508181600183516108d89190610ccf565b815181106108e8576108e8610b89565b6020026020010151670de0b6b3a76400006109039190610ce6565b6109129064e8d4a51000610ce6565b61091c9190610d05565b935050505090565b600060208083528351808285015260005b8181101561095157858101830151858201604001528201610935565b81811115610963576000604083870101525b50601f01601f1916929092016040019392505050565b8035600160a060020a038116811461099057600080fd5b919050565b600080604083850312156109a857600080fd5b6109b183610979565b9150602083013560ff811681146109c757600080fd5b809150509250929050565b69ffffffffffffffffffff811681146105c157600080fd5b6000602082840312156109fc57600080fd5b8135610a07816109d2565b9392505050565b600060208284031215610a2057600080fd5b610a0782610979565b60008060008060808587031215610a3f57600080fd5b610a4885610979565b9350610a5660208601610979565b9250610a6460408601610979565b9150610a7260608601610979565b905092959194509250565b600281046001821680610a9157607f821691505b60208210811415610ab55760e060020a634e487b7102600052602260045260246000fd5b50919050565b6020808252602e908201527f496e697469616c697a61626c653a20636f6e747261637420697320616c72656160408201527f647920696e697469616c697a6564000000000000000000000000000000000000606082015260800190565b600080600080600060a08688031215610b3057600080fd5b8551610b3b816109d2565b809550506020860151935060408601519250606086015191506080860151610b62816109d2565b809150509295509295909350565b60e060020a634e487b7102600052604160045260246000fd5b60e060020a634e487b7102600052603260045260246000fd5b6000604082018483526020604081850152818551808452606086019150828701935060005b81811015610bec578451600160a060020a031683529383019391830191600101610bc7565b5090979650505050505050565b60006020808385031215610c0c57600080fd5b825167ffffffffffffffff80821115610c2457600080fd5b818501915085601f830112610c3857600080fd5b815181811115610c4a57610c4a610b70565b838102604051601f19603f83011681018181108582111715610c6e57610c6e610b70565b604052918252848201925083810185019188831115610c8c57600080fd5b938501935b82851015610caa57845184529385019392850192610c91565b98975050505050505050565b60e060020a634e487b7102600052601160045260246000fd5b600082821015610ce157610ce1610cb6565b500390565b6000816000190483118215151615610d0057610d00610cb6565b500290565b600082610d255760e060020a634e487b7102600052601260045260246000fd5b50049056fea264697066735822122038ac60775970751c342494176d039222462f2e5734d9926e12dd9c0c5f41f9d064736f6c634300080a0033",
  "immutableReferences": {},
  "source": "// SPDX-License-Identifier: MIT\n\npragma solidity ^0.8.0;\n\nimport \"../interfaces/Uniswap/IAMMRouter02.sol\";\n\nimport \"./_PriceFeedAggBase.sol\";\n\n/// @title ZORPriceFeed\ncontract ZORPriceFeed is PriceFeedAggBase {\n    /* State */\n\n    address public zorToken;\n    address public zorLPOtherToken;\n    address public usdcToken;\n\n    /* Constructor */\n\n    function initialize(\n        address _router,\n        address _zorToken,\n        address _zorLPOtherToken,\n        address _usdcToken\n    ) public initializer {\n        PriceFeedAggBase.initialize(_router, 18);\n\n        zorToken = _zorToken;\n        zorLPOtherToken = _zorLPOtherToken;\n        usdcToken = _usdcToken;\n    }\n\n    /* Functions */\n\n    function _getExchRate() internal view override returns (uint256) {\n        address[] memory _path = new address[](3);\n        _path[0] = zorToken;\n        _path[1] = zorLPOtherToken;\n        _path[2] = usdcToken;\n        uint256 _amtIn = 1 ether;\n        uint256[] memory _amts = IAMMRouter02(router).getAmountsOut(\n            _amtIn,\n            _path\n        );\n        return (_amts[_amts.length - 1] * (10**18) * (10**12)) / _amtIn;\n    }\n}\n",
  "sourcePath": "/Users/kristophm/Documents/workspace/zorro-protocol/contracts/pricefeeds/ZORPriceFeed.sol",
  "compiler": {
    "name": "solc",
    "version": "0.8.10+commit.fc410830.Emscripten.clang"
  },
  "schemaVersion": "3.4.10",
  "updatedAt": "2022-12-23T20:50:34.844Z",
  "devdoc": {
    "kind": "dev",
    "methods": {
      "owner()": {
        "details": "Returns the address of the current owner."
      },
      "renounceOwnership()": {
        "details": "Leaves the contract without owner. It will not be possible to call `onlyOwner` functions anymore. Can only be called by the current owner. NOTE: Renouncing ownership will leave the contract without an owner, thereby removing any functionality that is only available to the owner."
      },
      "transferOwnership(address)": {
        "details": "Transfers ownership of the contract to a new account (`newOwner`). Can only be called by the current owner."
      }
    },
    "title": "ZORPriceFeed",
    "version": 1
  },
  "userdoc": {
    "kind": "user",
    "methods": {},
    "version": 1
  }
}