{
  "contractName": "ZorroControllerXChainWithdraw",
  "abi": [
    {
      "anonymous": false,
      "inputs": [
        {
          "indexed": true,
          "internalType": "address",
          "name": "account",
          "type": "address"
        },
        {
          "indexed": true,
          "internalType": "bytes",
          "name": "foreignAccount",
          "type": "bytes"
        },
        {
          "indexed": true,
          "internalType": "uint256",
          "name": "pid",
          "type": "uint256"
        },
        {
          "indexed": false,
          "internalType": "uint256",
          "name": "wantAmount",
          "type": "uint256"
        }
      ],
      "name": "Deposit",
      "type": "event"
    },
    {
      "anonymous": false,
      "inputs": [
        {
          "indexed": true,
          "internalType": "address",
          "name": "previousOwner",
          "type": "address"
        },
        {
          "indexed": true,
          "internalType": "address",
          "name": "newOwner",
          "type": "address"
        }
      ],
      "name": "OwnershipTransferred",
      "type": "event"
    },
    {
      "anonymous": false,
      "inputs": [
        {
          "indexed": false,
          "internalType": "address",
          "name": "account",
          "type": "address"
        },
        {
          "indexed": true,
          "internalType": "uint256",
          "name": "fromPid",
          "type": "uint256"
        },
        {
          "indexed": true,
          "internalType": "uint256",
          "name": "fromTrancheId",
          "type": "uint256"
        },
        {
          "indexed": true,
          "internalType": "uint256",
          "name": "toPid",
          "type": "uint256"
        }
      ],
      "name": "TransferInvestment",
      "type": "event"
    },
    {
      "anonymous": false,
      "inputs": [
        {
          "indexed": true,
          "internalType": "address",
          "name": "account",
          "type": "address"
        },
        {
          "indexed": true,
          "internalType": "bytes",
          "name": "foreignAccount",
          "type": "bytes"
        },
        {
          "indexed": true,
          "internalType": "uint256",
          "name": "pid",
          "type": "uint256"
        },
        {
          "indexed": false,
          "internalType": "uint256",
          "name": "trancheId",
          "type": "uint256"
        },
        {
          "indexed": false,
          "internalType": "uint256",
          "name": "wantAmount",
          "type": "uint256"
        }
      ],
      "name": "Withdraw",
      "type": "event"
    },
    {
      "anonymous": false,
      "inputs": [
        {
          "indexed": true,
          "internalType": "uint256",
          "name": "_pid",
          "type": "uint256"
        },
        {
          "indexed": true,
          "internalType": "address",
          "name": "_originRecipient",
          "type": "address"
        },
        {
          "indexed": true,
          "internalType": "uint256",
          "name": "_burnableZORRewards",
          "type": "uint256"
        },
        {
          "indexed": false,
          "internalType": "uint256",
          "name": "_trancheId",
          "type": "uint256"
        },
        {
          "indexed": false,
          "internalType": "uint256",
          "name": "_originChainId",
          "type": "uint256"
        }
      ],
      "name": "XChainRepatriation",
      "type": "event"
    },
    {
      "inputs": [
        {
          "internalType": "uint256",
          "name": "",
          "type": "uint256"
        }
      ],
      "name": "USDCToZorroLPPoolOtherTokenPath",
      "outputs": [
        {
          "internalType": "address",
          "name": "",
          "type": "address"
        }
      ],
      "stateMutability": "view",
      "type": "function"
    },
    {
      "inputs": [
        {
          "internalType": "uint256",
          "name": "",
          "type": "uint256"
        }
      ],
      "name": "USDCToZorroPath",
      "outputs": [
        {
          "internalType": "address",
          "name": "",
          "type": "address"
        }
      ],
      "stateMutability": "view",
      "type": "function"
    },
    {
      "inputs": [],
      "name": "ZORRO",
      "outputs": [
        {
          "internalType": "address",
          "name": "",
          "type": "address"
        }
      ],
      "stateMutability": "view",
      "type": "function"
    },
    {
      "inputs": [],
      "name": "ZORRODailyDistributionFactorBasisPointsMax",
      "outputs": [
        {
          "internalType": "uint256",
          "name": "",
          "type": "uint256"
        }
      ],
      "stateMutability": "view",
      "type": "function"
    },
    {
      "inputs": [],
      "name": "ZORRODailyDistributionFactorBasisPointsMin",
      "outputs": [
        {
          "internalType": "uint256",
          "name": "",
          "type": "uint256"
        }
      ],
      "stateMutability": "view",
      "type": "function"
    },
    {
      "inputs": [],
      "name": "ZORROPerBlock",
      "outputs": [
        {
          "internalType": "uint256",
          "name": "",
          "type": "uint256"
        }
      ],
      "stateMutability": "view",
      "type": "function"
    },
    {
      "inputs": [
        {
          "internalType": "uint256",
          "name": "",
          "type": "uint256"
        }
      ],
      "name": "ZorroChainToLZMap",
      "outputs": [
        {
          "internalType": "uint16",
          "name": "",
          "type": "uint16"
        }
      ],
      "stateMutability": "view",
      "type": "function"
    },
    {
      "inputs": [],
      "name": "baseRewardRateBasisPoints",
      "outputs": [
        {
          "internalType": "uint256",
          "name": "",
          "type": "uint256"
        }
      ],
      "stateMutability": "view",
      "type": "function"
    },
    {
      "inputs": [],
      "name": "blocksPerDay",
      "outputs": [
        {
          "internalType": "uint256",
          "name": "",
          "type": "uint256"
        }
      ],
      "stateMutability": "view",
      "type": "function"
    },
    {
      "inputs": [],
      "name": "burnAddress",
      "outputs": [
        {
          "internalType": "address",
          "name": "",
          "type": "address"
        }
      ],
      "stateMutability": "view",
      "type": "function"
    },
    {
      "inputs": [],
      "name": "chainId",
      "outputs": [
        {
          "internalType": "uint256",
          "name": "",
          "type": "uint256"
        }
      ],
      "stateMutability": "view",
      "type": "function"
    },
    {
      "inputs": [],
      "name": "chainMultiplier",
      "outputs": [
        {
          "internalType": "uint256",
          "name": "",
          "type": "uint256"
        }
      ],
      "stateMutability": "view",
      "type": "function"
    },
    {
      "inputs": [
        {
          "internalType": "uint256",
          "name": "",
          "type": "uint256"
        }
      ],
      "name": "controllerContractsMap",
      "outputs": [
        {
          "internalType": "bytes",
          "name": "",
          "type": "bytes"
        }
      ],
      "stateMutability": "view",
      "type": "function"
    },
    {
      "inputs": [],
      "name": "defaultMaxMarketMovement",
      "outputs": [
        {
          "internalType": "uint256",
          "name": "",
          "type": "uint256"
        }
      ],
      "stateMutability": "view",
      "type": "function"
    },
    {
      "inputs": [],
      "name": "defaultStablecoin",
      "outputs": [
        {
          "internalType": "address",
          "name": "",
          "type": "address"
        }
      ],
      "stateMutability": "view",
      "type": "function"
    },
    {
      "inputs": [
        {
          "internalType": "uint256",
          "name": "_pid",
          "type": "uint256"
        },
        {
          "internalType": "uint256",
          "name": "_wantAmt",
          "type": "uint256"
        },
        {
          "internalType": "uint256",
          "name": "_weeksCommitted",
          "type": "uint256"
        }
      ],
      "name": "deposit",
      "outputs": [],
      "stateMutability": "nonpayable",
      "type": "function"
    },
    {
      "inputs": [
        {
          "internalType": "uint256",
          "name": "_pid",
          "type": "uint256"
        },
        {
          "internalType": "uint256",
          "name": "_valueUSDC",
          "type": "uint256"
        },
        {
          "internalType": "uint256",
          "name": "_weeksCommitted",
          "type": "uint256"
        },
        {
          "internalType": "uint256",
          "name": "_maxMarketMovement",
          "type": "uint256"
        }
      ],
      "name": "depositFullService",
      "outputs": [],
      "stateMutability": "nonpayable",
      "type": "function"
    },
    {
      "inputs": [
        {
          "internalType": "uint256",
          "name": "",
          "type": "uint256"
        },
        {
          "internalType": "bytes",
          "name": "",
          "type": "bytes"
        },
        {
          "internalType": "uint256",
          "name": "",
          "type": "uint256"
        }
      ],
      "name": "foreignTrancheInfo",
      "outputs": [
        {
          "internalType": "address",
          "name": "",
          "type": "address"
        }
      ],
      "stateMutability": "view",
      "type": "function"
    },
    {
      "inputs": [
        {
          "internalType": "uint256",
          "name": "durationInWeeks",
          "type": "uint256"
        }
      ],
      "name": "getTimeMultiplier",
      "outputs": [
        {
          "internalType": "uint256",
          "name": "",
          "type": "uint256"
        }
      ],
      "stateMutability": "view",
      "type": "function"
    },
    {
      "inputs": [
        {
          "internalType": "uint256",
          "name": "_liquidityCommitted",
          "type": "uint256"
        },
        {
          "internalType": "uint256",
          "name": "_timeMultiplier",
          "type": "uint256"
        }
      ],
      "name": "getUserContribution",
      "outputs": [
        {
          "internalType": "uint256",
          "name": "",
          "type": "uint256"
        }
      ],
      "stateMutability": "pure",
      "type": "function"
    },
    {
      "inputs": [],
      "name": "homeChainId",
      "outputs": [
        {
          "internalType": "uint256",
          "name": "",
          "type": "uint256"
        }
      ],
      "stateMutability": "view",
      "type": "function"
    },
    {
      "inputs": [],
      "name": "homeChainZorroController",
      "outputs": [
        {
          "internalType": "address",
          "name": "",
          "type": "address"
        }
      ],
      "stateMutability": "view",
      "type": "function"
    },
    {
      "inputs": [
        {
          "internalType": "address",
          "name": "_token",
          "type": "address"
        },
        {
          "internalType": "uint256",
          "name": "_amount",
          "type": "uint256"
        }
      ],
      "name": "inCaseTokensGetStuck",
      "outputs": [],
      "stateMutability": "nonpayable",
      "type": "function"
    },
    {
      "inputs": [],
      "name": "isTimeMultiplierActive",
      "outputs": [
        {
          "internalType": "bool",
          "name": "",
          "type": "bool"
        }
      ],
      "stateMutability": "view",
      "type": "function"
    },
    {
      "inputs": [],
      "name": "layerZeroEndpoint",
      "outputs": [
        {
          "internalType": "address",
          "name": "",
          "type": "address"
        }
      ],
      "stateMutability": "view",
      "type": "function"
    },
    {
      "inputs": [],
      "name": "owner",
      "outputs": [
        {
          "internalType": "address",
          "name": "",
          "type": "address"
        }
      ],
      "stateMutability": "view",
      "type": "function"
    },
    {
      "inputs": [
        {
          "internalType": "uint256",
          "name": "",
          "type": "uint256"
        }
      ],
      "name": "poolInfo",
      "outputs": [
        {
          "internalType": "contract IERC20",
          "name": "want",
          "type": "address"
        },
        {
          "internalType": "uint256",
          "name": "allocPoint",
          "type": "uint256"
        },
        {
          "internalType": "uint256",
          "name": "lastRewardBlock",
          "type": "uint256"
        },
        {
          "internalType": "uint256",
          "name": "accZORRORewards",
          "type": "uint256"
        },
        {
          "internalType": "uint256",
          "name": "totalTrancheContributions",
          "type": "uint256"
        },
        {
          "internalType": "address",
          "name": "vault",
          "type": "address"
        }
      ],
      "stateMutability": "view",
      "type": "function"
    },
    {
      "inputs": [],
      "name": "poolLength",
      "outputs": [
        {
          "internalType": "uint256",
          "name": "",
          "type": "uint256"
        }
      ],
      "stateMutability": "view",
      "type": "function"
    },
    {
      "inputs": [],
      "name": "priceFeedLPPoolOtherToken",
      "outputs": [
        {
          "internalType": "contract AggregatorV3Interface",
          "name": "",
          "type": "address"
        }
      ],
      "stateMutability": "view",
      "type": "function"
    },
    {
      "inputs": [],
      "name": "priceFeedZOR",
      "outputs": [
        {
          "internalType": "contract AggregatorV3Interface",
          "name": "",
          "type": "address"
        }
      ],
      "stateMutability": "view",
      "type": "function"
    },
    {
      "inputs": [],
      "name": "publicPool",
      "outputs": [
        {
          "internalType": "address",
          "name": "",
          "type": "address"
        }
      ],
      "stateMutability": "view",
      "type": "function"
    },
    {
      "inputs": [],
      "name": "renounceOwnership",
      "outputs": [],
      "stateMutability": "nonpayable",
      "type": "function"
    },
    {
      "inputs": [
        {
          "internalType": "uint256",
          "name": "_zorroChainId",
          "type": "uint256"
        },
        {
          "internalType": "bytes",
          "name": "_controller",
          "type": "bytes"
        }
      ],
      "name": "setControllerContract",
      "outputs": [],
      "stateMutability": "nonpayable",
      "type": "function"
    },
    {
      "inputs": [
        {
          "internalType": "uint256",
          "name": "_defaultMaxMarketMovement",
          "type": "uint256"
        }
      ],
      "name": "setDefaultMaxMarketMovement",
      "outputs": [],
      "stateMutability": "nonpayable",
      "type": "function"
    },
    {
      "inputs": [
        {
          "internalType": "bool",
          "name": "_isActive",
          "type": "bool"
        }
      ],
      "name": "setIsTimeMultiplierActive",
      "outputs": [],
      "stateMutability": "nonpayable",
      "type": "function"
    },
    {
      "inputs": [
        {
          "internalType": "address",
          "name": "_ZORRO",
          "type": "address"
        },
        {
          "internalType": "address",
          "name": "_defaultStablecoin",
          "type": "address"
        }
      ],
      "name": "setKeyAddresses",
      "outputs": [],
      "stateMutability": "nonpayable",
      "type": "function"
    },
    {
      "inputs": [
        {
          "internalType": "address",
          "name": "_stargateRouter",
          "type": "address"
        },
        {
          "internalType": "uint256",
          "name": "_stargateSwapPoolId",
          "type": "uint256"
        },
        {
          "internalType": "address",
          "name": "_layerZeroEndpoint",
          "type": "address"
        }
      ],
      "name": "setLayerZeroParams",
      "outputs": [],
      "stateMutability": "nonpayable",
      "type": "function"
    },
    {
      "inputs": [
        {
          "internalType": "address",
          "name": "_priceFeedZOR",
          "type": "address"
        },
        {
          "internalType": "address",
          "name": "_priceFeedLPPoolOtherToken",
          "type": "address"
        }
      ],
      "name": "setPriceFeeds",
      "outputs": [],
      "stateMutability": "nonpayable",
      "type": "function"
    },
    {
      "inputs": [
        {
          "internalType": "uint256[]",
          "name": "_blockParams",
          "type": "uint256[]"
        },
        {
          "internalType": "uint256[]",
          "name": "_dailyDistFactors",
          "type": "uint256[]"
        },
        {
          "internalType": "uint256",
          "name": "_chainMultiplier",
          "type": "uint256"
        },
        {
          "internalType": "uint256",
          "name": "_baseRewardRateBasisPoints",
          "type": "uint256"
        }
      ],
      "name": "setRewardsParams",
      "outputs": [],
      "stateMutability": "nonpayable",
      "type": "function"
    },
    {
      "inputs": [
        {
          "internalType": "uint256",
          "name": "_zorroChainId",
          "type": "uint256"
        },
        {
          "internalType": "uint16",
          "name": "_stargatePoolId",
          "type": "uint16"
        }
      ],
      "name": "setStargateDestPoolIds",
      "outputs": [],
      "stateMutability": "nonpayable",
      "type": "function"
    },
    {
      "inputs": [
        {
          "internalType": "uint256",
          "name": "_startBlock",
          "type": "uint256"
        }
      ],
      "name": "setStartBlock",
      "outputs": [],
      "stateMutability": "nonpayable",
      "type": "function"
    },
    {
      "inputs": [
        {
          "internalType": "uint256",
          "name": "_targetTVLCaptureBasisPoints",
          "type": "uint256"
        }
      ],
      "name": "setTargetTVLCaptureBasisPoints",
      "outputs": [],
      "stateMutability": "nonpayable",
      "type": "function"
    },
    {
      "inputs": [
        {
          "internalType": "address[]",
          "name": "_path",
          "type": "address[]"
        }
      ],
      "name": "setUSDCToZORPath",
      "outputs": [],
      "stateMutability": "nonpayable",
      "type": "function"
    },
    {
      "inputs": [
        {
          "internalType": "address[]",
          "name": "_path",
          "type": "address[]"
        }
      ],
      "name": "setUSDCToZorroLPPoolOtherTokenPath",
      "outputs": [],
      "stateMutability": "nonpayable",
      "type": "function"
    },
    {
      "inputs": [
        {
          "internalType": "address",
          "name": "_uniV2Router",
          "type": "address"
        }
      ],
      "name": "setUniRouter",
      "outputs": [],
      "stateMutability": "nonpayable",
      "type": "function"
    },
    {
      "inputs": [
        {
          "internalType": "uint256",
          "name": "_chainId",
          "type": "uint256"
        },
        {
          "internalType": "uint256",
          "name": "_homeChainId",
          "type": "uint256"
        },
        {
          "internalType": "address",
          "name": "_homeChainZorroController",
          "type": "address"
        }
      ],
      "name": "setXChainParams",
      "outputs": [],
      "stateMutability": "nonpayable",
      "type": "function"
    },
    {
      "inputs": [
        {
          "internalType": "uint256",
          "name": "_zorroChainId",
          "type": "uint256"
        },
        {
          "internalType": "uint16",
          "name": "_lzChainId",
          "type": "uint16"
        }
      ],
      "name": "setZorroChainToLZMap",
      "outputs": [],
      "stateMutability": "nonpayable",
      "type": "function"
    },
    {
      "inputs": [
        {
          "internalType": "address",
          "name": "_publicPool",
          "type": "address"
        },
        {
          "internalType": "address",
          "name": "_zorroStakingVault",
          "type": "address"
        }
      ],
      "name": "setZorroContracts",
      "outputs": [],
      "stateMutability": "nonpayable",
      "type": "function"
    },
    {
      "inputs": [
        {
          "internalType": "address",
          "name": "_zorroControllerOracle",
          "type": "address"
        }
      ],
      "name": "setZorroControllerOracle",
      "outputs": [],
      "stateMutability": "nonpayable",
      "type": "function"
    },
    {
      "inputs": [
        {
          "internalType": "address",
          "name": "_zorroLPPool",
          "type": "address"
        },
        {
          "internalType": "address",
          "name": "_zorroLPPoolOtherToken",
          "type": "address"
        }
      ],
      "name": "setZorroLPPoolParams",
      "outputs": [],
      "stateMutability": "nonpayable",
      "type": "function"
    },
    {
      "inputs": [
        {
          "internalType": "uint256",
          "name": "_totalChainMultipliers",
          "type": "uint256"
        },
        {
          "internalType": "uint256",
          "name": "_totalMarketTVLUSD",
          "type": "uint256"
        },
        {
          "internalType": "uint256",
          "name": "_targetTVLCaptureBasisPoints",
          "type": "uint256"
        },
        {
          "internalType": "uint256",
          "name": "_ZorroTotalVaultTVLUSD",
          "type": "uint256"
        },
        {
          "internalType": "uint256",
          "name": "_publicPoolZORBalance",
          "type": "uint256"
        }
      ],
      "name": "setZorroPerBlock",
      "outputs": [],
      "stateMutability": "nonpayable",
      "type": "function"
    },
    {
      "inputs": [
        {
          "internalType": "uint256",
          "name": "",
          "type": "uint256"
        }
      ],
      "name": "stargateDestPoolIds",
      "outputs": [
        {
          "internalType": "uint256",
          "name": "",
          "type": "uint256"
        }
      ],
      "stateMutability": "view",
      "type": "function"
    },
    {
      "inputs": [],
      "name": "stargateRouter",
      "outputs": [
        {
          "internalType": "address",
          "name": "",
          "type": "address"
        }
      ],
      "stateMutability": "view",
      "type": "function"
    },
    {
      "inputs": [],
      "name": "stargateSwapPoolId",
      "outputs": [
        {
          "internalType": "uint256",
          "name": "",
          "type": "uint256"
        }
      ],
      "stateMutability": "view",
      "type": "function"
    },
    {
      "inputs": [],
      "name": "startBlock",
      "outputs": [
        {
          "internalType": "uint256",
          "name": "",
          "type": "uint256"
        }
      ],
      "stateMutability": "view",
      "type": "function"
    },
    {
      "inputs": [],
      "name": "targetTVLCaptureBasisPoints",
      "outputs": [
        {
          "internalType": "uint256",
          "name": "",
          "type": "uint256"
        }
      ],
      "stateMutability": "view",
      "type": "function"
    },
    {
      "inputs": [],
      "name": "totalAllocPoint",
      "outputs": [
        {
          "internalType": "uint256",
          "name": "",
          "type": "uint256"
        }
      ],
      "stateMutability": "view",
      "type": "function"
    },
    {
      "inputs": [
        {
          "internalType": "uint256",
          "name": "",
          "type": "uint256"
        },
        {
          "internalType": "address",
          "name": "",
          "type": "address"
        },
        {
          "internalType": "uint256",
          "name": "",
          "type": "uint256"
        }
      ],
      "name": "trancheInfo",
      "outputs": [
        {
          "internalType": "uint256",
          "name": "contribution",
          "type": "uint256"
        },
        {
          "internalType": "uint256",
          "name": "timeMultiplier",
          "type": "uint256"
        },
        {
          "internalType": "uint256",
          "name": "rewardDebt",
          "type": "uint256"
        },
        {
          "internalType": "uint256",
          "name": "durationCommittedInWeeks",
          "type": "uint256"
        },
        {
          "internalType": "uint256",
          "name": "enteredVaultAt",
          "type": "uint256"
        },
        {
          "internalType": "uint256",
          "name": "exitedVaultAt",
          "type": "uint256"
        }
      ],
      "stateMutability": "view",
      "type": "function"
    },
    {
      "inputs": [
        {
          "internalType": "uint256",
          "name": "_pid",
          "type": "uint256"
        },
        {
          "internalType": "address",
          "name": "_user",
          "type": "address"
        }
      ],
      "name": "trancheLength",
      "outputs": [
        {
          "internalType": "uint256",
          "name": "",
          "type": "uint256"
        }
      ],
      "stateMutability": "view",
      "type": "function"
    },
    {
      "inputs": [
        {
          "internalType": "uint256",
          "name": "_fromPid",
          "type": "uint256"
        },
        {
          "internalType": "uint256",
          "name": "_fromTrancheId",
          "type": "uint256"
        },
        {
          "internalType": "uint256",
          "name": "_toPid",
          "type": "uint256"
        },
        {
          "internalType": "uint256",
          "name": "_maxMarketMovement",
          "type": "uint256"
        }
      ],
      "name": "transferInvestment",
      "outputs": [],
      "stateMutability": "nonpayable",
      "type": "function"
    },
    {
      "inputs": [
        {
          "internalType": "address",
          "name": "newOwner",
          "type": "address"
        }
      ],
      "name": "transferOwnership",
      "outputs": [],
      "stateMutability": "nonpayable",
      "type": "function"
    },
    {
      "inputs": [],
      "name": "uniRouterAddress",
      "outputs": [
        {
          "internalType": "address",
          "name": "",
          "type": "address"
        }
      ],
      "stateMutability": "view",
      "type": "function"
    },
    {
      "inputs": [
        {
          "internalType": "uint256",
          "name": "_pid",
          "type": "uint256"
        }
      ],
      "name": "updatePool",
      "outputs": [
        {
          "internalType": "uint256",
          "name": "",
          "type": "uint256"
        }
      ],
      "stateMutability": "nonpayable",
      "type": "function"
    },
    {
      "inputs": [
        {
          "internalType": "uint256",
          "name": "_pid",
          "type": "uint256"
        },
        {
          "internalType": "uint256",
          "name": "_trancheId",
          "type": "uint256"
        },
        {
          "internalType": "bool",
          "name": "_harvestOnly",
          "type": "bool"
        }
      ],
      "name": "withdraw",
      "outputs": [
        {
          "internalType": "uint256",
          "name": "",
          "type": "uint256"
        }
      ],
      "stateMutability": "nonpayable",
      "type": "function"
    },
    {
      "inputs": [
        {
          "internalType": "uint256",
          "name": "_pid",
          "type": "uint256"
        }
      ],
      "name": "withdrawAll",
      "outputs": [],
      "stateMutability": "nonpayable",
      "type": "function"
    },
    {
      "inputs": [
        {
          "internalType": "uint256",
          "name": "_pid",
          "type": "uint256"
        },
        {
          "internalType": "uint256",
          "name": "_trancheId",
          "type": "uint256"
        },
        {
          "internalType": "bool",
          "name": "_harvestOnly",
          "type": "bool"
        },
        {
          "internalType": "uint256",
          "name": "_maxMarketMovement",
          "type": "uint256"
        }
      ],
      "name": "withdrawalFullService",
      "outputs": [
        {
          "internalType": "uint256",
          "name": "",
          "type": "uint256"
        }
      ],
      "stateMutability": "nonpayable",
      "type": "function"
    },
    {
      "inputs": [],
      "name": "zorroControllerOracle",
      "outputs": [
        {
          "internalType": "address",
          "name": "",
          "type": "address"
        }
      ],
      "stateMutability": "view",
      "type": "function"
    },
    {
      "inputs": [],
      "name": "zorroLPPool",
      "outputs": [
        {
          "internalType": "address",
          "name": "",
          "type": "address"
        }
      ],
      "stateMutability": "view",
      "type": "function"
    },
    {
      "inputs": [],
      "name": "zorroLPPoolOtherToken",
      "outputs": [
        {
          "internalType": "address",
          "name": "",
          "type": "address"
        }
      ],
      "stateMutability": "view",
      "type": "function"
    },
    {
      "inputs": [],
      "name": "zorroStakingVault",
      "outputs": [
        {
          "internalType": "address",
          "name": "",
          "type": "address"
        }
      ],
      "stateMutability": "view",
      "type": "function"
    },
    {
      "inputs": [
        {
          "internalType": "uint256",
          "name": "_zorroChainId",
          "type": "uint256"
        },
        {
          "internalType": "uint256",
          "name": "_pid",
          "type": "uint256"
        },
        {
          "internalType": "uint256",
          "name": "_trancheId",
          "type": "uint256"
        },
        {
          "internalType": "uint256",
          "name": "_maxMarketMovement",
          "type": "uint256"
        },
        {
          "internalType": "uint256",
          "name": "_gasForDestinationLZReceive",
          "type": "uint256"
        }
      ],
      "name": "checkXChainWithdrawalFee",
      "outputs": [
        {
          "internalType": "uint256",
          "name": "",
          "type": "uint256"
        }
      ],
      "stateMutability": "view",
      "type": "function"
    },
    {
      "inputs": [
        {
          "internalType": "uint256",
          "name": "_originChainId",
          "type": "uint256"
        },
        {
          "internalType": "uint256",
          "name": "_pid",
          "type": "uint256"
        },
        {
          "internalType": "uint256",
          "name": "_trancheId",
          "type": "uint256"
        },
        {
          "internalType": "bytes",
          "name": "_originRecipient",
          "type": "bytes"
        },
        {
          "internalType": "uint256",
          "name": "_burnableZORRewards",
          "type": "uint256"
        },
        {
          "internalType": "uint256",
          "name": "_rewardsDue",
          "type": "uint256"
        },
        {
          "internalType": "uint256",
          "name": "_gasForDestinationLZReceive",
          "type": "uint256"
        }
      ],
      "name": "checkXChainRepatriationFee",
      "outputs": [
        {
          "internalType": "uint256",
          "name": "",
          "type": "uint256"
        }
      ],
      "stateMutability": "view",
      "type": "function"
    },
    {
      "inputs": [
        {
          "internalType": "uint256",
          "name": "_destZorroChainId",
          "type": "uint256"
        },
        {
          "internalType": "uint256",
          "name": "_pid",
          "type": "uint256"
        },
        {
          "internalType": "uint256",
          "name": "_trancheId",
          "type": "uint256"
        },
        {
          "internalType": "uint256",
          "name": "_maxMarketMovement",
          "type": "uint256"
        },
        {
          "internalType": "uint256",
          "name": "_gasForDestinationLZReceive",
          "type": "uint256"
        }
      ],
      "name": "sendXChainWithdrawalRequest",
      "outputs": [],
      "stateMutability": "payable",
      "type": "function"
    },
    {
      "inputs": [
        {
          "internalType": "uint256",
          "name": "_originChainId",
          "type": "uint256"
        },
        {
          "internalType": "bytes",
          "name": "_originAccount",
          "type": "bytes"
        },
        {
          "internalType": "uint256",
          "name": "_pid",
          "type": "uint256"
        },
        {
          "internalType": "uint256",
          "name": "_trancheId",
          "type": "uint256"
        },
        {
          "internalType": "uint256",
          "name": "_maxMarketMovement",
          "type": "uint256"
        }
      ],
      "name": "receiveXChainWithdrawalRequest",
      "outputs": [],
      "stateMutability": "nonpayable",
      "type": "function"
    },
    {
      "inputs": [
        {
          "internalType": "uint256",
          "name": "_originChainId",
          "type": "uint256"
        },
        {
          "internalType": "uint256",
          "name": "_pid",
          "type": "uint256"
        },
        {
          "internalType": "uint256",
          "name": "_trancheId",
          "type": "uint256"
        },
        {
          "internalType": "bytes",
          "name": "_originRecipient",
          "type": "bytes"
        },
        {
          "internalType": "uint256",
          "name": "_burnableZORRewards",
          "type": "uint256"
        },
        {
          "internalType": "uint256",
          "name": "_rewardsDue",
          "type": "uint256"
        }
      ],
      "name": "receiveXChainRepatriationRequest",
      "outputs": [],
      "stateMutability": "nonpayable",
      "type": "function"
    }
  ],
  "bytecode": "0x60806040526103ca601b553480156200001757600080fd5b506200003e6200002f64010000000062000048810204565b6401000000006200004c810204565b600180556200009c565b3390565b60008054600160a060020a03838116600160a060020a0319831681178455604051919092169283917f8be0079c531659141344cd1fd0a4f28419497f9722a3daafe3b4186f6b6457e09190a35050565b61479280620000ac6000396000f3fe60806040526004361061043f5760003560e060020a90048063745af0a811610238578063a4d2b08311610132578063c8ba44b5116100ba578063ef1269671161007e578063ef12696714610d82578063f2fde38b14610d98578063f35e4a6e14610db8578063f63cce3714610dd8578063fc39a29e14610df857600080fd5b8063c8ba44b514610cf1578063cb9c2f6814610d0c578063cd17ac1414610d22578063ebfba7c414610d42578063ee4e268714610d6257600080fd5b8063b4b4e9eb11610101578063b4b4e9eb14610c2e578063b61bb80a14610c7b578063bdb2fc8b14610c9b578063c293614214610cbb578063c6d758cb14610cd157600080fd5b8063a4d2b08314610bae578063a80bee0714610bce578063a9e56f3c14610bee578063b22f325114610c0e57600080fd5b80638da5cb5b116101c05780639a448c0c116101845780639a448c0c14610b2c5780639a8a059214610b4c5780639b8ad2d614610b625780639cebd37114610b785780639ec68c7614610b8e57600080fd5b80638da5cb5b14610a6c5780638f426e2c14610a8a578063941d3fd014610aaa5780639568786c14610aec578063958e2d3114610b0c57600080fd5b80637e37c769116102075780637e37c769146109cc5780637f633ea8146109ec578063823c43d014610a0c5780638b5694d614610a2c5780638c157db214610a4c57600080fd5b8063745af0a81461094c57806379777d811461096c5780637bd455221461098c5780637bf604d8146109ac57600080fd5b8063459f475311610349578063593af9fe116102d1578063693a090b11610295578063693a090b146108c15780636b8eb2e5146108e15780636c78d49c1461090157806370d5ae0514610921578063715018a61461093757600080fd5b8063593af9fe146108145780635c63fa87146108415780636179ecd11461086157806361b729dc14610881578063668ababb146108a157600080fd5b80635051d371116103185780635051d3711461078857806351eb05a6146107a857806353f73f87146107c85780635527a6f9146107e85780635790f599146107fe57600080fd5b8063459f4753146106f85780634780f9f51461073c57806348cd4cb11461075c5780634cfea68a1461077257600080fd5b8063219b38b8116103cc5780633a6291211161039b5780633a629121146106795780633ad5875c146106995780633b710688146106ac5780633b9ce565146106c25780633bbc1ffc146106d857600080fd5b8063219b38b8146105b45780632e31283d146105e15780633332fcf41461063957806333cfcd3b1461065957600080fd5b80630aa0988e116104135780630aa0988e146104e2578063104a61321461050257806313a2e880146105225780631526fe271461054257806317caf6f11461059e57600080fd5b8062aeef8a14610444578063068f158d1461046657806307968db114610486578063081e3eda146104c3575b600080fd5b34801561045057600080fd5b5061046461045f366004613b4a565b610e18565b005b34801561047257600080fd5b50610464610481366004613b8b565b610ed5565b34801561049257600080fd5b506023546104a690600160a060020a031681565b604051600160a060020a0390911681526020015b60405180910390f35b3480156104cf57600080fd5b506012545b6040519081526020016104ba565b3480156104ee57600080fd5b506104646104fd366004613b8b565b610f30565b34801561050e57600080fd5b506104a661051d366004613bc4565b610f8b565b34801561052e57600080fd5b5061046461053d366004613bdd565b610fb5565b34801561054e57600080fd5b5061056261055d366004613bc4565b611001565b60408051600160a060020a03978816815260208101969096528501939093526060840191909152608083015290911660a082015260c0016104ba565b3480156105aa57600080fd5b506104d4600e5481565b3480156105c057600080fd5b506104d46105cf366004613bc4565b60226020526000908152604090205481565b3480156105ed57600080fd5b506104a66105fc366004613d13565b60146020908152600093845260408085208451808601840180519281529084019584019590952094529290528252902054600160a060020a031681565b34801561064557600080fd5b50610464610654366004613d63565b611054565b34801561066557600080fd5b506104d4610674366004613e22565b611098565b34801561068557600080fd5b506104d4610694366004613e5b565b611132565b6104646106a7366004613e5b565b611238565b3480156106b857600080fd5b506104d4600d5481565b3480156106ce57600080fd5b506104d4600b5481565b3480156106e457600080fd5b506104646106f3366004613bc4565b611399565b34801561070457600080fd5b50610729610713366004613bc4565b601f6020526000908152604090205461ffff1681565b60405161ffff90911681526020016104ba565b34801561074857600080fd5b50610464610757366004613e96565b611428565b34801561076857600080fd5b506104d460065481565b34801561077e57600080fd5b506104d460075481565b34801561079457600080fd5b506104646107a3366004613ec8565b6114d1565b3480156107b457600080fd5b506104d46107c3366004613bc4565b611520565b3480156107d457600080fd5b506104d46107e3366004613ee5565b61169f565b3480156107f457600080fd5b506104d4600a5481565b34801561080a57600080fd5b506104d460215481565b34801561082057600080fd5b5061083461082f366004613bc4565b6116c7565b6040516104ba9190613f62565b34801561084d57600080fd5b5061046461085c366004613f75565b611761565b34801561086d57600080fd5b5061046461087c366004613bc4565b6117b8565b34801561088d57600080fd5b5061046461089c366004613fa3565b6117ea565b3480156108ad57600080fd5b506004546104a690600160a060020a031681565b3480156108cd57600080fd5b506018546104a690600160a060020a031681565b3480156108ed57600080fd5b506104646108fc366004613e5b565b611835565b34801561090d57600080fd5b5061046461091c366004614005565b611934565b34801561092d57600080fd5b506104a661dead81565b34801561094357600080fd5b506104646119a1565b34801561095857600080fd5b506104d4610967366004614022565b6119da565b34801561097857600080fd5b50601d546104a690600160a060020a031681565b34801561099857600080fd5b506104646109a7366004614061565b611a54565b3480156109b857600080fd5b506016546104a690600160a060020a031681565b3480156109d857600080fd5b506104646109e7366004613e96565b611ab5565b3480156109f857600080fd5b50610464610a07366004614098565b611c36565b348015610a1857600080fd5b506015546104a690600160a060020a031681565b348015610a3857600080fd5b50610464610a47366004614098565b611c87565b348015610a5857600080fd5b506002546104a690600160a060020a031681565b348015610a7857600080fd5b50600054600160a060020a03166104a6565b348015610a9657600080fd5b506104d4610aa53660046140c4565b611ccd565b348015610ab657600080fd5b50601554610adc9074010000000000000000000000000000000000000000900460ff1681565b60405190151581526020016104ba565b348015610af857600080fd5b506104d4610b07366004613bc4565b611e57565b348015610b1857600080fd5b50610464610b27366004613bc4565b611f43565b348015610b3857600080fd5b506104a6610b47366004613bc4565b611fad565b348015610b5857600080fd5b506104d4600f5481565b348015610b6e57600080fd5b506104d4601b5481565b348015610b8457600080fd5b506104d4600c5481565b348015610b9a57600080fd5b50610464610ba9366004613b8b565b611fbd565b348015610bba57600080fd5b506005546104a690600160a060020a031681565b348015610bda57600080fd5b506104d4610be9366004614139565b612018565b348015610bfa57600080fd5b506020546104a690600160a060020a031681565b348015610c1a57600080fd5b50601c546104a690600160a060020a031681565b348015610c3a57600080fd5b50610c4e610c4936600461415b565b612034565b604080519687526020870195909552938501929092526060840152608083015260a082015260c0016104ba565b348015610c8757600080fd5b506003546104a690600160a060020a031681565b348015610ca757600080fd5b50610464610cb6366004613d63565b612095565b348015610cc757600080fd5b506104d460085481565b348015610cdd57600080fd5b50610464610cec366004614193565b6120d5565b348015610cfd57600080fd5b5061046461089c3660046141bf565b348015610d1857600080fd5b506104d460095481565b348015610d2e57600080fd5b50610464610d3d36600461426f565b61219d565b348015610d4e57600080fd5b506017546104a690600160a060020a031681565b348015610d6e57600080fd5b50610464610d7d366004613ec8565b612250565b348015610d8e57600080fd5b506104d460105481565b348015610da457600080fd5b50610464610db3366004613ec8565b61229f565b348015610dc457600080fd5b50610464610dd3366004613bc4565b612357565b348015610de457600080fd5b50610464610df3366004613b8b565b6123dc565b348015610e0457600080fd5b506011546104a690600160a060020a031681565b60026001541415610e475760405160e560020a62461bcd028152600401610e3e906142ed565b60405180910390fd5b6002600181905550600060128481548110610e6457610e64614324565b600091825260209091206006909102018054909150610e8d90600160a060020a03163085612494565b60058101548154610ead91600160a060020a0391821691339116866125d5565b610eca843360405180602001604052806000815250868642612626565b505060018055505050565b600054600160a060020a03163314610f025760405160e560020a62461bcd028152600401610e3e9061433d565b601c8054600160a060020a03938416600160a060020a031991821617909155601d8054929093169116179055565b600054600160a060020a03163314610f5d5760405160e560020a62461bcd028152600401610e3e9061433d565b60028054600160a060020a03938416600160a060020a03199182161790915560038054929093169116179055565b60198181548110610f9b57600080fd5b600091825260209091200154600160a060020a0316905081565b600054600160a060020a03163314610fe25760405160e560020a62461bcd028152600401610e3e9061433d565b6000838152601e60205260409020610ffb908383613a5c565b50505050565b6012818154811061101157600080fd5b6000918252602090912060069091020180546001820154600283015460038401546004850154600590950154600160a060020a0394851696509294919390921686565b600054600160a060020a031633146110815760405160e560020a62461bcd028152600401610e3e9061433d565b8051611094906019906020840190613ae0565b5050565b6000600260015414156110c05760405160e560020a62461bcd028152600401610e3e906142ed565b600260018190555060006110e6853360405180602001604052806000815250878761293a565b90506111253382600001516012888154811061110457611104614324565b6000918252602090912060069091020154600160a060020a03169190612e0a565b5160018055949350505050565b6000858152601f6020908152604080832054600f5491516c0100000000000000000000000033029381019390935261ffff1691839161118591603401604051602081830303815290604052898989612e58565b9050600061119285612ed9565b6023546040517f40a7bb10000000000000000000000000000000000000000000000000000000008152919250600091600160a060020a03909116906340a7bb10906111e99087903090889087908990600401614372565b6040805180830381865afa158015611205573d6000803e3d6000fd5b505050506040513d601f19601f8201168201806040525081019061122991906143b8565b509a9950505050505050505050565b6002600154141561125e5760405160e560020a62461bcd028152600401610e3e906142ed565b6002600155600f546040516c010000000000000000000000003302602082015260009161129f91603401604051602081830303815290604052878787612e58565b6000878152601e60205260408120805492935090916112bd906143dc565b80601f01602080910402602001604051908101604052809291908181526020018280546112e9906143dc565b80156113365780601f1061130b57610100808354040283529160200191611336565b820191906000526020600020905b81548152906001019060200180831161131957829003601f168201915b5050505050905061138c6040518060c0016040528089815260200183815260200184815260200133600160a060020a031681526020016000600160a060020a0316815260200161138586612ed9565b9052612f1d565b5050600180555050505050565b600054600160a060020a031633146113c65760405160e560020a62461bcd028152600401610e3e9061433d565b601154600160a060020a031630146114235760405160e560020a62461bcd02815260206004820152600f60248201527f6f6e6c7920686f6d6520636861696e00000000000000000000000000000000006044820152606401610e3e565b600955565b6002600154141561144e5760405160e560020a62461bcd028152600401610e3e906142ed565b600260018190555060006012858154811061146b5761146b614324565b6000918252602090912060056006909202010154600354600160a060020a03918216925061149b91163086612494565b6003546114b390600160a060020a03163383876125d5565b610eca85336040518060200160405280600081525087874288612fd2565b600054600160a060020a031633146114fe5760405160e560020a62461bcd028152600401610e3e9061433d565b60158054600160a060020a031916600160a060020a0392909216919091179055565b6000806012838154811061153657611536614324565b906000526020600020906006020190508060020154431161155a5750600092915050565b60006115738260020154436130e390919063ffffffff16565b905060008111611587575060009392505050565b60006115b8600e546115b285600101546115ac600854876130ef90919063ffffffff16565b906130ef565b906130fb565b601154909150600160a060020a0316301415611611576004546002546115ec91600160a060020a03918216911630846125d5565b60038301546115fb9082613107565b6003840155505043600290910155506000919050565b6002546040517f40c10f1900000000000000000000000000000000000000000000000000000000815230600482015260248101839052600160a060020a03909116906340c10f1990604401600060405180830381600087803b15801561167657600080fd5b505af115801561168a573d6000803e3d6000fd5b5092979650505050505050565b505050919050565b6000918252601360209081526040808420600160a060020a0393909316845291905290205490565b601e60205260009081526040902080546116e0906143dc565b80601f016020809104026020016040519081016040528092919081815260200182805461170c906143dc565b80156117595780601f1061172e57610100808354040283529160200191611759565b820191906000526020600020905b81548152906001019060200180831161173c57829003601f168201915b505050505081565b600054600160a060020a0316331461178e5760405160e560020a62461bcd028152600401610e3e9061433d565b600f9290925560105560118054600160a060020a031916600160a060020a03909216919091179055565b600054600160a060020a031633146117e55760405160e560020a62461bcd028152600401610e3e9061433d565b601b55565b60405160e560020a62461bcd02815260206004820152601760248201527f696c6c6567616c2064756d6d792066756e632063616c6c0000000000000000006044820152606401610e3e565b601554600160a060020a031633600160a060020a03161461189b5760405160e560020a62461bcd02815260206004820152601160248201527f6f6e6c79205a6f72726f206f7261636c650000000000000000000000000000006044820152606401610e3e565b60006118bd836115b26118b0876127106130fb565b600d546115ac908a6130ef565b9050600b548111156118d25750600b546118e1565b600a548110156118e15750600a545b60006118f36127106115b285856130ef565b90506000611910886115b284600c546130ef90919063ffffffff16565b9050611927600754826130fb90919063ffffffff16565b6008555050505050505050565b600054600160a060020a031633146119615760405160e560020a62461bcd028152600401610e3e9061433d565b60158054911515740100000000000000000000000000000000000000000274ff000000000000000000000000000000000000000019909216919091179055565b600054600160a060020a031633146119ce5760405160e560020a62461bcd028152600401610e3e9061433d565b6119d86000613113565b565b600060026001541415611a025760405160e560020a62461bcd028152600401610e3e906142ed565b60026001819055506000611a29336040518060200160405280600081525088888888613163565b5050600354919250611a4791600160a060020a031690503383612e0a565b6001805595945050505050565b600054600160a060020a03163314611a815760405160e560020a62461bcd028152600401610e3e9061433d565b60208054600160a060020a03948516600160a060020a03199182161790915560219290925560238054919093169116179055565b60026001541415611adb5760405160e560020a62461bcd028152600401610e3e906142ed565b600260015560008481526013602090815260408083203384529091528120805485908110611b0b57611b0b614324565b600091825260208083206003600690930201919091015487835260138252604080842033855290925290822080549193509086908110611b4d57611b4d614324565b90600052602060002090600602016004015490506000611b8133604051806020016040528060008152508989600089613163565b50505090506060600360009054906101000a9004600160a060020a031681600081518110611bb157611bb1614324565b6020026020010190600160a060020a03169081600160a060020a031681525050611bef8633604051806020016040528060008152508588888b612fd2565b604051338152869088908a907f67e7aba7263d8fbeb0cd9a2f4008f060a6a03f46c1d7f9d0550f0b93e96e96f89060200160405180910390a4505060018055505050505050565b600054600160a060020a03163314611c635760405160e560020a62461bcd028152600401610e3e9061433d565b6000918252601f6020526040909120805461ffff191661ffff909216919091179055565b600054600160a060020a03163314611cb45760405160e560020a62461bcd028152600401610e3e9061433d565b60009182526022602052604090912061ffff9091169055565b6040805160608082018352600080835260208301819052928201526000611cf88a8a8a8a8a8a61327d565b60008b8152601e6020526040812080549293509091611d16906143dc565b80601f0160208091040260200160405190810160405280929190818152602001828054611d42906143dc565b8015611d8f5780601f10611d6457610100808354040283529160200191611d8f565b820191906000526020600020905b815481529060010190602001808311611d7257829003601f168201915b505050505090506000602060009054906101000a9004600160a060020a0316600160a060020a0316630a512369601f60008f815260200190815260200160002060009054906101000a900461ffff1660018587896040518663ffffffff1660e060020a028152600401611e06959493929190614443565b6040805180830381865afa158015611e22573d6000803e3d6000fd5b505050506040513d601f19601f82011682018060405250810190611e4691906143b8565b509c9b505050505050505050505050565b60155460009074010000000000000000000000000000000000000000900460ff1615611f37576040517f677342ce00000000000000000000000000000000000000000000000000000000815260048101839052611f319064e8d4a51000906115ac90611f299073__CustomMath____________________________9063677342ce90602401602060405180830381865af4158015611ef9573d6000803e3d6000fd5b505050506040513d601f19601f82011682018060405250810190611f1d919061448f565b6115ac6002600a6130fb565b600190613107565b92915050565b5064e8d4a51000919050565b60026001541415611f695760405160e560020a62461bcd028152600401610e3e906142ed565b60026001556000611f7a823361169f565b905060005b81811015611fa457611f9383826000611098565b50611f9d816144c1565b9050611f7f565b50506001805550565b601a8181548110610f9b57600080fd5b600054600160a060020a03163314611fea5760405160e560020a62461bcd028152600401610e3e9061433d565b60168054600160a060020a03938416600160a060020a03199182161790915560178054929093169116179055565b600061202d64e8d4a510006115b285856130ef565b9392505050565b6013602052826000526040600020602052816000526040600020818154811061205c57600080fd5b60009182526020909120600690910201805460018201546002830154600384015460048501546005909501549397509195509350919086565b600054600160a060020a031633146120c25760405160e560020a62461bcd028152600401610e3e9061433d565b805161109490601a906020840190613ae0565b600054600160a060020a031633146121025760405160e560020a62461bcd028152600401610e3e9061433d565b600254600160a060020a03838116911614156121895760405160e560020a62461bcd02815260206004820152603560248201527f217361666520746f20757365205a6f72726f20746f6b656e20696e2066756e6360448201527f20696e43617365546f6b656e73476574537475636b00000000000000000000006064820152608401610e3e565b611094600160a060020a0383163383612e0a565b600054600160a060020a031633146121ca5760405160e560020a62461bcd028152600401610e3e9061433d565b858560018181106121dd576121dd614324565b602002919091013560075550858560028181106121fc576121fc614324565b602002919091013560085550838360008161221957612219614324565b6020029190910135600a55508383600181811061223857612238614324565b6020029190910135600b5550600d55600c5550505050565b600054600160a060020a0316331461227d5760405160e560020a62461bcd028152600401610e3e9061433d565b60188054600160a060020a031916600160a060020a0392909216919091179055565b600054600160a060020a031633146122cc5760405160e560020a62461bcd028152600401610e3e9061433d565b600160a060020a03811661234b5760405160e560020a62461bcd02815260206004820152602660248201527f4f776e61626c653a206e6577206f776e657220697320746865207a65726f206160448201527f64647265737300000000000000000000000000000000000000000000000000006064820152608401610e3e565b61235481613113565b50565b600054600160a060020a031633146123845760405160e560020a62461bcd028152600401610e3e9061433d565b600654156123d75760405160e560020a62461bcd02815260206004820152601560248201527f626c6f636b506172616d7320696d6d757461626c6500000000000000000000006044820152606401610e3e565b600655565b600054600160a060020a031633146124095760405160e560020a62461bcd028152600401610e3e9061433d565b601154600160a060020a031630146124665760405160e560020a62461bcd02815260206004820152600f60248201527f6f6e6c7920686f6d6520636861696e00000000000000000000000000000000006044820152606401610e3e565b60048054600160a060020a03938416600160a060020a03199182161790915560058054929093169116179055565b6040517fdd62ed3e000000000000000000000000000000000000000000000000000000008152306004820152600160a060020a038381166024830152600091839186169063dd62ed3e90604401602060405180830381865afa1580156124fe573d6000803e3d6000fd5b505050506040513d601f19601f82011682018060405250810190612522919061448f565b61252c91906144dc565b604051600160a060020a038516602482015260448101829052909150610ffb9085907f095ea7b300000000000000000000000000000000000000000000000000000000906064015b60408051601f198184030181529190526020810180517bffffffffffffffffffffffffffffffffffffffffffffffffffffffff167bffffffffffffffffffffffffffffffffffffffffffffffffffffffff199093169290921790915261330d565b604051600160a060020a0380851660248301528316604482015260648101829052610ffb9085907f23b872dd0000000000000000000000000000000000000000000000000000000090608401612574565b6000806012888154811061263c5761263c614324565b906000526020600020906006020190506000851161269f5760405160e560020a62461bcd02815260206004820152601560248201527f5f77616e74416d74206d757374206265203e20302100000000000000000000006044820152606401610e3e565b6126a888611520565b915086600160a060020a03811661274f5760008751116127335760405160e560020a62461bcd02815260206004820152602c60248201527f4e65697468657220666f726569676e2061636374206e6f72206c6f63616c206160448201527f6363742070726f766964656400000000000000000000000000000000000000006064820152608401610e3e565b61273c876144f4565b6c01000000000000000000000000900490505b600060128a8154811061276457612764614324565b60009182526020909120600690910201600501546040517fba0bb4ab000000000000000000000000000000000000000000000000000000008152600160a060020a038481166004830152602482018a90529091169063ba0bb4ab906044016020604051808303816000875af11580156127e1573d6000803e3d6000fd5b505050506040513d601f19601f82011682018060405250810190612805919061448f565b600580549085015491925064e8d4a5100091600160a060020a039081169116146128355761283287611e57565b90505b60006128418383612018565b60048601549091506128539082613107565b60048601819055600090612870906115b28464e8d4a510006130ef565b905060006040518060c001604052808481526020018581526020016128ab64e8d4a510006115b2868c600301546130ef90919063ffffffff16565b81526020018b81526020018a8152602001600081525090506128cf8e878e846133f5565b8d8c6040516128de919061452e565b604051809103902087600160a060020a03167fc6b1f1535b3bb3bdffa2f97a671ab7bd6f2512deec58103fa47eb40ed95274278e60405161292191815260200190565b60405180910390a4505050505050509695505050505050565b6129656040518060800160405280600081526020016000815260200160008152602001600081525090565b600160a060020a03851615801561297d575060008451115b8061299a5750600160a060020a0385161580159061299a57508351155b6129e95760405160e560020a62461bcd02815260206004820152601d60248201527f4f6e6c79206f6e65206163636f756e74207479706520616c6c6f7765640000006044820152606401610e3e565b60006129f7878587896134e4565b9050600060128881548110612a0e57612a0e614324565b906000526020600020906006020190506000826000015111612a755760405160e560020a62461bcd02815260206004820152601960248201527f7472616e6368652e636f6e747269627574696f6e2069732030000000000000006044820152606401610e3e565b6000816004015411612acc5760405160e560020a62461bcd02815260206004820152601e60248201527f746f74616c5472616e636865436f6e747269627574696f6e73206973203000006044820152606401610e3e565b60a082015115612b215760405160e560020a62461bcd02815260206004820152601460248201527f416c726561647920657869746564207661756c740000000000000000000000006044820152606401610e3e565b612b2a88611520565b602084015260048101548251600091612b4c916115b29064e8d4a510006130ef565b90506000612b7e8460400151612b7864e8d4a510006115b28760030154876130ef90919063ffffffff16565b906130e3565b90508015612bfb57600080612b938684613686565b91509150601054600f541415612bd4578115612bb357612bb38b83613712565b8015612bcf57600554612bcf90600160a060020a031682613712565b612bf8565b612be961dead612be48484613107565b613712565b60408701829052606087018190525b50505b85612dfd5760128a81548110612c1357612c13614324565b600091825260209091206006909102016005015484516040517fe0ccabfa000000000000000000000000000000000000000000000000000000008152600160a060020a038c81166004830152602482019290925291169063e0ccabfa906044016020604051808303816000875af1158015612c92573d6000803e3d6000fd5b505050506040513d601f19601f82011682018060405250810190612cb6919061448f565b5083516004840154612cc7916130e3565b60048481019190915583546040517f70a082310000000000000000000000000000000000000000000000000000000081523092810192909252600160a060020a0316906370a0823190602401602060405180830381865afa158015612d30573d6000803e3d6000fd5b505050506040513d601f19601f82011682018060405250810190612d54919061448f565b855260008a8152601360209081526040808320600160a060020a038d1684529091529020805442919089908110612d8d57612d8d614324565b9060005260206000209060060201600501819055508988604051612db1919061452e565b6040805191829003822088518b8452602084015291600160a060020a038d16917fa7749cd42821d3b82a6814af6d80712b2e43f98ec1b25aee31c8351855de65d9910160405180910390a45b5050505095945050505050565b604051600160a060020a038316602482015260448101829052612e539084907fa9059cbb0000000000000000000000000000000000000000000000000000000090606401612574565b505050565b6040516060907f61b729dc0000000000000000000000000000000000000000000000000000000090600090612e99908990899089908990899060200161454a565b60405160208183030381529060405290508181604051602001612ebd929190614580565b6040516020818303038152906040529250505095945050505050565b604080517e01000000000000000000000000000000000000000000000000000000000000602082015260228082019390935281518082039093018352604201905290565b80516000908152601f6020908152604091829020546023549184015183850151606086015160a087015195517fc580310000000000000000000000000000000000000000000000000000000000815261ffff90941695600160a060020a039095169463c5803100943494612f9c948994919390928291906004016145c5565b6000604051808303818588803b158015612fb557600080fd5b505af1158015612fc9573d6000803e3d6000fd5b50505050505050565b600060128881548110612fe757612fe7614324565b60009182526020822060069190910201600501546040517fe502a88d0000000000000000000000000000000000000000000000000000000081526004810188905260248101859052600160a060020a039091169250829190829063e502a88d906044016020604051808303816000875af1158015613069573d6000803e3d6000fd5b505050506040513d601f19601f8201168201806040525081019061308d919061448f565b90506130c8838260128d815481106130a7576130a7614324565b6000918252602090912060069091020154600160a060020a03169190612494565b6130d68a8a8a848a8a612626565b5050505050505050505050565b600061202d828461462c565b600061202d8284614643565b600061202d8284614662565b600061202d82846144dc565b60008054600160a060020a03838116600160a060020a0319831681178455604051919092169283917f8be0079c531659141344cd1fd0a4f28419497f9722a3daafe3b4186f6b6457e09190a35050565b60008060008060006012898154811061317e5761317e614324565b60009182526020822060056006909202010154600160a060020a0316915081906131ab8b8e8e8d8d61293a565b90506131c983826000015160128e815481106130a7576130a7614324565b80516040517f648794a4000000000000000000000000000000000000000000000000000000008152600481019190915260248101899052600160a060020a0383169063648794a4906044016020604051808303816000875af1158015613233573d6000803e3d6000fd5b505050506040513d601f19601f82011682018060405250810190613257919061448f565b60208201516040830151606090930151919f909e50919c509a5098505050505050505050565b6040516060907fc8ba44b500000000000000000000000000000000000000000000000000000000906000906132c0908a908a908a908a908a908a90602001614687565b604051602081830303815290604052905081816040516020016132e4929190614580565b604051602081830303815290604052925050509695505050505050565b50505050505050505050565b6000613362826040518060400160405280602081526020017f5361666545524332303a206c6f772d6c6576656c2063616c6c206661696c656481525085600160a060020a031661380f9092919063ffffffff16565b805190915015612e53578080602001905181019061338091906146c1565b612e535760405160e560020a62461bcd02815260206004820152602a60248201527f5361666545524332303a204552433230206f7065726174696f6e20646964206e60448201527f6f742073756363656564000000000000000000000000000000000000000000006064820152608401610e3e565b6000848152601360209081526040808320600160a060020a0387168452825280832080546001818101835591855293839020855160069095020193845591840151918301919091558201516002820155606082015160038201556080820151600482015560a0820151600590910155815115610ffb5782601460008681526020019081526020016000208360405161348d919061452e565b908152602001604051809103902060006134ac6001612b78898961169f565b815260200190815260200160002060006101000a815481600160a060020a030219169083600160a060020a0316021790555050505050565b61351d6040518060c001604052806000815260200160008152602001600081526020016000815260200160008152602001600081525090565b600160a060020a0382166135bb576000858152601360209081526040808320600160a060020a0386168452909152902080548590811061355f5761355f614324565b90600052602060002090600602016040518060c00160405290816000820154815260200160018201548152602001600282015481526020016003820154815260200160048201548152602001600582015481525050905061367e565b60008581526014602052604080822090516135d790869061452e565b908152604080516020928190038301902060008881529083528181205489825260138452828220600160a060020a039091168083529352208054919250908690811061362557613625614324565b90600052602060002090600602016040518060c001604052908160008201548152602001600182015481526020016002820154815260200160038201548152602001600482015481526020016005820154815250509150505b949350505050565b6000806000831161369c5750600090508061370b565b60006136ca42612b786136bf62093a8089606001516130ef90919063ffffffff16565b608089015190613107565b905080156137055760608501516136f2906136e89062093a806130ef565b6115b286846130ef565b91506136fe84836130e3565b9250613709565b8392505b505b9250929050565b6002546040517f70a082310000000000000000000000000000000000000000000000000000000081523060048201528291600091600160a060020a03909116906370a0823190602401602060405180830381865afa158015613778573d6000803e3d6000fd5b505050506040513d601f19601f8201168201806040525081019061379c919061448f565b9050808311156137aa578091505b600254610ffb90600160a060020a03168584612e0a565b8154815290600101906020018083116137c15750506040805160a0810182528f8152602081018c9052908101859052606081018790526080810188905293945061330193925061381e915050565b606061367e84846000856138d1565b61384260405180606001604052806000815260200160008152602001606081525090565b6020805483516000908152601f835260408082205460215487518452602286529190922054938601516080870151600160a060020a0390941694639fbf10fc94349461ffff169392339161389f906103e8906115b29084906130ef565b898b604001518c606001516040518b63ffffffff1660e060020a028152600401612f9c999897969594939291906146de565b6060303183111561394d5760405160e560020a62461bcd02815260206004820152602660248201527f416464726573733a20696e73756666696369656e742062616c616e636520666f60448201527f722063616c6c00000000000000000000000000000000000000000000000000006064820152608401610e3e565b600160a060020a0385163b6139a75760405160e560020a62461bcd02815260206004820152601d60248201527f416464726573733a2063616c6c20746f206e6f6e2d636f6e74726163740000006044820152606401610e3e565b60008086600160a060020a031685876040516139c3919061452e565b60006040518083038185875af1925050503d8060008114613a00576040519150601f19603f3d011682016040523d82523d6000602084013e613a05565b606091505b5091509150613a15828286613a20565b979650505050505050565b60608315613a2f57508161202d565b825115613a3f5782518084602001fd5b8160405160e560020a62461bcd028152600401610e3e9190613f62565b828054613a68906143dc565b90600052602060002090601f016020900481019282613a8a5760008555613ad0565b82601f10613aa35782800160ff19823516178555613ad0565b82800160010185558215613ad0579182015b82811115613ad0578235825591602001919060010190613ab5565b50613adc929150613b35565b5090565b828054828255906000526020600020908101928215613ad0579160200282015b82811115613ad05782518254600160a060020a031916600160a060020a03909116178255602090920191600190910190613b00565b5b80821115613adc5760008155600101613b36565b600080600060608486031215613b5f57600080fd5b505081359360208301359350604090920135919050565b600160a060020a038116811461235457600080fd5b60008060408385031215613b9e57600080fd5b8235613ba981613b76565b91506020830135613bb981613b76565b809150509250929050565b600060208284031215613bd657600080fd5b5035919050565b600080600060408486031215613bf257600080fd5b83359250602084013567ffffffffffffffff80821115613c1157600080fd5b818601915086601f830112613c2557600080fd5b813581811115613c3457600080fd5b876020828501011115613c4657600080fd5b6020830194508093505050509250925092565b60e060020a634e487b7102600052604160045260246000fd5b604051601f8201601f1916810167ffffffffffffffff81118282101715613c9b57613c9b613c59565b604052919050565b600082601f830112613cb457600080fd5b813567ffffffffffffffff811115613cce57613cce613c59565b613ce1601f8201601f1916602001613c72565b818152846020838601011115613cf657600080fd5b816020850160208301376000918101602001919091529392505050565b600080600060608486031215613d2857600080fd5b83359250602084013567ffffffffffffffff811115613d4657600080fd5b613d5286828701613ca3565b925050604084013590509250925092565b60006020808385031215613d7657600080fd5b823567ffffffffffffffff80821115613d8e57600080fd5b818501915085601f830112613da257600080fd5b813581811115613db457613db4613c59565b8381029150613dc4848301613c72565b8181529183018401918481019088841115613dde57600080fd5b938501935b83851015613e085784359250613df883613b76565b8282529385019390850190613de3565b98975050505050505050565b801515811461235457600080fd5b600080600060608486031215613e3757600080fd5b83359250602084013591506040840135613e5081613e14565b809150509250925092565b600080600080600060a08688031215613e7357600080fd5b505083359560208501359550604085013594606081013594506080013592509050565b60008060008060808587031215613eac57600080fd5b5050823594602084013594506040840135936060013592509050565b600060208284031215613eda57600080fd5b813561202d81613b76565b60008060408385031215613ef857600080fd5b823591506020830135613bb981613b76565b60005b83811015613f25578181015183820152602001613f0d565b83811115610ffb5750506000910152565b60008151808452613f4e816020860160208601613f0a565b601f01601f19169290920160200192915050565b60208152600061202d6020830184613f36565b600080600060608486031215613f8a57600080fd5b83359250602084013591506040840135613e5081613b76565b600080600080600060a08688031215613fbb57600080fd5b85359450602086013567ffffffffffffffff811115613fd957600080fd5b613fe588828901613ca3565b959895975050505060408401359360608101359360809091013592509050565b60006020828403121561401757600080fd5b813561202d81613e14565b6000806000806080858703121561403857600080fd5b8435935060208501359250604085013561405181613e14565b9396929550929360600135925050565b60008060006060848603121561407657600080fd5b833561408181613b76565b9250602084013591506040840135613e5081613b76565b600080604083850312156140ab57600080fd5b82359150602083013561ffff81168114613bb957600080fd5b600080600080600080600060e0888a0312156140df57600080fd5b873596506020880135955060408801359450606088013567ffffffffffffffff81111561410b57600080fd5b6141178a828b01613ca3565b979a969950949760808101359660a0820135965060c090910135945092505050565b6000806040838503121561414c57600080fd5b50508035926020909101359150565b60008060006060848603121561417057600080fd5b83359250602084013561418281613b76565b929592945050506040919091013590565b600080604083850312156141a657600080fd5b82356141b181613b76565b946020939093013593505050565b60008060008060008060c087890312156141d857600080fd5b863595506020870135945060408701359350606087013567ffffffffffffffff81111561420457600080fd5b61421089828a01613ca3565b9350506080870135915060a087013590509295509295509295565b60008083601f84011261423d57600080fd5b50813567ffffffffffffffff81111561425557600080fd5b602083019150836020808302850101111561370b57600080fd5b6000806000806000806080878903121561428857600080fd5b863567ffffffffffffffff808211156142a057600080fd5b6142ac8a838b0161422b565b909850965060208901359150808211156142c557600080fd5b506142d289828a0161422b565b979a9699509760408101359660609091013595509350505050565b6020808252601f908201527f5265656e7472616e637947756172643a207265656e7472616e742063616c6c00604082015260600190565b60e060020a634e487b7102600052603260045260246000fd5b6020808252818101527f4f776e61626c653a2063616c6c6572206973206e6f7420746865206f776e6572604082015260600190565b61ffff86168152600160a060020a038516602082015260a06040820152600061439e60a0830186613f36565b84151560608401528281036080840152613e088185613f36565b600080604083850312156143cb57600080fd5b505080516020909101519092909150565b6002810460018216806143f057607f821691505b602082108114156144145760e060020a634e487b7102600052602260045260246000fd5b50919050565b8051825260208101516020830152600060408201516060604085015261367e6060850182613f36565b61ffff8616815260ff8516602082015260a06040820152600061446960a0830186613f36565b828103606084015261447b8186613f36565b90508281036080840152613e08818561441a565b6000602082840312156144a157600080fd5b5051919050565b60e060020a634e487b7102600052601160045260246000fd5b60006000198214156144d5576144d56144a8565b5060010190565b600082198211156144ef576144ef6144a8565b500190565b805160208201516bffffffffffffffffffffffff1980821692919060148310156116975760149290920360080260020a8202161692915050565b60008251614540818460208701613f0a565b9190910192915050565b85815260a06020820152600061456360a0830187613f36565b604083019590955250606081019290925260809091015292915050565b7bffffffffffffffffffffffffffffffffffffffffffffffffffffffff1983168152600082516145b7816004850160208701613f0a565b919091016004019392505050565b61ffff8716815260c0602082015260006145e260c0830188613f36565b82810360408401526145f48188613f36565b600160a060020a0387811660608601528616608085015283810360a0850152905061461f8185613f36565b9998505050505050505050565b60008282101561463e5761463e6144a8565b500390565b600081600019048311821515161561465d5761465d6144a8565b500290565b6000826146825760e060020a634e487b7102600052601260045260246000fd5b500490565b86815285602082015284604082015260c0606082015260006146ac60c0830186613f36565b60808301949094525060a00152949350505050565b6000602082840312156146d357600080fd5b815161202d81613e14565b600061012061ffff8c1683528a6020840152896040840152600160a060020a03891660608401528760808401528660a08401528060c08401526147238184018761441a565b905082810360e08401526147378186613f36565b905082810361010084015261474c8185613f36565b9c9b50505050505050505050505056fea26469706673582212209abc0b9f1e80b693930a0bdc1169de1caa2ef14dfd7f664b1efd7ef0b51794a964736f6c634300080a0033",
  "immutableReferences": {},
  "source": "// SPDX-License-Identifier: MIT\n\npragma solidity ^0.8.0;\n\nimport \"./_ZorroControllerXChain.sol\";\n\ncontract ZorroControllerXChainWithdraw is ZorroControllerXChain {\n    /* Libraries */\n    using SafeMath for uint256;\n\n    /* Events */\n    event XChainRepatriation(\n        uint256 indexed _pid,\n        address indexed _originRecipient,\n        uint256 indexed _burnableZORRewards,\n        uint256 _trancheId,\n        uint256 _originChainId\n    );\n\n    /* Fees */\n\n    /* Fees::withdrawals */\n\n    /// @notice Checks to see how much a cross chain withdrawal will cost\n    /// @param _zorroChainId The Zorro Chain ID (not the LayerZero one)\n    /// @param _pid The pool ID on the remote chain\n    /// @param _trancheId The tranche ID on the remote chain\n    /// @param _maxMarketMovement Acceptable degree of slippage on any transaction (e.g. 950 = 5%, 990 = 1% etc.)\n    /// @param _gasForDestinationLZReceive How much additional gas to provide at destination contract\n    /// @return uint256 Expected fee to pay for bridging/cross chain execution\n    function checkXChainWithdrawalFee(\n        uint256 _zorroChainId,\n        uint256 _pid,\n        uint256 _trancheId,\n        uint256 _maxMarketMovement,\n        uint256 _gasForDestinationLZReceive\n    ) external view returns (uint256) {\n        // Get destination\n        uint16 _dstChainId = ZorroChainToLZMap[_zorroChainId];\n\n        // Prepare encoding\n        bytes memory _payload = _encodeXChainWithdrawalPayload(\n            chainId,\n            abi.encodePacked(msg.sender),\n            _pid,\n            _trancheId,\n            _maxMarketMovement\n        );\n\n        // Encode adapter params to provide more gas for destination\n        bytes memory _adapterParams = _getLZAdapterParamsForWithdraw(_gasForDestinationLZReceive);\n\n        // Query LayerZero for quote\n        (uint256 _nativeFee, ) = ILayerZeroEndpoint(layerZeroEndpoint)\n            .estimateFees(\n                _dstChainId,\n                address(this),\n                _payload,\n                false,\n                _adapterParams\n            );\n        return _nativeFee;\n    }\n\n    /// @notice Encodes adapter params to provide more gas for destination\n    /// @param _gasForDestinationLZReceive How much additional gas to provide at destination contract\n    /// @return bytes Adapter payload\n    function _getLZAdapterParamsForWithdraw(uint256 _gasForDestinationLZReceive)\n        internal\n        pure\n        returns (bytes memory)\n    {\n        uint16 _version = 1;\n        return abi.encodePacked(_version, _gasForDestinationLZReceive);\n    }\n\n    /* Fees::repatriation */\n\n    /// @notice Estimates fees for repatriation operation\n    /// @param _originChainId Zorro chain ID of chain to which funds are to be repatriated to\n    /// @param _pid Pool ID on current chain\n    /// @param _trancheId ID of tranche on current chain that funds were withdrawn from\n    /// @param _originRecipient Recipient of funds on the origin chain\n    /// @param _burnableZORRewards Quantity of ZOR tokens minted for rewards here that need to be burned on the home chain\n    /// @param _rewardsDue ZOR rewards due to the recipient\n    /// @param _gasForDestinationLZReceive How much additional gas to provide at destination contract\n    /// @return uint256 Estimated fee in native tokens\n    function checkXChainRepatriationFee(\n        uint256 _originChainId,\n        uint256 _pid,\n        uint256 _trancheId,\n        bytes memory _originRecipient,\n        uint256 _burnableZORRewards,\n        uint256 _rewardsDue,\n        uint256 _gasForDestinationLZReceive\n    ) external view returns (uint256) {\n        // Init empty LZ object\n        IStargateRouter.lzTxObj memory _lzTxParams;\n\n        // Get payload\n        bytes memory _payload = _encodeXChainRepatriationPayload(\n            _originChainId,\n            _pid,\n            _trancheId,\n            _originRecipient,\n            _burnableZORRewards,\n            _rewardsDue\n        );\n        bytes memory _dstContract = controllerContractsMap[_originChainId];\n\n        // Calculate native gas fee and ZRO token fee (Layer Zero token)\n        (uint256 _nativeFee,) = IStargateRouter(stargateRouter)\n            .quoteLayerZeroFee(\n                ZorroChainToLZMap[_originChainId],\n                1,\n                _dstContract,\n                _payload,\n                _lzTxParams\n            );\n\n        return _nativeFee;\n    }\n\n    /* Encoding (payloads) */\n\n    /* Encoding::withdrawals */\n\n    /// @notice Encodes payload for making cross chan withdrawal\n    /// @param _originChainId Chain that withdrawal request originated from\n    /// @param _originAccount Account on origin chain that withdrawal request originated from\n    /// @param _pid Pool ID on remote chain\n    /// @param _trancheId Tranche ID on remote chain\n    /// @param _maxMarketMovement Slippage parameter (e.g. 950 = 5%, 990 = 1%, etc.)\n    /// @return bytes ABI encoded payload\n    function _encodeXChainWithdrawalPayload(\n        uint256 _originChainId,\n        bytes memory _originAccount,\n        uint256 _pid,\n        uint256 _trancheId,\n        uint256 _maxMarketMovement\n    ) internal pure returns (bytes memory) {\n        // Calculate method signature\n        bytes4 _sig = this.receiveXChainWithdrawalRequest.selector;\n        // Calculate abi encoded bytes for input args\n        bytes memory _inputs = abi.encode(\n            _originChainId,\n            _originAccount,\n            _pid,\n            _trancheId,\n            _maxMarketMovement\n        );\n        // Concatenate bytes of signature and inputs\n        return bytes.concat(_sig, _inputs);\n    }\n\n    /* Encoding::repatriation */\n\n    /// @notice Encodes payload for making cross chain repatriation\n    /// @param _originChainId Zorro chain ID of chain that funds shall be repatriated back to\n    /// @param _pid Pool ID on current chain that withdrawal came from\n    /// @param _trancheId Tranche ID on current chain that withdrawal came from\n    /// @param _originRecipient Recipient on home chain that repatriated funds shall be sent to\n    /// @param _burnableZORRewards Qty of minted ZOR that needs to be burned on the home chain\n    /// @param _rewardsDue ZOR rewards due to the recipient\n    /// @return bytes ABI encoded payload\n    function _encodeXChainRepatriationPayload(\n        uint256 _originChainId,\n        uint256 _pid,\n        uint256 _trancheId,\n        bytes memory _originRecipient,\n        uint256 _burnableZORRewards,\n        uint256 _rewardsDue\n    ) internal pure returns (bytes memory) {\n        // Calculate method signature\n        bytes4 _sig = this.receiveXChainRepatriationRequest.selector;\n        // Calculate abi encoded bytes for input args\n        bytes memory _inputs = abi.encode(\n            _originChainId,\n            _pid,\n            _trancheId,\n            _originRecipient,\n            _burnableZORRewards,\n            _rewardsDue\n        );\n        // Concatenate bytes of signature and inputs\n        return bytes.concat(_sig, _inputs);\n    }\n\n    /* Sending */\n\n    /* Sending::withdrawals */\n\n    /// @notice Prepares and sends a cross chain withdrwal request.\n    /// @dev Requires value to be submitted to pay for cross chain transaction. Use checkXChainWithdrawalFee() to estimate fees\n    /// @param _destZorroChainId The Zorro chain ID of the remote chain to withdraw from\n    /// @param _pid The pool ID on the remote chain\n    /// @param _trancheId The ID of the tranche for the given user and pool\n    /// @param _maxMarketMovement Acceptable degree of slippage on any transaction (e.g. 950 = 5%, 990 = 1% etc.)\n    /// @param _gasForDestinationLZReceive How much additional gas to provide at destination contract\n    function sendXChainWithdrawalRequest(\n        uint256 _destZorroChainId,\n        uint256 _pid,\n        uint256 _trancheId,\n        uint256 _maxMarketMovement,\n        uint256 _gasForDestinationLZReceive\n    ) external payable nonReentrant {\n        // Prep payload\n        bytes memory _payload = _encodeXChainWithdrawalPayload(\n            chainId,\n            abi.encodePacked(msg.sender),\n            _pid,\n            _trancheId,\n            _maxMarketMovement\n        );\n\n        // Destination info\n        bytes memory _dstContract = controllerContractsMap[_destZorroChainId];\n\n        // Send LayerZero request\n        _callLZSend(\n            LZMessagePayload({\n                zorroChainId: _destZorroChainId,\n                destinationContract: _dstContract,\n                payload: _payload,\n                refundAddress: payable(msg.sender),\n                _zroPaymentAddress: address(0),\n                adapterParams: _getLZAdapterParamsForWithdraw(_gasForDestinationLZReceive)\n            })\n        );\n    }\n\n    /* Sending::repatriation */\n\n    /// @notice Prepares and sends cross chain repatriation request via Stargate\n    /// @param _originChainId Chain ID of origin chain that repatriation shall go to\n    /// @param _pid Pool ID on current chain that withdrawal came from\n    /// @param _trancheId Tranche ID on current chain that withdrawal came from\n    /// @param _originRecipient Recipient on home chain that repatriate funds shall go to\n    /// @param _amountUSDC Amount withdrawn, to be repatriated\n    /// @param _burnableZORRewards ZOR rewards minted, to be burned from the public pool on the home chain\n    /// @param _rewardsDue ZOR rewards due to the recipient\n    /// @param _maxMarketMovementAllowed Acceptable slippage (950 = 5%, 990 = 1%, etc.)\n    function _sendXChainRepatriationRequest(\n        uint256 _originChainId,\n        uint256 _pid,\n        uint256 _trancheId,\n        bytes memory _originRecipient,\n        uint256 _amountUSDC,\n        uint256 _burnableZORRewards,\n        uint256 _rewardsDue,\n        uint256 _maxMarketMovementAllowed\n    ) internal {\n        // Prep payload\n        bytes memory _payload = _encodeXChainRepatriationPayload(\n            _originChainId,\n            _pid,\n            _trancheId,\n            _originRecipient,\n            _burnableZORRewards,\n            _rewardsDue\n        );\n        // Destination info\n        bytes memory _dstContract = controllerContractsMap[_originChainId];\n\n        // Send Stargate request\n        _callStargateSwap(\n            StargateSwapPayload({\n                chainId: _originChainId,\n                qty: _amountUSDC,\n                dstContract: _dstContract,\n                payload: _payload,\n                maxMarketMovement: _maxMarketMovementAllowed\n            })\n        );\n    }\n\n    /* Receiving */\n\n    /* Receiving::withdrawals */\n\n    /// @notice Dummy func to allow .selector call above and guarantee typesafety for abi calls.\n    /// @dev Should never ever be actually called.\n    function receiveXChainWithdrawalRequest(\n        uint256 _originChainId,\n        bytes memory _originAccount,\n        uint256 _pid,\n        uint256 _trancheId,\n        uint256 _maxMarketMovement\n    ) public {\n        // Revert to make sure this function never gets called\n        revert(\"illegal dummy func call\");\n\n        // But still include the function call here anyway to satisfy type safety requirements in case there is a change\n        _receiveXChainWithdrawalRequest(\n            _originChainId,\n            _originAccount,\n            _pid,\n            _trancheId,\n            _maxMarketMovement\n        );\n    }\n\n    /// @notice Handler for receiving withdrawal requests\n    /// @param _originChainId Zorro Chain ID of the chain that this request came from\n    /// @param _originAccount Wallet address of sender who initiated this request on the origin chain\n    /// @param _pid Pool ID to withdraw from\n    /// @param _trancheId Tranche ID to withdraw from\n    /// @param _maxMarketMovement Slippage factor (e.g. 950 = 5%, 990 = 1%, etc.)\n    function _receiveXChainWithdrawalRequest(\n        uint256 _originChainId,\n        bytes memory _originAccount,\n        uint256 _pid,\n        uint256 _trancheId,\n        uint256 _maxMarketMovement\n    ) internal {\n        // Get on-chain account using foreign account as guide\n        address _account = foreignTrancheInfo[_pid][_originAccount][_trancheId];\n\n        // Withdraw funds\n        (, uint256 _mintedZORRewards, uint256 _rewardsDue,) = _withdrawalFullService(\n            _account,\n            _originAccount,\n            _pid,\n            _trancheId,\n            false,\n            _maxMarketMovement\n        );\n\n        // Get USDC bal\n        uint256 _balUSDC = IERC20(defaultStablecoin).balanceOf(address(this));\n\n        // Only proceed if there is something to withdraw\n        require(_balUSDC > 0, \"Nothing to withdraw\");\n\n        // Repatriate funds\n        _sendXChainRepatriationRequest(\n            _originChainId,\n            _pid,\n            _trancheId,\n            _originAccount,\n            _balUSDC,\n            _mintedZORRewards,\n            _rewardsDue,\n            _maxMarketMovement\n        );\n    }\n\n    /* Receiving::repatriation */\n\n    /// @notice Dummy func to allow .selector call above and guarantee typesafety for abi calls.\n    /// @dev Should never ever be actually called.\n    function receiveXChainRepatriationRequest(\n        uint256 _originChainId,\n        uint256 _pid,\n        uint256 _trancheId,\n        bytes memory _originRecipient,\n        uint256 _burnableZORRewards,\n        uint256 _rewardsDue\n    ) public {\n        // Revert to make sure this function never gets called\n        revert(\"illegal dummy func call\");\n\n        // But still include the function call here anyway to satisfy type safety requirements in case there is a change\n        _receiveXChainRepatriationRequest(\n            _originChainId,\n            _pid,\n            _trancheId,\n            _originRecipient,\n            _burnableZORRewards,\n            _rewardsDue\n        );\n    }\n\n    /// @notice Receives a repatriation request from another chain and takes care of all financial operations (unlock/mint/burn) to pay the user their withdrawn funds from another chain\n    /// @param _originChainId The Chain ID of the investment being repatriated\n    /// @param _pid The pid of the investment being repatriated\n    /// @param _trancheId The tranche ID of the investment being repatriated\n    /// @param _originRecipient The wallet address on this chain that funds are being repatriated to\n    /// @param _burnableZORRewards The amount of ZOR token to be burned (since rewards were minted on the opposite chain)\n    /// @param _rewardsDue ZOR rewards due to the recipient\n    function _receiveXChainRepatriationRequest(\n        uint256 _originChainId,\n        uint256 _pid,\n        uint256 _trancheId,\n        bytes memory _originRecipient,\n        uint256 _burnableZORRewards,\n        uint256 _rewardsDue\n    ) internal {\n        // Emit repatriation event\n        emit XChainRepatriation(\n            _pid,\n            abi.decode(_originRecipient, (address)),\n            _burnableZORRewards,\n            _trancheId,\n            _originChainId\n        );\n\n        // Mint ZOR and send to user\n        Zorro(ZORRO).mint(abi.decode(_originRecipient, (address)), _rewardsDue);\n\n        // Burn ZOR rewards as applicable (since rewards were minted on the other chain)\n        if (_burnableZORRewards > 0) {\n            Zorro(ZORRO).burn(publicPool, _burnableZORRewards);\n        }\n    }\n}\n",
  "sourcePath": "/Users/kristophm/Documents/workspace/zorro-protocol/contracts/controllers/_ZorroControllerXChainWithdraw.sol",
  "compiler": {
    "name": "solc",
    "version": "0.8.10+commit.fc410830.Emscripten.clang"
  },
  "schemaVersion": "3.4.4",
  "updatedAt": "2022-04-06T12:54:17.546Z",
  "devdoc": {
    "kind": "dev",
    "methods": {
      "checkXChainRepatriationFee(uint256,uint256,uint256,bytes,uint256,uint256,uint256)": {
        "params": {
          "_burnableZORRewards": "Quantity of ZOR tokens minted for rewards here that need to be burned on the home chain",
          "_gasForDestinationLZReceive": "How much additional gas to provide at destination contract",
          "_originChainId": "Zorro chain ID of chain to which funds are to be repatriated to",
          "_originRecipient": "Recipient of funds on the origin chain",
          "_pid": "Pool ID on current chain",
          "_rewardsDue": "ZOR rewards due to the recipient",
          "_trancheId": "ID of tranche on current chain that funds were withdrawn from"
        },
        "returns": {
          "_0": "uint256 Estimated fee in native tokens"
        }
      },
      "checkXChainWithdrawalFee(uint256,uint256,uint256,uint256,uint256)": {
        "params": {
          "_gasForDestinationLZReceive": "How much additional gas to provide at destination contract",
          "_maxMarketMovement": "Acceptable degree of slippage on any transaction (e.g. 950 = 5%, 990 = 1% etc.)",
          "_pid": "The pool ID on the remote chain",
          "_trancheId": "The tranche ID on the remote chain",
          "_zorroChainId": "The Zorro Chain ID (not the LayerZero one)"
        },
        "returns": {
          "_0": "uint256 Expected fee to pay for bridging/cross chain execution"
        }
      },
      "deposit(uint256,uint256,uint256)": {
        "params": {
          "_pid": "index of pool",
          "_wantAmt": "how much Want token to deposit",
          "_weeksCommitted": "how many weeks the user is committing to on this vault"
        }
      },
      "depositFullService(uint256,uint256,uint256,uint256)": {
        "params": {
          "_maxMarketMovement": "factor to account for max market movement/slippage. The definition varies by Vault, so consult the associated Vault contract for info",
          "_pid": "index of pool to deposit into",
          "_valueUSDC": "value in USDC (in ether units) to deposit",
          "_weeksCommitted": "how many weeks to commit to the Pool (can be 0 or any uint)"
        }
      },
      "getTimeMultiplier(uint256)": {
        "params": {
          "durationInWeeks": "number of weeks committed into Vault"
        },
        "returns": {
          "_0": "multiplier factor, times 1e12"
        }
      },
      "getUserContribution(uint256,uint256)": {
        "params": {
          "_liquidityCommitted": "How many tokens staked (e.g. LP tokens)",
          "_timeMultiplier": "Time multiplier value (from getTimeMultiplier())"
        },
        "returns": {
          "_0": "The relative contribution of the user (unitless)"
        }
      },
      "inCaseTokensGetStuck(address,uint256)": {
        "details": "Does not permit usage for the Zorro token",
        "params": {
          "_amount": "token quantity",
          "_token": "ERC20 token address"
        }
      },
      "owner()": {
        "details": "Returns the address of the current owner."
      },
      "poolLength()": {
        "returns": {
          "_0": "Number of pools"
        }
      },
      "receiveXChainRepatriationRequest(uint256,uint256,uint256,bytes,uint256,uint256)": {
        "details": "Should never ever be actually called."
      },
      "receiveXChainWithdrawalRequest(uint256,bytes,uint256,uint256,uint256)": {
        "details": "Should never ever be actually called."
      },
      "renounceOwnership()": {
        "details": "Leaves the contract without owner. It will not be possible to call `onlyOwner` functions anymore. Can only be called by the current owner. NOTE: Renouncing ownership will leave the contract without an owner, thereby removing any functionality that is only available to the owner."
      },
      "sendXChainWithdrawalRequest(uint256,uint256,uint256,uint256,uint256)": {
        "details": "Requires value to be submitted to pay for cross chain transaction. Use checkXChainWithdrawalFee() to estimate fees",
        "params": {
          "_destZorroChainId": "The Zorro chain ID of the remote chain to withdraw from",
          "_gasForDestinationLZReceive": "How much additional gas to provide at destination contract",
          "_maxMarketMovement": "Acceptable degree of slippage on any transaction (e.g. 950 = 5%, 990 = 1% etc.)",
          "_pid": "The pool ID on the remote chain",
          "_trancheId": "The ID of the tranche for the given user and pool"
        }
      },
      "setControllerContract(uint256,bytes)": {
        "params": {
          "_controller": "Bytes representation of smart contract address for cross chain contract",
          "_zorroChainId": "Zorro Chain ID"
        }
      },
      "setIsTimeMultiplierActive(bool)": {
        "params": {
          "_isActive": "Whether it shall be active. If false, timemultiplier will be 1."
        }
      },
      "setKeyAddresses(address,address)": {
        "params": {
          "_ZORRO": "ZOR token address",
          "_defaultStablecoin": "Main stablecoin address (USDC)"
        }
      },
      "setPriceFeeds(address,address)": {
        "params": {
          "_priceFeedLPPoolOtherToken": "The address of the price feed for the counterparty token in the ZOR LP Pool",
          "_priceFeedZOR": "The address of the price feed for ZOR"
        }
      },
      "setRewardsParams(uint256[],uint256[],uint256,uint256)": {
        "details": "NOTE: Must enter all parameters or existing ones will be overwritten!",
        "params": {
          "_baseRewardRateBasisPoints": "Base reward rate factor, in bp",
          "_blockParams": "Array of [blocksPerDay, ZORROPerBlock]",
          "_chainMultiplier": "Rewards multiplier factor to be applied to this chain",
          "_dailyDistFactors": "Array of [ZORRODailyDistributionFactorBasisPointsMin, ZORRODailyDistributionFactorBasisPointsMax]"
        }
      },
      "setStargateDestPoolIds(uint256,uint16)": {
        "params": {
          "_stargatePoolId": "Stargate pool ID",
          "_zorroChainId": "Zorro chain ID"
        }
      },
      "setTargetTVLCaptureBasisPoints(uint256)": {
        "params": {
          "_targetTVLCaptureBasisPoints": "Percent of market desired to be captured, in bp. 333 = 3.33%. ONLY to be set on the home chain"
        }
      },
      "setUSDCToZORPath(address[])": {
        "params": {
          "_path": "Swap path"
        }
      },
      "setUSDCToZorroLPPoolOtherTokenPath(address[])": {
        "params": {
          "_path": "Swap path"
        }
      },
      "setUniRouter(address)": {
        "params": {
          "_uniV2Router": "Address of router"
        }
      },
      "setXChainParams(uint256,uint256,address)": {
        "params": {
          "_chainId": "The ind of the chain that this contract is on",
          "_homeChainId": "The chain ID of the home chain",
          "_homeChainZorroController": "The address of the home chain controller"
        }
      },
      "setZorroChainToLZMap(uint256,uint16)": {
        "params": {
          "_lzChainId": "LayerZero Chain ID",
          "_zorroChainId": "Zorro chain ID"
        }
      },
      "setZorroContracts(address,address)": {
        "params": {
          "_publicPool": "Public pool address (where ZOR minted)",
          "_zorroStakingVault": "Zorro single staking vault address"
        }
      },
      "setZorroControllerOracle(address)": {
        "params": {
          "_zorroControllerOracle": "Address of Chainlink oracle that can interact with this contract"
        }
      },
      "setZorroLPPoolParams(address,address)": {
        "params": {
          "_zorroLPPool": "Address of the Zorro-X LP pool",
          "_zorroLPPoolOtherToken": "Address of the counterpart token to the ZOR token in the LP Pool"
        }
      },
      "setZorroPerBlock(uint256,uint256,uint256,uint256,uint256)": {
        "details": "Values to be provided by Oracle. Perferable to run daily",
        "params": {
          "_ZorroTotalVaultTVLUSD": "USD value of all TVL locked into the Zorro protocol, across all chains",
          "_publicPoolZORBalance": "Number of ZOR tokens remaining in public pool on home chain",
          "_targetTVLCaptureBasisPoints": "% desired capture of total market TVL, measured in basis points",
          "_totalChainMultipliers": "Sum total of all chain multipliers for each chain",
          "_totalMarketTVLUSD": "Total DeFi market TVL across all chains (measured in USD)"
        }
      },
      "trancheLength(uint256,address)": {
        "params": {
          "_pid": "Index of pool",
          "_user": "wallet address of user"
        },
        "returns": {
          "_0": "Number of tranches"
        }
      },
      "transferInvestment(uint256,uint256,uint256,uint256)": {
        "params": {
          "_fromPid": "index of pool FROM",
          "_fromTrancheId": "index of tranche FROM",
          "_maxMarketMovement": "factor to account for max market movement/slippage. The definition varies by Vault, so consult the associated Vault contract for info",
          "_toPid": "index of pool TO"
        }
      },
      "transferOwnership(address)": {
        "details": "Transfers ownership of the contract to a new account (`newOwner`). Can only be called by the current owner."
      },
      "updatePool(uint256)": {
        "params": {
          "_pid": "index of pool"
        },
        "returns": {
          "_0": "uint256 Amount of ZOR rewards minted (useful for cross chain)"
        }
      },
      "withdraw(uint256,uint256,bool)": {
        "params": {
          "_harvestOnly": "If true, will only harvest Zorro tokens but not do a withdrawal",
          "_pid": "index of pool",
          "_trancheId": "index of tranche"
        },
        "returns": {
          "_0": "Amount of Want token withdrawn"
        }
      },
      "withdrawAll(uint256)": {
        "params": {
          "_pid": "index of pool"
        }
      },
      "withdrawalFullService(uint256,uint256,bool,uint256)": {
        "params": {
          "_harvestOnly": "If true, will only harvest Zorro tokens but not do a withdrawal",
          "_maxMarketMovement": "factor to account for max market movement/slippage. The definition varies by Vault, so consult the associated Vault contract for info",
          "_pid": "index of pool to deposit into",
          "_trancheId": "index of tranche"
        },
        "returns": {
          "_0": "Amount (in USDC) returned"
        }
      }
    },
    "version": 1
  },
  "userdoc": {
    "kind": "user",
    "methods": {
      "checkXChainRepatriationFee(uint256,uint256,uint256,bytes,uint256,uint256,uint256)": {
        "notice": "Estimates fees for repatriation operation"
      },
      "checkXChainWithdrawalFee(uint256,uint256,uint256,uint256,uint256)": {
        "notice": "Checks to see how much a cross chain withdrawal will cost"
      },
      "deposit(uint256,uint256,uint256)": {
        "notice": "Deposit Want tokens to associated Vault"
      },
      "depositFullService(uint256,uint256,uint256,uint256)": {
        "notice": "Deposits funds in a full service manner (performs autoswaps and obtains Want tokens)"
      },
      "getTimeMultiplier(uint256)": {
        "notice": "Calculate time multiplier based on duration committed"
      },
      "getUserContribution(uint256,uint256)": {
        "notice": "The contribution of the user, meant to be used in rewards allocations"
      },
      "inCaseTokensGetStuck(address,uint256)": {
        "notice": "For owner to recover ERC20 tokens on this contract if stuck"
      },
      "poolLength()": {
        "notice": "Number of pools in the Zorro protocol"
      },
      "receiveXChainRepatriationRequest(uint256,uint256,uint256,bytes,uint256,uint256)": {
        "notice": "Dummy func to allow .selector call above and guarantee typesafety for abi calls."
      },
      "receiveXChainWithdrawalRequest(uint256,bytes,uint256,uint256,uint256)": {
        "notice": "Dummy func to allow .selector call above and guarantee typesafety for abi calls."
      },
      "sendXChainWithdrawalRequest(uint256,uint256,uint256,uint256,uint256)": {
        "notice": "Prepares and sends a cross chain withdrwal request."
      },
      "setControllerContract(uint256,bytes)": {
        "notice": "Setter: Controller contract for each chain"
      },
      "setIsTimeMultiplierActive(bool)": {
        "notice": "Setter: Set time multiplier"
      },
      "setKeyAddresses(address,address)": {
        "notice": "Setter: Set key token addresses"
      },
      "setLayerZeroParams(address,uint256,address)": {
        "notice": "Setter: Set main LZ params"
      },
      "setPriceFeeds(address,address)": {
        "notice": "Setter: Chainlink price feeds"
      },
      "setRewardsParams(uint256[],uint256[],uint256,uint256)": {
        "notice": "Setter: Reward params (See Tokenomics paper for more details)"
      },
      "setStargateDestPoolIds(uint256,uint16)": {
        "notice": "Setter: Stargate dest pool IDs for USD asset"
      },
      "setStartBlock(uint256)": {
        "notice": "Setter: Start block for rewards"
      },
      "setTargetTVLCaptureBasisPoints(uint256)": {
        "notice": "Setter: TVL capture (See Tokenomics paper)"
      },
      "setUSDCToZORPath(address[])": {
        "notice": "Setter: Set path for token swap from USDC to ZOR"
      },
      "setUSDCToZorroLPPoolOtherTokenPath(address[])": {
        "notice": "Setter: Set path for token swap from USDC to counterparty token in ZOR LP pool"
      },
      "setUniRouter(address)": {
        "notice": "Setter: Uniswap-compatible router address"
      },
      "setXChainParams(uint256,uint256,address)": {
        "notice": "Setter: Cross chain params"
      },
      "setZorroChainToLZMap(uint256,uint16)": {
        "notice": "Setter: LZ/Stargate params"
      },
      "setZorroContracts(address,address)": {
        "notice": "Setter: Set key ZOR contract addresses"
      },
      "setZorroControllerOracle(address)": {
        "notice": "Setter: Set Zorro Controller Oracle"
      },
      "setZorroLPPoolParams(address,address)": {
        "notice": "Setter: Zorro LP Pool params"
      },
      "setZorroPerBlock(uint256,uint256,uint256,uint256,uint256)": {
        "notice": "Set the number of Zorro to emit per block based on current market parameters"
      },
      "trancheLength(uint256,address)": {
        "notice": "Number of tranches invested by a given user into a given pool"
      },
      "transferInvestment(uint256,uint256,uint256,uint256)": {
        "notice": "Transfer all assets from a tranche in one vault to a new vault (works on-chain only)"
      },
      "updatePool(uint256)": {
        "notice": "Update reward variables of the given pool to be up-to-date."
      },
      "withdraw(uint256,uint256,bool)": {
        "notice": "Fully withdraw Want tokens from underlying Vault."
      },
      "withdrawAll(uint256)": {
        "notice": "Withdraw the maximum number of Want tokens from a pool"
      },
      "withdrawalFullService(uint256,uint256,bool,uint256)": {
        "notice": "Withdraws funds from a pool and converts the Want token into USDC"
      }
    },
    "version": 1
  }
}