{
  "contractName": "ZorroControllerInvestment",
  "abi": [
    {
      "anonymous": false,
      "inputs": [
        {
          "indexed": true,
          "internalType": "address",
          "name": "account",
          "type": "address"
        },
        {
          "indexed": true,
          "internalType": "bytes",
          "name": "foreignAccount",
          "type": "bytes"
        },
        {
          "indexed": true,
          "internalType": "uint256",
          "name": "pid",
          "type": "uint256"
        },
        {
          "indexed": false,
          "internalType": "uint256",
          "name": "wantAmount",
          "type": "uint256"
        }
      ],
      "name": "Deposit",
      "type": "event"
    },
    {
      "anonymous": false,
      "inputs": [
        {
          "indexed": true,
          "internalType": "address",
          "name": "previousOwner",
          "type": "address"
        },
        {
          "indexed": true,
          "internalType": "address",
          "name": "newOwner",
          "type": "address"
        }
      ],
      "name": "OwnershipTransferred",
      "type": "event"
    },
    {
      "anonymous": false,
      "inputs": [
        {
          "indexed": false,
          "internalType": "address",
          "name": "account",
          "type": "address"
        },
        {
          "indexed": true,
          "internalType": "uint256",
          "name": "fromPid",
          "type": "uint256"
        },
        {
          "indexed": true,
          "internalType": "uint256",
          "name": "fromTrancheId",
          "type": "uint256"
        },
        {
          "indexed": true,
          "internalType": "uint256",
          "name": "toPid",
          "type": "uint256"
        }
      ],
      "name": "TransferInvestment",
      "type": "event"
    },
    {
      "anonymous": false,
      "inputs": [
        {
          "indexed": true,
          "internalType": "address",
          "name": "account",
          "type": "address"
        },
        {
          "indexed": true,
          "internalType": "bytes",
          "name": "foreignAccount",
          "type": "bytes"
        },
        {
          "indexed": true,
          "internalType": "uint256",
          "name": "pid",
          "type": "uint256"
        },
        {
          "indexed": false,
          "internalType": "uint256",
          "name": "trancheId",
          "type": "uint256"
        },
        {
          "indexed": false,
          "internalType": "uint256",
          "name": "wantAmount",
          "type": "uint256"
        }
      ],
      "name": "Withdraw",
      "type": "event"
    },
    {
      "inputs": [
        {
          "internalType": "uint256",
          "name": "",
          "type": "uint256"
        }
      ],
      "name": "USDCToZorroLPPoolOtherTokenPath",
      "outputs": [
        {
          "internalType": "address",
          "name": "",
          "type": "address"
        }
      ],
      "stateMutability": "view",
      "type": "function"
    },
    {
      "inputs": [
        {
          "internalType": "uint256",
          "name": "",
          "type": "uint256"
        }
      ],
      "name": "USDCToZorroPath",
      "outputs": [
        {
          "internalType": "address",
          "name": "",
          "type": "address"
        }
      ],
      "stateMutability": "view",
      "type": "function"
    },
    {
      "inputs": [],
      "name": "ZORRO",
      "outputs": [
        {
          "internalType": "address",
          "name": "",
          "type": "address"
        }
      ],
      "stateMutability": "view",
      "type": "function"
    },
    {
      "inputs": [],
      "name": "ZORRODailyDistributionFactorBasisPointsMax",
      "outputs": [
        {
          "internalType": "uint256",
          "name": "",
          "type": "uint256"
        }
      ],
      "stateMutability": "view",
      "type": "function"
    },
    {
      "inputs": [],
      "name": "ZORRODailyDistributionFactorBasisPointsMin",
      "outputs": [
        {
          "internalType": "uint256",
          "name": "",
          "type": "uint256"
        }
      ],
      "stateMutability": "view",
      "type": "function"
    },
    {
      "inputs": [],
      "name": "ZORROPerBlock",
      "outputs": [
        {
          "internalType": "uint256",
          "name": "",
          "type": "uint256"
        }
      ],
      "stateMutability": "view",
      "type": "function"
    },
    {
      "inputs": [],
      "name": "accSynthRewardsMinted",
      "outputs": [
        {
          "internalType": "uint256",
          "name": "",
          "type": "uint256"
        }
      ],
      "stateMutability": "view",
      "type": "function"
    },
    {
      "inputs": [],
      "name": "accSynthRewardsSlashed",
      "outputs": [
        {
          "internalType": "uint256",
          "name": "",
          "type": "uint256"
        }
      ],
      "stateMutability": "view",
      "type": "function"
    },
    {
      "inputs": [],
      "name": "baseRewardRateBasisPoints",
      "outputs": [
        {
          "internalType": "uint256",
          "name": "",
          "type": "uint256"
        }
      ],
      "stateMutability": "view",
      "type": "function"
    },
    {
      "inputs": [],
      "name": "blocksPerDay",
      "outputs": [
        {
          "internalType": "uint256",
          "name": "",
          "type": "uint256"
        }
      ],
      "stateMutability": "view",
      "type": "function"
    },
    {
      "inputs": [],
      "name": "burnAddress",
      "outputs": [
        {
          "internalType": "address",
          "name": "",
          "type": "address"
        }
      ],
      "stateMutability": "view",
      "type": "function"
    },
    {
      "inputs": [],
      "name": "chainId",
      "outputs": [
        {
          "internalType": "uint256",
          "name": "",
          "type": "uint256"
        }
      ],
      "stateMutability": "view",
      "type": "function"
    },
    {
      "inputs": [],
      "name": "chainMultiplier",
      "outputs": [
        {
          "internalType": "uint256",
          "name": "",
          "type": "uint256"
        }
      ],
      "stateMutability": "view",
      "type": "function"
    },
    {
      "inputs": [],
      "name": "defaultStablecoin",
      "outputs": [
        {
          "internalType": "address",
          "name": "",
          "type": "address"
        }
      ],
      "stateMutability": "view",
      "type": "function"
    },
    {
      "inputs": [
        {
          "internalType": "uint256",
          "name": "",
          "type": "uint256"
        },
        {
          "internalType": "bytes",
          "name": "",
          "type": "bytes"
        },
        {
          "internalType": "uint256",
          "name": "",
          "type": "uint256"
        }
      ],
      "name": "foreignTrancheInfo",
      "outputs": [
        {
          "internalType": "address",
          "name": "",
          "type": "address"
        }
      ],
      "stateMutability": "view",
      "type": "function"
    },
    {
      "inputs": [],
      "name": "homeChainId",
      "outputs": [
        {
          "internalType": "uint256",
          "name": "",
          "type": "uint256"
        }
      ],
      "stateMutability": "view",
      "type": "function"
    },
    {
      "inputs": [],
      "name": "homeChainZorroController",
      "outputs": [
        {
          "internalType": "address",
          "name": "",
          "type": "address"
        }
      ],
      "stateMutability": "view",
      "type": "function"
    },
    {
      "inputs": [
        {
          "internalType": "address",
          "name": "_token",
          "type": "address"
        },
        {
          "internalType": "uint256",
          "name": "_amount",
          "type": "uint256"
        }
      ],
      "name": "inCaseTokensGetStuck",
      "outputs": [],
      "stateMutability": "nonpayable",
      "type": "function"
    },
    {
      "inputs": [],
      "name": "isTimeMultiplierActive",
      "outputs": [
        {
          "internalType": "bool",
          "name": "",
          "type": "bool"
        }
      ],
      "stateMutability": "view",
      "type": "function"
    },
    {
      "inputs": [],
      "name": "owner",
      "outputs": [
        {
          "internalType": "address",
          "name": "",
          "type": "address"
        }
      ],
      "stateMutability": "view",
      "type": "function"
    },
    {
      "inputs": [
        {
          "internalType": "uint256",
          "name": "",
          "type": "uint256"
        }
      ],
      "name": "poolInfo",
      "outputs": [
        {
          "internalType": "contract IERC20Upgradeable",
          "name": "want",
          "type": "address"
        },
        {
          "internalType": "uint256",
          "name": "allocPoint",
          "type": "uint256"
        },
        {
          "internalType": "uint256",
          "name": "lastRewardBlock",
          "type": "uint256"
        },
        {
          "internalType": "uint256",
          "name": "accZORRORewards",
          "type": "uint256"
        },
        {
          "internalType": "uint256",
          "name": "totalTrancheContributions",
          "type": "uint256"
        },
        {
          "internalType": "address",
          "name": "vault",
          "type": "address"
        }
      ],
      "stateMutability": "view",
      "type": "function"
    },
    {
      "inputs": [],
      "name": "poolLength",
      "outputs": [
        {
          "internalType": "uint256",
          "name": "",
          "type": "uint256"
        }
      ],
      "stateMutability": "view",
      "type": "function"
    },
    {
      "inputs": [],
      "name": "priceFeedLPPoolOtherToken",
      "outputs": [
        {
          "internalType": "contract AggregatorV3Interface",
          "name": "",
          "type": "address"
        }
      ],
      "stateMutability": "view",
      "type": "function"
    },
    {
      "inputs": [],
      "name": "priceFeedZOR",
      "outputs": [
        {
          "internalType": "contract AggregatorV3Interface",
          "name": "",
          "type": "address"
        }
      ],
      "stateMutability": "view",
      "type": "function"
    },
    {
      "inputs": [],
      "name": "publicPool",
      "outputs": [
        {
          "internalType": "address",
          "name": "",
          "type": "address"
        }
      ],
      "stateMutability": "view",
      "type": "function"
    },
    {
      "inputs": [],
      "name": "renounceOwnership",
      "outputs": [],
      "stateMutability": "nonpayable",
      "type": "function"
    },
    {
      "inputs": [],
      "name": "resetSyntheticRewardsMinted",
      "outputs": [],
      "stateMutability": "nonpayable",
      "type": "function"
    },
    {
      "inputs": [],
      "name": "resetSyntheticRewardsSlashed",
      "outputs": [],
      "stateMutability": "nonpayable",
      "type": "function"
    },
    {
      "inputs": [
        {
          "internalType": "address",
          "name": "_burnAddress",
          "type": "address"
        }
      ],
      "name": "setBurnAddress",
      "outputs": [],
      "stateMutability": "nonpayable",
      "type": "function"
    },
    {
      "inputs": [
        {
          "internalType": "address",
          "name": "_ZORRO",
          "type": "address"
        },
        {
          "internalType": "address",
          "name": "_defaultStablecoin",
          "type": "address"
        }
      ],
      "name": "setKeyAddresses",
      "outputs": [],
      "stateMutability": "nonpayable",
      "type": "function"
    },
    {
      "inputs": [
        {
          "internalType": "uint256",
          "name": "_blocksPerDay",
          "type": "uint256"
        },
        {
          "internalType": "uint256[]",
          "name": "_dailyDistFactors",
          "type": "uint256[]"
        },
        {
          "internalType": "uint256",
          "name": "_chainMultiplier",
          "type": "uint256"
        },
        {
          "internalType": "uint256",
          "name": "_baseRewardRateBasisPoints",
          "type": "uint256"
        }
      ],
      "name": "setRewardsParams",
      "outputs": [],
      "stateMutability": "nonpayable",
      "type": "function"
    },
    {
      "inputs": [
        {
          "internalType": "uint256",
          "name": "_startBlock",
          "type": "uint256"
        }
      ],
      "name": "setStartBlock",
      "outputs": [],
      "stateMutability": "nonpayable",
      "type": "function"
    },
    {
      "inputs": [
        {
          "internalType": "uint256",
          "name": "_targetTVLCaptureBasisPoints",
          "type": "uint256"
        }
      ],
      "name": "setTargetTVLCaptureBasisPoints",
      "outputs": [],
      "stateMutability": "nonpayable",
      "type": "function"
    },
    {
      "inputs": [
        {
          "internalType": "uint256",
          "name": "_chainId",
          "type": "uint256"
        },
        {
          "internalType": "uint256",
          "name": "_homeChainId",
          "type": "uint256"
        },
        {
          "internalType": "address",
          "name": "_homeChainZorroController",
          "type": "address"
        }
      ],
      "name": "setXChainParams",
      "outputs": [],
      "stateMutability": "nonpayable",
      "type": "function"
    },
    {
      "inputs": [
        {
          "internalType": "address",
          "name": "_publicPool",
          "type": "address"
        },
        {
          "internalType": "address",
          "name": "_zorroStakingVault",
          "type": "address"
        }
      ],
      "name": "setZorroContracts",
      "outputs": [],
      "stateMutability": "nonpayable",
      "type": "function"
    },
    {
      "inputs": [
        {
          "internalType": "address",
          "name": "_zorroControllerOracle",
          "type": "address"
        }
      ],
      "name": "setZorroControllerOracle",
      "outputs": [],
      "stateMutability": "nonpayable",
      "type": "function"
    },
    {
      "inputs": [
        {
          "internalType": "uint256",
          "name": "_totalChainMultipliers",
          "type": "uint256"
        },
        {
          "internalType": "uint256",
          "name": "_totalMarketTVLUSD",
          "type": "uint256"
        },
        {
          "internalType": "uint256",
          "name": "_targetTVLCaptureBasisPoints",
          "type": "uint256"
        },
        {
          "internalType": "uint256",
          "name": "_ZorroTotalVaultTVLUSD",
          "type": "uint256"
        },
        {
          "internalType": "uint256",
          "name": "_publicPoolZORBalance",
          "type": "uint256"
        }
      ],
      "name": "setZorroPerBlock",
      "outputs": [],
      "stateMutability": "nonpayable",
      "type": "function"
    },
    {
      "inputs": [],
      "name": "startBlock",
      "outputs": [
        {
          "internalType": "uint256",
          "name": "",
          "type": "uint256"
        }
      ],
      "stateMutability": "view",
      "type": "function"
    },
    {
      "inputs": [],
      "name": "targetTVLCaptureBasisPoints",
      "outputs": [
        {
          "internalType": "uint256",
          "name": "",
          "type": "uint256"
        }
      ],
      "stateMutability": "view",
      "type": "function"
    },
    {
      "inputs": [],
      "name": "totalAllocPoint",
      "outputs": [
        {
          "internalType": "uint256",
          "name": "",
          "type": "uint256"
        }
      ],
      "stateMutability": "view",
      "type": "function"
    },
    {
      "inputs": [
        {
          "internalType": "uint256",
          "name": "",
          "type": "uint256"
        },
        {
          "internalType": "address",
          "name": "",
          "type": "address"
        },
        {
          "internalType": "uint256",
          "name": "",
          "type": "uint256"
        }
      ],
      "name": "trancheInfo",
      "outputs": [
        {
          "internalType": "uint256",
          "name": "contribution",
          "type": "uint256"
        },
        {
          "internalType": "uint256",
          "name": "timeMultiplier",
          "type": "uint256"
        },
        {
          "internalType": "uint256",
          "name": "rewardDebt",
          "type": "uint256"
        },
        {
          "internalType": "uint256",
          "name": "durationCommittedInWeeks",
          "type": "uint256"
        },
        {
          "internalType": "uint256",
          "name": "enteredVaultAt",
          "type": "uint256"
        },
        {
          "internalType": "uint256",
          "name": "exitedVaultAt",
          "type": "uint256"
        }
      ],
      "stateMutability": "view",
      "type": "function"
    },
    {
      "inputs": [
        {
          "internalType": "uint256",
          "name": "_pid",
          "type": "uint256"
        },
        {
          "internalType": "address",
          "name": "_user",
          "type": "address"
        }
      ],
      "name": "trancheLength",
      "outputs": [
        {
          "internalType": "uint256",
          "name": "",
          "type": "uint256"
        }
      ],
      "stateMutability": "view",
      "type": "function"
    },
    {
      "inputs": [
        {
          "internalType": "address",
          "name": "newOwner",
          "type": "address"
        }
      ],
      "name": "transferOwnership",
      "outputs": [],
      "stateMutability": "nonpayable",
      "type": "function"
    },
    {
      "inputs": [],
      "name": "uniRouterAddress",
      "outputs": [
        {
          "internalType": "address",
          "name": "",
          "type": "address"
        }
      ],
      "stateMutability": "view",
      "type": "function"
    },
    {
      "inputs": [
        {
          "internalType": "uint256",
          "name": "_pid",
          "type": "uint256"
        }
      ],
      "name": "updatePool",
      "outputs": [
        {
          "internalType": "uint256",
          "name": "mintedZOR",
          "type": "uint256"
        }
      ],
      "stateMutability": "nonpayable",
      "type": "function"
    },
    {
      "inputs": [],
      "name": "zorroControllerOracle",
      "outputs": [
        {
          "internalType": "address",
          "name": "",
          "type": "address"
        }
      ],
      "stateMutability": "view",
      "type": "function"
    },
    {
      "inputs": [],
      "name": "zorroLPPool",
      "outputs": [
        {
          "internalType": "address",
          "name": "",
          "type": "address"
        }
      ],
      "stateMutability": "view",
      "type": "function"
    },
    {
      "inputs": [],
      "name": "zorroLPPoolOtherToken",
      "outputs": [
        {
          "internalType": "address",
          "name": "",
          "type": "address"
        }
      ],
      "stateMutability": "view",
      "type": "function"
    },
    {
      "inputs": [],
      "name": "zorroStakingVault",
      "outputs": [
        {
          "internalType": "address",
          "name": "",
          "type": "address"
        }
      ],
      "stateMutability": "view",
      "type": "function"
    },
    {
      "inputs": [],
      "name": "zorroXChainEndpoint",
      "outputs": [
        {
          "internalType": "address",
          "name": "",
          "type": "address"
        }
      ],
      "stateMutability": "view",
      "type": "function"
    },
    {
      "inputs": [
        {
          "internalType": "bool",
          "name": "_isActive",
          "type": "bool"
        }
      ],
      "name": "setIsTimeMultiplierActive",
      "outputs": [],
      "stateMutability": "nonpayable",
      "type": "function"
    },
    {
      "inputs": [
        {
          "internalType": "address",
          "name": "_zorroLPPool",
          "type": "address"
        },
        {
          "internalType": "address",
          "name": "_zorroLPPoolOtherToken",
          "type": "address"
        }
      ],
      "name": "setZorroLPPoolParams",
      "outputs": [],
      "stateMutability": "nonpayable",
      "type": "function"
    },
    {
      "inputs": [
        {
          "internalType": "address",
          "name": "_uniV2Router",
          "type": "address"
        }
      ],
      "name": "setUniRouter",
      "outputs": [],
      "stateMutability": "nonpayable",
      "type": "function"
    },
    {
      "inputs": [
        {
          "internalType": "address[]",
          "name": "_path",
          "type": "address[]"
        }
      ],
      "name": "setUSDCToZORPath",
      "outputs": [],
      "stateMutability": "nonpayable",
      "type": "function"
    },
    {
      "inputs": [
        {
          "internalType": "address[]",
          "name": "_path",
          "type": "address[]"
        }
      ],
      "name": "setUSDCToZorroLPPoolOtherTokenPath",
      "outputs": [],
      "stateMutability": "nonpayable",
      "type": "function"
    },
    {
      "inputs": [
        {
          "internalType": "address",
          "name": "_priceFeedZOR",
          "type": "address"
        },
        {
          "internalType": "address",
          "name": "_priceFeedLPPoolOtherToken",
          "type": "address"
        }
      ],
      "name": "setPriceFeeds",
      "outputs": [],
      "stateMutability": "nonpayable",
      "type": "function"
    },
    {
      "inputs": [
        {
          "internalType": "address",
          "name": "_contract",
          "type": "address"
        }
      ],
      "name": "setZorroXChainEndpoint",
      "outputs": [],
      "stateMutability": "nonpayable",
      "type": "function"
    },
    {
      "inputs": [
        {
          "internalType": "uint256",
          "name": "_pid",
          "type": "uint256"
        },
        {
          "internalType": "uint256",
          "name": "_wantAmt",
          "type": "uint256"
        },
        {
          "internalType": "uint256",
          "name": "_weeksCommitted",
          "type": "uint256"
        }
      ],
      "name": "deposit",
      "outputs": [],
      "stateMutability": "nonpayable",
      "type": "function"
    },
    {
      "inputs": [
        {
          "internalType": "uint256",
          "name": "_pid",
          "type": "uint256"
        },
        {
          "internalType": "uint256",
          "name": "_valueUSDC",
          "type": "uint256"
        },
        {
          "internalType": "uint256",
          "name": "_weeksCommitted",
          "type": "uint256"
        },
        {
          "internalType": "uint256",
          "name": "_maxMarketMovement",
          "type": "uint256"
        }
      ],
      "name": "depositFullService",
      "outputs": [],
      "stateMutability": "nonpayable",
      "type": "function"
    },
    {
      "inputs": [
        {
          "internalType": "uint256",
          "name": "_pid",
          "type": "uint256"
        },
        {
          "internalType": "address",
          "name": "_account",
          "type": "address"
        },
        {
          "internalType": "bytes",
          "name": "_foreignAccount",
          "type": "bytes"
        },
        {
          "internalType": "uint256",
          "name": "_valueUSDC",
          "type": "uint256"
        },
        {
          "internalType": "uint256",
          "name": "_weeksCommitted",
          "type": "uint256"
        },
        {
          "internalType": "uint256",
          "name": "_vaultEnteredAt",
          "type": "uint256"
        },
        {
          "internalType": "uint256",
          "name": "_maxMarketMovement",
          "type": "uint256"
        }
      ],
      "name": "depositFullServiceFromXChain",
      "outputs": [],
      "stateMutability": "nonpayable",
      "type": "function"
    },
    {
      "inputs": [
        {
          "internalType": "uint256",
          "name": "_pid",
          "type": "uint256"
        },
        {
          "internalType": "uint256",
          "name": "_trancheId",
          "type": "uint256"
        },
        {
          "internalType": "bool",
          "name": "_harvestOnly",
          "type": "bool"
        }
      ],
      "name": "withdraw",
      "outputs": [
        {
          "internalType": "uint256",
          "name": "",
          "type": "uint256"
        }
      ],
      "stateMutability": "nonpayable",
      "type": "function"
    },
    {
      "inputs": [
        {
          "internalType": "uint256",
          "name": "_pid",
          "type": "uint256"
        },
        {
          "internalType": "uint256",
          "name": "_trancheId",
          "type": "uint256"
        },
        {
          "internalType": "bool",
          "name": "_harvestOnly",
          "type": "bool"
        },
        {
          "internalType": "uint256",
          "name": "_maxMarketMovement",
          "type": "uint256"
        }
      ],
      "name": "withdrawalFullService",
      "outputs": [
        {
          "internalType": "uint256",
          "name": "",
          "type": "uint256"
        }
      ],
      "stateMutability": "nonpayable",
      "type": "function"
    },
    {
      "inputs": [
        {
          "internalType": "address",
          "name": "_account",
          "type": "address"
        },
        {
          "internalType": "bytes",
          "name": "_foreignAccount",
          "type": "bytes"
        },
        {
          "internalType": "uint256",
          "name": "_pid",
          "type": "uint256"
        },
        {
          "internalType": "uint256",
          "name": "_trancheId",
          "type": "uint256"
        },
        {
          "internalType": "bool",
          "name": "_harvestOnly",
          "type": "bool"
        },
        {
          "internalType": "uint256",
          "name": "_maxMarketMovement",
          "type": "uint256"
        }
      ],
      "name": "withdrawalFullServiceFromXChain",
      "outputs": [
        {
          "internalType": "uint256",
          "name": "_amountUSDC",
          "type": "uint256"
        },
        {
          "internalType": "uint256",
          "name": "_rewardsDueXChain",
          "type": "uint256"
        }
      ],
      "stateMutability": "nonpayable",
      "type": "function"
    },
    {
      "inputs": [
        {
          "internalType": "uint256",
          "name": "_fromPid",
          "type": "uint256"
        },
        {
          "internalType": "uint256",
          "name": "_fromTrancheId",
          "type": "uint256"
        },
        {
          "internalType": "uint256",
          "name": "_toPid",
          "type": "uint256"
        },
        {
          "internalType": "uint256",
          "name": "_maxMarketMovement",
          "type": "uint256"
        }
      ],
      "name": "transferInvestment",
      "outputs": [],
      "stateMutability": "nonpayable",
      "type": "function"
    },
    {
      "inputs": [
        {
          "internalType": "uint256",
          "name": "_pid",
          "type": "uint256"
        }
      ],
      "name": "withdrawAll",
      "outputs": [],
      "stateMutability": "nonpayable",
      "type": "function"
    },
    {
      "inputs": [
        {
          "internalType": "uint256",
          "name": "_rewardsDue",
          "type": "uint256"
        },
        {
          "internalType": "address",
          "name": "_destination",
          "type": "address"
        }
      ],
      "name": "repatriateRewards",
      "outputs": [],
      "stateMutability": "nonpayable",
      "type": "function"
    },
    {
      "inputs": [
        {
          "internalType": "uint256",
          "name": "_totalMinted",
          "type": "uint256"
        },
        {
          "internalType": "uint256",
          "name": "_totalSlashed",
          "type": "uint256"
        }
      ],
      "name": "handleAccXChainRewards",
      "outputs": [],
      "stateMutability": "nonpayable",
      "type": "function"
    },
    {
      "inputs": [
        {
          "internalType": "uint256",
          "name": "durationInWeeks",
          "type": "uint256"
        }
      ],
      "name": "getTimeMultiplier",
      "outputs": [
        {
          "internalType": "uint256",
          "name": "timeMultiplier",
          "type": "uint256"
        }
      ],
      "stateMutability": "view",
      "type": "function"
    }
  ],
  "bytecode": "0x608060405234801561001057600080fd5b506138b5806100206000396000f3fe608060405234801561001057600080fd5b50600436106103fb5760003560e01c806379777d8111610215578063b61bb80a11610125578063cff38dd4116100b8578063ef12696711610087578063ef126967146108f7578063f2fde38b14610900578063f35e4a6e14610913578063f63cce3714610926578063fc39a29e1461093957600080fd5b8063cff38dd4146108ab578063ebfba7c4146108be578063ed43633f146108d1578063ee4e2687146108e457600080fd5b8063c2936142116100f4578063c293614214610873578063c4e94f221461087c578063c6d758cb1461088f578063cb9c2f68146108a257600080fd5b8063b61bb80a14610831578063b95cc68114610844578063bdb2fc8b1461084d578063c13260a51461086057600080fd5b8063958e2d31116101a85780639ec68c76116101775780639ec68c76146107b0578063a13346c6146107c3578063a4d2b083146107cb578063b22f3251146107de578063b4b4e9eb146107f157600080fd5b8063958e2d31146107785780639a448c0c1461078b5780639a8a05921461079e5780639cebd371146107a757600080fd5b80638c157db2116101e45780638c157db21461071d5780638da5cb5b14610730578063941d3fd0146107415780639568786c1461076557600080fd5b806379777d81146106d15780637bf604d8146106e45780637e37c769146106f7578063823c43d01461070a57600080fd5b80634780f9f5116103105780635527a6f9116102a35780636b8eb2e5116102725780636b8eb2e51461067d5780636c78d49c1461069057806370d5ae05146106a3578063715018a6146106b6578063745af0a8146106be57600080fd5b80635527a6f91461063b5780635c63fa8714610644578063668ababb14610657578063693a090b1461066a57600080fd5b80635051d371116102df5780635051d371146105f957806351eb05a61461060c578063529668321461061f57806353f73f871461062857600080fd5b80634780f9f5146105c157806348cd4cb1146105d45780634b0e7216146105dd5780634cfea68a146105f057600080fd5b80631b8fb6921161039357806339e80a881161036257806339e80a88146105615780633b710688146105745780633b9ce5651461057d5780633bbc1ffc1461058657806340abd8fc1461059957600080fd5b80631b8fb692146104dd5780632e31283d146104f05780633332fcf41461053b57806333cfcd3b1461054e57600080fd5b80630aa0988e116103cf5780630aa0988e14610447578063104a61321461045a5780631526fe271461048557806317caf6f1146104d457600080fd5b8062aeef8a14610400578063068f158d14610415578063081e3eda1461042857806309b79b3c1461043f575b600080fd5b61041361040e366004612f70565b61094c565b005b610413610423366004612fb3565b6109e8565b60aa545b6040519081526020015b60405180910390f35b610413610a40565b610413610455366004612fb3565b610a9e565b61046d610468366004612fe6565b610af6565b6040516001600160a01b039091168152602001610436565b610498610493366004612fe6565b610b20565b604080516001600160a01b03978816815260208101969096528501939093526060840191909152608083015290911660a082015260c001610436565b61042c60a45481565b6104136104eb366004612fff565b610b73565b61046d6104fe3660046130d9565b60ac60209081526000938452604080852084518086018401805192815290840195840195909520945292905282529020546001600160a01b031681565b610413610549366004613129565b610c2a565b61042c61055c3660046131e4565b610c67565b60b55461046d906001600160a01b031681565b61042c60a35481565b61042c60a15481565b610413610594366004612fe6565b610d01565b6105ac6105a736600461321d565b610d5a565b60408051928352602083019190915201610436565b6104136105cf36600461329b565b610df2565b61042c609c5481565b6104136105eb3660046132cd565b610e81565b61042c609d5481565b6104136106073660046132cd565b610ecd565b61042c61061a366004612fe6565b610f19565b61042c60a55481565b61042c610636366004612fff565b6110e5565b61042c60a05481565b6104136106523660046132e8565b61110f565b60995461046d906001600160a01b031681565b60b05461046d906001600160a01b031681565b61041361068b36600461331d565b611163565b61041361069e366004613358565b611217565b609b5461046d906001600160a01b031681565b61041361125f565b61042c6106cc366004613375565b611295565b60b45461046d906001600160a01b031681565b60ae5461046d906001600160a01b031681565b61041361070536600461329b565b61130c565b60ad5461046d906001600160a01b031681565b60975461046d906001600160a01b031681565b6033546001600160a01b031661046d565b60ad5461075590600160a01b900460ff1681565b6040519015158152602001610436565b61042c610773366004612fe6565b61147f565b610413610786366004612fe6565b6114d0565b61046d610799366004612fe6565b6115fa565b61042c60a75481565b61042c60a25481565b6104136107be366004612fb3565b61160a565b610413611662565b609a5461046d906001600160a01b031681565b60b35461046d906001600160a01b031681565b6108046107ff3660046133b4565b6116da565b604080519687526020870195909552938501929092526060840152608083015260a082015260c001610436565b60985461046d906001600160a01b031681565b61042c60a65481565b61041361085b366004613129565b61173b565b61041361086e3660046133e9565b611778565b61042c609e5481565b61041361088a3660046132cd565b611819565b61041361089d36600461340b565b611865565b61042c609f5481565b6104136108b9366004613435565b61191f565b60af5461046d906001600160a01b031681565b6104136108df3660046134b1565b6119b1565b6104136108f23660046132cd565b611a27565b61042c60a85481565b61041361090e3660046132cd565b611a73565b610413610921366004612fe6565b611b0e565b610413610934366004612fb3565b611b85565b60a95461046d906001600160a01b031681565b600260655414156109785760405162461bcd60e51b815260040161096f9061353f565b60405180910390fd5b6002606581905550600060aa848154811061099557610995613576565b6000918252602090912060069091020180549091506109bf906001600160a01b0316333086611c07565b6109dc843360405180602001604052806000815250868642611c78565b50506001606555505050565b6033546001600160a01b03163314610a125760405162461bcd60e51b815260040161096f9061358c565b60b380546001600160a01b039384166001600160a01b03199182161790915560b48054929093169116179055565b60ad546001600160a01b0316336001600160a01b031614610a735760405162461bcd60e51b815260040161096f906135c1565b60a85460a7541415610a975760405162461bcd60e51b815260040161096f906135ec565b600060a555565b6033546001600160a01b03163314610ac85760405162461bcd60e51b815260040161096f9061358c565b609780546001600160a01b039384166001600160a01b03199182161790915560988054929093169116179055565b60b18181548110610b0657600080fd5b6000918252602090912001546001600160a01b0316905081565b60aa8181548110610b3057600080fd5b60009182526020909120600690910201805460018201546002830154600384015460048501546005909501546001600160a01b0394851696509294919390921686565b60b5546001600160a01b0316336001600160a01b031614610ba65760405162461bcd60e51b815260040161096f90613623565b60a85460a7541415610bc057610bbc8282611e65565b5050565b6097546040516340c10f1960e01b81526001600160a01b03838116600483015260248201859052909116906340c10f1990604401600060405180830381600087803b158015610c0e57600080fd5b505af1158015610c22573d6000803e3d6000fd5b505050505050565b6033546001600160a01b03163314610c545760405162461bcd60e51b815260040161096f9061358c565b8051610bbc9060b1906020840190612ef6565b600060026065541415610c8c5760405162461bcd60e51b815260040161096f9061353f565b60026065819055506000610cb485336040518060200160405280600081525087876000611e83565b9050610cf333826000015160aa8881548110610cd257610cd2613576565b60009182526020909120600690910201546001600160a01b03169190612330565b516001606555949350505050565b6033546001600160a01b03163314610d2b5760405162461bcd60e51b815260040161096f9061358c565b60a9546001600160a01b03163014610d555760405162461bcd60e51b815260040161096f90613648565b609f55565b60b55460009081906001600160a01b0316336001600160a01b031614610d925760405162461bcd60e51b815260040161096f90613623565b610da28888888888886001612365565b90925090508115610dc457609854610dc4906001600160a01b03163384612330565b8015610de757609b54609754610de7916001600160a01b03918216911683612330565b965096945050505050565b60026065541415610e155760405162461bcd60e51b815260040161096f9061353f565b6002606581905550600060aa8581548110610e3257610e32613576565b60009182526020909120600560069092020101546098546001600160a01b039182169250610e639116338387611c07565b6109dc85336040518060200160405280600081525087874288612474565b6033546001600160a01b03163314610eab5760405162461bcd60e51b815260040161096f9061358c565b609b80546001600160a01b0319166001600160a01b0392909216919091179055565b6033546001600160a01b03163314610ef75760405162461bcd60e51b815260040161096f9061358c565b60ad80546001600160a01b0319166001600160a01b0392909216919091179055565b60008060aa8381548110610f2f57610f2f613576565b9060005260206000209060060201905080600201544311610f535750600092915050565b600581015460408051632251caaf60e11b815290516000926001600160a01b0316916344a3955e9160048083019260209291908290030181865afa158015610f9f573d6000803e3d6000fd5b505050506040513d601f19601f82011682018060405250810190610fc39190613671565b905080610fda575043600290910155506000919050565b6000610ff383600201544361254790919063ffffffff16565b9050600061102660a454611020866001015461101a609e548761255a90919063ffffffff16565b9061255a565b90612566565b60a9549091506001600160a01b031630141561104f576110468130611e65565b600094506110bf565b6097546040516340c10f1960e01b8152306004820152602481018390526001600160a01b03909116906340c10f1990604401600060405180830381600087803b15801561109b57600080fd5b505af11580156110af573d6000803e3d6000fd5b505050508094506110bf85612572565b60038401546110ce90826125a9565b600385015550504360029092019190915550919050565b600082815260ab602090815260408083206001600160a01b03851684529091529020545b92915050565b6033546001600160a01b031633146111395760405162461bcd60e51b815260040161096f9061358c565b60a79290925560a85560a980546001600160a01b0319166001600160a01b03909216919091179055565b60ad546001600160a01b0316336001600160a01b0316146111965760405162461bcd60e51b815260040161096f906135c1565b60006111c06111a78461271061255a565b6110208661101a8960a35461255a90919063ffffffff16565b905060a1548111156111d5575060a1546111e4565b60a0548110156111e4575060a0545b609d5461120c906111fb9061101a8961271061255a565b60a2546110209061101a868661255a565b609e55505050505050565b6033546001600160a01b031633146112415760405162461bcd60e51b815260040161096f9061358c565b60ad8054911515600160a01b0260ff60a01b19909216919091179055565b6033546001600160a01b031633146112895760405162461bcd60e51b815260040161096f9061358c565b61129360006125b5565b565b6000600260655414156112ba5760405162461bcd60e51b815260040161096f9061353f565b600260658190555060006112e33360405180602001604052806000815250888888886000612365565b506098549091506112fe906001600160a01b03163383612330565b600160655595945050505050565b6002606554141561132f5760405162461bcd60e51b815260040161096f9061353f565b6002606555600084815260ab60209081526040808320338452909152812080548590811061135f5761135f613576565b600091825260208083206003600690930201919091015487835260ab82526040808420338552909252908220805491935090869081106113a1576113a1613576565b906000526020600020906006020160040154905060006113d7336040518060200160405280600081525089896000896000612365565b50905061141a60aa86815481106113f0576113f0613576565b60009182526020909120600560069092020101546098546001600160a01b03908116911683612330565b6114388533604051806020016040528060008152508487878a612474565b6040513381528590879089907f67e7aba7263d8fbeb0cd9a2f4008f060a6a03f46c1d7f9d0550f0b93e96e96f89060200160405180910390a4505060016065555050505050565b60ad5464e8d4a5100090600160a01b900460ff16156114cb576114c864e8d4a510006114c26103e8611020600261101a85816114bd8b61271061255a565b612607565b906125a9565b90505b919050565b600260655414156114f35760405162461bcd60e51b815260040161096f9061353f565b6002606555600061150482336110e5565b905060005b818110156115405761152f83336040518060200160405280600081525084600080611e83565b50611539816136a0565b9050611509565b50600060aa838154811061155657611556613576565b60009182526020909120600690910201546040516370a0823160e01b81523060048201526001600160a01b03909116906370a0823190602401602060405180830381865afa1580156115ac573d6000803e3d6000fd5b505050506040513d601f19601f820116820180604052508101906115d09190613671565b905080156115f0576115f0338260aa8681548110610cd257610cd2613576565b5050600160655550565b60b28181548110610b0657600080fd5b6033546001600160a01b031633146116345760405162461bcd60e51b815260040161096f9061358c565b60ae80546001600160a01b039384166001600160a01b03199182161790915560af8054929093169116179055565b60ad546001600160a01b0316336001600160a01b0316146116955760405162461bcd60e51b815260040161096f906135c1565b60a85460a75414156116b95760405162461bcd60e51b815260040161096f906135ec565b609b5460a654609754610a97926001600160a01b0391821692911690612330565b60ab602052826000526040600020602052816000526040600020818154811061170257600080fd5b60009182526020909120600690910201805460018201546002830154600384015460048501546005909501549397509195509350919086565b6033546001600160a01b031633146117655760405162461bcd60e51b815260040161096f9061358c565b8051610bbc9060b2906020840190612ef6565b60ad546001600160a01b0316336001600160a01b0316146117ab5760405162461bcd60e51b815260040161096f906135c1565b60a9546001600160a01b031630146117d55760405162461bcd60e51b815260040161096f90613648565b609b54611802906001600160a01b03166117ef8484612547565b6097546001600160a01b03169190612330565b609a54610bbc9082906001600160a01b0316611e65565b6033546001600160a01b031633146118435760405162461bcd60e51b815260040161096f9061358c565b60b580546001600160a01b0319166001600160a01b0392909216919091179055565b6033546001600160a01b0316331461188f5760405162461bcd60e51b815260040161096f9061358c565b6097546001600160a01b038381169116141561190b5760405162461bcd60e51b815260206004820152603560248201527f217361666520746f20757365205a6f72726f20746f6b656e20696e2066756e6360448201527420696e43617365546f6b656e73476574537475636b60581b606482015260840161096f565b610bbc6001600160a01b0383163383612330565b60b5546001600160a01b0316336001600160a01b0316146119525760405162461bcd60e51b815260040161096f90613623565b600060aa888154811061196757611967613576565b60009182526020909120600560069092020101546098546001600160a01b0391821692506119989116338388611c07565b6119a788888888888888612474565b5050505050505050565b6033546001600160a01b031633146119db5760405162461bcd60e51b815260040161096f9061358c565b609d85905583836000816119f1576119f1613576565b602002919091013560a0555083836001818110611a1057611a10613576565b602002919091013560a1555060a35560a255505050565b6033546001600160a01b03163314611a515760405162461bcd60e51b815260040161096f9061358c565b60b080546001600160a01b0319166001600160a01b0392909216919091179055565b6033546001600160a01b03163314611a9d5760405162461bcd60e51b815260040161096f9061358c565b6001600160a01b038116611b025760405162461bcd60e51b815260206004820152602660248201527f4f776e61626c653a206e6577206f776e657220697320746865207a65726f206160448201526564647265737360d01b606482015260840161096f565b611b0b816125b5565b50565b6033546001600160a01b03163314611b385760405162461bcd60e51b815260040161096f9061358c565b609c5415611b805760405162461bcd60e51b8152602060048201526015602482015274626c6f636b506172616d7320696d6d757461626c6560581b604482015260640161096f565b609c55565b6033546001600160a01b03163314611baf5760405162461bcd60e51b815260040161096f9061358c565b60a9546001600160a01b03163014611bd95760405162461bcd60e51b815260040161096f90613648565b609980546001600160a01b039384166001600160a01b031991821617909155609a8054929093169116179055565b6040516001600160a01b0380851660248301528316604482015260648101829052611c729085906323b872dd60e01b906084015b60408051601f198184030181529190526020810180516001600160e01b03166001600160e01b03199093169290921790915261267e565b50505050565b60008060aa8881548110611c8e57611c8e613576565b9060005260206000209060060201905060008511611ce65760405162461bcd60e51b81526020600482015260156024820152745f77616e74416d74206d757374206265203e20302160581b604482015260640161096f565b611cef88610f19565b91506000611cfd8888612750565b60058301548354919250611d1e916001600160a01b039081169116886127d8565b600060aa8a81548110611d3357611d33613576565b600091825260209091206006909102016005015460405163ba0bb4ab60e01b81526001600160a01b038481166004830152602482018a90529091169063ba0bb4ab906044016020604051808303816000875af1158015611d97573d6000803e3d6000fd5b505050506040513d601f19601f82011682018060405250810190611dbb9190613671565b90506000611dc88761147f565b90506000611dd6838361288a565b6004860154909150611de890826125a9565b6004860155611dfc8c858c84868d8d61289f565b8b8a604051611e0b91906136e7565b6040518091039020856001600160a01b03167fc6b1f1535b3bb3bdffa2f97a671ab7bd6f2512deec58103fa47eb40ed95274278c604051611e4e91815260200190565b60405180910390a450505050509695505050505050565b609954609754610bbc916001600160a01b0391821691168385611c07565b60408051808201909152600080825260208201526001600160a01b038616158015611eaf575060008551115b80611ecc57506001600160a01b03861615801590611ecc57508451155b611f185760405162461bcd60e51b815260206004820152601d60248201527f4f6e6c79206f6e65206163636f756e74207479706520616c6c6f776564000000604482015260640161096f565b6000611f268886888a612a4b565b9050600060aa8981548110611f3d57611f3d613576565b906000526020600020906006020190506000826000015111611fa15760405162461bcd60e51b815260206004820152601960248201527f7472616e6368652e636f6e747269627574696f6e206973203000000000000000604482015260640161096f565b6000816004015411611ff55760405162461bcd60e51b815260206004820152601e60248201527f746f74616c5472616e636865436f6e747269627574696f6e7320697320300000604482015260640161096f565b60a08201511561203e5760405162461bcd60e51b8152602060048201526014602482015273105b1c9958591e48195e1a5d1959081d985d5b1d60621b604482015260640161096f565b61204789610f19565b50600061207b836040015161207584600401546110208660030154886000015161255a90919063ffffffff16565b90612547565b90508015612127576000806120908584612bee565b9150915086156120dd576020860182905260a85460a75414156120ce5780156120c957609a546120c9906001600160a01b031682612c83565b612124565b80156120c9576120c981612d19565b81156120ed576120ed8b83612c83565b60a85460a75414156121155780156120c957609a546120c9906001600160a01b031682612c83565b80156121245761212481612d19565b50505b856123235760006121388a8a612750565b905060aa8b8154811061214d5761214d613576565b6000918252602091829020600560069092020101548551918601516001600160a01b039091169163e0ccabfa91849161218591612d50565b6040516001600160e01b031960e085901b1681526001600160a01b03909216600483015260248201526044016020604051808303816000875af11580156121d0573d6000803e3d6000fd5b505050506040513d601f19601f820116820180604052508101906121f49190613671565b508351600484015461220591612547565b60048481019190915583546040516370a0823160e01b815230928101929092526001600160a01b0316906370a0823190602401602060405180830381865afa158015612255573d6000803e3d6000fd5b505050506040513d601f19601f820116820180604052508101906122799190613671565b855260008b815260ab602090815260408083206001600160a01b0385168452909152902080544291908a9081106122b2576122b2613576565b9060005260206000209060060201600501819055508a896040516122d691906136e7565b6040805191829003822088518c84526020840152916001600160a01b038e16917fa7749cd42821d3b82a6814af6d80712b2e43f98ec1b25aee31c8351855de65d9910160405180910390a4505b5050509695505050505050565b6040516001600160a01b03831660248201526044810182905261236090849063a9059cbb60e01b90606401611c3b565b505050565b600080600060aa888154811061237d5761237d613576565b600091825260208220600560069092020101546001600160a01b031691506123a9898c8c8b8b8a611e83565b90506123e882826000015160aa8c815481106123c7576123c7613576565b60009182526020909120600690910201546001600160a01b031691906127d8565b8051604051631921e52960e21b81526004810191909152602481018790526001600160a01b0383169063648794a4906044016020604051808303816000875af1158015612439573d6000803e3d6000fd5b505050506040513d601f19601f8201168201806040525081019061245d9190613671565b935080602001519250505097509795505050505050565b600060aa888154811061248957612489613576565b600091825260208220600691909102016005015460405163e502a88d60e01b815260048101889052602481018590526001600160a01b039091169250829063e502a88d906044016020604051808303816000875af11580156124ef573d6000803e3d6000fd5b505050506040513d601f19601f820116820180604052508101906125139190613671565b905061252d828260aa8c815481106123c7576123c7613576565b61253b898989848989611c78565b50505050505050505050565b60006125538284613703565b9392505050565b6000612553828461371a565b60006125538284613739565b60a85460a75414156125965760405162461bcd60e51b815260040161096f906135ec565b60a5546125a390826125a9565b60a55550565b6000612553828461375b565b603380546001600160a01b038381166001600160a01b0319831681179093556040519116919082907f8be0079c531659141344cd1fd0a4f28419497f9722a3daafe3b4186f6b6457e090600090a35050565b60008161261657506000919050565b6003821161262657506001919050565b6000600261263584600161375b565b61263f9190613739565b90508291505b818110156126785790508060028161265d8186613739565b612667919061375b565b6126719190613739565b9050612645565b50919050565b60006126d3826040518060400160405280602081526020017f5361666545524332303a206c6f772d6c6576656c2063616c6c206661696c6564815250856001600160a01b0316612d659092919063ffffffff16565b80519091501561236057808060200190518101906126f19190613773565b6123605760405162461bcd60e51b815260206004820152602a60248201527f5361666545524332303a204552433230206f7065726174696f6e20646964206e6044820152691bdd081cdd58d8d9595960b21b606482015260840161096f565b816001600160a01b0381166111095760008251116127c55760405162461bcd60e51b815260206004820152602c60248201527f4e65697468657220666f726569676e2061636374206e6f72206c6f63616c206160448201526b18d8dd081c1c9bdd9a59195960a21b606482015260840161096f565b6127ce82613790565b60601c9392505050565b604051636eb1769f60e11b81523060048201526001600160a01b038381166024830152600091839186169063dd62ed3e90604401602060405180830381865afa158015612829573d6000803e3d6000fd5b505050506040513d601f19601f8201168201806040525081019061284d9190613671565b612857919061375b565b6040516001600160a01b038516602482015260448101829052909150611c7290859063095ea7b360e01b90606401611c3b565b600061255364e8d4a51000611020858561255a565b600060aa88815481106128b4576128b4613576565b600091825260208083206040805160c08082018352600690950290920180546001600160a01b03908116845260018201548486015260028201548484015260038201546060850190815260048301546080860190815260059093015490911660a0850152825195860183528b86529385018a905251925191955083019161293f91611020908b61255a565b815260208082018790526040808301879052600060609384018190528d815260ab83528181206001600160a01b038e1682528352818120805460018181018355918352918490208651600690930201918255928501519281019290925583015160028201559082015160038201556080820151600482015560a0820151600590910155875190915015612a40578760ac60008b8152602001908152602001600020886040516129ee91906136e7565b90815260200160405180910390206000612a0d60016120758e8e6110e5565b815260200190815260200160002060006101000a8154816001600160a01b0302191690836001600160a01b031602179055505b505050505050505050565b612a846040518060c001604052806000815260200160008152602001600081526020016000815260200160008152602001600081525090565b6001600160a01b03821615612b2357600085815260ab602090815260408083206001600160a01b03861684529091529020805485908110612ac757612ac7613576565b90600052602060002090600602016040518060c001604052908160008201548152602001600182015481526020016002820154815260200160038201548152602001600482015481526020016005820154815250509050612be6565b600085815260ac60205260408082209051612b3f9086906136e7565b908152604080516020928190038301902060008881529083528181205489825260ab84528282206001600160a01b0390911680835293522080549192509086908110612b8d57612b8d613576565b90600052602060002090600602016040518060c001604052908160008201548152602001600182015481526020016002820154815260200160038201548152602001600482015481526020016005820154815250509150505b949350505050565b60008060008311612c0457506000905080612c7c565b6000612c3842612c32612c2762093a80896060015161255a90919063ffffffff16565b608089015190612d74565b90612d80565b90506000811315612c76576060850151612c6390612c599062093a8061255a565b611020868461255a565b9150612c6f8483612547565b9250612c7a565b8392505b505b9250929050565b6097546040516370a0823160e01b815230600482015282916000916001600160a01b03909116906370a0823190602401602060405180830381865afa158015612cd0573d6000803e3d6000fd5b505050506040513d601f19601f82011682018060405250810190612cf49190613671565b905080831115612d02578091505b609754611c72906001600160a01b03168584612330565b60a85460a7541415612d3d5760405162461bcd60e51b815260040161096f906135ec565b60a654612d4a90826125a9565b60a65550565b6000612553826110208564e8d4a5100061255a565b6060612be68484600085612d8c565b600061255382846137cc565b6000612553828461380d565b606082471015612ded5760405162461bcd60e51b815260206004820152602660248201527f416464726573733a20696e73756666696369656e742062616c616e636520666f6044820152651c8818d85b1b60d21b606482015260840161096f565b6001600160a01b0385163b612e445760405162461bcd60e51b815260206004820152601d60248201527f416464726573733a2063616c6c20746f206e6f6e2d636f6e7472616374000000604482015260640161096f565b600080866001600160a01b03168587604051612e6091906136e7565b60006040518083038185875af1925050503d8060008114612e9d576040519150601f19603f3d011682016040523d82523d6000602084013e612ea2565b606091505b5091509150612eb2828286612ebd565b979650505050505050565b60608315612ecc575081612553565b825115612edc5782518084602001fd5b8160405162461bcd60e51b815260040161096f919061384c565b828054828255906000526020600020908101928215612f4b579160200282015b82811115612f4b57825182546001600160a01b0319166001600160a01b03909116178255602090920191600190910190612f16565b50612f57929150612f5b565b5090565b5b80821115612f575760008155600101612f5c565b600080600060608486031215612f8557600080fd5b505081359360208301359350604090920135919050565b80356001600160a01b03811681146114cb57600080fd5b60008060408385031215612fc657600080fd5b612fcf83612f9c565b9150612fdd60208401612f9c565b90509250929050565b600060208284031215612ff857600080fd5b5035919050565b6000806040838503121561301257600080fd5b82359150612fdd60208401612f9c565b634e487b7160e01b600052604160045260246000fd5b604051601f8201601f1916810167ffffffffffffffff8111828210171561306157613061613022565b604052919050565b600082601f83011261307a57600080fd5b813567ffffffffffffffff81111561309457613094613022565b6130a7601f8201601f1916602001613038565b8181528460208386010111156130bc57600080fd5b816020850160208301376000918101602001919091529392505050565b6000806000606084860312156130ee57600080fd5b83359250602084013567ffffffffffffffff81111561310c57600080fd5b61311886828701613069565b925050604084013590509250925092565b6000602080838503121561313c57600080fd5b823567ffffffffffffffff8082111561315457600080fd5b818501915085601f83011261316857600080fd5b81358181111561317a5761317a613022565b8060051b915061318b848301613038565b81815291830184019184810190888411156131a557600080fd5b938501935b838510156131ca576131bb85612f9c565b825293850193908501906131aa565b98975050505050505050565b8015158114611b0b57600080fd5b6000806000606084860312156131f957600080fd5b83359250602084013591506040840135613212816131d6565b809150509250925092565b60008060008060008060c0878903121561323657600080fd5b61323f87612f9c565b9550602087013567ffffffffffffffff81111561325b57600080fd5b61326789828a01613069565b95505060408701359350606087013592506080870135613286816131d6565b8092505060a087013590509295509295509295565b600080600080608085870312156132b157600080fd5b5050823594602084013594506040840135936060013592509050565b6000602082840312156132df57600080fd5b61255382612f9c565b6000806000606084860312156132fd57600080fd5b833592506020840135915061331460408501612f9c565b90509250925092565b600080600080600060a0868803121561333557600080fd5b505083359560208501359550604085013594606081013594506080013592509050565b60006020828403121561336a57600080fd5b8135612553816131d6565b6000806000806080858703121561338b57600080fd5b843593506020850135925060408501356133a4816131d6565b9396929550929360600135925050565b6000806000606084860312156133c957600080fd5b833592506133d960208501612f9c565b9150604084013590509250925092565b600080604083850312156133fc57600080fd5b50508035926020909101359150565b6000806040838503121561341e57600080fd5b61342783612f9c565b946020939093013593505050565b600080600080600080600060e0888a03121561345057600080fd5b8735965061346060208901612f9c565b9550604088013567ffffffffffffffff81111561347c57600080fd5b6134888a828b01613069565b979a96995096976060810135975060808101359660a0820135965060c090910135945092505050565b6000806000806000608086880312156134c957600080fd5b85359450602086013567ffffffffffffffff808211156134e857600080fd5b818801915088601f8301126134fc57600080fd5b81358181111561350b57600080fd5b8960208260051b850101111561352057600080fd5b9699602092909201985095966040810135965060600135945092505050565b6020808252601f908201527f5265656e7472616e637947756172643a207265656e7472616e742063616c6c00604082015260600190565b634e487b7160e01b600052603260045260246000fd5b6020808252818101527f4f776e61626c653a2063616c6c6572206973206e6f7420746865206f776e6572604082015260600190565b6020808252601190820152706f6e6c79205a6f72726f206f7261636c6560781b604082015260600190565b60208082526017908201527f466f72206e6f6e20686f6d6520636861696e206f6e6c79000000000000000000604082015260600190565b6020808252600b908201526a78636861696e206f6e6c7960a81b604082015260600190565b6020808252600f908201526e37b7363c903437b6b29031b430b4b760891b604082015260600190565b60006020828403121561368357600080fd5b5051919050565b634e487b7160e01b600052601160045260246000fd5b60006000198214156136b4576136b461368a565b5060010190565b60005b838110156136d65781810151838201526020016136be565b83811115611c725750506000910152565b600082516136f98184602087016136bb565b9190910192915050565b6000828210156137155761371561368a565b500390565b60008160001904831182151516156137345761373461368a565b500290565b60008261375657634e487b7160e01b600052601260045260246000fd5b500490565b6000821982111561376e5761376e61368a565b500190565b60006020828403121561378557600080fd5b8151612553816131d6565b805160208201516bffffffffffffffffffffffff1980821692919060148310156137c45780818460140360031b1b83161693505b505050919050565b600080821280156001600160ff1b03849003851316156137ee576137ee61368a565b600160ff1b83900384128116156138075761380761368a565b50500190565b60008083128015600160ff1b85018412161561382b5761382b61368a565b6001600160ff1b03840183138116156138465761384661368a565b50500390565b602081526000825180602084015261386b8160408501602087016136bb565b601f01601f1916919091016040019291505056fea26469706673582212203ede116591d4a215fd3cbdb4f87711b0094d66f3f195769e9bb277cae299ffce64736f6c634300080a0033",
  "immutableReferences": {},
  "source": "// SPDX-License-Identifier: MIT\n\npragma solidity ^0.8.0;\n\nimport \"./_ZorroControllerBase.sol\";\n\nimport \"../interfaces/IVault.sol\";\n\nimport \"@openzeppelin/contracts-upgradeable/token/ERC20/utils/SafeERC20Upgradeable.sol\";\n\nimport \"@openzeppelin/contracts-upgradeable/utils/math/SafeMathUpgradeable.sol\";\n\nimport \"@openzeppelin/contracts-upgradeable/utils/math/SignedSafeMathUpgradeable.sol\";\n\nimport \"../libraries/Math.sol\";\n\nimport \"../libraries/SafeSwap.sol\";\n\nimport \"../libraries/PriceFeed.sol\";\n\nimport \"../interfaces/IZorroController.sol\";\n\ncontract ZorroControllerInvestment is\n    IZorroControllerInvestment,\n    ZorroControllerBase\n{\n    /* Libraries */\n    using SafeERC20Upgradeable for IERC20Upgradeable;\n    using SafeMathUpgradeable for uint256;\n    using SignedSafeMathUpgradeable for int256;\n    using CustomMath for uint256;\n    using SafeSwapUni for IAMMRouter02;\n    using PriceFeed for AggregatorV3Interface;\n\n    /* Structs */\n    struct WithdrawalResult {\n        uint256 wantAmt; // Amount of Want token withdrawn\n        uint256 rewardsDueXChain; // ZOR rewards due to the origin (cross chain) user\n    }\n\n    /* State */\n\n    // Rewards\n    bool public isTimeMultiplierActive; // If true, allows use of time multiplier\n    // Zorro LP pool\n    address public zorroLPPool; // Main pool for Zorro liquidity\n    address public zorroLPPoolOtherToken; // For the dominant LP pool, the counterparty token to the ZOR token\n    // Swaps\n    address public uniRouterAddress; // Router contract address for adding/removing liquidity, etc.\n    address[] public USDCToZorroPath; // The path to swap USDC to ZOR\n    address[] public USDCToZorroLPPoolOtherTokenPath; // The router path from USDC to the primary Zorro LP pool, Token 0\n    // Oracles\n    AggregatorV3Interface public priceFeedZOR;\n    AggregatorV3Interface public priceFeedLPPoolOtherToken;\n    // Cross chain\n    address public zorroXChainEndpoint; // Cross chain controller contract\n\n    /* Modifiers */\n\n    /// @notice Only allow sender to be the cross chain controller contract\n    modifier onlyZorroXChain() {\n        require(_msgSender() == zorroXChainEndpoint, \"xchain only\");\n        _;\n    }\n\n    /* Setters */\n\n    /// @notice Setter: Set time multiplier\n    /// @param _isActive Whether it shall be active. If false, timemultiplier will be 1.\n    function setIsTimeMultiplierActive(bool _isActive) external onlyOwner {\n        isTimeMultiplierActive = _isActive;\n    }\n\n    /// @notice Setter: Zorro LP Pool params\n    /// @param _zorroLPPool Address of the Zorro-X LP pool\n    /// @param _zorroLPPoolOtherToken Address of the counterpart token to the ZOR token in the LP Pool\n    function setZorroLPPoolParams(\n        address _zorroLPPool,\n        address _zorroLPPoolOtherToken\n    ) external onlyOwner {\n        zorroLPPool = _zorroLPPool;\n        zorroLPPoolOtherToken = _zorroLPPoolOtherToken;\n    }\n\n    /// @notice Setter: Uniswap-compatible router address\n    /// @param _uniV2Router Address of router\n    function setUniRouter(address _uniV2Router) external onlyOwner {\n        uniRouterAddress = _uniV2Router;\n    }\n\n    /// @notice Setter: Set path for token swap from USDC to ZOR\n    /// @param _path Swap path\n    function setUSDCToZORPath(address[] memory _path) external onlyOwner {\n        USDCToZorroPath = _path;\n    }\n\n    /// @notice Setter: Set path for token swap from USDC to counterparty token in ZOR LP pool\n    /// @param _path Swap path\n    function setUSDCToZorroLPPoolOtherTokenPath(address[] memory _path)\n        external\n        onlyOwner\n    {\n        USDCToZorroLPPoolOtherTokenPath = _path;\n    }\n\n    /// @notice Setter: Chainlink price feeds\n    /// @param _priceFeedZOR The address of the price feed for ZOR\n    /// @param _priceFeedLPPoolOtherToken The address of the price feed for the counterparty token in the ZOR LP Pool\n    function setPriceFeeds(\n        address _priceFeedZOR,\n        address _priceFeedLPPoolOtherToken\n    ) external onlyOwner {\n        priceFeedZOR = AggregatorV3Interface(_priceFeedZOR);\n        priceFeedLPPoolOtherToken = AggregatorV3Interface(\n            _priceFeedLPPoolOtherToken\n        );\n    }\n\n    /// @notice Setter: Cross chain endpoint\n    /// @param _contract Contract address of endpoint\n    function setZorroXChainEndpoint(address _contract) external onlyOwner {\n        zorroXChainEndpoint = _contract;\n    }\n\n    /* Events */\n\n    event Deposit(\n        address indexed account,\n        bytes indexed foreignAccount,\n        uint256 indexed pid,\n        uint256 wantAmount\n    );\n\n    event Withdraw(\n        address indexed account,\n        bytes indexed foreignAccount,\n        uint256 indexed pid,\n        uint256 trancheId,\n        uint256 wantAmount\n    );\n    event TransferInvestment(\n        address account,\n        uint256 indexed fromPid,\n        uint256 indexed fromTrancheId,\n        uint256 indexed toPid\n    );\n\n    /* Cash flow */\n\n    /// @notice Deposit Want tokens to associated Vault\n    /// @param _pid index of pool\n    /// @param _wantAmt how much Want token to deposit\n    /// @param _weeksCommitted how many weeks the user is committing to on this vault\n    function deposit(\n        uint256 _pid,\n        uint256 _wantAmt,\n        uint256 _weeksCommitted\n    ) public nonReentrant {\n        // Get pool info\n        PoolInfo storage pool = poolInfo[_pid];\n\n        // Transfer the Want token from the user to the this contract\n        IERC20Upgradeable(pool.want).safeTransferFrom(\n            msg.sender,\n            address(this),\n            _wantAmt\n        );\n\n        // Call core deposit function\n        _deposit(\n            _pid,\n            msg.sender,\n            \"\",\n            _wantAmt,\n            _weeksCommitted,\n            block.timestamp\n        );\n    }\n\n    /// @notice Deposits tokens into Vault, updates poolInfo and trancheInfo ledgers\n    /// @dev Because the vault entry date can be backdated, this is a dangerous method and should only be accessed indirectly through other functions\n    /// @param _pid index of pool\n    /// @param _account address of on-chain user (required for onchain, optional for cross-chain)\n    /// @param _foreignAccount address of origin chain user (for cross chain transactions it's required)\n    /// @param _wantAmt how much Want token to deposit (must already be sent to the vault)\n    /// @param _weeksCommitted how many weeks the user is committing to on this vault\n    /// @param _enteredVaultAt Date to backdate vault entry to\n    /// @return _mintedZORRewards Amount of ZOR rewards minted\n    function _deposit(\n        uint256 _pid,\n        address _account,\n        bytes memory _foreignAccount,\n        uint256 _wantAmt,\n        uint256 _weeksCommitted,\n        uint256 _enteredVaultAt\n    ) internal returns (uint256 _mintedZORRewards) {\n        // Get pool info\n        PoolInfo storage pool = poolInfo[_pid];\n\n        // Preflight checks\n        require(_wantAmt > 0, \"_wantAmt must be > 0!\");\n\n        // Update the pool before anything to ensure rewards have been updated and transferred\n        _mintedZORRewards = updatePool(_pid);\n\n        // Get local chain account, as applicable\n        address _localAccount = _getLocalAccount(_account, _foreignAccount);\n\n        // Allowance\n        IERC20Upgradeable(pool.want).safeIncreaseAllowance(\n            pool.vault,\n            _wantAmt\n        );\n\n        // Perform the actual deposit function on the underlying Vault contract and get the number of shares to add\n        uint256 sharesAdded = IVault(poolInfo[_pid].vault).depositWantToken(\n            _localAccount,\n            _wantAmt\n        );\n\n        // Determine time multiplier value.\n        uint256 _timeMultiplier = getTimeMultiplier(_weeksCommitted);\n\n        // Determine the individual user contribution based on the quantity of tokens to stake and the time multiplier\n        uint256 _contributionAdded = _getUserContribution(\n            sharesAdded,\n            _timeMultiplier\n        );\n\n        // Update pool info: Increment the pool's total contributions by the contribution added\n        pool.totalTrancheContributions = pool.totalTrancheContributions.add(\n            _contributionAdded\n        );\n\n        // Create tranche\n        _createTranche(\n            _pid,\n            _localAccount,\n            _foreignAccount,\n            _contributionAdded,\n            _timeMultiplier,\n            _weeksCommitted,\n            _enteredVaultAt\n        );\n\n        // Emit deposit event\n        emit Deposit(_localAccount, _foreignAccount, _pid, _wantAmt);\n    }\n\n    // TODO: test\n    function _getLocalAccount(address _account, bytes memory _foreignAccount)\n        private\n        pure\n        returns (address localAccount)\n    {\n        // Default to provided address if applicable\n        localAccount = _account;\n\n        // Otherwise try to extract from foreign account\n        if (_account == address(0)) {\n            // Foreign account MUST be provided\n            require(\n                _foreignAccount.length > 0,\n                \"Neither foreign acct nor local acct provided\"\n            );\n            // If no local account provided, truncate foreign chain address to 20-bytes\n            localAccount = address(bytes20(_foreignAccount));\n        }\n    }\n\n    // TODO: test, and docstrings need to be updated\n    /// @notice Internal function for updating tranche ledger upon deposit\n    /// @param _pid Index of pool\n    /// @param _localAccount On-chain address\n    /// @param _foreignAccount Cross-chain address, if applicable\n    /// @param _timeMultiplier Time multiplier factor for rewards\n    /// @param _durationCommittedInWeeks Commitment in weeks for time multiplier\n    /// @param _enteredVaultAt Timestamp at which entered vault\n    function _createTranche(\n        uint256 _pid,\n        address _localAccount,\n        bytes memory _foreignAccount,\n        uint256 _contributionAdded,\n        uint256 _timeMultiplier,\n        uint256 _durationCommittedInWeeks,\n        uint256 _enteredVaultAt\n    ) internal {\n        // Get pool\n        PoolInfo memory pool = poolInfo[_pid];\n\n        // Create tranche info\n        TrancheInfo memory _trancheInfo = TrancheInfo({\n            contribution: _contributionAdded, // Contribution including time multiplier\n            timeMultiplier: _timeMultiplier,\n            rewardDebt: pool.accZORRORewards.mul(_contributionAdded).div(\n                pool.totalTrancheContributions\n            ), // Pro-rata share of accumulated pool rewards, time-commitment weighted\n            durationCommittedInWeeks: _durationCommittedInWeeks,\n            enteredVaultAt: _enteredVaultAt,\n            exitedVaultAt: 0\n        });\n\n        // Push a new tranche for this on-chain user\n        trancheInfo[_pid][_localAccount].push(_trancheInfo);\n\n        // If foreign account provided, write the tranche info to the foreign account ledger as well\n        if (_foreignAccount.length > 0) {\n            foreignTrancheInfo[_pid][_foreignAccount][\n                trancheLength(_pid, _localAccount).sub(1)\n            ] = _localAccount;\n        }\n    }\n\n    /// @notice Deposits funds in a full service manner (performs autoswaps and obtains Want tokens)\n    /// @param _pid index of pool to deposit into\n    /// @param _valueUSDC value in USDC (in ether units) to deposit\n    /// @param _weeksCommitted how many weeks to commit to the Pool (can be 0 or any uint)\n    /// @param _maxMarketMovement factor to account for max market movement/slippage. The definition varies by Vault, so consult the associated Vault contract for info\n    function depositFullService(\n        uint256 _pid,\n        uint256 _valueUSDC,\n        uint256 _weeksCommitted,\n        uint256 _maxMarketMovement\n    ) public nonReentrant {\n        // Get Pool, Vault contract\n        address vaultAddr = poolInfo[_pid].vault;\n\n        // Safe transfer to Vault contract\n        IERC20Upgradeable(defaultStablecoin).safeTransferFrom(\n            msg.sender,\n            vaultAddr,\n            _valueUSDC\n        );\n\n        // Run core full deposit\n        _depositFullService(\n            _pid,\n            msg.sender,\n            \"\",\n            _valueUSDC,\n            _weeksCommitted,\n            block.timestamp,\n            _maxMarketMovement\n        );\n    }\n\n    /// @notice Full service deposit function to be called by ZorroControllerXChain only.\n    /// @param _pid index of pool to deposit into\n    /// @param _account address of user on-chain\n    /// @param _foreignAccount the cross chain wallet that initiated this call, if applicable.\n    /// @param _valueUSDC value in USDC (in ether units) to deposit\n    /// @param _weeksCommitted how many weeks to commit to the Pool (can be 0 or any uint)\n    /// @param _vaultEnteredAt date that the vault was entered at\n    /// @param _maxMarketMovement factor to account for max market movement/slippage. The definition varies by Vault, so consult the associated Vault contract for info\n    function depositFullServiceFromXChain(\n        uint256 _pid,\n        address _account,\n        bytes memory _foreignAccount,\n        uint256 _valueUSDC,\n        uint256 _weeksCommitted,\n        uint256 _vaultEnteredAt,\n        uint256 _maxMarketMovement\n    ) public onlyZorroXChain {\n        // Get Pool, Vault contract\n        address vaultAddr = poolInfo[_pid].vault;\n\n        // Safe transfer to Vault contract\n        IERC20Upgradeable(defaultStablecoin).safeTransferFrom(\n            msg.sender,\n            vaultAddr,\n            _valueUSDC\n        );\n\n        // Make deposit full service call\n        _depositFullService(\n            _pid,\n            _account,\n            _foreignAccount,\n            _valueUSDC,\n            _weeksCommitted,\n            _vaultEnteredAt,\n            _maxMarketMovement\n        );\n    }\n\n    /// @notice Private function for depositing\n    /// @dev Dangerous method, as vaultEnteredAt can be backdated\n    /// @param _pid index of pool to deposit into\n    /// @param _account address of user on-chain\n    /// @param _foreignAccount the cross chain wallet that initiated this call, if applicable.\n    /// @param _valueUSDC value in USDC (in ether units) to deposit\n    /// @param _weeksCommitted how many weeks to commit to the Pool (can be 0 or any uint)\n    /// @param _vaultEnteredAt date that the vault was entered at\n    /// @param _maxMarketMovement factor to account for max market movement/slippage. The definition varies by Vault, so consult the associated Vault contract for info\n    function _depositFullService(\n        uint256 _pid,\n        address _account,\n        bytes memory _foreignAccount,\n        uint256 _valueUSDC,\n        uint256 _weeksCommitted,\n        uint256 _vaultEnteredAt,\n        uint256 _maxMarketMovement\n    ) internal {\n        // Get Pool, Vault contract\n        address vaultAddr = poolInfo[_pid].vault;\n\n        // Exchange USDC for Want token in the Vault contract\n        uint256 _wantAmt = IVault(vaultAddr).exchangeUSDForWantToken(\n            _valueUSDC,\n            _maxMarketMovement\n        );\n\n        // Safe increase allowance and xfer Want to vault contract\n        IERC20Upgradeable(poolInfo[_pid].want).safeIncreaseAllowance(\n            vaultAddr,\n            _wantAmt\n        );\n\n        // Make deposit\n        // Call core deposit function\n        _deposit(\n            _pid,\n            _account,\n            _foreignAccount,\n            _wantAmt,\n            _weeksCommitted,\n            _vaultEnteredAt\n        );\n    }\n\n    /// @notice Fully withdraw Want tokens from underlying Vault.\n    /// @param _pid index of pool\n    /// @param _trancheId index of tranche\n    /// @param _harvestOnly If true, will only harvest Zorro tokens but not do a withdrawal\n    /// @return Amount of Want token withdrawn\n    function withdraw(\n        uint256 _pid,\n        uint256 _trancheId,\n        bool _harvestOnly\n    ) public nonReentrant returns (uint256) {\n        // Withdraw Want token\n        WithdrawalResult memory _res = _withdraw(\n            _pid,\n            msg.sender,\n            \"\",\n            _trancheId,\n            _harvestOnly,\n            false\n        );\n\n        // Transfer to user and return Want amount\n        IERC20Upgradeable(poolInfo[_pid].want).safeTransfer(\n            msg.sender,\n            _res.wantAmt\n        );\n\n        return _res.wantAmt;\n    }\n\n    /// @notice Internal function for withdrawing Want tokens from underlying Vault.\n    /// @dev Can only specify one of _localAccount, _foreignAccount\n    /// @param _pid index of pool\n    /// @param _localAccount Address of the on-chain account that the investment was made with\n    /// @param _foreignAccount Address of the foreign chain account that this inviestment was made with\n    /// @param _trancheId index of tranche\n    /// @param _harvestOnly If true, will only harvest Zorro tokens but not do a withdrawal\n    /// @param _xChainRepatriation Intended for repatriation to another chain\n    /// @return _res A WithdrawalResult struct containing relevant withdrawal result parameters\n    function _withdraw(\n        uint256 _pid,\n        address _localAccount,\n        bytes memory _foreignAccount,\n        uint256 _trancheId,\n        bool _harvestOnly,\n        bool _xChainRepatriation\n    ) internal returns (WithdrawalResult memory _res) {\n        // TODO: Consider making WithdrwalResult an event instead?\n        // Can only specify one account (on-chain/foreign, but not both)\n        require(\n            (_localAccount == address(0) && _foreignAccount.length > 0) ||\n                (_localAccount != address(0) && _foreignAccount.length == 0),\n            \"Only one account type allowed\"\n        );\n        // Determine account type and associated values\n        TrancheInfo memory _tranche = _getTranche(\n            _pid,\n            _trancheId,\n            _foreignAccount,\n            _localAccount\n        );\n\n        // Get pool and current tranche info\n        PoolInfo storage _pool = poolInfo[_pid];\n\n        // Require non-zero tranche contribution\n        require(_tranche.contribution > 0, \"tranche.contribution is 0\");\n        // Require non-zero overall tranche contribution\n        require(\n            _pool.totalTrancheContributions > 0,\n            \"totalTrancheContributions is 0\"\n        );\n        // Require that tranche has not yet been exited\n        require(_tranche.exitedVaultAt == 0, \"Already exited vault\");\n\n        // Update the pool before anything to ensure rewards have been updated and transferred\n        updatePool(_pid);\n\n        // Get pending rewards\n        uint256 _pendingRewards = (\n            _tranche.contribution.mul(_pool.accZORRORewards).div(\n                _pool.totalTrancheContributions\n            )\n        ).sub(_tranche.rewardDebt);\n\n        // Withdraw pending ZORRO rewards (a.k.a. \"Harvest\")\n        if (_pendingRewards > 0) {\n            // If pending rewards payable, pay them out\n            (uint256 _rewardsDue, uint256 _slashedRewards) = _getAdjustedRewards(\n                _tranche,\n                _pendingRewards\n            );\n\n            if (_xChainRepatriation) {\n                // Update rewardsDueXChain\n                _res.rewardsDueXChain = _rewardsDue;\n\n                if (chainId == homeChainId) {\n                    // If repatriating AND on home chain\n\n                    // Transfer any slashed rewards to single Zorro staking vault, if applicable\n                    if (_slashedRewards > 0) {\n                        // Transfer slashed rewards to vault to reward ZORRO stakers\n                        _safeZORROTransfer(zorroStakingVault, _slashedRewards);\n                    }\n                } else {\n                    // If repatriating and NOT on home chain,\n\n                    // Record slashed rewards for Oracle to pick up and burn the corresponding amount on the home chain\n                    if (_slashedRewards > 0) {\n                        _recordSlashedRewards(_slashedRewards);\n                    }\n                }\n            } else {\n                // Transfer ZORRO rewards to user, net of any applicable slashing\n                if (_rewardsDue > 0) {\n                    _safeZORROTransfer(_localAccount, _rewardsDue);\n                }\n\n                if (chainId == homeChainId) {\n                    // If NOT repatriating AND on home chain\n\n                    // Transfer any slashed rewards to single Zorro staking vault, if applicable\n                    if (_slashedRewards > 0) {\n                        // Transfer slashed rewards to vault to reward ZORRO stakers\n                        _safeZORROTransfer(zorroStakingVault, _slashedRewards);\n                    }\n                } else {\n                    // If NOT repatriating and NOT on home chain\n\n                    // Record slashed rewards for Oracle to pick up and burn the corresponding amount on the home chain\n                    if (_slashedRewards > 0) {\n                        _recordSlashedRewards(_slashedRewards);\n                    }\n                }\n            }\n        }\n\n        // If not just harvesting (withdrawing too), proceed with below\n        if (!_harvestOnly) {\n            // Perform the actual withdrawal function on the underlying Vault contract and get the number of shares to remove\n\n            // Get local (on-chain) account\n            address _resolvedLocalAcct = _getLocalAccount(\n                _localAccount,\n                _foreignAccount\n            );\n\n            // Withdraw the want token for this account\n            IVault(poolInfo[_pid].vault).withdrawWantToken(\n                _resolvedLocalAcct,\n                _getOrigSharesDeposited(_tranche.contribution, _tranche.timeMultiplier)\n            );\n\n            // Update shares safely\n            _pool.totalTrancheContributions = _pool\n                .totalTrancheContributions\n                .sub(_tranche.contribution);\n\n            // Calculate Want token balance\n            _res.wantAmt = IERC20Upgradeable(_pool.want).balanceOf(\n                address(this)\n            );\n\n            // Mark tranche as exited\n            trancheInfo[_pid][_resolvedLocalAcct][_trancheId]\n                .exitedVaultAt = block.timestamp;\n\n            // Emit withdrawal event and return want balance\n            emit Withdraw(\n                _localAccount,\n                _foreignAccount,\n                _pid,\n                _trancheId,\n                _res.wantAmt\n            );\n        }\n    }\n\n    /// @notice Get tranche based on tranche ID and account information\n    /// @dev Takes into account potential cross chain identities\n    /// @param _pid Pool ID\n    /// @param _trancheId Tranche ID\n    /// @param _foreignAccount Identity of the foreign account that the tranche might be associated with\n    /// @param _localAccount Identity of the account on the local chain that the tranche might be associated with\n    /// @return _tranche TrancheInfo object for the tranche found\n    function _getTranche(\n        uint256 _pid,\n        uint256 _trancheId,\n        bytes memory _foreignAccount,\n        address _localAccount\n    ) internal view returns (TrancheInfo memory _tranche) {\n        if (_localAccount != address(0)) {\n            // On-chain withdrawal\n            _tranche = trancheInfo[_pid][_localAccount][_trancheId];\n        } else {\n            // Cross-chain withdrawal\n            address _ftLocalAcct = foreignTrancheInfo[_pid][_foreignAccount][\n                _trancheId\n            ];\n            _tranche = trancheInfo[_pid][_ftLocalAcct][_trancheId];\n        }\n    }\n\n    /// @notice Splits rewards into rewards due and slashed rewards (if early withdrawal)\n    /// @param _tranche TrancheInfo object\n    /// @param _pendingRewards Qty of ZOR tokens as pending rewards\n    /// @return _rewardsDue The amount of ZOR rewards payable\n    /// @return _slashedRewards The amount of ZOR rewards slashed due to early withdrawals\n    function _getAdjustedRewards(\n        TrancheInfo memory _tranche,\n        uint256 _pendingRewards\n    ) internal view returns (uint256 _rewardsDue, uint256 _slashedRewards) {\n        // Only process rewards > 0\n        if (_pendingRewards <= 0) {\n            return (0, 0);\n        }\n        // Check if this is an early withdrawal\n        // If so, slash the accumulated rewards proportionally to the % time remaining before maturity of the time commitment\n        // If not, distribute rewards as normal\n        int256 _timeRemainingInCommitment = int256(_tranche.enteredVaultAt)\n            .add(int256(_tranche.durationCommittedInWeeks.mul(1 weeks)))\n            .sub(int256(block.timestamp));\n        if (_timeRemainingInCommitment > 0) {\n            _slashedRewards = _pendingRewards\n                .mul(uint256(_timeRemainingInCommitment))\n                .div(_tranche.durationCommittedInWeeks.mul(1 weeks));\n            _rewardsDue = _pendingRewards.sub(_slashedRewards);\n        } else {\n            _rewardsDue = _pendingRewards;\n        }\n    }\n\n    /// @notice Withdraws funds from a pool and converts the Want token into USDC\n    /// @param _pid index of pool to deposit into\n    /// @param _trancheId index of tranche\n    /// @param _harvestOnly If true, will only harvest Zorro tokens but not do a withdrawal\n    /// @param _maxMarketMovement factor to account for max market movement/slippage. The definition varies by Vault, so consult the associated Vault contract for info\n    /// @return Amount (in USDC) returned\n    function withdrawalFullService(\n        uint256 _pid,\n        uint256 _trancheId,\n        bool _harvestOnly,\n        uint256 _maxMarketMovement\n    ) public nonReentrant returns (uint256) {\n        // Withdraw Want token\n        (uint256 _amountUSDC, ) = _withdrawalFullService(\n            msg.sender,\n            \"\",\n            _pid,\n            _trancheId,\n            _harvestOnly,\n            _maxMarketMovement,\n            false\n        );\n\n        // Send USDC funds back to sender\n        IERC20Upgradeable(defaultStablecoin).safeTransfer(\n            msg.sender,\n            _amountUSDC\n        );\n\n        return _amountUSDC;\n    }\n\n    /// @notice Full service withdrawal to be called from authorized cross chain endpoint\n    /// @param _account address of wallet on-chain\n    /// @param _foreignAccount address of wallet cross-chain (that originally made this deposit)\n    /// @param _pid index of pool to deposit into\n    /// @param _trancheId index of tranche\n    /// @param _harvestOnly If true, will only harvest Zorro tokens but not do a withdrawal\n    /// @param _maxMarketMovement factor to account for max market movement/slippage. The definition varies by Vault, so consult the associated Vault contract for info\n    /// @return _amountUSDC Amount of USDC withdrawn\n    /// @return _rewardsDueXChain Amount of ZOR rewards due to the origin (cross chain) user\n    function withdrawalFullServiceFromXChain(\n        address _account,\n        bytes memory _foreignAccount,\n        uint256 _pid,\n        uint256 _trancheId,\n        bool _harvestOnly,\n        uint256 _maxMarketMovement\n    )\n        public\n        onlyZorroXChain\n        returns (uint256 _amountUSDC, uint256 _rewardsDueXChain)\n    {\n        // Call withdrawal function on chain\n        (_amountUSDC, _rewardsDueXChain) = _withdrawalFullService(\n            _account,\n            _foreignAccount,\n            _pid,\n            _trancheId,\n            _harvestOnly,\n            _maxMarketMovement,\n            true\n        );\n\n        // Transfer USDC balance obtained to caller\n        if (_amountUSDC > 0) {\n            IERC20Upgradeable(defaultStablecoin).safeTransfer(\n                msg.sender,\n                _amountUSDC\n            );\n        }\n\n        // Burn xchain ZOR rewards due before repatriating, if applicable. (They will be minted on opposite chain)\n        if (_rewardsDueXChain > 0) {\n            IERC20Upgradeable(ZORRO).safeTransfer(burnAddress, _rewardsDueXChain);\n        }\n    }\n\n    /// @notice Private function for withdrawing funds from a pool and converting the Want token into USDC\n    /// @param _account address of wallet on-chain\n    /// @param _foreignAccount address of wallet cross-chain (that originally made this deposit)\n    /// @param _pid index of pool to deposit into\n    /// @param _trancheId index of tranche\n    /// @param _harvestOnly If true, will only harvest Zorro tokens but not do a withdrawal\n    /// @param _maxMarketMovement factor to account for max market movement/slippage. The definition varies by Vault, so consult the associated Vault contract for info\n    /// @param _xChainRepatriation Intended for repatriation to another chain\n    /// @return _amountUSDC Amount of USDC withdrawn\n    /// @return _rewardsDueXChain Amount of ZOR rewards due to the origin (cross chain) user\n    function _withdrawalFullService(\n        address _account,\n        bytes memory _foreignAccount,\n        uint256 _pid,\n        uint256 _trancheId,\n        bool _harvestOnly,\n        uint256 _maxMarketMovement,\n        bool _xChainRepatriation\n    ) internal returns (uint256 _amountUSDC, uint256 _rewardsDueXChain) {\n        // Get Vault contract\n        address _vaultAddr = poolInfo[_pid].vault;\n\n        // Call core withdrawal function (returns actual amount withdrawn)\n        WithdrawalResult memory _res = _withdraw(\n            _pid,\n            _account,\n            _foreignAccount,\n            _trancheId,\n            _harvestOnly,\n            _xChainRepatriation\n        );\n\n        // Safe increase spending of Vault contract for Want token\n        IERC20Upgradeable(poolInfo[_pid].want).safeIncreaseAllowance(\n            _vaultAddr,\n            _res.wantAmt\n        );\n\n        // Exchange Want for USD\n        _amountUSDC = IVault(_vaultAddr).exchangeWantTokenForUSD(\n            _res.wantAmt,\n            _maxMarketMovement\n        );\n\n        _rewardsDueXChain = _res.rewardsDueXChain;\n    }\n\n    /// @notice Transfer all assets from a tranche in one vault to a new vault (works on-chain only)\n    /// @param _fromPid index of pool FROM\n    /// @param _fromTrancheId index of tranche FROM\n    /// @param _toPid index of pool TO\n    /// @param _maxMarketMovement factor to account for max market movement/slippage. The definition varies by Vault, so consult the associated Vault contract for info\n    function transferInvestment(\n        uint256 _fromPid,\n        uint256 _fromTrancheId,\n        uint256 _toPid,\n        uint256 _maxMarketMovement\n    ) public nonReentrant {\n        // Get weeks committed and entered at\n        uint256 weeksCommitted = trancheInfo[_fromPid][msg.sender][\n            _fromTrancheId\n        ].durationCommittedInWeeks;\n        uint256 enteredVaultAt = trancheInfo[_fromPid][msg.sender][\n            _fromTrancheId\n        ].enteredVaultAt;\n\n        // Withdraw\n        (uint256 withdrawnUSDC, ) = _withdrawalFullService(\n            msg.sender,\n            \"\",\n            _fromPid,\n            _fromTrancheId,\n            false,\n            _maxMarketMovement,\n            false\n        );\n\n        // Transfer funds to vault\n        IERC20Upgradeable(defaultStablecoin).safeTransfer(\n            poolInfo[_toPid].vault,\n            withdrawnUSDC\n        );\n\n        // Redeposit\n        _depositFullService(\n            _toPid,\n            msg.sender,\n            \"\",\n            withdrawnUSDC,\n            weeksCommitted,\n            enteredVaultAt,\n            _maxMarketMovement\n        );\n\n        emit TransferInvestment(msg.sender, _fromPid, _fromTrancheId, _toPid);\n    }\n\n    /// @notice Withdraw the maximum number of Want tokens from a pool\n    /// @param _pid index of pool\n    function withdrawAll(uint256 _pid) public nonReentrant {\n        // Iterate through all tranches for the current user and pool and withdraw\n        uint256 numTranches = trancheLength(_pid, msg.sender);\n        for (uint256 tid = 0; tid < numTranches; ++tid) {\n            _withdraw(_pid, msg.sender, \"\", tid, false, false);\n        }\n\n        // Transfer balance as applicable\n        uint256 _wantBal = IERC20Upgradeable(poolInfo[_pid].want).balanceOf(\n            address(this)\n        );\n        if (_wantBal > 0) {\n            IERC20Upgradeable(poolInfo[_pid].want).safeTransfer(\n                msg.sender,\n                _wantBal\n            );\n        }\n    }\n\n    /* X-chain rewards management */\n\n    /// @notice Gets rewards and sends to the recipient of a cross chain withdrawal\n    /// @param _rewardsDue The amount of rewards that need to be fetched and sent to the wallet\n    /// @param _destination Wallet to send funds to\n    function repatriateRewards(uint256 _rewardsDue, address _destination)\n        public\n        onlyZorroXChain\n    {\n        // Get rewards based on chain type\n        if (chainId == homeChainId) {\n            // On Home chain. Fetch rewards from public pool and send to wallet\n            _fetchFundsFromPublicPool(_rewardsDue, _destination);\n        } else {\n            // On other chain. Mint ZORRO tokens and send to wallet\n            IZorro(ZORRO).mint(_destination, _rewardsDue);\n        }\n    }\n\n    /// @notice Called by oracle to account for ZOR rewards that were minted or slashed on other chains\n    /// @dev Caller should call \"reset\" functions so that rewards aren't double-burned/allocated\n    /// @param _totalMinted Total ZOR rewards minted across other chains at this moment\n    /// @param _totalSlashed Total ZOR rewards slashed across other chains at this moment\n    function handleAccXChainRewards(uint256 _totalMinted, uint256 _totalSlashed)\n        public\n        onlyAllowZorroControllerOracle\n        onlyHomeChain\n    {\n        // Burn shares that were minted on other chains so that\n        // the total tokens minted across all chains is constant\n        IERC20Upgradeable(ZORRO).safeTransfer(\n            burnAddress,\n            _totalMinted.sub(_totalSlashed)\n        );\n\n        // Transfer slashed rewards from public pool to ZOR staking vault\n        _fetchFundsFromPublicPool(_totalSlashed, zorroStakingVault);\n    }\n\n    /* Allocations */\n\n    /// @notice Calculate time multiplier based on duration committed\n    /// @dev For Zorro staking vault, returns 1e12 no matter what\n    /// @param durationInWeeks number of weeks committed into Vault\n    /// @return timeMultiplier Time multiplier factor, times 1e12\n    function getTimeMultiplier(uint256 durationInWeeks)\n        public\n        view\n        returns (uint256 timeMultiplier)\n    {\n        timeMultiplier = 1e12;\n\n        if (isTimeMultiplierActive) {\n            // Use sqrt(x * 10000)/100 to get better float point accuracy (see tests)\n            timeMultiplier = ((durationInWeeks.mul(1e4)).sqrt())\n                .mul(1e12)\n                .mul(2)\n                .div(1000)\n                .add(1e12);\n        }\n    }\n\n    /// @notice The contribution of the user, meant to be used in rewards allocations\n    /// @param _liquidityCommitted How many tokens staked (e.g. LP tokens)\n    /// @param _timeMultiplier Time multiplier value (from getTimeMultiplier())\n    /// @return uint256 The relative contribution of the user (unitless)\n    function _getUserContribution(\n        uint256 _liquidityCommitted,\n        uint256 _timeMultiplier\n    ) internal pure returns (uint256) {\n        return _liquidityCommitted.mul(_timeMultiplier).div(1e12);\n    }\n\n    /// @notice Extracts the original shares deposited by user, accounting for the time multiplier\n    /// @param _contribution The tranche contribution\n    /// @param _timeMultiplier The time multiplier factor (including 1e12 factor)\n    function _getOrigSharesDeposited(\n        uint256 _contribution,\n        uint256 _timeMultiplier\n    ) internal pure returns (uint256) {\n        return _contribution.mul(1e12).div(_timeMultiplier);\n    }\n}\n",
  "sourcePath": "/Users/kristophm/Documents/workspace/zorro-protocol/contracts/controllers/_ZorroControllerInvestment.sol",
  "compiler": {
    "name": "solc",
    "version": "0.8.10+commit.fc410830.Emscripten.clang"
  },
  "schemaVersion": "3.4.4",
  "updatedAt": "2022-06-17T15:16:30.124Z",
  "devdoc": {
    "kind": "dev",
    "methods": {
      "deposit(uint256,uint256,uint256)": {
        "params": {
          "_pid": "index of pool",
          "_wantAmt": "how much Want token to deposit",
          "_weeksCommitted": "how many weeks the user is committing to on this vault"
        }
      },
      "depositFullService(uint256,uint256,uint256,uint256)": {
        "params": {
          "_maxMarketMovement": "factor to account for max market movement/slippage. The definition varies by Vault, so consult the associated Vault contract for info",
          "_pid": "index of pool to deposit into",
          "_valueUSDC": "value in USDC (in ether units) to deposit",
          "_weeksCommitted": "how many weeks to commit to the Pool (can be 0 or any uint)"
        }
      },
      "depositFullServiceFromXChain(uint256,address,bytes,uint256,uint256,uint256,uint256)": {
        "params": {
          "_account": "address of user on-chain",
          "_foreignAccount": "the cross chain wallet that initiated this call, if applicable.",
          "_maxMarketMovement": "factor to account for max market movement/slippage. The definition varies by Vault, so consult the associated Vault contract for info",
          "_pid": "index of pool to deposit into",
          "_valueUSDC": "value in USDC (in ether units) to deposit",
          "_vaultEnteredAt": "date that the vault was entered at",
          "_weeksCommitted": "how many weeks to commit to the Pool (can be 0 or any uint)"
        }
      },
      "getTimeMultiplier(uint256)": {
        "details": "For Zorro staking vault, returns 1e12 no matter what",
        "params": {
          "durationInWeeks": "number of weeks committed into Vault"
        },
        "returns": {
          "timeMultiplier": "Time multiplier factor, times 1e12"
        }
      },
      "handleAccXChainRewards(uint256,uint256)": {
        "details": "Caller should call \"reset\" functions so that rewards aren't double-burned/allocated",
        "params": {
          "_totalMinted": "Total ZOR rewards minted across other chains at this moment",
          "_totalSlashed": "Total ZOR rewards slashed across other chains at this moment"
        }
      },
      "inCaseTokensGetStuck(address,uint256)": {
        "details": "Does not permit usage for the Zorro token",
        "params": {
          "_amount": "token quantity",
          "_token": "ERC20 token address"
        }
      },
      "owner()": {
        "details": "Returns the address of the current owner."
      },
      "poolLength()": {
        "returns": {
          "_0": "Number of pools"
        }
      },
      "renounceOwnership()": {
        "details": "Leaves the contract without owner. It will not be possible to call `onlyOwner` functions anymore. Can only be called by the current owner. NOTE: Renouncing ownership will leave the contract without an owner, thereby removing any functionality that is only available to the owner."
      },
      "repatriateRewards(uint256,address)": {
        "params": {
          "_destination": "Wallet to send funds to",
          "_rewardsDue": "The amount of rewards that need to be fetched and sent to the wallet"
        }
      },
      "resetSyntheticRewardsMinted()": {
        "details": "To be called by Oracle only, when batch burning synthetic minted rewards"
      },
      "resetSyntheticRewardsSlashed()": {
        "details": "To be called by Oracle only, when batch burning synthetic minted rewards"
      },
      "setBurnAddress(address)": {
        "params": {
          "_burnAddress": "The burn address on this chain"
        }
      },
      "setIsTimeMultiplierActive(bool)": {
        "params": {
          "_isActive": "Whether it shall be active. If false, timemultiplier will be 1."
        }
      },
      "setKeyAddresses(address,address)": {
        "params": {
          "_ZORRO": "ZOR token address",
          "_defaultStablecoin": "Main stablecoin address (USDC)"
        }
      },
      "setPriceFeeds(address,address)": {
        "params": {
          "_priceFeedLPPoolOtherToken": "The address of the price feed for the counterparty token in the ZOR LP Pool",
          "_priceFeedZOR": "The address of the price feed for ZOR"
        }
      },
      "setRewardsParams(uint256,uint256[],uint256,uint256)": {
        "details": "NOTE: Must enter all parameters or existing ones will be overwritten!",
        "params": {
          "_baseRewardRateBasisPoints": "Base reward rate factor, in bp",
          "_blocksPerDay": "# of blocks per day for this chain",
          "_chainMultiplier": "Rewards multiplier factor to be applied to this chain",
          "_dailyDistFactors": "Array of [ZORRODailyDistributionFactorBasisPointsMin, ZORRODailyDistributionFactorBasisPointsMax]"
        }
      },
      "setTargetTVLCaptureBasisPoints(uint256)": {
        "params": {
          "_targetTVLCaptureBasisPoints": "Percent of market desired to be captured, in bp. 333 = 3.33%. ONLY to be set on the home chain"
        }
      },
      "setUSDCToZORPath(address[])": {
        "params": {
          "_path": "Swap path"
        }
      },
      "setUSDCToZorroLPPoolOtherTokenPath(address[])": {
        "params": {
          "_path": "Swap path"
        }
      },
      "setUniRouter(address)": {
        "params": {
          "_uniV2Router": "Address of router"
        }
      },
      "setXChainParams(uint256,uint256,address)": {
        "params": {
          "_chainId": "The ind of the chain that this contract is on",
          "_homeChainId": "The chain ID of the home chain",
          "_homeChainZorroController": "The address of the home chain controller"
        }
      },
      "setZorroContracts(address,address)": {
        "params": {
          "_publicPool": "Public pool address (where ZOR minted)",
          "_zorroStakingVault": "Zorro single staking vault address"
        }
      },
      "setZorroControllerOracle(address)": {
        "params": {
          "_zorroControllerOracle": "Address of Chainlink oracle that can interact with this contract"
        }
      },
      "setZorroLPPoolParams(address,address)": {
        "params": {
          "_zorroLPPool": "Address of the Zorro-X LP pool",
          "_zorroLPPoolOtherToken": "Address of the counterpart token to the ZOR token in the LP Pool"
        }
      },
      "setZorroPerBlock(uint256,uint256,uint256,uint256,uint256)": {
        "details": "Values to be provided by Oracle. Perferable to run daily",
        "params": {
          "_ZorroTotalVaultTVLUSD": "USD value of all TVL locked into the Zorro protocol, across all chains",
          "_publicPoolZORBalance": "Number of ZOR tokens remaining in public pool on home chain",
          "_targetTVLCaptureBasisPoints": "% desired capture of total market TVL, measured in basis points",
          "_totalChainMultipliers": "Sum total of all chain multipliers for each chain",
          "_totalMarketTVLUSD": "Total DeFi market TVL across all chains (measured in USD)"
        }
      },
      "setZorroXChainEndpoint(address)": {
        "params": {
          "_contract": "Contract address of endpoint"
        }
      },
      "trancheLength(uint256,address)": {
        "params": {
          "_pid": "Index of pool",
          "_user": "wallet address of user"
        },
        "returns": {
          "_0": "Number of tranches"
        }
      },
      "transferInvestment(uint256,uint256,uint256,uint256)": {
        "params": {
          "_fromPid": "index of pool FROM",
          "_fromTrancheId": "index of tranche FROM",
          "_maxMarketMovement": "factor to account for max market movement/slippage. The definition varies by Vault, so consult the associated Vault contract for info",
          "_toPid": "index of pool TO"
        }
      },
      "transferOwnership(address)": {
        "details": "Transfers ownership of the contract to a new account (`newOwner`). Can only be called by the current owner."
      },
      "updatePool(uint256)": {
        "params": {
          "_pid": "index of pool"
        },
        "returns": {
          "mintedZOR": "Amount of ZOR rewards minted (useful for cross chain)"
        }
      },
      "withdraw(uint256,uint256,bool)": {
        "params": {
          "_harvestOnly": "If true, will only harvest Zorro tokens but not do a withdrawal",
          "_pid": "index of pool",
          "_trancheId": "index of tranche"
        },
        "returns": {
          "_0": "Amount of Want token withdrawn"
        }
      },
      "withdrawAll(uint256)": {
        "params": {
          "_pid": "index of pool"
        }
      },
      "withdrawalFullService(uint256,uint256,bool,uint256)": {
        "params": {
          "_harvestOnly": "If true, will only harvest Zorro tokens but not do a withdrawal",
          "_maxMarketMovement": "factor to account for max market movement/slippage. The definition varies by Vault, so consult the associated Vault contract for info",
          "_pid": "index of pool to deposit into",
          "_trancheId": "index of tranche"
        },
        "returns": {
          "_0": "Amount (in USDC) returned"
        }
      },
      "withdrawalFullServiceFromXChain(address,bytes,uint256,uint256,bool,uint256)": {
        "params": {
          "_account": "address of wallet on-chain",
          "_foreignAccount": "address of wallet cross-chain (that originally made this deposit)",
          "_harvestOnly": "If true, will only harvest Zorro tokens but not do a withdrawal",
          "_maxMarketMovement": "factor to account for max market movement/slippage. The definition varies by Vault, so consult the associated Vault contract for info",
          "_pid": "index of pool to deposit into",
          "_trancheId": "index of tranche"
        },
        "returns": {
          "_amountUSDC": "Amount of USDC withdrawn",
          "_rewardsDueXChain": "Amount of ZOR rewards due to the origin (cross chain) user"
        }
      }
    },
    "version": 1
  },
  "userdoc": {
    "kind": "user",
    "methods": {
      "deposit(uint256,uint256,uint256)": {
        "notice": "Deposit Want tokens to associated Vault"
      },
      "depositFullService(uint256,uint256,uint256,uint256)": {
        "notice": "Deposits funds in a full service manner (performs autoswaps and obtains Want tokens)"
      },
      "depositFullServiceFromXChain(uint256,address,bytes,uint256,uint256,uint256,uint256)": {
        "notice": "Full service deposit function to be called by ZorroControllerXChain only."
      },
      "getTimeMultiplier(uint256)": {
        "notice": "Calculate time multiplier based on duration committed"
      },
      "handleAccXChainRewards(uint256,uint256)": {
        "notice": "Called by oracle to account for ZOR rewards that were minted or slashed on other chains"
      },
      "inCaseTokensGetStuck(address,uint256)": {
        "notice": "For owner to recover ERC20 tokens on this contract if stuck"
      },
      "poolLength()": {
        "notice": "Number of pools in the Zorro protocol"
      },
      "repatriateRewards(uint256,address)": {
        "notice": "Gets rewards and sends to the recipient of a cross chain withdrawal"
      },
      "resetSyntheticRewardsMinted()": {
        "notice": "Resets accumulated synthentic rewards minted"
      },
      "resetSyntheticRewardsSlashed()": {
        "notice": "Resets accumulated synthentic rewards minted"
      },
      "setBurnAddress(address)": {
        "notice": "Setter: Burn address"
      },
      "setIsTimeMultiplierActive(bool)": {
        "notice": "Setter: Set time multiplier"
      },
      "setKeyAddresses(address,address)": {
        "notice": "Setter: Set key token addresses"
      },
      "setPriceFeeds(address,address)": {
        "notice": "Setter: Chainlink price feeds"
      },
      "setRewardsParams(uint256,uint256[],uint256,uint256)": {
        "notice": "Setter: Reward params (See Tokenomics paper for more details)"
      },
      "setStartBlock(uint256)": {
        "notice": "Setter: Start block for rewards"
      },
      "setTargetTVLCaptureBasisPoints(uint256)": {
        "notice": "Setter: TVL capture (See Tokenomics paper)"
      },
      "setUSDCToZORPath(address[])": {
        "notice": "Setter: Set path for token swap from USDC to ZOR"
      },
      "setUSDCToZorroLPPoolOtherTokenPath(address[])": {
        "notice": "Setter: Set path for token swap from USDC to counterparty token in ZOR LP pool"
      },
      "setUniRouter(address)": {
        "notice": "Setter: Uniswap-compatible router address"
      },
      "setXChainParams(uint256,uint256,address)": {
        "notice": "Setter: Cross chain params"
      },
      "setZorroContracts(address,address)": {
        "notice": "Setter: Set key ZOR contract addresses"
      },
      "setZorroControllerOracle(address)": {
        "notice": "Setter: Set Zorro Controller Oracle"
      },
      "setZorroLPPoolParams(address,address)": {
        "notice": "Setter: Zorro LP Pool params"
      },
      "setZorroPerBlock(uint256,uint256,uint256,uint256,uint256)": {
        "notice": "Set the number of Zorro to emit per block based on current market parameters"
      },
      "setZorroXChainEndpoint(address)": {
        "notice": "Setter: Cross chain endpoint"
      },
      "trancheLength(uint256,address)": {
        "notice": "Number of tranches invested by a given user into a given pool"
      },
      "transferInvestment(uint256,uint256,uint256,uint256)": {
        "notice": "Transfer all assets from a tranche in one vault to a new vault (works on-chain only)"
      },
      "updatePool(uint256)": {
        "notice": "Update reward variables of the given pool to be up-to-date."
      },
      "withdraw(uint256,uint256,bool)": {
        "notice": "Fully withdraw Want tokens from underlying Vault."
      },
      "withdrawAll(uint256)": {
        "notice": "Withdraw the maximum number of Want tokens from a pool"
      },
      "withdrawalFullService(uint256,uint256,bool,uint256)": {
        "notice": "Withdraws funds from a pool and converts the Want token into USDC"
      },
      "withdrawalFullServiceFromXChain(address,bytes,uint256,uint256,bool,uint256)": {
        "notice": "Full service withdrawal to be called from authorized cross chain endpoint"
      }
    },
    "version": 1
  }
}