{
  "contractName": "ZorroControllerInvestment",
  "abi": [
    {
      "anonymous": false,
      "inputs": [
        {
          "indexed": true,
          "internalType": "address",
          "name": "account",
          "type": "address"
        },
        {
          "indexed": true,
          "internalType": "bytes",
          "name": "foreignAccount",
          "type": "bytes"
        },
        {
          "indexed": true,
          "internalType": "uint256",
          "name": "pid",
          "type": "uint256"
        },
        {
          "indexed": false,
          "internalType": "uint256",
          "name": "wantAmount",
          "type": "uint256"
        }
      ],
      "name": "Deposit",
      "type": "event"
    },
    {
      "anonymous": false,
      "inputs": [
        {
          "indexed": true,
          "internalType": "address",
          "name": "previousOwner",
          "type": "address"
        },
        {
          "indexed": true,
          "internalType": "address",
          "name": "newOwner",
          "type": "address"
        }
      ],
      "name": "OwnershipTransferred",
      "type": "event"
    },
    {
      "anonymous": false,
      "inputs": [
        {
          "indexed": false,
          "internalType": "address",
          "name": "account",
          "type": "address"
        },
        {
          "indexed": true,
          "internalType": "uint256",
          "name": "fromPid",
          "type": "uint256"
        },
        {
          "indexed": true,
          "internalType": "uint256",
          "name": "fromTrancheId",
          "type": "uint256"
        },
        {
          "indexed": true,
          "internalType": "uint256",
          "name": "toPid",
          "type": "uint256"
        }
      ],
      "name": "TransferInvestment",
      "type": "event"
    },
    {
      "anonymous": false,
      "inputs": [
        {
          "indexed": true,
          "internalType": "address",
          "name": "account",
          "type": "address"
        },
        {
          "indexed": true,
          "internalType": "bytes",
          "name": "foreignAccount",
          "type": "bytes"
        },
        {
          "indexed": true,
          "internalType": "uint256",
          "name": "pid",
          "type": "uint256"
        },
        {
          "indexed": false,
          "internalType": "uint256",
          "name": "trancheId",
          "type": "uint256"
        },
        {
          "indexed": false,
          "internalType": "uint256",
          "name": "wantAmount",
          "type": "uint256"
        }
      ],
      "name": "Withdraw",
      "type": "event"
    },
    {
      "inputs": [],
      "name": "ZORRO",
      "outputs": [
        {
          "internalType": "address",
          "name": "",
          "type": "address"
        }
      ],
      "stateMutability": "view",
      "type": "function"
    },
    {
      "inputs": [],
      "name": "ZORRODailyDistributionFactorBasisPointsMax",
      "outputs": [
        {
          "internalType": "uint256",
          "name": "",
          "type": "uint256"
        }
      ],
      "stateMutability": "view",
      "type": "function"
    },
    {
      "inputs": [],
      "name": "ZORRODailyDistributionFactorBasisPointsMin",
      "outputs": [
        {
          "internalType": "uint256",
          "name": "",
          "type": "uint256"
        }
      ],
      "stateMutability": "view",
      "type": "function"
    },
    {
      "inputs": [],
      "name": "ZORROPerBlock",
      "outputs": [
        {
          "internalType": "uint256",
          "name": "",
          "type": "uint256"
        }
      ],
      "stateMutability": "view",
      "type": "function"
    },
    {
      "inputs": [],
      "name": "accSynthRewardsMinted",
      "outputs": [
        {
          "internalType": "uint256",
          "name": "",
          "type": "uint256"
        }
      ],
      "stateMutability": "view",
      "type": "function"
    },
    {
      "inputs": [],
      "name": "accSynthRewardsSlashed",
      "outputs": [
        {
          "internalType": "uint256",
          "name": "",
          "type": "uint256"
        }
      ],
      "stateMutability": "view",
      "type": "function"
    },
    {
      "inputs": [],
      "name": "baseRewardRateBasisPoints",
      "outputs": [
        {
          "internalType": "uint256",
          "name": "",
          "type": "uint256"
        }
      ],
      "stateMutability": "view",
      "type": "function"
    },
    {
      "inputs": [],
      "name": "blocksPerDay",
      "outputs": [
        {
          "internalType": "uint256",
          "name": "",
          "type": "uint256"
        }
      ],
      "stateMutability": "view",
      "type": "function"
    },
    {
      "inputs": [],
      "name": "burnAddress",
      "outputs": [
        {
          "internalType": "address",
          "name": "",
          "type": "address"
        }
      ],
      "stateMutability": "view",
      "type": "function"
    },
    {
      "inputs": [],
      "name": "chainId",
      "outputs": [
        {
          "internalType": "uint256",
          "name": "",
          "type": "uint256"
        }
      ],
      "stateMutability": "view",
      "type": "function"
    },
    {
      "inputs": [],
      "name": "chainMultiplier",
      "outputs": [
        {
          "internalType": "uint256",
          "name": "",
          "type": "uint256"
        }
      ],
      "stateMutability": "view",
      "type": "function"
    },
    {
      "inputs": [],
      "name": "controllerActions",
      "outputs": [
        {
          "internalType": "address",
          "name": "",
          "type": "address"
        }
      ],
      "stateMutability": "view",
      "type": "function"
    },
    {
      "inputs": [],
      "name": "defaultStablecoin",
      "outputs": [
        {
          "internalType": "address",
          "name": "",
          "type": "address"
        }
      ],
      "stateMutability": "view",
      "type": "function"
    },
    {
      "inputs": [
        {
          "internalType": "uint256",
          "name": "",
          "type": "uint256"
        },
        {
          "internalType": "bytes",
          "name": "",
          "type": "bytes"
        },
        {
          "internalType": "uint256",
          "name": "",
          "type": "uint256"
        }
      ],
      "name": "foreignTrancheInfo",
      "outputs": [
        {
          "internalType": "address",
          "name": "",
          "type": "address"
        }
      ],
      "stateMutability": "view",
      "type": "function"
    },
    {
      "inputs": [],
      "name": "homeChainId",
      "outputs": [
        {
          "internalType": "uint256",
          "name": "",
          "type": "uint256"
        }
      ],
      "stateMutability": "view",
      "type": "function"
    },
    {
      "inputs": [],
      "name": "homeChainZorroController",
      "outputs": [
        {
          "internalType": "address",
          "name": "",
          "type": "address"
        }
      ],
      "stateMutability": "view",
      "type": "function"
    },
    {
      "inputs": [
        {
          "internalType": "address",
          "name": "_token",
          "type": "address"
        },
        {
          "internalType": "uint256",
          "name": "_amount",
          "type": "uint256"
        }
      ],
      "name": "inCaseTokensGetStuck",
      "outputs": [],
      "stateMutability": "nonpayable",
      "type": "function"
    },
    {
      "inputs": [],
      "name": "isTimeMultiplierActive",
      "outputs": [
        {
          "internalType": "bool",
          "name": "",
          "type": "bool"
        }
      ],
      "stateMutability": "view",
      "type": "function"
    },
    {
      "inputs": [],
      "name": "owner",
      "outputs": [
        {
          "internalType": "address",
          "name": "",
          "type": "address"
        }
      ],
      "stateMutability": "view",
      "type": "function"
    },
    {
      "inputs": [
        {
          "internalType": "uint256",
          "name": "",
          "type": "uint256"
        }
      ],
      "name": "poolInfo",
      "outputs": [
        {
          "internalType": "contract IERC20Upgradeable",
          "name": "want",
          "type": "address"
        },
        {
          "internalType": "uint256",
          "name": "allocPoint",
          "type": "uint256"
        },
        {
          "internalType": "uint256",
          "name": "lastRewardBlock",
          "type": "uint256"
        },
        {
          "internalType": "uint256",
          "name": "accZORRORewards",
          "type": "uint256"
        },
        {
          "internalType": "uint256",
          "name": "totalTrancheContributions",
          "type": "uint256"
        },
        {
          "internalType": "address",
          "name": "vault",
          "type": "address"
        }
      ],
      "stateMutability": "view",
      "type": "function"
    },
    {
      "inputs": [],
      "name": "poolLength",
      "outputs": [
        {
          "internalType": "uint256",
          "name": "",
          "type": "uint256"
        }
      ],
      "stateMutability": "view",
      "type": "function"
    },
    {
      "inputs": [],
      "name": "publicPool",
      "outputs": [
        {
          "internalType": "address",
          "name": "",
          "type": "address"
        }
      ],
      "stateMutability": "view",
      "type": "function"
    },
    {
      "inputs": [],
      "name": "renounceOwnership",
      "outputs": [],
      "stateMutability": "nonpayable",
      "type": "function"
    },
    {
      "inputs": [],
      "name": "resetSyntheticRewardsMinted",
      "outputs": [],
      "stateMutability": "nonpayable",
      "type": "function"
    },
    {
      "inputs": [],
      "name": "resetSyntheticRewardsSlashed",
      "outputs": [],
      "stateMutability": "nonpayable",
      "type": "function"
    },
    {
      "inputs": [
        {
          "internalType": "address",
          "name": "_burnAddress",
          "type": "address"
        }
      ],
      "name": "setBurnAddress",
      "outputs": [],
      "stateMutability": "nonpayable",
      "type": "function"
    },
    {
      "inputs": [
        {
          "internalType": "address",
          "name": "_ZORRO",
          "type": "address"
        },
        {
          "internalType": "address",
          "name": "_defaultStablecoin",
          "type": "address"
        }
      ],
      "name": "setKeyAddresses",
      "outputs": [],
      "stateMutability": "nonpayable",
      "type": "function"
    },
    {
      "inputs": [
        {
          "internalType": "uint256",
          "name": "_blocksPerDay",
          "type": "uint256"
        },
        {
          "internalType": "uint256[]",
          "name": "_dailyDistFactors",
          "type": "uint256[]"
        },
        {
          "internalType": "uint256",
          "name": "_chainMultiplier",
          "type": "uint256"
        },
        {
          "internalType": "uint256",
          "name": "_baseRewardRateBasisPoints",
          "type": "uint256"
        }
      ],
      "name": "setRewardsParams",
      "outputs": [],
      "stateMutability": "nonpayable",
      "type": "function"
    },
    {
      "inputs": [
        {
          "internalType": "uint256",
          "name": "_startBlock",
          "type": "uint256"
        }
      ],
      "name": "setStartBlock",
      "outputs": [],
      "stateMutability": "nonpayable",
      "type": "function"
    },
    {
      "inputs": [
        {
          "internalType": "uint256",
          "name": "_targetTVLCaptureBasisPoints",
          "type": "uint256"
        }
      ],
      "name": "setTargetTVLCaptureBasisPoints",
      "outputs": [],
      "stateMutability": "nonpayable",
      "type": "function"
    },
    {
      "inputs": [
        {
          "internalType": "uint256",
          "name": "_chainId",
          "type": "uint256"
        },
        {
          "internalType": "uint256",
          "name": "_homeChainId",
          "type": "uint256"
        },
        {
          "internalType": "address",
          "name": "_homeChainZorroController",
          "type": "address"
        }
      ],
      "name": "setXChainParams",
      "outputs": [],
      "stateMutability": "nonpayable",
      "type": "function"
    },
    {
      "inputs": [
        {
          "internalType": "address",
          "name": "_publicPool",
          "type": "address"
        },
        {
          "internalType": "address",
          "name": "_zorroStakingVault",
          "type": "address"
        }
      ],
      "name": "setZorroContracts",
      "outputs": [],
      "stateMutability": "nonpayable",
      "type": "function"
    },
    {
      "inputs": [
        {
          "internalType": "address",
          "name": "_zorroControllerOracle",
          "type": "address"
        }
      ],
      "name": "setZorroControllerOracle",
      "outputs": [],
      "stateMutability": "nonpayable",
      "type": "function"
    },
    {
      "inputs": [
        {
          "internalType": "uint256",
          "name": "_totalChainMultipliers",
          "type": "uint256"
        },
        {
          "internalType": "uint256",
          "name": "_totalMarketTVLUSD",
          "type": "uint256"
        },
        {
          "internalType": "uint256",
          "name": "_targetTVLCaptureBasisPoints",
          "type": "uint256"
        },
        {
          "internalType": "uint256",
          "name": "_ZorroTotalVaultTVLUSD",
          "type": "uint256"
        },
        {
          "internalType": "uint256",
          "name": "_publicPoolZORBalance",
          "type": "uint256"
        }
      ],
      "name": "setZorroPerBlock",
      "outputs": [],
      "stateMutability": "nonpayable",
      "type": "function"
    },
    {
      "inputs": [],
      "name": "startBlock",
      "outputs": [
        {
          "internalType": "uint256",
          "name": "",
          "type": "uint256"
        }
      ],
      "stateMutability": "view",
      "type": "function"
    },
    {
      "inputs": [],
      "name": "targetTVLCaptureBasisPoints",
      "outputs": [
        {
          "internalType": "uint256",
          "name": "",
          "type": "uint256"
        }
      ],
      "stateMutability": "view",
      "type": "function"
    },
    {
      "inputs": [],
      "name": "totalAllocPoint",
      "outputs": [
        {
          "internalType": "uint256",
          "name": "",
          "type": "uint256"
        }
      ],
      "stateMutability": "view",
      "type": "function"
    },
    {
      "inputs": [
        {
          "internalType": "uint256",
          "name": "",
          "type": "uint256"
        },
        {
          "internalType": "address",
          "name": "",
          "type": "address"
        },
        {
          "internalType": "uint256",
          "name": "",
          "type": "uint256"
        }
      ],
      "name": "trancheInfo",
      "outputs": [
        {
          "internalType": "uint256",
          "name": "contribution",
          "type": "uint256"
        },
        {
          "internalType": "uint256",
          "name": "timeMultiplier",
          "type": "uint256"
        },
        {
          "internalType": "uint256",
          "name": "rewardDebt",
          "type": "uint256"
        },
        {
          "internalType": "uint256",
          "name": "durationCommittedInWeeks",
          "type": "uint256"
        },
        {
          "internalType": "uint256",
          "name": "enteredVaultAt",
          "type": "uint256"
        },
        {
          "internalType": "uint256",
          "name": "exitedVaultAt",
          "type": "uint256"
        }
      ],
      "stateMutability": "view",
      "type": "function"
    },
    {
      "inputs": [
        {
          "internalType": "uint256",
          "name": "_pid",
          "type": "uint256"
        },
        {
          "internalType": "address",
          "name": "_user",
          "type": "address"
        }
      ],
      "name": "trancheLength",
      "outputs": [
        {
          "internalType": "uint256",
          "name": "",
          "type": "uint256"
        }
      ],
      "stateMutability": "view",
      "type": "function"
    },
    {
      "inputs": [
        {
          "internalType": "address",
          "name": "newOwner",
          "type": "address"
        }
      ],
      "name": "transferOwnership",
      "outputs": [],
      "stateMutability": "nonpayable",
      "type": "function"
    },
    {
      "inputs": [
        {
          "internalType": "uint256",
          "name": "_pid",
          "type": "uint256"
        }
      ],
      "name": "updatePool",
      "outputs": [
        {
          "internalType": "uint256",
          "name": "mintedZOR",
          "type": "uint256"
        }
      ],
      "stateMutability": "nonpayable",
      "type": "function"
    },
    {
      "inputs": [],
      "name": "zorroControllerOracle",
      "outputs": [
        {
          "internalType": "address",
          "name": "",
          "type": "address"
        }
      ],
      "stateMutability": "view",
      "type": "function"
    },
    {
      "inputs": [],
      "name": "zorroStakingVault",
      "outputs": [
        {
          "internalType": "address",
          "name": "",
          "type": "address"
        }
      ],
      "stateMutability": "view",
      "type": "function"
    },
    {
      "inputs": [],
      "name": "zorroXChainEndpoint",
      "outputs": [
        {
          "internalType": "address",
          "name": "",
          "type": "address"
        }
      ],
      "stateMutability": "view",
      "type": "function"
    },
    {
      "inputs": [
        {
          "internalType": "bool",
          "name": "_isActive",
          "type": "bool"
        }
      ],
      "name": "setIsTimeMultiplierActive",
      "outputs": [],
      "stateMutability": "nonpayable",
      "type": "function"
    },
    {
      "inputs": [
        {
          "internalType": "address",
          "name": "_contract",
          "type": "address"
        }
      ],
      "name": "setZorroXChainEndpoint",
      "outputs": [],
      "stateMutability": "nonpayable",
      "type": "function"
    },
    {
      "inputs": [
        {
          "internalType": "uint256",
          "name": "_pid",
          "type": "uint256"
        },
        {
          "internalType": "uint256",
          "name": "_wantAmt",
          "type": "uint256"
        },
        {
          "internalType": "uint256",
          "name": "_weeksCommitted",
          "type": "uint256"
        }
      ],
      "name": "deposit",
      "outputs": [],
      "stateMutability": "nonpayable",
      "type": "function"
    },
    {
      "inputs": [
        {
          "internalType": "uint256",
          "name": "_pid",
          "type": "uint256"
        },
        {
          "internalType": "uint256",
          "name": "_valueUSD",
          "type": "uint256"
        },
        {
          "internalType": "uint256",
          "name": "_weeksCommitted",
          "type": "uint256"
        },
        {
          "internalType": "uint256",
          "name": "_maxMarketMovement",
          "type": "uint256"
        }
      ],
      "name": "depositFullService",
      "outputs": [],
      "stateMutability": "nonpayable",
      "type": "function"
    },
    {
      "inputs": [
        {
          "internalType": "uint256",
          "name": "_pid",
          "type": "uint256"
        },
        {
          "internalType": "address",
          "name": "_account",
          "type": "address"
        },
        {
          "internalType": "bytes",
          "name": "_foreignAccount",
          "type": "bytes"
        },
        {
          "internalType": "uint256",
          "name": "_valueUSD",
          "type": "uint256"
        },
        {
          "internalType": "uint256",
          "name": "_weeksCommitted",
          "type": "uint256"
        },
        {
          "internalType": "uint256",
          "name": "_vaultEnteredAt",
          "type": "uint256"
        },
        {
          "internalType": "uint256",
          "name": "_maxMarketMovement",
          "type": "uint256"
        }
      ],
      "name": "depositFullServiceFromXChain",
      "outputs": [],
      "stateMutability": "nonpayable",
      "type": "function"
    },
    {
      "inputs": [
        {
          "internalType": "uint256",
          "name": "_pid",
          "type": "uint256"
        },
        {
          "internalType": "uint256",
          "name": "_trancheId",
          "type": "uint256"
        },
        {
          "internalType": "bool",
          "name": "_harvestOnly",
          "type": "bool"
        }
      ],
      "name": "withdraw",
      "outputs": [
        {
          "internalType": "uint256",
          "name": "",
          "type": "uint256"
        }
      ],
      "stateMutability": "nonpayable",
      "type": "function"
    },
    {
      "inputs": [
        {
          "internalType": "uint256",
          "name": "_pid",
          "type": "uint256"
        },
        {
          "internalType": "uint256",
          "name": "_trancheId",
          "type": "uint256"
        },
        {
          "internalType": "bool",
          "name": "_harvestOnly",
          "type": "bool"
        },
        {
          "internalType": "uint256",
          "name": "_maxMarketMovement",
          "type": "uint256"
        }
      ],
      "name": "withdrawalFullService",
      "outputs": [
        {
          "internalType": "uint256",
          "name": "",
          "type": "uint256"
        }
      ],
      "stateMutability": "nonpayable",
      "type": "function"
    },
    {
      "inputs": [
        {
          "internalType": "address",
          "name": "_account",
          "type": "address"
        },
        {
          "internalType": "bytes",
          "name": "_foreignAccount",
          "type": "bytes"
        },
        {
          "internalType": "uint256",
          "name": "_pid",
          "type": "uint256"
        },
        {
          "internalType": "uint256",
          "name": "_trancheId",
          "type": "uint256"
        },
        {
          "internalType": "bool",
          "name": "_harvestOnly",
          "type": "bool"
        },
        {
          "internalType": "uint256",
          "name": "_maxMarketMovement",
          "type": "uint256"
        }
      ],
      "name": "withdrawalFullServiceFromXChain",
      "outputs": [
        {
          "internalType": "uint256",
          "name": "_amountUSD",
          "type": "uint256"
        },
        {
          "internalType": "uint256",
          "name": "_rewardsDueXChain",
          "type": "uint256"
        }
      ],
      "stateMutability": "nonpayable",
      "type": "function"
    },
    {
      "inputs": [
        {
          "internalType": "uint256",
          "name": "_fromPid",
          "type": "uint256"
        },
        {
          "internalType": "uint256",
          "name": "_fromTrancheId",
          "type": "uint256"
        },
        {
          "internalType": "uint256",
          "name": "_toPid",
          "type": "uint256"
        },
        {
          "internalType": "uint256",
          "name": "_maxMarketMovement",
          "type": "uint256"
        }
      ],
      "name": "transferInvestment",
      "outputs": [],
      "stateMutability": "nonpayable",
      "type": "function"
    },
    {
      "inputs": [
        {
          "internalType": "uint256",
          "name": "_pid",
          "type": "uint256"
        }
      ],
      "name": "withdrawAll",
      "outputs": [],
      "stateMutability": "nonpayable",
      "type": "function"
    },
    {
      "inputs": [
        {
          "internalType": "uint256",
          "name": "_rewardsDue",
          "type": "uint256"
        },
        {
          "internalType": "address",
          "name": "_destination",
          "type": "address"
        }
      ],
      "name": "repatriateRewards",
      "outputs": [],
      "stateMutability": "nonpayable",
      "type": "function"
    },
    {
      "inputs": [
        {
          "internalType": "uint256",
          "name": "_totalMinted",
          "type": "uint256"
        },
        {
          "internalType": "uint256",
          "name": "_totalSlashed",
          "type": "uint256"
        }
      ],
      "name": "handleAccXChainRewards",
      "outputs": [],
      "stateMutability": "nonpayable",
      "type": "function"
    }
  ],
  "bytecode": "0x608060405234801561001057600080fd5b506138e0806100206000396000f3fe608060405234801561001057600080fd5b506004361061037b5760003560e060020a9004806370d5ae05116101d7578063b61bb80a11610108578063cff38dd4116100a6578063f2fde38b11610080578063f2fde38b146107ad578063f35e4a6e146107c0578063f63cce37146107d3578063fc39a29e146107e657600080fd5b8063cff38dd41461077e578063ed43633f14610791578063ef126967146107a457600080fd5b8063c2936142116100e2578063c293614214610746578063c4e94f221461074f578063c6d758cb14610762578063cb9c2f681461077557600080fd5b8063b61bb80a14610717578063b95cc6811461072a578063c13260a51461073357600080fd5b8063941d3fd0116101755780639cebd3711161014f5780639cebd371146106b3578063a13346c6146106bc578063a4d2b083146106c4578063b4b4e9eb146106d757600080fd5b8063941d3fd014610662578063958e2d31146106975780639a8a0592146106aa57600080fd5b80637e37c769116101b15780637e37c76914610618578063823c43d01461062b5780638c157db21461063e5780638da5cb5b1461065157600080fd5b806370d5ae05146105ea578063715018a6146105fd578063745af0a81461060557600080fd5b806340abd8fc116102b1578063529668321161024f5780635c63fa87116102295780635c63fa871461059e578063668ababb146105b15780636b8eb2e5146105c45780636c78d49c146105d757600080fd5b8063529668321461057957806353f73f87146105825780635527a6f91461059557600080fd5b80634b0e72161161028b5780634b0e7216146105375780634cfea68a1461054a5780635051d3711461055357806351eb05a61461056657600080fd5b806340abd8fc146104f35780634780f9f51461051b57806348cd4cb11461052e57600080fd5b80632e31283d1161031e57806339e80a88116102f857806339e80a88146104bb5780633b710688146104ce5780633b9ce565146104d75780633bbc1ffc146104e057600080fd5b80632e31283d14610432578063332e5a7b1461049557806333cfcd3b146104a857600080fd5b80630aa0988e1161035a5780630aa0988e146103b45780631526fe27146103c757806317caf6f1146104165780631b8fb6921461041f57600080fd5b8062aeef8a14610380578063081e3eda1461039557806309b79b3c146103ac575b600080fd5b61039361038e366004613057565b6107f9565b005b60aa545b6040519081526020015b60405180910390f35b610393610898565b6103936103c2366004613098565b6108fc565b6103da6103d53660046130d1565b610957565b60408051600160a060020a03978816815260208101969096528501939093526060840191909152608083015290911660a082015260c0016103a3565b61039960a45481565b61039361042d3660046130ea565b6109aa565b61047d6104403660046131b5565b60ac6020908152600093845260408085208451808601840180519281529084019584019590952094529290528252902054600160a060020a031681565b604051600160a060020a0390911681526020016103a3565b60ae5461047d90600160a060020a031681565b6103996104b6366004613213565b610a7d565b60af5461047d90600160a060020a031681565b61039960a35481565b61039960a15481565b6103936104ee3660046130d1565b610b1a565b61050661050136600461324c565b610b79565b604080519283526020830191909152016103a3565b6103936105293660046132cc565b610c14565b610399609c5481565b6103936105453660046132fe565b610ca6565b610399609d5481565b6103936105613660046132fe565b610cf5565b6103996105743660046130d1565b610d44565b61039960a55481565b6103996105903660046130ea565b610f37565b61039960a05481565b6103936105ac36600461331b565b610f61565b60995461047d90600160a060020a031681565b6103936105d2366004613349565b610fb8565b6103936105e5366004613384565b611088565b609b5461047d90600160a060020a031681565b6103936110f5565b6103996106133660046133a1565b61112e565b6103936106263660046132cc565b6111a8565b60ad5461047d90600160a060020a031681565b60975461047d90600160a060020a031681565b603354600160a060020a031661047d565b60ae546106879074010000000000000000000000000000000000000000900460ff1681565b60405190151581526020016103a3565b6103936106a53660046130d1565b61131e565b61039960a75481565b61039960a25481565b610393611464565b609a5461047d90600160a060020a031681565b6106ea6106e53660046133e0565b6114e2565b604080519687526020870195909552938501929092526060840152608083015260a082015260c0016103a3565b60985461047d90600160a060020a031681565b61039960a65481565b610393610741366004613418565b611543565b610399609e5481565b61039361075d3660046132fe565b6115ea565b61039361077036600461343a565b611639565b610399609f5481565b61039361078c366004613466565b611701565b61039361079f3660046134e4565b611796565b61039960a85481565b6103936107bb3660046132fe565b61180f565b6103936107ce3660046130d1565b6118c7565b6103936107e1366004613098565b61194c565b60a95461047d90600160a060020a031681565b600260655414156108285760405160e560020a62461bcd02815260040161081f90613571565b60405180910390fd5b6002606581905550600060aa8481548110610845576108456135a8565b60009182526020909120600690910201805490915061086f90600160a060020a03163330866119d4565b61088c843360405180602001604052806000815250868642611a8b565b50506001606555505050565b60ad54600160a060020a031633600160a060020a0316146108ce5760405160e560020a62461bcd02815260040161081f906135c1565b60a85460a75414156108f55760405160e560020a62461bcd02815260040161081f906135f8565b600060a555565b603354600160a060020a031633146109295760405160e560020a62461bcd02815260040161081f9061362f565b60978054600160a060020a03938416600160a060020a03199182161790915560988054929093169116179055565b60aa818154811061096757600080fd5b6000918252602090912060069091020180546001820154600283015460038401546004850154600590950154600160a060020a0394851696509294919390921686565b60af54600160a060020a031633600160a060020a0316146109e05760405160e560020a62461bcd02815260040161081f90613664565b60a85460a75414156109fa576109f68282611dbf565b5050565b6097546040517f40c10f19000000000000000000000000000000000000000000000000000000008152600160a060020a03838116600483015260248201859052909116906340c10f1990604401600060405180830381600087803b158015610a6157600080fd5b505af1158015610a75573d6000803e3d6000fd5b505050505050565b600060026065541415610aa55760405160e560020a62461bcd02815260040161081f90613571565b60026065819055506000610acd85336040518060200160405280600081525087876000611ddd565b9050610b0c33826000015160aa8881548110610aeb57610aeb6135a8565b6000918252602090912060069091020154600160a060020a03169190612507565b516001606555949350505050565b603354600160a060020a03163314610b475760405160e560020a62461bcd02815260040161081f9061362f565b60a954600160a060020a03163014610b745760405160e560020a62461bcd02815260040161081f9061369b565b609f55565b60af546000908190600160a060020a031633600160a060020a031614610bb45760405160e560020a62461bcd02815260040161081f90613664565b610bc48888888888886001612555565b90925090508115610be657609854610be690600160a060020a03163384612507565b8015610c0957609b54609754610c0991600160a060020a03918216911683612507565b965096945050505050565b60026065541415610c3a5760405160e560020a62461bcd02815260040161081f90613571565b6002606581905550600060aa8581548110610c5757610c576135a8565b6000918252602090912060056006909202010154609854600160a060020a039182169250610c8891163383876119d4565b61088c8533604051806020016040528060008152508787428861267d565b603354600160a060020a03163314610cd35760405160e560020a62461bcd02815260040161081f9061362f565b609b8054600160a060020a031916600160a060020a0392909216919091179055565b603354600160a060020a03163314610d225760405160e560020a62461bcd02815260040161081f9061362f565b60ad8054600160a060020a031916600160a060020a0392909216919091179055565b60008060aa8381548110610d5a57610d5a6135a8565b9060005260206000209060060201905080600201544311610d7e5750600092915050565b6005810154604080517f44a3955e0000000000000000000000000000000000000000000000000000000081529051600092600160a060020a0316916344a3955e9160048083019260209291908290030181865afa158015610de3573d6000803e3d6000fd5b505050506040513d601f19601f82011682018060405250810190610e0791906136d2565b905080610e1e575043600290910155506000919050565b6000826002015443610e309190613704565b9050600060a4548460010154609e5484610e4a919061371b565b610e54919061371b565b610e5e919061373a565b60a954909150600160a060020a0316301415610e8757610e7e8130611dbf565b60009450610f10565b6097546040517f40c10f1900000000000000000000000000000000000000000000000000000000815230600482015260248101839052600160a060020a03909116906340c10f1990604401600060405180830381600087803b158015610eec57600080fd5b505af1158015610f00573d6000803e3d6000fd5b50505050809450610f1085612769565b808460030154610f20919061375f565b600385015550504360029092019190915550919050565b600082815260ab60209081526040808320600160a060020a03851684529091529020545b92915050565b603354600160a060020a03163314610f8e5760405160e560020a62461bcd02815260040161081f9061362f565b60a79290925560a85560a98054600160a060020a031916600160a060020a03909216919091179055565b60ad54600160a060020a031633600160a060020a031614610fee5760405160e560020a62461bcd02815260040161081f906135c1565b6000610ffc8361271061371b565b848660a35461100b919061371b565b611015919061371b565b61101f919061373a565b905060a154811115611034575060a154611043565b60a054811015611043575060a0545b609d546110528761271061371b565b61105c919061371b565b60a254611069838561371b565b611073919061371b565b61107d919061373a565b609e55505050505050565b603354600160a060020a031633146110b55760405160e560020a62461bcd02815260040161081f9061362f565b60ae8054911515740100000000000000000000000000000000000000000274ff000000000000000000000000000000000000000019909216919091179055565b603354600160a060020a031633146111225760405160e560020a62461bcd02815260040161081f9061362f565b61112c60006127a4565b565b6000600260655414156111565760405160e560020a62461bcd02815260040161081f90613571565b6002606581905550600061117f3360405180602001604052806000815250888888886000612555565b5060985490915061119a90600160a060020a03163383612507565b600160655595945050505050565b600260655414156111ce5760405160e560020a62461bcd02815260040161081f90613571565b6002606555600084815260ab6020908152604080832033845290915281208054859081106111fe576111fe6135a8565b600091825260208083206003600690930201919091015487835260ab8252604080842033855290925290822080549193509086908110611240576112406135a8565b90600052602060002090600602016004015490506000611276336040518060200160405280600081525089896000896000612555565b5090506112b960aa868154811061128f5761128f6135a8565b6000918252602090912060056006909202010154609854600160a060020a03908116911683612507565b6112d78533604051806020016040528060008152508487878a61267d565b6040513381528590879089907f67e7aba7263d8fbeb0cd9a2f4008f060a6a03f46c1d7f9d0550f0b93e96e96f89060200160405180910390a4505060016065555050505050565b600260655414156113445760405160e560020a62461bcd02815260040161081f90613571565b600260655560006113558233610f37565b905060005b818110156113915761138083336040518060200160405280600081525084600080611ddd565b5061138a81613777565b905061135a565b50600060aa83815481106113a7576113a76135a8565b60009182526020909120600690910201546040517f70a08231000000000000000000000000000000000000000000000000000000008152306004820152600160a060020a03909116906370a0823190602401602060405180830381865afa158015611416573d6000803e3d6000fd5b505050506040513d601f19601f8201168201806040525081019061143a91906136d2565b9050801561145a5761145a338260aa8681548110610aeb57610aeb6135a8565b5050600160655550565b60ad54600160a060020a031633600160a060020a03161461149a5760405160e560020a62461bcd02815260040161081f906135c1565b60a85460a75414156114c15760405160e560020a62461bcd02815260040161081f906135f8565b609b5460a6546097546108f592600160a060020a0391821692911690612507565b60ab602052826000526040600020602052816000526040600020818154811061150a57600080fd5b60009182526020909120600690910201805460018201546002830154600384015460048501546005909501549397509195509350919086565b60ad54600160a060020a031633600160a060020a0316146115795760405160e560020a62461bcd02815260040161081f906135c1565b60a954600160a060020a031630146115a65760405160e560020a62461bcd02815260040161081f9061369b565b609b546115d390600160a060020a03166115c08385613704565b609754600160a060020a03169190612507565b609a546109f6908290600160a060020a0316611dbf565b603354600160a060020a031633146116175760405160e560020a62461bcd02815260040161081f9061362f565b60af8054600160a060020a031916600160a060020a0392909216919091179055565b603354600160a060020a031633146116665760405160e560020a62461bcd02815260040161081f9061362f565b609754600160a060020a03838116911614156116ed5760405160e560020a62461bcd02815260206004820152603560248201527f217361666520746f20757365205a6f72726f20746f6b656e20696e2066756e6360448201527f20696e43617365546f6b656e73476574537475636b0000000000000000000000606482015260840161081f565b6109f6600160a060020a0383163383612507565b60af54600160a060020a031633600160a060020a0316146117375760405160e560020a62461bcd02815260040161081f90613664565b600060aa888154811061174c5761174c6135a8565b6000918252602090912060056006909202010154609854600160a060020a03918216925061177d91163383886119d4565b61178c8888888888888861267d565b5050505050505050565b603354600160a060020a031633146117c35760405160e560020a62461bcd02815260040161081f9061362f565b609d85905583836000816117d9576117d96135a8565b602002919091013560a05550838360018181106117f8576117f86135a8565b602002919091013560a1555060a35560a255505050565b603354600160a060020a0316331461183c5760405160e560020a62461bcd02815260040161081f9061362f565b600160a060020a0381166118bb5760405160e560020a62461bcd02815260206004820152602660248201527f4f776e61626c653a206e6577206f776e657220697320746865207a65726f206160448201527f6464726573730000000000000000000000000000000000000000000000000000606482015260840161081f565b6118c4816127a4565b50565b603354600160a060020a031633146118f45760405160e560020a62461bcd02815260040161081f9061362f565b609c54156119475760405160e560020a62461bcd02815260206004820152601560248201527f626c6f636b506172616d7320696d6d757461626c650000000000000000000000604482015260640161081f565b609c55565b603354600160a060020a031633146119795760405160e560020a62461bcd02815260040161081f9061362f565b60a954600160a060020a031630146119a65760405160e560020a62461bcd02815260040161081f9061369b565b60998054600160a060020a03938416600160a060020a031991821617909155609a8054929093169116179055565b604051600160a060020a0380851660248301528316604482015260648101829052611a859085907f23b872dd00000000000000000000000000000000000000000000000000000000906084015b60408051601f198184030181529190526020810180517bffffffffffffffffffffffffffffffffffffffffffffffffffffffff167fffffffff00000000000000000000000000000000000000000000000000000000909316929092179091526127f6565b50505050565b60008060aa8881548110611aa157611aa16135a8565b9060005260206000209060060201905060008511611b045760405160e560020a62461bcd02815260206004820152601560248201527f5f77616e74416d74206d757374206265203e2030210000000000000000000000604482015260640161081f565b611b0d88610d44565b91506000611b1b88886128de565b60058301548354919250611b3c91600160a060020a03908116911688612987565b600060aa8a81548110611b5157611b516135a8565b60009182526020909120600690910201600501546040517f2209b59e00000000000000000000000000000000000000000000000000000000815260048101899052600160a060020a0390911690632209b59e906024016020604051808303816000875af1158015611bc6573d6000803e3d6000fd5b505050506040513d601f19601f82011682018060405250810190611bea91906136d2565b60ae546040517fc25bf1070000000000000000000000000000000000000000000000000000000081526004810189905274010000000000000000000000000000000000000000820460ff1615156024820152919250600091600160a060020a039091169063c25bf10790604401602060405180830381865afa158015611c74573d6000803e3d6000fd5b505050506040513d601f19601f82011682018060405250810190611c9891906136d2565b60ae546040517fa80bee070000000000000000000000000000000000000000000000000000000081526004810185905260248101839052919250600091600160a060020a039091169063a80bee0790604401602060405180830381865afa158015611d07573d6000803e3d6000fd5b505050506040513d601f19601f82011682018060405250810190611d2b91906136d2565b905080856004016000828254611d41919061375f565b90915550611d5690508c858c84868d8d612a6b565b8b8a604051611d6591906137be565b604051809103902085600160a060020a03167fc6b1f1535b3bb3bdffa2f97a671ab7bd6f2512deec58103fa47eb40ed95274278c604051611da891815260200190565b60405180910390a450505050509695505050505050565b6099546097546109f691600160a060020a03918216911683856119d4565b6040805180820190915260008082526020820152600160a060020a038616158015611e09575060008551115b80611e265750600160a060020a03861615801590611e2657508451155b611e755760405160e560020a62461bcd02815260206004820152601d60248201527f4f6e6c79206f6e65206163636f756e74207479706520616c6c6f776564000000604482015260640161081f565b6000611e838886888a612c26565b9050600060aa8981548110611e9a57611e9a6135a8565b906000526020600020906006020190506000826000015111611f015760405160e560020a62461bcd02815260206004820152601960248201527f7472616e6368652e636f6e747269627574696f6e206973203000000000000000604482015260640161081f565b6000816004015411611f585760405160e560020a62461bcd02815260206004820152601e60248201527f746f74616c5472616e636865436f6e747269627574696f6e7320697320300000604482015260640161081f565b60a082015115611fad5760405160e560020a62461bcd02815260206004820152601460248201527f416c726561647920657869746564207661756c74000000000000000000000000604482015260640161081f565b611fb689610d44565b5060008260400151826004015483600301548560000151611fd7919061371b565b611fe1919061373a565b611feb9190613704565b9050801561214d5760ae54604080517f1bb6ebbb0000000000000000000000000000000000000000000000000000000081528551600482015260208601516024820152908501516044820152606085015160648201526080850151608482015260a085015160a482015260c481018390526000918291600160a060020a0390911690631bb6ebbb9060e4016040805180830381865afa158015612092573d6000803e3d6000fd5b505050506040513d601f19601f820116820180604052508101906120b691906137da565b915091508615612103576020860182905260a85460a75414156120f45780156120ef57609a546120ef90600160a060020a031682612dc9565b61214a565b80156120ef576120ef81612e78565b8115612113576121138b83612dc9565b60a85460a754141561213b5780156120ef57609a546120ef90600160a060020a031682612dc9565b801561214a5761214a81612e78565b50505b856124fa57600061215e8a8a6128de565b9050600060aa8c81548110612175576121756135a8565b906000526020600020906006020160050160009054906101000a9004600160a060020a031690506000819050600081600160a060020a03166344a3955e6040518163ffffffff1660e060020a028152600401602060405180830381865afa1580156121e4573d6000803e3d6000fd5b505050506040513d601f19601f8201168201806040525081019061220891906136d2565b8760200151612217919061371b565b82600160a060020a031663677379e56040518163ffffffff1660e060020a028152600401602060405180830381865afa158015612258573d6000803e3d6000fd5b505050506040513d601f19601f8201168201806040525081019061227c91906137fe565b6040517ff55850b4000000000000000000000000000000000000000000000000000000008152600160a060020a038681166004830152919091169063f55850b490602401602060405180830381865afa1580156122dd573d6000803e3d6000fd5b505050506040513d601f19601f8201168201806040525081019061230191906136d2565b88516123129064e8d4a5100061371b565b61231c919061371b565b612326919061373a565b6040517f55ebedec00000000000000000000000000000000000000000000000000000000815260048101829052909150600160a060020a038316906355ebedec906024016020604051808303816000875af1158015612389573d6000803e3d6000fd5b505050506040513d601f19601f820116820180604052508101906123ad91906136d2565b5050855160048601546123c39350909150613704565b60048481019190915583546040517f70a082310000000000000000000000000000000000000000000000000000000081523092810192909252600160a060020a0316906370a0823190602401602060405180830381865afa15801561242c573d6000803e3d6000fd5b505050506040513d601f19601f8201168201806040525081019061245091906136d2565b855260008b815260ab60209081526040808320600160a060020a0385168452909152902080544291908a908110612489576124896135a8565b9060005260206000209060060201600501819055505089886040516124ae91906137be565b6040805191829003822087518b8452602084015291600160a060020a038d16917fa7749cd42821d3b82a6814af6d80712b2e43f98ec1b25aee31c8351855de65d9910160405180910390a45b5050509695505050505050565b604051600160a060020a0383166024820152604481018290526125509084907fa9059cbb0000000000000000000000000000000000000000000000000000000090606401611a21565b505050565b600080600060aa888154811061256d5761256d6135a8565b60009182526020822060056006909202010154600160a060020a03169150612599898c8c8b8b8a611ddd565b90506125d882826000015160aa8c815481106125b7576125b76135a8565b6000918252602090912060069091020154600160a060020a03169190612987565b80516040517f648794a4000000000000000000000000000000000000000000000000000000008152600481019190915260248101879052600160a060020a0383169063648794a4906044016020604051808303816000875af1158015612642573d6000803e3d6000fd5b505050506040513d601f19601f8201168201806040525081019061266691906136d2565b935080602001519250505097509795505050505050565b600060aa8881548110612692576126926135a8565b60009182526020822060069190910201600501546040517fe502a88d0000000000000000000000000000000000000000000000000000000081526004810188905260248101859052600160a060020a039091169250829063e502a88d906044016020604051808303816000875af1158015612711573d6000803e3d6000fd5b505050506040513d601f19601f8201168201806040525081019061273591906136d2565b905061274f828260aa8c815481106125b7576125b76135a8565b61275d898989848989611a8b565b50505050505050505050565b60a85460a75414156127905760405160e560020a62461bcd02815260040161081f906135f8565b8060a55461279e919061375f565b60a55550565b60338054600160a060020a03838116600160a060020a0319831681179093556040519116919082907f8be0079c531659141344cd1fd0a4f28419497f9722a3daafe3b4186f6b6457e090600090a35050565b600061284b826040518060400160405280602081526020017f5361666545524332303a206c6f772d6c6576656c2063616c6c206661696c656481525085600160a060020a0316612eb39092919063ffffffff16565b8051909150156125505780806020019051810190612869919061381b565b6125505760405160e560020a62461bcd02815260206004820152602a60248201527f5361666545524332303a204552433230206f7065726174696f6e20646964206e60448201527f6f74207375636365656400000000000000000000000000000000000000000000606482015260840161081f565b81600160a060020a038116610f5b5760008251116129675760405160e560020a62461bcd02815260206004820152602c60248201527f4e65697468657220666f726569676e2061636374206e6f72206c6f63616c206160448201527f6363742070726f76696465640000000000000000000000000000000000000000606482015260840161081f565b61297082613838565b6c0100000000000000000000000090049392505050565b6040517fdd62ed3e000000000000000000000000000000000000000000000000000000008152306004820152600160a060020a038381166024830152600091839186169063dd62ed3e90604401602060405180830381865afa1580156129f1573d6000803e3d6000fd5b505050506040513d601f19601f82011682018060405250810190612a1591906136d2565b612a1f919061375f565b604051600160a060020a038516602482015260448101829052909150611a859085907f095ea7b30000000000000000000000000000000000000000000000000000000090606401611a21565b600060aa8881548110612a8057612a806135a8565b600091825260208083206040805160c0808201835260069095029092018054600160a060020a03908116845260018201548486015260028201548484015260038201546060850190815260048301546080860190815260059093015490911660a0850152825195860183528b86529385018a905251925191955083019190612b09908a9061371b565b612b13919061373a565b815260208082018790526040808301879052600060609384018190528d815260ab8352818120600160a060020a038e1682528352818120805460018181018355918352918490208651600690930201918255928501519281019290925583015160028201559082015160038201556080820151600482015560a0820151600590910155875190915015612c1b578760ac60008b815260200190815260200160002088604051612bc291906137be565b908152602001604051809103902060006001612bde8d8d610f37565b612be89190613704565b815260200190815260200160002060006101000a815481600160a060020a030219169083600160a060020a031602179055505b505050505050505050565b612c5f6040518060c001604052806000815260200160008152602001600081526020016000815260200160008152602001600081525090565b600160a060020a03821615612cfe57600085815260ab60209081526040808320600160a060020a03861684529091529020805485908110612ca257612ca26135a8565b90600052602060002090600602016040518060c001604052908160008201548152602001600182015481526020016002820154815260200160038201548152602001600482015481526020016005820154815250509050612dc1565b600085815260ac60205260408082209051612d1a9086906137be565b908152604080516020928190038301902060008881529083528181205489825260ab8452828220600160a060020a0390911680835293522080549192509086908110612d6857612d686135a8565b90600052602060002090600602016040518060c001604052908160008201548152602001600182015481526020016002820154815260200160038201548152602001600482015481526020016005820154815250509150505b949350505050565b6097546040517f70a082310000000000000000000000000000000000000000000000000000000081523060048201528291600091600160a060020a03909116906370a0823190602401602060405180830381865afa158015612e2f573d6000803e3d6000fd5b505050506040513d601f19601f82011682018060405250810190612e5391906136d2565b905080831115612e61578091505b609754611a8590600160a060020a03168584612507565b60a85460a7541415612e9f5760405160e560020a62461bcd02815260040161081f906135f8565b8060a654612ead919061375f565b60a65550565b6060612ec28484600085612ecc565b90505b9392505050565b60603031831115612f485760405160e560020a62461bcd02815260206004820152602660248201527f416464726573733a20696e73756666696369656e742062616c616e636520666f60448201527f722063616c6c0000000000000000000000000000000000000000000000000000606482015260840161081f565b600160a060020a0385163b612fa25760405160e560020a62461bcd02815260206004820152601d60248201527f416464726573733a2063616c6c20746f206e6f6e2d636f6e7472616374000000604482015260640161081f565b60008086600160a060020a03168587604051612fbe91906137be565b60006040518083038185875af1925050503d8060008114612ffb576040519150601f19603f3d011682016040523d82523d6000602084013e613000565b606091505b509150915061301082828661301b565b979650505050505050565b6060831561302a575081612ec5565b82511561303a5782518084602001fd5b8160405160e560020a62461bcd02815260040161081f9190613877565b60008060006060848603121561306c57600080fd5b505081359360208301359350604090920135919050565b600160a060020a03811681146118c457600080fd5b600080604083850312156130ab57600080fd5b82356130b681613083565b915060208301356130c681613083565b809150509250929050565b6000602082840312156130e357600080fd5b5035919050565b600080604083850312156130fd57600080fd5b8235915060208301356130c681613083565b60e060020a634e487b7102600052604160045260246000fd5b600082601f83011261313957600080fd5b813567ffffffffffffffff808211156131545761315461310f565b604051601f8301601f19908116603f0116810190828211818310171561317c5761317c61310f565b8160405283815286602085880101111561319557600080fd5b836020870160208301376000602085830101528094505050505092915050565b6000806000606084860312156131ca57600080fd5b83359250602084013567ffffffffffffffff8111156131e857600080fd5b6131f486828701613128565b925050604084013590509250925092565b80151581146118c457600080fd5b60008060006060848603121561322857600080fd5b8335925060208401359150604084013561324181613205565b809150509250925092565b60008060008060008060c0878903121561326557600080fd5b863561327081613083565b9550602087013567ffffffffffffffff81111561328c57600080fd5b61329889828a01613128565b955050604087013593506060870135925060808701356132b781613205565b8092505060a087013590509295509295509295565b600080600080608085870312156132e257600080fd5b5050823594602084013594506040840135936060013592509050565b60006020828403121561331057600080fd5b8135612ec581613083565b60008060006060848603121561333057600080fd5b8335925060208401359150604084013561324181613083565b600080600080600060a0868803121561336157600080fd5b505083359560208501359550604085013594606081013594506080013592509050565b60006020828403121561339657600080fd5b8135612ec581613205565b600080600080608085870312156133b757600080fd5b843593506020850135925060408501356133d081613205565b9396929550929360600135925050565b6000806000606084860312156133f557600080fd5b83359250602084013561340781613083565b929592945050506040919091013590565b6000806040838503121561342b57600080fd5b50508035926020909101359150565b6000806040838503121561344d57600080fd5b823561345881613083565b946020939093013593505050565b600080600080600080600060e0888a03121561348157600080fd5b87359650602088013561349381613083565b9550604088013567ffffffffffffffff8111156134af57600080fd5b6134bb8a828b01613128565b979a96995096976060810135975060808101359660a0820135965060c090910135945092505050565b6000806000806000608086880312156134fc57600080fd5b85359450602086013567ffffffffffffffff8082111561351b57600080fd5b818801915088601f83011261352f57600080fd5b81358181111561353e57600080fd5b896020808302850101111561355257600080fd5b9699602092909201985095966040810135965060600135945092505050565b6020808252601f908201527f5265656e7472616e637947756172643a207265656e7472616e742063616c6c00604082015260600190565b60e060020a634e487b7102600052603260045260246000fd5b60208082526011908201527f6f6e6c79205a6f72726f206f7261636c65000000000000000000000000000000604082015260600190565b60208082526017908201527f466f72206e6f6e20686f6d6520636861696e206f6e6c79000000000000000000604082015260600190565b6020808252818101527f4f776e61626c653a2063616c6c6572206973206e6f7420746865206f776e6572604082015260600190565b6020808252600b908201527f78636861696e206f6e6c79000000000000000000000000000000000000000000604082015260600190565b6020808252600f908201527f6f6e6c7920686f6d6520636861696e0000000000000000000000000000000000604082015260600190565b6000602082840312156136e457600080fd5b5051919050565b60e060020a634e487b7102600052601160045260246000fd5b600082821015613716576137166136eb565b500390565b6000816000190483118215151615613735576137356136eb565b500290565b60008261375a5760e060020a634e487b7102600052601260045260246000fd5b500490565b60008219821115613772576137726136eb565b500190565b600060001982141561378b5761378b6136eb565b5060010190565b60005b838110156137ad578181015183820152602001613795565b83811115611a855750506000910152565b600082516137d0818460208701613792565b9190910192915050565b600080604083850312156137ed57600080fd5b505080516020909101519092909150565b60006020828403121561381057600080fd5b8151612ec581613083565b60006020828403121561382d57600080fd5b8151612ec581613205565b805160208201516bffffffffffffffffffffffff19808216929190601483101561386f57808360140360080260020a820283161693505b505050919050565b6020815260008251806020840152613896816040850160208701613792565b601f01601f1916919091016040019291505056fea26469706673582212202a48fc6d7e3a9d7e18984d6a730dee9ae5b6515b8cbe0f7bbf9e75c4c913970664736f6c634300080a0033",
  "immutableReferences": {},
  "source": "// SPDX-License-Identifier: MIT\n\npragma solidity ^0.8.0;\n\nimport \"@openzeppelin/contracts-upgradeable/token/ERC20/utils/SafeERC20Upgradeable.sol\";\n\nimport \"./_ZorroControllerBase.sol\";\n\nimport \"../interfaces/Zorro/Vaults/IVault.sol\";\n\nimport \"../interfaces/IZorroController.sol\";\n\nimport \"./actions/ZorroControllerActions.sol\";\n\n// TODO: Replace this with the interface for VaultActions, once it's created\nimport \"../vaults/actions/_VaultActions.sol\";\n\ncontract ZorroControllerInvestment is\n    IZorroControllerInvestment,\n    ZorroControllerBase\n{\n    /* Libraries */\n\n    using SafeERC20Upgradeable for IERC20Upgradeable;\n\n    /* State */\n\n    // Rewards\n    bool public isTimeMultiplierActive; // If true, allows use of time multiplier\n    // Cross chain\n    address public zorroXChainEndpoint; // Cross chain controller contract\n\n    /* Modifiers */\n\n    /// @notice Only allow sender to be the cross chain controller contract\n    modifier onlyZorroXChain() {\n        require(_msgSender() == zorroXChainEndpoint, \"xchain only\");\n        _;\n    }\n\n    /* Setters */\n\n    /// @notice Setter: Set time multiplier\n    /// @param _isActive Whether it shall be active. If false, timemultiplier will be 1.\n    function setIsTimeMultiplierActive(bool _isActive) external onlyOwner {\n        isTimeMultiplierActive = _isActive;\n    }\n\n    /// @notice Setter: Cross chain endpoint\n    /// @param _contract Contract address of endpoint\n    function setZorroXChainEndpoint(address _contract) external onlyOwner {\n        zorroXChainEndpoint = _contract;\n    }\n\n    /* Cash flow */\n\n    /// @notice Deposit Want tokens to associated Vault\n    /// @param _pid index of pool\n    /// @param _wantAmt how much Want token to deposit\n    /// @param _weeksCommitted how many weeks the user is committing to on this vault\n    function deposit(\n        uint256 _pid,\n        uint256 _wantAmt,\n        uint256 _weeksCommitted\n    ) public nonReentrant {\n        // Get pool info\n        PoolInfo storage pool = poolInfo[_pid];\n\n        // Transfer the Want token from the user to the this contract\n        IERC20Upgradeable(pool.want).safeTransferFrom(\n            msg.sender,\n            address(this),\n            _wantAmt\n        );\n\n        // Call core deposit function\n        _deposit(\n            _pid,\n            msg.sender,\n            \"\",\n            _wantAmt,\n            _weeksCommitted,\n            block.timestamp\n        );\n    }\n\n    /// @notice Deposits tokens into Vault, updates poolInfo and trancheInfo ledgers\n    /// @dev Because the vault entry date can be backdated, this is a dangerous method and should only be accessed indirectly through other functions\n    /// @param _pid index of pool\n    /// @param _account address of on-chain user (required for onchain, optional for cross-chain)\n    /// @param _foreignAccount address of origin chain user (for cross chain transactions it's required)\n    /// @param _wantAmt how much Want token to deposit (must already be sent to the vault)\n    /// @param _weeksCommitted how many weeks the user is committing to on this vault\n    /// @param _enteredVaultAt Date to backdate vault entry to\n    /// @return _mintedZORRewards Amount of ZOR rewards minted\n    function _deposit(\n        uint256 _pid,\n        address _account,\n        bytes memory _foreignAccount,\n        uint256 _wantAmt,\n        uint256 _weeksCommitted,\n        uint256 _enteredVaultAt\n    ) internal returns (uint256 _mintedZORRewards) {\n        // Get pool info\n        PoolInfo storage pool = poolInfo[_pid];\n\n        // Preflight checks\n        require(_wantAmt > 0, \"_wantAmt must be > 0!\");\n\n        // Update the pool before anything to ensure rewards have been updated and transferred\n        _mintedZORRewards = updatePool(_pid);\n\n        // Get local chain account, as applicable\n        address _localAccount = _getLocalAccount(_account, _foreignAccount);\n\n        // Allowance\n        IERC20Upgradeable(pool.want).safeIncreaseAllowance(\n            pool.vault,\n            _wantAmt\n        );\n\n        // Perform the actual deposit function on the underlying Vault contract and get the number of shares to add\n        uint256 sharesAdded = IVault(poolInfo[_pid].vault).depositWantToken(\n            _wantAmt\n        );\n\n        // Determine time multiplier value.\n        uint256 _timeMultiplier = ZorroControllerActions(controllerActions)\n            .getTimeMultiplier(_weeksCommitted, isTimeMultiplierActive);\n\n        // Determine the individual user contribution based on the quantity of tokens to stake and the time multiplier\n        uint256 _contributionAdded = ZorroControllerActions(controllerActions)\n            .getUserContribution(sharesAdded, _timeMultiplier);\n\n        // Update pool info: Increment the pool's total contributions by the contribution added\n        pool.totalTrancheContributions += _contributionAdded;\n\n        // Create tranche\n        _createTranche(\n            _pid,\n            _localAccount,\n            _foreignAccount,\n            _contributionAdded,\n            _timeMultiplier,\n            _weeksCommitted,\n            _enteredVaultAt\n        );\n\n        // Emit deposit event\n        emit Deposit(_localAccount, _foreignAccount, _pid, _wantAmt);\n    }\n\n    function _getLocalAccount(address _account, bytes memory _foreignAccount)\n        private\n        pure\n        returns (address localAccount)\n    {\n        // Default to provided address if applicable\n        localAccount = _account;\n\n        // Otherwise try to extract from foreign account\n        if (_account == address(0)) {\n            // Foreign account MUST be provided\n            require(\n                _foreignAccount.length > 0,\n                \"Neither foreign acct nor local acct provided\"\n            );\n            // If no local account provided, truncate foreign chain address to 20-bytes\n            localAccount = address(bytes20(_foreignAccount));\n        }\n    }\n\n    /// @notice Internal function for updating tranche ledger upon deposit\n    /// @param _pid Index of pool\n    /// @param _localAccount On-chain address\n    /// @param _foreignAccount Cross-chain address, if applicable\n    /// @param _timeMultiplier Time multiplier factor for rewards\n    /// @param _durationCommittedInWeeks Commitment in weeks for time multiplier\n    /// @param _enteredVaultAt Timestamp at which entered vault\n    function _createTranche(\n        uint256 _pid,\n        address _localAccount,\n        bytes memory _foreignAccount,\n        uint256 _contributionAdded,\n        uint256 _timeMultiplier,\n        uint256 _durationCommittedInWeeks,\n        uint256 _enteredVaultAt\n    ) internal {\n        // Get pool\n        PoolInfo memory pool = poolInfo[_pid];\n\n        // Create tranche info\n        TrancheInfo memory _trancheInfo = TrancheInfo({\n            contribution: _contributionAdded, // Contribution including time multiplier\n            timeMultiplier: _timeMultiplier,\n            rewardDebt: (pool.accZORRORewards * _contributionAdded) /\n                pool.totalTrancheContributions, // Pro-rata share of accumulated pool rewards, time-commitment weighted\n            durationCommittedInWeeks: _durationCommittedInWeeks,\n            enteredVaultAt: _enteredVaultAt,\n            exitedVaultAt: 0\n        });\n\n        // Push a new tranche for this on-chain user\n        trancheInfo[_pid][_localAccount].push(_trancheInfo);\n\n        // If foreign account provided, write the tranche info to the foreign account ledger as well\n        if (_foreignAccount.length > 0) {\n            foreignTrancheInfo[_pid][_foreignAccount][\n                trancheLength(_pid, _localAccount) - 1\n            ] = _localAccount;\n        }\n    }\n\n    /// @notice Deposits funds in a full service manner (performs autoswaps and obtains Want tokens)\n    /// @param _pid index of pool to deposit into\n    /// @param _valueUSD value in USD (in ether units) to deposit\n    /// @param _weeksCommitted how many weeks to commit to the Pool (can be 0 or any uint)\n    /// @param _maxMarketMovement factor to account for max market movement/slippage. The definition varies by Vault, so consult the associated Vault contract for info\n    function depositFullService(\n        uint256 _pid,\n        uint256 _valueUSD,\n        uint256 _weeksCommitted,\n        uint256 _maxMarketMovement\n    ) public nonReentrant {\n        // Get Pool, Vault contract\n        address vaultAddr = poolInfo[_pid].vault;\n\n        // Safe transfer to Vault contract\n        IERC20Upgradeable(defaultStablecoin).safeTransferFrom(\n            msg.sender,\n            vaultAddr,\n            _valueUSD\n        );\n\n        // Run core full deposit\n        _depositFullService(\n            _pid,\n            msg.sender,\n            \"\",\n            _valueUSD,\n            _weeksCommitted,\n            block.timestamp,\n            _maxMarketMovement\n        );\n    }\n\n    /// @notice Full service deposit function to be called by ZorroControllerXChain only.\n    /// @param _pid index of pool to deposit into\n    /// @param _account address of user on-chain\n    /// @param _foreignAccount the cross chain wallet that initiated this call, if applicable.\n    /// @param _valueUSD value in USD (in ether units) to deposit\n    /// @param _weeksCommitted how many weeks to commit to the Pool (can be 0 or any uint)\n    /// @param _vaultEnteredAt date that the vault was entered at\n    /// @param _maxMarketMovement factor to account for max market movement/slippage. The definition varies by Vault, so consult the associated Vault contract for info\n    function depositFullServiceFromXChain(\n        uint256 _pid,\n        address _account,\n        bytes memory _foreignAccount,\n        uint256 _valueUSD,\n        uint256 _weeksCommitted,\n        uint256 _vaultEnteredAt,\n        uint256 _maxMarketMovement\n    ) public onlyZorroXChain {\n        // Get Pool, Vault contract\n        address vaultAddr = poolInfo[_pid].vault;\n\n        // Safe transfer to Vault contract\n        IERC20Upgradeable(defaultStablecoin).safeTransferFrom(\n            msg.sender,\n            vaultAddr,\n            _valueUSD\n        );\n\n        // Make deposit full service call\n        _depositFullService(\n            _pid,\n            _account,\n            _foreignAccount,\n            _valueUSD,\n            _weeksCommitted,\n            _vaultEnteredAt,\n            _maxMarketMovement\n        );\n    }\n\n    /// @notice Private function for depositing\n    /// @dev Dangerous method, as vaultEnteredAt can be backdated\n    /// @param _pid index of pool to deposit into\n    /// @param _account address of user on-chain\n    /// @param _foreignAccount the cross chain wallet that initiated this call, if applicable.\n    /// @param _valueUSD value in USD (in ether units) to deposit\n    /// @param _weeksCommitted how many weeks to commit to the Pool (can be 0 or any uint)\n    /// @param _vaultEnteredAt date that the vault was entered at\n    /// @param _maxMarketMovement factor to account for max market movement/slippage. The definition varies by Vault, so consult the associated Vault contract for info\n    function _depositFullService(\n        uint256 _pid,\n        address _account,\n        bytes memory _foreignAccount,\n        uint256 _valueUSD,\n        uint256 _weeksCommitted,\n        uint256 _vaultEnteredAt,\n        uint256 _maxMarketMovement\n    ) internal {\n        // Get Pool, Vault contract\n        address vaultAddr = poolInfo[_pid].vault;\n\n        // Exchange USD for Want token in the Vault contract\n        uint256 _wantAmt = IVault(vaultAddr).exchangeUSDForWantToken(\n            _valueUSD,\n            _maxMarketMovement\n        );\n\n        // Safe increase allowance and xfer Want to vault contract\n        IERC20Upgradeable(poolInfo[_pid].want).safeIncreaseAllowance(\n            vaultAddr,\n            _wantAmt\n        );\n\n        // Make deposit\n        // Call core deposit function\n        _deposit(\n            _pid,\n            _account,\n            _foreignAccount,\n            _wantAmt,\n            _weeksCommitted,\n            _vaultEnteredAt\n        );\n    }\n\n    /// @notice Fully withdraw Want tokens from underlying Vault.\n    /// @param _pid index of pool\n    /// @param _trancheId index of tranche\n    /// @param _harvestOnly If true, will only harvest Zorro tokens but not do a withdrawal\n    /// @return Amount of Want token withdrawn\n    function withdraw(\n        uint256 _pid,\n        uint256 _trancheId,\n        bool _harvestOnly\n    ) public nonReentrant returns (uint256) {\n        // Withdraw Want token\n        WithdrawalResult memory _res = _withdraw(\n            _pid,\n            msg.sender,\n            \"\",\n            _trancheId,\n            _harvestOnly,\n            false\n        );\n\n        // Transfer to user and return Want amount\n        IERC20Upgradeable(poolInfo[_pid].want).safeTransfer(\n            msg.sender,\n            _res.wantAmt\n        );\n\n        return _res.wantAmt;\n    }\n\n    /// @notice Internal function for withdrawing Want tokens from underlying Vault.\n    /// @dev Can only specify one of _localAccount, _foreignAccount\n    /// @param _pid index of pool\n    /// @param _localAccount Address of the on-chain account that the investment was made with\n    /// @param _foreignAccount Address of the foreign chain account that this inviestment was made with\n    /// @param _trancheId index of tranche\n    /// @param _harvestOnly If true, will only harvest Zorro tokens but not do a withdrawal\n    /// @param _xChainRepatriation Intended for repatriation to another chain\n    /// @return _res A WithdrawalResult struct containing relevant withdrawal result parameters\n    function _withdraw(\n        uint256 _pid,\n        address _localAccount,\n        bytes memory _foreignAccount,\n        uint256 _trancheId,\n        bool _harvestOnly,\n        bool _xChainRepatriation\n    ) internal returns (WithdrawalResult memory _res) {\n        // Can only specify one account (on-chain/foreign, but not both)\n        require(\n            (_localAccount == address(0) && _foreignAccount.length > 0) ||\n                (_localAccount != address(0) && _foreignAccount.length == 0),\n            \"Only one account type allowed\"\n        );\n        // Determine account type and associated values\n        TrancheInfo memory _tranche = _getTranche(\n            _pid,\n            _trancheId,\n            _foreignAccount,\n            _localAccount\n        );\n\n        // Get pool and current tranche info\n        PoolInfo storage _pool = poolInfo[_pid];\n\n        // Require non-zero tranche contribution\n        require(_tranche.contribution > 0, \"tranche.contribution is 0\");\n        // Require non-zero overall tranche contribution\n        require(\n            _pool.totalTrancheContributions > 0,\n            \"totalTrancheContributions is 0\"\n        );\n        // Require that tranche has not yet been exited\n        require(_tranche.exitedVaultAt == 0, \"Already exited vault\");\n\n        // Update the pool before anything to ensure rewards have been updated and transferred\n        updatePool(_pid);\n\n        // Get pending rewards\n        uint256 _pendingRewards = (_tranche.contribution *\n            _pool.accZORRORewards) /\n            _pool.totalTrancheContributions -\n            _tranche.rewardDebt;\n\n        // Withdraw pending ZORRO rewards (a.k.a. \"Harvest\")\n        if (_pendingRewards > 0) {\n            // If pending rewards payable, pay them out\n            (\n                uint256 _rewardsDue,\n                uint256 _slashedRewards\n            ) = ZorroControllerActions(controllerActions).getAdjustedRewards(\n                    _tranche,\n                    _pendingRewards\n                );\n\n            if (_xChainRepatriation) {\n                // Update rewardsDueXChain\n                _res.rewardsDueXChain = _rewardsDue;\n\n                if (chainId == homeChainId) {\n                    // If repatriating AND on home chain\n\n                    // Transfer any slashed rewards to single Zorro staking vault, if applicable\n                    if (_slashedRewards > 0) {\n                        // Transfer slashed rewards to vault to reward ZORRO stakers\n                        _safeZORROTransfer(zorroStakingVault, _slashedRewards);\n                    }\n                } else {\n                    // If repatriating and NOT on home chain,\n\n                    // Record slashed rewards for Oracle to pick up and burn the corresponding amount on the home chain\n                    if (_slashedRewards > 0) {\n                        _recordSlashedRewards(_slashedRewards);\n                    }\n                }\n            } else {\n                // Transfer ZORRO rewards to user, net of any applicable slashing\n                if (_rewardsDue > 0) {\n                    _safeZORROTransfer(_localAccount, _rewardsDue);\n                }\n\n                if (chainId == homeChainId) {\n                    // If NOT repatriating AND on home chain\n\n                    // Transfer any slashed rewards to single Zorro staking vault, if applicable\n                    if (_slashedRewards > 0) {\n                        // Transfer slashed rewards to vault to reward ZORRO stakers\n                        _safeZORROTransfer(zorroStakingVault, _slashedRewards);\n                    }\n                } else {\n                    // If NOT repatriating and NOT on home chain\n\n                    // Record slashed rewards for Oracle to pick up and burn the corresponding amount on the home chain\n                    if (_slashedRewards > 0) {\n                        _recordSlashedRewards(_slashedRewards);\n                    }\n                }\n            }\n        }\n\n        // If not just harvesting (withdrawing too), proceed with below\n        if (!_harvestOnly) {\n            // Perform the actual withdrawal function on the underlying Vault contract and get the number of shares to remove\n\n            // Separate block to make stack shallow\n            {\n                // Get local (on-chain) account\n                address _resolvedLocalAcct = _getLocalAccount(\n                    _localAccount,\n                    _foreignAccount\n                );\n\n                // Sub block\n                {\n                    // Get vault\n                    address _vaultAddr = poolInfo[_pid].vault;\n                    IVault _vault = IVault(_vaultAddr);\n\n                    // Get staked want tokens\n                    // TODO: Need to call updateSupply() first, or else the currentWantEquity could be out of date\n                    // OR: Do it based on number of shares. Why not? \n                    uint256 _stakedWantAmt = (_tranche.contribution *\n                        1e12 *\n                        VaultActions(_vault.vaultActions()).currentWantEquity(\n                            _vaultAddr\n                        )) / (_tranche.timeMultiplier * _vault.sharesTotal());\n\n                    // Withdraw the want token for this account\n                    _vault.withdrawWantToken(_stakedWantAmt);\n                }\n\n                // Update shares safely\n                _pool.totalTrancheContributions =\n                    _pool.totalTrancheContributions -\n                    _tranche.contribution;\n\n                // Calculate Want token balance\n                _res.wantAmt = IERC20Upgradeable(_pool.want).balanceOf(\n                    address(this)\n                );\n\n                // Mark tranche as exited\n                trancheInfo[_pid][_resolvedLocalAcct][_trancheId]\n                    .exitedVaultAt = block.timestamp;\n            }\n            \n\n            // Emit withdrawal event and return want balance\n            emit Withdraw(\n                _localAccount,\n                _foreignAccount,\n                _pid,\n                _trancheId,\n                _res.wantAmt\n            );\n        }\n    }\n\n    /// @notice Get tranche based on tranche ID and account information\n    /// @dev Takes into account potential cross chain identities\n    /// @param _pid Pool ID\n    /// @param _trancheId Tranche ID\n    /// @param _foreignAccount Identity of the foreign account that the tranche might be associated with\n    /// @param _localAccount Identity of the account on the local chain that the tranche might be associated with\n    /// @return _tranche TrancheInfo object for the tranche found\n    function _getTranche(\n        uint256 _pid,\n        uint256 _trancheId,\n        bytes memory _foreignAccount,\n        address _localAccount\n    ) internal view returns (TrancheInfo memory _tranche) {\n        if (_localAccount != address(0)) {\n            // On-chain withdrawal\n            _tranche = trancheInfo[_pid][_localAccount][_trancheId];\n        } else {\n            // Cross-chain withdrawal\n            address _ftLocalAcct = foreignTrancheInfo[_pid][_foreignAccount][\n                _trancheId\n            ];\n            _tranche = trancheInfo[_pid][_ftLocalAcct][_trancheId];\n        }\n    }\n\n    /// @notice Withdraws funds from a pool and converts the Want token into USD\n    /// @param _pid index of pool to deposit into\n    /// @param _trancheId index of tranche\n    /// @param _harvestOnly If true, will only harvest Zorro tokens but not do a withdrawal\n    /// @param _maxMarketMovement factor to account for max market movement/slippage. The definition varies by Vault, so consult the associated Vault contract for info\n    /// @return Amount (in USD) returned\n    function withdrawalFullService(\n        uint256 _pid,\n        uint256 _trancheId,\n        bool _harvestOnly,\n        uint256 _maxMarketMovement\n    ) public nonReentrant returns (uint256) {\n        // Withdraw Want token\n        (uint256 _amountUSD, ) = _withdrawalFullService(\n            msg.sender,\n            \"\",\n            _pid,\n            _trancheId,\n            _harvestOnly,\n            _maxMarketMovement,\n            false\n        );\n\n        // Send USD funds back to sender\n        IERC20Upgradeable(defaultStablecoin).safeTransfer(\n            msg.sender,\n            _amountUSD\n        );\n\n        return _amountUSD;\n    }\n\n    /// @notice Full service withdrawal to be called from authorized cross chain endpoint\n    /// @param _account address of wallet on-chain\n    /// @param _foreignAccount address of wallet cross-chain (that originally made this deposit)\n    /// @param _pid index of pool to deposit into\n    /// @param _trancheId index of tranche\n    /// @param _harvestOnly If true, will only harvest Zorro tokens but not do a withdrawal\n    /// @param _maxMarketMovement factor to account for max market movement/slippage. The definition varies by Vault, so consult the associated Vault contract for info\n    /// @return _amountUSD Amount of USD withdrawn\n    /// @return _rewardsDueXChain Amount of ZOR rewards due to the origin (cross chain) user\n    function withdrawalFullServiceFromXChain(\n        address _account,\n        bytes memory _foreignAccount,\n        uint256 _pid,\n        uint256 _trancheId,\n        bool _harvestOnly,\n        uint256 _maxMarketMovement\n    )\n        public\n        onlyZorroXChain\n        returns (uint256 _amountUSD, uint256 _rewardsDueXChain)\n    {\n        // Call withdrawal function on chain\n        (_amountUSD, _rewardsDueXChain) = _withdrawalFullService(\n            _account,\n            _foreignAccount,\n            _pid,\n            _trancheId,\n            _harvestOnly,\n            _maxMarketMovement,\n            true\n        );\n\n        // Transfer USD balance obtained to caller\n        if (_amountUSD > 0) {\n            IERC20Upgradeable(defaultStablecoin).safeTransfer(\n                msg.sender,\n                _amountUSD\n            );\n        }\n\n        // Burn xchain ZOR rewards due before repatriating, if applicable. (They will be minted on opposite chain)\n        if (_rewardsDueXChain > 0) {\n            IERC20Upgradeable(ZORRO).safeTransfer(\n                burnAddress,\n                _rewardsDueXChain\n            );\n        }\n    }\n\n    /// @notice Private function for withdrawing funds from a pool and converting the Want token into USD\n    /// @param _account address of wallet on-chain\n    /// @param _foreignAccount address of wallet cross-chain (that originally made this deposit)\n    /// @param _pid index of pool to deposit into\n    /// @param _trancheId index of tranche\n    /// @param _harvestOnly If true, will only harvest Zorro tokens but not do a withdrawal\n    /// @param _maxMarketMovement factor to account for max market movement/slippage. The definition varies by Vault, so consult the associated Vault contract for info\n    /// @param _xChainRepatriation Intended for repatriation to another chain\n    /// @return _amountUSD Amount of USD withdrawn\n    /// @return _rewardsDueXChain Amount of ZOR rewards due to the origin (cross chain) user\n    function _withdrawalFullService(\n        address _account,\n        bytes memory _foreignAccount,\n        uint256 _pid,\n        uint256 _trancheId,\n        bool _harvestOnly,\n        uint256 _maxMarketMovement,\n        bool _xChainRepatriation\n    ) internal returns (uint256 _amountUSD, uint256 _rewardsDueXChain) {\n        // Get Vault contract\n        address _vaultAddr = poolInfo[_pid].vault;\n\n        // Call core withdrawal function (returns actual amount withdrawn)\n        WithdrawalResult memory _res = _withdraw(\n            _pid,\n            _account,\n            _foreignAccount,\n            _trancheId,\n            _harvestOnly,\n            _xChainRepatriation\n        );\n\n        // Safe increase spending of Vault contract for Want token\n        IERC20Upgradeable(poolInfo[_pid].want).safeIncreaseAllowance(\n            _vaultAddr,\n            _res.wantAmt\n        );\n\n        // Exchange Want for USD\n        _amountUSD = IVault(_vaultAddr).exchangeWantTokenForUSD(\n            _res.wantAmt,\n            _maxMarketMovement\n        );\n\n        _rewardsDueXChain = _res.rewardsDueXChain;\n    }\n\n    /// @notice Transfer all assets from a tranche in one vault to a new vault (works on-chain only)\n    /// @param _fromPid index of pool FROM\n    /// @param _fromTrancheId index of tranche FROM\n    /// @param _toPid index of pool TO\n    /// @param _maxMarketMovement factor to account for max market movement/slippage. The definition varies by Vault, so consult the associated Vault contract for info\n    function transferInvestment(\n        uint256 _fromPid,\n        uint256 _fromTrancheId,\n        uint256 _toPid,\n        uint256 _maxMarketMovement\n    ) public nonReentrant {\n        // Get weeks committed and entered at\n        uint256 weeksCommitted = trancheInfo[_fromPid][msg.sender][\n            _fromTrancheId\n        ].durationCommittedInWeeks;\n        uint256 enteredVaultAt = trancheInfo[_fromPid][msg.sender][\n            _fromTrancheId\n        ].enteredVaultAt;\n\n        // Withdraw\n        (uint256 withdrawnUSD, ) = _withdrawalFullService(\n            msg.sender,\n            \"\",\n            _fromPid,\n            _fromTrancheId,\n            false,\n            _maxMarketMovement,\n            false\n        );\n\n        // Transfer funds to vault\n        IERC20Upgradeable(defaultStablecoin).safeTransfer(\n            poolInfo[_toPid].vault,\n            withdrawnUSD\n        );\n\n        // Redeposit\n        _depositFullService(\n            _toPid,\n            msg.sender,\n            \"\",\n            withdrawnUSD,\n            weeksCommitted,\n            enteredVaultAt,\n            _maxMarketMovement\n        );\n\n        emit TransferInvestment(msg.sender, _fromPid, _fromTrancheId, _toPid);\n    }\n\n    /// @notice Withdraw the maximum number of Want tokens from a pool\n    /// @param _pid index of pool\n    function withdrawAll(uint256 _pid) public nonReentrant {\n        // Iterate through all tranches for the current user and pool and withdraw\n        uint256 numTranches = trancheLength(_pid, msg.sender);\n        for (uint256 tid = 0; tid < numTranches; ++tid) {\n            _withdraw(_pid, msg.sender, \"\", tid, false, false);\n        }\n\n        // Transfer balance as applicable\n        uint256 _wantBal = IERC20Upgradeable(poolInfo[_pid].want).balanceOf(\n            address(this)\n        );\n        if (_wantBal > 0) {\n            IERC20Upgradeable(poolInfo[_pid].want).safeTransfer(\n                msg.sender,\n                _wantBal\n            );\n        }\n    }\n\n    /* X-chain rewards management */\n\n    /// @notice Gets rewards and sends to the recipient of a cross chain withdrawal\n    /// @param _rewardsDue The amount of rewards that need to be fetched and sent to the wallet\n    /// @param _destination Wallet to send funds to\n    function repatriateRewards(uint256 _rewardsDue, address _destination)\n        public\n        onlyZorroXChain\n    {\n        // Get rewards based on chain type\n        if (chainId == homeChainId) {\n            // On Home chain. Fetch rewards from public pool and send to wallet\n            _fetchFundsFromPublicPool(_rewardsDue, _destination);\n        } else {\n            // On other chain. Mint ZORRO tokens and send to wallet\n            IZorro(ZORRO).mint(_destination, _rewardsDue);\n        }\n    }\n\n    /// @notice Called by oracle to account for ZOR rewards that were minted or slashed on other chains\n    /// @dev Caller should call \"reset\" functions so that rewards aren't double-burned/allocated\n    /// @param _totalMinted Total ZOR rewards minted across other chains at this moment\n    /// @param _totalSlashed Total ZOR rewards slashed across other chains at this moment\n    function handleAccXChainRewards(uint256 _totalMinted, uint256 _totalSlashed)\n        public\n        onlyAllowZorroControllerOracle\n        onlyHomeChain\n    {\n        // Burn shares that were minted on other chains so that\n        // the total tokens minted across all chains is constant\n        IERC20Upgradeable(ZORRO).safeTransfer(\n            burnAddress,\n            _totalMinted - _totalSlashed\n        );\n\n        // Transfer slashed rewards from public pool to ZOR staking vault\n        _fetchFundsFromPublicPool(_totalSlashed, zorroStakingVault);\n    }\n}\n",
  "sourcePath": "/Users/kristophm/Documents/workspace/zorro-protocol/contracts/controllers/_ZorroControllerInvestment.sol",
  "compiler": {
    "name": "solc",
    "version": "0.8.10+commit.fc410830.Emscripten.clang"
  },
  "schemaVersion": "3.4.10",
  "updatedAt": "2022-12-08T13:57:31.573Z",
  "devdoc": {
    "kind": "dev",
    "methods": {
      "deposit(uint256,uint256,uint256)": {
        "params": {
          "_pid": "index of pool",
          "_wantAmt": "how much Want token to deposit",
          "_weeksCommitted": "how many weeks the user is committing to on this vault"
        }
      },
      "depositFullService(uint256,uint256,uint256,uint256)": {
        "params": {
          "_maxMarketMovement": "factor to account for max market movement/slippage. The definition varies by Vault, so consult the associated Vault contract for info",
          "_pid": "index of pool to deposit into",
          "_valueUSD": "value in USD (in ether units) to deposit",
          "_weeksCommitted": "how many weeks to commit to the Pool (can be 0 or any uint)"
        }
      },
      "depositFullServiceFromXChain(uint256,address,bytes,uint256,uint256,uint256,uint256)": {
        "params": {
          "_account": "address of user on-chain",
          "_foreignAccount": "the cross chain wallet that initiated this call, if applicable.",
          "_maxMarketMovement": "factor to account for max market movement/slippage. The definition varies by Vault, so consult the associated Vault contract for info",
          "_pid": "index of pool to deposit into",
          "_valueUSD": "value in USD (in ether units) to deposit",
          "_vaultEnteredAt": "date that the vault was entered at",
          "_weeksCommitted": "how many weeks to commit to the Pool (can be 0 or any uint)"
        }
      },
      "handleAccXChainRewards(uint256,uint256)": {
        "details": "Caller should call \"reset\" functions so that rewards aren't double-burned/allocated",
        "params": {
          "_totalMinted": "Total ZOR rewards minted across other chains at this moment",
          "_totalSlashed": "Total ZOR rewards slashed across other chains at this moment"
        }
      },
      "inCaseTokensGetStuck(address,uint256)": {
        "details": "Does not permit usage for the Zorro token",
        "params": {
          "_amount": "token quantity",
          "_token": "ERC20 token address"
        }
      },
      "owner()": {
        "details": "Returns the address of the current owner."
      },
      "poolLength()": {
        "returns": {
          "_0": "Number of pools"
        }
      },
      "renounceOwnership()": {
        "details": "Leaves the contract without owner. It will not be possible to call `onlyOwner` functions anymore. Can only be called by the current owner. NOTE: Renouncing ownership will leave the contract without an owner, thereby removing any functionality that is only available to the owner."
      },
      "repatriateRewards(uint256,address)": {
        "params": {
          "_destination": "Wallet to send funds to",
          "_rewardsDue": "The amount of rewards that need to be fetched and sent to the wallet"
        }
      },
      "resetSyntheticRewardsMinted()": {
        "details": "To be called by Oracle only, when batch burning synthetic minted rewards"
      },
      "resetSyntheticRewardsSlashed()": {
        "details": "To be called by Oracle only, when batch burning synthetic minted rewards"
      },
      "setBurnAddress(address)": {
        "params": {
          "_burnAddress": "The burn address on this chain"
        }
      },
      "setIsTimeMultiplierActive(bool)": {
        "params": {
          "_isActive": "Whether it shall be active. If false, timemultiplier will be 1."
        }
      },
      "setKeyAddresses(address,address)": {
        "params": {
          "_ZORRO": "ZOR token address",
          "_defaultStablecoin": "Main stablecoin address (USDC)"
        }
      },
      "setRewardsParams(uint256,uint256[],uint256,uint256)": {
        "details": "NOTE: Must enter all parameters or existing ones will be overwritten!",
        "params": {
          "_baseRewardRateBasisPoints": "Base reward rate factor, in bp",
          "_blocksPerDay": "# of blocks per day for this chain",
          "_chainMultiplier": "Rewards multiplier factor to be applied to this chain",
          "_dailyDistFactors": "Array of [ZORRODailyDistributionFactorBasisPointsMin, ZORRODailyDistributionFactorBasisPointsMax]"
        }
      },
      "setTargetTVLCaptureBasisPoints(uint256)": {
        "params": {
          "_targetTVLCaptureBasisPoints": "Percent of market desired to be captured, in bp. 333 = 3.33%. ONLY to be set on the home chain"
        }
      },
      "setXChainParams(uint256,uint256,address)": {
        "params": {
          "_chainId": "The ind of the chain that this contract is on",
          "_homeChainId": "The chain ID of the home chain",
          "_homeChainZorroController": "The address of the home chain controller"
        }
      },
      "setZorroContracts(address,address)": {
        "params": {
          "_publicPool": "Public pool address (where ZOR minted)",
          "_zorroStakingVault": "Zorro single staking vault address"
        }
      },
      "setZorroControllerOracle(address)": {
        "params": {
          "_zorroControllerOracle": "Address of Chainlink oracle that can interact with this contract"
        }
      },
      "setZorroPerBlock(uint256,uint256,uint256,uint256,uint256)": {
        "details": "Values to be provided by Oracle. Perferable to run daily",
        "params": {
          "_ZorroTotalVaultTVLUSD": "USD value of all TVL locked into the Zorro protocol, across all chains",
          "_publicPoolZORBalance": "Number of ZOR tokens remaining in public pool on home chain",
          "_targetTVLCaptureBasisPoints": "% desired capture of total market TVL, measured in basis points",
          "_totalChainMultipliers": "Sum total of all chain multipliers for each chain",
          "_totalMarketTVLUSD": "Total DeFi market TVL across all chains (measured in USD)"
        }
      },
      "setZorroXChainEndpoint(address)": {
        "params": {
          "_contract": "Contract address of endpoint"
        }
      },
      "trancheLength(uint256,address)": {
        "params": {
          "_pid": "Index of pool",
          "_user": "wallet address of user"
        },
        "returns": {
          "_0": "Number of tranches"
        }
      },
      "transferInvestment(uint256,uint256,uint256,uint256)": {
        "params": {
          "_fromPid": "index of pool FROM",
          "_fromTrancheId": "index of tranche FROM",
          "_maxMarketMovement": "factor to account for max market movement/slippage. The definition varies by Vault, so consult the associated Vault contract for info",
          "_toPid": "index of pool TO"
        }
      },
      "transferOwnership(address)": {
        "details": "Transfers ownership of the contract to a new account (`newOwner`). Can only be called by the current owner."
      },
      "updatePool(uint256)": {
        "params": {
          "_pid": "index of pool"
        },
        "returns": {
          "mintedZOR": "Amount of ZOR rewards minted (useful for cross chain)"
        }
      },
      "withdraw(uint256,uint256,bool)": {
        "params": {
          "_harvestOnly": "If true, will only harvest Zorro tokens but not do a withdrawal",
          "_pid": "index of pool",
          "_trancheId": "index of tranche"
        },
        "returns": {
          "_0": "Amount of Want token withdrawn"
        }
      },
      "withdrawAll(uint256)": {
        "params": {
          "_pid": "index of pool"
        }
      },
      "withdrawalFullService(uint256,uint256,bool,uint256)": {
        "params": {
          "_harvestOnly": "If true, will only harvest Zorro tokens but not do a withdrawal",
          "_maxMarketMovement": "factor to account for max market movement/slippage. The definition varies by Vault, so consult the associated Vault contract for info",
          "_pid": "index of pool to deposit into",
          "_trancheId": "index of tranche"
        },
        "returns": {
          "_0": "Amount (in USD) returned"
        }
      },
      "withdrawalFullServiceFromXChain(address,bytes,uint256,uint256,bool,uint256)": {
        "params": {
          "_account": "address of wallet on-chain",
          "_foreignAccount": "address of wallet cross-chain (that originally made this deposit)",
          "_harvestOnly": "If true, will only harvest Zorro tokens but not do a withdrawal",
          "_maxMarketMovement": "factor to account for max market movement/slippage. The definition varies by Vault, so consult the associated Vault contract for info",
          "_pid": "index of pool to deposit into",
          "_trancheId": "index of tranche"
        },
        "returns": {
          "_amountUSD": "Amount of USD withdrawn",
          "_rewardsDueXChain": "Amount of ZOR rewards due to the origin (cross chain) user"
        }
      }
    },
    "version": 1
  },
  "userdoc": {
    "kind": "user",
    "methods": {
      "deposit(uint256,uint256,uint256)": {
        "notice": "Deposit Want tokens to associated Vault"
      },
      "depositFullService(uint256,uint256,uint256,uint256)": {
        "notice": "Deposits funds in a full service manner (performs autoswaps and obtains Want tokens)"
      },
      "depositFullServiceFromXChain(uint256,address,bytes,uint256,uint256,uint256,uint256)": {
        "notice": "Full service deposit function to be called by ZorroControllerXChain only."
      },
      "handleAccXChainRewards(uint256,uint256)": {
        "notice": "Called by oracle to account for ZOR rewards that were minted or slashed on other chains"
      },
      "inCaseTokensGetStuck(address,uint256)": {
        "notice": "For owner to recover ERC20 tokens on this contract if stuck"
      },
      "poolLength()": {
        "notice": "Number of pools in the Zorro protocol"
      },
      "repatriateRewards(uint256,address)": {
        "notice": "Gets rewards and sends to the recipient of a cross chain withdrawal"
      },
      "resetSyntheticRewardsMinted()": {
        "notice": "Resets accumulated synthentic rewards minted"
      },
      "resetSyntheticRewardsSlashed()": {
        "notice": "Resets accumulated synthentic rewards minted"
      },
      "setBurnAddress(address)": {
        "notice": "Setter: Burn address"
      },
      "setIsTimeMultiplierActive(bool)": {
        "notice": "Setter: Set time multiplier"
      },
      "setKeyAddresses(address,address)": {
        "notice": "Setter: Set key token addresses"
      },
      "setRewardsParams(uint256,uint256[],uint256,uint256)": {
        "notice": "Setter: Reward params (See Tokenomics paper for more details)"
      },
      "setStartBlock(uint256)": {
        "notice": "Setter: Start block for rewards"
      },
      "setTargetTVLCaptureBasisPoints(uint256)": {
        "notice": "Setter: TVL capture (See Tokenomics paper)"
      },
      "setXChainParams(uint256,uint256,address)": {
        "notice": "Setter: Cross chain params"
      },
      "setZorroContracts(address,address)": {
        "notice": "Setter: Set key ZOR contract addresses"
      },
      "setZorroControllerOracle(address)": {
        "notice": "Setter: Set Zorro Controller Oracle"
      },
      "setZorroPerBlock(uint256,uint256,uint256,uint256,uint256)": {
        "notice": "Set the number of Zorro to emit per block based on current market parameters"
      },
      "setZorroXChainEndpoint(address)": {
        "notice": "Setter: Cross chain endpoint"
      },
      "trancheLength(uint256,address)": {
        "notice": "Number of tranches invested by a given user into a given pool"
      },
      "transferInvestment(uint256,uint256,uint256,uint256)": {
        "notice": "Transfer all assets from a tranche in one vault to a new vault (works on-chain only)"
      },
      "updatePool(uint256)": {
        "notice": "Update reward variables of the given pool to be up-to-date."
      },
      "withdraw(uint256,uint256,bool)": {
        "notice": "Fully withdraw Want tokens from underlying Vault."
      },
      "withdrawAll(uint256)": {
        "notice": "Withdraw the maximum number of Want tokens from a pool"
      },
      "withdrawalFullService(uint256,uint256,bool,uint256)": {
        "notice": "Withdraws funds from a pool and converts the Want token into USD"
      },
      "withdrawalFullServiceFromXChain(address,bytes,uint256,uint256,bool,uint256)": {
        "notice": "Full service withdrawal to be called from authorized cross chain endpoint"
      }
    },
    "version": 1
  }
}