{
  "contractName": "ZorroControllerBase",
  "abi": [
    {
      "anonymous": false,
      "inputs": [
        {
          "indexed": true,
          "internalType": "address",
          "name": "previousOwner",
          "type": "address"
        },
        {
          "indexed": true,
          "internalType": "address",
          "name": "newOwner",
          "type": "address"
        }
      ],
      "name": "OwnershipTransferred",
      "type": "event"
    },
    {
      "inputs": [],
      "name": "ZORRO",
      "outputs": [
        {
          "internalType": "address",
          "name": "",
          "type": "address"
        }
      ],
      "stateMutability": "view",
      "type": "function"
    },
    {
      "inputs": [],
      "name": "ZORRODailyDistributionFactorBasisPointsMax",
      "outputs": [
        {
          "internalType": "uint256",
          "name": "",
          "type": "uint256"
        }
      ],
      "stateMutability": "view",
      "type": "function"
    },
    {
      "inputs": [],
      "name": "ZORRODailyDistributionFactorBasisPointsMin",
      "outputs": [
        {
          "internalType": "uint256",
          "name": "",
          "type": "uint256"
        }
      ],
      "stateMutability": "view",
      "type": "function"
    },
    {
      "inputs": [],
      "name": "ZORROPerBlock",
      "outputs": [
        {
          "internalType": "uint256",
          "name": "",
          "type": "uint256"
        }
      ],
      "stateMutability": "view",
      "type": "function"
    },
    {
      "inputs": [],
      "name": "accSynthRewardsMinted",
      "outputs": [
        {
          "internalType": "uint256",
          "name": "",
          "type": "uint256"
        }
      ],
      "stateMutability": "view",
      "type": "function"
    },
    {
      "inputs": [],
      "name": "accSynthRewardsSlashed",
      "outputs": [
        {
          "internalType": "uint256",
          "name": "",
          "type": "uint256"
        }
      ],
      "stateMutability": "view",
      "type": "function"
    },
    {
      "inputs": [],
      "name": "baseRewardRateBasisPoints",
      "outputs": [
        {
          "internalType": "uint256",
          "name": "",
          "type": "uint256"
        }
      ],
      "stateMutability": "view",
      "type": "function"
    },
    {
      "inputs": [],
      "name": "blocksPerDay",
      "outputs": [
        {
          "internalType": "uint256",
          "name": "",
          "type": "uint256"
        }
      ],
      "stateMutability": "view",
      "type": "function"
    },
    {
      "inputs": [],
      "name": "burnAddress",
      "outputs": [
        {
          "internalType": "address",
          "name": "",
          "type": "address"
        }
      ],
      "stateMutability": "view",
      "type": "function"
    },
    {
      "inputs": [],
      "name": "chainId",
      "outputs": [
        {
          "internalType": "uint256",
          "name": "",
          "type": "uint256"
        }
      ],
      "stateMutability": "view",
      "type": "function"
    },
    {
      "inputs": [],
      "name": "chainMultiplier",
      "outputs": [
        {
          "internalType": "uint256",
          "name": "",
          "type": "uint256"
        }
      ],
      "stateMutability": "view",
      "type": "function"
    },
    {
      "inputs": [],
      "name": "controllerActions",
      "outputs": [
        {
          "internalType": "address",
          "name": "",
          "type": "address"
        }
      ],
      "stateMutability": "view",
      "type": "function"
    },
    {
      "inputs": [],
      "name": "defaultStablecoin",
      "outputs": [
        {
          "internalType": "address",
          "name": "",
          "type": "address"
        }
      ],
      "stateMutability": "view",
      "type": "function"
    },
    {
      "inputs": [
        {
          "internalType": "uint256",
          "name": "",
          "type": "uint256"
        },
        {
          "internalType": "bytes",
          "name": "",
          "type": "bytes"
        },
        {
          "internalType": "uint256",
          "name": "",
          "type": "uint256"
        }
      ],
      "name": "foreignTrancheInfo",
      "outputs": [
        {
          "internalType": "address",
          "name": "",
          "type": "address"
        }
      ],
      "stateMutability": "view",
      "type": "function"
    },
    {
      "inputs": [],
      "name": "homeChainId",
      "outputs": [
        {
          "internalType": "uint256",
          "name": "",
          "type": "uint256"
        }
      ],
      "stateMutability": "view",
      "type": "function"
    },
    {
      "inputs": [],
      "name": "homeChainZorroController",
      "outputs": [
        {
          "internalType": "address",
          "name": "",
          "type": "address"
        }
      ],
      "stateMutability": "view",
      "type": "function"
    },
    {
      "inputs": [],
      "name": "owner",
      "outputs": [
        {
          "internalType": "address",
          "name": "",
          "type": "address"
        }
      ],
      "stateMutability": "view",
      "type": "function"
    },
    {
      "inputs": [],
      "name": "publicPool",
      "outputs": [
        {
          "internalType": "address",
          "name": "",
          "type": "address"
        }
      ],
      "stateMutability": "view",
      "type": "function"
    },
    {
      "inputs": [],
      "name": "renounceOwnership",
      "outputs": [],
      "stateMutability": "nonpayable",
      "type": "function"
    },
    {
      "inputs": [],
      "name": "startBlock",
      "outputs": [
        {
          "internalType": "uint256",
          "name": "",
          "type": "uint256"
        }
      ],
      "stateMutability": "view",
      "type": "function"
    },
    {
      "inputs": [],
      "name": "targetTVLCaptureBasisPoints",
      "outputs": [
        {
          "internalType": "uint256",
          "name": "",
          "type": "uint256"
        }
      ],
      "stateMutability": "view",
      "type": "function"
    },
    {
      "inputs": [],
      "name": "totalAllocPoint",
      "outputs": [
        {
          "internalType": "uint256",
          "name": "",
          "type": "uint256"
        }
      ],
      "stateMutability": "view",
      "type": "function"
    },
    {
      "inputs": [
        {
          "internalType": "uint256",
          "name": "",
          "type": "uint256"
        },
        {
          "internalType": "address",
          "name": "",
          "type": "address"
        },
        {
          "internalType": "uint256",
          "name": "",
          "type": "uint256"
        }
      ],
      "name": "trancheInfo",
      "outputs": [
        {
          "internalType": "uint256",
          "name": "contribution",
          "type": "uint256"
        },
        {
          "internalType": "uint256",
          "name": "timeMultiplier",
          "type": "uint256"
        },
        {
          "internalType": "uint256",
          "name": "rewardDebt",
          "type": "uint256"
        },
        {
          "internalType": "uint256",
          "name": "durationCommittedInWeeks",
          "type": "uint256"
        },
        {
          "internalType": "uint256",
          "name": "enteredVaultAt",
          "type": "uint256"
        },
        {
          "internalType": "uint256",
          "name": "exitedVaultAt",
          "type": "uint256"
        }
      ],
      "stateMutability": "view",
      "type": "function"
    },
    {
      "inputs": [
        {
          "internalType": "address",
          "name": "newOwner",
          "type": "address"
        }
      ],
      "name": "transferOwnership",
      "outputs": [],
      "stateMutability": "nonpayable",
      "type": "function"
    },
    {
      "inputs": [
        {
          "internalType": "uint256",
          "name": "",
          "type": "uint256"
        }
      ],
      "name": "vaultInfo",
      "outputs": [
        {
          "internalType": "contract IERC20Upgradeable",
          "name": "want",
          "type": "address"
        },
        {
          "internalType": "uint256",
          "name": "allocPoint",
          "type": "uint256"
        },
        {
          "internalType": "uint256",
          "name": "lastRewardBlock",
          "type": "uint256"
        },
        {
          "internalType": "uint256",
          "name": "accZORRORewards",
          "type": "uint256"
        },
        {
          "internalType": "uint256",
          "name": "totalTrancheContributions",
          "type": "uint256"
        },
        {
          "internalType": "address",
          "name": "vault",
          "type": "address"
        }
      ],
      "stateMutability": "view",
      "type": "function"
    },
    {
      "inputs": [
        {
          "internalType": "address",
          "name": "",
          "type": "address"
        }
      ],
      "name": "vaultMapping",
      "outputs": [
        {
          "internalType": "uint256",
          "name": "",
          "type": "uint256"
        }
      ],
      "stateMutability": "view",
      "type": "function"
    },
    {
      "inputs": [],
      "name": "zorroControllerOracle",
      "outputs": [
        {
          "internalType": "address",
          "name": "",
          "type": "address"
        }
      ],
      "stateMutability": "view",
      "type": "function"
    },
    {
      "inputs": [],
      "name": "zorroStakingVault",
      "outputs": [
        {
          "internalType": "address",
          "name": "",
          "type": "address"
        }
      ],
      "stateMutability": "view",
      "type": "function"
    },
    {
      "inputs": [
        {
          "internalType": "address",
          "name": "_ZORRO",
          "type": "address"
        },
        {
          "internalType": "address",
          "name": "_defaultStablecoin",
          "type": "address"
        }
      ],
      "name": "setKeyAddresses",
      "outputs": [],
      "stateMutability": "nonpayable",
      "type": "function"
    },
    {
      "inputs": [
        {
          "internalType": "address",
          "name": "_burnAddress",
          "type": "address"
        }
      ],
      "name": "setBurnAddress",
      "outputs": [],
      "stateMutability": "nonpayable",
      "type": "function"
    },
    {
      "inputs": [
        {
          "internalType": "address",
          "name": "_publicPool",
          "type": "address"
        },
        {
          "internalType": "address",
          "name": "_zorroStakingVault",
          "type": "address"
        }
      ],
      "name": "setZorroContracts",
      "outputs": [],
      "stateMutability": "nonpayable",
      "type": "function"
    },
    {
      "inputs": [
        {
          "internalType": "uint256",
          "name": "_startBlock",
          "type": "uint256"
        }
      ],
      "name": "setStartBlock",
      "outputs": [],
      "stateMutability": "nonpayable",
      "type": "function"
    },
    {
      "inputs": [
        {
          "internalType": "address",
          "name": "_controllerActions",
          "type": "address"
        }
      ],
      "name": "setControllerActions",
      "outputs": [],
      "stateMutability": "nonpayable",
      "type": "function"
    },
    {
      "inputs": [
        {
          "internalType": "uint256",
          "name": "_blocksPerDay",
          "type": "uint256"
        },
        {
          "internalType": "uint256[]",
          "name": "_dailyDistFactors",
          "type": "uint256[]"
        },
        {
          "internalType": "uint256",
          "name": "_chainMultiplier",
          "type": "uint256"
        },
        {
          "internalType": "uint256",
          "name": "_baseRewardRateBasisPoints",
          "type": "uint256"
        }
      ],
      "name": "setRewardsParams",
      "outputs": [],
      "stateMutability": "nonpayable",
      "type": "function"
    },
    {
      "inputs": [
        {
          "internalType": "uint256",
          "name": "_targetTVLCaptureBasisPoints",
          "type": "uint256"
        }
      ],
      "name": "setTargetTVLCaptureBasisPoints",
      "outputs": [],
      "stateMutability": "nonpayable",
      "type": "function"
    },
    {
      "inputs": [
        {
          "internalType": "uint256",
          "name": "_chainId",
          "type": "uint256"
        },
        {
          "internalType": "uint256",
          "name": "_homeChainId",
          "type": "uint256"
        },
        {
          "internalType": "address",
          "name": "_homeChainZorroController",
          "type": "address"
        }
      ],
      "name": "setXChainParams",
      "outputs": [],
      "stateMutability": "nonpayable",
      "type": "function"
    },
    {
      "inputs": [
        {
          "internalType": "address",
          "name": "_zorroControllerOracle",
          "type": "address"
        }
      ],
      "name": "setZorroControllerOracle",
      "outputs": [],
      "stateMutability": "nonpayable",
      "type": "function"
    },
    {
      "inputs": [],
      "name": "vaultLength",
      "outputs": [
        {
          "internalType": "uint256",
          "name": "vaultCount",
          "type": "uint256"
        }
      ],
      "stateMutability": "view",
      "type": "function"
    },
    {
      "inputs": [
        {
          "internalType": "uint256",
          "name": "_vid",
          "type": "uint256"
        },
        {
          "internalType": "address",
          "name": "_user",
          "type": "address"
        }
      ],
      "name": "trancheLength",
      "outputs": [
        {
          "internalType": "uint256",
          "name": "",
          "type": "uint256"
        }
      ],
      "stateMutability": "view",
      "type": "function"
    },
    {
      "inputs": [
        {
          "internalType": "uint256",
          "name": "_totalChainMultipliers",
          "type": "uint256"
        },
        {
          "internalType": "uint256",
          "name": "_totalMarketTVLUSD",
          "type": "uint256"
        },
        {
          "internalType": "uint256",
          "name": "_targetTVLCaptureBasisPoints",
          "type": "uint256"
        },
        {
          "internalType": "uint256",
          "name": "_ZorroTotalVaultTVLUSD",
          "type": "uint256"
        },
        {
          "internalType": "uint256",
          "name": "_publicPoolZORBalance",
          "type": "uint256"
        }
      ],
      "name": "setZorroPerBlock",
      "outputs": [],
      "stateMutability": "nonpayable",
      "type": "function"
    },
    {
      "inputs": [
        {
          "internalType": "uint256",
          "name": "_vid",
          "type": "uint256"
        }
      ],
      "name": "updateVault",
      "outputs": [
        {
          "internalType": "uint256",
          "name": "mintedZOR",
          "type": "uint256"
        }
      ],
      "stateMutability": "nonpayable",
      "type": "function"
    },
    {
      "inputs": [],
      "name": "resetSyntheticRewardsSlashed",
      "outputs": [],
      "stateMutability": "nonpayable",
      "type": "function"
    },
    {
      "inputs": [],
      "name": "resetSyntheticRewardsMinted",
      "outputs": [],
      "stateMutability": "nonpayable",
      "type": "function"
    },
    {
      "inputs": [
        {
          "internalType": "address",
          "name": "_token",
          "type": "address"
        },
        {
          "internalType": "uint256",
          "name": "_amount",
          "type": "uint256"
        }
      ],
      "name": "inCaseTokensGetStuck",
      "outputs": [],
      "stateMutability": "nonpayable",
      "type": "function"
    }
  ],
  "bytecode": "0x608060405234801561001057600080fd5b506119e7806100206000396000f3fe608060405234801561001057600080fd5b5060043610610291576000357c010000000000000000000000000000000000000000000000000000000090048063715018a61161016e578063b61bb80a116100e0578063ed43633f116100a4578063ed43633f146105c0578063ef126967146105d3578063f2fde38b146105dc578063f35e4a6e146105ef578063f63cce3714610602578063fc39a29e1461061557600080fd5b8063b61bb80a1461057f578063b95cc68114610592578063c29361421461059b578063c6d758cb146105a4578063cb9c2f68146105b757600080fd5b80639a8a0592116101325780639a8a0592146104ff5780639cebd37114610508578063a13346c614610511578063a1be201d14610519578063a4d2b0831461052c578063b4b4e9eb1461053f57600080fd5b8063715018a614610471578063823c43d0146104795780638c157db21461048c5780638da5cb5b1461049f578063929060d8146104b057600080fd5b806348cd4cb11161020757806353f73f87116101cb57806353f73f87146103e65780635527a6f91461041c5780635c63fa8714610425578063668ababb146104385780636b8eb2e51461044b57806370d5ae051461045e57600080fd5b806348cd4cb1146103a55780634b0e7216146103ae5780634cfea68a146103c15780635051d371146103ca57806352966832146103dd57600080fd5b8063332e5a7b11610259578063332e5a7b1461033a57806337cb2ef21461034d57806338495d661461036d5780633b710688146103805780633b9ce565146103895780633bbc1ffc1461039257600080fd5b806309b79b3c146102965780630aa0988e146102a057806317caf6f1146102b35780632b68772c146102cf5780632e31283d146102d7575b600080fd5b61029e610628565b005b61029e6102ae3660046114f0565b610695565b6102bc60a45481565b6040519081526020015b60405180910390f35b60aa546102bc565b6103226102e536600461153c565b60ad6020908152600093845260408085208451808601840180519281529084019584019590952094529290528252902054600160a060020a031681565b604051600160a060020a0390911681526020016102c6565b60af5461032290600160a060020a031681565b6102bc61035b366004611600565b60ab6020526000908152604090205481565b6102bc61037b36600461161b565b6106f0565b6102bc60a35481565b6102bc60a15481565b61029e6103a036600461161b565b610949565b6102bc609c5481565b61029e6103bc366004611600565b6109d8565b6102bc609d5481565b61029e6103d8366004611600565b610a27565b6102bc60a55481565b6102bc6103f4366004611634565b600091825260ac60209081526040808420600160a060020a0393909316845291905290205490565b6102bc60a05481565b61029e610433366004611657565b610a76565b60995461032290600160a060020a031681565b61029e61045936600461168c565b610acd565b609b5461032290600160a060020a031681565b61029e610b9d565b60ae5461032290600160a060020a031681565b60975461032290600160a060020a031681565b603354600160a060020a0316610322565b6104c36104be36600461161b565b610bd6565b60408051600160a060020a03978816815260208101969096528501939093526060840191909152608083015290911660a082015260c0016102c6565b6102bc60a75481565b6102bc60a25481565b61029e610c29565b61029e610527366004611600565b610cae565b609a5461032290600160a060020a031681565b61055261054d3660046116c7565b610cfd565b604080519687526020870195909552938501929092526060840152608083015260a082015260c0016102c6565b60985461032290600160a060020a031681565b6102bc60a65481565b6102bc609e5481565b61029e6105b23660046116fc565b610d5e565b6102bc609f5481565b61029e6105ce366004611726565b610e2a565b6102bc60a85481565b61029e6105ea366004611600565b610ea3565b61029e6105fd36600461161b565b610f5b565b61029e6106103660046114f0565b610fe0565b60a95461032290600160a060020a031681565b60ae54600160a060020a031633600160a060020a0316146106675760405160e560020a62461bcd02815260040161065e906117b3565b60405180910390fd5b60a85460a754141561068e5760405160e560020a62461bcd02815260040161065e906117ea565b600060a555565b603354600160a060020a031633146106c25760405160e560020a62461bcd02815260040161065e90611821565b60978054600160a060020a03938416600160a060020a03199182161790915560988054929093169116179055565b6000600260655414156107485760405160e560020a62461bcd02815260206004820152601f60248201527f5265656e7472616e637947756172643a207265656e7472616e742063616c6c00604482015260640161065e565b6002606581905550600060aa838154811061076557610765611856565b906000526020600020906006020190508060020154431161078a57600091505061093f565b6005810154604080517f44a3955e0000000000000000000000000000000000000000000000000000000081529051600092600160a060020a0316916344a3955e9160048083019260209291908290030181865afa1580156107ef573d6000803e3d6000fd5b505050506040513d601f19601f82011682018060405250810190610813919061186f565b90508061082a57504360029091015550600061093f565b600082600201544361083c91906118a1565b9050600060a4548460010154609e548461085691906118b8565b61086091906118b8565b61086a91906118d7565b60a954909150600160a060020a03163014156108935761088a8130611098565b6000945061091c565b6097546040517f40c10f1900000000000000000000000000000000000000000000000000000000815230600482015260248101839052600160a060020a03909116906340c10f1990604401600060405180830381600087803b1580156108f857600080fd5b505af115801561090c573d6000803e3d6000fd5b5050505080945061091c856110b6565b80846003015461092c91906118fc565b6003850155505043600290920191909155505b6001606555919050565b603354600160a060020a031633146109765760405160e560020a62461bcd02815260040161065e90611821565b60a954600160a060020a031630146109d35760405160e560020a62461bcd02815260206004820152600f60248201527f6f6e6c7920686f6d6520636861696e0000000000000000000000000000000000604482015260640161065e565b609f55565b603354600160a060020a03163314610a055760405160e560020a62461bcd02815260040161065e90611821565b609b8054600160a060020a031916600160a060020a0392909216919091179055565b603354600160a060020a03163314610a545760405160e560020a62461bcd02815260040161065e90611821565b60ae8054600160a060020a031916600160a060020a0392909216919091179055565b603354600160a060020a03163314610aa35760405160e560020a62461bcd02815260040161065e90611821565b60a79290925560a85560a98054600160a060020a031916600160a060020a03909216919091179055565b60ae54600160a060020a031633600160a060020a031614610b035760405160e560020a62461bcd02815260040161065e906117b3565b6000610b11836127106118b8565b848660a354610b2091906118b8565b610b2a91906118b8565b610b3491906118d7565b905060a154811115610b49575060a154610b58565b60a054811015610b58575060a0545b609d54610b67876127106118b8565b610b7191906118b8565b60a254610b7e83856118b8565b610b8891906118b8565b610b9291906118d7565b609e55505050505050565b603354600160a060020a03163314610bca5760405160e560020a62461bcd02815260040161065e90611821565b610bd460006110f1565b565b60aa8181548110610be657600080fd5b6000918252602090912060069091020180546001820154600283015460038401546004850154600590950154600160a060020a0394851696509294919390921686565b60ae54600160a060020a031633600160a060020a031614610c5f5760405160e560020a62461bcd02815260040161065e906117b3565b60a85460a7541415610c865760405160e560020a62461bcd02815260040161065e906117ea565b609b5460a654609754610ca792600160a060020a0391821692911690611143565b600060a655565b603354600160a060020a03163314610cdb5760405160e560020a62461bcd02815260040161065e90611821565b60af8054600160a060020a031916600160a060020a0392909216919091179055565b60ac6020528260005260406000206020528160005260406000208181548110610d2557600080fd5b60009182526020909120600690910201805460018201546002830154600384015460048501546005909501549397509195509350919086565b603354600160a060020a03163314610d8b5760405160e560020a62461bcd02815260040161065e90611821565b609754600160a060020a0383811691161415610e125760405160e560020a62461bcd02815260206004820152603560248201527f217361666520746f20757365205a6f72726f20746f6b656e20696e2066756e6360448201527f20696e43617365546f6b656e73476574537475636b0000000000000000000000606482015260840161065e565b610e26600160a060020a0383163383611143565b5050565b603354600160a060020a03163314610e575760405160e560020a62461bcd02815260040161065e90611821565b609d8590558383600081610e6d57610e6d611856565b602002919091013560a0555083836001818110610e8c57610e8c611856565b602002919091013560a1555060a35560a255505050565b603354600160a060020a03163314610ed05760405160e560020a62461bcd02815260040161065e90611821565b600160a060020a038116610f4f5760405160e560020a62461bcd02815260206004820152602660248201527f4f776e61626c653a206e6577206f776e657220697320746865207a65726f206160448201527f6464726573730000000000000000000000000000000000000000000000000000606482015260840161065e565b610f58816110f1565b50565b603354600160a060020a03163314610f885760405160e560020a62461bcd02815260040161065e90611821565b609c5415610fdb5760405160e560020a62461bcd02815260206004820152601560248201527f626c6f636b506172616d7320696d6d757461626c650000000000000000000000604482015260640161065e565b609c55565b603354600160a060020a0316331461100d5760405160e560020a62461bcd02815260040161065e90611821565b60a954600160a060020a0316301461106a5760405160e560020a62461bcd02815260206004820152600f60248201527f6f6e6c7920686f6d6520636861696e0000000000000000000000000000000000604482015260640161065e565b60998054600160a060020a03938416600160a060020a031991821617909155609a8054929093169116179055565b609954609754610e2691600160a060020a03918216911683856111f1565b60a85460a75414156110dd5760405160e560020a62461bcd02815260040161065e906117ea565b8060a5546110eb91906118fc565b60a55550565b60338054600160a060020a03838116600160a060020a0319831681179093556040519116919082907f8be0079c531659141344cd1fd0a4f28419497f9722a3daafe3b4186f6b6457e090600090a35050565b604051600160a060020a0383166024820152604481018290526111ec9084907fa9059cbb00000000000000000000000000000000000000000000000000000000906064015b60408051601f198184030181529190526020810180517bffffffffffffffffffffffffffffffffffffffffffffffffffffffff167fffffffff0000000000000000000000000000000000000000000000000000000090931692909217909152611248565b505050565b604051600160a060020a03808516602483015283166044820152606481018290526112429085907f23b872dd0000000000000000000000000000000000000000000000000000000090608401611188565b50505050565b600061129d826040518060400160405280602081526020017f5361666545524332303a206c6f772d6c6576656c2063616c6c206661696c656481525085600160a060020a03166113309092919063ffffffff16565b8051909150156111ec57808060200190518101906112bb9190611914565b6111ec5760405160e560020a62461bcd02815260206004820152602a60248201527f5361666545524332303a204552433230206f7065726174696f6e20646964206e60448201527f6f74207375636365656400000000000000000000000000000000000000000000606482015260840161065e565b606061133f8484600085611349565b90505b9392505050565b606030318311156113c55760405160e560020a62461bcd02815260206004820152602660248201527f416464726573733a20696e73756666696369656e742062616c616e636520666f60448201527f722063616c6c0000000000000000000000000000000000000000000000000000606482015260840161065e565b600160a060020a0385163b61141f5760405160e560020a62461bcd02815260206004820152601d60248201527f416464726573733a2063616c6c20746f206e6f6e2d636f6e7472616374000000604482015260640161065e565b60008086600160a060020a0316858760405161143b9190611962565b60006040518083038185875af1925050503d8060008114611478576040519150601f19603f3d011682016040523d82523d6000602084013e61147d565b606091505b509150915061148d828286611498565b979650505050505050565b606083156114a7575081611342565b8251156114b75782518084602001fd5b8160405160e560020a62461bcd02815260040161065e919061197e565b8035600160a060020a03811681146114eb57600080fd5b919050565b6000806040838503121561150357600080fd5b61150c836114d4565b915061151a602084016114d4565b90509250929050565b60e060020a634e487b7102600052604160045260246000fd5b60008060006060848603121561155157600080fd5b83359250602084013567ffffffffffffffff8082111561157057600080fd5b818601915086601f83011261158457600080fd5b81358181111561159657611596611523565b604051601f8201601f19908116603f011681019083821181831017156115be576115be611523565b816040528281528960208487010111156115d757600080fd5b826020860160208301376000602084830101528096505050505050604084013590509250925092565b60006020828403121561161257600080fd5b611342826114d4565b60006020828403121561162d57600080fd5b5035919050565b6000806040838503121561164757600080fd5b8235915061151a602084016114d4565b60008060006060848603121561166c57600080fd5b8335925060208401359150611683604085016114d4565b90509250925092565b600080600080600060a086880312156116a457600080fd5b505083359560208501359550604085013594606081013594506080013592509050565b6000806000606084860312156116dc57600080fd5b833592506116ec602085016114d4565b9150604084013590509250925092565b6000806040838503121561170f57600080fd5b611718836114d4565b946020939093013593505050565b60008060008060006080868803121561173e57600080fd5b85359450602086013567ffffffffffffffff8082111561175d57600080fd5b818801915088601f83011261177157600080fd5b81358181111561178057600080fd5b896020808302850101111561179457600080fd5b9699602092909201985095966040810135965060600135945092505050565b60208082526011908201527f6f6e6c79205a6f72726f206f7261636c65000000000000000000000000000000604082015260600190565b60208082526017908201527f466f72206e6f6e20686f6d6520636861696e206f6e6c79000000000000000000604082015260600190565b6020808252818101527f4f776e61626c653a2063616c6c6572206973206e6f7420746865206f776e6572604082015260600190565b60e060020a634e487b7102600052603260045260246000fd5b60006020828403121561188157600080fd5b5051919050565b60e060020a634e487b7102600052601160045260246000fd5b6000828210156118b3576118b3611888565b500390565b60008160001904831182151516156118d2576118d2611888565b500290565b6000826118f75760e060020a634e487b7102600052601260045260246000fd5b500490565b6000821982111561190f5761190f611888565b500190565b60006020828403121561192657600080fd5b8151801515811461134257600080fd5b60005b83811015611951578181015183820152602001611939565b838111156112425750506000910152565b60008251611974818460208701611936565b9190910192915050565b602081526000825180602084015261199d816040850160208701611936565b601f01601f1916919091016040019291505056fea2646970667358221220d618a38b29bdff6c1dd49160cca972ec6f6c4680baad8833ffb06ab9659cf1c564736f6c634300080a0033",
  "immutableReferences": {},
  "source": "// SPDX-License-Identifier: MIT\npragma solidity ^0.8.0;\n\nimport \"@openzeppelin/contracts-upgradeable/token/ERC20/utils/SafeERC20Upgradeable.sol\";\n\nimport \"@openzeppelin/contracts-upgradeable/access/OwnableUpgradeable.sol\";\n\nimport \"@openzeppelin/contracts-upgradeable/security/ReentrancyGuardUpgradeable.sol\";\n\nimport \"../interfaces/Zorro/IZorro.sol\";\n\nimport \"../interfaces/Zorro/Controllers/IZorroController.sol\";\n\nimport \"../interfaces/Zorro/Vaults/IVault.sol\";\n\n/* Base Contract */\n\n/// @title ZorroControllerBase: The base controller with main state variables, data types, and functions\ncontract ZorroControllerBase is\n    IZorroControllerBase,\n    OwnableUpgradeable,\n    ReentrancyGuardUpgradeable\n{\n    /* Libraries */\n\n    using SafeERC20Upgradeable for IERC20Upgradeable;\n\n    /* Modifiers */\n    \n    /// @notice Only allows functions to be executed where the sender matches the zorroPriceOracle address\n    modifier onlyAllowZorroControllerOracle() {\n        require(_msgSender() == zorroControllerOracle, \"only Zorro oracle\");\n        _;\n    }\n\n    /// @notice Only allows functions to be executed on contracts matching the home chain controller\n    modifier onlyHomeChain() {\n        require(address(this) == homeChainZorroController, \"only home chain\");\n        _;\n    }\n\n    /// @notice Can only be called on non home chain\n    modifier nonHomeChainOnly() {\n        // Check to make sure not on home chain\n        require(chainId != homeChainId, \"For non home chain only\");\n        _;\n    }\n\n    /* State */\n\n    // Key tokens/addresses\n    address public ZORRO;\n    address public defaultStablecoin; // Address of default stablecoin (i.e. USDC)\n    address public publicPool; // Only to be set on home chain\n    address public zorroStakingVault; // The vault for ZOR stakers on the home chain.\n    address public burnAddress; // Burn address for ERC20 tokens\n    // Rewards\n    uint256 public startBlock;\n    uint256 public blocksPerDay; // Approximate, varies by chain\n    uint256 public ZORROPerBlock; // Calculated according to Tokenomics\n    uint256 public targetTVLCaptureBasisPoints; // 333 = 3.33% ONLY to be set on the home chain\n    uint256 public ZORRODailyDistributionFactorBasisPointsMin; // 1 = 0.01% ONLY for home chain\n    uint256 public ZORRODailyDistributionFactorBasisPointsMax; // 20 = 0.20% ONLY for home chain\n    uint256 public chainMultiplier; // Proportional rewards to be sent to this chain\n    uint256 public baseRewardRateBasisPoints;\n    uint256 public totalAllocPoint; // Total allocation points (aka multiplier). Must be the sum of all allocation points in all pools.\n    uint256 public accSynthRewardsMinted; // Accumulated synthetic rewards minted on non home-chain\n    uint256 public accSynthRewardsSlashed; // Accumulated synthetic rewards slashed on non home-chain\n    // Cross-chain\n    uint256 public chainId; // The ID/index of the chain that this contract is on\n    uint256 public homeChainId; // The chain ID of the home chain\n    address public homeChainZorroController; // Address of the home chain ZorroController contract. For cross chain routing. \"address\" type because it's on the EVM\n    // Info of each vault\n    VaultInfo[] public vaultInfo;\n    mapping(address => uint256) public vaultMapping; // Maps vault address to the id of that vault\n    // List of active tranches that stakes Want tokens. Mapping: vault ID/index => user wallet address on-chain => list of tranches\n    mapping(uint256 => mapping(address => TrancheInfo[])) public trancheInfo;\n    // Map of account address on chain for a given foreign account and vault. Mapping: vault index => foreign chain wallet address => Mapping(tranche ID => local account address)\n    mapping(uint256 => mapping(bytes => mapping(uint256 => address)))\n        public foreignTrancheInfo;\n    // Oracles\n    address public zorroControllerOracle;\n    // Other\n    address public controllerActions;\n\n    /* Setters */\n\n    /// @notice Setter: Set key token addresses\n    /// @param _ZORRO ZOR token address\n    /// @param _defaultStablecoin Main stablecoin address (USDC)\n    function setKeyAddresses(address _ZORRO, address _defaultStablecoin)\n        external\n        onlyOwner\n    {\n        ZORRO = _ZORRO;\n        defaultStablecoin = _defaultStablecoin;\n    }\n\n    /// @notice Setter: Burn address\n    /// @param _burnAddress The burn address on this chain\n    function setBurnAddress(address _burnAddress) external onlyOwner {\n        burnAddress = _burnAddress;\n    }\n\n    /// @notice Setter: Set key ZOR contract addresses\n    /// @param _publicPool Public pool address (where ZOR minted)\n    /// @param _zorroStakingVault Zorro single staking vault address\n    function setZorroContracts(address _publicPool, address _zorroStakingVault)\n        external\n        onlyOwner\n        onlyHomeChain\n    {\n        publicPool = _publicPool;\n        zorroStakingVault = _zorroStakingVault;\n    }\n\n    /// @notice Setter: Start block for rewards\n    function setStartBlock(uint256 _startBlock) external onlyOwner {\n        // Set start block only if it hasn't been set previously\n        require(startBlock == 0, \"blockParams immutable\");\n        startBlock = _startBlock;\n    }\n\n    /// @notice Setter: Set controller actions contract address\n    function setControllerActions(address _controllerActions) external onlyOwner {\n        controllerActions = _controllerActions;\n    }\n\n    /// @notice Setter: Reward params (See Tokenomics paper for more details)\n    /// @dev NOTE: Must enter all parameters or existing ones will be overwritten!\n    /// @param _blocksPerDay # of blocks per day for this chain\n    /// @param _dailyDistFactors Array of [ZORRODailyDistributionFactorBasisPointsMin, ZORRODailyDistributionFactorBasisPointsMax]\n    /// @param _chainMultiplier Rewards multiplier factor to be applied to this chain\n    /// @param _baseRewardRateBasisPoints Base reward rate factor, in bp\n    function setRewardsParams(\n        uint256 _blocksPerDay,\n        uint256[] calldata _dailyDistFactors,\n        uint256 _chainMultiplier,\n        uint256 _baseRewardRateBasisPoints\n    ) external onlyOwner {\n        // Set block production rate for this chain\n        blocksPerDay = _blocksPerDay;\n\n        // Tokenomics\n        ZORRODailyDistributionFactorBasisPointsMin = _dailyDistFactors[0];\n        ZORRODailyDistributionFactorBasisPointsMax = _dailyDistFactors[1];\n        baseRewardRateBasisPoints = _baseRewardRateBasisPoints;\n\n        // Chain multiplier\n        chainMultiplier = _chainMultiplier;\n    }\n\n    /// @notice Setter: TVL capture (See Tokenomics paper)\n    /// @param _targetTVLCaptureBasisPoints Percent of market desired to be captured, in bp. 333 = 3.33%. ONLY to be set on the home chain\n    function setTargetTVLCaptureBasisPoints(\n        uint256 _targetTVLCaptureBasisPoints\n    ) external onlyOwner onlyHomeChain {\n        targetTVLCaptureBasisPoints = _targetTVLCaptureBasisPoints;\n    }\n\n    /// @notice Setter: Cross chain params\n    /// @param _chainId The ind of the chain that this contract is on\n    /// @param _homeChainId The chain ID of the home chain\n    /// @param _homeChainZorroController The address of the home chain controller\n    function setXChainParams(\n        uint256 _chainId,\n        uint256 _homeChainId,\n        address _homeChainZorroController\n    ) external onlyOwner {\n        chainId = _chainId;\n        homeChainId = _homeChainId;\n        homeChainZorroController = _homeChainZorroController;\n    }\n\n    /// @notice Setter: Set Zorro Controller Oracle\n    /// @param _zorroControllerOracle Address of Chainlink oracle that can interact with this contract\n    function setZorroControllerOracle(address _zorroControllerOracle)\n        external\n        onlyOwner\n    {\n        zorroControllerOracle = _zorroControllerOracle;\n    }\n\n    /* View functions */\n\n    /// @notice Number of vaults in the Zorro protocol\n    /// @return vaultCount number of vaults\n    function vaultLength() public view returns (uint256 vaultCount) {\n        return vaultInfo.length;\n    }\n\n    /// @notice Number of tranches invested by a given user into a given vault\n    /// @param _vid Index of vault in vaultInfo array\n    /// @param _user wallet address of user\n    /// @return Number of tranches\n    function trancheLength(uint256 _vid, address _user)\n        public\n        view\n        returns (uint256)\n    {\n        return trancheInfo[_vid][_user].length;\n    }\n\n    /* Zorro Rewards */\n\n    /// @notice Set the number of Zorro to emit per block based on current market parameters\n    /// @dev Values to be provided by Oracle. Perferable to run daily\n    /// @param _totalChainMultipliers Sum total of all chain multipliers for each chain\n    /// @param _totalMarketTVLUSD Total DeFi market TVL across all chains (measured in USD)\n    /// @param _targetTVLCaptureBasisPoints % desired capture of total market TVL, measured in basis points\n    /// @param _ZorroTotalVaultTVLUSD USD value of all TVL locked into the Zorro protocol, across all chains\n    /// @param _publicPoolZORBalance Number of ZOR tokens remaining in public pool on home chain\n    function setZorroPerBlock(\n        uint256 _totalChainMultipliers,\n        uint256 _totalMarketTVLUSD,\n        uint256 _targetTVLCaptureBasisPoints,\n        uint256 _ZorroTotalVaultTVLUSD,\n        uint256 _publicPoolZORBalance\n    ) external onlyAllowZorroControllerOracle {\n        // Use the Rm formula to determine the percentage of the remaining public pool Zorro tokens to transfer to this contract as rewards\n        uint256 ZORRODailyDistributionFactorBasisPoints = (baseRewardRateBasisPoints *\n                _totalMarketTVLUSD *\n                _targetTVLCaptureBasisPoints) /\n                (10000 * _ZorroTotalVaultTVLUSD);\n\n        // Rail distribution to min and max values\n        if (\n            ZORRODailyDistributionFactorBasisPoints >\n            ZORRODailyDistributionFactorBasisPointsMax\n        ) {\n            ZORRODailyDistributionFactorBasisPoints = ZORRODailyDistributionFactorBasisPointsMax;\n        } else if (\n            ZORRODailyDistributionFactorBasisPoints <\n            ZORRODailyDistributionFactorBasisPointsMin\n        ) {\n            ZORRODailyDistributionFactorBasisPoints = ZORRODailyDistributionFactorBasisPointsMin;\n        }\n\n        // Multiply the factor above to determine the total Zorro tokens to distribute to this contract on a DAILY basis\n        // And then multiply by the share of daily distribution for this chain\n        // Finally: Convert this to a BLOCK basis and assign to ZORROPerBlock\n        ZORROPerBlock =\n            (_publicPoolZORBalance *\n                ZORRODailyDistributionFactorBasisPoints *\n                chainMultiplier) /\n            (10000 * _totalChainMultipliers * blocksPerDay);\n    }\n\n    /* Vault Management */\n\n    /// @notice Update reward variables of the given vault to be up-to-date.\n    /// @param _vid index of vault in vaultInfo array\n    /// @return mintedZOR Amount of ZOR rewards minted (useful for cross chain)\n    function updateVault(uint256 _vid) public nonReentrant returns (uint256 mintedZOR) {\n        // Get the vault matching the given index\n        VaultInfo storage _vault = vaultInfo[_vid];\n\n        // If current block is <= last reward block, exit\n        if (block.number <= _vault.lastRewardBlock) {\n            return 0;\n        }\n\n        // If underlying vault's shares are zero, skip\n        uint256 sharesTotal = IVault(_vault.vault).sharesTotal();\n        if (sharesTotal == 0) {\n            _vault.lastRewardBlock = block.number;\n            return 0;\n        }\n\n        // Determine how many blocks have elapsed since the last updateVault() operation for this vault\n        uint256 elapsedBlocks = block.number - _vault.lastRewardBlock;\n\n        // Finally, multiply rewards/block by the number of elapsed blocks and the vault weighting\n        uint256 ZORROReward = (elapsedBlocks *\n            ZORROPerBlock *\n            _vault.allocPoint) / totalAllocPoint;\n\n        // Check whether this function requires cross chain activity or not\n        if (address(this) == homeChainZorroController) {\n            // On Home chain. NO cross chain vault updates required\n\n            // Transfer Zorro rewards to this contract from the Public Pool\n            _fetchFundsFromPublicPool(ZORROReward, address(this));\n\n            // Return 0, no ZOR minted because we're on chain\n            mintedZOR = 0;\n        } else {\n            // On remote chain. Cross chain pool updates required\n\n            // Mint Zorro on this (remote) chain\n            IZorro(ZORRO).mint(address(this), ZORROReward);\n\n            // Return ZOR minted\n            mintedZOR = ZORROReward;\n\n            // Record minted amount.\n            _recordMintedRewards(mintedZOR);\n        }\n\n        // Increment this pool's accumulated Zorro per share value by the reward amount\n        _vault.accZORRORewards = _vault.accZORRORewards + ZORROReward;\n        // Update the pool's last reward block to the current block\n        _vault.lastRewardBlock = block.number;\n    }\n\n    /// @notice Stores cumulative total of minted rewards on a non-home chain, for future burning.\n    /// @param _mintedRewards Amount of rewards that were minted\n    function _recordMintedRewards(uint256 _mintedRewards)\n        internal\n        nonHomeChainOnly\n    {\n        // Accumulate rewards\n        accSynthRewardsMinted = accSynthRewardsMinted + _mintedRewards;\n    }\n\n    /// @notice Resets accumulated synthentic rewards minted\n    /// @dev To be called by Oracle only, when batch burning synthetic minted rewards\n    function resetSyntheticRewardsSlashed()\n        external\n        onlyAllowZorroControllerOracle\n        nonHomeChainOnly\n    {\n        // Burn slashed amount\n        IERC20Upgradeable(ZORRO).safeTransfer(\n            burnAddress,\n            accSynthRewardsSlashed\n        );\n\n        // Reset\n        accSynthRewardsSlashed = 0;\n    }\n\n    /// @notice Stores cumulative total of slashed rewards on a non-home chain, for future burning.\n    /// @param _slashedRewards Amount of rewards that were minted\n    function _recordSlashedRewards(uint256 _slashedRewards)\n        internal\n        nonHomeChainOnly\n    {\n        // Accumulate rewards\n        accSynthRewardsSlashed = accSynthRewardsSlashed + _slashedRewards;\n    }\n\n    /// @notice Resets accumulated synthentic rewards minted\n    /// @dev To be called by Oracle only, when batch burning synthetic minted rewards\n    function resetSyntheticRewardsMinted()\n        external\n        onlyAllowZorroControllerOracle\n        nonHomeChainOnly\n    {\n        accSynthRewardsMinted = 0;\n    }\n\n    /// @notice Gets the specified amount of ZOR tokens from the public pool and transfers to this contract\n    /// @param _amount The amount to fetch from the public pool\n    /// @param _destination Where to send funds to\n    function _fetchFundsFromPublicPool(uint256 _amount, address _destination)\n        internal\n        virtual\n    {\n        IERC20Upgradeable(ZORRO).safeTransferFrom(\n            publicPool,\n            _destination,\n            _amount\n        );\n    }\n\n    /* Safety functions */\n\n    /// @notice Safe ZORRO transfer function, just in case if rounding error causes vault to not have enough\n    /// @param _to destination for funds\n    /// @param _ZORROAmt quantity of Zorro tokens to send\n    function _safeZORROTransfer(address _to, uint256 _ZORROAmt) internal {\n        uint256 _xferAmt = _ZORROAmt;\n        uint256 ZORROBal = IERC20Upgradeable(ZORRO).balanceOf(address(this));\n        if (_ZORROAmt > ZORROBal) {\n            _xferAmt = ZORROBal;\n        }\n        IERC20Upgradeable(ZORRO).safeTransfer(_to, _xferAmt);\n    }\n\n    /// @notice For owner to recover ERC20 tokens on this contract if stuck\n    /// @dev Does not permit usage for the Zorro token\n    /// @param _token ERC20 token address\n    /// @param _amount token quantity\n    function inCaseTokensGetStuck(address _token, uint256 _amount)\n        public\n        onlyOwner\n    {\n        require(\n            _token != ZORRO,\n            \"!safe to use Zorro token in func inCaseTokensGetStuck\"\n        );\n        IERC20Upgradeable(_token).safeTransfer(msg.sender, _amount);\n    }\n}\n",
  "sourcePath": "/Users/kristophm/Documents/workspace/zorro-protocol/contracts/controllers/_ZorroControllerBase.sol",
  "compiler": {
    "name": "solc",
    "version": "0.8.10+commit.fc410830.Emscripten.clang"
  },
  "schemaVersion": "3.4.10",
  "updatedAt": "2023-02-05T17:37:42.650Z",
  "devdoc": {
    "kind": "dev",
    "methods": {
      "inCaseTokensGetStuck(address,uint256)": {
        "details": "Does not permit usage for the Zorro token",
        "params": {
          "_amount": "token quantity",
          "_token": "ERC20 token address"
        }
      },
      "owner()": {
        "details": "Returns the address of the current owner."
      },
      "renounceOwnership()": {
        "details": "Leaves the contract without owner. It will not be possible to call `onlyOwner` functions anymore. Can only be called by the current owner. NOTE: Renouncing ownership will leave the contract without an owner, thereby removing any functionality that is only available to the owner."
      },
      "resetSyntheticRewardsMinted()": {
        "details": "To be called by Oracle only, when batch burning synthetic minted rewards"
      },
      "resetSyntheticRewardsSlashed()": {
        "details": "To be called by Oracle only, when batch burning synthetic minted rewards"
      },
      "setBurnAddress(address)": {
        "params": {
          "_burnAddress": "The burn address on this chain"
        }
      },
      "setKeyAddresses(address,address)": {
        "params": {
          "_ZORRO": "ZOR token address",
          "_defaultStablecoin": "Main stablecoin address (USDC)"
        }
      },
      "setRewardsParams(uint256,uint256[],uint256,uint256)": {
        "details": "NOTE: Must enter all parameters or existing ones will be overwritten!",
        "params": {
          "_baseRewardRateBasisPoints": "Base reward rate factor, in bp",
          "_blocksPerDay": "# of blocks per day for this chain",
          "_chainMultiplier": "Rewards multiplier factor to be applied to this chain",
          "_dailyDistFactors": "Array of [ZORRODailyDistributionFactorBasisPointsMin, ZORRODailyDistributionFactorBasisPointsMax]"
        }
      },
      "setTargetTVLCaptureBasisPoints(uint256)": {
        "params": {
          "_targetTVLCaptureBasisPoints": "Percent of market desired to be captured, in bp. 333 = 3.33%. ONLY to be set on the home chain"
        }
      },
      "setXChainParams(uint256,uint256,address)": {
        "params": {
          "_chainId": "The ind of the chain that this contract is on",
          "_homeChainId": "The chain ID of the home chain",
          "_homeChainZorroController": "The address of the home chain controller"
        }
      },
      "setZorroContracts(address,address)": {
        "params": {
          "_publicPool": "Public pool address (where ZOR minted)",
          "_zorroStakingVault": "Zorro single staking vault address"
        }
      },
      "setZorroControllerOracle(address)": {
        "params": {
          "_zorroControllerOracle": "Address of Chainlink oracle that can interact with this contract"
        }
      },
      "setZorroPerBlock(uint256,uint256,uint256,uint256,uint256)": {
        "details": "Values to be provided by Oracle. Perferable to run daily",
        "params": {
          "_ZorroTotalVaultTVLUSD": "USD value of all TVL locked into the Zorro protocol, across all chains",
          "_publicPoolZORBalance": "Number of ZOR tokens remaining in public pool on home chain",
          "_targetTVLCaptureBasisPoints": "% desired capture of total market TVL, measured in basis points",
          "_totalChainMultipliers": "Sum total of all chain multipliers for each chain",
          "_totalMarketTVLUSD": "Total DeFi market TVL across all chains (measured in USD)"
        }
      },
      "trancheLength(uint256,address)": {
        "params": {
          "_user": "wallet address of user",
          "_vid": "Index of vault in vaultInfo array"
        },
        "returns": {
          "_0": "Number of tranches"
        }
      },
      "transferOwnership(address)": {
        "details": "Transfers ownership of the contract to a new account (`newOwner`). Can only be called by the current owner."
      },
      "updateVault(uint256)": {
        "params": {
          "_vid": "index of vault in vaultInfo array"
        },
        "returns": {
          "mintedZOR": "Amount of ZOR rewards minted (useful for cross chain)"
        }
      },
      "vaultLength()": {
        "returns": {
          "vaultCount": "number of vaults"
        }
      }
    },
    "title": "ZorroControllerBase: The base controller with main state variables, data types, and functions",
    "version": 1
  },
  "userdoc": {
    "kind": "user",
    "methods": {
      "inCaseTokensGetStuck(address,uint256)": {
        "notice": "For owner to recover ERC20 tokens on this contract if stuck"
      },
      "resetSyntheticRewardsMinted()": {
        "notice": "Resets accumulated synthentic rewards minted"
      },
      "resetSyntheticRewardsSlashed()": {
        "notice": "Resets accumulated synthentic rewards minted"
      },
      "setBurnAddress(address)": {
        "notice": "Setter: Burn address"
      },
      "setControllerActions(address)": {
        "notice": "Setter: Set controller actions contract address"
      },
      "setKeyAddresses(address,address)": {
        "notice": "Setter: Set key token addresses"
      },
      "setRewardsParams(uint256,uint256[],uint256,uint256)": {
        "notice": "Setter: Reward params (See Tokenomics paper for more details)"
      },
      "setStartBlock(uint256)": {
        "notice": "Setter: Start block for rewards"
      },
      "setTargetTVLCaptureBasisPoints(uint256)": {
        "notice": "Setter: TVL capture (See Tokenomics paper)"
      },
      "setXChainParams(uint256,uint256,address)": {
        "notice": "Setter: Cross chain params"
      },
      "setZorroContracts(address,address)": {
        "notice": "Setter: Set key ZOR contract addresses"
      },
      "setZorroControllerOracle(address)": {
        "notice": "Setter: Set Zorro Controller Oracle"
      },
      "setZorroPerBlock(uint256,uint256,uint256,uint256,uint256)": {
        "notice": "Set the number of Zorro to emit per block based on current market parameters"
      },
      "trancheLength(uint256,address)": {
        "notice": "Number of tranches invested by a given user into a given vault"
      },
      "updateVault(uint256)": {
        "notice": "Update reward variables of the given vault to be up-to-date."
      },
      "vaultLength()": {
        "notice": "Number of vaults in the Zorro protocol"
      }
    },
    "version": 1
  }
}