{
  "contractName": "ZorroControllerXChainReceiver",
  "abi": [
    {
      "anonymous": false,
      "inputs": [
        {
          "indexed": true,
          "internalType": "address",
          "name": "user",
          "type": "address"
        },
        {
          "indexed": true,
          "internalType": "uint256",
          "name": "pid",
          "type": "uint256"
        },
        {
          "indexed": false,
          "internalType": "uint256",
          "name": "wantAmount",
          "type": "uint256"
        }
      ],
      "name": "Deposit",
      "type": "event"
    },
    {
      "anonymous": false,
      "inputs": [
        {
          "indexed": true,
          "internalType": "address",
          "name": "previousOwner",
          "type": "address"
        },
        {
          "indexed": true,
          "internalType": "address",
          "name": "newOwner",
          "type": "address"
        }
      ],
      "name": "OwnershipTransferred",
      "type": "event"
    },
    {
      "anonymous": false,
      "inputs": [
        {
          "indexed": false,
          "internalType": "address",
          "name": "user",
          "type": "address"
        },
        {
          "indexed": true,
          "internalType": "uint256",
          "name": "fromPid",
          "type": "uint256"
        },
        {
          "indexed": true,
          "internalType": "uint256",
          "name": "fromTrancheId",
          "type": "uint256"
        },
        {
          "indexed": true,
          "internalType": "uint256",
          "name": "toPid",
          "type": "uint256"
        }
      ],
      "name": "TransferInvestment",
      "type": "event"
    },
    {
      "anonymous": false,
      "inputs": [
        {
          "indexed": true,
          "internalType": "address",
          "name": "user",
          "type": "address"
        },
        {
          "indexed": true,
          "internalType": "uint256",
          "name": "pid",
          "type": "uint256"
        },
        {
          "indexed": false,
          "internalType": "uint256",
          "name": "trancheId",
          "type": "uint256"
        },
        {
          "indexed": false,
          "internalType": "uint256",
          "name": "wantAmount",
          "type": "uint256"
        }
      ],
      "name": "Withdraw",
      "type": "event"
    },
    {
      "anonymous": false,
      "inputs": [
        {
          "indexed": true,
          "internalType": "uint256",
          "name": "_remoteChainId",
          "type": "uint256"
        },
        {
          "indexed": true,
          "internalType": "uint256",
          "name": "_buybackAmountUSDC",
          "type": "uint256"
        },
        {
          "indexed": true,
          "internalType": "uint256",
          "name": "_revShareAmountUSDC",
          "type": "uint256"
        }
      ],
      "name": "XChainDistributeEarnings",
      "type": "event"
    },
    {
      "anonymous": false,
      "inputs": [
        {
          "indexed": true,
          "internalType": "uint256",
          "name": "_pid",
          "type": "uint256"
        },
        {
          "indexed": true,
          "internalType": "address",
          "name": "_originRecipient",
          "type": "address"
        },
        {
          "indexed": true,
          "internalType": "uint256",
          "name": "_burnableZORRewards",
          "type": "uint256"
        },
        {
          "indexed": false,
          "internalType": "uint256",
          "name": "_trancheId",
          "type": "uint256"
        },
        {
          "indexed": false,
          "internalType": "uint256",
          "name": "_originChainId",
          "type": "uint256"
        }
      ],
      "name": "XChainRepatriation",
      "type": "event"
    },
    {
      "inputs": [
        {
          "internalType": "uint256",
          "name": "",
          "type": "uint256"
        }
      ],
      "name": "USDCToZorroLPPoolToken0Path",
      "outputs": [
        {
          "internalType": "address",
          "name": "",
          "type": "address"
        }
      ],
      "stateMutability": "view",
      "type": "function"
    },
    {
      "inputs": [
        {
          "internalType": "uint256",
          "name": "",
          "type": "uint256"
        }
      ],
      "name": "USDCToZorroLPPoolToken1Path",
      "outputs": [
        {
          "internalType": "address",
          "name": "",
          "type": "address"
        }
      ],
      "stateMutability": "view",
      "type": "function"
    },
    {
      "inputs": [
        {
          "internalType": "uint256",
          "name": "",
          "type": "uint256"
        }
      ],
      "name": "USDCToZorroPath",
      "outputs": [
        {
          "internalType": "address",
          "name": "",
          "type": "address"
        }
      ],
      "stateMutability": "view",
      "type": "function"
    },
    {
      "inputs": [],
      "name": "ZORRO",
      "outputs": [
        {
          "internalType": "address",
          "name": "",
          "type": "address"
        }
      ],
      "stateMutability": "view",
      "type": "function"
    },
    {
      "inputs": [],
      "name": "ZORRODailyDistributionFactorBasisPointsMax",
      "outputs": [
        {
          "internalType": "uint256",
          "name": "",
          "type": "uint256"
        }
      ],
      "stateMutability": "view",
      "type": "function"
    },
    {
      "inputs": [],
      "name": "ZORRODailyDistributionFactorBasisPointsMin",
      "outputs": [
        {
          "internalType": "uint256",
          "name": "",
          "type": "uint256"
        }
      ],
      "stateMutability": "view",
      "type": "function"
    },
    {
      "inputs": [],
      "name": "ZORROPerBlock",
      "outputs": [
        {
          "internalType": "uint256",
          "name": "",
          "type": "uint256"
        }
      ],
      "stateMutability": "view",
      "type": "function"
    },
    {
      "inputs": [],
      "name": "baseRewardRateBasisPoints",
      "outputs": [
        {
          "internalType": "uint256",
          "name": "",
          "type": "uint256"
        }
      ],
      "stateMutability": "view",
      "type": "function"
    },
    {
      "inputs": [],
      "name": "blocksPerDay",
      "outputs": [
        {
          "internalType": "uint256",
          "name": "",
          "type": "uint256"
        }
      ],
      "stateMutability": "view",
      "type": "function"
    },
    {
      "inputs": [],
      "name": "burnAddress",
      "outputs": [
        {
          "internalType": "address",
          "name": "",
          "type": "address"
        }
      ],
      "stateMutability": "view",
      "type": "function"
    },
    {
      "inputs": [],
      "name": "chainId",
      "outputs": [
        {
          "internalType": "uint256",
          "name": "",
          "type": "uint256"
        }
      ],
      "stateMutability": "view",
      "type": "function"
    },
    {
      "inputs": [],
      "name": "chainMultiplier",
      "outputs": [
        {
          "internalType": "uint256",
          "name": "",
          "type": "uint256"
        }
      ],
      "stateMutability": "view",
      "type": "function"
    },
    {
      "inputs": [
        {
          "internalType": "uint256",
          "name": "_chainId",
          "type": "uint256"
        },
        {
          "internalType": "bytes",
          "name": "_dstContract",
          "type": "bytes"
        },
        {
          "internalType": "uint256",
          "name": "_pid",
          "type": "uint256"
        },
        {
          "internalType": "uint256",
          "name": "_valueUSDC",
          "type": "uint256"
        },
        {
          "internalType": "uint256",
          "name": "_weeksCommitted",
          "type": "uint256"
        },
        {
          "internalType": "uint256",
          "name": "_maxMarketMovement",
          "type": "uint256"
        },
        {
          "internalType": "bytes",
          "name": "_destWallet",
          "type": "bytes"
        }
      ],
      "name": "checkXChainDepositFee",
      "outputs": [
        {
          "internalType": "uint256",
          "name": "",
          "type": "uint256"
        }
      ],
      "stateMutability": "view",
      "type": "function"
    },
    {
      "inputs": [
        {
          "internalType": "uint256",
          "name": "_amountUSDCBuyback",
          "type": "uint256"
        },
        {
          "internalType": "uint256",
          "name": "_amountUSDCRevShare",
          "type": "uint256"
        }
      ],
      "name": "checkXChainDistributeEarningsFee",
      "outputs": [
        {
          "internalType": "uint256",
          "name": "",
          "type": "uint256"
        }
      ],
      "stateMutability": "view",
      "type": "function"
    },
    {
      "inputs": [
        {
          "internalType": "uint256",
          "name": "_zorroChainId",
          "type": "uint256"
        },
        {
          "internalType": "uint256",
          "name": "_pid",
          "type": "uint256"
        },
        {
          "internalType": "uint256",
          "name": "_trancheId",
          "type": "uint256"
        },
        {
          "internalType": "uint256",
          "name": "_maxMarketMovement",
          "type": "uint256"
        }
      ],
      "name": "checkXChainWithdrawalFee",
      "outputs": [
        {
          "internalType": "uint256",
          "name": "",
          "type": "uint256"
        }
      ],
      "stateMutability": "view",
      "type": "function"
    },
    {
      "inputs": [],
      "name": "curveDefaultStablecoinIndex",
      "outputs": [
        {
          "internalType": "int128",
          "name": "",
          "type": "int128"
        }
      ],
      "stateMutability": "view",
      "type": "function"
    },
    {
      "inputs": [],
      "name": "curveStablePoolAddress",
      "outputs": [
        {
          "internalType": "address",
          "name": "",
          "type": "address"
        }
      ],
      "stateMutability": "view",
      "type": "function"
    },
    {
      "inputs": [],
      "name": "curveSyntheticStablecoinIndex",
      "outputs": [
        {
          "internalType": "int128",
          "name": "",
          "type": "int128"
        }
      ],
      "stateMutability": "view",
      "type": "function"
    },
    {
      "inputs": [],
      "name": "defaultMaxMarketMovement",
      "outputs": [
        {
          "internalType": "uint256",
          "name": "",
          "type": "uint256"
        }
      ],
      "stateMutability": "view",
      "type": "function"
    },
    {
      "inputs": [],
      "name": "defaultStablecoin",
      "outputs": [
        {
          "internalType": "address",
          "name": "",
          "type": "address"
        }
      ],
      "stateMutability": "view",
      "type": "function"
    },
    {
      "inputs": [
        {
          "internalType": "uint256",
          "name": "_pid",
          "type": "uint256"
        },
        {
          "internalType": "uint256",
          "name": "_wantAmt",
          "type": "uint256"
        },
        {
          "internalType": "uint256",
          "name": "_weeksCommitted",
          "type": "uint256"
        }
      ],
      "name": "deposit",
      "outputs": [],
      "stateMutability": "nonpayable",
      "type": "function"
    },
    {
      "inputs": [
        {
          "internalType": "uint256",
          "name": "_pid",
          "type": "uint256"
        },
        {
          "internalType": "uint256",
          "name": "_valueUSDC",
          "type": "uint256"
        },
        {
          "internalType": "uint256",
          "name": "_weeksCommitted",
          "type": "uint256"
        },
        {
          "internalType": "uint256",
          "name": "_maxMarketMovement",
          "type": "uint256"
        }
      ],
      "name": "depositFullService",
      "outputs": [],
      "stateMutability": "nonpayable",
      "type": "function"
    },
    {
      "inputs": [
        {
          "internalType": "uint256",
          "name": "",
          "type": "uint256"
        }
      ],
      "name": "endpointContracts",
      "outputs": [
        {
          "internalType": "address",
          "name": "",
          "type": "address"
        }
      ],
      "stateMutability": "view",
      "type": "function"
    },
    {
      "inputs": [],
      "name": "failedLockedBuybackUSDC",
      "outputs": [
        {
          "internalType": "uint256",
          "name": "",
          "type": "uint256"
        }
      ],
      "stateMutability": "view",
      "type": "function"
    },
    {
      "inputs": [],
      "name": "failedLockedRevShareUSDC",
      "outputs": [
        {
          "internalType": "uint256",
          "name": "",
          "type": "uint256"
        }
      ],
      "stateMutability": "view",
      "type": "function"
    },
    {
      "inputs": [
        {
          "internalType": "uint256",
          "name": "",
          "type": "uint256"
        },
        {
          "internalType": "bytes",
          "name": "",
          "type": "bytes"
        },
        {
          "internalType": "uint256",
          "name": "",
          "type": "uint256"
        }
      ],
      "name": "foreignTrancheInfo",
      "outputs": [
        {
          "internalType": "uint256",
          "name": "trancheIndex",
          "type": "uint256"
        },
        {
          "internalType": "address",
          "name": "localAccount",
          "type": "address"
        }
      ],
      "stateMutability": "view",
      "type": "function"
    },
    {
      "inputs": [
        {
          "internalType": "uint256",
          "name": "durationInWeeks",
          "type": "uint256"
        }
      ],
      "name": "getTimeMultiplier",
      "outputs": [
        {
          "internalType": "uint256",
          "name": "",
          "type": "uint256"
        }
      ],
      "stateMutability": "view",
      "type": "function"
    },
    {
      "inputs": [
        {
          "internalType": "uint256",
          "name": "_liquidityCommitted",
          "type": "uint256"
        },
        {
          "internalType": "uint256",
          "name": "_timeMultiplier",
          "type": "uint256"
        }
      ],
      "name": "getUserContribution",
      "outputs": [
        {
          "internalType": "uint256",
          "name": "",
          "type": "uint256"
        }
      ],
      "stateMutability": "pure",
      "type": "function"
    },
    {
      "inputs": [],
      "name": "homeChainId",
      "outputs": [
        {
          "internalType": "uint8",
          "name": "",
          "type": "uint8"
        }
      ],
      "stateMutability": "view",
      "type": "function"
    },
    {
      "inputs": [],
      "name": "homeChainZorroController",
      "outputs": [
        {
          "internalType": "address",
          "name": "",
          "type": "address"
        }
      ],
      "stateMutability": "view",
      "type": "function"
    },
    {
      "inputs": [
        {
          "internalType": "address",
          "name": "_token",
          "type": "address"
        },
        {
          "internalType": "uint256",
          "name": "_amount",
          "type": "uint256"
        }
      ],
      "name": "inCaseTokensGetStuck",
      "outputs": [],
      "stateMutability": "nonpayable",
      "type": "function"
    },
    {
      "inputs": [],
      "name": "isTimeMultiplierActive",
      "outputs": [
        {
          "internalType": "bool",
          "name": "",
          "type": "bool"
        }
      ],
      "stateMutability": "view",
      "type": "function"
    },
    {
      "inputs": [],
      "name": "layerZeroEndpoint",
      "outputs": [
        {
          "internalType": "address",
          "name": "",
          "type": "address"
        }
      ],
      "stateMutability": "view",
      "type": "function"
    },
    {
      "inputs": [],
      "name": "lockUSDCController",
      "outputs": [
        {
          "internalType": "address",
          "name": "",
          "type": "address"
        }
      ],
      "stateMutability": "view",
      "type": "function"
    },
    {
      "inputs": [],
      "name": "owner",
      "outputs": [
        {
          "internalType": "address",
          "name": "",
          "type": "address"
        }
      ],
      "stateMutability": "view",
      "type": "function"
    },
    {
      "inputs": [
        {
          "internalType": "uint256",
          "name": "",
          "type": "uint256"
        }
      ],
      "name": "poolInfo",
      "outputs": [
        {
          "internalType": "contract IERC20",
          "name": "want",
          "type": "address"
        },
        {
          "internalType": "uint256",
          "name": "allocPoint",
          "type": "uint256"
        },
        {
          "internalType": "uint256",
          "name": "lastRewardBlock",
          "type": "uint256"
        },
        {
          "internalType": "uint256",
          "name": "accZORRORewards",
          "type": "uint256"
        },
        {
          "internalType": "uint256",
          "name": "totalTrancheContributions",
          "type": "uint256"
        },
        {
          "internalType": "address",
          "name": "vault",
          "type": "address"
        }
      ],
      "stateMutability": "view",
      "type": "function"
    },
    {
      "inputs": [],
      "name": "poolLength",
      "outputs": [
        {
          "internalType": "uint256",
          "name": "",
          "type": "uint256"
        }
      ],
      "stateMutability": "view",
      "type": "function"
    },
    {
      "inputs": [],
      "name": "priceFeedLPPoolOtherToken",
      "outputs": [
        {
          "internalType": "contract AggregatorV3Interface",
          "name": "",
          "type": "address"
        }
      ],
      "stateMutability": "view",
      "type": "function"
    },
    {
      "inputs": [],
      "name": "priceFeedZOR",
      "outputs": [
        {
          "internalType": "contract AggregatorV3Interface",
          "name": "",
          "type": "address"
        }
      ],
      "stateMutability": "view",
      "type": "function"
    },
    {
      "inputs": [],
      "name": "publicPool",
      "outputs": [
        {
          "internalType": "address",
          "name": "",
          "type": "address"
        }
      ],
      "stateMutability": "view",
      "type": "function"
    },
    {
      "inputs": [
        {
          "internalType": "uint256",
          "name": "_pid",
          "type": "uint256"
        },
        {
          "internalType": "uint256",
          "name": "_valueUSDC",
          "type": "uint256"
        },
        {
          "internalType": "uint256",
          "name": "_weeksCommitted",
          "type": "uint256"
        },
        {
          "internalType": "uint256",
          "name": "_maxMarketMovement",
          "type": "uint256"
        },
        {
          "internalType": "bytes",
          "name": "_originAccount",
          "type": "bytes"
        },
        {
          "internalType": "address",
          "name": "_destAccount",
          "type": "address"
        }
      ],
      "name": "receiveXChainDepositRequest",
      "outputs": [],
      "stateMutability": "nonpayable",
      "type": "function"
    },
    {
      "inputs": [
        {
          "internalType": "uint256",
          "name": "_remoteChainId",
          "type": "uint256"
        },
        {
          "internalType": "uint256",
          "name": "_amountUSDCBuyback",
          "type": "uint256"
        },
        {
          "internalType": "uint256",
          "name": "_amountUSDCRevShare",
          "type": "uint256"
        }
      ],
      "name": "receiveXChainDistributionRequest",
      "outputs": [],
      "stateMutability": "nonpayable",
      "type": "function"
    },
    {
      "inputs": [
        {
          "internalType": "uint256",
          "name": "_originChainId",
          "type": "uint256"
        },
        {
          "internalType": "uint256",
          "name": "_pid",
          "type": "uint256"
        },
        {
          "internalType": "uint256",
          "name": "_trancheId",
          "type": "uint256"
        },
        {
          "internalType": "bytes",
          "name": "_originRecipient",
          "type": "bytes"
        },
        {
          "internalType": "uint256",
          "name": "_burnableZORRewards",
          "type": "uint256"
        }
      ],
      "name": "receiveXChainRepatriationRequest",
      "outputs": [],
      "stateMutability": "nonpayable",
      "type": "function"
    },
    {
      "inputs": [
        {
          "internalType": "uint256",
          "name": "_originChainId",
          "type": "uint256"
        },
        {
          "internalType": "bytes",
          "name": "_originAccount",
          "type": "bytes"
        },
        {
          "internalType": "uint256",
          "name": "_pid",
          "type": "uint256"
        },
        {
          "internalType": "uint256",
          "name": "_trancheId",
          "type": "uint256"
        },
        {
          "internalType": "uint256",
          "name": "_maxMarketMovement",
          "type": "uint256"
        }
      ],
      "name": "receiveXChainWithdrawalRequest",
      "outputs": [],
      "stateMutability": "nonpayable",
      "type": "function"
    },
    {
      "inputs": [
        {
          "internalType": "uint256",
          "name": "",
          "type": "uint256"
        },
        {
          "internalType": "address",
          "name": "",
          "type": "address"
        }
      ],
      "name": "redepositInfo",
      "outputs": [
        {
          "internalType": "uint256",
          "name": "durationCommittedInWeeks",
          "type": "uint256"
        },
        {
          "internalType": "uint256",
          "name": "enteredVaultAt",
          "type": "uint256"
        }
      ],
      "stateMutability": "view",
      "type": "function"
    },
    {
      "inputs": [
        {
          "internalType": "bytes",
          "name": "_contract",
          "type": "bytes"
        }
      ],
      "name": "registerXChainController",
      "outputs": [],
      "stateMutability": "nonpayable",
      "type": "function"
    },
    {
      "inputs": [
        {
          "internalType": "address",
          "name": "_contract",
          "type": "address"
        }
      ],
      "name": "registerXChainEndpoint",
      "outputs": [],
      "stateMutability": "nonpayable",
      "type": "function"
    },
    {
      "inputs": [
        {
          "internalType": "bytes",
          "name": "",
          "type": "bytes"
        }
      ],
      "name": "registeredXChainControllers",
      "outputs": [
        {
          "internalType": "bool",
          "name": "",
          "type": "bool"
        }
      ],
      "stateMutability": "view",
      "type": "function"
    },
    {
      "inputs": [
        {
          "internalType": "address",
          "name": "",
          "type": "address"
        }
      ],
      "name": "registeredXChainEndpoints",
      "outputs": [
        {
          "internalType": "uint8",
          "name": "",
          "type": "uint8"
        }
      ],
      "stateMutability": "view",
      "type": "function"
    },
    {
      "inputs": [],
      "name": "renounceOwnership",
      "outputs": [],
      "stateMutability": "nonpayable",
      "type": "function"
    },
    {
      "inputs": [
        {
          "internalType": "uint256",
          "name": "_zorroChainId",
          "type": "uint256"
        },
        {
          "internalType": "uint256",
          "name": "_pid",
          "type": "uint256"
        },
        {
          "internalType": "uint256",
          "name": "_valueUSDC",
          "type": "uint256"
        },
        {
          "internalType": "uint256",
          "name": "_weeksCommitted",
          "type": "uint256"
        },
        {
          "internalType": "uint256",
          "name": "_maxMarketMovement",
          "type": "uint256"
        },
        {
          "internalType": "bytes",
          "name": "_destWallet",
          "type": "bytes"
        }
      ],
      "name": "sendXChainDepositRequest",
      "outputs": [],
      "stateMutability": "payable",
      "type": "function"
    },
    {
      "inputs": [
        {
          "internalType": "uint256",
          "name": "_pid",
          "type": "uint256"
        },
        {
          "internalType": "uint256",
          "name": "_buybackAmountUSDC",
          "type": "uint256"
        },
        {
          "internalType": "uint256",
          "name": "_revShareAmountUSDC",
          "type": "uint256"
        },
        {
          "internalType": "uint256",
          "name": "_maxMarketMovement",
          "type": "uint256"
        }
      ],
      "name": "sendXChainDistributeEarningsRequest",
      "outputs": [],
      "stateMutability": "payable",
      "type": "function"
    },
    {
      "inputs": [
        {
          "internalType": "uint256",
          "name": "_destZorroChainId",
          "type": "uint256"
        },
        {
          "internalType": "bytes",
          "name": "_originAccount",
          "type": "bytes"
        },
        {
          "internalType": "uint256",
          "name": "_pid",
          "type": "uint256"
        },
        {
          "internalType": "uint256",
          "name": "_trancheId",
          "type": "uint256"
        },
        {
          "internalType": "uint256",
          "name": "_maxMarketMovement",
          "type": "uint256"
        }
      ],
      "name": "sendXChainWithdrawalRequest",
      "outputs": [],
      "stateMutability": "payable",
      "type": "function"
    },
    {
      "inputs": [
        {
          "internalType": "uint256",
          "name": "_baseRewardRateBasisPoints",
          "type": "uint256"
        }
      ],
      "name": "setBaseRewardRateBasisPoints",
      "outputs": [],
      "stateMutability": "nonpayable",
      "type": "function"
    },
    {
      "inputs": [
        {
          "internalType": "uint256",
          "name": "_blocksPerDay",
          "type": "uint256"
        }
      ],
      "name": "setBlocksPerDay",
      "outputs": [],
      "stateMutability": "nonpayable",
      "type": "function"
    },
    {
      "inputs": [
        {
          "internalType": "uint256",
          "name": "_chainId",
          "type": "uint256"
        }
      ],
      "name": "setChainId",
      "outputs": [],
      "stateMutability": "nonpayable",
      "type": "function"
    },
    {
      "inputs": [
        {
          "internalType": "uint256",
          "name": "_chainMultiplier",
          "type": "uint256"
        }
      ],
      "name": "setChainMultiplier",
      "outputs": [],
      "stateMutability": "nonpayable",
      "type": "function"
    },
    {
      "inputs": [
        {
          "internalType": "address",
          "name": "_curveStablePoolAddress",
          "type": "address"
        }
      ],
      "name": "setCurveStablePoolAddress",
      "outputs": [],
      "stateMutability": "nonpayable",
      "type": "function"
    },
    {
      "inputs": [
        {
          "internalType": "uint256",
          "name": "_defaultMaxMarketMovement",
          "type": "uint256"
        }
      ],
      "name": "setDefaultMaxMarketMovement",
      "outputs": [],
      "stateMutability": "nonpayable",
      "type": "function"
    },
    {
      "inputs": [
        {
          "internalType": "address",
          "name": "_defaultStablecoin",
          "type": "address"
        }
      ],
      "name": "setDefaultStablecoin",
      "outputs": [],
      "stateMutability": "nonpayable",
      "type": "function"
    },
    {
      "inputs": [
        {
          "internalType": "uint256",
          "name": "_chainId",
          "type": "uint256"
        },
        {
          "internalType": "address",
          "name": "_endpointContract",
          "type": "address"
        }
      ],
      "name": "setEndpointContracts",
      "outputs": [],
      "stateMutability": "nonpayable",
      "type": "function"
    },
    {
      "inputs": [
        {
          "internalType": "address",
          "name": "_homeChainZorroController",
          "type": "address"
        }
      ],
      "name": "setHomeChainZorroController",
      "outputs": [],
      "stateMutability": "nonpayable",
      "type": "function"
    },
    {
      "inputs": [
        {
          "internalType": "bool",
          "name": "_isActive",
          "type": "bool"
        }
      ],
      "name": "setIsTimeMultiplierActive",
      "outputs": [],
      "stateMutability": "nonpayable",
      "type": "function"
    },
    {
      "inputs": [
        {
          "internalType": "address",
          "name": "_lockUSDCController",
          "type": "address"
        }
      ],
      "name": "setLockUSDCController",
      "outputs": [],
      "stateMutability": "nonpayable",
      "type": "function"
    },
    {
      "inputs": [
        {
          "internalType": "address",
          "name": "_priceFeedLPPoolOtherToken",
          "type": "address"
        }
      ],
      "name": "setPriceFeedLPPoolOtherToken",
      "outputs": [],
      "stateMutability": "nonpayable",
      "type": "function"
    },
    {
      "inputs": [
        {
          "internalType": "address",
          "name": "_priceFeedZOR",
          "type": "address"
        }
      ],
      "name": "setPriceFeedZOR",
      "outputs": [],
      "stateMutability": "nonpayable",
      "type": "function"
    },
    {
      "inputs": [
        {
          "internalType": "address",
          "name": "_publicPoolAddress",
          "type": "address"
        }
      ],
      "name": "setPublicPool",
      "outputs": [],
      "stateMutability": "nonpayable",
      "type": "function"
    },
    {
      "inputs": [
        {
          "internalType": "uint256",
          "name": "_blockNumber",
          "type": "uint256"
        }
      ],
      "name": "setStartBlock",
      "outputs": [],
      "stateMutability": "nonpayable",
      "type": "function"
    },
    {
      "inputs": [
        {
          "internalType": "address",
          "name": "_syntheticStablecoin",
          "type": "address"
        }
      ],
      "name": "setSyntheticStablecoin",
      "outputs": [],
      "stateMutability": "nonpayable",
      "type": "function"
    },
    {
      "inputs": [
        {
          "internalType": "uint256",
          "name": "_targetTVLCaptureBasisPoints",
          "type": "uint256"
        }
      ],
      "name": "setTargetTVLCaptureBasisPoints",
      "outputs": [],
      "stateMutability": "nonpayable",
      "type": "function"
    },
    {
      "inputs": [
        {
          "internalType": "address[]",
          "name": "_path",
          "type": "address[]"
        }
      ],
      "name": "setUSDCToZorroLPPoolToken0Path",
      "outputs": [],
      "stateMutability": "nonpayable",
      "type": "function"
    },
    {
      "inputs": [
        {
          "internalType": "address[]",
          "name": "_path",
          "type": "address[]"
        }
      ],
      "name": "setUSDCToZorroLPPoolToken1Path",
      "outputs": [],
      "stateMutability": "nonpayable",
      "type": "function"
    },
    {
      "inputs": [
        {
          "internalType": "address",
          "name": "_uniV2Router",
          "type": "address"
        }
      ],
      "name": "setUniRouter",
      "outputs": [],
      "stateMutability": "nonpayable",
      "type": "function"
    },
    {
      "inputs": [
        {
          "internalType": "address",
          "name": "_xChainReceivingOracle",
          "type": "address"
        }
      ],
      "name": "setXChainReceivingOracle",
      "outputs": [],
      "stateMutability": "nonpayable",
      "type": "function"
    },
    {
      "inputs": [
        {
          "internalType": "uint256",
          "name": "_value",
          "type": "uint256"
        }
      ],
      "name": "setZORRODailyDistributionFactorBasisPointsMax",
      "outputs": [],
      "stateMutability": "nonpayable",
      "type": "function"
    },
    {
      "inputs": [
        {
          "internalType": "uint256",
          "name": "_value",
          "type": "uint256"
        }
      ],
      "name": "setZORRODailyDistributionFactorBasisPointsMin",
      "outputs": [],
      "stateMutability": "nonpayable",
      "type": "function"
    },
    {
      "inputs": [
        {
          "internalType": "address",
          "name": "_zorroControllerOracle",
          "type": "address"
        }
      ],
      "name": "setZorroControllerOracle",
      "outputs": [],
      "stateMutability": "nonpayable",
      "type": "function"
    },
    {
      "inputs": [
        {
          "internalType": "bytes32",
          "name": "_zorroControllerOracleEmissionsJobId",
          "type": "bytes32"
        }
      ],
      "name": "setZorroControllerOracleEmissionsJobId",
      "outputs": [],
      "stateMutability": "nonpayable",
      "type": "function"
    },
    {
      "inputs": [
        {
          "internalType": "uint256",
          "name": "_zorroControllerOracleFee",
          "type": "uint256"
        }
      ],
      "name": "setZorroControllerOracleFee",
      "outputs": [],
      "stateMutability": "nonpayable",
      "type": "function"
    },
    {
      "inputs": [
        {
          "internalType": "bytes32",
          "name": "_zorroControllerOraclePriceJobId",
          "type": "bytes32"
        }
      ],
      "name": "setZorroControllerOraclePriceJobId",
      "outputs": [],
      "stateMutability": "nonpayable",
      "type": "function"
    },
    {
      "inputs": [
        {
          "internalType": "address",
          "name": "_zorroLPPool",
          "type": "address"
        }
      ],
      "name": "setZorroLPPool",
      "outputs": [],
      "stateMutability": "nonpayable",
      "type": "function"
    },
    {
      "inputs": [
        {
          "internalType": "address",
          "name": "_token",
          "type": "address"
        }
      ],
      "name": "setZorroLPPoolOtherToken",
      "outputs": [],
      "stateMutability": "nonpayable",
      "type": "function"
    },
    {
      "inputs": [
        {
          "internalType": "uint256",
          "name": "_totalChainMultipliers",
          "type": "uint256"
        },
        {
          "internalType": "uint256",
          "name": "_totalMarketTVLUSD",
          "type": "uint256"
        },
        {
          "internalType": "uint256",
          "name": "_targetTVLCaptureBasisPoints",
          "type": "uint256"
        },
        {
          "internalType": "uint256",
          "name": "_ZorroTotalVaultTVLUSD",
          "type": "uint256"
        },
        {
          "internalType": "uint256",
          "name": "_publicPoolZORBalance",
          "type": "uint256"
        }
      ],
      "name": "setZorroPerBlock",
      "outputs": [],
      "stateMutability": "nonpayable",
      "type": "function"
    },
    {
      "inputs": [
        {
          "internalType": "address",
          "name": "_zorroStakingVault",
          "type": "address"
        }
      ],
      "name": "setZorroStakingVault",
      "outputs": [],
      "stateMutability": "nonpayable",
      "type": "function"
    },
    {
      "inputs": [
        {
          "internalType": "uint256",
          "name": "",
          "type": "uint256"
        }
      ],
      "name": "stargateDestPoolIds",
      "outputs": [
        {
          "internalType": "uint256",
          "name": "",
          "type": "uint256"
        }
      ],
      "stateMutability": "view",
      "type": "function"
    },
    {
      "inputs": [],
      "name": "stargateRouter",
      "outputs": [
        {
          "internalType": "address",
          "name": "",
          "type": "address"
        }
      ],
      "stateMutability": "view",
      "type": "function"
    },
    {
      "inputs": [],
      "name": "stargateSwapPoolId",
      "outputs": [
        {
          "internalType": "uint256",
          "name": "",
          "type": "uint256"
        }
      ],
      "stateMutability": "view",
      "type": "function"
    },
    {
      "inputs": [
        {
          "internalType": "uint256",
          "name": "",
          "type": "uint256"
        }
      ],
      "name": "stargateZorroChainMap",
      "outputs": [
        {
          "internalType": "uint16",
          "name": "",
          "type": "uint16"
        }
      ],
      "stateMutability": "view",
      "type": "function"
    },
    {
      "inputs": [],
      "name": "startBlock",
      "outputs": [
        {
          "internalType": "uint256",
          "name": "",
          "type": "uint256"
        }
      ],
      "stateMutability": "view",
      "type": "function"
    },
    {
      "inputs": [],
      "name": "syntheticStablecoin",
      "outputs": [
        {
          "internalType": "address",
          "name": "",
          "type": "address"
        }
      ],
      "stateMutability": "view",
      "type": "function"
    },
    {
      "inputs": [],
      "name": "targetTVLCaptureBasisPoints",
      "outputs": [
        {
          "internalType": "uint256",
          "name": "",
          "type": "uint256"
        }
      ],
      "stateMutability": "view",
      "type": "function"
    },
    {
      "inputs": [],
      "name": "totalAllocPoint",
      "outputs": [
        {
          "internalType": "uint256",
          "name": "",
          "type": "uint256"
        }
      ],
      "stateMutability": "view",
      "type": "function"
    },
    {
      "inputs": [
        {
          "internalType": "uint256",
          "name": "",
          "type": "uint256"
        },
        {
          "internalType": "address",
          "name": "",
          "type": "address"
        },
        {
          "internalType": "uint256",
          "name": "",
          "type": "uint256"
        }
      ],
      "name": "trancheInfo",
      "outputs": [
        {
          "internalType": "uint256",
          "name": "contribution",
          "type": "uint256"
        },
        {
          "internalType": "uint256",
          "name": "timeMultiplier",
          "type": "uint256"
        },
        {
          "internalType": "uint256",
          "name": "rewardDebt",
          "type": "uint256"
        },
        {
          "internalType": "uint256",
          "name": "durationCommittedInWeeks",
          "type": "uint256"
        },
        {
          "internalType": "uint256",
          "name": "enteredVaultAt",
          "type": "uint256"
        },
        {
          "internalType": "uint256",
          "name": "exitedVaultStartingAt",
          "type": "uint256"
        }
      ],
      "stateMutability": "view",
      "type": "function"
    },
    {
      "inputs": [
        {
          "internalType": "uint256",
          "name": "_pid",
          "type": "uint256"
        },
        {
          "internalType": "address",
          "name": "_user",
          "type": "address"
        }
      ],
      "name": "trancheLength",
      "outputs": [
        {
          "internalType": "uint256",
          "name": "",
          "type": "uint256"
        }
      ],
      "stateMutability": "view",
      "type": "function"
    },
    {
      "inputs": [
        {
          "internalType": "uint256",
          "name": "_fromPid",
          "type": "uint256"
        },
        {
          "internalType": "uint256",
          "name": "_fromTrancheId",
          "type": "uint256"
        },
        {
          "internalType": "uint256",
          "name": "_toPid",
          "type": "uint256"
        },
        {
          "internalType": "uint256",
          "name": "_maxMarketMovement",
          "type": "uint256"
        }
      ],
      "name": "transferInvestment",
      "outputs": [],
      "stateMutability": "nonpayable",
      "type": "function"
    },
    {
      "inputs": [
        {
          "internalType": "address",
          "name": "newOwner",
          "type": "address"
        }
      ],
      "name": "transferOwnership",
      "outputs": [],
      "stateMutability": "nonpayable",
      "type": "function"
    },
    {
      "inputs": [
        {
          "internalType": "bytes",
          "name": "_contract",
          "type": "bytes"
        }
      ],
      "name": "unRegisterXChainController",
      "outputs": [],
      "stateMutability": "nonpayable",
      "type": "function"
    },
    {
      "inputs": [
        {
          "internalType": "address",
          "name": "_contract",
          "type": "address"
        }
      ],
      "name": "unRegisterXChainEndpoint",
      "outputs": [],
      "stateMutability": "nonpayable",
      "type": "function"
    },
    {
      "inputs": [],
      "name": "uniRouterAddress",
      "outputs": [
        {
          "internalType": "address",
          "name": "",
          "type": "address"
        }
      ],
      "stateMutability": "view",
      "type": "function"
    },
    {
      "inputs": [
        {
          "internalType": "uint256",
          "name": "_pid",
          "type": "uint256"
        }
      ],
      "name": "updatePool",
      "outputs": [
        {
          "internalType": "uint256",
          "name": "",
          "type": "uint256"
        }
      ],
      "stateMutability": "nonpayable",
      "type": "function"
    },
    {
      "inputs": [
        {
          "internalType": "uint256",
          "name": "_pid",
          "type": "uint256"
        },
        {
          "internalType": "uint256",
          "name": "_trancheId",
          "type": "uint256"
        },
        {
          "internalType": "bool",
          "name": "_harvestOnly",
          "type": "bool"
        }
      ],
      "name": "withdraw",
      "outputs": [
        {
          "internalType": "uint256",
          "name": "",
          "type": "uint256"
        }
      ],
      "stateMutability": "nonpayable",
      "type": "function"
    },
    {
      "inputs": [
        {
          "internalType": "uint256",
          "name": "_pid",
          "type": "uint256"
        }
      ],
      "name": "withdrawAll",
      "outputs": [],
      "stateMutability": "nonpayable",
      "type": "function"
    },
    {
      "inputs": [
        {
          "internalType": "uint256",
          "name": "_pid",
          "type": "uint256"
        },
        {
          "internalType": "uint256",
          "name": "_trancheId",
          "type": "uint256"
        },
        {
          "internalType": "bool",
          "name": "_harvestOnly",
          "type": "bool"
        },
        {
          "internalType": "uint256",
          "name": "_maxMarketMovement",
          "type": "uint256"
        }
      ],
      "name": "withdrawalFullService",
      "outputs": [
        {
          "internalType": "uint256",
          "name": "",
          "type": "uint256"
        }
      ],
      "stateMutability": "nonpayable",
      "type": "function"
    },
    {
      "inputs": [],
      "name": "xChainReceivingOracle",
      "outputs": [
        {
          "internalType": "address",
          "name": "",
          "type": "address"
        }
      ],
      "stateMutability": "view",
      "type": "function"
    },
    {
      "inputs": [],
      "name": "zorroControllerOracle",
      "outputs": [
        {
          "internalType": "address",
          "name": "",
          "type": "address"
        }
      ],
      "stateMutability": "view",
      "type": "function"
    },
    {
      "inputs": [],
      "name": "zorroControllerOracleEmissionsJobId",
      "outputs": [
        {
          "internalType": "bytes32",
          "name": "",
          "type": "bytes32"
        }
      ],
      "stateMutability": "view",
      "type": "function"
    },
    {
      "inputs": [],
      "name": "zorroControllerOracleFee",
      "outputs": [
        {
          "internalType": "uint256",
          "name": "",
          "type": "uint256"
        }
      ],
      "stateMutability": "view",
      "type": "function"
    },
    {
      "inputs": [],
      "name": "zorroControllerOraclePriceJobId",
      "outputs": [
        {
          "internalType": "bytes32",
          "name": "",
          "type": "bytes32"
        }
      ],
      "stateMutability": "view",
      "type": "function"
    },
    {
      "inputs": [],
      "name": "zorroLPPool",
      "outputs": [
        {
          "internalType": "address",
          "name": "",
          "type": "address"
        }
      ],
      "stateMutability": "view",
      "type": "function"
    },
    {
      "inputs": [],
      "name": "zorroLPPoolOtherToken",
      "outputs": [
        {
          "internalType": "address",
          "name": "",
          "type": "address"
        }
      ],
      "stateMutability": "view",
      "type": "function"
    },
    {
      "inputs": [],
      "name": "zorroStakingVault",
      "outputs": [
        {
          "internalType": "address",
          "name": "",
          "type": "address"
        }
      ],
      "stateMutability": "view",
      "type": "function"
    },
    {
      "inputs": [
        {
          "internalType": "uint16",
          "name": "",
          "type": "uint16"
        }
      ],
      "name": "zorroStargateChainMap",
      "outputs": [
        {
          "internalType": "uint256",
          "name": "",
          "type": "uint256"
        }
      ],
      "stateMutability": "view",
      "type": "function"
    },
    {
      "inputs": [
        {
          "internalType": "uint16",
          "name": "_chainId",
          "type": "uint16"
        },
        {
          "internalType": "bytes",
          "name": "_srcAddress",
          "type": "bytes"
        },
        {
          "internalType": "uint256",
          "name": "_nonce",
          "type": "uint256"
        },
        {
          "internalType": "address",
          "name": "_token",
          "type": "address"
        },
        {
          "internalType": "uint256",
          "name": "amountLD",
          "type": "uint256"
        },
        {
          "internalType": "bytes",
          "name": "payload",
          "type": "bytes"
        }
      ],
      "name": "sgReceive",
      "outputs": [],
      "stateMutability": "nonpayable",
      "type": "function"
    },
    {
      "inputs": [
        {
          "internalType": "uint16",
          "name": "_srcChainId",
          "type": "uint16"
        },
        {
          "internalType": "bytes",
          "name": "_srcAddress",
          "type": "bytes"
        },
        {
          "internalType": "uint64",
          "name": "_nonce",
          "type": "uint64"
        },
        {
          "internalType": "bytes",
          "name": "_payload",
          "type": "bytes"
        }
      ],
      "name": "lzReceive",
      "outputs": [],
      "stateMutability": "nonpayable",
      "type": "function"
    }
  ],
  "bytecode": "0x608060405260038054600160a060020a03191661dead179055617080600655600160098190556014600a908155600b829055600c805460ff199081169093179055600d556103ca601855601c8054909116905560006033553480156200006457600080fd5b506200008b6200007c64010000000062000095810204565b64010000000062000099810204565b60018055620000e9565b3390565b60008054600160a060020a03838116600160a060020a0319831681178455604051919092169283917f8be0079c531659141344cd1fd0a4f28419497f9722a3daafe3b4186f6b6457e09190a35050565b616afe80620000f96000396000f3fe6080604052600436106106eb5760003560e060020a900480637bf604d811610389578063b22f3251116101e0578063ce9e292811610111578063ee4e2687116100af578063f2d0caa91161007e578063f2d0caa91461154b578063f2fde38b1461156b578063f35e4a6e1461158b578063fc39a29e146115ab57600080fd5b8063ee4e2687146114d1578063ef0e2ff4146114f1578063ef12696714611511578063ef190fec1461152b57600080fd5b8063ddd88fec116100eb578063ddd88fec14611457578063ea07667a14611477578063ebfba7c414611497578063ec54e4a4146114b757600080fd5b8063ce9e292814611401578063d7f33a8214611421578063d85c55481461144157600080fd5b8063c29de0d21161017e578063c6d758cb11610158578063c6d758cb14611367578063c913b4b314611387578063c9f363c4146113cb578063cb9c2f68146113eb57600080fd5b8063c29de0d2146112d3578063c4f79c2314611327578063c524a0561461134757600080fd5b8063b61bb80a116101ba578063b61bb80a1461125d578063b961b9b41461127d578063c27893ef1461129d578063c2936142146112bd57600080fd5b8063b22f3251146111d0578063b4b4e9eb146111f0578063b614bdba1461123d57600080fd5b80639a8a0592116102ba578063a3f038be11610258578063a80bee0711610232578063a80bee0714611150578063a9418d6714611170578063a9e56f3c14611190578063ab8236f3146111b057600080fd5b8063a3f038be146110f0578063a4d2b08314611110578063a77f62c91461113057600080fd5b80639cebd371116102945780639cebd3711461108c578063a00c807c146110a2578063a07b9e6d146110c2578063a2df085c146110dd57600080fd5b80639a8a0592146110405780639b8ad2d6146110565780639cde7a001461106c57600080fd5b80638c157db21161032757806394909cc21161030157806394909cc214610fc05780639568786c14610fe0578063958e2d3114611000578063959334f41461102057600080fd5b80638c157db214610f685780638da5cb5b14610f88578063941d3fd014610fa657600080fd5b80637e49b840116103635780637e49b84014610ec657806381ea795d14610f08578063823c43d014610f28578063871869ca14610f4857600080fd5b80637bf604d814610e735780637cb6e78f14610e935780637e37c76914610ea657600080fd5b80634780f9f511610548578063668ababb116104795780636b908e5711610417578063715018a6116103e6578063715018a614610e08578063745af0a814610e1d57806376cc230314610e3d57806379777d8114610e5357600080fd5b80636b908e5714610d925780636c78d49c14610da85780636ca8bd6514610dc857806370d5ae0514610de857600080fd5b806368d2b2601161045357806368d2b26014610d21578063692d8b8b14610d37578063693a090b14610d525780636b8eb2e514610d7257600080fd5b8063668ababb14610cc1578063683dc6f514610ce157806368ce004b14610d0157600080fd5b806353f73f87116104e6578063592dcbd3116104c0578063592dcbd314610c1b5780636179ecd114610c3b57806361b729dc14610c5b57806365bc77bc14610c7657600080fd5b806353f73f8714610bcf5780635527a6f914610bef5780635790f59914610c0557600080fd5b80634cfea68a116105225780634cfea68a14610b635780635051d37114610b7957806351eb05a614610b995780635242777214610bb957600080fd5b80634780f9f514610b0d57806348cd4cb114610b2d57806348d57c8e14610b4357600080fd5b80632c4599fb116106225780633b710688116105c05780633bea9fa81161059a5780633bea9fa814610a9a5780634098b0eb14610aba578063416d0de714610ada578063464e3c8b14610afa57600080fd5b80633b71068814610a4e5780633b9ce56514610a645780633bbc1ffc14610a7a57600080fd5b80633486a32e116105fc5780633486a32e146109ad578063353b6c2c146109cd57806337541464146109ed5780633b35b72714610a2e57600080fd5b80632c4599fb146109305780632e31283d1461095057806333cfcd3b1461098d57600080fd5b80631479a6df1161068f57806317caf6f11161066957806317caf6f1146108975780631ca95f94146108ad578063219b38b8146108e357806326fc7c7d1461091057600080fd5b80631479a6df146107ee5780631526fe271461080e578063158340411461086a57600080fd5b80630689acd2116106cb5780630689acd21461076f57806307968db11461078f578063081e3eda146107af578063104a6132146107ce57600080fd5b80621d3567146106f0578062aeef8a14610712578063025b104514610732575b600080fd5b3480156106fc57600080fd5b5061071061070b366004615a81565b6115cb565b005b34801561071e57600080fd5b5061071061072d366004615b1b565b611723565b34801561073e57600080fd5b5060235461075290600160a060020a031681565b604051600160a060020a0390911681526020015b60405180910390f35b34801561077b57600080fd5b5061071061078a366004615c0f565b6117d7565b34801561079b57600080fd5b5060295461075290600160a060020a031681565b3480156107bb57600080fd5b506030545b604051908152602001610766565b3480156107da57600080fd5b506107526107e9366004615c71565b611829565b3480156107fa57600080fd5b50610710610809366004615c71565b611853565b34801561081a57600080fd5b5061082e610829366004615c71565b611885565b60408051600160a060020a03978816815260208101969096528501939093526060840191909152608083015290911660a082015260c001610766565b34801561087657600080fd5b506107c0610885366004615c8a565b60256020526000908152604090205481565b3480156108a357600080fd5b506107c060335481565b3480156108b957600080fd5b506107526108c8366004615c71565b601d60205260009081526040902054600160a060020a031681565b3480156108ef57600080fd5b506107c06108fe366004615c71565b60286020526000908152604090205481565b34801561091c57600080fd5b5061071061092b366004615cba565b6118d8565b34801561093c57600080fd5b5061071061094b366004615c71565b611927565b34801561095c57600080fd5b5061097061096b366004615cd7565b611959565b60408051928352600160a060020a03909116602083015201610766565b34801561099957600080fd5b506107c06109a8366004615d35565b6119bb565b3480156109b957600080fd5b506107106109c8366004615cba565b611a51565b3480156109d957600080fd5b506107106109e8366004615c71565b611aa0565b3480156109f957600080fd5b50601154610a1b907001000000000000000000000000000000009004600f0b81565b604051600f9190910b8152602001610766565b348015610a3a57600080fd5b50610710610a49366004615c71565b611ad2565b348015610a5a57600080fd5b506107c0600d5481565b348015610a7057600080fd5b506107c0600a5481565b348015610a8657600080fd5b50610710610a95366004615c71565b611b04565b348015610aa657600080fd5b506107c0610ab5366004615d6e565b611b36565b348015610ac657600080fd5b50610710610ad5366004615c71565b611c69565b348015610ae657600080fd5b50600f5461075290600160a060020a031681565b610710610b08366004615d90565b611c9b565b348015610b1957600080fd5b50610710610b28366004615d90565b611ee6565b348015610b3957600080fd5b506107c060055481565b348015610b4f57600080fd5b5060205461075290600160a060020a031681565b348015610b6f57600080fd5b506107c060065481565b348015610b8557600080fd5b50610710610b94366004615cba565b611f8f565b348015610ba557600080fd5b506107c0610bb4366004615c71565b611fde565b348015610bc557600080fd5b506107c0602f5481565b348015610bdb57600080fd5b506107c0610bea366004615dc2565b61215d565b348015610bfb57600080fd5b506107c060095481565b348015610c1157600080fd5b506107c060275481565b348015610c2757600080fd5b50610710610c36366004615cba565b612185565b348015610c4757600080fd5b50610710610c56366004615c71565b6121d4565b348015610c6757600080fd5b5061071061078a366004615df2565b348015610c8257600080fd5b50610cb1610c91366004615e54565b8051602081830181018051601f8252928201919093012091525460ff1681565b6040519015158152602001610766565b348015610ccd57600080fd5b5060045461075290600160a060020a031681565b348015610ced57600080fd5b50610710610cfc366004615cba565b612206565b348015610d0d57600080fd5b50610710610d1c366004615e89565b612255565b348015610d2d57600080fd5b506107c0602e5481565b348015610d4357600080fd5b5061071061078a366004615f2e565b348015610d5e57600080fd5b5060145461075290600160a060020a031681565b348015610d7e57600080fd5b50610710610d8d366004615fa5565b6122a1565b348015610d9e57600080fd5b506107c0602d5481565b348015610db457600080fd5b50610710610dc3366004615fe0565b6123a0565b348015610dd457600080fd5b50610710610de3366004615cba565b6123e0565b348015610df457600080fd5b5060035461075290600160a060020a031681565b348015610e1457600080fd5b5061071061242f565b348015610e2957600080fd5b506107c0610e38366004615ffd565b612468565b348015610e4957600080fd5b506107c060225481565b348015610e5f57600080fd5b50602b5461075290600160a060020a031681565b348015610e7f57600080fd5b5060125461075290600160a060020a031681565b610710610ea1366004615df2565b6124df565b348015610eb257600080fd5b50610710610ec1366004615d90565b6125bf565b348015610ed257600080fd5b50610ef6610ee1366004615cba565b601e6020526000908152604090205460ff1681565b60405160ff9091168152602001610766565b348015610f1457600080fd5b50610710610f23366004615e54565b61273e565b348015610f3457600080fd5b50602c5461075290600160a060020a031681565b348015610f5457600080fd5b50610710610f63366004615e54565b6127a0565b348015610f7457600080fd5b5060025461075290600160a060020a031681565b348015610f9457600080fd5b50600054600160a060020a0316610752565b348015610fb257600080fd5b50600c54610cb19060ff1681565b348015610fcc57600080fd5b50610710610fdb366004615cba565b6127df565b348015610fec57600080fd5b506107c0610ffb366004615c71565b61282e565b34801561100c57600080fd5b5061071061101b366004615c71565b612907565b34801561102c57600080fd5b5061071061103b366004615cba565b612971565b34801561104c57600080fd5b506107c0601b5481565b34801561106257600080fd5b506107c060185481565b34801561107857600080fd5b50610752611087366004615c71565b6129c0565b34801561109857600080fd5b506107c0600b5481565b3480156110ae57600080fd5b506107106110bd366004615e89565b6129d0565b3480156110ce57600080fd5b5061071061078a366004615b1b565b6107106110eb36600461603c565b612a15565b3480156110fc57600080fd5b506107c061110b366004615d90565b612baa565b34801561111c57600080fd5b5060195461075290600160a060020a031681565b34801561113c57600080fd5b5061071061114b366004615c71565b612ca6565b34801561115c57600080fd5b506107c061116b366004615d6e565b612cd8565b34801561117c57600080fd5b5061071061118b366004615cba565b612cf4565b34801561119c57600080fd5b5060265461075290600160a060020a031681565b3480156111bc57600080fd5b506107106111cb3660046160a8565b612d9c565b3480156111dc57600080fd5b50602a5461075290600160a060020a031681565b3480156111fc57600080fd5b5061121061120b366004616136565b613037565b604080519687526020870195909552938501929092526060840152608083015260a082015260c001610766565b34801561124957600080fd5b50610752611258366004615c71565b613098565b34801561126957600080fd5b50600e5461075290600160a060020a031681565b34801561128957600080fd5b50610710611298366004615c71565b6130a8565b3480156112a957600080fd5b5060105461075290600160a060020a031681565b3480156112c957600080fd5b506107c060075481565b3480156112df57600080fd5b506113126112ee366004615dc2565b60346020908152600092835260408084209091529082529020805460019091015482565b60408051928352602083019190915201610766565b34801561133357600080fd5b50610710611342366004615dc2565b6130da565b34801561135357600080fd5b50610710611362366004615cba565b613135565b34801561137357600080fd5b5061071061138236600461616e565b613184565b34801561139357600080fd5b506113b86113a2366004615c71565b60246020526000908152604090205461ffff1681565b60405161ffff9091168152602001610766565b3480156113d757600080fd5b506107c06113e636600461619a565b61324c565b3480156113f757600080fd5b506107c060085481565b34801561140d57600080fd5b5061071061141c366004615cba565b613349565b34801561142d57600080fd5b5061071061143c366004615cba565b613398565b34801561144d57600080fd5b506107c060215481565b34801561146357600080fd5b50610710611472366004615cba565b6133e9565b34801561148357600080fd5b50610710611492366004615c71565b613438565b3480156114a357600080fd5b5060135461075290600160a060020a031681565b3480156114c357600080fd5b50601154610a1b90600f0b81565b3480156114dd57600080fd5b506107106114ec366004615cba565b61346a565b3480156114fd57600080fd5b5061071061150c366004615c71565b6134b9565b34801561151d57600080fd5b50601c54610ef69060ff1681565b34801561153757600080fd5b50610710611546366004615cba565b6134eb565b34801561155757600080fd5b50610710611566366004615cba565b61353a565b34801561157757600080fd5b50610710611586366004615cba565b613588565b34801561159757600080fd5b506107106115a6366004615c71565b613640565b3480156115b757600080fd5b50601a5461075290600160a060020a031681565b61ffff861660009081526025602052604090819020549051601f906115f3908890889061622e565b9081526040519081900360200190205460ff1661165a5760405160e560020a62461bcd02815260206004820152601760248201527f756e7265636f676e697a656420636f6e74726f6c6c657200000000000000000060448201526064015b60405180910390fd5b6000611666838561623e565b90507f61b729dc00000000000000000000000000000000000000000000000000000000600160e060020a0319821614156116ce576000808080806116ac888a018a616287565b95509550955095509550506116c48585858585613672565b5050505050611719565b60405160e560020a62461bcd02815260206004820152601160248201527f556e7265636f676e697a65642066756e630000000000000000000000000000006044820152606401611651565b5050505050505050565b600260015414156117495760405160e560020a62461bcd028152600401611651906162fc565b600260018190555060006030848154811061176657611766616333565b60009182526020909120600690910201805490915061178f90600160a060020a0316308561382a565b600581015481546117af91600160a060020a03918216913391168661395c565b6117cc8433604051806020016040528060008152508686426139ad565b505060018055505050565b60405160e560020a62461bcd02815260206004820152601760248201527f696c6c6567616c2064756d6d792066756e632063616c6c0000000000000000006044820152606401611651565b5050505050565b6017818154811061183957600080fd5b600091825260209091200154600160a060020a0316905081565b600054600160a060020a031633146118805760405160e560020a62461bcd0281526004016116519061634c565b600955565b6030818154811061189557600080fd5b6000918252602090912060069091020180546001820154600283015460038401546004850154600590950154600160a060020a0394851696509294919390921686565b600054600160a060020a031633146119055760405160e560020a62461bcd0281526004016116519061634c565b60208054600160a060020a031916600160a060020a0392909216919091179055565b600054600160a060020a031633146119545760405160e560020a62461bcd0281526004016116519061634c565b602e55565b6032602090815260008481526040902083518085018301805192815290830192850192909220915280548290811061199057600080fd5b600091825260209091206002909102018054600190910154909350600160a060020a03169150839050565b6000600260015414156119e35760405160e560020a62461bcd028152600401611651906162fc565b60026001819055506000611a098533604051806020016040528060008152508787613d93565b509050611a45338260308881548110611a2457611a24616333565b6000918252602090912060069091020154600160a060020a03169190614122565b60018055949350505050565b600054600160a060020a03163314611a7e5760405160e560020a62461bcd0281526004016116519061634c565b602b8054600160a060020a031916600160a060020a0392909216919091179055565b600054600160a060020a03163314611acd5760405160e560020a62461bcd0281526004016116519061634c565b600655565b600054600160a060020a03163314611aff5760405160e560020a62461bcd0281526004016116519061634c565b600a55565b600054600160a060020a03163314611b315760405160e560020a62461bcd0281526004016116519061634c565b600855565b6040805160608082018352600080835260208301819052928201526000611b60601b54868661416b565b601c5460ff166000908152601d602090815260408083205490519394509192611b9392600160a060020a03169101616381565b60408051601f19818403018152828252602654601c5460ff1660009081526024602052928320547f0a51236900000000000000000000000000000000000000000000000000000000855291945091928392600160a060020a031691630a51236991611c0e9161ffff169060019088908a908c90600401616425565b6040805180830381865afa158015611c2a573d6000803e3d6000fd5b505050506040513d601f19601f82011682018060405250810190611c4e9190616471565b9092509050611c5d82826141e1565b98975050505050505050565b600054600160a060020a03163314611c965760405160e560020a62461bcd0281526004016116519061634c565b600d55565b60026001541415611cc15760405160e560020a62461bcd028152600401611651906162fc565b60026001819055508360308181548110611cdd57611cdd616333565b6000918252602090912060069091020160050154600160a060020a031633600160a060020a031614611d545760405160e560020a62461bcd02815260206004820152600e60248201527f6f6e6c7920726567207661756c740000000000000000000000000000000000006044820152606401611651565b60003411611da75760405160e560020a62461bcd02815260206004820152601160248201527f4e6f2066656573207375626d69747465640000000000000000000000000000006044820152606401611651565b6000611db385856141e1565b600e54909150611dcd90600160a060020a0316308361382a565b600e54611de590600160a060020a031633308461395c565b600e5460405160e060020a6370a08231028152306004820152600091600160a060020a0316906370a0823190602401602060405180830381865afa158015611e31573d6000803e3d6000fd5b505050506040513d601f19601f82011682018060405250810190611e559190616495565b90506000611e66601b54888861416b565b601b546000908152601d602090815260408083205490519394509192611e9692600160a060020a03169101616381565b60408051601f1981840301815260a083018252601c5460ff1683526020830186905290820181905260608201849052608082018890529150611ed7906141ed565b50506001805550505050505050565b60026001541415611f0c5760405160e560020a62461bcd028152600401611651906162fc565b6002600181905550600060308581548110611f2957611f29616333565b6000918252602090912060056006909202010154600e54600160a060020a039182169250611f599116308661382a565b600e54611f7190600160a060020a031633838761395c565b6117cc853360405180602001604052806000815250878742886142dd565b600054600160a060020a03163314611fbc5760405160e560020a62461bcd0281526004016116519061634c565b602c8054600160a060020a031916600160a060020a0392909216919091179055565b60008060308381548110611ff457611ff4616333565b90600052602060002090600602019050806002015443116120185750600092915050565b60006120318260020154436143ee90919063ffffffff16565b905060008111612045575060009392505050565b6000612076603354612070856001015461206a600754876143fa90919063ffffffff16565b906143fa565b90614406565b601a54909150600160a060020a03163014156120cf576004546002546120aa91600160a060020a039182169116308461395c565b60038301546120b990826141e1565b6003840155505043600290910155506000919050565b6002546040517f40c10f1900000000000000000000000000000000000000000000000000000000815230600482015260248101839052600160a060020a03909116906340c10f1990604401600060405180830381600087803b15801561213457600080fd5b505af1158015612148573d6000803e3d6000fd5b5092979650505050505050565b505050919050565b6000918252603160209081526040808420600160a060020a0393909316845291905290205490565b600054600160a060020a031633146121b25760405160e560020a62461bcd0281526004016116519061634c565b602a8054600160a060020a031916600160a060020a0392909216919091179055565b600054600160a060020a031633146122015760405160e560020a62461bcd0281526004016116519061634c565b601855565b600054600160a060020a031633146122335760405160e560020a62461bcd0281526004016116519061634c565b60238054600160a060020a031916600160a060020a0392909216919091179055565b600054600160a060020a031633146122825760405160e560020a62461bcd0281526004016116519061634c565b80516122959060159060208401906159ac565b5050565b505050505050565b602c54600160a060020a031633600160a060020a0316146123075760405160e560020a62461bcd02815260206004820152601160248201527f6f6e6c79205a6f72726f206f7261636c650000000000000000000000000000006044820152606401611651565b60006123298361207061231c87612710614406565b600d5461206a908a6143fa565b9050600a5481111561233e5750600a5461234d565b60095481101561234d57506009545b600061235f61271061207085856143fa565b9050600061237c8861207084600b546143fa90919063ffffffff16565b90506123936006548261440690919063ffffffff16565b6007555050505050505050565b600054600160a060020a031633146123cd5760405160e560020a62461bcd0281526004016116519061634c565b600c805460ff1916911515919091179055565b600054600160a060020a0316331461240d5760405160e560020a62461bcd0281526004016116519061634c565b60198054600160a060020a031916600160a060020a0392909216919091179055565b600054600160a060020a0316331461245c5760405160e560020a62461bcd0281526004016116519061634c565b6124666000614421565b565b6000600260015414156124905760405160e560020a62461bcd028152600401611651906162fc565b600260018190555060006124b7336040518060200160405280600081525088888888614471565b50600e549091506124d290600160a060020a03163383614122565b6001805595945050505050565b600260015414156125055760405160e560020a62461bcd028152600401611651906162fc565b6002600155601b5460405160009161253c91612525903390602001616381565b6040516020818303038152906040528686866145be565b6000878152601d60209081526040808320549051939450919261256992600160a060020a03169101616381565b60408051601f1981840301815260c083018252898352602083018190529082018490523360608301526000608083015291506125b29060a081016125ab61463f565b905261468a565b5050600180555050505050565b600260015414156125e55760405160e560020a62461bcd028152600401611651906162fc565b60026001556000848152603160209081526040808320338452909152812080548590811061261557612615616333565b60009182526020808320600360069093020191909101548783526031825260408084203385529092529082208054919350908690811061265757612657616333565b9060005260206000209060060201600401549050600061268b33604051806020016040528060008152508989600089614471565b5090506060600e60009054906101000a9004600160a060020a0316816000815181106126b9576126b9616333565b6020026020010190600160a060020a03169081600160a060020a0316815250506126f78633604051806020016040528060008152508588888b6142dd565b604051338152869088908a907f67e7aba7263d8fbeb0cd9a2f4008f060a6a03f46c1d7f9d0550f0b93e96e96f89060200160405180910390a4505060018055505050505050565b600054600160a060020a0316331461276b5760405160e560020a62461bcd0281526004016116519061634c565b6001601f8260405161277d91906164ae565b908152604051908190036020019020805491151560ff1990921691909117905550565b600054600160a060020a031633146127cd5760405160e560020a62461bcd0281526004016116519061634c565b6000601f8260405161277d91906164ae565b600054600160a060020a0316331461280c5760405160e560020a62461bcd0281526004016116519061634c565b60048054600160a060020a031916600160a060020a0392909216919091179055565b600c5460009060ff16156128f6576040517f677342ce000000000000000000000000000000000000000000000000000000008152600481018390526128f09064e8d4a510009061206a906128e89073__CustomMath____________________________9063677342ce90602401602060405180830381865af41580156128b8573d6000803e3d6000fd5b505050506040513d601f19601f820116820180604052508101906128dc9190616495565b61206a6002600a614406565b6001906141e1565b92915050565b5064e8d4a51000919050565b919050565b6002600154141561292d5760405160e560020a62461bcd028152600401611651906162fc565b6002600155600061293e823361215d565b905060005b8181101561296857612957838260006119bb565b50612961816164e3565b9050612943565b50506001805550565b600054600160a060020a0316331461299e5760405160e560020a62461bcd0281526004016116519061634c565b60138054600160a060020a031916600160a060020a0392909216919091179055565b6016818154811061183957600080fd5b600054600160a060020a031633146129fd5760405160e560020a62461bcd0281526004016116519061634c565b80516122959060169060208401906159ac565b505050565b60026001541415612a3b5760405160e560020a62461bcd028152600401611651906162fc565b600260015534612a905760405160e560020a62461bcd02815260206004820152601160248201527f4e6f2066656573207375626d69747465640000000000000000000000000000006044820152606401611651565b600e54612aa790600160a060020a0316308661382a565b600e54612abf90600160a060020a031633308761395c565b600e5460405160e060020a6370a08231028152306004820152600091600160a060020a0316906370a0823190602401602060405180830381865afa158015612b0b573d6000803e3d6000fd5b505050506040513d601f19601f82011682018060405250810190612b2f9190616495565b90506000612b418783878733886147fa565b6000898152601d602090815260408083205490519394509192612b6e92600160a060020a03169101616381565b60408051601f1981840301815260a0830182528b83526020830186905290820181905260608201849052608082018790529150611ed7906141ed565b600084815260246020908152604080832054601b54915161ffff909116928492612bf3929091612bdc91339101616381565b6040516020818303038152906040528888886145be565b90506000612bff61463f565b6029546040517f40a7bb10000000000000000000000000000000000000000000000000000000008152919250600091600160a060020a03909116906340a7bb1090612c5690879030908890879089906004016164fe565b6040805180830381865afa158015612c72573d6000803e3d6000fd5b505050506040513d601f19601f82011682018060405250810190612c969190616471565b509450505050505b949350505050565b600054600160a060020a03163314612cd35760405160e560020a62461bcd0281526004016116519061634c565b602d55565b6000612ced64e8d4a5100061207085856143fa565b9392505050565b600054600160a060020a03163314612d215760405160e560020a62461bcd0281526004016116519061634c565b600160a060020a038116612d7a5760405160e560020a62461bcd02815260206004820152601060248201527f63616e6e6f7420626520302061646472000000000000000000000000000000006044820152606401611651565b601a8054600160a060020a031916600160a060020a0392909216919091179055565b61ffff861660009081526025602052604080822054905160e060020a6370a08231028152306004820152909190600160a060020a038616906370a0823190602401602060405180830381865afa158015612dfa573d6000803e3d6000fd5b505050506040513d601f19601f82011682018060405250810190612e1e9190616495565b905080841115612e735760405160e560020a62461bcd02815260206004820152601460248201527f616d6f756e744c4420657863656564732062616c0000000000000000000000006044820152606401611651565b601f87604051612e8391906164ae565b9081526040519081900360200190205460ff16612ee55760405160e560020a62461bcd02815260206004820152601760248201527f756e7265636f676e697a656420636f6e74726f6c6c65720000000000000000006044820152606401611651565b6000612ef084616544565b90507f692d8b8b00000000000000000000000000000000000000000000000000000000600160e060020a031982161415612f6557600080600080600088806020019051810190612f4091906165bf565b965096509650965050955050612f5b858b8642878787614412565b505050505061302c565b7f0689acd200000000000000000000000000000000000000000000000000000000600160e060020a031982161415612fcb57600080600080600088806020019051810190612fb3919061664c565b9550955095509550955050612f5b8585858585613cab565b7fa07b9e6d00000000000000000000000000000000000000000000000000000000600160e060020a0319821614156116ce5760008060008680602001905181019061301691906166c3565b93509350935050613028838383614709565b5050505b505050505050505050565b6031602052826000526040600020602052816000526040600020818154811061305f57600080fd5b60009182526020909120600690910201805460018201546002830154600384015460048501546005909501549397509195509350919086565b6015818154811061183957600080fd5b600054600160a060020a031633146130d55760405160e560020a62461bcd0281526004016116519061634c565b602f55565b600054600160a060020a031633146131075760405160e560020a62461bcd0281526004016116519061634c565b6000918252601d60205260409091208054600160a060020a031916600160a060020a03909216919091179055565b600054600160a060020a031633146131625760405160e560020a62461bcd0281526004016116519061634c565b600e8054600160a060020a031916600160a060020a0392909216919091179055565b600054600160a060020a031633146131b15760405160e560020a62461bcd0281526004016116519061634c565b600254600160a060020a03838116911614156132385760405160e560020a62461bcd02815260206004820152603560248201527f217361666520746f20757365205a6f72726f20746f6b656e20696e2066756e6360448201527f20696e43617365546f6b656e73476574537475636b00000000000000000000006064820152608401611651565b612295600160a060020a0383163383614122565b60408051606080820183526000808352602083018190529282015260006132778888888833896147fa565b9050600080602660009054906101000a9004600160a060020a0316600160a060020a0316630a512369602460008f815260200190815260200160002060009054906101000a900461ffff1660018e87896040518663ffffffff1660e060020a0281526004016132ea959493929190616425565b6040805180830381865afa158015613306573d6000803e3d6000fd5b505050506040513d601f19601f8201168201806040525081019061332a9190616471565b909250905061333982826141e1565b9c9b505050505050505050505050565b600054600160a060020a031633146133765760405160e560020a62461bcd0281526004016116519061634c565b60108054600160a060020a031916600160a060020a0392909216919091179055565b600054600160a060020a031633146133c55760405160e560020a62461bcd0281526004016116519061634c565b600160a060020a03166000908152601e60205260409020805460ff19166001179055565b600054600160a060020a031633146134165760405160e560020a62461bcd0281526004016116519061634c565b60128054600160a060020a031916600160a060020a0392909216919091179055565b600054600160a060020a031633146134655760405160e560020a62461bcd0281526004016116519061634c565b600b55565b600054600160a060020a031633146134975760405160e560020a62461bcd0281526004016116519061634c565b60148054600160a060020a031916600160a060020a0392909216919091179055565b600054600160a060020a031633146134e65760405160e560020a62461bcd0281526004016116519061634c565b601b55565b600054600160a060020a031633146135185760405160e560020a62461bcd0281526004016116519061634c565b600f8054600160a060020a031916600160a060020a0392909216919091179055565b600054600160a060020a031633146135675760405160e560020a62461bcd0281526004016116519061634c565b600160a060020a03166000908152601e60205260409020805460ff19169055565b600054600160a060020a031633146135b55760405160e560020a62461bcd0281526004016116519061634c565b600160a060020a0381166136345760405160e560020a62461bcd02815260206004820152602660248201527f4f776e61626c653a206e6577206f776e657220697320746865207a65726f206160448201527f64647265737300000000000000000000000000000000000000000000000000006064820152608401611651565b61363d81614421565b50565b600054600160a060020a0316331461366d5760405160e560020a62461bcd0281526004016116519061634c565b600555565b6000805b6000858152603260205260409081902090516136939088906164ae565b908152604051908190036020019020548110156137405760008581526032602052604080822090516136c69089906164ae565b908152602001604051809103902082815481106136e5576136e5616333565b6000918252602091829020604080518082019091526002909202018054808352600190910154600160a060020a031692820192909252915085141561372f57602001519150613740565b50613739816164e3565b9050613676565b50600061375282878787600088614471565b600e5460405160e060020a6370a0823102815230600482015291935060009250600160a060020a0316906370a0823190602401602060405180830381865afa1580156137a2573d6000803e3d6000fd5b505050506040513d601f19601f820116820180604052508101906137c69190616495565b90506000811161381b5760405160e560020a62461bcd02815260206004820152601360248201527f4e6f7468696e6720746f207769746864726177000000000000000000000000006044820152606401611651565b6117198887878a85878a61487e565b6040517fdd62ed3e000000000000000000000000000000000000000000000000000000008152306004820152600160a060020a038381166024830152600091839186169063dd62ed3e90604401602060405180830381865afa158015613894573d6000803e3d6000fd5b505050506040513d601f19601f820116820180604052508101906138b89190616495565b6138c29190616702565b604051600160a060020a0385166024820152604481018290529091506139569085907f095ea7b300000000000000000000000000000000000000000000000000000000906064015b60408051601f198184030181529190526020810180517bffffffffffffffffffffffffffffffffffffffffffffffffffffffff16600160e060020a0319909316929092179091526148f6565b50505050565b604051600160a060020a03808516602483015283166044820152606481018290526139569085907f23b872dd000000000000000000000000000000000000000000000000000000009060840161390a565b600080603088815481106139c3576139c3616333565b9060005260206000209060060201905060008511613a265760405160e560020a62461bcd02815260206004820152601560248201527f5f77616e74416d74206d757374206265203e20302100000000000000000000006044820152606401611651565b613a2f88611fde565b915086600160a060020a038116613ad6576000875111613aba5760405160e560020a62461bcd02815260206004820152602c60248201527f4e65697468657220666f726569676e2061636374206e6f72206c6f63616c206160448201527f6363742070726f766964656400000000000000000000000000000000000000006064820152608401611651565b613ac38761671a565b6c01000000000000000000000000900490505b600060308a81548110613aeb57613aeb616333565b60009182526020909120600690910201600501546040517fba0bb4ab000000000000000000000000000000000000000000000000000000008152600160a060020a038481166004830152602482018a90529091169063ba0bb4ab906044016020604051808303816000875af1158015613b68573d6000803e3d6000fd5b505050506040513d601f19601f82011682018060405250810190613b8c9190616495565b601954600585015491925064e8d4a5100091600160a060020a03908116911614613bbc57613bb98761282e565b90505b6000613bc88383612cd8565b6004860154909150613bda90826141e1565b60048601819055600090613bf7906120708464e8d4a510006143fa565b905060006040518060c00160405280848152602001858152602001613c3264e8d4a51000612070868c600301546143fa90919063ffffffff16565b81526020018b81526020018a815260200160008152509050613c568e878e846149de565b8d86600160a060020a03167f90890809c654f11d6e72a28fa60149770a0d11ec6c92319d6ceb2bb0a4ea1a158d604051613c9291815260200190565b60405180910390a3505050505050509695505050505050565b8082806020019051810190613cc09190616754565b600160a060020a0316857f6f6e500192a591cd4df1823b5be9f8681a54e919ca055745a13b8715ee3dfb818689604051613d04929190918252602082015260400190565b60405180910390a4801561182257600254600480546040517f9dc29fac000000000000000000000000000000000000000000000000000000008152600160a060020a03918216928101929092526024820184905290911690639dc29fac90604401600060405180830381600087803b158015613d7f57600080fd5b505af115801561302c573d6000803e3d6000fd5b600080600160a060020a038616158015613dae575060008551115b80613dcb5750600160a060020a03861615801590613dcb57508451155b613e1a5760405160e560020a62461bcd02815260206004820152601d60248201527f4f6e6c79206f6e65206163636f756e74207479706520616c6c6f7765640000006044820152606401611651565b6000613e288886888a614ae7565b9050600060308981548110613e3f57613e3f616333565b906000526020600020906006020190506000826000015111613ea65760405160e560020a62461bcd02815260206004820152601960248201527f7472616e6368652e636f6e747269627574696f6e2069732030000000000000006044820152606401611651565b6000816004015411613efd5760405160e560020a62461bcd02815260206004820152601e60248201527f746f74616c5472616e636865436f6e747269627574696f6e73206973203000006044820152606401611651565b6000613f088a611fde565b90506000613f30836004015461207064e8d4a5100087600001516143fa90919063ffffffff16565b90506000613f628560400151613f5c64e8d4a510006120708860030154876143fa90919063ffffffff16565b906143ee565b90508015613f7657613f768c86838e614d25565b6000886141105760308d81548110613f9057613f90616333565b600091825260209091206005600690920201015486516040517fe0ccabfa000000000000000000000000000000000000000000000000000000008152600160a060020a038f81166004830152602482019290925291169063e0ccabfa906044016020604051808303816000875af115801561400f573d6000803e3d6000fd5b505050506040513d601f19601f820116820180604052508101906140339190616495565b5085516004860154614044916143ee565b600486810191909155855460405160e060020a6370a082310281523092810192909252600160a060020a0316906370a0823190602401602060405180830381865afa158015614097573d6000803e3d6000fd5b505050506040513d601f19601f820116820180604052508101906140bb9190616495565b90506140c98d8b8e8e614df0565b604080518b8152602081018390528e91600160a060020a038f16917f02f25270a4d87bea75db541cdfe559334a275b4a233520ed6c0a2429667cca94910160405180910390a35b9c929b50919950505050505050505050565b604051600160a060020a038316602482015260448101829052612a109084907fa9059cbb000000000000000000000000000000000000000000000000000000009060640161390a565b6040805160208101859052808201849052606080820184905282518083038201815260808301909352917fa07b9e6d00000000000000000000000000000000000000000000000000000000916141c7908390839060a001616771565b604051602081830303815290604052925050509392505050565b6000612ced8284616702565b61421160405180606001604052806000815260200160008152602001606081525090565b602654825160009081526024602090815260408083205460275487518552602884529190932054918601516080870151600160a060020a0390951694639fbf10fc94349461ffff90911693929091339190614275906103e8906120709084906143fa565b898b604001518c606001516040518b63ffffffff1660e060020a0281526004016142a7999897969594939291906167a1565b6000604051808303818588803b1580156142c057600080fd5b505af11580156142d4573d6000803e3d6000fd5b50505050505050565b6000603088815481106142f2576142f2616333565b60009182526020822060069190910201600501546040517fe502a88d0000000000000000000000000000000000000000000000000000000081526004810188905260248101859052600160a060020a039091169250829190829063e502a88d906044016020604051808303816000875af1158015614374573d6000803e3d6000fd5b505050506040513d601f19601f820116820180604052508101906143989190616495565b90506143d3838260308d815481106143b2576143b2616333565b6000918252602090912060069091020154600160a060020a0316919061382a565b6143e18a8a8a848a8a6139ad565b5050505050505050505050565b6000612ced828461680f565b6000612ced8284616826565b6000612ced8284616845565b6142d4878284898989896142dd565b60008054600160a060020a03838116600160a060020a0319831681178455604051919092169283917f8be0079c531659141344cd1fd0a4f28419497f9722a3daafe3b4186f6b6457e09190a35050565b6000848152603160209081526040808320600160a060020a038a1684529091528120805482914291879081106144a9576144a9616333565b9060005260206000209060060201600501819055506000603087815481106144d3576144d3616333565b60009182526020822060056006909202010154600160a060020a031691508190806145018a8d8d8c8c613d93565b9150915061451d848360308d815481106143b2576143b2616333565b6040517f648794a40000000000000000000000000000000000000000000000000000000081526004810183905260248101889052600090600160a060020a0385169063648794a4906044016020604051808303816000875af1158015614587573d6000803e3d6000fd5b505050506040513d601f19601f820116820180604052508101906145ab9190616495565b9d919c50909a5050505050505050505050565b6040516060907f61b729dc00000000000000000000000000000000000000000000000000000000906000906145ff908990899089908990899060200161686a565b60405160208183030381529060405290508181604051602001614623929190616771565b6040516020818303038152906040529250505095945050505050565b604080517e0100000000000000000000000000000000000000000000000000000000000060208201526205573060228083019190915282518083039091018152604290910190915290565b8051600090815260246020908152604091829020546029549184015183850151606086015160a087015195517fc580310000000000000000000000000000000000000000000000000000000000815261ffff90941695600160a060020a039095169463c58031009434946142a7948994919390928291906004016168a0565b600061471583836141e1565b600e5460405160e060020a6370a08231028152306004820152919250600091600160a060020a03909116906370a0823190602401602060405180830381865afa158015614766573d6000803e3d6000fd5b505050506040513d601f19601f8201168201806040525081019061478a9190616495565b9050600061479c8361207084886143fa565b90506147a78161510b565b60006147b78461207085886143fa565b90506147c2816155dd565b8082887f4bda9eedb6fd5c584b11e8c64fc79bbe5c7faf6da945a3c7e0de361b6ee5a1bd60405160405180910390a450505050505050565b6040516060907f692d8b8b000000000000000000000000000000000000000000000000000000009060009061483d908a908a908a908a908a908a90602001616907565b60405160208183030381529060405290508181604051602001614861929190616771565b604051602081830303815290604052925050509695505050505050565b600061488d8888888887615738565b6000898152601d6020908152604080832054905193945091926148ba92600160a060020a03169101616381565b60408051601f1981840301815260a0830182528b8352602083018890529082018190526060820184905260808201859052915061302c906141ed565b600061494b826040518060400160405280602081526020017f5361666545524332303a206c6f772d6c6576656c2063616c6c206661696c656481525085600160a060020a03166157799092919063ffffffff16565b805190915015612a1057808060200190518101906149699190616941565b612a105760405160e560020a62461bcd02815260206004820152602a60248201527f5361666545524332303a204552433230206f7065726174696f6e20646964206e60448201527f6f742073756363656564000000000000000000000000000000000000000000006064820152608401611651565b6000848152603160209081526040808320600160a060020a0387168452825280832080546001818101835591855293839020855160069095020193845591840151918301919091558201516002820155606082015160038201556080820151600482015560a082015160059091015581511561395657600084815260326020526040908190209051614a719084906164ae565b90815260200160405180910390206040518060400160405280614a996001613f5c898961215d565b8152600160a060020a03958616602091820152825460018082018555600094855293829020835160029092020190815591015191018054600160a060020a0319169190941617909255505050565b614b206040518060c001604052806000815260200160008152602001600081526020016000815260200160008152602001600081525090565b600160a060020a038216614bbe576000858152603160209081526040808320600160a060020a03861684529091529020805485908110614b6257614b62616333565b90600052602060002090600602016040518060c001604052908160008201548152602001600182015481526020016002820154815260200160038201548152602001600482015481526020016005820154815250509050612c9e565b60005b600086815260326020526040908190209051614bde9086906164ae565b9081526040519081900360200190205461ffff82161015614d1c576000868152603260205260408082209051614c159087906164ae565b90815260200160405180910390208261ffff1681548110614c3857614c38616333565b6000918252602091829020604080518082019091526002909202018054808352600190910154600160a060020a0316928201929092529150861415614d0b57600087815260316020908152604080832084830151600160a060020a031684529091529020805487908110614cae57614cae616333565b90600052602060002090600602016040518060c00160405290816000820154815260200160018201548152602001600282015481526020016003820154815260200160048201548152602001600582015481525050925050614d1c565b50614d158161695e565b9050614bc1565b50949350505050565b60008211614d3257613956565b6000614d6042613f5c614d5562093a8088606001516143fa90919063ffffffff16565b6080880151906141e1565b90506000808215614d9e576060860151614d8b90614d819062093a806143fa565b61207087866143fa565b9050614d9785826143ee565b9150614da2565b8491505b614dac8483615788565b80156142d457600060308881548110614dc757614dc7616333565b6000918252602090912060056006909202010154600160a060020a031690506117198183615788565b6000848152603160209081526040808320600160a060020a03861684529091529020805490614e2060018361680f565b81548110614e3057614e30616333565b60009182526020808320888452603182526040808520600160a060020a0389168652909252922080546006909202909201919086908110614e7357614e73616333565b600091825260208083208454600690930201918255600180850154908301556002808501549083015560038085015490830155600480850154908301556005938401549390910192909255868152603182526040808220600160a060020a038716835290925220805480614ee957614ee9616980565b60008281526020812060066000199093019283020181815560018101829055600281018290556003810182905560048101829055600501559055815115611822576000858152603260205260408082209051614f469085906164ae565b90815260405190819003602001902054905060005b818160ff1610156142d457856032600089815260200190815260200160002085604051614f8891906164ae565b90815260200160405180910390208260ff1681548110614faa57614faa616333565b90600052602060002090600202016000015414156150fb57600087815260326020526040908190209051614fdf9086906164ae565b908152604051908190036020019020614ff960018461680f565b8154811061500957615009616333565b9060005260206000209060020201603260008981526020019081526020016000208560405161503891906164ae565b90815260200160405180910390208260ff168154811061505a5761505a616333565b600091825260208083208454600290930201918255600193840154939091018054600160a060020a031916600160a060020a0390941693909317909255888152603290915260409081902090516150b29086906164ae565b90815260200160405180910390208054806150cf576150cf616980565b6000828152602081206002600019909301928302019081556001018054600160a060020a031916905590555b61510481616999565b9050614f5b565b601454600e5461512891600160a060020a0391821691168361382a565b602a546040517f871431bc000000000000000000000000000000000000000000000000000000008152600160a060020a03909116600482015260009073__PriceFeed_____________________________9063871431bc90602401602060405180830381865af41580156151a0573d6000803e3d6000fd5b505050506040513d601f19601f820116820180604052508101906151c49190616495565b602b546040517f871431bc000000000000000000000000000000000000000000000000000000008152600160a060020a03909116600482015290915060009073__PriceFeed_____________________________9063871431bc90602401602060405180830381865af415801561523f573d6000803e3d6000fd5b505050506040513d601f19601f820116820180604052508101906152639190616495565b60145490915073__SafeSwapUni___________________________90632b08bab190600160a060020a0316615299866002614406565b60185464e8d4a510009087906015306152b4426102586141e1565b6040518963ffffffff1660e060020a0281526004016152da9897969594939291906169b9565b60006040518083038186803b1580156152f257600080fd5b505af4158015615306573d6000803e3d6000fd5b505060145473__SafeSwapUni___________________________9250632b08bab19150600160a060020a031661533d866002614406565b60185464e8d4a51000908690601630615358426102586141e1565b6040518963ffffffff1660e060020a02815260040161537e9897969594939291906169b9565b60006040518083038186803b15801561539657600080fd5b505af41580156153aa573d6000803e3d6000fd5b505060025460405160e060020a6370a0823102815230600482015260009350600160a060020a0390911691506370a0823190602401602060405180830381865afa1580156153fc573d6000803e3d6000fd5b505050506040513d601f19601f820116820180604052508101906154209190616495565b60135460405160e060020a6370a08231028152306004820152919250600091600160a060020a03909116906370a0823190602401602060405180830381865afa158015615471573d6000803e3d6000fd5b505050506040513d601f19601f820116820180604052508101906154959190616495565b6014546002549192506154b591600160a060020a0390811691168461382a565b6014546013546154d291600160a060020a0391821691168361382a565b601454600254601354601854600160a060020a039384169363e8e337009381169216908690869061550c906103e8906120709085906143fa565b6155276103e86120706018548b6143fa90919063ffffffff16565b600354600160a060020a031661553f426102586141e1565b60405163ffffffff8a1660e060020a028152600160a060020a039889166004820152968816602488015260448701959095526064860193909352608485019190915260a484015290921660c482015260e4810191909152610104016060604051808303816000875af11580156155b9573d6000803e3d6000fd5b505050506040513d601f19601f820116820180604052508101906117199190616a50565b601454600e546155fa91600160a060020a0391821691168361382a565b602a546040517f871431bc000000000000000000000000000000000000000000000000000000008152600160a060020a03909116600482015260009073__PriceFeed_____________________________9063871431bc90602401602060405180830381865af4158015615672573d6000803e3d6000fd5b505050506040513d601f19601f820116820180604052508101906156969190616495565b60145460185460195492935073__SafeSwapUni___________________________92632b08bab192600160a060020a0390811692879264e8d4a5100092889291601791166156e6426102586141e1565b6040518963ffffffff1660e060020a02815260040161570c9897969594939291906169b9565b60006040518083038186803b15801561572457600080fd5b505af4158015612299573d6000803e3d6000fd5b6040516060907f0689acd200000000000000000000000000000000000000000000000000000000906000906145ff9089908990899089908990602001616a7e565b6060612c9e8484600085615821565b60025460405160e060020a6370a082310281523060048201528291600091600160a060020a03909116906370a0823190602401602060405180830381865afa1580156157d8573d6000803e3d6000fd5b505050506040513d601f19601f820116820180604052508101906157fc9190616495565b90508083111561580a578091505b60025461395690600160a060020a03168584614122565b6060303183111561589d5760405160e560020a62461bcd02815260206004820152602660248201527f416464726573733a20696e73756666696369656e742062616c616e636520666f60448201527f722063616c6c00000000000000000000000000000000000000000000000000006064820152608401611651565b600160a060020a0385163b6158f75760405160e560020a62461bcd02815260206004820152601d60248201527f416464726573733a2063616c6c20746f206e6f6e2d636f6e74726163740000006044820152606401611651565b60008086600160a060020a0316858760405161591391906164ae565b60006040518083038185875af1925050503d8060008114615950576040519150601f19603f3d011682016040523d82523d6000602084013e615955565b606091505b5091509150615965828286615970565b979650505050505050565b6060831561597f575081612ced565b82511561598f5782518084602001fd5b8160405160e560020a62461bcd0281526004016116519190616ab5565b828054828255906000526020600020908101928215615a01579160200282015b82811115615a015782518254600160a060020a031916600160a060020a039091161782556020909201916001909101906159cc565b50615a0d929150615a11565b5090565b5b80821115615a0d5760008155600101615a12565b803561ffff8116811461290257600080fd5b60008083601f840112615a4a57600080fd5b50813567ffffffffffffffff811115615a6257600080fd5b602083019150836020828501011115615a7a57600080fd5b9250929050565b60008060008060008060808789031215615a9a57600080fd5b615aa387615a26565b9550602087013567ffffffffffffffff80821115615ac057600080fd5b615acc8a838b01615a38565b9097509550604089013591508082168214615ae657600080fd5b90935060608801359080821115615afc57600080fd5b50615b0989828a01615a38565b979a9699509497509295939492505050565b600080600060608486031215615b3057600080fd5b505081359360208301359350604090920135919050565b60e060020a634e487b7102600052604160045260246000fd5b604051601f8201601f1916810167ffffffffffffffff81118282101715615b8957615b89615b47565b604052919050565b600067ffffffffffffffff821115615bab57615bab615b47565b50601f01601f191660200190565b600082601f830112615bca57600080fd5b8135615bdd615bd882615b91565b615b60565b818152846020838601011115615bf257600080fd5b816020850160208301376000918101602001919091529392505050565b600080600080600060a08688031215615c2757600080fd5b853594506020860135935060408601359250606086013567ffffffffffffffff811115615c5357600080fd5b615c5f88828901615bb9565b95989497509295608001359392505050565b600060208284031215615c8357600080fd5b5035919050565b600060208284031215615c9c57600080fd5b612ced82615a26565b600160a060020a038116811461363d57600080fd5b600060208284031215615ccc57600080fd5b8135612ced81615ca5565b600080600060608486031215615cec57600080fd5b83359250602084013567ffffffffffffffff811115615d0a57600080fd5b615d1686828701615bb9565b925050604084013590509250925092565b801515811461363d57600080fd5b600080600060608486031215615d4a57600080fd5b83359250602084013591506040840135615d6381615d27565b809150509250925092565b60008060408385031215615d8157600080fd5b50508035926020909101359150565b60008060008060808587031215615da657600080fd5b5050823594602084013594506040840135936060013592509050565b60008060408385031215615dd557600080fd5b823591506020830135615de781615ca5565b809150509250929050565b600080600080600060a08688031215615e0a57600080fd5b85359450602086013567ffffffffffffffff811115615e2857600080fd5b615e3488828901615bb9565b959895975050505060408401359360608101359360809091013592509050565b600060208284031215615e6657600080fd5b813567ffffffffffffffff811115615e7d57600080fd5b612c9e84828501615bb9565b60006020808385031215615e9c57600080fd5b823567ffffffffffffffff80821115615eb457600080fd5b818501915085601f830112615ec857600080fd5b813581811115615eda57615eda615b47565b8381029150615eea848301615b60565b8181529183018401918481019088841115615f0457600080fd5b938501935b83851015611c5d5784359250615f1e83615ca5565b8282529385019390850190615f09565b60008060008060008060c08789031215615f4757600080fd5b86359550602087013594506040870135935060608701359250608087013567ffffffffffffffff811115615f7a57600080fd5b615f8689828a01615bb9565b92505060a0870135615f9781615ca5565b809150509295509295509295565b600080600080600060a08688031215615fbd57600080fd5b505083359560208501359550604085013594606081013594506080013592509050565b600060208284031215615ff257600080fd5b8135612ced81615d27565b6000806000806080858703121561601357600080fd5b8435935060208501359250604085013561602c81615d27565b9396929550929360600135925050565b60008060008060008060c0878903121561605557600080fd5b863595506020870135945060408701359350606087013592506080870135915060a087013567ffffffffffffffff81111561608f57600080fd5b61609b89828a01615bb9565b9150509295509295509295565b60008060008060008060c087890312156160c157600080fd5b6160ca87615a26565b9550602087013567ffffffffffffffff808211156160e757600080fd5b6160f38a838b01615bb9565b9650604089013595506060890135915061610c82615ca5565b9093506080880135925060a0880135908082111561612957600080fd5b5061609b89828a01615bb9565b60008060006060848603121561614b57600080fd5b83359250602084013561615d81615ca5565b929592945050506040919091013590565b6000806040838503121561618157600080fd5b823561618c81615ca5565b946020939093013593505050565b600080600080600080600060e0888a0312156161b557600080fd5b87359650602088013567ffffffffffffffff808211156161d457600080fd5b6161e08b838c01615bb9565b975060408a0135965060608a0135955060808a0135945060a08a0135935060c08a013591508082111561621257600080fd5b5061621f8a828b01615bb9565b91505092959891949750929550565b8183823760009101908152919050565b600160e060020a0319813581811691600485101561626957808560040360080260020a820283161692505b505092915050565b600160e060020a03198116811461363d57600080fd5b60008060008060008060c087890312156162a057600080fd5b86356162ab81616271565b955060208701359450604087013567ffffffffffffffff8111156162ce57600080fd5b6162da89828a01615bb9565b945050606087013592506080870135915060a087013590509295509295509295565b6020808252601f908201527f5265656e7472616e637947756172643a207265656e7472616e742063616c6c00604082015260600190565b60e060020a634e487b7102600052603260045260246000fd5b6020808252818101527f4f776e61626c653a2063616c6c6572206973206e6f7420746865206f776e6572604082015260600190565b600160a060020a03919091166c0100000000000000000000000002815260140190565b60005b838110156163bf5781810151838201526020016163a7565b838111156139565750506000910152565b600081518084526163e88160208601602086016163a4565b601f01601f19169290920160200192915050565b80518252602081015160208301526000604082015160606040850152612c9e60608501826163d0565b61ffff8616815260ff8516602082015260a06040820152600061644b60a08301866163d0565b828103606084015261645d81866163d0565b90508281036080840152611c5d81856163fc565b6000806040838503121561648457600080fd5b505080516020909101519092909150565b6000602082840312156164a757600080fd5b5051919050565b600082516164c08184602087016163a4565b9190910192915050565b60e060020a634e487b7102600052601160045260246000fd5b60006000198214156164f7576164f76164ca565b5060010190565b61ffff86168152600160a060020a038516602082015260a06040820152600061652a60a08301866163d0565b84151560608401528281036080840152611c5d81856163d0565b600081516020830151600160e060020a0319808216935060048310156121555760049290920360080260020a8202161692915050565b600082601f83011261658b57600080fd5b8151616599615bd882615b91565b8181528460208386010111156165ae57600080fd5b612c9e8260208301602087016163a4565b600080600080600080600060e0888a0312156165da57600080fd5b87516165e581616271565b809750506020880151955060408801519450606088015193506080880151925060a088015167ffffffffffffffff81111561661f57600080fd5b61662b8a828b0161657a565b92505060c088015161663c81615ca5565b8091505092959891949750929550565b60008060008060008060c0878903121561666557600080fd5b865161667081616271565b80965050602087015194506040870151935060608701519250608087015167ffffffffffffffff8111156166a357600080fd5b6166af89828a0161657a565b92505060a087015190509295509295509295565b600080600080608085870312156166d957600080fd5b84516166e481616271565b60208601516040870151606090970151919890975090945092505050565b60008219821115616715576167156164ca565b500190565b805160208201516bffffffffffffffffffffffff1980821692919060148310156121555760149290920360080260020a8202161692915050565b60006020828403121561676657600080fd5b8151612ced81615ca5565b600160e060020a031983168152600082516167938160048501602087016163a4565b919091016004019392505050565b600061012061ffff8c1683528a6020840152896040840152600160a060020a03891660608401528760808401528660a08401528060c08401526167e6818401876163fc565b905082810360e08401526167fa81866163d0565b905082810361010084015261333981856163d0565b600082821015616821576168216164ca565b500390565b6000816000190483118215151615616840576168406164ca565b500290565b6000826168655760e060020a634e487b7102600052601260045260246000fd5b500490565b85815260a06020820152600061688360a08301876163d0565b604083019590955250606081019290925260809091015292915050565b61ffff8716815260c0602082015260006168bd60c08301886163d0565b82810360408401526168cf81886163d0565b600160a060020a0387811660608601528616608085015283810360a085015290506168fa81856163d0565b9998505050505050505050565b868152856020820152846040820152836060820152600160a060020a038316608082015260c060a08201526000611c5d60c08301846163d0565b60006020828403121561695357600080fd5b8151612ced81615d27565b600061ffff80831681811415616976576169766164ca565b6001019392505050565b60e060020a634e487b7102600052603160045260246000fd5b600060ff821660ff8114156169b0576169b06164ca565b60010192915050565b6000610100808301600160a060020a03808d16855260208c818701528b60408701528a60608701528960808701528360a08701528293508854808452610120870194508960005281600020935060005b81811015616a27578454841686529482019460019485019401616a09565b50505050600160a060020a03861660c08501525090508260e08301529998505050505050505050565b600080600060608486031215616a6557600080fd5b8351925060208401519150604084015190509250925092565b85815284602082015283604082015260a060608201526000616aa360a08301856163d0565b90508260808301529695505050505050565b602081526000612ced60208301846163d056fea26469706673582212203213bed36c9eaac1722c0f2152664c445a649833e1e3f3013b503cb1d4fea9da64736f6c634300080a0033",
  "immutableReferences": {},
  "source": "// SPDX-License-Identifier: MIT\n\npragma solidity ^0.8.0;\n\nimport \"../interfaces/ILayerZeroReceiver.sol\";\n\nimport \"../interfaces/IStargateReceiver.sol\";\n\nimport \"./_ZorroControllerXChainDeposit.sol\";\n\nimport \"./_ZorroControllerXChainWithdraw.sol\";\n\nimport \"./_ZorroControllerXChainEarn.sol\";\n\ncontract ZorroControllerXChainReceiver is\n    ZorroControllerXChainDeposit,\n    ZorroControllerXChainWithdraw,\n    ZorroControllerXChainEarn,\n    IStargateReceiver,\n    ILayerZeroReceiver\n{\n    /// @notice Receives stargate cross-chain calls\n    /// @dev Implements IStargateReceiver interface\n    function sgReceive(\n        uint16 _chainId,\n        bytes memory _srcAddress,\n        uint256 _nonce,\n        address _token,\n        uint256 amountLD,\n        bytes memory payload\n    ) public override {\n        // Map to Zorro chain ID\n        uint256 _zorroOriginChainId = zorroStargateChainMap[_chainId];\n        // Checks / authorization\n        // Amounts\n        uint256 _tokenBal = IERC20(_token).balanceOf(address(this));\n        require(amountLD <= _tokenBal, \"amountLD exceeds bal\");\n        // Access\n        // Src address is a valid controller\n        require(\n            registeredXChainControllers[_srcAddress],\n            \"unrecognized controller\"\n        );\n\n        // Determine function based on signature\n        // Get func signature\n        bytes4 _funcSig = bytes4(payload);\n        // Match to appropriate func\n        if (this.receiveXChainDepositRequest.selector == _funcSig) {\n            // Decode params\n            (\n                ,\n                uint256 _pid,\n                ,\n                uint256 _weeksCommitted,\n                uint256 _maxMarketMovement,\n                bytes memory _originAccount,\n                address _destAccount\n            ) = abi.decode(\n                    payload,\n                    (bytes4, uint256, uint256, uint256, uint256, bytes, address)\n                );\n\n            // Call receiving function for cross chain deposits\n            // Replace _valueUSDC to account for any slippage during bridging\n            _receiveXChainDepositRequest(\n                _pid,\n                amountLD,\n                _weeksCommitted,\n                block.timestamp,\n                _maxMarketMovement,\n                _originAccount,\n                _destAccount\n            );\n        } else if (this.receiveXChainRepatriationRequest.selector == _funcSig) {\n            // Decode params from payload\n            (\n                ,\n                uint256 _originChainId,\n                uint256 _pid,\n                uint256 _trancheId,\n                bytes memory _originRecipient,\n                uint256 _burnableZORRewards\n            ) = abi.decode(\n                    payload,\n                    (bytes4, uint256, uint256, uint256, bytes, uint256)\n                );\n            // Forward request to repatriation function\n            _receiveXChainRepatriationRequest(\n                _originChainId,\n                _pid,\n                _trancheId,\n                _originRecipient,\n                _burnableZORRewards\n            );\n        } else if (this.receiveXChainDistributionRequest.selector == _funcSig) {\n            // Decode params from payload\n            (\n                ,\n                uint256 _remoteChainId, \n                uint256 _amountUSDCBuyback, \n                uint256 _amountUSDCRevShare\n            ) = abi.decode(\n                payload,\n                (bytes4, uint256, uint256, uint256)\n            );\n            // Forward request to distribution function\n            _receiveXChainDistributionRequest(\n                _remoteChainId, \n                _amountUSDCBuyback, \n                _amountUSDCRevShare\n            );\n        } else {\n            revert(\"Unrecognized func\");\n        }\n    }\n\n    function lzReceive(\n        uint16 _srcChainId,\n        bytes calldata _srcAddress,\n        uint64 _nonce,\n        bytes calldata _payload\n    ) external override {\n        // Map to Zorro chain ID\n        uint256 _zorroOriginChainId = zorroStargateChainMap[_srcChainId];\n        \n        // Access\n        // Src address is a valid controller\n        // TODO: Might need to validate that the srcAddress is on the expected chain too\n        require(\n            registeredXChainControllers[_srcAddress],\n            \"unrecognized controller\"\n        );\n\n        // Determine function based on signature\n        // Get func signature\n        bytes4 _funcSig = bytes4(_payload);\n        // Match to appropriate func\n        if (this.receiveXChainWithdrawalRequest.selector == _funcSig) {\n            // Decode params\n            (\n                ,\n                uint256 _originChainId,\n                bytes memory _originAccount,\n                uint256 _pid,\n                uint256 _trancheId,\n                uint256 _maxMarketMovement\n            ) = abi.decode(\n                    _payload,\n                    (bytes4, uint256, bytes, uint256, uint256, uint256)\n                );\n\n            // Call receiving function for cross chain withdrawals\n            // Replace _valueUSDC to account for any slippage during bridging\n            _receiveXChainWithdrawalRequest(\n                _originChainId,\n                _originAccount,\n                _pid,\n                _trancheId,\n                _maxMarketMovement\n            );\n        } else {\n            revert(\"Unrecognized func\");\n        }\n    }\n}\n",
  "sourcePath": "/Users/kristophm/Documents/workspace/zorro-protocol/contracts/controllers/_ZorroControllerXChainReceiver.sol",
  "compiler": {
    "name": "solc",
    "version": "0.8.10+commit.fc410830.Emscripten.clang"
  },
  "schemaVersion": "3.4.4",
  "updatedAt": "2022-04-04T12:24:32.755Z",
  "devdoc": {
    "kind": "dev",
    "methods": {
      "checkXChainDepositFee(uint256,bytes,uint256,uint256,uint256,uint256,bytes)": {
        "params": {
          "_chainId": "The Zorro Chain ID (not the LayerZero one)",
          "_destWallet": "A valid address on the remote chain that can claim ownership",
          "_dstContract": "The destination contract address on the remote chain",
          "_maxMarketMovement": "Acceptable degree of slippage on any transaction (e.g. 950 = 5%, 990 = 1% etc.)",
          "_pid": "The pool ID on the remote chain",
          "_valueUSDC": "The amount of USDC to deposit",
          "_weeksCommitted": "Number of weeks to commit to a vault"
        },
        "returns": {
          "_0": "uint256 Expected fee to pay for bridging/cross chain execution"
        }
      },
      "checkXChainDistributeEarningsFee(uint256,uint256)": {
        "params": {
          "_amountUSDCBuyback": "Amount of USDC to buy back",
          "_amountUSDCRevShare": "Amount of USDC to rev share with ZOR single staking vault"
        },
        "returns": {
          "_0": "uint256 Quantity of native token as fees"
        }
      },
      "checkXChainWithdrawalFee(uint256,uint256,uint256,uint256)": {
        "params": {
          "_maxMarketMovement": "Acceptable degree of slippage on any transaction (e.g. 950 = 5%, 990 = 1% etc.)",
          "_pid": "The pool ID on the remote chain",
          "_trancheId": "The tranche ID on the remote chain",
          "_zorroChainId": "The Zorro Chain ID (not the LayerZero one)"
        },
        "returns": {
          "_0": "uint256 Expected fee to pay for bridging/cross chain execution"
        }
      },
      "deposit(uint256,uint256,uint256)": {
        "params": {
          "_pid": "index of pool",
          "_wantAmt": "how much Want token to deposit",
          "_weeksCommitted": "how many weeks the user is committing to on this vault"
        }
      },
      "depositFullService(uint256,uint256,uint256,uint256)": {
        "params": {
          "_maxMarketMovement": "factor to account for max market movement/slippage. The definition varies by Vault, so consult the associated Vault contract for info",
          "_pid": "index of pool to deposit into",
          "_valueUSDC": "value in USDC (in ether units) to deposit",
          "_weeksCommitted": "how many weeks to commit to the Pool (can be 0 or any uint)"
        }
      },
      "getTimeMultiplier(uint256)": {
        "params": {
          "durationInWeeks": "number of weeks committed into Vault"
        },
        "returns": {
          "_0": "multiplier factor, times 1e12"
        }
      },
      "getUserContribution(uint256,uint256)": {
        "params": {
          "_liquidityCommitted": "How many tokens staked (e.g. LP tokens)",
          "_timeMultiplier": "Time multiplier value (from getTimeMultiplier())"
        },
        "returns": {
          "_0": "The relative contribution of the user (unitless)"
        }
      },
      "inCaseTokensGetStuck(address,uint256)": {
        "details": "Does not permit usage for the Zorro token",
        "params": {
          "_amount": "token quantity",
          "_token": "ERC20 token address"
        }
      },
      "owner()": {
        "details": "Returns the address of the current owner."
      },
      "poolLength()": {
        "returns": {
          "_0": "Number of pools"
        }
      },
      "receiveXChainDepositRequest(uint256,uint256,uint256,uint256,bytes,address)": {
        "details": "Should never ever be actually called."
      },
      "receiveXChainDistributionRequest(uint256,uint256,uint256)": {
        "details": "Should never ever be actually called."
      },
      "receiveXChainRepatriationRequest(uint256,uint256,uint256,bytes,uint256)": {
        "details": "Should never ever be actually called."
      },
      "receiveXChainWithdrawalRequest(uint256,bytes,uint256,uint256,uint256)": {
        "details": "Should never ever be actually called."
      },
      "renounceOwnership()": {
        "details": "Leaves the contract without owner. It will not be possible to call `onlyOwner` functions anymore. Can only be called by the current owner. NOTE: Renouncing ownership will leave the contract without an owner, thereby removing any functionality that is only available to the owner."
      },
      "sendXChainDepositRequest(uint256,uint256,uint256,uint256,uint256,bytes)": {
        "details": "Requires appropriate fee to be paid via msg.value (use checkXChainDepositFee() above)",
        "params": {
          "_destWallet": "A valid address on the remote chain that can claim ownership",
          "_maxMarketMovement": "Acceptable degree of slippage on any transaction (e.g. 950 = 5%, 990 = 1% etc.)",
          "_pid": "The pool ID on the remote chain",
          "_valueUSDC": "The amount of USDC to deposit",
          "_weeksCommitted": "Number of weeks to commit to a vault",
          "_zorroChainId": "The Zorro Chain ID (not the LayerZero one)"
        }
      },
      "sendXChainDistributeEarningsRequest(uint256,uint256,uint256,uint256)": {
        "params": {
          "_buybackAmountUSDC": "Amount in USDC to buy back",
          "_maxMarketMovement": "Acceptable slippage (950 = 5%, 990 = 1% etc.)",
          "_pid": "Pool ID",
          "_revShareAmountUSDC": "Amount in USDC to revshare w/ ZOR single staking vault"
        }
      },
      "sendXChainWithdrawalRequest(uint256,bytes,uint256,uint256,uint256)": {
        "details": "Requires value to be submitted to pay for cross chain transaction. Use checkXChainWithdrawalFee() to estimate fees",
        "params": {
          "_destZorroChainId": "The Zorro chain ID of the remote chain to withdraw from",
          "_maxMarketMovement": "Acceptable degree of slippage on any transaction (e.g. 950 = 5%, 990 = 1% etc.)",
          "_pid": "The pool ID on the remote chain",
          "_trancheId": "The ID of the tranche for the given user and pool"
        }
      },
      "setZorroPerBlock(uint256,uint256,uint256,uint256,uint256)": {
        "details": "Values to be provided by Oracle. Perferable to run daily",
        "params": {
          "_ZorroTotalVaultTVLUSD": "USD value of all TVL locked into the Zorro protocol, across all chains",
          "_publicPoolZORBalance": "Number of ZOR tokens remaining in public pool on home chain",
          "_targetTVLCaptureBasisPoints": "% desired capture of total market TVL, measured in basis points",
          "_totalChainMultipliers": "Sum total of all chain multipliers for each chain",
          "_totalMarketTVLUSD": "Total DeFi market TVL across all chains (measured in USD)"
        }
      },
      "sgReceive(uint16,bytes,uint256,address,uint256,bytes)": {
        "details": "Implements IStargateReceiver interface"
      },
      "trancheLength(uint256,address)": {
        "params": {
          "_pid": "Index of pool",
          "_user": "wallet address of user"
        },
        "returns": {
          "_0": "Number of tranches"
        }
      },
      "transferInvestment(uint256,uint256,uint256,uint256)": {
        "params": {
          "_fromPid": "index of pool FROM",
          "_fromTrancheId": "index of tranche FROM",
          "_maxMarketMovement": "factor to account for max market movement/slippage. The definition varies by Vault, so consult the associated Vault contract for info",
          "_toPid": "index of pool TO"
        }
      },
      "transferOwnership(address)": {
        "details": "Transfers ownership of the contract to a new account (`newOwner`). Can only be called by the current owner."
      },
      "updatePool(uint256)": {
        "params": {
          "_pid": "index of pool"
        },
        "returns": {
          "_0": "uint256 Amount of ZOR rewards minted (useful for cross chain)"
        }
      },
      "withdraw(uint256,uint256,bool)": {
        "params": {
          "_harvestOnly": "If true, will only harvest Zorro tokens but not do a withdrawal",
          "_pid": "index of pool",
          "_trancheId": "index of tranche"
        },
        "returns": {
          "_0": "Amount of Want token withdrawn"
        }
      },
      "withdrawAll(uint256)": {
        "params": {
          "_pid": "index of pool"
        }
      },
      "withdrawalFullService(uint256,uint256,bool,uint256)": {
        "params": {
          "_harvestOnly": "If true, will only harvest Zorro tokens but not do a withdrawal",
          "_maxMarketMovement": "factor to account for max market movement/slippage. The definition varies by Vault, so consult the associated Vault contract for info",
          "_pid": "index of pool to deposit into",
          "_trancheId": "index of tranche"
        },
        "returns": {
          "_0": "Amount (in USDC) returned"
        }
      }
    },
    "version": 1
  },
  "userdoc": {
    "kind": "user",
    "methods": {
      "checkXChainDepositFee(uint256,bytes,uint256,uint256,uint256,uint256,bytes)": {
        "notice": "Checks to see how much a cross chain deposit will cost"
      },
      "checkXChainDistributeEarningsFee(uint256,uint256)": {
        "notice": "Checks to see how much a cross chain earnings distribution will cost"
      },
      "checkXChainWithdrawalFee(uint256,uint256,uint256,uint256)": {
        "notice": "Checks to see how much a cross chain withdrawal will cost"
      },
      "deposit(uint256,uint256,uint256)": {
        "notice": "Deposit Want tokens to associated Vault"
      },
      "depositFullService(uint256,uint256,uint256,uint256)": {
        "notice": "Deposits funds in a full service manner (performs autoswaps and obtains Want tokens)"
      },
      "getTimeMultiplier(uint256)": {
        "notice": "Calculate time multiplier based on duration committed"
      },
      "getUserContribution(uint256,uint256)": {
        "notice": "The contribution of the user, meant to be used in rewards allocations"
      },
      "inCaseTokensGetStuck(address,uint256)": {
        "notice": "For owner to recover ERC20 tokens on this contract if stuck"
      },
      "poolLength()": {
        "notice": "Number of pools in the Zorro protocol"
      },
      "receiveXChainDepositRequest(uint256,uint256,uint256,uint256,bytes,address)": {
        "notice": "Dummy func to allow .selector call above and guarantee typesafety for abi calls."
      },
      "receiveXChainDistributionRequest(uint256,uint256,uint256)": {
        "notice": "Dummy func to allow .selector call above and guarantee typesafety for abi calls."
      },
      "receiveXChainRepatriationRequest(uint256,uint256,uint256,bytes,uint256)": {
        "notice": "Dummy func to allow .selector call above and guarantee typesafety for abi calls."
      },
      "receiveXChainWithdrawalRequest(uint256,bytes,uint256,uint256,uint256)": {
        "notice": "Dummy func to allow .selector call above and guarantee typesafety for abi calls."
      },
      "sendXChainDepositRequest(uint256,uint256,uint256,uint256,uint256,bytes)": {
        "notice": "Prepares and sends a cross chain deposit request. Takes care of necessary financial ops (transfer/locking USDC)"
      },
      "sendXChainDistributeEarningsRequest(uint256,uint256,uint256,uint256)": {
        "notice": "Sends a request back to the home chain to distribute earnings"
      },
      "sendXChainWithdrawalRequest(uint256,bytes,uint256,uint256,uint256)": {
        "notice": "Prepares and sends a cross chain withdrwal request."
      },
      "setZorroPerBlock(uint256,uint256,uint256,uint256,uint256)": {
        "notice": "Set the number of Zorro to emit per block based on current market parameters"
      },
      "sgReceive(uint16,bytes,uint256,address,uint256,bytes)": {
        "notice": "Receives stargate cross-chain calls"
      },
      "trancheLength(uint256,address)": {
        "notice": "Number of tranches invested by a given user into a given pool"
      },
      "transferInvestment(uint256,uint256,uint256,uint256)": {
        "notice": "Transfer all assets from a tranche in one vault to a new vault (works on-chain only)"
      },
      "updatePool(uint256)": {
        "notice": "Update reward variables of the given pool to be up-to-date."
      },
      "withdraw(uint256,uint256,bool)": {
        "notice": "Fully withdraw Want tokens from underlying Vault."
      },
      "withdrawAll(uint256)": {
        "notice": "Withdraw the maximum number of Want tokens from a pool"
      },
      "withdrawalFullService(uint256,uint256,bool,uint256)": {
        "notice": "Withdraws funds from a pool and converts the Want token into USDC"
      }
    },
    "version": 1
  }
}