{
  "contractName": "ZorroControllerXChainDeposit",
  "abi": [
    {
      "anonymous": false,
      "inputs": [
        {
          "indexed": true,
          "internalType": "address",
          "name": "account",
          "type": "address"
        },
        {
          "indexed": true,
          "internalType": "bytes",
          "name": "foreignAccount",
          "type": "bytes"
        },
        {
          "indexed": true,
          "internalType": "uint256",
          "name": "pid",
          "type": "uint256"
        },
        {
          "indexed": false,
          "internalType": "uint256",
          "name": "wantAmount",
          "type": "uint256"
        }
      ],
      "name": "Deposit",
      "type": "event"
    },
    {
      "anonymous": false,
      "inputs": [
        {
          "indexed": true,
          "internalType": "address",
          "name": "previousOwner",
          "type": "address"
        },
        {
          "indexed": true,
          "internalType": "address",
          "name": "newOwner",
          "type": "address"
        }
      ],
      "name": "OwnershipTransferred",
      "type": "event"
    },
    {
      "anonymous": false,
      "inputs": [
        {
          "indexed": false,
          "internalType": "address",
          "name": "account",
          "type": "address"
        },
        {
          "indexed": true,
          "internalType": "uint256",
          "name": "fromPid",
          "type": "uint256"
        },
        {
          "indexed": true,
          "internalType": "uint256",
          "name": "fromTrancheId",
          "type": "uint256"
        },
        {
          "indexed": true,
          "internalType": "uint256",
          "name": "toPid",
          "type": "uint256"
        }
      ],
      "name": "TransferInvestment",
      "type": "event"
    },
    {
      "anonymous": false,
      "inputs": [
        {
          "indexed": true,
          "internalType": "address",
          "name": "account",
          "type": "address"
        },
        {
          "indexed": true,
          "internalType": "bytes",
          "name": "foreignAccount",
          "type": "bytes"
        },
        {
          "indexed": true,
          "internalType": "uint256",
          "name": "pid",
          "type": "uint256"
        },
        {
          "indexed": false,
          "internalType": "uint256",
          "name": "trancheId",
          "type": "uint256"
        },
        {
          "indexed": false,
          "internalType": "uint256",
          "name": "wantAmount",
          "type": "uint256"
        }
      ],
      "name": "Withdraw",
      "type": "event"
    },
    {
      "inputs": [
        {
          "internalType": "uint16",
          "name": "",
          "type": "uint16"
        }
      ],
      "name": "LZChainToZorroMap",
      "outputs": [
        {
          "internalType": "uint256",
          "name": "",
          "type": "uint256"
        }
      ],
      "stateMutability": "view",
      "type": "function"
    },
    {
      "inputs": [
        {
          "internalType": "uint256",
          "name": "",
          "type": "uint256"
        }
      ],
      "name": "USDCToZorroLPPoolToken0Path",
      "outputs": [
        {
          "internalType": "address",
          "name": "",
          "type": "address"
        }
      ],
      "stateMutability": "view",
      "type": "function"
    },
    {
      "inputs": [
        {
          "internalType": "uint256",
          "name": "",
          "type": "uint256"
        }
      ],
      "name": "USDCToZorroLPPoolToken1Path",
      "outputs": [
        {
          "internalType": "address",
          "name": "",
          "type": "address"
        }
      ],
      "stateMutability": "view",
      "type": "function"
    },
    {
      "inputs": [
        {
          "internalType": "uint256",
          "name": "",
          "type": "uint256"
        }
      ],
      "name": "USDCToZorroPath",
      "outputs": [
        {
          "internalType": "address",
          "name": "",
          "type": "address"
        }
      ],
      "stateMutability": "view",
      "type": "function"
    },
    {
      "inputs": [],
      "name": "ZORRO",
      "outputs": [
        {
          "internalType": "address",
          "name": "",
          "type": "address"
        }
      ],
      "stateMutability": "view",
      "type": "function"
    },
    {
      "inputs": [],
      "name": "ZORRODailyDistributionFactorBasisPointsMax",
      "outputs": [
        {
          "internalType": "uint256",
          "name": "",
          "type": "uint256"
        }
      ],
      "stateMutability": "view",
      "type": "function"
    },
    {
      "inputs": [],
      "name": "ZORRODailyDistributionFactorBasisPointsMin",
      "outputs": [
        {
          "internalType": "uint256",
          "name": "",
          "type": "uint256"
        }
      ],
      "stateMutability": "view",
      "type": "function"
    },
    {
      "inputs": [],
      "name": "ZORROPerBlock",
      "outputs": [
        {
          "internalType": "uint256",
          "name": "",
          "type": "uint256"
        }
      ],
      "stateMutability": "view",
      "type": "function"
    },
    {
      "inputs": [
        {
          "internalType": "uint256",
          "name": "",
          "type": "uint256"
        }
      ],
      "name": "ZorroChainToLZMap",
      "outputs": [
        {
          "internalType": "uint16",
          "name": "",
          "type": "uint16"
        }
      ],
      "stateMutability": "view",
      "type": "function"
    },
    {
      "inputs": [],
      "name": "baseRewardRateBasisPoints",
      "outputs": [
        {
          "internalType": "uint256",
          "name": "",
          "type": "uint256"
        }
      ],
      "stateMutability": "view",
      "type": "function"
    },
    {
      "inputs": [],
      "name": "blocksPerDay",
      "outputs": [
        {
          "internalType": "uint256",
          "name": "",
          "type": "uint256"
        }
      ],
      "stateMutability": "view",
      "type": "function"
    },
    {
      "inputs": [],
      "name": "burnAddress",
      "outputs": [
        {
          "internalType": "address",
          "name": "",
          "type": "address"
        }
      ],
      "stateMutability": "view",
      "type": "function"
    },
    {
      "inputs": [],
      "name": "chainId",
      "outputs": [
        {
          "internalType": "uint256",
          "name": "",
          "type": "uint256"
        }
      ],
      "stateMutability": "view",
      "type": "function"
    },
    {
      "inputs": [],
      "name": "chainMultiplier",
      "outputs": [
        {
          "internalType": "uint256",
          "name": "",
          "type": "uint256"
        }
      ],
      "stateMutability": "view",
      "type": "function"
    },
    {
      "inputs": [
        {
          "internalType": "uint256",
          "name": "",
          "type": "uint256"
        }
      ],
      "name": "controllerContractsMap",
      "outputs": [
        {
          "internalType": "bytes",
          "name": "",
          "type": "bytes"
        }
      ],
      "stateMutability": "view",
      "type": "function"
    },
    {
      "inputs": [],
      "name": "curveDefaultStablecoinIndex",
      "outputs": [
        {
          "internalType": "int128",
          "name": "",
          "type": "int128"
        }
      ],
      "stateMutability": "view",
      "type": "function"
    },
    {
      "inputs": [],
      "name": "curveStablePoolAddress",
      "outputs": [
        {
          "internalType": "address",
          "name": "",
          "type": "address"
        }
      ],
      "stateMutability": "view",
      "type": "function"
    },
    {
      "inputs": [],
      "name": "curveSyntheticStablecoinIndex",
      "outputs": [
        {
          "internalType": "int128",
          "name": "",
          "type": "int128"
        }
      ],
      "stateMutability": "view",
      "type": "function"
    },
    {
      "inputs": [],
      "name": "defaultMaxMarketMovement",
      "outputs": [
        {
          "internalType": "uint256",
          "name": "",
          "type": "uint256"
        }
      ],
      "stateMutability": "view",
      "type": "function"
    },
    {
      "inputs": [],
      "name": "defaultStablecoin",
      "outputs": [
        {
          "internalType": "address",
          "name": "",
          "type": "address"
        }
      ],
      "stateMutability": "view",
      "type": "function"
    },
    {
      "inputs": [
        {
          "internalType": "uint256",
          "name": "_pid",
          "type": "uint256"
        },
        {
          "internalType": "uint256",
          "name": "_wantAmt",
          "type": "uint256"
        },
        {
          "internalType": "uint256",
          "name": "_weeksCommitted",
          "type": "uint256"
        }
      ],
      "name": "deposit",
      "outputs": [],
      "stateMutability": "nonpayable",
      "type": "function"
    },
    {
      "inputs": [
        {
          "internalType": "uint256",
          "name": "_pid",
          "type": "uint256"
        },
        {
          "internalType": "uint256",
          "name": "_valueUSDC",
          "type": "uint256"
        },
        {
          "internalType": "uint256",
          "name": "_weeksCommitted",
          "type": "uint256"
        },
        {
          "internalType": "uint256",
          "name": "_maxMarketMovement",
          "type": "uint256"
        }
      ],
      "name": "depositFullService",
      "outputs": [],
      "stateMutability": "nonpayable",
      "type": "function"
    },
    {
      "inputs": [],
      "name": "failedLockedBuybackUSDC",
      "outputs": [
        {
          "internalType": "uint256",
          "name": "",
          "type": "uint256"
        }
      ],
      "stateMutability": "view",
      "type": "function"
    },
    {
      "inputs": [],
      "name": "failedLockedRevShareUSDC",
      "outputs": [
        {
          "internalType": "uint256",
          "name": "",
          "type": "uint256"
        }
      ],
      "stateMutability": "view",
      "type": "function"
    },
    {
      "inputs": [
        {
          "internalType": "uint256",
          "name": "",
          "type": "uint256"
        },
        {
          "internalType": "bytes",
          "name": "",
          "type": "bytes"
        },
        {
          "internalType": "uint256",
          "name": "",
          "type": "uint256"
        }
      ],
      "name": "foreignTrancheInfo",
      "outputs": [
        {
          "internalType": "address",
          "name": "",
          "type": "address"
        }
      ],
      "stateMutability": "view",
      "type": "function"
    },
    {
      "inputs": [
        {
          "internalType": "uint256",
          "name": "durationInWeeks",
          "type": "uint256"
        }
      ],
      "name": "getTimeMultiplier",
      "outputs": [
        {
          "internalType": "uint256",
          "name": "",
          "type": "uint256"
        }
      ],
      "stateMutability": "view",
      "type": "function"
    },
    {
      "inputs": [
        {
          "internalType": "uint256",
          "name": "_liquidityCommitted",
          "type": "uint256"
        },
        {
          "internalType": "uint256",
          "name": "_timeMultiplier",
          "type": "uint256"
        }
      ],
      "name": "getUserContribution",
      "outputs": [
        {
          "internalType": "uint256",
          "name": "",
          "type": "uint256"
        }
      ],
      "stateMutability": "pure",
      "type": "function"
    },
    {
      "inputs": [],
      "name": "homeChainId",
      "outputs": [
        {
          "internalType": "uint256",
          "name": "",
          "type": "uint256"
        }
      ],
      "stateMutability": "view",
      "type": "function"
    },
    {
      "inputs": [],
      "name": "homeChainZorroController",
      "outputs": [
        {
          "internalType": "address",
          "name": "",
          "type": "address"
        }
      ],
      "stateMutability": "view",
      "type": "function"
    },
    {
      "inputs": [
        {
          "internalType": "address",
          "name": "_token",
          "type": "address"
        },
        {
          "internalType": "uint256",
          "name": "_amount",
          "type": "uint256"
        }
      ],
      "name": "inCaseTokensGetStuck",
      "outputs": [],
      "stateMutability": "nonpayable",
      "type": "function"
    },
    {
      "inputs": [],
      "name": "isTimeMultiplierActive",
      "outputs": [
        {
          "internalType": "bool",
          "name": "",
          "type": "bool"
        }
      ],
      "stateMutability": "view",
      "type": "function"
    },
    {
      "inputs": [],
      "name": "layerZeroEndpoint",
      "outputs": [
        {
          "internalType": "address",
          "name": "",
          "type": "address"
        }
      ],
      "stateMutability": "view",
      "type": "function"
    },
    {
      "inputs": [],
      "name": "lockUSDCController",
      "outputs": [
        {
          "internalType": "address",
          "name": "",
          "type": "address"
        }
      ],
      "stateMutability": "view",
      "type": "function"
    },
    {
      "inputs": [],
      "name": "owner",
      "outputs": [
        {
          "internalType": "address",
          "name": "",
          "type": "address"
        }
      ],
      "stateMutability": "view",
      "type": "function"
    },
    {
      "inputs": [
        {
          "internalType": "uint256",
          "name": "",
          "type": "uint256"
        }
      ],
      "name": "poolInfo",
      "outputs": [
        {
          "internalType": "contract IERC20",
          "name": "want",
          "type": "address"
        },
        {
          "internalType": "uint256",
          "name": "allocPoint",
          "type": "uint256"
        },
        {
          "internalType": "uint256",
          "name": "lastRewardBlock",
          "type": "uint256"
        },
        {
          "internalType": "uint256",
          "name": "accZORRORewards",
          "type": "uint256"
        },
        {
          "internalType": "uint256",
          "name": "totalTrancheContributions",
          "type": "uint256"
        },
        {
          "internalType": "address",
          "name": "vault",
          "type": "address"
        }
      ],
      "stateMutability": "view",
      "type": "function"
    },
    {
      "inputs": [],
      "name": "poolLength",
      "outputs": [
        {
          "internalType": "uint256",
          "name": "",
          "type": "uint256"
        }
      ],
      "stateMutability": "view",
      "type": "function"
    },
    {
      "inputs": [],
      "name": "priceFeedLPPoolOtherToken",
      "outputs": [
        {
          "internalType": "contract AggregatorV3Interface",
          "name": "",
          "type": "address"
        }
      ],
      "stateMutability": "view",
      "type": "function"
    },
    {
      "inputs": [],
      "name": "priceFeedZOR",
      "outputs": [
        {
          "internalType": "contract AggregatorV3Interface",
          "name": "",
          "type": "address"
        }
      ],
      "stateMutability": "view",
      "type": "function"
    },
    {
      "inputs": [],
      "name": "publicPool",
      "outputs": [
        {
          "internalType": "address",
          "name": "",
          "type": "address"
        }
      ],
      "stateMutability": "view",
      "type": "function"
    },
    {
      "inputs": [
        {
          "internalType": "uint256",
          "name": "",
          "type": "uint256"
        },
        {
          "internalType": "address",
          "name": "",
          "type": "address"
        }
      ],
      "name": "redepositInfo",
      "outputs": [
        {
          "internalType": "uint256",
          "name": "durationCommittedInWeeks",
          "type": "uint256"
        },
        {
          "internalType": "uint256",
          "name": "enteredVaultAt",
          "type": "uint256"
        }
      ],
      "stateMutability": "view",
      "type": "function"
    },
    {
      "inputs": [
        {
          "internalType": "bytes",
          "name": "_contract",
          "type": "bytes"
        }
      ],
      "name": "registerXChainController",
      "outputs": [],
      "stateMutability": "nonpayable",
      "type": "function"
    },
    {
      "inputs": [
        {
          "internalType": "bytes",
          "name": "",
          "type": "bytes"
        }
      ],
      "name": "registeredXChainControllers",
      "outputs": [
        {
          "internalType": "bool",
          "name": "",
          "type": "bool"
        }
      ],
      "stateMutability": "view",
      "type": "function"
    },
    {
      "inputs": [],
      "name": "renounceOwnership",
      "outputs": [],
      "stateMutability": "nonpayable",
      "type": "function"
    },
    {
      "inputs": [
        {
          "internalType": "uint256",
          "name": "_baseRewardRateBasisPoints",
          "type": "uint256"
        }
      ],
      "name": "setBaseRewardRateBasisPoints",
      "outputs": [],
      "stateMutability": "nonpayable",
      "type": "function"
    },
    {
      "inputs": [
        {
          "internalType": "uint256",
          "name": "_blocksPerDay",
          "type": "uint256"
        }
      ],
      "name": "setBlocksPerDay",
      "outputs": [],
      "stateMutability": "nonpayable",
      "type": "function"
    },
    {
      "inputs": [
        {
          "internalType": "uint256",
          "name": "_chainId",
          "type": "uint256"
        }
      ],
      "name": "setChainId",
      "outputs": [],
      "stateMutability": "nonpayable",
      "type": "function"
    },
    {
      "inputs": [
        {
          "internalType": "uint256",
          "name": "_chainMultiplier",
          "type": "uint256"
        }
      ],
      "name": "setChainMultiplier",
      "outputs": [],
      "stateMutability": "nonpayable",
      "type": "function"
    },
    {
      "inputs": [
        {
          "internalType": "address",
          "name": "_curveStablePoolAddress",
          "type": "address"
        }
      ],
      "name": "setCurveStablePoolAddress",
      "outputs": [],
      "stateMutability": "nonpayable",
      "type": "function"
    },
    {
      "inputs": [
        {
          "internalType": "uint256",
          "name": "_defaultMaxMarketMovement",
          "type": "uint256"
        }
      ],
      "name": "setDefaultMaxMarketMovement",
      "outputs": [],
      "stateMutability": "nonpayable",
      "type": "function"
    },
    {
      "inputs": [
        {
          "internalType": "address",
          "name": "_defaultStablecoin",
          "type": "address"
        }
      ],
      "name": "setDefaultStablecoin",
      "outputs": [],
      "stateMutability": "nonpayable",
      "type": "function"
    },
    {
      "inputs": [
        {
          "internalType": "uint256",
          "name": "_chainId",
          "type": "uint256"
        },
        {
          "internalType": "bytes",
          "name": "_endpointContract",
          "type": "bytes"
        }
      ],
      "name": "setEndpointContracts",
      "outputs": [],
      "stateMutability": "nonpayable",
      "type": "function"
    },
    {
      "inputs": [
        {
          "internalType": "address",
          "name": "_homeChainZorroController",
          "type": "address"
        }
      ],
      "name": "setHomeChainZorroController",
      "outputs": [],
      "stateMutability": "nonpayable",
      "type": "function"
    },
    {
      "inputs": [
        {
          "internalType": "bool",
          "name": "_isActive",
          "type": "bool"
        }
      ],
      "name": "setIsTimeMultiplierActive",
      "outputs": [],
      "stateMutability": "nonpayable",
      "type": "function"
    },
    {
      "inputs": [
        {
          "internalType": "address",
          "name": "_lockUSDCController",
          "type": "address"
        }
      ],
      "name": "setLockUSDCController",
      "outputs": [],
      "stateMutability": "nonpayable",
      "type": "function"
    },
    {
      "inputs": [
        {
          "internalType": "address",
          "name": "_priceFeedLPPoolOtherToken",
          "type": "address"
        }
      ],
      "name": "setPriceFeedLPPoolOtherToken",
      "outputs": [],
      "stateMutability": "nonpayable",
      "type": "function"
    },
    {
      "inputs": [
        {
          "internalType": "address",
          "name": "_priceFeedZOR",
          "type": "address"
        }
      ],
      "name": "setPriceFeedZOR",
      "outputs": [],
      "stateMutability": "nonpayable",
      "type": "function"
    },
    {
      "inputs": [
        {
          "internalType": "address",
          "name": "_publicPoolAddress",
          "type": "address"
        }
      ],
      "name": "setPublicPool",
      "outputs": [],
      "stateMutability": "nonpayable",
      "type": "function"
    },
    {
      "inputs": [
        {
          "internalType": "uint256",
          "name": "_blockNumber",
          "type": "uint256"
        }
      ],
      "name": "setStartBlock",
      "outputs": [],
      "stateMutability": "nonpayable",
      "type": "function"
    },
    {
      "inputs": [
        {
          "internalType": "address",
          "name": "_syntheticStablecoin",
          "type": "address"
        }
      ],
      "name": "setSyntheticStablecoin",
      "outputs": [],
      "stateMutability": "nonpayable",
      "type": "function"
    },
    {
      "inputs": [
        {
          "internalType": "uint256",
          "name": "_targetTVLCaptureBasisPoints",
          "type": "uint256"
        }
      ],
      "name": "setTargetTVLCaptureBasisPoints",
      "outputs": [],
      "stateMutability": "nonpayable",
      "type": "function"
    },
    {
      "inputs": [
        {
          "internalType": "address[]",
          "name": "_path",
          "type": "address[]"
        }
      ],
      "name": "setUSDCToZorroLPPoolToken0Path",
      "outputs": [],
      "stateMutability": "nonpayable",
      "type": "function"
    },
    {
      "inputs": [
        {
          "internalType": "address[]",
          "name": "_path",
          "type": "address[]"
        }
      ],
      "name": "setUSDCToZorroLPPoolToken1Path",
      "outputs": [],
      "stateMutability": "nonpayable",
      "type": "function"
    },
    {
      "inputs": [
        {
          "internalType": "address",
          "name": "_uniV2Router",
          "type": "address"
        }
      ],
      "name": "setUniRouter",
      "outputs": [],
      "stateMutability": "nonpayable",
      "type": "function"
    },
    {
      "inputs": [
        {
          "internalType": "address",
          "name": "_xChainReceivingOracle",
          "type": "address"
        }
      ],
      "name": "setXChainReceivingOracle",
      "outputs": [],
      "stateMutability": "nonpayable",
      "type": "function"
    },
    {
      "inputs": [
        {
          "internalType": "uint256",
          "name": "_value",
          "type": "uint256"
        }
      ],
      "name": "setZORRODailyDistributionFactorBasisPointsMax",
      "outputs": [],
      "stateMutability": "nonpayable",
      "type": "function"
    },
    {
      "inputs": [
        {
          "internalType": "uint256",
          "name": "_value",
          "type": "uint256"
        }
      ],
      "name": "setZORRODailyDistributionFactorBasisPointsMin",
      "outputs": [],
      "stateMutability": "nonpayable",
      "type": "function"
    },
    {
      "inputs": [
        {
          "internalType": "address",
          "name": "_zorroControllerOracle",
          "type": "address"
        }
      ],
      "name": "setZorroControllerOracle",
      "outputs": [],
      "stateMutability": "nonpayable",
      "type": "function"
    },
    {
      "inputs": [
        {
          "internalType": "address",
          "name": "_zorroLPPool",
          "type": "address"
        }
      ],
      "name": "setZorroLPPool",
      "outputs": [],
      "stateMutability": "nonpayable",
      "type": "function"
    },
    {
      "inputs": [
        {
          "internalType": "address",
          "name": "_token",
          "type": "address"
        }
      ],
      "name": "setZorroLPPoolOtherToken",
      "outputs": [],
      "stateMutability": "nonpayable",
      "type": "function"
    },
    {
      "inputs": [
        {
          "internalType": "uint256",
          "name": "_totalChainMultipliers",
          "type": "uint256"
        },
        {
          "internalType": "uint256",
          "name": "_totalMarketTVLUSD",
          "type": "uint256"
        },
        {
          "internalType": "uint256",
          "name": "_targetTVLCaptureBasisPoints",
          "type": "uint256"
        },
        {
          "internalType": "uint256",
          "name": "_ZorroTotalVaultTVLUSD",
          "type": "uint256"
        },
        {
          "internalType": "uint256",
          "name": "_publicPoolZORBalance",
          "type": "uint256"
        }
      ],
      "name": "setZorroPerBlock",
      "outputs": [],
      "stateMutability": "nonpayable",
      "type": "function"
    },
    {
      "inputs": [
        {
          "internalType": "address",
          "name": "_zorroStakingVault",
          "type": "address"
        }
      ],
      "name": "setZorroStakingVault",
      "outputs": [],
      "stateMutability": "nonpayable",
      "type": "function"
    },
    {
      "inputs": [
        {
          "internalType": "uint256",
          "name": "",
          "type": "uint256"
        }
      ],
      "name": "stargateDestPoolIds",
      "outputs": [
        {
          "internalType": "uint256",
          "name": "",
          "type": "uint256"
        }
      ],
      "stateMutability": "view",
      "type": "function"
    },
    {
      "inputs": [],
      "name": "stargateRouter",
      "outputs": [
        {
          "internalType": "address",
          "name": "",
          "type": "address"
        }
      ],
      "stateMutability": "view",
      "type": "function"
    },
    {
      "inputs": [],
      "name": "stargateSwapPoolId",
      "outputs": [
        {
          "internalType": "uint256",
          "name": "",
          "type": "uint256"
        }
      ],
      "stateMutability": "view",
      "type": "function"
    },
    {
      "inputs": [],
      "name": "startBlock",
      "outputs": [
        {
          "internalType": "uint256",
          "name": "",
          "type": "uint256"
        }
      ],
      "stateMutability": "view",
      "type": "function"
    },
    {
      "inputs": [],
      "name": "syntheticStablecoin",
      "outputs": [
        {
          "internalType": "address",
          "name": "",
          "type": "address"
        }
      ],
      "stateMutability": "view",
      "type": "function"
    },
    {
      "inputs": [],
      "name": "targetTVLCaptureBasisPoints",
      "outputs": [
        {
          "internalType": "uint256",
          "name": "",
          "type": "uint256"
        }
      ],
      "stateMutability": "view",
      "type": "function"
    },
    {
      "inputs": [],
      "name": "totalAllocPoint",
      "outputs": [
        {
          "internalType": "uint256",
          "name": "",
          "type": "uint256"
        }
      ],
      "stateMutability": "view",
      "type": "function"
    },
    {
      "inputs": [
        {
          "internalType": "uint256",
          "name": "",
          "type": "uint256"
        },
        {
          "internalType": "address",
          "name": "",
          "type": "address"
        },
        {
          "internalType": "uint256",
          "name": "",
          "type": "uint256"
        }
      ],
      "name": "trancheInfo",
      "outputs": [
        {
          "internalType": "uint256",
          "name": "contribution",
          "type": "uint256"
        },
        {
          "internalType": "uint256",
          "name": "timeMultiplier",
          "type": "uint256"
        },
        {
          "internalType": "uint256",
          "name": "rewardDebt",
          "type": "uint256"
        },
        {
          "internalType": "uint256",
          "name": "durationCommittedInWeeks",
          "type": "uint256"
        },
        {
          "internalType": "uint256",
          "name": "enteredVaultAt",
          "type": "uint256"
        },
        {
          "internalType": "uint256",
          "name": "exitedVaultAt",
          "type": "uint256"
        }
      ],
      "stateMutability": "view",
      "type": "function"
    },
    {
      "inputs": [
        {
          "internalType": "uint256",
          "name": "_pid",
          "type": "uint256"
        },
        {
          "internalType": "address",
          "name": "_user",
          "type": "address"
        }
      ],
      "name": "trancheLength",
      "outputs": [
        {
          "internalType": "uint256",
          "name": "",
          "type": "uint256"
        }
      ],
      "stateMutability": "view",
      "type": "function"
    },
    {
      "inputs": [
        {
          "internalType": "uint256",
          "name": "_fromPid",
          "type": "uint256"
        },
        {
          "internalType": "uint256",
          "name": "_fromTrancheId",
          "type": "uint256"
        },
        {
          "internalType": "uint256",
          "name": "_toPid",
          "type": "uint256"
        },
        {
          "internalType": "uint256",
          "name": "_maxMarketMovement",
          "type": "uint256"
        }
      ],
      "name": "transferInvestment",
      "outputs": [],
      "stateMutability": "nonpayable",
      "type": "function"
    },
    {
      "inputs": [
        {
          "internalType": "address",
          "name": "newOwner",
          "type": "address"
        }
      ],
      "name": "transferOwnership",
      "outputs": [],
      "stateMutability": "nonpayable",
      "type": "function"
    },
    {
      "inputs": [
        {
          "internalType": "bytes",
          "name": "_contract",
          "type": "bytes"
        }
      ],
      "name": "unRegisterXChainController",
      "outputs": [],
      "stateMutability": "nonpayable",
      "type": "function"
    },
    {
      "inputs": [],
      "name": "uniRouterAddress",
      "outputs": [
        {
          "internalType": "address",
          "name": "",
          "type": "address"
        }
      ],
      "stateMutability": "view",
      "type": "function"
    },
    {
      "inputs": [
        {
          "internalType": "uint256",
          "name": "_pid",
          "type": "uint256"
        }
      ],
      "name": "updatePool",
      "outputs": [
        {
          "internalType": "uint256",
          "name": "",
          "type": "uint256"
        }
      ],
      "stateMutability": "nonpayable",
      "type": "function"
    },
    {
      "inputs": [
        {
          "internalType": "uint256",
          "name": "_pid",
          "type": "uint256"
        },
        {
          "internalType": "uint256",
          "name": "_trancheId",
          "type": "uint256"
        },
        {
          "internalType": "bool",
          "name": "_harvestOnly",
          "type": "bool"
        }
      ],
      "name": "withdraw",
      "outputs": [
        {
          "internalType": "uint256",
          "name": "",
          "type": "uint256"
        }
      ],
      "stateMutability": "nonpayable",
      "type": "function"
    },
    {
      "inputs": [
        {
          "internalType": "uint256",
          "name": "_pid",
          "type": "uint256"
        }
      ],
      "name": "withdrawAll",
      "outputs": [],
      "stateMutability": "nonpayable",
      "type": "function"
    },
    {
      "inputs": [
        {
          "internalType": "uint256",
          "name": "_pid",
          "type": "uint256"
        },
        {
          "internalType": "uint256",
          "name": "_trancheId",
          "type": "uint256"
        },
        {
          "internalType": "bool",
          "name": "_harvestOnly",
          "type": "bool"
        },
        {
          "internalType": "uint256",
          "name": "_maxMarketMovement",
          "type": "uint256"
        }
      ],
      "name": "withdrawalFullService",
      "outputs": [
        {
          "internalType": "uint256",
          "name": "",
          "type": "uint256"
        }
      ],
      "stateMutability": "nonpayable",
      "type": "function"
    },
    {
      "inputs": [],
      "name": "xChainReceivingOracle",
      "outputs": [
        {
          "internalType": "address",
          "name": "",
          "type": "address"
        }
      ],
      "stateMutability": "view",
      "type": "function"
    },
    {
      "inputs": [],
      "name": "zorroControllerOracle",
      "outputs": [
        {
          "internalType": "address",
          "name": "",
          "type": "address"
        }
      ],
      "stateMutability": "view",
      "type": "function"
    },
    {
      "inputs": [],
      "name": "zorroLPPool",
      "outputs": [
        {
          "internalType": "address",
          "name": "",
          "type": "address"
        }
      ],
      "stateMutability": "view",
      "type": "function"
    },
    {
      "inputs": [],
      "name": "zorroLPPoolOtherToken",
      "outputs": [
        {
          "internalType": "address",
          "name": "",
          "type": "address"
        }
      ],
      "stateMutability": "view",
      "type": "function"
    },
    {
      "inputs": [],
      "name": "zorroStakingVault",
      "outputs": [
        {
          "internalType": "address",
          "name": "",
          "type": "address"
        }
      ],
      "stateMutability": "view",
      "type": "function"
    },
    {
      "inputs": [
        {
          "internalType": "uint256",
          "name": "_chainId",
          "type": "uint256"
        },
        {
          "internalType": "bytes",
          "name": "_dstContract",
          "type": "bytes"
        },
        {
          "internalType": "uint256",
          "name": "_pid",
          "type": "uint256"
        },
        {
          "internalType": "uint256",
          "name": "_valueUSDC",
          "type": "uint256"
        },
        {
          "internalType": "uint256",
          "name": "_weeksCommitted",
          "type": "uint256"
        },
        {
          "internalType": "uint256",
          "name": "_maxMarketMovement",
          "type": "uint256"
        },
        {
          "internalType": "bytes",
          "name": "_destWallet",
          "type": "bytes"
        }
      ],
      "name": "checkXChainDepositFee",
      "outputs": [
        {
          "internalType": "uint256",
          "name": "",
          "type": "uint256"
        }
      ],
      "stateMutability": "view",
      "type": "function"
    },
    {
      "inputs": [
        {
          "internalType": "uint256",
          "name": "_zorroChainId",
          "type": "uint256"
        },
        {
          "internalType": "uint256",
          "name": "_pid",
          "type": "uint256"
        },
        {
          "internalType": "uint256",
          "name": "_valueUSDC",
          "type": "uint256"
        },
        {
          "internalType": "uint256",
          "name": "_weeksCommitted",
          "type": "uint256"
        },
        {
          "internalType": "uint256",
          "name": "_maxMarketMovement",
          "type": "uint256"
        },
        {
          "internalType": "bytes",
          "name": "_destWallet",
          "type": "bytes"
        }
      ],
      "name": "sendXChainDepositRequest",
      "outputs": [],
      "stateMutability": "payable",
      "type": "function"
    },
    {
      "inputs": [
        {
          "internalType": "uint256",
          "name": "_pid",
          "type": "uint256"
        },
        {
          "internalType": "uint256",
          "name": "_valueUSDC",
          "type": "uint256"
        },
        {
          "internalType": "uint256",
          "name": "_weeksCommitted",
          "type": "uint256"
        },
        {
          "internalType": "uint256",
          "name": "_maxMarketMovement",
          "type": "uint256"
        },
        {
          "internalType": "bytes",
          "name": "_originAccount",
          "type": "bytes"
        },
        {
          "internalType": "address",
          "name": "_destAccount",
          "type": "address"
        }
      ],
      "name": "receiveXChainDepositRequest",
      "outputs": [],
      "stateMutability": "nonpayable",
      "type": "function"
    }
  ],
  "bytecode": "0x608060405260038054600160a060020a03191661dead179055617080600655600160098190556014600a908155600b829055600c805460ff1916909217909155600d556103ca6018556000601c819055602f553480156200005f57600080fd5b50620000866200007764010000000062000090810204565b64010000000062000094810204565b60018055620000e4565b3390565b60008054600160a060020a03838116600160a060020a0319831681178455604051919092169283917f8be0079c531659141344cd1fd0a4f28419497f9722a3daafe3b4186f6b6457e09190a35050565b61475680620000f46000396000f3fe6080604052600436106105265760003560e060020a9004806379777d81116102a6578063b4b4e9eb11610169578063ddd88fec116100d0578063ef12696711610089578063ef12696714611143578063ef190fec14611159578063f2fde38b14611179578063f35e4a6e14611199578063fb73170b146111b9578063fc39a29e146111d957600080fd5b8063ddd88fec14611089578063ea07667a146110a9578063ebfba7c4146110c9578063ec54e4a4146110e9578063ee4e268714611103578063ef0e2ff41461112357600080fd5b8063c524a05611610122578063c524a05614610fdd578063c6d758cb14610ffd578063c9f363c41461101d578063cb9c2f681461103d578063ce9e292814611053578063d85c55481461107357600080fd5b8063b4b4e9eb14610ec6578063b614bdba14610f13578063b61bb80a14610f33578063c27893ef14610f53578063c293614214610f73578063c29de0d214610f8957600080fd5b8063959334f41161020d578063a2df085c116101c6578063a2df085c14610e13578063a4d2b08314610e26578063a80bee0714610e46578063a9418d6714610e66578063a9e56f3c14610e86578063b22f325114610ea657600080fd5b8063959334f414610d715780639a8a059214610d915780639b8ad2d614610da75780639cde7a0014610dbd5780639cebd37114610ddd578063a00c807c14610df357600080fd5b80638c157db21161025f5780638c157db214610cb95780638da5cb5b14610cd9578063941d3fd014610cf757806394909cc214610d115780639568786c14610d31578063958e2d3114610d5157600080fd5b806379777d8114610bf95780637bf604d814610c195780637e37c76914610c3957806381ea795d14610c59578063823c43d014610c79578063871869ca14610c9957600080fd5b806348cd4cb1116103ee578063668ababb116103555780636c78d49c1161030e5780636c78d49c14610b4e5780636ca8bd6514610b6e57806370d5ae0514610b8e578063715018a614610bae578063745af0a814610bc357806376cc230314610be357600080fd5b8063668ababb14610a8e578063683dc6f514610aae57806368ce004b14610ace578063692d8b8b14610aee578063693a090b14610b0e5780636b8eb2e514610b2e57600080fd5b80635527a6f9116103a75780635527a6f9146109aa5780635790f599146109c0578063592dcbd3146109d6578063593af9fe146109f65780636179ecd114610a2357806365bc77bc14610a4357600080fd5b806348cd4cb1146108fe57806348d57c8e146109145780634cfea68a146109345780635051d3711461094a57806351eb05a61461096a57806353f73f871461098a57600080fd5b806333cfcd3b116104925780633b9ce5651161044b5780633b9ce565146108245780633bbc1ffc1461083a5780634098b0eb1461085a578063416d0de71461087a578063459f47531461089a5780634780f9f5146108de57600080fd5b806333cfcd3b1461074d5780633486a32e1461076d578063353b6c2c1461078d57806337541464146107ad5780633b35b727146107ee5780633b7106881461080e57600080fd5b80631526fe27116104e45780631526fe271461060957806317caf6f114610665578063219b38b81461067b57806326fc7c7d146106a8578063293da9d4146106c85780632e31283d146106f557600080fd5b8062aeef8a1461052b578063025b10451461054d57806307968db11461058a578063081e3eda146105aa578063104a6132146105c95780631479a6df146105e9575b600080fd5b34801561053757600080fd5b5061054b610546366004613d07565b6111f9565b005b34801561055957600080fd5b5060225461056d90600160a060020a031681565b604051600160a060020a0390911681526020015b60405180910390f35b34801561059657600080fd5b5060285461056d90600160a060020a031681565b3480156105b657600080fd5b50602c545b604051908152602001610581565b3480156105d557600080fd5b5061056d6105e4366004613d33565b6112b6565b3480156105f557600080fd5b5061054b610604366004613d33565b6112e0565b34801561061557600080fd5b50610629610624366004613d33565b611312565b60408051600160a060020a03978816815260208101969096528501939093526060840191909152608083015290911660a082015260c001610581565b34801561067157600080fd5b506105bb602f5481565b34801561068757600080fd5b506105bb610696366004613d33565b60276020526000908152604090205481565b3480156106b457600080fd5b5061054b6106c3366004613d63565b611365565b3480156106d457600080fd5b506105bb6106e3366004613d7e565b60246020526000908152604090205481565b34801561070157600080fd5b5061056d610710366004613e5c565b602e6020908152600093845260408085208451808601840180519281529084019584019590952094529290528252902054600160a060020a031681565b34801561075957600080fd5b506105bb610768366004613eba565b6113b4565b34801561077957600080fd5b5061054b610788366004613d63565b61144a565b34801561079957600080fd5b5061054b6107a8366004613d33565b611499565b3480156107b957600080fd5b506011546107db907001000000000000000000000000000000009004600f0b81565b604051600f9190910b8152602001610581565b3480156107fa57600080fd5b5061054b610809366004613d33565b6114cb565b34801561081a57600080fd5b506105bb600d5481565b34801561083057600080fd5b506105bb600a5481565b34801561084657600080fd5b5061054b610855366004613d33565b6114fd565b34801561086657600080fd5b5061054b610875366004613d33565b61152f565b34801561088657600080fd5b50600f5461056d90600160a060020a031681565b3480156108a657600080fd5b506108cb6108b5366004613d33565b60236020526000908152604090205461ffff1681565b60405161ffff9091168152602001610581565b3480156108ea57600080fd5b5061054b6108f9366004613ef3565b611561565b34801561090a57600080fd5b506105bb60055481565b34801561092057600080fd5b50601f5461056d90600160a060020a031681565b34801561094057600080fd5b506105bb60065481565b34801561095657600080fd5b5061054b610965366004613d63565b61160a565b34801561097657600080fd5b506105bb610985366004613d33565b611659565b34801561099657600080fd5b506105bb6109a5366004613f25565b6117d8565b3480156109b657600080fd5b506105bb60095481565b3480156109cc57600080fd5b506105bb60265481565b3480156109e257600080fd5b5061054b6109f1366004613d63565b611800565b348015610a0257600080fd5b50610a16610a11366004613d33565b61184f565b6040516105819190613fa9565b348015610a2f57600080fd5b5061054b610a3e366004613d33565b6118e9565b348015610a4f57600080fd5b50610a7e610a5e366004613fbc565b8051602081830181018051601e8252928201919093012091525460ff1681565b6040519015158152602001610581565b348015610a9a57600080fd5b5060045461056d90600160a060020a031681565b348015610aba57600080fd5b5061054b610ac9366004613d63565b61191b565b348015610ada57600080fd5b5061054b610ae9366004613ff1565b61196a565b348015610afa57600080fd5b5061054b610b0936600461409d565b6119ae565b348015610b1a57600080fd5b5060145461056d90600160a060020a031681565b348015610b3a57600080fd5b5061054b610b49366004614110565b6119f9565b348015610b5a57600080fd5b5061054b610b6936600461414b565b611af8565b348015610b7a57600080fd5b5061054b610b89366004613d63565b611b38565b348015610b9a57600080fd5b5060035461056d90600160a060020a031681565b348015610bba57600080fd5b5061054b611b87565b348015610bcf57600080fd5b506105bb610bde366004614168565b611bc0565b348015610bef57600080fd5b506105bb60215481565b348015610c0557600080fd5b50602a5461056d90600160a060020a031681565b348015610c2557600080fd5b5060125461056d90600160a060020a031681565b348015610c4557600080fd5b5061054b610c54366004613ef3565b611c37565b348015610c6557600080fd5b5061054b610c74366004613fbc565b611db6565b348015610c8557600080fd5b50602b5461056d90600160a060020a031681565b348015610ca557600080fd5b5061054b610cb4366004613fbc565b611e18565b348015610cc557600080fd5b5060025461056d90600160a060020a031681565b348015610ce557600080fd5b50600054600160a060020a031661056d565b348015610d0357600080fd5b50600c54610a7e9060ff1681565b348015610d1d57600080fd5b5061054b610d2c366004613d63565b611e57565b348015610d3d57600080fd5b506105bb610d4c366004613d33565b611ea6565b348015610d5d57600080fd5b5061054b610d6c366004613d33565b611f7f565b348015610d7d57600080fd5b5061054b610d8c366004613d63565b611fe9565b348015610d9d57600080fd5b506105bb601b5481565b348015610db357600080fd5b506105bb60185481565b348015610dc957600080fd5b5061056d610dd8366004613d33565b612038565b348015610de957600080fd5b506105bb600b5481565b348015610dff57600080fd5b5061054b610e0e366004613ff1565b612048565b61054b610e213660046141a7565b612088565b348015610e3257600080fd5b5060195461056d90600160a060020a031681565b348015610e5257600080fd5b506105bb610e61366004614213565b6122a6565b348015610e7257600080fd5b5061054b610e81366004613d63565b6122c2565b348015610e9257600080fd5b5060255461056d90600160a060020a031681565b348015610eb257600080fd5b5060295461056d90600160a060020a031681565b348015610ed257600080fd5b50610ee6610ee1366004614235565b61236a565b604080519687526020870195909552938501929092526060840152608083015260a082015260c001610581565b348015610f1f57600080fd5b5061056d610f2e366004613d33565b6123cb565b348015610f3f57600080fd5b50600e5461056d90600160a060020a031681565b348015610f5f57600080fd5b5060105461056d90600160a060020a031681565b348015610f7f57600080fd5b506105bb60075481565b348015610f9557600080fd5b50610fc8610fa4366004613f25565b60306020908152600092835260408084209091529082529020805460019091015482565b60408051928352602083019190915201610581565b348015610fe957600080fd5b5061054b610ff8366004613d63565b6123db565b34801561100957600080fd5b5061054b61101836600461426a565b61242a565b34801561102957600080fd5b506105bb611038366004614294565b6124f2565b34801561104957600080fd5b506105bb60085481565b34801561105f57600080fd5b5061054b61106e366004613d63565b6125ef565b34801561107f57600080fd5b506105bb60205481565b34801561109557600080fd5b5061054b6110a4366004613d63565b61263e565b3480156110b557600080fd5b5061054b6110c4366004613d33565b61268d565b3480156110d557600080fd5b5060135461056d90600160a060020a031681565b3480156110f557600080fd5b506011546107db90600f0b81565b34801561110f57600080fd5b5061054b61111e366004613d63565b6126bf565b34801561112f57600080fd5b5061054b61113e366004613d33565b61270e565b34801561114f57600080fd5b506105bb601c5481565b34801561116557600080fd5b5061054b611174366004613d63565b612740565b34801561118557600080fd5b5061054b611194366004613d63565b61278f565b3480156111a557600080fd5b5061054b6111b4366004613d33565b612847565b3480156111c557600080fd5b5061054b6111d4366004614328565b612879565b3480156111e557600080fd5b50601a5461056d90600160a060020a031681565b600260015414156112285760405160e560020a62461bcd02815260040161121f906143a4565b60405180910390fd5b60026001819055506000602c8481548110611245576112456143db565b60009182526020909120600690910201805490915061126e90600160a060020a031630856128c5565b6005810154815461128e91600160a060020a039182169133911686612a06565b6112ab843360405180602001604052806000815250868642612a57565b505060018055505050565b601781815481106112c657600080fd5b600091825260209091200154600160a060020a0316905081565b600054600160a060020a0316331461130d5760405160e560020a62461bcd02815260040161121f906143f4565b600955565b602c818154811061132257600080fd5b6000918252602090912060069091020180546001820154600283015460038401546004850154600590950154600160a060020a0394851696509294919390921686565b600054600160a060020a031633146113925760405160e560020a62461bcd02815260040161121f906143f4565b601f8054600160a060020a031916600160a060020a0392909216919091179055565b6000600260015414156113dc5760405160e560020a62461bcd02815260040161121f906143a4565b600260018190555060006114028533604051806020016040528060008152508787612d6b565b50905061143e3382602c888154811061141d5761141d6143db565b6000918252602090912060069091020154600160a060020a031691906131f3565b60018055949350505050565b600054600160a060020a031633146114775760405160e560020a62461bcd02815260040161121f906143f4565b602a8054600160a060020a031916600160a060020a0392909216919091179055565b600054600160a060020a031633146114c65760405160e560020a62461bcd02815260040161121f906143f4565b600655565b600054600160a060020a031633146114f85760405160e560020a62461bcd02815260040161121f906143f4565b600a55565b600054600160a060020a0316331461152a5760405160e560020a62461bcd02815260040161121f906143f4565b600855565b600054600160a060020a0316331461155c5760405160e560020a62461bcd02815260040161121f906143f4565b600d55565b600260015414156115875760405160e560020a62461bcd02815260040161121f906143a4565b60026001819055506000602c85815481106115a4576115a46143db565b6000918252602090912060056006909202010154600e54600160a060020a0391821692506115d4911630866128c5565b600e546115ec90600160a060020a0316338387612a06565b6112ab85336040518060200160405280600081525087874288613241565b600054600160a060020a031633146116375760405160e560020a62461bcd02815260040161121f906143f4565b602b8054600160a060020a031916600160a060020a0392909216919091179055565b600080602c838154811061166f5761166f6143db565b90600052602060002090600602019050806002015443116116935750600092915050565b60006116ac82600201544361335290919063ffffffff16565b9050600081116116c0575060009392505050565b60006116f1602f546116eb85600101546116e56007548761335e90919063ffffffff16565b9061335e565b9061336a565b601a54909150600160a060020a031630141561174a5760045460025461172591600160a060020a0391821691163084612a06565b60038301546117349082613376565b6003840155505043600290910155506000919050565b6002546040517f40c10f1900000000000000000000000000000000000000000000000000000000815230600482015260248101839052600160a060020a03909116906340c10f1990604401600060405180830381600087803b1580156117af57600080fd5b505af11580156117c3573d6000803e3d6000fd5b5092979650505050505050565b505050919050565b6000918252602d60209081526040808420600160a060020a0393909316845291905290205490565b600054600160a060020a0316331461182d5760405160e560020a62461bcd02815260040161121f906143f4565b60298054600160a060020a031916600160a060020a0392909216919091179055565b601d602052600090815260409020805461186890614429565b80601f016020809104026020016040519081016040528092919081815260200182805461189490614429565b80156118e15780601f106118b6576101008083540402835291602001916118e1565b820191906000526020600020905b8154815290600101906020018083116118c457829003601f168201915b505050505081565b600054600160a060020a031633146119165760405160e560020a62461bcd02815260040161121f906143f4565b601855565b600054600160a060020a031633146119485760405160e560020a62461bcd02815260040161121f906143f4565b60228054600160a060020a031916600160a060020a0392909216919091179055565b600054600160a060020a031633146119975760405160e560020a62461bcd02815260040161121f906143f4565b80516119aa906015906020840190613c19565b5050565b60405160e560020a62461bcd02815260206004820152601760248201527f696c6c6567616c2064756d6d792066756e632063616c6c000000000000000000604482015260640161121f565b602b54600160a060020a031633600160a060020a031614611a5f5760405160e560020a62461bcd02815260206004820152601160248201527f6f6e6c79205a6f72726f206f7261636c65000000000000000000000000000000604482015260640161121f565b6000611a81836116eb611a748761271061336a565b600d546116e5908a61335e565b9050600a54811115611a965750600a54611aa5565b600954811015611aa557506009545b6000611ab76127106116eb858561335e565b90506000611ad4886116eb84600b5461335e90919063ffffffff16565b9050611aeb6006548261336a90919063ffffffff16565b6007555050505050505050565b600054600160a060020a03163314611b255760405160e560020a62461bcd02815260040161121f906143f4565b600c805460ff1916911515919091179055565b600054600160a060020a03163314611b655760405160e560020a62461bcd02815260040161121f906143f4565b60198054600160a060020a031916600160a060020a0392909216919091179055565b600054600160a060020a03163314611bb45760405160e560020a62461bcd02815260040161121f906143f4565b611bbe600061338b565b565b600060026001541415611be85760405160e560020a62461bcd02815260040161121f906143a4565b60026001819055506000611c0f3360405180602001604052806000815250888888886133db565b50600e54909150611c2a90600160a060020a031633836131f3565b6001805595945050505050565b60026001541415611c5d5760405160e560020a62461bcd02815260040161121f906143a4565b60026001556000848152602d602090815260408083203384529091528120805485908110611c8d57611c8d6143db565b6000918252602080832060036006909302019190910154878352602d8252604080842033855290925290822080549193509086908110611ccf57611ccf6143db565b90600052602060002090600602016004015490506000611d03336040518060200160405280600081525089896000896133db565b5090506060600e60009054906101000a9004600160a060020a031681600081518110611d3157611d316143db565b6020026020010190600160a060020a03169081600160a060020a031681525050611d6f8633604051806020016040528060008152508588888b613241565b604051338152869088908a907f67e7aba7263d8fbeb0cd9a2f4008f060a6a03f46c1d7f9d0550f0b93e96e96f89060200160405180910390a4505060018055505050505050565b600054600160a060020a03163314611de35760405160e560020a62461bcd02815260040161121f906143f4565b6001601e82604051611df59190614467565b908152604051908190036020019020805491151560ff1990921691909117905550565b600054600160a060020a03163314611e455760405160e560020a62461bcd02815260040161121f906143f4565b6000601e82604051611df59190614467565b600054600160a060020a03163314611e845760405160e560020a62461bcd02815260040161121f906143f4565b60048054600160a060020a031916600160a060020a0392909216919091179055565b600c5460009060ff1615611f6e576040517f677342ce00000000000000000000000000000000000000000000000000000000815260048101839052611f689064e8d4a51000906116e590611f609073__CustomMath____________________________9063677342ce90602401602060405180830381865af4158015611f30573d6000803e3d6000fd5b505050506040513d601f19601f82011682018060405250810190611f549190614483565b6116e56002600a61336a565b600190613376565b92915050565b5064e8d4a51000919050565b919050565b60026001541415611fa55760405160e560020a62461bcd02815260040161121f906143a4565b60026001556000611fb682336117d8565b905060005b81811015611fe057611fcf838260006113b4565b50611fd9816144b5565b9050611fbb565b50506001805550565b600054600160a060020a031633146120165760405160e560020a62461bcd02815260040161121f906143f4565b60138054600160a060020a031916600160a060020a0392909216919091179055565b601681815481106112c657600080fd5b600054600160a060020a031633146120755760405160e560020a62461bcd02815260040161121f906143f4565b80516119aa906016906020840190613c19565b600260015414156120ae5760405160e560020a62461bcd02815260040161121f906143a4565b6002600155346121035760405160e560020a62461bcd02815260206004820152601160248201527f4e6f2066656573207375626d6974746564000000000000000000000000000000604482015260640161121f565b600e5461211a90600160a060020a031630866128c5565b600e5461213290600160a060020a0316333087612a06565b600e546040517f70a08231000000000000000000000000000000000000000000000000000000008152306004820152600091600160a060020a0316906370a0823190602401602060405180830381865afa158015612194573d6000803e3d6000fd5b505050506040513d601f19601f820116820180604052508101906121b89190614483565b905060006121ca8783878733886134de565b6000898152601d60205260408120805492935090916121e890614429565b80601f016020809104026020016040519081016040528092919081815260200182805461221490614429565b80156122615780601f1061223657610100808354040283529160200191612261565b820191906000526020600020905b81548152906001019060200180831161224457829003601f168201915b505050505090506122976040518060a001604052808b815260200185815260200183815260200184815260200187815250613562565b50506001805550505050505050565b60006122bb64e8d4a510006116eb858561335e565b9392505050565b600054600160a060020a031633146122ef5760405160e560020a62461bcd02815260040161121f906143f4565b600160a060020a0381166123485760405160e560020a62461bcd02815260206004820152601060248201527f63616e6e6f742062652030206164647200000000000000000000000000000000604482015260640161121f565b601a8054600160a060020a031916600160a060020a0392909216919091179055565b602d602052826000526040600020602052816000526040600020818154811061239257600080fd5b60009182526020909120600690910201805460018201546002830154600384015460048501546005909501549397509195509350919086565b601581815481106112c657600080fd5b600054600160a060020a031633146124085760405160e560020a62461bcd02815260040161121f906143f4565b600e8054600160a060020a031916600160a060020a0392909216919091179055565b600054600160a060020a031633146124575760405160e560020a62461bcd02815260040161121f906143f4565b600254600160a060020a03838116911614156124de5760405160e560020a62461bcd02815260206004820152603560248201527f217361666520746f20757365205a6f72726f20746f6b656e20696e2066756e6360448201527f20696e43617365546f6b656e73476574537475636b0000000000000000000000606482015260840161121f565b6119aa600160a060020a03831633836131f3565b604080516060808201835260008083526020830181905292820152600061251d8888888833896134de565b9050600080602560009054906101000a9004600160a060020a0316600160a060020a0316630a512369602360008f815260200190815260200160002060009054906101000a900461ffff1660018e87896040518663ffffffff1660e060020a0281526004016125909594939291906144f9565b6040805180830381865afa1580156125ac573d6000803e3d6000fd5b505050506040513d601f19601f820116820180604052508101906125d09190614545565b90925090506125df8282613376565b9c9b505050505050505050505050565b600054600160a060020a0316331461261c5760405160e560020a62461bcd02815260040161121f906143f4565b60108054600160a060020a031916600160a060020a0392909216919091179055565b600054600160a060020a0316331461266b5760405160e560020a62461bcd02815260040161121f906143f4565b60128054600160a060020a031916600160a060020a0392909216919091179055565b600054600160a060020a031633146126ba5760405160e560020a62461bcd02815260040161121f906143f4565b600b55565b600054600160a060020a031633146126ec5760405160e560020a62461bcd02815260040161121f906143f4565b60148054600160a060020a031916600160a060020a0392909216919091179055565b600054600160a060020a0316331461273b5760405160e560020a62461bcd02815260040161121f906143f4565b601b55565b600054600160a060020a0316331461276d5760405160e560020a62461bcd02815260040161121f906143f4565b600f8054600160a060020a031916600160a060020a0392909216919091179055565b600054600160a060020a031633146127bc5760405160e560020a62461bcd02815260040161121f906143f4565b600160a060020a03811661283b5760405160e560020a62461bcd02815260206004820152602660248201527f4f776e61626c653a206e6577206f776e657220697320746865207a65726f206160448201527f6464726573730000000000000000000000000000000000000000000000000000606482015260840161121f565b6128448161338b565b50565b600054600160a060020a031633146128745760405160e560020a62461bcd02815260040161121f906143f4565b600555565b600054600160a060020a031633146128a65760405160e560020a62461bcd02815260040161121f906143f4565b6000838152601d602052604090206128bf908383613c7e565b50505050565b6040517fdd62ed3e000000000000000000000000000000000000000000000000000000008152306004820152600160a060020a038381166024830152600091839186169063dd62ed3e90604401602060405180830381865afa15801561292f573d6000803e3d6000fd5b505050506040513d601f19601f820116820180604052508101906129539190614483565b61295d9190614569565b604051600160a060020a0385166024820152604481018290529091506128bf9085907f095ea7b300000000000000000000000000000000000000000000000000000000906064015b60408051601f198184030181529190526020810180517bffffffffffffffffffffffffffffffffffffffffffffffffffffffff167bffffffffffffffffffffffffffffffffffffffffffffffffffffffff1990931692909217909152613649565b604051600160a060020a03808516602483015283166044820152606481018290526128bf9085907f23b872dd00000000000000000000000000000000000000000000000000000000906084016129a5565b600080602c8881548110612a6d57612a6d6143db565b9060005260206000209060060201905060008511612ad05760405160e560020a62461bcd02815260206004820152601560248201527f5f77616e74416d74206d757374206265203e2030210000000000000000000000604482015260640161121f565b612ad988611659565b915086600160a060020a038116612b80576000875111612b645760405160e560020a62461bcd02815260206004820152602c60248201527f4e65697468657220666f726569676e2061636374206e6f72206c6f63616c206160448201527f6363742070726f76696465640000000000000000000000000000000000000000606482015260840161121f565b612b6d87614581565b6c01000000000000000000000000900490505b6000602c8a81548110612b9557612b956143db565b60009182526020909120600690910201600501546040517fba0bb4ab000000000000000000000000000000000000000000000000000000008152600160a060020a038481166004830152602482018a90529091169063ba0bb4ab906044016020604051808303816000875af1158015612c12573d6000803e3d6000fd5b505050506040513d601f19601f82011682018060405250810190612c369190614483565b601954600585015491925064e8d4a5100091600160a060020a03908116911614612c6657612c6387611ea6565b90505b6000612c7283836122a6565b6004860154909150612c849082613376565b60048601819055600090612ca1906116eb8464e8d4a5100061335e565b905060006040518060c00160405280848152602001858152602001612cdc64e8d4a510006116eb868c6003015461335e90919063ffffffff16565b81526020018b81526020018a815260200160008152509050612d008e878e84613731565b8d8c604051612d0f9190614467565b604051809103902087600160a060020a03167fc6b1f1535b3bb3bdffa2f97a671ab7bd6f2512deec58103fa47eb40ed95274278e604051612d5291815260200190565b60405180910390a4505050505050509695505050505050565b600080600160a060020a038616158015612d86575060008551115b80612da35750600160a060020a03861615801590612da357508451155b612df25760405160e560020a62461bcd02815260206004820152601d60248201527f4f6e6c79206f6e65206163636f756e74207479706520616c6c6f776564000000604482015260640161121f565b6000612e008886888a613820565b90506000602c8981548110612e1757612e176143db565b906000526020600020906006020190506000826000015111612e7e5760405160e560020a62461bcd02815260206004820152601960248201527f7472616e6368652e636f6e747269627574696f6e206973203000000000000000604482015260640161121f565b6000816004015411612ed55760405160e560020a62461bcd02815260206004820152601e60248201527f746f74616c5472616e636865436f6e747269627574696f6e7320697320300000604482015260640161121f565b60a082015115612f2a5760405160e560020a62461bcd02815260206004820152601460248201527f416c726561647920657869746564207661756c74000000000000000000000000604482015260640161121f565b612f3389611659565b92506000612f5b82600401546116eb64e8d4a51000866000015161335e90919063ffffffff16565b90506000612f8d8460400151612f8764e8d4a510006116eb87600301548761335e90919063ffffffff16565b90613352565b90508015612fe357600080612fa48d87858f6139c2565b91509150601c54601b541415612fe0578115612fc457612fc48c83613a50565b8015612fe057601954612fe090600160a060020a031682613a50565b50505b866131e557602c8b81548110612ffb57612ffb6143db565b600091825260209091206006909102016005015484516040517fe0ccabfa000000000000000000000000000000000000000000000000000000008152600160a060020a038d81166004830152602482019290925291169063e0ccabfa906044016020604051808303816000875af115801561307a573d6000803e3d6000fd5b505050506040513d601f19601f8201168201806040525081019061309e9190614483565b50835160048401546130af91613352565b60048481019190915583546040517f70a082310000000000000000000000000000000000000000000000000000000081523092810192909252600160a060020a0316906370a0823190602401602060405180830381865afa158015613118573d6000803e3d6000fd5b505050506040513d601f19601f8201168201806040525081019061313c9190614483565b60008c8152602d60209081526040808320600160a060020a038f1684529091529020805491975042918a908110613175576131756143db565b9060005260206000209060060201600501819055508a896040516131999190614467565b604080519182900382208b8352602083018a905291600160a060020a038e16917fa7749cd42821d3b82a6814af6d80712b2e43f98ec1b25aee31c8351855de65d9910160405180910390a45b505050509550959350505050565b604051600160a060020a03831660248201526044810182905261323c9084907fa9059cbb00000000000000000000000000000000000000000000000000000000906064016129a5565b505050565b6000602c8881548110613256576132566143db565b60009182526020822060069190910201600501546040517fe502a88d0000000000000000000000000000000000000000000000000000000081526004810188905260248101859052600160a060020a039091169250829190829063e502a88d906044016020604051808303816000875af11580156132d8573d6000803e3d6000fd5b505050506040513d601f19601f820116820180604052508101906132fc9190614483565b90506133378382602c8d81548110613316576133166143db565b6000918252602090912060069091020154600160a060020a031691906128c5565b6133458a8a8a848a8a612a57565b5050505050505050505050565b60006122bb82846145bb565b60006122bb82846145d2565b60006122bb82846145f1565b60006122bb8284614569565b50505050505050565b60008054600160a060020a03838116600160a060020a0319831681178455604051919092169283917f8be0079c531659141344cd1fd0a4f28419497f9722a3daafe3b4186f6b6457e09190a35050565b6000806000602c87815481106133f3576133f36143db565b60009182526020822060056006909202010154600160a060020a031691508190806134218a8d8d8c8c612d6b565b9150915061343d8483602c8d81548110613316576133166143db565b6040517f648794a40000000000000000000000000000000000000000000000000000000081526004810183905260248101889052600090600160a060020a0385169063648794a4906044016020604051808303816000875af11580156134a7573d6000803e3d6000fd5b505050506040513d601f19601f820116820180604052508101906134cb9190614483565b9d919c50909a5050505050505050505050565b6040516060907f692d8b8b0000000000000000000000000000000000000000000000000000000090600090613521908a908a908a908a908a908a90602001614616565b60405160208183030381529060405290508181604051602001613545929190614650565b604051602081830303815290604052925050509695505050505050565b61358660405180606001604052806000815260200160008152602001606081525090565b602554825160009081526023602090815260408083205460265487518552602784529190932054918601516080870151600160a060020a0390951694639fbf10fc94349461ffff909116939290913391906135ea906103e8906116eb90849061335e565b898b604001518c606001516040518b63ffffffff1660e060020a02815260040161361c99989796959493929190614695565b6000604051808303818588803b15801561363557600080fd5b505af1158015613382573d6000803e3d6000fd5b600061369e826040518060400160405280602081526020017f5361666545524332303a206c6f772d6c6576656c2063616c6c206661696c656481525085600160a060020a0316613aff9092919063ffffffff16565b80519091501561323c57808060200190518101906136bc9190614703565b61323c5760405160e560020a62461bcd02815260206004820152602a60248201527f5361666545524332303a204552433230206f7065726174696f6e20646964206e60448201527f6f74207375636365656400000000000000000000000000000000000000000000606482015260840161121f565b6000848152602d60209081526040808320600160a060020a0387168452825280832080546001818101835591855293839020855160069095020193845591840151918301919091558201516002820155606082015160038201556080820151600482015560a08201516005909101558151156128bf5782602e6000868152602001908152602001600020836040516137c99190614467565b908152602001604051809103902060006137e86001612f8789896117d8565b815260200190815260200160002060006101000a815481600160a060020a030219169083600160a060020a0316021790555050505050565b6138596040518060c001604052806000815260200160008152602001600081526020016000815260200160008152602001600081525090565b600160a060020a0382166138f7576000858152602d60209081526040808320600160a060020a0386168452909152902080548590811061389b5761389b6143db565b90600052602060002090600602016040518060c0016040529081600082015481526020016001820154815260200160028201548152602001600382015481526020016004820154815260200160058201548152505090506139ba565b6000858152602e60205260408082209051613913908690614467565b9081526040805160209281900383019020600088815290835281812054898252602d8452828220600160a060020a0390911680835293522080549192509086908110613961576139616143db565b90600052602060002090600602016040518060c001604052908160008201548152602001600182015481526020016002820154815260200160038201548152602001600482015481526020016005820154815250509150505b949350505050565b600080600084116139d857506000905080613a47565b6000613a0642612f876139fb62093a808a6060015161335e90919063ffffffff16565b60808a015190613376565b90508015613a41576060860151613a2e90613a249062093a8061335e565b6116eb878461335e565b9150613a3a8583613352565b9250613a45565b8492505b505b94509492505050565b6002546040517f70a082310000000000000000000000000000000000000000000000000000000081523060048201528291600091600160a060020a03909116906370a0823190602401602060405180830381865afa158015613ab6573d6000803e3d6000fd5b505050506040513d601f19601f82011682018060405250810190613ada9190614483565b905080831115613ae8578091505b6002546128bf90600160a060020a031685846131f3565b60606139ba848460008585600160a060020a0385163b613b645760405160e560020a62461bcd02815260206004820152601d60248201527f416464726573733a2063616c6c20746f206e6f6e2d636f6e7472616374000000604482015260640161121f565b60008086600160a060020a03168587604051613b809190614467565b60006040518083038185875af1925050503d8060008114613bbd576040519150601f19603f3d011682016040523d82523d6000602084013e613bc2565b606091505b5091509150613bd2828286613bdd565b979650505050505050565b60608315613bec5750816122bb565b825115613bfc5782518084602001fd5b8160405160e560020a62461bcd02815260040161121f9190613fa9565b828054828255906000526020600020908101928215613c6e579160200282015b82811115613c6e5782518254600160a060020a031916600160a060020a03909116178255602090920191600190910190613c39565b50613c7a929150613cf2565b5090565b828054613c8a90614429565b90600052602060002090601f016020900481019282613cac5760008555613c6e565b82601f10613cc55782800160ff19823516178555613c6e565b82800160010185558215613c6e579182015b82811115613c6e578235825591602001919060010190613cd7565b5b80821115613c7a5760008155600101613cf3565b600080600060608486031215613d1c57600080fd5b505081359360208301359350604090920135919050565b600060208284031215613d4557600080fd5b5035919050565b8035600160a060020a0381168114611f7a57600080fd5b600060208284031215613d7557600080fd5b6122bb82613d4c565b600060208284031215613d9057600080fd5b813561ffff811681146122bb57600080fd5b60e060020a634e487b7102600052604160045260246000fd5b604051601f8201601f1916810167ffffffffffffffff81118282101715613de457613de4613da2565b604052919050565b600082601f830112613dfd57600080fd5b813567ffffffffffffffff811115613e1757613e17613da2565b613e2a601f8201601f1916602001613dbb565b818152846020838601011115613e3f57600080fd5b816020850160208301376000918101602001919091529392505050565b600080600060608486031215613e7157600080fd5b83359250602084013567ffffffffffffffff811115613e8f57600080fd5b613e9b86828701613dec565b925050604084013590509250925092565b801515811461284457600080fd5b600080600060608486031215613ecf57600080fd5b83359250602084013591506040840135613ee881613eac565b809150509250925092565b60008060008060808587031215613f0957600080fd5b5050823594602084013594506040840135936060013592509050565b60008060408385031215613f3857600080fd5b82359150613f4860208401613d4c565b90509250929050565b60005b83811015613f6c578181015183820152602001613f54565b838111156128bf5750506000910152565b60008151808452613f95816020860160208601613f51565b601f01601f19169290920160200192915050565b6020815260006122bb6020830184613f7d565b600060208284031215613fce57600080fd5b813567ffffffffffffffff811115613fe557600080fd5b6139ba84828501613dec565b6000602080838503121561400457600080fd5b823567ffffffffffffffff8082111561401c57600080fd5b818501915085601f83011261403057600080fd5b81358181111561404257614042613da2565b8381029150614052848301613dbb565b818152918301840191848101908884111561406c57600080fd5b938501935b838510156140915761408285613d4c565b82529385019390850190614071565b98975050505050505050565b60008060008060008060c087890312156140b657600080fd5b86359550602087013594506040870135935060608701359250608087013567ffffffffffffffff8111156140e957600080fd5b6140f589828a01613dec565b92505061410460a08801613d4c565b90509295509295509295565b600080600080600060a0868803121561412857600080fd5b505083359560208501359550604085013594606081013594506080013592509050565b60006020828403121561415d57600080fd5b81356122bb81613eac565b6000806000806080858703121561417e57600080fd5b8435935060208501359250604085013561419781613eac565b9396929550929360600135925050565b60008060008060008060c087890312156141c057600080fd5b863595506020870135945060408701359350606087013592506080870135915060a087013567ffffffffffffffff8111156141fa57600080fd5b61420689828a01613dec565b9150509295509295509295565b6000806040838503121561422657600080fd5b50508035926020909101359150565b60008060006060848603121561424a57600080fd5b8335925061425a60208501613d4c565b9150604084013590509250925092565b6000806040838503121561427d57600080fd5b61428683613d4c565b946020939093013593505050565b600080600080600080600060e0888a0312156142af57600080fd5b87359650602088013567ffffffffffffffff808211156142ce57600080fd5b6142da8b838c01613dec565b975060408a0135965060608a0135955060808a0135945060a08a0135935060c08a013591508082111561430c57600080fd5b506143198a828b01613dec565b91505092959891949750929550565b60008060006040848603121561433d57600080fd5b83359250602084013567ffffffffffffffff8082111561435c57600080fd5b818601915086601f83011261437057600080fd5b81358181111561437f57600080fd5b87602082850101111561439157600080fd5b6020830194508093505050509250925092565b6020808252601f908201527f5265656e7472616e637947756172643a207265656e7472616e742063616c6c00604082015260600190565b60e060020a634e487b7102600052603260045260246000fd5b6020808252818101527f4f776e61626c653a2063616c6c6572206973206e6f7420746865206f776e6572604082015260600190565b60028104600182168061443d57607f821691505b602082108114156144615760e060020a634e487b7102600052602260045260246000fd5b50919050565b60008251614479818460208701613f51565b9190910192915050565b60006020828403121561449557600080fd5b5051919050565b60e060020a634e487b7102600052601160045260246000fd5b60006000198214156144c9576144c961449c565b5060010190565b805182526020810151602083015260006040820151606060408501526139ba6060850182613f7d565b61ffff8616815260ff8516602082015260a06040820152600061451f60a0830186613f7d565b82810360608401526145318186613f7d565b9050828103608084015261409181856144d0565b6000806040838503121561455857600080fd5b505080516020909101519092909150565b6000821982111561457c5761457c61449c565b500190565b805160208201516bffffffffffffffffffffffff1980821692919060148310156117d05760149290920360080260020a8202161692915050565b6000828210156145cd576145cd61449c565b500390565b60008160001904831182151516156145ec576145ec61449c565b500290565b6000826146115760e060020a634e487b7102600052601260045260246000fd5b500490565b868152856020820152846040820152836060820152600160a060020a038316608082015260c060a0820152600061409160c0830184613f7d565b7bffffffffffffffffffffffffffffffffffffffffffffffffffffffff198316815260008251614687816004850160208701613f51565b919091016004019392505050565b600061012061ffff8c1683528a6020840152896040840152600160a060020a03891660608401528760808401528660a08401528060c08401526146da818401876144d0565b905082810360e08401526146ee8186613f7d565b90508281036101008401526125df8185613f7d565b60006020828403121561471557600080fd5b81516122bb81613eac56fea26469706673582212201a8d8efe182b8d3dd69929eaeb54a1ad5e90d5c98c20542f295600c073ce811764736f6c634300080a0033",
  "immutableReferences": {},
  "source": "// SPDX-License-Identifier: MIT\n\npragma solidity ^0.8.0;\n\nimport \"./_ZorroControllerXChain.sol\";\n\n\ncontract ZorroControllerXChainDeposit is ZorroControllerXChain {\n    /* Libraries */\n    using SafeMath for uint256;\n    using SafeERC20 for IERC20;\n\n    /* Fees */ \n\n    /// @notice Checks to see how much a cross chain deposit will cost\n    /// @param _chainId The Zorro Chain ID (not the LayerZero one)\n    /// @param _dstContract The destination contract address on the remote chain\n    /// @param _pid The pool ID on the remote chain\n    /// @param _valueUSDC The amount of USDC to deposit\n    /// @param _weeksCommitted Number of weeks to commit to a vault\n    /// @param _maxMarketMovement Acceptable degree of slippage on any transaction (e.g. 950 = 5%, 990 = 1% etc.)\n    /// @param _destWallet A valid address on the remote chain that can claim ownership\n    /// @return uint256 Expected fee to pay for bridging/cross chain execution\n    function checkXChainDepositFee(\n        uint256 _chainId,\n        bytes memory _dstContract,\n        uint256 _pid,\n        uint256 _valueUSDC,\n        uint256 _weeksCommitted,\n        uint256 _maxMarketMovement,\n        bytes memory _destWallet\n    ) external view returns (uint256) {\n        // Init empty LZ object\n        IStargateRouter.lzTxObj memory _lzTxParams;\n\n        // Get payload\n        bytes memory _payload = _encodeXChainDepositPayload(\n            _pid,\n            _valueUSDC,\n            _weeksCommitted,\n            _maxMarketMovement,\n            msg.sender,\n            _destWallet\n        );\n\n        // Calculate native gas fee and ZRO token fee (Layer Zero token)\n        (uint256 _nativeFee, uint256 _lzFee) = IStargateRouter(stargateRouter)\n            .quoteLayerZeroFee(\n                ZorroChainToLZMap[_chainId],\n                1,\n                _dstContract,\n                _payload,\n                _lzTxParams\n            );\n        // TODO: Q: Is it the sum of these fees or just one?\n        return _nativeFee.add(_lzFee);\n    }\n\n    /* Payload encoding */\n\n    /// @notice Encodes payload for making cross chan deposit\n    /// @param _pid Pool ID on remote chain\n    /// @param _valueUSDC Amount in USDC to deposit\n    /// @param _weeksCommitted Number of weeks to commit deposit for in vault\n    /// @param _maxMarketMovement Slippage parameter (e.g. 950 = 5%, 990 = 1%, etc.)\n    /// @param _originWallet Wallet address on origin chain that will be depositing funds cross chain.\n    /// @param _destWallet Optional wallet address on destination chain that will be receiving deposit. If not provided, will use a truncated address based on the _originWallet\n    /// @return bytes ABI encoded payload\n    function _encodeXChainDepositPayload(\n        uint256 _pid,\n        uint256 _valueUSDC,\n        uint256 _weeksCommitted,\n        uint256 _maxMarketMovement,\n        address _originWallet,\n        bytes memory _destWallet\n    ) internal pure returns (bytes memory) {\n        // Calculate method signature\n        bytes4 _sig = this.receiveXChainDepositRequest.selector;\n        // Calculate abi encoded bytes for input args\n        bytes memory _inputs = abi.encode(\n            _pid,\n            _valueUSDC,\n            _weeksCommitted,\n            _maxMarketMovement,\n            _originWallet,\n            _destWallet\n        );\n        // Concatenate bytes of signature and inputs\n        return bytes.concat(_sig, _inputs);\n    }\n\n    /* Sending */\n\n    /// @notice Prepares and sends a cross chain deposit request. Takes care of necessary financial ops (transfer/locking USDC)\n    /// @dev Requires appropriate fee to be paid via msg.value (use checkXChainDepositFee() above)\n    /// @param _zorroChainId The Zorro Chain ID (not the LayerZero one)\n    /// @param _pid The pool ID on the remote chain\n    /// @param _valueUSDC The amount of USDC to deposit\n    /// @param _weeksCommitted Number of weeks to commit to a vault\n    /// @param _maxMarketMovement Acceptable degree of slippage on any transaction (e.g. 950 = 5%, 990 = 1% etc.)\n    /// @param _destWallet A valid address on the remote chain that can claim ownership\n    function sendXChainDepositRequest(\n        uint256 _zorroChainId,\n        uint256 _pid,\n        uint256 _valueUSDC,\n        uint256 _weeksCommitted,\n        uint256 _maxMarketMovement,\n        bytes memory _destWallet\n    ) external payable nonReentrant {\n        // Require funds to be submitted with this message\n        require(msg.value > 0, \"No fees submitted\");\n\n        // Allow this contract to spend USDC\n        IERC20(defaultStablecoin).safeIncreaseAllowance(\n            address(this),\n            _valueUSDC\n        );\n\n        // Transfer USDC into this contract\n        IERC20(defaultStablecoin).safeTransferFrom(\n            msg.sender,\n            address(this),\n            _valueUSDC\n        );\n\n        // Check balances\n        uint256 _balUSDC = IERC20(defaultStablecoin).balanceOf(address(this));\n\n        // Generate payload\n        bytes memory _payload = _encodeXChainDepositPayload(\n            _pid,\n            _balUSDC,\n            _weeksCommitted,\n            _maxMarketMovement,\n            msg.sender,\n            _destWallet\n        );\n\n        // Get the destination contract address on the remote chain\n        bytes memory _dstContract = controllerContractsMap[_zorroChainId];\n\n        // Call stargate to initiate bridge\n        _callStargateSwap(\n            StargateSwapPayload({\n                chainId: _zorroChainId,\n                qty: _balUSDC,\n                dstContract: _dstContract,\n                payload: _payload,\n                maxMarketMovement: _maxMarketMovement\n            })\n        );\n    }\n\n    /* Receiving */\n\n    /// @notice Dummy func to allow .selector call above and guarantee typesafety for abi calls.\n    /// @dev Should never ever be actually called.\n    function receiveXChainDepositRequest(\n        uint256 _pid,\n        uint256 _valueUSDC,\n        uint256 _weeksCommitted,\n        uint256 _maxMarketMovement,\n        bytes memory _originAccount,\n        address _destAccount\n    ) public {\n        // Revert to make sure this function never gets called\n        revert(\"illegal dummy func call\");\n\n        // But still include the function call here anyway to satisfy type safety requirements in case there is a change\n        _receiveXChainDepositRequest(\n            _pid,\n            _valueUSDC,\n            _weeksCommitted,\n            block.timestamp,\n            _maxMarketMovement,\n            _originAccount,\n            _destAccount\n        );\n    }\n\n    /// @notice Receives a cross chain deposit request from the contract layer of the XchainEndpoint contract\n    /// @dev For params, see _depositFullService() function declaration above\n    /// @param _pid The pool ID on the remote chain\n    /// @param _valueUSDC The amount of USDC to deposit\n    /// @param _weeksCommitted Number of weeks to commit to a vault\n    /// @param _maxMarketMovement Acceptable degree of slippage on any transaction (e.g. 950 = 5%, 990 = 1% etc.)\n    /// @param _originAccount The address on the origin chain to associate the deposit with (mandatory)\n    /// @param _destAccount The address on the current chain to additionally associate the deposit with (allows on-chain withdrawals of the deposit) (if not provided, will truncate origin address to uint160 i.e. Solidity address type)\n    function _receiveXChainDepositRequest(\n        uint256 _pid,\n        uint256 _valueUSDC,\n        uint256 _weeksCommitted,\n        uint256 _vaultEnteredAt,\n        uint256 _maxMarketMovement,\n        bytes memory _originAccount,\n        address _destAccount\n    ) internal {\n        // Call deposit function\n        _depositFullService(\n            _pid,\n            _destAccount,\n            _originAccount,\n            _valueUSDC,\n            _weeksCommitted,\n            _vaultEnteredAt,\n            _maxMarketMovement\n        );\n    }\n}",
  "sourcePath": "/Users/kristophm/Documents/workspace/zorro-protocol/contracts/controllers/_ZorroControllerXChainDeposit.sol",
  "compiler": {
    "name": "solc",
    "version": "0.8.10+commit.fc410830.Emscripten.clang"
  },
  "schemaVersion": "3.4.4",
  "updatedAt": "2022-04-04T14:16:28.840Z",
  "devdoc": {
    "kind": "dev",
    "methods": {
      "checkXChainDepositFee(uint256,bytes,uint256,uint256,uint256,uint256,bytes)": {
        "params": {
          "_chainId": "The Zorro Chain ID (not the LayerZero one)",
          "_destWallet": "A valid address on the remote chain that can claim ownership",
          "_dstContract": "The destination contract address on the remote chain",
          "_maxMarketMovement": "Acceptable degree of slippage on any transaction (e.g. 950 = 5%, 990 = 1% etc.)",
          "_pid": "The pool ID on the remote chain",
          "_valueUSDC": "The amount of USDC to deposit",
          "_weeksCommitted": "Number of weeks to commit to a vault"
        },
        "returns": {
          "_0": "uint256 Expected fee to pay for bridging/cross chain execution"
        }
      },
      "deposit(uint256,uint256,uint256)": {
        "params": {
          "_pid": "index of pool",
          "_wantAmt": "how much Want token to deposit",
          "_weeksCommitted": "how many weeks the user is committing to on this vault"
        }
      },
      "depositFullService(uint256,uint256,uint256,uint256)": {
        "params": {
          "_maxMarketMovement": "factor to account for max market movement/slippage. The definition varies by Vault, so consult the associated Vault contract for info",
          "_pid": "index of pool to deposit into",
          "_valueUSDC": "value in USDC (in ether units) to deposit",
          "_weeksCommitted": "how many weeks to commit to the Pool (can be 0 or any uint)"
        }
      },
      "getTimeMultiplier(uint256)": {
        "params": {
          "durationInWeeks": "number of weeks committed into Vault"
        },
        "returns": {
          "_0": "multiplier factor, times 1e12"
        }
      },
      "getUserContribution(uint256,uint256)": {
        "params": {
          "_liquidityCommitted": "How many tokens staked (e.g. LP tokens)",
          "_timeMultiplier": "Time multiplier value (from getTimeMultiplier())"
        },
        "returns": {
          "_0": "The relative contribution of the user (unitless)"
        }
      },
      "inCaseTokensGetStuck(address,uint256)": {
        "details": "Does not permit usage for the Zorro token",
        "params": {
          "_amount": "token quantity",
          "_token": "ERC20 token address"
        }
      },
      "owner()": {
        "details": "Returns the address of the current owner."
      },
      "poolLength()": {
        "returns": {
          "_0": "Number of pools"
        }
      },
      "receiveXChainDepositRequest(uint256,uint256,uint256,uint256,bytes,address)": {
        "details": "Should never ever be actually called."
      },
      "renounceOwnership()": {
        "details": "Leaves the contract without owner. It will not be possible to call `onlyOwner` functions anymore. Can only be called by the current owner. NOTE: Renouncing ownership will leave the contract without an owner, thereby removing any functionality that is only available to the owner."
      },
      "sendXChainDepositRequest(uint256,uint256,uint256,uint256,uint256,bytes)": {
        "details": "Requires appropriate fee to be paid via msg.value (use checkXChainDepositFee() above)",
        "params": {
          "_destWallet": "A valid address on the remote chain that can claim ownership",
          "_maxMarketMovement": "Acceptable degree of slippage on any transaction (e.g. 950 = 5%, 990 = 1% etc.)",
          "_pid": "The pool ID on the remote chain",
          "_valueUSDC": "The amount of USDC to deposit",
          "_weeksCommitted": "Number of weeks to commit to a vault",
          "_zorroChainId": "The Zorro Chain ID (not the LayerZero one)"
        }
      },
      "setZorroPerBlock(uint256,uint256,uint256,uint256,uint256)": {
        "details": "Values to be provided by Oracle. Perferable to run daily",
        "params": {
          "_ZorroTotalVaultTVLUSD": "USD value of all TVL locked into the Zorro protocol, across all chains",
          "_publicPoolZORBalance": "Number of ZOR tokens remaining in public pool on home chain",
          "_targetTVLCaptureBasisPoints": "% desired capture of total market TVL, measured in basis points",
          "_totalChainMultipliers": "Sum total of all chain multipliers for each chain",
          "_totalMarketTVLUSD": "Total DeFi market TVL across all chains (measured in USD)"
        }
      },
      "trancheLength(uint256,address)": {
        "params": {
          "_pid": "Index of pool",
          "_user": "wallet address of user"
        },
        "returns": {
          "_0": "Number of tranches"
        }
      },
      "transferInvestment(uint256,uint256,uint256,uint256)": {
        "params": {
          "_fromPid": "index of pool FROM",
          "_fromTrancheId": "index of tranche FROM",
          "_maxMarketMovement": "factor to account for max market movement/slippage. The definition varies by Vault, so consult the associated Vault contract for info",
          "_toPid": "index of pool TO"
        }
      },
      "transferOwnership(address)": {
        "details": "Transfers ownership of the contract to a new account (`newOwner`). Can only be called by the current owner."
      },
      "updatePool(uint256)": {
        "params": {
          "_pid": "index of pool"
        },
        "returns": {
          "_0": "uint256 Amount of ZOR rewards minted (useful for cross chain)"
        }
      },
      "withdraw(uint256,uint256,bool)": {
        "params": {
          "_harvestOnly": "If true, will only harvest Zorro tokens but not do a withdrawal",
          "_pid": "index of pool",
          "_trancheId": "index of tranche"
        },
        "returns": {
          "_0": "Amount of Want token withdrawn"
        }
      },
      "withdrawAll(uint256)": {
        "params": {
          "_pid": "index of pool"
        }
      },
      "withdrawalFullService(uint256,uint256,bool,uint256)": {
        "params": {
          "_harvestOnly": "If true, will only harvest Zorro tokens but not do a withdrawal",
          "_maxMarketMovement": "factor to account for max market movement/slippage. The definition varies by Vault, so consult the associated Vault contract for info",
          "_pid": "index of pool to deposit into",
          "_trancheId": "index of tranche"
        },
        "returns": {
          "_0": "Amount (in USDC) returned"
        }
      }
    },
    "version": 1
  },
  "userdoc": {
    "kind": "user",
    "methods": {
      "checkXChainDepositFee(uint256,bytes,uint256,uint256,uint256,uint256,bytes)": {
        "notice": "Checks to see how much a cross chain deposit will cost"
      },
      "deposit(uint256,uint256,uint256)": {
        "notice": "Deposit Want tokens to associated Vault"
      },
      "depositFullService(uint256,uint256,uint256,uint256)": {
        "notice": "Deposits funds in a full service manner (performs autoswaps and obtains Want tokens)"
      },
      "getTimeMultiplier(uint256)": {
        "notice": "Calculate time multiplier based on duration committed"
      },
      "getUserContribution(uint256,uint256)": {
        "notice": "The contribution of the user, meant to be used in rewards allocations"
      },
      "inCaseTokensGetStuck(address,uint256)": {
        "notice": "For owner to recover ERC20 tokens on this contract if stuck"
      },
      "poolLength()": {
        "notice": "Number of pools in the Zorro protocol"
      },
      "receiveXChainDepositRequest(uint256,uint256,uint256,uint256,bytes,address)": {
        "notice": "Dummy func to allow .selector call above and guarantee typesafety for abi calls."
      },
      "sendXChainDepositRequest(uint256,uint256,uint256,uint256,uint256,bytes)": {
        "notice": "Prepares and sends a cross chain deposit request. Takes care of necessary financial ops (transfer/locking USDC)"
      },
      "setZorroPerBlock(uint256,uint256,uint256,uint256,uint256)": {
        "notice": "Set the number of Zorro to emit per block based on current market parameters"
      },
      "trancheLength(uint256,address)": {
        "notice": "Number of tranches invested by a given user into a given pool"
      },
      "transferInvestment(uint256,uint256,uint256,uint256)": {
        "notice": "Transfer all assets from a tranche in one vault to a new vault (works on-chain only)"
      },
      "updatePool(uint256)": {
        "notice": "Update reward variables of the given pool to be up-to-date."
      },
      "withdraw(uint256,uint256,bool)": {
        "notice": "Fully withdraw Want tokens from underlying Vault."
      },
      "withdrawAll(uint256)": {
        "notice": "Withdraw the maximum number of Want tokens from a pool"
      },
      "withdrawalFullService(uint256,uint256,bool,uint256)": {
        "notice": "Withdraws funds from a pool and converts the Want token into USDC"
      }
    },
    "version": 1
  }
}