{
  "contractName": "ZorroControllerXChainEarn",
  "abi": [
    {
      "anonymous": false,
      "inputs": [
        {
          "indexed": true,
          "internalType": "address",
          "name": "previousOwner",
          "type": "address"
        },
        {
          "indexed": true,
          "internalType": "address",
          "name": "newOwner",
          "type": "address"
        }
      ],
      "name": "OwnershipTransferred",
      "type": "event"
    },
    {
      "anonymous": false,
      "inputs": [
        {
          "indexed": true,
          "internalType": "uint256",
          "name": "_amountZOR",
          "type": "uint256"
        }
      ],
      "name": "RemovedSlashedRewards",
      "type": "event"
    },
    {
      "anonymous": false,
      "inputs": [
        {
          "indexed": true,
          "internalType": "uint256",
          "name": "_remoteChainId",
          "type": "uint256"
        },
        {
          "indexed": true,
          "internalType": "uint256",
          "name": "_buybackAmountUSDC",
          "type": "uint256"
        },
        {
          "indexed": true,
          "internalType": "uint256",
          "name": "_revShareAmountUSDC",
          "type": "uint256"
        }
      ],
      "name": "XChainDistributeEarnings",
      "type": "event"
    },
    {
      "inputs": [
        {
          "internalType": "uint16",
          "name": "",
          "type": "uint16"
        }
      ],
      "name": "LZChainToZorroMap",
      "outputs": [
        {
          "internalType": "uint256",
          "name": "",
          "type": "uint256"
        }
      ],
      "stateMutability": "view",
      "type": "function"
    },
    {
      "inputs": [
        {
          "internalType": "uint256",
          "name": "",
          "type": "uint256"
        }
      ],
      "name": "USDCToZorroLPPoolOtherTokenPath",
      "outputs": [
        {
          "internalType": "address",
          "name": "",
          "type": "address"
        }
      ],
      "stateMutability": "view",
      "type": "function"
    },
    {
      "inputs": [
        {
          "internalType": "uint256",
          "name": "",
          "type": "uint256"
        }
      ],
      "name": "USDCToZorroPath",
      "outputs": [
        {
          "internalType": "address",
          "name": "",
          "type": "address"
        }
      ],
      "stateMutability": "view",
      "type": "function"
    },
    {
      "inputs": [],
      "name": "ZORRO",
      "outputs": [
        {
          "internalType": "address",
          "name": "",
          "type": "address"
        }
      ],
      "stateMutability": "view",
      "type": "function"
    },
    {
      "inputs": [
        {
          "internalType": "uint256",
          "name": "",
          "type": "uint256"
        }
      ],
      "name": "ZorroChainToLZMap",
      "outputs": [
        {
          "internalType": "uint16",
          "name": "",
          "type": "uint16"
        }
      ],
      "stateMutability": "view",
      "type": "function"
    },
    {
      "inputs": [],
      "name": "accumulatedSlashedRewards",
      "outputs": [
        {
          "internalType": "uint256",
          "name": "",
          "type": "uint256"
        }
      ],
      "stateMutability": "view",
      "type": "function"
    },
    {
      "inputs": [],
      "name": "burnAddress",
      "outputs": [
        {
          "internalType": "address",
          "name": "",
          "type": "address"
        }
      ],
      "stateMutability": "view",
      "type": "function"
    },
    {
      "inputs": [
        {
          "internalType": "uint256",
          "name": "",
          "type": "uint256"
        }
      ],
      "name": "controllerContractsMap",
      "outputs": [
        {
          "internalType": "bytes",
          "name": "",
          "type": "bytes"
        }
      ],
      "stateMutability": "view",
      "type": "function"
    },
    {
      "inputs": [],
      "name": "currentChainController",
      "outputs": [
        {
          "internalType": "address",
          "name": "",
          "type": "address"
        }
      ],
      "stateMutability": "view",
      "type": "function"
    },
    {
      "inputs": [],
      "name": "defaultStablecoin",
      "outputs": [
        {
          "internalType": "address",
          "name": "",
          "type": "address"
        }
      ],
      "stateMutability": "view",
      "type": "function"
    },
    {
      "inputs": [],
      "name": "homeChainZorroController",
      "outputs": [
        {
          "internalType": "address",
          "name": "",
          "type": "address"
        }
      ],
      "stateMutability": "view",
      "type": "function"
    },
    {
      "inputs": [],
      "name": "layerZeroEndpoint",
      "outputs": [
        {
          "internalType": "address",
          "name": "",
          "type": "address"
        }
      ],
      "stateMutability": "view",
      "type": "function"
    },
    {
      "inputs": [],
      "name": "owner",
      "outputs": [
        {
          "internalType": "address",
          "name": "",
          "type": "address"
        }
      ],
      "stateMutability": "view",
      "type": "function"
    },
    {
      "inputs": [],
      "name": "priceFeedLPPoolOtherToken",
      "outputs": [
        {
          "internalType": "contract AggregatorV3Interface",
          "name": "",
          "type": "address"
        }
      ],
      "stateMutability": "view",
      "type": "function"
    },
    {
      "inputs": [],
      "name": "priceFeedZOR",
      "outputs": [
        {
          "internalType": "contract AggregatorV3Interface",
          "name": "",
          "type": "address"
        }
      ],
      "stateMutability": "view",
      "type": "function"
    },
    {
      "inputs": [],
      "name": "publicPool",
      "outputs": [
        {
          "internalType": "address",
          "name": "",
          "type": "address"
        }
      ],
      "stateMutability": "view",
      "type": "function"
    },
    {
      "inputs": [],
      "name": "renounceOwnership",
      "outputs": [],
      "stateMutability": "nonpayable",
      "type": "function"
    },
    {
      "inputs": [
        {
          "internalType": "uint256[]",
          "name": "_chainIds",
          "type": "uint256[]"
        }
      ],
      "name": "setChains",
      "outputs": [],
      "stateMutability": "nonpayable",
      "type": "function"
    },
    {
      "inputs": [
        {
          "internalType": "uint256",
          "name": "_zorroChainId",
          "type": "uint256"
        },
        {
          "internalType": "bytes",
          "name": "_controller",
          "type": "bytes"
        }
      ],
      "name": "setControllerContract",
      "outputs": [],
      "stateMutability": "nonpayable",
      "type": "function"
    },
    {
      "inputs": [
        {
          "internalType": "address[]",
          "name": "_contracts",
          "type": "address[]"
        }
      ],
      "name": "setKeyContracts",
      "outputs": [],
      "stateMutability": "nonpayable",
      "type": "function"
    },
    {
      "inputs": [
        {
          "internalType": "address",
          "name": "_stargateRouter",
          "type": "address"
        },
        {
          "internalType": "uint256",
          "name": "_stargateSwapPoolId",
          "type": "uint256"
        },
        {
          "internalType": "address",
          "name": "_layerZeroEndpoint",
          "type": "address"
        }
      ],
      "name": "setLayerZeroParams",
      "outputs": [],
      "stateMutability": "nonpayable",
      "type": "function"
    },
    {
      "inputs": [
        {
          "internalType": "uint256",
          "name": "_zorroChainId",
          "type": "uint256"
        },
        {
          "internalType": "uint16",
          "name": "_stargatePoolId",
          "type": "uint16"
        }
      ],
      "name": "setStargateDestPoolIds",
      "outputs": [],
      "stateMutability": "nonpayable",
      "type": "function"
    },
    {
      "inputs": [
        {
          "internalType": "address[]",
          "name": "_tokens",
          "type": "address[]"
        }
      ],
      "name": "setTokens",
      "outputs": [],
      "stateMutability": "nonpayable",
      "type": "function"
    },
    {
      "inputs": [
        {
          "internalType": "uint256",
          "name": "_zorroChainId",
          "type": "uint256"
        },
        {
          "internalType": "uint16",
          "name": "_lzChainId",
          "type": "uint16"
        }
      ],
      "name": "setZorroChainToLZMap",
      "outputs": [],
      "stateMutability": "nonpayable",
      "type": "function"
    },
    {
      "inputs": [
        {
          "internalType": "uint256",
          "name": "",
          "type": "uint256"
        }
      ],
      "name": "stargateDestPoolIds",
      "outputs": [
        {
          "internalType": "uint256",
          "name": "",
          "type": "uint256"
        }
      ],
      "stateMutability": "view",
      "type": "function"
    },
    {
      "inputs": [],
      "name": "stargateRouter",
      "outputs": [
        {
          "internalType": "address",
          "name": "",
          "type": "address"
        }
      ],
      "stateMutability": "view",
      "type": "function"
    },
    {
      "inputs": [],
      "name": "stargateSwapPoolId",
      "outputs": [
        {
          "internalType": "uint256",
          "name": "",
          "type": "uint256"
        }
      ],
      "stateMutability": "view",
      "type": "function"
    },
    {
      "inputs": [],
      "name": "tokenUSDC",
      "outputs": [
        {
          "internalType": "address",
          "name": "",
          "type": "address"
        }
      ],
      "stateMutability": "view",
      "type": "function"
    },
    {
      "inputs": [
        {
          "internalType": "address",
          "name": "newOwner",
          "type": "address"
        }
      ],
      "name": "transferOwnership",
      "outputs": [],
      "stateMutability": "nonpayable",
      "type": "function"
    },
    {
      "inputs": [],
      "name": "uniRouterAddress",
      "outputs": [
        {
          "internalType": "address",
          "name": "",
          "type": "address"
        }
      ],
      "stateMutability": "view",
      "type": "function"
    },
    {
      "inputs": [],
      "name": "zorroLPPoolOtherToken",
      "outputs": [
        {
          "internalType": "address",
          "name": "",
          "type": "address"
        }
      ],
      "stateMutability": "view",
      "type": "function"
    },
    {
      "inputs": [],
      "name": "zorroStakingVault",
      "outputs": [
        {
          "internalType": "address",
          "name": "",
          "type": "address"
        }
      ],
      "stateMutability": "view",
      "type": "function"
    },
    {
      "inputs": [
        {
          "internalType": "address",
          "name": "_token",
          "type": "address"
        }
      ],
      "name": "setTokenUSDC",
      "outputs": [],
      "stateMutability": "nonpayable",
      "type": "function"
    },
    {
      "inputs": [
        {
          "internalType": "address",
          "name": "_token",
          "type": "address"
        }
      ],
      "name": "setZorroLPPoolOtherToken",
      "outputs": [],
      "stateMutability": "nonpayable",
      "type": "function"
    },
    {
      "inputs": [
        {
          "internalType": "address",
          "name": "_contract",
          "type": "address"
        }
      ],
      "name": "setZorroStakingVault",
      "outputs": [],
      "stateMutability": "nonpayable",
      "type": "function"
    },
    {
      "inputs": [
        {
          "internalType": "address",
          "name": "_contract",
          "type": "address"
        }
      ],
      "name": "setUniRouterAddress",
      "outputs": [],
      "stateMutability": "nonpayable",
      "type": "function"
    },
    {
      "inputs": [
        {
          "internalType": "address[]",
          "name": "_USDCToZorroPath",
          "type": "address[]"
        },
        {
          "internalType": "address[]",
          "name": "_USDCToZorroLPPoolOtherTokenPath",
          "type": "address[]"
        }
      ],
      "name": "setSwapPaths",
      "outputs": [],
      "stateMutability": "nonpayable",
      "type": "function"
    },
    {
      "inputs": [
        {
          "internalType": "address[]",
          "name": "_priceFeeds",
          "type": "address[]"
        }
      ],
      "name": "setPriceFeeds",
      "outputs": [],
      "stateMutability": "nonpayable",
      "type": "function"
    },
    {
      "inputs": [
        {
          "internalType": "uint256",
          "name": "_amountUSDCBuyback",
          "type": "uint256"
        },
        {
          "internalType": "uint256",
          "name": "_amountUSDCRevShare",
          "type": "uint256"
        },
        {
          "internalType": "uint256",
          "name": "_accSlashedRewards",
          "type": "uint256"
        },
        {
          "internalType": "uint256",
          "name": "_maxMarketMovement",
          "type": "uint256"
        }
      ],
      "name": "checkXChainDistributeEarningsFee",
      "outputs": [
        {
          "internalType": "uint256",
          "name": "",
          "type": "uint256"
        }
      ],
      "stateMutability": "view",
      "type": "function"
    },
    {
      "inputs": [
        {
          "internalType": "uint256",
          "name": "_pid",
          "type": "uint256"
        },
        {
          "internalType": "uint256",
          "name": "_buybackAmountUSDC",
          "type": "uint256"
        },
        {
          "internalType": "uint256",
          "name": "_revShareAmountUSDC",
          "type": "uint256"
        },
        {
          "internalType": "uint256",
          "name": "_maxMarketMovement",
          "type": "uint256"
        }
      ],
      "name": "sendXChainDistributeEarningsRequest",
      "outputs": [],
      "stateMutability": "payable",
      "type": "function"
    },
    {
      "inputs": [
        {
          "internalType": "uint256",
          "name": "_remoteChainId",
          "type": "uint256"
        },
        {
          "internalType": "uint256",
          "name": "_amountUSDCBuyback",
          "type": "uint256"
        },
        {
          "internalType": "uint256",
          "name": "_amountUSDCRevShare",
          "type": "uint256"
        },
        {
          "internalType": "uint256",
          "name": "_accSlashedRewards",
          "type": "uint256"
        },
        {
          "internalType": "uint256",
          "name": "_maxMarketMovement",
          "type": "uint256"
        }
      ],
      "name": "receiveXChainDistributionRequest",
      "outputs": [],
      "stateMutability": "nonpayable",
      "type": "function"
    }
  ],
  "bytecode": "0x608060405234801561001057600080fd5b50612272806100206000396000f3fe608060405260043610610263576000357c010000000000000000000000000000000000000000000000000000000090048063715018a611610156578063a9e56f3c116100d3578063cd01af4811610097578063cd01af4814610712578063e53ac0df14610732578063e940f6e114610752578063ebfba7c414610768578063f2fde38b14610788578063fc39a29e146107a857600080fd5b8063a9e56f3c14610672578063b22f325114610692578063b61bb80a146106b2578063c86d4040146106d2578063c9522cf1146106f257600080fd5b80638c157db21161011a5780638c157db2146105d45780638da5cb5b146105f4578063959334f4146106125780639a448c0c14610632578063a4d2b0831461065257600080fd5b8063715018a61461053f57806379777d81146105545780637bd45522146105745780637f633ea8146105945780638b5694d6146105b457600080fd5b80634bf76174116101e4578063625adaf2116101a8578063625adaf2146104a9578063668ababb146104c9578063693a090b146104e95780636ca8bd651461050957806370d5ae051461052957600080fd5b80634bf76174146104065780635175ce1b146104265780635790f59914610446578063593af9fe1461045c5780635da79d631461048957600080fd5b806325b438301161022b57806325b4383014610342578063293da9d414610362578063459f47531461038f578063464e3c8b146103d3578063487c3868146103e657600080fd5b806307968db114610268578063104a6132146102a557806313a2e880146102c557806315230ae6146102e7578063219b38b814610307575b600080fd5b34801561027457600080fd5b5060a45461028890600160a060020a031681565b604051600160a060020a0390911681526020015b60405180910390f35b3480156102b157600080fd5b506102886102c0366004611b9d565b6107c8565b3480156102d157600080fd5b506102e56102e0366004611bb6565b6107f2565b005b3480156102f357600080fd5b50609a5461028890600160a060020a031681565b34801561031357600080fd5b50610334610322366004611b9d565b60a36020526000908152604090205481565b60405190815260200161029c565b34801561034e57600080fd5b506102e561035d366004611c32565b610847565b34801561036e57600080fd5b5061033461037d366004611c84565b60a06020526000908152604090205481565b34801561039b57600080fd5b506103c06103aa366004611b9d565b609f6020526000908152604090205461ffff1681565b60405161ffff909116815260200161029c565b6102e56103e1366004611c9f565b610899565b3480156103f257600080fd5b506102e5610401366004611d1c565b610c0a565b34801561041257600080fd5b506102e5610421366004611d1c565b610ccb565b34801561043257600080fd5b506102e5610441366004611d5e565b610dd4565b34801561045257600080fd5b5061033460a25481565b34801561046857600080fd5b5061047c610477366004611b9d565b610e1a565b60405161029c9190611e22565b34801561049557600080fd5b506102e56104a4366004611e4a565b610eb4565b3480156104b557600080fd5b506102e56104c4366004611d1c565b610f03565b3480156104d557600080fd5b50609b5461028890600160a060020a031681565b3480156104f557600080fd5b5060a95461028890600160a060020a031681565b34801561051557600080fd5b506102e5610524366004611e4a565b610fc4565b34801561053557600080fd5b5061028861dead81565b34801561054b57600080fd5b506102e5611013565b34801561056057600080fd5b5060ad5461028890600160a060020a031681565b34801561058057600080fd5b506102e561058f366004611e67565b61104c565b3480156105a057600080fd5b506102e56105af366004611ea9565b6110ad565b3480156105c057600080fd5b506102e56105cf366004611ea9565b611109565b3480156105e057600080fd5b5060985461028890600160a060020a031681565b34801561060057600080fd5b50603354600160a060020a0316610288565b34801561061e57600080fd5b506102e561062d366004611e4a565b61114f565b34801561063e57600080fd5b5061028861064d366004611b9d565b61119e565b34801561065e57600080fd5b5060a85461028890600160a060020a031681565b34801561067e57600080fd5b5060a15461028890600160a060020a031681565b34801561069e57600080fd5b5060ac5461028890600160a060020a031681565b3480156106be57600080fd5b5060975461028890600160a060020a031681565b3480156106de57600080fd5b5060a65461028890600160a060020a031681565b3480156106fe57600080fd5b5061033461070d366004611c9f565b6111ae565b34801561071e57600080fd5b506102e561072d366004611d1c565b6112d0565b34801561073e57600080fd5b506102e561074d366004611e4a565b61133f565b34801561075e57600080fd5b5061033460a55481565b34801561077457600080fd5b5060a75461028890600160a060020a031681565b34801561079457600080fd5b506102e56107a3366004611e4a565b61138e565b3480156107b457600080fd5b5060995461028890600160a060020a031681565b60aa81815481106107d857600080fd5b600091825260209091200154600160a060020a0316905081565b603354600160a060020a031633146108285760405160e560020a62461bcd02815260040161081f90611ed5565b60405180910390fd5b6000838152609e60205260409020610841908383611ab1565b50505050565b60405160e560020a62461bcd02815260206004820152601760248201527f696c6c6567616c2064756d6d792066756e632063616c6c000000000000000000604482015260640161081f565b5050505050565b600260655414156108ef5760405160e560020a62461bcd02815260206004820152601f60248201527f5265656e7472616e637947756172643a207265656e7472616e742063616c6c00604482015260640161081f565b6002606555609a546040517f1526fe27000000000000000000000000000000000000000000000000000000008152600481018690528591600091600160a060020a0390911690631526fe279060240160c060405180830381865afa15801561095b573d6000803e3d6000fd5b505050506040513d601f19601f8201168201806040525081019061097f9190611f0a565b9550505050505080600160a060020a03166109973390565b600160a060020a0316146109f05760405160e560020a62461bcd02815260206004820152600e60248201527f6f6e6c7920726567207661756c74000000000000000000000000000000000000604482015260640161081f565b60003411610a435760405160e560020a62461bcd02815260206004820152601160248201527f4e6f2066656573207375626d6974746564000000000000000000000000000000604482015260640161081f565b6000610a4f868661144c565b609754909150610a6990600160a060020a0316308361145f565b609754610a8190600160a060020a03163330846115a0565b6097546040517f70a08231000000000000000000000000000000000000000000000000000000008152306004820152600091600160a060020a0316906370a0823190602401602060405180830381865afa158015610ae3573d6000803e3d6000fd5b505050506040513d601f19601f82011682018060405250810190610b079190611f6a565b90506000610b136115f1565b90506000610b26609c548a8a858b611627565b609c546000908152609e6020526040812080549293509091610b4790611f83565b80601f0160208091040260200160405190810160405280929190818152602001828054610b7390611f83565b8015610bc05780601f10610b9557610100808354040283529160200191610bc0565b820191906000526020600020905b815481529060010190602001808311610ba357829003601f168201915b50505050509050610bf86040518060a00160405280609d5481526020018681526020018381526020018481526020018a8152506116af565b50506001606555505050505050505050565b603354600160a060020a03163314610c375760405160e560020a62461bcd02815260040161081f90611ed5565b81816000818110610c4a57610c4a611fc1565b9050602002016020810190610c5f9190611e4a565b60ac8054600160a060020a031916600160a060020a039290921691909117905581816001818110610c9257610c92611fc1565b9050602002016020810190610ca79190611e4a565b60ad8054600160a060020a031916600160a060020a03929092169190911790555050565b603354600160a060020a03163314610cf85760405160e560020a62461bcd02815260040161081f90611ed5565b81816000818110610d0b57610d0b611fc1565b9050602002016020810190610d209190611e4a565b60998054600160a060020a031916600160a060020a039290921691909117905581816001818110610d5357610d53611fc1565b9050602002016020810190610d689190611e4a565b609a8054600160a060020a031916600160a060020a039290921691909117905581816002818110610d9b57610d9b611fc1565b9050602002016020810190610db09190611e4a565b609b8054600160a060020a031916600160a060020a03929092169190911790555050565b603354600160a060020a03163314610e015760405160e560020a62461bcd02815260040161081f90611ed5565b610e0d60aa8585611b35565b5061089260ab8383611b35565b609e6020526000908152604090208054610e3390611f83565b80601f0160208091040260200160405190810160405280929190818152602001828054610e5f90611f83565b8015610eac5780601f10610e8157610100808354040283529160200191610eac565b820191906000526020600020905b815481529060010190602001808311610e8f57829003601f168201915b505050505081565b603354600160a060020a03163314610ee15760405160e560020a62461bcd02815260040161081f90611ed5565b60a98054600160a060020a031916600160a060020a0392909216919091179055565b603354600160a060020a03163314610f305760405160e560020a62461bcd02815260040161081f90611ed5565b81816000818110610f4357610f43611fc1565b9050602002016020810190610f589190611e4a565b60978054600160a060020a031916600160a060020a039290921691909117905581816001818110610f8b57610f8b611fc1565b9050602002016020810190610fa09190611e4a565b60988054600160a060020a031916600160a060020a03929092169190911790555050565b603354600160a060020a03163314610ff15760405160e560020a62461bcd02815260040161081f90611ed5565b60a88054600160a060020a031916600160a060020a0392909216919091179055565b603354600160a060020a031633146110405760405160e560020a62461bcd02815260040161081f90611ed5565b61104a60006117b8565b565b603354600160a060020a031633146110795760405160e560020a62461bcd02815260040161081f90611ed5565b60a18054600160a060020a03948516600160a060020a03199182161790915560a29290925560a48054919093169116179055565b603354600160a060020a031633146110da5760405160e560020a62461bcd02815260040161081f90611ed5565b6000828152609f60209081526040808320805461ffff90951661ffff199095168517905592825260a090522055565b603354600160a060020a031633146111365760405160e560020a62461bcd02815260040161081f90611ed5565b600091825260a3602052604090912061ffff9091169055565b603354600160a060020a0316331461117c5760405160e560020a62461bcd02815260040161081f90611ed5565b60a78054600160a060020a031916600160a060020a0392909216919091179055565b60ab81815481106107d857600080fd5b60408051606080820183526000808352602083018190529282015260006111da609c5488888888611627565b609954604051600160a060020a039091166c0100000000000000000000000002602082015290915060009060340160408051601f1981840301815282825260a154609d546000908152609f602052928320547f0a5123690000000000000000000000000000000000000000000000000000000085529194509192600160a060020a0390921691630a512369916112829161ffff90911690600190879089908b90600401612003565b6040805180830381865afa15801561129e573d6000803e3d6000fd5b505050506040513d601f19601f820116820180604052508101906112c2919061205b565b509998505050505050505050565b603354600160a060020a031633146112fd5760405160e560020a62461bcd02815260040161081f90611ed5565b8181600081811061131057611310611fc1565b6020029190910135609c55508181600181811061132f5761132f611fc1565b6020029190910135609d55505050565b603354600160a060020a0316331461136c5760405160e560020a62461bcd02815260040161081f90611ed5565b60a68054600160a060020a031916600160a060020a0392909216919091179055565b603354600160a060020a031633146113bb5760405160e560020a62461bcd02815260040161081f90611ed5565b600160a060020a03811661143a5760405160e560020a62461bcd02815260206004820152602660248201527f4f776e61626c653a206e6577206f776e657220697320746865207a65726f206160448201527f6464726573730000000000000000000000000000000000000000000000000000606482015260840161081f565b611443816117b8565b50565b90611816565b60006114588284612098565b9392505050565b6040517fdd62ed3e000000000000000000000000000000000000000000000000000000008152306004820152600160a060020a038381166024830152600091839186169063dd62ed3e90604401602060405180830381865afa1580156114c9573d6000803e3d6000fd5b505050506040513d601f19601f820116820180604052508101906114ed9190611f6a565b6114f79190612098565b604051600160a060020a0385166024820152604481018290529091506108419085907f095ea7b300000000000000000000000000000000000000000000000000000000906064015b60408051601f198184030181529190526020810180517bffffffffffffffffffffffffffffffffffffffffffffffffffffffff167bffffffffffffffffffffffffffffffffffffffffffffffffffffffff1990931692909217909152611822565b604051600160a060020a03808516602483015283166044820152606481018290526108419085907f23b872dd000000000000000000000000000000000000000000000000000000009060840161153f565b60a55460405181907f18bd4bd6372d39482d375f68791749755bdb38e8768acbfb6af999cef1adc6e090600090a2600060a55590565b604080516020810187905280820186905260608082018690526080820185905260a08083018590528351808403909101815260c08301909352917f25b438300000000000000000000000000000000000000000000000000000000091611693908390839060e0016120b0565b6040516020818303038152906040529250505095945050505050565b6116d360405180606001604052806000815260200160008152602001606081525090565b60a15482516000908152609f602090815260408083205460a2548751855260a384529190932054918601516080870151600160a060020a0390951694639fbf10fc94349461ffff90911693929091339190611737906103e89061144690849061180a565b898b604001518c606001516040518b63ffffffff167c0100000000000000000000000000000000000000000000000000000000028152600401611782999897969594939291906120f5565b6000604051808303818588803b15801561179b57600080fd5b505af11580156117af573d6000803e3d6000fd5b50505050505050565b60338054600160a060020a03838116600160a060020a0319831681179093556040519116919082907f8be0079c531659141344cd1fd0a4f28419497f9722a3daafe3b4186f6b6457e090600090a35050565b60006114588284612173565b60006114588284612192565b6000611877826040518060400160405280602081526020017f5361666545524332303a206c6f772d6c6576656c2063616c6c206661696c656481525085600160a060020a031661190f9092919063ffffffff16565b80519091501561190a578080602001905181019061189591906121fe565b61190a5760405160e560020a62461bcd02815260206004820152602a60248201527f5361666545524332303a204552433230206f7065726174696f6e20646964206e60448201527f6f74207375636365656400000000000000000000000000000000000000000000606482015260840161081f565b505050565b606061191e8484600085611926565b949350505050565b606030318311156119a25760405160e560020a62461bcd02815260206004820152602660248201527f416464726573733a20696e73756666696369656e742062616c616e636520666f60448201527f722063616c6c0000000000000000000000000000000000000000000000000000606482015260840161081f565b600160a060020a0385163b6119fc5760405160e560020a62461bcd02815260206004820152601d60248201527f416464726573733a2063616c6c20746f206e6f6e2d636f6e7472616374000000604482015260640161081f565b60008086600160a060020a03168587604051611a189190612220565b60006040518083038185875af1925050503d8060008114611a55576040519150601f19603f3d011682016040523d82523d6000602084013e611a5a565b606091505b5091509150611a6a828286611a75565b979650505050505050565b60608315611a84575081611458565b825115611a945782518084602001fd5b8160405160e560020a62461bcd02815260040161081f9190611e22565b828054611abd90611f83565b90600052602060002090601f016020900481019282611adf5760008555611b25565b82601f10611af85782800160ff19823516178555611b25565b82800160010185558215611b25579182015b82811115611b25578235825591602001919060010190611b0a565b50611b31929150611b88565b5090565b828054828255906000526020600020908101928215611b25579160200282015b82811115611b25578154600160a060020a031916600160a060020a03843516178255602090920191600190910190611b55565b5b80821115611b315760008155600101611b89565b600060208284031215611baf57600080fd5b5035919050565b600080600060408486031215611bcb57600080fd5b83359250602084013567ffffffffffffffff80821115611bea57600080fd5b818601915086601f830112611bfe57600080fd5b813581811115611c0d57600080fd5b876020828501011115611c1f57600080fd5b6020830194508093505050509250925092565b600080600080600060a08688031215611c4a57600080fd5b505083359560208501359550604085013594606081013594506080013592509050565b803561ffff81168114611c7f57600080fd5b919050565b600060208284031215611c9657600080fd5b61145882611c6d565b60008060008060808587031215611cb557600080fd5b5050823594602084013594506040840135936060013592509050565b60008083601f840112611ce357600080fd5b50813567ffffffffffffffff811115611cfb57600080fd5b6020830191508360208083028501011115611d1557600080fd5b9250929050565b60008060208385031215611d2f57600080fd5b823567ffffffffffffffff811115611d4657600080fd5b611d5285828601611cd1565b90969095509350505050565b60008060008060408587031215611d7457600080fd5b843567ffffffffffffffff80821115611d8c57600080fd5b611d9888838901611cd1565b90965094506020870135915080821115611db157600080fd5b50611dbe87828801611cd1565b95989497509550505050565b60005b83811015611de5578181015183820152602001611dcd565b838111156108415750506000910152565b60008151808452611e0e816020860160208601611dca565b601f01601f19169290920160200192915050565b6020815260006114586020830184611df6565b600160a060020a038116811461144357600080fd5b600060208284031215611e5c57600080fd5b813561145881611e35565b600080600060608486031215611e7c57600080fd5b8335611e8781611e35565b9250602084013591506040840135611e9e81611e35565b809150509250925092565b60008060408385031215611ebc57600080fd5b82359150611ecc60208401611c6d565b90509250929050565b6020808252818101527f4f776e61626c653a2063616c6c6572206973206e6f7420746865206f776e6572604082015260600190565b60008060008060008060c08789031215611f2357600080fd5b8651611f2e81611e35565b809650506020870151945060408701519350606087015192506080870151915060a0870151611f5c81611e35565b809150509295509295509295565b600060208284031215611f7c57600080fd5b5051919050565b600281046001821680611f9757607f821691505b60208210811415611fbb5760e060020a634e487b7102600052602260045260246000fd5b50919050565b60e060020a634e487b7102600052603260045260246000fd5b8051825260208101516020830152600060408201516060604085015261191e6060850182611df6565b61ffff8616815260ff8516602082015260a06040820152600061202960a0830186611df6565b828103606084015261203b8186611df6565b9050828103608084015261204f8185611fda565b98975050505050505050565b6000806040838503121561206e57600080fd5b505080516020909101519092909150565b60e060020a634e487b7102600052601160045260246000fd5b600082198211156120ab576120ab61207f565b500190565b7bffffffffffffffffffffffffffffffffffffffffffffffffffffffff1983168152600082516120e7816004850160208701611dca565b919091016004019392505050565b600061012061ffff8c1683528a6020840152896040840152600160a060020a03891660608401528760808401528660a08401528060c084015261213a81840187611fda565b905082810360e084015261214e8186611df6565b90508281036101008401526121638185611df6565b9c9b505050505050505050505050565b600081600019048311821515161561218d5761218d61207f565b500290565b6000826121b25760e060020a634e487b7102600052601260045260246000fd5b500490565b818110156121d55784548416865294820194600194850194016121b7565b50505050600160a060020a03861660c08501525090508260e08301529998505050505050505050565b60006020828403121561221057600080fd5b8151801515811461145857600080fd5b60008251612232818460208701611dca565b919091019291505056fea2646970667358221220beefa7d16e43ab6470f78129ae2ea5b595c89a9512380b9df248859f09bf80d864736f6c634300080a0033",
  "immutableReferences": {},
  "source": "// SPDX-License-Identifier: MIT\n\npragma solidity ^0.8.0;\n\nimport \"./_ZorroControllerXChainBase.sol\";\n\nimport \"../interfaces/IZorroControllerXChain.sol\";\n\nimport \"../libraries/PriceFeed.sol\";\n\nimport \"../libraries/SafeSwap.sol\";\n\nimport \"../interfaces/IAMMRouter02.sol\";\n\ncontract ZorroControllerXChainEarn is\n    IZorroControllerXChainEarn,\n    ZorroControllerXChainBase\n{\n    /* Libraries */\n    using SafeMath for uint256;\n    using SafeERC20 for IERC20;\n    using SafeSwapUni for IAMMRouter02;\n    using PriceFeed for AggregatorV3Interface;\n\n    /* Modifiers */\n\n    /// @notice Only can be called from a registered vault\n    /// @param _pid The pool ID\n    modifier onlyRegisteredVault(uint256 _pid) {\n        (, , , , , address _vault) = ZorroControllerInvestment(\n            currentChainController\n        ).poolInfo(_pid);\n        require(_msgSender() == _vault, \"only reg vault\");\n        _;\n    }\n\n    /* Events */\n\n    event XChainDistributeEarnings(\n        uint256 indexed _remoteChainId,\n        uint256 indexed _buybackAmountUSDC,\n        uint256 indexed _revShareAmountUSDC\n    );\n\n    event RemovedSlashedRewards(uint256 indexed _amountZOR);\n\n    /* Constants */\n    address public constant burnAddress =\n        0x000000000000000000000000000000000000dEaD; // Address to send funds to, to burn them\n\n    /* State */\n\n    uint256 public accumulatedSlashedRewards; // Accumulated ZOR rewards that need to be minted in batch on the home chain. Should reset to zero periodically\n    // TODO: Constructor, setter\n    // Tokens\n    address public tokenUSDC;\n    address public zorroLPPoolOtherToken;\n    // Contracts\n    address public zorroStakingVault;\n    address public uniRouterAddress;\n    // Paths\n    address[] public USDCToZorroPath;\n    address[] public USDCToZorroLPPoolOtherTokenPath;\n    // Price feeds\n    AggregatorV3Interface public priceFeedZOR;\n    AggregatorV3Interface public priceFeedLPPoolOtherToken;\n\n    /* Setters */\n\n    function setTokenUSDC(address _token) external onlyOwner {\n        tokenUSDC = _token;\n    }\n\n    function setZorroLPPoolOtherToken(address _token) external onlyOwner {\n        zorroLPPoolOtherToken = _token;\n    }\n\n    function setZorroStakingVault(address _contract) external onlyOwner {\n        zorroStakingVault = _contract;\n    }\n\n    function setUniRouterAddress(address _contract) external onlyOwner {\n        uniRouterAddress = _contract;\n    }\n\n    function setSwapPaths(\n        address[] calldata _USDCToZorroPath,\n        address[] calldata _USDCToZorroLPPoolOtherTokenPath\n    ) external onlyOwner {\n        USDCToZorroPath = _USDCToZorroPath;\n        USDCToZorroLPPoolOtherTokenPath = _USDCToZorroLPPoolOtherTokenPath;\n    }\n\n    function setPriceFeeds(address[] calldata _priceFeeds) external onlyOwner {\n        priceFeedZOR = AggregatorV3Interface(_priceFeeds[0]);\n        priceFeedLPPoolOtherToken = AggregatorV3Interface(_priceFeeds[1]);\n    }\n\n    /* Fees */\n\n    /// @notice Checks to see how much a cross chain earnings distribution will cost\n    /// @param _amountUSDCBuyback Amount of USDC to buy back\n    /// @param _amountUSDCRevShare Amount of USDC to rev share with ZOR single staking vault\n    /// @param _accSlashedRewards Accumulated slashed rewards on chain\n    /// @return uint256 Quantity of native token as fees\n    /// @param _maxMarketMovement factor to account for max market movement/slippage.\n    function checkXChainDistributeEarningsFee(\n        uint256 _amountUSDCBuyback,\n        uint256 _amountUSDCRevShare,\n        uint256 _accSlashedRewards,\n        uint256 _maxMarketMovement\n    ) external view returns (uint256) {\n        // Init empty LZ object\n        IStargateRouter.lzTxObj memory _lzTxParams;\n\n        // Get payload\n        bytes memory _payload = _encodeXChainDistributeEarningsPayload(\n            chainId,\n            _amountUSDCBuyback,\n            _amountUSDCRevShare,\n            _accSlashedRewards,\n            _maxMarketMovement\n        );\n        bytes memory _dstContract = abi.encodePacked(homeChainZorroController);\n\n        // Calculate native gas fee and ZRO token fee (Layer Zero token)\n        (uint256 _nativeFee, ) = IStargateRouter(stargateRouter)\n            .quoteLayerZeroFee(\n                ZorroChainToLZMap[homeChainId],\n                1,\n                _dstContract,\n                _payload,\n                _lzTxParams\n            );\n        return _nativeFee;\n    }\n\n    /* Encoding (payloads) */\n\n    /// @notice Encodes payload for making cross chan earnings distribution request\n    /// @param _remoteChainId Zorro chain ID of the chain making the distribution request\n    /// @param _amountUSDCBuyback Amount in USDC to buy back\n    /// @param _amountUSDCRevShare Amount in USDC to rev share with ZOR staking vault\n    /// @param _accSlashedRewards Accumulated slashed rewards on chain\n    /// @param _maxMarketMovement factor to account for max market movement/slippage.\n    /// @return bytes ABI encoded payload\n    function _encodeXChainDistributeEarningsPayload(\n        uint256 _remoteChainId,\n        uint256 _amountUSDCBuyback,\n        uint256 _amountUSDCRevShare,\n        uint256 _accSlashedRewards,\n        uint256 _maxMarketMovement\n    ) internal pure returns (bytes memory) {\n        // Calculate method signature\n        bytes4 _sig = this.receiveXChainDistributionRequest.selector;\n        // Calculate abi encoded bytes for input args\n        bytes memory _inputs = abi.encode(\n            _remoteChainId,\n            _amountUSDCBuyback,\n            _amountUSDCRevShare,\n            _accSlashedRewards,\n            _maxMarketMovement\n        );\n        // Concatenate bytes of signature and inputs\n        return bytes.concat(_sig, _inputs);\n    }\n\n    /* Sending */\n\n    /// @notice Sends a request back to the home chain to distribute earnings\n    /// @param _pid Pool ID\n    /// @param _buybackAmountUSDC Amount in USDC to buy back\n    /// @param _revShareAmountUSDC Amount in USDC to revshare w/ ZOR single staking vault\n    /// @param _maxMarketMovement Acceptable slippage (950 = 5%, 990 = 1% etc.)\n    function sendXChainDistributeEarningsRequest(\n        uint256 _pid,\n        uint256 _buybackAmountUSDC,\n        uint256 _revShareAmountUSDC,\n        uint256 _maxMarketMovement\n    ) public payable nonReentrant onlyRegisteredVault(_pid) {\n        // Require funds to be submitted with this message\n        require(msg.value > 0, \"No fees submitted\");\n\n        // Calculate total USDC to transfer\n        uint256 _totalUSDC = _buybackAmountUSDC.add(_revShareAmountUSDC);\n\n        // Allow this contract to spend USDC\n        IERC20(defaultStablecoin).safeIncreaseAllowance(\n            address(this),\n            _totalUSDC\n        );\n\n        // Transfer USDC into this contract\n        IERC20(defaultStablecoin).safeTransferFrom(\n            msg.sender,\n            address(this),\n            _totalUSDC\n        );\n\n        // Check balances\n        uint256 _balUSDC = IERC20(defaultStablecoin).balanceOf(address(this));\n\n        // Get accumulated ZOR rewards and set value\n        uint256 _slashedRewards = _removeSlashedRewards();\n\n        // Generate payload\n        bytes memory _payload = _encodeXChainDistributeEarningsPayload(\n            chainId,\n            _buybackAmountUSDC,\n            _revShareAmountUSDC,\n            _slashedRewards,\n            _maxMarketMovement\n        );\n\n        // Get the destination contract address on the remote chain\n        bytes memory _dstContract = controllerContractsMap[chainId];\n\n        // Call stargate to initiate bridge\n        _callStargateSwap(\n            StargateSwapPayload({\n                chainId: homeChainId,\n                qty: _balUSDC,\n                dstContract: _dstContract,\n                payload: _payload,\n                maxMarketMovement: _maxMarketMovement\n            })\n        );\n    }\n\n    /* Receiving */\n\n    /// @notice Dummy func to allow .selector call above and guarantee typesafety for abi calls.\n    /// @dev Should never ever be actually called.\n    function receiveXChainDistributionRequest(\n        uint256 _remoteChainId,\n        uint256 _amountUSDCBuyback,\n        uint256 _amountUSDCRevShare,\n        uint256 _accSlashedRewards,\n        uint256 _maxMarketMovement\n    ) public {\n        // Revert to make sure this function never gets called\n        revert(\"illegal dummy func call\");\n\n        // But still include the function call here anyway to satisfy type safety requirements in case there is a change\n        _receiveXChainDistributionRequest(\n            _remoteChainId,\n            _amountUSDCBuyback,\n            _amountUSDCRevShare,\n            _accSlashedRewards,\n            _maxMarketMovement\n        );\n    }\n\n    /// @notice Receives an authorized request from remote chains to perform earnings fee distribution events, such as: buyback + LP + burn, and revenue share\n    /// @param _remoteChainId The Zorro chain ID of the chain that this request originated from\n    /// @param _amountUSDCBuyback The amount in USDC that should be minted for LP + burn\n    /// @param _amountUSDCRevShare The amount in USDC that should be minted for revenue sharing with ZOR stakers\n    /// @param _accSlashedRewards Accumulated slashed rewards on chain\n    /// @param _maxMarketMovement factor to account for max market movement/slippage.\n    function _receiveXChainDistributionRequest(\n        uint256 _remoteChainId,\n        uint256 _amountUSDCBuyback,\n        uint256 _amountUSDCRevShare,\n        uint256 _accSlashedRewards,\n        uint256 _maxMarketMovement\n    ) internal {\n        // Total USDC to perform operations\n        uint256 _totalUSDC = _amountUSDCBuyback.add(_amountUSDCRevShare);\n\n        // Determine new USDC balances\n        uint256 _balUSDC = IERC20(defaultStablecoin).balanceOf(address(this));\n\n        /* Buyback */\n        // (Account for slippage)\n        uint256 _buybackAmount = _balUSDC.mul(_amountUSDCBuyback).div(\n            _totalUSDC\n        );\n        _buybackOnChain(_buybackAmount, _maxMarketMovement);\n\n        /* Rev share */\n        // (Account for slippage)\n        uint256 _revShareAmount = _balUSDC.mul(_amountUSDCRevShare).div(\n            _totalUSDC\n        );\n        _revShareOnChain(_revShareAmount, _maxMarketMovement);\n\n        // Emit event\n        emit XChainDistributeEarnings(\n            _remoteChainId,\n            _buybackAmount,\n            _revShareAmount\n        );\n\n        // Award slashed rewards to ZOR stakers\n        if (_accSlashedRewards > 0) {\n            _awardSlashedRewardsToStakers(_accSlashedRewards);\n        }\n    }\n\n    /* Fees */\n\n    /// @notice Adds liquidity to the main ZOR LP pool and burns the resulting LP token\n    /// @param _amountUSDC Amount of USDC to add as liquidity\n    /// @param _maxMarketMovement factor to account for max market movement/slippage.\n    function _buybackOnChain(uint256 _amountUSDC, uint256 _maxMarketMovement)\n        internal\n    {\n        // Authorize spending beforehand\n        IERC20(defaultStablecoin).safeIncreaseAllowance(\n            uniRouterAddress,\n            _amountUSDC\n        );\n\n        // Determine exchange rates using price feed oracle\n        uint256 _exchangeRateZOR = priceFeedZOR.getExchangeRate();\n        uint256 _exchangeRateLPPoolOtherToken = priceFeedLPPoolOtherToken\n            .getExchangeRate();\n\n        // Increase allowance\n        IERC20(tokenUSDC).safeIncreaseAllowance(uniRouterAddress, _amountUSDC);\n\n        // Swap to ZOR token\n        IAMMRouter02(uniRouterAddress).safeSwap(\n            _amountUSDC.div(2),\n            1e12,\n            _exchangeRateZOR,\n            _maxMarketMovement,\n            USDCToZorroPath,\n            address(this),\n            block.timestamp.add(600)\n        );\n        // Swap to counterparty token\n        IAMMRouter02(uniRouterAddress).safeSwap(\n            _amountUSDC.div(2),\n            1e12,\n            _exchangeRateLPPoolOtherToken,\n            _maxMarketMovement,\n            USDCToZorroLPPoolOtherTokenPath,\n            address(this),\n            block.timestamp.add(600)\n        );\n\n        // Enter LP pool\n        uint256 tokenZORAmt = IERC20(ZORRO).balanceOf(address(this));\n        uint256 tokenOtherAmt = IERC20(zorroLPPoolOtherToken).balanceOf(\n            address(this)\n        );\n        IERC20(ZORRO).safeIncreaseAllowance(uniRouterAddress, tokenZORAmt);\n        IERC20(zorroLPPoolOtherToken).safeIncreaseAllowance(\n            uniRouterAddress,\n            tokenOtherAmt\n        );\n        IAMMRouter02(uniRouterAddress).addLiquidity(\n            ZORRO,\n            zorroLPPoolOtherToken,\n            tokenZORAmt,\n            tokenOtherAmt,\n            tokenZORAmt.mul(_maxMarketMovement).div(1000),\n            tokenOtherAmt.mul(_maxMarketMovement).div(1000),\n            burnAddress,\n            block.timestamp.add(600)\n        );\n    }\n\n    /// @notice Pays the ZOR single staking pool the revenue share amount specified\n    /// @param _amountUSDC Amount of USDC to send as ZOR revenue share\n    /// @param _maxMarketMovement factor to account for max market movement/slippage.\n    function _revShareOnChain(uint256 _amountUSDC, uint256 _maxMarketMovement)\n        internal\n    {\n        // Authorize spending beforehand\n        IERC20(defaultStablecoin).safeIncreaseAllowance(\n            uniRouterAddress,\n            _amountUSDC\n        );\n\n        // Get Zorro exchange rate\n        uint256 _ZORROExchangeRate = priceFeedZOR.getExchangeRate();\n\n        // Swap to ZOR\n        // Increase allowance\n        IERC20(tokenUSDC).safeIncreaseAllowance(uniRouterAddress, _amountUSDC);\n        // Swap\n        IAMMRouter02(uniRouterAddress).safeSwap(\n            _amountUSDC,\n            1e12,\n            _ZORROExchangeRate,\n            _maxMarketMovement,\n            USDCToZorroPath,\n            zorroStakingVault,\n            block.timestamp.add(600)\n        );\n    }\n\n    /* Slashed rewards */\n\n    /// @notice Called by oracle to remove slashed ZOR rewards and reset\n    /// @return _slashedZORRewards The amount of accumulated slashed ZOR rewards\n    function _removeSlashedRewards()\n        internal\n        returns (uint256 _slashedZORRewards)\n    {\n        // Store current rewards amount\n        _slashedZORRewards = accumulatedSlashedRewards;\n\n        // Emit success event\n        emit RemovedSlashedRewards(_slashedZORRewards);\n\n        // Reset accumulated rewards\n        accumulatedSlashedRewards = 0;\n    }\n\n    /// @notice Awards the slashed ZOR rewards from other chains to this (home) chain's ZOR staking vault\n    /// @param _slashedZORRewards The amount of accumulated slashed ZOR rewards\n    function _awardSlashedRewardsToStakers(uint256 _slashedZORRewards)\n        internal\n    {\n        // Mint ZOR and send to ZOR staking vault.\n        Zorro(ZORRO).mint(zorroStakingVault, _slashedZORRewards);\n    }\n}\n",
  "sourcePath": "/Users/kristophm/Documents/workspace/zorro-protocol/contracts/controllers/_ZorroControllerXChainEarn.sol",
  "compiler": {
    "name": "solc",
    "version": "0.8.10+commit.fc410830.Emscripten.clang"
  },
  "schemaVersion": "3.4.4",
  "updatedAt": "2022-04-12T01:55:39.180Z",
  "devdoc": {
    "kind": "dev",
    "methods": {
      "checkXChainDistributeEarningsFee(uint256,uint256,uint256,uint256)": {
        "params": {
          "_accSlashedRewards": "Accumulated slashed rewards on chain",
          "_amountUSDCBuyback": "Amount of USDC to buy back",
          "_amountUSDCRevShare": "Amount of USDC to rev share with ZOR single staking vault",
          "_maxMarketMovement": "factor to account for max market movement/slippage."
        },
        "returns": {
          "_0": "uint256 Quantity of native token as fees"
        }
      },
      "owner()": {
        "details": "Returns the address of the current owner."
      },
      "receiveXChainDistributionRequest(uint256,uint256,uint256,uint256,uint256)": {
        "details": "Should never ever be actually called."
      },
      "renounceOwnership()": {
        "details": "Leaves the contract without owner. It will not be possible to call `onlyOwner` functions anymore. Can only be called by the current owner. NOTE: Renouncing ownership will leave the contract without an owner, thereby removing any functionality that is only available to the owner."
      },
      "sendXChainDistributeEarningsRequest(uint256,uint256,uint256,uint256)": {
        "params": {
          "_buybackAmountUSDC": "Amount in USDC to buy back",
          "_maxMarketMovement": "Acceptable slippage (950 = 5%, 990 = 1% etc.)",
          "_pid": "Pool ID",
          "_revShareAmountUSDC": "Amount in USDC to revshare w/ ZOR single staking vault"
        }
      },
      "setControllerContract(uint256,bytes)": {
        "params": {
          "_controller": "Bytes representation of smart contract address for cross chain contract",
          "_zorroChainId": "Zorro Chain ID"
        }
      },
      "setStargateDestPoolIds(uint256,uint16)": {
        "params": {
          "_stargatePoolId": "Stargate pool ID",
          "_zorroChainId": "Zorro chain ID"
        }
      },
      "setZorroChainToLZMap(uint256,uint16)": {
        "params": {
          "_lzChainId": "LayerZero Chain ID",
          "_zorroChainId": "Zorro chain ID"
        }
      },
      "transferOwnership(address)": {
        "details": "Transfers ownership of the contract to a new account (`newOwner`). Can only be called by the current owner."
      }
    },
    "version": 1
  },
  "userdoc": {
    "kind": "user",
    "methods": {
      "checkXChainDistributeEarningsFee(uint256,uint256,uint256,uint256)": {
        "notice": "Checks to see how much a cross chain earnings distribution will cost"
      },
      "receiveXChainDistributionRequest(uint256,uint256,uint256,uint256,uint256)": {
        "notice": "Dummy func to allow .selector call above and guarantee typesafety for abi calls."
      },
      "sendXChainDistributeEarningsRequest(uint256,uint256,uint256,uint256)": {
        "notice": "Sends a request back to the home chain to distribute earnings"
      },
      "setControllerContract(uint256,bytes)": {
        "notice": "Setter: Controller contract for each chain"
      },
      "setLayerZeroParams(address,uint256,address)": {
        "notice": "Setter: Set main LZ params"
      },
      "setStargateDestPoolIds(uint256,uint16)": {
        "notice": "Setter: Stargate dest pool IDs for USD asset"
      },
      "setZorroChainToLZMap(uint256,uint16)": {
        "notice": "Setter: LZ/Stargate params"
      }
    },
    "version": 1
  }
}