{
  "contractName": "ZorroControllerPoolMgmt",
  "abi": [
    {
      "anonymous": false,
      "inputs": [
        {
          "indexed": true,
          "internalType": "address",
          "name": "previousOwner",
          "type": "address"
        },
        {
          "indexed": true,
          "internalType": "address",
          "name": "newOwner",
          "type": "address"
        }
      ],
      "name": "OwnershipTransferred",
      "type": "event"
    },
    {
      "inputs": [],
      "name": "ZORRO",
      "outputs": [
        {
          "internalType": "address",
          "name": "",
          "type": "address"
        }
      ],
      "stateMutability": "view",
      "type": "function"
    },
    {
      "inputs": [],
      "name": "ZORRODailyDistributionFactorBasisPointsMax",
      "outputs": [
        {
          "internalType": "uint256",
          "name": "",
          "type": "uint256"
        }
      ],
      "stateMutability": "view",
      "type": "function"
    },
    {
      "inputs": [],
      "name": "ZORRODailyDistributionFactorBasisPointsMin",
      "outputs": [
        {
          "internalType": "uint256",
          "name": "",
          "type": "uint256"
        }
      ],
      "stateMutability": "view",
      "type": "function"
    },
    {
      "inputs": [],
      "name": "ZORROPerBlock",
      "outputs": [
        {
          "internalType": "uint256",
          "name": "",
          "type": "uint256"
        }
      ],
      "stateMutability": "view",
      "type": "function"
    },
    {
      "inputs": [],
      "name": "accSynthRewardsMinted",
      "outputs": [
        {
          "internalType": "uint256",
          "name": "",
          "type": "uint256"
        }
      ],
      "stateMutability": "view",
      "type": "function"
    },
    {
      "inputs": [],
      "name": "accSynthRewardsSlashed",
      "outputs": [
        {
          "internalType": "uint256",
          "name": "",
          "type": "uint256"
        }
      ],
      "stateMutability": "view",
      "type": "function"
    },
    {
      "inputs": [],
      "name": "baseRewardRateBasisPoints",
      "outputs": [
        {
          "internalType": "uint256",
          "name": "",
          "type": "uint256"
        }
      ],
      "stateMutability": "view",
      "type": "function"
    },
    {
      "inputs": [],
      "name": "blocksPerDay",
      "outputs": [
        {
          "internalType": "uint256",
          "name": "",
          "type": "uint256"
        }
      ],
      "stateMutability": "view",
      "type": "function"
    },
    {
      "inputs": [],
      "name": "burnAddress",
      "outputs": [
        {
          "internalType": "address",
          "name": "",
          "type": "address"
        }
      ],
      "stateMutability": "view",
      "type": "function"
    },
    {
      "inputs": [],
      "name": "chainId",
      "outputs": [
        {
          "internalType": "uint256",
          "name": "",
          "type": "uint256"
        }
      ],
      "stateMutability": "view",
      "type": "function"
    },
    {
      "inputs": [],
      "name": "chainMultiplier",
      "outputs": [
        {
          "internalType": "uint256",
          "name": "",
          "type": "uint256"
        }
      ],
      "stateMutability": "view",
      "type": "function"
    },
    {
      "inputs": [],
      "name": "controllerActions",
      "outputs": [
        {
          "internalType": "address",
          "name": "",
          "type": "address"
        }
      ],
      "stateMutability": "view",
      "type": "function"
    },
    {
      "inputs": [],
      "name": "defaultStablecoin",
      "outputs": [
        {
          "internalType": "address",
          "name": "",
          "type": "address"
        }
      ],
      "stateMutability": "view",
      "type": "function"
    },
    {
      "inputs": [
        {
          "internalType": "uint256",
          "name": "",
          "type": "uint256"
        },
        {
          "internalType": "bytes",
          "name": "",
          "type": "bytes"
        },
        {
          "internalType": "uint256",
          "name": "",
          "type": "uint256"
        }
      ],
      "name": "foreignTrancheInfo",
      "outputs": [
        {
          "internalType": "address",
          "name": "",
          "type": "address"
        }
      ],
      "stateMutability": "view",
      "type": "function"
    },
    {
      "inputs": [],
      "name": "homeChainId",
      "outputs": [
        {
          "internalType": "uint256",
          "name": "",
          "type": "uint256"
        }
      ],
      "stateMutability": "view",
      "type": "function"
    },
    {
      "inputs": [],
      "name": "homeChainZorroController",
      "outputs": [
        {
          "internalType": "address",
          "name": "",
          "type": "address"
        }
      ],
      "stateMutability": "view",
      "type": "function"
    },
    {
      "inputs": [
        {
          "internalType": "address",
          "name": "_token",
          "type": "address"
        },
        {
          "internalType": "uint256",
          "name": "_amount",
          "type": "uint256"
        }
      ],
      "name": "inCaseTokensGetStuck",
      "outputs": [],
      "stateMutability": "nonpayable",
      "type": "function"
    },
    {
      "inputs": [],
      "name": "owner",
      "outputs": [
        {
          "internalType": "address",
          "name": "",
          "type": "address"
        }
      ],
      "stateMutability": "view",
      "type": "function"
    },
    {
      "inputs": [
        {
          "internalType": "uint256",
          "name": "",
          "type": "uint256"
        }
      ],
      "name": "poolInfo",
      "outputs": [
        {
          "internalType": "contract IERC20Upgradeable",
          "name": "want",
          "type": "address"
        },
        {
          "internalType": "uint256",
          "name": "allocPoint",
          "type": "uint256"
        },
        {
          "internalType": "uint256",
          "name": "lastRewardBlock",
          "type": "uint256"
        },
        {
          "internalType": "uint256",
          "name": "accZORRORewards",
          "type": "uint256"
        },
        {
          "internalType": "uint256",
          "name": "totalTrancheContributions",
          "type": "uint256"
        },
        {
          "internalType": "address",
          "name": "vault",
          "type": "address"
        }
      ],
      "stateMutability": "view",
      "type": "function"
    },
    {
      "inputs": [],
      "name": "poolLength",
      "outputs": [
        {
          "internalType": "uint256",
          "name": "",
          "type": "uint256"
        }
      ],
      "stateMutability": "view",
      "type": "function"
    },
    {
      "inputs": [],
      "name": "publicPool",
      "outputs": [
        {
          "internalType": "address",
          "name": "",
          "type": "address"
        }
      ],
      "stateMutability": "view",
      "type": "function"
    },
    {
      "inputs": [],
      "name": "renounceOwnership",
      "outputs": [],
      "stateMutability": "nonpayable",
      "type": "function"
    },
    {
      "inputs": [],
      "name": "resetSyntheticRewardsMinted",
      "outputs": [],
      "stateMutability": "nonpayable",
      "type": "function"
    },
    {
      "inputs": [],
      "name": "resetSyntheticRewardsSlashed",
      "outputs": [],
      "stateMutability": "nonpayable",
      "type": "function"
    },
    {
      "inputs": [
        {
          "internalType": "address",
          "name": "_burnAddress",
          "type": "address"
        }
      ],
      "name": "setBurnAddress",
      "outputs": [],
      "stateMutability": "nonpayable",
      "type": "function"
    },
    {
      "inputs": [
        {
          "internalType": "address",
          "name": "_ZORRO",
          "type": "address"
        },
        {
          "internalType": "address",
          "name": "_defaultStablecoin",
          "type": "address"
        }
      ],
      "name": "setKeyAddresses",
      "outputs": [],
      "stateMutability": "nonpayable",
      "type": "function"
    },
    {
      "inputs": [
        {
          "internalType": "uint256",
          "name": "_blocksPerDay",
          "type": "uint256"
        },
        {
          "internalType": "uint256[]",
          "name": "_dailyDistFactors",
          "type": "uint256[]"
        },
        {
          "internalType": "uint256",
          "name": "_chainMultiplier",
          "type": "uint256"
        },
        {
          "internalType": "uint256",
          "name": "_baseRewardRateBasisPoints",
          "type": "uint256"
        }
      ],
      "name": "setRewardsParams",
      "outputs": [],
      "stateMutability": "nonpayable",
      "type": "function"
    },
    {
      "inputs": [
        {
          "internalType": "uint256",
          "name": "_startBlock",
          "type": "uint256"
        }
      ],
      "name": "setStartBlock",
      "outputs": [],
      "stateMutability": "nonpayable",
      "type": "function"
    },
    {
      "inputs": [
        {
          "internalType": "uint256",
          "name": "_targetTVLCaptureBasisPoints",
          "type": "uint256"
        }
      ],
      "name": "setTargetTVLCaptureBasisPoints",
      "outputs": [],
      "stateMutability": "nonpayable",
      "type": "function"
    },
    {
      "inputs": [
        {
          "internalType": "uint256",
          "name": "_chainId",
          "type": "uint256"
        },
        {
          "internalType": "uint256",
          "name": "_homeChainId",
          "type": "uint256"
        },
        {
          "internalType": "address",
          "name": "_homeChainZorroController",
          "type": "address"
        }
      ],
      "name": "setXChainParams",
      "outputs": [],
      "stateMutability": "nonpayable",
      "type": "function"
    },
    {
      "inputs": [
        {
          "internalType": "address",
          "name": "_publicPool",
          "type": "address"
        },
        {
          "internalType": "address",
          "name": "_zorroStakingVault",
          "type": "address"
        }
      ],
      "name": "setZorroContracts",
      "outputs": [],
      "stateMutability": "nonpayable",
      "type": "function"
    },
    {
      "inputs": [
        {
          "internalType": "address",
          "name": "_zorroControllerOracle",
          "type": "address"
        }
      ],
      "name": "setZorroControllerOracle",
      "outputs": [],
      "stateMutability": "nonpayable",
      "type": "function"
    },
    {
      "inputs": [
        {
          "internalType": "uint256",
          "name": "_totalChainMultipliers",
          "type": "uint256"
        },
        {
          "internalType": "uint256",
          "name": "_totalMarketTVLUSD",
          "type": "uint256"
        },
        {
          "internalType": "uint256",
          "name": "_targetTVLCaptureBasisPoints",
          "type": "uint256"
        },
        {
          "internalType": "uint256",
          "name": "_ZorroTotalVaultTVLUSD",
          "type": "uint256"
        },
        {
          "internalType": "uint256",
          "name": "_publicPoolZORBalance",
          "type": "uint256"
        }
      ],
      "name": "setZorroPerBlock",
      "outputs": [],
      "stateMutability": "nonpayable",
      "type": "function"
    },
    {
      "inputs": [],
      "name": "startBlock",
      "outputs": [
        {
          "internalType": "uint256",
          "name": "",
          "type": "uint256"
        }
      ],
      "stateMutability": "view",
      "type": "function"
    },
    {
      "inputs": [],
      "name": "targetTVLCaptureBasisPoints",
      "outputs": [
        {
          "internalType": "uint256",
          "name": "",
          "type": "uint256"
        }
      ],
      "stateMutability": "view",
      "type": "function"
    },
    {
      "inputs": [],
      "name": "totalAllocPoint",
      "outputs": [
        {
          "internalType": "uint256",
          "name": "",
          "type": "uint256"
        }
      ],
      "stateMutability": "view",
      "type": "function"
    },
    {
      "inputs": [
        {
          "internalType": "uint256",
          "name": "",
          "type": "uint256"
        },
        {
          "internalType": "address",
          "name": "",
          "type": "address"
        },
        {
          "internalType": "uint256",
          "name": "",
          "type": "uint256"
        }
      ],
      "name": "trancheInfo",
      "outputs": [
        {
          "internalType": "uint256",
          "name": "contribution",
          "type": "uint256"
        },
        {
          "internalType": "uint256",
          "name": "timeMultiplier",
          "type": "uint256"
        },
        {
          "internalType": "uint256",
          "name": "rewardDebt",
          "type": "uint256"
        },
        {
          "internalType": "uint256",
          "name": "durationCommittedInWeeks",
          "type": "uint256"
        },
        {
          "internalType": "uint256",
          "name": "enteredVaultAt",
          "type": "uint256"
        },
        {
          "internalType": "uint256",
          "name": "exitedVaultAt",
          "type": "uint256"
        }
      ],
      "stateMutability": "view",
      "type": "function"
    },
    {
      "inputs": [
        {
          "internalType": "uint256",
          "name": "_pid",
          "type": "uint256"
        },
        {
          "internalType": "address",
          "name": "_user",
          "type": "address"
        }
      ],
      "name": "trancheLength",
      "outputs": [
        {
          "internalType": "uint256",
          "name": "",
          "type": "uint256"
        }
      ],
      "stateMutability": "view",
      "type": "function"
    },
    {
      "inputs": [
        {
          "internalType": "address",
          "name": "newOwner",
          "type": "address"
        }
      ],
      "name": "transferOwnership",
      "outputs": [],
      "stateMutability": "nonpayable",
      "type": "function"
    },
    {
      "inputs": [
        {
          "internalType": "uint256",
          "name": "_pid",
          "type": "uint256"
        }
      ],
      "name": "updatePool",
      "outputs": [
        {
          "internalType": "uint256",
          "name": "mintedZOR",
          "type": "uint256"
        }
      ],
      "stateMutability": "nonpayable",
      "type": "function"
    },
    {
      "inputs": [],
      "name": "zorroControllerOracle",
      "outputs": [
        {
          "internalType": "address",
          "name": "",
          "type": "address"
        }
      ],
      "stateMutability": "view",
      "type": "function"
    },
    {
      "inputs": [],
      "name": "zorroStakingVault",
      "outputs": [
        {
          "internalType": "address",
          "name": "",
          "type": "address"
        }
      ],
      "stateMutability": "view",
      "type": "function"
    },
    {
      "inputs": [
        {
          "internalType": "uint256",
          "name": "_allocPoint",
          "type": "uint256"
        },
        {
          "internalType": "contract IERC20Upgradeable",
          "name": "_want",
          "type": "address"
        },
        {
          "internalType": "bool",
          "name": "_withUpdate",
          "type": "bool"
        },
        {
          "internalType": "address",
          "name": "_vault",
          "type": "address"
        }
      ],
      "name": "add",
      "outputs": [],
      "stateMutability": "nonpayable",
      "type": "function"
    },
    {
      "inputs": [
        {
          "internalType": "uint256",
          "name": "_pid",
          "type": "uint256"
        },
        {
          "internalType": "uint256",
          "name": "_allocPoint",
          "type": "uint256"
        },
        {
          "internalType": "bool",
          "name": "_withUpdate",
          "type": "bool"
        }
      ],
      "name": "set",
      "outputs": [],
      "stateMutability": "nonpayable",
      "type": "function"
    },
    {
      "inputs": [],
      "name": "massUpdatePools",
      "outputs": [
        {
          "internalType": "uint256",
          "name": "_mintedZOR",
          "type": "uint256"
        }
      ],
      "stateMutability": "nonpayable",
      "type": "function"
    }
  ],
  "bytecode": "0x608060405234801561001057600080fd5b50611d21806100206000396000f3fe608060405234801561001057600080fd5b506004361061029c576000357c010000000000000000000000000000000000000000000000000000000090048063668ababb11610179578063b4b4e9eb116100eb578063ed43633f116100a4578063ed43633f146105c2578063ef126967146105d5578063f2fde38b146105de578063f35e4a6e146105f1578063f63cce3714610604578063fc39a29e1461061757600080fd5b8063b4b4e9eb14610541578063b61bb80a14610581578063b95cc68114610594578063c29361421461059d578063c6d758cb146105a6578063cb9c2f68146105b957600080fd5b80638c157db21161013d5780638c157db2146104f05780638da5cb5b146105035780639a8a0592146105145780639cebd3711461051d578063a13346c614610526578063a4d2b0831461052e57600080fd5b8063668ababb1461049c5780636b8eb2e5146104af57806370d5ae05146104c2578063715018a6146104d5578063823c43d0146104dd57600080fd5b80634b0e72161161021257806353f73f87116101d657806353f73f871461041c5780635527a6f9146104525780635c63fa871461045b5780635f70edcf1461046e578063630b5ba11461048157806364482f791461048957600080fd5b80634b0e7216146103d15780634cfea68a146103e45780635051d371146103ed57806351eb05a614610400578063529668321461041357600080fd5b80632e31283d116102645780632e31283d1461032d578063332e5a7b146103905780633b710688146103a35780633b9ce565146103ac5780633bbc1ffc146103b557806348cd4cb1146103c857600080fd5b8063081e3eda146102a157806309b79b3c146102b85780630aa0988e146102c25780631526fe27146102d557806317caf6f114610324575b600080fd5b60aa545b6040519081526020015b60405180910390f35b6102c061062a565b005b6102c06102d0366004611772565b610697565b6102e86102e33660046117ab565b6106f2565b60408051600160a060020a03978816815260208101969096528501939093526060840191909152608083015290911660a082015260c0016102af565b6102a560a45481565b61037861033b3660046117dd565b60ac6020908152600093845260408085208451808601840180519281529084019584019590952094529290528252902054600160a060020a031681565b604051600160a060020a0390911681526020016102af565b60ae5461037890600160a060020a031681565b6102a560a35481565b6102a560a15481565b6102c06103c33660046117ab565b610745565b6102a5609c5481565b6102c06103df3660046118a1565b6107d4565b6102a5609d5481565b6102c06103fb3660046118a1565b610823565b6102a561040e3660046117ab565b610872565b6102a560a55481565b6102a561042a3660046118be565b600091825260ab60209081526040808420600160a060020a0393909316845291905290205490565b6102a560a05481565b6102c06104693660046118e3565b610a70565b6102c061047c36600461192a565b610ac7565b6102a5610c83565b6102c061049736600461197d565b610d30565b60995461037890600160a060020a031681565b6102c06104bd3660046119ab565b610de4565b609b5461037890600160a060020a031681565b6102c0610e9b565b60ad5461037890600160a060020a031681565b60975461037890600160a060020a031681565b603354600160a060020a0316610378565b6102a560a75481565b6102a560a25481565b6102c0610ed4565b609a5461037890600160a060020a031681565b61055461054f3660046119e6565b610f52565b604080519687526020870195909552938501929092526060840152608083015260a082015260c0016102af565b60985461037890600160a060020a031681565b6102a560a65481565b6102a5609e5481565b6102c06105b4366004611a1e565b610fb3565b6102a5609f5481565b6102c06105d0366004611a4a565b61107f565b6102a560a85481565b6102c06105ec3660046118a1565b6110f8565b6102c06105ff3660046117ab565b6111b0565b6102c0610612366004611772565b611235565b60a95461037890600160a060020a031681565b60ad54600160a060020a031633600160a060020a0316146106695760405160e560020a62461bcd02815260040161066090611ad7565b60405180910390fd5b60a85460a75414156106905760405160e560020a62461bcd02815260040161066090611b0e565b600060a555565b603354600160a060020a031633146106c45760405160e560020a62461bcd02815260040161066090611b45565b60978054600160a060020a03938416600160a060020a03199182161790915560988054929093169116179055565b60aa818154811061070257600080fd5b6000918252602090912060069091020180546001820154600283015460038401546004850154600590950154600160a060020a0394851696509294919390921686565b603354600160a060020a031633146107725760405160e560020a62461bcd02815260040161066090611b45565b60a954600160a060020a031630146107cf5760405160e560020a62461bcd02815260206004820152600f60248201527f6f6e6c7920686f6d6520636861696e00000000000000000000000000000000006044820152606401610660565b609f55565b603354600160a060020a031633146108015760405160e560020a62461bcd02815260040161066090611b45565b609b8054600160a060020a031916600160a060020a0392909216919091179055565b603354600160a060020a031633146108505760405160e560020a62461bcd02815260040161066090611b45565b60ad8054600160a060020a031916600160a060020a0392909216919091179055565b60008060aa838154811061088857610888611b7a565b90600052602060002090600602019050806002015443116108ac5750600092915050565b6005810154604080517f44a3955e0000000000000000000000000000000000000000000000000000000081529051600092600160a060020a0316916344a3955e9160048083019260209291908290030181865afa158015610911573d6000803e3d6000fd5b505050506040513d601f19601f820116820180604052508101906109359190611b93565b90508061094c575043600290910155506000919050565b60006109658360020154436112ed90919063ffffffff16565b9050600061099860a454610992866001015461098c609e548761130090919063ffffffff16565b90611300565b9061130c565b60a954909150600160a060020a03163014156109c1576109b88130611318565b60009450610a4a565b6097546040517f40c10f1900000000000000000000000000000000000000000000000000000000815230600482015260248101839052600160a060020a03909116906340c10f1990604401600060405180830381600087803b158015610a2657600080fd5b505af1158015610a3a573d6000803e3d6000fd5b50505050809450610a4a85611336565b6003840154610a599082611370565b600385015550504360029092019190915550919050565b603354600160a060020a03163314610a9d5760405160e560020a62461bcd02815260040161066090611b45565b60a79290925560a85560a98054600160a060020a031916600160a060020a03909216919091179055565b603354600160a060020a03163314610af45760405160e560020a62461bcd02815260040161066090611b45565b8115610b0457610b02610c83565b505b6000609c544311610b1757609c54610b19565b435b60a454909150610b299086611370565b60a4556040805160c081018252600160a060020a039586168152602081019687529081019182526000606082018181526080830182815294871660a0840190815260aa80546001810182559352925160069092027f550d3de95be0bd28a79c3eb4ea7f05692c60b0602e48b49461e703379b08a71a81018054938916600160a060020a031994851617905597517f550d3de95be0bd28a79c3eb4ea7f05692c60b0602e48b49461e703379b08a71b89015592517f550d3de95be0bd28a79c3eb4ea7f05692c60b0602e48b49461e703379b08a71c88015591517f550d3de95be0bd28a79c3eb4ea7f05692c60b0602e48b49461e703379b08a71d87015591517f550d3de95be0bd28a79c3eb4ea7f05692c60b0602e48b49461e703379b08a71e86015590517f550d3de95be0bd28a79c3eb4ea7f05692c60b0602e48b49461e703379b08a71f909401805494909316931692909217905550565b60aa54600090815b81811015610d2b576040517f51eb05a600000000000000000000000000000000000000000000000000000000815260048101829052610d199030906351eb05a6906024016020604051808303816000875af1158015610cee573d6000803e3d6000fd5b505050506040513d601f19601f82011682018060405250810190610d129190611b93565b8490611370565b9250610d2481611bc5565b9050610c8b565b505090565b603354600160a060020a03163314610d5d5760405160e560020a62461bcd02815260040161066090611b45565b8015610d6d57610d6b610c83565b505b610db082610daa60aa8681548110610d8757610d87611b7a565b90600052602060002090600602016001015460a4546112ed90919063ffffffff16565b90611370565b60a4819055508160aa8481548110610dca57610dca611b7a565b906000526020600020906006020160010181905550505050565b60ad54600160a060020a031633600160a060020a031614610e1a5760405160e560020a62461bcd02815260040161066090611ad7565b6000610e44610e2b84612710611300565b6109928661098c8960a35461130090919063ffffffff16565b905060a154811115610e59575060a154610e68565b60a054811015610e68575060a0545b609d54610e9090610e7f9061098c89612710611300565b60a2546109929061098c8686611300565b609e55505050505050565b603354600160a060020a03163314610ec85760405160e560020a62461bcd02815260040161066090611b45565b610ed2600061137c565b565b60ad54600160a060020a031633600160a060020a031614610f0a5760405160e560020a62461bcd02815260040161066090611ad7565b60a85460a7541415610f315760405160e560020a62461bcd02815260040161066090611b0e565b609b5460a65460975461069092600160a060020a03918216929116906113ce565b60ab6020528260005260406000206020528160005260406000208181548110610f7a57600080fd5b60009182526020909120600690910201805460018201546002830154600384015460048501546005909501549397509195509350919086565b603354600160a060020a03163314610fe05760405160e560020a62461bcd02815260040161066090611b45565b609754600160a060020a03838116911614156110675760405160e560020a62461bcd02815260206004820152603560248201527f217361666520746f20757365205a6f72726f20746f6b656e20696e2066756e6360448201527f20696e43617365546f6b656e73476574537475636b00000000000000000000006064820152608401610660565b61107b600160a060020a03831633836113ce565b5050565b603354600160a060020a031633146110ac5760405160e560020a62461bcd02815260040161066090611b45565b609d85905583836000816110c2576110c2611b7a565b602002919091013560a05550838360018181106110e1576110e1611b7a565b602002919091013560a1555060a35560a255505050565b603354600160a060020a031633146111255760405160e560020a62461bcd02815260040161066090611b45565b600160a060020a0381166111a45760405160e560020a62461bcd02815260206004820152602660248201527f4f776e61626c653a206e6577206f776e657220697320746865207a65726f206160448201527f64647265737300000000000000000000000000000000000000000000000000006064820152608401610660565b6111ad8161137c565b50565b603354600160a060020a031633146111dd5760405160e560020a62461bcd02815260040161066090611b45565b609c54156112305760405160e560020a62461bcd02815260206004820152601560248201527f626c6f636b506172616d7320696d6d757461626c6500000000000000000000006044820152606401610660565b609c55565b603354600160a060020a031633146112625760405160e560020a62461bcd02815260040161066090611b45565b60a954600160a060020a031630146112bf5760405160e560020a62461bcd02815260206004820152600f60248201527f6f6e6c7920686f6d6520636861696e00000000000000000000000000000000006044820152606401610660565b60998054600160a060020a03938416600160a060020a031991821617909155609a8054929093169116179055565b60006112f98284611be0565b9392505050565b60006112f98284611bf7565b60006112f98284611c16565b60995460975461107b91600160a060020a039182169116838561147c565b60a85460a754141561135d5760405160e560020a62461bcd02815260040161066090611b0e565b60a55461136a9082611370565b60a55550565b60006112f98284611c3b565b60338054600160a060020a03838116600160a060020a0319831681179093556040519116919082907f8be0079c531659141344cd1fd0a4f28419497f9722a3daafe3b4186f6b6457e090600090a35050565b604051600160a060020a0383166024820152604481018290526114779084907fa9059cbb00000000000000000000000000000000000000000000000000000000906064015b60408051601f198184030181529190526020810180517bffffffffffffffffffffffffffffffffffffffffffffffffffffffff167fffffffff00000000000000000000000000000000000000000000000000000000909316929092179091526114d3565b505050565b604051600160a060020a03808516602483015283166044820152606481018290526114cd9085907f23b872dd0000000000000000000000000000000000000000000000000000000090608401611413565b50505050565b6000611528826040518060400160405280602081526020017f5361666545524332303a206c6f772d6c6576656c2063616c6c206661696c656481525085600160a060020a03166115bb9092919063ffffffff16565b80519091501561147757808060200190518101906115469190611c53565b6114775760405160e560020a62461bcd02815260206004820152602a60248201527f5361666545524332303a204552433230206f7065726174696f6e20646964206e60448201527f6f742073756363656564000000000000000000000000000000000000000000006064820152608401610660565b60606115ca84846000856115d2565b949350505050565b6060303183111561164e5760405160e560020a62461bcd02815260206004820152602660248201527f416464726573733a20696e73756666696369656e742062616c616e636520666f60448201527f722063616c6c00000000000000000000000000000000000000000000000000006064820152608401610660565b600160a060020a0385163b6116a85760405160e560020a62461bcd02815260206004820152601d60248201527f416464726573733a2063616c6c20746f206e6f6e2d636f6e74726163740000006044820152606401610660565b60008086600160a060020a031685876040516116c49190611c9c565b60006040518083038185875af1925050503d8060008114611701576040519150601f19603f3d011682016040523d82523d6000602084013e611706565b606091505b5091509150611716828286611721565b979650505050505050565b606083156117305750816112f9565b8251156117405782518084602001fd5b8160405160e560020a62461bcd0281526004016106609190611cb8565b600160a060020a03811681146111ad57600080fd5b6000806040838503121561178557600080fd5b82356117908161175d565b915060208301356117a08161175d565b809150509250929050565b6000602082840312156117bd57600080fd5b5035919050565b60e060020a634e487b7102600052604160045260246000fd5b6000806000606084860312156117f257600080fd5b83359250602084013567ffffffffffffffff8082111561181157600080fd5b818601915086601f83011261182557600080fd5b813581811115611837576118376117c4565b604051601f8201601f19908116603f0116810190838211818310171561185f5761185f6117c4565b8160405282815289602084870101111561187857600080fd5b826020860160208301376000602084830101528096505050505050604084013590509250925092565b6000602082840312156118b357600080fd5b81356112f98161175d565b600080604083850312156118d157600080fd5b8235915060208301356117a08161175d565b6000806000606084860312156118f857600080fd5b833592506020840135915060408401356119118161175d565b809150509250925092565b80151581146111ad57600080fd5b6000806000806080858703121561194057600080fd5b8435935060208501356119528161175d565b925060408501356119628161191c565b915060608501356119728161175d565b939692955090935050565b60008060006060848603121561199257600080fd5b833592506020840135915060408401356119118161191c565b600080600080600060a086880312156119c357600080fd5b505083359560208501359550604085013594606081013594506080013592509050565b6000806000606084860312156119fb57600080fd5b833592506020840135611a0d8161175d565b929592945050506040919091013590565b60008060408385031215611a3157600080fd5b8235611a3c8161175d565b946020939093013593505050565b600080600080600060808688031215611a6257600080fd5b85359450602086013567ffffffffffffffff80821115611a8157600080fd5b818801915088601f830112611a9557600080fd5b813581811115611aa457600080fd5b8960208083028501011115611ab857600080fd5b9699602092909201985095966040810135965060600135945092505050565b60208082526011908201527f6f6e6c79205a6f72726f206f7261636c65000000000000000000000000000000604082015260600190565b60208082526017908201527f466f72206e6f6e20686f6d6520636861696e206f6e6c79000000000000000000604082015260600190565b6020808252818101527f4f776e61626c653a2063616c6c6572206973206e6f7420746865206f776e6572604082015260600190565b60e060020a634e487b7102600052603260045260246000fd5b600060208284031215611ba557600080fd5b5051919050565b60e060020a634e487b7102600052601160045260246000fd5b6000600019821415611bd957611bd9611bac565b5060010190565b600082821015611bf257611bf2611bac565b500390565b6000816000190483118215151615611c1157611c11611bac565b500290565b600082611c365760e060020a634e487b7102600052601260045260246000fd5b500490565b60008219821115611c4e57611c4e611bac565b500190565b600060208284031215611c6557600080fd5b81516112f98161191c565b60005b83811015611c8b578181015183820152602001611c73565b838111156114cd5750506000910152565b60008251611cae818460208701611c70565b9190910192915050565b6020815260008251806020840152611cd7816040850160208701611c70565b601f01601f1916919091016040019291505056fea2646970667358221220db51072ae69e37195ab98cec71a1326334e5a8c1e2822ddb82cb57513caa75da64736f6c634300080a0033",
  "immutableReferences": {},
  "source": "// SPDX-License-Identifier: MIT\npragma solidity ^0.8.0;\n\nimport \"./_ZorroControllerBase.sol\";\n\nimport \"@openzeppelin/contracts-upgradeable/utils/math/SafeMathUpgradeable.sol\";\n\nimport \"../interfaces/IZorroController.sol\";\n\ncontract ZorroControllerPoolMgmt is IZorroControllerPoolMgmt, ZorroControllerBase {\n    /* Libraries */\n    using SafeMathUpgradeable for uint256;\n\n    /* Pool management */\n\n    /// @notice Adds a new pool. Can only be called by the owner.\n    /// @dev DO NOT add the same Want token more than once. Rewards will be messed up if you do. (Only if Want tokens are stored here.)\n    /// @param _allocPoint The number of allocation points for this pool (aka \"multiplier\")\n    /// @param _want The address of the want token\n    /// @param _withUpdate  Mass update all pools if set to true\n    /// @param _vault The contract address of the underlying vault\n    function add(\n        uint256 _allocPoint,\n        IERC20Upgradeable _want,\n        bool _withUpdate,\n        address _vault\n    ) public onlyOwner {\n        // If _withUpdate provided, update all pools\n        if (_withUpdate) {\n            massUpdatePools();\n        }\n        // Last reward block set to current block, or the start block if the startBlock hasn't been provided\n        uint256 lastRewardBlock = block.number > startBlock\n            ? block.number\n            : startBlock;\n        // Increment the total allocation points by the provided _allocPoint\n        totalAllocPoint = totalAllocPoint.add(_allocPoint);\n        // Push to the poolInfo array\n        poolInfo.push(\n            PoolInfo({\n                want: _want,\n                allocPoint: _allocPoint,\n                lastRewardBlock: lastRewardBlock,\n                accZORRORewards: 0,\n                totalTrancheContributions: 0,\n                vault: _vault\n            })\n        );\n    }\n\n    /// @notice Update the given pool's ZORRO allocation point. Can only be called by the owner.\n    /// @param _pid The index of the pool ID\n    /// @param _allocPoint The number of allocation points for this pool (aka \"multiplier\")\n    /// @param _withUpdate  Mass update all pools if set to true\n    function set(\n        uint256 _pid,\n        uint256 _allocPoint,\n        bool _withUpdate\n    ) public onlyOwner {\n        // If _withUpdate provided, update all pools\n        if (_withUpdate) {\n            massUpdatePools();\n        }\n        // Adjust the total allocation points by the provided _allocPoint\n        totalAllocPoint = totalAllocPoint.sub(poolInfo[_pid].allocPoint).add(\n            _allocPoint\n        );\n        // Update the key params for this pool\n        poolInfo[_pid].allocPoint = _allocPoint;\n    }\n\n    /// @notice Updates reward variables of all pools\n    /// @dev Be careful of gas fees!\n    /// @return _mintedZOR total amount of ZOR rewards minted (useful for cross chain)\n    function massUpdatePools() public returns (uint256 _mintedZOR) {\n        uint256 length = poolInfo.length;\n        // Iterate through each pool and run updatePool()\n        for (uint256 pid = 0; pid < length; ++pid) {\n            _mintedZOR = _mintedZOR.add(this.updatePool(pid));\n        }\n    }\n}\n",
  "sourcePath": "/Users/kristophm/Documents/workspace/zorro-protocol/contracts/controllers/_ZorroControllerPoolMgmt.sol",
  "compiler": {
    "name": "solc",
    "version": "0.8.10+commit.fc410830.Emscripten.clang"
  },
  "schemaVersion": "3.4.10",
  "updatedAt": "2022-11-21T01:26:31.298Z",
  "devdoc": {
    "kind": "dev",
    "methods": {
      "add(uint256,address,bool,address)": {
        "details": "DO NOT add the same Want token more than once. Rewards will be messed up if you do. (Only if Want tokens are stored here.)",
        "params": {
          "_allocPoint": "The number of allocation points for this pool (aka \"multiplier\")",
          "_vault": "The contract address of the underlying vault",
          "_want": "The address of the want token",
          "_withUpdate": "Mass update all pools if set to true"
        }
      },
      "inCaseTokensGetStuck(address,uint256)": {
        "details": "Does not permit usage for the Zorro token",
        "params": {
          "_amount": "token quantity",
          "_token": "ERC20 token address"
        }
      },
      "massUpdatePools()": {
        "details": "Be careful of gas fees!",
        "returns": {
          "_mintedZOR": "total amount of ZOR rewards minted (useful for cross chain)"
        }
      },
      "owner()": {
        "details": "Returns the address of the current owner."
      },
      "poolLength()": {
        "returns": {
          "_0": "Number of pools"
        }
      },
      "renounceOwnership()": {
        "details": "Leaves the contract without owner. It will not be possible to call `onlyOwner` functions anymore. Can only be called by the current owner. NOTE: Renouncing ownership will leave the contract without an owner, thereby removing any functionality that is only available to the owner."
      },
      "resetSyntheticRewardsMinted()": {
        "details": "To be called by Oracle only, when batch burning synthetic minted rewards"
      },
      "resetSyntheticRewardsSlashed()": {
        "details": "To be called by Oracle only, when batch burning synthetic minted rewards"
      },
      "set(uint256,uint256,bool)": {
        "params": {
          "_allocPoint": "The number of allocation points for this pool (aka \"multiplier\")",
          "_pid": "The index of the pool ID",
          "_withUpdate": "Mass update all pools if set to true"
        }
      },
      "setBurnAddress(address)": {
        "params": {
          "_burnAddress": "The burn address on this chain"
        }
      },
      "setKeyAddresses(address,address)": {
        "params": {
          "_ZORRO": "ZOR token address",
          "_defaultStablecoin": "Main stablecoin address (USDC)"
        }
      },
      "setRewardsParams(uint256,uint256[],uint256,uint256)": {
        "details": "NOTE: Must enter all parameters or existing ones will be overwritten!",
        "params": {
          "_baseRewardRateBasisPoints": "Base reward rate factor, in bp",
          "_blocksPerDay": "# of blocks per day for this chain",
          "_chainMultiplier": "Rewards multiplier factor to be applied to this chain",
          "_dailyDistFactors": "Array of [ZORRODailyDistributionFactorBasisPointsMin, ZORRODailyDistributionFactorBasisPointsMax]"
        }
      },
      "setTargetTVLCaptureBasisPoints(uint256)": {
        "params": {
          "_targetTVLCaptureBasisPoints": "Percent of market desired to be captured, in bp. 333 = 3.33%. ONLY to be set on the home chain"
        }
      },
      "setXChainParams(uint256,uint256,address)": {
        "params": {
          "_chainId": "The ind of the chain that this contract is on",
          "_homeChainId": "The chain ID of the home chain",
          "_homeChainZorroController": "The address of the home chain controller"
        }
      },
      "setZorroContracts(address,address)": {
        "params": {
          "_publicPool": "Public pool address (where ZOR minted)",
          "_zorroStakingVault": "Zorro single staking vault address"
        }
      },
      "setZorroControllerOracle(address)": {
        "params": {
          "_zorroControllerOracle": "Address of Chainlink oracle that can interact with this contract"
        }
      },
      "setZorroPerBlock(uint256,uint256,uint256,uint256,uint256)": {
        "details": "Values to be provided by Oracle. Perferable to run daily",
        "params": {
          "_ZorroTotalVaultTVLUSD": "USD value of all TVL locked into the Zorro protocol, across all chains",
          "_publicPoolZORBalance": "Number of ZOR tokens remaining in public pool on home chain",
          "_targetTVLCaptureBasisPoints": "% desired capture of total market TVL, measured in basis points",
          "_totalChainMultipliers": "Sum total of all chain multipliers for each chain",
          "_totalMarketTVLUSD": "Total DeFi market TVL across all chains (measured in USD)"
        }
      },
      "trancheLength(uint256,address)": {
        "params": {
          "_pid": "Index of pool",
          "_user": "wallet address of user"
        },
        "returns": {
          "_0": "Number of tranches"
        }
      },
      "transferOwnership(address)": {
        "details": "Transfers ownership of the contract to a new account (`newOwner`). Can only be called by the current owner."
      },
      "updatePool(uint256)": {
        "params": {
          "_pid": "index of pool"
        },
        "returns": {
          "mintedZOR": "Amount of ZOR rewards minted (useful for cross chain)"
        }
      }
    },
    "version": 1
  },
  "userdoc": {
    "kind": "user",
    "methods": {
      "add(uint256,address,bool,address)": {
        "notice": "Adds a new pool. Can only be called by the owner."
      },
      "inCaseTokensGetStuck(address,uint256)": {
        "notice": "For owner to recover ERC20 tokens on this contract if stuck"
      },
      "massUpdatePools()": {
        "notice": "Updates reward variables of all pools"
      },
      "poolLength()": {
        "notice": "Number of pools in the Zorro protocol"
      },
      "resetSyntheticRewardsMinted()": {
        "notice": "Resets accumulated synthentic rewards minted"
      },
      "resetSyntheticRewardsSlashed()": {
        "notice": "Resets accumulated synthentic rewards minted"
      },
      "set(uint256,uint256,bool)": {
        "notice": "Update the given pool's ZORRO allocation point. Can only be called by the owner."
      },
      "setBurnAddress(address)": {
        "notice": "Setter: Burn address"
      },
      "setKeyAddresses(address,address)": {
        "notice": "Setter: Set key token addresses"
      },
      "setRewardsParams(uint256,uint256[],uint256,uint256)": {
        "notice": "Setter: Reward params (See Tokenomics paper for more details)"
      },
      "setStartBlock(uint256)": {
        "notice": "Setter: Start block for rewards"
      },
      "setTargetTVLCaptureBasisPoints(uint256)": {
        "notice": "Setter: TVL capture (See Tokenomics paper)"
      },
      "setXChainParams(uint256,uint256,address)": {
        "notice": "Setter: Cross chain params"
      },
      "setZorroContracts(address,address)": {
        "notice": "Setter: Set key ZOR contract addresses"
      },
      "setZorroControllerOracle(address)": {
        "notice": "Setter: Set Zorro Controller Oracle"
      },
      "setZorroPerBlock(uint256,uint256,uint256,uint256,uint256)": {
        "notice": "Set the number of Zorro to emit per block based on current market parameters"
      },
      "trancheLength(uint256,address)": {
        "notice": "Number of tranches invested by a given user into a given pool"
      },
      "updatePool(uint256)": {
        "notice": "Update reward variables of the given pool to be up-to-date."
      }
    },
    "version": 1
  }
}