{
  "contractName": "ZorroControllerXChainEarn",
  "abi": [
    {
      "anonymous": false,
      "inputs": [
        {
          "indexed": true,
          "internalType": "address",
          "name": "account",
          "type": "address"
        },
        {
          "indexed": true,
          "internalType": "bytes",
          "name": "foreignAccount",
          "type": "bytes"
        },
        {
          "indexed": true,
          "internalType": "uint256",
          "name": "pid",
          "type": "uint256"
        },
        {
          "indexed": false,
          "internalType": "uint256",
          "name": "wantAmount",
          "type": "uint256"
        }
      ],
      "name": "Deposit",
      "type": "event"
    },
    {
      "anonymous": false,
      "inputs": [
        {
          "indexed": true,
          "internalType": "address",
          "name": "previousOwner",
          "type": "address"
        },
        {
          "indexed": true,
          "internalType": "address",
          "name": "newOwner",
          "type": "address"
        }
      ],
      "name": "OwnershipTransferred",
      "type": "event"
    },
    {
      "anonymous": false,
      "inputs": [
        {
          "indexed": true,
          "internalType": "uint256",
          "name": "_amountZOR",
          "type": "uint256"
        }
      ],
      "name": "RemovedSlashedRewards",
      "type": "event"
    },
    {
      "anonymous": false,
      "inputs": [
        {
          "indexed": false,
          "internalType": "address",
          "name": "account",
          "type": "address"
        },
        {
          "indexed": true,
          "internalType": "uint256",
          "name": "fromPid",
          "type": "uint256"
        },
        {
          "indexed": true,
          "internalType": "uint256",
          "name": "fromTrancheId",
          "type": "uint256"
        },
        {
          "indexed": true,
          "internalType": "uint256",
          "name": "toPid",
          "type": "uint256"
        }
      ],
      "name": "TransferInvestment",
      "type": "event"
    },
    {
      "anonymous": false,
      "inputs": [
        {
          "indexed": true,
          "internalType": "address",
          "name": "account",
          "type": "address"
        },
        {
          "indexed": true,
          "internalType": "bytes",
          "name": "foreignAccount",
          "type": "bytes"
        },
        {
          "indexed": true,
          "internalType": "uint256",
          "name": "pid",
          "type": "uint256"
        },
        {
          "indexed": false,
          "internalType": "uint256",
          "name": "trancheId",
          "type": "uint256"
        },
        {
          "indexed": false,
          "internalType": "uint256",
          "name": "wantAmount",
          "type": "uint256"
        }
      ],
      "name": "Withdraw",
      "type": "event"
    },
    {
      "anonymous": false,
      "inputs": [
        {
          "indexed": true,
          "internalType": "uint256",
          "name": "_remoteChainId",
          "type": "uint256"
        },
        {
          "indexed": true,
          "internalType": "uint256",
          "name": "_buybackAmountUSDC",
          "type": "uint256"
        },
        {
          "indexed": true,
          "internalType": "uint256",
          "name": "_revShareAmountUSDC",
          "type": "uint256"
        }
      ],
      "name": "XChainDistributeEarnings",
      "type": "event"
    },
    {
      "inputs": [
        {
          "internalType": "uint16",
          "name": "",
          "type": "uint16"
        }
      ],
      "name": "LZChainToZorroMap",
      "outputs": [
        {
          "internalType": "uint256",
          "name": "",
          "type": "uint256"
        }
      ],
      "stateMutability": "view",
      "type": "function"
    },
    {
      "inputs": [
        {
          "internalType": "uint256",
          "name": "",
          "type": "uint256"
        }
      ],
      "name": "USDCToZorroLPPoolOtherTokenPath",
      "outputs": [
        {
          "internalType": "address",
          "name": "",
          "type": "address"
        }
      ],
      "stateMutability": "view",
      "type": "function"
    },
    {
      "inputs": [
        {
          "internalType": "uint256",
          "name": "",
          "type": "uint256"
        }
      ],
      "name": "USDCToZorroPath",
      "outputs": [
        {
          "internalType": "address",
          "name": "",
          "type": "address"
        }
      ],
      "stateMutability": "view",
      "type": "function"
    },
    {
      "inputs": [],
      "name": "ZORRO",
      "outputs": [
        {
          "internalType": "address",
          "name": "",
          "type": "address"
        }
      ],
      "stateMutability": "view",
      "type": "function"
    },
    {
      "inputs": [],
      "name": "ZORRODailyDistributionFactorBasisPointsMax",
      "outputs": [
        {
          "internalType": "uint256",
          "name": "",
          "type": "uint256"
        }
      ],
      "stateMutability": "view",
      "type": "function"
    },
    {
      "inputs": [],
      "name": "ZORRODailyDistributionFactorBasisPointsMin",
      "outputs": [
        {
          "internalType": "uint256",
          "name": "",
          "type": "uint256"
        }
      ],
      "stateMutability": "view",
      "type": "function"
    },
    {
      "inputs": [],
      "name": "ZORROPerBlock",
      "outputs": [
        {
          "internalType": "uint256",
          "name": "",
          "type": "uint256"
        }
      ],
      "stateMutability": "view",
      "type": "function"
    },
    {
      "inputs": [
        {
          "internalType": "uint256",
          "name": "",
          "type": "uint256"
        }
      ],
      "name": "ZorroChainToLZMap",
      "outputs": [
        {
          "internalType": "uint16",
          "name": "",
          "type": "uint16"
        }
      ],
      "stateMutability": "view",
      "type": "function"
    },
    {
      "inputs": [],
      "name": "accumulatedSlashedRewards",
      "outputs": [
        {
          "internalType": "uint256",
          "name": "",
          "type": "uint256"
        }
      ],
      "stateMutability": "view",
      "type": "function"
    },
    {
      "inputs": [],
      "name": "baseRewardRateBasisPoints",
      "outputs": [
        {
          "internalType": "uint256",
          "name": "",
          "type": "uint256"
        }
      ],
      "stateMutability": "view",
      "type": "function"
    },
    {
      "inputs": [],
      "name": "blocksPerDay",
      "outputs": [
        {
          "internalType": "uint256",
          "name": "",
          "type": "uint256"
        }
      ],
      "stateMutability": "view",
      "type": "function"
    },
    {
      "inputs": [],
      "name": "burnAddress",
      "outputs": [
        {
          "internalType": "address",
          "name": "",
          "type": "address"
        }
      ],
      "stateMutability": "view",
      "type": "function"
    },
    {
      "inputs": [],
      "name": "chainId",
      "outputs": [
        {
          "internalType": "uint256",
          "name": "",
          "type": "uint256"
        }
      ],
      "stateMutability": "view",
      "type": "function"
    },
    {
      "inputs": [],
      "name": "chainMultiplier",
      "outputs": [
        {
          "internalType": "uint256",
          "name": "",
          "type": "uint256"
        }
      ],
      "stateMutability": "view",
      "type": "function"
    },
    {
      "inputs": [
        {
          "internalType": "uint256",
          "name": "",
          "type": "uint256"
        }
      ],
      "name": "controllerContractsMap",
      "outputs": [
        {
          "internalType": "bytes",
          "name": "",
          "type": "bytes"
        }
      ],
      "stateMutability": "view",
      "type": "function"
    },
    {
      "inputs": [],
      "name": "defaultStablecoin",
      "outputs": [
        {
          "internalType": "address",
          "name": "",
          "type": "address"
        }
      ],
      "stateMutability": "view",
      "type": "function"
    },
    {
      "inputs": [
        {
          "internalType": "uint256",
          "name": "_pid",
          "type": "uint256"
        },
        {
          "internalType": "uint256",
          "name": "_wantAmt",
          "type": "uint256"
        },
        {
          "internalType": "uint256",
          "name": "_weeksCommitted",
          "type": "uint256"
        }
      ],
      "name": "deposit",
      "outputs": [],
      "stateMutability": "nonpayable",
      "type": "function"
    },
    {
      "inputs": [
        {
          "internalType": "uint256",
          "name": "_pid",
          "type": "uint256"
        },
        {
          "internalType": "uint256",
          "name": "_valueUSDC",
          "type": "uint256"
        },
        {
          "internalType": "uint256",
          "name": "_weeksCommitted",
          "type": "uint256"
        },
        {
          "internalType": "uint256",
          "name": "_maxMarketMovement",
          "type": "uint256"
        }
      ],
      "name": "depositFullService",
      "outputs": [],
      "stateMutability": "nonpayable",
      "type": "function"
    },
    {
      "inputs": [
        {
          "internalType": "uint256",
          "name": "",
          "type": "uint256"
        },
        {
          "internalType": "bytes",
          "name": "",
          "type": "bytes"
        },
        {
          "internalType": "uint256",
          "name": "",
          "type": "uint256"
        }
      ],
      "name": "foreignTrancheInfo",
      "outputs": [
        {
          "internalType": "address",
          "name": "",
          "type": "address"
        }
      ],
      "stateMutability": "view",
      "type": "function"
    },
    {
      "inputs": [
        {
          "internalType": "uint256",
          "name": "durationInWeeks",
          "type": "uint256"
        }
      ],
      "name": "getTimeMultiplier",
      "outputs": [
        {
          "internalType": "uint256",
          "name": "",
          "type": "uint256"
        }
      ],
      "stateMutability": "view",
      "type": "function"
    },
    {
      "inputs": [
        {
          "internalType": "uint256",
          "name": "_liquidityCommitted",
          "type": "uint256"
        },
        {
          "internalType": "uint256",
          "name": "_timeMultiplier",
          "type": "uint256"
        }
      ],
      "name": "getUserContribution",
      "outputs": [
        {
          "internalType": "uint256",
          "name": "",
          "type": "uint256"
        }
      ],
      "stateMutability": "pure",
      "type": "function"
    },
    {
      "inputs": [],
      "name": "homeChainId",
      "outputs": [
        {
          "internalType": "uint256",
          "name": "",
          "type": "uint256"
        }
      ],
      "stateMutability": "view",
      "type": "function"
    },
    {
      "inputs": [],
      "name": "homeChainZorroController",
      "outputs": [
        {
          "internalType": "address",
          "name": "",
          "type": "address"
        }
      ],
      "stateMutability": "view",
      "type": "function"
    },
    {
      "inputs": [
        {
          "internalType": "address",
          "name": "_token",
          "type": "address"
        },
        {
          "internalType": "uint256",
          "name": "_amount",
          "type": "uint256"
        }
      ],
      "name": "inCaseTokensGetStuck",
      "outputs": [],
      "stateMutability": "nonpayable",
      "type": "function"
    },
    {
      "inputs": [],
      "name": "isTimeMultiplierActive",
      "outputs": [
        {
          "internalType": "bool",
          "name": "",
          "type": "bool"
        }
      ],
      "stateMutability": "view",
      "type": "function"
    },
    {
      "inputs": [],
      "name": "layerZeroEndpoint",
      "outputs": [
        {
          "internalType": "address",
          "name": "",
          "type": "address"
        }
      ],
      "stateMutability": "view",
      "type": "function"
    },
    {
      "inputs": [],
      "name": "owner",
      "outputs": [
        {
          "internalType": "address",
          "name": "",
          "type": "address"
        }
      ],
      "stateMutability": "view",
      "type": "function"
    },
    {
      "inputs": [
        {
          "internalType": "uint256",
          "name": "",
          "type": "uint256"
        }
      ],
      "name": "poolInfo",
      "outputs": [
        {
          "internalType": "contract IERC20",
          "name": "want",
          "type": "address"
        },
        {
          "internalType": "uint256",
          "name": "allocPoint",
          "type": "uint256"
        },
        {
          "internalType": "uint256",
          "name": "lastRewardBlock",
          "type": "uint256"
        },
        {
          "internalType": "uint256",
          "name": "accZORRORewards",
          "type": "uint256"
        },
        {
          "internalType": "uint256",
          "name": "totalTrancheContributions",
          "type": "uint256"
        },
        {
          "internalType": "address",
          "name": "vault",
          "type": "address"
        }
      ],
      "stateMutability": "view",
      "type": "function"
    },
    {
      "inputs": [],
      "name": "poolLength",
      "outputs": [
        {
          "internalType": "uint256",
          "name": "",
          "type": "uint256"
        }
      ],
      "stateMutability": "view",
      "type": "function"
    },
    {
      "inputs": [],
      "name": "priceFeedLPPoolOtherToken",
      "outputs": [
        {
          "internalType": "contract AggregatorV3Interface",
          "name": "",
          "type": "address"
        }
      ],
      "stateMutability": "view",
      "type": "function"
    },
    {
      "inputs": [],
      "name": "priceFeedZOR",
      "outputs": [
        {
          "internalType": "contract AggregatorV3Interface",
          "name": "",
          "type": "address"
        }
      ],
      "stateMutability": "view",
      "type": "function"
    },
    {
      "inputs": [],
      "name": "publicPool",
      "outputs": [
        {
          "internalType": "address",
          "name": "",
          "type": "address"
        }
      ],
      "stateMutability": "view",
      "type": "function"
    },
    {
      "inputs": [],
      "name": "renounceOwnership",
      "outputs": [],
      "stateMutability": "nonpayable",
      "type": "function"
    },
    {
      "inputs": [
        {
          "internalType": "uint256",
          "name": "_zorroChainId",
          "type": "uint256"
        },
        {
          "internalType": "bytes",
          "name": "_controller",
          "type": "bytes"
        }
      ],
      "name": "setControllerContract",
      "outputs": [],
      "stateMutability": "nonpayable",
      "type": "function"
    },
    {
      "inputs": [
        {
          "internalType": "bool",
          "name": "_isActive",
          "type": "bool"
        }
      ],
      "name": "setIsTimeMultiplierActive",
      "outputs": [],
      "stateMutability": "nonpayable",
      "type": "function"
    },
    {
      "inputs": [
        {
          "internalType": "address",
          "name": "_ZORRO",
          "type": "address"
        },
        {
          "internalType": "address",
          "name": "_defaultStablecoin",
          "type": "address"
        }
      ],
      "name": "setKeyAddresses",
      "outputs": [],
      "stateMutability": "nonpayable",
      "type": "function"
    },
    {
      "inputs": [
        {
          "internalType": "address",
          "name": "_stargateRouter",
          "type": "address"
        },
        {
          "internalType": "uint256",
          "name": "_stargateSwapPoolId",
          "type": "uint256"
        },
        {
          "internalType": "address",
          "name": "_layerZeroEndpoint",
          "type": "address"
        }
      ],
      "name": "setLayerZeroParams",
      "outputs": [],
      "stateMutability": "nonpayable",
      "type": "function"
    },
    {
      "inputs": [
        {
          "internalType": "address",
          "name": "_priceFeedZOR",
          "type": "address"
        },
        {
          "internalType": "address",
          "name": "_priceFeedLPPoolOtherToken",
          "type": "address"
        }
      ],
      "name": "setPriceFeeds",
      "outputs": [],
      "stateMutability": "nonpayable",
      "type": "function"
    },
    {
      "inputs": [
        {
          "internalType": "uint256[]",
          "name": "_blockParams",
          "type": "uint256[]"
        },
        {
          "internalType": "uint256[]",
          "name": "_dailyDistFactors",
          "type": "uint256[]"
        },
        {
          "internalType": "uint256",
          "name": "_chainMultiplier",
          "type": "uint256"
        },
        {
          "internalType": "uint256",
          "name": "_baseRewardRateBasisPoints",
          "type": "uint256"
        }
      ],
      "name": "setRewardsParams",
      "outputs": [],
      "stateMutability": "nonpayable",
      "type": "function"
    },
    {
      "inputs": [
        {
          "internalType": "uint256",
          "name": "_zorroChainId",
          "type": "uint256"
        },
        {
          "internalType": "uint16",
          "name": "_stargatePoolId",
          "type": "uint16"
        }
      ],
      "name": "setStargateDestPoolIds",
      "outputs": [],
      "stateMutability": "nonpayable",
      "type": "function"
    },
    {
      "inputs": [
        {
          "internalType": "uint256",
          "name": "_startBlock",
          "type": "uint256"
        }
      ],
      "name": "setStartBlock",
      "outputs": [],
      "stateMutability": "nonpayable",
      "type": "function"
    },
    {
      "inputs": [
        {
          "internalType": "uint256",
          "name": "_targetTVLCaptureBasisPoints",
          "type": "uint256"
        }
      ],
      "name": "setTargetTVLCaptureBasisPoints",
      "outputs": [],
      "stateMutability": "nonpayable",
      "type": "function"
    },
    {
      "inputs": [
        {
          "internalType": "address[]",
          "name": "_path",
          "type": "address[]"
        }
      ],
      "name": "setUSDCToZORPath",
      "outputs": [],
      "stateMutability": "nonpayable",
      "type": "function"
    },
    {
      "inputs": [
        {
          "internalType": "address[]",
          "name": "_path",
          "type": "address[]"
        }
      ],
      "name": "setUSDCToZorroLPPoolOtherTokenPath",
      "outputs": [],
      "stateMutability": "nonpayable",
      "type": "function"
    },
    {
      "inputs": [
        {
          "internalType": "address",
          "name": "_uniV2Router",
          "type": "address"
        }
      ],
      "name": "setUniRouter",
      "outputs": [],
      "stateMutability": "nonpayable",
      "type": "function"
    },
    {
      "inputs": [
        {
          "internalType": "uint256",
          "name": "_chainId",
          "type": "uint256"
        },
        {
          "internalType": "uint256",
          "name": "_homeChainId",
          "type": "uint256"
        },
        {
          "internalType": "address",
          "name": "_homeChainZorroController",
          "type": "address"
        }
      ],
      "name": "setXChainParams",
      "outputs": [],
      "stateMutability": "nonpayable",
      "type": "function"
    },
    {
      "inputs": [
        {
          "internalType": "uint256",
          "name": "_zorroChainId",
          "type": "uint256"
        },
        {
          "internalType": "uint16",
          "name": "_lzChainId",
          "type": "uint16"
        }
      ],
      "name": "setZorroChainToLZMap",
      "outputs": [],
      "stateMutability": "nonpayable",
      "type": "function"
    },
    {
      "inputs": [
        {
          "internalType": "address",
          "name": "_publicPool",
          "type": "address"
        },
        {
          "internalType": "address",
          "name": "_zorroStakingVault",
          "type": "address"
        }
      ],
      "name": "setZorroContracts",
      "outputs": [],
      "stateMutability": "nonpayable",
      "type": "function"
    },
    {
      "inputs": [
        {
          "internalType": "address",
          "name": "_zorroControllerOracle",
          "type": "address"
        }
      ],
      "name": "setZorroControllerOracle",
      "outputs": [],
      "stateMutability": "nonpayable",
      "type": "function"
    },
    {
      "inputs": [
        {
          "internalType": "address",
          "name": "_zorroLPPool",
          "type": "address"
        },
        {
          "internalType": "address",
          "name": "_zorroLPPoolOtherToken",
          "type": "address"
        }
      ],
      "name": "setZorroLPPoolParams",
      "outputs": [],
      "stateMutability": "nonpayable",
      "type": "function"
    },
    {
      "inputs": [
        {
          "internalType": "uint256",
          "name": "_totalChainMultipliers",
          "type": "uint256"
        },
        {
          "internalType": "uint256",
          "name": "_totalMarketTVLUSD",
          "type": "uint256"
        },
        {
          "internalType": "uint256",
          "name": "_targetTVLCaptureBasisPoints",
          "type": "uint256"
        },
        {
          "internalType": "uint256",
          "name": "_ZorroTotalVaultTVLUSD",
          "type": "uint256"
        },
        {
          "internalType": "uint256",
          "name": "_publicPoolZORBalance",
          "type": "uint256"
        }
      ],
      "name": "setZorroPerBlock",
      "outputs": [],
      "stateMutability": "nonpayable",
      "type": "function"
    },
    {
      "inputs": [
        {
          "internalType": "uint256",
          "name": "",
          "type": "uint256"
        }
      ],
      "name": "stargateDestPoolIds",
      "outputs": [
        {
          "internalType": "uint256",
          "name": "",
          "type": "uint256"
        }
      ],
      "stateMutability": "view",
      "type": "function"
    },
    {
      "inputs": [],
      "name": "stargateRouter",
      "outputs": [
        {
          "internalType": "address",
          "name": "",
          "type": "address"
        }
      ],
      "stateMutability": "view",
      "type": "function"
    },
    {
      "inputs": [],
      "name": "stargateSwapPoolId",
      "outputs": [
        {
          "internalType": "uint256",
          "name": "",
          "type": "uint256"
        }
      ],
      "stateMutability": "view",
      "type": "function"
    },
    {
      "inputs": [],
      "name": "startBlock",
      "outputs": [
        {
          "internalType": "uint256",
          "name": "",
          "type": "uint256"
        }
      ],
      "stateMutability": "view",
      "type": "function"
    },
    {
      "inputs": [],
      "name": "targetTVLCaptureBasisPoints",
      "outputs": [
        {
          "internalType": "uint256",
          "name": "",
          "type": "uint256"
        }
      ],
      "stateMutability": "view",
      "type": "function"
    },
    {
      "inputs": [],
      "name": "tokenUSDC",
      "outputs": [
        {
          "internalType": "address",
          "name": "",
          "type": "address"
        }
      ],
      "stateMutability": "view",
      "type": "function"
    },
    {
      "inputs": [],
      "name": "totalAllocPoint",
      "outputs": [
        {
          "internalType": "uint256",
          "name": "",
          "type": "uint256"
        }
      ],
      "stateMutability": "view",
      "type": "function"
    },
    {
      "inputs": [
        {
          "internalType": "uint256",
          "name": "",
          "type": "uint256"
        },
        {
          "internalType": "address",
          "name": "",
          "type": "address"
        },
        {
          "internalType": "uint256",
          "name": "",
          "type": "uint256"
        }
      ],
      "name": "trancheInfo",
      "outputs": [
        {
          "internalType": "uint256",
          "name": "contribution",
          "type": "uint256"
        },
        {
          "internalType": "uint256",
          "name": "timeMultiplier",
          "type": "uint256"
        },
        {
          "internalType": "uint256",
          "name": "rewardDebt",
          "type": "uint256"
        },
        {
          "internalType": "uint256",
          "name": "durationCommittedInWeeks",
          "type": "uint256"
        },
        {
          "internalType": "uint256",
          "name": "enteredVaultAt",
          "type": "uint256"
        },
        {
          "internalType": "uint256",
          "name": "exitedVaultAt",
          "type": "uint256"
        }
      ],
      "stateMutability": "view",
      "type": "function"
    },
    {
      "inputs": [
        {
          "internalType": "uint256",
          "name": "_pid",
          "type": "uint256"
        },
        {
          "internalType": "address",
          "name": "_user",
          "type": "address"
        }
      ],
      "name": "trancheLength",
      "outputs": [
        {
          "internalType": "uint256",
          "name": "",
          "type": "uint256"
        }
      ],
      "stateMutability": "view",
      "type": "function"
    },
    {
      "inputs": [
        {
          "internalType": "uint256",
          "name": "_fromPid",
          "type": "uint256"
        },
        {
          "internalType": "uint256",
          "name": "_fromTrancheId",
          "type": "uint256"
        },
        {
          "internalType": "uint256",
          "name": "_toPid",
          "type": "uint256"
        },
        {
          "internalType": "uint256",
          "name": "_maxMarketMovement",
          "type": "uint256"
        }
      ],
      "name": "transferInvestment",
      "outputs": [],
      "stateMutability": "nonpayable",
      "type": "function"
    },
    {
      "inputs": [
        {
          "internalType": "address",
          "name": "newOwner",
          "type": "address"
        }
      ],
      "name": "transferOwnership",
      "outputs": [],
      "stateMutability": "nonpayable",
      "type": "function"
    },
    {
      "inputs": [],
      "name": "uniRouterAddress",
      "outputs": [
        {
          "internalType": "address",
          "name": "",
          "type": "address"
        }
      ],
      "stateMutability": "view",
      "type": "function"
    },
    {
      "inputs": [
        {
          "internalType": "uint256",
          "name": "_pid",
          "type": "uint256"
        }
      ],
      "name": "updatePool",
      "outputs": [
        {
          "internalType": "uint256",
          "name": "",
          "type": "uint256"
        }
      ],
      "stateMutability": "nonpayable",
      "type": "function"
    },
    {
      "inputs": [
        {
          "internalType": "uint256",
          "name": "_pid",
          "type": "uint256"
        },
        {
          "internalType": "uint256",
          "name": "_trancheId",
          "type": "uint256"
        },
        {
          "internalType": "bool",
          "name": "_harvestOnly",
          "type": "bool"
        }
      ],
      "name": "withdraw",
      "outputs": [
        {
          "internalType": "uint256",
          "name": "",
          "type": "uint256"
        }
      ],
      "stateMutability": "nonpayable",
      "type": "function"
    },
    {
      "inputs": [
        {
          "internalType": "uint256",
          "name": "_pid",
          "type": "uint256"
        }
      ],
      "name": "withdrawAll",
      "outputs": [],
      "stateMutability": "nonpayable",
      "type": "function"
    },
    {
      "inputs": [
        {
          "internalType": "uint256",
          "name": "_pid",
          "type": "uint256"
        },
        {
          "internalType": "uint256",
          "name": "_trancheId",
          "type": "uint256"
        },
        {
          "internalType": "bool",
          "name": "_harvestOnly",
          "type": "bool"
        },
        {
          "internalType": "uint256",
          "name": "_maxMarketMovement",
          "type": "uint256"
        }
      ],
      "name": "withdrawalFullService",
      "outputs": [
        {
          "internalType": "uint256",
          "name": "",
          "type": "uint256"
        }
      ],
      "stateMutability": "nonpayable",
      "type": "function"
    },
    {
      "inputs": [],
      "name": "zorroControllerOracle",
      "outputs": [
        {
          "internalType": "address",
          "name": "",
          "type": "address"
        }
      ],
      "stateMutability": "view",
      "type": "function"
    },
    {
      "inputs": [],
      "name": "zorroLPPool",
      "outputs": [
        {
          "internalType": "address",
          "name": "",
          "type": "address"
        }
      ],
      "stateMutability": "view",
      "type": "function"
    },
    {
      "inputs": [],
      "name": "zorroLPPoolOtherToken",
      "outputs": [
        {
          "internalType": "address",
          "name": "",
          "type": "address"
        }
      ],
      "stateMutability": "view",
      "type": "function"
    },
    {
      "inputs": [],
      "name": "zorroStakingVault",
      "outputs": [
        {
          "internalType": "address",
          "name": "",
          "type": "address"
        }
      ],
      "stateMutability": "view",
      "type": "function"
    },
    {
      "inputs": [
        {
          "internalType": "uint256",
          "name": "_amountUSDCBuyback",
          "type": "uint256"
        },
        {
          "internalType": "uint256",
          "name": "_amountUSDCRevShare",
          "type": "uint256"
        },
        {
          "internalType": "uint256",
          "name": "_accSlashedRewards",
          "type": "uint256"
        },
        {
          "internalType": "uint256",
          "name": "_maxMarketMovement",
          "type": "uint256"
        }
      ],
      "name": "checkXChainDistributeEarningsFee",
      "outputs": [
        {
          "internalType": "uint256",
          "name": "",
          "type": "uint256"
        }
      ],
      "stateMutability": "view",
      "type": "function"
    },
    {
      "inputs": [
        {
          "internalType": "uint256",
          "name": "_pid",
          "type": "uint256"
        },
        {
          "internalType": "uint256",
          "name": "_buybackAmountUSDC",
          "type": "uint256"
        },
        {
          "internalType": "uint256",
          "name": "_revShareAmountUSDC",
          "type": "uint256"
        },
        {
          "internalType": "uint256",
          "name": "_maxMarketMovement",
          "type": "uint256"
        }
      ],
      "name": "sendXChainDistributeEarningsRequest",
      "outputs": [],
      "stateMutability": "payable",
      "type": "function"
    },
    {
      "inputs": [
        {
          "internalType": "uint256",
          "name": "_remoteChainId",
          "type": "uint256"
        },
        {
          "internalType": "uint256",
          "name": "_amountUSDCBuyback",
          "type": "uint256"
        },
        {
          "internalType": "uint256",
          "name": "_amountUSDCRevShare",
          "type": "uint256"
        },
        {
          "internalType": "uint256",
          "name": "_accSlashedRewards",
          "type": "uint256"
        },
        {
          "internalType": "uint256",
          "name": "_maxMarketMovement",
          "type": "uint256"
        }
      ],
      "name": "receiveXChainDistributionRequest",
      "outputs": [],
      "stateMutability": "nonpayable",
      "type": "function"
    }
  ],
  "bytecode": "0x60806040523480156200001157600080fd5b50620000386200002964010000000062000042810204565b64010000000062000046810204565b6001805562000096565b3390565b60008054600160a060020a03838116600160a060020a0319831681178455604051919092169283917f8be0079c531659141344cd1fd0a4f28419497f9722a3daafe3b4186f6b6457e09190a35050565b61439080620000a66000396000f3fe60806040526004361061044d576000357c01000000000000000000000000000000000000000000000000000000009004806379777d8111610246578063a9e56f3c1161014b578063cb9c2f68116100d3578063ef12696711610097578063ef12696714610d81578063f2fde38b14610d97578063f35e4a6e14610db7578063f63cce3714610dd7578063fc39a29e14610df757600080fd5b8063cb9c2f6814610cf5578063cd17ac1414610d0b578063e940f6e114610d2b578063ebfba7c414610d41578063ee4e268714610d6157600080fd5b8063bdb2fc8b1161011a578063bdb2fc8b14610c5f578063c293614214610c7f578063c6d758cb14610c95578063c86d404014610cb5578063c9522cf114610cd557600080fd5b8063a9e56f3c14610bb2578063b22f325114610bd2578063b4b4e9eb14610bf2578063b61bb80a14610c3f57600080fd5b8063941d3fd0116101ce5780639a8a05921161019d5780639a8a059214610b265780639cebd37114610b3c5780639ec68c7614610b52578063a4d2b08314610b72578063a80bee0714610b9257600080fd5b8063941d3fd014610a845780639568786c14610ac6578063958e2d3114610ae65780639a448c0c14610b0657600080fd5b80637f633ea8116102155780637f633ea8146109e6578063823c43d014610a065780638b5694d614610a265780638c157db214610a465780638da5cb5b14610a6657600080fd5b806379777d81146109665780637bd45522146109865780637bf604d8146109a65780637e37c769146109c657600080fd5b8063459f4753116103575780635790f599116102df5780636b8eb2e5116102a35780636b8eb2e5146108db5780636c78d49c146108fb57806370d5ae051461091b578063715018a614610931578063745af0a81461094657600080fd5b80635790f59914610838578063593af9fe1461084e5780635c63fa871461087b578063668ababb1461089b578063693a090b146108bb57600080fd5b80634cfea68a116103265780634cfea68a146107ac5780635051d371146107c257806351eb05a6146107e257806353f73f87146108025780635527a6f91461082257600080fd5b8063459f47531461071f578063464e3c8b146107635780634780f9f51461077657806348cd4cb11461079657600080fd5b8063219b38b8116103da5780633332fcf4116103a95780633332fcf41461069357806333cfcd3b146106b35780633b710688146106d35780633b9ce565146106e95780633bbc1ffc146106ff57600080fd5b8063219b38b8146105c257806325b43830146105ef578063293da9d41461060f5780632e31283d1461063b57600080fd5b80630aa0988e116104215780630aa0988e146104f0578063104a61321461051057806313a2e880146105305780631526fe271461055057806317caf6f1146105ac57600080fd5b8062aeef8a14610452578063068f158d1461047457806307968db114610494578063081e3eda146104d1575b600080fd5b34801561045e57600080fd5b5061047261046d366004613964565b610e17565b005b34801561048057600080fd5b5061047261048f3660046139a7565b610ed4565b3480156104a057600080fd5b506024546104b490600160a060020a031681565b604051600160a060020a0390911681526020015b60405180910390f35b3480156104dd57600080fd5b506013545b6040519081526020016104c8565b3480156104fc57600080fd5b5061047261050b3660046139a7565b610f2f565b34801561051c57600080fd5b506104b461052b3660046139da565b610f8a565b34801561053c57600080fd5b5061047261054b3660046139f3565b610fb4565b34801561055c57600080fd5b5061057061056b3660046139da565b611000565b60408051600160a060020a03978816815260208101969096528501939093526060840191909152608083015290911660a082015260c0016104c8565b3480156105b857600080fd5b506104e2600f5481565b3480156105ce57600080fd5b506104e26105dd3660046139da565b60236020526000908152604090205481565b3480156105fb57600080fd5b5061047261060a366004613a6f565b611053565b34801561061b57600080fd5b506104e261062a366004613abc565b602080526000908152604090205481565b34801561064757600080fd5b506104b4610656366004613b21565b60156020908152600093845260408085208451808601840180519281529084019584019590952094529290528252902054600160a060020a031681565b34801561069f57600080fd5b506104726106ae366004613bc9565b61109e565b3480156106bf57600080fd5b506104e26106ce366004613c83565b6110e2565b3480156106df57600080fd5b506104e2600e5481565b3480156106f557600080fd5b506104e2600c5481565b34801561070b57600080fd5b5061047261071a3660046139da565b61117c565b34801561072b57600080fd5b5061075061073a3660046139da565b601f6020526000908152604090205461ffff1681565b60405161ffff90911681526020016104c8565b610472610771366004613cbc565b61120b565b34801561078257600080fd5b50610472610791366004613cbc565b6114dc565b3480156107a257600080fd5b506104e260075481565b3480156107b857600080fd5b506104e260085481565b3480156107ce57600080fd5b506104726107dd366004613cee565b611585565b3480156107ee57600080fd5b506104e26107fd3660046139da565b6115d4565b34801561080e57600080fd5b506104e261081d366004613d09565b611753565b34801561082e57600080fd5b506104e2600b5481565b34801561084457600080fd5b506104e260225481565b34801561085a57600080fd5b5061086e6108693660046139da565b61177b565b6040516104c89190613d84565b34801561088757600080fd5b50610472610896366004613d97565b611815565b3480156108a757600080fd5b506004546104b490600160a060020a031681565b3480156108c757600080fd5b506019546104b490600160a060020a031681565b3480156108e757600080fd5b506104726108f6366004613a6f565b61186c565b34801561090757600080fd5b50610472610916366004613dcc565b61196b565b34801561092757600080fd5b506104b461dead81565b34801561093d57600080fd5b506104726119d8565b34801561095257600080fd5b506104e2610961366004613de9565b611a11565b34801561097257600080fd5b50601d546104b490600160a060020a031681565b34801561099257600080fd5b506104726109a1366004613e28565b611a8b565b3480156109b257600080fd5b506017546104b490600160a060020a031681565b3480156109d257600080fd5b506104726109e1366004613cbc565b611aec565b3480156109f257600080fd5b50610472610a01366004613e5b565b611c6d565b348015610a1257600080fd5b506016546104b490600160a060020a031681565b348015610a3257600080fd5b50610472610a41366004613e5b565b611cc7565b348015610a5257600080fd5b506002546104b490600160a060020a031681565b348015610a7257600080fd5b50600054600160a060020a03166104b4565b348015610a9057600080fd5b50601654610ab69074010000000000000000000000000000000000000000900460ff1681565b60405190151581526020016104c8565b348015610ad257600080fd5b506104e2610ae13660046139da565b611d0d565b348015610af257600080fd5b50610472610b013660046139da565b611dfe565b348015610b1257600080fd5b506104b4610b213660046139da565b611e68565b348015610b3257600080fd5b506104e260105481565b348015610b4857600080fd5b506104e2600d5481565b348015610b5e57600080fd5b50610472610b6d3660046139a7565b611e78565b348015610b7e57600080fd5b506005546104b490600160a060020a031681565b348015610b9e57600080fd5b506104e2610bad366004613e7e565b611ed3565b348015610bbe57600080fd5b506021546104b490600160a060020a031681565b348015610bde57600080fd5b50601c546104b490600160a060020a031681565b348015610bfe57600080fd5b50610c12610c0d366004613ea0565b611eef565b604080519687526020870195909552938501929092526060840152608083015260a082015260c0016104c8565b348015610c4b57600080fd5b506003546104b490600160a060020a031681565b348015610c6b57600080fd5b50610472610c7a366004613bc9565b611f50565b348015610c8b57600080fd5b506104e260095481565b348015610ca157600080fd5b50610472610cb0366004613ed5565b611f90565b348015610cc157600080fd5b506006546104b490600160a060020a031681565b348015610ce157600080fd5b506104e2610cf0366004613cbc565b612058565b348015610d0157600080fd5b506104e2600a5481565b348015610d1757600080fd5b50610472610d26366004613f43565b61217c565b348015610d3757600080fd5b506104e260255481565b348015610d4d57600080fd5b506018546104b490600160a060020a031681565b348015610d6d57600080fd5b50610472610d7c366004613cee565b61222f565b348015610d8d57600080fd5b506104e260115481565b348015610da357600080fd5b50610472610db2366004613cee565b61227e565b348015610dc357600080fd5b50610472610dd23660046139da565b612336565b348015610de357600080fd5b50610472610df23660046139a7565b6123bb565b348015610e0357600080fd5b506012546104b490600160a060020a031681565b60026001541415610e465760405160e560020a62461bcd028152600401610e3d90613fc1565b60405180910390fd5b6002600181905550600060138481548110610e6357610e63613ff8565b600091825260209091206006909102018054909150610e8c90600160a060020a03163085612473565b60058101548154610eac91600160a060020a0391821691339116866125b4565b610ec9843360405180602001604052806000815250868642612605565b505060018055505050565b600054600160a060020a03163314610f015760405160e560020a62461bcd028152600401610e3d90614011565b601c8054600160a060020a03938416600160a060020a031991821617909155601d8054929093169116179055565b600054600160a060020a03163314610f5c5760405160e560020a62461bcd028152600401610e3d90614011565b60028054600160a060020a03938416600160a060020a03199182161790915560038054929093169116179055565b601a8181548110610f9a57600080fd5b600091825260209091200154600160a060020a0316905081565b600054600160a060020a03163314610fe15760405160e560020a62461bcd028152600401610e3d90614011565b6000838152601e60205260409020610ffa908383613876565b50505050565b6013818154811061101057600080fd5b6000918252602090912060069091020180546001820154600283015460038401546004850154600590950154600160a060020a0394851696509294919390921686565b60405160e560020a62461bcd02815260206004820152601760248201527f696c6c6567616c2064756d6d792066756e632063616c6c0000000000000000006044820152606401610e3d565b600054600160a060020a031633146110cb5760405160e560020a62461bcd028152600401610e3d90614011565b80516110de90601a9060208401906138fa565b5050565b60006002600154141561110a5760405160e560020a62461bcd028152600401610e3d90613fc1565b600260018190555060006111308533604051806020016040528060008152508787612919565b905061116f3382600001516013888154811061114e5761114e613ff8565b6000918252602090912060069091020154600160a060020a03169190612de9565b5160018055949350505050565b600054600160a060020a031633146111a95760405160e560020a62461bcd028152600401610e3d90614011565b601254600160a060020a031630146112065760405160e560020a62461bcd02815260206004820152600f60248201527f6f6e6c7920686f6d6520636861696e00000000000000000000000000000000006044820152606401610e3d565b600a55565b600260015414156112315760405160e560020a62461bcd028152600401610e3d90613fc1565b6002600181905550836013818154811061124d5761124d613ff8565b6000918252602090912060069091020160050154600160a060020a031633600160a060020a0316146112c45760405160e560020a62461bcd02815260206004820152600e60248201527f6f6e6c7920726567207661756c740000000000000000000000000000000000006044820152606401610e3d565b600034116113175760405160e560020a62461bcd02815260206004820152601160248201527f4e6f2066656573207375626d69747465640000000000000000000000000000006044820152606401610e3d565b60006113238585612e37565b60035490915061133d90600160a060020a03163083612473565b60035461135590600160a060020a03163330846125b4565b6003546040517f70a08231000000000000000000000000000000000000000000000000000000008152306004820152600091600160a060020a0316906370a0823190602401602060405180830381865afa1580156113b7573d6000803e3d6000fd5b505050506040513d601f19601f820116820180604052508101906113db9190614046565b905060006113e7612e43565b905060006113fa6010548989858a612e79565b6010546000908152601e602052604081208054929350909161141b9061405f565b80601f01602080910402602001604051908101604052809291908181526020018280546114479061405f565b80156114945780601f1061146957610100808354040283529160200191611494565b820191906000526020600020905b81548152906001019060200180831161147757829003601f168201915b505050505090506114cc6040518060a00160405280601154815260200186815260200183815260200184815260200189815250612f01565b5050600180555050505050505050565b600260015414156115025760405160e560020a62461bcd028152600401610e3d90613fc1565b600260018190555060006013858154811061151f5761151f613ff8565b6000918252602090912060056006909202010154600354600160a060020a03918216925061154f91163086612473565b60035461156790600160a060020a03163383876125b4565b610ec98533604051806020016040528060008152508787428861300a565b600054600160a060020a031633146115b25760405160e560020a62461bcd028152600401610e3d90614011565b60168054600160a060020a031916600160a060020a0392909216919091179055565b600080601383815481106115ea576115ea613ff8565b906000526020600020906006020190508060020154431161160e5750600092915050565b600061162782600201544361311b90919063ffffffff16565b90506000811161163b575060009392505050565b600061166c600f5461166685600101546116606009548761312790919063ffffffff16565b90613127565b90613133565b601254909150600160a060020a03163014156116c5576004546002546116a091600160a060020a03918216911630846125b4565b60038301546116af9082612e37565b6003840155505043600290910155506000919050565b6002546040517f40c10f1900000000000000000000000000000000000000000000000000000000815230600482015260248101839052600160a060020a03909116906340c10f1990604401600060405180830381600087803b15801561172a57600080fd5b505af115801561173e573d6000803e3d6000fd5b5092979650505050505050565b505050919050565b6000918252601460209081526040808420600160a060020a0393909316845291905290205490565b601e60205260009081526040902080546117949061405f565b80601f01602080910402602001604051908101604052809291908181526020018280546117c09061405f565b801561180d5780601f106117e25761010080835404028352916020019161180d565b820191906000526020600020905b8154815290600101906020018083116117f057829003601f168201915b505050505081565b600054600160a060020a031633146118425760405160e560020a62461bcd028152600401610e3d90614011565b60109290925560115560128054600160a060020a031916600160a060020a03909216919091179055565b601654600160a060020a031633600160a060020a0316146118d25760405160e560020a62461bcd02815260206004820152601160248201527f6f6e6c79205a6f72726f206f7261636c650000000000000000000000000000006044820152606401610e3d565b60006118f4836116666118e787612710613133565b600e54611660908a613127565b9050600c548111156119095750600c54611918565b600b548110156119185750600b545b600061192a6127106116668585613127565b905060006119478861166684600d5461312790919063ffffffff16565b905061195e6008548261313390919063ffffffff16565b6009555050505050505050565b600054600160a060020a031633146119985760405160e560020a62461bcd028152600401610e3d90614011565b60168054911515740100000000000000000000000000000000000000000274ff000000000000000000000000000000000000000019909216919091179055565b600054600160a060020a03163314611a055760405160e560020a62461bcd028152600401610e3d90614011565b611a0f600061313f565b565b600060026001541415611a395760405160e560020a62461bcd028152600401610e3d90613fc1565b60026001819055506000611a6033604051806020016040528060008152508888888861318f565b5050600354919250611a7e91600160a060020a031690503383612de9565b6001805595945050505050565b600054600160a060020a03163314611ab85760405160e560020a62461bcd028152600401610e3d90614011565b60218054600160a060020a03948516600160a060020a03199182161790915560229290925560248054919093169116179055565b60026001541415611b125760405160e560020a62461bcd028152600401610e3d90613fc1565b600260015560008481526014602090815260408083203384529091528120805485908110611b4257611b42613ff8565b600091825260208083206003600690930201919091015487835260148252604080842033855290925290822080549193509086908110611b8457611b84613ff8565b90600052602060002090600602016004015490506000611bb83360405180602001604052806000815250898960008961318f565b50505090506060600360009054906101000a9004600160a060020a031681600081518110611be857611be8613ff8565b6020026020010190600160a060020a03169081600160a060020a031681525050611c268633604051806020016040528060008152508588888b61300a565b604051338152869088908a907f67e7aba7263d8fbeb0cd9a2f4008f060a6a03f46c1d7f9d0550f0b93e96e96f89060200160405180910390a4505060018055505050505050565b600054600160a060020a03163314611c9a5760405160e560020a62461bcd028152600401610e3d90614011565b6000828152601f60209081526040808320805461ffff90951661ffff199095168517905592825280522055565b600054600160a060020a03163314611cf45760405160e560020a62461bcd028152600401610e3d90614011565b60009182526023602052604090912061ffff9091169055565b60165460009074010000000000000000000000000000000000000000900460ff1615611ded576040517f677342ce00000000000000000000000000000000000000000000000000000000815260048101839052611de79064e8d4a510009061166090611ddf9073__CustomMath____________________________9063677342ce90602401602060405180830381865af4158015611daf573d6000803e3d6000fd5b505050506040513d601f19601f82011682018060405250810190611dd39190614046565b6116606002600a613133565b600190612e37565b92915050565b5064e8d4a51000919050565b919050565b60026001541415611e245760405160e560020a62461bcd028152600401610e3d90613fc1565b60026001556000611e358233611753565b905060005b81811015611e5f57611e4e838260006110e2565b50611e58816140b6565b9050611e3a565b50506001805550565b601b8181548110610f9a57600080fd5b600054600160a060020a03163314611ea55760405160e560020a62461bcd028152600401610e3d90614011565b60178054600160a060020a03938416600160a060020a03199182161790915560188054929093169116179055565b6000611ee864e8d4a510006116668585613127565b9392505050565b60146020528260005260406000206020528160005260406000208181548110611f1757600080fd5b60009182526020909120600690910201805460018201546002830154600384015460048501546005909501549397509195509350919086565b600054600160a060020a03163314611f7d5760405160e560020a62461bcd028152600401610e3d90614011565b80516110de90601b9060208401906138fa565b600054600160a060020a03163314611fbd5760405160e560020a62461bcd028152600401610e3d90614011565b600254600160a060020a03838116911614156120445760405160e560020a62461bcd02815260206004820152603560248201527f217361666520746f20757365205a6f72726f20746f6b656e20696e2066756e6360448201527f20696e43617365546f6b656e73476574537475636b00000000000000000000006064820152608401610e3d565b6110de600160a060020a0383163383612de9565b604080516060808201835260008083526020830181905292820152600061208460105488888888612e79565b601254604051600160a060020a039091166c0100000000000000000000000002602082015290915060009060340160408051601f198184030181528282526021546011546000908152601f602052928320547f0a5123690000000000000000000000000000000000000000000000000000000085529194509192600160a060020a0390921691630a5123699161212c9161ffff90911690600190879089908b906004016140fa565b6040805180830381865afa158015612148573d6000803e3d6000fd5b505050506040513d601f19601f8201168201806040525081019061216c9190614146565b509450505050505b949350505050565b600054600160a060020a031633146121a95760405160e560020a62461bcd028152600401610e3d90614011565b858560018181106121bc576121bc613ff8565b602002919091013560085550858560028181106121db576121db613ff8565b60200291909101356009555083836000816121f8576121f8613ff8565b6020029190910135600b55508383600181811061221757612217613ff8565b6020029190910135600c5550600e55600d5550505050565b600054600160a060020a0316331461225c5760405160e560020a62461bcd028152600401610e3d90614011565b60198054600160a060020a031916600160a060020a0392909216919091179055565b600054600160a060020a031633146122ab5760405160e560020a62461bcd028152600401610e3d90614011565b600160a060020a03811661232a5760405160e560020a62461bcd02815260206004820152602660248201527f4f776e61626c653a206e6577206f776e657220697320746865207a65726f206160448201527f64647265737300000000000000000000000000000000000000000000000000006064820152608401610e3d565b6123338161313f565b50565b600054600160a060020a031633146123635760405160e560020a62461bcd028152600401610e3d90614011565b600754156123b65760405160e560020a62461bcd02815260206004820152601560248201527f626c6f636b506172616d7320696d6d757461626c6500000000000000000000006044820152606401610e3d565b600755565b600054600160a060020a031633146123e85760405160e560020a62461bcd028152600401610e3d90614011565b601254600160a060020a031630146124455760405160e560020a62461bcd02815260206004820152600f60248201527f6f6e6c7920686f6d6520636861696e00000000000000000000000000000000006044820152606401610e3d565b60048054600160a060020a03938416600160a060020a03199182161790915560058054929093169116179055565b6040517fdd62ed3e000000000000000000000000000000000000000000000000000000008152306004820152600160a060020a038381166024830152600091839186169063dd62ed3e90604401602060405180830381865afa1580156124dd573d6000803e3d6000fd5b505050506040513d601f19601f820116820180604052508101906125019190614046565b61250b919061416a565b604051600160a060020a038516602482015260448101829052909150610ffa9085907f095ea7b300000000000000000000000000000000000000000000000000000000906064015b60408051601f198184030181529190526020810180517bffffffffffffffffffffffffffffffffffffffffffffffffffffffff167bffffffffffffffffffffffffffffffffffffffffffffffffffffffff19909316929092179091526132a9565b604051600160a060020a0380851660248301528316604482015260648101829052610ffa9085907f23b872dd0000000000000000000000000000000000000000000000000000000090608401612553565b6000806013888154811061261b5761261b613ff8565b906000526020600020906006020190506000851161267e5760405160e560020a62461bcd02815260206004820152601560248201527f5f77616e74416d74206d757374206265203e20302100000000000000000000006044820152606401610e3d565b612687886115d4565b915086600160a060020a03811661272e5760008751116127125760405160e560020a62461bcd02815260206004820152602c60248201527f4e65697468657220666f726569676e2061636374206e6f72206c6f63616c206160448201527f6363742070726f766964656400000000000000000000000000000000000000006064820152608401610e3d565b61271b87614182565b6c01000000000000000000000000900490505b600060138a8154811061274357612743613ff8565b60009182526020909120600690910201600501546040517fba0bb4ab000000000000000000000000000000000000000000000000000000008152600160a060020a038481166004830152602482018a90529091169063ba0bb4ab906044016020604051808303816000875af11580156127c0573d6000803e3d6000fd5b505050506040513d601f19601f820116820180604052508101906127e49190614046565b600580549085015491925064e8d4a5100091600160a060020a039081169116146128145761281187611d0d565b90505b60006128208383611ed3565b60048601549091506128329082612e37565b6004860181905560009061284f906116668464e8d4a51000613127565b905060006040518060c0016040528084815260200185815260200161288a64e8d4a51000611666868c6003015461312790919063ffffffff16565b81526020018b81526020018a8152602001600081525090506128ae8e878e84613391565b8d8c6040516128bd91906141bc565b604051809103902087600160a060020a03167fc6b1f1535b3bb3bdffa2f97a671ab7bd6f2512deec58103fa47eb40ed95274278e60405161290091815260200190565b60405180910390a4505050505050509695505050505050565b6129446040518060800160405280600081526020016000815260200160008152602001600081525090565b600160a060020a03851615801561295c575060008451115b806129795750600160a060020a0385161580159061297957508351155b6129c85760405160e560020a62461bcd02815260206004820152601d60248201527f4f6e6c79206f6e65206163636f756e74207479706520616c6c6f7765640000006044820152606401610e3d565b60006129d687858789613480565b90506000601388815481106129ed576129ed613ff8565b906000526020600020906006020190506000826000015111612a545760405160e560020a62461bcd02815260206004820152601960248201527f7472616e6368652e636f6e747269627574696f6e2069732030000000000000006044820152606401610e3d565b6000816004015411612aab5760405160e560020a62461bcd02815260206004820152601e60248201527f746f74616c5472616e636865436f6e747269627574696f6e73206973203000006044820152606401610e3d565b60a082015115612b005760405160e560020a62461bcd02815260206004820152601460248201527f416c726561647920657869746564207661756c740000000000000000000000006044820152606401610e3d565b612b09886115d4565b602084015260048101548251600091612b2b916116669064e8d4a51000613127565b90506000612b5d8460400151612b5764e8d4a5100061166687600301548761312790919063ffffffff16565b9061311b565b90508015612bda57600080612b728684613621565b915091506011546010541415612bb3578115612b9257612b928b836136ad565b8015612bae57600554612bae90600160a060020a0316826136ad565b612bd7565b612bc861dead612bc38484612e37565b6136ad565b60408701829052606087018190525b50505b85612ddc5760138a81548110612bf257612bf2613ff8565b600091825260209091206006909102016005015484516040517fe0ccabfa000000000000000000000000000000000000000000000000000000008152600160a060020a038c81166004830152602482019290925291169063e0ccabfa906044016020604051808303816000875af1158015612c71573d6000803e3d6000fd5b505050506040513d601f19601f82011682018060405250810190612c959190614046565b5083516004840154612ca69161311b565b60048481019190915583546040517f70a082310000000000000000000000000000000000000000000000000000000081523092810192909252600160a060020a0316906370a0823190602401602060405180830381865afa158015612d0f573d6000803e3d6000fd5b505050506040513d601f19601f82011682018060405250810190612d339190614046565b855260008a8152601460209081526040808320600160a060020a038d1684529091529020805442919089908110612d6c57612d6c613ff8565b9060005260206000209060060201600501819055508988604051612d9091906141bc565b6040805191829003822088518b8452602084015291600160a060020a038d16917fa7749cd42821d3b82a6814af6d80712b2e43f98ec1b25aee31c8351855de65d9910160405180910390a45b5050505095945050505050565b604051600160a060020a038316602482015260448101829052612e329084907fa9059cbb0000000000000000000000000000000000000000000000000000000090606401612553565b505050565b6000611ee8828461416a565b60255460405181907f18bd4bd6372d39482d375f68791749755bdb38e8768acbfb6af999cef1adc6e090600090a2600060255590565b604080516020810187905280820186905260608082018690526080820185905260a08083018590528351808403909101815260c08301909352917f25b438300000000000000000000000000000000000000000000000000000000091612ee5908390839060e0016141d8565b6040516020818303038152906040529250505095945050505050565b612f2560405180606001604052806000815260200160008152602001606081525090565b60215482516000908152601f602090815260408083205460225487518552602384529190932054918601516080870151600160a060020a0390951694639fbf10fc94349461ffff90911693929091339190612f89906103e890611666908490613127565b898b604001518c606001516040518b63ffffffff167c0100000000000000000000000000000000000000000000000000000000028152600401612fd49998979695949392919061421d565b6000604051808303818588803b158015612fed57600080fd5b505af1158015613001573d6000803e3d6000fd5b50505050505050565b60006013888154811061301f5761301f613ff8565b60009182526020822060069190910201600501546040517fe502a88d0000000000000000000000000000000000000000000000000000000081526004810188905260248101859052600160a060020a039091169250829190829063e502a88d906044016020604051808303816000875af11580156130a1573d6000803e3d6000fd5b505050506040513d601f19601f820116820180604052508101906130c59190614046565b9050613100838260138d815481106130df576130df613ff8565b6000918252602090912060069091020154600160a060020a03169190612473565b61310e8a8a8a848a8a612605565b5050505050505050505050565b6000611ee8828461429b565b6000611ee882846142b2565b6000611ee882846142d1565b60008054600160a060020a03838116600160a060020a0319831681178455604051919092169283917f8be0079c531659141344cd1fd0a4f28419497f9722a3daafe3b4186f6b6457e09190a35050565b6000806000806000601389815481106131aa576131aa613ff8565b60009182526020822060056006909202010154600160a060020a0316915081906131d78b8e8e8d8d612919565b90506131f583826000015160138e815481106130df576130df613ff8565b80516040517f648794a4000000000000000000000000000000000000000000000000000000008152600481019190915260248101899052600160a060020a0383169063648794a4906044016020604051808303816000875af115801561325f573d6000803e3d6000fd5b505050506040513d601f19601f820116820180604052508101906132839190614046565b60208201516040830151606090930151919f909e50919c509a5098505050505050505050565b60006132fe826040518060400160405280602081526020017f5361666545524332303a206c6f772d6c6576656c2063616c6c206661696c656481525085600160a060020a031661375c9092919063ffffffff16565b805190915015612e32578080602001905181019061331c91906142f6565b612e325760405160e560020a62461bcd02815260206004820152602a60248201527f5361666545524332303a204552433230206f7065726174696f6e20646964206e60448201527f6f742073756363656564000000000000000000000000000000000000000000006064820152608401610e3d565b6000848152601460209081526040808320600160a060020a0387168452825280832080546001818101835591855293839020855160069095020193845591840151918301919091558201516002820155606082015160038201556080820151600482015560a0820151600590910155815115610ffa5782601560008681526020019081526020016000208360405161342991906141bc565b908152602001604051809103902060006134486001612b578989611753565b815260200190815260200160002060006101000a815481600160a060020a030219169083600160a060020a0316021790555050505050565b6134b96040518060c001604052806000815260200160008152602001600081526020016000815260200160008152602001600081525090565b600160a060020a038216613557576000858152601460209081526040808320600160a060020a038616845290915290208054859081106134fb576134fb613ff8565b90600052602060002090600602016040518060c001604052908160008201548152602001600182015481526020016002820154815260200160038201548152602001600482015481526020016005820154815250509050612174565b60008581526015602052604080822090516135739086906141bc565b908152604080516020928190038301902060008881529083528181205489825260148452828220600160a060020a03909116808352935220805491925090869081106135c1576135c1613ff8565b90600052602060002090600602016040518060c00160405290816000820154815260200160018201548152602001600282015481526020016003820154815260200160048201548152602001600582015481525050915050949350505050565b60008060008311613637575060009050806136a6565b600061366542612b5761365a62093a80896060015161312790919063ffffffff16565b608089015190612e37565b905080156136a057606085015161368d906136839062093a80613127565b6116668684613127565b9150613699848361311b565b92506136a4565b8392505b505b9250929050565b6002546040517f70a082310000000000000000000000000000000000000000000000000000000081523060048201528291600091600160a060020a03909116906370a0823190602401602060405180830381865afa158015613713573d6000803e3d6000fd5b505050506040513d601f19601f820116820180604052508101906137379190614046565b905080831115613745578091505b600254610ffa90600160a060020a03168584612de9565b6060612174848460008585600160a060020a0385163b6137c15760405160e560020a62461bcd02815260206004820152601d60248201527f416464726573733a2063616c6c20746f206e6f6e2d636f6e74726163740000006044820152606401610e3d565b60008086600160a060020a031685876040516137dd91906141bc565b60006040518083038185875af1925050503d806000811461381a576040519150601f19603f3d011682016040523d82523d6000602084013e61381f565b606091505b509150915061382f82828661383a565b979650505050505050565b60608315613849575081611ee8565b8251156138595782518084602001fd5b8160405160e560020a62461bcd028152600401610e3d9190613d84565b8280546138829061405f565b90600052602060002090601f0160209004810192826138a457600085556138ea565b82601f106138bd5782800160ff198235161785556138ea565b828001600101855582156138ea579182015b828111156138ea5782358255916020019190600101906138cf565b506138f692915061394f565b5090565b8280548282559060005260206000209081019282156138ea579160200282015b828111156138ea5782518254600160a060020a031916600160a060020a0390911617825560209092019160019091019061391a565b5b808211156138f65760008155600101613950565b60008060006060848603121561397957600080fd5b505081359360208301359350604090920135919050565b8035600160a060020a0381168114611df957600080fd5b600080604083850312156139ba57600080fd5b6139c383613990565b91506139d160208401613990565b90509250929050565b6000602082840312156139ec57600080fd5b5035919050565b600080600060408486031215613a0857600080fd5b83359250602084013567ffffffffffffffff80821115613a2757600080fd5b818601915086601f830112613a3b57600080fd5b813581811115613a4a57600080fd5b876020828501011115613a5c57600080fd5b6020830194508093505050509250925092565b600080600080600060a08688031215613a8757600080fd5b505083359560208501359550604085013594606081013594506080013592509050565b803561ffff81168114611df957600080fd5b600060208284031215613ace57600080fd5b611ee882613aaa565b60e060020a634e487b7102600052604160045260246000fd5b604051601f8201601f1916810167ffffffffffffffff81118282101715613b1957613b19613ad7565b604052919050565b600080600060608486031215613b3657600080fd5b8335925060208085013567ffffffffffffffff80821115613b5657600080fd5b818701915087601f830112613b6a57600080fd5b813581811115613b7c57613b7c613ad7565b613b8e601f8201601f19168501613af0565b91508082528884828501011115613ba457600080fd5b8084840185840137600084828401015250809450505050604084013590509250925092565b60006020808385031215613bdc57600080fd5b823567ffffffffffffffff80821115613bf457600080fd5b818501915085601f830112613c0857600080fd5b813581811115613c1a57613c1a613ad7565b8381029150613c2a848301613af0565b8181529183018401918481019088841115613c4457600080fd5b938501935b83851015613c6957613c5a85613990565b82529385019390850190613c49565b98975050505050505050565b801515811461233357600080fd5b600080600060608486031215613c9857600080fd5b83359250602084013591506040840135613cb181613c75565b809150509250925092565b60008060008060808587031215613cd257600080fd5b5050823594602084013594506040840135936060013592509050565b600060208284031215613d0057600080fd5b611ee882613990565b60008060408385031215613d1c57600080fd5b823591506139d160208401613990565b60005b83811015613d47578181015183820152602001613d2f565b83811115610ffa5750506000910152565b60008151808452613d70816020860160208601613d2c565b601f01601f19169290920160200192915050565b602081526000611ee86020830184613d58565b600080600060608486031215613dac57600080fd5b8335925060208401359150613dc360408501613990565b90509250925092565b600060208284031215613dde57600080fd5b8135611ee881613c75565b60008060008060808587031215613dff57600080fd5b84359350602085013592506040850135613e1881613c75565b9396929550929360600135925050565b600080600060608486031215613e3d57600080fd5b613e4684613990565b925060208401359150613dc360408501613990565b60008060408385031215613e6e57600080fd5b823591506139d160208401613aaa565b60008060408385031215613e9157600080fd5b50508035926020909101359150565b600080600060608486031215613eb557600080fd5b83359250613ec560208501613990565b9150604084013590509250925092565b60008060408385031215613ee857600080fd5b613ef183613990565b946020939093013593505050565b60008083601f840112613f1157600080fd5b50813567ffffffffffffffff811115613f2957600080fd5b60208301915083602080830285010111156136a657600080fd5b60008060008060008060808789031215613f5c57600080fd5b863567ffffffffffffffff80821115613f7457600080fd5b613f808a838b01613eff565b90985096506020890135915080821115613f9957600080fd5b50613fa689828a01613eff565b979a9699509760408101359660609091013595509350505050565b6020808252601f908201527f5265656e7472616e637947756172643a207265656e7472616e742063616c6c00604082015260600190565b60e060020a634e487b7102600052603260045260246000fd5b6020808252818101527f4f776e61626c653a2063616c6c6572206973206e6f7420746865206f776e6572604082015260600190565b60006020828403121561405857600080fd5b5051919050565b60028104600182168061407357607f821691505b602082108114156140975760e060020a634e487b7102600052602260045260246000fd5b50919050565b60e060020a634e487b7102600052601160045260246000fd5b60006000198214156140ca576140ca61409d565b5060010190565b805182526020810151602083015260006040820151606060408501526121746060850182613d58565b61ffff8616815260ff8516602082015260a06040820152600061412060a0830186613d58565b82810360608401526141328186613d58565b90508281036080840152613c6981856140d1565b6000806040838503121561415957600080fd5b505080516020909101519092909150565b6000821982111561417d5761417d61409d565b500190565b805160208201516bffffffffffffffffffffffff19808216929190601483101561174b5760149290920360080260020a8202161692915050565b600082516141ce818460208701613d2c565b9190910192915050565b7bffffffffffffffffffffffffffffffffffffffffffffffffffffffff19831681526000825161420f816004850160208701613d2c565b919091016004019392505050565b600061012061ffff8c1683528a6020840152896040840152600160a060020a03891660608401528760808401528660a08401528060c0840152614262818401876140d1565b905082810360e08401526142768186613d58565b905082810361010084015261428b8185613d58565b9c9b505050505050505050505050565b6000828210156142ad576142ad61409d565b500390565b60008160001904831182151516156142cc576142cc61409d565b500290565b6000826142f15760e060020a634e487b7102600052601260045260246000fd5b500490565b60006020828403121561430857600080fd5b8151611ee881613c75565b81811015614331578454841686529482019460019485019401614313565b50505050600160a060020a03861660c08501525090508260e0830152999850505050505050505056fea2646970667358221220ed0ef959ee1560f1a83761cb6e87041929810d95228cc4836b6206889e8ec74c64736f6c634300080a0033",
  "immutableReferences": {},
  "source": "// SPDX-License-Identifier: MIT\n\npragma solidity ^0.8.0;\n\nimport \"./_ZorroControllerXChain.sol\";\n\nimport \"../interfaces/IZorroController.sol\";\n\ncontract ZorroControllerXChainEarn is IZorroControllerXChainEarn, ZorroControllerXChain {\n    /* Libraries */\n    using SafeMath for uint256;\n    using SafeERC20 for IERC20;\n\n    /* Modifiers */\n\n    /// @notice Only can be called from a registered vault\n    /// @param _pid The pool ID\n    modifier onlyRegisteredVault(uint256 _pid) {\n        require(_msgSender() == poolInfo[_pid].vault, \"only reg vault\");\n        _;\n    }\n\n    /* Events */\n    event XChainDistributeEarnings(\n        uint256 indexed _remoteChainId,\n        uint256 indexed _buybackAmountUSDC,\n        uint256 indexed _revShareAmountUSDC\n    );\n\n    event RemovedSlashedRewards(uint256 indexed _amountZOR);\n\n    /* State */\n    uint256 public accumulatedSlashedRewards; // Accumulated ZOR rewards that need to be minted in batch on the home chain. Should reset to zero periodically\n\n    /* Fees */\n\n    /// @notice Checks to see how much a cross chain earnings distribution will cost\n    /// @param _amountUSDCBuyback Amount of USDC to buy back\n    /// @param _amountUSDCRevShare Amount of USDC to rev share with ZOR single staking vault\n    /// @param _accSlashedRewards Accumulated slashed rewards on chain\n    /// @return uint256 Quantity of native token as fees\n    /// @param _maxMarketMovement factor to account for max market movement/slippage.\n    function checkXChainDistributeEarningsFee(\n        uint256 _amountUSDCBuyback,\n        uint256 _amountUSDCRevShare,\n        uint256 _accSlashedRewards,\n        uint256 _maxMarketMovement\n    ) external view returns (uint256) {\n        // Init empty LZ object\n        IStargateRouter.lzTxObj memory _lzTxParams;\n\n        // Get payload\n        bytes memory _payload = _encodeXChainDistributeEarningsPayload(\n            chainId,\n            _amountUSDCBuyback,\n            _amountUSDCRevShare,\n            _accSlashedRewards,\n            _maxMarketMovement\n        );\n        bytes memory _dstContract = abi.encodePacked(homeChainZorroController);\n\n        // Calculate native gas fee and ZRO token fee (Layer Zero token)\n        (uint256 _nativeFee, ) = IStargateRouter(stargateRouter)\n            .quoteLayerZeroFee(\n                ZorroChainToLZMap[homeChainId],\n                1,\n                _dstContract,\n                _payload,\n                _lzTxParams\n            );\n        return _nativeFee;\n    }\n\n    /* Encoding (payloads) */\n\n    /// @notice Encodes payload for making cross chan earnings distribution request\n    /// @param _remoteChainId Zorro chain ID of the chain making the distribution request\n    /// @param _amountUSDCBuyback Amount in USDC to buy back\n    /// @param _amountUSDCRevShare Amount in USDC to rev share with ZOR staking vault\n    /// @param _accSlashedRewards Accumulated slashed rewards on chain\n    /// @param _maxMarketMovement factor to account for max market movement/slippage.\n    /// @return bytes ABI encoded payload\n    function _encodeXChainDistributeEarningsPayload(\n        uint256 _remoteChainId,\n        uint256 _amountUSDCBuyback,\n        uint256 _amountUSDCRevShare,\n        uint256 _accSlashedRewards,\n        uint256 _maxMarketMovement\n    ) internal pure returns (bytes memory) {\n        // Calculate method signature\n        bytes4 _sig = this.receiveXChainDistributionRequest.selector;\n        // Calculate abi encoded bytes for input args\n        bytes memory _inputs = abi.encode(\n            _remoteChainId,\n            _amountUSDCBuyback,\n            _amountUSDCRevShare,\n            _accSlashedRewards,\n            _maxMarketMovement\n        );\n        // Concatenate bytes of signature and inputs\n        return bytes.concat(_sig, _inputs);\n    }\n\n    /* Sending */\n\n    /// @notice Sends a request back to the home chain to distribute earnings\n    /// @param _pid Pool ID\n    /// @param _buybackAmountUSDC Amount in USDC to buy back\n    /// @param _revShareAmountUSDC Amount in USDC to revshare w/ ZOR single staking vault\n    /// @param _maxMarketMovement Acceptable slippage (950 = 5%, 990 = 1% etc.)\n    function sendXChainDistributeEarningsRequest(\n        uint256 _pid,\n        uint256 _buybackAmountUSDC,\n        uint256 _revShareAmountUSDC,\n        uint256 _maxMarketMovement\n    ) public payable nonReentrant onlyRegisteredVault(_pid) {\n        // Require funds to be submitted with this message\n        require(msg.value > 0, \"No fees submitted\");\n\n        // Calculate total USDC to transfer\n        uint256 _totalUSDC = _buybackAmountUSDC.add(_revShareAmountUSDC);\n\n        // Allow this contract to spend USDC\n        IERC20(defaultStablecoin).safeIncreaseAllowance(\n            address(this),\n            _totalUSDC\n        );\n\n        // Transfer USDC into this contract\n        IERC20(defaultStablecoin).safeTransferFrom(\n            msg.sender,\n            address(this),\n            _totalUSDC\n        );\n\n        // Check balances\n        uint256 _balUSDC = IERC20(defaultStablecoin).balanceOf(address(this));\n\n        // Get accumulated ZOR rewards and set value\n        uint256 _slashedRewards = _removeSlashedRewards();\n\n        // Generate payload\n        bytes memory _payload = _encodeXChainDistributeEarningsPayload(\n            chainId,\n            _buybackAmountUSDC,\n            _revShareAmountUSDC,\n            _slashedRewards,\n            _maxMarketMovement\n        );\n\n        // Get the destination contract address on the remote chain\n        bytes memory _dstContract = controllerContractsMap[chainId];\n\n        // Call stargate to initiate bridge\n        _callStargateSwap(\n            StargateSwapPayload({\n                chainId: homeChainId,\n                qty: _balUSDC,\n                dstContract: _dstContract,\n                payload: _payload,\n                maxMarketMovement: _maxMarketMovement\n            })\n        );\n    }\n\n    /* Receiving */\n\n    /// @notice Dummy func to allow .selector call above and guarantee typesafety for abi calls.\n    /// @dev Should never ever be actually called.\n    function receiveXChainDistributionRequest(\n        uint256 _remoteChainId,\n        uint256 _amountUSDCBuyback,\n        uint256 _amountUSDCRevShare,\n        uint256 _accSlashedRewards,\n        uint256 _maxMarketMovement\n    ) public {\n        // Revert to make sure this function never gets called\n        revert(\"illegal dummy func call\");\n\n        // But still include the function call here anyway to satisfy type safety requirements in case there is a change\n        _receiveXChainDistributionRequest(\n            _remoteChainId,\n            _amountUSDCBuyback,\n            _amountUSDCRevShare,\n            _accSlashedRewards,\n            _maxMarketMovement\n        );\n    }\n\n    /// @notice Receives an authorized request from remote chains to perform earnings fee distribution events, such as: buyback + LP + burn, and revenue share\n    /// @param _remoteChainId The Zorro chain ID of the chain that this request originated from\n    /// @param _amountUSDCBuyback The amount in USDC that should be minted for LP + burn\n    /// @param _amountUSDCRevShare The amount in USDC that should be minted for revenue sharing with ZOR stakers\n    /// @param _accSlashedRewards Accumulated slashed rewards on chain\n    /// @param _maxMarketMovement factor to account for max market movement/slippage.\n    function _receiveXChainDistributionRequest(\n        uint256 _remoteChainId,\n        uint256 _amountUSDCBuyback,\n        uint256 _amountUSDCRevShare,\n        uint256 _accSlashedRewards,\n        uint256 _maxMarketMovement\n    ) internal {\n        // Total USDC to perform operations\n        uint256 _totalUSDC = _amountUSDCBuyback.add(_amountUSDCRevShare);\n\n        // Determine new USDC balances\n        uint256 _balUSDC = IERC20(defaultStablecoin).balanceOf(address(this));\n\n        /* Buyback */\n        // (Account for slippage)\n        uint256 _buybackAmount = _balUSDC.mul(_amountUSDCBuyback).div(\n            _totalUSDC\n        );\n        _buybackOnChain(_buybackAmount, _maxMarketMovement);\n\n        /* Rev share */\n        // (Account for slippage)\n        uint256 _revShareAmount = _balUSDC.mul(_amountUSDCRevShare).div(\n            _totalUSDC\n        );\n        _revShareOnChain(_revShareAmount, _maxMarketMovement);\n\n        // Emit event\n        emit XChainDistributeEarnings(\n            _remoteChainId,\n            _buybackAmount,\n            _revShareAmount\n        );\n\n        // Award slashed rewards to ZOR stakers\n        if (_accSlashedRewards > 0) {\n            _awardSlashedRewardsToStakers(_accSlashedRewards);\n        }\n    }\n\n    /* Slashed rewards */\n\n    /// @notice Called by oracle to remove slashed ZOR rewards and reset\n    /// @return _slashedZORRewards The amount of accumulated slashed ZOR rewards\n    function _removeSlashedRewards()\n        internal\n        returns (uint256 _slashedZORRewards)\n    {\n        // Store current rewards amount\n        _slashedZORRewards = accumulatedSlashedRewards;\n\n        // Emit success event\n        emit RemovedSlashedRewards(_slashedZORRewards);\n\n        // Reset accumulated rewards\n        accumulatedSlashedRewards = 0;\n    }\n\n    /// @notice Awards the slashed ZOR rewards from other chains to this (home) chain's ZOR staking vault\n    /// @param _slashedZORRewards The amount of accumulated slashed ZOR rewards\n    function _awardSlashedRewardsToStakers(uint256 _slashedZORRewards)\n        internal\n    {\n        // Mint ZOR and send to ZOR staking vault.\n        Zorro(ZORRO).mint(zorroStakingVault, _slashedZORRewards);\n    }\n}\n",
  "sourcePath": "/Users/kristophm/Documents/workspace/zorro-protocol/contracts/controllers/_ZorroControllerXChainEarn.sol",
  "compiler": {
    "name": "solc",
    "version": "0.8.10+commit.fc410830.Emscripten.clang"
  },
  "schemaVersion": "3.4.4",
  "updatedAt": "2022-04-06T16:19:08.967Z",
  "devdoc": {
    "kind": "dev",
    "methods": {
      "checkXChainDistributeEarningsFee(uint256,uint256,uint256,uint256)": {
        "params": {
          "_accSlashedRewards": "Accumulated slashed rewards on chain",
          "_amountUSDCBuyback": "Amount of USDC to buy back",
          "_amountUSDCRevShare": "Amount of USDC to rev share with ZOR single staking vault",
          "_maxMarketMovement": "factor to account for max market movement/slippage."
        },
        "returns": {
          "_0": "uint256 Quantity of native token as fees"
        }
      },
      "deposit(uint256,uint256,uint256)": {
        "params": {
          "_pid": "index of pool",
          "_wantAmt": "how much Want token to deposit",
          "_weeksCommitted": "how many weeks the user is committing to on this vault"
        }
      },
      "depositFullService(uint256,uint256,uint256,uint256)": {
        "params": {
          "_maxMarketMovement": "factor to account for max market movement/slippage. The definition varies by Vault, so consult the associated Vault contract for info",
          "_pid": "index of pool to deposit into",
          "_valueUSDC": "value in USDC (in ether units) to deposit",
          "_weeksCommitted": "how many weeks to commit to the Pool (can be 0 or any uint)"
        }
      },
      "getTimeMultiplier(uint256)": {
        "params": {
          "durationInWeeks": "number of weeks committed into Vault"
        },
        "returns": {
          "_0": "multiplier factor, times 1e12"
        }
      },
      "getUserContribution(uint256,uint256)": {
        "params": {
          "_liquidityCommitted": "How many tokens staked (e.g. LP tokens)",
          "_timeMultiplier": "Time multiplier value (from getTimeMultiplier())"
        },
        "returns": {
          "_0": "The relative contribution of the user (unitless)"
        }
      },
      "inCaseTokensGetStuck(address,uint256)": {
        "details": "Does not permit usage for the Zorro token",
        "params": {
          "_amount": "token quantity",
          "_token": "ERC20 token address"
        }
      },
      "owner()": {
        "details": "Returns the address of the current owner."
      },
      "poolLength()": {
        "returns": {
          "_0": "Number of pools"
        }
      },
      "receiveXChainDistributionRequest(uint256,uint256,uint256,uint256,uint256)": {
        "details": "Should never ever be actually called."
      },
      "renounceOwnership()": {
        "details": "Leaves the contract without owner. It will not be possible to call `onlyOwner` functions anymore. Can only be called by the current owner. NOTE: Renouncing ownership will leave the contract without an owner, thereby removing any functionality that is only available to the owner."
      },
      "sendXChainDistributeEarningsRequest(uint256,uint256,uint256,uint256)": {
        "params": {
          "_buybackAmountUSDC": "Amount in USDC to buy back",
          "_maxMarketMovement": "Acceptable slippage (950 = 5%, 990 = 1% etc.)",
          "_pid": "Pool ID",
          "_revShareAmountUSDC": "Amount in USDC to revshare w/ ZOR single staking vault"
        }
      },
      "setControllerContract(uint256,bytes)": {
        "params": {
          "_controller": "Bytes representation of smart contract address for cross chain contract",
          "_zorroChainId": "Zorro Chain ID"
        }
      },
      "setIsTimeMultiplierActive(bool)": {
        "params": {
          "_isActive": "Whether it shall be active. If false, timemultiplier will be 1."
        }
      },
      "setKeyAddresses(address,address)": {
        "params": {
          "_ZORRO": "ZOR token address",
          "_defaultStablecoin": "Main stablecoin address (USDC)"
        }
      },
      "setPriceFeeds(address,address)": {
        "params": {
          "_priceFeedLPPoolOtherToken": "The address of the price feed for the counterparty token in the ZOR LP Pool",
          "_priceFeedZOR": "The address of the price feed for ZOR"
        }
      },
      "setRewardsParams(uint256[],uint256[],uint256,uint256)": {
        "details": "NOTE: Must enter all parameters or existing ones will be overwritten!",
        "params": {
          "_baseRewardRateBasisPoints": "Base reward rate factor, in bp",
          "_blockParams": "Array of [blocksPerDay, ZORROPerBlock]",
          "_chainMultiplier": "Rewards multiplier factor to be applied to this chain",
          "_dailyDistFactors": "Array of [ZORRODailyDistributionFactorBasisPointsMin, ZORRODailyDistributionFactorBasisPointsMax]"
        }
      },
      "setStargateDestPoolIds(uint256,uint16)": {
        "params": {
          "_stargatePoolId": "Stargate pool ID",
          "_zorroChainId": "Zorro chain ID"
        }
      },
      "setTargetTVLCaptureBasisPoints(uint256)": {
        "params": {
          "_targetTVLCaptureBasisPoints": "Percent of market desired to be captured, in bp. 333 = 3.33%. ONLY to be set on the home chain"
        }
      },
      "setUSDCToZORPath(address[])": {
        "params": {
          "_path": "Swap path"
        }
      },
      "setUSDCToZorroLPPoolOtherTokenPath(address[])": {
        "params": {
          "_path": "Swap path"
        }
      },
      "setUniRouter(address)": {
        "params": {
          "_uniV2Router": "Address of router"
        }
      },
      "setXChainParams(uint256,uint256,address)": {
        "params": {
          "_chainId": "The ind of the chain that this contract is on",
          "_homeChainId": "The chain ID of the home chain",
          "_homeChainZorroController": "The address of the home chain controller"
        }
      },
      "setZorroChainToLZMap(uint256,uint16)": {
        "params": {
          "_lzChainId": "LayerZero Chain ID",
          "_zorroChainId": "Zorro chain ID"
        }
      },
      "setZorroContracts(address,address)": {
        "params": {
          "_publicPool": "Public pool address (where ZOR minted)",
          "_zorroStakingVault": "Zorro single staking vault address"
        }
      },
      "setZorroControllerOracle(address)": {
        "params": {
          "_zorroControllerOracle": "Address of Chainlink oracle that can interact with this contract"
        }
      },
      "setZorroLPPoolParams(address,address)": {
        "params": {
          "_zorroLPPool": "Address of the Zorro-X LP pool",
          "_zorroLPPoolOtherToken": "Address of the counterpart token to the ZOR token in the LP Pool"
        }
      },
      "setZorroPerBlock(uint256,uint256,uint256,uint256,uint256)": {
        "details": "Values to be provided by Oracle. Perferable to run daily",
        "params": {
          "_ZorroTotalVaultTVLUSD": "USD value of all TVL locked into the Zorro protocol, across all chains",
          "_publicPoolZORBalance": "Number of ZOR tokens remaining in public pool on home chain",
          "_targetTVLCaptureBasisPoints": "% desired capture of total market TVL, measured in basis points",
          "_totalChainMultipliers": "Sum total of all chain multipliers for each chain",
          "_totalMarketTVLUSD": "Total DeFi market TVL across all chains (measured in USD)"
        }
      },
      "trancheLength(uint256,address)": {
        "params": {
          "_pid": "Index of pool",
          "_user": "wallet address of user"
        },
        "returns": {
          "_0": "Number of tranches"
        }
      },
      "transferInvestment(uint256,uint256,uint256,uint256)": {
        "params": {
          "_fromPid": "index of pool FROM",
          "_fromTrancheId": "index of tranche FROM",
          "_maxMarketMovement": "factor to account for max market movement/slippage. The definition varies by Vault, so consult the associated Vault contract for info",
          "_toPid": "index of pool TO"
        }
      },
      "transferOwnership(address)": {
        "details": "Transfers ownership of the contract to a new account (`newOwner`). Can only be called by the current owner."
      },
      "updatePool(uint256)": {
        "params": {
          "_pid": "index of pool"
        },
        "returns": {
          "_0": "uint256 Amount of ZOR rewards minted (useful for cross chain)"
        }
      },
      "withdraw(uint256,uint256,bool)": {
        "params": {
          "_harvestOnly": "If true, will only harvest Zorro tokens but not do a withdrawal",
          "_pid": "index of pool",
          "_trancheId": "index of tranche"
        },
        "returns": {
          "_0": "Amount of Want token withdrawn"
        }
      },
      "withdrawAll(uint256)": {
        "params": {
          "_pid": "index of pool"
        }
      },
      "withdrawalFullService(uint256,uint256,bool,uint256)": {
        "params": {
          "_harvestOnly": "If true, will only harvest Zorro tokens but not do a withdrawal",
          "_maxMarketMovement": "factor to account for max market movement/slippage. The definition varies by Vault, so consult the associated Vault contract for info",
          "_pid": "index of pool to deposit into",
          "_trancheId": "index of tranche"
        },
        "returns": {
          "_0": "Amount (in USDC) returned"
        }
      }
    },
    "version": 1
  },
  "userdoc": {
    "kind": "user",
    "methods": {
      "checkXChainDistributeEarningsFee(uint256,uint256,uint256,uint256)": {
        "notice": "Checks to see how much a cross chain earnings distribution will cost"
      },
      "deposit(uint256,uint256,uint256)": {
        "notice": "Deposit Want tokens to associated Vault"
      },
      "depositFullService(uint256,uint256,uint256,uint256)": {
        "notice": "Deposits funds in a full service manner (performs autoswaps and obtains Want tokens)"
      },
      "getTimeMultiplier(uint256)": {
        "notice": "Calculate time multiplier based on duration committed"
      },
      "getUserContribution(uint256,uint256)": {
        "notice": "The contribution of the user, meant to be used in rewards allocations"
      },
      "inCaseTokensGetStuck(address,uint256)": {
        "notice": "For owner to recover ERC20 tokens on this contract if stuck"
      },
      "poolLength()": {
        "notice": "Number of pools in the Zorro protocol"
      },
      "receiveXChainDistributionRequest(uint256,uint256,uint256,uint256,uint256)": {
        "notice": "Dummy func to allow .selector call above and guarantee typesafety for abi calls."
      },
      "sendXChainDistributeEarningsRequest(uint256,uint256,uint256,uint256)": {
        "notice": "Sends a request back to the home chain to distribute earnings"
      },
      "setControllerContract(uint256,bytes)": {
        "notice": "Setter: Controller contract for each chain"
      },
      "setIsTimeMultiplierActive(bool)": {
        "notice": "Setter: Set time multiplier"
      },
      "setKeyAddresses(address,address)": {
        "notice": "Setter: Set key token addresses"
      },
      "setLayerZeroParams(address,uint256,address)": {
        "notice": "Setter: Set main LZ params"
      },
      "setPriceFeeds(address,address)": {
        "notice": "Setter: Chainlink price feeds"
      },
      "setRewardsParams(uint256[],uint256[],uint256,uint256)": {
        "notice": "Setter: Reward params (See Tokenomics paper for more details)"
      },
      "setStargateDestPoolIds(uint256,uint16)": {
        "notice": "Setter: Stargate dest pool IDs for USD asset"
      },
      "setStartBlock(uint256)": {
        "notice": "Setter: Start block for rewards"
      },
      "setTargetTVLCaptureBasisPoints(uint256)": {
        "notice": "Setter: TVL capture (See Tokenomics paper)"
      },
      "setUSDCToZORPath(address[])": {
        "notice": "Setter: Set path for token swap from USDC to ZOR"
      },
      "setUSDCToZorroLPPoolOtherTokenPath(address[])": {
        "notice": "Setter: Set path for token swap from USDC to counterparty token in ZOR LP pool"
      },
      "setUniRouter(address)": {
        "notice": "Setter: Uniswap-compatible router address"
      },
      "setXChainParams(uint256,uint256,address)": {
        "notice": "Setter: Cross chain params"
      },
      "setZorroChainToLZMap(uint256,uint16)": {
        "notice": "Setter: LZ/Stargate params"
      },
      "setZorroContracts(address,address)": {
        "notice": "Setter: Set key ZOR contract addresses"
      },
      "setZorroControllerOracle(address)": {
        "notice": "Setter: Set Zorro Controller Oracle"
      },
      "setZorroLPPoolParams(address,address)": {
        "notice": "Setter: Zorro LP Pool params"
      },
      "setZorroPerBlock(uint256,uint256,uint256,uint256,uint256)": {
        "notice": "Set the number of Zorro to emit per block based on current market parameters"
      },
      "trancheLength(uint256,address)": {
        "notice": "Number of tranches invested by a given user into a given pool"
      },
      "transferInvestment(uint256,uint256,uint256,uint256)": {
        "notice": "Transfer all assets from a tranche in one vault to a new vault (works on-chain only)"
      },
      "updatePool(uint256)": {
        "notice": "Update reward variables of the given pool to be up-to-date."
      },
      "withdraw(uint256,uint256,bool)": {
        "notice": "Fully withdraw Want tokens from underlying Vault."
      },
      "withdrawAll(uint256)": {
        "notice": "Withdraw the maximum number of Want tokens from a pool"
      },
      "withdrawalFullService(uint256,uint256,bool,uint256)": {
        "notice": "Withdraws funds from a pool and converts the Want token into USDC"
      }
    },
    "version": 1
  }
}