{
  "contractName": "ZorroControllerXChainEarn",
  "abi": [
    {
      "anonymous": false,
      "inputs": [
        {
          "indexed": true,
          "internalType": "address",
          "name": "previousOwner",
          "type": "address"
        },
        {
          "indexed": true,
          "internalType": "address",
          "name": "newOwner",
          "type": "address"
        }
      ],
      "name": "OwnershipTransferred",
      "type": "event"
    },
    {
      "anonymous": false,
      "inputs": [
        {
          "indexed": true,
          "internalType": "uint256",
          "name": "_amountZOR",
          "type": "uint256"
        }
      ],
      "name": "RemovedSlashedRewards",
      "type": "event"
    },
    {
      "anonymous": false,
      "inputs": [
        {
          "indexed": true,
          "internalType": "uint256",
          "name": "_remoteChainId",
          "type": "uint256"
        },
        {
          "indexed": true,
          "internalType": "uint256",
          "name": "_buybackAmountUSD",
          "type": "uint256"
        },
        {
          "indexed": true,
          "internalType": "uint256",
          "name": "_revShareAmountUSD",
          "type": "uint256"
        }
      ],
      "name": "XChainDistributeEarnings",
      "type": "event"
    },
    {
      "inputs": [
        {
          "internalType": "uint16",
          "name": "",
          "type": "uint16"
        }
      ],
      "name": "LZChainToZorroMap",
      "outputs": [
        {
          "internalType": "uint256",
          "name": "",
          "type": "uint256"
        }
      ],
      "stateMutability": "view",
      "type": "function"
    },
    {
      "inputs": [],
      "name": "ZORRO",
      "outputs": [
        {
          "internalType": "address",
          "name": "",
          "type": "address"
        }
      ],
      "stateMutability": "view",
      "type": "function"
    },
    {
      "inputs": [
        {
          "internalType": "uint256",
          "name": "",
          "type": "uint256"
        }
      ],
      "name": "ZorroChainToLZMap",
      "outputs": [
        {
          "internalType": "uint16",
          "name": "",
          "type": "uint16"
        }
      ],
      "stateMutability": "view",
      "type": "function"
    },
    {
      "inputs": [],
      "name": "accumulatedSlashedRewards",
      "outputs": [
        {
          "internalType": "uint256",
          "name": "",
          "type": "uint256"
        }
      ],
      "stateMutability": "view",
      "type": "function"
    },
    {
      "inputs": [],
      "name": "burnAddress",
      "outputs": [
        {
          "internalType": "address",
          "name": "",
          "type": "address"
        }
      ],
      "stateMutability": "view",
      "type": "function"
    },
    {
      "inputs": [],
      "name": "chainId",
      "outputs": [
        {
          "internalType": "uint256",
          "name": "",
          "type": "uint256"
        }
      ],
      "stateMutability": "view",
      "type": "function"
    },
    {
      "inputs": [
        {
          "internalType": "uint256",
          "name": "",
          "type": "uint256"
        }
      ],
      "name": "chainTypes",
      "outputs": [
        {
          "internalType": "uint256",
          "name": "",
          "type": "uint256"
        }
      ],
      "stateMutability": "view",
      "type": "function"
    },
    {
      "inputs": [
        {
          "internalType": "uint256",
          "name": "",
          "type": "uint256"
        }
      ],
      "name": "controllerContractsMap",
      "outputs": [
        {
          "internalType": "bytes",
          "name": "",
          "type": "bytes"
        }
      ],
      "stateMutability": "view",
      "type": "function"
    },
    {
      "inputs": [],
      "name": "currentChainController",
      "outputs": [
        {
          "internalType": "address",
          "name": "",
          "type": "address"
        }
      ],
      "stateMutability": "view",
      "type": "function"
    },
    {
      "inputs": [],
      "name": "defaultStablecoin",
      "outputs": [
        {
          "internalType": "address",
          "name": "",
          "type": "address"
        }
      ],
      "stateMutability": "view",
      "type": "function"
    },
    {
      "inputs": [],
      "name": "homeChainId",
      "outputs": [
        {
          "internalType": "uint256",
          "name": "",
          "type": "uint256"
        }
      ],
      "stateMutability": "view",
      "type": "function"
    },
    {
      "inputs": [],
      "name": "homeChainZorroController",
      "outputs": [
        {
          "internalType": "address",
          "name": "",
          "type": "address"
        }
      ],
      "stateMutability": "view",
      "type": "function"
    },
    {
      "inputs": [],
      "name": "layerZeroEndpoint",
      "outputs": [
        {
          "internalType": "address",
          "name": "",
          "type": "address"
        }
      ],
      "stateMutability": "view",
      "type": "function"
    },
    {
      "inputs": [],
      "name": "owner",
      "outputs": [
        {
          "internalType": "address",
          "name": "",
          "type": "address"
        }
      ],
      "stateMutability": "view",
      "type": "function"
    },
    {
      "inputs": [],
      "name": "priceFeedLPPoolOtherToken",
      "outputs": [
        {
          "internalType": "contract AggregatorV3Interface",
          "name": "",
          "type": "address"
        }
      ],
      "stateMutability": "view",
      "type": "function"
    },
    {
      "inputs": [],
      "name": "priceFeedStablecoin",
      "outputs": [
        {
          "internalType": "contract AggregatorV3Interface",
          "name": "",
          "type": "address"
        }
      ],
      "stateMutability": "view",
      "type": "function"
    },
    {
      "inputs": [],
      "name": "priceFeedZOR",
      "outputs": [
        {
          "internalType": "contract AggregatorV3Interface",
          "name": "",
          "type": "address"
        }
      ],
      "stateMutability": "view",
      "type": "function"
    },
    {
      "inputs": [],
      "name": "publicPool",
      "outputs": [
        {
          "internalType": "address",
          "name": "",
          "type": "address"
        }
      ],
      "stateMutability": "view",
      "type": "function"
    },
    {
      "inputs": [],
      "name": "renounceOwnership",
      "outputs": [],
      "stateMutability": "nonpayable",
      "type": "function"
    },
    {
      "inputs": [
        {
          "internalType": "address",
          "name": "_burn",
          "type": "address"
        }
      ],
      "name": "setBurnAddress",
      "outputs": [],
      "stateMutability": "nonpayable",
      "type": "function"
    },
    {
      "inputs": [
        {
          "internalType": "uint256",
          "name": "_zorroChainId",
          "type": "uint256"
        },
        {
          "internalType": "uint256",
          "name": "_chainType",
          "type": "uint256"
        }
      ],
      "name": "setChainType",
      "outputs": [],
      "stateMutability": "nonpayable",
      "type": "function"
    },
    {
      "inputs": [
        {
          "internalType": "uint256[]",
          "name": "_chainIds",
          "type": "uint256[]"
        }
      ],
      "name": "setChains",
      "outputs": [],
      "stateMutability": "nonpayable",
      "type": "function"
    },
    {
      "inputs": [
        {
          "internalType": "uint256",
          "name": "_zorroChainId",
          "type": "uint256"
        },
        {
          "internalType": "bytes",
          "name": "_controller",
          "type": "bytes"
        }
      ],
      "name": "setControllerContract",
      "outputs": [],
      "stateMutability": "nonpayable",
      "type": "function"
    },
    {
      "inputs": [
        {
          "internalType": "address[]",
          "name": "_contracts",
          "type": "address[]"
        }
      ],
      "name": "setKeyContracts",
      "outputs": [],
      "stateMutability": "nonpayable",
      "type": "function"
    },
    {
      "inputs": [
        {
          "internalType": "address",
          "name": "_stargateRouter",
          "type": "address"
        },
        {
          "internalType": "uint256",
          "name": "_stargateSwapPoolId",
          "type": "uint256"
        },
        {
          "internalType": "address",
          "name": "_layerZeroEndpoint",
          "type": "address"
        }
      ],
      "name": "setLayerZeroParams",
      "outputs": [],
      "stateMutability": "nonpayable",
      "type": "function"
    },
    {
      "inputs": [
        {
          "internalType": "uint256",
          "name": "_zorroChainId",
          "type": "uint256"
        },
        {
          "internalType": "uint16",
          "name": "_stargatePoolId",
          "type": "uint16"
        }
      ],
      "name": "setStargateDestPoolIds",
      "outputs": [],
      "stateMutability": "nonpayable",
      "type": "function"
    },
    {
      "inputs": [
        {
          "internalType": "address[]",
          "name": "_tokens",
          "type": "address[]"
        }
      ],
      "name": "setTokens",
      "outputs": [],
      "stateMutability": "nonpayable",
      "type": "function"
    },
    {
      "inputs": [
        {
          "internalType": "uint256",
          "name": "_zorroChainId",
          "type": "uint256"
        },
        {
          "internalType": "uint16",
          "name": "_lzChainId",
          "type": "uint16"
        }
      ],
      "name": "setZorroChainToLZMap",
      "outputs": [],
      "stateMutability": "nonpayable",
      "type": "function"
    },
    {
      "inputs": [
        {
          "internalType": "uint256",
          "name": "",
          "type": "uint256"
        }
      ],
      "name": "stablecoinToZorroLPPoolOtherTokenPath",
      "outputs": [
        {
          "internalType": "address",
          "name": "",
          "type": "address"
        }
      ],
      "stateMutability": "view",
      "type": "function"
    },
    {
      "inputs": [
        {
          "internalType": "uint256",
          "name": "",
          "type": "uint256"
        }
      ],
      "name": "stablecoinToZorroPath",
      "outputs": [
        {
          "internalType": "address",
          "name": "",
          "type": "address"
        }
      ],
      "stateMutability": "view",
      "type": "function"
    },
    {
      "inputs": [
        {
          "internalType": "uint256",
          "name": "",
          "type": "uint256"
        }
      ],
      "name": "stargateDestPoolIds",
      "outputs": [
        {
          "internalType": "uint256",
          "name": "",
          "type": "uint256"
        }
      ],
      "stateMutability": "view",
      "type": "function"
    },
    {
      "inputs": [],
      "name": "stargateRouter",
      "outputs": [
        {
          "internalType": "address",
          "name": "",
          "type": "address"
        }
      ],
      "stateMutability": "view",
      "type": "function"
    },
    {
      "inputs": [],
      "name": "stargateSwapPoolId",
      "outputs": [
        {
          "internalType": "uint256",
          "name": "",
          "type": "uint256"
        }
      ],
      "stateMutability": "view",
      "type": "function"
    },
    {
      "inputs": [
        {
          "internalType": "address",
          "name": "newOwner",
          "type": "address"
        }
      ],
      "name": "transferOwnership",
      "outputs": [],
      "stateMutability": "nonpayable",
      "type": "function"
    },
    {
      "inputs": [],
      "name": "uniRouterAddress",
      "outputs": [
        {
          "internalType": "address",
          "name": "",
          "type": "address"
        }
      ],
      "stateMutability": "view",
      "type": "function"
    },
    {
      "inputs": [],
      "name": "zorroLPPoolOtherToken",
      "outputs": [
        {
          "internalType": "address",
          "name": "",
          "type": "address"
        }
      ],
      "stateMutability": "view",
      "type": "function"
    },
    {
      "inputs": [],
      "name": "zorroStakingVault",
      "outputs": [
        {
          "internalType": "address",
          "name": "",
          "type": "address"
        }
      ],
      "stateMutability": "view",
      "type": "function"
    },
    {
      "inputs": [
        {
          "internalType": "address",
          "name": "_token",
          "type": "address"
        }
      ],
      "name": "setZorroLPPoolOtherToken",
      "outputs": [],
      "stateMutability": "nonpayable",
      "type": "function"
    },
    {
      "inputs": [
        {
          "internalType": "address",
          "name": "_contract",
          "type": "address"
        }
      ],
      "name": "setZorroStakingVault",
      "outputs": [],
      "stateMutability": "nonpayable",
      "type": "function"
    },
    {
      "inputs": [
        {
          "internalType": "address",
          "name": "_contract",
          "type": "address"
        }
      ],
      "name": "setUniRouterAddress",
      "outputs": [],
      "stateMutability": "nonpayable",
      "type": "function"
    },
    {
      "inputs": [
        {
          "internalType": "address[]",
          "name": "_stablecoinToZorroPath",
          "type": "address[]"
        },
        {
          "internalType": "address[]",
          "name": "_stablecoinToZorroLPPoolOtherTokenPath",
          "type": "address[]"
        }
      ],
      "name": "setSwapPaths",
      "outputs": [],
      "stateMutability": "nonpayable",
      "type": "function"
    },
    {
      "inputs": [
        {
          "internalType": "address[]",
          "name": "_priceFeeds",
          "type": "address[]"
        }
      ],
      "name": "setPriceFeeds",
      "outputs": [],
      "stateMutability": "nonpayable",
      "type": "function"
    },
    {
      "inputs": [
        {
          "internalType": "uint256",
          "name": "_amountUSDBuyback",
          "type": "uint256"
        },
        {
          "internalType": "uint256",
          "name": "_amountUSDRevShare",
          "type": "uint256"
        },
        {
          "internalType": "uint256",
          "name": "_accSlashedRewards",
          "type": "uint256"
        },
        {
          "internalType": "uint256",
          "name": "_maxMarketMovement",
          "type": "uint256"
        }
      ],
      "name": "checkXChainDistributeEarningsFee",
      "outputs": [
        {
          "internalType": "uint256",
          "name": "",
          "type": "uint256"
        }
      ],
      "stateMutability": "view",
      "type": "function"
    },
    {
      "inputs": [
        {
          "internalType": "uint256",
          "name": "_pid",
          "type": "uint256"
        },
        {
          "internalType": "uint256",
          "name": "_buybackAmountUSD",
          "type": "uint256"
        },
        {
          "internalType": "uint256",
          "name": "_revShareAmountUSD",
          "type": "uint256"
        },
        {
          "internalType": "uint256",
          "name": "_maxMarketMovement",
          "type": "uint256"
        }
      ],
      "name": "sendXChainDistributeEarningsRequest",
      "outputs": [],
      "stateMutability": "payable",
      "type": "function"
    },
    {
      "inputs": [
        {
          "internalType": "uint256",
          "name": "_remoteChainId",
          "type": "uint256"
        },
        {
          "internalType": "uint256",
          "name": "_amountUSDBuyback",
          "type": "uint256"
        },
        {
          "internalType": "uint256",
          "name": "_amountUSDRevShare",
          "type": "uint256"
        },
        {
          "internalType": "uint256",
          "name": "_accSlashedRewards",
          "type": "uint256"
        },
        {
          "internalType": "uint256",
          "name": "_maxMarketMovement",
          "type": "uint256"
        }
      ],
      "name": "receiveXChainDistributionRequest",
      "outputs": [],
      "stateMutability": "nonpayable",
      "type": "function"
    }
  ],
  "bytecode": "0x608060405234801561001057600080fd5b506129da806100206000396000f3fe6080604052600436106102765760003560e060020a90048063715018a611610153578063a4d2b083116100c5578063cd01af481161007e578063cd01af48146107b2578063e940f6e1146107d2578063ebfba7c4146107e8578063ef12696714610808578063f2fde38b1461081e578063fc39a29e1461083e57600080fd5b8063a4d2b083146106f2578063a4d8adf914610712578063a9e56f3c14610732578063b22f325114610752578063b61bb80a14610772578063c9522cf11461079257600080fd5b80638b5694d6116101175780638b5694d6146106315780638c157db2146106515780638d6ffd6a146106715780638da5cb5b1461069e578063959334f4146106bc5780639a8a0592146106dc57600080fd5b8063715018a61461059c5780637795fba2146105b157806379777d81146105d15780637bd45522146105f15780637f633ea81461061157600080fd5b80634b0e7216116101ec5780635da79d63116101b05780635da79d63146104dc578063625adaf2146104fc578063668ababb1461051c578063693a090b1461053c5780636ca8bd651461055c57806370d5ae051461057c57600080fd5b80634b0e7216146104395780634bf76174146104595780635175ce1b146104795780635790f59914610499578063593af9fe146104af57600080fd5b8063219b38b81161023e578063219b38b81461033a57806325b4383014610375578063293da9d414610395578063459f4753146103c2578063464e3c8b14610406578063487c38681461041957600080fd5b806307968db11461027b5780630a34e1a4146102b857806313a2e880146102da57806315230ae6146102fa5780631fae1a201461031a575b600080fd5b34801561028757600080fd5b50609a5461029b90600160a060020a031681565b604051600160a060020a0390911681526020015b60405180910390f35b3480156102c457600080fd5b506102d86102d33660046120ba565b61085e565b005b3480156102e657600080fd5b506102d86102f53660046120dc565b6108a6565b34801561030657600080fd5b5060a25461029b90600160a060020a031681565b34801561032657600080fd5b5061029b610335366004612158565b6108f2565b34801561034657600080fd5b50610367610355366004612158565b60996020526000908152604090205481565b6040519081526020016102af565b34801561038157600080fd5b506102d8610390366004612171565b61091c565b3480156103a157600080fd5b506103676103b03660046121c3565b609d6020526000908152604090205481565b3480156103ce57600080fd5b506103f36103dd366004612158565b609c6020526000908152604090205461ffff1681565b60405161ffff90911681526020016102af565b6102d86104143660046121de565b61096e565b34801561042557600080fd5b506102d861043436600461225b565b610cdf565b34801561044557600080fd5b506102d86104543660046122b2565b610de8565b34801561046557600080fd5b506102d861047436600461225b565b610e37565b34801561048557600080fd5b506102d86104943660046122cf565b610f40565b3480156104a557600080fd5b5061036760985481565b3480156104bb57600080fd5b506104cf6104ca366004612158565b610f86565b6040516102af9190612393565b3480156104e857600080fd5b506102d86104f73660046122b2565b611020565b34801561050857600080fd5b506102d861051736600461225b565b61106f565b34801561052857600080fd5b5060a35461029b90600160a060020a031681565b34801561054857600080fd5b5060a95461029b90600160a060020a031681565b34801561056857600080fd5b506102d86105773660046122b2565b611130565b34801561058857600080fd5b5060a65461029b90600160a060020a031681565b3480156105a857600080fd5b506102d861117f565b3480156105bd57600080fd5b5060ae5461029b90600160a060020a031681565b3480156105dd57600080fd5b5060ad5461029b90600160a060020a031681565b3480156105fd57600080fd5b506102d861060c3660046123a6565b6111b8565b34801561061d57600080fd5b506102d861062c3660046123e8565b611219565b34801561063d57600080fd5b506102d861064c3660046123e8565b611275565b34801561065d57600080fd5b5060a05461029b90600160a060020a031681565b34801561067d57600080fd5b5061036761068c366004612158565b609e6020526000908152604090205481565b3480156106aa57600080fd5b50603354600160a060020a031661029b565b3480156106c857600080fd5b506102d86106d73660046122b2565b6112bb565b3480156106e857600080fd5b5061036760a45481565b3480156106fe57600080fd5b5060a85461029b90600160a060020a031681565b34801561071e57600080fd5b5061029b61072d366004612158565b61130a565b34801561073e57600080fd5b5060975461029b90600160a060020a031681565b34801561075e57600080fd5b5060ac5461029b90600160a060020a031681565b34801561077e57600080fd5b50609f5461029b90600160a060020a031681565b34801561079e57600080fd5b506103676107ad3660046121de565b61131a565b3480156107be57600080fd5b506102d86107cd36600461225b565b61143c565b3480156107de57600080fd5b5061036760af5481565b3480156107f457600080fd5b5060a75461029b90600160a060020a031681565b34801561081457600080fd5b5061036760a55481565b34801561082a57600080fd5b506102d86108393660046122b2565b6114ab565b34801561084a57600080fd5b5060a15461029b90600160a060020a031681565b603354600160a060020a031633146108945760405160e560020a62461bcd02815260040161088b90612414565b60405180910390fd5b6000918252609e602052604090912055565b603354600160a060020a031633146108d35760405160e560020a62461bcd02815260040161088b90612414565b6000838152609b602052604090206108ec908383611fce565b50505050565b60ab818154811061090257600080fd5b600091825260209091200154600160a060020a0316905081565b60405160e560020a62461bcd02815260206004820152601760248201527f696c6c6567616c2064756d6d792066756e632063616c6c000000000000000000604482015260640161088b565b5050505050565b600260655414156109c45760405160e560020a62461bcd02815260206004820152601f60248201527f5265656e7472616e637947756172643a207265656e7472616e742063616c6c00604482015260640161088b565b600260655560a2546040517f1526fe27000000000000000000000000000000000000000000000000000000008152600481018690528591600091600160a060020a0390911690631526fe279060240160c060405180830381865afa158015610a30573d6000803e3d6000fd5b505050506040513d601f19601f82011682018060405250810190610a549190612449565b9550505050505080600160a060020a0316610a6c3390565b600160a060020a031614610ac55760405160e560020a62461bcd02815260206004820152600e60248201527f6f6e6c7920726567207661756c74000000000000000000000000000000000000604482015260640161088b565b60003411610b185760405160e560020a62461bcd02815260206004820152601160248201527f4e6f2066656573207375626d6974746564000000000000000000000000000000604482015260640161088b565b6000610b248686611569565b609f54909150610b3e90600160a060020a0316308361157e565b609f54610b5690600160a060020a03163330846116bf565b609f546040517f70a08231000000000000000000000000000000000000000000000000000000008152306004820152600091600160a060020a0316906370a0823190602401602060405180830381865afa158015610bb8573d6000803e3d6000fd5b505050506040513d601f19601f82011682018060405250810190610bdc91906124a9565b90506000610be8611710565b90506000610bfb60a4548a8a858b611746565b60a4546000908152609b6020526040812080549293509091610c1c906124c2565b80601f0160208091040260200160405190810160405280929190818152602001828054610c48906124c2565b8015610c955780601f10610c6a57610100808354040283529160200191610c95565b820191906000526020600020905b815481529060010190602001808311610c7857829003601f168201915b50505050509050610ccd6040518060a0016040528060a55481526020018681526020018381526020018481526020018a8152506117ce565b50506001606555505050505050505050565b603354600160a060020a03163314610d0c5760405160e560020a62461bcd02815260040161088b90612414565b81816000818110610d1f57610d1f612500565b9050602002016020810190610d3491906122b2565b60ac8054600160a060020a031916600160a060020a039290921691909117905581816001818110610d6757610d67612500565b9050602002016020810190610d7c91906122b2565b60ad8054600160a060020a031916600160a060020a039290921691909117905581816002818110610daf57610daf612500565b9050602002016020810190610dc491906122b2565b60ae8054600160a060020a031916600160a060020a03929092169190911790555050565b603354600160a060020a03163314610e155760405160e560020a62461bcd02815260040161088b90612414565b60a68054600160a060020a031916600160a060020a0392909216919091179055565b603354600160a060020a03163314610e645760405160e560020a62461bcd02815260040161088b90612414565b81816000818110610e7757610e77612500565b9050602002016020810190610e8c91906122b2565b60a18054600160a060020a031916600160a060020a039290921691909117905581816001818110610ebf57610ebf612500565b9050602002016020810190610ed491906122b2565b60a28054600160a060020a031916600160a060020a039290921691909117905581816002818110610f0757610f07612500565b9050602002016020810190610f1c91906122b2565b60a38054600160a060020a031916600160a060020a03929092169190911790555050565b603354600160a060020a03163314610f6d5760405160e560020a62461bcd02815260040161088b90612414565b610f7960aa8585612052565b5061096760ab8383612052565b609b6020526000908152604090208054610f9f906124c2565b80601f0160208091040260200160405190810160405280929190818152602001828054610fcb906124c2565b80156110185780601f10610fed57610100808354040283529160200191611018565b820191906000526020600020905b815481529060010190602001808311610ffb57829003601f168201915b505050505081565b603354600160a060020a0316331461104d5760405160e560020a62461bcd02815260040161088b90612414565b60a98054600160a060020a031916600160a060020a0392909216919091179055565b603354600160a060020a0316331461109c5760405160e560020a62461bcd02815260040161088b90612414565b818160008181106110af576110af612500565b90506020020160208101906110c491906122b2565b609f8054600160a060020a031916600160a060020a0392909216919091179055818160018181106110f7576110f7612500565b905060200201602081019061110c91906122b2565b60a08054600160a060020a031916600160a060020a03929092169190911790555050565b603354600160a060020a0316331461115d5760405160e560020a62461bcd02815260040161088b90612414565b60a88054600160a060020a031916600160a060020a0392909216919091179055565b603354600160a060020a031633146111ac5760405160e560020a62461bcd02815260040161088b90612414565b6111b660006118e1565b565b603354600160a060020a031633146111e55760405160e560020a62461bcd02815260040161088b90612414565b60978054600160a060020a03948516600160a060020a031991821617909155609892909255609a8054919093169116179055565b603354600160a060020a031633146112465760405160e560020a62461bcd02815260040161088b90612414565b6000828152609c60209081526040808320805461ffff90951661ffff1990951685179055928252609d90522055565b603354600160a060020a031633146112a25760405160e560020a62461bcd02815260040161088b90612414565b60009182526099602052604090912061ffff9091169055565b603354600160a060020a031633146112e85760405160e560020a62461bcd02815260040161088b90612414565b60a78054600160a060020a031916600160a060020a0392909216919091179055565b60aa818154811061090257600080fd5b604080516060808201835260008083526020830181905292820152600061134660a45488888888611746565b60a154604051600160a060020a039091166c0100000000000000000000000002602082015290915060009060340160408051601f1981840301815282825260975460a5546000908152609c602052928320547f0a5123690000000000000000000000000000000000000000000000000000000085529194509192600160a060020a0390921691630a512369916113ee9161ffff90911690600190879089908b90600401612542565b6040805180830381865afa15801561140a573d6000803e3d6000fd5b505050506040513d601f19601f8201168201806040525081019061142e919061259a565b509998505050505050505050565b603354600160a060020a031633146114695760405160e560020a62461bcd02815260040161088b90612414565b8181600081811061147c5761147c612500565b602002919091013560a455508181600181811061149b5761149b612500565b602002919091013560a555505050565b603354600160a060020a031633146114d85760405160e560020a62461bcd02815260040161088b90612414565b600160a060020a0381166115575760405160e560020a62461bcd02815260206004820152602660248201527f4f776e61626c653a206e6577206f776e657220697320746865207a65726f206160448201527f6464726573730000000000000000000000000000000000000000000000000000606482015260840161088b565b611560816118e1565b50565b9061193f565b600061157582846125d7565b90505b92915050565b6040517fdd62ed3e000000000000000000000000000000000000000000000000000000008152306004820152600160a060020a038381166024830152600091839186169063dd62ed3e90604401602060405180830381865afa1580156115e8573d6000803e3d6000fd5b505050506040513d601f19601f8201168201806040525081019061160c91906124a9565b61161691906125d7565b604051600160a060020a0385166024820152604481018290529091506108ec9085907f095ea7b300000000000000000000000000000000000000000000000000000000906064015b60408051601f198184030181529190526020810180517bffffffffffffffffffffffffffffffffffffffffffffffffffffffff167bffffffffffffffffffffffffffffffffffffffffffffffffffffffff1990931692909217909152611a13565b604051600160a060020a03808516602483015283166044820152606481018290526108ec9085907f23b872dd000000000000000000000000000000000000000000000000000000009060840161165e565b60af5460405181907f18bd4bd6372d39482d375f68791749755bdb38e8768acbfb6af999cef1adc6e090600090a2600060af5590565b604080516020810187905280820186905260608082018690526080820185905260a08083018590528351808403909101815260c08301909352917f25b4383000000000000000000000000000000000000000000000000000000000916117b2908390839060e0016125ef565b6040516020818303038152906040529250505095945050505050565b6097546020820151609f546117f192600160a060020a039182169291169061157e565b61181560405180606001604052806000815260200160008152602001606081525090565b60975482516000908152609c602090815260408083205460985487518552609984529190932054918601516080870151600160a060020a0390951694639fbf10fc94349461ffff90911693929091339190611879906103e890611563908490611933565b898b604001518c606001516040518b63ffffffff1660e060020a0281526004016118ab99989796959493929190612634565b6000604051808303818588803b1580156118c457600080fd5b505af11580156118d8573d6000803e3d6000fd5b50505050505050565b60338054600160a060020a03838116600160a060020a0319831681179093556040519116919082907f8be0079c531659141344cd1fd0a4f28419497f9722a3daafe3b4186f6b6457e090600090a35050565b600061157582846126b2565b600061157582846126d1565b8154600160a060020a0316815260019091019060200180831161194b57505050505086306119846102584261156990919063ffffffff16565b60a954600160a060020a031696959493929190611b08565b8154600160a060020a0316815260019091019060200180831161199c57505050505085306119846102584261156990919063ffffffff16565b8154600160a060020a031681526001909101906020018083116119d557505060a854899350600160a060020a03169150611984905042610258611569565b6000611a68826040518060400160405280602081526020017f5361666545524332303a206c6f772d6c6576656c2063616c6c206661696c656481525085600160a060020a0316611c889092919063ffffffff16565b805190915015611afb5780806020019051810190611a86919061270f565b611afb5760405160e560020a62461bcd02815260206004820152602a60248201527f5361666545524332303a204552433230206f7065726174696f6e20646964206e60448201527f6f74207375636365656400000000000000000000000000000000000000000000606482015260840161088b565b505050565b949350505050565b8251600214611b5c5760405160e560020a62461bcd02815260206004820152600b60248201527f696e76616c696420646563000000000000000000000000000000000000000000604482015260640161088b565b600086600081518110611b7157611b71612500565b602002602001015160001480611ba1575086600181518110611b9557611b95612500565b60200260200101516000145b15611bba57611bb38989878988611ca1565b9050611bfe565b611bfb8888600081518110611bd157611bd1612500565b602002602001015189600181518110611bec57611bec612500565b60200260200101518988611dc7565b90505b6040517f5c11d795000000000000000000000000000000000000000000000000000000008152600160a060020a038a1690635c11d79590611c4b908b9085908a908990899060040161286b565b600060405180830381600087803b158015611c6557600080fd5b505af1158015611c79573d6000803e3d6000fd5b50505050505050505050505050565b6060611c978484600085611e42565b90505b9392505050565b60008086600160a060020a031663d06ca61f87876040518363ffffffff1660e060020a028152600401611cd59291906128a7565b600060405180830381865afa158015611cf2573d6000803e3d6000fd5b505050506040513d6000823e601f3d908101601f19168201604052611d1a91908101906128c0565b9050611dbc611d526103e885600081518110611d3857611d38612500565b6020026020010151600a611d4c9190612818565b90611933565b61156385600181518110611d6857611d68612500565b6020026020010151600a611d7c9190612818565b611d4c8886611d9660018951611f8690919063ffffffff16565b81518110611da657611da6612500565b602002602001015161193390919063ffffffff16565b979650505050505050565b6000611e38611e0283600081518110611de257611de2612500565b6020026020010151600a611df69190612818565b611d4c876103e8611933565b61156384600181518110611e1857611e18612500565b6020026020010151600a611e2c9190612818565b611d4c87818c8c611933565b9695505050505050565b60603031831115611ebe5760405160e560020a62461bcd02815260206004820152602660248201527f416464726573733a20696e73756666696369656e742062616c616e636520666f60448201527f722063616c6c0000000000000000000000000000000000000000000000000000606482015260840161088b565b600160a060020a0385163b611f185760405160e560020a62461bcd02815260206004820152601d60248201527f416464726573733a2063616c6c20746f206e6f6e2d636f6e7472616374000000604482015260640161088b565b60008086600160a060020a03168587604051611f349190612971565b60006040518083038185875af1925050503d8060008114611f71576040519150601f19603f3d011682016040523d82523d6000602084013e611f76565b606091505b5091509150611dbc828286611f92565b6000611575828461298d565b60608315611fa1575081611c9a565b825115611fb15782518084602001fd5b8160405160e560020a62461bcd02815260040161088b9190612393565b828054611fda906124c2565b90600052602060002090601f016020900481019282611ffc5760008555612042565b82601f106120155782800160ff19823516178555612042565b82800160010185558215612042579182015b82811115612042578235825591602001919060010190612027565b5061204e9291506120a5565b5090565b828054828255906000526020600020908101928215612042579160200282015b82811115612042578154600160a060020a031916600160a060020a03843516178255602090920191600190910190612072565b5b8082111561204e57600081556001016120a6565b600080604083850312156120cd57600080fd5b50508035926020909101359150565b6000806000604084860312156120f157600080fd5b83359250602084013567ffffffffffffffff8082111561211057600080fd5b818601915086601f83011261212457600080fd5b81358181111561213357600080fd5b87602082850101111561214557600080fd5b6020830194508093505050509250925092565b60006020828403121561216a57600080fd5b5035919050565b600080600080600060a0868803121561218957600080fd5b505083359560208501359550604085013594606081013594506080013592509050565b803561ffff811681146121be57600080fd5b919050565b6000602082840312156121d557600080fd5b611575826121ac565b600080600080608085870312156121f457600080fd5b5050823594602084013594506040840135936060013592509050565b60008083601f84011261222257600080fd5b50813567ffffffffffffffff81111561223a57600080fd5b602083019150836020808302850101111561225457600080fd5b9250929050565b6000806020838503121561226e57600080fd5b823567ffffffffffffffff81111561228557600080fd5b61229185828601612210565b90969095509350505050565b600160a060020a038116811461156057600080fd5b6000602082840312156122c457600080fd5b8135611c9a8161229d565b600080600080604085870312156122e557600080fd5b843567ffffffffffffffff808211156122fd57600080fd5b61230988838901612210565b9096509450602087013591508082111561232257600080fd5b5061232f87828801612210565b95989497509550505050565b60005b8381101561235657818101518382015260200161233e565b838111156108ec5750506000910152565b6000815180845261237f81602086016020860161233b565b601f01601f19169290920160200192915050565b6020815260006115756020830184612367565b6000806000606084860312156123bb57600080fd5b83356123c68161229d565b92506020840135915060408401356123dd8161229d565b809150509250925092565b600080604083850312156123fb57600080fd5b8235915061240b602084016121ac565b90509250929050565b6020808252818101527f4f776e61626c653a2063616c6c6572206973206e6f7420746865206f776e6572604082015260600190565b60008060008060008060c0878903121561246257600080fd5b865161246d8161229d565b809650506020870151945060408701519350606087015192506080870151915060a087015161249b8161229d565b809150509295509295509295565b6000602082840312156124bb57600080fd5b5051919050565b6002810460018216806124d657607f821691505b602082108114156124fa5760e060020a634e487b7102600052602260045260246000fd5b50919050565b60e060020a634e487b7102600052603260045260246000fd5b80518252602081015160208301526000604082015160606040850152611b006060850182612367565b61ffff8616815260ff8516602082015260a06040820152600061256860a0830186612367565b828103606084015261257a8186612367565b9050828103608084015261258e8185612519565b98975050505050505050565b600080604083850312156125ad57600080fd5b505080516020909101519092909150565b60e060020a634e487b7102600052601160045260246000fd5b600082198211156125ea576125ea6125be565b500190565b7bffffffffffffffffffffffffffffffffffffffffffffffffffffffff19831681526000825161262681600485016020870161233b565b919091016004019392505050565b600061012061ffff8c1683528a6020840152896040840152600160a060020a03891660608401528760808401528660a08401528060c084015261267981840187612519565b905082810360e084015261268d8186612367565b90508281036101008401526126a28185612367565b9c9b505050505050505050505050565b60008160001904831182151516156126cc576126cc6125be565b500290565b6000826126f15760e060020a634e487b7102600052601260045260246000fd5b500490565b60e060020a634e487b7102600052604160045260246000fd5b60006020828403121561272157600080fd5b81518015158114611c9a57600080fd5b600181815b8085111561276e578160001904821115612752576127526125be565b8085161561275f57918102915b60029094049390800290612736565b509250929050565b60008261278557506001611578565b8161279257506000611578565b81600181146127a857600281146127b2576127cf565b6001915050611578565b60ff8411156127c3576127c36125be565b8360020a915050611578565b5060208310610133831016604e8410600b84101617156127f2575081810a611578565b6127fc8383612731565b8060001904821115612810576128106125be565b029392505050565b600061157560ff841683612776565b600081518084526020808501945080840160005b83811015612860578151600160a060020a03168752958201959082019060010161283b565b509495945050505050565b85815284602082015260a06040820152600061288a60a0830186612827565b600160a060020a0394909416606083015250608001529392505050565b828152604060208201526000611c976040830184612827565b600060208083850312156128d357600080fd5b825167ffffffffffffffff808211156128eb57600080fd5b818501915085601f8301126128ff57600080fd5b815181811115612911576129116126f6565b838102604051601f19603f83011681018181108582111715612935576129356126f6565b60405291825284820192508381018501918883111561295357600080fd5b938501935b8285101561258e57845184529385019392850192612958565b6000825161298381846020870161233b565b9190910192915050565b60008282101561299f5761299f6125be565b50039056fea26469706673582212202a4b51f30c962f6bf54cdb99dfe10cd3c34567375d3b70cfd798977e2fda5b0864736f6c634300080a0033",
  "immutableReferences": {},
  "source": "// SPDX-License-Identifier: MIT\n\npragma solidity ^0.8.0;\n\nimport \"./_ZorroControllerXChainBase.sol\";\n\nimport \"../interfaces/IZorroControllerXChain.sol\";\n\nimport \"../libraries/PriceFeed.sol\";\n\nimport \"../libraries/SafeSwap.sol\";\n\nimport \"../interfaces/IAMMRouter02.sol\";\n\nimport \"../interfaces/IZorro.sol\";\n\nimport \"@openzeppelin/contracts-upgradeable/token/ERC20/ERC20Upgradeable.sol\";\n\ncontract ZorroControllerXChainEarn is\n    IZorroControllerXChainEarn,\n    ZorroControllerXChainBase\n{\n    /* Libraries */\n    using SafeMathUpgradeable for uint256;\n    using SafeERC20Upgradeable for IERC20Upgradeable;\n    using SafeSwapUni for IAMMRouter02;\n    using PriceFeed for AggregatorV3Interface;\n\n    /* Modifiers */\n\n    /// @notice Only can be called from a registered vault\n    /// @param _pid The pool ID\n    modifier onlyRegisteredVault(uint256 _pid) {\n        (, , , , , address _vault) = ZorroControllerInvestment(\n            currentChainController\n        ).poolInfo(_pid);\n        require(_msgSender() == _vault, \"only reg vault\");\n        _;\n    }\n\n    /// @notice Only can be called on home chain\n    modifier onlyHomeChain() {\n        require(chainId == homeChainId, \"only home chain\");\n        _;\n    }\n\n    /* Events */\n\n    event XChainDistributeEarnings(\n        uint256 indexed _remoteChainId,\n        uint256 indexed _buybackAmountUSD,\n        uint256 indexed _revShareAmountUSD\n    );\n\n    event RemovedSlashedRewards(uint256 indexed _amountZOR);\n\n    /* State */\n\n    // Tokens\n    address public zorroLPPoolOtherToken;\n    // Contracts\n    address public zorroStakingVault;\n    address public uniRouterAddress;\n    // Paths\n    address[] public stablecoinToZorroPath;\n    address[] public stablecoinToZorroLPPoolOtherTokenPath;\n    // Price feeds\n    AggregatorV3Interface public priceFeedZOR;\n    AggregatorV3Interface public priceFeedLPPoolOtherToken;\n    AggregatorV3Interface public priceFeedStablecoin;\n    // Rewards\n    uint256 public accumulatedSlashedRewards; // Accumulated ZOR rewards that need to be minted in batch on the home chain. Should reset to zero periodically\n\n    /* Setters */\n\n    function setZorroLPPoolOtherToken(address _token) external onlyOwner {\n        zorroLPPoolOtherToken = _token;\n    }\n\n    function setZorroStakingVault(address _contract) external onlyOwner {\n        zorroStakingVault = _contract;\n    }\n\n    function setUniRouterAddress(address _contract) external onlyOwner {\n        uniRouterAddress = _contract;\n    }\n\n    function setSwapPaths(\n        address[] calldata _stablecoinToZorroPath,\n        address[] calldata _stablecoinToZorroLPPoolOtherTokenPath\n    ) external onlyOwner {\n        stablecoinToZorroPath = _stablecoinToZorroPath;\n        stablecoinToZorroLPPoolOtherTokenPath = _stablecoinToZorroLPPoolOtherTokenPath;\n    }\n\n    function setPriceFeeds(address[] calldata _priceFeeds) external onlyOwner {\n        priceFeedZOR = AggregatorV3Interface(_priceFeeds[0]);\n        priceFeedLPPoolOtherToken = AggregatorV3Interface(_priceFeeds[1]);\n        priceFeedStablecoin = AggregatorV3Interface(_priceFeeds[2]);\n    }\n\n    /* Fees */\n\n    /// @notice Checks to see how much a cross chain earnings distribution will cost\n    /// @param _amountUSDBuyback Amount of USD to buy back\n    /// @param _amountUSDRevShare Amount of USD to rev share with ZOR single staking vault\n    /// @param _accSlashedRewards Accumulated slashed rewards on chain\n    /// @return uint256 Quantity of native token as fees\n    /// @param _maxMarketMovement factor to account for max market movement/slippage.\n    function checkXChainDistributeEarningsFee(\n        uint256 _amountUSDBuyback,\n        uint256 _amountUSDRevShare,\n        uint256 _accSlashedRewards,\n        uint256 _maxMarketMovement\n    ) external view returns (uint256) {\n        // Init empty LZ object\n        IStargateRouter.lzTxObj memory _lzTxParams;\n\n        // Get payload\n        bytes memory _payload = _encodeXChainDistributeEarningsPayload(\n            chainId,\n            _amountUSDBuyback,\n            _amountUSDRevShare,\n            _accSlashedRewards,\n            _maxMarketMovement\n        );\n        bytes memory _dstContract = abi.encodePacked(homeChainZorroController);\n\n        // Calculate native gas fee and ZRO token fee (Layer Zero token)\n        (uint256 _nativeFee, ) = IStargateRouter(stargateRouter)\n            .quoteLayerZeroFee(\n                ZorroChainToLZMap[homeChainId],\n                1,\n                _dstContract,\n                _payload,\n                _lzTxParams\n            );\n        return _nativeFee;\n    }\n\n    /* Encoding (payloads) */\n\n    /// @notice Encodes payload for making cross chan earnings distribution request\n    /// @param _remoteChainId Zorro chain ID of the chain making the distribution request\n    /// @param _amountUSDBuyback Amount in USD to buy back\n    /// @param _amountUSDRevShare Amount in USD to rev share with ZOR staking vault\n    /// @param _accSlashedRewards Accumulated slashed rewards on chain\n    /// @param _maxMarketMovement factor to account for max market movement/slippage.\n    /// @return bytes ABI encoded payload\n    function _encodeXChainDistributeEarningsPayload(\n        uint256 _remoteChainId,\n        uint256 _amountUSDBuyback,\n        uint256 _amountUSDRevShare,\n        uint256 _accSlashedRewards,\n        uint256 _maxMarketMovement\n    ) internal pure returns (bytes memory) {\n        // Calculate method signature\n        bytes4 _sig = this.receiveXChainDistributionRequest.selector;\n        // Calculate abi encoded bytes for input args\n        bytes memory _inputs = abi.encode(\n            _remoteChainId,\n            _amountUSDBuyback,\n            _amountUSDRevShare,\n            _accSlashedRewards,\n            _maxMarketMovement\n        );\n        // Concatenate bytes of signature and inputs\n        return bytes.concat(_sig, _inputs);\n    }\n\n    /* Sending */\n\n    /// @notice Sends a request back to the home chain to distribute earnings\n    /// @param _pid Pool ID\n    /// @param _buybackAmountUSD Amount in USD to buy back\n    /// @param _revShareAmountUSD Amount in USD to revshare w/ ZOR single staking vault\n    /// @param _maxMarketMovement Acceptable slippage (950 = 5%, 990 = 1% etc.)\n    function sendXChainDistributeEarningsRequest(\n        uint256 _pid,\n        uint256 _buybackAmountUSD,\n        uint256 _revShareAmountUSD,\n        uint256 _maxMarketMovement\n    ) public payable nonReentrant onlyRegisteredVault(_pid) {\n        // Require funds to be submitted with this message\n        require(msg.value > 0, \"No fees submitted\");\n\n        // Calculate total USD to transfer\n        uint256 _totalUSD = _buybackAmountUSD.add(_revShareAmountUSD);\n\n        // Allow this contract to spend USD\n        IERC20Upgradeable(defaultStablecoin).safeIncreaseAllowance(\n            address(this),\n            _totalUSD\n        );\n\n        // Transfer USD into this contract\n        IERC20Upgradeable(defaultStablecoin).safeTransferFrom(\n            msg.sender,\n            address(this),\n            _totalUSD\n        );\n\n        // Check balances\n        uint256 _balUSD = IERC20Upgradeable(defaultStablecoin).balanceOf(address(this));\n\n        // Get accumulated ZOR rewards and set value\n        uint256 _slashedRewards = _removeSlashedRewards();\n\n        // Generate payload\n        bytes memory _payload = _encodeXChainDistributeEarningsPayload(\n            chainId,\n            _buybackAmountUSD,\n            _revShareAmountUSD,\n            _slashedRewards,\n            _maxMarketMovement\n        );\n\n        // Get the destination contract address on the remote chain\n        bytes memory _dstContract = controllerContractsMap[chainId];\n\n        // Call stargate to initiate bridge\n        _callStargateSwap(\n            StargateSwapPayload({\n                chainId: homeChainId,\n                qty: _balUSD,\n                dstContract: _dstContract,\n                payload: _payload,\n                maxMarketMovement: _maxMarketMovement\n            })\n        );\n    }\n\n    /* Receiving */\n\n    /// @notice Dummy func to allow .selector call above and guarantee typesafety for abi calls.\n    /// @dev Should never ever be actually called.\n    function receiveXChainDistributionRequest(\n        uint256 _remoteChainId,\n        uint256 _amountUSDBuyback,\n        uint256 _amountUSDRevShare,\n        uint256 _accSlashedRewards,\n        uint256 _maxMarketMovement\n    ) public {\n        // Revert to make sure this function never gets called\n        require(false, \"illegal dummy func call\");\n\n        // But still include the function call here anyway to satisfy type safety requirements in case there is a change\n        _receiveXChainDistributionRequest(\n            _remoteChainId,\n            _amountUSDBuyback,\n            _amountUSDRevShare,\n            _accSlashedRewards,\n            _maxMarketMovement\n        );\n    }\n\n    /// @notice Receives an authorized request from remote chains to perform earnings fee distribution events, such as: buyback + LP + burn, and revenue share\n    /// @param _remoteChainId The Zorro chain ID of the chain that this request originated from\n    /// @param _amountUSDBuyback The amount in USD that should be minted for LP + burn\n    /// @param _amountUSDRevShare The amount in USD that should be minted for revenue sharing with ZOR stakers\n    /// @param _accSlashedRewards Accumulated slashed rewards on chain\n    /// @param _maxMarketMovement factor to account for max market movement/slippage.\n    function _receiveXChainDistributionRequest(\n        uint256 _remoteChainId,\n        uint256 _amountUSDBuyback,\n        uint256 _amountUSDRevShare,\n        uint256 _accSlashedRewards,\n        uint256 _maxMarketMovement\n    ) internal virtual onlyHomeChain {\n        // Total USD to perform operations\n        uint256 _totalUSD = _amountUSDBuyback.add(_amountUSDRevShare);\n\n        // Determine new USD balances\n        uint256 _balUSD = IERC20(defaultStablecoin).balanceOf(address(this));\n\n        /* Buyback */\n        // (Account for slippage)\n        uint256 _buybackAmount = _balUSD.mul(_amountUSDBuyback).div(\n            _totalUSD\n        );\n        _buybackOnChain(_buybackAmount, _maxMarketMovement);\n\n        /* Rev share */\n        // (Account for slippage)\n        uint256 _revShareAmount = _balUSD.mul(_amountUSDRevShare).div(\n            _totalUSD\n        );\n        _revShareOnChain(_revShareAmount, _maxMarketMovement);\n\n        // Emit event\n        emit XChainDistributeEarnings(\n            _remoteChainId,\n            _buybackAmount,\n            _revShareAmount\n        );\n\n        // Award slashed rewards to ZOR stakers\n        if (_accSlashedRewards > 0) {\n            _awardSlashedRewardsToStakers(_accSlashedRewards);\n        }\n    }\n\n    /* Fees */\n\n    /// @notice Adds liquidity to the main ZOR LP pool and burns the resulting LP token\n    /// @param _amountUSD Amount of USD to add as liquidity\n    /// @param _maxMarketMovement factor to account for max market movement/slippage.\n    function _buybackOnChain(uint256 _amountUSD, uint256 _maxMarketMovement)\n        internal\n    {\n        // Authorize spending beforehand\n        IERC20Upgradeable(defaultStablecoin).safeIncreaseAllowance(\n            uniRouterAddress,\n            _amountUSD\n        );\n\n\n        {\n            // Determine exchange rates using price feed oracle\n            uint256[] memory _priceTokens0 = new uint256[](2);\n            _priceTokens0[0] = priceFeedStablecoin.getExchangeRate();\n            _priceTokens0[1] = priceFeedZOR.getExchangeRate();\n            uint256[] memory _priceTokens1 = new uint256[](2);\n            _priceTokens1[0] = _priceTokens0[0];\n            _priceTokens1[1] = priceFeedLPPoolOtherToken.getExchangeRate();\n\n            // Get decimal info\n            uint8[] memory _decimals0 = new uint8[](2);\n            _decimals0[0] = ERC20Upgradeable(defaultStablecoin).decimals();\n            _decimals0[1] = ERC20Upgradeable(ZORRO).decimals();\n            uint8[] memory _decimals1 = new uint8[](2);\n            _decimals1[0] = _decimals0[0];\n            _decimals1[1] = ERC20Upgradeable(zorroLPPoolOtherToken).decimals();\n\n            // Increase allowance\n            IERC20Upgradeable(defaultStablecoin).safeIncreaseAllowance(uniRouterAddress, _amountUSD);\n\n\n            // Swap to ZOR token\n            IAMMRouter02(uniRouterAddress).safeSwap(\n                _amountUSD.div(2),\n                _priceTokens0,\n                _maxMarketMovement,\n                stablecoinToZorroPath,\n                _decimals0,\n                address(this),\n                block.timestamp.add(600)\n            );\n\n            // Swap to counterparty token (if not USD)\n            if (zorroLPPoolOtherToken != defaultStablecoin) {\n                IAMMRouter02(uniRouterAddress).safeSwap(\n                    _amountUSD.div(2),\n                    _priceTokens1,\n                    _maxMarketMovement,\n                    stablecoinToZorroLPPoolOtherTokenPath,\n                    _decimals1,\n                    address(this),\n                    block.timestamp.add(600)\n                );\n            }\n        }\n\n\n        // Enter LP pool\n        uint256 tokenZORAmt = IERC20Upgradeable(ZORRO).balanceOf(address(this));\n        uint256 tokenOtherAmt = IERC20Upgradeable(zorroLPPoolOtherToken).balanceOf(\n            address(this)\n        );\n        IERC20Upgradeable(ZORRO).safeIncreaseAllowance(uniRouterAddress, tokenZORAmt);\n        IERC20Upgradeable(zorroLPPoolOtherToken).safeIncreaseAllowance(\n            uniRouterAddress,\n            tokenOtherAmt\n        );\n        IAMMRouter02(uniRouterAddress).addLiquidity(\n            ZORRO,\n            zorroLPPoolOtherToken,\n            tokenZORAmt,\n            tokenOtherAmt,\n            tokenZORAmt.mul(_maxMarketMovement).div(1000),\n            tokenOtherAmt.mul(_maxMarketMovement).div(1000),\n            burnAddress,\n            block.timestamp.add(600)\n        );\n    }\n\n    /// @notice Pays the ZOR single staking pool the revenue share amount specified\n    /// @param _amountUSD Amount of USD to send as ZOR revenue share\n    /// @param _maxMarketMovement factor to account for max market movement/slippage.\n    function _revShareOnChain(uint256 _amountUSD, uint256 _maxMarketMovement)\n        internal\n    {\n        // Authorize spending beforehand\n        IERC20Upgradeable(defaultStablecoin).safeIncreaseAllowance(\n            uniRouterAddress,\n            _amountUSD\n        );\n\n        // Determine exchange rates using price feed oracle\n        uint256[] memory _priceTokens = new uint256[](2);\n        _priceTokens[0] = priceFeedStablecoin.getExchangeRate();\n        _priceTokens[1] = priceFeedZOR.getExchangeRate();\n\n        // Get decimal info\n        uint8[] memory _decimals = new uint8[](2);\n        _decimals[0] = ERC20Upgradeable(defaultStablecoin).decimals();\n        _decimals[1] = ERC20Upgradeable(ZORRO).decimals();\n\n        // Swap to ZOR\n        // Increase allowance\n        IERC20Upgradeable(defaultStablecoin).safeIncreaseAllowance(uniRouterAddress, _amountUSD);\n        // Swap\n        IAMMRouter02(uniRouterAddress).safeSwap(\n            _amountUSD,\n            _priceTokens,\n            _maxMarketMovement,\n            stablecoinToZorroPath,\n            _decimals,\n            zorroStakingVault,\n            block.timestamp.add(600)\n        );\n    }\n\n    /* Slashed rewards */\n\n    /// @notice Called by oracle to remove slashed ZOR rewards and reset\n    /// @return _slashedZORRewards The amount of accumulated slashed ZOR rewards\n    function _removeSlashedRewards()\n        internal\n        returns (uint256 _slashedZORRewards)\n    {\n        // Store current rewards amount\n        _slashedZORRewards = accumulatedSlashedRewards;\n\n        // Emit success event\n        emit RemovedSlashedRewards(_slashedZORRewards);\n\n        // Reset accumulated rewards\n        accumulatedSlashedRewards = 0;\n    }\n\n    /// @notice Awards the slashed ZOR rewards from other chains to this (home) chain's ZOR staking vault\n    /// @param _slashedZORRewards The amount of accumulated slashed ZOR rewards\n    function _awardSlashedRewardsToStakers(uint256 _slashedZORRewards)\n        internal\n    {\n        // Mint ZOR and send to ZOR staking vault.\n        IZorro(ZORRO).mint(zorroStakingVault, _slashedZORRewards);\n    }\n}\n",
  "sourcePath": "/Users/kristophm/Documents/workspace/zorro-protocol/contracts/controllers/_ZorroControllerXChainEarn.sol",
  "compiler": {
    "name": "solc",
    "version": "0.8.10+commit.fc410830.Emscripten.clang"
  },
  "schemaVersion": "3.4.10",
  "updatedAt": "2022-11-18T16:31:26.876Z",
  "devdoc": {
    "kind": "dev",
    "methods": {
      "checkXChainDistributeEarningsFee(uint256,uint256,uint256,uint256)": {
        "params": {
          "_accSlashedRewards": "Accumulated slashed rewards on chain",
          "_amountUSDBuyback": "Amount of USD to buy back",
          "_amountUSDRevShare": "Amount of USD to rev share with ZOR single staking vault",
          "_maxMarketMovement": "factor to account for max market movement/slippage."
        },
        "returns": {
          "_0": "uint256 Quantity of native token as fees"
        }
      },
      "owner()": {
        "details": "Returns the address of the current owner."
      },
      "receiveXChainDistributionRequest(uint256,uint256,uint256,uint256,uint256)": {
        "details": "Should never ever be actually called."
      },
      "renounceOwnership()": {
        "details": "Leaves the contract without owner. It will not be possible to call `onlyOwner` functions anymore. Can only be called by the current owner. NOTE: Renouncing ownership will leave the contract without an owner, thereby removing any functionality that is only available to the owner."
      },
      "sendXChainDistributeEarningsRequest(uint256,uint256,uint256,uint256)": {
        "params": {
          "_buybackAmountUSD": "Amount in USD to buy back",
          "_maxMarketMovement": "Acceptable slippage (950 = 5%, 990 = 1% etc.)",
          "_pid": "Pool ID",
          "_revShareAmountUSD": "Amount in USD to revshare w/ ZOR single staking vault"
        }
      },
      "setControllerContract(uint256,bytes)": {
        "params": {
          "_controller": "Bytes representation of smart contract address for cross chain contract",
          "_zorroChainId": "Zorro Chain ID"
        }
      },
      "setStargateDestPoolIds(uint256,uint16)": {
        "params": {
          "_stargatePoolId": "Stargate pool ID",
          "_zorroChainId": "Zorro chain ID"
        }
      },
      "setZorroChainToLZMap(uint256,uint16)": {
        "params": {
          "_lzChainId": "LayerZero Chain ID",
          "_zorroChainId": "Zorro chain ID"
        }
      },
      "transferOwnership(address)": {
        "details": "Transfers ownership of the contract to a new account (`newOwner`). Can only be called by the current owner."
      }
    },
    "version": 1
  },
  "userdoc": {
    "kind": "user",
    "methods": {
      "checkXChainDistributeEarningsFee(uint256,uint256,uint256,uint256)": {
        "notice": "Checks to see how much a cross chain earnings distribution will cost"
      },
      "receiveXChainDistributionRequest(uint256,uint256,uint256,uint256,uint256)": {
        "notice": "Dummy func to allow .selector call above and guarantee typesafety for abi calls."
      },
      "sendXChainDistributeEarningsRequest(uint256,uint256,uint256,uint256)": {
        "notice": "Sends a request back to the home chain to distribute earnings"
      },
      "setControllerContract(uint256,bytes)": {
        "notice": "Setter: Controller contract for each chain"
      },
      "setLayerZeroParams(address,uint256,address)": {
        "notice": "Setter: Set main LZ params"
      },
      "setStargateDestPoolIds(uint256,uint16)": {
        "notice": "Setter: Stargate dest pool IDs for USD asset"
      },
      "setZorroChainToLZMap(uint256,uint16)": {
        "notice": "Setter: LZ/Stargate params"
      }
    },
    "version": 1
  }
}