{
  "contractName": "ZorroControllerAnalytics",
  "abi": [
    {
      "anonymous": false,
      "inputs": [
        {
          "indexed": true,
          "internalType": "address",
          "name": "user",
          "type": "address"
        },
        {
          "indexed": true,
          "internalType": "uint256",
          "name": "pid",
          "type": "uint256"
        },
        {
          "indexed": true,
          "internalType": "uint256",
          "name": "settlementEpoch",
          "type": "uint256"
        },
        {
          "indexed": false,
          "internalType": "uint256",
          "name": "value",
          "type": "uint256"
        },
        {
          "indexed": false,
          "internalType": "address",
          "name": "token",
          "type": "address"
        }
      ],
      "name": "ClaimCreated",
      "type": "event"
    },
    {
      "anonymous": false,
      "inputs": [
        {
          "indexed": true,
          "internalType": "address",
          "name": "user",
          "type": "address"
        },
        {
          "indexed": true,
          "internalType": "uint256",
          "name": "pid",
          "type": "uint256"
        },
        {
          "indexed": false,
          "internalType": "uint256",
          "name": "wantAmount",
          "type": "uint256"
        }
      ],
      "name": "Deposit",
      "type": "event"
    },
    {
      "anonymous": false,
      "inputs": [
        {
          "indexed": true,
          "internalType": "address",
          "name": "previousOwner",
          "type": "address"
        },
        {
          "indexed": true,
          "internalType": "address",
          "name": "newOwner",
          "type": "address"
        }
      ],
      "name": "OwnershipTransferred",
      "type": "event"
    },
    {
      "anonymous": false,
      "inputs": [
        {
          "indexed": false,
          "internalType": "address",
          "name": "user",
          "type": "address"
        },
        {
          "indexed": true,
          "internalType": "uint256",
          "name": "fromPid",
          "type": "uint256"
        },
        {
          "indexed": true,
          "internalType": "uint256",
          "name": "fromTrancheId",
          "type": "uint256"
        },
        {
          "indexed": true,
          "internalType": "uint256",
          "name": "toPid",
          "type": "uint256"
        }
      ],
      "name": "TransferInvestment",
      "type": "event"
    },
    {
      "anonymous": false,
      "inputs": [
        {
          "indexed": true,
          "internalType": "address",
          "name": "user",
          "type": "address"
        },
        {
          "indexed": true,
          "internalType": "uint256",
          "name": "pid",
          "type": "uint256"
        },
        {
          "indexed": false,
          "internalType": "uint256",
          "name": "trancheId",
          "type": "uint256"
        },
        {
          "indexed": false,
          "internalType": "uint256",
          "name": "wantAmount",
          "type": "uint256"
        }
      ],
      "name": "Withdraw",
      "type": "event"
    },
    {
      "inputs": [],
      "name": "BSCMarketTVLUSD",
      "outputs": [
        {
          "internalType": "uint256",
          "name": "",
          "type": "uint256"
        }
      ],
      "stateMutability": "view",
      "type": "function"
    },
    {
      "inputs": [],
      "name": "ZORRO",
      "outputs": [
        {
          "internalType": "address",
          "name": "",
          "type": "address"
        }
      ],
      "stateMutability": "view",
      "type": "function"
    },
    {
      "inputs": [],
      "name": "ZORRODailyDistributionFactorBasisPointsMax",
      "outputs": [
        {
          "internalType": "uint256",
          "name": "",
          "type": "uint256"
        }
      ],
      "stateMutability": "view",
      "type": "function"
    },
    {
      "inputs": [],
      "name": "ZORRODailyDistributionFactorBasisPointsMin",
      "outputs": [
        {
          "internalType": "uint256",
          "name": "",
          "type": "uint256"
        }
      ],
      "stateMutability": "view",
      "type": "function"
    },
    {
      "inputs": [],
      "name": "ZorroTotalVaultTVLUSD",
      "outputs": [
        {
          "internalType": "uint256",
          "name": "",
          "type": "uint256"
        }
      ],
      "stateMutability": "view",
      "type": "function"
    },
    {
      "inputs": [],
      "name": "baseRewardRateBasisPoints",
      "outputs": [
        {
          "internalType": "uint256",
          "name": "",
          "type": "uint256"
        }
      ],
      "stateMutability": "view",
      "type": "function"
    },
    {
      "inputs": [],
      "name": "blocksPerDay",
      "outputs": [
        {
          "internalType": "uint256",
          "name": "",
          "type": "uint256"
        }
      ],
      "stateMutability": "view",
      "type": "function"
    },
    {
      "inputs": [],
      "name": "burnAddress",
      "outputs": [
        {
          "internalType": "address",
          "name": "",
          "type": "address"
        }
      ],
      "stateMutability": "view",
      "type": "function"
    },
    {
      "inputs": [
        {
          "internalType": "uint256",
          "name": "",
          "type": "uint256"
        },
        {
          "internalType": "address",
          "name": "",
          "type": "address"
        },
        {
          "internalType": "address",
          "name": "",
          "type": "address"
        }
      ],
      "name": "claims",
      "outputs": [
        {
          "internalType": "uint256",
          "name": "preSettlementAmount",
          "type": "uint256"
        },
        {
          "internalType": "uint256",
          "name": "settlementEpoch",
          "type": "uint256"
        },
        {
          "internalType": "bool",
          "name": "settled",
          "type": "bool"
        },
        {
          "internalType": "uint256",
          "name": "reason",
          "type": "uint256"
        }
      ],
      "stateMutability": "view",
      "type": "function"
    },
    {
      "inputs": [],
      "name": "defaultStablecoin",
      "outputs": [
        {
          "internalType": "address",
          "name": "",
          "type": "address"
        }
      ],
      "stateMutability": "view",
      "type": "function"
    },
    {
      "inputs": [],
      "name": "getZorroPerBlock",
      "outputs": [
        {
          "internalType": "uint256",
          "name": "",
          "type": "uint256"
        }
      ],
      "stateMutability": "view",
      "type": "function"
    },
    {
      "inputs": [
        {
          "internalType": "address",
          "name": "_token",
          "type": "address"
        },
        {
          "internalType": "uint256",
          "name": "_amount",
          "type": "uint256"
        }
      ],
      "name": "inCaseTokensGetStuck",
      "outputs": [],
      "stateMutability": "nonpayable",
      "type": "function"
    },
    {
      "inputs": [],
      "name": "isTimeMultiplierActive",
      "outputs": [
        {
          "internalType": "bool",
          "name": "",
          "type": "bool"
        }
      ],
      "stateMutability": "view",
      "type": "function"
    },
    {
      "inputs": [],
      "name": "owner",
      "outputs": [
        {
          "internalType": "address",
          "name": "",
          "type": "address"
        }
      ],
      "stateMutability": "view",
      "type": "function"
    },
    {
      "inputs": [
        {
          "internalType": "uint256",
          "name": "",
          "type": "uint256"
        }
      ],
      "name": "poolInfo",
      "outputs": [
        {
          "internalType": "contract IERC20",
          "name": "want",
          "type": "address"
        },
        {
          "internalType": "uint256",
          "name": "allocPoint",
          "type": "uint256"
        },
        {
          "internalType": "uint256",
          "name": "lastRewardBlock",
          "type": "uint256"
        },
        {
          "internalType": "uint256",
          "name": "accZORRORewards",
          "type": "uint256"
        },
        {
          "internalType": "uint256",
          "name": "totalTrancheContributions",
          "type": "uint256"
        },
        {
          "internalType": "address",
          "name": "vault",
          "type": "address"
        },
        {
          "internalType": "address",
          "name": "intermediaryToken",
          "type": "address"
        }
      ],
      "stateMutability": "view",
      "type": "function"
    },
    {
      "inputs": [],
      "name": "poolLength",
      "outputs": [
        {
          "internalType": "uint256",
          "name": "",
          "type": "uint256"
        }
      ],
      "stateMutability": "view",
      "type": "function"
    },
    {
      "inputs": [],
      "name": "publicPool",
      "outputs": [
        {
          "internalType": "address",
          "name": "",
          "type": "address"
        }
      ],
      "stateMutability": "view",
      "type": "function"
    },
    {
      "inputs": [
        {
          "internalType": "uint256",
          "name": "",
          "type": "uint256"
        },
        {
          "internalType": "address",
          "name": "",
          "type": "address"
        }
      ],
      "name": "redepositInfo",
      "outputs": [
        {
          "internalType": "uint256",
          "name": "durationCommittedInWeeks",
          "type": "uint256"
        },
        {
          "internalType": "uint256",
          "name": "enteredVaultAt",
          "type": "uint256"
        }
      ],
      "stateMutability": "view",
      "type": "function"
    },
    {
      "inputs": [],
      "name": "renounceOwnership",
      "outputs": [],
      "stateMutability": "nonpayable",
      "type": "function"
    },
    {
      "inputs": [
        {
          "internalType": "uint256",
          "name": "_BSCMarketTVLUSD",
          "type": "uint256"
        }
      ],
      "name": "setBSCMarketTVLUSD",
      "outputs": [],
      "stateMutability": "nonpayable",
      "type": "function"
    },
    {
      "inputs": [
        {
          "internalType": "uint256",
          "name": "_baseRewardRateBasisPoints",
          "type": "uint256"
        }
      ],
      "name": "setBaseRewardRateBasisPoints",
      "outputs": [],
      "stateMutability": "nonpayable",
      "type": "function"
    },
    {
      "inputs": [
        {
          "internalType": "uint256",
          "name": "_blocksPerDay",
          "type": "uint256"
        }
      ],
      "name": "setBlocksPerDay",
      "outputs": [],
      "stateMutability": "nonpayable",
      "type": "function"
    },
    {
      "inputs": [
        {
          "internalType": "bool",
          "name": "_isActive",
          "type": "bool"
        }
      ],
      "name": "setIsTimeMultiplierActive",
      "outputs": [],
      "stateMutability": "nonpayable",
      "type": "function"
    },
    {
      "inputs": [
        {
          "internalType": "address",
          "name": "_publicPoolAddress",
          "type": "address"
        }
      ],
      "name": "setPublicPool",
      "outputs": [],
      "stateMutability": "nonpayable",
      "type": "function"
    },
    {
      "inputs": [
        {
          "internalType": "uint256",
          "name": "_blockNumber",
          "type": "uint256"
        }
      ],
      "name": "setStartBlock",
      "outputs": [],
      "stateMutability": "nonpayable",
      "type": "function"
    },
    {
      "inputs": [
        {
          "internalType": "uint256",
          "name": "_targetTVLCaptureBasisPoints",
          "type": "uint256"
        }
      ],
      "name": "setTargetTVLCaptureBasisPoints",
      "outputs": [],
      "stateMutability": "nonpayable",
      "type": "function"
    },
    {
      "inputs": [
        {
          "internalType": "uint256",
          "name": "_value",
          "type": "uint256"
        }
      ],
      "name": "setZORRODailyDistributionFactorBasisPointsMax",
      "outputs": [],
      "stateMutability": "nonpayable",
      "type": "function"
    },
    {
      "inputs": [
        {
          "internalType": "uint256",
          "name": "_value",
          "type": "uint256"
        }
      ],
      "name": "setZORRODailyDistributionFactorBasisPointsMin",
      "outputs": [],
      "stateMutability": "nonpayable",
      "type": "function"
    },
    {
      "inputs": [
        {
          "internalType": "uint256",
          "name": "_ZorroTotalVaultTVLUSD",
          "type": "uint256"
        }
      ],
      "name": "setZorroTotalVaultTVLUSD",
      "outputs": [],
      "stateMutability": "nonpayable",
      "type": "function"
    },
    {
      "inputs": [],
      "name": "startBlock",
      "outputs": [
        {
          "internalType": "uint256",
          "name": "",
          "type": "uint256"
        }
      ],
      "stateMutability": "view",
      "type": "function"
    },
    {
      "inputs": [],
      "name": "targetTVLCaptureBasisPoints",
      "outputs": [
        {
          "internalType": "uint256",
          "name": "",
          "type": "uint256"
        }
      ],
      "stateMutability": "view",
      "type": "function"
    },
    {
      "inputs": [],
      "name": "totalAllocPoint",
      "outputs": [
        {
          "internalType": "uint256",
          "name": "",
          "type": "uint256"
        }
      ],
      "stateMutability": "view",
      "type": "function"
    },
    {
      "inputs": [
        {
          "internalType": "uint256",
          "name": "",
          "type": "uint256"
        },
        {
          "internalType": "address",
          "name": "",
          "type": "address"
        },
        {
          "internalType": "uint256",
          "name": "",
          "type": "uint256"
        }
      ],
      "name": "trancheInfo",
      "outputs": [
        {
          "internalType": "uint256",
          "name": "contribution",
          "type": "uint256"
        },
        {
          "internalType": "uint256",
          "name": "timeMultiplier",
          "type": "uint256"
        },
        {
          "internalType": "uint256",
          "name": "rewardDebt",
          "type": "uint256"
        },
        {
          "internalType": "uint256",
          "name": "durationCommittedInWeeks",
          "type": "uint256"
        },
        {
          "internalType": "uint256",
          "name": "enteredVaultAt",
          "type": "uint256"
        }
      ],
      "stateMutability": "view",
      "type": "function"
    },
    {
      "inputs": [
        {
          "internalType": "uint256",
          "name": "_pid",
          "type": "uint256"
        },
        {
          "internalType": "address",
          "name": "_user",
          "type": "address"
        }
      ],
      "name": "trancheLength",
      "outputs": [
        {
          "internalType": "uint256",
          "name": "",
          "type": "uint256"
        }
      ],
      "stateMutability": "view",
      "type": "function"
    },
    {
      "inputs": [
        {
          "internalType": "address",
          "name": "newOwner",
          "type": "address"
        }
      ],
      "name": "transferOwnership",
      "outputs": [],
      "stateMutability": "nonpayable",
      "type": "function"
    },
    {
      "inputs": [
        {
          "internalType": "uint256",
          "name": "_pid",
          "type": "uint256"
        }
      ],
      "name": "updatePool",
      "outputs": [],
      "stateMutability": "nonpayable",
      "type": "function"
    },
    {
      "inputs": [
        {
          "internalType": "uint256",
          "name": "_pid",
          "type": "uint256"
        },
        {
          "internalType": "address",
          "name": "_user",
          "type": "address"
        }
      ],
      "name": "pendingZORRORewards",
      "outputs": [
        {
          "internalType": "uint256",
          "name": "",
          "type": "uint256"
        }
      ],
      "stateMutability": "view",
      "type": "function"
    },
    {
      "inputs": [
        {
          "internalType": "uint256",
          "name": "_pid",
          "type": "uint256"
        },
        {
          "internalType": "address",
          "name": "_user",
          "type": "address"
        }
      ],
      "name": "stakedWantTokens",
      "outputs": [
        {
          "internalType": "uint256",
          "name": "",
          "type": "uint256"
        }
      ],
      "stateMutability": "view",
      "type": "function"
    }
  ],
  "bytecode": "0x608060405260038054600160a060020a03191661dead179055600a600681905561708090556001600b8190556014600c55600d805460ff19169091179055600060105534801561004e57600080fd5b5061007161006364010000000061007a810204565b64010000000061007e810204565b600180556100ce565b3390565b60008054600160a060020a03838116600160a060020a0319831681178455604051919092169283917f8be0079c531659141344cd1fd0a4f28419497f9722a3daafe3b4186f6b6457e09190a35050565b6117de806100dd6000396000f3fe608060405234801561001057600080fd5b506004361061024f576000357c010000000000000000000000000000000000000000000000000000000090048063668ababb1161014d578063a6fda082116100d5578063c9057de511610099578063c9057de514610594578063cb9c2f681461059d578063d7312347146105a6578063f2fde38b146105b9578063f35e4a6e146105cc57600080fd5b8063a6fda08214610475578063b4b4e9eb146104e7578063b61bb80a14610522578063c29de0d21461053a578063c6d758cb1461058157600080fd5b80637b84daec1161011c5780637b84daec1461040e5780638c157db2146104215780638da5cb5b14610434578063941d3fd01461044557806394909cc21461046257600080fd5b8063668ababb146103b55780636c78d49c146103e057806370d5ae05146103f3578063715018a61461040657600080fd5b80633b710688116101db57806348cd4cb11161019f57806348cd4cb1146103745780634cfea68a1461037d57806351eb05a61461038657806353f73f87146103995780635527a6f9146103ac57600080fd5b80633b710688146103345780633b9ce5651461033d5780633bbc1ffc146103465780634098b0eb14610359578063441e36c61461036c57600080fd5b80631479a6df116102225780631479a6df1461029c5780631526fe27146102af57806317caf6f114610305578063353b6c2c1461030e5780633b35b7271461032157600080fd5b806305bfc28f14610254578063081e3eda146102695780630861429a1461028057806308da26fc14610293575b600080fd5b61026761026236600461147e565b6105df565b005b600e545b6040519081526020015b60405180910390f35b61026d61028e3660046114b3565b61061a565b61026d60085481565b6102676102aa36600461147e565b6107a9565b6102c26102bd36600461147e565b6107db565b60408051600160a060020a039889168152602081019790975286019490945260608501929092526080840152831660a083015290911660c082015260e001610277565b61026d60105481565b61026761031c36600461147e565b610838565b61026761032f36600461147e565b61086a565b61026d60065481565b61026d600c5481565b61026761035436600461147e565b61089c565b61026761036736600461147e565b6108ce565b61026d610900565b61026d60045481565b61026d600a5481565b61026761039436600461147e565b610a17565b61026d6103a73660046114b3565b610ae7565b61026d600b5481565b6005546103c890600160a060020a031681565b604051600160a060020a039091168152602001610277565b6102676103ee3660046114ed565b610b0f565b6003546103c890600160a060020a031681565b610267610b4f565b61026d61041c3660046114b3565b610b88565b6002546103c890600160a060020a031681565b600054600160a060020a03166103c8565b600d546104529060ff1681565b6040519015158152602001610277565b61026761047036600461150a565b610dbd565b6104c1610483366004611525565b601160209081526000938452604080852082529284528284209052825290208054600182015460028301546003909301549192909160ff9091169084565b604080519485526020850193909352901515918301919091526060820152608001610277565b6104fa6104f5366004611561565b610e19565b604080519586526020860194909452928401919091526060830152608082015260a001610277565b600d546103c8906101009004600160a060020a031681565b61056c6105483660046114b3565b60126020908152600092835260408084209091529082529020805460019091015482565b60408051928352602083019190915201610277565b61026761058f366004611596565b610e73565b61026d60075481565b61026d60095481565b6102676105b436600461147e565b610f3f565b6102676105c736600461150a565b610f71565b6102676105da36600461147e565b611029565b600054600160a060020a031633146106155760405160e560020a62461bcd02815260040161060c906115c0565b60405180910390fd5b600855565b600080600e8481548110610630576106306115f5565b9060005260206000209060070201905060008160030154905081600201544311156106bd57600061066e83600201544361105b90919063ffffffff16565b9050600061067a610900565b905060006106ab6010546106a5876001015461069f868861106e90919063ffffffff16565b9061106e565b9061107a565b90506106b78482611086565b93505050505b60048201546106d1576000925050506107a3565b60006106dd8686610ae7565b90506000805b8281101561079c576000888152600f60209081526040808320600160a060020a038b168452909152812080548390811061071f5761071f6115f5565b90600052602060002090600502019050600061075387600401546106a5620f4240856000015461106e90919063ffffffff16565b9050610787610780836002015461077a620f42406106a58b8761106e90919063ffffffff16565b9061105b565b8590611086565b935050508061079590611653565b90506106e3565b5093505050505b92915050565b600054600160a060020a031633146107d65760405160e560020a62461bcd02815260040161060c906115c0565b600b55565b600e81815481106107eb57600080fd5b60009182526020909120600790910201805460018201546002830154600384015460048501546005860154600690960154600160a060020a03958616975093959294919390928216911687565b600054600160a060020a031633146108655760405160e560020a62461bcd02815260040161060c906115c0565b600a55565b600054600160a060020a031633146108975760405160e560020a62461bcd02815260040161060c906115c0565b600c55565b600054600160a060020a031633146108c95760405160e560020a62461bcd02815260040161060c906115c0565b600955565b600054600160a060020a031633146108fb5760405160e560020a62461bcd02815260040161060c906115c0565b600655565b6000806109326008546106a561092361271060095461107a90919063ffffffff16565b60075460065461069f9161106e565b9050600c548111156109475750600c54610956565b600b548110156109565750600b545b6002546005546040517f70a08231000000000000000000000000000000000000000000000000000000008152600160a060020a03918216600482015260009291909116906370a0823190602401602060405180830381865afa1580156109c0573d6000803e3d6000fd5b505050506040513d601f19601f820116820180604052508101906109e4919061166e565b905060006109f86127106106a5848661106e565b9050610a0f600a548261107a90919063ffffffff16565b935050505090565b6000600e8281548110610a2c57610a2c6115f5565b9060005260206000209060070201905080600201544311610a4b575050565b6000610a6482600201544361105b90919063ffffffff16565b905060008111610a7357505050565b6000610a7d610900565b90506000610aa26010546106a5866001015461069f868861106e90919063ffffffff16565b600554600254919250610ac391600160a060020a0390811691163084611092565b6003840154610ad29082611086565b60038501555050436002909201919091555050565b6000918252600f60209081526040808420600160a060020a0393909316845291905290205490565b600054600160a060020a03163314610b3c5760405160e560020a62461bcd02815260040161060c906115c0565b600d805460ff1916911515919091179055565b600054600160a060020a03163314610b7c5760405160e560020a62461bcd02815260040161060c906115c0565b610b866000611149565b565b600080600e8481548110610b9e57610b9e6115f5565b9060005260206000209060070201905060008160050160009054906101000a9004600160a060020a0316600160a060020a03166344a3955e6040518163ffffffff167c0100000000000000000000000000000000000000000000000000000000028152600401602060405180830381865afa158015610c21573d6000803e3d6000fd5b505050506040513d601f19601f82011682018060405250810190610c45919061166e565b90506000600e8681548110610c5c57610c5c6115f5565b600091825260209182902060056007909202010154604080517f42da4eb30000000000000000000000000000000000000000000000000000000081529051600160a060020a03909216926342da4eb3926004808401938290030181865afa158015610ccb573d6000803e3d6000fd5b505050506040513d601f19601f82011682018060405250810190610cef919061166e565b905081610d0257600093505050506107a3565b6000610d0e8787610ae7565b90506000805b82811015610db1576000898152600f60209081526040808320600160a060020a038c1684529091528120805483908110610d5057610d506115f5565b906000526020600020906005020190506000610d8482600101546106a5620f4240856000015461106e90919063ffffffff16565b9050610d9c610780886106a5620f424081868c61106e565b9350505080610daa90611653565b9050610d14565b50979650505050505050565b600054600160a060020a03163314610dea5760405160e560020a62461bcd02815260040161060c906115c0565b6005805473ffffffffffffffffffffffffffffffffffffffff1916600160a060020a0392909216919091179055565b600f6020528260005260406000206020528160005260406000208181548110610e4157600080fd5b600091825260209091206005909102018054600182015460028301546003840154600490940154929650909450925085565b600054600160a060020a03163314610ea05760405160e560020a62461bcd02815260040161060c906115c0565b600254600160a060020a0383811691161415610f275760405160e560020a62461bcd02815260206004820152603560248201527f217361666520746f20757365205a6f72726f20746f6b656e20696e2066756e6360448201527f20696e43617365546f6b656e73476574537475636b0000000000000000000000606482015260840161060c565b610f3b600160a060020a03831633836111a6565b5050565b600054600160a060020a03163314610f6c5760405160e560020a62461bcd02815260040161060c906115c0565b600755565b600054600160a060020a03163314610f9e5760405160e560020a62461bcd02815260040161060c906115c0565b600160a060020a03811661101d5760405160e560020a62461bcd02815260206004820152602660248201527f4f776e61626c653a206e6577206f776e657220697320746865207a65726f206160448201527f6464726573730000000000000000000000000000000000000000000000000000606482015260840161060c565b61102681611149565b50565b600054600160a060020a031633146110565760405160e560020a62461bcd02815260040161060c906115c0565b600455565b60006110678284611687565b9392505050565b6000611067828461169e565b600061106782846116bd565b600061106782846116f8565b604051600160a060020a03808516602483015283166044820152606481018290526111439085907f23b872dd00000000000000000000000000000000000000000000000000000000906084015b60408051601f198184030181529190526020810180517bffffffffffffffffffffffffffffffffffffffffffffffffffffffff167fffffffff00000000000000000000000000000000000000000000000000000000909316929092179091526111f4565b50505050565b60008054600160a060020a0383811673ffffffffffffffffffffffffffffffffffffffff19831681178455604051919092169283917f8be0079c531659141344cd1fd0a4f28419497f9722a3daafe3b4186f6b6457e09190a35050565b604051600160a060020a0383166024820152604481018290526111ef9084907fa9059cbb00000000000000000000000000000000000000000000000000000000906064016110df565b505050565b6000611249826040518060400160405280602081526020017f5361666545524332303a206c6f772d6c6576656c2063616c6c206661696c656481525085600160a060020a03166112dc9092919063ffffffff16565b8051909150156111ef57808060200190518101906112679190611710565b6111ef5760405160e560020a62461bcd02815260206004820152602a60248201527f5361666545524332303a204552433230206f7065726174696f6e20646964206e60448201527f6f74207375636365656400000000000000000000000000000000000000000000606482015260840161060c565b60606112eb84846000856112f3565b949350505050565b6060303183111561136f5760405160e560020a62461bcd02815260206004820152602660248201527f416464726573733a20696e73756666696369656e742062616c616e636520666f60448201527f722063616c6c0000000000000000000000000000000000000000000000000000606482015260840161060c565b600160a060020a0385163b6113c95760405160e560020a62461bcd02815260206004820152601d60248201527f416464726573733a2063616c6c20746f206e6f6e2d636f6e7472616374000000604482015260640161060c565b60008086600160a060020a031685876040516113e59190611759565b60006040518083038185875af1925050503d8060008114611422576040519150601f19603f3d011682016040523d82523d6000602084013e611427565b606091505b5091509150611437828286611442565b979650505050505050565b60608315611451575081611067565b8251156114615782518084602001fd5b8160405160e560020a62461bcd02815260040161060c9190611775565b60006020828403121561149057600080fd5b5035919050565b8035600160a060020a03811681146114ae57600080fd5b919050565b600080604083850312156114c657600080fd5b823591506114d660208401611497565b90509250929050565b801515811461102657600080fd5b6000602082840312156114ff57600080fd5b8135611067816114df565b60006020828403121561151c57600080fd5b61106782611497565b60008060006060848603121561153a57600080fd5b8335925061154a60208501611497565b915061155860408501611497565b90509250925092565b60008060006060848603121561157657600080fd5b8335925061158660208501611497565b9150604084013590509250925092565b600080604083850312156115a957600080fd5b6115b283611497565b946020939093013593505050565b6020808252818101527f4f776e61626c653a2063616c6c6572206973206e6f7420746865206f776e6572604082015260600190565b7f4e487b7100000000000000000000000000000000000000000000000000000000600052603260045260246000fd5b7f4e487b7100000000000000000000000000000000000000000000000000000000600052601160045260246000fd5b600060001982141561166757611667611624565b5060010190565b60006020828403121561168057600080fd5b5051919050565b60008282101561169957611699611624565b500390565b60008160001904831182151516156116b8576116b8611624565b500290565b6000826116f3577f4e487b7100000000000000000000000000000000000000000000000000000000600052601260045260246000fd5b500490565b6000821982111561170b5761170b611624565b500190565b60006020828403121561172257600080fd5b8151611067816114df565b60005b83811015611748578181015183820152602001611730565b838111156111435750506000910152565b6000825161176b81846020870161172d565b9190910192915050565b602081526000825180602084015261179481604085016020870161172d565b601f01601f1916919091016040019291505056fea2646970667358221220cdb507e1a48748eff62923fd7c5bb5b4c9a5039b7ed9366998fadd3d641ae6bd64736f6c634300080a0033",
  "immutableReferences": {},
  "source": "// SPDX-License-Identifier: MIT\n\npragma solidity ^0.8.0;\n\nimport \"./ZorroControllerBase.sol\";\n\nimport \"./interfaces/IVault.sol\";\n\nimport \"./libraries/SafeMath.sol\";\n\ncontract ZorroControllerAnalytics is ZorroControllerBase {\n    using SafeMath for uint256;\n\n    /// @notice View function to see pending ZORRO on frontend.\n    /// @param _pid Index of pool\n    /// @param _user wallet address of user\n    /// @return amount of Zorro rewards\n    function pendingZORRORewards(uint256 _pid, address _user) external view returns (uint256) {\n        // Get pool and user info\n        PoolInfo storage pool = poolInfo[_pid];\n        uint256 accZORRORewards = pool.accZORRORewards;\n\n        // Increment accumulated ZORRO rewards by the current pending Zorro rewards, \n        // IF we are on a block that is greater than the previous block this function was executed in\n        if (block.number > pool.lastRewardBlock) {\n            uint256 elapsedBlocks = block.number.sub(pool.lastRewardBlock);\n            uint256 ZORROPerBlock = getZorroPerBlock();\n            uint256 ZORROReward = elapsedBlocks.mul(ZORROPerBlock).mul(pool.allocPoint).div(totalAllocPoint);\n            accZORRORewards = accZORRORewards.add(ZORROReward);\n        }\n\n        // Return 0 if the pool has no contributions\n        if (pool.totalTrancheContributions == 0) {\n            return 0;\n        }\n\n        // Get the number of tranches for this user and pool\n        uint256 numTranches = trancheLength(_pid, _user);\n        uint256 pendingRewards = 0;\n        // Iterate through each tranche and increment rewards\n        for (uint256 tid = 0; tid < numTranches; ++tid) {\n            // Get the tranch\n            TrancheInfo storage tranche = trancheInfo[_pid][_user][tid];\n            \n            // Return the user's share of the Zorro rewards for this pool, net of the reward debt\n            uint256 trancheShare = tranche.contribution.mul(1e6).div(pool.totalTrancheContributions);\n            pendingRewards = pendingRewards.add(trancheShare.mul(accZORRORewards).div(1e6).sub(tranche.rewardDebt));\n        }\n\n        return pendingRewards;\n    }\n\n    /// @notice View function to see staked Want tokens on frontend.\n    /// @param _pid Index of pool\n    /// @param _user wallet address of user\n    /// @return amount of staked Want tokens\n    function stakedWantTokens(uint256 _pid, address _user) external view returns (uint256) {\n        // Get pool and user info\n        PoolInfo storage pool = poolInfo[_pid];\n\n        // Determine total number of shares in the underlying Zorro Vault contract\n        uint256 sharesTotal = IVault(pool.vault).sharesTotal();\n        // Determine the total number of Want tokens locked into the underlying Zorro Vault contract\n        uint256 wantLockedTotal = IVault(poolInfo[_pid].vault).wantLockedTotal();\n        \n        // If total shares is zero, there are no staked Want tokens\n        if (sharesTotal == 0) {\n            return 0;\n        }\n\n        // Get the number of tranches for this user and pool\n        uint256 numTranches = trancheLength(_pid, _user);\n        uint256 _stakedWantTokens = 0;\n\n        // Iterate through each tranche and increment rewards\n        for (uint256 tid = 0; tid < numTranches; ++tid) {\n            TrancheInfo storage _tranche = trancheInfo[_pid][_user][tid];\n            // Otherwise, staked Want tokens is the user's shares as a percentage of total shares multiplied by total Want tokens locked\n            uint256 trancheShares = _tranche.contribution.mul(1e6).div(_tranche.timeMultiplier);\n            _stakedWantTokens = _stakedWantTokens.add((trancheShares.mul(wantLockedTotal).div(1e6)).div(sharesTotal));\n        }\n\n        return _stakedWantTokens;  \n    }\n}\n",
  "sourcePath": "/Users/kristophm/workspace/crypto/zorro/zorro-protocol/contracts/ZorroControllerAnalytics.sol",
  "compiler": {
    "name": "solc",
    "version": "0.8.10+commit.fc410830.Emscripten.clang"
  },
  "schemaVersion": "3.4.3",
  "updatedAt": "2022-01-09T00:15:15.571Z",
  "devdoc": {
    "kind": "dev",
    "methods": {
      "getZorroPerBlock()": {
        "returns": {
          "_0": "Number of Zorro tokens per block"
        }
      },
      "inCaseTokensGetStuck(address,uint256)": {
        "details": "Does not permit usage for the Zorro token",
        "params": {
          "_amount": "token quantity",
          "_token": "ERC20 token address"
        }
      },
      "owner()": {
        "details": "Returns the address of the current owner."
      },
      "pendingZORRORewards(uint256,address)": {
        "params": {
          "_pid": "Index of pool",
          "_user": "wallet address of user"
        },
        "returns": {
          "_0": "amount of Zorro rewards"
        }
      },
      "poolLength()": {
        "returns": {
          "_0": "Number of pools"
        }
      },
      "renounceOwnership()": {
        "details": "Leaves the contract without owner. It will not be possible to call `onlyOwner` functions anymore. Can only be called by the current owner. NOTE: Renouncing ownership will leave the contract without an owner, thereby removing any functionality that is only available to the owner."
      },
      "stakedWantTokens(uint256,address)": {
        "params": {
          "_pid": "Index of pool",
          "_user": "wallet address of user"
        },
        "returns": {
          "_0": "amount of staked Want tokens"
        }
      },
      "trancheLength(uint256,address)": {
        "params": {
          "_pid": "Index of pool",
          "_user": "wallet address of user"
        },
        "returns": {
          "_0": "Number of tranches"
        }
      },
      "transferOwnership(address)": {
        "details": "Transfers ownership of the contract to a new account (`newOwner`). Can only be called by the current owner."
      },
      "updatePool(uint256)": {
        "params": {
          "_pid": "index of pool"
        }
      }
    },
    "version": 1
  },
  "userdoc": {
    "kind": "user",
    "methods": {
      "getZorroPerBlock()": {
        "notice": "Determine the number of Zorro to emit per block based on current market parameters"
      },
      "inCaseTokensGetStuck(address,uint256)": {
        "notice": "For owner to recover ERC20 tokens on this contract if stuck"
      },
      "pendingZORRORewards(uint256,address)": {
        "notice": "View function to see pending ZORRO on frontend."
      },
      "poolLength()": {
        "notice": "Number of pools in the Zorro protocol"
      },
      "stakedWantTokens(uint256,address)": {
        "notice": "View function to see staked Want tokens on frontend."
      },
      "trancheLength(uint256,address)": {
        "notice": "Number of tranches invested by a given user into a given pool"
      },
      "updatePool(uint256)": {
        "notice": "Update reward variables of the given pool to be up-to-date."
      }
    },
    "version": 1
  }
}