{
  "contractName": "ZorroControllerInvestment",
  "abi": [
    {
      "anonymous": false,
      "inputs": [
        {
          "indexed": true,
          "internalType": "address",
          "name": "account",
          "type": "address"
        },
        {
          "indexed": true,
          "internalType": "bytes",
          "name": "foreignAccount",
          "type": "bytes"
        },
        {
          "indexed": true,
          "internalType": "uint256",
          "name": "pid",
          "type": "uint256"
        },
        {
          "indexed": false,
          "internalType": "uint256",
          "name": "wantAmount",
          "type": "uint256"
        }
      ],
      "name": "Deposit",
      "type": "event"
    },
    {
      "anonymous": false,
      "inputs": [
        {
          "indexed": true,
          "internalType": "address",
          "name": "previousOwner",
          "type": "address"
        },
        {
          "indexed": true,
          "internalType": "address",
          "name": "newOwner",
          "type": "address"
        }
      ],
      "name": "OwnershipTransferred",
      "type": "event"
    },
    {
      "anonymous": false,
      "inputs": [
        {
          "indexed": false,
          "internalType": "address",
          "name": "account",
          "type": "address"
        },
        {
          "indexed": true,
          "internalType": "uint256",
          "name": "fromPid",
          "type": "uint256"
        },
        {
          "indexed": true,
          "internalType": "uint256",
          "name": "fromTrancheId",
          "type": "uint256"
        },
        {
          "indexed": true,
          "internalType": "uint256",
          "name": "toPid",
          "type": "uint256"
        }
      ],
      "name": "TransferInvestment",
      "type": "event"
    },
    {
      "anonymous": false,
      "inputs": [
        {
          "indexed": true,
          "internalType": "address",
          "name": "account",
          "type": "address"
        },
        {
          "indexed": true,
          "internalType": "bytes",
          "name": "foreignAccount",
          "type": "bytes"
        },
        {
          "indexed": true,
          "internalType": "uint256",
          "name": "pid",
          "type": "uint256"
        },
        {
          "indexed": false,
          "internalType": "uint256",
          "name": "trancheId",
          "type": "uint256"
        },
        {
          "indexed": false,
          "internalType": "uint256",
          "name": "wantAmount",
          "type": "uint256"
        }
      ],
      "name": "Withdraw",
      "type": "event"
    },
    {
      "inputs": [],
      "name": "ZORRO",
      "outputs": [
        {
          "internalType": "address",
          "name": "",
          "type": "address"
        }
      ],
      "stateMutability": "view",
      "type": "function"
    },
    {
      "inputs": [],
      "name": "ZORRODailyDistributionFactorBasisPointsMax",
      "outputs": [
        {
          "internalType": "uint256",
          "name": "",
          "type": "uint256"
        }
      ],
      "stateMutability": "view",
      "type": "function"
    },
    {
      "inputs": [],
      "name": "ZORRODailyDistributionFactorBasisPointsMin",
      "outputs": [
        {
          "internalType": "uint256",
          "name": "",
          "type": "uint256"
        }
      ],
      "stateMutability": "view",
      "type": "function"
    },
    {
      "inputs": [],
      "name": "ZORROPerBlock",
      "outputs": [
        {
          "internalType": "uint256",
          "name": "",
          "type": "uint256"
        }
      ],
      "stateMutability": "view",
      "type": "function"
    },
    {
      "inputs": [],
      "name": "accSynthRewardsMinted",
      "outputs": [
        {
          "internalType": "uint256",
          "name": "",
          "type": "uint256"
        }
      ],
      "stateMutability": "view",
      "type": "function"
    },
    {
      "inputs": [],
      "name": "accSynthRewardsSlashed",
      "outputs": [
        {
          "internalType": "uint256",
          "name": "",
          "type": "uint256"
        }
      ],
      "stateMutability": "view",
      "type": "function"
    },
    {
      "inputs": [],
      "name": "baseRewardRateBasisPoints",
      "outputs": [
        {
          "internalType": "uint256",
          "name": "",
          "type": "uint256"
        }
      ],
      "stateMutability": "view",
      "type": "function"
    },
    {
      "inputs": [],
      "name": "blocksPerDay",
      "outputs": [
        {
          "internalType": "uint256",
          "name": "",
          "type": "uint256"
        }
      ],
      "stateMutability": "view",
      "type": "function"
    },
    {
      "inputs": [],
      "name": "burnAddress",
      "outputs": [
        {
          "internalType": "address",
          "name": "",
          "type": "address"
        }
      ],
      "stateMutability": "view",
      "type": "function"
    },
    {
      "inputs": [],
      "name": "chainId",
      "outputs": [
        {
          "internalType": "uint256",
          "name": "",
          "type": "uint256"
        }
      ],
      "stateMutability": "view",
      "type": "function"
    },
    {
      "inputs": [],
      "name": "chainMultiplier",
      "outputs": [
        {
          "internalType": "uint256",
          "name": "",
          "type": "uint256"
        }
      ],
      "stateMutability": "view",
      "type": "function"
    },
    {
      "inputs": [],
      "name": "defaultStablecoin",
      "outputs": [
        {
          "internalType": "address",
          "name": "",
          "type": "address"
        }
      ],
      "stateMutability": "view",
      "type": "function"
    },
    {
      "inputs": [
        {
          "internalType": "uint256",
          "name": "",
          "type": "uint256"
        },
        {
          "internalType": "bytes",
          "name": "",
          "type": "bytes"
        },
        {
          "internalType": "uint256",
          "name": "",
          "type": "uint256"
        }
      ],
      "name": "foreignTrancheInfo",
      "outputs": [
        {
          "internalType": "address",
          "name": "",
          "type": "address"
        }
      ],
      "stateMutability": "view",
      "type": "function"
    },
    {
      "inputs": [],
      "name": "homeChainId",
      "outputs": [
        {
          "internalType": "uint256",
          "name": "",
          "type": "uint256"
        }
      ],
      "stateMutability": "view",
      "type": "function"
    },
    {
      "inputs": [],
      "name": "homeChainZorroController",
      "outputs": [
        {
          "internalType": "address",
          "name": "",
          "type": "address"
        }
      ],
      "stateMutability": "view",
      "type": "function"
    },
    {
      "inputs": [
        {
          "internalType": "address",
          "name": "_token",
          "type": "address"
        },
        {
          "internalType": "uint256",
          "name": "_amount",
          "type": "uint256"
        }
      ],
      "name": "inCaseTokensGetStuck",
      "outputs": [],
      "stateMutability": "nonpayable",
      "type": "function"
    },
    {
      "inputs": [],
      "name": "isTimeMultiplierActive",
      "outputs": [
        {
          "internalType": "bool",
          "name": "",
          "type": "bool"
        }
      ],
      "stateMutability": "view",
      "type": "function"
    },
    {
      "inputs": [],
      "name": "owner",
      "outputs": [
        {
          "internalType": "address",
          "name": "",
          "type": "address"
        }
      ],
      "stateMutability": "view",
      "type": "function"
    },
    {
      "inputs": [
        {
          "internalType": "uint256",
          "name": "",
          "type": "uint256"
        }
      ],
      "name": "poolInfo",
      "outputs": [
        {
          "internalType": "contract IERC20Upgradeable",
          "name": "want",
          "type": "address"
        },
        {
          "internalType": "uint256",
          "name": "allocPoint",
          "type": "uint256"
        },
        {
          "internalType": "uint256",
          "name": "lastRewardBlock",
          "type": "uint256"
        },
        {
          "internalType": "uint256",
          "name": "accZORRORewards",
          "type": "uint256"
        },
        {
          "internalType": "uint256",
          "name": "totalTrancheContributions",
          "type": "uint256"
        },
        {
          "internalType": "address",
          "name": "vault",
          "type": "address"
        }
      ],
      "stateMutability": "view",
      "type": "function"
    },
    {
      "inputs": [],
      "name": "poolLength",
      "outputs": [
        {
          "internalType": "uint256",
          "name": "",
          "type": "uint256"
        }
      ],
      "stateMutability": "view",
      "type": "function"
    },
    {
      "inputs": [],
      "name": "priceFeedLPPoolOtherToken",
      "outputs": [
        {
          "internalType": "contract AggregatorV3Interface",
          "name": "",
          "type": "address"
        }
      ],
      "stateMutability": "view",
      "type": "function"
    },
    {
      "inputs": [],
      "name": "priceFeedZOR",
      "outputs": [
        {
          "internalType": "contract AggregatorV3Interface",
          "name": "",
          "type": "address"
        }
      ],
      "stateMutability": "view",
      "type": "function"
    },
    {
      "inputs": [],
      "name": "publicPool",
      "outputs": [
        {
          "internalType": "address",
          "name": "",
          "type": "address"
        }
      ],
      "stateMutability": "view",
      "type": "function"
    },
    {
      "inputs": [],
      "name": "renounceOwnership",
      "outputs": [],
      "stateMutability": "nonpayable",
      "type": "function"
    },
    {
      "inputs": [],
      "name": "resetSyntheticRewardsMinted",
      "outputs": [],
      "stateMutability": "nonpayable",
      "type": "function"
    },
    {
      "inputs": [],
      "name": "resetSyntheticRewardsSlashed",
      "outputs": [],
      "stateMutability": "nonpayable",
      "type": "function"
    },
    {
      "inputs": [
        {
          "internalType": "address",
          "name": "_burnAddress",
          "type": "address"
        }
      ],
      "name": "setBurnAddress",
      "outputs": [],
      "stateMutability": "nonpayable",
      "type": "function"
    },
    {
      "inputs": [
        {
          "internalType": "address",
          "name": "_ZORRO",
          "type": "address"
        },
        {
          "internalType": "address",
          "name": "_defaultStablecoin",
          "type": "address"
        }
      ],
      "name": "setKeyAddresses",
      "outputs": [],
      "stateMutability": "nonpayable",
      "type": "function"
    },
    {
      "inputs": [
        {
          "internalType": "uint256",
          "name": "_blocksPerDay",
          "type": "uint256"
        },
        {
          "internalType": "uint256[]",
          "name": "_dailyDistFactors",
          "type": "uint256[]"
        },
        {
          "internalType": "uint256",
          "name": "_chainMultiplier",
          "type": "uint256"
        },
        {
          "internalType": "uint256",
          "name": "_baseRewardRateBasisPoints",
          "type": "uint256"
        }
      ],
      "name": "setRewardsParams",
      "outputs": [],
      "stateMutability": "nonpayable",
      "type": "function"
    },
    {
      "inputs": [
        {
          "internalType": "uint256",
          "name": "_startBlock",
          "type": "uint256"
        }
      ],
      "name": "setStartBlock",
      "outputs": [],
      "stateMutability": "nonpayable",
      "type": "function"
    },
    {
      "inputs": [
        {
          "internalType": "uint256",
          "name": "_targetTVLCaptureBasisPoints",
          "type": "uint256"
        }
      ],
      "name": "setTargetTVLCaptureBasisPoints",
      "outputs": [],
      "stateMutability": "nonpayable",
      "type": "function"
    },
    {
      "inputs": [
        {
          "internalType": "uint256",
          "name": "_chainId",
          "type": "uint256"
        },
        {
          "internalType": "uint256",
          "name": "_homeChainId",
          "type": "uint256"
        },
        {
          "internalType": "address",
          "name": "_homeChainZorroController",
          "type": "address"
        }
      ],
      "name": "setXChainParams",
      "outputs": [],
      "stateMutability": "nonpayable",
      "type": "function"
    },
    {
      "inputs": [
        {
          "internalType": "address",
          "name": "_publicPool",
          "type": "address"
        },
        {
          "internalType": "address",
          "name": "_zorroStakingVault",
          "type": "address"
        }
      ],
      "name": "setZorroContracts",
      "outputs": [],
      "stateMutability": "nonpayable",
      "type": "function"
    },
    {
      "inputs": [
        {
          "internalType": "address",
          "name": "_zorroControllerOracle",
          "type": "address"
        }
      ],
      "name": "setZorroControllerOracle",
      "outputs": [],
      "stateMutability": "nonpayable",
      "type": "function"
    },
    {
      "inputs": [
        {
          "internalType": "uint256",
          "name": "_totalChainMultipliers",
          "type": "uint256"
        },
        {
          "internalType": "uint256",
          "name": "_totalMarketTVLUSD",
          "type": "uint256"
        },
        {
          "internalType": "uint256",
          "name": "_targetTVLCaptureBasisPoints",
          "type": "uint256"
        },
        {
          "internalType": "uint256",
          "name": "_ZorroTotalVaultTVLUSD",
          "type": "uint256"
        },
        {
          "internalType": "uint256",
          "name": "_publicPoolZORBalance",
          "type": "uint256"
        }
      ],
      "name": "setZorroPerBlock",
      "outputs": [],
      "stateMutability": "nonpayable",
      "type": "function"
    },
    {
      "inputs": [
        {
          "internalType": "uint256",
          "name": "",
          "type": "uint256"
        }
      ],
      "name": "stablecoinToZorroLPPoolOtherTokenPath",
      "outputs": [
        {
          "internalType": "address",
          "name": "",
          "type": "address"
        }
      ],
      "stateMutability": "view",
      "type": "function"
    },
    {
      "inputs": [
        {
          "internalType": "uint256",
          "name": "",
          "type": "uint256"
        }
      ],
      "name": "stablecoinToZorroPath",
      "outputs": [
        {
          "internalType": "address",
          "name": "",
          "type": "address"
        }
      ],
      "stateMutability": "view",
      "type": "function"
    },
    {
      "inputs": [],
      "name": "startBlock",
      "outputs": [
        {
          "internalType": "uint256",
          "name": "",
          "type": "uint256"
        }
      ],
      "stateMutability": "view",
      "type": "function"
    },
    {
      "inputs": [],
      "name": "targetTVLCaptureBasisPoints",
      "outputs": [
        {
          "internalType": "uint256",
          "name": "",
          "type": "uint256"
        }
      ],
      "stateMutability": "view",
      "type": "function"
    },
    {
      "inputs": [],
      "name": "totalAllocPoint",
      "outputs": [
        {
          "internalType": "uint256",
          "name": "",
          "type": "uint256"
        }
      ],
      "stateMutability": "view",
      "type": "function"
    },
    {
      "inputs": [
        {
          "internalType": "uint256",
          "name": "",
          "type": "uint256"
        },
        {
          "internalType": "address",
          "name": "",
          "type": "address"
        },
        {
          "internalType": "uint256",
          "name": "",
          "type": "uint256"
        }
      ],
      "name": "trancheInfo",
      "outputs": [
        {
          "internalType": "uint256",
          "name": "contribution",
          "type": "uint256"
        },
        {
          "internalType": "uint256",
          "name": "timeMultiplier",
          "type": "uint256"
        },
        {
          "internalType": "uint256",
          "name": "rewardDebt",
          "type": "uint256"
        },
        {
          "internalType": "uint256",
          "name": "durationCommittedInWeeks",
          "type": "uint256"
        },
        {
          "internalType": "uint256",
          "name": "enteredVaultAt",
          "type": "uint256"
        },
        {
          "internalType": "uint256",
          "name": "exitedVaultAt",
          "type": "uint256"
        }
      ],
      "stateMutability": "view",
      "type": "function"
    },
    {
      "inputs": [
        {
          "internalType": "uint256",
          "name": "_pid",
          "type": "uint256"
        },
        {
          "internalType": "address",
          "name": "_user",
          "type": "address"
        }
      ],
      "name": "trancheLength",
      "outputs": [
        {
          "internalType": "uint256",
          "name": "",
          "type": "uint256"
        }
      ],
      "stateMutability": "view",
      "type": "function"
    },
    {
      "inputs": [
        {
          "internalType": "address",
          "name": "newOwner",
          "type": "address"
        }
      ],
      "name": "transferOwnership",
      "outputs": [],
      "stateMutability": "nonpayable",
      "type": "function"
    },
    {
      "inputs": [],
      "name": "uniRouterAddress",
      "outputs": [
        {
          "internalType": "address",
          "name": "",
          "type": "address"
        }
      ],
      "stateMutability": "view",
      "type": "function"
    },
    {
      "inputs": [
        {
          "internalType": "uint256",
          "name": "_pid",
          "type": "uint256"
        }
      ],
      "name": "updatePool",
      "outputs": [
        {
          "internalType": "uint256",
          "name": "mintedZOR",
          "type": "uint256"
        }
      ],
      "stateMutability": "nonpayable",
      "type": "function"
    },
    {
      "inputs": [],
      "name": "zorroControllerOracle",
      "outputs": [
        {
          "internalType": "address",
          "name": "",
          "type": "address"
        }
      ],
      "stateMutability": "view",
      "type": "function"
    },
    {
      "inputs": [],
      "name": "zorroLPPool",
      "outputs": [
        {
          "internalType": "address",
          "name": "",
          "type": "address"
        }
      ],
      "stateMutability": "view",
      "type": "function"
    },
    {
      "inputs": [],
      "name": "zorroLPPoolOtherToken",
      "outputs": [
        {
          "internalType": "address",
          "name": "",
          "type": "address"
        }
      ],
      "stateMutability": "view",
      "type": "function"
    },
    {
      "inputs": [],
      "name": "zorroStakingVault",
      "outputs": [
        {
          "internalType": "address",
          "name": "",
          "type": "address"
        }
      ],
      "stateMutability": "view",
      "type": "function"
    },
    {
      "inputs": [],
      "name": "zorroXChainEndpoint",
      "outputs": [
        {
          "internalType": "address",
          "name": "",
          "type": "address"
        }
      ],
      "stateMutability": "view",
      "type": "function"
    },
    {
      "inputs": [
        {
          "internalType": "bool",
          "name": "_isActive",
          "type": "bool"
        }
      ],
      "name": "setIsTimeMultiplierActive",
      "outputs": [],
      "stateMutability": "nonpayable",
      "type": "function"
    },
    {
      "inputs": [
        {
          "internalType": "address",
          "name": "_zorroLPPool",
          "type": "address"
        },
        {
          "internalType": "address",
          "name": "_zorroLPPoolOtherToken",
          "type": "address"
        }
      ],
      "name": "setZorroLPPoolParams",
      "outputs": [],
      "stateMutability": "nonpayable",
      "type": "function"
    },
    {
      "inputs": [
        {
          "internalType": "address",
          "name": "_uniV2Router",
          "type": "address"
        }
      ],
      "name": "setUniRouter",
      "outputs": [],
      "stateMutability": "nonpayable",
      "type": "function"
    },
    {
      "inputs": [
        {
          "internalType": "address[]",
          "name": "_path",
          "type": "address[]"
        }
      ],
      "name": "setStablecoinToZORPath",
      "outputs": [],
      "stateMutability": "nonpayable",
      "type": "function"
    },
    {
      "inputs": [
        {
          "internalType": "address[]",
          "name": "_path",
          "type": "address[]"
        }
      ],
      "name": "setStablecoinToZorroLPPoolOtherTokenPath",
      "outputs": [],
      "stateMutability": "nonpayable",
      "type": "function"
    },
    {
      "inputs": [
        {
          "internalType": "address",
          "name": "_priceFeedZOR",
          "type": "address"
        },
        {
          "internalType": "address",
          "name": "_priceFeedLPPoolOtherToken",
          "type": "address"
        }
      ],
      "name": "setPriceFeeds",
      "outputs": [],
      "stateMutability": "nonpayable",
      "type": "function"
    },
    {
      "inputs": [
        {
          "internalType": "address",
          "name": "_contract",
          "type": "address"
        }
      ],
      "name": "setZorroXChainEndpoint",
      "outputs": [],
      "stateMutability": "nonpayable",
      "type": "function"
    },
    {
      "inputs": [
        {
          "internalType": "uint256",
          "name": "_pid",
          "type": "uint256"
        },
        {
          "internalType": "uint256",
          "name": "_wantAmt",
          "type": "uint256"
        },
        {
          "internalType": "uint256",
          "name": "_weeksCommitted",
          "type": "uint256"
        }
      ],
      "name": "deposit",
      "outputs": [],
      "stateMutability": "nonpayable",
      "type": "function"
    },
    {
      "inputs": [
        {
          "internalType": "uint256",
          "name": "_pid",
          "type": "uint256"
        },
        {
          "internalType": "uint256",
          "name": "_valueUSD",
          "type": "uint256"
        },
        {
          "internalType": "uint256",
          "name": "_weeksCommitted",
          "type": "uint256"
        },
        {
          "internalType": "uint256",
          "name": "_maxMarketMovement",
          "type": "uint256"
        }
      ],
      "name": "depositFullService",
      "outputs": [],
      "stateMutability": "nonpayable",
      "type": "function"
    },
    {
      "inputs": [
        {
          "internalType": "uint256",
          "name": "_pid",
          "type": "uint256"
        },
        {
          "internalType": "address",
          "name": "_account",
          "type": "address"
        },
        {
          "internalType": "bytes",
          "name": "_foreignAccount",
          "type": "bytes"
        },
        {
          "internalType": "uint256",
          "name": "_valueUSD",
          "type": "uint256"
        },
        {
          "internalType": "uint256",
          "name": "_weeksCommitted",
          "type": "uint256"
        },
        {
          "internalType": "uint256",
          "name": "_vaultEnteredAt",
          "type": "uint256"
        },
        {
          "internalType": "uint256",
          "name": "_maxMarketMovement",
          "type": "uint256"
        }
      ],
      "name": "depositFullServiceFromXChain",
      "outputs": [],
      "stateMutability": "nonpayable",
      "type": "function"
    },
    {
      "inputs": [
        {
          "internalType": "uint256",
          "name": "_pid",
          "type": "uint256"
        },
        {
          "internalType": "uint256",
          "name": "_trancheId",
          "type": "uint256"
        },
        {
          "internalType": "bool",
          "name": "_harvestOnly",
          "type": "bool"
        }
      ],
      "name": "withdraw",
      "outputs": [
        {
          "internalType": "uint256",
          "name": "",
          "type": "uint256"
        }
      ],
      "stateMutability": "nonpayable",
      "type": "function"
    },
    {
      "inputs": [
        {
          "internalType": "uint256",
          "name": "_pid",
          "type": "uint256"
        },
        {
          "internalType": "uint256",
          "name": "_trancheId",
          "type": "uint256"
        },
        {
          "internalType": "bool",
          "name": "_harvestOnly",
          "type": "bool"
        },
        {
          "internalType": "uint256",
          "name": "_maxMarketMovement",
          "type": "uint256"
        }
      ],
      "name": "withdrawalFullService",
      "outputs": [
        {
          "internalType": "uint256",
          "name": "",
          "type": "uint256"
        }
      ],
      "stateMutability": "nonpayable",
      "type": "function"
    },
    {
      "inputs": [
        {
          "internalType": "address",
          "name": "_account",
          "type": "address"
        },
        {
          "internalType": "bytes",
          "name": "_foreignAccount",
          "type": "bytes"
        },
        {
          "internalType": "uint256",
          "name": "_pid",
          "type": "uint256"
        },
        {
          "internalType": "uint256",
          "name": "_trancheId",
          "type": "uint256"
        },
        {
          "internalType": "bool",
          "name": "_harvestOnly",
          "type": "bool"
        },
        {
          "internalType": "uint256",
          "name": "_maxMarketMovement",
          "type": "uint256"
        }
      ],
      "name": "withdrawalFullServiceFromXChain",
      "outputs": [
        {
          "internalType": "uint256",
          "name": "_amountUSD",
          "type": "uint256"
        },
        {
          "internalType": "uint256",
          "name": "_rewardsDueXChain",
          "type": "uint256"
        }
      ],
      "stateMutability": "nonpayable",
      "type": "function"
    },
    {
      "inputs": [
        {
          "internalType": "uint256",
          "name": "_fromPid",
          "type": "uint256"
        },
        {
          "internalType": "uint256",
          "name": "_fromTrancheId",
          "type": "uint256"
        },
        {
          "internalType": "uint256",
          "name": "_toPid",
          "type": "uint256"
        },
        {
          "internalType": "uint256",
          "name": "_maxMarketMovement",
          "type": "uint256"
        }
      ],
      "name": "transferInvestment",
      "outputs": [],
      "stateMutability": "nonpayable",
      "type": "function"
    },
    {
      "inputs": [
        {
          "internalType": "uint256",
          "name": "_pid",
          "type": "uint256"
        }
      ],
      "name": "withdrawAll",
      "outputs": [],
      "stateMutability": "nonpayable",
      "type": "function"
    },
    {
      "inputs": [
        {
          "internalType": "uint256",
          "name": "_rewardsDue",
          "type": "uint256"
        },
        {
          "internalType": "address",
          "name": "_destination",
          "type": "address"
        }
      ],
      "name": "repatriateRewards",
      "outputs": [],
      "stateMutability": "nonpayable",
      "type": "function"
    },
    {
      "inputs": [
        {
          "internalType": "uint256",
          "name": "_totalMinted",
          "type": "uint256"
        },
        {
          "internalType": "uint256",
          "name": "_totalSlashed",
          "type": "uint256"
        }
      ],
      "name": "handleAccXChainRewards",
      "outputs": [],
      "stateMutability": "nonpayable",
      "type": "function"
    },
    {
      "inputs": [
        {
          "internalType": "uint256",
          "name": "durationInWeeks",
          "type": "uint256"
        }
      ],
      "name": "getTimeMultiplier",
      "outputs": [
        {
          "internalType": "uint256",
          "name": "timeMultiplier",
          "type": "uint256"
        }
      ],
      "stateMutability": "view",
      "type": "function"
    }
  ],
  "bytecode": "0x608060405234801561001057600080fd5b50613d16806100206000396000f3fe608060405234801561001057600080fd5b50600436106103ff5760003560e060020a9004806379777d8111610219578063b4b4e9eb11610129578063cff38dd4116100bc578063ef1269671161008b578063ef1269671461090c578063f2fde38b14610915578063f35e4a6e14610928578063f63cce371461093b578063fc39a29e1461094e57600080fd5b8063cff38dd4146108c0578063ebfba7c4146108d3578063ed43633f146108e6578063ee4e2687146108f957600080fd5b8063c2936142116100f8578063c293614214610888578063c4e94f2214610891578063c6d758cb146108a4578063cb9c2f68146108b757600080fd5b8063b4b4e9eb14610819578063b61bb80a14610859578063b95cc6811461086c578063c13260a51461087557600080fd5b8063958e2d31116101ac578063a13346c61161017b578063a13346c6146107c5578063a4d2b083146107cd578063a4d8adf9146107e0578063af018c4b146107f3578063b22f32511461080657600080fd5b8063958e2d311461078d5780639a8a0592146107a05780639cebd371146107a95780639ec68c76146107b257600080fd5b80638c157db2116101e85780638c157db2146107215780638da5cb5b14610734578063941d3fd0146107455780639568786c1461077a57600080fd5b806379777d81146106d55780637bf604d8146106e85780637e37c769146106fb578063823c43d01461070e57600080fd5b806348cd4cb1116103145780635c63fa87116102a75780636b8eb2e5116102765780636b8eb2e5146106815780636c78d49c1461069457806370d5ae05146106a7578063715018a6146106ba578063745af0a8146106c257600080fd5b80635c63fa8714610635578063630aff8714610648578063668ababb1461065b578063693a090b1461066e57600080fd5b806351eb05a6116102e357806351eb05a6146105fd578063529668321461061057806353f73f87146106195780635527a6f91461062c57600080fd5b806348cd4cb1146105c55780634b0e7216146105ce5780634cfea68a146105e15780635051d371146105ea57600080fd5b80631fae1a20116103975780633b710688116103665780633b710688146105655780633b9ce5651461056e5780633bbc1ffc1461057757806340abd8fc1461058a5780634780f9f5146105b257600080fd5b80631fae1a20146104c95780632e31283d146104f457806333cfcd3b1461053f57806339e80a881461055257600080fd5b80630aa0988e116103d35780630aa0988e1461044b5780631526fe271461045e57806317caf6f1146104ad5780631b8fb692146104b657600080fd5b8062aeef8a14610404578063068f158d14610419578063081e3eda1461042c57806309b79b3c14610443575b600080fd5b610417610412366004613330565b610961565b005b610417610427366004613373565b610a00565b60aa545b6040519081526020015b60405180910390f35b610417610a5b565b610417610459366004613373565b610abf565b61047161046c3660046133a6565b610b1a565b60408051600160a060020a03978816815260208101969096528501939093526060840191909152608083015290911660a082015260c00161043a565b61043060a45481565b6104176104c43660046133bf565b610b6d565b6104dc6104d73660046133a6565b610c40565b604051600160a060020a03909116815260200161043a565b6104dc61050236600461349c565b60ac6020908152600093845260408085208451808601840180519281529084019584019590952094529290528252902054600160a060020a031681565b61043061054d3660046134fa565b610c6a565b60b5546104dc90600160a060020a031681565b61043060a35481565b61043060a15481565b6104176105853660046133a6565b610d07565b61059d610598366004613533565b610d66565b6040805192835260208301919091520161043a565b6104176105c03660046135b1565b610e01565b610430609c5481565b6104176105dc3660046135e3565b610e93565b610430609d5481565b6104176105f83660046135e3565b610ee2565b61043061060b3660046133a6565b610f31565b61043060a55481565b6104306106273660046133bf565b61112f565b61043060a05481565b6104176106433660046135fe565b611159565b610417610656366004613633565b6111b0565b6099546104dc90600160a060020a031681565b60b0546104dc90600160a060020a031681565b61041761068f3660046136df565b6111f0565b6104176106a236600461371a565b6112a7565b609b546104dc90600160a060020a031681565b610417611314565b6104306106d0366004613737565b61134d565b60b4546104dc90600160a060020a031681565b60ae546104dc90600160a060020a031681565b6104176107093660046135b1565b6113c7565b60ad546104dc90600160a060020a031681565b6097546104dc90600160a060020a031681565b603354600160a060020a03166104dc565b60ad5461076a9074010000000000000000000000000000000000000000900460ff1681565b604051901515815260200161043a565b6104306107883660046133a6565b61153d565b61041761079b3660046133a6565b61159f565b61043060a75481565b61043060a25481565b6104176107c0366004613373565b6116e5565b610417611740565b609a546104dc90600160a060020a031681565b6104dc6107ee3660046133a6565b6117be565b610417610801366004613633565b6117ce565b60b3546104dc90600160a060020a031681565b61082c610827366004613776565b61180e565b604080519687526020870195909552938501929092526060840152608083015260a082015260c00161043a565b6098546104dc90600160a060020a031681565b61043060a65481565b6104176108833660046137ab565b61186f565b610430609e5481565b61041761089f3660046135e3565b611916565b6104176108b23660046137cd565b611965565b610430609f5481565b6104176108ce3660046137f7565b611a2d565b60af546104dc90600160a060020a031681565b6104176108f4366004613873565b611ac2565b6104176109073660046135e3565b611b3b565b61043060a85481565b6104176109233660046135e3565b611b8a565b6104176109363660046133a6565b611c42565b610417610949366004613373565b611cc7565b60a9546104dc90600160a060020a031681565b600260655414156109905760405160e560020a62461bcd02815260040161098790613900565b60405180910390fd5b6002606581905550600060aa84815481106109ad576109ad613937565b6000918252602090912060069091020180549091506109d790600160a060020a0316333086611d4f565b6109f4843360405180602001604052806000815250868642611e06565b50506001606555505050565b603354600160a060020a03163314610a2d5760405160e560020a62461bcd02815260040161098790613950565b60b38054600160a060020a03938416600160a060020a03199182161790915560b48054929093169116179055565b60ad54600160a060020a031633600160a060020a031614610a915760405160e560020a62461bcd02815260040161098790613985565b60a85460a7541415610ab85760405160e560020a62461bcd028152600401610987906139bc565b600060a555565b603354600160a060020a03163314610aec5760405160e560020a62461bcd02815260040161098790613950565b60978054600160a060020a03938416600160a060020a03199182161790915560988054929093169116179055565b60aa8181548110610b2a57600080fd5b6000918252602090912060069091020180546001820154600283015460038401546004850154600590950154600160a060020a0394851696509294919390921686565b60b554600160a060020a031633600160a060020a031614610ba35760405160e560020a62461bcd028152600401610987906139f3565b60a85460a7541415610bbd57610bb9828261200f565b5050565b6097546040517f40c10f19000000000000000000000000000000000000000000000000000000008152600160a060020a03838116600483015260248201859052909116906340c10f1990604401600060405180830381600087803b158015610c2457600080fd5b505af1158015610c38573d6000803e3d6000fd5b505050505050565b60b28181548110610c5057600080fd5b600091825260209091200154600160a060020a0316905081565b600060026065541415610c925760405160e560020a62461bcd02815260040161098790613900565b60026065819055506000610cba8533604051806020016040528060008152508787600061202d565b9050610cf933826000015160aa8881548110610cd857610cd8613937565b6000918252602090912060069091020154600160a060020a03169190612611565b516001606555949350505050565b603354600160a060020a03163314610d345760405160e560020a62461bcd02815260040161098790613950565b60a954600160a060020a03163014610d615760405160e560020a62461bcd02815260040161098790613a2a565b609f55565b60b5546000908190600160a060020a031633600160a060020a031614610da15760405160e560020a62461bcd028152600401610987906139f3565b610db1888888888888600161265f565b90925090508115610dd357609854610dd390600160a060020a03163384612611565b8015610df657609b54609754610df691600160a060020a03918216911683612611565b965096945050505050565b60026065541415610e275760405160e560020a62461bcd02815260040161098790613900565b6002606581905550600060aa8581548110610e4457610e44613937565b6000918252602090912060056006909202010154609854600160a060020a039182169250610e759116338387611d4f565b6109f485336040518060200160405280600081525087874288612787565b603354600160a060020a03163314610ec05760405160e560020a62461bcd02815260040161098790613950565b609b8054600160a060020a031916600160a060020a0392909216919091179055565b603354600160a060020a03163314610f0f5760405160e560020a62461bcd02815260040161098790613950565b60ad8054600160a060020a031916600160a060020a0392909216919091179055565b60008060aa8381548110610f4757610f47613937565b9060005260206000209060060201905080600201544311610f6b5750600092915050565b6005810154604080517f44a3955e0000000000000000000000000000000000000000000000000000000081529051600092600160a060020a0316916344a3955e9160048083019260209291908290030181865afa158015610fd0573d6000803e3d6000fd5b505050506040513d601f19601f82011682018060405250810190610ff49190613a61565b90508061100b575043600290910155506000919050565b600061102483600201544361287390919063ffffffff16565b9050600061105760a454611051866001015461104b609e548761288690919063ffffffff16565b90612886565b90612892565b60a954909150600160a060020a031630141561108057611077813061200f565b60009450611109565b6097546040517f40c10f1900000000000000000000000000000000000000000000000000000000815230600482015260248101839052600160a060020a03909116906340c10f1990604401600060405180830381600087803b1580156110e557600080fd5b505af11580156110f9573d6000803e3d6000fd5b505050508094506111098561289e565b600384015461111890826128d8565b600385015550504360029092019190915550919050565b600082815260ab60209081526040808320600160a060020a03851684529091529020545b92915050565b603354600160a060020a031633146111865760405160e560020a62461bcd02815260040161098790613950565b60a79290925560a85560a98054600160a060020a031916600160a060020a03909216919091179055565b603354600160a060020a031633146111dd5760405160e560020a62461bcd02815260040161098790613950565b8051610bb99060b19060208401906132b6565b60ad54600160a060020a031633600160a060020a0316146112265760405160e560020a62461bcd02815260040161098790613985565b600061125061123784612710612886565b6110518661104b8960a35461288690919063ffffffff16565b905060a154811115611265575060a154611274565b60a054811015611274575060a0545b609d5461129c9061128b9061104b89612710612886565b60a2546110519061104b8686612886565b609e55505050505050565b603354600160a060020a031633146112d45760405160e560020a62461bcd02815260040161098790613950565b60ad8054911515740100000000000000000000000000000000000000000274ff000000000000000000000000000000000000000019909216919091179055565b603354600160a060020a031633146113415760405160e560020a62461bcd02815260040161098790613950565b61134b60006128e4565b565b6000600260655414156113755760405160e560020a62461bcd02815260040161098790613900565b6002606581905550600061139e336040518060200160405280600081525088888888600061265f565b506098549091506113b990600160a060020a03163383612611565b600160655595945050505050565b600260655414156113ed5760405160e560020a62461bcd02815260040161098790613900565b6002606555600084815260ab60209081526040808320338452909152812080548590811061141d5761141d613937565b600091825260208083206003600690930201919091015487835260ab825260408084203385529092529082208054919350908690811061145f5761145f613937565b9060005260206000209060060201600401549050600061149533604051806020016040528060008152508989600089600061265f565b5090506114d860aa86815481106114ae576114ae613937565b6000918252602090912060056006909202010154609854600160a060020a03908116911683612611565b6114f68533604051806020016040528060008152508487878a612787565b6040513381528590879089907f67e7aba7263d8fbeb0cd9a2f4008f060a6a03f46c1d7f9d0550f0b93e96e96f89060200160405180910390a4505060016065555050505050565b60ad5464e8d4a510009074010000000000000000000000000000000000000000900460ff161561159a5761159764e8d4a510006115916103e8611051600261104b858161158c8b612710612886565b612936565b906128d8565b90505b919050565b600260655414156115c55760405160e560020a62461bcd02815260040161098790613900565b600260655560006115d6823361112f565b905060005b81811015611612576116018333604051806020016040528060008152508460008061202d565b5061160b81613a93565b90506115db565b50600060aa838154811061162857611628613937565b60009182526020909120600690910201546040517f70a08231000000000000000000000000000000000000000000000000000000008152306004820152600160a060020a03909116906370a0823190602401602060405180830381865afa158015611697573d6000803e3d6000fd5b505050506040513d601f19601f820116820180604052508101906116bb9190613a61565b905080156116db576116db338260aa8681548110610cd857610cd8613937565b5050600160655550565b603354600160a060020a031633146117125760405160e560020a62461bcd02815260040161098790613950565b60ae8054600160a060020a03938416600160a060020a03199182161790915560af8054929093169116179055565b60ad54600160a060020a031633600160a060020a0316146117765760405160e560020a62461bcd02815260040161098790613985565b60a85460a754141561179d5760405160e560020a62461bcd028152600401610987906139bc565b609b5460a654609754610ab892600160a060020a0391821692911690612611565b60b18181548110610c5057600080fd5b603354600160a060020a031633146117fb5760405160e560020a62461bcd02815260040161098790613950565b8051610bb99060b29060208401906132b6565b60ab602052826000526040600020602052816000526040600020818154811061183657600080fd5b60009182526020909120600690910201805460018201546002830154600384015460048501546005909501549397509195509350919086565b60ad54600160a060020a031633600160a060020a0316146118a55760405160e560020a62461bcd02815260040161098790613985565b60a954600160a060020a031630146118d25760405160e560020a62461bcd02815260040161098790613a2a565b609b546118ff90600160a060020a03166118ec8484612873565b609754600160a060020a03169190612611565b609a54610bb9908290600160a060020a031661200f565b603354600160a060020a031633146119435760405160e560020a62461bcd02815260040161098790613950565b60b58054600160a060020a031916600160a060020a0392909216919091179055565b603354600160a060020a031633146119925760405160e560020a62461bcd02815260040161098790613950565b609754600160a060020a0383811691161415611a195760405160e560020a62461bcd02815260206004820152603560248201527f217361666520746f20757365205a6f72726f20746f6b656e20696e2066756e6360448201527f20696e43617365546f6b656e73476574537475636b00000000000000000000006064820152608401610987565b610bb9600160a060020a0383163383612611565b60b554600160a060020a031633600160a060020a031614611a635760405160e560020a62461bcd028152600401610987906139f3565b600060aa8881548110611a7857611a78613937565b6000918252602090912060056006909202010154609854600160a060020a039182169250611aa99116338388611d4f565b611ab888888888888888612787565b5050505050505050565b603354600160a060020a03163314611aef5760405160e560020a62461bcd02815260040161098790613950565b609d8590558383600081611b0557611b05613937565b602002919091013560a0555083836001818110611b2457611b24613937565b602002919091013560a1555060a35560a255505050565b603354600160a060020a03163314611b685760405160e560020a62461bcd02815260040161098790613950565b60b08054600160a060020a031916600160a060020a0392909216919091179055565b603354600160a060020a03163314611bb75760405160e560020a62461bcd02815260040161098790613950565b600160a060020a038116611c365760405160e560020a62461bcd02815260206004820152602660248201527f4f776e61626c653a206e6577206f776e657220697320746865207a65726f206160448201527f64647265737300000000000000000000000000000000000000000000000000006064820152608401610987565b611c3f816128e4565b50565b603354600160a060020a03163314611c6f5760405160e560020a62461bcd02815260040161098790613950565b609c5415611cc25760405160e560020a62461bcd02815260206004820152601560248201527f626c6f636b506172616d7320696d6d757461626c6500000000000000000000006044820152606401610987565b609c55565b603354600160a060020a03163314611cf45760405160e560020a62461bcd02815260040161098790613950565b60a954600160a060020a03163014611d215760405160e560020a62461bcd02815260040161098790613a2a565b60998054600160a060020a03938416600160a060020a031991821617909155609a8054929093169116179055565b604051600160a060020a0380851660248301528316604482015260648101829052611e009085907f23b872dd00000000000000000000000000000000000000000000000000000000906084015b60408051601f198184030181529190526020810180517bffffffffffffffffffffffffffffffffffffffffffffffffffffffff167fffffffff00000000000000000000000000000000000000000000000000000000909316929092179091526129ad565b50505050565b60008060aa8881548110611e1c57611e1c613937565b9060005260206000209060060201905060008511611e7f5760405160e560020a62461bcd02815260206004820152601560248201527f5f77616e74416d74206d757374206265203e20302100000000000000000000006044820152606401610987565b611e8888610f31565b91506000611e968888612a95565b60058301548354919250611eb791600160a060020a03908116911688612b3e565b600060aa8a81548110611ecc57611ecc613937565b60009182526020909120600690910201600501546040517f2209b59e00000000000000000000000000000000000000000000000000000000815260048101899052600160a060020a0390911690632209b59e906024016020604051808303816000875af1158015611f41573d6000803e3d6000fd5b505050506040513d601f19601f82011682018060405250810190611f659190613a61565b90506000611f728761153d565b90506000611f808383612c22565b6004860154909150611f9290826128d8565b6004860155611fa68c858c84868d8d612c37565b8b8a604051611fb59190613ada565b604051809103902085600160a060020a03167fc6b1f1535b3bb3bdffa2f97a671ab7bd6f2512deec58103fa47eb40ed95274278c604051611ff891815260200190565b60405180910390a450505050509695505050505050565b609954609754610bb991600160a060020a0391821691168385611d4f565b6040805180820190915260008082526020820152600160a060020a038616158015612059575060008551115b806120765750600160a060020a0386161580159061207657508451155b6120c55760405160e560020a62461bcd02815260206004820152601d60248201527f4f6e6c79206f6e65206163636f756e74207479706520616c6c6f7765640000006044820152606401610987565b60006120d38886888a612de3565b9050600060aa89815481106120ea576120ea613937565b9060005260206000209060060201905060008260000151116121515760405160e560020a62461bcd02815260206004820152601960248201527f7472616e6368652e636f6e747269627574696f6e2069732030000000000000006044820152606401610987565b60008160040154116121a85760405160e560020a62461bcd02815260206004820152601e60248201527f746f74616c5472616e636865436f6e747269627574696f6e73206973203000006044820152606401610987565b60a0820151156121fd5760405160e560020a62461bcd02815260206004820152601460248201527f416c726561647920657869746564207661756c740000000000000000000000006044820152606401610987565b61220689610f31565b50600061223a836040015161223484600401546110518660030154886000015161288690919063ffffffff16565b90612873565b905080156122e65760008061224f8584612f86565b91509150861561229c576020860182905260a85460a754141561228d57801561228857609a5461228890600160a060020a03168261301b565b6122e3565b801561228857612288816130ca565b81156122ac576122ac8b8361301b565b60a85460a75414156122d457801561228857609a5461228890600160a060020a03168261301b565b80156122e3576122e3816130ca565b50505b856126045760006122f78a8a612a95565b9050600060aa8c8154811061230e5761230e613937565b906000526020600020906006020160050160009054906101000a9004600160a060020a0316905060006124266123ad83600160a060020a03166344a3955e6040518163ffffffff1660e060020a028152600401602060405180830381865afa15801561237e573d6000803e3d6000fd5b505050506040513d601f19601f820116820180604052508101906123a29190613a61565b602089015190612886565b61105184600160a060020a03166342da4eb36040518163ffffffff1660e060020a028152600401602060405180830381865afa1580156123f1573d6000803e3d6000fd5b505050506040513d601f19601f820116820180604052508101906124159190613a61565b895161104b9064e8d4a51000612886565b6040517f55ebedec00000000000000000000000000000000000000000000000000000000815260048101829052909150600160a060020a038316906355ebedec906024016020604051808303816000875af1158015612489573d6000803e3d6000fd5b505050506040513d601f19601f820116820180604052508101906124ad9190613a61565b50855160048601546124be91612873565b60048681019190915585546040517f70a082310000000000000000000000000000000000000000000000000000000081523092810192909252600160a060020a0316906370a0823190602401602060405180830381865afa158015612527573d6000803e3d6000fd5b505050506040513d601f19601f8201168201806040525081019061254b9190613a61565b875260008d815260ab60209081526040808320600160a060020a0387168452909152902080544291908c90811061258457612584613937565b9060005260206000209060060201600501819055508c8b6040516125a89190613ada565b60405180910390208d600160a060020a03167fa7749cd42821d3b82a6814af6d80712b2e43f98ec1b25aee31c8351855de65d98d8b600001516040516125f8929190918252602082015260400190565b60405180910390a45050505b5050509695505050505050565b604051600160a060020a03831660248201526044810182905261265a9084907fa9059cbb0000000000000000000000000000000000000000000000000000000090606401611d9c565b505050565b600080600060aa888154811061267757612677613937565b60009182526020822060056006909202010154600160a060020a031691506126a3898c8c8b8b8a61202d565b90506126e282826000015160aa8c815481106126c1576126c1613937565b6000918252602090912060069091020154600160a060020a03169190612b3e565b80516040517f648794a4000000000000000000000000000000000000000000000000000000008152600481019190915260248101879052600160a060020a0383169063648794a4906044016020604051808303816000875af115801561274c573d6000803e3d6000fd5b505050506040513d601f19601f820116820180604052508101906127709190613a61565b935080602001519250505097509795505050505050565b600060aa888154811061279c5761279c613937565b60009182526020822060069190910201600501546040517fe502a88d0000000000000000000000000000000000000000000000000000000081526004810188905260248101859052600160a060020a039091169250829063e502a88d906044016020604051808303816000875af115801561281b573d6000803e3d6000fd5b505050506040513d601f19601f8201168201806040525081019061283f9190613a61565b9050612859828260aa8c815481106126c1576126c1613937565b612867898989848989611e06565b50505050505050505050565b600061287f8284613af6565b9392505050565b600061287f8284613b0d565b600061287f8284613b2c565b60a85460a75414156128c55760405160e560020a62461bcd028152600401610987906139bc565b60a5546128d290826128d8565b60a55550565b600061287f8284613b51565b60338054600160a060020a03838116600160a060020a0319831681179093556040519116919082907f8be0079c531659141344cd1fd0a4f28419497f9722a3daafe3b4186f6b6457e090600090a35050565b60008161294557506000919050565b6003821161295557506001919050565b60006002612964846001613b51565b61296e9190613b2c565b90508291505b818110156129a75790508060028161298c8186613b2c565b6129969190613b51565b6129a09190613b2c565b9050612974565b50919050565b6000612a02826040518060400160405280602081526020017f5361666545524332303a206c6f772d6c6576656c2063616c6c206661696c656481525085600160a060020a03166131049092919063ffffffff16565b80519091501561265a5780806020019051810190612a209190613b69565b61265a5760405160e560020a62461bcd02815260206004820152602a60248201527f5361666545524332303a204552433230206f7065726174696f6e20646964206e60448201527f6f742073756363656564000000000000000000000000000000000000000000006064820152608401610987565b81600160a060020a038116611153576000825111612b1e5760405160e560020a62461bcd02815260206004820152602c60248201527f4e65697468657220666f726569676e2061636374206e6f72206c6f63616c206160448201527f6363742070726f766964656400000000000000000000000000000000000000006064820152608401610987565b612b2782613b86565b6c0100000000000000000000000090049392505050565b6040517fdd62ed3e000000000000000000000000000000000000000000000000000000008152306004820152600160a060020a038381166024830152600091839186169063dd62ed3e90604401602060405180830381865afa158015612ba8573d6000803e3d6000fd5b505050506040513d601f19601f82011682018060405250810190612bcc9190613a61565b612bd69190613b51565b604051600160a060020a038516602482015260448101829052909150611e009085907f095ea7b30000000000000000000000000000000000000000000000000000000090606401611d9c565b600061287f64e8d4a510006110518585612886565b600060aa8881548110612c4c57612c4c613937565b600091825260208083206040805160c0808201835260069095029092018054600160a060020a03908116845260018201548486015260028201548484015260038201546060850190815260048301546080860190815260059093015490911660a0850152825195860183528b86529385018a9052519251919550830191612cd791611051908b612886565b815260208082018790526040808301879052600060609384018190528d815260ab8352818120600160a060020a038e1682528352818120805460018181018355918352918490208651600690930201918255928501519281019290925583015160028201559082015160038201556080820151600482015560a0820151600590910155875190915015612dd8578760ac60008b815260200190815260200160002088604051612d869190613ada565b90815260200160405180910390206000612da560016122348e8e61112f565b815260200190815260200160002060006101000a815481600160a060020a030219169083600160a060020a031602179055505b505050505050505050565b612e1c6040518060c001604052806000815260200160008152602001600081526020016000815260200160008152602001600081525090565b600160a060020a03821615612ebb57600085815260ab60209081526040808320600160a060020a03861684529091529020805485908110612e5f57612e5f613937565b90600052602060002090600602016040518060c001604052908160008201548152602001600182015481526020016002820154815260200160038201548152602001600482015481526020016005820154815250509050612f7e565b600085815260ac60205260408082209051612ed7908690613ada565b908152604080516020928190038301902060008881529083528181205489825260ab8452828220600160a060020a0390911680835293522080549192509086908110612f2557612f25613937565b90600052602060002090600602016040518060c001604052908160008201548152602001600182015481526020016002820154815260200160038201548152602001600482015481526020016005820154815250509150505b949350505050565b60008060008311612f9c57506000905080613014565b6000612fd042612fca612fbf62093a80896060015161288690919063ffffffff16565b608089015190613113565b9061311f565b9050600081131561300e576060850151612ffb90612ff19062093a80612886565b6110518684612886565b91506130078483612873565b9250613012565b8392505b505b9250929050565b6097546040517f70a082310000000000000000000000000000000000000000000000000000000081523060048201528291600091600160a060020a03909116906370a0823190602401602060405180830381865afa158015613081573d6000803e3d6000fd5b505050506040513d601f19601f820116820180604052508101906130a59190613a61565b9050808311156130b3578091505b609754611e0090600160a060020a03168584612611565b60a85460a75414156130f15760405160e560020a62461bcd028152600401610987906139bc565b60a6546130fe90826128d8565b60a65550565b6060612f7e848460008561312b565b600061287f8284613bc5565b600061287f8284613c39565b606030318311156131a75760405160e560020a62461bcd02815260206004820152602660248201527f416464726573733a20696e73756666696369656e742062616c616e636520666f60448201527f722063616c6c00000000000000000000000000000000000000000000000000006064820152608401610987565b600160a060020a0385163b6132015760405160e560020a62461bcd02815260206004820152601d60248201527f416464726573733a2063616c6c20746f206e6f6e2d636f6e74726163740000006044820152606401610987565b60008086600160a060020a0316858760405161321d9190613ada565b60006040518083038185875af1925050503d806000811461325a576040519150601f19603f3d011682016040523d82523d6000602084013e61325f565b606091505b509150915061326f82828661327a565b979650505050505050565b6060831561328957508161287f565b8251156132995782518084602001fd5b8160405160e560020a62461bcd0281526004016109879190613cad565b82805482825590600052602060002090810192821561330b579160200282015b8281111561330b5782518254600160a060020a031916600160a060020a039091161782556020909201916001909101906132d6565b5061331792915061331b565b5090565b5b80821115613317576000815560010161331c565b60008060006060848603121561334557600080fd5b505081359360208301359350604090920135919050565b8035600160a060020a038116811461159a57600080fd5b6000806040838503121561338657600080fd5b61338f8361335c565b915061339d6020840161335c565b90509250929050565b6000602082840312156133b857600080fd5b5035919050565b600080604083850312156133d257600080fd5b8235915061339d6020840161335c565b60e060020a634e487b7102600052604160045260246000fd5b604051601f8201601f1916810167ffffffffffffffff81118282101715613424576134246133e2565b604052919050565b600082601f83011261343d57600080fd5b813567ffffffffffffffff811115613457576134576133e2565b61346a601f8201601f19166020016133fb565b81815284602083860101111561347f57600080fd5b816020850160208301376000918101602001919091529392505050565b6000806000606084860312156134b157600080fd5b83359250602084013567ffffffffffffffff8111156134cf57600080fd5b6134db8682870161342c565b925050604084013590509250925092565b8015158114611c3f57600080fd5b60008060006060848603121561350f57600080fd5b83359250602084013591506040840135613528816134ec565b809150509250925092565b60008060008060008060c0878903121561354c57600080fd5b6135558761335c565b9550602087013567ffffffffffffffff81111561357157600080fd5b61357d89828a0161342c565b9550506040870135935060608701359250608087013561359c816134ec565b8092505060a087013590509295509295509295565b600080600080608085870312156135c757600080fd5b5050823594602084013594506040840135936060013592509050565b6000602082840312156135f557600080fd5b61287f8261335c565b60008060006060848603121561361357600080fd5b833592506020840135915061362a6040850161335c565b90509250925092565b6000602080838503121561364657600080fd5b823567ffffffffffffffff8082111561365e57600080fd5b818501915085601f83011261367257600080fd5b813581811115613684576136846133e2565b83810291506136948483016133fb565b81815291830184019184810190888411156136ae57600080fd5b938501935b838510156136d3576136c48561335c565b825293850193908501906136b3565b98975050505050505050565b600080600080600060a086880312156136f757600080fd5b505083359560208501359550604085013594606081013594506080013592509050565b60006020828403121561372c57600080fd5b813561287f816134ec565b6000806000806080858703121561374d57600080fd5b84359350602085013592506040850135613766816134ec565b9396929550929360600135925050565b60008060006060848603121561378b57600080fd5b8335925061379b6020850161335c565b9150604084013590509250925092565b600080604083850312156137be57600080fd5b50508035926020909101359150565b600080604083850312156137e057600080fd5b6137e98361335c565b946020939093013593505050565b600080600080600080600060e0888a03121561381257600080fd5b873596506138226020890161335c565b9550604088013567ffffffffffffffff81111561383e57600080fd5b61384a8a828b0161342c565b979a96995096976060810135975060808101359660a0820135965060c090910135945092505050565b60008060008060006080868803121561388b57600080fd5b85359450602086013567ffffffffffffffff808211156138aa57600080fd5b818801915088601f8301126138be57600080fd5b8135818111156138cd57600080fd5b89602080830285010111156138e157600080fd5b9699602092909201985095966040810135965060600135945092505050565b6020808252601f908201527f5265656e7472616e637947756172643a207265656e7472616e742063616c6c00604082015260600190565b60e060020a634e487b7102600052603260045260246000fd5b6020808252818101527f4f776e61626c653a2063616c6c6572206973206e6f7420746865206f776e6572604082015260600190565b60208082526011908201527f6f6e6c79205a6f72726f206f7261636c65000000000000000000000000000000604082015260600190565b60208082526017908201527f466f72206e6f6e20686f6d6520636861696e206f6e6c79000000000000000000604082015260600190565b6020808252600b908201527f78636861696e206f6e6c79000000000000000000000000000000000000000000604082015260600190565b6020808252600f908201527f6f6e6c7920686f6d6520636861696e0000000000000000000000000000000000604082015260600190565b600060208284031215613a7357600080fd5b5051919050565b60e060020a634e487b7102600052601160045260246000fd5b6000600019821415613aa757613aa7613a7a565b5060010190565b60005b83811015613ac9578181015183820152602001613ab1565b83811115611e005750506000910152565b60008251613aec818460208701613aae565b9190910192915050565b600082821015613b0857613b08613a7a565b500390565b6000816000190483118215151615613b2757613b27613a7a565b500290565b600082613b4c5760e060020a634e487b7102600052601260045260246000fd5b500490565b60008219821115613b6457613b64613a7a565b500190565b600060208284031215613b7b57600080fd5b815161287f816134ec565b805160208201516bffffffffffffffffffffffff198082169291906014831015613bbd57808360140360080260020a820283161693505b505050919050565b6000808212827f7fffffffffffffffffffffffffffffffffffffffffffffffffffffffffffffff03841381151615613bff57613bff613a7a565b827f8000000000000000000000000000000000000000000000000000000000000000038412811615613c3357613c33613a7a565b50500190565b6000808312837f800000000000000000000000000000000000000000000000000000000000000001831281151615613c7357613c73613a7a565b837f7fffffffffffffffffffffffffffffffffffffffffffffffffffffffffffffff018313811615613ca757613ca7613a7a565b50500390565b6020815260008251806020840152613ccc816040850160208701613aae565b601f01601f1916919091016040019291505056fea264697066735822122040440728f3bbfb3ce38cd924d91500b204eeee55e9e85b8f31ae5c36eefc84a864736f6c634300080a0033",
  "immutableReferences": {},
  "source": "// SPDX-License-Identifier: MIT\n\npragma solidity ^0.8.0;\n\nimport \"./_ZorroControllerBase.sol\";\n\nimport \"../interfaces/IVault.sol\";\n\nimport \"@openzeppelin/contracts-upgradeable/token/ERC20/utils/SafeERC20Upgradeable.sol\";\n\nimport \"@openzeppelin/contracts-upgradeable/utils/math/SafeMathUpgradeable.sol\";\n\nimport \"@openzeppelin/contracts-upgradeable/utils/math/SignedSafeMathUpgradeable.sol\";\n\nimport \"../libraries/Math.sol\";\n\nimport \"../libraries/SafeSwap.sol\";\n\nimport \"../libraries/PriceFeed.sol\";\n\nimport \"../interfaces/IZorroController.sol\";\n\ncontract ZorroControllerInvestment is\n    IZorroControllerInvestment,\n    ZorroControllerBase\n{\n    /* Libraries */\n    using SafeERC20Upgradeable for IERC20Upgradeable;\n    using SafeMathUpgradeable for uint256;\n    using SignedSafeMathUpgradeable for int256;\n    using CustomMath for uint256;\n    using SafeSwapUni for IAMMRouter02;\n    using PriceFeed for AggregatorV3Interface;\n\n    /* Structs */\n    struct WithdrawalResult {\n        uint256 wantAmt; // Amount of Want token withdrawn\n        uint256 rewardsDueXChain; // ZOR rewards due to the origin (cross chain) user\n    }\n\n    /* State */\n\n    // Rewards\n    bool public isTimeMultiplierActive; // If true, allows use of time multiplier\n    // Zorro LP pool\n    address public zorroLPPool; // Main pool for Zorro liquidity\n    address public zorroLPPoolOtherToken; // For the dominant LP pool, the counterparty token to the ZOR token\n    // Swaps\n    address public uniRouterAddress; // Router contract address for adding/removing liquidity, etc.\n    address[] public stablecoinToZorroPath; // The path to swap USD to ZOR\n    address[] public stablecoinToZorroLPPoolOtherTokenPath; // The router path from USD to the primary Zorro LP pool, Token 0\n    // Oracles\n    AggregatorV3Interface public priceFeedZOR;\n    AggregatorV3Interface public priceFeedLPPoolOtherToken;\n    // Cross chain\n    address public zorroXChainEndpoint; // Cross chain controller contract\n\n    /* Modifiers */\n\n    /// @notice Only allow sender to be the cross chain controller contract\n    modifier onlyZorroXChain() {\n        require(_msgSender() == zorroXChainEndpoint, \"xchain only\");\n        _;\n    }\n\n    /* Setters */\n\n    /// @notice Setter: Set time multiplier\n    /// @param _isActive Whether it shall be active. If false, timemultiplier will be 1.\n    function setIsTimeMultiplierActive(bool _isActive) external onlyOwner {\n        isTimeMultiplierActive = _isActive;\n    }\n\n    /// @notice Setter: Zorro LP Pool params\n    /// @param _zorroLPPool Address of the Zorro-X LP pool\n    /// @param _zorroLPPoolOtherToken Address of the counterpart token to the ZOR token in the LP Pool\n    function setZorroLPPoolParams(\n        address _zorroLPPool,\n        address _zorroLPPoolOtherToken\n    ) external onlyOwner {\n        zorroLPPool = _zorroLPPool;\n        zorroLPPoolOtherToken = _zorroLPPoolOtherToken;\n    }\n\n    /// @notice Setter: Uniswap-compatible router address\n    /// @param _uniV2Router Address of router\n    function setUniRouter(address _uniV2Router) external onlyOwner {\n        uniRouterAddress = _uniV2Router;\n    }\n\n    /// @notice Setter: Set path for token swap from USD to ZOR\n    /// @param _path Swap path\n    function setStablecoinToZORPath(address[] memory _path) external onlyOwner {\n        stablecoinToZorroPath = _path;\n    }\n\n    /// @notice Setter: Set path for token swap from USD to counterparty token in ZOR LP pool\n    /// @param _path Swap path\n    function setStablecoinToZorroLPPoolOtherTokenPath(address[] memory _path)\n        external\n        onlyOwner\n    {\n        stablecoinToZorroLPPoolOtherTokenPath = _path;\n    }\n\n    /// @notice Setter: Chainlink price feeds\n    /// @param _priceFeedZOR The address of the price feed for ZOR\n    /// @param _priceFeedLPPoolOtherToken The address of the price feed for the counterparty token in the ZOR LP Pool\n    function setPriceFeeds(\n        address _priceFeedZOR,\n        address _priceFeedLPPoolOtherToken\n    ) external onlyOwner {\n        priceFeedZOR = AggregatorV3Interface(_priceFeedZOR);\n        priceFeedLPPoolOtherToken = AggregatorV3Interface(\n            _priceFeedLPPoolOtherToken\n        );\n    }\n\n    /// @notice Setter: Cross chain endpoint\n    /// @param _contract Contract address of endpoint\n    function setZorroXChainEndpoint(address _contract) external onlyOwner {\n        zorroXChainEndpoint = _contract;\n    }\n\n    /* Events */\n\n    event Deposit(\n        address indexed account,\n        bytes indexed foreignAccount,\n        uint256 indexed pid,\n        uint256 wantAmount\n    );\n\n    event Withdraw(\n        address indexed account,\n        bytes indexed foreignAccount,\n        uint256 indexed pid,\n        uint256 trancheId,\n        uint256 wantAmount\n    );\n    event TransferInvestment(\n        address account,\n        uint256 indexed fromPid,\n        uint256 indexed fromTrancheId,\n        uint256 indexed toPid\n    );\n\n    /* Cash flow */\n\n    /// @notice Deposit Want tokens to associated Vault\n    /// @param _pid index of pool\n    /// @param _wantAmt how much Want token to deposit\n    /// @param _weeksCommitted how many weeks the user is committing to on this vault\n    function deposit(\n        uint256 _pid,\n        uint256 _wantAmt,\n        uint256 _weeksCommitted\n    ) public nonReentrant {\n        // Get pool info\n        PoolInfo storage pool = poolInfo[_pid];\n\n        // Transfer the Want token from the user to the this contract\n        IERC20Upgradeable(pool.want).safeTransferFrom(\n            msg.sender,\n            address(this),\n            _wantAmt\n        );\n\n        // Call core deposit function\n        _deposit(\n            _pid,\n            msg.sender,\n            \"\",\n            _wantAmt,\n            _weeksCommitted,\n            block.timestamp\n        );\n    }\n\n    /// @notice Deposits tokens into Vault, updates poolInfo and trancheInfo ledgers\n    /// @dev Because the vault entry date can be backdated, this is a dangerous method and should only be accessed indirectly through other functions\n    /// @param _pid index of pool\n    /// @param _account address of on-chain user (required for onchain, optional for cross-chain)\n    /// @param _foreignAccount address of origin chain user (for cross chain transactions it's required)\n    /// @param _wantAmt how much Want token to deposit (must already be sent to the vault)\n    /// @param _weeksCommitted how many weeks the user is committing to on this vault\n    /// @param _enteredVaultAt Date to backdate vault entry to\n    /// @return _mintedZORRewards Amount of ZOR rewards minted\n    function _deposit(\n        uint256 _pid,\n        address _account,\n        bytes memory _foreignAccount,\n        uint256 _wantAmt,\n        uint256 _weeksCommitted,\n        uint256 _enteredVaultAt\n    ) internal returns (uint256 _mintedZORRewards) {\n        // Get pool info\n        PoolInfo storage pool = poolInfo[_pid];\n\n        // Preflight checks\n        require(_wantAmt > 0, \"_wantAmt must be > 0!\");\n\n        // Update the pool before anything to ensure rewards have been updated and transferred\n        _mintedZORRewards = updatePool(_pid);\n\n        // Get local chain account, as applicable\n        address _localAccount = _getLocalAccount(_account, _foreignAccount);\n\n        // Allowance\n        IERC20Upgradeable(pool.want).safeIncreaseAllowance(\n            pool.vault,\n            _wantAmt\n        );\n\n        // Perform the actual deposit function on the underlying Vault contract and get the number of shares to add\n        uint256 sharesAdded = IVault(poolInfo[_pid].vault).depositWantToken(\n            _wantAmt\n        );\n\n        // Determine time multiplier value.\n        uint256 _timeMultiplier = getTimeMultiplier(_weeksCommitted);\n\n        // Determine the individual user contribution based on the quantity of tokens to stake and the time multiplier\n        uint256 _contributionAdded = _getUserContribution(\n            sharesAdded,\n            _timeMultiplier\n        );\n\n        // Update pool info: Increment the pool's total contributions by the contribution added\n        pool.totalTrancheContributions = pool.totalTrancheContributions.add(\n            _contributionAdded\n        );\n\n        // Create tranche\n        _createTranche(\n            _pid,\n            _localAccount,\n            _foreignAccount,\n            _contributionAdded,\n            _timeMultiplier,\n            _weeksCommitted,\n            _enteredVaultAt\n        );\n\n        // Emit deposit event\n        emit Deposit(_localAccount, _foreignAccount, _pid, _wantAmt);\n    }\n\n    function _getLocalAccount(address _account, bytes memory _foreignAccount)\n        private\n        pure\n        returns (address localAccount)\n    {\n        // Default to provided address if applicable\n        localAccount = _account;\n\n        // Otherwise try to extract from foreign account\n        if (_account == address(0)) {\n            // Foreign account MUST be provided\n            require(\n                _foreignAccount.length > 0,\n                \"Neither foreign acct nor local acct provided\"\n            );\n            // If no local account provided, truncate foreign chain address to 20-bytes\n            localAccount = address(bytes20(_foreignAccount));\n        }\n    }\n\n    /// @notice Internal function for updating tranche ledger upon deposit\n    /// @param _pid Index of pool\n    /// @param _localAccount On-chain address\n    /// @param _foreignAccount Cross-chain address, if applicable\n    /// @param _timeMultiplier Time multiplier factor for rewards\n    /// @param _durationCommittedInWeeks Commitment in weeks for time multiplier\n    /// @param _enteredVaultAt Timestamp at which entered vault\n    function _createTranche(\n        uint256 _pid,\n        address _localAccount,\n        bytes memory _foreignAccount,\n        uint256 _contributionAdded,\n        uint256 _timeMultiplier,\n        uint256 _durationCommittedInWeeks,\n        uint256 _enteredVaultAt\n    ) internal {\n        // Get pool\n        PoolInfo memory pool = poolInfo[_pid];\n\n        // Create tranche info\n        TrancheInfo memory _trancheInfo = TrancheInfo({\n            contribution: _contributionAdded, // Contribution including time multiplier\n            timeMultiplier: _timeMultiplier,\n            rewardDebt: pool.accZORRORewards.mul(_contributionAdded).div(\n                pool.totalTrancheContributions\n            ), // Pro-rata share of accumulated pool rewards, time-commitment weighted\n            durationCommittedInWeeks: _durationCommittedInWeeks,\n            enteredVaultAt: _enteredVaultAt,\n            exitedVaultAt: 0\n        });\n\n        // Push a new tranche for this on-chain user\n        trancheInfo[_pid][_localAccount].push(_trancheInfo);\n\n        // If foreign account provided, write the tranche info to the foreign account ledger as well\n        if (_foreignAccount.length > 0) {\n            foreignTrancheInfo[_pid][_foreignAccount][\n                trancheLength(_pid, _localAccount).sub(1)\n            ] = _localAccount;\n        }\n    }\n\n    /// @notice Deposits funds in a full service manner (performs autoswaps and obtains Want tokens)\n    /// @param _pid index of pool to deposit into\n    /// @param _valueUSD value in USD (in ether units) to deposit\n    /// @param _weeksCommitted how many weeks to commit to the Pool (can be 0 or any uint)\n    /// @param _maxMarketMovement factor to account for max market movement/slippage. The definition varies by Vault, so consult the associated Vault contract for info\n    function depositFullService(\n        uint256 _pid,\n        uint256 _valueUSD,\n        uint256 _weeksCommitted,\n        uint256 _maxMarketMovement\n    ) public nonReentrant {\n        // Get Pool, Vault contract\n        address vaultAddr = poolInfo[_pid].vault;\n\n        // Safe transfer to Vault contract\n        IERC20Upgradeable(defaultStablecoin).safeTransferFrom(\n            msg.sender,\n            vaultAddr,\n            _valueUSD\n        );\n\n        // Run core full deposit\n        _depositFullService(\n            _pid,\n            msg.sender,\n            \"\",\n            _valueUSD,\n            _weeksCommitted,\n            block.timestamp,\n            _maxMarketMovement\n        );\n    }\n\n    /// @notice Full service deposit function to be called by ZorroControllerXChain only.\n    /// @param _pid index of pool to deposit into\n    /// @param _account address of user on-chain\n    /// @param _foreignAccount the cross chain wallet that initiated this call, if applicable.\n    /// @param _valueUSD value in USD (in ether units) to deposit\n    /// @param _weeksCommitted how many weeks to commit to the Pool (can be 0 or any uint)\n    /// @param _vaultEnteredAt date that the vault was entered at\n    /// @param _maxMarketMovement factor to account for max market movement/slippage. The definition varies by Vault, so consult the associated Vault contract for info\n    function depositFullServiceFromXChain(\n        uint256 _pid,\n        address _account,\n        bytes memory _foreignAccount,\n        uint256 _valueUSD,\n        uint256 _weeksCommitted,\n        uint256 _vaultEnteredAt,\n        uint256 _maxMarketMovement\n    ) public onlyZorroXChain {\n        // Get Pool, Vault contract\n        address vaultAddr = poolInfo[_pid].vault;\n\n        // Safe transfer to Vault contract\n        IERC20Upgradeable(defaultStablecoin).safeTransferFrom(\n            msg.sender,\n            vaultAddr,\n            _valueUSD\n        );\n\n        // Make deposit full service call\n        _depositFullService(\n            _pid,\n            _account,\n            _foreignAccount,\n            _valueUSD,\n            _weeksCommitted,\n            _vaultEnteredAt,\n            _maxMarketMovement\n        );\n    }\n\n    /// @notice Private function for depositing\n    /// @dev Dangerous method, as vaultEnteredAt can be backdated\n    /// @param _pid index of pool to deposit into\n    /// @param _account address of user on-chain\n    /// @param _foreignAccount the cross chain wallet that initiated this call, if applicable.\n    /// @param _valueUSD value in USD (in ether units) to deposit\n    /// @param _weeksCommitted how many weeks to commit to the Pool (can be 0 or any uint)\n    /// @param _vaultEnteredAt date that the vault was entered at\n    /// @param _maxMarketMovement factor to account for max market movement/slippage. The definition varies by Vault, so consult the associated Vault contract for info\n    function _depositFullService(\n        uint256 _pid,\n        address _account,\n        bytes memory _foreignAccount,\n        uint256 _valueUSD,\n        uint256 _weeksCommitted,\n        uint256 _vaultEnteredAt,\n        uint256 _maxMarketMovement\n    ) internal {\n        // Get Pool, Vault contract\n        address vaultAddr = poolInfo[_pid].vault;\n\n        // Exchange USD for Want token in the Vault contract\n        uint256 _wantAmt = IVault(vaultAddr).exchangeUSDForWantToken(\n            _valueUSD,\n            _maxMarketMovement\n        );\n\n        // Safe increase allowance and xfer Want to vault contract\n        IERC20Upgradeable(poolInfo[_pid].want).safeIncreaseAllowance(\n            vaultAddr,\n            _wantAmt\n        );\n\n        // Make deposit\n        // Call core deposit function\n        _deposit(\n            _pid,\n            _account,\n            _foreignAccount,\n            _wantAmt,\n            _weeksCommitted,\n            _vaultEnteredAt\n        );\n    }\n\n    /// @notice Fully withdraw Want tokens from underlying Vault.\n    /// @param _pid index of pool\n    /// @param _trancheId index of tranche\n    /// @param _harvestOnly If true, will only harvest Zorro tokens but not do a withdrawal\n    /// @return Amount of Want token withdrawn\n    function withdraw(\n        uint256 _pid,\n        uint256 _trancheId,\n        bool _harvestOnly\n    ) public nonReentrant returns (uint256) {\n        // Withdraw Want token\n        WithdrawalResult memory _res = _withdraw(\n            _pid,\n            msg.sender,\n            \"\",\n            _trancheId,\n            _harvestOnly,\n            false\n        );\n\n        // Transfer to user and return Want amount\n        IERC20Upgradeable(poolInfo[_pid].want).safeTransfer(\n            msg.sender,\n            _res.wantAmt\n        );\n\n        return _res.wantAmt;\n    }\n\n    /// @notice Internal function for withdrawing Want tokens from underlying Vault.\n    /// @dev Can only specify one of _localAccount, _foreignAccount\n    /// @param _pid index of pool\n    /// @param _localAccount Address of the on-chain account that the investment was made with\n    /// @param _foreignAccount Address of the foreign chain account that this inviestment was made with\n    /// @param _trancheId index of tranche\n    /// @param _harvestOnly If true, will only harvest Zorro tokens but not do a withdrawal\n    /// @param _xChainRepatriation Intended for repatriation to another chain\n    /// @return _res A WithdrawalResult struct containing relevant withdrawal result parameters\n    function _withdraw(\n        uint256 _pid,\n        address _localAccount,\n        bytes memory _foreignAccount,\n        uint256 _trancheId,\n        bool _harvestOnly,\n        bool _xChainRepatriation\n    ) internal returns (WithdrawalResult memory _res) {\n        // Can only specify one account (on-chain/foreign, but not both)\n        require(\n            (_localAccount == address(0) && _foreignAccount.length > 0) ||\n                (_localAccount != address(0) && _foreignAccount.length == 0),\n            \"Only one account type allowed\"\n        );\n        // Determine account type and associated values\n        TrancheInfo memory _tranche = _getTranche(\n            _pid,\n            _trancheId,\n            _foreignAccount,\n            _localAccount\n        );\n\n        // Get pool and current tranche info\n        PoolInfo storage _pool = poolInfo[_pid];\n\n        // Require non-zero tranche contribution\n        require(_tranche.contribution > 0, \"tranche.contribution is 0\");\n        // Require non-zero overall tranche contribution\n        require(\n            _pool.totalTrancheContributions > 0,\n            \"totalTrancheContributions is 0\"\n        );\n        // Require that tranche has not yet been exited\n        require(_tranche.exitedVaultAt == 0, \"Already exited vault\");\n\n        // Update the pool before anything to ensure rewards have been updated and transferred\n        updatePool(_pid);\n\n        // Get pending rewards\n        uint256 _pendingRewards = (\n            _tranche.contribution.mul(_pool.accZORRORewards).div(\n                _pool.totalTrancheContributions\n            )\n        ).sub(_tranche.rewardDebt);\n\n        // Withdraw pending ZORRO rewards (a.k.a. \"Harvest\")\n        if (_pendingRewards > 0) {\n            // If pending rewards payable, pay them out\n            (\n                uint256 _rewardsDue,\n                uint256 _slashedRewards\n            ) = _getAdjustedRewards(_tranche, _pendingRewards);\n\n            if (_xChainRepatriation) {\n                // Update rewardsDueXChain\n                _res.rewardsDueXChain = _rewardsDue;\n\n                if (chainId == homeChainId) {\n                    // If repatriating AND on home chain\n\n                    // Transfer any slashed rewards to single Zorro staking vault, if applicable\n                    if (_slashedRewards > 0) {\n                        // Transfer slashed rewards to vault to reward ZORRO stakers\n                        _safeZORROTransfer(zorroStakingVault, _slashedRewards);\n                    }\n                } else {\n                    // If repatriating and NOT on home chain,\n\n                    // Record slashed rewards for Oracle to pick up and burn the corresponding amount on the home chain\n                    if (_slashedRewards > 0) {\n                        _recordSlashedRewards(_slashedRewards);\n                    }\n                }\n            } else {\n                // Transfer ZORRO rewards to user, net of any applicable slashing\n                if (_rewardsDue > 0) {\n                    _safeZORROTransfer(_localAccount, _rewardsDue);\n                }\n\n                if (chainId == homeChainId) {\n                    // If NOT repatriating AND on home chain\n\n                    // Transfer any slashed rewards to single Zorro staking vault, if applicable\n                    if (_slashedRewards > 0) {\n                        // Transfer slashed rewards to vault to reward ZORRO stakers\n                        _safeZORROTransfer(zorroStakingVault, _slashedRewards);\n                    }\n                } else {\n                    // If NOT repatriating and NOT on home chain\n\n                    // Record slashed rewards for Oracle to pick up and burn the corresponding amount on the home chain\n                    if (_slashedRewards > 0) {\n                        _recordSlashedRewards(_slashedRewards);\n                    }\n                }\n            }\n        }\n\n        // If not just harvesting (withdrawing too), proceed with below\n        if (!_harvestOnly) {\n            // Perform the actual withdrawal function on the underlying Vault contract and get the number of shares to remove\n\n            // Get local (on-chain) account\n            address _resolvedLocalAcct = _getLocalAccount(\n                _localAccount,\n                _foreignAccount\n            );\n\n            // Get vault\n            IVault _vault = IVault(poolInfo[_pid].vault);\n\n            // Get staked want tokens\n            // TODO: This MUST be based on shares and NOT want tokens,\n            // Because the quantity of want owed to the user will likely increase \n            // over time..... << END TODO\n            uint256 _stakedWantAmt = _tranche\n                .contribution\n                .mul(1e12)\n                .mul(_vault.wantLockedTotal())\n                .div(_tranche.timeMultiplier.mul(_vault.sharesTotal()));\n\n            // Withdraw the want token for this account\n            _vault.withdrawWantToken(_stakedWantAmt);\n\n            // Update shares safely\n            _pool.totalTrancheContributions = _pool\n                .totalTrancheContributions\n                .sub(_tranche.contribution);\n\n            // Calculate Want token balance\n            _res.wantAmt = IERC20Upgradeable(_pool.want).balanceOf(\n                address(this)\n            );\n\n            // Mark tranche as exited\n            trancheInfo[_pid][_resolvedLocalAcct][_trancheId]\n                .exitedVaultAt = block.timestamp;\n\n            // Emit withdrawal event and return want balance\n            emit Withdraw(\n                _localAccount,\n                _foreignAccount,\n                _pid,\n                _trancheId,\n                _res.wantAmt\n            );\n        }\n    }\n\n    /// @notice Get tranche based on tranche ID and account information\n    /// @dev Takes into account potential cross chain identities\n    /// @param _pid Pool ID\n    /// @param _trancheId Tranche ID\n    /// @param _foreignAccount Identity of the foreign account that the tranche might be associated with\n    /// @param _localAccount Identity of the account on the local chain that the tranche might be associated with\n    /// @return _tranche TrancheInfo object for the tranche found\n    function _getTranche(\n        uint256 _pid,\n        uint256 _trancheId,\n        bytes memory _foreignAccount,\n        address _localAccount\n    ) internal view returns (TrancheInfo memory _tranche) {\n        if (_localAccount != address(0)) {\n            // On-chain withdrawal\n            _tranche = trancheInfo[_pid][_localAccount][_trancheId];\n        } else {\n            // Cross-chain withdrawal\n            address _ftLocalAcct = foreignTrancheInfo[_pid][_foreignAccount][\n                _trancheId\n            ];\n            _tranche = trancheInfo[_pid][_ftLocalAcct][_trancheId];\n        }\n    }\n\n    /// @notice Splits rewards into rewards due and slashed rewards (if early withdrawal)\n    /// @param _tranche TrancheInfo object\n    /// @param _pendingRewards Qty of ZOR tokens as pending rewards\n    /// @return _rewardsDue The amount of ZOR rewards payable\n    /// @return _slashedRewards The amount of ZOR rewards slashed due to early withdrawals\n    function _getAdjustedRewards(\n        TrancheInfo memory _tranche,\n        uint256 _pendingRewards\n    ) internal view returns (uint256 _rewardsDue, uint256 _slashedRewards) {\n        // Only process rewards > 0\n        if (_pendingRewards <= 0) {\n            return (0, 0);\n        }\n        // Check if this is an early withdrawal\n        // If so, slash the accumulated rewards proportionally to the % time remaining before maturity of the time commitment\n        // If not, distribute rewards as normal\n        int256 _timeRemainingInCommitment = int256(_tranche.enteredVaultAt)\n            .add(int256(_tranche.durationCommittedInWeeks.mul(1 weeks)))\n            .sub(int256(block.timestamp));\n        if (_timeRemainingInCommitment > 0) {\n            _slashedRewards = _pendingRewards\n                .mul(uint256(_timeRemainingInCommitment))\n                .div(_tranche.durationCommittedInWeeks.mul(1 weeks));\n            _rewardsDue = _pendingRewards.sub(_slashedRewards);\n        } else {\n            _rewardsDue = _pendingRewards;\n        }\n    }\n\n    /// @notice Withdraws funds from a pool and converts the Want token into USD\n    /// @param _pid index of pool to deposit into\n    /// @param _trancheId index of tranche\n    /// @param _harvestOnly If true, will only harvest Zorro tokens but not do a withdrawal\n    /// @param _maxMarketMovement factor to account for max market movement/slippage. The definition varies by Vault, so consult the associated Vault contract for info\n    /// @return Amount (in USD) returned\n    function withdrawalFullService(\n        uint256 _pid,\n        uint256 _trancheId,\n        bool _harvestOnly,\n        uint256 _maxMarketMovement\n    ) public nonReentrant returns (uint256) {\n        // Withdraw Want token\n        (uint256 _amountUSD, ) = _withdrawalFullService(\n            msg.sender,\n            \"\",\n            _pid,\n            _trancheId,\n            _harvestOnly,\n            _maxMarketMovement,\n            false\n        );\n\n        // Send USD funds back to sender\n        IERC20Upgradeable(defaultStablecoin).safeTransfer(\n            msg.sender,\n            _amountUSD\n        );\n\n        return _amountUSD;\n    }\n\n    /// @notice Full service withdrawal to be called from authorized cross chain endpoint\n    /// @param _account address of wallet on-chain\n    /// @param _foreignAccount address of wallet cross-chain (that originally made this deposit)\n    /// @param _pid index of pool to deposit into\n    /// @param _trancheId index of tranche\n    /// @param _harvestOnly If true, will only harvest Zorro tokens but not do a withdrawal\n    /// @param _maxMarketMovement factor to account for max market movement/slippage. The definition varies by Vault, so consult the associated Vault contract for info\n    /// @return _amountUSD Amount of USD withdrawn\n    /// @return _rewardsDueXChain Amount of ZOR rewards due to the origin (cross chain) user\n    function withdrawalFullServiceFromXChain(\n        address _account,\n        bytes memory _foreignAccount,\n        uint256 _pid,\n        uint256 _trancheId,\n        bool _harvestOnly,\n        uint256 _maxMarketMovement\n    )\n        public\n        onlyZorroXChain\n        returns (uint256 _amountUSD, uint256 _rewardsDueXChain)\n    {\n        // Call withdrawal function on chain\n        (_amountUSD, _rewardsDueXChain) = _withdrawalFullService(\n            _account,\n            _foreignAccount,\n            _pid,\n            _trancheId,\n            _harvestOnly,\n            _maxMarketMovement,\n            true\n        );\n\n        // Transfer USD balance obtained to caller\n        if (_amountUSD > 0) {\n            IERC20Upgradeable(defaultStablecoin).safeTransfer(\n                msg.sender,\n                _amountUSD\n            );\n        }\n\n        // Burn xchain ZOR rewards due before repatriating, if applicable. (They will be minted on opposite chain)\n        if (_rewardsDueXChain > 0) {\n            IERC20Upgradeable(ZORRO).safeTransfer(\n                burnAddress,\n                _rewardsDueXChain\n            );\n        }\n    }\n\n    /// @notice Private function for withdrawing funds from a pool and converting the Want token into USD\n    /// @param _account address of wallet on-chain\n    /// @param _foreignAccount address of wallet cross-chain (that originally made this deposit)\n    /// @param _pid index of pool to deposit into\n    /// @param _trancheId index of tranche\n    /// @param _harvestOnly If true, will only harvest Zorro tokens but not do a withdrawal\n    /// @param _maxMarketMovement factor to account for max market movement/slippage. The definition varies by Vault, so consult the associated Vault contract for info\n    /// @param _xChainRepatriation Intended for repatriation to another chain\n    /// @return _amountUSD Amount of USD withdrawn\n    /// @return _rewardsDueXChain Amount of ZOR rewards due to the origin (cross chain) user\n    function _withdrawalFullService(\n        address _account,\n        bytes memory _foreignAccount,\n        uint256 _pid,\n        uint256 _trancheId,\n        bool _harvestOnly,\n        uint256 _maxMarketMovement,\n        bool _xChainRepatriation\n    ) internal returns (uint256 _amountUSD, uint256 _rewardsDueXChain) {\n        // Get Vault contract\n        address _vaultAddr = poolInfo[_pid].vault;\n\n        // Call core withdrawal function (returns actual amount withdrawn)\n        WithdrawalResult memory _res = _withdraw(\n            _pid,\n            _account,\n            _foreignAccount,\n            _trancheId,\n            _harvestOnly,\n            _xChainRepatriation\n        );\n\n        // Safe increase spending of Vault contract for Want token\n        IERC20Upgradeable(poolInfo[_pid].want).safeIncreaseAllowance(\n            _vaultAddr,\n            _res.wantAmt\n        );\n\n        // Exchange Want for USD\n        _amountUSD = IVault(_vaultAddr).exchangeWantTokenForUSD(\n            _res.wantAmt,\n            _maxMarketMovement\n        );\n\n        _rewardsDueXChain = _res.rewardsDueXChain;\n    }\n\n    /// @notice Transfer all assets from a tranche in one vault to a new vault (works on-chain only)\n    /// @param _fromPid index of pool FROM\n    /// @param _fromTrancheId index of tranche FROM\n    /// @param _toPid index of pool TO\n    /// @param _maxMarketMovement factor to account for max market movement/slippage. The definition varies by Vault, so consult the associated Vault contract for info\n    function transferInvestment(\n        uint256 _fromPid,\n        uint256 _fromTrancheId,\n        uint256 _toPid,\n        uint256 _maxMarketMovement\n    ) public nonReentrant {\n        // Get weeks committed and entered at\n        uint256 weeksCommitted = trancheInfo[_fromPid][msg.sender][\n            _fromTrancheId\n        ].durationCommittedInWeeks;\n        uint256 enteredVaultAt = trancheInfo[_fromPid][msg.sender][\n            _fromTrancheId\n        ].enteredVaultAt;\n\n        // Withdraw\n        (uint256 withdrawnUSD, ) = _withdrawalFullService(\n            msg.sender,\n            \"\",\n            _fromPid,\n            _fromTrancheId,\n            false,\n            _maxMarketMovement,\n            false\n        );\n\n        // Transfer funds to vault\n        IERC20Upgradeable(defaultStablecoin).safeTransfer(\n            poolInfo[_toPid].vault,\n            withdrawnUSD\n        );\n\n        // Redeposit\n        _depositFullService(\n            _toPid,\n            msg.sender,\n            \"\",\n            withdrawnUSD,\n            weeksCommitted,\n            enteredVaultAt,\n            _maxMarketMovement\n        );\n\n        emit TransferInvestment(msg.sender, _fromPid, _fromTrancheId, _toPid);\n    }\n\n    /// @notice Withdraw the maximum number of Want tokens from a pool\n    /// @param _pid index of pool\n    function withdrawAll(uint256 _pid) public nonReentrant {\n        // Iterate through all tranches for the current user and pool and withdraw\n        uint256 numTranches = trancheLength(_pid, msg.sender);\n        for (uint256 tid = 0; tid < numTranches; ++tid) {\n            _withdraw(_pid, msg.sender, \"\", tid, false, false);\n        }\n\n        // Transfer balance as applicable\n        uint256 _wantBal = IERC20Upgradeable(poolInfo[_pid].want).balanceOf(\n            address(this)\n        );\n        if (_wantBal > 0) {\n            IERC20Upgradeable(poolInfo[_pid].want).safeTransfer(\n                msg.sender,\n                _wantBal\n            );\n        }\n    }\n\n    /* X-chain rewards management */\n\n    /// @notice Gets rewards and sends to the recipient of a cross chain withdrawal\n    /// @param _rewardsDue The amount of rewards that need to be fetched and sent to the wallet\n    /// @param _destination Wallet to send funds to\n    function repatriateRewards(uint256 _rewardsDue, address _destination)\n        public\n        onlyZorroXChain\n    {\n        // Get rewards based on chain type\n        if (chainId == homeChainId) {\n            // On Home chain. Fetch rewards from public pool and send to wallet\n            _fetchFundsFromPublicPool(_rewardsDue, _destination);\n        } else {\n            // On other chain. Mint ZORRO tokens and send to wallet\n            IZorro(ZORRO).mint(_destination, _rewardsDue);\n        }\n    }\n\n    /// @notice Called by oracle to account for ZOR rewards that were minted or slashed on other chains\n    /// @dev Caller should call \"reset\" functions so that rewards aren't double-burned/allocated\n    /// @param _totalMinted Total ZOR rewards minted across other chains at this moment\n    /// @param _totalSlashed Total ZOR rewards slashed across other chains at this moment\n    function handleAccXChainRewards(uint256 _totalMinted, uint256 _totalSlashed)\n        public\n        onlyAllowZorroControllerOracle\n        onlyHomeChain\n    {\n        // Burn shares that were minted on other chains so that\n        // the total tokens minted across all chains is constant\n        IERC20Upgradeable(ZORRO).safeTransfer(\n            burnAddress,\n            _totalMinted.sub(_totalSlashed)\n        );\n\n        // Transfer slashed rewards from public pool to ZOR staking vault\n        _fetchFundsFromPublicPool(_totalSlashed, zorroStakingVault);\n    }\n\n    /* Allocations */\n\n    /// @notice Calculate time multiplier based on duration committed\n    /// @dev For Zorro staking vault, returns 1e12 no matter what\n    /// @param durationInWeeks number of weeks committed into Vault\n    /// @return timeMultiplier Time multiplier factor, times 1e12\n    function getTimeMultiplier(uint256 durationInWeeks)\n        public\n        view\n        returns (uint256 timeMultiplier)\n    {\n        timeMultiplier = 1e12;\n\n        if (isTimeMultiplierActive) {\n            // Use sqrt(x * 10000)/100 to get better float point accuracy (see tests)\n            timeMultiplier = ((durationInWeeks.mul(1e4)).sqrt())\n                .mul(1e12)\n                .mul(2)\n                .div(1000)\n                .add(1e12);\n        }\n    }\n\n    /// @notice The contribution of the user, meant to be used in rewards allocations\n    /// @param _liquidityCommitted How many tokens staked (e.g. LP tokens)\n    /// @param _timeMultiplier Time multiplier value (from getTimeMultiplier())\n    /// @return uint256 The relative contribution of the user (unitless)\n    function _getUserContribution(\n        uint256 _liquidityCommitted,\n        uint256 _timeMultiplier\n    ) internal pure returns (uint256) {\n        return _liquidityCommitted.mul(_timeMultiplier).div(1e12);\n    }\n}\n",
  "sourcePath": "/Users/kristophm/Documents/workspace/zorro-protocol/contracts/controllers/_ZorroControllerInvestment.sol",
  "compiler": {
    "name": "solc",
    "version": "0.8.10+commit.fc410830.Emscripten.clang"
  },
  "schemaVersion": "3.4.10",
  "updatedAt": "2022-11-11T13:38:58.251Z",
  "devdoc": {
    "kind": "dev",
    "methods": {
      "deposit(uint256,uint256,uint256)": {
        "params": {
          "_pid": "index of pool",
          "_wantAmt": "how much Want token to deposit",
          "_weeksCommitted": "how many weeks the user is committing to on this vault"
        }
      },
      "depositFullService(uint256,uint256,uint256,uint256)": {
        "params": {
          "_maxMarketMovement": "factor to account for max market movement/slippage. The definition varies by Vault, so consult the associated Vault contract for info",
          "_pid": "index of pool to deposit into",
          "_valueUSD": "value in USD (in ether units) to deposit",
          "_weeksCommitted": "how many weeks to commit to the Pool (can be 0 or any uint)"
        }
      },
      "depositFullServiceFromXChain(uint256,address,bytes,uint256,uint256,uint256,uint256)": {
        "params": {
          "_account": "address of user on-chain",
          "_foreignAccount": "the cross chain wallet that initiated this call, if applicable.",
          "_maxMarketMovement": "factor to account for max market movement/slippage. The definition varies by Vault, so consult the associated Vault contract for info",
          "_pid": "index of pool to deposit into",
          "_valueUSD": "value in USD (in ether units) to deposit",
          "_vaultEnteredAt": "date that the vault was entered at",
          "_weeksCommitted": "how many weeks to commit to the Pool (can be 0 or any uint)"
        }
      },
      "getTimeMultiplier(uint256)": {
        "details": "For Zorro staking vault, returns 1e12 no matter what",
        "params": {
          "durationInWeeks": "number of weeks committed into Vault"
        },
        "returns": {
          "timeMultiplier": "Time multiplier factor, times 1e12"
        }
      },
      "handleAccXChainRewards(uint256,uint256)": {
        "details": "Caller should call \"reset\" functions so that rewards aren't double-burned/allocated",
        "params": {
          "_totalMinted": "Total ZOR rewards minted across other chains at this moment",
          "_totalSlashed": "Total ZOR rewards slashed across other chains at this moment"
        }
      },
      "inCaseTokensGetStuck(address,uint256)": {
        "details": "Does not permit usage for the Zorro token",
        "params": {
          "_amount": "token quantity",
          "_token": "ERC20 token address"
        }
      },
      "owner()": {
        "details": "Returns the address of the current owner."
      },
      "poolLength()": {
        "returns": {
          "_0": "Number of pools"
        }
      },
      "renounceOwnership()": {
        "details": "Leaves the contract without owner. It will not be possible to call `onlyOwner` functions anymore. Can only be called by the current owner. NOTE: Renouncing ownership will leave the contract without an owner, thereby removing any functionality that is only available to the owner."
      },
      "repatriateRewards(uint256,address)": {
        "params": {
          "_destination": "Wallet to send funds to",
          "_rewardsDue": "The amount of rewards that need to be fetched and sent to the wallet"
        }
      },
      "resetSyntheticRewardsMinted()": {
        "details": "To be called by Oracle only, when batch burning synthetic minted rewards"
      },
      "resetSyntheticRewardsSlashed()": {
        "details": "To be called by Oracle only, when batch burning synthetic minted rewards"
      },
      "setBurnAddress(address)": {
        "params": {
          "_burnAddress": "The burn address on this chain"
        }
      },
      "setIsTimeMultiplierActive(bool)": {
        "params": {
          "_isActive": "Whether it shall be active. If false, timemultiplier will be 1."
        }
      },
      "setKeyAddresses(address,address)": {
        "params": {
          "_ZORRO": "ZOR token address",
          "_defaultStablecoin": "Main stablecoin address (USDC)"
        }
      },
      "setPriceFeeds(address,address)": {
        "params": {
          "_priceFeedLPPoolOtherToken": "The address of the price feed for the counterparty token in the ZOR LP Pool",
          "_priceFeedZOR": "The address of the price feed for ZOR"
        }
      },
      "setRewardsParams(uint256,uint256[],uint256,uint256)": {
        "details": "NOTE: Must enter all parameters or existing ones will be overwritten!",
        "params": {
          "_baseRewardRateBasisPoints": "Base reward rate factor, in bp",
          "_blocksPerDay": "# of blocks per day for this chain",
          "_chainMultiplier": "Rewards multiplier factor to be applied to this chain",
          "_dailyDistFactors": "Array of [ZORRODailyDistributionFactorBasisPointsMin, ZORRODailyDistributionFactorBasisPointsMax]"
        }
      },
      "setStablecoinToZORPath(address[])": {
        "params": {
          "_path": "Swap path"
        }
      },
      "setStablecoinToZorroLPPoolOtherTokenPath(address[])": {
        "params": {
          "_path": "Swap path"
        }
      },
      "setTargetTVLCaptureBasisPoints(uint256)": {
        "params": {
          "_targetTVLCaptureBasisPoints": "Percent of market desired to be captured, in bp. 333 = 3.33%. ONLY to be set on the home chain"
        }
      },
      "setUniRouter(address)": {
        "params": {
          "_uniV2Router": "Address of router"
        }
      },
      "setXChainParams(uint256,uint256,address)": {
        "params": {
          "_chainId": "The ind of the chain that this contract is on",
          "_homeChainId": "The chain ID of the home chain",
          "_homeChainZorroController": "The address of the home chain controller"
        }
      },
      "setZorroContracts(address,address)": {
        "params": {
          "_publicPool": "Public pool address (where ZOR minted)",
          "_zorroStakingVault": "Zorro single staking vault address"
        }
      },
      "setZorroControllerOracle(address)": {
        "params": {
          "_zorroControllerOracle": "Address of Chainlink oracle that can interact with this contract"
        }
      },
      "setZorroLPPoolParams(address,address)": {
        "params": {
          "_zorroLPPool": "Address of the Zorro-X LP pool",
          "_zorroLPPoolOtherToken": "Address of the counterpart token to the ZOR token in the LP Pool"
        }
      },
      "setZorroPerBlock(uint256,uint256,uint256,uint256,uint256)": {
        "details": "Values to be provided by Oracle. Perferable to run daily",
        "params": {
          "_ZorroTotalVaultTVLUSD": "USD value of all TVL locked into the Zorro protocol, across all chains",
          "_publicPoolZORBalance": "Number of ZOR tokens remaining in public pool on home chain",
          "_targetTVLCaptureBasisPoints": "% desired capture of total market TVL, measured in basis points",
          "_totalChainMultipliers": "Sum total of all chain multipliers for each chain",
          "_totalMarketTVLUSD": "Total DeFi market TVL across all chains (measured in USD)"
        }
      },
      "setZorroXChainEndpoint(address)": {
        "params": {
          "_contract": "Contract address of endpoint"
        }
      },
      "trancheLength(uint256,address)": {
        "params": {
          "_pid": "Index of pool",
          "_user": "wallet address of user"
        },
        "returns": {
          "_0": "Number of tranches"
        }
      },
      "transferInvestment(uint256,uint256,uint256,uint256)": {
        "params": {
          "_fromPid": "index of pool FROM",
          "_fromTrancheId": "index of tranche FROM",
          "_maxMarketMovement": "factor to account for max market movement/slippage. The definition varies by Vault, so consult the associated Vault contract for info",
          "_toPid": "index of pool TO"
        }
      },
      "transferOwnership(address)": {
        "details": "Transfers ownership of the contract to a new account (`newOwner`). Can only be called by the current owner."
      },
      "updatePool(uint256)": {
        "params": {
          "_pid": "index of pool"
        },
        "returns": {
          "mintedZOR": "Amount of ZOR rewards minted (useful for cross chain)"
        }
      },
      "withdraw(uint256,uint256,bool)": {
        "params": {
          "_harvestOnly": "If true, will only harvest Zorro tokens but not do a withdrawal",
          "_pid": "index of pool",
          "_trancheId": "index of tranche"
        },
        "returns": {
          "_0": "Amount of Want token withdrawn"
        }
      },
      "withdrawAll(uint256)": {
        "params": {
          "_pid": "index of pool"
        }
      },
      "withdrawalFullService(uint256,uint256,bool,uint256)": {
        "params": {
          "_harvestOnly": "If true, will only harvest Zorro tokens but not do a withdrawal",
          "_maxMarketMovement": "factor to account for max market movement/slippage. The definition varies by Vault, so consult the associated Vault contract for info",
          "_pid": "index of pool to deposit into",
          "_trancheId": "index of tranche"
        },
        "returns": {
          "_0": "Amount (in USD) returned"
        }
      },
      "withdrawalFullServiceFromXChain(address,bytes,uint256,uint256,bool,uint256)": {
        "params": {
          "_account": "address of wallet on-chain",
          "_foreignAccount": "address of wallet cross-chain (that originally made this deposit)",
          "_harvestOnly": "If true, will only harvest Zorro tokens but not do a withdrawal",
          "_maxMarketMovement": "factor to account for max market movement/slippage. The definition varies by Vault, so consult the associated Vault contract for info",
          "_pid": "index of pool to deposit into",
          "_trancheId": "index of tranche"
        },
        "returns": {
          "_amountUSD": "Amount of USD withdrawn",
          "_rewardsDueXChain": "Amount of ZOR rewards due to the origin (cross chain) user"
        }
      }
    },
    "version": 1
  },
  "userdoc": {
    "kind": "user",
    "methods": {
      "deposit(uint256,uint256,uint256)": {
        "notice": "Deposit Want tokens to associated Vault"
      },
      "depositFullService(uint256,uint256,uint256,uint256)": {
        "notice": "Deposits funds in a full service manner (performs autoswaps and obtains Want tokens)"
      },
      "depositFullServiceFromXChain(uint256,address,bytes,uint256,uint256,uint256,uint256)": {
        "notice": "Full service deposit function to be called by ZorroControllerXChain only."
      },
      "getTimeMultiplier(uint256)": {
        "notice": "Calculate time multiplier based on duration committed"
      },
      "handleAccXChainRewards(uint256,uint256)": {
        "notice": "Called by oracle to account for ZOR rewards that were minted or slashed on other chains"
      },
      "inCaseTokensGetStuck(address,uint256)": {
        "notice": "For owner to recover ERC20 tokens on this contract if stuck"
      },
      "poolLength()": {
        "notice": "Number of pools in the Zorro protocol"
      },
      "repatriateRewards(uint256,address)": {
        "notice": "Gets rewards and sends to the recipient of a cross chain withdrawal"
      },
      "resetSyntheticRewardsMinted()": {
        "notice": "Resets accumulated synthentic rewards minted"
      },
      "resetSyntheticRewardsSlashed()": {
        "notice": "Resets accumulated synthentic rewards minted"
      },
      "setBurnAddress(address)": {
        "notice": "Setter: Burn address"
      },
      "setIsTimeMultiplierActive(bool)": {
        "notice": "Setter: Set time multiplier"
      },
      "setKeyAddresses(address,address)": {
        "notice": "Setter: Set key token addresses"
      },
      "setPriceFeeds(address,address)": {
        "notice": "Setter: Chainlink price feeds"
      },
      "setRewardsParams(uint256,uint256[],uint256,uint256)": {
        "notice": "Setter: Reward params (See Tokenomics paper for more details)"
      },
      "setStablecoinToZORPath(address[])": {
        "notice": "Setter: Set path for token swap from USD to ZOR"
      },
      "setStablecoinToZorroLPPoolOtherTokenPath(address[])": {
        "notice": "Setter: Set path for token swap from USD to counterparty token in ZOR LP pool"
      },
      "setStartBlock(uint256)": {
        "notice": "Setter: Start block for rewards"
      },
      "setTargetTVLCaptureBasisPoints(uint256)": {
        "notice": "Setter: TVL capture (See Tokenomics paper)"
      },
      "setUniRouter(address)": {
        "notice": "Setter: Uniswap-compatible router address"
      },
      "setXChainParams(uint256,uint256,address)": {
        "notice": "Setter: Cross chain params"
      },
      "setZorroContracts(address,address)": {
        "notice": "Setter: Set key ZOR contract addresses"
      },
      "setZorroControllerOracle(address)": {
        "notice": "Setter: Set Zorro Controller Oracle"
      },
      "setZorroLPPoolParams(address,address)": {
        "notice": "Setter: Zorro LP Pool params"
      },
      "setZorroPerBlock(uint256,uint256,uint256,uint256,uint256)": {
        "notice": "Set the number of Zorro to emit per block based on current market parameters"
      },
      "setZorroXChainEndpoint(address)": {
        "notice": "Setter: Cross chain endpoint"
      },
      "trancheLength(uint256,address)": {
        "notice": "Number of tranches invested by a given user into a given pool"
      },
      "transferInvestment(uint256,uint256,uint256,uint256)": {
        "notice": "Transfer all assets from a tranche in one vault to a new vault (works on-chain only)"
      },
      "updatePool(uint256)": {
        "notice": "Update reward variables of the given pool to be up-to-date."
      },
      "withdraw(uint256,uint256,bool)": {
        "notice": "Fully withdraw Want tokens from underlying Vault."
      },
      "withdrawAll(uint256)": {
        "notice": "Withdraw the maximum number of Want tokens from a pool"
      },
      "withdrawalFullService(uint256,uint256,bool,uint256)": {
        "notice": "Withdraws funds from a pool and converts the Want token into USD"
      },
      "withdrawalFullServiceFromXChain(address,bytes,uint256,uint256,bool,uint256)": {
        "notice": "Full service withdrawal to be called from authorized cross chain endpoint"
      }
    },
    "version": 1
  }
}