{
  "contractName": "ZorroControllerInvestment",
  "abi": [
    {
      "anonymous": false,
      "inputs": [
        {
          "indexed": true,
          "internalType": "address",
          "name": "account",
          "type": "address"
        },
        {
          "indexed": true,
          "internalType": "bytes",
          "name": "foreignAccount",
          "type": "bytes"
        },
        {
          "indexed": true,
          "internalType": "uint256",
          "name": "pid",
          "type": "uint256"
        },
        {
          "indexed": false,
          "internalType": "uint256",
          "name": "wantAmount",
          "type": "uint256"
        }
      ],
      "name": "Deposit",
      "type": "event"
    },
    {
      "anonymous": false,
      "inputs": [
        {
          "indexed": true,
          "internalType": "address",
          "name": "previousOwner",
          "type": "address"
        },
        {
          "indexed": true,
          "internalType": "address",
          "name": "newOwner",
          "type": "address"
        }
      ],
      "name": "OwnershipTransferred",
      "type": "event"
    },
    {
      "anonymous": false,
      "inputs": [
        {
          "indexed": false,
          "internalType": "address",
          "name": "account",
          "type": "address"
        },
        {
          "indexed": true,
          "internalType": "uint256",
          "name": "fromPid",
          "type": "uint256"
        },
        {
          "indexed": true,
          "internalType": "uint256",
          "name": "fromTrancheId",
          "type": "uint256"
        },
        {
          "indexed": true,
          "internalType": "uint256",
          "name": "toPid",
          "type": "uint256"
        }
      ],
      "name": "TransferInvestment",
      "type": "event"
    },
    {
      "anonymous": false,
      "inputs": [
        {
          "indexed": true,
          "internalType": "address",
          "name": "account",
          "type": "address"
        },
        {
          "indexed": true,
          "internalType": "bytes",
          "name": "foreignAccount",
          "type": "bytes"
        },
        {
          "indexed": true,
          "internalType": "uint256",
          "name": "pid",
          "type": "uint256"
        },
        {
          "indexed": false,
          "internalType": "uint256",
          "name": "trancheId",
          "type": "uint256"
        },
        {
          "indexed": false,
          "internalType": "uint256",
          "name": "wantAmount",
          "type": "uint256"
        }
      ],
      "name": "Withdraw",
      "type": "event"
    },
    {
      "inputs": [
        {
          "internalType": "uint256",
          "name": "",
          "type": "uint256"
        }
      ],
      "name": "USDCToZorroLPPoolOtherTokenPath",
      "outputs": [
        {
          "internalType": "address",
          "name": "",
          "type": "address"
        }
      ],
      "stateMutability": "view",
      "type": "function"
    },
    {
      "inputs": [
        {
          "internalType": "uint256",
          "name": "",
          "type": "uint256"
        }
      ],
      "name": "USDCToZorroPath",
      "outputs": [
        {
          "internalType": "address",
          "name": "",
          "type": "address"
        }
      ],
      "stateMutability": "view",
      "type": "function"
    },
    {
      "inputs": [],
      "name": "ZORRO",
      "outputs": [
        {
          "internalType": "address",
          "name": "",
          "type": "address"
        }
      ],
      "stateMutability": "view",
      "type": "function"
    },
    {
      "inputs": [],
      "name": "ZORRODailyDistributionFactorBasisPointsMax",
      "outputs": [
        {
          "internalType": "uint256",
          "name": "",
          "type": "uint256"
        }
      ],
      "stateMutability": "view",
      "type": "function"
    },
    {
      "inputs": [],
      "name": "ZORRODailyDistributionFactorBasisPointsMin",
      "outputs": [
        {
          "internalType": "uint256",
          "name": "",
          "type": "uint256"
        }
      ],
      "stateMutability": "view",
      "type": "function"
    },
    {
      "inputs": [],
      "name": "ZORROPerBlock",
      "outputs": [
        {
          "internalType": "uint256",
          "name": "",
          "type": "uint256"
        }
      ],
      "stateMutability": "view",
      "type": "function"
    },
    {
      "inputs": [],
      "name": "baseRewardRateBasisPoints",
      "outputs": [
        {
          "internalType": "uint256",
          "name": "",
          "type": "uint256"
        }
      ],
      "stateMutability": "view",
      "type": "function"
    },
    {
      "inputs": [],
      "name": "blocksPerDay",
      "outputs": [
        {
          "internalType": "uint256",
          "name": "",
          "type": "uint256"
        }
      ],
      "stateMutability": "view",
      "type": "function"
    },
    {
      "inputs": [],
      "name": "burnAddress",
      "outputs": [
        {
          "internalType": "address",
          "name": "",
          "type": "address"
        }
      ],
      "stateMutability": "view",
      "type": "function"
    },
    {
      "inputs": [],
      "name": "chainId",
      "outputs": [
        {
          "internalType": "uint256",
          "name": "",
          "type": "uint256"
        }
      ],
      "stateMutability": "view",
      "type": "function"
    },
    {
      "inputs": [],
      "name": "chainMultiplier",
      "outputs": [
        {
          "internalType": "uint256",
          "name": "",
          "type": "uint256"
        }
      ],
      "stateMutability": "view",
      "type": "function"
    },
    {
      "inputs": [],
      "name": "defaultMaxMarketMovement",
      "outputs": [
        {
          "internalType": "uint256",
          "name": "",
          "type": "uint256"
        }
      ],
      "stateMutability": "view",
      "type": "function"
    },
    {
      "inputs": [],
      "name": "defaultStablecoin",
      "outputs": [
        {
          "internalType": "address",
          "name": "",
          "type": "address"
        }
      ],
      "stateMutability": "view",
      "type": "function"
    },
    {
      "inputs": [
        {
          "internalType": "uint256",
          "name": "",
          "type": "uint256"
        },
        {
          "internalType": "bytes",
          "name": "",
          "type": "bytes"
        },
        {
          "internalType": "uint256",
          "name": "",
          "type": "uint256"
        }
      ],
      "name": "foreignTrancheInfo",
      "outputs": [
        {
          "internalType": "address",
          "name": "",
          "type": "address"
        }
      ],
      "stateMutability": "view",
      "type": "function"
    },
    {
      "inputs": [],
      "name": "homeChainId",
      "outputs": [
        {
          "internalType": "uint256",
          "name": "",
          "type": "uint256"
        }
      ],
      "stateMutability": "view",
      "type": "function"
    },
    {
      "inputs": [],
      "name": "homeChainZorroController",
      "outputs": [
        {
          "internalType": "address",
          "name": "",
          "type": "address"
        }
      ],
      "stateMutability": "view",
      "type": "function"
    },
    {
      "inputs": [
        {
          "internalType": "address",
          "name": "_token",
          "type": "address"
        },
        {
          "internalType": "uint256",
          "name": "_amount",
          "type": "uint256"
        }
      ],
      "name": "inCaseTokensGetStuck",
      "outputs": [],
      "stateMutability": "nonpayable",
      "type": "function"
    },
    {
      "inputs": [],
      "name": "isTimeMultiplierActive",
      "outputs": [
        {
          "internalType": "bool",
          "name": "",
          "type": "bool"
        }
      ],
      "stateMutability": "view",
      "type": "function"
    },
    {
      "inputs": [],
      "name": "owner",
      "outputs": [
        {
          "internalType": "address",
          "name": "",
          "type": "address"
        }
      ],
      "stateMutability": "view",
      "type": "function"
    },
    {
      "inputs": [
        {
          "internalType": "uint256",
          "name": "",
          "type": "uint256"
        }
      ],
      "name": "poolInfo",
      "outputs": [
        {
          "internalType": "contract IERC20",
          "name": "want",
          "type": "address"
        },
        {
          "internalType": "uint256",
          "name": "allocPoint",
          "type": "uint256"
        },
        {
          "internalType": "uint256",
          "name": "lastRewardBlock",
          "type": "uint256"
        },
        {
          "internalType": "uint256",
          "name": "accZORRORewards",
          "type": "uint256"
        },
        {
          "internalType": "uint256",
          "name": "totalTrancheContributions",
          "type": "uint256"
        },
        {
          "internalType": "address",
          "name": "vault",
          "type": "address"
        }
      ],
      "stateMutability": "view",
      "type": "function"
    },
    {
      "inputs": [],
      "name": "poolLength",
      "outputs": [
        {
          "internalType": "uint256",
          "name": "",
          "type": "uint256"
        }
      ],
      "stateMutability": "view",
      "type": "function"
    },
    {
      "inputs": [],
      "name": "priceFeedLPPoolOtherToken",
      "outputs": [
        {
          "internalType": "contract AggregatorV3Interface",
          "name": "",
          "type": "address"
        }
      ],
      "stateMutability": "view",
      "type": "function"
    },
    {
      "inputs": [],
      "name": "priceFeedZOR",
      "outputs": [
        {
          "internalType": "contract AggregatorV3Interface",
          "name": "",
          "type": "address"
        }
      ],
      "stateMutability": "view",
      "type": "function"
    },
    {
      "inputs": [],
      "name": "publicPool",
      "outputs": [
        {
          "internalType": "address",
          "name": "",
          "type": "address"
        }
      ],
      "stateMutability": "view",
      "type": "function"
    },
    {
      "inputs": [],
      "name": "renounceOwnership",
      "outputs": [],
      "stateMutability": "nonpayable",
      "type": "function"
    },
    {
      "inputs": [
        {
          "internalType": "address",
          "name": "_ZORRO",
          "type": "address"
        },
        {
          "internalType": "address",
          "name": "_defaultStablecoin",
          "type": "address"
        }
      ],
      "name": "setKeyAddresses",
      "outputs": [],
      "stateMutability": "nonpayable",
      "type": "function"
    },
    {
      "inputs": [
        {
          "internalType": "uint256[]",
          "name": "_blockParams",
          "type": "uint256[]"
        },
        {
          "internalType": "uint256[]",
          "name": "_dailyDistFactors",
          "type": "uint256[]"
        },
        {
          "internalType": "uint256",
          "name": "_chainMultiplier",
          "type": "uint256"
        },
        {
          "internalType": "uint256",
          "name": "_baseRewardRateBasisPoints",
          "type": "uint256"
        }
      ],
      "name": "setRewardsParams",
      "outputs": [],
      "stateMutability": "nonpayable",
      "type": "function"
    },
    {
      "inputs": [
        {
          "internalType": "uint256",
          "name": "_startBlock",
          "type": "uint256"
        }
      ],
      "name": "setStartBlock",
      "outputs": [],
      "stateMutability": "nonpayable",
      "type": "function"
    },
    {
      "inputs": [
        {
          "internalType": "uint256",
          "name": "_targetTVLCaptureBasisPoints",
          "type": "uint256"
        }
      ],
      "name": "setTargetTVLCaptureBasisPoints",
      "outputs": [],
      "stateMutability": "nonpayable",
      "type": "function"
    },
    {
      "inputs": [
        {
          "internalType": "uint256",
          "name": "_chainId",
          "type": "uint256"
        },
        {
          "internalType": "uint256",
          "name": "_homeChainId",
          "type": "uint256"
        },
        {
          "internalType": "address",
          "name": "_homeChainZorroController",
          "type": "address"
        }
      ],
      "name": "setXChainParams",
      "outputs": [],
      "stateMutability": "nonpayable",
      "type": "function"
    },
    {
      "inputs": [
        {
          "internalType": "address",
          "name": "_publicPool",
          "type": "address"
        },
        {
          "internalType": "address",
          "name": "_zorroStakingVault",
          "type": "address"
        }
      ],
      "name": "setZorroContracts",
      "outputs": [],
      "stateMutability": "nonpayable",
      "type": "function"
    },
    {
      "inputs": [
        {
          "internalType": "address",
          "name": "_zorroControllerOracle",
          "type": "address"
        }
      ],
      "name": "setZorroControllerOracle",
      "outputs": [],
      "stateMutability": "nonpayable",
      "type": "function"
    },
    {
      "inputs": [
        {
          "internalType": "uint256",
          "name": "_totalChainMultipliers",
          "type": "uint256"
        },
        {
          "internalType": "uint256",
          "name": "_totalMarketTVLUSD",
          "type": "uint256"
        },
        {
          "internalType": "uint256",
          "name": "_targetTVLCaptureBasisPoints",
          "type": "uint256"
        },
        {
          "internalType": "uint256",
          "name": "_ZorroTotalVaultTVLUSD",
          "type": "uint256"
        },
        {
          "internalType": "uint256",
          "name": "_publicPoolZORBalance",
          "type": "uint256"
        }
      ],
      "name": "setZorroPerBlock",
      "outputs": [],
      "stateMutability": "nonpayable",
      "type": "function"
    },
    {
      "inputs": [],
      "name": "startBlock",
      "outputs": [
        {
          "internalType": "uint256",
          "name": "",
          "type": "uint256"
        }
      ],
      "stateMutability": "view",
      "type": "function"
    },
    {
      "inputs": [],
      "name": "targetTVLCaptureBasisPoints",
      "outputs": [
        {
          "internalType": "uint256",
          "name": "",
          "type": "uint256"
        }
      ],
      "stateMutability": "view",
      "type": "function"
    },
    {
      "inputs": [],
      "name": "totalAllocPoint",
      "outputs": [
        {
          "internalType": "uint256",
          "name": "",
          "type": "uint256"
        }
      ],
      "stateMutability": "view",
      "type": "function"
    },
    {
      "inputs": [
        {
          "internalType": "uint256",
          "name": "",
          "type": "uint256"
        },
        {
          "internalType": "address",
          "name": "",
          "type": "address"
        },
        {
          "internalType": "uint256",
          "name": "",
          "type": "uint256"
        }
      ],
      "name": "trancheInfo",
      "outputs": [
        {
          "internalType": "uint256",
          "name": "contribution",
          "type": "uint256"
        },
        {
          "internalType": "uint256",
          "name": "timeMultiplier",
          "type": "uint256"
        },
        {
          "internalType": "uint256",
          "name": "rewardDebt",
          "type": "uint256"
        },
        {
          "internalType": "uint256",
          "name": "durationCommittedInWeeks",
          "type": "uint256"
        },
        {
          "internalType": "uint256",
          "name": "enteredVaultAt",
          "type": "uint256"
        },
        {
          "internalType": "uint256",
          "name": "exitedVaultAt",
          "type": "uint256"
        }
      ],
      "stateMutability": "view",
      "type": "function"
    },
    {
      "inputs": [
        {
          "internalType": "uint256",
          "name": "_pid",
          "type": "uint256"
        },
        {
          "internalType": "address",
          "name": "_user",
          "type": "address"
        }
      ],
      "name": "trancheLength",
      "outputs": [
        {
          "internalType": "uint256",
          "name": "",
          "type": "uint256"
        }
      ],
      "stateMutability": "view",
      "type": "function"
    },
    {
      "inputs": [
        {
          "internalType": "address",
          "name": "newOwner",
          "type": "address"
        }
      ],
      "name": "transferOwnership",
      "outputs": [],
      "stateMutability": "nonpayable",
      "type": "function"
    },
    {
      "inputs": [],
      "name": "uniRouterAddress",
      "outputs": [
        {
          "internalType": "address",
          "name": "",
          "type": "address"
        }
      ],
      "stateMutability": "view",
      "type": "function"
    },
    {
      "inputs": [
        {
          "internalType": "uint256",
          "name": "_pid",
          "type": "uint256"
        }
      ],
      "name": "updatePool",
      "outputs": [
        {
          "internalType": "uint256",
          "name": "",
          "type": "uint256"
        }
      ],
      "stateMutability": "nonpayable",
      "type": "function"
    },
    {
      "inputs": [],
      "name": "zorroControllerOracle",
      "outputs": [
        {
          "internalType": "address",
          "name": "",
          "type": "address"
        }
      ],
      "stateMutability": "view",
      "type": "function"
    },
    {
      "inputs": [],
      "name": "zorroLPPool",
      "outputs": [
        {
          "internalType": "address",
          "name": "",
          "type": "address"
        }
      ],
      "stateMutability": "view",
      "type": "function"
    },
    {
      "inputs": [],
      "name": "zorroLPPoolOtherToken",
      "outputs": [
        {
          "internalType": "address",
          "name": "",
          "type": "address"
        }
      ],
      "stateMutability": "view",
      "type": "function"
    },
    {
      "inputs": [],
      "name": "zorroStakingVault",
      "outputs": [
        {
          "internalType": "address",
          "name": "",
          "type": "address"
        }
      ],
      "stateMutability": "view",
      "type": "function"
    },
    {
      "inputs": [
        {
          "internalType": "bool",
          "name": "_isActive",
          "type": "bool"
        }
      ],
      "name": "setIsTimeMultiplierActive",
      "outputs": [],
      "stateMutability": "nonpayable",
      "type": "function"
    },
    {
      "inputs": [
        {
          "internalType": "address",
          "name": "_zorroLPPool",
          "type": "address"
        },
        {
          "internalType": "address",
          "name": "_zorroLPPoolOtherToken",
          "type": "address"
        }
      ],
      "name": "setZorroLPPoolParams",
      "outputs": [],
      "stateMutability": "nonpayable",
      "type": "function"
    },
    {
      "inputs": [
        {
          "internalType": "address",
          "name": "_uniV2Router",
          "type": "address"
        }
      ],
      "name": "setUniRouter",
      "outputs": [],
      "stateMutability": "nonpayable",
      "type": "function"
    },
    {
      "inputs": [
        {
          "internalType": "address[]",
          "name": "_path",
          "type": "address[]"
        }
      ],
      "name": "setUSDCToZORPath",
      "outputs": [],
      "stateMutability": "nonpayable",
      "type": "function"
    },
    {
      "inputs": [
        {
          "internalType": "address[]",
          "name": "_path",
          "type": "address[]"
        }
      ],
      "name": "setUSDCToZorroLPPoolOtherTokenPath",
      "outputs": [],
      "stateMutability": "nonpayable",
      "type": "function"
    },
    {
      "inputs": [
        {
          "internalType": "uint256",
          "name": "_defaultMaxMarketMovement",
          "type": "uint256"
        }
      ],
      "name": "setDefaultMaxMarketMovement",
      "outputs": [],
      "stateMutability": "nonpayable",
      "type": "function"
    },
    {
      "inputs": [
        {
          "internalType": "address",
          "name": "_priceFeedZOR",
          "type": "address"
        },
        {
          "internalType": "address",
          "name": "_priceFeedLPPoolOtherToken",
          "type": "address"
        }
      ],
      "name": "setPriceFeeds",
      "outputs": [],
      "stateMutability": "nonpayable",
      "type": "function"
    },
    {
      "inputs": [
        {
          "internalType": "uint256",
          "name": "_pid",
          "type": "uint256"
        },
        {
          "internalType": "uint256",
          "name": "_wantAmt",
          "type": "uint256"
        },
        {
          "internalType": "uint256",
          "name": "_weeksCommitted",
          "type": "uint256"
        }
      ],
      "name": "deposit",
      "outputs": [],
      "stateMutability": "nonpayable",
      "type": "function"
    },
    {
      "inputs": [
        {
          "internalType": "uint256",
          "name": "_pid",
          "type": "uint256"
        },
        {
          "internalType": "uint256",
          "name": "_valueUSDC",
          "type": "uint256"
        },
        {
          "internalType": "uint256",
          "name": "_weeksCommitted",
          "type": "uint256"
        },
        {
          "internalType": "uint256",
          "name": "_maxMarketMovement",
          "type": "uint256"
        }
      ],
      "name": "depositFullService",
      "outputs": [],
      "stateMutability": "nonpayable",
      "type": "function"
    },
    {
      "inputs": [
        {
          "internalType": "uint256",
          "name": "_pid",
          "type": "uint256"
        },
        {
          "internalType": "uint256",
          "name": "_trancheId",
          "type": "uint256"
        },
        {
          "internalType": "bool",
          "name": "_harvestOnly",
          "type": "bool"
        }
      ],
      "name": "withdraw",
      "outputs": [
        {
          "internalType": "uint256",
          "name": "",
          "type": "uint256"
        }
      ],
      "stateMutability": "nonpayable",
      "type": "function"
    },
    {
      "inputs": [
        {
          "internalType": "uint256",
          "name": "_pid",
          "type": "uint256"
        },
        {
          "internalType": "uint256",
          "name": "_trancheId",
          "type": "uint256"
        },
        {
          "internalType": "bool",
          "name": "_harvestOnly",
          "type": "bool"
        },
        {
          "internalType": "uint256",
          "name": "_maxMarketMovement",
          "type": "uint256"
        }
      ],
      "name": "withdrawalFullService",
      "outputs": [
        {
          "internalType": "uint256",
          "name": "",
          "type": "uint256"
        }
      ],
      "stateMutability": "nonpayable",
      "type": "function"
    },
    {
      "inputs": [
        {
          "internalType": "uint256",
          "name": "_fromPid",
          "type": "uint256"
        },
        {
          "internalType": "uint256",
          "name": "_fromTrancheId",
          "type": "uint256"
        },
        {
          "internalType": "uint256",
          "name": "_toPid",
          "type": "uint256"
        },
        {
          "internalType": "uint256",
          "name": "_maxMarketMovement",
          "type": "uint256"
        }
      ],
      "name": "transferInvestment",
      "outputs": [],
      "stateMutability": "nonpayable",
      "type": "function"
    },
    {
      "inputs": [
        {
          "internalType": "uint256",
          "name": "_pid",
          "type": "uint256"
        }
      ],
      "name": "withdrawAll",
      "outputs": [],
      "stateMutability": "nonpayable",
      "type": "function"
    },
    {
      "inputs": [
        {
          "internalType": "uint256",
          "name": "durationInWeeks",
          "type": "uint256"
        }
      ],
      "name": "getTimeMultiplier",
      "outputs": [
        {
          "internalType": "uint256",
          "name": "",
          "type": "uint256"
        }
      ],
      "stateMutability": "view",
      "type": "function"
    },
    {
      "inputs": [
        {
          "internalType": "uint256",
          "name": "_liquidityCommitted",
          "type": "uint256"
        },
        {
          "internalType": "uint256",
          "name": "_timeMultiplier",
          "type": "uint256"
        }
      ],
      "name": "getUserContribution",
      "outputs": [
        {
          "internalType": "uint256",
          "name": "",
          "type": "uint256"
        }
      ],
      "stateMutability": "pure",
      "type": "function"
    }
  ],
  "bytecode": "0x60806040526103ca601b553480156200001757600080fd5b506200003e6200002f64010000000062000048810204565b6401000000006200004c810204565b600180556200009c565b3390565b60008054600160a060020a03838116600160a060020a0319831681178455604051919092169283917f8be0079c531659141344cd1fd0a4f28419497f9722a3daafe3b4186f6b6457e09190a35050565b6132f280620000ac6000396000f3fe608060405234801561001057600080fd5b50600436106103c0576000357c0100000000000000000000000000000000000000000000000000000000900480637bf604d811610206578063b22f32511161012c578063cd17ac14116100ca578063f2fde38b11610099578063f2fde38b1461083f578063f35e4a6e14610852578063f63cce3714610865578063fc39a29e1461087857600080fd5b8063cd17ac14146107fd578063ebfba7c414610810578063ee4e268714610823578063ef1269671461083657600080fd5b8063bdb2fc8b11610106578063bdb2fc8b146107c5578063c2936142146107d8578063c6d758cb146107e1578063cb9c2f68146107f457600080fd5b8063b22f32511461075f578063b4b4e9eb14610772578063b61bb80a146107b257600080fd5b8063958e2d31116101a45780639cebd371116101735780639cebd3711461071d5780639ec68c7614610726578063a4d2b08314610739578063a80bee071461074c57600080fd5b8063958e2d31146106e55780639a448c0c146106f85780639a8a05921461070b5780639b8ad2d61461071457600080fd5b80638c157db2116101e05780638c157db2146106795780638da5cb5b1461068c578063941d3fd01461069d5780639568786c146106d257600080fd5b80637bf604d8146106405780637e37c76914610653578063823c43d01461066657600080fd5b80634cfea68a116102eb578063668ababb1161028957806370d5ae051161025857806370d5ae0514610609578063715018a614610612578063745af0a81461061a57806379777d811461062d57600080fd5b8063668ababb146105bd578063693a090b146105d05780636b8eb2e5146105e35780636c78d49c146105f657600080fd5b806353f73f87116102c557806353f73f871461057b5780635527a6f91461058e5780635c63fa87146105975780636179ecd1146105aa57600080fd5b80634cfea68a1461054c5780635051d3711461055557806351eb05a61461056857600080fd5b80632e31283d116103635780633b9ce565116103325780633b9ce565146105145780633bbc1ffc1461051d5780634780f9f51461053057806348cd4cb11461054357600080fd5b80632e31283d1461049a5780633332fcf4146104e557806333cfcd3b146104f85780633b7106881461050b57600080fd5b80630aa0988e1161039f5780630aa0988e14610404578063104a6132146104175780631526fe271461044257806317caf6f11461049157600080fd5b8062aeef8a146103c5578063068f158d146103da578063081e3eda146103ed575b600080fd5b6103d86103d3366004612bb2565b61088b565b005b6103d86103e8366004612bf5565b610948565b6012545b6040519081526020015b60405180910390f35b6103d8610412366004612bf5565b6109a3565b61042a610425366004612c28565b6109fe565b604051600160a060020a0390911681526020016103fb565b610455610450366004612c28565b610a28565b60408051600160a060020a03978816815260208101969096528501939093526060840191909152608083015290911660a082015260c0016103fb565b6103f1600e5481565b61042a6104a8366004612c8b565b60146020908152600093845260408085208451808601840180519281529084019584019590952094529290528252902054600160a060020a031681565b6103d86104f3366004612d33565b610a7b565b6103f1610506366004612ded565b610abf565b6103f1600d5481565b6103f1600b5481565b6103d861052b366004612c28565b610b59565b6103d861053e366004612e26565b610be8565b6103f160065481565b6103f160075481565b6103d8610563366004612e58565b610c91565b6103f1610576366004612c28565b610ce0565b6103f1610589366004612e73565b610e5f565b6103f1600a5481565b6103d86105a5366004612e96565b610e87565b6103d86105b8366004612c28565b610ede565b60045461042a90600160a060020a031681565b60185461042a90600160a060020a031681565b6103d86105f1366004612ecb565b610f10565b6103d8610604366004612f06565b61100f565b61042a61dead81565b6103d861107c565b6103f1610628366004612f23565b6110b5565b601d5461042a90600160a060020a031681565b60165461042a90600160a060020a031681565b6103d8610661366004612e26565b61112f565b60155461042a90600160a060020a031681565b60025461042a90600160a060020a031681565b600054600160a060020a031661042a565b6015546106c29074010000000000000000000000000000000000000000900460ff1681565b60405190151581526020016103fb565b6103f16106e0366004612c28565b6112b0565b6103d86106f3366004612c28565b6113a1565b61042a610706366004612c28565b61140b565b6103f1600f5481565b6103f1601b5481565b6103f1600c5481565b6103d8610734366004612bf5565b61141b565b60055461042a90600160a060020a031681565b6103f161075a366004612f62565b611476565b601c5461042a90600160a060020a031681565b610785610780366004612f84565b611492565b604080519687526020870195909552938501929092526060840152608083015260a082015260c0016103fb565b60035461042a90600160a060020a031681565b6103d86107d3366004612d33565b6114f3565b6103f160085481565b6103d86107ef366004612fb9565b611533565b6103f160095481565b6103d861080b366004613027565b6115fb565b60175461042a90600160a060020a031681565b6103d8610831366004612e58565b6116ae565b6103f160105481565b6103d861084d366004612e58565b6116fd565b6103d8610860366004612c28565b6117b5565b6103d8610873366004612bf5565b61183a565b60115461042a90600160a060020a031681565b600260015414156108ba5760405160e560020a62461bcd0281526004016108b1906130a5565b60405180910390fd5b60026001819055506000601284815481106108d7576108d76130dc565b60009182526020909120600690910201805490915061090090600160a060020a031630856118f2565b6005810154815461092091600160a060020a039182169133911686611a3c565b61093d843360405180602001604052806000815250868642611a8d565b505060018055505050565b600054600160a060020a031633146109755760405160e560020a62461bcd0281526004016108b1906130f5565b601c8054600160a060020a03938416600160a060020a031991821617909155601d8054929093169116179055565b600054600160a060020a031633146109d05760405160e560020a62461bcd0281526004016108b1906130f5565b60028054600160a060020a03938416600160a060020a03199182161790915560038054929093169116179055565b60198181548110610a0e57600080fd5b600091825260209091200154600160a060020a0316905081565b60128181548110610a3857600080fd5b6000918252602090912060069091020180546001820154600283015460038401546004850154600590950154600160a060020a0394851696509294919390921686565b600054600160a060020a03163314610aa85760405160e560020a62461bcd0281526004016108b1906130f5565b8051610abb906019906020840190612b38565b5050565b600060026001541415610ae75760405160e560020a62461bcd0281526004016108b1906130a5565b60026001819055506000610b0d8533604051806020016040528060008152508787611da1565b9050610b4c33826000015160128881548110610b2b57610b2b6130dc565b6000918252602090912060069091020154600160a060020a03169190612271565b5160018055949350505050565b600054600160a060020a03163314610b865760405160e560020a62461bcd0281526004016108b1906130f5565b601154600160a060020a03163014610be35760405160e560020a62461bcd02815260206004820152600f60248201527f6f6e6c7920686f6d6520636861696e000000000000000000000000000000000060448201526064016108b1565b600955565b60026001541415610c0e5760405160e560020a62461bcd0281526004016108b1906130a5565b6002600181905550600060128581548110610c2b57610c2b6130dc565b6000918252602090912060056006909202010154600354600160a060020a039182169250610c5b911630866118f2565b600354610c7390600160a060020a0316338387611a3c565b61093d853360405180602001604052806000815250878742886122bf565b600054600160a060020a03163314610cbe5760405160e560020a62461bcd0281526004016108b1906130f5565b60158054600160a060020a031916600160a060020a0392909216919091179055565b60008060128381548110610cf657610cf66130dc565b9060005260206000209060060201905080600201544311610d1a5750600092915050565b6000610d338260020154436123d090919063ffffffff16565b905060008111610d47575060009392505050565b6000610d78600e54610d728560010154610d6c600854876123dc90919063ffffffff16565b906123dc565b906123e8565b601154909150600160a060020a0316301415610dd157600454600254610dac91600160a060020a0391821691163084611a3c565b6003830154610dbb90826123f4565b6003840155505043600290910155506000919050565b6002546040517f40c10f1900000000000000000000000000000000000000000000000000000000815230600482015260248101839052600160a060020a03909116906340c10f1990604401600060405180830381600087803b158015610e3657600080fd5b505af1158015610e4a573d6000803e3d6000fd5b5092979650505050505050565b505050919050565b6000918252601360209081526040808420600160a060020a0393909316845291905290205490565b600054600160a060020a03163314610eb45760405160e560020a62461bcd0281526004016108b1906130f5565b600f9290925560105560118054600160a060020a031916600160a060020a03909216919091179055565b600054600160a060020a03163314610f0b5760405160e560020a62461bcd0281526004016108b1906130f5565b601b55565b601554600160a060020a031633600160a060020a031614610f765760405160e560020a62461bcd02815260206004820152601160248201527f6f6e6c79205a6f72726f206f7261636c6500000000000000000000000000000060448201526064016108b1565b6000610f9883610d72610f8b876127106123e8565b600d54610d6c908a6123dc565b9050600b54811115610fad5750600b54610fbc565b600a54811015610fbc5750600a545b6000610fce612710610d7285856123dc565b90506000610feb88610d7284600c546123dc90919063ffffffff16565b9050611002600754826123e890919063ffffffff16565b6008555050505050505050565b600054600160a060020a0316331461103c5760405160e560020a62461bcd0281526004016108b1906130f5565b60158054911515740100000000000000000000000000000000000000000274ff000000000000000000000000000000000000000019909216919091179055565b600054600160a060020a031633146110a95760405160e560020a62461bcd0281526004016108b1906130f5565b6110b36000612400565b565b6000600260015414156110dd5760405160e560020a62461bcd0281526004016108b1906130a5565b60026001819055506000611104336040518060200160405280600081525088888888612450565b505060035491925061112291600160a060020a031690503383612271565b6001805595945050505050565b600260015414156111555760405160e560020a62461bcd0281526004016108b1906130a5565b600260015560008481526013602090815260408083203384529091528120805485908110611185576111856130dc565b6000918252602080832060036006909302019190910154878352601382526040808420338552909252908220805491935090869081106111c7576111c76130dc565b906000526020600020906006020160040154905060006111fb33604051806020016040528060008152508989600089612450565b50505090506060600360009054906101000a9004600160a060020a03168160008151811061122b5761122b6130dc565b6020026020010190600160a060020a03169081600160a060020a0316815250506112698633604051806020016040528060008152508588888b6122bf565b604051338152869088908a907f67e7aba7263d8fbeb0cd9a2f4008f060a6a03f46c1d7f9d0550f0b93e96e96f89060200160405180910390a4505060018055505050505050565b60155460009074010000000000000000000000000000000000000000900460ff1615611390576040517f677342ce0000000000000000000000000000000000000000000000000000000081526004810183905261138a9064e8d4a5100090610d6c906113829073__CustomMath____________________________9063677342ce90602401602060405180830381865af4158015611352573d6000803e3d6000fd5b505050506040513d601f19601f82011682018060405250810190611376919061312a565b610d6c6002600a6123e8565b6001906123f4565b92915050565b5064e8d4a51000919050565b919050565b600260015414156113c75760405160e560020a62461bcd0281526004016108b1906130a5565b600260015560006113d88233610e5f565b905060005b81811015611402576113f183826000610abf565b506113fb8161315c565b90506113dd565b50506001805550565b601a8181548110610a0e57600080fd5b600054600160a060020a031633146114485760405160e560020a62461bcd0281526004016108b1906130f5565b60168054600160a060020a03938416600160a060020a03199182161790915560178054929093169116179055565b600061148b64e8d4a51000610d7285856123dc565b9392505050565b601360205282600052604060002060205281600052604060002081815481106114ba57600080fd5b60009182526020909120600690910201805460018201546002830154600384015460048501546005909501549397509195509350919086565b600054600160a060020a031633146115205760405160e560020a62461bcd0281526004016108b1906130f5565b8051610abb90601a906020840190612b38565b600054600160a060020a031633146115605760405160e560020a62461bcd0281526004016108b1906130f5565b600254600160a060020a03838116911614156115e75760405160e560020a62461bcd02815260206004820152603560248201527f217361666520746f20757365205a6f72726f20746f6b656e20696e2066756e6360448201527f20696e43617365546f6b656e73476574537475636b000000000000000000000060648201526084016108b1565b610abb600160a060020a0383163383612271565b600054600160a060020a031633146116285760405160e560020a62461bcd0281526004016108b1906130f5565b8585600181811061163b5761163b6130dc565b6020029190910135600755508585600281811061165a5761165a6130dc565b6020029190910135600855508383600081611677576116776130dc565b6020029190910135600a555083836001818110611696576116966130dc565b6020029190910135600b5550600d55600c5550505050565b600054600160a060020a031633146116db5760405160e560020a62461bcd0281526004016108b1906130f5565b60188054600160a060020a031916600160a060020a0392909216919091179055565b600054600160a060020a0316331461172a5760405160e560020a62461bcd0281526004016108b1906130f5565b600160a060020a0381166117a95760405160e560020a62461bcd02815260206004820152602660248201527f4f776e61626c653a206e6577206f776e657220697320746865207a65726f206160448201527f646472657373000000000000000000000000000000000000000000000000000060648201526084016108b1565b6117b281612400565b50565b600054600160a060020a031633146117e25760405160e560020a62461bcd0281526004016108b1906130f5565b600654156118355760405160e560020a62461bcd02815260206004820152601560248201527f626c6f636b506172616d7320696d6d757461626c65000000000000000000000060448201526064016108b1565b600655565b600054600160a060020a031633146118675760405160e560020a62461bcd0281526004016108b1906130f5565b601154600160a060020a031630146118c45760405160e560020a62461bcd02815260206004820152600f60248201527f6f6e6c7920686f6d6520636861696e000000000000000000000000000000000060448201526064016108b1565b60048054600160a060020a03938416600160a060020a03199182161790915560058054929093169116179055565b6040517fdd62ed3e000000000000000000000000000000000000000000000000000000008152306004820152600160a060020a038381166024830152600091839186169063dd62ed3e90604401602060405180830381865afa15801561195c573d6000803e3d6000fd5b505050506040513d601f19601f82011682018060405250810190611980919061312a565b61198a9190613177565b604051600160a060020a038516602482015260448101829052909150611a369085907f095ea7b300000000000000000000000000000000000000000000000000000000906064015b60408051601f198184030181529190526020810180517bffffffffffffffffffffffffffffffffffffffffffffffffffffffff167fffffffff000000000000000000000000000000000000000000000000000000009093169290921790915261256a565b50505050565b604051600160a060020a0380851660248301528316604482015260648101829052611a369085907f23b872dd00000000000000000000000000000000000000000000000000000000906084016119d2565b60008060128881548110611aa357611aa36130dc565b9060005260206000209060060201905060008511611b065760405160e560020a62461bcd02815260206004820152601560248201527f5f77616e74416d74206d757374206265203e203021000000000000000000000060448201526064016108b1565b611b0f88610ce0565b915086600160a060020a038116611bb6576000875111611b9a5760405160e560020a62461bcd02815260206004820152602c60248201527f4e65697468657220666f726569676e2061636374206e6f72206c6f63616c206160448201527f6363742070726f7669646564000000000000000000000000000000000000000060648201526084016108b1565b611ba38761318f565b6c01000000000000000000000000900490505b600060128a81548110611bcb57611bcb6130dc565b60009182526020909120600690910201600501546040517fba0bb4ab000000000000000000000000000000000000000000000000000000008152600160a060020a038481166004830152602482018a90529091169063ba0bb4ab906044016020604051808303816000875af1158015611c48573d6000803e3d6000fd5b505050506040513d601f19601f82011682018060405250810190611c6c919061312a565b600580549085015491925064e8d4a5100091600160a060020a03908116911614611c9c57611c99876112b0565b90505b6000611ca88383611476565b6004860154909150611cba90826123f4565b60048601819055600090611cd790610d728464e8d4a510006123dc565b905060006040518060c00160405280848152602001858152602001611d1264e8d4a51000610d72868c600301546123dc90919063ffffffff16565b81526020018b81526020018a815260200160008152509050611d368e878e84612652565b8d8c604051611d4591906131f5565b604051809103902087600160a060020a03167fc6b1f1535b3bb3bdffa2f97a671ab7bd6f2512deec58103fa47eb40ed95274278e604051611d8891815260200190565b60405180910390a4505050505050509695505050505050565b611dcc6040518060800160405280600081526020016000815260200160008152602001600081525090565b600160a060020a038516158015611de4575060008451115b80611e015750600160a060020a03851615801590611e0157508351155b611e505760405160e560020a62461bcd02815260206004820152601d60248201527f4f6e6c79206f6e65206163636f756e74207479706520616c6c6f77656400000060448201526064016108b1565b6000611e5e87858789612741565b9050600060128881548110611e7557611e756130dc565b906000526020600020906006020190506000826000015111611edc5760405160e560020a62461bcd02815260206004820152601960248201527f7472616e6368652e636f6e747269627574696f6e20697320300000000000000060448201526064016108b1565b6000816004015411611f335760405160e560020a62461bcd02815260206004820152601e60248201527f746f74616c5472616e636865436f6e747269627574696f6e732069732030000060448201526064016108b1565b60a082015115611f885760405160e560020a62461bcd02815260206004820152601460248201527f416c726561647920657869746564207661756c7400000000000000000000000060448201526064016108b1565b611f9188610ce0565b602084015260048101548251600091611fb391610d729064e8d4a510006123dc565b90506000611fe58460400151611fdf64e8d4a51000610d728760030154876123dc90919063ffffffff16565b906123d0565b9050801561206257600080611ffa86846128e3565b91509150601054600f54141561203b57811561201a5761201a8b8361296f565b80156120365760055461203690600160a060020a03168261296f565b61205f565b61205061dead61204b84846123f4565b61296f565b60408701829052606087018190525b50505b856122645760128a8154811061207a5761207a6130dc565b600091825260209091206006909102016005015484516040517fe0ccabfa000000000000000000000000000000000000000000000000000000008152600160a060020a038c81166004830152602482019290925291169063e0ccabfa906044016020604051808303816000875af11580156120f9573d6000803e3d6000fd5b505050506040513d601f19601f8201168201806040525081019061211d919061312a565b508351600484015461212e916123d0565b60048481019190915583546040517f70a082310000000000000000000000000000000000000000000000000000000081523092810192909252600160a060020a0316906370a0823190602401602060405180830381865afa158015612197573d6000803e3d6000fd5b505050506040513d601f19601f820116820180604052508101906121bb919061312a565b855260008a8152601360209081526040808320600160a060020a038d16845290915290208054429190899081106121f4576121f46130dc565b906000526020600020906006020160050181905550898860405161221891906131f5565b6040805191829003822088518b8452602084015291600160a060020a038d16917fa7749cd42821d3b82a6814af6d80712b2e43f98ec1b25aee31c8351855de65d9910160405180910390a45b5050505095945050505050565b604051600160a060020a0383166024820152604481018290526122ba9084907fa9059cbb00000000000000000000000000000000000000000000000000000000906064016119d2565b505050565b6000601288815481106122d4576122d46130dc565b60009182526020822060069190910201600501546040517fe502a88d0000000000000000000000000000000000000000000000000000000081526004810188905260248101859052600160a060020a039091169250829190829063e502a88d906044016020604051808303816000875af1158015612356573d6000803e3d6000fd5b505050506040513d601f19601f8201168201806040525081019061237a919061312a565b90506123b5838260128d81548110612394576123946130dc565b6000918252602090912060069091020154600160a060020a031691906118f2565b6123c38a8a8a848a8a611a8d565b5050505050505050505050565b600061148b8284613211565b600061148b8284613228565b600061148b8284613247565b600061148b8284613177565b60008054600160a060020a03838116600160a060020a0319831681178455604051919092169283917f8be0079c531659141344cd1fd0a4f28419497f9722a3daafe3b4186f6b6457e09190a35050565b60008060008060006012898154811061246b5761246b6130dc565b60009182526020822060056006909202010154600160a060020a0316915081906124988b8e8e8d8d611da1565b90506124b683826000015160128e81548110612394576123946130dc565b80516040517f648794a4000000000000000000000000000000000000000000000000000000008152600481019190915260248101899052600160a060020a0383169063648794a4906044016020604051808303816000875af1158015612520573d6000803e3d6000fd5b505050506040513d601f19601f82011682018060405250810190612544919061312a565b60208201516040830151606090930151919f909e50919c509a5098505050505050505050565b60006125bf826040518060400160405280602081526020017f5361666545524332303a206c6f772d6c6576656c2063616c6c206661696c656481525085600160a060020a0316612a1e9092919063ffffffff16565b8051909150156122ba57808060200190518101906125dd919061326c565b6122ba5760405160e560020a62461bcd02815260206004820152602a60248201527f5361666545524332303a204552433230206f7065726174696f6e20646964206e60448201527f6f7420737563636565640000000000000000000000000000000000000000000060648201526084016108b1565b6000848152601360209081526040808320600160a060020a0387168452825280832080546001818101835591855293839020855160069095020193845591840151918301919091558201516002820155606082015160038201556080820151600482015560a0820151600590910155815115611a36578260146000868152602001908152602001600020836040516126ea91906131f5565b908152602001604051809103902060006127096001611fdf8989610e5f565b815260200190815260200160002060006101000a815481600160a060020a030219169083600160a060020a0316021790555050505050565b61277a6040518060c001604052806000815260200160008152602001600081526020016000815260200160008152602001600081525090565b600160a060020a038216612818576000858152601360209081526040808320600160a060020a038616845290915290208054859081106127bc576127bc6130dc565b90600052602060002090600602016040518060c0016040529081600082015481526020016001820154815260200160028201548152602001600382015481526020016004820154815260200160058201548152505090506128db565b60008581526014602052604080822090516128349086906131f5565b908152604080516020928190038301902060008881529083528181205489825260138452828220600160a060020a0390911680835293522080549192509086908110612882576128826130dc565b90600052602060002090600602016040518060c001604052908160008201548152602001600182015481526020016002820154815260200160038201548152602001600482015481526020016005820154815250509150505b949350505050565b600080600083116128f957506000905080612968565b600061292742611fdf61291c62093a8089606001516123dc90919063ffffffff16565b6080890151906123f4565b9050801561296257606085015161294f906129459062093a806123dc565b610d7286846123dc565b915061295b84836123d0565b9250612966565b8392505b505b9250929050565b6002546040517f70a082310000000000000000000000000000000000000000000000000000000081523060048201528291600091600160a060020a03909116906370a0823190602401602060405180830381865afa1580156129d5573d6000803e3d6000fd5b505050506040513d601f19601f820116820180604052508101906129f9919061312a565b905080831115612a07578091505b600254611a3690600160a060020a03168584612271565b60606128db848460008585600160a060020a0385163b612a835760405160e560020a62461bcd02815260206004820152601d60248201527f416464726573733a2063616c6c20746f206e6f6e2d636f6e747261637400000060448201526064016108b1565b60008086600160a060020a03168587604051612a9f91906131f5565b60006040518083038185875af1925050503d8060008114612adc576040519150601f19603f3d011682016040523d82523d6000602084013e612ae1565b606091505b5091509150612af1828286612afc565b979650505050505050565b60608315612b0b57508161148b565b825115612b1b5782518084602001fd5b8160405160e560020a62461bcd0281526004016108b19190613289565b828054828255906000526020600020908101928215612b8d579160200282015b82811115612b8d5782518254600160a060020a031916600160a060020a03909116178255602090920191600190910190612b58565b50612b99929150612b9d565b5090565b5b80821115612b995760008155600101612b9e565b600080600060608486031215612bc757600080fd5b505081359360208301359350604090920135919050565b8035600160a060020a038116811461139c57600080fd5b60008060408385031215612c0857600080fd5b612c1183612bde565b9150612c1f60208401612bde565b90509250929050565b600060208284031215612c3a57600080fd5b5035919050565b60e060020a634e487b7102600052604160045260246000fd5b604051601f8201601f1916810167ffffffffffffffff81118282101715612c8357612c83612c41565b604052919050565b600080600060608486031215612ca057600080fd5b8335925060208085013567ffffffffffffffff80821115612cc057600080fd5b818701915087601f830112612cd457600080fd5b813581811115612ce657612ce6612c41565b612cf8601f8201601f19168501612c5a565b91508082528884828501011115612d0e57600080fd5b8084840185840137600084828401015250809450505050604084013590509250925092565b60006020808385031215612d4657600080fd5b823567ffffffffffffffff80821115612d5e57600080fd5b818501915085601f830112612d7257600080fd5b813581811115612d8457612d84612c41565b8381029150612d94848301612c5a565b8181529183018401918481019088841115612dae57600080fd5b938501935b83851015612dd357612dc485612bde565b82529385019390850190612db3565b98975050505050505050565b80151581146117b257600080fd5b600080600060608486031215612e0257600080fd5b83359250602084013591506040840135612e1b81612ddf565b809150509250925092565b60008060008060808587031215612e3c57600080fd5b5050823594602084013594506040840135936060013592509050565b600060208284031215612e6a57600080fd5b61148b82612bde565b60008060408385031215612e8657600080fd5b82359150612c1f60208401612bde565b600080600060608486031215612eab57600080fd5b8335925060208401359150612ec260408501612bde565b90509250925092565b600080600080600060a08688031215612ee357600080fd5b505083359560208501359550604085013594606081013594506080013592509050565b600060208284031215612f1857600080fd5b813561148b81612ddf565b60008060008060808587031215612f3957600080fd5b84359350602085013592506040850135612f5281612ddf565b9396929550929360600135925050565b60008060408385031215612f7557600080fd5b50508035926020909101359150565b600080600060608486031215612f9957600080fd5b83359250612fa960208501612bde565b9150604084013590509250925092565b60008060408385031215612fcc57600080fd5b612fd583612bde565b946020939093013593505050565b60008083601f840112612ff557600080fd5b50813567ffffffffffffffff81111561300d57600080fd5b602083019150836020808302850101111561296857600080fd5b6000806000806000806080878903121561304057600080fd5b863567ffffffffffffffff8082111561305857600080fd5b6130648a838b01612fe3565b9098509650602089013591508082111561307d57600080fd5b5061308a89828a01612fe3565b979a9699509760408101359660609091013595509350505050565b6020808252601f908201527f5265656e7472616e637947756172643a207265656e7472616e742063616c6c00604082015260600190565b60e060020a634e487b7102600052603260045260246000fd5b6020808252818101527f4f776e61626c653a2063616c6c6572206973206e6f7420746865206f776e6572604082015260600190565b60006020828403121561313c57600080fd5b5051919050565b60e060020a634e487b7102600052601160045260246000fd5b600060001982141561317057613170613143565b5060010190565b6000821982111561318a5761318a613143565b500190565b805160208201516bffffffffffffffffffffffff198082169291906014831015610e575760149290920360080260020a8202161692915050565b60005b838110156131e45781810151838201526020016131cc565b83811115611a365750506000910152565b600082516132078184602087016131c9565b9190910192915050565b60008282101561322357613223613143565b500390565b600081600019048311821515161561324257613242613143565b500290565b6000826132675760e060020a634e487b7102600052601260045260246000fd5b500490565b60006020828403121561327e57600080fd5b815161148b81612ddf565b60208152600082518060208401526132a88160408501602087016131c9565b601f01601f1916919091016040019291505056fea26469706673582212202894f151505fc2cad39dba09f7e1c79f62fbddb4105c1919ed0cd430bafcc24f64736f6c634300080a0033",
  "immutableReferences": {},
  "source": "// SPDX-License-Identifier: MIT\n\npragma solidity ^0.8.0;\n\nimport \"./_ZorroControllerBase.sol\";\n\nimport \"../interfaces/IVault.sol\";\n\nimport \"@openzeppelin/contracts/token/ERC20/utils/SafeERC20.sol\";\n\nimport \"@openzeppelin/contracts/utils/math/SafeMath.sol\";\n\nimport \"../libraries/Math.sol\";\n\nimport \"../tokens/ZorroToken.sol\";\n\nimport \"../libraries/SafeSwap.sol\";\n\nimport \"../libraries/PriceFeed.sol\";\n\n\ncontract ZorroControllerInvestment is ZorroControllerBase {\n    /* Libraries */\n    using SafeERC20 for IERC20;\n    using SafeMath for uint256;\n    using CustomMath for uint256;\n    using SafeSwapUni for IAMMRouter02;\n    using PriceFeed for AggregatorV3Interface;\n\n    /* Structs */\n    struct WithdrawalResult {\n        uint256 wantAmt; // Amount of Want token withdrawn\n        uint256 mintedZORRewards; // ZOR rewards minted (to be burned XChain)\n        uint256 rewardsDueXChain; // ZOR rewards due to the origin (cross chain) user\n        uint256 slashedRewardsXChain; // Amount of ZOR rewards to be slashed (and thus rewarded to ZOR stakers)\n    }\n\n    /* State */\n\n    // Rewards\n    bool public isTimeMultiplierActive; // If true, allows use of time multiplier\n    // Zorro LP pool\n    address public zorroLPPool; // Main pool for Zorro liquidity\n    address public zorroLPPoolOtherToken; // For the dominant LP pool, the counterparty token to the ZOR token\n    // Swaps\n    address public uniRouterAddress; // Router contract address for adding/removing liquidity, etc.\n    address[] public USDCToZorroPath; // The path to swap USDC to ZOR\n    address[] public USDCToZorroLPPoolOtherTokenPath; // The router path from USDC to the primary Zorro LP pool, Token 0\n    // TODO: Get rid of defaultMaxMarketMovement. Should always use the provided slippage factor\n    uint256 public defaultMaxMarketMovement = 970; // Max default slippage, divided by 1000. E.g. 970 means 1 - 970/1000 = 3%.\n    // Oracles\n    AggregatorV3Interface public priceFeedZOR;\n    AggregatorV3Interface public priceFeedLPPoolOtherToken;\n\n    /* Setters */\n\n    /// @notice Setter: Set time multiplier\n    /// @param _isActive Whether it shall be active. If false, timemultiplier will be 1.\n    function setIsTimeMultiplierActive(bool _isActive) external onlyOwner {\n        isTimeMultiplierActive = _isActive;\n    }\n\n    /// @notice Setter: Zorro LP Pool params\n    /// @param _zorroLPPool Address of the Zorro-X LP pool\n    /// @param _zorroLPPoolOtherToken Address of the counterpart token to the ZOR token in the LP Pool\n    function setZorroLPPoolParams(address _zorroLPPool, address _zorroLPPoolOtherToken) external onlyOwner {\n        zorroLPPool = _zorroLPPool;\n        zorroLPPoolOtherToken = _zorroLPPoolOtherToken;\n    }\n\n    /// @notice Setter: Uniswap-compatible router address\n    /// @param _uniV2Router Address of router\n    function setUniRouter(address _uniV2Router) external onlyOwner {\n        uniRouterAddress = _uniV2Router;\n    }\n\n    /// @notice Setter: Set path for token swap from USDC to ZOR\n    /// @param _path Swap path\n    function setUSDCToZORPath(address[] memory _path)\n        external\n        onlyOwner\n    {\n        USDCToZorroPath = _path;\n    }\n\n    /// @notice Setter: Set path for token swap from USDC to counterparty token in ZOR LP pool\n    /// @param _path Swap path\n    function setUSDCToZorroLPPoolOtherTokenPath(address[] memory _path)\n        external\n        onlyOwner\n    {\n        USDCToZorroLPPoolOtherTokenPath = _path;\n    }\n\n    function setDefaultMaxMarketMovement(uint256 _defaultMaxMarketMovement)\n        external\n        onlyOwner\n    {\n        defaultMaxMarketMovement = _defaultMaxMarketMovement;\n    }\n\n    /// @notice Setter: Chainlink price feeds\n    /// @param _priceFeedZOR The address of the price feed for ZOR\n    /// @param _priceFeedLPPoolOtherToken The address of the price feed for the counterparty token in the ZOR LP Pool\n    function setPriceFeeds(\n        address _priceFeedZOR,\n        address _priceFeedLPPoolOtherToken\n    ) external onlyOwner {\n        priceFeedZOR = AggregatorV3Interface(_priceFeedZOR);\n        priceFeedLPPoolOtherToken = AggregatorV3Interface(_priceFeedLPPoolOtherToken);\n    }\n\n    /* Events */\n\n    event Deposit(\n        address indexed account,\n        bytes indexed foreignAccount,\n        uint256 indexed pid,\n        uint256 wantAmount\n    );\n    \n    event Withdraw(\n        address indexed account,\n        bytes indexed foreignAccount,\n        uint256 indexed pid,\n        uint256 trancheId,\n        uint256 wantAmount\n    );\n    event TransferInvestment(\n        address account,\n        uint256 indexed fromPid,\n        uint256 indexed fromTrancheId,\n        uint256 indexed toPid\n    );\n\n    /* Cash flow */\n\n    /// @notice Deposit Want tokens to associated Vault\n    /// @param _pid index of pool\n    /// @param _wantAmt how much Want token to deposit\n    /// @param _weeksCommitted how many weeks the user is committing to on this vault\n    function deposit(\n        uint256 _pid,\n        uint256 _wantAmt,\n        uint256 _weeksCommitted\n    ) public nonReentrant {\n        // Get pool info\n        PoolInfo storage pool = poolInfo[_pid];\n\n        // Safely allow this contract to transfer the Want token from the sender to the underlying Vault contract\n        pool.want.safeIncreaseAllowance(address(this), _wantAmt);\n\n        // Transfer the Want token from the user to the Vault contract\n        IERC20(pool.want).safeTransferFrom(msg.sender, pool.vault, _wantAmt);\n\n        // Call core deposit function\n        _deposit(\n            _pid,\n            msg.sender,\n            \"\",\n            _wantAmt,\n            _weeksCommitted,\n            block.timestamp\n        );\n    }\n\n    /// @notice Internal function for depositing Want tokens into Vault\n    /// @dev Because the vault entry date can be backdated, this is a dangerous method and should only be called indirectly through other functions\n    /// @param _pid index of pool\n    /// @param _account address of on-chain user (required for onchain, optional for cross-chain)\n    /// @param _foreignAccount address of origin chain user (for cross chain transactions it's required)\n    /// @param _wantAmt how much Want token to deposit (must already be sent to vault contract)\n    /// @param _weeksCommitted how many weeks the user is committing to on this vault\n    /// @param _enteredVaultAt Date to backdate vault entry to\n    /// @return _mintedZORRewards Amount of ZOR rewards minted\n    function _deposit(\n        uint256 _pid,\n        address _account,\n        bytes memory _foreignAccount,\n        uint256 _wantAmt,\n        uint256 _weeksCommitted,\n        uint256 _enteredVaultAt\n    ) internal returns (uint256 _mintedZORRewards) {\n        // Get pool info\n        PoolInfo storage pool = poolInfo[_pid];\n\n        // Preflight checks\n        require(_wantAmt > 0, \"_wantAmt must be > 0!\");\n\n        // Update the pool before anything to ensure rewards have been updated and transferred\n        _mintedZORRewards = updatePool(_pid);\n\n        // Associate foreign and local account address, as applicable\n\n        // Get local chain account, as applicable\n        address _localAccount = _account;\n        if (_account == address(0)) {\n            // Foreign account MUST be provided\n            require(\n                _foreignAccount.length > 0,\n                \"Neither foreign acct nor local acct provided\"\n            );\n            // If no local account provided, truncate foreign chain address to 20-bytes\n            _localAccount = address(bytes20(_foreignAccount));\n        }\n\n        // Perform the actual deposit function on the underlying Vault contract and get the number of shares to add\n        uint256 sharesAdded = IVault(poolInfo[_pid].vault).depositWantToken(\n            _localAccount,\n            _wantAmt\n        );\n        // Determine time multiplier value. Set to 1e12 if the vault is the Zorro staking vault (because we don't do time multipliers on this vault)\n        uint256 timeMultiplier = 1e12;\n        if (pool.vault != zorroStakingVault) {\n            // Determine the time multiplier value based on the duration committed to in weeks\n            timeMultiplier = getTimeMultiplier(_weeksCommitted);\n        }\n        // Determine the individual user contribution based on the quantity of tokens to stake and the time multiplier\n        uint256 contributionAdded = getUserContribution(\n            sharesAdded,\n            timeMultiplier\n        );\n        // Increment the pool's total contributions by the contribution added\n        pool.totalTrancheContributions = pool.totalTrancheContributions.add(\n            contributionAdded\n        );\n        // Update the reward debt that the user owes by multiplying user share % by the pool's accumulated Zorro rewards\n        uint256 newTrancheShare = contributionAdded.mul(1e12).div(\n            pool.totalTrancheContributions\n        );\n\n        // Create tranche info\n        TrancheInfo memory _trancheInfo = TrancheInfo({\n            contribution: contributionAdded,\n            timeMultiplier: timeMultiplier,\n            rewardDebt: pool.accZORRORewards.mul(newTrancheShare).div(1e12),\n            durationCommittedInWeeks: _weeksCommitted,\n            enteredVaultAt: _enteredVaultAt,\n            exitedVaultAt: 0\n        });\n        _updateTrancheInfoForDeposit(\n            _pid,\n            _localAccount,\n            _foreignAccount,\n            _trancheInfo\n        );\n\n        // Emit deposit event\n        emit Deposit(_localAccount, _foreignAccount, _pid, _wantAmt);\n    }\n\n    /// @notice Internal function for updating tranche ledger upon deposit\n    /// @param _pid Index of pool\n    /// @param _localAccount On-chain address\n    /// @param _foreignAccount Cross-chain address, if applicable\n    /// @param _trancheInfo TrancheInfo object\n    function _updateTrancheInfoForDeposit(\n        uint256 _pid,\n        address _localAccount,\n        bytes memory _foreignAccount,\n        TrancheInfo memory _trancheInfo\n    ) internal {\n        // Push a new tranche for this on-chain user\n        trancheInfo[_pid][_localAccount].push(_trancheInfo);\n\n        // If foreign account provided, write the tranche info to the foreign account ledger as well\n        if (_foreignAccount.length > 0) {\n            foreignTrancheInfo[_pid][_foreignAccount][\n                trancheLength(_pid, _localAccount).sub(1)\n            ] = _localAccount;\n        }\n    }\n\n    /// @notice Deposits funds in a full service manner (performs autoswaps and obtains Want tokens)\n    /// @param _pid index of pool to deposit into\n    /// @param _valueUSDC value in USDC (in ether units) to deposit\n    /// @param _weeksCommitted how many weeks to commit to the Pool (can be 0 or any uint)\n    /// @param _maxMarketMovement factor to account for max market movement/slippage. The definition varies by Vault, so consult the associated Vault contract for info\n    function depositFullService(\n        uint256 _pid,\n        uint256 _valueUSDC,\n        uint256 _weeksCommitted,\n        uint256 _maxMarketMovement\n    ) public nonReentrant {\n        // Get Pool, Vault contract\n        address vaultAddr = poolInfo[_pid].vault;\n\n        // Approve spending of USDC (from user to this contract)\n        IERC20(defaultStablecoin).safeIncreaseAllowance(\n            address(this),\n            _valueUSDC\n        );\n        // Safe transfer to Vault contract\n        IERC20(defaultStablecoin).safeTransferFrom(\n            msg.sender,\n            vaultAddr,\n            _valueUSDC\n        );\n\n        // Run core full deposit\n        _depositFullService(\n            _pid,\n            msg.sender,\n            \"\",\n            _valueUSDC,\n            _weeksCommitted,\n            block.timestamp,\n            _maxMarketMovement\n        );\n    }\n\n    /// @notice Private function for depositing\n    /// @dev Dangerous method, as vaultEnteredAt can be backdated\n    /// @param _pid index of pool to deposit into\n    /// @param _account address of user on-chain\n    /// @param _foreignAccount the cross chain wallet that initiated this call, if applicable.\n    /// @param _valueUSDC value in USDC (in ether units) to deposit\n    /// @param _weeksCommitted how many weeks to commit to the Pool (can be 0 or any uint)\n    /// @param _vaultEnteredAt date that the vault was entered at\n    /// @param _maxMarketMovement factor to account for max market movement/slippage. The definition varies by Vault, so consult the associated Vault contract for info\n    function _depositFullService(\n        uint256 _pid,\n        address _account,\n        bytes memory _foreignAccount,\n        uint256 _valueUSDC,\n        uint256 _weeksCommitted,\n        uint256 _vaultEnteredAt,\n        uint256 _maxMarketMovement\n    ) internal {\n        // Get Pool, Vault contract\n        address vaultAddr = poolInfo[_pid].vault;\n        IVault vault = IVault(vaultAddr);\n\n        // Exchange USDC for Want token in the Vault contract\n        uint256 _wantAmt = vault.exchangeUSDForWantToken(\n            _valueUSDC,\n            _maxMarketMovement\n        );\n\n        // Safe increase allowance and xfer Want to vault contract\n        IERC20(poolInfo[_pid].want).safeIncreaseAllowance(vaultAddr, _wantAmt);\n\n        // Make deposit\n        // Call core deposit function\n        _deposit(\n            _pid,\n            _account,\n            _foreignAccount,\n            _wantAmt,\n            _weeksCommitted,\n            _vaultEnteredAt\n        );\n    }\n\n    /// @notice Fully withdraw Want tokens from underlying Vault.\n    /// @param _pid index of pool\n    /// @param _trancheId index of tranche\n    /// @param _harvestOnly If true, will only harvest Zorro tokens but not do a withdrawal\n    /// @return Amount of Want token withdrawn\n    function withdraw(\n        uint256 _pid,\n        uint256 _trancheId,\n        bool _harvestOnly\n    ) public nonReentrant returns (uint256) {\n        // Withdraw Want token\n        (WithdrawalResult memory _res) = _withdraw(\n            _pid,\n            msg.sender,\n            \"\",\n            _trancheId,\n            _harvestOnly\n        );\n\n        // Transfer to user and return Want amount\n        IERC20(poolInfo[_pid].want).safeTransfer(msg.sender, _res.wantAmt);\n\n        return _res.wantAmt;\n    }\n\n    /// @notice Internal function for withdrawing Want tokens from underlying Vault.\n    /// @dev Can only specify one of _localAccount, _foreignAccount\n    /// @param _pid index of pool\n    /// @param _localAccount Address of the on-chain account that the investment was made with\n    /// @param _foreignAccount Address of the foreign chain account that this inviestment was made with\n    /// @param _trancheId index of tranche\n    /// @param _harvestOnly If true, will only harvest Zorro tokens but not do a withdrawal\n    /// @return _res A WithdrawalResult struct containing relevant withdrawal result parameters\n    function _withdraw(\n        uint256 _pid,\n        address _localAccount,\n        bytes memory _foreignAccount,\n        uint256 _trancheId,\n        bool _harvestOnly\n    )\n        internal\n        returns (WithdrawalResult memory _res)\n    {\n        // Can only specify one account (on-chain/foreign, but not both)\n        require(\n            (_localAccount == address(0) && _foreignAccount.length > 0) ||\n                (_localAccount != address(0) && _foreignAccount.length == 0),\n            \"Only one account type allowed\"\n        );\n        // Determine account type and associated values\n        TrancheInfo memory _tranche = _getTranche(\n            _pid,\n            _trancheId,\n            _foreignAccount,\n            _localAccount\n        );\n\n        // Get pool and current tranche info\n        PoolInfo storage _pool = poolInfo[_pid];\n\n        // Require non-zero tranche contribution\n        require(_tranche.contribution > 0, \"tranche.contribution is 0\");\n        // Require non-zero overall tranche contribution\n        require(\n            _pool.totalTrancheContributions > 0,\n            \"totalTrancheContributions is 0\"\n        );\n        // Require that tranche has not yet been exited\n        require(_tranche.exitedVaultAt == 0, \"Already exited vault\");\n\n        // Update the pool before anything to ensure rewards have been updated and transferred\n        _res.mintedZORRewards = updatePool(_pid);\n\n        // Withdraw pending ZORRO rewards (a.k.a. \"Harvest\")\n        uint256 _trancheShare = _tranche.contribution.mul(1e12).div(\n            _pool.totalTrancheContributions\n        );\n        uint256 _pendingRewards = _trancheShare\n            .mul(_pool.accZORRORewards)\n            .div(1e12)\n            .sub(_tranche.rewardDebt);\n        if (_pendingRewards > 0) {\n            // If pending rewards payable, pay them out\n            (uint256 _rewardsDue, uint256 _slashedRewards) = _getPendingRewards(\n                _tranche,\n                _pendingRewards\n            );\n            if (chainId == homeChainId) {\n                // Simply transfer on-chain\n                // Transfer ZORRO rewards to user, net of any applicable slashing\n                if (_rewardsDue > 0) {\n                    _safeZORROTransfer(_localAccount, _rewardsDue);\n                }\n                // Transfer any slashed rewards to single Zorro staking vault, if applicable\n                if (_slashedRewards > 0) {\n                    // Transfer slashed rewards to vault to reward ZORRO stakers\n                    _safeZORROTransfer(zorroStakingVault, _slashedRewards);\n                }\n            } else {\n                // Burn rewards due and slashed rewards, as we will be taking the equivalent amounts from the public pool on the home chain instead\n                _safeZORROTransfer(\n                    burnAddress,\n                    _rewardsDue.add(_slashedRewards)\n                );\n                _res.rewardsDueXChain = _rewardsDue;\n                _res.slashedRewardsXChain = _slashedRewards;\n            }\n        }\n\n        // If not just harvesting (withdrawing too), proceed with below\n        if (!_harvestOnly) {\n            // Perform the actual withdrawal function on the underlying Vault contract and get the number of shares to remove\n            IVault(poolInfo[_pid].vault).withdrawWantToken(\n                _localAccount,\n                _tranche.contribution\n            );\n\n            // Update shares safely\n            _pool.totalTrancheContributions = _pool\n                .totalTrancheContributions\n                .sub(_tranche.contribution);\n\n            // Calculate Want token balance\n            _res.wantAmt = IERC20(_pool.want).balanceOf(address(this));\n\n            // Mark tranche as exited\n            trancheInfo[_pid][_localAccount][_trancheId].exitedVaultAt = block\n                .timestamp;\n\n            // Emit withdrawal event and return want balance\n            emit Withdraw(\n                _localAccount,\n                _foreignAccount,\n                _pid,\n                _trancheId,\n                _res.wantAmt\n            );\n        }\n    }\n\n    /// @notice Get tranche based on tranche ID and account information\n    /// @dev Takes into account potential cross chain identities\n    /// @param _pid Pool ID\n    /// @param _trancheId Tranche ID\n    /// @param _foreignAccount Identity of the foreign account that the tranche might be associated with\n    /// @param _localAccount Identity of the account on the local chain that the tranche might be associated with\n    /// @return _tranche TrancheInfo object for the tranche found\n    function _getTranche(\n        uint256 _pid,\n        uint256 _trancheId,\n        bytes memory _foreignAccount,\n        address _localAccount\n    ) internal view returns (TrancheInfo memory _tranche) {\n        if (_localAccount == address(0)) {\n            // On-chain withdrawal\n            _tranche = trancheInfo[_pid][_localAccount][_trancheId];\n        } else {\n            // Cross-chain withdrawal\n            address _ftLocalAcct = foreignTrancheInfo[_pid][_foreignAccount][\n                _trancheId\n            ];\n            _tranche = trancheInfo[_pid][_ftLocalAcct][_trancheId];\n        }\n    }\n\n    /// @notice Prepares values for paying out rewards\n    /// @param _tranche TrancheInfo object\n    /// @param _pendingRewards Qty of ZOR tokens as pending rewards\n    /// @return _rewardsDue The amount of ZOR rewards payable\n    /// @return _slashedRewards The amount of ZOR rewards slashed due to early withdrawals\n    function _getPendingRewards(\n        TrancheInfo memory _tranche,\n        uint256 _pendingRewards\n    ) internal view returns (uint256 _rewardsDue, uint256 _slashedRewards) {\n        // Only process rewards > 0\n        if (_pendingRewards <= 0) {\n            return (0, 0);\n        }\n        // Check if this is an early withdrawal\n        // If so, slash the accumulated rewards proportionally to the % time remaining before maturity of the time commitment\n        // If not, distribute rewards as normal\n        uint256 timeRemainingInCommitment = _tranche\n            .enteredVaultAt\n            .add(_tranche.durationCommittedInWeeks.mul(1 weeks))\n            .sub(block.timestamp);\n        if (timeRemainingInCommitment > 0) {\n            _slashedRewards = _pendingRewards\n                .mul(timeRemainingInCommitment)\n                .div(_tranche.durationCommittedInWeeks.mul(1 weeks));\n            _rewardsDue = _pendingRewards.sub(_slashedRewards);\n        } else {\n            _rewardsDue = _pendingRewards;\n        }\n    }\n\n    /// @notice Withdraws funds from a pool and converts the Want token into USDC\n    /// @param _pid index of pool to deposit into\n    /// @param _trancheId index of tranche\n    /// @param _harvestOnly If true, will only harvest Zorro tokens but not do a withdrawal\n    /// @param _maxMarketMovement factor to account for max market movement/slippage. The definition varies by Vault, so consult the associated Vault contract for info\n    /// @return Amount (in USDC) returned\n    function withdrawalFullService(\n        uint256 _pid,\n        uint256 _trancheId,\n        bool _harvestOnly,\n        uint256 _maxMarketMovement\n    ) public nonReentrant returns (uint256) {\n        // Withdraw Want token\n        (uint256 _amountUSDC, , , ) = _withdrawalFullService(\n            msg.sender,\n            \"\",\n            _pid,\n            _trancheId,\n            _harvestOnly,\n            _maxMarketMovement\n        );\n\n        // Send USDC funds back to sender\n        IERC20(defaultStablecoin).safeTransfer(msg.sender, _amountUSDC);\n\n        return _amountUSDC;\n    }\n\n    /// @notice Private function for withdrawing funds from a pool and converting the Want token into USDC\n    /// @param _account address of wallet on-chain\n    /// @param _foreignAccount address of wallet cross-chain (that originally made this deposit)\n    /// @param _pid index of pool to deposit into\n    /// @param _trancheId index of tranche\n    /// @param _harvestOnly If true, will only harvest Zorro tokens but not do a withdrawal\n    /// @param _maxMarketMovement factor to account for max market movement/slippage. The definition varies by Vault, so consult the associated Vault contract for info\n    /// @return _amountUSDC Amount of USDC withdrawn\n    /// @return _mintedZORRewards Amount of ZOR rewards minted (to be burned XChain)\n    /// @return _rewardsDueXChain Amount of ZOR rewards due to the origin (cross chain) user\n    /// @return _slashedRewardsXChain Amount of ZOR rewards to be slashed (and thus rewarded to ZOR stakers)\n    function _withdrawalFullService(\n        address _account,\n        bytes memory _foreignAccount,\n        uint256 _pid,\n        uint256 _trancheId,\n        bool _harvestOnly,\n        uint256 _maxMarketMovement\n    )\n        internal\n        returns (\n            uint256 _amountUSDC,\n            uint256 _mintedZORRewards,\n            uint256 _rewardsDueXChain,\n            uint256 _slashedRewardsXChain\n        )\n    {\n        // Get Vault contract\n        address _vaultAddr = poolInfo[_pid].vault;\n        IVault vault = IVault(_vaultAddr);\n\n        // Call core withdrawal function (returns actual amount withdrawn)\n        (\n            WithdrawalResult memory _res\n        ) = _withdraw(\n                _pid,\n                _account,\n                _foreignAccount,\n                _trancheId,\n                _harvestOnly\n            );\n\n        // Safe increase spending of Vault contract for Want token\n        IERC20(poolInfo[_pid].want).safeIncreaseAllowance(\n            _vaultAddr,\n            _res.wantAmt\n        );\n\n        // Exchange Want for USD\n        _amountUSDC = vault.exchangeWantTokenForUSD(\n            _res.wantAmt,\n            _maxMarketMovement\n        );\n\n        _mintedZORRewards = _res.mintedZORRewards;\n        _rewardsDueXChain = _res.rewardsDueXChain;\n        _slashedRewardsXChain = _res.slashedRewardsXChain;\n    }\n\n    /// @notice Transfer all assets from a tranche in one vault to a new vault (works on-chain only)\n    /// @param _fromPid index of pool FROM\n    /// @param _fromTrancheId index of tranche FROM\n    /// @param _toPid index of pool TO\n    /// @param _maxMarketMovement factor to account for max market movement/slippage. The definition varies by Vault, so consult the associated Vault contract for info\n    function transferInvestment(\n        uint256 _fromPid,\n        uint256 _fromTrancheId,\n        uint256 _toPid,\n        uint256 _maxMarketMovement\n    ) public nonReentrant {\n        // Get weeks committed and entered at\n        uint256 weeksCommitted = trancheInfo[_fromPid][msg.sender][\n            _fromTrancheId\n        ].durationCommittedInWeeks;\n        uint256 enteredVaultAt = trancheInfo[_fromPid][msg.sender][\n            _fromTrancheId\n        ].enteredVaultAt;\n        // Withdraw\n        (uint256 withdrawnUSDC, , , ) = _withdrawalFullService(\n            msg.sender,\n            \"\",\n            _fromPid,\n            _fromTrancheId,\n            false,\n            _maxMarketMovement\n        );\n        // Redeposit\n        address[] memory sourceTokens;\n        sourceTokens[0] = defaultStablecoin;\n        _depositFullService(\n            _toPid,\n            msg.sender,\n            \"\",\n            withdrawnUSDC,\n            weeksCommitted,\n            enteredVaultAt,\n            _maxMarketMovement\n        );\n        emit TransferInvestment(msg.sender, _fromPid, _fromTrancheId, _toPid);\n    }\n\n    /// @notice Withdraw the maximum number of Want tokens from a pool\n    /// @param _pid index of pool\n    function withdrawAll(uint256 _pid) public nonReentrant {\n        uint256 numTranches = trancheLength(_pid, msg.sender);\n        for (uint256 tid = 0; tid < numTranches; ++tid) {\n            withdraw(_pid, tid, false);\n        }\n    }\n\n    /* Earnings */\n\n    /// @notice Pays the ZOR single staking pool the revenue share amount specified\n    /// @param _amountUSDC Amount of USDC to send as ZOR revenue share\n    function _revShareOnChain(uint256 _amountUSDC) internal {\n        // Authorize spending beforehand\n        IERC20(defaultStablecoin).safeIncreaseAllowance(\n            uniRouterAddress,\n            _amountUSDC\n        );\n\n        // Get Zorro exchange rate\n        uint256 _ZORROExchangeRate = priceFeedZOR.getExchangeRate();\n\n        // Swap to ZOR\n        IAMMRouter02(uniRouterAddress).safeSwap(\n            _amountUSDC,\n            1e12,\n            _ZORROExchangeRate,\n            defaultMaxMarketMovement,\n            USDCToZorroPath,\n            zorroStakingVault,\n            block.timestamp.add(600)\n        );\n    }\n\n    /// @notice Adds liquidity to the main ZOR LP pool and burns the resulting LP token\n    /// @param _amountUSDC Amount of USDC to add as liquidity\n    function _buybackOnChain(uint256 _amountUSDC) internal {\n        // Authorize spending beforehand\n        IERC20(defaultStablecoin).safeIncreaseAllowance(\n            uniRouterAddress,\n            _amountUSDC\n        );\n\n        // Determine exchange rates using price feed oracle\n        uint256 _exchangeRateZOR = priceFeedZOR.getExchangeRate();\n        uint256 _exchangeRateLPPoolOtherToken = priceFeedLPPoolOtherToken\n            .getExchangeRate();\n\n        // Swap to ZOR token\n        IAMMRouter02(uniRouterAddress).safeSwap(\n            _amountUSDC.div(2),\n            1e12,\n            _exchangeRateZOR,\n            defaultMaxMarketMovement,\n            USDCToZorroPath,\n            address(this),\n            block.timestamp.add(600)\n        );\n\n        // Swap to counterparty token\n        IAMMRouter02(uniRouterAddress).safeSwap(\n            _amountUSDC.div(2),\n            1e12,\n            _exchangeRateLPPoolOtherToken,\n            defaultMaxMarketMovement,\n            USDCToZorroLPPoolOtherTokenPath,\n            address(this),\n            block.timestamp.add(600)\n        );\n\n        // Enter LP pool\n        uint256 tokenZORAmt = IERC20(ZORRO).balanceOf(address(this));\n        uint256 tokenOtherAmt = IERC20(zorroLPPoolOtherToken).balanceOf(\n            address(this)\n        );\n        IERC20(ZORRO).safeIncreaseAllowance(uniRouterAddress, tokenZORAmt);\n        IERC20(zorroLPPoolOtherToken).safeIncreaseAllowance(\n            uniRouterAddress,\n            tokenOtherAmt\n        );\n        IAMMRouter02(uniRouterAddress).addLiquidity(\n            ZORRO,\n            zorroLPPoolOtherToken,\n            tokenZORAmt,\n            tokenOtherAmt,\n            tokenZORAmt.mul(defaultMaxMarketMovement).div(1000),\n            tokenOtherAmt.mul(defaultMaxMarketMovement).div(1000),\n            burnAddress,\n            block.timestamp.add(600)\n        );\n    }\n\n    /* Allocations */\n\n    /// @notice Calculate time multiplier based on duration committed\n    /// @param durationInWeeks number of weeks committed into Vault\n    /// @return multiplier factor, times 1e12\n    function getTimeMultiplier(uint256 durationInWeeks)\n        public\n        view\n        returns (uint256)\n    {\n        if (isTimeMultiplierActive) {\n            return\n                (\n                    uint256(1).add(\n                        (uint256(2).div(10)).mul(durationInWeeks.sqrt())\n                    )\n                ).mul(1e12);\n        } else {\n            return 1e12;\n        }\n    }\n\n    /// @notice The contribution of the user, meant to be used in rewards allocations\n    /// @param _liquidityCommitted How many tokens staked (e.g. LP tokens)\n    /// @param _timeMultiplier Time multiplier value (from getTimeMultiplier())\n    /// @return The relative contribution of the user (unitless)\n    function getUserContribution(\n        uint256 _liquidityCommitted,\n        uint256 _timeMultiplier\n    ) public pure returns (uint256) {\n        return _liquidityCommitted.mul(_timeMultiplier).div(1e12);\n    }\n}\n",
  "sourcePath": "/Users/kristophm/Documents/workspace/zorro-protocol/contracts/controllers/_ZorroControllerInvestment.sol",
  "compiler": {
    "name": "solc",
    "version": "0.8.10+commit.fc410830.Emscripten.clang"
  },
  "schemaVersion": "3.4.4",
  "updatedAt": "2022-04-06T13:20:22.529Z",
  "devdoc": {
    "kind": "dev",
    "methods": {
      "deposit(uint256,uint256,uint256)": {
        "params": {
          "_pid": "index of pool",
          "_wantAmt": "how much Want token to deposit",
          "_weeksCommitted": "how many weeks the user is committing to on this vault"
        }
      },
      "depositFullService(uint256,uint256,uint256,uint256)": {
        "params": {
          "_maxMarketMovement": "factor to account for max market movement/slippage. The definition varies by Vault, so consult the associated Vault contract for info",
          "_pid": "index of pool to deposit into",
          "_valueUSDC": "value in USDC (in ether units) to deposit",
          "_weeksCommitted": "how many weeks to commit to the Pool (can be 0 or any uint)"
        }
      },
      "getTimeMultiplier(uint256)": {
        "params": {
          "durationInWeeks": "number of weeks committed into Vault"
        },
        "returns": {
          "_0": "multiplier factor, times 1e12"
        }
      },
      "getUserContribution(uint256,uint256)": {
        "params": {
          "_liquidityCommitted": "How many tokens staked (e.g. LP tokens)",
          "_timeMultiplier": "Time multiplier value (from getTimeMultiplier())"
        },
        "returns": {
          "_0": "The relative contribution of the user (unitless)"
        }
      },
      "inCaseTokensGetStuck(address,uint256)": {
        "details": "Does not permit usage for the Zorro token",
        "params": {
          "_amount": "token quantity",
          "_token": "ERC20 token address"
        }
      },
      "owner()": {
        "details": "Returns the address of the current owner."
      },
      "poolLength()": {
        "returns": {
          "_0": "Number of pools"
        }
      },
      "renounceOwnership()": {
        "details": "Leaves the contract without owner. It will not be possible to call `onlyOwner` functions anymore. Can only be called by the current owner. NOTE: Renouncing ownership will leave the contract without an owner, thereby removing any functionality that is only available to the owner."
      },
      "setIsTimeMultiplierActive(bool)": {
        "params": {
          "_isActive": "Whether it shall be active. If false, timemultiplier will be 1."
        }
      },
      "setKeyAddresses(address,address)": {
        "params": {
          "_ZORRO": "ZOR token address",
          "_defaultStablecoin": "Main stablecoin address (USDC)"
        }
      },
      "setPriceFeeds(address,address)": {
        "params": {
          "_priceFeedLPPoolOtherToken": "The address of the price feed for the counterparty token in the ZOR LP Pool",
          "_priceFeedZOR": "The address of the price feed for ZOR"
        }
      },
      "setRewardsParams(uint256[],uint256[],uint256,uint256)": {
        "details": "NOTE: Must enter all parameters or existing ones will be overwritten!",
        "params": {
          "_baseRewardRateBasisPoints": "Base reward rate factor, in bp",
          "_blockParams": "Array of [blocksPerDay, ZORROPerBlock]",
          "_chainMultiplier": "Rewards multiplier factor to be applied to this chain",
          "_dailyDistFactors": "Array of [ZORRODailyDistributionFactorBasisPointsMin, ZORRODailyDistributionFactorBasisPointsMax]"
        }
      },
      "setTargetTVLCaptureBasisPoints(uint256)": {
        "params": {
          "_targetTVLCaptureBasisPoints": "Percent of market desired to be captured, in bp. 333 = 3.33%. ONLY to be set on the home chain"
        }
      },
      "setUSDCToZORPath(address[])": {
        "params": {
          "_path": "Swap path"
        }
      },
      "setUSDCToZorroLPPoolOtherTokenPath(address[])": {
        "params": {
          "_path": "Swap path"
        }
      },
      "setUniRouter(address)": {
        "params": {
          "_uniV2Router": "Address of router"
        }
      },
      "setXChainParams(uint256,uint256,address)": {
        "params": {
          "_chainId": "The ind of the chain that this contract is on",
          "_homeChainId": "The chain ID of the home chain",
          "_homeChainZorroController": "The address of the home chain controller"
        }
      },
      "setZorroContracts(address,address)": {
        "params": {
          "_publicPool": "Public pool address (where ZOR minted)",
          "_zorroStakingVault": "Zorro single staking vault address"
        }
      },
      "setZorroControllerOracle(address)": {
        "params": {
          "_zorroControllerOracle": "Address of Chainlink oracle that can interact with this contract"
        }
      },
      "setZorroLPPoolParams(address,address)": {
        "params": {
          "_zorroLPPool": "Address of the Zorro-X LP pool",
          "_zorroLPPoolOtherToken": "Address of the counterpart token to the ZOR token in the LP Pool"
        }
      },
      "setZorroPerBlock(uint256,uint256,uint256,uint256,uint256)": {
        "details": "Values to be provided by Oracle. Perferable to run daily",
        "params": {
          "_ZorroTotalVaultTVLUSD": "USD value of all TVL locked into the Zorro protocol, across all chains",
          "_publicPoolZORBalance": "Number of ZOR tokens remaining in public pool on home chain",
          "_targetTVLCaptureBasisPoints": "% desired capture of total market TVL, measured in basis points",
          "_totalChainMultipliers": "Sum total of all chain multipliers for each chain",
          "_totalMarketTVLUSD": "Total DeFi market TVL across all chains (measured in USD)"
        }
      },
      "trancheLength(uint256,address)": {
        "params": {
          "_pid": "Index of pool",
          "_user": "wallet address of user"
        },
        "returns": {
          "_0": "Number of tranches"
        }
      },
      "transferInvestment(uint256,uint256,uint256,uint256)": {
        "params": {
          "_fromPid": "index of pool FROM",
          "_fromTrancheId": "index of tranche FROM",
          "_maxMarketMovement": "factor to account for max market movement/slippage. The definition varies by Vault, so consult the associated Vault contract for info",
          "_toPid": "index of pool TO"
        }
      },
      "transferOwnership(address)": {
        "details": "Transfers ownership of the contract to a new account (`newOwner`). Can only be called by the current owner."
      },
      "updatePool(uint256)": {
        "params": {
          "_pid": "index of pool"
        },
        "returns": {
          "_0": "uint256 Amount of ZOR rewards minted (useful for cross chain)"
        }
      },
      "withdraw(uint256,uint256,bool)": {
        "params": {
          "_harvestOnly": "If true, will only harvest Zorro tokens but not do a withdrawal",
          "_pid": "index of pool",
          "_trancheId": "index of tranche"
        },
        "returns": {
          "_0": "Amount of Want token withdrawn"
        }
      },
      "withdrawAll(uint256)": {
        "params": {
          "_pid": "index of pool"
        }
      },
      "withdrawalFullService(uint256,uint256,bool,uint256)": {
        "params": {
          "_harvestOnly": "If true, will only harvest Zorro tokens but not do a withdrawal",
          "_maxMarketMovement": "factor to account for max market movement/slippage. The definition varies by Vault, so consult the associated Vault contract for info",
          "_pid": "index of pool to deposit into",
          "_trancheId": "index of tranche"
        },
        "returns": {
          "_0": "Amount (in USDC) returned"
        }
      }
    },
    "version": 1
  },
  "userdoc": {
    "kind": "user",
    "methods": {
      "deposit(uint256,uint256,uint256)": {
        "notice": "Deposit Want tokens to associated Vault"
      },
      "depositFullService(uint256,uint256,uint256,uint256)": {
        "notice": "Deposits funds in a full service manner (performs autoswaps and obtains Want tokens)"
      },
      "getTimeMultiplier(uint256)": {
        "notice": "Calculate time multiplier based on duration committed"
      },
      "getUserContribution(uint256,uint256)": {
        "notice": "The contribution of the user, meant to be used in rewards allocations"
      },
      "inCaseTokensGetStuck(address,uint256)": {
        "notice": "For owner to recover ERC20 tokens on this contract if stuck"
      },
      "poolLength()": {
        "notice": "Number of pools in the Zorro protocol"
      },
      "setIsTimeMultiplierActive(bool)": {
        "notice": "Setter: Set time multiplier"
      },
      "setKeyAddresses(address,address)": {
        "notice": "Setter: Set key token addresses"
      },
      "setPriceFeeds(address,address)": {
        "notice": "Setter: Chainlink price feeds"
      },
      "setRewardsParams(uint256[],uint256[],uint256,uint256)": {
        "notice": "Setter: Reward params (See Tokenomics paper for more details)"
      },
      "setStartBlock(uint256)": {
        "notice": "Setter: Start block for rewards"
      },
      "setTargetTVLCaptureBasisPoints(uint256)": {
        "notice": "Setter: TVL capture (See Tokenomics paper)"
      },
      "setUSDCToZORPath(address[])": {
        "notice": "Setter: Set path for token swap from USDC to ZOR"
      },
      "setUSDCToZorroLPPoolOtherTokenPath(address[])": {
        "notice": "Setter: Set path for token swap from USDC to counterparty token in ZOR LP pool"
      },
      "setUniRouter(address)": {
        "notice": "Setter: Uniswap-compatible router address"
      },
      "setXChainParams(uint256,uint256,address)": {
        "notice": "Setter: Cross chain params"
      },
      "setZorroContracts(address,address)": {
        "notice": "Setter: Set key ZOR contract addresses"
      },
      "setZorroControllerOracle(address)": {
        "notice": "Setter: Set Zorro Controller Oracle"
      },
      "setZorroLPPoolParams(address,address)": {
        "notice": "Setter: Zorro LP Pool params"
      },
      "setZorroPerBlock(uint256,uint256,uint256,uint256,uint256)": {
        "notice": "Set the number of Zorro to emit per block based on current market parameters"
      },
      "trancheLength(uint256,address)": {
        "notice": "Number of tranches invested by a given user into a given pool"
      },
      "transferInvestment(uint256,uint256,uint256,uint256)": {
        "notice": "Transfer all assets from a tranche in one vault to a new vault (works on-chain only)"
      },
      "updatePool(uint256)": {
        "notice": "Update reward variables of the given pool to be up-to-date."
      },
      "withdraw(uint256,uint256,bool)": {
        "notice": "Fully withdraw Want tokens from underlying Vault."
      },
      "withdrawAll(uint256)": {
        "notice": "Withdraw the maximum number of Want tokens from a pool"
      },
      "withdrawalFullService(uint256,uint256,bool,uint256)": {
        "notice": "Withdraws funds from a pool and converts the Want token into USDC"
      }
    },
    "version": 1
  }
}