{
  "contractName": "ZorroControllerXChainEarn",
  "abi": [
    {
      "anonymous": false,
      "inputs": [
        {
          "indexed": true,
          "internalType": "address",
          "name": "previousOwner",
          "type": "address"
        },
        {
          "indexed": true,
          "internalType": "address",
          "name": "newOwner",
          "type": "address"
        }
      ],
      "name": "OwnershipTransferred",
      "type": "event"
    },
    {
      "anonymous": false,
      "inputs": [
        {
          "indexed": true,
          "internalType": "uint256",
          "name": "_amountZOR",
          "type": "uint256"
        }
      ],
      "name": "RemovedSlashedRewards",
      "type": "event"
    },
    {
      "anonymous": false,
      "inputs": [
        {
          "indexed": true,
          "internalType": "uint256",
          "name": "_remoteChainId",
          "type": "uint256"
        },
        {
          "indexed": true,
          "internalType": "uint256",
          "name": "_buybackAmountUSD",
          "type": "uint256"
        },
        {
          "indexed": true,
          "internalType": "uint256",
          "name": "_revShareAmountUSD",
          "type": "uint256"
        }
      ],
      "name": "XChainDistributeEarnings",
      "type": "event"
    },
    {
      "inputs": [
        {
          "internalType": "uint16",
          "name": "",
          "type": "uint16"
        }
      ],
      "name": "LZChainToZorroMap",
      "outputs": [
        {
          "internalType": "uint256",
          "name": "",
          "type": "uint256"
        }
      ],
      "stateMutability": "view",
      "type": "function"
    },
    {
      "inputs": [],
      "name": "ZORRO",
      "outputs": [
        {
          "internalType": "address",
          "name": "",
          "type": "address"
        }
      ],
      "stateMutability": "view",
      "type": "function"
    },
    {
      "inputs": [
        {
          "internalType": "uint256",
          "name": "",
          "type": "uint256"
        }
      ],
      "name": "ZorroChainToLZMap",
      "outputs": [
        {
          "internalType": "uint16",
          "name": "",
          "type": "uint16"
        }
      ],
      "stateMutability": "view",
      "type": "function"
    },
    {
      "inputs": [],
      "name": "accumulatedSlashedRewards",
      "outputs": [
        {
          "internalType": "uint256",
          "name": "",
          "type": "uint256"
        }
      ],
      "stateMutability": "view",
      "type": "function"
    },
    {
      "inputs": [],
      "name": "burnAddress",
      "outputs": [
        {
          "internalType": "address",
          "name": "",
          "type": "address"
        }
      ],
      "stateMutability": "view",
      "type": "function"
    },
    {
      "inputs": [],
      "name": "chainId",
      "outputs": [
        {
          "internalType": "uint256",
          "name": "",
          "type": "uint256"
        }
      ],
      "stateMutability": "view",
      "type": "function"
    },
    {
      "inputs": [
        {
          "internalType": "uint256",
          "name": "",
          "type": "uint256"
        }
      ],
      "name": "chainTypes",
      "outputs": [
        {
          "internalType": "uint256",
          "name": "",
          "type": "uint256"
        }
      ],
      "stateMutability": "view",
      "type": "function"
    },
    {
      "inputs": [],
      "name": "controllerActions",
      "outputs": [
        {
          "internalType": "address",
          "name": "",
          "type": "address"
        }
      ],
      "stateMutability": "view",
      "type": "function"
    },
    {
      "inputs": [
        {
          "internalType": "uint256",
          "name": "",
          "type": "uint256"
        }
      ],
      "name": "controllerContractsMap",
      "outputs": [
        {
          "internalType": "bytes",
          "name": "",
          "type": "bytes"
        }
      ],
      "stateMutability": "view",
      "type": "function"
    },
    {
      "inputs": [],
      "name": "currentChainController",
      "outputs": [
        {
          "internalType": "address",
          "name": "",
          "type": "address"
        }
      ],
      "stateMutability": "view",
      "type": "function"
    },
    {
      "inputs": [],
      "name": "defaultStablecoin",
      "outputs": [
        {
          "internalType": "address",
          "name": "",
          "type": "address"
        }
      ],
      "stateMutability": "view",
      "type": "function"
    },
    {
      "inputs": [],
      "name": "homeChainId",
      "outputs": [
        {
          "internalType": "uint256",
          "name": "",
          "type": "uint256"
        }
      ],
      "stateMutability": "view",
      "type": "function"
    },
    {
      "inputs": [],
      "name": "homeChainZorroController",
      "outputs": [
        {
          "internalType": "address",
          "name": "",
          "type": "address"
        }
      ],
      "stateMutability": "view",
      "type": "function"
    },
    {
      "inputs": [],
      "name": "layerZeroEndpoint",
      "outputs": [
        {
          "internalType": "address",
          "name": "",
          "type": "address"
        }
      ],
      "stateMutability": "view",
      "type": "function"
    },
    {
      "inputs": [],
      "name": "owner",
      "outputs": [
        {
          "internalType": "address",
          "name": "",
          "type": "address"
        }
      ],
      "stateMutability": "view",
      "type": "function"
    },
    {
      "inputs": [],
      "name": "priceFeedLPPoolOtherToken",
      "outputs": [
        {
          "internalType": "contract AggregatorV3Interface",
          "name": "",
          "type": "address"
        }
      ],
      "stateMutability": "view",
      "type": "function"
    },
    {
      "inputs": [],
      "name": "priceFeedStablecoin",
      "outputs": [
        {
          "internalType": "contract AggregatorV3Interface",
          "name": "",
          "type": "address"
        }
      ],
      "stateMutability": "view",
      "type": "function"
    },
    {
      "inputs": [],
      "name": "priceFeedZOR",
      "outputs": [
        {
          "internalType": "contract AggregatorV3Interface",
          "name": "",
          "type": "address"
        }
      ],
      "stateMutability": "view",
      "type": "function"
    },
    {
      "inputs": [],
      "name": "publicPool",
      "outputs": [
        {
          "internalType": "address",
          "name": "",
          "type": "address"
        }
      ],
      "stateMutability": "view",
      "type": "function"
    },
    {
      "inputs": [],
      "name": "renounceOwnership",
      "outputs": [],
      "stateMutability": "nonpayable",
      "type": "function"
    },
    {
      "inputs": [
        {
          "internalType": "address",
          "name": "_burn",
          "type": "address"
        }
      ],
      "name": "setBurnAddress",
      "outputs": [],
      "stateMutability": "nonpayable",
      "type": "function"
    },
    {
      "inputs": [
        {
          "internalType": "uint256",
          "name": "_zorroChainId",
          "type": "uint256"
        },
        {
          "internalType": "uint256",
          "name": "_chainType",
          "type": "uint256"
        }
      ],
      "name": "setChainType",
      "outputs": [],
      "stateMutability": "nonpayable",
      "type": "function"
    },
    {
      "inputs": [
        {
          "internalType": "uint256[]",
          "name": "_chainIds",
          "type": "uint256[]"
        }
      ],
      "name": "setChains",
      "outputs": [],
      "stateMutability": "nonpayable",
      "type": "function"
    },
    {
      "inputs": [
        {
          "internalType": "uint256",
          "name": "_zorroChainId",
          "type": "uint256"
        },
        {
          "internalType": "bytes",
          "name": "_controller",
          "type": "bytes"
        }
      ],
      "name": "setControllerContract",
      "outputs": [],
      "stateMutability": "nonpayable",
      "type": "function"
    },
    {
      "inputs": [
        {
          "internalType": "address[]",
          "name": "_contracts",
          "type": "address[]"
        }
      ],
      "name": "setKeyContracts",
      "outputs": [],
      "stateMutability": "nonpayable",
      "type": "function"
    },
    {
      "inputs": [
        {
          "internalType": "address",
          "name": "_stargateRouter",
          "type": "address"
        },
        {
          "internalType": "uint256",
          "name": "_stargateSwapPoolId",
          "type": "uint256"
        },
        {
          "internalType": "address",
          "name": "_layerZeroEndpoint",
          "type": "address"
        }
      ],
      "name": "setLayerZeroParams",
      "outputs": [],
      "stateMutability": "nonpayable",
      "type": "function"
    },
    {
      "inputs": [
        {
          "internalType": "uint256",
          "name": "_zorroChainId",
          "type": "uint256"
        },
        {
          "internalType": "uint16",
          "name": "_stargatePoolId",
          "type": "uint16"
        }
      ],
      "name": "setStargateDestPoolIds",
      "outputs": [],
      "stateMutability": "nonpayable",
      "type": "function"
    },
    {
      "inputs": [
        {
          "internalType": "address[]",
          "name": "_tokens",
          "type": "address[]"
        }
      ],
      "name": "setTokens",
      "outputs": [],
      "stateMutability": "nonpayable",
      "type": "function"
    },
    {
      "inputs": [
        {
          "internalType": "uint256",
          "name": "_zorroChainId",
          "type": "uint256"
        },
        {
          "internalType": "uint16",
          "name": "_lzChainId",
          "type": "uint16"
        }
      ],
      "name": "setZorroChainToLZMap",
      "outputs": [],
      "stateMutability": "nonpayable",
      "type": "function"
    },
    {
      "inputs": [
        {
          "internalType": "uint256",
          "name": "",
          "type": "uint256"
        }
      ],
      "name": "stablecoinToZorroLPPoolOtherTokenPath",
      "outputs": [
        {
          "internalType": "address",
          "name": "",
          "type": "address"
        }
      ],
      "stateMutability": "view",
      "type": "function"
    },
    {
      "inputs": [
        {
          "internalType": "uint256",
          "name": "",
          "type": "uint256"
        }
      ],
      "name": "stablecoinToZorroPath",
      "outputs": [
        {
          "internalType": "address",
          "name": "",
          "type": "address"
        }
      ],
      "stateMutability": "view",
      "type": "function"
    },
    {
      "inputs": [
        {
          "internalType": "uint256",
          "name": "",
          "type": "uint256"
        }
      ],
      "name": "stargateDestPoolIds",
      "outputs": [
        {
          "internalType": "uint256",
          "name": "",
          "type": "uint256"
        }
      ],
      "stateMutability": "view",
      "type": "function"
    },
    {
      "inputs": [],
      "name": "stargateRouter",
      "outputs": [
        {
          "internalType": "address",
          "name": "",
          "type": "address"
        }
      ],
      "stateMutability": "view",
      "type": "function"
    },
    {
      "inputs": [],
      "name": "stargateSwapPoolId",
      "outputs": [
        {
          "internalType": "uint256",
          "name": "",
          "type": "uint256"
        }
      ],
      "stateMutability": "view",
      "type": "function"
    },
    {
      "inputs": [
        {
          "internalType": "address",
          "name": "newOwner",
          "type": "address"
        }
      ],
      "name": "transferOwnership",
      "outputs": [],
      "stateMutability": "nonpayable",
      "type": "function"
    },
    {
      "inputs": [],
      "name": "uniRouterAddress",
      "outputs": [
        {
          "internalType": "address",
          "name": "",
          "type": "address"
        }
      ],
      "stateMutability": "view",
      "type": "function"
    },
    {
      "inputs": [],
      "name": "zorroLPPoolOtherToken",
      "outputs": [
        {
          "internalType": "address",
          "name": "",
          "type": "address"
        }
      ],
      "stateMutability": "view",
      "type": "function"
    },
    {
      "inputs": [],
      "name": "zorroStakingVault",
      "outputs": [
        {
          "internalType": "address",
          "name": "",
          "type": "address"
        }
      ],
      "stateMutability": "view",
      "type": "function"
    },
    {
      "inputs": [
        {
          "internalType": "address",
          "name": "_token",
          "type": "address"
        }
      ],
      "name": "setZorroLPPoolOtherToken",
      "outputs": [],
      "stateMutability": "nonpayable",
      "type": "function"
    },
    {
      "inputs": [
        {
          "internalType": "address",
          "name": "_contract",
          "type": "address"
        }
      ],
      "name": "setZorroStakingVault",
      "outputs": [],
      "stateMutability": "nonpayable",
      "type": "function"
    },
    {
      "inputs": [
        {
          "internalType": "address",
          "name": "_contract",
          "type": "address"
        }
      ],
      "name": "setUniRouterAddress",
      "outputs": [],
      "stateMutability": "nonpayable",
      "type": "function"
    },
    {
      "inputs": [
        {
          "internalType": "address[]",
          "name": "_stablecoinToZorroPath",
          "type": "address[]"
        },
        {
          "internalType": "address[]",
          "name": "_stablecoinToZorroLPPoolOtherTokenPath",
          "type": "address[]"
        }
      ],
      "name": "setSwapPaths",
      "outputs": [],
      "stateMutability": "nonpayable",
      "type": "function"
    },
    {
      "inputs": [
        {
          "internalType": "address[]",
          "name": "_priceFeeds",
          "type": "address[]"
        }
      ],
      "name": "setPriceFeeds",
      "outputs": [],
      "stateMutability": "nonpayable",
      "type": "function"
    },
    {
      "inputs": [
        {
          "internalType": "uint256",
          "name": "_pid",
          "type": "uint256"
        },
        {
          "internalType": "uint256",
          "name": "_buybackAmountUSD",
          "type": "uint256"
        },
        {
          "internalType": "uint256",
          "name": "_revShareAmountUSD",
          "type": "uint256"
        },
        {
          "internalType": "uint256",
          "name": "_maxMarketMovement",
          "type": "uint256"
        }
      ],
      "name": "sendXChainDistributeEarningsRequest",
      "outputs": [],
      "stateMutability": "payable",
      "type": "function"
    },
    {
      "inputs": [
        {
          "internalType": "uint256",
          "name": "_remoteChainId",
          "type": "uint256"
        },
        {
          "internalType": "uint256",
          "name": "_amountUSDBuyback",
          "type": "uint256"
        },
        {
          "internalType": "uint256",
          "name": "_amountUSDRevShare",
          "type": "uint256"
        },
        {
          "internalType": "uint256",
          "name": "_accSlashedRewards",
          "type": "uint256"
        },
        {
          "internalType": "uint256",
          "name": "_maxMarketMovement",
          "type": "uint256"
        }
      ],
      "name": "receiveXChainDistributionRequest",
      "outputs": [],
      "stateMutability": "nonpayable",
      "type": "function"
    }
  ],
  "bytecode": "0x608060405234801561001057600080fd5b5061262f806100206000396000f3fe6080604052600436106102765760003560e060020a9004806370d5ae05116101535780639a8a0592116100c5578063cd01af481161007e578063cd01af48146107b2578063e940f6e1146107d2578063ebfba7c4146107e8578063ef12696714610808578063f2fde38b1461081e578063fc39a29e1461083e57600080fd5b80639a8a0592146106fc578063a4d2b08314610712578063a4d8adf914610732578063a9e56f3c14610752578063b22f325114610772578063b61bb80a1461079257600080fd5b80637f633ea8116101175780637f633ea8146106315780638b5694d6146106515780638c157db2146106715780638d6ffd6a146106915780638da5cb5b146106be578063959334f4146106dc57600080fd5b806370d5ae051461059c578063715018a6146105bc5780637795fba2146105d157806379777d81146105f15780637bd455221461061157600080fd5b8063487c3868116101ec578063593af9fe116101b0578063593af9fe146104cf5780635da79d63146104fc578063625adaf21461051c578063668ababb1461053c578063693a090b1461055c5780636ca8bd651461057c57600080fd5b8063487c3868146104395780634b0e7216146104595780634bf76174146104795780635175ce1b146104995780635790f599146104b957600080fd5b8063219b38b81161023e578063219b38b81461033a57806325b4383014610375578063293da9d414610395578063332e5a7b146103c2578063459f4753146103e2578063464e3c8b1461042657600080fd5b806307968db11461027b5780630a34e1a4146102b857806313a2e880146102da57806315230ae6146102fa5780631fae1a201461031a575b600080fd5b34801561028757600080fd5b50609a5461029b90600160a060020a031681565b604051600160a060020a0390911681526020015b60405180910390f35b3480156102c457600080fd5b506102d86102d3366004611dbc565b61085e565b005b3480156102e657600080fd5b506102d86102f5366004611dde565b6108a6565b34801561030657600080fd5b5060a25461029b90600160a060020a031681565b34801561032657600080fd5b5061029b610335366004611e5a565b6108f2565b34801561034657600080fd5b50610367610355366004611e5a565b60996020526000908152604090205481565b6040519081526020016102af565b34801561038157600080fd5b506102d8610390366004611e73565b61091c565b3480156103a157600080fd5b506103676103b0366004611ec5565b609d6020526000908152604090205481565b3480156103ce57600080fd5b5060a45461029b90600160a060020a031681565b3480156103ee57600080fd5b506104136103fd366004611e5a565b609c6020526000908152604090205461ffff1681565b60405161ffff90911681526020016102af565b6102d8610434366004611ee0565b61096e565b34801561044557600080fd5b506102d8610454366004611f5d565b610d64565b34801561046557600080fd5b506102d8610474366004611fb4565b610e6d565b34801561048557600080fd5b506102d8610494366004611f5d565b610ebc565b3480156104a557600080fd5b506102d86104b4366004611fd1565b610fc5565b3480156104c557600080fd5b5061036760985481565b3480156104db57600080fd5b506104ef6104ea366004611e5a565b61100b565b6040516102af9190612095565b34801561050857600080fd5b506102d8610517366004611fb4565b6110a5565b34801561052857600080fd5b506102d8610537366004611f5d565b6110f4565b34801561054857600080fd5b5060a35461029b90600160a060020a031681565b34801561056857600080fd5b5060aa5461029b90600160a060020a031681565b34801561058857600080fd5b506102d8610597366004611fb4565b6111b5565b3480156105a857600080fd5b5060a75461029b90600160a060020a031681565b3480156105c857600080fd5b506102d8611204565b3480156105dd57600080fd5b5060af5461029b90600160a060020a031681565b3480156105fd57600080fd5b5060ae5461029b90600160a060020a031681565b34801561061d57600080fd5b506102d861062c3660046120a8565b61123d565b34801561063d57600080fd5b506102d861064c3660046120ea565b61129e565b34801561065d57600080fd5b506102d861066c3660046120ea565b6112fa565b34801561067d57600080fd5b5060a05461029b90600160a060020a031681565b34801561069d57600080fd5b506103676106ac366004611e5a565b609e6020526000908152604090205481565b3480156106ca57600080fd5b50603354600160a060020a031661029b565b3480156106e857600080fd5b506102d86106f7366004611fb4565b611340565b34801561070857600080fd5b5061036760a55481565b34801561071e57600080fd5b5060a95461029b90600160a060020a031681565b34801561073e57600080fd5b5061029b61074d366004611e5a565b61138f565b34801561075e57600080fd5b5060975461029b90600160a060020a031681565b34801561077e57600080fd5b5060ad5461029b90600160a060020a031681565b34801561079e57600080fd5b50609f5461029b90600160a060020a031681565b3480156107be57600080fd5b506102d86107cd366004611f5d565b61139f565b3480156107de57600080fd5b5061036760b05481565b3480156107f457600080fd5b5060a85461029b90600160a060020a031681565b34801561081457600080fd5b5061036760a65481565b34801561082a57600080fd5b506102d8610839366004611fb4565b61140e565b34801561084a57600080fd5b5060a15461029b90600160a060020a031681565b603354600160a060020a031633146108945760405160e560020a62461bcd02815260040161088b90612116565b60405180910390fd5b6000918252609e602052604090912055565b603354600160a060020a031633146108d35760405160e560020a62461bcd02815260040161088b90612116565b6000838152609b602052604090206108ec908383611cd0565b50505050565b60ac818154811061090257600080fd5b600091825260209091200154600160a060020a0316905081565b60405160e560020a62461bcd02815260206004820152601760248201527f696c6c6567616c2064756d6d792066756e632063616c6c000000000000000000604482015260640161088b565b5050505050565b600260655414156109c45760405160e560020a62461bcd02815260206004820152601f60248201527f5265656e7472616e637947756172643a207265656e7472616e742063616c6c00604482015260640161088b565b600260655560a2546040517f1526fe27000000000000000000000000000000000000000000000000000000008152600481018690528591600091600160a060020a0390911690631526fe279060240160c060405180830381865afa158015610a30573d6000803e3d6000fd5b505050506040513d601f19601f82011682018060405250810190610a54919061214b565b9550505050505080600160a060020a0316610a6c3390565b600160a060020a031614610ac55760405160e560020a62461bcd02815260206004820152600e60248201527f6f6e6c7920726567207661756c74000000000000000000000000000000000000604482015260640161088b565b60003411610b185760405160e560020a62461bcd02815260206004820152601160248201527f4e6f2066656573207375626d6974746564000000000000000000000000000000604482015260640161088b565b6000610b2485876121c4565b609f54909150610b3f90600160a060020a031633308461168d565b609f546040517f70a08231000000000000000000000000000000000000000000000000000000008152306004820152600091600160a060020a0316906370a0823190602401602060405180830381865afa158015610ba1573d6000803e3d6000fd5b505050506040513d601f19601f82011682018060405250810190610bc591906121dc565b90506000610bd161173e565b60a4805460a5546040517f4223f99d0000000000000000000000000000000000000000000000000000000081526004810191909152602481018c9052604481018b905260648101849052608481018a9052929350600092600160a060020a0390911691634223f99d9101600060405180830381865afa158015610c58573d6000803e3d6000fd5b505050506040513d6000823e601f3d908101601f19168201604052610c80919081019061220e565b60a5546000908152609b6020526040812080549293509091610ca1906122b0565b80601f0160208091040260200160405190810160405280929190818152602001828054610ccd906122b0565b8015610d1a5780601f10610cef57610100808354040283529160200191610d1a565b820191906000526020600020905b815481529060010190602001808311610cfd57829003601f168201915b50505050509050610d526040518060a0016040528060a65481526020018681526020018381526020018481526020018a815250611774565b50506001606555505050505050505050565b603354600160a060020a03163314610d915760405160e560020a62461bcd02815260040161088b90612116565b81816000818110610da457610da46122ee565b9050602002016020810190610db99190611fb4565b60ad8054600160a060020a031916600160a060020a039290921691909117905581816001818110610dec57610dec6122ee565b9050602002016020810190610e019190611fb4565b60ae8054600160a060020a031916600160a060020a039290921691909117905581816002818110610e3457610e346122ee565b9050602002016020810190610e499190611fb4565b60af8054600160a060020a031916600160a060020a03929092169190911790555050565b603354600160a060020a03163314610e9a5760405160e560020a62461bcd02815260040161088b90612116565b60a78054600160a060020a031916600160a060020a0392909216919091179055565b603354600160a060020a03163314610ee95760405160e560020a62461bcd02815260040161088b90612116565b81816000818110610efc57610efc6122ee565b9050602002016020810190610f119190611fb4565b60a18054600160a060020a031916600160a060020a039290921691909117905581816001818110610f4457610f446122ee565b9050602002016020810190610f599190611fb4565b60a28054600160a060020a031916600160a060020a039290921691909117905581816002818110610f8c57610f8c6122ee565b9050602002016020810190610fa19190611fb4565b60a38054600160a060020a031916600160a060020a03929092169190911790555050565b603354600160a060020a03163314610ff25760405160e560020a62461bcd02815260040161088b90612116565b610ffe60ab8585611d54565b5061096760ac8383611d54565b609b6020526000908152604090208054611024906122b0565b80601f0160208091040260200160405190810160405280929190818152602001828054611050906122b0565b801561109d5780601f106110725761010080835404028352916020019161109d565b820191906000526020600020905b81548152906001019060200180831161108057829003601f168201915b505050505081565b603354600160a060020a031633146110d25760405160e560020a62461bcd02815260040161088b90612116565b60aa8054600160a060020a031916600160a060020a0392909216919091179055565b603354600160a060020a031633146111215760405160e560020a62461bcd02815260040161088b90612116565b81816000818110611134576111346122ee565b90506020020160208101906111499190611fb4565b609f8054600160a060020a031916600160a060020a03929092169190911790558181600181811061117c5761117c6122ee565b90506020020160208101906111919190611fb4565b60a08054600160a060020a031916600160a060020a03929092169190911790555050565b603354600160a060020a031633146111e25760405160e560020a62461bcd02815260040161088b90612116565b60a98054600160a060020a031916600160a060020a0392909216919091179055565b603354600160a060020a031633146112315760405160e560020a62461bcd02815260040161088b90612116565b61123b600061188c565b565b603354600160a060020a0316331461126a5760405160e560020a62461bcd02815260040161088b90612116565b60978054600160a060020a03948516600160a060020a031991821617909155609892909255609a8054919093169116179055565b603354600160a060020a031633146112cb5760405160e560020a62461bcd02815260040161088b90612116565b6000828152609c60209081526040808320805461ffff90951661ffff1990951685179055928252609d90522055565b603354600160a060020a031633146113275760405160e560020a62461bcd02815260040161088b90612116565b60009182526099602052604090912061ffff9091169055565b603354600160a060020a0316331461136d5760405160e560020a62461bcd02815260040161088b90612116565b60a88054600160a060020a031916600160a060020a0392909216919091179055565b60ab818154811061090257600080fd5b603354600160a060020a031633146113cc5760405160e560020a62461bcd02815260040161088b90612116565b818160008181106113df576113df6122ee565b602002919091013560a55550818160018181106113fe576113fe6122ee565b602002919091013560a655505050565b603354600160a060020a0316331461143b5760405160e560020a62461bcd02815260040161088b90612116565b600160a060020a0381166114ba5760405160e560020a62461bcd02815260206004820152602660248201527f4f776e61626c653a206e6577206f776e657220697320746865207a65726f206160448201527f6464726573730000000000000000000000000000000000000000000000000000606482015260840161088b565b6114c38161188c565b50565b8154600160a060020a031681526001909101906020018083116114c6575050505050815260200160ac80548060200260200160405190810160405280929190818152602001828054801561154357602002820191906000526020600020905b8154600160a060020a03168152600190910190602001808311611525575b5050509190925250506040805160e081018252609f54600160a060020a03908116825260a08054821660208085019190915260a85483168486015260a9548316606085015260af548316608085015260ad549092169083015260ab8054845181840281018401909552808552929360c085019390928301828280156115f157602002820191906000526020600020905b8154600160a060020a031681526001909101906020018083116115d3575b50505050508152506040518763ffffffff1660e060020a02815260040161161d969594939291906123b9565b600060405180830381600087803b15801561163757600080fd5b505af115801561164b573d6000803e3d6000fd5b505050508284867f4bda9eedb6fd5c584b11e8c64fc79bbe5c7faf6da945a3c7e0de361b6ee5a1bd60405160405180910390a4811561096757610967826119c2565b604051600160a060020a03808516602483015283166044820152606481018290526108ec9085907f23b872dd00000000000000000000000000000000000000000000000000000000906084015b60408051601f198184030181529190526020810180517bffffffffffffffffffffffffffffffffffffffffffffffffffffffff167fffffffff0000000000000000000000000000000000000000000000000000000090931692909217909152611a3f565b60b05460405181907f18bd4bd6372d39482d375f68791749755bdb38e8768acbfb6af999cef1adc6e090600090a2600060b05590565b6097546020820151609f5461179792600160a060020a03918216929116906118de565b6117bb60405180606001604052806000815260200160008152602001606081525090565b60975482516000908152609c602090815260408083205460985487518552609984529190932054918601516080870151600160a060020a0390951694639fbf10fc94349461ffff909116939290913391906103e89061181a90836124d8565b61182491906124f7565b898b604001518c606001516040518b63ffffffff1660e060020a0281526004016118569998979695949392919061251c565b6000604051808303818588803b15801561186f57600080fd5b505af1158015611883573d6000803e3d6000fd5b50505050505050565b60338054600160a060020a03838116600160a060020a0319831681179093556040519116919082907f8be0079c531659141344cd1fd0a4f28419497f9722a3daafe3b4186f6b6457e090600090a35050565b6040517fdd62ed3e000000000000000000000000000000000000000000000000000000008152306004820152600160a060020a038381166024830152600091839186169063dd62ed3e90604401602060405180830381865afa158015611948573d6000803e3d6000fd5b505050506040513d601f19601f8201168201806040525081019061196c91906121dc565b61197691906121c4565b604051600160a060020a0385166024820152604481018290529091506108ec9085907f095ea7b300000000000000000000000000000000000000000000000000000000906064016116da565b60a05460a9546040517f40c10f19000000000000000000000000000000000000000000000000000000008152600160a060020a039182166004820152602481018490529116906340c10f1990604401600060405180830381600087803b158015611a2b57600080fd5b505af1158015610967573d6000803e3d6000fd5b6000611a94826040518060400160405280602081526020017f5361666545524332303a206c6f772d6c6576656c2063616c6c206661696c656481525085600160a060020a0316611b2c9092919063ffffffff16565b805190915015611b275780806020019051810190611ab291906125bb565b611b275760405160e560020a62461bcd02815260206004820152602a60248201527f5361666545524332303a204552433230206f7065726174696f6e20646964206e60448201527f6f74207375636365656400000000000000000000000000000000000000000000606482015260840161088b565b505050565b6060611b3b8484600085611b45565b90505b9392505050565b60603031831115611bc15760405160e560020a62461bcd02815260206004820152602660248201527f416464726573733a20696e73756666696369656e742062616c616e636520666f60448201527f722063616c6c0000000000000000000000000000000000000000000000000000606482015260840161088b565b600160a060020a0385163b611c1b5760405160e560020a62461bcd02815260206004820152601d60248201527f416464726573733a2063616c6c20746f206e6f6e2d636f6e7472616374000000604482015260640161088b565b60008086600160a060020a03168587604051611c3791906125dd565b60006040518083038185875af1925050503d8060008114611c74576040519150601f19603f3d011682016040523d82523d6000602084013e611c79565b606091505b5091509150611c89828286611c94565b979650505050505050565b60608315611ca3575081611b3e565b825115611cb35782518084602001fd5b8160405160e560020a62461bcd02815260040161088b9190612095565b828054611cdc906122b0565b90600052602060002090601f016020900481019282611cfe5760008555611d44565b82601f10611d175782800160ff19823516178555611d44565b82800160010185558215611d44579182015b82811115611d44578235825591602001919060010190611d29565b50611d50929150611da7565b5090565b828054828255906000526020600020908101928215611d44579160200282015b82811115611d44578154600160a060020a031916600160a060020a03843516178255602090920191600190910190611d74565b5b80821115611d505760008155600101611da8565b60008060408385031215611dcf57600080fd5b50508035926020909101359150565b600080600060408486031215611df357600080fd5b83359250602084013567ffffffffffffffff80821115611e1257600080fd5b818601915086601f830112611e2657600080fd5b813581811115611e3557600080fd5b876020828501011115611e4757600080fd5b6020830194508093505050509250925092565b600060208284031215611e6c57600080fd5b5035919050565b600080600080600060a08688031215611e8b57600080fd5b505083359560208501359550604085013594606081013594506080013592509050565b803561ffff81168114611ec057600080fd5b919050565b600060208284031215611ed757600080fd5b611b3e82611eae565b60008060008060808587031215611ef657600080fd5b5050823594602084013594506040840135936060013592509050565b60008083601f840112611f2457600080fd5b50813567ffffffffffffffff811115611f3c57600080fd5b6020830191508360208083028501011115611f5657600080fd5b9250929050565b60008060208385031215611f7057600080fd5b823567ffffffffffffffff811115611f8757600080fd5b611f9385828601611f12565b90969095509350505050565b600160a060020a03811681146114c357600080fd5b600060208284031215611fc657600080fd5b8135611b3e81611f9f565b60008060008060408587031215611fe757600080fd5b843567ffffffffffffffff80821115611fff57600080fd5b61200b88838901611f12565b9096509450602087013591508082111561202457600080fd5b5061203187828801611f12565b95989497509550505050565b60005b83811015612058578181015183820152602001612040565b838111156108ec5750506000910152565b6000815180845261208181602086016020860161203d565b601f01601f19169290920160200192915050565b602081526000611b3e6020830184612069565b6000806000606084860312156120bd57600080fd5b83356120c881611f9f565b92506020840135915060408401356120df81611f9f565b809150509250925092565b600080604083850312156120fd57600080fd5b8235915061210d60208401611eae565b90509250929050565b6020808252818101527f4f776e61626c653a2063616c6c6572206973206e6f7420746865206f776e6572604082015260600190565b60008060008060008060c0878903121561216457600080fd5b865161216f81611f9f565b809650506020870151945060408701519350606087015192506080870151915060a087015161219d81611f9f565b809150509295509295509295565b60e060020a634e487b7102600052601160045260246000fd5b600082198211156121d7576121d76121ab565b500190565b6000602082840312156121ee57600080fd5b5051919050565b60e060020a634e487b7102600052604160045260246000fd5b60006020828403121561222057600080fd5b815167ffffffffffffffff8082111561223857600080fd5b818401915084601f83011261224c57600080fd5b81518181111561225e5761225e6121f5565b604051601f8201601f19908116603f01168101908382118183101715612286576122866121f5565b8160405282815287602084870101111561229f57600080fd5b611c8983602083016020880161203d565b6002810460018216806122c457607f821691505b602082108114156122e85760e060020a634e487b7102600052602260045260246000fd5b50919050565b60e060020a634e487b7102600052603260045260246000fd5b600081518084526020808501945080840160005b83811015612340578151600160a060020a03168752958201959082019060010161231b565b509495945050505050565b6000600160a060020a038083511684528060208401511660208501528060408401511660408501528060608401511660608501528060808401511660808501528060a08401511660a08501525060c082015160e060c08501526123b160e0850182612307565b949350505050565b600160a060020a038716815285602082015284604082015283606082015260c060808201526123f460c082018451600160a060020a03169052565b6000602084015161241060e0840182600160a060020a03169052565b50604084015161010061242d81850183600160a060020a03169052565b6060860151915061012061244b81860184600160a060020a03169052565b6080870151600160a060020a0390811661014087015260a0880151811661016087015260c08801511661018086015260e08701516101a086019190915291506124986101e0850183612307565b9086015184820360bf19016101c08601529091506124b68282612307565b91505082810360a08401526124cb818561234b565b9998505050505050505050565b60008160001904831182151516156124f2576124f26121ab565b500290565b6000826125175760e060020a634e487b7102600052601260045260246000fd5b500490565b600061012061ffff8c1683528a6020840152896040840152600160a060020a03891660608401528760808401528660a08401528060c084015285518184015250602085015161014083015260408501516060610160840152612582610180840182612069565b905082810360e08401526125968186612069565b90508281036101008401526125ab8185612069565b9c9b505050505050505050505050565b6000602082840312156125cd57600080fd5b81518015158114611b3e57600080fd5b600082516125ef81846020870161203d565b919091019291505056fea264697066735822122031862b29af3452b672a2aef959646e47a37190d680f0355bf9a65062f81ef27f64736f6c634300080a0033",
  "immutableReferences": {},
  "source": "// SPDX-License-Identifier: MIT\n\npragma solidity ^0.8.0;\n\nimport \"@openzeppelin/contracts-upgradeable/token/ERC20/ERC20Upgradeable.sol\";\n\nimport \"./_ZorroControllerXChainBase.sol\";\n\nimport \"../interfaces/IZorroControllerXChain.sol\";\n\nimport \"../interfaces/IAMMRouter02.sol\";\n\nimport \"../interfaces/IZorro.sol\";\n\nimport \"../libraries/PriceFeed.sol\";\n\nimport \"../libraries/SafeSwap.sol\";\n\nimport \"./actions/ZorroControllerXChainActions.sol\";\n\ncontract ZorroControllerXChainEarn is\n    IZorroControllerXChainEarn,\n    ZorroControllerXChainBase\n{\n    /* Libraries */\n\n    using SafeERC20Upgradeable for IERC20Upgradeable;\n    using PriceFeed for AggregatorV3Interface;\n\n    /* Modifiers */\n\n    /// @notice Only can be called from a registered vault\n    /// @param _pid The pool ID\n    modifier onlyRegisteredVault(uint256 _pid) {\n        (, , , , , address _vault) = ZorroControllerInvestment(\n            currentChainController\n        ).poolInfo(_pid);\n        require(_msgSender() == _vault, \"only reg vault\");\n        _;\n    }\n\n    /// @notice Only can be called on home chain\n    modifier onlyHomeChain() {\n        require(chainId == homeChainId, \"only home chain\");\n        _;\n    }\n\n    /* State */\n\n    // Tokens\n    address public zorroLPPoolOtherToken;\n    // Contracts\n    address public zorroStakingVault;\n    address public uniRouterAddress;\n    // Paths\n    address[] public stablecoinToZorroPath;\n    address[] public stablecoinToZorroLPPoolOtherTokenPath;\n    // Price feeds\n    AggregatorV3Interface public priceFeedZOR;\n    AggregatorV3Interface public priceFeedLPPoolOtherToken;\n    AggregatorV3Interface public priceFeedStablecoin;\n    // Rewards\n    uint256 public accumulatedSlashedRewards; // Accumulated ZOR rewards that need to be minted in batch on the home chain. Should reset to zero periodically\n\n    /* Setters */\n\n    function setZorroLPPoolOtherToken(address _token) external onlyOwner {\n        zorroLPPoolOtherToken = _token;\n    }\n\n    function setZorroStakingVault(address _contract) external onlyOwner {\n        zorroStakingVault = _contract;\n    }\n\n    function setUniRouterAddress(address _contract) external onlyOwner {\n        uniRouterAddress = _contract;\n    }\n\n    function setSwapPaths(\n        address[] calldata _stablecoinToZorroPath,\n        address[] calldata _stablecoinToZorroLPPoolOtherTokenPath\n    ) external onlyOwner {\n        stablecoinToZorroPath = _stablecoinToZorroPath;\n        stablecoinToZorroLPPoolOtherTokenPath = _stablecoinToZorroLPPoolOtherTokenPath;\n    }\n\n    function setPriceFeeds(address[] calldata _priceFeeds) external onlyOwner {\n        priceFeedZOR = AggregatorV3Interface(_priceFeeds[0]);\n        priceFeedLPPoolOtherToken = AggregatorV3Interface(_priceFeeds[1]);\n        priceFeedStablecoin = AggregatorV3Interface(_priceFeeds[2]);\n    }\n\n    /* Sending */\n\n    /// @notice Sends a request back to the home chain to distribute earnings\n    /// @param _pid Pool ID\n    /// @param _buybackAmountUSD Amount in USD to buy back\n    /// @param _revShareAmountUSD Amount in USD to revshare w/ ZOR single staking vault\n    /// @param _maxMarketMovement Acceptable slippage (950 = 5%, 990 = 1% etc.)\n    function sendXChainDistributeEarningsRequest(\n        uint256 _pid,\n        uint256 _buybackAmountUSD,\n        uint256 _revShareAmountUSD,\n        uint256 _maxMarketMovement\n    ) public payable nonReentrant onlyRegisteredVault(_pid) {\n        // Require funds to be submitted with this message\n        require(msg.value > 0, \"No fees submitted\");\n\n        // Calculate total USD to transfer\n        uint256 _totalUSD = _buybackAmountUSD + _revShareAmountUSD;\n\n        // Transfer USD into this contract\n        IERC20Upgradeable(defaultStablecoin).safeTransferFrom(\n            msg.sender,\n            address(this),\n            _totalUSD\n        );\n\n        // Check balances\n        uint256 _balUSD = IERC20Upgradeable(defaultStablecoin).balanceOf(\n            address(this)\n        );\n\n        // Get accumulated ZOR rewards and set value\n        uint256 _slashedRewards = _removeSlashedRewards();\n\n        // Generate payload\n        bytes memory _payload = ZorroControllerXChainActions(controllerActions)\n            .encodeXChainDistributeEarningsPayload(\n                chainId,\n                _buybackAmountUSD,\n                _revShareAmountUSD,\n                _slashedRewards,\n                _maxMarketMovement\n            );\n\n        // Get the destination contract address on the remote chain\n        bytes memory _dstContract = controllerContractsMap[chainId];\n\n        // Call stargate to initiate bridge\n        _callStargateSwap(\n            StargateSwapPayload({\n                chainId: homeChainId,\n                qty: _balUSD,\n                dstContract: _dstContract,\n                payload: _payload,\n                maxMarketMovement: _maxMarketMovement\n            })\n        );\n    }\n\n    /* Receiving */\n\n    /// @notice Dummy func to allow .selector call above and guarantee typesafety for abi calls.\n    /// @dev Should never ever be actually called.\n    function receiveXChainDistributionRequest(\n        uint256 _remoteChainId,\n        uint256 _amountUSDBuyback,\n        uint256 _amountUSDRevShare,\n        uint256 _accSlashedRewards,\n        uint256 _maxMarketMovement\n    ) public {\n        // Revert to make sure this function never gets called\n        require(false, \"illegal dummy func call\");\n\n        // But still include the function call here anyway to satisfy type safety requirements in case there is a change\n        _receiveXChainDistributionRequest(\n            _remoteChainId,\n            _amountUSDBuyback,\n            _amountUSDRevShare,\n            _accSlashedRewards,\n            _maxMarketMovement\n        );\n    }\n\n    /* Fees */\n\n    /// @notice Receives an authorized request from remote chains to perform earnings fee distribution events, such as: buyback + LP + burn, and revenue share\n    /// @param _remoteChainId The Zorro chain ID of the chain that this request originated from\n    /// @param _amountUSDBuyback The amount in USD that should be minted for LP + burn\n    /// @param _amountUSDRevShare The amount in USD that should be minted for revenue sharing with ZOR stakers\n    /// @param _accSlashedRewards Accumulated slashed rewards on chain\n    /// @param _maxMarketMovement factor to account for max market movement/slippage.\n    function _receiveXChainDistributionRequest(\n        uint256 _remoteChainId,\n        uint256 _amountUSDBuyback,\n        uint256 _amountUSDRevShare,\n        uint256 _accSlashedRewards,\n        uint256 _maxMarketMovement\n    ) internal virtual onlyHomeChain {\n        // Approve spending\n        IERC20Upgradeable(defaultStablecoin).safeIncreaseAllowance(controllerActions, _amountUSDBuyback + _amountUSDRevShare);\n        \n        // Perform distribution\n        IZorroControllerXChainActions(controllerActions).distributeEarnings(\n            defaultStablecoin,\n            _amountUSDBuyback,\n            _amountUSDRevShare,\n            _maxMarketMovement,\n            IZorroControllerXChainActions.EarningsBuybackParams({\n                stablecoin: defaultStablecoin,\n                ZORRO: ZORRO,\n                zorroLPPoolOtherToken: zorroLPPoolOtherToken,\n                burnAddress: burnAddress,\n                priceFeedStablecoin: priceFeedStablecoin,\n                priceFeedZOR: priceFeedZOR, \n                priceFeedLPPoolOtherToken: priceFeedLPPoolOtherToken, \n                stablecoinToZorroPath: stablecoinToZorroPath, \n                stablecoinToZorroLPPoolOtherTokenPath: stablecoinToZorroLPPoolOtherTokenPath\n            }),\n            IZorroControllerXChainActions.EarningsRevshareParams({\n                stablecoin: defaultStablecoin,\n                ZORRO: ZORRO,\n                zorroLPPoolOtherToken: zorroLPPoolOtherToken, \n                zorroStakingVault: zorroStakingVault,\n                priceFeedStablecoin: priceFeedStablecoin, \n                priceFeedZOR: priceFeedZOR,\n                stablecoinToZorroPath: stablecoinToZorroPath \n            })\n        );\n\n        // Emit event\n        emit XChainDistributeEarnings(\n            _remoteChainId,\n            _amountUSDBuyback,\n            _amountUSDRevShare\n        );\n\n        // Award slashed rewards to ZOR stakers\n        if (_accSlashedRewards > 0) {\n            _awardSlashedRewardsToStakers(_accSlashedRewards);\n        }\n    }\n\n\n    /* Slashed rewards */\n\n    /// @notice Called by oracle to remove slashed ZOR rewards and reset\n    /// @return _slashedZORRewards The amount of accumulated slashed ZOR rewards\n    function _removeSlashedRewards()\n        internal\n        returns (uint256 _slashedZORRewards)\n    {\n        // Store current rewards amount\n        _slashedZORRewards = accumulatedSlashedRewards;\n\n        // Emit success event\n        emit RemovedSlashedRewards(_slashedZORRewards);\n\n        // Reset accumulated rewards\n        accumulatedSlashedRewards = 0;\n    }\n\n    /// @notice Awards the slashed ZOR rewards from other chains to this (home) chain's ZOR staking vault\n    /// @param _slashedZORRewards The amount of accumulated slashed ZOR rewards\n    function _awardSlashedRewardsToStakers(uint256 _slashedZORRewards)\n        internal\n    {\n        // Mint ZOR and send to ZOR staking vault.\n        IZorro(ZORRO).mint(zorroStakingVault, _slashedZORRewards);\n    }\n}\n",
  "sourcePath": "/Users/kristophm/Documents/workspace/zorro-protocol/contracts/controllers/_ZorroControllerXChainEarn.sol",
  "compiler": {
    "name": "solc",
    "version": "0.8.10+commit.fc410830.Emscripten.clang"
  },
  "schemaVersion": "3.4.10",
  "updatedAt": "2022-12-12T21:56:16.247Z",
  "devdoc": {
    "kind": "dev",
    "methods": {
      "owner()": {
        "details": "Returns the address of the current owner."
      },
      "receiveXChainDistributionRequest(uint256,uint256,uint256,uint256,uint256)": {
        "details": "Should never ever be actually called."
      },
      "renounceOwnership()": {
        "details": "Leaves the contract without owner. It will not be possible to call `onlyOwner` functions anymore. Can only be called by the current owner. NOTE: Renouncing ownership will leave the contract without an owner, thereby removing any functionality that is only available to the owner."
      },
      "sendXChainDistributeEarningsRequest(uint256,uint256,uint256,uint256)": {
        "params": {
          "_buybackAmountUSD": "Amount in USD to buy back",
          "_maxMarketMovement": "Acceptable slippage (950 = 5%, 990 = 1% etc.)",
          "_pid": "Pool ID",
          "_revShareAmountUSD": "Amount in USD to revshare w/ ZOR single staking vault"
        }
      },
      "setControllerContract(uint256,bytes)": {
        "params": {
          "_controller": "Bytes representation of smart contract address for cross chain contract",
          "_zorroChainId": "Zorro Chain ID"
        }
      },
      "setStargateDestPoolIds(uint256,uint16)": {
        "params": {
          "_stargatePoolId": "Stargate pool ID",
          "_zorroChainId": "Zorro chain ID"
        }
      },
      "setZorroChainToLZMap(uint256,uint16)": {
        "params": {
          "_lzChainId": "LayerZero Chain ID",
          "_zorroChainId": "Zorro chain ID"
        }
      },
      "transferOwnership(address)": {
        "details": "Transfers ownership of the contract to a new account (`newOwner`). Can only be called by the current owner."
      }
    },
    "version": 1
  },
  "userdoc": {
    "kind": "user",
    "methods": {
      "receiveXChainDistributionRequest(uint256,uint256,uint256,uint256,uint256)": {
        "notice": "Dummy func to allow .selector call above and guarantee typesafety for abi calls."
      },
      "sendXChainDistributeEarningsRequest(uint256,uint256,uint256,uint256)": {
        "notice": "Sends a request back to the home chain to distribute earnings"
      },
      "setControllerContract(uint256,bytes)": {
        "notice": "Setter: Controller contract for each chain"
      },
      "setLayerZeroParams(address,uint256,address)": {
        "notice": "Setter: Set main LZ params"
      },
      "setStargateDestPoolIds(uint256,uint16)": {
        "notice": "Setter: Stargate dest pool IDs for USD asset"
      },
      "setZorroChainToLZMap(uint256,uint16)": {
        "notice": "Setter: LZ/Stargate params"
      }
    },
    "version": 1
  }
}