{
  "contractName": "ZorroControllerXChainDeposit",
  "abi": [
    {
      "anonymous": false,
      "inputs": [
        {
          "indexed": true,
          "internalType": "address",
          "name": "previousOwner",
          "type": "address"
        },
        {
          "indexed": true,
          "internalType": "address",
          "name": "newOwner",
          "type": "address"
        }
      ],
      "name": "OwnershipTransferred",
      "type": "event"
    },
    {
      "inputs": [
        {
          "internalType": "uint16",
          "name": "",
          "type": "uint16"
        }
      ],
      "name": "LZChainToZorroMap",
      "outputs": [
        {
          "internalType": "uint256",
          "name": "",
          "type": "uint256"
        }
      ],
      "stateMutability": "view",
      "type": "function"
    },
    {
      "inputs": [],
      "name": "ZORRO",
      "outputs": [
        {
          "internalType": "address",
          "name": "",
          "type": "address"
        }
      ],
      "stateMutability": "view",
      "type": "function"
    },
    {
      "inputs": [
        {
          "internalType": "uint256",
          "name": "",
          "type": "uint256"
        }
      ],
      "name": "ZorroChainToLZMap",
      "outputs": [
        {
          "internalType": "uint16",
          "name": "",
          "type": "uint16"
        }
      ],
      "stateMutability": "view",
      "type": "function"
    },
    {
      "inputs": [],
      "name": "chainId",
      "outputs": [
        {
          "internalType": "uint256",
          "name": "",
          "type": "uint256"
        }
      ],
      "stateMutability": "view",
      "type": "function"
    },
    {
      "inputs": [
        {
          "internalType": "uint256",
          "name": "",
          "type": "uint256"
        }
      ],
      "name": "chainTypes",
      "outputs": [
        {
          "internalType": "uint256",
          "name": "",
          "type": "uint256"
        }
      ],
      "stateMutability": "view",
      "type": "function"
    },
    {
      "inputs": [
        {
          "internalType": "uint256",
          "name": "",
          "type": "uint256"
        }
      ],
      "name": "controllerContractsMap",
      "outputs": [
        {
          "internalType": "bytes",
          "name": "",
          "type": "bytes"
        }
      ],
      "stateMutability": "view",
      "type": "function"
    },
    {
      "inputs": [],
      "name": "currentChainController",
      "outputs": [
        {
          "internalType": "address",
          "name": "",
          "type": "address"
        }
      ],
      "stateMutability": "view",
      "type": "function"
    },
    {
      "inputs": [],
      "name": "defaultStablecoin",
      "outputs": [
        {
          "internalType": "address",
          "name": "",
          "type": "address"
        }
      ],
      "stateMutability": "view",
      "type": "function"
    },
    {
      "inputs": [],
      "name": "homeChainId",
      "outputs": [
        {
          "internalType": "uint256",
          "name": "",
          "type": "uint256"
        }
      ],
      "stateMutability": "view",
      "type": "function"
    },
    {
      "inputs": [],
      "name": "homeChainZorroController",
      "outputs": [
        {
          "internalType": "address",
          "name": "",
          "type": "address"
        }
      ],
      "stateMutability": "view",
      "type": "function"
    },
    {
      "inputs": [],
      "name": "layerZeroEndpoint",
      "outputs": [
        {
          "internalType": "address",
          "name": "",
          "type": "address"
        }
      ],
      "stateMutability": "view",
      "type": "function"
    },
    {
      "inputs": [],
      "name": "owner",
      "outputs": [
        {
          "internalType": "address",
          "name": "",
          "type": "address"
        }
      ],
      "stateMutability": "view",
      "type": "function"
    },
    {
      "inputs": [],
      "name": "publicPool",
      "outputs": [
        {
          "internalType": "address",
          "name": "",
          "type": "address"
        }
      ],
      "stateMutability": "view",
      "type": "function"
    },
    {
      "inputs": [],
      "name": "renounceOwnership",
      "outputs": [],
      "stateMutability": "nonpayable",
      "type": "function"
    },
    {
      "inputs": [
        {
          "internalType": "uint256",
          "name": "_zorroChainId",
          "type": "uint256"
        },
        {
          "internalType": "uint256",
          "name": "_chainType",
          "type": "uint256"
        }
      ],
      "name": "setChainType",
      "outputs": [],
      "stateMutability": "nonpayable",
      "type": "function"
    },
    {
      "inputs": [
        {
          "internalType": "uint256[]",
          "name": "_chainIds",
          "type": "uint256[]"
        }
      ],
      "name": "setChains",
      "outputs": [],
      "stateMutability": "nonpayable",
      "type": "function"
    },
    {
      "inputs": [
        {
          "internalType": "uint256",
          "name": "_zorroChainId",
          "type": "uint256"
        },
        {
          "internalType": "bytes",
          "name": "_controller",
          "type": "bytes"
        }
      ],
      "name": "setControllerContract",
      "outputs": [],
      "stateMutability": "nonpayable",
      "type": "function"
    },
    {
      "inputs": [
        {
          "internalType": "address[]",
          "name": "_contracts",
          "type": "address[]"
        }
      ],
      "name": "setKeyContracts",
      "outputs": [],
      "stateMutability": "nonpayable",
      "type": "function"
    },
    {
      "inputs": [
        {
          "internalType": "address",
          "name": "_stargateRouter",
          "type": "address"
        },
        {
          "internalType": "uint256",
          "name": "_stargateSwapPoolId",
          "type": "uint256"
        },
        {
          "internalType": "address",
          "name": "_layerZeroEndpoint",
          "type": "address"
        }
      ],
      "name": "setLayerZeroParams",
      "outputs": [],
      "stateMutability": "nonpayable",
      "type": "function"
    },
    {
      "inputs": [
        {
          "internalType": "uint256",
          "name": "_zorroChainId",
          "type": "uint256"
        },
        {
          "internalType": "uint16",
          "name": "_stargatePoolId",
          "type": "uint16"
        }
      ],
      "name": "setStargateDestPoolIds",
      "outputs": [],
      "stateMutability": "nonpayable",
      "type": "function"
    },
    {
      "inputs": [
        {
          "internalType": "address[]",
          "name": "_tokens",
          "type": "address[]"
        }
      ],
      "name": "setTokens",
      "outputs": [],
      "stateMutability": "nonpayable",
      "type": "function"
    },
    {
      "inputs": [
        {
          "internalType": "uint256",
          "name": "_zorroChainId",
          "type": "uint256"
        },
        {
          "internalType": "uint16",
          "name": "_lzChainId",
          "type": "uint16"
        }
      ],
      "name": "setZorroChainToLZMap",
      "outputs": [],
      "stateMutability": "nonpayable",
      "type": "function"
    },
    {
      "inputs": [
        {
          "internalType": "uint256",
          "name": "",
          "type": "uint256"
        }
      ],
      "name": "stargateDestPoolIds",
      "outputs": [
        {
          "internalType": "uint256",
          "name": "",
          "type": "uint256"
        }
      ],
      "stateMutability": "view",
      "type": "function"
    },
    {
      "inputs": [],
      "name": "stargateRouter",
      "outputs": [
        {
          "internalType": "address",
          "name": "",
          "type": "address"
        }
      ],
      "stateMutability": "view",
      "type": "function"
    },
    {
      "inputs": [],
      "name": "stargateSwapPoolId",
      "outputs": [
        {
          "internalType": "uint256",
          "name": "",
          "type": "uint256"
        }
      ],
      "stateMutability": "view",
      "type": "function"
    },
    {
      "inputs": [
        {
          "internalType": "address",
          "name": "newOwner",
          "type": "address"
        }
      ],
      "name": "transferOwnership",
      "outputs": [],
      "stateMutability": "nonpayable",
      "type": "function"
    },
    {
      "inputs": [
        {
          "internalType": "uint256",
          "name": "_chainId",
          "type": "uint256"
        },
        {
          "internalType": "bytes",
          "name": "_dstContract",
          "type": "bytes"
        },
        {
          "internalType": "uint256",
          "name": "_pid",
          "type": "uint256"
        },
        {
          "internalType": "uint256",
          "name": "_valueUSDC",
          "type": "uint256"
        },
        {
          "internalType": "uint256",
          "name": "_weeksCommitted",
          "type": "uint256"
        },
        {
          "internalType": "uint256",
          "name": "_maxMarketMovement",
          "type": "uint256"
        },
        {
          "internalType": "bytes",
          "name": "_destWallet",
          "type": "bytes"
        }
      ],
      "name": "checkXChainDepositFee",
      "outputs": [
        {
          "internalType": "uint256",
          "name": "",
          "type": "uint256"
        }
      ],
      "stateMutability": "view",
      "type": "function"
    },
    {
      "inputs": [
        {
          "internalType": "uint256",
          "name": "_zorroChainId",
          "type": "uint256"
        },
        {
          "internalType": "uint256",
          "name": "_pid",
          "type": "uint256"
        },
        {
          "internalType": "uint256",
          "name": "_valueUSDC",
          "type": "uint256"
        },
        {
          "internalType": "uint256",
          "name": "_weeksCommitted",
          "type": "uint256"
        },
        {
          "internalType": "uint256",
          "name": "_maxMarketMovement",
          "type": "uint256"
        },
        {
          "internalType": "bytes",
          "name": "_destWallet",
          "type": "bytes"
        }
      ],
      "name": "sendXChainDepositRequest",
      "outputs": [],
      "stateMutability": "payable",
      "type": "function"
    },
    {
      "inputs": [
        {
          "internalType": "uint256",
          "name": "_pid",
          "type": "uint256"
        },
        {
          "internalType": "uint256",
          "name": "_valueUSDC",
          "type": "uint256"
        },
        {
          "internalType": "uint256",
          "name": "_weeksCommitted",
          "type": "uint256"
        },
        {
          "internalType": "uint256",
          "name": "_maxMarketMovement",
          "type": "uint256"
        },
        {
          "internalType": "bytes",
          "name": "_originAccount",
          "type": "bytes"
        },
        {
          "internalType": "address",
          "name": "_destAccount",
          "type": "address"
        }
      ],
      "name": "receiveXChainDepositRequest",
      "outputs": [],
      "stateMutability": "nonpayable",
      "type": "function"
    }
  ],
  "bytecode": "0x608060405234801561001057600080fd5b50611c29806100206000396000f3fe6080604052600436106101c25760003560e01c80637bd45522116100f7578063a2df085c11610095578063cd01af4811610064578063cd01af481461053e578063ef1269671461055e578063f2fde38b14610574578063fc39a29e1461059457600080fd5b8063a2df085c146104cb578063a9e56f3c146104de578063b61bb80a146104fe578063c9f363c41461051e57600080fd5b80638c157db2116100d15780638c157db21461044a5780638d6ffd6a1461046a5780638da5cb5b146104975780639a8a0592146104b557600080fd5b80637bd45522146103ea5780637f633ea81461040a5780638b5694d61461042a57600080fd5b80634bf7617411610164578063625adaf21161013e578063625adaf214610375578063668ababb14610395578063692d8b8b146103b5578063715018a6146103d557600080fd5b80634bf76174146103125780635790f59914610332578063593af9fe1461034857600080fd5b806315230ae6116101a057806315230ae614610246578063219b38b814610266578063293da9d4146102a1578063459f4753146102ce57600080fd5b806307968db1146101c75780630a34e1a41461020457806313a2e88014610226575b600080fd5b3480156101d357600080fd5b50609a546101e7906001600160a01b031681565b6040516001600160a01b0390911681526020015b60405180910390f35b34801561021057600080fd5b5061022461021f36600461147c565b6105b4565b005b34801561023257600080fd5b5061022461024136600461149e565b6105f9565b34801561025257600080fd5b5060a2546101e7906001600160a01b031681565b34801561027257600080fd5b5061029361028136600461151a565b60996020526000908152604090205481565b6040519081526020016101fb565b3480156102ad57600080fd5b506102936102bc36600461154a565b609d6020526000908152604090205481565b3480156102da57600080fd5b506102ff6102e936600461151a565b609c6020526000908152604090205461ffff1681565b60405161ffff90911681526020016101fb565b34801561031e57600080fd5b5061022461032d3660046115b1565b610642565b34801561033e57600080fd5b5061029360985481565b34801561035457600080fd5b5061036861036336600461151a565b610748565b6040516101fb919061164b565b34801561038157600080fd5b506102246103903660046115b1565b6107e2565b3480156103a157600080fd5b5060a3546101e7906001600160a01b031681565b3480156103c157600080fd5b506102246103d0366004611718565b6108a0565b3480156103e157600080fd5b506102246108e8565b3480156103f657600080fd5b5061022461040536600461178b565b61091e565b34801561041657600080fd5b506102246104253660046117c7565b61097c565b34801561043657600080fd5b506102246104453660046117c7565b6109d5565b34801561045657600080fd5b5060a0546101e7906001600160a01b031681565b34801561047657600080fd5b5061029361048536600461151a565b609e6020526000908152604090205481565b3480156104a357600080fd5b506033546001600160a01b03166101e7565b3480156104c157600080fd5b5061029360a45481565b6102246104d93660046117f3565b610a18565b3480156104ea57600080fd5b506097546101e7906001600160a01b031681565b34801561050a57600080fd5b50609f546101e7906001600160a01b031681565b34801561052a57600080fd5b5061029361053936600461185f565b610c26565b34801561054a57600080fd5b506102246105593660046115b1565b610cf6565b34801561056a57600080fd5b5061029360a55481565b34801561058057600080fd5b5061022461058f3660046118f3565b610d62565b3480156105a057600080fd5b5060a1546101e7906001600160a01b031681565b6033546001600160a01b031633146105e75760405162461bcd60e51b81526004016105de9061190e565b60405180910390fd5b6000918252609e602052604090912055565b6033546001600160a01b031633146106235760405162461bcd60e51b81526004016105de9061190e565b6000838152609b6020526040902061063c9083836113e3565b50505050565b6033546001600160a01b0316331461066c5760405162461bcd60e51b81526004016105de9061190e565b8181600081811061067f5761067f611943565b905060200201602081019061069491906118f3565b60a180546001600160a01b0319166001600160a01b0392909216919091179055818160018181106106c7576106c7611943565b90506020020160208101906106dc91906118f3565b60a280546001600160a01b0319166001600160a01b03929092169190911790558181600281811061070f5761070f611943565b905060200201602081019061072491906118f3565b60a380546001600160a01b0319166001600160a01b03929092169190911790555050565b609b602052600090815260409020805461076190611959565b80601f016020809104026020016040519081016040528092919081815260200182805461078d90611959565b80156107da5780601f106107af576101008083540402835291602001916107da565b820191906000526020600020905b8154815290600101906020018083116107bd57829003601f168201915b505050505081565b6033546001600160a01b0316331461080c5760405162461bcd60e51b81526004016105de9061190e565b8181600081811061081f5761081f611943565b905060200201602081019061083491906118f3565b609f80546001600160a01b0319166001600160a01b03929092169190911790558181600181811061086757610867611943565b905060200201602081019061087c91906118f3565b60a080546001600160a01b0319166001600160a01b03929092169190911790555050565b60405162461bcd60e51b815260206004820152601760248201527f696c6c6567616c2064756d6d792066756e632063616c6c00000000000000000060448201526064016105de565b6033546001600160a01b031633146109125760405162461bcd60e51b81526004016105de9061190e565b61091c6000610dfd565b565b6033546001600160a01b031633146109485760405162461bcd60e51b81526004016105de9061190e565b609780546001600160a01b039485166001600160a01b031991821617909155609892909255609a8054919093169116179055565b6033546001600160a01b031633146109a65760405162461bcd60e51b81526004016105de9061190e565b6000828152609c60209081526040808320805461ffff90951661ffff1990951685179055928252609d90522055565b6033546001600160a01b031633146109ff5760405162461bcd60e51b81526004016105de9061190e565b60009182526099602052604090912061ffff9091169055565b60026065541415610a6b5760405162461bcd60e51b815260206004820152601f60248201527f5265656e7472616e637947756172643a207265656e7472616e742063616c6c0060448201526064016105de565b600260655534610ab15760405162461bcd60e51b8152602060048201526011602482015270139bc81999595cc81cdd589b5a5d1d1959607a1b60448201526064016105de565b609f54610ac9906001600160a01b0316333087610e4f565b609f546040516370a0823160e01b81523060048201526000916001600160a01b0316906370a0823190602401602060405180830381865afa158015610b12573d6000803e3d6000fd5b505050506040513d601f19601f82011682018060405250810190610b369190611994565b90506000610b4988888488883389610eba565b6000898152609b6020526040812080549293509091610b6790611959565b80601f0160208091040260200160405190810160405280929190818152602001828054610b9390611959565b8015610be05780601f10610bb557610100808354040283529160200191610be0565b820191906000526020600020905b815481529060010190602001808311610bc357829003601f168201915b50505050509050610c166040518060a001604052808b815260200185815260200183815260200184815260200187815250610fb4565b5050600160655550505050505050565b6040805160608082018352600080835260208301819052928201526000610c528a89898989338a610eba565b60975460008c8152609c6020526040808220549051630a51236960e01b815293945090926001600160a01b0390921691630a51236991610ca49161ffff909116906001908f9088908a906004016119d6565b6040805180830381865afa158015610cc0573d6000803e3d6000fd5b505050506040513d601f19601f82011682018060405250810190610ce49190611a2e565b5093505050505b979650505050505050565b6033546001600160a01b03163314610d205760405162461bcd60e51b81526004016105de9061190e565b81816000818110610d3357610d33611943565b602002919091013560a4555081816001818110610d5257610d52611943565b602002919091013560a555505050565b6033546001600160a01b03163314610d8c5760405162461bcd60e51b81526004016105de9061190e565b6001600160a01b038116610df15760405162461bcd60e51b815260206004820152602660248201527f4f776e61626c653a206e6577206f776e657220697320746865207a65726f206160448201526564647265737360d01b60648201526084016105de565b610dfa81610dfd565b50565b603380546001600160a01b038381166001600160a01b0319831681179093556040519116919082907f8be0079c531659141344cd1fd0a4f28419497f9722a3daafe3b4186f6b6457e090600090a35050565b6040516001600160a01b038085166024830152831660448201526064810182905261063c9085906323b872dd60e01b906084015b60408051601f198184030181529190526020810180516001600160e01b03166001600160e01b0319909316929092179091526110ca565b6000878152609e6020526040902054606090610f6a576040516bffffffffffffffffffffffff19606085901b16602082015263692d8b8b60e01b906000908990899089908990603401604051602081830303815290604052610f1d896014015190565b604051602001610f3296959493929190611a52565b60405160208183030381529060405290508181604051602001610f56929190611a98565b604051602081830303815290604052925050505b6000815111610ceb5760405162461bcd60e51b8152602060048201526016602482015275125b9d985b1a59081e18da185a5b881c185e5b1bd85960521b60448201526064016105de565b6097546020820151609f54610fd7926001600160a01b03918216929116906111a1565b610ffb60405180606001604052806000815260200160008152602001606081525090565b60975482516000908152609c6020908152604080832054609854875185526099845291909320549186015160808701516001600160a01b0390951694639fbf10fc94349461ffff90911693929091339190611065906103e89061105f908490611253565b90611266565b898b604001518c606001516040518b63ffffffff1660e01b815260040161109499989796959493929190611ac9565b6000604051808303818588803b1580156110ad57600080fd5b505af11580156110c1573d6000803e3d6000fd5b50505050505050565b600061111f826040518060400160405280602081526020017f5361666545524332303a206c6f772d6c6576656c2063616c6c206661696c6564815250856001600160a01b03166112729092919063ffffffff16565b80519091501561119c578080602001905181019061113d9190611b46565b61119c5760405162461bcd60e51b815260206004820152602a60248201527f5361666545524332303a204552433230206f7065726174696f6e20646964206e6044820152691bdd081cdd58d8d9595960b21b60648201526084016105de565b505050565b604051636eb1769f60e11b81523060048201526001600160a01b038381166024830152600091839186169063dd62ed3e90604401602060405180830381865afa1580156111f2573d6000803e3d6000fd5b505050506040513d601f19601f820116820180604052508101906112169190611994565b6112209190611b7e565b6040516001600160a01b03851660248201526044810182905290915061063c90859063095ea7b360e01b90606401610e83565b600061125f8284611b96565b9392505050565b600061125f8284611bb5565b60606112818484600085611289565b949350505050565b6060824710156112ea5760405162461bcd60e51b815260206004820152602660248201527f416464726573733a20696e73756666696369656e742062616c616e636520666f6044820152651c8818d85b1b60d21b60648201526084016105de565b6001600160a01b0385163b6113415760405162461bcd60e51b815260206004820152601d60248201527f416464726573733a2063616c6c20746f206e6f6e2d636f6e747261637400000060448201526064016105de565b600080866001600160a01b0316858760405161135d9190611bd7565b60006040518083038185875af1925050503d806000811461139a576040519150601f19603f3d011682016040523d82523d6000602084013e61139f565b606091505b5091509150610ceb828286606083156113b957508161125f565b8251156113c95782518084602001fd5b8160405162461bcd60e51b81526004016105de919061164b565b8280546113ef90611959565b90600052602060002090601f0160209004810192826114115760008555611457565b82601f1061142a5782800160ff19823516178555611457565b82800160010185558215611457579182015b8281111561145757823582559160200191906001019061143c565b50611463929150611467565b5090565b5b808211156114635760008155600101611468565b6000806040838503121561148f57600080fd5b50508035926020909101359150565b6000806000604084860312156114b357600080fd5b83359250602084013567ffffffffffffffff808211156114d257600080fd5b818601915086601f8301126114e657600080fd5b8135818111156114f557600080fd5b87602082850101111561150757600080fd5b6020830194508093505050509250925092565b60006020828403121561152c57600080fd5b5035919050565b803561ffff8116811461154557600080fd5b919050565b60006020828403121561155c57600080fd5b61125f82611533565b60008083601f84011261157757600080fd5b50813567ffffffffffffffff81111561158f57600080fd5b6020830191508360208260051b85010111156115aa57600080fd5b9250929050565b600080602083850312156115c457600080fd5b823567ffffffffffffffff8111156115db57600080fd5b6115e785828601611565565b90969095509350505050565b60005b8381101561160e5781810151838201526020016115f6565b8381111561063c5750506000910152565b600081518084526116378160208601602086016115f3565b601f01601f19169290920160200192915050565b60208152600061125f602083018461161f565b634e487b7160e01b600052604160045260246000fd5b600082601f83011261168557600080fd5b813567ffffffffffffffff808211156116a0576116a061165e565b604051601f8301601f19908116603f011681019082821181831017156116c8576116c861165e565b816040528381528660208588010111156116e157600080fd5b836020870160208301376000602085830101528094505050505092915050565b80356001600160a01b038116811461154557600080fd5b60008060008060008060c0878903121561173157600080fd5b86359550602087013594506040870135935060608701359250608087013567ffffffffffffffff81111561176457600080fd5b61177089828a01611674565b92505061177f60a08801611701565b90509295509295509295565b6000806000606084860312156117a057600080fd5b6117a984611701565b9250602084013591506117be60408501611701565b90509250925092565b600080604083850312156117da57600080fd5b823591506117ea60208401611533565b90509250929050565b60008060008060008060c0878903121561180c57600080fd5b863595506020870135945060408701359350606087013592506080870135915060a087013567ffffffffffffffff81111561184657600080fd5b61185289828a01611674565b9150509295509295509295565b600080600080600080600060e0888a03121561187a57600080fd5b87359650602088013567ffffffffffffffff8082111561189957600080fd5b6118a58b838c01611674565b975060408a0135965060608a0135955060808a0135945060a08a0135935060c08a01359150808211156118d757600080fd5b506118e48a828b01611674565b91505092959891949750929550565b60006020828403121561190557600080fd5b61125f82611701565b6020808252818101527f4f776e61626c653a2063616c6c6572206973206e6f7420746865206f776e6572604082015260600190565b634e487b7160e01b600052603260045260246000fd5b600181811c9082168061196d57607f821691505b6020821081141561198e57634e487b7160e01b600052602260045260246000fd5b50919050565b6000602082840312156119a657600080fd5b5051919050565b80518252602081015160208301526000604082015160606040850152611281606085018261161f565b61ffff8616815260ff8516602082015260a0604082015260006119fc60a083018661161f565b8281036060840152611a0e818661161f565b90508281036080840152611a2281856119ad565b98975050505050505050565b60008060408385031215611a4157600080fd5b505080516020909101519092909150565b86815285602082015284604082015283606082015260c060808201526000611a7d60c083018561161f565b905060018060a01b03831660a0830152979650505050505050565b6001600160e01b0319831681528151600090611abb8160048501602087016115f3565b919091016004019392505050565b600061012061ffff8c1683528a602084015289604084015260018060a01b03891660608401528760808401528660a08401528060c0840152611b0d818401876119ad565b905082810360e0840152611b21818661161f565b9050828103610100840152611b36818561161f565b9c9b505050505050505050505050565b600060208284031215611b5857600080fd5b8151801515811461125f57600080fd5b634e487b7160e01b600052601160045260246000fd5b60008219821115611b9157611b91611b68565b500190565b6000816000190483118215151615611bb057611bb0611b68565b500290565b600082611bd257634e487b7160e01b600052601260045260246000fd5b500490565b60008251611be98184602087016115f3565b919091019291505056fea2646970667358221220e04f5785197aa6700e50738941fc02b65e8610953f7da7be2feba38be27f321e64736f6c634300080a0033",
  "immutableReferences": {},
  "source": "// SPDX-License-Identifier: MIT\n\npragma solidity ^0.8.0;\n\nimport \"./_ZorroControllerXChainBase.sol\";\n\nimport \"../interfaces/IZorroController.sol\";\n\nimport \"../interfaces/IZorroControllerXChain.sol\";\n\ncontract ZorroControllerXChainDeposit is\n    IZorroControllerXChainDeposit,\n    ZorroControllerXChainBase\n{\n    /* Libraries */\n    using SafeMathUpgradeable for uint256;\n    using SafeERC20Upgradeable for IERC20Upgradeable;\n\n    /* Fees */\n\n    /// @notice Checks to see how much a cross chain deposit will cost\n    /// @param _chainId The Zorro Chain ID (not the LayerZero one)\n    /// @param _dstContract The destination contract address on the remote chain\n    /// @param _pid The pool ID on the remote chain\n    /// @param _valueUSDC The amount of USDC to deposit\n    /// @param _weeksCommitted Number of weeks to commit to a vault\n    /// @param _maxMarketMovement Acceptable degree of slippage on any transaction (e.g. 950 = 5%, 990 = 1% etc.)\n    /// @param _destWallet A valid address on the remote chain that can claim ownership\n    /// @return uint256 Expected fee to pay for bridging/cross chain execution\n    function checkXChainDepositFee(\n        uint256 _chainId,\n        bytes memory _dstContract,\n        uint256 _pid,\n        uint256 _valueUSDC,\n        uint256 _weeksCommitted,\n        uint256 _maxMarketMovement,\n        bytes memory _destWallet\n    ) external view returns (uint256) {\n        // Init empty LZ object\n        IStargateRouter.lzTxObj memory _lzTxParams;\n\n        // Get payload\n        bytes memory _payload = _encodeXChainDepositPayload(\n            _chainId,\n            _pid,\n            _valueUSDC,\n            _weeksCommitted,\n            _maxMarketMovement,\n            msg.sender,\n            _destWallet\n        );\n\n        // Calculate native gas fee and ZRO token fee (Layer Zero token)\n        (uint256 _nativeFee, ) = IStargateRouter(stargateRouter)\n            .quoteLayerZeroFee(\n                ZorroChainToLZMap[_chainId],\n                1,\n                _dstContract,\n                _payload,\n                _lzTxParams\n            );\n        return _nativeFee;\n    }\n\n    /* Payload encoding */\n\n    /// @notice Encodes payload for making cross chan deposit\n    /// @param _destChainId Destination Zorro Chain ID\n    /// @param _pid Pool ID on remote chain\n    /// @param _valueUSDC Amount in USDC to deposit\n    /// @param _weeksCommitted Number of weeks to commit deposit for in vault\n    /// @param _maxMarketMovement Slippage parameter (e.g. 950 = 5%, 990 = 1%, etc.)\n    /// @param _originWallet Wallet address on origin chain that will be depositing funds cross chain.\n    /// @param _destWallet Optional wallet address on destination chain that will be receiving deposit. If not provided, will use a truncated address based on the _originWallet\n    /// @return payload The ABI encoded payload\n    function _encodeXChainDepositPayload(\n        uint256 _destChainId,\n        uint256 _pid,\n        uint256 _valueUSDC,\n        uint256 _weeksCommitted,\n        uint256 _maxMarketMovement,\n        address _originWallet,\n        bytes memory _destWallet\n    ) internal view returns (bytes memory payload) {\n        if (chainTypes[_destChainId] == 0) {\n            // Destination chain is an EVM chain\n\n            // Calculate method signature\n            bytes4 _sig = this.receiveXChainDepositRequest.selector;\n            // Calculate abi encoded bytes for input args\n            bytes memory _inputs = abi.encode(\n                _pid,\n                _valueUSDC,\n                _weeksCommitted,\n                _maxMarketMovement,\n                abi.encodePacked(_originWallet), // Convert address to bytes\n                _bytesToAddress(_destWallet) // Decode bytes to address\n            );\n            // Concatenate bytes of signature and inputs\n            payload = bytes.concat(_sig, _inputs);\n        }\n\n        require(payload.length > 0, \"Invalid xchain payload\");\n    }\n\n    /* Sending */\n\n    /// @notice Prepares and sends a cross chain deposit request. Takes care of necessary financial ops (transfer/locking USDC)\n    /// @dev Requires appropriate fee to be paid via msg.value (use checkXChainDepositFee() above)\n    /// @param _zorroChainId The Zorro Chain ID (not the LayerZero one)\n    /// @param _pid The pool ID on the remote chain\n    /// @param _valueUSDC The amount of USDC to deposit\n    /// @param _weeksCommitted Number of weeks to commit to a vault\n    /// @param _maxMarketMovement Acceptable degree of slippage on any transaction (e.g. 950 = 5%, 990 = 1% etc.)\n    /// @param _destWallet A valid address on the remote chain that can claim ownership\n    function sendXChainDepositRequest(\n        uint256 _zorroChainId,\n        uint256 _pid,\n        uint256 _valueUSDC,\n        uint256 _weeksCommitted,\n        uint256 _maxMarketMovement,\n        bytes memory _destWallet\n    ) external payable nonReentrant {\n        // Require funds to be submitted with this message\n        require(msg.value > 0, \"No fees submitted\");\n\n        // Transfer USDC into this contract\n        IERC20Upgradeable(defaultStablecoin).safeTransferFrom(\n            msg.sender,\n            address(this),\n            _valueUSDC\n        );\n\n        // Check balances\n        uint256 _balUSDC = IERC20Upgradeable(defaultStablecoin).balanceOf(address(this));\n\n        // Generate payload\n        bytes memory _payload = _encodeXChainDepositPayload(\n            _zorroChainId,\n            _pid,\n            _balUSDC,\n            _weeksCommitted,\n            _maxMarketMovement,\n            msg.sender,\n            _destWallet\n        );\n\n        // Get the destination contract address on the remote chain\n        bytes memory _dstContract = controllerContractsMap[_zorroChainId];\n\n        // Call stargate to initiate bridge\n        _callStargateSwap(\n            StargateSwapPayload({\n                chainId: _zorroChainId,\n                qty: _balUSDC,\n                dstContract: _dstContract,\n                payload: _payload,\n                maxMarketMovement: _maxMarketMovement\n            })\n        );\n    }\n\n    /* Receiving */\n\n    /// @notice Dummy func to allow .selector call above and guarantee typesafety for abi calls.\n    /// @dev Should never ever be actually called.\n    function receiveXChainDepositRequest(\n        uint256 _pid,\n        uint256 _valueUSDC,\n        uint256 _weeksCommitted,\n        uint256 _maxMarketMovement,\n        bytes memory _originAccount,\n        address _destAccount\n    ) public {\n        // Revert to make sure this function never gets called\n        require(false, \"illegal dummy func call\");\n\n        // But still include the function call here anyway to satisfy type safety requirements in case there is a change\n        _receiveXChainDepositRequest(\n            _pid,\n            _valueUSDC,\n            _weeksCommitted,\n            block.timestamp,\n            _maxMarketMovement,\n            _originAccount,\n            _destAccount\n        );\n    }\n\n    /// @notice Receives a cross chain deposit request from the contract layer of the XchainEndpoint contract\n    /// @dev For params, see _depositFullService() function declaration above\n    /// @param _pid The pool ID on the remote chain\n    /// @param _valueUSDC The amount of USDC to deposit\n    /// @param _weeksCommitted Number of weeks to commit to a vault\n    /// @param _maxMarketMovement Acceptable degree of slippage on any transaction (e.g. 950 = 5%, 990 = 1% etc.)\n    /// @param _originAccount The address on the origin chain to associate the deposit with (mandatory)\n    /// @param _destAccount The address on the current chain to additionally associate the deposit with (allows on-chain withdrawals of the deposit) (if not provided, will truncate origin address to uint160 i.e. Solidity address type)\n    function _receiveXChainDepositRequest(\n        uint256 _pid,\n        uint256 _valueUSDC,\n        uint256 _weeksCommitted,\n        uint256 _vaultEnteredAt,\n        uint256 _maxMarketMovement,\n        bytes memory _originAccount,\n        address _destAccount\n    ) internal virtual {\n        // Call deposit function\n        IZorroControllerInvestment(currentChainController)\n            .depositFullServiceFromXChain(\n                _pid,\n                _destAccount,\n                _originAccount,\n                _valueUSDC,\n                _weeksCommitted,\n                _vaultEnteredAt,\n                _maxMarketMovement\n            );\n    }\n}\n",
  "sourcePath": "/Users/kristophm/Documents/workspace/zorro-protocol/contracts/controllers/_ZorroControllerXChainDeposit.sol",
  "compiler": {
    "name": "solc",
    "version": "0.8.10+commit.fc410830.Emscripten.clang"
  },
  "schemaVersion": "3.4.4",
  "updatedAt": "2022-05-14T17:10:09.046Z",
  "devdoc": {
    "kind": "dev",
    "methods": {
      "checkXChainDepositFee(uint256,bytes,uint256,uint256,uint256,uint256,bytes)": {
        "params": {
          "_chainId": "The Zorro Chain ID (not the LayerZero one)",
          "_destWallet": "A valid address on the remote chain that can claim ownership",
          "_dstContract": "The destination contract address on the remote chain",
          "_maxMarketMovement": "Acceptable degree of slippage on any transaction (e.g. 950 = 5%, 990 = 1% etc.)",
          "_pid": "The pool ID on the remote chain",
          "_valueUSDC": "The amount of USDC to deposit",
          "_weeksCommitted": "Number of weeks to commit to a vault"
        },
        "returns": {
          "_0": "uint256 Expected fee to pay for bridging/cross chain execution"
        }
      },
      "owner()": {
        "details": "Returns the address of the current owner."
      },
      "receiveXChainDepositRequest(uint256,uint256,uint256,uint256,bytes,address)": {
        "details": "Should never ever be actually called."
      },
      "renounceOwnership()": {
        "details": "Leaves the contract without owner. It will not be possible to call `onlyOwner` functions anymore. Can only be called by the current owner. NOTE: Renouncing ownership will leave the contract without an owner, thereby removing any functionality that is only available to the owner."
      },
      "sendXChainDepositRequest(uint256,uint256,uint256,uint256,uint256,bytes)": {
        "details": "Requires appropriate fee to be paid via msg.value (use checkXChainDepositFee() above)",
        "params": {
          "_destWallet": "A valid address on the remote chain that can claim ownership",
          "_maxMarketMovement": "Acceptable degree of slippage on any transaction (e.g. 950 = 5%, 990 = 1% etc.)",
          "_pid": "The pool ID on the remote chain",
          "_valueUSDC": "The amount of USDC to deposit",
          "_weeksCommitted": "Number of weeks to commit to a vault",
          "_zorroChainId": "The Zorro Chain ID (not the LayerZero one)"
        }
      },
      "setControllerContract(uint256,bytes)": {
        "params": {
          "_controller": "Bytes representation of smart contract address for cross chain contract",
          "_zorroChainId": "Zorro Chain ID"
        }
      },
      "setStargateDestPoolIds(uint256,uint16)": {
        "params": {
          "_stargatePoolId": "Stargate pool ID",
          "_zorroChainId": "Zorro chain ID"
        }
      },
      "setZorroChainToLZMap(uint256,uint16)": {
        "params": {
          "_lzChainId": "LayerZero Chain ID",
          "_zorroChainId": "Zorro chain ID"
        }
      },
      "transferOwnership(address)": {
        "details": "Transfers ownership of the contract to a new account (`newOwner`). Can only be called by the current owner."
      }
    },
    "version": 1
  },
  "userdoc": {
    "kind": "user",
    "methods": {
      "checkXChainDepositFee(uint256,bytes,uint256,uint256,uint256,uint256,bytes)": {
        "notice": "Checks to see how much a cross chain deposit will cost"
      },
      "receiveXChainDepositRequest(uint256,uint256,uint256,uint256,bytes,address)": {
        "notice": "Dummy func to allow .selector call above and guarantee typesafety for abi calls."
      },
      "sendXChainDepositRequest(uint256,uint256,uint256,uint256,uint256,bytes)": {
        "notice": "Prepares and sends a cross chain deposit request. Takes care of necessary financial ops (transfer/locking USDC)"
      },
      "setControllerContract(uint256,bytes)": {
        "notice": "Setter: Controller contract for each chain"
      },
      "setLayerZeroParams(address,uint256,address)": {
        "notice": "Setter: Set main LZ params"
      },
      "setStargateDestPoolIds(uint256,uint16)": {
        "notice": "Setter: Stargate dest pool IDs for USD asset"
      },
      "setZorroChainToLZMap(uint256,uint16)": {
        "notice": "Setter: LZ/Stargate params"
      }
    },
    "version": 1
  }
}