{
  "contractName": "ZorroController",
  "abi": [
    {
      "anonymous": false,
      "inputs": [
        {
          "indexed": true,
          "internalType": "address",
          "name": "account",
          "type": "address"
        },
        {
          "indexed": true,
          "internalType": "bytes",
          "name": "foreignAccount",
          "type": "bytes"
        },
        {
          "indexed": true,
          "internalType": "uint256",
          "name": "pid",
          "type": "uint256"
        },
        {
          "indexed": false,
          "internalType": "uint256",
          "name": "wantAmount",
          "type": "uint256"
        }
      ],
      "name": "Deposit",
      "type": "event"
    },
    {
      "anonymous": false,
      "inputs": [
        {
          "indexed": true,
          "internalType": "address",
          "name": "previousOwner",
          "type": "address"
        },
        {
          "indexed": true,
          "internalType": "address",
          "name": "newOwner",
          "type": "address"
        }
      ],
      "name": "OwnershipTransferred",
      "type": "event"
    },
    {
      "anonymous": false,
      "inputs": [
        {
          "indexed": false,
          "internalType": "address",
          "name": "account",
          "type": "address"
        },
        {
          "indexed": true,
          "internalType": "uint256",
          "name": "fromPid",
          "type": "uint256"
        },
        {
          "indexed": true,
          "internalType": "uint256",
          "name": "fromTrancheId",
          "type": "uint256"
        },
        {
          "indexed": true,
          "internalType": "uint256",
          "name": "toPid",
          "type": "uint256"
        }
      ],
      "name": "TransferInvestment",
      "type": "event"
    },
    {
      "anonymous": false,
      "inputs": [
        {
          "indexed": true,
          "internalType": "address",
          "name": "account",
          "type": "address"
        },
        {
          "indexed": true,
          "internalType": "bytes",
          "name": "foreignAccount",
          "type": "bytes"
        },
        {
          "indexed": true,
          "internalType": "uint256",
          "name": "pid",
          "type": "uint256"
        },
        {
          "indexed": false,
          "internalType": "uint256",
          "name": "trancheId",
          "type": "uint256"
        },
        {
          "indexed": false,
          "internalType": "uint256",
          "name": "wantAmount",
          "type": "uint256"
        }
      ],
      "name": "Withdraw",
      "type": "event"
    },
    {
      "inputs": [
        {
          "internalType": "uint256",
          "name": "",
          "type": "uint256"
        }
      ],
      "name": "USDCToZorroLPPoolOtherTokenPath",
      "outputs": [
        {
          "internalType": "address",
          "name": "",
          "type": "address"
        }
      ],
      "stateMutability": "view",
      "type": "function",
      "constant": true
    },
    {
      "inputs": [
        {
          "internalType": "uint256",
          "name": "",
          "type": "uint256"
        }
      ],
      "name": "USDCToZorroPath",
      "outputs": [
        {
          "internalType": "address",
          "name": "",
          "type": "address"
        }
      ],
      "stateMutability": "view",
      "type": "function",
      "constant": true
    },
    {
      "inputs": [],
      "name": "ZORRO",
      "outputs": [
        {
          "internalType": "address",
          "name": "",
          "type": "address"
        }
      ],
      "stateMutability": "view",
      "type": "function",
      "constant": true
    },
    {
      "inputs": [],
      "name": "ZORRODailyDistributionFactorBasisPointsMax",
      "outputs": [
        {
          "internalType": "uint256",
          "name": "",
          "type": "uint256"
        }
      ],
      "stateMutability": "view",
      "type": "function",
      "constant": true
    },
    {
      "inputs": [],
      "name": "ZORRODailyDistributionFactorBasisPointsMin",
      "outputs": [
        {
          "internalType": "uint256",
          "name": "",
          "type": "uint256"
        }
      ],
      "stateMutability": "view",
      "type": "function",
      "constant": true
    },
    {
      "inputs": [],
      "name": "ZORROPerBlock",
      "outputs": [
        {
          "internalType": "uint256",
          "name": "",
          "type": "uint256"
        }
      ],
      "stateMutability": "view",
      "type": "function",
      "constant": true
    },
    {
      "inputs": [
        {
          "internalType": "uint256",
          "name": "_allocPoint",
          "type": "uint256"
        },
        {
          "internalType": "contract IERC20Upgradeable",
          "name": "_want",
          "type": "address"
        },
        {
          "internalType": "bool",
          "name": "_withUpdate",
          "type": "bool"
        },
        {
          "internalType": "address",
          "name": "_vault",
          "type": "address"
        }
      ],
      "name": "add",
      "outputs": [],
      "stateMutability": "nonpayable",
      "type": "function"
    },
    {
      "inputs": [],
      "name": "baseRewardRateBasisPoints",
      "outputs": [
        {
          "internalType": "uint256",
          "name": "",
          "type": "uint256"
        }
      ],
      "stateMutability": "view",
      "type": "function",
      "constant": true
    },
    {
      "inputs": [],
      "name": "blocksPerDay",
      "outputs": [
        {
          "internalType": "uint256",
          "name": "",
          "type": "uint256"
        }
      ],
      "stateMutability": "view",
      "type": "function",
      "constant": true
    },
    {
      "inputs": [],
      "name": "burnAddress",
      "outputs": [
        {
          "internalType": "address",
          "name": "",
          "type": "address"
        }
      ],
      "stateMutability": "view",
      "type": "function",
      "constant": true
    },
    {
      "inputs": [],
      "name": "chainId",
      "outputs": [
        {
          "internalType": "uint256",
          "name": "",
          "type": "uint256"
        }
      ],
      "stateMutability": "view",
      "type": "function",
      "constant": true
    },
    {
      "inputs": [],
      "name": "chainMultiplier",
      "outputs": [
        {
          "internalType": "uint256",
          "name": "",
          "type": "uint256"
        }
      ],
      "stateMutability": "view",
      "type": "function",
      "constant": true
    },
    {
      "inputs": [],
      "name": "defaultStablecoin",
      "outputs": [
        {
          "internalType": "address",
          "name": "",
          "type": "address"
        }
      ],
      "stateMutability": "view",
      "type": "function",
      "constant": true
    },
    {
      "inputs": [
        {
          "internalType": "uint256",
          "name": "_pid",
          "type": "uint256"
        },
        {
          "internalType": "uint256",
          "name": "_wantAmt",
          "type": "uint256"
        },
        {
          "internalType": "uint256",
          "name": "_weeksCommitted",
          "type": "uint256"
        }
      ],
      "name": "deposit",
      "outputs": [],
      "stateMutability": "nonpayable",
      "type": "function"
    },
    {
      "inputs": [
        {
          "internalType": "uint256",
          "name": "_pid",
          "type": "uint256"
        },
        {
          "internalType": "uint256",
          "name": "_valueUSDC",
          "type": "uint256"
        },
        {
          "internalType": "uint256",
          "name": "_weeksCommitted",
          "type": "uint256"
        },
        {
          "internalType": "uint256",
          "name": "_maxMarketMovement",
          "type": "uint256"
        }
      ],
      "name": "depositFullService",
      "outputs": [],
      "stateMutability": "nonpayable",
      "type": "function"
    },
    {
      "inputs": [
        {
          "internalType": "uint256",
          "name": "_pid",
          "type": "uint256"
        },
        {
          "internalType": "address",
          "name": "_account",
          "type": "address"
        },
        {
          "internalType": "bytes",
          "name": "_foreignAccount",
          "type": "bytes"
        },
        {
          "internalType": "uint256",
          "name": "_valueUSDC",
          "type": "uint256"
        },
        {
          "internalType": "uint256",
          "name": "_weeksCommitted",
          "type": "uint256"
        },
        {
          "internalType": "uint256",
          "name": "_vaultEnteredAt",
          "type": "uint256"
        },
        {
          "internalType": "uint256",
          "name": "_maxMarketMovement",
          "type": "uint256"
        }
      ],
      "name": "depositFullServiceFromXChain",
      "outputs": [],
      "stateMutability": "nonpayable",
      "type": "function"
    },
    {
      "inputs": [
        {
          "internalType": "uint256",
          "name": "",
          "type": "uint256"
        },
        {
          "internalType": "bytes",
          "name": "",
          "type": "bytes"
        },
        {
          "internalType": "uint256",
          "name": "",
          "type": "uint256"
        }
      ],
      "name": "foreignTrancheInfo",
      "outputs": [
        {
          "internalType": "address",
          "name": "",
          "type": "address"
        }
      ],
      "stateMutability": "view",
      "type": "function",
      "constant": true
    },
    {
      "inputs": [
        {
          "internalType": "uint256",
          "name": "durationInWeeks",
          "type": "uint256"
        }
      ],
      "name": "getTimeMultiplier",
      "outputs": [
        {
          "internalType": "uint256",
          "name": "",
          "type": "uint256"
        }
      ],
      "stateMutability": "view",
      "type": "function",
      "constant": true
    },
    {
      "inputs": [
        {
          "internalType": "uint256",
          "name": "_liquidityCommitted",
          "type": "uint256"
        },
        {
          "internalType": "uint256",
          "name": "_timeMultiplier",
          "type": "uint256"
        }
      ],
      "name": "getUserContribution",
      "outputs": [
        {
          "internalType": "uint256",
          "name": "",
          "type": "uint256"
        }
      ],
      "stateMutability": "pure",
      "type": "function",
      "constant": true
    },
    {
      "inputs": [],
      "name": "homeChainId",
      "outputs": [
        {
          "internalType": "uint256",
          "name": "",
          "type": "uint256"
        }
      ],
      "stateMutability": "view",
      "type": "function",
      "constant": true
    },
    {
      "inputs": [],
      "name": "homeChainZorroController",
      "outputs": [
        {
          "internalType": "address",
          "name": "",
          "type": "address"
        }
      ],
      "stateMutability": "view",
      "type": "function",
      "constant": true
    },
    {
      "inputs": [
        {
          "internalType": "address",
          "name": "_token",
          "type": "address"
        },
        {
          "internalType": "uint256",
          "name": "_amount",
          "type": "uint256"
        }
      ],
      "name": "inCaseTokensGetStuck",
      "outputs": [],
      "stateMutability": "nonpayable",
      "type": "function"
    },
    {
      "inputs": [],
      "name": "isTimeMultiplierActive",
      "outputs": [
        {
          "internalType": "bool",
          "name": "",
          "type": "bool"
        }
      ],
      "stateMutability": "view",
      "type": "function",
      "constant": true
    },
    {
      "inputs": [],
      "name": "massUpdatePools",
      "outputs": [
        {
          "internalType": "uint256",
          "name": "_mintedZOR",
          "type": "uint256"
        }
      ],
      "stateMutability": "nonpayable",
      "type": "function"
    },
    {
      "inputs": [],
      "name": "owner",
      "outputs": [
        {
          "internalType": "address",
          "name": "",
          "type": "address"
        }
      ],
      "stateMutability": "view",
      "type": "function",
      "constant": true
    },
    {
      "inputs": [
        {
          "internalType": "uint256",
          "name": "_pid",
          "type": "uint256"
        },
        {
          "internalType": "address",
          "name": "_account",
          "type": "address"
        },
        {
          "internalType": "int256",
          "name": "_trancheId",
          "type": "int256"
        }
      ],
      "name": "pendingZORRORewards",
      "outputs": [
        {
          "internalType": "uint256",
          "name": "_pendingRewards",
          "type": "uint256"
        }
      ],
      "stateMutability": "view",
      "type": "function",
      "constant": true
    },
    {
      "inputs": [
        {
          "internalType": "uint256",
          "name": "",
          "type": "uint256"
        }
      ],
      "name": "poolInfo",
      "outputs": [
        {
          "internalType": "contract IERC20Upgradeable",
          "name": "want",
          "type": "address"
        },
        {
          "internalType": "uint256",
          "name": "allocPoint",
          "type": "uint256"
        },
        {
          "internalType": "uint256",
          "name": "lastRewardBlock",
          "type": "uint256"
        },
        {
          "internalType": "uint256",
          "name": "accZORRORewards",
          "type": "uint256"
        },
        {
          "internalType": "uint256",
          "name": "totalTrancheContributions",
          "type": "uint256"
        },
        {
          "internalType": "address",
          "name": "vault",
          "type": "address"
        }
      ],
      "stateMutability": "view",
      "type": "function",
      "constant": true
    },
    {
      "inputs": [],
      "name": "poolLength",
      "outputs": [
        {
          "internalType": "uint256",
          "name": "",
          "type": "uint256"
        }
      ],
      "stateMutability": "view",
      "type": "function",
      "constant": true
    },
    {
      "inputs": [],
      "name": "priceFeedLPPoolOtherToken",
      "outputs": [
        {
          "internalType": "contract AggregatorV3Interface",
          "name": "",
          "type": "address"
        }
      ],
      "stateMutability": "view",
      "type": "function",
      "constant": true
    },
    {
      "inputs": [],
      "name": "priceFeedZOR",
      "outputs": [
        {
          "internalType": "contract AggregatorV3Interface",
          "name": "",
          "type": "address"
        }
      ],
      "stateMutability": "view",
      "type": "function",
      "constant": true
    },
    {
      "inputs": [],
      "name": "publicPool",
      "outputs": [
        {
          "internalType": "address",
          "name": "",
          "type": "address"
        }
      ],
      "stateMutability": "view",
      "type": "function",
      "constant": true
    },
    {
      "inputs": [],
      "name": "renounceOwnership",
      "outputs": [],
      "stateMutability": "nonpayable",
      "type": "function"
    },
    {
      "inputs": [
        {
          "internalType": "uint256",
          "name": "_pid",
          "type": "uint256"
        },
        {
          "internalType": "uint256",
          "name": "_allocPoint",
          "type": "uint256"
        },
        {
          "internalType": "bool",
          "name": "_withUpdate",
          "type": "bool"
        }
      ],
      "name": "set",
      "outputs": [],
      "stateMutability": "nonpayable",
      "type": "function"
    },
    {
      "inputs": [
        {
          "internalType": "bool",
          "name": "_isActive",
          "type": "bool"
        }
      ],
      "name": "setIsTimeMultiplierActive",
      "outputs": [],
      "stateMutability": "nonpayable",
      "type": "function"
    },
    {
      "inputs": [
        {
          "internalType": "address",
          "name": "_ZORRO",
          "type": "address"
        },
        {
          "internalType": "address",
          "name": "_defaultStablecoin",
          "type": "address"
        }
      ],
      "name": "setKeyAddresses",
      "outputs": [],
      "stateMutability": "nonpayable",
      "type": "function"
    },
    {
      "inputs": [
        {
          "internalType": "address",
          "name": "_priceFeedZOR",
          "type": "address"
        },
        {
          "internalType": "address",
          "name": "_priceFeedLPPoolOtherToken",
          "type": "address"
        }
      ],
      "name": "setPriceFeeds",
      "outputs": [],
      "stateMutability": "nonpayable",
      "type": "function"
    },
    {
      "inputs": [
        {
          "internalType": "uint256",
          "name": "_blocksPerDay",
          "type": "uint256"
        },
        {
          "internalType": "uint256[]",
          "name": "_dailyDistFactors",
          "type": "uint256[]"
        },
        {
          "internalType": "uint256",
          "name": "_chainMultiplier",
          "type": "uint256"
        },
        {
          "internalType": "uint256",
          "name": "_baseRewardRateBasisPoints",
          "type": "uint256"
        }
      ],
      "name": "setRewardsParams",
      "outputs": [],
      "stateMutability": "nonpayable",
      "type": "function"
    },
    {
      "inputs": [
        {
          "internalType": "uint256",
          "name": "_startBlock",
          "type": "uint256"
        }
      ],
      "name": "setStartBlock",
      "outputs": [],
      "stateMutability": "nonpayable",
      "type": "function"
    },
    {
      "inputs": [
        {
          "internalType": "uint256",
          "name": "_targetTVLCaptureBasisPoints",
          "type": "uint256"
        }
      ],
      "name": "setTargetTVLCaptureBasisPoints",
      "outputs": [],
      "stateMutability": "nonpayable",
      "type": "function"
    },
    {
      "inputs": [
        {
          "internalType": "address[]",
          "name": "_path",
          "type": "address[]"
        }
      ],
      "name": "setUSDCToZORPath",
      "outputs": [],
      "stateMutability": "nonpayable",
      "type": "function"
    },
    {
      "inputs": [
        {
          "internalType": "address[]",
          "name": "_path",
          "type": "address[]"
        }
      ],
      "name": "setUSDCToZorroLPPoolOtherTokenPath",
      "outputs": [],
      "stateMutability": "nonpayable",
      "type": "function"
    },
    {
      "inputs": [
        {
          "internalType": "address",
          "name": "_uniV2Router",
          "type": "address"
        }
      ],
      "name": "setUniRouter",
      "outputs": [],
      "stateMutability": "nonpayable",
      "type": "function"
    },
    {
      "inputs": [
        {
          "internalType": "uint256",
          "name": "_chainId",
          "type": "uint256"
        },
        {
          "internalType": "uint256",
          "name": "_homeChainId",
          "type": "uint256"
        },
        {
          "internalType": "address",
          "name": "_homeChainZorroController",
          "type": "address"
        }
      ],
      "name": "setXChainParams",
      "outputs": [],
      "stateMutability": "nonpayable",
      "type": "function"
    },
    {
      "inputs": [
        {
          "internalType": "address",
          "name": "_publicPool",
          "type": "address"
        },
        {
          "internalType": "address",
          "name": "_zorroStakingVault",
          "type": "address"
        }
      ],
      "name": "setZorroContracts",
      "outputs": [],
      "stateMutability": "nonpayable",
      "type": "function"
    },
    {
      "inputs": [
        {
          "internalType": "address",
          "name": "_zorroControllerOracle",
          "type": "address"
        }
      ],
      "name": "setZorroControllerOracle",
      "outputs": [],
      "stateMutability": "nonpayable",
      "type": "function"
    },
    {
      "inputs": [
        {
          "internalType": "address",
          "name": "_zorroLPPool",
          "type": "address"
        },
        {
          "internalType": "address",
          "name": "_zorroLPPoolOtherToken",
          "type": "address"
        }
      ],
      "name": "setZorroLPPoolParams",
      "outputs": [],
      "stateMutability": "nonpayable",
      "type": "function"
    },
    {
      "inputs": [
        {
          "internalType": "uint256",
          "name": "_totalChainMultipliers",
          "type": "uint256"
        },
        {
          "internalType": "uint256",
          "name": "_totalMarketTVLUSD",
          "type": "uint256"
        },
        {
          "internalType": "uint256",
          "name": "_targetTVLCaptureBasisPoints",
          "type": "uint256"
        },
        {
          "internalType": "uint256",
          "name": "_ZorroTotalVaultTVLUSD",
          "type": "uint256"
        },
        {
          "internalType": "uint256",
          "name": "_publicPoolZORBalance",
          "type": "uint256"
        }
      ],
      "name": "setZorroPerBlock",
      "outputs": [],
      "stateMutability": "nonpayable",
      "type": "function"
    },
    {
      "inputs": [
        {
          "internalType": "address",
          "name": "_contract",
          "type": "address"
        }
      ],
      "name": "setZorroXChainEndpoint",
      "outputs": [],
      "stateMutability": "nonpayable",
      "type": "function"
    },
    {
      "inputs": [
        {
          "internalType": "uint256",
          "name": "_pid",
          "type": "uint256"
        },
        {
          "internalType": "address",
          "name": "_account",
          "type": "address"
        },
        {
          "internalType": "int256",
          "name": "_trancheId",
          "type": "int256"
        }
      ],
      "name": "stakedWantTokens",
      "outputs": [
        {
          "internalType": "uint256",
          "name": "_stakedWantTokens",
          "type": "uint256"
        }
      ],
      "stateMutability": "view",
      "type": "function",
      "constant": true
    },
    {
      "inputs": [],
      "name": "startBlock",
      "outputs": [
        {
          "internalType": "uint256",
          "name": "",
          "type": "uint256"
        }
      ],
      "stateMutability": "view",
      "type": "function",
      "constant": true
    },
    {
      "inputs": [],
      "name": "targetTVLCaptureBasisPoints",
      "outputs": [
        {
          "internalType": "uint256",
          "name": "",
          "type": "uint256"
        }
      ],
      "stateMutability": "view",
      "type": "function",
      "constant": true
    },
    {
      "inputs": [],
      "name": "totalAllocPoint",
      "outputs": [
        {
          "internalType": "uint256",
          "name": "",
          "type": "uint256"
        }
      ],
      "stateMutability": "view",
      "type": "function",
      "constant": true
    },
    {
      "inputs": [
        {
          "internalType": "uint256",
          "name": "",
          "type": "uint256"
        },
        {
          "internalType": "address",
          "name": "",
          "type": "address"
        },
        {
          "internalType": "uint256",
          "name": "",
          "type": "uint256"
        }
      ],
      "name": "trancheInfo",
      "outputs": [
        {
          "internalType": "uint256",
          "name": "contribution",
          "type": "uint256"
        },
        {
          "internalType": "uint256",
          "name": "timeMultiplier",
          "type": "uint256"
        },
        {
          "internalType": "uint256",
          "name": "rewardDebt",
          "type": "uint256"
        },
        {
          "internalType": "uint256",
          "name": "durationCommittedInWeeks",
          "type": "uint256"
        },
        {
          "internalType": "uint256",
          "name": "enteredVaultAt",
          "type": "uint256"
        },
        {
          "internalType": "uint256",
          "name": "exitedVaultAt",
          "type": "uint256"
        }
      ],
      "stateMutability": "view",
      "type": "function",
      "constant": true
    },
    {
      "inputs": [
        {
          "internalType": "uint256",
          "name": "_pid",
          "type": "uint256"
        },
        {
          "internalType": "address",
          "name": "_user",
          "type": "address"
        }
      ],
      "name": "trancheLength",
      "outputs": [
        {
          "internalType": "uint256",
          "name": "",
          "type": "uint256"
        }
      ],
      "stateMutability": "view",
      "type": "function",
      "constant": true
    },
    {
      "inputs": [
        {
          "internalType": "uint256",
          "name": "_fromPid",
          "type": "uint256"
        },
        {
          "internalType": "uint256",
          "name": "_fromTrancheId",
          "type": "uint256"
        },
        {
          "internalType": "uint256",
          "name": "_toPid",
          "type": "uint256"
        },
        {
          "internalType": "uint256",
          "name": "_maxMarketMovement",
          "type": "uint256"
        }
      ],
      "name": "transferInvestment",
      "outputs": [],
      "stateMutability": "nonpayable",
      "type": "function"
    },
    {
      "inputs": [
        {
          "internalType": "address",
          "name": "newOwner",
          "type": "address"
        }
      ],
      "name": "transferOwnership",
      "outputs": [],
      "stateMutability": "nonpayable",
      "type": "function"
    },
    {
      "inputs": [],
      "name": "uniRouterAddress",
      "outputs": [
        {
          "internalType": "address",
          "name": "",
          "type": "address"
        }
      ],
      "stateMutability": "view",
      "type": "function",
      "constant": true
    },
    {
      "inputs": [
        {
          "internalType": "uint256",
          "name": "_pid",
          "type": "uint256"
        }
      ],
      "name": "updatePool",
      "outputs": [
        {
          "internalType": "uint256",
          "name": "mintedZOR",
          "type": "uint256"
        }
      ],
      "stateMutability": "nonpayable",
      "type": "function"
    },
    {
      "inputs": [
        {
          "internalType": "uint256",
          "name": "_pid",
          "type": "uint256"
        },
        {
          "internalType": "uint256",
          "name": "_trancheId",
          "type": "uint256"
        },
        {
          "internalType": "bool",
          "name": "_harvestOnly",
          "type": "bool"
        }
      ],
      "name": "withdraw",
      "outputs": [
        {
          "internalType": "uint256",
          "name": "",
          "type": "uint256"
        }
      ],
      "stateMutability": "nonpayable",
      "type": "function"
    },
    {
      "inputs": [
        {
          "internalType": "uint256",
          "name": "_pid",
          "type": "uint256"
        }
      ],
      "name": "withdrawAll",
      "outputs": [],
      "stateMutability": "nonpayable",
      "type": "function"
    },
    {
      "inputs": [
        {
          "internalType": "uint256",
          "name": "_pid",
          "type": "uint256"
        },
        {
          "internalType": "uint256",
          "name": "_trancheId",
          "type": "uint256"
        },
        {
          "internalType": "bool",
          "name": "_harvestOnly",
          "type": "bool"
        },
        {
          "internalType": "uint256",
          "name": "_maxMarketMovement",
          "type": "uint256"
        }
      ],
      "name": "withdrawalFullService",
      "outputs": [
        {
          "internalType": "uint256",
          "name": "",
          "type": "uint256"
        }
      ],
      "stateMutability": "nonpayable",
      "type": "function"
    },
    {
      "inputs": [
        {
          "internalType": "address",
          "name": "_account",
          "type": "address"
        },
        {
          "internalType": "bytes",
          "name": "_foreignAccount",
          "type": "bytes"
        },
        {
          "internalType": "uint256",
          "name": "_pid",
          "type": "uint256"
        },
        {
          "internalType": "uint256",
          "name": "_trancheId",
          "type": "uint256"
        },
        {
          "internalType": "bool",
          "name": "_harvestOnly",
          "type": "bool"
        },
        {
          "internalType": "uint256",
          "name": "_maxMarketMovement",
          "type": "uint256"
        }
      ],
      "name": "withdrawalFullServiceFromXChain",
      "outputs": [
        {
          "internalType": "uint256",
          "name": "_amountUSDC",
          "type": "uint256"
        },
        {
          "internalType": "uint256",
          "name": "_mintedZORRewards",
          "type": "uint256"
        },
        {
          "internalType": "uint256",
          "name": "_rewardsDueXChain",
          "type": "uint256"
        },
        {
          "internalType": "uint256",
          "name": "_slashedRewardsXChain",
          "type": "uint256"
        }
      ],
      "stateMutability": "nonpayable",
      "type": "function"
    },
    {
      "inputs": [],
      "name": "zorroControllerOracle",
      "outputs": [
        {
          "internalType": "address",
          "name": "",
          "type": "address"
        }
      ],
      "stateMutability": "view",
      "type": "function",
      "constant": true
    },
    {
      "inputs": [],
      "name": "zorroLPPool",
      "outputs": [
        {
          "internalType": "address",
          "name": "",
          "type": "address"
        }
      ],
      "stateMutability": "view",
      "type": "function",
      "constant": true
    },
    {
      "inputs": [],
      "name": "zorroLPPoolOtherToken",
      "outputs": [
        {
          "internalType": "address",
          "name": "",
          "type": "address"
        }
      ],
      "stateMutability": "view",
      "type": "function",
      "constant": true
    },
    {
      "inputs": [],
      "name": "zorroStakingVault",
      "outputs": [
        {
          "internalType": "address",
          "name": "",
          "type": "address"
        }
      ],
      "stateMutability": "view",
      "type": "function",
      "constant": true
    },
    {
      "inputs": [],
      "name": "zorroXChainEndpoint",
      "outputs": [
        {
          "internalType": "address",
          "name": "",
          "type": "address"
        }
      ],
      "stateMutability": "view",
      "type": "function",
      "constant": true
    },
    {
      "inputs": [
        {
          "components": [
            {
              "internalType": "address",
              "name": "ZORRO",
              "type": "address"
            },
            {
              "internalType": "address",
              "name": "defaultStablecoin",
              "type": "address"
            },
            {
              "internalType": "address",
              "name": "zorroLPPoolOtherToken",
              "type": "address"
            },
            {
              "internalType": "address",
              "name": "publicPool",
              "type": "address"
            },
            {
              "internalType": "address",
              "name": "zorroStakingVault",
              "type": "address"
            },
            {
              "internalType": "address",
              "name": "zorroLPPool",
              "type": "address"
            },
            {
              "internalType": "address",
              "name": "uniRouterAddress",
              "type": "address"
            },
            {
              "internalType": "address[]",
              "name": "USDCToZorroPath",
              "type": "address[]"
            },
            {
              "internalType": "address[]",
              "name": "USDCToZorroLPPoolOtherTokenPath",
              "type": "address[]"
            },
            {
              "components": [
                {
                  "internalType": "uint256",
                  "name": "blocksPerDay",
                  "type": "uint256"
                },
                {
                  "internalType": "uint256",
                  "name": "startBlock",
                  "type": "uint256"
                },
                {
                  "internalType": "uint256",
                  "name": "ZORROPerBlock",
                  "type": "uint256"
                },
                {
                  "internalType": "uint256",
                  "name": "targetTVLCaptureBasisPoints",
                  "type": "uint256"
                },
                {
                  "internalType": "uint256",
                  "name": "chainMultiplier",
                  "type": "uint256"
                },
                {
                  "internalType": "uint256",
                  "name": "baseRewardRateBasisPoints",
                  "type": "uint256"
                }
              ],
              "internalType": "struct ZorroController.ZorroControllerRewards",
              "name": "rewards",
              "type": "tuple"
            },
            {
              "components": [
                {
                  "internalType": "uint256",
                  "name": "chainId",
                  "type": "uint256"
                },
                {
                  "internalType": "uint256",
                  "name": "homeChainId",
                  "type": "uint256"
                },
                {
                  "internalType": "address",
                  "name": "homeChainZorroController",
                  "type": "address"
                },
                {
                  "internalType": "address",
                  "name": "zorroControllerOracle",
                  "type": "address"
                },
                {
                  "internalType": "address",
                  "name": "zorroXChainEndpoint",
                  "type": "address"
                }
              ],
              "internalType": "struct ZorroController.ZorroControllerXChainParams",
              "name": "xChain",
              "type": "tuple"
            },
            {
              "components": [
                {
                  "internalType": "address",
                  "name": "priceFeedZOR",
                  "type": "address"
                },
                {
                  "internalType": "address",
                  "name": "priceFeedLPPoolOtherToken",
                  "type": "address"
                }
              ],
              "internalType": "struct ZorroController.ZorroControllerPriceFeeds",
              "name": "priceFeeds",
              "type": "tuple"
            }
          ],
          "internalType": "struct ZorroController.ZorroControllerInit",
          "name": "_initValue",
          "type": "tuple"
        }
      ],
      "name": "initialize",
      "outputs": [],
      "stateMutability": "nonpayable",
      "type": "function"
    }
  ],
  "bytecode": "0x608060405234801561001057600080fd5b506140c7806100206000396000f3fe608060405234801561001057600080fd5b50600436106103fb5760003560e01c806379777d8111610215578063b22f325111610125578063cff38dd4116100b8578063ef12696711610087578063ef12696714610917578063f2fde38b14610920578063f35e4a6e14610933578063f63cce3714610946578063fc39a29e1461095957600080fd5b8063cff38dd4146108cb578063ebfba7c4146108de578063ed43633f146108f1578063ee4e26871461090457600080fd5b8063c2936142116100f4578063c293614214610893578063c4e94f221461089c578063c6d758cb146108af578063cb9c2f68146108c257600080fd5b8063b22f32511461081a578063b4b4e9eb1461082d578063b61bb80a1461086d578063bdb2fc8b1461088057600080fd5b80639568786c116101a85780639a8a0592116101775780639a8a0592146107cf5780639cebd371146107d85780639ec68c76146107e1578063a4d2b083146107f4578063a80bee071461080757600080fd5b80639568786c14610783578063958e2d3114610796578063985b0a0d146107a95780639a448c0c146107bc57600080fd5b80638766eb08116101e45780638766eb08146107285780638c157db21461073b5780638da5cb5b1461074e578063941d3fd01461075f57600080fd5b806379777d81146106dc5780637bf604d8146106ef5780637e37c76914610702578063823c43d01461071557600080fd5b806348cd4cb111610310578063630b5ba1116102a35780636b8eb2e5116102725780636b8eb2e5146106925780636c78d49c146106a557806370d5ae05146106b8578063715018a6146106c1578063745af0a8146106c957600080fd5b8063630b5ba11461065157806364482f7914610659578063668ababb1461066c578063693a090b1461067f57600080fd5b806353f73f87116102df57806353f73f871461060f5780635527a6f9146106225780635c63fa871461062b5780635f70edcf1461063e57600080fd5b806348cd4cb1146105d75780634cfea68a146105e05780635051d371146105e957806351eb05a6146105fc57600080fd5b80633332fcf4116103935780633b710688116103625780633b7106881461056c5780633b9ce565146105755780633bbc1ffc1461057e57806340abd8fc146105915780634780f9f5146105c457600080fd5b80633332fcf41461052057806333cfcd3b14610533578063363530f61461054657806339e80a881461055957600080fd5b8063104a6132116103cf578063104a6132146104525780631526fe271461047d57806317caf6f1146104cc5780632e31283d146104d557600080fd5b8062aeef8a14610400578063068f158d14610415578063081e3eda146104285780630aa0988e1461043f575b600080fd5b61041361040e36600461352b565b61096c565b005b610413610423366004613577565b610a27565b60a7545b6040519081526020015b60405180910390f35b61041361044d366004613577565b610a7f565b6104656104603660046135b0565b610ad7565b6040516001600160a01b039091168152602001610436565b61049061048b3660046135b0565b610b01565b604080516001600160a01b03978816815260208101969096528501939093526060840191909152608083015290911660a082015260c001610436565b61042c60a35481565b6104656104e33660046136a7565b60a960209081526000938452604080852084518086018401805192815290840195840195909520945292905282529020546001600160a01b031681565b61041361052e366004613773565b610b54565b61042c6105413660046137b5565b610b95565b610413610554366004613954565b610c2d565b60b254610465906001600160a01b031681565b61042c60a25481565b61042c60a05481565b61041361058c3660046135b0565b610e84565b6105a461059f366004613a9b565b610eff565b604080519485526020850193909352918301526060820152608001610436565b6104136105d2366004613b1a565b610f66565b61042c609b5481565b61042c609c5481565b6104136105f7366004613b4c565b61100c565b61042c61060a3660046135b0565b611058565b61042c61061d366004613b69565b611190565b61042c609f5481565b610413610639366004613b8e565b6111b8565b61041361064c366004613bbc565b61120c565b61042c6113c5565b6104136106673660046137b5565b611459565b609954610465906001600160a01b031681565b60ad54610465906001600160a01b031681565b6104136106a0366004613c0f565b61150a565b6104136106b3366004613c4a565b6115e2565b61046561dead81565b61041361162a565b61042c6106d7366004613c67565b611660565b60b154610465906001600160a01b031681565b60ab54610465906001600160a01b031681565b610413610710366004613b1a565b6116d8565b60aa54610465906001600160a01b031681565b61042c610736366004613ca6565b611857565b609754610465906001600160a01b031681565b6033546001600160a01b0316610465565b60aa5461077390600160a01b900460ff1681565b6040519015158152602001610436565b61042c6107913660046135b0565b611afe565b6104136107a43660046135b0565b611b54565b61042c6107b7366004613ca6565b611bbc565b6104656107ca3660046135b0565b611ddf565b61042c60a45481565b61042c60a15481565b6104136107ef366004613577565b611def565b609a54610465906001600160a01b031681565b61042c610815366004613cde565b611e47565b60b054610465906001600160a01b031681565b61084061083b366004613ca6565b611e5c565b604080519687526020870195909552938501929092526060840152608083015260a082015260c001610436565b609854610465906001600160a01b031681565b61041361088e366004613773565b611ebd565b61042c609d5481565b6104136108aa366004613b4c565b611efa565b6104136108bd366004613d00565b611f46565b61042c609e5481565b6104136108d9366004613d2c565b612000565b60ac54610465906001600160a01b031681565b6104136108ff366004613da9565b612069565b610413610912366004613b4c565b6120df565b61042c60a55481565b61041361092e366004613b4c565b61212b565b6104136109413660046135b0565b6121c6565b610413610954366004613577565b61223d565b60a654610465906001600160a01b031681565b600260655414156109985760405162461bcd60e51b815260040161098f90613e36565b60405180910390fd5b6002606581905550600060a784815481106109b5576109b5613e6d565b6000918252602090912060069091020180549091506109de906001600160a01b031630856122e1565b600581015481546109fe916001600160a01b0391821691339116866123cc565b610a1b843360405180602001604052806000815250868642612404565b50506001606555505050565b6033546001600160a01b03163314610a515760405162461bcd60e51b815260040161098f90613e83565b60b080546001600160a01b039384166001600160a01b03199182161790915560b18054929093169116179055565b6033546001600160a01b03163314610aa95760405162461bcd60e51b815260040161098f90613e83565b609780546001600160a01b039384166001600160a01b03199182161790915560988054929093169116179055565b60ae8181548110610ae757600080fd5b6000918252602090912001546001600160a01b0316905081565b60a78181548110610b1157600080fd5b60009182526020909120600690910201805460018201546002830154600384015460048501546005909501546001600160a01b0394851696509294919390921686565b6033546001600160a01b03163314610b7e5760405162461bcd60e51b815260040161098f90613e83565b8051610b919060ae9060208401906134b1565b5050565b600060026065541415610bba5760405162461bcd60e51b815260040161098f90613e36565b60026065819055506000610be085336040518060200160405280600081525087876126f1565b9050610c1f33826000015160a78881548110610bfe57610bfe613e6d565b60009182526020909120600690910201546001600160a01b03169190612b74565b516001606555949350505050565b600054610100900460ff16610c485760005460ff1615610c4c565b303b155b610caf5760405162461bcd60e51b815260206004820152602e60248201527f496e697469616c697a61626c653a20636f6e747261637420697320616c72656160448201526d191e481a5b9a5d1a585b1a5e995960921b606482015260840161098f565b600054610100900460ff16158015610cd1576000805461ffff19166101011790555b8151609780546001600160a01b03199081166001600160a01b039384161790915560208085015160988054841691851691909117905560408086015160ac80548516918616919091179055606080870151609980548616918716919091179055608080880151609a8054871691881691909117905560a08089015160ab8054881691891691909117905560c089015160ad805488169189169190911790556001609f556014905560aa80546101208a01518051609c5580870151609b5580860151609d5580850151609e5583015160a181905560a2556101408a0151805160a4558087015160a5559485015160a680548916918a1691909117905592840151600160a01b6001600160a81b03199094169088161792909217909155015160b28054909316931692909217905560e08301518051610e129260ae9201906134b1565b506101008201518051610e2d9160af916020909101906134b1565b50610160820151805160b080546001600160a01b03199081166001600160a01b039384161790915560209092015160b180549093169116179055610e6f612ba9565b8015610b91576000805461ff00191690555050565b6033546001600160a01b03163314610eae5760405162461bcd60e51b815260040161098f90613e83565b60a6546001600160a01b03163014610efa5760405162461bcd60e51b815260206004820152600f60248201526e37b7363c903437b6b29031b430b4b760891b604482015260640161098f565b609e55565b60b2546000908190819081906001600160a01b0316336001600160a01b031614610f595760405162461bcd60e51b815260206004820152600b60248201526a78636861696e206f6e6c7960a81b604482015260640161098f565b9650965096509692505050565b60026065541415610f895760405162461bcd60e51b815260040161098f90613e36565b6002606581905550600060a78581548110610fa657610fa6613e6d565b60009182526020909120600560069092020101546098546001600160a01b039182169250610fd6911630866122e1565b609854610fee906001600160a01b03163383876123cc565b610a1b85336040518060200160405280600081525087874288612bd8565b6033546001600160a01b031633146110365760405162461bcd60e51b815260040161098f90613e83565b60aa80546001600160a01b0319166001600160a01b0392909216919091179055565b60008060a7838154811061106e5761106e613e6d565b90600052602060002090600602019050806002015443116110925750600092915050565b60006110ab826002015443612cd090919063ffffffff16565b905060006110de60a3546110d885600101546110d2609d5487612cdc90919063ffffffff16565b90612cdc565b90612ce8565b60a6549091506001600160a01b0316301415611106576110fd81612cf4565b6000935061116e565b6097546040516340c10f1960e01b8152306004820152602481018390526001600160a01b03909116906340c10f1990604401600060405180830381600087803b15801561115257600080fd5b505af1158015611166573d6000803e3d6000fd5b505050508093505b600383015461117d9082612d12565b6003840155505043600290910155919050565b600091825260a8602090815260408084206001600160a01b0393909316845291905290205490565b6033546001600160a01b031633146111e25760405162461bcd60e51b815260040161098f90613e83565b60a49290925560a55560a680546001600160a01b0319166001600160a01b03909216919091179055565b6033546001600160a01b031633146112365760405162461bcd60e51b815260040161098f90613e83565b8115611246576112446113c5565b505b6000609b54431161125957609b5461125b565b435b60a35490915061126b9086612d12565b60a3556040805160c0810182526001600160a01b039586168152602081019687529081019182526000606082018181526080830182815294871660a0840190815260a780546001810182559352925160069092027fb68792697ed876af8b4858b316f5b54d81f6861191ad2950c1fde6c3dc7b3dea810180549389166001600160a01b031994851617905597517fb68792697ed876af8b4858b316f5b54d81f6861191ad2950c1fde6c3dc7b3deb89015592517fb68792697ed876af8b4858b316f5b54d81f6861191ad2950c1fde6c3dc7b3dec88015591517fb68792697ed876af8b4858b316f5b54d81f6861191ad2950c1fde6c3dc7b3ded87015591517fb68792697ed876af8b4858b316f5b54d81f6861191ad2950c1fde6c3dc7b3dee86015590517fb68792697ed876af8b4858b316f5b54d81f6861191ad2950c1fde6c3dc7b3def909401805494909316931692909217905550565b60a754600090815b81811015611454576040516328f582d360e11b8152600481018290526114429030906351eb05a6906024016020604051808303816000875af1158015611417573d6000803e3d6000fd5b505050506040513d601f19601f8201168201806040525081019061143b9190613eb8565b8490612d12565b925061144d81613ee7565b90506113cd565b505090565b6033546001600160a01b031633146114835760405162461bcd60e51b815260040161098f90613e83565b8015611493576114916113c5565b505b6114d6826114d060a786815481106114ad576114ad613e6d565b90600052602060002090600602016001015460a354612cd090919063ffffffff16565b90612d12565b60a3819055508160a784815481106114f0576114f0613e6d565b906000526020600020906006020160010181905550505050565b60aa546001600160a01b0316336001600160a01b0316146115615760405162461bcd60e51b81526020600482015260116024820152706f6e6c79205a6f72726f206f7261636c6560781b604482015260640161098f565b600061158b61157284612710612cdc565b6110d8866110d28960a254612cdc90919063ffffffff16565b905060a0548111156115a0575060a0546115af565b609f548110156115af5750609f545b609c546115d7906115c6906110d289612710612cdc565b60a1546110d8906110d28686612cdc565b609d55505050505050565b6033546001600160a01b0316331461160c5760405162461bcd60e51b815260040161098f90613e83565b60aa8054911515600160a01b0260ff60a01b19909216919091179055565b6033546001600160a01b031633146116545760405162461bcd60e51b815260040161098f90613e83565b61165e6000612d1e565b565b6000600260655414156116855760405162461bcd60e51b815260040161098f90613e36565b600260658190555060006116ac336040518060200160405280600081525088888888612d70565b50506098549192506116ca916001600160a01b031690503383612b74565b600160655595945050505050565b600260655414156116fb5760405162461bcd60e51b815260040161098f90613e36565b6002606555600084815260a860209081526040808320338452909152812080548590811061172b5761172b613e6d565b600091825260208083206003600690930201919091015487835260a8825260408084203385529092529082208054919350908690811061176d5761176d613e6d565b906000526020600020906006020160040154905060006117a133604051806020016040528060008152508989600089612d70565b50505090506060609860009054906101000a90046001600160a01b0316816000815181106117d1576117d1613e6d565b60200260200101906001600160a01b031690816001600160a01b03168152505061180f8633604051806020016040528060008152508588888b612bd8565b604051338152869088908a907f67e7aba7263d8fbeb0cd9a2f4008f060a6a03f46c1d7f9d0550f0b93e96e96f89060200160405180910390a450506001606555505050505050565b60008060a7858154811061186d5761186d613e6d565b9060005260206000209060060201905060008160050160009054906101000a90046001600160a01b03166001600160a01b03166344a3955e6040518163ffffffff1660e01b8152600401602060405180830381865afa1580156118d4573d6000803e3d6000fd5b505050506040513d601f19601f820116820180604052508101906118f89190613eb8565b9050600060a7878154811061190f5761190f613e6d565b600091825260209182902060056006909202010154604080516342da4eb360e01b815290516001600160a01b03909216926342da4eb3926004808401938290030181865afa158015611965573d6000803e3d6000fd5b505050506040513d601f19601f820116820180604052508101906119899190613eb8565b90508161199557600093505b6000851215611a5a5760006119aa8888611190565b905060005b81811015611a5357600089815260a8602090815260408083206001600160a01b038c16845290915281208054839081106119eb576119eb613e6d565b906000526020600020906006020190506000611a1f82600101546110d8620f42408560000154612cdc90919063ffffffff16565b9050611a3e611a37876110d8620f424081868b612cdc565b8990612d12565b9750505080611a4c90613ee7565b90506119af565b5050611af4565b600087815260a8602090815260408083206001600160a01b038a1684529091528120805487908110611a8e57611a8e613e6d565b90600052602060002090600602019050600081600501541115611aed5760018101548154600091611ac6916110d890620f4240612cdc565b9050611ae5611ade856110d8620f4240818689612cdc565b8790612d12565b955050611af2565b600094505b505b5050509392505050565b60aa54600090600160a01b900460ff1615611b4357611b3d64e8d4a510006114d06103e86110d860026110d28581611b388b612710612cdc565b612e71565b92915050565b5064e8d4a51000919050565b919050565b60026065541415611b775760405162461bcd60e51b815260040161098f90613e36565b60026065556000611b888233611190565b905060005b81811015611bb257611ba183826000610b95565b50611bab81613ee7565b9050611b8d565b5050600160655550565b60008060a78581548110611bd257611bd2613e6d565b906000526020600020906006020190506000816003015490508160020154431115611c48576000611c10836002015443612cd090919063ffffffff16565b90506000611c3760a3546110d886600101546110d2609d5487612cdc90919063ffffffff16565b9050611c438382612d12565b925050505b6004820154611c5c57600092505050611dd8565b6000841215611d3a576000611c718787611190565b905060005b81811015611d3357600088815260a8602090815260408083206001600160a01b038b1684529091528120805483908110611cb257611cb2613e6d565b90600052602060002090600602019050600081600501541115611d225760048501548154600091611cea916110d890620f4240612cdc565b9050611d1e611d178360020154611d11620f42406110d88a87612cdc90919063ffffffff16565b90612cd0565b8890612d12565b9650505b50611d2c81613ee7565b9050611c76565b5050611dd5565b600086815260a8602090815260408083206001600160a01b03891684529091528120805486908110611d6e57611d6e613e6d565b90600052602060002090600602019050806005015460001415611dcf5760048301548154600091611da8916110d89064e8d4a51000612cdc565b6002830154909150611dc790611d1164e8d4a510006110d88588612cdc565b945050611af4565b60009350505b50505b9392505050565b60af8181548110610ae757600080fd5b6033546001600160a01b03163314611e195760405162461bcd60e51b815260040161098f90613e83565b60ab80546001600160a01b039384166001600160a01b03199182161790915560ac8054929093169116179055565b6000611dd864e8d4a510006110d88585612cdc565b60a86020528260005260406000206020528160005260406000208181548110611e8457600080fd5b60009182526020909120600690910201805460018201546002830154600384015460048501546005909501549397509195509350919086565b6033546001600160a01b03163314611ee75760405162461bcd60e51b815260040161098f90613e83565b8051610b919060af9060208401906134b1565b6033546001600160a01b03163314611f245760405162461bcd60e51b815260040161098f90613e83565b60b280546001600160a01b0319166001600160a01b0392909216919091179055565b6033546001600160a01b03163314611f705760405162461bcd60e51b815260040161098f90613e83565b6097546001600160a01b0383811691161415611fec5760405162461bcd60e51b815260206004820152603560248201527f217361666520746f20757365205a6f72726f20746f6b656e20696e2066756e6360448201527420696e43617365546f6b656e73476574537475636b60581b606482015260840161098f565b610b916001600160a01b0383163383612b74565b60b2546001600160a01b0316336001600160a01b0316146120515760405162461bcd60e51b815260206004820152600b60248201526a78636861696e206f6e6c7960a81b604482015260640161098f565b61206087878787878787612bd8565b50505050505050565b6033546001600160a01b031633146120935760405162461bcd60e51b815260040161098f90613e83565b609c85905583836000816120a9576120a9613e6d565b6020029190910135609f5550838360018181106120c8576120c8613e6d565b602002919091013560a0555060a25560a155505050565b6033546001600160a01b031633146121095760405162461bcd60e51b815260040161098f90613e83565b60ad80546001600160a01b0319166001600160a01b0392909216919091179055565b6033546001600160a01b031633146121555760405162461bcd60e51b815260040161098f90613e83565b6001600160a01b0381166121ba5760405162461bcd60e51b815260206004820152602660248201527f4f776e61626c653a206e6577206f776e657220697320746865207a65726f206160448201526564647265737360d01b606482015260840161098f565b6121c381612d1e565b50565b6033546001600160a01b031633146121f05760405162461bcd60e51b815260040161098f90613e83565b609b54156122385760405162461bcd60e51b8152602060048201526015602482015274626c6f636b506172616d7320696d6d757461626c6560581b604482015260640161098f565b609b55565b6033546001600160a01b031633146122675760405162461bcd60e51b815260040161098f90613e83565b60a6546001600160a01b031630146122b35760405162461bcd60e51b815260206004820152600f60248201526e37b7363c903437b6b29031b430b4b760891b604482015260640161098f565b609980546001600160a01b039384166001600160a01b031991821617909155609a8054929093169116179055565b604051636eb1769f60e11b81523060048201526001600160a01b038381166024830152600091839186169063dd62ed3e90604401602060405180830381865afa158015612332573d6000803e3d6000fd5b505050506040513d601f19601f820116820180604052508101906123569190613eb8565b6123609190613f02565b6040516001600160a01b0385166024820152604481018290529091506123c690859063095ea7b360e01b906064015b60408051601f198184030181529190526020810180516001600160e01b03166001600160e01b031990931692909217909152612ee8565b50505050565b6040516001600160a01b03808516602483015283166044820152606481018290526123c69085906323b872dd60e01b9060840161238f565b60008060a7888154811061241a5761241a613e6d565b90600052602060002090600602019050600085116124725760405162461bcd60e51b81526020600482015260156024820152745f77616e74416d74206d757374206265203e20302160581b604482015260640161098f565b61247b88611058565b9150866001600160a01b0381166125015760008751116124f25760405162461bcd60e51b815260206004820152602c60248201527f4e65697468657220666f726569676e2061636374206e6f72206c6f63616c206160448201526b18d8dd081c1c9bdd9a59195960a21b606482015260840161098f565b6124fb87613f1a565b60601c90505b6005820154825461251f916001600160a01b039182169116886122e1565b600060a78a8154811061253457612534613e6d565b600091825260209091206006909102016005015460405163ba0bb4ab60e01b81526001600160a01b038481166004830152602482018a90529091169063ba0bb4ab906044016020604051808303816000875af1158015612598573d6000803e3d6000fd5b505050506040513d601f19601f820116820180604052508101906125bc9190613eb8565b609a54600585015491925064e8d4a51000916001600160a01b039081169116146125ec576125e987611afe565b90505b60006125f88383611e47565b600486015490915061260a9082612d12565b60048601819055600090612627906110d88464e8d4a51000612cdc565b905060006040518060c0016040528084815260200185815260200161266264e8d4a510006110d8868c60030154612cdc90919063ffffffff16565b81526020018b81526020018a8152602001600081525090506126868e878e84612fba565b8d8c6040516126959190613f82565b6040518091039020876001600160a01b03167fc6b1f1535b3bb3bdffa2f97a671ab7bd6f2512deec58103fa47eb40ed95274278e6040516126d891815260200190565b60405180910390a4505050505050509695505050505050565b61271c6040518060800160405280600081526020016000815260200160008152602001600081525090565b6001600160a01b038516158015612734575060008451115b8061275157506001600160a01b0385161580159061275157508351155b61279d5760405162461bcd60e51b815260206004820152601d60248201527f4f6e6c79206f6e65206163636f756e74207479706520616c6c6f776564000000604482015260640161098f565b60006127ab878587896130a9565b9050600060a788815481106127c2576127c2613e6d565b9060005260206000209060060201905060008260000151116128265760405162461bcd60e51b815260206004820152601960248201527f7472616e6368652e636f6e747269627574696f6e206973203000000000000000604482015260640161098f565b600081600401541161287a5760405162461bcd60e51b815260206004820152601e60248201527f746f74616c5472616e636865436f6e747269627574696f6e7320697320300000604482015260640161098f565b60a0820151156128c35760405162461bcd60e51b8152602060048201526014602482015273105b1c9958591e48195e1a5d1959081d985d5b1d60621b604482015260640161098f565b6128cc88611058565b6020840152600481015482516000916128ee916110d89064e8d4a51000612cdc565b9050600061291a8460400151611d1164e8d4a510006110d8876003015487612cdc90919063ffffffff16565b905080156129975760008061292f868461324b565b9150915060a55460a454141561297057811561294f5761294f8b836132d7565b801561296b57609a5461296b906001600160a01b0316826132d7565b612994565b61298561dead6129808484612d12565b6132d7565b60408701829052606087018190525b50505b85612b675760a78a815481106129af576129af613e6d565b6000918252602090912060069091020160050154845160405163706655fd60e11b81526001600160a01b038c81166004830152602482019290925291169063e0ccabfa906044016020604051808303816000875af1158015612a15573d6000803e3d6000fd5b505050506040513d601f19601f82011682018060405250810190612a399190613eb8565b5083516004840154612a4a91612cd0565b60048481019190915583546040516370a0823160e01b815230928101929092526001600160a01b0316906370a0823190602401602060405180830381865afa158015612a9a573d6000803e3d6000fd5b505050506040513d601f19601f82011682018060405250810190612abe9190613eb8565b855260008a815260a8602090815260408083206001600160a01b038d1684529091529020805442919089908110612af757612af7613e6d565b9060005260206000209060060201600501819055508988604051612b1b9190613f82565b6040805191829003822088518b84526020840152916001600160a01b038d16917fa7749cd42821d3b82a6814af6d80712b2e43f98ec1b25aee31c8351855de65d9910160405180910390a45b5050505095945050505050565b6040516001600160a01b038316602482015260448101829052612ba490849063a9059cbb60e01b9060640161238f565b505050565b600054610100900460ff16612bd05760405162461bcd60e51b815260040161098f90613f9e565b61165e61336d565b600060a78881548110612bed57612bed613e6d565b600091825260208220600691909102016005015460405163e502a88d60e01b815260048101889052602481018590526001600160a01b039091169250829190829063e502a88d906044016020604051808303816000875af1158015612c56573d6000803e3d6000fd5b505050506040513d601f19601f82011682018060405250810190612c7a9190613eb8565b9050612cb5838260a78d81548110612c9457612c94613e6d565b60009182526020909120600690910201546001600160a01b031691906122e1565b612cc38a8a8a848a8a612404565b5050505050505050505050565b6000611dd88284613fe9565b6000611dd88284614000565b6000611dd8828461401f565b6099546097546121c3916001600160a01b03918216911630846123cc565b6000611dd88284613f02565b603380546001600160a01b038381166001600160a01b0319831681179093556040519116919082907f8be0079c531659141344cd1fd0a4f28419497f9722a3daafe3b4186f6b6457e090600090a35050565b600080600080600060a78981548110612d8b57612d8b613e6d565b600091825260208220600560069092020101546001600160a01b031691508190612db88b8e8e8d8d6126f1565b9050612dd683826000015160a78e81548110612c9457612c94613e6d565b8051604051631921e52960e21b81526004810191909152602481018990526001600160a01b0383169063648794a4906044016020604051808303816000875af1158015612e27573d6000803e3d6000fd5b505050506040513d601f19601f82011682018060405250810190612e4b9190613eb8565b60208201516040830151606090930151919f909e50919c509a5098505050505050505050565b600081612e8057506000919050565b60038211612e9057506001919050565b60006002612e9f846001613f02565b612ea9919061401f565b90508291505b81811015612ee257905080600281612ec7818661401f565b612ed19190613f02565b612edb919061401f565b9050612eaf565b50919050565b6000612f3d826040518060400160405280602081526020017f5361666545524332303a206c6f772d6c6576656c2063616c6c206661696c6564815250856001600160a01b031661339d9092919063ffffffff16565b805190915015612ba45780806020019051810190612f5b9190614041565b612ba45760405162461bcd60e51b815260206004820152602a60248201527f5361666545524332303a204552433230206f7065726174696f6e20646964206e6044820152691bdd081cdd58d8d9595960b21b606482015260840161098f565b600084815260a8602090815260408083206001600160a01b0387168452825280832080546001818101835591855293839020855160069095020193845591840151918301919091558201516002820155606082015160038201556080820151600482015560a08201516005909101558151156123c6578260a96000868152602001908152602001600020836040516130529190613f82565b908152602001604051809103902060006130716001611d118989611190565b815260200190815260200160002060006101000a8154816001600160a01b0302191690836001600160a01b0316021790555050505050565b6130e26040518060c001604052806000815260200160008152602001600081526020016000815260200160008152602001600081525090565b6001600160a01b03821661318057600085815260a8602090815260408083206001600160a01b0386168452909152902080548590811061312457613124613e6d565b90600052602060002090600602016040518060c001604052908160008201548152602001600182015481526020016002820154815260200160038201548152602001600482015481526020016005820154815250509050613243565b600085815260a96020526040808220905161319c908690613f82565b908152604080516020928190038301902060008881529083528181205489825260a884528282206001600160a01b03909116808352935220805491925090869081106131ea576131ea613e6d565b90600052602060002090600602016040518060c001604052908160008201548152602001600182015481526020016002820154815260200160038201548152602001600482015481526020016005820154815250509150505b949350505050565b60008060008311613261575060009050806132d0565b600061328f42611d1161328462093a808960600151612cdc90919063ffffffff16565b608089015190612d12565b905080156132ca5760608501516132b7906132ad9062093a80612cdc565b6110d88684612cdc565b91506132c38483612cd0565b92506132ce565b8392505b505b9250929050565b6097546040516370a0823160e01b815230600482015282916000916001600160a01b03909116906370a0823190602401602060405180830381865afa158015613324573d6000803e3d6000fd5b505050506040513d601f19601f820116820180604052508101906133489190613eb8565b905080831115613356578091505b6097546123c6906001600160a01b03168584612b74565b600054610100900460ff166133945760405162461bcd60e51b815260040161098f90613f9e565b61165e33612d1e565b60606132438484600085856001600160a01b0385163b6133ff5760405162461bcd60e51b815260206004820152601d60248201527f416464726573733a2063616c6c20746f206e6f6e2d636f6e7472616374000000604482015260640161098f565b600080866001600160a01b0316858760405161341b9190613f82565b60006040518083038185875af1925050503d8060008114613458576040519150601f19603f3d011682016040523d82523d6000602084013e61345d565b606091505b509150915061346d828286613478565b979650505050505050565b60608315613487575081611dd8565b8251156134975782518084602001fd5b8160405162461bcd60e51b815260040161098f919061405e565b828054828255906000526020600020908101928215613506579160200282015b8281111561350657825182546001600160a01b0319166001600160a01b039091161782556020909201916001909101906134d1565b50613512929150613516565b5090565b5b808211156135125760008155600101613517565b60008060006060848603121561354057600080fd5b505081359360208301359350604090920135919050565b6001600160a01b03811681146121c357600080fd5b8035611b4f81613557565b6000806040838503121561358a57600080fd5b823561359581613557565b915060208301356135a581613557565b809150509250929050565b6000602082840312156135c257600080fd5b5035919050565b634e487b7160e01b600052604160045260246000fd5b60405161018081016001600160401b0381118282101715613602576136026135c9565b60405290565b604051601f8201601f191681016001600160401b0381118282101715613630576136306135c9565b604052919050565b600082601f83011261364957600080fd5b81356001600160401b03811115613662576136626135c9565b613675601f8201601f1916602001613608565b81815284602083860101111561368a57600080fd5b816020850160208301376000918101602001919091529392505050565b6000806000606084860312156136bc57600080fd5b8335925060208401356001600160401b038111156136d957600080fd5b6136e586828701613638565b925050604084013590509250925092565b600082601f83011261370757600080fd5b813560206001600160401b03821115613722576137226135c9565b8160051b613731828201613608565b928352848101820192828101908785111561374b57600080fd5b83870192505b8483101561346d57823561376481613557565b82529183019190830190613751565b60006020828403121561378557600080fd5b81356001600160401b0381111561379b57600080fd5b613243848285016136f6565b80151581146121c357600080fd5b6000806000606084860312156137ca57600080fd5b833592506020840135915060408401356137e3816137a7565b809150509250925092565b600060c0828403121561380057600080fd5b60405160c081018181106001600160401b0382111715613822576138226135c9565b8060405250809150823581526020830135602082015260408301356040820152606083013560608201526080830135608082015260a083013560a08201525092915050565b600060a0828403121561387957600080fd5b60405160a081018181106001600160401b038211171561389b5761389b6135c9565b8060405250809150823581526020830135602082015260408301356138bf81613557565b604082015260608301356138d281613557565b606082015260808301356138e581613557565b6080919091015292915050565b60006040828403121561390457600080fd5b604051604081018181106001600160401b0382111715613926576139266135c9565b604052905080823561393781613557565b8152602083013561394781613557565b6020919091015292915050565b60006020828403121561396657600080fd5b81356001600160401b038082111561397d57600080fd5b908301906102c0828603121561399257600080fd5b61399a6135df565b6139a38361356c565b81526139b16020840161356c565b60208201526139c26040840161356c565b60408201526139d36060840161356c565b60608201526139e46080840161356c565b60808201526139f560a0840161356c565b60a0820152613a0660c0840161356c565b60c082015260e083013582811115613a1d57600080fd5b613a29878286016136f6565b60e0830152506101008084013583811115613a4357600080fd5b613a4f888287016136f6565b8284015250506101209150613a66868385016137ee565b82820152613a78866101e08501613867565b610140820152613a8c8661028085016138f2565b61016082015295945050505050565b60008060008060008060c08789031215613ab457600080fd5b8635613abf81613557565b955060208701356001600160401b03811115613ada57600080fd5b613ae689828a01613638565b95505060408701359350606087013592506080870135613b05816137a7565b8092505060a087013590509295509295509295565b60008060008060808587031215613b3057600080fd5b5050823594602084013594506040840135936060013592509050565b600060208284031215613b5e57600080fd5b8135611dd881613557565b60008060408385031215613b7c57600080fd5b8235915060208301356135a581613557565b600080600060608486031215613ba357600080fd5b833592506020840135915060408401356137e381613557565b60008060008060808587031215613bd257600080fd5b843593506020850135613be481613557565b92506040850135613bf4816137a7565b91506060850135613c0481613557565b939692955090935050565b600080600080600060a08688031215613c2757600080fd5b505083359560208501359550604085013594606081013594506080013592509050565b600060208284031215613c5c57600080fd5b8135611dd8816137a7565b60008060008060808587031215613c7d57600080fd5b84359350602085013592506040850135613c96816137a7565b9396929550929360600135925050565b600080600060608486031215613cbb57600080fd5b833592506020840135613ccd81613557565b929592945050506040919091013590565b60008060408385031215613cf157600080fd5b50508035926020909101359150565b60008060408385031215613d1357600080fd5b8235613d1e81613557565b946020939093013593505050565b600080600080600080600060e0888a031215613d4757600080fd5b873596506020880135613d5981613557565b955060408801356001600160401b03811115613d7457600080fd5b613d808a828b01613638565b979a96995096976060810135975060808101359660a0820135965060c090910135945092505050565b600080600080600060808688031215613dc157600080fd5b8535945060208601356001600160401b0380821115613ddf57600080fd5b818801915088601f830112613df357600080fd5b813581811115613e0257600080fd5b8960208260051b8501011115613e1757600080fd5b9699602092909201985095966040810135965060600135945092505050565b6020808252601f908201527f5265656e7472616e637947756172643a207265656e7472616e742063616c6c00604082015260600190565b634e487b7160e01b600052603260045260246000fd5b6020808252818101527f4f776e61626c653a2063616c6c6572206973206e6f7420746865206f776e6572604082015260600190565b600060208284031215613eca57600080fd5b5051919050565b634e487b7160e01b600052601160045260246000fd5b6000600019821415613efb57613efb613ed1565b5060010190565b60008219821115613f1557613f15613ed1565b500190565b805160208201516bffffffffffffffffffffffff198082169291906014831015613f4e5780818460140360031b1b83161693505b505050919050565b60005b83811015613f71578181015183820152602001613f59565b838111156123c65750506000910152565b60008251613f94818460208701613f56565b9190910192915050565b6020808252602b908201527f496e697469616c697a61626c653a20636f6e7472616374206973206e6f74206960408201526a6e697469616c697a696e6760a81b606082015260800190565b600082821015613ffb57613ffb613ed1565b500390565b600081600019048311821515161561401a5761401a613ed1565b500290565b60008261403c57634e487b7160e01b600052601260045260246000fd5b500490565b60006020828403121561405357600080fd5b8151611dd8816137a7565b602081526000825180602084015261407d816040850160208701613f56565b601f01601f1916919091016040019291505056fea26469706673582212205952082e05c7ce0e4faf820e21447973871aae6de95b3f84e4980c279387eaad64736f6c634300080a0033",
  "immutableReferences": {},
  "source": "// SPDX-License-Identifier: MIT\npragma solidity ^0.8.0;\n\nimport \"./_ZorroControllerBase.sol\";\n\nimport \"./_ZorroControllerPoolMgmt.sol\";\n\nimport \"./_ZorroControllerInvestment.sol\";\n\nimport \"./_ZorroControllerAnalytics.sol\";\n\nimport \"./_ZorroControllerXChainReceiver.sol\";\n\nimport \"./_ZorroControllerXChainDeposit.sol\";\n\nimport \"./_ZorroControllerXChainWithdraw.sol\";\n\nimport \"./_ZorroControllerXChainEarn.sol\";\n\n/* Main Contract */\n/// @title ZorroController: The main controller of the Zorro yield farming protocol. Used for cash flow operations (deposit/withdrawal), managing vaults, and rewards allocations, among other things.\ncontract ZorroController is\n    ZorroControllerBase,\n    ZorroControllerPoolMgmt,\n    ZorroControllerAnalytics,\n    ZorroControllerInvestment\n{\n    /* Constructor */\n\n    /// @notice Upgradeable constructor\n    /// @param _initValue A ZorroControllerInit struct containing all constructor args\n    function initialize(ZorroControllerInit memory _initValue) public initializer {\n        // Tokens\n        ZORRO = _initValue.ZORRO;\n        defaultStablecoin = _initValue.defaultStablecoin;\n        zorroLPPoolOtherToken = _initValue.zorroLPPoolOtherToken;\n\n        // Key contracts\n        publicPool = _initValue.publicPool;\n        zorroStakingVault = _initValue.zorroStakingVault;\n        zorroLPPool = _initValue.zorroLPPool;\n        uniRouterAddress = _initValue.uniRouterAddress;\n\n        // Rewards\n        ZORRODailyDistributionFactorBasisPointsMin = 1;\n        ZORRODailyDistributionFactorBasisPointsMax = 20;\n        isTimeMultiplierActive = true;\n        blocksPerDay = _initValue.rewards.blocksPerDay;\n        startBlock = _initValue.rewards.startBlock;\n        ZORROPerBlock = _initValue.rewards.ZORROPerBlock;\n        targetTVLCaptureBasisPoints = _initValue\n            .rewards\n            .targetTVLCaptureBasisPoints;\n        chainMultiplier = _initValue.rewards.chainMultiplier;\n        baseRewardRateBasisPoints = _initValue.rewards.chainMultiplier;\n\n        // Cross chain\n        chainId = _initValue.xChain.chainId;\n        homeChainId = _initValue.xChain.homeChainId;\n        homeChainZorroController = _initValue.xChain.homeChainZorroController;\n        zorroControllerOracle = _initValue.xChain.zorroControllerOracle;\n        zorroXChainEndpoint = _initValue.xChain.zorroXChainEndpoint;\n\n        // Investment\n        USDCToZorroPath = _initValue.USDCToZorroPath;\n        USDCToZorroLPPoolOtherTokenPath = _initValue\n            .USDCToZorroLPPoolOtherTokenPath;\n\n        // Price feeds\n        priceFeedZOR = AggregatorV3Interface(\n            _initValue.priceFeeds.priceFeedZOR\n        );\n        priceFeedLPPoolOtherToken = AggregatorV3Interface(\n            _initValue.priceFeeds.priceFeedLPPoolOtherToken\n        );\n\n        // Ownable\n        __Ownable_init();\n    }\n\n    /* Structs */\n\n    struct ZorroControllerRewards {\n        uint256 blocksPerDay;\n        uint256 startBlock;\n        uint256 ZORROPerBlock;\n        uint256 targetTVLCaptureBasisPoints;\n        uint256 chainMultiplier;\n        uint256 baseRewardRateBasisPoints;\n    }\n\n    struct ZorroControllerXChainParams {\n        uint256 chainId;\n        uint256 homeChainId;\n        address homeChainZorroController;\n        address zorroControllerOracle;\n        address zorroXChainEndpoint;\n    }\n\n    struct ZorroControllerPriceFeeds {\n        address priceFeedZOR;\n        address priceFeedLPPoolOtherToken;\n    }\n\n    struct ZorroControllerInit {\n        address ZORRO;\n        address defaultStablecoin;\n        address zorroLPPoolOtherToken;\n        address publicPool;\n        address zorroStakingVault;\n        address zorroLPPool;\n        address uniRouterAddress;\n        address[] USDCToZorroPath;\n        address[] USDCToZorroLPPoolOtherTokenPath;\n        ZorroControllerRewards rewards;\n        ZorroControllerXChainParams xChain;\n        ZorroControllerPriceFeeds priceFeeds;\n    }\n}\n",
  "sourcePath": "/Users/kristophm/Documents/workspace/zorro-protocol/contracts/controllers/ZorroController.sol",
  "compiler": {
    "name": "solc",
    "version": "0.8.10+commit.fc410830.Emscripten.clang"
  },
  "schemaVersion": "3.4.4",
  "updatedAt": "2022-05-09T01:53:56.023Z",
  "networkType": "ethereum",
  "devdoc": {
    "kind": "dev",
    "methods": {
      "add(uint256,address,bool,address)": {
        "details": "DO NOT add the same Want token more than once. Rewards will be messed up if you do. (Only if Want tokens are stored here.)",
        "params": {
          "_allocPoint": "The number of allocation points for this pool (aka \"multiplier\")",
          "_vault": "The contract address of the underlying vault",
          "_want": "The address of the want token",
          "_withUpdate": "Mass update all pools if set to true"
        }
      },
      "deposit(uint256,uint256,uint256)": {
        "params": {
          "_pid": "index of pool",
          "_wantAmt": "how much Want token to deposit",
          "_weeksCommitted": "how many weeks the user is committing to on this vault"
        }
      },
      "depositFullService(uint256,uint256,uint256,uint256)": {
        "params": {
          "_maxMarketMovement": "factor to account for max market movement/slippage. The definition varies by Vault, so consult the associated Vault contract for info",
          "_pid": "index of pool to deposit into",
          "_valueUSDC": "value in USDC (in ether units) to deposit",
          "_weeksCommitted": "how many weeks to commit to the Pool (can be 0 or any uint)"
        }
      },
      "depositFullServiceFromXChain(uint256,address,bytes,uint256,uint256,uint256,uint256)": {
        "params": {
          "_account": "address of user on-chain",
          "_foreignAccount": "the cross chain wallet that initiated this call, if applicable.",
          "_maxMarketMovement": "factor to account for max market movement/slippage. The definition varies by Vault, so consult the associated Vault contract for info",
          "_pid": "index of pool to deposit into",
          "_valueUSDC": "value in USDC (in ether units) to deposit",
          "_vaultEnteredAt": "date that the vault was entered at",
          "_weeksCommitted": "how many weeks to commit to the Pool (can be 0 or any uint)"
        }
      },
      "getTimeMultiplier(uint256)": {
        "params": {
          "durationInWeeks": "number of weeks committed into Vault"
        },
        "returns": {
          "_0": "multiplier factor, times 1e12"
        }
      },
      "getUserContribution(uint256,uint256)": {
        "params": {
          "_liquidityCommitted": "How many tokens staked (e.g. LP tokens)",
          "_timeMultiplier": "Time multiplier value (from getTimeMultiplier())"
        },
        "returns": {
          "_0": "uint256 The relative contribution of the user (unitless)"
        }
      },
      "inCaseTokensGetStuck(address,uint256)": {
        "details": "Does not permit usage for the Zorro token",
        "params": {
          "_amount": "token quantity",
          "_token": "ERC20 token address"
        }
      },
      "initialize((address,address,address,address,address,address,address,address[],address[],(uint256,uint256,uint256,uint256,uint256,uint256),(uint256,uint256,address,address,address),(address,address)))": {
        "params": {
          "_initValue": "A ZorroControllerInit struct containing all constructor args"
        }
      },
      "massUpdatePools()": {
        "details": "Be careful of gas fees!",
        "returns": {
          "_mintedZOR": "total amount of ZOR rewards minted (useful for cross chain)"
        }
      },
      "owner()": {
        "details": "Returns the address of the current owner."
      },
      "pendingZORRORewards(uint256,address,int256)": {
        "params": {
          "_account": "Wallet address of on chain account",
          "_pid": "Index of pool",
          "_trancheId": "Tranche ID. If -1, will do pending rewards for all active tranches"
        },
        "returns": {
          "_pendingRewards": "Amount of Zorro rewards"
        }
      },
      "poolLength()": {
        "returns": {
          "_0": "Number of pools"
        }
      },
      "renounceOwnership()": {
        "details": "Leaves the contract without owner. It will not be possible to call `onlyOwner` functions anymore. Can only be called by the current owner. NOTE: Renouncing ownership will leave the contract without an owner, thereby removing any functionality that is only available to the owner."
      },
      "set(uint256,uint256,bool)": {
        "params": {
          "_allocPoint": "The number of allocation points for this pool (aka \"multiplier\")",
          "_pid": "The index of the pool ID",
          "_withUpdate": "Mass update all pools if set to true"
        }
      },
      "setIsTimeMultiplierActive(bool)": {
        "params": {
          "_isActive": "Whether it shall be active. If false, timemultiplier will be 1."
        }
      },
      "setKeyAddresses(address,address)": {
        "params": {
          "_ZORRO": "ZOR token address",
          "_defaultStablecoin": "Main stablecoin address (USDC)"
        }
      },
      "setPriceFeeds(address,address)": {
        "params": {
          "_priceFeedLPPoolOtherToken": "The address of the price feed for the counterparty token in the ZOR LP Pool",
          "_priceFeedZOR": "The address of the price feed for ZOR"
        }
      },
      "setRewardsParams(uint256,uint256[],uint256,uint256)": {
        "details": "NOTE: Must enter all parameters or existing ones will be overwritten!",
        "params": {
          "_baseRewardRateBasisPoints": "Base reward rate factor, in bp",
          "_blocksPerDay": "# of blocks per day for this chain",
          "_chainMultiplier": "Rewards multiplier factor to be applied to this chain",
          "_dailyDistFactors": "Array of [ZORRODailyDistributionFactorBasisPointsMin, ZORRODailyDistributionFactorBasisPointsMax]"
        }
      },
      "setTargetTVLCaptureBasisPoints(uint256)": {
        "params": {
          "_targetTVLCaptureBasisPoints": "Percent of market desired to be captured, in bp. 333 = 3.33%. ONLY to be set on the home chain"
        }
      },
      "setUSDCToZORPath(address[])": {
        "params": {
          "_path": "Swap path"
        }
      },
      "setUSDCToZorroLPPoolOtherTokenPath(address[])": {
        "params": {
          "_path": "Swap path"
        }
      },
      "setUniRouter(address)": {
        "params": {
          "_uniV2Router": "Address of router"
        }
      },
      "setXChainParams(uint256,uint256,address)": {
        "params": {
          "_chainId": "The ind of the chain that this contract is on",
          "_homeChainId": "The chain ID of the home chain",
          "_homeChainZorroController": "The address of the home chain controller"
        }
      },
      "setZorroContracts(address,address)": {
        "params": {
          "_publicPool": "Public pool address (where ZOR minted)",
          "_zorroStakingVault": "Zorro single staking vault address"
        }
      },
      "setZorroControllerOracle(address)": {
        "params": {
          "_zorroControllerOracle": "Address of Chainlink oracle that can interact with this contract"
        }
      },
      "setZorroLPPoolParams(address,address)": {
        "params": {
          "_zorroLPPool": "Address of the Zorro-X LP pool",
          "_zorroLPPoolOtherToken": "Address of the counterpart token to the ZOR token in the LP Pool"
        }
      },
      "setZorroPerBlock(uint256,uint256,uint256,uint256,uint256)": {
        "details": "Values to be provided by Oracle. Perferable to run daily",
        "params": {
          "_ZorroTotalVaultTVLUSD": "USD value of all TVL locked into the Zorro protocol, across all chains",
          "_publicPoolZORBalance": "Number of ZOR tokens remaining in public pool on home chain",
          "_targetTVLCaptureBasisPoints": "% desired capture of total market TVL, measured in basis points",
          "_totalChainMultipliers": "Sum total of all chain multipliers for each chain",
          "_totalMarketTVLUSD": "Total DeFi market TVL across all chains (measured in USD)"
        }
      },
      "setZorroXChainEndpoint(address)": {
        "params": {
          "_contract": "Contract address of endpoint"
        }
      },
      "stakedWantTokens(uint256,address,int256)": {
        "params": {
          "_account": "Wallet address of on chain account",
          "_pid": "Index of pool",
          "_trancheId": "Tranche ID, or -1 to aggregate across all tranches"
        },
        "returns": {
          "_stakedWantTokens": "Amount of staked Want tokens"
        }
      },
      "trancheLength(uint256,address)": {
        "params": {
          "_pid": "Index of pool",
          "_user": "wallet address of user"
        },
        "returns": {
          "_0": "Number of tranches"
        }
      },
      "transferInvestment(uint256,uint256,uint256,uint256)": {
        "params": {
          "_fromPid": "index of pool FROM",
          "_fromTrancheId": "index of tranche FROM",
          "_maxMarketMovement": "factor to account for max market movement/slippage. The definition varies by Vault, so consult the associated Vault contract for info",
          "_toPid": "index of pool TO"
        }
      },
      "transferOwnership(address)": {
        "details": "Transfers ownership of the contract to a new account (`newOwner`). Can only be called by the current owner."
      },
      "updatePool(uint256)": {
        "params": {
          "_pid": "index of pool"
        },
        "returns": {
          "mintedZOR": "Amount of ZOR rewards minted (useful for cross chain)"
        }
      },
      "withdraw(uint256,uint256,bool)": {
        "params": {
          "_harvestOnly": "If true, will only harvest Zorro tokens but not do a withdrawal",
          "_pid": "index of pool",
          "_trancheId": "index of tranche"
        },
        "returns": {
          "_0": "Amount of Want token withdrawn"
        }
      },
      "withdrawAll(uint256)": {
        "params": {
          "_pid": "index of pool"
        }
      },
      "withdrawalFullService(uint256,uint256,bool,uint256)": {
        "params": {
          "_harvestOnly": "If true, will only harvest Zorro tokens but not do a withdrawal",
          "_maxMarketMovement": "factor to account for max market movement/slippage. The definition varies by Vault, so consult the associated Vault contract for info",
          "_pid": "index of pool to deposit into",
          "_trancheId": "index of tranche"
        },
        "returns": {
          "_0": "Amount (in USDC) returned"
        }
      },
      "withdrawalFullServiceFromXChain(address,bytes,uint256,uint256,bool,uint256)": {
        "params": {
          "_account": "address of wallet on-chain",
          "_foreignAccount": "address of wallet cross-chain (that originally made this deposit)",
          "_harvestOnly": "If true, will only harvest Zorro tokens but not do a withdrawal",
          "_maxMarketMovement": "factor to account for max market movement/slippage. The definition varies by Vault, so consult the associated Vault contract for info",
          "_pid": "index of pool to deposit into",
          "_trancheId": "index of tranche"
        },
        "returns": {
          "_amountUSDC": "Amount of USDC withdrawn",
          "_mintedZORRewards": "Amount of ZOR rewards minted (to be burned XChain)",
          "_rewardsDueXChain": "Amount of ZOR rewards due to the origin (cross chain) user",
          "_slashedRewardsXChain": "Amount of ZOR rewards to be slashed (and thus rewarded to ZOR stakers)"
        }
      }
    },
    "title": "ZorroController: The main controller of the Zorro yield farming protocol. Used for cash flow operations (deposit/withdrawal), managing vaults, and rewards allocations, among other things.",
    "version": 1
  },
  "userdoc": {
    "kind": "user",
    "methods": {
      "add(uint256,address,bool,address)": {
        "notice": "Adds a new pool. Can only be called by the owner."
      },
      "deposit(uint256,uint256,uint256)": {
        "notice": "Deposit Want tokens to associated Vault"
      },
      "depositFullService(uint256,uint256,uint256,uint256)": {
        "notice": "Deposits funds in a full service manner (performs autoswaps and obtains Want tokens)"
      },
      "depositFullServiceFromXChain(uint256,address,bytes,uint256,uint256,uint256,uint256)": {
        "notice": "Full service deposit function to be called by ZorroControllerXChain only."
      },
      "getTimeMultiplier(uint256)": {
        "notice": "Calculate time multiplier based on duration committed"
      },
      "getUserContribution(uint256,uint256)": {
        "notice": "The contribution of the user, meant to be used in rewards allocations"
      },
      "inCaseTokensGetStuck(address,uint256)": {
        "notice": "For owner to recover ERC20 tokens on this contract if stuck"
      },
      "initialize((address,address,address,address,address,address,address,address[],address[],(uint256,uint256,uint256,uint256,uint256,uint256),(uint256,uint256,address,address,address),(address,address)))": {
        "notice": "Upgradeable constructor"
      },
      "massUpdatePools()": {
        "notice": "Updates reward variables of all pools"
      },
      "pendingZORRORewards(uint256,address,int256)": {
        "notice": "View function to see pending ZORRO on frontend."
      },
      "poolLength()": {
        "notice": "Number of pools in the Zorro protocol"
      },
      "set(uint256,uint256,bool)": {
        "notice": "Update the given pool's ZORRO allocation point. Can only be called by the owner."
      },
      "setIsTimeMultiplierActive(bool)": {
        "notice": "Setter: Set time multiplier"
      },
      "setKeyAddresses(address,address)": {
        "notice": "Setter: Set key token addresses"
      },
      "setPriceFeeds(address,address)": {
        "notice": "Setter: Chainlink price feeds"
      },
      "setRewardsParams(uint256,uint256[],uint256,uint256)": {
        "notice": "Setter: Reward params (See Tokenomics paper for more details)"
      },
      "setStartBlock(uint256)": {
        "notice": "Setter: Start block for rewards"
      },
      "setTargetTVLCaptureBasisPoints(uint256)": {
        "notice": "Setter: TVL capture (See Tokenomics paper)"
      },
      "setUSDCToZORPath(address[])": {
        "notice": "Setter: Set path for token swap from USDC to ZOR"
      },
      "setUSDCToZorroLPPoolOtherTokenPath(address[])": {
        "notice": "Setter: Set path for token swap from USDC to counterparty token in ZOR LP pool"
      },
      "setUniRouter(address)": {
        "notice": "Setter: Uniswap-compatible router address"
      },
      "setXChainParams(uint256,uint256,address)": {
        "notice": "Setter: Cross chain params"
      },
      "setZorroContracts(address,address)": {
        "notice": "Setter: Set key ZOR contract addresses"
      },
      "setZorroControllerOracle(address)": {
        "notice": "Setter: Set Zorro Controller Oracle"
      },
      "setZorroLPPoolParams(address,address)": {
        "notice": "Setter: Zorro LP Pool params"
      },
      "setZorroPerBlock(uint256,uint256,uint256,uint256,uint256)": {
        "notice": "Set the number of Zorro to emit per block based on current market parameters"
      },
      "setZorroXChainEndpoint(address)": {
        "notice": "Setter: Cross chain endpoint"
      },
      "stakedWantTokens(uint256,address,int256)": {
        "notice": "View function to see staked Want tokens on frontend."
      },
      "trancheLength(uint256,address)": {
        "notice": "Number of tranches invested by a given user into a given pool"
      },
      "transferInvestment(uint256,uint256,uint256,uint256)": {
        "notice": "Transfer all assets from a tranche in one vault to a new vault (works on-chain only)"
      },
      "updatePool(uint256)": {
        "notice": "Update reward variables of the given pool to be up-to-date."
      },
      "withdraw(uint256,uint256,bool)": {
        "notice": "Fully withdraw Want tokens from underlying Vault."
      },
      "withdrawAll(uint256)": {
        "notice": "Withdraw the maximum number of Want tokens from a pool"
      },
      "withdrawalFullService(uint256,uint256,bool,uint256)": {
        "notice": "Withdraws funds from a pool and converts the Want token into USDC"
      },
      "withdrawalFullServiceFromXChain(address,bytes,uint256,uint256,bool,uint256)": {
        "notice": "Full service withdrawal to be called from authorized cross chain endpoint"
      }
    },
    "version": 1
  }
}