{
  "contractName": "ZorroControllerXChainDeposit",
  "abi": [
    {
      "anonymous": false,
      "inputs": [
        {
          "indexed": true,
          "internalType": "address",
          "name": "previousOwner",
          "type": "address"
        },
        {
          "indexed": true,
          "internalType": "address",
          "name": "newOwner",
          "type": "address"
        }
      ],
      "name": "OwnershipTransferred",
      "type": "event"
    },
    {
      "inputs": [
        {
          "internalType": "uint16",
          "name": "",
          "type": "uint16"
        }
      ],
      "name": "LZChainToZorroMap",
      "outputs": [
        {
          "internalType": "uint256",
          "name": "",
          "type": "uint256"
        }
      ],
      "stateMutability": "view",
      "type": "function"
    },
    {
      "inputs": [],
      "name": "ZORRO",
      "outputs": [
        {
          "internalType": "address",
          "name": "",
          "type": "address"
        }
      ],
      "stateMutability": "view",
      "type": "function"
    },
    {
      "inputs": [
        {
          "internalType": "uint256",
          "name": "",
          "type": "uint256"
        }
      ],
      "name": "ZorroChainToLZMap",
      "outputs": [
        {
          "internalType": "uint16",
          "name": "",
          "type": "uint16"
        }
      ],
      "stateMutability": "view",
      "type": "function"
    },
    {
      "inputs": [
        {
          "internalType": "uint256",
          "name": "",
          "type": "uint256"
        }
      ],
      "name": "controllerContractsMap",
      "outputs": [
        {
          "internalType": "bytes",
          "name": "",
          "type": "bytes"
        }
      ],
      "stateMutability": "view",
      "type": "function"
    },
    {
      "inputs": [],
      "name": "currentChainController",
      "outputs": [
        {
          "internalType": "address",
          "name": "",
          "type": "address"
        }
      ],
      "stateMutability": "view",
      "type": "function"
    },
    {
      "inputs": [],
      "name": "defaultStablecoin",
      "outputs": [
        {
          "internalType": "address",
          "name": "",
          "type": "address"
        }
      ],
      "stateMutability": "view",
      "type": "function"
    },
    {
      "inputs": [],
      "name": "homeChainZorroController",
      "outputs": [
        {
          "internalType": "address",
          "name": "",
          "type": "address"
        }
      ],
      "stateMutability": "view",
      "type": "function"
    },
    {
      "inputs": [],
      "name": "layerZeroEndpoint",
      "outputs": [
        {
          "internalType": "address",
          "name": "",
          "type": "address"
        }
      ],
      "stateMutability": "view",
      "type": "function"
    },
    {
      "inputs": [],
      "name": "owner",
      "outputs": [
        {
          "internalType": "address",
          "name": "",
          "type": "address"
        }
      ],
      "stateMutability": "view",
      "type": "function"
    },
    {
      "inputs": [],
      "name": "publicPool",
      "outputs": [
        {
          "internalType": "address",
          "name": "",
          "type": "address"
        }
      ],
      "stateMutability": "view",
      "type": "function"
    },
    {
      "inputs": [],
      "name": "renounceOwnership",
      "outputs": [],
      "stateMutability": "nonpayable",
      "type": "function"
    },
    {
      "inputs": [
        {
          "internalType": "uint256[]",
          "name": "_chainIds",
          "type": "uint256[]"
        }
      ],
      "name": "setChains",
      "outputs": [],
      "stateMutability": "nonpayable",
      "type": "function"
    },
    {
      "inputs": [
        {
          "internalType": "uint256",
          "name": "_zorroChainId",
          "type": "uint256"
        },
        {
          "internalType": "bytes",
          "name": "_controller",
          "type": "bytes"
        }
      ],
      "name": "setControllerContract",
      "outputs": [],
      "stateMutability": "nonpayable",
      "type": "function"
    },
    {
      "inputs": [
        {
          "internalType": "address[]",
          "name": "_contracts",
          "type": "address[]"
        }
      ],
      "name": "setKeyContracts",
      "outputs": [],
      "stateMutability": "nonpayable",
      "type": "function"
    },
    {
      "inputs": [
        {
          "internalType": "address",
          "name": "_stargateRouter",
          "type": "address"
        },
        {
          "internalType": "uint256",
          "name": "_stargateSwapPoolId",
          "type": "uint256"
        },
        {
          "internalType": "address",
          "name": "_layerZeroEndpoint",
          "type": "address"
        }
      ],
      "name": "setLayerZeroParams",
      "outputs": [],
      "stateMutability": "nonpayable",
      "type": "function"
    },
    {
      "inputs": [
        {
          "internalType": "uint256",
          "name": "_zorroChainId",
          "type": "uint256"
        },
        {
          "internalType": "uint16",
          "name": "_stargatePoolId",
          "type": "uint16"
        }
      ],
      "name": "setStargateDestPoolIds",
      "outputs": [],
      "stateMutability": "nonpayable",
      "type": "function"
    },
    {
      "inputs": [
        {
          "internalType": "address[]",
          "name": "_tokens",
          "type": "address[]"
        }
      ],
      "name": "setTokens",
      "outputs": [],
      "stateMutability": "nonpayable",
      "type": "function"
    },
    {
      "inputs": [
        {
          "internalType": "uint256",
          "name": "_zorroChainId",
          "type": "uint256"
        },
        {
          "internalType": "uint16",
          "name": "_lzChainId",
          "type": "uint16"
        }
      ],
      "name": "setZorroChainToLZMap",
      "outputs": [],
      "stateMutability": "nonpayable",
      "type": "function"
    },
    {
      "inputs": [
        {
          "internalType": "uint256",
          "name": "",
          "type": "uint256"
        }
      ],
      "name": "stargateDestPoolIds",
      "outputs": [
        {
          "internalType": "uint256",
          "name": "",
          "type": "uint256"
        }
      ],
      "stateMutability": "view",
      "type": "function"
    },
    {
      "inputs": [],
      "name": "stargateRouter",
      "outputs": [
        {
          "internalType": "address",
          "name": "",
          "type": "address"
        }
      ],
      "stateMutability": "view",
      "type": "function"
    },
    {
      "inputs": [],
      "name": "stargateSwapPoolId",
      "outputs": [
        {
          "internalType": "uint256",
          "name": "",
          "type": "uint256"
        }
      ],
      "stateMutability": "view",
      "type": "function"
    },
    {
      "inputs": [
        {
          "internalType": "address",
          "name": "newOwner",
          "type": "address"
        }
      ],
      "name": "transferOwnership",
      "outputs": [],
      "stateMutability": "nonpayable",
      "type": "function"
    },
    {
      "inputs": [
        {
          "internalType": "uint256",
          "name": "_chainId",
          "type": "uint256"
        },
        {
          "internalType": "bytes",
          "name": "_dstContract",
          "type": "bytes"
        },
        {
          "internalType": "uint256",
          "name": "_pid",
          "type": "uint256"
        },
        {
          "internalType": "uint256",
          "name": "_valueUSDC",
          "type": "uint256"
        },
        {
          "internalType": "uint256",
          "name": "_weeksCommitted",
          "type": "uint256"
        },
        {
          "internalType": "uint256",
          "name": "_maxMarketMovement",
          "type": "uint256"
        },
        {
          "internalType": "bytes",
          "name": "_destWallet",
          "type": "bytes"
        }
      ],
      "name": "checkXChainDepositFee",
      "outputs": [
        {
          "internalType": "uint256",
          "name": "",
          "type": "uint256"
        }
      ],
      "stateMutability": "view",
      "type": "function"
    },
    {
      "inputs": [
        {
          "internalType": "uint256",
          "name": "_zorroChainId",
          "type": "uint256"
        },
        {
          "internalType": "uint256",
          "name": "_pid",
          "type": "uint256"
        },
        {
          "internalType": "uint256",
          "name": "_valueUSDC",
          "type": "uint256"
        },
        {
          "internalType": "uint256",
          "name": "_weeksCommitted",
          "type": "uint256"
        },
        {
          "internalType": "uint256",
          "name": "_maxMarketMovement",
          "type": "uint256"
        },
        {
          "internalType": "bytes",
          "name": "_destWallet",
          "type": "bytes"
        }
      ],
      "name": "sendXChainDepositRequest",
      "outputs": [],
      "stateMutability": "payable",
      "type": "function"
    },
    {
      "inputs": [
        {
          "internalType": "uint256",
          "name": "_pid",
          "type": "uint256"
        },
        {
          "internalType": "uint256",
          "name": "_valueUSDC",
          "type": "uint256"
        },
        {
          "internalType": "uint256",
          "name": "_weeksCommitted",
          "type": "uint256"
        },
        {
          "internalType": "uint256",
          "name": "_maxMarketMovement",
          "type": "uint256"
        },
        {
          "internalType": "bytes",
          "name": "_originAccount",
          "type": "bytes"
        },
        {
          "internalType": "address",
          "name": "_destAccount",
          "type": "address"
        }
      ],
      "name": "receiveXChainDepositRequest",
      "outputs": [],
      "stateMutability": "nonpayable",
      "type": "function"
    }
  ],
  "bytecode": "0x608060405234801561001057600080fd5b50611bf8806100206000396000f3fe608060405260043610610183576000357c010000000000000000000000000000000000000000000000000000000090048063715018a6116100ee578063a2df085c116100a7578063c9f363c411610081578063c9f363c41461047c578063cd01af481461049c578063f2fde38b146104bc578063fc39a29e146104dc57600080fd5b8063a2df085c14610429578063a9e56f3c1461043c578063b61bb80a1461045c57600080fd5b8063715018a6146103765780637bd455221461038b5780637f633ea8146103ab5780638b5694d6146103cb5780638c157db2146103eb5780638da5cb5b1461040b57600080fd5b80634bf76174116101405780634bf76174146102b35780635790f599146102d3578063593af9fe146102e9578063625adaf214610316578063668ababb14610336578063692d8b8b1461035657600080fd5b806307968db11461018857806313a2e880146101c557806315230ae6146101e7578063219b38b814610207578063293da9d414610242578063459f47531461026f575b600080fd5b34801561019457600080fd5b5060a4546101a890600160a060020a031681565b604051600160a060020a0390911681526020015b60405180910390f35b3480156101d157600080fd5b506101e56101e0366004611456565b6104fc565b005b3480156101f357600080fd5b50609a546101a890600160a060020a031681565b34801561021357600080fd5b506102346102223660046114d2565b60a36020526000908152604090205481565b6040519081526020016101bc565b34801561024e57600080fd5b5061023461025d366004611502565b60a06020526000908152604090205481565b34801561027b57600080fd5b506102a061028a3660046114d2565b609f6020526000908152604090205461ffff1681565b60405161ffff90911681526020016101bc565b3480156102bf57600080fd5b506101e56102ce366004611568565b610551565b3480156102df57600080fd5b5061023460a25481565b3480156102f557600080fd5b506103096103043660046114d2565b61065a565b6040516101bc9190611602565b34801561032257600080fd5b506101e5610331366004611568565b6106f4565b34801561034257600080fd5b50609b546101a890600160a060020a031681565b34801561036257600080fd5b506101e56103713660046116d2565b6107b5565b34801561038257600080fd5b506101e5610800565b34801561039757600080fd5b506101e56103a6366004611745565b610839565b3480156103b757600080fd5b506101e56103c6366004611781565b61089a565b3480156103d757600080fd5b506101e56103e6366004611781565b6108f6565b3480156103f757600080fd5b506098546101a890600160a060020a031681565b34801561041757600080fd5b50603354600160a060020a03166101a8565b6101e56104373660046117ad565b61093c565b34801561044857600080fd5b5060a1546101a890600160a060020a031681565b34801561046857600080fd5b506097546101a890600160a060020a031681565b34801561048857600080fd5b50610234610497366004611819565b610b8b565b3480156104a857600080fd5b506101e56104b7366004611568565b610c71565b3480156104c857600080fd5b506101e56104d73660046118ad565b610ce0565b3480156104e857600080fd5b506099546101a890600160a060020a031681565b603354600160a060020a031633146105325760405160e560020a62461bcd028152600401610529906118c8565b60405180910390fd5b6000838152609e6020526040902061054b9083836113bd565b50505050565b603354600160a060020a0316331461057e5760405160e560020a62461bcd028152600401610529906118c8565b81816000818110610591576105916118fd565b90506020020160208101906105a691906118ad565b60998054600160a060020a031916600160a060020a0392909216919091179055818160018181106105d9576105d96118fd565b90506020020160208101906105ee91906118ad565b609a8054600160a060020a031916600160a060020a039290921691909117905581816002818110610621576106216118fd565b905060200201602081019061063691906118ad565b609b8054600160a060020a031916600160a060020a03929092169190911790555050565b609e602052600090815260409020805461067390611916565b80601f016020809104026020016040519081016040528092919081815260200182805461069f90611916565b80156106ec5780601f106106c1576101008083540402835291602001916106ec565b820191906000526020600020905b8154815290600101906020018083116106cf57829003601f168201915b505050505081565b603354600160a060020a031633146107215760405160e560020a62461bcd028152600401610529906118c8565b81816000818110610734576107346118fd565b905060200201602081019061074991906118ad565b60978054600160a060020a031916600160a060020a03929092169190911790558181600181811061077c5761077c6118fd565b905060200201602081019061079191906118ad565b60988054600160a060020a031916600160a060020a03929092169190911790555050565b60405160e560020a62461bcd02815260206004820152601760248201527f696c6c6567616c2064756d6d792066756e632063616c6c0000000000000000006044820152606401610529565b603354600160a060020a0316331461082d5760405160e560020a62461bcd028152600401610529906118c8565b6108376000610d98565b565b603354600160a060020a031633146108665760405160e560020a62461bcd028152600401610529906118c8565b60a18054600160a060020a03948516600160a060020a03199182161790915560a29290925560a48054919093169116179055565b603354600160a060020a031633146108c75760405160e560020a62461bcd028152600401610529906118c8565b6000828152609f60209081526040808320805461ffff90951661ffff199095168517905592825260a090522055565b603354600160a060020a031633146109235760405160e560020a62461bcd028152600401610529906118c8565b600091825260a3602052604090912061ffff9091169055565b600260655414156109925760405160e560020a62461bcd02815260206004820152601f60248201527f5265656e7472616e637947756172643a207265656e7472616e742063616c6c006044820152606401610529565b6002606555346109e75760405160e560020a62461bcd02815260206004820152601160248201527f4e6f2066656573207375626d69747465640000000000000000000000000000006044820152606401610529565b6097546109fe90600160a060020a03163086610dea565b609754610a1690600160a060020a0316333087610f2b565b6097546040517f70a08231000000000000000000000000000000000000000000000000000000008152306004820152600091600160a060020a0316906370a0823190602401602060405180830381865afa158015610a78573d6000803e3d6000fd5b505050506040513d601f19601f82011682018060405250810190610a9c9190611954565b90506000610aae878387873388610f7c565b6000898152609e6020526040812080549293509091610acc90611916565b80601f0160208091040260200160405190810160405280929190818152602001828054610af890611916565b8015610b455780601f10610b1a57610100808354040283529160200191610b45565b820191906000526020600020905b815481529060010190602001808311610b2857829003601f168201915b50505050509050610b7b6040518060a001604052808b815260200185815260200183815260200184815260200187815250611000565b5050600160655550505050505050565b6040805160608082018352600080835260208301819052928201526000610bb6888888883389610f7c565b60a15460008c8152609f60205260408082205490517f0a5123690000000000000000000000000000000000000000000000000000000081529394509092600160a060020a0390921691630a51236991610c219161ffff909116906001908f9088908a90600401611996565b6040805180830381865afa158015610c3d573d6000803e3d6000fd5b505050506040513d601f19601f82011682018060405250810190610c6191906119ee565b509b9a5050505050505050505050565b603354600160a060020a03163314610c9e5760405160e560020a62461bcd028152600401610529906118c8565b81816000818110610cb157610cb16118fd565b6020029190910135609c555081816001818110610cd057610cd06118fd565b6020029190910135609d55505050565b603354600160a060020a03163314610d0d5760405160e560020a62461bcd028152600401610529906118c8565b600160a060020a038116610d8c5760405160e560020a62461bcd02815260206004820152602660248201527f4f776e61626c653a206e6577206f776e657220697320746865207a65726f206160448201527f64647265737300000000000000000000000000000000000000000000000000006064820152608401610529565b610d9581610d98565b50565b60338054600160a060020a03838116600160a060020a0319831681179093556040519116919082907f8be0079c531659141344cd1fd0a4f28419497f9722a3daafe3b4186f6b6457e090600090a35050565b6040517fdd62ed3e000000000000000000000000000000000000000000000000000000008152306004820152600160a060020a038381166024830152600091839186169063dd62ed3e90604401602060405180830381865afa158015610e54573d6000803e3d6000fd5b505050506040513d601f19601f82011682018060405250810190610e789190611954565b610e829190611a2b565b604051600160a060020a03851660248201526044810182905290915061054b9085907f095ea7b300000000000000000000000000000000000000000000000000000000906064015b60408051601f198184030181529190526020810180517bffffffffffffffffffffffffffffffffffffffffffffffffffffffff167bffffffffffffffffffffffffffffffffffffffffffffffffffffffff199093169290921790915261110f565b604051600160a060020a038085166024830152831660448201526064810182905261054b9085907f23b872dd0000000000000000000000000000000000000000000000000000000090608401610eca565b6040516060907f692d8b8b0000000000000000000000000000000000000000000000000000000090600090610fbf908a908a908a908a908a908a90602001611a43565b60405160208183030381529060405290508181604051602001610fe3929190611a7d565b604051602081830303815290604052925050509695505050505050565b61102460405180606001604052806000815260200160008152602001606081525090565b60a15482516000908152609f602090815260408083205460a2548751855260a384529190932054918601516080870151600160a060020a0390951694639fbf10fc94349461ffff9091169392909133919061108e906103e8906110889084906111fc565b9061120f565b898b604001518c606001516040518b63ffffffff167c01000000000000000000000000000000000000000000000000000000000281526004016110d999989796959493929190611ac2565b6000604051808303818588803b1580156110f257600080fd5b505af1158015611106573d6000803e3d6000fd5b50505050505050565b6000611164826040518060400160405280602081526020017f5361666545524332303a206c6f772d6c6576656c2063616c6c206661696c656481525085600160a060020a031661121b9092919063ffffffff16565b8051909150156111f757808060200190518101906111829190611b40565b6111f75760405160e560020a62461bcd02815260206004820152602a60248201527f5361666545524332303a204552433230206f7065726174696f6e20646964206e60448201527f6f742073756363656564000000000000000000000000000000000000000000006064820152608401610529565b505050565b60006112088284611b62565b9392505050565b60006112088284611b81565b606061122a8484600085611232565b949350505050565b606030318311156112ae5760405160e560020a62461bcd02815260206004820152602660248201527f416464726573733a20696e73756666696369656e742062616c616e636520666f60448201527f722063616c6c00000000000000000000000000000000000000000000000000006064820152608401610529565b600160a060020a0385163b6113085760405160e560020a62461bcd02815260206004820152601d60248201527f416464726573733a2063616c6c20746f206e6f6e2d636f6e74726163740000006044820152606401610529565b60008086600160a060020a031685876040516113249190611ba6565b60006040518083038185875af1925050503d8060008114611361576040519150601f19603f3d011682016040523d82523d6000602084013e611366565b606091505b5091509150611376828286611381565b979650505050505050565b60608315611390575081611208565b8251156113a05782518084602001fd5b8160405160e560020a62461bcd0281526004016105299190611602565b8280546113c990611916565b90600052602060002090601f0160209004810192826113eb5760008555611431565b82601f106114045782800160ff19823516178555611431565b82800160010185558215611431579182015b82811115611431578235825591602001919060010190611416565b5061143d929150611441565b5090565b5b8082111561143d5760008155600101611442565b60008060006040848603121561146b57600080fd5b83359250602084013567ffffffffffffffff8082111561148a57600080fd5b818601915086601f83011261149e57600080fd5b8135818111156114ad57600080fd5b8760208285010111156114bf57600080fd5b6020830194508093505050509250925092565b6000602082840312156114e457600080fd5b5035919050565b803561ffff811681146114fd57600080fd5b919050565b60006020828403121561151457600080fd5b611208826114eb565b60008083601f84011261152f57600080fd5b50813567ffffffffffffffff81111561154757600080fd5b602083019150836020808302850101111561156157600080fd5b9250929050565b6000806020838503121561157b57600080fd5b823567ffffffffffffffff81111561159257600080fd5b61159e8582860161151d565b90969095509350505050565b60005b838110156115c55781810151838201526020016115ad565b8381111561054b5750506000910152565b600081518084526115ee8160208601602086016115aa565b601f01601f19169290920160200192915050565b60208152600061120860208301846115d6565b60e060020a634e487b7102600052604160045260246000fd5b600082601f83011261163f57600080fd5b813567ffffffffffffffff8082111561165a5761165a611615565b604051601f8301601f19908116603f0116810190828211818310171561168257611682611615565b8160405283815286602085880101111561169b57600080fd5b836020870160208301376000602085830101528094505050505092915050565b8035600160a060020a03811681146114fd57600080fd5b60008060008060008060c087890312156116eb57600080fd5b86359550602087013594506040870135935060608701359250608087013567ffffffffffffffff81111561171e57600080fd5b61172a89828a0161162e565b92505061173960a088016116bb565b90509295509295509295565b60008060006060848603121561175a57600080fd5b611763846116bb565b925060208401359150611778604085016116bb565b90509250925092565b6000806040838503121561179457600080fd5b823591506117a4602084016114eb565b90509250929050565b60008060008060008060c087890312156117c657600080fd5b863595506020870135945060408701359350606087013592506080870135915060a087013567ffffffffffffffff81111561180057600080fd5b61180c89828a0161162e565b9150509295509295509295565b600080600080600080600060e0888a03121561183457600080fd5b87359650602088013567ffffffffffffffff8082111561185357600080fd5b61185f8b838c0161162e565b975060408a0135965060608a0135955060808a0135945060a08a0135935060c08a013591508082111561189157600080fd5b5061189e8a828b0161162e565b91505092959891949750929550565b6000602082840312156118bf57600080fd5b611208826116bb565b6020808252818101527f4f776e61626c653a2063616c6c6572206973206e6f7420746865206f776e6572604082015260600190565b60e060020a634e487b7102600052603260045260246000fd5b60028104600182168061192a57607f821691505b6020821081141561194e5760e060020a634e487b7102600052602260045260246000fd5b50919050565b60006020828403121561196657600080fd5b5051919050565b8051825260208101516020830152600060408201516060604085015261122a60608501826115d6565b61ffff8616815260ff8516602082015260a0604082015260006119bc60a08301866115d6565b82810360608401526119ce81866115d6565b905082810360808401526119e2818561196d565b98975050505050505050565b60008060408385031215611a0157600080fd5b505080516020909101519092909150565b60e060020a634e487b7102600052601160045260246000fd5b60008219821115611a3e57611a3e611a12565b500190565b868152856020820152846040820152836060820152600160a060020a038316608082015260c060a082015260006119e260c08301846115d6565b7bffffffffffffffffffffffffffffffffffffffffffffffffffffffff198316815260008251611ab48160048501602087016115aa565b919091016004019392505050565b600061012061ffff8c1683528a6020840152896040840152600160a060020a03891660608401528760808401528660a08401528060c0840152611b078184018761196d565b905082810360e0840152611b1b81866115d6565b9050828103610100840152611b3081856115d6565b9c9b505050505050505050505050565b600060208284031215611b5257600080fd5b8151801515811461120857600080fd5b6000816000190483118215151615611b7c57611b7c611a12565b500290565b600082611ba15760e060020a634e487b7102600052601260045260246000fd5b500490565b60008251611bb88184602087016115aa565b919091019291505056fea2646970667358221220da8b7fec40d219445f9c3dbef6b8c677c1e6fb04ca5d2be61e440d0c0d7b449864736f6c634300080a0033",
  "immutableReferences": {},
  "source": "// SPDX-License-Identifier: MIT\n\npragma solidity ^0.8.0;\n\nimport \"./_ZorroControllerXChainBase.sol\";\n\nimport \"../interfaces/IZorroController.sol\";\n\nimport \"../interfaces/IZorroControllerXChain.sol\";\n\ncontract ZorroControllerXChainDeposit is\n    IZorroControllerXChainDeposit,\n    ZorroControllerXChainBase\n{\n    /* Libraries */\n    using SafeMath for uint256;\n    using SafeERC20 for IERC20;\n\n    /* Fees */\n\n    /// @notice Checks to see how much a cross chain deposit will cost\n    /// @param _chainId The Zorro Chain ID (not the LayerZero one)\n    /// @param _dstContract The destination contract address on the remote chain\n    /// @param _pid The pool ID on the remote chain\n    /// @param _valueUSDC The amount of USDC to deposit\n    /// @param _weeksCommitted Number of weeks to commit to a vault\n    /// @param _maxMarketMovement Acceptable degree of slippage on any transaction (e.g. 950 = 5%, 990 = 1% etc.)\n    /// @param _destWallet A valid address on the remote chain that can claim ownership\n    /// @return uint256 Expected fee to pay for bridging/cross chain execution\n    function checkXChainDepositFee(\n        uint256 _chainId,\n        bytes memory _dstContract,\n        uint256 _pid,\n        uint256 _valueUSDC,\n        uint256 _weeksCommitted,\n        uint256 _maxMarketMovement,\n        bytes memory _destWallet\n    ) external view returns (uint256) {\n        // Init empty LZ object\n        IStargateRouter.lzTxObj memory _lzTxParams;\n\n        // Get payload\n        bytes memory _payload = _encodeXChainDepositPayload(\n            _pid,\n            _valueUSDC,\n            _weeksCommitted,\n            _maxMarketMovement,\n            msg.sender,\n            _destWallet\n        );\n\n        // Calculate native gas fee and ZRO token fee (Layer Zero token)\n        (uint256 _nativeFee, ) = IStargateRouter(stargateRouter)\n            .quoteLayerZeroFee(\n                ZorroChainToLZMap[_chainId],\n                1,\n                _dstContract,\n                _payload,\n                _lzTxParams\n            );\n        return _nativeFee;\n    }\n\n    /* Payload encoding */\n\n    /// @notice Encodes payload for making cross chan deposit\n    /// @param _pid Pool ID on remote chain\n    /// @param _valueUSDC Amount in USDC to deposit\n    /// @param _weeksCommitted Number of weeks to commit deposit for in vault\n    /// @param _maxMarketMovement Slippage parameter (e.g. 950 = 5%, 990 = 1%, etc.)\n    /// @param _originWallet Wallet address on origin chain that will be depositing funds cross chain.\n    /// @param _destWallet Optional wallet address on destination chain that will be receiving deposit. If not provided, will use a truncated address based on the _originWallet\n    /// @return bytes ABI encoded payload\n    function _encodeXChainDepositPayload(\n        uint256 _pid,\n        uint256 _valueUSDC,\n        uint256 _weeksCommitted,\n        uint256 _maxMarketMovement,\n        address _originWallet,\n        bytes memory _destWallet\n    ) internal pure returns (bytes memory) {\n        // Calculate method signature\n        bytes4 _sig = this.receiveXChainDepositRequest.selector;\n        // Calculate abi encoded bytes for input args\n        bytes memory _inputs = abi.encode(\n            _pid,\n            _valueUSDC,\n            _weeksCommitted,\n            _maxMarketMovement,\n            _originWallet,\n            _destWallet\n        );\n        // Concatenate bytes of signature and inputs\n        return bytes.concat(_sig, _inputs);\n    }\n\n    /* Sending */\n\n    /// @notice Prepares and sends a cross chain deposit request. Takes care of necessary financial ops (transfer/locking USDC)\n    /// @dev Requires appropriate fee to be paid via msg.value (use checkXChainDepositFee() above)\n    /// @param _zorroChainId The Zorro Chain ID (not the LayerZero one)\n    /// @param _pid The pool ID on the remote chain\n    /// @param _valueUSDC The amount of USDC to deposit\n    /// @param _weeksCommitted Number of weeks to commit to a vault\n    /// @param _maxMarketMovement Acceptable degree of slippage on any transaction (e.g. 950 = 5%, 990 = 1% etc.)\n    /// @param _destWallet A valid address on the remote chain that can claim ownership\n    function sendXChainDepositRequest(\n        uint256 _zorroChainId,\n        uint256 _pid,\n        uint256 _valueUSDC,\n        uint256 _weeksCommitted,\n        uint256 _maxMarketMovement,\n        bytes memory _destWallet\n    ) external payable nonReentrant {\n        // Require funds to be submitted with this message\n        require(msg.value > 0, \"No fees submitted\");\n\n        // Allow this contract to spend USDC\n        IERC20(defaultStablecoin).safeIncreaseAllowance(\n            address(this),\n            _valueUSDC\n        );\n\n        // Transfer USDC into this contract\n        IERC20(defaultStablecoin).safeTransferFrom(\n            msg.sender,\n            address(this),\n            _valueUSDC\n        );\n\n        // Check balances\n        uint256 _balUSDC = IERC20(defaultStablecoin).balanceOf(address(this));\n\n        // Generate payload\n        bytes memory _payload = _encodeXChainDepositPayload(\n            _pid,\n            _balUSDC,\n            _weeksCommitted,\n            _maxMarketMovement,\n            msg.sender,\n            _destWallet\n        );\n\n        // Get the destination contract address on the remote chain\n        bytes memory _dstContract = controllerContractsMap[_zorroChainId];\n\n        // Call stargate to initiate bridge\n        _callStargateSwap(\n            StargateSwapPayload({\n                chainId: _zorroChainId,\n                qty: _balUSDC,\n                dstContract: _dstContract,\n                payload: _payload,\n                maxMarketMovement: _maxMarketMovement\n            })\n        );\n    }\n\n    /* Receiving */\n\n    /// @notice Dummy func to allow .selector call above and guarantee typesafety for abi calls.\n    /// @dev Should never ever be actually called.\n    function receiveXChainDepositRequest(\n        uint256 _pid,\n        uint256 _valueUSDC,\n        uint256 _weeksCommitted,\n        uint256 _maxMarketMovement,\n        bytes memory _originAccount,\n        address _destAccount\n    ) public {\n        // Revert to make sure this function never gets called\n        revert(\"illegal dummy func call\");\n\n        // But still include the function call here anyway to satisfy type safety requirements in case there is a change\n        _receiveXChainDepositRequest(\n            _pid,\n            _valueUSDC,\n            _weeksCommitted,\n            block.timestamp,\n            _maxMarketMovement,\n            _originAccount,\n            _destAccount\n        );\n    }\n\n    /// @notice Receives a cross chain deposit request from the contract layer of the XchainEndpoint contract\n    /// @dev For params, see _depositFullService() function declaration above\n    /// @param _pid The pool ID on the remote chain\n    /// @param _valueUSDC The amount of USDC to deposit\n    /// @param _weeksCommitted Number of weeks to commit to a vault\n    /// @param _maxMarketMovement Acceptable degree of slippage on any transaction (e.g. 950 = 5%, 990 = 1% etc.)\n    /// @param _originAccount The address on the origin chain to associate the deposit with (mandatory)\n    /// @param _destAccount The address on the current chain to additionally associate the deposit with (allows on-chain withdrawals of the deposit) (if not provided, will truncate origin address to uint160 i.e. Solidity address type)\n    function _receiveXChainDepositRequest(\n        uint256 _pid,\n        uint256 _valueUSDC,\n        uint256 _weeksCommitted,\n        uint256 _vaultEnteredAt,\n        uint256 _maxMarketMovement,\n        bytes memory _originAccount,\n        address _destAccount\n    ) internal {\n        // Call deposit function\n        IZorroControllerInvestment(currentChainController)\n            .depositFullServiceFromXChain(\n                _pid,\n                _destAccount,\n                _originAccount,\n                _valueUSDC,\n                _weeksCommitted,\n                _vaultEnteredAt,\n                _maxMarketMovement\n            );\n    }\n}\n",
  "sourcePath": "/Users/kristophm/Documents/workspace/zorro-protocol/contracts/controllers/_ZorroControllerXChainDeposit.sol",
  "compiler": {
    "name": "solc",
    "version": "0.8.10+commit.fc410830.Emscripten.clang"
  },
  "schemaVersion": "3.4.4",
  "updatedAt": "2022-04-12T01:55:39.168Z",
  "devdoc": {
    "kind": "dev",
    "methods": {
      "checkXChainDepositFee(uint256,bytes,uint256,uint256,uint256,uint256,bytes)": {
        "params": {
          "_chainId": "The Zorro Chain ID (not the LayerZero one)",
          "_destWallet": "A valid address on the remote chain that can claim ownership",
          "_dstContract": "The destination contract address on the remote chain",
          "_maxMarketMovement": "Acceptable degree of slippage on any transaction (e.g. 950 = 5%, 990 = 1% etc.)",
          "_pid": "The pool ID on the remote chain",
          "_valueUSDC": "The amount of USDC to deposit",
          "_weeksCommitted": "Number of weeks to commit to a vault"
        },
        "returns": {
          "_0": "uint256 Expected fee to pay for bridging/cross chain execution"
        }
      },
      "owner()": {
        "details": "Returns the address of the current owner."
      },
      "receiveXChainDepositRequest(uint256,uint256,uint256,uint256,bytes,address)": {
        "details": "Should never ever be actually called."
      },
      "renounceOwnership()": {
        "details": "Leaves the contract without owner. It will not be possible to call `onlyOwner` functions anymore. Can only be called by the current owner. NOTE: Renouncing ownership will leave the contract without an owner, thereby removing any functionality that is only available to the owner."
      },
      "sendXChainDepositRequest(uint256,uint256,uint256,uint256,uint256,bytes)": {
        "details": "Requires appropriate fee to be paid via msg.value (use checkXChainDepositFee() above)",
        "params": {
          "_destWallet": "A valid address on the remote chain that can claim ownership",
          "_maxMarketMovement": "Acceptable degree of slippage on any transaction (e.g. 950 = 5%, 990 = 1% etc.)",
          "_pid": "The pool ID on the remote chain",
          "_valueUSDC": "The amount of USDC to deposit",
          "_weeksCommitted": "Number of weeks to commit to a vault",
          "_zorroChainId": "The Zorro Chain ID (not the LayerZero one)"
        }
      },
      "setControllerContract(uint256,bytes)": {
        "params": {
          "_controller": "Bytes representation of smart contract address for cross chain contract",
          "_zorroChainId": "Zorro Chain ID"
        }
      },
      "setStargateDestPoolIds(uint256,uint16)": {
        "params": {
          "_stargatePoolId": "Stargate pool ID",
          "_zorroChainId": "Zorro chain ID"
        }
      },
      "setZorroChainToLZMap(uint256,uint16)": {
        "params": {
          "_lzChainId": "LayerZero Chain ID",
          "_zorroChainId": "Zorro chain ID"
        }
      },
      "transferOwnership(address)": {
        "details": "Transfers ownership of the contract to a new account (`newOwner`). Can only be called by the current owner."
      }
    },
    "version": 1
  },
  "userdoc": {
    "kind": "user",
    "methods": {
      "checkXChainDepositFee(uint256,bytes,uint256,uint256,uint256,uint256,bytes)": {
        "notice": "Checks to see how much a cross chain deposit will cost"
      },
      "receiveXChainDepositRequest(uint256,uint256,uint256,uint256,bytes,address)": {
        "notice": "Dummy func to allow .selector call above and guarantee typesafety for abi calls."
      },
      "sendXChainDepositRequest(uint256,uint256,uint256,uint256,uint256,bytes)": {
        "notice": "Prepares and sends a cross chain deposit request. Takes care of necessary financial ops (transfer/locking USDC)"
      },
      "setControllerContract(uint256,bytes)": {
        "notice": "Setter: Controller contract for each chain"
      },
      "setLayerZeroParams(address,uint256,address)": {
        "notice": "Setter: Set main LZ params"
      },
      "setStargateDestPoolIds(uint256,uint16)": {
        "notice": "Setter: Stargate dest pool IDs for USD asset"
      },
      "setZorroChainToLZMap(uint256,uint16)": {
        "notice": "Setter: LZ/Stargate params"
      }
    },
    "version": 1
  }
}