{
  "contractName": "ZorroControllerXChainReceiver",
  "abi": [
    {
      "anonymous": false,
      "inputs": [
        {
          "indexed": true,
          "internalType": "address",
          "name": "account",
          "type": "address"
        },
        {
          "indexed": true,
          "internalType": "bytes",
          "name": "foreignAccount",
          "type": "bytes"
        },
        {
          "indexed": true,
          "internalType": "uint256",
          "name": "pid",
          "type": "uint256"
        },
        {
          "indexed": false,
          "internalType": "uint256",
          "name": "wantAmount",
          "type": "uint256"
        }
      ],
      "name": "Deposit",
      "type": "event"
    },
    {
      "anonymous": false,
      "inputs": [
        {
          "indexed": true,
          "internalType": "address",
          "name": "previousOwner",
          "type": "address"
        },
        {
          "indexed": true,
          "internalType": "address",
          "name": "newOwner",
          "type": "address"
        }
      ],
      "name": "OwnershipTransferred",
      "type": "event"
    },
    {
      "anonymous": false,
      "inputs": [
        {
          "indexed": true,
          "internalType": "uint256",
          "name": "_amountZOR",
          "type": "uint256"
        }
      ],
      "name": "RemovedSlashedRewards",
      "type": "event"
    },
    {
      "anonymous": false,
      "inputs": [
        {
          "indexed": false,
          "internalType": "address",
          "name": "account",
          "type": "address"
        },
        {
          "indexed": true,
          "internalType": "uint256",
          "name": "fromPid",
          "type": "uint256"
        },
        {
          "indexed": true,
          "internalType": "uint256",
          "name": "fromTrancheId",
          "type": "uint256"
        },
        {
          "indexed": true,
          "internalType": "uint256",
          "name": "toPid",
          "type": "uint256"
        }
      ],
      "name": "TransferInvestment",
      "type": "event"
    },
    {
      "anonymous": false,
      "inputs": [
        {
          "indexed": true,
          "internalType": "address",
          "name": "account",
          "type": "address"
        },
        {
          "indexed": true,
          "internalType": "bytes",
          "name": "foreignAccount",
          "type": "bytes"
        },
        {
          "indexed": true,
          "internalType": "uint256",
          "name": "pid",
          "type": "uint256"
        },
        {
          "indexed": false,
          "internalType": "uint256",
          "name": "trancheId",
          "type": "uint256"
        },
        {
          "indexed": false,
          "internalType": "uint256",
          "name": "wantAmount",
          "type": "uint256"
        }
      ],
      "name": "Withdraw",
      "type": "event"
    },
    {
      "anonymous": false,
      "inputs": [
        {
          "indexed": true,
          "internalType": "uint256",
          "name": "_remoteChainId",
          "type": "uint256"
        },
        {
          "indexed": true,
          "internalType": "uint256",
          "name": "_buybackAmountUSDC",
          "type": "uint256"
        },
        {
          "indexed": true,
          "internalType": "uint256",
          "name": "_revShareAmountUSDC",
          "type": "uint256"
        }
      ],
      "name": "XChainDistributeEarnings",
      "type": "event"
    },
    {
      "anonymous": false,
      "inputs": [
        {
          "indexed": true,
          "internalType": "uint256",
          "name": "_pid",
          "type": "uint256"
        },
        {
          "indexed": true,
          "internalType": "address",
          "name": "_originRecipient",
          "type": "address"
        },
        {
          "indexed": true,
          "internalType": "uint256",
          "name": "_burnableZORRewards",
          "type": "uint256"
        },
        {
          "indexed": false,
          "internalType": "uint256",
          "name": "_trancheId",
          "type": "uint256"
        },
        {
          "indexed": false,
          "internalType": "uint256",
          "name": "_originChainId",
          "type": "uint256"
        }
      ],
      "name": "XChainRepatriation",
      "type": "event"
    },
    {
      "inputs": [
        {
          "internalType": "uint16",
          "name": "",
          "type": "uint16"
        }
      ],
      "name": "LZChainToZorroMap",
      "outputs": [
        {
          "internalType": "uint256",
          "name": "",
          "type": "uint256"
        }
      ],
      "stateMutability": "view",
      "type": "function"
    },
    {
      "inputs": [
        {
          "internalType": "uint256",
          "name": "",
          "type": "uint256"
        }
      ],
      "name": "USDCToZorroLPPoolOtherTokenPath",
      "outputs": [
        {
          "internalType": "address",
          "name": "",
          "type": "address"
        }
      ],
      "stateMutability": "view",
      "type": "function"
    },
    {
      "inputs": [
        {
          "internalType": "uint256",
          "name": "",
          "type": "uint256"
        }
      ],
      "name": "USDCToZorroPath",
      "outputs": [
        {
          "internalType": "address",
          "name": "",
          "type": "address"
        }
      ],
      "stateMutability": "view",
      "type": "function"
    },
    {
      "inputs": [],
      "name": "ZORRO",
      "outputs": [
        {
          "internalType": "address",
          "name": "",
          "type": "address"
        }
      ],
      "stateMutability": "view",
      "type": "function"
    },
    {
      "inputs": [],
      "name": "ZORRODailyDistributionFactorBasisPointsMax",
      "outputs": [
        {
          "internalType": "uint256",
          "name": "",
          "type": "uint256"
        }
      ],
      "stateMutability": "view",
      "type": "function"
    },
    {
      "inputs": [],
      "name": "ZORRODailyDistributionFactorBasisPointsMin",
      "outputs": [
        {
          "internalType": "uint256",
          "name": "",
          "type": "uint256"
        }
      ],
      "stateMutability": "view",
      "type": "function"
    },
    {
      "inputs": [],
      "name": "ZORROPerBlock",
      "outputs": [
        {
          "internalType": "uint256",
          "name": "",
          "type": "uint256"
        }
      ],
      "stateMutability": "view",
      "type": "function"
    },
    {
      "inputs": [
        {
          "internalType": "uint256",
          "name": "",
          "type": "uint256"
        }
      ],
      "name": "ZorroChainToLZMap",
      "outputs": [
        {
          "internalType": "uint16",
          "name": "",
          "type": "uint16"
        }
      ],
      "stateMutability": "view",
      "type": "function"
    },
    {
      "inputs": [],
      "name": "accumulatedSlashedRewards",
      "outputs": [
        {
          "internalType": "uint256",
          "name": "",
          "type": "uint256"
        }
      ],
      "stateMutability": "view",
      "type": "function"
    },
    {
      "inputs": [],
      "name": "baseRewardRateBasisPoints",
      "outputs": [
        {
          "internalType": "uint256",
          "name": "",
          "type": "uint256"
        }
      ],
      "stateMutability": "view",
      "type": "function"
    },
    {
      "inputs": [],
      "name": "blocksPerDay",
      "outputs": [
        {
          "internalType": "uint256",
          "name": "",
          "type": "uint256"
        }
      ],
      "stateMutability": "view",
      "type": "function"
    },
    {
      "inputs": [],
      "name": "burnAddress",
      "outputs": [
        {
          "internalType": "address",
          "name": "",
          "type": "address"
        }
      ],
      "stateMutability": "view",
      "type": "function"
    },
    {
      "inputs": [],
      "name": "chainId",
      "outputs": [
        {
          "internalType": "uint256",
          "name": "",
          "type": "uint256"
        }
      ],
      "stateMutability": "view",
      "type": "function"
    },
    {
      "inputs": [],
      "name": "chainMultiplier",
      "outputs": [
        {
          "internalType": "uint256",
          "name": "",
          "type": "uint256"
        }
      ],
      "stateMutability": "view",
      "type": "function"
    },
    {
      "inputs": [
        {
          "internalType": "uint256",
          "name": "_chainId",
          "type": "uint256"
        },
        {
          "internalType": "bytes",
          "name": "_dstContract",
          "type": "bytes"
        },
        {
          "internalType": "uint256",
          "name": "_pid",
          "type": "uint256"
        },
        {
          "internalType": "uint256",
          "name": "_valueUSDC",
          "type": "uint256"
        },
        {
          "internalType": "uint256",
          "name": "_weeksCommitted",
          "type": "uint256"
        },
        {
          "internalType": "uint256",
          "name": "_maxMarketMovement",
          "type": "uint256"
        },
        {
          "internalType": "bytes",
          "name": "_destWallet",
          "type": "bytes"
        }
      ],
      "name": "checkXChainDepositFee",
      "outputs": [
        {
          "internalType": "uint256",
          "name": "",
          "type": "uint256"
        }
      ],
      "stateMutability": "view",
      "type": "function"
    },
    {
      "inputs": [
        {
          "internalType": "uint256",
          "name": "_amountUSDCBuyback",
          "type": "uint256"
        },
        {
          "internalType": "uint256",
          "name": "_amountUSDCRevShare",
          "type": "uint256"
        },
        {
          "internalType": "uint256",
          "name": "_accSlashedRewards",
          "type": "uint256"
        },
        {
          "internalType": "uint256",
          "name": "_maxMarketMovement",
          "type": "uint256"
        }
      ],
      "name": "checkXChainDistributeEarningsFee",
      "outputs": [
        {
          "internalType": "uint256",
          "name": "",
          "type": "uint256"
        }
      ],
      "stateMutability": "view",
      "type": "function"
    },
    {
      "inputs": [
        {
          "internalType": "uint256",
          "name": "_originChainId",
          "type": "uint256"
        },
        {
          "internalType": "uint256",
          "name": "_pid",
          "type": "uint256"
        },
        {
          "internalType": "uint256",
          "name": "_trancheId",
          "type": "uint256"
        },
        {
          "internalType": "bytes",
          "name": "_originRecipient",
          "type": "bytes"
        },
        {
          "internalType": "uint256",
          "name": "_burnableZORRewards",
          "type": "uint256"
        },
        {
          "internalType": "uint256",
          "name": "_rewardsDue",
          "type": "uint256"
        },
        {
          "internalType": "uint256",
          "name": "_gasForDestinationLZReceive",
          "type": "uint256"
        }
      ],
      "name": "checkXChainRepatriationFee",
      "outputs": [
        {
          "internalType": "uint256",
          "name": "",
          "type": "uint256"
        }
      ],
      "stateMutability": "view",
      "type": "function"
    },
    {
      "inputs": [
        {
          "internalType": "uint256",
          "name": "_zorroChainId",
          "type": "uint256"
        },
        {
          "internalType": "uint256",
          "name": "_pid",
          "type": "uint256"
        },
        {
          "internalType": "uint256",
          "name": "_trancheId",
          "type": "uint256"
        },
        {
          "internalType": "uint256",
          "name": "_maxMarketMovement",
          "type": "uint256"
        },
        {
          "internalType": "uint256",
          "name": "_gasForDestinationLZReceive",
          "type": "uint256"
        }
      ],
      "name": "checkXChainWithdrawalFee",
      "outputs": [
        {
          "internalType": "uint256",
          "name": "",
          "type": "uint256"
        }
      ],
      "stateMutability": "view",
      "type": "function"
    },
    {
      "inputs": [
        {
          "internalType": "uint256",
          "name": "",
          "type": "uint256"
        }
      ],
      "name": "controllerContractsMap",
      "outputs": [
        {
          "internalType": "bytes",
          "name": "",
          "type": "bytes"
        }
      ],
      "stateMutability": "view",
      "type": "function"
    },
    {
      "inputs": [],
      "name": "defaultStablecoin",
      "outputs": [
        {
          "internalType": "address",
          "name": "",
          "type": "address"
        }
      ],
      "stateMutability": "view",
      "type": "function"
    },
    {
      "inputs": [
        {
          "internalType": "uint256",
          "name": "_pid",
          "type": "uint256"
        },
        {
          "internalType": "uint256",
          "name": "_wantAmt",
          "type": "uint256"
        },
        {
          "internalType": "uint256",
          "name": "_weeksCommitted",
          "type": "uint256"
        }
      ],
      "name": "deposit",
      "outputs": [],
      "stateMutability": "nonpayable",
      "type": "function"
    },
    {
      "inputs": [
        {
          "internalType": "uint256",
          "name": "_pid",
          "type": "uint256"
        },
        {
          "internalType": "uint256",
          "name": "_valueUSDC",
          "type": "uint256"
        },
        {
          "internalType": "uint256",
          "name": "_weeksCommitted",
          "type": "uint256"
        },
        {
          "internalType": "uint256",
          "name": "_maxMarketMovement",
          "type": "uint256"
        }
      ],
      "name": "depositFullService",
      "outputs": [],
      "stateMutability": "nonpayable",
      "type": "function"
    },
    {
      "inputs": [
        {
          "internalType": "uint256",
          "name": "",
          "type": "uint256"
        },
        {
          "internalType": "bytes",
          "name": "",
          "type": "bytes"
        },
        {
          "internalType": "uint256",
          "name": "",
          "type": "uint256"
        }
      ],
      "name": "foreignTrancheInfo",
      "outputs": [
        {
          "internalType": "address",
          "name": "",
          "type": "address"
        }
      ],
      "stateMutability": "view",
      "type": "function"
    },
    {
      "inputs": [
        {
          "internalType": "uint256",
          "name": "durationInWeeks",
          "type": "uint256"
        }
      ],
      "name": "getTimeMultiplier",
      "outputs": [
        {
          "internalType": "uint256",
          "name": "",
          "type": "uint256"
        }
      ],
      "stateMutability": "view",
      "type": "function"
    },
    {
      "inputs": [
        {
          "internalType": "uint256",
          "name": "_liquidityCommitted",
          "type": "uint256"
        },
        {
          "internalType": "uint256",
          "name": "_timeMultiplier",
          "type": "uint256"
        }
      ],
      "name": "getUserContribution",
      "outputs": [
        {
          "internalType": "uint256",
          "name": "",
          "type": "uint256"
        }
      ],
      "stateMutability": "pure",
      "type": "function"
    },
    {
      "inputs": [],
      "name": "homeChainId",
      "outputs": [
        {
          "internalType": "uint256",
          "name": "",
          "type": "uint256"
        }
      ],
      "stateMutability": "view",
      "type": "function"
    },
    {
      "inputs": [],
      "name": "homeChainZorroController",
      "outputs": [
        {
          "internalType": "address",
          "name": "",
          "type": "address"
        }
      ],
      "stateMutability": "view",
      "type": "function"
    },
    {
      "inputs": [
        {
          "internalType": "address",
          "name": "_token",
          "type": "address"
        },
        {
          "internalType": "uint256",
          "name": "_amount",
          "type": "uint256"
        }
      ],
      "name": "inCaseTokensGetStuck",
      "outputs": [],
      "stateMutability": "nonpayable",
      "type": "function"
    },
    {
      "inputs": [],
      "name": "isTimeMultiplierActive",
      "outputs": [
        {
          "internalType": "bool",
          "name": "",
          "type": "bool"
        }
      ],
      "stateMutability": "view",
      "type": "function"
    },
    {
      "inputs": [],
      "name": "layerZeroEndpoint",
      "outputs": [
        {
          "internalType": "address",
          "name": "",
          "type": "address"
        }
      ],
      "stateMutability": "view",
      "type": "function"
    },
    {
      "inputs": [],
      "name": "owner",
      "outputs": [
        {
          "internalType": "address",
          "name": "",
          "type": "address"
        }
      ],
      "stateMutability": "view",
      "type": "function"
    },
    {
      "inputs": [
        {
          "internalType": "uint256",
          "name": "",
          "type": "uint256"
        }
      ],
      "name": "poolInfo",
      "outputs": [
        {
          "internalType": "contract IERC20",
          "name": "want",
          "type": "address"
        },
        {
          "internalType": "uint256",
          "name": "allocPoint",
          "type": "uint256"
        },
        {
          "internalType": "uint256",
          "name": "lastRewardBlock",
          "type": "uint256"
        },
        {
          "internalType": "uint256",
          "name": "accZORRORewards",
          "type": "uint256"
        },
        {
          "internalType": "uint256",
          "name": "totalTrancheContributions",
          "type": "uint256"
        },
        {
          "internalType": "address",
          "name": "vault",
          "type": "address"
        }
      ],
      "stateMutability": "view",
      "type": "function"
    },
    {
      "inputs": [],
      "name": "poolLength",
      "outputs": [
        {
          "internalType": "uint256",
          "name": "",
          "type": "uint256"
        }
      ],
      "stateMutability": "view",
      "type": "function"
    },
    {
      "inputs": [],
      "name": "priceFeedLPPoolOtherToken",
      "outputs": [
        {
          "internalType": "contract AggregatorV3Interface",
          "name": "",
          "type": "address"
        }
      ],
      "stateMutability": "view",
      "type": "function"
    },
    {
      "inputs": [],
      "name": "priceFeedZOR",
      "outputs": [
        {
          "internalType": "contract AggregatorV3Interface",
          "name": "",
          "type": "address"
        }
      ],
      "stateMutability": "view",
      "type": "function"
    },
    {
      "inputs": [],
      "name": "publicPool",
      "outputs": [
        {
          "internalType": "address",
          "name": "",
          "type": "address"
        }
      ],
      "stateMutability": "view",
      "type": "function"
    },
    {
      "inputs": [
        {
          "internalType": "uint256",
          "name": "_pid",
          "type": "uint256"
        },
        {
          "internalType": "uint256",
          "name": "_valueUSDC",
          "type": "uint256"
        },
        {
          "internalType": "uint256",
          "name": "_weeksCommitted",
          "type": "uint256"
        },
        {
          "internalType": "uint256",
          "name": "_maxMarketMovement",
          "type": "uint256"
        },
        {
          "internalType": "bytes",
          "name": "_originAccount",
          "type": "bytes"
        },
        {
          "internalType": "address",
          "name": "_destAccount",
          "type": "address"
        }
      ],
      "name": "receiveXChainDepositRequest",
      "outputs": [],
      "stateMutability": "nonpayable",
      "type": "function"
    },
    {
      "inputs": [
        {
          "internalType": "uint256",
          "name": "_remoteChainId",
          "type": "uint256"
        },
        {
          "internalType": "uint256",
          "name": "_amountUSDCBuyback",
          "type": "uint256"
        },
        {
          "internalType": "uint256",
          "name": "_amountUSDCRevShare",
          "type": "uint256"
        },
        {
          "internalType": "uint256",
          "name": "_accSlashedRewards",
          "type": "uint256"
        },
        {
          "internalType": "uint256",
          "name": "_maxMarketMovement",
          "type": "uint256"
        }
      ],
      "name": "receiveXChainDistributionRequest",
      "outputs": [],
      "stateMutability": "nonpayable",
      "type": "function"
    },
    {
      "inputs": [
        {
          "internalType": "uint256",
          "name": "_originChainId",
          "type": "uint256"
        },
        {
          "internalType": "uint256",
          "name": "_pid",
          "type": "uint256"
        },
        {
          "internalType": "uint256",
          "name": "_trancheId",
          "type": "uint256"
        },
        {
          "internalType": "bytes",
          "name": "_originRecipient",
          "type": "bytes"
        },
        {
          "internalType": "uint256",
          "name": "_burnableZORRewards",
          "type": "uint256"
        },
        {
          "internalType": "uint256",
          "name": "_rewardsDue",
          "type": "uint256"
        }
      ],
      "name": "receiveXChainRepatriationRequest",
      "outputs": [],
      "stateMutability": "nonpayable",
      "type": "function"
    },
    {
      "inputs": [
        {
          "internalType": "uint256",
          "name": "_originChainId",
          "type": "uint256"
        },
        {
          "internalType": "bytes",
          "name": "_originAccount",
          "type": "bytes"
        },
        {
          "internalType": "uint256",
          "name": "_pid",
          "type": "uint256"
        },
        {
          "internalType": "uint256",
          "name": "_trancheId",
          "type": "uint256"
        },
        {
          "internalType": "uint256",
          "name": "_maxMarketMovement",
          "type": "uint256"
        }
      ],
      "name": "receiveXChainWithdrawalRequest",
      "outputs": [],
      "stateMutability": "nonpayable",
      "type": "function"
    },
    {
      "inputs": [],
      "name": "renounceOwnership",
      "outputs": [],
      "stateMutability": "nonpayable",
      "type": "function"
    },
    {
      "inputs": [
        {
          "internalType": "uint256",
          "name": "_zorroChainId",
          "type": "uint256"
        },
        {
          "internalType": "uint256",
          "name": "_pid",
          "type": "uint256"
        },
        {
          "internalType": "uint256",
          "name": "_valueUSDC",
          "type": "uint256"
        },
        {
          "internalType": "uint256",
          "name": "_weeksCommitted",
          "type": "uint256"
        },
        {
          "internalType": "uint256",
          "name": "_maxMarketMovement",
          "type": "uint256"
        },
        {
          "internalType": "bytes",
          "name": "_destWallet",
          "type": "bytes"
        }
      ],
      "name": "sendXChainDepositRequest",
      "outputs": [],
      "stateMutability": "payable",
      "type": "function"
    },
    {
      "inputs": [
        {
          "internalType": "uint256",
          "name": "_pid",
          "type": "uint256"
        },
        {
          "internalType": "uint256",
          "name": "_buybackAmountUSDC",
          "type": "uint256"
        },
        {
          "internalType": "uint256",
          "name": "_revShareAmountUSDC",
          "type": "uint256"
        },
        {
          "internalType": "uint256",
          "name": "_maxMarketMovement",
          "type": "uint256"
        }
      ],
      "name": "sendXChainDistributeEarningsRequest",
      "outputs": [],
      "stateMutability": "payable",
      "type": "function"
    },
    {
      "inputs": [
        {
          "internalType": "uint256",
          "name": "_destZorroChainId",
          "type": "uint256"
        },
        {
          "internalType": "uint256",
          "name": "_pid",
          "type": "uint256"
        },
        {
          "internalType": "uint256",
          "name": "_trancheId",
          "type": "uint256"
        },
        {
          "internalType": "uint256",
          "name": "_maxMarketMovement",
          "type": "uint256"
        },
        {
          "internalType": "uint256",
          "name": "_gasForDestinationLZReceive",
          "type": "uint256"
        }
      ],
      "name": "sendXChainWithdrawalRequest",
      "outputs": [],
      "stateMutability": "payable",
      "type": "function"
    },
    {
      "inputs": [
        {
          "internalType": "uint256",
          "name": "_zorroChainId",
          "type": "uint256"
        },
        {
          "internalType": "bytes",
          "name": "_controller",
          "type": "bytes"
        }
      ],
      "name": "setControllerContract",
      "outputs": [],
      "stateMutability": "nonpayable",
      "type": "function"
    },
    {
      "inputs": [
        {
          "internalType": "bool",
          "name": "_isActive",
          "type": "bool"
        }
      ],
      "name": "setIsTimeMultiplierActive",
      "outputs": [],
      "stateMutability": "nonpayable",
      "type": "function"
    },
    {
      "inputs": [
        {
          "internalType": "address",
          "name": "_ZORRO",
          "type": "address"
        },
        {
          "internalType": "address",
          "name": "_defaultStablecoin",
          "type": "address"
        }
      ],
      "name": "setKeyAddresses",
      "outputs": [],
      "stateMutability": "nonpayable",
      "type": "function"
    },
    {
      "inputs": [
        {
          "internalType": "address",
          "name": "_stargateRouter",
          "type": "address"
        },
        {
          "internalType": "uint256",
          "name": "_stargateSwapPoolId",
          "type": "uint256"
        },
        {
          "internalType": "address",
          "name": "_layerZeroEndpoint",
          "type": "address"
        }
      ],
      "name": "setLayerZeroParams",
      "outputs": [],
      "stateMutability": "nonpayable",
      "type": "function"
    },
    {
      "inputs": [
        {
          "internalType": "address",
          "name": "_priceFeedZOR",
          "type": "address"
        },
        {
          "internalType": "address",
          "name": "_priceFeedLPPoolOtherToken",
          "type": "address"
        }
      ],
      "name": "setPriceFeeds",
      "outputs": [],
      "stateMutability": "nonpayable",
      "type": "function"
    },
    {
      "inputs": [
        {
          "internalType": "uint256[]",
          "name": "_blockParams",
          "type": "uint256[]"
        },
        {
          "internalType": "uint256[]",
          "name": "_dailyDistFactors",
          "type": "uint256[]"
        },
        {
          "internalType": "uint256",
          "name": "_chainMultiplier",
          "type": "uint256"
        },
        {
          "internalType": "uint256",
          "name": "_baseRewardRateBasisPoints",
          "type": "uint256"
        }
      ],
      "name": "setRewardsParams",
      "outputs": [],
      "stateMutability": "nonpayable",
      "type": "function"
    },
    {
      "inputs": [
        {
          "internalType": "uint256",
          "name": "_zorroChainId",
          "type": "uint256"
        },
        {
          "internalType": "uint16",
          "name": "_stargatePoolId",
          "type": "uint16"
        }
      ],
      "name": "setStargateDestPoolIds",
      "outputs": [],
      "stateMutability": "nonpayable",
      "type": "function"
    },
    {
      "inputs": [
        {
          "internalType": "uint256",
          "name": "_startBlock",
          "type": "uint256"
        }
      ],
      "name": "setStartBlock",
      "outputs": [],
      "stateMutability": "nonpayable",
      "type": "function"
    },
    {
      "inputs": [
        {
          "internalType": "uint256",
          "name": "_targetTVLCaptureBasisPoints",
          "type": "uint256"
        }
      ],
      "name": "setTargetTVLCaptureBasisPoints",
      "outputs": [],
      "stateMutability": "nonpayable",
      "type": "function"
    },
    {
      "inputs": [
        {
          "internalType": "address[]",
          "name": "_path",
          "type": "address[]"
        }
      ],
      "name": "setUSDCToZORPath",
      "outputs": [],
      "stateMutability": "nonpayable",
      "type": "function"
    },
    {
      "inputs": [
        {
          "internalType": "address[]",
          "name": "_path",
          "type": "address[]"
        }
      ],
      "name": "setUSDCToZorroLPPoolOtherTokenPath",
      "outputs": [],
      "stateMutability": "nonpayable",
      "type": "function"
    },
    {
      "inputs": [
        {
          "internalType": "address",
          "name": "_uniV2Router",
          "type": "address"
        }
      ],
      "name": "setUniRouter",
      "outputs": [],
      "stateMutability": "nonpayable",
      "type": "function"
    },
    {
      "inputs": [
        {
          "internalType": "uint256",
          "name": "_chainId",
          "type": "uint256"
        },
        {
          "internalType": "uint256",
          "name": "_homeChainId",
          "type": "uint256"
        },
        {
          "internalType": "address",
          "name": "_homeChainZorroController",
          "type": "address"
        }
      ],
      "name": "setXChainParams",
      "outputs": [],
      "stateMutability": "nonpayable",
      "type": "function"
    },
    {
      "inputs": [
        {
          "internalType": "uint256",
          "name": "_zorroChainId",
          "type": "uint256"
        },
        {
          "internalType": "uint16",
          "name": "_lzChainId",
          "type": "uint16"
        }
      ],
      "name": "setZorroChainToLZMap",
      "outputs": [],
      "stateMutability": "nonpayable",
      "type": "function"
    },
    {
      "inputs": [
        {
          "internalType": "address",
          "name": "_publicPool",
          "type": "address"
        },
        {
          "internalType": "address",
          "name": "_zorroStakingVault",
          "type": "address"
        }
      ],
      "name": "setZorroContracts",
      "outputs": [],
      "stateMutability": "nonpayable",
      "type": "function"
    },
    {
      "inputs": [
        {
          "internalType": "address",
          "name": "_zorroControllerOracle",
          "type": "address"
        }
      ],
      "name": "setZorroControllerOracle",
      "outputs": [],
      "stateMutability": "nonpayable",
      "type": "function"
    },
    {
      "inputs": [
        {
          "internalType": "address",
          "name": "_zorroLPPool",
          "type": "address"
        },
        {
          "internalType": "address",
          "name": "_zorroLPPoolOtherToken",
          "type": "address"
        }
      ],
      "name": "setZorroLPPoolParams",
      "outputs": [],
      "stateMutability": "nonpayable",
      "type": "function"
    },
    {
      "inputs": [
        {
          "internalType": "uint256",
          "name": "_totalChainMultipliers",
          "type": "uint256"
        },
        {
          "internalType": "uint256",
          "name": "_totalMarketTVLUSD",
          "type": "uint256"
        },
        {
          "internalType": "uint256",
          "name": "_targetTVLCaptureBasisPoints",
          "type": "uint256"
        },
        {
          "internalType": "uint256",
          "name": "_ZorroTotalVaultTVLUSD",
          "type": "uint256"
        },
        {
          "internalType": "uint256",
          "name": "_publicPoolZORBalance",
          "type": "uint256"
        }
      ],
      "name": "setZorroPerBlock",
      "outputs": [],
      "stateMutability": "nonpayable",
      "type": "function"
    },
    {
      "inputs": [
        {
          "internalType": "uint256",
          "name": "",
          "type": "uint256"
        }
      ],
      "name": "stargateDestPoolIds",
      "outputs": [
        {
          "internalType": "uint256",
          "name": "",
          "type": "uint256"
        }
      ],
      "stateMutability": "view",
      "type": "function"
    },
    {
      "inputs": [],
      "name": "stargateRouter",
      "outputs": [
        {
          "internalType": "address",
          "name": "",
          "type": "address"
        }
      ],
      "stateMutability": "view",
      "type": "function"
    },
    {
      "inputs": [],
      "name": "stargateSwapPoolId",
      "outputs": [
        {
          "internalType": "uint256",
          "name": "",
          "type": "uint256"
        }
      ],
      "stateMutability": "view",
      "type": "function"
    },
    {
      "inputs": [],
      "name": "startBlock",
      "outputs": [
        {
          "internalType": "uint256",
          "name": "",
          "type": "uint256"
        }
      ],
      "stateMutability": "view",
      "type": "function"
    },
    {
      "inputs": [],
      "name": "targetTVLCaptureBasisPoints",
      "outputs": [
        {
          "internalType": "uint256",
          "name": "",
          "type": "uint256"
        }
      ],
      "stateMutability": "view",
      "type": "function"
    },
    {
      "inputs": [],
      "name": "tokenUSDC",
      "outputs": [
        {
          "internalType": "address",
          "name": "",
          "type": "address"
        }
      ],
      "stateMutability": "view",
      "type": "function"
    },
    {
      "inputs": [],
      "name": "totalAllocPoint",
      "outputs": [
        {
          "internalType": "uint256",
          "name": "",
          "type": "uint256"
        }
      ],
      "stateMutability": "view",
      "type": "function"
    },
    {
      "inputs": [
        {
          "internalType": "uint256",
          "name": "",
          "type": "uint256"
        },
        {
          "internalType": "address",
          "name": "",
          "type": "address"
        },
        {
          "internalType": "uint256",
          "name": "",
          "type": "uint256"
        }
      ],
      "name": "trancheInfo",
      "outputs": [
        {
          "internalType": "uint256",
          "name": "contribution",
          "type": "uint256"
        },
        {
          "internalType": "uint256",
          "name": "timeMultiplier",
          "type": "uint256"
        },
        {
          "internalType": "uint256",
          "name": "rewardDebt",
          "type": "uint256"
        },
        {
          "internalType": "uint256",
          "name": "durationCommittedInWeeks",
          "type": "uint256"
        },
        {
          "internalType": "uint256",
          "name": "enteredVaultAt",
          "type": "uint256"
        },
        {
          "internalType": "uint256",
          "name": "exitedVaultAt",
          "type": "uint256"
        }
      ],
      "stateMutability": "view",
      "type": "function"
    },
    {
      "inputs": [
        {
          "internalType": "uint256",
          "name": "_pid",
          "type": "uint256"
        },
        {
          "internalType": "address",
          "name": "_user",
          "type": "address"
        }
      ],
      "name": "trancheLength",
      "outputs": [
        {
          "internalType": "uint256",
          "name": "",
          "type": "uint256"
        }
      ],
      "stateMutability": "view",
      "type": "function"
    },
    {
      "inputs": [
        {
          "internalType": "uint256",
          "name": "_fromPid",
          "type": "uint256"
        },
        {
          "internalType": "uint256",
          "name": "_fromTrancheId",
          "type": "uint256"
        },
        {
          "internalType": "uint256",
          "name": "_toPid",
          "type": "uint256"
        },
        {
          "internalType": "uint256",
          "name": "_maxMarketMovement",
          "type": "uint256"
        }
      ],
      "name": "transferInvestment",
      "outputs": [],
      "stateMutability": "nonpayable",
      "type": "function"
    },
    {
      "inputs": [
        {
          "internalType": "address",
          "name": "newOwner",
          "type": "address"
        }
      ],
      "name": "transferOwnership",
      "outputs": [],
      "stateMutability": "nonpayable",
      "type": "function"
    },
    {
      "inputs": [],
      "name": "uniRouterAddress",
      "outputs": [
        {
          "internalType": "address",
          "name": "",
          "type": "address"
        }
      ],
      "stateMutability": "view",
      "type": "function"
    },
    {
      "inputs": [
        {
          "internalType": "uint256",
          "name": "_pid",
          "type": "uint256"
        }
      ],
      "name": "updatePool",
      "outputs": [
        {
          "internalType": "uint256",
          "name": "",
          "type": "uint256"
        }
      ],
      "stateMutability": "nonpayable",
      "type": "function"
    },
    {
      "inputs": [
        {
          "internalType": "uint256",
          "name": "_pid",
          "type": "uint256"
        },
        {
          "internalType": "uint256",
          "name": "_trancheId",
          "type": "uint256"
        },
        {
          "internalType": "bool",
          "name": "_harvestOnly",
          "type": "bool"
        }
      ],
      "name": "withdraw",
      "outputs": [
        {
          "internalType": "uint256",
          "name": "",
          "type": "uint256"
        }
      ],
      "stateMutability": "nonpayable",
      "type": "function"
    },
    {
      "inputs": [
        {
          "internalType": "uint256",
          "name": "_pid",
          "type": "uint256"
        }
      ],
      "name": "withdrawAll",
      "outputs": [],
      "stateMutability": "nonpayable",
      "type": "function"
    },
    {
      "inputs": [
        {
          "internalType": "uint256",
          "name": "_pid",
          "type": "uint256"
        },
        {
          "internalType": "uint256",
          "name": "_trancheId",
          "type": "uint256"
        },
        {
          "internalType": "bool",
          "name": "_harvestOnly",
          "type": "bool"
        },
        {
          "internalType": "uint256",
          "name": "_maxMarketMovement",
          "type": "uint256"
        }
      ],
      "name": "withdrawalFullService",
      "outputs": [
        {
          "internalType": "uint256",
          "name": "",
          "type": "uint256"
        }
      ],
      "stateMutability": "nonpayable",
      "type": "function"
    },
    {
      "inputs": [],
      "name": "zorroControllerOracle",
      "outputs": [
        {
          "internalType": "address",
          "name": "",
          "type": "address"
        }
      ],
      "stateMutability": "view",
      "type": "function"
    },
    {
      "inputs": [],
      "name": "zorroLPPool",
      "outputs": [
        {
          "internalType": "address",
          "name": "",
          "type": "address"
        }
      ],
      "stateMutability": "view",
      "type": "function"
    },
    {
      "inputs": [],
      "name": "zorroLPPoolOtherToken",
      "outputs": [
        {
          "internalType": "address",
          "name": "",
          "type": "address"
        }
      ],
      "stateMutability": "view",
      "type": "function"
    },
    {
      "inputs": [],
      "name": "zorroStakingVault",
      "outputs": [
        {
          "internalType": "address",
          "name": "",
          "type": "address"
        }
      ],
      "stateMutability": "view",
      "type": "function"
    },
    {
      "inputs": [
        {
          "internalType": "uint16",
          "name": "_chainId",
          "type": "uint16"
        },
        {
          "internalType": "bytes",
          "name": "_srcAddress",
          "type": "bytes"
        },
        {
          "internalType": "uint256",
          "name": "_nonce",
          "type": "uint256"
        },
        {
          "internalType": "address",
          "name": "_token",
          "type": "address"
        },
        {
          "internalType": "uint256",
          "name": "amountLD",
          "type": "uint256"
        },
        {
          "internalType": "bytes",
          "name": "payload",
          "type": "bytes"
        }
      ],
      "name": "sgReceive",
      "outputs": [],
      "stateMutability": "nonpayable",
      "type": "function"
    },
    {
      "inputs": [
        {
          "internalType": "uint16",
          "name": "_srcChainId",
          "type": "uint16"
        },
        {
          "internalType": "bytes",
          "name": "_srcAddress",
          "type": "bytes"
        },
        {
          "internalType": "uint64",
          "name": "_nonce",
          "type": "uint64"
        },
        {
          "internalType": "bytes",
          "name": "_payload",
          "type": "bytes"
        }
      ],
      "name": "lzReceive",
      "outputs": [],
      "stateMutability": "nonpayable",
      "type": "function"
    }
  ],
  "bytecode": "0x60806040523480156200001157600080fd5b50620000386200002964010000000062000042810204565b64010000000062000046810204565b6001805562000096565b3390565b60008054600160a060020a03838116600160a060020a0319831681178455604051919092169283917f8be0079c531659141344cd1fd0a4f28419497f9722a3daafe3b4186f6b6457e09190a35050565b61665580620000a66000396000f3fe6080604052600436106104a15760003560e060020a9004806379777d8111610264578063ab8236f311610148578063c9f363c4116100c5578063ee4e268711610089578063ee4e268714610ecc578063ef12696714610eec578063f2fde38b14610f02578063f35e4a6e14610f22578063f63cce3714610f42578063fc39a29e14610f6257600080fd5b8063c9f363c414610e40578063cb9c2f6814610e60578063cd17ac1414610e76578063e940f6e114610e96578063ebfba7c414610eac57600080fd5b8063c29361421161010c578063c293614214610daf578063c6d758cb14610dc5578063c86d404014610de5578063c8ba44b514610e05578063c9522cf114610e2057600080fd5b8063ab8236f314610ce2578063b22f325114610d02578063b4b4e9eb14610d22578063b61bb80a14610d6f578063bdb2fc8b14610d8f57600080fd5b8063941d3fd0116101e15780639cebd371116101a55780639cebd37114610c395780639ec68c7614610c4f578063a2df085c14610c6f578063a4d2b08314610c82578063a80bee0714610ca2578063a9e56f3c14610cc257600080fd5b8063941d3fd014610b815780639568786c14610bc3578063958e2d3114610be35780639a448c0c14610c035780639a8a059214610c2357600080fd5b8063823c43d011610228578063823c43d014610ae35780638b5694d614610b035780638c157db214610b235780638da5cb5b14610b435780638f426e2c14610b6157600080fd5b806379777d8114610a435780637bd4552214610a635780637bf604d814610a835780637e37c76914610aa35780637f633ea814610ac357600080fd5b8063459f47531161038b578063593af9fe11610308578063693a090b116102cc578063693a090b146109985780636b8eb2e5146109b85780636c78d49c146109d857806370d5ae05146109f8578063715018a614610a0e578063745af0a814610a2357600080fd5b8063593af9fe146108f55780635c63fa871461092257806361b729dc14610942578063668ababb1461095d578063692d8b8b1461097d57600080fd5b80635051d3711161034f5780635051d3711461086957806351eb05a61461088957806353f73f87146108a95780635527a6f9146108c95780635790f599146108df57600080fd5b8063459f4753146107c6578063464e3c8b1461080a5780634780f9f51461081d57806348cd4cb11461083d5780634cfea68a1461085357600080fd5b8063219b38b81161042457806333cfcd3b116103e857806333cfcd3b146107275780633a629121146107475780633ad5875c146107675780633b7106881461077a5780633b9ce565146107905780633bbc1ffc146107a657600080fd5b8063219b38b81461063657806325b4383014610663578063293da9d4146106835780632e31283d146106af5780633332fcf41461070757600080fd5b80630aa0988e1161046b5780630aa0988e14610564578063104a61321461058457806313a2e880146105a45780631526fe27146105c457806317caf6f11461062057600080fd5b80621d3567146104a6578062aeef8a146104c8578063068f158d146104e857806307968db114610508578063081e3eda14610545575b600080fd5b3480156104b257600080fd5b506104c66104c1366004615334565b610f82565b005b3480156104d457600080fd5b506104c66104e33660046153ce565b611127565b3480156104f457600080fd5b506104c661050336600461540f565b6111db565b34801561051457600080fd5b5060245461052890600160a060020a031681565b604051600160a060020a0390911681526020015b60405180910390f35b34801561055157600080fd5b506013545b60405190815260200161053c565b34801561057057600080fd5b506104c661057f36600461540f565b611236565b34801561059057600080fd5b5061052861059f366004615448565b611291565b3480156105b057600080fd5b506104c66105bf366004615461565b6112bb565b3480156105d057600080fd5b506105e46105df366004615448565b611307565b60408051600160a060020a03978816815260208101969096528501939093526060840191909152608083015290911660a082015260c00161053c565b34801561062c57600080fd5b50610556600f5481565b34801561064257600080fd5b50610556610651366004615448565b60236020526000908152604090205481565b34801561066f57600080fd5b506104c661067e3660046154ad565b61135a565b34801561068f57600080fd5b5061055661069e3660046154e8565b602080526000908152604090205481565b3480156106bb57600080fd5b506105286106ca3660046155cb565b60156020908152600093845260408085208451808601840180519281529084019584019590952094529290528252902054600160a060020a031681565b34801561071357600080fd5b506104c661072236600461561b565b6113ac565b34801561073357600080fd5b506105566107423660046156da565b6113f0565b34801561075357600080fd5b506105566107623660046154ad565b61148a565b6104c66107753660046154ad565b611590565b34801561078657600080fd5b50610556600e5481565b34801561079c57600080fd5b50610556600c5481565b3480156107b257600080fd5b506104c66107c1366004615448565b6116f1565b3480156107d257600080fd5b506107f76107e1366004615448565b601f6020526000908152604090205461ffff1681565b60405161ffff909116815260200161053c565b6104c6610818366004615713565b611780565b34801561082957600080fd5b506104c6610838366004615713565b611a3b565b34801561084957600080fd5b5061055660075481565b34801561085f57600080fd5b5061055660085481565b34801561087557600080fd5b506104c6610884366004615745565b611ae4565b34801561089557600080fd5b506105566108a4366004615448565b611b33565b3480156108b557600080fd5b506105566108c4366004615762565b611cb2565b3480156108d557600080fd5b50610556600b5481565b3480156108eb57600080fd5b5061055660225481565b34801561090157600080fd5b50610915610910366004615448565b611cda565b60405161053c91906157df565b34801561092e57600080fd5b506104c661093d3660046157f2565b611d74565b34801561094e57600080fd5b506104c661067e366004615820565b34801561096957600080fd5b5060045461052890600160a060020a031681565b34801561098957600080fd5b506104c661067e366004615882565b3480156109a457600080fd5b5060195461052890600160a060020a031681565b3480156109c457600080fd5b506104c66109d33660046154ad565b611dd3565b3480156109e457600080fd5b506104c66109f33660046158f9565b611ed2565b348015610a0457600080fd5b5061052861dead81565b348015610a1a57600080fd5b506104c6611f3f565b348015610a2f57600080fd5b50610556610a3e366004615916565b611f78565b348015610a4f57600080fd5b50601d5461052890600160a060020a031681565b348015610a6f57600080fd5b506104c6610a7e366004615955565b611ff2565b348015610a8f57600080fd5b5060175461052890600160a060020a031681565b348015610aaf57600080fd5b506104c6610abe366004615713565b612053565b348015610acf57600080fd5b506104c6610ade36600461598c565b6121d4565b348015610aef57600080fd5b5060165461052890600160a060020a031681565b348015610b0f57600080fd5b506104c6610b1e36600461598c565b61222e565b348015610b2f57600080fd5b5060025461052890600160a060020a031681565b348015610b4f57600080fd5b50600054600160a060020a0316610528565b348015610b6d57600080fd5b50610556610b7c3660046159b8565b612274565b348015610b8d57600080fd5b50601654610bb39074010000000000000000000000000000000000000000900460ff1681565b604051901515815260200161053c565b348015610bcf57600080fd5b50610556610bde366004615448565b6123fe565b348015610bef57600080fd5b506104c6610bfe366004615448565b6124ef565b348015610c0f57600080fd5b50610528610c1e366004615448565b612559565b348015610c2f57600080fd5b5061055660105481565b348015610c4557600080fd5b50610556600d5481565b348015610c5b57600080fd5b506104c6610c6a36600461540f565b612569565b6104c6610c7d366004615a2d565b6125c4565b348015610c8e57600080fd5b5060055461052890600160a060020a031681565b348015610cae57600080fd5b50610556610cbd366004615a99565b6127cc565b348015610cce57600080fd5b5060215461052890600160a060020a031681565b348015610cee57600080fd5b506104c6610cfd366004615abb565b6127e8565b348015610d0e57600080fd5b50601c5461052890600160a060020a031681565b348015610d2e57600080fd5b50610d42610d3d366004615b49565b612aba565b604080519687526020870195909552938501929092526060840152608083015260a082015260c00161053c565b348015610d7b57600080fd5b5060035461052890600160a060020a031681565b348015610d9b57600080fd5b506104c6610daa36600461561b565b612b1b565b348015610dbb57600080fd5b5061055660095481565b348015610dd157600080fd5b506104c6610de0366004615b81565b612b5b565b348015610df157600080fd5b5060065461052890600160a060020a031681565b348015610e1157600080fd5b506104c661067e366004615bad565b348015610e2c57600080fd5b50610556610e3b366004615713565b612c23565b348015610e4c57600080fd5b50610556610e5b366004615c19565b612d47565b348015610e6c57600080fd5b50610556600a5481565b348015610e8257600080fd5b506104c6610e91366004615cf1565b612e2d565b348015610ea257600080fd5b5061055660255481565b348015610eb857600080fd5b5060185461052890600160a060020a031681565b348015610ed857600080fd5b506104c6610ee7366004615745565b612ee0565b348015610ef857600080fd5b5061055660115481565b348015610f0e57600080fd5b506104c6610f1d366004615745565b612f2f565b348015610f2e57600080fd5b506104c6610f3d366004615448565b612fe7565b348015610f4e57600080fd5b506104c6610f5d36600461540f565b61306c565b348015610f6e57600080fd5b5060125461052890600160a060020a031681565b8585858080601f016020809104026020016040519081016040528093929190818152602001838380828437600092018290525061ffff861681526020808052604080832054875188840120818552601e909352928190209051929550909350610fec925090615dad565b6040518091039020146110495760405160e560020a62461bcd02815260206004820152601960248201527f556e7265636f672078636861696e20636f6e74726f6c6c65720000000000000060448201526064015b60405180910390fd5b61ffff89166000908152602080526040812054906110678688615e4c565b90507f61b729dc00000000000000000000000000000000000000000000000000000000600160e060020a0319821614156110cf576000808080806110ad8b8d018d615e95565b95509550955095509550506110c58585858585613124565b505050505061111a565b60405160e560020a62461bcd02815260206004820152601160248201527f556e7265636f676e697a65642066756e630000000000000000000000000000006044820152606401611040565b5050505050505050505050565b6002600154141561114d5760405160e560020a62461bcd02815260040161104090615f0a565b600260018190555060006013848154811061116a5761116a615f41565b60009182526020909120600690910201805490915061119390600160a060020a0316308561325d565b600581015481546111b391600160a060020a039182169133911686613389565b6111d08433604051806020016040528060008152508686426133da565b505060018055505050565b600054600160a060020a031633146112085760405160e560020a62461bcd02815260040161104090615f5a565b601c8054600160a060020a03938416600160a060020a031991821617909155601d8054929093169116179055565b600054600160a060020a031633146112635760405160e560020a62461bcd02815260040161104090615f5a565b60028054600160a060020a03938416600160a060020a03199182161790915560038054929093169116179055565b601a81815481106112a157600080fd5b600091825260209091200154600160a060020a0316905081565b600054600160a060020a031633146112e85760405160e560020a62461bcd02815260040161104090615f5a565b6000838152601e602052604090206113019083836151f2565b50505050565b6013818154811061131757600080fd5b6000918252602090912060069091020180546001820154600283015460038401546004850154600590950154600160a060020a0394851696509294919390921686565b60405160e560020a62461bcd02815260206004820152601760248201527f696c6c6567616c2064756d6d792066756e632063616c6c0000000000000000006044820152606401611040565b5050505050565b600054600160a060020a031633146113d95760405160e560020a62461bcd02815260040161104090615f5a565b80516113ec90601a906020840190615276565b5050565b6000600260015414156114185760405160e560020a62461bcd02815260040161104090615f0a565b6002600181905550600061143e85336040518060200160405280600081525087876137e7565b905061147d3382600001516013888154811061145c5761145c615f41565b6000918252602090912060069091020154600160a060020a03169190613ca1565b5160018055949350505050565b6000858152601f602090815260408083205460105491516c0100000000000000000000000033029381019390935261ffff169183916114dd91603401604051602081830303815290604052898989613cef565b905060006114ea85613d70565b6024546040517f40a7bb10000000000000000000000000000000000000000000000000000000008152919250600091600160a060020a03909116906340a7bb10906115419087903090889087908990600401615f8f565b6040805180830381865afa15801561155d573d6000803e3d6000fd5b505050506040513d601f19601f820116820180604052508101906115819190615fd5565b509a9950505050505050505050565b600260015414156115b65760405160e560020a62461bcd02815260040161104090615f0a565b60026001556010546040516c01000000000000000000000000330260208201526000916115f791603401604051602081830303815290604052878787613cef565b6000878152601e602052604081208054929350909161161590615d6f565b80601f016020809104026020016040519081016040528092919081815260200182805461164190615d6f565b801561168e5780601f106116635761010080835404028352916020019161168e565b820191906000526020600020905b81548152906001019060200180831161167157829003601f168201915b505050505090506116e46040518060c0016040528089815260200183815260200184815260200133600160a060020a031681526020016000600160a060020a031681526020016116dd86613d70565b9052613db4565b5050600180555050505050565b600054600160a060020a0316331461171e5760405160e560020a62461bcd02815260040161104090615f5a565b601254600160a060020a0316301461177b5760405160e560020a62461bcd02815260206004820152600f60248201527f6f6e6c7920686f6d6520636861696e00000000000000000000000000000000006044820152606401611040565b600a55565b600260015414156117a65760405160e560020a62461bcd02815260040161104090615f0a565b600260018190555083601381815481106117c2576117c2615f41565b6000918252602090912060069091020160050154600160a060020a031633600160a060020a0316146118395760405160e560020a62461bcd02815260206004820152600e60248201527f6f6e6c7920726567207661756c740000000000000000000000000000000000006044820152606401611040565b6000341161188c5760405160e560020a62461bcd02815260206004820152601160248201527f4e6f2066656573207375626d69747465640000000000000000000000000000006044820152606401611040565b60006118988585613e69565b6003549091506118b290600160a060020a0316308361325d565b6003546118ca90600160a060020a0316333084613389565b60035460405160e060020a6370a08231028152306004820152600091600160a060020a0316906370a0823190602401602060405180830381865afa158015611916573d6000803e3d6000fd5b505050506040513d601f19601f8201168201806040525081019061193a9190615ff9565b90506000611946613e75565b905060006119596010548989858a613eab565b6010546000908152601e602052604081208054929350909161197a90615d6f565b80601f01602080910402602001604051908101604052809291908181526020018280546119a690615d6f565b80156119f35780601f106119c8576101008083540402835291602001916119f3565b820191906000526020600020905b8154815290600101906020018083116119d657829003601f168201915b50505050509050611a2b6040518060a00160405280601154815260200186815260200183815260200184815260200189815250613f00565b5050600180555050505050505050565b60026001541415611a615760405160e560020a62461bcd02815260040161104090615f0a565b6002600181905550600060138581548110611a7e57611a7e615f41565b6000918252602090912060056006909202010154600354600160a060020a039182169250611aae9116308661325d565b600354611ac690600160a060020a0316338387613389565b6111d085336040518060200160405280600081525087874288613fba565b600054600160a060020a03163314611b115760405160e560020a62461bcd02815260040161104090615f5a565b60168054600160a060020a031916600160a060020a0392909216919091179055565b60008060138381548110611b4957611b49615f41565b9060005260206000209060060201905080600201544311611b6d5750600092915050565b6000611b868260020154436140be90919063ffffffff16565b905060008111611b9a575060009392505050565b6000611bcb600f54611bc58560010154611bbf600954876140ca90919063ffffffff16565b906140ca565b906140d6565b601254909150600160a060020a0316301415611c2457600454600254611bff91600160a060020a0391821691163084613389565b6003830154611c0e9082613e69565b6003840155505043600290910155506000919050565b6002546040517f40c10f1900000000000000000000000000000000000000000000000000000000815230600482015260248101839052600160a060020a03909116906340c10f1990604401600060405180830381600087803b158015611c8957600080fd5b505af1158015611c9d573d6000803e3d6000fd5b5092979650505050505050565b505050919050565b6000918252601460209081526040808420600160a060020a0393909316845291905290205490565b601e6020526000908152604090208054611cf390615d6f565b80601f0160208091040260200160405190810160405280929190818152602001828054611d1f90615d6f565b8015611d6c5780601f10611d4157610100808354040283529160200191611d6c565b820191906000526020600020905b815481529060010190602001808311611d4f57829003601f168201915b505050505081565b600054600160a060020a03163314611da15760405160e560020a62461bcd02815260040161104090615f5a565b60109290925560115560128054600160a060020a031916600160a060020a03909216919091179055565b505050505050565b601654600160a060020a031633600160a060020a031614611e395760405160e560020a62461bcd02815260206004820152601160248201527f6f6e6c79205a6f72726f206f7261636c650000000000000000000000000000006044820152606401611040565b6000611e5b83611bc5611e4e876127106140d6565b600e54611bbf908a6140ca565b9050600c54811115611e705750600c54611e7f565b600b54811015611e7f5750600b545b6000611e91612710611bc585856140ca565b90506000611eae88611bc584600d546140ca90919063ffffffff16565b9050611ec5600854826140d690919063ffffffff16565b6009555050505050505050565b600054600160a060020a03163314611eff5760405160e560020a62461bcd02815260040161104090615f5a565b60168054911515740100000000000000000000000000000000000000000274ff000000000000000000000000000000000000000019909216919091179055565b600054600160a060020a03163314611f6c5760405160e560020a62461bcd02815260040161104090615f5a565b611f7660006140f1565b565b600060026001541415611fa05760405160e560020a62461bcd02815260040161104090615f0a565b60026001819055506000611fc7336040518060200160405280600081525088888888614141565b5050600354919250611fe591600160a060020a031690503383613ca1565b6001805595945050505050565b600054600160a060020a0316331461201f5760405160e560020a62461bcd02815260040161104090615f5a565b60218054600160a060020a03948516600160a060020a03199182161790915560229290925560248054919093169116179055565b600260015414156120795760405160e560020a62461bcd02815260040161104090615f0a565b6002600155600084815260146020908152604080832033845290915281208054859081106120a9576120a9615f41565b6000918252602080832060036006909302019190910154878352601482526040808420338552909252908220805491935090869081106120eb576120eb615f41565b9060005260206000209060060201600401549050600061211f33604051806020016040528060008152508989600089614141565b50505090506060600360009054906101000a9004600160a060020a03168160008151811061214f5761214f615f41565b6020026020010190600160a060020a03169081600160a060020a03168152505061218d8633604051806020016040528060008152508588888b613fba565b604051338152869088908a907f67e7aba7263d8fbeb0cd9a2f4008f060a6a03f46c1d7f9d0550f0b93e96e96f89060200160405180910390a4505060018055505050505050565b600054600160a060020a031633146122015760405160e560020a62461bcd02815260040161104090615f5a565b6000828152601f60209081526040808320805461ffff90951661ffff199095168517905592825280522055565b600054600160a060020a0316331461225b5760405160e560020a62461bcd02815260040161104090615f5a565b60009182526023602052604090912061ffff9091169055565b604080516060808201835260008083526020830181905292820152600061229f8a8a8a8a8a8a61425b565b60008b8152601e60205260408120805492935090916122bd90615d6f565b80601f01602080910402602001604051908101604052809291908181526020018280546122e990615d6f565b80156123365780601f1061230b57610100808354040283529160200191612336565b820191906000526020600020905b81548152906001019060200180831161231957829003601f168201915b505050505090506000602160009054906101000a9004600160a060020a0316600160a060020a0316630a512369601f60008f815260200190815260200160002060009054906101000a900461ffff1660018587896040518663ffffffff1660e060020a0281526004016123ad95949392919061603b565b6040805180830381865afa1580156123c9573d6000803e3d6000fd5b505050506040513d601f19601f820116820180604052508101906123ed9190615fd5565b509c9b505050505050505050505050565b60165460009074010000000000000000000000000000000000000000900460ff16156124de576040517f677342ce000000000000000000000000000000000000000000000000000000008152600481018390526124d89064e8d4a5100090611bbf906124d09073__CustomMath____________________________9063677342ce90602401602060405180830381865af41580156124a0573d6000803e3d6000fd5b505050506040513d601f19601f820116820180604052508101906124c49190615ff9565b611bbf6002600a6140d6565b600190613e69565b92915050565b5064e8d4a51000919050565b919050565b600260015414156125155760405160e560020a62461bcd02815260040161104090615f0a565b600260015560006125268233611cb2565b905060005b818110156125505761253f838260006113f0565b50612549816160a0565b905061252b565b50506001805550565b601b81815481106112a157600080fd5b600054600160a060020a031633146125965760405160e560020a62461bcd02815260040161104090615f5a565b60178054600160a060020a03938416600160a060020a03199182161790915560188054929093169116179055565b600260015414156125ea5760405160e560020a62461bcd02815260040161104090615f0a565b60026001553461263f5760405160e560020a62461bcd02815260206004820152601160248201527f4e6f2066656573207375626d69747465640000000000000000000000000000006044820152606401611040565b60035461265690600160a060020a0316308661325d565b60035461266e90600160a060020a0316333087613389565b60035460405160e060020a6370a08231028152306004820152600091600160a060020a0316906370a0823190602401602060405180830381865afa1580156126ba573d6000803e3d6000fd5b505050506040513d601f19601f820116820180604052508101906126de9190615ff9565b905060006126f08783878733886142df565b6000898152601e602052604081208054929350909161270e90615d6f565b80601f016020809104026020016040519081016040528092919081815260200182805461273a90615d6f565b80156127875780601f1061275c57610100808354040283529160200191612787565b820191906000526020600020905b81548152906001019060200180831161276a57829003601f168201915b505050505090506127bd6040518060a001604052808b815260200185815260200183815260200184815260200187815250613f00565b50506001805550505050505050565b60006127e164e8d4a51000611bc585856140ca565b9392505050565b61ffff8616600090815260208080526040808320548851838a0120818552601e90935292819020905189938993909290916128239190615dad565b60405180910390201461287b5760405160e560020a62461bcd02815260206004820152601960248201527f556e7265636f672078636861696e20636f6e74726f6c6c6572000000000000006044820152606401611040565b61ffff8916600090815260208052604080822054905160e060020a6370a08231028152306004820152909190600160a060020a038916906370a0823190602401602060405180830381865afa1580156128d8573d6000803e3d6000fd5b505050506040513d601f19601f820116820180604052508101906128fc9190615ff9565b9050808711156129515760405160e560020a62461bcd02815260206004820152601460248201527f616d6f756e744c4420657863656564732062616c0000000000000000000000006044820152606401611040565b600061295c876160bb565b90507f692d8b8b00000000000000000000000000000000000000000000000000000000600160e060020a0319821614156129d15760008060008060008b8060200190518101906129ac9190616136565b9650965096509650509550506129c7858e86428787876140e2565b5050505050612aac565b7fc8ba44b500000000000000000000000000000000000000000000000000000000600160e060020a031982161415612a46576000806000806000808c806020019051810190612a2091906161c3565b96509650965096509650965050612a3b868686868686614322565b505050505050612aac565b7f25b4383000000000000000000000000000000000000000000000000000000000600160e060020a0319821614156110cf5760008060008060008b806020019051810190612a949190616245565b95509550955095509550506129c785858585856136ee565b505050505050505050505050565b60146020528260005260406000206020528160005260406000208181548110612ae257600080fd5b60009182526020909120600690910201805460018201546002830154600384015460048501546005909501549397509195509350919086565b600054600160a060020a03163314612b485760405160e560020a62461bcd02815260040161104090615f5a565b80516113ec90601b906020840190615276565b600054600160a060020a03163314612b885760405160e560020a62461bcd02815260040161104090615f5a565b600254600160a060020a0383811691161415612c0f5760405160e560020a62461bcd02815260206004820152603560248201527f217361666520746f20757365205a6f72726f20746f6b656e20696e2066756e6360448201527f20696e43617365546f6b656e73476574537475636b00000000000000000000006064820152608401611040565b6113ec600160a060020a0383163383613ca1565b6040805160608082018352600080835260208301819052928201526000612c4f60105488888888613eab565b601254604051600160a060020a039091166c0100000000000000000000000002602082015290915060009060340160408051601f198184030181528282526021546011546000908152601f602052928320547f0a5123690000000000000000000000000000000000000000000000000000000085529194509192600160a060020a0390921691630a51236991612cf79161ffff90911690600190879089908b9060040161603b565b6040805180830381865afa158015612d13573d6000803e3d6000fd5b505050506040513d601f19601f82011682018060405250810190612d379190615fd5565b509450505050505b949350505050565b6040805160608082018352600080835260208301819052928201526000612d728888888833896142df565b60215460008c8152601f60205260408082205490517f0a5123690000000000000000000000000000000000000000000000000000000081529394509092600160a060020a0390921691630a51236991612ddd9161ffff909116906001908f9088908a9060040161603b565b6040805180830381865afa158015612df9573d6000803e3d6000fd5b505050506040513d601f19601f82011682018060405250810190612e1d9190615fd5565b509b9a5050505050505050505050565b600054600160a060020a03163314612e5a5760405160e560020a62461bcd02815260040161104090615f5a565b85856001818110612e6d57612e6d615f41565b60200291909101356008555085856002818110612e8c57612e8c615f41565b6020029190910135600955508383600081612ea957612ea9615f41565b6020029190910135600b555083836001818110612ec857612ec8615f41565b6020029190910135600c5550600e55600d5550505050565b600054600160a060020a03163314612f0d5760405160e560020a62461bcd02815260040161104090615f5a565b60198054600160a060020a031916600160a060020a0392909216919091179055565b600054600160a060020a03163314612f5c5760405160e560020a62461bcd02815260040161104090615f5a565b600160a060020a038116612fdb5760405160e560020a62461bcd02815260206004820152602660248201527f4f776e61626c653a206e6577206f776e657220697320746865207a65726f206160448201527f64647265737300000000000000000000000000000000000000000000000000006064820152608401611040565b612fe4816140f1565b50565b600054600160a060020a031633146130145760405160e560020a62461bcd02815260040161104090615f5a565b600754156130675760405160e560020a62461bcd02815260206004820152601560248201527f626c6f636b506172616d7320696d6d757461626c6500000000000000000000006044820152606401611040565b600755565b600054600160a060020a031633146130995760405160e560020a62461bcd02815260040161104090615f5a565b601254600160a060020a031630146130f65760405160e560020a62461bcd02815260206004820152600f60248201527f6f6e6c7920686f6d6520636861696e00000000000000000000000000000000006044820152606401611040565b60048054600160a060020a03938416600160a060020a03199182161790915560058054929093169116179055565b6000838152601560205260408082209051613140908790616298565b908152604080516020928190038301902060008681529252812054600160a060020a0316915080613175838888888589614141565b5060035460405160e060020a6370a0823102815230600482015292955090935060009250600160a060020a0316906370a0823190602401602060405180830381865afa1580156131c9573d6000803e3d6000fd5b505050506040513d601f19601f820116820180604052508101906131ed9190615ff9565b9050600081116132425760405160e560020a62461bcd02815260206004820152601360248201527f4e6f7468696e6720746f207769746864726177000000000000000000000000006044820152606401611040565b6132528988888b8588888c6144a1565b505050505050505050565b6040517fdd62ed3e000000000000000000000000000000000000000000000000000000008152306004820152600160a060020a038381166024830152600091839186169063dd62ed3e90604401602060405180830381865afa1580156132c7573d6000803e3d6000fd5b505050506040513d601f19601f820116820180604052508101906132eb9190615ff9565b6132f591906162b4565b604051600160a060020a0385166024820152604481018290529091506113019085907f095ea7b300000000000000000000000000000000000000000000000000000000906064015b60408051601f198184030181529190526020810180517bffffffffffffffffffffffffffffffffffffffffffffffffffffffff16600160e060020a03199093169290921790915261457e565b604051600160a060020a03808516602483015283166044820152606481018290526113019085907f23b872dd000000000000000000000000000000000000000000000000000000009060840161333d565b600080601388815481106133f0576133f0615f41565b90600052602060002090600602019050600085116134535760405160e560020a62461bcd02815260206004820152601560248201527f5f77616e74416d74206d757374206265203e20302100000000000000000000006044820152606401611040565b61345c88611b33565b915086600160a060020a0381166135035760008751116134e75760405160e560020a62461bcd02815260206004820152602c60248201527f4e65697468657220666f726569676e2061636374206e6f72206c6f63616c206160448201527f6363742070726f766964656400000000000000000000000000000000000000006064820152608401611040565b6134f0876162cc565b6c01000000000000000000000000900490505b600060138a8154811061351857613518615f41565b60009182526020909120600690910201600501546040517fba0bb4ab000000000000000000000000000000000000000000000000000000008152600160a060020a038481166004830152602482018a90529091169063ba0bb4ab906044016020604051808303816000875af1158015613595573d6000803e3d6000fd5b505050506040513d601f19601f820116820180604052508101906135b99190615ff9565b600580549085015491925064e8d4a5100091600160a060020a039081169116146135e9576135e6876123fe565b90505b60006135f583836127cc565b60048601549091506136079082613e69565b6004860181905560009061362490611bc58464e8d4a510006140ca565b905060006040518060c0016040528084815260200185815260200161365f64e8d4a51000611bc5868c600301546140ca90919063ffffffff16565b81526020018b81526020018a8152602001600081525090506136838e878e84614666565b8d8c6040516136929190616298565b604051809103902087600160a060020a03167fc6b1f1535b3bb3bdffa2f97a671ab7bd6f2512deec58103fa47eb40ed95274278e6040516136d591815260200190565b60405180910390a4505050505050509695505050505050565b60006136fa8585613e69565b60035460405160e060020a6370a08231028152306004820152919250600091600160a060020a03909116906370a0823190602401602060405180830381865afa15801561374b573d6000803e3d6000fd5b505050506040513d601f19601f8201168201806040525081019061376f9190615ff9565b9050600061378183611bc5848a6140ca565b905061378d8185614755565b600061379d84611bc5858a6140ca565b90506137a98186614c1f565b80828a7f4bda9eedb6fd5c584b11e8c64fc79bbe5c7faf6da945a3c7e0de361b6ee5a1bd60405160405180910390a485156132525761325286614d95565b6138126040518060800160405280600081526020016000815260200160008152602001600081525090565b600160a060020a03851615801561382a575060008451115b806138475750600160a060020a0385161580159061384757508351155b6138965760405160e560020a62461bcd02815260206004820152601d60248201527f4f6e6c79206f6e65206163636f756e74207479706520616c6c6f7765640000006044820152606401611040565b60006138a487858789614e12565b90506000601388815481106138bb576138bb615f41565b9060005260206000209060060201905060008260000151116139225760405160e560020a62461bcd02815260206004820152601960248201527f7472616e6368652e636f6e747269627574696f6e2069732030000000000000006044820152606401611040565b60008160040154116139795760405160e560020a62461bcd02815260206004820152601e60248201527f746f74616c5472616e636865436f6e747269627574696f6e73206973203000006044820152606401611040565b60a0820151156139ce5760405160e560020a62461bcd02815260206004820152601460248201527f416c726561647920657869746564207661756c740000000000000000000000006044820152606401611040565b6139d788611b33565b6020840152600481015482516000916139f991611bc59064e8d4a510006140ca565b90506000613a2b8460400151613a2564e8d4a51000611bc58760030154876140ca90919063ffffffff16565b906140be565b90508015613aa857600080613a408684614fb3565b915091506011546010541415613a81578115613a6057613a608b8361503f565b8015613a7c57600554613a7c90600160a060020a03168261503f565b613aa5565b613a9661dead613a918484613e69565b61503f565b60408701829052606087018190525b50505b85613c945760138a81548110613ac057613ac0615f41565b600091825260209091206006909102016005015484516040517fe0ccabfa000000000000000000000000000000000000000000000000000000008152600160a060020a038c81166004830152602482019290925291169063e0ccabfa906044016020604051808303816000875af1158015613b3f573d6000803e3d6000fd5b505050506040513d601f19601f82011682018060405250810190613b639190615ff9565b5083516004840154613b74916140be565b600484810191909155835460405160e060020a6370a082310281523092810192909252600160a060020a0316906370a0823190602401602060405180830381865afa158015613bc7573d6000803e3d6000fd5b505050506040513d601f19601f82011682018060405250810190613beb9190615ff9565b855260008a8152601460209081526040808320600160a060020a038d1684529091529020805442919089908110613c2457613c24615f41565b9060005260206000209060060201600501819055508988604051613c489190616298565b6040805191829003822088518b8452602084015291600160a060020a038d16917fa7749cd42821d3b82a6814af6d80712b2e43f98ec1b25aee31c8351855de65d9910160405180910390a45b5050505095945050505050565b604051600160a060020a038316602482015260448101829052613cea9084907fa9059cbb000000000000000000000000000000000000000000000000000000009060640161333d565b505050565b6040516060907f61b729dc0000000000000000000000000000000000000000000000000000000090600090613d309089908990899089908990602001616306565b60405160208183030381529060405290508181604051602001613d5492919061633c565b6040516020818303038152906040529250505095945050505050565b604080517e01000000000000000000000000000000000000000000000000000000000000602082015260228082019390935281518082039093018352604201905290565b80516000908152601f6020908152604091829020546024549184015183850151606086015160a087015195517fc580310000000000000000000000000000000000000000000000000000000000815261ffff90941695600160a060020a039095169463c5803100943494613e339489949193909282919060040161636c565b6000604051808303818588803b158015613e4c57600080fd5b505af1158015613e60573d6000803e3d6000fd5b50505050505050565b60006127e182846162b4565b60255460405181907f18bd4bd6372d39482d375f68791749755bdb38e8768acbfb6af999cef1adc6e090600090a2600060255590565b604080516020810187905290810185905260608082018590526080820184905260a08201839052907f25b43830000000000000000000000000000000000000000000000000000000009060009060c001613d30565b613f2460405180606001604052806000815260200160008152602001606081525090565b60215482516000908152601f602090815260408083205460225487518552602384529190932054918601516080870151600160a060020a0390951694639fbf10fc94349461ffff90911693929091339190613f88906103e890611bc59084906140ca565b898b604001518c606001516040518b63ffffffff1660e060020a028152600401613e33999897969594939291906163d3565b600060138881548110613fcf57613fcf615f41565b60009182526020822060069190910201600501546040517fe502a88d0000000000000000000000000000000000000000000000000000000081526004810188905260248101859052600160a060020a039091169250829190829063e502a88d906044016020604051808303816000875af1158015614051573d6000803e3d6000fd5b505050506040513d601f19601f820116820180604052508101906140759190615ff9565b90506140b0838260138d8154811061408f5761408f615f41565b6000918252602090912060069091020154600160a060020a0316919061325d565b61111a8a8a8a848a8a6133da565b60006127e18284616451565b60006127e18284616468565b60006127e18284616487565b613e6087828489898989613fba565b60008054600160a060020a03838116600160a060020a0319831681178455604051919092169283917f8be0079c531659141344cd1fd0a4f28419497f9722a3daafe3b4186f6b6457e09190a35050565b60008060008060006013898154811061415c5761415c615f41565b60009182526020822060056006909202010154600160a060020a0316915081906141898b8e8e8d8d6137e7565b90506141a783826000015160138e8154811061408f5761408f615f41565b80516040517f648794a4000000000000000000000000000000000000000000000000000000008152600481019190915260248101899052600160a060020a0383169063648794a4906044016020604051808303816000875af1158015614211573d6000803e3d6000fd5b505050506040513d601f19601f820116820180604052508101906142359190615ff9565b60208201516040830151606090930151919f909e50919c509a5098505050505050505050565b6040516060907fc8ba44b5000000000000000000000000000000000000000000000000000000009060009061429e908a908a908a908a908a908a906020016164ac565b604051602081830303815290604052905081816040516020016142c292919061633c565b604051602081830303815290604052925050509695505050505050565b6040516060907f692d8b8b000000000000000000000000000000000000000000000000000000009060009061429e908a908a908a908a908a908a906020016164e6565b81838060200190518101906143379190616520565b600160a060020a0316867f6f6e500192a591cd4df1823b5be9f8681a54e919ca055745a13b8715ee3dfb81878a60405161437b929190918252602082015260400190565b60405180910390a46002548351600160a060020a03909116906340c10f19906143ad9086016020908101908701616520565b60405160e060020a63ffffffff8416028152600160a060020a03909116600482015260248101849052604401600060405180830381600087803b1580156143f357600080fd5b505af1158015614407573d6000803e3d6000fd5b505050506000821115611dcb57600254600480546040517f9dc29fac000000000000000000000000000000000000000000000000000000008152600160a060020a03918216928101929092526024820185905290911690639dc29fac90604401600060405180830381600087803b15801561448157600080fd5b505af1158015614495573d6000803e3d6000fd5b50505050505050505050565b60006144b189898989888861425b565b60008a8152601e60205260408120805492935090916144cf90615d6f565b80601f01602080910402602001604051908101604052809291908181526020018280546144fb90615d6f565b80156145485780601f1061451d57610100808354040283529160200191614548565b820191906000526020600020905b81548152906001019060200180831161452b57829003601f168201915b505050505090506144956040518060a001604052808c815260200188815260200183815260200184815260200185815250613f00565b60006145d3826040518060400160405280602081526020017f5361666545524332303a206c6f772d6c6576656c2063616c6c206661696c656481525085600160a060020a03166150d89092919063ffffffff16565b805190915015613cea57808060200190518101906145f1919061653d565b613cea5760405160e560020a62461bcd02815260206004820152602a60248201527f5361666545524332303a204552433230206f7065726174696f6e20646964206e60448201527f6f742073756363656564000000000000000000000000000000000000000000006064820152608401611040565b6000848152601460209081526040808320600160a060020a0387168452825280832080546001818101835591855293839020855160069095020193845591840151918301919091558201516002820155606082015160038201556080820151600482015560a0820151600590910155815115611301578260156000868152602001908152602001600020836040516146fe9190616298565b9081526020016040518091039020600061471d6001613a258989611cb2565b815260200190815260200160002060006101000a815481600160a060020a030219169083600160a060020a0316021790555050505050565b60195460035461477291600160a060020a0391821691168461325d565b601c546040517f871431bc000000000000000000000000000000000000000000000000000000008152600160a060020a03909116600482015260009073__PriceFeed_____________________________9063871431bc90602401602060405180830381865af41580156147ea573d6000803e3d6000fd5b505050506040513d601f19601f8201168201806040525081019061480e9190615ff9565b601d546040517f871431bc000000000000000000000000000000000000000000000000000000008152600160a060020a03909116600482015290915060009073__PriceFeed_____________________________9063871431bc90602401602060405180830381865af4158015614889573d6000803e3d6000fd5b505050506040513d601f19601f820116820180604052508101906148ad9190615ff9565b6019546006549192506148cd91600160a060020a0390811691168661325d565b60195473__SafeSwapUni___________________________90632b08bab190600160a060020a03166149008760026140d6565b64e8d4a510008688601a3061491742610258613e69565b6040518963ffffffff1660e060020a02815260040161493d98979695949392919061655a565b60006040518083038186803b15801561495557600080fd5b505af4158015614969573d6000803e3d6000fd5b505060195473__SafeSwapUni___________________________9250632b08bab19150600160a060020a03166149a08760026140d6565b64e8d4a510008588601b306149b742610258613e69565b6040518963ffffffff1660e060020a0281526004016149dd98979695949392919061655a565b60006040518083038186803b1580156149f557600080fd5b505af4158015614a09573d6000803e3d6000fd5b505060025460405160e060020a6370a0823102815230600482015260009350600160a060020a0390911691506370a0823190602401602060405180830381865afa158015614a5b573d6000803e3d6000fd5b505050506040513d601f19601f82011682018060405250810190614a7f9190615ff9565b60185460405160e060020a6370a08231028152306004820152919250600091600160a060020a03909116906370a0823190602401602060405180830381865afa158015614ad0573d6000803e3d6000fd5b505050506040513d601f19601f82011682018060405250810190614af49190615ff9565b601954600254919250614b1491600160a060020a0390811691168461325d565b601954601854614b3191600160a060020a0391821691168361325d565b601954600254601854600160a060020a039283169263e8e3370092811691168585614b626103e8611bc5848e6140ca565b614b726103e8611bc58a8f6140ca565b61dead614b8142610258613e69565b60405163ffffffff8a1660e060020a028152600160a060020a039889166004820152968816602488015260448701959095526064860193909352608485019190915260a484015290921660c482015260e4810191909152610104016060604051808303816000875af1158015614bfb573d6000803e3d6000fd5b505050506040513d601f19601f8201168201806040525081019061325291906165f1565b601954600354614c3c91600160a060020a0391821691168461325d565b601c546040517f871431bc000000000000000000000000000000000000000000000000000000008152600160a060020a03909116600482015260009073__PriceFeed_____________________________9063871431bc90602401602060405180830381865af4158015614cb4573d6000803e3d6000fd5b505050506040513d601f19601f82011682018060405250810190614cd89190615ff9565b601954600654919250614cf891600160a060020a0390811691168561325d565b60195460055473__SafeSwapUni___________________________91632b08bab191600160a060020a0391821691879164e8d4a510009187918991601a9116614d4342610258613e69565b6040518963ffffffff1660e060020a028152600401614d6998979695949392919061655a565b60006040518083038186803b158015614d8157600080fd5b505af4158015613e60573d6000803e3d6000fd5b6002546005546040517f40c10f19000000000000000000000000000000000000000000000000000000008152600160a060020a039182166004820152602481018490529116906340c10f1990604401600060405180830381600087803b158015614dfe57600080fd5b505af11580156113a5573d6000803e3d6000fd5b614e4b6040518060c001604052806000815260200160008152602001600081526020016000815260200160008152602001600081525090565b600160a060020a038216614ee9576000858152601460209081526040808320600160a060020a03861684529091529020805485908110614e8d57614e8d615f41565b90600052602060002090600602016040518060c001604052908160008201548152602001600182015481526020016002820154815260200160038201548152602001600482015481526020016005820154815250509050612d3f565b6000858152601560205260408082209051614f05908690616298565b908152604080516020928190038301902060008881529083528181205489825260148452828220600160a060020a0390911680835293522080549192509086908110614f5357614f53615f41565b90600052602060002090600602016040518060c00160405290816000820154815260200160018201548152602001600282015481526020016003820154815260200160048201548152602001600582015481525050915050949350505050565b60008060008311614fc957506000905080615038565b6000614ff742613a25614fec62093a8089606001516140ca90919063ffffffff16565b608089015190613e69565b9050801561503257606085015161501f906150159062093a806140ca565b611bc586846140ca565b915061502b84836140be565b9250615036565b8392505b505b9250929050565b60025460405160e060020a6370a082310281523060048201528291600091600160a060020a03909116906370a0823190602401602060405180830381865afa15801561508f573d6000803e3d6000fd5b505050506040513d601f19601f820116820180604052508101906150b39190615ff9565b9050808311156150c1578091505b60025461130190600160a060020a03168584613ca1565b6060612d3f848460008585600160a060020a0385163b61513d5760405160e560020a62461bcd02815260206004820152601d60248201527f416464726573733a2063616c6c20746f206e6f6e2d636f6e74726163740000006044820152606401611040565b60008086600160a060020a031685876040516151599190616298565b60006040518083038185875af1925050503d8060008114615196576040519150601f19603f3d011682016040523d82523d6000602084013e61519b565b606091505b50915091506151ab8282866151b6565b979650505050505050565b606083156151c55750816127e1565b8251156151d55782518084602001fd5b8160405160e560020a62461bcd02815260040161104091906157df565b8280546151fe90615d6f565b90600052602060002090601f0160209004810192826152205760008555615266565b82601f106152395782800160ff19823516178555615266565b82800160010185558215615266579182015b8281111561526657823582559160200191906001019061524b565b506152729291506152cb565b5090565b828054828255906000526020600020908101928215615266579160200282015b828111156152665782518254600160a060020a031916600160a060020a03909116178255602090920191600190910190615296565b5b8082111561527257600081556001016152cc565b803561ffff811681146124ea57600080fd5b60008083601f84011261530457600080fd5b50813567ffffffffffffffff81111561531c57600080fd5b60208301915083602082850101111561503857600080fd5b6000806000806000806080878903121561534d57600080fd5b615356876152e0565b9550602087013567ffffffffffffffff8082111561537357600080fd5b61537f8a838b016152f2565b909750955060408901359150808216821461539957600080fd5b909350606088013590808211156153af57600080fd5b506153bc89828a016152f2565b979a9699509497509295939492505050565b6000806000606084860312156153e357600080fd5b505081359360208301359350604090920135919050565b600160a060020a0381168114612fe457600080fd5b6000806040838503121561542257600080fd5b823561542d816153fa565b9150602083013561543d816153fa565b809150509250929050565b60006020828403121561545a57600080fd5b5035919050565b60008060006040848603121561547657600080fd5b83359250602084013567ffffffffffffffff81111561549457600080fd5b6154a0868287016152f2565b9497909650939450505050565b600080600080600060a086880312156154c557600080fd5b505083359560208501359550604085013594606081013594506080013592509050565b6000602082840312156154fa57600080fd5b6127e1826152e0565b60e060020a634e487b7102600052604160045260246000fd5b604051601f8201601f1916810167ffffffffffffffff8111828210171561554557615545615503565b604052919050565b600067ffffffffffffffff82111561556757615567615503565b50601f01601f191660200190565b600082601f83011261558657600080fd5b81356155996155948261554d565b61551c565b8181528460208386010111156155ae57600080fd5b816020850160208301376000918101602001919091529392505050565b6000806000606084860312156155e057600080fd5b83359250602084013567ffffffffffffffff8111156155fe57600080fd5b61560a86828701615575565b925050604084013590509250925092565b6000602080838503121561562e57600080fd5b823567ffffffffffffffff8082111561564657600080fd5b818501915085601f83011261565a57600080fd5b81358181111561566c5761566c615503565b838102915061567c84830161551c565b818152918301840191848101908884111561569657600080fd5b938501935b838510156156c057843592506156b0836153fa565b828252938501939085019061569b565b98975050505050505050565b8015158114612fe457600080fd5b6000806000606084860312156156ef57600080fd5b83359250602084013591506040840135615708816156cc565b809150509250925092565b6000806000806080858703121561572957600080fd5b5050823594602084013594506040840135936060013592509050565b60006020828403121561575757600080fd5b81356127e1816153fa565b6000806040838503121561577557600080fd5b82359150602083013561543d816153fa565b60005b838110156157a257818101518382015260200161578a565b838111156113015750506000910152565b600081518084526157cb816020860160208601615787565b601f01601f19169290920160200192915050565b6020815260006127e160208301846157b3565b60008060006060848603121561580757600080fd5b83359250602084013591506040840135615708816153fa565b600080600080600060a0868803121561583857600080fd5b85359450602086013567ffffffffffffffff81111561585657600080fd5b61586288828901615575565b959895975050505060408401359360608101359360809091013592509050565b60008060008060008060c0878903121561589b57600080fd5b86359550602087013594506040870135935060608701359250608087013567ffffffffffffffff8111156158ce57600080fd5b6158da89828a01615575565b92505060a08701356158eb816153fa565b809150509295509295509295565b60006020828403121561590b57600080fd5b81356127e1816156cc565b6000806000806080858703121561592c57600080fd5b84359350602085013592506040850135615945816156cc565b9396929550929360600135925050565b60008060006060848603121561596a57600080fd5b8335615975816153fa565b9250602084013591506040840135615708816153fa565b6000806040838503121561599f57600080fd5b823591506159af602084016152e0565b90509250929050565b600080600080600080600060e0888a0312156159d357600080fd5b873596506020880135955060408801359450606088013567ffffffffffffffff8111156159ff57600080fd5b615a0b8a828b01615575565b979a969950949760808101359660a0820135965060c090910135945092505050565b60008060008060008060c08789031215615a4657600080fd5b863595506020870135945060408701359350606087013592506080870135915060a087013567ffffffffffffffff811115615a8057600080fd5b615a8c89828a01615575565b9150509295509295509295565b60008060408385031215615aac57600080fd5b50508035926020909101359150565b60008060008060008060c08789031215615ad457600080fd5b615add876152e0565b9550602087013567ffffffffffffffff80821115615afa57600080fd5b615b068a838b01615575565b96506040890135955060608901359150615b1f826153fa565b9093506080880135925060a08801359080821115615b3c57600080fd5b50615a8c89828a01615575565b600080600060608486031215615b5e57600080fd5b833592506020840135615b70816153fa565b929592945050506040919091013590565b60008060408385031215615b9457600080fd5b8235615b9f816153fa565b946020939093013593505050565b60008060008060008060c08789031215615bc657600080fd5b863595506020870135945060408701359350606087013567ffffffffffffffff811115615bf257600080fd5b615bfe89828a01615575565b9350506080870135915060a087013590509295509295509295565b600080600080600080600060e0888a031215615c3457600080fd5b87359650602088013567ffffffffffffffff80821115615c5357600080fd5b615c5f8b838c01615575565b975060408a0135965060608a0135955060808a0135945060a08a0135935060c08a0135915080821115615c9157600080fd5b50615c9e8a828b01615575565b91505092959891949750929550565b60008083601f840112615cbf57600080fd5b50813567ffffffffffffffff811115615cd757600080fd5b602083019150836020808302850101111561503857600080fd5b60008060008060008060808789031215615d0a57600080fd5b863567ffffffffffffffff80821115615d2257600080fd5b615d2e8a838b01615cad565b90985096506020890135915080821115615d4757600080fd5b50615d5489828a01615cad565b979a9699509760408101359660609091013595509350505050565b600281046001821680615d8357607f821691505b60208210811415615da75760e060020a634e487b7102600052602260045260246000fd5b50919050565b8154600090819060028104600180831680615dc957607f831692505b6020808410821415615dec5760e060020a634e487b710286526022600452602486fd5b818015615e005760018114615e1157615e3e565b60ff19861689528489019650615e3e565b60008a81526020902060005b86811015615e365781548b820152908501908301615e1d565b505084890196505b509498975050505050505050565b600160e060020a03198135818116916004851015615e7757808560040360080260020a820283161692505b505092915050565b600160e060020a031981168114612fe457600080fd5b60008060008060008060c08789031215615eae57600080fd5b8635615eb981615e7f565b955060208701359450604087013567ffffffffffffffff811115615edc57600080fd5b615ee889828a01615575565b945050606087013592506080870135915060a087013590509295509295509295565b6020808252601f908201527f5265656e7472616e637947756172643a207265656e7472616e742063616c6c00604082015260600190565b60e060020a634e487b7102600052603260045260246000fd5b6020808252818101527f4f776e61626c653a2063616c6c6572206973206e6f7420746865206f776e6572604082015260600190565b61ffff86168152600160a060020a038516602082015260a060408201526000615fbb60a08301866157b3565b841515606084015282810360808401526156c081856157b3565b60008060408385031215615fe857600080fd5b505080516020909101519092909150565b60006020828403121561600b57600080fd5b5051919050565b80518252602081015160208301526000604082015160606040850152612d3f60608501826157b3565b61ffff8616815260ff8516602082015260a06040820152600061606160a08301866157b3565b828103606084015261607381866157b3565b905082810360808401526156c08185616012565b60e060020a634e487b7102600052601160045260246000fd5b60006000198214156160b4576160b4616087565b5060010190565b600081516020830151600160e060020a031980821693506004831015611caa5760049290920360080260020a8202161692915050565b600082601f83011261610257600080fd5b81516161106155948261554d565b81815284602083860101111561612557600080fd5b612d3f826020830160208701615787565b600080600080600080600060e0888a03121561615157600080fd5b875161615c81615e7f565b809750506020880151955060408801519450606088015193506080880151925060a088015167ffffffffffffffff81111561619657600080fd5b6161a28a828b016160f1565b92505060c08801516161b3816153fa565b8091505092959891949750929550565b600080600080600080600060e0888a0312156161de57600080fd5b87516161e981615e7f565b80975050602088015195506040880151945060608801519350608088015167ffffffffffffffff81111561621c57600080fd5b6162288a828b016160f1565b93505060a0880151915060c0880151905092959891949750929550565b60008060008060008060c0878903121561625e57600080fd5b865161626981615e7f565b6020880151604089015160608a015160808b015160a0909b0151939c929b509099909850965090945092505050565b600082516162aa818460208701615787565b9190910192915050565b600082198211156162c7576162c7616087565b500190565b805160208201516bffffffffffffffffffffffff198082169291906014831015611caa5760149290920360080260020a8202161692915050565b85815260a06020820152600061631f60a08301876157b3565b604083019590955250606081019290925260809091015292915050565b600160e060020a0319831681526000825161635e816004850160208701615787565b919091016004019392505050565b61ffff8716815260c06020820152600061638960c08301886157b3565b828103604084015261639b81886157b3565b600160a060020a0387811660608601528616608085015283810360a085015290506163c681856157b3565b9998505050505050505050565b600061012061ffff8c1683528a6020840152896040840152600160a060020a03891660608401528760808401528660a08401528060c084015261641881840187616012565b905082810360e084015261642c81866157b3565b905082810361010084015261644181856157b3565b9c9b505050505050505050505050565b60008282101561646357616463616087565b500390565b600081600019048311821515161561648257616482616087565b500290565b6000826164a75760e060020a634e487b7102600052601260045260246000fd5b500490565b86815285602082015284604082015260c0606082015260006164d160c08301866157b3565b60808301949094525060a00152949350505050565b868152856020820152846040820152836060820152600160a060020a038316608082015260c060a082015260006156c060c08301846157b3565b60006020828403121561653257600080fd5b81516127e1816153fa565b60006020828403121561654f57600080fd5b81516127e1816156cc565b6000610100808301600160a060020a03808d16855260208c818701528b60408701528a60608701528960808701528360a08701528293508854808452610120870194508960005281600020935060005b818110156165c85784548416865294820194600194850194016165aa565b50505050600160a060020a03861660c08501525090508260e08301529998505050505050505050565b60008060006060848603121561660657600080fd5b835192506020840151915060408401519050925092509256fea26469706673582212205c25499957ee8d3c2b04b3a4562f6466afce3bc2d5980857edba81a2a27cac1c64736f6c634300080a0033",
  "immutableReferences": {},
  "source": "// SPDX-License-Identifier: MIT\n\npragma solidity ^0.8.0;\n\nimport \"../interfaces/ILayerZeroReceiver.sol\";\n\nimport \"../interfaces/IStargateReceiver.sol\";\n\nimport \"./_ZorroControllerXChainDeposit.sol\";\n\nimport \"./_ZorroControllerXChainWithdraw.sol\";\n\nimport \"./_ZorroControllerXChainEarn.sol\";\n\nimport \"../interfaces/IZorroController.sol\";\n\ncontract ZorroControllerXChainReceiver is\n    IZorroControllerXChainReceiver,\n    ZorroControllerXChainDeposit,\n    ZorroControllerXChainWithdraw,\n    ZorroControllerXChainEarn\n{\n    /* Modifiers */\n    /// @notice Ensures cross chain request is coming from a recognized controller\n    /// @param _lzChainId Layer Zero chain ID\n    /// @param _callingContract The cross chain sender (should be a Zorro controller)\n    modifier onlyRegXChainController(\n        uint16 _lzChainId,\n        bytes memory _callingContract\n    ) {\n        uint256 _zChainId = LZChainToZorroMap[_lzChainId];\n        require(\n            keccak256(controllerContractsMap[_zChainId]) ==\n                keccak256(_callingContract),\n            \"Unrecog xchain controller\"\n        );\n        _;\n    }\n\n    /* Receivers */\n\n    /// @notice Receives stargate cross-chain calls\n    /// @dev Implements IStargateReceiver interface\n    function sgReceive(\n        uint16 _chainId,\n        bytes memory _srcAddress,\n        uint256 _nonce,\n        address _token,\n        uint256 amountLD,\n        bytes memory payload\n    ) public override onlyRegXChainController(_chainId, _srcAddress) {\n        // Map to Zorro chain ID\n        uint256 _zorroOriginChainId = LZChainToZorroMap[_chainId];\n        // Checks / authorization\n        // Amounts\n        uint256 _tokenBal = IERC20(_token).balanceOf(address(this));\n        require(amountLD <= _tokenBal, \"amountLD exceeds bal\");\n\n        // Determine function based on signature\n        // Get func signature\n        bytes4 _funcSig = bytes4(payload);\n        // Match to appropriate func\n        if (this.receiveXChainDepositRequest.selector == _funcSig) {\n            // Decode params\n            (\n                ,\n                uint256 _pid,\n                ,\n                uint256 _weeksCommitted,\n                uint256 _maxMarketMovement,\n                bytes memory _originAccount,\n                address _destAccount\n            ) = abi.decode(\n                    payload,\n                    (bytes4, uint256, uint256, uint256, uint256, bytes, address)\n                );\n\n            // Call receiving function for cross chain deposits\n            // Replace _valueUSDC to account for any slippage during bridging\n            _receiveXChainDepositRequest(\n                _pid,\n                amountLD,\n                _weeksCommitted,\n                block.timestamp,\n                _maxMarketMovement,\n                _originAccount,\n                _destAccount\n            );\n        } else if (this.receiveXChainRepatriationRequest.selector == _funcSig) {\n            // Decode params from payload\n            (\n                ,\n                uint256 _originChainId,\n                uint256 _pid,\n                uint256 _trancheId,\n                bytes memory _originRecipient,\n                uint256 _burnableZORRewards,\n                uint256 _rewardsDue\n            ) = abi.decode(\n                    payload,\n                    (bytes4, uint256, uint256, uint256, bytes, uint256, uint256)\n                );\n            // Forward request to repatriation function\n            _receiveXChainRepatriationRequest(\n                _originChainId,\n                _pid,\n                _trancheId,\n                _originRecipient,\n                _burnableZORRewards,\n                _rewardsDue\n            );\n        } else if (this.receiveXChainDistributionRequest.selector == _funcSig) {\n            // Decode params from payload\n            (\n                ,\n                uint256 _remoteChainId,\n                uint256 _amountUSDCBuyback,\n                uint256 _amountUSDCRevShare,\n                uint256 _accSlashedRewards,\n                uint256 _maxMarketMovement\n            ) = abi.decode(\n                    payload,\n                    (bytes4, uint256, uint256, uint256, uint256, uint256)\n                );\n            // Forward request to distribution function\n            _receiveXChainDistributionRequest(\n                _remoteChainId,\n                _amountUSDCBuyback,\n                _amountUSDCRevShare,\n                _accSlashedRewards,\n                _maxMarketMovement\n            );\n        } else {\n            revert(\"Unrecognized func\");\n        }\n    }\n\n    function lzReceive(\n        uint16 _srcChainId,\n        bytes calldata _srcAddress,\n        uint64 _nonce,\n        bytes calldata _payload\n    ) external override onlyRegXChainController(_srcChainId, _srcAddress) {\n        // Map to Zorro chain ID\n        uint256 _zorroOriginChainId = LZChainToZorroMap[_srcChainId];\n\n        // Determine function based on signature\n        // Get func signature\n        bytes4 _funcSig = bytes4(_payload);\n        // Match to appropriate func\n        if (this.receiveXChainWithdrawalRequest.selector == _funcSig) {\n            // Decode params\n            (\n                ,\n                uint256 _originChainId,\n                bytes memory _originAccount,\n                uint256 _pid,\n                uint256 _trancheId,\n                uint256 _maxMarketMovement\n            ) = abi.decode(\n                    _payload,\n                    (bytes4, uint256, bytes, uint256, uint256, uint256)\n                );\n\n            // Call receiving function for cross chain withdrawals\n            // Replace _valueUSDC to account for any slippage during bridging\n            _receiveXChainWithdrawalRequest(\n                _originChainId,\n                _originAccount,\n                _pid,\n                _trancheId,\n                _maxMarketMovement\n            );\n        } else {\n            revert(\"Unrecognized func\");\n        }\n    }\n}\n",
  "sourcePath": "/Users/kristophm/Documents/workspace/zorro-protocol/contracts/controllers/_ZorroControllerXChainReceiver.sol",
  "compiler": {
    "name": "solc",
    "version": "0.8.10+commit.fc410830.Emscripten.clang"
  },
  "schemaVersion": "3.4.4",
  "updatedAt": "2022-04-06T16:19:08.980Z",
  "devdoc": {
    "kind": "dev",
    "methods": {
      "checkXChainDepositFee(uint256,bytes,uint256,uint256,uint256,uint256,bytes)": {
        "params": {
          "_chainId": "The Zorro Chain ID (not the LayerZero one)",
          "_destWallet": "A valid address on the remote chain that can claim ownership",
          "_dstContract": "The destination contract address on the remote chain",
          "_maxMarketMovement": "Acceptable degree of slippage on any transaction (e.g. 950 = 5%, 990 = 1% etc.)",
          "_pid": "The pool ID on the remote chain",
          "_valueUSDC": "The amount of USDC to deposit",
          "_weeksCommitted": "Number of weeks to commit to a vault"
        },
        "returns": {
          "_0": "uint256 Expected fee to pay for bridging/cross chain execution"
        }
      },
      "checkXChainDistributeEarningsFee(uint256,uint256,uint256,uint256)": {
        "params": {
          "_accSlashedRewards": "Accumulated slashed rewards on chain",
          "_amountUSDCBuyback": "Amount of USDC to buy back",
          "_amountUSDCRevShare": "Amount of USDC to rev share with ZOR single staking vault",
          "_maxMarketMovement": "factor to account for max market movement/slippage."
        },
        "returns": {
          "_0": "uint256 Quantity of native token as fees"
        }
      },
      "checkXChainRepatriationFee(uint256,uint256,uint256,bytes,uint256,uint256,uint256)": {
        "params": {
          "_burnableZORRewards": "Quantity of ZOR tokens minted for rewards here that need to be burned on the home chain",
          "_gasForDestinationLZReceive": "How much additional gas to provide at destination contract",
          "_originChainId": "Zorro chain ID of chain to which funds are to be repatriated to",
          "_originRecipient": "Recipient of funds on the origin chain",
          "_pid": "Pool ID on current chain",
          "_rewardsDue": "ZOR rewards due to the recipient",
          "_trancheId": "ID of tranche on current chain that funds were withdrawn from"
        },
        "returns": {
          "_0": "uint256 Estimated fee in native tokens"
        }
      },
      "checkXChainWithdrawalFee(uint256,uint256,uint256,uint256,uint256)": {
        "params": {
          "_gasForDestinationLZReceive": "How much additional gas to provide at destination contract",
          "_maxMarketMovement": "Acceptable degree of slippage on any transaction (e.g. 950 = 5%, 990 = 1% etc.)",
          "_pid": "The pool ID on the remote chain",
          "_trancheId": "The tranche ID on the remote chain",
          "_zorroChainId": "The Zorro Chain ID (not the LayerZero one)"
        },
        "returns": {
          "_0": "uint256 Expected fee to pay for bridging/cross chain execution"
        }
      },
      "deposit(uint256,uint256,uint256)": {
        "params": {
          "_pid": "index of pool",
          "_wantAmt": "how much Want token to deposit",
          "_weeksCommitted": "how many weeks the user is committing to on this vault"
        }
      },
      "depositFullService(uint256,uint256,uint256,uint256)": {
        "params": {
          "_maxMarketMovement": "factor to account for max market movement/slippage. The definition varies by Vault, so consult the associated Vault contract for info",
          "_pid": "index of pool to deposit into",
          "_valueUSDC": "value in USDC (in ether units) to deposit",
          "_weeksCommitted": "how many weeks to commit to the Pool (can be 0 or any uint)"
        }
      },
      "getTimeMultiplier(uint256)": {
        "params": {
          "durationInWeeks": "number of weeks committed into Vault"
        },
        "returns": {
          "_0": "multiplier factor, times 1e12"
        }
      },
      "getUserContribution(uint256,uint256)": {
        "params": {
          "_liquidityCommitted": "How many tokens staked (e.g. LP tokens)",
          "_timeMultiplier": "Time multiplier value (from getTimeMultiplier())"
        },
        "returns": {
          "_0": "The relative contribution of the user (unitless)"
        }
      },
      "inCaseTokensGetStuck(address,uint256)": {
        "details": "Does not permit usage for the Zorro token",
        "params": {
          "_amount": "token quantity",
          "_token": "ERC20 token address"
        }
      },
      "owner()": {
        "details": "Returns the address of the current owner."
      },
      "poolLength()": {
        "returns": {
          "_0": "Number of pools"
        }
      },
      "receiveXChainDepositRequest(uint256,uint256,uint256,uint256,bytes,address)": {
        "details": "Should never ever be actually called."
      },
      "receiveXChainDistributionRequest(uint256,uint256,uint256,uint256,uint256)": {
        "details": "Should never ever be actually called."
      },
      "receiveXChainRepatriationRequest(uint256,uint256,uint256,bytes,uint256,uint256)": {
        "details": "Should never ever be actually called."
      },
      "receiveXChainWithdrawalRequest(uint256,bytes,uint256,uint256,uint256)": {
        "details": "Should never ever be actually called."
      },
      "renounceOwnership()": {
        "details": "Leaves the contract without owner. It will not be possible to call `onlyOwner` functions anymore. Can only be called by the current owner. NOTE: Renouncing ownership will leave the contract without an owner, thereby removing any functionality that is only available to the owner."
      },
      "sendXChainDepositRequest(uint256,uint256,uint256,uint256,uint256,bytes)": {
        "details": "Requires appropriate fee to be paid via msg.value (use checkXChainDepositFee() above)",
        "params": {
          "_destWallet": "A valid address on the remote chain that can claim ownership",
          "_maxMarketMovement": "Acceptable degree of slippage on any transaction (e.g. 950 = 5%, 990 = 1% etc.)",
          "_pid": "The pool ID on the remote chain",
          "_valueUSDC": "The amount of USDC to deposit",
          "_weeksCommitted": "Number of weeks to commit to a vault",
          "_zorroChainId": "The Zorro Chain ID (not the LayerZero one)"
        }
      },
      "sendXChainDistributeEarningsRequest(uint256,uint256,uint256,uint256)": {
        "params": {
          "_buybackAmountUSDC": "Amount in USDC to buy back",
          "_maxMarketMovement": "Acceptable slippage (950 = 5%, 990 = 1% etc.)",
          "_pid": "Pool ID",
          "_revShareAmountUSDC": "Amount in USDC to revshare w/ ZOR single staking vault"
        }
      },
      "sendXChainWithdrawalRequest(uint256,uint256,uint256,uint256,uint256)": {
        "details": "Requires value to be submitted to pay for cross chain transaction. Use checkXChainWithdrawalFee() to estimate fees",
        "params": {
          "_destZorroChainId": "The Zorro chain ID of the remote chain to withdraw from",
          "_gasForDestinationLZReceive": "How much additional gas to provide at destination contract",
          "_maxMarketMovement": "Acceptable degree of slippage on any transaction (e.g. 950 = 5%, 990 = 1% etc.)",
          "_pid": "The pool ID on the remote chain",
          "_trancheId": "The ID of the tranche for the given user and pool"
        }
      },
      "setControllerContract(uint256,bytes)": {
        "params": {
          "_controller": "Bytes representation of smart contract address for cross chain contract",
          "_zorroChainId": "Zorro Chain ID"
        }
      },
      "setIsTimeMultiplierActive(bool)": {
        "params": {
          "_isActive": "Whether it shall be active. If false, timemultiplier will be 1."
        }
      },
      "setKeyAddresses(address,address)": {
        "params": {
          "_ZORRO": "ZOR token address",
          "_defaultStablecoin": "Main stablecoin address (USDC)"
        }
      },
      "setPriceFeeds(address,address)": {
        "params": {
          "_priceFeedLPPoolOtherToken": "The address of the price feed for the counterparty token in the ZOR LP Pool",
          "_priceFeedZOR": "The address of the price feed for ZOR"
        }
      },
      "setRewardsParams(uint256[],uint256[],uint256,uint256)": {
        "details": "NOTE: Must enter all parameters or existing ones will be overwritten!",
        "params": {
          "_baseRewardRateBasisPoints": "Base reward rate factor, in bp",
          "_blockParams": "Array of [blocksPerDay, ZORROPerBlock]",
          "_chainMultiplier": "Rewards multiplier factor to be applied to this chain",
          "_dailyDistFactors": "Array of [ZORRODailyDistributionFactorBasisPointsMin, ZORRODailyDistributionFactorBasisPointsMax]"
        }
      },
      "setStargateDestPoolIds(uint256,uint16)": {
        "params": {
          "_stargatePoolId": "Stargate pool ID",
          "_zorroChainId": "Zorro chain ID"
        }
      },
      "setTargetTVLCaptureBasisPoints(uint256)": {
        "params": {
          "_targetTVLCaptureBasisPoints": "Percent of market desired to be captured, in bp. 333 = 3.33%. ONLY to be set on the home chain"
        }
      },
      "setUSDCToZORPath(address[])": {
        "params": {
          "_path": "Swap path"
        }
      },
      "setUSDCToZorroLPPoolOtherTokenPath(address[])": {
        "params": {
          "_path": "Swap path"
        }
      },
      "setUniRouter(address)": {
        "params": {
          "_uniV2Router": "Address of router"
        }
      },
      "setXChainParams(uint256,uint256,address)": {
        "params": {
          "_chainId": "The ind of the chain that this contract is on",
          "_homeChainId": "The chain ID of the home chain",
          "_homeChainZorroController": "The address of the home chain controller"
        }
      },
      "setZorroChainToLZMap(uint256,uint16)": {
        "params": {
          "_lzChainId": "LayerZero Chain ID",
          "_zorroChainId": "Zorro chain ID"
        }
      },
      "setZorroContracts(address,address)": {
        "params": {
          "_publicPool": "Public pool address (where ZOR minted)",
          "_zorroStakingVault": "Zorro single staking vault address"
        }
      },
      "setZorroControllerOracle(address)": {
        "params": {
          "_zorroControllerOracle": "Address of Chainlink oracle that can interact with this contract"
        }
      },
      "setZorroLPPoolParams(address,address)": {
        "params": {
          "_zorroLPPool": "Address of the Zorro-X LP pool",
          "_zorroLPPoolOtherToken": "Address of the counterpart token to the ZOR token in the LP Pool"
        }
      },
      "setZorroPerBlock(uint256,uint256,uint256,uint256,uint256)": {
        "details": "Values to be provided by Oracle. Perferable to run daily",
        "params": {
          "_ZorroTotalVaultTVLUSD": "USD value of all TVL locked into the Zorro protocol, across all chains",
          "_publicPoolZORBalance": "Number of ZOR tokens remaining in public pool on home chain",
          "_targetTVLCaptureBasisPoints": "% desired capture of total market TVL, measured in basis points",
          "_totalChainMultipliers": "Sum total of all chain multipliers for each chain",
          "_totalMarketTVLUSD": "Total DeFi market TVL across all chains (measured in USD)"
        }
      },
      "sgReceive(uint16,bytes,uint256,address,uint256,bytes)": {
        "details": "Implements IStargateReceiver interface"
      },
      "trancheLength(uint256,address)": {
        "params": {
          "_pid": "Index of pool",
          "_user": "wallet address of user"
        },
        "returns": {
          "_0": "Number of tranches"
        }
      },
      "transferInvestment(uint256,uint256,uint256,uint256)": {
        "params": {
          "_fromPid": "index of pool FROM",
          "_fromTrancheId": "index of tranche FROM",
          "_maxMarketMovement": "factor to account for max market movement/slippage. The definition varies by Vault, so consult the associated Vault contract for info",
          "_toPid": "index of pool TO"
        }
      },
      "transferOwnership(address)": {
        "details": "Transfers ownership of the contract to a new account (`newOwner`). Can only be called by the current owner."
      },
      "updatePool(uint256)": {
        "params": {
          "_pid": "index of pool"
        },
        "returns": {
          "_0": "uint256 Amount of ZOR rewards minted (useful for cross chain)"
        }
      },
      "withdraw(uint256,uint256,bool)": {
        "params": {
          "_harvestOnly": "If true, will only harvest Zorro tokens but not do a withdrawal",
          "_pid": "index of pool",
          "_trancheId": "index of tranche"
        },
        "returns": {
          "_0": "Amount of Want token withdrawn"
        }
      },
      "withdrawAll(uint256)": {
        "params": {
          "_pid": "index of pool"
        }
      },
      "withdrawalFullService(uint256,uint256,bool,uint256)": {
        "params": {
          "_harvestOnly": "If true, will only harvest Zorro tokens but not do a withdrawal",
          "_maxMarketMovement": "factor to account for max market movement/slippage. The definition varies by Vault, so consult the associated Vault contract for info",
          "_pid": "index of pool to deposit into",
          "_trancheId": "index of tranche"
        },
        "returns": {
          "_0": "Amount (in USDC) returned"
        }
      }
    },
    "version": 1
  },
  "userdoc": {
    "kind": "user",
    "methods": {
      "checkXChainDepositFee(uint256,bytes,uint256,uint256,uint256,uint256,bytes)": {
        "notice": "Checks to see how much a cross chain deposit will cost"
      },
      "checkXChainDistributeEarningsFee(uint256,uint256,uint256,uint256)": {
        "notice": "Checks to see how much a cross chain earnings distribution will cost"
      },
      "checkXChainRepatriationFee(uint256,uint256,uint256,bytes,uint256,uint256,uint256)": {
        "notice": "Estimates fees for repatriation operation"
      },
      "checkXChainWithdrawalFee(uint256,uint256,uint256,uint256,uint256)": {
        "notice": "Checks to see how much a cross chain withdrawal will cost"
      },
      "deposit(uint256,uint256,uint256)": {
        "notice": "Deposit Want tokens to associated Vault"
      },
      "depositFullService(uint256,uint256,uint256,uint256)": {
        "notice": "Deposits funds in a full service manner (performs autoswaps and obtains Want tokens)"
      },
      "getTimeMultiplier(uint256)": {
        "notice": "Calculate time multiplier based on duration committed"
      },
      "getUserContribution(uint256,uint256)": {
        "notice": "The contribution of the user, meant to be used in rewards allocations"
      },
      "inCaseTokensGetStuck(address,uint256)": {
        "notice": "For owner to recover ERC20 tokens on this contract if stuck"
      },
      "poolLength()": {
        "notice": "Number of pools in the Zorro protocol"
      },
      "receiveXChainDepositRequest(uint256,uint256,uint256,uint256,bytes,address)": {
        "notice": "Dummy func to allow .selector call above and guarantee typesafety for abi calls."
      },
      "receiveXChainDistributionRequest(uint256,uint256,uint256,uint256,uint256)": {
        "notice": "Dummy func to allow .selector call above and guarantee typesafety for abi calls."
      },
      "receiveXChainRepatriationRequest(uint256,uint256,uint256,bytes,uint256,uint256)": {
        "notice": "Dummy func to allow .selector call above and guarantee typesafety for abi calls."
      },
      "receiveXChainWithdrawalRequest(uint256,bytes,uint256,uint256,uint256)": {
        "notice": "Dummy func to allow .selector call above and guarantee typesafety for abi calls."
      },
      "sendXChainDepositRequest(uint256,uint256,uint256,uint256,uint256,bytes)": {
        "notice": "Prepares and sends a cross chain deposit request. Takes care of necessary financial ops (transfer/locking USDC)"
      },
      "sendXChainDistributeEarningsRequest(uint256,uint256,uint256,uint256)": {
        "notice": "Sends a request back to the home chain to distribute earnings"
      },
      "sendXChainWithdrawalRequest(uint256,uint256,uint256,uint256,uint256)": {
        "notice": "Prepares and sends a cross chain withdrwal request."
      },
      "setControllerContract(uint256,bytes)": {
        "notice": "Setter: Controller contract for each chain"
      },
      "setIsTimeMultiplierActive(bool)": {
        "notice": "Setter: Set time multiplier"
      },
      "setKeyAddresses(address,address)": {
        "notice": "Setter: Set key token addresses"
      },
      "setLayerZeroParams(address,uint256,address)": {
        "notice": "Setter: Set main LZ params"
      },
      "setPriceFeeds(address,address)": {
        "notice": "Setter: Chainlink price feeds"
      },
      "setRewardsParams(uint256[],uint256[],uint256,uint256)": {
        "notice": "Setter: Reward params (See Tokenomics paper for more details)"
      },
      "setStargateDestPoolIds(uint256,uint16)": {
        "notice": "Setter: Stargate dest pool IDs for USD asset"
      },
      "setStartBlock(uint256)": {
        "notice": "Setter: Start block for rewards"
      },
      "setTargetTVLCaptureBasisPoints(uint256)": {
        "notice": "Setter: TVL capture (See Tokenomics paper)"
      },
      "setUSDCToZORPath(address[])": {
        "notice": "Setter: Set path for token swap from USDC to ZOR"
      },
      "setUSDCToZorroLPPoolOtherTokenPath(address[])": {
        "notice": "Setter: Set path for token swap from USDC to counterparty token in ZOR LP pool"
      },
      "setUniRouter(address)": {
        "notice": "Setter: Uniswap-compatible router address"
      },
      "setXChainParams(uint256,uint256,address)": {
        "notice": "Setter: Cross chain params"
      },
      "setZorroChainToLZMap(uint256,uint16)": {
        "notice": "Setter: LZ/Stargate params"
      },
      "setZorroContracts(address,address)": {
        "notice": "Setter: Set key ZOR contract addresses"
      },
      "setZorroControllerOracle(address)": {
        "notice": "Setter: Set Zorro Controller Oracle"
      },
      "setZorroLPPoolParams(address,address)": {
        "notice": "Setter: Zorro LP Pool params"
      },
      "setZorroPerBlock(uint256,uint256,uint256,uint256,uint256)": {
        "notice": "Set the number of Zorro to emit per block based on current market parameters"
      },
      "sgReceive(uint16,bytes,uint256,address,uint256,bytes)": {
        "notice": "Receives stargate cross-chain calls"
      },
      "trancheLength(uint256,address)": {
        "notice": "Number of tranches invested by a given user into a given pool"
      },
      "transferInvestment(uint256,uint256,uint256,uint256)": {
        "notice": "Transfer all assets from a tranche in one vault to a new vault (works on-chain only)"
      },
      "updatePool(uint256)": {
        "notice": "Update reward variables of the given pool to be up-to-date."
      },
      "withdraw(uint256,uint256,bool)": {
        "notice": "Fully withdraw Want tokens from underlying Vault."
      },
      "withdrawAll(uint256)": {
        "notice": "Withdraw the maximum number of Want tokens from a pool"
      },
      "withdrawalFullService(uint256,uint256,bool,uint256)": {
        "notice": "Withdraws funds from a pool and converts the Want token into USDC"
      }
    },
    "version": 1
  }
}