{
  "contractName": "ZorroControllerPoolMgmt",
  "abi": [
    {
      "anonymous": false,
      "inputs": [
        {
          "indexed": true,
          "internalType": "address",
          "name": "previousOwner",
          "type": "address"
        },
        {
          "indexed": true,
          "internalType": "address",
          "name": "newOwner",
          "type": "address"
        }
      ],
      "name": "OwnershipTransferred",
      "type": "event"
    },
    {
      "inputs": [],
      "name": "ZORRO",
      "outputs": [
        {
          "internalType": "address",
          "name": "",
          "type": "address"
        }
      ],
      "stateMutability": "view",
      "type": "function"
    },
    {
      "inputs": [],
      "name": "ZORRODailyDistributionFactorBasisPointsMax",
      "outputs": [
        {
          "internalType": "uint256",
          "name": "",
          "type": "uint256"
        }
      ],
      "stateMutability": "view",
      "type": "function"
    },
    {
      "inputs": [],
      "name": "ZORRODailyDistributionFactorBasisPointsMin",
      "outputs": [
        {
          "internalType": "uint256",
          "name": "",
          "type": "uint256"
        }
      ],
      "stateMutability": "view",
      "type": "function"
    },
    {
      "inputs": [],
      "name": "ZORROPerBlock",
      "outputs": [
        {
          "internalType": "uint256",
          "name": "",
          "type": "uint256"
        }
      ],
      "stateMutability": "view",
      "type": "function"
    },
    {
      "inputs": [],
      "name": "accSynthRewardsMinted",
      "outputs": [
        {
          "internalType": "uint256",
          "name": "",
          "type": "uint256"
        }
      ],
      "stateMutability": "view",
      "type": "function"
    },
    {
      "inputs": [],
      "name": "accSynthRewardsSlashed",
      "outputs": [
        {
          "internalType": "uint256",
          "name": "",
          "type": "uint256"
        }
      ],
      "stateMutability": "view",
      "type": "function"
    },
    {
      "inputs": [],
      "name": "baseRewardRateBasisPoints",
      "outputs": [
        {
          "internalType": "uint256",
          "name": "",
          "type": "uint256"
        }
      ],
      "stateMutability": "view",
      "type": "function"
    },
    {
      "inputs": [],
      "name": "blocksPerDay",
      "outputs": [
        {
          "internalType": "uint256",
          "name": "",
          "type": "uint256"
        }
      ],
      "stateMutability": "view",
      "type": "function"
    },
    {
      "inputs": [],
      "name": "burnAddress",
      "outputs": [
        {
          "internalType": "address",
          "name": "",
          "type": "address"
        }
      ],
      "stateMutability": "view",
      "type": "function"
    },
    {
      "inputs": [],
      "name": "chainId",
      "outputs": [
        {
          "internalType": "uint256",
          "name": "",
          "type": "uint256"
        }
      ],
      "stateMutability": "view",
      "type": "function"
    },
    {
      "inputs": [],
      "name": "chainMultiplier",
      "outputs": [
        {
          "internalType": "uint256",
          "name": "",
          "type": "uint256"
        }
      ],
      "stateMutability": "view",
      "type": "function"
    },
    {
      "inputs": [],
      "name": "defaultStablecoin",
      "outputs": [
        {
          "internalType": "address",
          "name": "",
          "type": "address"
        }
      ],
      "stateMutability": "view",
      "type": "function"
    },
    {
      "inputs": [
        {
          "internalType": "uint256",
          "name": "",
          "type": "uint256"
        },
        {
          "internalType": "bytes",
          "name": "",
          "type": "bytes"
        },
        {
          "internalType": "uint256",
          "name": "",
          "type": "uint256"
        }
      ],
      "name": "foreignTrancheInfo",
      "outputs": [
        {
          "internalType": "address",
          "name": "",
          "type": "address"
        }
      ],
      "stateMutability": "view",
      "type": "function"
    },
    {
      "inputs": [],
      "name": "homeChainId",
      "outputs": [
        {
          "internalType": "uint256",
          "name": "",
          "type": "uint256"
        }
      ],
      "stateMutability": "view",
      "type": "function"
    },
    {
      "inputs": [],
      "name": "homeChainZorroController",
      "outputs": [
        {
          "internalType": "address",
          "name": "",
          "type": "address"
        }
      ],
      "stateMutability": "view",
      "type": "function"
    },
    {
      "inputs": [
        {
          "internalType": "address",
          "name": "_token",
          "type": "address"
        },
        {
          "internalType": "uint256",
          "name": "_amount",
          "type": "uint256"
        }
      ],
      "name": "inCaseTokensGetStuck",
      "outputs": [],
      "stateMutability": "nonpayable",
      "type": "function"
    },
    {
      "inputs": [],
      "name": "owner",
      "outputs": [
        {
          "internalType": "address",
          "name": "",
          "type": "address"
        }
      ],
      "stateMutability": "view",
      "type": "function"
    },
    {
      "inputs": [
        {
          "internalType": "uint256",
          "name": "",
          "type": "uint256"
        }
      ],
      "name": "poolInfo",
      "outputs": [
        {
          "internalType": "contract IERC20Upgradeable",
          "name": "want",
          "type": "address"
        },
        {
          "internalType": "uint256",
          "name": "allocPoint",
          "type": "uint256"
        },
        {
          "internalType": "uint256",
          "name": "lastRewardBlock",
          "type": "uint256"
        },
        {
          "internalType": "uint256",
          "name": "accZORRORewards",
          "type": "uint256"
        },
        {
          "internalType": "uint256",
          "name": "totalTrancheContributions",
          "type": "uint256"
        },
        {
          "internalType": "address",
          "name": "vault",
          "type": "address"
        }
      ],
      "stateMutability": "view",
      "type": "function"
    },
    {
      "inputs": [],
      "name": "poolLength",
      "outputs": [
        {
          "internalType": "uint256",
          "name": "",
          "type": "uint256"
        }
      ],
      "stateMutability": "view",
      "type": "function"
    },
    {
      "inputs": [],
      "name": "publicPool",
      "outputs": [
        {
          "internalType": "address",
          "name": "",
          "type": "address"
        }
      ],
      "stateMutability": "view",
      "type": "function"
    },
    {
      "inputs": [],
      "name": "renounceOwnership",
      "outputs": [],
      "stateMutability": "nonpayable",
      "type": "function"
    },
    {
      "inputs": [],
      "name": "resetSyntheticRewardsMinted",
      "outputs": [],
      "stateMutability": "nonpayable",
      "type": "function"
    },
    {
      "inputs": [],
      "name": "resetSyntheticRewardsSlashed",
      "outputs": [],
      "stateMutability": "nonpayable",
      "type": "function"
    },
    {
      "inputs": [
        {
          "internalType": "address",
          "name": "_burnAddress",
          "type": "address"
        }
      ],
      "name": "setBurnAddress",
      "outputs": [],
      "stateMutability": "nonpayable",
      "type": "function"
    },
    {
      "inputs": [
        {
          "internalType": "address",
          "name": "_ZORRO",
          "type": "address"
        },
        {
          "internalType": "address",
          "name": "_defaultStablecoin",
          "type": "address"
        }
      ],
      "name": "setKeyAddresses",
      "outputs": [],
      "stateMutability": "nonpayable",
      "type": "function"
    },
    {
      "inputs": [
        {
          "internalType": "uint256",
          "name": "_blocksPerDay",
          "type": "uint256"
        },
        {
          "internalType": "uint256[]",
          "name": "_dailyDistFactors",
          "type": "uint256[]"
        },
        {
          "internalType": "uint256",
          "name": "_chainMultiplier",
          "type": "uint256"
        },
        {
          "internalType": "uint256",
          "name": "_baseRewardRateBasisPoints",
          "type": "uint256"
        }
      ],
      "name": "setRewardsParams",
      "outputs": [],
      "stateMutability": "nonpayable",
      "type": "function"
    },
    {
      "inputs": [
        {
          "internalType": "uint256",
          "name": "_startBlock",
          "type": "uint256"
        }
      ],
      "name": "setStartBlock",
      "outputs": [],
      "stateMutability": "nonpayable",
      "type": "function"
    },
    {
      "inputs": [
        {
          "internalType": "uint256",
          "name": "_targetTVLCaptureBasisPoints",
          "type": "uint256"
        }
      ],
      "name": "setTargetTVLCaptureBasisPoints",
      "outputs": [],
      "stateMutability": "nonpayable",
      "type": "function"
    },
    {
      "inputs": [
        {
          "internalType": "uint256",
          "name": "_chainId",
          "type": "uint256"
        },
        {
          "internalType": "uint256",
          "name": "_homeChainId",
          "type": "uint256"
        },
        {
          "internalType": "address",
          "name": "_homeChainZorroController",
          "type": "address"
        }
      ],
      "name": "setXChainParams",
      "outputs": [],
      "stateMutability": "nonpayable",
      "type": "function"
    },
    {
      "inputs": [
        {
          "internalType": "address",
          "name": "_publicPool",
          "type": "address"
        },
        {
          "internalType": "address",
          "name": "_zorroStakingVault",
          "type": "address"
        }
      ],
      "name": "setZorroContracts",
      "outputs": [],
      "stateMutability": "nonpayable",
      "type": "function"
    },
    {
      "inputs": [
        {
          "internalType": "address",
          "name": "_zorroControllerOracle",
          "type": "address"
        }
      ],
      "name": "setZorroControllerOracle",
      "outputs": [],
      "stateMutability": "nonpayable",
      "type": "function"
    },
    {
      "inputs": [
        {
          "internalType": "uint256",
          "name": "_totalChainMultipliers",
          "type": "uint256"
        },
        {
          "internalType": "uint256",
          "name": "_totalMarketTVLUSD",
          "type": "uint256"
        },
        {
          "internalType": "uint256",
          "name": "_targetTVLCaptureBasisPoints",
          "type": "uint256"
        },
        {
          "internalType": "uint256",
          "name": "_ZorroTotalVaultTVLUSD",
          "type": "uint256"
        },
        {
          "internalType": "uint256",
          "name": "_publicPoolZORBalance",
          "type": "uint256"
        }
      ],
      "name": "setZorroPerBlock",
      "outputs": [],
      "stateMutability": "nonpayable",
      "type": "function"
    },
    {
      "inputs": [],
      "name": "startBlock",
      "outputs": [
        {
          "internalType": "uint256",
          "name": "",
          "type": "uint256"
        }
      ],
      "stateMutability": "view",
      "type": "function"
    },
    {
      "inputs": [],
      "name": "targetTVLCaptureBasisPoints",
      "outputs": [
        {
          "internalType": "uint256",
          "name": "",
          "type": "uint256"
        }
      ],
      "stateMutability": "view",
      "type": "function"
    },
    {
      "inputs": [],
      "name": "totalAllocPoint",
      "outputs": [
        {
          "internalType": "uint256",
          "name": "",
          "type": "uint256"
        }
      ],
      "stateMutability": "view",
      "type": "function"
    },
    {
      "inputs": [
        {
          "internalType": "uint256",
          "name": "",
          "type": "uint256"
        },
        {
          "internalType": "address",
          "name": "",
          "type": "address"
        },
        {
          "internalType": "uint256",
          "name": "",
          "type": "uint256"
        }
      ],
      "name": "trancheInfo",
      "outputs": [
        {
          "internalType": "uint256",
          "name": "contribution",
          "type": "uint256"
        },
        {
          "internalType": "uint256",
          "name": "timeMultiplier",
          "type": "uint256"
        },
        {
          "internalType": "uint256",
          "name": "rewardDebt",
          "type": "uint256"
        },
        {
          "internalType": "uint256",
          "name": "durationCommittedInWeeks",
          "type": "uint256"
        },
        {
          "internalType": "uint256",
          "name": "enteredVaultAt",
          "type": "uint256"
        },
        {
          "internalType": "uint256",
          "name": "exitedVaultAt",
          "type": "uint256"
        }
      ],
      "stateMutability": "view",
      "type": "function"
    },
    {
      "inputs": [
        {
          "internalType": "uint256",
          "name": "_pid",
          "type": "uint256"
        },
        {
          "internalType": "address",
          "name": "_user",
          "type": "address"
        }
      ],
      "name": "trancheLength",
      "outputs": [
        {
          "internalType": "uint256",
          "name": "",
          "type": "uint256"
        }
      ],
      "stateMutability": "view",
      "type": "function"
    },
    {
      "inputs": [
        {
          "internalType": "address",
          "name": "newOwner",
          "type": "address"
        }
      ],
      "name": "transferOwnership",
      "outputs": [],
      "stateMutability": "nonpayable",
      "type": "function"
    },
    {
      "inputs": [
        {
          "internalType": "uint256",
          "name": "_pid",
          "type": "uint256"
        }
      ],
      "name": "updatePool",
      "outputs": [
        {
          "internalType": "uint256",
          "name": "mintedZOR",
          "type": "uint256"
        }
      ],
      "stateMutability": "nonpayable",
      "type": "function"
    },
    {
      "inputs": [],
      "name": "zorroControllerOracle",
      "outputs": [
        {
          "internalType": "address",
          "name": "",
          "type": "address"
        }
      ],
      "stateMutability": "view",
      "type": "function"
    },
    {
      "inputs": [],
      "name": "zorroStakingVault",
      "outputs": [
        {
          "internalType": "address",
          "name": "",
          "type": "address"
        }
      ],
      "stateMutability": "view",
      "type": "function"
    },
    {
      "inputs": [
        {
          "internalType": "uint256",
          "name": "_allocPoint",
          "type": "uint256"
        },
        {
          "internalType": "contract IERC20Upgradeable",
          "name": "_want",
          "type": "address"
        },
        {
          "internalType": "bool",
          "name": "_withUpdate",
          "type": "bool"
        },
        {
          "internalType": "address",
          "name": "_vault",
          "type": "address"
        }
      ],
      "name": "add",
      "outputs": [],
      "stateMutability": "nonpayable",
      "type": "function"
    },
    {
      "inputs": [
        {
          "internalType": "uint256",
          "name": "_pid",
          "type": "uint256"
        },
        {
          "internalType": "uint256",
          "name": "_allocPoint",
          "type": "uint256"
        },
        {
          "internalType": "bool",
          "name": "_withUpdate",
          "type": "bool"
        }
      ],
      "name": "set",
      "outputs": [],
      "stateMutability": "nonpayable",
      "type": "function"
    },
    {
      "inputs": [],
      "name": "massUpdatePools",
      "outputs": [
        {
          "internalType": "uint256",
          "name": "_mintedZOR",
          "type": "uint256"
        }
      ],
      "stateMutability": "nonpayable",
      "type": "function"
    }
  ],
  "bytecode": "0x608060405234801561001057600080fd5b50611d03806100206000396000f3fe608060405234801561001057600080fd5b5060043610610291576000357c0100000000000000000000000000000000000000000000000000000000900480636b8eb2e51161016e578063b61bb80a116100e0578063ed43633f116100a4578063ed43633f146105a4578063ef126967146105b7578063f2fde38b146105c0578063f35e4a6e146105d3578063f63cce37146105e6578063fc39a29e146105f957600080fd5b8063b61bb80a14610563578063b95cc68114610576578063c29361421461057f578063c6d758cb14610588578063cb9c2f681461059b57600080fd5b80638da5cb5b116101325780638da5cb5b146104e55780639a8a0592146104f65780639cebd371146104ff578063a13346c614610508578063a4d2b08314610510578063b4b4e9eb1461052357600080fd5b80636b8eb2e51461049157806370d5ae05146104a4578063715018a6146104b7578063823c43d0146104bf5780638c157db2146104d257600080fd5b80634cfea68a116102075780635527a6f9116101cb5780635527a6f9146104345780635c63fa871461043d5780635f70edcf14610450578063630b5ba11461046357806364482f791461046b578063668ababb1461047e57600080fd5b80634cfea68a146103c65780635051d371146103cf57806351eb05a6146103e257806352966832146103f557806353f73f87146103fe57600080fd5b80632e31283d116102595780632e31283d146103225780633b710688146103855780633b9ce5651461038e5780633bbc1ffc1461039757806348cd4cb1146103aa5780634b0e7216146103b357600080fd5b8063081e3eda1461029657806309b79b3c146102ad5780630aa0988e146102b75780631526fe27146102ca57806317caf6f114610319575b600080fd5b60aa545b6040519081526020015b60405180910390f35b6102b561060c565b005b6102b56102c5366004611754565b610679565b6102dd6102d836600461178d565b6106d4565b60408051600160a060020a03978816815260208101969096528501939093526060840191909152608083015290911660a082015260c0016102a4565b61029a60a45481565b61036d6103303660046117bf565b60ac6020908152600093845260408085208451808601840180519281529084019584019590952094529290528252902054600160a060020a031681565b604051600160a060020a0390911681526020016102a4565b61029a60a35481565b61029a60a15481565b6102b56103a536600461178d565b610727565b61029a609c5481565b6102b56103c1366004611883565b6107b6565b61029a609d5481565b6102b56103dd366004611883565b610805565b61029a6103f036600461178d565b610854565b61029a60a55481565b61029a61040c3660046118a0565b600091825260ab60209081526040808420600160a060020a0393909316845291905290205490565b61029a60a05481565b6102b561044b3660046118c5565b610a52565b6102b561045e36600461190c565b610aa9565b61029a610c65565b6102b561047936600461195f565b610d12565b60995461036d90600160a060020a031681565b6102b561049f36600461198d565b610dc6565b609b5461036d90600160a060020a031681565b6102b5610e7d565b60ad5461036d90600160a060020a031681565b60975461036d90600160a060020a031681565b603354600160a060020a031661036d565b61029a60a75481565b61029a60a25481565b6102b5610eb6565b609a5461036d90600160a060020a031681565b6105366105313660046119c8565b610f34565b604080519687526020870195909552938501929092526060840152608083015260a082015260c0016102a4565b60985461036d90600160a060020a031681565b61029a60a65481565b61029a609e5481565b6102b5610596366004611a00565b610f95565b61029a609f5481565b6102b56105b2366004611a2c565b611061565b61029a60a85481565b6102b56105ce366004611883565b6110da565b6102b56105e136600461178d565b611192565b6102b56105f4366004611754565b611217565b60a95461036d90600160a060020a031681565b60ad54600160a060020a031633600160a060020a03161461064b5760405160e560020a62461bcd02815260040161064290611ab9565b60405180910390fd5b60a85460a75414156106725760405160e560020a62461bcd02815260040161064290611af0565b600060a555565b603354600160a060020a031633146106a65760405160e560020a62461bcd02815260040161064290611b27565b60978054600160a060020a03938416600160a060020a03199182161790915560988054929093169116179055565b60aa81815481106106e457600080fd5b6000918252602090912060069091020180546001820154600283015460038401546004850154600590950154600160a060020a0394851696509294919390921686565b603354600160a060020a031633146107545760405160e560020a62461bcd02815260040161064290611b27565b60a954600160a060020a031630146107b15760405160e560020a62461bcd02815260206004820152600f60248201527f6f6e6c7920686f6d6520636861696e00000000000000000000000000000000006044820152606401610642565b609f55565b603354600160a060020a031633146107e35760405160e560020a62461bcd02815260040161064290611b27565b609b8054600160a060020a031916600160a060020a0392909216919091179055565b603354600160a060020a031633146108325760405160e560020a62461bcd02815260040161064290611b27565b60ad8054600160a060020a031916600160a060020a0392909216919091179055565b60008060aa838154811061086a5761086a611b5c565b906000526020600020906006020190508060020154431161088e5750600092915050565b6005810154604080517f44a3955e0000000000000000000000000000000000000000000000000000000081529051600092600160a060020a0316916344a3955e9160048083019260209291908290030181865afa1580156108f3573d6000803e3d6000fd5b505050506040513d601f19601f820116820180604052508101906109179190611b75565b90508061092e575043600290910155506000919050565b60006109478360020154436112cf90919063ffffffff16565b9050600061097a60a454610974866001015461096e609e54876112e290919063ffffffff16565b906112e2565b906112ee565b60a954909150600160a060020a03163014156109a35761099a81306112fa565b60009450610a2c565b6097546040517f40c10f1900000000000000000000000000000000000000000000000000000000815230600482015260248101839052600160a060020a03909116906340c10f1990604401600060405180830381600087803b158015610a0857600080fd5b505af1158015610a1c573d6000803e3d6000fd5b50505050809450610a2c85611318565b6003840154610a3b9082611352565b600385015550504360029092019190915550919050565b603354600160a060020a03163314610a7f5760405160e560020a62461bcd02815260040161064290611b27565b60a79290925560a85560a98054600160a060020a031916600160a060020a03909216919091179055565b603354600160a060020a03163314610ad65760405160e560020a62461bcd02815260040161064290611b27565b8115610ae657610ae4610c65565b505b6000609c544311610af957609c54610afb565b435b60a454909150610b0b9086611352565b60a4556040805160c081018252600160a060020a039586168152602081019687529081019182526000606082018181526080830182815294871660a0840190815260aa80546001810182559352925160069092027f550d3de95be0bd28a79c3eb4ea7f05692c60b0602e48b49461e703379b08a71a81018054938916600160a060020a031994851617905597517f550d3de95be0bd28a79c3eb4ea7f05692c60b0602e48b49461e703379b08a71b89015592517f550d3de95be0bd28a79c3eb4ea7f05692c60b0602e48b49461e703379b08a71c88015591517f550d3de95be0bd28a79c3eb4ea7f05692c60b0602e48b49461e703379b08a71d87015591517f550d3de95be0bd28a79c3eb4ea7f05692c60b0602e48b49461e703379b08a71e86015590517f550d3de95be0bd28a79c3eb4ea7f05692c60b0602e48b49461e703379b08a71f909401805494909316931692909217905550565b60aa54600090815b81811015610d0d576040517f51eb05a600000000000000000000000000000000000000000000000000000000815260048101829052610cfb9030906351eb05a6906024016020604051808303816000875af1158015610cd0573d6000803e3d6000fd5b505050506040513d601f19601f82011682018060405250810190610cf49190611b75565b8490611352565b9250610d0681611ba7565b9050610c6d565b505090565b603354600160a060020a03163314610d3f5760405160e560020a62461bcd02815260040161064290611b27565b8015610d4f57610d4d610c65565b505b610d9282610d8c60aa8681548110610d6957610d69611b5c565b90600052602060002090600602016001015460a4546112cf90919063ffffffff16565b90611352565b60a4819055508160aa8481548110610dac57610dac611b5c565b906000526020600020906006020160010181905550505050565b60ad54600160a060020a031633600160a060020a031614610dfc5760405160e560020a62461bcd02815260040161064290611ab9565b6000610e26610e0d846127106112e2565b6109748661096e8960a3546112e290919063ffffffff16565b905060a154811115610e3b575060a154610e4a565b60a054811015610e4a575060a0545b609d54610e7290610e619061096e896127106112e2565b60a2546109749061096e86866112e2565b609e55505050505050565b603354600160a060020a03163314610eaa5760405160e560020a62461bcd02815260040161064290611b27565b610eb4600061135e565b565b60ad54600160a060020a031633600160a060020a031614610eec5760405160e560020a62461bcd02815260040161064290611ab9565b60a85460a7541415610f135760405160e560020a62461bcd02815260040161064290611af0565b609b5460a65460975461067292600160a060020a03918216929116906113b0565b60ab6020528260005260406000206020528160005260406000208181548110610f5c57600080fd5b60009182526020909120600690910201805460018201546002830154600384015460048501546005909501549397509195509350919086565b603354600160a060020a03163314610fc25760405160e560020a62461bcd02815260040161064290611b27565b609754600160a060020a03838116911614156110495760405160e560020a62461bcd02815260206004820152603560248201527f217361666520746f20757365205a6f72726f20746f6b656e20696e2066756e6360448201527f20696e43617365546f6b656e73476574537475636b00000000000000000000006064820152608401610642565b61105d600160a060020a03831633836113b0565b5050565b603354600160a060020a0316331461108e5760405160e560020a62461bcd02815260040161064290611b27565b609d85905583836000816110a4576110a4611b5c565b602002919091013560a05550838360018181106110c3576110c3611b5c565b602002919091013560a1555060a35560a255505050565b603354600160a060020a031633146111075760405160e560020a62461bcd02815260040161064290611b27565b600160a060020a0381166111865760405160e560020a62461bcd02815260206004820152602660248201527f4f776e61626c653a206e6577206f776e657220697320746865207a65726f206160448201527f64647265737300000000000000000000000000000000000000000000000000006064820152608401610642565b61118f8161135e565b50565b603354600160a060020a031633146111bf5760405160e560020a62461bcd02815260040161064290611b27565b609c54156112125760405160e560020a62461bcd02815260206004820152601560248201527f626c6f636b506172616d7320696d6d757461626c6500000000000000000000006044820152606401610642565b609c55565b603354600160a060020a031633146112445760405160e560020a62461bcd02815260040161064290611b27565b60a954600160a060020a031630146112a15760405160e560020a62461bcd02815260206004820152600f60248201527f6f6e6c7920686f6d6520636861696e00000000000000000000000000000000006044820152606401610642565b60998054600160a060020a03938416600160a060020a031991821617909155609a8054929093169116179055565b60006112db8284611bc2565b9392505050565b60006112db8284611bd9565b60006112db8284611bf8565b60995460975461105d91600160a060020a039182169116838561145e565b60a85460a754141561133f5760405160e560020a62461bcd02815260040161064290611af0565b60a55461134c9082611352565b60a55550565b60006112db8284611c1d565b60338054600160a060020a03838116600160a060020a0319831681179093556040519116919082907f8be0079c531659141344cd1fd0a4f28419497f9722a3daafe3b4186f6b6457e090600090a35050565b604051600160a060020a0383166024820152604481018290526114599084907fa9059cbb00000000000000000000000000000000000000000000000000000000906064015b60408051601f198184030181529190526020810180517bffffffffffffffffffffffffffffffffffffffffffffffffffffffff167fffffffff00000000000000000000000000000000000000000000000000000000909316929092179091526114b5565b505050565b604051600160a060020a03808516602483015283166044820152606481018290526114af9085907f23b872dd00000000000000000000000000000000000000000000000000000000906084016113f5565b50505050565b600061150a826040518060400160405280602081526020017f5361666545524332303a206c6f772d6c6576656c2063616c6c206661696c656481525085600160a060020a031661159d9092919063ffffffff16565b80519091501561145957808060200190518101906115289190611c35565b6114595760405160e560020a62461bcd02815260206004820152602a60248201527f5361666545524332303a204552433230206f7065726174696f6e20646964206e60448201527f6f742073756363656564000000000000000000000000000000000000000000006064820152608401610642565b60606115ac84846000856115b4565b949350505050565b606030318311156116305760405160e560020a62461bcd02815260206004820152602660248201527f416464726573733a20696e73756666696369656e742062616c616e636520666f60448201527f722063616c6c00000000000000000000000000000000000000000000000000006064820152608401610642565b600160a060020a0385163b61168a5760405160e560020a62461bcd02815260206004820152601d60248201527f416464726573733a2063616c6c20746f206e6f6e2d636f6e74726163740000006044820152606401610642565b60008086600160a060020a031685876040516116a69190611c7e565b60006040518083038185875af1925050503d80600081146116e3576040519150601f19603f3d011682016040523d82523d6000602084013e6116e8565b606091505b50915091506116f8828286611703565b979650505050505050565b606083156117125750816112db565b8251156117225782518084602001fd5b8160405160e560020a62461bcd0281526004016106429190611c9a565b600160a060020a038116811461118f57600080fd5b6000806040838503121561176757600080fd5b82356117728161173f565b915060208301356117828161173f565b809150509250929050565b60006020828403121561179f57600080fd5b5035919050565b60e060020a634e487b7102600052604160045260246000fd5b6000806000606084860312156117d457600080fd5b83359250602084013567ffffffffffffffff808211156117f357600080fd5b818601915086601f83011261180757600080fd5b813581811115611819576118196117a6565b604051601f8201601f19908116603f01168101908382118183101715611841576118416117a6565b8160405282815289602084870101111561185a57600080fd5b826020860160208301376000602084830101528096505050505050604084013590509250925092565b60006020828403121561189557600080fd5b81356112db8161173f565b600080604083850312156118b357600080fd5b8235915060208301356117828161173f565b6000806000606084860312156118da57600080fd5b833592506020840135915060408401356118f38161173f565b809150509250925092565b801515811461118f57600080fd5b6000806000806080858703121561192257600080fd5b8435935060208501356119348161173f565b92506040850135611944816118fe565b915060608501356119548161173f565b939692955090935050565b60008060006060848603121561197457600080fd5b833592506020840135915060408401356118f3816118fe565b600080600080600060a086880312156119a557600080fd5b505083359560208501359550604085013594606081013594506080013592509050565b6000806000606084860312156119dd57600080fd5b8335925060208401356119ef8161173f565b929592945050506040919091013590565b60008060408385031215611a1357600080fd5b8235611a1e8161173f565b946020939093013593505050565b600080600080600060808688031215611a4457600080fd5b85359450602086013567ffffffffffffffff80821115611a6357600080fd5b818801915088601f830112611a7757600080fd5b813581811115611a8657600080fd5b8960208083028501011115611a9a57600080fd5b9699602092909201985095966040810135965060600135945092505050565b60208082526011908201527f6f6e6c79205a6f72726f206f7261636c65000000000000000000000000000000604082015260600190565b60208082526017908201527f466f72206e6f6e20686f6d6520636861696e206f6e6c79000000000000000000604082015260600190565b6020808252818101527f4f776e61626c653a2063616c6c6572206973206e6f7420746865206f776e6572604082015260600190565b60e060020a634e487b7102600052603260045260246000fd5b600060208284031215611b8757600080fd5b5051919050565b60e060020a634e487b7102600052601160045260246000fd5b6000600019821415611bbb57611bbb611b8e565b5060010190565b600082821015611bd457611bd4611b8e565b500390565b6000816000190483118215151615611bf357611bf3611b8e565b500290565b600082611c185760e060020a634e487b7102600052601260045260246000fd5b500490565b60008219821115611c3057611c30611b8e565b500190565b600060208284031215611c4757600080fd5b81516112db816118fe565b60005b83811015611c6d578181015183820152602001611c55565b838111156114af5750506000910152565b60008251611c90818460208701611c52565b9190910192915050565b6020815260008251806020840152611cb9816040850160208701611c52565b601f01601f1916919091016040019291505056fea2646970667358221220a15c43ac45005c59159acb74e08a23e5f4ace190491b6bb01afe5206199325da64736f6c634300080a0033",
  "immutableReferences": {},
  "source": "// SPDX-License-Identifier: MIT\npragma solidity ^0.8.0;\n\nimport \"./_ZorroControllerBase.sol\";\n\nimport \"@openzeppelin/contracts-upgradeable/utils/math/SafeMathUpgradeable.sol\";\n\nimport \"../interfaces/IZorroController.sol\";\n\ncontract ZorroControllerPoolMgmt is IZorroControllerPoolMgmt, ZorroControllerBase {\n    /* Libraries */\n    using SafeMathUpgradeable for uint256;\n\n    /* Pool management */\n\n    /// @notice Adds a new pool. Can only be called by the owner.\n    /// @dev DO NOT add the same Want token more than once. Rewards will be messed up if you do. (Only if Want tokens are stored here.)\n    /// @param _allocPoint The number of allocation points for this pool (aka \"multiplier\")\n    /// @param _want The address of the want token\n    /// @param _withUpdate  Mass update all pools if set to true\n    /// @param _vault The contract address of the underlying vault\n    function add(\n        uint256 _allocPoint,\n        IERC20Upgradeable _want,\n        bool _withUpdate,\n        address _vault\n    ) public onlyOwner {\n        // If _withUpdate provided, update all pools\n        if (_withUpdate) {\n            massUpdatePools();\n        }\n        // Last reward block set to current block, or the start block if the startBlock hasn't been provided\n        uint256 lastRewardBlock = block.number > startBlock\n            ? block.number\n            : startBlock;\n        // Increment the total allocation points by the provided _allocPoint\n        totalAllocPoint = totalAllocPoint.add(_allocPoint);\n        // Push to the poolInfo array\n        poolInfo.push(\n            PoolInfo({\n                want: _want,\n                allocPoint: _allocPoint,\n                lastRewardBlock: lastRewardBlock,\n                accZORRORewards: 0,\n                totalTrancheContributions: 0,\n                vault: _vault\n            })\n        );\n    }\n\n    /// @notice Update the given pool's ZORRO allocation point. Can only be called by the owner.\n    /// @param _pid The index of the pool ID\n    /// @param _allocPoint The number of allocation points for this pool (aka \"multiplier\")\n    /// @param _withUpdate  Mass update all pools if set to true\n    function set(\n        uint256 _pid,\n        uint256 _allocPoint,\n        bool _withUpdate\n    ) public onlyOwner {\n        // If _withUpdate provided, update all pools\n        if (_withUpdate) {\n            massUpdatePools();\n        }\n        // Adjust the total allocation points by the provided _allocPoint\n        totalAllocPoint = totalAllocPoint.sub(poolInfo[_pid].allocPoint).add(\n            _allocPoint\n        );\n        // Update the key params for this pool\n        poolInfo[_pid].allocPoint = _allocPoint;\n    }\n\n    /// @notice Updates reward variables of all pools\n    /// @dev Be careful of gas fees!\n    /// @return _mintedZOR total amount of ZOR rewards minted (useful for cross chain)\n    function massUpdatePools() public returns (uint256 _mintedZOR) {\n        uint256 length = poolInfo.length;\n        // Iterate through each pool and run updatePool()\n        for (uint256 pid = 0; pid < length; ++pid) {\n            _mintedZOR = _mintedZOR.add(this.updatePool(pid));\n        }\n    }\n}\n",
  "sourcePath": "/Users/kristophm/Documents/workspace/zorro-protocol/contracts/controllers/_ZorroControllerPoolMgmt.sol",
  "compiler": {
    "name": "solc",
    "version": "0.8.10+commit.fc410830.Emscripten.clang"
  },
  "schemaVersion": "3.4.10",
  "updatedAt": "2022-11-16T16:38:22.156Z",
  "devdoc": {
    "kind": "dev",
    "methods": {
      "add(uint256,address,bool,address)": {
        "details": "DO NOT add the same Want token more than once. Rewards will be messed up if you do. (Only if Want tokens are stored here.)",
        "params": {
          "_allocPoint": "The number of allocation points for this pool (aka \"multiplier\")",
          "_vault": "The contract address of the underlying vault",
          "_want": "The address of the want token",
          "_withUpdate": "Mass update all pools if set to true"
        }
      },
      "inCaseTokensGetStuck(address,uint256)": {
        "details": "Does not permit usage for the Zorro token",
        "params": {
          "_amount": "token quantity",
          "_token": "ERC20 token address"
        }
      },
      "massUpdatePools()": {
        "details": "Be careful of gas fees!",
        "returns": {
          "_mintedZOR": "total amount of ZOR rewards minted (useful for cross chain)"
        }
      },
      "owner()": {
        "details": "Returns the address of the current owner."
      },
      "poolLength()": {
        "returns": {
          "_0": "Number of pools"
        }
      },
      "renounceOwnership()": {
        "details": "Leaves the contract without owner. It will not be possible to call `onlyOwner` functions anymore. Can only be called by the current owner. NOTE: Renouncing ownership will leave the contract without an owner, thereby removing any functionality that is only available to the owner."
      },
      "resetSyntheticRewardsMinted()": {
        "details": "To be called by Oracle only, when batch burning synthetic minted rewards"
      },
      "resetSyntheticRewardsSlashed()": {
        "details": "To be called by Oracle only, when batch burning synthetic minted rewards"
      },
      "set(uint256,uint256,bool)": {
        "params": {
          "_allocPoint": "The number of allocation points for this pool (aka \"multiplier\")",
          "_pid": "The index of the pool ID",
          "_withUpdate": "Mass update all pools if set to true"
        }
      },
      "setBurnAddress(address)": {
        "params": {
          "_burnAddress": "The burn address on this chain"
        }
      },
      "setKeyAddresses(address,address)": {
        "params": {
          "_ZORRO": "ZOR token address",
          "_defaultStablecoin": "Main stablecoin address (USDC)"
        }
      },
      "setRewardsParams(uint256,uint256[],uint256,uint256)": {
        "details": "NOTE: Must enter all parameters or existing ones will be overwritten!",
        "params": {
          "_baseRewardRateBasisPoints": "Base reward rate factor, in bp",
          "_blocksPerDay": "# of blocks per day for this chain",
          "_chainMultiplier": "Rewards multiplier factor to be applied to this chain",
          "_dailyDistFactors": "Array of [ZORRODailyDistributionFactorBasisPointsMin, ZORRODailyDistributionFactorBasisPointsMax]"
        }
      },
      "setTargetTVLCaptureBasisPoints(uint256)": {
        "params": {
          "_targetTVLCaptureBasisPoints": "Percent of market desired to be captured, in bp. 333 = 3.33%. ONLY to be set on the home chain"
        }
      },
      "setXChainParams(uint256,uint256,address)": {
        "params": {
          "_chainId": "The ind of the chain that this contract is on",
          "_homeChainId": "The chain ID of the home chain",
          "_homeChainZorroController": "The address of the home chain controller"
        }
      },
      "setZorroContracts(address,address)": {
        "params": {
          "_publicPool": "Public pool address (where ZOR minted)",
          "_zorroStakingVault": "Zorro single staking vault address"
        }
      },
      "setZorroControllerOracle(address)": {
        "params": {
          "_zorroControllerOracle": "Address of Chainlink oracle that can interact with this contract"
        }
      },
      "setZorroPerBlock(uint256,uint256,uint256,uint256,uint256)": {
        "details": "Values to be provided by Oracle. Perferable to run daily",
        "params": {
          "_ZorroTotalVaultTVLUSD": "USD value of all TVL locked into the Zorro protocol, across all chains",
          "_publicPoolZORBalance": "Number of ZOR tokens remaining in public pool on home chain",
          "_targetTVLCaptureBasisPoints": "% desired capture of total market TVL, measured in basis points",
          "_totalChainMultipliers": "Sum total of all chain multipliers for each chain",
          "_totalMarketTVLUSD": "Total DeFi market TVL across all chains (measured in USD)"
        }
      },
      "trancheLength(uint256,address)": {
        "params": {
          "_pid": "Index of pool",
          "_user": "wallet address of user"
        },
        "returns": {
          "_0": "Number of tranches"
        }
      },
      "transferOwnership(address)": {
        "details": "Transfers ownership of the contract to a new account (`newOwner`). Can only be called by the current owner."
      },
      "updatePool(uint256)": {
        "params": {
          "_pid": "index of pool"
        },
        "returns": {
          "mintedZOR": "Amount of ZOR rewards minted (useful for cross chain)"
        }
      }
    },
    "version": 1
  },
  "userdoc": {
    "kind": "user",
    "methods": {
      "add(uint256,address,bool,address)": {
        "notice": "Adds a new pool. Can only be called by the owner."
      },
      "inCaseTokensGetStuck(address,uint256)": {
        "notice": "For owner to recover ERC20 tokens on this contract if stuck"
      },
      "massUpdatePools()": {
        "notice": "Updates reward variables of all pools"
      },
      "poolLength()": {
        "notice": "Number of pools in the Zorro protocol"
      },
      "resetSyntheticRewardsMinted()": {
        "notice": "Resets accumulated synthentic rewards minted"
      },
      "resetSyntheticRewardsSlashed()": {
        "notice": "Resets accumulated synthentic rewards minted"
      },
      "set(uint256,uint256,bool)": {
        "notice": "Update the given pool's ZORRO allocation point. Can only be called by the owner."
      },
      "setBurnAddress(address)": {
        "notice": "Setter: Burn address"
      },
      "setKeyAddresses(address,address)": {
        "notice": "Setter: Set key token addresses"
      },
      "setRewardsParams(uint256,uint256[],uint256,uint256)": {
        "notice": "Setter: Reward params (See Tokenomics paper for more details)"
      },
      "setStartBlock(uint256)": {
        "notice": "Setter: Start block for rewards"
      },
      "setTargetTVLCaptureBasisPoints(uint256)": {
        "notice": "Setter: TVL capture (See Tokenomics paper)"
      },
      "setXChainParams(uint256,uint256,address)": {
        "notice": "Setter: Cross chain params"
      },
      "setZorroContracts(address,address)": {
        "notice": "Setter: Set key ZOR contract addresses"
      },
      "setZorroControllerOracle(address)": {
        "notice": "Setter: Set Zorro Controller Oracle"
      },
      "setZorroPerBlock(uint256,uint256,uint256,uint256,uint256)": {
        "notice": "Set the number of Zorro to emit per block based on current market parameters"
      },
      "trancheLength(uint256,address)": {
        "notice": "Number of tranches invested by a given user into a given pool"
      },
      "updatePool(uint256)": {
        "notice": "Update reward variables of the given pool to be up-to-date."
      }
    },
    "version": 1
  }
}