{
  "contractName": "ZorroControllerOwnable",
  "abi": [
    {
      "anonymous": false,
      "inputs": [
        {
          "indexed": true,
          "internalType": "address",
          "name": "previousOwner",
          "type": "address"
        },
        {
          "indexed": true,
          "internalType": "address",
          "name": "newOwner",
          "type": "address"
        }
      ],
      "name": "OwnershipTransferred",
      "type": "event"
    },
    {
      "inputs": [],
      "name": "owner",
      "outputs": [
        {
          "internalType": "address",
          "name": "",
          "type": "address"
        }
      ],
      "stateMutability": "view",
      "type": "function"
    },
    {
      "inputs": [],
      "name": "renounceOwnership",
      "outputs": [],
      "stateMutability": "nonpayable",
      "type": "function"
    },
    {
      "inputs": [
        {
          "internalType": "address",
          "name": "newOwner",
          "type": "address"
        }
      ],
      "name": "transferOwnership",
      "outputs": [],
      "stateMutability": "nonpayable",
      "type": "function"
    },
    {
      "inputs": [],
      "name": "zorroControllerAddress",
      "outputs": [
        {
          "internalType": "address",
          "name": "",
          "type": "address"
        }
      ],
      "stateMutability": "view",
      "type": "function"
    }
  ],
  "bytecode": "0x608060405234801561001057600080fd5b50610033610025640100000000610038810204565b64010000000061003c810204565b61008c565b3390565b60008054600160a060020a03838116600160a060020a0319831681178455604051919092169283917f8be0079c531659141344cd1fd0a4f28419497f9722a3daafe3b4186f6b6457e09190a35050565b6103248061009b6000396000f3fe608060405234801561001057600080fd5b5060043610610068577c01000000000000000000000000000000000000000000000000000000006000350463715018a6811461006d5780638da5cb5b14610077578063b1414dbb146100a0578063f2fde38b146100b3575b600080fd5b6100756100c6565b005b600054600160a060020a03165b604051600160a060020a03909116815260200160405180910390f35b60015461008490600160a060020a031681565b6100756100c13660046102be565b61014b565b600054600160a060020a0316331461013f576040517f08c379a000000000000000000000000000000000000000000000000000000000815260206004820181905260248201527f4f776e61626c653a2063616c6c6572206973206e6f7420746865206f776e657260448201526064015b60405180910390fd5b6101496000610261565b565b600054600160a060020a031633146101bf576040517f08c379a000000000000000000000000000000000000000000000000000000000815260206004820181905260248201527f4f776e61626c653a2063616c6c6572206973206e6f7420746865206f776e65726044820152606401610136565b600160a060020a038116610255576040517f08c379a000000000000000000000000000000000000000000000000000000000815260206004820152602660248201527f4f776e61626c653a206e6577206f776e657220697320746865207a65726f206160448201527f64647265737300000000000000000000000000000000000000000000000000006064820152608401610136565b61025e81610261565b50565b60008054600160a060020a0383811673ffffffffffffffffffffffffffffffffffffffff19831681178455604051919092169283917f8be0079c531659141344cd1fd0a4f28419497f9722a3daafe3b4186f6b6457e09190a35050565b6000602082840312156102d057600080fd5b8135600160a060020a03811681146102e757600080fd5b939250505056fea26469706673582212206b2c894d6a5148f11ab88e8dedc0f6619665d088cfc6a7c5762586e368f0ecec64736f6c634300080a0033",
  "immutableReferences": {},
  "source": "// SPDX-License-Identifier: MIT\npragma solidity ^0.8.0;\n\nimport \"@openzeppelin/contracts/token/ERC20/ERC20.sol\";\n\nimport \"@openzeppelin/contracts/utils/Address.sol\";\n\nimport \"@openzeppelin/contracts/token/ERC20/utils/SafeERC20.sol\";\n\nimport \"@openzeppelin/contracts/access/Ownable.sol\";\n\ncontract ZorroControllerOwnable is Ownable {\n    /* Modifiers */\n    modifier onlyZorroController() {\n        require(_msgSender() == zorroControllerAddress, \"!zorroController\");\n        _;\n    }\n\n    /* State */\n    address public zorroControllerAddress;\n}\n\n/// @title The Zorro token (cross chain)\ncontract Zorro is ERC20(\"ZORRO\", \"ZOR\"), ZorroControllerOwnable {\n    /* Constructor */\n    constructor(address _zorroController) {\n        zorroControllerAddress = _zorroController;\n    }\n\n    /* Functions */\n    /// @notice Allows authorized minting of the Zorro token to a specified address\n    /// @param _to The address to mint to\n    /// @param _amount The amount to mint\n    function mint(address _to, uint256 _amount) public onlyZorroController {\n        _mint(_to, _amount);\n    }\n\n    /// @notice Allows authorized burning of the Zorro token from a specified account\n    /// @param _account The address to transfer ZOR from for burning\n    /// @param _amount The amount of ZOR to transfer and burn\n    function burn(address _account, uint256 _amount) public onlyZorroController {\n        _burn(_account, _amount);\n    }\n}\n\n/// @title Zorro USD synthetic token (used for bridges)\ncontract ZUSDC is ERC20(\"ZORRO_USDC\", \"ZUSDC\"), ZorroControllerOwnable {\n    /* Constructor */\n    constructor(address _zorroController) {\n        zorroControllerAddress = _zorroController;\n    }\n\n    /* Functions */\n    /// @notice Mints ERC20 tokens\n    /// @dev Can only be called by owner\n    /// @param _to The address to send minted tokens to\n    /// @param _amount The amount of tokens to mint\n    function mint(address _to, uint256 _amount) public onlyZorroController {\n        _mint(_to, _amount);\n    }\n\n    /// @notice Burns ERC20 tokens\n    /// @dev Can only be called by owner\n    /// @param _account The address to burn tokens from\n    /// @param _amount The amount of tokens to burn\n    function burn(address _account, uint256 _amount) public onlyZorroController {\n        _burn(_account, _amount);\n    }\n}\n",
  "sourcePath": "/Users/kristophm/Documents/workspace/zorro-protocol/contracts/tokens/ZorroTokens.sol",
  "compiler": {
    "name": "solc",
    "version": "0.8.10+commit.fc410830.Emscripten.clang"
  },
  "schemaVersion": "3.4.4",
  "updatedAt": "2022-03-06T22:53:36.996Z",
  "devdoc": {
    "kind": "dev",
    "methods": {
      "owner()": {
        "details": "Returns the address of the current owner."
      },
      "renounceOwnership()": {
        "details": "Leaves the contract without owner. It will not be possible to call `onlyOwner` functions anymore. Can only be called by the current owner. NOTE: Renouncing ownership will leave the contract without an owner, thereby removing any functionality that is only available to the owner."
      },
      "transferOwnership(address)": {
        "details": "Transfers ownership of the contract to a new account (`newOwner`). Can only be called by the current owner."
      }
    },
    "version": 1
  },
  "userdoc": {
    "kind": "user",
    "methods": {},
    "version": 1
  }
}