{
  "contractName": "ZorroControllerXChainDeposit",
  "abi": [
    {
      "anonymous": false,
      "inputs": [
        {
          "indexed": true,
          "internalType": "address",
          "name": "previousOwner",
          "type": "address"
        },
        {
          "indexed": true,
          "internalType": "address",
          "name": "newOwner",
          "type": "address"
        }
      ],
      "name": "OwnershipTransferred",
      "type": "event"
    },
    {
      "inputs": [
        {
          "internalType": "uint16",
          "name": "",
          "type": "uint16"
        }
      ],
      "name": "LZChainToZorroMap",
      "outputs": [
        {
          "internalType": "uint256",
          "name": "",
          "type": "uint256"
        }
      ],
      "stateMutability": "view",
      "type": "function"
    },
    {
      "inputs": [],
      "name": "ZORRO",
      "outputs": [
        {
          "internalType": "address",
          "name": "",
          "type": "address"
        }
      ],
      "stateMutability": "view",
      "type": "function"
    },
    {
      "inputs": [
        {
          "internalType": "uint256",
          "name": "",
          "type": "uint256"
        }
      ],
      "name": "ZorroChainToLZMap",
      "outputs": [
        {
          "internalType": "uint16",
          "name": "",
          "type": "uint16"
        }
      ],
      "stateMutability": "view",
      "type": "function"
    },
    {
      "inputs": [],
      "name": "burnAddress",
      "outputs": [
        {
          "internalType": "address",
          "name": "",
          "type": "address"
        }
      ],
      "stateMutability": "view",
      "type": "function"
    },
    {
      "inputs": [],
      "name": "chainId",
      "outputs": [
        {
          "internalType": "uint256",
          "name": "",
          "type": "uint256"
        }
      ],
      "stateMutability": "view",
      "type": "function"
    },
    {
      "inputs": [
        {
          "internalType": "uint256",
          "name": "",
          "type": "uint256"
        }
      ],
      "name": "chainTypes",
      "outputs": [
        {
          "internalType": "uint256",
          "name": "",
          "type": "uint256"
        }
      ],
      "stateMutability": "view",
      "type": "function"
    },
    {
      "inputs": [],
      "name": "controllerActions",
      "outputs": [
        {
          "internalType": "address",
          "name": "",
          "type": "address"
        }
      ],
      "stateMutability": "view",
      "type": "function"
    },
    {
      "inputs": [
        {
          "internalType": "uint256",
          "name": "",
          "type": "uint256"
        }
      ],
      "name": "controllerContractsMap",
      "outputs": [
        {
          "internalType": "bytes",
          "name": "",
          "type": "bytes"
        }
      ],
      "stateMutability": "view",
      "type": "function"
    },
    {
      "inputs": [],
      "name": "currentChainController",
      "outputs": [
        {
          "internalType": "address",
          "name": "",
          "type": "address"
        }
      ],
      "stateMutability": "view",
      "type": "function"
    },
    {
      "inputs": [],
      "name": "defaultStablecoin",
      "outputs": [
        {
          "internalType": "address",
          "name": "",
          "type": "address"
        }
      ],
      "stateMutability": "view",
      "type": "function"
    },
    {
      "inputs": [],
      "name": "homeChainId",
      "outputs": [
        {
          "internalType": "uint256",
          "name": "",
          "type": "uint256"
        }
      ],
      "stateMutability": "view",
      "type": "function"
    },
    {
      "inputs": [],
      "name": "homeChainZorroController",
      "outputs": [
        {
          "internalType": "address",
          "name": "",
          "type": "address"
        }
      ],
      "stateMutability": "view",
      "type": "function"
    },
    {
      "inputs": [],
      "name": "layerZeroEndpoint",
      "outputs": [
        {
          "internalType": "address",
          "name": "",
          "type": "address"
        }
      ],
      "stateMutability": "view",
      "type": "function"
    },
    {
      "inputs": [],
      "name": "owner",
      "outputs": [
        {
          "internalType": "address",
          "name": "",
          "type": "address"
        }
      ],
      "stateMutability": "view",
      "type": "function"
    },
    {
      "inputs": [],
      "name": "publicPool",
      "outputs": [
        {
          "internalType": "address",
          "name": "",
          "type": "address"
        }
      ],
      "stateMutability": "view",
      "type": "function"
    },
    {
      "inputs": [],
      "name": "renounceOwnership",
      "outputs": [],
      "stateMutability": "nonpayable",
      "type": "function"
    },
    {
      "inputs": [
        {
          "internalType": "address",
          "name": "_burn",
          "type": "address"
        }
      ],
      "name": "setBurnAddress",
      "outputs": [],
      "stateMutability": "nonpayable",
      "type": "function"
    },
    {
      "inputs": [
        {
          "internalType": "uint256",
          "name": "_zorroChainId",
          "type": "uint256"
        },
        {
          "internalType": "uint256",
          "name": "_chainType",
          "type": "uint256"
        }
      ],
      "name": "setChainType",
      "outputs": [],
      "stateMutability": "nonpayable",
      "type": "function"
    },
    {
      "inputs": [
        {
          "internalType": "uint256[]",
          "name": "_chainIds",
          "type": "uint256[]"
        }
      ],
      "name": "setChains",
      "outputs": [],
      "stateMutability": "nonpayable",
      "type": "function"
    },
    {
      "inputs": [
        {
          "internalType": "uint256",
          "name": "_zorroChainId",
          "type": "uint256"
        },
        {
          "internalType": "bytes",
          "name": "_controller",
          "type": "bytes"
        }
      ],
      "name": "setControllerContract",
      "outputs": [],
      "stateMutability": "nonpayable",
      "type": "function"
    },
    {
      "inputs": [
        {
          "internalType": "address[]",
          "name": "_contracts",
          "type": "address[]"
        }
      ],
      "name": "setKeyContracts",
      "outputs": [],
      "stateMutability": "nonpayable",
      "type": "function"
    },
    {
      "inputs": [
        {
          "internalType": "address",
          "name": "_stargateRouter",
          "type": "address"
        },
        {
          "internalType": "uint256",
          "name": "_stargateSwapPoolId",
          "type": "uint256"
        },
        {
          "internalType": "address",
          "name": "_layerZeroEndpoint",
          "type": "address"
        }
      ],
      "name": "setLayerZeroParams",
      "outputs": [],
      "stateMutability": "nonpayable",
      "type": "function"
    },
    {
      "inputs": [
        {
          "internalType": "uint256",
          "name": "_zorroChainId",
          "type": "uint256"
        },
        {
          "internalType": "uint16",
          "name": "_stargatePoolId",
          "type": "uint16"
        }
      ],
      "name": "setStargateDestPoolIds",
      "outputs": [],
      "stateMutability": "nonpayable",
      "type": "function"
    },
    {
      "inputs": [
        {
          "internalType": "address[]",
          "name": "_tokens",
          "type": "address[]"
        }
      ],
      "name": "setTokens",
      "outputs": [],
      "stateMutability": "nonpayable",
      "type": "function"
    },
    {
      "inputs": [
        {
          "internalType": "uint256",
          "name": "_zorroChainId",
          "type": "uint256"
        },
        {
          "internalType": "uint16",
          "name": "_lzChainId",
          "type": "uint16"
        }
      ],
      "name": "setZorroChainToLZMap",
      "outputs": [],
      "stateMutability": "nonpayable",
      "type": "function"
    },
    {
      "inputs": [
        {
          "internalType": "uint256",
          "name": "",
          "type": "uint256"
        }
      ],
      "name": "stargateDestPoolIds",
      "outputs": [
        {
          "internalType": "uint256",
          "name": "",
          "type": "uint256"
        }
      ],
      "stateMutability": "view",
      "type": "function"
    },
    {
      "inputs": [],
      "name": "stargateRouter",
      "outputs": [
        {
          "internalType": "address",
          "name": "",
          "type": "address"
        }
      ],
      "stateMutability": "view",
      "type": "function"
    },
    {
      "inputs": [],
      "name": "stargateSwapPoolId",
      "outputs": [
        {
          "internalType": "uint256",
          "name": "",
          "type": "uint256"
        }
      ],
      "stateMutability": "view",
      "type": "function"
    },
    {
      "inputs": [
        {
          "internalType": "address",
          "name": "newOwner",
          "type": "address"
        }
      ],
      "name": "transferOwnership",
      "outputs": [],
      "stateMutability": "nonpayable",
      "type": "function"
    },
    {
      "inputs": [
        {
          "internalType": "uint256",
          "name": "_zorroChainId",
          "type": "uint256"
        },
        {
          "internalType": "uint256",
          "name": "_pid",
          "type": "uint256"
        },
        {
          "internalType": "uint256",
          "name": "_valueUSD",
          "type": "uint256"
        },
        {
          "internalType": "uint256",
          "name": "_weeksCommitted",
          "type": "uint256"
        },
        {
          "internalType": "uint256",
          "name": "_maxMarketMovement",
          "type": "uint256"
        },
        {
          "internalType": "bytes",
          "name": "_destWallet",
          "type": "bytes"
        }
      ],
      "name": "sendXChainDepositRequest",
      "outputs": [],
      "stateMutability": "payable",
      "type": "function"
    },
    {
      "inputs": [
        {
          "internalType": "uint256",
          "name": "_pid",
          "type": "uint256"
        },
        {
          "internalType": "uint256",
          "name": "_valueUSD",
          "type": "uint256"
        },
        {
          "internalType": "uint256",
          "name": "_weeksCommitted",
          "type": "uint256"
        },
        {
          "internalType": "uint256",
          "name": "_maxMarketMovement",
          "type": "uint256"
        },
        {
          "internalType": "bytes",
          "name": "_originAccount",
          "type": "bytes"
        },
        {
          "internalType": "address",
          "name": "_destAccount",
          "type": "address"
        }
      ],
      "name": "receiveXChainDepositRequest",
      "outputs": [],
      "stateMutability": "nonpayable",
      "type": "function"
    }
  ],
  "bytecode": "0x608060405234801561001057600080fd5b50611c4c806100206000396000f3fe6080604052600436106101f5576000357c01000000000000000000000000000000000000000000000000000000009004806370d5ae051161011f5780639a8a0592116100b2578063cd01af4811610081578063cd01af48146105b1578063ef126967146105d1578063f2fde38b146105e7578063fc39a29e1461060757600080fd5b80639a8a059214610548578063a2df085c1461055e578063a9e56f3c14610571578063b61bb80a1461059157600080fd5b80638b5694d6116100ee5780638b5694d6146104bd5780638c157db2146104dd5780638d6ffd6a146104fd5780638da5cb5b1461052a57600080fd5b806370d5ae0514610448578063715018a6146104685780637bd455221461047d5780637f633ea81461049d57600080fd5b8063459f475311610197578063593af9fe11610166578063593af9fe146103bb578063625adaf2146103e8578063668ababb14610408578063692d8b8b1461042857600080fd5b8063459f4753146103215780634b0e7216146103655780634bf76174146103855780635790f599146103a557600080fd5b806315230ae6116101d357806315230ae614610279578063219b38b814610299578063293da9d4146102d4578063332e5a7b1461030157600080fd5b806307968db1146101fa5780630a34e1a41461023757806313a2e88014610259575b600080fd5b34801561020657600080fd5b50609a5461021a90600160a060020a031681565b604051600160a060020a0390911681526020015b60405180910390f35b34801561024357600080fd5b50610257610252366004611540565b610627565b005b34801561026557600080fd5b50610257610274366004611562565b61066f565b34801561028557600080fd5b5060a25461021a90600160a060020a031681565b3480156102a557600080fd5b506102c66102b43660046115de565b60996020526000908152604090205481565b60405190815260200161022e565b3480156102e057600080fd5b506102c66102ef36600461160e565b609d6020526000908152604090205481565b34801561030d57600080fd5b5060a45461021a90600160a060020a031681565b34801561032d57600080fd5b5061035261033c3660046115de565b609c6020526000908152604090205461ffff1681565b60405161ffff909116815260200161022e565b34801561037157600080fd5b50610257610380366004611640565b6106bb565b34801561039157600080fd5b506102576103a03660046116a6565b61070a565b3480156103b157600080fd5b506102c660985481565b3480156103c757600080fd5b506103db6103d63660046115de565b610813565b60405161022e9190611740565b3480156103f457600080fd5b506102576104033660046116a6565b6108ad565b34801561041457600080fd5b5060a35461021a90600160a060020a031681565b34801561043457600080fd5b5061025761044336600461181b565b61096e565b34801561045457600080fd5b5060a75461021a90600160a060020a031681565b34801561047457600080fd5b506102576109b9565b34801561048957600080fd5b5061025761049836600461188e565b6109f2565b3480156104a957600080fd5b506102576104b83660046118ca565b610a53565b3480156104c957600080fd5b506102576104d83660046118ca565b610aaf565b3480156104e957600080fd5b5060a05461021a90600160a060020a031681565b34801561050957600080fd5b506102c66105183660046115de565b609e6020526000908152604090205481565b34801561053657600080fd5b50603354600160a060020a031661021a565b34801561055457600080fd5b506102c660a55481565b61025761056c3660046118f6565b610af5565b34801561057d57600080fd5b5060975461021a90600160a060020a031681565b34801561059d57600080fd5b50609f5461021a90600160a060020a031681565b3480156105bd57600080fd5b506102576105cc3660046116a6565b610db9565b3480156105dd57600080fd5b506102c660a65481565b3480156105f357600080fd5b50610257610602366004611640565b610e28565b34801561061357600080fd5b5060a15461021a90600160a060020a031681565b603354600160a060020a0316331461065d5760405160e560020a62461bcd02815260040161065490611962565b60405180910390fd5b6000918252609e602052604090912055565b603354600160a060020a0316331461069c5760405160e560020a62461bcd02815260040161065490611962565b6000838152609b602052604090206106b59083836114a7565b50505050565b603354600160a060020a031633146106e85760405160e560020a62461bcd02815260040161065490611962565b60a78054600160a060020a031916600160a060020a0392909216919091179055565b603354600160a060020a031633146107375760405160e560020a62461bcd02815260040161065490611962565b8181600081811061074a5761074a611997565b905060200201602081019061075f9190611640565b60a18054600160a060020a031916600160a060020a03929092169190911790558181600181811061079257610792611997565b90506020020160208101906107a79190611640565b60a28054600160a060020a031916600160a060020a0392909216919091179055818160028181106107da576107da611997565b90506020020160208101906107ef9190611640565b60a38054600160a060020a031916600160a060020a03929092169190911790555050565b609b602052600090815260409020805461082c906119b0565b80601f0160208091040260200160405190810160405280929190818152602001828054610858906119b0565b80156108a55780601f1061087a576101008083540402835291602001916108a5565b820191906000526020600020905b81548152906001019060200180831161088857829003601f168201915b505050505081565b603354600160a060020a031633146108da5760405160e560020a62461bcd02815260040161065490611962565b818160008181106108ed576108ed611997565b90506020020160208101906109029190611640565b609f8054600160a060020a031916600160a060020a03929092169190911790558181600181811061093557610935611997565b905060200201602081019061094a9190611640565b60a08054600160a060020a031916600160a060020a03929092169190911790555050565b60405160e560020a62461bcd02815260206004820152601760248201527f696c6c6567616c2064756d6d792066756e632063616c6c0000000000000000006044820152606401610654565b603354600160a060020a031633146109e65760405160e560020a62461bcd02815260040161065490611962565b6109f06000610ee0565b565b603354600160a060020a03163314610a1f5760405160e560020a62461bcd02815260040161065490611962565b60978054600160a060020a03948516600160a060020a031991821617909155609892909255609a8054919093169116179055565b603354600160a060020a03163314610a805760405160e560020a62461bcd02815260040161065490611962565b6000828152609c60209081526040808320805461ffff90951661ffff1990951685179055928252609d90522055565b603354600160a060020a03163314610adc5760405160e560020a62461bcd02815260040161065490611962565b60009182526099602052604090912061ffff9091169055565b60026065541415610b4b5760405160e560020a62461bcd02815260206004820152601f60248201527f5265656e7472616e637947756172643a207265656e7472616e742063616c6c006044820152606401610654565b600260655534610ba05760405160e560020a62461bcd02815260206004820152601160248201527f4e6f2066656573207375626d69747465640000000000000000000000000000006044820152606401610654565b609f54610bb890600160a060020a0316333087610f32565b609f546040517f70a08231000000000000000000000000000000000000000000000000000000008152306004820152600091600160a060020a0316906370a0823190602401602060405180830381865afa158015610c1a573d6000803e3d6000fd5b505050506040513d601f19601f82011682018060405250810190610c3e91906119ee565b60a4546040517f1b882516000000000000000000000000000000000000000000000000000000008152919250600091600160a060020a0390911690631b88251690610c97908a9086908a908a9033908b90600401611a07565b600060405180830381865afa158015610cb4573d6000803e3d6000fd5b505050506040513d6000823e601f3d908101601f19168201604052610cdc9190810190611a4d565b6000898152609b6020526040812080549293509091610cfa906119b0565b80601f0160208091040260200160405190810160405280929190818152602001828054610d26906119b0565b8015610d735780601f10610d4857610100808354040283529160200191610d73565b820191906000526020600020905b815481529060010190602001808311610d5657829003601f168201915b50505050509050610da96040518060a001604052808b815260200185815260200183815260200184815260200187815250610fe3565b5050600160655550505050505050565b603354600160a060020a03163314610de65760405160e560020a62461bcd02815260040161065490611962565b81816000818110610df957610df9611997565b602002919091013560a5555081816001818110610e1857610e18611997565b602002919091013560a655505050565b603354600160a060020a03163314610e555760405160e560020a62461bcd02815260040161065490611962565b600160a060020a038116610ed45760405160e560020a62461bcd02815260206004820152602660248201527f4f776e61626c653a206e6577206f776e657220697320746865207a65726f206160448201527f64647265737300000000000000000000000000000000000000000000000000006064820152608401610654565b610edd81610ee0565b50565b60338054600160a060020a03838116600160a060020a0319831681179093556040519116919082907f8be0079c531659141344cd1fd0a4f28419497f9722a3daafe3b4186f6b6457e090600090a35050565b604051600160a060020a03808516602483015283166044820152606481018290526106b59085907f23b872dd00000000000000000000000000000000000000000000000000000000906084015b60408051601f198184030181529190526020810180517bffffffffffffffffffffffffffffffffffffffffffffffffffffffff167fffffffff00000000000000000000000000000000000000000000000000000000909316929092179091526111f9565b6097546020820151609f5461100692600160a060020a0391821692911690611115565b61102a60405180606001604052806000815260200160008152602001606081525090565b60975482516000908152609c602090815260408083205460985487518552609984529190932054918601516080870151600160a060020a0390951694639fbf10fc94349461ffff90911693929091339190611094906103e89061108e9084906112e6565b906112f9565b898b604001518c606001516040518b63ffffffff167c01000000000000000000000000000000000000000000000000000000000281526004016110df99989796959493929190611ac4565b6000604051808303818588803b1580156110f857600080fd5b505af115801561110c573d6000803e3d6000fd5b50505050505050565b6040517fdd62ed3e000000000000000000000000000000000000000000000000000000008152306004820152600160a060020a038381166024830152600091839186169063dd62ed3e90604401602060405180830381865afa15801561117f573d6000803e3d6000fd5b505050506040513d601f19601f820116820180604052508101906111a391906119ee565b6111ad9190611b7c565b604051600160a060020a0385166024820152604481018290529091506106b59085907f095ea7b30000000000000000000000000000000000000000000000000000000090606401610f7f565b600061124e826040518060400160405280602081526020017f5361666545524332303a206c6f772d6c6576656c2063616c6c206661696c656481525085600160a060020a03166113059092919063ffffffff16565b8051909150156112e1578080602001905181019061126c9190611b94565b6112e15760405160e560020a62461bcd02815260206004820152602a60248201527f5361666545524332303a204552433230206f7065726174696f6e20646964206e60448201527f6f742073756363656564000000000000000000000000000000000000000000006064820152608401610654565b505050565b60006112f28284611bb6565b9392505050565b60006112f28284611bd5565b6060611314848460008561131c565b949350505050565b606030318311156113985760405160e560020a62461bcd02815260206004820152602660248201527f416464726573733a20696e73756666696369656e742062616c616e636520666f60448201527f722063616c6c00000000000000000000000000000000000000000000000000006064820152608401610654565b600160a060020a0385163b6113f25760405160e560020a62461bcd02815260206004820152601d60248201527f416464726573733a2063616c6c20746f206e6f6e2d636f6e74726163740000006044820152606401610654565b60008086600160a060020a0316858760405161140e9190611bfa565b60006040518083038185875af1925050503d806000811461144b576040519150601f19603f3d011682016040523d82523d6000602084013e611450565b606091505b509150915061146082828661146b565b979650505050505050565b6060831561147a5750816112f2565b82511561148a5782518084602001fd5b8160405160e560020a62461bcd0281526004016106549190611740565b8280546114b3906119b0565b90600052602060002090601f0160209004810192826114d5576000855561151b565b82601f106114ee5782800160ff1982351617855561151b565b8280016001018555821561151b579182015b8281111561151b578235825591602001919060010190611500565b5061152792915061152b565b5090565b5b80821115611527576000815560010161152c565b6000806040838503121561155357600080fd5b50508035926020909101359150565b60008060006040848603121561157757600080fd5b83359250602084013567ffffffffffffffff8082111561159657600080fd5b818601915086601f8301126115aa57600080fd5b8135818111156115b957600080fd5b8760208285010111156115cb57600080fd5b6020830194508093505050509250925092565b6000602082840312156115f057600080fd5b5035919050565b803561ffff8116811461160957600080fd5b919050565b60006020828403121561162057600080fd5b6112f2826115f7565b8035600160a060020a038116811461160957600080fd5b60006020828403121561165257600080fd5b6112f282611629565b60008083601f84011261166d57600080fd5b50813567ffffffffffffffff81111561168557600080fd5b602083019150836020808302850101111561169f57600080fd5b9250929050565b600080602083850312156116b957600080fd5b823567ffffffffffffffff8111156116d057600080fd5b6116dc8582860161165b565b90969095509350505050565b60005b838110156117035781810151838201526020016116eb565b838111156106b55750506000910152565b6000815180845261172c8160208601602086016116e8565b601f01601f19169290920160200192915050565b6020815260006112f26020830184611714565b60e060020a634e487b7102600052604160045260246000fd5b604051601f8201601f1916810167ffffffffffffffff8111828210171561179557611795611753565b604052919050565b600067ffffffffffffffff8211156117b7576117b7611753565b50601f01601f191660200190565b600082601f8301126117d657600080fd5b81356117e96117e48261179d565b61176c565b8181528460208386010111156117fe57600080fd5b816020850160208301376000918101602001919091529392505050565b60008060008060008060c0878903121561183457600080fd5b86359550602087013594506040870135935060608701359250608087013567ffffffffffffffff81111561186757600080fd5b61187389828a016117c5565b92505061188260a08801611629565b90509295509295509295565b6000806000606084860312156118a357600080fd5b6118ac84611629565b9250602084013591506118c160408501611629565b90509250925092565b600080604083850312156118dd57600080fd5b823591506118ed602084016115f7565b90509250929050565b60008060008060008060c0878903121561190f57600080fd5b863595506020870135945060408701359350606087013592506080870135915060a087013567ffffffffffffffff81111561194957600080fd5b61195589828a016117c5565b9150509295509295509295565b6020808252818101527f4f776e61626c653a2063616c6c6572206973206e6f7420746865206f776e6572604082015260600190565b60e060020a634e487b7102600052603260045260246000fd5b6002810460018216806119c457607f821691505b602082108114156119e85760e060020a634e487b7102600052602260045260246000fd5b50919050565b600060208284031215611a0057600080fd5b5051919050565b868152856020820152846040820152836060820152600160a060020a038316608082015260c060a08201526000611a4160c0830184611714565b98975050505050505050565b600060208284031215611a5f57600080fd5b815167ffffffffffffffff811115611a7657600080fd5b8201601f81018413611a8757600080fd5b8051611a956117e48261179d565b818152856020838501011115611aaa57600080fd5b611abb8260208301602086016116e8565b95945050505050565b600061012061ffff8c1683528a6020840152896040840152600160a060020a03891660608401528760808401528660a08401528060c084015285518184015250602085015161014083015260408501516060610160840152611b2a610180840182611714565b905082810360e0840152611b3e8186611714565b9050828103610100840152611b538185611714565b9c9b505050505050505050505050565b60e060020a634e487b7102600052601160045260246000fd5b60008219821115611b8f57611b8f611b63565b500190565b600060208284031215611ba657600080fd5b815180151581146112f257600080fd5b6000816000190483118215151615611bd057611bd0611b63565b500290565b600082611bf55760e060020a634e487b7102600052601260045260246000fd5b500490565b60008251611c0c8184602087016116e8565b919091019291505056fea2646970667358221220502ec4b2dbbe5099e4c1b284fb8b811fbbf618ebc145df99065b3862e32dc3d464736f6c634300080a0033",
  "immutableReferences": {},
  "source": "// SPDX-License-Identifier: MIT\n\npragma solidity ^0.8.0;\n\nimport \"./_ZorroControllerXChainBase.sol\";\n\nimport \"../interfaces/IZorroController.sol\";\n\nimport \"../interfaces/IZorroControllerXChain.sol\";\n\nimport \"./actions/ZorroControllerXChainActions.sol\";\n\ncontract ZorroControllerXChainDeposit is\n    IZorroControllerXChainDeposit,\n    ZorroControllerXChainBase\n{\n    /* Libraries */\n    using SafeMathUpgradeable for uint256;\n    using SafeERC20Upgradeable for IERC20Upgradeable;\n\n    /* Sending */\n\n    /// @notice Prepares and sends a cross chain deposit request. Takes care of necessary financial ops (transfer/locking USD)\n    /// @dev Requires appropriate fee to be paid via msg.value (use checkXChainDepositFee() above)\n    /// @param _zorroChainId The Zorro Chain ID (not the LayerZero one)\n    /// @param _pid The pool ID on the remote chain\n    /// @param _valueUSD The amount of  to deposit\n    /// @param _weeksCommitted Number of weeks to commit to a vault\n    /// @param _maxMarketMovement Acceptable degree of slippage on any transaction (e.g. 950 = 5%, 990 = 1% etc.)\n    /// @param _destWallet A valid address on the remote chain that can claim ownership\n    function sendXChainDepositRequest(\n        uint256 _zorroChainId,\n        uint256 _pid,\n        uint256 _valueUSD,\n        uint256 _weeksCommitted,\n        uint256 _maxMarketMovement,\n        bytes memory _destWallet\n    ) external payable nonReentrant {\n        // Require funds to be submitted with this message\n        require(msg.value > 0, \"No fees submitted\");\n\n        // Transfer USD into this contract\n        IERC20Upgradeable(defaultStablecoin).safeTransferFrom(\n            msg.sender,\n            address(this),\n            _valueUSD\n        );\n\n        // Check balances\n        uint256 _balUSD = IERC20Upgradeable(defaultStablecoin).balanceOf(\n            address(this)\n        );\n\n        // Generate payload\n        bytes memory _payload = ZorroControllerXChainActions(controllerActions)\n            .encodeXChainDepositPayload(\n                _pid,\n                _balUSD,\n                _weeksCommitted,\n                _maxMarketMovement,\n                msg.sender,\n                _destWallet\n            );\n\n        // Get the destination contract address on the remote chain\n        bytes memory _dstContract = controllerContractsMap[_zorroChainId];\n\n        // Call stargate to initiate bridge\n        _callStargateSwap(\n            StargateSwapPayload({\n                chainId: _zorroChainId,\n                qty: _balUSD,\n                dstContract: _dstContract,\n                payload: _payload,\n                maxMarketMovement: _maxMarketMovement\n            })\n        );\n    }\n\n    /* Receiving */\n\n    /// @notice Dummy func to allow .selector call above and guarantee typesafety for abi calls.\n    /// @dev Should never ever be actually called.\n    function receiveXChainDepositRequest(\n        uint256 _pid,\n        uint256 _valueUSD,\n        uint256 _weeksCommitted,\n        uint256 _maxMarketMovement,\n        bytes memory _originAccount,\n        address _destAccount\n    ) public {\n        // Revert to make sure this function never gets called\n        require(false, \"illegal dummy func call\");\n\n        // But still include the function call here anyway to satisfy type safety requirements in case there is a change\n        _receiveXChainDepositRequest(\n            _pid,\n            _valueUSD,\n            _weeksCommitted,\n            block.timestamp,\n            _maxMarketMovement,\n            _originAccount,\n            _destAccount\n        );\n    }\n\n    /// @notice Receives a cross chain deposit request from the contract layer of the XchainEndpoint contract\n    /// @dev For params, see _depositFullService() function declaration above\n    /// @param _pid The pool ID on the remote chain\n    /// @param _valueUSD The amount of USD to deposit\n    /// @param _weeksCommitted Number of weeks to commit to a vault\n    /// @param _maxMarketMovement Acceptable degree of slippage on any transaction (e.g. 950 = 5%, 990 = 1% etc.)\n    /// @param _originAccount The address on the origin chain to associate the deposit with (mandatory)\n    /// @param _destAccount The address on the current chain to additionally associate the deposit with (allows on-chain withdrawals of the deposit) (if not provided, will truncate origin address to uint160 i.e. Solidity address type)\n    function _receiveXChainDepositRequest(\n        uint256 _pid,\n        uint256 _valueUSD,\n        uint256 _weeksCommitted,\n        uint256 _vaultEnteredAt,\n        uint256 _maxMarketMovement,\n        bytes memory _originAccount,\n        address _destAccount\n    ) internal virtual {\n        // Approve spending\n        IERC20Upgradeable(defaultStablecoin).safeIncreaseAllowance(\n            currentChainController,\n            _valueUSD\n        );\n\n        // Call deposit function\n        IZorroControllerInvestment(currentChainController)\n            .depositFullServiceFromXChain(\n                _pid,\n                _destAccount,\n                _originAccount,\n                _valueUSD,\n                _weeksCommitted,\n                _vaultEnteredAt,\n                _maxMarketMovement\n            );\n    }\n}\n",
  "sourcePath": "/Users/kristophm/Documents/workspace/zorro-protocol/contracts/controllers/_ZorroControllerXChainDeposit.sol",
  "compiler": {
    "name": "solc",
    "version": "0.8.10+commit.fc410830.Emscripten.clang"
  },
  "schemaVersion": "3.4.10",
  "updatedAt": "2022-11-21T01:26:31.307Z",
  "devdoc": {
    "kind": "dev",
    "methods": {
      "owner()": {
        "details": "Returns the address of the current owner."
      },
      "receiveXChainDepositRequest(uint256,uint256,uint256,uint256,bytes,address)": {
        "details": "Should never ever be actually called."
      },
      "renounceOwnership()": {
        "details": "Leaves the contract without owner. It will not be possible to call `onlyOwner` functions anymore. Can only be called by the current owner. NOTE: Renouncing ownership will leave the contract without an owner, thereby removing any functionality that is only available to the owner."
      },
      "sendXChainDepositRequest(uint256,uint256,uint256,uint256,uint256,bytes)": {
        "details": "Requires appropriate fee to be paid via msg.value (use checkXChainDepositFee() above)",
        "params": {
          "_destWallet": "A valid address on the remote chain that can claim ownership",
          "_maxMarketMovement": "Acceptable degree of slippage on any transaction (e.g. 950 = 5%, 990 = 1% etc.)",
          "_pid": "The pool ID on the remote chain",
          "_valueUSD": "The amount of  to deposit",
          "_weeksCommitted": "Number of weeks to commit to a vault",
          "_zorroChainId": "The Zorro Chain ID (not the LayerZero one)"
        }
      },
      "setControllerContract(uint256,bytes)": {
        "params": {
          "_controller": "Bytes representation of smart contract address for cross chain contract",
          "_zorroChainId": "Zorro Chain ID"
        }
      },
      "setStargateDestPoolIds(uint256,uint16)": {
        "params": {
          "_stargatePoolId": "Stargate pool ID",
          "_zorroChainId": "Zorro chain ID"
        }
      },
      "setZorroChainToLZMap(uint256,uint16)": {
        "params": {
          "_lzChainId": "LayerZero Chain ID",
          "_zorroChainId": "Zorro chain ID"
        }
      },
      "transferOwnership(address)": {
        "details": "Transfers ownership of the contract to a new account (`newOwner`). Can only be called by the current owner."
      }
    },
    "version": 1
  },
  "userdoc": {
    "kind": "user",
    "methods": {
      "receiveXChainDepositRequest(uint256,uint256,uint256,uint256,bytes,address)": {
        "notice": "Dummy func to allow .selector call above and guarantee typesafety for abi calls."
      },
      "sendXChainDepositRequest(uint256,uint256,uint256,uint256,uint256,bytes)": {
        "notice": "Prepares and sends a cross chain deposit request. Takes care of necessary financial ops (transfer/locking USD)"
      },
      "setControllerContract(uint256,bytes)": {
        "notice": "Setter: Controller contract for each chain"
      },
      "setLayerZeroParams(address,uint256,address)": {
        "notice": "Setter: Set main LZ params"
      },
      "setStargateDestPoolIds(uint256,uint16)": {
        "notice": "Setter: Stargate dest pool IDs for USD asset"
      },
      "setZorroChainToLZMap(uint256,uint16)": {
        "notice": "Setter: LZ/Stargate params"
      }
    },
    "version": 1
  }
}