{
  "contractName": "ZorroControllerXChain",
  "abi": [
    {
      "anonymous": false,
      "inputs": [
        {
          "indexed": true,
          "internalType": "address",
          "name": "previousOwner",
          "type": "address"
        },
        {
          "indexed": true,
          "internalType": "address",
          "name": "newOwner",
          "type": "address"
        }
      ],
      "name": "OwnershipTransferred",
      "type": "event"
    },
    {
      "anonymous": false,
      "inputs": [
        {
          "indexed": true,
          "internalType": "uint256",
          "name": "_amountZOR",
          "type": "uint256"
        }
      ],
      "name": "RemovedSlashedRewards",
      "type": "event"
    },
    {
      "anonymous": false,
      "inputs": [
        {
          "indexed": true,
          "internalType": "uint256",
          "name": "_remoteChainId",
          "type": "uint256"
        },
        {
          "indexed": true,
          "internalType": "uint256",
          "name": "_buybackAmountUSDC",
          "type": "uint256"
        },
        {
          "indexed": true,
          "internalType": "uint256",
          "name": "_revShareAmountUSDC",
          "type": "uint256"
        }
      ],
      "name": "XChainDistributeEarnings",
      "type": "event"
    },
    {
      "anonymous": false,
      "inputs": [
        {
          "indexed": true,
          "internalType": "uint256",
          "name": "_pid",
          "type": "uint256"
        },
        {
          "indexed": true,
          "internalType": "address",
          "name": "_originRecipient",
          "type": "address"
        },
        {
          "indexed": true,
          "internalType": "uint256",
          "name": "_burnableZORRewards",
          "type": "uint256"
        },
        {
          "indexed": false,
          "internalType": "uint256",
          "name": "_trancheId",
          "type": "uint256"
        },
        {
          "indexed": false,
          "internalType": "uint256",
          "name": "_originChainId",
          "type": "uint256"
        }
      ],
      "name": "XChainRepatriation",
      "type": "event"
    },
    {
      "inputs": [
        {
          "internalType": "uint16",
          "name": "",
          "type": "uint16"
        }
      ],
      "name": "LZChainToZorroMap",
      "outputs": [
        {
          "internalType": "uint256",
          "name": "",
          "type": "uint256"
        }
      ],
      "stateMutability": "view",
      "type": "function",
      "constant": true
    },
    {
      "inputs": [
        {
          "internalType": "uint256",
          "name": "",
          "type": "uint256"
        }
      ],
      "name": "USDCToZorroLPPoolOtherTokenPath",
      "outputs": [
        {
          "internalType": "address",
          "name": "",
          "type": "address"
        }
      ],
      "stateMutability": "view",
      "type": "function",
      "constant": true
    },
    {
      "inputs": [
        {
          "internalType": "uint256",
          "name": "",
          "type": "uint256"
        }
      ],
      "name": "USDCToZorroPath",
      "outputs": [
        {
          "internalType": "address",
          "name": "",
          "type": "address"
        }
      ],
      "stateMutability": "view",
      "type": "function",
      "constant": true
    },
    {
      "inputs": [],
      "name": "ZORRO",
      "outputs": [
        {
          "internalType": "address",
          "name": "",
          "type": "address"
        }
      ],
      "stateMutability": "view",
      "type": "function",
      "constant": true
    },
    {
      "inputs": [
        {
          "internalType": "uint256",
          "name": "",
          "type": "uint256"
        }
      ],
      "name": "ZorroChainToLZMap",
      "outputs": [
        {
          "internalType": "uint16",
          "name": "",
          "type": "uint16"
        }
      ],
      "stateMutability": "view",
      "type": "function",
      "constant": true
    },
    {
      "inputs": [],
      "name": "accumulatedSlashedRewards",
      "outputs": [
        {
          "internalType": "uint256",
          "name": "",
          "type": "uint256"
        }
      ],
      "stateMutability": "view",
      "type": "function",
      "constant": true
    },
    {
      "inputs": [],
      "name": "burnAddress",
      "outputs": [
        {
          "internalType": "address",
          "name": "",
          "type": "address"
        }
      ],
      "stateMutability": "view",
      "type": "function",
      "constant": true
    },
    {
      "inputs": [],
      "name": "chainId",
      "outputs": [
        {
          "internalType": "uint256",
          "name": "",
          "type": "uint256"
        }
      ],
      "stateMutability": "view",
      "type": "function",
      "constant": true
    },
    {
      "inputs": [
        {
          "internalType": "uint256",
          "name": "",
          "type": "uint256"
        }
      ],
      "name": "chainTypes",
      "outputs": [
        {
          "internalType": "uint256",
          "name": "",
          "type": "uint256"
        }
      ],
      "stateMutability": "view",
      "type": "function",
      "constant": true
    },
    {
      "inputs": [
        {
          "internalType": "uint256",
          "name": "_chainId",
          "type": "uint256"
        },
        {
          "internalType": "bytes",
          "name": "_dstContract",
          "type": "bytes"
        },
        {
          "internalType": "uint256",
          "name": "_pid",
          "type": "uint256"
        },
        {
          "internalType": "uint256",
          "name": "_valueUSDC",
          "type": "uint256"
        },
        {
          "internalType": "uint256",
          "name": "_weeksCommitted",
          "type": "uint256"
        },
        {
          "internalType": "uint256",
          "name": "_maxMarketMovement",
          "type": "uint256"
        },
        {
          "internalType": "bytes",
          "name": "_destWallet",
          "type": "bytes"
        }
      ],
      "name": "checkXChainDepositFee",
      "outputs": [
        {
          "internalType": "uint256",
          "name": "",
          "type": "uint256"
        }
      ],
      "stateMutability": "view",
      "type": "function",
      "constant": true
    },
    {
      "inputs": [
        {
          "internalType": "uint256",
          "name": "_amountUSDCBuyback",
          "type": "uint256"
        },
        {
          "internalType": "uint256",
          "name": "_amountUSDCRevShare",
          "type": "uint256"
        },
        {
          "internalType": "uint256",
          "name": "_accSlashedRewards",
          "type": "uint256"
        },
        {
          "internalType": "uint256",
          "name": "_maxMarketMovement",
          "type": "uint256"
        }
      ],
      "name": "checkXChainDistributeEarningsFee",
      "outputs": [
        {
          "internalType": "uint256",
          "name": "",
          "type": "uint256"
        }
      ],
      "stateMutability": "view",
      "type": "function",
      "constant": true
    },
    {
      "inputs": [
        {
          "internalType": "uint256",
          "name": "_originChainId",
          "type": "uint256"
        },
        {
          "internalType": "uint256",
          "name": "_pid",
          "type": "uint256"
        },
        {
          "internalType": "uint256",
          "name": "_trancheId",
          "type": "uint256"
        },
        {
          "internalType": "bytes",
          "name": "_originRecipient",
          "type": "bytes"
        },
        {
          "internalType": "uint256",
          "name": "_burnableZORRewards",
          "type": "uint256"
        },
        {
          "internalType": "uint256",
          "name": "_rewardsDue",
          "type": "uint256"
        },
        {
          "internalType": "uint256",
          "name": "_gasForDestinationLZReceive",
          "type": "uint256"
        }
      ],
      "name": "checkXChainRepatriationFee",
      "outputs": [
        {
          "internalType": "uint256",
          "name": "",
          "type": "uint256"
        }
      ],
      "stateMutability": "view",
      "type": "function",
      "constant": true
    },
    {
      "inputs": [
        {
          "internalType": "uint256",
          "name": "_zorroChainId",
          "type": "uint256"
        },
        {
          "internalType": "uint256",
          "name": "_pid",
          "type": "uint256"
        },
        {
          "internalType": "uint256",
          "name": "_trancheId",
          "type": "uint256"
        },
        {
          "internalType": "uint256",
          "name": "_maxMarketMovement",
          "type": "uint256"
        },
        {
          "internalType": "uint256",
          "name": "_gasForDestinationLZReceive",
          "type": "uint256"
        }
      ],
      "name": "checkXChainWithdrawalFee",
      "outputs": [
        {
          "internalType": "uint256",
          "name": "",
          "type": "uint256"
        }
      ],
      "stateMutability": "view",
      "type": "function",
      "constant": true
    },
    {
      "inputs": [
        {
          "internalType": "uint256",
          "name": "",
          "type": "uint256"
        }
      ],
      "name": "controllerContractsMap",
      "outputs": [
        {
          "internalType": "bytes",
          "name": "",
          "type": "bytes"
        }
      ],
      "stateMutability": "view",
      "type": "function",
      "constant": true
    },
    {
      "inputs": [],
      "name": "currentChainController",
      "outputs": [
        {
          "internalType": "address",
          "name": "",
          "type": "address"
        }
      ],
      "stateMutability": "view",
      "type": "function",
      "constant": true
    },
    {
      "inputs": [],
      "name": "defaultStablecoin",
      "outputs": [
        {
          "internalType": "address",
          "name": "",
          "type": "address"
        }
      ],
      "stateMutability": "view",
      "type": "function",
      "constant": true
    },
    {
      "inputs": [
        {
          "internalType": "bytes",
          "name": "_payloadWithSig",
          "type": "bytes"
        }
      ],
      "name": "extractParamsPayload",
      "outputs": [
        {
          "internalType": "bytes",
          "name": "paramsPayload",
          "type": "bytes"
        }
      ],
      "stateMutability": "pure",
      "type": "function",
      "constant": true
    },
    {
      "inputs": [],
      "name": "homeChainId",
      "outputs": [
        {
          "internalType": "uint256",
          "name": "",
          "type": "uint256"
        }
      ],
      "stateMutability": "view",
      "type": "function",
      "constant": true
    },
    {
      "inputs": [],
      "name": "homeChainZorroController",
      "outputs": [
        {
          "internalType": "address",
          "name": "",
          "type": "address"
        }
      ],
      "stateMutability": "view",
      "type": "function",
      "constant": true
    },
    {
      "inputs": [],
      "name": "layerZeroEndpoint",
      "outputs": [
        {
          "internalType": "address",
          "name": "",
          "type": "address"
        }
      ],
      "stateMutability": "view",
      "type": "function",
      "constant": true
    },
    {
      "inputs": [
        {
          "internalType": "uint16",
          "name": "_srcChainId",
          "type": "uint16"
        },
        {
          "internalType": "bytes",
          "name": "_srcAddress",
          "type": "bytes"
        },
        {
          "internalType": "uint64",
          "name": "_nonce",
          "type": "uint64"
        },
        {
          "internalType": "bytes",
          "name": "_payload",
          "type": "bytes"
        }
      ],
      "name": "lzReceive",
      "outputs": [],
      "stateMutability": "nonpayable",
      "type": "function"
    },
    {
      "inputs": [],
      "name": "owner",
      "outputs": [
        {
          "internalType": "address",
          "name": "",
          "type": "address"
        }
      ],
      "stateMutability": "view",
      "type": "function",
      "constant": true
    },
    {
      "inputs": [],
      "name": "priceFeedLPPoolOtherToken",
      "outputs": [
        {
          "internalType": "contract AggregatorV3Interface",
          "name": "",
          "type": "address"
        }
      ],
      "stateMutability": "view",
      "type": "function",
      "constant": true
    },
    {
      "inputs": [],
      "name": "priceFeedZOR",
      "outputs": [
        {
          "internalType": "contract AggregatorV3Interface",
          "name": "",
          "type": "address"
        }
      ],
      "stateMutability": "view",
      "type": "function",
      "constant": true
    },
    {
      "inputs": [],
      "name": "publicPool",
      "outputs": [
        {
          "internalType": "address",
          "name": "",
          "type": "address"
        }
      ],
      "stateMutability": "view",
      "type": "function",
      "constant": true
    },
    {
      "inputs": [
        {
          "internalType": "uint256",
          "name": "_pid",
          "type": "uint256"
        },
        {
          "internalType": "uint256",
          "name": "_valueUSDC",
          "type": "uint256"
        },
        {
          "internalType": "uint256",
          "name": "_weeksCommitted",
          "type": "uint256"
        },
        {
          "internalType": "uint256",
          "name": "_maxMarketMovement",
          "type": "uint256"
        },
        {
          "internalType": "bytes",
          "name": "_originAccount",
          "type": "bytes"
        },
        {
          "internalType": "address",
          "name": "_destAccount",
          "type": "address"
        }
      ],
      "name": "receiveXChainDepositRequest",
      "outputs": [],
      "stateMutability": "nonpayable",
      "type": "function"
    },
    {
      "inputs": [
        {
          "internalType": "uint256",
          "name": "_remoteChainId",
          "type": "uint256"
        },
        {
          "internalType": "uint256",
          "name": "_amountUSDCBuyback",
          "type": "uint256"
        },
        {
          "internalType": "uint256",
          "name": "_amountUSDCRevShare",
          "type": "uint256"
        },
        {
          "internalType": "uint256",
          "name": "_accSlashedRewards",
          "type": "uint256"
        },
        {
          "internalType": "uint256",
          "name": "_maxMarketMovement",
          "type": "uint256"
        }
      ],
      "name": "receiveXChainDistributionRequest",
      "outputs": [],
      "stateMutability": "nonpayable",
      "type": "function"
    },
    {
      "inputs": [
        {
          "internalType": "uint256",
          "name": "_originChainId",
          "type": "uint256"
        },
        {
          "internalType": "uint256",
          "name": "_pid",
          "type": "uint256"
        },
        {
          "internalType": "uint256",
          "name": "_trancheId",
          "type": "uint256"
        },
        {
          "internalType": "bytes",
          "name": "_originRecipient",
          "type": "bytes"
        },
        {
          "internalType": "uint256",
          "name": "_burnableZORRewards",
          "type": "uint256"
        },
        {
          "internalType": "uint256",
          "name": "_rewardsDue",
          "type": "uint256"
        }
      ],
      "name": "receiveXChainRepatriationRequest",
      "outputs": [],
      "stateMutability": "nonpayable",
      "type": "function"
    },
    {
      "inputs": [
        {
          "internalType": "uint256",
          "name": "_originChainId",
          "type": "uint256"
        },
        {
          "internalType": "bytes",
          "name": "_originAccount",
          "type": "bytes"
        },
        {
          "internalType": "uint256",
          "name": "_pid",
          "type": "uint256"
        },
        {
          "internalType": "uint256",
          "name": "_trancheId",
          "type": "uint256"
        },
        {
          "internalType": "uint256",
          "name": "_maxMarketMovement",
          "type": "uint256"
        }
      ],
      "name": "receiveXChainWithdrawalRequest",
      "outputs": [],
      "stateMutability": "nonpayable",
      "type": "function"
    },
    {
      "inputs": [],
      "name": "renounceOwnership",
      "outputs": [],
      "stateMutability": "nonpayable",
      "type": "function"
    },
    {
      "inputs": [
        {
          "internalType": "uint256",
          "name": "_zorroChainId",
          "type": "uint256"
        },
        {
          "internalType": "uint256",
          "name": "_pid",
          "type": "uint256"
        },
        {
          "internalType": "uint256",
          "name": "_valueUSDC",
          "type": "uint256"
        },
        {
          "internalType": "uint256",
          "name": "_weeksCommitted",
          "type": "uint256"
        },
        {
          "internalType": "uint256",
          "name": "_maxMarketMovement",
          "type": "uint256"
        },
        {
          "internalType": "bytes",
          "name": "_destWallet",
          "type": "bytes"
        }
      ],
      "name": "sendXChainDepositRequest",
      "outputs": [],
      "stateMutability": "payable",
      "type": "function",
      "payable": true
    },
    {
      "inputs": [
        {
          "internalType": "uint256",
          "name": "_pid",
          "type": "uint256"
        },
        {
          "internalType": "uint256",
          "name": "_buybackAmountUSDC",
          "type": "uint256"
        },
        {
          "internalType": "uint256",
          "name": "_revShareAmountUSDC",
          "type": "uint256"
        },
        {
          "internalType": "uint256",
          "name": "_maxMarketMovement",
          "type": "uint256"
        }
      ],
      "name": "sendXChainDistributeEarningsRequest",
      "outputs": [],
      "stateMutability": "payable",
      "type": "function",
      "payable": true
    },
    {
      "inputs": [
        {
          "internalType": "uint256",
          "name": "_destZorroChainId",
          "type": "uint256"
        },
        {
          "internalType": "uint256",
          "name": "_pid",
          "type": "uint256"
        },
        {
          "internalType": "uint256",
          "name": "_trancheId",
          "type": "uint256"
        },
        {
          "internalType": "uint256",
          "name": "_maxMarketMovement",
          "type": "uint256"
        },
        {
          "internalType": "uint256",
          "name": "_gasForDestinationLZReceive",
          "type": "uint256"
        }
      ],
      "name": "sendXChainWithdrawalRequest",
      "outputs": [],
      "stateMutability": "payable",
      "type": "function",
      "payable": true
    },
    {
      "inputs": [
        {
          "internalType": "uint256",
          "name": "_zorroChainId",
          "type": "uint256"
        },
        {
          "internalType": "uint256",
          "name": "_chainType",
          "type": "uint256"
        }
      ],
      "name": "setChainType",
      "outputs": [],
      "stateMutability": "nonpayable",
      "type": "function"
    },
    {
      "inputs": [
        {
          "internalType": "uint256[]",
          "name": "_chainIds",
          "type": "uint256[]"
        }
      ],
      "name": "setChains",
      "outputs": [],
      "stateMutability": "nonpayable",
      "type": "function"
    },
    {
      "inputs": [
        {
          "internalType": "uint256",
          "name": "_zorroChainId",
          "type": "uint256"
        },
        {
          "internalType": "bytes",
          "name": "_controller",
          "type": "bytes"
        }
      ],
      "name": "setControllerContract",
      "outputs": [],
      "stateMutability": "nonpayable",
      "type": "function"
    },
    {
      "inputs": [
        {
          "internalType": "address[]",
          "name": "_contracts",
          "type": "address[]"
        }
      ],
      "name": "setKeyContracts",
      "outputs": [],
      "stateMutability": "nonpayable",
      "type": "function"
    },
    {
      "inputs": [
        {
          "internalType": "address",
          "name": "_stargateRouter",
          "type": "address"
        },
        {
          "internalType": "uint256",
          "name": "_stargateSwapPoolId",
          "type": "uint256"
        },
        {
          "internalType": "address",
          "name": "_layerZeroEndpoint",
          "type": "address"
        }
      ],
      "name": "setLayerZeroParams",
      "outputs": [],
      "stateMutability": "nonpayable",
      "type": "function"
    },
    {
      "inputs": [
        {
          "internalType": "address[]",
          "name": "_priceFeeds",
          "type": "address[]"
        }
      ],
      "name": "setPriceFeeds",
      "outputs": [],
      "stateMutability": "nonpayable",
      "type": "function"
    },
    {
      "inputs": [
        {
          "internalType": "uint256",
          "name": "_zorroChainId",
          "type": "uint256"
        },
        {
          "internalType": "uint16",
          "name": "_stargatePoolId",
          "type": "uint16"
        }
      ],
      "name": "setStargateDestPoolIds",
      "outputs": [],
      "stateMutability": "nonpayable",
      "type": "function"
    },
    {
      "inputs": [
        {
          "internalType": "address[]",
          "name": "_USDCToZorroPath",
          "type": "address[]"
        },
        {
          "internalType": "address[]",
          "name": "_USDCToZorroLPPoolOtherTokenPath",
          "type": "address[]"
        }
      ],
      "name": "setSwapPaths",
      "outputs": [],
      "stateMutability": "nonpayable",
      "type": "function"
    },
    {
      "inputs": [
        {
          "internalType": "address",
          "name": "_token",
          "type": "address"
        }
      ],
      "name": "setTokenUSDC",
      "outputs": [],
      "stateMutability": "nonpayable",
      "type": "function"
    },
    {
      "inputs": [
        {
          "internalType": "address[]",
          "name": "_tokens",
          "type": "address[]"
        }
      ],
      "name": "setTokens",
      "outputs": [],
      "stateMutability": "nonpayable",
      "type": "function"
    },
    {
      "inputs": [
        {
          "internalType": "address",
          "name": "_contract",
          "type": "address"
        }
      ],
      "name": "setUniRouterAddress",
      "outputs": [],
      "stateMutability": "nonpayable",
      "type": "function"
    },
    {
      "inputs": [
        {
          "internalType": "uint256",
          "name": "_zorroChainId",
          "type": "uint256"
        },
        {
          "internalType": "uint16",
          "name": "_lzChainId",
          "type": "uint16"
        }
      ],
      "name": "setZorroChainToLZMap",
      "outputs": [],
      "stateMutability": "nonpayable",
      "type": "function"
    },
    {
      "inputs": [
        {
          "internalType": "address",
          "name": "_token",
          "type": "address"
        }
      ],
      "name": "setZorroLPPoolOtherToken",
      "outputs": [],
      "stateMutability": "nonpayable",
      "type": "function"
    },
    {
      "inputs": [
        {
          "internalType": "address",
          "name": "_contract",
          "type": "address"
        }
      ],
      "name": "setZorroStakingVault",
      "outputs": [],
      "stateMutability": "nonpayable",
      "type": "function"
    },
    {
      "inputs": [
        {
          "internalType": "uint16",
          "name": "_chainId",
          "type": "uint16"
        },
        {
          "internalType": "bytes",
          "name": "_srcAddress",
          "type": "bytes"
        },
        {
          "internalType": "uint256",
          "name": "_nonce",
          "type": "uint256"
        },
        {
          "internalType": "address",
          "name": "_token",
          "type": "address"
        },
        {
          "internalType": "uint256",
          "name": "amountLD",
          "type": "uint256"
        },
        {
          "internalType": "bytes",
          "name": "payload",
          "type": "bytes"
        }
      ],
      "name": "sgReceive",
      "outputs": [],
      "stateMutability": "nonpayable",
      "type": "function"
    },
    {
      "inputs": [
        {
          "internalType": "uint256",
          "name": "",
          "type": "uint256"
        }
      ],
      "name": "stargateDestPoolIds",
      "outputs": [
        {
          "internalType": "uint256",
          "name": "",
          "type": "uint256"
        }
      ],
      "stateMutability": "view",
      "type": "function",
      "constant": true
    },
    {
      "inputs": [],
      "name": "stargateRouter",
      "outputs": [
        {
          "internalType": "address",
          "name": "",
          "type": "address"
        }
      ],
      "stateMutability": "view",
      "type": "function",
      "constant": true
    },
    {
      "inputs": [],
      "name": "stargateSwapPoolId",
      "outputs": [
        {
          "internalType": "uint256",
          "name": "",
          "type": "uint256"
        }
      ],
      "stateMutability": "view",
      "type": "function",
      "constant": true
    },
    {
      "inputs": [],
      "name": "tokenUSDC",
      "outputs": [
        {
          "internalType": "address",
          "name": "",
          "type": "address"
        }
      ],
      "stateMutability": "view",
      "type": "function",
      "constant": true
    },
    {
      "inputs": [
        {
          "internalType": "address",
          "name": "newOwner",
          "type": "address"
        }
      ],
      "name": "transferOwnership",
      "outputs": [],
      "stateMutability": "nonpayable",
      "type": "function"
    },
    {
      "inputs": [],
      "name": "uniRouterAddress",
      "outputs": [
        {
          "internalType": "address",
          "name": "",
          "type": "address"
        }
      ],
      "stateMutability": "view",
      "type": "function",
      "constant": true
    },
    {
      "inputs": [],
      "name": "zorroLPPoolOtherToken",
      "outputs": [
        {
          "internalType": "address",
          "name": "",
          "type": "address"
        }
      ],
      "stateMutability": "view",
      "type": "function",
      "constant": true
    },
    {
      "inputs": [],
      "name": "zorroStakingVault",
      "outputs": [
        {
          "internalType": "address",
          "name": "",
          "type": "address"
        }
      ],
      "stateMutability": "view",
      "type": "function",
      "constant": true
    },
    {
      "inputs": [
        {
          "components": [
            {
              "internalType": "address",
              "name": "defaultStablecoin",
              "type": "address"
            },
            {
              "internalType": "address",
              "name": "ZORRO",
              "type": "address"
            },
            {
              "internalType": "address",
              "name": "zorroLPPoolOtherToken",
              "type": "address"
            },
            {
              "internalType": "address",
              "name": "zorroStakingVault",
              "type": "address"
            },
            {
              "internalType": "address",
              "name": "uniRouterAddress",
              "type": "address"
            },
            {
              "internalType": "address",
              "name": "homeChainZorroController",
              "type": "address"
            },
            {
              "internalType": "address",
              "name": "currentChainController",
              "type": "address"
            },
            {
              "internalType": "address",
              "name": "publicPool",
              "type": "address"
            },
            {
              "components": [
                {
                  "internalType": "uint256",
                  "name": "chainId",
                  "type": "uint256"
                },
                {
                  "internalType": "uint256",
                  "name": "homeChainId",
                  "type": "uint256"
                },
                {
                  "internalType": "uint256[]",
                  "name": "ZorroChainIDs",
                  "type": "uint256[]"
                },
                {
                  "internalType": "bytes[]",
                  "name": "controllerContracts",
                  "type": "bytes[]"
                },
                {
                  "internalType": "uint16[]",
                  "name": "LZChainIDs",
                  "type": "uint16[]"
                },
                {
                  "internalType": "uint256[]",
                  "name": "stargateDestPoolIds",
                  "type": "uint256[]"
                },
                {
                  "internalType": "address",
                  "name": "stargateRouter",
                  "type": "address"
                },
                {
                  "internalType": "address",
                  "name": "layerZeroEndpoint",
                  "type": "address"
                },
                {
                  "internalType": "uint256",
                  "name": "stargateSwapPoolId",
                  "type": "uint256"
                }
              ],
              "internalType": "struct ZorroControllerXChain.ZorroControllerXChainBridgeParams",
              "name": "bridge",
              "type": "tuple"
            },
            {
              "components": [
                {
                  "internalType": "address[]",
                  "name": "USDCToZorroPath",
                  "type": "address[]"
                },
                {
                  "internalType": "address[]",
                  "name": "USDCToZorroLPPoolOtherTokenPath",
                  "type": "address[]"
                }
              ],
              "internalType": "struct ZorroControllerXChain.ZorroControllerXChainSwapParams",
              "name": "swaps",
              "type": "tuple"
            },
            {
              "components": [
                {
                  "internalType": "address",
                  "name": "priceFeedZOR",
                  "type": "address"
                },
                {
                  "internalType": "address",
                  "name": "priceFeedLPPoolOtherToken",
                  "type": "address"
                }
              ],
              "internalType": "struct ZorroControllerXChain.ZorroControllerXChainPriceFeedParams",
              "name": "priceFeeds",
              "type": "tuple"
            }
          ],
          "internalType": "struct ZorroControllerXChain.ZorroControllerXChainInit",
          "name": "_initValue",
          "type": "tuple"
        }
      ],
      "name": "initialize",
      "outputs": [],
      "stateMutability": "nonpayable",
      "type": "function"
    }
  ],
  "bytecode": "0x608060405234801561001057600080fd5b506155ce80620000216000396000f3fe6080604052600436106103755760003560e01c806379777d81116101d1578063ab8236f311610102578063cd01af48116100a0578063ebfba7c41161006f578063ebfba7c414610a34578063ef12696714610a54578063f2fde38b14610a6a578063fc39a29e14610a8a57600080fd5b8063cd01af48146109be578063cdabd371146109de578063e53ac0df146109fe578063e940f6e114610a1e57600080fd5b8063c86d4040116100dc578063c86d404014610943578063c8ba44b514610963578063c9522cf11461097e578063c9f363c41461099e57600080fd5b8063ab8236f3146108e3578063b22f325114610903578063b61bb80a1461092357600080fd5b80638f426e2c1161016f5780639a8a0592116101495780639a8a05921461087a578063a2df085c14610890578063a4d2b083146108a3578063a9e56f3c146108c357600080fd5b80638f426e2c1461081a578063959334f41461083a5780639a448c0c1461085a57600080fd5b80638b5694d6116101ab5780638b5694d61461078f5780638c157db2146107af5780638d6ffd6a146107cf5780638da5cb5b146107fc57600080fd5b806379777d811461072f5780637bd455221461074f5780637f633ea81461076f57600080fd5b80634bf76174116102ab578063625adaf211610249578063693a090b11610223578063693a090b146106c45780636ca8bd65146106e457806370d5ae0514610704578063715018a61461071a57600080fd5b8063625adaf214610669578063668ababb14610689578063692d8b8b146106a957600080fd5b8063593af9fe11610285578063593af9fe146105e15780635da79d631461060e578063610d71b71461062e57806361b729dc1461064e57600080fd5b80634bf761741461058b5780635175ce1b146105ab5780635790f599146105cb57600080fd5b806325b43830116103185780633ad5875c116102f25780633ad5875c14610501578063459f475314610514578063464e3c8b14610558578063487c38681461056b57600080fd5b806325b4383014610494578063293da9d4146104b45780633a629121146104e157600080fd5b8063104a613211610354578063104a6132146103f957806313a2e8801461041957806315230ae614610439578063219b38b81461045957600080fd5b80621d35671461037a57806307968db11461039c5780630a34e1a4146103d9575b600080fd5b34801561038657600080fd5b5061039a610395366004613c3f565b610aaa565b005b3480156103a857600080fd5b50609a546103bc906001600160a01b031681565b6040516001600160a01b0390911681526020015b60405180910390f35b3480156103e557600080fd5b5061039a6103f4366004613cd8565b610c89565b34801561040557600080fd5b506103bc610414366004613cfa565b610cc5565b34801561042557600080fd5b5061039a610434366004613d13565b610cef565b34801561044557600080fd5b5060a2546103bc906001600160a01b031681565b34801561046557600080fd5b50610486610474366004613cfa565b60996020526000908152604090205481565b6040519081526020016103d0565b3480156104a057600080fd5b5061039a6104af366004613d5e565b610d38565b3480156104c057600080fd5b506104866104cf366004613d99565b609d6020526000908152604090205481565b3480156104ed57600080fd5b506104866104fc366004613d5e565b610d87565b61039a61050f366004613d5e565b610e6a565b34801561052057600080fd5b5061054561052f366004613cfa565b609c6020526000908152604090205461ffff1681565b60405161ffff90911681526020016103d0565b61039a610566366004613db4565b610fbf565b34801561057757600080fd5b5061039a610586366004613e2a565b6112aa565b34801561059757600080fd5b5061039a6105a6366004613e2a565b611368565b3480156105b757600080fd5b5061039a6105c6366004613e6b565b61146e565b3480156105d757600080fd5b5061048660985481565b3480156105ed57600080fd5b506106016105fc366004613cfa565b6114b1565b6040516103d09190613f2e565b34801561061a57600080fd5b5061039a610629366004613f61565b61154b565b34801561063a57600080fd5b5061039a610649366004614428565b611597565b34801561065a57600080fd5b5061039a6104af36600461455c565b34801561067557600080fd5b5061039a610684366004613e2a565b6118d2565b34801561069557600080fd5b5060a3546103bc906001600160a01b031681565b3480156106b557600080fd5b5061039a6104af3660046145bd565b3480156106d057600080fd5b5060aa546103bc906001600160a01b031681565b3480156106f057600080fd5b5061039a6106ff366004613f61565b611998565b34801561071057600080fd5b506103bc61dead81565b34801561072657600080fd5b5061039a6119e4565b34801561073b57600080fd5b5060ae546103bc906001600160a01b031681565b34801561075b57600080fd5b5061039a61076a366004614633565b611a1a565b34801561077b57600080fd5b5061039a61078a366004614675565b611a78565b34801561079b57600080fd5b5061039a6107aa366004614675565b611ad1565b3480156107bb57600080fd5b5060a0546103bc906001600160a01b031681565b3480156107db57600080fd5b506104866107ea366004613cfa565b609e6020526000908152604090205481565b34801561080857600080fd5b506033546001600160a01b03166103bc565b34801561082657600080fd5b506104866108353660046146a1565b611b14565b34801561084657600080fd5b5061039a610855366004613f61565b611c9d565b34801561086657600080fd5b506103bc610875366004613cfa565b611ce9565b34801561088657600080fd5b5061048660a45481565b61039a61089e366004614715565b611cf9565b3480156108af57600080fd5b5060a9546103bc906001600160a01b031681565b3480156108cf57600080fd5b506097546103bc906001600160a01b031681565b3480156108ef57600080fd5b5061039a6108fe366004614780565b611ed7565b34801561090f57600080fd5b5060ad546103bc906001600160a01b031681565b34801561092f57600080fd5b50609f546103bc906001600160a01b031681565b34801561094f57600080fd5b5060a7546103bc906001600160a01b031681565b34801561096f57600080fd5b5061039a6104af36600461480d565b34801561098a57600080fd5b50610486610999366004613db4565b6121a2565b3480156109aa57600080fd5b506104866109b9366004614878565b61229f565b3480156109ca57600080fd5b5061039a6109d9366004613e2a565b61236d565b3480156109ea57600080fd5b506106016109f936600461490b565b6123d9565b348015610a0a57600080fd5b5061039a610a19366004613f61565b612424565b348015610a2a57600080fd5b5061048660a65481565b348015610a4057600080fd5b5060a8546103bc906001600160a01b031681565b348015610a6057600080fd5b5061048660a55481565b348015610a7657600080fd5b5061039a610a85366004613f61565b612470565b348015610a9657600080fd5b5060a1546103bc906001600160a01b031681565b8585858080601f016020809104026020016040519081016040528093929190818152602001838380828437600092018290525061ffff86168152609d6020908152604080832054875188840120818552609b909352928190209051929550909350610b1692509061497b565b604051809103902014610b6c5760405162461bcd60e51b81526020600482015260196024820152782ab73932b1b7b3903c31b430b4b71031b7b73a3937b63632b960391b60448201526064015b60405180910390fd5b6000610b788587614a17565b60405163cdabd37160e01b8152909150600090309063cdabd37190610ba3908a908a90600401614a47565b600060405180830381865afa158015610bc0573d6000803e3d6000fd5b505050506040513d6000823e601f3d908101601f19168201604052610be89190810190614abb565b905063186dca7760e21b6001600160e01b031983161415610c4057600080600080600085806020019051810190610c1f9190614aef565b94509450945094509450610c36858585858561250b565b5050505050610c7c565b60405162461bcd60e51b8152602060048201526011602482015270556e7265636f676e697a65642066756e6360781b6044820152606401610b63565b5050505050505050505050565b6033546001600160a01b03163314610cb35760405162461bcd60e51b8152600401610b6390614b50565b6000918252609e602052604090912055565b60ab8181548110610cd557600080fd5b6000918252602090912001546001600160a01b0316905081565b6033546001600160a01b03163314610d195760405162461bcd60e51b8152600401610b6390614b50565b6000838152609b60205260409020610d32908383613a2b565b50505050565b60405162461bcd60e51b815260206004820152601760248201527f696c6c6567616c2064756d6d792066756e632063616c6c0000000000000000006044820152606401610b63565b5050505050565b6000858152609c602090815260408083205460a454915161ffff909116928492610dd0929091610db991339101614b85565b6040516020818303038152906040528989896127d8565b90506000610ddd85612840565b609a5460405163040a7bb160e41b81529192506000916001600160a01b03909116906340a7bb1090610e1b9087903090889087908990600401614ba2565b6040805180830381865afa158015610e37573d6000803e3d6000fd5b505050506040513d601f19601f82011682018060405250810190610e5b9190614bf6565b509a9950505050505050505050565b60026065541415610e8d5760405162461bcd60e51b8152600401610b6390614c1a565b600260655560a454604051600091610ec491610ead903390602001614b85565b6040516020818303038152906040528787876127d8565b6000878152609b6020526040812080549293509091610ee290614940565b80601f0160208091040260200160405190810160405280929190818152602001828054610f0e90614940565b8015610f5b5780601f10610f3057610100808354040283529160200191610f5b565b820191906000526020600020905b815481529060010190602001808311610f3e57829003601f168201915b50505050509050610fb16040518060c00160405280898152602001838152602001848152602001336001600160a01b0316815260200160006001600160a01b03168152602001610faa86612840565b9052612869565b505060016065555050505050565b60026065541415610fe25760405162461bcd60e51b8152600401610b6390614c1a565b600260655560a254604051631526fe2760e01b81526004810186905285916000916001600160a01b0390911690631526fe279060240160c060405180830381865afa158015611035573d6000803e3d6000fd5b505050506040513d601f19601f820116820180604052508101906110599190614c51565b95505050505050806001600160a01b03166110713390565b6001600160a01b0316146110b85760405162461bcd60e51b815260206004820152600e60248201526d1bdb9b1e481c9959c81d985d5b1d60921b6044820152606401610b63565b600034116110fc5760405162461bcd60e51b8152602060048201526011602482015270139bc81999595cc81cdd589b5a5d1d1959607a1b6044820152606401610b63565b60006111088686612904565b609f54909150611122906001600160a01b03163083612919565b609f5461113a906001600160a01b03163330846129fe565b609f546040516370a0823160e01b81523060048201526000916001600160a01b0316906370a0823190602401602060405180830381865afa158015611183573d6000803e3d6000fd5b505050506040513d601f19601f820116820180604052508101906111a79190614ca3565b905060006111b3612a36565b905060006111c660a4548a8a858b612a6c565b60a4546000908152609b60205260408120805492935090916111e790614940565b80601f016020809104026020016040519081016040528092919081815260200182805461121390614940565b80156112605780601f1061123557610100808354040283529160200191611260565b820191906000526020600020905b81548152906001019060200180831161124357829003601f168201915b505050505090506112986040518060a0016040528060a55481526020018681526020018381526020018481526020018a815250612aa8565b50506001606555505050505050505050565b6033546001600160a01b031633146112d45760405162461bcd60e51b8152600401610b6390614b50565b818160008181106112e7576112e7614cbc565b90506020020160208101906112fc9190613f61565b60ad80546001600160a01b0319166001600160a01b03929092169190911790558181600181811061132f5761132f614cbc565b90506020020160208101906113449190613f61565b60ae80546001600160a01b0319166001600160a01b03929092169190911790555050565b6033546001600160a01b031633146113925760405162461bcd60e51b8152600401610b6390614b50565b818160008181106113a5576113a5614cbc565b90506020020160208101906113ba9190613f61565b60a180546001600160a01b0319166001600160a01b0392909216919091179055818160018181106113ed576113ed614cbc565b90506020020160208101906114029190613f61565b60a280546001600160a01b0319166001600160a01b03929092169190911790558181600281811061143557611435614cbc565b905060200201602081019061144a9190613f61565b60a380546001600160a01b0319166001600160a01b03929092169190911790555050565b6033546001600160a01b031633146114985760405162461bcd60e51b8152600401610b6390614b50565b6114a460ab8585613aaf565b50610d8060ac8383613aaf565b609b60205260009081526040902080546114ca90614940565b80601f01602080910402602001604051908101604052809291908181526020018280546114f690614940565b80156115435780601f1061151857610100808354040283529160200191611543565b820191906000526020600020905b81548152906001019060200180831161152657829003601f168201915b505050505081565b6033546001600160a01b031633146115755760405162461bcd60e51b8152600401610b6390614b50565b60aa80546001600160a01b0319166001600160a01b0392909216919091179055565b600054610100900460ff166115b25760005460ff16156115b6565b303b155b6116195760405162461bcd60e51b815260206004820152602e60248201527f496e697469616c697a61626c653a20636f6e747261637420697320616c72656160448201526d191e481a5b9a5d1a585b1a5e995960921b6064820152608401610b63565b600054610100900460ff1615801561163b576000805461ffff19166101011790555b6101008281015160c0810151609780546001600160a01b03199081166001600160a01b03938416179091559282015160985560e090910151609a8054909316911617905560005b82610100015160400151518161ffff1610156117f6576000836101000151604001518261ffff16815181106116b9576116b9614cbc565b60200260200101519050836101000151606001518261ffff16815181106116e2576116e2614cbc565b6020026020010151609b60008381526020019081526020016000209080519060200190611710929190613b02565b50836101000151608001518261ffff168151811061173057611730614cbc565b6020026020010151609c600083815260200190815260200160002060006101000a81548161ffff021916908361ffff16021790555080609d6000866101000151608001518561ffff168151811061178957611789614cbc565b602002602001015161ffff1661ffff1681526020019081526020016000208190555083610100015160a001518261ffff16815181106117ca576117ca614cbc565b602090810291909101810151600092835260999091526040909120556117ef81614ce8565b9050611682565b50604082015160a880546001600160a01b039283166001600160a01b031991821617909155606084015160a98054918416918316919091179055608084015160aa805491909316911617905561012082015151805161185d9160ab91602090910190613b76565b50610120820151602090810151805161187a9260ac920190613b76565b50610140820151805160ad80546001600160a01b03199081166001600160a01b039384161790915560209092015160ae805490931691161790556118bc612b82565b80156118ce576000805461ff00191690555b5050565b6033546001600160a01b031633146118fc5760405162461bcd60e51b8152600401610b6390614b50565b8181600081811061190f5761190f614cbc565b90506020020160208101906119249190613f61565b609f80546001600160a01b0319166001600160a01b03929092169190911790558181600181811061195757611957614cbc565b905060200201602081019061196c9190613f61565b60a080546001600160a01b0319166001600160a01b03929092169190911790555050565b505050505050565b6033546001600160a01b031633146119c25760405162461bcd60e51b8152600401610b6390614b50565b60a980546001600160a01b0319166001600160a01b0392909216919091179055565b6033546001600160a01b03163314611a0e5760405162461bcd60e51b8152600401610b6390614b50565b611a186000612c1b565b565b6033546001600160a01b03163314611a445760405162461bcd60e51b8152600401610b6390614b50565b609780546001600160a01b039485166001600160a01b031991821617909155609892909255609a8054919093169116179055565b6033546001600160a01b03163314611aa25760405162461bcd60e51b8152600401610b6390614b50565b6000828152609c60209081526040808320805461ffff90951661ffff1990951685179055928252609d90522055565b6033546001600160a01b03163314611afb5760405162461bcd60e51b8152600401610b6390614b50565b60009182526099602052604090912061ffff9091169055565b6040805160608082018352600080835260208301819052928201526000611b3f8a8a8a8a8a8a612c6d565b60008b8152609b6020526040812080549293509091611b5d90614940565b80601f0160208091040260200160405190810160405280929190818152602001828054611b8990614940565b8015611bd65780601f10611bab57610100808354040283529160200191611bd6565b820191906000526020600020905b815481529060010190602001808311611bb957829003601f168201915b505050505090506000609760009054906101000a90046001600160a01b03166001600160a01b0316630a512369609c60008f815260200190815260200160002060009054906101000a900461ffff1660018587896040518663ffffffff1660e01b8152600401611c4a959493929190614d33565b6040805180830381865afa158015611c66573d6000803e3d6000fd5b505050506040513d601f19601f82011682018060405250810190611c8a9190614bf6565b509450505050505b979650505050505050565b6033546001600160a01b03163314611cc75760405162461bcd60e51b8152600401610b6390614b50565b60a880546001600160a01b0319166001600160a01b0392909216919091179055565b60ac8181548110610cd557600080fd5b60026065541415611d1c5760405162461bcd60e51b8152600401610b6390614c1a565b600260655534611d625760405162461bcd60e51b8152602060048201526011602482015270139bc81999595cc81cdd589b5a5d1d1959607a1b6044820152606401610b63565b609f54611d7a906001600160a01b03163330876129fe565b609f546040516370a0823160e01b81523060048201526000916001600160a01b0316906370a0823190602401602060405180830381865afa158015611dc3573d6000803e3d6000fd5b505050506040513d601f19601f82011682018060405250810190611de79190614ca3565b90506000611dfa88888488883389612cd8565b6000898152609b6020526040812080549293509091611e1890614940565b80601f0160208091040260200160405190810160405280929190818152602001828054611e4490614940565b8015611e915780601f10611e6657610100808354040283529160200191611e91565b820191906000526020600020905b815481529060010190602001808311611e7457829003601f168201915b50505050509050611ec76040518060a001604052808b815260200185815260200183815260200184815260200187815250612aa8565b5050600160655550505050505050565b61ffff86166000908152609d60209081526040808320548851838a0120818552609b9093529281902090518993899390929091611f14919061497b565b604051809103902014611f655760405162461bcd60e51b81526020600482015260196024820152782ab73932b1b7b3903c31b430b4b71031b7b73a3937b63632b960391b6044820152606401610b63565b6040516370a0823160e01b81523060048201526000906001600160a01b038816906370a0823190602401602060405180830381865afa158015611fac573d6000803e3d6000fd5b505050506040513d601f19601f82011682018060405250810190611fd09190614ca3565b9050808611156120195760405162461bcd60e51b8152602060048201526014602482015273185b5bdd5b9d131108195e18d959591cc818985b60621b6044820152606401610b63565b600061202486614d7f565b60405163cdabd37160e01b8152909150600090309063cdabd3719061204d908a90600401613f2e565b600060405180830381865afa15801561206a573d6000803e3d6000fd5b505050506040513d6000823e601f3d908101601f191682016040526120929190810190614abb565b905063692d8b8b60e01b6001600160e01b0319831614156120ed576000806000806000858060200190518101906120c99190614db6565b95509550955095505094506120e3858e8642878787612bb1565b5050505050612194565b63c8ba44b560e01b6001600160e01b03198316141561214857600080600080600080868060200190518101906121239190614e1e565b95509550955095509550955061213d868686868686612dc2565b505050505050612194565b63025b438360e41b6001600160e01b031983161415610c405760008060008060008580602001905181019061217d9190614e89565b945094509450945094506120e385858585856126dc565b505050505050505050505050565b60408051606080820183526000808352602083018190529282015260006121ce60a45488888888612a6c565b60a1546040519192506000916121f0916001600160a01b031690602001614b85565b60408051601f1981840301815282825260975460a5546000908152609c60205292832054630a51236960e01b855291945091926001600160a01b0390921691630a512369916122519161ffff90911690600190879089908b90600401614d33565b6040805180830381865afa15801561226d573d6000803e3d6000fd5b505050506040513d601f19601f820116820180604052508101906122919190614bf6565b509998505050505050505050565b60408051606080820183526000808352602083018190529282015260006122cb8a89898989338a612cd8565b60975460008c8152609c6020526040808220549051630a51236960e01b815293945090926001600160a01b0390921691630a5123699161231d9161ffff909116906001908f9088908a90600401614d33565b6040805180830381865afa158015612339573d6000803e3d6000fd5b505050506040513d601f19601f8201168201806040525081019061235d9190614bf6565b509b9a5050505050505050505050565b6033546001600160a01b031633146123975760405162461bcd60e51b8152600401610b6390614b50565b818160008181106123aa576123aa614cbc565b602002919091013560a45550818160018181106123c9576123c9614cbc565b602002919091013560a555505050565b60606123e88260048186614ec9565b8080601f016020809104026020016040519081016040528093929190818152602001838380828437600092019190915250929695505050505050565b6033546001600160a01b0316331461244e5760405162461bcd60e51b8152600401610b6390614b50565b60a780546001600160a01b0319166001600160a01b0392909216919091179055565b6033546001600160a01b0316331461249a5760405162461bcd60e51b8152600401610b6390614b50565b6001600160a01b0381166124ff5760405162461bcd60e51b815260206004820152602660248201527f4f776e61626c653a206e6577206f776e657220697320746865207a65726f206160448201526564647265737360d01b6064820152608401610b63565b61250881612c1b565b50565b60a254604051632e31283d60e01b81526000916001600160a01b031690632e31283d9061254090879089908890600401614ef3565b602060405180830381865afa15801561255d573d6000803e3d6000fd5b505050506040513d601f19601f820116820180604052508101906125819190614f1c565b60a25460405163102af63f60e21b815291925060009182916001600160a01b0316906340abd8fc906125c19086908b908b908b9088908c90600401614f39565b6080604051808303816000875af11580156125e0573d6000803e3d6000fd5b505050506040513d601f19601f820116820180604052508101906126049190614f82565b50609f546040516370a0823160e01b8152306004820152929550909350600092506001600160a01b0316906370a0823190602401602060405180830381865afa158015612655573d6000803e3d6000fd5b505050506040513d601f19601f820116820180604052508101906126799190614ca3565b9050600081116126c15760405162461bcd60e51b81526020600482015260136024820152724e6f7468696e6720746f20776974686472617760681b6044820152606401610b63565b6126d18988888b8588888c612f26565b505050505050505050565b60006126e88585612904565b609f546040516370a0823160e01b81523060048201529192506000916001600160a01b03909116906370a0823190602401602060405180830381865afa158015612736573d6000803e3d6000fd5b505050506040513d601f19601f8201168201806040525081019061275a9190614ca3565b905060006127728361276c848a613003565b9061300f565b905061277e818561301b565b600061278e8461276c858a613003565b905061279a81866133bb565b80828a7f4bda9eedb6fd5c584b11e8c64fc79bbe5c7faf6da945a3c7e0de361b6ee5a1bd60405160405180910390a485156126d1576126d186613497565b60405160609063186dca7760e21b906000906128009089908990899089908990602001614fb8565b60405160208183030381529060405290508181604051602001612824929190614fee565b6040516020818303038152906040529250505095945050505050565b60408051600160f01b602082015260228082019390935281518082039093018352604201905290565b80516000908152609c602090815260409182902054609a549184015183850151606086015160a0870151955162c5803160e81b815261ffff909416956001600160a01b039095169463c58031009434946128ce9489949193909282919060040161501f565b6000604051808303818588803b1580156128e757600080fd5b505af11580156128fb573d6000803e3d6000fd5b50505050505050565b60006129108284615086565b90505b92915050565b604051636eb1769f60e11b81523060048201526001600160a01b038381166024830152600091839186169063dd62ed3e90604401602060405180830381865afa15801561296a573d6000803e3d6000fd5b505050506040513d601f19601f8201168201806040525081019061298e9190614ca3565b6129989190615086565b6040516001600160a01b038516602482015260448101829052909150610d3290859063095ea7b360e01b906064015b60408051601f198184030181529190526020810180516001600160e01b03166001600160e01b0319909316929092179091526134fb565b6040516001600160a01b0380851660248301528316604482015260648101829052610d329085906323b872dd60e01b906084016129c7565b60a65460405181907f18bd4bd6372d39482d375f68791749755bdb38e8768acbfb6af999cef1adc6e090600090a2600060a65590565b604080516020810187905290810185905260608082018590526080820184905260a082018390529063025b438360e41b9060009060c001612800565b6097546020820151609f54612acb926001600160a01b0391821692911690612919565b612aef60405180606001604052806000815260200160008152602001606081525090565b60975482516000908152609c6020908152604080832054609854875185526099845291909320549186015160808701516001600160a01b0390951694639fbf10fc94349461ffff90911693929091339190612b53906103e89061276c908490613003565b898b604001518c606001516040518b63ffffffff1660e01b81526004016128ce9998979695949392919061509e565b600054610100900460ff16612ba95760405162461bcd60e51b8152600401610b639061511b565b611a186135cd565b60a2546040516333fce37560e21b81526001600160a01b039091169063cff38dd490612bed908a90859087908c908c908c908c90600401615166565b600060405180830381600087803b158015612c0757600080fd5b505af1158015610c7c573d6000803e3d6000fd5b603380546001600160a01b038381166001600160a01b0319831681179093556040519116919082907f8be0079c531659141344cd1fd0a4f28419497f9722a3daafe3b4186f6b6457e090600090a35050565b60405160609063c8ba44b560e01b90600090612c97908a908a908a908a908a908a906020016151b6565b60405160208183030381529060405290508181604051602001612cbb929190614fee565b604051602081830303815290604052925050509695505050505050565b6000878152609e6020526040902054606090612d7857600063692d8b8b60e01b905060008888888888604051602001612d119190614b85565b604051602081830303815290604052612d2b896014015190565b604051602001612d40969594939291906151f0565b60405160208183030381529060405290508181604051602001612d64929190614fee565b604051602081830303815290604052925050505b6000815111611c925760405162461bcd60e51b8152602060048201526016602482015275125b9d985b1a59081e18da185a5b881c185e5b1bd85960521b6044820152606401610b63565b8183806020019051810190612dd79190614f1c565b6001600160a01b0316867f6f6e500192a591cd4df1823b5be9f8681a54e919ca055745a13b8715ee3dfb81878a604051612e1b929190918252602082015260400190565b60405180910390a460a05483516001600160a01b03909116906340c10f1990612e4d9086016020908101908701614f1c565b6040516001600160e01b031960e084901b1681526001600160a01b03909116600482015260248101849052604401600060405180830381600087803b158015612e9557600080fd5b505af1158015612ea9573d6000803e3d6000fd5b5050505060008211156119905760a05460a354604051632770a7eb60e21b81526001600160a01b03918216600482015260248101859052911690639dc29fac90604401600060405180830381600087803b158015612f0657600080fd5b505af1158015612f1a573d6000803e3d6000fd5b50505050505050505050565b6000612f36898989898888612c6d565b60008a8152609b6020526040812080549293509091612f5490614940565b80601f0160208091040260200160405190810160405280929190818152602001828054612f8090614940565b8015612fcd5780601f10612fa257610100808354040283529160200191612fcd565b820191906000526020600020905b815481529060010190602001808311612fb057829003601f168201915b50505050509050612f1a6040518060a001604052808c815260200188815260200183815260200184815260200185815250612aa8565b60006129108284615236565b60006129108284615255565b60aa54609f54613038916001600160a01b03918216911684612919565b60ad54600090613050906001600160a01b03166135fd565b60ae5490915060009061306b906001600160a01b03166135fd565b60aa5460a75491925061308b916001600160a01b03908116911686612919565b61312a61309985600261300f565b64e8d4a51000848660ab8054806020026020016040519081016040528092919081815260200182805480156130f757602002820191906000526020600020905b81546001600160a01b031681526001909101906020018083116130d9575b5050505050306131126102584261290490919063ffffffff16565b60aa546001600160a01b03169695949392919061373d565b6131af61313885600261300f565b64e8d4a51000838660ac8054806020026020016040519081016040528092919081815260200182805480156130f7576020028201919060005260206000209081546001600160a01b031681526001909101906020018083116130d9575050505050306131126102584261290490919063ffffffff16565b60a0546040516370a0823160e01b81523060048201526000916001600160a01b0316906370a0823190602401602060405180830381865afa1580156131f8573d6000803e3d6000fd5b505050506040513d601f19601f8201168201806040525081019061321c9190614ca3565b60a8546040516370a0823160e01b81523060048201529192506000916001600160a01b03909116906370a0823190602401602060405180830381865afa15801561326a573d6000803e3d6000fd5b505050506040513d601f19601f8201168201806040525081019061328e9190614ca3565b60aa5460a0549192506132ae916001600160a01b03908116911684612919565b60aa5460a8546132cb916001600160a01b03918216911683612919565b60aa5460a05460a8546001600160a01b039283169263e8e33700928116911685856132fc6103e861276c848e613003565b61330c6103e861276c8a8f613003565b61dead61331b42610258612904565b60405160e08a901b6001600160e01b03191681526001600160a01b039889166004820152968816602488015260448701959095526064860193909352608485019190915260a484015290921660c482015260e4810191909152610104016060604051808303816000875af1158015613397573d6000803e3d6000fd5b505050506040513d601f19601f820116820180604052508101906126d19190615277565b60aa54609f546133d8916001600160a01b03918216911684612919565b60ad546000906133f0906001600160a01b03166135fd565b60aa5460a754919250613410916001600160a01b03908116911685612919565b6134928364e8d4a51000838560ab80548060200260200160405190810160405280929190818152602001828054801561347257602002820191906000526020600020905b81546001600160a01b03168152600190910190602001808311613454575b505060a9546001600160a01b031692506131129150429050610258612904565b505050565b60a05460a9546040516340c10f1960e01b81526001600160a01b039182166004820152602481018490529116906340c10f1990604401600060405180830381600087803b1580156134e757600080fd5b505af1158015610d80573d6000803e3d6000fd5b6000613550826040518060400160405280602081526020017f5361666545524332303a206c6f772d6c6576656c2063616c6c206661696c6564815250856001600160a01b03166138ac9092919063ffffffff16565b805190915015613492578080602001905181019061356e91906152a5565b6134925760405162461bcd60e51b815260206004820152602a60248201527f5361666545524332303a204552433230206f7065726174696f6e20646964206e6044820152691bdd081cdd58d8d9595960b21b6064820152608401610b63565b600054610100900460ff166135f45760405162461bcd60e51b8152600401610b639061511b565b611a1833612c1b565b600080826001600160a01b031663313ce5676040518163ffffffff1660e01b8152600401602060405180830381865afa15801561363e573d6000803e3d6000fd5b505050506040513d601f19601f8201168201806040525081019061366291906152c7565b90506000836001600160a01b031663feaf968c6040518163ffffffff1660e01b815260040160a060405180830381865afa1580156136a4573d6000803e3d6000fd5b505050506040513d601f19601f820116820180604052508101906136c89190615304565b50505091505060008112156137185760405162461bcd60e51b81526020600482015260166024820152751b9959c81c1c9a58d95cc81b9bdd08185b1b1bddd95960521b6044820152606401610b63565b61373561372683600a615438565b61276c8364e8d4a51000613003565b949350505050565b600086158061374a575085155b156138155760405163d06ca61f60e01b81526000906001600160a01b038b169063d06ca61f90613780908c90899060040161548b565b600060405180830381865afa15801561379d573d6000803e3d6000fd5b505050506040513d6000823e601f3d908101601f191682016040526137c591908101906154a4565b905061380d6103e861276c88846137e7600187516138c590919063ffffffff16565b815181106137f7576137f7614cbc565b602002602001015161300390919063ffffffff16565b91505061383b565b613838613824876103e8613003565b61276c876138328c8c613003565b90613003565b90505b604051635c11d79560e01b81526001600160a01b038a1690635c11d7959061386f908b908590899089908990600401615529565b600060405180830381600087803b15801561388957600080fd5b505af115801561389d573d6000803e3d6000fd5b50505050505050505050505050565b60606138bb84846000856138d1565b90505b9392505050565b60006129108284615565565b6060824710156139325760405162461bcd60e51b815260206004820152602660248201527f416464726573733a20696e73756666696369656e742062616c616e636520666f6044820152651c8818d85b1b60d21b6064820152608401610b63565b6001600160a01b0385163b6139895760405162461bcd60e51b815260206004820152601d60248201527f416464726573733a2063616c6c20746f206e6f6e2d636f6e74726163740000006044820152606401610b63565b600080866001600160a01b031685876040516139a5919061557c565b60006040518083038185875af1925050503d80600081146139e2576040519150601f19603f3d011682016040523d82523d6000602084013e6139e7565b606091505b5091509150611c9282828660608315613a015750816138be565b825115613a115782518084602001fd5b8160405162461bcd60e51b8152600401610b639190613f2e565b828054613a3790614940565b90600052602060002090601f016020900481019282613a595760008555613a9f565b82601f10613a725782800160ff19823516178555613a9f565b82800160010185558215613a9f579182015b82811115613a9f578235825591602001919060010190613a84565b50613aab929150613bcb565b5090565b828054828255906000526020600020908101928215613a9f579160200282015b82811115613a9f5781546001600160a01b0319166001600160a01b03843516178255602090920191600190910190613acf565b828054613b0e90614940565b90600052602060002090601f016020900481019282613b305760008555613a9f565b82601f10613b4957805160ff1916838001178555613a9f565b82800160010185558215613a9f579182015b82811115613a9f578251825591602001919060010190613b5b565b828054828255906000526020600020908101928215613a9f579160200282015b82811115613a9f57825182546001600160a01b0319166001600160a01b03909116178255602090920191600190910190613b96565b5b80821115613aab5760008155600101613bcc565b803561ffff81168114613bf257600080fd5b919050565b60008083601f840112613c0957600080fd5b5081356001600160401b03811115613c2057600080fd5b602083019150836020828501011115613c3857600080fd5b9250929050565b60008060008060008060808789031215613c5857600080fd5b613c6187613be0565b955060208701356001600160401b0380821115613c7d57600080fd5b613c898a838b01613bf7565b9097509550604089013591508082168214613ca357600080fd5b90935060608801359080821115613cb957600080fd5b50613cc689828a01613bf7565b979a9699509497509295939492505050565b60008060408385031215613ceb57600080fd5b50508035926020909101359150565b600060208284031215613d0c57600080fd5b5035919050565b600080600060408486031215613d2857600080fd5b8335925060208401356001600160401b03811115613d4557600080fd5b613d5186828701613bf7565b9497909650939450505050565b600080600080600060a08688031215613d7657600080fd5b505083359560208501359550604085013594606081013594506080013592509050565b600060208284031215613dab57600080fd5b61291082613be0565b60008060008060808587031215613dca57600080fd5b5050823594602084013594506040840135936060013592509050565b60008083601f840112613df857600080fd5b5081356001600160401b03811115613e0f57600080fd5b6020830191508360208260051b8501011115613c3857600080fd5b60008060208385031215613e3d57600080fd5b82356001600160401b03811115613e5357600080fd5b613e5f85828601613de6565b90969095509350505050565b60008060008060408587031215613e8157600080fd5b84356001600160401b0380821115613e9857600080fd5b613ea488838901613de6565b90965094506020870135915080821115613ebd57600080fd5b50613eca87828801613de6565b95989497509550505050565b60005b83811015613ef1578181015183820152602001613ed9565b83811115610d325750506000910152565b60008151808452613f1a816020860160208601613ed6565b601f01601f19169290920160200192915050565b6020815260006129106020830184613f02565b6001600160a01b038116811461250857600080fd5b8035613bf281613f41565b600060208284031215613f7357600080fd5b81356138be81613f41565b634e487b7160e01b600052604160045260246000fd5b60405161012081016001600160401b0381118282101715613fb757613fb7613f7e565b60405290565b604080519081016001600160401b0381118282101715613fb757613fb7613f7e565b60405161016081016001600160401b0381118282101715613fb757613fb7613f7e565b604051601f8201601f191681016001600160401b038111828210171561402a5761402a613f7e565b604052919050565b60006001600160401b0382111561404b5761404b613f7e565b5060051b60200190565b600082601f83011261406657600080fd5b8135602061407b61407683614032565b614002565b82815260059290921b8401810191818101908684111561409a57600080fd5b8286015b848110156140b5578035835291830191830161409e565b509695505050505050565b60006001600160401b038211156140d9576140d9613f7e565b50601f01601f191660200190565b600082601f8301126140f857600080fd5b8135614106614076826140c0565b81815284602083860101111561411b57600080fd5b816020850160208301376000918101602001919091529392505050565b600082601f83011261414957600080fd5b8135602061415961407683614032565b82815260059290921b8401810191818101908684111561417857600080fd5b8286015b848110156140b55780356001600160401b0381111561419b5760008081fd5b6141a98986838b01016140e7565b84525091830191830161417c565b600082601f8301126141c857600080fd5b813560206141d861407683614032565b82815260059290921b840181019181810190868411156141f757600080fd5b8286015b848110156140b55761420c81613be0565b83529183019183016141fb565b6000610120828403121561422c57600080fd5b614234613f94565b9050813581526020820135602082015260408201356001600160401b038082111561425e57600080fd5b61426a85838601614055565b6040840152606084013591508082111561428357600080fd5b61428f85838601614138565b606084015260808401359150808211156142a857600080fd5b6142b4858386016141b7565b608084015260a08401359150808211156142cd57600080fd5b506142da84828501614055565b60a0830152506142ec60c08301613f56565b60c08201526142fd60e08301613f56565b60e082015261010080830135818301525092915050565b600082601f83011261432557600080fd5b8135602061433561407683614032565b82815260059290921b8401810191818101908684111561435457600080fd5b8286015b848110156140b557803561436b81613f41565b8352918301918301614358565b60006040828403121561438a57600080fd5b614392613fbd565b905081356001600160401b03808211156143ab57600080fd5b6143b785838601614314565b835260208401359150808211156143cd57600080fd5b506143da84828501614314565b60208301525092915050565b6000604082840312156143f857600080fd5b614400613fbd565b9050813561440d81613f41565b8152602082013561441d81613f41565b602082015292915050565b60006020828403121561443a57600080fd5b81356001600160401b038082111561445157600080fd5b90830190610180828603121561446657600080fd5b61446e613fdf565b61447783613f56565b815261448560208401613f56565b602082015261449660408401613f56565b60408201526144a760608401613f56565b60608201526144b860808401613f56565b60808201526144c960a08401613f56565b60a08201526144da60c08401613f56565b60c08201526144eb60e08401613f56565b60e0820152610100808401358381111561450457600080fd5b61451088828701614219565b828401525050610120808401358381111561452a57600080fd5b61453688828701614378565b828401525050610140915061454d868385016143e6565b91810191909152949350505050565b600080600080600060a0868803121561457457600080fd5b8535945060208601356001600160401b0381111561459157600080fd5b61459d888289016140e7565b959895975050505060408401359360608101359360809091013592509050565b60008060008060008060c087890312156145d657600080fd5b8635955060208701359450604087013593506060870135925060808701356001600160401b0381111561460857600080fd5b61461489828a016140e7565b92505060a087013561462581613f41565b809150509295509295509295565b60008060006060848603121561464857600080fd5b833561465381613f41565b925060208401359150604084013561466a81613f41565b809150509250925092565b6000806040838503121561468857600080fd5b8235915061469860208401613be0565b90509250929050565b600080600080600080600060e0888a0312156146bc57600080fd5b87359650602088013595506040880135945060608801356001600160401b038111156146e757600080fd5b6146f38a828b016140e7565b979a969950949760808101359660a0820135965060c090910135945092505050565b60008060008060008060c0878903121561472e57600080fd5b863595506020870135945060408701359350606087013592506080870135915060a08701356001600160401b0381111561476757600080fd5b61477389828a016140e7565b9150509295509295509295565b60008060008060008060c0878903121561479957600080fd5b6147a287613be0565b955060208701356001600160401b03808211156147be57600080fd5b6147ca8a838b016140e7565b965060408901359550606089013591506147e382613f41565b9093506080880135925060a0880135908082111561480057600080fd5b5061477389828a016140e7565b60008060008060008060c0878903121561482657600080fd5b86359550602087013594506040870135935060608701356001600160401b0381111561485157600080fd5b61485d89828a016140e7565b9350506080870135915060a087013590509295509295509295565b600080600080600080600060e0888a03121561489357600080fd5b8735965060208801356001600160401b03808211156148b157600080fd5b6148bd8b838c016140e7565b975060408a0135965060608a0135955060808a0135945060a08a0135935060c08a01359150808211156148ef57600080fd5b506148fc8a828b016140e7565b91505092959891949750929550565b6000806020838503121561491e57600080fd5b82356001600160401b0381111561493457600080fd5b613e5f85828601613bf7565b600181811c9082168061495457607f821691505b6020821081141561497557634e487b7160e01b600052602260045260246000fd5b50919050565b600080835481600182811c91508083168061499757607f831692505b60208084108214156149b757634e487b7160e01b86526022600452602486fd5b8180156149cb57600181146149dc57614a09565b60ff19861689528489019650614a09565b60008a81526020902060005b86811015614a015781548b8201529085019083016149e8565b505084890196505b509498975050505050505050565b6001600160e01b03198135818116916004851015614a3f5780818660040360031b1b83161692505b505092915050565b60208152816020820152818360408301376000818301604090810191909152601f909201601f19160101919050565b600082601f830112614a8757600080fd5b8151614a95614076826140c0565b818152846020838601011115614aaa57600080fd5b613735826020830160208701613ed6565b600060208284031215614acd57600080fd5b81516001600160401b03811115614ae357600080fd5b61373584828501614a76565b600080600080600060a08688031215614b0757600080fd5b8551945060208601516001600160401b03811115614b2457600080fd5b614b3088828901614a76565b60408801516060890151608090990151979a919950979695509350505050565b6020808252818101527f4f776e61626c653a2063616c6c6572206973206e6f7420746865206f776e6572604082015260600190565b60609190911b6bffffffffffffffffffffffff1916815260140190565b61ffff861681526001600160a01b038516602082015260a060408201819052600090614bd090830186613f02565b84151560608401528281036080840152614bea8185613f02565b98975050505050505050565b60008060408385031215614c0957600080fd5b505080516020909101519092909150565b6020808252601f908201527f5265656e7472616e637947756172643a207265656e7472616e742063616c6c00604082015260600190565b60008060008060008060c08789031215614c6a57600080fd5b8651614c7581613f41565b809650506020870151945060408701519350606087015192506080870151915060a087015161462581613f41565b600060208284031215614cb557600080fd5b5051919050565b634e487b7160e01b600052603260045260246000fd5b634e487b7160e01b600052601160045260246000fd5b600061ffff80831681811415614d0057614d00614cd2565b6001019392505050565b805182526020810151602083015260006040820151606060408501526137356060850182613f02565b61ffff8616815260ff8516602082015260a060408201526000614d5960a0830186613f02565b8281036060840152614d6b8186613f02565b90508281036080840152614bea8185614d0a565b805160208201516001600160e01b03198082169291906004831015614dae5780818460040360031b1b83161693505b505050919050565b60008060008060008060c08789031215614dcf57600080fd5b8651955060208701519450604087015193506060870151925060808701516001600160401b03811115614e0157600080fd5b614e0d89828a01614a76565b92505060a087015161462581613f41565b60008060008060008060c08789031215614e3757600080fd5b86519550602087015194506040870151935060608701516001600160401b03811115614e6257600080fd5b614e6e89828a01614a76565b9350506080870151915060a087015190509295509295509295565b600080600080600060a08688031215614ea157600080fd5b5050835160208501516040860151606087015160809097015192989197509594509092509050565b60008085851115614ed957600080fd5b83861115614ee657600080fd5b5050820193919092039150565b838152606060208201526000614f0c6060830185613f02565b9050826040830152949350505050565b600060208284031215614f2e57600080fd5b81516138be81613f41565b6001600160a01b038716815260c060208201819052600090614f5d90830188613f02565b6040830196909652506060810193909352901515608083015260a09091015292915050565b60008060008060808587031215614f9857600080fd5b505082516020840151604085015160609095015191969095509092509050565b85815260a060208201526000614fd160a0830187613f02565b604083019590955250606081019290925260809091015292915050565b6001600160e01b0319831681528151600090615011816004850160208701613ed6565b919091016004019392505050565b61ffff8716815260c06020820152600061503c60c0830188613f02565b828103604084015261504e8188613f02565b6001600160a01b0387811660608601528616608085015283810360a085015290506150798185613f02565b9998505050505050505050565b6000821982111561509957615099614cd2565b500190565b600061012061ffff8c1683528a602084015289604084015260018060a01b03891660608401528760808401528660a08401528060c08401526150e281840187614d0a565b905082810360e08401526150f68186613f02565b905082810361010084015261510b8185613f02565b9c9b505050505050505050505050565b6020808252602b908201527f496e697469616c697a61626c653a20636f6e7472616374206973206e6f74206960408201526a6e697469616c697a696e6760a81b606082015260800190565b8781526001600160a01b038716602082015260e06040820181905260009061519090830188613f02565b90508560608301528460808301528360a08301528260c083015298975050505050505050565b86815285602082015284604082015260c0606082015260006151db60c0830186613f02565b60808301949094525060a00152949350505050565b86815285602082015284604082015283606082015260c06080820152600061521b60c0830185613f02565b905060018060a01b03831660a0830152979650505050505050565b600081600019048311821515161561525057615250614cd2565b500290565b60008261527257634e487b7160e01b600052601260045260246000fd5b500490565b60008060006060848603121561528c57600080fd5b8351925060208401519150604084015190509250925092565b6000602082840312156152b757600080fd5b815180151581146138be57600080fd5b6000602082840312156152d957600080fd5b815160ff811681146138be57600080fd5b805169ffffffffffffffffffff81168114613bf257600080fd5b600080600080600060a0868803121561531c57600080fd5b615325866152ea565b9450602086015193506040860151925060608601519150615348608087016152ea565b90509295509295909350565b600181815b8085111561538f57816000190482111561537557615375614cd2565b8085161561538257918102915b93841c9390800290615359565b509250929050565b6000826153a657506001612913565b816153b357506000612913565b81600181146153c957600281146153d3576153ef565b6001915050612913565b60ff8411156153e4576153e4614cd2565b50506001821b612913565b5060208310610133831016604e8410600b8410161715615412575081810a612913565b61541c8383615354565b806000190482111561543057615430614cd2565b029392505050565b600061291060ff841683615397565b600081518084526020808501945080840160005b838110156154805781516001600160a01b03168752958201959082019060010161545b565b509495945050505050565b8281526040602082015260006138bb6040830184615447565b600060208083850312156154b757600080fd5b82516001600160401b038111156154cd57600080fd5b8301601f810185136154de57600080fd5b80516154ec61407682614032565b81815260059190911b8201830190838101908783111561550b57600080fd5b928401925b82841015611c9257835182529284019290840190615510565b85815284602082015260a06040820152600061554860a0830186615447565b6001600160a01b0394909416606083015250608001529392505050565b60008282101561557757615577614cd2565b500390565b6000825161558e818460208701613ed6565b919091019291505056fea2646970667358221220ba590c7e48b3bcb26a528742584cd4d7fce16b683e3270d37462db3ec7eb66f364736f6c634300080a0033",
  "immutableReferences": {},
  "source": "// SPDX-License-Identifier: MIT\n\npragma solidity ^0.8.0;\n\nimport \"./_ZorroControllerInvestment.sol\";\n\nimport \"../interfaces/IAMMRouter02.sol\";\n\nimport \"../interfaces/IVault.sol\";\n\nimport \"../libraries/SafeSwap.sol\";\n\nimport \"../interfaces/ILayerZeroEndpoint.sol\";\n\nimport \"../interfaces/IStargateRouter.sol\";\n\nimport \"../interfaces/IZorroControllerXChain.sol\";\n\nimport \"@openzeppelin/contracts-upgradeable/access/OwnableUpgradeable.sol\";\n\nimport \"@openzeppelin/contracts-upgradeable/security/ReentrancyGuardUpgradeable.sol\";\n\nimport \"./_ZorroControllerXChainBase.sol\";\n\nimport \"./_ZorroControllerXChainDeposit.sol\";\n\nimport \"./_ZorroControllerXChainEarn.sol\";\n\nimport \"./_ZorroControllerXChainWithdraw.sol\";\n\nimport \"./_ZorroControllerXChainReceiver.sol\";\n\ncontract ZorroControllerXChain is\n    IZorroControllerXChain,\n    ZorroControllerXChainBase,\n    ZorroControllerXChainDeposit,\n    ZorroControllerXChainWithdraw,\n    ZorroControllerXChainEarn,\n    ZorroControllerXChainReceiver\n{\n    /* Libraries */\n    using SafeMathUpgradeable for uint256;\n\n    /* Constructor */\n\n    /// @notice Upgradeable constructor\n    /// @param _initValue a ZorroControllerXChainInit struct for initializing this contract\n    function initialize(ZorroControllerXChainInit memory _initValue)\n        public\n        initializer\n    {\n        // Base\n        stargateRouter = _initValue.bridge.stargateRouter;\n        stargateSwapPoolId = _initValue.bridge.stargateSwapPoolId;\n        layerZeroEndpoint = _initValue.bridge.layerZeroEndpoint;\n\n        for (uint16 i = 0; i < _initValue.bridge.ZorroChainIDs.length; ++i) {\n            uint256 _zChainId = _initValue.bridge.ZorroChainIDs[i];\n\n            controllerContractsMap[_zChainId] = _initValue\n                .bridge\n                .controllerContracts[i];\n            ZorroChainToLZMap[_zChainId] = _initValue.bridge.LZChainIDs[i];\n            LZChainToZorroMap[_initValue.bridge.LZChainIDs[i]] = _zChainId;\n            stargateDestPoolIds[_zChainId] = _initValue\n                .bridge\n                .stargateDestPoolIds[i];\n        }\n\n        // Earn\n        // Tokens\n        zorroLPPoolOtherToken = _initValue.zorroLPPoolOtherToken;\n        // Contracts\n        zorroStakingVault = _initValue.zorroStakingVault;\n        uniRouterAddress = _initValue.uniRouterAddress;\n        // Swaps\n        USDCToZorroPath = _initValue.swaps.USDCToZorroPath;\n        USDCToZorroLPPoolOtherTokenPath = _initValue\n            .swaps\n            .USDCToZorroLPPoolOtherTokenPath;\n        // Price feed\n        priceFeedZOR = AggregatorV3Interface(\n            _initValue.priceFeeds.priceFeedZOR\n        );\n        priceFeedLPPoolOtherToken = AggregatorV3Interface(\n            _initValue.priceFeeds.priceFeedLPPoolOtherToken\n        );\n\n        // Ownable\n        __Ownable_init();\n    }\n\n    /* Structs */\n\n    struct ZorroControllerXChainSwapParams {\n        address[] USDCToZorroPath;\n        address[] USDCToZorroLPPoolOtherTokenPath;\n    }\n\n    struct ZorroControllerXChainBridgeParams {\n        uint256 chainId;\n        uint256 homeChainId;\n        uint256[] ZorroChainIDs;\n        bytes[] controllerContracts; // Must be same length as ZorroChainIDs\n        uint16[] LZChainIDs; // Must be same length as ZorroChainIDs\n        uint256[] stargateDestPoolIds; // Must be same length as ZorroChainIDs\n        address stargateRouter;\n        address layerZeroEndpoint;\n        uint256 stargateSwapPoolId;\n    }\n\n    struct ZorroControllerXChainPriceFeedParams {\n        address priceFeedZOR;\n        address priceFeedLPPoolOtherToken;\n    }\n\n    struct ZorroControllerXChainInit {\n        // Tokens\n        address defaultStablecoin;\n        address ZORRO;\n        address zorroLPPoolOtherToken;\n        // Contracts\n        address zorroStakingVault;\n        address uniRouterAddress;\n        address homeChainZorroController;\n        address currentChainController;\n        address publicPool;\n        // Bridge\n        ZorroControllerXChainBridgeParams bridge;\n        // Swaps\n        ZorroControllerXChainSwapParams swaps;\n        // Price feed\n        ZorroControllerXChainPriceFeedParams priceFeeds;\n    }\n}\n",
  "sourcePath": "/Users/kristophm/Documents/workspace/zorro-protocol/contracts/controllers/ZorroControllerXChain.sol",
  "compiler": {
    "name": "solc",
    "version": "0.8.10+commit.fc410830.Emscripten.clang"
  },
  "schemaVersion": "3.4.4",
  "updatedAt": "2022-05-14T19:55:42.781Z",
  "networkType": "ethereum",
  "devdoc": {
    "kind": "dev",
    "methods": {
      "checkXChainDepositFee(uint256,bytes,uint256,uint256,uint256,uint256,bytes)": {
        "params": {
          "_chainId": "The Zorro Chain ID (not the LayerZero one)",
          "_destWallet": "A valid address on the remote chain that can claim ownership",
          "_dstContract": "The destination contract address on the remote chain",
          "_maxMarketMovement": "Acceptable degree of slippage on any transaction (e.g. 950 = 5%, 990 = 1% etc.)",
          "_pid": "The pool ID on the remote chain",
          "_valueUSDC": "The amount of USDC to deposit",
          "_weeksCommitted": "Number of weeks to commit to a vault"
        },
        "returns": {
          "_0": "uint256 Expected fee to pay for bridging/cross chain execution"
        }
      },
      "checkXChainDistributeEarningsFee(uint256,uint256,uint256,uint256)": {
        "params": {
          "_accSlashedRewards": "Accumulated slashed rewards on chain",
          "_amountUSDCBuyback": "Amount of USDC to buy back",
          "_amountUSDCRevShare": "Amount of USDC to rev share with ZOR single staking vault",
          "_maxMarketMovement": "factor to account for max market movement/slippage."
        },
        "returns": {
          "_0": "uint256 Quantity of native token as fees"
        }
      },
      "checkXChainRepatriationFee(uint256,uint256,uint256,bytes,uint256,uint256,uint256)": {
        "params": {
          "_burnableZORRewards": "Quantity of ZOR tokens minted for rewards here that need to be burned on the home chain",
          "_gasForDestinationLZReceive": "How much additional gas to provide at destination contract",
          "_originChainId": "Zorro chain ID of chain to which funds are to be repatriated to",
          "_originRecipient": "Recipient of funds on the origin chain",
          "_pid": "Pool ID on current chain",
          "_rewardsDue": "ZOR rewards due to the recipient",
          "_trancheId": "ID of tranche on current chain that funds were withdrawn from"
        },
        "returns": {
          "_0": "uint256 Estimated fee in native tokens"
        }
      },
      "checkXChainWithdrawalFee(uint256,uint256,uint256,uint256,uint256)": {
        "params": {
          "_gasForDestinationLZReceive": "How much additional gas to provide at destination contract",
          "_maxMarketMovement": "Acceptable degree of slippage on any transaction (e.g. 950 = 5%, 990 = 1% etc.)",
          "_pid": "The pool ID on the remote chain",
          "_trancheId": "The tranche ID on the remote chain",
          "_zorroChainId": "The Zorro Chain ID (not the LayerZero one)"
        },
        "returns": {
          "_0": "uint256 Expected fee to pay for bridging/cross chain execution"
        }
      },
      "extractParamsPayload(bytes)": {
        "params": {
          "_payloadWithSig": "ABI encoded payload with function selector"
        },
        "returns": {
          "paramsPayload": "Payload with params only"
        }
      },
      "initialize((address,address,address,address,address,address,address,address,(uint256,uint256,uint256[],bytes[],uint16[],uint256[],address,address,uint256),(address[],address[]),(address,address)))": {
        "params": {
          "_initValue": "a ZorroControllerXChainInit struct for initializing this contract"
        }
      },
      "owner()": {
        "details": "Returns the address of the current owner."
      },
      "receiveXChainDepositRequest(uint256,uint256,uint256,uint256,bytes,address)": {
        "details": "Should never ever be actually called."
      },
      "receiveXChainDistributionRequest(uint256,uint256,uint256,uint256,uint256)": {
        "details": "Should never ever be actually called."
      },
      "receiveXChainRepatriationRequest(uint256,uint256,uint256,bytes,uint256,uint256)": {
        "details": "Should never ever be actually called."
      },
      "receiveXChainWithdrawalRequest(uint256,bytes,uint256,uint256,uint256)": {
        "details": "Should never ever be actually called."
      },
      "renounceOwnership()": {
        "details": "Leaves the contract without owner. It will not be possible to call `onlyOwner` functions anymore. Can only be called by the current owner. NOTE: Renouncing ownership will leave the contract without an owner, thereby removing any functionality that is only available to the owner."
      },
      "sendXChainDepositRequest(uint256,uint256,uint256,uint256,uint256,bytes)": {
        "details": "Requires appropriate fee to be paid via msg.value (use checkXChainDepositFee() above)",
        "params": {
          "_destWallet": "A valid address on the remote chain that can claim ownership",
          "_maxMarketMovement": "Acceptable degree of slippage on any transaction (e.g. 950 = 5%, 990 = 1% etc.)",
          "_pid": "The pool ID on the remote chain",
          "_valueUSDC": "The amount of USDC to deposit",
          "_weeksCommitted": "Number of weeks to commit to a vault",
          "_zorroChainId": "The Zorro Chain ID (not the LayerZero one)"
        }
      },
      "sendXChainDistributeEarningsRequest(uint256,uint256,uint256,uint256)": {
        "params": {
          "_buybackAmountUSDC": "Amount in USDC to buy back",
          "_maxMarketMovement": "Acceptable slippage (950 = 5%, 990 = 1% etc.)",
          "_pid": "Pool ID",
          "_revShareAmountUSDC": "Amount in USDC to revshare w/ ZOR single staking vault"
        }
      },
      "sendXChainWithdrawalRequest(uint256,uint256,uint256,uint256,uint256)": {
        "details": "Requires value to be submitted to pay for cross chain transaction. Use checkXChainWithdrawalFee() to estimate fees",
        "params": {
          "_destZorroChainId": "The Zorro chain ID of the remote chain to withdraw from",
          "_gasForDestinationLZReceive": "How much additional gas to provide at destination contract",
          "_maxMarketMovement": "Acceptable degree of slippage on any transaction (e.g. 950 = 5%, 990 = 1% etc.)",
          "_pid": "The pool ID on the remote chain",
          "_trancheId": "The ID of the tranche for the given user and pool"
        }
      },
      "setControllerContract(uint256,bytes)": {
        "params": {
          "_controller": "Bytes representation of smart contract address for cross chain contract",
          "_zorroChainId": "Zorro Chain ID"
        }
      },
      "setStargateDestPoolIds(uint256,uint16)": {
        "params": {
          "_stargatePoolId": "Stargate pool ID",
          "_zorroChainId": "Zorro chain ID"
        }
      },
      "setZorroChainToLZMap(uint256,uint16)": {
        "params": {
          "_lzChainId": "LayerZero Chain ID",
          "_zorroChainId": "Zorro chain ID"
        }
      },
      "sgReceive(uint16,bytes,uint256,address,uint256,bytes)": {
        "details": "Implements IStargateReceiver interface"
      },
      "transferOwnership(address)": {
        "details": "Transfers ownership of the contract to a new account (`newOwner`). Can only be called by the current owner."
      }
    },
    "version": 1
  },
  "userdoc": {
    "kind": "user",
    "methods": {
      "checkXChainDepositFee(uint256,bytes,uint256,uint256,uint256,uint256,bytes)": {
        "notice": "Checks to see how much a cross chain deposit will cost"
      },
      "checkXChainDistributeEarningsFee(uint256,uint256,uint256,uint256)": {
        "notice": "Checks to see how much a cross chain earnings distribution will cost"
      },
      "checkXChainRepatriationFee(uint256,uint256,uint256,bytes,uint256,uint256,uint256)": {
        "notice": "Estimates fees for repatriation operation"
      },
      "checkXChainWithdrawalFee(uint256,uint256,uint256,uint256,uint256)": {
        "notice": "Checks to see how much a cross chain withdrawal will cost"
      },
      "extractParamsPayload(bytes)": {
        "notice": "Removes function signature from ABI encoded payload"
      },
      "initialize((address,address,address,address,address,address,address,address,(uint256,uint256,uint256[],bytes[],uint16[],uint256[],address,address,uint256),(address[],address[]),(address,address)))": {
        "notice": "Upgradeable constructor"
      },
      "receiveXChainDepositRequest(uint256,uint256,uint256,uint256,bytes,address)": {
        "notice": "Dummy func to allow .selector call above and guarantee typesafety for abi calls."
      },
      "receiveXChainDistributionRequest(uint256,uint256,uint256,uint256,uint256)": {
        "notice": "Dummy func to allow .selector call above and guarantee typesafety for abi calls."
      },
      "receiveXChainRepatriationRequest(uint256,uint256,uint256,bytes,uint256,uint256)": {
        "notice": "Dummy func to allow .selector call above and guarantee typesafety for abi calls."
      },
      "receiveXChainWithdrawalRequest(uint256,bytes,uint256,uint256,uint256)": {
        "notice": "Dummy func to allow .selector call above and guarantee typesafety for abi calls."
      },
      "sendXChainDepositRequest(uint256,uint256,uint256,uint256,uint256,bytes)": {
        "notice": "Prepares and sends a cross chain deposit request. Takes care of necessary financial ops (transfer/locking USDC)"
      },
      "sendXChainDistributeEarningsRequest(uint256,uint256,uint256,uint256)": {
        "notice": "Sends a request back to the home chain to distribute earnings"
      },
      "sendXChainWithdrawalRequest(uint256,uint256,uint256,uint256,uint256)": {
        "notice": "Prepares and sends a cross chain withdrwal request."
      },
      "setControllerContract(uint256,bytes)": {
        "notice": "Setter: Controller contract for each chain"
      },
      "setLayerZeroParams(address,uint256,address)": {
        "notice": "Setter: Set main LZ params"
      },
      "setStargateDestPoolIds(uint256,uint16)": {
        "notice": "Setter: Stargate dest pool IDs for USD asset"
      },
      "setZorroChainToLZMap(uint256,uint16)": {
        "notice": "Setter: LZ/Stargate params"
      },
      "sgReceive(uint16,bytes,uint256,address,uint256,bytes)": {
        "notice": "Receives stargate cross-chain calls"
      }
    },
    "version": 1
  }
}