{
  "contractName": "ZorroControllerPoolMgmt",
  "abi": [
    {
      "anonymous": false,
      "inputs": [
        {
          "indexed": true,
          "internalType": "address",
          "name": "user",
          "type": "address"
        },
        {
          "indexed": true,
          "internalType": "uint256",
          "name": "pid",
          "type": "uint256"
        },
        {
          "indexed": true,
          "internalType": "uint256",
          "name": "settlementEpoch",
          "type": "uint256"
        },
        {
          "indexed": false,
          "internalType": "uint256",
          "name": "value",
          "type": "uint256"
        },
        {
          "indexed": false,
          "internalType": "address",
          "name": "token",
          "type": "address"
        }
      ],
      "name": "ClaimCreated",
      "type": "event"
    },
    {
      "anonymous": false,
      "inputs": [
        {
          "indexed": true,
          "internalType": "address",
          "name": "user",
          "type": "address"
        },
        {
          "indexed": true,
          "internalType": "uint256",
          "name": "pid",
          "type": "uint256"
        },
        {
          "indexed": false,
          "internalType": "uint256",
          "name": "wantAmount",
          "type": "uint256"
        }
      ],
      "name": "Deposit",
      "type": "event"
    },
    {
      "anonymous": false,
      "inputs": [
        {
          "indexed": true,
          "internalType": "address",
          "name": "previousOwner",
          "type": "address"
        },
        {
          "indexed": true,
          "internalType": "address",
          "name": "newOwner",
          "type": "address"
        }
      ],
      "name": "OwnershipTransferred",
      "type": "event"
    },
    {
      "anonymous": false,
      "inputs": [
        {
          "indexed": false,
          "internalType": "address",
          "name": "user",
          "type": "address"
        },
        {
          "indexed": true,
          "internalType": "uint256",
          "name": "fromPid",
          "type": "uint256"
        },
        {
          "indexed": true,
          "internalType": "uint256",
          "name": "fromTrancheId",
          "type": "uint256"
        },
        {
          "indexed": true,
          "internalType": "uint256",
          "name": "toPid",
          "type": "uint256"
        }
      ],
      "name": "TransferInvestment",
      "type": "event"
    },
    {
      "anonymous": false,
      "inputs": [
        {
          "indexed": true,
          "internalType": "address",
          "name": "user",
          "type": "address"
        },
        {
          "indexed": true,
          "internalType": "uint256",
          "name": "pid",
          "type": "uint256"
        },
        {
          "indexed": false,
          "internalType": "uint256",
          "name": "trancheId",
          "type": "uint256"
        },
        {
          "indexed": false,
          "internalType": "uint256",
          "name": "wantAmount",
          "type": "uint256"
        }
      ],
      "name": "Withdraw",
      "type": "event"
    },
    {
      "inputs": [],
      "name": "BSCMarketTVLUSD",
      "outputs": [
        {
          "internalType": "uint256",
          "name": "",
          "type": "uint256"
        }
      ],
      "stateMutability": "view",
      "type": "function"
    },
    {
      "inputs": [
        {
          "internalType": "uint256",
          "name": "",
          "type": "uint256"
        }
      ],
      "name": "USDCToZORPath",
      "outputs": [
        {
          "internalType": "address",
          "name": "",
          "type": "address"
        }
      ],
      "stateMutability": "view",
      "type": "function"
    },
    {
      "inputs": [
        {
          "internalType": "uint256",
          "name": "",
          "type": "uint256"
        }
      ],
      "name": "USDCToZorroLPPoolToken0Path",
      "outputs": [
        {
          "internalType": "address",
          "name": "",
          "type": "address"
        }
      ],
      "stateMutability": "view",
      "type": "function"
    },
    {
      "inputs": [
        {
          "internalType": "uint256",
          "name": "",
          "type": "uint256"
        }
      ],
      "name": "USDCToZorroLPPoolToken1Path",
      "outputs": [
        {
          "internalType": "address",
          "name": "",
          "type": "address"
        }
      ],
      "stateMutability": "view",
      "type": "function"
    },
    {
      "inputs": [],
      "name": "ZORRO",
      "outputs": [
        {
          "internalType": "address",
          "name": "",
          "type": "address"
        }
      ],
      "stateMutability": "view",
      "type": "function"
    },
    {
      "inputs": [],
      "name": "ZORRODailyDistributionFactorBasisPointsMax",
      "outputs": [
        {
          "internalType": "uint256",
          "name": "",
          "type": "uint256"
        }
      ],
      "stateMutability": "view",
      "type": "function"
    },
    {
      "inputs": [],
      "name": "ZORRODailyDistributionFactorBasisPointsMin",
      "outputs": [
        {
          "internalType": "uint256",
          "name": "",
          "type": "uint256"
        }
      ],
      "stateMutability": "view",
      "type": "function"
    },
    {
      "inputs": [],
      "name": "ZorroTotalVaultTVLUSD",
      "outputs": [
        {
          "internalType": "uint256",
          "name": "",
          "type": "uint256"
        }
      ],
      "stateMutability": "view",
      "type": "function"
    },
    {
      "inputs": [],
      "name": "baseRewardRateBasisPoints",
      "outputs": [
        {
          "internalType": "uint256",
          "name": "",
          "type": "uint256"
        }
      ],
      "stateMutability": "view",
      "type": "function"
    },
    {
      "inputs": [],
      "name": "blocksPerDay",
      "outputs": [
        {
          "internalType": "uint256",
          "name": "",
          "type": "uint256"
        }
      ],
      "stateMutability": "view",
      "type": "function"
    },
    {
      "inputs": [],
      "name": "burnAddress",
      "outputs": [
        {
          "internalType": "address",
          "name": "",
          "type": "address"
        }
      ],
      "stateMutability": "view",
      "type": "function"
    },
    {
      "inputs": [],
      "name": "chainId",
      "outputs": [
        {
          "internalType": "uint256",
          "name": "",
          "type": "uint256"
        }
      ],
      "stateMutability": "view",
      "type": "function"
    },
    {
      "inputs": [
        {
          "internalType": "uint256",
          "name": "",
          "type": "uint256"
        },
        {
          "internalType": "address",
          "name": "",
          "type": "address"
        },
        {
          "internalType": "address",
          "name": "",
          "type": "address"
        }
      ],
      "name": "claims",
      "outputs": [
        {
          "internalType": "uint256",
          "name": "preSettlementAmount",
          "type": "uint256"
        },
        {
          "internalType": "uint256",
          "name": "settlementEpoch",
          "type": "uint256"
        },
        {
          "internalType": "bool",
          "name": "settled",
          "type": "bool"
        },
        {
          "internalType": "uint256",
          "name": "reason",
          "type": "uint256"
        }
      ],
      "stateMutability": "view",
      "type": "function"
    },
    {
      "inputs": [],
      "name": "curveStablePoolAddress",
      "outputs": [
        {
          "internalType": "address",
          "name": "",
          "type": "address"
        }
      ],
      "stateMutability": "view",
      "type": "function"
    },
    {
      "inputs": [],
      "name": "defaultMaxMarketMovement",
      "outputs": [
        {
          "internalType": "uint256",
          "name": "",
          "type": "uint256"
        }
      ],
      "stateMutability": "view",
      "type": "function"
    },
    {
      "inputs": [],
      "name": "defaultStablecoin",
      "outputs": [
        {
          "internalType": "address",
          "name": "",
          "type": "address"
        }
      ],
      "stateMutability": "view",
      "type": "function"
    },
    {
      "inputs": [],
      "name": "defaultStablecoinIndex",
      "outputs": [
        {
          "internalType": "int128",
          "name": "",
          "type": "int128"
        }
      ],
      "stateMutability": "view",
      "type": "function"
    },
    {
      "inputs": [
        {
          "internalType": "uint256",
          "name": "",
          "type": "uint256"
        }
      ],
      "name": "endpointContracts",
      "outputs": [
        {
          "internalType": "address",
          "name": "",
          "type": "address"
        }
      ],
      "stateMutability": "view",
      "type": "function"
    },
    {
      "inputs": [],
      "name": "failedLockedBuybackUSDC",
      "outputs": [
        {
          "internalType": "uint256",
          "name": "",
          "type": "uint256"
        }
      ],
      "stateMutability": "view",
      "type": "function"
    },
    {
      "inputs": [],
      "name": "failedLockedRevShareUSDC",
      "outputs": [
        {
          "internalType": "uint256",
          "name": "",
          "type": "uint256"
        }
      ],
      "stateMutability": "view",
      "type": "function"
    },
    {
      "inputs": [],
      "name": "getZorroPerBlock",
      "outputs": [
        {
          "internalType": "uint256",
          "name": "",
          "type": "uint256"
        }
      ],
      "stateMutability": "view",
      "type": "function"
    },
    {
      "inputs": [],
      "name": "homeChainZorroController",
      "outputs": [
        {
          "internalType": "address",
          "name": "",
          "type": "address"
        }
      ],
      "stateMutability": "view",
      "type": "function"
    },
    {
      "inputs": [
        {
          "internalType": "address",
          "name": "_token",
          "type": "address"
        },
        {
          "internalType": "uint256",
          "name": "_amount",
          "type": "uint256"
        }
      ],
      "name": "inCaseTokensGetStuck",
      "outputs": [],
      "stateMutability": "nonpayable",
      "type": "function"
    },
    {
      "inputs": [],
      "name": "isTimeMultiplierActive",
      "outputs": [
        {
          "internalType": "bool",
          "name": "",
          "type": "bool"
        }
      ],
      "stateMutability": "view",
      "type": "function"
    },
    {
      "inputs": [],
      "name": "lockUSDCController",
      "outputs": [
        {
          "internalType": "address",
          "name": "",
          "type": "address"
        }
      ],
      "stateMutability": "view",
      "type": "function"
    },
    {
      "inputs": [
        {
          "internalType": "uint256",
          "name": "",
          "type": "uint256"
        },
        {
          "internalType": "uint256",
          "name": "",
          "type": "uint256"
        }
      ],
      "name": "lockedEarningsStatus",
      "outputs": [
        {
          "internalType": "uint8",
          "name": "",
          "type": "uint8"
        }
      ],
      "stateMutability": "view",
      "type": "function"
    },
    {
      "inputs": [],
      "name": "owner",
      "outputs": [
        {
          "internalType": "address",
          "name": "",
          "type": "address"
        }
      ],
      "stateMutability": "view",
      "type": "function"
    },
    {
      "inputs": [
        {
          "internalType": "uint256",
          "name": "",
          "type": "uint256"
        }
      ],
      "name": "poolInfo",
      "outputs": [
        {
          "internalType": "contract IERC20",
          "name": "want",
          "type": "address"
        },
        {
          "internalType": "uint256",
          "name": "allocPoint",
          "type": "uint256"
        },
        {
          "internalType": "uint256",
          "name": "lastRewardBlock",
          "type": "uint256"
        },
        {
          "internalType": "uint256",
          "name": "accZORRORewards",
          "type": "uint256"
        },
        {
          "internalType": "uint256",
          "name": "totalTrancheContributions",
          "type": "uint256"
        },
        {
          "internalType": "address",
          "name": "vault",
          "type": "address"
        },
        {
          "internalType": "address",
          "name": "intermediaryToken",
          "type": "address"
        }
      ],
      "stateMutability": "view",
      "type": "function"
    },
    {
      "inputs": [],
      "name": "poolLength",
      "outputs": [
        {
          "internalType": "uint256",
          "name": "",
          "type": "uint256"
        }
      ],
      "stateMutability": "view",
      "type": "function"
    },
    {
      "inputs": [],
      "name": "publicPool",
      "outputs": [
        {
          "internalType": "address",
          "name": "",
          "type": "address"
        }
      ],
      "stateMutability": "view",
      "type": "function"
    },
    {
      "inputs": [
        {
          "internalType": "uint256",
          "name": "_amount",
          "type": "uint256"
        }
      ],
      "name": "receiveXChainBurnRewardsRequest",
      "outputs": [],
      "stateMutability": "nonpayable",
      "type": "function"
    },
    {
      "inputs": [
        {
          "internalType": "uint256",
          "name": "",
          "type": "uint256"
        },
        {
          "internalType": "address",
          "name": "",
          "type": "address"
        }
      ],
      "name": "redepositInfo",
      "outputs": [
        {
          "internalType": "uint256",
          "name": "durationCommittedInWeeks",
          "type": "uint256"
        },
        {
          "internalType": "uint256",
          "name": "enteredVaultAt",
          "type": "uint256"
        }
      ],
      "stateMutability": "view",
      "type": "function"
    },
    {
      "inputs": [
        {
          "internalType": "address",
          "name": "",
          "type": "address"
        }
      ],
      "name": "registeredXChainEndpoints",
      "outputs": [
        {
          "internalType": "uint8",
          "name": "",
          "type": "uint8"
        }
      ],
      "stateMutability": "view",
      "type": "function"
    },
    {
      "inputs": [],
      "name": "renounceOwnership",
      "outputs": [],
      "stateMutability": "nonpayable",
      "type": "function"
    },
    {
      "inputs": [
        {
          "internalType": "uint256",
          "name": "_BSCMarketTVLUSD",
          "type": "uint256"
        }
      ],
      "name": "setBSCMarketTVLUSD",
      "outputs": [],
      "stateMutability": "nonpayable",
      "type": "function"
    },
    {
      "inputs": [
        {
          "internalType": "uint256",
          "name": "_baseRewardRateBasisPoints",
          "type": "uint256"
        }
      ],
      "name": "setBaseRewardRateBasisPoints",
      "outputs": [],
      "stateMutability": "nonpayable",
      "type": "function"
    },
    {
      "inputs": [
        {
          "internalType": "uint256",
          "name": "_blocksPerDay",
          "type": "uint256"
        }
      ],
      "name": "setBlocksPerDay",
      "outputs": [],
      "stateMutability": "nonpayable",
      "type": "function"
    },
    {
      "inputs": [
        {
          "internalType": "uint256",
          "name": "_chainId",
          "type": "uint256"
        },
        {
          "internalType": "address",
          "name": "_endpointContract",
          "type": "address"
        }
      ],
      "name": "setEndpointContracts",
      "outputs": [],
      "stateMutability": "nonpayable",
      "type": "function"
    },
    {
      "inputs": [
        {
          "internalType": "bool",
          "name": "_isActive",
          "type": "bool"
        }
      ],
      "name": "setIsTimeMultiplierActive",
      "outputs": [],
      "stateMutability": "nonpayable",
      "type": "function"
    },
    {
      "inputs": [
        {
          "internalType": "address",
          "name": "_publicPoolAddress",
          "type": "address"
        }
      ],
      "name": "setPublicPool",
      "outputs": [],
      "stateMutability": "nonpayable",
      "type": "function"
    },
    {
      "inputs": [
        {
          "internalType": "uint256",
          "name": "_blockNumber",
          "type": "uint256"
        }
      ],
      "name": "setStartBlock",
      "outputs": [],
      "stateMutability": "nonpayable",
      "type": "function"
    },
    {
      "inputs": [
        {
          "internalType": "uint256",
          "name": "_targetTVLCaptureBasisPoints",
          "type": "uint256"
        }
      ],
      "name": "setTargetTVLCaptureBasisPoints",
      "outputs": [],
      "stateMutability": "nonpayable",
      "type": "function"
    },
    {
      "inputs": [
        {
          "internalType": "uint256",
          "name": "_value",
          "type": "uint256"
        }
      ],
      "name": "setZORRODailyDistributionFactorBasisPointsMax",
      "outputs": [],
      "stateMutability": "nonpayable",
      "type": "function"
    },
    {
      "inputs": [
        {
          "internalType": "uint256",
          "name": "_value",
          "type": "uint256"
        }
      ],
      "name": "setZORRODailyDistributionFactorBasisPointsMin",
      "outputs": [],
      "stateMutability": "nonpayable",
      "type": "function"
    },
    {
      "inputs": [
        {
          "internalType": "uint256",
          "name": "_ZorroTotalVaultTVLUSD",
          "type": "uint256"
        }
      ],
      "name": "setZorroTotalVaultTVLUSD",
      "outputs": [],
      "stateMutability": "nonpayable",
      "type": "function"
    },
    {
      "inputs": [],
      "name": "startBlock",
      "outputs": [
        {
          "internalType": "uint256",
          "name": "",
          "type": "uint256"
        }
      ],
      "stateMutability": "view",
      "type": "function"
    },
    {
      "inputs": [],
      "name": "synthethicStablecoinIndex",
      "outputs": [
        {
          "internalType": "int128",
          "name": "",
          "type": "int128"
        }
      ],
      "stateMutability": "view",
      "type": "function"
    },
    {
      "inputs": [],
      "name": "syntheticStablecoin",
      "outputs": [
        {
          "internalType": "address",
          "name": "",
          "type": "address"
        }
      ],
      "stateMutability": "view",
      "type": "function"
    },
    {
      "inputs": [],
      "name": "targetTVLCaptureBasisPoints",
      "outputs": [
        {
          "internalType": "uint256",
          "name": "",
          "type": "uint256"
        }
      ],
      "stateMutability": "view",
      "type": "function"
    },
    {
      "inputs": [],
      "name": "totalAllocPoint",
      "outputs": [
        {
          "internalType": "uint256",
          "name": "",
          "type": "uint256"
        }
      ],
      "stateMutability": "view",
      "type": "function"
    },
    {
      "inputs": [
        {
          "internalType": "uint256",
          "name": "",
          "type": "uint256"
        },
        {
          "internalType": "address",
          "name": "",
          "type": "address"
        },
        {
          "internalType": "uint256",
          "name": "",
          "type": "uint256"
        }
      ],
      "name": "trancheInfo",
      "outputs": [
        {
          "internalType": "uint256",
          "name": "contribution",
          "type": "uint256"
        },
        {
          "internalType": "uint256",
          "name": "timeMultiplier",
          "type": "uint256"
        },
        {
          "internalType": "uint256",
          "name": "rewardDebt",
          "type": "uint256"
        },
        {
          "internalType": "uint256",
          "name": "durationCommittedInWeeks",
          "type": "uint256"
        },
        {
          "internalType": "uint256",
          "name": "enteredVaultAt",
          "type": "uint256"
        },
        {
          "internalType": "uint256",
          "name": "exitedVaultStartingAt",
          "type": "uint256"
        }
      ],
      "stateMutability": "view",
      "type": "function"
    },
    {
      "inputs": [
        {
          "internalType": "uint256",
          "name": "_pid",
          "type": "uint256"
        },
        {
          "internalType": "address",
          "name": "_user",
          "type": "address"
        }
      ],
      "name": "trancheLength",
      "outputs": [
        {
          "internalType": "uint256",
          "name": "",
          "type": "uint256"
        }
      ],
      "stateMutability": "view",
      "type": "function"
    },
    {
      "inputs": [
        {
          "internalType": "address",
          "name": "newOwner",
          "type": "address"
        }
      ],
      "name": "transferOwnership",
      "outputs": [],
      "stateMutability": "nonpayable",
      "type": "function"
    },
    {
      "inputs": [],
      "name": "uniRouterAddress",
      "outputs": [
        {
          "internalType": "address",
          "name": "",
          "type": "address"
        }
      ],
      "stateMutability": "view",
      "type": "function"
    },
    {
      "inputs": [
        {
          "internalType": "uint256",
          "name": "_pid",
          "type": "uint256"
        }
      ],
      "name": "updatePool",
      "outputs": [],
      "stateMutability": "nonpayable",
      "type": "function"
    },
    {
      "inputs": [],
      "name": "zorroLPPool",
      "outputs": [
        {
          "internalType": "address",
          "name": "",
          "type": "address"
        }
      ],
      "stateMutability": "view",
      "type": "function"
    },
    {
      "inputs": [],
      "name": "zorroLPPoolToken0",
      "outputs": [
        {
          "internalType": "address",
          "name": "",
          "type": "address"
        }
      ],
      "stateMutability": "view",
      "type": "function"
    },
    {
      "inputs": [],
      "name": "zorroLPPoolToken1",
      "outputs": [
        {
          "internalType": "address",
          "name": "",
          "type": "address"
        }
      ],
      "stateMutability": "view",
      "type": "function"
    },
    {
      "inputs": [],
      "name": "zorroStakingVault",
      "outputs": [
        {
          "internalType": "address",
          "name": "",
          "type": "address"
        }
      ],
      "stateMutability": "view",
      "type": "function"
    },
    {
      "inputs": [
        {
          "internalType": "uint256",
          "name": "_allocPoint",
          "type": "uint256"
        },
        {
          "internalType": "contract IERC20",
          "name": "_want",
          "type": "address"
        },
        {
          "internalType": "bool",
          "name": "_withUpdate",
          "type": "bool"
        },
        {
          "internalType": "address",
          "name": "_vault",
          "type": "address"
        },
        {
          "internalType": "address",
          "name": "_intermediaryToken",
          "type": "address"
        }
      ],
      "name": "add",
      "outputs": [],
      "stateMutability": "nonpayable",
      "type": "function"
    },
    {
      "inputs": [
        {
          "internalType": "uint256",
          "name": "_pid",
          "type": "uint256"
        },
        {
          "internalType": "uint256",
          "name": "_allocPoint",
          "type": "uint256"
        },
        {
          "internalType": "bool",
          "name": "_withUpdate",
          "type": "bool"
        },
        {
          "internalType": "address",
          "name": "_intermediaryToken",
          "type": "address"
        }
      ],
      "name": "set",
      "outputs": [],
      "stateMutability": "nonpayable",
      "type": "function"
    },
    {
      "inputs": [],
      "name": "massUpdatePools",
      "outputs": [],
      "stateMutability": "nonpayable",
      "type": "function"
    }
  ],
  "bytecode": "0x608060405260038054600160a060020a03191661dead179055600a600681905561708090556001600b8190556014600c55600d805460ff191690911790556103ca601955600060245534801561005457600080fd5b50610077610069640100000000610080810204565b640100000000610084810204565b600180556100d4565b3390565b60008054600160a060020a03838116600160a060020a0319831681178455604051919092169283917f8be0079c531659141344cd1fd0a4f28419497f9722a3daafe3b4186f6b6457e09190a35050565b611fd4806100e36000396000f3fe608060405234801561001057600080fd5b50600436106103d7576000357c0100000000000000000000000000000000000000000000000000000000900480637e49b84011610211578063b614bdba11610137578063cb9c2f68116100ca578063f2fde38b11610099578063f2fde38b14610946578063f35e4a6e14610959578063fc39a29e1461096c578063fde2ec981461097f57600080fd5b8063cb9c2f681461090e578063d731234714610917578063d85c55481461092a578063ed148bf31461093357600080fd5b8063c29de0d211610106578063c29de0d214610898578063c4f79c23146108df578063c6d758cb146108f2578063c9057de51461090557600080fd5b8063b614bdba1461084e578063b61bb80a14610861578063bb26a55414610879578063c27893ef1461088557600080fd5b80639a8a0592116101af578063a6fda0821161017e578063a6fda0821461075b578063a89802d3146107cd578063afecf266146107fb578063b4b4e9eb1461080e57600080fd5b80639a8a0592146107235780639b8ad2d61461072c5780639cde7a0014610735578063a4d2b0831461074857600080fd5b80638da5cb5b116101eb5780638da5cb5b146106cf578063941d3fd0146106e057806394909cc2146106fd57806398ee60e91461071057600080fd5b80637e49b840146106745780638b2bc852146106a95780638c157db2146106bc57600080fd5b806348cd4cb111610301578063693a090b1161029457806370d5ae051161026357806370d5ae051461063d578063715018a61461065057806376cc2303146106585780637bf604d81461066157600080fd5b8063693a090b146105cf5780636985b934146105e25780636c78d49c146105f55780636d7cb7e61461060857600080fd5b806353f73f87116102d057806353f73f87146105755780635527a6f9146105ab578063630b5ba1146105b4578063668ababb146105bc57600080fd5b806348cd4cb11461053d57806348d57c8e146105465780634cfea68a1461055957806351eb05a61461056257600080fd5b8063353b6c2c116103795780633bbc1ffc116103485780633bbc1ffc146104fc5780634098b0eb1461050f578063416d0de714610522578063441e36c61461053557600080fd5b8063353b6c2c146104c45780633b35b727146104d75780633b710688146104ea5780633b9ce565146104f357600080fd5b80631479a6df116103b55780631479a6df146104115780631526fe271461042457806317caf6f11461047a5780631ca95f941461048357600080fd5b806305bfc28f146103dc578063081e3eda146103f157806308da26fc14610408575b600080fd5b6103ef6103ea366004611b4a565b610992565b005b6022545b6040519081526020015b60405180910390f35b6103f560085481565b6103ef61041f366004611b4a565b6109cd565b610437610432366004611b4a565b6109ff565b60408051600160a060020a039889168152602081019790975286019490945260608501929092526080840152831660a083015290911660c082015260e0016103ff565b6103f560245481565b6104ac610491366004611b4a565b601060205260009081526040902054600160a060020a031681565b604051600160a060020a0390911681526020016103ff565b6103ef6104d2366004611b4a565b610a5c565b6103ef6104e5366004611b4a565b610a8e565b6103f560065481565b6103f5600c5481565b6103ef61050a366004611b4a565b610ac0565b6103ef61051d366004611b4a565b610af2565b600e546104ac90600160a060020a031681565b6103f5610b24565b6103f560045481565b6011546104ac90600160a060020a031681565b6103f5600a5481565b6103ef610570366004611b4a565b610c47565b6103f5610583366004611b78565b6000918252602360209081526040808420600160a060020a0393909316845291905290205490565b6103f5600b5481565b6103ef610eef565b6005546104ac90600160a060020a031681565b6012546104ac90600160a060020a031681565b6103ef6105f0366004611b4a565b610f7c565b6103ef610603366004611bb6565b61105b565b600f805461062a91700100000000000000000000000000000000909104900b81565b604051600f9190910b81526020016103ff565b6003546104ac90600160a060020a031681565b6103ef61109b565b6103f560185481565b601a546104ac90600160a060020a031681565b610697610682366004611bd3565b60216020526000908152604090205460ff1681565b60405160ff90911681526020016103ff565b601c546104ac90600160a060020a031681565b6002546104ac90600160a060020a031681565b600054600160a060020a03166104ac565b600d546106ed9060ff1681565b60405190151581526020016103ff565b6103ef61070b366004611bd3565b6110d4565b6104ac61071e366004611b4a565b611130565b6103f560155481565b6103f560195481565b6104ac610743366004611b4a565b61115a565b601d546104ac90600160a060020a031681565b6107a7610769366004611bf0565b602560209081526000938452604080852082529284528284209052825290208054600182015460028301546003909301549192909160ff9091169084565b6040805194855260208501939093529015159183019190915260608201526080016103ff565b6106976107db366004611c32565b601660209081526000928352604080842090915290825290205460ff1681565b6103ef610809366004611c54565b61116a565b61082161081c366004611c9e565b611266565b604080519687526020870195909552938501929092526060840152608083015260a082015260c0016103ff565b6104ac61085c366004611b4a565b6112c7565b600d546104ac906101009004600160a060020a031681565b600f805461062a910b81565b6013546104ac90600160a060020a031681565b6108ca6108a6366004611b78565b60266020908152600092835260408084209091529082529020805460019091015482565b604080519283526020830191909152016103ff565b6103ef6108ed366004611b78565b6112d7565b6103ef610900366004611cd6565b61133f565b6103f560075481565b6103f560095481565b6103ef610925366004611b4a565b611407565b6103f560175481565b601b546104ac90600160a060020a031681565b6103ef610954366004611bd3565b611439565b6103ef610967366004611b4a565b6114f1565b6014546104ac90600160a060020a031681565b6103ef61098d366004611d02565b611523565b600054600160a060020a031633146109c85760405160e560020a62461bcd0281526004016109bf90611d6a565b60405180910390fd5b600855565b600054600160a060020a031633146109fa5760405160e560020a62461bcd0281526004016109bf90611d6a565b600b55565b60228181548110610a0f57600080fd5b60009182526020909120600790910201805460018201546002830154600384015460048501546005860154600690960154600160a060020a03958616975093959294919390928216911687565b600054600160a060020a03163314610a895760405160e560020a62461bcd0281526004016109bf90611d6a565b600a55565b600054600160a060020a03163314610abb5760405160e560020a62461bcd0281526004016109bf90611d6a565b600c55565b600054600160a060020a03163314610aed5760405160e560020a62461bcd0281526004016109bf90611d6a565b600955565b600054600160a060020a03163314610b1f5760405160e560020a62461bcd0281526004016109bf90611d6a565b600655565b600080610b62600854610b5c610b4761271060095461172790919063ffffffff16565b600754600654610b569161173a565b9061173a565b90611727565b9050600c54811115610b775750600c54610b86565b600b54811015610b865750600b545b6002546005546040517f70a08231000000000000000000000000000000000000000000000000000000008152600160a060020a03918216600482015260009291909116906370a0823190602401602060405180830381865afa158015610bf0573d6000803e3d6000fd5b505050506040513d601f19601f82011682018060405250810190610c149190611d9f565b90506000610c28612710610b5c848661173a565b9050610c3f600a548261172790919063ffffffff16565b935050505090565b600060228281548110610c5c57610c5c611db8565b9060005260206000209060070201905080600201544311610c7b575050565b6000610c9482600201544361174690919063ffffffff16565b905060008111610ca357505050565b6000610cad610b24565b90506000610cd2602454610b5c8660010154610b56868861173a90919063ffffffff16565b601454909150600160a060020a0316301415610d2557600554600254610d0691600160a060020a0391821691163084611752565b6003840154610d159082611809565b6003850155436002850155610ee8565b6002546040517f40c10f1900000000000000000000000000000000000000000000000000000000815230600482015260248101839052600160a060020a03909116906340c10f1990604401600060405180830381600087803b158015610d8a57600080fd5b505af1158015610d9e573d6000803e3d6000fd5b5050600080525050601060209081527f6e0956cda88cad152e89927e53611735b61a5c762d1428573c6931b0a5efcb01546014546040516c01000000000000000000000000600160a060020a0392831602938101939093521690819063edf54e479060340160405160208183030381529060405284604051602401610e2591815260200190565b60408051601f198184030181529181526020820180517bffffffffffffffffffffffffffffffffffffffffffffffffffffffff167f7a04bfc300000000000000000000000000000000000000000000000000000000179052517c010000000000000000000000000000000000000000000000000000000063ffffffff8516028152610eb4929190600401611e3f565b600060405180830381600087803b158015610ece57600080fd5b505af1158015610ee2573d6000803e3d6000fd5b50505050505b5050505050565b60225460005b81811015610f78576040517f51eb05a60000000000000000000000000000000000000000000000000000000081526004810182905230906351eb05a690602401600060405180830381600087803b158015610f4f57600080fd5b505af1158015610f63573d6000803e3d6000fd5b5050505080610f7190611eae565b9050610ef5565b5050565b3360009081526021602052604090205460ff16610fde5760405160e560020a62461bcd02815260206004820152601960248201527f6f6e6c79207265672078636861696e20656e64706f696e74730000000000000060448201526064016109bf565b6002546005546040517f9dc29fac000000000000000000000000000000000000000000000000000000008152600160a060020a03918216600482015260248101849052911690639dc29fac90604401600060405180830381600087803b15801561104757600080fd5b505af1158015610ee8573d6000803e3d6000fd5b600054600160a060020a031633146110885760405160e560020a62461bcd0281526004016109bf90611d6a565b600d805460ff1916911515919091179055565b600054600160a060020a031633146110c85760405160e560020a62461bcd0281526004016109bf90611d6a565b6110d26000611815565b565b600054600160a060020a031633146111015760405160e560020a62461bcd0281526004016109bf90611d6a565b6005805473ffffffffffffffffffffffffffffffffffffffff1916600160a060020a0392909216919091179055565b601e818154811061114057600080fd5b600091825260209091200154600160a060020a0316905081565b6020818154811061114057600080fd5b600054600160a060020a031633146111975760405160e560020a62461bcd0281526004016109bf90611d6a565b81156111a5576111a5610eef565b6111e8836111e2602287815481106111bf576111bf611db8565b90600052602060002090600702016001015460245461174690919063ffffffff16565b90611809565b602481905550826022858154811061120257611202611db8565b906000526020600020906007020160010181905550806022858154811061122b5761122b611db8565b906000526020600020906007020160060160006101000a815481600160a060020a030219169083600160a060020a0316021790555050505050565b6023602052826000526040600020602052816000526040600020818154811061128e57600080fd5b60009182526020909120600690910201805460018201546002830154600384015460048501546005909501549397509195509350919086565b601f818154811061114057600080fd5b600054600160a060020a031633146113045760405160e560020a62461bcd0281526004016109bf90611d6a565b600091825260106020526040909120805473ffffffffffffffffffffffffffffffffffffffff1916600160a060020a03909216919091179055565b600054600160a060020a0316331461136c5760405160e560020a62461bcd0281526004016109bf90611d6a565b600254600160a060020a03838116911614156113f35760405160e560020a62461bcd02815260206004820152603560248201527f217361666520746f20757365205a6f72726f20746f6b656e20696e2066756e6360448201527f20696e43617365546f6b656e73476574537475636b000000000000000000000060648201526084016109bf565b610f78600160a060020a0383163383611872565b600054600160a060020a031633146114345760405160e560020a62461bcd0281526004016109bf90611d6a565b600755565b600054600160a060020a031633146114665760405160e560020a62461bcd0281526004016109bf90611d6a565b600160a060020a0381166114e55760405160e560020a62461bcd02815260206004820152602660248201527f4f776e61626c653a206e6577206f776e657220697320746865207a65726f206160448201527f646472657373000000000000000000000000000000000000000000000000000060648201526084016109bf565b6114ee81611815565b50565b600054600160a060020a0316331461151e5760405160e560020a62461bcd0281526004016109bf90611d6a565b600455565b600054600160a060020a031633146115505760405160e560020a62461bcd0281526004016109bf90611d6a565b821561155e5761155e610eef565b6000600454431161157157600454611573565b435b6024549091506115839087611809565b6024556040805160e081018252600160a060020a039687168152602081019788529081019182526000606082018181526080830182815295881660a0840190815294881660c08401908152602280546001810182559352925160079092027f61035b26e3e9eee00e0d72fd1ee8ddca6894550dca6916ea2ac6baa90d11e51081018054938a1673ffffffffffffffffffffffffffffffffffffffff1994851617905598517f61035b26e3e9eee00e0d72fd1ee8ddca6894550dca6916ea2ac6baa90d11e5118a015592517f61035b26e3e9eee00e0d72fd1ee8ddca6894550dca6916ea2ac6baa90d11e51289015591517f61035b26e3e9eee00e0d72fd1ee8ddca6894550dca6916ea2ac6baa90d11e51388015592517f61035b26e3e9eee00e0d72fd1ee8ddca6894550dca6916ea2ac6baa90d11e51487015590517f61035b26e3e9eee00e0d72fd1ee8ddca6894550dca6916ea2ac6baa90d11e5158601805491861691831691909117905590517f61035b26e3e9eee00e0d72fd1ee8ddca6894550dca6916ea2ac6baa90d11e516909401805494909316931692909217905550565b60006117338284611ec9565b9392505050565b60006117338284611f04565b60006117338284611f23565b604051600160a060020a03808516602483015283166044820152606481018290526118039085907f23b872dd00000000000000000000000000000000000000000000000000000000906084015b60408051601f198184030181529190526020810180517bffffffffffffffffffffffffffffffffffffffffffffffffffffffff167fffffffff00000000000000000000000000000000000000000000000000000000909316929092179091526118c0565b50505050565b60006117338284611f3a565b60008054600160a060020a0383811673ffffffffffffffffffffffffffffffffffffffff19831681178455604051919092169283917f8be0079c531659141344cd1fd0a4f28419497f9722a3daafe3b4186f6b6457e09190a35050565b604051600160a060020a0383166024820152604481018290526118bb9084907fa9059cbb000000000000000000000000000000000000000000000000000000009060640161179f565b505050565b6000611915826040518060400160405280602081526020017f5361666545524332303a206c6f772d6c6576656c2063616c6c206661696c656481525085600160a060020a03166119a89092919063ffffffff16565b8051909150156118bb57808060200190518101906119339190611f52565b6118bb5760405160e560020a62461bcd02815260206004820152602a60248201527f5361666545524332303a204552433230206f7065726174696f6e20646964206e60448201527f6f7420737563636565640000000000000000000000000000000000000000000060648201526084016109bf565b60606119b784846000856119bf565b949350505050565b60603031831115611a3b5760405160e560020a62461bcd02815260206004820152602660248201527f416464726573733a20696e73756666696369656e742062616c616e636520666f60448201527f722063616c6c000000000000000000000000000000000000000000000000000060648201526084016109bf565b600160a060020a0385163b611a955760405160e560020a62461bcd02815260206004820152601d60248201527f416464726573733a2063616c6c20746f206e6f6e2d636f6e747261637400000060448201526064016109bf565b60008086600160a060020a03168587604051611ab19190611f6f565b60006040518083038185875af1925050503d8060008114611aee576040519150601f19603f3d011682016040523d82523d6000602084013e611af3565b606091505b5091509150611b03828286611b0e565b979650505050505050565b60608315611b1d575081611733565b825115611b2d5782518084602001fd5b8160405160e560020a62461bcd0281526004016109bf9190611f8b565b600060208284031215611b5c57600080fd5b5035919050565b600160a060020a03811681146114ee57600080fd5b60008060408385031215611b8b57600080fd5b823591506020830135611b9d81611b63565b809150509250929050565b80151581146114ee57600080fd5b600060208284031215611bc857600080fd5b813561173381611ba8565b600060208284031215611be557600080fd5b813561173381611b63565b600080600060608486031215611c0557600080fd5b833592506020840135611c1781611b63565b91506040840135611c2781611b63565b809150509250925092565b60008060408385031215611c4557600080fd5b50508035926020909101359150565b60008060008060808587031215611c6a57600080fd5b84359350602085013592506040850135611c8381611ba8565b91506060850135611c9381611b63565b939692955090935050565b600080600060608486031215611cb357600080fd5b833592506020840135611cc581611b63565b929592945050506040919091013590565b60008060408385031215611ce957600080fd5b8235611cf481611b63565b946020939093013593505050565b600080600080600060a08688031215611d1a57600080fd5b853594506020860135611d2c81611b63565b93506040860135611d3c81611ba8565b92506060860135611d4c81611b63565b91506080860135611d5c81611b63565b809150509295509295909350565b6020808252818101527f4f776e61626c653a2063616c6c6572206973206e6f7420746865206f776e6572604082015260600190565b600060208284031215611db157600080fd5b5051919050565b7f4e487b7100000000000000000000000000000000000000000000000000000000600052603260045260246000fd5b60005b83811015611e02578181015183820152602001611dea565b838111156118035750506000910152565b60008151808452611e2b816020860160208601611de7565b601f01601f19169290920160200192915050565b606081526000611e526060830185611e13565b8281036020840152611e648185611e13565b83810360409094019390935250506000815260200192915050565b7f4e487b7100000000000000000000000000000000000000000000000000000000600052601160045260246000fd5b6000600019821415611ec257611ec2611e7f565b5060010190565b600082611eff577f4e487b7100000000000000000000000000000000000000000000000000000000600052601260045260246000fd5b500490565b6000816000190483118215151615611f1e57611f1e611e7f565b500290565b600082821015611f3557611f35611e7f565b500390565b60008219821115611f4d57611f4d611e7f565b500190565b600060208284031215611f6457600080fd5b815161173381611ba8565b60008251611f81818460208701611de7565b9190910192915050565b6020815260006117336020830184611e1356fea264697066735822122084a87e468485ac0de1af8f371efca872552bd84c1695759c7ff27af5e190f0e264736f6c634300080a0033",
  "immutableReferences": {},
  "source": "// SPDX-License-Identifier: MIT\npragma solidity ^0.8.0;\n\nimport \"./_ZorroControllerBase.sol\";\n\nimport \"@openzeppelin/contracts/utils/math/SafeMath.sol\";\n\ncontract ZorroControllerPoolMgmt is ZorroControllerBase {\n    /* Libraries */\n    using SafeMath for uint256;\n    \n    /* Pool management */\n\n    /// @notice Adds a new pool. Can only be called by the owner.\n    /// @dev DO NOT add the same Want token more than once. Rewards will be messed up if you do. (Only if Want tokens are stored here.)\n    /// @param _allocPoint The number of allocation points for this pool (aka \"multiplier\")\n    /// @param _want The address of the want token\n    /// @param _withUpdate  Mass update all pools if set to true\n    /// @param _vault The contract address of the underlying vault\n    /// @param _intermediaryToken The address of an intermediary token (i.e. what is returned back to the user upon withdrawal) or 0 (only applicable for protocols like Tranchess)\n    function add(\n        uint256 _allocPoint,\n        IERC20 _want,\n        bool _withUpdate,\n        address _vault,\n        address _intermediaryToken\n    ) public onlyOwner {\n        // If _withUpdate provided, update all pools\n        if (_withUpdate) {\n            massUpdatePools();\n        }\n        // Last reward block set to current block, or the start block if the startBlock hasn't been provided\n        uint256 lastRewardBlock = block.number > startBlock ? block.number : startBlock;\n        // Increment the total allocation points by the provided _allocPoint\n        totalAllocPoint = totalAllocPoint.add(_allocPoint);\n        // Push to the poolInfo array\n        poolInfo.push(\n            PoolInfo({\n                want: _want,\n                allocPoint: _allocPoint,\n                lastRewardBlock: lastRewardBlock,\n                accZORRORewards: 0,\n                totalTrancheContributions: 0,\n                vault: _vault,\n                intermediaryToken: _intermediaryToken\n            })\n        );\n    }\n\n    /// @notice Update the given pool's ZORRO allocation point. Can only be called by the owner.\n    /// @param _pid The index of the pool ID\n    /// @param _allocPoint The number of allocation points for this pool (aka \"multiplier\")\n    /// @param _withUpdate  Mass update all pools if set to true\n    /// @param _intermediaryToken The address of an intermediary token (i.e. what is returned back to the user upon withdrawal) or 0 (only applicable for protocols like Tranchess)\n    function set(\n        uint256 _pid,\n        uint256 _allocPoint,\n        bool _withUpdate, \n        address _intermediaryToken\n    ) public onlyOwner {\n        // If _withUpdate provided, update all pools\n        if (_withUpdate) {\n            massUpdatePools();\n        }\n        // Adjust the total allocation points by the provided _allocPoint\n        totalAllocPoint = totalAllocPoint.sub(poolInfo[_pid].allocPoint).add(_allocPoint);\n        // Update the key params for this pool\n        poolInfo[_pid].allocPoint = _allocPoint;\n        poolInfo[_pid].intermediaryToken = _intermediaryToken;\n    }\n\n    /// @notice Updates reward variables of all pools\n    /// @dev Be careful of gas fees!\n    function massUpdatePools() public {\n        uint256 length = poolInfo.length;\n        // Iterate through each pool and run updatePool()\n        for (uint256 pid = 0; pid < length; ++pid) {\n            this.updatePool(pid);\n        }\n    }\n}\n",
  "sourcePath": "/Users/kristophm/Documents/workspace/zorro-protocol/contracts/controllers/_ZorroControllerPoolMgmt.sol",
  "compiler": {
    "name": "solc",
    "version": "0.8.10+commit.fc410830.Emscripten.clang"
  },
  "schemaVersion": "3.4.4",
  "updatedAt": "2022-03-06T20:06:28.477Z",
  "devdoc": {
    "kind": "dev",
    "methods": {
      "add(uint256,address,bool,address,address)": {
        "details": "DO NOT add the same Want token more than once. Rewards will be messed up if you do. (Only if Want tokens are stored here.)",
        "params": {
          "_allocPoint": "The number of allocation points for this pool (aka \"multiplier\")",
          "_intermediaryToken": "The address of an intermediary token (i.e. what is returned back to the user upon withdrawal) or 0 (only applicable for protocols like Tranchess)",
          "_vault": "The contract address of the underlying vault",
          "_want": "The address of the want token",
          "_withUpdate": "Mass update all pools if set to true"
        }
      },
      "getZorroPerBlock()": {
        "returns": {
          "_0": "Number of Zorro tokens per block"
        }
      },
      "inCaseTokensGetStuck(address,uint256)": {
        "details": "Does not permit usage for the Zorro token",
        "params": {
          "_amount": "token quantity",
          "_token": "ERC20 token address"
        }
      },
      "massUpdatePools()": {
        "details": "Be careful of gas fees!"
      },
      "owner()": {
        "details": "Returns the address of the current owner."
      },
      "poolLength()": {
        "returns": {
          "_0": "Number of pools"
        }
      },
      "receiveXChainBurnRewardsRequest(uint256)": {
        "params": {
          "_amount": "The quantity of ZOR tokens to burn"
        }
      },
      "renounceOwnership()": {
        "details": "Leaves the contract without owner. It will not be possible to call `onlyOwner` functions anymore. Can only be called by the current owner. NOTE: Renouncing ownership will leave the contract without an owner, thereby removing any functionality that is only available to the owner."
      },
      "set(uint256,uint256,bool,address)": {
        "params": {
          "_allocPoint": "The number of allocation points for this pool (aka \"multiplier\")",
          "_intermediaryToken": "The address of an intermediary token (i.e. what is returned back to the user upon withdrawal) or 0 (only applicable for protocols like Tranchess)",
          "_pid": "The index of the pool ID",
          "_withUpdate": "Mass update all pools if set to true"
        }
      },
      "trancheLength(uint256,address)": {
        "params": {
          "_pid": "Index of pool",
          "_user": "wallet address of user"
        },
        "returns": {
          "_0": "Number of tranches"
        }
      },
      "transferOwnership(address)": {
        "details": "Transfers ownership of the contract to a new account (`newOwner`). Can only be called by the current owner."
      },
      "updatePool(uint256)": {
        "params": {
          "_pid": "index of pool"
        }
      }
    },
    "version": 1
  },
  "userdoc": {
    "kind": "user",
    "methods": {
      "add(uint256,address,bool,address,address)": {
        "notice": "Adds a new pool. Can only be called by the owner."
      },
      "getZorroPerBlock()": {
        "notice": "Determine the number of Zorro to emit per block based on current market parameters"
      },
      "inCaseTokensGetStuck(address,uint256)": {
        "notice": "For owner to recover ERC20 tokens on this contract if stuck"
      },
      "massUpdatePools()": {
        "notice": "Updates reward variables of all pools"
      },
      "poolLength()": {
        "notice": "Number of pools in the Zorro protocol"
      },
      "receiveXChainBurnRewardsRequest(uint256)": {
        "notice": "Receives an authorized burn request from another chain and burns the specified amount of ZOR tokens from the public pool"
      },
      "set(uint256,uint256,bool,address)": {
        "notice": "Update the given pool's ZORRO allocation point. Can only be called by the owner."
      },
      "trancheLength(uint256,address)": {
        "notice": "Number of tranches invested by a given user into a given pool"
      },
      "updatePool(uint256)": {
        "notice": "Update reward variables of the given pool to be up-to-date."
      }
    },
    "version": 1
  }
}