{
  "contractName": "ZorroControllerXChainWithdraw",
  "abi": [
    {
      "anonymous": false,
      "inputs": [
        {
          "indexed": true,
          "internalType": "address",
          "name": "user",
          "type": "address"
        },
        {
          "indexed": true,
          "internalType": "uint256",
          "name": "pid",
          "type": "uint256"
        },
        {
          "indexed": false,
          "internalType": "uint256",
          "name": "wantAmount",
          "type": "uint256"
        }
      ],
      "name": "Deposit",
      "type": "event"
    },
    {
      "anonymous": false,
      "inputs": [
        {
          "indexed": true,
          "internalType": "address",
          "name": "previousOwner",
          "type": "address"
        },
        {
          "indexed": true,
          "internalType": "address",
          "name": "newOwner",
          "type": "address"
        }
      ],
      "name": "OwnershipTransferred",
      "type": "event"
    },
    {
      "anonymous": false,
      "inputs": [
        {
          "indexed": false,
          "internalType": "address",
          "name": "user",
          "type": "address"
        },
        {
          "indexed": true,
          "internalType": "uint256",
          "name": "fromPid",
          "type": "uint256"
        },
        {
          "indexed": true,
          "internalType": "uint256",
          "name": "fromTrancheId",
          "type": "uint256"
        },
        {
          "indexed": true,
          "internalType": "uint256",
          "name": "toPid",
          "type": "uint256"
        }
      ],
      "name": "TransferInvestment",
      "type": "event"
    },
    {
      "anonymous": false,
      "inputs": [
        {
          "indexed": true,
          "internalType": "address",
          "name": "user",
          "type": "address"
        },
        {
          "indexed": true,
          "internalType": "uint256",
          "name": "pid",
          "type": "uint256"
        },
        {
          "indexed": false,
          "internalType": "uint256",
          "name": "trancheId",
          "type": "uint256"
        },
        {
          "indexed": false,
          "internalType": "uint256",
          "name": "wantAmount",
          "type": "uint256"
        }
      ],
      "name": "Withdraw",
      "type": "event"
    },
    {
      "inputs": [
        {
          "internalType": "uint256",
          "name": "",
          "type": "uint256"
        }
      ],
      "name": "USDCToZorroLPPoolToken0Path",
      "outputs": [
        {
          "internalType": "address",
          "name": "",
          "type": "address"
        }
      ],
      "stateMutability": "view",
      "type": "function"
    },
    {
      "inputs": [
        {
          "internalType": "uint256",
          "name": "",
          "type": "uint256"
        }
      ],
      "name": "USDCToZorroLPPoolToken1Path",
      "outputs": [
        {
          "internalType": "address",
          "name": "",
          "type": "address"
        }
      ],
      "stateMutability": "view",
      "type": "function"
    },
    {
      "inputs": [
        {
          "internalType": "uint256",
          "name": "",
          "type": "uint256"
        }
      ],
      "name": "USDCToZorroPath",
      "outputs": [
        {
          "internalType": "address",
          "name": "",
          "type": "address"
        }
      ],
      "stateMutability": "view",
      "type": "function"
    },
    {
      "inputs": [],
      "name": "ZORRO",
      "outputs": [
        {
          "internalType": "address",
          "name": "",
          "type": "address"
        }
      ],
      "stateMutability": "view",
      "type": "function"
    },
    {
      "inputs": [],
      "name": "ZORRODailyDistributionFactorBasisPointsMax",
      "outputs": [
        {
          "internalType": "uint256",
          "name": "",
          "type": "uint256"
        }
      ],
      "stateMutability": "view",
      "type": "function"
    },
    {
      "inputs": [],
      "name": "ZORRODailyDistributionFactorBasisPointsMin",
      "outputs": [
        {
          "internalType": "uint256",
          "name": "",
          "type": "uint256"
        }
      ],
      "stateMutability": "view",
      "type": "function"
    },
    {
      "inputs": [],
      "name": "ZORROPerBlock",
      "outputs": [
        {
          "internalType": "uint256",
          "name": "",
          "type": "uint256"
        }
      ],
      "stateMutability": "view",
      "type": "function"
    },
    {
      "inputs": [],
      "name": "baseRewardRateBasisPoints",
      "outputs": [
        {
          "internalType": "uint256",
          "name": "",
          "type": "uint256"
        }
      ],
      "stateMutability": "view",
      "type": "function"
    },
    {
      "inputs": [],
      "name": "blocksPerDay",
      "outputs": [
        {
          "internalType": "uint256",
          "name": "",
          "type": "uint256"
        }
      ],
      "stateMutability": "view",
      "type": "function"
    },
    {
      "inputs": [],
      "name": "burnAddress",
      "outputs": [
        {
          "internalType": "address",
          "name": "",
          "type": "address"
        }
      ],
      "stateMutability": "view",
      "type": "function"
    },
    {
      "inputs": [],
      "name": "chainId",
      "outputs": [
        {
          "internalType": "uint256",
          "name": "",
          "type": "uint256"
        }
      ],
      "stateMutability": "view",
      "type": "function"
    },
    {
      "inputs": [],
      "name": "chainMultiplier",
      "outputs": [
        {
          "internalType": "uint256",
          "name": "",
          "type": "uint256"
        }
      ],
      "stateMutability": "view",
      "type": "function"
    },
    {
      "inputs": [],
      "name": "curveDefaultStablecoinIndex",
      "outputs": [
        {
          "internalType": "int128",
          "name": "",
          "type": "int128"
        }
      ],
      "stateMutability": "view",
      "type": "function"
    },
    {
      "inputs": [],
      "name": "curveStablePoolAddress",
      "outputs": [
        {
          "internalType": "address",
          "name": "",
          "type": "address"
        }
      ],
      "stateMutability": "view",
      "type": "function"
    },
    {
      "inputs": [],
      "name": "curveSyntheticStablecoinIndex",
      "outputs": [
        {
          "internalType": "int128",
          "name": "",
          "type": "int128"
        }
      ],
      "stateMutability": "view",
      "type": "function"
    },
    {
      "inputs": [],
      "name": "defaultMaxMarketMovement",
      "outputs": [
        {
          "internalType": "uint256",
          "name": "",
          "type": "uint256"
        }
      ],
      "stateMutability": "view",
      "type": "function"
    },
    {
      "inputs": [],
      "name": "defaultStablecoin",
      "outputs": [
        {
          "internalType": "address",
          "name": "",
          "type": "address"
        }
      ],
      "stateMutability": "view",
      "type": "function"
    },
    {
      "inputs": [
        {
          "internalType": "uint256",
          "name": "_pid",
          "type": "uint256"
        },
        {
          "internalType": "uint256",
          "name": "_wantAmt",
          "type": "uint256"
        },
        {
          "internalType": "uint256",
          "name": "_weeksCommitted",
          "type": "uint256"
        }
      ],
      "name": "deposit",
      "outputs": [],
      "stateMutability": "nonpayable",
      "type": "function"
    },
    {
      "inputs": [
        {
          "internalType": "uint256",
          "name": "_pid",
          "type": "uint256"
        },
        {
          "internalType": "uint256",
          "name": "_valueUSDC",
          "type": "uint256"
        },
        {
          "internalType": "uint256",
          "name": "_weeksCommitted",
          "type": "uint256"
        },
        {
          "internalType": "uint256",
          "name": "_maxMarketMovement",
          "type": "uint256"
        }
      ],
      "name": "depositFullService",
      "outputs": [],
      "stateMutability": "nonpayable",
      "type": "function"
    },
    {
      "inputs": [
        {
          "internalType": "uint256",
          "name": "",
          "type": "uint256"
        }
      ],
      "name": "endpointContracts",
      "outputs": [
        {
          "internalType": "address",
          "name": "",
          "type": "address"
        }
      ],
      "stateMutability": "view",
      "type": "function"
    },
    {
      "inputs": [],
      "name": "failedLockedBuybackUSDC",
      "outputs": [
        {
          "internalType": "uint256",
          "name": "",
          "type": "uint256"
        }
      ],
      "stateMutability": "view",
      "type": "function"
    },
    {
      "inputs": [],
      "name": "failedLockedRevShareUSDC",
      "outputs": [
        {
          "internalType": "uint256",
          "name": "",
          "type": "uint256"
        }
      ],
      "stateMutability": "view",
      "type": "function"
    },
    {
      "inputs": [
        {
          "internalType": "uint256",
          "name": "",
          "type": "uint256"
        },
        {
          "internalType": "bytes",
          "name": "",
          "type": "bytes"
        },
        {
          "internalType": "uint256",
          "name": "",
          "type": "uint256"
        }
      ],
      "name": "foreignTrancheInfo",
      "outputs": [
        {
          "internalType": "uint256",
          "name": "trancheIndex",
          "type": "uint256"
        },
        {
          "internalType": "address",
          "name": "localAccount",
          "type": "address"
        }
      ],
      "stateMutability": "view",
      "type": "function"
    },
    {
      "inputs": [
        {
          "internalType": "uint256",
          "name": "durationInWeeks",
          "type": "uint256"
        }
      ],
      "name": "getTimeMultiplier",
      "outputs": [
        {
          "internalType": "uint256",
          "name": "",
          "type": "uint256"
        }
      ],
      "stateMutability": "view",
      "type": "function"
    },
    {
      "inputs": [
        {
          "internalType": "uint256",
          "name": "_liquidityCommitted",
          "type": "uint256"
        },
        {
          "internalType": "uint256",
          "name": "_timeMultiplier",
          "type": "uint256"
        }
      ],
      "name": "getUserContribution",
      "outputs": [
        {
          "internalType": "uint256",
          "name": "",
          "type": "uint256"
        }
      ],
      "stateMutability": "pure",
      "type": "function"
    },
    {
      "inputs": [],
      "name": "homeChainId",
      "outputs": [
        {
          "internalType": "uint8",
          "name": "",
          "type": "uint8"
        }
      ],
      "stateMutability": "view",
      "type": "function"
    },
    {
      "inputs": [],
      "name": "homeChainZorroController",
      "outputs": [
        {
          "internalType": "address",
          "name": "",
          "type": "address"
        }
      ],
      "stateMutability": "view",
      "type": "function"
    },
    {
      "inputs": [
        {
          "internalType": "address",
          "name": "_token",
          "type": "address"
        },
        {
          "internalType": "uint256",
          "name": "_amount",
          "type": "uint256"
        }
      ],
      "name": "inCaseTokensGetStuck",
      "outputs": [],
      "stateMutability": "nonpayable",
      "type": "function"
    },
    {
      "inputs": [],
      "name": "isTimeMultiplierActive",
      "outputs": [
        {
          "internalType": "bool",
          "name": "",
          "type": "bool"
        }
      ],
      "stateMutability": "view",
      "type": "function"
    },
    {
      "inputs": [],
      "name": "layerZeroEndpoint",
      "outputs": [
        {
          "internalType": "address",
          "name": "",
          "type": "address"
        }
      ],
      "stateMutability": "view",
      "type": "function"
    },
    {
      "inputs": [],
      "name": "lockUSDCController",
      "outputs": [
        {
          "internalType": "address",
          "name": "",
          "type": "address"
        }
      ],
      "stateMutability": "view",
      "type": "function"
    },
    {
      "inputs": [],
      "name": "owner",
      "outputs": [
        {
          "internalType": "address",
          "name": "",
          "type": "address"
        }
      ],
      "stateMutability": "view",
      "type": "function"
    },
    {
      "inputs": [
        {
          "internalType": "uint256",
          "name": "",
          "type": "uint256"
        }
      ],
      "name": "poolInfo",
      "outputs": [
        {
          "internalType": "contract IERC20",
          "name": "want",
          "type": "address"
        },
        {
          "internalType": "uint256",
          "name": "allocPoint",
          "type": "uint256"
        },
        {
          "internalType": "uint256",
          "name": "lastRewardBlock",
          "type": "uint256"
        },
        {
          "internalType": "uint256",
          "name": "accZORRORewards",
          "type": "uint256"
        },
        {
          "internalType": "uint256",
          "name": "totalTrancheContributions",
          "type": "uint256"
        },
        {
          "internalType": "address",
          "name": "vault",
          "type": "address"
        }
      ],
      "stateMutability": "view",
      "type": "function"
    },
    {
      "inputs": [],
      "name": "poolLength",
      "outputs": [
        {
          "internalType": "uint256",
          "name": "",
          "type": "uint256"
        }
      ],
      "stateMutability": "view",
      "type": "function"
    },
    {
      "inputs": [],
      "name": "publicPool",
      "outputs": [
        {
          "internalType": "address",
          "name": "",
          "type": "address"
        }
      ],
      "stateMutability": "view",
      "type": "function"
    },
    {
      "inputs": [
        {
          "internalType": "uint256",
          "name": "_amount",
          "type": "uint256"
        }
      ],
      "name": "receiveXChainBurnRewardsRequest",
      "outputs": [],
      "stateMutability": "nonpayable",
      "type": "function"
    },
    {
      "inputs": [
        {
          "internalType": "uint256",
          "name": "",
          "type": "uint256"
        },
        {
          "internalType": "address",
          "name": "",
          "type": "address"
        }
      ],
      "name": "redepositInfo",
      "outputs": [
        {
          "internalType": "uint256",
          "name": "durationCommittedInWeeks",
          "type": "uint256"
        },
        {
          "internalType": "uint256",
          "name": "enteredVaultAt",
          "type": "uint256"
        }
      ],
      "stateMutability": "view",
      "type": "function"
    },
    {
      "inputs": [
        {
          "internalType": "bytes",
          "name": "_contract",
          "type": "bytes"
        }
      ],
      "name": "registerXChainController",
      "outputs": [],
      "stateMutability": "nonpayable",
      "type": "function"
    },
    {
      "inputs": [
        {
          "internalType": "address",
          "name": "_contract",
          "type": "address"
        }
      ],
      "name": "registerXChainEndpoint",
      "outputs": [],
      "stateMutability": "nonpayable",
      "type": "function"
    },
    {
      "inputs": [
        {
          "internalType": "bytes",
          "name": "",
          "type": "bytes"
        }
      ],
      "name": "registeredXChainControllers",
      "outputs": [
        {
          "internalType": "bool",
          "name": "",
          "type": "bool"
        }
      ],
      "stateMutability": "view",
      "type": "function"
    },
    {
      "inputs": [
        {
          "internalType": "address",
          "name": "",
          "type": "address"
        }
      ],
      "name": "registeredXChainEndpoints",
      "outputs": [
        {
          "internalType": "uint8",
          "name": "",
          "type": "uint8"
        }
      ],
      "stateMutability": "view",
      "type": "function"
    },
    {
      "inputs": [],
      "name": "renounceOwnership",
      "outputs": [],
      "stateMutability": "nonpayable",
      "type": "function"
    },
    {
      "inputs": [
        {
          "internalType": "uint256",
          "name": "_baseRewardRateBasisPoints",
          "type": "uint256"
        }
      ],
      "name": "setBaseRewardRateBasisPoints",
      "outputs": [],
      "stateMutability": "nonpayable",
      "type": "function"
    },
    {
      "inputs": [
        {
          "internalType": "uint256",
          "name": "_blocksPerDay",
          "type": "uint256"
        }
      ],
      "name": "setBlocksPerDay",
      "outputs": [],
      "stateMutability": "nonpayable",
      "type": "function"
    },
    {
      "inputs": [
        {
          "internalType": "uint256",
          "name": "_chainId",
          "type": "uint256"
        }
      ],
      "name": "setChainId",
      "outputs": [],
      "stateMutability": "nonpayable",
      "type": "function"
    },
    {
      "inputs": [
        {
          "internalType": "uint256",
          "name": "_chainMultiplier",
          "type": "uint256"
        }
      ],
      "name": "setChainMultiplier",
      "outputs": [],
      "stateMutability": "nonpayable",
      "type": "function"
    },
    {
      "inputs": [
        {
          "internalType": "address",
          "name": "_curveStablePoolAddress",
          "type": "address"
        }
      ],
      "name": "setCurveStablePoolAddress",
      "outputs": [],
      "stateMutability": "nonpayable",
      "type": "function"
    },
    {
      "inputs": [
        {
          "internalType": "uint256",
          "name": "_defaultMaxMarketMovement",
          "type": "uint256"
        }
      ],
      "name": "setDefaultMaxMarketMovement",
      "outputs": [],
      "stateMutability": "nonpayable",
      "type": "function"
    },
    {
      "inputs": [
        {
          "internalType": "address",
          "name": "_defaultStablecoin",
          "type": "address"
        }
      ],
      "name": "setDefaultStablecoin",
      "outputs": [],
      "stateMutability": "nonpayable",
      "type": "function"
    },
    {
      "inputs": [
        {
          "internalType": "uint256",
          "name": "_chainId",
          "type": "uint256"
        },
        {
          "internalType": "address",
          "name": "_endpointContract",
          "type": "address"
        }
      ],
      "name": "setEndpointContracts",
      "outputs": [],
      "stateMutability": "nonpayable",
      "type": "function"
    },
    {
      "inputs": [
        {
          "internalType": "address",
          "name": "_homeChainZorroController",
          "type": "address"
        }
      ],
      "name": "setHomeChainZorroController",
      "outputs": [],
      "stateMutability": "nonpayable",
      "type": "function"
    },
    {
      "inputs": [
        {
          "internalType": "bool",
          "name": "_isActive",
          "type": "bool"
        }
      ],
      "name": "setIsTimeMultiplierActive",
      "outputs": [],
      "stateMutability": "nonpayable",
      "type": "function"
    },
    {
      "inputs": [
        {
          "internalType": "address",
          "name": "_lockUSDCController",
          "type": "address"
        }
      ],
      "name": "setLockUSDCController",
      "outputs": [],
      "stateMutability": "nonpayable",
      "type": "function"
    },
    {
      "inputs": [
        {
          "internalType": "address",
          "name": "_priceFeedLPPoolToken",
          "type": "address"
        }
      ],
      "name": "setPriceFeedLPPoolToken0",
      "outputs": [],
      "stateMutability": "nonpayable",
      "type": "function"
    },
    {
      "inputs": [
        {
          "internalType": "address",
          "name": "_priceFeedLPPoolToken",
          "type": "address"
        }
      ],
      "name": "setPriceFeedLPPoolToken1",
      "outputs": [],
      "stateMutability": "nonpayable",
      "type": "function"
    },
    {
      "inputs": [
        {
          "internalType": "address",
          "name": "_publicPoolAddress",
          "type": "address"
        }
      ],
      "name": "setPublicPool",
      "outputs": [],
      "stateMutability": "nonpayable",
      "type": "function"
    },
    {
      "inputs": [
        {
          "internalType": "uint256",
          "name": "_blockNumber",
          "type": "uint256"
        }
      ],
      "name": "setStartBlock",
      "outputs": [],
      "stateMutability": "nonpayable",
      "type": "function"
    },
    {
      "inputs": [
        {
          "internalType": "address",
          "name": "_syntheticStablecoin",
          "type": "address"
        }
      ],
      "name": "setSyntheticStablecoin",
      "outputs": [],
      "stateMutability": "nonpayable",
      "type": "function"
    },
    {
      "inputs": [
        {
          "internalType": "uint256",
          "name": "_targetTVLCaptureBasisPoints",
          "type": "uint256"
        }
      ],
      "name": "setTargetTVLCaptureBasisPoints",
      "outputs": [],
      "stateMutability": "nonpayable",
      "type": "function"
    },
    {
      "inputs": [
        {
          "internalType": "address[]",
          "name": "_path",
          "type": "address[]"
        }
      ],
      "name": "setUSDCToZorroLPPoolToken0Path",
      "outputs": [],
      "stateMutability": "nonpayable",
      "type": "function"
    },
    {
      "inputs": [
        {
          "internalType": "address[]",
          "name": "_path",
          "type": "address[]"
        }
      ],
      "name": "setUSDCToZorroLPPoolToken1Path",
      "outputs": [],
      "stateMutability": "nonpayable",
      "type": "function"
    },
    {
      "inputs": [
        {
          "internalType": "address",
          "name": "_uniV2Router",
          "type": "address"
        }
      ],
      "name": "setUniRouter",
      "outputs": [],
      "stateMutability": "nonpayable",
      "type": "function"
    },
    {
      "inputs": [
        {
          "internalType": "address",
          "name": "_xChainReceivingOracle",
          "type": "address"
        }
      ],
      "name": "setXChainReceivingOracle",
      "outputs": [],
      "stateMutability": "nonpayable",
      "type": "function"
    },
    {
      "inputs": [
        {
          "internalType": "uint256",
          "name": "_value",
          "type": "uint256"
        }
      ],
      "name": "setZORRODailyDistributionFactorBasisPointsMax",
      "outputs": [],
      "stateMutability": "nonpayable",
      "type": "function"
    },
    {
      "inputs": [
        {
          "internalType": "uint256",
          "name": "_value",
          "type": "uint256"
        }
      ],
      "name": "setZORRODailyDistributionFactorBasisPointsMin",
      "outputs": [],
      "stateMutability": "nonpayable",
      "type": "function"
    },
    {
      "inputs": [
        {
          "internalType": "address",
          "name": "_zorroControllerOracle",
          "type": "address"
        }
      ],
      "name": "setZorroControllerOracle",
      "outputs": [],
      "stateMutability": "nonpayable",
      "type": "function"
    },
    {
      "inputs": [
        {
          "internalType": "bytes32",
          "name": "_zorroControllerOracleEmissionsJobId",
          "type": "bytes32"
        }
      ],
      "name": "setZorroControllerOracleEmissionsJobId",
      "outputs": [],
      "stateMutability": "nonpayable",
      "type": "function"
    },
    {
      "inputs": [
        {
          "internalType": "uint256",
          "name": "_zorroControllerOracleFee",
          "type": "uint256"
        }
      ],
      "name": "setZorroControllerOracleFee",
      "outputs": [],
      "stateMutability": "nonpayable",
      "type": "function"
    },
    {
      "inputs": [
        {
          "internalType": "bytes32",
          "name": "_zorroControllerOraclePriceJobId",
          "type": "bytes32"
        }
      ],
      "name": "setZorroControllerOraclePriceJobId",
      "outputs": [],
      "stateMutability": "nonpayable",
      "type": "function"
    },
    {
      "inputs": [
        {
          "internalType": "address",
          "name": "_zorroLPPool",
          "type": "address"
        }
      ],
      "name": "setZorroLPPool",
      "outputs": [],
      "stateMutability": "nonpayable",
      "type": "function"
    },
    {
      "inputs": [
        {
          "internalType": "address",
          "name": "_token0",
          "type": "address"
        }
      ],
      "name": "setZorroLPPoolToken0",
      "outputs": [],
      "stateMutability": "nonpayable",
      "type": "function"
    },
    {
      "inputs": [
        {
          "internalType": "address",
          "name": "_token1",
          "type": "address"
        }
      ],
      "name": "setZorroLPPoolToken1",
      "outputs": [],
      "stateMutability": "nonpayable",
      "type": "function"
    },
    {
      "inputs": [
        {
          "internalType": "uint256",
          "name": "_totalChainMultipliers",
          "type": "uint256"
        },
        {
          "internalType": "uint256",
          "name": "_totalMarketTVLUSD",
          "type": "uint256"
        },
        {
          "internalType": "uint256",
          "name": "_targetTVLCaptureBasisPoints",
          "type": "uint256"
        },
        {
          "internalType": "uint256",
          "name": "_ZorroTotalVaultTVLUSD",
          "type": "uint256"
        },
        {
          "internalType": "uint256",
          "name": "_publicPoolZORBalance",
          "type": "uint256"
        }
      ],
      "name": "setZorroPerBlock",
      "outputs": [],
      "stateMutability": "nonpayable",
      "type": "function"
    },
    {
      "inputs": [
        {
          "internalType": "address",
          "name": "_zorroStakingVault",
          "type": "address"
        }
      ],
      "name": "setZorroStakingVault",
      "outputs": [],
      "stateMutability": "nonpayable",
      "type": "function"
    },
    {
      "inputs": [
        {
          "internalType": "uint256",
          "name": "",
          "type": "uint256"
        }
      ],
      "name": "stargateDestPoolIds",
      "outputs": [
        {
          "internalType": "uint256",
          "name": "",
          "type": "uint256"
        }
      ],
      "stateMutability": "view",
      "type": "function"
    },
    {
      "inputs": [],
      "name": "stargateRouter",
      "outputs": [
        {
          "internalType": "address",
          "name": "",
          "type": "address"
        }
      ],
      "stateMutability": "view",
      "type": "function"
    },
    {
      "inputs": [],
      "name": "stargateSwapPoolId",
      "outputs": [
        {
          "internalType": "uint256",
          "name": "",
          "type": "uint256"
        }
      ],
      "stateMutability": "view",
      "type": "function"
    },
    {
      "inputs": [
        {
          "internalType": "uint256",
          "name": "",
          "type": "uint256"
        }
      ],
      "name": "stargateZorroChainMap",
      "outputs": [
        {
          "internalType": "uint16",
          "name": "",
          "type": "uint16"
        }
      ],
      "stateMutability": "view",
      "type": "function"
    },
    {
      "inputs": [],
      "name": "startBlock",
      "outputs": [
        {
          "internalType": "uint256",
          "name": "",
          "type": "uint256"
        }
      ],
      "stateMutability": "view",
      "type": "function"
    },
    {
      "inputs": [],
      "name": "syntheticStablecoin",
      "outputs": [
        {
          "internalType": "address",
          "name": "",
          "type": "address"
        }
      ],
      "stateMutability": "view",
      "type": "function"
    },
    {
      "inputs": [],
      "name": "targetTVLCaptureBasisPoints",
      "outputs": [
        {
          "internalType": "uint256",
          "name": "",
          "type": "uint256"
        }
      ],
      "stateMutability": "view",
      "type": "function"
    },
    {
      "inputs": [],
      "name": "totalAllocPoint",
      "outputs": [
        {
          "internalType": "uint256",
          "name": "",
          "type": "uint256"
        }
      ],
      "stateMutability": "view",
      "type": "function"
    },
    {
      "inputs": [
        {
          "internalType": "uint256",
          "name": "",
          "type": "uint256"
        },
        {
          "internalType": "address",
          "name": "",
          "type": "address"
        },
        {
          "internalType": "uint256",
          "name": "",
          "type": "uint256"
        }
      ],
      "name": "trancheInfo",
      "outputs": [
        {
          "internalType": "uint256",
          "name": "contribution",
          "type": "uint256"
        },
        {
          "internalType": "uint256",
          "name": "timeMultiplier",
          "type": "uint256"
        },
        {
          "internalType": "uint256",
          "name": "rewardDebt",
          "type": "uint256"
        },
        {
          "internalType": "uint256",
          "name": "durationCommittedInWeeks",
          "type": "uint256"
        },
        {
          "internalType": "uint256",
          "name": "enteredVaultAt",
          "type": "uint256"
        },
        {
          "internalType": "uint256",
          "name": "exitedVaultStartingAt",
          "type": "uint256"
        }
      ],
      "stateMutability": "view",
      "type": "function"
    },
    {
      "inputs": [
        {
          "internalType": "uint256",
          "name": "_pid",
          "type": "uint256"
        },
        {
          "internalType": "address",
          "name": "_user",
          "type": "address"
        }
      ],
      "name": "trancheLength",
      "outputs": [
        {
          "internalType": "uint256",
          "name": "",
          "type": "uint256"
        }
      ],
      "stateMutability": "view",
      "type": "function"
    },
    {
      "inputs": [
        {
          "internalType": "uint256",
          "name": "_fromPid",
          "type": "uint256"
        },
        {
          "internalType": "uint256",
          "name": "_fromTrancheId",
          "type": "uint256"
        },
        {
          "internalType": "uint256",
          "name": "_toPid",
          "type": "uint256"
        },
        {
          "internalType": "uint256",
          "name": "_maxMarketMovement",
          "type": "uint256"
        }
      ],
      "name": "transferInvestment",
      "outputs": [],
      "stateMutability": "nonpayable",
      "type": "function"
    },
    {
      "inputs": [
        {
          "internalType": "address",
          "name": "newOwner",
          "type": "address"
        }
      ],
      "name": "transferOwnership",
      "outputs": [],
      "stateMutability": "nonpayable",
      "type": "function"
    },
    {
      "inputs": [
        {
          "internalType": "bytes",
          "name": "_contract",
          "type": "bytes"
        }
      ],
      "name": "unRegisterXChainController",
      "outputs": [],
      "stateMutability": "nonpayable",
      "type": "function"
    },
    {
      "inputs": [
        {
          "internalType": "address",
          "name": "_contract",
          "type": "address"
        }
      ],
      "name": "unRegisterXChainEndpoint",
      "outputs": [],
      "stateMutability": "nonpayable",
      "type": "function"
    },
    {
      "inputs": [],
      "name": "uniRouterAddress",
      "outputs": [
        {
          "internalType": "address",
          "name": "",
          "type": "address"
        }
      ],
      "stateMutability": "view",
      "type": "function"
    },
    {
      "inputs": [
        {
          "internalType": "uint256",
          "name": "_pid",
          "type": "uint256"
        }
      ],
      "name": "updatePool",
      "outputs": [],
      "stateMutability": "nonpayable",
      "type": "function"
    },
    {
      "inputs": [
        {
          "internalType": "uint256",
          "name": "_pid",
          "type": "uint256"
        },
        {
          "internalType": "uint256",
          "name": "_trancheId",
          "type": "uint256"
        },
        {
          "internalType": "bool",
          "name": "_harvestOnly",
          "type": "bool"
        }
      ],
      "name": "withdraw",
      "outputs": [
        {
          "internalType": "uint256",
          "name": "",
          "type": "uint256"
        }
      ],
      "stateMutability": "nonpayable",
      "type": "function"
    },
    {
      "inputs": [
        {
          "internalType": "uint256",
          "name": "_pid",
          "type": "uint256"
        }
      ],
      "name": "withdrawAll",
      "outputs": [],
      "stateMutability": "nonpayable",
      "type": "function"
    },
    {
      "inputs": [
        {
          "internalType": "uint256",
          "name": "_pid",
          "type": "uint256"
        },
        {
          "internalType": "uint256",
          "name": "_trancheId",
          "type": "uint256"
        },
        {
          "internalType": "bool",
          "name": "_harvestOnly",
          "type": "bool"
        },
        {
          "internalType": "uint256",
          "name": "_maxMarketMovement",
          "type": "uint256"
        }
      ],
      "name": "withdrawalFullService",
      "outputs": [
        {
          "internalType": "uint256",
          "name": "",
          "type": "uint256"
        }
      ],
      "stateMutability": "nonpayable",
      "type": "function"
    },
    {
      "inputs": [],
      "name": "xChainReceivingOracle",
      "outputs": [
        {
          "internalType": "address",
          "name": "",
          "type": "address"
        }
      ],
      "stateMutability": "view",
      "type": "function"
    },
    {
      "inputs": [],
      "name": "zorroControllerOracle",
      "outputs": [
        {
          "internalType": "address",
          "name": "",
          "type": "address"
        }
      ],
      "stateMutability": "view",
      "type": "function"
    },
    {
      "inputs": [],
      "name": "zorroControllerOracleEmissionsJobId",
      "outputs": [
        {
          "internalType": "bytes32",
          "name": "",
          "type": "bytes32"
        }
      ],
      "stateMutability": "view",
      "type": "function"
    },
    {
      "inputs": [],
      "name": "zorroControllerOracleFee",
      "outputs": [
        {
          "internalType": "uint256",
          "name": "",
          "type": "uint256"
        }
      ],
      "stateMutability": "view",
      "type": "function"
    },
    {
      "inputs": [],
      "name": "zorroControllerOraclePriceJobId",
      "outputs": [
        {
          "internalType": "bytes32",
          "name": "",
          "type": "bytes32"
        }
      ],
      "stateMutability": "view",
      "type": "function"
    },
    {
      "inputs": [],
      "name": "zorroLPPool",
      "outputs": [
        {
          "internalType": "address",
          "name": "",
          "type": "address"
        }
      ],
      "stateMutability": "view",
      "type": "function"
    },
    {
      "inputs": [],
      "name": "zorroLPPoolToken0",
      "outputs": [
        {
          "internalType": "address",
          "name": "",
          "type": "address"
        }
      ],
      "stateMutability": "view",
      "type": "function"
    },
    {
      "inputs": [],
      "name": "zorroLPPoolToken1",
      "outputs": [
        {
          "internalType": "address",
          "name": "",
          "type": "address"
        }
      ],
      "stateMutability": "view",
      "type": "function"
    },
    {
      "inputs": [],
      "name": "zorroStakingVault",
      "outputs": [
        {
          "internalType": "address",
          "name": "",
          "type": "address"
        }
      ],
      "stateMutability": "view",
      "type": "function"
    },
    {
      "inputs": [
        {
          "internalType": "uint16",
          "name": "",
          "type": "uint16"
        }
      ],
      "name": "zorroStargateChainMap",
      "outputs": [
        {
          "internalType": "uint256",
          "name": "",
          "type": "uint256"
        }
      ],
      "stateMutability": "view",
      "type": "function"
    },
    {
      "inputs": [
        {
          "internalType": "uint256",
          "name": "_zorroChainId",
          "type": "uint256"
        },
        {
          "internalType": "uint256",
          "name": "_pid",
          "type": "uint256"
        },
        {
          "internalType": "uint256",
          "name": "_trancheId",
          "type": "uint256"
        },
        {
          "internalType": "uint256",
          "name": "_maxMarketMovement",
          "type": "uint256"
        }
      ],
      "name": "checkXChainWithdrawalFee",
      "outputs": [
        {
          "internalType": "uint256",
          "name": "",
          "type": "uint256"
        }
      ],
      "stateMutability": "view",
      "type": "function"
    },
    {
      "inputs": [
        {
          "internalType": "uint256",
          "name": "_destZorroChainId",
          "type": "uint256"
        },
        {
          "internalType": "bytes",
          "name": "_originAccount",
          "type": "bytes"
        },
        {
          "internalType": "uint256",
          "name": "_pid",
          "type": "uint256"
        },
        {
          "internalType": "uint256",
          "name": "_trancheId",
          "type": "uint256"
        },
        {
          "internalType": "uint256",
          "name": "_maxMarketMovement",
          "type": "uint256"
        }
      ],
      "name": "sendXChainWithdrawalRequest",
      "outputs": [],
      "stateMutability": "payable",
      "type": "function"
    },
    {
      "inputs": [
        {
          "internalType": "uint256",
          "name": "_originChainId",
          "type": "uint256"
        },
        {
          "internalType": "bytes",
          "name": "_originAccount",
          "type": "bytes"
        },
        {
          "internalType": "uint256",
          "name": "_pid",
          "type": "uint256"
        },
        {
          "internalType": "uint256",
          "name": "_trancheId",
          "type": "uint256"
        },
        {
          "internalType": "uint256",
          "name": "_maxMarketMovement",
          "type": "uint256"
        }
      ],
      "name": "receiveXChainWithdrawalRequest",
      "outputs": [],
      "stateMutability": "nonpayable",
      "type": "function"
    },
    {
      "inputs": [
        {
          "internalType": "uint256",
          "name": "_originChainId",
          "type": "uint256"
        },
        {
          "internalType": "uint256",
          "name": "_pid",
          "type": "uint256"
        },
        {
          "internalType": "uint256",
          "name": "_trancheId",
          "type": "uint256"
        },
        {
          "internalType": "bytes",
          "name": "_originRecipient",
          "type": "bytes"
        },
        {
          "internalType": "uint256",
          "name": "_burnableZORRewards",
          "type": "uint256"
        }
      ],
      "name": "receiveXChainRepatriationRequest",
      "outputs": [],
      "stateMutability": "nonpayable",
      "type": "function"
    }
  ],
  "bytecode": "0x608060405260038054600160a060020a03191661dead179055617080600655600160098190556014600a908155600b829055600c805460ff199081169093179055600d556103ca601955601d8054909116905560006034553480156200006457600080fd5b506200008b6200007c64010000000062000095810204565b64010000000062000099810204565b60018055620000e9565b3390565b60008054600160a060020a03838116600160a060020a0319831681178455604051919092169283917f8be0079c531659141344cd1fd0a4f28419497f9722a3daafe3b4186f6b6457e09190a35050565b61521480620000f96000396000f3fe608060405260043610610668576000357c0100000000000000000000000000000000000000000000000000000000900480637cb6e78f11610361578063b961b9b4116101d3578063ddd88fec1161011f578063ef126967116100bd578063f2fde38b11610097578063f2fde38b1461140b578063f35e4a6e1461142b578063fa88fe7b1461144b578063fc39a29e1461146b57600080fd5b8063ef126967146113b1578063ef190fec146113cb578063f2d0caa9146113eb57600080fd5b8063ed148bf3116100f9578063ed148bf314611331578063edf9f8f514611351578063ee4e268714611371578063ef0e2ff41461139157600080fd5b8063ddd88fec146112d7578063ea07667a146112f7578063ec54e4a41461131757600080fd5b8063c524a0561161018c578063cb9c2f6811610166578063cb9c2f681461126b578063ce9e292814611281578063d7f33a82146112a1578063d85c5548146112c157600080fd5b8063c524a056146111e7578063c6d758cb14611207578063c913b4b31461122757600080fd5b8063b961b9b4146110fd578063bf9caa801461111d578063c27893ef1461113d578063c29361421461115d578063c29de0d214611173578063c4f79c23146111c757600080fd5b80639a8a0592116102ad578063a77f62c91161024b578063a9e56f3c11610225578063a9e56f3c14611050578063b4b4e9eb14611070578063b614bdba146110bd578063b61bb80a146110dd57600080fd5b8063a77f62c914610ff0578063a80bee0714611010578063a9418d671461103057600080fd5b80639cebd371116102875780639cebd37114610f7a578063a00c807c14610f90578063a3f038be14610fb0578063a4d2b08314610fd057600080fd5b80639a8a059214610f2e5780639b8ad2d614610f445780639cde7a0014610f5a57600080fd5b80638b2bc8521161031a578063941d3fd0116102f4578063941d3fd014610eb457806394909cc214610ece5780639568786c14610eee578063958e2d3114610f0e57600080fd5b80638b2bc85214610e565780638c157db214610e765780638da5cb5b14610e9657600080fd5b80637cb6e78f14610d815780637e37c76914610d945780637e49b84014610db457806381ea795d14610df6578063823c43d014610e16578063871869ca14610e3657600080fd5b806348d57c8e116104fa57806368ce004b116104465780636ca8bd65116103e457806372b23556116103be57806372b2355614610d0b578063745af0a814610d2b57806376cc230314610d4b5780637bf604d814610d6157600080fd5b80636ca8bd6514610cb657806370d5ae0514610cd6578063715018a614610cf657600080fd5b80636985b934116104205780636985b93414610c405780636b8eb2e514610c605780636b908e5714610c805780636c78d49c14610c9657600080fd5b806368ce004b14610bea57806368d2b26014610c0a578063693a090b14610c2057600080fd5b80635527a6f9116104b357806361b729dc1161048d57806361b729dc14610b4557806365bc77bc14610b60578063668ababb14610baa578063683dc6f514610bca57600080fd5b80635527a6f914610af95780635790f59914610b0f5780636179ecd114610b2557600080fd5b806348d57c8e14610a4d5780634cfea68a14610a6d5780635051d37114610a8357806351eb05a614610aa35780635242777214610ac357806353f73f8714610ad957600080fd5b80632c4599fb116105b95780633b710688116105725780634098b0eb1161054c5780634098b0eb146109d7578063416d0de7146109f75780634780f9f514610a1757806348cd4cb114610a3757600080fd5b80633b7106881461098b5780633b9ce565146109a15780633bbc1ffc146109b757600080fd5b80632c4599fb1461088d5780632e31283d146108ad57806333cfcd3b146108ea578063353b6c2c1461090a578063375414641461092a5780633b35b7271461096b57600080fd5b80631479a6df1161062657806317caf6f11161060057806317caf6f1146107f45780631ca95f941461080a578063219b38b81461084057806326fc7c7d1461086d57600080fd5b80631479a6df1461074b5780631526fe271461076b57806315834041146107c757600080fd5b8062aeef8a1461066d578063025b10451461068f5780630689acd2146106cc57806307968db1146106ec578063081e3eda1461070c578063104a61321461072b575b600080fd5b34801561067957600080fd5b5061068d6106883660046147a9565b61148b565b005b34801561069b57600080fd5b506024546106af90600160a060020a031681565b604051600160a060020a0390911681526020015b60405180910390f35b3480156106d857600080fd5b5061068d6106e736600461488f565b611547565b3480156106f857600080fd5b50602a546106af90600160a060020a031681565b34801561071857600080fd5b506031545b6040519081526020016106c3565b34801561073757600080fd5b506106af6107463660046148f1565b611599565b34801561075757600080fd5b5061068d6107663660046148f1565b6115c3565b34801561077757600080fd5b5061078b6107863660046148f1565b6115f5565b60408051600160a060020a03978816815260208101969096528501939093526060840191909152608083015290911660a082015260c0016106c3565b3480156107d357600080fd5b5061071d6107e236600461490a565b60266020526000908152604090205481565b34801561080057600080fd5b5061071d60345481565b34801561081657600080fd5b506106af6108253660046148f1565b601e60205260009081526040902054600160a060020a031681565b34801561084c57600080fd5b5061071d61085b3660046148f1565b60296020526000908152604090205481565b34801561087957600080fd5b5061068d610888366004614945565b611648565b34801561089957600080fd5b5061068d6108a83660046148f1565b611697565b3480156108b957600080fd5b506108cd6108c8366004614960565b6116c9565b60408051928352600160a060020a039091166020830152016106c3565b3480156108f657600080fd5b5061071d6109053660046149be565b61172b565b34801561091657600080fd5b5061068d6109253660046148f1565b6117c0565b34801561093657600080fd5b50601154610958907001000000000000000000000000000000009004600f0b81565b604051600f9190910b81526020016106c3565b34801561097757600080fd5b5061068d6109863660046148f1565b6117f2565b34801561099757600080fd5b5061071d600d5481565b3480156109ad57600080fd5b5061071d600a5481565b3480156109c357600080fd5b5061068d6109d23660046148f1565b611824565b3480156109e357600080fd5b5061068d6109f23660046148f1565b611856565b348015610a0357600080fd5b50600f546106af90600160a060020a031681565b348015610a2357600080fd5b5061068d610a323660046149f7565b611888565b348015610a4357600080fd5b5061071d60055481565b348015610a5957600080fd5b506021546106af90600160a060020a031681565b348015610a7957600080fd5b5061071d60065481565b348015610a8f57600080fd5b5061068d610a9e366004614945565b61193c565b348015610aaf57600080fd5b5061068d610abe3660046148f1565b61198b565b348015610acf57600080fd5b5061071d60305481565b348015610ae557600080fd5b5061071d610af4366004614a29565b611afd565b348015610b0557600080fd5b5061071d60095481565b348015610b1b57600080fd5b5061071d60285481565b348015610b3157600080fd5b5061068d610b403660046148f1565b611b25565b348015610b5157600080fd5b5061068d6106e7366004614a55565b348015610b6c57600080fd5b50610b9a610b7b366004614ab7565b8051602081830181018051828252928201919093012091525460ff1681565b60405190151581526020016106c3565b348015610bb657600080fd5b506004546106af90600160a060020a031681565b348015610bd657600080fd5b5061068d610be5366004614945565b611b57565b348015610bf657600080fd5b5061068d610c05366004614aec565b611ba6565b348015610c1657600080fd5b5061071d602f5481565b348015610c2c57600080fd5b506015546106af90600160a060020a031681565b348015610c4c57600080fd5b5061068d610c5b3660046148f1565b611bea565b348015610c6c57600080fd5b5061068d610c7b366004614b98565b611ccd565b348015610c8c57600080fd5b5061071d602e5481565b348015610ca257600080fd5b5061068d610cb1366004614bd3565b611dcc565b348015610cc257600080fd5b5061068d610cd1366004614945565b611e0c565b348015610ce257600080fd5b506003546106af90600160a060020a031681565b348015610d0257600080fd5b5061068d611e5b565b348015610d1757600080fd5b5061068d610d26366004614945565b611e94565b348015610d3757600080fd5b5061071d610d46366004614bf0565b611ee3565b348015610d5757600080fd5b5061071d60235481565b348015610d6d57600080fd5b506012546106af90600160a060020a031681565b61068d610d8f366004614a55565b611f59565b348015610da057600080fd5b5061068d610daf3660046149f7565b612039565b348015610dc057600080fd5b50610de4610dcf366004614945565b601f6020526000908152604090205460ff1681565b60405160ff90911681526020016106c3565b348015610e0257600080fd5b5061068d610e11366004614ab7565b6121b7565b348015610e2257600080fd5b50602d546106af90600160a060020a031681565b348015610e4257600080fd5b5061068d610e51366004614ab7565b612219565b348015610e6257600080fd5b506014546106af90600160a060020a031681565b348015610e8257600080fd5b506002546106af90600160a060020a031681565b348015610ea257600080fd5b50600054600160a060020a03166106af565b348015610ec057600080fd5b50600c54610b9a9060ff1681565b348015610eda57600080fd5b5061068d610ee9366004614945565b612258565b348015610efa57600080fd5b5061071d610f093660046148f1565b6122a7565b348015610f1a57600080fd5b5061068d610f293660046148f1565b612380565b348015610f3a57600080fd5b5061071d601c5481565b348015610f5057600080fd5b5061071d60195481565b348015610f6657600080fd5b506106af610f753660046148f1565b6123ea565b348015610f8657600080fd5b5061071d600b5481565b348015610f9c57600080fd5b5061068d610fab366004614aec565b6123fa565b348015610fbc57600080fd5b5061071d610fcb3660046149f7565b61243a565b348015610fdc57600080fd5b50601a546106af90600160a060020a031681565b348015610ffc57600080fd5b5061068d61100b3660046148f1565b612534565b34801561101c57600080fd5b5061071d61102b366004614c2f565b612566565b34801561103c57600080fd5b5061068d61104b366004614945565b612582565b34801561105c57600080fd5b506027546106af90600160a060020a031681565b34801561107c57600080fd5b5061109061108b366004614c51565b61262a565b604080519687526020870195909552938501929092526060840152608083015260a082015260c0016106c3565b3480156110c957600080fd5b506106af6110d83660046148f1565b61268b565b3480156110e957600080fd5b50600e546106af90600160a060020a031681565b34801561110957600080fd5b5061068d6111183660046148f1565b61269b565b34801561112957600080fd5b5061068d611138366004614945565b6126cd565b34801561114957600080fd5b506010546106af90600160a060020a031681565b34801561116957600080fd5b5061071d60075481565b34801561117f57600080fd5b506111b261118e366004614a29565b60356020908152600092835260408084209091529082529020805460019091015482565b604080519283526020830191909152016106c3565b3480156111d357600080fd5b5061068d6111e2366004614a29565b61271c565b3480156111f357600080fd5b5061068d611202366004614945565b612777565b34801561121357600080fd5b5061068d611222366004614c86565b6127c6565b34801561123357600080fd5b506112586112423660046148f1565b60256020526000908152604090205461ffff1681565b60405161ffff90911681526020016106c3565b34801561127757600080fd5b5061071d60085481565b34801561128d57600080fd5b5061068d61129c366004614945565b61288e565b3480156112ad57600080fd5b5061068d6112bc366004614945565b6128dd565b3480156112cd57600080fd5b5061071d60225481565b3480156112e357600080fd5b5061068d6112f2366004614945565b61292e565b34801561130357600080fd5b5061068d6113123660046148f1565b61297d565b34801561132357600080fd5b5060115461095890600f0b81565b34801561133d57600080fd5b506013546106af90600160a060020a031681565b34801561135d57600080fd5b5061068d61136c366004614945565b6129af565b34801561137d57600080fd5b5061068d61138c366004614945565b6129fe565b34801561139d57600080fd5b5061068d6113ac3660046148f1565b612a4d565b3480156113bd57600080fd5b50601d54610de49060ff1681565b3480156113d757600080fd5b5061068d6113e6366004614945565b612a7f565b3480156113f757600080fd5b5061068d611406366004614945565b612ace565b34801561141757600080fd5b5061068d611426366004614945565b612b1c565b34801561143757600080fd5b5061068d6114463660046148f1565b612bd4565b34801561145757600080fd5b5061068d611466366004614945565b612c06565b34801561147757600080fd5b50601b546106af90600160a060020a031681565b600260015414156114ba5760405160e560020a62461bcd0281526004016114b190614cb0565b60405180910390fd5b60026001819055506000603184815481106114d7576114d7614ce7565b60009182526020909120600690910201805490915061150090600160a060020a03163085612c55565b6005810154815461152091600160a060020a039182169133911686612d96565b61153d843360405180602001604052806000815250868642612de7565b5050600180555050565b60405160e560020a62461bcd02815260206004820152601760248201527f696c6c6567616c2064756d6d792066756e632063616c6c00000000000000000060448201526064016114b1565b5050505050565b601881815481106115a957600080fd5b600091825260209091200154600160a060020a0316905081565b600054600160a060020a031633146115f05760405160e560020a62461bcd0281526004016114b190614d00565b600955565b6031818154811061160557600080fd5b6000918252602090912060069091020180546001820154600283015460038401546004850154600590950154600160a060020a0394851696509294919390921686565b600054600160a060020a031633146116755760405160e560020a62461bcd0281526004016114b190614d00565b60218054600160a060020a031916600160a060020a0392909216919091179055565b600054600160a060020a031633146116c45760405160e560020a62461bcd0281526004016114b190614d00565b602f55565b6033602090815260008481526040902083518085018301805192815290830192850192909220915280548290811061170057600080fd5b600091825260209091206002909102018054600190910154909350600160a060020a03169150839050565b6000600260015414156117535760405160e560020a62461bcd0281526004016114b190614cb0565b6002600181905550600061177985336040518060200160405280600081525087876130e0565b90506117b433826031888154811061179357611793614ce7565b6000918252602090912060069091020154600160a060020a03169190613750565b60018055949350505050565b600054600160a060020a031633146117ed5760405160e560020a62461bcd0281526004016114b190614d00565b600655565b600054600160a060020a0316331461181f5760405160e560020a62461bcd0281526004016114b190614d00565b600a55565b600054600160a060020a031633146118515760405160e560020a62461bcd0281526004016114b190614d00565b600855565b600054600160a060020a031633146118835760405160e560020a62461bcd0281526004016114b190614d00565b600d55565b600260015414156118ae5760405160e560020a62461bcd0281526004016114b190614cb0565b60026001819055506000603185815481106118cb576118cb614ce7565b6000918252602090912060056006909202010154600e54600160a060020a0391821692506118fb91163086612c55565b600e5461191390600160a060020a0316338387612d96565b6119318533604051806020016040528060008152508787428861379e565b505060018055505050565b600054600160a060020a031633146119695760405160e560020a62461bcd0281526004016114b190614d00565b602d8054600160a060020a031916600160a060020a0392909216919091179055565b6000603182815481106119a0576119a0614ce7565b90600052602060002090600602019050806002015443116119bf575050565b60006119d88260020154436138ae90919063ffffffff16565b9050600081116119e757505050565b6000611a18603454611a128560010154611a0c600754876138ba90919063ffffffff16565b906138ba565b906138c6565b601b54909150600160a060020a0316301415611a6b57600454600254611a4c91600160a060020a0391821691163084612d96565b6003830154611a5b90826138d2565b6003840155436002840155611af7565b6002546040517f40c10f1900000000000000000000000000000000000000000000000000000000815230600482015260248101839052600160a060020a03909116906340c10f1990604401600060405180830381600087803b158015611ad057600080fd5b505af1158015611ae4573d6000803e3d6000fd5b5050601d5460ff166000525050601e6020525b50505050565b6000918252603260209081526040808420600160a060020a0393909316845291905290205490565b600054600160a060020a03163314611b525760405160e560020a62461bcd0281526004016114b190614d00565b601955565b600054600160a060020a03163314611b845760405160e560020a62461bcd0281526004016114b190614d00565b60248054600160a060020a031916600160a060020a0392909216919091179055565b600054600160a060020a03163314611bd35760405160e560020a62461bcd0281526004016114b190614d00565b8051611be690601690602084019061472f565b5050565b336000908152601f602052604090205460ff16611c4c5760405160e560020a62461bcd02815260206004820152601960248201527f6f6e6c79207265672078636861696e20656e64706f696e74730000000000000060448201526064016114b1565b600254600480546040517f9dc29fac000000000000000000000000000000000000000000000000000000008152600160a060020a03918216928101929092526024820184905290911690639dc29fac90604401600060405180830381600087803b158015611cb957600080fd5b505af1158015611592573d6000803e3d6000fd5b602d54600160a060020a031633600160a060020a031614611d335760405160e560020a62461bcd02815260206004820152601160248201527f6f6e6c79205a6f72726f206f7261636c6500000000000000000000000000000060448201526064016114b1565b6000611d5583611a12611d48876127106138c6565b600d54611a0c908a6138ba565b9050600a54811115611d6a5750600a54611d79565b600954811015611d7957506009545b6000611d8b612710611a1285856138ba565b90506000611da888611a1284600b546138ba90919063ffffffff16565b9050611dbf600654826138c690919063ffffffff16565b6007555050505050505050565b600054600160a060020a03163314611df95760405160e560020a62461bcd0281526004016114b190614d00565b600c805460ff1916911515919091179055565b600054600160a060020a03163314611e395760405160e560020a62461bcd0281526004016114b190614d00565b601a8054600160a060020a031916600160a060020a0392909216919091179055565b600054600160a060020a03163314611e885760405160e560020a62461bcd0281526004016114b190614d00565b611e926000613ba8565b565b600054600160a060020a03163314611ec15760405160e560020a62461bcd0281526004016114b190614d00565b602b8054600160a060020a031916600160a060020a0392909216919091179055565b600060026001541415611f0b5760405160e560020a62461bcd0281526004016114b190614cb0565b60026001819055506000611f32336040518060200160405280600081525088888888613bf8565b600e54909150611f4c90600160a060020a03163383613750565b6001805595945050505050565b60026001541415611f7f5760405160e560020a62461bcd0281526004016114b190614cb0565b6002600155601c54604051600091611fb691611f9f903390602001614d35565b604051602081830303815290604052868686613d3d565b6000878152601e602090815260408083205490519394509192611fe392600160a060020a03169101614d35565b60408051601f1981840301815260c0830182528983526020830181905290820184905233606083015260006080830152915061202c9060a08101612025613dbe565b9052613e09565b5050600180555050505050565b6002600154141561205f5760405160e560020a62461bcd0281526004016114b190614cb0565b60026001556000848152603260209081526040808320338452909152812080548590811061208f5761208f614ce7565b6000918252602080832060036006909302019190910154878352603282526040808420338552909252908220805491935090869081106120d1576120d1614ce7565b9060005260206000209060060201600401549050600061210533604051806020016040528060008152508989600189613bf8565b90506060600e60009054906101000a9004600160a060020a03168160008151811061213257612132614ce7565b6020026020010190600160a060020a03169081600160a060020a0316815250506121708633604051806020016040528060008152508588888b61379e565b604051338152869088908a907f67e7aba7263d8fbeb0cd9a2f4008f060a6a03f46c1d7f9d0550f0b93e96e96f89060200160405180910390a4505060018055505050505050565b600054600160a060020a031633146121e45760405160e560020a62461bcd0281526004016114b190614d00565b60016020826040516121f69190614d84565b908152604051908190036020019020805491151560ff1990921691909117905550565b600054600160a060020a031633146122465760405160e560020a62461bcd0281526004016114b190614d00565b60006020826040516121f69190614d84565b600054600160a060020a031633146122855760405160e560020a62461bcd0281526004016114b190614d00565b60048054600160a060020a031916600160a060020a0392909216919091179055565b600c5460009060ff161561236f576040517f677342ce000000000000000000000000000000000000000000000000000000008152600481018390526123699064e8d4a5100090611a0c906123619073__CustomMath____________________________9063677342ce90602401602060405180830381865af4158015612331573d6000803e3d6000fd5b505050506040513d601f19601f820116820180604052508101906123559190614da0565b611a0c6002600a6138c6565b6001906138d2565b92915050565b5064e8d4a51000919050565b919050565b600260015414156123a65760405160e560020a62461bcd0281526004016114b190614cb0565b600260015560006123b78233611afd565b905060005b818110156123e1576123d08382600061172b565b506123da81614dd2565b90506123bc565b50506001805550565b601781815481106115a957600080fd5b600054600160a060020a031633146124275760405160e560020a62461bcd0281526004016114b190614d00565b8051611be690601790602084019061472f565b600084815260256020908152604080832054601c54915161ffff90911692849261248392909161246c91339101614d35565b604051602081830303815290604052888888613d3d565b9050600061248f613dbe565b602a546040517f40a7bb10000000000000000000000000000000000000000000000000000000008152919250600091600160a060020a03909116906340a7bb10906124e69087903090889087908990600401614e19565b6040805180830381865afa158015612502573d6000803e3d6000fd5b505050506040513d601f19601f820116820180604052508101906125269190614e5f565b509998505050505050505050565b600054600160a060020a031633146125615760405160e560020a62461bcd0281526004016114b190614d00565b602e55565b600061257b64e8d4a51000611a1285856138ba565b9392505050565b600054600160a060020a031633146125af5760405160e560020a62461bcd0281526004016114b190614d00565b600160a060020a0381166126085760405160e560020a62461bcd02815260206004820152601060248201527f63616e6e6f74206265203020616464720000000000000000000000000000000060448201526064016114b1565b601b8054600160a060020a031916600160a060020a0392909216919091179055565b6032602052826000526040600020602052816000526040600020818154811061265257600080fd5b60009182526020909120600690910201805460018201546002830154600384015460048501546005909501549397509195509350919086565b601681815481106115a957600080fd5b600054600160a060020a031633146126c85760405160e560020a62461bcd0281526004016114b190614d00565b603055565b600054600160a060020a031633146126fa5760405160e560020a62461bcd0281526004016114b190614d00565b60148054600160a060020a031916600160a060020a0392909216919091179055565b600054600160a060020a031633146127495760405160e560020a62461bcd0281526004016114b190614d00565b6000918252601e60205260409091208054600160a060020a031916600160a060020a03909216919091179055565b600054600160a060020a031633146127a45760405160e560020a62461bcd0281526004016114b190614d00565b600e8054600160a060020a031916600160a060020a0392909216919091179055565b600054600160a060020a031633146127f35760405160e560020a62461bcd0281526004016114b190614d00565b600254600160a060020a038381169116141561287a5760405160e560020a62461bcd02815260206004820152603560248201527f217361666520746f20757365205a6f72726f20746f6b656e20696e2066756e6360448201527f20696e43617365546f6b656e73476574537475636b000000000000000000000060648201526084016114b1565b611be6600160a060020a0383163383613750565b600054600160a060020a031633146128bb5760405160e560020a62461bcd0281526004016114b190614d00565b60108054600160a060020a031916600160a060020a0392909216919091179055565b600054600160a060020a0316331461290a5760405160e560020a62461bcd0281526004016114b190614d00565b600160a060020a03166000908152601f60205260409020805460ff19166001179055565b600054600160a060020a0316331461295b5760405160e560020a62461bcd0281526004016114b190614d00565b60128054600160a060020a031916600160a060020a0392909216919091179055565b600054600160a060020a031633146129aa5760405160e560020a62461bcd0281526004016114b190614d00565b600b55565b600054600160a060020a031633146129dc5760405160e560020a62461bcd0281526004016114b190614d00565b602c8054600160a060020a031916600160a060020a0392909216919091179055565b600054600160a060020a03163314612a2b5760405160e560020a62461bcd0281526004016114b190614d00565b60158054600160a060020a031916600160a060020a0392909216919091179055565b600054600160a060020a03163314612a7a5760405160e560020a62461bcd0281526004016114b190614d00565b601c55565b600054600160a060020a03163314612aac5760405160e560020a62461bcd0281526004016114b190614d00565b600f8054600160a060020a031916600160a060020a0392909216919091179055565b600054600160a060020a03163314612afb5760405160e560020a62461bcd0281526004016114b190614d00565b600160a060020a03166000908152601f60205260409020805460ff19169055565b600054600160a060020a03163314612b495760405160e560020a62461bcd0281526004016114b190614d00565b600160a060020a038116612bc85760405160e560020a62461bcd02815260206004820152602660248201527f4f776e61626c653a206e6577206f776e657220697320746865207a65726f206160448201527f646472657373000000000000000000000000000000000000000000000000000060648201526084016114b1565b612bd181613ba8565b50565b600054600160a060020a03163314612c015760405160e560020a62461bcd0281526004016114b190614d00565b600555565b600054600160a060020a03163314612c335760405160e560020a62461bcd0281526004016114b190614d00565b60138054600160a060020a031916600160a060020a0392909216919091179055565b6040517fdd62ed3e000000000000000000000000000000000000000000000000000000008152306004820152600160a060020a038381166024830152600091839186169063dd62ed3e90604401602060405180830381865afa158015612cbf573d6000803e3d6000fd5b505050506040513d601f19601f82011682018060405250810190612ce39190614da0565b612ced9190614e83565b604051600160a060020a038516602482015260448101829052909150611af79085907f095ea7b300000000000000000000000000000000000000000000000000000000906064015b60408051601f198184030181529190526020810180517bffffffffffffffffffffffffffffffffffffffffffffffffffffffff167bffffffffffffffffffffffffffffffffffffffffffffffffffffffff1990931692909217909152613ebe565b604051600160a060020a0380851660248301528316604482015260648101829052611af79085907f23b872dd0000000000000000000000000000000000000000000000000000000090608401612d35565b600060318781548110612dfc57612dfc614ce7565b9060005260206000209060060201905060008411612e5f5760405160e560020a62461bcd02815260206004820152601560248201527f5f77616e74416d74206d757374206265203e203021000000000000000000000060448201526064016114b1565b612e688761198b565b85600160a060020a038116612f0d576000865111612ef15760405160e560020a62461bcd02815260206004820152602c60248201527f4e65697468657220666f726569676e2061636374206e6f72206c6f63616c206160448201527f6363742070726f7669646564000000000000000000000000000000000000000060648201526084016114b1565b612efa86614e9b565b6c01000000000000000000000000900490505b600060318981548110612f2257612f22614ce7565b60009182526020909120600560069092020101546040517f7c7671e2000000000000000000000000000000000000000000000000000000008152600160a060020a0390911690637c7671e290612f809085908b908b90600401614eda565b6020604051808303816000875af1158015612f9f573d6000803e3d6000fd5b505050506040513d601f19601f82011682018060405250810190612fc39190614da0565b601a54600585015491925064e8d4a5100091600160a060020a03908116911614612ff357612ff0866122a7565b90505b6000612fff8383612566565b600486015490915061301190826138d2565b6004860181905560009061302e90611a128464e8d4a510006138ba565b905060006040518060c0016040528084815260200185815260200161306964e8d4a51000611a12868c600301546138ba90919063ffffffff16565b81526020018a81526020018981526020016000815250905061308d8d878d84613fa6565b8c86600160a060020a03167f90890809c654f11d6e72a28fa60149770a0d11ec6c92319d6ceb2bb0a4ea1a158c6040516130c991815260200190565b60405180910390a350505050505050505050505050565b6000600160a060020a0385161580156130fa575060008451115b806131175750600160a060020a0385161580159061311757508351155b6131665760405160e560020a62461bcd02815260206004820152601d60248201527f4f6e6c79206f6e65206163636f756e74207479706520616c6c6f77656400000060448201526064016114b1565b61319f6040518060c001604052806000815260200160008152602001600081526020016000815260200160008152602001600081525090565b600160a060020a03861661323d576000878152603260209081526040808320600160a060020a038a16845290915290208054859081106131e1576131e1614ce7565b90600052602060002090600602016040518060c00160405290816000820154815260200160018201548152602001600282015481526020016003820154815260200160048201548152602001600582015481525050905061339d565b60005b60008881526033602052604090819020905161325d908890614d84565b9081526040519081900360200190205461ffff8216101561339b576000888152603360205260408082209051613294908990614d84565b90815260200160405180910390208261ffff16815481106132b7576132b7614ce7565b6000918252602091829020604080518082019091526002909202018054808352600190910154600160a060020a031692820192909252915086141561338a57600089815260326020908152604080832084830151600160a060020a03168452909152902080548790811061332d5761332d614ce7565b90600052602060002090600602016040518060c0016040529081600082015481526020016001820154815260200160028201548152602001600382015481526020016004820154815260200160058201548152505092505061339b565b5061339481614f0c565b9050613240565b505b6000603188815481106133b2576133b2614ce7565b9060005260206000209060060201905060008260000151116134195760405160e560020a62461bcd02815260206004820152601960248201527f7472616e6368652e636f6e747269627574696f6e20697320300000000000000060448201526064016114b1565b60008160040154116134705760405160e560020a62461bcd02815260206004820152601e60248201527f746f74616c5472616e636865436f6e747269627574696f6e732069732030000060448201526064016114b1565b6134798861198b565b6004810154825160009161349691611a129064e8d4a510006138ba565b905060006134c884604001516134c264e8d4a51000611a128760030154876138ba90919063ffffffff16565b906138ae565b9050801561359757600062093a8090506000613503426134c26134f8858a606001516138ba90919063ffffffff16565b60808a0151906138d2565b9050600080821561353e57606088015161352b9061352190866138ba565b611a1287866138ba565b905061353785826138ae565b9150613542565b8491505b61354c8d836140af565b801561359257600060318f8154811061356757613567614ce7565b6000918252602090912060056006909202010154600160a060020a0316905061359081836140af565b505b505050505b60318a815481106135aa576135aa614ce7565b60009182526020909120600560069092020101546040517f095170e9000000000000000000000000000000000000000000000000000000008152600160a060020a039091169063095170e990613608908c908c908b90600401614f2e565b6020604051808303816000875af1158015613627573d6000803e3d6000fd5b505050506040513d601f19601f8201168201806040525081019061364b9190614da0565b508351600484015461365c916138ae565b60048481019190915583546040517f70a082310000000000000000000000000000000000000000000000000000000081523092810192909252600091600160a060020a03909116906370a0823190602401602060405180830381865afa1580156136ca573d6000803e3d6000fd5b505050506040513d601f19601f820116820180604052508101906136ee9190614da0565b90506136fc8b898c8c61415e565b60408051898152602081018390528c91600160a060020a038d16917f02f25270a4d87bea75db541cdfe559334a275b4a233520ed6c0a2429667cca94910160405180910390a39a9950505050505050505050565b604051600160a060020a0383166024820152604481018290526137999084907fa9059cbb0000000000000000000000000000000000000000000000000000000090606401612d35565b505050565b6000603188815481106137b3576137b3614ce7565b60009182526020822060069190910201600501546040517fe502a88d0000000000000000000000000000000000000000000000000000000081526004810188905260248101859052600160a060020a039091169250829190829063e502a88d906044016020604051808303816000875af1158015613835573d6000803e3d6000fd5b505050506040513d601f19601f820116820180604052508101906138599190614da0565b9050613894838260318d8154811061387357613873614ce7565b6000918252602090912060069091020154600160a060020a03169190612c55565b6138a28a8a8a848a8a612de7565b50505050505050505050565b600061257b8284614f62565b600061257b8284614f79565b600061257b8284614f98565b600061257b8284614e83565b6000858152603360205260409081902090516138fb908890614d84565b908152604051908190036020019020548110156139a857600085815260336020526040808220905161392e908990614d84565b9081526020016040518091039020828154811061394d5761394d614ce7565b6000918252602091829020604080518082019091526002909202018054808352600190910154600160a060020a0316928201929092529150851415613997576020015191506139a8565b506139a181614dd2565b90506138de565b506000848152603260209081526040808320600160a060020a038516845290915281208054859081106139dd576139dd614ce7565b90600052602060002090600602016040518060c001604052908160008201548152602001600182015481526020016002820154815260200160038201548152602001600482015481526020016005820154815250509050613a4382878787600088613bf8565b50600e546040517f70a082310000000000000000000000000000000000000000000000000000000081523060048201526000918291600160a060020a03909116906370a0823190602401602060405180830381865afa158015613aaa573d6000803e3d6000fd5b505050506040513d601f19601f82011682018060405250810190613ace9190614da0565b905060008111613b235760405160e560020a62461bcd02815260206004820152601360248201527f4e6f7468696e6720746f2077697468647261770000000000000000000000000060448201526064016114b1565b6000613b328a89898c87614479565b60008b8152601e602090815260408083205490519394509192613b5f92600160a060020a03169101614d35565b60408051601f1981840301815260a0830182528d83526020830186905290820181905260608201849052608082018990529150613b9b906144ba565b5050505050505050505050565b60008054600160a060020a03838116600160a060020a0319831681178455604051919092169283917f8be0079c531659141344cd1fd0a4f28419497f9722a3daafe3b4186f6b6457e09190a35050565b6000848152603260209081526040808320600160a060020a038a1684529091528120805442919086908110613c2f57613c2f614ce7565b906000526020600020906006020160050181905550600060318681548110613c5957613c59614ce7565b60009182526020822060056006909202010154600160a060020a031691508190613c86888b8b8a8a6130e0565b9050613ca0838260318b8154811061387357613873614ce7565b6040517f648794a40000000000000000000000000000000000000000000000000000000081526004810182905260248101869052600090600160a060020a0384169063648794a4906044016020604051808303816000875af1158015613d0a573d6000803e3d6000fd5b505050506040513d601f19601f82011682018060405250810190613d2e9190614da0565b9b9a5050505050505050505050565b6040516060907f61b729dc0000000000000000000000000000000000000000000000000000000090600090613d7e9089908990899089908990602001614fbd565b60405160208183030381529060405290508181604051602001613da2929190614ff3565b6040516020818303038152906040529250505095945050505050565b604080517e0100000000000000000000000000000000000000000000000000000000000060208201526205573060228083019190915282518083039091018152604290910190915290565b805160009081526025602090815260409182902054602a549184015183850151606086015160a087015195517fc580310000000000000000000000000000000000000000000000000000000000815261ffff90941695600160a060020a039095169463c5803100943494613e8894899491939092829190600401615038565b6000604051808303818588803b158015613ea157600080fd5b505af1158015613eb5573d6000803e3d6000fd5b50505050505050565b6000613f13826040518060400160405280602081526020017f5361666545524332303a206c6f772d6c6576656c2063616c6c206661696c656481525085600160a060020a031661458d9092919063ffffffff16565b8051909150156137995780806020019051810190613f31919061509f565b6137995760405160e560020a62461bcd02815260206004820152602a60248201527f5361666545524332303a204552433230206f7065726174696f6e20646964206e60448201527f6f7420737563636565640000000000000000000000000000000000000000000060648201526084016114b1565b6000848152603260209081526040808320600160a060020a0387168452825280832080546001818101835591855293839020855160069095020193845591840151918301919091558201516002820155606082015160038201556080820151600482015560a0820151600590910155815115611af757600084815260336020526040908190209051614039908490614d84565b9081526020016040518091039020604051806040016040528061406160016134c28989611afd565b8152600160a060020a03958616602091820152825460018082018555600094855293829020835160029092020190815591015191018054600160a060020a0319169190941617909255505050565b6002546040517f70a082310000000000000000000000000000000000000000000000000000000081523060048201528291600091600160a060020a03909116906370a0823190602401602060405180830381865afa158015614115573d6000803e3d6000fd5b505050506040513d601f19601f820116820180604052508101906141399190614da0565b905080831115614147578091505b600254611af790600160a060020a03168584613750565b6000848152603260209081526040808320600160a060020a0386168452909152902080549061418e600183614f62565b8154811061419e5761419e614ce7565b60009182526020808320888452603282526040808520600160a060020a03891686529092529220805460069092029092019190869081106141e1576141e1614ce7565b600091825260208083208454600690930201918255600180850154908301556002808501549083015560038085015490830155600480850154908301556005938401549390910192909255868152603282526040808220600160a060020a038716835290925220805480614257576142576150bc565b600082815260208120600660001990930192830201818155600181018290556002810182905560038101829055600481018290556005015590558151156115925760008581526033602052604080822090516142b4908590614d84565b90815260405190819003602001902054905060005b818160ff161015613eb5578560336000898152602001908152602001600020856040516142f69190614d84565b90815260200160405180910390208260ff168154811061431857614318614ce7565b90600052602060002090600202016000015414156144695760008781526033602052604090819020905161434d908690614d84565b908152604051908190036020019020614367600184614f62565b8154811061437757614377614ce7565b906000526020600020906002020160336000898152602001908152602001600020856040516143a69190614d84565b90815260200160405180910390208260ff16815481106143c8576143c8614ce7565b600091825260208083208454600290930201918255600193840154939091018054600160a060020a031916600160a060020a039094169390931790925588815260339091526040908190209051614420908690614d84565b908152602001604051809103902080548061443d5761443d6150bc565b6000828152602081206002600019909301928302019081556001018054600160a060020a031916905590555b614472816150d5565b90506142c9565b6040516060907f0689acd20000000000000000000000000000000000000000000000000000000090600090613d7e90899089908990899089906020016150f5565b6144de60405180606001604052806000815260200160008152602001606081525090565b602754825160009081526025602090815260408083205460285487518552602984529190932054918601516080870151600160a060020a0390951694639fbf10fc94349461ffff90911693929091339190614542906103e890611a129084906138ba565b898b604001518c606001516040518b63ffffffff167c0100000000000000000000000000000000000000000000000000000000028152600401613e889998979695949392919061512c565b606061459c84846000856145a4565b949350505050565b606030318311156146205760405160e560020a62461bcd02815260206004820152602660248201527f416464726573733a20696e73756666696369656e742062616c616e636520666f60448201527f722063616c6c000000000000000000000000000000000000000000000000000060648201526084016114b1565b600160a060020a0385163b61467a5760405160e560020a62461bcd02815260206004820152601d60248201527f416464726573733a2063616c6c20746f206e6f6e2d636f6e747261637400000060448201526064016114b1565b60008086600160a060020a031685876040516146969190614d84565b60006040518083038185875af1925050503d80600081146146d3576040519150601f19603f3d011682016040523d82523d6000602084013e6146d8565b606091505b50915091506146e88282866146f3565b979650505050505050565b6060831561470257508161257b565b8251156147125782518084602001fd5b8160405160e560020a62461bcd0281526004016114b191906151cb565b828054828255906000526020600020908101928215614784579160200282015b828111156147845782518254600160a060020a031916600160a060020a0390911617825560209092019160019091019061474f565b50614790929150614794565b5090565b5b808211156147905760008155600101614795565b6000806000606084860312156147be57600080fd5b505081359360208301359350604090920135919050565b60e060020a634e487b7102600052604160045260246000fd5b604051601f8201601f1916810167ffffffffffffffff81118282101715614817576148176147d5565b604052919050565b600082601f83011261483057600080fd5b813567ffffffffffffffff81111561484a5761484a6147d5565b61485d601f8201601f19166020016147ee565b81815284602083860101111561487257600080fd5b816020850160208301376000918101602001919091529392505050565b600080600080600060a086880312156148a757600080fd5b853594506020860135935060408601359250606086013567ffffffffffffffff8111156148d357600080fd5b6148df8882890161481f565b95989497509295608001359392505050565b60006020828403121561490357600080fd5b5035919050565b60006020828403121561491c57600080fd5b813561ffff8116811461257b57600080fd5b8035600160a060020a038116811461237b57600080fd5b60006020828403121561495757600080fd5b61257b8261492e565b60008060006060848603121561497557600080fd5b83359250602084013567ffffffffffffffff81111561499357600080fd5b61499f8682870161481f565b925050604084013590509250925092565b8015158114612bd157600080fd5b6000806000606084860312156149d357600080fd5b833592506020840135915060408401356149ec816149b0565b809150509250925092565b60008060008060808587031215614a0d57600080fd5b5050823594602084013594506040840135936060013592509050565b60008060408385031215614a3c57600080fd5b82359150614a4c6020840161492e565b90509250929050565b600080600080600060a08688031215614a6d57600080fd5b85359450602086013567ffffffffffffffff811115614a8b57600080fd5b614a978882890161481f565b959895975050505060408401359360608101359360809091013592509050565b600060208284031215614ac957600080fd5b813567ffffffffffffffff811115614ae057600080fd5b61459c8482850161481f565b60006020808385031215614aff57600080fd5b823567ffffffffffffffff80821115614b1757600080fd5b818501915085601f830112614b2b57600080fd5b813581811115614b3d57614b3d6147d5565b8381029150614b4d8483016147ee565b8181529183018401918481019088841115614b6757600080fd5b938501935b83851015614b8c57614b7d8561492e565b82529385019390850190614b6c565b98975050505050505050565b600080600080600060a08688031215614bb057600080fd5b505083359560208501359550604085013594606081013594506080013592509050565b600060208284031215614be557600080fd5b813561257b816149b0565b60008060008060808587031215614c0657600080fd5b84359350602085013592506040850135614c1f816149b0565b9396929550929360600135925050565b60008060408385031215614c4257600080fd5b50508035926020909101359150565b600080600060608486031215614c6657600080fd5b83359250614c766020850161492e565b9150604084013590509250925092565b60008060408385031215614c9957600080fd5b614ca28361492e565b946020939093013593505050565b6020808252601f908201527f5265656e7472616e637947756172643a207265656e7472616e742063616c6c00604082015260600190565b60e060020a634e487b7102600052603260045260246000fd5b6020808252818101527f4f776e61626c653a2063616c6c6572206973206e6f7420746865206f776e6572604082015260600190565b600160a060020a03919091166c0100000000000000000000000002815260140190565b60005b83811015614d73578181015183820152602001614d5b565b83811115611af75750506000910152565b60008251614d96818460208701614d58565b9190910192915050565b600060208284031215614db257600080fd5b5051919050565b60e060020a634e487b7102600052601160045260246000fd5b6000600019821415614de657614de6614db9565b5060010190565b60008151808452614e05816020860160208601614d58565b601f01601f19169290920160200192915050565b61ffff86168152600160a060020a038516602082015260a060408201526000614e4560a0830186614ded565b84151560608401528281036080840152614b8c8185614ded565b60008060408385031215614e7257600080fd5b505080516020909101519092909150565b60008219821115614e9657614e96614db9565b500190565b805160208201516bffffffffffffffffffffffff198082169291906014831015614ed257808360140360080260020a820283161693505b505050919050565b600160a060020a0384168152606060208201526000614efc6060830185614ded565b9050826040830152949350505050565b600061ffff80831681811415614f2457614f24614db9565b6001019392505050565b600160a060020a0384168152606060208201526000614f506060830185614ded565b90508215156040830152949350505050565b600082821015614f7457614f74614db9565b500390565b6000816000190483118215151615614f9357614f93614db9565b500290565b600082614fb85760e060020a634e487b7102600052601260045260246000fd5b500490565b85815260a060208201526000614fd660a0830187614ded565b604083019590955250606081019290925260809091015292915050565b7bffffffffffffffffffffffffffffffffffffffffffffffffffffffff19831681526000825161502a816004850160208701614d58565b919091016004019392505050565b61ffff8716815260c06020820152600061505560c0830188614ded565b82810360408401526150678188614ded565b600160a060020a0387811660608601528616608085015283810360a085015290506150928185614ded565b9998505050505050505050565b6000602082840312156150b157600080fd5b815161257b816149b0565b60e060020a634e487b7102600052603160045260246000fd5b600060ff821660ff8114156150ec576150ec614db9565b60010192915050565b85815284602082015283604082015260a06060820152600061511a60a0830185614ded565b90508260808301529695505050505050565b600061012061ffff8c1683528a6020840152896040840152600160a060020a03891660608401528760808401528660a08401528060c084015285518184015250602085015161014083015260408501516060610160840152615192610180840182614ded565b905082810360e08401526151a68186614ded565b90508281036101008401526151bb8185614ded565b9c9b505050505050505050505050565b60208152600061257b6020830184614ded56fea26469706673582212205598af4fc50cf7d527016b4104c7eb0a8e9e6dc427e3fae347cb6bc51829054964736f6c634300080a0033",
  "immutableReferences": {},
  "source": "// SPDX-License-Identifier: MIT\n\npragma solidity ^0.8.0;\n\nimport \"./_ZorroControllerXChain.sol\";\n\n\ncontract ZorroControllerXChainWithdraw is ZorroControllerXChain {\n    /* Fees */\n\n    /* Fees::withdrawals */\n\n    /// @notice Checks to see how much a cross chain withdrawal will cost\n    /// @param _zorroChainId The Zorro Chain ID (not the LayerZero one)\n    /// @param _pid The pool ID on the remote chain\n    /// @param _trancheId The tranche ID on the remote chain\n    /// @param _maxMarketMovement Acceptable degree of slippage on any transaction (e.g. 950 = 5%, 990 = 1% etc.)\n    /// @return uint256 Expected fee to pay for bridging/cross chain execution\n    function checkXChainWithdrawalFee(\n        uint256 _zorroChainId,\n        uint256 _pid,\n        uint256 _trancheId,\n        uint256 _maxMarketMovement\n    ) external view returns (uint256) {\n        // Get destination \n        uint16 _dstChainId = stargateZorroChainMap[_zorroChainId];\n\n        // Prepare encoding\n        bytes memory _payload = _encodeXChainWithdrawalPayload(\n            chainId,\n            abi.encodePacked(msg.sender),  \n            _pid, \n            _trancheId, \n            _maxMarketMovement\n        );\n\n        // Encode adapter params to provide more gas for destination\n        bytes memory _adapterParams = _getLZAdapterParamsForWithdraw();\n\n        // Query LayerZero for quote\n        (uint256 _nativeFee,) = ILayerZeroEndpoint(layerZeroEndpoint).estimateFees(\n            _dstChainId, \n            address(this), \n            _payload, \n            false, \n            _adapterParams\n        );\n        // TODO: Check if we need to sum these values or what? Need to better understand fee estimation in general: Oracle, relayer fees etc. \n        return _nativeFee;\n    }\n\n    /// @notice Encodes adapter params to provide more gas for destination\n    function _getLZAdapterParamsForWithdraw() internal pure returns (bytes memory) {\n        uint16 _version = 1;\n        uint256 _gasForDestinationLZReceive = 350000;\n        return abi.encodePacked(_version, _gasForDestinationLZReceive);\n    }\n\n    /* Fees::repatriation */\n\n    // TODO: Docstrings\n    function _checkXChainRepatriationFee() internal view returns (uint256) {\n        // TODO: Implement\n    }\n\n    /* Encoding (payloads) */\n\n    /* Encoding::withdrawals */\n\n    // TODO: docstrings\n    function _encodeXChainWithdrawalPayload(\n        uint256 _originChainId,\n        bytes memory _originAccount,\n        uint256 _pid,\n        uint256 _trancheId,\n        uint256 _maxMarketMovement\n    ) internal pure returns (bytes memory) {\n        // TODO: Implement\n        // Calculate method signature\n        bytes4 _sig = this.receiveXChainWithdrawalRequest.selector;\n        // Calculate abi encoded bytes for input args\n        bytes memory _inputs = abi.encode(\n            _originChainId,\n            _originAccount,\n            _pid,\n            _trancheId,\n            _maxMarketMovement\n        );\n        // Concatenate bytes of signature and inputs\n        return bytes.concat(_sig, _inputs);\n    }\n\n    /* Encoding::repatriation */\n\n    // TODO: docstrings\n    function _encodeXChainRepatriationPayload(\n        uint256 _originChainId,\n        uint256 _pid,\n        uint256 _trancheId,\n        bytes memory _originRecipient,\n        uint256 _burnableZORRewards\n    ) internal pure returns (bytes memory) {\n        // Calculate method signature\n        bytes4 _sig = this.receiveXChainRepatriationRequest.selector;\n        // Calculate abi encoded bytes for input args\n        bytes memory _inputs = abi.encode(\n            _originChainId,\n            _pid,\n            _trancheId,\n            _originRecipient,\n            _burnableZORRewards\n        );\n        // Concatenate bytes of signature and inputs\n        return bytes.concat(_sig, _inputs);\n    }\n\n    /* Sending */\n\n    /* Sending::withdrawals */\n\n    /// @notice Prepares and sends a cross chain withdrwal request.\n    /// @dev Requires value to be submitted to pay for cross chain transaction. Use checkXChainWithdrawalFee() to estimate fees\n    /// @param _destZorroChainId The Zorro chain ID of the remote chain to withdraw from\n    /// @param _pid The pool ID on the remote chain\n    /// @param _trancheId The ID of the tranche for the given user and pool\n    /// @param _maxMarketMovement Acceptable degree of slippage on any transaction (e.g. 950 = 5%, 990 = 1% etc.)\n    function sendXChainWithdrawalRequest(\n        uint256 _destZorroChainId,\n        bytes memory _originAccount,\n        uint256 _pid,\n        uint256 _trancheId,\n        uint256 _maxMarketMovement\n    ) external payable nonReentrant {\n        // Prep payload\n        bytes memory _payload = _encodeXChainWithdrawalPayload(\n            chainId, \n            abi.encodePacked(msg.sender),\n            _pid,\n            _trancheId, \n            _maxMarketMovement\n        );\n\n        // Destination info\n        bytes memory _dstContract = abi.encodePacked(endpointContracts[_destZorroChainId]);\n\n        // Send LayerZero request\n        _callLZSend(LZMessagePayload({\n            zorroChainId: _destZorroChainId,\n            destinationContract: _dstContract,\n            payload: _payload,\n            refundAddress: payable(msg.sender),\n            _zroPaymentAddress: address(0),\n            adapterParams: _getLZAdapterParamsForWithdraw()\n        }));\n    }\n\n    /* Sending::repatriation */\n\n    // TODO: Docstrings\n    function _sendXChainRepatriationRequest() internal {\n        // TODO: implement\n    }\n\n    /* Receiving */\n\n    /* Receiving::withdrawals */\n\n    /// @notice Dummy func to allow .selector call above and guarantee typesafety for abi calls.\n    /// @dev Should never ever be actually called.\n    function receiveXChainWithdrawalRequest(\n        uint256 _originChainId,\n        bytes memory _originAccount,\n        uint256 _pid,\n        uint256 _trancheId,\n        uint256 _maxMarketMovement\n    ) public {\n        // Revert to make sure this function never gets called\n        revert(\"illegal dummy func call\");\n\n        // But still include the function call here anyway to satisfy type safety requirements in case there is a change\n        _receiveXChainWithdrawalRequest(\n            _originChainId,\n            _originAccount,\n            _pid,\n            _trancheId,\n            _maxMarketMovement\n        );\n    }\n\n    // TODO: docstrings\n    function _receiveXChainWithdrawalRequest(\n        uint256 _originChainId,\n        bytes memory _originAccount,\n        uint256 _pid,\n        uint256 _trancheId,\n        uint256 _maxMarketMovement\n    ) internal {\n        // Get on-chain account using foreign account as guide\n        address _account;\n        for (\n            uint256 i = 0;\n            i < foreignTrancheInfo[_pid][_originAccount].length;\n            ++i\n        ) {\n            ForeignTrancheInfo memory _fti = foreignTrancheInfo[_pid][\n                _originAccount\n            ][i];\n            if (_fti.trancheIndex == _trancheId) {\n                _account = _fti.localAccount;\n                break;\n            }\n        }\n\n        // Get tranche\n        TrancheInfo memory tranche = trancheInfo[_pid][_account][_trancheId];\n\n        // Withdraw funds\n        _withdrawalFullService(\n            _account,\n            _originAccount,\n            _pid,\n            _trancheId,\n            false,\n            _maxMarketMovement\n        );\n\n        // TODO: Very important: Determine burnable rewards for real during:\n        /*\n        1. Deposits (xchain)\n        2. Withdrawals (xchain)\n        For now, just setting it to zero. (Dummy value)\n        */\n        uint256 _burnableZORRewards = 0;\n\n\n        // Get USDC bal\n        uint256 _balUSDC = IERC20(defaultStablecoin).balanceOf(address(this));\n\n        // Only proceed if there is something to withdraw\n        require(_balUSDC > 0, \"Nothing to withdraw\");\n\n        // Repatriate funds\n        // Get payload\n        bytes memory _payload = _encodeXChainRepatriationPayload(\n            _originChainId,\n            _pid,\n            _trancheId,\n            _originAccount,\n            _burnableZORRewards\n        );\n        // Get origin chain destination\n        bytes memory _dstContract = abi.encodePacked(endpointContracts[_originChainId]);\n        // Call Stargate\n        _callStargateSwap(\n            StargateSwapPayload({\n                chainId: _originChainId,\n                qty: _balUSDC,\n                dstContract: _dstContract,\n                payload: _payload,\n                maxMarketMovement: _maxMarketMovement\n            })\n        );\n    }\n\n    /* Receiving::repatriation */\n\n    /// @notice Dummy func to allow .selector call above and guarantee typesafety for abi calls.\n    /// @dev Should never ever be actually called.\n    function receiveXChainRepatriationRequest(\n        uint256 _originChainId,\n        uint256 _pid,\n        uint256 _trancheId,\n        bytes memory _originRecipient,\n        uint256 _burnableZORRewards\n    ) public {\n        // Revert to make sure this function never gets called\n        revert(\"illegal dummy func call\");\n\n        // But still include the function call here anyway to satisfy type safety requirements in case there is a change\n        _receiveXChainRepatriationRequest(\n            _originChainId,\n            _pid,\n            _trancheId,\n            _originRecipient,\n            _burnableZORRewards\n        );\n    }\n\n    /// @notice Receives a repatriation request from another chain and takes care of all financial operations (unlock/mint/burn) to pay the user their withdrawn funds from another chain\n    /// @param _originChainId The Chain ID of the investment being repatriated\n    /// @param _pid The pid of the investment being repatriated\n    /// @param _trancheId The tranche ID of the investment being repatriated\n    /// @param _originRecipient The wallet address on this chain that funds are being repatriated to\n    /// @param _burnableZORRewards The amount of ZOR token to be burned (since rewards were minted on the opposite chain)\n    function _receiveXChainRepatriationRequest(\n        uint256 _originChainId,\n        uint256 _pid,\n        uint256 _trancheId,\n        bytes memory _originRecipient,\n        uint256 _burnableZORRewards\n    ) internal {\n        // Emit repatriation event TODO\n\n        // Burn ZOR rewards as applicable (since rewards were minted on the other chain)\n        if (_burnableZORRewards > 0) {\n            // TODO: Burn ZOR\n        }\n    }\n}",
  "sourcePath": "/Users/kristophm/Documents/workspace/zorro-protocol/contracts/controllers/_ZorroControllerXChainWithdraw.sol",
  "compiler": {
    "name": "solc",
    "version": "0.8.10+commit.fc410830.Emscripten.clang"
  },
  "schemaVersion": "3.4.4",
  "updatedAt": "2022-04-02T21:35:37.052Z",
  "devdoc": {
    "kind": "dev",
    "methods": {
      "checkXChainWithdrawalFee(uint256,uint256,uint256,uint256)": {
        "params": {
          "_maxMarketMovement": "Acceptable degree of slippage on any transaction (e.g. 950 = 5%, 990 = 1% etc.)",
          "_pid": "The pool ID on the remote chain",
          "_trancheId": "The tranche ID on the remote chain",
          "_zorroChainId": "The Zorro Chain ID (not the LayerZero one)"
        },
        "returns": {
          "_0": "uint256 Expected fee to pay for bridging/cross chain execution"
        }
      },
      "deposit(uint256,uint256,uint256)": {
        "params": {
          "_pid": "index of pool",
          "_wantAmt": "how much Want token to deposit",
          "_weeksCommitted": "how many weeks the user is committing to on this vault"
        }
      },
      "depositFullService(uint256,uint256,uint256,uint256)": {
        "params": {
          "_maxMarketMovement": "factor to account for max market movement/slippage. The definition varies by Vault, so consult the associated Vault contract for info",
          "_pid": "index of pool to deposit into",
          "_valueUSDC": "value in USDC (in ether units) to deposit",
          "_weeksCommitted": "how many weeks to commit to the Pool (can be 0 or any uint)"
        }
      },
      "getTimeMultiplier(uint256)": {
        "params": {
          "durationInWeeks": "number of weeks committed into Vault"
        },
        "returns": {
          "_0": "multiplier factor, times 1e12"
        }
      },
      "getUserContribution(uint256,uint256)": {
        "params": {
          "_liquidityCommitted": "How many tokens staked (e.g. LP tokens)",
          "_timeMultiplier": "Time multiplier value (from getTimeMultiplier())"
        },
        "returns": {
          "_0": "The relative contribution of the user (unitless)"
        }
      },
      "inCaseTokensGetStuck(address,uint256)": {
        "details": "Does not permit usage for the Zorro token",
        "params": {
          "_amount": "token quantity",
          "_token": "ERC20 token address"
        }
      },
      "owner()": {
        "details": "Returns the address of the current owner."
      },
      "poolLength()": {
        "returns": {
          "_0": "Number of pools"
        }
      },
      "receiveXChainBurnRewardsRequest(uint256)": {
        "params": {
          "_amount": "The quantity of ZOR tokens to burn"
        }
      },
      "receiveXChainRepatriationRequest(uint256,uint256,uint256,bytes,uint256)": {
        "details": "Should never ever be actually called."
      },
      "receiveXChainWithdrawalRequest(uint256,bytes,uint256,uint256,uint256)": {
        "details": "Should never ever be actually called."
      },
      "renounceOwnership()": {
        "details": "Leaves the contract without owner. It will not be possible to call `onlyOwner` functions anymore. Can only be called by the current owner. NOTE: Renouncing ownership will leave the contract without an owner, thereby removing any functionality that is only available to the owner."
      },
      "sendXChainWithdrawalRequest(uint256,bytes,uint256,uint256,uint256)": {
        "details": "Requires value to be submitted to pay for cross chain transaction. Use checkXChainWithdrawalFee() to estimate fees",
        "params": {
          "_destZorroChainId": "The Zorro chain ID of the remote chain to withdraw from",
          "_maxMarketMovement": "Acceptable degree of slippage on any transaction (e.g. 950 = 5%, 990 = 1% etc.)",
          "_pid": "The pool ID on the remote chain",
          "_trancheId": "The ID of the tranche for the given user and pool"
        }
      },
      "setZorroPerBlock(uint256,uint256,uint256,uint256,uint256)": {
        "details": "Values to be provided by Oracle. Perferable to run daily",
        "params": {
          "_ZorroTotalVaultTVLUSD": "USD value of all TVL locked into the Zorro protocol, across all chains",
          "_publicPoolZORBalance": "Number of ZOR tokens remaining in public pool on home chain",
          "_targetTVLCaptureBasisPoints": "% desired capture of total market TVL, measured in basis points",
          "_totalChainMultipliers": "Sum total of all chain multipliers for each chain",
          "_totalMarketTVLUSD": "Total DeFi market TVL across all chains (measured in USD)"
        }
      },
      "trancheLength(uint256,address)": {
        "params": {
          "_pid": "Index of pool",
          "_user": "wallet address of user"
        },
        "returns": {
          "_0": "Number of tranches"
        }
      },
      "transferInvestment(uint256,uint256,uint256,uint256)": {
        "params": {
          "_fromPid": "index of pool FROM",
          "_fromTrancheId": "index of tranche FROM",
          "_maxMarketMovement": "factor to account for max market movement/slippage. The definition varies by Vault, so consult the associated Vault contract for info",
          "_toPid": "index of pool TO"
        }
      },
      "transferOwnership(address)": {
        "details": "Transfers ownership of the contract to a new account (`newOwner`). Can only be called by the current owner."
      },
      "updatePool(uint256)": {
        "params": {
          "_pid": "index of pool"
        }
      },
      "withdraw(uint256,uint256,bool)": {
        "params": {
          "_harvestOnly": "If true, will only harvest Zorro tokens but not do a withdrawal",
          "_pid": "index of pool",
          "_trancheId": "index of tranche"
        },
        "returns": {
          "_0": "Amount of Want token withdrawn"
        }
      },
      "withdrawAll(uint256)": {
        "params": {
          "_pid": "index of pool"
        }
      },
      "withdrawalFullService(uint256,uint256,bool,uint256)": {
        "params": {
          "_harvestOnly": "If true, will only harvest Zorro tokens but not do a withdrawal",
          "_maxMarketMovement": "factor to account for max market movement/slippage. The definition varies by Vault, so consult the associated Vault contract for info",
          "_pid": "index of pool to deposit into",
          "_trancheId": "index of tranche"
        },
        "returns": {
          "_0": "Amount (in USDC) returned"
        }
      }
    },
    "version": 1
  },
  "userdoc": {
    "kind": "user",
    "methods": {
      "checkXChainWithdrawalFee(uint256,uint256,uint256,uint256)": {
        "notice": "Checks to see how much a cross chain withdrawal will cost"
      },
      "deposit(uint256,uint256,uint256)": {
        "notice": "Deposit Want tokens to associated Vault"
      },
      "depositFullService(uint256,uint256,uint256,uint256)": {
        "notice": "Deposits funds in a full service manner (performs autoswaps and obtains Want tokens)"
      },
      "getTimeMultiplier(uint256)": {
        "notice": "Calculate time multiplier based on duration committed"
      },
      "getUserContribution(uint256,uint256)": {
        "notice": "The contribution of the user, meant to be used in rewards allocations"
      },
      "inCaseTokensGetStuck(address,uint256)": {
        "notice": "For owner to recover ERC20 tokens on this contract if stuck"
      },
      "poolLength()": {
        "notice": "Number of pools in the Zorro protocol"
      },
      "receiveXChainBurnRewardsRequest(uint256)": {
        "notice": "Receives an authorized burn request from another chain and burns the specified amount of ZOR tokens from the public pool"
      },
      "receiveXChainRepatriationRequest(uint256,uint256,uint256,bytes,uint256)": {
        "notice": "Dummy func to allow .selector call above and guarantee typesafety for abi calls."
      },
      "receiveXChainWithdrawalRequest(uint256,bytes,uint256,uint256,uint256)": {
        "notice": "Dummy func to allow .selector call above and guarantee typesafety for abi calls."
      },
      "sendXChainWithdrawalRequest(uint256,bytes,uint256,uint256,uint256)": {
        "notice": "Prepares and sends a cross chain withdrwal request."
      },
      "setZorroPerBlock(uint256,uint256,uint256,uint256,uint256)": {
        "notice": "Set the number of Zorro to emit per block based on current market parameters"
      },
      "trancheLength(uint256,address)": {
        "notice": "Number of tranches invested by a given user into a given pool"
      },
      "transferInvestment(uint256,uint256,uint256,uint256)": {
        "notice": "Transfer all assets from a tranche in one vault to a new vault (works on-chain only)"
      },
      "updatePool(uint256)": {
        "notice": "Update reward variables of the given pool to be up-to-date."
      },
      "withdraw(uint256,uint256,bool)": {
        "notice": "Fully withdraw Want tokens from underlying Vault."
      },
      "withdrawAll(uint256)": {
        "notice": "Withdraw the maximum number of Want tokens from a pool"
      },
      "withdrawalFullService(uint256,uint256,bool,uint256)": {
        "notice": "Withdraws funds from a pool and converts the Want token into USDC"
      }
    },
    "version": 1
  }
}