{
  "contractName": "ZorroControllerInvestment",
  "abi": [
    {
      "anonymous": false,
      "inputs": [
        {
          "indexed": true,
          "internalType": "address",
          "name": "account",
          "type": "address"
        },
        {
          "indexed": true,
          "internalType": "bytes",
          "name": "foreignAccount",
          "type": "bytes"
        },
        {
          "indexed": true,
          "internalType": "uint256",
          "name": "pid",
          "type": "uint256"
        },
        {
          "indexed": false,
          "internalType": "uint256",
          "name": "wantAmount",
          "type": "uint256"
        }
      ],
      "name": "Deposit",
      "type": "event"
    },
    {
      "anonymous": false,
      "inputs": [
        {
          "indexed": true,
          "internalType": "address",
          "name": "previousOwner",
          "type": "address"
        },
        {
          "indexed": true,
          "internalType": "address",
          "name": "newOwner",
          "type": "address"
        }
      ],
      "name": "OwnershipTransferred",
      "type": "event"
    },
    {
      "anonymous": false,
      "inputs": [
        {
          "indexed": false,
          "internalType": "address",
          "name": "account",
          "type": "address"
        },
        {
          "indexed": true,
          "internalType": "uint256",
          "name": "fromPid",
          "type": "uint256"
        },
        {
          "indexed": true,
          "internalType": "uint256",
          "name": "fromTrancheId",
          "type": "uint256"
        },
        {
          "indexed": true,
          "internalType": "uint256",
          "name": "toPid",
          "type": "uint256"
        }
      ],
      "name": "TransferInvestment",
      "type": "event"
    },
    {
      "anonymous": false,
      "inputs": [
        {
          "indexed": true,
          "internalType": "address",
          "name": "account",
          "type": "address"
        },
        {
          "indexed": true,
          "internalType": "bytes",
          "name": "foreignAccount",
          "type": "bytes"
        },
        {
          "indexed": true,
          "internalType": "uint256",
          "name": "pid",
          "type": "uint256"
        },
        {
          "indexed": false,
          "internalType": "uint256",
          "name": "trancheId",
          "type": "uint256"
        },
        {
          "indexed": false,
          "internalType": "uint256",
          "name": "wantAmount",
          "type": "uint256"
        }
      ],
      "name": "Withdraw",
      "type": "event"
    },
    {
      "inputs": [
        {
          "internalType": "uint256",
          "name": "",
          "type": "uint256"
        }
      ],
      "name": "USDCToZorroLPPoolOtherTokenPath",
      "outputs": [
        {
          "internalType": "address",
          "name": "",
          "type": "address"
        }
      ],
      "stateMutability": "view",
      "type": "function"
    },
    {
      "inputs": [
        {
          "internalType": "uint256",
          "name": "",
          "type": "uint256"
        }
      ],
      "name": "USDCToZorroPath",
      "outputs": [
        {
          "internalType": "address",
          "name": "",
          "type": "address"
        }
      ],
      "stateMutability": "view",
      "type": "function"
    },
    {
      "inputs": [],
      "name": "ZORRO",
      "outputs": [
        {
          "internalType": "address",
          "name": "",
          "type": "address"
        }
      ],
      "stateMutability": "view",
      "type": "function"
    },
    {
      "inputs": [],
      "name": "ZORRODailyDistributionFactorBasisPointsMax",
      "outputs": [
        {
          "internalType": "uint256",
          "name": "",
          "type": "uint256"
        }
      ],
      "stateMutability": "view",
      "type": "function"
    },
    {
      "inputs": [],
      "name": "ZORRODailyDistributionFactorBasisPointsMin",
      "outputs": [
        {
          "internalType": "uint256",
          "name": "",
          "type": "uint256"
        }
      ],
      "stateMutability": "view",
      "type": "function"
    },
    {
      "inputs": [],
      "name": "ZORROPerBlock",
      "outputs": [
        {
          "internalType": "uint256",
          "name": "",
          "type": "uint256"
        }
      ],
      "stateMutability": "view",
      "type": "function"
    },
    {
      "inputs": [],
      "name": "baseRewardRateBasisPoints",
      "outputs": [
        {
          "internalType": "uint256",
          "name": "",
          "type": "uint256"
        }
      ],
      "stateMutability": "view",
      "type": "function"
    },
    {
      "inputs": [],
      "name": "blocksPerDay",
      "outputs": [
        {
          "internalType": "uint256",
          "name": "",
          "type": "uint256"
        }
      ],
      "stateMutability": "view",
      "type": "function"
    },
    {
      "inputs": [],
      "name": "burnAddress",
      "outputs": [
        {
          "internalType": "address",
          "name": "",
          "type": "address"
        }
      ],
      "stateMutability": "view",
      "type": "function"
    },
    {
      "inputs": [],
      "name": "chainId",
      "outputs": [
        {
          "internalType": "uint256",
          "name": "",
          "type": "uint256"
        }
      ],
      "stateMutability": "view",
      "type": "function"
    },
    {
      "inputs": [],
      "name": "chainMultiplier",
      "outputs": [
        {
          "internalType": "uint256",
          "name": "",
          "type": "uint256"
        }
      ],
      "stateMutability": "view",
      "type": "function"
    },
    {
      "inputs": [],
      "name": "defaultStablecoin",
      "outputs": [
        {
          "internalType": "address",
          "name": "",
          "type": "address"
        }
      ],
      "stateMutability": "view",
      "type": "function"
    },
    {
      "inputs": [
        {
          "internalType": "uint256",
          "name": "",
          "type": "uint256"
        },
        {
          "internalType": "bytes",
          "name": "",
          "type": "bytes"
        },
        {
          "internalType": "uint256",
          "name": "",
          "type": "uint256"
        }
      ],
      "name": "foreignTrancheInfo",
      "outputs": [
        {
          "internalType": "address",
          "name": "",
          "type": "address"
        }
      ],
      "stateMutability": "view",
      "type": "function"
    },
    {
      "inputs": [],
      "name": "homeChainId",
      "outputs": [
        {
          "internalType": "uint256",
          "name": "",
          "type": "uint256"
        }
      ],
      "stateMutability": "view",
      "type": "function"
    },
    {
      "inputs": [],
      "name": "homeChainZorroController",
      "outputs": [
        {
          "internalType": "address",
          "name": "",
          "type": "address"
        }
      ],
      "stateMutability": "view",
      "type": "function"
    },
    {
      "inputs": [
        {
          "internalType": "address",
          "name": "_token",
          "type": "address"
        },
        {
          "internalType": "uint256",
          "name": "_amount",
          "type": "uint256"
        }
      ],
      "name": "inCaseTokensGetStuck",
      "outputs": [],
      "stateMutability": "nonpayable",
      "type": "function"
    },
    {
      "inputs": [],
      "name": "isTimeMultiplierActive",
      "outputs": [
        {
          "internalType": "bool",
          "name": "",
          "type": "bool"
        }
      ],
      "stateMutability": "view",
      "type": "function"
    },
    {
      "inputs": [],
      "name": "owner",
      "outputs": [
        {
          "internalType": "address",
          "name": "",
          "type": "address"
        }
      ],
      "stateMutability": "view",
      "type": "function"
    },
    {
      "inputs": [
        {
          "internalType": "uint256",
          "name": "",
          "type": "uint256"
        }
      ],
      "name": "poolInfo",
      "outputs": [
        {
          "internalType": "contract IERC20",
          "name": "want",
          "type": "address"
        },
        {
          "internalType": "uint256",
          "name": "allocPoint",
          "type": "uint256"
        },
        {
          "internalType": "uint256",
          "name": "lastRewardBlock",
          "type": "uint256"
        },
        {
          "internalType": "uint256",
          "name": "accZORRORewards",
          "type": "uint256"
        },
        {
          "internalType": "uint256",
          "name": "totalTrancheContributions",
          "type": "uint256"
        },
        {
          "internalType": "address",
          "name": "vault",
          "type": "address"
        }
      ],
      "stateMutability": "view",
      "type": "function"
    },
    {
      "inputs": [],
      "name": "poolLength",
      "outputs": [
        {
          "internalType": "uint256",
          "name": "",
          "type": "uint256"
        }
      ],
      "stateMutability": "view",
      "type": "function"
    },
    {
      "inputs": [],
      "name": "priceFeedLPPoolOtherToken",
      "outputs": [
        {
          "internalType": "contract AggregatorV3Interface",
          "name": "",
          "type": "address"
        }
      ],
      "stateMutability": "view",
      "type": "function"
    },
    {
      "inputs": [],
      "name": "priceFeedZOR",
      "outputs": [
        {
          "internalType": "contract AggregatorV3Interface",
          "name": "",
          "type": "address"
        }
      ],
      "stateMutability": "view",
      "type": "function"
    },
    {
      "inputs": [],
      "name": "publicPool",
      "outputs": [
        {
          "internalType": "address",
          "name": "",
          "type": "address"
        }
      ],
      "stateMutability": "view",
      "type": "function"
    },
    {
      "inputs": [],
      "name": "renounceOwnership",
      "outputs": [],
      "stateMutability": "nonpayable",
      "type": "function"
    },
    {
      "inputs": [
        {
          "internalType": "address",
          "name": "_ZORRO",
          "type": "address"
        },
        {
          "internalType": "address",
          "name": "_defaultStablecoin",
          "type": "address"
        }
      ],
      "name": "setKeyAddresses",
      "outputs": [],
      "stateMutability": "nonpayable",
      "type": "function"
    },
    {
      "inputs": [
        {
          "internalType": "uint256[]",
          "name": "_blockParams",
          "type": "uint256[]"
        },
        {
          "internalType": "uint256[]",
          "name": "_dailyDistFactors",
          "type": "uint256[]"
        },
        {
          "internalType": "uint256",
          "name": "_chainMultiplier",
          "type": "uint256"
        },
        {
          "internalType": "uint256",
          "name": "_baseRewardRateBasisPoints",
          "type": "uint256"
        }
      ],
      "name": "setRewardsParams",
      "outputs": [],
      "stateMutability": "nonpayable",
      "type": "function"
    },
    {
      "inputs": [
        {
          "internalType": "uint256",
          "name": "_startBlock",
          "type": "uint256"
        }
      ],
      "name": "setStartBlock",
      "outputs": [],
      "stateMutability": "nonpayable",
      "type": "function"
    },
    {
      "inputs": [
        {
          "internalType": "uint256",
          "name": "_targetTVLCaptureBasisPoints",
          "type": "uint256"
        }
      ],
      "name": "setTargetTVLCaptureBasisPoints",
      "outputs": [],
      "stateMutability": "nonpayable",
      "type": "function"
    },
    {
      "inputs": [
        {
          "internalType": "uint256",
          "name": "_chainId",
          "type": "uint256"
        },
        {
          "internalType": "uint256",
          "name": "_homeChainId",
          "type": "uint256"
        },
        {
          "internalType": "address",
          "name": "_homeChainZorroController",
          "type": "address"
        }
      ],
      "name": "setXChainParams",
      "outputs": [],
      "stateMutability": "nonpayable",
      "type": "function"
    },
    {
      "inputs": [
        {
          "internalType": "address",
          "name": "_publicPool",
          "type": "address"
        },
        {
          "internalType": "address",
          "name": "_zorroStakingVault",
          "type": "address"
        }
      ],
      "name": "setZorroContracts",
      "outputs": [],
      "stateMutability": "nonpayable",
      "type": "function"
    },
    {
      "inputs": [
        {
          "internalType": "address",
          "name": "_zorroControllerOracle",
          "type": "address"
        }
      ],
      "name": "setZorroControllerOracle",
      "outputs": [],
      "stateMutability": "nonpayable",
      "type": "function"
    },
    {
      "inputs": [
        {
          "internalType": "uint256",
          "name": "_totalChainMultipliers",
          "type": "uint256"
        },
        {
          "internalType": "uint256",
          "name": "_totalMarketTVLUSD",
          "type": "uint256"
        },
        {
          "internalType": "uint256",
          "name": "_targetTVLCaptureBasisPoints",
          "type": "uint256"
        },
        {
          "internalType": "uint256",
          "name": "_ZorroTotalVaultTVLUSD",
          "type": "uint256"
        },
        {
          "internalType": "uint256",
          "name": "_publicPoolZORBalance",
          "type": "uint256"
        }
      ],
      "name": "setZorroPerBlock",
      "outputs": [],
      "stateMutability": "nonpayable",
      "type": "function"
    },
    {
      "inputs": [],
      "name": "startBlock",
      "outputs": [
        {
          "internalType": "uint256",
          "name": "",
          "type": "uint256"
        }
      ],
      "stateMutability": "view",
      "type": "function"
    },
    {
      "inputs": [],
      "name": "targetTVLCaptureBasisPoints",
      "outputs": [
        {
          "internalType": "uint256",
          "name": "",
          "type": "uint256"
        }
      ],
      "stateMutability": "view",
      "type": "function"
    },
    {
      "inputs": [],
      "name": "tokenUSDC",
      "outputs": [
        {
          "internalType": "address",
          "name": "",
          "type": "address"
        }
      ],
      "stateMutability": "view",
      "type": "function"
    },
    {
      "inputs": [],
      "name": "totalAllocPoint",
      "outputs": [
        {
          "internalType": "uint256",
          "name": "",
          "type": "uint256"
        }
      ],
      "stateMutability": "view",
      "type": "function"
    },
    {
      "inputs": [
        {
          "internalType": "uint256",
          "name": "",
          "type": "uint256"
        },
        {
          "internalType": "address",
          "name": "",
          "type": "address"
        },
        {
          "internalType": "uint256",
          "name": "",
          "type": "uint256"
        }
      ],
      "name": "trancheInfo",
      "outputs": [
        {
          "internalType": "uint256",
          "name": "contribution",
          "type": "uint256"
        },
        {
          "internalType": "uint256",
          "name": "timeMultiplier",
          "type": "uint256"
        },
        {
          "internalType": "uint256",
          "name": "rewardDebt",
          "type": "uint256"
        },
        {
          "internalType": "uint256",
          "name": "durationCommittedInWeeks",
          "type": "uint256"
        },
        {
          "internalType": "uint256",
          "name": "enteredVaultAt",
          "type": "uint256"
        },
        {
          "internalType": "uint256",
          "name": "exitedVaultAt",
          "type": "uint256"
        }
      ],
      "stateMutability": "view",
      "type": "function"
    },
    {
      "inputs": [
        {
          "internalType": "uint256",
          "name": "_pid",
          "type": "uint256"
        },
        {
          "internalType": "address",
          "name": "_user",
          "type": "address"
        }
      ],
      "name": "trancheLength",
      "outputs": [
        {
          "internalType": "uint256",
          "name": "",
          "type": "uint256"
        }
      ],
      "stateMutability": "view",
      "type": "function"
    },
    {
      "inputs": [
        {
          "internalType": "address",
          "name": "newOwner",
          "type": "address"
        }
      ],
      "name": "transferOwnership",
      "outputs": [],
      "stateMutability": "nonpayable",
      "type": "function"
    },
    {
      "inputs": [],
      "name": "uniRouterAddress",
      "outputs": [
        {
          "internalType": "address",
          "name": "",
          "type": "address"
        }
      ],
      "stateMutability": "view",
      "type": "function"
    },
    {
      "inputs": [
        {
          "internalType": "uint256",
          "name": "_pid",
          "type": "uint256"
        }
      ],
      "name": "updatePool",
      "outputs": [
        {
          "internalType": "uint256",
          "name": "",
          "type": "uint256"
        }
      ],
      "stateMutability": "nonpayable",
      "type": "function"
    },
    {
      "inputs": [],
      "name": "zorroControllerOracle",
      "outputs": [
        {
          "internalType": "address",
          "name": "",
          "type": "address"
        }
      ],
      "stateMutability": "view",
      "type": "function"
    },
    {
      "inputs": [],
      "name": "zorroLPPool",
      "outputs": [
        {
          "internalType": "address",
          "name": "",
          "type": "address"
        }
      ],
      "stateMutability": "view",
      "type": "function"
    },
    {
      "inputs": [],
      "name": "zorroLPPoolOtherToken",
      "outputs": [
        {
          "internalType": "address",
          "name": "",
          "type": "address"
        }
      ],
      "stateMutability": "view",
      "type": "function"
    },
    {
      "inputs": [],
      "name": "zorroStakingVault",
      "outputs": [
        {
          "internalType": "address",
          "name": "",
          "type": "address"
        }
      ],
      "stateMutability": "view",
      "type": "function"
    },
    {
      "inputs": [],
      "name": "zorroXChainEndpoint",
      "outputs": [
        {
          "internalType": "address",
          "name": "",
          "type": "address"
        }
      ],
      "stateMutability": "view",
      "type": "function"
    },
    {
      "inputs": [
        {
          "internalType": "bool",
          "name": "_isActive",
          "type": "bool"
        }
      ],
      "name": "setIsTimeMultiplierActive",
      "outputs": [],
      "stateMutability": "nonpayable",
      "type": "function"
    },
    {
      "inputs": [
        {
          "internalType": "address",
          "name": "_zorroLPPool",
          "type": "address"
        },
        {
          "internalType": "address",
          "name": "_zorroLPPoolOtherToken",
          "type": "address"
        }
      ],
      "name": "setZorroLPPoolParams",
      "outputs": [],
      "stateMutability": "nonpayable",
      "type": "function"
    },
    {
      "inputs": [
        {
          "internalType": "address",
          "name": "_uniV2Router",
          "type": "address"
        }
      ],
      "name": "setUniRouter",
      "outputs": [],
      "stateMutability": "nonpayable",
      "type": "function"
    },
    {
      "inputs": [
        {
          "internalType": "address[]",
          "name": "_path",
          "type": "address[]"
        }
      ],
      "name": "setUSDCToZORPath",
      "outputs": [],
      "stateMutability": "nonpayable",
      "type": "function"
    },
    {
      "inputs": [
        {
          "internalType": "address[]",
          "name": "_path",
          "type": "address[]"
        }
      ],
      "name": "setUSDCToZorroLPPoolOtherTokenPath",
      "outputs": [],
      "stateMutability": "nonpayable",
      "type": "function"
    },
    {
      "inputs": [
        {
          "internalType": "address",
          "name": "_priceFeedZOR",
          "type": "address"
        },
        {
          "internalType": "address",
          "name": "_priceFeedLPPoolOtherToken",
          "type": "address"
        }
      ],
      "name": "setPriceFeeds",
      "outputs": [],
      "stateMutability": "nonpayable",
      "type": "function"
    },
    {
      "inputs": [
        {
          "internalType": "address",
          "name": "_contract",
          "type": "address"
        }
      ],
      "name": "setZorroXChainEndpoint",
      "outputs": [],
      "stateMutability": "nonpayable",
      "type": "function"
    },
    {
      "inputs": [
        {
          "internalType": "uint256",
          "name": "_pid",
          "type": "uint256"
        },
        {
          "internalType": "uint256",
          "name": "_wantAmt",
          "type": "uint256"
        },
        {
          "internalType": "uint256",
          "name": "_weeksCommitted",
          "type": "uint256"
        }
      ],
      "name": "deposit",
      "outputs": [],
      "stateMutability": "nonpayable",
      "type": "function"
    },
    {
      "inputs": [
        {
          "internalType": "uint256",
          "name": "_pid",
          "type": "uint256"
        },
        {
          "internalType": "uint256",
          "name": "_valueUSDC",
          "type": "uint256"
        },
        {
          "internalType": "uint256",
          "name": "_weeksCommitted",
          "type": "uint256"
        },
        {
          "internalType": "uint256",
          "name": "_maxMarketMovement",
          "type": "uint256"
        }
      ],
      "name": "depositFullService",
      "outputs": [],
      "stateMutability": "nonpayable",
      "type": "function"
    },
    {
      "inputs": [
        {
          "internalType": "uint256",
          "name": "_pid",
          "type": "uint256"
        },
        {
          "internalType": "address",
          "name": "_account",
          "type": "address"
        },
        {
          "internalType": "bytes",
          "name": "_foreignAccount",
          "type": "bytes"
        },
        {
          "internalType": "uint256",
          "name": "_valueUSDC",
          "type": "uint256"
        },
        {
          "internalType": "uint256",
          "name": "_weeksCommitted",
          "type": "uint256"
        },
        {
          "internalType": "uint256",
          "name": "_vaultEnteredAt",
          "type": "uint256"
        },
        {
          "internalType": "uint256",
          "name": "_maxMarketMovement",
          "type": "uint256"
        }
      ],
      "name": "depositFullServiceFromXChain",
      "outputs": [],
      "stateMutability": "nonpayable",
      "type": "function"
    },
    {
      "inputs": [
        {
          "internalType": "uint256",
          "name": "_pid",
          "type": "uint256"
        },
        {
          "internalType": "uint256",
          "name": "_trancheId",
          "type": "uint256"
        },
        {
          "internalType": "bool",
          "name": "_harvestOnly",
          "type": "bool"
        }
      ],
      "name": "withdraw",
      "outputs": [
        {
          "internalType": "uint256",
          "name": "",
          "type": "uint256"
        }
      ],
      "stateMutability": "nonpayable",
      "type": "function"
    },
    {
      "inputs": [
        {
          "internalType": "uint256",
          "name": "_pid",
          "type": "uint256"
        },
        {
          "internalType": "uint256",
          "name": "_trancheId",
          "type": "uint256"
        },
        {
          "internalType": "bool",
          "name": "_harvestOnly",
          "type": "bool"
        },
        {
          "internalType": "uint256",
          "name": "_maxMarketMovement",
          "type": "uint256"
        }
      ],
      "name": "withdrawalFullService",
      "outputs": [
        {
          "internalType": "uint256",
          "name": "",
          "type": "uint256"
        }
      ],
      "stateMutability": "nonpayable",
      "type": "function"
    },
    {
      "inputs": [
        {
          "internalType": "address",
          "name": "_account",
          "type": "address"
        },
        {
          "internalType": "bytes",
          "name": "_foreignAccount",
          "type": "bytes"
        },
        {
          "internalType": "uint256",
          "name": "_pid",
          "type": "uint256"
        },
        {
          "internalType": "uint256",
          "name": "_trancheId",
          "type": "uint256"
        },
        {
          "internalType": "bool",
          "name": "_harvestOnly",
          "type": "bool"
        },
        {
          "internalType": "uint256",
          "name": "_maxMarketMovement",
          "type": "uint256"
        }
      ],
      "name": "withdrawalFullServiceFromXChain",
      "outputs": [
        {
          "internalType": "uint256",
          "name": "_amountUSDC",
          "type": "uint256"
        },
        {
          "internalType": "uint256",
          "name": "_mintedZORRewards",
          "type": "uint256"
        },
        {
          "internalType": "uint256",
          "name": "_rewardsDueXChain",
          "type": "uint256"
        },
        {
          "internalType": "uint256",
          "name": "_slashedRewardsXChain",
          "type": "uint256"
        }
      ],
      "stateMutability": "nonpayable",
      "type": "function"
    },
    {
      "inputs": [
        {
          "internalType": "uint256",
          "name": "_fromPid",
          "type": "uint256"
        },
        {
          "internalType": "uint256",
          "name": "_fromTrancheId",
          "type": "uint256"
        },
        {
          "internalType": "uint256",
          "name": "_toPid",
          "type": "uint256"
        },
        {
          "internalType": "uint256",
          "name": "_maxMarketMovement",
          "type": "uint256"
        }
      ],
      "name": "transferInvestment",
      "outputs": [],
      "stateMutability": "nonpayable",
      "type": "function"
    },
    {
      "inputs": [
        {
          "internalType": "uint256",
          "name": "_pid",
          "type": "uint256"
        }
      ],
      "name": "withdrawAll",
      "outputs": [],
      "stateMutability": "nonpayable",
      "type": "function"
    },
    {
      "inputs": [
        {
          "internalType": "uint256",
          "name": "durationInWeeks",
          "type": "uint256"
        }
      ],
      "name": "getTimeMultiplier",
      "outputs": [
        {
          "internalType": "uint256",
          "name": "",
          "type": "uint256"
        }
      ],
      "stateMutability": "view",
      "type": "function"
    },
    {
      "inputs": [
        {
          "internalType": "uint256",
          "name": "_liquidityCommitted",
          "type": "uint256"
        },
        {
          "internalType": "uint256",
          "name": "_timeMultiplier",
          "type": "uint256"
        }
      ],
      "name": "getUserContribution",
      "outputs": [
        {
          "internalType": "uint256",
          "name": "",
          "type": "uint256"
        }
      ],
      "stateMutability": "pure",
      "type": "function"
    }
  ],
  "bytecode": "0x608060405234801561001057600080fd5b506135a6806100206000396000f3fe608060405234801561001057600080fd5b50600436106103e1576000357c0100000000000000000000000000000000000000000000000000000000900480637bf604d81161021c578063b61bb80a11610137578063cff38dd4116100ca578063f2fde38b11610099578063f2fde38b146108c3578063f35e4a6e146108d6578063f63cce37146108e9578063fc39a29e146108fc57600080fd5b8063cff38dd414610881578063ebfba7c414610894578063ee4e2687146108a7578063ef126967146108ba57600080fd5b8063c6d758cb11610106578063c6d758cb1461083f578063c86d404014610852578063cb9c2f6814610865578063cd17ac141461086e57600080fd5b8063b61bb80a146107fd578063bdb2fc8b14610810578063c293614214610823578063c4e94f221461082c57600080fd5b80639a448c0c116101af578063a4d2b0831161017e578063a4d2b08314610784578063a80bee0714610797578063b22f3251146107aa578063b4b4e9eb146107bd57600080fd5b80639a448c0c1461074c5780639a8a05921461075f5780639cebd371146107685780639ec68c761461077157600080fd5b80638da5cb5b116101eb5780638da5cb5b146106e0578063941d3fd0146106f15780639568786c14610726578063958e2d311461073957600080fd5b80637bf604d8146106945780637e37c769146106a7578063823c43d0146106ba5780638c157db2146106cd57600080fd5b80634780f9f51161030c578063668ababb1161029f57806370d5ae051161026e57806370d5ae051461065d578063715018a614610666578063745af0a81461066e57806379777d811461068157600080fd5b8063668ababb14610611578063693a090b146106245780636b8eb2e5146106375780636c78d49c1461064a57600080fd5b806351eb05a6116102db57806351eb05a6146105cf57806353f73f87146105e25780635527a6f9146105f55780635c63fa87146105fe57600080fd5b80634780f9f51461059757806348cd4cb1146105aa5780634cfea68a146105b35780635051d371146105bc57600080fd5b80632e31283d116103845780633b710688116103535780633b7106881461053f5780633b9ce565146105485780633bbc1ffc1461055157806340abd8fc1461056457600080fd5b80632e31283d146104bb5780633332fcf41461050657806333cfcd3b1461051957806339e80a881461052c57600080fd5b80630aa0988e116103c05780630aa0988e14610425578063104a6132146104385780631526fe271461046357806317caf6f1146104b257600080fd5b8062aeef8a146103e6578063068f158d146103fb578063081e3eda1461040e575b600080fd5b6103f96103f4366004612d54565b61090f565b005b6103f9610409366004612d97565b6109cd565b60a8545b6040519081526020015b60405180910390f35b6103f9610433366004612d97565b610a28565b61044b610446366004612dca565b610a83565b604051600160a060020a03909116815260200161041c565b610476610471366004612dca565b610aad565b60408051600160a060020a03978816815260208101969096528501939093526060840191909152608083015290911660a082015260c00161041c565b61041260a45481565b61044b6104c9366004612e9d565b60aa6020908152600093845260408085208451808601840180519281529084019584019590952094529290528252902054600160a060020a031681565b6103f9610514366004612eed565b610b00565b610412610527366004612fa7565b610b44565b60b35461044b90600160a060020a031681565b61041260a35481565b61041260a15481565b6103f961055f366004612dca565b610bdf565b610577610572366004612fe0565b610c6e565b60408051948552602085019390935291830152606082015260800161041c565b6103f96105a536600461305e565b610cea565b610412609c5481565b610412609d5481565b6103f96105ca366004613090565b610d93565b6104126105dd366004612dca565b610de2565b6104126105f03660046130ab565b610f61565b61041260a05481565b6103f961060c3660046130ce565b610f89565b60995461044b90600160a060020a031681565b60ae5461044b90600160a060020a031681565b6103f9610645366004613103565b610fe0565b6103f961065836600461313e565b6110df565b61044b61dead81565b6103f961114c565b61041261067c36600461315b565b611185565b60b25461044b90600160a060020a031681565b60ac5461044b90600160a060020a031681565b6103f96106b536600461305e565b611200565b60ab5461044b90600160a060020a031681565b60975461044b90600160a060020a031681565b603354600160a060020a031661044b565b60ab546107169074010000000000000000000000000000000000000000900460ff1681565b604051901515815260200161041c565b610412610734366004612dca565b611382565b6103f9610747366004612dca565b611473565b61044b61075a366004612dca565b6114de565b61041260a55481565b61041260a25481565b6103f961077f366004612d97565b6114ee565b609a5461044b90600160a060020a031681565b6104126107a536600461319a565b611549565b60b15461044b90600160a060020a031681565b6107d06107cb3660046131bc565b611565565b604080519687526020870195909552938501929092526060840152608083015260a082015260c00161041c565b60985461044b90600160a060020a031681565b6103f961081e366004612eed565b6115c6565b610412609e5481565b6103f961083a366004613090565b611606565b6103f961084d3660046131f1565b611655565b609b5461044b90600160a060020a031681565b610412609f5481565b6103f961087c36600461325f565b61171d565b6103f961088f3660046132dd565b6117d0565b60ad5461044b90600160a060020a031681565b6103f96108b5366004613090565b61184e565b61041260a65481565b6103f96108d1366004613090565b61189d565b6103f96108e4366004612dca565b611955565b6103f96108f7366004612d97565b6119da565b60a75461044b90600160a060020a031681565b6002606554141561093e5760405160e560020a62461bcd02815260040161093590613359565b60405180910390fd5b6002606581905550600060a8848154811061095b5761095b613390565b60009182526020909120600690910201805490915061098490600160a060020a03163085611a92565b600581015481546109a491600160a060020a039182169133911686611bdc565b6109c1843360405180602001604052806000815250868642611c2d565b50506001606555505050565b603354600160a060020a031633146109fa5760405160e560020a62461bcd028152600401610935906133a9565b60b18054600160a060020a03938416600160a060020a03199182161790915560b28054929093169116179055565b603354600160a060020a03163314610a555760405160e560020a62461bcd028152600401610935906133a9565b60978054600160a060020a03938416600160a060020a03199182161790915560988054929093169116179055565b60af8181548110610a9357600080fd5b600091825260209091200154600160a060020a0316905081565b60a88181548110610abd57600080fd5b6000918252602090912060069091020180546001820154600283015460038401546004850154600590950154600160a060020a0394851696509294919390921686565b603354600160a060020a03163314610b2d5760405160e560020a62461bcd028152600401610935906133a9565b8051610b409060af906020840190612cda565b5050565b600060026065541415610b6c5760405160e560020a62461bcd02815260040161093590613359565b60026065819055506000610b928533604051806020016040528060008152508787611f41565b9050610bd133826000015160a88881548110610bb057610bb0613390565b6000918252602090912060069091020154600160a060020a03169190612411565b516001606555949350505050565b603354600160a060020a03163314610c0c5760405160e560020a62461bcd028152600401610935906133a9565b60a754600160a060020a03163014610c695760405160e560020a62461bcd02815260206004820152600f60248201527f6f6e6c7920686f6d6520636861696e00000000000000000000000000000000006044820152606401610935565b609f55565b60b354600090819081908190600160a060020a031633600160a060020a031614610cdd5760405160e560020a62461bcd02815260206004820152600b60248201527f78636861696e206f6e6c790000000000000000000000000000000000000000006044820152606401610935565b9650965096509692505050565b60026065541415610d105760405160e560020a62461bcd02815260040161093590613359565b6002606581905550600060a88581548110610d2d57610d2d613390565b6000918252602090912060056006909202010154609854600160a060020a039182169250610d5d91163086611a92565b609854610d7590600160a060020a0316338387611bdc565b6109c18533604051806020016040528060008152508787428861245f565b603354600160a060020a03163314610dc05760405160e560020a62461bcd028152600401610935906133a9565b60ab8054600160a060020a031916600160a060020a0392909216919091179055565b60008060a88381548110610df857610df8613390565b9060005260206000209060060201905080600201544311610e1c5750600092915050565b6000610e3582600201544361257090919063ffffffff16565b905060008111610e49575060009392505050565b6000610e7a60a454610e748560010154610e6e609e548761257c90919063ffffffff16565b9061257c565b90612588565b60a754909150600160a060020a0316301415610ed357609954609754610eae91600160a060020a0391821691163084611bdc565b6003830154610ebd9082612594565b6003840155505043600290910155506000919050565b6097546040517f40c10f1900000000000000000000000000000000000000000000000000000000815230600482015260248101839052600160a060020a03909116906340c10f1990604401600060405180830381600087803b158015610f3857600080fd5b505af1158015610f4c573d6000803e3d6000fd5b5092979650505050505050565b505050919050565b600091825260a960209081526040808420600160a060020a0393909316845291905290205490565b603354600160a060020a03163314610fb65760405160e560020a62461bcd028152600401610935906133a9565b60a59290925560a65560a78054600160a060020a031916600160a060020a03909216919091179055565b60ab54600160a060020a031633600160a060020a0316146110465760405160e560020a62461bcd02815260206004820152601160248201527f6f6e6c79205a6f72726f206f7261636c650000000000000000000000000000006044820152606401610935565b600061106883610e7461105b87612710612588565b60a354610e6e908a61257c565b905060a15481111561107d575060a15461108c565b60a05481101561108c575060a0545b600061109e612710610e74858561257c565b905060006110bb88610e748460a25461257c90919063ffffffff16565b90506110d2609d548261258890919063ffffffff16565b609e555050505050505050565b603354600160a060020a0316331461110c5760405160e560020a62461bcd028152600401610935906133a9565b60ab8054911515740100000000000000000000000000000000000000000274ff000000000000000000000000000000000000000019909216919091179055565b603354600160a060020a031633146111795760405160e560020a62461bcd028152600401610935906133a9565b61118360006125a0565b565b6000600260655414156111ad5760405160e560020a62461bcd02815260040161093590613359565b600260658190555060006111d43360405180602001604052806000815250888888886125f2565b50506098549192506111f291600160a060020a031690503383612411565b600160655595945050505050565b600260655414156112265760405160e560020a62461bcd02815260040161093590613359565b6002606555600084815260a960209081526040808320338452909152812080548590811061125657611256613390565b600091825260208083206003600690930201919091015487835260a9825260408084203385529092529082208054919350908690811061129857611298613390565b906000526020600020906006020160040154905060006112cc336040518060200160405280600081525089896000896125f2565b50505090506060609860009054906101000a9004600160a060020a0316816000815181106112fc576112fc613390565b6020026020010190600160a060020a03169081600160a060020a03168152505061133a8633604051806020016040528060008152508588888b61245f565b604051338152869088908a907f67e7aba7263d8fbeb0cd9a2f4008f060a6a03f46c1d7f9d0550f0b93e96e96f89060200160405180910390a450506001606555505050505050565b60ab5460009074010000000000000000000000000000000000000000900460ff1615611462576040517f677342ce0000000000000000000000000000000000000000000000000000000081526004810183905261145c9064e8d4a5100090610e6e906114549073__CustomMath____________________________9063677342ce90602401602060405180830381865af4158015611424573d6000803e3d6000fd5b505050506040513d601f19601f8201168201806040525081019061144891906133de565b610e6e6002600a612588565b600190612594565b92915050565b5064e8d4a51000919050565b919050565b600260655414156114995760405160e560020a62461bcd02815260040161093590613359565b600260655560006114aa8233610f61565b905060005b818110156114d4576114c383826000610b44565b506114cd81613410565b90506114af565b5050600160655550565b60b08181548110610a9357600080fd5b603354600160a060020a0316331461151b5760405160e560020a62461bcd028152600401610935906133a9565b60ac8054600160a060020a03938416600160a060020a03199182161790915560ad8054929093169116179055565b600061155e64e8d4a51000610e74858561257c565b9392505050565b60a9602052826000526040600020602052816000526040600020818154811061158d57600080fd5b60009182526020909120600690910201805460018201546002830154600384015460048501546005909501549397509195509350919086565b603354600160a060020a031633146115f35760405160e560020a62461bcd028152600401610935906133a9565b8051610b409060b0906020840190612cda565b603354600160a060020a031633146116335760405160e560020a62461bcd028152600401610935906133a9565b60b38054600160a060020a031916600160a060020a0392909216919091179055565b603354600160a060020a031633146116825760405160e560020a62461bcd028152600401610935906133a9565b609754600160a060020a03838116911614156117095760405160e560020a62461bcd02815260206004820152603560248201527f217361666520746f20757365205a6f72726f20746f6b656e20696e2066756e6360448201527f20696e43617365546f6b656e73476574537475636b00000000000000000000006064820152608401610935565b610b40600160a060020a0383163383612411565b603354600160a060020a0316331461174a5760405160e560020a62461bcd028152600401610935906133a9565b8585600181811061175d5761175d613390565b6020029190910135609d55508585600281811061177c5761177c613390565b6020029190910135609e5550838360008161179957611799613390565b602002919091013560a05550838360018181106117b8576117b8613390565b602002919091013560a1555060a35560a25550505050565b60b354600160a060020a031633600160a060020a0316146118365760405160e560020a62461bcd02815260206004820152600b60248201527f78636861696e206f6e6c790000000000000000000000000000000000000000006044820152606401610935565b6118458787878787878761245f565b50505050505050565b603354600160a060020a0316331461187b5760405160e560020a62461bcd028152600401610935906133a9565b60ae8054600160a060020a031916600160a060020a0392909216919091179055565b603354600160a060020a031633146118ca5760405160e560020a62461bcd028152600401610935906133a9565b600160a060020a0381166119495760405160e560020a62461bcd02815260206004820152602660248201527f4f776e61626c653a206e6577206f776e657220697320746865207a65726f206160448201527f64647265737300000000000000000000000000000000000000000000000000006064820152608401610935565b611952816125a0565b50565b603354600160a060020a031633146119825760405160e560020a62461bcd028152600401610935906133a9565b609c54156119d55760405160e560020a62461bcd02815260206004820152601560248201527f626c6f636b506172616d7320696d6d757461626c6500000000000000000000006044820152606401610935565b609c55565b603354600160a060020a03163314611a075760405160e560020a62461bcd028152600401610935906133a9565b60a754600160a060020a03163014611a645760405160e560020a62461bcd02815260206004820152600f60248201527f6f6e6c7920686f6d6520636861696e00000000000000000000000000000000006044820152606401610935565b60998054600160a060020a03938416600160a060020a031991821617909155609a8054929093169116179055565b6040517fdd62ed3e000000000000000000000000000000000000000000000000000000008152306004820152600160a060020a038381166024830152600091839186169063dd62ed3e90604401602060405180830381865afa158015611afc573d6000803e3d6000fd5b505050506040513d601f19601f82011682018060405250810190611b2091906133de565b611b2a919061342b565b604051600160a060020a038516602482015260448101829052909150611bd69085907f095ea7b300000000000000000000000000000000000000000000000000000000906064015b60408051601f198184030181529190526020810180517bffffffffffffffffffffffffffffffffffffffffffffffffffffffff167fffffffff000000000000000000000000000000000000000000000000000000009093169290921790915261270c565b50505050565b604051600160a060020a0380851660248301528316604482015260648101829052611bd69085907f23b872dd0000000000000000000000000000000000000000000000000000000090608401611b72565b60008060a88881548110611c4357611c43613390565b9060005260206000209060060201905060008511611ca65760405160e560020a62461bcd02815260206004820152601560248201527f5f77616e74416d74206d757374206265203e20302100000000000000000000006044820152606401610935565b611caf88610de2565b915086600160a060020a038116611d56576000875111611d3a5760405160e560020a62461bcd02815260206004820152602c60248201527f4e65697468657220666f726569676e2061636374206e6f72206c6f63616c206160448201527f6363742070726f766964656400000000000000000000000000000000000000006064820152608401610935565b611d4387613443565b6c01000000000000000000000000900490505b600060a88a81548110611d6b57611d6b613390565b60009182526020909120600690910201600501546040517fba0bb4ab000000000000000000000000000000000000000000000000000000008152600160a060020a038481166004830152602482018a90529091169063ba0bb4ab906044016020604051808303816000875af1158015611de8573d6000803e3d6000fd5b505050506040513d601f19601f82011682018060405250810190611e0c91906133de565b609a54600585015491925064e8d4a5100091600160a060020a03908116911614611e3c57611e3987611382565b90505b6000611e488383611549565b6004860154909150611e5a9082612594565b60048601819055600090611e7790610e748464e8d4a5100061257c565b905060006040518060c00160405280848152602001858152602001611eb264e8d4a51000610e74868c6003015461257c90919063ffffffff16565b81526020018b81526020018a815260200160008152509050611ed68e878e846127f4565b8d8c604051611ee591906134a9565b604051809103902087600160a060020a03167fc6b1f1535b3bb3bdffa2f97a671ab7bd6f2512deec58103fa47eb40ed95274278e604051611f2891815260200190565b60405180910390a4505050505050509695505050505050565b611f6c6040518060800160405280600081526020016000815260200160008152602001600081525090565b600160a060020a038516158015611f84575060008451115b80611fa15750600160a060020a03851615801590611fa157508351155b611ff05760405160e560020a62461bcd02815260206004820152601d60248201527f4f6e6c79206f6e65206163636f756e74207479706520616c6c6f7765640000006044820152606401610935565b6000611ffe878587896128e3565b9050600060a8888154811061201557612015613390565b90600052602060002090600602019050600082600001511161207c5760405160e560020a62461bcd02815260206004820152601960248201527f7472616e6368652e636f6e747269627574696f6e2069732030000000000000006044820152606401610935565b60008160040154116120d35760405160e560020a62461bcd02815260206004820152601e60248201527f746f74616c5472616e636865436f6e747269627574696f6e73206973203000006044820152606401610935565b60a0820151156121285760405160e560020a62461bcd02815260206004820152601460248201527f416c726561647920657869746564207661756c740000000000000000000000006044820152606401610935565b61213188610de2565b60208401526004810154825160009161215391610e749064e8d4a5100061257c565b90506000612185846040015161217f64e8d4a51000610e7487600301548761257c90919063ffffffff16565b90612570565b905080156122025760008061219a8684612a85565b9150915060a65460a55414156121db5781156121ba576121ba8b83612b11565b80156121d657609a546121d690600160a060020a031682612b11565b6121ff565b6121f061dead6121eb8484612594565b612b11565b60408701829052606087018190525b50505b856124045760a88a8154811061221a5761221a613390565b600091825260209091206006909102016005015484516040517fe0ccabfa000000000000000000000000000000000000000000000000000000008152600160a060020a038c81166004830152602482019290925291169063e0ccabfa906044016020604051808303816000875af1158015612299573d6000803e3d6000fd5b505050506040513d601f19601f820116820180604052508101906122bd91906133de565b50835160048401546122ce91612570565b60048481019190915583546040517f70a082310000000000000000000000000000000000000000000000000000000081523092810192909252600160a060020a0316906370a0823190602401602060405180830381865afa158015612337573d6000803e3d6000fd5b505050506040513d601f19601f8201168201806040525081019061235b91906133de565b855260008a815260a960209081526040808320600160a060020a038d168452909152902080544291908990811061239457612394613390565b90600052602060002090600602016005018190555089886040516123b891906134a9565b6040805191829003822088518b8452602084015291600160a060020a038d16917fa7749cd42821d3b82a6814af6d80712b2e43f98ec1b25aee31c8351855de65d9910160405180910390a45b5050505095945050505050565b604051600160a060020a03831660248201526044810182905261245a9084907fa9059cbb0000000000000000000000000000000000000000000000000000000090606401611b72565b505050565b600060a8888154811061247457612474613390565b60009182526020822060069190910201600501546040517fe502a88d0000000000000000000000000000000000000000000000000000000081526004810188905260248101859052600160a060020a039091169250829190829063e502a88d906044016020604051808303816000875af11580156124f6573d6000803e3d6000fd5b505050506040513d601f19601f8201168201806040525081019061251a91906133de565b9050612555838260a88d8154811061253457612534613390565b6000918252602090912060069091020154600160a060020a03169190611a92565b6125638a8a8a848a8a611c2d565b5050505050505050505050565b600061155e82846134c5565b600061155e82846134dc565b600061155e82846134fb565b600061155e828461342b565b60338054600160a060020a03838116600160a060020a0319831681179093556040519116919082907f8be0079c531659141344cd1fd0a4f28419497f9722a3daafe3b4186f6b6457e090600090a35050565b600080600080600060a8898154811061260d5761260d613390565b60009182526020822060056006909202010154600160a060020a03169150819061263a8b8e8e8d8d611f41565b905061265883826000015160a88e8154811061253457612534613390565b80516040517f648794a4000000000000000000000000000000000000000000000000000000008152600481019190915260248101899052600160a060020a0383169063648794a4906044016020604051808303816000875af11580156126c2573d6000803e3d6000fd5b505050506040513d601f19601f820116820180604052508101906126e691906133de565b60208201516040830151606090930151919f909e50919c509a5098505050505050505050565b6000612761826040518060400160405280602081526020017f5361666545524332303a206c6f772d6c6576656c2063616c6c206661696c656481525085600160a060020a0316612bc09092919063ffffffff16565b80519091501561245a578080602001905181019061277f9190613520565b61245a5760405160e560020a62461bcd02815260206004820152602a60248201527f5361666545524332303a204552433230206f7065726174696f6e20646964206e60448201527f6f742073756363656564000000000000000000000000000000000000000000006064820152608401610935565b600084815260a960209081526040808320600160a060020a0387168452825280832080546001818101835591855293839020855160069095020193845591840151918301919091558201516002820155606082015160038201556080820151600482015560a0820151600590910155815115611bd6578260aa60008681526020019081526020016000208360405161288c91906134a9565b908152602001604051809103902060006128ab600161217f8989610f61565b815260200190815260200160002060006101000a815481600160a060020a030219169083600160a060020a0316021790555050505050565b61291c6040518060c001604052806000815260200160008152602001600081526020016000815260200160008152602001600081525090565b600160a060020a0382166129ba57600085815260a960209081526040808320600160a060020a0386168452909152902080548590811061295e5761295e613390565b90600052602060002090600602016040518060c001604052908160008201548152602001600182015481526020016002820154815260200160038201548152602001600482015481526020016005820154815250509050612a7d565b600085815260aa602052604080822090516129d69086906134a9565b908152604080516020928190038301902060008881529083528181205489825260a98452828220600160a060020a0390911680835293522080549192509086908110612a2457612a24613390565b90600052602060002090600602016040518060c001604052908160008201548152602001600182015481526020016002820154815260200160038201548152602001600482015481526020016005820154815250509150505b949350505050565b60008060008311612a9b57506000905080612b0a565b6000612ac94261217f612abe62093a80896060015161257c90919063ffffffff16565b608089015190612594565b90508015612b04576060850151612af190612ae79062093a8061257c565b610e74868461257c565b9150612afd8483612570565b9250612b08565b8392505b505b9250929050565b6097546040517f70a082310000000000000000000000000000000000000000000000000000000081523060048201528291600091600160a060020a03909116906370a0823190602401602060405180830381865afa158015612b77573d6000803e3d6000fd5b505050506040513d601f19601f82011682018060405250810190612b9b91906133de565b905080831115612ba9578091505b609754611bd690600160a060020a03168584612411565b6060612a7d848460008585600160a060020a0385163b612c255760405160e560020a62461bcd02815260206004820152601d60248201527f416464726573733a2063616c6c20746f206e6f6e2d636f6e74726163740000006044820152606401610935565b60008086600160a060020a03168587604051612c4191906134a9565b60006040518083038185875af1925050503d8060008114612c7e576040519150601f19603f3d011682016040523d82523d6000602084013e612c83565b606091505b5091509150612c93828286612c9e565b979650505050505050565b60608315612cad57508161155e565b825115612cbd5782518084602001fd5b8160405160e560020a62461bcd028152600401610935919061353d565b828054828255906000526020600020908101928215612d2f579160200282015b82811115612d2f5782518254600160a060020a031916600160a060020a03909116178255602090920191600190910190612cfa565b50612d3b929150612d3f565b5090565b5b80821115612d3b5760008155600101612d40565b600080600060608486031215612d6957600080fd5b505081359360208301359350604090920135919050565b8035600160a060020a038116811461146e57600080fd5b60008060408385031215612daa57600080fd5b612db383612d80565b9150612dc160208401612d80565b90509250929050565b600060208284031215612ddc57600080fd5b5035919050565b60e060020a634e487b7102600052604160045260246000fd5b604051601f8201601f1916810167ffffffffffffffff81118282101715612e2557612e25612de3565b604052919050565b600082601f830112612e3e57600080fd5b813567ffffffffffffffff811115612e5857612e58612de3565b612e6b601f8201601f1916602001612dfc565b818152846020838601011115612e8057600080fd5b816020850160208301376000918101602001919091529392505050565b600080600060608486031215612eb257600080fd5b83359250602084013567ffffffffffffffff811115612ed057600080fd5b612edc86828701612e2d565b925050604084013590509250925092565b60006020808385031215612f0057600080fd5b823567ffffffffffffffff80821115612f1857600080fd5b818501915085601f830112612f2c57600080fd5b813581811115612f3e57612f3e612de3565b8381029150612f4e848301612dfc565b8181529183018401918481019088841115612f6857600080fd5b938501935b83851015612f8d57612f7e85612d80565b82529385019390850190612f6d565b98975050505050505050565b801515811461195257600080fd5b600080600060608486031215612fbc57600080fd5b83359250602084013591506040840135612fd581612f99565b809150509250925092565b60008060008060008060c08789031215612ff957600080fd5b61300287612d80565b9550602087013567ffffffffffffffff81111561301e57600080fd5b61302a89828a01612e2d565b9550506040870135935060608701359250608087013561304981612f99565b8092505060a087013590509295509295509295565b6000806000806080858703121561307457600080fd5b5050823594602084013594506040840135936060013592509050565b6000602082840312156130a257600080fd5b61155e82612d80565b600080604083850312156130be57600080fd5b82359150612dc160208401612d80565b6000806000606084860312156130e357600080fd5b83359250602084013591506130fa60408501612d80565b90509250925092565b600080600080600060a0868803121561311b57600080fd5b505083359560208501359550604085013594606081013594506080013592509050565b60006020828403121561315057600080fd5b813561155e81612f99565b6000806000806080858703121561317157600080fd5b8435935060208501359250604085013561318a81612f99565b9396929550929360600135925050565b600080604083850312156131ad57600080fd5b50508035926020909101359150565b6000806000606084860312156131d157600080fd5b833592506131e160208501612d80565b9150604084013590509250925092565b6000806040838503121561320457600080fd5b61320d83612d80565b946020939093013593505050565b60008083601f84011261322d57600080fd5b50813567ffffffffffffffff81111561324557600080fd5b6020830191508360208083028501011115612b0a57600080fd5b6000806000806000806080878903121561327857600080fd5b863567ffffffffffffffff8082111561329057600080fd5b61329c8a838b0161321b565b909850965060208901359150808211156132b557600080fd5b506132c289828a0161321b565b979a9699509760408101359660609091013595509350505050565b600080600080600080600060e0888a0312156132f857600080fd5b8735965061330860208901612d80565b9550604088013567ffffffffffffffff81111561332457600080fd5b6133308a828b01612e2d565b979a96995096976060810135975060808101359660a0820135965060c090910135945092505050565b6020808252601f908201527f5265656e7472616e637947756172643a207265656e7472616e742063616c6c00604082015260600190565b60e060020a634e487b7102600052603260045260246000fd5b6020808252818101527f4f776e61626c653a2063616c6c6572206973206e6f7420746865206f776e6572604082015260600190565b6000602082840312156133f057600080fd5b5051919050565b60e060020a634e487b7102600052601160045260246000fd5b6000600019821415613424576134246133f7565b5060010190565b6000821982111561343e5761343e6133f7565b500190565b805160208201516bffffffffffffffffffffffff198082169291906014831015610f595760149290920360080260020a8202161692915050565b60005b83811015613498578181015183820152602001613480565b83811115611bd65750506000910152565b600082516134bb81846020870161347d565b9190910192915050565b6000828210156134d7576134d76133f7565b500390565b60008160001904831182151516156134f6576134f66133f7565b500290565b60008261351b5760e060020a634e487b7102600052601260045260246000fd5b500490565b60006020828403121561353257600080fd5b815161155e81612f99565b602081526000825180602084015261355c81604085016020870161347d565b601f01601f1916919091016040019291505056fea264697066735822122085d5805adbe4b3c6b4fd5daf648212db21940e97bff6e9a5106e5fe20be0d2e964736f6c634300080a0033",
  "immutableReferences": {},
  "source": "// SPDX-License-Identifier: MIT\n\npragma solidity ^0.8.0;\n\nimport \"./_ZorroControllerBase.sol\";\n\nimport \"../interfaces/IVault.sol\";\n\nimport \"@openzeppelin/contracts-upgradeable/token/ERC20/utils/SafeERC20Upgradeable.sol\";\n\nimport \"@openzeppelin/contracts-upgradeable/utils/math/SafeMathUpgradeable.sol\";\n\nimport \"../libraries/Math.sol\";\n\nimport \"../tokens/ZorroToken.sol\";\n\nimport \"../libraries/SafeSwap.sol\";\n\nimport \"../libraries/PriceFeed.sol\";\n\nimport \"../interfaces/IZorroController.sol\";\n\ncontract ZorroControllerInvestment is\n    IZorroControllerInvestment,\n    ZorroControllerBase\n{\n    /* Libraries */\n    using SafeERC20 for IERC20;\n    using SafeMath for uint256;\n    using CustomMath for uint256;\n    using SafeSwapUni for IAMMRouter02;\n    using PriceFeed for AggregatorV3Interface;\n\n    /* Structs */\n    struct WithdrawalResult {\n        uint256 wantAmt; // Amount of Want token withdrawn\n        uint256 mintedZORRewards; // ZOR rewards minted (to be burned XChain)\n        uint256 rewardsDueXChain; // ZOR rewards due to the origin (cross chain) user\n        uint256 slashedRewardsXChain; // Amount of ZOR rewards to be slashed (and thus rewarded to ZOR stakers)\n    }\n\n    /* State */\n\n    // Rewards\n    bool public isTimeMultiplierActive; // If true, allows use of time multiplier\n    // Zorro LP pool\n    address public zorroLPPool; // Main pool for Zorro liquidity\n    address public zorroLPPoolOtherToken; // For the dominant LP pool, the counterparty token to the ZOR token\n    // Swaps\n    address public uniRouterAddress; // Router contract address for adding/removing liquidity, etc.\n    address[] public USDCToZorroPath; // The path to swap USDC to ZOR\n    address[] public USDCToZorroLPPoolOtherTokenPath; // The router path from USDC to the primary Zorro LP pool, Token 0\n    // Oracles\n    AggregatorV3Interface public priceFeedZOR;\n    AggregatorV3Interface public priceFeedLPPoolOtherToken;\n    // Cross chain\n    address public zorroXChainEndpoint; // Cross chain controller contract\n\n    /* Modifiers */\n\n    /// @notice Only allow sender to be the cross chain controller contract\n    modifier onlyZorroXChain() {\n        require(_msgSender() == zorroXChainEndpoint, \"xchain only\");\n        _;\n    }\n\n    /* Setters */\n\n    /// @notice Setter: Set time multiplier\n    /// @param _isActive Whether it shall be active. If false, timemultiplier will be 1.\n    function setIsTimeMultiplierActive(bool _isActive) external onlyOwner {\n        isTimeMultiplierActive = _isActive;\n    }\n\n    /// @notice Setter: Zorro LP Pool params\n    /// @param _zorroLPPool Address of the Zorro-X LP pool\n    /// @param _zorroLPPoolOtherToken Address of the counterpart token to the ZOR token in the LP Pool\n    function setZorroLPPoolParams(\n        address _zorroLPPool,\n        address _zorroLPPoolOtherToken\n    ) external onlyOwner {\n        zorroLPPool = _zorroLPPool;\n        zorroLPPoolOtherToken = _zorroLPPoolOtherToken;\n    }\n\n    /// @notice Setter: Uniswap-compatible router address\n    /// @param _uniV2Router Address of router\n    function setUniRouter(address _uniV2Router) external onlyOwner {\n        uniRouterAddress = _uniV2Router;\n    }\n\n    /// @notice Setter: Set path for token swap from USDC to ZOR\n    /// @param _path Swap path\n    function setUSDCToZORPath(address[] memory _path) external onlyOwner {\n        USDCToZorroPath = _path;\n    }\n\n    /// @notice Setter: Set path for token swap from USDC to counterparty token in ZOR LP pool\n    /// @param _path Swap path\n    function setUSDCToZorroLPPoolOtherTokenPath(address[] memory _path)\n        external\n        onlyOwner\n    {\n        USDCToZorroLPPoolOtherTokenPath = _path;\n    }\n\n    /// @notice Setter: Chainlink price feeds\n    /// @param _priceFeedZOR The address of the price feed for ZOR\n    /// @param _priceFeedLPPoolOtherToken The address of the price feed for the counterparty token in the ZOR LP Pool\n    function setPriceFeeds(\n        address _priceFeedZOR,\n        address _priceFeedLPPoolOtherToken\n    ) external onlyOwner {\n        priceFeedZOR = AggregatorV3Interface(_priceFeedZOR);\n        priceFeedLPPoolOtherToken = AggregatorV3Interface(\n            _priceFeedLPPoolOtherToken\n        );\n    }\n\n    /// @notice Setter: Cross chain endpoint\n    /// @param _contract Contract address of endpoint\n    function setZorroXChainEndpoint(address _contract) external onlyOwner {\n        zorroXChainEndpoint = _contract;\n    }\n\n    /* Events */\n\n    event Deposit(\n        address indexed account,\n        bytes indexed foreignAccount,\n        uint256 indexed pid,\n        uint256 wantAmount\n    );\n\n    event Withdraw(\n        address indexed account,\n        bytes indexed foreignAccount,\n        uint256 indexed pid,\n        uint256 trancheId,\n        uint256 wantAmount\n    );\n    event TransferInvestment(\n        address account,\n        uint256 indexed fromPid,\n        uint256 indexed fromTrancheId,\n        uint256 indexed toPid\n    );\n\n    /* Cash flow */\n\n    /// @notice Deposit Want tokens to associated Vault\n    /// @param _pid index of pool\n    /// @param _wantAmt how much Want token to deposit\n    /// @param _weeksCommitted how many weeks the user is committing to on this vault\n    function deposit(\n        uint256 _pid,\n        uint256 _wantAmt,\n        uint256 _weeksCommitted\n    ) public nonReentrant {\n        // Get pool info\n        PoolInfo storage pool = poolInfo[_pid];\n\n        // Safely allow this contract to transfer the Want token from the sender to the underlying Vault contract\n        pool.want.safeIncreaseAllowance(address(this), _wantAmt);\n\n        // Transfer the Want token from the user to the Vault contract\n        IERC20(pool.want).safeTransferFrom(msg.sender, pool.vault, _wantAmt);\n\n        // Call core deposit function\n        _deposit(\n            _pid,\n            msg.sender,\n            \"\",\n            _wantAmt,\n            _weeksCommitted,\n            block.timestamp\n        );\n    }\n\n    /// @notice Internal function for depositing Want tokens into Vault\n    /// @dev Because the vault entry date can be backdated, this is a dangerous method and should only be called indirectly through other functions\n    /// @param _pid index of pool\n    /// @param _account address of on-chain user (required for onchain, optional for cross-chain)\n    /// @param _foreignAccount address of origin chain user (for cross chain transactions it's required)\n    /// @param _wantAmt how much Want token to deposit (must already be sent to vault contract)\n    /// @param _weeksCommitted how many weeks the user is committing to on this vault\n    /// @param _enteredVaultAt Date to backdate vault entry to\n    /// @return _mintedZORRewards Amount of ZOR rewards minted\n    function _deposit(\n        uint256 _pid,\n        address _account,\n        bytes memory _foreignAccount,\n        uint256 _wantAmt,\n        uint256 _weeksCommitted,\n        uint256 _enteredVaultAt\n    ) internal returns (uint256 _mintedZORRewards) {\n        // Get pool info\n        PoolInfo storage pool = poolInfo[_pid];\n\n        // Preflight checks\n        require(_wantAmt > 0, \"_wantAmt must be > 0!\");\n\n        // Update the pool before anything to ensure rewards have been updated and transferred\n        _mintedZORRewards = updatePool(_pid);\n\n        // Associate foreign and local account address, as applicable\n\n        // Get local chain account, as applicable\n        address _localAccount = _account;\n        if (_account == address(0)) {\n            // Foreign account MUST be provided\n            require(\n                _foreignAccount.length > 0,\n                \"Neither foreign acct nor local acct provided\"\n            );\n            // If no local account provided, truncate foreign chain address to 20-bytes\n            _localAccount = address(bytes20(_foreignAccount));\n        }\n\n        // Perform the actual deposit function on the underlying Vault contract and get the number of shares to add\n        uint256 sharesAdded = IVault(poolInfo[_pid].vault).depositWantToken(\n            _localAccount,\n            _wantAmt\n        );\n        // Determine time multiplier value. Set to 1e12 if the vault is the Zorro staking vault (because we don't do time multipliers on this vault)\n        uint256 timeMultiplier = 1e12;\n        if (pool.vault != zorroStakingVault) {\n            // Determine the time multiplier value based on the duration committed to in weeks\n            timeMultiplier = getTimeMultiplier(_weeksCommitted);\n        }\n        // Determine the individual user contribution based on the quantity of tokens to stake and the time multiplier\n        uint256 contributionAdded = getUserContribution(\n            sharesAdded,\n            timeMultiplier\n        );\n        // Increment the pool's total contributions by the contribution added\n        pool.totalTrancheContributions = pool.totalTrancheContributions.add(\n            contributionAdded\n        );\n        // Update the reward debt that the user owes by multiplying user share % by the pool's accumulated Zorro rewards\n        uint256 newTrancheShare = contributionAdded.mul(1e12).div(\n            pool.totalTrancheContributions\n        );\n\n        // Create tranche info\n        TrancheInfo memory _trancheInfo = TrancheInfo({\n            contribution: contributionAdded,\n            timeMultiplier: timeMultiplier,\n            rewardDebt: pool.accZORRORewards.mul(newTrancheShare).div(1e12),\n            durationCommittedInWeeks: _weeksCommitted,\n            enteredVaultAt: _enteredVaultAt,\n            exitedVaultAt: 0\n        });\n        _updateTrancheInfoForDeposit(\n            _pid,\n            _localAccount,\n            _foreignAccount,\n            _trancheInfo\n        );\n\n        // Emit deposit event\n        emit Deposit(_localAccount, _foreignAccount, _pid, _wantAmt);\n    }\n\n    /// @notice Internal function for updating tranche ledger upon deposit\n    /// @param _pid Index of pool\n    /// @param _localAccount On-chain address\n    /// @param _foreignAccount Cross-chain address, if applicable\n    /// @param _trancheInfo TrancheInfo object\n    function _updateTrancheInfoForDeposit(\n        uint256 _pid,\n        address _localAccount,\n        bytes memory _foreignAccount,\n        TrancheInfo memory _trancheInfo\n    ) internal {\n        // Push a new tranche for this on-chain user\n        trancheInfo[_pid][_localAccount].push(_trancheInfo);\n\n        // If foreign account provided, write the tranche info to the foreign account ledger as well\n        if (_foreignAccount.length > 0) {\n            foreignTrancheInfo[_pid][_foreignAccount][\n                trancheLength(_pid, _localAccount).sub(1)\n            ] = _localAccount;\n        }\n    }\n\n    /// @notice Deposits funds in a full service manner (performs autoswaps and obtains Want tokens)\n    /// @param _pid index of pool to deposit into\n    /// @param _valueUSDC value in USDC (in ether units) to deposit\n    /// @param _weeksCommitted how many weeks to commit to the Pool (can be 0 or any uint)\n    /// @param _maxMarketMovement factor to account for max market movement/slippage. The definition varies by Vault, so consult the associated Vault contract for info\n    function depositFullService(\n        uint256 _pid,\n        uint256 _valueUSDC,\n        uint256 _weeksCommitted,\n        uint256 _maxMarketMovement\n    ) public nonReentrant {\n        // Get Pool, Vault contract\n        address vaultAddr = poolInfo[_pid].vault;\n\n        // Approve spending of USDC (from user to this contract)\n        IERC20(defaultStablecoin).safeIncreaseAllowance(\n            address(this),\n            _valueUSDC\n        );\n        // Safe transfer to Vault contract\n        IERC20(defaultStablecoin).safeTransferFrom(\n            msg.sender,\n            vaultAddr,\n            _valueUSDC\n        );\n\n        // Run core full deposit\n        _depositFullService(\n            _pid,\n            msg.sender,\n            \"\",\n            _valueUSDC,\n            _weeksCommitted,\n            block.timestamp,\n            _maxMarketMovement\n        );\n    }\n\n    /// @notice Full service deposit function to be called by ZorroControllerXChain only.\n    /// @param _pid index of pool to deposit into\n    /// @param _account address of user on-chain\n    /// @param _foreignAccount the cross chain wallet that initiated this call, if applicable.\n    /// @param _valueUSDC value in USDC (in ether units) to deposit\n    /// @param _weeksCommitted how many weeks to commit to the Pool (can be 0 or any uint)\n    /// @param _vaultEnteredAt date that the vault was entered at\n    /// @param _maxMarketMovement factor to account for max market movement/slippage. The definition varies by Vault, so consult the associated Vault contract for info\n    function depositFullServiceFromXChain(\n        uint256 _pid,\n        address _account,\n        bytes memory _foreignAccount,\n        uint256 _valueUSDC,\n        uint256 _weeksCommitted,\n        uint256 _vaultEnteredAt,\n        uint256 _maxMarketMovement\n    ) public onlyZorroXChain {\n        // Make deposit full service call\n        _depositFullService(\n            _pid,\n            _account,\n            _foreignAccount,\n            _valueUSDC,\n            _weeksCommitted,\n            _vaultEnteredAt,\n            _maxMarketMovement\n        );\n    }\n\n    /// @notice Private function for depositing\n    /// @dev Dangerous method, as vaultEnteredAt can be backdated\n    /// @param _pid index of pool to deposit into\n    /// @param _account address of user on-chain\n    /// @param _foreignAccount the cross chain wallet that initiated this call, if applicable.\n    /// @param _valueUSDC value in USDC (in ether units) to deposit\n    /// @param _weeksCommitted how many weeks to commit to the Pool (can be 0 or any uint)\n    /// @param _vaultEnteredAt date that the vault was entered at\n    /// @param _maxMarketMovement factor to account for max market movement/slippage. The definition varies by Vault, so consult the associated Vault contract for info\n    function _depositFullService(\n        uint256 _pid,\n        address _account,\n        bytes memory _foreignAccount,\n        uint256 _valueUSDC,\n        uint256 _weeksCommitted,\n        uint256 _vaultEnteredAt,\n        uint256 _maxMarketMovement\n    ) internal {\n        // Get Pool, Vault contract\n        address vaultAddr = poolInfo[_pid].vault;\n        IVault vault = IVault(vaultAddr);\n\n        // Exchange USDC for Want token in the Vault contract\n        uint256 _wantAmt = vault.exchangeUSDForWantToken(\n            _valueUSDC,\n            _maxMarketMovement\n        );\n\n        // Safe increase allowance and xfer Want to vault contract\n        IERC20(poolInfo[_pid].want).safeIncreaseAllowance(vaultAddr, _wantAmt);\n\n        // Make deposit\n        // Call core deposit function\n        _deposit(\n            _pid,\n            _account,\n            _foreignAccount,\n            _wantAmt,\n            _weeksCommitted,\n            _vaultEnteredAt\n        );\n    }\n\n    /// @notice Fully withdraw Want tokens from underlying Vault.\n    /// @param _pid index of pool\n    /// @param _trancheId index of tranche\n    /// @param _harvestOnly If true, will only harvest Zorro tokens but not do a withdrawal\n    /// @return Amount of Want token withdrawn\n    function withdraw(\n        uint256 _pid,\n        uint256 _trancheId,\n        bool _harvestOnly\n    ) public nonReentrant returns (uint256) {\n        // Withdraw Want token\n        WithdrawalResult memory _res = _withdraw(\n            _pid,\n            msg.sender,\n            \"\",\n            _trancheId,\n            _harvestOnly\n        );\n\n        // Transfer to user and return Want amount\n        IERC20(poolInfo[_pid].want).safeTransfer(msg.sender, _res.wantAmt);\n\n        return _res.wantAmt;\n    }\n\n    /// @notice Internal function for withdrawing Want tokens from underlying Vault.\n    /// @dev Can only specify one of _localAccount, _foreignAccount\n    /// @param _pid index of pool\n    /// @param _localAccount Address of the on-chain account that the investment was made with\n    /// @param _foreignAccount Address of the foreign chain account that this inviestment was made with\n    /// @param _trancheId index of tranche\n    /// @param _harvestOnly If true, will only harvest Zorro tokens but not do a withdrawal\n    /// @return _res A WithdrawalResult struct containing relevant withdrawal result parameters\n    function _withdraw(\n        uint256 _pid,\n        address _localAccount,\n        bytes memory _foreignAccount,\n        uint256 _trancheId,\n        bool _harvestOnly\n    ) internal returns (WithdrawalResult memory _res) {\n        // Can only specify one account (on-chain/foreign, but not both)\n        require(\n            (_localAccount == address(0) && _foreignAccount.length > 0) ||\n                (_localAccount != address(0) && _foreignAccount.length == 0),\n            \"Only one account type allowed\"\n        );\n        // Determine account type and associated values\n        TrancheInfo memory _tranche = _getTranche(\n            _pid,\n            _trancheId,\n            _foreignAccount,\n            _localAccount\n        );\n\n        // Get pool and current tranche info\n        PoolInfo storage _pool = poolInfo[_pid];\n\n        // Require non-zero tranche contribution\n        require(_tranche.contribution > 0, \"tranche.contribution is 0\");\n        // Require non-zero overall tranche contribution\n        require(\n            _pool.totalTrancheContributions > 0,\n            \"totalTrancheContributions is 0\"\n        );\n        // Require that tranche has not yet been exited\n        require(_tranche.exitedVaultAt == 0, \"Already exited vault\");\n\n        // Update the pool before anything to ensure rewards have been updated and transferred\n        _res.mintedZORRewards = updatePool(_pid);\n\n        // Withdraw pending ZORRO rewards (a.k.a. \"Harvest\")\n        uint256 _trancheShare = _tranche.contribution.mul(1e12).div(\n            _pool.totalTrancheContributions\n        );\n        uint256 _pendingRewards = _trancheShare\n            .mul(_pool.accZORRORewards)\n            .div(1e12)\n            .sub(_tranche.rewardDebt);\n        if (_pendingRewards > 0) {\n            // If pending rewards payable, pay them out\n            (uint256 _rewardsDue, uint256 _slashedRewards) = _getPendingRewards(\n                _tranche,\n                _pendingRewards\n            );\n            if (chainId == homeChainId) {\n                // Simply transfer on-chain\n                // Transfer ZORRO rewards to user, net of any applicable slashing\n                if (_rewardsDue > 0) {\n                    _safeZORROTransfer(_localAccount, _rewardsDue);\n                }\n                // Transfer any slashed rewards to single Zorro staking vault, if applicable\n                if (_slashedRewards > 0) {\n                    // Transfer slashed rewards to vault to reward ZORRO stakers\n                    _safeZORROTransfer(zorroStakingVault, _slashedRewards);\n                }\n            } else {\n                // Burn rewards due and slashed rewards, as we will be taking the equivalent amounts from the public pool on the home chain instead\n                _safeZORROTransfer(\n                    burnAddress,\n                    _rewardsDue.add(_slashedRewards)\n                );\n                _res.rewardsDueXChain = _rewardsDue;\n                _res.slashedRewardsXChain = _slashedRewards;\n            }\n        }\n\n        // If not just harvesting (withdrawing too), proceed with below\n        if (!_harvestOnly) {\n            // Perform the actual withdrawal function on the underlying Vault contract and get the number of shares to remove\n            IVault(poolInfo[_pid].vault).withdrawWantToken(\n                _localAccount,\n                _tranche.contribution\n            );\n\n            // Update shares safely\n            _pool.totalTrancheContributions = _pool\n                .totalTrancheContributions\n                .sub(_tranche.contribution);\n\n            // Calculate Want token balance\n            _res.wantAmt = IERC20(_pool.want).balanceOf(address(this));\n\n            // Mark tranche as exited\n            trancheInfo[_pid][_localAccount][_trancheId].exitedVaultAt = block\n                .timestamp;\n\n            // Emit withdrawal event and return want balance\n            emit Withdraw(\n                _localAccount,\n                _foreignAccount,\n                _pid,\n                _trancheId,\n                _res.wantAmt\n            );\n        }\n    }\n\n    /// @notice Get tranche based on tranche ID and account information\n    /// @dev Takes into account potential cross chain identities\n    /// @param _pid Pool ID\n    /// @param _trancheId Tranche ID\n    /// @param _foreignAccount Identity of the foreign account that the tranche might be associated with\n    /// @param _localAccount Identity of the account on the local chain that the tranche might be associated with\n    /// @return _tranche TrancheInfo object for the tranche found\n    function _getTranche(\n        uint256 _pid,\n        uint256 _trancheId,\n        bytes memory _foreignAccount,\n        address _localAccount\n    ) internal view returns (TrancheInfo memory _tranche) {\n        if (_localAccount == address(0)) {\n            // On-chain withdrawal\n            _tranche = trancheInfo[_pid][_localAccount][_trancheId];\n        } else {\n            // Cross-chain withdrawal\n            address _ftLocalAcct = foreignTrancheInfo[_pid][_foreignAccount][\n                _trancheId\n            ];\n            _tranche = trancheInfo[_pid][_ftLocalAcct][_trancheId];\n        }\n    }\n\n    /// @notice Prepares values for paying out rewards\n    /// @param _tranche TrancheInfo object\n    /// @param _pendingRewards Qty of ZOR tokens as pending rewards\n    /// @return _rewardsDue The amount of ZOR rewards payable\n    /// @return _slashedRewards The amount of ZOR rewards slashed due to early withdrawals\n    function _getPendingRewards(\n        TrancheInfo memory _tranche,\n        uint256 _pendingRewards\n    ) internal view returns (uint256 _rewardsDue, uint256 _slashedRewards) {\n        // Only process rewards > 0\n        if (_pendingRewards <= 0) {\n            return (0, 0);\n        }\n        // Check if this is an early withdrawal\n        // If so, slash the accumulated rewards proportionally to the % time remaining before maturity of the time commitment\n        // If not, distribute rewards as normal\n        uint256 timeRemainingInCommitment = _tranche\n            .enteredVaultAt\n            .add(_tranche.durationCommittedInWeeks.mul(1 weeks))\n            .sub(block.timestamp);\n        if (timeRemainingInCommitment > 0) {\n            _slashedRewards = _pendingRewards\n                .mul(timeRemainingInCommitment)\n                .div(_tranche.durationCommittedInWeeks.mul(1 weeks));\n            _rewardsDue = _pendingRewards.sub(_slashedRewards);\n        } else {\n            _rewardsDue = _pendingRewards;\n        }\n    }\n\n    /// @notice Withdraws funds from a pool and converts the Want token into USDC\n    /// @param _pid index of pool to deposit into\n    /// @param _trancheId index of tranche\n    /// @param _harvestOnly If true, will only harvest Zorro tokens but not do a withdrawal\n    /// @param _maxMarketMovement factor to account for max market movement/slippage. The definition varies by Vault, so consult the associated Vault contract for info\n    /// @return Amount (in USDC) returned\n    function withdrawalFullService(\n        uint256 _pid,\n        uint256 _trancheId,\n        bool _harvestOnly,\n        uint256 _maxMarketMovement\n    ) public nonReentrant returns (uint256) {\n        // Withdraw Want token\n        (uint256 _amountUSDC, , , ) = _withdrawalFullService(\n            msg.sender,\n            \"\",\n            _pid,\n            _trancheId,\n            _harvestOnly,\n            _maxMarketMovement\n        );\n\n        // Send USDC funds back to sender\n        IERC20(defaultStablecoin).safeTransfer(msg.sender, _amountUSDC);\n\n        return _amountUSDC;\n    }\n\n    /// @notice Full service withdrawal to be called from authorized cross chain endpoint\n    /// @param _account address of wallet on-chain\n    /// @param _foreignAccount address of wallet cross-chain (that originally made this deposit)\n    /// @param _pid index of pool to deposit into\n    /// @param _trancheId index of tranche\n    /// @param _harvestOnly If true, will only harvest Zorro tokens but not do a withdrawal\n    /// @param _maxMarketMovement factor to account for max market movement/slippage. The definition varies by Vault, so consult the associated Vault contract for info\n    /// @return _amountUSDC Amount of USDC withdrawn\n    /// @return _mintedZORRewards Amount of ZOR rewards minted (to be burned XChain)\n    /// @return _rewardsDueXChain Amount of ZOR rewards due to the origin (cross chain) user\n    /// @return _slashedRewardsXChain Amount of ZOR rewards to be slashed (and thus rewarded to ZOR stakers)\n    function withdrawalFullServiceFromXChain(\n        address _account,\n        bytes memory _foreignAccount,\n        uint256 _pid,\n        uint256 _trancheId,\n        bool _harvestOnly,\n        uint256 _maxMarketMovement\n    )\n        public onlyZorroXChain\n        returns (\n            uint256 _amountUSDC,\n            uint256 _mintedZORRewards,\n            uint256 _rewardsDueXChain,\n            uint256 _slashedRewardsXChain\n        )\n    {\n    }\n\n    /// @notice Private function for withdrawing funds from a pool and converting the Want token into USDC\n    /// @param _account address of wallet on-chain\n    /// @param _foreignAccount address of wallet cross-chain (that originally made this deposit)\n    /// @param _pid index of pool to deposit into\n    /// @param _trancheId index of tranche\n    /// @param _harvestOnly If true, will only harvest Zorro tokens but not do a withdrawal\n    /// @param _maxMarketMovement factor to account for max market movement/slippage. The definition varies by Vault, so consult the associated Vault contract for info\n    /// @return _amountUSDC Amount of USDC withdrawn\n    /// @return _mintedZORRewards Amount of ZOR rewards minted (to be burned XChain)\n    /// @return _rewardsDueXChain Amount of ZOR rewards due to the origin (cross chain) user\n    /// @return _slashedRewardsXChain Amount of ZOR rewards to be slashed (and thus rewarded to ZOR stakers)\n    function _withdrawalFullService(\n        address _account,\n        bytes memory _foreignAccount,\n        uint256 _pid,\n        uint256 _trancheId,\n        bool _harvestOnly,\n        uint256 _maxMarketMovement\n    )\n        internal\n        returns (\n            uint256 _amountUSDC,\n            uint256 _mintedZORRewards,\n            uint256 _rewardsDueXChain,\n            uint256 _slashedRewardsXChain\n        )\n    {\n        // Get Vault contract\n        address _vaultAddr = poolInfo[_pid].vault;\n        IVault vault = IVault(_vaultAddr);\n\n        // Call core withdrawal function (returns actual amount withdrawn)\n        WithdrawalResult memory _res = _withdraw(\n            _pid,\n            _account,\n            _foreignAccount,\n            _trancheId,\n            _harvestOnly\n        );\n\n        // Safe increase spending of Vault contract for Want token\n        IERC20(poolInfo[_pid].want).safeIncreaseAllowance(\n            _vaultAddr,\n            _res.wantAmt\n        );\n\n        // Exchange Want for USD\n        _amountUSDC = vault.exchangeWantTokenForUSD(\n            _res.wantAmt,\n            _maxMarketMovement\n        );\n\n        _mintedZORRewards = _res.mintedZORRewards;\n        _rewardsDueXChain = _res.rewardsDueXChain;\n        _slashedRewardsXChain = _res.slashedRewardsXChain;\n    }\n\n    /// @notice Transfer all assets from a tranche in one vault to a new vault (works on-chain only)\n    /// @param _fromPid index of pool FROM\n    /// @param _fromTrancheId index of tranche FROM\n    /// @param _toPid index of pool TO\n    /// @param _maxMarketMovement factor to account for max market movement/slippage. The definition varies by Vault, so consult the associated Vault contract for info\n    function transferInvestment(\n        uint256 _fromPid,\n        uint256 _fromTrancheId,\n        uint256 _toPid,\n        uint256 _maxMarketMovement\n    ) public nonReentrant {\n        // Get weeks committed and entered at\n        uint256 weeksCommitted = trancheInfo[_fromPid][msg.sender][\n            _fromTrancheId\n        ].durationCommittedInWeeks;\n        uint256 enteredVaultAt = trancheInfo[_fromPid][msg.sender][\n            _fromTrancheId\n        ].enteredVaultAt;\n        // Withdraw\n        (uint256 withdrawnUSDC, , , ) = _withdrawalFullService(\n            msg.sender,\n            \"\",\n            _fromPid,\n            _fromTrancheId,\n            false,\n            _maxMarketMovement\n        );\n        // Redeposit\n        address[] memory sourceTokens;\n        sourceTokens[0] = defaultStablecoin;\n        _depositFullService(\n            _toPid,\n            msg.sender,\n            \"\",\n            withdrawnUSDC,\n            weeksCommitted,\n            enteredVaultAt,\n            _maxMarketMovement\n        );\n        emit TransferInvestment(msg.sender, _fromPid, _fromTrancheId, _toPid);\n    }\n\n    /// @notice Withdraw the maximum number of Want tokens from a pool\n    /// @param _pid index of pool\n    function withdrawAll(uint256 _pid) public nonReentrant {\n        uint256 numTranches = trancheLength(_pid, msg.sender);\n        for (uint256 tid = 0; tid < numTranches; ++tid) {\n            withdraw(_pid, tid, false);\n        }\n    }\n\n    /* Allocations */\n\n    /// @notice Calculate time multiplier based on duration committed\n    /// @param durationInWeeks number of weeks committed into Vault\n    /// @return multiplier factor, times 1e12\n    function getTimeMultiplier(uint256 durationInWeeks)\n        public\n        view\n        returns (uint256)\n    {\n        if (isTimeMultiplierActive) {\n            return\n                (\n                    uint256(1).add(\n                        (uint256(2).div(10)).mul(durationInWeeks.sqrt())\n                    )\n                ).mul(1e12);\n        } else {\n            return 1e12;\n        }\n    }\n\n    /// @notice The contribution of the user, meant to be used in rewards allocations\n    /// @param _liquidityCommitted How many tokens staked (e.g. LP tokens)\n    /// @param _timeMultiplier Time multiplier value (from getTimeMultiplier())\n    /// @return The relative contribution of the user (unitless)\n    function getUserContribution(\n        uint256 _liquidityCommitted,\n        uint256 _timeMultiplier\n    ) public pure returns (uint256) {\n        return _liquidityCommitted.mul(_timeMultiplier).div(1e12);\n    }\n}\n",
  "sourcePath": "/Users/kristophm/Documents/workspace/zorro-protocol/contracts/controllers/_ZorroControllerInvestment.sol",
  "compiler": {
    "name": "solc",
    "version": "0.8.10+commit.fc410830.Emscripten.clang"
  },
  "schemaVersion": "3.4.4",
  "updatedAt": "2022-04-12T01:55:39.135Z",
  "devdoc": {
    "kind": "dev",
    "methods": {
      "deposit(uint256,uint256,uint256)": {
        "params": {
          "_pid": "index of pool",
          "_wantAmt": "how much Want token to deposit",
          "_weeksCommitted": "how many weeks the user is committing to on this vault"
        }
      },
      "depositFullService(uint256,uint256,uint256,uint256)": {
        "params": {
          "_maxMarketMovement": "factor to account for max market movement/slippage. The definition varies by Vault, so consult the associated Vault contract for info",
          "_pid": "index of pool to deposit into",
          "_valueUSDC": "value in USDC (in ether units) to deposit",
          "_weeksCommitted": "how many weeks to commit to the Pool (can be 0 or any uint)"
        }
      },
      "depositFullServiceFromXChain(uint256,address,bytes,uint256,uint256,uint256,uint256)": {
        "params": {
          "_account": "address of user on-chain",
          "_foreignAccount": "the cross chain wallet that initiated this call, if applicable.",
          "_maxMarketMovement": "factor to account for max market movement/slippage. The definition varies by Vault, so consult the associated Vault contract for info",
          "_pid": "index of pool to deposit into",
          "_valueUSDC": "value in USDC (in ether units) to deposit",
          "_vaultEnteredAt": "date that the vault was entered at",
          "_weeksCommitted": "how many weeks to commit to the Pool (can be 0 or any uint)"
        }
      },
      "getTimeMultiplier(uint256)": {
        "params": {
          "durationInWeeks": "number of weeks committed into Vault"
        },
        "returns": {
          "_0": "multiplier factor, times 1e12"
        }
      },
      "getUserContribution(uint256,uint256)": {
        "params": {
          "_liquidityCommitted": "How many tokens staked (e.g. LP tokens)",
          "_timeMultiplier": "Time multiplier value (from getTimeMultiplier())"
        },
        "returns": {
          "_0": "The relative contribution of the user (unitless)"
        }
      },
      "inCaseTokensGetStuck(address,uint256)": {
        "details": "Does not permit usage for the Zorro token",
        "params": {
          "_amount": "token quantity",
          "_token": "ERC20 token address"
        }
      },
      "owner()": {
        "details": "Returns the address of the current owner."
      },
      "poolLength()": {
        "returns": {
          "_0": "Number of pools"
        }
      },
      "renounceOwnership()": {
        "details": "Leaves the contract without owner. It will not be possible to call `onlyOwner` functions anymore. Can only be called by the current owner. NOTE: Renouncing ownership will leave the contract without an owner, thereby removing any functionality that is only available to the owner."
      },
      "setIsTimeMultiplierActive(bool)": {
        "params": {
          "_isActive": "Whether it shall be active. If false, timemultiplier will be 1."
        }
      },
      "setKeyAddresses(address,address)": {
        "params": {
          "_ZORRO": "ZOR token address",
          "_defaultStablecoin": "Main stablecoin address (USDC)"
        }
      },
      "setPriceFeeds(address,address)": {
        "params": {
          "_priceFeedLPPoolOtherToken": "The address of the price feed for the counterparty token in the ZOR LP Pool",
          "_priceFeedZOR": "The address of the price feed for ZOR"
        }
      },
      "setRewardsParams(uint256[],uint256[],uint256,uint256)": {
        "details": "NOTE: Must enter all parameters or existing ones will be overwritten!",
        "params": {
          "_baseRewardRateBasisPoints": "Base reward rate factor, in bp",
          "_blockParams": "Array of [blocksPerDay, ZORROPerBlock]",
          "_chainMultiplier": "Rewards multiplier factor to be applied to this chain",
          "_dailyDistFactors": "Array of [ZORRODailyDistributionFactorBasisPointsMin, ZORRODailyDistributionFactorBasisPointsMax]"
        }
      },
      "setTargetTVLCaptureBasisPoints(uint256)": {
        "params": {
          "_targetTVLCaptureBasisPoints": "Percent of market desired to be captured, in bp. 333 = 3.33%. ONLY to be set on the home chain"
        }
      },
      "setUSDCToZORPath(address[])": {
        "params": {
          "_path": "Swap path"
        }
      },
      "setUSDCToZorroLPPoolOtherTokenPath(address[])": {
        "params": {
          "_path": "Swap path"
        }
      },
      "setUniRouter(address)": {
        "params": {
          "_uniV2Router": "Address of router"
        }
      },
      "setXChainParams(uint256,uint256,address)": {
        "params": {
          "_chainId": "The ind of the chain that this contract is on",
          "_homeChainId": "The chain ID of the home chain",
          "_homeChainZorroController": "The address of the home chain controller"
        }
      },
      "setZorroContracts(address,address)": {
        "params": {
          "_publicPool": "Public pool address (where ZOR minted)",
          "_zorroStakingVault": "Zorro single staking vault address"
        }
      },
      "setZorroControllerOracle(address)": {
        "params": {
          "_zorroControllerOracle": "Address of Chainlink oracle that can interact with this contract"
        }
      },
      "setZorroLPPoolParams(address,address)": {
        "params": {
          "_zorroLPPool": "Address of the Zorro-X LP pool",
          "_zorroLPPoolOtherToken": "Address of the counterpart token to the ZOR token in the LP Pool"
        }
      },
      "setZorroPerBlock(uint256,uint256,uint256,uint256,uint256)": {
        "details": "Values to be provided by Oracle. Perferable to run daily",
        "params": {
          "_ZorroTotalVaultTVLUSD": "USD value of all TVL locked into the Zorro protocol, across all chains",
          "_publicPoolZORBalance": "Number of ZOR tokens remaining in public pool on home chain",
          "_targetTVLCaptureBasisPoints": "% desired capture of total market TVL, measured in basis points",
          "_totalChainMultipliers": "Sum total of all chain multipliers for each chain",
          "_totalMarketTVLUSD": "Total DeFi market TVL across all chains (measured in USD)"
        }
      },
      "setZorroXChainEndpoint(address)": {
        "params": {
          "_contract": "Contract address of endpoint"
        }
      },
      "trancheLength(uint256,address)": {
        "params": {
          "_pid": "Index of pool",
          "_user": "wallet address of user"
        },
        "returns": {
          "_0": "Number of tranches"
        }
      },
      "transferInvestment(uint256,uint256,uint256,uint256)": {
        "params": {
          "_fromPid": "index of pool FROM",
          "_fromTrancheId": "index of tranche FROM",
          "_maxMarketMovement": "factor to account for max market movement/slippage. The definition varies by Vault, so consult the associated Vault contract for info",
          "_toPid": "index of pool TO"
        }
      },
      "transferOwnership(address)": {
        "details": "Transfers ownership of the contract to a new account (`newOwner`). Can only be called by the current owner."
      },
      "updatePool(uint256)": {
        "params": {
          "_pid": "index of pool"
        },
        "returns": {
          "_0": "uint256 Amount of ZOR rewards minted (useful for cross chain)"
        }
      },
      "withdraw(uint256,uint256,bool)": {
        "params": {
          "_harvestOnly": "If true, will only harvest Zorro tokens but not do a withdrawal",
          "_pid": "index of pool",
          "_trancheId": "index of tranche"
        },
        "returns": {
          "_0": "Amount of Want token withdrawn"
        }
      },
      "withdrawAll(uint256)": {
        "params": {
          "_pid": "index of pool"
        }
      },
      "withdrawalFullService(uint256,uint256,bool,uint256)": {
        "params": {
          "_harvestOnly": "If true, will only harvest Zorro tokens but not do a withdrawal",
          "_maxMarketMovement": "factor to account for max market movement/slippage. The definition varies by Vault, so consult the associated Vault contract for info",
          "_pid": "index of pool to deposit into",
          "_trancheId": "index of tranche"
        },
        "returns": {
          "_0": "Amount (in USDC) returned"
        }
      },
      "withdrawalFullServiceFromXChain(address,bytes,uint256,uint256,bool,uint256)": {
        "params": {
          "_account": "address of wallet on-chain",
          "_foreignAccount": "address of wallet cross-chain (that originally made this deposit)",
          "_harvestOnly": "If true, will only harvest Zorro tokens but not do a withdrawal",
          "_maxMarketMovement": "factor to account for max market movement/slippage. The definition varies by Vault, so consult the associated Vault contract for info",
          "_pid": "index of pool to deposit into",
          "_trancheId": "index of tranche"
        },
        "returns": {
          "_amountUSDC": "Amount of USDC withdrawn",
          "_mintedZORRewards": "Amount of ZOR rewards minted (to be burned XChain)",
          "_rewardsDueXChain": "Amount of ZOR rewards due to the origin (cross chain) user",
          "_slashedRewardsXChain": "Amount of ZOR rewards to be slashed (and thus rewarded to ZOR stakers)"
        }
      }
    },
    "version": 1
  },
  "userdoc": {
    "kind": "user",
    "methods": {
      "deposit(uint256,uint256,uint256)": {
        "notice": "Deposit Want tokens to associated Vault"
      },
      "depositFullService(uint256,uint256,uint256,uint256)": {
        "notice": "Deposits funds in a full service manner (performs autoswaps and obtains Want tokens)"
      },
      "depositFullServiceFromXChain(uint256,address,bytes,uint256,uint256,uint256,uint256)": {
        "notice": "Full service deposit function to be called by ZorroControllerXChain only."
      },
      "getTimeMultiplier(uint256)": {
        "notice": "Calculate time multiplier based on duration committed"
      },
      "getUserContribution(uint256,uint256)": {
        "notice": "The contribution of the user, meant to be used in rewards allocations"
      },
      "inCaseTokensGetStuck(address,uint256)": {
        "notice": "For owner to recover ERC20 tokens on this contract if stuck"
      },
      "poolLength()": {
        "notice": "Number of pools in the Zorro protocol"
      },
      "setIsTimeMultiplierActive(bool)": {
        "notice": "Setter: Set time multiplier"
      },
      "setKeyAddresses(address,address)": {
        "notice": "Setter: Set key token addresses"
      },
      "setPriceFeeds(address,address)": {
        "notice": "Setter: Chainlink price feeds"
      },
      "setRewardsParams(uint256[],uint256[],uint256,uint256)": {
        "notice": "Setter: Reward params (See Tokenomics paper for more details)"
      },
      "setStartBlock(uint256)": {
        "notice": "Setter: Start block for rewards"
      },
      "setTargetTVLCaptureBasisPoints(uint256)": {
        "notice": "Setter: TVL capture (See Tokenomics paper)"
      },
      "setUSDCToZORPath(address[])": {
        "notice": "Setter: Set path for token swap from USDC to ZOR"
      },
      "setUSDCToZorroLPPoolOtherTokenPath(address[])": {
        "notice": "Setter: Set path for token swap from USDC to counterparty token in ZOR LP pool"
      },
      "setUniRouter(address)": {
        "notice": "Setter: Uniswap-compatible router address"
      },
      "setXChainParams(uint256,uint256,address)": {
        "notice": "Setter: Cross chain params"
      },
      "setZorroContracts(address,address)": {
        "notice": "Setter: Set key ZOR contract addresses"
      },
      "setZorroControllerOracle(address)": {
        "notice": "Setter: Set Zorro Controller Oracle"
      },
      "setZorroLPPoolParams(address,address)": {
        "notice": "Setter: Zorro LP Pool params"
      },
      "setZorroPerBlock(uint256,uint256,uint256,uint256,uint256)": {
        "notice": "Set the number of Zorro to emit per block based on current market parameters"
      },
      "setZorroXChainEndpoint(address)": {
        "notice": "Setter: Cross chain endpoint"
      },
      "trancheLength(uint256,address)": {
        "notice": "Number of tranches invested by a given user into a given pool"
      },
      "transferInvestment(uint256,uint256,uint256,uint256)": {
        "notice": "Transfer all assets from a tranche in one vault to a new vault (works on-chain only)"
      },
      "updatePool(uint256)": {
        "notice": "Update reward variables of the given pool to be up-to-date."
      },
      "withdraw(uint256,uint256,bool)": {
        "notice": "Fully withdraw Want tokens from underlying Vault."
      },
      "withdrawAll(uint256)": {
        "notice": "Withdraw the maximum number of Want tokens from a pool"
      },
      "withdrawalFullService(uint256,uint256,bool,uint256)": {
        "notice": "Withdraws funds from a pool and converts the Want token into USDC"
      },
      "withdrawalFullServiceFromXChain(address,bytes,uint256,uint256,bool,uint256)": {
        "notice": "Full service withdrawal to be called from authorized cross chain endpoint"
      }
    },
    "version": 1
  }
}