{
  "contractName": "ZorroControllerBase",
  "abi": [
    {
      "anonymous": false,
      "inputs": [
        {
          "indexed": true,
          "internalType": "address",
          "name": "previousOwner",
          "type": "address"
        },
        {
          "indexed": true,
          "internalType": "address",
          "name": "newOwner",
          "type": "address"
        }
      ],
      "name": "OwnershipTransferred",
      "type": "event"
    },
    {
      "inputs": [],
      "name": "ZORRO",
      "outputs": [
        {
          "internalType": "address",
          "name": "",
          "type": "address"
        }
      ],
      "stateMutability": "view",
      "type": "function"
    },
    {
      "inputs": [],
      "name": "ZORRODailyDistributionFactorBasisPointsMax",
      "outputs": [
        {
          "internalType": "uint256",
          "name": "",
          "type": "uint256"
        }
      ],
      "stateMutability": "view",
      "type": "function"
    },
    {
      "inputs": [],
      "name": "ZORRODailyDistributionFactorBasisPointsMin",
      "outputs": [
        {
          "internalType": "uint256",
          "name": "",
          "type": "uint256"
        }
      ],
      "stateMutability": "view",
      "type": "function"
    },
    {
      "inputs": [],
      "name": "ZORROPerBlock",
      "outputs": [
        {
          "internalType": "uint256",
          "name": "",
          "type": "uint256"
        }
      ],
      "stateMutability": "view",
      "type": "function"
    },
    {
      "inputs": [],
      "name": "baseRewardRateBasisPoints",
      "outputs": [
        {
          "internalType": "uint256",
          "name": "",
          "type": "uint256"
        }
      ],
      "stateMutability": "view",
      "type": "function"
    },
    {
      "inputs": [],
      "name": "blocksPerDay",
      "outputs": [
        {
          "internalType": "uint256",
          "name": "",
          "type": "uint256"
        }
      ],
      "stateMutability": "view",
      "type": "function"
    },
    {
      "inputs": [],
      "name": "burnAddress",
      "outputs": [
        {
          "internalType": "address",
          "name": "",
          "type": "address"
        }
      ],
      "stateMutability": "view",
      "type": "function"
    },
    {
      "inputs": [],
      "name": "chainId",
      "outputs": [
        {
          "internalType": "uint256",
          "name": "",
          "type": "uint256"
        }
      ],
      "stateMutability": "view",
      "type": "function"
    },
    {
      "inputs": [],
      "name": "chainMultiplier",
      "outputs": [
        {
          "internalType": "uint256",
          "name": "",
          "type": "uint256"
        }
      ],
      "stateMutability": "view",
      "type": "function"
    },
    {
      "inputs": [],
      "name": "defaultStablecoin",
      "outputs": [
        {
          "internalType": "address",
          "name": "",
          "type": "address"
        }
      ],
      "stateMutability": "view",
      "type": "function"
    },
    {
      "inputs": [
        {
          "internalType": "uint256",
          "name": "",
          "type": "uint256"
        },
        {
          "internalType": "bytes",
          "name": "",
          "type": "bytes"
        },
        {
          "internalType": "uint256",
          "name": "",
          "type": "uint256"
        }
      ],
      "name": "foreignTrancheInfo",
      "outputs": [
        {
          "internalType": "address",
          "name": "",
          "type": "address"
        }
      ],
      "stateMutability": "view",
      "type": "function"
    },
    {
      "inputs": [],
      "name": "homeChainId",
      "outputs": [
        {
          "internalType": "uint256",
          "name": "",
          "type": "uint256"
        }
      ],
      "stateMutability": "view",
      "type": "function"
    },
    {
      "inputs": [],
      "name": "homeChainZorroController",
      "outputs": [
        {
          "internalType": "address",
          "name": "",
          "type": "address"
        }
      ],
      "stateMutability": "view",
      "type": "function"
    },
    {
      "inputs": [],
      "name": "owner",
      "outputs": [
        {
          "internalType": "address",
          "name": "",
          "type": "address"
        }
      ],
      "stateMutability": "view",
      "type": "function"
    },
    {
      "inputs": [
        {
          "internalType": "uint256",
          "name": "",
          "type": "uint256"
        }
      ],
      "name": "poolInfo",
      "outputs": [
        {
          "internalType": "contract IERC20",
          "name": "want",
          "type": "address"
        },
        {
          "internalType": "uint256",
          "name": "allocPoint",
          "type": "uint256"
        },
        {
          "internalType": "uint256",
          "name": "lastRewardBlock",
          "type": "uint256"
        },
        {
          "internalType": "uint256",
          "name": "accZORRORewards",
          "type": "uint256"
        },
        {
          "internalType": "uint256",
          "name": "totalTrancheContributions",
          "type": "uint256"
        },
        {
          "internalType": "address",
          "name": "vault",
          "type": "address"
        }
      ],
      "stateMutability": "view",
      "type": "function"
    },
    {
      "inputs": [],
      "name": "publicPool",
      "outputs": [
        {
          "internalType": "address",
          "name": "",
          "type": "address"
        }
      ],
      "stateMutability": "view",
      "type": "function"
    },
    {
      "inputs": [],
      "name": "renounceOwnership",
      "outputs": [],
      "stateMutability": "nonpayable",
      "type": "function"
    },
    {
      "inputs": [],
      "name": "startBlock",
      "outputs": [
        {
          "internalType": "uint256",
          "name": "",
          "type": "uint256"
        }
      ],
      "stateMutability": "view",
      "type": "function"
    },
    {
      "inputs": [],
      "name": "targetTVLCaptureBasisPoints",
      "outputs": [
        {
          "internalType": "uint256",
          "name": "",
          "type": "uint256"
        }
      ],
      "stateMutability": "view",
      "type": "function"
    },
    {
      "inputs": [],
      "name": "totalAllocPoint",
      "outputs": [
        {
          "internalType": "uint256",
          "name": "",
          "type": "uint256"
        }
      ],
      "stateMutability": "view",
      "type": "function"
    },
    {
      "inputs": [
        {
          "internalType": "uint256",
          "name": "",
          "type": "uint256"
        },
        {
          "internalType": "address",
          "name": "",
          "type": "address"
        },
        {
          "internalType": "uint256",
          "name": "",
          "type": "uint256"
        }
      ],
      "name": "trancheInfo",
      "outputs": [
        {
          "internalType": "uint256",
          "name": "contribution",
          "type": "uint256"
        },
        {
          "internalType": "uint256",
          "name": "timeMultiplier",
          "type": "uint256"
        },
        {
          "internalType": "uint256",
          "name": "rewardDebt",
          "type": "uint256"
        },
        {
          "internalType": "uint256",
          "name": "durationCommittedInWeeks",
          "type": "uint256"
        },
        {
          "internalType": "uint256",
          "name": "enteredVaultAt",
          "type": "uint256"
        },
        {
          "internalType": "uint256",
          "name": "exitedVaultAt",
          "type": "uint256"
        }
      ],
      "stateMutability": "view",
      "type": "function"
    },
    {
      "inputs": [
        {
          "internalType": "address",
          "name": "newOwner",
          "type": "address"
        }
      ],
      "name": "transferOwnership",
      "outputs": [],
      "stateMutability": "nonpayable",
      "type": "function"
    },
    {
      "inputs": [],
      "name": "zorroControllerOracle",
      "outputs": [
        {
          "internalType": "address",
          "name": "",
          "type": "address"
        }
      ],
      "stateMutability": "view",
      "type": "function"
    },
    {
      "inputs": [],
      "name": "zorroStakingVault",
      "outputs": [
        {
          "internalType": "address",
          "name": "",
          "type": "address"
        }
      ],
      "stateMutability": "view",
      "type": "function"
    },
    {
      "inputs": [
        {
          "internalType": "uint256",
          "name": "_blockNumber",
          "type": "uint256"
        }
      ],
      "name": "setStartBlock",
      "outputs": [],
      "stateMutability": "nonpayable",
      "type": "function"
    },
    {
      "inputs": [
        {
          "internalType": "address",
          "name": "_publicPoolAddress",
          "type": "address"
        }
      ],
      "name": "setPublicPool",
      "outputs": [],
      "stateMutability": "nonpayable",
      "type": "function"
    },
    {
      "inputs": [
        {
          "internalType": "uint256",
          "name": "_baseRewardRateBasisPoints",
          "type": "uint256"
        }
      ],
      "name": "setBaseRewardRateBasisPoints",
      "outputs": [],
      "stateMutability": "nonpayable",
      "type": "function"
    },
    {
      "inputs": [
        {
          "internalType": "uint256",
          "name": "_targetTVLCaptureBasisPoints",
          "type": "uint256"
        }
      ],
      "name": "setTargetTVLCaptureBasisPoints",
      "outputs": [],
      "stateMutability": "nonpayable",
      "type": "function"
    },
    {
      "inputs": [
        {
          "internalType": "uint256",
          "name": "_blocksPerDay",
          "type": "uint256"
        }
      ],
      "name": "setBlocksPerDay",
      "outputs": [],
      "stateMutability": "nonpayable",
      "type": "function"
    },
    {
      "inputs": [
        {
          "internalType": "uint256",
          "name": "_value",
          "type": "uint256"
        }
      ],
      "name": "setZORRODailyDistributionFactorBasisPointsMin",
      "outputs": [],
      "stateMutability": "nonpayable",
      "type": "function"
    },
    {
      "inputs": [
        {
          "internalType": "uint256",
          "name": "_value",
          "type": "uint256"
        }
      ],
      "name": "setZORRODailyDistributionFactorBasisPointsMax",
      "outputs": [],
      "stateMutability": "nonpayable",
      "type": "function"
    },
    {
      "inputs": [
        {
          "internalType": "address",
          "name": "_defaultStablecoin",
          "type": "address"
        }
      ],
      "name": "setDefaultStablecoin",
      "outputs": [],
      "stateMutability": "nonpayable",
      "type": "function"
    },
    {
      "inputs": [
        {
          "internalType": "address",
          "name": "_homeChainZorroController",
          "type": "address"
        }
      ],
      "name": "setHomeChainZorroController",
      "outputs": [],
      "stateMutability": "nonpayable",
      "type": "function"
    },
    {
      "inputs": [
        {
          "internalType": "address",
          "name": "_zorroStakingVault",
          "type": "address"
        }
      ],
      "name": "setZorroStakingVault",
      "outputs": [],
      "stateMutability": "nonpayable",
      "type": "function"
    },
    {
      "inputs": [
        {
          "internalType": "uint256",
          "name": "_chainId",
          "type": "uint256"
        }
      ],
      "name": "setChainId",
      "outputs": [],
      "stateMutability": "nonpayable",
      "type": "function"
    },
    {
      "inputs": [
        {
          "internalType": "address",
          "name": "_zorroControllerOracle",
          "type": "address"
        }
      ],
      "name": "setZorroControllerOracle",
      "outputs": [],
      "stateMutability": "nonpayable",
      "type": "function"
    },
    {
      "inputs": [
        {
          "internalType": "uint256",
          "name": "_chainMultiplier",
          "type": "uint256"
        }
      ],
      "name": "setChainMultiplier",
      "outputs": [],
      "stateMutability": "nonpayable",
      "type": "function"
    },
    {
      "inputs": [],
      "name": "poolLength",
      "outputs": [
        {
          "internalType": "uint256",
          "name": "",
          "type": "uint256"
        }
      ],
      "stateMutability": "view",
      "type": "function"
    },
    {
      "inputs": [
        {
          "internalType": "uint256",
          "name": "_pid",
          "type": "uint256"
        },
        {
          "internalType": "address",
          "name": "_user",
          "type": "address"
        }
      ],
      "name": "trancheLength",
      "outputs": [
        {
          "internalType": "uint256",
          "name": "",
          "type": "uint256"
        }
      ],
      "stateMutability": "view",
      "type": "function"
    },
    {
      "inputs": [
        {
          "internalType": "uint256",
          "name": "_totalChainMultipliers",
          "type": "uint256"
        },
        {
          "internalType": "uint256",
          "name": "_totalMarketTVLUSD",
          "type": "uint256"
        },
        {
          "internalType": "uint256",
          "name": "_targetTVLCaptureBasisPoints",
          "type": "uint256"
        },
        {
          "internalType": "uint256",
          "name": "_ZorroTotalVaultTVLUSD",
          "type": "uint256"
        },
        {
          "internalType": "uint256",
          "name": "_publicPoolZORBalance",
          "type": "uint256"
        }
      ],
      "name": "setZorroPerBlock",
      "outputs": [],
      "stateMutability": "nonpayable",
      "type": "function"
    },
    {
      "inputs": [
        {
          "internalType": "uint256",
          "name": "_pid",
          "type": "uint256"
        }
      ],
      "name": "updatePool",
      "outputs": [
        {
          "internalType": "uint256",
          "name": "",
          "type": "uint256"
        }
      ],
      "stateMutability": "nonpayable",
      "type": "function"
    },
    {
      "inputs": [
        {
          "internalType": "address",
          "name": "_token",
          "type": "address"
        },
        {
          "internalType": "uint256",
          "name": "_amount",
          "type": "uint256"
        }
      ],
      "name": "inCaseTokensGetStuck",
      "outputs": [],
      "stateMutability": "nonpayable",
      "type": "function"
    }
  ],
  "bytecode": "0x608060405234801561001057600080fd5b5061003361002564010000000061003c810204565b640100000000610040810204565b60018055610090565b3390565b60008054600160a060020a03838116600160a060020a0319831681178455604051919092169283917f8be0079c531659141344cd1fd0a4f28419497f9722a3daafe3b4186f6b6457e09190a35050565b6116638061009f6000396000f3fe608060405234801561001057600080fd5b506004361061027b576000357c010000000000000000000000000000000000000000000000000000000090048063715018a611610163578063b61bb80a116100e0578063ea07667a116100a4578063ea07667a14610593578063ef0e2ff4146105a6578063ef126967146105b9578063f2fde38b146105c2578063f35e4a6e146105d5578063fc39a29e146105e857600080fd5b8063b61bb80a14610548578063c29361421461055b578063c524a05614610564578063c6d758cb14610577578063cb9c2f681461058a57600080fd5b80639a8a0592116101275780639a8a0592146104d05780639cebd371146104d9578063a4d2b083146104e2578063a9418d67146104f5578063b4b4e9eb1461050857600080fd5b8063715018a61461047e578063823c43d0146104865780638c157db2146104995780638da5cb5b146104ac57806394909cc2146104bd57600080fd5b80634098b0eb116101fc57806353f73f87116101c057806353f73f87146103fd5780635527a6f914610433578063668ababb1461043c5780636b8eb2e51461044f5780636ca8bd651461046257806370d5ae051461047557600080fd5b80634098b0eb146103b257806348cd4cb1146103c55780634cfea68a146103ce5780635051d371146103d757806351eb05a6146103ea57600080fd5b8063353b6c2c11610243578063353b6c2c146103675780633b35b7271461037a5780633b7106881461038d5780633b9ce565146103965780633bbc1ffc1461039f57600080fd5b8063081e3eda146102805780631479a6df146102975780631526fe27146102ac57806317caf6f1146102fb5780632e31283d14610304575b600080fd5b6012545b6040519081526020015b60405180910390f35b6102aa6102a53660046112c3565b6105fb565b005b6102bf6102ba3660046112c3565b610636565b60408051600160a060020a03978816815260208101969096528501939093526060840191909152608083015290911660a082015260c00161028e565b610284600c5481565b61034f6103123660046112f5565b60146020908152600093845260408085208451808601840180519281529084019584019590952094529290528252902054600160a060020a031681565b604051600160a060020a03909116815260200161028e565b6102aa6103753660046112c3565b610689565b6102aa6103883660046112c3565b6106bb565b610284600b5481565b61028460095481565b6102aa6103ad3660046112c3565b6106ed565b6102aa6103c03660046112c3565b61071f565b61028460045481565b61028460055481565b6102aa6103e53660046113d5565b610751565b6102846103f83660046112c3565b6107ad565b61028461040b3660046113f0565b6000918252601360209081526040808420600160a060020a0393909316845291905290205490565b61028460085481565b60035461034f90600160a060020a031681565b6102aa61045d36600461141c565b610924565b6102aa6104703660046113d5565b610a23565b61034f61dead81565b6102aa610a7f565b60155461034f90600160a060020a031681565b60025461034f90600160a060020a031681565b600054600160a060020a031661034f565b6102aa6104cb3660046113d5565b610ab8565b610284600f5481565b610284600a5481565b600e5461034f90600160a060020a031681565b6102aa6105033660046113d5565b610b14565b61051b610516366004611457565b610bc9565b604080519687526020870195909552938501929092526060840152608083015260a082015260c00161028e565b600d5461034f90600160a060020a031681565b61028460065481565b6102aa6105723660046113d5565b610c2a565b6102aa61058536600461148c565b610c86565b61028460075481565b6102aa6105a13660046112c3565b610d52565b6102aa6105b43660046112c3565b610d84565b61028460105481565b6102aa6105d03660046113d5565b610db6565b6102aa6105e33660046112c3565b610e6e565b60115461034f90600160a060020a031681565b600054600160a060020a031633146106315760405160e560020a62461bcd028152600401610628906114b6565b60405180910390fd5b600855565b6012818154811061064657600080fd5b6000918252602090912060069091020180546001820154600283015460038401546004850154600590950154600160a060020a0394851696509294919390921686565b600054600160a060020a031633146106b65760405160e560020a62461bcd028152600401610628906114b6565b600555565b600054600160a060020a031633146106e85760405160e560020a62461bcd028152600401610628906114b6565b600955565b600054600160a060020a0316331461071a5760405160e560020a62461bcd028152600401610628906114b6565b600755565b600054600160a060020a0316331461074c5760405160e560020a62461bcd028152600401610628906114b6565b600b55565b600054600160a060020a0316331461077e5760405160e560020a62461bcd028152600401610628906114b6565b6015805473ffffffffffffffffffffffffffffffffffffffff1916600160a060020a0392909216919091179055565b600080601283815481106107c3576107c36114eb565b90600052602060002090600602019050806002015443116107e75750600092915050565b6000610800826002015443610ea090919063ffffffff16565b905060008111610814575060009392505050565b6000610845600c5461083f856001015461083960065487610eb390919063ffffffff16565b90610eb3565b90610ebf565b601154909150600160a060020a031630141561089e5760035460025461087991600160a060020a0391821691163084610ecb565b60038301546108889082610f82565b6003840155505043600290910155506000919050565b6002546040517f40c10f1900000000000000000000000000000000000000000000000000000000815230600482015260248101839052600160a060020a03909116906340c10f1990604401600060405180830381600087803b15801561090357600080fd5b505af1158015610917573d6000803e3d6000fd5b5092979650505050505050565b601554600160a060020a031633600160a060020a03161461098a5760405160e560020a62461bcd02815260206004820152601160248201527f6f6e6c79205a6f72726f206f7261636c650000000000000000000000000000006044820152606401610628565b60006109ac8361083f61099f87612710610ebf565b600b54610839908a610eb3565b90506009548111156109c157506009546109d0565b6008548110156109d057506008545b60006109e261271061083f8585610eb3565b905060006109ff8861083f84600a54610eb390919063ffffffff16565b9050610a1660055482610ebf90919063ffffffff16565b6006555050505050505050565b600054600160a060020a03163314610a505760405160e560020a62461bcd028152600401610628906114b6565b600e805473ffffffffffffffffffffffffffffffffffffffff1916600160a060020a0392909216919091179055565b600054600160a060020a03163314610aac5760405160e560020a62461bcd028152600401610628906114b6565b610ab66000610f8e565b565b600054600160a060020a03163314610ae55760405160e560020a62461bcd028152600401610628906114b6565b6003805473ffffffffffffffffffffffffffffffffffffffff1916600160a060020a0392909216919091179055565b600054600160a060020a03163314610b415760405160e560020a62461bcd028152600401610628906114b6565b600160a060020a038116610b9a5760405160e560020a62461bcd02815260206004820152601060248201527f63616e6e6f7420626520302061646472000000000000000000000000000000006044820152606401610628565b6011805473ffffffffffffffffffffffffffffffffffffffff1916600160a060020a0392909216919091179055565b60136020528260005260406000206020528160005260406000208181548110610bf157600080fd5b60009182526020909120600690910201805460018201546002830154600384015460048501546005909501549397509195509350919086565b600054600160a060020a03163314610c575760405160e560020a62461bcd028152600401610628906114b6565b600d805473ffffffffffffffffffffffffffffffffffffffff1916600160a060020a0392909216919091179055565b600054600160a060020a03163314610cb35760405160e560020a62461bcd028152600401610628906114b6565b600254600160a060020a0383811691161415610d3a5760405160e560020a62461bcd02815260206004820152603560248201527f217361666520746f20757365205a6f72726f20746f6b656e20696e2066756e6360448201527f20696e43617365546f6b656e73476574537475636b00000000000000000000006064820152608401610628565b610d4e600160a060020a0383163383610feb565b5050565b600054600160a060020a03163314610d7f5760405160e560020a62461bcd028152600401610628906114b6565b600a55565b600054600160a060020a03163314610db15760405160e560020a62461bcd028152600401610628906114b6565b600f55565b600054600160a060020a03163314610de35760405160e560020a62461bcd028152600401610628906114b6565b600160a060020a038116610e625760405160e560020a62461bcd02815260206004820152602660248201527f4f776e61626c653a206e6577206f776e657220697320746865207a65726f206160448201527f64647265737300000000000000000000000000000000000000000000000000006064820152608401610628565b610e6b81610f8e565b50565b600054600160a060020a03163314610e9b5760405160e560020a62461bcd028152600401610628906114b6565b600455565b6000610eac828461151d565b9392505050565b6000610eac8284611534565b6000610eac8284611553565b604051600160a060020a0380851660248301528316604482015260648101829052610f7c9085907f23b872dd00000000000000000000000000000000000000000000000000000000906084015b60408051601f198184030181529190526020810180517bffffffffffffffffffffffffffffffffffffffffffffffffffffffff167fffffffff0000000000000000000000000000000000000000000000000000000090931692909217909152611039565b50505050565b6000610eac8284611578565b60008054600160a060020a0383811673ffffffffffffffffffffffffffffffffffffffff19831681178455604051919092169283917f8be0079c531659141344cd1fd0a4f28419497f9722a3daafe3b4186f6b6457e09190a35050565b604051600160a060020a0383166024820152604481018290526110349084907fa9059cbb0000000000000000000000000000000000000000000000000000000090606401610f18565b505050565b600061108e826040518060400160405280602081526020017f5361666545524332303a206c6f772d6c6576656c2063616c6c206661696c656481525085600160a060020a03166111219092919063ffffffff16565b80519091501561103457808060200190518101906110ac9190611590565b6110345760405160e560020a62461bcd02815260206004820152602a60248201527f5361666545524332303a204552433230206f7065726174696f6e20646964206e60448201527f6f742073756363656564000000000000000000000000000000000000000000006064820152608401610628565b60606111308484600085611138565b949350505050565b606030318311156111b45760405160e560020a62461bcd02815260206004820152602660248201527f416464726573733a20696e73756666696369656e742062616c616e636520666f60448201527f722063616c6c00000000000000000000000000000000000000000000000000006064820152608401610628565b600160a060020a0385163b61120e5760405160e560020a62461bcd02815260206004820152601d60248201527f416464726573733a2063616c6c20746f206e6f6e2d636f6e74726163740000006044820152606401610628565b60008086600160a060020a0316858760405161122a91906115de565b60006040518083038185875af1925050503d8060008114611267576040519150601f19603f3d011682016040523d82523d6000602084013e61126c565b606091505b509150915061127c828286611287565b979650505050505050565b60608315611296575081610eac565b8251156112a65782518084602001fd5b8160405160e560020a62461bcd02815260040161062891906115fa565b6000602082840312156112d557600080fd5b5035919050565b60e060020a634e487b7102600052604160045260246000fd5b60008060006060848603121561130a57600080fd5b83359250602084013567ffffffffffffffff8082111561132957600080fd5b818601915086601f83011261133d57600080fd5b81358181111561134f5761134f6112dc565b604051601f8201601f19908116603f01168101908382118183101715611377576113776112dc565b8160405282815289602084870101111561139057600080fd5b826020860160208301376000602084830101528096505050505050604084013590509250925092565b8035600160a060020a03811681146113d057600080fd5b919050565b6000602082840312156113e757600080fd5b610eac826113b9565b6000806040838503121561140357600080fd5b82359150611413602084016113b9565b90509250929050565b600080600080600060a0868803121561143457600080fd5b505083359560208501359550604085013594606081013594506080013592509050565b60008060006060848603121561146c57600080fd5b8335925061147c602085016113b9565b9150604084013590509250925092565b6000806040838503121561149f57600080fd5b6114a8836113b9565b946020939093013593505050565b6020808252818101527f4f776e61626c653a2063616c6c6572206973206e6f7420746865206f776e6572604082015260600190565b60e060020a634e487b7102600052603260045260246000fd5b60e060020a634e487b7102600052601160045260246000fd5b60008282101561152f5761152f611504565b500390565b600081600019048311821515161561154e5761154e611504565b500290565b6000826115735760e060020a634e487b7102600052601260045260246000fd5b500490565b6000821982111561158b5761158b611504565b500190565b6000602082840312156115a257600080fd5b81518015158114610eac57600080fd5b60005b838110156115cd5781810151838201526020016115b5565b83811115610f7c5750506000910152565b600082516115f08184602087016115b2565b9190910192915050565b60208152600082518060208401526116198160408501602087016115b2565b601f01601f1916919091016040019291505056fea26469706673582212208508c09368ea73ab9c3eb3c6507dd780a78f06e725e5c903a3083d44f07dd33964736f6c634300080a0033",
  "immutableReferences": {},
  "source": "// SPDX-License-Identifier: MIT\npragma solidity ^0.8.0;\n\nimport \"@openzeppelin/contracts/token/ERC20/utils/SafeERC20.sol\";\n\nimport \"@openzeppelin/contracts/utils/math/Math.sol\";\n\nimport \"@openzeppelin/contracts/utils/math/SafeMath.sol\";\n\nimport \"@openzeppelin/contracts/access/Ownable.sol\";\n\nimport \"@openzeppelin/contracts/security/ReentrancyGuard.sol\";\n\nimport \"../tokens/ZorroToken.sol\";\n\nimport \"@chainlink/contracts/src/v0.8/interfaces/AggregatorV3Interface.sol\";\n\n// TODO: General: For everywhere we call a swap, let's make sure to do safe approval beforehand\n\n/* Base Contract */\n\n/// @title ZorroControllerBase: The base controller with main state variables, data types, and functions\ncontract ZorroControllerBase is Ownable, ReentrancyGuard {\n    /* Libraries */\n    using SafeMath for uint256;\n    using SafeERC20 for IERC20;\n\n    /* Modifiers */\n    /// @notice Only allows functions to be executed where the sender matches the zorroPriceOracle address\n    modifier onlyAllowZorroControllerOracle() {\n        require(_msgSender() == zorroControllerOracle, \"only Zorro oracle\");\n        _;\n    }\n\n    /* Structs */\n\n    // Info of each tranche.\n    struct TrancheInfo {\n        uint256 contribution; // The tranche-specific contribution for a given pool (Cx). Equivalent to the product of their contributed deposit and a time multiplier\n        uint256 timeMultiplier; // The time multiplier factor for rewards\n        uint256 rewardDebt; // The tranche's share of the amount of rewards accumulated in the pool to date (see README)\n        uint256 durationCommittedInWeeks; // How many weeks the user committed to at the time of deposit for this tranche\n        uint256 enteredVaultAt; // The block timestamp for which the user deposited into a Vault.\n        uint256 exitedVaultAt; // The block timestamp for which the user finished withdrawal\n    }\n\n    // Info of each pool\n    struct PoolInfo {\n        IERC20 want; // Want token contract.\n        uint256 allocPoint; // How many allocation points assigned to this pool.\n        uint256 lastRewardBlock; // Last block number that ZORRO distribution occurs.\n        uint256 accZORRORewards; // Accumulated ZORRO rewards in this pool\n        uint256 totalTrancheContributions; // Sum of all user contributions in this pool\n        address vault; // Address of the Vault\n    }\n\n    /* Constants */\n\n    address public constant burnAddress = 0x000000000000000000000000000000000000dEaD;\n\n    /* State */\n\n    // Key tokens/addresses\n    address public ZORRO;\n    address public publicPool; // Only to be set on home chain\n    // Rewards\n    uint256 public startBlock;\n    uint256 public blocksPerDay; // Approximate, varies by chain\n    uint256 public ZORROPerBlock; // Calculated according to Tokenomics\n    uint256 public targetTVLCaptureBasisPoints; // 333 = 3.33% ONLY to be set on the home chain\n    uint256 public ZORRODailyDistributionFactorBasisPointsMin; // 1 = 0.01% ONLY for home chain\n    uint256 public ZORRODailyDistributionFactorBasisPointsMax ; // 20 = 0.20% ONLY for home chain\n    uint256 public chainMultiplier; // Proportional rewards to be sent to this chain\n    uint256 public baseRewardRateBasisPoints;\n    uint256 public totalAllocPoint; // Total allocation points (aka multiplier). Must be the sum of all allocation points in all pools.\n    // Stablecoins\n    address public defaultStablecoin; // Address of default stablecoin (i.e. USDC)\n    // Zorro Single Staking vault\n    address public zorroStakingVault; // The vault for ZOR stakers on the home chain.\n    // Cross-chain\n    uint256 public chainId; // The ID/index of the chain that this contract is on\n    uint256 public homeChainId; // The chain ID of the home chain\n    address public homeChainZorroController; // Address of the home chain ZorroController contract. For cross chain routing. \"address\" type because it's on the EVM\n    // Info of each pool\n    PoolInfo[] public poolInfo;\n    // List of active tranches that stakes Want tokens. Mapping: pool ID/index => user wallet address on-chain => list of tranches\n    mapping(uint256 => mapping(address => TrancheInfo[])) public trancheInfo;\n    // Map of account address on chain for a given foreign account and pool. Mapping: pool index => foreign chain wallet address => Mapping(tranche ID => local account address)\n    mapping(uint256 => mapping(bytes => mapping(uint256 => address))) public foreignTrancheInfo;\n    // Oracles\n    address public zorroControllerOracle;\n\n    /* Setters */\n    \n    function setStartBlock(uint256 _blockNumber) external onlyOwner {\n        startBlock = _blockNumber;\n    }\n\n    function setPublicPool(address _publicPoolAddress) external onlyOwner {\n        publicPool = _publicPoolAddress;\n    }\n\n    function setBaseRewardRateBasisPoints(uint256 _baseRewardRateBasisPoints)\n        external\n        onlyOwner\n    {\n        baseRewardRateBasisPoints = _baseRewardRateBasisPoints;\n    }\n\n    function setTargetTVLCaptureBasisPoints(\n        uint256 _targetTVLCaptureBasisPoints\n    ) external onlyOwner {\n        targetTVLCaptureBasisPoints = _targetTVLCaptureBasisPoints;\n    }\n\n    function setBlocksPerDay(uint256 _blocksPerDay) external onlyOwner {\n        blocksPerDay = _blocksPerDay;\n    }\n\n    function setZORRODailyDistributionFactorBasisPointsMin(uint256 _value)\n        external\n        onlyOwner\n    {\n        ZORRODailyDistributionFactorBasisPointsMin = _value;\n    }\n\n    function setZORRODailyDistributionFactorBasisPointsMax(uint256 _value)\n        external\n        onlyOwner\n    {\n        ZORRODailyDistributionFactorBasisPointsMax = _value;\n    }\n\n    function setDefaultStablecoin(address _defaultStablecoin)\n        external\n        onlyOwner\n    {\n        defaultStablecoin = _defaultStablecoin;\n    }\n\n    function setHomeChainZorroController(address _homeChainZorroController)\n        external\n        onlyOwner\n    {\n        require(_homeChainZorroController != address(0), \"cannot be 0 addr\");\n        homeChainZorroController = _homeChainZorroController;\n    }\n\n    function setZorroStakingVault(address _zorroStakingVault)\n        external\n        onlyOwner\n    {\n        zorroStakingVault = _zorroStakingVault;\n    }\n\n    function setChainId(uint256 _chainId) external onlyOwner {\n        chainId = _chainId;\n    }\n\n    function setZorroControllerOracle(address _zorroControllerOracle) external onlyOwner {\n        zorroControllerOracle = _zorroControllerOracle;\n    }\n\n    function setChainMultiplier(uint256 _chainMultiplier) external onlyOwner {\n        chainMultiplier = _chainMultiplier;\n    }\n\n    /* View functions */\n\n    /// @notice Number of pools in the Zorro protocol\n    /// @return Number of pools\n    function poolLength() public view returns (uint256) {\n        return poolInfo.length;\n    }\n\n    /// @notice Number of tranches invested by a given user into a given pool\n    /// @param _pid Index of pool\n    /// @param _user wallet address of user\n    /// @return Number of tranches\n    function trancheLength(uint256 _pid, address _user)\n        public\n        view\n        returns (uint256)\n    {\n        return trancheInfo[_pid][_user].length;\n    }\n\n    /* Zorro Rewards */\n\n    /// @notice Set the number of Zorro to emit per block based on current market parameters\n    /// @dev Values to be provided by Oracle. Perferable to run daily\n    /// @param _totalChainMultipliers Sum total of all chain multipliers for each chain\n    /// @param _totalMarketTVLUSD Total DeFi market TVL across all chains (measured in USD)\n    /// @param _targetTVLCaptureBasisPoints % desired capture of total market TVL, measured in basis points\n    /// @param _ZorroTotalVaultTVLUSD USD value of all TVL locked into the Zorro protocol, across all chains\n    /// @param _publicPoolZORBalance Number of ZOR tokens remaining in public pool on home chain\n    function setZorroPerBlock(\n        uint256 _totalChainMultipliers,\n        uint256 _totalMarketTVLUSD,\n        uint256 _targetTVLCaptureBasisPoints,\n        uint256 _ZorroTotalVaultTVLUSD,\n        uint256 _publicPoolZORBalance\n    ) external onlyAllowZorroControllerOracle {\n        // Use the Rm formula to determine the percentage of the remaining public pool Zorro tokens to transfer to this contract as rewards\n        uint256 ZORRODailyDistributionFactorBasisPoints = baseRewardRateBasisPoints\n                .mul(_totalMarketTVLUSD)\n                .mul(_targetTVLCaptureBasisPoints.div(10000))\n                .div(_ZorroTotalVaultTVLUSD);\n        // Rail distribution to min and max values\n        if (\n            ZORRODailyDistributionFactorBasisPoints >\n            ZORRODailyDistributionFactorBasisPointsMax\n        ) {\n            ZORRODailyDistributionFactorBasisPoints = ZORRODailyDistributionFactorBasisPointsMax;\n        } else if (\n            ZORRODailyDistributionFactorBasisPoints <\n            ZORRODailyDistributionFactorBasisPointsMin\n        ) {\n            ZORRODailyDistributionFactorBasisPoints = ZORRODailyDistributionFactorBasisPointsMin;\n        }\n        // Multiply the factor above to determine the total Zorro tokens to distribute to this contract on a DAILY basis\n        uint256 publicPoolDailyZORRODistribution = _publicPoolZORBalance\n                .mul(ZORRODailyDistributionFactorBasisPoints)\n                .div(10000);\n        // Determine the share of daily distribution for this chain\n        uint256 chainDailyDist = chainMultiplier.mul(publicPoolDailyZORRODistribution).div(_totalChainMultipliers);\n        // Convert this to a BLOCK basis and assign to ZORROPerBlock\n        ZORROPerBlock = chainDailyDist.div(blocksPerDay);\n    }\n\n    /* Pool Management */\n\n    /// @notice Update reward variables of the given pool to be up-to-date.\n    /// @param _pid index of pool\n    /// @return uint256 Amount of ZOR rewards minted (useful for cross chain)\n    function updatePool(uint256 _pid) public returns (uint256) {\n        // Get the pool matching the given index\n        PoolInfo storage pool = poolInfo[_pid];\n\n        // If current block is <= last reward block, exit\n        if (block.number <= pool.lastRewardBlock) {\n            return 0;\n        }\n\n        // Determine how many blocks have elapsed since the last updatePool() operation for this pool\n        uint256 elapsedBlocks = block.number.sub(pool.lastRewardBlock);\n        // If no elapsed blocks have occured, exit\n        if (elapsedBlocks <= 0) {\n            return 0;\n        }\n\n        // Finally, multiply rewards/block by the number of elapsed blocks and the pool weighting\n        uint256 ZORROReward = elapsedBlocks\n            .mul(ZORROPerBlock)\n            .mul(pool.allocPoint)\n            .div(totalAllocPoint);\n\n        // Check whether this function requires cross chain activity or not\n        if (address(this) == homeChainZorroController) {\n            // On Home chain. NO cross chain pool updates required\n\n            // Transfer Zorro rewards to this contract from the Public Pool\n            IERC20(ZORRO).safeTransferFrom(\n                publicPool,\n                address(this),\n                ZORROReward\n            );\n            // Increment this pool's accumulated Zorro per share value by the reward amount\n            pool.accZORRORewards = pool.accZORRORewards.add(ZORROReward);\n            // Update the pool's last reward block to the current block\n            pool.lastRewardBlock = block.number;\n            // Return 0, no ZOR minted because we're on chain\n            return 0;\n        } else {\n            // On remote chain. Cross chain pool updates required\n\n            // Mint Zorro on this (remote) chain\n            Zorro(ZORRO).mint(address(this), ZORROReward);\n            // Return ZOR minted\n            return ZORROReward;\n        }\n    }\n\n    /* Safety functions */\n\n    /// @notice Safe ZORRO transfer function, just in case if rounding error causes pool to not have enough\n    /// @param _to destination for funds\n    /// @param _ZORROAmt quantity of Zorro tokens to send\n    function _safeZORROTransfer(address _to, uint256 _ZORROAmt) internal {\n        uint256 _xferAmt = _ZORROAmt;\n        uint256 ZORROBal = IERC20(ZORRO).balanceOf(address(this));\n        if (_ZORROAmt > ZORROBal) {\n            _xferAmt = ZORROBal;\n        }\n        IERC20(ZORRO).safeTransfer(_to, _xferAmt);\n    }\n\n    /// @notice For owner to recover ERC20 tokens on this contract if stuck\n    /// @dev Does not permit usage for the Zorro token\n    /// @param _token ERC20 token address\n    /// @param _amount token quantity\n    function inCaseTokensGetStuck(address _token, uint256 _amount)\n        public\n        onlyOwner\n    {\n        require(\n            _token != ZORRO,\n            \"!safe to use Zorro token in func inCaseTokensGetStuck\"\n        );\n        IERC20(_token).safeTransfer(msg.sender, _amount);\n    }\n}\n",
  "sourcePath": "/Users/kristophm/Documents/workspace/zorro-protocol/contracts/controllers/_ZorroControllerBase.sol",
  "compiler": {
    "name": "solc",
    "version": "0.8.10+commit.fc410830.Emscripten.clang"
  },
  "schemaVersion": "3.4.4",
  "updatedAt": "2022-04-05T17:56:54.239Z",
  "devdoc": {
    "kind": "dev",
    "methods": {
      "inCaseTokensGetStuck(address,uint256)": {
        "details": "Does not permit usage for the Zorro token",
        "params": {
          "_amount": "token quantity",
          "_token": "ERC20 token address"
        }
      },
      "owner()": {
        "details": "Returns the address of the current owner."
      },
      "poolLength()": {
        "returns": {
          "_0": "Number of pools"
        }
      },
      "renounceOwnership()": {
        "details": "Leaves the contract without owner. It will not be possible to call `onlyOwner` functions anymore. Can only be called by the current owner. NOTE: Renouncing ownership will leave the contract without an owner, thereby removing any functionality that is only available to the owner."
      },
      "setZorroPerBlock(uint256,uint256,uint256,uint256,uint256)": {
        "details": "Values to be provided by Oracle. Perferable to run daily",
        "params": {
          "_ZorroTotalVaultTVLUSD": "USD value of all TVL locked into the Zorro protocol, across all chains",
          "_publicPoolZORBalance": "Number of ZOR tokens remaining in public pool on home chain",
          "_targetTVLCaptureBasisPoints": "% desired capture of total market TVL, measured in basis points",
          "_totalChainMultipliers": "Sum total of all chain multipliers for each chain",
          "_totalMarketTVLUSD": "Total DeFi market TVL across all chains (measured in USD)"
        }
      },
      "trancheLength(uint256,address)": {
        "params": {
          "_pid": "Index of pool",
          "_user": "wallet address of user"
        },
        "returns": {
          "_0": "Number of tranches"
        }
      },
      "transferOwnership(address)": {
        "details": "Transfers ownership of the contract to a new account (`newOwner`). Can only be called by the current owner."
      },
      "updatePool(uint256)": {
        "params": {
          "_pid": "index of pool"
        },
        "returns": {
          "_0": "uint256 Amount of ZOR rewards minted (useful for cross chain)"
        }
      }
    },
    "title": "ZorroControllerBase: The base controller with main state variables, data types, and functions",
    "version": 1
  },
  "userdoc": {
    "kind": "user",
    "methods": {
      "inCaseTokensGetStuck(address,uint256)": {
        "notice": "For owner to recover ERC20 tokens on this contract if stuck"
      },
      "poolLength()": {
        "notice": "Number of pools in the Zorro protocol"
      },
      "setZorroPerBlock(uint256,uint256,uint256,uint256,uint256)": {
        "notice": "Set the number of Zorro to emit per block based on current market parameters"
      },
      "trancheLength(uint256,address)": {
        "notice": "Number of tranches invested by a given user into a given pool"
      },
      "updatePool(uint256)": {
        "notice": "Update reward variables of the given pool to be up-to-date."
      }
    },
    "version": 1
  }
}