{
  "contractName": "ZorroControllerXChainWithdraw",
  "abi": [
    {
      "anonymous": false,
      "inputs": [
        {
          "indexed": true,
          "internalType": "address",
          "name": "account",
          "type": "address"
        },
        {
          "indexed": true,
          "internalType": "bytes",
          "name": "foreignAccount",
          "type": "bytes"
        },
        {
          "indexed": true,
          "internalType": "uint256",
          "name": "pid",
          "type": "uint256"
        },
        {
          "indexed": false,
          "internalType": "uint256",
          "name": "wantAmount",
          "type": "uint256"
        }
      ],
      "name": "Deposit",
      "type": "event"
    },
    {
      "anonymous": false,
      "inputs": [
        {
          "indexed": true,
          "internalType": "address",
          "name": "previousOwner",
          "type": "address"
        },
        {
          "indexed": true,
          "internalType": "address",
          "name": "newOwner",
          "type": "address"
        }
      ],
      "name": "OwnershipTransferred",
      "type": "event"
    },
    {
      "anonymous": false,
      "inputs": [
        {
          "indexed": false,
          "internalType": "address",
          "name": "account",
          "type": "address"
        },
        {
          "indexed": true,
          "internalType": "uint256",
          "name": "fromPid",
          "type": "uint256"
        },
        {
          "indexed": true,
          "internalType": "uint256",
          "name": "fromTrancheId",
          "type": "uint256"
        },
        {
          "indexed": true,
          "internalType": "uint256",
          "name": "toPid",
          "type": "uint256"
        }
      ],
      "name": "TransferInvestment",
      "type": "event"
    },
    {
      "anonymous": false,
      "inputs": [
        {
          "indexed": true,
          "internalType": "address",
          "name": "account",
          "type": "address"
        },
        {
          "indexed": true,
          "internalType": "bytes",
          "name": "foreignAccount",
          "type": "bytes"
        },
        {
          "indexed": true,
          "internalType": "uint256",
          "name": "pid",
          "type": "uint256"
        },
        {
          "indexed": false,
          "internalType": "uint256",
          "name": "trancheId",
          "type": "uint256"
        },
        {
          "indexed": false,
          "internalType": "uint256",
          "name": "wantAmount",
          "type": "uint256"
        }
      ],
      "name": "Withdraw",
      "type": "event"
    },
    {
      "anonymous": false,
      "inputs": [
        {
          "indexed": true,
          "internalType": "uint256",
          "name": "_pid",
          "type": "uint256"
        },
        {
          "indexed": true,
          "internalType": "address",
          "name": "_originRecipient",
          "type": "address"
        },
        {
          "indexed": true,
          "internalType": "uint256",
          "name": "_burnableZORRewards",
          "type": "uint256"
        },
        {
          "indexed": false,
          "internalType": "uint256",
          "name": "_trancheId",
          "type": "uint256"
        },
        {
          "indexed": false,
          "internalType": "uint256",
          "name": "_originChainId",
          "type": "uint256"
        }
      ],
      "name": "XChainRepatriation",
      "type": "event"
    },
    {
      "inputs": [
        {
          "internalType": "uint16",
          "name": "",
          "type": "uint16"
        }
      ],
      "name": "LZChainToZorroMap",
      "outputs": [
        {
          "internalType": "uint256",
          "name": "",
          "type": "uint256"
        }
      ],
      "stateMutability": "view",
      "type": "function"
    },
    {
      "inputs": [
        {
          "internalType": "uint256",
          "name": "",
          "type": "uint256"
        }
      ],
      "name": "USDCToZorroLPPoolOtherTokenPath",
      "outputs": [
        {
          "internalType": "address",
          "name": "",
          "type": "address"
        }
      ],
      "stateMutability": "view",
      "type": "function"
    },
    {
      "inputs": [
        {
          "internalType": "uint256",
          "name": "",
          "type": "uint256"
        }
      ],
      "name": "USDCToZorroPath",
      "outputs": [
        {
          "internalType": "address",
          "name": "",
          "type": "address"
        }
      ],
      "stateMutability": "view",
      "type": "function"
    },
    {
      "inputs": [],
      "name": "ZORRO",
      "outputs": [
        {
          "internalType": "address",
          "name": "",
          "type": "address"
        }
      ],
      "stateMutability": "view",
      "type": "function"
    },
    {
      "inputs": [],
      "name": "ZORRODailyDistributionFactorBasisPointsMax",
      "outputs": [
        {
          "internalType": "uint256",
          "name": "",
          "type": "uint256"
        }
      ],
      "stateMutability": "view",
      "type": "function"
    },
    {
      "inputs": [],
      "name": "ZORRODailyDistributionFactorBasisPointsMin",
      "outputs": [
        {
          "internalType": "uint256",
          "name": "",
          "type": "uint256"
        }
      ],
      "stateMutability": "view",
      "type": "function"
    },
    {
      "inputs": [],
      "name": "ZORROPerBlock",
      "outputs": [
        {
          "internalType": "uint256",
          "name": "",
          "type": "uint256"
        }
      ],
      "stateMutability": "view",
      "type": "function"
    },
    {
      "inputs": [
        {
          "internalType": "uint256",
          "name": "",
          "type": "uint256"
        }
      ],
      "name": "ZorroChainToLZMap",
      "outputs": [
        {
          "internalType": "uint16",
          "name": "",
          "type": "uint16"
        }
      ],
      "stateMutability": "view",
      "type": "function"
    },
    {
      "inputs": [],
      "name": "baseRewardRateBasisPoints",
      "outputs": [
        {
          "internalType": "uint256",
          "name": "",
          "type": "uint256"
        }
      ],
      "stateMutability": "view",
      "type": "function"
    },
    {
      "inputs": [],
      "name": "blocksPerDay",
      "outputs": [
        {
          "internalType": "uint256",
          "name": "",
          "type": "uint256"
        }
      ],
      "stateMutability": "view",
      "type": "function"
    },
    {
      "inputs": [],
      "name": "burnAddress",
      "outputs": [
        {
          "internalType": "address",
          "name": "",
          "type": "address"
        }
      ],
      "stateMutability": "view",
      "type": "function"
    },
    {
      "inputs": [],
      "name": "chainId",
      "outputs": [
        {
          "internalType": "uint256",
          "name": "",
          "type": "uint256"
        }
      ],
      "stateMutability": "view",
      "type": "function"
    },
    {
      "inputs": [],
      "name": "chainMultiplier",
      "outputs": [
        {
          "internalType": "uint256",
          "name": "",
          "type": "uint256"
        }
      ],
      "stateMutability": "view",
      "type": "function"
    },
    {
      "inputs": [
        {
          "internalType": "uint256",
          "name": "",
          "type": "uint256"
        }
      ],
      "name": "controllerContractsMap",
      "outputs": [
        {
          "internalType": "bytes",
          "name": "",
          "type": "bytes"
        }
      ],
      "stateMutability": "view",
      "type": "function"
    },
    {
      "inputs": [],
      "name": "defaultStablecoin",
      "outputs": [
        {
          "internalType": "address",
          "name": "",
          "type": "address"
        }
      ],
      "stateMutability": "view",
      "type": "function"
    },
    {
      "inputs": [
        {
          "internalType": "uint256",
          "name": "_pid",
          "type": "uint256"
        },
        {
          "internalType": "uint256",
          "name": "_wantAmt",
          "type": "uint256"
        },
        {
          "internalType": "uint256",
          "name": "_weeksCommitted",
          "type": "uint256"
        }
      ],
      "name": "deposit",
      "outputs": [],
      "stateMutability": "nonpayable",
      "type": "function"
    },
    {
      "inputs": [
        {
          "internalType": "uint256",
          "name": "_pid",
          "type": "uint256"
        },
        {
          "internalType": "uint256",
          "name": "_valueUSDC",
          "type": "uint256"
        },
        {
          "internalType": "uint256",
          "name": "_weeksCommitted",
          "type": "uint256"
        },
        {
          "internalType": "uint256",
          "name": "_maxMarketMovement",
          "type": "uint256"
        }
      ],
      "name": "depositFullService",
      "outputs": [],
      "stateMutability": "nonpayable",
      "type": "function"
    },
    {
      "inputs": [
        {
          "internalType": "uint256",
          "name": "",
          "type": "uint256"
        },
        {
          "internalType": "bytes",
          "name": "",
          "type": "bytes"
        },
        {
          "internalType": "uint256",
          "name": "",
          "type": "uint256"
        }
      ],
      "name": "foreignTrancheInfo",
      "outputs": [
        {
          "internalType": "address",
          "name": "",
          "type": "address"
        }
      ],
      "stateMutability": "view",
      "type": "function"
    },
    {
      "inputs": [
        {
          "internalType": "uint256",
          "name": "durationInWeeks",
          "type": "uint256"
        }
      ],
      "name": "getTimeMultiplier",
      "outputs": [
        {
          "internalType": "uint256",
          "name": "",
          "type": "uint256"
        }
      ],
      "stateMutability": "view",
      "type": "function"
    },
    {
      "inputs": [
        {
          "internalType": "uint256",
          "name": "_liquidityCommitted",
          "type": "uint256"
        },
        {
          "internalType": "uint256",
          "name": "_timeMultiplier",
          "type": "uint256"
        }
      ],
      "name": "getUserContribution",
      "outputs": [
        {
          "internalType": "uint256",
          "name": "",
          "type": "uint256"
        }
      ],
      "stateMutability": "pure",
      "type": "function"
    },
    {
      "inputs": [],
      "name": "homeChainId",
      "outputs": [
        {
          "internalType": "uint256",
          "name": "",
          "type": "uint256"
        }
      ],
      "stateMutability": "view",
      "type": "function"
    },
    {
      "inputs": [],
      "name": "homeChainZorroController",
      "outputs": [
        {
          "internalType": "address",
          "name": "",
          "type": "address"
        }
      ],
      "stateMutability": "view",
      "type": "function"
    },
    {
      "inputs": [
        {
          "internalType": "address",
          "name": "_token",
          "type": "address"
        },
        {
          "internalType": "uint256",
          "name": "_amount",
          "type": "uint256"
        }
      ],
      "name": "inCaseTokensGetStuck",
      "outputs": [],
      "stateMutability": "nonpayable",
      "type": "function"
    },
    {
      "inputs": [],
      "name": "isTimeMultiplierActive",
      "outputs": [
        {
          "internalType": "bool",
          "name": "",
          "type": "bool"
        }
      ],
      "stateMutability": "view",
      "type": "function"
    },
    {
      "inputs": [],
      "name": "layerZeroEndpoint",
      "outputs": [
        {
          "internalType": "address",
          "name": "",
          "type": "address"
        }
      ],
      "stateMutability": "view",
      "type": "function"
    },
    {
      "inputs": [],
      "name": "owner",
      "outputs": [
        {
          "internalType": "address",
          "name": "",
          "type": "address"
        }
      ],
      "stateMutability": "view",
      "type": "function"
    },
    {
      "inputs": [
        {
          "internalType": "uint256",
          "name": "",
          "type": "uint256"
        }
      ],
      "name": "poolInfo",
      "outputs": [
        {
          "internalType": "contract IERC20",
          "name": "want",
          "type": "address"
        },
        {
          "internalType": "uint256",
          "name": "allocPoint",
          "type": "uint256"
        },
        {
          "internalType": "uint256",
          "name": "lastRewardBlock",
          "type": "uint256"
        },
        {
          "internalType": "uint256",
          "name": "accZORRORewards",
          "type": "uint256"
        },
        {
          "internalType": "uint256",
          "name": "totalTrancheContributions",
          "type": "uint256"
        },
        {
          "internalType": "address",
          "name": "vault",
          "type": "address"
        }
      ],
      "stateMutability": "view",
      "type": "function"
    },
    {
      "inputs": [],
      "name": "poolLength",
      "outputs": [
        {
          "internalType": "uint256",
          "name": "",
          "type": "uint256"
        }
      ],
      "stateMutability": "view",
      "type": "function"
    },
    {
      "inputs": [],
      "name": "priceFeedLPPoolOtherToken",
      "outputs": [
        {
          "internalType": "contract AggregatorV3Interface",
          "name": "",
          "type": "address"
        }
      ],
      "stateMutability": "view",
      "type": "function"
    },
    {
      "inputs": [],
      "name": "priceFeedZOR",
      "outputs": [
        {
          "internalType": "contract AggregatorV3Interface",
          "name": "",
          "type": "address"
        }
      ],
      "stateMutability": "view",
      "type": "function"
    },
    {
      "inputs": [],
      "name": "publicPool",
      "outputs": [
        {
          "internalType": "address",
          "name": "",
          "type": "address"
        }
      ],
      "stateMutability": "view",
      "type": "function"
    },
    {
      "inputs": [],
      "name": "renounceOwnership",
      "outputs": [],
      "stateMutability": "nonpayable",
      "type": "function"
    },
    {
      "inputs": [
        {
          "internalType": "uint256",
          "name": "_zorroChainId",
          "type": "uint256"
        },
        {
          "internalType": "bytes",
          "name": "_controller",
          "type": "bytes"
        }
      ],
      "name": "setControllerContract",
      "outputs": [],
      "stateMutability": "nonpayable",
      "type": "function"
    },
    {
      "inputs": [
        {
          "internalType": "bool",
          "name": "_isActive",
          "type": "bool"
        }
      ],
      "name": "setIsTimeMultiplierActive",
      "outputs": [],
      "stateMutability": "nonpayable",
      "type": "function"
    },
    {
      "inputs": [
        {
          "internalType": "address",
          "name": "_ZORRO",
          "type": "address"
        },
        {
          "internalType": "address",
          "name": "_defaultStablecoin",
          "type": "address"
        }
      ],
      "name": "setKeyAddresses",
      "outputs": [],
      "stateMutability": "nonpayable",
      "type": "function"
    },
    {
      "inputs": [
        {
          "internalType": "address",
          "name": "_stargateRouter",
          "type": "address"
        },
        {
          "internalType": "uint256",
          "name": "_stargateSwapPoolId",
          "type": "uint256"
        },
        {
          "internalType": "address",
          "name": "_layerZeroEndpoint",
          "type": "address"
        }
      ],
      "name": "setLayerZeroParams",
      "outputs": [],
      "stateMutability": "nonpayable",
      "type": "function"
    },
    {
      "inputs": [
        {
          "internalType": "address",
          "name": "_priceFeedZOR",
          "type": "address"
        },
        {
          "internalType": "address",
          "name": "_priceFeedLPPoolOtherToken",
          "type": "address"
        }
      ],
      "name": "setPriceFeeds",
      "outputs": [],
      "stateMutability": "nonpayable",
      "type": "function"
    },
    {
      "inputs": [
        {
          "internalType": "uint256[]",
          "name": "_blockParams",
          "type": "uint256[]"
        },
        {
          "internalType": "uint256[]",
          "name": "_dailyDistFactors",
          "type": "uint256[]"
        },
        {
          "internalType": "uint256",
          "name": "_chainMultiplier",
          "type": "uint256"
        },
        {
          "internalType": "uint256",
          "name": "_baseRewardRateBasisPoints",
          "type": "uint256"
        }
      ],
      "name": "setRewardsParams",
      "outputs": [],
      "stateMutability": "nonpayable",
      "type": "function"
    },
    {
      "inputs": [
        {
          "internalType": "uint256",
          "name": "_zorroChainId",
          "type": "uint256"
        },
        {
          "internalType": "uint16",
          "name": "_stargatePoolId",
          "type": "uint16"
        }
      ],
      "name": "setStargateDestPoolIds",
      "outputs": [],
      "stateMutability": "nonpayable",
      "type": "function"
    },
    {
      "inputs": [
        {
          "internalType": "uint256",
          "name": "_startBlock",
          "type": "uint256"
        }
      ],
      "name": "setStartBlock",
      "outputs": [],
      "stateMutability": "nonpayable",
      "type": "function"
    },
    {
      "inputs": [
        {
          "internalType": "uint256",
          "name": "_targetTVLCaptureBasisPoints",
          "type": "uint256"
        }
      ],
      "name": "setTargetTVLCaptureBasisPoints",
      "outputs": [],
      "stateMutability": "nonpayable",
      "type": "function"
    },
    {
      "inputs": [
        {
          "internalType": "address[]",
          "name": "_path",
          "type": "address[]"
        }
      ],
      "name": "setUSDCToZORPath",
      "outputs": [],
      "stateMutability": "nonpayable",
      "type": "function"
    },
    {
      "inputs": [
        {
          "internalType": "address[]",
          "name": "_path",
          "type": "address[]"
        }
      ],
      "name": "setUSDCToZorroLPPoolOtherTokenPath",
      "outputs": [],
      "stateMutability": "nonpayable",
      "type": "function"
    },
    {
      "inputs": [
        {
          "internalType": "address",
          "name": "_uniV2Router",
          "type": "address"
        }
      ],
      "name": "setUniRouter",
      "outputs": [],
      "stateMutability": "nonpayable",
      "type": "function"
    },
    {
      "inputs": [
        {
          "internalType": "uint256",
          "name": "_chainId",
          "type": "uint256"
        },
        {
          "internalType": "uint256",
          "name": "_homeChainId",
          "type": "uint256"
        },
        {
          "internalType": "address",
          "name": "_homeChainZorroController",
          "type": "address"
        }
      ],
      "name": "setXChainParams",
      "outputs": [],
      "stateMutability": "nonpayable",
      "type": "function"
    },
    {
      "inputs": [
        {
          "internalType": "uint256",
          "name": "_zorroChainId",
          "type": "uint256"
        },
        {
          "internalType": "uint16",
          "name": "_lzChainId",
          "type": "uint16"
        }
      ],
      "name": "setZorroChainToLZMap",
      "outputs": [],
      "stateMutability": "nonpayable",
      "type": "function"
    },
    {
      "inputs": [
        {
          "internalType": "address",
          "name": "_publicPool",
          "type": "address"
        },
        {
          "internalType": "address",
          "name": "_zorroStakingVault",
          "type": "address"
        }
      ],
      "name": "setZorroContracts",
      "outputs": [],
      "stateMutability": "nonpayable",
      "type": "function"
    },
    {
      "inputs": [
        {
          "internalType": "address",
          "name": "_zorroControllerOracle",
          "type": "address"
        }
      ],
      "name": "setZorroControllerOracle",
      "outputs": [],
      "stateMutability": "nonpayable",
      "type": "function"
    },
    {
      "inputs": [
        {
          "internalType": "address",
          "name": "_zorroLPPool",
          "type": "address"
        },
        {
          "internalType": "address",
          "name": "_zorroLPPoolOtherToken",
          "type": "address"
        }
      ],
      "name": "setZorroLPPoolParams",
      "outputs": [],
      "stateMutability": "nonpayable",
      "type": "function"
    },
    {
      "inputs": [
        {
          "internalType": "uint256",
          "name": "_totalChainMultipliers",
          "type": "uint256"
        },
        {
          "internalType": "uint256",
          "name": "_totalMarketTVLUSD",
          "type": "uint256"
        },
        {
          "internalType": "uint256",
          "name": "_targetTVLCaptureBasisPoints",
          "type": "uint256"
        },
        {
          "internalType": "uint256",
          "name": "_ZorroTotalVaultTVLUSD",
          "type": "uint256"
        },
        {
          "internalType": "uint256",
          "name": "_publicPoolZORBalance",
          "type": "uint256"
        }
      ],
      "name": "setZorroPerBlock",
      "outputs": [],
      "stateMutability": "nonpayable",
      "type": "function"
    },
    {
      "inputs": [
        {
          "internalType": "uint256",
          "name": "",
          "type": "uint256"
        }
      ],
      "name": "stargateDestPoolIds",
      "outputs": [
        {
          "internalType": "uint256",
          "name": "",
          "type": "uint256"
        }
      ],
      "stateMutability": "view",
      "type": "function"
    },
    {
      "inputs": [],
      "name": "stargateRouter",
      "outputs": [
        {
          "internalType": "address",
          "name": "",
          "type": "address"
        }
      ],
      "stateMutability": "view",
      "type": "function"
    },
    {
      "inputs": [],
      "name": "stargateSwapPoolId",
      "outputs": [
        {
          "internalType": "uint256",
          "name": "",
          "type": "uint256"
        }
      ],
      "stateMutability": "view",
      "type": "function"
    },
    {
      "inputs": [],
      "name": "startBlock",
      "outputs": [
        {
          "internalType": "uint256",
          "name": "",
          "type": "uint256"
        }
      ],
      "stateMutability": "view",
      "type": "function"
    },
    {
      "inputs": [],
      "name": "targetTVLCaptureBasisPoints",
      "outputs": [
        {
          "internalType": "uint256",
          "name": "",
          "type": "uint256"
        }
      ],
      "stateMutability": "view",
      "type": "function"
    },
    {
      "inputs": [],
      "name": "tokenUSDC",
      "outputs": [
        {
          "internalType": "address",
          "name": "",
          "type": "address"
        }
      ],
      "stateMutability": "view",
      "type": "function"
    },
    {
      "inputs": [],
      "name": "totalAllocPoint",
      "outputs": [
        {
          "internalType": "uint256",
          "name": "",
          "type": "uint256"
        }
      ],
      "stateMutability": "view",
      "type": "function"
    },
    {
      "inputs": [
        {
          "internalType": "uint256",
          "name": "",
          "type": "uint256"
        },
        {
          "internalType": "address",
          "name": "",
          "type": "address"
        },
        {
          "internalType": "uint256",
          "name": "",
          "type": "uint256"
        }
      ],
      "name": "trancheInfo",
      "outputs": [
        {
          "internalType": "uint256",
          "name": "contribution",
          "type": "uint256"
        },
        {
          "internalType": "uint256",
          "name": "timeMultiplier",
          "type": "uint256"
        },
        {
          "internalType": "uint256",
          "name": "rewardDebt",
          "type": "uint256"
        },
        {
          "internalType": "uint256",
          "name": "durationCommittedInWeeks",
          "type": "uint256"
        },
        {
          "internalType": "uint256",
          "name": "enteredVaultAt",
          "type": "uint256"
        },
        {
          "internalType": "uint256",
          "name": "exitedVaultAt",
          "type": "uint256"
        }
      ],
      "stateMutability": "view",
      "type": "function"
    },
    {
      "inputs": [
        {
          "internalType": "uint256",
          "name": "_pid",
          "type": "uint256"
        },
        {
          "internalType": "address",
          "name": "_user",
          "type": "address"
        }
      ],
      "name": "trancheLength",
      "outputs": [
        {
          "internalType": "uint256",
          "name": "",
          "type": "uint256"
        }
      ],
      "stateMutability": "view",
      "type": "function"
    },
    {
      "inputs": [
        {
          "internalType": "uint256",
          "name": "_fromPid",
          "type": "uint256"
        },
        {
          "internalType": "uint256",
          "name": "_fromTrancheId",
          "type": "uint256"
        },
        {
          "internalType": "uint256",
          "name": "_toPid",
          "type": "uint256"
        },
        {
          "internalType": "uint256",
          "name": "_maxMarketMovement",
          "type": "uint256"
        }
      ],
      "name": "transferInvestment",
      "outputs": [],
      "stateMutability": "nonpayable",
      "type": "function"
    },
    {
      "inputs": [
        {
          "internalType": "address",
          "name": "newOwner",
          "type": "address"
        }
      ],
      "name": "transferOwnership",
      "outputs": [],
      "stateMutability": "nonpayable",
      "type": "function"
    },
    {
      "inputs": [],
      "name": "uniRouterAddress",
      "outputs": [
        {
          "internalType": "address",
          "name": "",
          "type": "address"
        }
      ],
      "stateMutability": "view",
      "type": "function"
    },
    {
      "inputs": [
        {
          "internalType": "uint256",
          "name": "_pid",
          "type": "uint256"
        }
      ],
      "name": "updatePool",
      "outputs": [
        {
          "internalType": "uint256",
          "name": "",
          "type": "uint256"
        }
      ],
      "stateMutability": "nonpayable",
      "type": "function"
    },
    {
      "inputs": [
        {
          "internalType": "uint256",
          "name": "_pid",
          "type": "uint256"
        },
        {
          "internalType": "uint256",
          "name": "_trancheId",
          "type": "uint256"
        },
        {
          "internalType": "bool",
          "name": "_harvestOnly",
          "type": "bool"
        }
      ],
      "name": "withdraw",
      "outputs": [
        {
          "internalType": "uint256",
          "name": "",
          "type": "uint256"
        }
      ],
      "stateMutability": "nonpayable",
      "type": "function"
    },
    {
      "inputs": [
        {
          "internalType": "uint256",
          "name": "_pid",
          "type": "uint256"
        }
      ],
      "name": "withdrawAll",
      "outputs": [],
      "stateMutability": "nonpayable",
      "type": "function"
    },
    {
      "inputs": [
        {
          "internalType": "uint256",
          "name": "_pid",
          "type": "uint256"
        },
        {
          "internalType": "uint256",
          "name": "_trancheId",
          "type": "uint256"
        },
        {
          "internalType": "bool",
          "name": "_harvestOnly",
          "type": "bool"
        },
        {
          "internalType": "uint256",
          "name": "_maxMarketMovement",
          "type": "uint256"
        }
      ],
      "name": "withdrawalFullService",
      "outputs": [
        {
          "internalType": "uint256",
          "name": "",
          "type": "uint256"
        }
      ],
      "stateMutability": "nonpayable",
      "type": "function"
    },
    {
      "inputs": [],
      "name": "zorroControllerOracle",
      "outputs": [
        {
          "internalType": "address",
          "name": "",
          "type": "address"
        }
      ],
      "stateMutability": "view",
      "type": "function"
    },
    {
      "inputs": [],
      "name": "zorroLPPool",
      "outputs": [
        {
          "internalType": "address",
          "name": "",
          "type": "address"
        }
      ],
      "stateMutability": "view",
      "type": "function"
    },
    {
      "inputs": [],
      "name": "zorroLPPoolOtherToken",
      "outputs": [
        {
          "internalType": "address",
          "name": "",
          "type": "address"
        }
      ],
      "stateMutability": "view",
      "type": "function"
    },
    {
      "inputs": [],
      "name": "zorroStakingVault",
      "outputs": [
        {
          "internalType": "address",
          "name": "",
          "type": "address"
        }
      ],
      "stateMutability": "view",
      "type": "function"
    },
    {
      "inputs": [
        {
          "internalType": "uint256",
          "name": "_zorroChainId",
          "type": "uint256"
        },
        {
          "internalType": "uint256",
          "name": "_pid",
          "type": "uint256"
        },
        {
          "internalType": "uint256",
          "name": "_trancheId",
          "type": "uint256"
        },
        {
          "internalType": "uint256",
          "name": "_maxMarketMovement",
          "type": "uint256"
        },
        {
          "internalType": "uint256",
          "name": "_gasForDestinationLZReceive",
          "type": "uint256"
        }
      ],
      "name": "checkXChainWithdrawalFee",
      "outputs": [
        {
          "internalType": "uint256",
          "name": "",
          "type": "uint256"
        }
      ],
      "stateMutability": "view",
      "type": "function"
    },
    {
      "inputs": [
        {
          "internalType": "uint256",
          "name": "_originChainId",
          "type": "uint256"
        },
        {
          "internalType": "uint256",
          "name": "_pid",
          "type": "uint256"
        },
        {
          "internalType": "uint256",
          "name": "_trancheId",
          "type": "uint256"
        },
        {
          "internalType": "bytes",
          "name": "_originRecipient",
          "type": "bytes"
        },
        {
          "internalType": "uint256",
          "name": "_burnableZORRewards",
          "type": "uint256"
        },
        {
          "internalType": "uint256",
          "name": "_rewardsDue",
          "type": "uint256"
        },
        {
          "internalType": "uint256",
          "name": "_gasForDestinationLZReceive",
          "type": "uint256"
        }
      ],
      "name": "checkXChainRepatriationFee",
      "outputs": [
        {
          "internalType": "uint256",
          "name": "",
          "type": "uint256"
        }
      ],
      "stateMutability": "view",
      "type": "function"
    },
    {
      "inputs": [
        {
          "internalType": "uint256",
          "name": "_destZorroChainId",
          "type": "uint256"
        },
        {
          "internalType": "uint256",
          "name": "_pid",
          "type": "uint256"
        },
        {
          "internalType": "uint256",
          "name": "_trancheId",
          "type": "uint256"
        },
        {
          "internalType": "uint256",
          "name": "_maxMarketMovement",
          "type": "uint256"
        },
        {
          "internalType": "uint256",
          "name": "_gasForDestinationLZReceive",
          "type": "uint256"
        }
      ],
      "name": "sendXChainWithdrawalRequest",
      "outputs": [],
      "stateMutability": "payable",
      "type": "function"
    },
    {
      "inputs": [
        {
          "internalType": "uint256",
          "name": "_originChainId",
          "type": "uint256"
        },
        {
          "internalType": "bytes",
          "name": "_originAccount",
          "type": "bytes"
        },
        {
          "internalType": "uint256",
          "name": "_pid",
          "type": "uint256"
        },
        {
          "internalType": "uint256",
          "name": "_trancheId",
          "type": "uint256"
        },
        {
          "internalType": "uint256",
          "name": "_maxMarketMovement",
          "type": "uint256"
        }
      ],
      "name": "receiveXChainWithdrawalRequest",
      "outputs": [],
      "stateMutability": "nonpayable",
      "type": "function"
    },
    {
      "inputs": [
        {
          "internalType": "uint256",
          "name": "_originChainId",
          "type": "uint256"
        },
        {
          "internalType": "uint256",
          "name": "_pid",
          "type": "uint256"
        },
        {
          "internalType": "uint256",
          "name": "_trancheId",
          "type": "uint256"
        },
        {
          "internalType": "bytes",
          "name": "_originRecipient",
          "type": "bytes"
        },
        {
          "internalType": "uint256",
          "name": "_burnableZORRewards",
          "type": "uint256"
        },
        {
          "internalType": "uint256",
          "name": "_rewardsDue",
          "type": "uint256"
        }
      ],
      "name": "receiveXChainRepatriationRequest",
      "outputs": [],
      "stateMutability": "nonpayable",
      "type": "function"
    }
  ],
  "bytecode": "0x60806040523480156200001157600080fd5b50620000386200002964010000000062000042810204565b64010000000062000046810204565b6001805562000096565b3390565b60008054600160a060020a03838116600160a060020a0319831681178455604051919092169283917f8be0079c531659141344cd1fd0a4f28419497f9722a3daafe3b4186f6b6457e09190a35050565b61470e80620000a66000396000f3fe6080604052600436106103ef5760003560e060020a90048063745af0a811610218578063a80bee0711610122578063c8ba44b5116100ba578063ef1269671161007e578063ef12696714610d27578063f2fde38b14610d3d578063f35e4a6e14610d5d578063f63cce3714610d7d578063fc39a29e14610d9d57600080fd5b8063c8ba44b514610c96578063cb9c2f6814610cb1578063cd17ac1414610cc7578063ebfba7c414610ce7578063ee4e268714610d0757600080fd5b8063a80bee0714610b53578063a9e56f3c14610b73578063b22f325114610b93578063b4b4e9eb14610bb3578063b61bb80a14610c00578063bdb2fc8b14610c20578063c293614214610c40578063c6d758cb14610c56578063c86d404014610c7657600080fd5b80638da5cb5b116101b05780639a448c0c116101745780639a448c0c14610ac75780639a8a059214610ae75780639cebd37114610afd5780639ec68c7614610b13578063a4d2b08314610b3357600080fd5b80638da5cb5b14610a215780638f426e2c14610a36578063941d3fd014610a565780639568786c14610a87578063958e2d3114610aa757600080fd5b8063745af0a81461090157806379777d81146109215780637bd45522146109415780637bf604d8146109615780637e37c769146109815780637f633ea8146109a1578063823c43d0146109c15780638b5694d6146109e15780638c157db214610a0157600080fd5b80633bbc1ffc116103195780635790f599116102b1578063693a090b11610275578063693a090b146108765780636b8eb2e5146108965780636c78d49c146108b657806370d5ae05146108d6578063715018a6146108ec57600080fd5b80635790f599146107d3578063593af9fe146107e95780635c63fa871461081657806361b729dc14610836578063668ababb1461085657600080fd5b80633bbc1ffc146106ad578063459f4753146106cd5780634780f9f51461071157806348cd4cb1146107315780634cfea68a146107475780635051d3711461075d57806351eb05a61461077d57806353f73f871461079d5780635527a6f9146107bd57600080fd5b8063219b38b81161038c578063219b38b81461055d578063293da9d41461058a5780632e31283d146105b65780633332fcf41461060e57806333cfcd3b1461062e5780633a6291211461064e5780633ad5875c1461066e5780633b710688146106815780633b9ce5651461069757600080fd5b8062aeef8a146103f4578063068f158d1461041657806307968db114610436578063081e3eda1461046c5780630aa0988e1461048b578063104a6132146104ab57806313a2e880146104cb5780631526fe27146104eb57806317caf6f114610547575b600080fd5b34801561040057600080fd5b5061041461040f366004613a27565b610dbd565b005b34801561042257600080fd5b50610414610431366004613a68565b610e7a565b34801561044257600080fd5b5060245461045690600160a060020a031681565b6040516104639190613aa1565b60405180910390f35b34801561047857600080fd5b506013545b604051908152602001610463565b34801561049757600080fd5b506104146104a6366004613a68565b610eda565b3480156104b757600080fd5b506104566104c6366004613ab5565b610f3a565b3480156104d757600080fd5b506104146104e6366004613ace565b610f64565b3480156104f757600080fd5b5061050b610506366004613ab5565b610fb5565b60408051600160a060020a03978816815260208101969096528501939093526060840191909152608083015290911660a082015260c001610463565b34801561055357600080fd5b5061047d600f5481565b34801561056957600080fd5b5061047d610578366004613ab5565b60236020526000908152604090205481565b34801561059657600080fd5b5061047d6105a5366004613b5c565b602080526000908152604090205481565b3480156105c257600080fd5b506104566105d1366004613c31565b60156020908152600093845260408085208451808601840180519281529084019584019590952094529290528252902054600160a060020a031681565b34801561061a57600080fd5b50610414610629366004613c81565b611008565b34801561063a57600080fd5b5061047d610649366004613d40565b611051565b34801561065a57600080fd5b5061047d610669366004613d79565b6110eb565b61041461067c366004613d79565b6111e7565b34801561068d57600080fd5b5061047d600e5481565b3480156106a357600080fd5b5061047d600c5481565b3480156106b957600080fd5b506104146106c8366004613ab5565b61133e565b3480156106d957600080fd5b506106fe6106e8366004613ab5565b601f6020526000908152604090205461ffff1681565b60405161ffff9091168152602001610463565b34801561071d57600080fd5b5061041461072c366004613db4565b6113a2565b34801561073d57600080fd5b5061047d60075481565b34801561075357600080fd5b5061047d60085481565b34801561076957600080fd5b50610414610778366004613de6565b61144b565b34801561078957600080fd5b5061047d610798366004613ab5565b61149f565b3480156107a957600080fd5b5061047d6107b8366004613e03565b61161e565b3480156107c957600080fd5b5061047d600b5481565b3480156107df57600080fd5b5061047d60225481565b3480156107f557600080fd5b50610809610804366004613ab5565b611646565b6040516104639190613e80565b34801561082257600080fd5b50610414610831366004613e93565b6116e0565b34801561084257600080fd5b50610414610851366004613ec1565b61173c565b34801561086257600080fd5b5060045461045690600160a060020a031681565b34801561088257600080fd5b5060195461045690600160a060020a031681565b3480156108a257600080fd5b506104146108b1366004613d79565b611787565b3480156108c257600080fd5b506104146108d1366004613f23565b611886565b3480156108e257600080fd5b5061045661dead81565b3480156108f857600080fd5b506104146118e7565b34801561090d57600080fd5b5061047d61091c366004613f40565b611925565b34801561092d57600080fd5b50601d5461045690600160a060020a031681565b34801561094d57600080fd5b5061041461095c366004613f7f565b61199f565b34801561096d57600080fd5b5060175461045690600160a060020a031681565b34801561098d57600080fd5b5061041461099c366004613db4565b611a05565b3480156109ad57600080fd5b506104146109bc366004613fb6565b611b87565b3480156109cd57600080fd5b5060165461045690600160a060020a031681565b3480156109ed57600080fd5b506104146109fc366004613fb6565b611be6565b348015610a0d57600080fd5b5060025461045690600160a060020a031681565b348015610a2d57600080fd5b50610456611c31565b348015610a4257600080fd5b5061047d610a51366004613fe2565b611c40565b348015610a6257600080fd5b50601654610a779060a060020a900460ff1681565b6040519015158152602001610463565b348015610a9357600080fd5b5061047d610aa2366004613ab5565b611dca565b348015610ab357600080fd5b50610414610ac2366004613ab5565b611eaa565b348015610ad357600080fd5b50610456610ae2366004613ab5565b611f14565b348015610af357600080fd5b5061047d60105481565b348015610b0957600080fd5b5061047d600d5481565b348015610b1f57600080fd5b50610414610b2e366004613a68565b611f24565b348015610b3f57600080fd5b5060055461045690600160a060020a031681565b348015610b5f57600080fd5b5061047d610b6e366004614057565b611f84565b348015610b7f57600080fd5b5060215461045690600160a060020a031681565b348015610b9f57600080fd5b50601c5461045690600160a060020a031681565b348015610bbf57600080fd5b50610bd3610bce366004614079565b611fa0565b604080519687526020870195909552938501929092526060840152608083015260a082015260c001610463565b348015610c0c57600080fd5b5060035461045690600160a060020a031681565b348015610c2c57600080fd5b50610414610c3b366004613c81565b612001565b348015610c4c57600080fd5b5061047d60095481565b348015610c6257600080fd5b50610414610c713660046140b1565b612046565b348015610c8257600080fd5b5060065461045690600160a060020a031681565b348015610ca257600080fd5b506104146108513660046140dd565b348015610cbd57600080fd5b5061047d600a5481565b348015610cd357600080fd5b50610414610ce236600461418d565b612113565b348015610cf357600080fd5b5060185461045690600160a060020a031681565b348015610d1357600080fd5b50610414610d22366004613de6565b6121cb565b348015610d3357600080fd5b5061047d60115481565b348015610d4957600080fd5b50610414610d58366004613de6565b61221f565b348015610d6957600080fd5b50610414610d78366004613ab5565b6122dc565b348015610d8957600080fd5b50610414610d98366004613a68565b612366565b348015610da957600080fd5b5060125461045690600160a060020a031681565b60026001541415610dec5760405160e560020a62461bcd028152600401610de39061420b565b60405180910390fd5b6002600181905550600060138481548110610e0957610e09614242565b600091825260209091206006909102018054909150610e3290600160a060020a031630856123f3565b60058101548154610e5291600160a060020a0391821691339116866124fb565b610e6f84336040518060200160405280600081525086864261254c565b505060018055505050565b33610e83611c31565b600160a060020a031614610eac5760405160e560020a62461bcd028152600401610de39061425b565b601c8054600160a060020a03938416600160a060020a031991821617909155601d8054929093169116179055565b33610ee3611c31565b600160a060020a031614610f0c5760405160e560020a62461bcd028152600401610de39061425b565b60028054600160a060020a03938416600160a060020a03199182161790915560038054929093169116179055565b601a8181548110610f4a57600080fd5b600091825260209091200154600160a060020a0316905081565b33610f6d611c31565b600160a060020a031614610f965760405160e560020a62461bcd028152600401610de39061425b565b6000838152601e60205260409020610faf908383613939565b50505050565b60138181548110610fc557600080fd5b6000918252602090912060069091020180546001820154600283015460038401546004850154600590950154600160a060020a0394851696509294919390921686565b33611011611c31565b600160a060020a03161461103a5760405160e560020a62461bcd028152600401610de39061425b565b805161104d90601a9060208401906139bd565b5050565b6000600260015414156110795760405160e560020a62461bcd028152600401610de39061420b565b6002600181905550600061109f853360405180602001604052806000815250878761285e565b90506110de338260000151601388815481106110bd576110bd614242565b6000918252602090912060069091020154600160a060020a03169190612d18565b5160018055949350505050565b6000858152601f6020908152604080832054601054915161ffff90911692849261113492909161111d91339101614290565b604051602081830303815290604052898989612d3f565b9050600061114185612dc0565b6024546040517f40a7bb10000000000000000000000000000000000000000000000000000000008152919250600091600160a060020a03909116906340a7bb109061119890879030908890879089906004016142b3565b6040805180830381865afa1580156111b4573d6000803e3d6000fd5b505050506040513d601f19601f820116820180604052508101906111d891906142f9565b509a9950505050505050505050565b6002600154141561120d5760405160e560020a62461bcd028152600401610de39061420b565b60026001556010546040516000916112449161122d903390602001614290565b604051602081830303815290604052878787612d3f565b6000878152601e60205260408120805492935090916112629061431d565b80601f016020809104026020016040519081016040528092919081815260200182805461128e9061431d565b80156112db5780601f106112b0576101008083540402835291602001916112db565b820191906000526020600020905b8154815290600101906020018083116112be57829003601f168201915b505050505090506113316040518060c0016040528089815260200183815260200184815260200133600160a060020a031681526020016000600160a060020a0316815260200161132a86612dc0565b9052612e04565b5050600180555050505050565b33611347611c31565b600160a060020a0316146113705760405160e560020a62461bcd028152600401610de39061425b565b601254600160a060020a0316301461139d5760405160e560020a62461bcd028152600401610de39061435b565b600a55565b600260015414156113c85760405160e560020a62461bcd028152600401610de39061420b565b60026001819055506000601385815481106113e5576113e5614242565b6000918252602090912060056006909202010154600354600160a060020a039182169250611415911630866123f3565b60035461142d90600160a060020a03163383876124fb565b610e6f85336040518060200160405280600081525087874288612eb9565b33611454611c31565b600160a060020a03161461147d5760405160e560020a62461bcd028152600401610de39061425b565b60168054600160a060020a031916600160a060020a0392909216919091179055565b600080601383815481106114b5576114b5614242565b90600052602060002090600602019050806002015443116114d95750600092915050565b60006114f2826002015443612fca90919063ffffffff16565b905060008111611506575060009392505050565b6000611537600f54611531856001015461152b60095487612fd690919063ffffffff16565b90612fd6565b90612fe2565b601254909150600160a060020a03163014156115905760045460025461156b91600160a060020a03918216911630846124fb565b600383015461157a9082612fee565b6003840155505043600290910155506000919050565b6002546040517f40c10f19000000000000000000000000000000000000000000000000000000008152600160a060020a03909116906340c10f19906115db9030908590600401614392565b600060405180830381600087803b1580156115f557600080fd5b505af1158015611609573d6000803e3d6000fd5b5092979650505050505050565b505050919050565b6000918252601460209081526040808420600160a060020a0393909316845291905290205490565b601e602052600090815260409020805461165f9061431d565b80601f016020809104026020016040519081016040528092919081815260200182805461168b9061431d565b80156116d85780601f106116ad576101008083540402835291602001916116d8565b820191906000526020600020905b8154815290600101906020018083116116bb57829003601f168201915b505050505081565b336116e9611c31565b600160a060020a0316146117125760405160e560020a62461bcd028152600401610de39061425b565b60109290925560115560128054600160a060020a031916600160a060020a03909216919091179055565b60405160e560020a62461bcd02815260206004820152601760248201527f696c6c6567616c2064756d6d792066756e632063616c6c0000000000000000006044820152606401610de3565b601654600160a060020a031633600160a060020a0316146117ed5760405160e560020a62461bcd02815260206004820152601160248201527f6f6e6c79205a6f72726f206f7261636c650000000000000000000000000000006044820152606401610de3565b600061180f8361153161180287612710612fe2565b600e5461152b908a612fd6565b9050600c548111156118245750600c54611833565b600b548110156118335750600b545b60006118456127106115318585612fd6565b905060006118628861153184600d54612fd690919063ffffffff16565b905061187960085482612fe290919063ffffffff16565b6009555050505050505050565b3361188f611c31565b600160a060020a0316146118b85760405160e560020a62461bcd028152600401610de39061425b565b6016805491151560a060020a0274ff000000000000000000000000000000000000000019909216919091179055565b336118f0611c31565b600160a060020a0316146119195760405160e560020a62461bcd028152600401610de39061425b565b6119236000612ffa565b565b60006002600154141561194d5760405160e560020a62461bcd028152600401610de39061420b565b6002600181905550600061197433604051806020016040528060008152508888888861304a565b505060035491925061199291600160a060020a031690503383612d18565b6001805595945050505050565b336119a8611c31565b600160a060020a0316146119d15760405160e560020a62461bcd028152600401610de39061425b565b60218054600160a060020a03948516600160a060020a03199182161790915560229290925560248054919093169116179055565b60026001541415611a2b5760405160e560020a62461bcd028152600401610de39061420b565b600260015560008481526014602090815260408083203384529091528120805485908110611a5b57611a5b614242565b600091825260208083206003600690930201919091015487835260148252604080842033855290925290822080549193509086908110611a9d57611a9d614242565b90600052602060002090600602016004015490506000611ad13360405180602001604052806000815250898960008961304a565b50505090506060600360009054906101000a9004600160a060020a031681600081518110611b0157611b01614242565b6020026020010190600160a060020a03169081600160a060020a031681525050611b3f8633604051806020016040528060008152508588888b612eb9565b8587897f67e7aba7263d8fbeb0cd9a2f4008f060a6a03f46c1d7f9d0550f0b93e96e96f833604051611b719190613aa1565b60405180910390a4505060018055505050505050565b33611b90611c31565b600160a060020a031614611bb95760405160e560020a62461bcd028152600401610de39061425b565b6000828152601f60209081526040808320805461ffff90951661ffff199095168517905592825280522055565b33611bef611c31565b600160a060020a031614611c185760405160e560020a62461bcd028152600401610de39061425b565b60009182526023602052604090912061ffff9091169055565b600054600160a060020a031690565b6040805160608082018352600080835260208301819052928201526000611c6b8a8a8a8a8a8a613164565b60008b8152601e6020526040812080549293509091611c899061431d565b80601f0160208091040260200160405190810160405280929190818152602001828054611cb59061431d565b8015611d025780601f10611cd757610100808354040283529160200191611d02565b820191906000526020600020905b815481529060010190602001808311611ce557829003601f168201915b505050505090506000602160009054906101000a9004600160a060020a0316600160a060020a0316630a512369601f60008f815260200190815260200160002060009054906101000a900461ffff1660018587896040518663ffffffff1660e060020a028152600401611d799594939291906143d4565b6040805180830381865afa158015611d95573d6000803e3d6000fd5b505050506040513d601f19601f82011682018060405250810190611db991906142f9565b509c9b505050505050505050505050565b60165460009060a060020a900460ff1615611e99576040517f677342ce00000000000000000000000000000000000000000000000000000000815260048101839052611e939064e8d4a510009061152b90611e8b9073__CustomMath____________________________9063677342ce90602401602060405180830381865af4158015611e5b573d6000803e3d6000fd5b505050506040513d601f19601f82011682018060405250810190611e7f9190614420565b61152b6002600a612fe2565b600190612fee565b92915050565b5064e8d4a51000919050565b919050565b60026001541415611ed05760405160e560020a62461bcd028152600401610de39061420b565b60026001556000611ee1823361161e565b905060005b81811015611f0b57611efa83826000611051565b50611f0481614452565b9050611ee6565b50506001805550565b601b8181548110610f4a57600080fd5b33611f2d611c31565b600160a060020a031614611f565760405160e560020a62461bcd028152600401610de39061425b565b60178054600160a060020a03938416600160a060020a03199182161790915560188054929093169116179055565b6000611f9964e8d4a510006115318585612fd6565b9392505050565b60146020528260005260406000206020528160005260406000208181548110611fc857600080fd5b60009182526020909120600690910201805460018201546002830154600384015460048501546005909501549397509195509350919086565b3361200a611c31565b600160a060020a0316146120335760405160e560020a62461bcd028152600401610de39061425b565b805161104d90601b9060208401906139bd565b3361204f611c31565b600160a060020a0316146120785760405160e560020a62461bcd028152600401610de39061425b565b600254600160a060020a03838116911614156120ff5760405160e560020a62461bcd02815260206004820152603560248201527f217361666520746f20757365205a6f72726f20746f6b656e20696e2066756e6360448201527f20696e43617365546f6b656e73476574537475636b00000000000000000000006064820152608401610de3565b61104d600160a060020a0383163383612d18565b3361211c611c31565b600160a060020a0316146121455760405160e560020a62461bcd028152600401610de39061425b565b8585600181811061215857612158614242565b6020029190910135600855508585600281811061217757612177614242565b602002919091013560095550838360008161219457612194614242565b6020029190910135600b5550838360018181106121b3576121b3614242565b6020029190910135600c5550600e55600d5550505050565b336121d4611c31565b600160a060020a0316146121fd5760405160e560020a62461bcd028152600401610de39061425b565b60198054600160a060020a031916600160a060020a0392909216919091179055565b33612228611c31565b600160a060020a0316146122515760405160e560020a62461bcd028152600401610de39061425b565b600160a060020a0381166122d05760405160e560020a62461bcd02815260206004820152602660248201527f4f776e61626c653a206e6577206f776e657220697320746865207a65726f206160448201527f64647265737300000000000000000000000000000000000000000000000000006064820152608401610de3565b6122d981612ffa565b50565b336122e5611c31565b600160a060020a03161461230e5760405160e560020a62461bcd028152600401610de39061425b565b600754156123615760405160e560020a62461bcd02815260206004820152601560248201527f626c6f636b506172616d7320696d6d757461626c6500000000000000000000006044820152606401610de3565b600755565b3361236f611c31565b600160a060020a0316146123985760405160e560020a62461bcd028152600401610de39061425b565b601254600160a060020a031630146123c55760405160e560020a62461bcd028152600401610de39061435b565b60048054600160a060020a03938416600160a060020a03199182161790915560058054929093169116179055565b6040517fdd62ed3e000000000000000000000000000000000000000000000000000000008152306004820152600160a060020a038381166024830152600091839186169063dd62ed3e90604401602060405180830381865afa15801561245d573d6000803e3d6000fd5b505050506040513d601f19601f820116820180604052508101906124819190614420565b61248b919061446d565b9050610faf8463095ea7b360e060020a0285846040516024016124af929190614392565b60408051601f19818403018152919052602081018051600160e060020a03167bffffffffffffffffffffffffffffffffffffffffffffffffffffffff19909316929092179091526131f4565b604051600160a060020a0380851660248301528316604482015260648101829052610faf9085907f23b872dd00000000000000000000000000000000000000000000000000000000906084016124af565b6000806013888154811061256257612562614242565b90600052602060002090600602019050600085116125c55760405160e560020a62461bcd02815260206004820152601560248201527f5f77616e74416d74206d757374206265203e20302100000000000000000000006044820152606401610de3565b6125ce8861149f565b915086600160a060020a0381166126755760008751116126595760405160e560020a62461bcd02815260206004820152602c60248201527f4e65697468657220666f726569676e2061636374206e6f72206c6f63616c206160448201527f6363742070726f766964656400000000000000000000000000000000000000006064820152608401610de3565b61266287614485565b6c01000000000000000000000000900490505b600060138a8154811061268a5761268a614242565b60009182526020909120600560069092020101546040517fba0bb4ab000000000000000000000000000000000000000000000000000000008152600160a060020a039091169063ba0bb4ab906126e69085908b90600401614392565b6020604051808303816000875af1158015612705573d6000803e3d6000fd5b505050506040513d601f19601f820116820180604052508101906127299190614420565b600580549085015491925064e8d4a5100091600160a060020a039081169116146127595761275687611dca565b90505b60006127658383611f84565b60048601549091506127779082612fee565b60048601819055600090612794906115318464e8d4a51000612fd6565b905060006040518060c001604052808481526020018581526020016127cf64e8d4a51000611531868c60030154612fd690919063ffffffff16565b81526020018b81526020018a8152602001600081525090506127f38e878e846132dc565b8d8c60405161280291906144bf565b604051809103902087600160a060020a03167fc6b1f1535b3bb3bdffa2f97a671ab7bd6f2512deec58103fa47eb40ed95274278e60405161284591815260200190565b60405180910390a4505050505050509695505050505050565b6128896040518060800160405280600081526020016000815260200160008152602001600081525090565b600160a060020a0385161580156128a1575060008451115b806128be5750600160a060020a038516158015906128be57508351155b61290d5760405160e560020a62461bcd02815260206004820152601d60248201527f4f6e6c79206f6e65206163636f756e74207479706520616c6c6f7765640000006044820152606401610de3565b600061291b878587896133cb565b905060006013888154811061293257612932614242565b9060005260206000209060060201905060008260000151116129995760405160e560020a62461bcd02815260206004820152601960248201527f7472616e6368652e636f6e747269627574696f6e2069732030000000000000006044820152606401610de3565b60008160040154116129f05760405160e560020a62461bcd02815260206004820152601e60248201527f746f74616c5472616e636865436f6e747269627574696f6e73206973203000006044820152606401610de3565b60a082015115612a455760405160e560020a62461bcd02815260206004820152601460248201527f416c726561647920657869746564207661756c740000000000000000000000006044820152606401610de3565b612a4e8861149f565b602084015260048101548251600091612a70916115319064e8d4a51000612fd6565b90506000612aa28460400151612a9c64e8d4a51000611531876003015487612fd690919063ffffffff16565b90612fca565b90508015612b1f57600080612ab7868461356d565b915091506011546010541415612af8578115612ad757612ad78b836135f9565b8015612af357600554612af390600160a060020a0316826135f9565b612b1c565b612b0d61dead612b088484612fee565b6135f9565b60408701829052606087018190525b50505b85612d0b5760138a81548110612b3757612b37614242565b600091825260209091206005600690920201015484516040517fe0ccabfa000000000000000000000000000000000000000000000000000000008152600160a060020a039092169163e0ccabfa91612b94918d9190600401614392565b6020604051808303816000875af1158015612bb3573d6000803e3d6000fd5b505050506040513d601f19601f82011682018060405250810190612bd79190614420565b5083516004840154612be891612fca565b600480850191909155835460405160e060020a6370a08231028152600160a060020a03909116916370a0823191612c2191309101613aa1565b602060405180830381865afa158015612c3e573d6000803e3d6000fd5b505050506040513d601f19601f82011682018060405250810190612c629190614420565b855260008a8152601460209081526040808320600160a060020a038d1684529091529020805442919089908110612c9b57612c9b614242565b9060005260206000209060060201600501819055508988604051612cbf91906144bf565b6040805191829003822088518b8452602084015291600160a060020a038d16917fa7749cd42821d3b82a6814af6d80712b2e43f98ec1b25aee31c8351855de65d9910160405180910390a45b5050505095945050505050565b612d3a8363a9059cbb60e060020a0284846040516024016124af929190614392565b505050565b6040516060907f61b729dc0000000000000000000000000000000000000000000000000000000090600090612d8090899089908990899089906020016144db565b60405160208183030381529060405290508181604051602001612da4929190614511565b6040516020818303038152906040529250505095945050505050565b604080517e01000000000000000000000000000000000000000000000000000000000000602082015260228082019390935281518082039093018352604201905290565b80516000908152601f6020908152604091829020546024549184015183850151606086015160a087015195517fc580310000000000000000000000000000000000000000000000000000000000815261ffff90941695600160a060020a039095169463c5803100943494612e8394899491939092829190600401614541565b6000604051808303818588803b158015612e9c57600080fd5b505af1158015612eb0573d6000803e3d6000fd5b50505050505050565b600060138881548110612ece57612ece614242565b60009182526020822060069190910201600501546040517fe502a88d0000000000000000000000000000000000000000000000000000000081526004810188905260248101859052600160a060020a039091169250829190829063e502a88d906044016020604051808303816000875af1158015612f50573d6000803e3d6000fd5b505050506040513d601f19601f82011682018060405250810190612f749190614420565b9050612faf838260138d81548110612f8e57612f8e614242565b6000918252602090912060069091020154600160a060020a031691906123f3565b612fbd8a8a8a848a8a61254c565b5050505050505050505050565b6000611f9982846145a8565b6000611f9982846145bf565b6000611f9982846145de565b6000611f99828461446d565b60008054600160a060020a03838116600160a060020a0319831681178455604051919092169283917f8be0079c531659141344cd1fd0a4f28419497f9722a3daafe3b4186f6b6457e09190a35050565b60008060008060006013898154811061306557613065614242565b60009182526020822060056006909202010154600160a060020a0316915081906130928b8e8e8d8d61285e565b90506130b083826000015160138e81548110612f8e57612f8e614242565b80516040517f648794a4000000000000000000000000000000000000000000000000000000008152600481019190915260248101899052600160a060020a0383169063648794a4906044016020604051808303816000875af115801561311a573d6000803e3d6000fd5b505050506040513d601f19601f8201168201806040525081019061313e9190614420565b60208201516040830151606090930151919f909e50919c509a5098505050505050505050565b6040516060907fc8ba44b500000000000000000000000000000000000000000000000000000000906000906131a7908a908a908a908a908a908a90602001614603565b604051602081830303815290604052905081816040516020016131cb929190614511565b604051602081830303815290604052925050509695505050505050565b50505050505050505050565b6000613249826040518060400160405280602081526020017f5361666545524332303a206c6f772d6c6576656c2063616c6c206661696c656481525085600160a060020a03166136e59092919063ffffffff16565b805190915015612d3a5780806020019051810190613267919061463d565b612d3a5760405160e560020a62461bcd02815260206004820152602a60248201527f5361666545524332303a204552433230206f7065726174696f6e20646964206e60448201527f6f742073756363656564000000000000000000000000000000000000000000006064820152608401610de3565b6000848152601460209081526040808320600160a060020a0387168452825280832080546001818101835591855293839020855160069095020193845591840151918301919091558201516002820155606082015160038201556080820151600482015560a0820151600590910155815115610faf5782601560008681526020019081526020016000208360405161337491906144bf565b908152602001604051809103902060006133936001612a9c898961161e565b815260200190815260200160002060006101000a815481600160a060020a030219169083600160a060020a0316021790555050505050565b6134046040518060c001604052806000815260200160008152602001600081526020016000815260200160008152602001600081525090565b600160a060020a0382166134a2576000858152601460209081526040808320600160a060020a0386168452909152902080548590811061344657613446614242565b90600052602060002090600602016040518060c001604052908160008201548152602001600182015481526020016002820154815260200160038201548152602001600482015481526020016005820154815250509050613565565b60008581526015602052604080822090516134be9086906144bf565b908152604080516020928190038301902060008881529083528181205489825260148452828220600160a060020a039091168083529352208054919250908690811061350c5761350c614242565b90600052602060002090600602016040518060c001604052908160008201548152602001600182015481526020016002820154815260200160038201548152602001600482015481526020016005820154815250509150505b949350505050565b60008060008311613583575060009050806135f2565b60006135b142612a9c6135a662093a808960600151612fd690919063ffffffff16565b608089015190612fee565b905080156135ec5760608501516135d9906135cf9062093a80612fd6565b6115318684612fd6565b91506135e58483612fca565b92506135f0565b8392505b505b9250929050565b60025460405160e060020a6370a082310281528291600091600160a060020a03909116906370a0823190613631903090600401613aa1565b602060405180830381865afa15801561364e573d6000803e3d6000fd5b505050506040513d601f19601f820116820180604052508101906136729190614420565b905080831115613680578091505b600254610faf90600160a060020a03168584612d18565b8154815290600101906020018083116136975750506040805160a0810182528f8152602081018c905290810185905260608101879052608081018890529394506131e89392506136f4915050565b606061356584846000856137ae565b61371860405180606001604052806000815260200160008152602001606081525090565b60215482516000908152601f602090815260408083205460225487518552602384529190932054918601516080870151600160a060020a0390951694639fbf10fc94349461ffff9091169392909133919061377c906103e890611531908490612fd6565b898b604001518c606001516040518b63ffffffff1660e060020a028152600401612e839998979695949392919061465a565b6060303183111561382a5760405160e560020a62461bcd02815260206004820152602660248201527f416464726573733a20696e73756666696369656e742062616c616e636520666f60448201527f722063616c6c00000000000000000000000000000000000000000000000000006064820152608401610de3565b600160a060020a0385163b6138845760405160e560020a62461bcd02815260206004820152601d60248201527f416464726573733a2063616c6c20746f206e6f6e2d636f6e74726163740000006044820152606401610de3565b60008086600160a060020a031685876040516138a091906144bf565b60006040518083038185875af1925050503d80600081146138dd576040519150601f19603f3d011682016040523d82523d6000602084013e6138e2565b606091505b50915091506138f28282866138fd565b979650505050505050565b6060831561390c575081611f99565b82511561391c5782518084602001fd5b8160405160e560020a62461bcd028152600401610de39190613e80565b8280546139459061431d565b90600052602060002090601f01602090048101928261396757600085556139ad565b82601f106139805782800160ff198235161785556139ad565b828001600101855582156139ad579182015b828111156139ad578235825591602001919060010190613992565b506139b9929150613a12565b5090565b8280548282559060005260206000209081019282156139ad579160200282015b828111156139ad5782518254600160a060020a031916600160a060020a039091161782556020909201916001909101906139dd565b5b808211156139b95760008155600101613a13565b600080600060608486031215613a3c57600080fd5b505081359360208301359350604090920135919050565b600160a060020a03811681146122d957600080fd5b60008060408385031215613a7b57600080fd5b8235613a8681613a53565b91506020830135613a9681613a53565b809150509250929050565b600160a060020a0391909116815260200190565b600060208284031215613ac757600080fd5b5035919050565b600080600060408486031215613ae357600080fd5b83359250602084013567ffffffffffffffff80821115613b0257600080fd5b818601915086601f830112613b1657600080fd5b813581811115613b2557600080fd5b876020828501011115613b3757600080fd5b6020830194508093505050509250925092565b803561ffff81168114611ea557600080fd5b600060208284031215613b6e57600080fd5b611f9982613b4a565b60e060020a634e487b7102600052604160045260246000fd5b604051601f8201601f1916810167ffffffffffffffff81118282101715613bb957613bb9613b77565b604052919050565b600082601f830112613bd257600080fd5b813567ffffffffffffffff811115613bec57613bec613b77565b613bff601f8201601f1916602001613b90565b818152846020838601011115613c1457600080fd5b816020850160208301376000918101602001919091529392505050565b600080600060608486031215613c4657600080fd5b83359250602084013567ffffffffffffffff811115613c6457600080fd5b613c7086828701613bc1565b925050604084013590509250925092565b60006020808385031215613c9457600080fd5b823567ffffffffffffffff80821115613cac57600080fd5b818501915085601f830112613cc057600080fd5b813581811115613cd257613cd2613b77565b8381029150613ce2848301613b90565b8181529183018401918481019088841115613cfc57600080fd5b938501935b83851015613d265784359250613d1683613a53565b8282529385019390850190613d01565b98975050505050505050565b80151581146122d957600080fd5b600080600060608486031215613d5557600080fd5b83359250602084013591506040840135613d6e81613d32565b809150509250925092565b600080600080600060a08688031215613d9157600080fd5b505083359560208501359550604085013594606081013594506080013592509050565b60008060008060808587031215613dca57600080fd5b5050823594602084013594506040840135936060013592509050565b600060208284031215613df857600080fd5b8135611f9981613a53565b60008060408385031215613e1657600080fd5b823591506020830135613a9681613a53565b60005b83811015613e43578181015183820152602001613e2b565b83811115610faf5750506000910152565b60008151808452613e6c816020860160208601613e28565b601f01601f19169290920160200192915050565b602081526000611f996020830184613e54565b600080600060608486031215613ea857600080fd5b83359250602084013591506040840135613d6e81613a53565b600080600080600060a08688031215613ed957600080fd5b85359450602086013567ffffffffffffffff811115613ef757600080fd5b613f0388828901613bc1565b959895975050505060408401359360608101359360809091013592509050565b600060208284031215613f3557600080fd5b8135611f9981613d32565b60008060008060808587031215613f5657600080fd5b84359350602085013592506040850135613f6f81613d32565b9396929550929360600135925050565b600080600060608486031215613f9457600080fd5b8335613f9f81613a53565b9250602084013591506040840135613d6e81613a53565b60008060408385031215613fc957600080fd5b82359150613fd960208401613b4a565b90509250929050565b600080600080600080600060e0888a031215613ffd57600080fd5b873596506020880135955060408801359450606088013567ffffffffffffffff81111561402957600080fd5b6140358a828b01613bc1565b979a969950949760808101359660a0820135965060c090910135945092505050565b6000806040838503121561406a57600080fd5b50508035926020909101359150565b60008060006060848603121561408e57600080fd5b8335925060208401356140a081613a53565b929592945050506040919091013590565b600080604083850312156140c457600080fd5b82356140cf81613a53565b946020939093013593505050565b60008060008060008060c087890312156140f657600080fd5b863595506020870135945060408701359350606087013567ffffffffffffffff81111561412257600080fd5b61412e89828a01613bc1565b9350506080870135915060a087013590509295509295509295565b60008083601f84011261415b57600080fd5b50813567ffffffffffffffff81111561417357600080fd5b60208301915083602080830285010111156135f257600080fd5b600080600080600080608087890312156141a657600080fd5b863567ffffffffffffffff808211156141be57600080fd5b6141ca8a838b01614149565b909850965060208901359150808211156141e357600080fd5b506141f089828a01614149565b979a9699509760408101359660609091013595509350505050565b6020808252601f908201527f5265656e7472616e637947756172643a207265656e7472616e742063616c6c00604082015260600190565b60e060020a634e487b7102600052603260045260246000fd5b6020808252818101527f4f776e61626c653a2063616c6c6572206973206e6f7420746865206f776e6572604082015260600190565b600160a060020a03919091166c0100000000000000000000000002815260140190565b61ffff86168152600160a060020a038516602082015260a0604082015260006142df60a0830186613e54565b84151560608401528281036080840152613d268185613e54565b6000806040838503121561430c57600080fd5b505080516020909101519092909150565b60028104600182168061433157607f821691505b602082108114156143555760e060020a634e487b7102600052602260045260246000fd5b50919050565b6020808252600f908201527f6f6e6c7920686f6d6520636861696e0000000000000000000000000000000000604082015260600190565b600160a060020a03929092168252602082015260400190565b805182526020810151602083015260006040820151606060408501526135656060850182613e54565b61ffff8616815260ff8516602082015260a0604082015260006143fa60a0830186613e54565b828103606084015261440c8186613e54565b90508281036080840152613d2681856143ab565b60006020828403121561443257600080fd5b5051919050565b60e060020a634e487b7102600052601160045260246000fd5b600060001982141561446657614466614439565b5060010190565b6000821982111561448057614480614439565b500190565b805160208201516bffffffffffffffffffffffff1980821692919060148310156116165760149290920360080260020a8202161692915050565b600082516144d1818460208701613e28565b9190910192915050565b85815260a0602082015260006144f460a0830187613e54565b604083019590955250606081019290925260809091015292915050565b600160e060020a03198316815260008251614533816004850160208701613e28565b919091016004019392505050565b61ffff8716815260c06020820152600061455e60c0830188613e54565b82810360408401526145708188613e54565b600160a060020a0387811660608601528616608085015283810360a0850152905061459b8185613e54565b9998505050505050505050565b6000828210156145ba576145ba614439565b500390565b60008160001904831182151516156145d9576145d9614439565b500290565b6000826145fe5760e060020a634e487b7102600052601260045260246000fd5b500490565b86815285602082015284604082015260c06060820152600061462860c0830186613e54565b60808301949094525060a00152949350505050565b60006020828403121561464f57600080fd5b8151611f9981613d32565b600061012061ffff8c1683528a6020840152896040840152600160a060020a03891660608401528760808401528660a08401528060c084015261469f818401876143ab565b905082810360e08401526146b38186613e54565b90508281036101008401526146c88185613e54565b9c9b50505050505050505050505056fea26469706673582212205563582181b1bfb9038f1f150ea0b6d278788c1669cd662a95835b410ec0cffb64736f6c634300080a0033",
  "immutableReferences": {},
  "source": "// SPDX-License-Identifier: MIT\n\npragma solidity ^0.8.0;\n\nimport \"./_ZorroControllerXChain.sol\";\n\nimport \"../interfaces/IZorroController.sol\";\n\ncontract ZorroControllerXChainWithdraw is IZorroControllerXChainWithdraw, ZorroControllerXChain {\n    /* Libraries */\n    using SafeMath for uint256;\n\n    /* Events */\n    event XChainRepatriation(\n        uint256 indexed _pid,\n        address indexed _originRecipient,\n        uint256 indexed _burnableZORRewards,\n        uint256 _trancheId,\n        uint256 _originChainId\n    );\n\n    /* Fees */\n\n    /* Fees::withdrawals */\n\n    /// @notice Checks to see how much a cross chain withdrawal will cost\n    /// @param _zorroChainId The Zorro Chain ID (not the LayerZero one)\n    /// @param _pid The pool ID on the remote chain\n    /// @param _trancheId The tranche ID on the remote chain\n    /// @param _maxMarketMovement Acceptable degree of slippage on any transaction (e.g. 950 = 5%, 990 = 1% etc.)\n    /// @param _gasForDestinationLZReceive How much additional gas to provide at destination contract\n    /// @return uint256 Expected fee to pay for bridging/cross chain execution\n    function checkXChainWithdrawalFee(\n        uint256 _zorroChainId,\n        uint256 _pid,\n        uint256 _trancheId,\n        uint256 _maxMarketMovement,\n        uint256 _gasForDestinationLZReceive\n    ) external view returns (uint256) {\n        // Get destination\n        uint16 _dstChainId = ZorroChainToLZMap[_zorroChainId];\n\n        // Prepare encoding\n        bytes memory _payload = _encodeXChainWithdrawalPayload(\n            chainId,\n            abi.encodePacked(msg.sender),\n            _pid,\n            _trancheId,\n            _maxMarketMovement\n        );\n\n        // Encode adapter params to provide more gas for destination\n        bytes memory _adapterParams = _getLZAdapterParamsForWithdraw(\n            _gasForDestinationLZReceive\n        );\n\n        // Query LayerZero for quote\n        (uint256 _nativeFee, ) = ILayerZeroEndpoint(layerZeroEndpoint)\n            .estimateFees(\n                _dstChainId,\n                address(this),\n                _payload,\n                false,\n                _adapterParams\n            );\n        return _nativeFee;\n    }\n\n    /// @notice Encodes adapter params to provide more gas for destination\n    /// @param _gasForDestinationLZReceive How much additional gas to provide at destination contract\n    /// @return bytes Adapter payload\n    function _getLZAdapterParamsForWithdraw(uint256 _gasForDestinationLZReceive)\n        internal\n        pure\n        returns (bytes memory)\n    {\n        uint16 _version = 1;\n        return abi.encodePacked(_version, _gasForDestinationLZReceive);\n    }\n\n    /* Fees::repatriation */\n\n    /// @notice Estimates fees for repatriation operation\n    /// @param _originChainId Zorro chain ID of chain to which funds are to be repatriated to\n    /// @param _pid Pool ID on current chain\n    /// @param _trancheId ID of tranche on current chain that funds were withdrawn from\n    /// @param _originRecipient Recipient of funds on the origin chain\n    /// @param _burnableZORRewards Quantity of ZOR tokens minted for rewards here that need to be burned on the home chain\n    /// @param _rewardsDue ZOR rewards due to the recipient\n    /// @param _gasForDestinationLZReceive How much additional gas to provide at destination contract\n    /// @return uint256 Estimated fee in native tokens\n    function checkXChainRepatriationFee(\n        uint256 _originChainId,\n        uint256 _pid,\n        uint256 _trancheId,\n        bytes memory _originRecipient,\n        uint256 _burnableZORRewards,\n        uint256 _rewardsDue,\n        uint256 _gasForDestinationLZReceive\n    ) external view returns (uint256) {\n        // Init empty LZ object\n        IStargateRouter.lzTxObj memory _lzTxParams;\n\n        // Get payload\n        bytes memory _payload = _encodeXChainRepatriationPayload(\n            _originChainId,\n            _pid,\n            _trancheId,\n            _originRecipient,\n            _burnableZORRewards,\n            _rewardsDue\n        );\n        bytes memory _dstContract = controllerContractsMap[_originChainId];\n\n        // Calculate native gas fee and ZRO token fee (Layer Zero token)\n        (uint256 _nativeFee, ) = IStargateRouter(stargateRouter)\n            .quoteLayerZeroFee(\n                ZorroChainToLZMap[_originChainId],\n                1,\n                _dstContract,\n                _payload,\n                _lzTxParams\n            );\n\n        return _nativeFee;\n    }\n\n    /* Encoding (payloads) */\n\n    /* Encoding::withdrawals */\n\n    /// @notice Encodes payload for making cross chan withdrawal\n    /// @param _originChainId Chain that withdrawal request originated from\n    /// @param _originAccount Account on origin chain that withdrawal request originated from\n    /// @param _pid Pool ID on remote chain\n    /// @param _trancheId Tranche ID on remote chain\n    /// @param _maxMarketMovement Slippage parameter (e.g. 950 = 5%, 990 = 1%, etc.)\n    /// @return bytes ABI encoded payload\n    function _encodeXChainWithdrawalPayload(\n        uint256 _originChainId,\n        bytes memory _originAccount,\n        uint256 _pid,\n        uint256 _trancheId,\n        uint256 _maxMarketMovement\n    ) internal pure returns (bytes memory) {\n        // Calculate method signature\n        bytes4 _sig = this.receiveXChainWithdrawalRequest.selector;\n        // Calculate abi encoded bytes for input args\n        bytes memory _inputs = abi.encode(\n            _originChainId,\n            _originAccount,\n            _pid,\n            _trancheId,\n            _maxMarketMovement\n        );\n        // Concatenate bytes of signature and inputs\n        return bytes.concat(_sig, _inputs);\n    }\n\n    /* Encoding::repatriation */\n\n    /// @notice Encodes payload for making cross chain repatriation\n    /// @param _originChainId Zorro chain ID of chain that funds shall be repatriated back to\n    /// @param _pid Pool ID on current chain that withdrawal came from\n    /// @param _trancheId Tranche ID on current chain that withdrawal came from\n    /// @param _originRecipient Recipient on home chain that repatriated funds shall be sent to\n    /// @param _burnableZORRewards Qty of minted ZOR that needs to be burned on the home chain\n    /// @param _rewardsDue ZOR rewards due to the recipient\n    /// @return bytes ABI encoded payload\n    function _encodeXChainRepatriationPayload(\n        uint256 _originChainId,\n        uint256 _pid,\n        uint256 _trancheId,\n        bytes memory _originRecipient,\n        uint256 _burnableZORRewards,\n        uint256 _rewardsDue\n    ) internal pure returns (bytes memory) {\n        // Calculate method signature\n        bytes4 _sig = this.receiveXChainRepatriationRequest.selector;\n        // Calculate abi encoded bytes for input args\n        bytes memory _inputs = abi.encode(\n            _originChainId,\n            _pid,\n            _trancheId,\n            _originRecipient,\n            _burnableZORRewards,\n            _rewardsDue\n        );\n        // Concatenate bytes of signature and inputs\n        return bytes.concat(_sig, _inputs);\n    }\n\n    /* Sending */\n\n    /* Sending::withdrawals */\n\n    /// @notice Prepares and sends a cross chain withdrwal request.\n    /// @dev Requires value to be submitted to pay for cross chain transaction. Use checkXChainWithdrawalFee() to estimate fees\n    /// @param _destZorroChainId The Zorro chain ID of the remote chain to withdraw from\n    /// @param _pid The pool ID on the remote chain\n    /// @param _trancheId The ID of the tranche for the given user and pool\n    /// @param _maxMarketMovement Acceptable degree of slippage on any transaction (e.g. 950 = 5%, 990 = 1% etc.)\n    /// @param _gasForDestinationLZReceive How much additional gas to provide at destination contract\n    function sendXChainWithdrawalRequest(\n        uint256 _destZorroChainId,\n        uint256 _pid,\n        uint256 _trancheId,\n        uint256 _maxMarketMovement,\n        uint256 _gasForDestinationLZReceive\n    ) external payable nonReentrant {\n        // Prep payload\n        bytes memory _payload = _encodeXChainWithdrawalPayload(\n            chainId,\n            abi.encodePacked(msg.sender),\n            _pid,\n            _trancheId,\n            _maxMarketMovement\n        );\n\n        // Destination info\n        bytes memory _dstContract = controllerContractsMap[_destZorroChainId];\n\n        // Send LayerZero request\n        _callLZSend(\n            LZMessagePayload({\n                zorroChainId: _destZorroChainId,\n                destinationContract: _dstContract,\n                payload: _payload,\n                refundAddress: payable(msg.sender),\n                _zroPaymentAddress: address(0),\n                adapterParams: _getLZAdapterParamsForWithdraw(\n                    _gasForDestinationLZReceive\n                )\n            })\n        );\n    }\n\n    /* Sending::repatriation */\n\n    /// @notice Prepares and sends cross chain repatriation request via Stargate\n    /// @param _originChainId Chain ID of origin chain that repatriation shall go to\n    /// @param _pid Pool ID on current chain that withdrawal came from\n    /// @param _trancheId Tranche ID on current chain that withdrawal came from\n    /// @param _originRecipient Recipient on home chain that repatriate funds shall go to\n    /// @param _amountUSDC Amount withdrawn, to be repatriated\n    /// @param _burnableZORRewards ZOR rewards minted, to be burned from the public pool on the home chain\n    /// @param _rewardsDue ZOR rewards due to the recipient\n    /// @param _maxMarketMovementAllowed Acceptable slippage (950 = 5%, 990 = 1%, etc.)\n    function _sendXChainRepatriationRequest(\n        uint256 _originChainId,\n        uint256 _pid,\n        uint256 _trancheId,\n        bytes memory _originRecipient,\n        uint256 _amountUSDC,\n        uint256 _burnableZORRewards,\n        uint256 _rewardsDue,\n        uint256 _maxMarketMovementAllowed\n    ) internal {\n        // Prep payload\n        bytes memory _payload = _encodeXChainRepatriationPayload(\n            _originChainId,\n            _pid,\n            _trancheId,\n            _originRecipient,\n            _burnableZORRewards,\n            _rewardsDue\n        );\n        // Destination info\n        bytes memory _dstContract = controllerContractsMap[_originChainId];\n\n        // Send Stargate request\n        _callStargateSwap(\n            StargateSwapPayload({\n                chainId: _originChainId,\n                qty: _amountUSDC,\n                dstContract: _dstContract,\n                payload: _payload,\n                maxMarketMovement: _maxMarketMovementAllowed\n            })\n        );\n    }\n\n    /* Receiving */\n\n    /* Receiving::withdrawals */\n\n    /// @notice Dummy func to allow .selector call above and guarantee typesafety for abi calls.\n    /// @dev Should never ever be actually called.\n    function receiveXChainWithdrawalRequest(\n        uint256 _originChainId,\n        bytes memory _originAccount,\n        uint256 _pid,\n        uint256 _trancheId,\n        uint256 _maxMarketMovement\n    ) public {\n        // Revert to make sure this function never gets called\n        revert(\"illegal dummy func call\");\n\n        // But still include the function call here anyway to satisfy type safety requirements in case there is a change\n        _receiveXChainWithdrawalRequest(\n            _originChainId,\n            _originAccount,\n            _pid,\n            _trancheId,\n            _maxMarketMovement\n        );\n    }\n\n    /// @notice Handler for receiving withdrawal requests\n    /// @param _originChainId Zorro Chain ID of the chain that this request came from\n    /// @param _originAccount Wallet address of sender who initiated this request on the origin chain\n    /// @param _pid Pool ID to withdraw from\n    /// @param _trancheId Tranche ID to withdraw from\n    /// @param _maxMarketMovement Slippage factor (e.g. 950 = 5%, 990 = 1%, etc.)\n    function _receiveXChainWithdrawalRequest(\n        uint256 _originChainId,\n        bytes memory _originAccount,\n        uint256 _pid,\n        uint256 _trancheId,\n        uint256 _maxMarketMovement\n    ) internal {\n        // Get on-chain account using foreign account as guide\n        address _account = foreignTrancheInfo[_pid][_originAccount][_trancheId];\n\n        // Withdraw funds\n        (\n            ,\n            uint256 _mintedZORRewards,\n            uint256 _rewardsDue,\n\n        ) = _withdrawalFullService(\n                _account,\n                _originAccount,\n                _pid,\n                _trancheId,\n                false,\n                _maxMarketMovement\n            );\n\n        // Get USDC bal\n        uint256 _balUSDC = IERC20(defaultStablecoin).balanceOf(address(this));\n\n        // Only proceed if there is something to withdraw\n        require(_balUSDC > 0, \"Nothing to withdraw\");\n\n        // Repatriate funds\n        _sendXChainRepatriationRequest(\n            _originChainId,\n            _pid,\n            _trancheId,\n            _originAccount,\n            _balUSDC,\n            _mintedZORRewards,\n            _rewardsDue,\n            _maxMarketMovement\n        );\n    }\n\n    /* Receiving::repatriation */\n\n    /// @notice Dummy func to allow .selector call above and guarantee typesafety for abi calls.\n    /// @dev Should never ever be actually called.\n    function receiveXChainRepatriationRequest(\n        uint256 _originChainId,\n        uint256 _pid,\n        uint256 _trancheId,\n        bytes memory _originRecipient,\n        uint256 _burnableZORRewards,\n        uint256 _rewardsDue\n    ) public {\n        // Revert to make sure this function never gets called\n        revert(\"illegal dummy func call\");\n\n        // But still include the function call here anyway to satisfy type safety requirements in case there is a change\n        _receiveXChainRepatriationRequest(\n            _originChainId,\n            _pid,\n            _trancheId,\n            _originRecipient,\n            _burnableZORRewards,\n            _rewardsDue\n        );\n    }\n\n    /// @notice Receives a repatriation request from another chain and takes care of all financial operations (unlock/mint/burn) to pay the user their withdrawn funds from another chain\n    /// @param _originChainId The Chain ID of the investment being repatriated\n    /// @param _pid The pid of the investment being repatriated\n    /// @param _trancheId The tranche ID of the investment being repatriated\n    /// @param _originRecipient The wallet address on this chain that funds are being repatriated to\n    /// @param _burnableZORRewards The amount of ZOR token to be burned (since rewards were minted on the opposite chain)\n    /// @param _rewardsDue ZOR rewards due to the recipient\n    function _receiveXChainRepatriationRequest(\n        uint256 _originChainId,\n        uint256 _pid,\n        uint256 _trancheId,\n        bytes memory _originRecipient,\n        uint256 _burnableZORRewards,\n        uint256 _rewardsDue\n    ) internal {\n        // Emit repatriation event\n        emit XChainRepatriation(\n            _pid,\n            abi.decode(_originRecipient, (address)),\n            _burnableZORRewards,\n            _trancheId,\n            _originChainId\n        );\n\n        // Mint ZOR and send to user\n        Zorro(ZORRO).mint(abi.decode(_originRecipient, (address)), _rewardsDue);\n\n        // Burn ZOR rewards as applicable (since rewards were minted on the other chain)\n        if (_burnableZORRewards > 0) {\n            Zorro(ZORRO).burn(publicPool, _burnableZORRewards);\n        }\n    }\n}\n",
  "sourcePath": "/Users/kristophm/Documents/workspace/zorro-protocol/contracts/controllers/_ZorroControllerXChainWithdraw.sol",
  "compiler": {
    "name": "solc",
    "version": "0.8.10+commit.fc410830.Emscripten.clang"
  },
  "schemaVersion": "3.4.4",
  "updatedAt": "2022-04-07T12:24:25.814Z",
  "devdoc": {
    "kind": "dev",
    "methods": {
      "checkXChainRepatriationFee(uint256,uint256,uint256,bytes,uint256,uint256,uint256)": {
        "params": {
          "_burnableZORRewards": "Quantity of ZOR tokens minted for rewards here that need to be burned on the home chain",
          "_gasForDestinationLZReceive": "How much additional gas to provide at destination contract",
          "_originChainId": "Zorro chain ID of chain to which funds are to be repatriated to",
          "_originRecipient": "Recipient of funds on the origin chain",
          "_pid": "Pool ID on current chain",
          "_rewardsDue": "ZOR rewards due to the recipient",
          "_trancheId": "ID of tranche on current chain that funds were withdrawn from"
        },
        "returns": {
          "_0": "uint256 Estimated fee in native tokens"
        }
      },
      "checkXChainWithdrawalFee(uint256,uint256,uint256,uint256,uint256)": {
        "params": {
          "_gasForDestinationLZReceive": "How much additional gas to provide at destination contract",
          "_maxMarketMovement": "Acceptable degree of slippage on any transaction (e.g. 950 = 5%, 990 = 1% etc.)",
          "_pid": "The pool ID on the remote chain",
          "_trancheId": "The tranche ID on the remote chain",
          "_zorroChainId": "The Zorro Chain ID (not the LayerZero one)"
        },
        "returns": {
          "_0": "uint256 Expected fee to pay for bridging/cross chain execution"
        }
      },
      "deposit(uint256,uint256,uint256)": {
        "params": {
          "_pid": "index of pool",
          "_wantAmt": "how much Want token to deposit",
          "_weeksCommitted": "how many weeks the user is committing to on this vault"
        }
      },
      "depositFullService(uint256,uint256,uint256,uint256)": {
        "params": {
          "_maxMarketMovement": "factor to account for max market movement/slippage. The definition varies by Vault, so consult the associated Vault contract for info",
          "_pid": "index of pool to deposit into",
          "_valueUSDC": "value in USDC (in ether units) to deposit",
          "_weeksCommitted": "how many weeks to commit to the Pool (can be 0 or any uint)"
        }
      },
      "getTimeMultiplier(uint256)": {
        "params": {
          "durationInWeeks": "number of weeks committed into Vault"
        },
        "returns": {
          "_0": "multiplier factor, times 1e12"
        }
      },
      "getUserContribution(uint256,uint256)": {
        "params": {
          "_liquidityCommitted": "How many tokens staked (e.g. LP tokens)",
          "_timeMultiplier": "Time multiplier value (from getTimeMultiplier())"
        },
        "returns": {
          "_0": "The relative contribution of the user (unitless)"
        }
      },
      "inCaseTokensGetStuck(address,uint256)": {
        "details": "Does not permit usage for the Zorro token",
        "params": {
          "_amount": "token quantity",
          "_token": "ERC20 token address"
        }
      },
      "owner()": {
        "details": "Returns the address of the current owner."
      },
      "poolLength()": {
        "returns": {
          "_0": "Number of pools"
        }
      },
      "receiveXChainRepatriationRequest(uint256,uint256,uint256,bytes,uint256,uint256)": {
        "details": "Should never ever be actually called."
      },
      "receiveXChainWithdrawalRequest(uint256,bytes,uint256,uint256,uint256)": {
        "details": "Should never ever be actually called."
      },
      "renounceOwnership()": {
        "details": "Leaves the contract without owner. It will not be possible to call `onlyOwner` functions anymore. Can only be called by the current owner. NOTE: Renouncing ownership will leave the contract without an owner, thereby removing any functionality that is only available to the owner."
      },
      "sendXChainWithdrawalRequest(uint256,uint256,uint256,uint256,uint256)": {
        "details": "Requires value to be submitted to pay for cross chain transaction. Use checkXChainWithdrawalFee() to estimate fees",
        "params": {
          "_destZorroChainId": "The Zorro chain ID of the remote chain to withdraw from",
          "_gasForDestinationLZReceive": "How much additional gas to provide at destination contract",
          "_maxMarketMovement": "Acceptable degree of slippage on any transaction (e.g. 950 = 5%, 990 = 1% etc.)",
          "_pid": "The pool ID on the remote chain",
          "_trancheId": "The ID of the tranche for the given user and pool"
        }
      },
      "setControllerContract(uint256,bytes)": {
        "params": {
          "_controller": "Bytes representation of smart contract address for cross chain contract",
          "_zorroChainId": "Zorro Chain ID"
        }
      },
      "setIsTimeMultiplierActive(bool)": {
        "params": {
          "_isActive": "Whether it shall be active. If false, timemultiplier will be 1."
        }
      },
      "setKeyAddresses(address,address)": {
        "params": {
          "_ZORRO": "ZOR token address",
          "_defaultStablecoin": "Main stablecoin address (USDC)"
        }
      },
      "setPriceFeeds(address,address)": {
        "params": {
          "_priceFeedLPPoolOtherToken": "The address of the price feed for the counterparty token in the ZOR LP Pool",
          "_priceFeedZOR": "The address of the price feed for ZOR"
        }
      },
      "setRewardsParams(uint256[],uint256[],uint256,uint256)": {
        "details": "NOTE: Must enter all parameters or existing ones will be overwritten!",
        "params": {
          "_baseRewardRateBasisPoints": "Base reward rate factor, in bp",
          "_blockParams": "Array of [blocksPerDay, ZORROPerBlock]",
          "_chainMultiplier": "Rewards multiplier factor to be applied to this chain",
          "_dailyDistFactors": "Array of [ZORRODailyDistributionFactorBasisPointsMin, ZORRODailyDistributionFactorBasisPointsMax]"
        }
      },
      "setStargateDestPoolIds(uint256,uint16)": {
        "params": {
          "_stargatePoolId": "Stargate pool ID",
          "_zorroChainId": "Zorro chain ID"
        }
      },
      "setTargetTVLCaptureBasisPoints(uint256)": {
        "params": {
          "_targetTVLCaptureBasisPoints": "Percent of market desired to be captured, in bp. 333 = 3.33%. ONLY to be set on the home chain"
        }
      },
      "setUSDCToZORPath(address[])": {
        "params": {
          "_path": "Swap path"
        }
      },
      "setUSDCToZorroLPPoolOtherTokenPath(address[])": {
        "params": {
          "_path": "Swap path"
        }
      },
      "setUniRouter(address)": {
        "params": {
          "_uniV2Router": "Address of router"
        }
      },
      "setXChainParams(uint256,uint256,address)": {
        "params": {
          "_chainId": "The ind of the chain that this contract is on",
          "_homeChainId": "The chain ID of the home chain",
          "_homeChainZorroController": "The address of the home chain controller"
        }
      },
      "setZorroChainToLZMap(uint256,uint16)": {
        "params": {
          "_lzChainId": "LayerZero Chain ID",
          "_zorroChainId": "Zorro chain ID"
        }
      },
      "setZorroContracts(address,address)": {
        "params": {
          "_publicPool": "Public pool address (where ZOR minted)",
          "_zorroStakingVault": "Zorro single staking vault address"
        }
      },
      "setZorroControllerOracle(address)": {
        "params": {
          "_zorroControllerOracle": "Address of Chainlink oracle that can interact with this contract"
        }
      },
      "setZorroLPPoolParams(address,address)": {
        "params": {
          "_zorroLPPool": "Address of the Zorro-X LP pool",
          "_zorroLPPoolOtherToken": "Address of the counterpart token to the ZOR token in the LP Pool"
        }
      },
      "setZorroPerBlock(uint256,uint256,uint256,uint256,uint256)": {
        "details": "Values to be provided by Oracle. Perferable to run daily",
        "params": {
          "_ZorroTotalVaultTVLUSD": "USD value of all TVL locked into the Zorro protocol, across all chains",
          "_publicPoolZORBalance": "Number of ZOR tokens remaining in public pool on home chain",
          "_targetTVLCaptureBasisPoints": "% desired capture of total market TVL, measured in basis points",
          "_totalChainMultipliers": "Sum total of all chain multipliers for each chain",
          "_totalMarketTVLUSD": "Total DeFi market TVL across all chains (measured in USD)"
        }
      },
      "trancheLength(uint256,address)": {
        "params": {
          "_pid": "Index of pool",
          "_user": "wallet address of user"
        },
        "returns": {
          "_0": "Number of tranches"
        }
      },
      "transferInvestment(uint256,uint256,uint256,uint256)": {
        "params": {
          "_fromPid": "index of pool FROM",
          "_fromTrancheId": "index of tranche FROM",
          "_maxMarketMovement": "factor to account for max market movement/slippage. The definition varies by Vault, so consult the associated Vault contract for info",
          "_toPid": "index of pool TO"
        }
      },
      "transferOwnership(address)": {
        "details": "Transfers ownership of the contract to a new account (`newOwner`). Can only be called by the current owner."
      },
      "updatePool(uint256)": {
        "params": {
          "_pid": "index of pool"
        },
        "returns": {
          "_0": "uint256 Amount of ZOR rewards minted (useful for cross chain)"
        }
      },
      "withdraw(uint256,uint256,bool)": {
        "params": {
          "_harvestOnly": "If true, will only harvest Zorro tokens but not do a withdrawal",
          "_pid": "index of pool",
          "_trancheId": "index of tranche"
        },
        "returns": {
          "_0": "Amount of Want token withdrawn"
        }
      },
      "withdrawAll(uint256)": {
        "params": {
          "_pid": "index of pool"
        }
      },
      "withdrawalFullService(uint256,uint256,bool,uint256)": {
        "params": {
          "_harvestOnly": "If true, will only harvest Zorro tokens but not do a withdrawal",
          "_maxMarketMovement": "factor to account for max market movement/slippage. The definition varies by Vault, so consult the associated Vault contract for info",
          "_pid": "index of pool to deposit into",
          "_trancheId": "index of tranche"
        },
        "returns": {
          "_0": "Amount (in USDC) returned"
        }
      }
    },
    "version": 1
  },
  "userdoc": {
    "kind": "user",
    "methods": {
      "checkXChainRepatriationFee(uint256,uint256,uint256,bytes,uint256,uint256,uint256)": {
        "notice": "Estimates fees for repatriation operation"
      },
      "checkXChainWithdrawalFee(uint256,uint256,uint256,uint256,uint256)": {
        "notice": "Checks to see how much a cross chain withdrawal will cost"
      },
      "deposit(uint256,uint256,uint256)": {
        "notice": "Deposit Want tokens to associated Vault"
      },
      "depositFullService(uint256,uint256,uint256,uint256)": {
        "notice": "Deposits funds in a full service manner (performs autoswaps and obtains Want tokens)"
      },
      "getTimeMultiplier(uint256)": {
        "notice": "Calculate time multiplier based on duration committed"
      },
      "getUserContribution(uint256,uint256)": {
        "notice": "The contribution of the user, meant to be used in rewards allocations"
      },
      "inCaseTokensGetStuck(address,uint256)": {
        "notice": "For owner to recover ERC20 tokens on this contract if stuck"
      },
      "poolLength()": {
        "notice": "Number of pools in the Zorro protocol"
      },
      "receiveXChainRepatriationRequest(uint256,uint256,uint256,bytes,uint256,uint256)": {
        "notice": "Dummy func to allow .selector call above and guarantee typesafety for abi calls."
      },
      "receiveXChainWithdrawalRequest(uint256,bytes,uint256,uint256,uint256)": {
        "notice": "Dummy func to allow .selector call above and guarantee typesafety for abi calls."
      },
      "sendXChainWithdrawalRequest(uint256,uint256,uint256,uint256,uint256)": {
        "notice": "Prepares and sends a cross chain withdrwal request."
      },
      "setControllerContract(uint256,bytes)": {
        "notice": "Setter: Controller contract for each chain"
      },
      "setIsTimeMultiplierActive(bool)": {
        "notice": "Setter: Set time multiplier"
      },
      "setKeyAddresses(address,address)": {
        "notice": "Setter: Set key token addresses"
      },
      "setLayerZeroParams(address,uint256,address)": {
        "notice": "Setter: Set main LZ params"
      },
      "setPriceFeeds(address,address)": {
        "notice": "Setter: Chainlink price feeds"
      },
      "setRewardsParams(uint256[],uint256[],uint256,uint256)": {
        "notice": "Setter: Reward params (See Tokenomics paper for more details)"
      },
      "setStargateDestPoolIds(uint256,uint16)": {
        "notice": "Setter: Stargate dest pool IDs for USD asset"
      },
      "setStartBlock(uint256)": {
        "notice": "Setter: Start block for rewards"
      },
      "setTargetTVLCaptureBasisPoints(uint256)": {
        "notice": "Setter: TVL capture (See Tokenomics paper)"
      },
      "setUSDCToZORPath(address[])": {
        "notice": "Setter: Set path for token swap from USDC to ZOR"
      },
      "setUSDCToZorroLPPoolOtherTokenPath(address[])": {
        "notice": "Setter: Set path for token swap from USDC to counterparty token in ZOR LP pool"
      },
      "setUniRouter(address)": {
        "notice": "Setter: Uniswap-compatible router address"
      },
      "setXChainParams(uint256,uint256,address)": {
        "notice": "Setter: Cross chain params"
      },
      "setZorroChainToLZMap(uint256,uint16)": {
        "notice": "Setter: LZ/Stargate params"
      },
      "setZorroContracts(address,address)": {
        "notice": "Setter: Set key ZOR contract addresses"
      },
      "setZorroControllerOracle(address)": {
        "notice": "Setter: Set Zorro Controller Oracle"
      },
      "setZorroLPPoolParams(address,address)": {
        "notice": "Setter: Zorro LP Pool params"
      },
      "setZorroPerBlock(uint256,uint256,uint256,uint256,uint256)": {
        "notice": "Set the number of Zorro to emit per block based on current market parameters"
      },
      "trancheLength(uint256,address)": {
        "notice": "Number of tranches invested by a given user into a given pool"
      },
      "transferInvestment(uint256,uint256,uint256,uint256)": {
        "notice": "Transfer all assets from a tranche in one vault to a new vault (works on-chain only)"
      },
      "updatePool(uint256)": {
        "notice": "Update reward variables of the given pool to be up-to-date."
      },
      "withdraw(uint256,uint256,bool)": {
        "notice": "Fully withdraw Want tokens from underlying Vault."
      },
      "withdrawAll(uint256)": {
        "notice": "Withdraw the maximum number of Want tokens from a pool"
      },
      "withdrawalFullService(uint256,uint256,bool,uint256)": {
        "notice": "Withdraws funds from a pool and converts the Want token into USDC"
      }
    },
    "version": 1
  }
}