{
  "contractName": "ZorroController",
  "abi": [
    {
      "inputs": [
        {
          "internalType": "address",
          "name": "_timelockOwner",
          "type": "address"
        },
        {
          "internalType": "address",
          "name": "_zorroToken",
          "type": "address"
        },
        {
          "internalType": "uint256",
          "name": "_startBlock",
          "type": "uint256"
        },
        {
          "internalType": "address",
          "name": "_publicPool",
          "type": "address"
        },
        {
          "internalType": "uint256",
          "name": "_BSCMarketTVLUSD",
          "type": "uint256"
        },
        {
          "internalType": "uint256",
          "name": "_ZorroTotalVaultTVLUSD",
          "type": "uint256"
        },
        {
          "internalType": "uint256",
          "name": "_targetTVLCaptureBasisPoints",
          "type": "uint256"
        },
        {
          "internalType": "address",
          "name": "_defaultStablecoin",
          "type": "address"
        }
      ],
      "stateMutability": "nonpayable",
      "type": "constructor"
    },
    {
      "anonymous": false,
      "inputs": [
        {
          "indexed": true,
          "internalType": "address",
          "name": "user",
          "type": "address"
        },
        {
          "indexed": true,
          "internalType": "uint256",
          "name": "pid",
          "type": "uint256"
        },
        {
          "indexed": true,
          "internalType": "uint256",
          "name": "settlementEpoch",
          "type": "uint256"
        },
        {
          "indexed": false,
          "internalType": "uint256",
          "name": "value",
          "type": "uint256"
        },
        {
          "indexed": false,
          "internalType": "address",
          "name": "token",
          "type": "address"
        }
      ],
      "name": "ClaimCreated",
      "type": "event"
    },
    {
      "anonymous": false,
      "inputs": [
        {
          "indexed": true,
          "internalType": "address",
          "name": "user",
          "type": "address"
        },
        {
          "indexed": true,
          "internalType": "uint256",
          "name": "pid",
          "type": "uint256"
        },
        {
          "indexed": false,
          "internalType": "uint256",
          "name": "wantAmount",
          "type": "uint256"
        }
      ],
      "name": "Deposit",
      "type": "event"
    },
    {
      "anonymous": false,
      "inputs": [
        {
          "indexed": true,
          "internalType": "address",
          "name": "previousOwner",
          "type": "address"
        },
        {
          "indexed": true,
          "internalType": "address",
          "name": "newOwner",
          "type": "address"
        }
      ],
      "name": "OwnershipTransferred",
      "type": "event"
    },
    {
      "anonymous": false,
      "inputs": [
        {
          "indexed": false,
          "internalType": "address",
          "name": "user",
          "type": "address"
        },
        {
          "indexed": true,
          "internalType": "uint256",
          "name": "fromPid",
          "type": "uint256"
        },
        {
          "indexed": true,
          "internalType": "uint256",
          "name": "fromTrancheId",
          "type": "uint256"
        },
        {
          "indexed": true,
          "internalType": "uint256",
          "name": "toPid",
          "type": "uint256"
        }
      ],
      "name": "TransferInvestment",
      "type": "event"
    },
    {
      "anonymous": false,
      "inputs": [
        {
          "indexed": true,
          "internalType": "address",
          "name": "user",
          "type": "address"
        },
        {
          "indexed": true,
          "internalType": "uint256",
          "name": "pid",
          "type": "uint256"
        },
        {
          "indexed": false,
          "internalType": "uint256",
          "name": "trancheId",
          "type": "uint256"
        },
        {
          "indexed": false,
          "internalType": "uint256",
          "name": "wantAmount",
          "type": "uint256"
        }
      ],
      "name": "Withdraw",
      "type": "event"
    },
    {
      "inputs": [],
      "name": "BSCMarketTVLUSD",
      "outputs": [
        {
          "internalType": "uint256",
          "name": "",
          "type": "uint256"
        }
      ],
      "stateMutability": "view",
      "type": "function"
    },
    {
      "inputs": [],
      "name": "ZORRO",
      "outputs": [
        {
          "internalType": "address",
          "name": "",
          "type": "address"
        }
      ],
      "stateMutability": "view",
      "type": "function"
    },
    {
      "inputs": [],
      "name": "ZORRODailyDistributionFactorBasisPointsMax",
      "outputs": [
        {
          "internalType": "uint256",
          "name": "",
          "type": "uint256"
        }
      ],
      "stateMutability": "view",
      "type": "function"
    },
    {
      "inputs": [],
      "name": "ZORRODailyDistributionFactorBasisPointsMin",
      "outputs": [
        {
          "internalType": "uint256",
          "name": "",
          "type": "uint256"
        }
      ],
      "stateMutability": "view",
      "type": "function"
    },
    {
      "inputs": [],
      "name": "ZorroTotalVaultTVLUSD",
      "outputs": [
        {
          "internalType": "uint256",
          "name": "",
          "type": "uint256"
        }
      ],
      "stateMutability": "view",
      "type": "function"
    },
    {
      "inputs": [
        {
          "internalType": "uint256",
          "name": "_allocPoint",
          "type": "uint256"
        },
        {
          "internalType": "contract IERC20",
          "name": "_want",
          "type": "address"
        },
        {
          "internalType": "bool",
          "name": "_withUpdate",
          "type": "bool"
        },
        {
          "internalType": "address",
          "name": "_vault",
          "type": "address"
        },
        {
          "internalType": "address",
          "name": "_intermediaryToken",
          "type": "address"
        }
      ],
      "name": "add",
      "outputs": [],
      "stateMutability": "nonpayable",
      "type": "function"
    },
    {
      "inputs": [],
      "name": "baseRewardRateBasisPoints",
      "outputs": [
        {
          "internalType": "uint256",
          "name": "",
          "type": "uint256"
        }
      ],
      "stateMutability": "view",
      "type": "function"
    },
    {
      "inputs": [],
      "name": "blocksPerDay",
      "outputs": [
        {
          "internalType": "uint256",
          "name": "",
          "type": "uint256"
        }
      ],
      "stateMutability": "view",
      "type": "function"
    },
    {
      "inputs": [],
      "name": "burnAddress",
      "outputs": [
        {
          "internalType": "address",
          "name": "",
          "type": "address"
        }
      ],
      "stateMutability": "view",
      "type": "function"
    },
    {
      "inputs": [
        {
          "internalType": "uint256",
          "name": "",
          "type": "uint256"
        },
        {
          "internalType": "address",
          "name": "",
          "type": "address"
        },
        {
          "internalType": "address",
          "name": "",
          "type": "address"
        }
      ],
      "name": "claims",
      "outputs": [
        {
          "internalType": "uint256",
          "name": "preSettlementAmount",
          "type": "uint256"
        },
        {
          "internalType": "uint256",
          "name": "settlementEpoch",
          "type": "uint256"
        },
        {
          "internalType": "bool",
          "name": "settled",
          "type": "bool"
        },
        {
          "internalType": "uint256",
          "name": "reason",
          "type": "uint256"
        }
      ],
      "stateMutability": "view",
      "type": "function"
    },
    {
      "inputs": [],
      "name": "defaultStablecoin",
      "outputs": [
        {
          "internalType": "address",
          "name": "",
          "type": "address"
        }
      ],
      "stateMutability": "view",
      "type": "function"
    },
    {
      "inputs": [
        {
          "internalType": "uint256",
          "name": "_pid",
          "type": "uint256"
        },
        {
          "internalType": "uint256",
          "name": "_wantAmt",
          "type": "uint256"
        },
        {
          "internalType": "uint256",
          "name": "_weeksCommitted",
          "type": "uint256"
        }
      ],
      "name": "deposit",
      "outputs": [],
      "stateMutability": "nonpayable",
      "type": "function"
    },
    {
      "inputs": [
        {
          "internalType": "uint256",
          "name": "_pid",
          "type": "uint256"
        },
        {
          "internalType": "uint256",
          "name": "_valueUSDC",
          "type": "uint256"
        },
        {
          "internalType": "uint256",
          "name": "_weeksCommitted",
          "type": "uint256"
        },
        {
          "internalType": "uint256",
          "name": "_maxMarketMovement",
          "type": "uint256"
        }
      ],
      "name": "depositFullService",
      "outputs": [],
      "stateMutability": "nonpayable",
      "type": "function"
    },
    {
      "inputs": [],
      "name": "getZorroPerBlock",
      "outputs": [
        {
          "internalType": "uint256",
          "name": "",
          "type": "uint256"
        }
      ],
      "stateMutability": "view",
      "type": "function"
    },
    {
      "inputs": [
        {
          "internalType": "address",
          "name": "_token",
          "type": "address"
        },
        {
          "internalType": "uint256",
          "name": "_amount",
          "type": "uint256"
        }
      ],
      "name": "inCaseTokensGetStuck",
      "outputs": [],
      "stateMutability": "nonpayable",
      "type": "function"
    },
    {
      "inputs": [],
      "name": "isTimeMultiplierActive",
      "outputs": [
        {
          "internalType": "bool",
          "name": "",
          "type": "bool"
        }
      ],
      "stateMutability": "view",
      "type": "function"
    },
    {
      "inputs": [],
      "name": "massUpdatePools",
      "outputs": [],
      "stateMutability": "nonpayable",
      "type": "function"
    },
    {
      "inputs": [],
      "name": "owner",
      "outputs": [
        {
          "internalType": "address",
          "name": "",
          "type": "address"
        }
      ],
      "stateMutability": "view",
      "type": "function"
    },
    {
      "inputs": [
        {
          "internalType": "uint256",
          "name": "_pid",
          "type": "uint256"
        },
        {
          "internalType": "address",
          "name": "_user",
          "type": "address"
        }
      ],
      "name": "pendingZORRORewards",
      "outputs": [
        {
          "internalType": "uint256",
          "name": "",
          "type": "uint256"
        }
      ],
      "stateMutability": "view",
      "type": "function"
    },
    {
      "inputs": [
        {
          "internalType": "uint256",
          "name": "",
          "type": "uint256"
        }
      ],
      "name": "poolInfo",
      "outputs": [
        {
          "internalType": "contract IERC20",
          "name": "want",
          "type": "address"
        },
        {
          "internalType": "uint256",
          "name": "allocPoint",
          "type": "uint256"
        },
        {
          "internalType": "uint256",
          "name": "lastRewardBlock",
          "type": "uint256"
        },
        {
          "internalType": "uint256",
          "name": "accZORRORewards",
          "type": "uint256"
        },
        {
          "internalType": "uint256",
          "name": "totalTrancheContributions",
          "type": "uint256"
        },
        {
          "internalType": "address",
          "name": "vault",
          "type": "address"
        },
        {
          "internalType": "address",
          "name": "intermediaryToken",
          "type": "address"
        }
      ],
      "stateMutability": "view",
      "type": "function"
    },
    {
      "inputs": [],
      "name": "poolLength",
      "outputs": [
        {
          "internalType": "uint256",
          "name": "",
          "type": "uint256"
        }
      ],
      "stateMutability": "view",
      "type": "function"
    },
    {
      "inputs": [],
      "name": "publicPool",
      "outputs": [
        {
          "internalType": "address",
          "name": "",
          "type": "address"
        }
      ],
      "stateMutability": "view",
      "type": "function"
    },
    {
      "inputs": [
        {
          "internalType": "uint256",
          "name": "",
          "type": "uint256"
        },
        {
          "internalType": "address",
          "name": "",
          "type": "address"
        }
      ],
      "name": "redepositInfo",
      "outputs": [
        {
          "internalType": "uint256",
          "name": "durationCommittedInWeeks",
          "type": "uint256"
        },
        {
          "internalType": "uint256",
          "name": "enteredVaultAt",
          "type": "uint256"
        }
      ],
      "stateMutability": "view",
      "type": "function"
    },
    {
      "inputs": [],
      "name": "renounceOwnership",
      "outputs": [],
      "stateMutability": "nonpayable",
      "type": "function"
    },
    {
      "inputs": [
        {
          "internalType": "uint256",
          "name": "_pid",
          "type": "uint256"
        },
        {
          "internalType": "uint256",
          "name": "_allocPoint",
          "type": "uint256"
        },
        {
          "internalType": "bool",
          "name": "_withUpdate",
          "type": "bool"
        },
        {
          "internalType": "address",
          "name": "_intermediaryToken",
          "type": "address"
        }
      ],
      "name": "set",
      "outputs": [],
      "stateMutability": "nonpayable",
      "type": "function"
    },
    {
      "inputs": [
        {
          "internalType": "uint256",
          "name": "_BSCMarketTVLUSD",
          "type": "uint256"
        }
      ],
      "name": "setBSCMarketTVLUSD",
      "outputs": [],
      "stateMutability": "nonpayable",
      "type": "function"
    },
    {
      "inputs": [
        {
          "internalType": "uint256",
          "name": "_baseRewardRateBasisPoints",
          "type": "uint256"
        }
      ],
      "name": "setBaseRewardRateBasisPoints",
      "outputs": [],
      "stateMutability": "nonpayable",
      "type": "function"
    },
    {
      "inputs": [
        {
          "internalType": "uint256",
          "name": "_blocksPerDay",
          "type": "uint256"
        }
      ],
      "name": "setBlocksPerDay",
      "outputs": [],
      "stateMutability": "nonpayable",
      "type": "function"
    },
    {
      "inputs": [
        {
          "internalType": "bool",
          "name": "_isActive",
          "type": "bool"
        }
      ],
      "name": "setIsTimeMultiplierActive",
      "outputs": [],
      "stateMutability": "nonpayable",
      "type": "function"
    },
    {
      "inputs": [
        {
          "internalType": "address",
          "name": "_publicPoolAddress",
          "type": "address"
        }
      ],
      "name": "setPublicPool",
      "outputs": [],
      "stateMutability": "nonpayable",
      "type": "function"
    },
    {
      "inputs": [
        {
          "internalType": "uint256",
          "name": "_blockNumber",
          "type": "uint256"
        }
      ],
      "name": "setStartBlock",
      "outputs": [],
      "stateMutability": "nonpayable",
      "type": "function"
    },
    {
      "inputs": [
        {
          "internalType": "uint256",
          "name": "_targetTVLCaptureBasisPoints",
          "type": "uint256"
        }
      ],
      "name": "setTargetTVLCaptureBasisPoints",
      "outputs": [],
      "stateMutability": "nonpayable",
      "type": "function"
    },
    {
      "inputs": [
        {
          "internalType": "uint256",
          "name": "_value",
          "type": "uint256"
        }
      ],
      "name": "setZORRODailyDistributionFactorBasisPointsMax",
      "outputs": [],
      "stateMutability": "nonpayable",
      "type": "function"
    },
    {
      "inputs": [
        {
          "internalType": "uint256",
          "name": "_value",
          "type": "uint256"
        }
      ],
      "name": "setZORRODailyDistributionFactorBasisPointsMin",
      "outputs": [],
      "stateMutability": "nonpayable",
      "type": "function"
    },
    {
      "inputs": [
        {
          "internalType": "uint256",
          "name": "_ZorroTotalVaultTVLUSD",
          "type": "uint256"
        }
      ],
      "name": "setZorroTotalVaultTVLUSD",
      "outputs": [],
      "stateMutability": "nonpayable",
      "type": "function"
    },
    {
      "inputs": [
        {
          "internalType": "uint256",
          "name": "_pid",
          "type": "uint256"
        },
        {
          "internalType": "address",
          "name": "_user",
          "type": "address"
        }
      ],
      "name": "stakedWantTokens",
      "outputs": [
        {
          "internalType": "uint256",
          "name": "",
          "type": "uint256"
        }
      ],
      "stateMutability": "view",
      "type": "function"
    },
    {
      "inputs": [],
      "name": "startBlock",
      "outputs": [
        {
          "internalType": "uint256",
          "name": "",
          "type": "uint256"
        }
      ],
      "stateMutability": "view",
      "type": "function"
    },
    {
      "inputs": [],
      "name": "targetTVLCaptureBasisPoints",
      "outputs": [
        {
          "internalType": "uint256",
          "name": "",
          "type": "uint256"
        }
      ],
      "stateMutability": "view",
      "type": "function"
    },
    {
      "inputs": [],
      "name": "totalAllocPoint",
      "outputs": [
        {
          "internalType": "uint256",
          "name": "",
          "type": "uint256"
        }
      ],
      "stateMutability": "view",
      "type": "function"
    },
    {
      "inputs": [
        {
          "internalType": "uint256",
          "name": "",
          "type": "uint256"
        },
        {
          "internalType": "address",
          "name": "",
          "type": "address"
        },
        {
          "internalType": "uint256",
          "name": "",
          "type": "uint256"
        }
      ],
      "name": "trancheInfo",
      "outputs": [
        {
          "internalType": "uint256",
          "name": "contribution",
          "type": "uint256"
        },
        {
          "internalType": "uint256",
          "name": "timeMultiplier",
          "type": "uint256"
        },
        {
          "internalType": "uint256",
          "name": "rewardDebt",
          "type": "uint256"
        },
        {
          "internalType": "uint256",
          "name": "durationCommittedInWeeks",
          "type": "uint256"
        },
        {
          "internalType": "uint256",
          "name": "enteredVaultAt",
          "type": "uint256"
        }
      ],
      "stateMutability": "view",
      "type": "function"
    },
    {
      "inputs": [
        {
          "internalType": "uint256",
          "name": "_pid",
          "type": "uint256"
        },
        {
          "internalType": "address",
          "name": "_user",
          "type": "address"
        }
      ],
      "name": "trancheLength",
      "outputs": [
        {
          "internalType": "uint256",
          "name": "",
          "type": "uint256"
        }
      ],
      "stateMutability": "view",
      "type": "function"
    },
    {
      "inputs": [
        {
          "internalType": "uint256",
          "name": "_fromPid",
          "type": "uint256"
        },
        {
          "internalType": "uint256",
          "name": "_fromTrancheId",
          "type": "uint256"
        },
        {
          "internalType": "uint256",
          "name": "_toPid",
          "type": "uint256"
        },
        {
          "internalType": "uint256",
          "name": "_maxMarketMovement",
          "type": "uint256"
        }
      ],
      "name": "transferInvestment",
      "outputs": [],
      "stateMutability": "nonpayable",
      "type": "function"
    },
    {
      "inputs": [
        {
          "internalType": "address",
          "name": "newOwner",
          "type": "address"
        }
      ],
      "name": "transferOwnership",
      "outputs": [],
      "stateMutability": "nonpayable",
      "type": "function"
    },
    {
      "inputs": [
        {
          "internalType": "uint256",
          "name": "_pid",
          "type": "uint256"
        }
      ],
      "name": "updatePool",
      "outputs": [],
      "stateMutability": "nonpayable",
      "type": "function"
    },
    {
      "inputs": [
        {
          "internalType": "uint256",
          "name": "_pid",
          "type": "uint256"
        },
        {
          "internalType": "uint256",
          "name": "_trancheId",
          "type": "uint256"
        },
        {
          "internalType": "uint256",
          "name": "_wantAmt",
          "type": "uint256"
        }
      ],
      "name": "withdraw",
      "outputs": [
        {
          "internalType": "uint256",
          "name": "",
          "type": "uint256"
        }
      ],
      "stateMutability": "nonpayable",
      "type": "function"
    },
    {
      "inputs": [
        {
          "internalType": "uint256",
          "name": "_pid",
          "type": "uint256"
        }
      ],
      "name": "withdrawAll",
      "outputs": [],
      "stateMutability": "nonpayable",
      "type": "function"
    },
    {
      "inputs": [
        {
          "internalType": "uint256",
          "name": "_pid",
          "type": "uint256"
        },
        {
          "internalType": "uint256",
          "name": "_trancheId",
          "type": "uint256"
        },
        {
          "internalType": "uint256",
          "name": "_wantAmt",
          "type": "uint256"
        },
        {
          "internalType": "uint256",
          "name": "_maxMarketMovement",
          "type": "uint256"
        }
      ],
      "name": "withdrawalFullService",
      "outputs": [
        {
          "internalType": "uint256",
          "name": "",
          "type": "uint256"
        }
      ],
      "stateMutability": "nonpayable",
      "type": "function"
    }
  ],
  "bytecode": "0x608060405260038054600160a060020a03191661dead179055600a600681905561708090556001600b8190556014600c55600d805460ff1916909117905560006010553480156200004f57600080fd5b506040516200316f3803806200316f8339810160408190526200007291620002ed565b620000986200008964010000000062000119810204565b6401000000006200011d810204565b60018055620000b0886401000000006200016d810204565b60028054600160a060020a03988916600160a060020a031991821617909155600496909655600580549588169590961694909417909455600791909155600855600991909155600d8054919092166101000261010060a860020a03199091161790555062000371565b3390565b60008054600160a060020a03838116600160a060020a0319831681178455604051919092169283917f8be0079c531659141344cd1fd0a4f28419497f9722a3daafe3b4186f6b6457e09190a35050565b6200018064010000000062000119810204565b600160a060020a03166200019c640100000000620002c1810204565b600160a060020a03161462000212576040517f08c379a000000000000000000000000000000000000000000000000000000000815260206004820181905260248201527f4f776e61626c653a2063616c6c6572206973206e6f7420746865206f776e657260448201526064015b60405180910390fd5b600160a060020a038116620002aa576040517f08c379a000000000000000000000000000000000000000000000000000000000815260206004820152602660248201527f4f776e61626c653a206e6577206f776e657220697320746865207a65726f206160448201527f6464726573730000000000000000000000000000000000000000000000000000606482015260840162000209565b620002be816401000000006200011d810204565b50565b600054600160a060020a031690565b8051600160a060020a0381168114620002e857600080fd5b919050565b600080600080600080600080610100898b0312156200030b57600080fd5b6200031689620002d0565b97506200032660208a01620002d0565b9650604089015195506200033d60608a01620002d0565b94506080890151935060a0890151925060c089015191506200036260e08a01620002d0565b90509295985092959890939650565b612dee80620003816000396000f3fe608060405234801561001057600080fd5b50600436106102b1576000357c010000000000000000000000000000000000000000000000000000000090048063668ababb11610184578063a6fda082116100eb578063c9057de5116100a4578063c9057de514610683578063cb9c2f681461068c578063d731234714610695578063f2fde38b146106a8578063f35e4a6e146106bb578063fde2ec98146106ce57600080fd5b8063a6fda08214610551578063afecf266146105c3578063b4b4e9eb146105d6578063b61bb80a14610611578063c29de0d214610629578063c6d758cb1461067057600080fd5b80638c157db21161013d5780638c157db2146104d75780638da5cb5b146104ea578063941d3fd0146104fb57806394909cc214610518578063958e2d311461052b578063a41fe49f1461053e57600080fd5b8063668ababb146104585780636c78d49c1461048357806370d5ae0514610496578063715018a6146104a95780637b84daec146104b15780637e37c769146104c457600080fd5b80633b7106881161022857806348cd4cb1116101e157806348cd4cb11461040f5780634cfea68a1461041857806351eb05a61461042157806353f73f87146104345780635527a6f914610447578063630b5ba11461045057600080fd5b80633b710688146103bc5780633b9ce565146103c55780633bbc1ffc146103ce5780634098b0eb146103e1578063441e36c6146103f45780634780f9f5146103fc57600080fd5b80631479a6df1161027a5780631479a6df146103115780631526fe271461032457806317caf6f11461037a5780631ad3b1be14610383578063353b6c2c146103965780633b35b727146103a957600080fd5b8062aeef8a146102b657806305bfc28f146102cb578063081e3eda146102de5780630861429a146102f557806308da26fc14610308575b600080fd5b6102c96102c4366004612966565b6106e1565b005b6102c96102d9366004612992565b61072b565b600e545b6040519081526020015b60405180910390f35b6102e26103033660046129c0565b61075d565b6102e260085481565b6102c961031f366004612992565b6108ec565b610337610332366004612992565b61091e565b60408051600160a060020a039889168152602081019790975286019490945260608501929092526080840152831660a083015290911660c082015260e0016102ec565b6102e260105481565b6102e26103913660046129f0565b61097b565b6102c96103a4366004612992565b6109c5565b6102c96103b7366004612992565b6109f7565b6102e260065481565b6102e2600c5481565b6102c96103dc366004612992565b610a29565b6102c96103ef366004612992565b610a5b565b6102e2610a8d565b6102c961040a3660046129f0565b610ba4565b6102e260045481565b6102e2600a5481565b6102c961042f366004612992565b610be7565b6102e26104423660046129c0565b610cb7565b6102e2600b5481565b6102c9610cdf565b60055461046b90600160a060020a031681565b604051600160a060020a0390911681526020016102ec565b6102c9610491366004612a30565b610d6c565b60035461046b90600160a060020a031681565b6102c9610dac565b6102e26104bf3660046129c0565b610de5565b6102c96104d23660046129f0565b61101a565b60025461046b90600160a060020a031681565b600054600160a060020a031661046b565b600d546105089060ff1681565b60405190151581526020016102ec565b6102c9610526366004612a4d565b611179565b6102c9610539366004612992565b6111d5565b6102e261054c366004612966565b611237565b61059d61055f366004612a6a565b601160209081526000938452604080852082529284528284209052825290208054600182015460028301546003909301549192909160ff9091169084565b6040805194855260208501939093529015159183019190915260608201526080016102ec565b6102c96105d1366004612aac565b61127c565b6105e96105e4366004612af6565b611378565b604080519586526020860194909452928401919091526060830152608082015260a0016102ec565b600d5461046b906101009004600160a060020a031681565b61065b6106373660046129c0565b60126020908152600092835260408084209091529082529020805460019091015482565b604080519283526020830191909152016102ec565b6102c961067e366004612b2e565b6113d2565b6102e260075481565b6102e260095481565b6102c96106a3366004612992565b61149a565b6102c96106b6366004612a4d565b6114cc565b6102c96106c9366004612992565b611584565b6102c96106dc366004612b5a565b6115b6565b600260015414156107105760405160e560020a62461bcd02815260040161070790612bc2565b60405180910390fd5b600260015561072283338484426117ba565b50506001805550565b600054600160a060020a031633146107585760405160e560020a62461bcd02815260040161070790612bf9565b600855565b600080600e848154811061077357610773612c2e565b9060005260206000209060070201905060008160030154905081600201544311156108005760006107b1836002015443611a8d90919063ffffffff16565b905060006107bd610a8d565b905060006107ee6010546107e887600101546107e28688611aa090919063ffffffff16565b90611aa0565b90611aac565b90506107fa8482611ab8565b93505050505b6004820154610814576000925050506108e6565b60006108208686610cb7565b90506000805b828110156108df576000888152600f60209081526040808320600160a060020a038b168452909152812080548390811061086257610862612c2e565b90600052602060002090600502019050600061089687600401546107e8620f42408560000154611aa090919063ffffffff16565b90506108ca6108c383600201546108bd620f42406107e88b87611aa090919063ffffffff16565b90611a8d565b8590611ab8565b93505050806108d890612c60565b9050610826565b5093505050505b92915050565b600054600160a060020a031633146109195760405160e560020a62461bcd02815260040161070790612bf9565b600b55565b600e818154811061092e57600080fd5b60009182526020909120600790910201805460018201546002830154600384015460048501546005860154600690960154600160a060020a03958616975093959294919390928216911687565b6000600260015414156109a35760405160e560020a62461bcd02815260040161070790612bc2565b600260015560006109b78633878787611ac4565b600180559695505050505050565b600054600160a060020a031633146109f25760405160e560020a62461bcd02815260040161070790612bf9565b600a55565b600054600160a060020a03163314610a245760405160e560020a62461bcd02815260040161070790612bf9565b600c55565b600054600160a060020a03163314610a565760405160e560020a62461bcd02815260040161070790612bf9565b600955565b600054600160a060020a03163314610a885760405160e560020a62461bcd02815260040161070790612bf9565b600655565b600080610abf6008546107e8610ab0612710600954611aac90919063ffffffff16565b6007546006546107e291611aa0565b9050600c54811115610ad45750600c54610ae3565b600b54811015610ae35750600b545b6002546005546040517f70a08231000000000000000000000000000000000000000000000000000000008152600160a060020a03918216600482015260009291909116906370a0823190602401602060405180830381865afa158015610b4d573d6000803e3d6000fd5b505050506040513d601f19601f82011682018060405250810190610b719190612c7b565b90506000610b856127106107e88486611aa0565b9050610b9c600a5482611aac90919063ffffffff16565b935050505090565b60026001541415610bca5760405160e560020a62461bcd02815260040161070790612bc2565b6002600155610bdd843385854286611baa565b5050600180555050565b6000600e8281548110610bfc57610bfc612c2e565b9060005260206000209060070201905080600201544311610c1b575050565b6000610c34826002015443611a8d90919063ffffffff16565b905060008111610c4357505050565b6000610c4d610a8d565b90506000610c726010546107e886600101546107e28688611aa090919063ffffffff16565b600554600254919250610c9391600160a060020a0390811691163084611c83565b6003840154610ca29082611ab8565b60038501555050436002909201919091555050565b6000918252600f60209081526040808420600160a060020a0393909316845291905290205490565b600e5460005b81811015610d68576040517f51eb05a60000000000000000000000000000000000000000000000000000000081526004810182905230906351eb05a690602401600060405180830381600087803b158015610d3f57600080fd5b505af1158015610d53573d6000803e3d6000fd5b5050505080610d6190612c60565b9050610ce5565b5050565b600054600160a060020a03163314610d995760405160e560020a62461bcd02815260040161070790612bf9565b600d805460ff1916911515919091179055565b600054600160a060020a03163314610dd95760405160e560020a62461bcd02815260040161070790612bf9565b610de36000611d3a565b565b600080600e8481548110610dfb57610dfb612c2e565b9060005260206000209060070201905060008160050160009054906101000a9004600160a060020a0316600160a060020a03166344a3955e6040518163ffffffff167c0100000000000000000000000000000000000000000000000000000000028152600401602060405180830381865afa158015610e7e573d6000803e3d6000fd5b505050506040513d601f19601f82011682018060405250810190610ea29190612c7b565b90506000600e8681548110610eb957610eb9612c2e565b600091825260209182902060056007909202010154604080517f42da4eb30000000000000000000000000000000000000000000000000000000081529051600160a060020a03909216926342da4eb3926004808401938290030181865afa158015610f28573d6000803e3d6000fd5b505050506040513d601f19601f82011682018060405250810190610f4c9190612c7b565b905081610f5f57600093505050506108e6565b6000610f6b8787610cb7565b90506000805b8281101561100e576000898152600f60209081526040808320600160a060020a038c1684529091528120805483908110610fad57610fad612c2e565b906000526020600020906005020190506000610fe182600101546107e8620f42408560000154611aa090919063ffffffff16565b9050610ff96108c3886107e8620f424081868c611aa0565b935050508061100790612c60565b9050610f71565b50979650505050505050565b600260015414156110405760405160e560020a62461bcd02815260040161070790612bc2565b60026001556000848152600f60209081526040808320338452909152812080548590811061107057611070612c2e565b6000918252602080832060036005909302019190910154878352600f82526040808420338552909252908220805491935090869081106110b2576110b2612c2e565b906000526020600020906005020160040154905060006110d787338860001988611ac4565b90506060600d60019054906101000a9004600160a060020a03168160008151811061110457611104612c2e565b6020026020010190600160a060020a03169081600160a060020a03168152505061113286338487878a611baa565b604051338152869088908a907f67e7aba7263d8fbeb0cd9a2f4008f060a6a03f46c1d7f9d0550f0b93e96e96f89060200160405180910390a4505060018055505050505050565b600054600160a060020a031633146111a65760405160e560020a62461bcd02815260040161070790612bf9565b6005805473ffffffffffffffffffffffffffffffffffffffff1916600160a060020a0392909216919091179055565b600260015414156111fb5760405160e560020a62461bcd02815260040161070790612bc2565b6002600155600061120c8233610cb7565b905060005b81811015610722576112268360001983611237565b5061123081612c60565b9050611211565b60006002600154141561125f5760405160e560020a62461bcd02815260040161070790612bc2565b600260015561127084338585611d97565b60018055949350505050565b600054600160a060020a031633146112a95760405160e560020a62461bcd02815260040161070790612bf9565b81156112b7576112b7610cdf565b6112fa836112f4600e87815481106112d1576112d1612c2e565b906000526020600020906007020160010154601054611a8d90919063ffffffff16565b90611ab8565b60108190555082600e858154811061131457611314612c2e565b90600052602060002090600702016001018190555080600e858154811061133d5761133d612c2e565b906000526020600020906007020160060160006101000a815481600160a060020a030219169083600160a060020a0316021790555050505050565b600f60205282600052604060002060205281600052604060002081815481106113a057600080fd5b600091825260209091206005909102018054600182015460028301546003840154600490940154929650909450925085565b600054600160a060020a031633146113ff5760405160e560020a62461bcd02815260040161070790612bf9565b600254600160a060020a03838116911614156114865760405160e560020a62461bcd02815260206004820152603560248201527f217361666520746f20757365205a6f72726f20746f6b656e20696e2066756e6360448201527f20696e43617365546f6b656e73476574537475636b00000000000000000000006064820152608401610707565b610d68600160a060020a038316338361222c565b600054600160a060020a031633146114c75760405160e560020a62461bcd02815260040161070790612bf9565b600755565b600054600160a060020a031633146114f95760405160e560020a62461bcd02815260040161070790612bf9565b600160a060020a0381166115785760405160e560020a62461bcd02815260206004820152602660248201527f4f776e61626c653a206e6577206f776e657220697320746865207a65726f206160448201527f64647265737300000000000000000000000000000000000000000000000000006064820152608401610707565b61158181611d3a565b50565b600054600160a060020a031633146115b15760405160e560020a62461bcd02815260040161070790612bf9565b600455565b600054600160a060020a031633146115e35760405160e560020a62461bcd02815260040161070790612bf9565b82156115f1576115f1610cdf565b6000600454431161160457600454611606565b435b6010549091506116169087611ab8565b6010556040805160e081018252600160a060020a039687168152602081019788529081019182526000606082018181526080830182815295881660a0840190815294881660c08401908152600e80546001810182559352925160079092027fbb7b4a454dc3493923482f07822329ed19e8244eff582cc204f8554c3620c3fd81018054938a1673ffffffffffffffffffffffffffffffffffffffff1994851617905598517fbb7b4a454dc3493923482f07822329ed19e8244eff582cc204f8554c3620c3fe8a015592517fbb7b4a454dc3493923482f07822329ed19e8244eff582cc204f8554c3620c3ff89015591517fbb7b4a454dc3493923482f07822329ed19e8244eff582cc204f8554c3620c40088015592517fbb7b4a454dc3493923482f07822329ed19e8244eff582cc204f8554c3620c40187015590517fbb7b4a454dc3493923482f07822329ed19e8244eff582cc204f8554c3620c4028601805491861691831691909117905590517fbb7b4a454dc3493923482f07822329ed19e8244eff582cc204f8554c3620c403909401805494909316931692909217905550565b6000831161180d5760405160e560020a62461bcd02815260206004820152601560248201527f5f77616e74416d74206d757374206265203e20302100000000000000000000006044820152606401610707565b61181685610be7565b6000600e868154811061182b5761182b612c2e565b600091825260209091206007909102016005810154815491925061185c91600160a060020a0390811691168661227a565b6000600e878154811061187157611871612c2e565b60009182526020909120600790910201600501546040517fba0bb4ab000000000000000000000000000000000000000000000000000000008152600160a060020a038881166004830152602482018890529091169063ba0bb4ab906044016020604051808303816000875af11580156118ee573d6000803e3d6000fd5b505050506040513d601f19601f820116820180604052508101906119129190612c7b565b9050600061191f8561235e565b9050600061192d838361242c565b600485015490915061193f9082611ab8565b6004850181905560009061195c906107e88464e8d4a51000611aa0565b9050600061198064e8d4a510006107e8848960030154611aa090919063ffffffff16565b9050600f60008c815260200190815260200160002060008b600160a060020a0316600160a060020a031681526020019081526020016000206040518060a001604052808581526020018681526020018381526020018a8152602001898152509080600181540180825580915050600190039060005260206000209060050201600090919091909150600082015181600001556020820151816001015560408201518160020155606082015181600301556080820151816004015550508a8a600160a060020a03167f90890809c654f11d6e72a28fa60149770a0d11ec6c92319d6ceb2bb0a4ea1a158b604051611a7891815260200190565b60405180910390a35050505050505050505050565b6000611a998284612c94565b9392505050565b6000611a998284612cab565b6000611a998284612cca565b6000611a998284612cef565b600080600e8781548110611ada57611ada612c2e565b60009182526020822060056007909202010154600160a060020a03169150611b0488888888611d97565b6040517fb228ab0b000000000000000000000000000000000000000000000000000000008152600160a060020a038981166004830152602482018390526044820187905291925060009184169063b228ab0b906064016020604051808303816000875af1158015611b79573d6000803e3d6000fd5b505050506040513d601f19601f82011682018060405250810190611b9d9190612c7b565b9998505050505050505050565b6000600e8781548110611bbf57611bbf612c2e565b60009182526020822060079190910201600501546040517f986eb8f5000000000000000000000000000000000000000000000000000000008152600160a060020a03898116600483015260248201899052604482018690529091169250829063986eb8f5906064016020604051808303816000875af1158015611c46573d6000803e3d6000fd5b505050506040513d601f19601f82011682018060405250810190611c6a9190612c7b565b9050611c7988888388886117ba565b5050505050505050565b604051600160a060020a0380851660248301528316604482015260648101829052611d349085907f23b872dd00000000000000000000000000000000000000000000000000000000906084015b60408051601f198184030181529190526020810180517bffffffffffffffffffffffffffffffffffffffffffffffffffffffff167fffffffff0000000000000000000000000000000000000000000000000000000090931692909217909152612441565b50505050565b60008054600160a060020a0383811673ffffffffffffffffffffffffffffffffffffffff19831681178455604051919092169283917f8be0079c531659141344cd1fd0a4f28419497f9722a3daafe3b4186f6b6457e09190a35050565b6000611da285610be7565b6000600e8681548110611db757611db7612c2e565b60009182526020808320898452600f82526040808520600160a060020a038b1686529092529083208054600790930290910193509086908110611dfc57611dfc612c2e565b906000526020600020906005020190506000816000015411611e635760405160e560020a62461bcd02815260206004820152601960248201527f7472616e6368652e636f6e747269627574696f6e2069732030000000000000006044820152606401610707565b6000826004015411611eba5760405160e560020a62461bcd02815260206004820152601e60248201527f746f74616c5472616e636865436f6e747269627574696f6e73206973203000006044820152606401610707565b60048201548154600091611ed7916107e89064e8d4a51000611aa0565b90506000611f0383600201546108bd64e8d4a510006107e8886003015487611aa090919063ffffffff16565b90508015611f8e57600062093a8090506000611f3e426108bd611f33858960030154611aa090919063ffffffff16565b600489015490611ab8565b905060008115611f7d57611f76611f6f611f65858960030154611aa090919063ffffffff16565b6107e88786611aa0565b8590611a8d565b9050611f80565b50825b611f8a8b82612529565b5050505b60018301548354600091611fab916107e89064e8d4a51000611aa0565b905080871115611fb9578096505b8615612193576000600e8b81548110611fd457611fd4612c2e565b60009182526020909120600790910201600501546040517fe0ccabfa000000000000000000000000000000000000000000000000000000008152600160a060020a038c81166004830152602482018b90529091169063e0ccabfa906044016020604051808303816000875af1158015612051573d6000803e3d6000fd5b505050506040513d601f19601f820116820180604052508101906120759190612c7b565b9050600061208782876001015461242c565b86549091508111156120b057600080875560048801546120a691611a8d565b60048801556120d3565b85546120bc9082611a8d565b865560048701546120cd9082611a8d565b60048801555b86546040517f70a08231000000000000000000000000000000000000000000000000000000008152306004820152600091600160a060020a0316906370a0823190602401602060405180830381865afa158015612134573d6000803e3d6000fd5b505050506040513d601f19601f820116820180604052508101906121589190612c7b565b905089811015612166578099505b875461217c90600160a060020a03168d8c61222c565b838a141561218f5761218f8d8c8e61269c565b5050505b600485015484546000916121b0916107e89064e8d4a51000611aa0565b90506121d264e8d4a510006107e8838960030154611aa090919063ffffffff16565b6002860155604080518a8152602081018a90528c91600160a060020a038d16917f02f25270a4d87bea75db541cdfe559334a275b4a233520ed6c0a2429667cca94910160405180910390a350959998505050505050505050565b604051600160a060020a0383166024820152604481018290526122759084907fa9059cbb0000000000000000000000000000000000000000000000000000000090606401611cd0565b505050565b6040517fdd62ed3e000000000000000000000000000000000000000000000000000000008152306004820152600160a060020a038381166024830152600091839186169063dd62ed3e90604401602060405180830381865afa1580156122e4573d6000803e3d6000fd5b505050506040513d601f19601f820116820180604052508101906123089190612c7b565b6123129190612cef565b604051600160a060020a038516602482015260448101829052909150611d349085907f095ea7b30000000000000000000000000000000000000000000000000000000090606401611cd0565b600d5460009060ff1615612420576040517f677342ce000000000000000000000000000000000000000000000000000000008152600481018390526108e69064e8d4a51000906107e2906124189073__CustomMath____________________________9063677342ce90602401602060405180830381865af41580156123e8573d6000803e3d6000fd5b505050506040513d601f19601f8201168201806040525081019061240c9190612c7b565b6107e26002600a611aac565b600190611ab8565b5064e8d4a51000919050565b6000611a9964e8d4a510006107e88585611aa0565b6000612496826040518060400160405280602081526020017f5361666545524332303a206c6f772d6c6576656c2063616c6c206661696c656481525085600160a060020a03166127c49092919063ffffffff16565b80519091501561227557808060200190518101906124b49190612d07565b6122755760405160e560020a62461bcd02815260206004820152602a60248201527f5361666545524332303a204552433230206f7065726174696f6e20646964206e60448201527f6f742073756363656564000000000000000000000000000000000000000000006064820152608401610707565b6002546040517f70a08231000000000000000000000000000000000000000000000000000000008152306004820152600091600160a060020a0316906370a0823190602401602060405180830381865afa15801561258b573d6000803e3d6000fd5b505050506040513d601f19601f820116820180604052508101906125af9190612c7b565b90508082111561264a576002546040517fa9059cbb000000000000000000000000000000000000000000000000000000008152600160a060020a038581166004830152602482018490529091169063a9059cbb906044015b6020604051808303816000875af1158015612626573d6000803e3d6000fd5b505050506040513d601f19601f82011682018060405250810190611d349190612d07565b6002546040517fa9059cbb000000000000000000000000000000000000000000000000000000008152600160a060020a038581166004830152602482018590529091169063a9059cbb90604401612607565b6000838152600f60209081526040808320600160a060020a038516845290915290208054906126cc600183612c94565b815481106126dc576126dc612c2e565b60009182526020808320878452600f82526040808520600160a060020a038816865290925292208054600590920290920191908590811061271f5761271f612c2e565b6000918252602080832084546005909302019182556001808501549083015560028085015490830155600380850154908301556004938401549390910192909255858152600f82526040808220600160a060020a03861683529092522080548061278b5761278b612d24565b60008281526020812060056000199093019283020181815560018101829055600281018290556003810182905560040155905550505050565b60606127d384846000856127db565b949350505050565b606030318311156128575760405160e560020a62461bcd02815260206004820152602660248201527f416464726573733a20696e73756666696369656e742062616c616e636520666f60448201527f722063616c6c00000000000000000000000000000000000000000000000000006064820152608401610707565b600160a060020a0385163b6128b15760405160e560020a62461bcd02815260206004820152601d60248201527f416464726573733a2063616c6c20746f206e6f6e2d636f6e74726163740000006044820152606401610707565b60008086600160a060020a031685876040516128cd9190612d69565b60006040518083038185875af1925050503d806000811461290a576040519150601f19603f3d011682016040523d82523d6000602084013e61290f565b606091505b509150915061291f82828661292a565b979650505050505050565b60608315612939575081611a99565b8251156129495782518084602001fd5b8160405160e560020a62461bcd0281526004016107079190612d85565b60008060006060848603121561297b57600080fd5b505081359360208301359350604090920135919050565b6000602082840312156129a457600080fd5b5035919050565b600160a060020a038116811461158157600080fd5b600080604083850312156129d357600080fd5b8235915060208301356129e5816129ab565b809150509250929050565b60008060008060808587031215612a0657600080fd5b5050823594602084013594506040840135936060013592509050565b801515811461158157600080fd5b600060208284031215612a4257600080fd5b8135611a9981612a22565b600060208284031215612a5f57600080fd5b8135611a99816129ab565b600080600060608486031215612a7f57600080fd5b833592506020840135612a91816129ab565b91506040840135612aa1816129ab565b809150509250925092565b60008060008060808587031215612ac257600080fd5b84359350602085013592506040850135612adb81612a22565b91506060850135612aeb816129ab565b939692955090935050565b600080600060608486031215612b0b57600080fd5b833592506020840135612b1d816129ab565b929592945050506040919091013590565b60008060408385031215612b4157600080fd5b8235612b4c816129ab565b946020939093013593505050565b600080600080600060a08688031215612b7257600080fd5b853594506020860135612b84816129ab565b93506040860135612b9481612a22565b92506060860135612ba4816129ab565b91506080860135612bb4816129ab565b809150509295509295909350565b6020808252601f908201527f5265656e7472616e637947756172643a207265656e7472616e742063616c6c00604082015260600190565b6020808252818101527f4f776e61626c653a2063616c6c6572206973206e6f7420746865206f776e6572604082015260600190565b60e060020a634e487b7102600052603260045260246000fd5b60e060020a634e487b7102600052601160045260246000fd5b6000600019821415612c7457612c74612c47565b5060010190565b600060208284031215612c8d57600080fd5b5051919050565b600082821015612ca657612ca6612c47565b500390565b6000816000190483118215151615612cc557612cc5612c47565b500290565b600082612cea5760e060020a634e487b7102600052601260045260246000fd5b500490565b60008219821115612d0257612d02612c47565b500190565b600060208284031215612d1957600080fd5b8151611a9981612a22565b60e060020a634e487b7102600052603160045260246000fd5b60005b83811015612d58578181015183820152602001612d40565b83811115611d345750506000910152565b60008251612d7b818460208701612d3d565b9190910192915050565b6020815260008251806020840152612da4816040850160208701612d3d565b601f01601f1916919091016040019291505056fea2646970667358221220c21e1eeabffe782eb14337b472ff3a7678fca0292056e931edf088dbfd4f15e364736f6c634300080a0033",
  "immutableReferences": {},
  "source": "// SPDX-License-Identifier: MIT\npragma solidity ^0.8.0;\n\n/* Dependencies */\nimport \"./helpers/ERC20.sol\";\n\nimport \"./ZorroControllerBase.sol\";\n\nimport \"./ZorroControllerPoolMgmt.sol\";\n\nimport \"./ZorroControllerInvestment.sol\";\n\nimport \"./ZorroControllerAnalytics.sol\";\n\n/* Main Contract */\n/// @title ZorroController: The main controller of the Zorro yield farming protocol. Used for cash flow operations (deposit/withdrawal), managing vaults, and rewards allocations, among other things.\ncontract ZorroController is ZorroControllerBase, ZorroControllerPoolMgmt, ZorroControllerInvestment, ZorroControllerAnalytics {\n    /* Constructor */\n\n    /// @notice Constructor\n    /// @param _timelockOwner address of owner (should be a timelock)\n    /// @param _zorroToken address of Zorro token\n    /// @param _startBlock start block number. If current block is below this number, rewards won't be emitted. https://bscscan.com/block/countdown/13650292\n    /// @param _publicPool address of the public pool to draw rewards from\n    /// @param _BSCMarketTVLUSD total market TVL on the BSC chain in USD\n    /// @param _ZorroTotalVaultTVLUSD total TVL locked into the Zorro protocol across all vaults\n    /// @param _targetTVLCaptureBasisPoints how many basis points of the BSC total market TVL the protocol desires to capture (influences market aware emissions calcs)\n    constructor(\n        address _timelockOwner,\n        address _zorroToken,\n        uint256 _startBlock,\n        address _publicPool,\n        uint256 _BSCMarketTVLUSD,\n        uint256 _ZorroTotalVaultTVLUSD,\n        uint256 _targetTVLCaptureBasisPoints,\n        address _defaultStablecoin\n    ) {\n        // Assign owner as to timelock contract\n        transferOwnership(_timelockOwner);\n        // Set main state variables to initial state\n        ZORRO = _zorroToken;\n        startBlock = _startBlock;\n        publicPool = _publicPool;\n        BSCMarketTVLUSD = _BSCMarketTVLUSD; \n        ZorroTotalVaultTVLUSD = _ZorroTotalVaultTVLUSD; \n        targetTVLCaptureBasisPoints = _targetTVLCaptureBasisPoints;\n        defaultStablecoin = _defaultStablecoin;\n    }\n}",
  "sourcePath": "/Users/kristophm/workspace/crypto/zorro/zorro-protocol/contracts/ZorroController.sol",
  "compiler": {
    "name": "solc",
    "version": "0.8.10+commit.fc410830.Emscripten.clang"
  },
  "schemaVersion": "3.4.3",
  "updatedAt": "2022-01-25T00:04:36.266Z",
  "devdoc": {
    "kind": "dev",
    "methods": {
      "add(uint256,address,bool,address,address)": {
        "details": "DO NOT add the same Want token more than once. Rewards will be messed up if you do. (Only if Want tokens are stored here.)",
        "params": {
          "_allocPoint": "The number of allocation points for this pool (aka \"multiplier\")",
          "_intermediaryToken": "The address of an intermediary token (i.e. what is returned back to the user upon withdrawal) or 0 (only applicable for protocols like Tranchess)",
          "_vault": "The contract address of the underlying vault",
          "_want": "The address of the want token",
          "_withUpdate": "Mass update all pools if set to true"
        }
      },
      "constructor": {
        "params": {
          "_BSCMarketTVLUSD": "total market TVL on the BSC chain in USD",
          "_ZorroTotalVaultTVLUSD": "total TVL locked into the Zorro protocol across all vaults",
          "_publicPool": "address of the public pool to draw rewards from",
          "_startBlock": "start block number. If current block is below this number, rewards won't be emitted. https://bscscan.com/block/countdown/13650292",
          "_targetTVLCaptureBasisPoints": "how many basis points of the BSC total market TVL the protocol desires to capture (influences market aware emissions calcs)",
          "_timelockOwner": "address of owner (should be a timelock)",
          "_zorroToken": "address of Zorro token"
        }
      },
      "deposit(uint256,uint256,uint256)": {
        "params": {
          "_pid": "index of pool",
          "_wantAmt": "how much Want token to deposit",
          "_weeksCommitted": "how many weeks the user is committing to on this vault"
        }
      },
      "depositFullService(uint256,uint256,uint256,uint256)": {
        "params": {
          "_maxMarketMovement": "factor to account for max market movement/slippage. The definition varies by Vault, so consult the associated Vault contract for info",
          "_pid": "index of pool to deposit into",
          "_valueUSDC": "value in USDC (in ether units) to deposit",
          "_weeksCommitted": "how many weeks to commit to the Pool (can be 0 or any uint)"
        }
      },
      "getZorroPerBlock()": {
        "returns": {
          "_0": "Number of Zorro tokens per block"
        }
      },
      "inCaseTokensGetStuck(address,uint256)": {
        "details": "Does not permit usage for the Zorro token",
        "params": {
          "_amount": "token quantity",
          "_token": "ERC20 token address"
        }
      },
      "massUpdatePools()": {
        "details": "Be careful of gas fees!"
      },
      "owner()": {
        "details": "Returns the address of the current owner."
      },
      "pendingZORRORewards(uint256,address)": {
        "params": {
          "_pid": "Index of pool",
          "_user": "wallet address of user"
        },
        "returns": {
          "_0": "amount of Zorro rewards"
        }
      },
      "poolLength()": {
        "returns": {
          "_0": "Number of pools"
        }
      },
      "renounceOwnership()": {
        "details": "Leaves the contract without owner. It will not be possible to call `onlyOwner` functions anymore. Can only be called by the current owner. NOTE: Renouncing ownership will leave the contract without an owner, thereby removing any functionality that is only available to the owner."
      },
      "set(uint256,uint256,bool,address)": {
        "params": {
          "_allocPoint": "The number of allocation points for this pool (aka \"multiplier\")",
          "_intermediaryToken": "The address of an intermediary token (i.e. what is returned back to the user upon withdrawal) or 0 (only applicable for protocols like Tranchess)",
          "_pid": "The index of the pool ID",
          "_withUpdate": "Mass update all pools if set to true"
        }
      },
      "stakedWantTokens(uint256,address)": {
        "params": {
          "_pid": "Index of pool",
          "_user": "wallet address of user"
        },
        "returns": {
          "_0": "amount of staked Want tokens"
        }
      },
      "trancheLength(uint256,address)": {
        "params": {
          "_pid": "Index of pool",
          "_user": "wallet address of user"
        },
        "returns": {
          "_0": "Number of tranches"
        }
      },
      "transferInvestment(uint256,uint256,uint256,uint256)": {
        "params": {
          "_fromPid": "index of pool FROM",
          "_fromTrancheId": "index of tranche FROM",
          "_maxMarketMovement": "factor to account for max market movement/slippage. The definition varies by Vault, so consult the associated Vault contract for info",
          "_toPid": "index of pool TO"
        }
      },
      "transferOwnership(address)": {
        "details": "Transfers ownership of the contract to a new account (`newOwner`). Can only be called by the current owner."
      },
      "updatePool(uint256)": {
        "params": {
          "_pid": "index of pool"
        }
      },
      "withdraw(uint256,uint256,uint256)": {
        "params": {
          "_pid": "index of pool",
          "_trancheId": "index of tranche",
          "_wantAmt": "how much Want token to withdraw. If 0 is specified, function will only harvest Zorro rewards and not actually withdraw"
        },
        "returns": {
          "_0": "Amount of Want token withdrawn"
        }
      },
      "withdrawAll(uint256)": {
        "params": {
          "_pid": "index of pool"
        }
      },
      "withdrawalFullService(uint256,uint256,uint256,uint256)": {
        "params": {
          "_maxMarketMovement": "factor to account for max market movement/slippage. The definition varies by Vault, so consult the associated Vault contract for info",
          "_pid": "index of pool to deposit into",
          "_trancheId": "index of tranche",
          "_wantAmt": "value in Want tokens to withdraw (0 will result in harvest and uint256(-1) will result in max value)"
        },
        "returns": {
          "_0": "Amount (in USDC) returned"
        }
      }
    },
    "title": "ZorroController: The main controller of the Zorro yield farming protocol. Used for cash flow operations (deposit/withdrawal), managing vaults, and rewards allocations, among other things.",
    "version": 1
  },
  "userdoc": {
    "kind": "user",
    "methods": {
      "add(uint256,address,bool,address,address)": {
        "notice": "Adds a new pool. Can only be called by the owner."
      },
      "constructor": {
        "notice": "Constructor"
      },
      "deposit(uint256,uint256,uint256)": {
        "notice": "Deposit Want tokens to associated Vault"
      },
      "depositFullService(uint256,uint256,uint256,uint256)": {
        "notice": "Deposits funds in a full service manner (performs autoswaps and obtains Want tokens)"
      },
      "getZorroPerBlock()": {
        "notice": "Determine the number of Zorro to emit per block based on current market parameters"
      },
      "inCaseTokensGetStuck(address,uint256)": {
        "notice": "For owner to recover ERC20 tokens on this contract if stuck"
      },
      "massUpdatePools()": {
        "notice": "Updates reward variables of all pools"
      },
      "pendingZORRORewards(uint256,address)": {
        "notice": "View function to see pending ZORRO on frontend."
      },
      "poolLength()": {
        "notice": "Number of pools in the Zorro protocol"
      },
      "set(uint256,uint256,bool,address)": {
        "notice": "Update the given pool's ZORRO allocation point. Can only be called by the owner."
      },
      "stakedWantTokens(uint256,address)": {
        "notice": "View function to see staked Want tokens on frontend."
      },
      "trancheLength(uint256,address)": {
        "notice": "Number of tranches invested by a given user into a given pool"
      },
      "transferInvestment(uint256,uint256,uint256,uint256)": {
        "notice": "Transfer all assets from a tranche in one vault to a new vault"
      },
      "updatePool(uint256)": {
        "notice": "Update reward variables of the given pool to be up-to-date."
      },
      "withdraw(uint256,uint256,uint256)": {
        "notice": "Withdraw Want tokens from underlying Vault."
      },
      "withdrawAll(uint256)": {
        "notice": "Withdraw the maximum number of Want tokens from a pool"
      },
      "withdrawalFullService(uint256,uint256,uint256,uint256)": {
        "notice": "Withdraws funds from a pool and converts the Want token into USDC"
      }
    },
    "version": 1
  }
}