{
  "contractName": "ZorroControllerXChainEarn",
  "abi": [
    {
      "anonymous": false,
      "inputs": [
        {
          "indexed": true,
          "internalType": "address",
          "name": "previousOwner",
          "type": "address"
        },
        {
          "indexed": true,
          "internalType": "address",
          "name": "newOwner",
          "type": "address"
        }
      ],
      "name": "OwnershipTransferred",
      "type": "event"
    },
    {
      "anonymous": false,
      "inputs": [
        {
          "indexed": true,
          "internalType": "uint256",
          "name": "_amountZOR",
          "type": "uint256"
        }
      ],
      "name": "RemovedSlashedRewards",
      "type": "event"
    },
    {
      "anonymous": false,
      "inputs": [
        {
          "indexed": true,
          "internalType": "uint256",
          "name": "_remoteChainId",
          "type": "uint256"
        },
        {
          "indexed": true,
          "internalType": "uint256",
          "name": "_buybackAmountUSDC",
          "type": "uint256"
        },
        {
          "indexed": true,
          "internalType": "uint256",
          "name": "_revShareAmountUSDC",
          "type": "uint256"
        }
      ],
      "name": "XChainDistributeEarnings",
      "type": "event"
    },
    {
      "inputs": [
        {
          "internalType": "uint16",
          "name": "",
          "type": "uint16"
        }
      ],
      "name": "LZChainToZorroMap",
      "outputs": [
        {
          "internalType": "uint256",
          "name": "",
          "type": "uint256"
        }
      ],
      "stateMutability": "view",
      "type": "function"
    },
    {
      "inputs": [
        {
          "internalType": "uint256",
          "name": "",
          "type": "uint256"
        }
      ],
      "name": "USDCToZorroLPPoolOtherTokenPath",
      "outputs": [
        {
          "internalType": "address",
          "name": "",
          "type": "address"
        }
      ],
      "stateMutability": "view",
      "type": "function"
    },
    {
      "inputs": [
        {
          "internalType": "uint256",
          "name": "",
          "type": "uint256"
        }
      ],
      "name": "USDCToZorroPath",
      "outputs": [
        {
          "internalType": "address",
          "name": "",
          "type": "address"
        }
      ],
      "stateMutability": "view",
      "type": "function"
    },
    {
      "inputs": [],
      "name": "ZORRO",
      "outputs": [
        {
          "internalType": "address",
          "name": "",
          "type": "address"
        }
      ],
      "stateMutability": "view",
      "type": "function"
    },
    {
      "inputs": [
        {
          "internalType": "uint256",
          "name": "",
          "type": "uint256"
        }
      ],
      "name": "ZorroChainToLZMap",
      "outputs": [
        {
          "internalType": "uint16",
          "name": "",
          "type": "uint16"
        }
      ],
      "stateMutability": "view",
      "type": "function"
    },
    {
      "inputs": [],
      "name": "accumulatedSlashedRewards",
      "outputs": [
        {
          "internalType": "uint256",
          "name": "",
          "type": "uint256"
        }
      ],
      "stateMutability": "view",
      "type": "function"
    },
    {
      "inputs": [],
      "name": "burnAddress",
      "outputs": [
        {
          "internalType": "address",
          "name": "",
          "type": "address"
        }
      ],
      "stateMutability": "view",
      "type": "function"
    },
    {
      "inputs": [
        {
          "internalType": "uint256",
          "name": "",
          "type": "uint256"
        }
      ],
      "name": "controllerContractsMap",
      "outputs": [
        {
          "internalType": "bytes",
          "name": "",
          "type": "bytes"
        }
      ],
      "stateMutability": "view",
      "type": "function"
    },
    {
      "inputs": [],
      "name": "currentChainController",
      "outputs": [
        {
          "internalType": "address",
          "name": "",
          "type": "address"
        }
      ],
      "stateMutability": "view",
      "type": "function"
    },
    {
      "inputs": [],
      "name": "defaultStablecoin",
      "outputs": [
        {
          "internalType": "address",
          "name": "",
          "type": "address"
        }
      ],
      "stateMutability": "view",
      "type": "function"
    },
    {
      "inputs": [],
      "name": "homeChainZorroController",
      "outputs": [
        {
          "internalType": "address",
          "name": "",
          "type": "address"
        }
      ],
      "stateMutability": "view",
      "type": "function"
    },
    {
      "inputs": [],
      "name": "layerZeroEndpoint",
      "outputs": [
        {
          "internalType": "address",
          "name": "",
          "type": "address"
        }
      ],
      "stateMutability": "view",
      "type": "function"
    },
    {
      "inputs": [],
      "name": "owner",
      "outputs": [
        {
          "internalType": "address",
          "name": "",
          "type": "address"
        }
      ],
      "stateMutability": "view",
      "type": "function"
    },
    {
      "inputs": [],
      "name": "priceFeedLPPoolOtherToken",
      "outputs": [
        {
          "internalType": "contract AggregatorV3Interface",
          "name": "",
          "type": "address"
        }
      ],
      "stateMutability": "view",
      "type": "function"
    },
    {
      "inputs": [],
      "name": "priceFeedZOR",
      "outputs": [
        {
          "internalType": "contract AggregatorV3Interface",
          "name": "",
          "type": "address"
        }
      ],
      "stateMutability": "view",
      "type": "function"
    },
    {
      "inputs": [],
      "name": "publicPool",
      "outputs": [
        {
          "internalType": "address",
          "name": "",
          "type": "address"
        }
      ],
      "stateMutability": "view",
      "type": "function"
    },
    {
      "inputs": [],
      "name": "renounceOwnership",
      "outputs": [],
      "stateMutability": "nonpayable",
      "type": "function"
    },
    {
      "inputs": [
        {
          "internalType": "uint256[]",
          "name": "_chainIds",
          "type": "uint256[]"
        }
      ],
      "name": "setChains",
      "outputs": [],
      "stateMutability": "nonpayable",
      "type": "function"
    },
    {
      "inputs": [
        {
          "internalType": "uint256",
          "name": "_zorroChainId",
          "type": "uint256"
        },
        {
          "internalType": "bytes",
          "name": "_controller",
          "type": "bytes"
        }
      ],
      "name": "setControllerContract",
      "outputs": [],
      "stateMutability": "nonpayable",
      "type": "function"
    },
    {
      "inputs": [
        {
          "internalType": "address[]",
          "name": "_contracts",
          "type": "address[]"
        }
      ],
      "name": "setKeyContracts",
      "outputs": [],
      "stateMutability": "nonpayable",
      "type": "function"
    },
    {
      "inputs": [
        {
          "internalType": "address",
          "name": "_stargateRouter",
          "type": "address"
        },
        {
          "internalType": "uint256",
          "name": "_stargateSwapPoolId",
          "type": "uint256"
        },
        {
          "internalType": "address",
          "name": "_layerZeroEndpoint",
          "type": "address"
        }
      ],
      "name": "setLayerZeroParams",
      "outputs": [],
      "stateMutability": "nonpayable",
      "type": "function"
    },
    {
      "inputs": [
        {
          "internalType": "uint256",
          "name": "_zorroChainId",
          "type": "uint256"
        },
        {
          "internalType": "uint16",
          "name": "_stargatePoolId",
          "type": "uint16"
        }
      ],
      "name": "setStargateDestPoolIds",
      "outputs": [],
      "stateMutability": "nonpayable",
      "type": "function"
    },
    {
      "inputs": [
        {
          "internalType": "address[]",
          "name": "_tokens",
          "type": "address[]"
        }
      ],
      "name": "setTokens",
      "outputs": [],
      "stateMutability": "nonpayable",
      "type": "function"
    },
    {
      "inputs": [
        {
          "internalType": "uint256",
          "name": "_zorroChainId",
          "type": "uint256"
        },
        {
          "internalType": "uint16",
          "name": "_lzChainId",
          "type": "uint16"
        }
      ],
      "name": "setZorroChainToLZMap",
      "outputs": [],
      "stateMutability": "nonpayable",
      "type": "function"
    },
    {
      "inputs": [
        {
          "internalType": "uint256",
          "name": "",
          "type": "uint256"
        }
      ],
      "name": "stargateDestPoolIds",
      "outputs": [
        {
          "internalType": "uint256",
          "name": "",
          "type": "uint256"
        }
      ],
      "stateMutability": "view",
      "type": "function"
    },
    {
      "inputs": [],
      "name": "stargateRouter",
      "outputs": [
        {
          "internalType": "address",
          "name": "",
          "type": "address"
        }
      ],
      "stateMutability": "view",
      "type": "function"
    },
    {
      "inputs": [],
      "name": "stargateSwapPoolId",
      "outputs": [
        {
          "internalType": "uint256",
          "name": "",
          "type": "uint256"
        }
      ],
      "stateMutability": "view",
      "type": "function"
    },
    {
      "inputs": [],
      "name": "tokenUSDC",
      "outputs": [
        {
          "internalType": "address",
          "name": "",
          "type": "address"
        }
      ],
      "stateMutability": "view",
      "type": "function"
    },
    {
      "inputs": [
        {
          "internalType": "address",
          "name": "newOwner",
          "type": "address"
        }
      ],
      "name": "transferOwnership",
      "outputs": [],
      "stateMutability": "nonpayable",
      "type": "function"
    },
    {
      "inputs": [],
      "name": "uniRouterAddress",
      "outputs": [
        {
          "internalType": "address",
          "name": "",
          "type": "address"
        }
      ],
      "stateMutability": "view",
      "type": "function"
    },
    {
      "inputs": [],
      "name": "zorroLPPoolOtherToken",
      "outputs": [
        {
          "internalType": "address",
          "name": "",
          "type": "address"
        }
      ],
      "stateMutability": "view",
      "type": "function"
    },
    {
      "inputs": [],
      "name": "zorroStakingVault",
      "outputs": [
        {
          "internalType": "address",
          "name": "",
          "type": "address"
        }
      ],
      "stateMutability": "view",
      "type": "function"
    },
    {
      "inputs": [
        {
          "internalType": "address",
          "name": "_token",
          "type": "address"
        }
      ],
      "name": "setTokenUSDC",
      "outputs": [],
      "stateMutability": "nonpayable",
      "type": "function"
    },
    {
      "inputs": [
        {
          "internalType": "address",
          "name": "_token",
          "type": "address"
        }
      ],
      "name": "setZorroLPPoolOtherToken",
      "outputs": [],
      "stateMutability": "nonpayable",
      "type": "function"
    },
    {
      "inputs": [
        {
          "internalType": "address",
          "name": "_contract",
          "type": "address"
        }
      ],
      "name": "setZorroStakingVault",
      "outputs": [],
      "stateMutability": "nonpayable",
      "type": "function"
    },
    {
      "inputs": [
        {
          "internalType": "address",
          "name": "_contract",
          "type": "address"
        }
      ],
      "name": "setUniRouterAddress",
      "outputs": [],
      "stateMutability": "nonpayable",
      "type": "function"
    },
    {
      "inputs": [
        {
          "internalType": "address[]",
          "name": "_USDCToZorroPath",
          "type": "address[]"
        },
        {
          "internalType": "address[]",
          "name": "_USDCToZorroLPPoolOtherTokenPath",
          "type": "address[]"
        }
      ],
      "name": "setSwapPaths",
      "outputs": [],
      "stateMutability": "nonpayable",
      "type": "function"
    },
    {
      "inputs": [
        {
          "internalType": "address[]",
          "name": "_priceFeeds",
          "type": "address[]"
        }
      ],
      "name": "setPriceFeeds",
      "outputs": [],
      "stateMutability": "nonpayable",
      "type": "function"
    },
    {
      "inputs": [
        {
          "internalType": "uint256",
          "name": "_amountUSDCBuyback",
          "type": "uint256"
        },
        {
          "internalType": "uint256",
          "name": "_amountUSDCRevShare",
          "type": "uint256"
        },
        {
          "internalType": "uint256",
          "name": "_accSlashedRewards",
          "type": "uint256"
        },
        {
          "internalType": "uint256",
          "name": "_maxMarketMovement",
          "type": "uint256"
        }
      ],
      "name": "checkXChainDistributeEarningsFee",
      "outputs": [
        {
          "internalType": "uint256",
          "name": "",
          "type": "uint256"
        }
      ],
      "stateMutability": "view",
      "type": "function"
    },
    {
      "inputs": [
        {
          "internalType": "uint256",
          "name": "_pid",
          "type": "uint256"
        },
        {
          "internalType": "uint256",
          "name": "_buybackAmountUSDC",
          "type": "uint256"
        },
        {
          "internalType": "uint256",
          "name": "_revShareAmountUSDC",
          "type": "uint256"
        },
        {
          "internalType": "uint256",
          "name": "_maxMarketMovement",
          "type": "uint256"
        }
      ],
      "name": "sendXChainDistributeEarningsRequest",
      "outputs": [],
      "stateMutability": "payable",
      "type": "function"
    },
    {
      "inputs": [
        {
          "internalType": "uint256",
          "name": "_remoteChainId",
          "type": "uint256"
        },
        {
          "internalType": "uint256",
          "name": "_amountUSDCBuyback",
          "type": "uint256"
        },
        {
          "internalType": "uint256",
          "name": "_amountUSDCRevShare",
          "type": "uint256"
        },
        {
          "internalType": "uint256",
          "name": "_accSlashedRewards",
          "type": "uint256"
        },
        {
          "internalType": "uint256",
          "name": "_maxMarketMovement",
          "type": "uint256"
        }
      ],
      "name": "receiveXChainDistributionRequest",
      "outputs": [],
      "stateMutability": "nonpayable",
      "type": "function"
    }
  ],
  "bytecode": "0x608060405234801561001057600080fd5b50612406806100206000396000f3fe6080604052600436106102465760003560e01c8063715018a611610139578063a9e56f3c116100b6578063cd01af481161007a578063cd01af48146106f5578063e53ac0df14610715578063e940f6e114610735578063ebfba7c41461074b578063f2fde38b1461076b578063fc39a29e1461078b57600080fd5b8063a9e56f3c14610655578063b22f325114610675578063b61bb80a14610695578063c86d4040146106b5578063c9522cf1146106d557600080fd5b80638c157db2116100fd5780638c157db2146105b75780638da5cb5b146105d7578063959334f4146105f55780639a448c0c14610615578063a4d2b0831461063557600080fd5b8063715018a61461052257806379777d81146105375780637bd45522146105575780637f633ea8146105775780638b5694d61461059757600080fd5b80634bf76174116101c7578063625adaf21161018b578063625adaf21461048c578063668ababb146104ac578063693a090b146104cc5780636ca8bd65146104ec57806370d5ae051461050c57600080fd5b80634bf76174146103e95780635175ce1b146104095780635790f59914610429578063593af9fe1461043f5780635da79d631461046c57600080fd5b806325b438301161020e57806325b4383014610325578063293da9d414610345578063459f475314610372578063464e3c8b146103b6578063487c3868146103c957600080fd5b806307968db11461024b578063104a61321461028857806313a2e880146102a857806315230ae6146102ca578063219b38b8146102ea575b600080fd5b34801561025757600080fd5b5060a45461026b906001600160a01b031681565b6040516001600160a01b0390911681526020015b60405180910390f35b34801561029457600080fd5b5061026b6102a3366004611be2565b6107ab565b3480156102b457600080fd5b506102c86102c3366004611bfb565b6107d5565b005b3480156102d657600080fd5b50609a5461026b906001600160a01b031681565b3480156102f657600080fd5b50610317610305366004611be2565b60a36020526000908152604090205481565b60405190815260200161027f565b34801561033157600080fd5b506102c8610340366004611c77565b610827565b34801561035157600080fd5b50610317610360366004611cc9565b60a06020526000908152604090205481565b34801561037e57600080fd5b506103a361038d366004611be2565b609f6020526000908152604090205461ffff1681565b60405161ffff909116815260200161027f565b6102c86103c4366004611ce4565b610876565b3480156103d557600080fd5b506102c86103e4366004611d62565b610b91565b3480156103f557600080fd5b506102c8610404366004611d62565b610c4f565b34801561041557600080fd5b506102c8610424366004611da4565b610d55565b34801561043557600080fd5b5061031760a25481565b34801561044b57600080fd5b5061045f61045a366004611be2565b610d98565b60405161027f9190611e68565b34801561047857600080fd5b506102c8610487366004611e90565b610e32565b34801561049857600080fd5b506102c86104a7366004611d62565b610e7e565b3480156104b857600080fd5b50609b5461026b906001600160a01b031681565b3480156104d857600080fd5b5060a95461026b906001600160a01b031681565b3480156104f857600080fd5b506102c8610507366004611e90565b610f3c565b34801561051857600080fd5b5061026b61dead81565b34801561052e57600080fd5b506102c8610f88565b34801561054357600080fd5b5060ad5461026b906001600160a01b031681565b34801561056357600080fd5b506102c8610572366004611ead565b610fbe565b34801561058357600080fd5b506102c8610592366004611eef565b61101c565b3480156105a357600080fd5b506102c86105b2366004611eef565b611075565b3480156105c357600080fd5b5060985461026b906001600160a01b031681565b3480156105e357600080fd5b506033546001600160a01b031661026b565b34801561060157600080fd5b506102c8610610366004611e90565b6110b8565b34801561062157600080fd5b5061026b610630366004611be2565b611104565b34801561064157600080fd5b5060a85461026b906001600160a01b031681565b34801561066157600080fd5b5060a15461026b906001600160a01b031681565b34801561068157600080fd5b5060ac5461026b906001600160a01b031681565b3480156106a157600080fd5b5060975461026b906001600160a01b031681565b3480156106c157600080fd5b5060a65461026b906001600160a01b031681565b3480156106e157600080fd5b506103176106f0366004611ce4565b611114565b34801561070157600080fd5b506102c8610710366004611d62565b611218565b34801561072157600080fd5b506102c8610730366004611e90565b611284565b34801561074157600080fd5b5061031760a55481565b34801561075757600080fd5b5060a75461026b906001600160a01b031681565b34801561077757600080fd5b506102c8610786366004611e90565b6112d0565b34801561079757600080fd5b5060995461026b906001600160a01b031681565b60aa81815481106107bb57600080fd5b6000918252602090912001546001600160a01b0316905081565b6033546001600160a01b031633146108085760405162461bcd60e51b81526004016107ff90611f1b565b60405180910390fd5b6000838152609e60205260409020610821908383611af6565b50505050565b60405162461bcd60e51b815260206004820152601760248201527f696c6c6567616c2064756d6d792066756e632063616c6c00000000000000000060448201526064016107ff565b5050505050565b600260655414156108c95760405162461bcd60e51b815260206004820152601f60248201527f5265656e7472616e637947756172643a207265656e7472616e742063616c6c0060448201526064016107ff565b6002606555609a54604051631526fe2760e01b81526004810186905285916000916001600160a01b0390911690631526fe279060240160c060405180830381865afa15801561091c573d6000803e3d6000fd5b505050506040513d601f19601f820116820180604052508101906109409190611f50565b95505050505050806001600160a01b03166109583390565b6001600160a01b03161461099f5760405162461bcd60e51b815260206004820152600e60248201526d1bdb9b1e481c9959c81d985d5b1d60921b60448201526064016107ff565b600034116109e35760405162461bcd60e51b8152602060048201526011602482015270139bc81999595cc81cdd589b5a5d1d1959607a1b60448201526064016107ff565b60006109ef8686611371565b609754909150610a09906001600160a01b03163083611384565b609754610a21906001600160a01b0316333084611469565b6097546040516370a0823160e01b81523060048201526000916001600160a01b0316906370a0823190602401602060405180830381865afa158015610a6a573d6000803e3d6000fd5b505050506040513d601f19601f82011682018060405250810190610a8e9190611fb0565b90506000610a9a6114a1565b90506000610aad609c548a8a858b6114d7565b609c546000908152609e6020526040812080549293509091610ace90611fc9565b80601f0160208091040260200160405190810160405280929190818152602001828054610afa90611fc9565b8015610b475780601f10610b1c57610100808354040283529160200191610b47565b820191906000526020600020905b815481529060010190602001808311610b2a57829003601f168201915b50505050509050610b7f6040518060a00160405280609d5481526020018681526020018381526020018481526020018a815250611546565b50506001606555505050505050505050565b6033546001600160a01b03163314610bbb5760405162461bcd60e51b81526004016107ff90611f1b565b81816000818110610bce57610bce612004565b9050602002016020810190610be39190611e90565b60ac80546001600160a01b0319166001600160a01b039290921691909117905581816001818110610c1657610c16612004565b9050602002016020810190610c2b9190611e90565b60ad80546001600160a01b0319166001600160a01b03929092169190911790555050565b6033546001600160a01b03163314610c795760405162461bcd60e51b81526004016107ff90611f1b565b81816000818110610c8c57610c8c612004565b9050602002016020810190610ca19190611e90565b609980546001600160a01b0319166001600160a01b039290921691909117905581816001818110610cd457610cd4612004565b9050602002016020810190610ce99190611e90565b609a80546001600160a01b0319166001600160a01b039290921691909117905581816002818110610d1c57610d1c612004565b9050602002016020810190610d319190611e90565b609b80546001600160a01b0319166001600160a01b03929092169190911790555050565b6033546001600160a01b03163314610d7f5760405162461bcd60e51b81526004016107ff90611f1b565b610d8b60aa8585611b7a565b5061086f60ab8383611b7a565b609e6020526000908152604090208054610db190611fc9565b80601f0160208091040260200160405190810160405280929190818152602001828054610ddd90611fc9565b8015610e2a5780601f10610dff57610100808354040283529160200191610e2a565b820191906000526020600020905b815481529060010190602001808311610e0d57829003601f168201915b505050505081565b6033546001600160a01b03163314610e5c5760405162461bcd60e51b81526004016107ff90611f1b565b60a980546001600160a01b0319166001600160a01b0392909216919091179055565b6033546001600160a01b03163314610ea85760405162461bcd60e51b81526004016107ff90611f1b565b81816000818110610ebb57610ebb612004565b9050602002016020810190610ed09190611e90565b609780546001600160a01b0319166001600160a01b039290921691909117905581816001818110610f0357610f03612004565b9050602002016020810190610f189190611e90565b609880546001600160a01b0319166001600160a01b03929092169190911790555050565b6033546001600160a01b03163314610f665760405162461bcd60e51b81526004016107ff90611f1b565b60a880546001600160a01b0319166001600160a01b0392909216919091179055565b6033546001600160a01b03163314610fb25760405162461bcd60e51b81526004016107ff90611f1b565b610fbc6000611633565b565b6033546001600160a01b03163314610fe85760405162461bcd60e51b81526004016107ff90611f1b565b60a180546001600160a01b039485166001600160a01b03199182161790915560a29290925560a48054919093169116179055565b6033546001600160a01b031633146110465760405162461bcd60e51b81526004016107ff90611f1b565b6000828152609f60209081526040808320805461ffff90951661ffff199095168517905592825260a090522055565b6033546001600160a01b0316331461109f5760405162461bcd60e51b81526004016107ff90611f1b565b600091825260a3602052604090912061ffff9091169055565b6033546001600160a01b031633146110e25760405162461bcd60e51b81526004016107ff90611f1b565b60a780546001600160a01b0319166001600160a01b0392909216919091179055565b60ab81815481106107bb57600080fd5b6040805160608082018352600080835260208301819052928201526000611140609c54888888886114d7565b60995460405160609190911b6bffffffffffffffffffffffff1916602082015290915060009060340160408051601f1981840301815282825260a154609d546000908152609f60205292832054630a51236960e01b855291945091926001600160a01b0390921691630a512369916111ca9161ffff90911690600190879089908b90600401612043565b6040805180830381865afa1580156111e6573d6000803e3d6000fd5b505050506040513d601f19601f8201168201806040525081019061120a919061209b565b509998505050505050505050565b6033546001600160a01b031633146112425760405162461bcd60e51b81526004016107ff90611f1b565b8181600081811061125557611255612004565b6020029190910135609c55508181600181811061127457611274612004565b6020029190910135609d55505050565b6033546001600160a01b031633146112ae5760405162461bcd60e51b81526004016107ff90611f1b565b60a680546001600160a01b0319166001600160a01b0392909216919091179055565b6033546001600160a01b031633146112fa5760405162461bcd60e51b81526004016107ff90611f1b565b6001600160a01b03811661135f5760405162461bcd60e51b815260206004820152602660248201527f4f776e61626c653a206e6577206f776e657220697320746865207a65726f206160448201526564647265737360d01b60648201526084016107ff565b61136881611633565b50565b90611691565b600061137d82846120d5565b9392505050565b604051636eb1769f60e11b81523060048201526001600160a01b038381166024830152600091839186169063dd62ed3e90604401602060405180830381865afa1580156113d5573d6000803e3d6000fd5b505050506040513d601f19601f820116820180604052508101906113f99190611fb0565b61140391906120d5565b6040516001600160a01b03851660248201526044810182905290915061082190859063095ea7b360e01b906064015b60408051601f198184030181529190526020810180516001600160e01b03166001600160e01b03199093169290921790915261172f565b6040516001600160a01b03808516602483015283166044820152606481018290526108219085906323b872dd60e01b90608401611432565b60a55460405181907f18bd4bd6372d39482d375f68791749755bdb38e8768acbfb6af999cef1adc6e090600090a2600060a55590565b604080516020810187905280820186905260608082018690526080820185905260a08083018590528351808403909101815260c083019093529163025b438360e41b9161152a908390839060e0016120ed565b6040516020818303038152906040529250505095945050505050565b61156a60405180606001604052806000815260200160008152602001606081525090565b60a15482516000908152609f602090815260408083205460a2548751855260a3845291909320549186015160808701516001600160a01b0390951694639fbf10fc94349461ffff909116939290913391906115ce906103e89061136b908490611685565b898b604001518c606001516040518b63ffffffff1660e01b81526004016115fd9998979695949392919061211e565b6000604051808303818588803b15801561161657600080fd5b505af115801561162a573d6000803e3d6000fd5b50505050505050565b603380546001600160a01b038381166001600160a01b0319831681179093556040519116919082907f8be0079c531659141344cd1fd0a4f28419497f9722a3daafe3b4186f6b6457e090600090a35050565b600061137d828461219b565b600061137d82846121ba565b81546001600160a01b0316815260019091019060200180831161169d575050505050306116d56102584261137190919063ffffffff16565b60a9546001600160a01b031696959493929190611809565b81546001600160a01b031681526001909101906020018083116116ed57505060a8546001600160a01b031692506116d59150429050610258611371565b505050565b6000611784826040518060400160405280602081526020017f5361666545524332303a206c6f772d6c6576656c2063616c6c206661696c6564815250856001600160a01b03166119719092919063ffffffff16565b80519091501561172a57808060200190518101906117a291906121dc565b61172a5760405162461bcd60e51b815260206004820152602a60248201527f5361666545524332303a204552433230206f7065726174696f6e20646964206e6044820152691bdd081cdd58d8d9595960b21b60648201526084016107ff565b949350505050565b6000861580611816575085155b156118e15760405163d06ca61f60e01b81526000906001600160a01b038b169063d06ca61f9061184c908c908990600401612280565b600060405180830381865afa158015611869573d6000803e3d6000fd5b505050506040513d6000823e601f3d908101601f1916820160405261189191908101906122af565b90506118d96103e861136b88846118b36001875161198090919063ffffffff16565b815181106118c3576118c3612004565b602002602001015161168590919063ffffffff16565b915050611900565b6118fd6103e861136b876118f78a838e8e611685565b90611685565b90505b604051635c11d79560e01b81526001600160a01b038a1690635c11d79590611934908b908590899089908990600401612361565b600060405180830381600087803b15801561194e57600080fd5b505af1158015611962573d6000803e3d6000fd5b50505050505050505050505050565b6060611801848460008561198c565b600061137d828461239d565b6060824710156119ed5760405162461bcd60e51b815260206004820152602660248201527f416464726573733a20696e73756666696369656e742062616c616e636520666f6044820152651c8818d85b1b60d21b60648201526084016107ff565b6001600160a01b0385163b611a445760405162461bcd60e51b815260206004820152601d60248201527f416464726573733a2063616c6c20746f206e6f6e2d636f6e747261637400000060448201526064016107ff565b600080866001600160a01b03168587604051611a6091906123b4565b60006040518083038185875af1925050503d8060008114611a9d576040519150601f19603f3d011682016040523d82523d6000602084013e611aa2565b606091505b5091509150611ab2828286611abd565b979650505050505050565b60608315611acc57508161137d565b825115611adc5782518084602001fd5b8160405162461bcd60e51b81526004016107ff9190611e68565b828054611b0290611fc9565b90600052602060002090601f016020900481019282611b245760008555611b6a565b82601f10611b3d5782800160ff19823516178555611b6a565b82800160010185558215611b6a579182015b82811115611b6a578235825591602001919060010190611b4f565b50611b76929150611bcd565b5090565b828054828255906000526020600020908101928215611b6a579160200282015b82811115611b6a5781546001600160a01b0319166001600160a01b03843516178255602090920191600190910190611b9a565b5b80821115611b765760008155600101611bce565b600060208284031215611bf457600080fd5b5035919050565b600080600060408486031215611c1057600080fd5b83359250602084013567ffffffffffffffff80821115611c2f57600080fd5b818601915086601f830112611c4357600080fd5b813581811115611c5257600080fd5b876020828501011115611c6457600080fd5b6020830194508093505050509250925092565b600080600080600060a08688031215611c8f57600080fd5b505083359560208501359550604085013594606081013594506080013592509050565b803561ffff81168114611cc457600080fd5b919050565b600060208284031215611cdb57600080fd5b61137d82611cb2565b60008060008060808587031215611cfa57600080fd5b5050823594602084013594506040840135936060013592509050565b60008083601f840112611d2857600080fd5b50813567ffffffffffffffff811115611d4057600080fd5b6020830191508360208260051b8501011115611d5b57600080fd5b9250929050565b60008060208385031215611d7557600080fd5b823567ffffffffffffffff811115611d8c57600080fd5b611d9885828601611d16565b90969095509350505050565b60008060008060408587031215611dba57600080fd5b843567ffffffffffffffff80821115611dd257600080fd5b611dde88838901611d16565b90965094506020870135915080821115611df757600080fd5b50611e0487828801611d16565b95989497509550505050565b60005b83811015611e2b578181015183820152602001611e13565b838111156108215750506000910152565b60008151808452611e54816020860160208601611e10565b601f01601f19169290920160200192915050565b60208152600061137d6020830184611e3c565b6001600160a01b038116811461136857600080fd5b600060208284031215611ea257600080fd5b813561137d81611e7b565b600080600060608486031215611ec257600080fd5b8335611ecd81611e7b565b9250602084013591506040840135611ee481611e7b565b809150509250925092565b60008060408385031215611f0257600080fd5b82359150611f1260208401611cb2565b90509250929050565b6020808252818101527f4f776e61626c653a2063616c6c6572206973206e6f7420746865206f776e6572604082015260600190565b60008060008060008060c08789031215611f6957600080fd5b8651611f7481611e7b565b809650506020870151945060408701519350606087015192506080870151915060a0870151611fa281611e7b565b809150509295509295509295565b600060208284031215611fc257600080fd5b5051919050565b600181811c90821680611fdd57607f821691505b60208210811415611ffe57634e487b7160e01b600052602260045260246000fd5b50919050565b634e487b7160e01b600052603260045260246000fd5b805182526020810151602083015260006040820151606060408501526118016060850182611e3c565b61ffff8616815260ff8516602082015260a06040820152600061206960a0830186611e3c565b828103606084015261207b8186611e3c565b9050828103608084015261208f818561201a565b98975050505050505050565b600080604083850312156120ae57600080fd5b505080516020909101519092909150565b634e487b7160e01b600052601160045260246000fd5b600082198211156120e8576120e86120bf565b500190565b6001600160e01b0319831681528151600090612110816004850160208701611e10565b919091016004019392505050565b600061012061ffff8c1683528a602084015289604084015260018060a01b03891660608401528760808401528660a08401528060c08401526121628184018761201a565b905082810360e08401526121768186611e3c565b905082810361010084015261218b8185611e3c565b9c9b505050505050505050505050565b60008160001904831182151516156121b5576121b56120bf565b500290565b6000826121d757634e487b7160e01b600052601260045260246000fd5b500490565b6000602082840312156121ee57600080fd5b8151801515811461137d57600080fd5b8085111561223457816000190482111561221a5761221a6120bf565b8085161561222757918102915b93841c93908002906121fe565b509250929050565b600081518084526020808501945080840160005b838110156122755781516001600160a01b031687529582019590820190600101612250565b509495945050505050565b828152604060208201526000611801604083018461223c565b634e487b7160e01b600052604160045260246000fd5b600060208083850312156122c257600080fd5b825167ffffffffffffffff808211156122da57600080fd5b818501915085601f8301126122ee57600080fd5b81518181111561230057612300612299565b8060051b604051601f19603f8301168101818110858211171561232557612325612299565b60405291825284820192508381018501918883111561234357600080fd5b938501935b8285101561208f57845184529385019392850192612348565b85815284602082015260a06040820152600061238060a083018661223c565b6001600160a01b0394909416606083015250608001529392505050565b6000828210156123af576123af6120bf565b500390565b600082516123c6818460208701611e10565b919091019291505056fea264697066735822122097d9c0812551bfb1f708d0f4d9ed37a879fe5cd4b3791cf34a90e7fb291cd35364736f6c634300080a0033",
  "immutableReferences": {},
  "source": "// SPDX-License-Identifier: MIT\n\npragma solidity ^0.8.0;\n\nimport \"./_ZorroControllerXChainBase.sol\";\n\nimport \"../interfaces/IZorroControllerXChain.sol\";\n\nimport \"../libraries/PriceFeed.sol\";\n\nimport \"../libraries/SafeSwap.sol\";\n\nimport \"../interfaces/IAMMRouter02.sol\";\n\nimport \"../interfaces/IZorro.sol\";\n\ncontract ZorroControllerXChainEarn is\n    IZorroControllerXChainEarn,\n    ZorroControllerXChainBase\n{\n    /* Libraries */\n    using SafeMathUpgradeable for uint256;\n    using SafeERC20Upgradeable for IERC20Upgradeable;\n    using SafeSwapUni for IAMMRouter02;\n    using PriceFeed for AggregatorV3Interface;\n\n    /* Modifiers */\n\n    /// @notice Only can be called from a registered vault\n    /// @param _pid The pool ID\n    modifier onlyRegisteredVault(uint256 _pid) {\n        (, , , , , address _vault) = ZorroControllerInvestment(\n            currentChainController\n        ).poolInfo(_pid);\n        require(_msgSender() == _vault, \"only reg vault\");\n        _;\n    }\n\n    /* Events */\n\n    event XChainDistributeEarnings(\n        uint256 indexed _remoteChainId,\n        uint256 indexed _buybackAmountUSDC,\n        uint256 indexed _revShareAmountUSDC\n    );\n\n    event RemovedSlashedRewards(uint256 indexed _amountZOR);\n\n    /* Constants */\n    address public constant burnAddress =\n        0x000000000000000000000000000000000000dEaD; // Address to send funds to, to burn them\n\n    /* State */\n\n    uint256 public accumulatedSlashedRewards; // Accumulated ZOR rewards that need to be minted in batch on the home chain. Should reset to zero periodically\n    // TODO: Constructor, setter\n    // Tokens\n    address public tokenUSDC;\n    address public zorroLPPoolOtherToken;\n    // Contracts\n    address public zorroStakingVault;\n    address public uniRouterAddress;\n    // Paths\n    address[] public USDCToZorroPath;\n    address[] public USDCToZorroLPPoolOtherTokenPath;\n    // Price feeds\n    AggregatorV3Interface public priceFeedZOR;\n    AggregatorV3Interface public priceFeedLPPoolOtherToken;\n\n    /* Setters */\n\n    function setTokenUSDC(address _token) external onlyOwner {\n        tokenUSDC = _token;\n    }\n\n    function setZorroLPPoolOtherToken(address _token) external onlyOwner {\n        zorroLPPoolOtherToken = _token;\n    }\n\n    function setZorroStakingVault(address _contract) external onlyOwner {\n        zorroStakingVault = _contract;\n    }\n\n    function setUniRouterAddress(address _contract) external onlyOwner {\n        uniRouterAddress = _contract;\n    }\n\n    function setSwapPaths(\n        address[] calldata _USDCToZorroPath,\n        address[] calldata _USDCToZorroLPPoolOtherTokenPath\n    ) external onlyOwner {\n        USDCToZorroPath = _USDCToZorroPath;\n        USDCToZorroLPPoolOtherTokenPath = _USDCToZorroLPPoolOtherTokenPath;\n    }\n\n    function setPriceFeeds(address[] calldata _priceFeeds) external onlyOwner {\n        priceFeedZOR = AggregatorV3Interface(_priceFeeds[0]);\n        priceFeedLPPoolOtherToken = AggregatorV3Interface(_priceFeeds[1]);\n    }\n\n    /* Fees */\n\n    /// @notice Checks to see how much a cross chain earnings distribution will cost\n    /// @param _amountUSDCBuyback Amount of USDC to buy back\n    /// @param _amountUSDCRevShare Amount of USDC to rev share with ZOR single staking vault\n    /// @param _accSlashedRewards Accumulated slashed rewards on chain\n    /// @return uint256 Quantity of native token as fees\n    /// @param _maxMarketMovement factor to account for max market movement/slippage.\n    function checkXChainDistributeEarningsFee(\n        uint256 _amountUSDCBuyback,\n        uint256 _amountUSDCRevShare,\n        uint256 _accSlashedRewards,\n        uint256 _maxMarketMovement\n    ) external view returns (uint256) {\n        // Init empty LZ object\n        IStargateRouter.lzTxObj memory _lzTxParams;\n\n        // Get payload\n        bytes memory _payload = _encodeXChainDistributeEarningsPayload(\n            chainId,\n            _amountUSDCBuyback,\n            _amountUSDCRevShare,\n            _accSlashedRewards,\n            _maxMarketMovement\n        );\n        bytes memory _dstContract = abi.encodePacked(homeChainZorroController);\n\n        // Calculate native gas fee and ZRO token fee (Layer Zero token)\n        (uint256 _nativeFee, ) = IStargateRouter(stargateRouter)\n            .quoteLayerZeroFee(\n                ZorroChainToLZMap[homeChainId],\n                1,\n                _dstContract,\n                _payload,\n                _lzTxParams\n            );\n        return _nativeFee;\n    }\n\n    /* Encoding (payloads) */\n\n    /// @notice Encodes payload for making cross chan earnings distribution request\n    /// @param _remoteChainId Zorro chain ID of the chain making the distribution request\n    /// @param _amountUSDCBuyback Amount in USDC to buy back\n    /// @param _amountUSDCRevShare Amount in USDC to rev share with ZOR staking vault\n    /// @param _accSlashedRewards Accumulated slashed rewards on chain\n    /// @param _maxMarketMovement factor to account for max market movement/slippage.\n    /// @return bytes ABI encoded payload\n    function _encodeXChainDistributeEarningsPayload(\n        uint256 _remoteChainId,\n        uint256 _amountUSDCBuyback,\n        uint256 _amountUSDCRevShare,\n        uint256 _accSlashedRewards,\n        uint256 _maxMarketMovement\n    ) internal pure returns (bytes memory) {\n        // Calculate method signature\n        bytes4 _sig = this.receiveXChainDistributionRequest.selector;\n        // Calculate abi encoded bytes for input args\n        bytes memory _inputs = abi.encode(\n            _remoteChainId,\n            _amountUSDCBuyback,\n            _amountUSDCRevShare,\n            _accSlashedRewards,\n            _maxMarketMovement\n        );\n        // Concatenate bytes of signature and inputs\n        return bytes.concat(_sig, _inputs);\n    }\n\n    /* Sending */\n\n    /// @notice Sends a request back to the home chain to distribute earnings\n    /// @param _pid Pool ID\n    /// @param _buybackAmountUSDC Amount in USDC to buy back\n    /// @param _revShareAmountUSDC Amount in USDC to revshare w/ ZOR single staking vault\n    /// @param _maxMarketMovement Acceptable slippage (950 = 5%, 990 = 1% etc.)\n    function sendXChainDistributeEarningsRequest(\n        uint256 _pid,\n        uint256 _buybackAmountUSDC,\n        uint256 _revShareAmountUSDC,\n        uint256 _maxMarketMovement\n    ) public payable nonReentrant onlyRegisteredVault(_pid) {\n        // Require funds to be submitted with this message\n        require(msg.value > 0, \"No fees submitted\");\n\n        // Calculate total USDC to transfer\n        uint256 _totalUSDC = _buybackAmountUSDC.add(_revShareAmountUSDC);\n\n        // Allow this contract to spend USDC\n        IERC20Upgradeable(defaultStablecoin).safeIncreaseAllowance(\n            address(this),\n            _totalUSDC\n        );\n\n        // Transfer USDC into this contract\n        IERC20Upgradeable(defaultStablecoin).safeTransferFrom(\n            msg.sender,\n            address(this),\n            _totalUSDC\n        );\n\n        // Check balances\n        uint256 _balUSDC = IERC20Upgradeable(defaultStablecoin).balanceOf(address(this));\n\n        // Get accumulated ZOR rewards and set value\n        uint256 _slashedRewards = _removeSlashedRewards();\n\n        // Generate payload\n        bytes memory _payload = _encodeXChainDistributeEarningsPayload(\n            chainId,\n            _buybackAmountUSDC,\n            _revShareAmountUSDC,\n            _slashedRewards,\n            _maxMarketMovement\n        );\n\n        // Get the destination contract address on the remote chain\n        bytes memory _dstContract = controllerContractsMap[chainId];\n\n        // Call stargate to initiate bridge\n        _callStargateSwap(\n            StargateSwapPayload({\n                chainId: homeChainId,\n                qty: _balUSDC,\n                dstContract: _dstContract,\n                payload: _payload,\n                maxMarketMovement: _maxMarketMovement\n            })\n        );\n    }\n\n    /* Receiving */\n\n    /// @notice Dummy func to allow .selector call above and guarantee typesafety for abi calls.\n    /// @dev Should never ever be actually called.\n    function receiveXChainDistributionRequest(\n        uint256 _remoteChainId,\n        uint256 _amountUSDCBuyback,\n        uint256 _amountUSDCRevShare,\n        uint256 _accSlashedRewards,\n        uint256 _maxMarketMovement\n    ) public {\n        // Revert to make sure this function never gets called\n        revert(\"illegal dummy func call\");\n\n        // But still include the function call here anyway to satisfy type safety requirements in case there is a change\n        _receiveXChainDistributionRequest(\n            _remoteChainId,\n            _amountUSDCBuyback,\n            _amountUSDCRevShare,\n            _accSlashedRewards,\n            _maxMarketMovement\n        );\n    }\n\n    /// @notice Receives an authorized request from remote chains to perform earnings fee distribution events, such as: buyback + LP + burn, and revenue share\n    /// @param _remoteChainId The Zorro chain ID of the chain that this request originated from\n    /// @param _amountUSDCBuyback The amount in USDC that should be minted for LP + burn\n    /// @param _amountUSDCRevShare The amount in USDC that should be minted for revenue sharing with ZOR stakers\n    /// @param _accSlashedRewards Accumulated slashed rewards on chain\n    /// @param _maxMarketMovement factor to account for max market movement/slippage.\n    function _receiveXChainDistributionRequest(\n        uint256 _remoteChainId,\n        uint256 _amountUSDCBuyback,\n        uint256 _amountUSDCRevShare,\n        uint256 _accSlashedRewards,\n        uint256 _maxMarketMovement\n    ) internal {\n        // Total USDC to perform operations\n        uint256 _totalUSDC = _amountUSDCBuyback.add(_amountUSDCRevShare);\n\n        // Determine new USDC balances\n        uint256 _balUSDC = IERC20(defaultStablecoin).balanceOf(address(this));\n\n        /* Buyback */\n        // (Account for slippage)\n        uint256 _buybackAmount = _balUSDC.mul(_amountUSDCBuyback).div(\n            _totalUSDC\n        );\n        _buybackOnChain(_buybackAmount, _maxMarketMovement);\n\n        /* Rev share */\n        // (Account for slippage)\n        uint256 _revShareAmount = _balUSDC.mul(_amountUSDCRevShare).div(\n            _totalUSDC\n        );\n        _revShareOnChain(_revShareAmount, _maxMarketMovement);\n\n        // Emit event\n        emit XChainDistributeEarnings(\n            _remoteChainId,\n            _buybackAmount,\n            _revShareAmount\n        );\n\n        // Award slashed rewards to ZOR stakers\n        if (_accSlashedRewards > 0) {\n            _awardSlashedRewardsToStakers(_accSlashedRewards);\n        }\n    }\n\n    /* Fees */\n\n    /// @notice Adds liquidity to the main ZOR LP pool and burns the resulting LP token\n    /// @param _amountUSDC Amount of USDC to add as liquidity\n    /// @param _maxMarketMovement factor to account for max market movement/slippage.\n    function _buybackOnChain(uint256 _amountUSDC, uint256 _maxMarketMovement)\n        internal\n    {\n        // Authorize spending beforehand\n        IERC20Upgradeable(defaultStablecoin).safeIncreaseAllowance(\n            uniRouterAddress,\n            _amountUSDC\n        );\n\n        // Determine exchange rates using price feed oracle\n        uint256 _exchangeRateZOR = priceFeedZOR.getExchangeRate();\n        uint256 _exchangeRateLPPoolOtherToken = priceFeedLPPoolOtherToken\n            .getExchangeRate();\n\n        // Increase allowance\n        IERC20Upgradeable(tokenUSDC).safeIncreaseAllowance(uniRouterAddress, _amountUSDC);\n\n        // Swap to ZOR token\n        IAMMRouter02(uniRouterAddress).safeSwap(\n            _amountUSDC.div(2),\n            1e12,\n            _exchangeRateZOR,\n            _maxMarketMovement,\n            USDCToZorroPath,\n            address(this),\n            block.timestamp.add(600)\n        );\n        // Swap to counterparty token\n        IAMMRouter02(uniRouterAddress).safeSwap(\n            _amountUSDC.div(2),\n            1e12,\n            _exchangeRateLPPoolOtherToken,\n            _maxMarketMovement,\n            USDCToZorroLPPoolOtherTokenPath,\n            address(this),\n            block.timestamp.add(600)\n        );\n\n        // Enter LP pool\n        uint256 tokenZORAmt = IERC20Upgradeable(ZORRO).balanceOf(address(this));\n        uint256 tokenOtherAmt = IERC20Upgradeable(zorroLPPoolOtherToken).balanceOf(\n            address(this)\n        );\n        IERC20Upgradeable(ZORRO).safeIncreaseAllowance(uniRouterAddress, tokenZORAmt);\n        IERC20Upgradeable(zorroLPPoolOtherToken).safeIncreaseAllowance(\n            uniRouterAddress,\n            tokenOtherAmt\n        );\n        IAMMRouter02(uniRouterAddress).addLiquidity(\n            ZORRO,\n            zorroLPPoolOtherToken,\n            tokenZORAmt,\n            tokenOtherAmt,\n            tokenZORAmt.mul(_maxMarketMovement).div(1000),\n            tokenOtherAmt.mul(_maxMarketMovement).div(1000),\n            burnAddress,\n            block.timestamp.add(600)\n        );\n    }\n\n    /// @notice Pays the ZOR single staking pool the revenue share amount specified\n    /// @param _amountUSDC Amount of USDC to send as ZOR revenue share\n    /// @param _maxMarketMovement factor to account for max market movement/slippage.\n    function _revShareOnChain(uint256 _amountUSDC, uint256 _maxMarketMovement)\n        internal\n    {\n        // Authorize spending beforehand\n        IERC20Upgradeable(defaultStablecoin).safeIncreaseAllowance(\n            uniRouterAddress,\n            _amountUSDC\n        );\n\n        // Get Zorro exchange rate\n        uint256 _ZORROExchangeRate = priceFeedZOR.getExchangeRate();\n\n        // Swap to ZOR\n        // Increase allowance\n        IERC20Upgradeable(tokenUSDC).safeIncreaseAllowance(uniRouterAddress, _amountUSDC);\n        // Swap\n        IAMMRouter02(uniRouterAddress).safeSwap(\n            _amountUSDC,\n            1e12,\n            _ZORROExchangeRate,\n            _maxMarketMovement,\n            USDCToZorroPath,\n            zorroStakingVault,\n            block.timestamp.add(600)\n        );\n    }\n\n    /* Slashed rewards */\n\n    /// @notice Called by oracle to remove slashed ZOR rewards and reset\n    /// @return _slashedZORRewards The amount of accumulated slashed ZOR rewards\n    function _removeSlashedRewards()\n        internal\n        returns (uint256 _slashedZORRewards)\n    {\n        // Store current rewards amount\n        _slashedZORRewards = accumulatedSlashedRewards;\n\n        // Emit success event\n        emit RemovedSlashedRewards(_slashedZORRewards);\n\n        // Reset accumulated rewards\n        accumulatedSlashedRewards = 0;\n    }\n\n    /// @notice Awards the slashed ZOR rewards from other chains to this (home) chain's ZOR staking vault\n    /// @param _slashedZORRewards The amount of accumulated slashed ZOR rewards\n    function _awardSlashedRewardsToStakers(uint256 _slashedZORRewards)\n        internal\n    {\n        // Mint ZOR and send to ZOR staking vault.\n        IZorro(ZORRO).mint(zorroStakingVault, _slashedZORRewards);\n    }\n}\n",
  "sourcePath": "/Users/kristophm/Documents/workspace/zorro-protocol/contracts/controllers/_ZorroControllerXChainEarn.sol",
  "compiler": {
    "name": "solc",
    "version": "0.8.10+commit.fc410830.Emscripten.clang"
  },
  "schemaVersion": "3.4.4",
  "updatedAt": "2022-04-18T01:35:12.690Z",
  "devdoc": {
    "kind": "dev",
    "methods": {
      "checkXChainDistributeEarningsFee(uint256,uint256,uint256,uint256)": {
        "params": {
          "_accSlashedRewards": "Accumulated slashed rewards on chain",
          "_amountUSDCBuyback": "Amount of USDC to buy back",
          "_amountUSDCRevShare": "Amount of USDC to rev share with ZOR single staking vault",
          "_maxMarketMovement": "factor to account for max market movement/slippage."
        },
        "returns": {
          "_0": "uint256 Quantity of native token as fees"
        }
      },
      "owner()": {
        "details": "Returns the address of the current owner."
      },
      "receiveXChainDistributionRequest(uint256,uint256,uint256,uint256,uint256)": {
        "details": "Should never ever be actually called."
      },
      "renounceOwnership()": {
        "details": "Leaves the contract without owner. It will not be possible to call `onlyOwner` functions anymore. Can only be called by the current owner. NOTE: Renouncing ownership will leave the contract without an owner, thereby removing any functionality that is only available to the owner."
      },
      "sendXChainDistributeEarningsRequest(uint256,uint256,uint256,uint256)": {
        "params": {
          "_buybackAmountUSDC": "Amount in USDC to buy back",
          "_maxMarketMovement": "Acceptable slippage (950 = 5%, 990 = 1% etc.)",
          "_pid": "Pool ID",
          "_revShareAmountUSDC": "Amount in USDC to revshare w/ ZOR single staking vault"
        }
      },
      "setControllerContract(uint256,bytes)": {
        "params": {
          "_controller": "Bytes representation of smart contract address for cross chain contract",
          "_zorroChainId": "Zorro Chain ID"
        }
      },
      "setStargateDestPoolIds(uint256,uint16)": {
        "params": {
          "_stargatePoolId": "Stargate pool ID",
          "_zorroChainId": "Zorro chain ID"
        }
      },
      "setZorroChainToLZMap(uint256,uint16)": {
        "params": {
          "_lzChainId": "LayerZero Chain ID",
          "_zorroChainId": "Zorro chain ID"
        }
      },
      "transferOwnership(address)": {
        "details": "Transfers ownership of the contract to a new account (`newOwner`). Can only be called by the current owner."
      }
    },
    "version": 1
  },
  "userdoc": {
    "kind": "user",
    "methods": {
      "checkXChainDistributeEarningsFee(uint256,uint256,uint256,uint256)": {
        "notice": "Checks to see how much a cross chain earnings distribution will cost"
      },
      "receiveXChainDistributionRequest(uint256,uint256,uint256,uint256,uint256)": {
        "notice": "Dummy func to allow .selector call above and guarantee typesafety for abi calls."
      },
      "sendXChainDistributeEarningsRequest(uint256,uint256,uint256,uint256)": {
        "notice": "Sends a request back to the home chain to distribute earnings"
      },
      "setControllerContract(uint256,bytes)": {
        "notice": "Setter: Controller contract for each chain"
      },
      "setLayerZeroParams(address,uint256,address)": {
        "notice": "Setter: Set main LZ params"
      },
      "setStargateDestPoolIds(uint256,uint16)": {
        "notice": "Setter: Stargate dest pool IDs for USD asset"
      },
      "setZorroChainToLZMap(uint256,uint16)": {
        "notice": "Setter: LZ/Stargate params"
      }
    },
    "version": 1
  }
}