{
  "contractName": "ZorroControllerXChainEarn",
  "abi": [
    {
      "anonymous": false,
      "inputs": [
        {
          "indexed": true,
          "internalType": "address",
          "name": "user",
          "type": "address"
        },
        {
          "indexed": true,
          "internalType": "uint256",
          "name": "pid",
          "type": "uint256"
        },
        {
          "indexed": false,
          "internalType": "uint256",
          "name": "wantAmount",
          "type": "uint256"
        }
      ],
      "name": "Deposit",
      "type": "event"
    },
    {
      "anonymous": false,
      "inputs": [
        {
          "indexed": true,
          "internalType": "address",
          "name": "previousOwner",
          "type": "address"
        },
        {
          "indexed": true,
          "internalType": "address",
          "name": "newOwner",
          "type": "address"
        }
      ],
      "name": "OwnershipTransferred",
      "type": "event"
    },
    {
      "anonymous": false,
      "inputs": [
        {
          "indexed": false,
          "internalType": "address",
          "name": "user",
          "type": "address"
        },
        {
          "indexed": true,
          "internalType": "uint256",
          "name": "fromPid",
          "type": "uint256"
        },
        {
          "indexed": true,
          "internalType": "uint256",
          "name": "fromTrancheId",
          "type": "uint256"
        },
        {
          "indexed": true,
          "internalType": "uint256",
          "name": "toPid",
          "type": "uint256"
        }
      ],
      "name": "TransferInvestment",
      "type": "event"
    },
    {
      "anonymous": false,
      "inputs": [
        {
          "indexed": true,
          "internalType": "address",
          "name": "user",
          "type": "address"
        },
        {
          "indexed": true,
          "internalType": "uint256",
          "name": "pid",
          "type": "uint256"
        },
        {
          "indexed": false,
          "internalType": "uint256",
          "name": "trancheId",
          "type": "uint256"
        },
        {
          "indexed": false,
          "internalType": "uint256",
          "name": "wantAmount",
          "type": "uint256"
        }
      ],
      "name": "Withdraw",
      "type": "event"
    },
    {
      "inputs": [
        {
          "internalType": "uint256",
          "name": "",
          "type": "uint256"
        }
      ],
      "name": "USDCToZorroLPPoolToken0Path",
      "outputs": [
        {
          "internalType": "address",
          "name": "",
          "type": "address"
        }
      ],
      "stateMutability": "view",
      "type": "function"
    },
    {
      "inputs": [
        {
          "internalType": "uint256",
          "name": "",
          "type": "uint256"
        }
      ],
      "name": "USDCToZorroLPPoolToken1Path",
      "outputs": [
        {
          "internalType": "address",
          "name": "",
          "type": "address"
        }
      ],
      "stateMutability": "view",
      "type": "function"
    },
    {
      "inputs": [
        {
          "internalType": "uint256",
          "name": "",
          "type": "uint256"
        }
      ],
      "name": "USDCToZorroPath",
      "outputs": [
        {
          "internalType": "address",
          "name": "",
          "type": "address"
        }
      ],
      "stateMutability": "view",
      "type": "function"
    },
    {
      "inputs": [],
      "name": "ZORRO",
      "outputs": [
        {
          "internalType": "address",
          "name": "",
          "type": "address"
        }
      ],
      "stateMutability": "view",
      "type": "function"
    },
    {
      "inputs": [],
      "name": "ZORRODailyDistributionFactorBasisPointsMax",
      "outputs": [
        {
          "internalType": "uint256",
          "name": "",
          "type": "uint256"
        }
      ],
      "stateMutability": "view",
      "type": "function"
    },
    {
      "inputs": [],
      "name": "ZORRODailyDistributionFactorBasisPointsMin",
      "outputs": [
        {
          "internalType": "uint256",
          "name": "",
          "type": "uint256"
        }
      ],
      "stateMutability": "view",
      "type": "function"
    },
    {
      "inputs": [],
      "name": "ZORROPerBlock",
      "outputs": [
        {
          "internalType": "uint256",
          "name": "",
          "type": "uint256"
        }
      ],
      "stateMutability": "view",
      "type": "function"
    },
    {
      "inputs": [],
      "name": "baseRewardRateBasisPoints",
      "outputs": [
        {
          "internalType": "uint256",
          "name": "",
          "type": "uint256"
        }
      ],
      "stateMutability": "view",
      "type": "function"
    },
    {
      "inputs": [],
      "name": "blocksPerDay",
      "outputs": [
        {
          "internalType": "uint256",
          "name": "",
          "type": "uint256"
        }
      ],
      "stateMutability": "view",
      "type": "function"
    },
    {
      "inputs": [],
      "name": "burnAddress",
      "outputs": [
        {
          "internalType": "address",
          "name": "",
          "type": "address"
        }
      ],
      "stateMutability": "view",
      "type": "function"
    },
    {
      "inputs": [],
      "name": "chainId",
      "outputs": [
        {
          "internalType": "uint256",
          "name": "",
          "type": "uint256"
        }
      ],
      "stateMutability": "view",
      "type": "function"
    },
    {
      "inputs": [],
      "name": "chainMultiplier",
      "outputs": [
        {
          "internalType": "uint256",
          "name": "",
          "type": "uint256"
        }
      ],
      "stateMutability": "view",
      "type": "function"
    },
    {
      "inputs": [],
      "name": "curveDefaultStablecoinIndex",
      "outputs": [
        {
          "internalType": "int128",
          "name": "",
          "type": "int128"
        }
      ],
      "stateMutability": "view",
      "type": "function"
    },
    {
      "inputs": [],
      "name": "curveStablePoolAddress",
      "outputs": [
        {
          "internalType": "address",
          "name": "",
          "type": "address"
        }
      ],
      "stateMutability": "view",
      "type": "function"
    },
    {
      "inputs": [],
      "name": "curveSyntheticStablecoinIndex",
      "outputs": [
        {
          "internalType": "int128",
          "name": "",
          "type": "int128"
        }
      ],
      "stateMutability": "view",
      "type": "function"
    },
    {
      "inputs": [],
      "name": "defaultMaxMarketMovement",
      "outputs": [
        {
          "internalType": "uint256",
          "name": "",
          "type": "uint256"
        }
      ],
      "stateMutability": "view",
      "type": "function"
    },
    {
      "inputs": [],
      "name": "defaultStablecoin",
      "outputs": [
        {
          "internalType": "address",
          "name": "",
          "type": "address"
        }
      ],
      "stateMutability": "view",
      "type": "function"
    },
    {
      "inputs": [
        {
          "internalType": "uint256",
          "name": "_pid",
          "type": "uint256"
        },
        {
          "internalType": "uint256",
          "name": "_wantAmt",
          "type": "uint256"
        },
        {
          "internalType": "uint256",
          "name": "_weeksCommitted",
          "type": "uint256"
        }
      ],
      "name": "deposit",
      "outputs": [],
      "stateMutability": "nonpayable",
      "type": "function"
    },
    {
      "inputs": [
        {
          "internalType": "uint256",
          "name": "_pid",
          "type": "uint256"
        },
        {
          "internalType": "uint256",
          "name": "_valueUSDC",
          "type": "uint256"
        },
        {
          "internalType": "uint256",
          "name": "_weeksCommitted",
          "type": "uint256"
        },
        {
          "internalType": "uint256",
          "name": "_maxMarketMovement",
          "type": "uint256"
        }
      ],
      "name": "depositFullService",
      "outputs": [],
      "stateMutability": "nonpayable",
      "type": "function"
    },
    {
      "inputs": [
        {
          "internalType": "uint256",
          "name": "",
          "type": "uint256"
        }
      ],
      "name": "endpointContracts",
      "outputs": [
        {
          "internalType": "address",
          "name": "",
          "type": "address"
        }
      ],
      "stateMutability": "view",
      "type": "function"
    },
    {
      "inputs": [],
      "name": "failedLockedBuybackUSDC",
      "outputs": [
        {
          "internalType": "uint256",
          "name": "",
          "type": "uint256"
        }
      ],
      "stateMutability": "view",
      "type": "function"
    },
    {
      "inputs": [],
      "name": "failedLockedRevShareUSDC",
      "outputs": [
        {
          "internalType": "uint256",
          "name": "",
          "type": "uint256"
        }
      ],
      "stateMutability": "view",
      "type": "function"
    },
    {
      "inputs": [
        {
          "internalType": "uint256",
          "name": "",
          "type": "uint256"
        },
        {
          "internalType": "bytes",
          "name": "",
          "type": "bytes"
        },
        {
          "internalType": "uint256",
          "name": "",
          "type": "uint256"
        }
      ],
      "name": "foreignTrancheInfo",
      "outputs": [
        {
          "internalType": "uint256",
          "name": "trancheIndex",
          "type": "uint256"
        },
        {
          "internalType": "address",
          "name": "localAccount",
          "type": "address"
        }
      ],
      "stateMutability": "view",
      "type": "function"
    },
    {
      "inputs": [
        {
          "internalType": "uint256",
          "name": "durationInWeeks",
          "type": "uint256"
        }
      ],
      "name": "getTimeMultiplier",
      "outputs": [
        {
          "internalType": "uint256",
          "name": "",
          "type": "uint256"
        }
      ],
      "stateMutability": "view",
      "type": "function"
    },
    {
      "inputs": [
        {
          "internalType": "uint256",
          "name": "_liquidityCommitted",
          "type": "uint256"
        },
        {
          "internalType": "uint256",
          "name": "_timeMultiplier",
          "type": "uint256"
        }
      ],
      "name": "getUserContribution",
      "outputs": [
        {
          "internalType": "uint256",
          "name": "",
          "type": "uint256"
        }
      ],
      "stateMutability": "pure",
      "type": "function"
    },
    {
      "inputs": [],
      "name": "homeChainId",
      "outputs": [
        {
          "internalType": "uint8",
          "name": "",
          "type": "uint8"
        }
      ],
      "stateMutability": "view",
      "type": "function"
    },
    {
      "inputs": [],
      "name": "homeChainZorroController",
      "outputs": [
        {
          "internalType": "address",
          "name": "",
          "type": "address"
        }
      ],
      "stateMutability": "view",
      "type": "function"
    },
    {
      "inputs": [
        {
          "internalType": "address",
          "name": "_token",
          "type": "address"
        },
        {
          "internalType": "uint256",
          "name": "_amount",
          "type": "uint256"
        }
      ],
      "name": "inCaseTokensGetStuck",
      "outputs": [],
      "stateMutability": "nonpayable",
      "type": "function"
    },
    {
      "inputs": [],
      "name": "isTimeMultiplierActive",
      "outputs": [
        {
          "internalType": "bool",
          "name": "",
          "type": "bool"
        }
      ],
      "stateMutability": "view",
      "type": "function"
    },
    {
      "inputs": [],
      "name": "layerZeroEndpoint",
      "outputs": [
        {
          "internalType": "address",
          "name": "",
          "type": "address"
        }
      ],
      "stateMutability": "view",
      "type": "function"
    },
    {
      "inputs": [],
      "name": "lockUSDCController",
      "outputs": [
        {
          "internalType": "address",
          "name": "",
          "type": "address"
        }
      ],
      "stateMutability": "view",
      "type": "function"
    },
    {
      "inputs": [],
      "name": "owner",
      "outputs": [
        {
          "internalType": "address",
          "name": "",
          "type": "address"
        }
      ],
      "stateMutability": "view",
      "type": "function"
    },
    {
      "inputs": [
        {
          "internalType": "uint256",
          "name": "",
          "type": "uint256"
        }
      ],
      "name": "poolInfo",
      "outputs": [
        {
          "internalType": "contract IERC20",
          "name": "want",
          "type": "address"
        },
        {
          "internalType": "uint256",
          "name": "allocPoint",
          "type": "uint256"
        },
        {
          "internalType": "uint256",
          "name": "lastRewardBlock",
          "type": "uint256"
        },
        {
          "internalType": "uint256",
          "name": "accZORRORewards",
          "type": "uint256"
        },
        {
          "internalType": "uint256",
          "name": "totalTrancheContributions",
          "type": "uint256"
        },
        {
          "internalType": "address",
          "name": "vault",
          "type": "address"
        }
      ],
      "stateMutability": "view",
      "type": "function"
    },
    {
      "inputs": [],
      "name": "poolLength",
      "outputs": [
        {
          "internalType": "uint256",
          "name": "",
          "type": "uint256"
        }
      ],
      "stateMutability": "view",
      "type": "function"
    },
    {
      "inputs": [],
      "name": "publicPool",
      "outputs": [
        {
          "internalType": "address",
          "name": "",
          "type": "address"
        }
      ],
      "stateMutability": "view",
      "type": "function"
    },
    {
      "inputs": [
        {
          "internalType": "uint256",
          "name": "_amount",
          "type": "uint256"
        }
      ],
      "name": "receiveXChainBurnRewardsRequest",
      "outputs": [],
      "stateMutability": "nonpayable",
      "type": "function"
    },
    {
      "inputs": [
        {
          "internalType": "uint256",
          "name": "",
          "type": "uint256"
        },
        {
          "internalType": "address",
          "name": "",
          "type": "address"
        }
      ],
      "name": "redepositInfo",
      "outputs": [
        {
          "internalType": "uint256",
          "name": "durationCommittedInWeeks",
          "type": "uint256"
        },
        {
          "internalType": "uint256",
          "name": "enteredVaultAt",
          "type": "uint256"
        }
      ],
      "stateMutability": "view",
      "type": "function"
    },
    {
      "inputs": [
        {
          "internalType": "bytes",
          "name": "_contract",
          "type": "bytes"
        }
      ],
      "name": "registerXChainController",
      "outputs": [],
      "stateMutability": "nonpayable",
      "type": "function"
    },
    {
      "inputs": [
        {
          "internalType": "address",
          "name": "_contract",
          "type": "address"
        }
      ],
      "name": "registerXChainEndpoint",
      "outputs": [],
      "stateMutability": "nonpayable",
      "type": "function"
    },
    {
      "inputs": [
        {
          "internalType": "bytes",
          "name": "",
          "type": "bytes"
        }
      ],
      "name": "registeredXChainControllers",
      "outputs": [
        {
          "internalType": "bool",
          "name": "",
          "type": "bool"
        }
      ],
      "stateMutability": "view",
      "type": "function"
    },
    {
      "inputs": [
        {
          "internalType": "address",
          "name": "",
          "type": "address"
        }
      ],
      "name": "registeredXChainEndpoints",
      "outputs": [
        {
          "internalType": "uint8",
          "name": "",
          "type": "uint8"
        }
      ],
      "stateMutability": "view",
      "type": "function"
    },
    {
      "inputs": [],
      "name": "renounceOwnership",
      "outputs": [],
      "stateMutability": "nonpayable",
      "type": "function"
    },
    {
      "inputs": [
        {
          "internalType": "uint256",
          "name": "_baseRewardRateBasisPoints",
          "type": "uint256"
        }
      ],
      "name": "setBaseRewardRateBasisPoints",
      "outputs": [],
      "stateMutability": "nonpayable",
      "type": "function"
    },
    {
      "inputs": [
        {
          "internalType": "uint256",
          "name": "_blocksPerDay",
          "type": "uint256"
        }
      ],
      "name": "setBlocksPerDay",
      "outputs": [],
      "stateMutability": "nonpayable",
      "type": "function"
    },
    {
      "inputs": [
        {
          "internalType": "uint256",
          "name": "_chainId",
          "type": "uint256"
        }
      ],
      "name": "setChainId",
      "outputs": [],
      "stateMutability": "nonpayable",
      "type": "function"
    },
    {
      "inputs": [
        {
          "internalType": "uint256",
          "name": "_chainMultiplier",
          "type": "uint256"
        }
      ],
      "name": "setChainMultiplier",
      "outputs": [],
      "stateMutability": "nonpayable",
      "type": "function"
    },
    {
      "inputs": [
        {
          "internalType": "address",
          "name": "_curveStablePoolAddress",
          "type": "address"
        }
      ],
      "name": "setCurveStablePoolAddress",
      "outputs": [],
      "stateMutability": "nonpayable",
      "type": "function"
    },
    {
      "inputs": [
        {
          "internalType": "uint256",
          "name": "_defaultMaxMarketMovement",
          "type": "uint256"
        }
      ],
      "name": "setDefaultMaxMarketMovement",
      "outputs": [],
      "stateMutability": "nonpayable",
      "type": "function"
    },
    {
      "inputs": [
        {
          "internalType": "address",
          "name": "_defaultStablecoin",
          "type": "address"
        }
      ],
      "name": "setDefaultStablecoin",
      "outputs": [],
      "stateMutability": "nonpayable",
      "type": "function"
    },
    {
      "inputs": [
        {
          "internalType": "uint256",
          "name": "_chainId",
          "type": "uint256"
        },
        {
          "internalType": "address",
          "name": "_endpointContract",
          "type": "address"
        }
      ],
      "name": "setEndpointContracts",
      "outputs": [],
      "stateMutability": "nonpayable",
      "type": "function"
    },
    {
      "inputs": [
        {
          "internalType": "address",
          "name": "_homeChainZorroController",
          "type": "address"
        }
      ],
      "name": "setHomeChainZorroController",
      "outputs": [],
      "stateMutability": "nonpayable",
      "type": "function"
    },
    {
      "inputs": [
        {
          "internalType": "bool",
          "name": "_isActive",
          "type": "bool"
        }
      ],
      "name": "setIsTimeMultiplierActive",
      "outputs": [],
      "stateMutability": "nonpayable",
      "type": "function"
    },
    {
      "inputs": [
        {
          "internalType": "address",
          "name": "_lockUSDCController",
          "type": "address"
        }
      ],
      "name": "setLockUSDCController",
      "outputs": [],
      "stateMutability": "nonpayable",
      "type": "function"
    },
    {
      "inputs": [
        {
          "internalType": "address",
          "name": "_priceFeedLPPoolToken",
          "type": "address"
        }
      ],
      "name": "setPriceFeedLPPoolToken0",
      "outputs": [],
      "stateMutability": "nonpayable",
      "type": "function"
    },
    {
      "inputs": [
        {
          "internalType": "address",
          "name": "_priceFeedLPPoolToken",
          "type": "address"
        }
      ],
      "name": "setPriceFeedLPPoolToken1",
      "outputs": [],
      "stateMutability": "nonpayable",
      "type": "function"
    },
    {
      "inputs": [
        {
          "internalType": "address",
          "name": "_publicPoolAddress",
          "type": "address"
        }
      ],
      "name": "setPublicPool",
      "outputs": [],
      "stateMutability": "nonpayable",
      "type": "function"
    },
    {
      "inputs": [
        {
          "internalType": "uint256",
          "name": "_blockNumber",
          "type": "uint256"
        }
      ],
      "name": "setStartBlock",
      "outputs": [],
      "stateMutability": "nonpayable",
      "type": "function"
    },
    {
      "inputs": [
        {
          "internalType": "address",
          "name": "_syntheticStablecoin",
          "type": "address"
        }
      ],
      "name": "setSyntheticStablecoin",
      "outputs": [],
      "stateMutability": "nonpayable",
      "type": "function"
    },
    {
      "inputs": [
        {
          "internalType": "uint256",
          "name": "_targetTVLCaptureBasisPoints",
          "type": "uint256"
        }
      ],
      "name": "setTargetTVLCaptureBasisPoints",
      "outputs": [],
      "stateMutability": "nonpayable",
      "type": "function"
    },
    {
      "inputs": [
        {
          "internalType": "address[]",
          "name": "_path",
          "type": "address[]"
        }
      ],
      "name": "setUSDCToZorroLPPoolToken0Path",
      "outputs": [],
      "stateMutability": "nonpayable",
      "type": "function"
    },
    {
      "inputs": [
        {
          "internalType": "address[]",
          "name": "_path",
          "type": "address[]"
        }
      ],
      "name": "setUSDCToZorroLPPoolToken1Path",
      "outputs": [],
      "stateMutability": "nonpayable",
      "type": "function"
    },
    {
      "inputs": [
        {
          "internalType": "address",
          "name": "_uniV2Router",
          "type": "address"
        }
      ],
      "name": "setUniRouter",
      "outputs": [],
      "stateMutability": "nonpayable",
      "type": "function"
    },
    {
      "inputs": [
        {
          "internalType": "address",
          "name": "_xChainReceivingOracle",
          "type": "address"
        }
      ],
      "name": "setXChainReceivingOracle",
      "outputs": [],
      "stateMutability": "nonpayable",
      "type": "function"
    },
    {
      "inputs": [
        {
          "internalType": "uint256",
          "name": "_value",
          "type": "uint256"
        }
      ],
      "name": "setZORRODailyDistributionFactorBasisPointsMax",
      "outputs": [],
      "stateMutability": "nonpayable",
      "type": "function"
    },
    {
      "inputs": [
        {
          "internalType": "uint256",
          "name": "_value",
          "type": "uint256"
        }
      ],
      "name": "setZORRODailyDistributionFactorBasisPointsMin",
      "outputs": [],
      "stateMutability": "nonpayable",
      "type": "function"
    },
    {
      "inputs": [
        {
          "internalType": "address",
          "name": "_zorroControllerOracle",
          "type": "address"
        }
      ],
      "name": "setZorroControllerOracle",
      "outputs": [],
      "stateMutability": "nonpayable",
      "type": "function"
    },
    {
      "inputs": [
        {
          "internalType": "bytes32",
          "name": "_zorroControllerOracleEmissionsJobId",
          "type": "bytes32"
        }
      ],
      "name": "setZorroControllerOracleEmissionsJobId",
      "outputs": [],
      "stateMutability": "nonpayable",
      "type": "function"
    },
    {
      "inputs": [
        {
          "internalType": "uint256",
          "name": "_zorroControllerOracleFee",
          "type": "uint256"
        }
      ],
      "name": "setZorroControllerOracleFee",
      "outputs": [],
      "stateMutability": "nonpayable",
      "type": "function"
    },
    {
      "inputs": [
        {
          "internalType": "bytes32",
          "name": "_zorroControllerOraclePriceJobId",
          "type": "bytes32"
        }
      ],
      "name": "setZorroControllerOraclePriceJobId",
      "outputs": [],
      "stateMutability": "nonpayable",
      "type": "function"
    },
    {
      "inputs": [
        {
          "internalType": "address",
          "name": "_zorroLPPool",
          "type": "address"
        }
      ],
      "name": "setZorroLPPool",
      "outputs": [],
      "stateMutability": "nonpayable",
      "type": "function"
    },
    {
      "inputs": [
        {
          "internalType": "address",
          "name": "_token0",
          "type": "address"
        }
      ],
      "name": "setZorroLPPoolToken0",
      "outputs": [],
      "stateMutability": "nonpayable",
      "type": "function"
    },
    {
      "inputs": [
        {
          "internalType": "address",
          "name": "_token1",
          "type": "address"
        }
      ],
      "name": "setZorroLPPoolToken1",
      "outputs": [],
      "stateMutability": "nonpayable",
      "type": "function"
    },
    {
      "inputs": [
        {
          "internalType": "uint256",
          "name": "_totalChainMultipliers",
          "type": "uint256"
        },
        {
          "internalType": "uint256",
          "name": "_totalMarketTVLUSD",
          "type": "uint256"
        },
        {
          "internalType": "uint256",
          "name": "_targetTVLCaptureBasisPoints",
          "type": "uint256"
        },
        {
          "internalType": "uint256",
          "name": "_ZorroTotalVaultTVLUSD",
          "type": "uint256"
        },
        {
          "internalType": "uint256",
          "name": "_publicPoolZORBalance",
          "type": "uint256"
        }
      ],
      "name": "setZorroPerBlock",
      "outputs": [],
      "stateMutability": "nonpayable",
      "type": "function"
    },
    {
      "inputs": [
        {
          "internalType": "address",
          "name": "_zorroStakingVault",
          "type": "address"
        }
      ],
      "name": "setZorroStakingVault",
      "outputs": [],
      "stateMutability": "nonpayable",
      "type": "function"
    },
    {
      "inputs": [
        {
          "internalType": "uint256",
          "name": "",
          "type": "uint256"
        }
      ],
      "name": "stargateDestPoolIds",
      "outputs": [
        {
          "internalType": "uint256",
          "name": "",
          "type": "uint256"
        }
      ],
      "stateMutability": "view",
      "type": "function"
    },
    {
      "inputs": [],
      "name": "stargateRouter",
      "outputs": [
        {
          "internalType": "address",
          "name": "",
          "type": "address"
        }
      ],
      "stateMutability": "view",
      "type": "function"
    },
    {
      "inputs": [],
      "name": "stargateSwapPoolId",
      "outputs": [
        {
          "internalType": "uint256",
          "name": "",
          "type": "uint256"
        }
      ],
      "stateMutability": "view",
      "type": "function"
    },
    {
      "inputs": [
        {
          "internalType": "uint256",
          "name": "",
          "type": "uint256"
        }
      ],
      "name": "stargateZorroChainMap",
      "outputs": [
        {
          "internalType": "uint16",
          "name": "",
          "type": "uint16"
        }
      ],
      "stateMutability": "view",
      "type": "function"
    },
    {
      "inputs": [],
      "name": "startBlock",
      "outputs": [
        {
          "internalType": "uint256",
          "name": "",
          "type": "uint256"
        }
      ],
      "stateMutability": "view",
      "type": "function"
    },
    {
      "inputs": [],
      "name": "syntheticStablecoin",
      "outputs": [
        {
          "internalType": "address",
          "name": "",
          "type": "address"
        }
      ],
      "stateMutability": "view",
      "type": "function"
    },
    {
      "inputs": [],
      "name": "targetTVLCaptureBasisPoints",
      "outputs": [
        {
          "internalType": "uint256",
          "name": "",
          "type": "uint256"
        }
      ],
      "stateMutability": "view",
      "type": "function"
    },
    {
      "inputs": [],
      "name": "totalAllocPoint",
      "outputs": [
        {
          "internalType": "uint256",
          "name": "",
          "type": "uint256"
        }
      ],
      "stateMutability": "view",
      "type": "function"
    },
    {
      "inputs": [
        {
          "internalType": "uint256",
          "name": "",
          "type": "uint256"
        },
        {
          "internalType": "address",
          "name": "",
          "type": "address"
        },
        {
          "internalType": "uint256",
          "name": "",
          "type": "uint256"
        }
      ],
      "name": "trancheInfo",
      "outputs": [
        {
          "internalType": "uint256",
          "name": "contribution",
          "type": "uint256"
        },
        {
          "internalType": "uint256",
          "name": "timeMultiplier",
          "type": "uint256"
        },
        {
          "internalType": "uint256",
          "name": "rewardDebt",
          "type": "uint256"
        },
        {
          "internalType": "uint256",
          "name": "durationCommittedInWeeks",
          "type": "uint256"
        },
        {
          "internalType": "uint256",
          "name": "enteredVaultAt",
          "type": "uint256"
        },
        {
          "internalType": "uint256",
          "name": "exitedVaultStartingAt",
          "type": "uint256"
        }
      ],
      "stateMutability": "view",
      "type": "function"
    },
    {
      "inputs": [
        {
          "internalType": "uint256",
          "name": "_pid",
          "type": "uint256"
        },
        {
          "internalType": "address",
          "name": "_user",
          "type": "address"
        }
      ],
      "name": "trancheLength",
      "outputs": [
        {
          "internalType": "uint256",
          "name": "",
          "type": "uint256"
        }
      ],
      "stateMutability": "view",
      "type": "function"
    },
    {
      "inputs": [
        {
          "internalType": "uint256",
          "name": "_fromPid",
          "type": "uint256"
        },
        {
          "internalType": "uint256",
          "name": "_fromTrancheId",
          "type": "uint256"
        },
        {
          "internalType": "uint256",
          "name": "_toPid",
          "type": "uint256"
        },
        {
          "internalType": "uint256",
          "name": "_maxMarketMovement",
          "type": "uint256"
        }
      ],
      "name": "transferInvestment",
      "outputs": [],
      "stateMutability": "nonpayable",
      "type": "function"
    },
    {
      "inputs": [
        {
          "internalType": "address",
          "name": "newOwner",
          "type": "address"
        }
      ],
      "name": "transferOwnership",
      "outputs": [],
      "stateMutability": "nonpayable",
      "type": "function"
    },
    {
      "inputs": [
        {
          "internalType": "bytes",
          "name": "_contract",
          "type": "bytes"
        }
      ],
      "name": "unRegisterXChainController",
      "outputs": [],
      "stateMutability": "nonpayable",
      "type": "function"
    },
    {
      "inputs": [
        {
          "internalType": "address",
          "name": "_contract",
          "type": "address"
        }
      ],
      "name": "unRegisterXChainEndpoint",
      "outputs": [],
      "stateMutability": "nonpayable",
      "type": "function"
    },
    {
      "inputs": [],
      "name": "uniRouterAddress",
      "outputs": [
        {
          "internalType": "address",
          "name": "",
          "type": "address"
        }
      ],
      "stateMutability": "view",
      "type": "function"
    },
    {
      "inputs": [
        {
          "internalType": "uint256",
          "name": "_pid",
          "type": "uint256"
        }
      ],
      "name": "updatePool",
      "outputs": [],
      "stateMutability": "nonpayable",
      "type": "function"
    },
    {
      "inputs": [
        {
          "internalType": "uint256",
          "name": "_pid",
          "type": "uint256"
        },
        {
          "internalType": "uint256",
          "name": "_trancheId",
          "type": "uint256"
        },
        {
          "internalType": "bool",
          "name": "_harvestOnly",
          "type": "bool"
        }
      ],
      "name": "withdraw",
      "outputs": [
        {
          "internalType": "uint256",
          "name": "",
          "type": "uint256"
        }
      ],
      "stateMutability": "nonpayable",
      "type": "function"
    },
    {
      "inputs": [
        {
          "internalType": "uint256",
          "name": "_pid",
          "type": "uint256"
        }
      ],
      "name": "withdrawAll",
      "outputs": [],
      "stateMutability": "nonpayable",
      "type": "function"
    },
    {
      "inputs": [
        {
          "internalType": "uint256",
          "name": "_pid",
          "type": "uint256"
        },
        {
          "internalType": "uint256",
          "name": "_trancheId",
          "type": "uint256"
        },
        {
          "internalType": "bool",
          "name": "_harvestOnly",
          "type": "bool"
        },
        {
          "internalType": "uint256",
          "name": "_maxMarketMovement",
          "type": "uint256"
        }
      ],
      "name": "withdrawalFullService",
      "outputs": [
        {
          "internalType": "uint256",
          "name": "",
          "type": "uint256"
        }
      ],
      "stateMutability": "nonpayable",
      "type": "function"
    },
    {
      "inputs": [],
      "name": "xChainReceivingOracle",
      "outputs": [
        {
          "internalType": "address",
          "name": "",
          "type": "address"
        }
      ],
      "stateMutability": "view",
      "type": "function"
    },
    {
      "inputs": [],
      "name": "zorroControllerOracle",
      "outputs": [
        {
          "internalType": "address",
          "name": "",
          "type": "address"
        }
      ],
      "stateMutability": "view",
      "type": "function"
    },
    {
      "inputs": [],
      "name": "zorroControllerOracleEmissionsJobId",
      "outputs": [
        {
          "internalType": "bytes32",
          "name": "",
          "type": "bytes32"
        }
      ],
      "stateMutability": "view",
      "type": "function"
    },
    {
      "inputs": [],
      "name": "zorroControllerOracleFee",
      "outputs": [
        {
          "internalType": "uint256",
          "name": "",
          "type": "uint256"
        }
      ],
      "stateMutability": "view",
      "type": "function"
    },
    {
      "inputs": [],
      "name": "zorroControllerOraclePriceJobId",
      "outputs": [
        {
          "internalType": "bytes32",
          "name": "",
          "type": "bytes32"
        }
      ],
      "stateMutability": "view",
      "type": "function"
    },
    {
      "inputs": [],
      "name": "zorroLPPool",
      "outputs": [
        {
          "internalType": "address",
          "name": "",
          "type": "address"
        }
      ],
      "stateMutability": "view",
      "type": "function"
    },
    {
      "inputs": [],
      "name": "zorroLPPoolToken0",
      "outputs": [
        {
          "internalType": "address",
          "name": "",
          "type": "address"
        }
      ],
      "stateMutability": "view",
      "type": "function"
    },
    {
      "inputs": [],
      "name": "zorroLPPoolToken1",
      "outputs": [
        {
          "internalType": "address",
          "name": "",
          "type": "address"
        }
      ],
      "stateMutability": "view",
      "type": "function"
    },
    {
      "inputs": [],
      "name": "zorroStakingVault",
      "outputs": [
        {
          "internalType": "address",
          "name": "",
          "type": "address"
        }
      ],
      "stateMutability": "view",
      "type": "function"
    },
    {
      "inputs": [
        {
          "internalType": "uint16",
          "name": "",
          "type": "uint16"
        }
      ],
      "name": "zorroStargateChainMap",
      "outputs": [
        {
          "internalType": "uint256",
          "name": "",
          "type": "uint256"
        }
      ],
      "stateMutability": "view",
      "type": "function"
    },
    {
      "inputs": [
        {
          "internalType": "address",
          "name": "_account",
          "type": "address"
        },
        {
          "internalType": "uint256",
          "name": "_amountUSDC",
          "type": "uint256"
        },
        {
          "internalType": "bytes",
          "name": "_xChainOrigin",
          "type": "bytes"
        },
        {
          "internalType": "bytes",
          "name": "_xChainSender",
          "type": "bytes"
        }
      ],
      "name": "receiveXChainUnlockRequest",
      "outputs": [],
      "stateMutability": "nonpayable",
      "type": "function"
    },
    {
      "inputs": [
        {
          "internalType": "uint256",
          "name": "_pid",
          "type": "uint256"
        },
        {
          "internalType": "uint256",
          "name": "_buybackAmountUSDC",
          "type": "uint256"
        },
        {
          "internalType": "uint256",
          "name": "_revShareAmountUSDC",
          "type": "uint256"
        }
      ],
      "name": "distributeEarningsXChain",
      "outputs": [],
      "stateMutability": "nonpayable",
      "type": "function"
    },
    {
      "inputs": [
        {
          "internalType": "uint256",
          "name": "_chainId",
          "type": "uint256"
        },
        {
          "internalType": "bytes",
          "name": "_callbackContract",
          "type": "bytes"
        },
        {
          "internalType": "uint256",
          "name": "_amountUSDCBuyback",
          "type": "uint256"
        },
        {
          "internalType": "uint256",
          "name": "_amountUSDCRevShare",
          "type": "uint256"
        },
        {
          "internalType": "uint256",
          "name": "_failedAmountUSDCBuyback",
          "type": "uint256"
        },
        {
          "internalType": "uint256",
          "name": "_failedAmountUSDCRevShare",
          "type": "uint256"
        },
        {
          "internalType": "bytes",
          "name": "_xChainOrigin",
          "type": "bytes"
        },
        {
          "internalType": "bytes",
          "name": "_xChainSender",
          "type": "bytes"
        }
      ],
      "name": "receiveXChainDistributionRequest",
      "outputs": [],
      "stateMutability": "nonpayable",
      "type": "function"
    },
    {
      "inputs": [
        {
          "internalType": "uint256",
          "name": "_amountUSDCBuyback",
          "type": "uint256"
        },
        {
          "internalType": "uint256",
          "name": "_amountUSDCRevShare",
          "type": "uint256"
        },
        {
          "internalType": "uint256",
          "name": "_failedAmountUSDCBuyback",
          "type": "uint256"
        },
        {
          "internalType": "uint256",
          "name": "_failedAmountUSDCRevShare",
          "type": "uint256"
        },
        {
          "internalType": "bytes",
          "name": "_xChainOrigin",
          "type": "bytes"
        },
        {
          "internalType": "bytes",
          "name": "_xChainSender",
          "type": "bytes"
        }
      ],
      "name": "receiveBurnLockedEarningsRequest",
      "outputs": [],
      "stateMutability": "nonpayable",
      "type": "function"
    },
    {
      "inputs": [
        {
          "internalType": "uint256",
          "name": "_chainId",
          "type": "uint256"
        },
        {
          "internalType": "bytes",
          "name": "_callbackContract",
          "type": "bytes"
        },
        {
          "internalType": "uint256",
          "name": "_amountUSDCBuyback",
          "type": "uint256"
        },
        {
          "internalType": "uint256",
          "name": "_amountUSDCRevShare",
          "type": "uint256"
        },
        {
          "internalType": "uint256",
          "name": "_failedAmountUSDCBuyback",
          "type": "uint256"
        },
        {
          "internalType": "uint256",
          "name": "_failedAmountUSDCRevShare",
          "type": "uint256"
        },
        {
          "internalType": "uint256",
          "name": "_ZORROExchangeRate",
          "type": "uint256"
        }
      ],
      "name": "buybackAndRevShareCallback",
      "outputs": [],
      "stateMutability": "nonpayable",
      "type": "function"
    }
  ],
  "bytecode": "0x608060405260038054600160a060020a03191661dead179055617080600655600160098190556014600a908155600b829055600c805460ff199081169093179055600d556103ca601955601d8054909116905560006034553480156200006457600080fd5b506200008b6200007c64010000000062000095810204565b64010000000062000099810204565b60018055620000e9565b3390565b60008054600160a060020a03838116600160a060020a0319831681178455604051919092169283917f8be0079c531659141344cd1fd0a4f28419497f9722a3daafe3b4186f6b6457e09190a35050565b614f4e80620000f96000396000f3fe608060405234801561001057600080fd5b50600436106106775760003560e060020a900480637e49b84011610355578063c2936142116101c7578063e317030911610113578063ef126967116100b1578063f2fde38b1161008b578063f2fde38b14610f04578063f35e4a6e14610f17578063fa88fe7b14610f2a578063fc39a29e14610f3d57600080fd5b8063ef12696714610ed1578063ef190fec14610ede578063f2d0caa914610ef157600080fd5b8063ed148bf3116100ed578063ed148bf314610e85578063edf9f8f514610e98578063ee4e268714610eab578063ef0e2ff414610ebe57600080fd5b8063e317030914610e52578063ea07667a14610e65578063ec54e4a414610e7857600080fd5b8063c913b4b311610180578063d7f33a821161015a578063d7f33a8214610e10578063d85c554814610e23578063ddd88fec14610e2c578063e2ae075014610e3f57600080fd5b8063c913b4b314610dbd578063cb9c2f6814610df4578063ce9e292814610dfd57600080fd5b8063c293614214610d21578063c29de0d214610d2a578063c4f79c2314610d71578063c524a05614610d84578063c6d758cb14610d97578063c8d9bc9414610daa57600080fd5b80639cde7a00116102a1578063a9e56f3c1161023f578063b61bb80a11610219578063b61bb80a14610cd5578063b961b9b414610ce8578063bf9caa8014610cfb578063c27893ef14610d0e57600080fd5b8063a9e56f3c14610c6f578063b4b4e9eb14610c82578063b614bdba14610cc257600080fd5b8063a4d2b0831161027b578063a4d2b08314610c23578063a77f62c914610c36578063a80bee0714610c49578063a9418d6714610c5c57600080fd5b80639cde7a0014610bf45780639cebd37114610c07578063a00c807c14610c1057600080fd5b80638da5cb5b1161030e5780639568786c116102e85780639568786c14610bbc578063958e2d3114610bcf5780639a8a059214610be25780639b8ad2d614610beb57600080fd5b80638da5cb5b14610b8b578063941d3fd014610b9c57806394909cc214610ba957600080fd5b80637e49b84014610af757806381ea795d14610b2c578063823c43d014610b3f578063871869ca14610b525780638b2bc85214610b655780638c157db214610b7857600080fd5b806348d57c8e116104ee57806368d2b2601161043a57806370d5ae05116103d8578063745af0a8116103b2578063745af0a814610ab557806376cc230314610ac85780637bf604d814610ad15780637e37c76914610ae457600080fd5b806370d5ae0514610a87578063715018a614610a9a57806372b2355614610aa257600080fd5b80636b8eb2e5116104145780636b8eb2e514610a455780636b908e5714610a585780636c78d49c14610a615780636ca8bd6514610a7457600080fd5b806368d2b26014610a16578063693a090b14610a1f5780636985b93414610a3257600080fd5b80635527a6f9116104a757806365bc77bc1161048157806365bc77bc146109a0578063668ababb146109dd578063683dc6f5146109f057806368ce004b14610a0357600080fd5b80635527a6f91461097b5780635790f599146109845780636179ecd11461098d57600080fd5b806348d57c8e1461091d5780634cfea68a146109305780635051d3711461093957806351eb05a61461094c578063524277721461095f57806353f73f871461096857600080fd5b80632c4599fb116105c85780633b710688116105665780634098b0eb116105405780634098b0eb146108db578063416d0de7146108ee5780634780f9f51461090157806348cd4cb11461091457600080fd5b80633b710688146108b65780633b9ce565146108bf5780633bbc1ffc146108c857600080fd5b8063353b6c2c116105a2578063353b6c2c14610849578063375414641461085c5780633968ed48146108905780633b35b727146108a357600080fd5b80632c4599fb146107f35780632e31283d1461080657806333cfcd3b1461083657600080fd5b80631526fe27116106355780631ca95f941161060f5780631ca95f9414610784578063212b31a2146107ad578063219b38b8146107c057806326fc7c7d146107e057600080fd5b80631526fe271461070c578063158340411461075b57806317caf6f11461077b57600080fd5b8062aeef8a1461067c578063025b10451461069157806307968db1146106c1578063081e3eda146106d4578063104a6132146106e65780631479a6df146106f9575b600080fd5b61068f61068a3660046143ca565b610f50565b005b6024546106a490600160a060020a031681565b604051600160a060020a0390911681526020015b60405180910390f35b602a546106a490600160a060020a031681565b6031545b6040519081526020016106b8565b6106a46106f43660046143f6565b61100c565b61068f6107073660046143f6565b611036565b61071f61071a3660046143f6565b611068565b60408051600160a060020a03978816815260208101969096528501939093526060840191909152608083015290911660a082015260c0016106b8565b6106d861076936600461440f565b60266020526000908152604090205481565b6106d860345481565b6106a46107923660046143f6565b601e60205260009081526040902054600160a060020a031681565b61068f6107bb36600461447c565b6110bb565b6106d86107ce3660046143f6565b60296020526000908152604090205481565b61068f6107ee36600461450a565b611202565b61068f6108013660046143f6565b611251565b6108196108143660046145df565b611283565b60408051928352600160a060020a039091166020830152016106b8565b6106d861084436600461463d565b6112e5565b61068f6108573660046143f6565b61137a565b60115461087d907001000000000000000000000000000000009004600f0b81565b604051600f9190910b81526020016106b8565b61068f61089e366004614676565b6113ac565b61068f6108b13660046143f6565b61142d565b6106d8600d5481565b6106d8600a5481565b61068f6108d63660046143f6565b61145f565b61068f6108e93660046143f6565b611491565b600f546106a490600160a060020a031681565b61068f61090f366004614734565b6114c3565b6106d860055481565b6021546106a490600160a060020a031681565b6106d860065481565b61068f61094736600461450a565b611577565b61068f61095a3660046143f6565b6115c6565b6106d860305481565b6106d8610976366004614766565b611732565b6106d860095481565b6106d860285481565b61068f61099b3660046143f6565b61175a565b6109cd6109ae366004614792565b8051602081830181018051828252928201919093012091525460ff1681565b60405190151581526020016106b8565b6004546106a490600160a060020a031681565b61068f6109fe36600461450a565b61178c565b61068f610a113660046147c7565b6117db565b6106d8602f5481565b6015546106a490600160a060020a031681565b61068f610a403660046143f6565b61181f565b61068f610a53366004614873565b6118d9565b6106d8602e5481565b61068f610a6f3660046148ae565b6119d8565b61068f610a8236600461450a565b611a18565b6003546106a490600160a060020a031681565b61068f611a67565b61068f610ab036600461450a565b611aa0565b6106d8610ac33660046148cb565b611aef565b6106d860235481565b6012546106a490600160a060020a031681565b61068f610af2366004614734565b611b65565b610b1a610b0536600461450a565b601f6020526000908152604090205460ff1681565b60405160ff90911681526020016106b8565b61068f610b3a366004614792565b611ce3565b602d546106a490600160a060020a031681565b61068f610b60366004614792565b611d45565b6014546106a490600160a060020a031681565b6002546106a490600160a060020a031681565b600054600160a060020a03166106a4565b600c546109cd9060ff1681565b61068f610bb736600461450a565b611d84565b6106d8610bca3660046143f6565b611dd3565b61068f610bdd3660046143f6565b611eac565b6106d8601c5481565b6106d860195481565b6106a4610c023660046143f6565b611f16565b6106d8600b5481565b61068f610c1e3660046147c7565b611f26565b601a546106a490600160a060020a031681565b61068f610c443660046143f6565b611f66565b6106d8610c5736600461490a565b611f98565b61068f610c6a36600461450a565b611fb4565b6027546106a490600160a060020a031681565b610c95610c9036600461492c565b61205c565b604080519687526020870195909552938501929092526060840152608083015260a082015260c0016106b8565b6106a4610cd03660046143f6565b6120bd565b600e546106a490600160a060020a031681565b61068f610cf63660046143f6565b6120cd565b61068f610d0936600461450a565b6120ff565b6010546106a490600160a060020a031681565b6106d860075481565b610d5c610d38366004614766565b60356020908152600092835260408084209091529082529020805460019091015482565b604080519283526020830191909152016106b8565b61068f610d7f366004614766565b61214e565b61068f610d9236600461450a565b6121a9565b61068f610da5366004614961565b6121f8565b61068f610db83660046143ca565b6122c0565b610de1610dcb3660046143f6565b60256020526000908152604090205461ffff1681565b60405161ffff90911681526020016106b8565b6106d860085481565b61068f610e0b36600461450a565b61234b565b61068f610e1e36600461450a565b61239a565b6106d860225481565b61068f610e3a36600461450a565b6123eb565b61068f610e4d36600461498b565b61243a565b61068f610e60366004614a14565b6124ee565b61068f610e733660046143f6565b612563565b60115461087d90600f0b81565b6013546106a490600160a060020a031681565b61068f610ea636600461450a565b612595565b61068f610eb936600461450a565b6125e4565b61068f610ecc3660046143f6565b612633565b601d54610b1a9060ff1681565b61068f610eec36600461450a565b612665565b61068f610eff36600461450a565b6126b4565b61068f610f1236600461450a565b612702565b61068f610f253660046143f6565b6127ba565b61068f610f3836600461450a565b6127ec565b601b546106a490600160a060020a031681565b60026001541415610f7f5760405160e560020a62461bcd028152600401610f7690614a92565b60405180910390fd5b6002600181905550600060318481548110610f9c57610f9c614ac9565b600091825260209091206006909102018054909150610fc590600160a060020a0316308561283b565b60058101548154610fe591600160a060020a03918216913391168661297f565b6110028433604051806020016040528060008152508686426129d0565b5050600180555050565b6018818154811061101c57600080fd5b600091825260209091200154600160a060020a0316905081565b600054600160a060020a031633146110635760405160e560020a62461bcd028152600401610f7690614ae2565b600955565b6031818154811061107857600080fd5b6000918252602090912060069091020180546001820154600283015460038401546004850154600590950154600160a060020a0394851696509294919390921686565b602d54600160a060020a031633600160a060020a0316146111215760405160e560020a62461bcd02815260206004820152601160248201527f6f6e6c79205a6f72726f206f7261636c650000000000000000000000000000006044820152606401610f76565b60006111398361113386818a8a612cc9565b90612cc9565b600e5460405160e060020a6370a08231028152306004820152919250600091600160a060020a03909116906370a0823190602401602060405180830381865afa15801561118a573d6000803e3d6000fd5b505050506040513d601f19601f820116820180604052508101906111ae9190614b17565b905060006111d0836111ca6111c38b8a612cc9565b8590612cd5565b90612ce1565b90506111dc8185612ced565b60006111e883836131ee565b90506111f481866131fa565b505050505050505050505050565b600054600160a060020a0316331461122f5760405160e560020a62461bcd028152600401610f7690614ae2565b60218054600160a060020a031916600160a060020a0392909216919091179055565b600054600160a060020a0316331461127e5760405160e560020a62461bcd028152600401610f7690614ae2565b602f55565b603360209081526000848152604090208351808501830180519281529083019285019290922091528054829081106112ba57600080fd5b600091825260209091206002909102018054600190910154909350600160a060020a03169150839050565b60006002600154141561130d5760405160e560020a62461bcd028152600401610f7690614a92565b6002600181905550600061133385336040518060200160405280600081525087876132bf565b905061136e33826031888154811061134d5761134d614ac9565b6000918252602090912060069091020154600160a060020a03169190613919565b60018055949350505050565b600054600160a060020a031633146113a75760405160e560020a62461bcd028152600401610f7690614ae2565b600655565b336000908152601f602052604090205460ff166113de5760405160e560020a62461bcd028152600401610f7690614b30565b806020816040516113ef9190614b93565b9081526040519081900360200190205460ff166114215760405160e560020a62461bcd028152600401610f7690614baf565b50505050505050505050565b600054600160a060020a0316331461145a5760405160e560020a62461bcd028152600401610f7690614ae2565b600a55565b600054600160a060020a0316331461148c5760405160e560020a62461bcd028152600401610f7690614ae2565b600855565b600054600160a060020a031633146114be5760405160e560020a62461bcd028152600401610f7690614ae2565b600d55565b600260015414156114e95760405160e560020a62461bcd028152600401610f7690614a92565b600260018190555060006031858154811061150657611506614ac9565b6000918252602090912060056006909202010154600e54600160a060020a0391821692506115369116308661283b565b600e5461154e90600160a060020a031633838761297f565b61156c85336040518060200160405280600081525087874288613967565b505060018055505050565b600054600160a060020a031633146115a45760405160e560020a62461bcd028152600401610f7690614ae2565b602d8054600160a060020a031916600160a060020a0392909216919091179055565b6000603182815481106115db576115db614ac9565b90600052602060002090600602019050806002015443116115fa575050565b60006116138260020154436131ee90919063ffffffff16565b90506000811161162257505050565b600061164d6034546111ca856001015461164760075487612cd590919063ffffffff16565b90612cd5565b601b54909150600160a060020a03163014156116a05760045460025461168191600160a060020a039182169116308461297f565b60038301546116909082612cc9565b600384015543600284015561172c565b6002546040517f40c10f1900000000000000000000000000000000000000000000000000000000815230600482015260248101839052600160a060020a03909116906340c10f1990604401600060405180830381600087803b15801561170557600080fd5b505af1158015611719573d6000803e3d6000fd5b5050601d5460ff166000525050601e6020525b50505050565b6000918252603260209081526040808420600160a060020a0393909316845291905290205490565b600054600160a060020a031633146117875760405160e560020a62461bcd028152600401610f7690614ae2565b601955565b600054600160a060020a031633146117b95760405160e560020a62461bcd028152600401610f7690614ae2565b60248054600160a060020a031916600160a060020a0392909216919091179055565b600054600160a060020a031633146118085760405160e560020a62461bcd028152600401610f7690614ae2565b805161181b906016906020840190614350565b5050565b336000908152601f602052604090205460ff166118515760405160e560020a62461bcd028152600401610f7690614b30565b600254600480546040517f9dc29fac000000000000000000000000000000000000000000000000000000008152600160a060020a03918216928101929092526024820184905290911690639dc29fac90604401600060405180830381600087803b1580156118be57600080fd5b505af11580156118d2573d6000803e3d6000fd5b5050505050565b602d54600160a060020a031633600160a060020a03161461193f5760405160e560020a62461bcd02815260206004820152601160248201527f6f6e6c79205a6f72726f206f7261636c650000000000000000000000000000006044820152606401610f76565b6000611961836111ca61195487612710612ce1565b600d54611647908a612cd5565b9050600a548111156119765750600a54611985565b60095481101561198557506009545b60006119976127106111ca8585612cd5565b905060006119b4886111ca84600b54612cd590919063ffffffff16565b90506119cb60065482612ce190919063ffffffff16565b6007555050505050505050565b600054600160a060020a03163314611a055760405160e560020a62461bcd028152600401610f7690614ae2565b600c805460ff1916911515919091179055565b600054600160a060020a03163314611a455760405160e560020a62461bcd028152600401610f7690614ae2565b601a8054600160a060020a031916600160a060020a0392909216919091179055565b600054600160a060020a03163314611a945760405160e560020a62461bcd028152600401610f7690614ae2565b611a9e6000613a6b565b565b600054600160a060020a03163314611acd5760405160e560020a62461bcd028152600401610f7690614ae2565b602b8054600160a060020a031916600160a060020a0392909216919091179055565b600060026001541415611b175760405160e560020a62461bcd028152600401610f7690614a92565b60026001819055506000611b3e336040518060200160405280600081525088888888613abb565b600e54909150611b5890600160a060020a03163383613919565b6001805595945050505050565b60026001541415611b8b5760405160e560020a62461bcd028152600401610f7690614a92565b600260015560008481526032602090815260408083203384529091528120805485908110611bbb57611bbb614ac9565b600091825260208083206003600690930201919091015487835260328252604080842033855290925290822080549193509086908110611bfd57611bfd614ac9565b90600052602060002090600602016004015490506000611c3133604051806020016040528060008152508989600189613abb565b90506060600e60009054906101000a9004600160a060020a031681600081518110611c5e57611c5e614ac9565b6020026020010190600160a060020a03169081600160a060020a031681525050611c9c8633604051806020016040528060008152508588888b613967565b604051338152869088908a907f67e7aba7263d8fbeb0cd9a2f4008f060a6a03f46c1d7f9d0550f0b93e96e96f89060200160405180910390a4505060018055505050505050565b600054600160a060020a03163314611d105760405160e560020a62461bcd028152600401610f7690614ae2565b6001602082604051611d229190614b93565b908152604051908190036020019020805491151560ff1990921691909117905550565b600054600160a060020a03163314611d725760405160e560020a62461bcd028152600401610f7690614ae2565b6000602082604051611d229190614b93565b600054600160a060020a03163314611db15760405160e560020a62461bcd028152600401610f7690614ae2565b60048054600160a060020a031916600160a060020a0392909216919091179055565b600c5460009060ff1615611e9b576040517f677342ce00000000000000000000000000000000000000000000000000000000815260048101839052611e959064e8d4a510009061164790611e8d9073__CustomMath____________________________9063677342ce90602401602060405180830381865af4158015611e5d573d6000803e3d6000fd5b505050506040513d601f19601f82011682018060405250810190611e819190614b17565b6116476002600a612ce1565b600190612cc9565b92915050565b5064e8d4a51000919050565b919050565b60026001541415611ed25760405160e560020a62461bcd028152600401610f7690614a92565b60026001556000611ee38233611732565b905060005b81811015611f0d57611efc838260006112e5565b50611f0681614bff565b9050611ee8565b50506001805550565b6017818154811061101c57600080fd5b600054600160a060020a03163314611f535760405160e560020a62461bcd028152600401610f7690614ae2565b805161181b906017906020840190614350565b600054600160a060020a03163314611f935760405160e560020a62461bcd028152600401610f7690614ae2565b602e55565b6000611fad64e8d4a510006111ca8585612cd5565b9392505050565b600054600160a060020a03163314611fe15760405160e560020a62461bcd028152600401610f7690614ae2565b600160a060020a03811661203a5760405160e560020a62461bcd02815260206004820152601060248201527f63616e6e6f7420626520302061646472000000000000000000000000000000006044820152606401610f76565b601b8054600160a060020a031916600160a060020a0392909216919091179055565b6032602052826000526040600020602052816000526040600020818154811061208457600080fd5b60009182526020909120600690910201805460018201546002830154600384015460048501546005909501549397509195509350919086565b6016818154811061101c57600080fd5b600054600160a060020a031633146120fa5760405160e560020a62461bcd028152600401610f7690614ae2565b603055565b600054600160a060020a0316331461212c5760405160e560020a62461bcd028152600401610f7690614ae2565b60148054600160a060020a031916600160a060020a0392909216919091179055565b600054600160a060020a0316331461217b5760405160e560020a62461bcd028152600401610f7690614ae2565b6000918252601e60205260409091208054600160a060020a031916600160a060020a03909216919091179055565b600054600160a060020a031633146121d65760405160e560020a62461bcd028152600401610f7690614ae2565b600e8054600160a060020a031916600160a060020a0392909216919091179055565b600054600160a060020a031633146122255760405160e560020a62461bcd028152600401610f7690614ae2565b600254600160a060020a03838116911614156122ac5760405160e560020a62461bcd02815260206004820152603560248201527f217361666520746f20757365205a6f72726f20746f6b656e20696e2066756e6360448201527f20696e43617365546f6b656e73476574537475636b00000000000000000000006064820152608401610f76565b61181b600160a060020a0383163383613919565b82603181815481106122d4576122d4614ac9565b6000918252602090912060069091020160050154600160a060020a031633600160a060020a03161461172c5760405160e560020a62461bcd02815260206004820152600e60248201527f6f6e6c7920726567207661756c740000000000000000000000000000000000006044820152606401610f76565b600054600160a060020a031633146123785760405160e560020a62461bcd028152600401610f7690614ae2565b60108054600160a060020a031916600160a060020a0392909216919091179055565b600054600160a060020a031633146123c75760405160e560020a62461bcd028152600401610f7690614ae2565b600160a060020a03166000908152601f60205260409020805460ff19166001179055565b600054600160a060020a031633146124185760405160e560020a62461bcd028152600401610f7690614ae2565b60128054600160a060020a031916600160a060020a0392909216919091179055565b336000908152601f602052604090205460ff1661246c5760405160e560020a62461bcd028152600401610f7690614b30565b8060208160405161247d9190614b93565b9081526040519081900360200190205460ff166124af5760405160e560020a62461bcd028152600401610f7690614baf565b60006124c18561113388818c8c612cc9565b6022549091506124d190876131ee565b6022556023546124e190866131ee565b6023555050505050505050565b336000908152601f602052604090205460ff166125205760405160e560020a62461bcd028152600401610f7690614b30565b806020816040516125319190614b93565b9081526040519081900360200190205460ff166118d25760405160e560020a62461bcd028152600401610f7690614baf565b600054600160a060020a031633146125905760405160e560020a62461bcd028152600401610f7690614ae2565b600b55565b600054600160a060020a031633146125c25760405160e560020a62461bcd028152600401610f7690614ae2565b602c8054600160a060020a031916600160a060020a0392909216919091179055565b600054600160a060020a031633146126115760405160e560020a62461bcd028152600401610f7690614ae2565b60158054600160a060020a031916600160a060020a0392909216919091179055565b600054600160a060020a031633146126605760405160e560020a62461bcd028152600401610f7690614ae2565b601c55565b600054600160a060020a031633146126925760405160e560020a62461bcd028152600401610f7690614ae2565b600f8054600160a060020a031916600160a060020a0392909216919091179055565b600054600160a060020a031633146126e15760405160e560020a62461bcd028152600401610f7690614ae2565b600160a060020a03166000908152601f60205260409020805460ff19169055565b600054600160a060020a0316331461272f5760405160e560020a62461bcd028152600401610f7690614ae2565b600160a060020a0381166127ae5760405160e560020a62461bcd02815260206004820152602660248201527f4f776e61626c653a206e6577206f776e657220697320746865207a65726f206160448201527f64647265737300000000000000000000000000000000000000000000000000006064820152608401610f76565b6127b781613a6b565b50565b600054600160a060020a031633146127e75760405160e560020a62461bcd028152600401610f7690614ae2565b600555565b600054600160a060020a031633146128195760405160e560020a62461bcd028152600401610f7690614ae2565b60138054600160a060020a031916600160a060020a0392909216919091179055565b6040517fdd62ed3e000000000000000000000000000000000000000000000000000000008152306004820152600160a060020a038381166024830152600091839186169063dd62ed3e90604401602060405180830381865afa1580156128a5573d6000803e3d6000fd5b505050506040513d601f19601f820116820180604052508101906128c99190614b17565b6128d39190614c1a565b604051600160a060020a03851660248201526044810182905290915061172c9085907f095ea7b300000000000000000000000000000000000000000000000000000000906064015b60408051601f198184030181529190526020810180517bffffffffffffffffffffffffffffffffffffffffffffffffffffffff167fffffffff0000000000000000000000000000000000000000000000000000000090931692909217909152613c00565b604051600160a060020a038085166024830152831660448201526064810182905261172c9085907f23b872dd000000000000000000000000000000000000000000000000000000009060840161291b565b6000603187815481106129e5576129e5614ac9565b9060005260206000209060060201905060008411612a485760405160e560020a62461bcd02815260206004820152601560248201527f5f77616e74416d74206d757374206265203e20302100000000000000000000006044820152606401610f76565b612a51876115c6565b85600160a060020a038116612af6576000865111612ada5760405160e560020a62461bcd02815260206004820152602c60248201527f4e65697468657220666f726569676e2061636374206e6f72206c6f63616c206160448201527f6363742070726f766964656400000000000000000000000000000000000000006064820152608401610f76565b612ae386614c32565b6c01000000000000000000000000900490505b600060318981548110612b0b57612b0b614ac9565b60009182526020909120600560069092020101546040517f7c7671e2000000000000000000000000000000000000000000000000000000008152600160a060020a0390911690637c7671e290612b699085908b908b90600401614c9d565b6020604051808303816000875af1158015612b88573d6000803e3d6000fd5b505050506040513d601f19601f82011682018060405250810190612bac9190614b17565b601a54600585015491925064e8d4a5100091600160a060020a03908116911614612bdc57612bd986611dd3565b90505b6000612be88383611f98565b6004860154909150612bfa9082612cc9565b60048601819055600090612c17906111ca8464e8d4a51000612cd5565b905060006040518060c00160405280848152602001858152602001612c5264e8d4a510006111ca868c60030154612cd590919063ffffffff16565b81526020018a815260200189815260200160008152509050612c768d878d84613ce8565b8c86600160a060020a03167f90890809c654f11d6e72a28fa60149770a0d11ec6c92319d6ceb2bb0a4ea1a158c604051612cb291815260200190565b60405180910390a350505050505050505050505050565b6000611fad8284614c1a565b6000611fad8284614ccf565b6000611fad8284614cee565b601554600e54612d0a91600160a060020a0391821691168461283b565b6002546013546000918291600160a060020a0390811691161415612dc057602c54604080517ffeaf968c0000000000000000000000000000000000000000000000000000000081529051859450600092600160a060020a03169163feaf968c9160048083019260a09291908290030181865afa158015612d8e573d6000803e3d6000fd5b505050506040513d601f19601f82011682018060405250810190612db29190614d2d565b50919450612e6c9350505050565b600254601454600160a060020a0390811691161415612e6c57602b54604080517ffeaf968c0000000000000000000000000000000000000000000000000000000081529051600092600160a060020a03169163feaf968c9160048083019260a09291908290030181865afa158015612e3c573d6000803e3d6000fd5b505050506040513d601f19601f82011682018060405250810190612e609190614d2d565b50919550869450505050505b60155473__SafeSwapUni___________________________90632b08bab190600160a060020a0316612e9f876002612ce1565b60195464e8d4a51000908790601630612eba42610258612cc9565b6040518963ffffffff1660e060020a028152600401612ee0989796959493929190614d7d565b60006040518083038186803b158015612ef857600080fd5b505af4158015612f0c573d6000803e3d6000fd5b505060155473__SafeSwapUni___________________________9250632b08bab19150600160a060020a0316612f43876002612ce1565b60195464e8d4a51000908690601730612f5e42610258612cc9565b6040518963ffffffff1660e060020a028152600401612f84989796959493929190614d7d565b60006040518083038186803b158015612f9c57600080fd5b505af4158015612fb0573d6000803e3d6000fd5b505060135460405160e060020a6370a0823102815230600482015260009350600160a060020a0390911691506370a0823190602401602060405180830381865afa158015613002573d6000803e3d6000fd5b505050506040513d601f19601f820116820180604052508101906130269190614b17565b60145460405160e060020a6370a08231028152306004820152919250600091600160a060020a03909116906370a0823190602401602060405180830381865afa158015613077573d6000803e3d6000fd5b505050506040513d601f19601f8201168201806040525081019061309b9190614b17565b6015546013549192506130bb91600160a060020a0390811691168461283b565b6015546014546130d891600160a060020a0391821691168361283b565b601554601354601454601954600160a060020a039384169363e8e3370093811692169086908690613112906103e8906111ca908590612cd5565b61312d6103e86111ca6019548b612cd590919063ffffffff16565b600354600160a060020a031661314542610258612cc9565b60405163ffffffff8a1660e060020a028152600160a060020a039889166004820152968816602488015260448701959095526064860193909352608485019190915260a484015290921660c482015260e4810191909152610104016060604051808303816000875af11580156131bf573d6000803e3d6000fd5b505050506040513d601f19601f820116820180604052508101906131e39190614e14565b505050505050505050565b6000611fad8284614e42565b601554600e5461321791600160a060020a0391821691168461283b565b601554601954601a5473__SafeSwapUni___________________________92632b08bab192600160a060020a0391821692879264e8d4a5100092889290916018911661326542610258612cc9565b6040518963ffffffff1660e060020a02815260040161328b989796959493929190614d7d565b60006040518083038186803b1580156132a357600080fd5b505af41580156132b7573d6000803e3d6000fd5b505050505050565b6000600160a060020a0385161580156132d9575060008451115b806132f65750600160a060020a038516158015906132f657508351155b6133455760405160e560020a62461bcd02815260206004820152601d60248201527f4f6e6c79206f6e65206163636f756e74207479706520616c6c6f7765640000006044820152606401610f76565b61337e6040518060c001604052806000815260200160008152602001600081526020016000815260200160008152602001600081525090565b600160a060020a03861661341c576000878152603260209081526040808320600160a060020a038a16845290915290208054859081106133c0576133c0614ac9565b90600052602060002090600602016040518060c00160405290816000820154815260200160018201548152602001600282015481526020016003820154815260200160048201548152602001600582015481525050905061357c565b60005b60008881526033602052604090819020905161343c908890614b93565b9081526040519081900360200190205461ffff8216101561357a576000888152603360205260408082209051613473908990614b93565b90815260200160405180910390208261ffff168154811061349657613496614ac9565b6000918252602091829020604080518082019091526002909202018054808352600190910154600160a060020a031692820192909252915086141561356957600089815260326020908152604080832084830151600160a060020a03168452909152902080548790811061350c5761350c614ac9565b90600052602060002090600602016040518060c0016040529081600082015481526020016001820154815260200160028201548152602001600382015481526020016004820154815260200160058201548152505092505061357a565b5061357381614e59565b905061341f565b505b60006031888154811061359157613591614ac9565b9060005260206000209060060201905060008260000151116135f85760405160e560020a62461bcd02815260206004820152601960248201527f7472616e6368652e636f6e747269627574696f6e2069732030000000000000006044820152606401610f76565b600081600401541161364f5760405160e560020a62461bcd02815260206004820152601e60248201527f746f74616c5472616e636865436f6e747269627574696f6e73206973203000006044820152606401610f76565b613658886115c6565b60048101548251600091613675916111ca9064e8d4a51000612cd5565b905060006136a784604001516136a164e8d4a510006111ca876003015487612cd590919063ffffffff16565b906131ee565b9050801561377657600062093a80905060006136e2426136a16136d7858a60600151612cd590919063ffffffff16565b60808a015190612cc9565b9050600080821561371d57606088015161370a906137009086612cd5565b6111ca8786612cd5565b905061371685826131ee565b9150613721565b8491505b61372b8d83613df1565b801561377157600060318f8154811061374657613746614ac9565b6000918252602090912060056006909202010154600160a060020a0316905061376f8183613df1565b505b505050505b60318a8154811061378957613789614ac9565b60009182526020909120600560069092020101546040517f095170e9000000000000000000000000000000000000000000000000000000008152600160a060020a039091169063095170e9906137e7908c908c908b90600401614e7b565b6020604051808303816000875af1158015613806573d6000803e3d6000fd5b505050506040513d601f19601f8201168201806040525081019061382a9190614b17565b508351600484015461383b916131ee565b600484810191909155835460405160e060020a6370a082310281523092810192909252600091600160a060020a03909116906370a0823190602401602060405180830381865afa158015613893573d6000803e3d6000fd5b505050506040513d601f19601f820116820180604052508101906138b79190614b17565b90506138c58b898c8c613e8a565b60408051898152602081018390528c91600160a060020a038d16917f02f25270a4d87bea75db541cdfe559334a275b4a233520ed6c0a2429667cca94910160405180910390a39a9950505050505050505050565b604051600160a060020a0383166024820152604481018290526139629084907fa9059cbb000000000000000000000000000000000000000000000000000000009060640161291b565b505050565b60006031888154811061397c5761397c614ac9565b60009182526020822060069190910201600501546040517fe502a88d0000000000000000000000000000000000000000000000000000000081526004810188905260248101859052600160a060020a039091169250829190829063e502a88d906044016020604051808303816000875af11580156139fe573d6000803e3d6000fd5b505050506040513d601f19601f82011682018060405250810190613a229190614b17565b9050613a5d838260318d81548110613a3c57613a3c614ac9565b6000918252602090912060069091020154600160a060020a0316919061283b565b6114218a8a8a848a8a6129d0565b60008054600160a060020a03838116600160a060020a0319831681178455604051919092169283917f8be0079c531659141344cd1fd0a4f28419497f9722a3daafe3b4186f6b6457e09190a35050565b6000848152603260209081526040808320600160a060020a038a1684529091528120805442919086908110613af257613af2614ac9565b906000526020600020906006020160050181905550600060318681548110613b1c57613b1c614ac9565b60009182526020822060056006909202010154600160a060020a031691508190613b49888b8b8a8a6132bf565b9050613b63838260318b81548110613a3c57613a3c614ac9565b6040517f648794a40000000000000000000000000000000000000000000000000000000081526004810182905260248101869052600090600160a060020a0384169063648794a4906044016020604051808303816000875af1158015613bcd573d6000803e3d6000fd5b505050506040513d601f19601f82011682018060405250810190613bf19190614b17565b9b9a5050505050505050505050565b6000613c55826040518060400160405280602081526020017f5361666545524332303a206c6f772d6c6576656c2063616c6c206661696c656481525085600160a060020a03166141ae9092919063ffffffff16565b8051909150156139625780806020019051810190613c739190614eaf565b6139625760405160e560020a62461bcd02815260206004820152602a60248201527f5361666545524332303a204552433230206f7065726174696f6e20646964206e60448201527f6f742073756363656564000000000000000000000000000000000000000000006064820152608401610f76565b6000848152603260209081526040808320600160a060020a0387168452825280832080546001818101835591855293839020855160069095020193845591840151918301919091558201516002820155606082015160038201556080820151600482015560a082015160059091015581511561172c57600084815260336020526040908190209051613d7b908490614b93565b90815260200160405180910390206040518060400160405280613da360016136a18989611732565b8152600160a060020a03958616602091820152825460018082018555600094855293829020835160029092020190815591015191018054600160a060020a0319169190941617909255505050565b60025460405160e060020a6370a082310281523060048201528291600091600160a060020a03909116906370a0823190602401602060405180830381865afa158015613e41573d6000803e3d6000fd5b505050506040513d601f19601f82011682018060405250810190613e659190614b17565b905080831115613e73578091505b60025461172c90600160a060020a03168584613919565b6000848152603260209081526040808320600160a060020a03861684529091529020805490613eba600183614e42565b81548110613eca57613eca614ac9565b60009182526020808320888452603282526040808520600160a060020a0389168652909252922080546006909202909201919086908110613f0d57613f0d614ac9565b600091825260208083208454600690930201918255600180850154908301556002808501549083015560038085015490830155600480850154908301556005938401549390910192909255868152603282526040808220600160a060020a038716835290925220805480613f8357613f83614ecc565b600082815260208120600660001990930192830201818155600181018290556002810182905560038101829055600481018290556005015590558151156118d2576000858152603360205260408082209051613fe0908590614b93565b90815260405190819003602001902054905060005b818160ff1610156141a5578560336000898152602001908152602001600020856040516140229190614b93565b90815260200160405180910390208260ff168154811061404457614044614ac9565b906000526020600020906002020160000154141561419557600087815260336020526040908190209051614079908690614b93565b908152604051908190036020019020614093600184614e42565b815481106140a3576140a3614ac9565b906000526020600020906002020160336000898152602001908152602001600020856040516140d29190614b93565b90815260200160405180910390208260ff16815481106140f4576140f4614ac9565b600091825260208083208454600290930201918255600193840154939091018054600160a060020a031916600160a060020a03909416939093179092558881526033909152604090819020905161414c908690614b93565b908152602001604051809103902080548061416957614169614ecc565b6000828152602081206002600019909301928302019081556001018054600160a060020a031916905590555b61419e81614ee5565b9050613ff5565b50505050505050565b60606141bd84846000856141c5565b949350505050565b606030318311156142415760405160e560020a62461bcd02815260206004820152602660248201527f416464726573733a20696e73756666696369656e742062616c616e636520666f60448201527f722063616c6c00000000000000000000000000000000000000000000000000006064820152608401610f76565b600160a060020a0385163b61429b5760405160e560020a62461bcd02815260206004820152601d60248201527f416464726573733a2063616c6c20746f206e6f6e2d636f6e74726163740000006044820152606401610f76565b60008086600160a060020a031685876040516142b79190614b93565b60006040518083038185875af1925050503d80600081146142f4576040519150601f19603f3d011682016040523d82523d6000602084013e6142f9565b606091505b5091509150614309828286614314565b979650505050505050565b60608315614323575081611fad565b8251156143335782518084602001fd5b8160405160e560020a62461bcd028152600401610f769190614f05565b8280548282559060005260206000209081019282156143a5579160200282015b828111156143a55782518254600160a060020a031916600160a060020a03909116178255602090920191600190910190614370565b506143b19291506143b5565b5090565b5b808211156143b157600081556001016143b6565b6000806000606084860312156143df57600080fd5b505081359360208301359350604090920135919050565b60006020828403121561440857600080fd5b5035919050565b60006020828403121561442157600080fd5b813561ffff81168114611fad57600080fd5b60008083601f84011261444557600080fd5b50813567ffffffffffffffff81111561445d57600080fd5b60208301915083602082850101111561447557600080fd5b9250929050565b60008060008060008060008060e0898b03121561449857600080fd5b88359750602089013567ffffffffffffffff8111156144b657600080fd5b6144c28b828c01614433565b999c909b509899604081013599606082013599506080820135985060a0820135975060c09091013595509350505050565b8035600160a060020a0381168114611ea757600080fd5b60006020828403121561451c57600080fd5b611fad826144f3565b60e060020a634e487b7102600052604160045260246000fd5b604051601f8201601f1916810167ffffffffffffffff8111828210171561456757614567614525565b604052919050565b600082601f83011261458057600080fd5b813567ffffffffffffffff81111561459a5761459a614525565b6145ad601f8201601f191660200161453e565b8181528460208386010111156145c257600080fd5b816020850160208301376000918101602001919091529392505050565b6000806000606084860312156145f457600080fd5b83359250602084013567ffffffffffffffff81111561461257600080fd5b61461e8682870161456f565b925050604084013590509250925092565b80151581146127b757600080fd5b60008060006060848603121561465257600080fd5b8335925060208401359150604084013561466b8161462f565b809150509250925092565b60008060008060008060008060006101008a8c03121561469557600080fd5b8935985060208a013567ffffffffffffffff808211156146b457600080fd5b6146c08d838e01614433565b909a50985060408c0135975060608c0135965060808c0135955060a08c0135945060c08c01359150808211156146f557600080fd5b6147018d838e0161456f565b935060e08c013591508082111561471757600080fd5b506147248c828d0161456f565b9150509295985092959850929598565b6000806000806080858703121561474a57600080fd5b5050823594602084013594506040840135936060013592509050565b6000806040838503121561477957600080fd5b82359150614789602084016144f3565b90509250929050565b6000602082840312156147a457600080fd5b813567ffffffffffffffff8111156147bb57600080fd5b6141bd8482850161456f565b600060208083850312156147da57600080fd5b823567ffffffffffffffff808211156147f257600080fd5b818501915085601f83011261480657600080fd5b81358181111561481857614818614525565b838102915061482884830161453e565b818152918301840191848101908884111561484257600080fd5b938501935b8385101561486757614858856144f3565b82529385019390850190614847565b98975050505050505050565b600080600080600060a0868803121561488b57600080fd5b505083359560208501359550604085013594606081013594506080013592509050565b6000602082840312156148c057600080fd5b8135611fad8161462f565b600080600080608085870312156148e157600080fd5b843593506020850135925060408501356148fa8161462f565b9396929550929360600135925050565b6000806040838503121561491d57600080fd5b50508035926020909101359150565b60008060006060848603121561494157600080fd5b83359250614951602085016144f3565b9150604084013590509250925092565b6000806040838503121561497457600080fd5b61497d836144f3565b946020939093013593505050565b60008060008060008060c087890312156149a457600080fd5b86359550602087013594506040870135935060608701359250608087013567ffffffffffffffff808211156149d857600080fd5b6149e48a838b0161456f565b935060a08901359150808211156149fa57600080fd5b50614a0789828a0161456f565b9150509295509295509295565b60008060008060808587031215614a2a57600080fd5b614a33856144f3565b935060208501359250604085013567ffffffffffffffff80821115614a5757600080fd5b614a638883890161456f565b93506060870135915080821115614a7957600080fd5b50614a868782880161456f565b91505092959194509250565b6020808252601f908201527f5265656e7472616e637947756172643a207265656e7472616e742063616c6c00604082015260600190565b60e060020a634e487b7102600052603260045260246000fd5b6020808252818101527f4f776e61626c653a2063616c6c6572206973206e6f7420746865206f776e6572604082015260600190565b600060208284031215614b2957600080fd5b5051919050565b60208082526019908201527f6f6e6c79207265672078636861696e20656e64706f696e747300000000000000604082015260600190565b60005b83811015614b82578181015183820152602001614b6a565b8381111561172c5750506000910152565b60008251614ba5818460208701614b67565b9190910192915050565b6020808252601b908201527f6f6e6c79207265672078636861696e20636f6e74726f6c6c6572730000000000604082015260600190565b60e060020a634e487b7102600052601160045260246000fd5b6000600019821415614c1357614c13614be6565b5060010190565b60008219821115614c2d57614c2d614be6565b500190565b805160208201516bffffffffffffffffffffffff198082169291906014831015614c6957808360140360080260020a820283161693505b505050919050565b60008151808452614c89816020860160208601614b67565b601f01601f19169290920160200192915050565b600160a060020a0384168152606060208201526000614cbf6060830185614c71565b9050826040830152949350505050565b6000816000190483118215151615614ce957614ce9614be6565b500290565b600082614d0e5760e060020a634e487b7102600052601260045260246000fd5b500490565b805169ffffffffffffffffffff81168114611ea757600080fd5b600080600080600060a08688031215614d4557600080fd5b614d4e86614d13565b9450602086015193506040860151925060608601519150614d7160808701614d13565b90509295509295909350565b6000610100808301600160a060020a03808d16855260208c818701528b60408701528a60608701528960808701528360a08701528293508854808452610120870194508960005281600020935060005b81811015614deb578454841686529482019460019485019401614dcd565b50505050600160a060020a03861660c08501525090508260e08301529998505050505050505050565b600080600060608486031215614e2957600080fd5b8351925060208401519150604084015190509250925092565b600082821015614e5457614e54614be6565b500390565b600061ffff80831681811415614e7157614e71614be6565b6001019392505050565b600160a060020a0384168152606060208201526000614e9d6060830185614c71565b90508215156040830152949350505050565b600060208284031215614ec157600080fd5b8151611fad8161462f565b60e060020a634e487b7102600052603160045260246000fd5b600060ff821660ff811415614efc57614efc614be6565b60010192915050565b602081526000611fad6020830184614c7156fea26469706673582212201613628604f5f2e7af23cc2764dd14991e08ccafc5adb4409fa29debba4e247f64736f6c634300080a0033",
  "immutableReferences": {},
  "source": "// SPDX-License-Identifier: MIT\n\npragma solidity ^0.8.0;\n\nimport \"./_ZorroControllerXChain.sol\";\n\n\ncontract ZorroControllerXChainEarn is ZorroControllerXChain {\n    /* Libraries */\n    using SafeMath for uint256;\n\n    // TODO: Make this a LayerZero call\n    /// @notice Sends a request to the remote chain to unlock and burn temporarily withheld USDC. To be called after a successful withdrawal\n    /// @dev Internal function, only to be called by receiveXChainRepatriationRequest()\n    /// @param _account The address of the wallet (cross chain identity) to unlock funds for\n    /// @param _amountUSDC The amount in USDC that should be unlocked and burned\n    /// @param _chainId The Zorro destination chain ID so that the request can be routed to the appropriate chain\n    /// @param _destinationContract The address of the contract on the remote chain to send the unlock request to\n    function _sendXChainUnlockRequest(\n        address _account,\n        uint256 _amountUSDC,\n        uint256 _chainId,\n        bytes memory _destinationContract\n    ) internal {\n        // TODO: Replace entire call with a LayerZero request to the other chain. Q: How to deal with uncertain fee calculations?\n        // Get endpoint contract\n        address _endpointContract = endpointContracts[_chainId];\n\n        // Prepare cross chain request\n        (bool success, bytes memory data) = _endpointContract.call(\n            abi.encodeWithSignature(\n                \"encodeUnlockRequest(address _account,uint256 _amountUSDC)\",\n                _account,\n                _amountUSDC\n            )\n        );\n        require(success, \"Unsuccessful serialize unlock\");\n        bytes memory _payload = abi.decode(data, (bytes));\n\n        // Call contract layer\n        (bool success1, ) = _endpointContract.call(\n            abi.encodeWithSignature(\n                \"sendXChainTransaction(bytes calldata _destinationContract,bytes calldata _payload)\",\n                _destinationContract,\n                _payload\n            )\n        );\n        // Require successful call\n        require(success1, \"Unsuccessful xchain unlock\");\n    }\n\n    // TODO This should be called from a LayerZero receiver\n    /// @notice Receives a request from home chain to unlock and burn temporarily withheld USDC.\n    /// @param _account The address of the wallet (cross chain identity) to unlock funds for\n    /// @param _amountUSDC The amount in USDC that should be unlocked and burned\n    function receiveXChainUnlockRequest(\n        address _account,\n        uint256 _amountUSDC,\n        bytes memory _xChainOrigin,\n        bytes memory _xChainSender\n    ) external onlyXChainEndpoints onlyXChainZorroControllers(_xChainSender) {\n        // // Get controller\n        // TokenLockController lockController = TokenLockController(\n        //     lockUSDCController\n        // );\n        // // Unlock user funds & burn\n        // lockController.unlockFunds(_account, _amountUSDC, burnAddress);\n    }\n\n    /* Earnings/Distribution */\n\n    /// @notice Prepares and sends an earnings distribution request cross-chain (back to the home chain)\n    /// @param _pid The pool ID associated with the vault which experienced earnings\n    /// @param _buybackAmountUSDC The amount of USDC to buyback\n    /// @param _revShareAmountUSDC The amount of USDC to share as revenue to the ZOR staking vault\n    function distributeEarningsXChain(\n        uint256 _pid,\n        uint256 _buybackAmountUSDC,\n        uint256 _revShareAmountUSDC\n    ) public onlyRegisteredVault(_pid) {\n        /* \n        TODO Convert this to a LayerZero call\n\n        // Check lock to see if anything is pending for this block and pool. If so, revert\n        require(\n            lockedEarningsStatus[block.number][_pid] == 0,\n            \"Xchain earnings lock pending\"\n        );\n\n        // Lock USDC on a ledger for this block and pid, with status of pending\n        uint256 _amountUSDC = IERC20(defaultStablecoin).balanceOf(\n            address(this)\n        );\n        TokenLockController(lockUSDCController).lockFunds(\n            address(this),\n            _amountUSDC\n        );\n        lockedEarningsStatus[block.number][_pid] = 1;\n\n        // Fetch xchain endpoint for home chain\n        XChainEndpoint xChainEndpoint = XChainEndpoint(\n            endpointContracts[homeChainId]\n        );\n\n        // Construct payload\n        bytes memory _payload = abi.encodeWithSignature(\n            \"receiveXChainDistributionRequest(uint256 _chainId,bytes _callbackContract,uint256 _amountUSDCBuyback,uint256 _amountUSDCRevShare,uint256 _failedAmountUSDCBuyback,uint256 _failedAmountUSDCRevShare)\",\n            chainId,\n            abi.encode(address(this)),\n            _buybackAmountUSDC,\n            _revShareAmountUSDC,\n            failedLockedBuybackUSDC,\n            failedLockedRevShareUSDC\n        );\n\n        // Call?\n\n        */\n    }\n\n    /// @notice Receives an authorized request from remote chains to perform earnings fee distribution events, such as: buyback + LP + burn, and revenue share\n    /// @param _chainId The ID of the chain that this request originated from\n    /// @param _callbackContract Address of destination contract in bytes for the callback\n    /// @param _amountUSDCBuyback The amount in USDC that should be minted for LP + burn\n    /// @param _amountUSDCRevShare The amount in USDC that should be minted for revenue sharing with ZOR stakers\n    /// @param _failedAmountUSDCBuyback The previously failed buyback amount that is being retried\n    /// @param _failedAmountUSDCRevShare The previously failed revshare amount that is being retried\n    /// @param _xChainOrigin Address of the original sender (in bytes) on the remote chain (equiv to tx.origin). Injected by endpoint contract after verifying proof\n    function receiveXChainDistributionRequest(\n        uint256 _chainId,\n        bytes calldata _callbackContract,\n        uint256 _amountUSDCBuyback,\n        uint256 _amountUSDCRevShare,\n        uint256 _failedAmountUSDCBuyback,\n        uint256 _failedAmountUSDCRevShare,\n        bytes memory _xChainOrigin,\n        bytes memory _xChainSender\n    ) external onlyXChainEndpoints onlyXChainZorroControllers(_xChainSender) {\n        // Make Chainlink request to get ZOR price\n        // TODO: Don't do a Chainlink direct request. Use price feeds instead (i.e. no need for a callback func so merge its contents here)\n        // Chainlink.Request memory req = buildChainlinkRequest(\n        //     zorroControllerOraclePriceJobId,\n        //     address(this),\n        //     this.buybackAndRevShareCallback.selector\n        // );\n        // req.addBytes(\"chainId\", abi.encodePacked(_chainId));\n        // req.addBytes(\"callbackContract\", abi.encodePacked(_callbackContract));\n        // req.addBytes(\"amountUSDCBuyback\", abi.encodePacked(_amountUSDCBuyback));\n        // req.addBytes(\n        //     \"amountUSDCRevShare\",\n        //     abi.encodePacked(_amountUSDCRevShare)\n        // );\n        // req.addBytes(\n        //     \"failedAmountUSDCBuyback\",\n        //     abi.encodePacked(_failedAmountUSDCBuyback)\n        // );\n        // req.addBytes(\n        //     \"failedAmountUSDCRevShare\",\n        //     abi.encodePacked(_failedAmountUSDCRevShare)\n        // );\n        // sendChainlinkRequestTo(\n        //     zorroControllerOracle,\n        //     req,\n        //     zorroControllerOracleFee\n        // );\n    }\n\n    /// @notice Receives cross chain request for burning any temporarily locked funds for earnings\n    /// @param _amountUSDCBuyback The amount in USDC that was bought back\n    /// @param _amountUSDCRevShare The amount in USDC that was rev-shared\n    /// @param _failedAmountUSDCBuyback The previously failed buyback amount that was successfully retried\n    /// @param _failedAmountUSDCRevShare The previously failed revshare amount that was successfully retried\n    /// @param _xChainOrigin Address of the original sender (in bytes) on the remote chain (equiv to tx.origin). Injected by endpoint contract after verifying proof\n    function receiveBurnLockedEarningsRequest(\n        uint256 _amountUSDCBuyback,\n        uint256 _amountUSDCRevShare,\n        uint256 _failedAmountUSDCBuyback,\n        uint256 _failedAmountUSDCRevShare,\n        bytes memory _xChainOrigin,\n        bytes memory _xChainSender\n    ) external onlyXChainEndpoints onlyXChainZorroControllers(_xChainSender) {\n        // TODO: We can probably get rid of this entire function\n        // Calculate total amount to unlock and burn\n        uint256 _totalBurnableUSDC = _amountUSDCBuyback\n            .add(_amountUSDCRevShare)\n            .add(_failedAmountUSDCBuyback)\n            .add(_failedAmountUSDCRevShare);\n        // Unlock + burn\n        // TokenLockController(lockUSDCController).unlockFunds(\n        //     address(this),\n        //     _totalBurnableUSDC,\n        //     burnAddress\n        // );\n        // Decrement any failed amounts\n        failedLockedBuybackUSDC = failedLockedBuybackUSDC.sub(\n            _failedAmountUSDCBuyback\n        );\n        failedLockedRevShareUSDC = failedLockedRevShareUSDC.sub(\n            _failedAmountUSDCRevShare\n        );\n    }\n\n    // TODO: Ledger system in case this fails?\n    /// @notice Receives an authorized request from remote chains to perform earnings fee distribution events, such as: buyback + LP + burn, and revenue share\n    /// @dev Can only be called by the Chainlink Oracle\n    /// @param _chainId The ID of the chain that this request originated from\n    /// @param _callbackContract Address of destination contract in bytes for the callback\n    /// @param _amountUSDCBuyback The amount in USDC that should be minted for LP + burn\n    /// @param _amountUSDCRevShare The amount in USDC that should be minted for revenue sharing with ZOR stakers\n    /// @param _failedAmountUSDCBuyback The previously failed buyback amount that is being retried\n    /// @param _failedAmountUSDCRevShare The previously failed revshare amount that is being retried\n    /// @param _ZORROExchangeRate ZOR per USD, times 1e12\n    function buybackAndRevShareCallback(\n        uint256 _chainId,\n        bytes calldata _callbackContract,\n        uint256 _amountUSDCBuyback,\n        uint256 _amountUSDCRevShare,\n        uint256 _failedAmountUSDCBuyback,\n        uint256 _failedAmountUSDCRevShare,\n        uint256 _ZORROExchangeRate\n    ) external onlyAllowZorroControllerOracle {\n        // Total USDC to perform operations\n        // TODO: How do failed amounts come into play here? Will we even have failures now?\n        uint256 _amountUSDC = _amountUSDCBuyback\n            .add(_amountUSDCRevShare)\n            .add(_failedAmountUSDCBuyback)\n            .add(_failedAmountUSDCRevShare);\n\n        // Determine new USDC balances\n        uint256 _balUSDC = IERC20(defaultStablecoin).balanceOf(address(this));\n\n        /* Buyback */\n        uint256 _buybackAmount = _balUSDC\n            .mul(_amountUSDCBuyback.add(_failedAmountUSDCBuyback))\n            .div(_amountUSDC);\n        _buybackOnChain(_buybackAmount, _ZORROExchangeRate);\n\n        /* Rev share */\n        uint256 _revShareAmount = _balUSDC.sub(_buybackAmount);\n        _revShareOnChain(_revShareAmount, _ZORROExchangeRate);\n\n        // Send cross chain burn request back to the remote chain\n        /* \n        TODO: Convert to LayerZero call\n\n        XChainEndpoint endpointContract = XChainEndpoint(\n            endpointContracts[_chainId]\n        );\n        bytes memory _payload = abi.encodeWithSignature(\n            \"receiveBurnLockedEarningsRequest(uint256 _amountUSDCBuyback,uint256 _amountUSDCRevShare,uint256 _failedAmountUSDCBuyback,uint256 _failedAmountUSDCRevShare)\",\n            _amountUSDCBuyback,\n            _amountUSDCRevShare,\n            _failedAmountUSDCBuyback,\n            _failedAmountUSDCRevShare\n        );\n        endpointContract.sendXChainTransaction(_callbackContract, _payload, \"\");\n        */\n    }\n}",
  "sourcePath": "/Users/kristophm/Documents/workspace/zorro-protocol/contracts/controllers/_ZorroControllerXChainEarn.sol",
  "compiler": {
    "name": "solc",
    "version": "0.8.10+commit.fc410830.Emscripten.clang"
  },
  "schemaVersion": "3.4.4",
  "updatedAt": "2022-04-02T21:35:37.035Z",
  "devdoc": {
    "kind": "dev",
    "methods": {
      "buybackAndRevShareCallback(uint256,bytes,uint256,uint256,uint256,uint256,uint256)": {
        "details": "Can only be called by the Chainlink Oracle",
        "params": {
          "_ZORROExchangeRate": "ZOR per USD, times 1e12",
          "_amountUSDCBuyback": "The amount in USDC that should be minted for LP + burn",
          "_amountUSDCRevShare": "The amount in USDC that should be minted for revenue sharing with ZOR stakers",
          "_callbackContract": "Address of destination contract in bytes for the callback",
          "_chainId": "The ID of the chain that this request originated from",
          "_failedAmountUSDCBuyback": "The previously failed buyback amount that is being retried",
          "_failedAmountUSDCRevShare": "The previously failed revshare amount that is being retried"
        }
      },
      "deposit(uint256,uint256,uint256)": {
        "params": {
          "_pid": "index of pool",
          "_wantAmt": "how much Want token to deposit",
          "_weeksCommitted": "how many weeks the user is committing to on this vault"
        }
      },
      "depositFullService(uint256,uint256,uint256,uint256)": {
        "params": {
          "_maxMarketMovement": "factor to account for max market movement/slippage. The definition varies by Vault, so consult the associated Vault contract for info",
          "_pid": "index of pool to deposit into",
          "_valueUSDC": "value in USDC (in ether units) to deposit",
          "_weeksCommitted": "how many weeks to commit to the Pool (can be 0 or any uint)"
        }
      },
      "distributeEarningsXChain(uint256,uint256,uint256)": {
        "params": {
          "_buybackAmountUSDC": "The amount of USDC to buyback",
          "_pid": "The pool ID associated with the vault which experienced earnings",
          "_revShareAmountUSDC": "The amount of USDC to share as revenue to the ZOR staking vault"
        }
      },
      "getTimeMultiplier(uint256)": {
        "params": {
          "durationInWeeks": "number of weeks committed into Vault"
        },
        "returns": {
          "_0": "multiplier factor, times 1e12"
        }
      },
      "getUserContribution(uint256,uint256)": {
        "params": {
          "_liquidityCommitted": "How many tokens staked (e.g. LP tokens)",
          "_timeMultiplier": "Time multiplier value (from getTimeMultiplier())"
        },
        "returns": {
          "_0": "The relative contribution of the user (unitless)"
        }
      },
      "inCaseTokensGetStuck(address,uint256)": {
        "details": "Does not permit usage for the Zorro token",
        "params": {
          "_amount": "token quantity",
          "_token": "ERC20 token address"
        }
      },
      "owner()": {
        "details": "Returns the address of the current owner."
      },
      "poolLength()": {
        "returns": {
          "_0": "Number of pools"
        }
      },
      "receiveBurnLockedEarningsRequest(uint256,uint256,uint256,uint256,bytes,bytes)": {
        "params": {
          "_amountUSDCBuyback": "The amount in USDC that was bought back",
          "_amountUSDCRevShare": "The amount in USDC that was rev-shared",
          "_failedAmountUSDCBuyback": "The previously failed buyback amount that was successfully retried",
          "_failedAmountUSDCRevShare": "The previously failed revshare amount that was successfully retried",
          "_xChainOrigin": "Address of the original sender (in bytes) on the remote chain (equiv to tx.origin). Injected by endpoint contract after verifying proof"
        }
      },
      "receiveXChainBurnRewardsRequest(uint256)": {
        "params": {
          "_amount": "The quantity of ZOR tokens to burn"
        }
      },
      "receiveXChainDistributionRequest(uint256,bytes,uint256,uint256,uint256,uint256,bytes,bytes)": {
        "params": {
          "_amountUSDCBuyback": "The amount in USDC that should be minted for LP + burn",
          "_amountUSDCRevShare": "The amount in USDC that should be minted for revenue sharing with ZOR stakers",
          "_callbackContract": "Address of destination contract in bytes for the callback",
          "_chainId": "The ID of the chain that this request originated from",
          "_failedAmountUSDCBuyback": "The previously failed buyback amount that is being retried",
          "_failedAmountUSDCRevShare": "The previously failed revshare amount that is being retried",
          "_xChainOrigin": "Address of the original sender (in bytes) on the remote chain (equiv to tx.origin). Injected by endpoint contract after verifying proof"
        }
      },
      "receiveXChainUnlockRequest(address,uint256,bytes,bytes)": {
        "params": {
          "_account": "The address of the wallet (cross chain identity) to unlock funds for",
          "_amountUSDC": "The amount in USDC that should be unlocked and burned"
        }
      },
      "renounceOwnership()": {
        "details": "Leaves the contract without owner. It will not be possible to call `onlyOwner` functions anymore. Can only be called by the current owner. NOTE: Renouncing ownership will leave the contract without an owner, thereby removing any functionality that is only available to the owner."
      },
      "setZorroPerBlock(uint256,uint256,uint256,uint256,uint256)": {
        "details": "Values to be provided by Oracle. Perferable to run daily",
        "params": {
          "_ZorroTotalVaultTVLUSD": "USD value of all TVL locked into the Zorro protocol, across all chains",
          "_publicPoolZORBalance": "Number of ZOR tokens remaining in public pool on home chain",
          "_targetTVLCaptureBasisPoints": "% desired capture of total market TVL, measured in basis points",
          "_totalChainMultipliers": "Sum total of all chain multipliers for each chain",
          "_totalMarketTVLUSD": "Total DeFi market TVL across all chains (measured in USD)"
        }
      },
      "trancheLength(uint256,address)": {
        "params": {
          "_pid": "Index of pool",
          "_user": "wallet address of user"
        },
        "returns": {
          "_0": "Number of tranches"
        }
      },
      "transferInvestment(uint256,uint256,uint256,uint256)": {
        "params": {
          "_fromPid": "index of pool FROM",
          "_fromTrancheId": "index of tranche FROM",
          "_maxMarketMovement": "factor to account for max market movement/slippage. The definition varies by Vault, so consult the associated Vault contract for info",
          "_toPid": "index of pool TO"
        }
      },
      "transferOwnership(address)": {
        "details": "Transfers ownership of the contract to a new account (`newOwner`). Can only be called by the current owner."
      },
      "updatePool(uint256)": {
        "params": {
          "_pid": "index of pool"
        }
      },
      "withdraw(uint256,uint256,bool)": {
        "params": {
          "_harvestOnly": "If true, will only harvest Zorro tokens but not do a withdrawal",
          "_pid": "index of pool",
          "_trancheId": "index of tranche"
        },
        "returns": {
          "_0": "Amount of Want token withdrawn"
        }
      },
      "withdrawAll(uint256)": {
        "params": {
          "_pid": "index of pool"
        }
      },
      "withdrawalFullService(uint256,uint256,bool,uint256)": {
        "params": {
          "_harvestOnly": "If true, will only harvest Zorro tokens but not do a withdrawal",
          "_maxMarketMovement": "factor to account for max market movement/slippage. The definition varies by Vault, so consult the associated Vault contract for info",
          "_pid": "index of pool to deposit into",
          "_trancheId": "index of tranche"
        },
        "returns": {
          "_0": "Amount (in USDC) returned"
        }
      }
    },
    "version": 1
  },
  "userdoc": {
    "kind": "user",
    "methods": {
      "buybackAndRevShareCallback(uint256,bytes,uint256,uint256,uint256,uint256,uint256)": {
        "notice": "Receives an authorized request from remote chains to perform earnings fee distribution events, such as: buyback + LP + burn, and revenue share"
      },
      "deposit(uint256,uint256,uint256)": {
        "notice": "Deposit Want tokens to associated Vault"
      },
      "depositFullService(uint256,uint256,uint256,uint256)": {
        "notice": "Deposits funds in a full service manner (performs autoswaps and obtains Want tokens)"
      },
      "distributeEarningsXChain(uint256,uint256,uint256)": {
        "notice": "Prepares and sends an earnings distribution request cross-chain (back to the home chain)"
      },
      "getTimeMultiplier(uint256)": {
        "notice": "Calculate time multiplier based on duration committed"
      },
      "getUserContribution(uint256,uint256)": {
        "notice": "The contribution of the user, meant to be used in rewards allocations"
      },
      "inCaseTokensGetStuck(address,uint256)": {
        "notice": "For owner to recover ERC20 tokens on this contract if stuck"
      },
      "poolLength()": {
        "notice": "Number of pools in the Zorro protocol"
      },
      "receiveBurnLockedEarningsRequest(uint256,uint256,uint256,uint256,bytes,bytes)": {
        "notice": "Receives cross chain request for burning any temporarily locked funds for earnings"
      },
      "receiveXChainBurnRewardsRequest(uint256)": {
        "notice": "Receives an authorized burn request from another chain and burns the specified amount of ZOR tokens from the public pool"
      },
      "receiveXChainDistributionRequest(uint256,bytes,uint256,uint256,uint256,uint256,bytes,bytes)": {
        "notice": "Receives an authorized request from remote chains to perform earnings fee distribution events, such as: buyback + LP + burn, and revenue share"
      },
      "receiveXChainUnlockRequest(address,uint256,bytes,bytes)": {
        "notice": "Receives a request from home chain to unlock and burn temporarily withheld USDC."
      },
      "setZorroPerBlock(uint256,uint256,uint256,uint256,uint256)": {
        "notice": "Set the number of Zorro to emit per block based on current market parameters"
      },
      "trancheLength(uint256,address)": {
        "notice": "Number of tranches invested by a given user into a given pool"
      },
      "transferInvestment(uint256,uint256,uint256,uint256)": {
        "notice": "Transfer all assets from a tranche in one vault to a new vault (works on-chain only)"
      },
      "updatePool(uint256)": {
        "notice": "Update reward variables of the given pool to be up-to-date."
      },
      "withdraw(uint256,uint256,bool)": {
        "notice": "Fully withdraw Want tokens from underlying Vault."
      },
      "withdrawAll(uint256)": {
        "notice": "Withdraw the maximum number of Want tokens from a pool"
      },
      "withdrawalFullService(uint256,uint256,bool,uint256)": {
        "notice": "Withdraws funds from a pool and converts the Want token into USDC"
      }
    },
    "version": 1
  }
}