{
  "contractName": "ZorroControllerXChainDeposit",
  "abi": [
    {
      "anonymous": false,
      "inputs": [
        {
          "indexed": true,
          "internalType": "address",
          "name": "account",
          "type": "address"
        },
        {
          "indexed": true,
          "internalType": "bytes",
          "name": "foreignAccount",
          "type": "bytes"
        },
        {
          "indexed": true,
          "internalType": "uint256",
          "name": "pid",
          "type": "uint256"
        },
        {
          "indexed": false,
          "internalType": "uint256",
          "name": "wantAmount",
          "type": "uint256"
        }
      ],
      "name": "Deposit",
      "type": "event"
    },
    {
      "anonymous": false,
      "inputs": [
        {
          "indexed": true,
          "internalType": "address",
          "name": "previousOwner",
          "type": "address"
        },
        {
          "indexed": true,
          "internalType": "address",
          "name": "newOwner",
          "type": "address"
        }
      ],
      "name": "OwnershipTransferred",
      "type": "event"
    },
    {
      "anonymous": false,
      "inputs": [
        {
          "indexed": true,
          "internalType": "uint256",
          "name": "_amountZOR",
          "type": "uint256"
        }
      ],
      "name": "RemovedSlashedRewards",
      "type": "event"
    },
    {
      "anonymous": false,
      "inputs": [
        {
          "indexed": false,
          "internalType": "address",
          "name": "account",
          "type": "address"
        },
        {
          "indexed": true,
          "internalType": "uint256",
          "name": "fromPid",
          "type": "uint256"
        },
        {
          "indexed": true,
          "internalType": "uint256",
          "name": "fromTrancheId",
          "type": "uint256"
        },
        {
          "indexed": true,
          "internalType": "uint256",
          "name": "toPid",
          "type": "uint256"
        }
      ],
      "name": "TransferInvestment",
      "type": "event"
    },
    {
      "anonymous": false,
      "inputs": [
        {
          "indexed": true,
          "internalType": "address",
          "name": "account",
          "type": "address"
        },
        {
          "indexed": true,
          "internalType": "bytes",
          "name": "foreignAccount",
          "type": "bytes"
        },
        {
          "indexed": true,
          "internalType": "uint256",
          "name": "pid",
          "type": "uint256"
        },
        {
          "indexed": false,
          "internalType": "uint256",
          "name": "trancheId",
          "type": "uint256"
        },
        {
          "indexed": false,
          "internalType": "uint256",
          "name": "wantAmount",
          "type": "uint256"
        }
      ],
      "name": "Withdraw",
      "type": "event"
    },
    {
      "inputs": [
        {
          "internalType": "uint16",
          "name": "",
          "type": "uint16"
        }
      ],
      "name": "LZChainToZorroMap",
      "outputs": [
        {
          "internalType": "uint256",
          "name": "",
          "type": "uint256"
        }
      ],
      "stateMutability": "view",
      "type": "function"
    },
    {
      "inputs": [
        {
          "internalType": "uint256",
          "name": "",
          "type": "uint256"
        }
      ],
      "name": "USDCToZorroLPPoolToken0Path",
      "outputs": [
        {
          "internalType": "address",
          "name": "",
          "type": "address"
        }
      ],
      "stateMutability": "view",
      "type": "function"
    },
    {
      "inputs": [
        {
          "internalType": "uint256",
          "name": "",
          "type": "uint256"
        }
      ],
      "name": "USDCToZorroLPPoolToken1Path",
      "outputs": [
        {
          "internalType": "address",
          "name": "",
          "type": "address"
        }
      ],
      "stateMutability": "view",
      "type": "function"
    },
    {
      "inputs": [
        {
          "internalType": "uint256",
          "name": "",
          "type": "uint256"
        }
      ],
      "name": "USDCToZorroPath",
      "outputs": [
        {
          "internalType": "address",
          "name": "",
          "type": "address"
        }
      ],
      "stateMutability": "view",
      "type": "function"
    },
    {
      "inputs": [],
      "name": "ZORRO",
      "outputs": [
        {
          "internalType": "address",
          "name": "",
          "type": "address"
        }
      ],
      "stateMutability": "view",
      "type": "function"
    },
    {
      "inputs": [],
      "name": "ZORRODailyDistributionFactorBasisPointsMax",
      "outputs": [
        {
          "internalType": "uint256",
          "name": "",
          "type": "uint256"
        }
      ],
      "stateMutability": "view",
      "type": "function"
    },
    {
      "inputs": [],
      "name": "ZORRODailyDistributionFactorBasisPointsMin",
      "outputs": [
        {
          "internalType": "uint256",
          "name": "",
          "type": "uint256"
        }
      ],
      "stateMutability": "view",
      "type": "function"
    },
    {
      "inputs": [],
      "name": "ZORROPerBlock",
      "outputs": [
        {
          "internalType": "uint256",
          "name": "",
          "type": "uint256"
        }
      ],
      "stateMutability": "view",
      "type": "function"
    },
    {
      "inputs": [
        {
          "internalType": "uint256",
          "name": "",
          "type": "uint256"
        }
      ],
      "name": "ZorroChainToLZMap",
      "outputs": [
        {
          "internalType": "uint16",
          "name": "",
          "type": "uint16"
        }
      ],
      "stateMutability": "view",
      "type": "function"
    },
    {
      "inputs": [],
      "name": "accumulatedSlashedRewards",
      "outputs": [
        {
          "internalType": "uint256",
          "name": "",
          "type": "uint256"
        }
      ],
      "stateMutability": "view",
      "type": "function"
    },
    {
      "inputs": [],
      "name": "baseRewardRateBasisPoints",
      "outputs": [
        {
          "internalType": "uint256",
          "name": "",
          "type": "uint256"
        }
      ],
      "stateMutability": "view",
      "type": "function"
    },
    {
      "inputs": [],
      "name": "blocksPerDay",
      "outputs": [
        {
          "internalType": "uint256",
          "name": "",
          "type": "uint256"
        }
      ],
      "stateMutability": "view",
      "type": "function"
    },
    {
      "inputs": [],
      "name": "burnAddress",
      "outputs": [
        {
          "internalType": "address",
          "name": "",
          "type": "address"
        }
      ],
      "stateMutability": "view",
      "type": "function"
    },
    {
      "inputs": [],
      "name": "chainId",
      "outputs": [
        {
          "internalType": "uint256",
          "name": "",
          "type": "uint256"
        }
      ],
      "stateMutability": "view",
      "type": "function"
    },
    {
      "inputs": [],
      "name": "chainMultiplier",
      "outputs": [
        {
          "internalType": "uint256",
          "name": "",
          "type": "uint256"
        }
      ],
      "stateMutability": "view",
      "type": "function"
    },
    {
      "inputs": [
        {
          "internalType": "uint256",
          "name": "",
          "type": "uint256"
        }
      ],
      "name": "controllerContractsMap",
      "outputs": [
        {
          "internalType": "bytes",
          "name": "",
          "type": "bytes"
        }
      ],
      "stateMutability": "view",
      "type": "function"
    },
    {
      "inputs": [],
      "name": "curveDefaultStablecoinIndex",
      "outputs": [
        {
          "internalType": "int128",
          "name": "",
          "type": "int128"
        }
      ],
      "stateMutability": "view",
      "type": "function"
    },
    {
      "inputs": [],
      "name": "curveStablePoolAddress",
      "outputs": [
        {
          "internalType": "address",
          "name": "",
          "type": "address"
        }
      ],
      "stateMutability": "view",
      "type": "function"
    },
    {
      "inputs": [],
      "name": "curveSyntheticStablecoinIndex",
      "outputs": [
        {
          "internalType": "int128",
          "name": "",
          "type": "int128"
        }
      ],
      "stateMutability": "view",
      "type": "function"
    },
    {
      "inputs": [],
      "name": "defaultMaxMarketMovement",
      "outputs": [
        {
          "internalType": "uint256",
          "name": "",
          "type": "uint256"
        }
      ],
      "stateMutability": "view",
      "type": "function"
    },
    {
      "inputs": [],
      "name": "defaultStablecoin",
      "outputs": [
        {
          "internalType": "address",
          "name": "",
          "type": "address"
        }
      ],
      "stateMutability": "view",
      "type": "function"
    },
    {
      "inputs": [
        {
          "internalType": "uint256",
          "name": "_pid",
          "type": "uint256"
        },
        {
          "internalType": "uint256",
          "name": "_wantAmt",
          "type": "uint256"
        },
        {
          "internalType": "uint256",
          "name": "_weeksCommitted",
          "type": "uint256"
        }
      ],
      "name": "deposit",
      "outputs": [],
      "stateMutability": "nonpayable",
      "type": "function"
    },
    {
      "inputs": [
        {
          "internalType": "uint256",
          "name": "_pid",
          "type": "uint256"
        },
        {
          "internalType": "uint256",
          "name": "_valueUSDC",
          "type": "uint256"
        },
        {
          "internalType": "uint256",
          "name": "_weeksCommitted",
          "type": "uint256"
        },
        {
          "internalType": "uint256",
          "name": "_maxMarketMovement",
          "type": "uint256"
        }
      ],
      "name": "depositFullService",
      "outputs": [],
      "stateMutability": "nonpayable",
      "type": "function"
    },
    {
      "inputs": [],
      "name": "failedLockedBuybackUSDC",
      "outputs": [
        {
          "internalType": "uint256",
          "name": "",
          "type": "uint256"
        }
      ],
      "stateMutability": "view",
      "type": "function"
    },
    {
      "inputs": [],
      "name": "failedLockedRevShareUSDC",
      "outputs": [
        {
          "internalType": "uint256",
          "name": "",
          "type": "uint256"
        }
      ],
      "stateMutability": "view",
      "type": "function"
    },
    {
      "inputs": [
        {
          "internalType": "uint256",
          "name": "",
          "type": "uint256"
        },
        {
          "internalType": "bytes",
          "name": "",
          "type": "bytes"
        },
        {
          "internalType": "uint256",
          "name": "",
          "type": "uint256"
        }
      ],
      "name": "foreignTrancheInfo",
      "outputs": [
        {
          "internalType": "address",
          "name": "",
          "type": "address"
        }
      ],
      "stateMutability": "view",
      "type": "function"
    },
    {
      "inputs": [
        {
          "internalType": "uint256",
          "name": "durationInWeeks",
          "type": "uint256"
        }
      ],
      "name": "getTimeMultiplier",
      "outputs": [
        {
          "internalType": "uint256",
          "name": "",
          "type": "uint256"
        }
      ],
      "stateMutability": "view",
      "type": "function"
    },
    {
      "inputs": [
        {
          "internalType": "uint256",
          "name": "_liquidityCommitted",
          "type": "uint256"
        },
        {
          "internalType": "uint256",
          "name": "_timeMultiplier",
          "type": "uint256"
        }
      ],
      "name": "getUserContribution",
      "outputs": [
        {
          "internalType": "uint256",
          "name": "",
          "type": "uint256"
        }
      ],
      "stateMutability": "pure",
      "type": "function"
    },
    {
      "inputs": [],
      "name": "homeChainId",
      "outputs": [
        {
          "internalType": "uint256",
          "name": "",
          "type": "uint256"
        }
      ],
      "stateMutability": "view",
      "type": "function"
    },
    {
      "inputs": [],
      "name": "homeChainZorroController",
      "outputs": [
        {
          "internalType": "address",
          "name": "",
          "type": "address"
        }
      ],
      "stateMutability": "view",
      "type": "function"
    },
    {
      "inputs": [
        {
          "internalType": "address",
          "name": "_token",
          "type": "address"
        },
        {
          "internalType": "uint256",
          "name": "_amount",
          "type": "uint256"
        }
      ],
      "name": "inCaseTokensGetStuck",
      "outputs": [],
      "stateMutability": "nonpayable",
      "type": "function"
    },
    {
      "inputs": [],
      "name": "isTimeMultiplierActive",
      "outputs": [
        {
          "internalType": "bool",
          "name": "",
          "type": "bool"
        }
      ],
      "stateMutability": "view",
      "type": "function"
    },
    {
      "inputs": [],
      "name": "layerZeroEndpoint",
      "outputs": [
        {
          "internalType": "address",
          "name": "",
          "type": "address"
        }
      ],
      "stateMutability": "view",
      "type": "function"
    },
    {
      "inputs": [],
      "name": "lockUSDCController",
      "outputs": [
        {
          "internalType": "address",
          "name": "",
          "type": "address"
        }
      ],
      "stateMutability": "view",
      "type": "function"
    },
    {
      "inputs": [],
      "name": "owner",
      "outputs": [
        {
          "internalType": "address",
          "name": "",
          "type": "address"
        }
      ],
      "stateMutability": "view",
      "type": "function"
    },
    {
      "inputs": [
        {
          "internalType": "uint256",
          "name": "",
          "type": "uint256"
        }
      ],
      "name": "poolInfo",
      "outputs": [
        {
          "internalType": "contract IERC20",
          "name": "want",
          "type": "address"
        },
        {
          "internalType": "uint256",
          "name": "allocPoint",
          "type": "uint256"
        },
        {
          "internalType": "uint256",
          "name": "lastRewardBlock",
          "type": "uint256"
        },
        {
          "internalType": "uint256",
          "name": "accZORRORewards",
          "type": "uint256"
        },
        {
          "internalType": "uint256",
          "name": "totalTrancheContributions",
          "type": "uint256"
        },
        {
          "internalType": "address",
          "name": "vault",
          "type": "address"
        }
      ],
      "stateMutability": "view",
      "type": "function"
    },
    {
      "inputs": [],
      "name": "poolLength",
      "outputs": [
        {
          "internalType": "uint256",
          "name": "",
          "type": "uint256"
        }
      ],
      "stateMutability": "view",
      "type": "function"
    },
    {
      "inputs": [],
      "name": "priceFeedLPPoolOtherToken",
      "outputs": [
        {
          "internalType": "contract AggregatorV3Interface",
          "name": "",
          "type": "address"
        }
      ],
      "stateMutability": "view",
      "type": "function"
    },
    {
      "inputs": [],
      "name": "priceFeedZOR",
      "outputs": [
        {
          "internalType": "contract AggregatorV3Interface",
          "name": "",
          "type": "address"
        }
      ],
      "stateMutability": "view",
      "type": "function"
    },
    {
      "inputs": [],
      "name": "publicPool",
      "outputs": [
        {
          "internalType": "address",
          "name": "",
          "type": "address"
        }
      ],
      "stateMutability": "view",
      "type": "function"
    },
    {
      "inputs": [
        {
          "internalType": "uint256",
          "name": "",
          "type": "uint256"
        },
        {
          "internalType": "address",
          "name": "",
          "type": "address"
        }
      ],
      "name": "redepositInfo",
      "outputs": [
        {
          "internalType": "uint256",
          "name": "durationCommittedInWeeks",
          "type": "uint256"
        },
        {
          "internalType": "uint256",
          "name": "enteredVaultAt",
          "type": "uint256"
        }
      ],
      "stateMutability": "view",
      "type": "function"
    },
    {
      "inputs": [
        {
          "internalType": "bytes",
          "name": "_contract",
          "type": "bytes"
        }
      ],
      "name": "registerXChainController",
      "outputs": [],
      "stateMutability": "nonpayable",
      "type": "function"
    },
    {
      "inputs": [
        {
          "internalType": "bytes",
          "name": "",
          "type": "bytes"
        }
      ],
      "name": "registeredXChainControllers",
      "outputs": [
        {
          "internalType": "bool",
          "name": "",
          "type": "bool"
        }
      ],
      "stateMutability": "view",
      "type": "function"
    },
    {
      "inputs": [],
      "name": "renounceOwnership",
      "outputs": [],
      "stateMutability": "nonpayable",
      "type": "function"
    },
    {
      "inputs": [
        {
          "internalType": "uint256",
          "name": "_baseRewardRateBasisPoints",
          "type": "uint256"
        }
      ],
      "name": "setBaseRewardRateBasisPoints",
      "outputs": [],
      "stateMutability": "nonpayable",
      "type": "function"
    },
    {
      "inputs": [
        {
          "internalType": "uint256",
          "name": "_blocksPerDay",
          "type": "uint256"
        }
      ],
      "name": "setBlocksPerDay",
      "outputs": [],
      "stateMutability": "nonpayable",
      "type": "function"
    },
    {
      "inputs": [
        {
          "internalType": "uint256",
          "name": "_chainId",
          "type": "uint256"
        }
      ],
      "name": "setChainId",
      "outputs": [],
      "stateMutability": "nonpayable",
      "type": "function"
    },
    {
      "inputs": [
        {
          "internalType": "uint256",
          "name": "_chainMultiplier",
          "type": "uint256"
        }
      ],
      "name": "setChainMultiplier",
      "outputs": [],
      "stateMutability": "nonpayable",
      "type": "function"
    },
    {
      "inputs": [
        {
          "internalType": "address",
          "name": "_curveStablePoolAddress",
          "type": "address"
        }
      ],
      "name": "setCurveStablePoolAddress",
      "outputs": [],
      "stateMutability": "nonpayable",
      "type": "function"
    },
    {
      "inputs": [
        {
          "internalType": "uint256",
          "name": "_defaultMaxMarketMovement",
          "type": "uint256"
        }
      ],
      "name": "setDefaultMaxMarketMovement",
      "outputs": [],
      "stateMutability": "nonpayable",
      "type": "function"
    },
    {
      "inputs": [
        {
          "internalType": "address",
          "name": "_defaultStablecoin",
          "type": "address"
        }
      ],
      "name": "setDefaultStablecoin",
      "outputs": [],
      "stateMutability": "nonpayable",
      "type": "function"
    },
    {
      "inputs": [
        {
          "internalType": "uint256",
          "name": "_chainId",
          "type": "uint256"
        },
        {
          "internalType": "bytes",
          "name": "_endpointContract",
          "type": "bytes"
        }
      ],
      "name": "setEndpointContracts",
      "outputs": [],
      "stateMutability": "nonpayable",
      "type": "function"
    },
    {
      "inputs": [
        {
          "internalType": "address",
          "name": "_homeChainZorroController",
          "type": "address"
        }
      ],
      "name": "setHomeChainZorroController",
      "outputs": [],
      "stateMutability": "nonpayable",
      "type": "function"
    },
    {
      "inputs": [
        {
          "internalType": "bool",
          "name": "_isActive",
          "type": "bool"
        }
      ],
      "name": "setIsTimeMultiplierActive",
      "outputs": [],
      "stateMutability": "nonpayable",
      "type": "function"
    },
    {
      "inputs": [
        {
          "internalType": "address",
          "name": "_lockUSDCController",
          "type": "address"
        }
      ],
      "name": "setLockUSDCController",
      "outputs": [],
      "stateMutability": "nonpayable",
      "type": "function"
    },
    {
      "inputs": [
        {
          "internalType": "address",
          "name": "_priceFeedLPPoolOtherToken",
          "type": "address"
        }
      ],
      "name": "setPriceFeedLPPoolOtherToken",
      "outputs": [],
      "stateMutability": "nonpayable",
      "type": "function"
    },
    {
      "inputs": [
        {
          "internalType": "address",
          "name": "_priceFeedZOR",
          "type": "address"
        }
      ],
      "name": "setPriceFeedZOR",
      "outputs": [],
      "stateMutability": "nonpayable",
      "type": "function"
    },
    {
      "inputs": [
        {
          "internalType": "address",
          "name": "_publicPoolAddress",
          "type": "address"
        }
      ],
      "name": "setPublicPool",
      "outputs": [],
      "stateMutability": "nonpayable",
      "type": "function"
    },
    {
      "inputs": [
        {
          "internalType": "uint256",
          "name": "_blockNumber",
          "type": "uint256"
        }
      ],
      "name": "setStartBlock",
      "outputs": [],
      "stateMutability": "nonpayable",
      "type": "function"
    },
    {
      "inputs": [
        {
          "internalType": "address",
          "name": "_syntheticStablecoin",
          "type": "address"
        }
      ],
      "name": "setSyntheticStablecoin",
      "outputs": [],
      "stateMutability": "nonpayable",
      "type": "function"
    },
    {
      "inputs": [
        {
          "internalType": "uint256",
          "name": "_targetTVLCaptureBasisPoints",
          "type": "uint256"
        }
      ],
      "name": "setTargetTVLCaptureBasisPoints",
      "outputs": [],
      "stateMutability": "nonpayable",
      "type": "function"
    },
    {
      "inputs": [
        {
          "internalType": "address[]",
          "name": "_path",
          "type": "address[]"
        }
      ],
      "name": "setUSDCToZorroLPPoolToken0Path",
      "outputs": [],
      "stateMutability": "nonpayable",
      "type": "function"
    },
    {
      "inputs": [
        {
          "internalType": "address[]",
          "name": "_path",
          "type": "address[]"
        }
      ],
      "name": "setUSDCToZorroLPPoolToken1Path",
      "outputs": [],
      "stateMutability": "nonpayable",
      "type": "function"
    },
    {
      "inputs": [
        {
          "internalType": "address",
          "name": "_uniV2Router",
          "type": "address"
        }
      ],
      "name": "setUniRouter",
      "outputs": [],
      "stateMutability": "nonpayable",
      "type": "function"
    },
    {
      "inputs": [
        {
          "internalType": "address",
          "name": "_xChainReceivingOracle",
          "type": "address"
        }
      ],
      "name": "setXChainReceivingOracle",
      "outputs": [],
      "stateMutability": "nonpayable",
      "type": "function"
    },
    {
      "inputs": [
        {
          "internalType": "uint256",
          "name": "_value",
          "type": "uint256"
        }
      ],
      "name": "setZORRODailyDistributionFactorBasisPointsMax",
      "outputs": [],
      "stateMutability": "nonpayable",
      "type": "function"
    },
    {
      "inputs": [
        {
          "internalType": "uint256",
          "name": "_value",
          "type": "uint256"
        }
      ],
      "name": "setZORRODailyDistributionFactorBasisPointsMin",
      "outputs": [],
      "stateMutability": "nonpayable",
      "type": "function"
    },
    {
      "inputs": [
        {
          "internalType": "address",
          "name": "_zorroControllerOracle",
          "type": "address"
        }
      ],
      "name": "setZorroControllerOracle",
      "outputs": [],
      "stateMutability": "nonpayable",
      "type": "function"
    },
    {
      "inputs": [
        {
          "internalType": "address",
          "name": "_zorroLPPool",
          "type": "address"
        }
      ],
      "name": "setZorroLPPool",
      "outputs": [],
      "stateMutability": "nonpayable",
      "type": "function"
    },
    {
      "inputs": [
        {
          "internalType": "address",
          "name": "_token",
          "type": "address"
        }
      ],
      "name": "setZorroLPPoolOtherToken",
      "outputs": [],
      "stateMutability": "nonpayable",
      "type": "function"
    },
    {
      "inputs": [
        {
          "internalType": "uint256",
          "name": "_totalChainMultipliers",
          "type": "uint256"
        },
        {
          "internalType": "uint256",
          "name": "_totalMarketTVLUSD",
          "type": "uint256"
        },
        {
          "internalType": "uint256",
          "name": "_targetTVLCaptureBasisPoints",
          "type": "uint256"
        },
        {
          "internalType": "uint256",
          "name": "_ZorroTotalVaultTVLUSD",
          "type": "uint256"
        },
        {
          "internalType": "uint256",
          "name": "_publicPoolZORBalance",
          "type": "uint256"
        }
      ],
      "name": "setZorroPerBlock",
      "outputs": [],
      "stateMutability": "nonpayable",
      "type": "function"
    },
    {
      "inputs": [
        {
          "internalType": "address",
          "name": "_zorroStakingVault",
          "type": "address"
        }
      ],
      "name": "setZorroStakingVault",
      "outputs": [],
      "stateMutability": "nonpayable",
      "type": "function"
    },
    {
      "inputs": [
        {
          "internalType": "uint256",
          "name": "",
          "type": "uint256"
        }
      ],
      "name": "stargateDestPoolIds",
      "outputs": [
        {
          "internalType": "uint256",
          "name": "",
          "type": "uint256"
        }
      ],
      "stateMutability": "view",
      "type": "function"
    },
    {
      "inputs": [],
      "name": "stargateRouter",
      "outputs": [
        {
          "internalType": "address",
          "name": "",
          "type": "address"
        }
      ],
      "stateMutability": "view",
      "type": "function"
    },
    {
      "inputs": [],
      "name": "stargateSwapPoolId",
      "outputs": [
        {
          "internalType": "uint256",
          "name": "",
          "type": "uint256"
        }
      ],
      "stateMutability": "view",
      "type": "function"
    },
    {
      "inputs": [],
      "name": "startBlock",
      "outputs": [
        {
          "internalType": "uint256",
          "name": "",
          "type": "uint256"
        }
      ],
      "stateMutability": "view",
      "type": "function"
    },
    {
      "inputs": [],
      "name": "syntheticStablecoin",
      "outputs": [
        {
          "internalType": "address",
          "name": "",
          "type": "address"
        }
      ],
      "stateMutability": "view",
      "type": "function"
    },
    {
      "inputs": [],
      "name": "targetTVLCaptureBasisPoints",
      "outputs": [
        {
          "internalType": "uint256",
          "name": "",
          "type": "uint256"
        }
      ],
      "stateMutability": "view",
      "type": "function"
    },
    {
      "inputs": [],
      "name": "totalAllocPoint",
      "outputs": [
        {
          "internalType": "uint256",
          "name": "",
          "type": "uint256"
        }
      ],
      "stateMutability": "view",
      "type": "function"
    },
    {
      "inputs": [
        {
          "internalType": "uint256",
          "name": "",
          "type": "uint256"
        },
        {
          "internalType": "address",
          "name": "",
          "type": "address"
        },
        {
          "internalType": "uint256",
          "name": "",
          "type": "uint256"
        }
      ],
      "name": "trancheInfo",
      "outputs": [
        {
          "internalType": "uint256",
          "name": "contribution",
          "type": "uint256"
        },
        {
          "internalType": "uint256",
          "name": "timeMultiplier",
          "type": "uint256"
        },
        {
          "internalType": "uint256",
          "name": "rewardDebt",
          "type": "uint256"
        },
        {
          "internalType": "uint256",
          "name": "durationCommittedInWeeks",
          "type": "uint256"
        },
        {
          "internalType": "uint256",
          "name": "enteredVaultAt",
          "type": "uint256"
        },
        {
          "internalType": "uint256",
          "name": "exitedVaultAt",
          "type": "uint256"
        }
      ],
      "stateMutability": "view",
      "type": "function"
    },
    {
      "inputs": [
        {
          "internalType": "uint256",
          "name": "_pid",
          "type": "uint256"
        },
        {
          "internalType": "address",
          "name": "_user",
          "type": "address"
        }
      ],
      "name": "trancheLength",
      "outputs": [
        {
          "internalType": "uint256",
          "name": "",
          "type": "uint256"
        }
      ],
      "stateMutability": "view",
      "type": "function"
    },
    {
      "inputs": [
        {
          "internalType": "uint256",
          "name": "_fromPid",
          "type": "uint256"
        },
        {
          "internalType": "uint256",
          "name": "_fromTrancheId",
          "type": "uint256"
        },
        {
          "internalType": "uint256",
          "name": "_toPid",
          "type": "uint256"
        },
        {
          "internalType": "uint256",
          "name": "_maxMarketMovement",
          "type": "uint256"
        }
      ],
      "name": "transferInvestment",
      "outputs": [],
      "stateMutability": "nonpayable",
      "type": "function"
    },
    {
      "inputs": [
        {
          "internalType": "address",
          "name": "newOwner",
          "type": "address"
        }
      ],
      "name": "transferOwnership",
      "outputs": [],
      "stateMutability": "nonpayable",
      "type": "function"
    },
    {
      "inputs": [
        {
          "internalType": "bytes",
          "name": "_contract",
          "type": "bytes"
        }
      ],
      "name": "unRegisterXChainController",
      "outputs": [],
      "stateMutability": "nonpayable",
      "type": "function"
    },
    {
      "inputs": [],
      "name": "uniRouterAddress",
      "outputs": [
        {
          "internalType": "address",
          "name": "",
          "type": "address"
        }
      ],
      "stateMutability": "view",
      "type": "function"
    },
    {
      "inputs": [
        {
          "internalType": "uint256",
          "name": "_pid",
          "type": "uint256"
        }
      ],
      "name": "updatePool",
      "outputs": [
        {
          "internalType": "uint256",
          "name": "",
          "type": "uint256"
        }
      ],
      "stateMutability": "nonpayable",
      "type": "function"
    },
    {
      "inputs": [
        {
          "internalType": "uint256",
          "name": "_pid",
          "type": "uint256"
        },
        {
          "internalType": "uint256",
          "name": "_trancheId",
          "type": "uint256"
        },
        {
          "internalType": "bool",
          "name": "_harvestOnly",
          "type": "bool"
        }
      ],
      "name": "withdraw",
      "outputs": [
        {
          "internalType": "uint256",
          "name": "",
          "type": "uint256"
        }
      ],
      "stateMutability": "nonpayable",
      "type": "function"
    },
    {
      "inputs": [
        {
          "internalType": "uint256",
          "name": "_pid",
          "type": "uint256"
        }
      ],
      "name": "withdrawAll",
      "outputs": [],
      "stateMutability": "nonpayable",
      "type": "function"
    },
    {
      "inputs": [
        {
          "internalType": "uint256",
          "name": "_pid",
          "type": "uint256"
        },
        {
          "internalType": "uint256",
          "name": "_trancheId",
          "type": "uint256"
        },
        {
          "internalType": "bool",
          "name": "_harvestOnly",
          "type": "bool"
        },
        {
          "internalType": "uint256",
          "name": "_maxMarketMovement",
          "type": "uint256"
        }
      ],
      "name": "withdrawalFullService",
      "outputs": [
        {
          "internalType": "uint256",
          "name": "",
          "type": "uint256"
        }
      ],
      "stateMutability": "nonpayable",
      "type": "function"
    },
    {
      "inputs": [],
      "name": "xChainReceivingOracle",
      "outputs": [
        {
          "internalType": "address",
          "name": "",
          "type": "address"
        }
      ],
      "stateMutability": "view",
      "type": "function"
    },
    {
      "inputs": [],
      "name": "zorroControllerOracle",
      "outputs": [
        {
          "internalType": "address",
          "name": "",
          "type": "address"
        }
      ],
      "stateMutability": "view",
      "type": "function"
    },
    {
      "inputs": [],
      "name": "zorroLPPool",
      "outputs": [
        {
          "internalType": "address",
          "name": "",
          "type": "address"
        }
      ],
      "stateMutability": "view",
      "type": "function"
    },
    {
      "inputs": [],
      "name": "zorroLPPoolOtherToken",
      "outputs": [
        {
          "internalType": "address",
          "name": "",
          "type": "address"
        }
      ],
      "stateMutability": "view",
      "type": "function"
    },
    {
      "inputs": [],
      "name": "zorroStakingVault",
      "outputs": [
        {
          "internalType": "address",
          "name": "",
          "type": "address"
        }
      ],
      "stateMutability": "view",
      "type": "function"
    },
    {
      "inputs": [
        {
          "internalType": "uint256",
          "name": "_chainId",
          "type": "uint256"
        },
        {
          "internalType": "bytes",
          "name": "_dstContract",
          "type": "bytes"
        },
        {
          "internalType": "uint256",
          "name": "_pid",
          "type": "uint256"
        },
        {
          "internalType": "uint256",
          "name": "_valueUSDC",
          "type": "uint256"
        },
        {
          "internalType": "uint256",
          "name": "_weeksCommitted",
          "type": "uint256"
        },
        {
          "internalType": "uint256",
          "name": "_maxMarketMovement",
          "type": "uint256"
        },
        {
          "internalType": "bytes",
          "name": "_destWallet",
          "type": "bytes"
        }
      ],
      "name": "checkXChainDepositFee",
      "outputs": [
        {
          "internalType": "uint256",
          "name": "",
          "type": "uint256"
        }
      ],
      "stateMutability": "view",
      "type": "function"
    },
    {
      "inputs": [
        {
          "internalType": "uint256",
          "name": "_zorroChainId",
          "type": "uint256"
        },
        {
          "internalType": "uint256",
          "name": "_pid",
          "type": "uint256"
        },
        {
          "internalType": "uint256",
          "name": "_valueUSDC",
          "type": "uint256"
        },
        {
          "internalType": "uint256",
          "name": "_weeksCommitted",
          "type": "uint256"
        },
        {
          "internalType": "uint256",
          "name": "_maxMarketMovement",
          "type": "uint256"
        },
        {
          "internalType": "bytes",
          "name": "_destWallet",
          "type": "bytes"
        }
      ],
      "name": "sendXChainDepositRequest",
      "outputs": [],
      "stateMutability": "payable",
      "type": "function"
    },
    {
      "inputs": [
        {
          "internalType": "uint256",
          "name": "_pid",
          "type": "uint256"
        },
        {
          "internalType": "uint256",
          "name": "_valueUSDC",
          "type": "uint256"
        },
        {
          "internalType": "uint256",
          "name": "_weeksCommitted",
          "type": "uint256"
        },
        {
          "internalType": "uint256",
          "name": "_maxMarketMovement",
          "type": "uint256"
        },
        {
          "internalType": "bytes",
          "name": "_originAccount",
          "type": "bytes"
        },
        {
          "internalType": "address",
          "name": "_destAccount",
          "type": "address"
        }
      ],
      "name": "receiveXChainDepositRequest",
      "outputs": [],
      "stateMutability": "nonpayable",
      "type": "function"
    }
  ],
  "bytecode": "0x608060405260038054600160a060020a03191661dead179055617080600655600160098190556014600a908155600b829055600c805460ff1916909217909155600d556103ca6018556000601c8190556030553480156200005f57600080fd5b50620000866200007764010000000062000090810204565b64010000000062000094810204565b60018055620000e4565b3390565b60008054600160a060020a03838116600160a060020a0319831681178455604051919092169283917f8be0079c531659141344cd1fd0a4f28419497f9722a3daafe3b4186f6b6457e09190a35050565b61482280620000f46000396000f3fe60806040526004361061055a576000357c01000000000000000000000000000000000000000000000000000000009004806379777d81116102da578063b4b4e9eb1161019d578063ddd88fec11610104578063ef0e2ff4116100bd578063f2fde38b11610097578063f2fde38b146111c3578063f35e4a6e146111e3578063fb73170b14611203578063fc39a29e1461122357600080fd5b8063ef0e2ff41461116d578063ef1269671461118d578063ef190fec146111a357600080fd5b8063ddd88fec146110bd578063e940f6e1146110dd578063ea07667a146110f3578063ebfba7c414611113578063ec54e4a414611133578063ee4e26871461114d57600080fd5b8063c524a05611610156578063c524a05614611011578063c6d758cb14611031578063c9f363c414611051578063cb9c2f6814611071578063ce9e292814611087578063d85c5548146110a757600080fd5b8063b4b4e9eb14610efa578063b614bdba14610f47578063b61bb80a14610f67578063c27893ef14610f87578063c293614214610fa7578063c29de0d214610fbd57600080fd5b8063959334f411610241578063a2df085c116101fa578063a2df085c14610e47578063a4d2b08314610e5a578063a80bee0714610e7a578063a9418d6714610e9a578063a9e56f3c14610eba578063b22f325114610eda57600080fd5b8063959334f414610da55780639a8a059214610dc55780639b8ad2d614610ddb5780639cde7a0014610df15780639cebd37114610e11578063a00c807c14610e2757600080fd5b80638c157db2116102935780638c157db214610ced5780638da5cb5b14610d0d578063941d3fd014610d2b57806394909cc214610d455780639568786c14610d65578063958e2d3114610d8557600080fd5b806379777d8114610c2d5780637bf604d814610c4d5780637e37c76914610c6d57806381ea795d14610c8d578063823c43d014610cad578063871869ca14610ccd57600080fd5b806348cd4cb111610422578063668ababb116103895780636c78d49c116103425780636c78d49c14610b825780636ca8bd6514610ba257806370d5ae0514610bc2578063715018a614610be2578063745af0a814610bf757806376cc230314610c1757600080fd5b8063668ababb14610ac2578063683dc6f514610ae257806368ce004b14610b02578063692d8b8b14610b22578063693a090b14610b425780636b8eb2e514610b6257600080fd5b80635527a6f9116103db5780635527a6f9146109de5780635790f599146109f4578063592dcbd314610a0a578063593af9fe14610a2a5780636179ecd114610a5757806365bc77bc14610a7757600080fd5b806348cd4cb11461093257806348d57c8e146109485780634cfea68a146109685780635051d3711461097e57806351eb05a61461099e57806353f73f87146109be57600080fd5b806333cfcd3b116104c65780633b9ce5651161047f5780633b9ce565146108585780633bbc1ffc1461086e5780634098b0eb1461088e578063416d0de7146108ae578063459f4753146108ce5780634780f9f51461091257600080fd5b806333cfcd3b146107815780633486a32e146107a1578063353b6c2c146107c157806337541464146107e15780633b35b727146108225780633b7106881461084257600080fd5b80631526fe27116105185780631526fe271461063d57806317caf6f114610699578063219b38b8146106af57806326fc7c7d146106dc578063293da9d4146106fc5780632e31283d1461072957600080fd5b8062aeef8a1461055f578063025b10451461058157806307968db1146105be578063081e3eda146105de578063104a6132146105fd5780631479a6df1461061d575b600080fd5b34801561056b57600080fd5b5061057f61057a366004613dc3565b611243565b005b34801561058d57600080fd5b506022546105a190600160a060020a031681565b604051600160a060020a0390911681526020015b60405180910390f35b3480156105ca57600080fd5b506028546105a190600160a060020a031681565b3480156105ea57600080fd5b50602d545b6040519081526020016105b5565b34801561060957600080fd5b506105a1610618366004613def565b611300565b34801561062957600080fd5b5061057f610638366004613def565b61132a565b34801561064957600080fd5b5061065d610658366004613def565b61135c565b60408051600160a060020a03978816815260208101969096528501939093526060840191909152608083015290911660a082015260c0016105b5565b3480156106a557600080fd5b506105ef60305481565b3480156106bb57600080fd5b506105ef6106ca366004613def565b60276020526000908152604090205481565b3480156106e857600080fd5b5061057f6106f7366004613e1f565b6113af565b34801561070857600080fd5b506105ef610717366004613e3a565b60246020526000908152604090205481565b34801561073557600080fd5b506105a1610744366004613f18565b602f6020908152600093845260408085208451808601840180519281529084019584019590952094529290528252902054600160a060020a031681565b34801561078d57600080fd5b506105ef61079c366004613f76565b6113fe565b3480156107ad57600080fd5b5061057f6107bc366004613e1f565b611498565b3480156107cd57600080fd5b5061057f6107dc366004613def565b6114e7565b3480156107ed57600080fd5b5060115461080f907001000000000000000000000000000000009004600f0b81565b604051600f9190910b81526020016105b5565b34801561082e57600080fd5b5061057f61083d366004613def565b611519565b34801561084e57600080fd5b506105ef600d5481565b34801561086457600080fd5b506105ef600a5481565b34801561087a57600080fd5b5061057f610889366004613def565b61154b565b34801561089a57600080fd5b5061057f6108a9366004613def565b61157d565b3480156108ba57600080fd5b50600f546105a190600160a060020a031681565b3480156108da57600080fd5b506108ff6108e9366004613def565b60236020526000908152604090205461ffff1681565b60405161ffff90911681526020016105b5565b34801561091e57600080fd5b5061057f61092d366004613faf565b6115af565b34801561093e57600080fd5b506105ef60055481565b34801561095457600080fd5b50601f546105a190600160a060020a031681565b34801561097457600080fd5b506105ef60065481565b34801561098a57600080fd5b5061057f610999366004613e1f565b611658565b3480156109aa57600080fd5b506105ef6109b9366004613def565b6116a7565b3480156109ca57600080fd5b506105ef6109d9366004613fe1565b611826565b3480156109ea57600080fd5b506105ef60095481565b348015610a0057600080fd5b506105ef60265481565b348015610a1657600080fd5b5061057f610a25366004613e1f565b61184e565b348015610a3657600080fd5b50610a4a610a45366004613def565b61189d565b6040516105b59190614065565b348015610a6357600080fd5b5061057f610a72366004613def565b611937565b348015610a8357600080fd5b50610ab2610a92366004614078565b8051602081830181018051601e8252928201919093012091525460ff1681565b60405190151581526020016105b5565b348015610ace57600080fd5b506004546105a190600160a060020a031681565b348015610aee57600080fd5b5061057f610afd366004613e1f565b611969565b348015610b0e57600080fd5b5061057f610b1d3660046140ad565b6119b8565b348015610b2e57600080fd5b5061057f610b3d366004614159565b6119fc565b348015610b4e57600080fd5b506014546105a190600160a060020a031681565b348015610b6e57600080fd5b5061057f610b7d3660046141cc565b611a47565b348015610b8e57600080fd5b5061057f610b9d366004614207565b611b46565b348015610bae57600080fd5b5061057f610bbd366004613e1f565b611b86565b348015610bce57600080fd5b506003546105a190600160a060020a031681565b348015610bee57600080fd5b5061057f611bd5565b348015610c0357600080fd5b506105ef610c12366004614224565b611c0e565b348015610c2357600080fd5b506105ef60215481565b348015610c3957600080fd5b50602b546105a190600160a060020a031681565b348015610c5957600080fd5b506012546105a190600160a060020a031681565b348015610c7957600080fd5b5061057f610c88366004613faf565b611c88565b348015610c9957600080fd5b5061057f610ca8366004614078565b611e09565b348015610cb957600080fd5b50602c546105a190600160a060020a031681565b348015610cd957600080fd5b5061057f610ce8366004614078565b611e6b565b348015610cf957600080fd5b506002546105a190600160a060020a031681565b348015610d1957600080fd5b50600054600160a060020a03166105a1565b348015610d3757600080fd5b50600c54610ab29060ff1681565b348015610d5157600080fd5b5061057f610d60366004613e1f565b611eaa565b348015610d7157600080fd5b506105ef610d80366004613def565b611ef9565b348015610d9157600080fd5b5061057f610da0366004613def565b611fd2565b348015610db157600080fd5b5061057f610dc0366004613e1f565b61203c565b348015610dd157600080fd5b506105ef601b5481565b348015610de757600080fd5b506105ef60185481565b348015610dfd57600080fd5b506105a1610e0c366004613def565b61208b565b348015610e1d57600080fd5b506105ef600b5481565b348015610e3357600080fd5b5061057f610e423660046140ad565b61209b565b61057f610e55366004614263565b6120db565b348015610e6657600080fd5b506019546105a190600160a060020a031681565b348015610e8657600080fd5b506105ef610e953660046142cf565b6122f9565b348015610ea657600080fd5b5061057f610eb5366004613e1f565b612315565b348015610ec657600080fd5b506025546105a190600160a060020a031681565b348015610ee657600080fd5b50602a546105a190600160a060020a031681565b348015610f0657600080fd5b50610f1a610f153660046142f1565b6123bd565b604080519687526020870195909552938501929092526060840152608083015260a082015260c0016105b5565b348015610f5357600080fd5b506105a1610f62366004613def565b61241e565b348015610f7357600080fd5b50600e546105a190600160a060020a031681565b348015610f9357600080fd5b506010546105a190600160a060020a031681565b348015610fb357600080fd5b506105ef60075481565b348015610fc957600080fd5b50610ffc610fd8366004613fe1565b60316020908152600092835260408084209091529082529020805460019091015482565b604080519283526020830191909152016105b5565b34801561101d57600080fd5b5061057f61102c366004613e1f565b61242e565b34801561103d57600080fd5b5061057f61104c366004614326565b61247d565b34801561105d57600080fd5b506105ef61106c366004614350565b612545565b34801561107d57600080fd5b506105ef60085481565b34801561109357600080fd5b5061057f6110a2366004613e1f565b61262b565b3480156110b357600080fd5b506105ef60205481565b3480156110c957600080fd5b5061057f6110d8366004613e1f565b61267a565b3480156110e957600080fd5b506105ef60295481565b3480156110ff57600080fd5b5061057f61110e366004613def565b6126c9565b34801561111f57600080fd5b506013546105a190600160a060020a031681565b34801561113f57600080fd5b5060115461080f90600f0b81565b34801561115957600080fd5b5061057f611168366004613e1f565b6126fb565b34801561117957600080fd5b5061057f611188366004613def565b61274a565b34801561119957600080fd5b506105ef601c5481565b3480156111af57600080fd5b5061057f6111be366004613e1f565b61277c565b3480156111cf57600080fd5b5061057f6111de366004613e1f565b6127cb565b3480156111ef57600080fd5b5061057f6111fe366004613def565b612883565b34801561120f57600080fd5b5061057f61121e3660046143e4565b6128b5565b34801561122f57600080fd5b50601a546105a190600160a060020a031681565b600260015414156112725760405160e560020a62461bcd02815260040161126990614460565b60405180910390fd5b60026001819055506000602d848154811061128f5761128f614497565b6000918252602090912060069091020180549091506112b890600160a060020a03163085612901565b600581015481546112d891600160a060020a039182169133911686612a42565b6112f5843360405180602001604052806000815250868642612a93565b505060018055505050565b6017818154811061131057600080fd5b600091825260209091200154600160a060020a0316905081565b600054600160a060020a031633146113575760405160e560020a62461bcd028152600401611269906144b0565b600955565b602d818154811061136c57600080fd5b6000918252602090912060069091020180546001820154600283015460038401546004850154600590950154600160a060020a0394851696509294919390921686565b600054600160a060020a031633146113dc5760405160e560020a62461bcd028152600401611269906144b0565b601f8054600160a060020a031916600160a060020a0392909216919091179055565b6000600260015414156114265760405160e560020a62461bcd02815260040161126990614460565b6002600181905550600061144c8533604051806020016040528060008152508787612da7565b905061148b338260000151602d888154811061146a5761146a614497565b6000918252602090912060069091020154600160a060020a03169190613281565b5160018055949350505050565b600054600160a060020a031633146114c55760405160e560020a62461bcd028152600401611269906144b0565b602b8054600160a060020a031916600160a060020a0392909216919091179055565b600054600160a060020a031633146115145760405160e560020a62461bcd028152600401611269906144b0565b600655565b600054600160a060020a031633146115465760405160e560020a62461bcd028152600401611269906144b0565b600a55565b600054600160a060020a031633146115785760405160e560020a62461bcd028152600401611269906144b0565b600855565b600054600160a060020a031633146115aa5760405160e560020a62461bcd028152600401611269906144b0565b600d55565b600260015414156115d55760405160e560020a62461bcd02815260040161126990614460565b60026001819055506000602d85815481106115f2576115f2614497565b6000918252602090912060056006909202010154600e54600160a060020a03918216925061162291163086612901565b600e5461163a90600160a060020a0316338387612a42565b6112f5853360405180602001604052806000815250878742886132cf565b600054600160a060020a031633146116855760405160e560020a62461bcd028152600401611269906144b0565b602c8054600160a060020a031916600160a060020a0392909216919091179055565b600080602d83815481106116bd576116bd614497565b90600052602060002090600602019050806002015443116116e15750600092915050565b60006116fa8260020154436133e090919063ffffffff16565b90506000811161170e575060009392505050565b600061173f6030546117398560010154611733600754876133ec90919063ffffffff16565b906133ec565b906133f8565b601a54909150600160a060020a03163014156117985760045460025461177391600160a060020a0391821691163084612a42565b60038301546117829082613404565b6003840155505043600290910155506000919050565b6002546040517f40c10f1900000000000000000000000000000000000000000000000000000000815230600482015260248101839052600160a060020a03909116906340c10f1990604401600060405180830381600087803b1580156117fd57600080fd5b505af1158015611811573d6000803e3d6000fd5b5092979650505050505050565b505050919050565b6000918252602e60209081526040808420600160a060020a0393909316845291905290205490565b600054600160a060020a0316331461187b5760405160e560020a62461bcd028152600401611269906144b0565b602a8054600160a060020a031916600160a060020a0392909216919091179055565b601d60205260009081526040902080546118b6906144e5565b80601f01602080910402602001604051908101604052809291908181526020018280546118e2906144e5565b801561192f5780601f106119045761010080835404028352916020019161192f565b820191906000526020600020905b81548152906001019060200180831161191257829003601f168201915b505050505081565b600054600160a060020a031633146119645760405160e560020a62461bcd028152600401611269906144b0565b601855565b600054600160a060020a031633146119965760405160e560020a62461bcd028152600401611269906144b0565b60228054600160a060020a031916600160a060020a0392909216919091179055565b600054600160a060020a031633146119e55760405160e560020a62461bcd028152600401611269906144b0565b80516119f8906015906020840190613cd5565b5050565b60405160e560020a62461bcd02815260206004820152601760248201527f696c6c6567616c2064756d6d792066756e632063616c6c0000000000000000006044820152606401611269565b602c54600160a060020a031633600160a060020a031614611aad5760405160e560020a62461bcd02815260206004820152601160248201527f6f6e6c79205a6f72726f206f7261636c650000000000000000000000000000006044820152606401611269565b6000611acf83611739611ac2876127106133f8565b600d54611733908a6133ec565b9050600a54811115611ae45750600a54611af3565b600954811015611af357506009545b6000611b0561271061173985856133ec565b90506000611b228861173984600b546133ec90919063ffffffff16565b9050611b39600654826133f890919063ffffffff16565b6007555050505050505050565b600054600160a060020a03163314611b735760405160e560020a62461bcd028152600401611269906144b0565b600c805460ff1916911515919091179055565b600054600160a060020a03163314611bb35760405160e560020a62461bcd028152600401611269906144b0565b60198054600160a060020a031916600160a060020a0392909216919091179055565b600054600160a060020a03163314611c025760405160e560020a62461bcd028152600401611269906144b0565b611c0c6000613419565b565b600060026001541415611c365760405160e560020a62461bcd02815260040161126990614460565b60026001819055506000611c5d336040518060200160405280600081525088888888613469565b5050600e54919250611c7b91600160a060020a031690503383613281565b6001805595945050505050565b60026001541415611cae5760405160e560020a62461bcd02815260040161126990614460565b60026001556000848152602e602090815260408083203384529091528120805485908110611cde57611cde614497565b6000918252602080832060036006909302019190910154878352602e8252604080842033855290925290822080549193509086908110611d2057611d20614497565b90600052602060002090600602016004015490506000611d5433604051806020016040528060008152508989600089613469565b50505090506060600e60009054906101000a9004600160a060020a031681600081518110611d8457611d84614497565b6020026020010190600160a060020a03169081600160a060020a031681525050611dc28633604051806020016040528060008152508588888b6132cf565b604051338152869088908a907f67e7aba7263d8fbeb0cd9a2f4008f060a6a03f46c1d7f9d0550f0b93e96e96f89060200160405180910390a4505060018055505050505050565b600054600160a060020a03163314611e365760405160e560020a62461bcd028152600401611269906144b0565b6001601e82604051611e489190614523565b908152604051908190036020019020805491151560ff1990921691909117905550565b600054600160a060020a03163314611e985760405160e560020a62461bcd028152600401611269906144b0565b6000601e82604051611e489190614523565b600054600160a060020a03163314611ed75760405160e560020a62461bcd028152600401611269906144b0565b60048054600160a060020a031916600160a060020a0392909216919091179055565b600c5460009060ff1615611fc1576040517f677342ce00000000000000000000000000000000000000000000000000000000815260048101839052611fbb9064e8d4a510009061173390611fb39073__CustomMath____________________________9063677342ce90602401602060405180830381865af4158015611f83573d6000803e3d6000fd5b505050506040513d601f19601f82011682018060405250810190611fa7919061453f565b6117336002600a6133f8565b600190613404565b92915050565b5064e8d4a51000919050565b919050565b60026001541415611ff85760405160e560020a62461bcd02815260040161126990614460565b600260015560006120098233611826565b905060005b8181101561203357612022838260006113fe565b5061202c81614571565b905061200e565b50506001805550565b600054600160a060020a031633146120695760405160e560020a62461bcd028152600401611269906144b0565b60138054600160a060020a031916600160a060020a0392909216919091179055565b6016818154811061131057600080fd5b600054600160a060020a031633146120c85760405160e560020a62461bcd028152600401611269906144b0565b80516119f8906016906020840190613cd5565b600260015414156121015760405160e560020a62461bcd02815260040161126990614460565b6002600155346121565760405160e560020a62461bcd02815260206004820152601160248201527f4e6f2066656573207375626d69747465640000000000000000000000000000006044820152606401611269565b600e5461216d90600160a060020a03163086612901565b600e5461218590600160a060020a0316333087612a42565b600e546040517f70a08231000000000000000000000000000000000000000000000000000000008152306004820152600091600160a060020a0316906370a0823190602401602060405180830381865afa1580156121e7573d6000803e3d6000fd5b505050506040513d601f19601f8201168201806040525081019061220b919061453f565b9050600061221d878387873388613583565b6000898152601d602052604081208054929350909161223b906144e5565b80601f0160208091040260200160405190810160405280929190818152602001828054612267906144e5565b80156122b45780601f10612289576101008083540402835291602001916122b4565b820191906000526020600020905b81548152906001019060200180831161229757829003601f168201915b505050505090506122ea6040518060a001604052808b815260200185815260200183815260200184815260200187815250613607565b50506001805550505050505050565b600061230e64e8d4a5100061173985856133ec565b9392505050565b600054600160a060020a031633146123425760405160e560020a62461bcd028152600401611269906144b0565b600160a060020a03811661239b5760405160e560020a62461bcd02815260206004820152601060248201527f63616e6e6f7420626520302061646472000000000000000000000000000000006044820152606401611269565b601a8054600160a060020a031916600160a060020a0392909216919091179055565b602e60205282600052604060002060205281600052604060002081815481106123e557600080fd5b60009182526020909120600690910201805460018201546002830154600384015460048501546005909501549397509195509350919086565b6015818154811061131057600080fd5b600054600160a060020a0316331461245b5760405160e560020a62461bcd028152600401611269906144b0565b600e8054600160a060020a031916600160a060020a0392909216919091179055565b600054600160a060020a031633146124aa5760405160e560020a62461bcd028152600401611269906144b0565b600254600160a060020a03838116911614156125315760405160e560020a62461bcd02815260206004820152603560248201527f217361666520746f20757365205a6f72726f20746f6b656e20696e2066756e6360448201527f20696e43617365546f6b656e73476574537475636b00000000000000000000006064820152608401611269565b6119f8600160a060020a0383163383613281565b6040805160608082018352600080835260208301819052928201526000612570888888883389613583565b60255460008c8152602360205260408082205490517f0a5123690000000000000000000000000000000000000000000000000000000081529394509092600160a060020a0390921691630a512369916125db9161ffff909116906001908f9088908a906004016145b5565b6040805180830381865afa1580156125f7573d6000803e3d6000fd5b505050506040513d601f19601f8201168201806040525081019061261b9190614601565b509b9a5050505050505050505050565b600054600160a060020a031633146126585760405160e560020a62461bcd028152600401611269906144b0565b60108054600160a060020a031916600160a060020a0392909216919091179055565b600054600160a060020a031633146126a75760405160e560020a62461bcd028152600401611269906144b0565b60128054600160a060020a031916600160a060020a0392909216919091179055565b600054600160a060020a031633146126f65760405160e560020a62461bcd028152600401611269906144b0565b600b55565b600054600160a060020a031633146127285760405160e560020a62461bcd028152600401611269906144b0565b60148054600160a060020a031916600160a060020a0392909216919091179055565b600054600160a060020a031633146127775760405160e560020a62461bcd028152600401611269906144b0565b601b55565b600054600160a060020a031633146127a95760405160e560020a62461bcd028152600401611269906144b0565b600f8054600160a060020a031916600160a060020a0392909216919091179055565b600054600160a060020a031633146127f85760405160e560020a62461bcd028152600401611269906144b0565b600160a060020a0381166128775760405160e560020a62461bcd02815260206004820152602660248201527f4f776e61626c653a206e6577206f776e657220697320746865207a65726f206160448201527f64647265737300000000000000000000000000000000000000000000000000006064820152608401611269565b61288081613419565b50565b600054600160a060020a031633146128b05760405160e560020a62461bcd028152600401611269906144b0565b600555565b600054600160a060020a031633146128e25760405160e560020a62461bcd028152600401611269906144b0565b6000838152601d602052604090206128fb908383613d3a565b50505050565b6040517fdd62ed3e000000000000000000000000000000000000000000000000000000008152306004820152600160a060020a038381166024830152600091839186169063dd62ed3e90604401602060405180830381865afa15801561296b573d6000803e3d6000fd5b505050506040513d601f19601f8201168201806040525081019061298f919061453f565b6129999190614625565b604051600160a060020a0385166024820152604481018290529091506128fb9085907f095ea7b300000000000000000000000000000000000000000000000000000000906064015b60408051601f198184030181529190526020810180517bffffffffffffffffffffffffffffffffffffffffffffffffffffffff167bffffffffffffffffffffffffffffffffffffffffffffffffffffffff1990931692909217909152613707565b604051600160a060020a03808516602483015283166044820152606481018290526128fb9085907f23b872dd00000000000000000000000000000000000000000000000000000000906084016129e1565b600080602d8881548110612aa957612aa9614497565b9060005260206000209060060201905060008511612b0c5760405160e560020a62461bcd02815260206004820152601560248201527f5f77616e74416d74206d757374206265203e20302100000000000000000000006044820152606401611269565b612b15886116a7565b915086600160a060020a038116612bbc576000875111612ba05760405160e560020a62461bcd02815260206004820152602c60248201527f4e65697468657220666f726569676e2061636374206e6f72206c6f63616c206160448201527f6363742070726f766964656400000000000000000000000000000000000000006064820152608401611269565b612ba98761463d565b6c01000000000000000000000000900490505b6000602d8a81548110612bd157612bd1614497565b60009182526020909120600690910201600501546040517fba0bb4ab000000000000000000000000000000000000000000000000000000008152600160a060020a038481166004830152602482018a90529091169063ba0bb4ab906044016020604051808303816000875af1158015612c4e573d6000803e3d6000fd5b505050506040513d601f19601f82011682018060405250810190612c72919061453f565b601954600585015491925064e8d4a5100091600160a060020a03908116911614612ca257612c9f87611ef9565b90505b6000612cae83836122f9565b6004860154909150612cc09082613404565b60048601819055600090612cdd906117398464e8d4a510006133ec565b905060006040518060c00160405280848152602001858152602001612d1864e8d4a51000611739868c600301546133ec90919063ffffffff16565b81526020018b81526020018a815260200160008152509050612d3c8e878e846137ef565b8d8c604051612d4b9190614523565b604051809103902087600160a060020a03167fc6b1f1535b3bb3bdffa2f97a671ab7bd6f2512deec58103fa47eb40ed95274278e604051612d8e91815260200190565b60405180910390a4505050505050509695505050505050565b612dd26040518060800160405280600081526020016000815260200160008152602001600081525090565b600160a060020a038516158015612dea575060008451115b80612e075750600160a060020a03851615801590612e0757508351155b612e565760405160e560020a62461bcd02815260206004820152601d60248201527f4f6e6c79206f6e65206163636f756e74207479706520616c6c6f7765640000006044820152606401611269565b6000612e64878587896138de565b90506000602d8881548110612e7b57612e7b614497565b906000526020600020906006020190506000826000015111612ee25760405160e560020a62461bcd02815260206004820152601960248201527f7472616e6368652e636f6e747269627574696f6e2069732030000000000000006044820152606401611269565b6000816004015411612f395760405160e560020a62461bcd02815260206004820152601e60248201527f746f74616c5472616e636865436f6e747269627574696f6e73206973203000006044820152606401611269565b60a082015115612f8e5760405160e560020a62461bcd02815260206004820152601460248201527f416c726561647920657869746564207661756c740000000000000000000000006044820152606401611269565b612f97886116a7565b602084015260048101548251600091612fb9916117399064e8d4a510006133ec565b90506000612feb8460400151612fe564e8d4a510006117398760030154876133ec90919063ffffffff16565b906133e0565b90508015613072576000806130008684613a80565b91509150601c54601b541415613041578115613020576130208b83613b0c565b801561303c5760195461303c90600160a060020a031682613b0c565b61306f565b60035461306090600160a060020a031661305b8484613404565b613b0c565b60408701829052606087018190525b50505b8561327457602d8a8154811061308a5761308a614497565b600091825260209091206006909102016005015484516040517fe0ccabfa000000000000000000000000000000000000000000000000000000008152600160a060020a038c81166004830152602482019290925291169063e0ccabfa906044016020604051808303816000875af1158015613109573d6000803e3d6000fd5b505050506040513d601f19601f8201168201806040525081019061312d919061453f565b508351600484015461313e916133e0565b60048481019190915583546040517f70a082310000000000000000000000000000000000000000000000000000000081523092810192909252600160a060020a0316906370a0823190602401602060405180830381865afa1580156131a7573d6000803e3d6000fd5b505050506040513d601f19601f820116820180604052508101906131cb919061453f565b855260008a8152602e60209081526040808320600160a060020a038d168452909152902080544291908990811061320457613204614497565b90600052602060002090600602016005018190555089886040516132289190614523565b6040805191829003822088518b8452602084015291600160a060020a038d16917fa7749cd42821d3b82a6814af6d80712b2e43f98ec1b25aee31c8351855de65d9910160405180910390a45b5050505095945050505050565b604051600160a060020a0383166024820152604481018290526132ca9084907fa9059cbb00000000000000000000000000000000000000000000000000000000906064016129e1565b505050565b6000602d88815481106132e4576132e4614497565b60009182526020822060069190910201600501546040517fe502a88d0000000000000000000000000000000000000000000000000000000081526004810188905260248101859052600160a060020a039091169250829190829063e502a88d906044016020604051808303816000875af1158015613366573d6000803e3d6000fd5b505050506040513d601f19601f8201168201806040525081019061338a919061453f565b90506133c58382602d8d815481106133a4576133a4614497565b6000918252602090912060069091020154600160a060020a03169190612901565b6133d38a8a8a848a8a612a93565b5050505050505050505050565b600061230e8284614677565b600061230e828461468e565b600061230e82846146ad565b600061230e8284614625565b50505050505050565b60008054600160a060020a03838116600160a060020a0319831681178455604051919092169283917f8be0079c531659141344cd1fd0a4f28419497f9722a3daafe3b4186f6b6457e09190a35050565b6000806000806000602d898154811061348457613484614497565b60009182526020822060056006909202010154600160a060020a0316915081906134b18b8e8e8d8d612da7565b90506134cf838260000151602d8e815481106133a4576133a4614497565b80516040517f648794a4000000000000000000000000000000000000000000000000000000008152600481019190915260248101899052600160a060020a0383169063648794a4906044016020604051808303816000875af1158015613539573d6000803e3d6000fd5b505050506040513d601f19601f8201168201806040525081019061355d919061453f565b60208201516040830151606090930151919f909e50919c509a5098505050505050505050565b6040516060907f692d8b8b00000000000000000000000000000000000000000000000000000000906000906135c6908a908a908a908a908a908a906020016146d2565b604051602081830303815290604052905081816040516020016135ea92919061470c565b604051602081830303815290604052925050509695505050505050565b61362b60405180606001604052806000815260200160008152602001606081525090565b602554825160009081526023602090815260408083205460265487518552602784529190932054918601516080870151600160a060020a0390951694639fbf10fc94349461ffff9091169392909133919061368f906103e8906117399084906133ec565b898b604001518c606001516040518b63ffffffff167c01000000000000000000000000000000000000000000000000000000000281526004016136da99989796959493929190614751565b6000604051808303818588803b1580156136f357600080fd5b505af1158015613410573d6000803e3d6000fd5b600061375c826040518060400160405280602081526020017f5361666545524332303a206c6f772d6c6576656c2063616c6c206661696c656481525085600160a060020a0316613bbb9092919063ffffffff16565b8051909150156132ca578080602001905181019061377a91906147cf565b6132ca5760405160e560020a62461bcd02815260206004820152602a60248201527f5361666545524332303a204552433230206f7065726174696f6e20646964206e60448201527f6f742073756363656564000000000000000000000000000000000000000000006064820152608401611269565b6000848152602e60209081526040808320600160a060020a0387168452825280832080546001818101835591855293839020855160069095020193845591840151918301919091558201516002820155606082015160038201556080820151600482015560a08201516005909101558151156128fb5782602f6000868152602001908152602001600020836040516138879190614523565b908152602001604051809103902060006138a66001612fe58989611826565b815260200190815260200160002060006101000a815481600160a060020a030219169083600160a060020a0316021790555050505050565b6139176040518060c001604052806000815260200160008152602001600081526020016000815260200160008152602001600081525090565b600160a060020a0382166139b5576000858152602e60209081526040808320600160a060020a0386168452909152902080548590811061395957613959614497565b90600052602060002090600602016040518060c001604052908160008201548152602001600182015481526020016002820154815260200160038201548152602001600482015481526020016005820154815250509050613a78565b6000858152602f602052604080822090516139d1908690614523565b9081526040805160209281900383019020600088815290835281812054898252602e8452828220600160a060020a0390911680835293522080549192509086908110613a1f57613a1f614497565b90600052602060002090600602016040518060c001604052908160008201548152602001600182015481526020016002820154815260200160038201548152602001600482015481526020016005820154815250509150505b949350505050565b60008060008311613a9657506000905080613b05565b6000613ac442612fe5613ab962093a8089606001516133ec90919063ffffffff16565b608089015190613404565b90508015613aff576060850151613aec90613ae29062093a806133ec565b61173986846133ec565b9150613af884836133e0565b9250613b03565b8392505b505b9250929050565b6002546040517f70a082310000000000000000000000000000000000000000000000000000000081523060048201528291600091600160a060020a03909116906370a0823190602401602060405180830381865afa158015613b72573d6000803e3d6000fd5b505050506040513d601f19601f82011682018060405250810190613b96919061453f565b905080831115613ba4578091505b6002546128fb90600160a060020a03168584613281565b6060613a78848460008585600160a060020a0385163b613c205760405160e560020a62461bcd02815260206004820152601d60248201527f416464726573733a2063616c6c20746f206e6f6e2d636f6e74726163740000006044820152606401611269565b60008086600160a060020a03168587604051613c3c9190614523565b60006040518083038185875af1925050503d8060008114613c79576040519150601f19603f3d011682016040523d82523d6000602084013e613c7e565b606091505b5091509150613c8e828286613c99565b979650505050505050565b60608315613ca857508161230e565b825115613cb85782518084602001fd5b8160405160e560020a62461bcd0281526004016112699190614065565b828054828255906000526020600020908101928215613d2a579160200282015b82811115613d2a5782518254600160a060020a031916600160a060020a03909116178255602090920191600190910190613cf5565b50613d36929150613dae565b5090565b828054613d46906144e5565b90600052602060002090601f016020900481019282613d685760008555613d2a565b82601f10613d815782800160ff19823516178555613d2a565b82800160010185558215613d2a579182015b82811115613d2a578235825591602001919060010190613d93565b5b80821115613d365760008155600101613daf565b600080600060608486031215613dd857600080fd5b505081359360208301359350604090920135919050565b600060208284031215613e0157600080fd5b5035919050565b8035600160a060020a0381168114611fcd57600080fd5b600060208284031215613e3157600080fd5b61230e82613e08565b600060208284031215613e4c57600080fd5b813561ffff8116811461230e57600080fd5b60e060020a634e487b7102600052604160045260246000fd5b604051601f8201601f1916810167ffffffffffffffff81118282101715613ea057613ea0613e5e565b604052919050565b600082601f830112613eb957600080fd5b813567ffffffffffffffff811115613ed357613ed3613e5e565b613ee6601f8201601f1916602001613e77565b818152846020838601011115613efb57600080fd5b816020850160208301376000918101602001919091529392505050565b600080600060608486031215613f2d57600080fd5b83359250602084013567ffffffffffffffff811115613f4b57600080fd5b613f5786828701613ea8565b925050604084013590509250925092565b801515811461288057600080fd5b600080600060608486031215613f8b57600080fd5b83359250602084013591506040840135613fa481613f68565b809150509250925092565b60008060008060808587031215613fc557600080fd5b5050823594602084013594506040840135936060013592509050565b60008060408385031215613ff457600080fd5b8235915061400460208401613e08565b90509250929050565b60005b83811015614028578181015183820152602001614010565b838111156128fb5750506000910152565b6000815180845261405181602086016020860161400d565b601f01601f19169290920160200192915050565b60208152600061230e6020830184614039565b60006020828403121561408a57600080fd5b813567ffffffffffffffff8111156140a157600080fd5b613a7884828501613ea8565b600060208083850312156140c057600080fd5b823567ffffffffffffffff808211156140d857600080fd5b818501915085601f8301126140ec57600080fd5b8135818111156140fe576140fe613e5e565b838102915061410e848301613e77565b818152918301840191848101908884111561412857600080fd5b938501935b8385101561414d5761413e85613e08565b8252938501939085019061412d565b98975050505050505050565b60008060008060008060c0878903121561417257600080fd5b86359550602087013594506040870135935060608701359250608087013567ffffffffffffffff8111156141a557600080fd5b6141b189828a01613ea8565b9250506141c060a08801613e08565b90509295509295509295565b600080600080600060a086880312156141e457600080fd5b505083359560208501359550604085013594606081013594506080013592509050565b60006020828403121561421957600080fd5b813561230e81613f68565b6000806000806080858703121561423a57600080fd5b8435935060208501359250604085013561425381613f68565b9396929550929360600135925050565b60008060008060008060c0878903121561427c57600080fd5b863595506020870135945060408701359350606087013592506080870135915060a087013567ffffffffffffffff8111156142b657600080fd5b6142c289828a01613ea8565b9150509295509295509295565b600080604083850312156142e257600080fd5b50508035926020909101359150565b60008060006060848603121561430657600080fd5b8335925061431660208501613e08565b9150604084013590509250925092565b6000806040838503121561433957600080fd5b61434283613e08565b946020939093013593505050565b600080600080600080600060e0888a03121561436b57600080fd5b87359650602088013567ffffffffffffffff8082111561438a57600080fd5b6143968b838c01613ea8565b975060408a0135965060608a0135955060808a0135945060a08a0135935060c08a01359150808211156143c857600080fd5b506143d58a828b01613ea8565b91505092959891949750929550565b6000806000604084860312156143f957600080fd5b83359250602084013567ffffffffffffffff8082111561441857600080fd5b818601915086601f83011261442c57600080fd5b81358181111561443b57600080fd5b87602082850101111561444d57600080fd5b6020830194508093505050509250925092565b6020808252601f908201527f5265656e7472616e637947756172643a207265656e7472616e742063616c6c00604082015260600190565b60e060020a634e487b7102600052603260045260246000fd5b6020808252818101527f4f776e61626c653a2063616c6c6572206973206e6f7420746865206f776e6572604082015260600190565b6002810460018216806144f957607f821691505b6020821081141561451d5760e060020a634e487b7102600052602260045260246000fd5b50919050565b6000825161453581846020870161400d565b9190910192915050565b60006020828403121561455157600080fd5b5051919050565b60e060020a634e487b7102600052601160045260246000fd5b600060001982141561458557614585614558565b5060010190565b80518252602081015160208301526000604082015160606040850152613a786060850182614039565b61ffff8616815260ff8516602082015260a0604082015260006145db60a0830186614039565b82810360608401526145ed8186614039565b9050828103608084015261414d818561458c565b6000806040838503121561461457600080fd5b505080516020909101519092909150565b6000821982111561463857614638614558565b500190565b805160208201516bffffffffffffffffffffffff19808216929190601483101561181e5760149290920360080260020a8202161692915050565b60008282101561468957614689614558565b500390565b60008160001904831182151516156146a8576146a8614558565b500290565b6000826146cd5760e060020a634e487b7102600052601260045260246000fd5b500490565b868152856020820152846040820152836060820152600160a060020a038316608082015260c060a0820152600061414d60c0830184614039565b7bffffffffffffffffffffffffffffffffffffffffffffffffffffffff19831681526000825161474381600485016020870161400d565b919091016004019392505050565b600061012061ffff8c1683528a6020840152896040840152600160a060020a03891660608401528760808401528660a08401528060c08401526147968184018761458c565b905082810360e08401526147aa8186614039565b90508281036101008401526147bf8185614039565b9c9b505050505050505050505050565b6000602082840312156147e157600080fd5b815161230e81613f6856fea264697066735822122033933b64976c3c0149ff2524433920728e166023164857e0b1c7a5c31bf3328864736f6c634300080a0033",
  "immutableReferences": {},
  "source": "// SPDX-License-Identifier: MIT\n\npragma solidity ^0.8.0;\n\nimport \"./_ZorroControllerXChain.sol\";\n\n\ncontract ZorroControllerXChainDeposit is ZorroControllerXChain {\n    /* Libraries */\n    using SafeMath for uint256;\n    using SafeERC20 for IERC20;\n\n    /* Fees */ \n\n    /// @notice Checks to see how much a cross chain deposit will cost\n    /// @param _chainId The Zorro Chain ID (not the LayerZero one)\n    /// @param _dstContract The destination contract address on the remote chain\n    /// @param _pid The pool ID on the remote chain\n    /// @param _valueUSDC The amount of USDC to deposit\n    /// @param _weeksCommitted Number of weeks to commit to a vault\n    /// @param _maxMarketMovement Acceptable degree of slippage on any transaction (e.g. 950 = 5%, 990 = 1% etc.)\n    /// @param _destWallet A valid address on the remote chain that can claim ownership\n    /// @return uint256 Expected fee to pay for bridging/cross chain execution\n    function checkXChainDepositFee(\n        uint256 _chainId,\n        bytes memory _dstContract,\n        uint256 _pid,\n        uint256 _valueUSDC,\n        uint256 _weeksCommitted,\n        uint256 _maxMarketMovement,\n        bytes memory _destWallet\n    ) external view returns (uint256) {\n        // Init empty LZ object\n        IStargateRouter.lzTxObj memory _lzTxParams;\n\n        // Get payload\n        bytes memory _payload = _encodeXChainDepositPayload(\n            _pid,\n            _valueUSDC,\n            _weeksCommitted,\n            _maxMarketMovement,\n            msg.sender,\n            _destWallet\n        );\n\n        // Calculate native gas fee and ZRO token fee (Layer Zero token)\n        (uint256 _nativeFee,) = IStargateRouter(stargateRouter)\n            .quoteLayerZeroFee(\n                ZorroChainToLZMap[_chainId],\n                1,\n                _dstContract,\n                _payload,\n                _lzTxParams\n            );\n        return _nativeFee;\n    }\n\n    /* Payload encoding */\n\n    /// @notice Encodes payload for making cross chan deposit\n    /// @param _pid Pool ID on remote chain\n    /// @param _valueUSDC Amount in USDC to deposit\n    /// @param _weeksCommitted Number of weeks to commit deposit for in vault\n    /// @param _maxMarketMovement Slippage parameter (e.g. 950 = 5%, 990 = 1%, etc.)\n    /// @param _originWallet Wallet address on origin chain that will be depositing funds cross chain.\n    /// @param _destWallet Optional wallet address on destination chain that will be receiving deposit. If not provided, will use a truncated address based on the _originWallet\n    /// @return bytes ABI encoded payload\n    function _encodeXChainDepositPayload(\n        uint256 _pid,\n        uint256 _valueUSDC,\n        uint256 _weeksCommitted,\n        uint256 _maxMarketMovement,\n        address _originWallet,\n        bytes memory _destWallet\n    ) internal pure returns (bytes memory) {\n        // Calculate method signature\n        bytes4 _sig = this.receiveXChainDepositRequest.selector;\n        // Calculate abi encoded bytes for input args\n        bytes memory _inputs = abi.encode(\n            _pid,\n            _valueUSDC,\n            _weeksCommitted,\n            _maxMarketMovement,\n            _originWallet,\n            _destWallet\n        );\n        // Concatenate bytes of signature and inputs\n        return bytes.concat(_sig, _inputs);\n    }\n\n    /* Sending */\n\n    /// @notice Prepares and sends a cross chain deposit request. Takes care of necessary financial ops (transfer/locking USDC)\n    /// @dev Requires appropriate fee to be paid via msg.value (use checkXChainDepositFee() above)\n    /// @param _zorroChainId The Zorro Chain ID (not the LayerZero one)\n    /// @param _pid The pool ID on the remote chain\n    /// @param _valueUSDC The amount of USDC to deposit\n    /// @param _weeksCommitted Number of weeks to commit to a vault\n    /// @param _maxMarketMovement Acceptable degree of slippage on any transaction (e.g. 950 = 5%, 990 = 1% etc.)\n    /// @param _destWallet A valid address on the remote chain that can claim ownership\n    function sendXChainDepositRequest(\n        uint256 _zorroChainId,\n        uint256 _pid,\n        uint256 _valueUSDC,\n        uint256 _weeksCommitted,\n        uint256 _maxMarketMovement,\n        bytes memory _destWallet\n    ) external payable nonReentrant {\n        // Require funds to be submitted with this message\n        require(msg.value > 0, \"No fees submitted\");\n\n        // Allow this contract to spend USDC\n        IERC20(defaultStablecoin).safeIncreaseAllowance(\n            address(this),\n            _valueUSDC\n        );\n\n        // Transfer USDC into this contract\n        IERC20(defaultStablecoin).safeTransferFrom(\n            msg.sender,\n            address(this),\n            _valueUSDC\n        );\n\n        // Check balances\n        uint256 _balUSDC = IERC20(defaultStablecoin).balanceOf(address(this));\n\n        // Generate payload\n        bytes memory _payload = _encodeXChainDepositPayload(\n            _pid,\n            _balUSDC,\n            _weeksCommitted,\n            _maxMarketMovement,\n            msg.sender,\n            _destWallet\n        );\n\n        // Get the destination contract address on the remote chain\n        bytes memory _dstContract = controllerContractsMap[_zorroChainId];\n\n        // Call stargate to initiate bridge\n        _callStargateSwap(\n            StargateSwapPayload({\n                chainId: _zorroChainId,\n                qty: _balUSDC,\n                dstContract: _dstContract,\n                payload: _payload,\n                maxMarketMovement: _maxMarketMovement\n            })\n        );\n    }\n\n    /* Receiving */\n\n    /// @notice Dummy func to allow .selector call above and guarantee typesafety for abi calls.\n    /// @dev Should never ever be actually called.\n    function receiveXChainDepositRequest(\n        uint256 _pid,\n        uint256 _valueUSDC,\n        uint256 _weeksCommitted,\n        uint256 _maxMarketMovement,\n        bytes memory _originAccount,\n        address _destAccount\n    ) public {\n        // Revert to make sure this function never gets called\n        revert(\"illegal dummy func call\");\n\n        // But still include the function call here anyway to satisfy type safety requirements in case there is a change\n        _receiveXChainDepositRequest(\n            _pid,\n            _valueUSDC,\n            _weeksCommitted,\n            block.timestamp,\n            _maxMarketMovement,\n            _originAccount,\n            _destAccount\n        );\n    }\n\n    /// @notice Receives a cross chain deposit request from the contract layer of the XchainEndpoint contract\n    /// @dev For params, see _depositFullService() function declaration above\n    /// @param _pid The pool ID on the remote chain\n    /// @param _valueUSDC The amount of USDC to deposit\n    /// @param _weeksCommitted Number of weeks to commit to a vault\n    /// @param _maxMarketMovement Acceptable degree of slippage on any transaction (e.g. 950 = 5%, 990 = 1% etc.)\n    /// @param _originAccount The address on the origin chain to associate the deposit with (mandatory)\n    /// @param _destAccount The address on the current chain to additionally associate the deposit with (allows on-chain withdrawals of the deposit) (if not provided, will truncate origin address to uint160 i.e. Solidity address type)\n    function _receiveXChainDepositRequest(\n        uint256 _pid,\n        uint256 _valueUSDC,\n        uint256 _weeksCommitted,\n        uint256 _vaultEnteredAt,\n        uint256 _maxMarketMovement,\n        bytes memory _originAccount,\n        address _destAccount\n    ) internal {\n        // Call deposit function\n        _depositFullService(\n            _pid,\n            _destAccount,\n            _originAccount,\n            _valueUSDC,\n            _weeksCommitted,\n            _vaultEnteredAt,\n            _maxMarketMovement\n        );\n    }\n}",
  "sourcePath": "/Users/kristophm/Documents/workspace/zorro-protocol/contracts/controllers/_ZorroControllerXChainDeposit.sol",
  "compiler": {
    "name": "solc",
    "version": "0.8.10+commit.fc410830.Emscripten.clang"
  },
  "schemaVersion": "3.4.4",
  "updatedAt": "2022-04-05T11:49:13.743Z",
  "devdoc": {
    "kind": "dev",
    "methods": {
      "checkXChainDepositFee(uint256,bytes,uint256,uint256,uint256,uint256,bytes)": {
        "params": {
          "_chainId": "The Zorro Chain ID (not the LayerZero one)",
          "_destWallet": "A valid address on the remote chain that can claim ownership",
          "_dstContract": "The destination contract address on the remote chain",
          "_maxMarketMovement": "Acceptable degree of slippage on any transaction (e.g. 950 = 5%, 990 = 1% etc.)",
          "_pid": "The pool ID on the remote chain",
          "_valueUSDC": "The amount of USDC to deposit",
          "_weeksCommitted": "Number of weeks to commit to a vault"
        },
        "returns": {
          "_0": "uint256 Expected fee to pay for bridging/cross chain execution"
        }
      },
      "deposit(uint256,uint256,uint256)": {
        "params": {
          "_pid": "index of pool",
          "_wantAmt": "how much Want token to deposit",
          "_weeksCommitted": "how many weeks the user is committing to on this vault"
        }
      },
      "depositFullService(uint256,uint256,uint256,uint256)": {
        "params": {
          "_maxMarketMovement": "factor to account for max market movement/slippage. The definition varies by Vault, so consult the associated Vault contract for info",
          "_pid": "index of pool to deposit into",
          "_valueUSDC": "value in USDC (in ether units) to deposit",
          "_weeksCommitted": "how many weeks to commit to the Pool (can be 0 or any uint)"
        }
      },
      "getTimeMultiplier(uint256)": {
        "params": {
          "durationInWeeks": "number of weeks committed into Vault"
        },
        "returns": {
          "_0": "multiplier factor, times 1e12"
        }
      },
      "getUserContribution(uint256,uint256)": {
        "params": {
          "_liquidityCommitted": "How many tokens staked (e.g. LP tokens)",
          "_timeMultiplier": "Time multiplier value (from getTimeMultiplier())"
        },
        "returns": {
          "_0": "The relative contribution of the user (unitless)"
        }
      },
      "inCaseTokensGetStuck(address,uint256)": {
        "details": "Does not permit usage for the Zorro token",
        "params": {
          "_amount": "token quantity",
          "_token": "ERC20 token address"
        }
      },
      "owner()": {
        "details": "Returns the address of the current owner."
      },
      "poolLength()": {
        "returns": {
          "_0": "Number of pools"
        }
      },
      "receiveXChainDepositRequest(uint256,uint256,uint256,uint256,bytes,address)": {
        "details": "Should never ever be actually called."
      },
      "renounceOwnership()": {
        "details": "Leaves the contract without owner. It will not be possible to call `onlyOwner` functions anymore. Can only be called by the current owner. NOTE: Renouncing ownership will leave the contract without an owner, thereby removing any functionality that is only available to the owner."
      },
      "sendXChainDepositRequest(uint256,uint256,uint256,uint256,uint256,bytes)": {
        "details": "Requires appropriate fee to be paid via msg.value (use checkXChainDepositFee() above)",
        "params": {
          "_destWallet": "A valid address on the remote chain that can claim ownership",
          "_maxMarketMovement": "Acceptable degree of slippage on any transaction (e.g. 950 = 5%, 990 = 1% etc.)",
          "_pid": "The pool ID on the remote chain",
          "_valueUSDC": "The amount of USDC to deposit",
          "_weeksCommitted": "Number of weeks to commit to a vault",
          "_zorroChainId": "The Zorro Chain ID (not the LayerZero one)"
        }
      },
      "setZorroPerBlock(uint256,uint256,uint256,uint256,uint256)": {
        "details": "Values to be provided by Oracle. Perferable to run daily",
        "params": {
          "_ZorroTotalVaultTVLUSD": "USD value of all TVL locked into the Zorro protocol, across all chains",
          "_publicPoolZORBalance": "Number of ZOR tokens remaining in public pool on home chain",
          "_targetTVLCaptureBasisPoints": "% desired capture of total market TVL, measured in basis points",
          "_totalChainMultipliers": "Sum total of all chain multipliers for each chain",
          "_totalMarketTVLUSD": "Total DeFi market TVL across all chains (measured in USD)"
        }
      },
      "trancheLength(uint256,address)": {
        "params": {
          "_pid": "Index of pool",
          "_user": "wallet address of user"
        },
        "returns": {
          "_0": "Number of tranches"
        }
      },
      "transferInvestment(uint256,uint256,uint256,uint256)": {
        "params": {
          "_fromPid": "index of pool FROM",
          "_fromTrancheId": "index of tranche FROM",
          "_maxMarketMovement": "factor to account for max market movement/slippage. The definition varies by Vault, so consult the associated Vault contract for info",
          "_toPid": "index of pool TO"
        }
      },
      "transferOwnership(address)": {
        "details": "Transfers ownership of the contract to a new account (`newOwner`). Can only be called by the current owner."
      },
      "updatePool(uint256)": {
        "params": {
          "_pid": "index of pool"
        },
        "returns": {
          "_0": "uint256 Amount of ZOR rewards minted (useful for cross chain)"
        }
      },
      "withdraw(uint256,uint256,bool)": {
        "params": {
          "_harvestOnly": "If true, will only harvest Zorro tokens but not do a withdrawal",
          "_pid": "index of pool",
          "_trancheId": "index of tranche"
        },
        "returns": {
          "_0": "Amount of Want token withdrawn"
        }
      },
      "withdrawAll(uint256)": {
        "params": {
          "_pid": "index of pool"
        }
      },
      "withdrawalFullService(uint256,uint256,bool,uint256)": {
        "params": {
          "_harvestOnly": "If true, will only harvest Zorro tokens but not do a withdrawal",
          "_maxMarketMovement": "factor to account for max market movement/slippage. The definition varies by Vault, so consult the associated Vault contract for info",
          "_pid": "index of pool to deposit into",
          "_trancheId": "index of tranche"
        },
        "returns": {
          "_0": "Amount (in USDC) returned"
        }
      }
    },
    "version": 1
  },
  "userdoc": {
    "kind": "user",
    "methods": {
      "checkXChainDepositFee(uint256,bytes,uint256,uint256,uint256,uint256,bytes)": {
        "notice": "Checks to see how much a cross chain deposit will cost"
      },
      "deposit(uint256,uint256,uint256)": {
        "notice": "Deposit Want tokens to associated Vault"
      },
      "depositFullService(uint256,uint256,uint256,uint256)": {
        "notice": "Deposits funds in a full service manner (performs autoswaps and obtains Want tokens)"
      },
      "getTimeMultiplier(uint256)": {
        "notice": "Calculate time multiplier based on duration committed"
      },
      "getUserContribution(uint256,uint256)": {
        "notice": "The contribution of the user, meant to be used in rewards allocations"
      },
      "inCaseTokensGetStuck(address,uint256)": {
        "notice": "For owner to recover ERC20 tokens on this contract if stuck"
      },
      "poolLength()": {
        "notice": "Number of pools in the Zorro protocol"
      },
      "receiveXChainDepositRequest(uint256,uint256,uint256,uint256,bytes,address)": {
        "notice": "Dummy func to allow .selector call above and guarantee typesafety for abi calls."
      },
      "sendXChainDepositRequest(uint256,uint256,uint256,uint256,uint256,bytes)": {
        "notice": "Prepares and sends a cross chain deposit request. Takes care of necessary financial ops (transfer/locking USDC)"
      },
      "setZorroPerBlock(uint256,uint256,uint256,uint256,uint256)": {
        "notice": "Set the number of Zorro to emit per block based on current market parameters"
      },
      "trancheLength(uint256,address)": {
        "notice": "Number of tranches invested by a given user into a given pool"
      },
      "transferInvestment(uint256,uint256,uint256,uint256)": {
        "notice": "Transfer all assets from a tranche in one vault to a new vault (works on-chain only)"
      },
      "updatePool(uint256)": {
        "notice": "Update reward variables of the given pool to be up-to-date."
      },
      "withdraw(uint256,uint256,bool)": {
        "notice": "Fully withdraw Want tokens from underlying Vault."
      },
      "withdrawAll(uint256)": {
        "notice": "Withdraw the maximum number of Want tokens from a pool"
      },
      "withdrawalFullService(uint256,uint256,bool,uint256)": {
        "notice": "Withdraws funds from a pool and converts the Want token into USDC"
      }
    },
    "version": 1
  }
}