{
  "contractName": "ZorroControllerXChain",
  "abi": [
    {
      "anonymous": false,
      "inputs": [
        {
          "indexed": true,
          "internalType": "address",
          "name": "previousOwner",
          "type": "address"
        },
        {
          "indexed": true,
          "internalType": "address",
          "name": "newOwner",
          "type": "address"
        }
      ],
      "name": "OwnershipTransferred",
      "type": "event"
    },
    {
      "anonymous": false,
      "inputs": [
        {
          "indexed": true,
          "internalType": "uint256",
          "name": "_amountZOR",
          "type": "uint256"
        }
      ],
      "name": "RemovedSlashedRewards",
      "type": "event"
    },
    {
      "anonymous": false,
      "inputs": [
        {
          "indexed": true,
          "internalType": "uint256",
          "name": "_remoteChainId",
          "type": "uint256"
        },
        {
          "indexed": true,
          "internalType": "uint256",
          "name": "_buybackAmountUSDC",
          "type": "uint256"
        },
        {
          "indexed": true,
          "internalType": "uint256",
          "name": "_revShareAmountUSDC",
          "type": "uint256"
        }
      ],
      "name": "XChainDistributeEarnings",
      "type": "event"
    },
    {
      "anonymous": false,
      "inputs": [
        {
          "indexed": true,
          "internalType": "uint256",
          "name": "_pid",
          "type": "uint256"
        },
        {
          "indexed": true,
          "internalType": "address",
          "name": "_originRecipient",
          "type": "address"
        },
        {
          "indexed": true,
          "internalType": "uint256",
          "name": "_burnableZORRewards",
          "type": "uint256"
        },
        {
          "indexed": false,
          "internalType": "uint256",
          "name": "_trancheId",
          "type": "uint256"
        },
        {
          "indexed": false,
          "internalType": "uint256",
          "name": "_originChainId",
          "type": "uint256"
        }
      ],
      "name": "XChainRepatriation",
      "type": "event"
    },
    {
      "inputs": [
        {
          "internalType": "uint16",
          "name": "",
          "type": "uint16"
        }
      ],
      "name": "LZChainToZorroMap",
      "outputs": [
        {
          "internalType": "uint256",
          "name": "",
          "type": "uint256"
        }
      ],
      "stateMutability": "view",
      "type": "function"
    },
    {
      "inputs": [
        {
          "internalType": "uint256",
          "name": "",
          "type": "uint256"
        }
      ],
      "name": "USDCToZorroLPPoolOtherTokenPath",
      "outputs": [
        {
          "internalType": "address",
          "name": "",
          "type": "address"
        }
      ],
      "stateMutability": "view",
      "type": "function"
    },
    {
      "inputs": [
        {
          "internalType": "uint256",
          "name": "",
          "type": "uint256"
        }
      ],
      "name": "USDCToZorroPath",
      "outputs": [
        {
          "internalType": "address",
          "name": "",
          "type": "address"
        }
      ],
      "stateMutability": "view",
      "type": "function"
    },
    {
      "inputs": [],
      "name": "ZORRO",
      "outputs": [
        {
          "internalType": "address",
          "name": "",
          "type": "address"
        }
      ],
      "stateMutability": "view",
      "type": "function"
    },
    {
      "inputs": [
        {
          "internalType": "uint256",
          "name": "",
          "type": "uint256"
        }
      ],
      "name": "ZorroChainToLZMap",
      "outputs": [
        {
          "internalType": "uint16",
          "name": "",
          "type": "uint16"
        }
      ],
      "stateMutability": "view",
      "type": "function"
    },
    {
      "inputs": [],
      "name": "accumulatedSlashedRewards",
      "outputs": [
        {
          "internalType": "uint256",
          "name": "",
          "type": "uint256"
        }
      ],
      "stateMutability": "view",
      "type": "function"
    },
    {
      "inputs": [],
      "name": "burnAddress",
      "outputs": [
        {
          "internalType": "address",
          "name": "",
          "type": "address"
        }
      ],
      "stateMutability": "view",
      "type": "function"
    },
    {
      "inputs": [
        {
          "internalType": "uint256",
          "name": "_chainId",
          "type": "uint256"
        },
        {
          "internalType": "bytes",
          "name": "_dstContract",
          "type": "bytes"
        },
        {
          "internalType": "uint256",
          "name": "_pid",
          "type": "uint256"
        },
        {
          "internalType": "uint256",
          "name": "_valueUSDC",
          "type": "uint256"
        },
        {
          "internalType": "uint256",
          "name": "_weeksCommitted",
          "type": "uint256"
        },
        {
          "internalType": "uint256",
          "name": "_maxMarketMovement",
          "type": "uint256"
        },
        {
          "internalType": "bytes",
          "name": "_destWallet",
          "type": "bytes"
        }
      ],
      "name": "checkXChainDepositFee",
      "outputs": [
        {
          "internalType": "uint256",
          "name": "",
          "type": "uint256"
        }
      ],
      "stateMutability": "view",
      "type": "function"
    },
    {
      "inputs": [
        {
          "internalType": "uint256",
          "name": "_amountUSDCBuyback",
          "type": "uint256"
        },
        {
          "internalType": "uint256",
          "name": "_amountUSDCRevShare",
          "type": "uint256"
        },
        {
          "internalType": "uint256",
          "name": "_accSlashedRewards",
          "type": "uint256"
        },
        {
          "internalType": "uint256",
          "name": "_maxMarketMovement",
          "type": "uint256"
        }
      ],
      "name": "checkXChainDistributeEarningsFee",
      "outputs": [
        {
          "internalType": "uint256",
          "name": "",
          "type": "uint256"
        }
      ],
      "stateMutability": "view",
      "type": "function"
    },
    {
      "inputs": [
        {
          "internalType": "uint256",
          "name": "_originChainId",
          "type": "uint256"
        },
        {
          "internalType": "uint256",
          "name": "_pid",
          "type": "uint256"
        },
        {
          "internalType": "uint256",
          "name": "_trancheId",
          "type": "uint256"
        },
        {
          "internalType": "bytes",
          "name": "_originRecipient",
          "type": "bytes"
        },
        {
          "internalType": "uint256",
          "name": "_burnableZORRewards",
          "type": "uint256"
        },
        {
          "internalType": "uint256",
          "name": "_rewardsDue",
          "type": "uint256"
        },
        {
          "internalType": "uint256",
          "name": "_gasForDestinationLZReceive",
          "type": "uint256"
        }
      ],
      "name": "checkXChainRepatriationFee",
      "outputs": [
        {
          "internalType": "uint256",
          "name": "",
          "type": "uint256"
        }
      ],
      "stateMutability": "view",
      "type": "function"
    },
    {
      "inputs": [
        {
          "internalType": "uint256",
          "name": "_zorroChainId",
          "type": "uint256"
        },
        {
          "internalType": "uint256",
          "name": "_pid",
          "type": "uint256"
        },
        {
          "internalType": "uint256",
          "name": "_trancheId",
          "type": "uint256"
        },
        {
          "internalType": "uint256",
          "name": "_maxMarketMovement",
          "type": "uint256"
        },
        {
          "internalType": "uint256",
          "name": "_gasForDestinationLZReceive",
          "type": "uint256"
        }
      ],
      "name": "checkXChainWithdrawalFee",
      "outputs": [
        {
          "internalType": "uint256",
          "name": "",
          "type": "uint256"
        }
      ],
      "stateMutability": "view",
      "type": "function"
    },
    {
      "inputs": [
        {
          "internalType": "uint256",
          "name": "",
          "type": "uint256"
        }
      ],
      "name": "controllerContractsMap",
      "outputs": [
        {
          "internalType": "bytes",
          "name": "",
          "type": "bytes"
        }
      ],
      "stateMutability": "view",
      "type": "function"
    },
    {
      "inputs": [],
      "name": "currentChainController",
      "outputs": [
        {
          "internalType": "address",
          "name": "",
          "type": "address"
        }
      ],
      "stateMutability": "view",
      "type": "function"
    },
    {
      "inputs": [],
      "name": "defaultStablecoin",
      "outputs": [
        {
          "internalType": "address",
          "name": "",
          "type": "address"
        }
      ],
      "stateMutability": "view",
      "type": "function"
    },
    {
      "inputs": [],
      "name": "homeChainZorroController",
      "outputs": [
        {
          "internalType": "address",
          "name": "",
          "type": "address"
        }
      ],
      "stateMutability": "view",
      "type": "function"
    },
    {
      "inputs": [],
      "name": "layerZeroEndpoint",
      "outputs": [
        {
          "internalType": "address",
          "name": "",
          "type": "address"
        }
      ],
      "stateMutability": "view",
      "type": "function"
    },
    {
      "inputs": [
        {
          "internalType": "uint16",
          "name": "_srcChainId",
          "type": "uint16"
        },
        {
          "internalType": "bytes",
          "name": "_srcAddress",
          "type": "bytes"
        },
        {
          "internalType": "uint64",
          "name": "_nonce",
          "type": "uint64"
        },
        {
          "internalType": "bytes",
          "name": "_payload",
          "type": "bytes"
        }
      ],
      "name": "lzReceive",
      "outputs": [],
      "stateMutability": "nonpayable",
      "type": "function"
    },
    {
      "inputs": [],
      "name": "owner",
      "outputs": [
        {
          "internalType": "address",
          "name": "",
          "type": "address"
        }
      ],
      "stateMutability": "view",
      "type": "function"
    },
    {
      "inputs": [],
      "name": "priceFeedLPPoolOtherToken",
      "outputs": [
        {
          "internalType": "contract AggregatorV3Interface",
          "name": "",
          "type": "address"
        }
      ],
      "stateMutability": "view",
      "type": "function"
    },
    {
      "inputs": [],
      "name": "priceFeedZOR",
      "outputs": [
        {
          "internalType": "contract AggregatorV3Interface",
          "name": "",
          "type": "address"
        }
      ],
      "stateMutability": "view",
      "type": "function"
    },
    {
      "inputs": [],
      "name": "publicPool",
      "outputs": [
        {
          "internalType": "address",
          "name": "",
          "type": "address"
        }
      ],
      "stateMutability": "view",
      "type": "function"
    },
    {
      "inputs": [
        {
          "internalType": "uint256",
          "name": "_pid",
          "type": "uint256"
        },
        {
          "internalType": "uint256",
          "name": "_valueUSDC",
          "type": "uint256"
        },
        {
          "internalType": "uint256",
          "name": "_weeksCommitted",
          "type": "uint256"
        },
        {
          "internalType": "uint256",
          "name": "_maxMarketMovement",
          "type": "uint256"
        },
        {
          "internalType": "bytes",
          "name": "_originAccount",
          "type": "bytes"
        },
        {
          "internalType": "address",
          "name": "_destAccount",
          "type": "address"
        }
      ],
      "name": "receiveXChainDepositRequest",
      "outputs": [],
      "stateMutability": "nonpayable",
      "type": "function"
    },
    {
      "inputs": [
        {
          "internalType": "uint256",
          "name": "_remoteChainId",
          "type": "uint256"
        },
        {
          "internalType": "uint256",
          "name": "_amountUSDCBuyback",
          "type": "uint256"
        },
        {
          "internalType": "uint256",
          "name": "_amountUSDCRevShare",
          "type": "uint256"
        },
        {
          "internalType": "uint256",
          "name": "_accSlashedRewards",
          "type": "uint256"
        },
        {
          "internalType": "uint256",
          "name": "_maxMarketMovement",
          "type": "uint256"
        }
      ],
      "name": "receiveXChainDistributionRequest",
      "outputs": [],
      "stateMutability": "nonpayable",
      "type": "function"
    },
    {
      "inputs": [
        {
          "internalType": "uint256",
          "name": "_originChainId",
          "type": "uint256"
        },
        {
          "internalType": "uint256",
          "name": "_pid",
          "type": "uint256"
        },
        {
          "internalType": "uint256",
          "name": "_trancheId",
          "type": "uint256"
        },
        {
          "internalType": "bytes",
          "name": "_originRecipient",
          "type": "bytes"
        },
        {
          "internalType": "uint256",
          "name": "_burnableZORRewards",
          "type": "uint256"
        },
        {
          "internalType": "uint256",
          "name": "_rewardsDue",
          "type": "uint256"
        }
      ],
      "name": "receiveXChainRepatriationRequest",
      "outputs": [],
      "stateMutability": "nonpayable",
      "type": "function"
    },
    {
      "inputs": [
        {
          "internalType": "uint256",
          "name": "_originChainId",
          "type": "uint256"
        },
        {
          "internalType": "bytes",
          "name": "_originAccount",
          "type": "bytes"
        },
        {
          "internalType": "uint256",
          "name": "_pid",
          "type": "uint256"
        },
        {
          "internalType": "uint256",
          "name": "_trancheId",
          "type": "uint256"
        },
        {
          "internalType": "uint256",
          "name": "_maxMarketMovement",
          "type": "uint256"
        }
      ],
      "name": "receiveXChainWithdrawalRequest",
      "outputs": [],
      "stateMutability": "nonpayable",
      "type": "function"
    },
    {
      "inputs": [],
      "name": "renounceOwnership",
      "outputs": [],
      "stateMutability": "nonpayable",
      "type": "function"
    },
    {
      "inputs": [
        {
          "internalType": "uint256",
          "name": "_zorroChainId",
          "type": "uint256"
        },
        {
          "internalType": "uint256",
          "name": "_pid",
          "type": "uint256"
        },
        {
          "internalType": "uint256",
          "name": "_valueUSDC",
          "type": "uint256"
        },
        {
          "internalType": "uint256",
          "name": "_weeksCommitted",
          "type": "uint256"
        },
        {
          "internalType": "uint256",
          "name": "_maxMarketMovement",
          "type": "uint256"
        },
        {
          "internalType": "bytes",
          "name": "_destWallet",
          "type": "bytes"
        }
      ],
      "name": "sendXChainDepositRequest",
      "outputs": [],
      "stateMutability": "payable",
      "type": "function"
    },
    {
      "inputs": [
        {
          "internalType": "uint256",
          "name": "_pid",
          "type": "uint256"
        },
        {
          "internalType": "uint256",
          "name": "_buybackAmountUSDC",
          "type": "uint256"
        },
        {
          "internalType": "uint256",
          "name": "_revShareAmountUSDC",
          "type": "uint256"
        },
        {
          "internalType": "uint256",
          "name": "_maxMarketMovement",
          "type": "uint256"
        }
      ],
      "name": "sendXChainDistributeEarningsRequest",
      "outputs": [],
      "stateMutability": "payable",
      "type": "function"
    },
    {
      "inputs": [
        {
          "internalType": "uint256",
          "name": "_destZorroChainId",
          "type": "uint256"
        },
        {
          "internalType": "uint256",
          "name": "_pid",
          "type": "uint256"
        },
        {
          "internalType": "uint256",
          "name": "_trancheId",
          "type": "uint256"
        },
        {
          "internalType": "uint256",
          "name": "_maxMarketMovement",
          "type": "uint256"
        },
        {
          "internalType": "uint256",
          "name": "_gasForDestinationLZReceive",
          "type": "uint256"
        }
      ],
      "name": "sendXChainWithdrawalRequest",
      "outputs": [],
      "stateMutability": "payable",
      "type": "function"
    },
    {
      "inputs": [
        {
          "internalType": "uint256[]",
          "name": "_chainIds",
          "type": "uint256[]"
        }
      ],
      "name": "setChains",
      "outputs": [],
      "stateMutability": "nonpayable",
      "type": "function"
    },
    {
      "inputs": [
        {
          "internalType": "uint256",
          "name": "_zorroChainId",
          "type": "uint256"
        },
        {
          "internalType": "bytes",
          "name": "_controller",
          "type": "bytes"
        }
      ],
      "name": "setControllerContract",
      "outputs": [],
      "stateMutability": "nonpayable",
      "type": "function"
    },
    {
      "inputs": [
        {
          "internalType": "address[]",
          "name": "_contracts",
          "type": "address[]"
        }
      ],
      "name": "setKeyContracts",
      "outputs": [],
      "stateMutability": "nonpayable",
      "type": "function"
    },
    {
      "inputs": [
        {
          "internalType": "address",
          "name": "_stargateRouter",
          "type": "address"
        },
        {
          "internalType": "uint256",
          "name": "_stargateSwapPoolId",
          "type": "uint256"
        },
        {
          "internalType": "address",
          "name": "_layerZeroEndpoint",
          "type": "address"
        }
      ],
      "name": "setLayerZeroParams",
      "outputs": [],
      "stateMutability": "nonpayable",
      "type": "function"
    },
    {
      "inputs": [
        {
          "internalType": "address[]",
          "name": "_priceFeeds",
          "type": "address[]"
        }
      ],
      "name": "setPriceFeeds",
      "outputs": [],
      "stateMutability": "nonpayable",
      "type": "function"
    },
    {
      "inputs": [
        {
          "internalType": "uint256",
          "name": "_zorroChainId",
          "type": "uint256"
        },
        {
          "internalType": "uint16",
          "name": "_stargatePoolId",
          "type": "uint16"
        }
      ],
      "name": "setStargateDestPoolIds",
      "outputs": [],
      "stateMutability": "nonpayable",
      "type": "function"
    },
    {
      "inputs": [
        {
          "internalType": "address[]",
          "name": "_USDCToZorroPath",
          "type": "address[]"
        },
        {
          "internalType": "address[]",
          "name": "_USDCToZorroLPPoolOtherTokenPath",
          "type": "address[]"
        }
      ],
      "name": "setSwapPaths",
      "outputs": [],
      "stateMutability": "nonpayable",
      "type": "function"
    },
    {
      "inputs": [
        {
          "internalType": "address",
          "name": "_token",
          "type": "address"
        }
      ],
      "name": "setTokenUSDC",
      "outputs": [],
      "stateMutability": "nonpayable",
      "type": "function"
    },
    {
      "inputs": [
        {
          "internalType": "address[]",
          "name": "_tokens",
          "type": "address[]"
        }
      ],
      "name": "setTokens",
      "outputs": [],
      "stateMutability": "nonpayable",
      "type": "function"
    },
    {
      "inputs": [
        {
          "internalType": "address",
          "name": "_contract",
          "type": "address"
        }
      ],
      "name": "setUniRouterAddress",
      "outputs": [],
      "stateMutability": "nonpayable",
      "type": "function"
    },
    {
      "inputs": [
        {
          "internalType": "uint256",
          "name": "_zorroChainId",
          "type": "uint256"
        },
        {
          "internalType": "uint16",
          "name": "_lzChainId",
          "type": "uint16"
        }
      ],
      "name": "setZorroChainToLZMap",
      "outputs": [],
      "stateMutability": "nonpayable",
      "type": "function"
    },
    {
      "inputs": [
        {
          "internalType": "address",
          "name": "_token",
          "type": "address"
        }
      ],
      "name": "setZorroLPPoolOtherToken",
      "outputs": [],
      "stateMutability": "nonpayable",
      "type": "function"
    },
    {
      "inputs": [
        {
          "internalType": "address",
          "name": "_contract",
          "type": "address"
        }
      ],
      "name": "setZorroStakingVault",
      "outputs": [],
      "stateMutability": "nonpayable",
      "type": "function"
    },
    {
      "inputs": [
        {
          "internalType": "uint16",
          "name": "_chainId",
          "type": "uint16"
        },
        {
          "internalType": "bytes",
          "name": "_srcAddress",
          "type": "bytes"
        },
        {
          "internalType": "uint256",
          "name": "_nonce",
          "type": "uint256"
        },
        {
          "internalType": "address",
          "name": "_token",
          "type": "address"
        },
        {
          "internalType": "uint256",
          "name": "amountLD",
          "type": "uint256"
        },
        {
          "internalType": "bytes",
          "name": "payload",
          "type": "bytes"
        }
      ],
      "name": "sgReceive",
      "outputs": [],
      "stateMutability": "nonpayable",
      "type": "function"
    },
    {
      "inputs": [
        {
          "internalType": "uint256",
          "name": "",
          "type": "uint256"
        }
      ],
      "name": "stargateDestPoolIds",
      "outputs": [
        {
          "internalType": "uint256",
          "name": "",
          "type": "uint256"
        }
      ],
      "stateMutability": "view",
      "type": "function"
    },
    {
      "inputs": [],
      "name": "stargateRouter",
      "outputs": [
        {
          "internalType": "address",
          "name": "",
          "type": "address"
        }
      ],
      "stateMutability": "view",
      "type": "function"
    },
    {
      "inputs": [],
      "name": "stargateSwapPoolId",
      "outputs": [
        {
          "internalType": "uint256",
          "name": "",
          "type": "uint256"
        }
      ],
      "stateMutability": "view",
      "type": "function"
    },
    {
      "inputs": [],
      "name": "tokenUSDC",
      "outputs": [
        {
          "internalType": "address",
          "name": "",
          "type": "address"
        }
      ],
      "stateMutability": "view",
      "type": "function"
    },
    {
      "inputs": [
        {
          "internalType": "address",
          "name": "newOwner",
          "type": "address"
        }
      ],
      "name": "transferOwnership",
      "outputs": [],
      "stateMutability": "nonpayable",
      "type": "function"
    },
    {
      "inputs": [],
      "name": "uniRouterAddress",
      "outputs": [
        {
          "internalType": "address",
          "name": "",
          "type": "address"
        }
      ],
      "stateMutability": "view",
      "type": "function"
    },
    {
      "inputs": [],
      "name": "zorroLPPoolOtherToken",
      "outputs": [
        {
          "internalType": "address",
          "name": "",
          "type": "address"
        }
      ],
      "stateMutability": "view",
      "type": "function"
    },
    {
      "inputs": [],
      "name": "zorroStakingVault",
      "outputs": [
        {
          "internalType": "address",
          "name": "",
          "type": "address"
        }
      ],
      "stateMutability": "view",
      "type": "function"
    },
    {
      "inputs": [
        {
          "internalType": "address",
          "name": "_timelockOwner",
          "type": "address"
        },
        {
          "components": [
            {
              "internalType": "address",
              "name": "defaultStablecoin",
              "type": "address"
            },
            {
              "internalType": "address",
              "name": "ZORRO",
              "type": "address"
            },
            {
              "internalType": "address",
              "name": "tokenUSDC",
              "type": "address"
            },
            {
              "internalType": "address",
              "name": "zorroLPPoolOtherToken",
              "type": "address"
            },
            {
              "internalType": "address",
              "name": "zorroStakingVault",
              "type": "address"
            },
            {
              "internalType": "address",
              "name": "uniRouterAddress",
              "type": "address"
            },
            {
              "internalType": "address",
              "name": "homeChainZorroController",
              "type": "address"
            },
            {
              "internalType": "address",
              "name": "currentChainController",
              "type": "address"
            },
            {
              "internalType": "address",
              "name": "publicPool",
              "type": "address"
            },
            {
              "components": [
                {
                  "internalType": "uint256",
                  "name": "chainId",
                  "type": "uint256"
                },
                {
                  "internalType": "uint256",
                  "name": "homeChainId",
                  "type": "uint256"
                },
                {
                  "internalType": "uint256[]",
                  "name": "ZorroChainIDs",
                  "type": "uint256[]"
                },
                {
                  "internalType": "bytes[]",
                  "name": "controllerContracts",
                  "type": "bytes[]"
                },
                {
                  "internalType": "uint16[]",
                  "name": "LZChainIDs",
                  "type": "uint16[]"
                },
                {
                  "internalType": "uint256[]",
                  "name": "stargateDestPoolIds",
                  "type": "uint256[]"
                },
                {
                  "internalType": "address",
                  "name": "stargateRouter",
                  "type": "address"
                },
                {
                  "internalType": "address",
                  "name": "layerZeroEndpoint",
                  "type": "address"
                },
                {
                  "internalType": "uint256",
                  "name": "stargateSwapPoolId",
                  "type": "uint256"
                }
              ],
              "internalType": "struct ZorroControllerXChain.ZorroControllerXChainBridgeParams",
              "name": "bridge",
              "type": "tuple"
            },
            {
              "components": [
                {
                  "internalType": "address[]",
                  "name": "USDCToZorroPath",
                  "type": "address[]"
                },
                {
                  "internalType": "address[]",
                  "name": "USDCToZorroLPPoolOtherTokenPath",
                  "type": "address[]"
                }
              ],
              "internalType": "struct ZorroControllerXChain.ZorroControllerXChainSwapParams",
              "name": "swaps",
              "type": "tuple"
            },
            {
              "components": [
                {
                  "internalType": "address",
                  "name": "priceFeedZOR",
                  "type": "address"
                },
                {
                  "internalType": "address",
                  "name": "priceFeedLPPoolOtherToken",
                  "type": "address"
                }
              ],
              "internalType": "struct ZorroControllerXChain.ZorroControllerXChainPriceFeedParams",
              "name": "priceFeeds",
              "type": "tuple"
            }
          ],
          "internalType": "struct ZorroControllerXChain.ZorroControllerXChainInit",
          "name": "_initValue",
          "type": "tuple"
        }
      ],
      "name": "initialize",
      "outputs": [],
      "stateMutability": "nonpayable",
      "type": "function"
    }
  ],
  "bytecode": "0x608060405234801561001057600080fd5b50615234806100206000396000f3fe6080604052600436106103025760003560e060020a90048063715018a611610194578063ab8236f3116100e0578063c9f363c411610099578063e940f6e111610073578063e940f6e114610928578063ebfba7c41461093e578063f2fde38b1461095e578063fc39a29e1461097e57600080fd5b8063c9f363c4146108c8578063cd01af48146108e8578063e53ac0df1461090857600080fd5b8063ab8236f31461080d578063b22f32511461082d578063b61bb80a1461084d578063c86d40401461086d578063c8ba44b51461088d578063c9522cf1146108a857600080fd5b80638da5cb5b1161014d5780639a448c0c116101275780639a448c0c1461079a578063a2df085c146107ba578063a4d2b083146107cd578063a9e56f3c146107ed57600080fd5b80638da5cb5b1461073c5780638f426e2c1461075a578063959334f41461077a57600080fd5b8063715018a61461068757806379777d811461069c5780637bd45522146106bc5780637f633ea8146106dc5780638b5694d6146106fc5780638c157db21461071c57600080fd5b80634bf7617411610253578063625adaf21161020c578063693a090b116101e6578063693a090b146106115780636ca8bd65146106315780636e7144fe1461065157806370d5ae051461067157600080fd5b8063625adaf2146105b6578063668ababb146105d6578063692d8b8b146105f657600080fd5b80634bf76174146104f85780635175ce1b146105185780635790f59914610538578063593af9fe1461054e5780635da79d631461057b57806361b729dc1461059b57600080fd5b806325b43830116102c05780633ad5875c1161029a5780633ad5875c1461046e578063459f475314610481578063464e3c8b146104c5578063487c3868146104d857600080fd5b806325b4383014610401578063293da9d4146104215780633a6291211461044e57600080fd5b80621d35671461030757806307968db114610329578063104a61321461036657806313a2e8801461038657806315230ae6146103a6578063219b38b8146103c6575b600080fd5b34801561031357600080fd5b50610327610322366004613b61565b61099e565b005b34801561033557600080fd5b5060a45461034990600160a060020a031681565b604051600160a060020a0390911681526020015b60405180910390f35b34801561037257600080fd5b50610349610381366004613bfb565b610b46565b34801561039257600080fd5b506103276103a1366004613c14565b610b70565b3480156103b257600080fd5b50609a5461034990600160a060020a031681565b3480156103d257600080fd5b506103f36103e1366004613bfb565b60a36020526000908152604090205481565b60405190815260200161035d565b34801561040d57600080fd5b5061032761041c366004613c60565b610bbc565b34801561042d57600080fd5b506103f361043c366004613c9b565b60a06020526000908152604090205481565b34801561045a57600080fd5b506103f3610469366004613c60565b610c0e565b61032761047c366004613c60565b610d14565b34801561048d57600080fd5b506104b261049c366004613bfb565b609f6020526000908152604090205461ffff1681565b60405161ffff909116815260200161035d565b6103276104d3366004613cb6565b610e76565b3480156104e457600080fd5b506103276104f3366004613d2c565b6111a1565b34801561050457600080fd5b50610327610513366004613d2c565b611262565b34801561052457600080fd5b50610327610533366004613d6e565b61136b565b34801561054457600080fd5b506103f360a25481565b34801561055a57600080fd5b5061056e610569366004613bfb565b6113b1565b60405161035d9190613e32565b34801561058757600080fd5b50610327610596366004613e65565b61144b565b3480156105a757600080fd5b5061032761041c366004613fbb565b3480156105c257600080fd5b506103276105d1366004613d2c565b61149a565b3480156105e257600080fd5b50609b5461034990600160a060020a031681565b34801561060257600080fd5b5061032761041c36600461401d565b34801561061d57600080fd5b5060a95461034990600160a060020a031681565b34801561063d57600080fd5b5061032761064c366004613e65565b611563565b34801561065d57600080fd5b5061032761066c366004614405565b6115b2565b34801561067d57600080fd5b5061034961dead81565b34801561069357600080fd5b50610327611917565b3480156106a857600080fd5b5060ad5461034990600160a060020a031681565b3480156106c857600080fd5b506103276106d736600461455f565b611950565b3480156106e857600080fd5b506103276106f73660046145a1565b6119b1565b34801561070857600080fd5b506103276107173660046145a1565b611a0d565b34801561072857600080fd5b5060985461034990600160a060020a031681565b34801561074857600080fd5b50603354600160a060020a0316610349565b34801561076657600080fd5b506103f36107753660046145cd565b611a53565b34801561078657600080fd5b50610327610795366004613e65565b611bdd565b3480156107a657600080fd5b506103496107b5366004613bfb565b611c2c565b6103276107c8366004614642565b611c3c565b3480156107d957600080fd5b5060a85461034990600160a060020a031681565b3480156107f957600080fd5b5060a15461034990600160a060020a031681565b34801561081957600080fd5b506103276108283660046146ae565b611e45565b34801561083957600080fd5b5060ac5461034990600160a060020a031681565b34801561085957600080fd5b5060975461034990600160a060020a031681565b34801561087957600080fd5b5060a65461034990600160a060020a031681565b34801561089957600080fd5b5061032761041c36600461473c565b3480156108b457600080fd5b506103f36108c3366004613cb6565b61211a565b3480156108d457600080fd5b506103f36108e33660046147a8565b61223c565b3480156108f457600080fd5b50610327610903366004613d2c565b612322565b34801561091457600080fd5b50610327610923366004613e65565b612391565b34801561093457600080fd5b506103f360a55481565b34801561094a57600080fd5b5060a75461034990600160a060020a031681565b34801561096a57600080fd5b50610327610979366004613e65565b6123e0565b34801561098a57600080fd5b5060995461034990600160a060020a031681565b8585858080601f016020809104026020016040519081016040528093929190818152602001838380828437600092018290525061ffff8616815260a06020908152604080832054875188840120818552609e909352928190209051929550909350610a0a92509061487a565b604051809103902014610a675760405160e560020a62461bcd02815260206004820152601960248201527f556e7265636f672078636861696e20636f6e74726f6c6c65720000000000000060448201526064015b60405180910390fd5b61ffff8916600090815260a0602052604081205490610a868688614919565b90507f61b729dc00000000000000000000000000000000000000000000000000000000600160e060020a031982161415610aee57600080808080610acc8b8d018d614962565b9550955095509550955050610ae48585858585612498565b5050505050610b39565b60405160e560020a62461bcd02815260206004820152601160248201527f556e7265636f676e697a65642066756e630000000000000000000000000000006044820152606401610a5e565b5050505050505050505050565b60aa8181548110610b5657600080fd5b600091825260209091200154600160a060020a0316905081565b603354600160a060020a03163314610b9d5760405160e560020a62461bcd028152600401610a5e906149d7565b6000838152609e60205260409020610bb690838361394c565b50505050565b60405160e560020a62461bcd02815260206004820152601760248201527f696c6c6567616c2064756d6d792066756e632063616c6c0000000000000000006044820152606401610a5e565b5050505050565b6000858152609f6020908152604080832054609c5491516c0100000000000000000000000033029381019390935261ffff16918391610c61916034016040516020818303038152906040528989896127aa565b90506000610c6e8561282b565b60a4546040517f40a7bb10000000000000000000000000000000000000000000000000000000008152919250600091600160a060020a03909116906340a7bb1090610cc59087903090889087908990600401614a0c565b6040805180830381865afa158015610ce1573d6000803e3d6000fd5b505050506040513d601f19601f82011682018060405250810190610d059190614a5e565b509a9950505050505050505050565b60026065541415610d3a5760405160e560020a62461bcd028152600401610a5e90614a82565b6002606555609c546040516c0100000000000000000000000033026020820152600091610d7b916034016040516020818303038152906040528787876127aa565b6000878152609e6020526040812080549293509091610d999061483c565b80601f0160208091040260200160405190810160405280929190818152602001828054610dc59061483c565b8015610e125780601f10610de757610100808354040283529160200191610e12565b820191906000526020600020905b815481529060010190602001808311610df557829003601f168201915b50505050509050610e686040518060c0016040528089815260200183815260200184815260200133600160a060020a031681526020016000600160a060020a03168152602001610e618661282b565b905261286f565b505060016065555050505050565b60026065541415610e9c5760405160e560020a62461bcd028152600401610a5e90614a82565b6002606555609a546040517f1526fe27000000000000000000000000000000000000000000000000000000008152600481018690528591600091600160a060020a0390911690631526fe279060240160c060405180830381865afa158015610f08573d6000803e3d6000fd5b505050506040513d601f19601f82011682018060405250810190610f2c9190614ab9565b9550505050505080600160a060020a0316610f443390565b600160a060020a031614610f9d5760405160e560020a62461bcd02815260206004820152600e60248201527f6f6e6c7920726567207661756c740000000000000000000000000000000000006044820152606401610a5e565b60003411610ff05760405160e560020a62461bcd02815260206004820152601160248201527f4e6f2066656573207375626d69747465640000000000000000000000000000006044820152606401610a5e565b6000610ffc8686612924565b60975490915061101690600160a060020a03163083612937565b60975461102e90600160a060020a0316333084612a63565b60975460405160e060020a6370a08231028152306004820152600091600160a060020a0316906370a0823190602401602060405180830381865afa15801561107a573d6000803e3d6000fd5b505050506040513d601f19601f8201168201806040525081019061109e9190614b0b565b905060006110aa612ab4565b905060006110bd609c548a8a858b612aea565b609c546000908152609e60205260408120805492935090916110de9061483c565b80601f016020809104026020016040519081016040528092919081815260200182805461110a9061483c565b80156111575780601f1061112c57610100808354040283529160200191611157565b820191906000526020600020905b81548152906001019060200180831161113a57829003601f168201915b5050505050905061118f6040518060a00160405280609d5481526020018681526020018381526020018481526020018a815250612b3f565b50506001606555505050505050505050565b603354600160a060020a031633146111ce5760405160e560020a62461bcd028152600401610a5e906149d7565b818160008181106111e1576111e1614b24565b90506020020160208101906111f69190613e65565b60ac8054600160a060020a031916600160a060020a03929092169190911790558181600181811061122957611229614b24565b905060200201602081019061123e9190613e65565b60ad8054600160a060020a031916600160a060020a03929092169190911790555050565b603354600160a060020a0316331461128f5760405160e560020a62461bcd028152600401610a5e906149d7565b818160008181106112a2576112a2614b24565b90506020020160208101906112b79190613e65565b60998054600160a060020a031916600160a060020a0392909216919091179055818160018181106112ea576112ea614b24565b90506020020160208101906112ff9190613e65565b609a8054600160a060020a031916600160a060020a03929092169190911790558181600281811061133257611332614b24565b90506020020160208101906113479190613e65565b609b8054600160a060020a031916600160a060020a03929092169190911790555050565b603354600160a060020a031633146113985760405160e560020a62461bcd028152600401610a5e906149d7565b6113a460aa85856139d0565b50610c0760ab83836139d0565b609e60205260009081526040902080546113ca9061483c565b80601f01602080910402602001604051908101604052809291908181526020018280546113f69061483c565b80156114435780601f1061141857610100808354040283529160200191611443565b820191906000526020600020905b81548152906001019060200180831161142657829003601f168201915b505050505081565b603354600160a060020a031633146114785760405160e560020a62461bcd028152600401610a5e906149d7565b60a98054600160a060020a031916600160a060020a0392909216919091179055565b603354600160a060020a031633146114c75760405160e560020a62461bcd028152600401610a5e906149d7565b818160008181106114da576114da614b24565b90506020020160208101906114ef9190613e65565b60978054600160a060020a031916600160a060020a03929092169190911790558181600181811061152257611522614b24565b90506020020160208101906115379190613e65565b60988054600160a060020a031916600160a060020a03929092169190911790555050565b505050505050565b603354600160a060020a031633146115905760405160e560020a62461bcd028152600401610a5e906149d7565b60a88054600160a060020a031916600160a060020a0392909216919091179055565b600054610100900460ff166115cd5760005460ff16156115d1565b303b155b6116465760405160e560020a62461bcd02815260206004820152602e60248201527f496e697469616c697a61626c653a20636f6e747261637420697320616c72656160448201527f647920696e697469616c697a65640000000000000000000000000000000000006064820152608401610a5e565b600054610100900460ff16158015611668576000805461ffff19166101011790555b61012082015160c081015160a18054600160a060020a0319908116600160a060020a039384161790915561010083015160a25560e09092015160a48054909316911617905560005b82610120015160400151518161ffff161015611824576000836101200151604001518261ffff16815181106116e7576116e7614b24565b60200260200101519050836101200151606001518261ffff168151811061171057611710614b24565b6020026020010151609e6000838152602001908152602001600020908051906020019061173e929190613a23565b50836101200151608001518261ffff168151811061175e5761175e614b24565b6020026020010151609f600083815260200190815260200160002060006101000a81548161ffff021916908361ffff1602179055508060a06000866101200151608001518561ffff16815181106117b7576117b7614b24565b602002602001015161ffff1661ffff1681526020019081526020016000208190555083610120015160a001518261ffff16815181106117f8576117f8614b24565b602090810291909101810151600092835260a390915260409091205561181d81614b56565b90506116b0565b50604082015160a68054600160a060020a03928316600160a060020a031991821617909155606084015160a78054918416918316919091179055608084015160a8805491841691831691909117905560a084015160a980549190931691161790556101408201515180516118a09160aa91602090910190613a97565b5061014082015160209081015180516118bd9260ab920190613a97565b50610160820151805160ac8054600160a060020a0319908116600160a060020a039384161790915560209092015160ad80549093169116179055611900836123e0565b8015611912576000805461ff00191690555b505050565b603354600160a060020a031633146119445760405160e560020a62461bcd028152600401610a5e906149d7565b61194e6000612c7c565b565b603354600160a060020a0316331461197d5760405160e560020a62461bcd028152600401610a5e906149d7565b60a18054600160a060020a03948516600160a060020a03199182161790915560a29290925560a48054919093169116179055565b603354600160a060020a031633146119de5760405160e560020a62461bcd028152600401610a5e906149d7565b6000828152609f60209081526040808320805461ffff90951661ffff199095168517905592825260a090522055565b603354600160a060020a03163314611a3a5760405160e560020a62461bcd028152600401610a5e906149d7565b600091825260a3602052604090912061ffff9091169055565b6040805160608082018352600080835260208301819052928201526000611a7e8a8a8a8a8a8a612cce565b60008b8152609e6020526040812080549293509091611a9c9061483c565b80601f0160208091040260200160405190810160405280929190818152602001828054611ac89061483c565b8015611b155780601f10611aea57610100808354040283529160200191611b15565b820191906000526020600020905b815481529060010190602001808311611af857829003601f168201915b50505050509050600060a160009054906101000a9004600160a060020a0316600160a060020a0316630a512369609f60008f815260200190815260200160002060009054906101000a900461ffff1660018587896040518663ffffffff1660e060020a028152600401611b8c959493929190614ba1565b6040805180830381865afa158015611ba8573d6000803e3d6000fd5b505050506040513d601f19601f82011682018060405250810190611bcc9190614a5e565b509c9b505050505050505050505050565b603354600160a060020a03163314611c0a5760405160e560020a62461bcd028152600401610a5e906149d7565b60a78054600160a060020a031916600160a060020a0392909216919091179055565b60ab8181548110610b5657600080fd5b60026065541415611c625760405160e560020a62461bcd028152600401610a5e90614a82565b600260655534611cb75760405160e560020a62461bcd02815260206004820152601160248201527f4e6f2066656573207375626d69747465640000000000000000000000000000006044820152606401610a5e565b609754611cce90600160a060020a03163086612937565b609754611ce690600160a060020a0316333087612a63565b60975460405160e060020a6370a08231028152306004820152600091600160a060020a0316906370a0823190602401602060405180830381865afa158015611d32573d6000803e3d6000fd5b505050506040513d601f19601f82011682018060405250810190611d569190614b0b565b90506000611d68878387873388612d52565b6000898152609e6020526040812080549293509091611d869061483c565b80601f0160208091040260200160405190810160405280929190818152602001828054611db29061483c565b8015611dff5780601f10611dd457610100808354040283529160200191611dff565b820191906000526020600020905b815481529060010190602001808311611de257829003601f168201915b50505050509050611e356040518060a001604052808b815260200185815260200183815260200184815260200187815250612b3f565b5050600160655550505050505050565b61ffff8616600090815260a060209081526040808320548851838a0120818552609e9093529281902090518993899390929091611e82919061487a565b604051809103902014611eda5760405160e560020a62461bcd02815260206004820152601960248201527f556e7265636f672078636861696e20636f6e74726f6c6c6572000000000000006044820152606401610a5e565b61ffff8916600090815260a0602052604080822054905160e060020a6370a08231028152306004820152909190600160a060020a038916906370a0823190602401602060405180830381865afa158015611f38573d6000803e3d6000fd5b505050506040513d601f19601f82011682018060405250810190611f5c9190614b0b565b905080871115611fb15760405160e560020a62461bcd02815260206004820152601460248201527f616d6f756e744c4420657863656564732062616c0000000000000000000000006044820152606401610a5e565b6000611fbc87614bed565b90507f692d8b8b00000000000000000000000000000000000000000000000000000000600160e060020a0319821614156120315760008060008060008b80602001905181019061200c9190614c6d565b965096509650965050955050612027858e8642878787612bf9565b505050505061210c565b7fc8ba44b500000000000000000000000000000000000000000000000000000000600160e060020a0319821614156120a6576000806000806000808c8060200190518101906120809190614cfa565b9650965096509650965096505061209b868686868686612d95565b50505050505061210c565b7f25b4383000000000000000000000000000000000000000000000000000000000600160e060020a031982161415610aee5760008060008060008b8060200190518101906120f49190614d7c565b955095509550955095505061202785858585856126ab565b505050505050505050505050565b6040805160608082018352600080835260208301819052928201526000612146609c5488888888612aea565b609954604051600160a060020a039091166c0100000000000000000000000002602082015290915060009060340160408051601f1981840301815282825260a154609d546000908152609f602052928320547f0a5123690000000000000000000000000000000000000000000000000000000085529194509192600160a060020a0390921691630a512369916121ee9161ffff90911690600190879089908b90600401614ba1565b6040805180830381865afa15801561220a573d6000803e3d6000fd5b505050506040513d601f19601f8201168201806040525081019061222e9190614a5e565b509998505050505050505050565b6040805160608082018352600080835260208301819052928201526000612267888888883389612d52565b60a15460008c8152609f60205260408082205490517f0a5123690000000000000000000000000000000000000000000000000000000081529394509092600160a060020a0390921691630a512369916122d29161ffff909116906001908f9088908a90600401614ba1565b6040805180830381865afa1580156122ee573d6000803e3d6000fd5b505050506040513d601f19601f820116820180604052508101906123129190614a5e565b509b9a5050505050505050505050565b603354600160a060020a0316331461234f5760405160e560020a62461bcd028152600401610a5e906149d7565b8181600081811061236257612362614b24565b6020029190910135609c55508181600181811061238157612381614b24565b6020029190910135609d55505050565b603354600160a060020a031633146123be5760405160e560020a62461bcd028152600401610a5e906149d7565b60a68054600160a060020a031916600160a060020a0392909216919091179055565b603354600160a060020a0316331461240d5760405160e560020a62461bcd028152600401610a5e906149d7565b600160a060020a03811661248c5760405160e560020a62461bcd02815260206004820152602660248201527f4f776e61626c653a206e6577206f776e657220697320746865207a65726f206160448201527f64647265737300000000000000000000000000000000000000000000000000006064820152608401610a5e565b61249581612c7c565b50565b609a546040517f2e31283d000000000000000000000000000000000000000000000000000000008152600091600160a060020a031690632e31283d906124e690879089908890600401614dcf565b602060405180830381865afa158015612503573d6000803e3d6000fd5b505050506040513d601f19601f820116820180604052508101906125279190614df8565b609a546040517f40abd8fc0000000000000000000000000000000000000000000000000000000081529192506000918291600160a060020a0316906340abd8fc906125809086908b908b908b9088908c90600401614e15565b6080604051808303816000875af115801561259f573d6000803e3d6000fd5b505050506040513d601f19601f820116820180604052508101906125c39190614e5c565b5060975460405160e060020a6370a0823102815230600482015292955090935060009250600160a060020a0316906370a0823190602401602060405180830381865afa158015612617573d6000803e3d6000fd5b505050506040513d601f19601f8201168201806040525081019061263b9190614b0b565b9050600081116126905760405160e560020a62461bcd02815260206004820152601360248201527f4e6f7468696e6720746f207769746864726177000000000000000000000000006044820152606401610a5e565b6126a08988888b8588888c612f10565b505050505050505050565b60006126b78585612924565b60975460405160e060020a6370a08231028152306004820152919250600091600160a060020a03909116906370a0823190602401602060405180830381865afa158015612708573d6000803e3d6000fd5b505050506040513d601f19601f8201168201806040525081019061272c9190614b0b565b905060006127448361273e848a612fed565b90612ff9565b90506127508185613005565b60006127608461273e858a612fed565b905061276c81866134cf565b80828a7f4bda9eedb6fd5c584b11e8c64fc79bbe5c7faf6da945a3c7e0de361b6ee5a1bd60405160405180910390a485156126a0576126a086613645565b6040516060907f61b729dc00000000000000000000000000000000000000000000000000000000906000906127eb9089908990899089908990602001614e92565b6040516020818303038152906040529050818160405160200161280f929190614ec8565b6040516020818303038152906040529250505095945050505050565b604080517e01000000000000000000000000000000000000000000000000000000000000602082015260228082019390935281518082039093018352604201905290565b80516000908152609f60209081526040918290205460a4549184015183850151606086015160a087015195517fc580310000000000000000000000000000000000000000000000000000000000815261ffff90941695600160a060020a039095169463c58031009434946128ee94899491939092829190600401614ef8565b6000604051808303818588803b15801561290757600080fd5b505af115801561291b573d6000803e3d6000fd5b50505050505050565b60006129308284614f5f565b9392505050565b6040517fdd62ed3e000000000000000000000000000000000000000000000000000000008152306004820152600160a060020a038381166024830152600091839186169063dd62ed3e90604401602060405180830381865afa1580156129a1573d6000803e3d6000fd5b505050506040513d601f19601f820116820180604052508101906129c59190614b0b565b6129cf9190614f5f565b604051600160a060020a038516602482015260448101829052909150610bb69085907f095ea7b300000000000000000000000000000000000000000000000000000000906064015b60408051601f198184030181529190526020810180517bffffffffffffffffffffffffffffffffffffffffffffffffffffffff16600160e060020a0319909316929092179091526136c2565b604051600160a060020a0380851660248301528316604482015260648101829052610bb69085907f23b872dd0000000000000000000000000000000000000000000000000000000090608401612a17565b60a55460405181907f18bd4bd6372d39482d375f68791749755bdb38e8768acbfb6af999cef1adc6e090600090a2600060a55590565b604080516020810187905290810185905260608082018590526080820184905260a08201839052907f25b43830000000000000000000000000000000000000000000000000000000009060009060c0016127eb565b612b6360405180606001604052806000815260200160008152602001606081525090565b60a15482516000908152609f602090815260408083205460a2548751855260a384529190932054918601516080870151600160a060020a0390951694639fbf10fc94349461ffff90911693929091339190612bc7906103e89061273e908490612fed565b898b604001518c606001516040518b63ffffffff1660e060020a0281526004016128ee99989796959493929190614f77565b609a546040517fcff38dd4000000000000000000000000000000000000000000000000000000008152600160a060020a039091169063cff38dd490612c4e908a90859087908c908c908c908c90600401614ff5565b600060405180830381600087803b158015612c6857600080fd5b505af1158015610b39573d6000803e3d6000fd5b60338054600160a060020a03838116600160a060020a0319831681179093556040519116919082907f8be0079c531659141344cd1fd0a4f28419497f9722a3daafe3b4186f6b6457e090600090a35050565b6040516060907fc8ba44b50000000000000000000000000000000000000000000000000000000090600090612d11908a908a908a908a908a908a90602001615043565b60405160208183030381529060405290508181604051602001612d35929190614ec8565b604051602081830303815290604052925050509695505050505050565b6040516060907f692d8b8b0000000000000000000000000000000000000000000000000000000090600090612d11908a908a908a908a908a908a9060200161507d565b8183806020019051810190612daa9190614df8565b600160a060020a0316867f6f6e500192a591cd4df1823b5be9f8681a54e919ca055745a13b8715ee3dfb81878a604051612dee929190918252602082015260400190565b60405180910390a46098548351600160a060020a03909116906340c10f1990612e209086016020908101908701614df8565b60405160e060020a63ffffffff8416028152600160a060020a03909116600482015260248101849052604401600060405180830381600087803b158015612e6657600080fd5b505af1158015612e7a573d6000803e3d6000fd5b50505050600082111561155b57609854609b546040517f9dc29fac000000000000000000000000000000000000000000000000000000008152600160a060020a03918216600482015260248101859052911690639dc29fac90604401600060405180830381600087803b158015612ef057600080fd5b505af1158015612f04573d6000803e3d6000fd5b50505050505050505050565b6000612f20898989898888612cce565b60008a8152609e6020526040812080549293509091612f3e9061483c565b80601f0160208091040260200160405190810160405280929190818152602001828054612f6a9061483c565b8015612fb75780601f10612f8c57610100808354040283529160200191612fb7565b820191906000526020600020905b815481529060010190602001808311612f9a57829003601f168201915b50505050509050612f046040518060a001604052808c815260200188815260200183815260200184815260200185815250612b3f565b600061293082846150b7565b600061293082846150d6565b60a95460975461302291600160a060020a03918216911684612937565b60ac546040517f871431bc000000000000000000000000000000000000000000000000000000008152600160a060020a03909116600482015260009073__PriceFeed_____________________________9063871431bc90602401602060405180830381865af415801561309a573d6000803e3d6000fd5b505050506040513d601f19601f820116820180604052508101906130be9190614b0b565b60ad546040517f871431bc000000000000000000000000000000000000000000000000000000008152600160a060020a03909116600482015290915060009073__PriceFeed_____________________________9063871431bc90602401602060405180830381865af4158015613139573d6000803e3d6000fd5b505050506040513d601f19601f8201168201806040525081019061315d9190614b0b565b60a95460a65491925061317d91600160a060020a03908116911686612937565b60a95473__SafeSwapUni___________________________90632b08bab190600160a060020a03166131b0876002612ff9565b64e8d4a51000868860aa306131c742610258612924565b6040518963ffffffff1660e060020a0281526004016131ed9897969594939291906150fb565b60006040518083038186803b15801561320557600080fd5b505af4158015613219573d6000803e3d6000fd5b505060a95473__SafeSwapUni___________________________9250632b08bab19150600160a060020a0316613250876002612ff9565b64e8d4a51000858860ab3061326742610258612924565b6040518963ffffffff1660e060020a02815260040161328d9897969594939291906150fb565b60006040518083038186803b1580156132a557600080fd5b505af41580156132b9573d6000803e3d6000fd5b505060985460405160e060020a6370a0823102815230600482015260009350600160a060020a0390911691506370a0823190602401602060405180830381865afa15801561330b573d6000803e3d6000fd5b505050506040513d601f19601f8201168201806040525081019061332f9190614b0b565b60a75460405160e060020a6370a08231028152306004820152919250600091600160a060020a03909116906370a0823190602401602060405180830381865afa158015613380573d6000803e3d6000fd5b505050506040513d601f19601f820116820180604052508101906133a49190614b0b565b60a9546098549192506133c491600160a060020a03908116911684612937565b60a95460a7546133e191600160a060020a03918216911683612937565b60a95460985460a754600160a060020a039283169263e8e33700928116911685856134126103e861273e848e612fed565b6134226103e861273e8a8f612fed565b61dead61343142610258612924565b60405163ffffffff8a1660e060020a028152600160a060020a039889166004820152968816602488015260448701959095526064860193909352608485019190915260a484015290921660c482015260e4810191909152610104016060604051808303816000875af11580156134ab573d6000803e3d6000fd5b505050506040513d601f19601f820116820180604052508101906126a09190615192565b60a9546097546134ec91600160a060020a03918216911684612937565b60ac546040517f871431bc000000000000000000000000000000000000000000000000000000008152600160a060020a03909116600482015260009073__PriceFeed_____________________________9063871431bc90602401602060405180830381865af4158015613564573d6000803e3d6000fd5b505050506040513d601f19601f820116820180604052508101906135889190614b0b565b60a95460a6549192506135a891600160a060020a03908116911685612937565b60a95460a85473__SafeSwapUni___________________________91632b08bab191600160a060020a0391821691879164e8d4a51000918791899160aa91166135f342610258612924565b6040518963ffffffff1660e060020a0281526004016136199897969594939291906150fb565b60006040518083038186803b15801561363157600080fd5b505af415801561291b573d6000803e3d6000fd5b60985460a8546040517f40c10f19000000000000000000000000000000000000000000000000000000008152600160a060020a039182166004820152602481018490529116906340c10f1990604401600060405180830381600087803b1580156136ae57600080fd5b505af1158015610c07573d6000803e3d6000fd5b6000613717826040518060400160405280602081526020017f5361666545524332303a206c6f772d6c6576656c2063616c6c206661696c656481525085600160a060020a03166137aa9092919063ffffffff16565b805190915015611912578080602001905181019061373591906151c0565b6119125760405160e560020a62461bcd02815260206004820152602a60248201527f5361666545524332303a204552433230206f7065726174696f6e20646964206e60448201527f6f742073756363656564000000000000000000000000000000000000000000006064820152608401610a5e565b60606137b984846000856137c1565b949350505050565b6060303183111561383d5760405160e560020a62461bcd02815260206004820152602660248201527f416464726573733a20696e73756666696369656e742062616c616e636520666f60448201527f722063616c6c00000000000000000000000000000000000000000000000000006064820152608401610a5e565b600160a060020a0385163b6138975760405160e560020a62461bcd02815260206004820152601d60248201527f416464726573733a2063616c6c20746f206e6f6e2d636f6e74726163740000006044820152606401610a5e565b60008086600160a060020a031685876040516138b391906151e2565b60006040518083038185875af1925050503d80600081146138f0576040519150601f19603f3d011682016040523d82523d6000602084013e6138f5565b606091505b5091509150613905828286613910565b979650505050505050565b6060831561391f575081612930565b82511561392f5782518084602001fd5b8160405160e560020a62461bcd028152600401610a5e9190613e32565b8280546139589061483c565b90600052602060002090601f01602090048101928261397a57600085556139c0565b82601f106139935782800160ff198235161785556139c0565b828001600101855582156139c0579182015b828111156139c05782358255916020019190600101906139a5565b506139cc929150613aec565b5090565b8280548282559060005260206000209081019282156139c0579160200282015b828111156139c0578154600160a060020a031916600160a060020a038435161782556020909201916001909101906139f0565b828054613a2f9061483c565b90600052602060002090601f016020900481019282613a5157600085556139c0565b82601f10613a6a57805160ff19168380011785556139c0565b828001600101855582156139c0579182015b828111156139c0578251825591602001919060010190613a7c565b8280548282559060005260206000209081019282156139c0579160200282015b828111156139c05782518254600160a060020a031916600160a060020a03909116178255602090920191600190910190613ab7565b5b808211156139cc5760008155600101613aed565b803561ffff81168114613b1357600080fd5b919050565b60008083601f840112613b2a57600080fd5b50813567ffffffffffffffff811115613b4257600080fd5b602083019150836020828501011115613b5a57600080fd5b9250929050565b60008060008060008060808789031215613b7a57600080fd5b613b8387613b01565b9550602087013567ffffffffffffffff80821115613ba057600080fd5b613bac8a838b01613b18565b9097509550604089013591508082168214613bc657600080fd5b90935060608801359080821115613bdc57600080fd5b50613be989828a01613b18565b979a9699509497509295939492505050565b600060208284031215613c0d57600080fd5b5035919050565b600080600060408486031215613c2957600080fd5b83359250602084013567ffffffffffffffff811115613c4757600080fd5b613c5386828701613b18565b9497909650939450505050565b600080600080600060a08688031215613c7857600080fd5b505083359560208501359550604085013594606081013594506080013592509050565b600060208284031215613cad57600080fd5b61293082613b01565b60008060008060808587031215613ccc57600080fd5b5050823594602084013594506040840135936060013592509050565b60008083601f840112613cfa57600080fd5b50813567ffffffffffffffff811115613d1257600080fd5b6020830191508360208083028501011115613b5a57600080fd5b60008060208385031215613d3f57600080fd5b823567ffffffffffffffff811115613d5657600080fd5b613d6285828601613ce8565b90969095509350505050565b60008060008060408587031215613d8457600080fd5b843567ffffffffffffffff80821115613d9c57600080fd5b613da888838901613ce8565b90965094506020870135915080821115613dc157600080fd5b50613dce87828801613ce8565b95989497509550505050565b60005b83811015613df5578181015183820152602001613ddd565b83811115610bb65750506000910152565b60008151808452613e1e816020860160208601613dda565b601f01601f19169290920160200192915050565b6020815260006129306020830184613e06565b600160a060020a038116811461249557600080fd5b8035613b1381613e45565b600060208284031215613e7757600080fd5b813561293081613e45565b60e060020a634e487b7102600052604160045260246000fd5b604051610120810167ffffffffffffffff81118282101715613ebf57613ebf613e82565b60405290565b6040805190810167ffffffffffffffff81118282101715613ebf57613ebf613e82565b604051610180810167ffffffffffffffff81118282101715613ebf57613ebf613e82565b604051601f8201601f1916810167ffffffffffffffff81118282101715613f3557613f35613e82565b604052919050565b600067ffffffffffffffff821115613f5757613f57613e82565b50601f01601f191660200190565b600082601f830112613f7657600080fd5b8135613f89613f8482613f3d565b613f0c565b818152846020838601011115613f9e57600080fd5b816020850160208301376000918101602001919091529392505050565b600080600080600060a08688031215613fd357600080fd5b85359450602086013567ffffffffffffffff811115613ff157600080fd5b613ffd88828901613f65565b959895975050505060408401359360608101359360809091013592509050565b60008060008060008060c0878903121561403657600080fd5b86359550602087013594506040870135935060608701359250608087013567ffffffffffffffff81111561406957600080fd5b61407589828a01613f65565b92505060a087013561408681613e45565b809150509295509295509295565b600067ffffffffffffffff8211156140ae576140ae613e82565b5060209081020190565b600082601f8301126140c957600080fd5b813560206140d9613f8483614094565b828152918102840181019181810190868411156140f557600080fd5b8286015b8481101561411057803583529183019183016140f9565b509695505050505050565b600082601f83011261412c57600080fd5b8135602061413c613f8483614094565b8281529181028401810191818101908684111561415857600080fd5b8286015b8481101561411057803567ffffffffffffffff81111561417c5760008081fd5b61418a8986838b0101613f65565b84525091830191830161415c565b600082601f8301126141a957600080fd5b813560206141b9613f8483614094565b828152918102840181019181810190868411156141d557600080fd5b8286015b84811015614110576141ea81613b01565b83529183019183016141d9565b6000610120828403121561420a57600080fd5b614212613e9b565b90508135815260208201356020820152604082013567ffffffffffffffff8082111561423d57600080fd5b614249858386016140b8565b6040840152606084013591508082111561426257600080fd5b61426e8583860161411b565b6060840152608084013591508082111561428757600080fd5b61429385838601614198565b608084015260a08401359150808211156142ac57600080fd5b506142b9848285016140b8565b60a0830152506142cb60c08301613e5a565b60c08201526142dc60e08301613e5a565b60e082015261010080830135818301525092915050565b600082601f83011261430457600080fd5b81356020614314613f8483614094565b8281529181028401810191818101908684111561433057600080fd5b8286015b8481101561411057803561434781613e45565b8352918301918301614334565b60006040828403121561436657600080fd5b61436e613ec5565b9050813567ffffffffffffffff8082111561438857600080fd5b614394858386016142f3565b835260208401359150808211156143aa57600080fd5b506143b7848285016142f3565b60208301525092915050565b6000604082840312156143d557600080fd5b6143dd613ec5565b905081356143ea81613e45565b815260208201356143fa81613e45565b602082015292915050565b6000806040838503121561441857600080fd5b823561442381613e45565b9150602083013567ffffffffffffffff8082111561444057600080fd5b908401906101a0828703121561445557600080fd5b61445d613ee8565b61446683613e5a565b815261447460208401613e5a565b602082015261448560408401613e5a565b604082015261449660608401613e5a565b60608201526144a760808401613e5a565b60808201526144b860a08401613e5a565b60a08201526144c960c08401613e5a565b60c08201526144da60e08401613e5a565b60e08201526101006144ed818501613e5a565b90820152610120838101358381111561450557600080fd5b614511898287016141f7565b828401525050610140808401358381111561452b57600080fd5b61453789828701614354565b828401525050610160915061454e878385016143c3565b828201528093505050509250929050565b60008060006060848603121561457457600080fd5b833561457f81613e45565b925060208401359150604084013561459681613e45565b809150509250925092565b600080604083850312156145b457600080fd5b823591506145c460208401613b01565b90509250929050565b600080600080600080600060e0888a0312156145e857600080fd5b873596506020880135955060408801359450606088013567ffffffffffffffff81111561461457600080fd5b6146208a828b01613f65565b979a969950949760808101359660a0820135965060c090910135945092505050565b60008060008060008060c0878903121561465b57600080fd5b863595506020870135945060408701359350606087013592506080870135915060a087013567ffffffffffffffff81111561469557600080fd5b6146a189828a01613f65565b9150509295509295509295565b60008060008060008060c087890312156146c757600080fd5b6146d087613b01565b9550602087013567ffffffffffffffff808211156146ed57600080fd5b6146f98a838b01613f65565b9650604089013595506060890135915061471282613e45565b9093506080880135925060a0880135908082111561472f57600080fd5b506146a189828a01613f65565b60008060008060008060c0878903121561475557600080fd5b863595506020870135945060408701359350606087013567ffffffffffffffff81111561478157600080fd5b61478d89828a01613f65565b9350506080870135915060a087013590509295509295509295565b600080600080600080600060e0888a0312156147c357600080fd5b87359650602088013567ffffffffffffffff808211156147e257600080fd5b6147ee8b838c01613f65565b975060408a0135965060608a0135955060808a0135945060a08a0135935060c08a013591508082111561482057600080fd5b5061482d8a828b01613f65565b91505092959891949750929550565b60028104600182168061485057607f821691505b602082108114156148745760e060020a634e487b7102600052602260045260246000fd5b50919050565b815460009081906002810460018083168061489657607f831692505b60208084108214156148b95760e060020a634e487b710286526022600452602486fd5b8180156148cd57600181146148de5761490b565b60ff1986168952848901965061490b565b60008a81526020902060005b868110156149035781548b8201529085019083016148ea565b505084890196505b509498975050505050505050565b600160e060020a0319813581811691600485101561494457808560040360080260020a820283161692505b505092915050565b600160e060020a03198116811461249557600080fd5b60008060008060008060c0878903121561497b57600080fd5b86356149868161494c565b955060208701359450604087013567ffffffffffffffff8111156149a957600080fd5b6149b589828a01613f65565b945050606087013592506080870135915060a087013590509295509295509295565b6020808252818101527f4f776e61626c653a2063616c6c6572206973206e6f7420746865206f776e6572604082015260600190565b61ffff86168152600160a060020a038516602082015260a060408201526000614a3860a0830186613e06565b84151560608401528281036080840152614a528185613e06565b98975050505050505050565b60008060408385031215614a7157600080fd5b505080516020909101519092909150565b6020808252601f908201527f5265656e7472616e637947756172643a207265656e7472616e742063616c6c00604082015260600190565b60008060008060008060c08789031215614ad257600080fd5b8651614add81613e45565b809650506020870151945060408701519350606087015192506080870151915060a087015161408681613e45565b600060208284031215614b1d57600080fd5b5051919050565b60e060020a634e487b7102600052603260045260246000fd5b60e060020a634e487b7102600052601160045260246000fd5b600061ffff80831681811415614b6e57614b6e614b3d565b6001019392505050565b805182526020810151602083015260006040820151606060408501526137b96060850182613e06565b61ffff8616815260ff8516602082015260a060408201526000614bc760a0830186613e06565b8281036060840152614bd98186613e06565b90508281036080840152614a528185614b78565b600081516020830151600160e060020a031980821693506004831015614c2057808360040360080260020a820283161693505b505050919050565b600082601f830112614c3957600080fd5b8151614c47613f8482613f3d565b818152846020838601011115614c5c57600080fd5b6137b9826020830160208701613dda565b600080600080600080600060e0888a031215614c8857600080fd5b8751614c938161494c565b809750506020880151955060408801519450606088015193506080880151925060a088015167ffffffffffffffff811115614ccd57600080fd5b614cd98a828b01614c28565b92505060c0880151614cea81613e45565b8091505092959891949750929550565b600080600080600080600060e0888a031215614d1557600080fd5b8751614d208161494c565b80975050602088015195506040880151945060608801519350608088015167ffffffffffffffff811115614d5357600080fd5b614d5f8a828b01614c28565b93505060a0880151915060c0880151905092959891949750929550565b60008060008060008060c08789031215614d9557600080fd5b8651614da08161494c565b6020880151604089015160608a015160808b015160a0909b0151939c929b509099909850965090945092505050565b838152606060208201526000614de86060830185613e06565b9050826040830152949350505050565b600060208284031215614e0a57600080fd5b815161293081613e45565b600160a060020a038716815260c060208201526000614e3760c0830188613e06565b6040830196909652506060810193909352901515608083015260a09091015292915050565b60008060008060808587031215614e7257600080fd5b505082516020840151604085015160609095015191969095509092509050565b85815260a060208201526000614eab60a0830187613e06565b604083019590955250606081019290925260809091015292915050565b600160e060020a03198316815260008251614eea816004850160208701613dda565b919091016004019392505050565b61ffff8716815260c060208201526000614f1560c0830188613e06565b8281036040840152614f278188613e06565b600160a060020a0387811660608601528616608085015283810360a08501529050614f528185613e06565b9998505050505050505050565b60008219821115614f7257614f72614b3d565b500190565b600061012061ffff8c1683528a6020840152896040840152600160a060020a03891660608401528760808401528660a08401528060c0840152614fbc81840187614b78565b905082810360e0840152614fd08186613e06565b9050828103610100840152614fe58185613e06565b9c9b505050505050505050505050565b878152600160a060020a038716602082015260e06040820152600061501d60e0830188613e06565b90508560608301528460808301528360a08301528260c083015298975050505050505050565b86815285602082015284604082015260c06060820152600061506860c0830186613e06565b60808301949094525060a00152949350505050565b868152856020820152846040820152836060820152600160a060020a038316608082015260c060a08201526000614a5260c0830184613e06565b60008160001904831182151516156150d1576150d1614b3d565b500290565b6000826150f65760e060020a634e487b7102600052601260045260246000fd5b500490565b6000610100808301600160a060020a03808d16855260208c818701528b60408701528a60608701528960808701528360a08701528293508854808452610120870194508960005281600020935060005b8181101561516957845484168652948201946001948501940161514b565b50505050600160a060020a03861660c08501525090508260e08301529998505050505050505050565b6000806000606084860312156151a757600080fd5b8351925060208401519150604084015190509250925092565b6000602082840312156151d257600080fd5b8151801515811461293057600080fd5b600082516151f4818460208701613dda565b919091019291505056fea26469706673582212200e499a6497cfed90e824b687229407130f224cb063ab43305e181f20303673e364736f6c634300080a0033",
  "immutableReferences": {},
  "source": "// SPDX-License-Identifier: MIT\n\npragma solidity ^0.8.0;\n\nimport \"./_ZorroControllerInvestment.sol\";\n\nimport \"../interfaces/IAMMRouter02.sol\";\n\nimport \"../interfaces/IVault.sol\";\n\nimport \"../libraries/SafeSwap.sol\";\n\nimport \"../interfaces/ILayerZeroEndpoint.sol\";\n\nimport \"../interfaces/IStargateRouter.sol\";\n\nimport \"../interfaces/IZorroControllerXChain.sol\";\n\nimport \"@openzeppelin/contracts-upgradeable/access/OwnableUpgradeable.sol\";\n\nimport \"@openzeppelin/contracts-upgradeable/security/ReentrancyGuardUpgradeable.sol\";\n\nimport \"./_ZorroControllerXChainBase.sol\";\n\nimport \"./_ZorroControllerXChainDeposit.sol\";\n\nimport \"./_ZorroControllerXChainEarn.sol\";\n\nimport \"./_ZorroControllerXChainWithdraw.sol\";\n\nimport \"./_ZorroControllerXChainReceiver.sol\";\n\ncontract ZorroControllerXChain is\n    IZorroControllerXChain,\n    ZorroControllerXChainBase,\n    ZorroControllerXChainDeposit,\n    ZorroControllerXChainWithdraw,\n    ZorroControllerXChainEarn,\n    ZorroControllerXChainReceiver\n{\n    /* Libraries */\n    using SafeMath for uint256;\n\n    /* Constructor */\n\n    /// @notice Upgradeable constructor\n    /// @param _timelockOwner The timelock contract that shall own this contract\n    /// @param _initValue a ZorroControllerXChainInit struct for initializing this contract\n    function initialize(\n        address _timelockOwner,\n        ZorroControllerXChainInit memory _initValue\n    ) public initializer {\n        // Base\n        stargateRouter = _initValue.bridge.stargateRouter;\n        stargateSwapPoolId = _initValue.bridge.stargateSwapPoolId;\n        layerZeroEndpoint = _initValue.bridge.layerZeroEndpoint;\n\n        for (uint16 i = 0; i < _initValue.bridge.ZorroChainIDs.length; ++i) {\n            uint256 _zChainId = _initValue.bridge.ZorroChainIDs[i];\n\n            controllerContractsMap[_zChainId] = _initValue.bridge.controllerContracts[\n                i\n            ];\n            ZorroChainToLZMap[_zChainId] = _initValue.bridge.LZChainIDs[i];\n            LZChainToZorroMap[_initValue.bridge.LZChainIDs[i]] = _zChainId;\n            stargateDestPoolIds[_zChainId] = _initValue.bridge.stargateDestPoolIds[i];\n        }\n\n\n        // Earn\n        // Tokens\n        tokenUSDC = _initValue.tokenUSDC;\n        zorroLPPoolOtherToken = _initValue.zorroLPPoolOtherToken;\n        // Contracts\n        zorroStakingVault = _initValue.zorroStakingVault;\n        uniRouterAddress = _initValue.uniRouterAddress;\n        // Swaps\n        USDCToZorroPath = _initValue.swaps.USDCToZorroPath;\n        USDCToZorroLPPoolOtherTokenPath = _initValue.swaps.USDCToZorroLPPoolOtherTokenPath;\n        // Price feed\n        priceFeedZOR = AggregatorV3Interface(_initValue.priceFeeds.priceFeedZOR);\n        priceFeedLPPoolOtherToken = AggregatorV3Interface(_initValue.priceFeeds.priceFeedLPPoolOtherToken);\n\n        // Timelock\n        transferOwnership(_timelockOwner);\n    }\n\n    /* Structs */\n\n    struct ZorroControllerXChainSwapParams {\n        address[] USDCToZorroPath;\n        address[] USDCToZorroLPPoolOtherTokenPath;\n    }\n\n    struct ZorroControllerXChainBridgeParams {\n        uint256 chainId;\n        uint256 homeChainId;\n        uint256[] ZorroChainIDs;\n        bytes[] controllerContracts; // Must be same length as ZorroChainIDs\n        uint16[] LZChainIDs; // Must be same length as ZorroChainIDs\n        uint256[] stargateDestPoolIds; // Must be same length as ZorroChainIDs\n        address stargateRouter;\n        address layerZeroEndpoint;\n        uint256 stargateSwapPoolId;\n    }\n\n    struct ZorroControllerXChainPriceFeedParams {\n        address priceFeedZOR;\n        address priceFeedLPPoolOtherToken;\n    }\n\n    struct ZorroControllerXChainInit {\n        // Tokens\n        address defaultStablecoin;\n        address ZORRO;\n        address tokenUSDC;\n        address zorroLPPoolOtherToken;\n        // Contracts\n        address zorroStakingVault;\n        address uniRouterAddress;\n        address homeChainZorroController;\n        address currentChainController;\n        address publicPool;\n        // Bridge\n        ZorroControllerXChainBridgeParams bridge;\n        // Swaps\n        ZorroControllerXChainSwapParams swaps;\n        // Price feed\n        ZorroControllerXChainPriceFeedParams priceFeeds;\n    }\n}\n",
  "sourcePath": "/Users/kristophm/Documents/workspace/zorro-protocol/contracts/controllers/ZorroControllerXChain.sol",
  "compiler": {
    "name": "solc",
    "version": "0.8.10+commit.fc410830.Emscripten.clang"
  },
  "schemaVersion": "3.4.4",
  "updatedAt": "2022-04-14T01:01:43.506Z",
  "devdoc": {
    "kind": "dev",
    "methods": {
      "checkXChainDepositFee(uint256,bytes,uint256,uint256,uint256,uint256,bytes)": {
        "params": {
          "_chainId": "The Zorro Chain ID (not the LayerZero one)",
          "_destWallet": "A valid address on the remote chain that can claim ownership",
          "_dstContract": "The destination contract address on the remote chain",
          "_maxMarketMovement": "Acceptable degree of slippage on any transaction (e.g. 950 = 5%, 990 = 1% etc.)",
          "_pid": "The pool ID on the remote chain",
          "_valueUSDC": "The amount of USDC to deposit",
          "_weeksCommitted": "Number of weeks to commit to a vault"
        },
        "returns": {
          "_0": "uint256 Expected fee to pay for bridging/cross chain execution"
        }
      },
      "checkXChainDistributeEarningsFee(uint256,uint256,uint256,uint256)": {
        "params": {
          "_accSlashedRewards": "Accumulated slashed rewards on chain",
          "_amountUSDCBuyback": "Amount of USDC to buy back",
          "_amountUSDCRevShare": "Amount of USDC to rev share with ZOR single staking vault",
          "_maxMarketMovement": "factor to account for max market movement/slippage."
        },
        "returns": {
          "_0": "uint256 Quantity of native token as fees"
        }
      },
      "checkXChainRepatriationFee(uint256,uint256,uint256,bytes,uint256,uint256,uint256)": {
        "params": {
          "_burnableZORRewards": "Quantity of ZOR tokens minted for rewards here that need to be burned on the home chain",
          "_gasForDestinationLZReceive": "How much additional gas to provide at destination contract",
          "_originChainId": "Zorro chain ID of chain to which funds are to be repatriated to",
          "_originRecipient": "Recipient of funds on the origin chain",
          "_pid": "Pool ID on current chain",
          "_rewardsDue": "ZOR rewards due to the recipient",
          "_trancheId": "ID of tranche on current chain that funds were withdrawn from"
        },
        "returns": {
          "_0": "uint256 Estimated fee in native tokens"
        }
      },
      "checkXChainWithdrawalFee(uint256,uint256,uint256,uint256,uint256)": {
        "params": {
          "_gasForDestinationLZReceive": "How much additional gas to provide at destination contract",
          "_maxMarketMovement": "Acceptable degree of slippage on any transaction (e.g. 950 = 5%, 990 = 1% etc.)",
          "_pid": "The pool ID on the remote chain",
          "_trancheId": "The tranche ID on the remote chain",
          "_zorroChainId": "The Zorro Chain ID (not the LayerZero one)"
        },
        "returns": {
          "_0": "uint256 Expected fee to pay for bridging/cross chain execution"
        }
      },
      "initialize(address,(address,address,address,address,address,address,address,address,address,(uint256,uint256,uint256[],bytes[],uint16[],uint256[],address,address,uint256),(address[],address[]),(address,address)))": {
        "params": {
          "_initValue": "a ZorroControllerXChainInit struct for initializing this contract",
          "_timelockOwner": "The timelock contract that shall own this contract"
        }
      },
      "owner()": {
        "details": "Returns the address of the current owner."
      },
      "receiveXChainDepositRequest(uint256,uint256,uint256,uint256,bytes,address)": {
        "details": "Should never ever be actually called."
      },
      "receiveXChainDistributionRequest(uint256,uint256,uint256,uint256,uint256)": {
        "details": "Should never ever be actually called."
      },
      "receiveXChainRepatriationRequest(uint256,uint256,uint256,bytes,uint256,uint256)": {
        "details": "Should never ever be actually called."
      },
      "receiveXChainWithdrawalRequest(uint256,bytes,uint256,uint256,uint256)": {
        "details": "Should never ever be actually called."
      },
      "renounceOwnership()": {
        "details": "Leaves the contract without owner. It will not be possible to call `onlyOwner` functions anymore. Can only be called by the current owner. NOTE: Renouncing ownership will leave the contract without an owner, thereby removing any functionality that is only available to the owner."
      },
      "sendXChainDepositRequest(uint256,uint256,uint256,uint256,uint256,bytes)": {
        "details": "Requires appropriate fee to be paid via msg.value (use checkXChainDepositFee() above)",
        "params": {
          "_destWallet": "A valid address on the remote chain that can claim ownership",
          "_maxMarketMovement": "Acceptable degree of slippage on any transaction (e.g. 950 = 5%, 990 = 1% etc.)",
          "_pid": "The pool ID on the remote chain",
          "_valueUSDC": "The amount of USDC to deposit",
          "_weeksCommitted": "Number of weeks to commit to a vault",
          "_zorroChainId": "The Zorro Chain ID (not the LayerZero one)"
        }
      },
      "sendXChainDistributeEarningsRequest(uint256,uint256,uint256,uint256)": {
        "params": {
          "_buybackAmountUSDC": "Amount in USDC to buy back",
          "_maxMarketMovement": "Acceptable slippage (950 = 5%, 990 = 1% etc.)",
          "_pid": "Pool ID",
          "_revShareAmountUSDC": "Amount in USDC to revshare w/ ZOR single staking vault"
        }
      },
      "sendXChainWithdrawalRequest(uint256,uint256,uint256,uint256,uint256)": {
        "details": "Requires value to be submitted to pay for cross chain transaction. Use checkXChainWithdrawalFee() to estimate fees",
        "params": {
          "_destZorroChainId": "The Zorro chain ID of the remote chain to withdraw from",
          "_gasForDestinationLZReceive": "How much additional gas to provide at destination contract",
          "_maxMarketMovement": "Acceptable degree of slippage on any transaction (e.g. 950 = 5%, 990 = 1% etc.)",
          "_pid": "The pool ID on the remote chain",
          "_trancheId": "The ID of the tranche for the given user and pool"
        }
      },
      "setControllerContract(uint256,bytes)": {
        "params": {
          "_controller": "Bytes representation of smart contract address for cross chain contract",
          "_zorroChainId": "Zorro Chain ID"
        }
      },
      "setStargateDestPoolIds(uint256,uint16)": {
        "params": {
          "_stargatePoolId": "Stargate pool ID",
          "_zorroChainId": "Zorro chain ID"
        }
      },
      "setZorroChainToLZMap(uint256,uint16)": {
        "params": {
          "_lzChainId": "LayerZero Chain ID",
          "_zorroChainId": "Zorro chain ID"
        }
      },
      "sgReceive(uint16,bytes,uint256,address,uint256,bytes)": {
        "details": "Implements IStargateReceiver interface"
      },
      "transferOwnership(address)": {
        "details": "Transfers ownership of the contract to a new account (`newOwner`). Can only be called by the current owner."
      }
    },
    "version": 1
  },
  "userdoc": {
    "kind": "user",
    "methods": {
      "checkXChainDepositFee(uint256,bytes,uint256,uint256,uint256,uint256,bytes)": {
        "notice": "Checks to see how much a cross chain deposit will cost"
      },
      "checkXChainDistributeEarningsFee(uint256,uint256,uint256,uint256)": {
        "notice": "Checks to see how much a cross chain earnings distribution will cost"
      },
      "checkXChainRepatriationFee(uint256,uint256,uint256,bytes,uint256,uint256,uint256)": {
        "notice": "Estimates fees for repatriation operation"
      },
      "checkXChainWithdrawalFee(uint256,uint256,uint256,uint256,uint256)": {
        "notice": "Checks to see how much a cross chain withdrawal will cost"
      },
      "initialize(address,(address,address,address,address,address,address,address,address,address,(uint256,uint256,uint256[],bytes[],uint16[],uint256[],address,address,uint256),(address[],address[]),(address,address)))": {
        "notice": "Upgradeable constructor"
      },
      "receiveXChainDepositRequest(uint256,uint256,uint256,uint256,bytes,address)": {
        "notice": "Dummy func to allow .selector call above and guarantee typesafety for abi calls."
      },
      "receiveXChainDistributionRequest(uint256,uint256,uint256,uint256,uint256)": {
        "notice": "Dummy func to allow .selector call above and guarantee typesafety for abi calls."
      },
      "receiveXChainRepatriationRequest(uint256,uint256,uint256,bytes,uint256,uint256)": {
        "notice": "Dummy func to allow .selector call above and guarantee typesafety for abi calls."
      },
      "receiveXChainWithdrawalRequest(uint256,bytes,uint256,uint256,uint256)": {
        "notice": "Dummy func to allow .selector call above and guarantee typesafety for abi calls."
      },
      "sendXChainDepositRequest(uint256,uint256,uint256,uint256,uint256,bytes)": {
        "notice": "Prepares and sends a cross chain deposit request. Takes care of necessary financial ops (transfer/locking USDC)"
      },
      "sendXChainDistributeEarningsRequest(uint256,uint256,uint256,uint256)": {
        "notice": "Sends a request back to the home chain to distribute earnings"
      },
      "sendXChainWithdrawalRequest(uint256,uint256,uint256,uint256,uint256)": {
        "notice": "Prepares and sends a cross chain withdrwal request."
      },
      "setControllerContract(uint256,bytes)": {
        "notice": "Setter: Controller contract for each chain"
      },
      "setLayerZeroParams(address,uint256,address)": {
        "notice": "Setter: Set main LZ params"
      },
      "setStargateDestPoolIds(uint256,uint16)": {
        "notice": "Setter: Stargate dest pool IDs for USD asset"
      },
      "setZorroChainToLZMap(uint256,uint16)": {
        "notice": "Setter: LZ/Stargate params"
      },
      "sgReceive(uint16,bytes,uint256,address,uint256,bytes)": {
        "notice": "Receives stargate cross-chain calls"
      }
    },
    "version": 1
  }
}