{
  "contractName": "ZorroController",
  "abi": [
    {
      "anonymous": false,
      "inputs": [
        {
          "indexed": true,
          "internalType": "address",
          "name": "account",
          "type": "address"
        },
        {
          "indexed": true,
          "internalType": "bytes",
          "name": "foreignAccount",
          "type": "bytes"
        },
        {
          "indexed": true,
          "internalType": "uint256",
          "name": "pid",
          "type": "uint256"
        },
        {
          "indexed": false,
          "internalType": "uint256",
          "name": "wantAmount",
          "type": "uint256"
        }
      ],
      "name": "Deposit",
      "type": "event"
    },
    {
      "anonymous": false,
      "inputs": [
        {
          "indexed": true,
          "internalType": "address",
          "name": "previousOwner",
          "type": "address"
        },
        {
          "indexed": true,
          "internalType": "address",
          "name": "newOwner",
          "type": "address"
        }
      ],
      "name": "OwnershipTransferred",
      "type": "event"
    },
    {
      "anonymous": false,
      "inputs": [
        {
          "indexed": false,
          "internalType": "address",
          "name": "account",
          "type": "address"
        },
        {
          "indexed": true,
          "internalType": "uint256",
          "name": "fromPid",
          "type": "uint256"
        },
        {
          "indexed": true,
          "internalType": "uint256",
          "name": "fromTrancheId",
          "type": "uint256"
        },
        {
          "indexed": true,
          "internalType": "uint256",
          "name": "toPid",
          "type": "uint256"
        }
      ],
      "name": "TransferInvestment",
      "type": "event"
    },
    {
      "anonymous": false,
      "inputs": [
        {
          "indexed": true,
          "internalType": "address",
          "name": "account",
          "type": "address"
        },
        {
          "indexed": true,
          "internalType": "bytes",
          "name": "foreignAccount",
          "type": "bytes"
        },
        {
          "indexed": true,
          "internalType": "uint256",
          "name": "pid",
          "type": "uint256"
        },
        {
          "indexed": false,
          "internalType": "uint256",
          "name": "trancheId",
          "type": "uint256"
        },
        {
          "indexed": false,
          "internalType": "uint256",
          "name": "wantAmount",
          "type": "uint256"
        }
      ],
      "name": "Withdraw",
      "type": "event"
    },
    {
      "inputs": [
        {
          "internalType": "uint256",
          "name": "",
          "type": "uint256"
        }
      ],
      "name": "USDCToZorroLPPoolOtherTokenPath",
      "outputs": [
        {
          "internalType": "address",
          "name": "",
          "type": "address"
        }
      ],
      "stateMutability": "view",
      "type": "function",
      "constant": true
    },
    {
      "inputs": [
        {
          "internalType": "uint256",
          "name": "",
          "type": "uint256"
        }
      ],
      "name": "USDCToZorroPath",
      "outputs": [
        {
          "internalType": "address",
          "name": "",
          "type": "address"
        }
      ],
      "stateMutability": "view",
      "type": "function",
      "constant": true
    },
    {
      "inputs": [],
      "name": "ZORRO",
      "outputs": [
        {
          "internalType": "address",
          "name": "",
          "type": "address"
        }
      ],
      "stateMutability": "view",
      "type": "function",
      "constant": true
    },
    {
      "inputs": [],
      "name": "ZORRODailyDistributionFactorBasisPointsMax",
      "outputs": [
        {
          "internalType": "uint256",
          "name": "",
          "type": "uint256"
        }
      ],
      "stateMutability": "view",
      "type": "function",
      "constant": true
    },
    {
      "inputs": [],
      "name": "ZORRODailyDistributionFactorBasisPointsMin",
      "outputs": [
        {
          "internalType": "uint256",
          "name": "",
          "type": "uint256"
        }
      ],
      "stateMutability": "view",
      "type": "function",
      "constant": true
    },
    {
      "inputs": [],
      "name": "ZORROPerBlock",
      "outputs": [
        {
          "internalType": "uint256",
          "name": "",
          "type": "uint256"
        }
      ],
      "stateMutability": "view",
      "type": "function",
      "constant": true
    },
    {
      "inputs": [
        {
          "internalType": "uint256",
          "name": "_allocPoint",
          "type": "uint256"
        },
        {
          "internalType": "contract IERC20Upgradeable",
          "name": "_want",
          "type": "address"
        },
        {
          "internalType": "bool",
          "name": "_withUpdate",
          "type": "bool"
        },
        {
          "internalType": "address",
          "name": "_vault",
          "type": "address"
        }
      ],
      "name": "add",
      "outputs": [],
      "stateMutability": "nonpayable",
      "type": "function"
    },
    {
      "inputs": [],
      "name": "baseRewardRateBasisPoints",
      "outputs": [
        {
          "internalType": "uint256",
          "name": "",
          "type": "uint256"
        }
      ],
      "stateMutability": "view",
      "type": "function",
      "constant": true
    },
    {
      "inputs": [],
      "name": "blocksPerDay",
      "outputs": [
        {
          "internalType": "uint256",
          "name": "",
          "type": "uint256"
        }
      ],
      "stateMutability": "view",
      "type": "function",
      "constant": true
    },
    {
      "inputs": [],
      "name": "burnAddress",
      "outputs": [
        {
          "internalType": "address",
          "name": "",
          "type": "address"
        }
      ],
      "stateMutability": "view",
      "type": "function",
      "constant": true
    },
    {
      "inputs": [],
      "name": "chainId",
      "outputs": [
        {
          "internalType": "uint256",
          "name": "",
          "type": "uint256"
        }
      ],
      "stateMutability": "view",
      "type": "function",
      "constant": true
    },
    {
      "inputs": [],
      "name": "chainMultiplier",
      "outputs": [
        {
          "internalType": "uint256",
          "name": "",
          "type": "uint256"
        }
      ],
      "stateMutability": "view",
      "type": "function",
      "constant": true
    },
    {
      "inputs": [],
      "name": "defaultStablecoin",
      "outputs": [
        {
          "internalType": "address",
          "name": "",
          "type": "address"
        }
      ],
      "stateMutability": "view",
      "type": "function",
      "constant": true
    },
    {
      "inputs": [
        {
          "internalType": "uint256",
          "name": "_pid",
          "type": "uint256"
        },
        {
          "internalType": "uint256",
          "name": "_wantAmt",
          "type": "uint256"
        },
        {
          "internalType": "uint256",
          "name": "_weeksCommitted",
          "type": "uint256"
        }
      ],
      "name": "deposit",
      "outputs": [],
      "stateMutability": "nonpayable",
      "type": "function"
    },
    {
      "inputs": [
        {
          "internalType": "uint256",
          "name": "_pid",
          "type": "uint256"
        },
        {
          "internalType": "uint256",
          "name": "_valueUSDC",
          "type": "uint256"
        },
        {
          "internalType": "uint256",
          "name": "_weeksCommitted",
          "type": "uint256"
        },
        {
          "internalType": "uint256",
          "name": "_maxMarketMovement",
          "type": "uint256"
        }
      ],
      "name": "depositFullService",
      "outputs": [],
      "stateMutability": "nonpayable",
      "type": "function"
    },
    {
      "inputs": [
        {
          "internalType": "uint256",
          "name": "_pid",
          "type": "uint256"
        },
        {
          "internalType": "address",
          "name": "_account",
          "type": "address"
        },
        {
          "internalType": "bytes",
          "name": "_foreignAccount",
          "type": "bytes"
        },
        {
          "internalType": "uint256",
          "name": "_valueUSDC",
          "type": "uint256"
        },
        {
          "internalType": "uint256",
          "name": "_weeksCommitted",
          "type": "uint256"
        },
        {
          "internalType": "uint256",
          "name": "_vaultEnteredAt",
          "type": "uint256"
        },
        {
          "internalType": "uint256",
          "name": "_maxMarketMovement",
          "type": "uint256"
        }
      ],
      "name": "depositFullServiceFromXChain",
      "outputs": [],
      "stateMutability": "nonpayable",
      "type": "function"
    },
    {
      "inputs": [
        {
          "internalType": "uint256",
          "name": "",
          "type": "uint256"
        },
        {
          "internalType": "bytes",
          "name": "",
          "type": "bytes"
        },
        {
          "internalType": "uint256",
          "name": "",
          "type": "uint256"
        }
      ],
      "name": "foreignTrancheInfo",
      "outputs": [
        {
          "internalType": "address",
          "name": "",
          "type": "address"
        }
      ],
      "stateMutability": "view",
      "type": "function",
      "constant": true
    },
    {
      "inputs": [],
      "name": "homeChainId",
      "outputs": [
        {
          "internalType": "uint256",
          "name": "",
          "type": "uint256"
        }
      ],
      "stateMutability": "view",
      "type": "function",
      "constant": true
    },
    {
      "inputs": [],
      "name": "homeChainZorroController",
      "outputs": [
        {
          "internalType": "address",
          "name": "",
          "type": "address"
        }
      ],
      "stateMutability": "view",
      "type": "function",
      "constant": true
    },
    {
      "inputs": [
        {
          "internalType": "address",
          "name": "_token",
          "type": "address"
        },
        {
          "internalType": "uint256",
          "name": "_amount",
          "type": "uint256"
        }
      ],
      "name": "inCaseTokensGetStuck",
      "outputs": [],
      "stateMutability": "nonpayable",
      "type": "function"
    },
    {
      "inputs": [],
      "name": "isTimeMultiplierActive",
      "outputs": [
        {
          "internalType": "bool",
          "name": "",
          "type": "bool"
        }
      ],
      "stateMutability": "view",
      "type": "function",
      "constant": true
    },
    {
      "inputs": [],
      "name": "massUpdatePools",
      "outputs": [
        {
          "internalType": "uint256",
          "name": "_mintedZOR",
          "type": "uint256"
        }
      ],
      "stateMutability": "nonpayable",
      "type": "function"
    },
    {
      "inputs": [],
      "name": "owner",
      "outputs": [
        {
          "internalType": "address",
          "name": "",
          "type": "address"
        }
      ],
      "stateMutability": "view",
      "type": "function",
      "constant": true
    },
    {
      "inputs": [
        {
          "internalType": "uint256",
          "name": "_pid",
          "type": "uint256"
        },
        {
          "internalType": "address",
          "name": "_account",
          "type": "address"
        },
        {
          "internalType": "int256",
          "name": "_trancheId",
          "type": "int256"
        }
      ],
      "name": "pendingZORRORewards",
      "outputs": [
        {
          "internalType": "uint256",
          "name": "pendingRewards",
          "type": "uint256"
        }
      ],
      "stateMutability": "view",
      "type": "function",
      "constant": true
    },
    {
      "inputs": [
        {
          "internalType": "uint256",
          "name": "",
          "type": "uint256"
        }
      ],
      "name": "poolInfo",
      "outputs": [
        {
          "internalType": "contract IERC20Upgradeable",
          "name": "want",
          "type": "address"
        },
        {
          "internalType": "uint256",
          "name": "allocPoint",
          "type": "uint256"
        },
        {
          "internalType": "uint256",
          "name": "lastRewardBlock",
          "type": "uint256"
        },
        {
          "internalType": "uint256",
          "name": "accZORRORewards",
          "type": "uint256"
        },
        {
          "internalType": "uint256",
          "name": "totalTrancheContributions",
          "type": "uint256"
        },
        {
          "internalType": "address",
          "name": "vault",
          "type": "address"
        }
      ],
      "stateMutability": "view",
      "type": "function",
      "constant": true
    },
    {
      "inputs": [],
      "name": "poolLength",
      "outputs": [
        {
          "internalType": "uint256",
          "name": "",
          "type": "uint256"
        }
      ],
      "stateMutability": "view",
      "type": "function",
      "constant": true
    },
    {
      "inputs": [],
      "name": "priceFeedLPPoolOtherToken",
      "outputs": [
        {
          "internalType": "contract AggregatorV3Interface",
          "name": "",
          "type": "address"
        }
      ],
      "stateMutability": "view",
      "type": "function",
      "constant": true
    },
    {
      "inputs": [],
      "name": "priceFeedZOR",
      "outputs": [
        {
          "internalType": "contract AggregatorV3Interface",
          "name": "",
          "type": "address"
        }
      ],
      "stateMutability": "view",
      "type": "function",
      "constant": true
    },
    {
      "inputs": [],
      "name": "publicPool",
      "outputs": [
        {
          "internalType": "address",
          "name": "",
          "type": "address"
        }
      ],
      "stateMutability": "view",
      "type": "function",
      "constant": true
    },
    {
      "inputs": [],
      "name": "renounceOwnership",
      "outputs": [],
      "stateMutability": "nonpayable",
      "type": "function"
    },
    {
      "inputs": [
        {
          "internalType": "uint256",
          "name": "_pid",
          "type": "uint256"
        },
        {
          "internalType": "uint256",
          "name": "_allocPoint",
          "type": "uint256"
        },
        {
          "internalType": "bool",
          "name": "_withUpdate",
          "type": "bool"
        }
      ],
      "name": "set",
      "outputs": [],
      "stateMutability": "nonpayable",
      "type": "function"
    },
    {
      "inputs": [
        {
          "internalType": "bool",
          "name": "_isActive",
          "type": "bool"
        }
      ],
      "name": "setIsTimeMultiplierActive",
      "outputs": [],
      "stateMutability": "nonpayable",
      "type": "function"
    },
    {
      "inputs": [
        {
          "internalType": "address",
          "name": "_ZORRO",
          "type": "address"
        },
        {
          "internalType": "address",
          "name": "_defaultStablecoin",
          "type": "address"
        }
      ],
      "name": "setKeyAddresses",
      "outputs": [],
      "stateMutability": "nonpayable",
      "type": "function"
    },
    {
      "inputs": [
        {
          "internalType": "address",
          "name": "_priceFeedZOR",
          "type": "address"
        },
        {
          "internalType": "address",
          "name": "_priceFeedLPPoolOtherToken",
          "type": "address"
        }
      ],
      "name": "setPriceFeeds",
      "outputs": [],
      "stateMutability": "nonpayable",
      "type": "function"
    },
    {
      "inputs": [
        {
          "internalType": "uint256",
          "name": "_blocksPerDay",
          "type": "uint256"
        },
        {
          "internalType": "uint256[]",
          "name": "_dailyDistFactors",
          "type": "uint256[]"
        },
        {
          "internalType": "uint256",
          "name": "_chainMultiplier",
          "type": "uint256"
        },
        {
          "internalType": "uint256",
          "name": "_baseRewardRateBasisPoints",
          "type": "uint256"
        }
      ],
      "name": "setRewardsParams",
      "outputs": [],
      "stateMutability": "nonpayable",
      "type": "function"
    },
    {
      "inputs": [
        {
          "internalType": "uint256",
          "name": "_startBlock",
          "type": "uint256"
        }
      ],
      "name": "setStartBlock",
      "outputs": [],
      "stateMutability": "nonpayable",
      "type": "function"
    },
    {
      "inputs": [
        {
          "internalType": "uint256",
          "name": "_targetTVLCaptureBasisPoints",
          "type": "uint256"
        }
      ],
      "name": "setTargetTVLCaptureBasisPoints",
      "outputs": [],
      "stateMutability": "nonpayable",
      "type": "function"
    },
    {
      "inputs": [
        {
          "internalType": "address[]",
          "name": "_path",
          "type": "address[]"
        }
      ],
      "name": "setUSDCToZORPath",
      "outputs": [],
      "stateMutability": "nonpayable",
      "type": "function"
    },
    {
      "inputs": [
        {
          "internalType": "address[]",
          "name": "_path",
          "type": "address[]"
        }
      ],
      "name": "setUSDCToZorroLPPoolOtherTokenPath",
      "outputs": [],
      "stateMutability": "nonpayable",
      "type": "function"
    },
    {
      "inputs": [
        {
          "internalType": "address",
          "name": "_uniV2Router",
          "type": "address"
        }
      ],
      "name": "setUniRouter",
      "outputs": [],
      "stateMutability": "nonpayable",
      "type": "function"
    },
    {
      "inputs": [
        {
          "internalType": "uint256",
          "name": "_chainId",
          "type": "uint256"
        },
        {
          "internalType": "uint256",
          "name": "_homeChainId",
          "type": "uint256"
        },
        {
          "internalType": "address",
          "name": "_homeChainZorroController",
          "type": "address"
        }
      ],
      "name": "setXChainParams",
      "outputs": [],
      "stateMutability": "nonpayable",
      "type": "function"
    },
    {
      "inputs": [
        {
          "internalType": "address",
          "name": "_publicPool",
          "type": "address"
        },
        {
          "internalType": "address",
          "name": "_zorroStakingVault",
          "type": "address"
        }
      ],
      "name": "setZorroContracts",
      "outputs": [],
      "stateMutability": "nonpayable",
      "type": "function"
    },
    {
      "inputs": [
        {
          "internalType": "address",
          "name": "_zorroControllerOracle",
          "type": "address"
        }
      ],
      "name": "setZorroControllerOracle",
      "outputs": [],
      "stateMutability": "nonpayable",
      "type": "function"
    },
    {
      "inputs": [
        {
          "internalType": "address",
          "name": "_zorroLPPool",
          "type": "address"
        },
        {
          "internalType": "address",
          "name": "_zorroLPPoolOtherToken",
          "type": "address"
        }
      ],
      "name": "setZorroLPPoolParams",
      "outputs": [],
      "stateMutability": "nonpayable",
      "type": "function"
    },
    {
      "inputs": [
        {
          "internalType": "uint256",
          "name": "_totalChainMultipliers",
          "type": "uint256"
        },
        {
          "internalType": "uint256",
          "name": "_totalMarketTVLUSD",
          "type": "uint256"
        },
        {
          "internalType": "uint256",
          "name": "_targetTVLCaptureBasisPoints",
          "type": "uint256"
        },
        {
          "internalType": "uint256",
          "name": "_ZorroTotalVaultTVLUSD",
          "type": "uint256"
        },
        {
          "internalType": "uint256",
          "name": "_publicPoolZORBalance",
          "type": "uint256"
        }
      ],
      "name": "setZorroPerBlock",
      "outputs": [],
      "stateMutability": "nonpayable",
      "type": "function"
    },
    {
      "inputs": [
        {
          "internalType": "address",
          "name": "_contract",
          "type": "address"
        }
      ],
      "name": "setZorroXChainEndpoint",
      "outputs": [],
      "stateMutability": "nonpayable",
      "type": "function"
    },
    {
      "inputs": [
        {
          "internalType": "uint256",
          "name": "_pid",
          "type": "uint256"
        },
        {
          "internalType": "address",
          "name": "_account",
          "type": "address"
        },
        {
          "internalType": "int256",
          "name": "_trancheId",
          "type": "int256"
        }
      ],
      "name": "stakedWantTokens",
      "outputs": [
        {
          "internalType": "uint256",
          "name": "stakedWantAmt",
          "type": "uint256"
        }
      ],
      "stateMutability": "view",
      "type": "function",
      "constant": true
    },
    {
      "inputs": [],
      "name": "startBlock",
      "outputs": [
        {
          "internalType": "uint256",
          "name": "",
          "type": "uint256"
        }
      ],
      "stateMutability": "view",
      "type": "function",
      "constant": true
    },
    {
      "inputs": [],
      "name": "targetTVLCaptureBasisPoints",
      "outputs": [
        {
          "internalType": "uint256",
          "name": "",
          "type": "uint256"
        }
      ],
      "stateMutability": "view",
      "type": "function",
      "constant": true
    },
    {
      "inputs": [],
      "name": "totalAllocPoint",
      "outputs": [
        {
          "internalType": "uint256",
          "name": "",
          "type": "uint256"
        }
      ],
      "stateMutability": "view",
      "type": "function",
      "constant": true
    },
    {
      "inputs": [
        {
          "internalType": "uint256",
          "name": "",
          "type": "uint256"
        },
        {
          "internalType": "address",
          "name": "",
          "type": "address"
        },
        {
          "internalType": "uint256",
          "name": "",
          "type": "uint256"
        }
      ],
      "name": "trancheInfo",
      "outputs": [
        {
          "internalType": "uint256",
          "name": "contribution",
          "type": "uint256"
        },
        {
          "internalType": "uint256",
          "name": "timeMultiplier",
          "type": "uint256"
        },
        {
          "internalType": "uint256",
          "name": "rewardDebt",
          "type": "uint256"
        },
        {
          "internalType": "uint256",
          "name": "durationCommittedInWeeks",
          "type": "uint256"
        },
        {
          "internalType": "uint256",
          "name": "enteredVaultAt",
          "type": "uint256"
        },
        {
          "internalType": "uint256",
          "name": "exitedVaultAt",
          "type": "uint256"
        }
      ],
      "stateMutability": "view",
      "type": "function",
      "constant": true
    },
    {
      "inputs": [
        {
          "internalType": "uint256",
          "name": "_pid",
          "type": "uint256"
        },
        {
          "internalType": "address",
          "name": "_user",
          "type": "address"
        }
      ],
      "name": "trancheLength",
      "outputs": [
        {
          "internalType": "uint256",
          "name": "",
          "type": "uint256"
        }
      ],
      "stateMutability": "view",
      "type": "function",
      "constant": true
    },
    {
      "inputs": [
        {
          "internalType": "uint256",
          "name": "_fromPid",
          "type": "uint256"
        },
        {
          "internalType": "uint256",
          "name": "_fromTrancheId",
          "type": "uint256"
        },
        {
          "internalType": "uint256",
          "name": "_toPid",
          "type": "uint256"
        },
        {
          "internalType": "uint256",
          "name": "_maxMarketMovement",
          "type": "uint256"
        }
      ],
      "name": "transferInvestment",
      "outputs": [],
      "stateMutability": "nonpayable",
      "type": "function"
    },
    {
      "inputs": [
        {
          "internalType": "address",
          "name": "newOwner",
          "type": "address"
        }
      ],
      "name": "transferOwnership",
      "outputs": [],
      "stateMutability": "nonpayable",
      "type": "function"
    },
    {
      "inputs": [],
      "name": "uniRouterAddress",
      "outputs": [
        {
          "internalType": "address",
          "name": "",
          "type": "address"
        }
      ],
      "stateMutability": "view",
      "type": "function",
      "constant": true
    },
    {
      "inputs": [
        {
          "internalType": "uint256",
          "name": "_pid",
          "type": "uint256"
        }
      ],
      "name": "updatePool",
      "outputs": [
        {
          "internalType": "uint256",
          "name": "mintedZOR",
          "type": "uint256"
        }
      ],
      "stateMutability": "nonpayable",
      "type": "function"
    },
    {
      "inputs": [
        {
          "internalType": "uint256",
          "name": "_pid",
          "type": "uint256"
        },
        {
          "internalType": "uint256",
          "name": "_trancheId",
          "type": "uint256"
        },
        {
          "internalType": "bool",
          "name": "_harvestOnly",
          "type": "bool"
        }
      ],
      "name": "withdraw",
      "outputs": [
        {
          "internalType": "uint256",
          "name": "",
          "type": "uint256"
        }
      ],
      "stateMutability": "nonpayable",
      "type": "function"
    },
    {
      "inputs": [
        {
          "internalType": "uint256",
          "name": "_pid",
          "type": "uint256"
        }
      ],
      "name": "withdrawAll",
      "outputs": [],
      "stateMutability": "nonpayable",
      "type": "function"
    },
    {
      "inputs": [
        {
          "internalType": "uint256",
          "name": "_pid",
          "type": "uint256"
        },
        {
          "internalType": "uint256",
          "name": "_trancheId",
          "type": "uint256"
        },
        {
          "internalType": "bool",
          "name": "_harvestOnly",
          "type": "bool"
        },
        {
          "internalType": "uint256",
          "name": "_maxMarketMovement",
          "type": "uint256"
        }
      ],
      "name": "withdrawalFullService",
      "outputs": [
        {
          "internalType": "uint256",
          "name": "",
          "type": "uint256"
        }
      ],
      "stateMutability": "nonpayable",
      "type": "function"
    },
    {
      "inputs": [
        {
          "internalType": "address",
          "name": "_account",
          "type": "address"
        },
        {
          "internalType": "bytes",
          "name": "_foreignAccount",
          "type": "bytes"
        },
        {
          "internalType": "uint256",
          "name": "_pid",
          "type": "uint256"
        },
        {
          "internalType": "uint256",
          "name": "_trancheId",
          "type": "uint256"
        },
        {
          "internalType": "bool",
          "name": "_harvestOnly",
          "type": "bool"
        },
        {
          "internalType": "uint256",
          "name": "_maxMarketMovement",
          "type": "uint256"
        }
      ],
      "name": "withdrawalFullServiceFromXChain",
      "outputs": [
        {
          "internalType": "uint256",
          "name": "_amountUSDC",
          "type": "uint256"
        },
        {
          "internalType": "uint256",
          "name": "_mintedZORRewards",
          "type": "uint256"
        },
        {
          "internalType": "uint256",
          "name": "_rewardsDueXChain",
          "type": "uint256"
        },
        {
          "internalType": "uint256",
          "name": "_slashedRewardsXChain",
          "type": "uint256"
        }
      ],
      "stateMutability": "nonpayable",
      "type": "function"
    },
    {
      "inputs": [],
      "name": "zorroControllerOracle",
      "outputs": [
        {
          "internalType": "address",
          "name": "",
          "type": "address"
        }
      ],
      "stateMutability": "view",
      "type": "function",
      "constant": true
    },
    {
      "inputs": [],
      "name": "zorroLPPool",
      "outputs": [
        {
          "internalType": "address",
          "name": "",
          "type": "address"
        }
      ],
      "stateMutability": "view",
      "type": "function",
      "constant": true
    },
    {
      "inputs": [],
      "name": "zorroLPPoolOtherToken",
      "outputs": [
        {
          "internalType": "address",
          "name": "",
          "type": "address"
        }
      ],
      "stateMutability": "view",
      "type": "function",
      "constant": true
    },
    {
      "inputs": [],
      "name": "zorroStakingVault",
      "outputs": [
        {
          "internalType": "address",
          "name": "",
          "type": "address"
        }
      ],
      "stateMutability": "view",
      "type": "function",
      "constant": true
    },
    {
      "inputs": [],
      "name": "zorroXChainEndpoint",
      "outputs": [
        {
          "internalType": "address",
          "name": "",
          "type": "address"
        }
      ],
      "stateMutability": "view",
      "type": "function",
      "constant": true
    },
    {
      "inputs": [
        {
          "components": [
            {
              "internalType": "address",
              "name": "ZORRO",
              "type": "address"
            },
            {
              "internalType": "address",
              "name": "defaultStablecoin",
              "type": "address"
            },
            {
              "internalType": "address",
              "name": "zorroLPPoolOtherToken",
              "type": "address"
            },
            {
              "internalType": "address",
              "name": "publicPool",
              "type": "address"
            },
            {
              "internalType": "address",
              "name": "zorroStakingVault",
              "type": "address"
            },
            {
              "internalType": "address",
              "name": "zorroLPPool",
              "type": "address"
            },
            {
              "internalType": "address",
              "name": "uniRouterAddress",
              "type": "address"
            },
            {
              "internalType": "address[]",
              "name": "USDCToZorroPath",
              "type": "address[]"
            },
            {
              "internalType": "address[]",
              "name": "USDCToZorroLPPoolOtherTokenPath",
              "type": "address[]"
            },
            {
              "components": [
                {
                  "internalType": "uint256",
                  "name": "blocksPerDay",
                  "type": "uint256"
                },
                {
                  "internalType": "uint256",
                  "name": "startBlock",
                  "type": "uint256"
                },
                {
                  "internalType": "uint256",
                  "name": "ZORROPerBlock",
                  "type": "uint256"
                },
                {
                  "internalType": "uint256",
                  "name": "targetTVLCaptureBasisPoints",
                  "type": "uint256"
                },
                {
                  "internalType": "uint256",
                  "name": "chainMultiplier",
                  "type": "uint256"
                },
                {
                  "internalType": "uint256",
                  "name": "baseRewardRateBasisPoints",
                  "type": "uint256"
                }
              ],
              "internalType": "struct ZorroController.ZorroControllerRewards",
              "name": "rewards",
              "type": "tuple"
            },
            {
              "components": [
                {
                  "internalType": "uint256",
                  "name": "chainId",
                  "type": "uint256"
                },
                {
                  "internalType": "uint256",
                  "name": "homeChainId",
                  "type": "uint256"
                },
                {
                  "internalType": "address",
                  "name": "homeChainZorroController",
                  "type": "address"
                },
                {
                  "internalType": "address",
                  "name": "zorroControllerOracle",
                  "type": "address"
                },
                {
                  "internalType": "address",
                  "name": "zorroXChainEndpoint",
                  "type": "address"
                }
              ],
              "internalType": "struct ZorroController.ZorroControllerXChainParams",
              "name": "xChain",
              "type": "tuple"
            },
            {
              "components": [
                {
                  "internalType": "address",
                  "name": "priceFeedZOR",
                  "type": "address"
                },
                {
                  "internalType": "address",
                  "name": "priceFeedLPPoolOtherToken",
                  "type": "address"
                }
              ],
              "internalType": "struct ZorroController.ZorroControllerPriceFeeds",
              "name": "priceFeeds",
              "type": "tuple"
            }
          ],
          "internalType": "struct ZorroController.ZorroControllerInit",
          "name": "_initValue",
          "type": "tuple"
        }
      ],
      "name": "initialize",
      "outputs": [],
      "stateMutability": "nonpayable",
      "type": "function"
    }
  ],
  "bytecode": "0x608060405234801561001057600080fd5b506140c5806100206000396000f3fe608060405234801561001057600080fd5b50600436106103e55760003560e01c8063745af0a81161020a578063b22f325111610125578063cff38dd4116100b8578063ef12696711610087578063ef126967146108db578063f2fde38b146108e4578063f35e4a6e146108f7578063f63cce371461090a578063fc39a29e1461091d57600080fd5b8063cff38dd41461088f578063ebfba7c4146108a2578063ed43633f146108b5578063ee4e2687146108c857600080fd5b8063c2936142116100f4578063c293614214610857578063c4e94f2214610860578063c6d758cb14610873578063cb9c2f681461088657600080fd5b8063b22f3251146107de578063b4b4e9eb146107f1578063b61bb80a14610831578063bdb2fc8b1461084457600080fd5b8063941d3fd01161019d5780639a8a05921161016c5780639a8a0592146107a65780639cebd371146107af5780639ec68c76146107b8578063a4d2b083146107cb57600080fd5b8063941d3fd014610749578063958e2d311461076d578063985b0a0d146107805780639a448c0c1461079357600080fd5b8063823c43d0116101d9578063823c43d0146106ff5780638766eb08146107125780638c157db2146107255780638da5cb5b1461073857600080fd5b8063745af0a8146106b357806379777d81146106c65780637bf604d8146106d95780637e37c769146106ec57600080fd5b80634780f9f5116103055780635f70edcf11610298578063693a090b11610267578063693a090b146106695780636b8eb2e51461067c5780636c78d49c1461068f57806370d5ae05146106a2578063715018a6146106ab57600080fd5b80635f70edcf14610628578063630b5ba11461063b57806364482f7914610643578063668ababb1461065657600080fd5b806351eb05a6116102d457806351eb05a6146105e657806353f73f87146105f95780635527a6f91461060c5780635c63fa871461061557600080fd5b80634780f9f5146105ae57806348cd4cb1146105c15780634cfea68a146105ca5780635051d371146105d357600080fd5b80633332fcf41161037d5780633b7106881161034c5780633b710688146105565780633b9ce5651461055f5780633bbc1ffc1461056857806340abd8fc1461057b57600080fd5b80633332fcf41461050a57806333cfcd3b1461051d578063363530f61461053057806339e80a881461054357600080fd5b8063104a6132116103b9578063104a61321461043c5780631526fe271461046757806317caf6f1146104b65780632e31283d146104bf57600080fd5b8062aeef8a146103ea578063068f158d146103ff578063081e3eda146104125780630aa0988e14610429575b600080fd5b6103fd6103f836600461354b565b610930565b005b6103fd61040d366004613597565b6109eb565b60a7545b6040519081526020015b60405180910390f35b6103fd610437366004613597565b610a43565b61044f61044a3660046135d0565b610a9b565b6040516001600160a01b039091168152602001610420565b61047a6104753660046135d0565b610ac5565b604080516001600160a01b03978816815260208101969096528501939093526060840191909152608083015290911660a082015260c001610420565b61041660a35481565b61044f6104cd3660046136c7565b60a960209081526000938452604080852084518086018401805192815290840195840195909520945292905282529020546001600160a01b031681565b6103fd610518366004613793565b610b18565b61041661052b3660046137d5565b610b59565b6103fd61053e366004613974565b610bf1565b60b25461044f906001600160a01b031681565b61041660a25481565b61041660a05481565b6103fd6105763660046135d0565b610e48565b61058e610589366004613abb565b610ec3565b604080519485526020850193909352918301526060820152608001610420565b6103fd6105bc366004613b3a565b610f2a565b610416609b5481565b610416609c5481565b6103fd6105e1366004613b6c565b610fd0565b6104166105f43660046135d0565b61101c565b610416610607366004613b89565b611154565b610416609f5481565b6103fd610623366004613bae565b61117e565b6103fd610636366004613bdc565b6111d2565b61041661138b565b6103fd6106513660046137d5565b61141f565b60995461044f906001600160a01b031681565b60ad5461044f906001600160a01b031681565b6103fd61068a366004613c2f565b6114d0565b6103fd61069d366004613c6a565b6115a8565b61044f61dead81565b6103fd6115f0565b6104166106c1366004613c87565b611626565b60b15461044f906001600160a01b031681565b60ab5461044f906001600160a01b031681565b6103fd6106fa366004613b3a565b61169e565b60aa5461044f906001600160a01b031681565b610416610720366004613cc6565b61181d565b60975461044f906001600160a01b031681565b6033546001600160a01b031661044f565b60aa5461075d90600160a01b900460ff1681565b6040519015158152602001610420565b6103fd61077b3660046135d0565b611ab6565b61041661078e366004613cc6565b611b1e565b61044f6107a13660046135d0565b611d0a565b61041660a45481565b61041660a15481565b6103fd6107c6366004613597565b611d1a565b609a5461044f906001600160a01b031681565b60b05461044f906001600160a01b031681565b6108046107ff366004613cc6565b611d72565b604080519687526020870195909552938501929092526060840152608083015260a082015260c001610420565b60985461044f906001600160a01b031681565b6103fd610852366004613793565b611dd3565b610416609d5481565b6103fd61086e366004613b6c565b611e10565b6103fd610881366004613cfe565b611e5c565b610416609e5481565b6103fd61089d366004613d2a565b611f16565b60ac5461044f906001600160a01b031681565b6103fd6108c3366004613da7565b611f7f565b6103fd6108d6366004613b6c565b611ff5565b61041660a55481565b6103fd6108f2366004613b6c565b612041565b6103fd6109053660046135d0565b6120dc565b6103fd610918366004613597565b612153565b60a65461044f906001600160a01b031681565b6002606554141561095c5760405162461bcd60e51b815260040161095390613e34565b60405180910390fd5b6002606581905550600060a7848154811061097957610979613e6b565b6000918252602090912060069091020180549091506109a2906001600160a01b031630856121f7565b600581015481546109c2916001600160a01b0391821691339116866122e2565b6109df84336040518060200160405280600081525086864261231a565b50506001606555505050565b6033546001600160a01b03163314610a155760405162461bcd60e51b815260040161095390613e81565b60b080546001600160a01b039384166001600160a01b03199182161790915560b18054929093169116179055565b6033546001600160a01b03163314610a6d5760405162461bcd60e51b815260040161095390613e81565b609780546001600160a01b039384166001600160a01b03199182161790915560988054929093169116179055565b60ae8181548110610aab57600080fd5b6000918252602090912001546001600160a01b0316905081565b60a78181548110610ad557600080fd5b60009182526020909120600690910201805460018201546002830154600384015460048501546005909501546001600160a01b0394851696509294919390921686565b6033546001600160a01b03163314610b425760405162461bcd60e51b815260040161095390613e81565b8051610b559060ae9060208401906134d1565b5050565b600060026065541415610b7e5760405162461bcd60e51b815260040161095390613e34565b60026065819055506000610ba48533604051806020016040528060008152508787612507565b9050610be333826000015160a78881548110610bc257610bc2613e6b565b60009182526020909120600690910201546001600160a01b0316919061298a565b516001606555949350505050565b600054610100900460ff16610c0c5760005460ff1615610c10565b303b155b610c735760405162461bcd60e51b815260206004820152602e60248201527f496e697469616c697a61626c653a20636f6e747261637420697320616c72656160448201526d191e481a5b9a5d1a585b1a5e995960921b6064820152608401610953565b600054610100900460ff16158015610c95576000805461ffff19166101011790555b8151609780546001600160a01b03199081166001600160a01b039384161790915560208085015160988054841691851691909117905560408086015160ac80548516918616919091179055606080870151609980548616918716919091179055608080880151609a8054871691881691909117905560a08089015160ab8054881691891691909117905560c089015160ad805488169189169190911790556001609f556014905560aa80546101208a01518051609c5580870151609b5580860151609d5580850151609e5583015160a181905560a2556101408a0151805160a4558087015160a5559485015160a680548916918a1691909117905592840151600160a01b6001600160a81b03199094169088161792909217909155015160b28054909316931692909217905560e08301518051610dd69260ae9201906134d1565b506101008201518051610df19160af916020909101906134d1565b50610160820151805160b080546001600160a01b03199081166001600160a01b039384161790915560209092015160b180549093169116179055610e336129bf565b8015610b55576000805461ff00191690555050565b6033546001600160a01b03163314610e725760405162461bcd60e51b815260040161095390613e81565b60a6546001600160a01b03163014610ebe5760405162461bcd60e51b815260206004820152600f60248201526e37b7363c903437b6b29031b430b4b760891b6044820152606401610953565b609e55565b60b2546000908190819081906001600160a01b0316336001600160a01b031614610f1d5760405162461bcd60e51b815260206004820152600b60248201526a78636861696e206f6e6c7960a81b6044820152606401610953565b9650965096509692505050565b60026065541415610f4d5760405162461bcd60e51b815260040161095390613e34565b6002606581905550600060a78581548110610f6a57610f6a613e6b565b60009182526020909120600560069092020101546098546001600160a01b039182169250610f9a911630866121f7565b609854610fb2906001600160a01b03163383876122e2565b6109df853360405180602001604052806000815250878742886129ee565b6033546001600160a01b03163314610ffa5760405162461bcd60e51b815260040161095390613e81565b60aa80546001600160a01b0319166001600160a01b0392909216919091179055565b60008060a7838154811061103257611032613e6b565b90600052602060002090600602019050806002015443116110565750600092915050565b600061106f826002015443612ae690919063ffffffff16565b905060006110a260a35461109c8560010154611096609d5487612af290919063ffffffff16565b90612af2565b90612afe565b60a6549091506001600160a01b03163014156110ca576110c181612b0a565b60009350611132565b6097546040516340c10f1960e01b8152306004820152602481018390526001600160a01b03909116906340c10f1990604401600060405180830381600087803b15801561111657600080fd5b505af115801561112a573d6000803e3d6000fd5b505050508093505b60038301546111419082612b28565b6003840155505043600290910155919050565b600082815260a8602090815260408083206001600160a01b03851684529091529020545b92915050565b6033546001600160a01b031633146111a85760405162461bcd60e51b815260040161095390613e81565b60a49290925560a55560a680546001600160a01b0319166001600160a01b03909216919091179055565b6033546001600160a01b031633146111fc5760405162461bcd60e51b815260040161095390613e81565b811561120c5761120a61138b565b505b6000609b54431161121f57609b54611221565b435b60a3549091506112319086612b28565b60a3556040805160c0810182526001600160a01b039586168152602081019687529081019182526000606082018181526080830182815294871660a0840190815260a780546001810182559352925160069092027fb68792697ed876af8b4858b316f5b54d81f6861191ad2950c1fde6c3dc7b3dea810180549389166001600160a01b031994851617905597517fb68792697ed876af8b4858b316f5b54d81f6861191ad2950c1fde6c3dc7b3deb89015592517fb68792697ed876af8b4858b316f5b54d81f6861191ad2950c1fde6c3dc7b3dec88015591517fb68792697ed876af8b4858b316f5b54d81f6861191ad2950c1fde6c3dc7b3ded87015591517fb68792697ed876af8b4858b316f5b54d81f6861191ad2950c1fde6c3dc7b3dee86015590517fb68792697ed876af8b4858b316f5b54d81f6861191ad2950c1fde6c3dc7b3def909401805494909316931692909217905550565b60a754600090815b8181101561141a576040516328f582d360e11b8152600481018290526114089030906351eb05a6906024016020604051808303816000875af11580156113dd573d6000803e3d6000fd5b505050506040513d601f19601f820116820180604052508101906114019190613eb6565b8490612b28565b925061141381613ee5565b9050611393565b505090565b6033546001600160a01b031633146114495760405162461bcd60e51b815260040161095390613e81565b80156114595761145761138b565b505b61149c8261149660a7868154811061147357611473613e6b565b90600052602060002090600602016001015460a354612ae690919063ffffffff16565b90612b28565b60a3819055508160a784815481106114b6576114b6613e6b565b906000526020600020906006020160010181905550505050565b60aa546001600160a01b0316336001600160a01b0316146115275760405162461bcd60e51b81526020600482015260116024820152706f6e6c79205a6f72726f206f7261636c6560781b6044820152606401610953565b600061155161153884612710612af2565b61109c866110968960a254612af290919063ffffffff16565b905060a054811115611566575060a054611575565b609f548110156115755750609f545b609c5461159d9061158c9061109689612710612af2565b60a15461109c906110968686612af2565b609d55505050505050565b6033546001600160a01b031633146115d25760405162461bcd60e51b815260040161095390613e81565b60aa8054911515600160a01b0260ff60a01b19909216919091179055565b6033546001600160a01b0316331461161a5760405162461bcd60e51b815260040161095390613e81565b6116246000612b34565b565b60006002606554141561164b5760405162461bcd60e51b815260040161095390613e34565b60026065819055506000611672336040518060200160405280600081525088888888612b86565b5050609854919250611690916001600160a01b03169050338361298a565b600160655595945050505050565b600260655414156116c15760405162461bcd60e51b815260040161095390613e34565b6002606555600084815260a86020908152604080832033845290915281208054859081106116f1576116f1613e6b565b600091825260208083206003600690930201919091015487835260a8825260408084203385529092529082208054919350908690811061173357611733613e6b565b9060005260206000209060060201600401549050600061176733604051806020016040528060008152508989600089612b86565b50505090506060609860009054906101000a90046001600160a01b03168160008151811061179757611797613e6b565b60200260200101906001600160a01b031690816001600160a01b0316815250506117d58633604051806020016040528060008152508588888b6129ee565b604051338152869088908a907f67e7aba7263d8fbeb0cd9a2f4008f060a6a03f46c1d7f9d0550f0b93e96e96f89060200160405180910390a450506001606555505050505050565b60008060a7858154811061183357611833613e6b565b9060005260206000209060060201905060008160050160009054906101000a90046001600160a01b03166001600160a01b03166344a3955e6040518163ffffffff1660e01b8152600401602060405180830381865afa15801561189a573d6000803e3d6000fd5b505050506040513d601f19601f820116820180604052508101906118be9190613eb6565b9050600060a787815481106118d5576118d5613e6b565b600091825260209182902060056006909202010154604080516342da4eb360e01b815290516001600160a01b03909216926342da4eb3926004808401938290030181865afa15801561192b573d6000803e3d6000fd5b505050506040513d601f19601f8201168201806040525081019061194f9190613eb6565b90508161195b57600093505b6000851215611a205760006119708888611154565b905060005b81811015611a1957600089815260a8602090815260408083206001600160a01b038c16845290915281208054839081106119b1576119b1613e6b565b9060005260206000209060060201905060006119e5826001015461109c620f42408560000154612af290919063ffffffff16565b9050611a046119fd8761109c620f424081868b612af2565b8990612b28565b9750505080611a1290613ee5565b9050611975565b5050611aac565b600087815260a8602090815260408083206001600160a01b038a1684529091528120805487908110611a5457611a54613e6b565b90600052602060002090600602019050600081600501541115611aa557611a9e611a978461109c846001015461109c878760000154612af290919063ffffffff16565b8690612b28565b9450611aaa565b600094505b505b5050509392505050565b60026065541415611ad95760405162461bcd60e51b815260040161095390613e34565b60026065556000611aea8233611154565b905060005b81811015611b1457611b0383826000610b59565b50611b0d81613ee5565b9050611aef565b5050600160655550565b60008060a78581548110611b3457611b34613e6b565b906000526020600020906006020190506000816003015490508160020154431115611baa576000611b72836002015443612ae690919063ffffffff16565b90506000611b9960a35461109c8660010154611096609d5487612af290919063ffffffff16565b9050611ba58382612b28565b925050505b6004820154611bbe57600092505050611d03565b6000841215611c83576000611bd38787611154565b905060005b81811015611c7c57600088815260a8602090815260408083206001600160a01b038b1684529091528120805483908110611c1457611c14613e6b565b90600052602060002090600602019050806005015460001415611c6b57611c68611c618260020154611c5b886004015461109c898760000154612af290919063ffffffff16565b90612ae6565b8790612b28565b95505b50611c7581613ee5565b9050611bd8565b5050611d00565b600086815260a8602090815260408083206001600160a01b03891684529091528120805486908110611cb757611cb7613e6b565b90600052602060002090600602019050806005015460001415611cfa57600281015460048401548254611cf39291611c5b9161109c9087612af2565b9350611aac565b60009350505b50505b9392505050565b60af8181548110610aab57600080fd5b6033546001600160a01b03163314611d445760405162461bcd60e51b815260040161095390613e81565b60ab80546001600160a01b039384166001600160a01b03199182161790915560ac8054929093169116179055565b60a86020528260005260406000206020528160005260406000208181548110611d9a57600080fd5b60009182526020909120600690910201805460018201546002830154600384015460048501546005909501549397509195509350919086565b6033546001600160a01b03163314611dfd5760405162461bcd60e51b815260040161095390613e81565b8051610b559060af9060208401906134d1565b6033546001600160a01b03163314611e3a5760405162461bcd60e51b815260040161095390613e81565b60b280546001600160a01b0319166001600160a01b0392909216919091179055565b6033546001600160a01b03163314611e865760405162461bcd60e51b815260040161095390613e81565b6097546001600160a01b0383811691161415611f025760405162461bcd60e51b815260206004820152603560248201527f217361666520746f20757365205a6f72726f20746f6b656e20696e2066756e6360448201527420696e43617365546f6b656e73476574537475636b60581b6064820152608401610953565b610b556001600160a01b038316338361298a565b60b2546001600160a01b0316336001600160a01b031614611f675760405162461bcd60e51b815260206004820152600b60248201526a78636861696e206f6e6c7960a81b6044820152606401610953565b611f76878787878787876129ee565b50505050505050565b6033546001600160a01b03163314611fa95760405162461bcd60e51b815260040161095390613e81565b609c8590558383600081611fbf57611fbf613e6b565b6020029190910135609f555083836001818110611fde57611fde613e6b565b602002919091013560a0555060a25560a155505050565b6033546001600160a01b0316331461201f5760405162461bcd60e51b815260040161095390613e81565b60ad80546001600160a01b0319166001600160a01b0392909216919091179055565b6033546001600160a01b0316331461206b5760405162461bcd60e51b815260040161095390613e81565b6001600160a01b0381166120d05760405162461bcd60e51b815260206004820152602660248201527f4f776e61626c653a206e6577206f776e657220697320746865207a65726f206160448201526564647265737360d01b6064820152608401610953565b6120d981612b34565b50565b6033546001600160a01b031633146121065760405162461bcd60e51b815260040161095390613e81565b609b541561214e5760405162461bcd60e51b8152602060048201526015602482015274626c6f636b506172616d7320696d6d757461626c6560581b6044820152606401610953565b609b55565b6033546001600160a01b0316331461217d5760405162461bcd60e51b815260040161095390613e81565b60a6546001600160a01b031630146121c95760405162461bcd60e51b815260206004820152600f60248201526e37b7363c903437b6b29031b430b4b760891b6044820152606401610953565b609980546001600160a01b039384166001600160a01b031991821617909155609a8054929093169116179055565b604051636eb1769f60e11b81523060048201526001600160a01b038381166024830152600091839186169063dd62ed3e90604401602060405180830381865afa158015612248573d6000803e3d6000fd5b505050506040513d601f19601f8201168201806040525081019061226c9190613eb6565b6122769190613f00565b6040516001600160a01b0385166024820152604481018290529091506122dc90859063095ea7b360e01b906064015b60408051601f198184030181529190526020810180516001600160e01b03166001600160e01b031990931692909217909152612c87565b50505050565b6040516001600160a01b03808516602483015283166044820152606481018290526122dc9085906323b872dd60e01b906084016122a5565b60008060a7888154811061233057612330613e6b565b90600052602060002090600602019050600085116123885760405162461bcd60e51b81526020600482015260156024820152745f77616e74416d74206d757374206265203e20302160581b6044820152606401610953565b6123918861101c565b9150600061239f8888612d59565b600583015483549192506123c0916001600160a01b039081169116886121f7565b600060a78a815481106123d5576123d5613e6b565b600091825260209091206006909102016005015460405163ba0bb4ab60e01b81526001600160a01b038481166004830152602482018a90529091169063ba0bb4ab906044016020604051808303816000875af1158015612439573d6000803e3d6000fd5b505050506040513d601f19601f8201168201806040525081019061245d9190613eb6565b9050600061246a87612de1565b905060006124788383612e2c565b600486015490915061248a9082612b28565b600486015561249e8c858c84868d8d612e41565b8b8a6040516124ad9190613f44565b6040518091039020856001600160a01b03167fc6b1f1535b3bb3bdffa2f97a671ab7bd6f2512deec58103fa47eb40ed95274278c6040516124f091815260200190565b60405180910390a450505050509695505050505050565b6125326040518060800160405280600081526020016000815260200160008152602001600081525090565b6001600160a01b03851615801561254a575060008451115b8061256757506001600160a01b0385161580159061256757508351155b6125b35760405162461bcd60e51b815260206004820152601d60248201527f4f6e6c79206f6e65206163636f756e74207479706520616c6c6f7765640000006044820152606401610953565b60006125c187858789612fed565b9050600060a788815481106125d8576125d8613e6b565b90600052602060002090600602019050600082600001511161263c5760405162461bcd60e51b815260206004820152601960248201527f7472616e6368652e636f6e747269627574696f6e2069732030000000000000006044820152606401610953565b60008160040154116126905760405162461bcd60e51b815260206004820152601e60248201527f746f74616c5472616e636865436f6e747269627574696f6e73206973203000006044820152606401610953565b60a0820151156126d95760405162461bcd60e51b8152602060048201526014602482015273105b1c9958591e48195e1a5d1959081d985d5b1d60621b6044820152606401610953565b6126e28861101c565b6020840152600481015482516000916127049161109c9064e8d4a51000612af2565b905060006127308460400151611c5b64e8d4a5100061109c876003015487612af290919063ffffffff16565b905080156127ad57600080612745868461318f565b9150915060a55460a4541415612786578115612765576127658b8361321b565b801561278157609a54612781906001600160a01b03168261321b565b6127aa565b61279b61dead6127968484612b28565b61321b565b60408701829052606087018190525b50505b8561297d5760a78a815481106127c5576127c5613e6b565b6000918252602090912060069091020160050154845160405163706655fd60e11b81526001600160a01b038c81166004830152602482019290925291169063e0ccabfa906044016020604051808303816000875af115801561282b573d6000803e3d6000fd5b505050506040513d601f19601f8201168201806040525081019061284f9190613eb6565b508351600484015461286091612ae6565b60048481019190915583546040516370a0823160e01b815230928101929092526001600160a01b0316906370a0823190602401602060405180830381865afa1580156128b0573d6000803e3d6000fd5b505050506040513d601f19601f820116820180604052508101906128d49190613eb6565b855260008a815260a8602090815260408083206001600160a01b038d168452909152902080544291908990811061290d5761290d613e6b565b90600052602060002090600602016005018190555089886040516129319190613f44565b6040805191829003822088518b84526020840152916001600160a01b038d16917fa7749cd42821d3b82a6814af6d80712b2e43f98ec1b25aee31c8351855de65d9910160405180910390a45b5050505095945050505050565b6040516001600160a01b0383166024820152604481018290526129ba90849063a9059cbb60e01b906064016122a5565b505050565b600054610100900460ff166129e65760405162461bcd60e51b815260040161095390613f60565b6116246132b1565b600060a78881548110612a0357612a03613e6b565b600091825260208220600691909102016005015460405163e502a88d60e01b815260048101889052602481018590526001600160a01b039091169250829190829063e502a88d906044016020604051808303816000875af1158015612a6c573d6000803e3d6000fd5b505050506040513d601f19601f82011682018060405250810190612a909190613eb6565b9050612acb838260a78d81548110612aaa57612aaa613e6b565b60009182526020909120600690910201546001600160a01b031691906121f7565b612ad98a8a8a848a8a61231a565b5050505050505050505050565b6000611d038284613fab565b6000611d038284613fc2565b6000611d038284613fe1565b6099546097546120d9916001600160a01b03918216911630846122e2565b6000611d038284613f00565b603380546001600160a01b038381166001600160a01b0319831681179093556040519116919082907f8be0079c531659141344cd1fd0a4f28419497f9722a3daafe3b4186f6b6457e090600090a35050565b600080600080600060a78981548110612ba157612ba1613e6b565b600091825260208220600560069092020101546001600160a01b031691508190612bce8b8e8e8d8d612507565b9050612bec83826000015160a78e81548110612aaa57612aaa613e6b565b8051604051631921e52960e21b81526004810191909152602481018990526001600160a01b0383169063648794a4906044016020604051808303816000875af1158015612c3d573d6000803e3d6000fd5b505050506040513d601f19601f82011682018060405250810190612c619190613eb6565b60208201516040830151606090930151919f909e50919c509a5098505050505050505050565b6000612cdc826040518060400160405280602081526020017f5361666545524332303a206c6f772d6c6576656c2063616c6c206661696c6564815250856001600160a01b03166132e19092919063ffffffff16565b8051909150156129ba5780806020019051810190612cfa9190614003565b6129ba5760405162461bcd60e51b815260206004820152602a60248201527f5361666545524332303a204552433230206f7065726174696f6e20646964206e6044820152691bdd081cdd58d8d9595960b21b6064820152608401610953565b816001600160a01b038116611178576000825111612dce5760405162461bcd60e51b815260206004820152602c60248201527f4e65697468657220666f726569676e2061636374206e6f72206c6f63616c206160448201526b18d8dd081c1c9bdd9a59195960a21b6064820152608401610953565b612dd782614020565b60601c9392505050565b60aa5464e8d4a5100090600160a01b900460ff1615612e2757612e2464e8d4a510006114966103e861109c60026110968581612e1f8b612710612af2565b6132f0565b90505b919050565b6000611d0364e8d4a5100061109c8585612af2565b600060a78881548110612e5657612e56613e6b565b600091825260208083206040805160c08082018352600690950290920180546001600160a01b03908116845260018201548486015260028201548484015260038201546060850190815260048301546080860190815260059093015490911660a0850152825195860183528b86529385018a9052519251919550830191612ee19161109c908b612af2565b815260208082018790526040808301879052600060609384018190528d815260a883528181206001600160a01b038e1682528352818120805460018181018355918352918490208651600690930201918255928501519281019290925583015160028201559082015160038201556080820151600482015560a0820151600590910155875190915015612fe2578760a960008b815260200190815260200160002088604051612f909190613f44565b90815260200160405180910390206000612faf6001611c5b8e8e611154565b815260200190815260200160002060006101000a8154816001600160a01b0302191690836001600160a01b031602179055505b505050505050505050565b6130266040518060c001604052806000815260200160008152602001600081526020016000815260200160008152602001600081525090565b6001600160a01b0382166130c457600085815260a8602090815260408083206001600160a01b0386168452909152902080548590811061306857613068613e6b565b90600052602060002090600602016040518060c001604052908160008201548152602001600182015481526020016002820154815260200160038201548152602001600482015481526020016005820154815250509050613187565b600085815260a9602052604080822090516130e0908690613f44565b908152604080516020928190038301902060008881529083528181205489825260a884528282206001600160a01b039091168083529352208054919250908690811061312e5761312e613e6b565b90600052602060002090600602016040518060c001604052908160008201548152602001600182015481526020016002820154815260200160038201548152602001600482015481526020016005820154815250509150505b949350505050565b600080600083116131a557506000905080613214565b60006131d342611c5b6131c862093a808960600151612af290919063ffffffff16565b608089015190612b28565b9050801561320e5760608501516131fb906131f19062093a80612af2565b61109c8684612af2565b91506132078483612ae6565b9250613212565b8392505b505b9250929050565b6097546040516370a0823160e01b815230600482015282916000916001600160a01b03909116906370a0823190602401602060405180830381865afa158015613268573d6000803e3d6000fd5b505050506040513d601f19601f8201168201806040525081019061328c9190613eb6565b90508083111561329a578091505b6097546122dc906001600160a01b0316858461298a565b600054610100900460ff166132d85760405162461bcd60e51b815260040161095390613f60565b61162433612b34565b60606131878484600085613367565b6000816132ff57506000919050565b6003821161330f57506001919050565b6000600261331e846001613f00565b6133289190613fe1565b90508291505b81811015613361579050806002816133468186613fe1565b6133509190613f00565b61335a9190613fe1565b905061332e565b50919050565b6060824710156133c85760405162461bcd60e51b815260206004820152602660248201527f416464726573733a20696e73756666696369656e742062616c616e636520666f6044820152651c8818d85b1b60d21b6064820152608401610953565b6001600160a01b0385163b61341f5760405162461bcd60e51b815260206004820152601d60248201527f416464726573733a2063616c6c20746f206e6f6e2d636f6e74726163740000006044820152606401610953565b600080866001600160a01b0316858760405161343b9190613f44565b60006040518083038185875af1925050503d8060008114613478576040519150601f19603f3d011682016040523d82523d6000602084013e61347d565b606091505b509150915061348d828286613498565b979650505050505050565b606083156134a7575081611d03565b8251156134b75782518084602001fd5b8160405162461bcd60e51b8152600401610953919061405c565b828054828255906000526020600020908101928215613526579160200282015b8281111561352657825182546001600160a01b0319166001600160a01b039091161782556020909201916001909101906134f1565b50613532929150613536565b5090565b5b808211156135325760008155600101613537565b60008060006060848603121561356057600080fd5b505081359360208301359350604090920135919050565b6001600160a01b03811681146120d957600080fd5b8035612e2781613577565b600080604083850312156135aa57600080fd5b82356135b581613577565b915060208301356135c581613577565b809150509250929050565b6000602082840312156135e257600080fd5b5035919050565b634e487b7160e01b600052604160045260246000fd5b60405161018081016001600160401b0381118282101715613622576136226135e9565b60405290565b604051601f8201601f191681016001600160401b0381118282101715613650576136506135e9565b604052919050565b600082601f83011261366957600080fd5b81356001600160401b03811115613682576136826135e9565b613695601f8201601f1916602001613628565b8181528460208386010111156136aa57600080fd5b816020850160208301376000918101602001919091529392505050565b6000806000606084860312156136dc57600080fd5b8335925060208401356001600160401b038111156136f957600080fd5b61370586828701613658565b925050604084013590509250925092565b600082601f83011261372757600080fd5b813560206001600160401b03821115613742576137426135e9565b8160051b613751828201613628565b928352848101820192828101908785111561376b57600080fd5b83870192505b8483101561348d57823561378481613577565b82529183019190830190613771565b6000602082840312156137a557600080fd5b81356001600160401b038111156137bb57600080fd5b61318784828501613716565b80151581146120d957600080fd5b6000806000606084860312156137ea57600080fd5b83359250602084013591506040840135613803816137c7565b809150509250925092565b600060c0828403121561382057600080fd5b60405160c081018181106001600160401b0382111715613842576138426135e9565b8060405250809150823581526020830135602082015260408301356040820152606083013560608201526080830135608082015260a083013560a08201525092915050565b600060a0828403121561389957600080fd5b60405160a081018181106001600160401b03821117156138bb576138bb6135e9565b8060405250809150823581526020830135602082015260408301356138df81613577565b604082015260608301356138f281613577565b6060820152608083013561390581613577565b6080919091015292915050565b60006040828403121561392457600080fd5b604051604081018181106001600160401b0382111715613946576139466135e9565b604052905080823561395781613577565b8152602083013561396781613577565b6020919091015292915050565b60006020828403121561398657600080fd5b81356001600160401b038082111561399d57600080fd5b908301906102c082860312156139b257600080fd5b6139ba6135ff565b6139c38361358c565b81526139d16020840161358c565b60208201526139e26040840161358c565b60408201526139f36060840161358c565b6060820152613a046080840161358c565b6080820152613a1560a0840161358c565b60a0820152613a2660c0840161358c565b60c082015260e083013582811115613a3d57600080fd5b613a4987828601613716565b60e0830152506101008084013583811115613a6357600080fd5b613a6f88828701613716565b8284015250506101209150613a868683850161380e565b82820152613a98866101e08501613887565b610140820152613aac866102808501613912565b61016082015295945050505050565b60008060008060008060c08789031215613ad457600080fd5b8635613adf81613577565b955060208701356001600160401b03811115613afa57600080fd5b613b0689828a01613658565b95505060408701359350606087013592506080870135613b25816137c7565b8092505060a087013590509295509295509295565b60008060008060808587031215613b5057600080fd5b5050823594602084013594506040840135936060013592509050565b600060208284031215613b7e57600080fd5b8135611d0381613577565b60008060408385031215613b9c57600080fd5b8235915060208301356135c581613577565b600080600060608486031215613bc357600080fd5b8335925060208401359150604084013561380381613577565b60008060008060808587031215613bf257600080fd5b843593506020850135613c0481613577565b92506040850135613c14816137c7565b91506060850135613c2481613577565b939692955090935050565b600080600080600060a08688031215613c4757600080fd5b505083359560208501359550604085013594606081013594506080013592509050565b600060208284031215613c7c57600080fd5b8135611d03816137c7565b60008060008060808587031215613c9d57600080fd5b84359350602085013592506040850135613cb6816137c7565b9396929550929360600135925050565b600080600060608486031215613cdb57600080fd5b833592506020840135613ced81613577565b929592945050506040919091013590565b60008060408385031215613d1157600080fd5b8235613d1c81613577565b946020939093013593505050565b600080600080600080600060e0888a031215613d4557600080fd5b873596506020880135613d5781613577565b955060408801356001600160401b03811115613d7257600080fd5b613d7e8a828b01613658565b979a96995096976060810135975060808101359660a0820135965060c090910135945092505050565b600080600080600060808688031215613dbf57600080fd5b8535945060208601356001600160401b0380821115613ddd57600080fd5b818801915088601f830112613df157600080fd5b813581811115613e0057600080fd5b8960208260051b8501011115613e1557600080fd5b9699602092909201985095966040810135965060600135945092505050565b6020808252601f908201527f5265656e7472616e637947756172643a207265656e7472616e742063616c6c00604082015260600190565b634e487b7160e01b600052603260045260246000fd5b6020808252818101527f4f776e61626c653a2063616c6c6572206973206e6f7420746865206f776e6572604082015260600190565b600060208284031215613ec857600080fd5b5051919050565b634e487b7160e01b600052601160045260246000fd5b6000600019821415613ef957613ef9613ecf565b5060010190565b60008219821115613f1357613f13613ecf565b500190565b60005b83811015613f33578181015183820152602001613f1b565b838111156122dc5750506000910152565b60008251613f56818460208701613f18565b9190910192915050565b6020808252602b908201527f496e697469616c697a61626c653a20636f6e7472616374206973206e6f74206960408201526a6e697469616c697a696e6760a81b606082015260800190565b600082821015613fbd57613fbd613ecf565b500390565b6000816000190483118215151615613fdc57613fdc613ecf565b500290565b600082613ffe57634e487b7160e01b600052601260045260246000fd5b500490565b60006020828403121561401557600080fd5b8151611d03816137c7565b805160208201516bffffffffffffffffffffffff1980821692919060148310156140545780818460140360031b1b83161693505b505050919050565b602081526000825180602084015261407b816040850160208701613f18565b601f01601f1916919091016040019291505056fea2646970667358221220bfc482ebfa42c7490fa3bfe20dd6cfe1a111e889c5e23d5b72758ad98f885b2964736f6c634300080a0033",
  "immutableReferences": {},
  "source": "// SPDX-License-Identifier: MIT\npragma solidity ^0.8.0;\n\nimport \"./_ZorroControllerBase.sol\";\n\nimport \"./_ZorroControllerPoolMgmt.sol\";\n\nimport \"./_ZorroControllerInvestment.sol\";\n\nimport \"./_ZorroControllerAnalytics.sol\";\n\nimport \"./_ZorroControllerXChainReceiver.sol\";\n\nimport \"./_ZorroControllerXChainDeposit.sol\";\n\nimport \"./_ZorroControllerXChainWithdraw.sol\";\n\nimport \"./_ZorroControllerXChainEarn.sol\";\n\n/* Main Contract */\n/// @title ZorroController: The main controller of the Zorro yield farming protocol. Used for cash flow operations (deposit/withdrawal), managing vaults, and rewards allocations, among other things.\ncontract ZorroController is\n    ZorroControllerBase,\n    ZorroControllerPoolMgmt,\n    ZorroControllerAnalytics,\n    ZorroControllerInvestment\n{\n    /* Constructor */\n\n    /// @notice Upgradeable constructor\n    /// @param _initValue A ZorroControllerInit struct containing all constructor args\n    function initialize(ZorroControllerInit memory _initValue) public initializer {\n        // Tokens\n        ZORRO = _initValue.ZORRO;\n        defaultStablecoin = _initValue.defaultStablecoin;\n        zorroLPPoolOtherToken = _initValue.zorroLPPoolOtherToken;\n\n        // Key contracts\n        publicPool = _initValue.publicPool;\n        zorroStakingVault = _initValue.zorroStakingVault;\n        zorroLPPool = _initValue.zorroLPPool;\n        uniRouterAddress = _initValue.uniRouterAddress;\n\n        // Rewards\n        ZORRODailyDistributionFactorBasisPointsMin = 1;\n        ZORRODailyDistributionFactorBasisPointsMax = 20;\n        isTimeMultiplierActive = true;\n        blocksPerDay = _initValue.rewards.blocksPerDay;\n        startBlock = _initValue.rewards.startBlock;\n        ZORROPerBlock = _initValue.rewards.ZORROPerBlock;\n        targetTVLCaptureBasisPoints = _initValue\n            .rewards\n            .targetTVLCaptureBasisPoints;\n        chainMultiplier = _initValue.rewards.chainMultiplier;\n        baseRewardRateBasisPoints = _initValue.rewards.chainMultiplier;\n\n        // Cross chain\n        chainId = _initValue.xChain.chainId;\n        homeChainId = _initValue.xChain.homeChainId;\n        homeChainZorroController = _initValue.xChain.homeChainZorroController;\n        zorroControllerOracle = _initValue.xChain.zorroControllerOracle;\n        zorroXChainEndpoint = _initValue.xChain.zorroXChainEndpoint;\n\n        // Investment\n        USDCToZorroPath = _initValue.USDCToZorroPath;\n        USDCToZorroLPPoolOtherTokenPath = _initValue\n            .USDCToZorroLPPoolOtherTokenPath;\n\n        // Price feeds\n        priceFeedZOR = AggregatorV3Interface(\n            _initValue.priceFeeds.priceFeedZOR\n        );\n        priceFeedLPPoolOtherToken = AggregatorV3Interface(\n            _initValue.priceFeeds.priceFeedLPPoolOtherToken\n        );\n\n        // Ownable\n        __Ownable_init();\n    }\n\n    /* Structs */\n\n    struct ZorroControllerRewards {\n        uint256 blocksPerDay;\n        uint256 startBlock;\n        uint256 ZORROPerBlock;\n        uint256 targetTVLCaptureBasisPoints;\n        uint256 chainMultiplier;\n        uint256 baseRewardRateBasisPoints;\n    }\n\n    struct ZorroControllerXChainParams {\n        uint256 chainId;\n        uint256 homeChainId;\n        address homeChainZorroController;\n        address zorroControllerOracle;\n        address zorroXChainEndpoint;\n    }\n\n    struct ZorroControllerPriceFeeds {\n        address priceFeedZOR;\n        address priceFeedLPPoolOtherToken;\n    }\n\n    struct ZorroControllerInit {\n        address ZORRO;\n        address defaultStablecoin;\n        address zorroLPPoolOtherToken;\n        address publicPool;\n        address zorroStakingVault;\n        address zorroLPPool;\n        address uniRouterAddress;\n        address[] USDCToZorroPath;\n        address[] USDCToZorroLPPoolOtherTokenPath;\n        ZorroControllerRewards rewards;\n        ZorroControllerXChainParams xChain;\n        ZorroControllerPriceFeeds priceFeeds;\n    }\n}\n",
  "sourcePath": "/Users/kristophm/Documents/workspace/zorro-protocol/contracts/controllers/ZorroController.sol",
  "compiler": {
    "name": "solc",
    "version": "0.8.10+commit.fc410830.Emscripten.clang"
  },
  "schemaVersion": "3.4.4",
  "updatedAt": "2022-05-19T13:51:26.170Z",
  "networkType": "ethereum",
  "devdoc": {
    "kind": "dev",
    "methods": {
      "add(uint256,address,bool,address)": {
        "details": "DO NOT add the same Want token more than once. Rewards will be messed up if you do. (Only if Want tokens are stored here.)",
        "params": {
          "_allocPoint": "The number of allocation points for this pool (aka \"multiplier\")",
          "_vault": "The contract address of the underlying vault",
          "_want": "The address of the want token",
          "_withUpdate": "Mass update all pools if set to true"
        }
      },
      "deposit(uint256,uint256,uint256)": {
        "params": {
          "_pid": "index of pool",
          "_wantAmt": "how much Want token to deposit",
          "_weeksCommitted": "how many weeks the user is committing to on this vault"
        }
      },
      "depositFullService(uint256,uint256,uint256,uint256)": {
        "params": {
          "_maxMarketMovement": "factor to account for max market movement/slippage. The definition varies by Vault, so consult the associated Vault contract for info",
          "_pid": "index of pool to deposit into",
          "_valueUSDC": "value in USDC (in ether units) to deposit",
          "_weeksCommitted": "how many weeks to commit to the Pool (can be 0 or any uint)"
        }
      },
      "depositFullServiceFromXChain(uint256,address,bytes,uint256,uint256,uint256,uint256)": {
        "params": {
          "_account": "address of user on-chain",
          "_foreignAccount": "the cross chain wallet that initiated this call, if applicable.",
          "_maxMarketMovement": "factor to account for max market movement/slippage. The definition varies by Vault, so consult the associated Vault contract for info",
          "_pid": "index of pool to deposit into",
          "_valueUSDC": "value in USDC (in ether units) to deposit",
          "_vaultEnteredAt": "date that the vault was entered at",
          "_weeksCommitted": "how many weeks to commit to the Pool (can be 0 or any uint)"
        }
      },
      "inCaseTokensGetStuck(address,uint256)": {
        "details": "Does not permit usage for the Zorro token",
        "params": {
          "_amount": "token quantity",
          "_token": "ERC20 token address"
        }
      },
      "initialize((address,address,address,address,address,address,address,address[],address[],(uint256,uint256,uint256,uint256,uint256,uint256),(uint256,uint256,address,address,address),(address,address)))": {
        "params": {
          "_initValue": "A ZorroControllerInit struct containing all constructor args"
        }
      },
      "massUpdatePools()": {
        "details": "Be careful of gas fees!",
        "returns": {
          "_mintedZOR": "total amount of ZOR rewards minted (useful for cross chain)"
        }
      },
      "owner()": {
        "details": "Returns the address of the current owner."
      },
      "pendingZORRORewards(uint256,address,int256)": {
        "params": {
          "_account": "Wallet address of on chain account",
          "_pid": "Index of pool",
          "_trancheId": "Tranche ID. If -1, will do pending rewards for all active tranches"
        },
        "returns": {
          "pendingRewards": "Amount of Zorro rewards"
        }
      },
      "poolLength()": {
        "returns": {
          "_0": "Number of pools"
        }
      },
      "renounceOwnership()": {
        "details": "Leaves the contract without owner. It will not be possible to call `onlyOwner` functions anymore. Can only be called by the current owner. NOTE: Renouncing ownership will leave the contract without an owner, thereby removing any functionality that is only available to the owner."
      },
      "set(uint256,uint256,bool)": {
        "params": {
          "_allocPoint": "The number of allocation points for this pool (aka \"multiplier\")",
          "_pid": "The index of the pool ID",
          "_withUpdate": "Mass update all pools if set to true"
        }
      },
      "setIsTimeMultiplierActive(bool)": {
        "params": {
          "_isActive": "Whether it shall be active. If false, timemultiplier will be 1."
        }
      },
      "setKeyAddresses(address,address)": {
        "params": {
          "_ZORRO": "ZOR token address",
          "_defaultStablecoin": "Main stablecoin address (USDC)"
        }
      },
      "setPriceFeeds(address,address)": {
        "params": {
          "_priceFeedLPPoolOtherToken": "The address of the price feed for the counterparty token in the ZOR LP Pool",
          "_priceFeedZOR": "The address of the price feed for ZOR"
        }
      },
      "setRewardsParams(uint256,uint256[],uint256,uint256)": {
        "details": "NOTE: Must enter all parameters or existing ones will be overwritten!",
        "params": {
          "_baseRewardRateBasisPoints": "Base reward rate factor, in bp",
          "_blocksPerDay": "# of blocks per day for this chain",
          "_chainMultiplier": "Rewards multiplier factor to be applied to this chain",
          "_dailyDistFactors": "Array of [ZORRODailyDistributionFactorBasisPointsMin, ZORRODailyDistributionFactorBasisPointsMax]"
        }
      },
      "setTargetTVLCaptureBasisPoints(uint256)": {
        "params": {
          "_targetTVLCaptureBasisPoints": "Percent of market desired to be captured, in bp. 333 = 3.33%. ONLY to be set on the home chain"
        }
      },
      "setUSDCToZORPath(address[])": {
        "params": {
          "_path": "Swap path"
        }
      },
      "setUSDCToZorroLPPoolOtherTokenPath(address[])": {
        "params": {
          "_path": "Swap path"
        }
      },
      "setUniRouter(address)": {
        "params": {
          "_uniV2Router": "Address of router"
        }
      },
      "setXChainParams(uint256,uint256,address)": {
        "params": {
          "_chainId": "The ind of the chain that this contract is on",
          "_homeChainId": "The chain ID of the home chain",
          "_homeChainZorroController": "The address of the home chain controller"
        }
      },
      "setZorroContracts(address,address)": {
        "params": {
          "_publicPool": "Public pool address (where ZOR minted)",
          "_zorroStakingVault": "Zorro single staking vault address"
        }
      },
      "setZorroControllerOracle(address)": {
        "params": {
          "_zorroControllerOracle": "Address of Chainlink oracle that can interact with this contract"
        }
      },
      "setZorroLPPoolParams(address,address)": {
        "params": {
          "_zorroLPPool": "Address of the Zorro-X LP pool",
          "_zorroLPPoolOtherToken": "Address of the counterpart token to the ZOR token in the LP Pool"
        }
      },
      "setZorroPerBlock(uint256,uint256,uint256,uint256,uint256)": {
        "details": "Values to be provided by Oracle. Perferable to run daily",
        "params": {
          "_ZorroTotalVaultTVLUSD": "USD value of all TVL locked into the Zorro protocol, across all chains",
          "_publicPoolZORBalance": "Number of ZOR tokens remaining in public pool on home chain",
          "_targetTVLCaptureBasisPoints": "% desired capture of total market TVL, measured in basis points",
          "_totalChainMultipliers": "Sum total of all chain multipliers for each chain",
          "_totalMarketTVLUSD": "Total DeFi market TVL across all chains (measured in USD)"
        }
      },
      "setZorroXChainEndpoint(address)": {
        "params": {
          "_contract": "Contract address of endpoint"
        }
      },
      "stakedWantTokens(uint256,address,int256)": {
        "params": {
          "_account": "Wallet address of on chain account",
          "_pid": "Index of pool",
          "_trancheId": "Tranche ID, or -1 to aggregate across all tranches"
        },
        "returns": {
          "stakedWantAmt": "Amount of staked Want tokens"
        }
      },
      "trancheLength(uint256,address)": {
        "params": {
          "_pid": "Index of pool",
          "_user": "wallet address of user"
        },
        "returns": {
          "_0": "Number of tranches"
        }
      },
      "transferInvestment(uint256,uint256,uint256,uint256)": {
        "params": {
          "_fromPid": "index of pool FROM",
          "_fromTrancheId": "index of tranche FROM",
          "_maxMarketMovement": "factor to account for max market movement/slippage. The definition varies by Vault, so consult the associated Vault contract for info",
          "_toPid": "index of pool TO"
        }
      },
      "transferOwnership(address)": {
        "details": "Transfers ownership of the contract to a new account (`newOwner`). Can only be called by the current owner."
      },
      "updatePool(uint256)": {
        "params": {
          "_pid": "index of pool"
        },
        "returns": {
          "mintedZOR": "Amount of ZOR rewards minted (useful for cross chain)"
        }
      },
      "withdraw(uint256,uint256,bool)": {
        "params": {
          "_harvestOnly": "If true, will only harvest Zorro tokens but not do a withdrawal",
          "_pid": "index of pool",
          "_trancheId": "index of tranche"
        },
        "returns": {
          "_0": "Amount of Want token withdrawn"
        }
      },
      "withdrawAll(uint256)": {
        "params": {
          "_pid": "index of pool"
        }
      },
      "withdrawalFullService(uint256,uint256,bool,uint256)": {
        "params": {
          "_harvestOnly": "If true, will only harvest Zorro tokens but not do a withdrawal",
          "_maxMarketMovement": "factor to account for max market movement/slippage. The definition varies by Vault, so consult the associated Vault contract for info",
          "_pid": "index of pool to deposit into",
          "_trancheId": "index of tranche"
        },
        "returns": {
          "_0": "Amount (in USDC) returned"
        }
      },
      "withdrawalFullServiceFromXChain(address,bytes,uint256,uint256,bool,uint256)": {
        "params": {
          "_account": "address of wallet on-chain",
          "_foreignAccount": "address of wallet cross-chain (that originally made this deposit)",
          "_harvestOnly": "If true, will only harvest Zorro tokens but not do a withdrawal",
          "_maxMarketMovement": "factor to account for max market movement/slippage. The definition varies by Vault, so consult the associated Vault contract for info",
          "_pid": "index of pool to deposit into",
          "_trancheId": "index of tranche"
        },
        "returns": {
          "_amountUSDC": "Amount of USDC withdrawn",
          "_mintedZORRewards": "Amount of ZOR rewards minted (to be burned XChain)",
          "_rewardsDueXChain": "Amount of ZOR rewards due to the origin (cross chain) user",
          "_slashedRewardsXChain": "Amount of ZOR rewards to be slashed (and thus rewarded to ZOR stakers)"
        }
      }
    },
    "title": "ZorroController: The main controller of the Zorro yield farming protocol. Used for cash flow operations (deposit/withdrawal), managing vaults, and rewards allocations, among other things.",
    "version": 1
  },
  "userdoc": {
    "kind": "user",
    "methods": {
      "add(uint256,address,bool,address)": {
        "notice": "Adds a new pool. Can only be called by the owner."
      },
      "deposit(uint256,uint256,uint256)": {
        "notice": "Deposit Want tokens to associated Vault"
      },
      "depositFullService(uint256,uint256,uint256,uint256)": {
        "notice": "Deposits funds in a full service manner (performs autoswaps and obtains Want tokens)"
      },
      "depositFullServiceFromXChain(uint256,address,bytes,uint256,uint256,uint256,uint256)": {
        "notice": "Full service deposit function to be called by ZorroControllerXChain only."
      },
      "inCaseTokensGetStuck(address,uint256)": {
        "notice": "For owner to recover ERC20 tokens on this contract if stuck"
      },
      "initialize((address,address,address,address,address,address,address,address[],address[],(uint256,uint256,uint256,uint256,uint256,uint256),(uint256,uint256,address,address,address),(address,address)))": {
        "notice": "Upgradeable constructor"
      },
      "massUpdatePools()": {
        "notice": "Updates reward variables of all pools"
      },
      "pendingZORRORewards(uint256,address,int256)": {
        "notice": "View function to see pending ZORRO on frontend."
      },
      "poolLength()": {
        "notice": "Number of pools in the Zorro protocol"
      },
      "set(uint256,uint256,bool)": {
        "notice": "Update the given pool's ZORRO allocation point. Can only be called by the owner."
      },
      "setIsTimeMultiplierActive(bool)": {
        "notice": "Setter: Set time multiplier"
      },
      "setKeyAddresses(address,address)": {
        "notice": "Setter: Set key token addresses"
      },
      "setPriceFeeds(address,address)": {
        "notice": "Setter: Chainlink price feeds"
      },
      "setRewardsParams(uint256,uint256[],uint256,uint256)": {
        "notice": "Setter: Reward params (See Tokenomics paper for more details)"
      },
      "setStartBlock(uint256)": {
        "notice": "Setter: Start block for rewards"
      },
      "setTargetTVLCaptureBasisPoints(uint256)": {
        "notice": "Setter: TVL capture (See Tokenomics paper)"
      },
      "setUSDCToZORPath(address[])": {
        "notice": "Setter: Set path for token swap from USDC to ZOR"
      },
      "setUSDCToZorroLPPoolOtherTokenPath(address[])": {
        "notice": "Setter: Set path for token swap from USDC to counterparty token in ZOR LP pool"
      },
      "setUniRouter(address)": {
        "notice": "Setter: Uniswap-compatible router address"
      },
      "setXChainParams(uint256,uint256,address)": {
        "notice": "Setter: Cross chain params"
      },
      "setZorroContracts(address,address)": {
        "notice": "Setter: Set key ZOR contract addresses"
      },
      "setZorroControllerOracle(address)": {
        "notice": "Setter: Set Zorro Controller Oracle"
      },
      "setZorroLPPoolParams(address,address)": {
        "notice": "Setter: Zorro LP Pool params"
      },
      "setZorroPerBlock(uint256,uint256,uint256,uint256,uint256)": {
        "notice": "Set the number of Zorro to emit per block based on current market parameters"
      },
      "setZorroXChainEndpoint(address)": {
        "notice": "Setter: Cross chain endpoint"
      },
      "stakedWantTokens(uint256,address,int256)": {
        "notice": "View function to see staked Want tokens on frontend."
      },
      "trancheLength(uint256,address)": {
        "notice": "Number of tranches invested by a given user into a given pool"
      },
      "transferInvestment(uint256,uint256,uint256,uint256)": {
        "notice": "Transfer all assets from a tranche in one vault to a new vault (works on-chain only)"
      },
      "updatePool(uint256)": {
        "notice": "Update reward variables of the given pool to be up-to-date."
      },
      "withdraw(uint256,uint256,bool)": {
        "notice": "Fully withdraw Want tokens from underlying Vault."
      },
      "withdrawAll(uint256)": {
        "notice": "Withdraw the maximum number of Want tokens from a pool"
      },
      "withdrawalFullService(uint256,uint256,bool,uint256)": {
        "notice": "Withdraws funds from a pool and converts the Want token into USDC"
      },
      "withdrawalFullServiceFromXChain(address,bytes,uint256,uint256,bool,uint256)": {
        "notice": "Full service withdrawal to be called from authorized cross chain endpoint"
      }
    },
    "version": 1
  }
}