{
  "contractName": "ZorroControllerXChain",
  "abi": [
    {
      "anonymous": false,
      "inputs": [
        {
          "indexed": true,
          "internalType": "address",
          "name": "previousOwner",
          "type": "address"
        },
        {
          "indexed": true,
          "internalType": "address",
          "name": "newOwner",
          "type": "address"
        }
      ],
      "name": "OwnershipTransferred",
      "type": "event"
    },
    {
      "anonymous": false,
      "inputs": [
        {
          "indexed": true,
          "internalType": "uint256",
          "name": "_amountZOR",
          "type": "uint256"
        }
      ],
      "name": "RemovedSlashedRewards",
      "type": "event"
    },
    {
      "anonymous": false,
      "inputs": [
        {
          "indexed": true,
          "internalType": "uint256",
          "name": "_remoteChainId",
          "type": "uint256"
        },
        {
          "indexed": true,
          "internalType": "uint256",
          "name": "_buybackAmountUSDC",
          "type": "uint256"
        },
        {
          "indexed": true,
          "internalType": "uint256",
          "name": "_revShareAmountUSDC",
          "type": "uint256"
        }
      ],
      "name": "XChainDistributeEarnings",
      "type": "event"
    },
    {
      "anonymous": false,
      "inputs": [
        {
          "indexed": true,
          "internalType": "uint256",
          "name": "_pid",
          "type": "uint256"
        },
        {
          "indexed": true,
          "internalType": "address",
          "name": "_originRecipient",
          "type": "address"
        },
        {
          "indexed": true,
          "internalType": "uint256",
          "name": "_burnableZORRewards",
          "type": "uint256"
        },
        {
          "indexed": false,
          "internalType": "uint256",
          "name": "_trancheId",
          "type": "uint256"
        },
        {
          "indexed": false,
          "internalType": "uint256",
          "name": "_originChainId",
          "type": "uint256"
        }
      ],
      "name": "XChainRepatriation",
      "type": "event"
    },
    {
      "inputs": [
        {
          "internalType": "uint16",
          "name": "",
          "type": "uint16"
        }
      ],
      "name": "LZChainToZorroMap",
      "outputs": [
        {
          "internalType": "uint256",
          "name": "",
          "type": "uint256"
        }
      ],
      "stateMutability": "view",
      "type": "function"
    },
    {
      "inputs": [
        {
          "internalType": "uint256",
          "name": "",
          "type": "uint256"
        }
      ],
      "name": "USDCToZorroLPPoolOtherTokenPath",
      "outputs": [
        {
          "internalType": "address",
          "name": "",
          "type": "address"
        }
      ],
      "stateMutability": "view",
      "type": "function"
    },
    {
      "inputs": [
        {
          "internalType": "uint256",
          "name": "",
          "type": "uint256"
        }
      ],
      "name": "USDCToZorroPath",
      "outputs": [
        {
          "internalType": "address",
          "name": "",
          "type": "address"
        }
      ],
      "stateMutability": "view",
      "type": "function"
    },
    {
      "inputs": [],
      "name": "ZORRO",
      "outputs": [
        {
          "internalType": "address",
          "name": "",
          "type": "address"
        }
      ],
      "stateMutability": "view",
      "type": "function"
    },
    {
      "inputs": [
        {
          "internalType": "uint256",
          "name": "",
          "type": "uint256"
        }
      ],
      "name": "ZorroChainToLZMap",
      "outputs": [
        {
          "internalType": "uint16",
          "name": "",
          "type": "uint16"
        }
      ],
      "stateMutability": "view",
      "type": "function"
    },
    {
      "inputs": [],
      "name": "accumulatedSlashedRewards",
      "outputs": [
        {
          "internalType": "uint256",
          "name": "",
          "type": "uint256"
        }
      ],
      "stateMutability": "view",
      "type": "function"
    },
    {
      "inputs": [],
      "name": "burnAddress",
      "outputs": [
        {
          "internalType": "address",
          "name": "",
          "type": "address"
        }
      ],
      "stateMutability": "view",
      "type": "function"
    },
    {
      "inputs": [
        {
          "internalType": "uint256",
          "name": "_chainId",
          "type": "uint256"
        },
        {
          "internalType": "bytes",
          "name": "_dstContract",
          "type": "bytes"
        },
        {
          "internalType": "uint256",
          "name": "_pid",
          "type": "uint256"
        },
        {
          "internalType": "uint256",
          "name": "_valueUSDC",
          "type": "uint256"
        },
        {
          "internalType": "uint256",
          "name": "_weeksCommitted",
          "type": "uint256"
        },
        {
          "internalType": "uint256",
          "name": "_maxMarketMovement",
          "type": "uint256"
        },
        {
          "internalType": "bytes",
          "name": "_destWallet",
          "type": "bytes"
        }
      ],
      "name": "checkXChainDepositFee",
      "outputs": [
        {
          "internalType": "uint256",
          "name": "",
          "type": "uint256"
        }
      ],
      "stateMutability": "view",
      "type": "function"
    },
    {
      "inputs": [
        {
          "internalType": "uint256",
          "name": "_amountUSDCBuyback",
          "type": "uint256"
        },
        {
          "internalType": "uint256",
          "name": "_amountUSDCRevShare",
          "type": "uint256"
        },
        {
          "internalType": "uint256",
          "name": "_accSlashedRewards",
          "type": "uint256"
        },
        {
          "internalType": "uint256",
          "name": "_maxMarketMovement",
          "type": "uint256"
        }
      ],
      "name": "checkXChainDistributeEarningsFee",
      "outputs": [
        {
          "internalType": "uint256",
          "name": "",
          "type": "uint256"
        }
      ],
      "stateMutability": "view",
      "type": "function"
    },
    {
      "inputs": [
        {
          "internalType": "uint256",
          "name": "_originChainId",
          "type": "uint256"
        },
        {
          "internalType": "uint256",
          "name": "_pid",
          "type": "uint256"
        },
        {
          "internalType": "uint256",
          "name": "_trancheId",
          "type": "uint256"
        },
        {
          "internalType": "bytes",
          "name": "_originRecipient",
          "type": "bytes"
        },
        {
          "internalType": "uint256",
          "name": "_burnableZORRewards",
          "type": "uint256"
        },
        {
          "internalType": "uint256",
          "name": "_rewardsDue",
          "type": "uint256"
        },
        {
          "internalType": "uint256",
          "name": "_gasForDestinationLZReceive",
          "type": "uint256"
        }
      ],
      "name": "checkXChainRepatriationFee",
      "outputs": [
        {
          "internalType": "uint256",
          "name": "",
          "type": "uint256"
        }
      ],
      "stateMutability": "view",
      "type": "function"
    },
    {
      "inputs": [
        {
          "internalType": "uint256",
          "name": "_zorroChainId",
          "type": "uint256"
        },
        {
          "internalType": "uint256",
          "name": "_pid",
          "type": "uint256"
        },
        {
          "internalType": "uint256",
          "name": "_trancheId",
          "type": "uint256"
        },
        {
          "internalType": "uint256",
          "name": "_maxMarketMovement",
          "type": "uint256"
        },
        {
          "internalType": "uint256",
          "name": "_gasForDestinationLZReceive",
          "type": "uint256"
        }
      ],
      "name": "checkXChainWithdrawalFee",
      "outputs": [
        {
          "internalType": "uint256",
          "name": "",
          "type": "uint256"
        }
      ],
      "stateMutability": "view",
      "type": "function"
    },
    {
      "inputs": [
        {
          "internalType": "uint256",
          "name": "",
          "type": "uint256"
        }
      ],
      "name": "controllerContractsMap",
      "outputs": [
        {
          "internalType": "bytes",
          "name": "",
          "type": "bytes"
        }
      ],
      "stateMutability": "view",
      "type": "function"
    },
    {
      "inputs": [],
      "name": "currentChainController",
      "outputs": [
        {
          "internalType": "address",
          "name": "",
          "type": "address"
        }
      ],
      "stateMutability": "view",
      "type": "function"
    },
    {
      "inputs": [],
      "name": "defaultStablecoin",
      "outputs": [
        {
          "internalType": "address",
          "name": "",
          "type": "address"
        }
      ],
      "stateMutability": "view",
      "type": "function"
    },
    {
      "inputs": [],
      "name": "homeChainZorroController",
      "outputs": [
        {
          "internalType": "address",
          "name": "",
          "type": "address"
        }
      ],
      "stateMutability": "view",
      "type": "function"
    },
    {
      "inputs": [],
      "name": "layerZeroEndpoint",
      "outputs": [
        {
          "internalType": "address",
          "name": "",
          "type": "address"
        }
      ],
      "stateMutability": "view",
      "type": "function"
    },
    {
      "inputs": [
        {
          "internalType": "uint16",
          "name": "_srcChainId",
          "type": "uint16"
        },
        {
          "internalType": "bytes",
          "name": "_srcAddress",
          "type": "bytes"
        },
        {
          "internalType": "uint64",
          "name": "_nonce",
          "type": "uint64"
        },
        {
          "internalType": "bytes",
          "name": "_payload",
          "type": "bytes"
        }
      ],
      "name": "lzReceive",
      "outputs": [],
      "stateMutability": "nonpayable",
      "type": "function"
    },
    {
      "inputs": [],
      "name": "owner",
      "outputs": [
        {
          "internalType": "address",
          "name": "",
          "type": "address"
        }
      ],
      "stateMutability": "view",
      "type": "function"
    },
    {
      "inputs": [],
      "name": "priceFeedLPPoolOtherToken",
      "outputs": [
        {
          "internalType": "contract AggregatorV3Interface",
          "name": "",
          "type": "address"
        }
      ],
      "stateMutability": "view",
      "type": "function"
    },
    {
      "inputs": [],
      "name": "priceFeedZOR",
      "outputs": [
        {
          "internalType": "contract AggregatorV3Interface",
          "name": "",
          "type": "address"
        }
      ],
      "stateMutability": "view",
      "type": "function"
    },
    {
      "inputs": [],
      "name": "publicPool",
      "outputs": [
        {
          "internalType": "address",
          "name": "",
          "type": "address"
        }
      ],
      "stateMutability": "view",
      "type": "function"
    },
    {
      "inputs": [
        {
          "internalType": "uint256",
          "name": "_pid",
          "type": "uint256"
        },
        {
          "internalType": "uint256",
          "name": "_valueUSDC",
          "type": "uint256"
        },
        {
          "internalType": "uint256",
          "name": "_weeksCommitted",
          "type": "uint256"
        },
        {
          "internalType": "uint256",
          "name": "_maxMarketMovement",
          "type": "uint256"
        },
        {
          "internalType": "bytes",
          "name": "_originAccount",
          "type": "bytes"
        },
        {
          "internalType": "address",
          "name": "_destAccount",
          "type": "address"
        }
      ],
      "name": "receiveXChainDepositRequest",
      "outputs": [],
      "stateMutability": "nonpayable",
      "type": "function"
    },
    {
      "inputs": [
        {
          "internalType": "uint256",
          "name": "_remoteChainId",
          "type": "uint256"
        },
        {
          "internalType": "uint256",
          "name": "_amountUSDCBuyback",
          "type": "uint256"
        },
        {
          "internalType": "uint256",
          "name": "_amountUSDCRevShare",
          "type": "uint256"
        },
        {
          "internalType": "uint256",
          "name": "_accSlashedRewards",
          "type": "uint256"
        },
        {
          "internalType": "uint256",
          "name": "_maxMarketMovement",
          "type": "uint256"
        }
      ],
      "name": "receiveXChainDistributionRequest",
      "outputs": [],
      "stateMutability": "nonpayable",
      "type": "function"
    },
    {
      "inputs": [
        {
          "internalType": "uint256",
          "name": "_originChainId",
          "type": "uint256"
        },
        {
          "internalType": "uint256",
          "name": "_pid",
          "type": "uint256"
        },
        {
          "internalType": "uint256",
          "name": "_trancheId",
          "type": "uint256"
        },
        {
          "internalType": "bytes",
          "name": "_originRecipient",
          "type": "bytes"
        },
        {
          "internalType": "uint256",
          "name": "_burnableZORRewards",
          "type": "uint256"
        },
        {
          "internalType": "uint256",
          "name": "_rewardsDue",
          "type": "uint256"
        }
      ],
      "name": "receiveXChainRepatriationRequest",
      "outputs": [],
      "stateMutability": "nonpayable",
      "type": "function"
    },
    {
      "inputs": [
        {
          "internalType": "uint256",
          "name": "_originChainId",
          "type": "uint256"
        },
        {
          "internalType": "bytes",
          "name": "_originAccount",
          "type": "bytes"
        },
        {
          "internalType": "uint256",
          "name": "_pid",
          "type": "uint256"
        },
        {
          "internalType": "uint256",
          "name": "_trancheId",
          "type": "uint256"
        },
        {
          "internalType": "uint256",
          "name": "_maxMarketMovement",
          "type": "uint256"
        }
      ],
      "name": "receiveXChainWithdrawalRequest",
      "outputs": [],
      "stateMutability": "nonpayable",
      "type": "function"
    },
    {
      "inputs": [],
      "name": "renounceOwnership",
      "outputs": [],
      "stateMutability": "nonpayable",
      "type": "function"
    },
    {
      "inputs": [
        {
          "internalType": "uint256",
          "name": "_zorroChainId",
          "type": "uint256"
        },
        {
          "internalType": "uint256",
          "name": "_pid",
          "type": "uint256"
        },
        {
          "internalType": "uint256",
          "name": "_valueUSDC",
          "type": "uint256"
        },
        {
          "internalType": "uint256",
          "name": "_weeksCommitted",
          "type": "uint256"
        },
        {
          "internalType": "uint256",
          "name": "_maxMarketMovement",
          "type": "uint256"
        },
        {
          "internalType": "bytes",
          "name": "_destWallet",
          "type": "bytes"
        }
      ],
      "name": "sendXChainDepositRequest",
      "outputs": [],
      "stateMutability": "payable",
      "type": "function"
    },
    {
      "inputs": [
        {
          "internalType": "uint256",
          "name": "_pid",
          "type": "uint256"
        },
        {
          "internalType": "uint256",
          "name": "_buybackAmountUSDC",
          "type": "uint256"
        },
        {
          "internalType": "uint256",
          "name": "_revShareAmountUSDC",
          "type": "uint256"
        },
        {
          "internalType": "uint256",
          "name": "_maxMarketMovement",
          "type": "uint256"
        }
      ],
      "name": "sendXChainDistributeEarningsRequest",
      "outputs": [],
      "stateMutability": "payable",
      "type": "function"
    },
    {
      "inputs": [
        {
          "internalType": "uint256",
          "name": "_destZorroChainId",
          "type": "uint256"
        },
        {
          "internalType": "uint256",
          "name": "_pid",
          "type": "uint256"
        },
        {
          "internalType": "uint256",
          "name": "_trancheId",
          "type": "uint256"
        },
        {
          "internalType": "uint256",
          "name": "_maxMarketMovement",
          "type": "uint256"
        },
        {
          "internalType": "uint256",
          "name": "_gasForDestinationLZReceive",
          "type": "uint256"
        }
      ],
      "name": "sendXChainWithdrawalRequest",
      "outputs": [],
      "stateMutability": "payable",
      "type": "function"
    },
    {
      "inputs": [
        {
          "internalType": "uint256[]",
          "name": "_chainIds",
          "type": "uint256[]"
        }
      ],
      "name": "setChains",
      "outputs": [],
      "stateMutability": "nonpayable",
      "type": "function"
    },
    {
      "inputs": [
        {
          "internalType": "uint256",
          "name": "_zorroChainId",
          "type": "uint256"
        },
        {
          "internalType": "bytes",
          "name": "_controller",
          "type": "bytes"
        }
      ],
      "name": "setControllerContract",
      "outputs": [],
      "stateMutability": "nonpayable",
      "type": "function"
    },
    {
      "inputs": [
        {
          "internalType": "address[]",
          "name": "_contracts",
          "type": "address[]"
        }
      ],
      "name": "setKeyContracts",
      "outputs": [],
      "stateMutability": "nonpayable",
      "type": "function"
    },
    {
      "inputs": [
        {
          "internalType": "address",
          "name": "_stargateRouter",
          "type": "address"
        },
        {
          "internalType": "uint256",
          "name": "_stargateSwapPoolId",
          "type": "uint256"
        },
        {
          "internalType": "address",
          "name": "_layerZeroEndpoint",
          "type": "address"
        }
      ],
      "name": "setLayerZeroParams",
      "outputs": [],
      "stateMutability": "nonpayable",
      "type": "function"
    },
    {
      "inputs": [
        {
          "internalType": "address[]",
          "name": "_priceFeeds",
          "type": "address[]"
        }
      ],
      "name": "setPriceFeeds",
      "outputs": [],
      "stateMutability": "nonpayable",
      "type": "function"
    },
    {
      "inputs": [
        {
          "internalType": "uint256",
          "name": "_zorroChainId",
          "type": "uint256"
        },
        {
          "internalType": "uint16",
          "name": "_stargatePoolId",
          "type": "uint16"
        }
      ],
      "name": "setStargateDestPoolIds",
      "outputs": [],
      "stateMutability": "nonpayable",
      "type": "function"
    },
    {
      "inputs": [
        {
          "internalType": "address[]",
          "name": "_USDCToZorroPath",
          "type": "address[]"
        },
        {
          "internalType": "address[]",
          "name": "_USDCToZorroLPPoolOtherTokenPath",
          "type": "address[]"
        }
      ],
      "name": "setSwapPaths",
      "outputs": [],
      "stateMutability": "nonpayable",
      "type": "function"
    },
    {
      "inputs": [
        {
          "internalType": "address",
          "name": "_token",
          "type": "address"
        }
      ],
      "name": "setTokenUSDC",
      "outputs": [],
      "stateMutability": "nonpayable",
      "type": "function"
    },
    {
      "inputs": [
        {
          "internalType": "address[]",
          "name": "_tokens",
          "type": "address[]"
        }
      ],
      "name": "setTokens",
      "outputs": [],
      "stateMutability": "nonpayable",
      "type": "function"
    },
    {
      "inputs": [
        {
          "internalType": "address",
          "name": "_contract",
          "type": "address"
        }
      ],
      "name": "setUniRouterAddress",
      "outputs": [],
      "stateMutability": "nonpayable",
      "type": "function"
    },
    {
      "inputs": [
        {
          "internalType": "uint256",
          "name": "_zorroChainId",
          "type": "uint256"
        },
        {
          "internalType": "uint16",
          "name": "_lzChainId",
          "type": "uint16"
        }
      ],
      "name": "setZorroChainToLZMap",
      "outputs": [],
      "stateMutability": "nonpayable",
      "type": "function"
    },
    {
      "inputs": [
        {
          "internalType": "address",
          "name": "_token",
          "type": "address"
        }
      ],
      "name": "setZorroLPPoolOtherToken",
      "outputs": [],
      "stateMutability": "nonpayable",
      "type": "function"
    },
    {
      "inputs": [
        {
          "internalType": "address",
          "name": "_contract",
          "type": "address"
        }
      ],
      "name": "setZorroStakingVault",
      "outputs": [],
      "stateMutability": "nonpayable",
      "type": "function"
    },
    {
      "inputs": [
        {
          "internalType": "uint16",
          "name": "_chainId",
          "type": "uint16"
        },
        {
          "internalType": "bytes",
          "name": "_srcAddress",
          "type": "bytes"
        },
        {
          "internalType": "uint256",
          "name": "_nonce",
          "type": "uint256"
        },
        {
          "internalType": "address",
          "name": "_token",
          "type": "address"
        },
        {
          "internalType": "uint256",
          "name": "amountLD",
          "type": "uint256"
        },
        {
          "internalType": "bytes",
          "name": "payload",
          "type": "bytes"
        }
      ],
      "name": "sgReceive",
      "outputs": [],
      "stateMutability": "nonpayable",
      "type": "function"
    },
    {
      "inputs": [
        {
          "internalType": "uint256",
          "name": "",
          "type": "uint256"
        }
      ],
      "name": "stargateDestPoolIds",
      "outputs": [
        {
          "internalType": "uint256",
          "name": "",
          "type": "uint256"
        }
      ],
      "stateMutability": "view",
      "type": "function"
    },
    {
      "inputs": [],
      "name": "stargateRouter",
      "outputs": [
        {
          "internalType": "address",
          "name": "",
          "type": "address"
        }
      ],
      "stateMutability": "view",
      "type": "function"
    },
    {
      "inputs": [],
      "name": "stargateSwapPoolId",
      "outputs": [
        {
          "internalType": "uint256",
          "name": "",
          "type": "uint256"
        }
      ],
      "stateMutability": "view",
      "type": "function"
    },
    {
      "inputs": [],
      "name": "tokenUSDC",
      "outputs": [
        {
          "internalType": "address",
          "name": "",
          "type": "address"
        }
      ],
      "stateMutability": "view",
      "type": "function"
    },
    {
      "inputs": [
        {
          "internalType": "address",
          "name": "newOwner",
          "type": "address"
        }
      ],
      "name": "transferOwnership",
      "outputs": [],
      "stateMutability": "nonpayable",
      "type": "function"
    },
    {
      "inputs": [],
      "name": "uniRouterAddress",
      "outputs": [
        {
          "internalType": "address",
          "name": "",
          "type": "address"
        }
      ],
      "stateMutability": "view",
      "type": "function"
    },
    {
      "inputs": [],
      "name": "zorroLPPoolOtherToken",
      "outputs": [
        {
          "internalType": "address",
          "name": "",
          "type": "address"
        }
      ],
      "stateMutability": "view",
      "type": "function"
    },
    {
      "inputs": [],
      "name": "zorroStakingVault",
      "outputs": [
        {
          "internalType": "address",
          "name": "",
          "type": "address"
        }
      ],
      "stateMutability": "view",
      "type": "function"
    },
    {
      "inputs": [
        {
          "internalType": "address",
          "name": "_timelockOwner",
          "type": "address"
        },
        {
          "components": [
            {
              "internalType": "address",
              "name": "defaultStablecoin",
              "type": "address"
            },
            {
              "internalType": "address",
              "name": "ZORRO",
              "type": "address"
            },
            {
              "internalType": "address",
              "name": "tokenUSDC",
              "type": "address"
            },
            {
              "internalType": "address",
              "name": "zorroLPPoolOtherToken",
              "type": "address"
            },
            {
              "internalType": "address",
              "name": "zorroStakingVault",
              "type": "address"
            },
            {
              "internalType": "address",
              "name": "uniRouterAddress",
              "type": "address"
            },
            {
              "internalType": "address",
              "name": "homeChainZorroController",
              "type": "address"
            },
            {
              "internalType": "address",
              "name": "currentChainController",
              "type": "address"
            },
            {
              "internalType": "address",
              "name": "publicPool",
              "type": "address"
            },
            {
              "components": [
                {
                  "internalType": "uint256",
                  "name": "chainId",
                  "type": "uint256"
                },
                {
                  "internalType": "uint256",
                  "name": "homeChainId",
                  "type": "uint256"
                },
                {
                  "internalType": "uint256[]",
                  "name": "ZorroChainIDs",
                  "type": "uint256[]"
                },
                {
                  "internalType": "bytes[]",
                  "name": "controllerContracts",
                  "type": "bytes[]"
                },
                {
                  "internalType": "uint16[]",
                  "name": "LZChainIDs",
                  "type": "uint16[]"
                },
                {
                  "internalType": "uint256[]",
                  "name": "stargateDestPoolIds",
                  "type": "uint256[]"
                },
                {
                  "internalType": "address",
                  "name": "stargateRouter",
                  "type": "address"
                },
                {
                  "internalType": "address",
                  "name": "layerZeroEndpoint",
                  "type": "address"
                },
                {
                  "internalType": "uint256",
                  "name": "stargateSwapPoolId",
                  "type": "uint256"
                }
              ],
              "internalType": "struct ZorroControllerXChain.ZorroControllerXChainBridgeParams",
              "name": "bridge",
              "type": "tuple"
            },
            {
              "components": [
                {
                  "internalType": "address[]",
                  "name": "USDCToZorroPath",
                  "type": "address[]"
                },
                {
                  "internalType": "address[]",
                  "name": "USDCToZorroLPPoolOtherTokenPath",
                  "type": "address[]"
                }
              ],
              "internalType": "struct ZorroControllerXChain.ZorroControllerXChainSwapParams",
              "name": "swaps",
              "type": "tuple"
            },
            {
              "components": [
                {
                  "internalType": "address",
                  "name": "priceFeedZOR",
                  "type": "address"
                },
                {
                  "internalType": "address",
                  "name": "priceFeedLPPoolOtherToken",
                  "type": "address"
                }
              ],
              "internalType": "struct ZorroControllerXChain.ZorroControllerXChainPriceFeedParams",
              "name": "priceFeeds",
              "type": "tuple"
            }
          ],
          "internalType": "struct ZorroControllerXChain.ZorroControllerXChainInit",
          "name": "_initValue",
          "type": "tuple"
        }
      ],
      "name": "initialize",
      "outputs": [],
      "stateMutability": "nonpayable",
      "type": "function"
    }
  ],
  "bytecode": "0x60806040523480156200001157600080fd5b50620000386200002964010000000062000042810204565b64010000000062000046810204565b6001805562000096565b3390565b60008054600160a060020a03838116600160a060020a0319831681178455604051919092169283917f8be0079c531659141344cd1fd0a4f28419497f9722a3daafe3b4186f6b6457e09190a35050565b61516b80620000a66000396000f3fe6080604052600436106103025760003560e060020a90048063715018a611610194578063ab8236f3116100e0578063c9f363c411610099578063e940f6e111610073578063e940f6e114610928578063ebfba7c41461093e578063f2fde38b1461095e578063fc39a29e1461097e57600080fd5b8063c9f363c4146108c8578063cd01af48146108e8578063e53ac0df1461090857600080fd5b8063ab8236f31461080d578063b22f32511461082d578063b61bb80a1461084d578063c86d40401461086d578063c8ba44b51461088d578063c9522cf1146108a857600080fd5b80638da5cb5b1161014d5780639a448c0c116101275780639a448c0c1461079a578063a2df085c146107ba578063a4d2b083146107cd578063a9e56f3c146107ed57600080fd5b80638da5cb5b1461073c5780638f426e2c1461075a578063959334f41461077a57600080fd5b8063715018a61461068757806379777d811461069c5780637bd45522146106bc5780637f633ea8146106dc5780638b5694d6146106fc5780638c157db21461071c57600080fd5b80634bf7617411610253578063625adaf21161020c578063693a090b116101e6578063693a090b146106115780636ca8bd65146106315780636e7144fe1461065157806370d5ae051461067157600080fd5b8063625adaf2146105b6578063668ababb146105d6578063692d8b8b146105f657600080fd5b80634bf76174146104f85780635175ce1b146105185780635790f59914610538578063593af9fe1461054e5780635da79d631461057b57806361b729dc1461059b57600080fd5b806325b43830116102c05780633ad5875c1161029a5780633ad5875c1461046e578063459f475314610481578063464e3c8b146104c5578063487c3868146104d857600080fd5b806325b4383014610401578063293da9d4146104215780633a6291211461044e57600080fd5b80621d35671461030757806307968db114610329578063104a61321461036657806313a2e8801461038657806315230ae6146103a6578063219b38b8146103c6575b600080fd5b34801561031357600080fd5b50610327610322366004613a98565b61099e565b005b34801561033557600080fd5b50600f5461034990600160a060020a031681565b604051600160a060020a0390911681526020015b60405180910390f35b34801561037257600080fd5b50610349610381366004613b32565b610b46565b34801561039257600080fd5b506103276103a1366004613b4b565b610b70565b3480156103b257600080fd5b5060055461034990600160a060020a031681565b3480156103d257600080fd5b506103f36103e1366004613b32565b600e6020526000908152604090205481565b60405190815260200161035d565b34801561040d57600080fd5b5061032761041c366004613b97565b610bbc565b34801561042d57600080fd5b506103f361043c366004613bd2565b600b6020526000908152604090205481565b34801561045a57600080fd5b506103f3610469366004613b97565b610c0e565b61032761047c366004613b97565b610d14565b34801561048d57600080fd5b506104b261049c366004613b32565b600a6020526000908152604090205461ffff1681565b60405161ffff909116815260200161035d565b6103276104d3366004613bed565b610e75565b3480156104e457600080fd5b506103276104f3366004613c63565b61119f565b34801561050457600080fd5b50610327610513366004613c63565b611260565b34801561052457600080fd5b50610327610533366004613ca5565b611369565b34801561054457600080fd5b506103f3600d5481565b34801561055a57600080fd5b5061056e610569366004613b32565b6113af565b60405161035d9190613d69565b34801561058757600080fd5b50610327610596366004613d9c565b611449565b3480156105a757600080fd5b5061032761041c366004613ef2565b3480156105c257600080fd5b506103276105d1366004613c63565b611498565b3480156105e257600080fd5b5060065461034990600160a060020a031681565b34801561060257600080fd5b5061032761041c366004613f54565b34801561061d57600080fd5b5060145461034990600160a060020a031681565b34801561063d57600080fd5b5061032761064c366004613d9c565b611561565b34801561065d57600080fd5b5061032761066c36600461433c565b6115b0565b34801561067d57600080fd5b5061034961dead81565b34801561069357600080fd5b5061032761184c565b3480156106a857600080fd5b5060185461034990600160a060020a031681565b3480156106c857600080fd5b506103276106d7366004614496565b611885565b3480156106e857600080fd5b506103276106f73660046144d8565b6118e6565b34801561070857600080fd5b506103276107173660046144d8565b611942565b34801561072857600080fd5b5060035461034990600160a060020a031681565b34801561074857600080fd5b50600054600160a060020a0316610349565b34801561076657600080fd5b506103f3610775366004614504565b611988565b34801561078657600080fd5b50610327610795366004613d9c565b611b12565b3480156107a657600080fd5b506103496107b5366004613b32565b611b61565b6103276107c8366004614579565b611b71565b3480156107d957600080fd5b5060135461034990600160a060020a031681565b3480156107f957600080fd5b50600c5461034990600160a060020a031681565b34801561081957600080fd5b506103276108283660046145e5565b611d79565b34801561083957600080fd5b5060175461034990600160a060020a031681565b34801561085957600080fd5b5060025461034990600160a060020a031681565b34801561087957600080fd5b5060115461034990600160a060020a031681565b34801561089957600080fd5b5061032761041c366004614673565b3480156108b457600080fd5b506103f36108c3366004613bed565b61204e565b3480156108d457600080fd5b506103f36108e33660046146df565b612170565b3480156108f457600080fd5b50610327610903366004613c63565b612256565b34801561091457600080fd5b50610327610923366004613d9c565b6122c5565b34801561093457600080fd5b506103f360105481565b34801561094a57600080fd5b5060125461034990600160a060020a031681565b34801561096a57600080fd5b50610327610979366004613d9c565b612314565b34801561098a57600080fd5b5060045461034990600160a060020a031681565b8585858080601f016020809104026020016040519081016040528093929190818152602001838380828437600092018290525061ffff86168152600b60209081526040808320548751888401208185526009909352928190209051929550909350610a0a9250906147b1565b604051809103902014610a675760405160e560020a62461bcd02815260206004820152601960248201527f556e7265636f672078636861696e20636f6e74726f6c6c65720000000000000060448201526064015b60405180910390fd5b61ffff89166000908152600b602052604081205490610a868688614850565b90507f61b729dc00000000000000000000000000000000000000000000000000000000600160e060020a031982161415610aee57600080808080610acc8b8d018d614899565b9550955095509550955050610ae485858585856123cc565b5050505050610b39565b60405160e560020a62461bcd02815260206004820152601160248201527f556e7265636f676e697a65642066756e630000000000000000000000000000006044820152606401610a5e565b5050505050505050505050565b60158181548110610b5657600080fd5b600091825260209091200154600160a060020a0316905081565b600054600160a060020a03163314610b9d5760405160e560020a62461bcd028152600401610a5e9061490e565b6000838152600960205260409020610bb6908383613883565b50505050565b60405160e560020a62461bcd02815260206004820152601760248201527f696c6c6567616c2064756d6d792066756e632063616c6c0000000000000000006044820152606401610a5e565b5050505050565b6000858152600a602090815260408083205460075491516c0100000000000000000000000033029381019390935261ffff16918391610c61916034016040516020818303038152906040528989896126de565b90506000610c6e8561275f565b600f546040517f40a7bb10000000000000000000000000000000000000000000000000000000008152919250600091600160a060020a03909116906340a7bb1090610cc59087903090889087908990600401614943565b6040805180830381865afa158015610ce1573d6000803e3d6000fd5b505050506040513d601f19601f82011682018060405250810190610d059190614995565b509a9950505050505050505050565b60026001541415610d3a5760405160e560020a62461bcd028152600401610a5e906149b9565b60026001556007546040516c0100000000000000000000000033026020820152600091610d7b916034016040516020818303038152906040528787876126de565b600087815260096020526040812080549293509091610d9990614773565b80601f0160208091040260200160405190810160405280929190818152602001828054610dc590614773565b8015610e125780601f10610de757610100808354040283529160200191610e12565b820191906000526020600020905b815481529060010190602001808311610df557829003601f168201915b50505050509050610e686040518060c0016040528089815260200183815260200184815260200133600160a060020a031681526020016000600160a060020a03168152602001610e618661275f565b90526127a3565b5050600180555050505050565b60026001541415610e9b5760405160e560020a62461bcd028152600401610a5e906149b9565b60026001556005546040517f1526fe27000000000000000000000000000000000000000000000000000000008152600481018690528591600091600160a060020a0390911690631526fe279060240160c060405180830381865afa158015610f07573d6000803e3d6000fd5b505050506040513d601f19601f82011682018060405250810190610f2b91906149f0565b9550505050505080600160a060020a0316610f433390565b600160a060020a031614610f9c5760405160e560020a62461bcd02815260206004820152600e60248201527f6f6e6c7920726567207661756c740000000000000000000000000000000000006044820152606401610a5e565b60003411610fef5760405160e560020a62461bcd02815260206004820152601160248201527f4e6f2066656573207375626d69747465640000000000000000000000000000006044820152606401610a5e565b6000610ffb8686612858565b60025490915061101590600160a060020a0316308361286b565b60025461102d90600160a060020a0316333084612997565b60025460405160e060020a6370a08231028152306004820152600091600160a060020a0316906370a0823190602401602060405180830381865afa158015611079573d6000803e3d6000fd5b505050506040513d601f19601f8201168201806040525081019061109d9190614a42565b905060006110a96129e8565b905060006110bc6007548a8a858b612a1e565b6007546000908152600960205260408120805492935090916110dd90614773565b80601f016020809104026020016040519081016040528092919081815260200182805461110990614773565b80156111565780601f1061112b57610100808354040283529160200191611156565b820191906000526020600020905b81548152906001019060200180831161113957829003601f168201915b5050505050905061118e6040518060a0016040528060085481526020018681526020018381526020018481526020018a815250612a73565b505060018055505050505050505050565b600054600160a060020a031633146111cc5760405160e560020a62461bcd028152600401610a5e9061490e565b818160008181106111df576111df614a5b565b90506020020160208101906111f49190613d9c565b60178054600160a060020a031916600160a060020a03929092169190911790558181600181811061122757611227614a5b565b905060200201602081019061123c9190613d9c565b60188054600160a060020a031916600160a060020a03929092169190911790555050565b600054600160a060020a0316331461128d5760405160e560020a62461bcd028152600401610a5e9061490e565b818160008181106112a0576112a0614a5b565b90506020020160208101906112b59190613d9c565b60048054600160a060020a031916600160a060020a0392909216919091179055818160018181106112e8576112e8614a5b565b90506020020160208101906112fd9190613d9c565b60058054600160a060020a031916600160a060020a03929092169190911790558181600281811061133057611330614a5b565b90506020020160208101906113459190613d9c565b60068054600160a060020a031916600160a060020a03929092169190911790555050565b600054600160a060020a031633146113965760405160e560020a62461bcd028152600401610a5e9061490e565b6113a260158585613907565b50610c0760168383613907565b600960205260009081526040902080546113c890614773565b80601f01602080910402602001604051908101604052809291908181526020018280546113f490614773565b80156114415780601f1061141657610100808354040283529160200191611441565b820191906000526020600020905b81548152906001019060200180831161142457829003601f168201915b505050505081565b600054600160a060020a031633146114765760405160e560020a62461bcd028152600401610a5e9061490e565b60148054600160a060020a031916600160a060020a0392909216919091179055565b600054600160a060020a031633146114c55760405160e560020a62461bcd028152600401610a5e9061490e565b818160008181106114d8576114d8614a5b565b90506020020160208101906114ed9190613d9c565b60028054600160a060020a031916600160a060020a03929092169190911790558181600181811061152057611520614a5b565b90506020020160208101906115359190613d9c565b60038054600160a060020a031916600160a060020a03929092169190911790555050565b505050505050565b600054600160a060020a0316331461158e5760405160e560020a62461bcd028152600401610a5e9061490e565b60138054600160a060020a031916600160a060020a0392909216919091179055565b61012081015160c0810151600c8054600160a060020a0319908116600160a060020a0393841617909155610100830151600d5560e090920151600f8054909316911617905560005b81610120015160400151518161ffff16101561176c576000826101200151604001518261ffff168151811061162f5761162f614a5b565b60200260200101519050826101200151606001518261ffff168151811061165857611658614a5b565b602002602001015160096000838152602001908152602001600020908051906020019061168692919061395a565b50826101200151608001518261ffff16815181106116a6576116a6614a5b565b6020026020010151600a600083815260200190815260200160002060006101000a81548161ffff021916908361ffff16021790555080600b6000856101200151608001518561ffff16815181106116ff576116ff614a5b565b602002602001015161ffff1661ffff1681526020019081526020016000208190555082610120015160a001518261ffff168151811061174057611740614a5b565b6020908102919091018101516000928352600e90915260409091205561176581614a8d565b90506115f8565b50604081015160118054600160a060020a03928316600160a060020a03199182161790915560608301516012805491841691831691909117905560808301516013805491841691831691909117905560a0830151601480549190931691161790556101408101515180516117e8916015916020909101906139ce565b5061014081015160209081015180516118059260169201906139ce565b50610160810151805160178054600160a060020a0319908116600160a060020a039384161790915560209092015160188054909316911617905561184882612314565b5050565b600054600160a060020a031633146118795760405160e560020a62461bcd028152600401610a5e9061490e565b6118836000612bb0565b565b600054600160a060020a031633146118b25760405160e560020a62461bcd028152600401610a5e9061490e565b600c8054600160a060020a03948516600160a060020a031991821617909155600d92909255600f8054919093169116179055565b600054600160a060020a031633146119135760405160e560020a62461bcd028152600401610a5e9061490e565b6000828152600a60209081526040808320805461ffff90951661ffff1990951685179055928252600b90522055565b600054600160a060020a0316331461196f5760405160e560020a62461bcd028152600401610a5e9061490e565b6000918252600e602052604090912061ffff9091169055565b60408051606080820183526000808352602083018190529282015260006119b38a8a8a8a8a8a612c00565b60008b8152600960205260408120805492935090916119d190614773565b80601f01602080910402602001604051908101604052809291908181526020018280546119fd90614773565b8015611a4a5780601f10611a1f57610100808354040283529160200191611a4a565b820191906000526020600020905b815481529060010190602001808311611a2d57829003601f168201915b505050505090506000600c60009054906101000a9004600160a060020a0316600160a060020a0316630a512369600a60008f815260200190815260200160002060009054906101000a900461ffff1660018587896040518663ffffffff1660e060020a028152600401611ac1959493929190614ad8565b6040805180830381865afa158015611add573d6000803e3d6000fd5b505050506040513d601f19601f82011682018060405250810190611b019190614995565b509c9b505050505050505050505050565b600054600160a060020a03163314611b3f5760405160e560020a62461bcd028152600401610a5e9061490e565b60128054600160a060020a031916600160a060020a0392909216919091179055565b60168181548110610b5657600080fd5b60026001541415611b975760405160e560020a62461bcd028152600401610a5e906149b9565b600260015534611bec5760405160e560020a62461bcd02815260206004820152601160248201527f4e6f2066656573207375626d69747465640000000000000000000000000000006044820152606401610a5e565b600254611c0390600160a060020a0316308661286b565b600254611c1b90600160a060020a0316333087612997565b60025460405160e060020a6370a08231028152306004820152600091600160a060020a0316906370a0823190602401602060405180830381865afa158015611c67573d6000803e3d6000fd5b505050506040513d601f19601f82011682018060405250810190611c8b9190614a42565b90506000611c9d878387873388612c84565b600089815260096020526040812080549293509091611cbb90614773565b80601f0160208091040260200160405190810160405280929190818152602001828054611ce790614773565b8015611d345780601f10611d0957610100808354040283529160200191611d34565b820191906000526020600020905b815481529060010190602001808311611d1757829003601f168201915b50505050509050611d6a6040518060a001604052808b815260200185815260200183815260200184815260200187815250612a73565b50506001805550505050505050565b61ffff86166000908152600b60209081526040808320548851838a012081855260099093529281902090518993899390929091611db691906147b1565b604051809103902014611e0e5760405160e560020a62461bcd02815260206004820152601960248201527f556e7265636f672078636861696e20636f6e74726f6c6c6572000000000000006044820152606401610a5e565b61ffff89166000908152600b602052604080822054905160e060020a6370a08231028152306004820152909190600160a060020a038916906370a0823190602401602060405180830381865afa158015611e6c573d6000803e3d6000fd5b505050506040513d601f19601f82011682018060405250810190611e909190614a42565b905080871115611ee55760405160e560020a62461bcd02815260206004820152601460248201527f616d6f756e744c4420657863656564732062616c0000000000000000000000006044820152606401610a5e565b6000611ef087614b24565b90507f692d8b8b00000000000000000000000000000000000000000000000000000000600160e060020a031982161415611f655760008060008060008b806020019051810190611f409190614ba4565b965096509650965050955050611f5b858e8642878787612b2d565b5050505050612040565b7fc8ba44b500000000000000000000000000000000000000000000000000000000600160e060020a031982161415611fda576000806000806000808c806020019051810190611fb49190614c31565b96509650965096509650965050611fcf868686868686612cc7565b505050505050612040565b7f25b4383000000000000000000000000000000000000000000000000000000000600160e060020a031982161415610aee5760008060008060008b8060200190518101906120289190614cb3565b9550955095509550955050611f5b85858585856125df565b505050505050505050505050565b604080516060808201835260008083526020830181905292820152600061207a60075488888888612a1e565b600454604051600160a060020a039091166c0100000000000000000000000002602082015290915060009060340160408051601f19818403018152828252600c546008546000908152600a602052928320547f0a5123690000000000000000000000000000000000000000000000000000000085529194509192600160a060020a0390921691630a512369916121229161ffff90911690600190879089908b90600401614ad8565b6040805180830381865afa15801561213e573d6000803e3d6000fd5b505050506040513d601f19601f820116820180604052508101906121629190614995565b509998505050505050505050565b604080516060808201835260008083526020830181905292820152600061219b888888883389612c84565b600c5460008c8152600a60205260408082205490517f0a5123690000000000000000000000000000000000000000000000000000000081529394509092600160a060020a0390921691630a512369916122069161ffff909116906001908f9088908a90600401614ad8565b6040805180830381865afa158015612222573d6000803e3d6000fd5b505050506040513d601f19601f820116820180604052508101906122469190614995565b509b9a5050505050505050505050565b600054600160a060020a031633146122835760405160e560020a62461bcd028152600401610a5e9061490e565b8181600081811061229657612296614a5b565b602002919091013560075550818160018181106122b5576122b5614a5b565b6020029190910135600855505050565b600054600160a060020a031633146122f25760405160e560020a62461bcd028152600401610a5e9061490e565b60118054600160a060020a031916600160a060020a0392909216919091179055565b600054600160a060020a031633146123415760405160e560020a62461bcd028152600401610a5e9061490e565b600160a060020a0381166123c05760405160e560020a62461bcd02815260206004820152602660248201527f4f776e61626c653a206e6577206f776e657220697320746865207a65726f206160448201527f64647265737300000000000000000000000000000000000000000000000000006064820152608401610a5e565b6123c981612bb0565b50565b6005546040517f2e31283d000000000000000000000000000000000000000000000000000000008152600091600160a060020a031690632e31283d9061241a90879089908890600401614d06565b602060405180830381865afa158015612437573d6000803e3d6000fd5b505050506040513d601f19601f8201168201806040525081019061245b9190614d2f565b6005546040517f40abd8fc0000000000000000000000000000000000000000000000000000000081529192506000918291600160a060020a0316906340abd8fc906124b49086908b908b908b9088908c90600401614d4c565b6080604051808303816000875af11580156124d3573d6000803e3d6000fd5b505050506040513d601f19601f820116820180604052508101906124f79190614d93565b5060025460405160e060020a6370a0823102815230600482015292955090935060009250600160a060020a0316906370a0823190602401602060405180830381865afa15801561254b573d6000803e3d6000fd5b505050506040513d601f19601f8201168201806040525081019061256f9190614a42565b9050600081116125c45760405160e560020a62461bcd02815260206004820152601360248201527f4e6f7468696e6720746f207769746864726177000000000000000000000000006044820152606401610a5e565b6125d48988888b8588888c612e42565b505050505050505050565b60006125eb8585612858565b60025460405160e060020a6370a08231028152306004820152919250600091600160a060020a03909116906370a0823190602401602060405180830381865afa15801561263c573d6000803e3d6000fd5b505050506040513d601f19601f820116820180604052508101906126609190614a42565b9050600061267883612672848a612f1f565b90612f2b565b90506126848185612f37565b600061269484612672858a612f1f565b90506126a08186613401565b80828a7f4bda9eedb6fd5c584b11e8c64fc79bbe5c7faf6da945a3c7e0de361b6ee5a1bd60405160405180910390a485156125d4576125d486613577565b6040516060907f61b729dc000000000000000000000000000000000000000000000000000000009060009061271f9089908990899089908990602001614dc9565b60405160208183030381529060405290508181604051602001612743929190614dff565b6040516020818303038152906040529250505095945050505050565b604080517e01000000000000000000000000000000000000000000000000000000000000602082015260228082019390935281518082039093018352604201905290565b80516000908152600a602090815260409182902054600f549184015183850151606086015160a087015195517fc580310000000000000000000000000000000000000000000000000000000000815261ffff90941695600160a060020a039095169463c580310094349461282294899491939092829190600401614e2f565b6000604051808303818588803b15801561283b57600080fd5b505af115801561284f573d6000803e3d6000fd5b50505050505050565b60006128648284614e96565b9392505050565b6040517fdd62ed3e000000000000000000000000000000000000000000000000000000008152306004820152600160a060020a038381166024830152600091839186169063dd62ed3e90604401602060405180830381865afa1580156128d5573d6000803e3d6000fd5b505050506040513d601f19601f820116820180604052508101906128f99190614a42565b6129039190614e96565b604051600160a060020a038516602482015260448101829052909150610bb69085907f095ea7b300000000000000000000000000000000000000000000000000000000906064015b60408051601f198184030181529190526020810180517bffffffffffffffffffffffffffffffffffffffffffffffffffffffff16600160e060020a0319909316929092179091526135f4565b604051600160a060020a0380851660248301528316604482015260648101829052610bb69085907f23b872dd000000000000000000000000000000000000000000000000000000009060840161294b565b60105460405181907f18bd4bd6372d39482d375f68791749755bdb38e8768acbfb6af999cef1adc6e090600090a2600060105590565b604080516020810187905290810185905260608082018590526080820184905260a08201839052907f25b43830000000000000000000000000000000000000000000000000000000009060009060c00161271f565b612a9760405180606001604052806000815260200160008152602001606081525090565b600c5482516000908152600a6020908152604080832054600d5487518552600e84529190932054918601516080870151600160a060020a0390951694639fbf10fc94349461ffff90911693929091339190612afb906103e890612672908490612f1f565b898b604001518c606001516040518b63ffffffff1660e060020a02815260040161282299989796959493929190614eae565b6005546040517fcff38dd4000000000000000000000000000000000000000000000000000000008152600160a060020a039091169063cff38dd490612b82908a90859087908c908c908c908c90600401614f2c565b600060405180830381600087803b158015612b9c57600080fd5b505af1158015610b39573d6000803e3d6000fd5b60008054600160a060020a03838116600160a060020a0319831681178455604051919092169283917f8be0079c531659141344cd1fd0a4f28419497f9722a3daafe3b4186f6b6457e09190a35050565b6040516060907fc8ba44b50000000000000000000000000000000000000000000000000000000090600090612c43908a908a908a908a908a908a90602001614f7a565b60405160208183030381529060405290508181604051602001612c67929190614dff565b604051602081830303815290604052925050509695505050505050565b6040516060907f692d8b8b0000000000000000000000000000000000000000000000000000000090600090612c43908a908a908a908a908a908a90602001614fb4565b8183806020019051810190612cdc9190614d2f565b600160a060020a0316867f6f6e500192a591cd4df1823b5be9f8681a54e919ca055745a13b8715ee3dfb81878a604051612d20929190918252602082015260400190565b60405180910390a46003548351600160a060020a03909116906340c10f1990612d529086016020908101908701614d2f565b60405160e060020a63ffffffff8416028152600160a060020a03909116600482015260248101849052604401600060405180830381600087803b158015612d9857600080fd5b505af1158015612dac573d6000803e3d6000fd5b505050506000821115611559576003546006546040517f9dc29fac000000000000000000000000000000000000000000000000000000008152600160a060020a03918216600482015260248101859052911690639dc29fac90604401600060405180830381600087803b158015612e2257600080fd5b505af1158015612e36573d6000803e3d6000fd5b50505050505050505050565b6000612e52898989898888612c00565b60008a815260096020526040812080549293509091612e7090614773565b80601f0160208091040260200160405190810160405280929190818152602001828054612e9c90614773565b8015612ee95780601f10612ebe57610100808354040283529160200191612ee9565b820191906000526020600020905b815481529060010190602001808311612ecc57829003601f168201915b50505050509050612e366040518060a001604052808c815260200188815260200183815260200184815260200185815250612a73565b60006128648284614fee565b6000612864828461500d565b601454600254612f5491600160a060020a0391821691168461286b565b6017546040517f871431bc000000000000000000000000000000000000000000000000000000008152600160a060020a03909116600482015260009073__PriceFeed_____________________________9063871431bc90602401602060405180830381865af4158015612fcc573d6000803e3d6000fd5b505050506040513d601f19601f82011682018060405250810190612ff09190614a42565b6018546040517f871431bc000000000000000000000000000000000000000000000000000000008152600160a060020a03909116600482015290915060009073__PriceFeed_____________________________9063871431bc90602401602060405180830381865af415801561306b573d6000803e3d6000fd5b505050506040513d601f19601f8201168201806040525081019061308f9190614a42565b6014546011549192506130af91600160a060020a0390811691168661286b565b60145473__SafeSwapUni___________________________90632b08bab190600160a060020a03166130e2876002612f2b565b64e8d4a5100086886015306130f942610258612858565b6040518963ffffffff1660e060020a02815260040161311f989796959493929190615032565b60006040518083038186803b15801561313757600080fd5b505af415801561314b573d6000803e3d6000fd5b505060145473__SafeSwapUni___________________________9250632b08bab19150600160a060020a0316613182876002612f2b565b64e8d4a51000858860163061319942610258612858565b6040518963ffffffff1660e060020a0281526004016131bf989796959493929190615032565b60006040518083038186803b1580156131d757600080fd5b505af41580156131eb573d6000803e3d6000fd5b505060035460405160e060020a6370a0823102815230600482015260009350600160a060020a0390911691506370a0823190602401602060405180830381865afa15801561323d573d6000803e3d6000fd5b505050506040513d601f19601f820116820180604052508101906132619190614a42565b60125460405160e060020a6370a08231028152306004820152919250600091600160a060020a03909116906370a0823190602401602060405180830381865afa1580156132b2573d6000803e3d6000fd5b505050506040513d601f19601f820116820180604052508101906132d69190614a42565b6014546003549192506132f691600160a060020a0390811691168461286b565b60145460125461331391600160a060020a0391821691168361286b565b601454600354601254600160a060020a039283169263e8e33700928116911685856133446103e8612672848e612f1f565b6133546103e86126728a8f612f1f565b61dead61336342610258612858565b60405163ffffffff8a1660e060020a028152600160a060020a039889166004820152968816602488015260448701959095526064860193909352608485019190915260a484015290921660c482015260e4810191909152610104016060604051808303816000875af11580156133dd573d6000803e3d6000fd5b505050506040513d601f19601f820116820180604052508101906125d491906150c9565b60145460025461341e91600160a060020a0391821691168461286b565b6017546040517f871431bc000000000000000000000000000000000000000000000000000000008152600160a060020a03909116600482015260009073__PriceFeed_____________________________9063871431bc90602401602060405180830381865af4158015613496573d6000803e3d6000fd5b505050506040513d601f19601f820116820180604052508101906134ba9190614a42565b6014546011549192506134da91600160a060020a0390811691168561286b565b60145460135473__SafeSwapUni___________________________91632b08bab191600160a060020a0391821691879164e8d4a5100091879189916015911661352542610258612858565b6040518963ffffffff1660e060020a02815260040161354b989796959493929190615032565b60006040518083038186803b15801561356357600080fd5b505af415801561284f573d6000803e3d6000fd5b6003546013546040517f40c10f19000000000000000000000000000000000000000000000000000000008152600160a060020a039182166004820152602481018490529116906340c10f1990604401600060405180830381600087803b1580156135e057600080fd5b505af1158015610c07573d6000803e3d6000fd5b6000613649826040518060400160405280602081526020017f5361666545524332303a206c6f772d6c6576656c2063616c6c206661696c656481525085600160a060020a03166136e19092919063ffffffff16565b8051909150156136dc578080602001905181019061366791906150f7565b6136dc5760405160e560020a62461bcd02815260206004820152602a60248201527f5361666545524332303a204552433230206f7065726174696f6e20646964206e60448201527f6f742073756363656564000000000000000000000000000000000000000000006064820152608401610a5e565b505050565b60606136f084846000856136f8565b949350505050565b606030318311156137745760405160e560020a62461bcd02815260206004820152602660248201527f416464726573733a20696e73756666696369656e742062616c616e636520666f60448201527f722063616c6c00000000000000000000000000000000000000000000000000006064820152608401610a5e565b600160a060020a0385163b6137ce5760405160e560020a62461bcd02815260206004820152601d60248201527f416464726573733a2063616c6c20746f206e6f6e2d636f6e74726163740000006044820152606401610a5e565b60008086600160a060020a031685876040516137ea9190615119565b60006040518083038185875af1925050503d8060008114613827576040519150601f19603f3d011682016040523d82523d6000602084013e61382c565b606091505b509150915061383c828286613847565b979650505050505050565b60608315613856575081612864565b8251156138665782518084602001fd5b8160405160e560020a62461bcd028152600401610a5e9190613d69565b82805461388f90614773565b90600052602060002090601f0160209004810192826138b157600085556138f7565b82601f106138ca5782800160ff198235161785556138f7565b828001600101855582156138f7579182015b828111156138f75782358255916020019190600101906138dc565b50613903929150613a23565b5090565b8280548282559060005260206000209081019282156138f7579160200282015b828111156138f7578154600160a060020a031916600160a060020a03843516178255602090920191600190910190613927565b82805461396690614773565b90600052602060002090601f01602090048101928261398857600085556138f7565b82601f106139a157805160ff19168380011785556138f7565b828001600101855582156138f7579182015b828111156138f75782518255916020019190600101906139b3565b8280548282559060005260206000209081019282156138f7579160200282015b828111156138f75782518254600160a060020a031916600160a060020a039091161782556020909201916001909101906139ee565b5b808211156139035760008155600101613a24565b803561ffff81168114613a4a57600080fd5b919050565b60008083601f840112613a6157600080fd5b50813567ffffffffffffffff811115613a7957600080fd5b602083019150836020828501011115613a9157600080fd5b9250929050565b60008060008060008060808789031215613ab157600080fd5b613aba87613a38565b9550602087013567ffffffffffffffff80821115613ad757600080fd5b613ae38a838b01613a4f565b9097509550604089013591508082168214613afd57600080fd5b90935060608801359080821115613b1357600080fd5b50613b2089828a01613a4f565b979a9699509497509295939492505050565b600060208284031215613b4457600080fd5b5035919050565b600080600060408486031215613b6057600080fd5b83359250602084013567ffffffffffffffff811115613b7e57600080fd5b613b8a86828701613a4f565b9497909650939450505050565b600080600080600060a08688031215613baf57600080fd5b505083359560208501359550604085013594606081013594506080013592509050565b600060208284031215613be457600080fd5b61286482613a38565b60008060008060808587031215613c0357600080fd5b5050823594602084013594506040840135936060013592509050565b60008083601f840112613c3157600080fd5b50813567ffffffffffffffff811115613c4957600080fd5b6020830191508360208083028501011115613a9157600080fd5b60008060208385031215613c7657600080fd5b823567ffffffffffffffff811115613c8d57600080fd5b613c9985828601613c1f565b90969095509350505050565b60008060008060408587031215613cbb57600080fd5b843567ffffffffffffffff80821115613cd357600080fd5b613cdf88838901613c1f565b90965094506020870135915080821115613cf857600080fd5b50613d0587828801613c1f565b95989497509550505050565b60005b83811015613d2c578181015183820152602001613d14565b83811115610bb65750506000910152565b60008151808452613d55816020860160208601613d11565b601f01601f19169290920160200192915050565b6020815260006128646020830184613d3d565b600160a060020a03811681146123c957600080fd5b8035613a4a81613d7c565b600060208284031215613dae57600080fd5b813561286481613d7c565b60e060020a634e487b7102600052604160045260246000fd5b604051610120810167ffffffffffffffff81118282101715613df657613df6613db9565b60405290565b6040805190810167ffffffffffffffff81118282101715613df657613df6613db9565b604051610180810167ffffffffffffffff81118282101715613df657613df6613db9565b604051601f8201601f1916810167ffffffffffffffff81118282101715613e6c57613e6c613db9565b604052919050565b600067ffffffffffffffff821115613e8e57613e8e613db9565b50601f01601f191660200190565b600082601f830112613ead57600080fd5b8135613ec0613ebb82613e74565b613e43565b818152846020838601011115613ed557600080fd5b816020850160208301376000918101602001919091529392505050565b600080600080600060a08688031215613f0a57600080fd5b85359450602086013567ffffffffffffffff811115613f2857600080fd5b613f3488828901613e9c565b959895975050505060408401359360608101359360809091013592509050565b60008060008060008060c08789031215613f6d57600080fd5b86359550602087013594506040870135935060608701359250608087013567ffffffffffffffff811115613fa057600080fd5b613fac89828a01613e9c565b92505060a0870135613fbd81613d7c565b809150509295509295509295565b600067ffffffffffffffff821115613fe557613fe5613db9565b5060209081020190565b600082601f83011261400057600080fd5b81356020614010613ebb83613fcb565b8281529181028401810191818101908684111561402c57600080fd5b8286015b848110156140475780358352918301918301614030565b509695505050505050565b600082601f83011261406357600080fd5b81356020614073613ebb83613fcb565b8281529181028401810191818101908684111561408f57600080fd5b8286015b8481101561404757803567ffffffffffffffff8111156140b35760008081fd5b6140c18986838b0101613e9c565b845250918301918301614093565b600082601f8301126140e057600080fd5b813560206140f0613ebb83613fcb565b8281529181028401810191818101908684111561410c57600080fd5b8286015b848110156140475761412181613a38565b8352918301918301614110565b6000610120828403121561414157600080fd5b614149613dd2565b90508135815260208201356020820152604082013567ffffffffffffffff8082111561417457600080fd5b61418085838601613fef565b6040840152606084013591508082111561419957600080fd5b6141a585838601614052565b606084015260808401359150808211156141be57600080fd5b6141ca858386016140cf565b608084015260a08401359150808211156141e357600080fd5b506141f084828501613fef565b60a08301525061420260c08301613d91565b60c082015261421360e08301613d91565b60e082015261010080830135818301525092915050565b600082601f83011261423b57600080fd5b8135602061424b613ebb83613fcb565b8281529181028401810191818101908684111561426757600080fd5b8286015b8481101561404757803561427e81613d7c565b835291830191830161426b565b60006040828403121561429d57600080fd5b6142a5613dfc565b9050813567ffffffffffffffff808211156142bf57600080fd5b6142cb8583860161422a565b835260208401359150808211156142e157600080fd5b506142ee8482850161422a565b60208301525092915050565b60006040828403121561430c57600080fd5b614314613dfc565b9050813561432181613d7c565b8152602082013561433181613d7c565b602082015292915050565b6000806040838503121561434f57600080fd5b823561435a81613d7c565b9150602083013567ffffffffffffffff8082111561437757600080fd5b908401906101a0828703121561438c57600080fd5b614394613e1f565b61439d83613d91565b81526143ab60208401613d91565b60208201526143bc60408401613d91565b60408201526143cd60608401613d91565b60608201526143de60808401613d91565b60808201526143ef60a08401613d91565b60a082015261440060c08401613d91565b60c082015261441160e08401613d91565b60e0820152610100614424818501613d91565b90820152610120838101358381111561443c57600080fd5b6144488982870161412e565b828401525050610140808401358381111561446257600080fd5b61446e8982870161428b565b8284015250506101609150614485878385016142fa565b828201528093505050509250929050565b6000806000606084860312156144ab57600080fd5b83356144b681613d7c565b92506020840135915060408401356144cd81613d7c565b809150509250925092565b600080604083850312156144eb57600080fd5b823591506144fb60208401613a38565b90509250929050565b600080600080600080600060e0888a03121561451f57600080fd5b873596506020880135955060408801359450606088013567ffffffffffffffff81111561454b57600080fd5b6145578a828b01613e9c565b979a969950949760808101359660a0820135965060c090910135945092505050565b60008060008060008060c0878903121561459257600080fd5b863595506020870135945060408701359350606087013592506080870135915060a087013567ffffffffffffffff8111156145cc57600080fd5b6145d889828a01613e9c565b9150509295509295509295565b60008060008060008060c087890312156145fe57600080fd5b61460787613a38565b9550602087013567ffffffffffffffff8082111561462457600080fd5b6146308a838b01613e9c565b9650604089013595506060890135915061464982613d7c565b9093506080880135925060a0880135908082111561466657600080fd5b506145d889828a01613e9c565b60008060008060008060c0878903121561468c57600080fd5b863595506020870135945060408701359350606087013567ffffffffffffffff8111156146b857600080fd5b6146c489828a01613e9c565b9350506080870135915060a087013590509295509295509295565b600080600080600080600060e0888a0312156146fa57600080fd5b87359650602088013567ffffffffffffffff8082111561471957600080fd5b6147258b838c01613e9c565b975060408a0135965060608a0135955060808a0135945060a08a0135935060c08a013591508082111561475757600080fd5b506147648a828b01613e9c565b91505092959891949750929550565b60028104600182168061478757607f821691505b602082108114156147ab5760e060020a634e487b7102600052602260045260246000fd5b50919050565b81546000908190600281046001808316806147cd57607f831692505b60208084108214156147f05760e060020a634e487b710286526022600452602486fd5b818015614804576001811461481557614842565b60ff19861689528489019650614842565b60008a81526020902060005b8681101561483a5781548b820152908501908301614821565b505084890196505b509498975050505050505050565b600160e060020a0319813581811691600485101561487b57808560040360080260020a820283161692505b505092915050565b600160e060020a0319811681146123c957600080fd5b60008060008060008060c087890312156148b257600080fd5b86356148bd81614883565b955060208701359450604087013567ffffffffffffffff8111156148e057600080fd5b6148ec89828a01613e9c565b945050606087013592506080870135915060a087013590509295509295509295565b6020808252818101527f4f776e61626c653a2063616c6c6572206973206e6f7420746865206f776e6572604082015260600190565b61ffff86168152600160a060020a038516602082015260a06040820152600061496f60a0830186613d3d565b841515606084015282810360808401526149898185613d3d565b98975050505050505050565b600080604083850312156149a857600080fd5b505080516020909101519092909150565b6020808252601f908201527f5265656e7472616e637947756172643a207265656e7472616e742063616c6c00604082015260600190565b60008060008060008060c08789031215614a0957600080fd5b8651614a1481613d7c565b809650506020870151945060408701519350606087015192506080870151915060a0870151613fbd81613d7c565b600060208284031215614a5457600080fd5b5051919050565b60e060020a634e487b7102600052603260045260246000fd5b60e060020a634e487b7102600052601160045260246000fd5b600061ffff80831681811415614aa557614aa5614a74565b6001019392505050565b805182526020810151602083015260006040820151606060408501526136f06060850182613d3d565b61ffff8616815260ff8516602082015260a060408201526000614afe60a0830186613d3d565b8281036060840152614b108186613d3d565b905082810360808401526149898185614aaf565b600081516020830151600160e060020a031980821693506004831015614b5757808360040360080260020a820283161693505b505050919050565b600082601f830112614b7057600080fd5b8151614b7e613ebb82613e74565b818152846020838601011115614b9357600080fd5b6136f0826020830160208701613d11565b600080600080600080600060e0888a031215614bbf57600080fd5b8751614bca81614883565b809750506020880151955060408801519450606088015193506080880151925060a088015167ffffffffffffffff811115614c0457600080fd5b614c108a828b01614b5f565b92505060c0880151614c2181613d7c565b8091505092959891949750929550565b600080600080600080600060e0888a031215614c4c57600080fd5b8751614c5781614883565b80975050602088015195506040880151945060608801519350608088015167ffffffffffffffff811115614c8a57600080fd5b614c968a828b01614b5f565b93505060a0880151915060c0880151905092959891949750929550565b60008060008060008060c08789031215614ccc57600080fd5b8651614cd781614883565b6020880151604089015160608a015160808b015160a0909b0151939c929b509099909850965090945092505050565b838152606060208201526000614d1f6060830185613d3d565b9050826040830152949350505050565b600060208284031215614d4157600080fd5b815161286481613d7c565b600160a060020a038716815260c060208201526000614d6e60c0830188613d3d565b6040830196909652506060810193909352901515608083015260a09091015292915050565b60008060008060808587031215614da957600080fd5b505082516020840151604085015160609095015191969095509092509050565b85815260a060208201526000614de260a0830187613d3d565b604083019590955250606081019290925260809091015292915050565b600160e060020a03198316815260008251614e21816004850160208701613d11565b919091016004019392505050565b61ffff8716815260c060208201526000614e4c60c0830188613d3d565b8281036040840152614e5e8188613d3d565b600160a060020a0387811660608601528616608085015283810360a08501529050614e898185613d3d565b9998505050505050505050565b60008219821115614ea957614ea9614a74565b500190565b600061012061ffff8c1683528a6020840152896040840152600160a060020a03891660608401528760808401528660a08401528060c0840152614ef381840187614aaf565b905082810360e0840152614f078186613d3d565b9050828103610100840152614f1c8185613d3d565b9c9b505050505050505050505050565b878152600160a060020a038716602082015260e060408201526000614f5460e0830188613d3d565b90508560608301528460808301528360a08301528260c083015298975050505050505050565b86815285602082015284604082015260c060608201526000614f9f60c0830186613d3d565b60808301949094525060a00152949350505050565b868152856020820152846040820152836060820152600160a060020a038316608082015260c060a0820152600061498960c0830184613d3d565b600081600019048311821515161561500857615008614a74565b500290565b60008261502d5760e060020a634e487b7102600052601260045260246000fd5b500490565b6000610100808301600160a060020a03808d16855260208c818701528b60408701528a60608701528960808701528360a08701528293508854808452610120870194508960005281600020935060005b818110156150a0578454841686529482019460019485019401615082565b50505050600160a060020a03861660c08501525090508260e08301529998505050505050505050565b6000806000606084860312156150de57600080fd5b8351925060208401519150604084015190509250925092565b60006020828403121561510957600080fd5b8151801515811461286457600080fd5b6000825161512b818460208701613d11565b919091019291505056fea264697066735822122064da1dc9caf02f0dd95106a8a22b04b96eb6fac3ac68c820b63bb011eae47cea64736f6c634300080a0033",
  "immutableReferences": {},
  "source": "// SPDX-License-Identifier: MIT\n\npragma solidity ^0.8.0;\n\nimport \"./_ZorroControllerInvestment.sol\";\n\nimport \"../interfaces/IAMMRouter02.sol\";\n\nimport \"../interfaces/IVault.sol\";\n\nimport \"../libraries/SafeSwap.sol\";\n\nimport \"../interfaces/ILayerZeroEndpoint.sol\";\n\nimport \"../interfaces/IStargateRouter.sol\";\n\nimport \"../interfaces/IZorroControllerXChain.sol\";\n\nimport \"@openzeppelin/contracts/access/Ownable.sol\";\n\nimport \"@openzeppelin/contracts/security/ReentrancyGuard.sol\";\n\nimport \"./_ZorroControllerXChainBase.sol\";\n\nimport \"./_ZorroControllerXChainDeposit.sol\";\n\nimport \"./_ZorroControllerXChainEarn.sol\";\n\nimport \"./_ZorroControllerXChainWithdraw.sol\";\n\nimport \"./_ZorroControllerXChainReceiver.sol\";\n\ncontract ZorroControllerXChain is\n    IZorroControllerXChain,\n    ZorroControllerXChainBase,\n    ZorroControllerXChainDeposit,\n    ZorroControllerXChainWithdraw,\n    ZorroControllerXChainEarn,\n    ZorroControllerXChainReceiver\n{\n    /* Libraries */\n    using SafeMath for uint256;\n\n    /* Constructor */\n\n    /// @notice Upgradeable constructor\n    /// @param _timelockOwner The timelock contract that shall own this contract\n    /// @param _initValue a ZorroControllerXChainInit struct for initializing this contract\n    function initialize(\n        address _timelockOwner,\n        ZorroControllerXChainInit memory _initValue\n    ) public {\n        // Base\n        stargateRouter = _initValue.bridge.stargateRouter;\n        stargateSwapPoolId = _initValue.bridge.stargateSwapPoolId;\n        layerZeroEndpoint = _initValue.bridge.layerZeroEndpoint;\n\n        for (uint16 i = 0; i < _initValue.bridge.ZorroChainIDs.length; ++i) {\n            uint256 _zChainId = _initValue.bridge.ZorroChainIDs[i];\n\n            controllerContractsMap[_zChainId] = _initValue.bridge.controllerContracts[\n                i\n            ];\n            ZorroChainToLZMap[_zChainId] = _initValue.bridge.LZChainIDs[i];\n            LZChainToZorroMap[_initValue.bridge.LZChainIDs[i]] = _zChainId;\n            stargateDestPoolIds[_zChainId] = _initValue.bridge.stargateDestPoolIds[i];\n        }\n\n\n        // Earn\n        // Tokens\n        tokenUSDC = _initValue.tokenUSDC;\n        zorroLPPoolOtherToken = _initValue.zorroLPPoolOtherToken;\n        // Contracts\n        zorroStakingVault = _initValue.zorroStakingVault;\n        uniRouterAddress = _initValue.uniRouterAddress;\n        // Swaps\n        USDCToZorroPath = _initValue.swaps.USDCToZorroPath;\n        USDCToZorroLPPoolOtherTokenPath = _initValue.swaps.USDCToZorroLPPoolOtherTokenPath;\n        // Price feed\n        priceFeedZOR = AggregatorV3Interface(_initValue.priceFeeds.priceFeedZOR);\n        priceFeedLPPoolOtherToken = AggregatorV3Interface(_initValue.priceFeeds.priceFeedLPPoolOtherToken);\n\n        // Timelock\n        transferOwnership(_timelockOwner);\n    }\n\n    /* Structs */\n\n    struct ZorroControllerXChainSwapParams {\n        address[] USDCToZorroPath;\n        address[] USDCToZorroLPPoolOtherTokenPath;\n    }\n\n    struct ZorroControllerXChainBridgeParams {\n        uint256 chainId;\n        uint256 homeChainId;\n        uint256[] ZorroChainIDs;\n        bytes[] controllerContracts; // Must be same length as ZorroChainIDs\n        uint16[] LZChainIDs; // Must be same length as ZorroChainIDs\n        uint256[] stargateDestPoolIds; // Must be same length as ZorroChainIDs\n        address stargateRouter;\n        address layerZeroEndpoint;\n        uint256 stargateSwapPoolId;\n    }\n\n    struct ZorroControllerXChainPriceFeedParams {\n        address priceFeedZOR;\n        address priceFeedLPPoolOtherToken;\n    }\n\n    struct ZorroControllerXChainInit {\n        // Tokens\n        address defaultStablecoin;\n        address ZORRO;\n        address tokenUSDC;\n        address zorroLPPoolOtherToken;\n        // Contracts\n        address zorroStakingVault;\n        address uniRouterAddress;\n        address homeChainZorroController;\n        address currentChainController;\n        address publicPool;\n        // Bridge\n        ZorroControllerXChainBridgeParams bridge;\n        // Swaps\n        ZorroControllerXChainSwapParams swaps;\n        // Price feed\n        ZorroControllerXChainPriceFeedParams priceFeeds;\n    }\n}\n",
  "sourcePath": "/Users/kristophm/Documents/workspace/zorro-protocol/contracts/controllers/ZorroControllerXChain.sol",
  "compiler": {
    "name": "solc",
    "version": "0.8.10+commit.fc410830.Emscripten.clang"
  },
  "schemaVersion": "3.4.4",
  "updatedAt": "2022-04-11T13:36:23.902Z",
  "devdoc": {
    "kind": "dev",
    "methods": {
      "checkXChainDepositFee(uint256,bytes,uint256,uint256,uint256,uint256,bytes)": {
        "params": {
          "_chainId": "The Zorro Chain ID (not the LayerZero one)",
          "_destWallet": "A valid address on the remote chain that can claim ownership",
          "_dstContract": "The destination contract address on the remote chain",
          "_maxMarketMovement": "Acceptable degree of slippage on any transaction (e.g. 950 = 5%, 990 = 1% etc.)",
          "_pid": "The pool ID on the remote chain",
          "_valueUSDC": "The amount of USDC to deposit",
          "_weeksCommitted": "Number of weeks to commit to a vault"
        },
        "returns": {
          "_0": "uint256 Expected fee to pay for bridging/cross chain execution"
        }
      },
      "checkXChainDistributeEarningsFee(uint256,uint256,uint256,uint256)": {
        "params": {
          "_accSlashedRewards": "Accumulated slashed rewards on chain",
          "_amountUSDCBuyback": "Amount of USDC to buy back",
          "_amountUSDCRevShare": "Amount of USDC to rev share with ZOR single staking vault",
          "_maxMarketMovement": "factor to account for max market movement/slippage."
        },
        "returns": {
          "_0": "uint256 Quantity of native token as fees"
        }
      },
      "checkXChainRepatriationFee(uint256,uint256,uint256,bytes,uint256,uint256,uint256)": {
        "params": {
          "_burnableZORRewards": "Quantity of ZOR tokens minted for rewards here that need to be burned on the home chain",
          "_gasForDestinationLZReceive": "How much additional gas to provide at destination contract",
          "_originChainId": "Zorro chain ID of chain to which funds are to be repatriated to",
          "_originRecipient": "Recipient of funds on the origin chain",
          "_pid": "Pool ID on current chain",
          "_rewardsDue": "ZOR rewards due to the recipient",
          "_trancheId": "ID of tranche on current chain that funds were withdrawn from"
        },
        "returns": {
          "_0": "uint256 Estimated fee in native tokens"
        }
      },
      "checkXChainWithdrawalFee(uint256,uint256,uint256,uint256,uint256)": {
        "params": {
          "_gasForDestinationLZReceive": "How much additional gas to provide at destination contract",
          "_maxMarketMovement": "Acceptable degree of slippage on any transaction (e.g. 950 = 5%, 990 = 1% etc.)",
          "_pid": "The pool ID on the remote chain",
          "_trancheId": "The tranche ID on the remote chain",
          "_zorroChainId": "The Zorro Chain ID (not the LayerZero one)"
        },
        "returns": {
          "_0": "uint256 Expected fee to pay for bridging/cross chain execution"
        }
      },
      "initialize(address,(address,address,address,address,address,address,address,address,address,(uint256,uint256,uint256[],bytes[],uint16[],uint256[],address,address,uint256),(address[],address[]),(address,address)))": {
        "params": {
          "_initValue": "a ZorroControllerXChainInit struct for initializing this contract",
          "_timelockOwner": "The timelock contract that shall own this contract"
        }
      },
      "owner()": {
        "details": "Returns the address of the current owner."
      },
      "receiveXChainDepositRequest(uint256,uint256,uint256,uint256,bytes,address)": {
        "details": "Should never ever be actually called."
      },
      "receiveXChainDistributionRequest(uint256,uint256,uint256,uint256,uint256)": {
        "details": "Should never ever be actually called."
      },
      "receiveXChainRepatriationRequest(uint256,uint256,uint256,bytes,uint256,uint256)": {
        "details": "Should never ever be actually called."
      },
      "receiveXChainWithdrawalRequest(uint256,bytes,uint256,uint256,uint256)": {
        "details": "Should never ever be actually called."
      },
      "renounceOwnership()": {
        "details": "Leaves the contract without owner. It will not be possible to call `onlyOwner` functions anymore. Can only be called by the current owner. NOTE: Renouncing ownership will leave the contract without an owner, thereby removing any functionality that is only available to the owner."
      },
      "sendXChainDepositRequest(uint256,uint256,uint256,uint256,uint256,bytes)": {
        "details": "Requires appropriate fee to be paid via msg.value (use checkXChainDepositFee() above)",
        "params": {
          "_destWallet": "A valid address on the remote chain that can claim ownership",
          "_maxMarketMovement": "Acceptable degree of slippage on any transaction (e.g. 950 = 5%, 990 = 1% etc.)",
          "_pid": "The pool ID on the remote chain",
          "_valueUSDC": "The amount of USDC to deposit",
          "_weeksCommitted": "Number of weeks to commit to a vault",
          "_zorroChainId": "The Zorro Chain ID (not the LayerZero one)"
        }
      },
      "sendXChainDistributeEarningsRequest(uint256,uint256,uint256,uint256)": {
        "params": {
          "_buybackAmountUSDC": "Amount in USDC to buy back",
          "_maxMarketMovement": "Acceptable slippage (950 = 5%, 990 = 1% etc.)",
          "_pid": "Pool ID",
          "_revShareAmountUSDC": "Amount in USDC to revshare w/ ZOR single staking vault"
        }
      },
      "sendXChainWithdrawalRequest(uint256,uint256,uint256,uint256,uint256)": {
        "details": "Requires value to be submitted to pay for cross chain transaction. Use checkXChainWithdrawalFee() to estimate fees",
        "params": {
          "_destZorroChainId": "The Zorro chain ID of the remote chain to withdraw from",
          "_gasForDestinationLZReceive": "How much additional gas to provide at destination contract",
          "_maxMarketMovement": "Acceptable degree of slippage on any transaction (e.g. 950 = 5%, 990 = 1% etc.)",
          "_pid": "The pool ID on the remote chain",
          "_trancheId": "The ID of the tranche for the given user and pool"
        }
      },
      "setControllerContract(uint256,bytes)": {
        "params": {
          "_controller": "Bytes representation of smart contract address for cross chain contract",
          "_zorroChainId": "Zorro Chain ID"
        }
      },
      "setStargateDestPoolIds(uint256,uint16)": {
        "params": {
          "_stargatePoolId": "Stargate pool ID",
          "_zorroChainId": "Zorro chain ID"
        }
      },
      "setZorroChainToLZMap(uint256,uint16)": {
        "params": {
          "_lzChainId": "LayerZero Chain ID",
          "_zorroChainId": "Zorro chain ID"
        }
      },
      "sgReceive(uint16,bytes,uint256,address,uint256,bytes)": {
        "details": "Implements IStargateReceiver interface"
      },
      "transferOwnership(address)": {
        "details": "Transfers ownership of the contract to a new account (`newOwner`). Can only be called by the current owner."
      }
    },
    "version": 1
  },
  "userdoc": {
    "kind": "user",
    "methods": {
      "checkXChainDepositFee(uint256,bytes,uint256,uint256,uint256,uint256,bytes)": {
        "notice": "Checks to see how much a cross chain deposit will cost"
      },
      "checkXChainDistributeEarningsFee(uint256,uint256,uint256,uint256)": {
        "notice": "Checks to see how much a cross chain earnings distribution will cost"
      },
      "checkXChainRepatriationFee(uint256,uint256,uint256,bytes,uint256,uint256,uint256)": {
        "notice": "Estimates fees for repatriation operation"
      },
      "checkXChainWithdrawalFee(uint256,uint256,uint256,uint256,uint256)": {
        "notice": "Checks to see how much a cross chain withdrawal will cost"
      },
      "initialize(address,(address,address,address,address,address,address,address,address,address,(uint256,uint256,uint256[],bytes[],uint16[],uint256[],address,address,uint256),(address[],address[]),(address,address)))": {
        "notice": "Upgradeable constructor"
      },
      "receiveXChainDepositRequest(uint256,uint256,uint256,uint256,bytes,address)": {
        "notice": "Dummy func to allow .selector call above and guarantee typesafety for abi calls."
      },
      "receiveXChainDistributionRequest(uint256,uint256,uint256,uint256,uint256)": {
        "notice": "Dummy func to allow .selector call above and guarantee typesafety for abi calls."
      },
      "receiveXChainRepatriationRequest(uint256,uint256,uint256,bytes,uint256,uint256)": {
        "notice": "Dummy func to allow .selector call above and guarantee typesafety for abi calls."
      },
      "receiveXChainWithdrawalRequest(uint256,bytes,uint256,uint256,uint256)": {
        "notice": "Dummy func to allow .selector call above and guarantee typesafety for abi calls."
      },
      "sendXChainDepositRequest(uint256,uint256,uint256,uint256,uint256,bytes)": {
        "notice": "Prepares and sends a cross chain deposit request. Takes care of necessary financial ops (transfer/locking USDC)"
      },
      "sendXChainDistributeEarningsRequest(uint256,uint256,uint256,uint256)": {
        "notice": "Sends a request back to the home chain to distribute earnings"
      },
      "sendXChainWithdrawalRequest(uint256,uint256,uint256,uint256,uint256)": {
        "notice": "Prepares and sends a cross chain withdrwal request."
      },
      "setControllerContract(uint256,bytes)": {
        "notice": "Setter: Controller contract for each chain"
      },
      "setLayerZeroParams(address,uint256,address)": {
        "notice": "Setter: Set main LZ params"
      },
      "setStargateDestPoolIds(uint256,uint16)": {
        "notice": "Setter: Stargate dest pool IDs for USD asset"
      },
      "setZorroChainToLZMap(uint256,uint16)": {
        "notice": "Setter: LZ/Stargate params"
      },
      "sgReceive(uint16,bytes,uint256,address,uint256,bytes)": {
        "notice": "Receives stargate cross-chain calls"
      }
    },
    "version": 1
  }
}