{
  "contractName": "ZorroControllerBase",
  "abi": [
    {
      "anonymous": false,
      "inputs": [
        {
          "indexed": true,
          "internalType": "address",
          "name": "user",
          "type": "address"
        },
        {
          "indexed": true,
          "internalType": "uint256",
          "name": "pid",
          "type": "uint256"
        },
        {
          "indexed": true,
          "internalType": "uint256",
          "name": "settlementEpoch",
          "type": "uint256"
        },
        {
          "indexed": false,
          "internalType": "uint256",
          "name": "value",
          "type": "uint256"
        },
        {
          "indexed": false,
          "internalType": "address",
          "name": "token",
          "type": "address"
        }
      ],
      "name": "ClaimCreated",
      "type": "event"
    },
    {
      "anonymous": false,
      "inputs": [
        {
          "indexed": true,
          "internalType": "address",
          "name": "user",
          "type": "address"
        },
        {
          "indexed": true,
          "internalType": "uint256",
          "name": "pid",
          "type": "uint256"
        },
        {
          "indexed": false,
          "internalType": "uint256",
          "name": "wantAmount",
          "type": "uint256"
        }
      ],
      "name": "Deposit",
      "type": "event"
    },
    {
      "anonymous": false,
      "inputs": [
        {
          "indexed": true,
          "internalType": "address",
          "name": "previousOwner",
          "type": "address"
        },
        {
          "indexed": true,
          "internalType": "address",
          "name": "newOwner",
          "type": "address"
        }
      ],
      "name": "OwnershipTransferred",
      "type": "event"
    },
    {
      "anonymous": false,
      "inputs": [
        {
          "indexed": false,
          "internalType": "address",
          "name": "user",
          "type": "address"
        },
        {
          "indexed": true,
          "internalType": "uint256",
          "name": "fromPid",
          "type": "uint256"
        },
        {
          "indexed": true,
          "internalType": "uint256",
          "name": "fromTrancheId",
          "type": "uint256"
        },
        {
          "indexed": true,
          "internalType": "uint256",
          "name": "toPid",
          "type": "uint256"
        }
      ],
      "name": "TransferInvestment",
      "type": "event"
    },
    {
      "anonymous": false,
      "inputs": [
        {
          "indexed": true,
          "internalType": "address",
          "name": "user",
          "type": "address"
        },
        {
          "indexed": true,
          "internalType": "uint256",
          "name": "pid",
          "type": "uint256"
        },
        {
          "indexed": false,
          "internalType": "uint256",
          "name": "trancheId",
          "type": "uint256"
        },
        {
          "indexed": false,
          "internalType": "uint256",
          "name": "wantAmount",
          "type": "uint256"
        }
      ],
      "name": "Withdraw",
      "type": "event"
    },
    {
      "inputs": [],
      "name": "BSCMarketTVLUSD",
      "outputs": [
        {
          "internalType": "uint256",
          "name": "",
          "type": "uint256"
        }
      ],
      "stateMutability": "view",
      "type": "function"
    },
    {
      "inputs": [
        {
          "internalType": "uint256",
          "name": "",
          "type": "uint256"
        }
      ],
      "name": "USDCToZORPath",
      "outputs": [
        {
          "internalType": "address",
          "name": "",
          "type": "address"
        }
      ],
      "stateMutability": "view",
      "type": "function"
    },
    {
      "inputs": [
        {
          "internalType": "uint256",
          "name": "",
          "type": "uint256"
        }
      ],
      "name": "USDCToZorroLPPoolToken0Path",
      "outputs": [
        {
          "internalType": "address",
          "name": "",
          "type": "address"
        }
      ],
      "stateMutability": "view",
      "type": "function"
    },
    {
      "inputs": [
        {
          "internalType": "uint256",
          "name": "",
          "type": "uint256"
        }
      ],
      "name": "USDCToZorroLPPoolToken1Path",
      "outputs": [
        {
          "internalType": "address",
          "name": "",
          "type": "address"
        }
      ],
      "stateMutability": "view",
      "type": "function"
    },
    {
      "inputs": [],
      "name": "ZORRO",
      "outputs": [
        {
          "internalType": "address",
          "name": "",
          "type": "address"
        }
      ],
      "stateMutability": "view",
      "type": "function"
    },
    {
      "inputs": [],
      "name": "ZORRODailyDistributionFactorBasisPointsMax",
      "outputs": [
        {
          "internalType": "uint256",
          "name": "",
          "type": "uint256"
        }
      ],
      "stateMutability": "view",
      "type": "function"
    },
    {
      "inputs": [],
      "name": "ZORRODailyDistributionFactorBasisPointsMin",
      "outputs": [
        {
          "internalType": "uint256",
          "name": "",
          "type": "uint256"
        }
      ],
      "stateMutability": "view",
      "type": "function"
    },
    {
      "inputs": [],
      "name": "ZorroTotalVaultTVLUSD",
      "outputs": [
        {
          "internalType": "uint256",
          "name": "",
          "type": "uint256"
        }
      ],
      "stateMutability": "view",
      "type": "function"
    },
    {
      "inputs": [],
      "name": "baseRewardRateBasisPoints",
      "outputs": [
        {
          "internalType": "uint256",
          "name": "",
          "type": "uint256"
        }
      ],
      "stateMutability": "view",
      "type": "function"
    },
    {
      "inputs": [],
      "name": "blocksPerDay",
      "outputs": [
        {
          "internalType": "uint256",
          "name": "",
          "type": "uint256"
        }
      ],
      "stateMutability": "view",
      "type": "function"
    },
    {
      "inputs": [],
      "name": "burnAddress",
      "outputs": [
        {
          "internalType": "address",
          "name": "",
          "type": "address"
        }
      ],
      "stateMutability": "view",
      "type": "function"
    },
    {
      "inputs": [],
      "name": "chainId",
      "outputs": [
        {
          "internalType": "uint256",
          "name": "",
          "type": "uint256"
        }
      ],
      "stateMutability": "view",
      "type": "function"
    },
    {
      "inputs": [
        {
          "internalType": "uint256",
          "name": "",
          "type": "uint256"
        },
        {
          "internalType": "address",
          "name": "",
          "type": "address"
        },
        {
          "internalType": "address",
          "name": "",
          "type": "address"
        }
      ],
      "name": "claims",
      "outputs": [
        {
          "internalType": "uint256",
          "name": "preSettlementAmount",
          "type": "uint256"
        },
        {
          "internalType": "uint256",
          "name": "settlementEpoch",
          "type": "uint256"
        },
        {
          "internalType": "bool",
          "name": "settled",
          "type": "bool"
        },
        {
          "internalType": "uint256",
          "name": "reason",
          "type": "uint256"
        }
      ],
      "stateMutability": "view",
      "type": "function"
    },
    {
      "inputs": [],
      "name": "curveStablePoolAddress",
      "outputs": [
        {
          "internalType": "address",
          "name": "",
          "type": "address"
        }
      ],
      "stateMutability": "view",
      "type": "function"
    },
    {
      "inputs": [],
      "name": "defaultMaxMarketMovement",
      "outputs": [
        {
          "internalType": "uint256",
          "name": "",
          "type": "uint256"
        }
      ],
      "stateMutability": "view",
      "type": "function"
    },
    {
      "inputs": [],
      "name": "defaultStablecoin",
      "outputs": [
        {
          "internalType": "address",
          "name": "",
          "type": "address"
        }
      ],
      "stateMutability": "view",
      "type": "function"
    },
    {
      "inputs": [],
      "name": "defaultStablecoinIndex",
      "outputs": [
        {
          "internalType": "int128",
          "name": "",
          "type": "int128"
        }
      ],
      "stateMutability": "view",
      "type": "function"
    },
    {
      "inputs": [
        {
          "internalType": "uint256",
          "name": "",
          "type": "uint256"
        }
      ],
      "name": "endpointContracts",
      "outputs": [
        {
          "internalType": "address",
          "name": "",
          "type": "address"
        }
      ],
      "stateMutability": "view",
      "type": "function"
    },
    {
      "inputs": [],
      "name": "failedLockedBuybackUSDC",
      "outputs": [
        {
          "internalType": "uint256",
          "name": "",
          "type": "uint256"
        }
      ],
      "stateMutability": "view",
      "type": "function"
    },
    {
      "inputs": [],
      "name": "failedLockedRevShareUSDC",
      "outputs": [
        {
          "internalType": "uint256",
          "name": "",
          "type": "uint256"
        }
      ],
      "stateMutability": "view",
      "type": "function"
    },
    {
      "inputs": [],
      "name": "homeChainZorroController",
      "outputs": [
        {
          "internalType": "address",
          "name": "",
          "type": "address"
        }
      ],
      "stateMutability": "view",
      "type": "function"
    },
    {
      "inputs": [],
      "name": "isTimeMultiplierActive",
      "outputs": [
        {
          "internalType": "bool",
          "name": "",
          "type": "bool"
        }
      ],
      "stateMutability": "view",
      "type": "function"
    },
    {
      "inputs": [],
      "name": "lockUSDCController",
      "outputs": [
        {
          "internalType": "address",
          "name": "",
          "type": "address"
        }
      ],
      "stateMutability": "view",
      "type": "function"
    },
    {
      "inputs": [
        {
          "internalType": "uint256",
          "name": "",
          "type": "uint256"
        },
        {
          "internalType": "uint256",
          "name": "",
          "type": "uint256"
        }
      ],
      "name": "lockedEarningsStatus",
      "outputs": [
        {
          "internalType": "uint8",
          "name": "",
          "type": "uint8"
        }
      ],
      "stateMutability": "view",
      "type": "function"
    },
    {
      "inputs": [],
      "name": "owner",
      "outputs": [
        {
          "internalType": "address",
          "name": "",
          "type": "address"
        }
      ],
      "stateMutability": "view",
      "type": "function"
    },
    {
      "inputs": [
        {
          "internalType": "uint256",
          "name": "",
          "type": "uint256"
        }
      ],
      "name": "poolInfo",
      "outputs": [
        {
          "internalType": "contract IERC20",
          "name": "want",
          "type": "address"
        },
        {
          "internalType": "uint256",
          "name": "allocPoint",
          "type": "uint256"
        },
        {
          "internalType": "uint256",
          "name": "lastRewardBlock",
          "type": "uint256"
        },
        {
          "internalType": "uint256",
          "name": "accZORRORewards",
          "type": "uint256"
        },
        {
          "internalType": "uint256",
          "name": "totalTrancheContributions",
          "type": "uint256"
        },
        {
          "internalType": "address",
          "name": "vault",
          "type": "address"
        },
        {
          "internalType": "address",
          "name": "intermediaryToken",
          "type": "address"
        }
      ],
      "stateMutability": "view",
      "type": "function"
    },
    {
      "inputs": [],
      "name": "publicPool",
      "outputs": [
        {
          "internalType": "address",
          "name": "",
          "type": "address"
        }
      ],
      "stateMutability": "view",
      "type": "function"
    },
    {
      "inputs": [
        {
          "internalType": "uint256",
          "name": "",
          "type": "uint256"
        },
        {
          "internalType": "address",
          "name": "",
          "type": "address"
        }
      ],
      "name": "redepositInfo",
      "outputs": [
        {
          "internalType": "uint256",
          "name": "durationCommittedInWeeks",
          "type": "uint256"
        },
        {
          "internalType": "uint256",
          "name": "enteredVaultAt",
          "type": "uint256"
        }
      ],
      "stateMutability": "view",
      "type": "function"
    },
    {
      "inputs": [],
      "name": "renounceOwnership",
      "outputs": [],
      "stateMutability": "nonpayable",
      "type": "function"
    },
    {
      "inputs": [],
      "name": "startBlock",
      "outputs": [
        {
          "internalType": "uint256",
          "name": "",
          "type": "uint256"
        }
      ],
      "stateMutability": "view",
      "type": "function"
    },
    {
      "inputs": [],
      "name": "synthethicStablecoinIndex",
      "outputs": [
        {
          "internalType": "int128",
          "name": "",
          "type": "int128"
        }
      ],
      "stateMutability": "view",
      "type": "function"
    },
    {
      "inputs": [],
      "name": "syntheticStablecoin",
      "outputs": [
        {
          "internalType": "address",
          "name": "",
          "type": "address"
        }
      ],
      "stateMutability": "view",
      "type": "function"
    },
    {
      "inputs": [],
      "name": "targetTVLCaptureBasisPoints",
      "outputs": [
        {
          "internalType": "uint256",
          "name": "",
          "type": "uint256"
        }
      ],
      "stateMutability": "view",
      "type": "function"
    },
    {
      "inputs": [],
      "name": "totalAllocPoint",
      "outputs": [
        {
          "internalType": "uint256",
          "name": "",
          "type": "uint256"
        }
      ],
      "stateMutability": "view",
      "type": "function"
    },
    {
      "inputs": [
        {
          "internalType": "uint256",
          "name": "",
          "type": "uint256"
        },
        {
          "internalType": "address",
          "name": "",
          "type": "address"
        },
        {
          "internalType": "uint256",
          "name": "",
          "type": "uint256"
        }
      ],
      "name": "trancheInfo",
      "outputs": [
        {
          "internalType": "uint256",
          "name": "contribution",
          "type": "uint256"
        },
        {
          "internalType": "uint256",
          "name": "timeMultiplier",
          "type": "uint256"
        },
        {
          "internalType": "uint256",
          "name": "rewardDebt",
          "type": "uint256"
        },
        {
          "internalType": "uint256",
          "name": "durationCommittedInWeeks",
          "type": "uint256"
        },
        {
          "internalType": "uint256",
          "name": "enteredVaultAt",
          "type": "uint256"
        },
        {
          "internalType": "uint256",
          "name": "exitedVaultStartingAt",
          "type": "uint256"
        }
      ],
      "stateMutability": "view",
      "type": "function"
    },
    {
      "inputs": [
        {
          "internalType": "address",
          "name": "newOwner",
          "type": "address"
        }
      ],
      "name": "transferOwnership",
      "outputs": [],
      "stateMutability": "nonpayable",
      "type": "function"
    },
    {
      "inputs": [],
      "name": "uniRouterAddress",
      "outputs": [
        {
          "internalType": "address",
          "name": "",
          "type": "address"
        }
      ],
      "stateMutability": "view",
      "type": "function"
    },
    {
      "inputs": [],
      "name": "zorroLPPool",
      "outputs": [
        {
          "internalType": "address",
          "name": "",
          "type": "address"
        }
      ],
      "stateMutability": "view",
      "type": "function"
    },
    {
      "inputs": [],
      "name": "zorroLPPoolToken0",
      "outputs": [
        {
          "internalType": "address",
          "name": "",
          "type": "address"
        }
      ],
      "stateMutability": "view",
      "type": "function"
    },
    {
      "inputs": [],
      "name": "zorroLPPoolToken1",
      "outputs": [
        {
          "internalType": "address",
          "name": "",
          "type": "address"
        }
      ],
      "stateMutability": "view",
      "type": "function"
    },
    {
      "inputs": [],
      "name": "zorroStakingVault",
      "outputs": [
        {
          "internalType": "address",
          "name": "",
          "type": "address"
        }
      ],
      "stateMutability": "view",
      "type": "function"
    },
    {
      "inputs": [
        {
          "internalType": "uint256",
          "name": "_blockNumber",
          "type": "uint256"
        }
      ],
      "name": "setStartBlock",
      "outputs": [],
      "stateMutability": "nonpayable",
      "type": "function"
    },
    {
      "inputs": [
        {
          "internalType": "address",
          "name": "_publicPoolAddress",
          "type": "address"
        }
      ],
      "name": "setPublicPool",
      "outputs": [],
      "stateMutability": "nonpayable",
      "type": "function"
    },
    {
      "inputs": [
        {
          "internalType": "uint256",
          "name": "_baseRewardRateBasisPoints",
          "type": "uint256"
        }
      ],
      "name": "setBaseRewardRateBasisPoints",
      "outputs": [],
      "stateMutability": "nonpayable",
      "type": "function"
    },
    {
      "inputs": [
        {
          "internalType": "uint256",
          "name": "_BSCMarketTVLUSD",
          "type": "uint256"
        }
      ],
      "name": "setBSCMarketTVLUSD",
      "outputs": [],
      "stateMutability": "nonpayable",
      "type": "function"
    },
    {
      "inputs": [
        {
          "internalType": "uint256",
          "name": "_ZorroTotalVaultTVLUSD",
          "type": "uint256"
        }
      ],
      "name": "setZorroTotalVaultTVLUSD",
      "outputs": [],
      "stateMutability": "nonpayable",
      "type": "function"
    },
    {
      "inputs": [
        {
          "internalType": "uint256",
          "name": "_targetTVLCaptureBasisPoints",
          "type": "uint256"
        }
      ],
      "name": "setTargetTVLCaptureBasisPoints",
      "outputs": [],
      "stateMutability": "nonpayable",
      "type": "function"
    },
    {
      "inputs": [
        {
          "internalType": "uint256",
          "name": "_blocksPerDay",
          "type": "uint256"
        }
      ],
      "name": "setBlocksPerDay",
      "outputs": [],
      "stateMutability": "nonpayable",
      "type": "function"
    },
    {
      "inputs": [
        {
          "internalType": "uint256",
          "name": "_value",
          "type": "uint256"
        }
      ],
      "name": "setZORRODailyDistributionFactorBasisPointsMin",
      "outputs": [],
      "stateMutability": "nonpayable",
      "type": "function"
    },
    {
      "inputs": [
        {
          "internalType": "uint256",
          "name": "_value",
          "type": "uint256"
        }
      ],
      "name": "setZORRODailyDistributionFactorBasisPointsMax",
      "outputs": [],
      "stateMutability": "nonpayable",
      "type": "function"
    },
    {
      "inputs": [
        {
          "internalType": "bool",
          "name": "_isActive",
          "type": "bool"
        }
      ],
      "name": "setIsTimeMultiplierActive",
      "outputs": [],
      "stateMutability": "nonpayable",
      "type": "function"
    },
    {
      "inputs": [
        {
          "internalType": "uint256",
          "name": "_chainId",
          "type": "uint256"
        },
        {
          "internalType": "address",
          "name": "_endpointContract",
          "type": "address"
        }
      ],
      "name": "setEndpointContracts",
      "outputs": [],
      "stateMutability": "nonpayable",
      "type": "function"
    },
    {
      "inputs": [],
      "name": "poolLength",
      "outputs": [
        {
          "internalType": "uint256",
          "name": "",
          "type": "uint256"
        }
      ],
      "stateMutability": "view",
      "type": "function"
    },
    {
      "inputs": [
        {
          "internalType": "uint256",
          "name": "_pid",
          "type": "uint256"
        },
        {
          "internalType": "address",
          "name": "_user",
          "type": "address"
        }
      ],
      "name": "trancheLength",
      "outputs": [
        {
          "internalType": "uint256",
          "name": "",
          "type": "uint256"
        }
      ],
      "stateMutability": "view",
      "type": "function"
    },
    {
      "inputs": [],
      "name": "getZorroPerBlock",
      "outputs": [
        {
          "internalType": "uint256",
          "name": "",
          "type": "uint256"
        }
      ],
      "stateMutability": "view",
      "type": "function"
    },
    {
      "inputs": [
        {
          "internalType": "uint256",
          "name": "_pid",
          "type": "uint256"
        }
      ],
      "name": "updatePool",
      "outputs": [],
      "stateMutability": "nonpayable",
      "type": "function"
    },
    {
      "inputs": [
        {
          "internalType": "uint256",
          "name": "_amount",
          "type": "uint256"
        }
      ],
      "name": "receiveXChainBurnRewardsRequest",
      "outputs": [],
      "stateMutability": "nonpayable",
      "type": "function"
    },
    {
      "inputs": [
        {
          "internalType": "address",
          "name": "_token",
          "type": "address"
        },
        {
          "internalType": "uint256",
          "name": "_amount",
          "type": "uint256"
        }
      ],
      "name": "inCaseTokensGetStuck",
      "outputs": [],
      "stateMutability": "nonpayable",
      "type": "function"
    }
  ],
  "bytecode": "0x608060405260038054600160a060020a03191661dead179055600a600681905561708090556001600b8190556014600c55600d805460ff191690911790556103ca601955600060235534801561005457600080fd5b50610077610069640100000000610080810204565b640100000000610084810204565b600180556100d4565b3390565b60008054600160a060020a03838116600160a060020a0319831681178455604051919092169283917f8be0079c531659141344cd1fd0a4f28419497f9722a3daafe3b4186f6b6457e09190a35050565b611a95806100e36000396000f3fe608060405234801561001057600080fd5b50600436106103ab576000357c0100000000000000000000000000000000000000000000000000000000900480637bf604d8116101fb578063b614bdba1161012c578063c9057de5116100ca578063ed148bf311610099578063ed148bf3146108c9578063f2fde38b146108dc578063f35e4a6e146108ef578063fc39a29e1461090257600080fd5b8063c9057de51461089b578063cb9c2f68146108a4578063d7312347146108ad578063d85c5548146108c057600080fd5b8063c27893ef11610106578063c27893ef1461081b578063c29de0d21461082e578063c4f79c2314610875578063c6d758cb1461088857600080fd5b8063b614bdba146107e4578063b61bb80a146107f7578063bb26a5541461080f57600080fd5b80639a8a059211610199578063a4d2b08311610173578063a4d2b083146106df578063a6fda082146106f2578063a89802d314610764578063b4b4e9eb146107a457600080fd5b80639a8a0592146106ba5780639b8ad2d6146106c35780639cde7a00146106cc57600080fd5b80638da5cb5b116101d55780638da5cb5b14610666578063941d3fd01461067757806394909cc21461069457806398ee60e9146106a757600080fd5b80637bf604d81461062d5780638b2bc852146106405780638c157db21461065357600080fd5b8063441e36c6116102e0578063668ababb1161027e5780636d7cb7e61161024d5780636d7cb7e6146105d457806370d5ae0514610609578063715018a61461061c57806376cc23031461062457600080fd5b8063668ababb14610588578063693a090b1461059b5780636985b934146105ae5780636c78d49c146105c157600080fd5b80634cfea68a116102ba5780634cfea68a1461052d57806351eb05a61461053657806353f73f87146105495780635527a6f91461057f57600080fd5b8063441e36c61461050957806348cd4cb11461051157806348d57c8e1461051a57600080fd5b8063353b6c2c1161034d5780633b9ce565116103275780633b9ce565146104c75780633bbc1ffc146104d05780634098b0eb146104e3578063416d0de7146104f657600080fd5b8063353b6c2c146104985780633b35b727146104ab5780633b710688146104be57600080fd5b80631479a6df116103895780631479a6df146103e55780631526fe27146103f857806317caf6f11461044e5780631ca95f941461045757600080fd5b806305bfc28f146103b0578063081e3eda146103c557806308da26fc146103dc575b600080fd5b6103c36103be3660046116e2565b610915565b005b6021545b6040519081526020015b60405180910390f35b6103c960085481565b6103c36103f33660046116e2565b610950565b61040b6104063660046116e2565b610982565b60408051600160a060020a039889168152602081019790975286019490945260608501929092526080840152831660a083015290911660c082015260e0016103d3565b6103c960235481565b6104806104653660046116e2565b601060205260009081526040902054600160a060020a031681565b604051600160a060020a0390911681526020016103d3565b6103c36104a63660046116e2565b6109df565b6103c36104b93660046116e2565b610a11565b6103c960065481565b6103c9600c5481565b6103c36104de3660046116e2565b610a43565b6103c36104f13660046116e2565b610a75565b600e5461048090600160a060020a031681565b6103c9610aa7565b6103c960045481565b60115461048090600160a060020a031681565b6103c9600a5481565b6103c36105443660046116e2565b610bca565b6103c9610557366004611717565b6000918252602260209081526040808420600160a060020a0393909316845291905290205490565b6103c9600b5481565b60055461048090600160a060020a031681565b60125461048090600160a060020a031681565b6103c36105bc3660046116e2565b610e72565b6103c36105cf366004611751565b610eef565b600f80546105f691700100000000000000000000000000000000909104900b81565b604051600f9190910b81526020016103d3565b60035461048090600160a060020a031681565b6103c3610f2f565b6103c960185481565b601a5461048090600160a060020a031681565b601c5461048090600160a060020a031681565b60025461048090600160a060020a031681565b600054600160a060020a0316610480565b600d546106849060ff1681565b60405190151581526020016103d3565b6103c36106a236600461176e565b610f68565b6104806106b53660046116e2565b610fc4565b6103c960155481565b6103c960195481565b6104806106da3660046116e2565b610fee565b601d5461048090600160a060020a031681565b61073e610700366004611789565b602460209081526000938452604080852082529284528284209052825290208054600182015460028301546003909301549192909160ff9091169084565b6040805194855260208501939093529015159183019190915260608201526080016103d3565b6107926107723660046117c5565b601660209081526000928352604080842090915290825290205460ff1681565b60405160ff90911681526020016103d3565b6107b76107b23660046117e7565b610ffe565b604080519687526020870195909552938501929092526060840152608083015260a082015260c0016103d3565b6104806107f23660046116e2565b61105f565b600d54610480906101009004600160a060020a031681565b600f80546105f6910b81565b60135461048090600160a060020a031681565b61086061083c366004611717565b60256020908152600092835260408084209091529082529020805460019091015482565b604080519283526020830191909152016103d3565b6103c3610883366004611717565b61106f565b6103c361089636600461181c565b6110d7565b6103c960075481565b6103c960095481565b6103c36108bb3660046116e2565b6111a3565b6103c960175481565b601b5461048090600160a060020a031681565b6103c36108ea36600461176e565b6111d5565b6103c36108fd3660046116e2565b61128d565b60145461048090600160a060020a031681565b600054600160a060020a0316331461094b5760405160e560020a62461bcd02815260040161094290611846565b60405180910390fd5b600855565b600054600160a060020a0316331461097d5760405160e560020a62461bcd02815260040161094290611846565b600b55565b6021818154811061099257600080fd5b60009182526020909120600790910201805460018201546002830154600384015460048501546005860154600690960154600160a060020a03958616975093959294919390928216911687565b600054600160a060020a03163314610a0c5760405160e560020a62461bcd02815260040161094290611846565b600a55565b600054600160a060020a03163314610a3e5760405160e560020a62461bcd02815260040161094290611846565b600c55565b600054600160a060020a03163314610a705760405160e560020a62461bcd02815260040161094290611846565b600955565b600054600160a060020a03163314610aa25760405160e560020a62461bcd02815260040161094290611846565b600655565b600080610ae5600854610adf610aca6127106009546112bf90919063ffffffff16565b600754600654610ad9916112d2565b906112d2565b906112bf565b9050600c54811115610afa5750600c54610b09565b600b54811015610b095750600b545b6002546005546040517f70a08231000000000000000000000000000000000000000000000000000000008152600160a060020a03918216600482015260009291909116906370a0823190602401602060405180830381865afa158015610b73573d6000803e3d6000fd5b505050506040513d601f19601f82011682018060405250810190610b97919061187b565b90506000610bab612710610adf84866112d2565b9050610bc2600a54826112bf90919063ffffffff16565b935050505090565b600060218281548110610bdf57610bdf611894565b9060005260206000209060070201905080600201544311610bfe575050565b6000610c178260020154436112de90919063ffffffff16565b905060008111610c2657505050565b6000610c30610aa7565b90506000610c55602354610adf8660010154610ad986886112d290919063ffffffff16565b601454909150600160a060020a0316301415610ca857600554600254610c8991600160a060020a03918216911630846112ea565b6003840154610c9890826113a1565b6003850155436002850155610e6b565b6002546040517f40c10f1900000000000000000000000000000000000000000000000000000000815230600482015260248101839052600160a060020a03909116906340c10f1990604401600060405180830381600087803b158015610d0d57600080fd5b505af1158015610d21573d6000803e3d6000fd5b5050600080525050601060209081527f6e0956cda88cad152e89927e53611735b61a5c762d1428573c6931b0a5efcb01546014546040516c01000000000000000000000000600160a060020a0392831602938101939093521690819063edf54e479060340160405160208183030381529060405284604051602401610da891815260200190565b60408051601f198184030181529181526020820180517bffffffffffffffffffffffffffffffffffffffffffffffffffffffff167f7a04bfc300000000000000000000000000000000000000000000000000000000179052517c010000000000000000000000000000000000000000000000000000000063ffffffff8516028152610e3792919060040161191b565b600060405180830381600087803b158015610e5157600080fd5b505af1158015610e65573d6000803e3d6000fd5b50505050505b5050505050565b6002546005546040517f9dc29fac000000000000000000000000000000000000000000000000000000008152600160a060020a03918216600482015260248101849052911690639dc29fac90604401600060405180830381600087803b158015610edb57600080fd5b505af1158015610e6b573d6000803e3d6000fd5b600054600160a060020a03163314610f1c5760405160e560020a62461bcd02815260040161094290611846565b600d805460ff1916911515919091179055565b600054600160a060020a03163314610f5c5760405160e560020a62461bcd02815260040161094290611846565b610f6660006113ad565b565b600054600160a060020a03163314610f955760405160e560020a62461bcd02815260040161094290611846565b6005805473ffffffffffffffffffffffffffffffffffffffff1916600160a060020a0392909216919091179055565b601e8181548110610fd457600080fd5b600091825260209091200154600160a060020a0316905081565b60208181548110610fd457600080fd5b6022602052826000526040600020602052816000526040600020818154811061102657600080fd5b60009182526020909120600690910201805460018201546002830154600384015460048501546005909501549397509195509350919086565b601f8181548110610fd457600080fd5b600054600160a060020a0316331461109c5760405160e560020a62461bcd02815260040161094290611846565b600091825260106020526040909120805473ffffffffffffffffffffffffffffffffffffffff1916600160a060020a03909216919091179055565b600054600160a060020a031633146111045760405160e560020a62461bcd02815260040161094290611846565b600254600160a060020a038381169116141561118b5760405160e560020a62461bcd02815260206004820152603560248201527f217361666520746f20757365205a6f72726f20746f6b656e20696e2066756e6360448201527f20696e43617365546f6b656e73476574537475636b00000000000000000000006064820152608401610942565b61119f600160a060020a038316338361140a565b5050565b600054600160a060020a031633146111d05760405160e560020a62461bcd02815260040161094290611846565b600755565b600054600160a060020a031633146112025760405160e560020a62461bcd02815260040161094290611846565b600160a060020a0381166112815760405160e560020a62461bcd02815260206004820152602660248201527f4f776e61626c653a206e6577206f776e657220697320746865207a65726f206160448201527f64647265737300000000000000000000000000000000000000000000000000006064820152608401610942565b61128a816113ad565b50565b600054600160a060020a031633146112ba5760405160e560020a62461bcd02815260040161094290611846565b600455565b60006112cb828461198a565b9392505050565b60006112cb82846119c5565b60006112cb82846119e4565b604051600160a060020a038085166024830152831660448201526064810182905261139b9085907f23b872dd00000000000000000000000000000000000000000000000000000000906084015b60408051601f198184030181529190526020810180517bffffffffffffffffffffffffffffffffffffffffffffffffffffffff167fffffffff0000000000000000000000000000000000000000000000000000000090931692909217909152611458565b50505050565b60006112cb82846119fb565b60008054600160a060020a0383811673ffffffffffffffffffffffffffffffffffffffff19831681178455604051919092169283917f8be0079c531659141344cd1fd0a4f28419497f9722a3daafe3b4186f6b6457e09190a35050565b604051600160a060020a0383166024820152604481018290526114539084907fa9059cbb0000000000000000000000000000000000000000000000000000000090606401611337565b505050565b60006114ad826040518060400160405280602081526020017f5361666545524332303a206c6f772d6c6576656c2063616c6c206661696c656481525085600160a060020a03166115409092919063ffffffff16565b80519091501561145357808060200190518101906114cb9190611a13565b6114535760405160e560020a62461bcd02815260206004820152602a60248201527f5361666545524332303a204552433230206f7065726174696f6e20646964206e60448201527f6f742073756363656564000000000000000000000000000000000000000000006064820152608401610942565b606061154f8484600085611557565b949350505050565b606030318311156115d35760405160e560020a62461bcd02815260206004820152602660248201527f416464726573733a20696e73756666696369656e742062616c616e636520666f60448201527f722063616c6c00000000000000000000000000000000000000000000000000006064820152608401610942565b600160a060020a0385163b61162d5760405160e560020a62461bcd02815260206004820152601d60248201527f416464726573733a2063616c6c20746f206e6f6e2d636f6e74726163740000006044820152606401610942565b60008086600160a060020a031685876040516116499190611a30565b60006040518083038185875af1925050503d8060008114611686576040519150601f19603f3d011682016040523d82523d6000602084013e61168b565b606091505b509150915061169b8282866116a6565b979650505050505050565b606083156116b55750816112cb565b8251156116c55782518084602001fd5b8160405160e560020a62461bcd0281526004016109429190611a4c565b6000602082840312156116f457600080fd5b5035919050565b8035600160a060020a038116811461171257600080fd5b919050565b6000806040838503121561172a57600080fd5b8235915061173a602084016116fb565b90509250929050565b801515811461128a57600080fd5b60006020828403121561176357600080fd5b81356112cb81611743565b60006020828403121561178057600080fd5b6112cb826116fb565b60008060006060848603121561179e57600080fd5b833592506117ae602085016116fb565b91506117bc604085016116fb565b90509250925092565b600080604083850312156117d857600080fd5b50508035926020909101359150565b6000806000606084860312156117fc57600080fd5b8335925061180c602085016116fb565b9150604084013590509250925092565b6000806040838503121561182f57600080fd5b611838836116fb565b946020939093013593505050565b6020808252818101527f4f776e61626c653a2063616c6c6572206973206e6f7420746865206f776e6572604082015260600190565b60006020828403121561188d57600080fd5b5051919050565b7f4e487b7100000000000000000000000000000000000000000000000000000000600052603260045260246000fd5b60005b838110156118de5781810151838201526020016118c6565b8381111561139b5750506000910152565b600081518084526119078160208601602086016118c3565b601f01601f19169290920160200192915050565b60608152600061192e60608301856118ef565b828103602084015261194081856118ef565b83810360409094019390935250506000815260200192915050565b7f4e487b7100000000000000000000000000000000000000000000000000000000600052601160045260246000fd5b6000826119c0577f4e487b7100000000000000000000000000000000000000000000000000000000600052601260045260246000fd5b500490565b60008160001904831182151516156119df576119df61195b565b500290565b6000828210156119f6576119f661195b565b500390565b60008219821115611a0e57611a0e61195b565b500190565b600060208284031215611a2557600080fd5b81516112cb81611743565b60008251611a428184602087016118c3565b9190910192915050565b6020815260006112cb60208301846118ef56fea264697066735822122060c86a16f65e8d1aa54aecb682d2ea97ce263eeb6f409497dfba0fd794719d5f64736f6c634300080a0033",
  "immutableReferences": {},
  "source": "// SPDX-License-Identifier: MIT\npragma solidity ^0.8.0;\n\nimport \"@openzeppelin/contracts/token/ERC20/utils/SafeERC20.sol\";\n\nimport \"@openzeppelin/contracts/utils/math/Math.sol\";\n\nimport \"@openzeppelin/contracts/utils/math/SafeMath.sol\";\n\nimport \"@openzeppelin/contracts/access/Ownable.sol\";\n\nimport \"@openzeppelin/contracts/security/ReentrancyGuard.sol\";\n\nimport \"../tokens/ZorroTokens.sol\"; // TODO: Consider using SafeERC20/OZ helper functions here\n\nimport \"../cross-chain/XchainEndpoint.sol\";\n\n\n/* Base Contract */\n\n/// @title ZorroControllerBase: The base controller with main state variables, data types, and functions\ncontract ZorroControllerBase is Ownable, ReentrancyGuard {\n    using SafeMath for uint256;\n    using Math for uint256; // TODO: Do we need both Math and SafeMath?\n    using SafeERC20 for IERC20;\n\n    /* Structs */\n\n    // Info of each tranche.\n    struct TrancheInfo {\n        uint256 contribution; // The tranche-specific contribution for a given pool (Cx). Equivalent to the product of their contributed deposit and a time multiplier\n        uint256 timeMultiplier; // The time multiplier factor for rewards\n        uint256 rewardDebt; // The tranche's share of the amount of rewards accumulated in the pool to date (see README)\n        uint256 durationCommittedInWeeks; // How many weeks the user committed to at the time of deposit for this tranche\n        uint256 enteredVaultAt; // The block timestamp for which the user deposited into a Vault.\n        uint256 exitedVaultStartingAt; // The block timestamp for which the user attempted withdrawal (useful for tracking cross chain withdrawals)\n    }\n\n    // Info of each pool\n    struct PoolInfo {\n        IERC20 want; // Want token contract.\n        uint256 allocPoint; // How many allocation points assigned to this pool.\n        uint256 lastRewardBlock; // Last block number that ZORRO distribution occurs.\n        uint256 accZORRORewards; // Accumulated ZORRO rewards in this pool\n        uint256 totalTrancheContributions; // Sum of all user contributions in this pool\n        address vault; // Address of the Vault\n        address intermediaryToken; // Token that the protocol returns after claiming (e.g. on Tranchess) (usually a stablecoin like USDC)\n    }\n\n    // Claim\n    struct Claim {\n        uint256 preSettlementAmount; // Amount of tokens bought/sold of origin token, before settlement\n        uint256 settlementEpoch; // The anticipated settlement epoch\n        bool settled; // Whether trade has been settled\n        uint256 reason; // 0: deposit, 1: withdrawal, 2: transfer\n    }\n    // Redeposit information for async flows\n    struct RedepositInfo {\n        uint256 durationCommittedInWeeks; // Original number of weeks committed for previous vault (pre-redeposit)\n        uint256 enteredVaultAt; // Original entry timestamp for previous vault (pre-redeposit)\n    }\n\n    /* Variables */ \n\n    // Public variables and their initial values (check blockchain scanner for latest values)\n    // See constructor() for explanations\n    address public ZORRO;\n    address public burnAddress = 0x000000000000000000000000000000000000dEaD;\n    uint256 public startBlock;\n    address public publicPool; \n    uint256 public baseRewardRateBasisPoints = 10;\n    uint256 public BSCMarketTVLUSD; \n    uint256 public ZorroTotalVaultTVLUSD;\n    uint256 public targetTVLCaptureBasisPoints; // 333 = 3.33%\n    uint256 public blocksPerDay = 28800; // Approximate\n    uint256 public ZORRODailyDistributionFactorBasisPointsMin = 1; // 1 = 0.01%\n    uint256 public ZORRODailyDistributionFactorBasisPointsMax = 20; // 20 = 0.20%\n    bool public isTimeMultiplierActive = true; // If true, allows use of time multiplier\n    // TODO: Are defaultStablecoin, syntheticStablecoin needed anymore?\n    address public defaultStablecoin; // TODO: Setter/constructor\n    address public syntheticStablecoin; // TODO: Setter/constructor\n    int128 public defaultStablecoinIndex; // Index in Curve metapool of default stablecoin (e.g. USDC) TODO: Setter/constructor\n    int128 public synthethicStablecoinIndex; // Index in Curve metapool of synthetic stablecoin (e.g. zUSDC) TODO: Setter/constructor\n    mapping(uint256 => address) public endpointContracts; // Mapping of chain ID to endpoint contract\n    address public lockUSDCController; // TODO: Put in setter, constructor\n    address public uniRouterAddress; // Router contract address for adding/removing liquidity, etc. TODO: Put in setter/getter\n    address public curveStablePoolAddress; // Pool contract address for swapping stablecoins TODO: Put in setter/getter\n    address public homeChainZorroController; // Address of the home (BSC) chain ZorroController contract. For cross chain routing. TODO: setter/constructor TODO: Make sure homecontrollercontract can never be address(0)!\n    uint256 public chainId; // TODO: Setter, contructor. The ID/index of the chain that this contract is on\n    // TODO: Do thorough analysis to ensure enough setters/constructors\n    mapping(uint256 => mapping(uint256 => uint8)) public lockedEarningsStatus; // Tracks status of cross chain locked earnings. Mapping: block number => pid => status. Statuses: 0: None, 1: Pending, 2: Completed successfully, 3: Failed. TODO: Turn these numbers into enums\n    uint256 public failedLockedBuybackUSDC; // Accumulated amount of locked earnings for buyback that were failed from previous cross chain attempts\n    uint256 public failedLockedRevShareUSDC; // Accumulated amount of locked earnings for revshare that were failed from previous cross chain attempts\n    uint256 public defaultMaxMarketMovement = 970; // Max default slippage, divided by 1000. E.g. 970 means 1 - 970/1000 = 3%. TODO: Setter\n    address public zorroLPPool; // TODO: Constructor, setter. Main pool for Zorro liquidity\n    address public zorroLPPoolToken0; // TODO: Constructor, setter. For the dominant LP pool, the 0th token (usually ZOR)\n    address public zorroLPPoolToken1; // TODO: Constructor, setter. For the dominant LP pool, the 1st token\n    address public zorroStakingVault; // TODO: Constructor, setter. The vault for ZOR stakers on the BSC chain.\n    address[] public USDCToZORPath; // TODO: Constructor, setter. The router path from USDC to ZOR\n    address[] public USDCToZorroLPPoolToken0Path; // TODO: Constructor, setter. The router path from USDC to the primary Zorro LP pool, Token 0\n    address[] public USDCToZorroLPPoolToken1Path; // TODO: Constructor, setter. The router path from USDC to the primary Zorro LP pool, Token 1\n\n    /* Setters */\n    function setStartBlock(uint256 _blockNumber) external onlyOwner {\n        startBlock = _blockNumber;\n    }\n    function setPublicPool(address _publicPoolAddress) external onlyOwner {\n        publicPool = _publicPoolAddress;\n    }\n    function setBaseRewardRateBasisPoints(uint256 _baseRewardRateBasisPoints) external onlyOwner {\n        baseRewardRateBasisPoints = _baseRewardRateBasisPoints;\n    }\n    function setBSCMarketTVLUSD(uint256 _BSCMarketTVLUSD) external onlyOwner {\n        BSCMarketTVLUSD = _BSCMarketTVLUSD;\n    }\n    function setZorroTotalVaultTVLUSD(uint256 _ZorroTotalVaultTVLUSD) external onlyOwner {\n        ZorroTotalVaultTVLUSD = _ZorroTotalVaultTVLUSD;\n    }\n    function setTargetTVLCaptureBasisPoints(uint256 _targetTVLCaptureBasisPoints) external onlyOwner {\n        targetTVLCaptureBasisPoints = _targetTVLCaptureBasisPoints;\n    }\n    function setBlocksPerDay(uint256 _blocksPerDay) external onlyOwner {\n        blocksPerDay = _blocksPerDay;\n    }\n    function setZORRODailyDistributionFactorBasisPointsMin(uint256 _value) external onlyOwner {\n        ZORRODailyDistributionFactorBasisPointsMin = _value;\n    }\n    function setZORRODailyDistributionFactorBasisPointsMax(uint256 _value) external onlyOwner {\n        ZORRODailyDistributionFactorBasisPointsMax = _value;\n    }\n    function setIsTimeMultiplierActive(bool _isActive) external onlyOwner {\n        isTimeMultiplierActive = _isActive;\n    }\n    function setEndpointContracts(uint256 _chainId, address _endpointContract) external onlyOwner {\n        endpointContracts[_chainId] = _endpointContract;\n    }\n\n\n    // Info of each pool\n    PoolInfo[] public poolInfo;\n    // List of active tranches that stakes Want tokens. Mapping: pool ID/index => user wallet address => list of tranches\n    mapping(uint256 => mapping(address => TrancheInfo[])) public trancheInfo; \n    // Total allocation points (aka multiplier). Must be the sum of all allocation points in all pools.\n    uint256 public totalAllocPoint = 0;\n    // TODO: Do we even need claims anymore? Consider doing a global removal of \"claim\" related stuff\n    // Claims for user by pool ID (e.g. for Tranchess). Mapping pool ID/index => user wallet address => token address => claim amount\n    mapping(uint256 => mapping(address => mapping(address => Claim))) public claims;\n    // Redeposit information (so contract knows settings for destination vault during an async redeposit event)\n    // Mapping: pool ID/index => user wallet address => RedepositInfo\n    mapping(uint256 => mapping(address => RedepositInfo)) public redepositInfo;\n\n    /* Events */\n    event Deposit(address indexed user, uint256 indexed pid, uint256 wantAmount);\n    event ClaimCreated(address indexed user, uint256 indexed pid, uint256 indexed settlementEpoch, uint256 value, address token);\n    event Withdraw(address indexed user, uint256 indexed pid, uint256 trancheId, uint256 wantAmount);\n    event TransferInvestment(address user, uint256 indexed fromPid, uint256 indexed fromTrancheId, uint256 indexed toPid);\n\n    /* View functions */\n\n    /// @notice Number of pools in the Zorro protocol\n    /// @return Number of pools\n    function poolLength() external view returns (uint256) {\n        return poolInfo.length;\n    }\n\n    /// @notice Number of tranches invested by a given user into a given pool\n    /// @param _pid Index of pool\n    /// @param _user wallet address of user\n    /// @return Number of tranches\n    function trancheLength(uint256 _pid, address _user) public view returns (uint256) {\n        return trancheInfo[_pid][_user].length;\n    }\n\n    /* Zorro Rewards */\n\n    /// @notice Determine the number of Zorro to emit per block based on current market parameters\n    /// @return Number of Zorro tokens per block\n    function getZorroPerBlock() public view returns (uint256) {\n        // Use the Rm formula to determine the percentage of the remaining public pool Zorro tokens to transfer to this contract as rewards\n        uint256 ZORRODailyDistributionFactorBasisPoints = baseRewardRateBasisPoints.mul(BSCMarketTVLUSD).mul(targetTVLCaptureBasisPoints.div(10000)).div(ZorroTotalVaultTVLUSD);\n        // Rail distribution to min and max values\n        if (ZORRODailyDistributionFactorBasisPoints > ZORRODailyDistributionFactorBasisPointsMax) {\n            ZORRODailyDistributionFactorBasisPoints = ZORRODailyDistributionFactorBasisPointsMax;\n        } else if (ZORRODailyDistributionFactorBasisPoints < ZORRODailyDistributionFactorBasisPointsMin) {\n            ZORRODailyDistributionFactorBasisPoints = ZORRODailyDistributionFactorBasisPointsMin;\n        }\n        // Find remaining token balance in the public pool\n        uint256 publicPoolRemainingZORROBalance = IERC20(ZORRO).balanceOf(publicPool);\n        // Multiply the factor above to determine the total Zorro tokens to distribute to this contract on a DAILY basis\n        uint256 publicPoolDailyZORRODistribution = publicPoolRemainingZORROBalance.mul(ZORRODailyDistributionFactorBasisPoints).div(10000);\n        // Convert this to a BLOCK basis\n        return publicPoolDailyZORRODistribution.div(blocksPerDay);\n    }\n\n    /* Pool Management */\n\n    /// @notice Update reward variables of the given pool to be up-to-date.\n    /// @param _pid index of pool\n    function updatePool(uint256 _pid) public {\n        /*\n        - TODO: This should be done automatically by an Oracle and stored as ZORROPerBlock fetch current Zorro per block, and divide by this chain's block producing rate / BSC block producing rate\n        */\n\n        // Get the pool matching the given index\n        PoolInfo storage pool = poolInfo[_pid];\n\n        // If current block is <= last reward block, exit\n        if (block.number <= pool.lastRewardBlock) {\n            return;\n        }\n\n        // Determine how many blocks have elapsed since the last updatePool() operation for this pool\n        uint256 elapsedBlocks = block.number.sub(pool.lastRewardBlock);\n        // If no elapsed blocks have occured, exit\n        if (elapsedBlocks <= 0) {\n            return;\n        }\n\n        // Calculate Zorro approx. rewards per block\n        uint256 ZORROPerBlock = getZorroPerBlock();\n        // Finally, multiply this by the number of elapsed blocks and the pool weighting\n        uint256 ZORROReward = elapsedBlocks.mul(ZORROPerBlock).mul(pool.allocPoint).div(totalAllocPoint);\n\n        // Check whether this function requires cross chain activity or not\n        if (address(this) == homeChainZorroController) {\n            // On Home chain. NO cross chain pool updates required\n\n            // Transfer Zorro rewards to this contract from the Public Pool\n            IERC20(ZORRO).safeTransferFrom(publicPool, address(this), ZORROReward);\n            // Increment this pool's accumulated Zorro per share value by the reward amount\n            pool.accZORRORewards = pool.accZORRORewards.add(ZORROReward);\n            // Update the pool's last reward block to the current block\n            pool.lastRewardBlock = block.number;\n        } else {\n            // On remote chain. Cross chain pool updates required\n\n            // Mint Zorro on this (remote) chain\n            Zorro(ZORRO).mint(address(this), ZORROReward);\n            // Get endpoint contract\n            address homeChainEndpointContract = endpointContracts[0]; // TODO: Is it safe to use the zero index here or should we declare a state variable for the home contract?\n            // Make cross-chain burn request\n            // TODO: Revert action should indicate failure for burn request and accumulate it so that the next burn request will include it\n            XChainEndpoint(homeChainEndpointContract).sendXChainTransaction(\n                abi.encodePacked(homeChainZorroController),\n                abi.encodeWithSignature(\"receiveXChainBurnRewardsRequest(uint256 _amount)\", ZORROReward),\n                \"\"\n            );\n        }\n    }\n\n    /// @notice Receives an authorized burn request from another chain and burns the specified amount of ZOR tokens from the public pool\n    /// @param _amount The quantity of ZOR tokens to burn\n    function receiveXChainBurnRewardsRequest(uint256 _amount) external {\n        // TODO IMPORTANT: Only allow valid contract (endpoint contract?) to call this\n        Zorro(ZORRO).burn(publicPool, _amount); // TODO: Should we wrap this in Open Zeppelin somehow?\n    }\n    /* Safety functions */\n\n    /// @notice Safe ZORRO transfer function, just in case if rounding error causes pool to not have enough\n    /// @param _to destination for funds\n    /// @param _ZORROAmt quantity of Zorro tokens to send\n    function safeZORROTransfer(address _to, uint256 _ZORROAmt) internal {\n        uint256 ZORROBal = IERC20(ZORRO).balanceOf(address(this));\n        // TODO: Change this to a safeTransfer() function (OpenZeppelin compliance)\n        if (_ZORROAmt > ZORROBal) {\n            IERC20(ZORRO).transfer(_to, ZORROBal);\n        } else {\n            IERC20(ZORRO).transfer(_to, _ZORROAmt);\n        }\n    }\n\n    /// @notice For owner to recover ERC20 tokens on this contract if stuck\n    /// @dev Does not permit usage for the Zorro token\n    /// @param _token ERC20 token address\n    /// @param _amount token quantity\n    function inCaseTokensGetStuck(address _token, uint256 _amount)\n        public\n        onlyOwner\n    {\n        require(_token != ZORRO, \"!safe to use Zorro token in func inCaseTokensGetStuck\");\n        IERC20(_token).safeTransfer(msg.sender, _amount);\n    }\n}\n",
  "sourcePath": "/Users/kristophm/Documents/workspace/zorro-protocol/contracts/controllers/ZorroControllerBase.sol",
  "compiler": {
    "name": "solc",
    "version": "0.8.10+commit.fc410830.Emscripten.clang"
  },
  "schemaVersion": "3.4.4",
  "updatedAt": "2022-03-01T15:24:52.856Z",
  "devdoc": {
    "kind": "dev",
    "methods": {
      "getZorroPerBlock()": {
        "returns": {
          "_0": "Number of Zorro tokens per block"
        }
      },
      "inCaseTokensGetStuck(address,uint256)": {
        "details": "Does not permit usage for the Zorro token",
        "params": {
          "_amount": "token quantity",
          "_token": "ERC20 token address"
        }
      },
      "owner()": {
        "details": "Returns the address of the current owner."
      },
      "poolLength()": {
        "returns": {
          "_0": "Number of pools"
        }
      },
      "receiveXChainBurnRewardsRequest(uint256)": {
        "params": {
          "_amount": "The quantity of ZOR tokens to burn"
        }
      },
      "renounceOwnership()": {
        "details": "Leaves the contract without owner. It will not be possible to call `onlyOwner` functions anymore. Can only be called by the current owner. NOTE: Renouncing ownership will leave the contract without an owner, thereby removing any functionality that is only available to the owner."
      },
      "trancheLength(uint256,address)": {
        "params": {
          "_pid": "Index of pool",
          "_user": "wallet address of user"
        },
        "returns": {
          "_0": "Number of tranches"
        }
      },
      "transferOwnership(address)": {
        "details": "Transfers ownership of the contract to a new account (`newOwner`). Can only be called by the current owner."
      },
      "updatePool(uint256)": {
        "params": {
          "_pid": "index of pool"
        }
      }
    },
    "title": "ZorroControllerBase: The base controller with main state variables, data types, and functions",
    "version": 1
  },
  "userdoc": {
    "kind": "user",
    "methods": {
      "getZorroPerBlock()": {
        "notice": "Determine the number of Zorro to emit per block based on current market parameters"
      },
      "inCaseTokensGetStuck(address,uint256)": {
        "notice": "For owner to recover ERC20 tokens on this contract if stuck"
      },
      "poolLength()": {
        "notice": "Number of pools in the Zorro protocol"
      },
      "receiveXChainBurnRewardsRequest(uint256)": {
        "notice": "Receives an authorized burn request from another chain and burns the specified amount of ZOR tokens from the public pool"
      },
      "trancheLength(uint256,address)": {
        "notice": "Number of tranches invested by a given user into a given pool"
      },
      "updatePool(uint256)": {
        "notice": "Update reward variables of the given pool to be up-to-date."
      }
    },
    "version": 1
  }
}