{
  "contractName": "ZorroControllerXChainEarn",
  "abi": [
    {
      "anonymous": false,
      "inputs": [
        {
          "indexed": true,
          "internalType": "address",
          "name": "previousOwner",
          "type": "address"
        },
        {
          "indexed": true,
          "internalType": "address",
          "name": "newOwner",
          "type": "address"
        }
      ],
      "name": "OwnershipTransferred",
      "type": "event"
    },
    {
      "anonymous": false,
      "inputs": [
        {
          "indexed": true,
          "internalType": "uint256",
          "name": "_amountZOR",
          "type": "uint256"
        }
      ],
      "name": "RemovedSlashedRewards",
      "type": "event"
    },
    {
      "anonymous": false,
      "inputs": [
        {
          "indexed": true,
          "internalType": "uint256",
          "name": "_remoteChainId",
          "type": "uint256"
        },
        {
          "indexed": true,
          "internalType": "uint256",
          "name": "_buybackAmountUSD",
          "type": "uint256"
        },
        {
          "indexed": true,
          "internalType": "uint256",
          "name": "_revShareAmountUSD",
          "type": "uint256"
        }
      ],
      "name": "XChainDistributeEarnings",
      "type": "event"
    },
    {
      "inputs": [
        {
          "internalType": "uint16",
          "name": "",
          "type": "uint16"
        }
      ],
      "name": "LZChainToZorroMap",
      "outputs": [
        {
          "internalType": "uint256",
          "name": "",
          "type": "uint256"
        }
      ],
      "stateMutability": "view",
      "type": "function"
    },
    {
      "inputs": [],
      "name": "ZORRO",
      "outputs": [
        {
          "internalType": "address",
          "name": "",
          "type": "address"
        }
      ],
      "stateMutability": "view",
      "type": "function"
    },
    {
      "inputs": [
        {
          "internalType": "uint256",
          "name": "",
          "type": "uint256"
        }
      ],
      "name": "ZorroChainToLZMap",
      "outputs": [
        {
          "internalType": "uint16",
          "name": "",
          "type": "uint16"
        }
      ],
      "stateMutability": "view",
      "type": "function"
    },
    {
      "inputs": [],
      "name": "accumulatedSlashedRewards",
      "outputs": [
        {
          "internalType": "uint256",
          "name": "",
          "type": "uint256"
        }
      ],
      "stateMutability": "view",
      "type": "function"
    },
    {
      "inputs": [],
      "name": "burnAddress",
      "outputs": [
        {
          "internalType": "address",
          "name": "",
          "type": "address"
        }
      ],
      "stateMutability": "view",
      "type": "function"
    },
    {
      "inputs": [],
      "name": "chainId",
      "outputs": [
        {
          "internalType": "uint256",
          "name": "",
          "type": "uint256"
        }
      ],
      "stateMutability": "view",
      "type": "function"
    },
    {
      "inputs": [
        {
          "internalType": "uint256",
          "name": "",
          "type": "uint256"
        }
      ],
      "name": "chainTypes",
      "outputs": [
        {
          "internalType": "uint256",
          "name": "",
          "type": "uint256"
        }
      ],
      "stateMutability": "view",
      "type": "function"
    },
    {
      "inputs": [],
      "name": "controllerActions",
      "outputs": [
        {
          "internalType": "address",
          "name": "",
          "type": "address"
        }
      ],
      "stateMutability": "view",
      "type": "function"
    },
    {
      "inputs": [
        {
          "internalType": "uint256",
          "name": "",
          "type": "uint256"
        }
      ],
      "name": "controllerContractsMap",
      "outputs": [
        {
          "internalType": "bytes",
          "name": "",
          "type": "bytes"
        }
      ],
      "stateMutability": "view",
      "type": "function"
    },
    {
      "inputs": [],
      "name": "currentChainController",
      "outputs": [
        {
          "internalType": "address",
          "name": "",
          "type": "address"
        }
      ],
      "stateMutability": "view",
      "type": "function"
    },
    {
      "inputs": [],
      "name": "defaultStablecoin",
      "outputs": [
        {
          "internalType": "address",
          "name": "",
          "type": "address"
        }
      ],
      "stateMutability": "view",
      "type": "function"
    },
    {
      "inputs": [],
      "name": "homeChainId",
      "outputs": [
        {
          "internalType": "uint256",
          "name": "",
          "type": "uint256"
        }
      ],
      "stateMutability": "view",
      "type": "function"
    },
    {
      "inputs": [],
      "name": "homeChainZorroController",
      "outputs": [
        {
          "internalType": "address",
          "name": "",
          "type": "address"
        }
      ],
      "stateMutability": "view",
      "type": "function"
    },
    {
      "inputs": [],
      "name": "layerZeroEndpoint",
      "outputs": [
        {
          "internalType": "address",
          "name": "",
          "type": "address"
        }
      ],
      "stateMutability": "view",
      "type": "function"
    },
    {
      "inputs": [],
      "name": "owner",
      "outputs": [
        {
          "internalType": "address",
          "name": "",
          "type": "address"
        }
      ],
      "stateMutability": "view",
      "type": "function"
    },
    {
      "inputs": [],
      "name": "priceFeedLPPoolOtherToken",
      "outputs": [
        {
          "internalType": "contract AggregatorV3Interface",
          "name": "",
          "type": "address"
        }
      ],
      "stateMutability": "view",
      "type": "function"
    },
    {
      "inputs": [],
      "name": "priceFeedStablecoin",
      "outputs": [
        {
          "internalType": "contract AggregatorV3Interface",
          "name": "",
          "type": "address"
        }
      ],
      "stateMutability": "view",
      "type": "function"
    },
    {
      "inputs": [],
      "name": "priceFeedZOR",
      "outputs": [
        {
          "internalType": "contract AggregatorV3Interface",
          "name": "",
          "type": "address"
        }
      ],
      "stateMutability": "view",
      "type": "function"
    },
    {
      "inputs": [],
      "name": "publicPool",
      "outputs": [
        {
          "internalType": "address",
          "name": "",
          "type": "address"
        }
      ],
      "stateMutability": "view",
      "type": "function"
    },
    {
      "inputs": [],
      "name": "renounceOwnership",
      "outputs": [],
      "stateMutability": "nonpayable",
      "type": "function"
    },
    {
      "inputs": [
        {
          "internalType": "address",
          "name": "_burn",
          "type": "address"
        }
      ],
      "name": "setBurnAddress",
      "outputs": [],
      "stateMutability": "nonpayable",
      "type": "function"
    },
    {
      "inputs": [
        {
          "internalType": "uint256",
          "name": "_zorroChainId",
          "type": "uint256"
        },
        {
          "internalType": "uint256",
          "name": "_chainType",
          "type": "uint256"
        }
      ],
      "name": "setChainType",
      "outputs": [],
      "stateMutability": "nonpayable",
      "type": "function"
    },
    {
      "inputs": [
        {
          "internalType": "uint256[]",
          "name": "_chainIds",
          "type": "uint256[]"
        }
      ],
      "name": "setChains",
      "outputs": [],
      "stateMutability": "nonpayable",
      "type": "function"
    },
    {
      "inputs": [
        {
          "internalType": "uint256",
          "name": "_zorroChainId",
          "type": "uint256"
        },
        {
          "internalType": "bytes",
          "name": "_controller",
          "type": "bytes"
        }
      ],
      "name": "setControllerContract",
      "outputs": [],
      "stateMutability": "nonpayable",
      "type": "function"
    },
    {
      "inputs": [
        {
          "internalType": "address[]",
          "name": "_contracts",
          "type": "address[]"
        }
      ],
      "name": "setKeyContracts",
      "outputs": [],
      "stateMutability": "nonpayable",
      "type": "function"
    },
    {
      "inputs": [
        {
          "internalType": "address",
          "name": "_stargateRouter",
          "type": "address"
        },
        {
          "internalType": "uint256",
          "name": "_stargateSwapPoolId",
          "type": "uint256"
        },
        {
          "internalType": "address",
          "name": "_layerZeroEndpoint",
          "type": "address"
        }
      ],
      "name": "setLayerZeroParams",
      "outputs": [],
      "stateMutability": "nonpayable",
      "type": "function"
    },
    {
      "inputs": [
        {
          "internalType": "uint256",
          "name": "_zorroChainId",
          "type": "uint256"
        },
        {
          "internalType": "uint16",
          "name": "_stargatePoolId",
          "type": "uint16"
        }
      ],
      "name": "setStargateDestPoolIds",
      "outputs": [],
      "stateMutability": "nonpayable",
      "type": "function"
    },
    {
      "inputs": [
        {
          "internalType": "address[]",
          "name": "_tokens",
          "type": "address[]"
        }
      ],
      "name": "setTokens",
      "outputs": [],
      "stateMutability": "nonpayable",
      "type": "function"
    },
    {
      "inputs": [
        {
          "internalType": "uint256",
          "name": "_zorroChainId",
          "type": "uint256"
        },
        {
          "internalType": "uint16",
          "name": "_lzChainId",
          "type": "uint16"
        }
      ],
      "name": "setZorroChainToLZMap",
      "outputs": [],
      "stateMutability": "nonpayable",
      "type": "function"
    },
    {
      "inputs": [
        {
          "internalType": "uint256",
          "name": "",
          "type": "uint256"
        }
      ],
      "name": "stablecoinToZorroLPPoolOtherTokenPath",
      "outputs": [
        {
          "internalType": "address",
          "name": "",
          "type": "address"
        }
      ],
      "stateMutability": "view",
      "type": "function"
    },
    {
      "inputs": [
        {
          "internalType": "uint256",
          "name": "",
          "type": "uint256"
        }
      ],
      "name": "stablecoinToZorroPath",
      "outputs": [
        {
          "internalType": "address",
          "name": "",
          "type": "address"
        }
      ],
      "stateMutability": "view",
      "type": "function"
    },
    {
      "inputs": [
        {
          "internalType": "uint256",
          "name": "",
          "type": "uint256"
        }
      ],
      "name": "stargateDestPoolIds",
      "outputs": [
        {
          "internalType": "uint256",
          "name": "",
          "type": "uint256"
        }
      ],
      "stateMutability": "view",
      "type": "function"
    },
    {
      "inputs": [],
      "name": "stargateRouter",
      "outputs": [
        {
          "internalType": "address",
          "name": "",
          "type": "address"
        }
      ],
      "stateMutability": "view",
      "type": "function"
    },
    {
      "inputs": [],
      "name": "stargateSwapPoolId",
      "outputs": [
        {
          "internalType": "uint256",
          "name": "",
          "type": "uint256"
        }
      ],
      "stateMutability": "view",
      "type": "function"
    },
    {
      "inputs": [
        {
          "internalType": "address",
          "name": "newOwner",
          "type": "address"
        }
      ],
      "name": "transferOwnership",
      "outputs": [],
      "stateMutability": "nonpayable",
      "type": "function"
    },
    {
      "inputs": [],
      "name": "uniRouterAddress",
      "outputs": [
        {
          "internalType": "address",
          "name": "",
          "type": "address"
        }
      ],
      "stateMutability": "view",
      "type": "function"
    },
    {
      "inputs": [],
      "name": "zorroLPPoolOtherToken",
      "outputs": [
        {
          "internalType": "address",
          "name": "",
          "type": "address"
        }
      ],
      "stateMutability": "view",
      "type": "function"
    },
    {
      "inputs": [],
      "name": "zorroStakingVault",
      "outputs": [
        {
          "internalType": "address",
          "name": "",
          "type": "address"
        }
      ],
      "stateMutability": "view",
      "type": "function"
    },
    {
      "inputs": [
        {
          "internalType": "address",
          "name": "_token",
          "type": "address"
        }
      ],
      "name": "setZorroLPPoolOtherToken",
      "outputs": [],
      "stateMutability": "nonpayable",
      "type": "function"
    },
    {
      "inputs": [
        {
          "internalType": "address",
          "name": "_contract",
          "type": "address"
        }
      ],
      "name": "setZorroStakingVault",
      "outputs": [],
      "stateMutability": "nonpayable",
      "type": "function"
    },
    {
      "inputs": [
        {
          "internalType": "address",
          "name": "_contract",
          "type": "address"
        }
      ],
      "name": "setUniRouterAddress",
      "outputs": [],
      "stateMutability": "nonpayable",
      "type": "function"
    },
    {
      "inputs": [
        {
          "internalType": "address[]",
          "name": "_stablecoinToZorroPath",
          "type": "address[]"
        },
        {
          "internalType": "address[]",
          "name": "_stablecoinToZorroLPPoolOtherTokenPath",
          "type": "address[]"
        }
      ],
      "name": "setSwapPaths",
      "outputs": [],
      "stateMutability": "nonpayable",
      "type": "function"
    },
    {
      "inputs": [
        {
          "internalType": "address[]",
          "name": "_priceFeeds",
          "type": "address[]"
        }
      ],
      "name": "setPriceFeeds",
      "outputs": [],
      "stateMutability": "nonpayable",
      "type": "function"
    },
    {
      "inputs": [
        {
          "internalType": "uint256",
          "name": "_pid",
          "type": "uint256"
        },
        {
          "internalType": "uint256",
          "name": "_buybackAmountUSD",
          "type": "uint256"
        },
        {
          "internalType": "uint256",
          "name": "_revShareAmountUSD",
          "type": "uint256"
        },
        {
          "internalType": "uint256",
          "name": "_maxMarketMovement",
          "type": "uint256"
        }
      ],
      "name": "sendXChainDistributeEarningsRequest",
      "outputs": [],
      "stateMutability": "payable",
      "type": "function"
    },
    {
      "inputs": [
        {
          "internalType": "uint256",
          "name": "_remoteChainId",
          "type": "uint256"
        },
        {
          "internalType": "uint256",
          "name": "_amountUSDBuyback",
          "type": "uint256"
        },
        {
          "internalType": "uint256",
          "name": "_amountUSDRevShare",
          "type": "uint256"
        },
        {
          "internalType": "uint256",
          "name": "_accSlashedRewards",
          "type": "uint256"
        },
        {
          "internalType": "uint256",
          "name": "_maxMarketMovement",
          "type": "uint256"
        }
      ],
      "name": "receiveXChainDistributionRequest",
      "outputs": [],
      "stateMutability": "nonpayable",
      "type": "function"
    }
  ],
  "bytecode": "0x608060405234801561001057600080fd5b506128a0806100206000396000f3fe6080604052600436106102765760003560e060020a9004806370d5ae05116101535780639a8a0592116100c5578063cd01af481161007e578063cd01af48146107b2578063e940f6e1146107d2578063ebfba7c4146107e8578063ef12696714610808578063f2fde38b1461081e578063fc39a29e1461083e57600080fd5b80639a8a0592146106fc578063a4d2b08314610712578063a4d8adf914610732578063a9e56f3c14610752578063b22f325114610772578063b61bb80a1461079257600080fd5b80637f633ea8116101175780637f633ea8146106315780638b5694d6146106515780638c157db2146106715780638d6ffd6a146106915780638da5cb5b146106be578063959334f4146106dc57600080fd5b806370d5ae051461059c578063715018a6146105bc5780637795fba2146105d157806379777d81146105f15780637bd455221461061157600080fd5b8063487c3868116101ec578063593af9fe116101b0578063593af9fe146104cf5780635da79d63146104fc578063625adaf21461051c578063668ababb1461053c578063693a090b1461055c5780636ca8bd651461057c57600080fd5b8063487c3868146104395780634b0e7216146104595780634bf76174146104795780635175ce1b146104995780635790f599146104b957600080fd5b8063219b38b81161023e578063219b38b81461033a57806325b4383014610375578063293da9d414610395578063332e5a7b146103c2578063459f4753146103e2578063464e3c8b1461042657600080fd5b806307968db11461027b5780630a34e1a4146102b857806313a2e880146102da57806315230ae6146102fa5780631fae1a201461031a575b600080fd5b34801561028757600080fd5b50609a5461029b90600160a060020a031681565b604051600160a060020a0390911681526020015b60405180910390f35b3480156102c457600080fd5b506102d86102d3366004611f90565b61085e565b005b3480156102e657600080fd5b506102d86102f5366004611fb2565b6108a6565b34801561030657600080fd5b5060a25461029b90600160a060020a031681565b34801561032657600080fd5b5061029b61033536600461202e565b6108f2565b34801561034657600080fd5b5061036761035536600461202e565b60996020526000908152604090205481565b6040519081526020016102af565b34801561038157600080fd5b506102d8610390366004612047565b61091c565b3480156103a157600080fd5b506103676103b0366004612099565b609d6020526000908152604090205481565b3480156103ce57600080fd5b5060a45461029b90600160a060020a031681565b3480156103ee57600080fd5b506104136103fd36600461202e565b609c6020526000908152604090205461ffff1681565b60405161ffff90911681526020016102af565b6102d86104343660046120b4565b61096e565b34801561044557600080fd5b506102d8610454366004612131565b610d64565b34801561046557600080fd5b506102d8610474366004612188565b610e6d565b34801561048557600080fd5b506102d8610494366004612131565b610ebc565b3480156104a557600080fd5b506102d86104b43660046121a5565b610fc5565b3480156104c557600080fd5b5061036760985481565b3480156104db57600080fd5b506104ef6104ea36600461202e565b61100b565b6040516102af9190612269565b34801561050857600080fd5b506102d8610517366004612188565b6110a5565b34801561052857600080fd5b506102d8610537366004612131565b6110f4565b34801561054857600080fd5b5060a35461029b90600160a060020a031681565b34801561056857600080fd5b5060aa5461029b90600160a060020a031681565b34801561058857600080fd5b506102d8610597366004612188565b6111b5565b3480156105a857600080fd5b5060a75461029b90600160a060020a031681565b3480156105c857600080fd5b506102d8611204565b3480156105dd57600080fd5b5060af5461029b90600160a060020a031681565b3480156105fd57600080fd5b5060ae5461029b90600160a060020a031681565b34801561061d57600080fd5b506102d861062c36600461227c565b61123d565b34801561063d57600080fd5b506102d861064c3660046122be565b61129e565b34801561065d57600080fd5b506102d861066c3660046122be565b6112fa565b34801561067d57600080fd5b5060a05461029b90600160a060020a031681565b34801561069d57600080fd5b506103676106ac36600461202e565b609e6020526000908152604090205481565b3480156106ca57600080fd5b50603354600160a060020a031661029b565b3480156106e857600080fd5b506102d86106f7366004612188565b611340565b34801561070857600080fd5b5061036760a55481565b34801561071e57600080fd5b5060a95461029b90600160a060020a031681565b34801561073e57600080fd5b5061029b61074d36600461202e565b61138f565b34801561075e57600080fd5b5060975461029b90600160a060020a031681565b34801561077e57600080fd5b5060ad5461029b90600160a060020a031681565b34801561079e57600080fd5b50609f5461029b90600160a060020a031681565b3480156107be57600080fd5b506102d86107cd366004612131565b61139f565b3480156107de57600080fd5b5061036760b05481565b3480156107f457600080fd5b5060a85461029b90600160a060020a031681565b34801561081457600080fd5b5061036760a65481565b34801561082a57600080fd5b506102d8610839366004612188565b61140e565b34801561084a57600080fd5b5060a15461029b90600160a060020a031681565b603354600160a060020a031633146108945760405160e560020a62461bcd02815260040161088b906122ea565b60405180910390fd5b6000918252609e602052604090912055565b603354600160a060020a031633146108d35760405160e560020a62461bcd02815260040161088b906122ea565b6000838152609b602052604090206108ec908383611ea4565b50505050565b60ac818154811061090257600080fd5b600091825260209091200154600160a060020a0316905081565b60405160e560020a62461bcd02815260206004820152601760248201527f696c6c6567616c2064756d6d792066756e632063616c6c000000000000000000604482015260640161088b565b5050505050565b600260655414156109c45760405160e560020a62461bcd02815260206004820152601f60248201527f5265656e7472616e637947756172643a207265656e7472616e742063616c6c00604482015260640161088b565b600260655560a2546040517f1526fe27000000000000000000000000000000000000000000000000000000008152600481018690528591600091600160a060020a0390911690631526fe279060240160c060405180830381865afa158015610a30573d6000803e3d6000fd5b505050506040513d601f19601f82011682018060405250810190610a54919061231f565b9550505050505080600160a060020a0316610a6c3390565b600160a060020a031614610ac55760405160e560020a62461bcd02815260206004820152600e60248201527f6f6e6c7920726567207661756c74000000000000000000000000000000000000604482015260640161088b565b60003411610b185760405160e560020a62461bcd02815260206004820152601160248201527f4e6f2066656573207375626d6974746564000000000000000000000000000000604482015260640161088b565b6000610b2486866114cc565b609f54909150610b3f90600160a060020a03163330846114e1565b609f546040517f70a08231000000000000000000000000000000000000000000000000000000008152306004820152600091600160a060020a0316906370a0823190602401602060405180830381865afa158015610ba1573d6000803e3d6000fd5b505050506040513d601f19601f82011682018060405250810190610bc5919061237f565b90506000610bd1611592565b60a4805460a5546040517f4223f99d0000000000000000000000000000000000000000000000000000000081526004810191909152602481018c9052604481018b905260648101849052608481018a9052929350600092600160a060020a0390911691634223f99d9101600060405180830381865afa158015610c58573d6000803e3d6000fd5b505050506040513d6000823e601f3d908101601f19168201604052610c8091908101906123e2565b60a5546000908152609b6020526040812080549293509091610ca190612476565b80601f0160208091040260200160405190810160405280929190818152602001828054610ccd90612476565b8015610d1a5780601f10610cef57610100808354040283529160200191610d1a565b820191906000526020600020905b815481529060010190602001808311610cfd57829003601f168201915b50505050509050610d526040518060a0016040528060a65481526020018681526020018381526020018481526020018a8152506115c8565b50506001606555505050505050505050565b603354600160a060020a03163314610d915760405160e560020a62461bcd02815260040161088b906122ea565b81816000818110610da457610da46124b4565b9050602002016020810190610db99190612188565b60ad8054600160a060020a031916600160a060020a039290921691909117905581816001818110610dec57610dec6124b4565b9050602002016020810190610e019190612188565b60ae8054600160a060020a031916600160a060020a039290921691909117905581816002818110610e3457610e346124b4565b9050602002016020810190610e499190612188565b60af8054600160a060020a031916600160a060020a03929092169190911790555050565b603354600160a060020a03163314610e9a5760405160e560020a62461bcd02815260040161088b906122ea565b60a78054600160a060020a031916600160a060020a0392909216919091179055565b603354600160a060020a03163314610ee95760405160e560020a62461bcd02815260040161088b906122ea565b81816000818110610efc57610efc6124b4565b9050602002016020810190610f119190612188565b60a18054600160a060020a031916600160a060020a039290921691909117905581816001818110610f4457610f446124b4565b9050602002016020810190610f599190612188565b60a28054600160a060020a031916600160a060020a039290921691909117905581816002818110610f8c57610f8c6124b4565b9050602002016020810190610fa19190612188565b60a38054600160a060020a031916600160a060020a03929092169190911790555050565b603354600160a060020a03163314610ff25760405160e560020a62461bcd02815260040161088b906122ea565b610ffe60ab8585611f28565b5061096760ac8383611f28565b609b602052600090815260409020805461102490612476565b80601f016020809104026020016040519081016040528092919081815260200182805461105090612476565b801561109d5780601f106110725761010080835404028352916020019161109d565b820191906000526020600020905b81548152906001019060200180831161108057829003601f168201915b505050505081565b603354600160a060020a031633146110d25760405160e560020a62461bcd02815260040161088b906122ea565b60aa8054600160a060020a031916600160a060020a0392909216919091179055565b603354600160a060020a031633146111215760405160e560020a62461bcd02815260040161088b906122ea565b81816000818110611134576111346124b4565b90506020020160208101906111499190612188565b609f8054600160a060020a031916600160a060020a03929092169190911790558181600181811061117c5761117c6124b4565b90506020020160208101906111919190612188565b60a08054600160a060020a031916600160a060020a03929092169190911790555050565b603354600160a060020a031633146111e25760405160e560020a62461bcd02815260040161088b906122ea565b60a98054600160a060020a031916600160a060020a0392909216919091179055565b603354600160a060020a031633146112315760405160e560020a62461bcd02815260040161088b906122ea565b61123b60006116db565b565b603354600160a060020a0316331461126a5760405160e560020a62461bcd02815260040161088b906122ea565b60978054600160a060020a03948516600160a060020a031991821617909155609892909255609a8054919093169116179055565b603354600160a060020a031633146112cb5760405160e560020a62461bcd02815260040161088b906122ea565b6000828152609c60209081526040808320805461ffff90951661ffff1990951685179055928252609d90522055565b603354600160a060020a031633146113275760405160e560020a62461bcd02815260040161088b906122ea565b60009182526099602052604090912061ffff9091169055565b603354600160a060020a0316331461136d5760405160e560020a62461bcd02815260040161088b906122ea565b60a88054600160a060020a031916600160a060020a0392909216919091179055565b60ab818154811061090257600080fd5b603354600160a060020a031633146113cc5760405160e560020a62461bcd02815260040161088b906122ea565b818160008181106113df576113df6124b4565b602002919091013560a55550818160018181106113fe576113fe6124b4565b602002919091013560a655505050565b603354600160a060020a0316331461143b5760405160e560020a62461bcd02815260040161088b906122ea565b600160a060020a0381166114ba5760405160e560020a62461bcd02815260206004820152602660248201527f4f776e61626c653a206e6577206f776e657220697320746865207a65726f206160448201527f6464726573730000000000000000000000000000000000000000000000000000606482015260840161088b565b6114c3816116db565b50565b90611739565b60006114d882846124e6565b90505b92915050565b604051600160a060020a03808516602483015283166044820152606481018290526108ec9085907f23b872dd00000000000000000000000000000000000000000000000000000000906084015b60408051601f198184030181529190526020810180517bffffffffffffffffffffffffffffffffffffffffffffffffffffffff167fffffffff000000000000000000000000000000000000000000000000000000009093169290921790915261180d565b60b05460405181907f18bd4bd6372d39482d375f68791749755bdb38e8768acbfb6af999cef1adc6e090600090a2600060b05590565b6097546020820151609f546115eb92600160a060020a03918216929116906118fa565b61160f60405180606001604052806000815260200160008152602001606081525090565b60975482516000908152609c602090815260408083205460985487518552609984529190932054918601516080870151600160a060020a0390951694639fbf10fc94349461ffff90911693929091339190611673906103e8906114c690849061172d565b898b604001518c606001516040518b63ffffffff1660e060020a0281526004016116a5999897969594939291906124fe565b6000604051808303818588803b1580156116be57600080fd5b505af11580156116d2573d6000803e3d6000fd5b50505050505050565b60338054600160a060020a03838116600160a060020a0319831681179093556040519116919082907f8be0079c531659141344cd1fd0a4f28419497f9722a3daafe3b4186f6b6457e090600090a35050565b60006114d8828461259d565b60006114d882846125bc565b8154600160a060020a03168152600190910190602001808311611745575050505050863061177e610258426114cc90919063ffffffff16565b60aa54600160a060020a0316969594939291906119de565b8154600160a060020a03168152600190910190602001808311611796575050505050853061177e610258426114cc90919063ffffffff16565b8154600160a060020a031681526001909101906020018083116117cf57505060a954899350600160a060020a0316915061177e9050426102586114cc565b6000611862826040518060400160405280602081526020017f5361666545524332303a206c6f772d6c6576656c2063616c6c206661696c656481525085600160a060020a0316611b5e9092919063ffffffff16565b8051909150156118f5578080602001905181019061188091906125e1565b6118f55760405160e560020a62461bcd02815260206004820152602a60248201527f5361666545524332303a204552433230206f7065726174696f6e20646964206e60448201527f6f74207375636365656400000000000000000000000000000000000000000000606482015260840161088b565b505050565b6040517fdd62ed3e000000000000000000000000000000000000000000000000000000008152306004820152600160a060020a038381166024830152600091839186169063dd62ed3e90604401602060405180830381865afa158015611964573d6000803e3d6000fd5b505050506040513d601f19601f82011682018060405250810190611988919061237f565b61199291906124e6565b604051600160a060020a0385166024820152604481018290529091506108ec9085907f095ea7b3000000000000000000000000000000000000000000000000000000009060640161152e565b8251600214611a325760405160e560020a62461bcd02815260206004820152600b60248201527f696e76616c696420646563000000000000000000000000000000000000000000604482015260640161088b565b600086600081518110611a4757611a476124b4565b602002602001015160001480611a77575086600181518110611a6b57611a6b6124b4565b60200260200101516000145b15611a9057611a898989878988611b77565b9050611ad4565b611ad18888600081518110611aa757611aa76124b4565b602002602001015189600181518110611ac257611ac26124b4565b60200260200101518988611c9d565b90505b6040517f5c11d795000000000000000000000000000000000000000000000000000000008152600160a060020a038a1690635c11d79590611b21908b9085908a908990899060040161273d565b600060405180830381600087803b158015611b3b57600080fd5b505af1158015611b4f573d6000803e3d6000fd5b50505050505050505050505050565b6060611b6d8484600085611d18565b90505b9392505050565b60008086600160a060020a031663d06ca61f87876040518363ffffffff1660e060020a028152600401611bab929190612779565b600060405180830381865afa158015611bc8573d6000803e3d6000fd5b505050506040513d6000823e601f3d908101601f19168201604052611bf09190810190612792565b9050611c92611c286103e885600081518110611c0e57611c0e6124b4565b6020026020010151600a611c2291906126ea565b9061172d565b6114c685600181518110611c3e57611c3e6124b4565b6020026020010151600a611c5291906126ea565b611c228886611c6c60018951611e5c90919063ffffffff16565b81518110611c7c57611c7c6124b4565b602002602001015161172d90919063ffffffff16565b979650505050505050565b6000611d0e611cd883600081518110611cb857611cb86124b4565b6020026020010151600a611ccc91906126ea565b611c22876103e861172d565b6114c684600181518110611cee57611cee6124b4565b6020026020010151600a611d0291906126ea565b611c2287818c8c61172d565b9695505050505050565b60603031831115611d945760405160e560020a62461bcd02815260206004820152602660248201527f416464726573733a20696e73756666696369656e742062616c616e636520666f60448201527f722063616c6c0000000000000000000000000000000000000000000000000000606482015260840161088b565b600160a060020a0385163b611dee5760405160e560020a62461bcd02815260206004820152601d60248201527f416464726573733a2063616c6c20746f206e6f6e2d636f6e7472616374000000604482015260640161088b565b60008086600160a060020a03168587604051611e0a9190612837565b60006040518083038185875af1925050503d8060008114611e47576040519150601f19603f3d011682016040523d82523d6000602084013e611e4c565b606091505b5091509150611c92828286611e68565b60006114d88284612853565b60608315611e77575081611b70565b825115611e875782518084602001fd5b8160405160e560020a62461bcd02815260040161088b9190612269565b828054611eb090612476565b90600052602060002090601f016020900481019282611ed25760008555611f18565b82601f10611eeb5782800160ff19823516178555611f18565b82800160010185558215611f18579182015b82811115611f18578235825591602001919060010190611efd565b50611f24929150611f7b565b5090565b828054828255906000526020600020908101928215611f18579160200282015b82811115611f18578154600160a060020a031916600160a060020a03843516178255602090920191600190910190611f48565b5b80821115611f245760008155600101611f7c565b60008060408385031215611fa357600080fd5b50508035926020909101359150565b600080600060408486031215611fc757600080fd5b83359250602084013567ffffffffffffffff80821115611fe657600080fd5b818601915086601f830112611ffa57600080fd5b81358181111561200957600080fd5b87602082850101111561201b57600080fd5b6020830194508093505050509250925092565b60006020828403121561204057600080fd5b5035919050565b600080600080600060a0868803121561205f57600080fd5b505083359560208501359550604085013594606081013594506080013592509050565b803561ffff8116811461209457600080fd5b919050565b6000602082840312156120ab57600080fd5b6114d882612082565b600080600080608085870312156120ca57600080fd5b5050823594602084013594506040840135936060013592509050565b60008083601f8401126120f857600080fd5b50813567ffffffffffffffff81111561211057600080fd5b602083019150836020808302850101111561212a57600080fd5b9250929050565b6000806020838503121561214457600080fd5b823567ffffffffffffffff81111561215b57600080fd5b612167858286016120e6565b90969095509350505050565b600160a060020a03811681146114c357600080fd5b60006020828403121561219a57600080fd5b8135611b7081612173565b600080600080604085870312156121bb57600080fd5b843567ffffffffffffffff808211156121d357600080fd5b6121df888389016120e6565b909650945060208701359150808211156121f857600080fd5b50612205878288016120e6565b95989497509550505050565b60005b8381101561222c578181015183820152602001612214565b838111156108ec5750506000910152565b60008151808452612255816020860160208601612211565b601f01601f19169290920160200192915050565b6020815260006114d8602083018461223d565b60008060006060848603121561229157600080fd5b833561229c81612173565b92506020840135915060408401356122b381612173565b809150509250925092565b600080604083850312156122d157600080fd5b823591506122e160208401612082565b90509250929050565b6020808252818101527f4f776e61626c653a2063616c6c6572206973206e6f7420746865206f776e6572604082015260600190565b60008060008060008060c0878903121561233857600080fd5b865161234381612173565b809650506020870151945060408701519350606087015192506080870151915060a087015161237181612173565b809150509295509295509295565b60006020828403121561239157600080fd5b5051919050565b60e060020a634e487b7102600052604160045260246000fd5b604051601f8201601f1916810167ffffffffffffffff811182821017156123da576123da612398565b604052919050565b6000602082840312156123f457600080fd5b815167ffffffffffffffff8082111561240c57600080fd5b818401915084601f83011261242057600080fd5b81518181111561243257612432612398565b612445601f8201601f19166020016123b1565b915080825285602082850101111561245c57600080fd5b61246d816020840160208601612211565b50949350505050565b60028104600182168061248a57607f821691505b602082108114156124ae5760e060020a634e487b7102600052602260045260246000fd5b50919050565b60e060020a634e487b7102600052603260045260246000fd5b60e060020a634e487b7102600052601160045260246000fd5b600082198211156124f9576124f96124cd565b500190565b600061012061ffff8c1683528a6020840152896040840152600160a060020a03891660608401528760808401528660a08401528060c08401528551818401525060208501516101408301526040850151606061016084015261256461018084018261223d565b905082810360e0840152612578818661223d565b905082810361010084015261258d818561223d565b9c9b505050505050505050505050565b60008160001904831182151516156125b7576125b76124cd565b500290565b6000826125dc5760e060020a634e487b7102600052601260045260246000fd5b500490565b6000602082840312156125f357600080fd5b81518015158114611b7057600080fd5b600181815b80851115612640578160001904821115612624576126246124cd565b8085161561263157918102915b60029094049390800290612608565b509250929050565b600082612657575060016114db565b81612664575060006114db565b816001811461267a5760028114612684576126a1565b60019150506114db565b60ff841115612695576126956124cd565b8360020a9150506114db565b5060208310610133831016604e8410600b84101617156126c4575081810a6114db565b6126ce8383612603565b80600019048211156126e2576126e26124cd565b029392505050565b60006114d860ff841683612648565b600081518084526020808501945080840160005b83811015612732578151600160a060020a03168752958201959082019060010161270d565b509495945050505050565b85815284602082015260a06040820152600061275c60a08301866126f9565b600160a060020a0394909416606083015250608001529392505050565b828152604060208201526000611b6d60408301846126f9565b600060208083850312156127a557600080fd5b825167ffffffffffffffff808211156127bd57600080fd5b818501915085601f8301126127d157600080fd5b8151818111156127e3576127e3612398565b83810291506127f38483016123b1565b818152918301840191848101908884111561280d57600080fd5b938501935b8385101561282b57845182529385019390850190612812565b98975050505050505050565b60008251612849818460208701612211565b9190910192915050565b600082821015612865576128656124cd565b50039056fea2646970667358221220acd9699a70374a91b86f13d8620d03cd40bdcdb267dc1a44bccb3b80d2bbc31864736f6c634300080a0033",
  "immutableReferences": {},
  "source": "// SPDX-License-Identifier: MIT\n\npragma solidity ^0.8.0;\n\nimport \"./_ZorroControllerXChainBase.sol\";\n\nimport \"../interfaces/IZorroControllerXChain.sol\";\n\nimport \"../libraries/PriceFeed.sol\";\n\nimport \"../libraries/SafeSwap.sol\";\n\nimport \"../interfaces/IAMMRouter02.sol\";\n\nimport \"../interfaces/IZorro.sol\";\n\nimport \"@openzeppelin/contracts-upgradeable/token/ERC20/ERC20Upgradeable.sol\";\n\nimport \"./actions/ZorroControllerXChainActions.sol\";\n\ncontract ZorroControllerXChainEarn is\n    IZorroControllerXChainEarn,\n    ZorroControllerXChainBase\n{\n    /* Libraries */\n    using SafeMathUpgradeable for uint256;\n    using SafeERC20Upgradeable for IERC20Upgradeable;\n    using SafeSwapUni for IAMMRouter02;\n    using PriceFeed for AggregatorV3Interface;\n\n    /* Modifiers */\n\n    /// @notice Only can be called from a registered vault\n    /// @param _pid The pool ID\n    modifier onlyRegisteredVault(uint256 _pid) {\n        (, , , , , address _vault) = ZorroControllerInvestment(\n            currentChainController\n        ).poolInfo(_pid);\n        require(_msgSender() == _vault, \"only reg vault\");\n        _;\n    }\n\n    /// @notice Only can be called on home chain\n    modifier onlyHomeChain() {\n        require(chainId == homeChainId, \"only home chain\");\n        _;\n    }\n\n    /* Events */\n\n    event XChainDistributeEarnings(\n        uint256 indexed _remoteChainId,\n        uint256 indexed _buybackAmountUSD,\n        uint256 indexed _revShareAmountUSD\n    );\n\n    // TODO: Move all events, structs to interfaces -- globally\n    event RemovedSlashedRewards(uint256 indexed _amountZOR);\n\n    /* State */\n\n    // Tokens\n    address public zorroLPPoolOtherToken;\n    // Contracts\n    address public zorroStakingVault;\n    address public uniRouterAddress;\n    // Paths\n    address[] public stablecoinToZorroPath;\n    address[] public stablecoinToZorroLPPoolOtherTokenPath;\n    // Price feeds\n    AggregatorV3Interface public priceFeedZOR;\n    AggregatorV3Interface public priceFeedLPPoolOtherToken;\n    AggregatorV3Interface public priceFeedStablecoin;\n    // Rewards\n    uint256 public accumulatedSlashedRewards; // Accumulated ZOR rewards that need to be minted in batch on the home chain. Should reset to zero periodically\n\n    /* Setters */\n\n    function setZorroLPPoolOtherToken(address _token) external onlyOwner {\n        zorroLPPoolOtherToken = _token;\n    }\n\n    function setZorroStakingVault(address _contract) external onlyOwner {\n        zorroStakingVault = _contract;\n    }\n\n    function setUniRouterAddress(address _contract) external onlyOwner {\n        uniRouterAddress = _contract;\n    }\n\n    function setSwapPaths(\n        address[] calldata _stablecoinToZorroPath,\n        address[] calldata _stablecoinToZorroLPPoolOtherTokenPath\n    ) external onlyOwner {\n        stablecoinToZorroPath = _stablecoinToZorroPath;\n        stablecoinToZorroLPPoolOtherTokenPath = _stablecoinToZorroLPPoolOtherTokenPath;\n    }\n\n    function setPriceFeeds(address[] calldata _priceFeeds) external onlyOwner {\n        priceFeedZOR = AggregatorV3Interface(_priceFeeds[0]);\n        priceFeedLPPoolOtherToken = AggregatorV3Interface(_priceFeeds[1]);\n        priceFeedStablecoin = AggregatorV3Interface(_priceFeeds[2]);\n    }\n\n    /* Sending */\n\n    /// @notice Sends a request back to the home chain to distribute earnings\n    /// @param _pid Pool ID\n    /// @param _buybackAmountUSD Amount in USD to buy back\n    /// @param _revShareAmountUSD Amount in USD to revshare w/ ZOR single staking vault\n    /// @param _maxMarketMovement Acceptable slippage (950 = 5%, 990 = 1% etc.)\n    function sendXChainDistributeEarningsRequest(\n        uint256 _pid,\n        uint256 _buybackAmountUSD,\n        uint256 _revShareAmountUSD,\n        uint256 _maxMarketMovement\n    ) public payable nonReentrant onlyRegisteredVault(_pid) {\n        // Require funds to be submitted with this message\n        require(msg.value > 0, \"No fees submitted\");\n\n        // Calculate total USD to transfer\n        uint256 _totalUSD = _buybackAmountUSD.add(_revShareAmountUSD);\n\n        // TODO: check the funds flow. Is safetransferfrom required\n        // if we transfer funds into this contract already?\n        // This is called from VaultBase. \n\n        // Transfer USD into this contract\n        IERC20Upgradeable(defaultStablecoin).safeTransferFrom(\n            msg.sender,\n            address(this),\n            _totalUSD\n        );\n\n        // Check balances\n        uint256 _balUSD = IERC20Upgradeable(defaultStablecoin).balanceOf(address(this));\n\n        // Get accumulated ZOR rewards and set value\n        uint256 _slashedRewards = _removeSlashedRewards();\n\n        // Generate payload\n        bytes memory _payload = ZorroControllerXChainActions(controllerActions).encodeXChainDistributeEarningsPayload(\n            chainId,\n            _buybackAmountUSD,\n            _revShareAmountUSD,\n            _slashedRewards,\n            _maxMarketMovement\n        );\n\n        // Get the destination contract address on the remote chain\n        bytes memory _dstContract = controllerContractsMap[chainId];\n\n        // Call stargate to initiate bridge\n        _callStargateSwap(\n            StargateSwapPayload({\n                chainId: homeChainId,\n                qty: _balUSD,\n                dstContract: _dstContract,\n                payload: _payload,\n                maxMarketMovement: _maxMarketMovement\n            })\n        );\n    }\n\n    /* Receiving */\n\n    /// @notice Dummy func to allow .selector call above and guarantee typesafety for abi calls.\n    /// @dev Should never ever be actually called.\n    function receiveXChainDistributionRequest(\n        uint256 _remoteChainId,\n        uint256 _amountUSDBuyback,\n        uint256 _amountUSDRevShare,\n        uint256 _accSlashedRewards,\n        uint256 _maxMarketMovement\n    ) public {\n        // Revert to make sure this function never gets called\n        require(false, \"illegal dummy func call\");\n\n        // But still include the function call here anyway to satisfy type safety requirements in case there is a change\n        _receiveXChainDistributionRequest(\n            _remoteChainId,\n            _amountUSDBuyback,\n            _amountUSDRevShare,\n            _accSlashedRewards,\n            _maxMarketMovement\n        );\n    }\n\n    /// @notice Receives an authorized request from remote chains to perform earnings fee distribution events, such as: buyback + LP + burn, and revenue share\n    /// @param _remoteChainId The Zorro chain ID of the chain that this request originated from\n    /// @param _amountUSDBuyback The amount in USD that should be minted for LP + burn\n    /// @param _amountUSDRevShare The amount in USD that should be minted for revenue sharing with ZOR stakers\n    /// @param _accSlashedRewards Accumulated slashed rewards on chain\n    /// @param _maxMarketMovement factor to account for max market movement/slippage.\n    function _receiveXChainDistributionRequest(\n        uint256 _remoteChainId,\n        uint256 _amountUSDBuyback,\n        uint256 _amountUSDRevShare,\n        uint256 _accSlashedRewards,\n        uint256 _maxMarketMovement\n    ) internal virtual onlyHomeChain {\n        // Total USD to perform operations\n        uint256 _totalUSD = _amountUSDBuyback.add(_amountUSDRevShare);\n\n        // Determine new USD balances\n        uint256 _balUSD = IERC20(defaultStablecoin).balanceOf(address(this));\n\n        /* Buyback */\n        // (Account for slippage)\n        uint256 _buybackAmount = _balUSD.mul(_amountUSDBuyback).div(\n            _totalUSD\n        );\n        _buybackOnChain(_buybackAmount, _maxMarketMovement);\n\n        /* Rev share */\n        // (Account for slippage)\n        uint256 _revShareAmount = _balUSD.mul(_amountUSDRevShare).div(\n            _totalUSD\n        );\n        _revShareOnChain(_revShareAmount, _maxMarketMovement);\n\n        // Emit event\n        emit XChainDistributeEarnings(\n            _remoteChainId,\n            _buybackAmount,\n            _revShareAmount\n        );\n\n        // Award slashed rewards to ZOR stakers\n        if (_accSlashedRewards > 0) {\n            _awardSlashedRewardsToStakers(_accSlashedRewards);\n        }\n    }\n\n    /* Fees */\n\n    /// @notice Adds liquidity to the main ZOR LP pool and burns the resulting LP token\n    /// @param _amountUSD Amount of USD to add as liquidity\n    /// @param _maxMarketMovement factor to account for max market movement/slippage.\n    function _buybackOnChain(uint256 _amountUSD, uint256 _maxMarketMovement)\n        internal\n    {\n        // Authorize spending beforehand\n        IERC20Upgradeable(defaultStablecoin).safeIncreaseAllowance(\n            uniRouterAddress,\n            _amountUSD\n        );\n\n\n        {\n            // Determine exchange rates using price feed oracle\n            uint256[] memory _priceTokens0 = new uint256[](2);\n            _priceTokens0[0] = priceFeedStablecoin.getExchangeRate();\n            _priceTokens0[1] = priceFeedZOR.getExchangeRate();\n            uint256[] memory _priceTokens1 = new uint256[](2);\n            _priceTokens1[0] = _priceTokens0[0];\n            _priceTokens1[1] = priceFeedLPPoolOtherToken.getExchangeRate();\n\n            // Get decimal info\n            uint8[] memory _decimals0 = new uint8[](2);\n            _decimals0[0] = ERC20Upgradeable(defaultStablecoin).decimals();\n            _decimals0[1] = ERC20Upgradeable(ZORRO).decimals();\n            uint8[] memory _decimals1 = new uint8[](2);\n            _decimals1[0] = _decimals0[0];\n            _decimals1[1] = ERC20Upgradeable(zorroLPPoolOtherToken).decimals();\n\n            // Increase allowance\n            IERC20Upgradeable(defaultStablecoin).safeIncreaseAllowance(uniRouterAddress, _amountUSD);\n\n\n            // Swap to ZOR token\n            IAMMRouter02(uniRouterAddress).safeSwap(\n                _amountUSD.div(2),\n                _priceTokens0,\n                _maxMarketMovement,\n                stablecoinToZorroPath,\n                _decimals0,\n                address(this),\n                block.timestamp.add(600)\n            );\n\n            // Swap to counterparty token (if not USD)\n            if (zorroLPPoolOtherToken != defaultStablecoin) {\n                IAMMRouter02(uniRouterAddress).safeSwap(\n                    _amountUSD.div(2),\n                    _priceTokens1,\n                    _maxMarketMovement,\n                    stablecoinToZorroLPPoolOtherTokenPath,\n                    _decimals1,\n                    address(this),\n                    block.timestamp.add(600)\n                );\n            }\n        }\n\n\n        // Enter LP pool\n        uint256 tokenZORAmt = IERC20Upgradeable(ZORRO).balanceOf(address(this));\n        uint256 tokenOtherAmt = IERC20Upgradeable(zorroLPPoolOtherToken).balanceOf(\n            address(this)\n        );\n        IERC20Upgradeable(ZORRO).safeIncreaseAllowance(uniRouterAddress, tokenZORAmt);\n        IERC20Upgradeable(zorroLPPoolOtherToken).safeIncreaseAllowance(\n            uniRouterAddress,\n            tokenOtherAmt\n        );\n        IAMMRouter02(uniRouterAddress).addLiquidity(\n            ZORRO,\n            zorroLPPoolOtherToken,\n            tokenZORAmt,\n            tokenOtherAmt,\n            tokenZORAmt.mul(_maxMarketMovement).div(1000),\n            tokenOtherAmt.mul(_maxMarketMovement).div(1000),\n            burnAddress,\n            block.timestamp.add(600)\n        );\n    }\n\n    /// @notice Pays the ZOR single staking pool the revenue share amount specified\n    /// @param _amountUSD Amount of USD to send as ZOR revenue share\n    /// @param _maxMarketMovement factor to account for max market movement/slippage.\n    function _revShareOnChain(uint256 _amountUSD, uint256 _maxMarketMovement)\n        internal\n    {\n        // Authorize spending beforehand\n        IERC20Upgradeable(defaultStablecoin).safeIncreaseAllowance(\n            uniRouterAddress,\n            _amountUSD\n        );\n\n        // Determine exchange rates using price feed oracle\n        uint256[] memory _priceTokens = new uint256[](2);\n        _priceTokens[0] = priceFeedStablecoin.getExchangeRate();\n        _priceTokens[1] = priceFeedZOR.getExchangeRate();\n\n        // Get decimal info\n        uint8[] memory _decimals = new uint8[](2);\n        _decimals[0] = ERC20Upgradeable(defaultStablecoin).decimals();\n        _decimals[1] = ERC20Upgradeable(ZORRO).decimals();\n\n        // Swap to ZOR\n        // Increase allowance\n        IERC20Upgradeable(defaultStablecoin).safeIncreaseAllowance(uniRouterAddress, _amountUSD);\n        // Swap\n        IAMMRouter02(uniRouterAddress).safeSwap(\n            _amountUSD,\n            _priceTokens,\n            _maxMarketMovement,\n            stablecoinToZorroPath,\n            _decimals,\n            zorroStakingVault,\n            block.timestamp.add(600)\n        );\n    }\n\n    /* Slashed rewards */\n\n    /// @notice Called by oracle to remove slashed ZOR rewards and reset\n    /// @return _slashedZORRewards The amount of accumulated slashed ZOR rewards\n    function _removeSlashedRewards()\n        internal\n        returns (uint256 _slashedZORRewards)\n    {\n        // Store current rewards amount\n        _slashedZORRewards = accumulatedSlashedRewards;\n\n        // Emit success event\n        emit RemovedSlashedRewards(_slashedZORRewards);\n\n        // Reset accumulated rewards\n        accumulatedSlashedRewards = 0;\n    }\n\n    /// @notice Awards the slashed ZOR rewards from other chains to this (home) chain's ZOR staking vault\n    /// @param _slashedZORRewards The amount of accumulated slashed ZOR rewards\n    function _awardSlashedRewardsToStakers(uint256 _slashedZORRewards)\n        internal\n    {\n        // Mint ZOR and send to ZOR staking vault.\n        IZorro(ZORRO).mint(zorroStakingVault, _slashedZORRewards);\n    }\n}\n",
  "sourcePath": "/Users/kristophm/Documents/workspace/zorro-protocol/contracts/controllers/_ZorroControllerXChainEarn.sol",
  "compiler": {
    "name": "solc",
    "version": "0.8.10+commit.fc410830.Emscripten.clang"
  },
  "schemaVersion": "3.4.10",
  "updatedAt": "2022-11-22T13:22:22.272Z",
  "devdoc": {
    "kind": "dev",
    "methods": {
      "owner()": {
        "details": "Returns the address of the current owner."
      },
      "receiveXChainDistributionRequest(uint256,uint256,uint256,uint256,uint256)": {
        "details": "Should never ever be actually called."
      },
      "renounceOwnership()": {
        "details": "Leaves the contract without owner. It will not be possible to call `onlyOwner` functions anymore. Can only be called by the current owner. NOTE: Renouncing ownership will leave the contract without an owner, thereby removing any functionality that is only available to the owner."
      },
      "sendXChainDistributeEarningsRequest(uint256,uint256,uint256,uint256)": {
        "params": {
          "_buybackAmountUSD": "Amount in USD to buy back",
          "_maxMarketMovement": "Acceptable slippage (950 = 5%, 990 = 1% etc.)",
          "_pid": "Pool ID",
          "_revShareAmountUSD": "Amount in USD to revshare w/ ZOR single staking vault"
        }
      },
      "setControllerContract(uint256,bytes)": {
        "params": {
          "_controller": "Bytes representation of smart contract address for cross chain contract",
          "_zorroChainId": "Zorro Chain ID"
        }
      },
      "setStargateDestPoolIds(uint256,uint16)": {
        "params": {
          "_stargatePoolId": "Stargate pool ID",
          "_zorroChainId": "Zorro chain ID"
        }
      },
      "setZorroChainToLZMap(uint256,uint16)": {
        "params": {
          "_lzChainId": "LayerZero Chain ID",
          "_zorroChainId": "Zorro chain ID"
        }
      },
      "transferOwnership(address)": {
        "details": "Transfers ownership of the contract to a new account (`newOwner`). Can only be called by the current owner."
      }
    },
    "version": 1
  },
  "userdoc": {
    "kind": "user",
    "methods": {
      "receiveXChainDistributionRequest(uint256,uint256,uint256,uint256,uint256)": {
        "notice": "Dummy func to allow .selector call above and guarantee typesafety for abi calls."
      },
      "sendXChainDistributeEarningsRequest(uint256,uint256,uint256,uint256)": {
        "notice": "Sends a request back to the home chain to distribute earnings"
      },
      "setControllerContract(uint256,bytes)": {
        "notice": "Setter: Controller contract for each chain"
      },
      "setLayerZeroParams(address,uint256,address)": {
        "notice": "Setter: Set main LZ params"
      },
      "setStargateDestPoolIds(uint256,uint16)": {
        "notice": "Setter: Stargate dest pool IDs for USD asset"
      },
      "setZorroChainToLZMap(uint256,uint16)": {
        "notice": "Setter: LZ/Stargate params"
      }
    },
    "version": 1
  }
}