{
  "contractName": "ZorroController",
  "abi": [
    {
      "inputs": [
        {
          "internalType": "address",
          "name": "_timelockOwner",
          "type": "address"
        },
        {
          "internalType": "address",
          "name": "_publicPool",
          "type": "address"
        },
        {
          "internalType": "address[]",
          "name": "_stableCoinAddresses",
          "type": "address[]"
        },
        {
          "internalType": "address",
          "name": "_lockUSDCController",
          "type": "address"
        },
        {
          "internalType": "address",
          "name": "_homeChainZorroController",
          "type": "address"
        },
        {
          "internalType": "address[]",
          "name": "_zorroLPPoolAddresses",
          "type": "address[]"
        },
        {
          "internalType": "uint256",
          "name": "_chainId",
          "type": "uint256"
        },
        {
          "internalType": "address[]",
          "name": "_priceFeeds",
          "type": "address[]"
        },
        {
          "internalType": "address",
          "name": "_zorroControllerOracle",
          "type": "address"
        },
        {
          "internalType": "bytes32[]",
          "name": "_zorroControllerOracleJobIds",
          "type": "bytes32[]"
        }
      ],
      "stateMutability": "nonpayable",
      "type": "constructor"
    },
    {
      "anonymous": false,
      "inputs": [
        {
          "indexed": true,
          "internalType": "bytes32",
          "name": "id",
          "type": "bytes32"
        }
      ],
      "name": "ChainlinkCancelled",
      "type": "event"
    },
    {
      "anonymous": false,
      "inputs": [
        {
          "indexed": true,
          "internalType": "bytes32",
          "name": "id",
          "type": "bytes32"
        }
      ],
      "name": "ChainlinkFulfilled",
      "type": "event"
    },
    {
      "anonymous": false,
      "inputs": [
        {
          "indexed": true,
          "internalType": "bytes32",
          "name": "id",
          "type": "bytes32"
        }
      ],
      "name": "ChainlinkRequested",
      "type": "event"
    },
    {
      "anonymous": false,
      "inputs": [
        {
          "indexed": true,
          "internalType": "address",
          "name": "user",
          "type": "address"
        },
        {
          "indexed": true,
          "internalType": "uint256",
          "name": "pid",
          "type": "uint256"
        },
        {
          "indexed": false,
          "internalType": "uint256",
          "name": "wantAmount",
          "type": "uint256"
        }
      ],
      "name": "Deposit",
      "type": "event"
    },
    {
      "anonymous": false,
      "inputs": [
        {
          "indexed": true,
          "internalType": "address",
          "name": "previousOwner",
          "type": "address"
        },
        {
          "indexed": true,
          "internalType": "address",
          "name": "newOwner",
          "type": "address"
        }
      ],
      "name": "OwnershipTransferred",
      "type": "event"
    },
    {
      "anonymous": false,
      "inputs": [
        {
          "indexed": false,
          "internalType": "address",
          "name": "user",
          "type": "address"
        },
        {
          "indexed": true,
          "internalType": "uint256",
          "name": "fromPid",
          "type": "uint256"
        },
        {
          "indexed": true,
          "internalType": "uint256",
          "name": "fromTrancheId",
          "type": "uint256"
        },
        {
          "indexed": true,
          "internalType": "uint256",
          "name": "toPid",
          "type": "uint256"
        }
      ],
      "name": "TransferInvestment",
      "type": "event"
    },
    {
      "anonymous": false,
      "inputs": [
        {
          "indexed": true,
          "internalType": "address",
          "name": "user",
          "type": "address"
        },
        {
          "indexed": true,
          "internalType": "uint256",
          "name": "pid",
          "type": "uint256"
        },
        {
          "indexed": false,
          "internalType": "uint256",
          "name": "trancheId",
          "type": "uint256"
        },
        {
          "indexed": false,
          "internalType": "uint256",
          "name": "wantAmount",
          "type": "uint256"
        }
      ],
      "name": "Withdraw",
      "type": "event"
    },
    {
      "inputs": [
        {
          "internalType": "uint256",
          "name": "",
          "type": "uint256"
        }
      ],
      "name": "USDCToZorroLPPoolToken0Path",
      "outputs": [
        {
          "internalType": "address",
          "name": "",
          "type": "address"
        }
      ],
      "stateMutability": "view",
      "type": "function"
    },
    {
      "inputs": [
        {
          "internalType": "uint256",
          "name": "",
          "type": "uint256"
        }
      ],
      "name": "USDCToZorroLPPoolToken1Path",
      "outputs": [
        {
          "internalType": "address",
          "name": "",
          "type": "address"
        }
      ],
      "stateMutability": "view",
      "type": "function"
    },
    {
      "inputs": [
        {
          "internalType": "uint256",
          "name": "",
          "type": "uint256"
        }
      ],
      "name": "USDCToZorroPath",
      "outputs": [
        {
          "internalType": "address",
          "name": "",
          "type": "address"
        }
      ],
      "stateMutability": "view",
      "type": "function"
    },
    {
      "inputs": [],
      "name": "ZORRO",
      "outputs": [
        {
          "internalType": "address",
          "name": "",
          "type": "address"
        }
      ],
      "stateMutability": "view",
      "type": "function"
    },
    {
      "inputs": [],
      "name": "ZORRODailyDistributionFactorBasisPointsMax",
      "outputs": [
        {
          "internalType": "uint256",
          "name": "",
          "type": "uint256"
        }
      ],
      "stateMutability": "view",
      "type": "function"
    },
    {
      "inputs": [],
      "name": "ZORRODailyDistributionFactorBasisPointsMin",
      "outputs": [
        {
          "internalType": "uint256",
          "name": "",
          "type": "uint256"
        }
      ],
      "stateMutability": "view",
      "type": "function"
    },
    {
      "inputs": [],
      "name": "ZORROPerBlock",
      "outputs": [
        {
          "internalType": "uint256",
          "name": "",
          "type": "uint256"
        }
      ],
      "stateMutability": "view",
      "type": "function"
    },
    {
      "inputs": [
        {
          "internalType": "uint256",
          "name": "_allocPoint",
          "type": "uint256"
        },
        {
          "internalType": "contract IERC20",
          "name": "_want",
          "type": "address"
        },
        {
          "internalType": "bool",
          "name": "_withUpdate",
          "type": "bool"
        },
        {
          "internalType": "address",
          "name": "_vault",
          "type": "address"
        }
      ],
      "name": "add",
      "outputs": [],
      "stateMutability": "nonpayable",
      "type": "function"
    },
    {
      "inputs": [],
      "name": "baseRewardRateBasisPoints",
      "outputs": [
        {
          "internalType": "uint256",
          "name": "",
          "type": "uint256"
        }
      ],
      "stateMutability": "view",
      "type": "function"
    },
    {
      "inputs": [],
      "name": "blocksPerDay",
      "outputs": [
        {
          "internalType": "uint256",
          "name": "",
          "type": "uint256"
        }
      ],
      "stateMutability": "view",
      "type": "function"
    },
    {
      "inputs": [],
      "name": "burnAddress",
      "outputs": [
        {
          "internalType": "address",
          "name": "",
          "type": "address"
        }
      ],
      "stateMutability": "view",
      "type": "function"
    },
    {
      "inputs": [
        {
          "internalType": "uint256",
          "name": "_chainId",
          "type": "uint256"
        },
        {
          "internalType": "bytes",
          "name": "_callbackContract",
          "type": "bytes"
        },
        {
          "internalType": "uint256",
          "name": "_amountUSDCBuyback",
          "type": "uint256"
        },
        {
          "internalType": "uint256",
          "name": "_amountUSDCRevShare",
          "type": "uint256"
        },
        {
          "internalType": "uint256",
          "name": "_failedAmountUSDCBuyback",
          "type": "uint256"
        },
        {
          "internalType": "uint256",
          "name": "_failedAmountUSDCRevShare",
          "type": "uint256"
        },
        {
          "internalType": "uint256",
          "name": "_ZORROExchangeRate",
          "type": "uint256"
        }
      ],
      "name": "buybackAndRevShareCallback",
      "outputs": [],
      "stateMutability": "nonpayable",
      "type": "function"
    },
    {
      "inputs": [],
      "name": "chainId",
      "outputs": [
        {
          "internalType": "uint256",
          "name": "",
          "type": "uint256"
        }
      ],
      "stateMutability": "view",
      "type": "function"
    },
    {
      "inputs": [],
      "name": "chainMultiplier",
      "outputs": [
        {
          "internalType": "uint256",
          "name": "",
          "type": "uint256"
        }
      ],
      "stateMutability": "view",
      "type": "function"
    },
    {
      "inputs": [],
      "name": "curveDefaultStablecoinIndex",
      "outputs": [
        {
          "internalType": "int128",
          "name": "",
          "type": "int128"
        }
      ],
      "stateMutability": "view",
      "type": "function"
    },
    {
      "inputs": [],
      "name": "curveStablePoolAddress",
      "outputs": [
        {
          "internalType": "address",
          "name": "",
          "type": "address"
        }
      ],
      "stateMutability": "view",
      "type": "function"
    },
    {
      "inputs": [],
      "name": "curveSyntheticStablecoinIndex",
      "outputs": [
        {
          "internalType": "int128",
          "name": "",
          "type": "int128"
        }
      ],
      "stateMutability": "view",
      "type": "function"
    },
    {
      "inputs": [],
      "name": "defaultMaxMarketMovement",
      "outputs": [
        {
          "internalType": "uint256",
          "name": "",
          "type": "uint256"
        }
      ],
      "stateMutability": "view",
      "type": "function"
    },
    {
      "inputs": [],
      "name": "defaultStablecoin",
      "outputs": [
        {
          "internalType": "address",
          "name": "",
          "type": "address"
        }
      ],
      "stateMutability": "view",
      "type": "function"
    },
    {
      "inputs": [
        {
          "internalType": "uint256",
          "name": "_pid",
          "type": "uint256"
        },
        {
          "internalType": "uint256",
          "name": "_wantAmt",
          "type": "uint256"
        },
        {
          "internalType": "uint256",
          "name": "_weeksCommitted",
          "type": "uint256"
        }
      ],
      "name": "deposit",
      "outputs": [],
      "stateMutability": "nonpayable",
      "type": "function"
    },
    {
      "inputs": [
        {
          "internalType": "uint256",
          "name": "_pid",
          "type": "uint256"
        },
        {
          "internalType": "uint256",
          "name": "_valueUSDC",
          "type": "uint256"
        },
        {
          "internalType": "uint256",
          "name": "_weeksCommitted",
          "type": "uint256"
        },
        {
          "internalType": "uint256",
          "name": "_maxMarketMovement",
          "type": "uint256"
        },
        {
          "components": [
            {
              "internalType": "uint256",
              "name": "token0",
              "type": "uint256"
            },
            {
              "internalType": "uint256",
              "name": "token1",
              "type": "uint256"
            },
            {
              "internalType": "uint256",
              "name": "earnToken",
              "type": "uint256"
            },
            {
              "internalType": "uint256",
              "name": "lpPoolToken0",
              "type": "uint256"
            },
            {
              "internalType": "uint256",
              "name": "lpPoolToken1",
              "type": "uint256"
            },
            {
              "internalType": "uint256",
              "name": "zorroToken",
              "type": "uint256"
            },
            {
              "internalType": "uint256",
              "name": "tokenUSDC",
              "type": "uint256"
            }
          ],
          "internalType": "struct PriceData",
          "name": "_priceData",
          "type": "tuple"
        }
      ],
      "name": "depositFullService",
      "outputs": [],
      "stateMutability": "nonpayable",
      "type": "function"
    },
    {
      "inputs": [
        {
          "internalType": "uint256",
          "name": "_pid",
          "type": "uint256"
        },
        {
          "internalType": "uint256",
          "name": "_buybackAmountUSDC",
          "type": "uint256"
        },
        {
          "internalType": "uint256",
          "name": "_revShareAmountUSDC",
          "type": "uint256"
        }
      ],
      "name": "distributeEarningsXChain",
      "outputs": [],
      "stateMutability": "nonpayable",
      "type": "function"
    },
    {
      "inputs": [
        {
          "internalType": "uint256",
          "name": "",
          "type": "uint256"
        }
      ],
      "name": "endpointContracts",
      "outputs": [
        {
          "internalType": "address",
          "name": "",
          "type": "address"
        }
      ],
      "stateMutability": "view",
      "type": "function"
    },
    {
      "inputs": [],
      "name": "failedLockedBuybackUSDC",
      "outputs": [
        {
          "internalType": "uint256",
          "name": "",
          "type": "uint256"
        }
      ],
      "stateMutability": "view",
      "type": "function"
    },
    {
      "inputs": [],
      "name": "failedLockedRevShareUSDC",
      "outputs": [
        {
          "internalType": "uint256",
          "name": "",
          "type": "uint256"
        }
      ],
      "stateMutability": "view",
      "type": "function"
    },
    {
      "inputs": [
        {
          "internalType": "uint256",
          "name": "durationInWeeks",
          "type": "uint256"
        }
      ],
      "name": "getTimeMultiplier",
      "outputs": [
        {
          "internalType": "uint256",
          "name": "",
          "type": "uint256"
        }
      ],
      "stateMutability": "view",
      "type": "function"
    },
    {
      "inputs": [
        {
          "internalType": "uint256",
          "name": "_liquidityCommitted",
          "type": "uint256"
        },
        {
          "internalType": "uint256",
          "name": "_timeMultiplier",
          "type": "uint256"
        }
      ],
      "name": "getUserContribution",
      "outputs": [
        {
          "internalType": "uint256",
          "name": "",
          "type": "uint256"
        }
      ],
      "stateMutability": "pure",
      "type": "function"
    },
    {
      "inputs": [],
      "name": "homeChainId",
      "outputs": [
        {
          "internalType": "uint8",
          "name": "",
          "type": "uint8"
        }
      ],
      "stateMutability": "view",
      "type": "function"
    },
    {
      "inputs": [],
      "name": "homeChainZorroController",
      "outputs": [
        {
          "internalType": "address",
          "name": "",
          "type": "address"
        }
      ],
      "stateMutability": "view",
      "type": "function"
    },
    {
      "inputs": [
        {
          "internalType": "address",
          "name": "_token",
          "type": "address"
        },
        {
          "internalType": "uint256",
          "name": "_amount",
          "type": "uint256"
        }
      ],
      "name": "inCaseTokensGetStuck",
      "outputs": [],
      "stateMutability": "nonpayable",
      "type": "function"
    },
    {
      "inputs": [],
      "name": "isTimeMultiplierActive",
      "outputs": [
        {
          "internalType": "bool",
          "name": "",
          "type": "bool"
        }
      ],
      "stateMutability": "view",
      "type": "function"
    },
    {
      "inputs": [],
      "name": "lockUSDCController",
      "outputs": [
        {
          "internalType": "address",
          "name": "",
          "type": "address"
        }
      ],
      "stateMutability": "view",
      "type": "function"
    },
    {
      "inputs": [
        {
          "internalType": "uint256",
          "name": "",
          "type": "uint256"
        },
        {
          "internalType": "uint256",
          "name": "",
          "type": "uint256"
        }
      ],
      "name": "lockedEarningsStatus",
      "outputs": [
        {
          "internalType": "uint8",
          "name": "",
          "type": "uint8"
        }
      ],
      "stateMutability": "view",
      "type": "function"
    },
    {
      "inputs": [],
      "name": "massUpdatePools",
      "outputs": [],
      "stateMutability": "nonpayable",
      "type": "function"
    },
    {
      "inputs": [],
      "name": "owner",
      "outputs": [
        {
          "internalType": "address",
          "name": "",
          "type": "address"
        }
      ],
      "stateMutability": "view",
      "type": "function"
    },
    {
      "inputs": [
        {
          "internalType": "uint256",
          "name": "_pid",
          "type": "uint256"
        },
        {
          "internalType": "address",
          "name": "_user",
          "type": "address"
        }
      ],
      "name": "pendingZORRORewards",
      "outputs": [
        {
          "internalType": "uint256",
          "name": "",
          "type": "uint256"
        }
      ],
      "stateMutability": "view",
      "type": "function"
    },
    {
      "inputs": [
        {
          "internalType": "uint256",
          "name": "",
          "type": "uint256"
        }
      ],
      "name": "poolInfo",
      "outputs": [
        {
          "internalType": "contract IERC20",
          "name": "want",
          "type": "address"
        },
        {
          "internalType": "uint256",
          "name": "allocPoint",
          "type": "uint256"
        },
        {
          "internalType": "uint256",
          "name": "lastRewardBlock",
          "type": "uint256"
        },
        {
          "internalType": "uint256",
          "name": "accZORRORewards",
          "type": "uint256"
        },
        {
          "internalType": "uint256",
          "name": "totalTrancheContributions",
          "type": "uint256"
        },
        {
          "internalType": "address",
          "name": "vault",
          "type": "address"
        }
      ],
      "stateMutability": "view",
      "type": "function"
    },
    {
      "inputs": [],
      "name": "poolLength",
      "outputs": [
        {
          "internalType": "uint256",
          "name": "",
          "type": "uint256"
        }
      ],
      "stateMutability": "view",
      "type": "function"
    },
    {
      "inputs": [],
      "name": "publicPool",
      "outputs": [
        {
          "internalType": "address",
          "name": "",
          "type": "address"
        }
      ],
      "stateMutability": "view",
      "type": "function"
    },
    {
      "inputs": [
        {
          "internalType": "uint256",
          "name": "_amountUSDCBuyback",
          "type": "uint256"
        },
        {
          "internalType": "uint256",
          "name": "_amountUSDCRevShare",
          "type": "uint256"
        },
        {
          "internalType": "uint256",
          "name": "_failedAmountUSDCBuyback",
          "type": "uint256"
        },
        {
          "internalType": "uint256",
          "name": "_failedAmountUSDCRevShare",
          "type": "uint256"
        },
        {
          "internalType": "bytes",
          "name": "_xChainOrigin",
          "type": "bytes"
        },
        {
          "internalType": "bytes",
          "name": "_xChainSender",
          "type": "bytes"
        }
      ],
      "name": "receiveBurnLockedEarningsRequest",
      "outputs": [],
      "stateMutability": "nonpayable",
      "type": "function"
    },
    {
      "inputs": [
        {
          "internalType": "uint256",
          "name": "_amount",
          "type": "uint256"
        }
      ],
      "name": "receiveXChainBurnRewardsRequest",
      "outputs": [],
      "stateMutability": "nonpayable",
      "type": "function"
    },
    {
      "inputs": [
        {
          "internalType": "address",
          "name": "_account",
          "type": "address"
        },
        {
          "internalType": "uint256",
          "name": "_valueUSDC",
          "type": "uint256"
        },
        {
          "internalType": "uint256",
          "name": "_pid",
          "type": "uint256"
        },
        {
          "internalType": "uint256",
          "name": "_weeksCommitted",
          "type": "uint256"
        },
        {
          "internalType": "uint256",
          "name": "_vaultEnteredAt",
          "type": "uint256"
        },
        {
          "internalType": "uint256",
          "name": "_maxMarketMovement",
          "type": "uint256"
        },
        {
          "internalType": "bytes",
          "name": "_xChainOrigin",
          "type": "bytes"
        },
        {
          "internalType": "bytes",
          "name": "_xChainSender",
          "type": "bytes"
        }
      ],
      "name": "receiveXChainDepositRequest",
      "outputs": [],
      "stateMutability": "nonpayable",
      "type": "function"
    },
    {
      "inputs": [
        {
          "internalType": "uint256",
          "name": "_chainId",
          "type": "uint256"
        },
        {
          "internalType": "bytes",
          "name": "_callbackContract",
          "type": "bytes"
        },
        {
          "internalType": "uint256",
          "name": "_amountUSDCBuyback",
          "type": "uint256"
        },
        {
          "internalType": "uint256",
          "name": "_amountUSDCRevShare",
          "type": "uint256"
        },
        {
          "internalType": "uint256",
          "name": "_failedAmountUSDCBuyback",
          "type": "uint256"
        },
        {
          "internalType": "uint256",
          "name": "_failedAmountUSDCRevShare",
          "type": "uint256"
        },
        {
          "internalType": "bytes",
          "name": "_xChainOrigin",
          "type": "bytes"
        },
        {
          "internalType": "bytes",
          "name": "_xChainSender",
          "type": "bytes"
        }
      ],
      "name": "receiveXChainDistributionRequest",
      "outputs": [],
      "stateMutability": "nonpayable",
      "type": "function"
    },
    {
      "inputs": [
        {
          "internalType": "address",
          "name": "_account",
          "type": "address"
        },
        {
          "internalType": "uint256",
          "name": "_withdrawnUSDC",
          "type": "uint256"
        },
        {
          "internalType": "uint256",
          "name": "_chainId",
          "type": "uint256"
        },
        {
          "internalType": "uint256",
          "name": "_originalNetDepositUSDC",
          "type": "uint256"
        },
        {
          "internalType": "uint256",
          "name": "_maxMarketMovement",
          "type": "uint256"
        },
        {
          "internalType": "address",
          "name": "_callbackContract",
          "type": "address"
        },
        {
          "internalType": "bytes",
          "name": "_xChainOrigin",
          "type": "bytes"
        },
        {
          "internalType": "bytes",
          "name": "_xChainSender",
          "type": "bytes"
        }
      ],
      "name": "receiveXChainRepatriationRequest",
      "outputs": [],
      "stateMutability": "nonpayable",
      "type": "function"
    },
    {
      "inputs": [
        {
          "internalType": "address",
          "name": "_account",
          "type": "address"
        },
        {
          "internalType": "uint256",
          "name": "_amountUSDC",
          "type": "uint256"
        },
        {
          "internalType": "bytes",
          "name": "_xChainOrigin",
          "type": "bytes"
        },
        {
          "internalType": "bytes",
          "name": "_xChainSender",
          "type": "bytes"
        }
      ],
      "name": "receiveXChainUnlockRequest",
      "outputs": [],
      "stateMutability": "nonpayable",
      "type": "function"
    },
    {
      "inputs": [
        {
          "internalType": "address",
          "name": "_account",
          "type": "address"
        },
        {
          "internalType": "uint256",
          "name": "_chainId",
          "type": "uint256"
        },
        {
          "internalType": "uint256",
          "name": "_pid",
          "type": "uint256"
        },
        {
          "internalType": "uint256",
          "name": "_trancheId",
          "type": "uint256"
        },
        {
          "internalType": "uint256",
          "name": "_maxMarketMovement",
          "type": "uint256"
        },
        {
          "internalType": "bytes",
          "name": "_xChainOrigin",
          "type": "bytes"
        },
        {
          "internalType": "bytes",
          "name": "_xChainSender",
          "type": "bytes"
        }
      ],
      "name": "receiveXChainWithdrawalRequest",
      "outputs": [],
      "stateMutability": "nonpayable",
      "type": "function"
    },
    {
      "inputs": [
        {
          "internalType": "uint256",
          "name": "_blockNumber",
          "type": "uint256"
        },
        {
          "internalType": "uint256",
          "name": "_pid",
          "type": "uint256"
        },
        {
          "internalType": "uint256",
          "name": "_amountBuybackUSDC",
          "type": "uint256"
        },
        {
          "internalType": "uint256",
          "name": "_amountRevShareUSDC",
          "type": "uint256"
        },
        {
          "internalType": "bytes",
          "name": "_xChainOrigin",
          "type": "bytes"
        },
        {
          "internalType": "bytes",
          "name": "_xChainSender",
          "type": "bytes"
        }
      ],
      "name": "recoverXChainFeeDist",
      "outputs": [],
      "stateMutability": "nonpayable",
      "type": "function"
    },
    {
      "inputs": [
        {
          "internalType": "uint256",
          "name": "",
          "type": "uint256"
        },
        {
          "internalType": "address",
          "name": "",
          "type": "address"
        }
      ],
      "name": "redepositInfo",
      "outputs": [
        {
          "internalType": "uint256",
          "name": "durationCommittedInWeeks",
          "type": "uint256"
        },
        {
          "internalType": "uint256",
          "name": "enteredVaultAt",
          "type": "uint256"
        }
      ],
      "stateMutability": "view",
      "type": "function"
    },
    {
      "inputs": [
        {
          "internalType": "bytes",
          "name": "_contract",
          "type": "bytes"
        }
      ],
      "name": "registerXChainController",
      "outputs": [],
      "stateMutability": "nonpayable",
      "type": "function"
    },
    {
      "inputs": [
        {
          "internalType": "address",
          "name": "_contract",
          "type": "address"
        }
      ],
      "name": "registerXChainEndpoint",
      "outputs": [],
      "stateMutability": "nonpayable",
      "type": "function"
    },
    {
      "inputs": [
        {
          "internalType": "bytes",
          "name": "",
          "type": "bytes"
        }
      ],
      "name": "registeredXChainControllers",
      "outputs": [
        {
          "internalType": "bool",
          "name": "",
          "type": "bool"
        }
      ],
      "stateMutability": "view",
      "type": "function"
    },
    {
      "inputs": [
        {
          "internalType": "address",
          "name": "",
          "type": "address"
        }
      ],
      "name": "registeredXChainEndpoints",
      "outputs": [
        {
          "internalType": "uint8",
          "name": "",
          "type": "uint8"
        }
      ],
      "stateMutability": "view",
      "type": "function"
    },
    {
      "inputs": [],
      "name": "renounceOwnership",
      "outputs": [],
      "stateMutability": "nonpayable",
      "type": "function"
    },
    {
      "inputs": [
        {
          "internalType": "address",
          "name": "_account",
          "type": "address"
        },
        {
          "internalType": "uint256",
          "name": "_netDepositUSDC",
          "type": "uint256"
        },
        {
          "internalType": "bytes",
          "name": "_xChainOrigin",
          "type": "bytes"
        },
        {
          "internalType": "bytes",
          "name": "_xChainSender",
          "type": "bytes"
        }
      ],
      "name": "revertXChainDeposit",
      "outputs": [],
      "stateMutability": "nonpayable",
      "type": "function"
    },
    {
      "inputs": [
        {
          "internalType": "uint256",
          "name": "_chainId",
          "type": "uint256"
        },
        {
          "internalType": "bytes",
          "name": "_destinationContract",
          "type": "bytes"
        },
        {
          "internalType": "bytes",
          "name": "_payload",
          "type": "bytes"
        }
      ],
      "name": "sendXChainDepositRequest",
      "outputs": [],
      "stateMutability": "nonpayable",
      "type": "function"
    },
    {
      "inputs": [
        {
          "internalType": "uint256",
          "name": "_chainId",
          "type": "uint256"
        },
        {
          "internalType": "bytes",
          "name": "_destinationContract",
          "type": "bytes"
        },
        {
          "internalType": "bytes",
          "name": "_payload",
          "type": "bytes"
        }
      ],
      "name": "sendXChainWithdrawalRequest",
      "outputs": [],
      "stateMutability": "nonpayable",
      "type": "function"
    },
    {
      "inputs": [
        {
          "internalType": "uint256",
          "name": "_pid",
          "type": "uint256"
        },
        {
          "internalType": "uint256",
          "name": "_allocPoint",
          "type": "uint256"
        },
        {
          "internalType": "bool",
          "name": "_withUpdate",
          "type": "bool"
        }
      ],
      "name": "set",
      "outputs": [],
      "stateMutability": "nonpayable",
      "type": "function"
    },
    {
      "inputs": [
        {
          "internalType": "uint256",
          "name": "_baseRewardRateBasisPoints",
          "type": "uint256"
        }
      ],
      "name": "setBaseRewardRateBasisPoints",
      "outputs": [],
      "stateMutability": "nonpayable",
      "type": "function"
    },
    {
      "inputs": [
        {
          "internalType": "uint256",
          "name": "_blocksPerDay",
          "type": "uint256"
        }
      ],
      "name": "setBlocksPerDay",
      "outputs": [],
      "stateMutability": "nonpayable",
      "type": "function"
    },
    {
      "inputs": [
        {
          "internalType": "uint256",
          "name": "_chainId",
          "type": "uint256"
        }
      ],
      "name": "setChainId",
      "outputs": [],
      "stateMutability": "nonpayable",
      "type": "function"
    },
    {
      "inputs": [
        {
          "internalType": "uint256",
          "name": "_chainMultiplier",
          "type": "uint256"
        }
      ],
      "name": "setChainMultiplier",
      "outputs": [],
      "stateMutability": "nonpayable",
      "type": "function"
    },
    {
      "inputs": [
        {
          "internalType": "address",
          "name": "_curveStablePoolAddress",
          "type": "address"
        }
      ],
      "name": "setCurveStablePoolAddress",
      "outputs": [],
      "stateMutability": "nonpayable",
      "type": "function"
    },
    {
      "inputs": [
        {
          "internalType": "uint256",
          "name": "_defaultMaxMarketMovement",
          "type": "uint256"
        }
      ],
      "name": "setDefaultMaxMarketMovement",
      "outputs": [],
      "stateMutability": "nonpayable",
      "type": "function"
    },
    {
      "inputs": [
        {
          "internalType": "address",
          "name": "_defaultStablecoin",
          "type": "address"
        }
      ],
      "name": "setDefaultStablecoin",
      "outputs": [],
      "stateMutability": "nonpayable",
      "type": "function"
    },
    {
      "inputs": [
        {
          "internalType": "uint256",
          "name": "_chainId",
          "type": "uint256"
        },
        {
          "internalType": "address",
          "name": "_endpointContract",
          "type": "address"
        }
      ],
      "name": "setEndpointContracts",
      "outputs": [],
      "stateMutability": "nonpayable",
      "type": "function"
    },
    {
      "inputs": [
        {
          "internalType": "address",
          "name": "_homeChainZorroController",
          "type": "address"
        }
      ],
      "name": "setHomeChainZorroController",
      "outputs": [],
      "stateMutability": "nonpayable",
      "type": "function"
    },
    {
      "inputs": [
        {
          "internalType": "bool",
          "name": "_isActive",
          "type": "bool"
        }
      ],
      "name": "setIsTimeMultiplierActive",
      "outputs": [],
      "stateMutability": "nonpayable",
      "type": "function"
    },
    {
      "inputs": [
        {
          "internalType": "address",
          "name": "_lockUSDCController",
          "type": "address"
        }
      ],
      "name": "setLockUSDCController",
      "outputs": [],
      "stateMutability": "nonpayable",
      "type": "function"
    },
    {
      "inputs": [
        {
          "internalType": "address",
          "name": "_priceFeedLPPoolToken",
          "type": "address"
        }
      ],
      "name": "setPriceFeedLPPoolToken0",
      "outputs": [],
      "stateMutability": "nonpayable",
      "type": "function"
    },
    {
      "inputs": [
        {
          "internalType": "address",
          "name": "_priceFeedLPPoolToken",
          "type": "address"
        }
      ],
      "name": "setPriceFeedLPPoolToken1",
      "outputs": [],
      "stateMutability": "nonpayable",
      "type": "function"
    },
    {
      "inputs": [
        {
          "internalType": "address",
          "name": "_publicPoolAddress",
          "type": "address"
        }
      ],
      "name": "setPublicPool",
      "outputs": [],
      "stateMutability": "nonpayable",
      "type": "function"
    },
    {
      "inputs": [
        {
          "internalType": "uint256",
          "name": "_blockNumber",
          "type": "uint256"
        }
      ],
      "name": "setStartBlock",
      "outputs": [],
      "stateMutability": "nonpayable",
      "type": "function"
    },
    {
      "inputs": [
        {
          "internalType": "address",
          "name": "_syntheticStablecoin",
          "type": "address"
        }
      ],
      "name": "setSyntheticStablecoin",
      "outputs": [],
      "stateMutability": "nonpayable",
      "type": "function"
    },
    {
      "inputs": [
        {
          "internalType": "uint256",
          "name": "_targetTVLCaptureBasisPoints",
          "type": "uint256"
        }
      ],
      "name": "setTargetTVLCaptureBasisPoints",
      "outputs": [],
      "stateMutability": "nonpayable",
      "type": "function"
    },
    {
      "inputs": [
        {
          "internalType": "address[]",
          "name": "_path",
          "type": "address[]"
        }
      ],
      "name": "setUSDCToZorroLPPoolToken0Path",
      "outputs": [],
      "stateMutability": "nonpayable",
      "type": "function"
    },
    {
      "inputs": [
        {
          "internalType": "address[]",
          "name": "_path",
          "type": "address[]"
        }
      ],
      "name": "setUSDCToZorroLPPoolToken1Path",
      "outputs": [],
      "stateMutability": "nonpayable",
      "type": "function"
    },
    {
      "inputs": [
        {
          "internalType": "address",
          "name": "_uniV2Router",
          "type": "address"
        }
      ],
      "name": "setUniRouter",
      "outputs": [],
      "stateMutability": "nonpayable",
      "type": "function"
    },
    {
      "inputs": [
        {
          "internalType": "address",
          "name": "_xChainReceivingOracle",
          "type": "address"
        }
      ],
      "name": "setXChainReceivingOracle",
      "outputs": [],
      "stateMutability": "nonpayable",
      "type": "function"
    },
    {
      "inputs": [
        {
          "internalType": "uint256",
          "name": "_value",
          "type": "uint256"
        }
      ],
      "name": "setZORRODailyDistributionFactorBasisPointsMax",
      "outputs": [],
      "stateMutability": "nonpayable",
      "type": "function"
    },
    {
      "inputs": [
        {
          "internalType": "uint256",
          "name": "_value",
          "type": "uint256"
        }
      ],
      "name": "setZORRODailyDistributionFactorBasisPointsMin",
      "outputs": [],
      "stateMutability": "nonpayable",
      "type": "function"
    },
    {
      "inputs": [
        {
          "internalType": "address",
          "name": "_zorroControllerOracle",
          "type": "address"
        }
      ],
      "name": "setZorroControllerOracle",
      "outputs": [],
      "stateMutability": "nonpayable",
      "type": "function"
    },
    {
      "inputs": [
        {
          "internalType": "bytes32",
          "name": "_zorroControllerOracleEmissionsJobId",
          "type": "bytes32"
        }
      ],
      "name": "setZorroControllerOracleEmissionsJobId",
      "outputs": [],
      "stateMutability": "nonpayable",
      "type": "function"
    },
    {
      "inputs": [
        {
          "internalType": "uint256",
          "name": "_zorroControllerOracleFee",
          "type": "uint256"
        }
      ],
      "name": "setZorroControllerOracleFee",
      "outputs": [],
      "stateMutability": "nonpayable",
      "type": "function"
    },
    {
      "inputs": [
        {
          "internalType": "bytes32",
          "name": "_zorroControllerOraclePriceJobId",
          "type": "bytes32"
        }
      ],
      "name": "setZorroControllerOraclePriceJobId",
      "outputs": [],
      "stateMutability": "nonpayable",
      "type": "function"
    },
    {
      "inputs": [
        {
          "internalType": "address",
          "name": "_zorroLPPool",
          "type": "address"
        }
      ],
      "name": "setZorroLPPool",
      "outputs": [],
      "stateMutability": "nonpayable",
      "type": "function"
    },
    {
      "inputs": [
        {
          "internalType": "address",
          "name": "_token0",
          "type": "address"
        }
      ],
      "name": "setZorroLPPoolToken0",
      "outputs": [],
      "stateMutability": "nonpayable",
      "type": "function"
    },
    {
      "inputs": [
        {
          "internalType": "address",
          "name": "_token1",
          "type": "address"
        }
      ],
      "name": "setZorroLPPoolToken1",
      "outputs": [],
      "stateMutability": "nonpayable",
      "type": "function"
    },
    {
      "inputs": [
        {
          "internalType": "uint256",
          "name": "_totalChainMultipliers",
          "type": "uint256"
        },
        {
          "internalType": "uint256",
          "name": "_totalMarketTVLUSD",
          "type": "uint256"
        },
        {
          "internalType": "uint256",
          "name": "_targetTVLCaptureBasisPoints",
          "type": "uint256"
        },
        {
          "internalType": "uint256",
          "name": "_ZorroTotalVaultTVLUSD",
          "type": "uint256"
        },
        {
          "internalType": "uint256",
          "name": "_publicPoolZORBalance",
          "type": "uint256"
        }
      ],
      "name": "setZorroPerBlock",
      "outputs": [],
      "stateMutability": "nonpayable",
      "type": "function"
    },
    {
      "inputs": [
        {
          "internalType": "address",
          "name": "_zorroStakingVault",
          "type": "address"
        }
      ],
      "name": "setZorroStakingVault",
      "outputs": [],
      "stateMutability": "nonpayable",
      "type": "function"
    },
    {
      "inputs": [
        {
          "internalType": "uint256",
          "name": "_pid",
          "type": "uint256"
        },
        {
          "internalType": "address",
          "name": "_user",
          "type": "address"
        }
      ],
      "name": "stakedWantTokens",
      "outputs": [
        {
          "internalType": "uint256",
          "name": "",
          "type": "uint256"
        }
      ],
      "stateMutability": "view",
      "type": "function"
    },
    {
      "inputs": [],
      "name": "startBlock",
      "outputs": [
        {
          "internalType": "uint256",
          "name": "",
          "type": "uint256"
        }
      ],
      "stateMutability": "view",
      "type": "function"
    },
    {
      "inputs": [],
      "name": "syntheticStablecoin",
      "outputs": [
        {
          "internalType": "address",
          "name": "",
          "type": "address"
        }
      ],
      "stateMutability": "view",
      "type": "function"
    },
    {
      "inputs": [],
      "name": "targetTVLCaptureBasisPoints",
      "outputs": [
        {
          "internalType": "uint256",
          "name": "",
          "type": "uint256"
        }
      ],
      "stateMutability": "view",
      "type": "function"
    },
    {
      "inputs": [],
      "name": "totalAllocPoint",
      "outputs": [
        {
          "internalType": "uint256",
          "name": "",
          "type": "uint256"
        }
      ],
      "stateMutability": "view",
      "type": "function"
    },
    {
      "inputs": [
        {
          "internalType": "uint256",
          "name": "",
          "type": "uint256"
        },
        {
          "internalType": "address",
          "name": "",
          "type": "address"
        },
        {
          "internalType": "uint256",
          "name": "",
          "type": "uint256"
        }
      ],
      "name": "trancheInfo",
      "outputs": [
        {
          "internalType": "uint256",
          "name": "contribution",
          "type": "uint256"
        },
        {
          "internalType": "uint256",
          "name": "timeMultiplier",
          "type": "uint256"
        },
        {
          "internalType": "uint256",
          "name": "rewardDebt",
          "type": "uint256"
        },
        {
          "internalType": "uint256",
          "name": "durationCommittedInWeeks",
          "type": "uint256"
        },
        {
          "internalType": "uint256",
          "name": "enteredVaultAt",
          "type": "uint256"
        },
        {
          "internalType": "uint256",
          "name": "exitedVaultStartingAt",
          "type": "uint256"
        }
      ],
      "stateMutability": "view",
      "type": "function"
    },
    {
      "inputs": [
        {
          "internalType": "uint256",
          "name": "_pid",
          "type": "uint256"
        },
        {
          "internalType": "address",
          "name": "_user",
          "type": "address"
        }
      ],
      "name": "trancheLength",
      "outputs": [
        {
          "internalType": "uint256",
          "name": "",
          "type": "uint256"
        }
      ],
      "stateMutability": "view",
      "type": "function"
    },
    {
      "inputs": [
        {
          "internalType": "uint256",
          "name": "_fromPid",
          "type": "uint256"
        },
        {
          "internalType": "uint256",
          "name": "_fromTrancheId",
          "type": "uint256"
        },
        {
          "internalType": "uint256",
          "name": "_toPid",
          "type": "uint256"
        },
        {
          "internalType": "uint256",
          "name": "_maxMarketMovement",
          "type": "uint256"
        },
        {
          "components": [
            {
              "internalType": "uint256",
              "name": "token0",
              "type": "uint256"
            },
            {
              "internalType": "uint256",
              "name": "token1",
              "type": "uint256"
            },
            {
              "internalType": "uint256",
              "name": "earnToken",
              "type": "uint256"
            },
            {
              "internalType": "uint256",
              "name": "lpPoolToken0",
              "type": "uint256"
            },
            {
              "internalType": "uint256",
              "name": "lpPoolToken1",
              "type": "uint256"
            },
            {
              "internalType": "uint256",
              "name": "zorroToken",
              "type": "uint256"
            },
            {
              "internalType": "uint256",
              "name": "tokenUSDC",
              "type": "uint256"
            }
          ],
          "internalType": "struct PriceData",
          "name": "_priceData",
          "type": "tuple"
        }
      ],
      "name": "transferInvestment",
      "outputs": [],
      "stateMutability": "nonpayable",
      "type": "function"
    },
    {
      "inputs": [
        {
          "internalType": "address",
          "name": "newOwner",
          "type": "address"
        }
      ],
      "name": "transferOwnership",
      "outputs": [],
      "stateMutability": "nonpayable",
      "type": "function"
    },
    {
      "inputs": [
        {
          "internalType": "bytes",
          "name": "_contract",
          "type": "bytes"
        }
      ],
      "name": "unRegisterXChainController",
      "outputs": [],
      "stateMutability": "nonpayable",
      "type": "function"
    },
    {
      "inputs": [
        {
          "internalType": "address",
          "name": "_contract",
          "type": "address"
        }
      ],
      "name": "unRegisterXChainEndpoint",
      "outputs": [],
      "stateMutability": "nonpayable",
      "type": "function"
    },
    {
      "inputs": [],
      "name": "uniRouterAddress",
      "outputs": [
        {
          "internalType": "address",
          "name": "",
          "type": "address"
        }
      ],
      "stateMutability": "view",
      "type": "function"
    },
    {
      "inputs": [
        {
          "internalType": "uint256",
          "name": "_pid",
          "type": "uint256"
        }
      ],
      "name": "updatePool",
      "outputs": [],
      "stateMutability": "nonpayable",
      "type": "function"
    },
    {
      "inputs": [
        {
          "internalType": "uint256",
          "name": "_pid",
          "type": "uint256"
        },
        {
          "internalType": "uint256",
          "name": "_trancheId",
          "type": "uint256"
        },
        {
          "internalType": "bool",
          "name": "_harvestOnly",
          "type": "bool"
        }
      ],
      "name": "withdraw",
      "outputs": [
        {
          "internalType": "uint256",
          "name": "",
          "type": "uint256"
        }
      ],
      "stateMutability": "nonpayable",
      "type": "function"
    },
    {
      "inputs": [
        {
          "internalType": "uint256",
          "name": "_pid",
          "type": "uint256"
        }
      ],
      "name": "withdrawAll",
      "outputs": [],
      "stateMutability": "nonpayable",
      "type": "function"
    },
    {
      "inputs": [
        {
          "internalType": "uint256",
          "name": "_pid",
          "type": "uint256"
        },
        {
          "internalType": "uint256",
          "name": "_trancheId",
          "type": "uint256"
        },
        {
          "internalType": "bool",
          "name": "_harvestOnly",
          "type": "bool"
        },
        {
          "internalType": "uint256",
          "name": "_maxMarketMovement",
          "type": "uint256"
        },
        {
          "components": [
            {
              "internalType": "uint256",
              "name": "token0",
              "type": "uint256"
            },
            {
              "internalType": "uint256",
              "name": "token1",
              "type": "uint256"
            },
            {
              "internalType": "uint256",
              "name": "earnToken",
              "type": "uint256"
            },
            {
              "internalType": "uint256",
              "name": "lpPoolToken0",
              "type": "uint256"
            },
            {
              "internalType": "uint256",
              "name": "lpPoolToken1",
              "type": "uint256"
            },
            {
              "internalType": "uint256",
              "name": "zorroToken",
              "type": "uint256"
            },
            {
              "internalType": "uint256",
              "name": "tokenUSDC",
              "type": "uint256"
            }
          ],
          "internalType": "struct PriceData",
          "name": "_priceData",
          "type": "tuple"
        }
      ],
      "name": "withdrawalFullService",
      "outputs": [
        {
          "internalType": "uint256",
          "name": "",
          "type": "uint256"
        }
      ],
      "stateMutability": "nonpayable",
      "type": "function"
    },
    {
      "inputs": [],
      "name": "xChainReceivingOracle",
      "outputs": [
        {
          "internalType": "address",
          "name": "",
          "type": "address"
        }
      ],
      "stateMutability": "view",
      "type": "function"
    },
    {
      "inputs": [],
      "name": "zorroControllerOracle",
      "outputs": [
        {
          "internalType": "address",
          "name": "",
          "type": "address"
        }
      ],
      "stateMutability": "view",
      "type": "function"
    },
    {
      "inputs": [],
      "name": "zorroControllerOracleEmissionsJobId",
      "outputs": [
        {
          "internalType": "bytes32",
          "name": "",
          "type": "bytes32"
        }
      ],
      "stateMutability": "view",
      "type": "function"
    },
    {
      "inputs": [],
      "name": "zorroControllerOracleFee",
      "outputs": [
        {
          "internalType": "uint256",
          "name": "",
          "type": "uint256"
        }
      ],
      "stateMutability": "view",
      "type": "function"
    },
    {
      "inputs": [],
      "name": "zorroControllerOraclePriceJobId",
      "outputs": [
        {
          "internalType": "bytes32",
          "name": "",
          "type": "bytes32"
        }
      ],
      "stateMutability": "view",
      "type": "function"
    },
    {
      "inputs": [],
      "name": "zorroLPPool",
      "outputs": [
        {
          "internalType": "address",
          "name": "",
          "type": "address"
        }
      ],
      "stateMutability": "view",
      "type": "function"
    },
    {
      "inputs": [],
      "name": "zorroLPPoolToken0",
      "outputs": [
        {
          "internalType": "address",
          "name": "",
          "type": "address"
        }
      ],
      "stateMutability": "view",
      "type": "function"
    },
    {
      "inputs": [],
      "name": "zorroLPPoolToken1",
      "outputs": [
        {
          "internalType": "address",
          "name": "",
          "type": "address"
        }
      ],
      "stateMutability": "view",
      "type": "function"
    },
    {
      "inputs": [],
      "name": "zorroStakingVault",
      "outputs": [
        {
          "internalType": "address",
          "name": "",
          "type": "address"
        }
      ],
      "stateMutability": "view",
      "type": "function"
    }
  ],
  "bytecode": "0x608060405260038054600160a060020a03191661dead179055617080600655600160098190556014600a908155600b829055600c805460ff199081168417909155600d919091556103ca601955601d805490911690556000602e556034553480156200006a57600080fd5b5060405162006c4438038062006c448339810160408190526200008d91620006f3565b620000b3620000a4640100000000620003c3810204565b640100000000620003c7810204565b60018055620000cb8a64010000000062000417810204565b4260055560048054600160a060020a031916600160a060020a038b161790558751889060009062000100576200010062000815565b6020026020010151600e60006101000a815481600160a060020a030219169083600160a060020a031602179055508760018151811062000144576200014462000815565b6020908102919091010151600f8054600160a060020a0319908116600160a060020a0393841617909155602180549091168983161790558616620001e9576040517f08c379a000000000000000000000000000000000000000000000000000000000815260206004820152601060248201527f63616e6e6f74206265203020616464720000000000000000000000000000000060448201526064015b60405180910390fd5b601b8054600160a060020a031916600160a060020a038816179055845185906000906200021a576200021a62000815565b6020026020010151601260006101000a815481600160a060020a030219169083600160a060020a03160217905550846001815181106200025e576200025e62000815565b6020026020010151601360006101000a815481600160a060020a030219169083600160a060020a0316021790555084600281518110620002a257620002a262000815565b6020026020010151601460006101000a815481600160a060020a030219169083600160a060020a0316021790555083601c8190555082600081518110620002ed57620002ed62000815565b6020026020010151602660006101000a815481600160a060020a030219169083600160a060020a031602179055508260018151811062000331576200033162000815565b602090810291909101015160278054600160a060020a0319908116600160a060020a0393841617909155602880549091169184169190911790558051819060009062000381576200038162000815565b6020026020010151602a8190555080600181518110620003a557620003a562000815565b6020026020010151602b819055505050505050505050505062000844565b3390565b60008054600160a060020a03838116600160a060020a0319831681178455604051919092169283917f8be0079c531659141344cd1fd0a4f28419497f9722a3daafe3b4186f6b6457e09190a35050565b6200042a640100000000620003c3810204565b600160a060020a03166200044664010000000062000567810204565b600160a060020a031614620004b8576040517f08c379a000000000000000000000000000000000000000000000000000000000815260206004820181905260248201527f4f776e61626c653a2063616c6c6572206973206e6f7420746865206f776e65726044820152606401620001e0565b600160a060020a03811662000550576040517f08c379a000000000000000000000000000000000000000000000000000000000815260206004820152602660248201527f4f776e61626c653a206e6577206f776e657220697320746865207a65726f206160448201527f64647265737300000000000000000000000000000000000000000000000000006064820152608401620001e0565b6200056481640100000000620003c7810204565b50565b600054600160a060020a031690565b8051600160a060020a03811681146200058e57600080fd5b919050565b7f4e487b7100000000000000000000000000000000000000000000000000000000600052604160045260246000fd5b604051601f8201601f191681016001604060020a0381118282101715620005ed57620005ed62000593565b604052919050565b60006001604060020a0382111562000611576200061162000593565b5060209081020190565b600082601f8301126200062d57600080fd5b81516020620006466200064083620005f5565b620005c2565b828152918102840181019181810190868411156200066357600080fd5b8286015b8481101562000689576200067b8162000576565b835291830191830162000667565b509695505050505050565b600082601f830112620006a657600080fd5b81516020620006b96200064083620005f5565b82815291810284018101918181019086841115620006d657600080fd5b8286015b84811015620006895780518352918301918301620006da565b6000806000806000806000806000806101408b8d0312156200071457600080fd5b6200071f8b62000576565b99506200072f60208c0162000576565b985060408b01516001604060020a03808211156200074c57600080fd5b6200075a8e838f016200061b565b99506200076a60608e0162000576565b98506200077a60808e0162000576565b975060a08d01519150808211156200079157600080fd5b6200079f8e838f016200061b565b965060c08d0151955060e08d0151915080821115620007bd57600080fd5b620007cb8e838f016200061b565b9450620007dc6101008e0162000576565b93506101208d0151915080821115620007f457600080fd5b50620008038d828e0162000694565b9150509295989b9194979a5092959850565b7f4e487b7100000000000000000000000000000000000000000000000000000000600052603260045260246000fd5b6163f080620008546000396000f3fe608060405234801561001057600080fd5b50600436106106f95760003560e060020a9004806381ea795d11610396578063bf9caa80116101ed578063e31703091161011e578063ef0e2ff4116100bc578063f2fde38b1161008b578063f2fde38b14610fa4578063f35e4a6e14610fb7578063fa88fe7b14610fca578063fc39a29e14610fdd57600080fd5b8063ef0e2ff414610f5e578063ef12696714610f71578063ef190fec14610f7e578063f2d0caa914610f9157600080fd5b8063ec54e4a4116100f8578063ec54e4a414610f18578063ed148bf314610f25578063edf9f8f514610f38578063ee4e268714610f4b57600080fd5b8063e317030914610edf578063ea07667a14610ef2578063eb75668114610f0557600080fd5b8063c8d9bc941161018b578063d7f33a8211610165578063d7f33a8214610e9d578063d85c554814610eb0578063ddd88fec14610eb9578063e2ae075014610ecc57600080fd5b8063c8d9bc9414610e6e578063cb9c2f6814610e81578063ce9e292814610e8a57600080fd5b8063c29de0d2116101c7578063c29de0d214610dee578063c4f79c2314610e35578063c524a05614610e48578063c6d758cb14610e5b57600080fd5b8063bf9caa8014610dbf578063c27893ef14610dd2578063c293614214610de557600080fd5b80639cde7a00116102c7578063a89802d311610265578063b4b4e9eb1161023f578063b4b4e9eb14610d46578063b614bdba14610d86578063b61bb80a14610d99578063b961b9b414610dac57600080fd5b8063a89802d314610cf2578063a9418d6714610d20578063b0b62c8414610d3357600080fd5b8063a4bce4ef116102a1578063a4bce4ef14610aa2578063a4d2b08314610cb9578063a77f62c914610ccc578063a80bee0714610cdf57600080fd5b80639cde7a0014610c8a5780639cebd37114610c9d578063a00c807c14610ca657600080fd5b8063941d3fd011610334578063958e2d311161030e578063958e2d3114610c52578063982b7d6a14610c655780639a8a059214610c785780639b8ad2d614610c8157600080fd5b8063941d3fd014610c1f57806394909cc214610c2c5780639568786c14610c3f57600080fd5b80638b2bc852116103705780638b2bc85214610bd55780638c157db214610be85780638da5cb5b14610bfb578063931ddf6914610c0c57600080fd5b806381ea795d14610b9c578063823c43d014610baf578063871869ca14610bc257600080fd5b80635051d37111610555578063693a090b1161048657806370367c011161042457806376cc2303116103f357806376cc230314610b385780637b84daec14610b415780637bf604d814610b545780637e49b84014610b6757600080fd5b806370367c0114610af757806370d5ae0514610b0a578063715018a614610b1d57806372b2355614610b2557600080fd5b80636b8eb2e5116104605780636b8eb2e514610ab55780636b908e5714610ac85780636c78d49c14610ad15780636ca8bd6514610ae457600080fd5b8063693a090b14610a7c5780636985b93414610a8f578063699c661e14610aa257600080fd5b8063630b5ba1116104f3578063668ababb116104cd578063668ababb14610a3a578063683dc6f514610a4d57806368ce004b14610a6057806368d2b26014610a7357600080fd5b8063630b5ba1146109e257806364482f79146109ea57806365bc77bc146109fd57600080fd5b806353f73f871161052f57806353f73f87146109a05780635527a6f9146109b35780635f70edcf146109bc5780636179ecd1146109cf57600080fd5b80635051d3711461097157806351eb05a614610984578063524277721461099757600080fd5b8063310971fa1161062f5780633b9ce565116105cd578063416d0de7116105a7578063416d0de71461093957806348cd4cb11461094c57806348d57c8e146109555780634cfea68a1461096857600080fd5b80633b9ce5651461090a5780633bbc1ffc146109135780634098b0eb1461092657600080fd5b8063375414641161060957806337541464146108a75780633968ed48146108db5780633b35b727146108ee5780633b7106881461090157600080fd5b8063310971fa1461086e57806333cfcd3b14610881578063353b6c2c1461089457600080fd5b80631479a6df1161069c5780631ca95f94116106765780631ca95f941461080c578063212b31a21461083557806326fc7c7d146108485780632c4599fb1461085b57600080fd5b80631479a6df146107a15780631526fe27146107b457806317caf6f11461080357600080fd5b8063081e3eda116106d8578063081e3eda146107565780630861429a146107685780630fce3fac1461077b578063104a61321461078e57600080fd5b8062aeef8a146106fe578063025b10451461071357806304463bc314610743575b600080fd5b61071161070c366004615513565b610ff0565b005b60255461072690600160a060020a031681565b604051600160a060020a0390911681526020015b60405180910390f35b61071161075136600461560e565b61109c565b602c545b60405190815260200161073a565b61075a6107763660046156be565b61114d565b610711610789366004615700565b6112d7565b61072661079c36600461574b565b611438565b6107116107af36600461574b565b611462565b6107c76107c236600461574b565b611494565b60408051600160a060020a03978816815260208101969096528501939093526060840191909152608083015290911660a082015260c00161073a565b61075a602e5481565b61072661081a36600461574b565b601e60205260009081526040902054600160a060020a031681565b6107116108433660046157ad565b6114e7565b610711610856366004615824565b611628565b61071161086936600461574b565b611677565b61071161087c366004615841565b6116a9565b61075a61088f3660046158ec565b61191a565b6107116108a236600461574b565b61199c565b6011546108c8907001000000000000000000000000000000009004600f0b81565b604051600f9190910b815260200161073a565b6107116108e9366004615925565b6119ce565b6107116108fc36600461574b565b611c59565b61075a600d5481565b61075a600a5481565b61071161092136600461574b565b611c8b565b61071161093436600461574b565b611cbd565b600f5461072690600160a060020a031681565b61075a60055481565b60215461072690600160a060020a031681565b61075a60065481565b61071161097f366004615824565b611cef565b61071161099236600461574b565b611d3e565b61075a602b5481565b61075a6109ae3660046156be565b611ea4565b61075a60095481565b6107116109ca3660046159e3565b611ecc565b6107116109dd36600461574b565b612086565b6107116120b8565b6107116109f83660046158ec565b612145565b610a2a610a0b366004615a36565b8051602081830181018051828252928201919093012091525460ff1681565b604051901515815260200161073a565b60045461072690600160a060020a031681565b610711610a5b366004615824565b6121f1565b610711610a6e366004615a6b565b612240565b61075a602a5481565b60155461072690600160a060020a031681565b610711610a9d36600461574b565b612280565b610711610ab0366004615b1c565b61233a565b610711610ac3366004615b96565b61236b565b61075a60295481565b610711610adf366004615bd1565b61246a565b610711610af2366004615824565b6124aa565b610711610b05366004615bee565b6124f9565b60035461072690600160a060020a031681565b610711612610565b610711610b33366004615824565b612649565b61075a60245481565b61075a610b4f3660046156be565b612698565b60125461072690600160a060020a031681565b610b8a610b75366004615824565b601f6020526000908152604090205460ff1681565b60405160ff909116815260200161073a565b610711610baa366004615a36565b6128b4565b60285461072690600160a060020a031681565b610711610bd0366004615a36565b612916565b60145461072690600160a060020a031681565b60025461072690600160a060020a031681565b600054600160a060020a0316610726565b610711610c1a366004615c77565b612955565b600c54610a2a9060ff1681565b610711610c3a366004615824565b612abe565b61075a610c4d36600461574b565b612b0d565b610711610c6036600461574b565b612be0565b610711610c73366004615cf7565b612c4a565b61075a601c5481565b61075a60195481565b610726610c9836600461574b565b612cca565b61075a600b5481565b610711610cb4366004615a6b565b612cda565b601a5461072690600160a060020a031681565b610711610cda36600461574b565b612d1a565b61075a610ced366004615d5f565b612d4c565b610b8a610d00366004615d5f565b602260209081526000928352604080842090915290825290205460ff1681565b610711610d2e366004615824565b612d68565b61075a610d41366004615d81565b612e10565b610d59610d54366004615dc9565b612e75565b604080519687526020870195909552938501929092526060840152608083015260a082015260c00161073a565b610726610d9436600461574b565b612ed6565b600e5461072690600160a060020a031681565b610711610dba36600461574b565b612ee6565b610711610dcd366004615824565b612f18565b60105461072690600160a060020a031681565b61075a60075481565b610e20610dfc3660046156be565b602f6020908152600092835260408084209091529082529020805460019091015482565b6040805192835260208301919091520161073a565b610711610e433660046156be565b612f67565b610711610e56366004615824565b612fc2565b610711610e69366004615e01565b613011565b610711610e7c366004615513565b6130d9565b61075a60085481565b610711610e98366004615824565b613164565b610711610eab366004615824565b6131b3565b61075a60235481565b610711610ec7366004615824565b613204565b610711610eda366004615bee565b613253565b610711610eed366004615c77565b61339f565b610711610f0036600461574b565b6134b9565b610711610f13366004615700565b6134eb565b6011546108c890600f0b81565b60135461072690600160a060020a031681565b610711610f46366004615824565b613591565b610711610f59366004615824565b6135e0565b610711610f6c36600461574b565b61362f565b601d54610b8a9060ff1681565b610711610f8c366004615824565b613661565b610711610f9f366004615824565b6136b0565b610711610fb2366004615824565b6136fe565b610711610fc536600461574b565b6137b6565b610711610fd8366004615824565b6137e8565b601b5461072690600160a060020a031681565b6002600154141561101f5760405160e560020a62461bcd02815260040161101690615e2d565b60405180910390fd5b60026001819055506000602c848154811061103c5761103c615e64565b60009182526020909120600690910201805490915061106590600160a060020a03163085613837565b6005810154815461108591600160a060020a039182169133911686613963565b61109284338585426139b4565b5050600180555050565b336000908152601f602052604090205460ff166110ce5760405160e560020a62461bcd02815260040161101690615e7d565b600260015414156110f45760405160e560020a62461bcd02815260040161101690615e2d565b6002600155604051819060209061110c908390615ee0565b9081526040519081900360200190205460ff1661113e5760405160e560020a62461bcd02815260040161101690615efc565b50506001805550505050505050565b600080602c848154811061116357611163615e64565b9060005260206000209060060201905060008160030154905081600201544311156111eb5760006111a1836002015443613c9890919063ffffffff16565b90506000600754905060006111d9602e546111d387600101546111cd8688613ca490919063ffffffff16565b90613ca4565b90613cb0565b90506111e58482613cbc565b93505050505b60048201546111ff576000925050506112d1565b600061120b8686611ea4565b90506000805b828110156112ca576000888152602d60209081526040808320600160a060020a038b168452909152812080548390811061124d5761124d615e64565b90600052602060002090600602019050600061128187600401546111d3620f42408560000154613ca490919063ffffffff16565b90506112b56112ae83600201546112a8620f42406111d38b87613ca490919063ffffffff16565b90613c98565b8590613cbc565b93505050806112c390615f4c565b9050611211565b5093505050505b92915050565b600260015414156112fd5760405160e560020a62461bcd02815260040161101690615e2d565b60026001556000858152602d60209081526040808320338452909152812080548690811061132d5761132d615e64565b6000918252602080832060036006909302019190910154888352602d825260408084203385529092529082208054919350908790811061136f5761136f615e64565b9060005260206000209060060201600401549050600061139433898960018989613cc8565b90506060600e60009054906101000a9004600160a060020a0316816000815181106113c1576113c1615e64565b6020026020010190600160a060020a03169081600160a060020a0316815250506113f087338487878b8b613e2e565b604051338152879089908b907f67e7aba7263d8fbeb0cd9a2f4008f060a6a03f46c1d7f9d0550f0b93e96e96f89060200160405180910390a450506001805550505050505050565b6018818154811061144857600080fd5b600091825260209091200154600160a060020a0316905081565b600054600160a060020a0316331461148f5760405160e560020a62461bcd02815260040161101690615f67565b600955565b602c81815481106114a457600080fd5b6000918252602090912060069091020180546001820154600283015460038401546004850154600590950154600160a060020a0394851696509294919390921686565b602854600160a060020a031633600160a060020a03161461154d5760405160e560020a62461bcd02815260206004820152601160248201527f6f6e6c79205a6f72726f206f7261636c650000000000000000000000000000006044820152606401611016565b60006115658361155f86818a8a613cbc565b90613cbc565b600e5460405160e060020a6370a08231028152306004820152919250600091600160a060020a03909116906370a0823190602401602060405180830381865afa1580156115b6573d6000803e3d6000fd5b505050506040513d601f19601f820116820180604052508101906115da9190615f9c565b905060006115f6836111d36115ef8b8a613cbc565b8590613ca4565b90506116028185613f10565b600061160e8383613c98565b905061161a8186614406565b505050505050505050505050565b600054600160a060020a031633146116555760405160e560020a62461bcd02815260040161101690615f67565b60218054600160a060020a031916600160a060020a0392909216919091179055565b600054600160a060020a031633146116a45760405160e560020a62461bcd02815260040161101690615f67565b602a55565b336000908152601f602052604090205460ff166116db5760405160e560020a62461bcd02815260040161101690615e7d565b806020816040516116ec9190615ee0565b9081526040519081900360200190205460ff1661171e5760405160e560020a62461bcd02815260040161101690615efc565b6000868152602d60209081526040808320600160a060020a038c168452909152812080548790811061175257611752615e64565b600091825260208083206040805160c08101825260069094029091018054845260018101549284019290925260028201549083015260038101546060830152600481015460808301526005015460a08201819052909250611831576021546040517f12e382b4000000000000000000000000000000000000000000000000000000008152600160a060020a038c8116600483015260248201849052909116906312e382b490604401600060405180830381600087803b15801561181457600080fd5b505af1158015611828573d6000803e3d6000fd5b505050506118bb565b6021546040517fb86247d7000000000000000000000000000000000000000000000000000000008152600160a060020a038c811660048301529091169063b86247d790602401602060405180830381865afa158015611894573d6000803e3d6000fd5b505050506040513d601f19601f820116820180604052508101906118b89190615f9c565b90505b6000811161190e5760405160e560020a62461bcd02815260206004820152601360248201527f4e6f7468696e6720746f207769746864726177000000000000000000000000006044820152606401611016565b50505050505050505050565b6000600260015414156119425760405160e560020a62461bcd02815260040161101690615e2d565b60026001556000611955853386866144c3565b90506119903382602c888154811061196f5761196f615e64565b6000918252602090912060069091020154600160a060020a031691906148a2565b60018055949350505050565b600054600160a060020a031633146119c95760405160e560020a62461bcd02815260040161101690615f67565b600655565b336000908152601f602052604090205460ff16611a005760405160e560020a62461bcd02815260040161101690615e7d565b80602081604051611a119190615ee0565b9081526040519081900360200190205460ff16611a435760405160e560020a62461bcd02815260040161101690615efc565b6000611a5c602a543063212b31a260e060020a026148f0565b9050611ac26040518060400160405280600781526020017f636861696e4964000000000000000000000000000000000000000000000000008152508c604051602001611aaa91815260200190565b60408051601f19818403018152919052839190614915565b611b0e6040518060400160405280601081526020017f63616c6c6261636b436f6e7472616374000000000000000000000000000000008152508b8b604051602001611aaa929190615fb5565b611b5a6040518060400160405280601181526020017f616d6f756e74555344434275796261636b00000000000000000000000000000081525089604051602001611aaa91815260200190565b611ba66040518060400160405280601281526020017f616d6f756e74555344435265765368617265000000000000000000000000000081525088604051602001611aaa91815260200190565b611bf26040518060400160405280601781526020017f6661696c6564416d6f756e74555344434275796261636b00000000000000000081525087604051602001611aaa91815260200190565b611c3e6040518060400160405280601881526020017f6661696c6564416d6f756e74555344435265765368617265000000000000000081525086604051602001611aaa91815260200190565b60285460295461161a91600160a060020a0316908390614933565b600054600160a060020a03163314611c865760405160e560020a62461bcd02815260040161101690615f67565b600a55565b600054600160a060020a03163314611cb85760405160e560020a62461bcd02815260040161101690615f67565b600855565b600054600160a060020a03163314611cea5760405160e560020a62461bcd02815260040161101690615f67565b600d55565b600054600160a060020a03163314611d1c5760405160e560020a62461bcd02815260040161101690615f67565b60288054600160a060020a031916600160a060020a0392909216919091179055565b6000602c8281548110611d5357611d53615e64565b9060005260206000209060060201905080600201544311611d72575050565b6000611d8b826002015443613c9890919063ffffffff16565b905060008111611d9a57505050565b6000611dbf602e546111d385600101546111cd60075487613ca490919063ffffffff16565b601b54909150600160a060020a0316301415611e1257600454600254611df391600160a060020a0391821691163084613963565b6003830154611e029082613cbc565b6003840155436002840155611e9e565b6002546040517f40c10f1900000000000000000000000000000000000000000000000000000000815230600482015260248101839052600160a060020a03909116906340c10f1990604401600060405180830381600087803b158015611e7757600080fd5b505af1158015611e8b573d6000803e3d6000fd5b5050601d5460ff166000525050601e6020525b50505050565b6000918252602d60209081526040808420600160a060020a0393909316845291905290205490565b600054600160a060020a03163314611ef95760405160e560020a62461bcd02815260040161101690615f67565b8115611f0757611f076120b8565b60006005544311611f1a57600554611f1c565b435b602e54909150611f2c9086613cbc565b602e556040805160c081018252600160a060020a039586168152602081019687529081019182526000606082018181526080830182815294871660a08401908152602c80546001810182559352925160069092027f7416c943b4a09859521022fd2e90eac0dd9026dad28fa317782a135f28a8609181018054938916600160a060020a031994851617905597517f7416c943b4a09859521022fd2e90eac0dd9026dad28fa317782a135f28a8609289015592517f7416c943b4a09859521022fd2e90eac0dd9026dad28fa317782a135f28a8609388015591517f7416c943b4a09859521022fd2e90eac0dd9026dad28fa317782a135f28a8609487015591517f7416c943b4a09859521022fd2e90eac0dd9026dad28fa317782a135f28a8609586015590517f7416c943b4a09859521022fd2e90eac0dd9026dad28fa317782a135f28a86096909401805494909316931692909217905550565b600054600160a060020a031633146120b35760405160e560020a62461bcd02815260040161101690615f67565b601955565b602c5460005b81811015612141576040517f51eb05a60000000000000000000000000000000000000000000000000000000081526004810182905230906351eb05a690602401600060405180830381600087803b15801561211857600080fd5b505af115801561212c573d6000803e3d6000fd5b505050508061213a90615f4c565b90506120be565b5050565b600054600160a060020a031633146121725760405160e560020a62461bcd02815260040161101690615f67565b8015612180576121806120b8565b6121bd8261155f602c868154811061219a5761219a615e64565b906000526020600020906006020160010154602e54613c9890919063ffffffff16565b602e8190555081602c84815481106121d7576121d7615e64565b906000526020600020906006020160010181905550505050565b600054600160a060020a0316331461221e5760405160e560020a62461bcd02815260040161101690615f67565b60258054600160a060020a031916600160a060020a0392909216919091179055565b600054600160a060020a0316331461226d5760405160e560020a62461bcd02815260040161101690615f67565b805161214190601690602084019061545e565b336000908152601f602052604090205460ff166122b25760405160e560020a62461bcd02815260040161101690615e7d565b600254600480546040517f9dc29fac000000000000000000000000000000000000000000000000000000008152600160a060020a03918216928101929092526024820184905290911690639dc29fac90604401600060405180830381600087803b15801561231f57600080fd5b505af1158015612333573d6000803e3d6000fd5b5050505050565b600260015414156123605760405160e560020a62461bcd02815260040161101690615e2d565b505060018055505050565b602854600160a060020a031633600160a060020a0316146123d15760405160e560020a62461bcd02815260206004820152601160248201527f6f6e6c79205a6f72726f206f7261636c650000000000000000000000000000006044820152606401611016565b60006123f3836111d36123e687612710613cb0565b600d546111cd908a613ca4565b9050600a548111156124085750600a54612417565b60095481101561241757506009545b60006124296127106111d38585613ca4565b90506000612446886111d384600b54613ca490919063ffffffff16565b905061245d60065482613cb090919063ffffffff16565b6007555050505050505050565b600054600160a060020a031633146124975760405160e560020a62461bcd02815260040161101690615f67565b600c805460ff1916911515919091179055565b600054600160a060020a031633146124d75760405160e560020a62461bcd02815260040161101690615f67565b601a8054600160a060020a031916600160a060020a0392909216919091179055565b336000908152601f602052604090205460ff1661252b5760405160e560020a62461bcd02815260040161101690615e7d565b602554604051600160a060020a039091166c010000000000000000000000000260208201528290603401604051602081830303815290604052805190602001208180519060200120146125c35760405160e560020a62461bcd02815260206004820152601360248201527f556e7265636f672072637667206f7261636c65000000000000000000000000006044820152606401611016565b60008781526022602090815260408083208984529091529020805460ff191660031790556023546125f49086613cbc565b6023556024546126049085613cbc565b60245550505050505050565b600054600160a060020a0316331461263d5760405160e560020a62461bcd02815260040161101690615f67565b61264760006149f4565b565b600054600160a060020a031633146126765760405160e560020a62461bcd02815260040161101690615f67565b60268054600160a060020a031916600160a060020a0392909216919091179055565b600080602c84815481106126ae576126ae615e64565b9060005260206000209060060201905060008160050160009054906101000a9004600160a060020a0316600160a060020a03166344a3955e6040518163ffffffff1660e060020a028152600401602060405180830381865afa158015612718573d6000803e3d6000fd5b505050506040513d601f19601f8201168201806040525081019061273c9190615f9c565b90506000602c868154811061275357612753615e64565b600091825260209182902060056006909202010154604080517f42da4eb30000000000000000000000000000000000000000000000000000000081529051600160a060020a03909216926342da4eb3926004808401938290030181865afa1580156127c2573d6000803e3d6000fd5b505050506040513d601f19601f820116820180604052508101906127e69190615f9c565b9050816127f957600093505050506112d1565b60006128058787611ea4565b90506000805b828110156128a8576000898152602d60209081526040808320600160a060020a038c168452909152812080548390811061284757612847615e64565b90600052602060002090600602019050600061287b82600101546111d3620f42408560000154613ca490919063ffffffff16565b90506128936112ae886111d3620f424081868c613ca4565b93505050806128a190615f4c565b905061280b565b50979650505050505050565b600054600160a060020a031633146128e15760405160e560020a62461bcd02815260040161101690615f67565b60016020826040516128f39190615ee0565b908152604051908190036020019020805491151560ff1990921691909117905550565b600054600160a060020a031633146129435760405160e560020a62461bcd02815260040161101690615f67565b60006020826040516128f39190615ee0565b336000908152601f602052604090205460ff166129875760405160e560020a62461bcd02815260040161101690615e7d565b602554604051600160a060020a039091166c01000000000000000000000000026020820152829060340160405160208183030381529060405280519060200120818051906020012014612a1f5760405160e560020a62461bcd02815260206004820152601360248201527f556e7265636f672072637667206f7261636c65000000000000000000000000006044820152606401611016565b6021546040517f45fab369000000000000000000000000000000000000000000000000000000008152600160a060020a0387811660048301819052602483018890526044830152909116906345fab369906064016020604051808303816000875af1158015612a92573d6000803e3d6000fd5b505050506040513d601f19601f82011682018060405250810190612ab69190615f9c565b505050505050565b600054600160a060020a03163314612aeb5760405160e560020a62461bcd02815260040161101690615f67565b60048054600160a060020a031916600160a060020a0392909216919091179055565b600c5460009060ff1615612bcf576040517f677342ce000000000000000000000000000000000000000000000000000000008152600481018390526112d19064e8d4a51000906111cd90612bc79073__CustomMath____________________________9063677342ce90602401602060405180830381865af4158015612b97573d6000803e3d6000fd5b505050506040513d601f19601f82011682018060405250810190612bbb9190615f9c565b6111cd6002600a613cb0565b600190613cbc565b5064e8d4a51000919050565b919050565b60026001541415612c065760405160e560020a62461bcd02815260040161101690615e2d565b60026001556000612c178233611ea4565b905060005b81811015612c4157612c308382600061191a565b50612c3a81615f4c565b9050612c1c565b50506001805550565b336000908152601f602052604090205460ff16612c7c5760405160e560020a62461bcd02815260040161101690615e7d565b80602081604051612c8d9190615ee0565b9081526040519081900360200190205460ff16612cbf5760405160e560020a62461bcd02815260040161101690615efc565b505050505050505050565b6017818154811061144857600080fd5b600054600160a060020a03163314612d075760405160e560020a62461bcd02815260040161101690615f67565b805161214190601790602084019061545e565b600054600160a060020a03163314612d475760405160e560020a62461bcd02815260040161101690615f67565b602955565b6000612d6164e8d4a510006111d38585613ca4565b9392505050565b600054600160a060020a03163314612d955760405160e560020a62461bcd02815260040161101690615f67565b600160a060020a038116612dee5760405160e560020a62461bcd02815260206004820152601060248201527f63616e6e6f7420626520302061646472000000000000000000000000000000006044820152606401611016565b601b8054600160a060020a031916600160a060020a0392909216919091179055565b600060026001541415612e385760405160e560020a62461bcd02815260040161101690615e2d565b60026001556000612e4d338888888888613cc8565b600e54909150612e6790600160a060020a031633836148a2565b600180559695505050505050565b602d6020528260005260406000206020528160005260406000208181548110612e9d57600080fd5b60009182526020909120600690910201805460018201546002830154600384015460048501546005909501549397509195509350919086565b6016818154811061144857600080fd5b600054600160a060020a03163314612f135760405160e560020a62461bcd02815260040161101690615f67565b602b55565b600054600160a060020a03163314612f455760405160e560020a62461bcd02815260040161101690615f67565b60148054600160a060020a031916600160a060020a0392909216919091179055565b600054600160a060020a03163314612f945760405160e560020a62461bcd02815260040161101690615f67565b6000918252601e60205260409091208054600160a060020a031916600160a060020a03909216919091179055565b600054600160a060020a03163314612fef5760405160e560020a62461bcd02815260040161101690615f67565b600e8054600160a060020a031916600160a060020a0392909216919091179055565b600054600160a060020a0316331461303e5760405160e560020a62461bcd02815260040161101690615f67565b600254600160a060020a03838116911614156130c55760405160e560020a62461bcd02815260206004820152603560248201527f217361666520746f20757365205a6f72726f20746f6b656e20696e2066756e6360448201527f20696e43617365546f6b656e73476574537475636b00000000000000000000006064820152608401611016565b612141600160a060020a03831633836148a2565b82602c81815481106130ed576130ed615e64565b6000918252602090912060069091020160050154600160a060020a031633600160a060020a031614611e9e5760405160e560020a62461bcd02815260206004820152600e60248201527f6f6e6c7920726567207661756c740000000000000000000000000000000000006044820152606401611016565b600054600160a060020a031633146131915760405160e560020a62461bcd02815260040161101690615f67565b60108054600160a060020a031916600160a060020a0392909216919091179055565b600054600160a060020a031633146131e05760405160e560020a62461bcd02815260040161101690615f67565b600160a060020a03166000908152601f60205260409020805460ff19166001179055565b600054600160a060020a031633146132315760405160e560020a62461bcd02815260040161101690615f67565b60128054600160a060020a031916600160a060020a0392909216919091179055565b336000908152601f602052604090205460ff166132855760405160e560020a62461bcd02815260040161101690615e7d565b806020816040516132969190615ee0565b9081526040519081900360200190205460ff166132c85760405160e560020a62461bcd02815260040161101690615efc565b60006132da8561155f88818c8c613cbc565b6021546003546040517f45fab36900000000000000000000000000000000000000000000000000000000815230600482015260248101849052600160a060020a03918216604482015292935016906345fab369906064016020604051808303816000875af1158015613350573d6000803e3d6000fd5b505050506040513d601f19601f820116820180604052508101906133749190615f9c565b506023546133829087613c98565b6023556024546133929086613c98565b6024555050505050505050565b336000908152601f602052604090205460ff166133d15760405160e560020a62461bcd02815260040161101690615e7d565b806020816040516133e29190615ee0565b9081526040519081900360200190205460ff166134145760405160e560020a62461bcd02815260040161101690615efc565b6021546003546040517f45fab369000000000000000000000000000000000000000000000000000000008152600160a060020a03888116600483015260248201889052918216604482015291169081906345fab369906064016020604051808303816000875af115801561348c573d6000803e3d6000fd5b505050506040513d601f19601f820116820180604052508101906134b09190615f9c565b50505050505050565b600054600160a060020a031633146134e65760405160e560020a62461bcd02815260040161101690615f67565b600b55565b600260015414156135115760405160e560020a62461bcd02815260040161101690615e2d565b60026001819055506000602c868154811061352e5761352e615e64565b6000918252602090912060056006909202010154600e54600160a060020a03918216925061355e91163087613837565b600e5461357690600160a060020a0316338388613963565b61358586338787428888613e2e565b50506001805550505050565b600054600160a060020a031633146135be5760405160e560020a62461bcd02815260040161101690615f67565b60278054600160a060020a031916600160a060020a0392909216919091179055565b600054600160a060020a0316331461360d5760405160e560020a62461bcd02815260040161101690615f67565b60158054600160a060020a031916600160a060020a0392909216919091179055565b600054600160a060020a0316331461365c5760405160e560020a62461bcd02815260040161101690615f67565b601c55565b600054600160a060020a0316331461368e5760405160e560020a62461bcd02815260040161101690615f67565b600f8054600160a060020a031916600160a060020a0392909216919091179055565b600054600160a060020a031633146136dd5760405160e560020a62461bcd02815260040161101690615f67565b600160a060020a03166000908152601f60205260409020805460ff19169055565b600054600160a060020a0316331461372b5760405160e560020a62461bcd02815260040161101690615f67565b600160a060020a0381166137aa5760405160e560020a62461bcd02815260206004820152602660248201527f4f776e61626c653a206e6577206f776e657220697320746865207a65726f206160448201527f64647265737300000000000000000000000000000000000000000000000000006064820152608401611016565b6137b3816149f4565b50565b600054600160a060020a031633146137e35760405160e560020a62461bcd02815260040161101690615f67565b600555565b600054600160a060020a031633146138155760405160e560020a62461bcd02815260040161101690615f67565b60138054600160a060020a031916600160a060020a0392909216919091179055565b6040517fdd62ed3e000000000000000000000000000000000000000000000000000000008152306004820152600160a060020a038381166024830152600091839186169063dd62ed3e90604401602060405180830381865afa1580156138a1573d6000803e3d6000fd5b505050506040513d601f19601f820116820180604052508101906138c59190615f9c565b6138cf9190615fc5565b604051600160a060020a038516602482015260448101829052909150611e9e9085907f095ea7b300000000000000000000000000000000000000000000000000000000906064015b60408051601f198184030181529190526020810180517bffffffffffffffffffffffffffffffffffffffffffffffffffffffff16600160e060020a031990931692909217909152614a44565b604051600160a060020a0380851660248301528316604482015260648101829052611e9e9085907f23b872dd0000000000000000000000000000000000000000000000000000000090608401613917565b6000602c86815481106139c9576139c9615e64565b9060005260206000209060060201905060008411613a2c5760405160e560020a62461bcd02815260206004820152601560248201527f5f77616e74416d74206d757374206265203e20302100000000000000000000006044820152606401611016565b613a3586611d3e565b6000602c8781548110613a4a57613a4a615e64565b60009182526020909120600690910201600501546040517fba0bb4ab000000000000000000000000000000000000000000000000000000008152600160a060020a038881166004830152602482018890529091169063ba0bb4ab906044016020604051808303816000875af1158015613ac7573d6000803e3d6000fd5b505050506040513d601f19601f82011682018060405250810190613aeb9190615f9c565b601a54600584015491925064e8d4a5100091600160a060020a03908116911614613b1b57613b1885612b0d565b90505b6000613b278383612d4c565b6004850154909150613b399082613cbc565b60048501819055600090613b56906111d38464e8d4a51000613ca4565b90506000613b7a64e8d4a510006111d3848960030154613ca490919063ffffffff16565b9050602d60008c815260200190815260200160002060008b600160a060020a0316600160a060020a031681526020019081526020016000206040518060c001604052808581526020018681526020018381526020018a815260200189815260200160008152509080600181540180825580915050600190039060005260206000209060060201600090919091909150600082015181600001556020820151816001015560408201518160020155606082015181600301556080820151816004015560a0820151816005015550508a8a600160a060020a03167f90890809c654f11d6e72a28fa60149770a0d11ec6c92319d6ceb2bb0a4ea1a158b604051613c8391815260200190565b60405180910390a35050505050505050505050565b6000612d618284615fdd565b6000612d618284615ff4565b6000612d61828461602c565b6000612d618284615fc5565b6000858152602d60209081526040808320600160a060020a038a1684529091528120805442919087908110613cff57613cff615e64565b9060005260206000209060060201600501819055506000602c8781548110613d2957613d29615e64565b60009182526020822060056006909202010154600160a060020a031691508190613d55898b8a8a6144c3565b9050613d908382602c8c81548110613d6f57613d6f615e64565b6000918252602090912060069091020154600160a060020a03169190613837565b6040517fa51a213e000000000000000000000000000000000000000000000000000000008152600090600160a060020a0384169063a51a213e90613ddc9085908b908b90600401616040565b6020604051808303816000875af1158015613dfb573d6000803e3d6000fd5b505050506040513d601f19601f82011682018060405250810190613e1f9190615f9c565b9b9a5050505050505050505050565b6000602c8881548110613e4357613e43615e64565b600091825260208220600560069092020101546040517f74515405000000000000000000000000000000000000000000000000000000008152600160a060020a0390911692508291908290637451540590613ea6908b9089908990600401616040565b6020604051808303816000875af1158015613ec5573d6000803e3d6000fd5b505050506040513d601f19601f82011682018060405250810190613ee99190615f9c565b9050613f038382602c8d81548110613d6f57613d6f615e64565b61190e8a8a838a8a6139b4565b601554600e54613f2d91600160a060020a03918216911684613837565b6002546013546000918291600160a060020a0390811691161415613fe357602754604080517ffeaf968c0000000000000000000000000000000000000000000000000000000081529051859450600092600160a060020a03169163feaf968c9160048083019260a09291908290030181865afa158015613fb1573d6000803e3d6000fd5b505050506040513d601f19601f82011682018060405250810190613fd591906160b8565b5091945061408f9350505050565b600254601454600160a060020a039081169116141561408f57602654604080517ffeaf968c0000000000000000000000000000000000000000000000000000000081529051600092600160a060020a03169163feaf968c9160048083019260a09291908290030181865afa15801561405f573d6000803e3d6000fd5b505050506040513d601f19601f8201168201806040525081019061408391906160b8565b50919550869450505050505b60155473__SafeSwapUni___________________________90632b08bab190600160a060020a03166140c2876002613cb0565b60195464e8d4a510009087906016306140dd42610258613cbc565b6040518963ffffffff1660e060020a0281526004016141039897969594939291906160fc565b60006040518083038186803b15801561411b57600080fd5b505af415801561412f573d6000803e3d6000fd5b505060155473__SafeSwapUni___________________________9250632b08bab19150600160a060020a0316614166876002613cb0565b60195464e8d4a5100090869060173061418142610258613cbc565b6040518963ffffffff1660e060020a0281526004016141a79897969594939291906160fc565b60006040518083038186803b1580156141bf57600080fd5b505af41580156141d3573d6000803e3d6000fd5b505060135460405160e060020a6370a0823102815230600482015260009350600160a060020a0390911691506370a0823190602401602060405180830381865afa158015614225573d6000803e3d6000fd5b505050506040513d601f19601f820116820180604052508101906142499190615f9c565b60145460405160e060020a6370a08231028152306004820152919250600091600160a060020a03909116906370a0823190602401602060405180830381865afa15801561429a573d6000803e3d6000fd5b505050506040513d601f19601f820116820180604052508101906142be9190615f9c565b6015546013549192506142de91600160a060020a03908116911684613837565b6015546014546142fb91600160a060020a03918216911683613837565b601554601354601454601954600160a060020a039384169363e8e3370093811692169086908690614335906103e8906111d3908590613ca4565b6143506103e86111d36019548b613ca490919063ffffffff16565b600354600160a060020a031661436842610258613cbc565b60405163ffffffff8a1660e060020a028152600160a060020a039889166004820152968816602488015260448701959095526064860193909352608485019190915260a484015290921660c482015260e4810191909152610104016060604051808303816000875af11580156143e2573d6000803e3d6000fd5b505050506040513d601f19601f82011682018060405250810190612cbf9190616193565b601554600e5461442391600160a060020a03918216911684613837565b601554601954601a5473__SafeSwapUni___________________________92632b08bab192600160a060020a0391821692879264e8d4a5100092889290916018911661447142610258613cbc565b6040518963ffffffff1660e060020a0281526004016144979897969594939291906160fc565b60006040518083038186803b1580156144af57600080fd5b505af4158015612ab6573d6000803e3d6000fd5b60006144ce85611d3e565b6000602c86815481106144e3576144e3615e64565b60009182526020808320898452602d82526040808520600160a060020a038b168652909252908320805460069093029091019350908690811061452857614528615e64565b90600052602060002090600602019050600081600001541161458f5760405160e560020a62461bcd02815260206004820152601960248201527f7472616e6368652e636f6e747269627574696f6e2069732030000000000000006044820152606401611016565b60008260040154116145e65760405160e560020a62461bcd02815260206004820152601e60248201527f746f74616c5472616e636865436f6e747269627574696f6e73206973203000006044820152606401611016565b60048201548154600091614603916111d39064e8d4a51000613ca4565b9050600061462f83600201546112a864e8d4a510006111d3886003015487613ca490919063ffffffff16565b905080156146fe57600062093a809050600061466a426112a861465f858960030154613ca490919063ffffffff16565b600489015490613cbc565b905060008082156146a5576003870154614692906146889086613ca4565b6111d38786613ca4565b905061469e8582613c98565b91506146a9565b8491505b6146b38c83614b2c565b80156146f9576000602c8e815481106146ce576146ce615e64565b6000918252602090912060056006909202010154600160a060020a031690506146f78183614b2c565b505b505050505b602c898154811061471157614711615e64565b60009182526020909120600690910201600501546040517f495af8ce000000000000000000000000000000000000000000000000000000008152600160a060020a038a8116600483015288151560248301529091169063495af8ce906044016020604051808303816000875af115801561478f573d6000803e3d6000fd5b505050506040513d601f19601f820116820180604052508101906147b39190615f9c565b50825460048501546147c491613c98565b600485810191909155845460405160e060020a6370a082310281523092810192909252600091600160a060020a03909116906370a0823190602401602060405180830381865afa15801561481c573d6000803e3d6000fd5b505050506040513d601f19601f820116820180604052508101906148409190615f9c565b905061484d8a898b614bc5565b60408051898152602081018390528b91600160a060020a038c16917f02f25270a4d87bea75db541cdfe559334a275b4a233520ed6c0a2429667cca94910160405180910390a39450505050505b949350505050565b604051600160a060020a0383166024820152604481018290526148eb9084907fa9059cbb0000000000000000000000000000000000000000000000000000000090606401613917565b505050565b6148f86154c3565b6149006154c3565b61490c81868686614cfe565b95945050505050565b60808301516149249083614d3b565b60808301516148eb9082614d52565b603454600090614944816001615fc5565b603455835160408086015160808701515191516000937f4042994600000000000000000000000000000000000000000000000000000000936149959386938493923092918a916001916024016161ed565b60408051601f198184030181529190526020810180517bffffffffffffffffffffffffffffffffffffffffffffffffffffffff16600160e060020a03199093169290921790915290506149ea86838684614d5f565b9695505050505050565b60008054600160a060020a03838116600160a060020a0319831681178455604051919092169283917f8be0079c531659141344cd1fd0a4f28419497f9722a3daafe3b4186f6b6457e09190a35050565b6000614a99826040518060400160405280602081526020017f5361666545524332303a206c6f772d6c6576656c2063616c6c206661696c656481525085600160a060020a0316614ef09092919063ffffffff16565b8051909150156148eb5780806020019051810190614ab79190616242565b6148eb5760405160e560020a62461bcd02815260206004820152602a60248201527f5361666545524332303a204552433230206f7065726174696f6e20646964206e60448201527f6f742073756363656564000000000000000000000000000000000000000000006064820152608401611016565b60025460405160e060020a6370a082310281523060048201528291600091600160a060020a03909116906370a0823190602401602060405180830381865afa158015614b7c573d6000803e3d6000fd5b505050506040513d601f19601f82011682018060405250810190614ba09190615f9c565b905080831115614bae578091505b600254611e9e90600160a060020a031685846148a2565b6000838152602d60209081526040808320600160a060020a03851684529091529020805490614bf5600183615fdd565b81548110614c0557614c05615e64565b60009182526020808320878452602d82526040808520600160a060020a0388168652909252922080546006909202909201919085908110614c4857614c48615e64565b600091825260208083208454600690930201918255600180850154908301556002808501549083015560038085015490830155600480850154908301556005938401549390910192909255858152602d82526040808220600160a060020a038616835290925220805480614cbe57614cbe61625f565b6000828152602081206006600019909301928302018181556001810182905560028101829055600381018290556004810182905560050155905550505050565b614d066154c3565b614d168560800151610100614eff565b5050918352600160a060020a03166020830152600160e060020a031916604082015290565b614d488260038351614f64565b6148eb828261506c565b614d488260028351614f64565b6040516c01000000000000000000000000300260208201526034810184905260009060540160408051808303601f190181528282528051602091820120600081815260359092529181208054600160a060020a031916600160a060020a038a1617905590925082917fb5e6e01e79f91267dc17b4e6314d5d4d03593d2ceee0fbb452b750bd70ea5af99190a26032546040517f4000aea0000000000000000000000000000000000000000000000000000000008152600160a060020a0390911690634000aea090614e3890889087908790600401616278565b6020604051808303816000875af1158015614e57573d6000803e3d6000fd5b505050506040513d601f19601f82011682018060405250810190614e7b9190616242565b61489a5760405160e560020a62461bcd02815260206004820152602360248201527f756e61626c6520746f207472616e73666572416e6443616c6c20746f206f726160448201527f636c6500000000000000000000000000000000000000000000000000000000006064820152608401611016565b606061489a8484600085615093565b604080518082019091526060815260006020820152614f1f6020836162a0565b15614f4757614f2f6020836162a0565b614f3a906020615fdd565b614f449083615fc5565b91505b506020828101829052604080518085526000815290920101905290565b60178167ffffffffffffffff1611614f8a57611e9e8360ff8481166020021683176151e2565b60ff8167ffffffffffffffff1611614fc657614faf836018602060ff861602176151e2565b50611e9e8367ffffffffffffffff83166001615207565b61ffff8167ffffffffffffffff161161500357614fec836019602060ff861602176151e2565b50611e9e8367ffffffffffffffff83166002615207565b63ffffffff8167ffffffffffffffff16116150425761502b83601a602060ff861602176151e2565b50611e9e8367ffffffffffffffff83166004615207565b61505583601b602060ff861602176151e2565b50611e9e8367ffffffffffffffff83166008615207565b604080518082019091526060815260006020820152612d618384600001515184855161522d565b6060303183111561510f5760405160e560020a62461bcd02815260206004820152602660248201527f416464726573733a20696e73756666696369656e742062616c616e636520666f60448201527f722063616c6c00000000000000000000000000000000000000000000000000006064820152608401611016565b600160a060020a0385163b6151695760405160e560020a62461bcd02815260206004820152601d60248201527f416464726573733a2063616c6c20746f206e6f6e2d636f6e74726163740000006044820152606401611016565b60008086600160a060020a031685876040516151859190615ee0565b60006040518083038185875af1925050503d80600081146151c2576040519150601f19603f3d011682016040523d82523d6000602084013e6151c7565b606091505b50915091506151d7828286615317565b979650505050505050565b604080518082019091526060815260006020820152612d618384600001515184615353565b60408051808201909152606081526000602082015261489a8485600001515185856153af565b604080518082019091526060815260006020820152825182111561525057600080fd5b602085015161525f8386615fc5565b111561529257615292856152828760200151878661527d9190615fc5565b615430565b61528d906002615ff4565b615447565b6000808651805187602083010193508088870111156152b15787860182525b505050602084015b602084106152f157805182526152d0602083615fc5565b91506152dd602082615fc5565b90506152ea602085615fdd565b93506152b9565b51815160001960208690036101000a019081169019919091161790525083949350505050565b60608315615326575081612d61565b8251156153365782518084602001fd5b8160405160e560020a62461bcd02815260040161101691906162b4565b6040805180820190915260608152600060208201528360200151831061538857615388848560200151600261528d9190615ff4565b8351805160208583010184815350808514156153a5576001810182525b5093949350505050565b60408051808201909152606081526000602082015260208501516153d38584615fc5565b11156153e7576153e7856152828685615fc5565b600060016153f7846101006163ae565b6154019190615fdd565b90508551838682010185831982511617815250805184870111156154255783860181525b509495945050505050565b6000818311156154415750816112d1565b50919050565b81516154538383614eff565b50611e9e838261506c565b8280548282559060005260206000209081019282156154b3579160200282015b828111156154b35782518254600160a060020a031916600160a060020a0390911617825560209092019160019091019061547e565b506154bf9291506154fe565b5090565b6040805160a0810182526000808252602080830182905282840182905260608084018390528451808601909552845283015290608082015290565b5b808211156154bf57600081556001016154ff565b60008060006060848603121561552857600080fd5b505081359360208301359350604090920135919050565b600160a060020a03811681146137b357600080fd5b60e060020a634e487b7102600052604160045260246000fd5b604051601f8201601f1916810167ffffffffffffffff8111828210171561559657615596615554565b604052919050565b600082601f8301126155af57600080fd5b813567ffffffffffffffff8111156155c9576155c9615554565b6155dc601f8201601f191660200161556d565b8181528460208386010111156155f157600080fd5b816020850160208301376000918101602001919091529392505050565b600080600080600080600080610100898b03121561562b57600080fd5b88356156368161553f565b97506020890135965060408901359550606089013594506080890135935060a08901356156628161553f565b925060c089013567ffffffffffffffff8082111561567f57600080fd5b61568b8c838d0161559e565b935060e08b01359150808211156156a157600080fd5b506156ae8b828c0161559e565b9150509295985092959890939650565b600080604083850312156156d157600080fd5b8235915060208301356156e38161553f565b809150509250929050565b600060e0828403121561544157600080fd5b6000806000806000610160868803121561571957600080fd5b8535945060208601359350604086013592506060860135915061573f87608088016156ee565b90509295509295909350565b60006020828403121561575d57600080fd5b5035919050565b60008083601f84011261577657600080fd5b50813567ffffffffffffffff81111561578e57600080fd5b6020830191508360208285010111156157a657600080fd5b9250929050565b60008060008060008060008060e0898b0312156157c957600080fd5b88359750602089013567ffffffffffffffff8111156157e757600080fd5b6157f38b828c01615764565b999c909b509899604081013599606082013599506080820135985060a0820135975060c09091013595509350505050565b60006020828403121561583657600080fd5b8135612d618161553f565b600080600080600080600060e0888a03121561585c57600080fd5b87356158678161553f565b96506020880135955060408801359450606088013593506080880135925060a088013567ffffffffffffffff808211156158a057600080fd5b6158ac8b838c0161559e565b935060c08a01359150808211156158c257600080fd5b506158cf8a828b0161559e565b91505092959891949750929550565b80151581146137b357600080fd5b60008060006060848603121561590157600080fd5b8335925060208401359150604084013561591a816158de565b809150509250925092565b60008060008060008060008060006101008a8c03121561594457600080fd5b8935985060208a013567ffffffffffffffff8082111561596357600080fd5b61596f8d838e01615764565b909a50985060408c0135975060608c0135965060808c0135955060a08c0135945060c08c01359150808211156159a457600080fd5b6159b08d838e0161559e565b935060e08c01359150808211156159c657600080fd5b506159d38c828d0161559e565b9150509295985092959850929598565b600080600080608085870312156159f957600080fd5b843593506020850135615a0b8161553f565b92506040850135615a1b816158de565b91506060850135615a2b8161553f565b939692955090935050565b600060208284031215615a4857600080fd5b813567ffffffffffffffff811115615a5f57600080fd5b61489a8482850161559e565b60006020808385031215615a7e57600080fd5b823567ffffffffffffffff80821115615a9657600080fd5b818501915085601f830112615aaa57600080fd5b813581811115615abc57615abc615554565b8381029150615acc84830161556d565b8181529183018401918481019088841115615ae657600080fd5b938501935b83851015615b105784359250615b008361553f565b8282529385019390850190615aeb565b98975050505050505050565b600080600080600060608688031215615b3457600080fd5b85359450602086013567ffffffffffffffff80821115615b5357600080fd5b615b5f89838a01615764565b90965094506040880135915080821115615b7857600080fd5b50615b8588828901615764565b969995985093965092949392505050565b600080600080600060a08688031215615bae57600080fd5b505083359560208501359550604085013594606081013594506080013592509050565b600060208284031215615be357600080fd5b8135612d61816158de565b60008060008060008060c08789031215615c0757600080fd5b86359550602087013594506040870135935060608701359250608087013567ffffffffffffffff80821115615c3b57600080fd5b615c478a838b0161559e565b935060a0890135915080821115615c5d57600080fd5b50615c6a89828a0161559e565b9150509295509295509295565b60008060008060808587031215615c8d57600080fd5b8435615c988161553f565b935060208501359250604085013567ffffffffffffffff80821115615cbc57600080fd5b615cc88883890161559e565b93506060870135915080821115615cde57600080fd5b50615ceb8782880161559e565b91505092959194509250565b600080600080600080600080610100898b031215615d1457600080fd5b8835615d1f8161553f565b97506020890135965060408901359550606089013594506080890135935060a0890135925060c089013567ffffffffffffffff8082111561567f57600080fd5b60008060408385031215615d7257600080fd5b50508035926020909101359150565b60008060008060006101608688031215615d9a57600080fd5b85359450602086013593506040860135615db3816158de565b92506060860135915061573f87608088016156ee565b600080600060608486031215615dde57600080fd5b833592506020840135615df08161553f565b929592945050506040919091013590565b60008060408385031215615e1457600080fd5b8235615e1f8161553f565b946020939093013593505050565b6020808252601f908201527f5265656e7472616e637947756172643a207265656e7472616e742063616c6c00604082015260600190565b60e060020a634e487b7102600052603260045260246000fd5b60208082526019908201527f6f6e6c79207265672078636861696e20656e64706f696e747300000000000000604082015260600190565b60005b83811015615ecf578181015183820152602001615eb7565b83811115611e9e5750506000910152565b60008251615ef2818460208701615eb4565b9190910192915050565b6020808252601b908201527f6f6e6c79207265672078636861696e20636f6e74726f6c6c6572730000000000604082015260600190565b60e060020a634e487b7102600052601160045260246000fd5b6000600019821415615f6057615f60615f33565b5060010190565b6020808252818101527f4f776e61626c653a2063616c6c6572206973206e6f7420746865206f776e6572604082015260600190565b600060208284031215615fae57600080fd5b5051919050565b8183823760009101908152919050565b60008219821115615fd857615fd8615f33565b500190565b600082821015615fef57615fef615f33565b500390565b600081600019048311821515161561600e5761600e615f33565b500290565b60e060020a634e487b7102600052601260045260246000fd5b60008261603b5761603b616013565b500490565b600061012082019050848252836020830152823560408301526020830135606083015260408301356080830152606083013560a0830152608083013560c083015260a083013560e083015260c0830135610100830152949350505050565b805169ffffffffffffffffffff81168114612bdb57600080fd5b600080600080600060a086880312156160d057600080fd5b6160d98661609e565b945060208601519350604086015192506060860151915061573f6080870161609e565b6000610100808301600160a060020a03808d16855260208c818701528b60408701528a60608701528960808701528360a08701528293508854808452610120870194508960005281600020935060005b8181101561616a57845484168652948201946001948501940161614c565b50505050600160a060020a03861660c08501525090508260e08301529998505050505050505050565b6000806000606084860312156161a857600080fd5b8351925060208401519150604084015190509250925092565b600081518084526161d9816020860160208601615eb4565b601f01601f19169290920160200192915050565b6000610100600160a060020a03808c1684528a6020850152896040850152808916606085015250600160e060020a0319871660808401528560a08401528460c08401528060e0840152613e1f818401856161c1565b60006020828403121561625457600080fd5b8151612d61816158de565b60e060020a634e487b7102600052603160045260246000fd5b600160a060020a038416815282602082015260606040820152600061490c60608301846161c1565b6000826162af576162af616013565b500690565b602081526000612d6160208301846161c1565b600181815b808511156163045781600019048211156162e8576162e8615f33565b808516156162f557918102915b600290940493908002906162cc565b509250929050565b60008261631b575060016112d1565b81616328575060006112d1565b816001811461633e576002811461634857616365565b60019150506112d1565b60ff84111561635957616359615f33565b8360020a9150506112d1565b5060208310610133831016604e8410600b8410161715616388575081810a6112d1565b61639283836162c7565b80600019048211156163a6576163a6615f33565b029392505050565b6000612d61838361630c56fea264697066735822122030e33f42722ab3e294df20b297cdfe18f9c4661325e3aebff3a211b15832394864736f6c634300080a0033",
  "immutableReferences": {},
  "source": "// SPDX-License-Identifier: MIT\npragma solidity ^0.8.0;\n\n/* Dependencies */\nimport \"./_ZorroControllerBase.sol\";\n\nimport \"./_ZorroControllerPoolMgmt.sol\";\n\nimport \"./_ZorroControllerInvestment.sol\";\n\nimport \"./_ZorroControllerAnalytics.sol\";\n\nimport \"./_ZorroControllerXChain.sol\";\n\n// TODO: In general, shouldn't these all be timelock contracts? \n// TODO: Make sure constructors and setters have all parameters as expected\n\n/* Main Contract */\n/// @title ZorroController: The main controller of the Zorro yield farming protocol. Used for cash flow operations (deposit/withdrawal), managing vaults, and rewards allocations, among other things.\ncontract ZorroController is ZorroControllerBase, ZorroControllerPoolMgmt, ZorroControllerInvestment, ZorroControllerAnalytics, ZorroControllerXChain {\n    /* Constructor */\n\n    /// @notice Constructor\n    /// @param _timelockOwner address of owner (should be a timelock)\n    /// @param _lockUSDCController The address of the lock for USDC\n    /// @param _homeChainZorroController The address of the home chain Zorro controller contract\n    /// @param _zorroLPPoolAddresses An array of: The address of the Zorro LP pool, token0 of the LP pool, and token1 of the pool\n    /// @param _chainId The ID of the chain that this contract is being deployed on\n    /// @param _priceFeeds Array of Chainlink price feeds: [_priceFeedLPPoolToken0, _priceFeedLPPoolToken1]\n    /// @param _zorroControllerOracle Address of Zorro Chainlink oracle for controller\n    /// @param _zorroControllerOracleJobIds Job ID array of Zorro Chainlink price oracle, Emissions oracle\n    constructor(\n        address _timelockOwner,\n        address _publicPool,\n        address[] memory _stableCoinAddresses,\n        address _lockUSDCController,\n        address _homeChainZorroController,\n        address[] memory _zorroLPPoolAddresses,\n        uint256 _chainId,\n        address[] memory _priceFeeds,\n        address _zorroControllerOracle,\n        bytes32[] memory _zorroControllerOracleJobIds\n    ) {\n        // Assign owner as to timelock contract\n        transferOwnership(_timelockOwner);\n        // Set main state variables to initial state\n        startBlock = block.timestamp;\n        publicPool = _publicPool;\n        defaultStablecoin = _stableCoinAddresses[0];\n        syntheticStablecoin = _stableCoinAddresses[1];\n        lockUSDCController = _lockUSDCController;\n        require(_homeChainZorroController != address(0), \"cannot be 0 addr\");\n        homeChainZorroController = _homeChainZorroController;\n        zorroLPPool = _zorroLPPoolAddresses[0];\n        zorroLPPoolToken0 = _zorroLPPoolAddresses[1];\n        zorroLPPoolToken1 = _zorroLPPoolAddresses[2];\n        chainId = _chainId;\n        _priceFeedLPPoolToken0 = AggregatorV3Interface(_priceFeeds[0]);\n        _priceFeedLPPoolToken1 = AggregatorV3Interface(_priceFeeds[1]);\n        zorroControllerOracle = _zorroControllerOracle;\n        zorroControllerOraclePriceJobId = _zorroControllerOracleJobIds[0];\n        zorroControllerOracleEmissionsJobId = _zorroControllerOracleJobIds[1];\n    }\n}",
  "sourcePath": "/Users/kristophm/Documents/workspace/zorro-protocol/contracts/controllers/ZorroController.sol",
  "compiler": {
    "name": "solc",
    "version": "0.8.10+commit.fc410830.Emscripten.clang"
  },
  "schemaVersion": "3.4.4",
  "updatedAt": "2022-03-28T16:51:54.895Z",
  "devdoc": {
    "kind": "dev",
    "methods": {
      "add(uint256,address,bool,address)": {
        "details": "DO NOT add the same Want token more than once. Rewards will be messed up if you do. (Only if Want tokens are stored here.)",
        "params": {
          "_allocPoint": "The number of allocation points for this pool (aka \"multiplier\")",
          "_vault": "The contract address of the underlying vault",
          "_want": "The address of the want token",
          "_withUpdate": "Mass update all pools if set to true"
        }
      },
      "buybackAndRevShareCallback(uint256,bytes,uint256,uint256,uint256,uint256,uint256)": {
        "details": "Can only be called by the Chainlink Oracle",
        "params": {
          "_ZORROExchangeRate": "ZOR per USD, times 1e12",
          "_amountUSDCBuyback": "The amount in USDC that should be minted for LP + burn",
          "_amountUSDCRevShare": "The amount in USDC that should be minted for revenue sharing with ZOR stakers",
          "_callbackContract": "Address of destination contract in bytes for the callback",
          "_chainId": "The ID of the chain that this request originated from",
          "_failedAmountUSDCBuyback": "The previously failed buyback amount that is being retried",
          "_failedAmountUSDCRevShare": "The previously failed revshare amount that is being retried"
        }
      },
      "constructor": {
        "params": {
          "_chainId": "The ID of the chain that this contract is being deployed on",
          "_homeChainZorroController": "The address of the home chain Zorro controller contract",
          "_lockUSDCController": "The address of the lock for USDC",
          "_priceFeeds": "Array of Chainlink price feeds: [_priceFeedLPPoolToken0, _priceFeedLPPoolToken1]",
          "_timelockOwner": "address of owner (should be a timelock)",
          "_zorroControllerOracle": "Address of Zorro Chainlink oracle for controller",
          "_zorroControllerOracleJobIds": "Job ID array of Zorro Chainlink price oracle, Emissions oracle",
          "_zorroLPPoolAddresses": "An array of: The address of the Zorro LP pool, token0 of the LP pool, and token1 of the pool"
        }
      },
      "deposit(uint256,uint256,uint256)": {
        "params": {
          "_pid": "index of pool",
          "_wantAmt": "how much Want token to deposit",
          "_weeksCommitted": "how many weeks the user is committing to on this vault"
        }
      },
      "depositFullService(uint256,uint256,uint256,uint256,(uint256,uint256,uint256,uint256,uint256,uint256,uint256))": {
        "params": {
          "_maxMarketMovement": "factor to account for max market movement/slippage. The definition varies by Vault, so consult the associated Vault contract for info",
          "_pid": "index of pool to deposit into",
          "_priceData": "struct containing relevant exchange rates for key tokens when making deposit",
          "_valueUSDC": "value in USDC (in ether units) to deposit",
          "_weeksCommitted": "how many weeks to commit to the Pool (can be 0 or any uint)"
        }
      },
      "distributeEarningsXChain(uint256,uint256,uint256)": {
        "params": {
          "_buybackAmountUSDC": "The amount of USDC to buyback",
          "_pid": "The pool ID associated with the vault which experienced earnings",
          "_revShareAmountUSDC": "The amount of USDC to share as revenue to the ZOR staking vault"
        }
      },
      "getTimeMultiplier(uint256)": {
        "params": {
          "durationInWeeks": "number of weeks committed into Vault"
        },
        "returns": {
          "_0": "multiplier factor, times 1e12"
        }
      },
      "getUserContribution(uint256,uint256)": {
        "params": {
          "_liquidityCommitted": "How many tokens staked (e.g. LP tokens)",
          "_timeMultiplier": "Time multiplier value (from getTimeMultiplier())"
        },
        "returns": {
          "_0": "The relative contribution of the user (unitless)"
        }
      },
      "inCaseTokensGetStuck(address,uint256)": {
        "details": "Does not permit usage for the Zorro token",
        "params": {
          "_amount": "token quantity",
          "_token": "ERC20 token address"
        }
      },
      "massUpdatePools()": {
        "details": "Be careful of gas fees!"
      },
      "owner()": {
        "details": "Returns the address of the current owner."
      },
      "pendingZORRORewards(uint256,address)": {
        "params": {
          "_pid": "Index of pool",
          "_user": "wallet address of user"
        },
        "returns": {
          "_0": "amount of Zorro rewards"
        }
      },
      "poolLength()": {
        "returns": {
          "_0": "Number of pools"
        }
      },
      "receiveBurnLockedEarningsRequest(uint256,uint256,uint256,uint256,bytes,bytes)": {
        "params": {
          "_amountUSDCBuyback": "The amount in USDC that was bought back",
          "_amountUSDCRevShare": "The amount in USDC that was rev-shared",
          "_failedAmountUSDCBuyback": "The previously failed buyback amount that was successfully retried",
          "_failedAmountUSDCRevShare": "The previously failed revshare amount that was successfully retried",
          "_xChainOrigin": "Address of the original sender (in bytes) on the remote chain (equiv to tx.origin). Injected by endpoint contract after verifying proof"
        }
      },
      "receiveXChainBurnRewardsRequest(uint256)": {
        "params": {
          "_amount": "The quantity of ZOR tokens to burn"
        }
      },
      "receiveXChainDepositRequest(address,uint256,uint256,uint256,uint256,uint256,bytes,bytes)": {
        "details": "For params, see _depositFullService() function declaration above",
        "params": {
          "_xChainOrigin": "Address of the original sender (in bytes) on the remote chain (equiv to tx.origin). Injected by endpoint contract after verifying proof"
        }
      },
      "receiveXChainDistributionRequest(uint256,bytes,uint256,uint256,uint256,uint256,bytes,bytes)": {
        "params": {
          "_amountUSDCBuyback": "The amount in USDC that should be minted for LP + burn",
          "_amountUSDCRevShare": "The amount in USDC that should be minted for revenue sharing with ZOR stakers",
          "_callbackContract": "Address of destination contract in bytes for the callback",
          "_chainId": "The ID of the chain that this request originated from",
          "_failedAmountUSDCBuyback": "The previously failed buyback amount that is being retried",
          "_failedAmountUSDCRevShare": "The previously failed revshare amount that is being retried",
          "_xChainOrigin": "Address of the original sender (in bytes) on the remote chain (equiv to tx.origin). Injected by endpoint contract after verifying proof"
        }
      },
      "receiveXChainRepatriationRequest(address,uint256,uint256,uint256,uint256,address,bytes,bytes)": {
        "params": {
          "_account": "The user on this chain who initiated the withdrawal request",
          "_callbackContract": "The remote contract that called this function.",
          "_chainId": "The Chain ID of the remote chain that initiated this request",
          "_maxMarketMovement": "factor to account for max market movement/slippage, expressed as numerator over 1000 (e.g. 950 => 950/1000 = 0.95 = 5% slippage)",
          "_originalNetDepositUSDC": "The amount originally deposited into this tranche, NET of fees",
          "_withdrawnUSDC": "The amount of USDC withdrawn on the remote chain",
          "_xChainOrigin": "Address of the original sender (in bytes) on the remote chain (equiv to tx.origin). Injected by endpoint contract after verifying proof"
        }
      },
      "receiveXChainUnlockRequest(address,uint256,bytes,bytes)": {
        "params": {
          "_account": "The address of the wallet (cross chain identity) to unlock funds for",
          "_amountUSDC": "The amount in USDC that should be unlocked and burned"
        }
      },
      "receiveXChainWithdrawalRequest(address,uint256,uint256,uint256,uint256,bytes,bytes)": {
        "details": "For params, see _withdrawalFullService() function declaration above. Executes idempotently.",
        "params": {
          "_xChainOrigin": "Address of the original sender (in bytes) on the remote chain (equiv to tx.origin). Injected by endpoint contract after verifying proof"
        }
      },
      "recoverXChainFeeDist(uint256,uint256,uint256,uint256,bytes,bytes)": {
        "params": {
          "_amountBuybackUSDC": "The amount of buyback in USDC attempted for cross chain operations",
          "_amountRevShareUSDC": "The amount of revshare in USDC attempted for cross chain operations",
          "_blockNumber": "The block number on the remote chain that the earnings distribution was for",
          "_pid": "The pool ID on the remote chain that the earnings distribution was from",
          "_xChainOrigin": "Address of the original sender (in bytes) on the remote chain (equiv to tx.origin). Injected by endpoint contract after verifying proof"
        }
      },
      "renounceOwnership()": {
        "details": "Leaves the contract without owner. It will not be possible to call `onlyOwner` functions anymore. Can only be called by the current owner. NOTE: Renouncing ownership will leave the contract without an owner, thereby removing any functionality that is only available to the owner."
      },
      "revertXChainDeposit(address,uint256,bytes,bytes)": {
        "details": "Unlocks USDC and returns it to depositor",
        "params": {
          "_account": "The address of the depositor",
          "_netDepositUSDC": "The amount originally deposited, net of fees",
          "_xChainOrigin": "Address of the original sender (in bytes) on the remote chain (equiv to tx.origin). Injected by endpoint contract after verifying proof"
        }
      },
      "sendXChainDepositRequest(uint256,bytes,bytes)": {
        "params": {
          "_chainId": "The Zorro destination chain ID so that the request can be routed to the appropriate chain",
          "_destinationContract": "The address of the smart contract on the destination chain",
          "_payload": "The input payload for the destination function, encoded in bytes (EVM ABI or equivalent depending on chain)"
        }
      },
      "sendXChainWithdrawalRequest(uint256,bytes,bytes)": {
        "params": {
          "_chainId": "The Zorro destination chain ID so that the request can be routed to the appropriate chain",
          "_destinationContract": "The address of the smart contract on the destination chain",
          "_payload": "The input payload for the destination function, encoded in bytes (EVM ABI or equivalent depending on chain)"
        }
      },
      "set(uint256,uint256,bool)": {
        "params": {
          "_allocPoint": "The number of allocation points for this pool (aka \"multiplier\")",
          "_pid": "The index of the pool ID",
          "_withUpdate": "Mass update all pools if set to true"
        }
      },
      "setZorroPerBlock(uint256,uint256,uint256,uint256,uint256)": {
        "details": "Values to be provided by Oracle. Perferable to run daily",
        "params": {
          "_ZorroTotalVaultTVLUSD": "USD value of all TVL locked into the Zorro protocol, across all chains",
          "_publicPoolZORBalance": "Number of ZOR tokens remaining in public pool on home chain",
          "_targetTVLCaptureBasisPoints": "% desired capture of total market TVL, measured in basis points",
          "_totalChainMultipliers": "Sum total of all chain multipliers for each chain",
          "_totalMarketTVLUSD": "Total DeFi market TVL across all chains (measured in USD)"
        }
      },
      "stakedWantTokens(uint256,address)": {
        "params": {
          "_pid": "Index of pool",
          "_user": "wallet address of user"
        },
        "returns": {
          "_0": "amount of staked Want tokens"
        }
      },
      "trancheLength(uint256,address)": {
        "params": {
          "_pid": "Index of pool",
          "_user": "wallet address of user"
        },
        "returns": {
          "_0": "Number of tranches"
        }
      },
      "transferInvestment(uint256,uint256,uint256,uint256,(uint256,uint256,uint256,uint256,uint256,uint256,uint256))": {
        "params": {
          "_fromPid": "index of pool FROM",
          "_fromTrancheId": "index of tranche FROM",
          "_maxMarketMovement": "factor to account for max market movement/slippage. The definition varies by Vault, so consult the associated Vault contract for info",
          "_priceData": "struct containing relevant exchange rates for key tokens when making deposit",
          "_toPid": "index of pool TO"
        }
      },
      "transferOwnership(address)": {
        "details": "Transfers ownership of the contract to a new account (`newOwner`). Can only be called by the current owner."
      },
      "updatePool(uint256)": {
        "params": {
          "_pid": "index of pool"
        }
      },
      "withdraw(uint256,uint256,bool)": {
        "params": {
          "_harvestOnly": "If true, will only harvest Zorro tokens but not do a withdrawal",
          "_pid": "index of pool",
          "_trancheId": "index of tranche"
        },
        "returns": {
          "_0": "Amount of Want token withdrawn"
        }
      },
      "withdrawAll(uint256)": {
        "params": {
          "_pid": "index of pool"
        }
      },
      "withdrawalFullService(uint256,uint256,bool,uint256,(uint256,uint256,uint256,uint256,uint256,uint256,uint256))": {
        "params": {
          "_harvestOnly": "If true, will only harvest Zorro tokens but not do a withdrawal",
          "_maxMarketMovement": "factor to account for max market movement/slippage. The definition varies by Vault, so consult the associated Vault contract for info",
          "_pid": "index of pool to deposit into",
          "_priceData": "struct containing relevant exchange rates for key tokens when making deposit",
          "_trancheId": "index of tranche"
        },
        "returns": {
          "_0": "Amount (in USDC) returned"
        }
      }
    },
    "title": "ZorroController: The main controller of the Zorro yield farming protocol. Used for cash flow operations (deposit/withdrawal), managing vaults, and rewards allocations, among other things.",
    "version": 1
  },
  "userdoc": {
    "kind": "user",
    "methods": {
      "add(uint256,address,bool,address)": {
        "notice": "Adds a new pool. Can only be called by the owner."
      },
      "buybackAndRevShareCallback(uint256,bytes,uint256,uint256,uint256,uint256,uint256)": {
        "notice": "Receives an authorized request from remote chains to perform earnings fee distribution events, such as: buyback + LP + burn, and revenue share"
      },
      "constructor": {
        "notice": "Constructor"
      },
      "deposit(uint256,uint256,uint256)": {
        "notice": "Deposit Want tokens to associated Vault"
      },
      "depositFullService(uint256,uint256,uint256,uint256,(uint256,uint256,uint256,uint256,uint256,uint256,uint256))": {
        "notice": "Deposits funds in a full service manner (performs autoswaps and obtains Want tokens)"
      },
      "distributeEarningsXChain(uint256,uint256,uint256)": {
        "notice": "Prepares and sends an earnings distribution request cross-chain (back to the home chain)"
      },
      "getTimeMultiplier(uint256)": {
        "notice": "Calculate time multiplier based on duration committed"
      },
      "getUserContribution(uint256,uint256)": {
        "notice": "The contribution of the user, meant to be used in rewards allocations"
      },
      "inCaseTokensGetStuck(address,uint256)": {
        "notice": "For owner to recover ERC20 tokens on this contract if stuck"
      },
      "massUpdatePools()": {
        "notice": "Updates reward variables of all pools"
      },
      "pendingZORRORewards(uint256,address)": {
        "notice": "View function to see pending ZORRO on frontend."
      },
      "poolLength()": {
        "notice": "Number of pools in the Zorro protocol"
      },
      "receiveBurnLockedEarningsRequest(uint256,uint256,uint256,uint256,bytes,bytes)": {
        "notice": "Receives cross chain request for burning any temporarily locked funds for earnings"
      },
      "receiveXChainBurnRewardsRequest(uint256)": {
        "notice": "Receives an authorized burn request from another chain and burns the specified amount of ZOR tokens from the public pool"
      },
      "receiveXChainDepositRequest(address,uint256,uint256,uint256,uint256,uint256,bytes,bytes)": {
        "notice": "Receives a cross chain deposit request from the contract layer of the XchainEndpoint contract"
      },
      "receiveXChainDistributionRequest(uint256,bytes,uint256,uint256,uint256,uint256,bytes,bytes)": {
        "notice": "Receives an authorized request from remote chains to perform earnings fee distribution events, such as: buyback + LP + burn, and revenue share"
      },
      "receiveXChainRepatriationRequest(address,uint256,uint256,uint256,uint256,address,bytes,bytes)": {
        "notice": "Receives a repatriation request from another chain and takes care of all financial operations (unlock/mint/burn) to pay the user their withdrawn funds from another chain"
      },
      "receiveXChainUnlockRequest(address,uint256,bytes,bytes)": {
        "notice": "Receives a request from home chain to unlock and burn temporarily withheld USDC."
      },
      "receiveXChainWithdrawalRequest(address,uint256,uint256,uint256,uint256,bytes,bytes)": {
        "notice": "Receives a cross chain withdrawal request from the contract layer of the XchainEndpoint contract"
      },
      "recoverXChainFeeDist(uint256,uint256,uint256,uint256,bytes,bytes)": {
        "notice": "Recovery function for when home chain `receiveXChainDistributionRequest()` function fails"
      },
      "revertXChainDeposit(address,uint256,bytes,bytes)": {
        "notice": "Called by oracle when the deposit logic on the remote chain failed, and the deposit logic on this chain thus needs to be reverted"
      },
      "sendXChainDepositRequest(uint256,bytes,bytes)": {
        "notice": "Prepares and sends a cross chain deposit request. Takes care of necessary financial ops (transfer/locking USDC)"
      },
      "sendXChainWithdrawalRequest(uint256,bytes,bytes)": {
        "notice": "Prepares and sends a cross chain withdrwal request."
      },
      "set(uint256,uint256,bool)": {
        "notice": "Update the given pool's ZORRO allocation point. Can only be called by the owner."
      },
      "setZorroPerBlock(uint256,uint256,uint256,uint256,uint256)": {
        "notice": "Set the number of Zorro to emit per block based on current market parameters"
      },
      "stakedWantTokens(uint256,address)": {
        "notice": "View function to see staked Want tokens on frontend."
      },
      "trancheLength(uint256,address)": {
        "notice": "Number of tranches invested by a given user into a given pool"
      },
      "transferInvestment(uint256,uint256,uint256,uint256,(uint256,uint256,uint256,uint256,uint256,uint256,uint256))": {
        "notice": "Transfer all assets from a tranche in one vault to a new vault (works on-chain only)"
      },
      "updatePool(uint256)": {
        "notice": "Update reward variables of the given pool to be up-to-date."
      },
      "withdraw(uint256,uint256,bool)": {
        "notice": "Fully withdraw Want tokens from underlying Vault."
      },
      "withdrawAll(uint256)": {
        "notice": "Withdraw the maximum number of Want tokens from a pool"
      },
      "withdrawalFullService(uint256,uint256,bool,uint256,(uint256,uint256,uint256,uint256,uint256,uint256,uint256))": {
        "notice": "Withdraws funds from a pool and converts the Want token into USDC"
      }
    },
    "version": 1
  }
}