{
  "contractName": "ZorroControllerXChainEarn",
  "abi": [
    {
      "anonymous": false,
      "inputs": [
        {
          "indexed": true,
          "internalType": "address",
          "name": "account",
          "type": "address"
        },
        {
          "indexed": true,
          "internalType": "bytes",
          "name": "foreignAccount",
          "type": "bytes"
        },
        {
          "indexed": true,
          "internalType": "uint256",
          "name": "pid",
          "type": "uint256"
        },
        {
          "indexed": false,
          "internalType": "uint256",
          "name": "wantAmount",
          "type": "uint256"
        }
      ],
      "name": "Deposit",
      "type": "event"
    },
    {
      "anonymous": false,
      "inputs": [
        {
          "indexed": true,
          "internalType": "address",
          "name": "previousOwner",
          "type": "address"
        },
        {
          "indexed": true,
          "internalType": "address",
          "name": "newOwner",
          "type": "address"
        }
      ],
      "name": "OwnershipTransferred",
      "type": "event"
    },
    {
      "anonymous": false,
      "inputs": [
        {
          "indexed": true,
          "internalType": "uint256",
          "name": "_amountZOR",
          "type": "uint256"
        }
      ],
      "name": "RemovedSlashedRewards",
      "type": "event"
    },
    {
      "anonymous": false,
      "inputs": [
        {
          "indexed": false,
          "internalType": "address",
          "name": "account",
          "type": "address"
        },
        {
          "indexed": true,
          "internalType": "uint256",
          "name": "fromPid",
          "type": "uint256"
        },
        {
          "indexed": true,
          "internalType": "uint256",
          "name": "fromTrancheId",
          "type": "uint256"
        },
        {
          "indexed": true,
          "internalType": "uint256",
          "name": "toPid",
          "type": "uint256"
        }
      ],
      "name": "TransferInvestment",
      "type": "event"
    },
    {
      "anonymous": false,
      "inputs": [
        {
          "indexed": true,
          "internalType": "address",
          "name": "account",
          "type": "address"
        },
        {
          "indexed": true,
          "internalType": "bytes",
          "name": "foreignAccount",
          "type": "bytes"
        },
        {
          "indexed": true,
          "internalType": "uint256",
          "name": "pid",
          "type": "uint256"
        },
        {
          "indexed": false,
          "internalType": "uint256",
          "name": "trancheId",
          "type": "uint256"
        },
        {
          "indexed": false,
          "internalType": "uint256",
          "name": "wantAmount",
          "type": "uint256"
        }
      ],
      "name": "Withdraw",
      "type": "event"
    },
    {
      "anonymous": false,
      "inputs": [
        {
          "indexed": true,
          "internalType": "uint256",
          "name": "_remoteChainId",
          "type": "uint256"
        },
        {
          "indexed": true,
          "internalType": "uint256",
          "name": "_buybackAmountUSDC",
          "type": "uint256"
        },
        {
          "indexed": true,
          "internalType": "uint256",
          "name": "_revShareAmountUSDC",
          "type": "uint256"
        }
      ],
      "name": "XChainDistributeEarnings",
      "type": "event"
    },
    {
      "inputs": [
        {
          "internalType": "uint16",
          "name": "",
          "type": "uint16"
        }
      ],
      "name": "LZChainToZorroMap",
      "outputs": [
        {
          "internalType": "uint256",
          "name": "",
          "type": "uint256"
        }
      ],
      "stateMutability": "view",
      "type": "function"
    },
    {
      "inputs": [
        {
          "internalType": "uint256",
          "name": "",
          "type": "uint256"
        }
      ],
      "name": "USDCToZorroLPPoolToken0Path",
      "outputs": [
        {
          "internalType": "address",
          "name": "",
          "type": "address"
        }
      ],
      "stateMutability": "view",
      "type": "function"
    },
    {
      "inputs": [
        {
          "internalType": "uint256",
          "name": "",
          "type": "uint256"
        }
      ],
      "name": "USDCToZorroLPPoolToken1Path",
      "outputs": [
        {
          "internalType": "address",
          "name": "",
          "type": "address"
        }
      ],
      "stateMutability": "view",
      "type": "function"
    },
    {
      "inputs": [
        {
          "internalType": "uint256",
          "name": "",
          "type": "uint256"
        }
      ],
      "name": "USDCToZorroPath",
      "outputs": [
        {
          "internalType": "address",
          "name": "",
          "type": "address"
        }
      ],
      "stateMutability": "view",
      "type": "function"
    },
    {
      "inputs": [],
      "name": "ZORRO",
      "outputs": [
        {
          "internalType": "address",
          "name": "",
          "type": "address"
        }
      ],
      "stateMutability": "view",
      "type": "function"
    },
    {
      "inputs": [],
      "name": "ZORRODailyDistributionFactorBasisPointsMax",
      "outputs": [
        {
          "internalType": "uint256",
          "name": "",
          "type": "uint256"
        }
      ],
      "stateMutability": "view",
      "type": "function"
    },
    {
      "inputs": [],
      "name": "ZORRODailyDistributionFactorBasisPointsMin",
      "outputs": [
        {
          "internalType": "uint256",
          "name": "",
          "type": "uint256"
        }
      ],
      "stateMutability": "view",
      "type": "function"
    },
    {
      "inputs": [],
      "name": "ZORROPerBlock",
      "outputs": [
        {
          "internalType": "uint256",
          "name": "",
          "type": "uint256"
        }
      ],
      "stateMutability": "view",
      "type": "function"
    },
    {
      "inputs": [
        {
          "internalType": "uint256",
          "name": "",
          "type": "uint256"
        }
      ],
      "name": "ZorroChainToLZMap",
      "outputs": [
        {
          "internalType": "uint16",
          "name": "",
          "type": "uint16"
        }
      ],
      "stateMutability": "view",
      "type": "function"
    },
    {
      "inputs": [],
      "name": "accumulatedSlashedRewards",
      "outputs": [
        {
          "internalType": "uint256",
          "name": "",
          "type": "uint256"
        }
      ],
      "stateMutability": "view",
      "type": "function"
    },
    {
      "inputs": [],
      "name": "baseRewardRateBasisPoints",
      "outputs": [
        {
          "internalType": "uint256",
          "name": "",
          "type": "uint256"
        }
      ],
      "stateMutability": "view",
      "type": "function"
    },
    {
      "inputs": [],
      "name": "blocksPerDay",
      "outputs": [
        {
          "internalType": "uint256",
          "name": "",
          "type": "uint256"
        }
      ],
      "stateMutability": "view",
      "type": "function"
    },
    {
      "inputs": [],
      "name": "burnAddress",
      "outputs": [
        {
          "internalType": "address",
          "name": "",
          "type": "address"
        }
      ],
      "stateMutability": "view",
      "type": "function"
    },
    {
      "inputs": [],
      "name": "chainId",
      "outputs": [
        {
          "internalType": "uint256",
          "name": "",
          "type": "uint256"
        }
      ],
      "stateMutability": "view",
      "type": "function"
    },
    {
      "inputs": [],
      "name": "chainMultiplier",
      "outputs": [
        {
          "internalType": "uint256",
          "name": "",
          "type": "uint256"
        }
      ],
      "stateMutability": "view",
      "type": "function"
    },
    {
      "inputs": [
        {
          "internalType": "uint256",
          "name": "",
          "type": "uint256"
        }
      ],
      "name": "controllerContractsMap",
      "outputs": [
        {
          "internalType": "bytes",
          "name": "",
          "type": "bytes"
        }
      ],
      "stateMutability": "view",
      "type": "function"
    },
    {
      "inputs": [],
      "name": "curveDefaultStablecoinIndex",
      "outputs": [
        {
          "internalType": "int128",
          "name": "",
          "type": "int128"
        }
      ],
      "stateMutability": "view",
      "type": "function"
    },
    {
      "inputs": [],
      "name": "curveStablePoolAddress",
      "outputs": [
        {
          "internalType": "address",
          "name": "",
          "type": "address"
        }
      ],
      "stateMutability": "view",
      "type": "function"
    },
    {
      "inputs": [],
      "name": "curveSyntheticStablecoinIndex",
      "outputs": [
        {
          "internalType": "int128",
          "name": "",
          "type": "int128"
        }
      ],
      "stateMutability": "view",
      "type": "function"
    },
    {
      "inputs": [],
      "name": "defaultMaxMarketMovement",
      "outputs": [
        {
          "internalType": "uint256",
          "name": "",
          "type": "uint256"
        }
      ],
      "stateMutability": "view",
      "type": "function"
    },
    {
      "inputs": [],
      "name": "defaultStablecoin",
      "outputs": [
        {
          "internalType": "address",
          "name": "",
          "type": "address"
        }
      ],
      "stateMutability": "view",
      "type": "function"
    },
    {
      "inputs": [
        {
          "internalType": "uint256",
          "name": "_pid",
          "type": "uint256"
        },
        {
          "internalType": "uint256",
          "name": "_wantAmt",
          "type": "uint256"
        },
        {
          "internalType": "uint256",
          "name": "_weeksCommitted",
          "type": "uint256"
        }
      ],
      "name": "deposit",
      "outputs": [],
      "stateMutability": "nonpayable",
      "type": "function"
    },
    {
      "inputs": [
        {
          "internalType": "uint256",
          "name": "_pid",
          "type": "uint256"
        },
        {
          "internalType": "uint256",
          "name": "_valueUSDC",
          "type": "uint256"
        },
        {
          "internalType": "uint256",
          "name": "_weeksCommitted",
          "type": "uint256"
        },
        {
          "internalType": "uint256",
          "name": "_maxMarketMovement",
          "type": "uint256"
        }
      ],
      "name": "depositFullService",
      "outputs": [],
      "stateMutability": "nonpayable",
      "type": "function"
    },
    {
      "inputs": [],
      "name": "failedLockedBuybackUSDC",
      "outputs": [
        {
          "internalType": "uint256",
          "name": "",
          "type": "uint256"
        }
      ],
      "stateMutability": "view",
      "type": "function"
    },
    {
      "inputs": [],
      "name": "failedLockedRevShareUSDC",
      "outputs": [
        {
          "internalType": "uint256",
          "name": "",
          "type": "uint256"
        }
      ],
      "stateMutability": "view",
      "type": "function"
    },
    {
      "inputs": [
        {
          "internalType": "uint256",
          "name": "",
          "type": "uint256"
        },
        {
          "internalType": "bytes",
          "name": "",
          "type": "bytes"
        },
        {
          "internalType": "uint256",
          "name": "",
          "type": "uint256"
        }
      ],
      "name": "foreignTrancheInfo",
      "outputs": [
        {
          "internalType": "address",
          "name": "",
          "type": "address"
        }
      ],
      "stateMutability": "view",
      "type": "function"
    },
    {
      "inputs": [
        {
          "internalType": "uint256",
          "name": "durationInWeeks",
          "type": "uint256"
        }
      ],
      "name": "getTimeMultiplier",
      "outputs": [
        {
          "internalType": "uint256",
          "name": "",
          "type": "uint256"
        }
      ],
      "stateMutability": "view",
      "type": "function"
    },
    {
      "inputs": [
        {
          "internalType": "uint256",
          "name": "_liquidityCommitted",
          "type": "uint256"
        },
        {
          "internalType": "uint256",
          "name": "_timeMultiplier",
          "type": "uint256"
        }
      ],
      "name": "getUserContribution",
      "outputs": [
        {
          "internalType": "uint256",
          "name": "",
          "type": "uint256"
        }
      ],
      "stateMutability": "pure",
      "type": "function"
    },
    {
      "inputs": [],
      "name": "homeChainId",
      "outputs": [
        {
          "internalType": "uint256",
          "name": "",
          "type": "uint256"
        }
      ],
      "stateMutability": "view",
      "type": "function"
    },
    {
      "inputs": [],
      "name": "homeChainZorroController",
      "outputs": [
        {
          "internalType": "address",
          "name": "",
          "type": "address"
        }
      ],
      "stateMutability": "view",
      "type": "function"
    },
    {
      "inputs": [
        {
          "internalType": "address",
          "name": "_token",
          "type": "address"
        },
        {
          "internalType": "uint256",
          "name": "_amount",
          "type": "uint256"
        }
      ],
      "name": "inCaseTokensGetStuck",
      "outputs": [],
      "stateMutability": "nonpayable",
      "type": "function"
    },
    {
      "inputs": [],
      "name": "isTimeMultiplierActive",
      "outputs": [
        {
          "internalType": "bool",
          "name": "",
          "type": "bool"
        }
      ],
      "stateMutability": "view",
      "type": "function"
    },
    {
      "inputs": [],
      "name": "layerZeroEndpoint",
      "outputs": [
        {
          "internalType": "address",
          "name": "",
          "type": "address"
        }
      ],
      "stateMutability": "view",
      "type": "function"
    },
    {
      "inputs": [],
      "name": "lockUSDCController",
      "outputs": [
        {
          "internalType": "address",
          "name": "",
          "type": "address"
        }
      ],
      "stateMutability": "view",
      "type": "function"
    },
    {
      "inputs": [],
      "name": "owner",
      "outputs": [
        {
          "internalType": "address",
          "name": "",
          "type": "address"
        }
      ],
      "stateMutability": "view",
      "type": "function"
    },
    {
      "inputs": [
        {
          "internalType": "uint256",
          "name": "",
          "type": "uint256"
        }
      ],
      "name": "poolInfo",
      "outputs": [
        {
          "internalType": "contract IERC20",
          "name": "want",
          "type": "address"
        },
        {
          "internalType": "uint256",
          "name": "allocPoint",
          "type": "uint256"
        },
        {
          "internalType": "uint256",
          "name": "lastRewardBlock",
          "type": "uint256"
        },
        {
          "internalType": "uint256",
          "name": "accZORRORewards",
          "type": "uint256"
        },
        {
          "internalType": "uint256",
          "name": "totalTrancheContributions",
          "type": "uint256"
        },
        {
          "internalType": "address",
          "name": "vault",
          "type": "address"
        }
      ],
      "stateMutability": "view",
      "type": "function"
    },
    {
      "inputs": [],
      "name": "poolLength",
      "outputs": [
        {
          "internalType": "uint256",
          "name": "",
          "type": "uint256"
        }
      ],
      "stateMutability": "view",
      "type": "function"
    },
    {
      "inputs": [],
      "name": "priceFeedLPPoolOtherToken",
      "outputs": [
        {
          "internalType": "contract AggregatorV3Interface",
          "name": "",
          "type": "address"
        }
      ],
      "stateMutability": "view",
      "type": "function"
    },
    {
      "inputs": [],
      "name": "priceFeedZOR",
      "outputs": [
        {
          "internalType": "contract AggregatorV3Interface",
          "name": "",
          "type": "address"
        }
      ],
      "stateMutability": "view",
      "type": "function"
    },
    {
      "inputs": [],
      "name": "publicPool",
      "outputs": [
        {
          "internalType": "address",
          "name": "",
          "type": "address"
        }
      ],
      "stateMutability": "view",
      "type": "function"
    },
    {
      "inputs": [
        {
          "internalType": "uint256",
          "name": "",
          "type": "uint256"
        },
        {
          "internalType": "address",
          "name": "",
          "type": "address"
        }
      ],
      "name": "redepositInfo",
      "outputs": [
        {
          "internalType": "uint256",
          "name": "durationCommittedInWeeks",
          "type": "uint256"
        },
        {
          "internalType": "uint256",
          "name": "enteredVaultAt",
          "type": "uint256"
        }
      ],
      "stateMutability": "view",
      "type": "function"
    },
    {
      "inputs": [
        {
          "internalType": "bytes",
          "name": "_contract",
          "type": "bytes"
        }
      ],
      "name": "registerXChainController",
      "outputs": [],
      "stateMutability": "nonpayable",
      "type": "function"
    },
    {
      "inputs": [
        {
          "internalType": "bytes",
          "name": "",
          "type": "bytes"
        }
      ],
      "name": "registeredXChainControllers",
      "outputs": [
        {
          "internalType": "bool",
          "name": "",
          "type": "bool"
        }
      ],
      "stateMutability": "view",
      "type": "function"
    },
    {
      "inputs": [],
      "name": "renounceOwnership",
      "outputs": [],
      "stateMutability": "nonpayable",
      "type": "function"
    },
    {
      "inputs": [
        {
          "internalType": "uint256",
          "name": "_baseRewardRateBasisPoints",
          "type": "uint256"
        }
      ],
      "name": "setBaseRewardRateBasisPoints",
      "outputs": [],
      "stateMutability": "nonpayable",
      "type": "function"
    },
    {
      "inputs": [
        {
          "internalType": "uint256",
          "name": "_blocksPerDay",
          "type": "uint256"
        }
      ],
      "name": "setBlocksPerDay",
      "outputs": [],
      "stateMutability": "nonpayable",
      "type": "function"
    },
    {
      "inputs": [
        {
          "internalType": "uint256",
          "name": "_chainId",
          "type": "uint256"
        }
      ],
      "name": "setChainId",
      "outputs": [],
      "stateMutability": "nonpayable",
      "type": "function"
    },
    {
      "inputs": [
        {
          "internalType": "uint256",
          "name": "_chainMultiplier",
          "type": "uint256"
        }
      ],
      "name": "setChainMultiplier",
      "outputs": [],
      "stateMutability": "nonpayable",
      "type": "function"
    },
    {
      "inputs": [
        {
          "internalType": "address",
          "name": "_curveStablePoolAddress",
          "type": "address"
        }
      ],
      "name": "setCurveStablePoolAddress",
      "outputs": [],
      "stateMutability": "nonpayable",
      "type": "function"
    },
    {
      "inputs": [
        {
          "internalType": "uint256",
          "name": "_defaultMaxMarketMovement",
          "type": "uint256"
        }
      ],
      "name": "setDefaultMaxMarketMovement",
      "outputs": [],
      "stateMutability": "nonpayable",
      "type": "function"
    },
    {
      "inputs": [
        {
          "internalType": "address",
          "name": "_defaultStablecoin",
          "type": "address"
        }
      ],
      "name": "setDefaultStablecoin",
      "outputs": [],
      "stateMutability": "nonpayable",
      "type": "function"
    },
    {
      "inputs": [
        {
          "internalType": "uint256",
          "name": "_chainId",
          "type": "uint256"
        },
        {
          "internalType": "bytes",
          "name": "_endpointContract",
          "type": "bytes"
        }
      ],
      "name": "setEndpointContracts",
      "outputs": [],
      "stateMutability": "nonpayable",
      "type": "function"
    },
    {
      "inputs": [
        {
          "internalType": "address",
          "name": "_homeChainZorroController",
          "type": "address"
        }
      ],
      "name": "setHomeChainZorroController",
      "outputs": [],
      "stateMutability": "nonpayable",
      "type": "function"
    },
    {
      "inputs": [
        {
          "internalType": "bool",
          "name": "_isActive",
          "type": "bool"
        }
      ],
      "name": "setIsTimeMultiplierActive",
      "outputs": [],
      "stateMutability": "nonpayable",
      "type": "function"
    },
    {
      "inputs": [
        {
          "internalType": "address",
          "name": "_lockUSDCController",
          "type": "address"
        }
      ],
      "name": "setLockUSDCController",
      "outputs": [],
      "stateMutability": "nonpayable",
      "type": "function"
    },
    {
      "inputs": [
        {
          "internalType": "address",
          "name": "_priceFeedLPPoolOtherToken",
          "type": "address"
        }
      ],
      "name": "setPriceFeedLPPoolOtherToken",
      "outputs": [],
      "stateMutability": "nonpayable",
      "type": "function"
    },
    {
      "inputs": [
        {
          "internalType": "address",
          "name": "_priceFeedZOR",
          "type": "address"
        }
      ],
      "name": "setPriceFeedZOR",
      "outputs": [],
      "stateMutability": "nonpayable",
      "type": "function"
    },
    {
      "inputs": [
        {
          "internalType": "address",
          "name": "_publicPoolAddress",
          "type": "address"
        }
      ],
      "name": "setPublicPool",
      "outputs": [],
      "stateMutability": "nonpayable",
      "type": "function"
    },
    {
      "inputs": [
        {
          "internalType": "uint256",
          "name": "_blockNumber",
          "type": "uint256"
        }
      ],
      "name": "setStartBlock",
      "outputs": [],
      "stateMutability": "nonpayable",
      "type": "function"
    },
    {
      "inputs": [
        {
          "internalType": "address",
          "name": "_syntheticStablecoin",
          "type": "address"
        }
      ],
      "name": "setSyntheticStablecoin",
      "outputs": [],
      "stateMutability": "nonpayable",
      "type": "function"
    },
    {
      "inputs": [
        {
          "internalType": "uint256",
          "name": "_targetTVLCaptureBasisPoints",
          "type": "uint256"
        }
      ],
      "name": "setTargetTVLCaptureBasisPoints",
      "outputs": [],
      "stateMutability": "nonpayable",
      "type": "function"
    },
    {
      "inputs": [
        {
          "internalType": "address[]",
          "name": "_path",
          "type": "address[]"
        }
      ],
      "name": "setUSDCToZorroLPPoolToken0Path",
      "outputs": [],
      "stateMutability": "nonpayable",
      "type": "function"
    },
    {
      "inputs": [
        {
          "internalType": "address[]",
          "name": "_path",
          "type": "address[]"
        }
      ],
      "name": "setUSDCToZorroLPPoolToken1Path",
      "outputs": [],
      "stateMutability": "nonpayable",
      "type": "function"
    },
    {
      "inputs": [
        {
          "internalType": "address",
          "name": "_uniV2Router",
          "type": "address"
        }
      ],
      "name": "setUniRouter",
      "outputs": [],
      "stateMutability": "nonpayable",
      "type": "function"
    },
    {
      "inputs": [
        {
          "internalType": "address",
          "name": "_xChainReceivingOracle",
          "type": "address"
        }
      ],
      "name": "setXChainReceivingOracle",
      "outputs": [],
      "stateMutability": "nonpayable",
      "type": "function"
    },
    {
      "inputs": [
        {
          "internalType": "uint256",
          "name": "_value",
          "type": "uint256"
        }
      ],
      "name": "setZORRODailyDistributionFactorBasisPointsMax",
      "outputs": [],
      "stateMutability": "nonpayable",
      "type": "function"
    },
    {
      "inputs": [
        {
          "internalType": "uint256",
          "name": "_value",
          "type": "uint256"
        }
      ],
      "name": "setZORRODailyDistributionFactorBasisPointsMin",
      "outputs": [],
      "stateMutability": "nonpayable",
      "type": "function"
    },
    {
      "inputs": [
        {
          "internalType": "address",
          "name": "_zorroControllerOracle",
          "type": "address"
        }
      ],
      "name": "setZorroControllerOracle",
      "outputs": [],
      "stateMutability": "nonpayable",
      "type": "function"
    },
    {
      "inputs": [
        {
          "internalType": "address",
          "name": "_zorroLPPool",
          "type": "address"
        }
      ],
      "name": "setZorroLPPool",
      "outputs": [],
      "stateMutability": "nonpayable",
      "type": "function"
    },
    {
      "inputs": [
        {
          "internalType": "address",
          "name": "_token",
          "type": "address"
        }
      ],
      "name": "setZorroLPPoolOtherToken",
      "outputs": [],
      "stateMutability": "nonpayable",
      "type": "function"
    },
    {
      "inputs": [
        {
          "internalType": "uint256",
          "name": "_totalChainMultipliers",
          "type": "uint256"
        },
        {
          "internalType": "uint256",
          "name": "_totalMarketTVLUSD",
          "type": "uint256"
        },
        {
          "internalType": "uint256",
          "name": "_targetTVLCaptureBasisPoints",
          "type": "uint256"
        },
        {
          "internalType": "uint256",
          "name": "_ZorroTotalVaultTVLUSD",
          "type": "uint256"
        },
        {
          "internalType": "uint256",
          "name": "_publicPoolZORBalance",
          "type": "uint256"
        }
      ],
      "name": "setZorroPerBlock",
      "outputs": [],
      "stateMutability": "nonpayable",
      "type": "function"
    },
    {
      "inputs": [
        {
          "internalType": "address",
          "name": "_zorroStakingVault",
          "type": "address"
        }
      ],
      "name": "setZorroStakingVault",
      "outputs": [],
      "stateMutability": "nonpayable",
      "type": "function"
    },
    {
      "inputs": [
        {
          "internalType": "uint256",
          "name": "",
          "type": "uint256"
        }
      ],
      "name": "stargateDestPoolIds",
      "outputs": [
        {
          "internalType": "uint256",
          "name": "",
          "type": "uint256"
        }
      ],
      "stateMutability": "view",
      "type": "function"
    },
    {
      "inputs": [],
      "name": "stargateRouter",
      "outputs": [
        {
          "internalType": "address",
          "name": "",
          "type": "address"
        }
      ],
      "stateMutability": "view",
      "type": "function"
    },
    {
      "inputs": [],
      "name": "stargateSwapPoolId",
      "outputs": [
        {
          "internalType": "uint256",
          "name": "",
          "type": "uint256"
        }
      ],
      "stateMutability": "view",
      "type": "function"
    },
    {
      "inputs": [],
      "name": "startBlock",
      "outputs": [
        {
          "internalType": "uint256",
          "name": "",
          "type": "uint256"
        }
      ],
      "stateMutability": "view",
      "type": "function"
    },
    {
      "inputs": [],
      "name": "syntheticStablecoin",
      "outputs": [
        {
          "internalType": "address",
          "name": "",
          "type": "address"
        }
      ],
      "stateMutability": "view",
      "type": "function"
    },
    {
      "inputs": [],
      "name": "targetTVLCaptureBasisPoints",
      "outputs": [
        {
          "internalType": "uint256",
          "name": "",
          "type": "uint256"
        }
      ],
      "stateMutability": "view",
      "type": "function"
    },
    {
      "inputs": [],
      "name": "totalAllocPoint",
      "outputs": [
        {
          "internalType": "uint256",
          "name": "",
          "type": "uint256"
        }
      ],
      "stateMutability": "view",
      "type": "function"
    },
    {
      "inputs": [
        {
          "internalType": "uint256",
          "name": "",
          "type": "uint256"
        },
        {
          "internalType": "address",
          "name": "",
          "type": "address"
        },
        {
          "internalType": "uint256",
          "name": "",
          "type": "uint256"
        }
      ],
      "name": "trancheInfo",
      "outputs": [
        {
          "internalType": "uint256",
          "name": "contribution",
          "type": "uint256"
        },
        {
          "internalType": "uint256",
          "name": "timeMultiplier",
          "type": "uint256"
        },
        {
          "internalType": "uint256",
          "name": "rewardDebt",
          "type": "uint256"
        },
        {
          "internalType": "uint256",
          "name": "durationCommittedInWeeks",
          "type": "uint256"
        },
        {
          "internalType": "uint256",
          "name": "enteredVaultAt",
          "type": "uint256"
        },
        {
          "internalType": "uint256",
          "name": "exitedVaultAt",
          "type": "uint256"
        }
      ],
      "stateMutability": "view",
      "type": "function"
    },
    {
      "inputs": [
        {
          "internalType": "uint256",
          "name": "_pid",
          "type": "uint256"
        },
        {
          "internalType": "address",
          "name": "_user",
          "type": "address"
        }
      ],
      "name": "trancheLength",
      "outputs": [
        {
          "internalType": "uint256",
          "name": "",
          "type": "uint256"
        }
      ],
      "stateMutability": "view",
      "type": "function"
    },
    {
      "inputs": [
        {
          "internalType": "uint256",
          "name": "_fromPid",
          "type": "uint256"
        },
        {
          "internalType": "uint256",
          "name": "_fromTrancheId",
          "type": "uint256"
        },
        {
          "internalType": "uint256",
          "name": "_toPid",
          "type": "uint256"
        },
        {
          "internalType": "uint256",
          "name": "_maxMarketMovement",
          "type": "uint256"
        }
      ],
      "name": "transferInvestment",
      "outputs": [],
      "stateMutability": "nonpayable",
      "type": "function"
    },
    {
      "inputs": [
        {
          "internalType": "address",
          "name": "newOwner",
          "type": "address"
        }
      ],
      "name": "transferOwnership",
      "outputs": [],
      "stateMutability": "nonpayable",
      "type": "function"
    },
    {
      "inputs": [
        {
          "internalType": "bytes",
          "name": "_contract",
          "type": "bytes"
        }
      ],
      "name": "unRegisterXChainController",
      "outputs": [],
      "stateMutability": "nonpayable",
      "type": "function"
    },
    {
      "inputs": [],
      "name": "uniRouterAddress",
      "outputs": [
        {
          "internalType": "address",
          "name": "",
          "type": "address"
        }
      ],
      "stateMutability": "view",
      "type": "function"
    },
    {
      "inputs": [
        {
          "internalType": "uint256",
          "name": "_pid",
          "type": "uint256"
        }
      ],
      "name": "updatePool",
      "outputs": [
        {
          "internalType": "uint256",
          "name": "",
          "type": "uint256"
        }
      ],
      "stateMutability": "nonpayable",
      "type": "function"
    },
    {
      "inputs": [
        {
          "internalType": "uint256",
          "name": "_pid",
          "type": "uint256"
        },
        {
          "internalType": "uint256",
          "name": "_trancheId",
          "type": "uint256"
        },
        {
          "internalType": "bool",
          "name": "_harvestOnly",
          "type": "bool"
        }
      ],
      "name": "withdraw",
      "outputs": [
        {
          "internalType": "uint256",
          "name": "",
          "type": "uint256"
        }
      ],
      "stateMutability": "nonpayable",
      "type": "function"
    },
    {
      "inputs": [
        {
          "internalType": "uint256",
          "name": "_pid",
          "type": "uint256"
        }
      ],
      "name": "withdrawAll",
      "outputs": [],
      "stateMutability": "nonpayable",
      "type": "function"
    },
    {
      "inputs": [
        {
          "internalType": "uint256",
          "name": "_pid",
          "type": "uint256"
        },
        {
          "internalType": "uint256",
          "name": "_trancheId",
          "type": "uint256"
        },
        {
          "internalType": "bool",
          "name": "_harvestOnly",
          "type": "bool"
        },
        {
          "internalType": "uint256",
          "name": "_maxMarketMovement",
          "type": "uint256"
        }
      ],
      "name": "withdrawalFullService",
      "outputs": [
        {
          "internalType": "uint256",
          "name": "",
          "type": "uint256"
        }
      ],
      "stateMutability": "nonpayable",
      "type": "function"
    },
    {
      "inputs": [],
      "name": "xChainReceivingOracle",
      "outputs": [
        {
          "internalType": "address",
          "name": "",
          "type": "address"
        }
      ],
      "stateMutability": "view",
      "type": "function"
    },
    {
      "inputs": [],
      "name": "zorroControllerOracle",
      "outputs": [
        {
          "internalType": "address",
          "name": "",
          "type": "address"
        }
      ],
      "stateMutability": "view",
      "type": "function"
    },
    {
      "inputs": [],
      "name": "zorroLPPool",
      "outputs": [
        {
          "internalType": "address",
          "name": "",
          "type": "address"
        }
      ],
      "stateMutability": "view",
      "type": "function"
    },
    {
      "inputs": [],
      "name": "zorroLPPoolOtherToken",
      "outputs": [
        {
          "internalType": "address",
          "name": "",
          "type": "address"
        }
      ],
      "stateMutability": "view",
      "type": "function"
    },
    {
      "inputs": [],
      "name": "zorroStakingVault",
      "outputs": [
        {
          "internalType": "address",
          "name": "",
          "type": "address"
        }
      ],
      "stateMutability": "view",
      "type": "function"
    },
    {
      "inputs": [
        {
          "internalType": "uint256",
          "name": "_amountUSDCBuyback",
          "type": "uint256"
        },
        {
          "internalType": "uint256",
          "name": "_amountUSDCRevShare",
          "type": "uint256"
        },
        {
          "internalType": "uint256",
          "name": "_accSlashedRewards",
          "type": "uint256"
        }
      ],
      "name": "checkXChainDistributeEarningsFee",
      "outputs": [
        {
          "internalType": "uint256",
          "name": "",
          "type": "uint256"
        }
      ],
      "stateMutability": "view",
      "type": "function"
    },
    {
      "inputs": [
        {
          "internalType": "uint256",
          "name": "_pid",
          "type": "uint256"
        },
        {
          "internalType": "uint256",
          "name": "_buybackAmountUSDC",
          "type": "uint256"
        },
        {
          "internalType": "uint256",
          "name": "_revShareAmountUSDC",
          "type": "uint256"
        },
        {
          "internalType": "uint256",
          "name": "_maxMarketMovement",
          "type": "uint256"
        }
      ],
      "name": "sendXChainDistributeEarningsRequest",
      "outputs": [],
      "stateMutability": "payable",
      "type": "function"
    },
    {
      "inputs": [
        {
          "internalType": "uint256",
          "name": "_remoteChainId",
          "type": "uint256"
        },
        {
          "internalType": "uint256",
          "name": "_amountUSDCBuyback",
          "type": "uint256"
        },
        {
          "internalType": "uint256",
          "name": "_amountUSDCRevShare",
          "type": "uint256"
        },
        {
          "internalType": "uint256",
          "name": "_accSlashedRewards",
          "type": "uint256"
        }
      ],
      "name": "receiveXChainDistributionRequest",
      "outputs": [],
      "stateMutability": "nonpayable",
      "type": "function"
    }
  ],
  "bytecode": "0x608060405260038054600160a060020a03191661dead179055617080600655600160098190556014600a908155600b829055600c805460ff1916909217909155600d556103ca6018556000601c8190556030553480156200005f57600080fd5b50620000866200007764010000000062000090810204565b64010000000062000094810204565b60018055620000e4565b3390565b60008054600160a060020a03838116600160a060020a0319831681178455604051919092169283917f8be0079c531659141344cd1fd0a4f28419497f9722a3daafe3b4186f6b6457e09190a35050565b6147e780620000f46000396000f3fe60806040526004361061055a576000357c01000000000000000000000000000000000000000000000000000000009004806376cc2303116102da578063b4b4e9eb1161019d578063e7d7ce8a11610104578063ef0e2ff4116100bd578063f2fde38b11610097578063f2fde38b146111c3578063f35e4a6e146111e3578063fb73170b14611203578063fc39a29e1461122357600080fd5b8063ef0e2ff41461116d578063ef1269671461118d578063ef190fec146111a357600080fd5b8063e7d7ce8a146110bd578063e940f6e1146110dd578063ea07667a146110f3578063ebfba7c414611113578063ec54e4a414611133578063ee4e26871461114d57600080fd5b8063c524a05611610156578063c524a05614611011578063c6d758cb14611031578063cb9c2f6814611051578063ce9e292814611067578063d85c554814611087578063ddd88fec1461109d57600080fd5b8063b4b4e9eb14610efa578063b614bdba14610f47578063b61bb80a14610f67578063c27893ef14610f87578063c293614214610fa7578063c29de0d214610fbd57600080fd5b8063958e2d3111610241578063a00c807c116101fa578063a00c807c14610e3a578063a4d2b08314610e5a578063a80bee0714610e7a578063a9418d6714610e9a578063a9e56f3c14610eba578063b22f325114610eda57600080fd5b8063958e2d3114610d98578063959334f414610db85780639a8a059214610dd85780639b8ad2d614610dee5780639cde7a0014610e045780639cebd37114610e2457600080fd5b8063871869ca11610293578063871869ca14610ce05780638c157db214610d005780638da5cb5b14610d20578063941d3fd014610d3e57806394909cc214610d585780639568786c14610d7857600080fd5b806376cc230314610c2a57806379777d8114610c405780637bf604d814610c605780637e37c76914610c8057806381ea795d14610ca0578063823c43d014610cc057600080fd5b80634780f9f5116104225780636179ecd1116103895780636b8eb2e5116103425780636b8eb2e514610b755780636c78d49c14610b955780636ca8bd6514610bb557806370d5ae0514610bd5578063715018a614610bf5578063745af0a814610c0a57600080fd5b80636179ecd114610a8a57806365bc77bc14610aaa578063668ababb14610af5578063683dc6f514610b1557806368ce004b14610b35578063693a090b14610b5557600080fd5b806353f73f87116103db57806353f73f87146109d15780635527a6f9146109f15780635790f59914610a07578063592dcbd314610a1d578063593af9fe14610a3d5780635ef573f914610a6a57600080fd5b80634780f9f51461092557806348cd4cb11461094557806348d57c8e1461095b5780634cfea68a1461097b5780635051d3711461099157806351eb05a6146109b157600080fd5b806333cfcd3b116104c65780633b9ce5651161047f5780633b9ce565146108585780633bbc1ffc1461086e5780634098b0eb1461088e578063416d0de7146108ae578063459f4753146108ce578063464e3c8b1461091257600080fd5b806333cfcd3b146107815780633486a32e146107a1578063353b6c2c146107c157806337541464146107e15780633b35b727146108225780633b7106881461084257600080fd5b80631526fe27116105185780631526fe271461063d57806317caf6f114610699578063219b38b8146106af57806326fc7c7d146106dc578063293da9d4146106fc5780632e31283d1461072957600080fd5b8062aeef8a1461055f578063025b10451461058157806307968db1146105be578063081e3eda146105de578063104a6132146105fd5780631479a6df1461061d575b600080fd5b34801561056b57600080fd5b5061057f61057a366004613eee565b611243565b005b34801561058d57600080fd5b506022546105a190600160a060020a031681565b604051600160a060020a0390911681526020015b60405180910390f35b3480156105ca57600080fd5b506028546105a190600160a060020a031681565b3480156105ea57600080fd5b50602d545b6040519081526020016105b5565b34801561060957600080fd5b506105a1610618366004613f1a565b611300565b34801561062957600080fd5b5061057f610638366004613f1a565b61132a565b34801561064957600080fd5b5061065d610658366004613f1a565b61135c565b60408051600160a060020a03978816815260208101969096528501939093526060840191909152608083015290911660a082015260c0016105b5565b3480156106a557600080fd5b506105ef60305481565b3480156106bb57600080fd5b506105ef6106ca366004613f1a565b60276020526000908152604090205481565b3480156106e857600080fd5b5061057f6106f7366004613f4a565b6113af565b34801561070857600080fd5b506105ef610717366004613f65565b60246020526000908152604090205481565b34801561073557600080fd5b506105a1610744366004614043565b602f6020908152600093845260408085208451808601840180519281529084019584019590952094529290528252902054600160a060020a031681565b34801561078d57600080fd5b506105ef61079c3660046140a1565b6113fe565b3480156107ad57600080fd5b5061057f6107bc366004613f4a565b611498565b3480156107cd57600080fd5b5061057f6107dc366004613f1a565b6114e7565b3480156107ed57600080fd5b5060115461080f907001000000000000000000000000000000009004600f0b81565b604051600f9190910b81526020016105b5565b34801561082e57600080fd5b5061057f61083d366004613f1a565b611519565b34801561084e57600080fd5b506105ef600d5481565b34801561086457600080fd5b506105ef600a5481565b34801561087a57600080fd5b5061057f610889366004613f1a565b61154b565b34801561089a57600080fd5b5061057f6108a9366004613f1a565b61157d565b3480156108ba57600080fd5b50600f546105a190600160a060020a031681565b3480156108da57600080fd5b506108ff6108e9366004613f1a565b60236020526000908152604090205461ffff1681565b60405161ffff90911681526020016105b5565b61057f6109203660046140da565b6115af565b34801561093157600080fd5b5061057f6109403660046140da565b61187f565b34801561095157600080fd5b506105ef60055481565b34801561096757600080fd5b50601f546105a190600160a060020a031681565b34801561098757600080fd5b506105ef60065481565b34801561099d57600080fd5b5061057f6109ac366004613f4a565b611928565b3480156109bd57600080fd5b506105ef6109cc366004613f1a565b611977565b3480156109dd57600080fd5b506105ef6109ec36600461410c565b611af6565b3480156109fd57600080fd5b506105ef60095481565b348015610a1357600080fd5b506105ef60265481565b348015610a2957600080fd5b5061057f610a38366004613f4a565b611b1e565b348015610a4957600080fd5b50610a5d610a58366004613f1a565b611b6d565b6040516105b59190614190565b348015610a7657600080fd5b5061057f610a853660046140da565b611c07565b348015610a9657600080fd5b5061057f610aa5366004613f1a565b611c58565b348015610ab657600080fd5b50610ae5610ac53660046141a3565b8051602081830181018051601e8252928201919093012091525460ff1681565b60405190151581526020016105b5565b348015610b0157600080fd5b506004546105a190600160a060020a031681565b348015610b2157600080fd5b5061057f610b30366004613f4a565b611c8a565b348015610b4157600080fd5b5061057f610b503660046141d8565b611cd9565b348015610b6157600080fd5b506014546105a190600160a060020a031681565b348015610b8157600080fd5b5061057f610b90366004614284565b611d1d565b348015610ba157600080fd5b5061057f610bb03660046142bf565b611e1c565b348015610bc157600080fd5b5061057f610bd0366004613f4a565b611e5c565b348015610be157600080fd5b506003546105a190600160a060020a031681565b348015610c0157600080fd5b5061057f611eab565b348015610c1657600080fd5b506105ef610c253660046142dc565b611ee4565b348015610c3657600080fd5b506105ef60215481565b348015610c4c57600080fd5b50602b546105a190600160a060020a031681565b348015610c6c57600080fd5b506012546105a190600160a060020a031681565b348015610c8c57600080fd5b5061057f610c9b3660046140da565b611f5e565b348015610cac57600080fd5b5061057f610cbb3660046141a3565b6120df565b348015610ccc57600080fd5b50602c546105a190600160a060020a031681565b348015610cec57600080fd5b5061057f610cfb3660046141a3565b612141565b348015610d0c57600080fd5b506002546105a190600160a060020a031681565b348015610d2c57600080fd5b50600054600160a060020a03166105a1565b348015610d4a57600080fd5b50600c54610ae59060ff1681565b348015610d6457600080fd5b5061057f610d73366004613f4a565b612180565b348015610d8457600080fd5b506105ef610d93366004613f1a565b6121cf565b348015610da457600080fd5b5061057f610db3366004613f1a565b6122a8565b348015610dc457600080fd5b5061057f610dd3366004613f4a565b612312565b348015610de457600080fd5b506105ef601b5481565b348015610dfa57600080fd5b506105ef60185481565b348015610e1057600080fd5b506105a1610e1f366004613f1a565b612361565b348015610e3057600080fd5b506105ef600b5481565b348015610e4657600080fd5b5061057f610e553660046141d8565b612371565b348015610e6657600080fd5b506019546105a190600160a060020a031681565b348015610e8657600080fd5b506105ef610e9536600461431b565b6123b1565b348015610ea657600080fd5b5061057f610eb5366004613f4a565b6123cd565b348015610ec657600080fd5b506025546105a190600160a060020a031681565b348015610ee657600080fd5b50602a546105a190600160a060020a031681565b348015610f0657600080fd5b50610f1a610f1536600461433d565b612475565b604080519687526020870195909552938501929092526060840152608083015260a082015260c0016105b5565b348015610f5357600080fd5b506105a1610f62366004613f1a565b6124d6565b348015610f7357600080fd5b50600e546105a190600160a060020a031681565b348015610f9357600080fd5b506010546105a190600160a060020a031681565b348015610fb357600080fd5b506105ef60075481565b348015610fc957600080fd5b50610ffc610fd836600461410c565b60316020908152600092835260408084209091529082529020805460019091015482565b604080519283526020830191909152016105b5565b34801561101d57600080fd5b5061057f61102c366004613f4a565b6124e6565b34801561103d57600080fd5b5061057f61104c366004614372565b612535565b34801561105d57600080fd5b506105ef60085481565b34801561107357600080fd5b5061057f611082366004613f4a565b6125fd565b34801561109357600080fd5b506105ef60205481565b3480156110a957600080fd5b5061057f6110b8366004613f4a565b61264c565b3480156110c957600080fd5b506105ef6110d8366004613eee565b61269b565b3480156110e957600080fd5b506105ef60295481565b3480156110ff57600080fd5b5061057f61110e366004613f1a565b6127c8565b34801561111f57600080fd5b506013546105a190600160a060020a031681565b34801561113f57600080fd5b5060115461080f90600f0b81565b34801561115957600080fd5b5061057f611168366004613f4a565b6127fa565b34801561117957600080fd5b5061057f611188366004613f1a565b612849565b34801561119957600080fd5b506105ef601c5481565b3480156111af57600080fd5b5061057f6111be366004613f4a565b61287b565b3480156111cf57600080fd5b5061057f6111de366004613f4a565b6128ca565b3480156111ef57600080fd5b5061057f6111fe366004613f1a565b612982565b34801561120f57600080fd5b5061057f61121e36600461439c565b6129b4565b34801561122f57600080fd5b50601a546105a190600160a060020a031681565b600260015414156112725760405160e560020a62461bcd02815260040161126990614418565b60405180910390fd5b60026001819055506000602d848154811061128f5761128f61444f565b6000918252602090912060069091020180549091506112b890600160a060020a031630856129fa565b600581015481546112d891600160a060020a039182169133911686612b3b565b6112f5843360405180602001604052806000815250868642612b8c565b505060018055505050565b6017818154811061131057600080fd5b600091825260209091200154600160a060020a0316905081565b600054600160a060020a031633146113575760405160e560020a62461bcd02815260040161126990614468565b600955565b602d818154811061136c57600080fd5b6000918252602090912060069091020180546001820154600283015460038401546004850154600590950154600160a060020a0394851696509294919390921686565b600054600160a060020a031633146113dc5760405160e560020a62461bcd02815260040161126990614468565b601f8054600160a060020a031916600160a060020a0392909216919091179055565b6000600260015414156114265760405160e560020a62461bcd02815260040161126990614418565b6002600181905550600061144c8533604051806020016040528060008152508787612ea0565b905061148b338260000151602d888154811061146a5761146a61444f565b6000918252602090912060069091020154600160a060020a0316919061337a565b5160018055949350505050565b600054600160a060020a031633146114c55760405160e560020a62461bcd02815260040161126990614468565b602b8054600160a060020a031916600160a060020a0392909216919091179055565b600054600160a060020a031633146115145760405160e560020a62461bcd02815260040161126990614468565b600655565b600054600160a060020a031633146115465760405160e560020a62461bcd02815260040161126990614468565b600a55565b600054600160a060020a031633146115785760405160e560020a62461bcd02815260040161126990614468565b600855565b600054600160a060020a031633146115aa5760405160e560020a62461bcd02815260040161126990614468565b600d55565b600260015414156115d55760405160e560020a62461bcd02815260040161126990614418565b600260018190555083602d81815481106115f1576115f161444f565b6000918252602090912060069091020160050154600160a060020a031633600160a060020a0316146116685760405160e560020a62461bcd02815260206004820152600e60248201527f6f6e6c7920726567207661756c740000000000000000000000000000000000006044820152606401611269565b600034116116bb5760405160e560020a62461bcd02815260206004820152601160248201527f4e6f2066656573207375626d69747465640000000000000000000000000000006044820152606401611269565b60006116c785856133c8565b600e549091506116e190600160a060020a031630836129fa565b600e546116f990600160a060020a0316333084612b3b565b600e546040517f70a08231000000000000000000000000000000000000000000000000000000008152306004820152600091600160a060020a0316906370a0823190602401602060405180830381865afa15801561175b573d6000803e3d6000fd5b505050506040513d601f19601f8201168201806040525081019061177f919061449d565b9050600061178b6133d4565b9050600061179d601b5489898561340a565b601b546000908152601d60205260408120805492935090916117be906144b6565b80601f01602080910402602001604051908101604052809291908181526020018280546117ea906144b6565b80156118375780601f1061180c57610100808354040283529160200191611837565b820191906000526020600020905b81548152906001019060200180831161181a57829003601f168201915b5050505050905061186f6040518060a00160405280601c5481526020018681526020018381526020018481526020018981525061348b565b5050600180555050505050505050565b600260015414156118a55760405160e560020a62461bcd02815260040161126990614418565b60026001819055506000602d85815481106118c2576118c261444f565b6000918252602090912060056006909202010154600e54600160a060020a0391821692506118f2911630866129fa565b600e5461190a90600160a060020a0316338387612b3b565b6112f585336040518060200160405280600081525087874288613594565b600054600160a060020a031633146119555760405160e560020a62461bcd02815260040161126990614468565b602c8054600160a060020a031916600160a060020a0392909216919091179055565b600080602d838154811061198d5761198d61444f565b90600052602060002090600602019050806002015443116119b15750600092915050565b60006119ca8260020154436136a590919063ffffffff16565b9050600081116119de575060009392505050565b6000611a0f603054611a098560010154611a03600754876136b190919063ffffffff16565b906136b1565b906136bd565b601a54909150600160a060020a0316301415611a6857600454600254611a4391600160a060020a0391821691163084612b3b565b6003830154611a5290826133c8565b6003840155505043600290910155506000919050565b6002546040517f40c10f1900000000000000000000000000000000000000000000000000000000815230600482015260248101839052600160a060020a03909116906340c10f1990604401600060405180830381600087803b158015611acd57600080fd5b505af1158015611ae1573d6000803e3d6000fd5b5092979650505050505050565b505050919050565b6000918252602e60209081526040808420600160a060020a0393909316845291905290205490565b600054600160a060020a03163314611b4b5760405160e560020a62461bcd02815260040161126990614468565b602a8054600160a060020a031916600160a060020a0392909216919091179055565b601d6020526000908152604090208054611b86906144b6565b80601f0160208091040260200160405190810160405280929190818152602001828054611bb2906144b6565b8015611bff5780601f10611bd457610100808354040283529160200191611bff565b820191906000526020600020905b815481529060010190602001808311611be257829003601f168201915b505050505081565b60405160e560020a62461bcd02815260206004820152601760248201527f696c6c6567616c2064756d6d792066756e632063616c6c0000000000000000006044820152606401611269565b50505050565b600054600160a060020a03163314611c855760405160e560020a62461bcd02815260040161126990614468565b601855565b600054600160a060020a03163314611cb75760405160e560020a62461bcd02815260040161126990614468565b60228054600160a060020a031916600160a060020a0392909216919091179055565b600054600160a060020a03163314611d065760405160e560020a62461bcd02815260040161126990614468565b8051611d19906015906020840190613e00565b5050565b602c54600160a060020a031633600160a060020a031614611d835760405160e560020a62461bcd02815260206004820152601160248201527f6f6e6c79205a6f72726f206f7261636c650000000000000000000000000000006044820152606401611269565b6000611da583611a09611d98876127106136bd565b600d54611a03908a6136b1565b9050600a54811115611dba5750600a54611dc9565b600954811015611dc957506009545b6000611ddb612710611a0985856136b1565b90506000611df888611a0984600b546136b190919063ffffffff16565b9050611e0f600654826136bd90919063ffffffff16565b6007555050505050505050565b600054600160a060020a03163314611e495760405160e560020a62461bcd02815260040161126990614468565b600c805460ff1916911515919091179055565b600054600160a060020a03163314611e895760405160e560020a62461bcd02815260040161126990614468565b60198054600160a060020a031916600160a060020a0392909216919091179055565b600054600160a060020a03163314611ed85760405160e560020a62461bcd02815260040161126990614468565b611ee260006136c9565b565b600060026001541415611f0c5760405160e560020a62461bcd02815260040161126990614418565b60026001819055506000611f33336040518060200160405280600081525088888888613719565b5050600e54919250611f5191600160a060020a03169050338361337a565b6001805595945050505050565b60026001541415611f845760405160e560020a62461bcd02815260040161126990614418565b60026001556000848152602e602090815260408083203384529091528120805485908110611fb457611fb461444f565b6000918252602080832060036006909302019190910154878352602e8252604080842033855290925290822080549193509086908110611ff657611ff661444f565b9060005260206000209060060201600401549050600061202a33604051806020016040528060008152508989600089613719565b50505090506060600e60009054906101000a9004600160a060020a03168160008151811061205a5761205a61444f565b6020026020010190600160a060020a03169081600160a060020a0316815250506120988633604051806020016040528060008152508588888b613594565b604051338152869088908a907f67e7aba7263d8fbeb0cd9a2f4008f060a6a03f46c1d7f9d0550f0b93e96e96f89060200160405180910390a4505060018055505050505050565b600054600160a060020a0316331461210c5760405160e560020a62461bcd02815260040161126990614468565b6001601e8260405161211e91906144f4565b908152604051908190036020019020805491151560ff1990921691909117905550565b600054600160a060020a0316331461216e5760405160e560020a62461bcd02815260040161126990614468565b6000601e8260405161211e91906144f4565b600054600160a060020a031633146121ad5760405160e560020a62461bcd02815260040161126990614468565b60048054600160a060020a031916600160a060020a0392909216919091179055565b600c5460009060ff1615612297576040517f677342ce000000000000000000000000000000000000000000000000000000008152600481018390526122919064e8d4a5100090611a03906122899073__CustomMath____________________________9063677342ce90602401602060405180830381865af4158015612259573d6000803e3d6000fd5b505050506040513d601f19601f8201168201806040525081019061227d919061449d565b611a036002600a6136bd565b6001906133c8565b92915050565b5064e8d4a51000919050565b919050565b600260015414156122ce5760405160e560020a62461bcd02815260040161126990614418565b600260015560006122df8233611af6565b905060005b81811015612309576122f8838260006113fe565b5061230281614529565b90506122e4565b50506001805550565b600054600160a060020a0316331461233f5760405160e560020a62461bcd02815260040161126990614468565b60138054600160a060020a031916600160a060020a0392909216919091179055565b6016818154811061131057600080fd5b600054600160a060020a0316331461239e5760405160e560020a62461bcd02815260040161126990614468565b8051611d19906016906020840190613e00565b60006123c664e8d4a51000611a0985856136b1565b9392505050565b600054600160a060020a031633146123fa5760405160e560020a62461bcd02815260040161126990614468565b600160a060020a0381166124535760405160e560020a62461bcd02815260206004820152601060248201527f63616e6e6f7420626520302061646472000000000000000000000000000000006044820152606401611269565b601a8054600160a060020a031916600160a060020a0392909216919091179055565b602e602052826000526040600020602052816000526040600020818154811061249d57600080fd5b60009182526020909120600690910201805460018201546002830154600384015460048501546005909501549397509195509350919086565b6015818154811061131057600080fd5b600054600160a060020a031633146125135760405160e560020a62461bcd02815260040161126990614468565b600e8054600160a060020a031916600160a060020a0392909216919091179055565b600054600160a060020a031633146125625760405160e560020a62461bcd02815260040161126990614468565b600254600160a060020a03838116911614156125e95760405160e560020a62461bcd02815260206004820152603560248201527f217361666520746f20757365205a6f72726f20746f6b656e20696e2066756e6360448201527f20696e43617365546f6b656e73476574537475636b00000000000000000000006064820152608401611269565b611d19600160a060020a038316338361337a565b600054600160a060020a0316331461262a5760405160e560020a62461bcd02815260040161126990614468565b60108054600160a060020a031916600160a060020a0392909216919091179055565b600054600160a060020a031633146126795760405160e560020a62461bcd02815260040161126990614468565b60128054600160a060020a031916600160a060020a0392909216919091179055565b60408051606080820183526000808352602083018190529282015260006126c6601b5487878761340a565b601a54604051600160a060020a039091166c0100000000000000000000000002602082015290915060009060340160408051601f19818403018152828252602554601c5460009081526023602052928320547f0a51236900000000000000000000000000000000000000000000000000000000855291945091928392600160a060020a031691630a5123699161276c9161ffff169060019088908a908c9060040161456d565b6040805180830381865afa158015612788573d6000803e3d6000fd5b505050506040513d601f19601f820116820180604052508101906127ac91906145b9565b90925090506127bb82826133c8565b9998505050505050505050565b600054600160a060020a031633146127f55760405160e560020a62461bcd02815260040161126990614468565b600b55565b600054600160a060020a031633146128275760405160e560020a62461bcd02815260040161126990614468565b60148054600160a060020a031916600160a060020a0392909216919091179055565b600054600160a060020a031633146128765760405160e560020a62461bcd02815260040161126990614468565b601b55565b600054600160a060020a031633146128a85760405160e560020a62461bcd02815260040161126990614468565b600f8054600160a060020a031916600160a060020a0392909216919091179055565b600054600160a060020a031633146128f75760405160e560020a62461bcd02815260040161126990614468565b600160a060020a0381166129765760405160e560020a62461bcd02815260206004820152602660248201527f4f776e61626c653a206e6577206f776e657220697320746865207a65726f206160448201527f64647265737300000000000000000000000000000000000000000000000000006064820152608401611269565b61297f816136c9565b50565b600054600160a060020a031633146129af5760405160e560020a62461bcd02815260040161126990614468565b600555565b600054600160a060020a031633146129e15760405160e560020a62461bcd02815260040161126990614468565b6000838152601d60205260409020611c52908383613e65565b6040517fdd62ed3e000000000000000000000000000000000000000000000000000000008152306004820152600160a060020a038381166024830152600091839186169063dd62ed3e90604401602060405180830381865afa158015612a64573d6000803e3d6000fd5b505050506040513d601f19601f82011682018060405250810190612a88919061449d565b612a9291906145dd565b604051600160a060020a038516602482015260448101829052909150611c529085907f095ea7b300000000000000000000000000000000000000000000000000000000906064015b60408051601f198184030181529190526020810180517bffffffffffffffffffffffffffffffffffffffffffffffffffffffff167bffffffffffffffffffffffffffffffffffffffffffffffffffffffff1990931692909217909152613833565b604051600160a060020a0380851660248301528316604482015260648101829052611c529085907f23b872dd0000000000000000000000000000000000000000000000000000000090608401612ada565b600080602d8881548110612ba257612ba261444f565b9060005260206000209060060201905060008511612c055760405160e560020a62461bcd02815260206004820152601560248201527f5f77616e74416d74206d757374206265203e20302100000000000000000000006044820152606401611269565b612c0e88611977565b915086600160a060020a038116612cb5576000875111612c995760405160e560020a62461bcd02815260206004820152602c60248201527f4e65697468657220666f726569676e2061636374206e6f72206c6f63616c206160448201527f6363742070726f766964656400000000000000000000000000000000000000006064820152608401611269565b612ca2876145f5565b6c01000000000000000000000000900490505b6000602d8a81548110612cca57612cca61444f565b60009182526020909120600690910201600501546040517fba0bb4ab000000000000000000000000000000000000000000000000000000008152600160a060020a038481166004830152602482018a90529091169063ba0bb4ab906044016020604051808303816000875af1158015612d47573d6000803e3d6000fd5b505050506040513d601f19601f82011682018060405250810190612d6b919061449d565b601954600585015491925064e8d4a5100091600160a060020a03908116911614612d9b57612d98876121cf565b90505b6000612da783836123b1565b6004860154909150612db990826133c8565b60048601819055600090612dd690611a098464e8d4a510006136b1565b905060006040518060c00160405280848152602001858152602001612e1164e8d4a51000611a09868c600301546136b190919063ffffffff16565b81526020018b81526020018a815260200160008152509050612e358e878e8461391b565b8d8c604051612e4491906144f4565b604051809103902087600160a060020a03167fc6b1f1535b3bb3bdffa2f97a671ab7bd6f2512deec58103fa47eb40ed95274278e604051612e8791815260200190565b60405180910390a4505050505050509695505050505050565b612ecb6040518060800160405280600081526020016000815260200160008152602001600081525090565b600160a060020a038516158015612ee3575060008451115b80612f005750600160a060020a03851615801590612f0057508351155b612f4f5760405160e560020a62461bcd02815260206004820152601d60248201527f4f6e6c79206f6e65206163636f756e74207479706520616c6c6f7765640000006044820152606401611269565b6000612f5d87858789613a0a565b90506000602d8881548110612f7457612f7461444f565b906000526020600020906006020190506000826000015111612fdb5760405160e560020a62461bcd02815260206004820152601960248201527f7472616e6368652e636f6e747269627574696f6e2069732030000000000000006044820152606401611269565b60008160040154116130325760405160e560020a62461bcd02815260206004820152601e60248201527f746f74616c5472616e636865436f6e747269627574696f6e73206973203000006044820152606401611269565b60a0820151156130875760405160e560020a62461bcd02815260206004820152601460248201527f416c726561647920657869746564207661756c740000000000000000000000006044820152606401611269565b61309088611977565b6020840152600481015482516000916130b291611a099064e8d4a510006136b1565b905060006130e484604001516130de64e8d4a51000611a098760030154876136b190919063ffffffff16565b906136a5565b9050801561316b576000806130f98684613bab565b91509150601c54601b54141561313a578115613119576131198b83613c37565b80156131355760195461313590600160a060020a031682613c37565b613168565b60035461315990600160a060020a031661315484846133c8565b613c37565b60408701829052606087018190525b50505b8561336d57602d8a815481106131835761318361444f565b600091825260209091206006909102016005015484516040517fe0ccabfa000000000000000000000000000000000000000000000000000000008152600160a060020a038c81166004830152602482019290925291169063e0ccabfa906044016020604051808303816000875af1158015613202573d6000803e3d6000fd5b505050506040513d601f19601f82011682018060405250810190613226919061449d565b5083516004840154613237916136a5565b60048481019190915583546040517f70a082310000000000000000000000000000000000000000000000000000000081523092810192909252600160a060020a0316906370a0823190602401602060405180830381865afa1580156132a0573d6000803e3d6000fd5b505050506040513d601f19601f820116820180604052508101906132c4919061449d565b855260008a8152602e60209081526040808320600160a060020a038d16845290915290208054429190899081106132fd576132fd61444f565b906000526020600020906006020160050181905550898860405161332191906144f4565b6040805191829003822088518b8452602084015291600160a060020a038d16917fa7749cd42821d3b82a6814af6d80712b2e43f98ec1b25aee31c8351855de65d9910160405180910390a45b5050505095945050505050565b604051600160a060020a0383166024820152604481018290526133c39084907fa9059cbb0000000000000000000000000000000000000000000000000000000090606401612ada565b505050565b60006123c682846145dd565b60295460405181907f18bd4bd6372d39482d375f68791749755bdb38e8768acbfb6af999cef1adc6e090600090a2600060295590565b6040805160208101869052808201859052606080820185905260808083018590528351808403909101815260a08301909352917f5ef573f9000000000000000000000000000000000000000000000000000000009161346f908390839060c00161462f565b604051602081830303815290604052925050505b949350505050565b6134af60405180606001604052806000815260200160008152602001606081525090565b602554825160009081526023602090815260408083205460265487518552602784529190932054918601516080870151600160a060020a0390951694639fbf10fc94349461ffff90911693929091339190613513906103e890611a099084906136b1565b898b604001518c606001516040518b63ffffffff167c010000000000000000000000000000000000000000000000000000000002815260040161355e99989796959493929190614674565b6000604051808303818588803b15801561357757600080fd5b505af115801561358b573d6000803e3d6000fd5b50505050505050565b6000602d88815481106135a9576135a961444f565b60009182526020822060069190910201600501546040517fe502a88d0000000000000000000000000000000000000000000000000000000081526004810188905260248101859052600160a060020a039091169250829190829063e502a88d906044016020604051808303816000875af115801561362b573d6000803e3d6000fd5b505050506040513d601f19601f8201168201806040525081019061364f919061449d565b905061368a8382602d8d815481106136695761366961444f565b6000918252602090912060069091020154600160a060020a031691906129fa565b6136988a8a8a848a8a612b8c565b5050505050505050505050565b60006123c682846146f2565b60006123c68284614709565b60006123c68284614728565b60008054600160a060020a03838116600160a060020a0319831681178455604051919092169283917f8be0079c531659141344cd1fd0a4f28419497f9722a3daafe3b4186f6b6457e09190a35050565b6000806000806000602d89815481106137345761373461444f565b60009182526020822060056006909202010154600160a060020a0316915081906137618b8e8e8d8d612ea0565b905061377f838260000151602d8e815481106136695761366961444f565b80516040517f648794a4000000000000000000000000000000000000000000000000000000008152600481019190915260248101899052600160a060020a0383169063648794a4906044016020604051808303816000875af11580156137e9573d6000803e3d6000fd5b505050506040513d601f19601f8201168201806040525081019061380d919061449d565b60208201516040830151606090930151919f909e50919c509a5098505050505050505050565b6000613888826040518060400160405280602081526020017f5361666545524332303a206c6f772d6c6576656c2063616c6c206661696c656481525085600160a060020a0316613ce69092919063ffffffff16565b8051909150156133c357808060200190518101906138a6919061474d565b6133c35760405160e560020a62461bcd02815260206004820152602a60248201527f5361666545524332303a204552433230206f7065726174696f6e20646964206e60448201527f6f742073756363656564000000000000000000000000000000000000000000006064820152608401611269565b6000848152602e60209081526040808320600160a060020a0387168452825280832080546001818101835591855293839020855160069095020193845591840151918301919091558201516002820155606082015160038201556080820151600482015560a0820151600590910155815115611c525782602f6000868152602001908152602001600020836040516139b391906144f4565b908152602001604051809103902060006139d260016130de8989611af6565b815260200190815260200160002060006101000a815481600160a060020a030219169083600160a060020a0316021790555050505050565b613a436040518060c001604052806000815260200160008152602001600081526020016000815260200160008152602001600081525090565b600160a060020a038216613ae1576000858152602e60209081526040808320600160a060020a03861684529091529020805485908110613a8557613a8561444f565b90600052602060002090600602016040518060c001604052908160008201548152602001600182015481526020016002820154815260200160038201548152602001600482015481526020016005820154815250509050613483565b6000858152602f60205260408082209051613afd9086906144f4565b9081526040805160209281900383019020600088815290835281812054898252602e8452828220600160a060020a0390911680835293522080549192509086908110613b4b57613b4b61444f565b90600052602060002090600602016040518060c00160405290816000820154815260200160018201548152602001600282015481526020016003820154815260200160048201548152602001600582015481525050915050949350505050565b60008060008311613bc157506000905080613c30565b6000613bef426130de613be462093a8089606001516136b190919063ffffffff16565b6080890151906133c8565b90508015613c2a576060850151613c1790613c0d9062093a806136b1565b611a0986846136b1565b9150613c2384836136a5565b9250613c2e565b8392505b505b9250929050565b6002546040517f70a082310000000000000000000000000000000000000000000000000000000081523060048201528291600091600160a060020a03909116906370a0823190602401602060405180830381865afa158015613c9d573d6000803e3d6000fd5b505050506040513d601f19601f82011682018060405250810190613cc1919061449d565b905080831115613ccf578091505b600254611c5290600160a060020a0316858461337a565b6060613483848460008585600160a060020a0385163b613d4b5760405160e560020a62461bcd02815260206004820152601d60248201527f416464726573733a2063616c6c20746f206e6f6e2d636f6e74726163740000006044820152606401611269565b60008086600160a060020a03168587604051613d6791906144f4565b60006040518083038185875af1925050503d8060008114613da4576040519150601f19603f3d011682016040523d82523d6000602084013e613da9565b606091505b5091509150613db9828286613dc4565b979650505050505050565b60608315613dd35750816123c6565b825115613de35782518084602001fd5b8160405160e560020a62461bcd0281526004016112699190614190565b828054828255906000526020600020908101928215613e55579160200282015b82811115613e555782518254600160a060020a031916600160a060020a03909116178255602090920191600190910190613e20565b50613e61929150613ed9565b5090565b828054613e71906144b6565b90600052602060002090601f016020900481019282613e935760008555613e55565b82601f10613eac5782800160ff19823516178555613e55565b82800160010185558215613e55579182015b82811115613e55578235825591602001919060010190613ebe565b5b80821115613e615760008155600101613eda565b600080600060608486031215613f0357600080fd5b505081359360208301359350604090920135919050565b600060208284031215613f2c57600080fd5b5035919050565b8035600160a060020a03811681146122a357600080fd5b600060208284031215613f5c57600080fd5b6123c682613f33565b600060208284031215613f7757600080fd5b813561ffff811681146123c657600080fd5b60e060020a634e487b7102600052604160045260246000fd5b604051601f8201601f1916810167ffffffffffffffff81118282101715613fcb57613fcb613f89565b604052919050565b600082601f830112613fe457600080fd5b813567ffffffffffffffff811115613ffe57613ffe613f89565b614011601f8201601f1916602001613fa2565b81815284602083860101111561402657600080fd5b816020850160208301376000918101602001919091529392505050565b60008060006060848603121561405857600080fd5b83359250602084013567ffffffffffffffff81111561407657600080fd5b61408286828701613fd3565b925050604084013590509250925092565b801515811461297f57600080fd5b6000806000606084860312156140b657600080fd5b833592506020840135915060408401356140cf81614093565b809150509250925092565b600080600080608085870312156140f057600080fd5b5050823594602084013594506040840135936060013592509050565b6000806040838503121561411f57600080fd5b8235915061412f60208401613f33565b90509250929050565b60005b8381101561415357818101518382015260200161413b565b83811115611c525750506000910152565b6000815180845261417c816020860160208601614138565b601f01601f19169290920160200192915050565b6020815260006123c66020830184614164565b6000602082840312156141b557600080fd5b813567ffffffffffffffff8111156141cc57600080fd5b61348384828501613fd3565b600060208083850312156141eb57600080fd5b823567ffffffffffffffff8082111561420357600080fd5b818501915085601f83011261421757600080fd5b81358181111561422957614229613f89565b8381029150614239848301613fa2565b818152918301840191848101908884111561425357600080fd5b938501935b838510156142785761426985613f33565b82529385019390850190614258565b98975050505050505050565b600080600080600060a0868803121561429c57600080fd5b505083359560208501359550604085013594606081013594506080013592509050565b6000602082840312156142d157600080fd5b81356123c681614093565b600080600080608085870312156142f257600080fd5b8435935060208501359250604085013561430b81614093565b9396929550929360600135925050565b6000806040838503121561432e57600080fd5b50508035926020909101359150565b60008060006060848603121561435257600080fd5b8335925061436260208501613f33565b9150604084013590509250925092565b6000806040838503121561438557600080fd5b61438e83613f33565b946020939093013593505050565b6000806000604084860312156143b157600080fd5b83359250602084013567ffffffffffffffff808211156143d057600080fd5b818601915086601f8301126143e457600080fd5b8135818111156143f357600080fd5b87602082850101111561440557600080fd5b6020830194508093505050509250925092565b6020808252601f908201527f5265656e7472616e637947756172643a207265656e7472616e742063616c6c00604082015260600190565b60e060020a634e487b7102600052603260045260246000fd5b6020808252818101527f4f776e61626c653a2063616c6c6572206973206e6f7420746865206f776e6572604082015260600190565b6000602082840312156144af57600080fd5b5051919050565b6002810460018216806144ca57607f821691505b602082108114156144ee5760e060020a634e487b7102600052602260045260246000fd5b50919050565b60008251614506818460208701614138565b9190910192915050565b60e060020a634e487b7102600052601160045260246000fd5b600060001982141561453d5761453d614510565b5060010190565b805182526020810151602083015260006040820151606060408501526134836060850182614164565b61ffff8616815260ff8516602082015260a06040820152600061459360a0830186614164565b82810360608401526145a58186614164565b905082810360808401526142788185614544565b600080604083850312156145cc57600080fd5b505080516020909101519092909150565b600082198211156145f0576145f0614510565b500190565b805160208201516bffffffffffffffffffffffff198082169291906014831015611aee5760149290920360080260020a8202161692915050565b7bffffffffffffffffffffffffffffffffffffffffffffffffffffffff198316815260008251614666816004850160208701614138565b919091016004019392505050565b600061012061ffff8c1683528a6020840152896040840152600160a060020a03891660608401528760808401528660a08401528060c08401526146b981840187614544565b905082810360e08401526146cd8186614164565b90508281036101008401526146e28185614164565b9c9b505050505050505050505050565b60008282101561470457614704614510565b500390565b600081600019048311821515161561472357614723614510565b500290565b6000826147485760e060020a634e487b7102600052601260045260246000fd5b500490565b60006020828403121561475f57600080fd5b81516123c681614093565b8181101561478857845484168652948201946001948501940161476a565b50505050600160a060020a03861660c08501525090508260e0830152999850505050505050505056fea26469706673582212209cc95d9ff29f2383c0173654c7dd45132b98b3f2d7808f3e5bc841d7f589449364736f6c634300080a0033",
  "immutableReferences": {},
  "source": "// SPDX-License-Identifier: MIT\n\npragma solidity ^0.8.0;\n\nimport \"./_ZorroControllerXChain.sol\";\n\ncontract ZorroControllerXChainEarn is ZorroControllerXChain {\n    /* Libraries */\n    using SafeMath for uint256;\n    using SafeERC20 for IERC20;\n\n    /* Events */\n    event XChainDistributeEarnings(\n        uint256 indexed _remoteChainId,\n        uint256 indexed _buybackAmountUSDC,\n        uint256 indexed _revShareAmountUSDC\n    );\n\n    /* Fees */\n\n    /// @notice Checks to see how much a cross chain earnings distribution will cost\n    /// @param _amountUSDCBuyback Amount of USDC to buy back\n    /// @param _amountUSDCRevShare Amount of USDC to rev share with ZOR single staking vault\n    /// @param _accSlashedRewards Accumulated slashed rewards on chain\n    /// @return uint256 Quantity of native token as fees\n    function checkXChainDistributeEarningsFee(\n        uint256 _amountUSDCBuyback,\n        uint256 _amountUSDCRevShare,\n        uint256 _accSlashedRewards\n    ) external view returns (uint256) {\n        // Init empty LZ object\n        IStargateRouter.lzTxObj memory _lzTxParams;\n\n        // Get payload\n        bytes memory _payload = _encodeXChainDistributeEarningsPayload(\n            chainId,\n            _amountUSDCBuyback,\n            _amountUSDCRevShare,\n            _accSlashedRewards\n        );\n        bytes memory _dstContract = abi.encodePacked(homeChainZorroController);\n\n        // Calculate native gas fee and ZRO token fee (Layer Zero token)\n        (uint256 _nativeFee, uint256 _lzFee) = IStargateRouter(stargateRouter)\n            .quoteLayerZeroFee(\n                ZorroChainToLZMap[homeChainId],\n                1,\n                _dstContract,\n                _payload,\n                _lzTxParams\n            );\n        // TODO: Q: Is it the sum of these fees or just one?\n        return _nativeFee.add(_lzFee);\n    }\n\n    /* Encoding (payloads) */\n\n    /// @notice Encodes payload for making cross chan earnings distribution request\n    /// @param _remoteChainId Zorro chain ID of the chain making the distribution request\n    /// @param _amountUSDCBuyback Amount in USDC to buy back\n    /// @param _amountUSDCRevShare Amount in USDC to rev share with ZOR staking vault\n    /// @param _accSlashedRewards Accumulated slashed rewards on chain\n    /// @return bytes ABI encoded payload\n    function _encodeXChainDistributeEarningsPayload(\n        uint256 _remoteChainId,\n        uint256 _amountUSDCBuyback,\n        uint256 _amountUSDCRevShare,\n        uint256 _accSlashedRewards\n    ) internal pure returns (bytes memory) {\n        // Calculate method signature\n        bytes4 _sig = this.receiveXChainDistributionRequest.selector;\n        // Calculate abi encoded bytes for input args\n        bytes memory _inputs = abi.encode(\n            _remoteChainId,\n            _amountUSDCBuyback,\n            _amountUSDCRevShare,\n            _accSlashedRewards\n        );\n        // Concatenate bytes of signature and inputs\n        return bytes.concat(_sig, _inputs);\n    }\n\n    /* Sending */\n\n    /// @notice Sends a request back to the home chain to distribute earnings\n    /// @param _pid Pool ID\n    /// @param _buybackAmountUSDC Amount in USDC to buy back\n    /// @param _revShareAmountUSDC Amount in USDC to revshare w/ ZOR single staking vault\n    /// @param _maxMarketMovement Acceptable slippage (950 = 5%, 990 = 1% etc.)\n    function sendXChainDistributeEarningsRequest(\n        uint256 _pid,\n        uint256 _buybackAmountUSDC,\n        uint256 _revShareAmountUSDC,\n        uint256 _maxMarketMovement\n    ) public payable nonReentrant onlyRegisteredVault(_pid) {\n        // Require funds to be submitted with this message\n        require(msg.value > 0, \"No fees submitted\");\n\n        // Calculate total USDC to transfer\n        uint256 _totalUSDC = _buybackAmountUSDC.add(_revShareAmountUSDC);\n\n        // Allow this contract to spend USDC\n        IERC20(defaultStablecoin).safeIncreaseAllowance(\n            address(this),\n            _totalUSDC\n        );\n\n        // Transfer USDC into this contract\n        IERC20(defaultStablecoin).safeTransferFrom(\n            msg.sender,\n            address(this),\n            _totalUSDC\n        );\n\n        // Check balances\n        uint256 _balUSDC = IERC20(defaultStablecoin).balanceOf(address(this));\n\n        // Get accumulated ZOR rewards and set value\n        uint256 _slashedRewards = _removeSlashedRewards();\n\n        // Generate payload\n        bytes memory _payload = _encodeXChainDistributeEarningsPayload(\n            chainId,\n            _buybackAmountUSDC,\n            _revShareAmountUSDC,\n            _slashedRewards\n        );\n\n        // Get the destination contract address on the remote chain\n        bytes memory _dstContract = controllerContractsMap[chainId];\n\n        // Call stargate to initiate bridge\n        _callStargateSwap(\n            StargateSwapPayload({\n                chainId: homeChainId,\n                qty: _balUSDC,\n                dstContract: _dstContract,\n                payload: _payload,\n                maxMarketMovement: _maxMarketMovement\n            })\n        );\n    }\n\n    /* Receiving */\n\n    /// @notice Dummy func to allow .selector call above and guarantee typesafety for abi calls.\n    /// @dev Should never ever be actually called.\n    function receiveXChainDistributionRequest(\n        uint256 _remoteChainId,\n        uint256 _amountUSDCBuyback,\n        uint256 _amountUSDCRevShare,\n        uint256 _accSlashedRewards\n    ) public {\n        // Revert to make sure this function never gets called\n        revert(\"illegal dummy func call\");\n\n        // But still include the function call here anyway to satisfy type safety requirements in case there is a change\n        _receiveXChainDistributionRequest(\n            _remoteChainId,\n            _amountUSDCBuyback,\n            _amountUSDCRevShare,\n            _accSlashedRewards\n        );\n    }\n\n    /// @notice Receives an authorized request from remote chains to perform earnings fee distribution events, such as: buyback + LP + burn, and revenue share\n    /// @param _remoteChainId The Zorro chain ID of the chain that this request originated from\n    /// @param _amountUSDCBuyback The amount in USDC that should be minted for LP + burn\n    /// @param _amountUSDCRevShare The amount in USDC that should be minted for revenue sharing with ZOR stakers\n    /// @param _accSlashedRewards Accumulated slashed rewards on chain\n    function _receiveXChainDistributionRequest(\n        uint256 _remoteChainId,\n        uint256 _amountUSDCBuyback,\n        uint256 _amountUSDCRevShare,\n        uint256 _accSlashedRewards\n    ) internal {\n        // Total USDC to perform operations\n        uint256 _totalUSDC = _amountUSDCBuyback.add(_amountUSDCRevShare);\n\n        // Determine new USDC balances\n        uint256 _balUSDC = IERC20(defaultStablecoin).balanceOf(address(this));\n\n        /* Buyback */\n        // (Account for slippage)\n        uint256 _buybackAmount = _balUSDC.mul(_amountUSDCBuyback).div(\n            _totalUSDC\n        );\n        _buybackOnChain(_buybackAmount);\n\n        /* Rev share */\n        // (Account for slippage)\n        uint256 _revShareAmount = _balUSDC.mul(_amountUSDCRevShare).div(\n            _totalUSDC\n        );\n        _revShareOnChain(_revShareAmount);\n\n        // Emit event\n        emit XChainDistributeEarnings(\n            _remoteChainId,\n            _buybackAmount,\n            _revShareAmount\n        );\n\n        // Award slashed rewards to ZOR stakers\n        if (_accSlashedRewards > 0) {\n            _awardSlashedRewardsToStakers(_accSlashedRewards);\n        }\n    }\n\n    /* Slashed rewards */\n\n    /// @notice Called by oracle to remove slashed ZOR rewards and reset\n    /// @return _slashedZORRewards The amount of accumulated slashed ZOR rewards\n    function _removeSlashedRewards()\n        internal\n        returns (uint256 _slashedZORRewards)\n    {\n        // Store current rewards amount\n        _slashedZORRewards = accumulatedSlashedRewards;\n\n        // Emit success event\n        emit RemovedSlashedRewards(_slashedZORRewards);\n\n        // Reset accumulated rewards\n        accumulatedSlashedRewards = 0;\n    }\n\n    /// @notice Awards the slashed ZOR rewards from other chains to this (home) chain's ZOR staking vault\n    /// @param _slashedZORRewards The amount of accumulated slashed ZOR rewards\n    function _awardSlashedRewardsToStakers(uint256 _slashedZORRewards)\n        internal\n    {\n        // Mint ZOR and send to ZOR staking vault.\n        Zorro(ZORRO).mint(zorroStakingVault, _slashedZORRewards);\n    }\n}\n",
  "sourcePath": "/Users/kristophm/Documents/workspace/zorro-protocol/contracts/controllers/_ZorroControllerXChainEarn.sol",
  "compiler": {
    "name": "solc",
    "version": "0.8.10+commit.fc410830.Emscripten.clang"
  },
  "schemaVersion": "3.4.4",
  "updatedAt": "2022-04-05T02:04:20.764Z",
  "devdoc": {
    "kind": "dev",
    "methods": {
      "checkXChainDistributeEarningsFee(uint256,uint256,uint256)": {
        "params": {
          "_accSlashedRewards": "Accumulated slashed rewards on chain",
          "_amountUSDCBuyback": "Amount of USDC to buy back",
          "_amountUSDCRevShare": "Amount of USDC to rev share with ZOR single staking vault"
        },
        "returns": {
          "_0": "uint256 Quantity of native token as fees"
        }
      },
      "deposit(uint256,uint256,uint256)": {
        "params": {
          "_pid": "index of pool",
          "_wantAmt": "how much Want token to deposit",
          "_weeksCommitted": "how many weeks the user is committing to on this vault"
        }
      },
      "depositFullService(uint256,uint256,uint256,uint256)": {
        "params": {
          "_maxMarketMovement": "factor to account for max market movement/slippage. The definition varies by Vault, so consult the associated Vault contract for info",
          "_pid": "index of pool to deposit into",
          "_valueUSDC": "value in USDC (in ether units) to deposit",
          "_weeksCommitted": "how many weeks to commit to the Pool (can be 0 or any uint)"
        }
      },
      "getTimeMultiplier(uint256)": {
        "params": {
          "durationInWeeks": "number of weeks committed into Vault"
        },
        "returns": {
          "_0": "multiplier factor, times 1e12"
        }
      },
      "getUserContribution(uint256,uint256)": {
        "params": {
          "_liquidityCommitted": "How many tokens staked (e.g. LP tokens)",
          "_timeMultiplier": "Time multiplier value (from getTimeMultiplier())"
        },
        "returns": {
          "_0": "The relative contribution of the user (unitless)"
        }
      },
      "inCaseTokensGetStuck(address,uint256)": {
        "details": "Does not permit usage for the Zorro token",
        "params": {
          "_amount": "token quantity",
          "_token": "ERC20 token address"
        }
      },
      "owner()": {
        "details": "Returns the address of the current owner."
      },
      "poolLength()": {
        "returns": {
          "_0": "Number of pools"
        }
      },
      "receiveXChainDistributionRequest(uint256,uint256,uint256,uint256)": {
        "details": "Should never ever be actually called."
      },
      "renounceOwnership()": {
        "details": "Leaves the contract without owner. It will not be possible to call `onlyOwner` functions anymore. Can only be called by the current owner. NOTE: Renouncing ownership will leave the contract without an owner, thereby removing any functionality that is only available to the owner."
      },
      "sendXChainDistributeEarningsRequest(uint256,uint256,uint256,uint256)": {
        "params": {
          "_buybackAmountUSDC": "Amount in USDC to buy back",
          "_maxMarketMovement": "Acceptable slippage (950 = 5%, 990 = 1% etc.)",
          "_pid": "Pool ID",
          "_revShareAmountUSDC": "Amount in USDC to revshare w/ ZOR single staking vault"
        }
      },
      "setZorroPerBlock(uint256,uint256,uint256,uint256,uint256)": {
        "details": "Values to be provided by Oracle. Perferable to run daily",
        "params": {
          "_ZorroTotalVaultTVLUSD": "USD value of all TVL locked into the Zorro protocol, across all chains",
          "_publicPoolZORBalance": "Number of ZOR tokens remaining in public pool on home chain",
          "_targetTVLCaptureBasisPoints": "% desired capture of total market TVL, measured in basis points",
          "_totalChainMultipliers": "Sum total of all chain multipliers for each chain",
          "_totalMarketTVLUSD": "Total DeFi market TVL across all chains (measured in USD)"
        }
      },
      "trancheLength(uint256,address)": {
        "params": {
          "_pid": "Index of pool",
          "_user": "wallet address of user"
        },
        "returns": {
          "_0": "Number of tranches"
        }
      },
      "transferInvestment(uint256,uint256,uint256,uint256)": {
        "params": {
          "_fromPid": "index of pool FROM",
          "_fromTrancheId": "index of tranche FROM",
          "_maxMarketMovement": "factor to account for max market movement/slippage. The definition varies by Vault, so consult the associated Vault contract for info",
          "_toPid": "index of pool TO"
        }
      },
      "transferOwnership(address)": {
        "details": "Transfers ownership of the contract to a new account (`newOwner`). Can only be called by the current owner."
      },
      "updatePool(uint256)": {
        "params": {
          "_pid": "index of pool"
        },
        "returns": {
          "_0": "uint256 Amount of ZOR rewards minted (useful for cross chain)"
        }
      },
      "withdraw(uint256,uint256,bool)": {
        "params": {
          "_harvestOnly": "If true, will only harvest Zorro tokens but not do a withdrawal",
          "_pid": "index of pool",
          "_trancheId": "index of tranche"
        },
        "returns": {
          "_0": "Amount of Want token withdrawn"
        }
      },
      "withdrawAll(uint256)": {
        "params": {
          "_pid": "index of pool"
        }
      },
      "withdrawalFullService(uint256,uint256,bool,uint256)": {
        "params": {
          "_harvestOnly": "If true, will only harvest Zorro tokens but not do a withdrawal",
          "_maxMarketMovement": "factor to account for max market movement/slippage. The definition varies by Vault, so consult the associated Vault contract for info",
          "_pid": "index of pool to deposit into",
          "_trancheId": "index of tranche"
        },
        "returns": {
          "_0": "Amount (in USDC) returned"
        }
      }
    },
    "version": 1
  },
  "userdoc": {
    "kind": "user",
    "methods": {
      "checkXChainDistributeEarningsFee(uint256,uint256,uint256)": {
        "notice": "Checks to see how much a cross chain earnings distribution will cost"
      },
      "deposit(uint256,uint256,uint256)": {
        "notice": "Deposit Want tokens to associated Vault"
      },
      "depositFullService(uint256,uint256,uint256,uint256)": {
        "notice": "Deposits funds in a full service manner (performs autoswaps and obtains Want tokens)"
      },
      "getTimeMultiplier(uint256)": {
        "notice": "Calculate time multiplier based on duration committed"
      },
      "getUserContribution(uint256,uint256)": {
        "notice": "The contribution of the user, meant to be used in rewards allocations"
      },
      "inCaseTokensGetStuck(address,uint256)": {
        "notice": "For owner to recover ERC20 tokens on this contract if stuck"
      },
      "poolLength()": {
        "notice": "Number of pools in the Zorro protocol"
      },
      "receiveXChainDistributionRequest(uint256,uint256,uint256,uint256)": {
        "notice": "Dummy func to allow .selector call above and guarantee typesafety for abi calls."
      },
      "sendXChainDistributeEarningsRequest(uint256,uint256,uint256,uint256)": {
        "notice": "Sends a request back to the home chain to distribute earnings"
      },
      "setZorroPerBlock(uint256,uint256,uint256,uint256,uint256)": {
        "notice": "Set the number of Zorro to emit per block based on current market parameters"
      },
      "trancheLength(uint256,address)": {
        "notice": "Number of tranches invested by a given user into a given pool"
      },
      "transferInvestment(uint256,uint256,uint256,uint256)": {
        "notice": "Transfer all assets from a tranche in one vault to a new vault (works on-chain only)"
      },
      "updatePool(uint256)": {
        "notice": "Update reward variables of the given pool to be up-to-date."
      },
      "withdraw(uint256,uint256,bool)": {
        "notice": "Fully withdraw Want tokens from underlying Vault."
      },
      "withdrawAll(uint256)": {
        "notice": "Withdraw the maximum number of Want tokens from a pool"
      },
      "withdrawalFullService(uint256,uint256,bool,uint256)": {
        "notice": "Withdraws funds from a pool and converts the Want token into USDC"
      }
    },
    "version": 1
  }
}