{
  "contractName": "ZorroControllerXChainReceiver",
  "abi": [
    {
      "anonymous": false,
      "inputs": [
        {
          "indexed": true,
          "internalType": "address",
          "name": "account",
          "type": "address"
        },
        {
          "indexed": true,
          "internalType": "bytes",
          "name": "foreignAccount",
          "type": "bytes"
        },
        {
          "indexed": true,
          "internalType": "uint256",
          "name": "pid",
          "type": "uint256"
        },
        {
          "indexed": false,
          "internalType": "uint256",
          "name": "wantAmount",
          "type": "uint256"
        }
      ],
      "name": "Deposit",
      "type": "event"
    },
    {
      "anonymous": false,
      "inputs": [
        {
          "indexed": true,
          "internalType": "address",
          "name": "previousOwner",
          "type": "address"
        },
        {
          "indexed": true,
          "internalType": "address",
          "name": "newOwner",
          "type": "address"
        }
      ],
      "name": "OwnershipTransferred",
      "type": "event"
    },
    {
      "anonymous": false,
      "inputs": [
        {
          "indexed": true,
          "internalType": "uint256",
          "name": "_amountZOR",
          "type": "uint256"
        }
      ],
      "name": "RemovedSlashedRewards",
      "type": "event"
    },
    {
      "anonymous": false,
      "inputs": [
        {
          "indexed": false,
          "internalType": "address",
          "name": "account",
          "type": "address"
        },
        {
          "indexed": true,
          "internalType": "uint256",
          "name": "fromPid",
          "type": "uint256"
        },
        {
          "indexed": true,
          "internalType": "uint256",
          "name": "fromTrancheId",
          "type": "uint256"
        },
        {
          "indexed": true,
          "internalType": "uint256",
          "name": "toPid",
          "type": "uint256"
        }
      ],
      "name": "TransferInvestment",
      "type": "event"
    },
    {
      "anonymous": false,
      "inputs": [
        {
          "indexed": true,
          "internalType": "address",
          "name": "account",
          "type": "address"
        },
        {
          "indexed": true,
          "internalType": "bytes",
          "name": "foreignAccount",
          "type": "bytes"
        },
        {
          "indexed": true,
          "internalType": "uint256",
          "name": "pid",
          "type": "uint256"
        },
        {
          "indexed": false,
          "internalType": "uint256",
          "name": "trancheId",
          "type": "uint256"
        },
        {
          "indexed": false,
          "internalType": "uint256",
          "name": "wantAmount",
          "type": "uint256"
        }
      ],
      "name": "Withdraw",
      "type": "event"
    },
    {
      "anonymous": false,
      "inputs": [
        {
          "indexed": true,
          "internalType": "uint256",
          "name": "_remoteChainId",
          "type": "uint256"
        },
        {
          "indexed": true,
          "internalType": "uint256",
          "name": "_buybackAmountUSDC",
          "type": "uint256"
        },
        {
          "indexed": true,
          "internalType": "uint256",
          "name": "_revShareAmountUSDC",
          "type": "uint256"
        }
      ],
      "name": "XChainDistributeEarnings",
      "type": "event"
    },
    {
      "anonymous": false,
      "inputs": [
        {
          "indexed": true,
          "internalType": "uint256",
          "name": "_pid",
          "type": "uint256"
        },
        {
          "indexed": true,
          "internalType": "address",
          "name": "_originRecipient",
          "type": "address"
        },
        {
          "indexed": true,
          "internalType": "uint256",
          "name": "_burnableZORRewards",
          "type": "uint256"
        },
        {
          "indexed": false,
          "internalType": "uint256",
          "name": "_trancheId",
          "type": "uint256"
        },
        {
          "indexed": false,
          "internalType": "uint256",
          "name": "_originChainId",
          "type": "uint256"
        }
      ],
      "name": "XChainRepatriation",
      "type": "event"
    },
    {
      "inputs": [
        {
          "internalType": "uint16",
          "name": "",
          "type": "uint16"
        }
      ],
      "name": "LZChainToZorroMap",
      "outputs": [
        {
          "internalType": "uint256",
          "name": "",
          "type": "uint256"
        }
      ],
      "stateMutability": "view",
      "type": "function"
    },
    {
      "inputs": [
        {
          "internalType": "uint256",
          "name": "",
          "type": "uint256"
        }
      ],
      "name": "USDCToZorroLPPoolOtherTokenPath",
      "outputs": [
        {
          "internalType": "address",
          "name": "",
          "type": "address"
        }
      ],
      "stateMutability": "view",
      "type": "function"
    },
    {
      "inputs": [
        {
          "internalType": "uint256",
          "name": "",
          "type": "uint256"
        }
      ],
      "name": "USDCToZorroPath",
      "outputs": [
        {
          "internalType": "address",
          "name": "",
          "type": "address"
        }
      ],
      "stateMutability": "view",
      "type": "function"
    },
    {
      "inputs": [],
      "name": "ZORRO",
      "outputs": [
        {
          "internalType": "address",
          "name": "",
          "type": "address"
        }
      ],
      "stateMutability": "view",
      "type": "function"
    },
    {
      "inputs": [],
      "name": "ZORRODailyDistributionFactorBasisPointsMax",
      "outputs": [
        {
          "internalType": "uint256",
          "name": "",
          "type": "uint256"
        }
      ],
      "stateMutability": "view",
      "type": "function"
    },
    {
      "inputs": [],
      "name": "ZORRODailyDistributionFactorBasisPointsMin",
      "outputs": [
        {
          "internalType": "uint256",
          "name": "",
          "type": "uint256"
        }
      ],
      "stateMutability": "view",
      "type": "function"
    },
    {
      "inputs": [],
      "name": "ZORROPerBlock",
      "outputs": [
        {
          "internalType": "uint256",
          "name": "",
          "type": "uint256"
        }
      ],
      "stateMutability": "view",
      "type": "function"
    },
    {
      "inputs": [
        {
          "internalType": "uint256",
          "name": "",
          "type": "uint256"
        }
      ],
      "name": "ZorroChainToLZMap",
      "outputs": [
        {
          "internalType": "uint16",
          "name": "",
          "type": "uint16"
        }
      ],
      "stateMutability": "view",
      "type": "function"
    },
    {
      "inputs": [],
      "name": "accumulatedSlashedRewards",
      "outputs": [
        {
          "internalType": "uint256",
          "name": "",
          "type": "uint256"
        }
      ],
      "stateMutability": "view",
      "type": "function"
    },
    {
      "inputs": [],
      "name": "baseRewardRateBasisPoints",
      "outputs": [
        {
          "internalType": "uint256",
          "name": "",
          "type": "uint256"
        }
      ],
      "stateMutability": "view",
      "type": "function"
    },
    {
      "inputs": [],
      "name": "blocksPerDay",
      "outputs": [
        {
          "internalType": "uint256",
          "name": "",
          "type": "uint256"
        }
      ],
      "stateMutability": "view",
      "type": "function"
    },
    {
      "inputs": [],
      "name": "burnAddress",
      "outputs": [
        {
          "internalType": "address",
          "name": "",
          "type": "address"
        }
      ],
      "stateMutability": "view",
      "type": "function"
    },
    {
      "inputs": [],
      "name": "chainId",
      "outputs": [
        {
          "internalType": "uint256",
          "name": "",
          "type": "uint256"
        }
      ],
      "stateMutability": "view",
      "type": "function"
    },
    {
      "inputs": [],
      "name": "chainMultiplier",
      "outputs": [
        {
          "internalType": "uint256",
          "name": "",
          "type": "uint256"
        }
      ],
      "stateMutability": "view",
      "type": "function"
    },
    {
      "inputs": [
        {
          "internalType": "uint256",
          "name": "_chainId",
          "type": "uint256"
        },
        {
          "internalType": "bytes",
          "name": "_dstContract",
          "type": "bytes"
        },
        {
          "internalType": "uint256",
          "name": "_pid",
          "type": "uint256"
        },
        {
          "internalType": "uint256",
          "name": "_valueUSDC",
          "type": "uint256"
        },
        {
          "internalType": "uint256",
          "name": "_weeksCommitted",
          "type": "uint256"
        },
        {
          "internalType": "uint256",
          "name": "_maxMarketMovement",
          "type": "uint256"
        },
        {
          "internalType": "bytes",
          "name": "_destWallet",
          "type": "bytes"
        }
      ],
      "name": "checkXChainDepositFee",
      "outputs": [
        {
          "internalType": "uint256",
          "name": "",
          "type": "uint256"
        }
      ],
      "stateMutability": "view",
      "type": "function"
    },
    {
      "inputs": [
        {
          "internalType": "uint256",
          "name": "_amountUSDCBuyback",
          "type": "uint256"
        },
        {
          "internalType": "uint256",
          "name": "_amountUSDCRevShare",
          "type": "uint256"
        },
        {
          "internalType": "uint256",
          "name": "_accSlashedRewards",
          "type": "uint256"
        }
      ],
      "name": "checkXChainDistributeEarningsFee",
      "outputs": [
        {
          "internalType": "uint256",
          "name": "",
          "type": "uint256"
        }
      ],
      "stateMutability": "view",
      "type": "function"
    },
    {
      "inputs": [
        {
          "internalType": "uint256",
          "name": "_originChainId",
          "type": "uint256"
        },
        {
          "internalType": "uint256",
          "name": "_pid",
          "type": "uint256"
        },
        {
          "internalType": "uint256",
          "name": "_trancheId",
          "type": "uint256"
        },
        {
          "internalType": "bytes",
          "name": "_originRecipient",
          "type": "bytes"
        },
        {
          "internalType": "uint256",
          "name": "_burnableZORRewards",
          "type": "uint256"
        },
        {
          "internalType": "uint256",
          "name": "_rewardsDue",
          "type": "uint256"
        },
        {
          "internalType": "uint256",
          "name": "_gasForDestinationLZReceive",
          "type": "uint256"
        }
      ],
      "name": "checkXChainRepatriationFee",
      "outputs": [
        {
          "internalType": "uint256",
          "name": "",
          "type": "uint256"
        }
      ],
      "stateMutability": "view",
      "type": "function"
    },
    {
      "inputs": [
        {
          "internalType": "uint256",
          "name": "_zorroChainId",
          "type": "uint256"
        },
        {
          "internalType": "uint256",
          "name": "_pid",
          "type": "uint256"
        },
        {
          "internalType": "uint256",
          "name": "_trancheId",
          "type": "uint256"
        },
        {
          "internalType": "uint256",
          "name": "_maxMarketMovement",
          "type": "uint256"
        },
        {
          "internalType": "uint256",
          "name": "_gasForDestinationLZReceive",
          "type": "uint256"
        }
      ],
      "name": "checkXChainWithdrawalFee",
      "outputs": [
        {
          "internalType": "uint256",
          "name": "",
          "type": "uint256"
        }
      ],
      "stateMutability": "view",
      "type": "function"
    },
    {
      "inputs": [
        {
          "internalType": "uint256",
          "name": "",
          "type": "uint256"
        }
      ],
      "name": "controllerContractsMap",
      "outputs": [
        {
          "internalType": "bytes",
          "name": "",
          "type": "bytes"
        }
      ],
      "stateMutability": "view",
      "type": "function"
    },
    {
      "inputs": [],
      "name": "defaultMaxMarketMovement",
      "outputs": [
        {
          "internalType": "uint256",
          "name": "",
          "type": "uint256"
        }
      ],
      "stateMutability": "view",
      "type": "function"
    },
    {
      "inputs": [],
      "name": "defaultStablecoin",
      "outputs": [
        {
          "internalType": "address",
          "name": "",
          "type": "address"
        }
      ],
      "stateMutability": "view",
      "type": "function"
    },
    {
      "inputs": [
        {
          "internalType": "uint256",
          "name": "_pid",
          "type": "uint256"
        },
        {
          "internalType": "uint256",
          "name": "_wantAmt",
          "type": "uint256"
        },
        {
          "internalType": "uint256",
          "name": "_weeksCommitted",
          "type": "uint256"
        }
      ],
      "name": "deposit",
      "outputs": [],
      "stateMutability": "nonpayable",
      "type": "function"
    },
    {
      "inputs": [
        {
          "internalType": "uint256",
          "name": "_pid",
          "type": "uint256"
        },
        {
          "internalType": "uint256",
          "name": "_valueUSDC",
          "type": "uint256"
        },
        {
          "internalType": "uint256",
          "name": "_weeksCommitted",
          "type": "uint256"
        },
        {
          "internalType": "uint256",
          "name": "_maxMarketMovement",
          "type": "uint256"
        }
      ],
      "name": "depositFullService",
      "outputs": [],
      "stateMutability": "nonpayable",
      "type": "function"
    },
    {
      "inputs": [
        {
          "internalType": "uint256",
          "name": "",
          "type": "uint256"
        },
        {
          "internalType": "bytes",
          "name": "",
          "type": "bytes"
        },
        {
          "internalType": "uint256",
          "name": "",
          "type": "uint256"
        }
      ],
      "name": "foreignTrancheInfo",
      "outputs": [
        {
          "internalType": "address",
          "name": "",
          "type": "address"
        }
      ],
      "stateMutability": "view",
      "type": "function"
    },
    {
      "inputs": [
        {
          "internalType": "uint256",
          "name": "durationInWeeks",
          "type": "uint256"
        }
      ],
      "name": "getTimeMultiplier",
      "outputs": [
        {
          "internalType": "uint256",
          "name": "",
          "type": "uint256"
        }
      ],
      "stateMutability": "view",
      "type": "function"
    },
    {
      "inputs": [
        {
          "internalType": "uint256",
          "name": "_liquidityCommitted",
          "type": "uint256"
        },
        {
          "internalType": "uint256",
          "name": "_timeMultiplier",
          "type": "uint256"
        }
      ],
      "name": "getUserContribution",
      "outputs": [
        {
          "internalType": "uint256",
          "name": "",
          "type": "uint256"
        }
      ],
      "stateMutability": "pure",
      "type": "function"
    },
    {
      "inputs": [],
      "name": "homeChainId",
      "outputs": [
        {
          "internalType": "uint256",
          "name": "",
          "type": "uint256"
        }
      ],
      "stateMutability": "view",
      "type": "function"
    },
    {
      "inputs": [],
      "name": "homeChainZorroController",
      "outputs": [
        {
          "internalType": "address",
          "name": "",
          "type": "address"
        }
      ],
      "stateMutability": "view",
      "type": "function"
    },
    {
      "inputs": [
        {
          "internalType": "address",
          "name": "_token",
          "type": "address"
        },
        {
          "internalType": "uint256",
          "name": "_amount",
          "type": "uint256"
        }
      ],
      "name": "inCaseTokensGetStuck",
      "outputs": [],
      "stateMutability": "nonpayable",
      "type": "function"
    },
    {
      "inputs": [],
      "name": "isTimeMultiplierActive",
      "outputs": [
        {
          "internalType": "bool",
          "name": "",
          "type": "bool"
        }
      ],
      "stateMutability": "view",
      "type": "function"
    },
    {
      "inputs": [],
      "name": "layerZeroEndpoint",
      "outputs": [
        {
          "internalType": "address",
          "name": "",
          "type": "address"
        }
      ],
      "stateMutability": "view",
      "type": "function"
    },
    {
      "inputs": [],
      "name": "owner",
      "outputs": [
        {
          "internalType": "address",
          "name": "",
          "type": "address"
        }
      ],
      "stateMutability": "view",
      "type": "function"
    },
    {
      "inputs": [
        {
          "internalType": "uint256",
          "name": "",
          "type": "uint256"
        }
      ],
      "name": "poolInfo",
      "outputs": [
        {
          "internalType": "contract IERC20",
          "name": "want",
          "type": "address"
        },
        {
          "internalType": "uint256",
          "name": "allocPoint",
          "type": "uint256"
        },
        {
          "internalType": "uint256",
          "name": "lastRewardBlock",
          "type": "uint256"
        },
        {
          "internalType": "uint256",
          "name": "accZORRORewards",
          "type": "uint256"
        },
        {
          "internalType": "uint256",
          "name": "totalTrancheContributions",
          "type": "uint256"
        },
        {
          "internalType": "address",
          "name": "vault",
          "type": "address"
        }
      ],
      "stateMutability": "view",
      "type": "function"
    },
    {
      "inputs": [],
      "name": "poolLength",
      "outputs": [
        {
          "internalType": "uint256",
          "name": "",
          "type": "uint256"
        }
      ],
      "stateMutability": "view",
      "type": "function"
    },
    {
      "inputs": [],
      "name": "priceFeedLPPoolOtherToken",
      "outputs": [
        {
          "internalType": "contract AggregatorV3Interface",
          "name": "",
          "type": "address"
        }
      ],
      "stateMutability": "view",
      "type": "function"
    },
    {
      "inputs": [],
      "name": "priceFeedZOR",
      "outputs": [
        {
          "internalType": "contract AggregatorV3Interface",
          "name": "",
          "type": "address"
        }
      ],
      "stateMutability": "view",
      "type": "function"
    },
    {
      "inputs": [],
      "name": "publicPool",
      "outputs": [
        {
          "internalType": "address",
          "name": "",
          "type": "address"
        }
      ],
      "stateMutability": "view",
      "type": "function"
    },
    {
      "inputs": [
        {
          "internalType": "uint256",
          "name": "_pid",
          "type": "uint256"
        },
        {
          "internalType": "uint256",
          "name": "_valueUSDC",
          "type": "uint256"
        },
        {
          "internalType": "uint256",
          "name": "_weeksCommitted",
          "type": "uint256"
        },
        {
          "internalType": "uint256",
          "name": "_maxMarketMovement",
          "type": "uint256"
        },
        {
          "internalType": "bytes",
          "name": "_originAccount",
          "type": "bytes"
        },
        {
          "internalType": "address",
          "name": "_destAccount",
          "type": "address"
        }
      ],
      "name": "receiveXChainDepositRequest",
      "outputs": [],
      "stateMutability": "nonpayable",
      "type": "function"
    },
    {
      "inputs": [
        {
          "internalType": "uint256",
          "name": "_remoteChainId",
          "type": "uint256"
        },
        {
          "internalType": "uint256",
          "name": "_amountUSDCBuyback",
          "type": "uint256"
        },
        {
          "internalType": "uint256",
          "name": "_amountUSDCRevShare",
          "type": "uint256"
        },
        {
          "internalType": "uint256",
          "name": "_accSlashedRewards",
          "type": "uint256"
        }
      ],
      "name": "receiveXChainDistributionRequest",
      "outputs": [],
      "stateMutability": "nonpayable",
      "type": "function"
    },
    {
      "inputs": [
        {
          "internalType": "uint256",
          "name": "_originChainId",
          "type": "uint256"
        },
        {
          "internalType": "uint256",
          "name": "_pid",
          "type": "uint256"
        },
        {
          "internalType": "uint256",
          "name": "_trancheId",
          "type": "uint256"
        },
        {
          "internalType": "bytes",
          "name": "_originRecipient",
          "type": "bytes"
        },
        {
          "internalType": "uint256",
          "name": "_burnableZORRewards",
          "type": "uint256"
        },
        {
          "internalType": "uint256",
          "name": "_rewardsDue",
          "type": "uint256"
        }
      ],
      "name": "receiveXChainRepatriationRequest",
      "outputs": [],
      "stateMutability": "nonpayable",
      "type": "function"
    },
    {
      "inputs": [
        {
          "internalType": "uint256",
          "name": "_originChainId",
          "type": "uint256"
        },
        {
          "internalType": "bytes",
          "name": "_originAccount",
          "type": "bytes"
        },
        {
          "internalType": "uint256",
          "name": "_pid",
          "type": "uint256"
        },
        {
          "internalType": "uint256",
          "name": "_trancheId",
          "type": "uint256"
        },
        {
          "internalType": "uint256",
          "name": "_maxMarketMovement",
          "type": "uint256"
        }
      ],
      "name": "receiveXChainWithdrawalRequest",
      "outputs": [],
      "stateMutability": "nonpayable",
      "type": "function"
    },
    {
      "inputs": [
        {
          "internalType": "bytes",
          "name": "",
          "type": "bytes"
        }
      ],
      "name": "registeredXChainControllers",
      "outputs": [
        {
          "internalType": "bool",
          "name": "",
          "type": "bool"
        }
      ],
      "stateMutability": "view",
      "type": "function"
    },
    {
      "inputs": [],
      "name": "renounceOwnership",
      "outputs": [],
      "stateMutability": "nonpayable",
      "type": "function"
    },
    {
      "inputs": [
        {
          "internalType": "uint256",
          "name": "_zorroChainId",
          "type": "uint256"
        },
        {
          "internalType": "uint256",
          "name": "_pid",
          "type": "uint256"
        },
        {
          "internalType": "uint256",
          "name": "_valueUSDC",
          "type": "uint256"
        },
        {
          "internalType": "uint256",
          "name": "_weeksCommitted",
          "type": "uint256"
        },
        {
          "internalType": "uint256",
          "name": "_maxMarketMovement",
          "type": "uint256"
        },
        {
          "internalType": "bytes",
          "name": "_destWallet",
          "type": "bytes"
        }
      ],
      "name": "sendXChainDepositRequest",
      "outputs": [],
      "stateMutability": "payable",
      "type": "function"
    },
    {
      "inputs": [
        {
          "internalType": "uint256",
          "name": "_pid",
          "type": "uint256"
        },
        {
          "internalType": "uint256",
          "name": "_buybackAmountUSDC",
          "type": "uint256"
        },
        {
          "internalType": "uint256",
          "name": "_revShareAmountUSDC",
          "type": "uint256"
        },
        {
          "internalType": "uint256",
          "name": "_maxMarketMovement",
          "type": "uint256"
        }
      ],
      "name": "sendXChainDistributeEarningsRequest",
      "outputs": [],
      "stateMutability": "payable",
      "type": "function"
    },
    {
      "inputs": [
        {
          "internalType": "uint256",
          "name": "_destZorroChainId",
          "type": "uint256"
        },
        {
          "internalType": "uint256",
          "name": "_pid",
          "type": "uint256"
        },
        {
          "internalType": "uint256",
          "name": "_trancheId",
          "type": "uint256"
        },
        {
          "internalType": "uint256",
          "name": "_maxMarketMovement",
          "type": "uint256"
        },
        {
          "internalType": "uint256",
          "name": "_gasForDestinationLZReceive",
          "type": "uint256"
        }
      ],
      "name": "sendXChainWithdrawalRequest",
      "outputs": [],
      "stateMutability": "payable",
      "type": "function"
    },
    {
      "inputs": [
        {
          "internalType": "uint256",
          "name": "_zorroChainId",
          "type": "uint256"
        },
        {
          "internalType": "bytes",
          "name": "_controller",
          "type": "bytes"
        }
      ],
      "name": "setControllerContract",
      "outputs": [],
      "stateMutability": "nonpayable",
      "type": "function"
    },
    {
      "inputs": [
        {
          "internalType": "uint256",
          "name": "_defaultMaxMarketMovement",
          "type": "uint256"
        }
      ],
      "name": "setDefaultMaxMarketMovement",
      "outputs": [],
      "stateMutability": "nonpayable",
      "type": "function"
    },
    {
      "inputs": [
        {
          "internalType": "bool",
          "name": "_isActive",
          "type": "bool"
        }
      ],
      "name": "setIsTimeMultiplierActive",
      "outputs": [],
      "stateMutability": "nonpayable",
      "type": "function"
    },
    {
      "inputs": [
        {
          "internalType": "address",
          "name": "_ZORRO",
          "type": "address"
        },
        {
          "internalType": "address",
          "name": "_defaultStablecoin",
          "type": "address"
        }
      ],
      "name": "setKeyAddresses",
      "outputs": [],
      "stateMutability": "nonpayable",
      "type": "function"
    },
    {
      "inputs": [
        {
          "internalType": "address",
          "name": "_stargateRouter",
          "type": "address"
        },
        {
          "internalType": "uint256",
          "name": "_stargateSwapPoolId",
          "type": "uint256"
        },
        {
          "internalType": "address",
          "name": "_layerZeroEndpoint",
          "type": "address"
        }
      ],
      "name": "setLayerZeroParams",
      "outputs": [],
      "stateMutability": "nonpayable",
      "type": "function"
    },
    {
      "inputs": [
        {
          "internalType": "address",
          "name": "_priceFeedZOR",
          "type": "address"
        },
        {
          "internalType": "address",
          "name": "_priceFeedLPPoolOtherToken",
          "type": "address"
        }
      ],
      "name": "setPriceFeeds",
      "outputs": [],
      "stateMutability": "nonpayable",
      "type": "function"
    },
    {
      "inputs": [
        {
          "internalType": "uint256[]",
          "name": "_blockParams",
          "type": "uint256[]"
        },
        {
          "internalType": "uint256[]",
          "name": "_dailyDistFactors",
          "type": "uint256[]"
        },
        {
          "internalType": "uint256",
          "name": "_chainMultiplier",
          "type": "uint256"
        },
        {
          "internalType": "uint256",
          "name": "_baseRewardRateBasisPoints",
          "type": "uint256"
        }
      ],
      "name": "setRewardsParams",
      "outputs": [],
      "stateMutability": "nonpayable",
      "type": "function"
    },
    {
      "inputs": [
        {
          "internalType": "uint256",
          "name": "_zorroChainId",
          "type": "uint256"
        },
        {
          "internalType": "uint16",
          "name": "_stargatePoolId",
          "type": "uint16"
        }
      ],
      "name": "setStargateDestPoolIds",
      "outputs": [],
      "stateMutability": "nonpayable",
      "type": "function"
    },
    {
      "inputs": [
        {
          "internalType": "uint256",
          "name": "_startBlock",
          "type": "uint256"
        }
      ],
      "name": "setStartBlock",
      "outputs": [],
      "stateMutability": "nonpayable",
      "type": "function"
    },
    {
      "inputs": [
        {
          "internalType": "uint256",
          "name": "_targetTVLCaptureBasisPoints",
          "type": "uint256"
        }
      ],
      "name": "setTargetTVLCaptureBasisPoints",
      "outputs": [],
      "stateMutability": "nonpayable",
      "type": "function"
    },
    {
      "inputs": [
        {
          "internalType": "address[]",
          "name": "_path",
          "type": "address[]"
        }
      ],
      "name": "setUSDCToZORPath",
      "outputs": [],
      "stateMutability": "nonpayable",
      "type": "function"
    },
    {
      "inputs": [
        {
          "internalType": "address[]",
          "name": "_path",
          "type": "address[]"
        }
      ],
      "name": "setUSDCToZorroLPPoolOtherTokenPath",
      "outputs": [],
      "stateMutability": "nonpayable",
      "type": "function"
    },
    {
      "inputs": [
        {
          "internalType": "address",
          "name": "_uniV2Router",
          "type": "address"
        }
      ],
      "name": "setUniRouter",
      "outputs": [],
      "stateMutability": "nonpayable",
      "type": "function"
    },
    {
      "inputs": [
        {
          "internalType": "uint256",
          "name": "_chainId",
          "type": "uint256"
        },
        {
          "internalType": "uint256",
          "name": "_homeChainId",
          "type": "uint256"
        },
        {
          "internalType": "address",
          "name": "_homeChainZorroController",
          "type": "address"
        }
      ],
      "name": "setXChainParams",
      "outputs": [],
      "stateMutability": "nonpayable",
      "type": "function"
    },
    {
      "inputs": [
        {
          "internalType": "uint256",
          "name": "_zorroChainId",
          "type": "uint256"
        },
        {
          "internalType": "uint16",
          "name": "_lzChainId",
          "type": "uint16"
        }
      ],
      "name": "setZorroChainToLZMap",
      "outputs": [],
      "stateMutability": "nonpayable",
      "type": "function"
    },
    {
      "inputs": [
        {
          "internalType": "address",
          "name": "_publicPool",
          "type": "address"
        },
        {
          "internalType": "address",
          "name": "_zorroStakingVault",
          "type": "address"
        }
      ],
      "name": "setZorroContracts",
      "outputs": [],
      "stateMutability": "nonpayable",
      "type": "function"
    },
    {
      "inputs": [
        {
          "internalType": "address",
          "name": "_zorroControllerOracle",
          "type": "address"
        }
      ],
      "name": "setZorroControllerOracle",
      "outputs": [],
      "stateMutability": "nonpayable",
      "type": "function"
    },
    {
      "inputs": [
        {
          "internalType": "address",
          "name": "_zorroLPPool",
          "type": "address"
        },
        {
          "internalType": "address",
          "name": "_zorroLPPoolOtherToken",
          "type": "address"
        }
      ],
      "name": "setZorroLPPoolParams",
      "outputs": [],
      "stateMutability": "nonpayable",
      "type": "function"
    },
    {
      "inputs": [
        {
          "internalType": "uint256",
          "name": "_totalChainMultipliers",
          "type": "uint256"
        },
        {
          "internalType": "uint256",
          "name": "_totalMarketTVLUSD",
          "type": "uint256"
        },
        {
          "internalType": "uint256",
          "name": "_targetTVLCaptureBasisPoints",
          "type": "uint256"
        },
        {
          "internalType": "uint256",
          "name": "_ZorroTotalVaultTVLUSD",
          "type": "uint256"
        },
        {
          "internalType": "uint256",
          "name": "_publicPoolZORBalance",
          "type": "uint256"
        }
      ],
      "name": "setZorroPerBlock",
      "outputs": [],
      "stateMutability": "nonpayable",
      "type": "function"
    },
    {
      "inputs": [
        {
          "internalType": "uint256",
          "name": "",
          "type": "uint256"
        }
      ],
      "name": "stargateDestPoolIds",
      "outputs": [
        {
          "internalType": "uint256",
          "name": "",
          "type": "uint256"
        }
      ],
      "stateMutability": "view",
      "type": "function"
    },
    {
      "inputs": [],
      "name": "stargateRouter",
      "outputs": [
        {
          "internalType": "address",
          "name": "",
          "type": "address"
        }
      ],
      "stateMutability": "view",
      "type": "function"
    },
    {
      "inputs": [],
      "name": "stargateSwapPoolId",
      "outputs": [
        {
          "internalType": "uint256",
          "name": "",
          "type": "uint256"
        }
      ],
      "stateMutability": "view",
      "type": "function"
    },
    {
      "inputs": [],
      "name": "startBlock",
      "outputs": [
        {
          "internalType": "uint256",
          "name": "",
          "type": "uint256"
        }
      ],
      "stateMutability": "view",
      "type": "function"
    },
    {
      "inputs": [],
      "name": "targetTVLCaptureBasisPoints",
      "outputs": [
        {
          "internalType": "uint256",
          "name": "",
          "type": "uint256"
        }
      ],
      "stateMutability": "view",
      "type": "function"
    },
    {
      "inputs": [],
      "name": "totalAllocPoint",
      "outputs": [
        {
          "internalType": "uint256",
          "name": "",
          "type": "uint256"
        }
      ],
      "stateMutability": "view",
      "type": "function"
    },
    {
      "inputs": [
        {
          "internalType": "uint256",
          "name": "",
          "type": "uint256"
        },
        {
          "internalType": "address",
          "name": "",
          "type": "address"
        },
        {
          "internalType": "uint256",
          "name": "",
          "type": "uint256"
        }
      ],
      "name": "trancheInfo",
      "outputs": [
        {
          "internalType": "uint256",
          "name": "contribution",
          "type": "uint256"
        },
        {
          "internalType": "uint256",
          "name": "timeMultiplier",
          "type": "uint256"
        },
        {
          "internalType": "uint256",
          "name": "rewardDebt",
          "type": "uint256"
        },
        {
          "internalType": "uint256",
          "name": "durationCommittedInWeeks",
          "type": "uint256"
        },
        {
          "internalType": "uint256",
          "name": "enteredVaultAt",
          "type": "uint256"
        },
        {
          "internalType": "uint256",
          "name": "exitedVaultAt",
          "type": "uint256"
        }
      ],
      "stateMutability": "view",
      "type": "function"
    },
    {
      "inputs": [
        {
          "internalType": "uint256",
          "name": "_pid",
          "type": "uint256"
        },
        {
          "internalType": "address",
          "name": "_user",
          "type": "address"
        }
      ],
      "name": "trancheLength",
      "outputs": [
        {
          "internalType": "uint256",
          "name": "",
          "type": "uint256"
        }
      ],
      "stateMutability": "view",
      "type": "function"
    },
    {
      "inputs": [
        {
          "internalType": "uint256",
          "name": "_fromPid",
          "type": "uint256"
        },
        {
          "internalType": "uint256",
          "name": "_fromTrancheId",
          "type": "uint256"
        },
        {
          "internalType": "uint256",
          "name": "_toPid",
          "type": "uint256"
        },
        {
          "internalType": "uint256",
          "name": "_maxMarketMovement",
          "type": "uint256"
        }
      ],
      "name": "transferInvestment",
      "outputs": [],
      "stateMutability": "nonpayable",
      "type": "function"
    },
    {
      "inputs": [
        {
          "internalType": "address",
          "name": "newOwner",
          "type": "address"
        }
      ],
      "name": "transferOwnership",
      "outputs": [],
      "stateMutability": "nonpayable",
      "type": "function"
    },
    {
      "inputs": [],
      "name": "uniRouterAddress",
      "outputs": [
        {
          "internalType": "address",
          "name": "",
          "type": "address"
        }
      ],
      "stateMutability": "view",
      "type": "function"
    },
    {
      "inputs": [
        {
          "internalType": "uint256",
          "name": "_pid",
          "type": "uint256"
        }
      ],
      "name": "updatePool",
      "outputs": [
        {
          "internalType": "uint256",
          "name": "",
          "type": "uint256"
        }
      ],
      "stateMutability": "nonpayable",
      "type": "function"
    },
    {
      "inputs": [
        {
          "internalType": "uint256",
          "name": "_pid",
          "type": "uint256"
        },
        {
          "internalType": "uint256",
          "name": "_trancheId",
          "type": "uint256"
        },
        {
          "internalType": "bool",
          "name": "_harvestOnly",
          "type": "bool"
        }
      ],
      "name": "withdraw",
      "outputs": [
        {
          "internalType": "uint256",
          "name": "",
          "type": "uint256"
        }
      ],
      "stateMutability": "nonpayable",
      "type": "function"
    },
    {
      "inputs": [
        {
          "internalType": "uint256",
          "name": "_pid",
          "type": "uint256"
        }
      ],
      "name": "withdrawAll",
      "outputs": [],
      "stateMutability": "nonpayable",
      "type": "function"
    },
    {
      "inputs": [
        {
          "internalType": "uint256",
          "name": "_pid",
          "type": "uint256"
        },
        {
          "internalType": "uint256",
          "name": "_trancheId",
          "type": "uint256"
        },
        {
          "internalType": "bool",
          "name": "_harvestOnly",
          "type": "bool"
        },
        {
          "internalType": "uint256",
          "name": "_maxMarketMovement",
          "type": "uint256"
        }
      ],
      "name": "withdrawalFullService",
      "outputs": [
        {
          "internalType": "uint256",
          "name": "",
          "type": "uint256"
        }
      ],
      "stateMutability": "nonpayable",
      "type": "function"
    },
    {
      "inputs": [],
      "name": "zorroControllerOracle",
      "outputs": [
        {
          "internalType": "address",
          "name": "",
          "type": "address"
        }
      ],
      "stateMutability": "view",
      "type": "function"
    },
    {
      "inputs": [],
      "name": "zorroLPPool",
      "outputs": [
        {
          "internalType": "address",
          "name": "",
          "type": "address"
        }
      ],
      "stateMutability": "view",
      "type": "function"
    },
    {
      "inputs": [],
      "name": "zorroLPPoolOtherToken",
      "outputs": [
        {
          "internalType": "address",
          "name": "",
          "type": "address"
        }
      ],
      "stateMutability": "view",
      "type": "function"
    },
    {
      "inputs": [],
      "name": "zorroStakingVault",
      "outputs": [
        {
          "internalType": "address",
          "name": "",
          "type": "address"
        }
      ],
      "stateMutability": "view",
      "type": "function"
    },
    {
      "inputs": [
        {
          "internalType": "bytes",
          "name": "_contract",
          "type": "bytes"
        }
      ],
      "name": "registerXChainController",
      "outputs": [],
      "stateMutability": "nonpayable",
      "type": "function"
    },
    {
      "inputs": [
        {
          "internalType": "bytes",
          "name": "_contract",
          "type": "bytes"
        }
      ],
      "name": "unRegisterXChainController",
      "outputs": [],
      "stateMutability": "nonpayable",
      "type": "function"
    },
    {
      "inputs": [
        {
          "internalType": "uint16",
          "name": "_chainId",
          "type": "uint16"
        },
        {
          "internalType": "bytes",
          "name": "_srcAddress",
          "type": "bytes"
        },
        {
          "internalType": "uint256",
          "name": "_nonce",
          "type": "uint256"
        },
        {
          "internalType": "address",
          "name": "_token",
          "type": "address"
        },
        {
          "internalType": "uint256",
          "name": "amountLD",
          "type": "uint256"
        },
        {
          "internalType": "bytes",
          "name": "payload",
          "type": "bytes"
        }
      ],
      "name": "sgReceive",
      "outputs": [],
      "stateMutability": "nonpayable",
      "type": "function"
    },
    {
      "inputs": [
        {
          "internalType": "uint16",
          "name": "_srcChainId",
          "type": "uint16"
        },
        {
          "internalType": "bytes",
          "name": "_srcAddress",
          "type": "bytes"
        },
        {
          "internalType": "uint64",
          "name": "_nonce",
          "type": "uint64"
        },
        {
          "internalType": "bytes",
          "name": "_payload",
          "type": "bytes"
        }
      ],
      "name": "lzReceive",
      "outputs": [],
      "stateMutability": "nonpayable",
      "type": "function"
    }
  ],
  "bytecode": "0x60806040526103ca601b553480156200001757600080fd5b506200003e6200002f64010000000062000048810204565b6401000000006200004c810204565b600180556200009c565b3390565b60008054600160a060020a03838116600160a060020a0319831681178455604051919092169283917f8be0079c531659141344cd1fd0a4f28419497f9722a3daafe3b4186f6b6457e09190a35050565b61670c80620000ac6000396000f3fe6080604052600436106104cd5760003560e060020a9004806379777d811161027a578063a80bee0711610153578063cb9c2f68116100c5578063ee4e268711610089578063ee4e268714610f8a578063ef12696714610faa578063f2fde38b14610fc0578063f35e4a6e14610fe0578063f63cce3714611000578063fc39a29e1461102057600080fd5b8063cb9c2f6814610efe578063cd17ac1414610f14578063e7d7ce8a14610f34578063e940f6e114610f54578063ebfba7c414610f6a57600080fd5b8063b61bb80a11610117578063b61bb80a14610e4d578063bdb2fc8b14610e6d578063c293614214610e8d578063c6d758cb14610ea3578063c8ba44b514610ec3578063c9f363c414610ede57600080fd5b8063a80bee0714610d80578063a9e56f3c14610da0578063ab8236f314610dc0578063b22f325114610de0578063b4b4e9eb14610e0057600080fd5b80638f426e2c116101ec5780639a8a0592116101b05780639a8a059214610ceb5780639b8ad2d614610d015780639cebd37114610d175780639ec68c7614610d2d578063a2df085c14610d4d578063a4d2b08314610d6057600080fd5b80638f426e2c14610c39578063941d3fd014610c595780639568786c14610c8b578063958e2d3114610cab5780639a448c0c14610ccb57600080fd5b806381ea795d1161023e57806381ea795d14610b7b578063823c43d014610b9b578063871869ca14610bbb5780638b5694d614610bdb5780638c157db214610bfb5780638da5cb5b14610c1b57600080fd5b806379777d8114610adb5780637bd4552214610afb5780637bf604d814610b1b5780637e37c76914610b3b5780637f633ea814610b5b57600080fd5b80634780f9f5116103ac5780636179ecd11161031e578063693a090b116102e2578063693a090b14610a305780636b8eb2e514610a505780636c78d49c14610a7057806370d5ae0514610a90578063715018a614610aa6578063745af0a814610abb57600080fd5b80636179ecd11461096f57806361b729dc1461098f57806365bc77bc146109aa578063668ababb146109f5578063692d8b8b14610a1557600080fd5b806353f73f871161037057806353f73f87146108b65780635527a6f9146108d65780635790f599146108ec578063593af9fe146109025780635c63fa871461092f5780635ef573f91461094f57600080fd5b80634780f9f51461082a57806348cd4cb11461084a5780634cfea68a146108605780635051d3711461087657806351eb05a61461089657600080fd5b8063293da9d4116104455780633ad5875c116104095780633ad5875c146107745780633b710688146107875780633b9ce5651461079d5780633bbc1ffc146107b3578063459f4753146107d3578063464e3c8b1461081757600080fd5b8063293da9d41461068f5780632e31283d146106bc5780633332fcf41461071457806333cfcd3b146107345780633a6291211461075457600080fd5b80630aa0988e116104975780630aa0988e14610590578063104a6132146105b057806313a2e880146105d05780631526fe27146105f057806317caf6f11461064c578063219b38b81461066257600080fd5b80621d3567146104d2578062aeef8a146104f4578063068f158d1461051457806307968db114610534578063081e3eda14610571575b600080fd5b3480156104de57600080fd5b506104f26104ed36600461544f565b611040565b005b34801561050057600080fd5b506104f261050f3660046154e9565b611198565b34801561052057600080fd5b506104f261052f36600461552a565b61124c565b34801561054057600080fd5b5060235461055490600160a060020a031681565b604051600160a060020a0390911681526020015b60405180910390f35b34801561057d57600080fd5b506012545b604051908152602001610568565b34801561059c57600080fd5b506104f26105ab36600461552a565b6112a7565b3480156105bc57600080fd5b506105546105cb366004615563565b611302565b3480156105dc57600080fd5b506104f26105eb36600461557c565b61132c565b3480156105fc57600080fd5b5061061061060b366004615563565b611378565b60408051600160a060020a03978816815260208101969096528501939093526060840191909152608083015290911660a082015260c001610568565b34801561065857600080fd5b50610582600e5481565b34801561066e57600080fd5b5061058261067d366004615563565b60226020526000908152604090205481565b34801561069b57600080fd5b506105826106aa3660046155c8565b60266020526000908152604090205481565b3480156106c857600080fd5b506105546106d73660046156ab565b60146020908152600093845260408085208451808601840180519281529084019584019590952094529290528252902054600160a060020a031681565b34801561072057600080fd5b506104f261072f3660046156fb565b6113cb565b34801561074057600080fd5b5061058261074f3660046157ba565b61140f565b34801561076057600080fd5b5061058261076f3660046157f3565b6114a9565b6104f26107823660046157f3565b6115af565b34801561079357600080fd5b50610582600d5481565b3480156107a957600080fd5b50610582600b5481565b3480156107bf57600080fd5b506104f26107ce366004615563565b611710565b3480156107df57600080fd5b506108046107ee366004615563565b601f6020526000908152604090205461ffff1681565b60405161ffff9091168152602001610568565b6104f261082536600461582e565b61179f565b34801561083657600080fd5b506104f261084536600461582e565b611a59565b34801561085657600080fd5b5061058260065481565b34801561086c57600080fd5b5061058260075481565b34801561088257600080fd5b506104f2610891366004615860565b611b02565b3480156108a257600080fd5b506105826108b1366004615563565b611b51565b3480156108c257600080fd5b506105826108d136600461587d565b611cd0565b3480156108e257600080fd5b50610582600a5481565b3480156108f857600080fd5b5061058260215481565b34801561090e57600080fd5b5061092261091d366004615563565b611cf8565b60405161056891906158fa565b34801561093b57600080fd5b506104f261094a36600461590d565b611d92565b34801561095b57600080fd5b506104f261096a36600461582e565b611de9565b34801561097b57600080fd5b506104f261098a366004615563565b611e34565b34801561099b57600080fd5b506104f261096a36600461593b565b3480156109b657600080fd5b506109e56109c536600461599d565b805160208183018101805160258252928201919093012091525460ff1681565b6040519015158152602001610568565b348015610a0157600080fd5b5060045461055490600160a060020a031681565b348015610a2157600080fd5b506104f261096a3660046159d2565b348015610a3c57600080fd5b5060185461055490600160a060020a031681565b348015610a5c57600080fd5b506104f2610a6b3660046157f3565b611e75565b348015610a7c57600080fd5b506104f2610a8b366004615a49565b611f74565b348015610a9c57600080fd5b5061055461dead81565b348015610ab257600080fd5b506104f2611fe1565b348015610ac757600080fd5b50610582610ad6366004615a66565b61201a565b348015610ae757600080fd5b50601d5461055490600160a060020a031681565b348015610b0757600080fd5b506104f2610b16366004615aa5565b612094565b348015610b2757600080fd5b5060165461055490600160a060020a031681565b348015610b4757600080fd5b506104f2610b5636600461582e565b6120f5565b348015610b6757600080fd5b506104f2610b76366004615adc565b612276565b348015610b8757600080fd5b506104f2610b9636600461599d565b6122c7565b348015610ba757600080fd5b5060155461055490600160a060020a031681565b348015610bc757600080fd5b506104f2610bd636600461599d565b612329565b348015610be757600080fd5b506104f2610bf6366004615adc565b612368565b348015610c0757600080fd5b5060025461055490600160a060020a031681565b348015610c2757600080fd5b50600054600160a060020a0316610554565b348015610c4557600080fd5b50610582610c54366004615b08565b6123ae565b348015610c6557600080fd5b506015546109e59074010000000000000000000000000000000000000000900460ff1681565b348015610c9757600080fd5b50610582610ca6366004615563565b612538565b348015610cb757600080fd5b506104f2610cc6366004615563565b612629565b348015610cd757600080fd5b50610554610ce6366004615563565b612693565b348015610cf757600080fd5b50610582600f5481565b348015610d0d57600080fd5b50610582601b5481565b348015610d2357600080fd5b50610582600c5481565b348015610d3957600080fd5b506104f2610d4836600461552a565b6126a3565b6104f2610d5b366004615b7d565b6126fe565b348015610d6c57600080fd5b5060055461055490600160a060020a031681565b348015610d8c57600080fd5b50610582610d9b366004615be9565b612906565b348015610dac57600080fd5b5060205461055490600160a060020a031681565b348015610dcc57600080fd5b506104f2610ddb366004615c0b565b612922565b348015610dec57600080fd5b50601c5461055490600160a060020a031681565b348015610e0c57600080fd5b50610e20610e1b366004615c99565b612bd1565b604080519687526020870195909552938501929092526060840152608083015260a082015260c001610568565b348015610e5957600080fd5b5060035461055490600160a060020a031681565b348015610e7957600080fd5b506104f2610e883660046156fb565b612c32565b348015610e9957600080fd5b5061058260085481565b348015610eaf57600080fd5b506104f2610ebe366004615cd1565b612c72565b348015610ecf57600080fd5b506104f261096a366004615cfd565b348015610eea57600080fd5b50610582610ef9366004615d69565b612d3a565b348015610f0a57600080fd5b5061058260095481565b348015610f2057600080fd5b506104f2610f2f366004615e41565b612e1f565b348015610f4057600080fd5b50610582610f4f3660046154e9565b612ed2565b348015610f6057600080fd5b5061058260245481565b348015610f7657600080fd5b5060175461055490600160a060020a031681565b348015610f9657600080fd5b506104f2610fa5366004615860565b612ff2565b348015610fb657600080fd5b5061058260105481565b348015610fcc57600080fd5b506104f2610fdb366004615860565b613041565b348015610fec57600080fd5b506104f2610ffb366004615563565b6130f9565b34801561100c57600080fd5b506104f261101b36600461552a565b61317e565b34801561102c57600080fd5b5060115461055490600160a060020a031681565b61ffff8616600090815260266020526040908190205490516025906110689088908890615ebf565b9081526040519081900360200190205460ff166110cf5760405160e560020a62461bcd02815260206004820152601760248201527f756e7265636f676e697a656420636f6e74726f6c6c657200000000000000000060448201526064015b60405180910390fd5b60006110db8385615ecf565b90507f61b729dc00000000000000000000000000000000000000000000000000000000600160e060020a03198216141561114357600080808080611121888a018a615f18565b95509550955095509550506111398585858585613236565b505050505061118e565b60405160e560020a62461bcd02815260206004820152601160248201527f556e7265636f676e697a65642066756e6300000000000000000000000000000060448201526064016110c6565b5050505050505050565b600260015414156111be5760405160e560020a62461bcd0281526004016110c690615f8d565b60026001819055506000601284815481106111db576111db615fc4565b60009182526020909120600690910201805490915061120490600160a060020a03163085613364565b6005810154815461122491600160a060020a039182169133911686613490565b6112418433604051806020016040528060008152508686426134e1565b505060018055505050565b600054600160a060020a031633146112795760405160e560020a62461bcd0281526004016110c690615fdd565b601c8054600160a060020a03938416600160a060020a031991821617909155601d8054929093169116179055565b600054600160a060020a031633146112d45760405160e560020a62461bcd0281526004016110c690615fdd565b60028054600160a060020a03938416600160a060020a03199182161790915560038054929093169116179055565b6019818154811061131257600080fd5b600091825260209091200154600160a060020a0316905081565b600054600160a060020a031633146113595760405160e560020a62461bcd0281526004016110c690615fdd565b6000838152601e6020526040902061137290838361530d565b50505050565b6012818154811061138857600080fd5b6000918252602090912060069091020180546001820154600283015460038401546004850154600590950154600160a060020a0394851696509294919390921686565b600054600160a060020a031633146113f85760405160e560020a62461bcd0281526004016110c690615fdd565b805161140b906019906020840190615391565b5050565b6000600260015414156114375760405160e560020a62461bcd0281526004016110c690615f8d565b6002600181905550600061145d85336040518060200160405280600081525087876137f5565b905061149c3382600001516012888154811061147b5761147b615fc4565b6000918252602090912060069091020154600160a060020a03169190613caf565b5160018055949350505050565b6000858152601f6020908152604080832054600f5491516c0100000000000000000000000033029381019390935261ffff169183916114fc91603401604051602081830303815290604052898989613cfd565b9050600061150985613d7e565b6023546040517f40a7bb10000000000000000000000000000000000000000000000000000000008152919250600091600160a060020a03909116906340a7bb10906115609087903090889087908990600401616012565b6040805180830381865afa15801561157c573d6000803e3d6000fd5b505050506040513d601f19601f820116820180604052508101906115a09190616058565b509a9950505050505050505050565b600260015414156115d55760405160e560020a62461bcd0281526004016110c690615f8d565b6002600155600f546040516c010000000000000000000000003302602082015260009161161691603401604051602081830303815290604052878787613cfd565b6000878152601e60205260408120805492935090916116349061607c565b80601f01602080910402602001604051908101604052809291908181526020018280546116609061607c565b80156116ad5780601f10611682576101008083540402835291602001916116ad565b820191906000526020600020905b81548152906001019060200180831161169057829003601f168201915b505050505090506117036040518060c0016040528089815260200183815260200184815260200133600160a060020a031681526020016000600160a060020a031681526020016116fc86613d7e565b9052613dc2565b5050600180555050505050565b600054600160a060020a0316331461173d5760405160e560020a62461bcd0281526004016110c690615fdd565b601154600160a060020a0316301461179a5760405160e560020a62461bcd02815260206004820152600f60248201527f6f6e6c7920686f6d6520636861696e000000000000000000000000000000000060448201526064016110c6565b600955565b600260015414156117c55760405160e560020a62461bcd0281526004016110c690615f8d565b600260018190555083601281815481106117e1576117e1615fc4565b6000918252602090912060069091020160050154600160a060020a031633600160a060020a0316146118585760405160e560020a62461bcd02815260206004820152600e60248201527f6f6e6c7920726567207661756c7400000000000000000000000000000000000060448201526064016110c6565b600034116118ab5760405160e560020a62461bcd02815260206004820152601160248201527f4e6f2066656573207375626d697474656400000000000000000000000000000060448201526064016110c6565b60006118b78585613e77565b6003549091506118d190600160a060020a03163083613364565b6003546118e990600160a060020a0316333084613490565b60035460405160e060020a6370a08231028152306004820152600091600160a060020a0316906370a0823190602401602060405180830381865afa158015611935573d6000803e3d6000fd5b505050506040513d601f19601f8201168201806040525081019061195991906160ba565b90506000611965613e83565b90506000611977600f54898985613eb9565b600f546000908152601e60205260408120805492935090916119989061607c565b80601f01602080910402602001604051908101604052809291908181526020018280546119c49061607c565b8015611a115780601f106119e657610100808354040283529160200191611a11565b820191906000526020600020905b8154815290600101906020018083116119f457829003601f168201915b50505050509050611a496040518060a00160405280601054815260200186815260200183815260200184815260200189815250613f3a565b5050600180555050505050505050565b60026001541415611a7f5760405160e560020a62461bcd0281526004016110c690615f8d565b6002600181905550600060128581548110611a9c57611a9c615fc4565b6000918252602090912060056006909202010154600354600160a060020a039182169250611acc91163086613364565b600354611ae490600160a060020a0316338387613490565b61124185336040518060200160405280600081525087874288613fed565b600054600160a060020a03163314611b2f5760405160e560020a62461bcd0281526004016110c690615fdd565b60158054600160a060020a031916600160a060020a0392909216919091179055565b60008060128381548110611b6757611b67615fc4565b9060005260206000209060060201905080600201544311611b8b5750600092915050565b6000611ba48260020154436140fe90919063ffffffff16565b905060008111611bb8575060009392505050565b6000611be9600e54611be38560010154611bdd6008548761410a90919063ffffffff16565b9061410a565b90614116565b601154909150600160a060020a0316301415611c4257600454600254611c1d91600160a060020a0391821691163084613490565b6003830154611c2c9082613e77565b6003840155505043600290910155506000919050565b6002546040517f40c10f1900000000000000000000000000000000000000000000000000000000815230600482015260248101839052600160a060020a03909116906340c10f1990604401600060405180830381600087803b158015611ca757600080fd5b505af1158015611cbb573d6000803e3d6000fd5b5092979650505050505050565b505050919050565b6000918252601360209081526040808420600160a060020a0393909316845291905290205490565b601e6020526000908152604090208054611d119061607c565b80601f0160208091040260200160405190810160405280929190818152602001828054611d3d9061607c565b8015611d8a5780601f10611d5f57610100808354040283529160200191611d8a565b820191906000526020600020905b815481529060010190602001808311611d6d57829003601f168201915b505050505081565b600054600160a060020a03163314611dbf5760405160e560020a62461bcd0281526004016110c690615fdd565b600f9290925560105560118054600160a060020a031916600160a060020a03909216919091179055565b60405160e560020a62461bcd02815260206004820152601760248201527f696c6c6567616c2064756d6d792066756e632063616c6c00000000000000000060448201526064016110c6565b600054600160a060020a03163314611e615760405160e560020a62461bcd0281526004016110c690615fdd565b601b55565b5050505050565b505050505050565b601554600160a060020a031633600160a060020a031614611edb5760405160e560020a62461bcd02815260206004820152601160248201527f6f6e6c79205a6f72726f206f7261636c6500000000000000000000000000000060448201526064016110c6565b6000611efd83611be3611ef087612710614116565b600d54611bdd908a61410a565b9050600b54811115611f125750600b54611f21565b600a54811015611f215750600a545b6000611f33612710611be3858561410a565b90506000611f5088611be384600c5461410a90919063ffffffff16565b9050611f676007548261411690919063ffffffff16565b6008555050505050505050565b600054600160a060020a03163314611fa15760405160e560020a62461bcd0281526004016110c690615fdd565b60158054911515740100000000000000000000000000000000000000000274ff000000000000000000000000000000000000000019909216919091179055565b600054600160a060020a0316331461200e5760405160e560020a62461bcd0281526004016110c690615fdd565b6120186000614228565b565b6000600260015414156120425760405160e560020a62461bcd0281526004016110c690615f8d565b60026001819055506000612069336040518060200160405280600081525088888888614278565b505060035491925061208791600160a060020a031690503383613caf565b6001805595945050505050565b600054600160a060020a031633146120c15760405160e560020a62461bcd0281526004016110c690615fdd565b60208054600160a060020a03948516600160a060020a03199182161790915560219290925560238054919093169116179055565b6002600154141561211b5760405160e560020a62461bcd0281526004016110c690615f8d565b60026001556000848152601360209081526040808320338452909152812080548590811061214b5761214b615fc4565b60009182526020808320600360069093020191909101548783526013825260408084203385529092529082208054919350908690811061218d5761218d615fc4565b906000526020600020906006020160040154905060006121c133604051806020016040528060008152508989600089614278565b50505090506060600360009054906101000a9004600160a060020a0316816000815181106121f1576121f1615fc4565b6020026020010190600160a060020a03169081600160a060020a03168152505061222f8633604051806020016040528060008152508588888b613fed565b604051338152869088908a907f67e7aba7263d8fbeb0cd9a2f4008f060a6a03f46c1d7f9d0550f0b93e96e96f89060200160405180910390a4505060018055505050505050565b600054600160a060020a031633146122a35760405160e560020a62461bcd0281526004016110c690615fdd565b6000918252601f6020526040909120805461ffff191661ffff909216919091179055565b600054600160a060020a031633146122f45760405160e560020a62461bcd0281526004016110c690615fdd565b600160258260405161230691906160d3565b908152604051908190036020019020805491151560ff1990921691909117905550565b600054600160a060020a031633146123565760405160e560020a62461bcd0281526004016110c690615fdd565b600060258260405161230691906160d3565b600054600160a060020a031633146123955760405160e560020a62461bcd0281526004016110c690615fdd565b60009182526022602052604090912061ffff9091169055565b60408051606080820183526000808352602083018190529282015260006123d98a8a8a8a8a8a614392565b60008b8152601e60205260408120805492935090916123f79061607c565b80601f01602080910402602001604051908101604052809291908181526020018280546124239061607c565b80156124705780601f1061244557610100808354040283529160200191612470565b820191906000526020600020905b81548152906001019060200180831161245357829003601f168201915b505050505090506000602060009054906101000a9004600160a060020a0316600160a060020a0316630a512369601f60008f815260200190815260200160002060009054906101000a900461ffff1660018587896040518663ffffffff1660e060020a0281526004016124e7959493929190616118565b6040805180830381865afa158015612503573d6000803e3d6000fd5b505050506040513d601f19601f820116820180604052508101906125279190616058565b509c9b505050505050505050505050565b60155460009074010000000000000000000000000000000000000000900460ff1615612618576040517f677342ce000000000000000000000000000000000000000000000000000000008152600481018390526126129064e8d4a5100090611bdd9061260a9073__CustomMath____________________________9063677342ce90602401602060405180830381865af41580156125da573d6000803e3d6000fd5b505050506040513d601f19601f820116820180604052508101906125fe91906160ba565b611bdd6002600a614116565b600190613e77565b92915050565b5064e8d4a51000919050565b919050565b6002600154141561264f5760405160e560020a62461bcd0281526004016110c690615f8d565b600260015560006126608233611cd0565b905060005b8181101561268a576126798382600061140f565b506126838161617d565b9050612665565b50506001805550565b601a818154811061131257600080fd5b600054600160a060020a031633146126d05760405160e560020a62461bcd0281526004016110c690615fdd565b60168054600160a060020a03938416600160a060020a03199182161790915560178054929093169116179055565b600260015414156127245760405160e560020a62461bcd0281526004016110c690615f8d565b6002600155346127795760405160e560020a62461bcd02815260206004820152601160248201527f4e6f2066656573207375626d697474656400000000000000000000000000000060448201526064016110c6565b60035461279090600160a060020a03163086613364565b6003546127a890600160a060020a0316333087613490565b60035460405160e060020a6370a08231028152306004820152600091600160a060020a0316906370a0823190602401602060405180830381865afa1580156127f4573d6000803e3d6000fd5b505050506040513d601f19601f8201168201806040525081019061281891906160ba565b9050600061282a878387873388614416565b6000898152601e60205260408120805492935090916128489061607c565b80601f01602080910402602001604051908101604052809291908181526020018280546128749061607c565b80156128c15780601f10612896576101008083540402835291602001916128c1565b820191906000526020600020905b8154815290600101906020018083116128a457829003601f168201915b505050505090506128f76040518060a001604052808b815260200185815260200183815260200184815260200187815250613f3a565b50506001805550505050505050565b600061291b64e8d4a51000611be3858561410a565b9392505050565b61ffff861660009081526026602052604080822054905160e060020a6370a08231028152306004820152909190600160a060020a038616906370a0823190602401602060405180830381865afa158015612980573d6000803e3d6000fd5b505050506040513d601f19601f820116820180604052508101906129a491906160ba565b9050808411156129f95760405160e560020a62461bcd02815260206004820152601460248201527f616d6f756e744c4420657863656564732062616c00000000000000000000000060448201526064016110c6565b602587604051612a0991906160d3565b9081526040519081900360200190205460ff16612a6b5760405160e560020a62461bcd02815260206004820152601760248201527f756e7265636f676e697a656420636f6e74726f6c6c657200000000000000000060448201526064016110c6565b6000612a7684616198565b90507f692d8b8b00000000000000000000000000000000000000000000000000000000600160e060020a031982161415612aeb57600080600080600088806020019051810190612ac69190616213565b965096509650965050955050612ae1858b8642878787614219565b5050505050612bc6565b7fc8ba44b500000000000000000000000000000000000000000000000000000000600160e060020a031982161415612b605760008060008060008089806020019051810190612b3a91906162a0565b96509650965096509650965050612b55868686868686614459565b505050505050612bc6565b7f5ef573f900000000000000000000000000000000000000000000000000000000600160e060020a0319821614156111435760008060008087806020019051810190612bac9190616322565b945094509450945050612bc184848484614122565b505050505b505050505050505050565b60136020528260005260406000206020528160005260406000208181548110612bf957600080fd5b60009182526020909120600690910201805460018201546002830154600384015460048501546005909501549397509195509350919086565b600054600160a060020a03163314612c5f5760405160e560020a62461bcd0281526004016110c690615fdd565b805161140b90601a906020840190615391565b600054600160a060020a03163314612c9f5760405160e560020a62461bcd0281526004016110c690615fdd565b600254600160a060020a0383811691161415612d265760405160e560020a62461bcd02815260206004820152603560248201527f217361666520746f20757365205a6f72726f20746f6b656e20696e2066756e6360448201527f20696e43617365546f6b656e73476574537475636b000000000000000000000060648201526084016110c6565b61140b600160a060020a0383163383613caf565b6040805160608082018352600080835260208301819052928201526000612d65888888883389614416565b6020805460008d8152601f90925260408083205490517f0a5123690000000000000000000000000000000000000000000000000000000081529394509192600160a060020a0390911691630a51236991612dcf9161ffff16906001908f9088908a90600401616118565b6040805180830381865afa158015612deb573d6000803e3d6000fd5b505050506040513d601f19601f82011682018060405250810190612e0f9190616058565b509b9a5050505050505050505050565b600054600160a060020a03163314612e4c5760405160e560020a62461bcd0281526004016110c690615fdd565b85856001818110612e5f57612e5f615fc4565b60200291909101356007555085856002818110612e7e57612e7e615fc4565b6020029190910135600855508383600081612e9b57612e9b615fc4565b6020029190910135600a555083836001818110612eba57612eba615fc4565b6020029190910135600b5550600d55600c5550505050565b6040805160608082018352600080835260208301819052928201526000612efd600f54878787613eb9565b601154604051600160a060020a039091166c0100000000000000000000000002602082015290915060009060340160408051601f19818403018152828252602080546010546000908152601f909252928120547f0a51236900000000000000000000000000000000000000000000000000000000855291945092600160a060020a0390921691630a51236991612fa59161ffff90911690600190879089908b90600401616118565b6040805180830381865afa158015612fc1573d6000803e3d6000fd5b505050506040513d601f19601f82011682018060405250810190612fe59190616058565b5098975050505050505050565b600054600160a060020a0316331461301f5760405160e560020a62461bcd0281526004016110c690615fdd565b60188054600160a060020a031916600160a060020a0392909216919091179055565b600054600160a060020a0316331461306e5760405160e560020a62461bcd0281526004016110c690615fdd565b600160a060020a0381166130ed5760405160e560020a62461bcd02815260206004820152602660248201527f4f776e61626c653a206e6577206f776e657220697320746865207a65726f206160448201527f646472657373000000000000000000000000000000000000000000000000000060648201526084016110c6565b6130f681614228565b50565b600054600160a060020a031633146131265760405160e560020a62461bcd0281526004016110c690615fdd565b600654156131795760405160e560020a62461bcd02815260206004820152601560248201527f626c6f636b506172616d7320696d6d757461626c65000000000000000000000060448201526064016110c6565b600655565b600054600160a060020a031633146131ab5760405160e560020a62461bcd0281526004016110c690615fdd565b601154600160a060020a031630146132085760405160e560020a62461bcd02815260206004820152600f60248201527f6f6e6c7920686f6d6520636861696e000000000000000000000000000000000060448201526064016110c6565b60048054600160a060020a03938416600160a060020a03199182161790915560058054929093169116179055565b60008381526014602052604080822090516132529087906160d3565b908152604080516020928190038301902060008681529252812054600160a060020a0316915080613287838888888589614278565b5060035460405160e060020a6370a0823102815230600482015292955090935060009250600160a060020a0316906370a0823190602401602060405180830381865afa1580156132db573d6000803e3d6000fd5b505050506040513d601f19601f820116820180604052508101906132ff91906160ba565b9050600081116133545760405160e560020a62461bcd02815260206004820152601360248201527f4e6f7468696e6720746f2077697468647261770000000000000000000000000060448201526064016110c6565b612bc68988888b8588888c6145d8565b6040517fdd62ed3e000000000000000000000000000000000000000000000000000000008152306004820152600160a060020a038381166024830152600091839186169063dd62ed3e90604401602060405180830381865afa1580156133ce573d6000803e3d6000fd5b505050506040513d601f19601f820116820180604052508101906133f291906160ba565b6133fc919061636b565b604051600160a060020a0385166024820152604481018290529091506113729085907f095ea7b300000000000000000000000000000000000000000000000000000000906064015b60408051601f198184030181529190526020810180517bffffffffffffffffffffffffffffffffffffffffffffffffffffffff16600160e060020a0319909316929092179091526146b5565b604051600160a060020a03808516602483015283166044820152606481018290526113729085907f23b872dd0000000000000000000000000000000000000000000000000000000090608401613444565b600080601288815481106134f7576134f7615fc4565b906000526020600020906006020190506000851161355a5760405160e560020a62461bcd02815260206004820152601560248201527f5f77616e74416d74206d757374206265203e203021000000000000000000000060448201526064016110c6565b61356388611b51565b915086600160a060020a03811661360a5760008751116135ee5760405160e560020a62461bcd02815260206004820152602c60248201527f4e65697468657220666f726569676e2061636374206e6f72206c6f63616c206160448201527f6363742070726f7669646564000000000000000000000000000000000000000060648201526084016110c6565b6135f787616383565b6c01000000000000000000000000900490505b600060128a8154811061361f5761361f615fc4565b60009182526020909120600690910201600501546040517fba0bb4ab000000000000000000000000000000000000000000000000000000008152600160a060020a038481166004830152602482018a90529091169063ba0bb4ab906044016020604051808303816000875af115801561369c573d6000803e3d6000fd5b505050506040513d601f19601f820116820180604052508101906136c091906160ba565b600580549085015491925064e8d4a5100091600160a060020a039081169116146136f0576136ed87612538565b90505b60006136fc8383612906565b600486015490915061370e9082613e77565b6004860181905560009061372b90611be38464e8d4a5100061410a565b905060006040518060c0016040528084815260200185815260200161376664e8d4a51000611be3868c6003015461410a90919063ffffffff16565b81526020018b81526020018a81526020016000815250905061378a8e878e8461479d565b8d8c60405161379991906160d3565b604051809103902087600160a060020a03167fc6b1f1535b3bb3bdffa2f97a671ab7bd6f2512deec58103fa47eb40ed95274278e6040516137dc91815260200190565b60405180910390a4505050505050509695505050505050565b6138206040518060800160405280600081526020016000815260200160008152602001600081525090565b600160a060020a038516158015613838575060008451115b806138555750600160a060020a0385161580159061385557508351155b6138a45760405160e560020a62461bcd02815260206004820152601d60248201527f4f6e6c79206f6e65206163636f756e74207479706520616c6c6f77656400000060448201526064016110c6565b60006138b28785878961488c565b90506000601288815481106138c9576138c9615fc4565b9060005260206000209060060201905060008260000151116139305760405160e560020a62461bcd02815260206004820152601960248201527f7472616e6368652e636f6e747269627574696f6e20697320300000000000000060448201526064016110c6565b60008160040154116139875760405160e560020a62461bcd02815260206004820152601e60248201527f746f74616c5472616e636865436f6e747269627574696f6e732069732030000060448201526064016110c6565b60a0820151156139dc5760405160e560020a62461bcd02815260206004820152601460248201527f416c726561647920657869746564207661756c7400000000000000000000000060448201526064016110c6565b6139e588611b51565b602084015260048101548251600091613a0791611be39064e8d4a5100061410a565b90506000613a398460400151613a3364e8d4a51000611be387600301548761410a90919063ffffffff16565b906140fe565b90508015613ab657600080613a4e8684614a2d565b91509150601054600f541415613a8f578115613a6e57613a6e8b83614ab9565b8015613a8a57600554613a8a90600160a060020a031682614ab9565b613ab3565b613aa461dead613a9f8484613e77565b614ab9565b60408701829052606087018190525b50505b85613ca25760128a81548110613ace57613ace615fc4565b600091825260209091206006909102016005015484516040517fe0ccabfa000000000000000000000000000000000000000000000000000000008152600160a060020a038c81166004830152602482019290925291169063e0ccabfa906044016020604051808303816000875af1158015613b4d573d6000803e3d6000fd5b505050506040513d601f19601f82011682018060405250810190613b7191906160ba565b5083516004840154613b82916140fe565b600484810191909155835460405160e060020a6370a082310281523092810192909252600160a060020a0316906370a0823190602401602060405180830381865afa158015613bd5573d6000803e3d6000fd5b505050506040513d601f19601f82011682018060405250810190613bf991906160ba565b855260008a8152601360209081526040808320600160a060020a038d1684529091529020805442919089908110613c3257613c32615fc4565b9060005260206000209060060201600501819055508988604051613c5691906160d3565b6040805191829003822088518b8452602084015291600160a060020a038d16917fa7749cd42821d3b82a6814af6d80712b2e43f98ec1b25aee31c8351855de65d9910160405180910390a45b5050505095945050505050565b604051600160a060020a038316602482015260448101829052613cf89084907fa9059cbb0000000000000000000000000000000000000000000000000000000090606401613444565b505050565b6040516060907f61b729dc0000000000000000000000000000000000000000000000000000000090600090613d3e90899089908990899089906020016163bd565b60405160208183030381529060405290508181604051602001613d629291906163f3565b6040516020818303038152906040529250505095945050505050565b604080517e01000000000000000000000000000000000000000000000000000000000000602082015260228082019390935281518082039093018352604201905290565b80516000908152601f6020908152604091829020546023549184015183850151606086015160a087015195517fc580310000000000000000000000000000000000000000000000000000000000815261ffff90941695600160a060020a039095169463c5803100943494613e4194899491939092829190600401616423565b6000604051808303818588803b158015613e5a57600080fd5b505af1158015613e6e573d6000803e3d6000fd5b50505050505050565b600061291b828461636b565b60245460405181907f18bd4bd6372d39482d375f68791749755bdb38e8768acbfb6af999cef1adc6e090600090a2600060245590565b6040805160208101869052808201859052606080820185905260808083018590528351808403909101815260a08301909352917f5ef573f90000000000000000000000000000000000000000000000000000000091613f1e908390839060c0016163f3565b604051602081830303815290604052925050505b949350505050565b613f5e60405180606001604052806000815260200160008152602001606081525090565b6020805483516000908152601f835260408082205460215487518452602286529190922054938601516080870151600160a060020a0390941694639fbf10fc94349461ffff1693923391613fbb906103e890611be390849061410a565b898b604001518c606001516040518b63ffffffff1660e060020a028152600401613e419998979695949392919061648a565b60006012888154811061400257614002615fc4565b60009182526020822060069190910201600501546040517fe502a88d0000000000000000000000000000000000000000000000000000000081526004810188905260248101859052600160a060020a039091169250829190829063e502a88d906044016020604051808303816000875af1158015614084573d6000803e3d6000fd5b505050506040513d601f19601f820116820180604052508101906140a891906160ba565b90506140e3838260128d815481106140c2576140c2615fc4565b6000918252602090912060069091020154600160a060020a03169190613364565b6140f18a8a8a848a8a6134e1565b5050505050505050505050565b600061291b8284616508565b600061291b828461651f565b600061291b828461653e565b600061412e8484613e77565b60035460405160e060020a6370a08231028152306004820152919250600091600160a060020a03909116906370a0823190602401602060405180830381865afa15801561417f573d6000803e3d6000fd5b505050506040513d601f19601f820116820180604052508101906141a391906160ba565b905060006141b583611be3848961410a565b90506141c081614b52565b60006141d084611be3858961410a565b90506141db8161501b565b8082897f4bda9eedb6fd5c584b11e8c64fc79bbe5c7faf6da945a3c7e0de361b6ee5a1bd60405160405180910390a4841561118e5761118e85615176565b613e6e87828489898989613fed565b60008054600160a060020a03838116600160a060020a0319831681178455604051919092169283917f8be0079c531659141344cd1fd0a4f28419497f9722a3daafe3b4186f6b6457e09190a35050565b60008060008060006012898154811061429357614293615fc4565b60009182526020822060056006909202010154600160a060020a0316915081906142c08b8e8e8d8d6137f5565b90506142de83826000015160128e815481106140c2576140c2615fc4565b80516040517f648794a4000000000000000000000000000000000000000000000000000000008152600481019190915260248101899052600160a060020a0383169063648794a4906044016020604051808303816000875af1158015614348573d6000803e3d6000fd5b505050506040513d601f19601f8201168201806040525081019061436c91906160ba565b60208201516040830151606090930151919f909e50919c509a5098505050505050505050565b6040516060907fc8ba44b500000000000000000000000000000000000000000000000000000000906000906143d5908a908a908a908a908a908a90602001616563565b604051602081830303815290604052905081816040516020016143f99291906163f3565b604051602081830303815290604052925050509695505050505050565b6040516060907f692d8b8b00000000000000000000000000000000000000000000000000000000906000906143d5908a908a908a908a908a908a9060200161659d565b818380602001905181019061446e91906165d7565b600160a060020a0316867f6f6e500192a591cd4df1823b5be9f8681a54e919ca055745a13b8715ee3dfb81878a6040516144b2929190918252602082015260400190565b60405180910390a46002548351600160a060020a03909116906340c10f19906144e490860160209081019087016165d7565b60405160e060020a63ffffffff8416028152600160a060020a03909116600482015260248101849052604401600060405180830381600087803b15801561452a57600080fd5b505af115801561453e573d6000803e3d6000fd5b505050506000821115611e6d57600254600480546040517f9dc29fac000000000000000000000000000000000000000000000000000000008152600160a060020a03918216928101929092526024820185905290911690639dc29fac90604401600060405180830381600087803b1580156145b857600080fd5b505af11580156145cc573d6000803e3d6000fd5b50505050505050505050565b60006145e8898989898888614392565b60008a8152601e60205260408120805492935090916146069061607c565b80601f01602080910402602001604051908101604052809291908181526020018280546146329061607c565b801561467f5780601f106146545761010080835404028352916020019161467f565b820191906000526020600020905b81548152906001019060200180831161466257829003601f168201915b505050505090506145cc6040518060a001604052808c815260200188815260200183815260200184815260200185815250613f3a565b600061470a826040518060400160405280602081526020017f5361666545524332303a206c6f772d6c6576656c2063616c6c206661696c656481525085600160a060020a03166151f39092919063ffffffff16565b805190915015613cf8578080602001905181019061472891906165f4565b613cf85760405160e560020a62461bcd02815260206004820152602a60248201527f5361666545524332303a204552433230206f7065726174696f6e20646964206e60448201527f6f7420737563636565640000000000000000000000000000000000000000000060648201526084016110c6565b6000848152601360209081526040808320600160a060020a0387168452825280832080546001818101835591855293839020855160069095020193845591840151918301919091558201516002820155606082015160038201556080820151600482015560a08201516005909101558151156113725782601460008681526020019081526020016000208360405161483591906160d3565b908152602001604051809103902060006148546001613a338989611cd0565b815260200190815260200160002060006101000a815481600160a060020a030219169083600160a060020a0316021790555050505050565b6148c56040518060c001604052806000815260200160008152602001600081526020016000815260200160008152602001600081525090565b600160a060020a038216614963576000858152601360209081526040808320600160a060020a0386168452909152902080548590811061490757614907615fc4565b90600052602060002090600602016040518060c001604052908160008201548152602001600182015481526020016002820154815260200160038201548152602001600482015481526020016005820154815250509050613f32565b600085815260146020526040808220905161497f9086906160d3565b908152604080516020928190038301902060008881529083528181205489825260138452828220600160a060020a03909116808352935220805491925090869081106149cd576149cd615fc4565b90600052602060002090600602016040518060c00160405290816000820154815260200160018201548152602001600282015481526020016003820154815260200160048201548152602001600582015481525050915050949350505050565b60008060008311614a4357506000905080614ab2565b6000614a7142613a33614a6662093a80896060015161410a90919063ffffffff16565b608089015190613e77565b90508015614aac576060850151614a9990614a8f9062093a8061410a565b611be3868461410a565b9150614aa584836140fe565b9250614ab0565b8392505b505b9250929050565b60025460405160e060020a6370a082310281523060048201528291600091600160a060020a03909116906370a0823190602401602060405180830381865afa158015614b09573d6000803e3d6000fd5b505050506040513d601f19601f82011682018060405250810190614b2d91906160ba565b905080831115614b3b578091505b60025461137290600160a060020a03168584613caf565b601854600354614b6f91600160a060020a03918216911683613364565b601c546040517f871431bc000000000000000000000000000000000000000000000000000000008152600160a060020a03909116600482015260009073__PriceFeed_____________________________9063871431bc90602401602060405180830381865af4158015614be7573d6000803e3d6000fd5b505050506040513d601f19601f82011682018060405250810190614c0b91906160ba565b601d546040517f871431bc000000000000000000000000000000000000000000000000000000008152600160a060020a03909116600482015290915060009073__PriceFeed_____________________________9063871431bc90602401602060405180830381865af4158015614c86573d6000803e3d6000fd5b505050506040513d601f19601f82011682018060405250810190614caa91906160ba565b60185490915073__SafeSwapUni___________________________90632b08bab190600160a060020a0316614ce0866002614116565b601b5464e8d4a51000908790601930614cfb42610258613e77565b6040518963ffffffff1660e060020a028152600401614d21989796959493929190616611565b60006040518083038186803b158015614d3957600080fd5b505af4158015614d4d573d6000803e3d6000fd5b505060185473__SafeSwapUni___________________________9250632b08bab19150600160a060020a0316614d84866002614116565b601b5464e8d4a51000908690601a30614d9f42610258613e77565b6040518963ffffffff1660e060020a028152600401614dc5989796959493929190616611565b60006040518083038186803b158015614ddd57600080fd5b505af4158015614df1573d6000803e3d6000fd5b505060025460405160e060020a6370a0823102815230600482015260009350600160a060020a0390911691506370a0823190602401602060405180830381865afa158015614e43573d6000803e3d6000fd5b505050506040513d601f19601f82011682018060405250810190614e6791906160ba565b60175460405160e060020a6370a08231028152306004820152919250600091600160a060020a03909116906370a0823190602401602060405180830381865afa158015614eb8573d6000803e3d6000fd5b505050506040513d601f19601f82011682018060405250810190614edc91906160ba565b601854600254919250614efc91600160a060020a03908116911684613364565b601854601754614f1991600160a060020a03918216911683613364565b601854600254601754601b54600160a060020a039384169363e8e3370093811692169086908690614f53906103e890611be390859061410a565b614f6e6103e8611be3601b548b61410a90919063ffffffff16565b61dead614f7d42610258613e77565b60405163ffffffff8a1660e060020a028152600160a060020a039889166004820152968816602488015260448701959095526064860193909352608485019190915260a484015290921660c482015260e4810191909152610104016060604051808303816000875af1158015614ff7573d6000803e3d6000fd5b505050506040513d601f19601f8201168201806040525081019061118e91906166a8565b60185460035461503891600160a060020a03918216911683613364565b601c546040517f871431bc000000000000000000000000000000000000000000000000000000008152600160a060020a03909116600482015260009073__PriceFeed_____________________________9063871431bc90602401602060405180830381865af41580156150b0573d6000803e3d6000fd5b505050506040513d601f19601f820116820180604052508101906150d491906160ba565b601854601b5460055492935073__SafeSwapUni___________________________92632b08bab192600160a060020a0390811692879264e8d4a51000928892916019911661512442610258613e77565b6040518963ffffffff1660e060020a02815260040161514a989796959493929190616611565b60006040518083038186803b15801561516257600080fd5b505af4158015611e6d573d6000803e3d6000fd5b6002546005546040517f40c10f19000000000000000000000000000000000000000000000000000000008152600160a060020a039182166004820152602481018490529116906340c10f1990604401600060405180830381600087803b1580156151df57600080fd5b505af1158015611e66573d6000803e3d6000fd5b6060613f32848460008585600160a060020a0385163b6152585760405160e560020a62461bcd02815260206004820152601d60248201527f416464726573733a2063616c6c20746f206e6f6e2d636f6e747261637400000060448201526064016110c6565b60008086600160a060020a0316858760405161527491906160d3565b60006040518083038185875af1925050503d80600081146152b1576040519150601f19603f3d011682016040523d82523d6000602084013e6152b6565b606091505b50915091506152c68282866152d1565b979650505050505050565b606083156152e057508161291b565b8251156152f05782518084602001fd5b8160405160e560020a62461bcd0281526004016110c691906158fa565b8280546153199061607c565b90600052602060002090601f01602090048101928261533b5760008555615381565b82601f106153545782800160ff19823516178555615381565b82800160010185558215615381579182015b82811115615381578235825591602001919060010190615366565b5061538d9291506153e6565b5090565b828054828255906000526020600020908101928215615381579160200282015b828111156153815782518254600160a060020a031916600160a060020a039091161782556020909201916001909101906153b1565b5b8082111561538d57600081556001016153e7565b803561ffff8116811461262457600080fd5b60008083601f84011261541f57600080fd5b50813567ffffffffffffffff81111561543757600080fd5b602083019150836020828501011115614ab257600080fd5b6000806000806000806080878903121561546857600080fd5b615471876153fb565b9550602087013567ffffffffffffffff8082111561548e57600080fd5b61549a8a838b0161540d565b90975095506040890135915080821682146154b457600080fd5b909350606088013590808211156154ca57600080fd5b506154d789828a0161540d565b979a9699509497509295939492505050565b6000806000606084860312156154fe57600080fd5b505081359360208301359350604090920135919050565b600160a060020a03811681146130f657600080fd5b6000806040838503121561553d57600080fd5b823561554881615515565b9150602083013561555881615515565b809150509250929050565b60006020828403121561557557600080fd5b5035919050565b60008060006040848603121561559157600080fd5b83359250602084013567ffffffffffffffff8111156155af57600080fd5b6155bb8682870161540d565b9497909650939450505050565b6000602082840312156155da57600080fd5b61291b826153fb565b60e060020a634e487b7102600052604160045260246000fd5b604051601f8201601f1916810167ffffffffffffffff81118282101715615625576156256155e3565b604052919050565b600067ffffffffffffffff821115615647576156476155e3565b50601f01601f191660200190565b600082601f83011261566657600080fd5b81356156796156748261562d565b6155fc565b81815284602083860101111561568e57600080fd5b816020850160208301376000918101602001919091529392505050565b6000806000606084860312156156c057600080fd5b83359250602084013567ffffffffffffffff8111156156de57600080fd5b6156ea86828701615655565b925050604084013590509250925092565b6000602080838503121561570e57600080fd5b823567ffffffffffffffff8082111561572657600080fd5b818501915085601f83011261573a57600080fd5b81358181111561574c5761574c6155e3565b838102915061575c8483016155fc565b818152918301840191848101908884111561577657600080fd5b938501935b838510156157a0578435925061579083615515565b828252938501939085019061577b565b98975050505050505050565b80151581146130f657600080fd5b6000806000606084860312156157cf57600080fd5b833592506020840135915060408401356157e8816157ac565b809150509250925092565b600080600080600060a0868803121561580b57600080fd5b505083359560208501359550604085013594606081013594506080013592509050565b6000806000806080858703121561584457600080fd5b5050823594602084013594506040840135936060013592509050565b60006020828403121561587257600080fd5b813561291b81615515565b6000806040838503121561589057600080fd5b82359150602083013561555881615515565b60005b838110156158bd5781810151838201526020016158a5565b838111156113725750506000910152565b600081518084526158e68160208601602086016158a2565b601f01601f19169290920160200192915050565b60208152600061291b60208301846158ce565b60008060006060848603121561592257600080fd5b833592506020840135915060408401356157e881615515565b600080600080600060a0868803121561595357600080fd5b85359450602086013567ffffffffffffffff81111561597157600080fd5b61597d88828901615655565b959895975050505060408401359360608101359360809091013592509050565b6000602082840312156159af57600080fd5b813567ffffffffffffffff8111156159c657600080fd5b613f3284828501615655565b60008060008060008060c087890312156159eb57600080fd5b86359550602087013594506040870135935060608701359250608087013567ffffffffffffffff811115615a1e57600080fd5b615a2a89828a01615655565b92505060a0870135615a3b81615515565b809150509295509295509295565b600060208284031215615a5b57600080fd5b813561291b816157ac565b60008060008060808587031215615a7c57600080fd5b84359350602085013592506040850135615a95816157ac565b9396929550929360600135925050565b600080600060608486031215615aba57600080fd5b8335615ac581615515565b92506020840135915060408401356157e881615515565b60008060408385031215615aef57600080fd5b82359150615aff602084016153fb565b90509250929050565b600080600080600080600060e0888a031215615b2357600080fd5b873596506020880135955060408801359450606088013567ffffffffffffffff811115615b4f57600080fd5b615b5b8a828b01615655565b979a969950949760808101359660a0820135965060c090910135945092505050565b60008060008060008060c08789031215615b9657600080fd5b863595506020870135945060408701359350606087013592506080870135915060a087013567ffffffffffffffff811115615bd057600080fd5b615bdc89828a01615655565b9150509295509295509295565b60008060408385031215615bfc57600080fd5b50508035926020909101359150565b60008060008060008060c08789031215615c2457600080fd5b615c2d876153fb565b9550602087013567ffffffffffffffff80821115615c4a57600080fd5b615c568a838b01615655565b96506040890135955060608901359150615c6f82615515565b9093506080880135925060a08801359080821115615c8c57600080fd5b50615bdc89828a01615655565b600080600060608486031215615cae57600080fd5b833592506020840135615cc081615515565b929592945050506040919091013590565b60008060408385031215615ce457600080fd5b8235615cef81615515565b946020939093013593505050565b60008060008060008060c08789031215615d1657600080fd5b863595506020870135945060408701359350606087013567ffffffffffffffff811115615d4257600080fd5b615d4e89828a01615655565b9350506080870135915060a087013590509295509295509295565b600080600080600080600060e0888a031215615d8457600080fd5b87359650602088013567ffffffffffffffff80821115615da357600080fd5b615daf8b838c01615655565b975060408a0135965060608a0135955060808a0135945060a08a0135935060c08a0135915080821115615de157600080fd5b50615dee8a828b01615655565b91505092959891949750929550565b60008083601f840112615e0f57600080fd5b50813567ffffffffffffffff811115615e2757600080fd5b6020830191508360208083028501011115614ab257600080fd5b60008060008060008060808789031215615e5a57600080fd5b863567ffffffffffffffff80821115615e7257600080fd5b615e7e8a838b01615dfd565b90985096506020890135915080821115615e9757600080fd5b50615ea489828a01615dfd565b979a9699509760408101359660609091013595509350505050565b8183823760009101908152919050565b600160e060020a03198135818116916004851015615efa57808560040360080260020a820283161692505b505092915050565b600160e060020a0319811681146130f657600080fd5b60008060008060008060c08789031215615f3157600080fd5b8635615f3c81615f02565b955060208701359450604087013567ffffffffffffffff811115615f5f57600080fd5b615f6b89828a01615655565b945050606087013592506080870135915060a087013590509295509295509295565b6020808252601f908201527f5265656e7472616e637947756172643a207265656e7472616e742063616c6c00604082015260600190565b60e060020a634e487b7102600052603260045260246000fd5b6020808252818101527f4f776e61626c653a2063616c6c6572206973206e6f7420746865206f776e6572604082015260600190565b61ffff86168152600160a060020a038516602082015260a06040820152600061603e60a08301866158ce565b841515606084015282810360808401526157a081856158ce565b6000806040838503121561606b57600080fd5b505080516020909101519092909150565b60028104600182168061609057607f821691505b602082108114156160b45760e060020a634e487b7102600052602260045260246000fd5b50919050565b6000602082840312156160cc57600080fd5b5051919050565b600082516160e58184602087016158a2565b9190910192915050565b80518252602081015160208301526000604082015160606040850152613f3260608501826158ce565b61ffff8616815260ff8516602082015260a06040820152600061613e60a08301866158ce565b828103606084015261615081866158ce565b905082810360808401526157a081856160ef565b60e060020a634e487b7102600052601160045260246000fd5b600060001982141561619157616191616164565b5060010190565b600081516020830151600160e060020a031980821693506004831015611cc85760049290920360080260020a8202161692915050565b600082601f8301126161df57600080fd5b81516161ed6156748261562d565b81815284602083860101111561620257600080fd5b613f328260208301602087016158a2565b600080600080600080600060e0888a03121561622e57600080fd5b875161623981615f02565b809750506020880151955060408801519450606088015193506080880151925060a088015167ffffffffffffffff81111561627357600080fd5b61627f8a828b016161ce565b92505060c088015161629081615515565b8091505092959891949750929550565b600080600080600080600060e0888a0312156162bb57600080fd5b87516162c681615f02565b80975050602088015195506040880151945060608801519350608088015167ffffffffffffffff8111156162f957600080fd5b6163058a828b016161ce565b93505060a0880151915060c0880151905092959891949750929550565b600080600080600060a0868803121561633a57600080fd5b855161634581615f02565b602087015160408801516060890151608090990151929a91995097965090945092505050565b6000821982111561637e5761637e616164565b500190565b805160208201516bffffffffffffffffffffffff198082169291906014831015611cc85760149290920360080260020a8202161692915050565b85815260a0602082015260006163d660a08301876158ce565b604083019590955250606081019290925260809091015292915050565b600160e060020a031983168152600082516164158160048501602087016158a2565b919091016004019392505050565b61ffff8716815260c06020820152600061644060c08301886158ce565b828103604084015261645281886158ce565b600160a060020a0387811660608601528616608085015283810360a0850152905061647d81856158ce565b9998505050505050505050565b600061012061ffff8c1683528a6020840152896040840152600160a060020a03891660608401528760808401528660a08401528060c08401526164cf818401876160ef565b905082810360e08401526164e381866158ce565b90508281036101008401526164f881856158ce565b9c9b505050505050505050505050565b60008282101561651a5761651a616164565b500390565b600081600019048311821515161561653957616539616164565b500290565b60008261655e5760e060020a634e487b7102600052601260045260246000fd5b500490565b86815285602082015284604082015260c06060820152600061658860c08301866158ce565b60808301949094525060a00152949350505050565b868152856020820152846040820152836060820152600160a060020a038316608082015260c060a082015260006157a060c08301846158ce565b6000602082840312156165e957600080fd5b815161291b81615515565b60006020828403121561660657600080fd5b815161291b816157ac565b6000610100808301600160a060020a03808d16855260208c818701528b60408701528a60608701528960808701528360a08701528293508854808452610120870194508960005281600020935060005b8181101561667f578454841686529482019460019485019401616661565b50505050600160a060020a03861660c08501525090508260e08301529998505050505050505050565b6000806000606084860312156166bd57600080fd5b835192506020840151915060408401519050925092509256fea26469706673582212202b76e20298288ab1a87a0661aa9ed2196eadf85c61ed9908812425549a69b60664736f6c634300080a0033",
  "immutableReferences": {},
  "source": "// SPDX-License-Identifier: MIT\n\npragma solidity ^0.8.0;\n\nimport \"../interfaces/ILayerZeroReceiver.sol\";\n\nimport \"../interfaces/IStargateReceiver.sol\";\n\nimport \"./_ZorroControllerXChainDeposit.sol\";\n\nimport \"./_ZorroControllerXChainWithdraw.sol\";\n\nimport \"./_ZorroControllerXChainEarn.sol\";\n\ncontract ZorroControllerXChainReceiver is\n    ZorroControllerXChainDeposit,\n    ZorroControllerXChainWithdraw,\n    ZorroControllerXChainEarn,\n    IStargateReceiver,\n    ILayerZeroReceiver\n{\n    /* State */\n\n    mapping(bytes => bool) public registeredXChainControllers; // The accepted list of cross chain endpoints that can call this contract. Mapping: bytes(address) => false = non existent. true = allowed.\n    mapping(uint16 => uint256) public LZChainToZorroMap; // Mapping of Stargate/LayerZero Chain ID to Zorro Chain ID\n\n    /* Setters */\n\n    /// @notice Setter: Add regirested cross chain controller\n    /// @param _contract byte representation of contract to add\n    function registerXChainController(bytes memory _contract) external onlyOwner {\n        registeredXChainControllers[_contract] = true;\n    }\n\n    /// @notice Setter: Remove regirested cross chain controller\n    /// @param _contract byte representation of contract to remove\n    function unRegisterXChainController(bytes memory _contract) external onlyOwner {\n        registeredXChainControllers[_contract] = false;\n    }\n\n    /* Receivers */\n\n    /// @notice Receives stargate cross-chain calls\n    /// @dev Implements IStargateReceiver interface\n    function sgReceive(\n        uint16 _chainId,\n        bytes memory _srcAddress,\n        uint256 _nonce,\n        address _token,\n        uint256 amountLD,\n        bytes memory payload\n    ) public override {\n        // Map to Zorro chain ID\n        uint256 _zorroOriginChainId = LZChainToZorroMap[_chainId];\n        // Checks / authorization\n        // Amounts\n        uint256 _tokenBal = IERC20(_token).balanceOf(address(this));\n        require(amountLD <= _tokenBal, \"amountLD exceeds bal\");\n        // Access\n        // Src address is a valid controller\n        require(\n            registeredXChainControllers[_srcAddress],\n            \"unrecognized controller\"\n        );\n\n        // Determine function based on signature\n        // Get func signature\n        bytes4 _funcSig = bytes4(payload);\n        // Match to appropriate func\n        if (this.receiveXChainDepositRequest.selector == _funcSig) {\n            // Decode params\n            (\n                ,\n                uint256 _pid,\n                ,\n                uint256 _weeksCommitted,\n                uint256 _maxMarketMovement,\n                bytes memory _originAccount,\n                address _destAccount\n            ) = abi.decode(\n                    payload,\n                    (bytes4, uint256, uint256, uint256, uint256, bytes, address)\n                );\n\n            // Call receiving function for cross chain deposits\n            // Replace _valueUSDC to account for any slippage during bridging\n            _receiveXChainDepositRequest(\n                _pid,\n                amountLD,\n                _weeksCommitted,\n                block.timestamp,\n                _maxMarketMovement,\n                _originAccount,\n                _destAccount\n            );\n        } else if (this.receiveXChainRepatriationRequest.selector == _funcSig) {\n            // Decode params from payload\n            (\n                ,\n                uint256 _originChainId,\n                uint256 _pid,\n                uint256 _trancheId,\n                bytes memory _originRecipient,\n                uint256 _burnableZORRewards,\n                uint256 _rewardsDue\n            ) = abi.decode(\n                    payload,\n                    (bytes4, uint256, uint256, uint256, bytes, uint256, uint256)\n                );\n            // Forward request to repatriation function\n            _receiveXChainRepatriationRequest(\n                _originChainId,\n                _pid,\n                _trancheId,\n                _originRecipient,\n                _burnableZORRewards,\n                _rewardsDue\n            );\n        } else if (this.receiveXChainDistributionRequest.selector == _funcSig) {\n            // Decode params from payload\n            (\n                ,\n                uint256 _remoteChainId, \n                uint256 _amountUSDCBuyback, \n                uint256 _amountUSDCRevShare,\n                uint256 _accSlashedRewards\n            ) = abi.decode(\n                payload,\n                (bytes4, uint256, uint256, uint256, uint256)\n            );\n            // Forward request to distribution function\n            _receiveXChainDistributionRequest(\n                _remoteChainId, \n                _amountUSDCBuyback, \n                _amountUSDCRevShare,\n                _accSlashedRewards\n            );\n        } else {\n            revert(\"Unrecognized func\");\n        }\n    }\n\n    function lzReceive(\n        uint16 _srcChainId,\n        bytes calldata _srcAddress,\n        uint64 _nonce,\n        bytes calldata _payload\n    ) external override {\n        // Map to Zorro chain ID\n        uint256 _zorroOriginChainId = LZChainToZorroMap[_srcChainId];\n        \n        // Access\n        // Src address is a valid controller\n        require(\n            registeredXChainControllers[_srcAddress],\n            \"unrecognized controller\"\n        );\n\n        // Determine function based on signature\n        // Get func signature\n        bytes4 _funcSig = bytes4(_payload);\n        // Match to appropriate func\n        if (this.receiveXChainWithdrawalRequest.selector == _funcSig) {\n            // Decode params\n            (\n                ,\n                uint256 _originChainId,\n                bytes memory _originAccount,\n                uint256 _pid,\n                uint256 _trancheId,\n                uint256 _maxMarketMovement\n            ) = abi.decode(\n                    _payload,\n                    (bytes4, uint256, bytes, uint256, uint256, uint256)\n                );\n\n            // Call receiving function for cross chain withdrawals\n            // Replace _valueUSDC to account for any slippage during bridging\n            _receiveXChainWithdrawalRequest(\n                _originChainId,\n                _originAccount,\n                _pid,\n                _trancheId,\n                _maxMarketMovement\n            );\n        } else {\n            revert(\"Unrecognized func\");\n        }\n    }\n}\n",
  "sourcePath": "/Users/kristophm/Documents/workspace/zorro-protocol/contracts/controllers/_ZorroControllerXChainReceiver.sol",
  "compiler": {
    "name": "solc",
    "version": "0.8.10+commit.fc410830.Emscripten.clang"
  },
  "schemaVersion": "3.4.4",
  "updatedAt": "2022-04-06T12:54:17.531Z",
  "devdoc": {
    "kind": "dev",
    "methods": {
      "checkXChainDepositFee(uint256,bytes,uint256,uint256,uint256,uint256,bytes)": {
        "params": {
          "_chainId": "The Zorro Chain ID (not the LayerZero one)",
          "_destWallet": "A valid address on the remote chain that can claim ownership",
          "_dstContract": "The destination contract address on the remote chain",
          "_maxMarketMovement": "Acceptable degree of slippage on any transaction (e.g. 950 = 5%, 990 = 1% etc.)",
          "_pid": "The pool ID on the remote chain",
          "_valueUSDC": "The amount of USDC to deposit",
          "_weeksCommitted": "Number of weeks to commit to a vault"
        },
        "returns": {
          "_0": "uint256 Expected fee to pay for bridging/cross chain execution"
        }
      },
      "checkXChainDistributeEarningsFee(uint256,uint256,uint256)": {
        "params": {
          "_accSlashedRewards": "Accumulated slashed rewards on chain",
          "_amountUSDCBuyback": "Amount of USDC to buy back",
          "_amountUSDCRevShare": "Amount of USDC to rev share with ZOR single staking vault"
        },
        "returns": {
          "_0": "uint256 Quantity of native token as fees"
        }
      },
      "checkXChainRepatriationFee(uint256,uint256,uint256,bytes,uint256,uint256,uint256)": {
        "params": {
          "_burnableZORRewards": "Quantity of ZOR tokens minted for rewards here that need to be burned on the home chain",
          "_gasForDestinationLZReceive": "How much additional gas to provide at destination contract",
          "_originChainId": "Zorro chain ID of chain to which funds are to be repatriated to",
          "_originRecipient": "Recipient of funds on the origin chain",
          "_pid": "Pool ID on current chain",
          "_rewardsDue": "ZOR rewards due to the recipient",
          "_trancheId": "ID of tranche on current chain that funds were withdrawn from"
        },
        "returns": {
          "_0": "uint256 Estimated fee in native tokens"
        }
      },
      "checkXChainWithdrawalFee(uint256,uint256,uint256,uint256,uint256)": {
        "params": {
          "_gasForDestinationLZReceive": "How much additional gas to provide at destination contract",
          "_maxMarketMovement": "Acceptable degree of slippage on any transaction (e.g. 950 = 5%, 990 = 1% etc.)",
          "_pid": "The pool ID on the remote chain",
          "_trancheId": "The tranche ID on the remote chain",
          "_zorroChainId": "The Zorro Chain ID (not the LayerZero one)"
        },
        "returns": {
          "_0": "uint256 Expected fee to pay for bridging/cross chain execution"
        }
      },
      "deposit(uint256,uint256,uint256)": {
        "params": {
          "_pid": "index of pool",
          "_wantAmt": "how much Want token to deposit",
          "_weeksCommitted": "how many weeks the user is committing to on this vault"
        }
      },
      "depositFullService(uint256,uint256,uint256,uint256)": {
        "params": {
          "_maxMarketMovement": "factor to account for max market movement/slippage. The definition varies by Vault, so consult the associated Vault contract for info",
          "_pid": "index of pool to deposit into",
          "_valueUSDC": "value in USDC (in ether units) to deposit",
          "_weeksCommitted": "how many weeks to commit to the Pool (can be 0 or any uint)"
        }
      },
      "getTimeMultiplier(uint256)": {
        "params": {
          "durationInWeeks": "number of weeks committed into Vault"
        },
        "returns": {
          "_0": "multiplier factor, times 1e12"
        }
      },
      "getUserContribution(uint256,uint256)": {
        "params": {
          "_liquidityCommitted": "How many tokens staked (e.g. LP tokens)",
          "_timeMultiplier": "Time multiplier value (from getTimeMultiplier())"
        },
        "returns": {
          "_0": "The relative contribution of the user (unitless)"
        }
      },
      "inCaseTokensGetStuck(address,uint256)": {
        "details": "Does not permit usage for the Zorro token",
        "params": {
          "_amount": "token quantity",
          "_token": "ERC20 token address"
        }
      },
      "owner()": {
        "details": "Returns the address of the current owner."
      },
      "poolLength()": {
        "returns": {
          "_0": "Number of pools"
        }
      },
      "receiveXChainDepositRequest(uint256,uint256,uint256,uint256,bytes,address)": {
        "details": "Should never ever be actually called."
      },
      "receiveXChainDistributionRequest(uint256,uint256,uint256,uint256)": {
        "details": "Should never ever be actually called."
      },
      "receiveXChainRepatriationRequest(uint256,uint256,uint256,bytes,uint256,uint256)": {
        "details": "Should never ever be actually called."
      },
      "receiveXChainWithdrawalRequest(uint256,bytes,uint256,uint256,uint256)": {
        "details": "Should never ever be actually called."
      },
      "registerXChainController(bytes)": {
        "params": {
          "_contract": "byte representation of contract to add"
        }
      },
      "renounceOwnership()": {
        "details": "Leaves the contract without owner. It will not be possible to call `onlyOwner` functions anymore. Can only be called by the current owner. NOTE: Renouncing ownership will leave the contract without an owner, thereby removing any functionality that is only available to the owner."
      },
      "sendXChainDepositRequest(uint256,uint256,uint256,uint256,uint256,bytes)": {
        "details": "Requires appropriate fee to be paid via msg.value (use checkXChainDepositFee() above)",
        "params": {
          "_destWallet": "A valid address on the remote chain that can claim ownership",
          "_maxMarketMovement": "Acceptable degree of slippage on any transaction (e.g. 950 = 5%, 990 = 1% etc.)",
          "_pid": "The pool ID on the remote chain",
          "_valueUSDC": "The amount of USDC to deposit",
          "_weeksCommitted": "Number of weeks to commit to a vault",
          "_zorroChainId": "The Zorro Chain ID (not the LayerZero one)"
        }
      },
      "sendXChainDistributeEarningsRequest(uint256,uint256,uint256,uint256)": {
        "params": {
          "_buybackAmountUSDC": "Amount in USDC to buy back",
          "_maxMarketMovement": "Acceptable slippage (950 = 5%, 990 = 1% etc.)",
          "_pid": "Pool ID",
          "_revShareAmountUSDC": "Amount in USDC to revshare w/ ZOR single staking vault"
        }
      },
      "sendXChainWithdrawalRequest(uint256,uint256,uint256,uint256,uint256)": {
        "details": "Requires value to be submitted to pay for cross chain transaction. Use checkXChainWithdrawalFee() to estimate fees",
        "params": {
          "_destZorroChainId": "The Zorro chain ID of the remote chain to withdraw from",
          "_gasForDestinationLZReceive": "How much additional gas to provide at destination contract",
          "_maxMarketMovement": "Acceptable degree of slippage on any transaction (e.g. 950 = 5%, 990 = 1% etc.)",
          "_pid": "The pool ID on the remote chain",
          "_trancheId": "The ID of the tranche for the given user and pool"
        }
      },
      "setControllerContract(uint256,bytes)": {
        "params": {
          "_controller": "Bytes representation of smart contract address for cross chain contract",
          "_zorroChainId": "Zorro Chain ID"
        }
      },
      "setIsTimeMultiplierActive(bool)": {
        "params": {
          "_isActive": "Whether it shall be active. If false, timemultiplier will be 1."
        }
      },
      "setKeyAddresses(address,address)": {
        "params": {
          "_ZORRO": "ZOR token address",
          "_defaultStablecoin": "Main stablecoin address (USDC)"
        }
      },
      "setPriceFeeds(address,address)": {
        "params": {
          "_priceFeedLPPoolOtherToken": "The address of the price feed for the counterparty token in the ZOR LP Pool",
          "_priceFeedZOR": "The address of the price feed for ZOR"
        }
      },
      "setRewardsParams(uint256[],uint256[],uint256,uint256)": {
        "details": "NOTE: Must enter all parameters or existing ones will be overwritten!",
        "params": {
          "_baseRewardRateBasisPoints": "Base reward rate factor, in bp",
          "_blockParams": "Array of [blocksPerDay, ZORROPerBlock]",
          "_chainMultiplier": "Rewards multiplier factor to be applied to this chain",
          "_dailyDistFactors": "Array of [ZORRODailyDistributionFactorBasisPointsMin, ZORRODailyDistributionFactorBasisPointsMax]"
        }
      },
      "setStargateDestPoolIds(uint256,uint16)": {
        "params": {
          "_stargatePoolId": "Stargate pool ID",
          "_zorroChainId": "Zorro chain ID"
        }
      },
      "setTargetTVLCaptureBasisPoints(uint256)": {
        "params": {
          "_targetTVLCaptureBasisPoints": "Percent of market desired to be captured, in bp. 333 = 3.33%. ONLY to be set on the home chain"
        }
      },
      "setUSDCToZORPath(address[])": {
        "params": {
          "_path": "Swap path"
        }
      },
      "setUSDCToZorroLPPoolOtherTokenPath(address[])": {
        "params": {
          "_path": "Swap path"
        }
      },
      "setUniRouter(address)": {
        "params": {
          "_uniV2Router": "Address of router"
        }
      },
      "setXChainParams(uint256,uint256,address)": {
        "params": {
          "_chainId": "The ind of the chain that this contract is on",
          "_homeChainId": "The chain ID of the home chain",
          "_homeChainZorroController": "The address of the home chain controller"
        }
      },
      "setZorroChainToLZMap(uint256,uint16)": {
        "params": {
          "_lzChainId": "LayerZero Chain ID",
          "_zorroChainId": "Zorro chain ID"
        }
      },
      "setZorroContracts(address,address)": {
        "params": {
          "_publicPool": "Public pool address (where ZOR minted)",
          "_zorroStakingVault": "Zorro single staking vault address"
        }
      },
      "setZorroControllerOracle(address)": {
        "params": {
          "_zorroControllerOracle": "Address of Chainlink oracle that can interact with this contract"
        }
      },
      "setZorroLPPoolParams(address,address)": {
        "params": {
          "_zorroLPPool": "Address of the Zorro-X LP pool",
          "_zorroLPPoolOtherToken": "Address of the counterpart token to the ZOR token in the LP Pool"
        }
      },
      "setZorroPerBlock(uint256,uint256,uint256,uint256,uint256)": {
        "details": "Values to be provided by Oracle. Perferable to run daily",
        "params": {
          "_ZorroTotalVaultTVLUSD": "USD value of all TVL locked into the Zorro protocol, across all chains",
          "_publicPoolZORBalance": "Number of ZOR tokens remaining in public pool on home chain",
          "_targetTVLCaptureBasisPoints": "% desired capture of total market TVL, measured in basis points",
          "_totalChainMultipliers": "Sum total of all chain multipliers for each chain",
          "_totalMarketTVLUSD": "Total DeFi market TVL across all chains (measured in USD)"
        }
      },
      "sgReceive(uint16,bytes,uint256,address,uint256,bytes)": {
        "details": "Implements IStargateReceiver interface"
      },
      "trancheLength(uint256,address)": {
        "params": {
          "_pid": "Index of pool",
          "_user": "wallet address of user"
        },
        "returns": {
          "_0": "Number of tranches"
        }
      },
      "transferInvestment(uint256,uint256,uint256,uint256)": {
        "params": {
          "_fromPid": "index of pool FROM",
          "_fromTrancheId": "index of tranche FROM",
          "_maxMarketMovement": "factor to account for max market movement/slippage. The definition varies by Vault, so consult the associated Vault contract for info",
          "_toPid": "index of pool TO"
        }
      },
      "transferOwnership(address)": {
        "details": "Transfers ownership of the contract to a new account (`newOwner`). Can only be called by the current owner."
      },
      "unRegisterXChainController(bytes)": {
        "params": {
          "_contract": "byte representation of contract to remove"
        }
      },
      "updatePool(uint256)": {
        "params": {
          "_pid": "index of pool"
        },
        "returns": {
          "_0": "uint256 Amount of ZOR rewards minted (useful for cross chain)"
        }
      },
      "withdraw(uint256,uint256,bool)": {
        "params": {
          "_harvestOnly": "If true, will only harvest Zorro tokens but not do a withdrawal",
          "_pid": "index of pool",
          "_trancheId": "index of tranche"
        },
        "returns": {
          "_0": "Amount of Want token withdrawn"
        }
      },
      "withdrawAll(uint256)": {
        "params": {
          "_pid": "index of pool"
        }
      },
      "withdrawalFullService(uint256,uint256,bool,uint256)": {
        "params": {
          "_harvestOnly": "If true, will only harvest Zorro tokens but not do a withdrawal",
          "_maxMarketMovement": "factor to account for max market movement/slippage. The definition varies by Vault, so consult the associated Vault contract for info",
          "_pid": "index of pool to deposit into",
          "_trancheId": "index of tranche"
        },
        "returns": {
          "_0": "Amount (in USDC) returned"
        }
      }
    },
    "version": 1
  },
  "userdoc": {
    "kind": "user",
    "methods": {
      "checkXChainDepositFee(uint256,bytes,uint256,uint256,uint256,uint256,bytes)": {
        "notice": "Checks to see how much a cross chain deposit will cost"
      },
      "checkXChainDistributeEarningsFee(uint256,uint256,uint256)": {
        "notice": "Checks to see how much a cross chain earnings distribution will cost"
      },
      "checkXChainRepatriationFee(uint256,uint256,uint256,bytes,uint256,uint256,uint256)": {
        "notice": "Estimates fees for repatriation operation"
      },
      "checkXChainWithdrawalFee(uint256,uint256,uint256,uint256,uint256)": {
        "notice": "Checks to see how much a cross chain withdrawal will cost"
      },
      "deposit(uint256,uint256,uint256)": {
        "notice": "Deposit Want tokens to associated Vault"
      },
      "depositFullService(uint256,uint256,uint256,uint256)": {
        "notice": "Deposits funds in a full service manner (performs autoswaps and obtains Want tokens)"
      },
      "getTimeMultiplier(uint256)": {
        "notice": "Calculate time multiplier based on duration committed"
      },
      "getUserContribution(uint256,uint256)": {
        "notice": "The contribution of the user, meant to be used in rewards allocations"
      },
      "inCaseTokensGetStuck(address,uint256)": {
        "notice": "For owner to recover ERC20 tokens on this contract if stuck"
      },
      "poolLength()": {
        "notice": "Number of pools in the Zorro protocol"
      },
      "receiveXChainDepositRequest(uint256,uint256,uint256,uint256,bytes,address)": {
        "notice": "Dummy func to allow .selector call above and guarantee typesafety for abi calls."
      },
      "receiveXChainDistributionRequest(uint256,uint256,uint256,uint256)": {
        "notice": "Dummy func to allow .selector call above and guarantee typesafety for abi calls."
      },
      "receiveXChainRepatriationRequest(uint256,uint256,uint256,bytes,uint256,uint256)": {
        "notice": "Dummy func to allow .selector call above and guarantee typesafety for abi calls."
      },
      "receiveXChainWithdrawalRequest(uint256,bytes,uint256,uint256,uint256)": {
        "notice": "Dummy func to allow .selector call above and guarantee typesafety for abi calls."
      },
      "registerXChainController(bytes)": {
        "notice": "Setter: Add regirested cross chain controller"
      },
      "sendXChainDepositRequest(uint256,uint256,uint256,uint256,uint256,bytes)": {
        "notice": "Prepares and sends a cross chain deposit request. Takes care of necessary financial ops (transfer/locking USDC)"
      },
      "sendXChainDistributeEarningsRequest(uint256,uint256,uint256,uint256)": {
        "notice": "Sends a request back to the home chain to distribute earnings"
      },
      "sendXChainWithdrawalRequest(uint256,uint256,uint256,uint256,uint256)": {
        "notice": "Prepares and sends a cross chain withdrwal request."
      },
      "setControllerContract(uint256,bytes)": {
        "notice": "Setter: Controller contract for each chain"
      },
      "setIsTimeMultiplierActive(bool)": {
        "notice": "Setter: Set time multiplier"
      },
      "setKeyAddresses(address,address)": {
        "notice": "Setter: Set key token addresses"
      },
      "setLayerZeroParams(address,uint256,address)": {
        "notice": "Setter: Set main LZ params"
      },
      "setPriceFeeds(address,address)": {
        "notice": "Setter: Chainlink price feeds"
      },
      "setRewardsParams(uint256[],uint256[],uint256,uint256)": {
        "notice": "Setter: Reward params (See Tokenomics paper for more details)"
      },
      "setStargateDestPoolIds(uint256,uint16)": {
        "notice": "Setter: Stargate dest pool IDs for USD asset"
      },
      "setStartBlock(uint256)": {
        "notice": "Setter: Start block for rewards"
      },
      "setTargetTVLCaptureBasisPoints(uint256)": {
        "notice": "Setter: TVL capture (See Tokenomics paper)"
      },
      "setUSDCToZORPath(address[])": {
        "notice": "Setter: Set path for token swap from USDC to ZOR"
      },
      "setUSDCToZorroLPPoolOtherTokenPath(address[])": {
        "notice": "Setter: Set path for token swap from USDC to counterparty token in ZOR LP pool"
      },
      "setUniRouter(address)": {
        "notice": "Setter: Uniswap-compatible router address"
      },
      "setXChainParams(uint256,uint256,address)": {
        "notice": "Setter: Cross chain params"
      },
      "setZorroChainToLZMap(uint256,uint16)": {
        "notice": "Setter: LZ/Stargate params"
      },
      "setZorroContracts(address,address)": {
        "notice": "Setter: Set key ZOR contract addresses"
      },
      "setZorroControllerOracle(address)": {
        "notice": "Setter: Set Zorro Controller Oracle"
      },
      "setZorroLPPoolParams(address,address)": {
        "notice": "Setter: Zorro LP Pool params"
      },
      "setZorroPerBlock(uint256,uint256,uint256,uint256,uint256)": {
        "notice": "Set the number of Zorro to emit per block based on current market parameters"
      },
      "sgReceive(uint16,bytes,uint256,address,uint256,bytes)": {
        "notice": "Receives stargate cross-chain calls"
      },
      "trancheLength(uint256,address)": {
        "notice": "Number of tranches invested by a given user into a given pool"
      },
      "transferInvestment(uint256,uint256,uint256,uint256)": {
        "notice": "Transfer all assets from a tranche in one vault to a new vault (works on-chain only)"
      },
      "unRegisterXChainController(bytes)": {
        "notice": "Setter: Remove regirested cross chain controller"
      },
      "updatePool(uint256)": {
        "notice": "Update reward variables of the given pool to be up-to-date."
      },
      "withdraw(uint256,uint256,bool)": {
        "notice": "Fully withdraw Want tokens from underlying Vault."
      },
      "withdrawAll(uint256)": {
        "notice": "Withdraw the maximum number of Want tokens from a pool"
      },
      "withdrawalFullService(uint256,uint256,bool,uint256)": {
        "notice": "Withdraws funds from a pool and converts the Want token into USDC"
      }
    },
    "version": 1
  }
}