{
  "contractName": "ZorroControllerXChainReceiver",
  "abi": [
    {
      "anonymous": false,
      "inputs": [
        {
          "indexed": true,
          "internalType": "address",
          "name": "previousOwner",
          "type": "address"
        },
        {
          "indexed": true,
          "internalType": "address",
          "name": "newOwner",
          "type": "address"
        }
      ],
      "name": "OwnershipTransferred",
      "type": "event"
    },
    {
      "anonymous": false,
      "inputs": [
        {
          "indexed": true,
          "internalType": "uint256",
          "name": "_amountZOR",
          "type": "uint256"
        }
      ],
      "name": "RemovedSlashedRewards",
      "type": "event"
    },
    {
      "anonymous": false,
      "inputs": [
        {
          "indexed": true,
          "internalType": "uint256",
          "name": "_remoteChainId",
          "type": "uint256"
        },
        {
          "indexed": true,
          "internalType": "uint256",
          "name": "_buybackAmountUSDC",
          "type": "uint256"
        },
        {
          "indexed": true,
          "internalType": "uint256",
          "name": "_revShareAmountUSDC",
          "type": "uint256"
        }
      ],
      "name": "XChainDistributeEarnings",
      "type": "event"
    },
    {
      "anonymous": false,
      "inputs": [
        {
          "indexed": true,
          "internalType": "uint256",
          "name": "_pid",
          "type": "uint256"
        },
        {
          "indexed": true,
          "internalType": "address",
          "name": "_originRecipient",
          "type": "address"
        },
        {
          "indexed": true,
          "internalType": "uint256",
          "name": "_burnableZORRewards",
          "type": "uint256"
        },
        {
          "indexed": false,
          "internalType": "uint256",
          "name": "_trancheId",
          "type": "uint256"
        },
        {
          "indexed": false,
          "internalType": "uint256",
          "name": "_originChainId",
          "type": "uint256"
        }
      ],
      "name": "XChainRepatriation",
      "type": "event"
    },
    {
      "inputs": [
        {
          "internalType": "uint16",
          "name": "",
          "type": "uint16"
        }
      ],
      "name": "LZChainToZorroMap",
      "outputs": [
        {
          "internalType": "uint256",
          "name": "",
          "type": "uint256"
        }
      ],
      "stateMutability": "view",
      "type": "function"
    },
    {
      "inputs": [
        {
          "internalType": "uint256",
          "name": "",
          "type": "uint256"
        }
      ],
      "name": "USDCToZorroLPPoolOtherTokenPath",
      "outputs": [
        {
          "internalType": "address",
          "name": "",
          "type": "address"
        }
      ],
      "stateMutability": "view",
      "type": "function"
    },
    {
      "inputs": [
        {
          "internalType": "uint256",
          "name": "",
          "type": "uint256"
        }
      ],
      "name": "USDCToZorroPath",
      "outputs": [
        {
          "internalType": "address",
          "name": "",
          "type": "address"
        }
      ],
      "stateMutability": "view",
      "type": "function"
    },
    {
      "inputs": [],
      "name": "ZORRO",
      "outputs": [
        {
          "internalType": "address",
          "name": "",
          "type": "address"
        }
      ],
      "stateMutability": "view",
      "type": "function"
    },
    {
      "inputs": [
        {
          "internalType": "uint256",
          "name": "",
          "type": "uint256"
        }
      ],
      "name": "ZorroChainToLZMap",
      "outputs": [
        {
          "internalType": "uint16",
          "name": "",
          "type": "uint16"
        }
      ],
      "stateMutability": "view",
      "type": "function"
    },
    {
      "inputs": [],
      "name": "accumulatedSlashedRewards",
      "outputs": [
        {
          "internalType": "uint256",
          "name": "",
          "type": "uint256"
        }
      ],
      "stateMutability": "view",
      "type": "function"
    },
    {
      "inputs": [],
      "name": "burnAddress",
      "outputs": [
        {
          "internalType": "address",
          "name": "",
          "type": "address"
        }
      ],
      "stateMutability": "view",
      "type": "function"
    },
    {
      "inputs": [],
      "name": "chainId",
      "outputs": [
        {
          "internalType": "uint256",
          "name": "",
          "type": "uint256"
        }
      ],
      "stateMutability": "view",
      "type": "function"
    },
    {
      "inputs": [
        {
          "internalType": "uint256",
          "name": "",
          "type": "uint256"
        }
      ],
      "name": "chainTypes",
      "outputs": [
        {
          "internalType": "uint256",
          "name": "",
          "type": "uint256"
        }
      ],
      "stateMutability": "view",
      "type": "function"
    },
    {
      "inputs": [
        {
          "internalType": "uint256",
          "name": "_chainId",
          "type": "uint256"
        },
        {
          "internalType": "bytes",
          "name": "_dstContract",
          "type": "bytes"
        },
        {
          "internalType": "uint256",
          "name": "_pid",
          "type": "uint256"
        },
        {
          "internalType": "uint256",
          "name": "_valueUSDC",
          "type": "uint256"
        },
        {
          "internalType": "uint256",
          "name": "_weeksCommitted",
          "type": "uint256"
        },
        {
          "internalType": "uint256",
          "name": "_maxMarketMovement",
          "type": "uint256"
        },
        {
          "internalType": "bytes",
          "name": "_destWallet",
          "type": "bytes"
        }
      ],
      "name": "checkXChainDepositFee",
      "outputs": [
        {
          "internalType": "uint256",
          "name": "",
          "type": "uint256"
        }
      ],
      "stateMutability": "view",
      "type": "function"
    },
    {
      "inputs": [
        {
          "internalType": "uint256",
          "name": "_amountUSDCBuyback",
          "type": "uint256"
        },
        {
          "internalType": "uint256",
          "name": "_amountUSDCRevShare",
          "type": "uint256"
        },
        {
          "internalType": "uint256",
          "name": "_accSlashedRewards",
          "type": "uint256"
        },
        {
          "internalType": "uint256",
          "name": "_maxMarketMovement",
          "type": "uint256"
        }
      ],
      "name": "checkXChainDistributeEarningsFee",
      "outputs": [
        {
          "internalType": "uint256",
          "name": "",
          "type": "uint256"
        }
      ],
      "stateMutability": "view",
      "type": "function"
    },
    {
      "inputs": [
        {
          "internalType": "uint256",
          "name": "_originChainId",
          "type": "uint256"
        },
        {
          "internalType": "uint256",
          "name": "_pid",
          "type": "uint256"
        },
        {
          "internalType": "uint256",
          "name": "_trancheId",
          "type": "uint256"
        },
        {
          "internalType": "bytes",
          "name": "_originRecipient",
          "type": "bytes"
        },
        {
          "internalType": "uint256",
          "name": "_burnableZORRewards",
          "type": "uint256"
        },
        {
          "internalType": "uint256",
          "name": "_rewardsDue",
          "type": "uint256"
        }
      ],
      "name": "checkXChainRepatriationFee",
      "outputs": [
        {
          "internalType": "uint256",
          "name": "",
          "type": "uint256"
        }
      ],
      "stateMutability": "view",
      "type": "function"
    },
    {
      "inputs": [
        {
          "internalType": "uint256",
          "name": "_zorroChainId",
          "type": "uint256"
        },
        {
          "internalType": "uint256",
          "name": "_pid",
          "type": "uint256"
        },
        {
          "internalType": "uint256",
          "name": "_trancheId",
          "type": "uint256"
        },
        {
          "internalType": "uint256",
          "name": "_maxMarketMovement",
          "type": "uint256"
        },
        {
          "internalType": "uint256",
          "name": "_gasForDestinationLZReceive",
          "type": "uint256"
        }
      ],
      "name": "checkXChainWithdrawalFee",
      "outputs": [
        {
          "internalType": "uint256",
          "name": "",
          "type": "uint256"
        }
      ],
      "stateMutability": "view",
      "type": "function"
    },
    {
      "inputs": [
        {
          "internalType": "uint256",
          "name": "",
          "type": "uint256"
        }
      ],
      "name": "controllerContractsMap",
      "outputs": [
        {
          "internalType": "bytes",
          "name": "",
          "type": "bytes"
        }
      ],
      "stateMutability": "view",
      "type": "function"
    },
    {
      "inputs": [],
      "name": "currentChainController",
      "outputs": [
        {
          "internalType": "address",
          "name": "",
          "type": "address"
        }
      ],
      "stateMutability": "view",
      "type": "function"
    },
    {
      "inputs": [],
      "name": "defaultStablecoin",
      "outputs": [
        {
          "internalType": "address",
          "name": "",
          "type": "address"
        }
      ],
      "stateMutability": "view",
      "type": "function"
    },
    {
      "inputs": [],
      "name": "homeChainId",
      "outputs": [
        {
          "internalType": "uint256",
          "name": "",
          "type": "uint256"
        }
      ],
      "stateMutability": "view",
      "type": "function"
    },
    {
      "inputs": [],
      "name": "homeChainZorroController",
      "outputs": [
        {
          "internalType": "address",
          "name": "",
          "type": "address"
        }
      ],
      "stateMutability": "view",
      "type": "function"
    },
    {
      "inputs": [],
      "name": "layerZeroEndpoint",
      "outputs": [
        {
          "internalType": "address",
          "name": "",
          "type": "address"
        }
      ],
      "stateMutability": "view",
      "type": "function"
    },
    {
      "inputs": [],
      "name": "owner",
      "outputs": [
        {
          "internalType": "address",
          "name": "",
          "type": "address"
        }
      ],
      "stateMutability": "view",
      "type": "function"
    },
    {
      "inputs": [],
      "name": "priceFeedLPPoolOtherToken",
      "outputs": [
        {
          "internalType": "contract AggregatorV3Interface",
          "name": "",
          "type": "address"
        }
      ],
      "stateMutability": "view",
      "type": "function"
    },
    {
      "inputs": [],
      "name": "priceFeedZOR",
      "outputs": [
        {
          "internalType": "contract AggregatorV3Interface",
          "name": "",
          "type": "address"
        }
      ],
      "stateMutability": "view",
      "type": "function"
    },
    {
      "inputs": [],
      "name": "publicPool",
      "outputs": [
        {
          "internalType": "address",
          "name": "",
          "type": "address"
        }
      ],
      "stateMutability": "view",
      "type": "function"
    },
    {
      "inputs": [
        {
          "internalType": "uint256",
          "name": "_pid",
          "type": "uint256"
        },
        {
          "internalType": "uint256",
          "name": "_valueUSDC",
          "type": "uint256"
        },
        {
          "internalType": "uint256",
          "name": "_weeksCommitted",
          "type": "uint256"
        },
        {
          "internalType": "uint256",
          "name": "_maxMarketMovement",
          "type": "uint256"
        },
        {
          "internalType": "bytes",
          "name": "_originAccount",
          "type": "bytes"
        },
        {
          "internalType": "address",
          "name": "_destAccount",
          "type": "address"
        }
      ],
      "name": "receiveXChainDepositRequest",
      "outputs": [],
      "stateMutability": "nonpayable",
      "type": "function"
    },
    {
      "inputs": [
        {
          "internalType": "uint256",
          "name": "_remoteChainId",
          "type": "uint256"
        },
        {
          "internalType": "uint256",
          "name": "_amountUSDCBuyback",
          "type": "uint256"
        },
        {
          "internalType": "uint256",
          "name": "_amountUSDCRevShare",
          "type": "uint256"
        },
        {
          "internalType": "uint256",
          "name": "_accSlashedRewards",
          "type": "uint256"
        },
        {
          "internalType": "uint256",
          "name": "_maxMarketMovement",
          "type": "uint256"
        }
      ],
      "name": "receiveXChainDistributionRequest",
      "outputs": [],
      "stateMutability": "nonpayable",
      "type": "function"
    },
    {
      "inputs": [
        {
          "internalType": "uint256",
          "name": "_originChainId",
          "type": "uint256"
        },
        {
          "internalType": "uint256",
          "name": "_pid",
          "type": "uint256"
        },
        {
          "internalType": "uint256",
          "name": "_trancheId",
          "type": "uint256"
        },
        {
          "internalType": "bytes",
          "name": "_originRecipient",
          "type": "bytes"
        },
        {
          "internalType": "uint256",
          "name": "_burnableZORRewards",
          "type": "uint256"
        },
        {
          "internalType": "uint256",
          "name": "_rewardsDue",
          "type": "uint256"
        }
      ],
      "name": "receiveXChainRepatriationRequest",
      "outputs": [],
      "stateMutability": "nonpayable",
      "type": "function"
    },
    {
      "inputs": [
        {
          "internalType": "uint256",
          "name": "_originChainId",
          "type": "uint256"
        },
        {
          "internalType": "bytes",
          "name": "_originAccount",
          "type": "bytes"
        },
        {
          "internalType": "uint256",
          "name": "_pid",
          "type": "uint256"
        },
        {
          "internalType": "uint256",
          "name": "_trancheId",
          "type": "uint256"
        },
        {
          "internalType": "uint256",
          "name": "_maxMarketMovement",
          "type": "uint256"
        }
      ],
      "name": "receiveXChainWithdrawalRequest",
      "outputs": [],
      "stateMutability": "nonpayable",
      "type": "function"
    },
    {
      "inputs": [],
      "name": "renounceOwnership",
      "outputs": [],
      "stateMutability": "nonpayable",
      "type": "function"
    },
    {
      "inputs": [
        {
          "internalType": "uint256",
          "name": "_zorroChainId",
          "type": "uint256"
        },
        {
          "internalType": "uint256",
          "name": "_pid",
          "type": "uint256"
        },
        {
          "internalType": "uint256",
          "name": "_valueUSDC",
          "type": "uint256"
        },
        {
          "internalType": "uint256",
          "name": "_weeksCommitted",
          "type": "uint256"
        },
        {
          "internalType": "uint256",
          "name": "_maxMarketMovement",
          "type": "uint256"
        },
        {
          "internalType": "bytes",
          "name": "_destWallet",
          "type": "bytes"
        }
      ],
      "name": "sendXChainDepositRequest",
      "outputs": [],
      "stateMutability": "payable",
      "type": "function"
    },
    {
      "inputs": [
        {
          "internalType": "uint256",
          "name": "_pid",
          "type": "uint256"
        },
        {
          "internalType": "uint256",
          "name": "_buybackAmountUSDC",
          "type": "uint256"
        },
        {
          "internalType": "uint256",
          "name": "_revShareAmountUSDC",
          "type": "uint256"
        },
        {
          "internalType": "uint256",
          "name": "_maxMarketMovement",
          "type": "uint256"
        }
      ],
      "name": "sendXChainDistributeEarningsRequest",
      "outputs": [],
      "stateMutability": "payable",
      "type": "function"
    },
    {
      "inputs": [
        {
          "internalType": "uint256",
          "name": "_destZorroChainId",
          "type": "uint256"
        },
        {
          "internalType": "uint256",
          "name": "_pid",
          "type": "uint256"
        },
        {
          "internalType": "uint256",
          "name": "_trancheId",
          "type": "uint256"
        },
        {
          "internalType": "uint256",
          "name": "_maxMarketMovement",
          "type": "uint256"
        },
        {
          "internalType": "uint256",
          "name": "_gasForDestinationLZReceive",
          "type": "uint256"
        }
      ],
      "name": "sendXChainWithdrawalRequest",
      "outputs": [],
      "stateMutability": "payable",
      "type": "function"
    },
    {
      "inputs": [
        {
          "internalType": "uint256",
          "name": "_zorroChainId",
          "type": "uint256"
        },
        {
          "internalType": "uint256",
          "name": "_chainType",
          "type": "uint256"
        }
      ],
      "name": "setChainType",
      "outputs": [],
      "stateMutability": "nonpayable",
      "type": "function"
    },
    {
      "inputs": [
        {
          "internalType": "uint256[]",
          "name": "_chainIds",
          "type": "uint256[]"
        }
      ],
      "name": "setChains",
      "outputs": [],
      "stateMutability": "nonpayable",
      "type": "function"
    },
    {
      "inputs": [
        {
          "internalType": "uint256",
          "name": "_zorroChainId",
          "type": "uint256"
        },
        {
          "internalType": "bytes",
          "name": "_controller",
          "type": "bytes"
        }
      ],
      "name": "setControllerContract",
      "outputs": [],
      "stateMutability": "nonpayable",
      "type": "function"
    },
    {
      "inputs": [
        {
          "internalType": "address[]",
          "name": "_contracts",
          "type": "address[]"
        }
      ],
      "name": "setKeyContracts",
      "outputs": [],
      "stateMutability": "nonpayable",
      "type": "function"
    },
    {
      "inputs": [
        {
          "internalType": "address",
          "name": "_stargateRouter",
          "type": "address"
        },
        {
          "internalType": "uint256",
          "name": "_stargateSwapPoolId",
          "type": "uint256"
        },
        {
          "internalType": "address",
          "name": "_layerZeroEndpoint",
          "type": "address"
        }
      ],
      "name": "setLayerZeroParams",
      "outputs": [],
      "stateMutability": "nonpayable",
      "type": "function"
    },
    {
      "inputs": [
        {
          "internalType": "address[]",
          "name": "_priceFeeds",
          "type": "address[]"
        }
      ],
      "name": "setPriceFeeds",
      "outputs": [],
      "stateMutability": "nonpayable",
      "type": "function"
    },
    {
      "inputs": [
        {
          "internalType": "uint256",
          "name": "_zorroChainId",
          "type": "uint256"
        },
        {
          "internalType": "uint16",
          "name": "_stargatePoolId",
          "type": "uint16"
        }
      ],
      "name": "setStargateDestPoolIds",
      "outputs": [],
      "stateMutability": "nonpayable",
      "type": "function"
    },
    {
      "inputs": [
        {
          "internalType": "address[]",
          "name": "_USDCToZorroPath",
          "type": "address[]"
        },
        {
          "internalType": "address[]",
          "name": "_USDCToZorroLPPoolOtherTokenPath",
          "type": "address[]"
        }
      ],
      "name": "setSwapPaths",
      "outputs": [],
      "stateMutability": "nonpayable",
      "type": "function"
    },
    {
      "inputs": [
        {
          "internalType": "address",
          "name": "_token",
          "type": "address"
        }
      ],
      "name": "setTokenUSDC",
      "outputs": [],
      "stateMutability": "nonpayable",
      "type": "function"
    },
    {
      "inputs": [
        {
          "internalType": "address[]",
          "name": "_tokens",
          "type": "address[]"
        }
      ],
      "name": "setTokens",
      "outputs": [],
      "stateMutability": "nonpayable",
      "type": "function"
    },
    {
      "inputs": [
        {
          "internalType": "address",
          "name": "_contract",
          "type": "address"
        }
      ],
      "name": "setUniRouterAddress",
      "outputs": [],
      "stateMutability": "nonpayable",
      "type": "function"
    },
    {
      "inputs": [
        {
          "internalType": "uint256",
          "name": "_zorroChainId",
          "type": "uint256"
        },
        {
          "internalType": "uint16",
          "name": "_lzChainId",
          "type": "uint16"
        }
      ],
      "name": "setZorroChainToLZMap",
      "outputs": [],
      "stateMutability": "nonpayable",
      "type": "function"
    },
    {
      "inputs": [
        {
          "internalType": "address",
          "name": "_token",
          "type": "address"
        }
      ],
      "name": "setZorroLPPoolOtherToken",
      "outputs": [],
      "stateMutability": "nonpayable",
      "type": "function"
    },
    {
      "inputs": [
        {
          "internalType": "address",
          "name": "_contract",
          "type": "address"
        }
      ],
      "name": "setZorroStakingVault",
      "outputs": [],
      "stateMutability": "nonpayable",
      "type": "function"
    },
    {
      "inputs": [
        {
          "internalType": "uint256",
          "name": "",
          "type": "uint256"
        }
      ],
      "name": "stargateDestPoolIds",
      "outputs": [
        {
          "internalType": "uint256",
          "name": "",
          "type": "uint256"
        }
      ],
      "stateMutability": "view",
      "type": "function"
    },
    {
      "inputs": [],
      "name": "stargateRouter",
      "outputs": [
        {
          "internalType": "address",
          "name": "",
          "type": "address"
        }
      ],
      "stateMutability": "view",
      "type": "function"
    },
    {
      "inputs": [],
      "name": "stargateSwapPoolId",
      "outputs": [
        {
          "internalType": "uint256",
          "name": "",
          "type": "uint256"
        }
      ],
      "stateMutability": "view",
      "type": "function"
    },
    {
      "inputs": [],
      "name": "tokenUSDC",
      "outputs": [
        {
          "internalType": "address",
          "name": "",
          "type": "address"
        }
      ],
      "stateMutability": "view",
      "type": "function"
    },
    {
      "inputs": [
        {
          "internalType": "address",
          "name": "newOwner",
          "type": "address"
        }
      ],
      "name": "transferOwnership",
      "outputs": [],
      "stateMutability": "nonpayable",
      "type": "function"
    },
    {
      "inputs": [],
      "name": "uniRouterAddress",
      "outputs": [
        {
          "internalType": "address",
          "name": "",
          "type": "address"
        }
      ],
      "stateMutability": "view",
      "type": "function"
    },
    {
      "inputs": [],
      "name": "zorroLPPoolOtherToken",
      "outputs": [
        {
          "internalType": "address",
          "name": "",
          "type": "address"
        }
      ],
      "stateMutability": "view",
      "type": "function"
    },
    {
      "inputs": [],
      "name": "zorroStakingVault",
      "outputs": [
        {
          "internalType": "address",
          "name": "",
          "type": "address"
        }
      ],
      "stateMutability": "view",
      "type": "function"
    },
    {
      "inputs": [
        {
          "internalType": "uint16",
          "name": "_chainId",
          "type": "uint16"
        },
        {
          "internalType": "bytes",
          "name": "_srcAddress",
          "type": "bytes"
        },
        {
          "internalType": "uint256",
          "name": "_nonce",
          "type": "uint256"
        },
        {
          "internalType": "address",
          "name": "_token",
          "type": "address"
        },
        {
          "internalType": "uint256",
          "name": "amountLD",
          "type": "uint256"
        },
        {
          "internalType": "bytes",
          "name": "payload",
          "type": "bytes"
        }
      ],
      "name": "sgReceive",
      "outputs": [],
      "stateMutability": "nonpayable",
      "type": "function"
    },
    {
      "inputs": [
        {
          "internalType": "uint16",
          "name": "_srcChainId",
          "type": "uint16"
        },
        {
          "internalType": "bytes",
          "name": "_srcAddress",
          "type": "bytes"
        },
        {
          "internalType": "uint64",
          "name": "_nonce",
          "type": "uint64"
        },
        {
          "internalType": "bytes",
          "name": "_payload",
          "type": "bytes"
        }
      ],
      "name": "lzReceive",
      "outputs": [],
      "stateMutability": "nonpayable",
      "type": "function"
    },
    {
      "inputs": [
        {
          "internalType": "bytes",
          "name": "_payloadWithSig",
          "type": "bytes"
        }
      ],
      "name": "extractParamsPayload",
      "outputs": [
        {
          "internalType": "bytes",
          "name": "paramsPayload",
          "type": "bytes"
        }
      ],
      "stateMutability": "pure",
      "type": "function"
    }
  ],
  "bytecode": "0x608060405234801561001057600080fd5b50614b2d806100206000396000f3fe60806040526004361061036a5760003560e01c806379777d81116101c6578063b22f3251116100f7578063cdabd37111610095578063ebfba7c41161006f578063ebfba7c414610a09578063ef12696714610a29578063f2fde38b14610a3f578063fc39a29e14610a5f57600080fd5b8063cdabd371146109b3578063e53ac0df146109d3578063e940f6e1146109f357600080fd5b8063c8ba44b5116100d1578063c8ba44b514610938578063c9522cf114610953578063c9f363c414610973578063cd01af481461099357600080fd5b8063b22f3251146108d8578063b61bb80a146108f8578063c86d40401461091857600080fd5b8063959334f411610164578063a2df085c1161013e578063a2df085c14610865578063a4d2b08314610878578063a9e56f3c14610898578063ab8236f3146108b857600080fd5b8063959334f41461080f5780639a448c0c1461082f5780639a8a05921461084f57600080fd5b80638b5694d6116101a05780638b5694d6146107845780638c157db2146107a45780638d6ffd6a146107c45780638da5cb5b146107f157600080fd5b806379777d81146107245780637bd45522146107445780637f633ea81461076457600080fd5b8063487c3868116102a0578063625adaf21161023e578063693a090b11610218578063693a090b146106b95780636ca8bd65146106d957806370d5ae05146106f9578063715018a61461070f57600080fd5b8063625adaf21461065e578063668ababb1461067e578063692d8b8b1461069e57600080fd5b80635790f5991161027a5780635790f599146105e0578063593af9fe146105f65780635da79d631461062357806361b729dc1461064357600080fd5b8063487c3868146105805780634bf76174146105a05780635175ce1b146105c057600080fd5b8063219b38b81161030d5780633a629121116102e75780633a629121146104f65780633ad5875c14610516578063459f475314610529578063464e3c8b1461056d57600080fd5b8063219b38b81461047c57806325b43830146104a9578063293da9d4146104c957600080fd5b8063104a613211610349578063104a6132146103ee57806313a2e8801461040e57806315230ae61461042e5780631d8ca2191461044e57600080fd5b80621d35671461036f57806307968db1146103915780630a34e1a4146103ce575b600080fd5b34801561037b57600080fd5b5061038f61038a366004613791565b610a7f565b005b34801561039d57600080fd5b50609a546103b1906001600160a01b031681565b6040516001600160a01b0390911681526020015b60405180910390f35b3480156103da57600080fd5b5061038f6103e936600461382a565b610c5e565b3480156103fa57600080fd5b506103b161040936600461384c565b610c9a565b34801561041a57600080fd5b5061038f610429366004613865565b610cc4565b34801561043a57600080fd5b5060a2546103b1906001600160a01b031681565b34801561045a57600080fd5b5061046e610469366004613973565b610d0d565b6040519081526020016103c5565b34801561048857600080fd5b5061046e61049736600461384c565b60996020526000908152604090205481565b3480156104b557600080fd5b5061038f6104c43660046139de565b610e74565b3480156104d557600080fd5b5061046e6104e4366004613a19565b609d6020526000908152604090205481565b34801561050257600080fd5b5061046e6105113660046139de565b610ec3565b61038f6105243660046139de565b610fa6565b34801561053557600080fd5b5061055a61054436600461384c565b609c6020526000908152604090205461ffff1681565b60405161ffff90911681526020016103c5565b61038f61057b366004613a34565b6110fb565b34801561058c57600080fd5b5061038f61059b366004613aaa565b6113e6565b3480156105ac57600080fd5b5061038f6105bb366004613aaa565b6114a4565b3480156105cc57600080fd5b5061038f6105db366004613aeb565b6115aa565b3480156105ec57600080fd5b5061046e60985481565b34801561060257600080fd5b5061061661061136600461384c565b6115ed565b6040516103c59190613bae565b34801561062f57600080fd5b5061038f61063e366004613bd6565b611687565b34801561064f57600080fd5b5061038f6104c4366004613bf3565b34801561066a57600080fd5b5061038f610679366004613aaa565b6116d3565b34801561068a57600080fd5b5060a3546103b1906001600160a01b031681565b3480156106aa57600080fd5b5061038f6104c4366004613c54565b3480156106c557600080fd5b5060aa546103b1906001600160a01b031681565b3480156106e557600080fd5b5061038f6106f4366004613bd6565b611799565b34801561070557600080fd5b506103b161dead81565b34801561071b57600080fd5b5061038f6117e5565b34801561073057600080fd5b5060ae546103b1906001600160a01b031681565b34801561075057600080fd5b5061038f61075f366004613cca565b61181b565b34801561077057600080fd5b5061038f61077f366004613d0c565b611879565b34801561079057600080fd5b5061038f61079f366004613d0c565b6118d2565b3480156107b057600080fd5b5060a0546103b1906001600160a01b031681565b3480156107d057600080fd5b5061046e6107df36600461384c565b609e6020526000908152604090205481565b3480156107fd57600080fd5b506033546001600160a01b03166103b1565b34801561081b57600080fd5b5061038f61082a366004613bd6565b611915565b34801561083b57600080fd5b506103b161084a36600461384c565b611961565b34801561085b57600080fd5b5061046e60a45481565b61038f610873366004613d38565b611971565b34801561088457600080fd5b5060a9546103b1906001600160a01b031681565b3480156108a457600080fd5b506097546103b1906001600160a01b031681565b3480156108c457600080fd5b5061038f6108d3366004613da3565b611b4f565b3480156108e457600080fd5b5060ad546103b1906001600160a01b031681565b34801561090457600080fd5b50609f546103b1906001600160a01b031681565b34801561092457600080fd5b5060a7546103b1906001600160a01b031681565b34801561094457600080fd5b5061038f6104c4366004613973565b34801561095f57600080fd5b5061046e61096e366004613a34565b611e1a565b34801561097f57600080fd5b5061046e61098e366004613e30565b611f17565b34801561099f57600080fd5b5061038f6109ae366004613aaa565b611fe7565b3480156109bf57600080fd5b506106166109ce366004613ec3565b612053565b3480156109df57600080fd5b5061038f6109ee366004613bd6565b61209e565b3480156109ff57600080fd5b5061046e60a65481565b348015610a1557600080fd5b5060a8546103b1906001600160a01b031681565b348015610a3557600080fd5b5061046e60a55481565b348015610a4b57600080fd5b5061038f610a5a366004613bd6565b6120ea565b348015610a6b57600080fd5b5060a1546103b1906001600160a01b031681565b8585858080601f016020809104026020016040519081016040528093929190818152602001838380828437600092018290525061ffff86168152609d6020908152604080832054875188840120818552609b909352928190209051929550909350610aeb925090613f33565b604051809103902014610b415760405162461bcd60e51b81526020600482015260196024820152782ab73932b1b7b3903c31b430b4b71031b7b73a3937b63632b960391b60448201526064015b60405180910390fd5b6000610b4d8587613fcf565b60405163cdabd37160e01b8152909150600090309063cdabd37190610b78908a908a90600401613fff565b600060405180830381865afa158015610b95573d6000803e3d6000fd5b505050506040513d6000823e601f3d908101601f19168201604052610bbd9190810190614073565b905063186dca7760e21b6001600160e01b031983161415610c1557600080600080600085806020019051810190610bf491906140a7565b94509450945094509450610c0b8585858585612185565b5050505050610c51565b60405162461bcd60e51b8152602060048201526011602482015270556e7265636f676e697a65642066756e6360781b6044820152606401610b38565b5050505050505050505050565b6033546001600160a01b03163314610c885760405162461bcd60e51b8152600401610b3890614108565b6000918252609e602052604090912055565b60ab8181548110610caa57600080fd5b6000918252602090912001546001600160a01b0316905081565b6033546001600160a01b03163314610cee5760405162461bcd60e51b8152600401610b3890614108565b6000838152609b60205260409020610d07908383613646565b50505050565b6040805160608082018352600080835260208301819052928201526000610d38898989898989612356565b60008a8152609b6020526040812080549293509091610d5690613ef8565b80601f0160208091040260200160405190810160405280929190818152602001828054610d8290613ef8565b8015610dcf5780601f10610da457610100808354040283529160200191610dcf565b820191906000526020600020905b815481529060010190602001808311610db257829003601f168201915b505060975460008f8152609c6020526040808220549051630a51236960e01b815296975090956001600160a01b039092169450630a5123699350610e24925061ffff1690600190879089908b90600401614166565b6040805180830381865afa158015610e40573d6000803e3d6000fd5b505050506040513d601f19601f82011682018060405250810190610e6491906141be565b509b9a5050505050505050505050565b60405162461bcd60e51b815260206004820152601760248201527f696c6c6567616c2064756d6d792066756e632063616c6c0000000000000000006044820152606401610b38565b5050505050565b6000858152609c602090815260408083205460a454915161ffff909116928492610f0c929091610ef5913391016141e2565b6040516020818303038152906040528989896124bd565b90506000610f1985612525565b609a5460405163040a7bb160e41b81529192506000916001600160a01b03909116906340a7bb1090610f5790879030908890879089906004016141ff565b6040805180830381865afa158015610f73573d6000803e3d6000fd5b505050506040513d601f19601f82011682018060405250810190610f9791906141be565b509a9950505050505050505050565b60026065541415610fc95760405162461bcd60e51b8152600401610b3890614247565b600260655560a45460405160009161100091610fe99033906020016141e2565b6040516020818303038152906040528787876124bd565b6000878152609b602052604081208054929350909161101e90613ef8565b80601f016020809104026020016040519081016040528092919081815260200182805461104a90613ef8565b80156110975780601f1061106c57610100808354040283529160200191611097565b820191906000526020600020905b81548152906001019060200180831161107a57829003601f168201915b505050505090506110ed6040518060c00160405280898152602001838152602001848152602001336001600160a01b0316815260200160006001600160a01b031681526020016110e686612525565b905261254e565b505060016065555050505050565b6002606554141561111e5760405162461bcd60e51b8152600401610b3890614247565b600260655560a254604051631526fe2760e01b81526004810186905285916000916001600160a01b0390911690631526fe279060240160c060405180830381865afa158015611171573d6000803e3d6000fd5b505050506040513d601f19601f82011682018060405250810190611195919061427e565b95505050505050806001600160a01b03166111ad3390565b6001600160a01b0316146111f45760405162461bcd60e51b815260206004820152600e60248201526d1bdb9b1e481c9959c81d985d5b1d60921b6044820152606401610b38565b600034116112385760405162461bcd60e51b8152602060048201526011602482015270139bc81999595cc81cdd589b5a5d1d1959607a1b6044820152606401610b38565b600061124486866125e9565b609f5490915061125e906001600160a01b031630836125fe565b609f54611276906001600160a01b03163330846126e3565b609f546040516370a0823160e01b81523060048201526000916001600160a01b0316906370a0823190602401602060405180830381865afa1580156112bf573d6000803e3d6000fd5b505050506040513d601f19601f820116820180604052508101906112e391906142d0565b905060006112ef61271b565b9050600061130260a4548a8a858b612751565b60a4546000908152609b602052604081208054929350909161132390613ef8565b80601f016020809104026020016040519081016040528092919081815260200182805461134f90613ef8565b801561139c5780601f106113715761010080835404028352916020019161139c565b820191906000526020600020905b81548152906001019060200180831161137f57829003601f168201915b505050505090506113d46040518060a0016040528060a55481526020018681526020018381526020018481526020018a81525061278d565b50506001606555505050505050505050565b6033546001600160a01b031633146114105760405162461bcd60e51b8152600401610b3890614108565b81816000818110611423576114236142e9565b90506020020160208101906114389190613bd6565b60ad80546001600160a01b0319166001600160a01b03929092169190911790558181600181811061146b5761146b6142e9565b90506020020160208101906114809190613bd6565b60ae80546001600160a01b0319166001600160a01b03929092169190911790555050565b6033546001600160a01b031633146114ce5760405162461bcd60e51b8152600401610b3890614108565b818160008181106114e1576114e16142e9565b90506020020160208101906114f69190613bd6565b60a180546001600160a01b0319166001600160a01b039290921691909117905581816001818110611529576115296142e9565b905060200201602081019061153e9190613bd6565b60a280546001600160a01b0319166001600160a01b039290921691909117905581816002818110611571576115716142e9565b90506020020160208101906115869190613bd6565b60a380546001600160a01b0319166001600160a01b03929092169190911790555050565b6033546001600160a01b031633146115d45760405162461bcd60e51b8152600401610b3890614108565b6115e060ab85856136ca565b50610ebc60ac83836136ca565b609b602052600090815260409020805461160690613ef8565b80601f016020809104026020016040519081016040528092919081815260200182805461163290613ef8565b801561167f5780601f106116545761010080835404028352916020019161167f565b820191906000526020600020905b81548152906001019060200180831161166257829003601f168201915b505050505081565b6033546001600160a01b031633146116b15760405162461bcd60e51b8152600401610b3890614108565b60aa80546001600160a01b0319166001600160a01b0392909216919091179055565b6033546001600160a01b031633146116fd5760405162461bcd60e51b8152600401610b3890614108565b81816000818110611710576117106142e9565b90506020020160208101906117259190613bd6565b609f80546001600160a01b0319166001600160a01b039290921691909117905581816001818110611758576117586142e9565b905060200201602081019061176d9190613bd6565b60a080546001600160a01b0319166001600160a01b03929092169190911790555050565b505050505050565b6033546001600160a01b031633146117c35760405162461bcd60e51b8152600401610b3890614108565b60a980546001600160a01b0319166001600160a01b0392909216919091179055565b6033546001600160a01b0316331461180f5760405162461bcd60e51b8152600401610b3890614108565b61181960006128d1565b565b6033546001600160a01b031633146118455760405162461bcd60e51b8152600401610b3890614108565b609780546001600160a01b039485166001600160a01b031991821617909155609892909255609a8054919093169116179055565b6033546001600160a01b031633146118a35760405162461bcd60e51b8152600401610b3890614108565b6000828152609c60209081526040808320805461ffff90951661ffff1990951685179055928252609d90522055565b6033546001600160a01b031633146118fc5760405162461bcd60e51b8152600401610b3890614108565b60009182526099602052604090912061ffff9091169055565b6033546001600160a01b0316331461193f5760405162461bcd60e51b8152600401610b3890614108565b60a880546001600160a01b0319166001600160a01b0392909216919091179055565b60ac8181548110610caa57600080fd5b600260655414156119945760405162461bcd60e51b8152600401610b3890614247565b6002606555346119da5760405162461bcd60e51b8152602060048201526011602482015270139bc81999595cc81cdd589b5a5d1d1959607a1b6044820152606401610b38565b609f546119f2906001600160a01b03163330876126e3565b609f546040516370a0823160e01b81523060048201526000916001600160a01b0316906370a0823190602401602060405180830381865afa158015611a3b573d6000803e3d6000fd5b505050506040513d601f19601f82011682018060405250810190611a5f91906142d0565b90506000611a7288888488883389612923565b6000898152609b6020526040812080549293509091611a9090613ef8565b80601f0160208091040260200160405190810160405280929190818152602001828054611abc90613ef8565b8015611b095780601f10611ade57610100808354040283529160200191611b09565b820191906000526020600020905b815481529060010190602001808311611aec57829003601f168201915b50505050509050611b3f6040518060a001604052808b81526020018581526020018381526020018481526020018781525061278d565b5050600160655550505050505050565b61ffff86166000908152609d60209081526040808320548851838a0120818552609b9093529281902090518993899390929091611b8c9190613f33565b604051809103902014611bdd5760405162461bcd60e51b81526020600482015260196024820152782ab73932b1b7b3903c31b430b4b71031b7b73a3937b63632b960391b6044820152606401610b38565b6040516370a0823160e01b81523060048201526000906001600160a01b038816906370a0823190602401602060405180830381865afa158015611c24573d6000803e3d6000fd5b505050506040513d601f19601f82011682018060405250810190611c4891906142d0565b905080861115611c915760405162461bcd60e51b8152602060048201526014602482015273185b5bdd5b9d131108195e18d959591cc818985b60621b6044820152606401610b38565b6000611c9c866142ff565b60405163cdabd37160e01b8152909150600090309063cdabd37190611cc5908a90600401613bae565b600060405180830381865afa158015611ce2573d6000803e3d6000fd5b505050506040513d6000823e601f3d908101601f19168201604052611d0a9190810190614073565b905063692d8b8b60e01b6001600160e01b031983161415611d6557600080600080600085806020019051810190611d419190614336565b9550955095509550509450611d5b858e8642878787612867565b5050505050611e0c565b63c8ba44b560e01b6001600160e01b031983161415611dc05760008060008060008086806020019051810190611d9b919061439e565b955095509550955095509550611db5868686868686612a0d565b505050505050611e0c565b63025b438360e41b6001600160e01b031983161415610c1557600080600080600085806020019051810190611df59190614409565b94509450945094509450611d5b85858585856123c1565b505050505050505050505050565b6040805160608082018352600080835260208301819052928201526000611e4660a45488888888612751565b60a154604051919250600091611e68916001600160a01b0316906020016141e2565b60408051601f1981840301815282825260975460a5546000908152609c60205292832054630a51236960e01b855291945091926001600160a01b0390921691630a51236991611ec99161ffff90911690600190879089908b90600401614166565b6040805180830381865afa158015611ee5573d6000803e3d6000fd5b505050506040513d601f19601f82011682018060405250810190611f0991906141be565b509998505050505050505050565b6040805160608082018352600080835260208301819052928201526000611f438a89898989338a612923565b60975460008c8152609c6020526040808220549051630a51236960e01b815293945090926001600160a01b0390921691630a51236991611f959161ffff909116906001908f9088908a90600401614166565b6040805180830381865afa158015611fb1573d6000803e3d6000fd5b505050506040513d601f19601f82011682018060405250810190611fd591906141be565b5093505050505b979650505050505050565b6033546001600160a01b031633146120115760405162461bcd60e51b8152600401610b3890614108565b81816000818110612024576120246142e9565b602002919091013560a4555081816001818110612043576120436142e9565b602002919091013560a555505050565b60606120628260048186614449565b8080601f016020809104026020016040519081016040528093929190818152602001838380828437600092019190915250929695505050505050565b6033546001600160a01b031633146120c85760405162461bcd60e51b8152600401610b3890614108565b60a780546001600160a01b0319166001600160a01b0392909216919091179055565b6033546001600160a01b031633146121145760405162461bcd60e51b8152600401610b3890614108565b6001600160a01b0381166121795760405162461bcd60e51b815260206004820152602660248201527f4f776e61626c653a206e6577206f776e657220697320746865207a65726f206160448201526564647265737360d01b6064820152608401610b38565b612182816128d1565b50565b60a254604051632e31283d60e01b81526000916001600160a01b031690632e31283d906121ba90879089908890600401614473565b602060405180830381865afa1580156121d7573d6000803e3d6000fd5b505050506040513d601f19601f820116820180604052508101906121fb919061449c565b60a25460405163102af63f60e21b815291925060009182916001600160a01b0316906340abd8fc9061223b9086908b908b908b9088908c906004016144b9565b6080604051808303816000875af115801561225a573d6000803e3d6000fd5b505050506040513d601f19601f8201168201806040525081019061227e9190614502565b50609f546040516370a0823160e01b8152306004820152929550909350600092506001600160a01b0316906370a0823190602401602060405180830381865afa1580156122cf573d6000803e3d6000fd5b505050506040513d601f19601f820116820180604052508101906122f391906142d0565b90506000811161233b5760405162461bcd60e51b81526020600482015260136024820152724e6f7468696e6720746f20776974686472617760681b6044820152606401610b38565b61234b8988888b8588888c612b71565b505050505050505050565b60405160609063c8ba44b560e01b90600090612380908a908a908a908a908a908a90602001614538565b604051602081830303815290604052905081816040516020016123a4929190614572565b604051602081830303815290604052925050509695505050505050565b60006123cd85856125e9565b609f546040516370a0823160e01b81523060048201529192506000916001600160a01b03909116906370a0823190602401602060405180830381865afa15801561241b573d6000803e3d6000fd5b505050506040513d601f19601f8201168201806040525081019061243f91906142d0565b9050600061245783612451848a612c4e565b90612c5a565b90506124638185612c66565b600061247384612451858a612c4e565b905061247f8186613006565b80828a7f4bda9eedb6fd5c584b11e8c64fc79bbe5c7faf6da945a3c7e0de361b6ee5a1bd60405160405180910390a4851561234b5761234b866130e2565b60405160609063186dca7760e21b906000906124e590899089908990899089906020016145a3565b60405160208183030381529060405290508181604051602001612509929190614572565b6040516020818303038152906040529250505095945050505050565b60408051600160f01b602082015260228082019390935281518082039093018352604201905290565b80516000908152609c602090815260409182902054609a549184015183850151606086015160a0870151955162c5803160e81b815261ffff909416956001600160a01b039095169463c58031009434946125b3948994919390928291906004016145d9565b6000604051808303818588803b1580156125cc57600080fd5b505af11580156125e0573d6000803e3d6000fd5b50505050505050565b60006125f58284614656565b90505b92915050565b604051636eb1769f60e11b81523060048201526001600160a01b038381166024830152600091839186169063dd62ed3e90604401602060405180830381865afa15801561264f573d6000803e3d6000fd5b505050506040513d601f19601f8201168201806040525081019061267391906142d0565b61267d9190614656565b6040516001600160a01b038516602482015260448101829052909150610d0790859063095ea7b360e01b906064015b60408051601f198184030181529190526020810180516001600160e01b03166001600160e01b031990931692909217909152613146565b6040516001600160a01b0380851660248301528316604482015260648101829052610d079085906323b872dd60e01b906084016126ac565b60a65460405181907f18bd4bd6372d39482d375f68791749755bdb38e8768acbfb6af999cef1adc6e090600090a2600060a65590565b604080516020810187905290810185905260608082018590526080820184905260a082018390529063025b438360e41b9060009060c0016124e5565b6097546020820151609f546127b0926001600160a01b03918216929116906125fe565b6127d460405180606001604052806000815260200160008152602001606081525090565b60975482516000908152609c6020908152604080832054609854875185526099845291909320549186015160808701516001600160a01b0390951694639fbf10fc94349461ffff90911693929091339190612838906103e890612451908490612c4e565b898b604001518c606001516040518b63ffffffff1660e01b81526004016125b39998979695949392919061466e565b60a2546040516333fce37560e21b81526001600160a01b039091169063cff38dd4906128a3908a90859087908c908c908c908c906004016146eb565b600060405180830381600087803b1580156128bd57600080fd5b505af1158015610c51573d6000803e3d6000fd5b603380546001600160a01b038381166001600160a01b0319831681179093556040519116919082907f8be0079c531659141344cd1fd0a4f28419497f9722a3daafe3b4186f6b6457e090600090a35050565b6000878152609e60205260409020546060906129c357600063692d8b8b60e01b90506000888888888860405160200161295c91906141e2565b604051602081830303815290604052612976896014015190565b60405160200161298b9695949392919061473b565b604051602081830303815290604052905081816040516020016129af929190614572565b604051602081830303815290604052925050505b6000815111611fdc5760405162461bcd60e51b8152602060048201526016602482015275125b9d985b1a59081e18da185a5b881c185e5b1bd85960521b6044820152606401610b38565b8183806020019051810190612a22919061449c565b6001600160a01b0316867f6f6e500192a591cd4df1823b5be9f8681a54e919ca055745a13b8715ee3dfb81878a604051612a66929190918252602082015260400190565b60405180910390a460a05483516001600160a01b03909116906340c10f1990612a98908601602090810190870161449c565b6040516001600160e01b031960e084901b1681526001600160a01b03909116600482015260248101849052604401600060405180830381600087803b158015612ae057600080fd5b505af1158015612af4573d6000803e3d6000fd5b5050505060008211156117915760a05460a354604051632770a7eb60e21b81526001600160a01b03918216600482015260248101859052911690639dc29fac90604401600060405180830381600087803b158015612b5157600080fd5b505af1158015612b65573d6000803e3d6000fd5b50505050505050505050565b6000612b81898989898888612356565b60008a8152609b6020526040812080549293509091612b9f90613ef8565b80601f0160208091040260200160405190810160405280929190818152602001828054612bcb90613ef8565b8015612c185780601f10612bed57610100808354040283529160200191612c18565b820191906000526020600020905b815481529060010190602001808311612bfb57829003601f168201915b50505050509050612b656040518060a001604052808c81526020018881526020018381526020018481526020018581525061278d565b60006125f58284614781565b60006125f582846147a0565b60aa54609f54612c83916001600160a01b039182169116846125fe565b60ad54600090612c9b906001600160a01b0316613218565b60ae54909150600090612cb6906001600160a01b0316613218565b60aa5460a754919250612cd6916001600160a01b039081169116866125fe565b612d75612ce4856002612c5a565b64e8d4a51000848660ab805480602002602001604051908101604052809291908181526020018280548015612d4257602002820191906000526020600020905b81546001600160a01b03168152600190910190602001808311612d24575b505050505030612d5d610258426125e990919063ffffffff16565b60aa546001600160a01b031696959493929190613358565b612dfa612d83856002612c5a565b64e8d4a51000838660ac805480602002602001604051908101604052809291908181526020018280548015612d42576020028201919060005260206000209081546001600160a01b03168152600190910190602001808311612d2457505050505030612d5d610258426125e990919063ffffffff16565b60a0546040516370a0823160e01b81523060048201526000916001600160a01b0316906370a0823190602401602060405180830381865afa158015612e43573d6000803e3d6000fd5b505050506040513d601f19601f82011682018060405250810190612e6791906142d0565b60a8546040516370a0823160e01b81523060048201529192506000916001600160a01b03909116906370a0823190602401602060405180830381865afa158015612eb5573d6000803e3d6000fd5b505050506040513d601f19601f82011682018060405250810190612ed991906142d0565b60aa5460a054919250612ef9916001600160a01b039081169116846125fe565b60aa5460a854612f16916001600160a01b039182169116836125fe565b60aa5460a05460a8546001600160a01b039283169263e8e3370092811691168585612f476103e8612451848e612c4e565b612f576103e86124518a8f612c4e565b61dead612f66426102586125e9565b60405160e08a901b6001600160e01b03191681526001600160a01b039889166004820152968816602488015260448701959095526064860193909352608485019190915260a484015290921660c482015260e4810191909152610104016060604051808303816000875af1158015612fe2573d6000803e3d6000fd5b505050506040513d601f19601f8201168201806040525081019061234b91906147c2565b60aa54609f54613023916001600160a01b039182169116846125fe565b60ad5460009061303b906001600160a01b0316613218565b60aa5460a75491925061305b916001600160a01b039081169116856125fe565b6130dd8364e8d4a51000838560ab8054806020026020016040519081016040528092919081815260200182805480156130bd57602002820191906000526020600020905b81546001600160a01b0316815260019091019060200180831161309f575b505060a9546001600160a01b03169250612d5d91504290506102586125e9565b505050565b60a05460a9546040516340c10f1960e01b81526001600160a01b039182166004820152602481018490529116906340c10f1990604401600060405180830381600087803b15801561313257600080fd5b505af1158015610ebc573d6000803e3d6000fd5b600061319b826040518060400160405280602081526020017f5361666545524332303a206c6f772d6c6576656c2063616c6c206661696c6564815250856001600160a01b03166134c79092919063ffffffff16565b8051909150156130dd57808060200190518101906131b991906147f0565b6130dd5760405162461bcd60e51b815260206004820152602a60248201527f5361666545524332303a204552433230206f7065726174696f6e20646964206e6044820152691bdd081cdd58d8d9595960b21b6064820152608401610b38565b600080826001600160a01b031663313ce5676040518163ffffffff1660e01b8152600401602060405180830381865afa158015613259573d6000803e3d6000fd5b505050506040513d601f19601f8201168201806040525081019061327d9190614812565b90506000836001600160a01b031663feaf968c6040518163ffffffff1660e01b815260040160a060405180830381865afa1580156132bf573d6000803e3d6000fd5b505050506040513d601f19601f820116820180604052508101906132e3919061484f565b50505091505060008112156133335760405162461bcd60e51b81526020600482015260166024820152751b9959c81c1c9a58d95cc81b9bdd08185b1b1bddd95960521b6044820152606401610b38565b61335061334183600a614983565b6124518364e8d4a51000612c4e565b949350505050565b6000861580613365575085155b156134305760405163d06ca61f60e01b81526000906001600160a01b038b169063d06ca61f9061339b908c9089906004016149d6565b600060405180830381865afa1580156133b8573d6000803e3d6000fd5b505050506040513d6000823e601f3d908101601f191682016040526133e091908101906149ef565b90506134286103e86124518884613402600187516134e090919063ffffffff16565b81518110613412576134126142e9565b6020026020010151612c4e90919063ffffffff16565b915050613456565b61345361343f876103e8612c4e565b6124518761344d8c8c612c4e565b90612c4e565b90505b604051635c11d79560e01b81526001600160a01b038a1690635c11d7959061348a908b908590899089908990600401614a88565b600060405180830381600087803b1580156134a457600080fd5b505af11580156134b8573d6000803e3d6000fd5b50505050505050505050505050565b60606134d684846000856134ec565b90505b9392505050565b60006125f58284614ac4565b60608247101561354d5760405162461bcd60e51b815260206004820152602660248201527f416464726573733a20696e73756666696369656e742062616c616e636520666f6044820152651c8818d85b1b60d21b6064820152608401610b38565b6001600160a01b0385163b6135a45760405162461bcd60e51b815260206004820152601d60248201527f416464726573733a2063616c6c20746f206e6f6e2d636f6e74726163740000006044820152606401610b38565b600080866001600160a01b031685876040516135c09190614adb565b60006040518083038185875af1925050503d80600081146135fd576040519150601f19603f3d011682016040523d82523d6000602084013e613602565b606091505b5091509150611fdc8282866060831561361c5750816134d9565b82511561362c5782518084602001fd5b8160405162461bcd60e51b8152600401610b389190613bae565b82805461365290613ef8565b90600052602060002090601f01602090048101928261367457600085556136ba565b82601f1061368d5782800160ff198235161785556136ba565b828001600101855582156136ba579182015b828111156136ba57823582559160200191906001019061369f565b506136c692915061371d565b5090565b8280548282559060005260206000209081019282156136ba579160200282015b828111156136ba5781546001600160a01b0319166001600160a01b038435161782556020909201916001909101906136ea565b5b808211156136c6576000815560010161371e565b803561ffff8116811461374457600080fd5b919050565b60008083601f84011261375b57600080fd5b5081356001600160401b0381111561377257600080fd5b60208301915083602082850101111561378a57600080fd5b9250929050565b600080600080600080608087890312156137aa57600080fd5b6137b387613732565b955060208701356001600160401b03808211156137cf57600080fd5b6137db8a838b01613749565b90975095506040890135915080821682146137f557600080fd5b9093506060880135908082111561380b57600080fd5b5061381889828a01613749565b979a9699509497509295939492505050565b6000806040838503121561383d57600080fd5b50508035926020909101359150565b60006020828403121561385e57600080fd5b5035919050565b60008060006040848603121561387a57600080fd5b8335925060208401356001600160401b0381111561389757600080fd5b6138a386828701613749565b9497909650939450505050565b634e487b7160e01b600052604160045260246000fd5b604051601f8201601f191681016001600160401b03811182821017156138ee576138ee6138b0565b604052919050565b60006001600160401b0382111561390f5761390f6138b0565b50601f01601f191660200190565b600082601f83011261392e57600080fd5b813561394161393c826138f6565b6138c6565b81815284602083860101111561395657600080fd5b816020850160208301376000918101602001919091529392505050565b60008060008060008060c0878903121561398c57600080fd5b86359550602087013594506040870135935060608701356001600160401b038111156139b757600080fd5b6139c389828a0161391d565b9350506080870135915060a087013590509295509295509295565b600080600080600060a086880312156139f657600080fd5b505083359560208501359550604085013594606081013594506080013592509050565b600060208284031215613a2b57600080fd5b6125f582613732565b60008060008060808587031215613a4a57600080fd5b5050823594602084013594506040840135936060013592509050565b60008083601f840112613a7857600080fd5b5081356001600160401b03811115613a8f57600080fd5b6020830191508360208260051b850101111561378a57600080fd5b60008060208385031215613abd57600080fd5b82356001600160401b03811115613ad357600080fd5b613adf85828601613a66565b90969095509350505050565b60008060008060408587031215613b0157600080fd5b84356001600160401b0380821115613b1857600080fd5b613b2488838901613a66565b90965094506020870135915080821115613b3d57600080fd5b50613b4a87828801613a66565b95989497509550505050565b60005b83811015613b71578181015183820152602001613b59565b83811115610d075750506000910152565b60008151808452613b9a816020860160208601613b56565b601f01601f19169290920160200192915050565b6020815260006125f56020830184613b82565b6001600160a01b038116811461218257600080fd5b600060208284031215613be857600080fd5b81356134d981613bc1565b600080600080600060a08688031215613c0b57600080fd5b8535945060208601356001600160401b03811115613c2857600080fd5b613c348882890161391d565b959895975050505060408401359360608101359360809091013592509050565b60008060008060008060c08789031215613c6d57600080fd5b8635955060208701359450604087013593506060870135925060808701356001600160401b03811115613c9f57600080fd5b613cab89828a0161391d565b92505060a0870135613cbc81613bc1565b809150509295509295509295565b600080600060608486031215613cdf57600080fd5b8335613cea81613bc1565b9250602084013591506040840135613d0181613bc1565b809150509250925092565b60008060408385031215613d1f57600080fd5b82359150613d2f60208401613732565b90509250929050565b60008060008060008060c08789031215613d5157600080fd5b863595506020870135945060408701359350606087013592506080870135915060a08701356001600160401b03811115613d8a57600080fd5b613d9689828a0161391d565b9150509295509295509295565b60008060008060008060c08789031215613dbc57600080fd5b613dc587613732565b955060208701356001600160401b0380821115613de157600080fd5b613ded8a838b0161391d565b96506040890135955060608901359150613e0682613bc1565b9093506080880135925060a08801359080821115613e2357600080fd5b50613d9689828a0161391d565b600080600080600080600060e0888a031215613e4b57600080fd5b8735965060208801356001600160401b0380821115613e6957600080fd5b613e758b838c0161391d565b975060408a0135965060608a0135955060808a0135945060a08a0135935060c08a0135915080821115613ea757600080fd5b50613eb48a828b0161391d565b91505092959891949750929550565b60008060208385031215613ed657600080fd5b82356001600160401b03811115613eec57600080fd5b613adf85828601613749565b600181811c90821680613f0c57607f821691505b60208210811415613f2d57634e487b7160e01b600052602260045260246000fd5b50919050565b600080835481600182811c915080831680613f4f57607f831692505b6020808410821415613f6f57634e487b7160e01b86526022600452602486fd5b818015613f835760018114613f9457613fc1565b60ff19861689528489019650613fc1565b60008a81526020902060005b86811015613fb95781548b820152908501908301613fa0565b505084890196505b509498975050505050505050565b6001600160e01b03198135818116916004851015613ff75780818660040360031b1b83161692505b505092915050565b60208152816020820152818360408301376000818301604090810191909152601f909201601f19160101919050565b600082601f83011261403f57600080fd5b815161404d61393c826138f6565b81815284602083860101111561406257600080fd5b613350826020830160208701613b56565b60006020828403121561408557600080fd5b81516001600160401b0381111561409b57600080fd5b6133508482850161402e565b600080600080600060a086880312156140bf57600080fd5b8551945060208601516001600160401b038111156140dc57600080fd5b6140e88882890161402e565b60408801516060890151608090990151979a919950979695509350505050565b6020808252818101527f4f776e61626c653a2063616c6c6572206973206e6f7420746865206f776e6572604082015260600190565b805182526020810151602083015260006040820151606060408501526133506060850182613b82565b61ffff8616815260ff8516602082015260a06040820152600061418c60a0830186613b82565b828103606084015261419e8186613b82565b905082810360808401526141b2818561413d565b98975050505050505050565b600080604083850312156141d157600080fd5b505080516020909101519092909150565b60609190911b6bffffffffffffffffffffffff1916815260140190565b61ffff861681526001600160a01b038516602082015260a06040820181905260009061422d90830186613b82565b841515606084015282810360808401526141b28185613b82565b6020808252601f908201527f5265656e7472616e637947756172643a207265656e7472616e742063616c6c00604082015260600190565b60008060008060008060c0878903121561429757600080fd5b86516142a281613bc1565b809650506020870151945060408701519350606087015192506080870151915060a0870151613cbc81613bc1565b6000602082840312156142e257600080fd5b5051919050565b634e487b7160e01b600052603260045260246000fd5b805160208201516001600160e01b0319808216929190600483101561432e5780818460040360031b1b83161693505b505050919050565b60008060008060008060c0878903121561434f57600080fd5b8651955060208701519450604087015193506060870151925060808701516001600160401b0381111561438157600080fd5b61438d89828a0161402e565b92505060a0870151613cbc81613bc1565b60008060008060008060c087890312156143b757600080fd5b86519550602087015194506040870151935060608701516001600160401b038111156143e257600080fd5b6143ee89828a0161402e565b9350506080870151915060a087015190509295509295509295565b600080600080600060a0868803121561442157600080fd5b5050835160208501516040860151606087015160809097015192989197509594509092509050565b6000808585111561445957600080fd5b8386111561446657600080fd5b5050820193919092039150565b83815260606020820152600061448c6060830185613b82565b9050826040830152949350505050565b6000602082840312156144ae57600080fd5b81516134d981613bc1565b6001600160a01b038716815260c0602082018190526000906144dd90830188613b82565b6040830196909652506060810193909352901515608083015260a09091015292915050565b6000806000806080858703121561451857600080fd5b505082516020840151604085015160609095015191969095509092509050565b86815285602082015284604082015260c06060820152600061455d60c0830186613b82565b60808301949094525060a00152949350505050565b6001600160e01b0319831681528151600090614595816004850160208701613b56565b919091016004019392505050565b85815260a0602082015260006145bc60a0830187613b82565b604083019590955250606081019290925260809091015292915050565b61ffff8716815260c0602082015260006145f660c0830188613b82565b82810360408401526146088188613b82565b6001600160a01b0387811660608601528616608085015283810360a085015290506146338185613b82565b9998505050505050505050565b634e487b7160e01b600052601160045260246000fd5b6000821982111561466957614669614640565b500190565b600061012061ffff8c1683528a602084015289604084015260018060a01b03891660608401528760808401528660a08401528060c08401526146b28184018761413d565b905082810360e08401526146c68186613b82565b90508281036101008401526146db8185613b82565b9c9b505050505050505050505050565b8781526001600160a01b038716602082015260e06040820181905260009061471590830188613b82565b90508560608301528460808301528360a08301528260c083015298975050505050505050565b86815285602082015284604082015283606082015260c06080820152600061476660c0830185613b82565b905060018060a01b03831660a0830152979650505050505050565b600081600019048311821515161561479b5761479b614640565b500290565b6000826147bd57634e487b7160e01b600052601260045260246000fd5b500490565b6000806000606084860312156147d757600080fd5b8351925060208401519150604084015190509250925092565b60006020828403121561480257600080fd5b815180151581146134d957600080fd5b60006020828403121561482457600080fd5b815160ff811681146134d957600080fd5b805169ffffffffffffffffffff8116811461374457600080fd5b600080600080600060a0868803121561486757600080fd5b61487086614835565b945060208601519350604086015192506060860151915061489360808701614835565b90509295509295909350565b600181815b808511156148da5781600019048211156148c0576148c0614640565b808516156148cd57918102915b93841c93908002906148a4565b509250929050565b6000826148f1575060016125f8565b816148fe575060006125f8565b8160018114614914576002811461491e5761493a565b60019150506125f8565b60ff84111561492f5761492f614640565b50506001821b6125f8565b5060208310610133831016604e8410600b841016171561495d575081810a6125f8565b614967838361489f565b806000190482111561497b5761497b614640565b029392505050565b60006125f560ff8416836148e2565b600081518084526020808501945080840160005b838110156149cb5781516001600160a01b0316875295820195908201906001016149a6565b509495945050505050565b8281526040602082015260006134d66040830184614992565b60006020808385031215614a0257600080fd5b82516001600160401b0380821115614a1957600080fd5b818501915085601f830112614a2d57600080fd5b815181811115614a3f57614a3f6138b0565b8060051b9150614a508483016138c6565b8181529183018401918481019088841115614a6a57600080fd5b938501935b838510156141b257845182529385019390850190614a6f565b85815284602082015260a060408201526000614aa760a0830186614992565b6001600160a01b0394909416606083015250608001529392505050565b600082821015614ad657614ad6614640565b500390565b60008251614aed818460208701613b56565b919091019291505056fea264697066735822122042ac42d5a075b0d7fddfffbf3ea85a81f4d756459f68361256a75361bdf6c09764736f6c634300080a0033",
  "immutableReferences": {},
  "source": "// SPDX-License-Identifier: MIT\n\npragma solidity ^0.8.0;\n\nimport \"../interfaces/ILayerZeroReceiver.sol\";\n\nimport \"../interfaces/IStargateReceiver.sol\";\n\nimport \"./_ZorroControllerXChainDeposit.sol\";\n\nimport \"./_ZorroControllerXChainWithdraw.sol\";\n\nimport \"./_ZorroControllerXChainEarn.sol\";\n\nimport \"../interfaces/IZorroControllerXChain.sol\";\n\ncontract ZorroControllerXChainReceiver is\n    IZorroControllerXChainReceiver,\n    ZorroControllerXChainDeposit,\n    ZorroControllerXChainWithdraw,\n    ZorroControllerXChainEarn\n{\n    /* Modifiers */\n    /// @notice Ensures cross chain request is coming from a recognized controller\n    /// @param _lzChainId Layer Zero chain ID\n    /// @param _callingContract The cross chain sender (should be a Zorro controller)\n    modifier onlyRegXChainController(\n        uint16 _lzChainId,\n        bytes memory _callingContract\n    ) {\n        uint256 _zChainId = LZChainToZorroMap[_lzChainId];\n        require(\n            keccak256(controllerContractsMap[_zChainId]) ==\n                keccak256(_callingContract),\n            \"Unrecog xchain controller\"\n        );\n        _;\n    }\n\n    /* Receivers */\n\n    /// @notice Receives stargate cross-chain calls\n    /// @dev Implements IStargateReceiver interface\n    function sgReceive(\n        uint16 _chainId,\n        bytes memory _srcAddress,\n        uint256 _nonce,\n        address _token,\n        uint256 amountLD,\n        bytes memory payload\n    ) public override onlyRegXChainController(_chainId, _srcAddress) {\n        // Checks / authorization\n        // Amounts\n        uint256 _tokenBal = IERC20(_token).balanceOf(address(this));\n        require(amountLD <= _tokenBal, \"amountLD exceeds bal\");\n\n        // Determine function based on signature\n        // Get func signature\n        bytes4 _funcSig = bytes4(payload);\n        // Get params payload only\n        bytes memory _paramsPayload = this.extractParamsPayload(payload);\n\n        // Match to appropriate func\n        if (this.receiveXChainDepositRequest.selector == _funcSig) {\n            // Decode params\n            (\n                uint256 _pid,\n                ,\n                uint256 _weeksCommitted,\n                uint256 _maxMarketMovement,\n                bytes memory _originAccount,\n                address _destAccount\n            ) = abi.decode(\n                    _paramsPayload,\n                    (uint256, uint256, uint256, uint256, bytes, address)\n                );\n\n            // Call receiving function for cross chain deposits\n            // Replace _valueUSDC to account for any slippage during bridging\n            _receiveXChainDepositRequest(\n                _pid,\n                amountLD,\n                _weeksCommitted,\n                block.timestamp,\n                _maxMarketMovement,\n                _originAccount,\n                _destAccount\n            );\n        } else if (this.receiveXChainRepatriationRequest.selector == _funcSig) {\n            // Decode params from payload\n            (\n                uint256 _originChainId,\n                uint256 _pid,\n                uint256 _trancheId,\n                bytes memory _originRecipient,\n                uint256 _burnableZORRewards,\n                uint256 _rewardsDue\n            ) = abi.decode(\n                    _paramsPayload,\n                    (uint256, uint256, uint256, bytes, uint256, uint256)\n                );\n            // Forward request to repatriation function\n            _receiveXChainRepatriationRequest(\n                _originChainId,\n                _pid,\n                _trancheId,\n                _originRecipient,\n                _burnableZORRewards,\n                _rewardsDue\n            );\n        } else if (this.receiveXChainDistributionRequest.selector == _funcSig) {\n            // Decode params from payload\n            (\n                uint256 _remoteChainId,\n                uint256 _amountUSDCBuyback,\n                uint256 _amountUSDCRevShare,\n                uint256 _accSlashedRewards,\n                uint256 _maxMarketMovement\n            ) = abi.decode(\n                    _paramsPayload,\n                    (uint256, uint256, uint256, uint256, uint256)\n                );\n            // Forward request to distribution function\n            _receiveXChainDistributionRequest(\n                _remoteChainId,\n                _amountUSDCBuyback,\n                _amountUSDCRevShare,\n                _accSlashedRewards,\n                _maxMarketMovement\n            );\n        } else {\n            revert(\"Unrecognized func\");\n        }\n    }\n\n    function lzReceive(\n        uint16 _srcChainId,\n        bytes calldata _srcAddress,\n        uint64 _nonce,\n        bytes calldata _payload\n    ) external override onlyRegXChainController(_srcChainId, _srcAddress) {\n        // Determine function based on signature\n        // Get func signature\n        bytes4 _funcSig = bytes4(_payload);\n        // Get params-only payload\n        bytes memory _paramsPayload = this.extractParamsPayload(_payload);\n        // Match to appropriate func\n        if (this.receiveXChainWithdrawalRequest.selector == _funcSig) {\n            // Decode params\n            (\n                uint256 _originChainId,\n                bytes memory _originAccount,\n                uint256 _pid,\n                uint256 _trancheId,\n                uint256 _maxMarketMovement\n            ) = abi.decode(\n                    _paramsPayload,\n                    (uint256, bytes, uint256, uint256, uint256)\n                );\n\n            // Call receiving function for cross chain withdrawals\n            // Replace _valueUSDC to account for any slippage during bridging\n            _receiveXChainWithdrawalRequest(\n                _originChainId,\n                _originAccount,\n                _pid,\n                _trancheId,\n                _maxMarketMovement\n            );\n        } else {\n            revert(\"Unrecognized func\");\n        }\n    }\n\n    /// @notice Removes function signature from ABI encoded payload\n    /// @param _payloadWithSig ABI encoded payload with function selector\n    /// @return paramsPayload Payload with params only\n    function extractParamsPayload(bytes calldata _payloadWithSig) public pure returns (bytes memory paramsPayload) {\n        paramsPayload = _payloadWithSig[4:];\n    }\n}\n",
  "sourcePath": "/Users/kristophm/Documents/workspace/zorro-protocol/contracts/controllers/_ZorroControllerXChainReceiver.sol",
  "compiler": {
    "name": "solc",
    "version": "0.8.10+commit.fc410830.Emscripten.clang"
  },
  "schemaVersion": "3.4.4",
  "updatedAt": "2022-05-15T15:26:27.884Z",
  "devdoc": {
    "kind": "dev",
    "methods": {
      "checkXChainDepositFee(uint256,bytes,uint256,uint256,uint256,uint256,bytes)": {
        "params": {
          "_chainId": "The Zorro Chain ID (not the LayerZero one)",
          "_destWallet": "A valid address on the remote chain that can claim ownership",
          "_dstContract": "The destination contract address on the remote chain",
          "_maxMarketMovement": "Acceptable degree of slippage on any transaction (e.g. 950 = 5%, 990 = 1% etc.)",
          "_pid": "The pool ID on the remote chain",
          "_valueUSDC": "The amount of USDC to deposit",
          "_weeksCommitted": "Number of weeks to commit to a vault"
        },
        "returns": {
          "_0": "uint256 Expected fee to pay for bridging/cross chain execution"
        }
      },
      "checkXChainDistributeEarningsFee(uint256,uint256,uint256,uint256)": {
        "params": {
          "_accSlashedRewards": "Accumulated slashed rewards on chain",
          "_amountUSDCBuyback": "Amount of USDC to buy back",
          "_amountUSDCRevShare": "Amount of USDC to rev share with ZOR single staking vault",
          "_maxMarketMovement": "factor to account for max market movement/slippage."
        },
        "returns": {
          "_0": "uint256 Quantity of native token as fees"
        }
      },
      "checkXChainRepatriationFee(uint256,uint256,uint256,bytes,uint256,uint256)": {
        "params": {
          "_burnableZORRewards": "Quantity of ZOR tokens minted for rewards here that need to be burned on the home chain",
          "_originChainId": "Zorro chain ID of chain to which funds are to be repatriated to",
          "_originRecipient": "Recipient of funds on the origin chain",
          "_pid": "Pool ID on current chain",
          "_rewardsDue": "ZOR rewards due to the recipient",
          "_trancheId": "ID of tranche on current chain that funds were withdrawn from"
        },
        "returns": {
          "_0": "uint256 Estimated fee in native tokens"
        }
      },
      "checkXChainWithdrawalFee(uint256,uint256,uint256,uint256,uint256)": {
        "params": {
          "_gasForDestinationLZReceive": "How much additional gas to provide at destination contract",
          "_maxMarketMovement": "Acceptable degree of slippage on any transaction (e.g. 950 = 5%, 990 = 1% etc.)",
          "_pid": "The pool ID on the remote chain",
          "_trancheId": "The tranche ID on the remote chain",
          "_zorroChainId": "The Zorro Chain ID (not the LayerZero one)"
        },
        "returns": {
          "_0": "uint256 Expected fee to pay for bridging/cross chain execution"
        }
      },
      "extractParamsPayload(bytes)": {
        "params": {
          "_payloadWithSig": "ABI encoded payload with function selector"
        },
        "returns": {
          "paramsPayload": "Payload with params only"
        }
      },
      "owner()": {
        "details": "Returns the address of the current owner."
      },
      "receiveXChainDepositRequest(uint256,uint256,uint256,uint256,bytes,address)": {
        "details": "Should never ever be actually called."
      },
      "receiveXChainDistributionRequest(uint256,uint256,uint256,uint256,uint256)": {
        "details": "Should never ever be actually called."
      },
      "receiveXChainRepatriationRequest(uint256,uint256,uint256,bytes,uint256,uint256)": {
        "details": "Should never ever be actually called."
      },
      "receiveXChainWithdrawalRequest(uint256,bytes,uint256,uint256,uint256)": {
        "details": "Should never ever be actually called."
      },
      "renounceOwnership()": {
        "details": "Leaves the contract without owner. It will not be possible to call `onlyOwner` functions anymore. Can only be called by the current owner. NOTE: Renouncing ownership will leave the contract without an owner, thereby removing any functionality that is only available to the owner."
      },
      "sendXChainDepositRequest(uint256,uint256,uint256,uint256,uint256,bytes)": {
        "details": "Requires appropriate fee to be paid via msg.value (use checkXChainDepositFee() above)",
        "params": {
          "_destWallet": "A valid address on the remote chain that can claim ownership",
          "_maxMarketMovement": "Acceptable degree of slippage on any transaction (e.g. 950 = 5%, 990 = 1% etc.)",
          "_pid": "The pool ID on the remote chain",
          "_valueUSDC": "The amount of USDC to deposit",
          "_weeksCommitted": "Number of weeks to commit to a vault",
          "_zorroChainId": "The Zorro Chain ID (not the LayerZero one)"
        }
      },
      "sendXChainDistributeEarningsRequest(uint256,uint256,uint256,uint256)": {
        "params": {
          "_buybackAmountUSDC": "Amount in USDC to buy back",
          "_maxMarketMovement": "Acceptable slippage (950 = 5%, 990 = 1% etc.)",
          "_pid": "Pool ID",
          "_revShareAmountUSDC": "Amount in USDC to revshare w/ ZOR single staking vault"
        }
      },
      "sendXChainWithdrawalRequest(uint256,uint256,uint256,uint256,uint256)": {
        "details": "Requires value to be submitted to pay for cross chain transaction. Use checkXChainWithdrawalFee() to estimate fees",
        "params": {
          "_destZorroChainId": "The Zorro chain ID of the remote chain to withdraw from",
          "_gasForDestinationLZReceive": "How much additional gas to provide at destination contract",
          "_maxMarketMovement": "Acceptable degree of slippage on any transaction (e.g. 950 = 5%, 990 = 1% etc.)",
          "_pid": "The pool ID on the remote chain",
          "_trancheId": "The ID of the tranche for the given user and pool"
        }
      },
      "setControllerContract(uint256,bytes)": {
        "params": {
          "_controller": "Bytes representation of smart contract address for cross chain contract",
          "_zorroChainId": "Zorro Chain ID"
        }
      },
      "setStargateDestPoolIds(uint256,uint16)": {
        "params": {
          "_stargatePoolId": "Stargate pool ID",
          "_zorroChainId": "Zorro chain ID"
        }
      },
      "setZorroChainToLZMap(uint256,uint16)": {
        "params": {
          "_lzChainId": "LayerZero Chain ID",
          "_zorroChainId": "Zorro chain ID"
        }
      },
      "sgReceive(uint16,bytes,uint256,address,uint256,bytes)": {
        "details": "Implements IStargateReceiver interface"
      },
      "transferOwnership(address)": {
        "details": "Transfers ownership of the contract to a new account (`newOwner`). Can only be called by the current owner."
      }
    },
    "version": 1
  },
  "userdoc": {
    "kind": "user",
    "methods": {
      "checkXChainDepositFee(uint256,bytes,uint256,uint256,uint256,uint256,bytes)": {
        "notice": "Checks to see how much a cross chain deposit will cost"
      },
      "checkXChainDistributeEarningsFee(uint256,uint256,uint256,uint256)": {
        "notice": "Checks to see how much a cross chain earnings distribution will cost"
      },
      "checkXChainRepatriationFee(uint256,uint256,uint256,bytes,uint256,uint256)": {
        "notice": "Estimates fees for repatriation operation"
      },
      "checkXChainWithdrawalFee(uint256,uint256,uint256,uint256,uint256)": {
        "notice": "Checks to see how much a cross chain withdrawal will cost"
      },
      "extractParamsPayload(bytes)": {
        "notice": "Removes function signature from ABI encoded payload"
      },
      "receiveXChainDepositRequest(uint256,uint256,uint256,uint256,bytes,address)": {
        "notice": "Dummy func to allow .selector call above and guarantee typesafety for abi calls."
      },
      "receiveXChainDistributionRequest(uint256,uint256,uint256,uint256,uint256)": {
        "notice": "Dummy func to allow .selector call above and guarantee typesafety for abi calls."
      },
      "receiveXChainRepatriationRequest(uint256,uint256,uint256,bytes,uint256,uint256)": {
        "notice": "Dummy func to allow .selector call above and guarantee typesafety for abi calls."
      },
      "receiveXChainWithdrawalRequest(uint256,bytes,uint256,uint256,uint256)": {
        "notice": "Dummy func to allow .selector call above and guarantee typesafety for abi calls."
      },
      "sendXChainDepositRequest(uint256,uint256,uint256,uint256,uint256,bytes)": {
        "notice": "Prepares and sends a cross chain deposit request. Takes care of necessary financial ops (transfer/locking USDC)"
      },
      "sendXChainDistributeEarningsRequest(uint256,uint256,uint256,uint256)": {
        "notice": "Sends a request back to the home chain to distribute earnings"
      },
      "sendXChainWithdrawalRequest(uint256,uint256,uint256,uint256,uint256)": {
        "notice": "Prepares and sends a cross chain withdrwal request."
      },
      "setControllerContract(uint256,bytes)": {
        "notice": "Setter: Controller contract for each chain"
      },
      "setLayerZeroParams(address,uint256,address)": {
        "notice": "Setter: Set main LZ params"
      },
      "setStargateDestPoolIds(uint256,uint16)": {
        "notice": "Setter: Stargate dest pool IDs for USD asset"
      },
      "setZorroChainToLZMap(uint256,uint16)": {
        "notice": "Setter: LZ/Stargate params"
      },
      "sgReceive(uint16,bytes,uint256,address,uint256,bytes)": {
        "notice": "Receives stargate cross-chain calls"
      }
    },
    "version": 1
  }
}