{
  "contractName": "ZorroControllerXChainEarn",
  "abi": [
    {
      "anonymous": false,
      "inputs": [
        {
          "indexed": true,
          "internalType": "address",
          "name": "user",
          "type": "address"
        },
        {
          "indexed": true,
          "internalType": "uint256",
          "name": "pid",
          "type": "uint256"
        },
        {
          "indexed": false,
          "internalType": "uint256",
          "name": "wantAmount",
          "type": "uint256"
        }
      ],
      "name": "Deposit",
      "type": "event"
    },
    {
      "anonymous": false,
      "inputs": [
        {
          "indexed": true,
          "internalType": "address",
          "name": "previousOwner",
          "type": "address"
        },
        {
          "indexed": true,
          "internalType": "address",
          "name": "newOwner",
          "type": "address"
        }
      ],
      "name": "OwnershipTransferred",
      "type": "event"
    },
    {
      "anonymous": false,
      "inputs": [
        {
          "indexed": false,
          "internalType": "address",
          "name": "user",
          "type": "address"
        },
        {
          "indexed": true,
          "internalType": "uint256",
          "name": "fromPid",
          "type": "uint256"
        },
        {
          "indexed": true,
          "internalType": "uint256",
          "name": "fromTrancheId",
          "type": "uint256"
        },
        {
          "indexed": true,
          "internalType": "uint256",
          "name": "toPid",
          "type": "uint256"
        }
      ],
      "name": "TransferInvestment",
      "type": "event"
    },
    {
      "anonymous": false,
      "inputs": [
        {
          "indexed": true,
          "internalType": "address",
          "name": "user",
          "type": "address"
        },
        {
          "indexed": true,
          "internalType": "uint256",
          "name": "pid",
          "type": "uint256"
        },
        {
          "indexed": false,
          "internalType": "uint256",
          "name": "trancheId",
          "type": "uint256"
        },
        {
          "indexed": false,
          "internalType": "uint256",
          "name": "wantAmount",
          "type": "uint256"
        }
      ],
      "name": "Withdraw",
      "type": "event"
    },
    {
      "inputs": [
        {
          "internalType": "uint256",
          "name": "",
          "type": "uint256"
        }
      ],
      "name": "USDCToZorroLPPoolToken0Path",
      "outputs": [
        {
          "internalType": "address",
          "name": "",
          "type": "address"
        }
      ],
      "stateMutability": "view",
      "type": "function"
    },
    {
      "inputs": [
        {
          "internalType": "uint256",
          "name": "",
          "type": "uint256"
        }
      ],
      "name": "USDCToZorroLPPoolToken1Path",
      "outputs": [
        {
          "internalType": "address",
          "name": "",
          "type": "address"
        }
      ],
      "stateMutability": "view",
      "type": "function"
    },
    {
      "inputs": [
        {
          "internalType": "uint256",
          "name": "",
          "type": "uint256"
        }
      ],
      "name": "USDCToZorroPath",
      "outputs": [
        {
          "internalType": "address",
          "name": "",
          "type": "address"
        }
      ],
      "stateMutability": "view",
      "type": "function"
    },
    {
      "inputs": [],
      "name": "ZORRO",
      "outputs": [
        {
          "internalType": "address",
          "name": "",
          "type": "address"
        }
      ],
      "stateMutability": "view",
      "type": "function"
    },
    {
      "inputs": [],
      "name": "ZORRODailyDistributionFactorBasisPointsMax",
      "outputs": [
        {
          "internalType": "uint256",
          "name": "",
          "type": "uint256"
        }
      ],
      "stateMutability": "view",
      "type": "function"
    },
    {
      "inputs": [],
      "name": "ZORRODailyDistributionFactorBasisPointsMin",
      "outputs": [
        {
          "internalType": "uint256",
          "name": "",
          "type": "uint256"
        }
      ],
      "stateMutability": "view",
      "type": "function"
    },
    {
      "inputs": [],
      "name": "ZORROPerBlock",
      "outputs": [
        {
          "internalType": "uint256",
          "name": "",
          "type": "uint256"
        }
      ],
      "stateMutability": "view",
      "type": "function"
    },
    {
      "inputs": [],
      "name": "baseRewardRateBasisPoints",
      "outputs": [
        {
          "internalType": "uint256",
          "name": "",
          "type": "uint256"
        }
      ],
      "stateMutability": "view",
      "type": "function"
    },
    {
      "inputs": [],
      "name": "blocksPerDay",
      "outputs": [
        {
          "internalType": "uint256",
          "name": "",
          "type": "uint256"
        }
      ],
      "stateMutability": "view",
      "type": "function"
    },
    {
      "inputs": [],
      "name": "burnAddress",
      "outputs": [
        {
          "internalType": "address",
          "name": "",
          "type": "address"
        }
      ],
      "stateMutability": "view",
      "type": "function"
    },
    {
      "inputs": [],
      "name": "chainId",
      "outputs": [
        {
          "internalType": "uint256",
          "name": "",
          "type": "uint256"
        }
      ],
      "stateMutability": "view",
      "type": "function"
    },
    {
      "inputs": [],
      "name": "chainMultiplier",
      "outputs": [
        {
          "internalType": "uint256",
          "name": "",
          "type": "uint256"
        }
      ],
      "stateMutability": "view",
      "type": "function"
    },
    {
      "inputs": [],
      "name": "curveDefaultStablecoinIndex",
      "outputs": [
        {
          "internalType": "int128",
          "name": "",
          "type": "int128"
        }
      ],
      "stateMutability": "view",
      "type": "function"
    },
    {
      "inputs": [],
      "name": "curveStablePoolAddress",
      "outputs": [
        {
          "internalType": "address",
          "name": "",
          "type": "address"
        }
      ],
      "stateMutability": "view",
      "type": "function"
    },
    {
      "inputs": [],
      "name": "curveSyntheticStablecoinIndex",
      "outputs": [
        {
          "internalType": "int128",
          "name": "",
          "type": "int128"
        }
      ],
      "stateMutability": "view",
      "type": "function"
    },
    {
      "inputs": [],
      "name": "defaultMaxMarketMovement",
      "outputs": [
        {
          "internalType": "uint256",
          "name": "",
          "type": "uint256"
        }
      ],
      "stateMutability": "view",
      "type": "function"
    },
    {
      "inputs": [],
      "name": "defaultStablecoin",
      "outputs": [
        {
          "internalType": "address",
          "name": "",
          "type": "address"
        }
      ],
      "stateMutability": "view",
      "type": "function"
    },
    {
      "inputs": [
        {
          "internalType": "uint256",
          "name": "_pid",
          "type": "uint256"
        },
        {
          "internalType": "uint256",
          "name": "_wantAmt",
          "type": "uint256"
        },
        {
          "internalType": "uint256",
          "name": "_weeksCommitted",
          "type": "uint256"
        }
      ],
      "name": "deposit",
      "outputs": [],
      "stateMutability": "nonpayable",
      "type": "function"
    },
    {
      "inputs": [
        {
          "internalType": "uint256",
          "name": "_pid",
          "type": "uint256"
        },
        {
          "internalType": "uint256",
          "name": "_valueUSDC",
          "type": "uint256"
        },
        {
          "internalType": "uint256",
          "name": "_weeksCommitted",
          "type": "uint256"
        },
        {
          "internalType": "uint256",
          "name": "_maxMarketMovement",
          "type": "uint256"
        }
      ],
      "name": "depositFullService",
      "outputs": [],
      "stateMutability": "nonpayable",
      "type": "function"
    },
    {
      "inputs": [
        {
          "internalType": "uint256",
          "name": "",
          "type": "uint256"
        }
      ],
      "name": "endpointContracts",
      "outputs": [
        {
          "internalType": "address",
          "name": "",
          "type": "address"
        }
      ],
      "stateMutability": "view",
      "type": "function"
    },
    {
      "inputs": [],
      "name": "failedLockedBuybackUSDC",
      "outputs": [
        {
          "internalType": "uint256",
          "name": "",
          "type": "uint256"
        }
      ],
      "stateMutability": "view",
      "type": "function"
    },
    {
      "inputs": [],
      "name": "failedLockedRevShareUSDC",
      "outputs": [
        {
          "internalType": "uint256",
          "name": "",
          "type": "uint256"
        }
      ],
      "stateMutability": "view",
      "type": "function"
    },
    {
      "inputs": [
        {
          "internalType": "uint256",
          "name": "",
          "type": "uint256"
        },
        {
          "internalType": "bytes",
          "name": "",
          "type": "bytes"
        },
        {
          "internalType": "uint256",
          "name": "",
          "type": "uint256"
        }
      ],
      "name": "foreignTrancheInfo",
      "outputs": [
        {
          "internalType": "uint256",
          "name": "trancheIndex",
          "type": "uint256"
        },
        {
          "internalType": "address",
          "name": "localAccount",
          "type": "address"
        }
      ],
      "stateMutability": "view",
      "type": "function"
    },
    {
      "inputs": [
        {
          "internalType": "uint256",
          "name": "durationInWeeks",
          "type": "uint256"
        }
      ],
      "name": "getTimeMultiplier",
      "outputs": [
        {
          "internalType": "uint256",
          "name": "",
          "type": "uint256"
        }
      ],
      "stateMutability": "view",
      "type": "function"
    },
    {
      "inputs": [
        {
          "internalType": "uint256",
          "name": "_liquidityCommitted",
          "type": "uint256"
        },
        {
          "internalType": "uint256",
          "name": "_timeMultiplier",
          "type": "uint256"
        }
      ],
      "name": "getUserContribution",
      "outputs": [
        {
          "internalType": "uint256",
          "name": "",
          "type": "uint256"
        }
      ],
      "stateMutability": "pure",
      "type": "function"
    },
    {
      "inputs": [],
      "name": "homeChainId",
      "outputs": [
        {
          "internalType": "uint8",
          "name": "",
          "type": "uint8"
        }
      ],
      "stateMutability": "view",
      "type": "function"
    },
    {
      "inputs": [],
      "name": "homeChainZorroController",
      "outputs": [
        {
          "internalType": "address",
          "name": "",
          "type": "address"
        }
      ],
      "stateMutability": "view",
      "type": "function"
    },
    {
      "inputs": [
        {
          "internalType": "address",
          "name": "_token",
          "type": "address"
        },
        {
          "internalType": "uint256",
          "name": "_amount",
          "type": "uint256"
        }
      ],
      "name": "inCaseTokensGetStuck",
      "outputs": [],
      "stateMutability": "nonpayable",
      "type": "function"
    },
    {
      "inputs": [],
      "name": "isTimeMultiplierActive",
      "outputs": [
        {
          "internalType": "bool",
          "name": "",
          "type": "bool"
        }
      ],
      "stateMutability": "view",
      "type": "function"
    },
    {
      "inputs": [],
      "name": "layerZeroEndpoint",
      "outputs": [
        {
          "internalType": "address",
          "name": "",
          "type": "address"
        }
      ],
      "stateMutability": "view",
      "type": "function"
    },
    {
      "inputs": [],
      "name": "lockUSDCController",
      "outputs": [
        {
          "internalType": "address",
          "name": "",
          "type": "address"
        }
      ],
      "stateMutability": "view",
      "type": "function"
    },
    {
      "inputs": [],
      "name": "owner",
      "outputs": [
        {
          "internalType": "address",
          "name": "",
          "type": "address"
        }
      ],
      "stateMutability": "view",
      "type": "function"
    },
    {
      "inputs": [
        {
          "internalType": "uint256",
          "name": "",
          "type": "uint256"
        }
      ],
      "name": "poolInfo",
      "outputs": [
        {
          "internalType": "contract IERC20",
          "name": "want",
          "type": "address"
        },
        {
          "internalType": "uint256",
          "name": "allocPoint",
          "type": "uint256"
        },
        {
          "internalType": "uint256",
          "name": "lastRewardBlock",
          "type": "uint256"
        },
        {
          "internalType": "uint256",
          "name": "accZORRORewards",
          "type": "uint256"
        },
        {
          "internalType": "uint256",
          "name": "totalTrancheContributions",
          "type": "uint256"
        },
        {
          "internalType": "address",
          "name": "vault",
          "type": "address"
        }
      ],
      "stateMutability": "view",
      "type": "function"
    },
    {
      "inputs": [],
      "name": "poolLength",
      "outputs": [
        {
          "internalType": "uint256",
          "name": "",
          "type": "uint256"
        }
      ],
      "stateMutability": "view",
      "type": "function"
    },
    {
      "inputs": [],
      "name": "publicPool",
      "outputs": [
        {
          "internalType": "address",
          "name": "",
          "type": "address"
        }
      ],
      "stateMutability": "view",
      "type": "function"
    },
    {
      "inputs": [
        {
          "internalType": "uint256",
          "name": "",
          "type": "uint256"
        },
        {
          "internalType": "address",
          "name": "",
          "type": "address"
        }
      ],
      "name": "redepositInfo",
      "outputs": [
        {
          "internalType": "uint256",
          "name": "durationCommittedInWeeks",
          "type": "uint256"
        },
        {
          "internalType": "uint256",
          "name": "enteredVaultAt",
          "type": "uint256"
        }
      ],
      "stateMutability": "view",
      "type": "function"
    },
    {
      "inputs": [
        {
          "internalType": "bytes",
          "name": "_contract",
          "type": "bytes"
        }
      ],
      "name": "registerXChainController",
      "outputs": [],
      "stateMutability": "nonpayable",
      "type": "function"
    },
    {
      "inputs": [
        {
          "internalType": "address",
          "name": "_contract",
          "type": "address"
        }
      ],
      "name": "registerXChainEndpoint",
      "outputs": [],
      "stateMutability": "nonpayable",
      "type": "function"
    },
    {
      "inputs": [
        {
          "internalType": "bytes",
          "name": "",
          "type": "bytes"
        }
      ],
      "name": "registeredXChainControllers",
      "outputs": [
        {
          "internalType": "bool",
          "name": "",
          "type": "bool"
        }
      ],
      "stateMutability": "view",
      "type": "function"
    },
    {
      "inputs": [
        {
          "internalType": "address",
          "name": "",
          "type": "address"
        }
      ],
      "name": "registeredXChainEndpoints",
      "outputs": [
        {
          "internalType": "uint8",
          "name": "",
          "type": "uint8"
        }
      ],
      "stateMutability": "view",
      "type": "function"
    },
    {
      "inputs": [],
      "name": "renounceOwnership",
      "outputs": [],
      "stateMutability": "nonpayable",
      "type": "function"
    },
    {
      "inputs": [
        {
          "internalType": "uint256",
          "name": "_baseRewardRateBasisPoints",
          "type": "uint256"
        }
      ],
      "name": "setBaseRewardRateBasisPoints",
      "outputs": [],
      "stateMutability": "nonpayable",
      "type": "function"
    },
    {
      "inputs": [
        {
          "internalType": "uint256",
          "name": "_blocksPerDay",
          "type": "uint256"
        }
      ],
      "name": "setBlocksPerDay",
      "outputs": [],
      "stateMutability": "nonpayable",
      "type": "function"
    },
    {
      "inputs": [
        {
          "internalType": "uint256",
          "name": "_chainId",
          "type": "uint256"
        }
      ],
      "name": "setChainId",
      "outputs": [],
      "stateMutability": "nonpayable",
      "type": "function"
    },
    {
      "inputs": [
        {
          "internalType": "uint256",
          "name": "_chainMultiplier",
          "type": "uint256"
        }
      ],
      "name": "setChainMultiplier",
      "outputs": [],
      "stateMutability": "nonpayable",
      "type": "function"
    },
    {
      "inputs": [
        {
          "internalType": "address",
          "name": "_curveStablePoolAddress",
          "type": "address"
        }
      ],
      "name": "setCurveStablePoolAddress",
      "outputs": [],
      "stateMutability": "nonpayable",
      "type": "function"
    },
    {
      "inputs": [
        {
          "internalType": "uint256",
          "name": "_defaultMaxMarketMovement",
          "type": "uint256"
        }
      ],
      "name": "setDefaultMaxMarketMovement",
      "outputs": [],
      "stateMutability": "nonpayable",
      "type": "function"
    },
    {
      "inputs": [
        {
          "internalType": "address",
          "name": "_defaultStablecoin",
          "type": "address"
        }
      ],
      "name": "setDefaultStablecoin",
      "outputs": [],
      "stateMutability": "nonpayable",
      "type": "function"
    },
    {
      "inputs": [
        {
          "internalType": "uint256",
          "name": "_chainId",
          "type": "uint256"
        },
        {
          "internalType": "address",
          "name": "_endpointContract",
          "type": "address"
        }
      ],
      "name": "setEndpointContracts",
      "outputs": [],
      "stateMutability": "nonpayable",
      "type": "function"
    },
    {
      "inputs": [
        {
          "internalType": "address",
          "name": "_homeChainZorroController",
          "type": "address"
        }
      ],
      "name": "setHomeChainZorroController",
      "outputs": [],
      "stateMutability": "nonpayable",
      "type": "function"
    },
    {
      "inputs": [
        {
          "internalType": "bool",
          "name": "_isActive",
          "type": "bool"
        }
      ],
      "name": "setIsTimeMultiplierActive",
      "outputs": [],
      "stateMutability": "nonpayable",
      "type": "function"
    },
    {
      "inputs": [
        {
          "internalType": "address",
          "name": "_lockUSDCController",
          "type": "address"
        }
      ],
      "name": "setLockUSDCController",
      "outputs": [],
      "stateMutability": "nonpayable",
      "type": "function"
    },
    {
      "inputs": [
        {
          "internalType": "address",
          "name": "_priceFeedLPPoolToken",
          "type": "address"
        }
      ],
      "name": "setPriceFeedLPPoolToken0",
      "outputs": [],
      "stateMutability": "nonpayable",
      "type": "function"
    },
    {
      "inputs": [
        {
          "internalType": "address",
          "name": "_priceFeedLPPoolToken",
          "type": "address"
        }
      ],
      "name": "setPriceFeedLPPoolToken1",
      "outputs": [],
      "stateMutability": "nonpayable",
      "type": "function"
    },
    {
      "inputs": [
        {
          "internalType": "address",
          "name": "_publicPoolAddress",
          "type": "address"
        }
      ],
      "name": "setPublicPool",
      "outputs": [],
      "stateMutability": "nonpayable",
      "type": "function"
    },
    {
      "inputs": [
        {
          "internalType": "uint256",
          "name": "_blockNumber",
          "type": "uint256"
        }
      ],
      "name": "setStartBlock",
      "outputs": [],
      "stateMutability": "nonpayable",
      "type": "function"
    },
    {
      "inputs": [
        {
          "internalType": "address",
          "name": "_syntheticStablecoin",
          "type": "address"
        }
      ],
      "name": "setSyntheticStablecoin",
      "outputs": [],
      "stateMutability": "nonpayable",
      "type": "function"
    },
    {
      "inputs": [
        {
          "internalType": "uint256",
          "name": "_targetTVLCaptureBasisPoints",
          "type": "uint256"
        }
      ],
      "name": "setTargetTVLCaptureBasisPoints",
      "outputs": [],
      "stateMutability": "nonpayable",
      "type": "function"
    },
    {
      "inputs": [
        {
          "internalType": "address[]",
          "name": "_path",
          "type": "address[]"
        }
      ],
      "name": "setUSDCToZorroLPPoolToken0Path",
      "outputs": [],
      "stateMutability": "nonpayable",
      "type": "function"
    },
    {
      "inputs": [
        {
          "internalType": "address[]",
          "name": "_path",
          "type": "address[]"
        }
      ],
      "name": "setUSDCToZorroLPPoolToken1Path",
      "outputs": [],
      "stateMutability": "nonpayable",
      "type": "function"
    },
    {
      "inputs": [
        {
          "internalType": "address",
          "name": "_uniV2Router",
          "type": "address"
        }
      ],
      "name": "setUniRouter",
      "outputs": [],
      "stateMutability": "nonpayable",
      "type": "function"
    },
    {
      "inputs": [
        {
          "internalType": "address",
          "name": "_xChainReceivingOracle",
          "type": "address"
        }
      ],
      "name": "setXChainReceivingOracle",
      "outputs": [],
      "stateMutability": "nonpayable",
      "type": "function"
    },
    {
      "inputs": [
        {
          "internalType": "uint256",
          "name": "_value",
          "type": "uint256"
        }
      ],
      "name": "setZORRODailyDistributionFactorBasisPointsMax",
      "outputs": [],
      "stateMutability": "nonpayable",
      "type": "function"
    },
    {
      "inputs": [
        {
          "internalType": "uint256",
          "name": "_value",
          "type": "uint256"
        }
      ],
      "name": "setZORRODailyDistributionFactorBasisPointsMin",
      "outputs": [],
      "stateMutability": "nonpayable",
      "type": "function"
    },
    {
      "inputs": [
        {
          "internalType": "address",
          "name": "_zorroControllerOracle",
          "type": "address"
        }
      ],
      "name": "setZorroControllerOracle",
      "outputs": [],
      "stateMutability": "nonpayable",
      "type": "function"
    },
    {
      "inputs": [
        {
          "internalType": "bytes32",
          "name": "_zorroControllerOracleEmissionsJobId",
          "type": "bytes32"
        }
      ],
      "name": "setZorroControllerOracleEmissionsJobId",
      "outputs": [],
      "stateMutability": "nonpayable",
      "type": "function"
    },
    {
      "inputs": [
        {
          "internalType": "uint256",
          "name": "_zorroControllerOracleFee",
          "type": "uint256"
        }
      ],
      "name": "setZorroControllerOracleFee",
      "outputs": [],
      "stateMutability": "nonpayable",
      "type": "function"
    },
    {
      "inputs": [
        {
          "internalType": "bytes32",
          "name": "_zorroControllerOraclePriceJobId",
          "type": "bytes32"
        }
      ],
      "name": "setZorroControllerOraclePriceJobId",
      "outputs": [],
      "stateMutability": "nonpayable",
      "type": "function"
    },
    {
      "inputs": [
        {
          "internalType": "address",
          "name": "_zorroLPPool",
          "type": "address"
        }
      ],
      "name": "setZorroLPPool",
      "outputs": [],
      "stateMutability": "nonpayable",
      "type": "function"
    },
    {
      "inputs": [
        {
          "internalType": "address",
          "name": "_token0",
          "type": "address"
        }
      ],
      "name": "setZorroLPPoolToken0",
      "outputs": [],
      "stateMutability": "nonpayable",
      "type": "function"
    },
    {
      "inputs": [
        {
          "internalType": "address",
          "name": "_token1",
          "type": "address"
        }
      ],
      "name": "setZorroLPPoolToken1",
      "outputs": [],
      "stateMutability": "nonpayable",
      "type": "function"
    },
    {
      "inputs": [
        {
          "internalType": "uint256",
          "name": "_totalChainMultipliers",
          "type": "uint256"
        },
        {
          "internalType": "uint256",
          "name": "_totalMarketTVLUSD",
          "type": "uint256"
        },
        {
          "internalType": "uint256",
          "name": "_targetTVLCaptureBasisPoints",
          "type": "uint256"
        },
        {
          "internalType": "uint256",
          "name": "_ZorroTotalVaultTVLUSD",
          "type": "uint256"
        },
        {
          "internalType": "uint256",
          "name": "_publicPoolZORBalance",
          "type": "uint256"
        }
      ],
      "name": "setZorroPerBlock",
      "outputs": [],
      "stateMutability": "nonpayable",
      "type": "function"
    },
    {
      "inputs": [
        {
          "internalType": "address",
          "name": "_zorroStakingVault",
          "type": "address"
        }
      ],
      "name": "setZorroStakingVault",
      "outputs": [],
      "stateMutability": "nonpayable",
      "type": "function"
    },
    {
      "inputs": [
        {
          "internalType": "uint256",
          "name": "",
          "type": "uint256"
        }
      ],
      "name": "stargateDestPoolIds",
      "outputs": [
        {
          "internalType": "uint256",
          "name": "",
          "type": "uint256"
        }
      ],
      "stateMutability": "view",
      "type": "function"
    },
    {
      "inputs": [],
      "name": "stargateRouter",
      "outputs": [
        {
          "internalType": "address",
          "name": "",
          "type": "address"
        }
      ],
      "stateMutability": "view",
      "type": "function"
    },
    {
      "inputs": [],
      "name": "stargateSwapPoolId",
      "outputs": [
        {
          "internalType": "uint256",
          "name": "",
          "type": "uint256"
        }
      ],
      "stateMutability": "view",
      "type": "function"
    },
    {
      "inputs": [
        {
          "internalType": "uint256",
          "name": "",
          "type": "uint256"
        }
      ],
      "name": "stargateZorroChainMap",
      "outputs": [
        {
          "internalType": "uint16",
          "name": "",
          "type": "uint16"
        }
      ],
      "stateMutability": "view",
      "type": "function"
    },
    {
      "inputs": [],
      "name": "startBlock",
      "outputs": [
        {
          "internalType": "uint256",
          "name": "",
          "type": "uint256"
        }
      ],
      "stateMutability": "view",
      "type": "function"
    },
    {
      "inputs": [],
      "name": "syntheticStablecoin",
      "outputs": [
        {
          "internalType": "address",
          "name": "",
          "type": "address"
        }
      ],
      "stateMutability": "view",
      "type": "function"
    },
    {
      "inputs": [],
      "name": "targetTVLCaptureBasisPoints",
      "outputs": [
        {
          "internalType": "uint256",
          "name": "",
          "type": "uint256"
        }
      ],
      "stateMutability": "view",
      "type": "function"
    },
    {
      "inputs": [],
      "name": "totalAllocPoint",
      "outputs": [
        {
          "internalType": "uint256",
          "name": "",
          "type": "uint256"
        }
      ],
      "stateMutability": "view",
      "type": "function"
    },
    {
      "inputs": [
        {
          "internalType": "uint256",
          "name": "",
          "type": "uint256"
        },
        {
          "internalType": "address",
          "name": "",
          "type": "address"
        },
        {
          "internalType": "uint256",
          "name": "",
          "type": "uint256"
        }
      ],
      "name": "trancheInfo",
      "outputs": [
        {
          "internalType": "uint256",
          "name": "contribution",
          "type": "uint256"
        },
        {
          "internalType": "uint256",
          "name": "timeMultiplier",
          "type": "uint256"
        },
        {
          "internalType": "uint256",
          "name": "rewardDebt",
          "type": "uint256"
        },
        {
          "internalType": "uint256",
          "name": "durationCommittedInWeeks",
          "type": "uint256"
        },
        {
          "internalType": "uint256",
          "name": "enteredVaultAt",
          "type": "uint256"
        },
        {
          "internalType": "uint256",
          "name": "exitedVaultStartingAt",
          "type": "uint256"
        }
      ],
      "stateMutability": "view",
      "type": "function"
    },
    {
      "inputs": [
        {
          "internalType": "uint256",
          "name": "_pid",
          "type": "uint256"
        },
        {
          "internalType": "address",
          "name": "_user",
          "type": "address"
        }
      ],
      "name": "trancheLength",
      "outputs": [
        {
          "internalType": "uint256",
          "name": "",
          "type": "uint256"
        }
      ],
      "stateMutability": "view",
      "type": "function"
    },
    {
      "inputs": [
        {
          "internalType": "uint256",
          "name": "_fromPid",
          "type": "uint256"
        },
        {
          "internalType": "uint256",
          "name": "_fromTrancheId",
          "type": "uint256"
        },
        {
          "internalType": "uint256",
          "name": "_toPid",
          "type": "uint256"
        },
        {
          "internalType": "uint256",
          "name": "_maxMarketMovement",
          "type": "uint256"
        }
      ],
      "name": "transferInvestment",
      "outputs": [],
      "stateMutability": "nonpayable",
      "type": "function"
    },
    {
      "inputs": [
        {
          "internalType": "address",
          "name": "newOwner",
          "type": "address"
        }
      ],
      "name": "transferOwnership",
      "outputs": [],
      "stateMutability": "nonpayable",
      "type": "function"
    },
    {
      "inputs": [
        {
          "internalType": "bytes",
          "name": "_contract",
          "type": "bytes"
        }
      ],
      "name": "unRegisterXChainController",
      "outputs": [],
      "stateMutability": "nonpayable",
      "type": "function"
    },
    {
      "inputs": [
        {
          "internalType": "address",
          "name": "_contract",
          "type": "address"
        }
      ],
      "name": "unRegisterXChainEndpoint",
      "outputs": [],
      "stateMutability": "nonpayable",
      "type": "function"
    },
    {
      "inputs": [],
      "name": "uniRouterAddress",
      "outputs": [
        {
          "internalType": "address",
          "name": "",
          "type": "address"
        }
      ],
      "stateMutability": "view",
      "type": "function"
    },
    {
      "inputs": [
        {
          "internalType": "uint256",
          "name": "_pid",
          "type": "uint256"
        }
      ],
      "name": "updatePool",
      "outputs": [
        {
          "internalType": "uint256",
          "name": "",
          "type": "uint256"
        }
      ],
      "stateMutability": "nonpayable",
      "type": "function"
    },
    {
      "inputs": [
        {
          "internalType": "uint256",
          "name": "_pid",
          "type": "uint256"
        },
        {
          "internalType": "uint256",
          "name": "_trancheId",
          "type": "uint256"
        },
        {
          "internalType": "bool",
          "name": "_harvestOnly",
          "type": "bool"
        }
      ],
      "name": "withdraw",
      "outputs": [
        {
          "internalType": "uint256",
          "name": "",
          "type": "uint256"
        }
      ],
      "stateMutability": "nonpayable",
      "type": "function"
    },
    {
      "inputs": [
        {
          "internalType": "uint256",
          "name": "_pid",
          "type": "uint256"
        }
      ],
      "name": "withdrawAll",
      "outputs": [],
      "stateMutability": "nonpayable",
      "type": "function"
    },
    {
      "inputs": [
        {
          "internalType": "uint256",
          "name": "_pid",
          "type": "uint256"
        },
        {
          "internalType": "uint256",
          "name": "_trancheId",
          "type": "uint256"
        },
        {
          "internalType": "bool",
          "name": "_harvestOnly",
          "type": "bool"
        },
        {
          "internalType": "uint256",
          "name": "_maxMarketMovement",
          "type": "uint256"
        }
      ],
      "name": "withdrawalFullService",
      "outputs": [
        {
          "internalType": "uint256",
          "name": "",
          "type": "uint256"
        }
      ],
      "stateMutability": "nonpayable",
      "type": "function"
    },
    {
      "inputs": [],
      "name": "xChainReceivingOracle",
      "outputs": [
        {
          "internalType": "address",
          "name": "",
          "type": "address"
        }
      ],
      "stateMutability": "view",
      "type": "function"
    },
    {
      "inputs": [],
      "name": "zorroControllerOracle",
      "outputs": [
        {
          "internalType": "address",
          "name": "",
          "type": "address"
        }
      ],
      "stateMutability": "view",
      "type": "function"
    },
    {
      "inputs": [],
      "name": "zorroControllerOracleEmissionsJobId",
      "outputs": [
        {
          "internalType": "bytes32",
          "name": "",
          "type": "bytes32"
        }
      ],
      "stateMutability": "view",
      "type": "function"
    },
    {
      "inputs": [],
      "name": "zorroControllerOracleFee",
      "outputs": [
        {
          "internalType": "uint256",
          "name": "",
          "type": "uint256"
        }
      ],
      "stateMutability": "view",
      "type": "function"
    },
    {
      "inputs": [],
      "name": "zorroControllerOraclePriceJobId",
      "outputs": [
        {
          "internalType": "bytes32",
          "name": "",
          "type": "bytes32"
        }
      ],
      "stateMutability": "view",
      "type": "function"
    },
    {
      "inputs": [],
      "name": "zorroLPPool",
      "outputs": [
        {
          "internalType": "address",
          "name": "",
          "type": "address"
        }
      ],
      "stateMutability": "view",
      "type": "function"
    },
    {
      "inputs": [],
      "name": "zorroLPPoolToken0",
      "outputs": [
        {
          "internalType": "address",
          "name": "",
          "type": "address"
        }
      ],
      "stateMutability": "view",
      "type": "function"
    },
    {
      "inputs": [],
      "name": "zorroLPPoolToken1",
      "outputs": [
        {
          "internalType": "address",
          "name": "",
          "type": "address"
        }
      ],
      "stateMutability": "view",
      "type": "function"
    },
    {
      "inputs": [],
      "name": "zorroStakingVault",
      "outputs": [
        {
          "internalType": "address",
          "name": "",
          "type": "address"
        }
      ],
      "stateMutability": "view",
      "type": "function"
    },
    {
      "inputs": [
        {
          "internalType": "uint16",
          "name": "",
          "type": "uint16"
        }
      ],
      "name": "zorroStargateChainMap",
      "outputs": [
        {
          "internalType": "uint256",
          "name": "",
          "type": "uint256"
        }
      ],
      "stateMutability": "view",
      "type": "function"
    },
    {
      "inputs": [
        {
          "internalType": "address",
          "name": "_account",
          "type": "address"
        },
        {
          "internalType": "uint256",
          "name": "_amountUSDC",
          "type": "uint256"
        },
        {
          "internalType": "bytes",
          "name": "_xChainOrigin",
          "type": "bytes"
        },
        {
          "internalType": "bytes",
          "name": "_xChainSender",
          "type": "bytes"
        }
      ],
      "name": "receiveXChainUnlockRequest",
      "outputs": [],
      "stateMutability": "nonpayable",
      "type": "function"
    },
    {
      "inputs": [
        {
          "internalType": "uint256",
          "name": "_pid",
          "type": "uint256"
        },
        {
          "internalType": "uint256",
          "name": "_buybackAmountUSDC",
          "type": "uint256"
        },
        {
          "internalType": "uint256",
          "name": "_revShareAmountUSDC",
          "type": "uint256"
        }
      ],
      "name": "distributeEarningsXChain",
      "outputs": [],
      "stateMutability": "nonpayable",
      "type": "function"
    },
    {
      "inputs": [
        {
          "internalType": "uint256",
          "name": "_chainId",
          "type": "uint256"
        },
        {
          "internalType": "bytes",
          "name": "_callbackContract",
          "type": "bytes"
        },
        {
          "internalType": "uint256",
          "name": "_amountUSDCBuyback",
          "type": "uint256"
        },
        {
          "internalType": "uint256",
          "name": "_amountUSDCRevShare",
          "type": "uint256"
        },
        {
          "internalType": "uint256",
          "name": "_failedAmountUSDCBuyback",
          "type": "uint256"
        },
        {
          "internalType": "uint256",
          "name": "_failedAmountUSDCRevShare",
          "type": "uint256"
        },
        {
          "internalType": "bytes",
          "name": "_xChainOrigin",
          "type": "bytes"
        },
        {
          "internalType": "bytes",
          "name": "_xChainSender",
          "type": "bytes"
        }
      ],
      "name": "receiveXChainDistributionRequest",
      "outputs": [],
      "stateMutability": "nonpayable",
      "type": "function"
    },
    {
      "inputs": [
        {
          "internalType": "uint256",
          "name": "_amountUSDCBuyback",
          "type": "uint256"
        },
        {
          "internalType": "uint256",
          "name": "_amountUSDCRevShare",
          "type": "uint256"
        },
        {
          "internalType": "uint256",
          "name": "_failedAmountUSDCBuyback",
          "type": "uint256"
        },
        {
          "internalType": "uint256",
          "name": "_failedAmountUSDCRevShare",
          "type": "uint256"
        },
        {
          "internalType": "bytes",
          "name": "_xChainOrigin",
          "type": "bytes"
        },
        {
          "internalType": "bytes",
          "name": "_xChainSender",
          "type": "bytes"
        }
      ],
      "name": "receiveBurnLockedEarningsRequest",
      "outputs": [],
      "stateMutability": "nonpayable",
      "type": "function"
    },
    {
      "inputs": [
        {
          "internalType": "uint256",
          "name": "_chainId",
          "type": "uint256"
        },
        {
          "internalType": "bytes",
          "name": "_callbackContract",
          "type": "bytes"
        },
        {
          "internalType": "uint256",
          "name": "_amountUSDCBuyback",
          "type": "uint256"
        },
        {
          "internalType": "uint256",
          "name": "_amountUSDCRevShare",
          "type": "uint256"
        },
        {
          "internalType": "uint256",
          "name": "_failedAmountUSDCBuyback",
          "type": "uint256"
        },
        {
          "internalType": "uint256",
          "name": "_failedAmountUSDCRevShare",
          "type": "uint256"
        },
        {
          "internalType": "uint256",
          "name": "_ZORROExchangeRate",
          "type": "uint256"
        }
      ],
      "name": "buybackAndRevShareCallback",
      "outputs": [],
      "stateMutability": "nonpayable",
      "type": "function"
    }
  ],
  "bytecode": "0x608060405260038054600160a060020a03191661dead179055617080600655600160098190556014600a908155600b829055600c805460ff199081169093179055600d556103ca601955601d8054909116905560006034553480156200006457600080fd5b506200008b6200007c64010000000062000095810204565b64010000000062000099810204565b60018055620000e9565b3390565b60008054600160a060020a03838116600160a060020a0319831681178455604051919092169283917f8be0079c531659141344cd1fd0a4f28419497f9722a3daafe3b4186f6b6457e09190a35050565b614eb580620000f96000396000f3fe608060405234801561001057600080fd5b506004361061065c5760003560e060020a900480637e49b84011610355578063c2936142116101c7578063e317030911610113578063ef126967116100b1578063f2fde38b1161008b578063f2fde38b14610ed6578063f35e4a6e14610ee9578063fa88fe7b14610efc578063fc39a29e14610f0f57600080fd5b8063ef12696714610ea3578063ef190fec14610eb0578063f2d0caa914610ec357600080fd5b8063ed148bf3116100ed578063ed148bf314610e57578063edf9f8f514610e6a578063ee4e268714610e7d578063ef0e2ff414610e9057600080fd5b8063e317030914610e24578063ea07667a14610e37578063ec54e4a414610e4a57600080fd5b8063c913b4b311610180578063d7f33a821161015a578063d7f33a8214610de2578063d85c554814610df5578063ddd88fec14610dfe578063e2ae075014610e1157600080fd5b8063c913b4b314610d8f578063cb9c2f6814610dc6578063ce9e292814610dcf57600080fd5b8063c293614214610cf3578063c29de0d214610cfc578063c4f79c2314610d43578063c524a05614610d56578063c6d758cb14610d69578063c8d9bc9414610d7c57600080fd5b80639cde7a00116102a1578063a9e56f3c1161023f578063b61bb80a11610219578063b61bb80a14610ca7578063b961b9b414610cba578063bf9caa8014610ccd578063c27893ef14610ce057600080fd5b8063a9e56f3c14610c41578063b4b4e9eb14610c54578063b614bdba14610c9457600080fd5b8063a4d2b0831161027b578063a4d2b08314610bf5578063a77f62c914610c08578063a80bee0714610c1b578063a9418d6714610c2e57600080fd5b80639cde7a0014610bc65780639cebd37114610bd9578063a00c807c14610be257600080fd5b80638da5cb5b1161030e5780639568786c116102e85780639568786c14610b8e578063958e2d3114610ba15780639a8a059214610bb45780639b8ad2d614610bbd57600080fd5b80638da5cb5b14610b5d578063941d3fd014610b6e57806394909cc214610b7b57600080fd5b80637e49b84014610ac957806381ea795d14610afe578063823c43d014610b11578063871869ca14610b245780638b2bc85214610b375780638c157db214610b4a57600080fd5b806348cd4cb1116104ee57806368ce004b1161043a57806370d5ae05116103d8578063745af0a8116103b2578063745af0a814610a8757806376cc230314610a9a5780637bf604d814610aa35780637e37c76914610ab657600080fd5b806370d5ae0514610a59578063715018a614610a6c57806372b2355614610a7457600080fd5b80636b8eb2e5116104145780636b8eb2e514610a175780636b908e5714610a2a5780636c78d49c14610a335780636ca8bd6514610a4657600080fd5b806368ce004b146109e857806368d2b260146109fb578063693a090b14610a0457600080fd5b806353f73f87116104a75780636179ecd1116104815780636179ecd11461097257806365bc77bc14610985578063668ababb146109c2578063683dc6f5146109d557600080fd5b806353f73f871461094d5780635527a6f9146109605780635790f5991461096957600080fd5b806348cd4cb1146108f957806348d57c8e146109025780634cfea68a146109155780635051d3711461091e57806351eb05a614610931578063524277721461094457600080fd5b80632c4599fb116105ad5780633b35b727116105665780633bbc1ffc116105405780633bbc1ffc146108ad5780634098b0eb146108c0578063416d0de7146108d35780634780f9f5146108e657600080fd5b80633b35b727146108885780633b7106881461089b5780633b9ce565146108a457600080fd5b80632c4599fb146107d85780632e31283d146107eb57806333cfcd3b1461081b578063353b6c2c1461082e57806337541464146108415780633968ed481461087557600080fd5b80631526fe271161061a5780631ca95f94116105f45780631ca95f9414610769578063212b31a214610792578063219b38b8146107a557806326fc7c7d146107c557600080fd5b80631526fe27146106f1578063158340411461074057806317caf6f11461076057600080fd5b8062aeef8a14610661578063025b10451461067657806307968db1146106a6578063081e3eda146106b9578063104a6132146106cb5780631479a6df146106de575b600080fd5b61067461066f366004614336565b610f22565b005b60245461068990600160a060020a031681565b604051600160a060020a0390911681526020015b60405180910390f35b602a5461068990600160a060020a031681565b6031545b60405190815260200161069d565b6106896106d9366004614362565b610fdf565b6106746106ec366004614362565b611009565b6107046106ff366004614362565b61103b565b60408051600160a060020a03978816815260208101969096528501939093526060840191909152608083015290911660a082015260c00161069d565b6106bd61074e36600461437b565b60266020526000908152604090205481565b6106bd60345481565b610689610777366004614362565b601e60205260009081526040902054600160a060020a031681565b6106746107a03660046143e8565b61108e565b6106bd6107b3366004614362565b60296020526000908152604090205481565b6106746107d3366004614476565b6111d5565b6106746107e6366004614362565b611224565b6107fe6107f936600461454b565b611256565b60408051928352600160a060020a0390911660208301520161069d565b6106bd6108293660046145a9565b6112b8565b61067461083c366004614362565b61134e565b601154610862907001000000000000000000000000000000009004600f0b81565b604051600f9190910b815260200161069d565b6106746108833660046145e2565b611380565b610674610896366004614362565b611401565b6106bd600d5481565b6106bd600a5481565b6106746108bb366004614362565b611433565b6106746108ce366004614362565b611465565b600f5461068990600160a060020a031681565b6106746108f43660046146a0565b611497565b6106bd60055481565b60215461068990600160a060020a031681565b6106bd60065481565b61067461092c366004614476565b611540565b6106bd61093f366004614362565b61158f565b6106bd60305481565b6106bd61095b3660046146d2565b611708565b6106bd60095481565b6106bd60285481565b610674610980366004614362565b611730565b6109b26109933660046146fe565b8051602081830181018051828252928201919093012091525460ff1681565b604051901515815260200161069d565b60045461068990600160a060020a031681565b6106746109e3366004614476565b611762565b6106746109f6366004614733565b6117b1565b6106bd602f5481565b60155461068990600160a060020a031681565b610674610a253660046147df565b6117f5565b6106bd602e5481565b610674610a4136600461481a565b6118f4565b610674610a54366004614476565b611934565b60035461068990600160a060020a031681565b610674611983565b610674610a82366004614476565b6119bc565b6106bd610a95366004614837565b611a0b565b6106bd60235481565b60125461068990600160a060020a031681565b610674610ac43660046146a0565b611a82565b610aec610ad7366004614476565b601f6020526000908152604090205460ff1681565b60405160ff909116815260200161069d565b610674610b0c3660046146fe565b611c01565b602d5461068990600160a060020a031681565b610674610b323660046146fe565b611c63565b60145461068990600160a060020a031681565b60025461068990600160a060020a031681565b600054600160a060020a0316610689565b600c546109b29060ff1681565b610674610b89366004614476565b611ca2565b6106bd610b9c366004614362565b611cf1565b610674610baf366004614362565b611dca565b6106bd601c5481565b6106bd60195481565b610689610bd4366004614362565b611e34565b6106bd600b5481565b610674610bf0366004614733565b611e44565b601a5461068990600160a060020a031681565b610674610c16366004614362565b611e84565b6106bd610c29366004614876565b611eb6565b610674610c3c366004614476565b611ed2565b60275461068990600160a060020a031681565b610c67610c62366004614898565b611f7a565b604080519687526020870195909552938501929092526060840152608083015260a082015260c00161069d565b610689610ca2366004614362565b611fdb565b600e5461068990600160a060020a031681565b610674610cc8366004614362565b611feb565b610674610cdb366004614476565b61201d565b60105461068990600160a060020a031681565b6106bd60075481565b610d2e610d0a3660046146d2565b60356020908152600092835260408084209091529082529020805460019091015482565b6040805192835260208301919091520161069d565b610674610d513660046146d2565b61206c565b610674610d64366004614476565b6120c7565b610674610d773660046148cd565b612116565b610674610d8a366004614336565b6121de565b610db3610d9d366004614362565b60256020526000908152604090205461ffff1681565b60405161ffff909116815260200161069d565b6106bd60085481565b610674610ddd366004614476565b61226f565b610674610df0366004614476565b6122be565b6106bd60225481565b610674610e0c366004614476565b61230f565b610674610e1f3660046148f7565b61235e565b610674610e32366004614980565b612412565b610674610e45366004614362565b61248e565b60115461086290600f0b81565b60135461068990600160a060020a031681565b610674610e78366004614476565b6124c0565b610674610e8b366004614476565b61250f565b610674610e9e366004614362565b61255e565b601d54610aec9060ff1681565b610674610ebe366004614476565b612590565b610674610ed1366004614476565b6125df565b610674610ee4366004614476565b61262d565b610674610ef7366004614362565b6126e5565b610674610f0a366004614476565b612717565b601b5461068990600160a060020a031681565b60026001541415610f515760405160e560020a62461bcd028152600401610f48906149fe565b60405180910390fd5b6002600181905550600060318481548110610f6e57610f6e614a35565b600091825260209091206006909102018054909150610f9790600160a060020a03163085612766565b60058101548154610fb791600160a060020a0391821691339116866128aa565b610fd48433604051806020016040528060008152508686426128fb565b505060018055505050565b60188181548110610fef57600080fd5b600091825260209091200154600160a060020a0316905081565b600054600160a060020a031633146110365760405160e560020a62461bcd028152600401610f4890614a4e565b600955565b6031818154811061104b57600080fd5b6000918252602090912060069091020180546001820154600283015460038401546004850154600590950154600160a060020a0394851696509294919390921686565b602d54600160a060020a031633600160a060020a0316146110f45760405160e560020a62461bcd02815260206004820152601160248201527f6f6e6c79205a6f72726f206f7261636c650000000000000000000000000000006044820152606401610f48565b600061110c8361110686818a8a612bf9565b90612bf9565b600e5460405160e060020a6370a08231028152306004820152919250600091600160a060020a03909116906370a0823190602401602060405180830381865afa15801561115d573d6000803e3d6000fd5b505050506040513d601f19601f820116820180604052508101906111819190614a83565b905060006111a38361119d6111968b8a612bf9565b8590612c05565b90612c11565b90506111af8185612c1d565b60006111bb838361311e565b90506111c7818661312a565b505050505050505050505050565b600054600160a060020a031633146112025760405160e560020a62461bcd028152600401610f4890614a4e565b60218054600160a060020a031916600160a060020a0392909216919091179055565b600054600160a060020a031633146112515760405160e560020a62461bcd028152600401610f4890614a4e565b602f55565b6033602090815260008481526040902083518085018301805192815290830192850192909220915280548290811061128d57600080fd5b600091825260209091206002909102018054600190910154909350600160a060020a03169150839050565b6000600260015414156112e05760405160e560020a62461bcd028152600401610f48906149fe565b6002600181905550600061130685336040518060200160405280600081525087876131ef565b50905061134233826031888154811061132157611321614a35565b6000918252602090912060069091020154600160a060020a03169190613579565b60018055949350505050565b600054600160a060020a0316331461137b5760405160e560020a62461bcd028152600401610f4890614a4e565b600655565b336000908152601f602052604090205460ff166113b25760405160e560020a62461bcd028152600401610f4890614a9c565b806020816040516113c39190614aff565b9081526040519081900360200190205460ff166113f55760405160e560020a62461bcd028152600401610f4890614b1b565b50505050505050505050565b600054600160a060020a0316331461142e5760405160e560020a62461bcd028152600401610f4890614a4e565b600a55565b600054600160a060020a031633146114605760405160e560020a62461bcd028152600401610f4890614a4e565b600855565b600054600160a060020a031633146114925760405160e560020a62461bcd028152600401610f4890614a4e565b600d55565b600260015414156114bd5760405160e560020a62461bcd028152600401610f48906149fe565b60026001819055506000603185815481106114da576114da614a35565b6000918252602090912060056006909202010154600e54600160a060020a03918216925061150a91163086612766565b600e5461152290600160a060020a03163383876128aa565b610fd4853360405180602001604052806000815250878742886135c7565b600054600160a060020a0316331461156d5760405160e560020a62461bcd028152600401610f4890614a4e565b602d8054600160a060020a031916600160a060020a0392909216919091179055565b600080603183815481106115a5576115a5614a35565b90600052602060002090600602019050806002015443116115c95750600092915050565b60006115e282600201544361311e90919063ffffffff16565b9050600081116115f6575060009392505050565b600061162160345461119d856001015461161b60075487612c0590919063ffffffff16565b90612c05565b601b54909150600160a060020a031630141561167a5760045460025461165591600160a060020a03918216911630846128aa565b60038301546116649082612bf9565b6003840155505043600290910155506000919050565b6002546040517f40c10f1900000000000000000000000000000000000000000000000000000000815230600482015260248101839052600160a060020a03909116906340c10f1990604401600060405180830381600087803b1580156116df57600080fd5b505af11580156116f3573d6000803e3d6000fd5b5092979650505050505050565b505050919050565b6000918252603260209081526040808420600160a060020a0393909316845291905290205490565b600054600160a060020a0316331461175d5760405160e560020a62461bcd028152600401610f4890614a4e565b601955565b600054600160a060020a0316331461178f5760405160e560020a62461bcd028152600401610f4890614a4e565b60248054600160a060020a031916600160a060020a0392909216919091179055565b600054600160a060020a031633146117de5760405160e560020a62461bcd028152600401610f4890614a4e565b80516117f19060169060208401906142bc565b5050565b602d54600160a060020a031633600160a060020a03161461185b5760405160e560020a62461bcd02815260206004820152601160248201527f6f6e6c79205a6f72726f206f7261636c650000000000000000000000000000006044820152606401610f48565b600061187d8361119d61187087612710612c11565b600d5461161b908a612c05565b9050600a548111156118925750600a546118a1565b6009548110156118a157506009545b60006118b361271061119d8585612c05565b905060006118d08861119d84600b54612c0590919063ffffffff16565b90506118e760065482612c1190919063ffffffff16565b6007555050505050505050565b600054600160a060020a031633146119215760405160e560020a62461bcd028152600401610f4890614a4e565b600c805460ff1916911515919091179055565b600054600160a060020a031633146119615760405160e560020a62461bcd028152600401610f4890614a4e565b601a8054600160a060020a031916600160a060020a0392909216919091179055565b600054600160a060020a031633146119b05760405160e560020a62461bcd028152600401610f4890614a4e565b6119ba60006136d8565b565b600054600160a060020a031633146119e95760405160e560020a62461bcd028152600401610f4890614a4e565b602b8054600160a060020a031916600160a060020a0392909216919091179055565b600060026001541415611a335760405160e560020a62461bcd028152600401610f48906149fe565b60026001819055506000611a5a336040518060200160405280600081525088888888613728565b50600e54909150611a7590600160a060020a03163383613579565b6001805595945050505050565b60026001541415611aa85760405160e560020a62461bcd028152600401610f48906149fe565b600260015560008481526032602090815260408083203384529091528120805485908110611ad857611ad8614a35565b600091825260208083206003600690930201919091015487835260328252604080842033855290925290822080549193509086908110611b1a57611b1a614a35565b90600052602060002090600602016004015490506000611b4e33604051806020016040528060008152508989600189613728565b5090506060600e60009054906101000a9004600160a060020a031681600081518110611b7c57611b7c614a35565b6020026020010190600160a060020a03169081600160a060020a031681525050611bba8633604051806020016040528060008152508588888b6135c7565b604051338152869088908a907f67e7aba7263d8fbeb0cd9a2f4008f060a6a03f46c1d7f9d0550f0b93e96e96f89060200160405180910390a4505060018055505050505050565b600054600160a060020a03163314611c2e5760405160e560020a62461bcd028152600401610f4890614a4e565b6001602082604051611c409190614aff565b908152604051908190036020019020805491151560ff1990921691909117905550565b600054600160a060020a03163314611c905760405160e560020a62461bcd028152600401610f4890614a4e565b6000602082604051611c409190614aff565b600054600160a060020a03163314611ccf5760405160e560020a62461bcd028152600401610f4890614a4e565b60048054600160a060020a031916600160a060020a0392909216919091179055565b600c5460009060ff1615611db9576040517f677342ce00000000000000000000000000000000000000000000000000000000815260048101839052611db39064e8d4a510009061161b90611dab9073__CustomMath____________________________9063677342ce90602401602060405180830381865af4158015611d7b573d6000803e3d6000fd5b505050506040513d601f19601f82011682018060405250810190611d9f9190614a83565b61161b6002600a612c11565b600190612bf9565b92915050565b5064e8d4a51000919050565b919050565b60026001541415611df05760405160e560020a62461bcd028152600401610f48906149fe565b60026001556000611e018233611708565b905060005b81811015611e2b57611e1a838260006112b8565b50611e2481614b6b565b9050611e06565b50506001805550565b60178181548110610fef57600080fd5b600054600160a060020a03163314611e715760405160e560020a62461bcd028152600401610f4890614a4e565b80516117f19060179060208401906142bc565b600054600160a060020a03163314611eb15760405160e560020a62461bcd028152600401610f4890614a4e565b602e55565b6000611ecb64e8d4a5100061119d8585612c05565b9392505050565b600054600160a060020a03163314611eff5760405160e560020a62461bcd028152600401610f4890614a4e565b600160a060020a038116611f585760405160e560020a62461bcd02815260206004820152601060248201527f63616e6e6f7420626520302061646472000000000000000000000000000000006044820152606401610f48565b601b8054600160a060020a031916600160a060020a0392909216919091179055565b60326020528260005260406000206020528160005260406000208181548110611fa257600080fd5b60009182526020909120600690910201805460018201546002830154600384015460048501546005909501549397509195509350919086565b60168181548110610fef57600080fd5b600054600160a060020a031633146120185760405160e560020a62461bcd028152600401610f4890614a4e565b603055565b600054600160a060020a0316331461204a5760405160e560020a62461bcd028152600401610f4890614a4e565b60148054600160a060020a031916600160a060020a0392909216919091179055565b600054600160a060020a031633146120995760405160e560020a62461bcd028152600401610f4890614a4e565b6000918252601e60205260409091208054600160a060020a031916600160a060020a03909216919091179055565b600054600160a060020a031633146120f45760405160e560020a62461bcd028152600401610f4890614a4e565b600e8054600160a060020a031916600160a060020a0392909216919091179055565b600054600160a060020a031633146121435760405160e560020a62461bcd028152600401610f4890614a4e565b600254600160a060020a03838116911614156121ca5760405160e560020a62461bcd02815260206004820152603560248201527f217361666520746f20757365205a6f72726f20746f6b656e20696e2066756e6360448201527f20696e43617365546f6b656e73476574537475636b00000000000000000000006064820152608401610f48565b6117f1600160a060020a0383163383613579565b82603181815481106121f2576121f2614a35565b6000918252602090912060069091020160050154600160a060020a031633600160a060020a0316146122695760405160e560020a62461bcd02815260206004820152600e60248201527f6f6e6c7920726567207661756c740000000000000000000000000000000000006044820152606401610f48565b50505050565b600054600160a060020a0316331461229c5760405160e560020a62461bcd028152600401610f4890614a4e565b60108054600160a060020a031916600160a060020a0392909216919091179055565b600054600160a060020a031633146122eb5760405160e560020a62461bcd028152600401610f4890614a4e565b600160a060020a03166000908152601f60205260409020805460ff19166001179055565b600054600160a060020a0316331461233c5760405160e560020a62461bcd028152600401610f4890614a4e565b60128054600160a060020a031916600160a060020a0392909216919091179055565b336000908152601f602052604090205460ff166123905760405160e560020a62461bcd028152600401610f4890614a9c565b806020816040516123a19190614aff565b9081526040519081900360200190205460ff166123d35760405160e560020a62461bcd028152600401610f4890614b1b565b60006123e58561110688818c8c612bf9565b6022549091506123f5908761311e565b602255602354612405908661311e565b6023555050505050505050565b336000908152601f602052604090205460ff166124445760405160e560020a62461bcd028152600401610f4890614a9c565b806020816040516124559190614aff565b9081526040519081900360200190205460ff166124875760405160e560020a62461bcd028152600401610f4890614b1b565b5050505050565b600054600160a060020a031633146124bb5760405160e560020a62461bcd028152600401610f4890614a4e565b600b55565b600054600160a060020a031633146124ed5760405160e560020a62461bcd028152600401610f4890614a4e565b602c8054600160a060020a031916600160a060020a0392909216919091179055565b600054600160a060020a0316331461253c5760405160e560020a62461bcd028152600401610f4890614a4e565b60158054600160a060020a031916600160a060020a0392909216919091179055565b600054600160a060020a0316331461258b5760405160e560020a62461bcd028152600401610f4890614a4e565b601c55565b600054600160a060020a031633146125bd5760405160e560020a62461bcd028152600401610f4890614a4e565b600f8054600160a060020a031916600160a060020a0392909216919091179055565b600054600160a060020a0316331461260c5760405160e560020a62461bcd028152600401610f4890614a4e565b600160a060020a03166000908152601f60205260409020805460ff19169055565b600054600160a060020a0316331461265a5760405160e560020a62461bcd028152600401610f4890614a4e565b600160a060020a0381166126d95760405160e560020a62461bcd02815260206004820152602660248201527f4f776e61626c653a206e6577206f776e657220697320746865207a65726f206160448201527f64647265737300000000000000000000000000000000000000000000000000006064820152608401610f48565b6126e2816136d8565b50565b600054600160a060020a031633146127125760405160e560020a62461bcd028152600401610f4890614a4e565b600555565b600054600160a060020a031633146127445760405160e560020a62461bcd028152600401610f4890614a4e565b60138054600160a060020a031916600160a060020a0392909216919091179055565b6040517fdd62ed3e000000000000000000000000000000000000000000000000000000008152306004820152600160a060020a038381166024830152600091839186169063dd62ed3e90604401602060405180830381865afa1580156127d0573d6000803e3d6000fd5b505050506040513d601f19601f820116820180604052508101906127f49190614a83565b6127fe9190614b86565b604051600160a060020a0385166024820152604481018290529091506122699085907f095ea7b300000000000000000000000000000000000000000000000000000000906064015b60408051601f198184030181529190526020810180517bffffffffffffffffffffffffffffffffffffffffffffffffffffffff167fffffffff0000000000000000000000000000000000000000000000000000000090931692909217909152613875565b604051600160a060020a03808516602483015283166044820152606481018290526122699085907f23b872dd0000000000000000000000000000000000000000000000000000000090608401612846565b6000806031888154811061291157612911614a35565b90600052602060002090600602019050600085116129745760405160e560020a62461bcd02815260206004820152601560248201527f5f77616e74416d74206d757374206265203e20302100000000000000000000006044820152606401610f48565b61297d8861158f565b915086600160a060020a038116612a24576000875111612a085760405160e560020a62461bcd02815260206004820152602c60248201527f4e65697468657220666f726569676e2061636374206e6f72206c6f63616c206160448201527f6363742070726f766964656400000000000000000000000000000000000000006064820152608401610f48565b612a1187614b9e565b6c01000000000000000000000000900490505b600060318a81548110612a3957612a39614a35565b60009182526020909120600560069092020101546040517f7c7671e2000000000000000000000000000000000000000000000000000000008152600160a060020a0390911690637c7671e290612a979085908c908c90600401614c04565b6020604051808303816000875af1158015612ab6573d6000803e3d6000fd5b505050506040513d601f19601f82011682018060405250810190612ada9190614a83565b601a54600585015491925064e8d4a5100091600160a060020a03908116911614612b0a57612b0787611cf1565b90505b6000612b168383611eb6565b6004860154909150612b289082612bf9565b60048601819055600090612b459061119d8464e8d4a51000612c05565b905060006040518060c00160405280848152602001858152602001612b8064e8d4a5100061119d868c60030154612c0590919063ffffffff16565b81526020018b81526020018a815260200160008152509050612ba48e878e8461395d565b8d86600160a060020a03167f90890809c654f11d6e72a28fa60149770a0d11ec6c92319d6ceb2bb0a4ea1a158d604051612be091815260200190565b60405180910390a3505050505050509695505050505050565b6000611ecb8284614b86565b6000611ecb8284614c36565b6000611ecb8284614c55565b601554600e54612c3a91600160a060020a03918216911684612766565b6002546013546000918291600160a060020a0390811691161415612cf057602c54604080517ffeaf968c0000000000000000000000000000000000000000000000000000000081529051859450600092600160a060020a03169163feaf968c9160048083019260a09291908290030181865afa158015612cbe573d6000803e3d6000fd5b505050506040513d601f19601f82011682018060405250810190612ce29190614c94565b50919450612d9c9350505050565b600254601454600160a060020a0390811691161415612d9c57602b54604080517ffeaf968c0000000000000000000000000000000000000000000000000000000081529051600092600160a060020a03169163feaf968c9160048083019260a09291908290030181865afa158015612d6c573d6000803e3d6000fd5b505050506040513d601f19601f82011682018060405250810190612d909190614c94565b50919550869450505050505b60155473__SafeSwapUni___________________________90632b08bab190600160a060020a0316612dcf876002612c11565b60195464e8d4a51000908790601630612dea42610258612bf9565b6040518963ffffffff1660e060020a028152600401612e10989796959493929190614ce4565b60006040518083038186803b158015612e2857600080fd5b505af4158015612e3c573d6000803e3d6000fd5b505060155473__SafeSwapUni___________________________9250632b08bab19150600160a060020a0316612e73876002612c11565b60195464e8d4a51000908690601730612e8e42610258612bf9565b6040518963ffffffff1660e060020a028152600401612eb4989796959493929190614ce4565b60006040518083038186803b158015612ecc57600080fd5b505af4158015612ee0573d6000803e3d6000fd5b505060135460405160e060020a6370a0823102815230600482015260009350600160a060020a0390911691506370a0823190602401602060405180830381865afa158015612f32573d6000803e3d6000fd5b505050506040513d601f19601f82011682018060405250810190612f569190614a83565b60145460405160e060020a6370a08231028152306004820152919250600091600160a060020a03909116906370a0823190602401602060405180830381865afa158015612fa7573d6000803e3d6000fd5b505050506040513d601f19601f82011682018060405250810190612fcb9190614a83565b601554601354919250612feb91600160a060020a03908116911684612766565b60155460145461300891600160a060020a03918216911683612766565b601554601354601454601954600160a060020a039384169363e8e3370093811692169086908690613042906103e89061119d908590612c05565b61305d6103e861119d6019548b612c0590919063ffffffff16565b600354600160a060020a031661307542610258612bf9565b60405163ffffffff8a1660e060020a028152600160a060020a039889166004820152968816602488015260448701959095526064860193909352608485019190915260a484015290921660c482015260e4810191909152610104016060604051808303816000875af11580156130ef573d6000803e3d6000fd5b505050506040513d601f19601f820116820180604052508101906131139190614d7b565b505050505050505050565b6000611ecb8284614da9565b601554600e5461314791600160a060020a03918216911684612766565b601554601954601a5473__SafeSwapUni___________________________92632b08bab192600160a060020a0391821692879264e8d4a5100092889290916018911661319542610258612bf9565b6040518963ffffffff1660e060020a0281526004016131bb989796959493929190614ce4565b60006040518083038186803b1580156131d357600080fd5b505af41580156131e7573d6000803e3d6000fd5b505050505050565b600080600160a060020a03861615801561320a575060008551115b806132275750600160a060020a0386161580159061322757508451155b6132765760405160e560020a62461bcd02815260206004820152601d60248201527f4f6e6c79206f6e65206163636f756e74207479706520616c6c6f7765640000006044820152606401610f48565b60006132848886888a613a66565b905060006031898154811061329b5761329b614a35565b9060005260206000209060060201905060008260000151116133025760405160e560020a62461bcd02815260206004820152601960248201527f7472616e6368652e636f6e747269627574696f6e2069732030000000000000006044820152606401610f48565b60008160040154116133595760405160e560020a62461bcd02815260206004820152601e60248201527f746f74616c5472616e636865436f6e747269627574696f6e73206973203000006044820152606401610f48565b60006133648a61158f565b9050600061338c836004015461119d64e8d4a510008760000151612c0590919063ffffffff16565b905060006133be85604001516133b864e8d4a5100061119d886003015487612c0590919063ffffffff16565b9061311e565b905080156133d2576133d28c86838e613ca5565b60318c815481106133e5576133e5614a35565b60009182526020909120600560069092020101546040517f095170e9000000000000000000000000000000000000000000000000000000008152600160a060020a039091169063095170e990613443908e908e908d90600401614dc0565b6020604051808303816000875af1158015613462573d6000803e3d6000fd5b505050506040513d601f19601f820116820180604052508101906134869190614a83565b50845160048501546134979161311e565b600485810191909155845460405160e060020a6370a082310281523092810192909252600091600160a060020a03909116906370a0823190602401602060405180830381865afa1580156134ef573d6000803e3d6000fd5b505050506040513d601f19601f820116820180604052508101906135139190614a83565b90506135218d8b8e8e613d6e565b604080518b8152602081018390528e91600160a060020a038f16917f02f25270a4d87bea75db541cdfe559334a275b4a233520ed6c0a2429667cca94910160405180910390a39c929b50919950505050505050505050565b604051600160a060020a0383166024820152604481018290526135c29084907fa9059cbb0000000000000000000000000000000000000000000000000000000090606401612846565b505050565b6000603188815481106135dc576135dc614a35565b60009182526020822060069190910201600501546040517fe502a88d0000000000000000000000000000000000000000000000000000000081526004810188905260248101859052600160a060020a039091169250829190829063e502a88d906044016020604051808303816000875af115801561365e573d6000803e3d6000fd5b505050506040513d601f19601f820116820180604052508101906136829190614a83565b90506136bd838260318d8154811061369c5761369c614a35565b6000918252602090912060069091020154600160a060020a03169190612766565b6136cb8a8a8a848a8a6128fb565b5050505050505050505050565b60008054600160a060020a03838116600160a060020a0319831681178455604051919092169283917f8be0079c531659141344cd1fd0a4f28419497f9722a3daafe3b4186f6b6457e09190a35050565b6000848152603260209081526040808320600160a060020a038a16845290915281208054829142918790811061376057613760614a35565b90600052602060002090600602016005018190555060006031878154811061378a5761378a614a35565b60009182526020822060056006909202010154600160a060020a031691508190806137b88a8d8d8c8c6131ef565b915091506137d4848360318d8154811061369c5761369c614a35565b6040517f648794a40000000000000000000000000000000000000000000000000000000081526004810183905260248101889052600090600160a060020a0385169063648794a4906044016020604051808303816000875af115801561383e573d6000803e3d6000fd5b505050506040513d601f19601f820116820180604052508101906138629190614a83565b9d919c50909a5050505050505050505050565b60006138ca826040518060400160405280602081526020017f5361666545524332303a206c6f772d6c6576656c2063616c6c206661696c656481525085600160a060020a03166140899092919063ffffffff16565b8051909150156135c257808060200190518101906138e89190614df4565b6135c25760405160e560020a62461bcd02815260206004820152602a60248201527f5361666545524332303a204552433230206f7065726174696f6e20646964206e60448201527f6f742073756363656564000000000000000000000000000000000000000000006064820152608401610f48565b6000848152603260209081526040808320600160a060020a0387168452825280832080546001818101835591855293839020855160069095020193845591840151918301919091558201516002820155606082015160038201556080820151600482015560a0820151600590910155815115612269576000848152603360205260409081902090516139f0908490614aff565b90815260200160405180910390206040518060400160405280613a1860016133b88989611708565b8152600160a060020a03958616602091820152825460018082018555600094855293829020835160029092020190815591015191018054600160a060020a0319169190941617909255505050565b613a9f6040518060c001604052806000815260200160008152602001600081526020016000815260200160008152602001600081525090565b600160a060020a038216613b3d576000858152603260209081526040808320600160a060020a03861684529091529020805485908110613ae157613ae1614a35565b90600052602060002090600602016040518060c001604052908160008201548152602001600182015481526020016002820154815260200160038201548152602001600482015481526020016005820154815250509050613c9d565b60005b600086815260336020526040908190209051613b5d908690614aff565b9081526040519081900360200190205461ffff82161015613c9b576000868152603360205260408082209051613b94908790614aff565b90815260200160405180910390208261ffff1681548110613bb757613bb7614a35565b6000918252602091829020604080518082019091526002909202018054808352600190910154600160a060020a0316928201929092529150861415613c8a57600087815260326020908152604080832084830151600160a060020a031684529091529020805487908110613c2d57613c2d614a35565b90600052602060002090600602016040518060c00160405290816000820154815260200160018201548152602001600282015481526020016003820154815260200160048201548152602001600582015481525050925050613c9b565b50613c9481614e11565b9050613b40565b505b949350505050565b6000613cd3426133b8613cc862093a808860600151612c0590919063ffffffff16565b608088015190612bf9565b90506000808215613d11576060860151613cfe90613cf49062093a80612c05565b61119d8786612c05565b9050613d0a858261311e565b9150613d15565b8491505b613d1f8483614098565b8015613d6557600060318881548110613d3a57613d3a614a35565b6000918252602090912060056006909202010154600160a060020a03169050613d638183614098565b505b50505050505050565b6000848152603260209081526040808320600160a060020a03861684529091529020805490613d9e600183614da9565b81548110613dae57613dae614a35565b60009182526020808320888452603282526040808520600160a060020a0389168652909252922080546006909202909201919086908110613df157613df1614a35565b600091825260208083208454600690930201918255600180850154908301556002808501549083015560038085015490830155600480850154908301556005938401549390910192909255868152603282526040808220600160a060020a038716835290925220805480613e6757613e67614e33565b60008281526020812060066000199093019283020181815560018101829055600281018290556003810182905560048101829055600501559055815115612487576000858152603360205260408082209051613ec4908590614aff565b90815260405190819003602001902054905060005b818160ff161015613d6557856033600089815260200190815260200160002085604051613f069190614aff565b90815260200160405180910390208260ff1681548110613f2857613f28614a35565b906000526020600020906002020160000154141561407957600087815260336020526040908190209051613f5d908690614aff565b908152604051908190036020019020613f77600184614da9565b81548110613f8757613f87614a35565b90600052602060002090600202016033600089815260200190815260200160002085604051613fb69190614aff565b90815260200160405180910390208260ff1681548110613fd857613fd8614a35565b600091825260208083208454600290930201918255600193840154939091018054600160a060020a031916600160a060020a039094169390931790925588815260339091526040908190209051614030908690614aff565b908152602001604051809103902080548061404d5761404d614e33565b6000828152602081206002600019909301928302019081556001018054600160a060020a031916905590555b61408281614e4c565b9050613ed9565b6060613c9d8484600085614131565b60025460405160e060020a6370a082310281523060048201528291600091600160a060020a03909116906370a0823190602401602060405180830381865afa1580156140e8573d6000803e3d6000fd5b505050506040513d601f19601f8201168201806040525081019061410c9190614a83565b90508083111561411a578091505b60025461226990600160a060020a03168584613579565b606030318311156141ad5760405160e560020a62461bcd02815260206004820152602660248201527f416464726573733a20696e73756666696369656e742062616c616e636520666f60448201527f722063616c6c00000000000000000000000000000000000000000000000000006064820152608401610f48565b600160a060020a0385163b6142075760405160e560020a62461bcd02815260206004820152601d60248201527f416464726573733a2063616c6c20746f206e6f6e2d636f6e74726163740000006044820152606401610f48565b60008086600160a060020a031685876040516142239190614aff565b60006040518083038185875af1925050503d8060008114614260576040519150601f19603f3d011682016040523d82523d6000602084013e614265565b606091505b5091509150614275828286614280565b979650505050505050565b6060831561428f575081611ecb565b82511561429f5782518084602001fd5b8160405160e560020a62461bcd028152600401610f489190614e6c565b828054828255906000526020600020908101928215614311579160200282015b828111156143115782518254600160a060020a031916600160a060020a039091161782556020909201916001909101906142dc565b5061431d929150614321565b5090565b5b8082111561431d5760008155600101614322565b60008060006060848603121561434b57600080fd5b505081359360208301359350604090920135919050565b60006020828403121561437457600080fd5b5035919050565b60006020828403121561438d57600080fd5b813561ffff81168114611ecb57600080fd5b60008083601f8401126143b157600080fd5b50813567ffffffffffffffff8111156143c957600080fd5b6020830191508360208285010111156143e157600080fd5b9250929050565b60008060008060008060008060e0898b03121561440457600080fd5b88359750602089013567ffffffffffffffff81111561442257600080fd5b61442e8b828c0161439f565b999c909b509899604081013599606082013599506080820135985060a0820135975060c09091013595509350505050565b8035600160a060020a0381168114611dc557600080fd5b60006020828403121561448857600080fd5b611ecb8261445f565b60e060020a634e487b7102600052604160045260246000fd5b604051601f8201601f1916810167ffffffffffffffff811182821017156144d3576144d3614491565b604052919050565b600082601f8301126144ec57600080fd5b813567ffffffffffffffff81111561450657614506614491565b614519601f8201601f19166020016144aa565b81815284602083860101111561452e57600080fd5b816020850160208301376000918101602001919091529392505050565b60008060006060848603121561456057600080fd5b83359250602084013567ffffffffffffffff81111561457e57600080fd5b61458a868287016144db565b925050604084013590509250925092565b80151581146126e257600080fd5b6000806000606084860312156145be57600080fd5b833592506020840135915060408401356145d78161459b565b809150509250925092565b60008060008060008060008060006101008a8c03121561460157600080fd5b8935985060208a013567ffffffffffffffff8082111561462057600080fd5b61462c8d838e0161439f565b909a50985060408c0135975060608c0135965060808c0135955060a08c0135945060c08c013591508082111561466157600080fd5b61466d8d838e016144db565b935060e08c013591508082111561468357600080fd5b506146908c828d016144db565b9150509295985092959850929598565b600080600080608085870312156146b657600080fd5b5050823594602084013594506040840135936060013592509050565b600080604083850312156146e557600080fd5b823591506146f56020840161445f565b90509250929050565b60006020828403121561471057600080fd5b813567ffffffffffffffff81111561472757600080fd5b613c9d848285016144db565b6000602080838503121561474657600080fd5b823567ffffffffffffffff8082111561475e57600080fd5b818501915085601f83011261477257600080fd5b81358181111561478457614784614491565b83810291506147948483016144aa565b81815291830184019184810190888411156147ae57600080fd5b938501935b838510156147d3576147c48561445f565b825293850193908501906147b3565b98975050505050505050565b600080600080600060a086880312156147f757600080fd5b505083359560208501359550604085013594606081013594506080013592509050565b60006020828403121561482c57600080fd5b8135611ecb8161459b565b6000806000806080858703121561484d57600080fd5b843593506020850135925060408501356148668161459b565b9396929550929360600135925050565b6000806040838503121561488957600080fd5b50508035926020909101359150565b6000806000606084860312156148ad57600080fd5b833592506148bd6020850161445f565b9150604084013590509250925092565b600080604083850312156148e057600080fd5b6148e98361445f565b946020939093013593505050565b60008060008060008060c0878903121561491057600080fd5b86359550602087013594506040870135935060608701359250608087013567ffffffffffffffff8082111561494457600080fd5b6149508a838b016144db565b935060a089013591508082111561496657600080fd5b5061497389828a016144db565b9150509295509295509295565b6000806000806080858703121561499657600080fd5b61499f8561445f565b935060208501359250604085013567ffffffffffffffff808211156149c357600080fd5b6149cf888389016144db565b935060608701359150808211156149e557600080fd5b506149f2878288016144db565b91505092959194509250565b6020808252601f908201527f5265656e7472616e637947756172643a207265656e7472616e742063616c6c00604082015260600190565b60e060020a634e487b7102600052603260045260246000fd5b6020808252818101527f4f776e61626c653a2063616c6c6572206973206e6f7420746865206f776e6572604082015260600190565b600060208284031215614a9557600080fd5b5051919050565b60208082526019908201527f6f6e6c79207265672078636861696e20656e64706f696e747300000000000000604082015260600190565b60005b83811015614aee578181015183820152602001614ad6565b838111156122695750506000910152565b60008251614b11818460208701614ad3565b9190910192915050565b6020808252601b908201527f6f6e6c79207265672078636861696e20636f6e74726f6c6c6572730000000000604082015260600190565b60e060020a634e487b7102600052601160045260246000fd5b6000600019821415614b7f57614b7f614b52565b5060010190565b60008219821115614b9957614b99614b52565b500190565b805160208201516bffffffffffffffffffffffff1980821692919060148310156117005760149290920360080260020a8202161692915050565b60008151808452614bf0816020860160208601614ad3565b601f01601f19169290920160200192915050565b600160a060020a0384168152606060208201526000614c266060830185614bd8565b9050826040830152949350505050565b6000816000190483118215151615614c5057614c50614b52565b500290565b600082614c755760e060020a634e487b7102600052601260045260246000fd5b500490565b805169ffffffffffffffffffff81168114611dc557600080fd5b600080600080600060a08688031215614cac57600080fd5b614cb586614c7a565b9450602086015193506040860151925060608601519150614cd860808701614c7a565b90509295509295909350565b6000610100808301600160a060020a03808d16855260208c818701528b60408701528a60608701528960808701528360a08701528293508854808452610120870194508960005281600020935060005b81811015614d52578454841686529482019460019485019401614d34565b50505050600160a060020a03861660c08501525090508260e08301529998505050505050505050565b600080600060608486031215614d9057600080fd5b8351925060208401519150604084015190509250925092565b600082821015614dbb57614dbb614b52565b500390565b600160a060020a0384168152606060208201526000614de26060830185614bd8565b90508215156040830152949350505050565b600060208284031215614e0657600080fd5b8151611ecb8161459b565b600061ffff80831681811415614e2957614e29614b52565b6001019392505050565b60e060020a634e487b7102600052603160045260246000fd5b600060ff821660ff811415614e6357614e63614b52565b60010192915050565b602081526000611ecb6020830184614bd856fea26469706673582212209b1ba499f830304d4cd5f750aca22eb15513834856bc21f893d77eccb653f12364736f6c634300080a0033",
  "immutableReferences": {},
  "source": "// SPDX-License-Identifier: MIT\n\npragma solidity ^0.8.0;\n\nimport \"./_ZorroControllerXChain.sol\";\n\n\ncontract ZorroControllerXChainEarn is ZorroControllerXChain {\n    /* Libraries */\n    using SafeMath for uint256;\n\n    // TODO: Make this a LayerZero call\n    /// @notice Sends a request to the remote chain to unlock and burn temporarily withheld USDC. To be called after a successful withdrawal\n    /// @dev Internal function, only to be called by receiveXChainRepatriationRequest()\n    /// @param _account The address of the wallet (cross chain identity) to unlock funds for\n    /// @param _amountUSDC The amount in USDC that should be unlocked and burned\n    /// @param _chainId The Zorro destination chain ID so that the request can be routed to the appropriate chain\n    /// @param _destinationContract The address of the contract on the remote chain to send the unlock request to\n    function _sendXChainUnlockRequest(\n        address _account,\n        uint256 _amountUSDC,\n        uint256 _chainId,\n        bytes memory _destinationContract\n    ) internal {\n        // TODO: Replace entire call with a LayerZero request to the other chain. Q: How to deal with uncertain fee calculations?\n        // Get endpoint contract\n        address _endpointContract = endpointContracts[_chainId];\n\n        // Prepare cross chain request\n        (bool success, bytes memory data) = _endpointContract.call(\n            abi.encodeWithSignature(\n                \"encodeUnlockRequest(address _account,uint256 _amountUSDC)\",\n                _account,\n                _amountUSDC\n            )\n        );\n        require(success, \"Unsuccessful serialize unlock\");\n        bytes memory _payload = abi.decode(data, (bytes));\n\n        // Call contract layer\n        (bool success1, ) = _endpointContract.call(\n            abi.encodeWithSignature(\n                \"sendXChainTransaction(bytes calldata _destinationContract,bytes calldata _payload)\",\n                _destinationContract,\n                _payload\n            )\n        );\n        // Require successful call\n        require(success1, \"Unsuccessful xchain unlock\");\n    }\n\n    // TODO This should be called from a LayerZero receiver\n    /// @notice Receives a request from home chain to unlock and burn temporarily withheld USDC.\n    /// @param _account The address of the wallet (cross chain identity) to unlock funds for\n    /// @param _amountUSDC The amount in USDC that should be unlocked and burned\n    function receiveXChainUnlockRequest(\n        address _account,\n        uint256 _amountUSDC,\n        bytes memory _xChainOrigin,\n        bytes memory _xChainSender\n    ) external onlyXChainEndpoints onlyXChainZorroControllers(_xChainSender) {\n        // // Get controller\n        // TokenLockController lockController = TokenLockController(\n        //     lockUSDCController\n        // );\n        // // Unlock user funds & burn\n        // lockController.unlockFunds(_account, _amountUSDC, burnAddress);\n    }\n\n    /* Earnings/Distribution */\n\n    /// @notice Prepares and sends an earnings distribution request cross-chain (back to the home chain)\n    /// @param _pid The pool ID associated with the vault which experienced earnings\n    /// @param _buybackAmountUSDC The amount of USDC to buyback\n    /// @param _revShareAmountUSDC The amount of USDC to share as revenue to the ZOR staking vault\n    function distributeEarningsXChain(\n        uint256 _pid,\n        uint256 _buybackAmountUSDC,\n        uint256 _revShareAmountUSDC\n    ) public onlyRegisteredVault(_pid) {\n        /* \n        TODO Convert this to a LayerZero call\n\n        // Check lock to see if anything is pending for this block and pool. If so, revert\n        require(\n            lockedEarningsStatus[block.number][_pid] == 0,\n            \"Xchain earnings lock pending\"\n        );\n\n        // Lock USDC on a ledger for this block and pid, with status of pending\n        uint256 _amountUSDC = IERC20(defaultStablecoin).balanceOf(\n            address(this)\n        );\n        TokenLockController(lockUSDCController).lockFunds(\n            address(this),\n            _amountUSDC\n        );\n        lockedEarningsStatus[block.number][_pid] = 1;\n\n        // Fetch xchain endpoint for home chain\n        XChainEndpoint xChainEndpoint = XChainEndpoint(\n            endpointContracts[homeChainId]\n        );\n\n        // Construct payload\n        bytes memory _payload = abi.encodeWithSignature(\n            \"receiveXChainDistributionRequest(uint256 _chainId,bytes _callbackContract,uint256 _amountUSDCBuyback,uint256 _amountUSDCRevShare,uint256 _failedAmountUSDCBuyback,uint256 _failedAmountUSDCRevShare)\",\n            chainId,\n            abi.encode(address(this)),\n            _buybackAmountUSDC,\n            _revShareAmountUSDC,\n            failedLockedBuybackUSDC,\n            failedLockedRevShareUSDC\n        );\n\n        // Call?\n\n        */\n    }\n\n    /// @notice Receives an authorized request from remote chains to perform earnings fee distribution events, such as: buyback + LP + burn, and revenue share\n    /// @param _chainId The ID of the chain that this request originated from\n    /// @param _callbackContract Address of destination contract in bytes for the callback\n    /// @param _amountUSDCBuyback The amount in USDC that should be minted for LP + burn\n    /// @param _amountUSDCRevShare The amount in USDC that should be minted for revenue sharing with ZOR stakers\n    /// @param _failedAmountUSDCBuyback The previously failed buyback amount that is being retried\n    /// @param _failedAmountUSDCRevShare The previously failed revshare amount that is being retried\n    /// @param _xChainOrigin Address of the original sender (in bytes) on the remote chain (equiv to tx.origin). Injected by endpoint contract after verifying proof\n    function receiveXChainDistributionRequest(\n        uint256 _chainId,\n        bytes calldata _callbackContract,\n        uint256 _amountUSDCBuyback,\n        uint256 _amountUSDCRevShare,\n        uint256 _failedAmountUSDCBuyback,\n        uint256 _failedAmountUSDCRevShare,\n        bytes memory _xChainOrigin,\n        bytes memory _xChainSender\n    ) external onlyXChainEndpoints onlyXChainZorroControllers(_xChainSender) {\n        // Make Chainlink request to get ZOR price\n        // TODO: Don't do a Chainlink direct request. Use price feeds instead (i.e. no need for a callback func so merge its contents here)\n        // Chainlink.Request memory req = buildChainlinkRequest(\n        //     zorroControllerOraclePriceJobId,\n        //     address(this),\n        //     this.buybackAndRevShareCallback.selector\n        // );\n        // req.addBytes(\"chainId\", abi.encodePacked(_chainId));\n        // req.addBytes(\"callbackContract\", abi.encodePacked(_callbackContract));\n        // req.addBytes(\"amountUSDCBuyback\", abi.encodePacked(_amountUSDCBuyback));\n        // req.addBytes(\n        //     \"amountUSDCRevShare\",\n        //     abi.encodePacked(_amountUSDCRevShare)\n        // );\n        // req.addBytes(\n        //     \"failedAmountUSDCBuyback\",\n        //     abi.encodePacked(_failedAmountUSDCBuyback)\n        // );\n        // req.addBytes(\n        //     \"failedAmountUSDCRevShare\",\n        //     abi.encodePacked(_failedAmountUSDCRevShare)\n        // );\n        // sendChainlinkRequestTo(\n        //     zorroControllerOracle,\n        //     req,\n        //     zorroControllerOracleFee\n        // );\n    }\n\n    /// @notice Receives cross chain request for burning any temporarily locked funds for earnings\n    /// @param _amountUSDCBuyback The amount in USDC that was bought back\n    /// @param _amountUSDCRevShare The amount in USDC that was rev-shared\n    /// @param _failedAmountUSDCBuyback The previously failed buyback amount that was successfully retried\n    /// @param _failedAmountUSDCRevShare The previously failed revshare amount that was successfully retried\n    /// @param _xChainOrigin Address of the original sender (in bytes) on the remote chain (equiv to tx.origin). Injected by endpoint contract after verifying proof\n    function receiveBurnLockedEarningsRequest(\n        uint256 _amountUSDCBuyback,\n        uint256 _amountUSDCRevShare,\n        uint256 _failedAmountUSDCBuyback,\n        uint256 _failedAmountUSDCRevShare,\n        bytes memory _xChainOrigin,\n        bytes memory _xChainSender\n    ) external onlyXChainEndpoints onlyXChainZorroControllers(_xChainSender) {\n        // TODO: We can probably get rid of this entire function\n        // Calculate total amount to unlock and burn\n        uint256 _totalBurnableUSDC = _amountUSDCBuyback\n            .add(_amountUSDCRevShare)\n            .add(_failedAmountUSDCBuyback)\n            .add(_failedAmountUSDCRevShare);\n        // Unlock + burn\n        // TokenLockController(lockUSDCController).unlockFunds(\n        //     address(this),\n        //     _totalBurnableUSDC,\n        //     burnAddress\n        // );\n        // Decrement any failed amounts\n        failedLockedBuybackUSDC = failedLockedBuybackUSDC.sub(\n            _failedAmountUSDCBuyback\n        );\n        failedLockedRevShareUSDC = failedLockedRevShareUSDC.sub(\n            _failedAmountUSDCRevShare\n        );\n    }\n\n    // TODO: Ledger system in case this fails?\n    /// @notice Receives an authorized request from remote chains to perform earnings fee distribution events, such as: buyback + LP + burn, and revenue share\n    /// @dev Can only be called by the Chainlink Oracle\n    /// @param _chainId The ID of the chain that this request originated from\n    /// @param _callbackContract Address of destination contract in bytes for the callback\n    /// @param _amountUSDCBuyback The amount in USDC that should be minted for LP + burn\n    /// @param _amountUSDCRevShare The amount in USDC that should be minted for revenue sharing with ZOR stakers\n    /// @param _failedAmountUSDCBuyback The previously failed buyback amount that is being retried\n    /// @param _failedAmountUSDCRevShare The previously failed revshare amount that is being retried\n    /// @param _ZORROExchangeRate ZOR per USD, times 1e12\n    function buybackAndRevShareCallback(\n        uint256 _chainId,\n        bytes calldata _callbackContract,\n        uint256 _amountUSDCBuyback,\n        uint256 _amountUSDCRevShare,\n        uint256 _failedAmountUSDCBuyback,\n        uint256 _failedAmountUSDCRevShare,\n        uint256 _ZORROExchangeRate\n    ) external onlyAllowZorroControllerOracle {\n        // Total USDC to perform operations\n        // TODO: How do failed amounts come into play here? Will we even have failures now?\n        uint256 _amountUSDC = _amountUSDCBuyback\n            .add(_amountUSDCRevShare)\n            .add(_failedAmountUSDCBuyback)\n            .add(_failedAmountUSDCRevShare);\n\n        // Determine new USDC balances\n        uint256 _balUSDC = IERC20(defaultStablecoin).balanceOf(address(this));\n\n        /* Buyback */\n        uint256 _buybackAmount = _balUSDC\n            .mul(_amountUSDCBuyback.add(_failedAmountUSDCBuyback))\n            .div(_amountUSDC);\n        _buybackOnChain(_buybackAmount, _ZORROExchangeRate);\n\n        /* Rev share */\n        uint256 _revShareAmount = _balUSDC.sub(_buybackAmount);\n        _revShareOnChain(_revShareAmount, _ZORROExchangeRate);\n\n        // Send cross chain burn request back to the remote chain\n        /* \n        TODO: Convert to LayerZero call\n\n        XChainEndpoint endpointContract = XChainEndpoint(\n            endpointContracts[_chainId]\n        );\n        bytes memory _payload = abi.encodeWithSignature(\n            \"receiveBurnLockedEarningsRequest(uint256 _amountUSDCBuyback,uint256 _amountUSDCRevShare,uint256 _failedAmountUSDCBuyback,uint256 _failedAmountUSDCRevShare)\",\n            _amountUSDCBuyback,\n            _amountUSDCRevShare,\n            _failedAmountUSDCBuyback,\n            _failedAmountUSDCRevShare\n        );\n        endpointContract.sendXChainTransaction(_callbackContract, _payload, \"\");\n        */\n    }\n}",
  "sourcePath": "/Users/kristophm/Documents/workspace/zorro-protocol/contracts/controllers/_ZorroControllerXChainEarn.sol",
  "compiler": {
    "name": "solc",
    "version": "0.8.10+commit.fc410830.Emscripten.clang"
  },
  "schemaVersion": "3.4.4",
  "updatedAt": "2022-04-03T19:29:48.394Z",
  "devdoc": {
    "kind": "dev",
    "methods": {
      "buybackAndRevShareCallback(uint256,bytes,uint256,uint256,uint256,uint256,uint256)": {
        "details": "Can only be called by the Chainlink Oracle",
        "params": {
          "_ZORROExchangeRate": "ZOR per USD, times 1e12",
          "_amountUSDCBuyback": "The amount in USDC that should be minted for LP + burn",
          "_amountUSDCRevShare": "The amount in USDC that should be minted for revenue sharing with ZOR stakers",
          "_callbackContract": "Address of destination contract in bytes for the callback",
          "_chainId": "The ID of the chain that this request originated from",
          "_failedAmountUSDCBuyback": "The previously failed buyback amount that is being retried",
          "_failedAmountUSDCRevShare": "The previously failed revshare amount that is being retried"
        }
      },
      "deposit(uint256,uint256,uint256)": {
        "params": {
          "_pid": "index of pool",
          "_wantAmt": "how much Want token to deposit",
          "_weeksCommitted": "how many weeks the user is committing to on this vault"
        }
      },
      "depositFullService(uint256,uint256,uint256,uint256)": {
        "params": {
          "_maxMarketMovement": "factor to account for max market movement/slippage. The definition varies by Vault, so consult the associated Vault contract for info",
          "_pid": "index of pool to deposit into",
          "_valueUSDC": "value in USDC (in ether units) to deposit",
          "_weeksCommitted": "how many weeks to commit to the Pool (can be 0 or any uint)"
        }
      },
      "distributeEarningsXChain(uint256,uint256,uint256)": {
        "params": {
          "_buybackAmountUSDC": "The amount of USDC to buyback",
          "_pid": "The pool ID associated with the vault which experienced earnings",
          "_revShareAmountUSDC": "The amount of USDC to share as revenue to the ZOR staking vault"
        }
      },
      "getTimeMultiplier(uint256)": {
        "params": {
          "durationInWeeks": "number of weeks committed into Vault"
        },
        "returns": {
          "_0": "multiplier factor, times 1e12"
        }
      },
      "getUserContribution(uint256,uint256)": {
        "params": {
          "_liquidityCommitted": "How many tokens staked (e.g. LP tokens)",
          "_timeMultiplier": "Time multiplier value (from getTimeMultiplier())"
        },
        "returns": {
          "_0": "The relative contribution of the user (unitless)"
        }
      },
      "inCaseTokensGetStuck(address,uint256)": {
        "details": "Does not permit usage for the Zorro token",
        "params": {
          "_amount": "token quantity",
          "_token": "ERC20 token address"
        }
      },
      "owner()": {
        "details": "Returns the address of the current owner."
      },
      "poolLength()": {
        "returns": {
          "_0": "Number of pools"
        }
      },
      "receiveBurnLockedEarningsRequest(uint256,uint256,uint256,uint256,bytes,bytes)": {
        "params": {
          "_amountUSDCBuyback": "The amount in USDC that was bought back",
          "_amountUSDCRevShare": "The amount in USDC that was rev-shared",
          "_failedAmountUSDCBuyback": "The previously failed buyback amount that was successfully retried",
          "_failedAmountUSDCRevShare": "The previously failed revshare amount that was successfully retried",
          "_xChainOrigin": "Address of the original sender (in bytes) on the remote chain (equiv to tx.origin). Injected by endpoint contract after verifying proof"
        }
      },
      "receiveXChainDistributionRequest(uint256,bytes,uint256,uint256,uint256,uint256,bytes,bytes)": {
        "params": {
          "_amountUSDCBuyback": "The amount in USDC that should be minted for LP + burn",
          "_amountUSDCRevShare": "The amount in USDC that should be minted for revenue sharing with ZOR stakers",
          "_callbackContract": "Address of destination contract in bytes for the callback",
          "_chainId": "The ID of the chain that this request originated from",
          "_failedAmountUSDCBuyback": "The previously failed buyback amount that is being retried",
          "_failedAmountUSDCRevShare": "The previously failed revshare amount that is being retried",
          "_xChainOrigin": "Address of the original sender (in bytes) on the remote chain (equiv to tx.origin). Injected by endpoint contract after verifying proof"
        }
      },
      "receiveXChainUnlockRequest(address,uint256,bytes,bytes)": {
        "params": {
          "_account": "The address of the wallet (cross chain identity) to unlock funds for",
          "_amountUSDC": "The amount in USDC that should be unlocked and burned"
        }
      },
      "renounceOwnership()": {
        "details": "Leaves the contract without owner. It will not be possible to call `onlyOwner` functions anymore. Can only be called by the current owner. NOTE: Renouncing ownership will leave the contract without an owner, thereby removing any functionality that is only available to the owner."
      },
      "setZorroPerBlock(uint256,uint256,uint256,uint256,uint256)": {
        "details": "Values to be provided by Oracle. Perferable to run daily",
        "params": {
          "_ZorroTotalVaultTVLUSD": "USD value of all TVL locked into the Zorro protocol, across all chains",
          "_publicPoolZORBalance": "Number of ZOR tokens remaining in public pool on home chain",
          "_targetTVLCaptureBasisPoints": "% desired capture of total market TVL, measured in basis points",
          "_totalChainMultipliers": "Sum total of all chain multipliers for each chain",
          "_totalMarketTVLUSD": "Total DeFi market TVL across all chains (measured in USD)"
        }
      },
      "trancheLength(uint256,address)": {
        "params": {
          "_pid": "Index of pool",
          "_user": "wallet address of user"
        },
        "returns": {
          "_0": "Number of tranches"
        }
      },
      "transferInvestment(uint256,uint256,uint256,uint256)": {
        "params": {
          "_fromPid": "index of pool FROM",
          "_fromTrancheId": "index of tranche FROM",
          "_maxMarketMovement": "factor to account for max market movement/slippage. The definition varies by Vault, so consult the associated Vault contract for info",
          "_toPid": "index of pool TO"
        }
      },
      "transferOwnership(address)": {
        "details": "Transfers ownership of the contract to a new account (`newOwner`). Can only be called by the current owner."
      },
      "updatePool(uint256)": {
        "params": {
          "_pid": "index of pool"
        },
        "returns": {
          "_0": "uint256 Amount of ZOR rewards minted (useful for cross chain)"
        }
      },
      "withdraw(uint256,uint256,bool)": {
        "params": {
          "_harvestOnly": "If true, will only harvest Zorro tokens but not do a withdrawal",
          "_pid": "index of pool",
          "_trancheId": "index of tranche"
        },
        "returns": {
          "_0": "Amount of Want token withdrawn"
        }
      },
      "withdrawAll(uint256)": {
        "params": {
          "_pid": "index of pool"
        }
      },
      "withdrawalFullService(uint256,uint256,bool,uint256)": {
        "params": {
          "_harvestOnly": "If true, will only harvest Zorro tokens but not do a withdrawal",
          "_maxMarketMovement": "factor to account for max market movement/slippage. The definition varies by Vault, so consult the associated Vault contract for info",
          "_pid": "index of pool to deposit into",
          "_trancheId": "index of tranche"
        },
        "returns": {
          "_0": "Amount (in USDC) returned"
        }
      }
    },
    "version": 1
  },
  "userdoc": {
    "kind": "user",
    "methods": {
      "buybackAndRevShareCallback(uint256,bytes,uint256,uint256,uint256,uint256,uint256)": {
        "notice": "Receives an authorized request from remote chains to perform earnings fee distribution events, such as: buyback + LP + burn, and revenue share"
      },
      "deposit(uint256,uint256,uint256)": {
        "notice": "Deposit Want tokens to associated Vault"
      },
      "depositFullService(uint256,uint256,uint256,uint256)": {
        "notice": "Deposits funds in a full service manner (performs autoswaps and obtains Want tokens)"
      },
      "distributeEarningsXChain(uint256,uint256,uint256)": {
        "notice": "Prepares and sends an earnings distribution request cross-chain (back to the home chain)"
      },
      "getTimeMultiplier(uint256)": {
        "notice": "Calculate time multiplier based on duration committed"
      },
      "getUserContribution(uint256,uint256)": {
        "notice": "The contribution of the user, meant to be used in rewards allocations"
      },
      "inCaseTokensGetStuck(address,uint256)": {
        "notice": "For owner to recover ERC20 tokens on this contract if stuck"
      },
      "poolLength()": {
        "notice": "Number of pools in the Zorro protocol"
      },
      "receiveBurnLockedEarningsRequest(uint256,uint256,uint256,uint256,bytes,bytes)": {
        "notice": "Receives cross chain request for burning any temporarily locked funds for earnings"
      },
      "receiveXChainDistributionRequest(uint256,bytes,uint256,uint256,uint256,uint256,bytes,bytes)": {
        "notice": "Receives an authorized request from remote chains to perform earnings fee distribution events, such as: buyback + LP + burn, and revenue share"
      },
      "receiveXChainUnlockRequest(address,uint256,bytes,bytes)": {
        "notice": "Receives a request from home chain to unlock and burn temporarily withheld USDC."
      },
      "setZorroPerBlock(uint256,uint256,uint256,uint256,uint256)": {
        "notice": "Set the number of Zorro to emit per block based on current market parameters"
      },
      "trancheLength(uint256,address)": {
        "notice": "Number of tranches invested by a given user into a given pool"
      },
      "transferInvestment(uint256,uint256,uint256,uint256)": {
        "notice": "Transfer all assets from a tranche in one vault to a new vault (works on-chain only)"
      },
      "updatePool(uint256)": {
        "notice": "Update reward variables of the given pool to be up-to-date."
      },
      "withdraw(uint256,uint256,bool)": {
        "notice": "Fully withdraw Want tokens from underlying Vault."
      },
      "withdrawAll(uint256)": {
        "notice": "Withdraw the maximum number of Want tokens from a pool"
      },
      "withdrawalFullService(uint256,uint256,bool,uint256)": {
        "notice": "Withdraws funds from a pool and converts the Want token into USDC"
      }
    },
    "version": 1
  }
}