{
  "contractName": "ZorroControllerXChainBase",
  "abi": [
    {
      "anonymous": false,
      "inputs": [
        {
          "indexed": true,
          "internalType": "address",
          "name": "previousOwner",
          "type": "address"
        },
        {
          "indexed": true,
          "internalType": "address",
          "name": "newOwner",
          "type": "address"
        }
      ],
      "name": "OwnershipTransferred",
      "type": "event"
    },
    {
      "inputs": [
        {
          "internalType": "uint16",
          "name": "",
          "type": "uint16"
        }
      ],
      "name": "LZChainToZorroMap",
      "outputs": [
        {
          "internalType": "uint256",
          "name": "",
          "type": "uint256"
        }
      ],
      "stateMutability": "view",
      "type": "function"
    },
    {
      "inputs": [],
      "name": "ZORRO",
      "outputs": [
        {
          "internalType": "address",
          "name": "",
          "type": "address"
        }
      ],
      "stateMutability": "view",
      "type": "function"
    },
    {
      "inputs": [
        {
          "internalType": "uint256",
          "name": "",
          "type": "uint256"
        }
      ],
      "name": "ZorroChainToLZMap",
      "outputs": [
        {
          "internalType": "uint16",
          "name": "",
          "type": "uint16"
        }
      ],
      "stateMutability": "view",
      "type": "function"
    },
    {
      "inputs": [],
      "name": "chainId",
      "outputs": [
        {
          "internalType": "uint256",
          "name": "",
          "type": "uint256"
        }
      ],
      "stateMutability": "view",
      "type": "function"
    },
    {
      "inputs": [
        {
          "internalType": "uint256",
          "name": "",
          "type": "uint256"
        }
      ],
      "name": "chainTypes",
      "outputs": [
        {
          "internalType": "uint256",
          "name": "",
          "type": "uint256"
        }
      ],
      "stateMutability": "view",
      "type": "function"
    },
    {
      "inputs": [
        {
          "internalType": "uint256",
          "name": "",
          "type": "uint256"
        }
      ],
      "name": "controllerContractsMap",
      "outputs": [
        {
          "internalType": "bytes",
          "name": "",
          "type": "bytes"
        }
      ],
      "stateMutability": "view",
      "type": "function"
    },
    {
      "inputs": [],
      "name": "currentChainController",
      "outputs": [
        {
          "internalType": "address",
          "name": "",
          "type": "address"
        }
      ],
      "stateMutability": "view",
      "type": "function"
    },
    {
      "inputs": [],
      "name": "defaultStablecoin",
      "outputs": [
        {
          "internalType": "address",
          "name": "",
          "type": "address"
        }
      ],
      "stateMutability": "view",
      "type": "function"
    },
    {
      "inputs": [],
      "name": "homeChainId",
      "outputs": [
        {
          "internalType": "uint256",
          "name": "",
          "type": "uint256"
        }
      ],
      "stateMutability": "view",
      "type": "function"
    },
    {
      "inputs": [],
      "name": "homeChainZorroController",
      "outputs": [
        {
          "internalType": "address",
          "name": "",
          "type": "address"
        }
      ],
      "stateMutability": "view",
      "type": "function"
    },
    {
      "inputs": [],
      "name": "layerZeroEndpoint",
      "outputs": [
        {
          "internalType": "address",
          "name": "",
          "type": "address"
        }
      ],
      "stateMutability": "view",
      "type": "function"
    },
    {
      "inputs": [],
      "name": "owner",
      "outputs": [
        {
          "internalType": "address",
          "name": "",
          "type": "address"
        }
      ],
      "stateMutability": "view",
      "type": "function"
    },
    {
      "inputs": [],
      "name": "publicPool",
      "outputs": [
        {
          "internalType": "address",
          "name": "",
          "type": "address"
        }
      ],
      "stateMutability": "view",
      "type": "function"
    },
    {
      "inputs": [],
      "name": "renounceOwnership",
      "outputs": [],
      "stateMutability": "nonpayable",
      "type": "function"
    },
    {
      "inputs": [
        {
          "internalType": "uint256",
          "name": "",
          "type": "uint256"
        }
      ],
      "name": "stargateDestPoolIds",
      "outputs": [
        {
          "internalType": "uint256",
          "name": "",
          "type": "uint256"
        }
      ],
      "stateMutability": "view",
      "type": "function"
    },
    {
      "inputs": [],
      "name": "stargateRouter",
      "outputs": [
        {
          "internalType": "address",
          "name": "",
          "type": "address"
        }
      ],
      "stateMutability": "view",
      "type": "function"
    },
    {
      "inputs": [],
      "name": "stargateSwapPoolId",
      "outputs": [
        {
          "internalType": "uint256",
          "name": "",
          "type": "uint256"
        }
      ],
      "stateMutability": "view",
      "type": "function"
    },
    {
      "inputs": [
        {
          "internalType": "address",
          "name": "newOwner",
          "type": "address"
        }
      ],
      "name": "transferOwnership",
      "outputs": [],
      "stateMutability": "nonpayable",
      "type": "function"
    },
    {
      "inputs": [
        {
          "internalType": "address[]",
          "name": "_tokens",
          "type": "address[]"
        }
      ],
      "name": "setTokens",
      "outputs": [],
      "stateMutability": "nonpayable",
      "type": "function"
    },
    {
      "inputs": [
        {
          "internalType": "address[]",
          "name": "_contracts",
          "type": "address[]"
        }
      ],
      "name": "setKeyContracts",
      "outputs": [],
      "stateMutability": "nonpayable",
      "type": "function"
    },
    {
      "inputs": [
        {
          "internalType": "uint256[]",
          "name": "_chainIds",
          "type": "uint256[]"
        }
      ],
      "name": "setChains",
      "outputs": [],
      "stateMutability": "nonpayable",
      "type": "function"
    },
    {
      "inputs": [
        {
          "internalType": "uint256",
          "name": "_zorroChainId",
          "type": "uint256"
        },
        {
          "internalType": "bytes",
          "name": "_controller",
          "type": "bytes"
        }
      ],
      "name": "setControllerContract",
      "outputs": [],
      "stateMutability": "nonpayable",
      "type": "function"
    },
    {
      "inputs": [
        {
          "internalType": "uint256",
          "name": "_zorroChainId",
          "type": "uint256"
        },
        {
          "internalType": "uint16",
          "name": "_lzChainId",
          "type": "uint16"
        }
      ],
      "name": "setZorroChainToLZMap",
      "outputs": [],
      "stateMutability": "nonpayable",
      "type": "function"
    },
    {
      "inputs": [
        {
          "internalType": "uint256",
          "name": "_zorroChainId",
          "type": "uint256"
        },
        {
          "internalType": "uint16",
          "name": "_stargatePoolId",
          "type": "uint16"
        }
      ],
      "name": "setStargateDestPoolIds",
      "outputs": [],
      "stateMutability": "nonpayable",
      "type": "function"
    },
    {
      "inputs": [
        {
          "internalType": "address",
          "name": "_stargateRouter",
          "type": "address"
        },
        {
          "internalType": "uint256",
          "name": "_stargateSwapPoolId",
          "type": "uint256"
        },
        {
          "internalType": "address",
          "name": "_layerZeroEndpoint",
          "type": "address"
        }
      ],
      "name": "setLayerZeroParams",
      "outputs": [],
      "stateMutability": "nonpayable",
      "type": "function"
    },
    {
      "inputs": [
        {
          "internalType": "uint256",
          "name": "_zorroChainId",
          "type": "uint256"
        },
        {
          "internalType": "uint256",
          "name": "_chainType",
          "type": "uint256"
        }
      ],
      "name": "setChainType",
      "outputs": [],
      "stateMutability": "nonpayable",
      "type": "function"
    }
  ],
  "bytecode": "0x608060405234801561001057600080fd5b50610d12806100206000396000f3fe608060405234801561001057600080fd5b506004361061018e5760003560e01c80637bd45522116100de5780639a8a059211610097578063cd01af4811610071578063cd01af4814610399578063ef126967146103ac578063f2fde38b146103b5578063fc39a29e146103c857600080fd5b80639a8a05921461036a578063a9e56f3c14610373578063b61bb80a1461038657600080fd5b80637bd45522146102ed5780637f633ea8146103005780638b5694d6146103135780638c157db2146103265780638d6ffd6a146103395780638da5cb5b1461035957600080fd5b8063459f47531161014b578063593af9fe11610125578063593af9fe1461029f578063625adaf2146102bf578063668ababb146102d2578063715018a6146102e557600080fd5b8063459f47531461024c5780634bf76174146102835780635790f5991461029657600080fd5b806307968db1146101935780630a34e1a4146101c357806313a2e880146101d857806315230ae6146101eb578063219b38b8146101fe578063293da9d41461022c575b600080fd5b609a546101a6906001600160a01b031681565b6040516001600160a01b0390911681526020015b60405180910390f35b6101d66101d13660046109e9565b6103db565b005b6101d66101e6366004610a0b565b610420565b60a2546101a6906001600160a01b031681565b61021e61020c366004610a87565b60996020526000908152604090205481565b6040519081526020016101ba565b61021e61023a366004610ab7565b609d6020526000908152604090205481565b61027061025a366004610a87565b609c6020526000908152604090205461ffff1681565b60405161ffff90911681526020016101ba565b6101d6610291366004610b25565b610469565b61021e60985481565b6102b26102ad366004610a87565b61056f565b6040516101ba9190610b67565b6101d66102cd366004610b25565b610609565b60a3546101a6906001600160a01b031681565b6101d66106c7565b6101d66102fb366004610bd3565b6106fd565b6101d661030e366004610c0f565b61075b565b6101d6610321366004610c0f565b6107b4565b60a0546101a6906001600160a01b031681565b61021e610347366004610a87565b609e6020526000908152604090205481565b6033546001600160a01b03166101a6565b61021e60a45481565b6097546101a6906001600160a01b031681565b609f546101a6906001600160a01b031681565b6101d66103a7366004610b25565b6107f7565b61021e60a55481565b6101d66103c3366004610c3b565b610863565b60a1546101a6906001600160a01b031681565b6033546001600160a01b0316331461040e5760405162461bcd60e51b815260040161040590610c56565b60405180910390fd5b6000918252609e602052604090912055565b6033546001600160a01b0316331461044a5760405162461bcd60e51b815260040161040590610c56565b6000838152609b60205260409020610463908383610950565b50505050565b6033546001600160a01b031633146104935760405162461bcd60e51b815260040161040590610c56565b818160008181106104a6576104a6610c8b565b90506020020160208101906104bb9190610c3b565b60a180546001600160a01b0319166001600160a01b0392909216919091179055818160018181106104ee576104ee610c8b565b90506020020160208101906105039190610c3b565b60a280546001600160a01b0319166001600160a01b03929092169190911790558181600281811061053657610536610c8b565b905060200201602081019061054b9190610c3b565b60a380546001600160a01b0319166001600160a01b03929092169190911790555050565b609b602052600090815260409020805461058890610ca1565b80601f01602080910402602001604051908101604052809291908181526020018280546105b490610ca1565b80156106015780601f106105d657610100808354040283529160200191610601565b820191906000526020600020905b8154815290600101906020018083116105e457829003601f168201915b505050505081565b6033546001600160a01b031633146106335760405162461bcd60e51b815260040161040590610c56565b8181600081811061064657610646610c8b565b905060200201602081019061065b9190610c3b565b609f80546001600160a01b0319166001600160a01b03929092169190911790558181600181811061068e5761068e610c8b565b90506020020160208101906106a39190610c3b565b60a080546001600160a01b0319166001600160a01b03929092169190911790555050565b6033546001600160a01b031633146106f15760405162461bcd60e51b815260040161040590610c56565b6106fb60006108fe565b565b6033546001600160a01b031633146107275760405162461bcd60e51b815260040161040590610c56565b609780546001600160a01b039485166001600160a01b031991821617909155609892909255609a8054919093169116179055565b6033546001600160a01b031633146107855760405162461bcd60e51b815260040161040590610c56565b6000828152609c60209081526040808320805461ffff90951661ffff1990951685179055928252609d90522055565b6033546001600160a01b031633146107de5760405162461bcd60e51b815260040161040590610c56565b60009182526099602052604090912061ffff9091169055565b6033546001600160a01b031633146108215760405162461bcd60e51b815260040161040590610c56565b8181600081811061083457610834610c8b565b602002919091013560a455508181600181811061085357610853610c8b565b602002919091013560a555505050565b6033546001600160a01b0316331461088d5760405162461bcd60e51b815260040161040590610c56565b6001600160a01b0381166108f25760405162461bcd60e51b815260206004820152602660248201527f4f776e61626c653a206e6577206f776e657220697320746865207a65726f206160448201526564647265737360d01b6064820152608401610405565b6108fb816108fe565b50565b603380546001600160a01b038381166001600160a01b0319831681179093556040519116919082907f8be0079c531659141344cd1fd0a4f28419497f9722a3daafe3b4186f6b6457e090600090a35050565b82805461095c90610ca1565b90600052602060002090601f01602090048101928261097e57600085556109c4565b82601f106109975782800160ff198235161785556109c4565b828001600101855582156109c4579182015b828111156109c45782358255916020019190600101906109a9565b506109d09291506109d4565b5090565b5b808211156109d057600081556001016109d5565b600080604083850312156109fc57600080fd5b50508035926020909101359150565b600080600060408486031215610a2057600080fd5b83359250602084013567ffffffffffffffff80821115610a3f57600080fd5b818601915086601f830112610a5357600080fd5b813581811115610a6257600080fd5b876020828501011115610a7457600080fd5b6020830194508093505050509250925092565b600060208284031215610a9957600080fd5b5035919050565b803561ffff81168114610ab257600080fd5b919050565b600060208284031215610ac957600080fd5b610ad282610aa0565b9392505050565b60008083601f840112610aeb57600080fd5b50813567ffffffffffffffff811115610b0357600080fd5b6020830191508360208260051b8501011115610b1e57600080fd5b9250929050565b60008060208385031215610b3857600080fd5b823567ffffffffffffffff811115610b4f57600080fd5b610b5b85828601610ad9565b90969095509350505050565b600060208083528351808285015260005b81811015610b9457858101830151858201604001528201610b78565b81811115610ba6576000604083870101525b50601f01601f1916929092016040019392505050565b80356001600160a01b0381168114610ab257600080fd5b600080600060608486031215610be857600080fd5b610bf184610bbc565b925060208401359150610c0660408501610bbc565b90509250925092565b60008060408385031215610c2257600080fd5b82359150610c3260208401610aa0565b90509250929050565b600060208284031215610c4d57600080fd5b610ad282610bbc565b6020808252818101527f4f776e61626c653a2063616c6c6572206973206e6f7420746865206f776e6572604082015260600190565b634e487b7160e01b600052603260045260246000fd5b600181811c90821680610cb557607f821691505b60208210811415610cd657634e487b7160e01b600052602260045260246000fd5b5091905056fea26469706673582212208571a7abbe29d9b539bcc1656964d059401849b4ddeb13228208d78350ba153164736f6c634300080a0033",
  "immutableReferences": {},
  "source": "// SPDX-License-Identifier: MIT\n\npragma solidity ^0.8.0;\n\nimport \"./_ZorroControllerInvestment.sol\";\n\nimport \"../interfaces/IAMMRouter02.sol\";\n\nimport \"../interfaces/IVault.sol\";\n\nimport \"../libraries/SafeSwap.sol\";\n\nimport \"../interfaces/ILayerZeroEndpoint.sol\";\n\nimport \"../interfaces/IStargateRouter.sol\";\n\nimport \"../interfaces/IZorroControllerXChain.sol\";\n\nimport \"@openzeppelin/contracts-upgradeable/access/OwnableUpgradeable.sol\";\n\nimport \"@openzeppelin/contracts-upgradeable/security/ReentrancyGuardUpgradeable.sol\";\n\ncontract ZorroControllerXChainBase is\n    IZorroControllerXChainBase,\n    OwnableUpgradeable,\n    ReentrancyGuardUpgradeable\n{\n    /* Libraries */\n    using SafeMathUpgradeable for uint256;\n    using SafeERC20Upgradeable for IERC20Upgradeable;\n\n    /* Structs */\n\n    // Stargate swaps\n    struct StargateSwapPayload {\n        uint256 chainId;\n        uint256 qty;\n        bytes dstContract;\n        bytes payload;\n        uint256 maxMarketMovement;\n    }\n\n    // LayerZero messages\n    struct LZMessagePayload {\n        uint256 zorroChainId;\n        bytes destinationContract;\n        bytes payload;\n        address payable refundAddress;\n        address _zroPaymentAddress;\n        bytes adapterParams;\n    }\n\n    /* State */\n\n    // Stargate/LZ\n    address public stargateRouter; // Address to on-chain Stargate router\n    uint256 public stargateSwapPoolId; // Address of the pool to swap from on this contract\n    mapping(uint256 => uint256) public stargateDestPoolIds; // Mapping from Zorro chain ID to Stargate dest Pool for the same token\n    address public layerZeroEndpoint; // Address to on-chain LayerZero endpoint\n    // Chain maps\n    mapping(uint256 => bytes) public controllerContractsMap; // Mapping of Zorro chain ID to endpoint contract\n    mapping(uint256 => uint16) public ZorroChainToLZMap; // Mapping of Zorro Chain ID to Stargate/LayerZero Chain ID\n    mapping(uint16 => uint256) public LZChainToZorroMap; // Mapping of Stargate/LayerZero Chain ID to Zorro Chain ID\n    mapping(uint256 => uint256) public chainTypes; // Mapping of Zorro Chain ID to chain type. 0: EVM, 1: Solana\n    // Tokens\n    address public defaultStablecoin;\n    address public ZORRO;\n    // Contracts\n    address public homeChainZorroController;\n    address public currentChainController; // TODO: need constructor, setter\n    address public publicPool;\n    // Chain config\n    uint256 public chainId;\n    uint256 public homeChainId;\n\n    /* Setters */\n\n    function setTokens(address[] calldata _tokens) external onlyOwner {\n        defaultStablecoin = _tokens[0];\n        ZORRO = _tokens[1];\n    }\n\n    function setKeyContracts(address[] calldata _contracts) external onlyOwner {\n        homeChainZorroController = _contracts[0];\n        currentChainController = _contracts[1];\n        publicPool = _contracts[2];\n    }\n\n    function setChains(uint256[] calldata _chainIds) external onlyOwner {\n        chainId = _chainIds[0];\n        homeChainId = _chainIds[1];\n    }\n\n    /// @notice Setter: Controller contract for each chain\n    /// @param _zorroChainId Zorro Chain ID\n    /// @param _controller Bytes representation of smart contract address for cross chain contract\n    function setControllerContract(\n        uint256 _zorroChainId,\n        bytes calldata _controller\n    ) external onlyOwner {\n        controllerContractsMap[_zorroChainId] = _controller;\n    }\n\n    /// @notice Setter: LZ/Stargate params\n    /// @param _zorroChainId Zorro chain ID\n    /// @param _lzChainId LayerZero Chain ID\n    function setZorroChainToLZMap(uint256 _zorroChainId, uint16 _lzChainId)\n        external\n        onlyOwner\n    {\n        ZorroChainToLZMap[_zorroChainId] = _lzChainId;\n        LZChainToZorroMap[_lzChainId] = _zorroChainId;\n    }\n\n    /// @notice Setter: Stargate dest pool IDs for USD asset\n    /// @param _zorroChainId Zorro chain ID\n    /// @param _stargatePoolId Stargate pool ID\n    function setStargateDestPoolIds(\n        uint256 _zorroChainId,\n        uint16 _stargatePoolId\n    ) external onlyOwner {\n        stargateDestPoolIds[_zorroChainId] = _stargatePoolId;\n    }\n\n    /// @notice Setter: Set main LZ params\n    //// @param _stargateRouter Address of Stargate router contract\n    //// @param _stargateSwapPoolId ID of Stargate swap pool for stablecoin asset\n    //// @param _layerZeroEndpoint Layer Zero main endpoint on chain\n    function setLayerZeroParams(\n        address _stargateRouter,\n        uint256 _stargateSwapPoolId,\n        address _layerZeroEndpoint\n    ) external onlyOwner {\n        stargateRouter = _stargateRouter;\n        stargateSwapPoolId = _stargateSwapPoolId;\n        layerZeroEndpoint = _layerZeroEndpoint;\n    }\n\n    function setChainType(\n        uint256 _zorroChainId,\n        uint256 _chainType\n    ) external onlyOwner {\n        chainTypes[_zorroChainId] = _chainType;\n    }\n\n    /* Router functions */\n\n    /// @notice Internal function for making swap calls to Stargate\n    /// @param _swapPayload Struct with key swap payload information for the call to the Stargate router\n    function _callStargateSwap(StargateSwapPayload memory _swapPayload)\n        internal\n    {\n        // Approve spending by Stargate \n        // TODO: Can't assume that defaultStablecoin is always going to be USDC. Or can we?\n        IERC20Upgradeable(defaultStablecoin).safeIncreaseAllowance(stargateRouter, _swapPayload.qty);\n\n        // Swap call\n        IStargateRouter.lzTxObj memory _lzTxObj;\n        IStargateRouter(stargateRouter).swap{value: msg.value}(\n            ZorroChainToLZMap[_swapPayload.chainId],\n            stargateSwapPoolId,\n            stargateDestPoolIds[_swapPayload.chainId],\n            payable(msg.sender),\n            _swapPayload.qty,\n            _swapPayload.qty.mul(_swapPayload.maxMarketMovement).div(1000),\n            _lzTxObj,\n            _swapPayload.dstContract,\n            _swapPayload.payload\n        );\n    }\n\n    /// @notice Internal function for sending cross chain messages using LayerZero\n    /// @param _msgPayload Struct with key message details for the LayerZero cross chain transaction\n    function _callLZSend(LZMessagePayload memory _msgPayload) internal {\n        // Convert any key params\n        uint16 _dstChainId = ZorroChainToLZMap[_msgPayload.zorroChainId];\n\n        // Send transaction to layer\n        ILayerZeroEndpoint(layerZeroEndpoint).send{value: msg.value}(\n            _dstChainId,\n            _msgPayload.destinationContract,\n            _msgPayload.payload,\n            _msgPayload.refundAddress,\n            _msgPayload.refundAddress,\n            _msgPayload.adapterParams\n        );\n    }\n\n    function _bytesToAddress(bytes memory bys) internal pure returns (address addr) {\n        assembly {\n            addr := mload(add(bys,20))\n        } \n    }\n}\n",
  "sourcePath": "/Users/kristophm/Documents/workspace/zorro-protocol/contracts/controllers/_ZorroControllerXChainBase.sol",
  "compiler": {
    "name": "solc",
    "version": "0.8.10+commit.fc410830.Emscripten.clang"
  },
  "schemaVersion": "3.4.4",
  "updatedAt": "2022-05-14T20:51:10.652Z",
  "devdoc": {
    "kind": "dev",
    "methods": {
      "owner()": {
        "details": "Returns the address of the current owner."
      },
      "renounceOwnership()": {
        "details": "Leaves the contract without owner. It will not be possible to call `onlyOwner` functions anymore. Can only be called by the current owner. NOTE: Renouncing ownership will leave the contract without an owner, thereby removing any functionality that is only available to the owner."
      },
      "setControllerContract(uint256,bytes)": {
        "params": {
          "_controller": "Bytes representation of smart contract address for cross chain contract",
          "_zorroChainId": "Zorro Chain ID"
        }
      },
      "setStargateDestPoolIds(uint256,uint16)": {
        "params": {
          "_stargatePoolId": "Stargate pool ID",
          "_zorroChainId": "Zorro chain ID"
        }
      },
      "setZorroChainToLZMap(uint256,uint16)": {
        "params": {
          "_lzChainId": "LayerZero Chain ID",
          "_zorroChainId": "Zorro chain ID"
        }
      },
      "transferOwnership(address)": {
        "details": "Transfers ownership of the contract to a new account (`newOwner`). Can only be called by the current owner."
      }
    },
    "version": 1
  },
  "userdoc": {
    "kind": "user",
    "methods": {
      "setControllerContract(uint256,bytes)": {
        "notice": "Setter: Controller contract for each chain"
      },
      "setLayerZeroParams(address,uint256,address)": {
        "notice": "Setter: Set main LZ params"
      },
      "setStargateDestPoolIds(uint256,uint16)": {
        "notice": "Setter: Stargate dest pool IDs for USD asset"
      },
      "setZorroChainToLZMap(uint256,uint16)": {
        "notice": "Setter: LZ/Stargate params"
      }
    },
    "version": 1
  }
}