{
  "contractName": "ZorroControllerXChainActions",
  "abi": [
    {
      "anonymous": false,
      "inputs": [
        {
          "indexed": true,
          "internalType": "address",
          "name": "previousOwner",
          "type": "address"
        },
        {
          "indexed": true,
          "internalType": "address",
          "name": "newOwner",
          "type": "address"
        }
      ],
      "name": "OwnershipTransferred",
      "type": "event"
    },
    {
      "inputs": [],
      "name": "layerZeroEndpoint",
      "outputs": [
        {
          "internalType": "address",
          "name": "",
          "type": "address"
        }
      ],
      "stateMutability": "view",
      "type": "function"
    },
    {
      "inputs": [],
      "name": "owner",
      "outputs": [
        {
          "internalType": "address",
          "name": "",
          "type": "address"
        }
      ],
      "stateMutability": "view",
      "type": "function"
    },
    {
      "inputs": [],
      "name": "renounceOwnership",
      "outputs": [],
      "stateMutability": "nonpayable",
      "type": "function"
    },
    {
      "inputs": [],
      "name": "stargateRouter",
      "outputs": [
        {
          "internalType": "address",
          "name": "",
          "type": "address"
        }
      ],
      "stateMutability": "view",
      "type": "function"
    },
    {
      "inputs": [
        {
          "internalType": "address",
          "name": "newOwner",
          "type": "address"
        }
      ],
      "name": "transferOwnership",
      "outputs": [],
      "stateMutability": "nonpayable",
      "type": "function"
    },
    {
      "inputs": [],
      "name": "uniRouterAddress",
      "outputs": [
        {
          "internalType": "address",
          "name": "",
          "type": "address"
        }
      ],
      "stateMutability": "view",
      "type": "function"
    },
    {
      "inputs": [
        {
          "internalType": "address",
          "name": "_stargateRouter",
          "type": "address"
        },
        {
          "internalType": "address",
          "name": "_lzEndpoint",
          "type": "address"
        },
        {
          "internalType": "address",
          "name": "_uniRouter",
          "type": "address"
        }
      ],
      "name": "initialize",
      "outputs": [],
      "stateMutability": "nonpayable",
      "type": "function"
    },
    {
      "inputs": [
        {
          "internalType": "bytes",
          "name": "bys",
          "type": "bytes"
        }
      ],
      "name": "bytesToAddress",
      "outputs": [
        {
          "internalType": "address",
          "name": "addr",
          "type": "address"
        }
      ],
      "stateMutability": "pure",
      "type": "function"
    },
    {
      "inputs": [
        {
          "internalType": "bytes",
          "name": "_payloadWithSig",
          "type": "bytes"
        }
      ],
      "name": "extractParamsPayload",
      "outputs": [
        {
          "internalType": "bytes",
          "name": "paramsPayload",
          "type": "bytes"
        }
      ],
      "stateMutability": "pure",
      "type": "function"
    },
    {
      "inputs": [
        {
          "internalType": "uint16",
          "name": "_lzChainId",
          "type": "uint16"
        },
        {
          "internalType": "bytes",
          "name": "_dstContract",
          "type": "bytes"
        },
        {
          "internalType": "bytes",
          "name": "_payload",
          "type": "bytes"
        }
      ],
      "name": "checkXChainDepositFee",
      "outputs": [
        {
          "internalType": "uint256",
          "name": "nativeFee",
          "type": "uint256"
        }
      ],
      "stateMutability": "view",
      "type": "function"
    },
    {
      "inputs": [
        {
          "internalType": "uint256",
          "name": "_pid",
          "type": "uint256"
        },
        {
          "internalType": "uint256",
          "name": "_valueUSD",
          "type": "uint256"
        },
        {
          "internalType": "uint256",
          "name": "_weeksCommitted",
          "type": "uint256"
        },
        {
          "internalType": "uint256",
          "name": "_maxMarketMovement",
          "type": "uint256"
        },
        {
          "internalType": "address",
          "name": "_originWallet",
          "type": "address"
        },
        {
          "internalType": "bytes",
          "name": "_destWallet",
          "type": "bytes"
        }
      ],
      "name": "encodeXChainDepositPayload",
      "outputs": [
        {
          "internalType": "bytes",
          "name": "payload",
          "type": "bytes"
        }
      ],
      "stateMutability": "view",
      "type": "function"
    },
    {
      "inputs": [
        {
          "internalType": "uint16",
          "name": "_lzChainId",
          "type": "uint16"
        },
        {
          "internalType": "address",
          "name": "_homeChainZorroController",
          "type": "address"
        },
        {
          "internalType": "bytes",
          "name": "_payload",
          "type": "bytes"
        }
      ],
      "name": "checkXChainDistributeEarningsFee",
      "outputs": [
        {
          "internalType": "uint256",
          "name": "nativeFee",
          "type": "uint256"
        }
      ],
      "stateMutability": "view",
      "type": "function"
    },
    {
      "inputs": [
        {
          "internalType": "uint256",
          "name": "_remoteChainId",
          "type": "uint256"
        },
        {
          "internalType": "uint256",
          "name": "_amountUSDBuyback",
          "type": "uint256"
        },
        {
          "internalType": "uint256",
          "name": "_amountUSDRevShare",
          "type": "uint256"
        },
        {
          "internalType": "uint256",
          "name": "_accSlashedRewards",
          "type": "uint256"
        },
        {
          "internalType": "uint256",
          "name": "_maxMarketMovement",
          "type": "uint256"
        }
      ],
      "name": "encodeXChainDistributeEarningsPayload",
      "outputs": [
        {
          "internalType": "bytes",
          "name": "",
          "type": "bytes"
        }
      ],
      "stateMutability": "pure",
      "type": "function"
    },
    {
      "inputs": [
        {
          "internalType": "address",
          "name": "_stablecoin",
          "type": "address"
        },
        {
          "internalType": "uint256",
          "name": "_amountUSDBuyback",
          "type": "uint256"
        },
        {
          "internalType": "uint256",
          "name": "_amountUSDRevShare",
          "type": "uint256"
        },
        {
          "internalType": "uint256",
          "name": "_maxMarketMovement",
          "type": "uint256"
        },
        {
          "components": [
            {
              "internalType": "address",
              "name": "stablecoin",
              "type": "address"
            },
            {
              "internalType": "address",
              "name": "ZORRO",
              "type": "address"
            },
            {
              "internalType": "address",
              "name": "zorroLPPoolOtherToken",
              "type": "address"
            },
            {
              "internalType": "address",
              "name": "burnAddress",
              "type": "address"
            },
            {
              "internalType": "contract AggregatorV3Interface",
              "name": "priceFeedStablecoin",
              "type": "address"
            },
            {
              "internalType": "contract AggregatorV3Interface",
              "name": "priceFeedZOR",
              "type": "address"
            },
            {
              "internalType": "contract AggregatorV3Interface",
              "name": "priceFeedLPPoolOtherToken",
              "type": "address"
            },
            {
              "internalType": "address[]",
              "name": "stablecoinToZorroPath",
              "type": "address[]"
            },
            {
              "internalType": "address[]",
              "name": "stablecoinToZorroLPPoolOtherTokenPath",
              "type": "address[]"
            }
          ],
          "internalType": "struct IZorroControllerXChainActions.EarningsBuybackParams",
          "name": "_buybackParams",
          "type": "tuple"
        },
        {
          "components": [
            {
              "internalType": "address",
              "name": "stablecoin",
              "type": "address"
            },
            {
              "internalType": "address",
              "name": "ZORRO",
              "type": "address"
            },
            {
              "internalType": "address",
              "name": "zorroLPPoolOtherToken",
              "type": "address"
            },
            {
              "internalType": "address",
              "name": "zorroStakingVault",
              "type": "address"
            },
            {
              "internalType": "contract AggregatorV3Interface",
              "name": "priceFeedStablecoin",
              "type": "address"
            },
            {
              "internalType": "contract AggregatorV3Interface",
              "name": "priceFeedZOR",
              "type": "address"
            },
            {
              "internalType": "address[]",
              "name": "stablecoinToZorroPath",
              "type": "address[]"
            }
          ],
          "internalType": "struct IZorroControllerXChainActions.EarningsRevshareParams",
          "name": "_revshareParams",
          "type": "tuple"
        }
      ],
      "name": "distributeEarnings",
      "outputs": [],
      "stateMutability": "nonpayable",
      "type": "function"
    },
    {
      "inputs": [
        {
          "internalType": "uint16",
          "name": "_lzChainId",
          "type": "uint16"
        },
        {
          "internalType": "bytes",
          "name": "_payload",
          "type": "bytes"
        },
        {
          "internalType": "uint256",
          "name": "_gasForDestinationLZReceive",
          "type": "uint256"
        }
      ],
      "name": "checkXChainWithdrawalFee",
      "outputs": [
        {
          "internalType": "uint256",
          "name": "nativeFee",
          "type": "uint256"
        }
      ],
      "stateMutability": "view",
      "type": "function"
    },
    {
      "inputs": [
        {
          "internalType": "uint256",
          "name": "_gasForDestinationLZReceive",
          "type": "uint256"
        }
      ],
      "name": "getLZAdapterParamsForWithdraw",
      "outputs": [
        {
          "internalType": "bytes",
          "name": "",
          "type": "bytes"
        }
      ],
      "stateMutability": "pure",
      "type": "function"
    },
    {
      "inputs": [
        {
          "internalType": "uint256",
          "name": "_originChainId",
          "type": "uint256"
        },
        {
          "internalType": "bytes",
          "name": "_originAccount",
          "type": "bytes"
        },
        {
          "internalType": "uint256",
          "name": "_pid",
          "type": "uint256"
        },
        {
          "internalType": "uint256",
          "name": "_trancheId",
          "type": "uint256"
        },
        {
          "internalType": "uint256",
          "name": "_maxMarketMovement",
          "type": "uint256"
        }
      ],
      "name": "encodeXChainWithdrawalPayload",
      "outputs": [
        {
          "internalType": "bytes",
          "name": "",
          "type": "bytes"
        }
      ],
      "stateMutability": "pure",
      "type": "function"
    },
    {
      "inputs": [
        {
          "internalType": "uint16",
          "name": "_lzChainId",
          "type": "uint16"
        },
        {
          "internalType": "bytes",
          "name": "_dstContract",
          "type": "bytes"
        },
        {
          "internalType": "bytes",
          "name": "_payload",
          "type": "bytes"
        }
      ],
      "name": "checkXChainRepatriationFee",
      "outputs": [
        {
          "internalType": "uint256",
          "name": "nativeFee",
          "type": "uint256"
        }
      ],
      "stateMutability": "view",
      "type": "function"
    },
    {
      "inputs": [
        {
          "internalType": "uint256",
          "name": "_originChainId",
          "type": "uint256"
        },
        {
          "internalType": "uint256",
          "name": "_pid",
          "type": "uint256"
        },
        {
          "internalType": "uint256",
          "name": "_trancheId",
          "type": "uint256"
        },
        {
          "internalType": "bytes",
          "name": "_originRecipient",
          "type": "bytes"
        },
        {
          "internalType": "uint256",
          "name": "_rewardsDue",
          "type": "uint256"
        }
      ],
      "name": "encodeXChainRepatriationPayload",
      "outputs": [
        {
          "internalType": "bytes",
          "name": "",
          "type": "bytes"
        }
      ],
      "stateMutability": "pure",
      "type": "function"
    },
    {
      "inputs": [
        {
          "components": [
            {
              "internalType": "uint256",
              "name": "amountIn",
              "type": "uint256"
            },
            {
              "internalType": "uint256",
              "name": "priceToken0",
              "type": "uint256"
            },
            {
              "internalType": "uint256",
              "name": "priceToken1",
              "type": "uint256"
            },
            {
              "internalType": "address",
              "name": "token0",
              "type": "address"
            },
            {
              "internalType": "address",
              "name": "token1",
              "type": "address"
            },
            {
              "internalType": "uint256",
              "name": "maxMarketMovementAllowed",
              "type": "uint256"
            },
            {
              "internalType": "address[]",
              "name": "path",
              "type": "address[]"
            },
            {
              "internalType": "address",
              "name": "destination",
              "type": "address"
            }
          ],
          "internalType": "struct SafeSwapUni.SafeSwapParams",
          "name": "_swapParams",
          "type": "tuple"
        }
      ],
      "name": "safeSwap",
      "outputs": [],
      "stateMutability": "nonpayable",
      "type": "function"
    },
    {
      "inputs": [
        {
          "internalType": "address",
          "name": "_token0",
          "type": "address"
        },
        {
          "internalType": "address",
          "name": "_token1",
          "type": "address"
        },
        {
          "internalType": "uint256",
          "name": "_token0Amt",
          "type": "uint256"
        },
        {
          "internalType": "uint256",
          "name": "_token1Amt",
          "type": "uint256"
        },
        {
          "internalType": "uint256",
          "name": "_maxMarketMovementAllowed",
          "type": "uint256"
        },
        {
          "internalType": "address",
          "name": "_recipient",
          "type": "address"
        }
      ],
      "name": "joinPool",
      "outputs": [],
      "stateMutability": "nonpayable",
      "type": "function"
    }
  ],
  "bytecode": "0x608060405234801561001057600080fd5b50612b0a806100206000396000f3fe608060405234801561001057600080fd5b506004361061013b5760003560e060020a90048063693a090b116100bc578063a9e56f3c11610080578063a9e56f3c146102cb578063bf9430a5146101f3578063c0c53b8b146102de578063cdabd371146102f1578063f2fde38b14610304578063f33d66d01461031757600080fd5b8063693a090b1461023a5780636f5f03ed1461024d578063715018a614610260578063734d231a146102685780638da5cb5b146102ba57600080fd5b80634223f99d116101035780634223f99d146101cb57806342526e4e146101de57806348cd8df4146101f35780634947b7131461021457806358f5ab9f1461022757600080fd5b806307968db1146101405780630db6fbe81461017057806312ad7eba146101855780631b8825161461019857806323f65775146101b8575b600080fd5b60665461015390600160a060020a031681565b604051600160a060020a0390911681526020015b60405180910390f35b61018361017e366004611d30565b61032a565b005b610183610193366004611e90565b61036c565b6101ab6101a6366004611fd2565b610398565b6040516101679190612092565b6101ab6101c63660046120a5565b610527565b6101ab6101d9366004612107565b6105a8565b6101536101ec366004612142565b6014015190565b610206610201366004612189565b6105fd565b604051908152602001610167565b6101ab6102223660046121fd565b6106b4565b61018361023536600461225f565b6106f5565b60675461015390600160a060020a031681565b61020661025b3660046122c6565b610735565b610183610823565b6101ab61027636600461231c565b604080517e01000000000000000000000000000000000000000000000000000000000000602082015260228082019390935281518082039093018352604201905290565b603354600160a060020a0316610153565b60655461015390600160a060020a031681565b6101836102ec366004612335565b61088c565b6101ab6102ff366004612380565b6109a4565b6101836103123660046123f2565b6109ef565b61020661032536600461240f565b610ad4565b6000610336858761247f565b905061034d600160a060020a038816333084610ba9565b610358868585610c57565b610363858584610eef565b50505050505050565b8051606082015161038c91600160a060020a039091169033903090610ba9565b61039581610f8b565b50565b6040516c01000000000000000000000000600160a060020a0384160260208201526060907f692d8b8b0000000000000000000000000000000000000000000000000000000090600090899089908990899060340160408051601f19818403018152908290527f42526e4e0000000000000000000000000000000000000000000000000000000082529030906342526e4e90610437908c90600401612092565b602060405180830381865afa158015610454573d6000803e3d6000fd5b505050506040513d601f19601f820116820180604052508101906104789190612497565b60405160200161048d969594939291906124b4565b604051602081830303815290604052905081816040516020016104b19291906124fb565b6040516020818303038152906040529250600083511161051b5760405160e560020a62461bcd02815260206004820152601660248201527f496e76616c69642078636861696e207061796c6f61640000000000000000000060448201526064015b60405180910390fd5b50509695505050505050565b6040516060907f61b729dc00000000000000000000000000000000000000000000000000000000906000906105689089908990899089908990602001612540565b6040516020818303038152906040529050818160405160200161058c9291906124fb565b6040516020818303038152906040529250505095945050505050565b604080516020810187905290810185905260608082018590526080820184905260a08201839052907f25b43830000000000000000000000000000000000000000000000000000000009060009060c001610568565b6040805160608082018352600080835260208301819052928201526065546040517f0a512369000000000000000000000000000000000000000000000000000000008152600160a060020a0390911690630a5123699061066a908890600190899089908890600401612576565b6040805180830381865afa158015610686573d6000803e3d6000fd5b505050506040513d601f19601f820116820180604052508101906106aa91906125ec565b5095945050505050565b6040516060907f0689acd200000000000000000000000000000000000000000000000000000000906000906105689089908990899089908990602001612610565b61070a600160a060020a038716333087610ba9565b61071f600160a060020a038616333086610ba9565b61072d868686868686611196565b505050505050565b6040805160608082018352600080835260208301819052928201526040516c01000000000000000000000000600160a060020a03861602602082015260009060340160408051601f19818403018152908290526065547f0a512369000000000000000000000000000000000000000000000000000000008352909250600160a060020a031690630a512369906107d890899060019086908a908990600401612576565b6040805180830381865afa1580156107f4573d6000803e3d6000fd5b505050506040513d601f19601f8201168201806040525081019061081891906125ec565b509695505050505050565b603354600160a060020a031633146108805760405160e560020a62461bcd02815260206004820181905260248201527f4f776e61626c653a2063616c6c6572206973206e6f7420746865206f776e65726044820152606401610512565b61088a60006112c3565b565b600054610100900460ff166108a75760005460ff16156108ab565b303b155b6109205760405160e560020a62461bcd02815260206004820152602e60248201527f496e697469616c697a61626c653a20636f6e747261637420697320616c72656160448201527f647920696e697469616c697a65640000000000000000000000000000000000006064820152608401610512565b600054610100900460ff16158015610942576000805461ffff19166101011790555b60658054600160a060020a0380871673ffffffffffffffffffffffffffffffffffffffff1992831617909255606680548684169083161790556067805492851692909116919091179055801561099e576000805461ff00191690555b50505050565b60606109b38260048186612647565b8080601f016020809104026020016040519081016040528093929190818152602001838380828437600092019190915250929695505050505050565b603354600160a060020a03163314610a4c5760405160e560020a62461bcd02815260206004820181905260248201527f4f776e61626c653a2063616c6c6572206973206e6f7420746865206f776e65726044820152606401610512565b600160a060020a038116610acb5760405160e560020a62461bcd02815260206004820152602660248201527f4f776e61626c653a206e6577206f776e657220697320746865207a65726f206160448201527f64647265737300000000000000000000000000000000000000000000000000006064820152608401610512565b610395816112c3565b6040517f734d231a000000000000000000000000000000000000000000000000000000008152600481018290526000908190309063734d231a90602401600060405180830381865afa158015610b2e573d6000803e3d6000fd5b505050506040513d6000823e601f3d908101601f19168201604052610b569190810190612671565b6066546040517f40a7bb10000000000000000000000000000000000000000000000000000000008152919250600160a060020a0316906340a7bb109061066a9088903090899060009088906004016126e8565b604051600160a060020a038085166024830152831660448201526064810182905261099e9085907f23b872dd00000000000000000000000000000000000000000000000000000000906084015b60408051601f198184030181529190526020810180517bffffffffffffffffffffffffffffffffffffffffffffffffffffffff167bffffffffffffffffffffffffffffffffffffffffffffffffffffffff1990931692909217909152611322565b610cf6604051806101000160405280600286610c73919061273a565b8152602001610c8e8460800151600160a060020a031661140a565b8152602001610ca98460a00151600160a060020a031661140a565b81526020018360000151600160a060020a031681526020018360200151600160a060020a031681526020018481526020018360e00151815260200130600160a060020a0316815250610f8b565b8060000151600160a060020a03168160400151600160a060020a031614610db757610db7604051806101000160405280600286610d33919061273a565b8152602001610d4e8460800151600160a060020a031661140a565b8152602001610d698460c00151600160a060020a031661140a565b81526020018360000151600160a060020a031681526020018360400151600160a060020a03168152602001848152602001836101000151815260200130600160a060020a0316815250610f8b565b60208101516040517f70a08231000000000000000000000000000000000000000000000000000000008152306004820152600091600160a060020a0316906370a0823190602401602060405180830381865afa158015610e1b573d6000803e3d6000fd5b505050506040513d601f19601f82011682018060405250810190610e3f919061275f565b60408084015190517f70a08231000000000000000000000000000000000000000000000000000000008152306004820152919250600091600160a060020a03909116906370a0823190602401602060405180830381865afa158015610ea8573d6000803e3d6000fd5b505050506040513d601f19601f82011682018060405250810190610ecc919061275f565b9050610ee8836020015184604001518484888860600151611196565b5050505050565b610f86604051806101000160405280858152602001610f1a8460800151600160a060020a031661140a565b8152602001610f358460a00151600160a060020a031661140a565b81526020018360000151600160a060020a031681526020018360200151600160a060020a031681526020018481526020018360c0015181526020018360600151600160a060020a0316815250610f8b565b505050565b60675481516060830151610fad92600160a060020a0391821692911690611561565b6040805160028082526060820183526000926020830190803683370190505090508160600151600160a060020a031663313ce5676040518163ffffffff1660e060020a028152600401602060405180830381865afa158015611013573d6000803e3d6000fd5b505050506040513d601f19601f820116820180604052508101906110379190612778565b8160008151811061104a5761104a61279b565b602002602001019060ff16908160ff16815250508160800151600160a060020a031663313ce5676040518163ffffffff1660e060020a028152600401602060405180830381865afa1580156110a3573d6000803e3d6000fd5b505050506040513d601f19601f820116820180604052508101906110c79190612778565b816001815181106110da576110da61279b565b60ff9290921660209283029190910182015260408051600280825260608201835260009391929091830190803683370190505090508260200151816000815181106111275761112761279b565b60200260200101818152505082604001518160018151811061114b5761114b61279b565b602002602001018181525050610f868360000151828560a001518660c00151868860e001514261025861117e919061247f565b606754600160a060020a031696959493929190611645565b6067546111b090600160a060020a03888116911686611561565b6067546111ca90600160a060020a03878116911685611561565b606754600160a060020a031663e8e33700878787876103e86111ec89846127b4565b6111f6919061273a565b6103e86112038a8c6127b4565b61120d919061273a565b8861121a4261025861247f565b60405163ffffffff8a1660e060020a028152600160a060020a039889166004820152968816602488015260448701959095526064860193909352608485019190915260a484015290921660c482015260e4810191909152610104016060604051808303816000875af1158015611294573d6000803e3d6000fd5b505050506040513d601f19601f820116820180604052508101906112b891906127d3565b505050505050505050565b60338054600160a060020a0383811673ffffffffffffffffffffffffffffffffffffffff19831681179093556040519116919082907f8be0079c531659141344cd1fd0a4f28419497f9722a3daafe3b4186f6b6457e090600090a35050565b6000611377826040518060400160405280602081526020017f5361666545524332303a206c6f772d6c6576656c2063616c6c206661696c656481525085600160a060020a03166117c59092919063ffffffff16565b805190915015610f8657808060200190518101906113959190612801565b610f865760405160e560020a62461bcd02815260206004820152602a60248201527f5361666545524332303a204552433230206f7065726174696f6e20646964206e60448201527f6f742073756363656564000000000000000000000000000000000000000000006064820152608401610512565b60008082600160a060020a031663313ce5676040518163ffffffff1660e060020a028152600401602060405180830381865afa15801561144e573d6000803e3d6000fd5b505050506040513d601f19601f820116820180604052508101906114729190612778565b9050600083600160a060020a031663feaf968c6040518163ffffffff1660e060020a02815260040160a060405180830381865afa1580156114b7573d6000803e3d6000fd5b505050506040513d601f19601f820116820180604052508101906114db919061283d565b50505091505060008112156115355760405160e560020a62461bcd02815260206004820152601660248201527f6e656720707269636573206e6f7420616c6c6f776564000000000000000000006044820152606401610512565b61154082600a612976565b61154f8264e8d4a510006127b4565b611559919061273a565b949350505050565b6040517fdd62ed3e000000000000000000000000000000000000000000000000000000008152306004820152600160a060020a038381166024830152600091839186169063dd62ed3e90604401602060405180830381865afa1580156115cb573d6000803e3d6000fd5b505050506040513d601f19601f820116820180604052508101906115ef919061275f565b6115f9919061247f565b604051600160a060020a03851660248201526044810182905290915061099e9085907f095ea7b30000000000000000000000000000000000000000000000000000000090606401610bf6565b82516002146116995760405160e560020a62461bcd02815260206004820152600b60248201527f696e76616c6964206465630000000000000000000000000000000000000000006044820152606401610512565b6000866000815181106116ae576116ae61279b565b6020026020010151600014806116de5750866001815181106116d2576116d261279b565b60200260200101516000145b156116f7576116f089898789886117de565b905061173b565b611738888860008151811061170e5761170e61279b565b6020026020010151896001815181106117295761172961279b565b60200260200101518988611904565b90505b6040517f5c11d795000000000000000000000000000000000000000000000000000000008152600160a060020a038a1690635c11d79590611788908b9085908a90899089906004016129c9565b600060405180830381600087803b1580156117a257600080fd5b505af11580156117b6573d6000803e3d6000fd5b50505050505050505050505050565b60606117d4848460008561199d565b90505b9392505050565b60008086600160a060020a031663d06ca61f87876040518363ffffffff1660e060020a028152600401611812929190612a05565b600060405180830381865afa15801561182f573d6000803e3d6000fd5b505050506040513d6000823e601f3d908101601f191682016040526118579190810190612a1e565b90508260008151811061186c5761186c61279b565b6020026020010151600a6118809190612976565b61188c906103e86127b4565b8360018151811061189f5761189f61279b565b6020026020010151600a6118b39190612976565b8583600185516118c39190612aa1565b815181106118d3576118d361279b565b60200260200101516118e591906127b4565b6118ef91906127b4565b6118f9919061273a565b979650505050505050565b6000816000815181106119195761191961279b565b6020026020010151600a61192d9190612976565b611939856103e86127b4565b61194391906127b4565b826001815181106119565761195661279b565b6020026020010151600a61196a9190612976565b84611975888a6127b4565b61197f91906127b4565b61198991906127b4565b611993919061273a565b9695505050505050565b60603031831115611a195760405160e560020a62461bcd02815260206004820152602660248201527f416464726573733a20696e73756666696369656e742062616c616e636520666f60448201527f722063616c6c00000000000000000000000000000000000000000000000000006064820152608401610512565b600160a060020a0385163b611a735760405160e560020a62461bcd02815260206004820152601d60248201527f416464726573733a2063616c6c20746f206e6f6e2d636f6e74726163740000006044820152606401610512565b60008086600160a060020a03168587604051611a8f9190612ab8565b60006040518083038185875af1925050503d8060008114611acc576040519150601f19603f3d011682016040523d82523d6000602084013e611ad1565b606091505b50915091506118f982828660608315611aeb5750816117d7565b825115611afb5782518084602001fd5b8160405160e560020a62461bcd0281526004016105129190612092565b600160a060020a038116811461039557600080fd5b8035611b3881611b18565b919050565b60e060020a634e487b7102600052604160045260246000fd5b60405160e0810167ffffffffffffffff81118282101715611b7957611b79611b3d565b60405290565b604051610120810167ffffffffffffffff81118282101715611b7957611b79611b3d565b604051610100810167ffffffffffffffff81118282101715611b7957611b79611b3d565b604051601f8201601f1916810167ffffffffffffffff81118282101715611bf057611bf0611b3d565b604052919050565b600067ffffffffffffffff821115611c1257611c12611b3d565b5060209081020190565b600082601f830112611c2d57600080fd5b81356020611c42611c3d83611bf8565b611bc7565b82815291810284018101918181019086841115611c5e57600080fd5b8286015b84811015610818578035611c7581611b18565b8352918301918301611c62565b600060e08284031215611c9457600080fd5b611c9c611b56565b9050611ca782611b2d565b8152611cb560208301611b2d565b6020820152611cc660408301611b2d565b6040820152611cd760608301611b2d565b6060820152611ce860808301611b2d565b6080820152611cf960a08301611b2d565b60a082015260c082013567ffffffffffffffff811115611d1857600080fd5b611d2484828501611c1c565b60c08301525092915050565b60008060008060008060c08789031215611d4957600080fd5b8635611d5481611b18565b9550602087013594506040870135935060608701359250608087013567ffffffffffffffff80821115611d8657600080fd5b90880190610120828b031215611d9b57600080fd5b611da3611b7f565b611dac83611b2d565b8152611dba60208401611b2d565b6020820152611dcb60408401611b2d565b6040820152611ddc60608401611b2d565b6060820152611ded60808401611b2d565b6080820152611dfe60a08401611b2d565b60a0820152611e0f60c08401611b2d565b60c082015260e083013582811115611e2657600080fd5b611e328c828601611c1c565b60e0830152506101008084013583811115611e4c57600080fd5b611e588d828701611c1c565b8284015250508094505060a0890135915080821115611e7657600080fd5b50611e8389828a01611c82565b9150509295509295509295565b600060208284031215611ea257600080fd5b813567ffffffffffffffff80821115611eba57600080fd5b908301906101008286031215611ecf57600080fd5b611ed7611ba3565b823581526020830135602082015260408301356040820152611efb60608401611b2d565b6060820152611f0c60808401611b2d565b608082015260a083013560a082015260c083013582811115611f2d57600080fd5b611f3987828601611c1c565b60c083015250611f4b60e08401611b2d565b60e082015295945050505050565b600067ffffffffffffffff821115611f7357611f73611b3d565b50601f01601f191660200190565b600082601f830112611f9257600080fd5b8135611fa0611c3d82611f59565b818152846020838601011115611fb557600080fd5b816020850160208301376000918101602001919091529392505050565b60008060008060008060c08789031215611feb57600080fd5b86359550602087013594506040870135935060608701359250608087013561201281611b18565b915060a087013567ffffffffffffffff81111561202e57600080fd5b611e8389828a01611f81565b60005b8381101561205557818101518382015260200161203d565b8381111561099e5750506000910152565b6000815180845261207e81602086016020860161203a565b601f01601f19169290920160200192915050565b6020815260006117d76020830184612066565b600080600080600060a086880312156120bd57600080fd5b85359450602086013567ffffffffffffffff8111156120db57600080fd5b6120e788828901611f81565b959895975050505060408401359360608101359360809091013592509050565b600080600080600060a0868803121561211f57600080fd5b505083359560208501359550604085013594606081013594506080013592509050565b60006020828403121561215457600080fd5b813567ffffffffffffffff81111561216b57600080fd5b61155984828501611f81565b803561ffff81168114611b3857600080fd5b60008060006060848603121561219e57600080fd5b6121a784612177565b9250602084013567ffffffffffffffff808211156121c457600080fd5b6121d087838801611f81565b935060408601359150808211156121e657600080fd5b506121f386828701611f81565b9150509250925092565b600080600080600060a0868803121561221557600080fd5b853594506020860135935060408601359250606086013567ffffffffffffffff81111561224157600080fd5b61224d88828901611f81565b95989497509295608001359392505050565b60008060008060008060c0878903121561227857600080fd5b863561228381611b18565b9550602087013561229381611b18565b945060408701359350606087013592506080870135915060a08701356122b881611b18565b809150509295509295509295565b6000806000606084860312156122db57600080fd5b6122e484612177565b925060208401356122f481611b18565b9150604084013567ffffffffffffffff81111561231057600080fd5b6121f386828701611f81565b60006020828403121561232e57600080fd5b5035919050565b60008060006060848603121561234a57600080fd5b833561235581611b18565b9250602084013561236581611b18565b9150604084013561237581611b18565b809150509250925092565b6000806020838503121561239357600080fd5b823567ffffffffffffffff808211156123ab57600080fd5b818501915085601f8301126123bf57600080fd5b8135818111156123ce57600080fd5b8660208285010111156123e057600080fd5b60209290920196919550909350505050565b60006020828403121561240457600080fd5b81356117d781611b18565b60008060006060848603121561242457600080fd5b61242d84612177565b9250602084013567ffffffffffffffff81111561244957600080fd5b61245586828701611f81565b925050604084013590509250925092565b60e060020a634e487b7102600052601160045260246000fd5b6000821982111561249257612492612466565b500190565b6000602082840312156124a957600080fd5b81516117d781611b18565b86815285602082015284604082015283606082015260c0608082015260006124df60c0830185612066565b9050600160a060020a03831660a0830152979650505050505050565b7bffffffffffffffffffffffffffffffffffffffffffffffffffffffff19831681526000825161253281600485016020870161203a565b919091016004019392505050565b85815260a06020820152600061255960a0830187612066565b604083019590955250606081019290925260809091015292915050565b61ffff8616815260ff8516602082015260a06040820152600061259c60a0830186612066565b82810360608401526125ae8186612066565b9050828103608084015283518152602084015160208201526040840151606060408301526125df6060830182612066565b9998505050505050505050565b600080604083850312156125ff57600080fd5b505080516020909101519092909150565b85815284602082015283604082015260a06060820152600061263560a0830185612066565b90508260808301529695505050505050565b6000808585111561265757600080fd5b8386111561266457600080fd5b5050820193919092039150565b60006020828403121561268357600080fd5b815167ffffffffffffffff81111561269a57600080fd5b8201601f810184136126ab57600080fd5b80516126b9611c3d82611f59565b8181528560208385010111156126ce57600080fd5b6126df82602083016020860161203a565b95945050505050565b61ffff86168152600160a060020a038516602082015260a06040820152600061271460a0830186612066565b8415156060840152828103608084015261272e8185612066565b98975050505050505050565b60008261275a5760e060020a634e487b7102600052601260045260246000fd5b500490565b60006020828403121561277157600080fd5b5051919050565b60006020828403121561278a57600080fd5b815160ff811681146117d757600080fd5b60e060020a634e487b7102600052603260045260246000fd5b60008160001904831182151516156127ce576127ce612466565b500290565b6000806000606084860312156127e857600080fd5b8351925060208401519150604084015190509250925092565b60006020828403121561281357600080fd5b815180151581146117d757600080fd5b805169ffffffffffffffffffff81168114611b3857600080fd5b600080600080600060a0868803121561285557600080fd5b61285e86612823565b945060208601519350604086015192506060860151915061288160808701612823565b90509295509295909350565b600181815b808511156128ca5781600019048211156128ae576128ae612466565b808516156128bb57918102915b60029094049390800290612892565b509250929050565b6000826128e157506001612970565b816128ee57506000612970565b8160018114612904576002811461290e5761292b565b6001915050612970565b60ff84111561291f5761291f612466565b8360020a915050612970565b5060208310610133831016604e8410600b841016171561294e575081810a612970565b612958838361288d565b806000190482111561296c5761296c612466565b0290505b92915050565b60006117d760ff8416836128d2565b600081518084526020808501945080840160005b838110156129be578151600160a060020a031687529582019590820190600101612999565b509495945050505050565b85815284602082015260a0604082015260006129e860a0830186612985565b600160a060020a0394909416606083015250608001529392505050565b8281526040602082015260006117d46040830184612985565b60006020808385031215612a3157600080fd5b825167ffffffffffffffff811115612a4857600080fd5b8301601f81018513612a5957600080fd5b8051612a67611c3d82611bf8565b81815290830282018301908381019087831115612a8357600080fd5b928401925b828410156118f957835182529284019290840190612a88565b600082821015612ab357612ab3612466565b500390565b60008251612aca81846020870161203a565b919091019291505056fea26469706673582212206ef9b47679504dcd2b3b04a374293da68313b6fdf9b7f37cb90c5e12bcdb853f64736f6c634300080a0033",
  "immutableReferences": {},
  "source": "// SPDX-License-Identifier: MIT\n\npragma solidity ^0.8.0;\n\nimport \"@openzeppelin/contracts-upgradeable/access/OwnableUpgradeable.sol\";\n\nimport \"@openzeppelin/contracts-upgradeable/token/ERC20/IERC20Upgradeable.sol\";\n\nimport \"@openzeppelin/contracts-upgradeable/token/ERC20/ERC20Upgradeable.sol\";\n\nimport \"@openzeppelin/contracts-upgradeable/token/ERC20/utils/SafeERC20Upgradeable.sol\";\n\nimport \"../../interfaces/Stargate/IStargateRouter.sol\";\n\nimport \"../../interfaces/LayerZero/ILayerZeroEndpoint.sol\";\n\nimport \"../../interfaces/Zorro/Controllers/IZorroControllerXChain.sol\";\n\nimport \"../../interfaces/Zorro/Controllers/Actions/IZorroControllerXChainActions.sol\";\n\nimport \"../../libraries/SafeSwap.sol\";\n\nimport \"../../libraries/PriceFeed.sol\";\n\ncontract ZorroControllerXChainActions is IZorroControllerXChainActions, OwnableUpgradeable {\n    /* Libraries */\n\n    using SafeERC20Upgradeable for IERC20Upgradeable;\n    using SafeSwapUni for IAMMRouter02;\n    using PriceFeed for AggregatorV3Interface;\n\n    /* Constructor */\n\n    /// @notice Constructor\n    /// @param _stargateRouter Address of Stargate router\n    /// @param _lzEndpoint Address of LayerZero endpoint for this chain\n    /// @param _uniRouter Address of Uniswap style router for swaps\n    function initialize(\n        address _stargateRouter,\n        address _lzEndpoint,\n        address _uniRouter\n    ) public initializer {\n        stargateRouter = _stargateRouter;\n        layerZeroEndpoint = _lzEndpoint;\n        uniRouterAddress = _uniRouter;\n    }\n\n    /* State */\n\n    address public stargateRouter;\n    address public layerZeroEndpoint;\n    address public uniRouterAddress;\n\n    /* Utilities */\n\n    /// @notice Decodes bytes array to address\n    /// @param bys Bytes array\n    /// @return addr Address value\n    function bytesToAddress(bytes memory bys)\n        public\n        pure\n        returns (address addr)\n    {\n        assembly {\n            addr := mload(add(bys, 20))\n        }\n    }\n\n    /// @notice Removes function signature from ABI encoded payload\n    /// @param _payloadWithSig ABI encoded payload with function selector\n    /// @return paramsPayload Payload with params only\n    function extractParamsPayload(bytes calldata _payloadWithSig)\n        public\n        pure\n        returns (bytes memory paramsPayload)\n    {\n        paramsPayload = _payloadWithSig[4:];\n    }\n\n    /* Deposits */\n\n    /// @notice Checks to see how much a cross chain deposit will cost\n    /// @param _lzChainId The LayerZero Chain ID (not the Zorro one)\n    /// @param _dstContract The destination contract address on the remote chain\n    /// @param _payload The byte encoded cross chain payload (use encodeXChainDepositPayload() below)\n    /// @return nativeFee Expected fee to pay for bridging/cross chain execution\n    function checkXChainDepositFee(\n        uint16 _lzChainId,\n        bytes memory _dstContract,\n        bytes memory _payload\n    ) external view returns (uint256 nativeFee) {\n        // Init empty LZ object\n        IStargateRouter.lzTxObj memory _lzTxParams;\n\n        // Calculate native gas fee and ZRO token fee (Layer Zero token)\n        (nativeFee, ) = IStargateRouter(stargateRouter).quoteLayerZeroFee(\n            _lzChainId,\n            1,\n            _dstContract,\n            _payload,\n            _lzTxParams\n        );\n    }\n\n    /// @notice Encodes payload for making cross chan deposit\n    /// @param _pid Pool ID on remote chain\n    /// @param _valueUSD Amount in USD to deposit\n    /// @param _weeksCommitted Number of weeks to commit deposit for in vault\n    /// @param _maxMarketMovement Slippage parameter (e.g. 950 = 5%, 990 = 1%, etc.)\n    /// @param _originWallet Wallet address on origin chain that will be depositing funds cross chain.\n    /// @param _destWallet Optional wallet address on destination chain that will be receiving deposit. If not provided, will use a truncated address based on the _originWallet\n    /// @return payload The ABI encoded payload\n    function encodeXChainDepositPayload(\n        uint256 _pid,\n        uint256 _valueUSD,\n        uint256 _weeksCommitted,\n        uint256 _maxMarketMovement,\n        address _originWallet,\n        bytes memory _destWallet\n    ) public view returns (bytes memory payload) {\n        // Calculate method signature\n        bytes4 _sig = IZorroControllerXChainDeposit\n            .receiveXChainDepositRequest\n            .selector;\n\n        // Calculate abi encoded bytes for input args\n        bytes memory _inputs = abi.encode(\n            _pid,\n            _valueUSD,\n            _weeksCommitted,\n            _maxMarketMovement,\n            abi.encodePacked(_originWallet), // Convert address to bytes\n            this.bytesToAddress(_destWallet) // Decode bytes to address\n        );\n        // Concatenate bytes of signature and inputs\n        payload = bytes.concat(_sig, _inputs);\n\n        require(payload.length > 0, \"Invalid xchain payload\");\n    }\n\n    /* Earn */\n\n    /// @notice Checks to see how much a cross chain earnings distribution will cost\n    /// @param _lzChainId The Layer Zero chain ID (NOT the Zorro chain ID)\n    /// @param _homeChainZorroController Address of the home chain Zorro controller (the destination contract)\n    /// @param _payload The bytes encoded payload to be sent to the home chain (result of encodeXChainDistributeEarningsPayload())\n    /// @return nativeFee Quantity of native token as fees\n    function checkXChainDistributeEarningsFee(\n        uint16 _lzChainId,\n        address _homeChainZorroController,\n        bytes memory _payload\n    ) external view returns (uint256 nativeFee) {\n        // Init empty LZ object\n        IStargateRouter.lzTxObj memory _lzTxParams;\n\n        // Get payload\n        bytes memory _dstContract = abi.encodePacked(_homeChainZorroController);\n\n        // Calculate native gas fee and ZRO token fee (Layer Zero token)\n        (nativeFee, ) = IStargateRouter(stargateRouter).quoteLayerZeroFee(\n            _lzChainId,\n            1,\n            _dstContract,\n            _payload,\n            _lzTxParams\n        );\n    }\n\n    /// @notice Encodes payload for making cross chan earnings distribution request\n    /// @param _remoteChainId Zorro chain ID of the chain making the distribution request\n    /// @param _amountUSDBuyback Amount in USD to buy back\n    /// @param _amountUSDRevShare Amount in USD to rev share with ZOR staking vault\n    /// @param _accSlashedRewards Accumulated slashed rewards on chain\n    /// @param _maxMarketMovement factor to account for max market movement/slippage.\n    /// @return bytes ABI encoded payload\n    function encodeXChainDistributeEarningsPayload(\n        uint256 _remoteChainId,\n        uint256 _amountUSDBuyback,\n        uint256 _amountUSDRevShare,\n        uint256 _accSlashedRewards,\n        uint256 _maxMarketMovement\n    ) public pure returns (bytes memory) {\n        // Calculate method signature\n        bytes4 _sig = IZorroControllerXChainEarn\n            .receiveXChainDistributionRequest\n            .selector;\n        // Calculate abi encoded bytes for input args\n        bytes memory _inputs = abi.encode(\n            _remoteChainId,\n            _amountUSDBuyback,\n            _amountUSDRevShare,\n            _accSlashedRewards,\n            _maxMarketMovement\n        );\n        // Concatenate bytes of signature and inputs\n        return bytes.concat(_sig, _inputs);\n    }\n\n    // TODO: For all controller and vault actions contracts, make sure\n    // functions have a modifier that restricts access to controllers and\n    // vaults only.\n\n    /// @notice Receives an authorized request from remote chains to perform earnings fee distribution events, such as: buyback + LP + burn, and revenue share\n    /// @param _stablecoin Address of the stablecoin to distribute\n    /// @param _amountUSDBuyback The amount in USD that should be minted for LP + burn\n    /// @param _amountUSDRevShare The amount in USD that should be minted for revenue sharing with ZOR stakers\n    /// @param _maxMarketMovement Factor to account for max market movement/slippage.\n    /// @param _buybackParams Params to perform buyback distribution\n    /// @param _revshareParams Params to perform revenue share distribution\n    function distributeEarnings(\n        address _stablecoin,\n        uint256 _amountUSDBuyback,\n        uint256 _amountUSDRevShare,\n        uint256 _maxMarketMovement,\n        EarningsBuybackParams memory _buybackParams,\n        EarningsRevshareParams memory _revshareParams\n    ) public {\n        // Total USD to perform operations\n        uint256 _totalUSD = _amountUSDBuyback + _amountUSDRevShare;\n\n        // Transfer funds IN\n        IERC20Upgradeable(_stablecoin).safeTransferFrom(\n            msg.sender,\n            address(this),\n            _totalUSD\n        );\n\n        /* Buyback */\n        _buybackOnChain(\n            _amountUSDBuyback, \n            _maxMarketMovement,\n            _buybackParams\n        );\n\n        /* Rev share */\n        _revShareOnChain(\n            _amountUSDRevShare, \n            _maxMarketMovement,\n            _revshareParams\n        );\n    }\n\n    /// @notice Adds liquidity to the main ZOR LP pool and burns the resulting LP token\n    /// @param _amountUSD Amount of USD to add as liquidity\n    /// @param _maxMarketMovement factor to account for max market movement/slippage.\n    /// @param _params A EarningsBuybackParams struct\n    function _buybackOnChain(\n        uint256 _amountUSD,\n        uint256 _maxMarketMovement,\n        EarningsBuybackParams memory _params\n    ) internal {\n        // Swap to ZOR token\n        _safeSwap(\n            SafeSwapUni.SafeSwapParams({\n                amountIn: _amountUSD / 2,\n                priceToken0: _params.priceFeedStablecoin.getExchangeRate(),\n                priceToken1: _params.priceFeedZOR.getExchangeRate(),\n                token0: _params.stablecoin,\n                token1: _params.ZORRO,\n                maxMarketMovementAllowed: _maxMarketMovement,\n                path: _params.stablecoinToZorroPath,\n                destination: address(this)\n            })\n        );\n\n        // Swap to counterparty token (if not USD)\n        if (_params.zorroLPPoolOtherToken != _params.stablecoin) {\n            _safeSwap(\n                SafeSwapUni.SafeSwapParams({\n                    amountIn: _amountUSD / 2,\n                    priceToken0: _params.priceFeedStablecoin.getExchangeRate(),\n                    priceToken1: _params\n                        .priceFeedLPPoolOtherToken\n                        .getExchangeRate(),\n                    token0: _params.stablecoin,\n                    token1: _params.zorroLPPoolOtherToken,\n                    maxMarketMovementAllowed: _maxMarketMovement,\n                    path: _params.stablecoinToZorroLPPoolOtherTokenPath,\n                    destination: address(this)\n                })\n            );\n        }\n\n        // Calc balances\n        uint256 tokenZORAmt = IERC20Upgradeable(_params.ZORRO).balanceOf(\n            address(this)\n        );\n        uint256 tokenOtherAmt = IERC20Upgradeable(_params.zorroLPPoolOtherToken)\n            .balanceOf(address(this));\n\n        // Add liquidity\n        _joinPool(\n            _params.ZORRO,\n            _params.zorroLPPoolOtherToken,\n            tokenZORAmt,\n            tokenOtherAmt,\n            _maxMarketMovement,\n            _params.burnAddress\n        );\n    }\n\n    /// @notice Pays the ZOR single staking pool the revenue share amount specified\n    /// @param _amountUSD Amount of USD to send as ZOR revenue share\n    /// @param _maxMarketMovement factor to account for max market movement/slippage.\n    /// @param _params A EarningsRevshareParams struct\n    function _revShareOnChain(\n        uint256 _amountUSD,\n        uint256 _maxMarketMovement,\n        EarningsRevshareParams memory _params\n    ) internal {\n        // Swap to ZOR token and send to Zorro Staking Vault\n        _safeSwap(\n            SafeSwapUni.SafeSwapParams({\n                amountIn: _amountUSD,\n                priceToken0: _params.priceFeedStablecoin.getExchangeRate(),\n                priceToken1: _params.priceFeedZOR.getExchangeRate(),\n                token0: _params.stablecoin,\n                token1: _params.ZORRO,\n                maxMarketMovementAllowed: _maxMarketMovement,\n                path: _params.stablecoinToZorroPath,\n                destination: _params.zorroStakingVault\n            })\n        );\n    }\n\n    /* Withdrawals */\n\n    /// @notice Checks to see how much a cross chain withdrawal will cost\n    /// @param _lzChainId The LayerZero Chain ID (not the Zorro one)\n    /// @param _payload The bytes encoded withdrawal payload (calculated from encodeXChainWithdrawalPayload() below)\n    /// @param _gasForDestinationLZReceive How much additional gas to provide at destination contract\n    /// @return nativeFee Expected fee to pay for bridging/cross chain execution\n    function checkXChainWithdrawalFee(\n        uint16 _lzChainId,\n        bytes memory _payload,\n        uint256 _gasForDestinationLZReceive\n    ) external view returns (uint256 nativeFee) {\n        // Encode adapter params to provide more gas for destination\n        bytes memory _adapterParams = this.getLZAdapterParamsForWithdraw(\n            _gasForDestinationLZReceive\n        );\n\n        // Query LayerZero for quote\n        (nativeFee, ) = ILayerZeroEndpoint(layerZeroEndpoint).estimateFees(\n            _lzChainId,\n            address(this),\n            _payload,\n            false,\n            _adapterParams\n        );\n    }\n\n    /// @notice Encodes adapter params to provide more gas for destination\n    /// @param _gasForDestinationLZReceive How much additional gas to provide at destination contract\n    /// @return bytes Adapter payload\n    function getLZAdapterParamsForWithdraw(uint256 _gasForDestinationLZReceive)\n        public\n        pure\n        returns (bytes memory)\n    {\n        uint16 _version = 1;\n        return abi.encodePacked(_version, _gasForDestinationLZReceive);\n    }\n\n    /// @notice Encodes payload for making cross chan withdrawal\n    /// @param _originChainId Chain that withdrawal request originated from\n    /// @param _originAccount Account on origin chain that withdrawal request originated from\n    /// @param _pid Pool ID on remote chain\n    /// @param _trancheId Tranche ID on remote chain\n    /// @param _maxMarketMovement Slippage parameter (e.g. 950 = 5%, 990 = 1%, etc.)\n    /// @return bytes ABI encoded payload\n    function encodeXChainWithdrawalPayload(\n        uint256 _originChainId,\n        bytes memory _originAccount,\n        uint256 _pid,\n        uint256 _trancheId,\n        uint256 _maxMarketMovement\n    ) public pure returns (bytes memory) {\n        // Calculate method signature\n        bytes4 _sig = IZorroControllerXChainWithdraw\n            .receiveXChainWithdrawalRequest\n            .selector;\n\n        // Calculate abi encoded bytes for input args\n        bytes memory _inputs = abi.encode(\n            _originChainId,\n            _originAccount,\n            _pid,\n            _trancheId,\n            _maxMarketMovement\n        );\n\n        // Concatenate bytes of signature and inputs\n        return bytes.concat(_sig, _inputs);\n    }\n\n    /// @notice Estimates fees for repatriation operation\n    /// @param _lzChainId The chain ID on LayerZero (not the Zorro one) for the chain to which funds are being repatriated\n    /// @param _dstContract The bytes encoded address of the destination contract (controller address on chain being repatriated to)\n    /// @param _payload The bytes encoded payload to be sent to the destination chain (calculated from encodeXChainRepatriationPayload())\n    /// @return nativeFee Estimated fee in native tokens\n    function checkXChainRepatriationFee(\n        uint16 _lzChainId,\n        bytes memory _dstContract,\n        bytes memory _payload\n    ) external view returns (uint256 nativeFee) {\n        // Init empty LZ object\n        IStargateRouter.lzTxObj memory _lzTxParams;\n\n        // Calculate native gas fee and ZRO token fee (Layer Zero token)\n        (nativeFee, ) = IStargateRouter(stargateRouter).quoteLayerZeroFee(\n            _lzChainId,\n            1,\n            _dstContract,\n            _payload,\n            _lzTxParams\n        );\n    }\n\n    /// @notice Encodes payload for making cross chain repatriation\n    /// @param _originChainId Zorro chain ID of chain that funds shall be repatriated back to\n    /// @param _pid Pool ID on current chain that withdrawal came from\n    /// @param _trancheId Tranche ID on current chain that withdrawal came from\n    /// @param _originRecipient Recipient on home chain that repatriated funds shall be sent to\n    /// @param _rewardsDue ZOR rewards due to the recipient\n    /// @return bytes ABI encoded payload\n    function encodeXChainRepatriationPayload(\n        uint256 _originChainId,\n        uint256 _pid,\n        uint256 _trancheId,\n        bytes memory _originRecipient,\n        uint256 _rewardsDue\n    ) public pure returns (bytes memory) {\n        // Calculate method signature\n        bytes4 _sig = IZorroControllerXChainWithdraw\n            .receiveXChainRepatriationRequest\n            .selector;\n\n        // Calculate abi encoded bytes for input args\n        bytes memory _inputs = abi.encode(\n            _originChainId,\n            _pid,\n            _trancheId,\n            _originRecipient,\n            _rewardsDue\n        );\n\n        // Concatenate bytes of signature and inputs\n        return bytes.concat(_sig, _inputs);\n    }\n\n    /* Uni router operations: Swaps, Add/remove liquidity etc. */\n\n    /// @notice Safely swaps tokens using the most suitable protocol based on token\n    /// @dev NOTE: Caller must approve tokens for spending beforehand\n    /// @param _swapParams SafeSwapParams for swap\n    function safeSwap(SafeSwapUni.SafeSwapParams memory _swapParams) public {\n        // Transfer tokens in\n        IERC20Upgradeable(_swapParams.token0).safeTransferFrom(\n            msg.sender,\n            address(this),\n            _swapParams.amountIn\n        );\n\n        // Call internal swap function\n        _safeSwap(_swapParams);\n    }\n\n    /// @notice Internal function for swapping\n    /// @dev Does not transfer tokens to this contract (assumes they are already here)\n    /// @param _swapParams SafeSwapParams for swap\n    function _safeSwap(SafeSwapUni.SafeSwapParams memory _swapParams) internal {\n        // Allowance\n        IERC20Upgradeable(_swapParams.token0).safeIncreaseAllowance(\n            uniRouterAddress,\n            _swapParams.amountIn\n        );\n\n        // Get decimal info\n        uint8[] memory _decimals = new uint8[](2);\n        _decimals[0] = ERC20Upgradeable(_swapParams.token0).decimals();\n        _decimals[1] = ERC20Upgradeable(_swapParams.token1).decimals();\n\n        // Determine exchange rates using price feed oracle\n        uint256[] memory _priceTokens = new uint256[](2);\n        _priceTokens[0] = _swapParams.priceToken0;\n        _priceTokens[1] = _swapParams.priceToken1;\n\n        // Swap\n        IAMMRouter02(uniRouterAddress).safeSwap(\n            _swapParams.amountIn,\n            _priceTokens,\n            _swapParams.maxMarketMovementAllowed,\n            _swapParams.path,\n            _decimals,\n            _swapParams.destination,\n            block.timestamp + 600\n        );\n    }\n\n    /// @notice Adds liquidity to the pool of this contract\n    /// @dev NOTE: Requires spending approval by caller\n    /// @param _token0 The address of Token0\n    /// @param _token1 The address of Token1\n    /// @param _token0Amt Quantity of Token0 to add\n    /// @param _token1Amt Quantity of Token1 to add\n    /// @param _maxMarketMovementAllowed The max slippage allowed for swaps. 1000 = 0 %, 995 = 0.5%, etc.\n    /// @param _recipient The recipient of the LP token\n    function joinPool(\n        address _token0,\n        address _token1,\n        uint256 _token0Amt,\n        uint256 _token1Amt,\n        uint256 _maxMarketMovementAllowed,\n        address _recipient\n    ) public {\n        // Transfer funds in\n        IERC20Upgradeable(_token0).safeTransferFrom(\n            msg.sender,\n            address(this),\n            _token0Amt\n        );\n        IERC20Upgradeable(_token1).safeTransferFrom(\n            msg.sender,\n            address(this),\n            _token1Amt\n        );\n\n        // Call internal function to add liquidity\n        _joinPool(\n            _token0,\n            _token1,\n            _token0Amt,\n            _token1Amt,\n            _maxMarketMovementAllowed,\n            _recipient\n        );\n    }\n\n    /// @notice Internal function for adding liquidity to the pool of this contract\n    /// @dev NOTE: Unlike public function, does not transfer tokens into contract (assumes already tokens already present)\n    /// @param _token0 The address of Token0\n    /// @param _token1 The address of Token1\n    /// @param _token0Amt Quantity of Token0 to add\n    /// @param _token1Amt Quantity of Token1 to add\n    /// @param _maxMarketMovementAllowed The max slippage allowed for swaps. 1000 = 0 %, 995 = 0.5%, etc.\n    /// @param _recipient The recipient of the LP token\n    function _joinPool(\n        address _token0,\n        address _token1,\n        uint256 _token0Amt,\n        uint256 _token1Amt,\n        uint256 _maxMarketMovementAllowed,\n        address _recipient\n    ) internal {\n        // Approve spending\n        IERC20Upgradeable(_token0).safeIncreaseAllowance(\n            uniRouterAddress,\n            _token0Amt\n        );\n        IERC20Upgradeable(_token1).safeIncreaseAllowance(\n            uniRouterAddress,\n            _token1Amt\n        );\n\n        // Add liquidity\n        IAMMRouter02(uniRouterAddress).addLiquidity(\n            _token0,\n            _token1,\n            _token0Amt,\n            _token1Amt,\n            (_token0Amt * _maxMarketMovementAllowed) / 1000,\n            (_token1Amt * _maxMarketMovementAllowed) / 1000,\n            _recipient,\n            block.timestamp + 600\n        );\n    }\n}\n",
  "sourcePath": "/Users/kristophm/Documents/workspace/zorro-protocol/contracts/controllers/actions/ZorroControllerXChainActions.sol",
  "compiler": {
    "name": "solc",
    "version": "0.8.10+commit.fc410830.Emscripten.clang"
  },
  "schemaVersion": "3.4.10",
  "updatedAt": "2022-12-13T02:17:54.423Z",
  "devdoc": {
    "kind": "dev",
    "methods": {
      "bytesToAddress(bytes)": {
        "params": {
          "bys": "Bytes array"
        },
        "returns": {
          "addr": "Address value"
        }
      },
      "checkXChainDepositFee(uint16,bytes,bytes)": {
        "params": {
          "_dstContract": "The destination contract address on the remote chain",
          "_lzChainId": "The LayerZero Chain ID (not the Zorro one)",
          "_payload": "The byte encoded cross chain payload (use encodeXChainDepositPayload() below)"
        },
        "returns": {
          "nativeFee": "Expected fee to pay for bridging/cross chain execution"
        }
      },
      "checkXChainDistributeEarningsFee(uint16,address,bytes)": {
        "params": {
          "_homeChainZorroController": "Address of the home chain Zorro controller (the destination contract)",
          "_lzChainId": "The Layer Zero chain ID (NOT the Zorro chain ID)",
          "_payload": "The bytes encoded payload to be sent to the home chain (result of encodeXChainDistributeEarningsPayload())"
        },
        "returns": {
          "nativeFee": "Quantity of native token as fees"
        }
      },
      "checkXChainRepatriationFee(uint16,bytes,bytes)": {
        "params": {
          "_dstContract": "The bytes encoded address of the destination contract (controller address on chain being repatriated to)",
          "_lzChainId": "The chain ID on LayerZero (not the Zorro one) for the chain to which funds are being repatriated",
          "_payload": "The bytes encoded payload to be sent to the destination chain (calculated from encodeXChainRepatriationPayload())"
        },
        "returns": {
          "nativeFee": "Estimated fee in native tokens"
        }
      },
      "checkXChainWithdrawalFee(uint16,bytes,uint256)": {
        "params": {
          "_gasForDestinationLZReceive": "How much additional gas to provide at destination contract",
          "_lzChainId": "The LayerZero Chain ID (not the Zorro one)",
          "_payload": "The bytes encoded withdrawal payload (calculated from encodeXChainWithdrawalPayload() below)"
        },
        "returns": {
          "nativeFee": "Expected fee to pay for bridging/cross chain execution"
        }
      },
      "distributeEarnings(address,uint256,uint256,uint256,(address,address,address,address,address,address,address,address[],address[]),(address,address,address,address,address,address,address[]))": {
        "params": {
          "_amountUSDBuyback": "The amount in USD that should be minted for LP + burn",
          "_amountUSDRevShare": "The amount in USD that should be minted for revenue sharing with ZOR stakers",
          "_buybackParams": "Params to perform buyback distribution",
          "_maxMarketMovement": "Factor to account for max market movement/slippage.",
          "_revshareParams": "Params to perform revenue share distribution",
          "_stablecoin": "Address of the stablecoin to distribute"
        }
      },
      "encodeXChainDepositPayload(uint256,uint256,uint256,uint256,address,bytes)": {
        "params": {
          "_destWallet": "Optional wallet address on destination chain that will be receiving deposit. If not provided, will use a truncated address based on the _originWallet",
          "_maxMarketMovement": "Slippage parameter (e.g. 950 = 5%, 990 = 1%, etc.)",
          "_originWallet": "Wallet address on origin chain that will be depositing funds cross chain.",
          "_pid": "Pool ID on remote chain",
          "_valueUSD": "Amount in USD to deposit",
          "_weeksCommitted": "Number of weeks to commit deposit for in vault"
        },
        "returns": {
          "payload": "The ABI encoded payload"
        }
      },
      "encodeXChainDistributeEarningsPayload(uint256,uint256,uint256,uint256,uint256)": {
        "params": {
          "_accSlashedRewards": "Accumulated slashed rewards on chain",
          "_amountUSDBuyback": "Amount in USD to buy back",
          "_amountUSDRevShare": "Amount in USD to rev share with ZOR staking vault",
          "_maxMarketMovement": "factor to account for max market movement/slippage.",
          "_remoteChainId": "Zorro chain ID of the chain making the distribution request"
        },
        "returns": {
          "_0": "bytes ABI encoded payload"
        }
      },
      "encodeXChainRepatriationPayload(uint256,uint256,uint256,bytes,uint256)": {
        "params": {
          "_originChainId": "Zorro chain ID of chain that funds shall be repatriated back to",
          "_originRecipient": "Recipient on home chain that repatriated funds shall be sent to",
          "_pid": "Pool ID on current chain that withdrawal came from",
          "_rewardsDue": "ZOR rewards due to the recipient",
          "_trancheId": "Tranche ID on current chain that withdrawal came from"
        },
        "returns": {
          "_0": "bytes ABI encoded payload"
        }
      },
      "encodeXChainWithdrawalPayload(uint256,bytes,uint256,uint256,uint256)": {
        "params": {
          "_maxMarketMovement": "Slippage parameter (e.g. 950 = 5%, 990 = 1%, etc.)",
          "_originAccount": "Account on origin chain that withdrawal request originated from",
          "_originChainId": "Chain that withdrawal request originated from",
          "_pid": "Pool ID on remote chain",
          "_trancheId": "Tranche ID on remote chain"
        },
        "returns": {
          "_0": "bytes ABI encoded payload"
        }
      },
      "extractParamsPayload(bytes)": {
        "params": {
          "_payloadWithSig": "ABI encoded payload with function selector"
        },
        "returns": {
          "paramsPayload": "Payload with params only"
        }
      },
      "getLZAdapterParamsForWithdraw(uint256)": {
        "params": {
          "_gasForDestinationLZReceive": "How much additional gas to provide at destination contract"
        },
        "returns": {
          "_0": "bytes Adapter payload"
        }
      },
      "initialize(address,address,address)": {
        "params": {
          "_lzEndpoint": "Address of LayerZero endpoint for this chain",
          "_stargateRouter": "Address of Stargate router",
          "_uniRouter": "Address of Uniswap style router for swaps"
        }
      },
      "joinPool(address,address,uint256,uint256,uint256,address)": {
        "details": "NOTE: Requires spending approval by caller",
        "params": {
          "_maxMarketMovementAllowed": "The max slippage allowed for swaps. 1000 = 0 %, 995 = 0.5%, etc.",
          "_recipient": "The recipient of the LP token",
          "_token0": "The address of Token0",
          "_token0Amt": "Quantity of Token0 to add",
          "_token1": "The address of Token1",
          "_token1Amt": "Quantity of Token1 to add"
        }
      },
      "owner()": {
        "details": "Returns the address of the current owner."
      },
      "renounceOwnership()": {
        "details": "Leaves the contract without owner. It will not be possible to call `onlyOwner` functions anymore. Can only be called by the current owner. NOTE: Renouncing ownership will leave the contract without an owner, thereby removing any functionality that is only available to the owner."
      },
      "safeSwap((uint256,uint256,uint256,address,address,uint256,address[],address))": {
        "details": "NOTE: Caller must approve tokens for spending beforehand",
        "params": {
          "_swapParams": "SafeSwapParams for swap"
        }
      },
      "transferOwnership(address)": {
        "details": "Transfers ownership of the contract to a new account (`newOwner`). Can only be called by the current owner."
      }
    },
    "version": 1
  },
  "userdoc": {
    "kind": "user",
    "methods": {
      "bytesToAddress(bytes)": {
        "notice": "Decodes bytes array to address"
      },
      "checkXChainDepositFee(uint16,bytes,bytes)": {
        "notice": "Checks to see how much a cross chain deposit will cost"
      },
      "checkXChainDistributeEarningsFee(uint16,address,bytes)": {
        "notice": "Checks to see how much a cross chain earnings distribution will cost"
      },
      "checkXChainRepatriationFee(uint16,bytes,bytes)": {
        "notice": "Estimates fees for repatriation operation"
      },
      "checkXChainWithdrawalFee(uint16,bytes,uint256)": {
        "notice": "Checks to see how much a cross chain withdrawal will cost"
      },
      "distributeEarnings(address,uint256,uint256,uint256,(address,address,address,address,address,address,address,address[],address[]),(address,address,address,address,address,address,address[]))": {
        "notice": "Receives an authorized request from remote chains to perform earnings fee distribution events, such as: buyback + LP + burn, and revenue share"
      },
      "encodeXChainDepositPayload(uint256,uint256,uint256,uint256,address,bytes)": {
        "notice": "Encodes payload for making cross chan deposit"
      },
      "encodeXChainDistributeEarningsPayload(uint256,uint256,uint256,uint256,uint256)": {
        "notice": "Encodes payload for making cross chan earnings distribution request"
      },
      "encodeXChainRepatriationPayload(uint256,uint256,uint256,bytes,uint256)": {
        "notice": "Encodes payload for making cross chain repatriation"
      },
      "encodeXChainWithdrawalPayload(uint256,bytes,uint256,uint256,uint256)": {
        "notice": "Encodes payload for making cross chan withdrawal"
      },
      "extractParamsPayload(bytes)": {
        "notice": "Removes function signature from ABI encoded payload"
      },
      "getLZAdapterParamsForWithdraw(uint256)": {
        "notice": "Encodes adapter params to provide more gas for destination"
      },
      "initialize(address,address,address)": {
        "notice": "Constructor"
      },
      "joinPool(address,address,uint256,uint256,uint256,address)": {
        "notice": "Adds liquidity to the pool of this contract"
      },
      "safeSwap((uint256,uint256,uint256,address,address,uint256,address[],address))": {
        "notice": "Safely swaps tokens using the most suitable protocol based on token"
      }
    },
    "version": 1
  }
}