{
  "contractName": "ZorroController",
  "abi": [
    {
      "inputs": [
        {
          "internalType": "address",
          "name": "_timelockOwner",
          "type": "address"
        },
        {
          "internalType": "address",
          "name": "_zorroToken",
          "type": "address"
        },
        {
          "internalType": "uint256",
          "name": "_startBlock",
          "type": "uint256"
        },
        {
          "internalType": "address",
          "name": "_publicPool",
          "type": "address"
        },
        {
          "internalType": "uint256",
          "name": "_BSCMarketTVLUSD",
          "type": "uint256"
        },
        {
          "internalType": "uint256",
          "name": "_ZorroTotalVaultTVLUSD",
          "type": "uint256"
        },
        {
          "internalType": "uint256",
          "name": "_targetTVLCaptureBasisPoints",
          "type": "uint256"
        },
        {
          "internalType": "address",
          "name": "_defaultStablecoin",
          "type": "address"
        }
      ],
      "stateMutability": "nonpayable",
      "type": "constructor"
    },
    {
      "anonymous": false,
      "inputs": [
        {
          "indexed": true,
          "internalType": "address",
          "name": "user",
          "type": "address"
        },
        {
          "indexed": true,
          "internalType": "uint256",
          "name": "pid",
          "type": "uint256"
        },
        {
          "indexed": true,
          "internalType": "uint256",
          "name": "settlementEpoch",
          "type": "uint256"
        },
        {
          "indexed": false,
          "internalType": "uint256",
          "name": "value",
          "type": "uint256"
        },
        {
          "indexed": false,
          "internalType": "address",
          "name": "token",
          "type": "address"
        }
      ],
      "name": "ClaimCreated",
      "type": "event"
    },
    {
      "anonymous": false,
      "inputs": [
        {
          "indexed": true,
          "internalType": "address",
          "name": "user",
          "type": "address"
        },
        {
          "indexed": true,
          "internalType": "uint256",
          "name": "pid",
          "type": "uint256"
        },
        {
          "indexed": false,
          "internalType": "uint256",
          "name": "wantAmount",
          "type": "uint256"
        }
      ],
      "name": "Deposit",
      "type": "event"
    },
    {
      "anonymous": false,
      "inputs": [
        {
          "indexed": true,
          "internalType": "address",
          "name": "previousOwner",
          "type": "address"
        },
        {
          "indexed": true,
          "internalType": "address",
          "name": "newOwner",
          "type": "address"
        }
      ],
      "name": "OwnershipTransferred",
      "type": "event"
    },
    {
      "anonymous": false,
      "inputs": [
        {
          "indexed": false,
          "internalType": "address",
          "name": "user",
          "type": "address"
        },
        {
          "indexed": true,
          "internalType": "uint256",
          "name": "fromPid",
          "type": "uint256"
        },
        {
          "indexed": true,
          "internalType": "uint256",
          "name": "fromTrancheId",
          "type": "uint256"
        },
        {
          "indexed": true,
          "internalType": "uint256",
          "name": "toPid",
          "type": "uint256"
        }
      ],
      "name": "TransferInvestment",
      "type": "event"
    },
    {
      "anonymous": false,
      "inputs": [
        {
          "indexed": true,
          "internalType": "address",
          "name": "user",
          "type": "address"
        },
        {
          "indexed": true,
          "internalType": "uint256",
          "name": "pid",
          "type": "uint256"
        },
        {
          "indexed": false,
          "internalType": "uint256",
          "name": "trancheId",
          "type": "uint256"
        },
        {
          "indexed": false,
          "internalType": "uint256",
          "name": "wantAmount",
          "type": "uint256"
        }
      ],
      "name": "Withdraw",
      "type": "event"
    },
    {
      "inputs": [],
      "name": "BSCMarketTVLUSD",
      "outputs": [
        {
          "internalType": "uint256",
          "name": "",
          "type": "uint256"
        }
      ],
      "stateMutability": "view",
      "type": "function"
    },
    {
      "inputs": [
        {
          "internalType": "uint256",
          "name": "",
          "type": "uint256"
        }
      ],
      "name": "USDCToZORPath",
      "outputs": [
        {
          "internalType": "address",
          "name": "",
          "type": "address"
        }
      ],
      "stateMutability": "view",
      "type": "function"
    },
    {
      "inputs": [
        {
          "internalType": "uint256",
          "name": "",
          "type": "uint256"
        }
      ],
      "name": "USDCToZorroLPPoolToken0Path",
      "outputs": [
        {
          "internalType": "address",
          "name": "",
          "type": "address"
        }
      ],
      "stateMutability": "view",
      "type": "function"
    },
    {
      "inputs": [
        {
          "internalType": "uint256",
          "name": "",
          "type": "uint256"
        }
      ],
      "name": "USDCToZorroLPPoolToken1Path",
      "outputs": [
        {
          "internalType": "address",
          "name": "",
          "type": "address"
        }
      ],
      "stateMutability": "view",
      "type": "function"
    },
    {
      "inputs": [],
      "name": "ZORRO",
      "outputs": [
        {
          "internalType": "address",
          "name": "",
          "type": "address"
        }
      ],
      "stateMutability": "view",
      "type": "function"
    },
    {
      "inputs": [],
      "name": "ZORRODailyDistributionFactorBasisPointsMax",
      "outputs": [
        {
          "internalType": "uint256",
          "name": "",
          "type": "uint256"
        }
      ],
      "stateMutability": "view",
      "type": "function"
    },
    {
      "inputs": [],
      "name": "ZORRODailyDistributionFactorBasisPointsMin",
      "outputs": [
        {
          "internalType": "uint256",
          "name": "",
          "type": "uint256"
        }
      ],
      "stateMutability": "view",
      "type": "function"
    },
    {
      "inputs": [],
      "name": "ZorroTotalVaultTVLUSD",
      "outputs": [
        {
          "internalType": "uint256",
          "name": "",
          "type": "uint256"
        }
      ],
      "stateMutability": "view",
      "type": "function"
    },
    {
      "inputs": [
        {
          "internalType": "uint256",
          "name": "_allocPoint",
          "type": "uint256"
        },
        {
          "internalType": "contract IERC20",
          "name": "_want",
          "type": "address"
        },
        {
          "internalType": "bool",
          "name": "_withUpdate",
          "type": "bool"
        },
        {
          "internalType": "address",
          "name": "_vault",
          "type": "address"
        },
        {
          "internalType": "address",
          "name": "_intermediaryToken",
          "type": "address"
        }
      ],
      "name": "add",
      "outputs": [],
      "stateMutability": "nonpayable",
      "type": "function"
    },
    {
      "inputs": [],
      "name": "baseRewardRateBasisPoints",
      "outputs": [
        {
          "internalType": "uint256",
          "name": "",
          "type": "uint256"
        }
      ],
      "stateMutability": "view",
      "type": "function"
    },
    {
      "inputs": [],
      "name": "blocksPerDay",
      "outputs": [
        {
          "internalType": "uint256",
          "name": "",
          "type": "uint256"
        }
      ],
      "stateMutability": "view",
      "type": "function"
    },
    {
      "inputs": [],
      "name": "burnAddress",
      "outputs": [
        {
          "internalType": "address",
          "name": "",
          "type": "address"
        }
      ],
      "stateMutability": "view",
      "type": "function"
    },
    {
      "inputs": [
        {
          "internalType": "uint256",
          "name": "_pid",
          "type": "uint256"
        },
        {
          "internalType": "address",
          "name": "_earnedAddress",
          "type": "address"
        },
        {
          "internalType": "uint256",
          "name": "_buybackAmount",
          "type": "uint256"
        },
        {
          "internalType": "uint256",
          "name": "_revShareAmount",
          "type": "uint256"
        },
        {
          "internalType": "address[]",
          "name": "_earnedToZORPath",
          "type": "address[]"
        },
        {
          "internalType": "address[]",
          "name": "_earnedToZORLPPoolToken0Path",
          "type": "address[]"
        },
        {
          "internalType": "address[]",
          "name": "_earnedToZORLPPoolToken1Path",
          "type": "address[]"
        }
      ],
      "name": "buyBackAndRevShare",
      "outputs": [],
      "stateMutability": "nonpayable",
      "type": "function"
    },
    {
      "inputs": [],
      "name": "chainId",
      "outputs": [
        {
          "internalType": "uint256",
          "name": "",
          "type": "uint256"
        }
      ],
      "stateMutability": "view",
      "type": "function"
    },
    {
      "inputs": [
        {
          "internalType": "uint256",
          "name": "",
          "type": "uint256"
        },
        {
          "internalType": "address",
          "name": "",
          "type": "address"
        },
        {
          "internalType": "address",
          "name": "",
          "type": "address"
        }
      ],
      "name": "claims",
      "outputs": [
        {
          "internalType": "uint256",
          "name": "preSettlementAmount",
          "type": "uint256"
        },
        {
          "internalType": "uint256",
          "name": "settlementEpoch",
          "type": "uint256"
        },
        {
          "internalType": "bool",
          "name": "settled",
          "type": "bool"
        },
        {
          "internalType": "uint256",
          "name": "reason",
          "type": "uint256"
        }
      ],
      "stateMutability": "view",
      "type": "function"
    },
    {
      "inputs": [],
      "name": "curveStablePoolAddress",
      "outputs": [
        {
          "internalType": "address",
          "name": "",
          "type": "address"
        }
      ],
      "stateMutability": "view",
      "type": "function"
    },
    {
      "inputs": [],
      "name": "defaultMaxMarketMovement",
      "outputs": [
        {
          "internalType": "uint256",
          "name": "",
          "type": "uint256"
        }
      ],
      "stateMutability": "view",
      "type": "function"
    },
    {
      "inputs": [],
      "name": "defaultStablecoin",
      "outputs": [
        {
          "internalType": "address",
          "name": "",
          "type": "address"
        }
      ],
      "stateMutability": "view",
      "type": "function"
    },
    {
      "inputs": [],
      "name": "defaultStablecoinIndex",
      "outputs": [
        {
          "internalType": "int128",
          "name": "",
          "type": "int128"
        }
      ],
      "stateMutability": "view",
      "type": "function"
    },
    {
      "inputs": [
        {
          "internalType": "uint256",
          "name": "_pid",
          "type": "uint256"
        },
        {
          "internalType": "uint256",
          "name": "_wantAmt",
          "type": "uint256"
        },
        {
          "internalType": "uint256",
          "name": "_weeksCommitted",
          "type": "uint256"
        }
      ],
      "name": "deposit",
      "outputs": [],
      "stateMutability": "nonpayable",
      "type": "function"
    },
    {
      "inputs": [
        {
          "internalType": "uint256",
          "name": "_pid",
          "type": "uint256"
        },
        {
          "internalType": "uint256",
          "name": "_valueUSDC",
          "type": "uint256"
        },
        {
          "internalType": "uint256",
          "name": "_weeksCommitted",
          "type": "uint256"
        },
        {
          "internalType": "uint256",
          "name": "_maxMarketMovement",
          "type": "uint256"
        }
      ],
      "name": "depositFullService",
      "outputs": [],
      "stateMutability": "nonpayable",
      "type": "function"
    },
    {
      "inputs": [
        {
          "internalType": "uint256",
          "name": "",
          "type": "uint256"
        }
      ],
      "name": "endpointContracts",
      "outputs": [
        {
          "internalType": "address",
          "name": "",
          "type": "address"
        }
      ],
      "stateMutability": "view",
      "type": "function"
    },
    {
      "inputs": [],
      "name": "failedLockedBuybackUSDC",
      "outputs": [
        {
          "internalType": "uint256",
          "name": "",
          "type": "uint256"
        }
      ],
      "stateMutability": "view",
      "type": "function"
    },
    {
      "inputs": [],
      "name": "failedLockedRevShareUSDC",
      "outputs": [
        {
          "internalType": "uint256",
          "name": "",
          "type": "uint256"
        }
      ],
      "stateMutability": "view",
      "type": "function"
    },
    {
      "inputs": [],
      "name": "getZorroPerBlock",
      "outputs": [
        {
          "internalType": "uint256",
          "name": "",
          "type": "uint256"
        }
      ],
      "stateMutability": "view",
      "type": "function"
    },
    {
      "inputs": [],
      "name": "homeChainZorroController",
      "outputs": [
        {
          "internalType": "address",
          "name": "",
          "type": "address"
        }
      ],
      "stateMutability": "view",
      "type": "function"
    },
    {
      "inputs": [
        {
          "internalType": "address",
          "name": "_token",
          "type": "address"
        },
        {
          "internalType": "uint256",
          "name": "_amount",
          "type": "uint256"
        }
      ],
      "name": "inCaseTokensGetStuck",
      "outputs": [],
      "stateMutability": "nonpayable",
      "type": "function"
    },
    {
      "inputs": [],
      "name": "isTimeMultiplierActive",
      "outputs": [
        {
          "internalType": "bool",
          "name": "",
          "type": "bool"
        }
      ],
      "stateMutability": "view",
      "type": "function"
    },
    {
      "inputs": [],
      "name": "lockUSDCController",
      "outputs": [
        {
          "internalType": "address",
          "name": "",
          "type": "address"
        }
      ],
      "stateMutability": "view",
      "type": "function"
    },
    {
      "inputs": [
        {
          "internalType": "uint256",
          "name": "",
          "type": "uint256"
        },
        {
          "internalType": "uint256",
          "name": "",
          "type": "uint256"
        }
      ],
      "name": "lockedEarningsStatus",
      "outputs": [
        {
          "internalType": "uint8",
          "name": "",
          "type": "uint8"
        }
      ],
      "stateMutability": "view",
      "type": "function"
    },
    {
      "inputs": [],
      "name": "massUpdatePools",
      "outputs": [],
      "stateMutability": "nonpayable",
      "type": "function"
    },
    {
      "inputs": [],
      "name": "owner",
      "outputs": [
        {
          "internalType": "address",
          "name": "",
          "type": "address"
        }
      ],
      "stateMutability": "view",
      "type": "function"
    },
    {
      "inputs": [
        {
          "internalType": "uint256",
          "name": "_pid",
          "type": "uint256"
        },
        {
          "internalType": "address",
          "name": "_user",
          "type": "address"
        }
      ],
      "name": "pendingZORRORewards",
      "outputs": [
        {
          "internalType": "uint256",
          "name": "",
          "type": "uint256"
        }
      ],
      "stateMutability": "view",
      "type": "function"
    },
    {
      "inputs": [
        {
          "internalType": "uint256",
          "name": "",
          "type": "uint256"
        }
      ],
      "name": "poolInfo",
      "outputs": [
        {
          "internalType": "contract IERC20",
          "name": "want",
          "type": "address"
        },
        {
          "internalType": "uint256",
          "name": "allocPoint",
          "type": "uint256"
        },
        {
          "internalType": "uint256",
          "name": "lastRewardBlock",
          "type": "uint256"
        },
        {
          "internalType": "uint256",
          "name": "accZORRORewards",
          "type": "uint256"
        },
        {
          "internalType": "uint256",
          "name": "totalTrancheContributions",
          "type": "uint256"
        },
        {
          "internalType": "address",
          "name": "vault",
          "type": "address"
        },
        {
          "internalType": "address",
          "name": "intermediaryToken",
          "type": "address"
        }
      ],
      "stateMutability": "view",
      "type": "function"
    },
    {
      "inputs": [],
      "name": "poolLength",
      "outputs": [
        {
          "internalType": "uint256",
          "name": "",
          "type": "uint256"
        }
      ],
      "stateMutability": "view",
      "type": "function"
    },
    {
      "inputs": [],
      "name": "publicPool",
      "outputs": [
        {
          "internalType": "address",
          "name": "",
          "type": "address"
        }
      ],
      "stateMutability": "view",
      "type": "function"
    },
    {
      "inputs": [
        {
          "internalType": "uint256",
          "name": "_amountUSDCBuyback",
          "type": "uint256"
        },
        {
          "internalType": "uint256",
          "name": "_amountUSDCRevShare",
          "type": "uint256"
        },
        {
          "internalType": "uint256",
          "name": "_failedAmountUSDCBuyback",
          "type": "uint256"
        },
        {
          "internalType": "uint256",
          "name": "_failedAmountUSDCRevShare",
          "type": "uint256"
        }
      ],
      "name": "receiveBurnLockedEarningsRequest",
      "outputs": [],
      "stateMutability": "nonpayable",
      "type": "function"
    },
    {
      "inputs": [
        {
          "internalType": "uint256",
          "name": "_amount",
          "type": "uint256"
        }
      ],
      "name": "receiveXChainBurnRewardsRequest",
      "outputs": [],
      "stateMutability": "nonpayable",
      "type": "function"
    },
    {
      "inputs": [
        {
          "internalType": "uint256",
          "name": "_chainId",
          "type": "uint256"
        },
        {
          "internalType": "bytes",
          "name": "_callbackContract",
          "type": "bytes"
        },
        {
          "internalType": "uint256",
          "name": "_amountUSDCBuyback",
          "type": "uint256"
        },
        {
          "internalType": "uint256",
          "name": "_amountUSDCRevShare",
          "type": "uint256"
        },
        {
          "internalType": "uint256",
          "name": "_failedAmountUSDCBuyback",
          "type": "uint256"
        },
        {
          "internalType": "uint256",
          "name": "_failedAmountUSDCRevShare",
          "type": "uint256"
        }
      ],
      "name": "receiveXChainDistributionRequest",
      "outputs": [],
      "stateMutability": "nonpayable",
      "type": "function"
    },
    {
      "inputs": [
        {
          "internalType": "address",
          "name": "_account",
          "type": "address"
        },
        {
          "internalType": "uint256",
          "name": "_withdrawnUSDC",
          "type": "uint256"
        },
        {
          "internalType": "uint256",
          "name": "_chainId",
          "type": "uint256"
        },
        {
          "internalType": "uint256",
          "name": "_originalDepositUSDC",
          "type": "uint256"
        },
        {
          "internalType": "uint256",
          "name": "_pid",
          "type": "uint256"
        },
        {
          "internalType": "uint256",
          "name": "_trancheId",
          "type": "uint256"
        },
        {
          "internalType": "uint256",
          "name": "_maxMarketMovement",
          "type": "uint256"
        },
        {
          "internalType": "address",
          "name": "_callbackContract",
          "type": "address"
        }
      ],
      "name": "receiveXChainRepatriationRequest",
      "outputs": [],
      "stateMutability": "nonpayable",
      "type": "function"
    },
    {
      "inputs": [
        {
          "internalType": "address",
          "name": "_account",
          "type": "address"
        },
        {
          "internalType": "uint256",
          "name": "_amountUSDC",
          "type": "uint256"
        }
      ],
      "name": "receiveXChainUnlockRequest",
      "outputs": [],
      "stateMutability": "nonpayable",
      "type": "function"
    },
    {
      "inputs": [
        {
          "internalType": "uint256",
          "name": "_blockNumber",
          "type": "uint256"
        },
        {
          "internalType": "uint256",
          "name": "_pid",
          "type": "uint256"
        },
        {
          "internalType": "uint256",
          "name": "_amountBuybackUSDC",
          "type": "uint256"
        },
        {
          "internalType": "uint256",
          "name": "_amountRevShareUSDC",
          "type": "uint256"
        }
      ],
      "name": "recoverXChainFeeDist",
      "outputs": [],
      "stateMutability": "nonpayable",
      "type": "function"
    },
    {
      "inputs": [
        {
          "internalType": "uint256",
          "name": "",
          "type": "uint256"
        },
        {
          "internalType": "address",
          "name": "",
          "type": "address"
        }
      ],
      "name": "redepositInfo",
      "outputs": [
        {
          "internalType": "uint256",
          "name": "durationCommittedInWeeks",
          "type": "uint256"
        },
        {
          "internalType": "uint256",
          "name": "enteredVaultAt",
          "type": "uint256"
        }
      ],
      "stateMutability": "view",
      "type": "function"
    },
    {
      "inputs": [],
      "name": "renounceOwnership",
      "outputs": [],
      "stateMutability": "nonpayable",
      "type": "function"
    },
    {
      "inputs": [
        {
          "internalType": "address",
          "name": "_account",
          "type": "address"
        },
        {
          "internalType": "uint256",
          "name": "_amountUSDC",
          "type": "uint256"
        }
      ],
      "name": "revertXChainDeposit",
      "outputs": [],
      "stateMutability": "nonpayable",
      "type": "function"
    },
    {
      "inputs": [
        {
          "internalType": "uint256",
          "name": "_chainId",
          "type": "uint256"
        },
        {
          "internalType": "bytes",
          "name": "_destinationContract",
          "type": "bytes"
        },
        {
          "internalType": "bytes",
          "name": "_payload",
          "type": "bytes"
        }
      ],
      "name": "sendXChainDepositRequest",
      "outputs": [],
      "stateMutability": "nonpayable",
      "type": "function"
    },
    {
      "inputs": [
        {
          "internalType": "uint256",
          "name": "_chainId",
          "type": "uint256"
        },
        {
          "internalType": "bytes",
          "name": "_destinationContract",
          "type": "bytes"
        },
        {
          "internalType": "bytes",
          "name": "_payload",
          "type": "bytes"
        }
      ],
      "name": "sendXChainWithdrawalRequest",
      "outputs": [],
      "stateMutability": "nonpayable",
      "type": "function"
    },
    {
      "inputs": [
        {
          "internalType": "uint256",
          "name": "_pid",
          "type": "uint256"
        },
        {
          "internalType": "uint256",
          "name": "_allocPoint",
          "type": "uint256"
        },
        {
          "internalType": "bool",
          "name": "_withUpdate",
          "type": "bool"
        },
        {
          "internalType": "address",
          "name": "_intermediaryToken",
          "type": "address"
        }
      ],
      "name": "set",
      "outputs": [],
      "stateMutability": "nonpayable",
      "type": "function"
    },
    {
      "inputs": [
        {
          "internalType": "uint256",
          "name": "_BSCMarketTVLUSD",
          "type": "uint256"
        }
      ],
      "name": "setBSCMarketTVLUSD",
      "outputs": [],
      "stateMutability": "nonpayable",
      "type": "function"
    },
    {
      "inputs": [
        {
          "internalType": "uint256",
          "name": "_baseRewardRateBasisPoints",
          "type": "uint256"
        }
      ],
      "name": "setBaseRewardRateBasisPoints",
      "outputs": [],
      "stateMutability": "nonpayable",
      "type": "function"
    },
    {
      "inputs": [
        {
          "internalType": "uint256",
          "name": "_blocksPerDay",
          "type": "uint256"
        }
      ],
      "name": "setBlocksPerDay",
      "outputs": [],
      "stateMutability": "nonpayable",
      "type": "function"
    },
    {
      "inputs": [
        {
          "internalType": "uint256",
          "name": "_chainId",
          "type": "uint256"
        },
        {
          "internalType": "address",
          "name": "_endpointContract",
          "type": "address"
        }
      ],
      "name": "setEndpointContracts",
      "outputs": [],
      "stateMutability": "nonpayable",
      "type": "function"
    },
    {
      "inputs": [
        {
          "internalType": "bool",
          "name": "_isActive",
          "type": "bool"
        }
      ],
      "name": "setIsTimeMultiplierActive",
      "outputs": [],
      "stateMutability": "nonpayable",
      "type": "function"
    },
    {
      "inputs": [
        {
          "internalType": "address",
          "name": "_publicPoolAddress",
          "type": "address"
        }
      ],
      "name": "setPublicPool",
      "outputs": [],
      "stateMutability": "nonpayable",
      "type": "function"
    },
    {
      "inputs": [
        {
          "internalType": "uint256",
          "name": "_blockNumber",
          "type": "uint256"
        }
      ],
      "name": "setStartBlock",
      "outputs": [],
      "stateMutability": "nonpayable",
      "type": "function"
    },
    {
      "inputs": [
        {
          "internalType": "uint256",
          "name": "_targetTVLCaptureBasisPoints",
          "type": "uint256"
        }
      ],
      "name": "setTargetTVLCaptureBasisPoints",
      "outputs": [],
      "stateMutability": "nonpayable",
      "type": "function"
    },
    {
      "inputs": [
        {
          "internalType": "uint256",
          "name": "_value",
          "type": "uint256"
        }
      ],
      "name": "setZORRODailyDistributionFactorBasisPointsMax",
      "outputs": [],
      "stateMutability": "nonpayable",
      "type": "function"
    },
    {
      "inputs": [
        {
          "internalType": "uint256",
          "name": "_value",
          "type": "uint256"
        }
      ],
      "name": "setZORRODailyDistributionFactorBasisPointsMin",
      "outputs": [],
      "stateMutability": "nonpayable",
      "type": "function"
    },
    {
      "inputs": [
        {
          "internalType": "uint256",
          "name": "_ZorroTotalVaultTVLUSD",
          "type": "uint256"
        }
      ],
      "name": "setZorroTotalVaultTVLUSD",
      "outputs": [],
      "stateMutability": "nonpayable",
      "type": "function"
    },
    {
      "inputs": [
        {
          "internalType": "uint256",
          "name": "_pid",
          "type": "uint256"
        },
        {
          "internalType": "address",
          "name": "_user",
          "type": "address"
        }
      ],
      "name": "stakedWantTokens",
      "outputs": [
        {
          "internalType": "uint256",
          "name": "",
          "type": "uint256"
        }
      ],
      "stateMutability": "view",
      "type": "function"
    },
    {
      "inputs": [],
      "name": "startBlock",
      "outputs": [
        {
          "internalType": "uint256",
          "name": "",
          "type": "uint256"
        }
      ],
      "stateMutability": "view",
      "type": "function"
    },
    {
      "inputs": [],
      "name": "synthethicStablecoinIndex",
      "outputs": [
        {
          "internalType": "int128",
          "name": "",
          "type": "int128"
        }
      ],
      "stateMutability": "view",
      "type": "function"
    },
    {
      "inputs": [],
      "name": "syntheticStablecoin",
      "outputs": [
        {
          "internalType": "address",
          "name": "",
          "type": "address"
        }
      ],
      "stateMutability": "view",
      "type": "function"
    },
    {
      "inputs": [],
      "name": "targetTVLCaptureBasisPoints",
      "outputs": [
        {
          "internalType": "uint256",
          "name": "",
          "type": "uint256"
        }
      ],
      "stateMutability": "view",
      "type": "function"
    },
    {
      "inputs": [],
      "name": "totalAllocPoint",
      "outputs": [
        {
          "internalType": "uint256",
          "name": "",
          "type": "uint256"
        }
      ],
      "stateMutability": "view",
      "type": "function"
    },
    {
      "inputs": [
        {
          "internalType": "uint256",
          "name": "",
          "type": "uint256"
        },
        {
          "internalType": "address",
          "name": "",
          "type": "address"
        },
        {
          "internalType": "uint256",
          "name": "",
          "type": "uint256"
        }
      ],
      "name": "trancheInfo",
      "outputs": [
        {
          "internalType": "uint256",
          "name": "contribution",
          "type": "uint256"
        },
        {
          "internalType": "uint256",
          "name": "timeMultiplier",
          "type": "uint256"
        },
        {
          "internalType": "uint256",
          "name": "rewardDebt",
          "type": "uint256"
        },
        {
          "internalType": "uint256",
          "name": "durationCommittedInWeeks",
          "type": "uint256"
        },
        {
          "internalType": "uint256",
          "name": "enteredVaultAt",
          "type": "uint256"
        },
        {
          "internalType": "uint256",
          "name": "exitedVaultStartingAt",
          "type": "uint256"
        }
      ],
      "stateMutability": "view",
      "type": "function"
    },
    {
      "inputs": [
        {
          "internalType": "uint256",
          "name": "_pid",
          "type": "uint256"
        },
        {
          "internalType": "address",
          "name": "_user",
          "type": "address"
        }
      ],
      "name": "trancheLength",
      "outputs": [
        {
          "internalType": "uint256",
          "name": "",
          "type": "uint256"
        }
      ],
      "stateMutability": "view",
      "type": "function"
    },
    {
      "inputs": [
        {
          "internalType": "uint256",
          "name": "_fromPid",
          "type": "uint256"
        },
        {
          "internalType": "uint256",
          "name": "_fromTrancheId",
          "type": "uint256"
        },
        {
          "internalType": "uint256",
          "name": "_toPid",
          "type": "uint256"
        },
        {
          "internalType": "uint256",
          "name": "_maxMarketMovement",
          "type": "uint256"
        }
      ],
      "name": "transferInvestment",
      "outputs": [],
      "stateMutability": "nonpayable",
      "type": "function"
    },
    {
      "inputs": [
        {
          "internalType": "address",
          "name": "newOwner",
          "type": "address"
        }
      ],
      "name": "transferOwnership",
      "outputs": [],
      "stateMutability": "nonpayable",
      "type": "function"
    },
    {
      "inputs": [],
      "name": "uniRouterAddress",
      "outputs": [
        {
          "internalType": "address",
          "name": "",
          "type": "address"
        }
      ],
      "stateMutability": "view",
      "type": "function"
    },
    {
      "inputs": [
        {
          "internalType": "uint256",
          "name": "_pid",
          "type": "uint256"
        }
      ],
      "name": "updatePool",
      "outputs": [],
      "stateMutability": "nonpayable",
      "type": "function"
    },
    {
      "inputs": [
        {
          "internalType": "uint256",
          "name": "_pid",
          "type": "uint256"
        },
        {
          "internalType": "uint256",
          "name": "_trancheId",
          "type": "uint256"
        },
        {
          "internalType": "bool",
          "name": "_harvestOnly",
          "type": "bool"
        }
      ],
      "name": "withdraw",
      "outputs": [
        {
          "internalType": "uint256",
          "name": "",
          "type": "uint256"
        }
      ],
      "stateMutability": "nonpayable",
      "type": "function"
    },
    {
      "inputs": [
        {
          "internalType": "uint256",
          "name": "_pid",
          "type": "uint256"
        }
      ],
      "name": "withdrawAll",
      "outputs": [],
      "stateMutability": "nonpayable",
      "type": "function"
    },
    {
      "inputs": [
        {
          "internalType": "uint256",
          "name": "_pid",
          "type": "uint256"
        },
        {
          "internalType": "uint256",
          "name": "_trancheId",
          "type": "uint256"
        },
        {
          "internalType": "bool",
          "name": "_harvestOnly",
          "type": "bool"
        },
        {
          "internalType": "uint256",
          "name": "_maxMarketMovement",
          "type": "uint256"
        }
      ],
      "name": "withdrawalFullService",
      "outputs": [
        {
          "internalType": "uint256",
          "name": "",
          "type": "uint256"
        }
      ],
      "stateMutability": "nonpayable",
      "type": "function"
    },
    {
      "inputs": [],
      "name": "zorroLPPool",
      "outputs": [
        {
          "internalType": "address",
          "name": "",
          "type": "address"
        }
      ],
      "stateMutability": "view",
      "type": "function"
    },
    {
      "inputs": [],
      "name": "zorroLPPoolToken0",
      "outputs": [
        {
          "internalType": "address",
          "name": "",
          "type": "address"
        }
      ],
      "stateMutability": "view",
      "type": "function"
    },
    {
      "inputs": [],
      "name": "zorroLPPoolToken1",
      "outputs": [
        {
          "internalType": "address",
          "name": "",
          "type": "address"
        }
      ],
      "stateMutability": "view",
      "type": "function"
    },
    {
      "inputs": [],
      "name": "zorroStakingVault",
      "outputs": [
        {
          "internalType": "address",
          "name": "",
          "type": "address"
        }
      ],
      "stateMutability": "view",
      "type": "function"
    }
  ],
  "bytecode": "0x608060405260038054600160a060020a03191661dead179055600a600681905561708090556001600b8190556014600c55600d805460ff191690911790556103ca60195560006023553480156200005557600080fd5b5060405162005ab838038062005ab88339810160408190526200007891620002f3565b6200009e6200008f6401000000006200011f810204565b64010000000062000123810204565b60018055620000b68864010000000062000173810204565b60028054600160a060020a03988916600160a060020a031991821617909155600496909655600580549588169590961694909417909455600791909155600855600991909155600d8054919092166101000261010060a860020a03199091161790555062000377565b3390565b60008054600160a060020a03838116600160a060020a0319831681178455604051919092169283917f8be0079c531659141344cd1fd0a4f28419497f9722a3daafe3b4186f6b6457e09190a35050565b620001866401000000006200011f810204565b600160a060020a0316620001a2640100000000620002c7810204565b600160a060020a03161462000218576040517f08c379a000000000000000000000000000000000000000000000000000000000815260206004820181905260248201527f4f776e61626c653a2063616c6c6572206973206e6f7420746865206f776e657260448201526064015b60405180910390fd5b600160a060020a038116620002b0576040517f08c379a000000000000000000000000000000000000000000000000000000000815260206004820152602660248201527f4f776e61626c653a206e6577206f776e657220697320746865207a65726f206160448201527f646472657373000000000000000000000000000000000000000000000000000060648201526084016200020f565b620002c48164010000000062000123810204565b50565b600054600160a060020a031690565b8051600160a060020a0381168114620002ee57600080fd5b919050565b600080600080600080600080610100898b0312156200031157600080fd5b6200031c89620002d6565b97506200032c60208a01620002d6565b9650604089015195506200034360608a01620002d6565b94506080890151935060a0890151925060c089015191506200036860e08a01620002d6565b90509295985092959890939650565b61573180620003876000396000f3fe608060405234801561001057600080fd5b506004361061046d5760003560e060020a900480637b84daec11610250578063b4b4e9eb1161014a578063cb9c2f68116100c7578063f0782f9b1161008b578063f0782f9b14610ac6578063f2fde38b14610ad9578063f35e4a6e14610aec578063fc39a29e14610aff578063fde2ec9814610b1257600080fd5b8063cb9c2f6814610a7b578063d731234714610a84578063d85c554814610a97578063dea5d70214610aa0578063ed148bf314610ab357600080fd5b8063c27893ef1161010e578063c27893ef146109f2578063c29de0d214610a05578063c4f79c2314610a4c578063c6d758cb14610a5f578063c9057de514610a7257600080fd5b8063b4b4e9eb14610968578063b614bdba146109a8578063b61bb80a146109bb578063bb26a554146109d3578063bd73d359146109df57600080fd5b8063958e2d31116101d8578063a4bce4ef1161019c578063a4bce4ef1461087d578063a4d2b08314610890578063a6fda082146108a3578063a89802d314610915578063afecf2661461095557600080fd5b8063958e2d311461083257806398ee60e9146108455780639a8a0592146108585780639b8ad2d6146108615780639cde7a001461086a57600080fd5b80638b2bc8521161021f5780638b2bc852146107cb5780638c157db2146107de5780638da5cb5b146107f1578063941d3fd01461080257806394909cc21461081f57600080fd5b80637b84daec1461077f5780637bf604d8146107925780637e37c769146107a5578063874ba4f4146107b857600080fd5b80634780f9f51161036c578063693a090b116102e95780636e066eb6116102ad5780636e066eb61461073557806370d5ae0514610748578063715018a61461075b578063745af0a81461076357806376cc23031461077657600080fd5b8063693a090b146106b45780636985b934146106c7578063699c661e146106da5780636c78d49c146106ed5780636d7cb7e61461070057600080fd5b806353f73f871161033057806353f73f871461066a5780635527a6f91461067d5780635a66cc6314610686578063630b5ba114610699578063668ababb146106a157600080fd5b80634780f9f51461061f57806348cd4cb11461063257806348d57c8e1461063b5780634cfea68a1461064e57806351eb05a61461065757600080fd5b8063270d9de4116103fa5780633b9ce565116103be5780633b9ce565146105d55780633bbc1ffc146105de5780634098b0eb146105f1578063416d0de714610604578063441e36c61461061757600080fd5b8063270d9de41461058057806333cfcd3b14610593578063353b6c2c146105a65780633b35b727146105b95780633b710688146105cc57600080fd5b806308da26fc1161044157806308da26fc146104c45780631479a6df146104cd5780631526fe27146104e057806317caf6f1146105365780631ca95f941461053f57600080fd5b8062aeef8a1461047257806305bfc28f14610487578063081e3eda1461049a5780630861429a146104b1575b600080fd5b610485610480366004614b95565b610b25565b005b610485610495366004614bc1565b610b6f565b6021545b6040519081526020015b60405180910390f35b61049e6104bf366004614bef565b610ba1565b61049e60085481565b6104856104db366004614bc1565b610d30565b6104f36104ee366004614bc1565b610d62565b60408051600160a060020a039889168152602081019790975286019490945260608501929092526080840152831660a083015290911660c082015260e0016104a8565b61049e60235481565b61056861054d366004614bc1565b601060205260009081526040902054600160a060020a031681565b604051600160a060020a0390911681526020016104a8565b61048561058e366004614c6a565b610dbf565b61049e6105a1366004614d44565b610ed5565b6104856105b4366004614bc1565b610f1a565b6104856105c7366004614bc1565b610f4c565b61049e60065481565b61049e600c5481565b6104856105ec366004614bc1565b610f7e565b6104856105ff366004614bc1565b610fb0565b600e5461056890600160a060020a031681565b61049e610fe2565b61048561062d366004614d7d565b6110e3565b61049e60045481565b60115461056890600160a060020a031681565b61049e600a5481565b610485610665366004614bc1565b611126565b61049e610678366004614bef565b6113a0565b61049e600b5481565b610485610694366004614df1565b6113c8565b61048561188b565b60055461056890600160a060020a031681565b60125461056890600160a060020a031681565b6104856106d5366004614bc1565b611918565b6104856106e8366004614e60565b611995565b6104856106fb366004614eda565b611b12565b600f805461072291700100000000000000000000000000000000909104900b81565b604051600f9190910b81526020016104a8565b610485610743366004614ef7565b611b52565b60035461056890600160a060020a031681565b610485611c5a565b61049e610771366004614f23565b611c93565b61049e60185481565b61049e61078d366004614bef565b611cdd565b601a5461056890600160a060020a031681565b6104856107b3366004614d7d565b611ef9565b6104856107c6366004614f62565b612057565b601c5461056890600160a060020a031681565b60025461056890600160a060020a031681565b600054600160a060020a0316610568565b600d5461080f9060ff1681565b60405190151581526020016104a8565b61048561082d366004614fd5565b6123ee565b610485610840366004614bc1565b61244a565b610568610853366004614bc1565b6124ab565b61049e60155481565b61049e60195481565b610568610878366004614bc1565b6124d5565b61048561088b366004614e60565b6124e5565b601d5461056890600160a060020a031681565b6108ef6108b1366004614ff2565b602460209081526000938452604080852082529284528284209052825290208054600182015460028301546003909301549192909160ff9091169084565b6040805194855260208501939093529015159183019190915260608201526080016104a8565b610943610923366004615029565b601660209081526000928352604080842090915290825290205460ff1681565b60405160ff90911681526020016104a8565b61048561096336600461504b565b61278f565b61097b610976366004615095565b612885565b604080519687526020870195909552938501929092526060840152608083015260a082015260c0016104a8565b6105686109b6366004614bc1565b6128e6565b600d54610568906101009004600160a060020a031681565b600f8054610722910b81565b6104856109ed366004614d7d565b6128f6565b60135461056890600160a060020a031681565b610a37610a13366004614bef565b60256020908152600092835260408084209091529082529020805460019091015482565b604080519283526020830191909152016104a8565b610485610a5a366004614bef565b6129b2565b610485610a6d366004614ef7565b612a1a565b61049e60075481565b61049e60095481565b610485610a92366004614bc1565b612ae2565b61049e60175481565b610485610aae366004614d7d565b612b14565b601b5461056890600160a060020a031681565b610485610ad4366004614ef7565b612b5e565b610485610ae7366004614fd5565b612bdd565b610485610afa366004614bc1565b612c95565b60145461056890600160a060020a031681565b610485610b203660046150cd565b612cc7565b60026001541415610b545760405160e560020a62461bcd028152600401610b4b90615135565b60405180910390fd5b6002600155610b668333848442612ecb565b50506001805550565b600054600160a060020a03163314610b9c5760405160e560020a62461bcd028152600401610b4b9061516c565b600855565b60008060218481548110610bb757610bb76151a1565b906000526020600020906007020190506000816003015490508160020154431115610c44576000610bf58360020154436131ad90919063ffffffff16565b90506000610c01610fe2565b90506000610c32602354610c2c8760010154610c2686886131c090919063ffffffff16565b906131c0565b906131cc565b9050610c3e84826131d8565b93505050505b6004820154610c5857600092505050610d2a565b6000610c6486866113a0565b90506000805b82811015610d23576000888152602260209081526040808320600160a060020a038b1684529091528120805483908110610ca657610ca66151a1565b906000526020600020906006020190506000610cda8760040154610c2c620f424085600001546131c090919063ffffffff16565b9050610d0e610d078360020154610d01620f4240610c2c8b876131c090919063ffffffff16565b906131ad565b85906131d8565b9350505080610d1c906151d3565b9050610c6a565b5093505050505b92915050565b600054600160a060020a03163314610d5d5760405160e560020a62461bcd028152600401610b4b9061516c565b600b55565b60218181548110610d7257600080fd5b60009182526020909120600790910201805460018201546002830154600384015460048501546005860154600690960154600160a060020a03958616975093959294919390928216911687565b6000610dcb89896131d8565b9050610de1600160a060020a038b1630836131e4565b610df6600160a060020a038b163330846132ef565b601454600160a060020a0316301415610ebc57610e788a8a87878080602002602001604051908101604052809392919081815260200183836020028082843760009201919091525050604080516020808b0282810182019093528a82529093508a92508991829185019084908082843760009201919091525061334092505050565b610eb78a8888808060200260200160405190810160405280939291908181526020018383602002808284376000920191909152508d9250613716915050565b610ec8565b610ec88b8b8b8b6137c2565b5050505050505050505050565b600060026001541415610efd5760405160e560020a62461bcd028152600401610b4b90615135565b6002600155610f0e84338585613c21565b60018055949350505050565b600054600160a060020a03163314610f475760405160e560020a62461bcd028152600401610b4b9061516c565b600a55565b600054600160a060020a03163314610f795760405160e560020a62461bcd028152600401610b4b9061516c565b600c55565b600054600160a060020a03163314610fab5760405160e560020a62461bcd028152600401610b4b9061516c565b600955565b600054600160a060020a03163314610fdd5760405160e560020a62461bcd028152600401610b4b9061516c565b600655565b600080611014600854610c2c6110056127106009546131cc90919063ffffffff16565b600754600654610c26916131c0565b9050600c548111156110295750600c54611038565b600b548110156110385750600b545b60025460055460405160e060020a6370a08231028152600160a060020a03918216600482015260009291909116906370a0823190602401602060405180830381865afa15801561108c573d6000803e3d6000fd5b505050506040513d601f19601f820116820180604052508101906110b091906151ee565b905060006110c4612710610c2c84866131c0565b90506110db600a54826131cc90919063ffffffff16565b935050505090565b600260015414156111095760405160e560020a62461bcd028152600401610b4b90615135565b600260015561111c8433858542866140d5565b5050600180555050565b60006021828154811061113b5761113b6151a1565b906000526020600020906007020190508060020154431161115a575050565b60006111738260020154436131ad90919063ffffffff16565b90506000811161118257505050565b600061118c610fe2565b905060006111b1602354610c2c8660010154610c2686886131c090919063ffffffff16565b601454909150600160a060020a0316301415611204576005546002546111e591600160a060020a03918216911630846132ef565b60038401546111f490826131d8565b6003850155436002850155611399565b6002546040517f40c10f19000000000000000000000000000000000000000000000000000000008152600160a060020a03909116906340c10f199061124f9030908590600401615207565b600060405180830381600087803b15801561126957600080fd5b505af115801561127d573d6000803e3d6000fd5b5050600080525050601060209081527f6e0956cda88cad152e89927e53611735b61a5c762d1428573c6931b0a5efcb01546014546040516c01000000000000000000000000600160a060020a0392831602938101939093521690819063edf54e47906034016040516020818303038152906040528460405160240161130491815260200190565b60408051601f19818403018152918152602082018051600160e060020a03167f7a04bfc3000000000000000000000000000000000000000000000000000000001790525160e060020a63ffffffff8516028152611365929190600401615278565b600060405180830381600087803b15801561137f57600080fd5b505af1158015611393573d6000803e3d6000fd5b50505050505b5050505050565b6000918252602260209081526040808420600160a060020a0393909316845291905290205490565b60006113e0826113da858189896131d8565b906131d8565b600e546040517f40c10f19000000000000000000000000000000000000000000000000000000008152919250600160a060020a0316906340c10f199061142c9030908590600401615207565b600060405180830381600087803b15801561144657600080fd5b505af115801561145a573d6000803e3d6000fd5b5050600e5460405160e060020a6370a0823102815230600482015260009350600160a060020a0390911691506370a0823190602401602060405180830381865afa1580156114ac573d6000803e3d6000fd5b505050506040513d601f19601f820116820180604052508101906114d091906151ee565b601354601954600f80546040517f29624cb2000000000000000000000000000000000000000000000000000000008152600160a060020a0390941660048501526024840185905260448401929092527001000000000000000000000000000000008204810b60648401520b608482015290915073__SafeSwapCurve_________________________906329624cb29060a40160006040518083038186803b15801561157a57600080fd5b505af415801561158e573d6000803e3d6000fd5b5050600d5460405160e060020a6370a0823102815230600482015260009350610100909104600160a060020a031691506370a0823190602401602060405180830381865afa1580156115e4573d6000803e3d6000fd5b505050506040513d601f19601f8201168201806040525081019061160891906151ee565b9050600061162484610c2c61161d8b8a6131d8565b85906131c0565b90506116fb600d60019054906101000a9004600160a060020a031682601f80548060200260200160405190810160405280929190818152602001828054801561169657602002820191906000526020600020905b8154600160a060020a03168152600190910190602001808311611678575b505050505060208054806020026020016040519081016040528092919081815260200182805480156116f157602002820191906000526020600020905b8154600160a060020a031681526001909101906020018083116116d3575b5050505050613340565b600061170783836131ad565b9050611783600d60019054906101000a9004600160a060020a0316601e80548060200260200160405190810160405280929190818152602001828054801561177857602002820191906000526020600020905b8154600160a060020a0316815260019091019060200180831161175a575b505050505083613716565b60008c815260106020526040808220549051602481018c9052604481018b9052606481018a905260848101899052600160a060020a03909116919060a4016040516020818303038152906040527f6f0ba2fb00000000000000000000000000000000000000000000000000000000600160e060020a031916602082018051600160e060020a038381831617835250505050905081600160a060020a031663edf54e478e8e846040518463ffffffff1660e060020a028152600401611849939291906152e1565b600060405180830381600087803b15801561186357600080fd5b505af1158015611877573d6000803e3d6000fd5b505050505050505050505050505050505050565b60215460005b81811015611914576040517f51eb05a60000000000000000000000000000000000000000000000000000000081526004810182905230906351eb05a690602401600060405180830381600087803b1580156118eb57600080fd5b505af11580156118ff573d6000803e3d6000fd5b505050508061190d906151d3565b9050611891565b5050565b6002546005546040517f9dc29fac000000000000000000000000000000000000000000000000000000008152600160a060020a0392831692639dc29fac92611967929116908590600401615207565b600060405180830381600087803b15801561198157600080fd5b505af1158015611399573d6000803e3d6000fd5b600260015414156119bb5760405160e560020a62461bcd028152600401610b4b90615135565b60026001556000858152601060205260408082205490517f40f4d583000000000000000000000000000000000000000000000000000000008152600160a060020a03909116919082906340f4d58390611a1a9087908790600401615323565b602060405180830381865afa158015611a37573d6000803e3d6000fd5b505050506040513d601f19601f82011682018060405250810190611a5b9190615337565b9050600160a060020a0381163314611a885760405160e560020a62461bcd028152600401610b4b90615354565b6040517fedf54e47000000000000000000000000000000000000000000000000000000008152600160a060020a0383169063edf54e4790611ad39089908990899089906004016153b1565b600060405180830381600087803b158015611aed57600080fd5b505af1158015611b01573d6000803e3d6000fd5b505060018055505050505050505050565b600054600160a060020a03163314611b3f5760405160e560020a62461bcd028152600401610b4b9061516c565b600d805460ff1916911515919091179055565b60115460405160e060020a6345fab369028152600160a060020a039091169081906345fab36990611b8c90869086906000906004016153f5565b6020604051808303816000875af1158015611bab573d6000803e3d6000fd5b505050506040513d601f19601f82011682018060405250810190611bcf91906151ee565b506040517f1995333b00000000000000000000000000000000000000000000000000000000815260048101839052600160a060020a03821690631995333b906024016020604051808303816000875af1158015611c30573d6000803e3d6000fd5b505050506040513d601f19601f82011682018060405250810190611c5491906151ee565b50505050565b600054600160a060020a03163314611c875760405160e560020a62461bcd028152600401610b4b9061516c565b611c9160006141ae565b565b600060026001541415611cbb5760405160e560020a62461bcd028152600401610b4b90615135565b60026001556000611ccf338787878761420b565b600180559695505050505050565b60008060218481548110611cf357611cf36151a1565b9060005260206000209060070201905060008160050160009054906101000a9004600160a060020a0316600160a060020a03166344a3955e6040518163ffffffff1660e060020a028152600401602060405180830381865afa158015611d5d573d6000803e3d6000fd5b505050506040513d601f19601f82011682018060405250810190611d8191906151ee565b9050600060218681548110611d9857611d986151a1565b600091825260209182902060056007909202010154604080517f42da4eb30000000000000000000000000000000000000000000000000000000081529051600160a060020a03909216926342da4eb3926004808401938290030181865afa158015611e07573d6000803e3d6000fd5b505050506040513d601f19601f82011682018060405250810190611e2b91906151ee565b905081611e3e5760009350505050610d2a565b6000611e4a87876113a0565b90506000805b82811015611eed576000898152602260209081526040808320600160a060020a038c1684529091528120805483908110611e8c57611e8c6151a1565b906000526020600020906006020190506000611ec08260010154610c2c620f424085600001546131c090919063ffffffff16565b9050611ed8610d0788610c2c620f424081868c6131c0565b9350505080611ee6906151d3565b9050611e50565b50979650505050505050565b60026001541415611f1f5760405160e560020a62461bcd028152600401610b4b90615135565b600260015560008481526022602090815260408083203384529091528120805485908110611f4f57611f4f6151a1565b600091825260208083206003600690930201919091015487835260228252604080842033855290925290822080549193509086908110611f9157611f916151a1565b90600052602060002090600602016004015490506000611fb533888860018861420b565b90506060600d60019054906101000a9004600160a060020a031681600081518110611fe257611fe26151a1565b6020026020010190600160a060020a03169081600160a060020a03168152505061201086338487878a6140d5565b604051338152869088908a907f67e7aba7263d8fbeb0cd9a2f4008f060a6a03f46c1d7f9d0550f0b93e96e96f89060200160405180910390a4505060018055505050505050565b6002600154141561207d5760405160e560020a62461bcd028152600401610b4b90615135565b60026001556000808080888b106120a5576120988b8a6131ad565b93508892508391506120b5565b8a92506120b289846131ad565b90505b60115460405160e060020a6345fab369028152600160a060020a03909116906345fab369906120ec908f90879030906004016153f5565b6020604051808303816000875af115801561210b573d6000803e3d6000fd5b505050506040513d601f19601f8201168201806040525081019061212f91906151ee565b50811561227057600e546040517f40c10f19000000000000000000000000000000000000000000000000000000008152600160a060020a03909116906340c10f19906121819030908690600401615207565b600060405180830381600087803b15801561219b57600080fd5b505af11580156121af573d6000803e3d6000fd5b5050601354600f80546040517f29624cb2000000000000000000000000000000000000000000000000000000008152600160a060020a03909316600484015260248301879052604483018b90527001000000000000000000000000000000008104820b6064840152900b608482015273__SafeSwapCurve_________________________92506329624cb2915060a40160006040518083038186803b15801561225757600080fd5b505af415801561226b573d6000803e3d6000fd5b505050505b801561229857600354600d5461229891600160a060020a03610100909204821691168361433c565b600d5460405160e060020a6370a082310281523060048201526000916101009004600160a060020a0316906370a0823190602401602060405180830381865afa1580156122e9573d6000803e3d6000fd5b505050506040513d601f19601f8201168201806040525081019061230d91906151ee565b9050600d60019054906101000a9004600160a060020a0316600160a060020a031663a9059cbb8e836040518363ffffffff1660e060020a028152600401612355929190615207565b6020604051808303816000875af1158015612374573d6000803e3d6000fd5b505050506040513d601f19601f820116820180604052508101906123989190615418565b506040516c01000000000000000000000000600160a060020a0388160260208201526123db908c908f908f9060340160405160208183030381529060405261435e565b5050600180555050505050505050505050565b600054600160a060020a0316331461241b5760405160e560020a62461bcd028152600401610b4b9061516c565b6005805473ffffffffffffffffffffffffffffffffffffffff1916600160a060020a0392909216919091179055565b600260015414156124705760405160e560020a62461bcd028152600401610b4b90615135565b6002600155600061248182336113a0565b905060005b81811015610b665761249a83826000610ed5565b506124a4816151d3565b9050612486565b601e81815481106124bb57600080fd5b600091825260209091200154600160a060020a0316905081565b602081815481106124bb57600080fd5b6002600154141561250b5760405160e560020a62461bcd028152600401610b4b90615135565b60026001556000858152601060205260408082205490517f2630d3d7000000000000000000000000000000000000000000000000000000008152600160a060020a0390911691908290632630d3d79061256a9087908790600401615323565b602060405180830381865afa158015612587573d6000803e3d6000fd5b505050506040513d601f19601f820116820180604052508101906125ab91906151ee565b9050600082600160a060020a03166340f4d58386866040518363ffffffff1660e060020a0281526004016125e0929190615323565b602060405180830381865afa1580156125fd573d6000803e3d6000fd5b505050506040513d601f19601f820116820180604052508101906126219190615337565b9050600160a060020a038116331461264e5760405160e560020a62461bcd028152600401610b4b90615354565b600d5461266a906101009004600160a060020a031630846131e4565b600d54612687906101009004600160a060020a03163330856132ef565b6011546040517f12e382b4000000000000000000000000000000000000000000000000000000008152600160a060020a03909116906312e382b4906126d29033908690600401615207565b600060405180830381600087803b1580156126ec57600080fd5b505af1158015612700573d6000803e3d6000fd5b50506040517fedf54e47000000000000000000000000000000000000000000000000000000008152600160a060020a038616925063edf54e47915061274f908a908a908a908a906004016153b1565b600060405180830381600087803b15801561276957600080fd5b505af115801561277d573d6000803e3d6000fd5b50506001805550505050505050505050565b600054600160a060020a031633146127bc5760405160e560020a62461bcd028152600401610b4b9061516c565b81156127ca576127ca61188b565b612807836113da602187815481106127e4576127e46151a1565b9060005260206000209060070201600101546023546131ad90919063ffffffff16565b6023819055508260218581548110612821576128216151a1565b906000526020600020906007020160010181905550806021858154811061284a5761284a6151a1565b906000526020600020906007020160060160006101000a815481600160a060020a030219169083600160a060020a0316021790555050505050565b602260205282600052604060002060205281600052604060002081815481106128ad57600080fd5b60009182526020909120600690910201805460018201546002830154600384015460048501546005909501549397509195509350919086565b601f81815481106124bb57600080fd5b6000612908826113da858189896131d8565b60115460035460405160e060020a6345fab369028152929350600160a060020a03918216926345fab369926129479230928792909116906004016153f5565b6020604051808303816000875af1158015612966573d6000803e3d6000fd5b505050506040513d601f19601f8201168201806040525081019061298a91906151ee565b5060175461299890846131ad565b6017556018546129a890836131ad565b6018555050505050565b600054600160a060020a031633146129df5760405160e560020a62461bcd028152600401610b4b9061516c565b600091825260106020526040909120805473ffffffffffffffffffffffffffffffffffffffff1916600160a060020a03909216919091179055565b600054600160a060020a03163314612a475760405160e560020a62461bcd028152600401610b4b9061516c565b600254600160a060020a0383811691161415612ace5760405160e560020a62461bcd02815260206004820152603560248201527f217361666520746f20757365205a6f72726f20746f6b656e20696e2066756e6360448201527f20696e43617365546f6b656e73476574537475636b00000000000000000000006064820152608401610b4b565b611914600160a060020a038316338361433c565b600054600160a060020a03163314612b0f5760405160e560020a62461bcd028152600401610b4b9061516c565b600755565b60008481526016602090815260408083208684529091529020805460ff19166003179055601754612b4590836131d8565b601755601854612b5590826131d8565b60185550505050565b60115460405160e060020a6345fab369028152600160a060020a03909116906345fab36990612b95908590859082906004016153f5565b6020604051808303816000875af1158015612bb4573d6000803e3d6000fd5b505050506040513d601f19601f82011682018060405250810190612bd891906151ee565b505050565b600054600160a060020a03163314612c0a5760405160e560020a62461bcd028152600401610b4b9061516c565b600160a060020a038116612c895760405160e560020a62461bcd02815260206004820152602660248201527f4f776e61626c653a206e6577206f776e657220697320746865207a65726f206160448201527f64647265737300000000000000000000000000000000000000000000000000006064820152608401610b4b565b612c92816141ae565b50565b600054600160a060020a03163314612cc25760405160e560020a62461bcd028152600401610b4b9061516c565b600455565b600054600160a060020a03163314612cf45760405160e560020a62461bcd028152600401610b4b9061516c565b8215612d0257612d0261188b565b60006004544311612d1557600454612d17565b435b602354909150612d2790876131d8565b6023556040805160e081018252600160a060020a039687168152602081019788529081019182526000606082018181526080830182815295881660a0840190815294881660c08401908152602180546001810182559352925160079092027f3a6357012c1a3ae0a17d304c9920310382d968ebcc4b1771f41c6b304205b57081018054938a1673ffffffffffffffffffffffffffffffffffffffff1994851617905598517f3a6357012c1a3ae0a17d304c9920310382d968ebcc4b1771f41c6b304205b5718a015592517f3a6357012c1a3ae0a17d304c9920310382d968ebcc4b1771f41c6b304205b57289015591517f3a6357012c1a3ae0a17d304c9920310382d968ebcc4b1771f41c6b304205b57388015592517f3a6357012c1a3ae0a17d304c9920310382d968ebcc4b1771f41c6b304205b57487015590517f3a6357012c1a3ae0a17d304c9920310382d968ebcc4b1771f41c6b304205b5758601805491861691831691909117905590517f3a6357012c1a3ae0a17d304c9920310382d968ebcc4b1771f41c6b304205b576909401805494909316931692909217905550565b60008311612f1e5760405160e560020a62461bcd02815260206004820152601560248201527f5f77616e74416d74206d757374206265203e20302100000000000000000000006044820152606401610b4b565b612f2785611126565b600060218681548110612f3c57612f3c6151a1565b6000918252602090912060079091020160058101548154919250612f6d91600160a060020a039081169116866131e4565b600060218781548110612f8257612f826151a1565b60009182526020909120600560079092020101546040517fba0bb4ab000000000000000000000000000000000000000000000000000000008152600160a060020a039091169063ba0bb4ab90612fde9089908990600401615207565b6020604051808303816000875af1158015612ffd573d6000803e3d6000fd5b505050506040513d601f19601f8201168201806040525081019061302191906151ee565b9050600061302e8561459c565b9050600061303c838361466a565b600485015490915061304e90826131d8565b6004850181905560009061306b90610c2c8464e8d4a510006131c0565b9050600061308f64e8d4a51000610c2c8489600301546131c090919063ffffffff16565b9050602260008c815260200190815260200160002060008b600160a060020a0316600160a060020a031681526020019081526020016000206040518060c001604052808581526020018681526020018381526020018a815260200189815260200160008152509080600181540180825580915050600190039060005260206000209060060201600090919091909150600082015181600001556020820151816001015560408201518160020155606082015181600301556080820151816004015560a0820151816005015550508a8a600160a060020a03167f90890809c654f11d6e72a28fa60149770a0d11ec6c92319d6ceb2bb0a4ea1a158b60405161319891815260200190565b60405180910390a35050505050505050505050565b60006131b98284615435565b9392505050565b60006131b9828461544c565b60006131b9828461546b565b60006131b98284615490565b6040517fdd62ed3e000000000000000000000000000000000000000000000000000000008152306004820152600160a060020a038381166024830152600091839186169063dd62ed3e90604401602060405180830381865afa15801561324e573d6000803e3d6000fd5b505050506040513d601f19601f8201168201806040525081019061327291906151ee565b61327c9190615490565b9050611c548463095ea7b360e060020a0285846040516024016132a0929190615207565b60408051601f19818403018152919052602081018051600160e060020a03167fffffffff000000000000000000000000000000000000000000000000000000009093169290921790915261467f565b604051600160a060020a0380851660248301528316604482015260648101829052611c549085907f23b872dd00000000000000000000000000000000000000000000000000000000906084016132a0565b60125461335a90600160a060020a038681169116856131e4565b60125473__SafeSwapUni___________________________9063709128be90600160a060020a031661338d8660026131cc565b601954863061339e426102586131d8565b6040518763ffffffff1660e060020a0281526004016133c2969594939291906154a8565b60006040518083038186803b1580156133da57600080fd5b505af41580156133ee573d6000803e3d6000fd5b505060125473__SafeSwapUni___________________________925063709128be9150600160a060020a03166134258660026131cc565b6019548530613436426102586131d8565b6040518763ffffffff1660e060020a02815260040161345a969594939291906154a8565b60006040518083038186803b15801561347257600080fd5b505af4158015613486573d6000803e3d6000fd5b5050601b5460405160e060020a6370a0823102815230600482015260009350600160a060020a0390911691506370a0823190602401602060405180830381865afa1580156134d8573d6000803e3d6000fd5b505050506040513d601f19601f820116820180604052508101906134fc91906151ee565b601c5460405160e060020a6370a08231028152306004820152919250600091600160a060020a03909116906370a0823190602401602060405180830381865afa15801561354d573d6000803e3d6000fd5b505050506040513d601f19601f8201168201806040525081019061357191906151ee565b90506135c0601260009054906101000a9004600160a060020a031683866000815181106135a0576135a06151a1565b6020026020010151600160a060020a03166131e49092919063ffffffff16565b60125483516135e691600160a060020a031690839086906000906135a0576135a06151a1565b601254601b54601c54601954600093600160a060020a039081169363e8e33700939082169291169087908790613625906103e890610c2c9085906131c0565b6136406103e8610c2c6019548c6131c090919063ffffffff16565b3061364d426102586131d8565b60405163ffffffff8a1660e060020a028152600160a060020a039889166004820152968816602488015260448701959095526064860193909352608485019190915260a484015290921660c482015260e4810191909152610104016060604051808303816000875af11580156136c7573d6000803e3d6000fd5b505050506040513d601f19601f820116820180604052508101906136eb919061551b565b600354601a5491945061370d9350600160a060020a039182169250168361433c565b50505050505050565b60125461373090600160a060020a038581169116836131e4565b601254601954601d5473__SafeSwapUni___________________________9263709128be92600160a060020a03918216928692889116613772426102586131d8565b6040518763ffffffff1660e060020a028152600401613796969594939291906154a8565b60006040518083038186803b1580156137ae57600080fd5b505af415801561370d573d6000803e3d6000fd5b43600090815260166020908152604080832087845290915290205460ff16156138305760405160e560020a62461bcd02815260206004820152601c60248201527f58636861696e206561726e696e6773206c6f636b2070656e64696e67000000006044820152606401610b4b565b60608381600081518110613846576138466151a1565b600160a060020a039283166020918202929092010152600d548251610100909104909116908290600190811061387e5761387e6151a1565b600160a060020a03928316602091820292909201015260125473__SafeSwapUni___________________________9163709128be91166138be86866131d8565b60195485306138cf426102586131d8565b6040518763ffffffff1660e060020a0281526004016138f3969594939291906154a8565b60006040518083038186803b15801561390b57600080fd5b505af415801561391f573d6000803e3d6000fd5b5050600d5460405160e060020a6370a0823102815230600482015260009350610100909104600160a060020a031691506370a0823190602401602060405180830381865afa158015613975573d6000803e3d6000fd5b505050506040513d601f19601f8201168201806040525081019061399991906151ee565b6011546040517f12e382b4000000000000000000000000000000000000000000000000000000008152919250600160a060020a0316906312e382b4906139e59030908590600401615207565b600060405180830381600087803b1580156139ff57600080fd5b505af1158015613a13573d6000803e3d6000fd5b50504360009081526016602090815260408083208b845282528220805460ff19166001179055818052601090527f6e0956cda88cad152e89927e53611735b61a5c762d1428573c6931b0a5efcb0154600160a060020a031692509050613a7986866131d8565b90506000613a8b82610c2c868a6131c0565b90506000613a9985836131ad565b601554604080513060208201529293506000920160408051601f1981840301815290829052601754601854613ad79493889288929091602401615549565b60408051601f19818403018152918152602082018051600160e060020a03167fae2577420000000000000000000000000000000000000000000000000000000017905251436024820152604481018d90526064810188905290915060009060840160408051601f1981840301815291815260208083018051600160e060020a03167f161f6a23000000000000000000000000000000000000000000000000000000001790526014549151600160a060020a039283166c01000000000000000000000000029181019190915291925087169063edf54e479060340160408051601f198184030181529082905260e060020a63ffffffff8416028252613be19186908690600401615587565b600060405180830381600087803b158015613bfb57600080fd5b505af1158015613c0f573d6000803e3d6000fd5b50505050505050505050505050505050565b6000613c2c85611126565b600060218681548110613c4157613c416151a1565b60009182526020808320898452602282526040808520600160a060020a038b1686529092529083208054600790930290910193509086908110613c8657613c866151a1565b906000526020600020906006020190506000816000015411613ced5760405160e560020a62461bcd02815260206004820152601960248201527f7472616e6368652e636f6e747269627574696f6e2069732030000000000000006044820152606401610b4b565b6000826004015411613d445760405160e560020a62461bcd02815260206004820152601e60248201527f746f74616c5472616e636865436f6e747269627574696f6e73206973203000006044820152606401610b4b565b60048201548154600091613d6191610c2c9064e8d4a510006131c0565b90506000613d8d8360020154610d0164e8d4a51000610c2c8860030154876131c090919063ffffffff16565b90508015613e5c57600062093a8090506000613dc842610d01613dbd8589600301546131c090919063ffffffff16565b6004890154906131d8565b90506000808215613e03576003870154613df090613de690866131c0565b610c2c87866131c0565b9050613dfc85826131ad565b9150613e07565b8491505b613e118c83614767565b8015613e5757600060218e81548110613e2c57613e2c6151a1565b6000918252602090912060056007909202010154600160a060020a03169050613e558183614767565b505b505050505b60018301548354600091613e7991610c2c9064e8d4a510006131c0565b9050600060218b81548110613e9057613e906151a1565b60009182526020909120600790910201600501546040517f495af8ce000000000000000000000000000000000000000000000000000000008152600160a060020a038c811660048301528a151560248301529091169063495af8ce906044016020604051808303816000875af1158015613f0e573d6000803e3d6000fd5b505050506040513d601f19601f82011682018060405250810190613f3291906151ee565b90506000613f4482876001015461466a565b8654909150811115613f6d5760008087556004880154613f63916131ad565b6004880155613f90565b8554613f7990826131ad565b86556004870154613f8a90826131ad565b60048801555b865460405160e060020a6370a08231028152306004820152600091600160a060020a0316906370a0823190602401602060405180830381865afa158015613fdb573d6000803e3d6000fd5b505050506040513d601f19601f82011682018060405250810190613fff91906151ee565b9050801561401d57875461401d90600160a060020a03168d8361433c565b83811415614030576140308d8c8e6148ba565b6004880154875460009161404d91610c2c9064e8d4a510006131c0565b905061406f64e8d4a51000610c2c838c600301546131c090919063ffffffff16565b88600201819055508d8d600160a060020a03167f02f25270a4d87bea75db541cdfe559334a275b4a233520ed6c0a2429667cca948e856040516140bc929190918252602082015260400190565b60405180910390a3509c9b505050505050505050505050565b6000602187815481106140ea576140ea6151a1565b60009182526020822060079190910201600501546040517f986eb8f5000000000000000000000000000000000000000000000000000000008152600160a060020a03898116600483015260248201899052604482018690529091169250829063986eb8f5906064016020604051808303816000875af1158015614171573d6000803e3d6000fd5b505050506040513d601f19601f8201168201806040525081019061419591906151ee565b90506141a48888838888612ecb565b5050505050505050565b60008054600160a060020a0383811673ffffffffffffffffffffffffffffffffffffffff19831681178455604051919092169283917f8be0079c531659141344cd1fd0a4f28419497f9722a3daafe3b4186f6b6457e09190a35050565b6000848152602260209081526040808320600160a060020a03891684529091528120805442919086908110614242576142426151a1565b90600052602060002090600602016005018190555060006021868154811061426c5761426c6151a1565b60009182526020822060056007909202010154600160a060020a0316915061429687898888613c21565b6040517fb228ab0b000000000000000000000000000000000000000000000000000000008152600160a060020a038a81166004830152602482018390526044820187905291925060009184169063b228ab0b906064016020604051808303816000875af115801561430b573d6000803e3d6000fd5b505050506040513d601f19601f8201168201806040525081019061432f91906151ee565b9998505050505050505050565b612bd88363a9059cbb60e060020a0284846040516024016132a0929190615207565b600084815260106020526040808220549051600160a060020a039091169190819083906143919088908890602401615207565b60408051601f19818403018152918152602082018051600160e060020a03167f9f750e3400000000000000000000000000000000000000000000000000000000179052516143df91906155ca565b6000604051808303816000865af19150503d806000811461441c576040519150601f19603f3d011682016040523d82523d6000602084013e614421565b606091505b5091509150816144765760405160e560020a62461bcd02815260206004820152601d60248201527f556e7375636365737366756c2073657269616c697a6520756e6c6f636b0000006044820152606401610b4b565b60008180602001905181019061448c91906155ff565b9050600084600160a060020a031686836040516024016144ad9291906156a1565b60408051601f19818403018152918152602082018051600160e060020a03167ffc9ca64200000000000000000000000000000000000000000000000000000000179052516144fb91906155ca565b6000604051808303816000865af19150503d8060008114614538576040519150601f19603f3d011682016040523d82523d6000602084013e61453d565b606091505b50509050806145915760405160e560020a62461bcd02815260206004820152601a60248201527f556e7375636365737366756c2078636861696e20756e6c6f636b0000000000006044820152606401610b4b565b505050505050505050565b600d5460009060ff161561465e576040517f677342ce00000000000000000000000000000000000000000000000000000000815260048101839052610d2a9064e8d4a5100090610c26906146569073__CustomMath____________________________9063677342ce90602401602060405180830381865af4158015614626573d6000803e3d6000fd5b505050506040513d601f19601f8201168201806040525081019061464a91906151ee565b610c266002600a6131cc565b6001906131d8565b5064e8d4a51000919050565b60006131b964e8d4a51000610c2c85856131c0565b60006146d4826040518060400160405280602081526020017f5361666545524332303a206c6f772d6c6576656c2063616c6c206661696c656481525085600160a060020a03166149f39092919063ffffffff16565b805190915015612bd857808060200190518101906146f29190615418565b612bd85760405160e560020a62461bcd02815260206004820152602a60248201527f5361666545524332303a204552433230206f7065726174696f6e20646964206e60448201527f6f742073756363656564000000000000000000000000000000000000000000006064820152608401610b4b565b60025460405160e060020a6370a08231028152306004820152600091600160a060020a0316906370a0823190602401602060405180830381865afa1580156147b3573d6000803e3d6000fd5b505050506040513d601f19601f820116820180604052508101906147d791906151ee565b90508082111561486f576002546040517fa9059cbb000000000000000000000000000000000000000000000000000000008152600160a060020a039091169063a9059cbb9061482c9086908590600401615207565b6020604051808303816000875af115801561484b573d6000803e3d6000fd5b505050506040513d601f19601f82011682018060405250810190611c549190615418565b6002546040517fa9059cbb000000000000000000000000000000000000000000000000000000008152600160a060020a039091169063a9059cbb9061482c9086908690600401615207565b6000838152602260209081526040808320600160a060020a038516845290915290208054906148ea600183615435565b815481106148fa576148fa6151a1565b60009182526020808320878452602282526040808520600160a060020a038816865290925292208054600690920290920191908590811061493d5761493d6151a1565b600091825260208083208454600690930201918255600180850154908301556002808501549083015560038085015490830155600480850154908301556005938401549390910192909255858152602282526040808220600160a060020a0386168352909252208054806149b3576149b36156cf565b6000828152602081206006600019909301928302018181556001810182905560028101829055600381018290556004810182905560050155905550505050565b6060614a028484600085614a0a565b949350505050565b60603031831115614a865760405160e560020a62461bcd02815260206004820152602660248201527f416464726573733a20696e73756666696369656e742062616c616e636520666f60448201527f722063616c6c00000000000000000000000000000000000000000000000000006064820152608401610b4b565b600160a060020a0385163b614ae05760405160e560020a62461bcd02815260206004820152601d60248201527f416464726573733a2063616c6c20746f206e6f6e2d636f6e74726163740000006044820152606401610b4b565b60008086600160a060020a03168587604051614afc91906155ca565b60006040518083038185875af1925050503d8060008114614b39576040519150601f19603f3d011682016040523d82523d6000602084013e614b3e565b606091505b5091509150614b4e828286614b59565b979650505050505050565b60608315614b685750816131b9565b825115614b785782518084602001fd5b8160405160e560020a62461bcd028152600401610b4b91906156e8565b600080600060608486031215614baa57600080fd5b505081359360208301359350604090920135919050565b600060208284031215614bd357600080fd5b5035919050565b600160a060020a0381168114612c9257600080fd5b60008060408385031215614c0257600080fd5b823591506020830135614c1481614bda565b809150509250929050565b60008083601f840112614c3157600080fd5b50813567ffffffffffffffff811115614c4957600080fd5b6020830191508360208083028501011115614c6357600080fd5b9250929050565b60008060008060008060008060008060e08b8d031215614c8957600080fd5b8a35995060208b0135614c9b81614bda565b985060408b0135975060608b0135965060808b013567ffffffffffffffff80821115614cc657600080fd5b614cd28e838f01614c1f565b909850965060a08d0135915080821115614ceb57600080fd5b614cf78e838f01614c1f565b909650945060c08d0135915080821115614d1057600080fd5b50614d1d8d828e01614c1f565b915080935050809150509295989b9194979a5092959850565b8015158114612c9257600080fd5b600080600060608486031215614d5957600080fd5b83359250602084013591506040840135614d7281614d36565b809150509250925092565b60008060008060808587031215614d9357600080fd5b5050823594602084013594506040840135936060013592509050565b60008083601f840112614dc157600080fd5b50813567ffffffffffffffff811115614dd957600080fd5b602083019150836020828501011115614c6357600080fd5b600080600080600080600060c0888a031215614e0c57600080fd5b87359650602088013567ffffffffffffffff811115614e2a57600080fd5b614e368a828b01614daf565b989b909a509798604081013598606082013598506080820135975060a09091013595509350505050565b600080600080600060608688031215614e7857600080fd5b85359450602086013567ffffffffffffffff80821115614e9757600080fd5b614ea389838a01614daf565b90965094506040880135915080821115614ebc57600080fd5b50614ec988828901614daf565b969995985093965092949392505050565b600060208284031215614eec57600080fd5b81356131b981614d36565b60008060408385031215614f0a57600080fd5b8235614f1581614bda565b946020939093013593505050565b60008060008060808587031215614f3957600080fd5b84359350602085013592506040850135614f5281614d36565b9396929550929360600135925050565b600080600080600080600080610100898b031215614f7f57600080fd5b8835614f8a81614bda565b97506020890135965060408901359550606089013594506080890135935060a0890135925060c0890135915060e0890135614fc481614bda565b809150509295985092959890939650565b600060208284031215614fe757600080fd5b81356131b981614bda565b60008060006060848603121561500757600080fd5b83359250602084013561501981614bda565b91506040840135614d7281614bda565b6000806040838503121561503c57600080fd5b50508035926020909101359150565b6000806000806080858703121561506157600080fd5b8435935060208501359250604085013561507a81614d36565b9150606085013561508a81614bda565b939692955090935050565b6000806000606084860312156150aa57600080fd5b8335925060208401356150bc81614bda565b929592945050506040919091013590565b600080600080600060a086880312156150e557600080fd5b8535945060208601356150f781614bda565b9350604086013561510781614d36565b9250606086013561511781614bda565b9150608086013561512781614bda565b809150509295509295909350565b6020808252601f908201527f5265656e7472616e637947756172643a207265656e7472616e742063616c6c00604082015260600190565b6020808252818101527f4f776e61626c653a2063616c6c6572206973206e6f7420746865206f776e6572604082015260600190565b60e060020a634e487b7102600052603260045260246000fd5b60e060020a634e487b7102600052601160045260246000fd5b60006000198214156151e7576151e76151ba565b5060010190565b60006020828403121561520057600080fd5b5051919050565b600160a060020a03929092168252602082015260400190565b60005b8381101561523b578181015183820152602001615223565b83811115611c545750506000910152565b60008151808452615264816020860160208601615220565b601f01601f19169290920160200192915050565b60608152600061528b606083018561524c565b828103602084015261529d818561524c565b83810360409094019390935250506000815260200192915050565b81835281816020850137506000828201602090810191909152601f909101601f19169091010190565b6060815260006152f56060830185876152b8565b8281036020840152615307818561524c565b8381036040909401939093525050600081526020019392505050565b602081526000614a026020830184866152b8565b60006020828403121561534957600080fd5b81516131b981614bda565b60208082526026908201527f5061796c6f61642073656e64657220646f65736e74206d61746368206d73672e60408201527f73656e6465720000000000000000000000000000000000000000000000000000606082015260800190565b6060815260006153c56060830186886152b8565b82810360208401526153d88185876152b8565b838103604090940193909352505060008152602001949350505050565b600160a060020a0393841681526020810192909252909116604082015260600190565b60006020828403121561542a57600080fd5b81516131b981614d36565b600082821015615447576154476151ba565b500390565b6000816000190483118215151615615466576154666151ba565b500290565b60008261548b5760e060020a634e487b7102600052601260045260246000fd5b500490565b600082198211156154a3576154a36151ba565b500190565b600060c08201600160a060020a03808a1684526020898186015288604086015260c0606086015282885180855260e087019150828a01945060005b818110156155015785518516835294830194918301916001016154e3565b505096909116608085015250505060a00152949350505050565b60008060006060848603121561553057600080fd5b8351925060208401519150604084015190509250925092565b86815260c06020820152600061556260c083018861524c565b90508560408301528460608301528360808301528260a0830152979650505050505050565b60608152600061559a606083018661524c565b82810360208401526155ac818661524c565b905082810360408401526155c0818561524c565b9695505050505050565b600082516155dc818460208701615220565b9190910192915050565b60e060020a634e487b7102600052604160045260246000fd5b60006020828403121561561157600080fd5b815167ffffffffffffffff8082111561562957600080fd5b818401915084601f83011261563d57600080fd5b81518181111561564f5761564f6155e6565b604051601f8201601f19908116603f01168101908382118183101715615677576156776155e6565b8160405282815287602084870101111561569057600080fd5b614b4e836020830160208801615220565b6040815260006156b4604083018561524c565b82810360208401526156c6818561524c565b95945050505050565b60e060020a634e487b7102600052603160045260246000fd5b6020815260006131b9602083018461524c56fea2646970667358221220cb4ba5b7134970ddafb8be2367b5917d6df56949e5c59fd8c01007d295551a8564736f6c634300080a0033",
  "immutableReferences": {},
  "source": "// SPDX-License-Identifier: MIT\npragma solidity ^0.8.0;\n\n/* Dependencies */\nimport \"./helpers/ERC20.sol\";\n\nimport \"./ZorroControllerBase.sol\";\n\nimport \"./ZorroControllerPoolMgmt.sol\";\n\nimport \"./ZorroControllerInvestment.sol\";\n\nimport \"./ZorroControllerAnalytics.sol\";\n\n/* Main Contract */\n/// @title ZorroController: The main controller of the Zorro yield farming protocol. Used for cash flow operations (deposit/withdrawal), managing vaults, and rewards allocations, among other things.\ncontract ZorroController is ZorroControllerBase, ZorroControllerPoolMgmt, ZorroControllerInvestment, ZorroControllerAnalytics {\n    /* Constructor */\n\n    /// @notice Constructor\n    /// @param _timelockOwner address of owner (should be a timelock)\n    /// @param _zorroToken address of Zorro token\n    /// @param _startBlock start block number. If current block is below this number, rewards won't be emitted. https://bscscan.com/block/countdown/13650292\n    /// @param _publicPool address of the public pool to draw rewards from\n    /// @param _BSCMarketTVLUSD total market TVL on the BSC chain in USD\n    /// @param _ZorroTotalVaultTVLUSD total TVL locked into the Zorro protocol across all vaults\n    /// @param _targetTVLCaptureBasisPoints how many basis points of the BSC total market TVL the protocol desires to capture (influences market aware emissions calcs)\n    constructor(\n        address _timelockOwner,\n        address _zorroToken,\n        uint256 _startBlock,\n        address _publicPool,\n        uint256 _BSCMarketTVLUSD,\n        uint256 _ZorroTotalVaultTVLUSD,\n        uint256 _targetTVLCaptureBasisPoints,\n        address _defaultStablecoin\n    ) {\n        // Assign owner as to timelock contract\n        transferOwnership(_timelockOwner);\n        // Set main state variables to initial state\n        ZORRO = _zorroToken;\n        startBlock = _startBlock;\n        publicPool = _publicPool;\n        BSCMarketTVLUSD = _BSCMarketTVLUSD; \n        ZorroTotalVaultTVLUSD = _ZorroTotalVaultTVLUSD; \n        targetTVLCaptureBasisPoints = _targetTVLCaptureBasisPoints;\n        defaultStablecoin = _defaultStablecoin;\n    }\n}",
  "sourcePath": "/Users/kristophm/Documents/workspace/zorro-protocol/contracts/ZorroController.sol",
  "compiler": {
    "name": "solc",
    "version": "0.8.10+commit.fc410830.Emscripten.clang"
  },
  "schemaVersion": "3.4.4",
  "updatedAt": "2022-03-01T14:14:53.235Z",
  "devdoc": {
    "kind": "dev",
    "methods": {
      "add(uint256,address,bool,address,address)": {
        "details": "DO NOT add the same Want token more than once. Rewards will be messed up if you do. (Only if Want tokens are stored here.)",
        "params": {
          "_allocPoint": "The number of allocation points for this pool (aka \"multiplier\")",
          "_intermediaryToken": "The address of an intermediary token (i.e. what is returned back to the user upon withdrawal) or 0 (only applicable for protocols like Tranchess)",
          "_vault": "The contract address of the underlying vault",
          "_want": "The address of the want token",
          "_withUpdate": "Mass update all pools if set to true"
        }
      },
      "buyBackAndRevShare(uint256,address,uint256,uint256,address[],address[],address[])": {
        "params": {
          "_buybackAmount": "The amount of earned token to buyback",
          "_earnedAddress": "The address of the ERC20 earned token to buy back",
          "_earnedToZORLPPoolToken0Path": "The router path for swapping from the Earn token to the primary Zorro LP Pool's 0th token",
          "_earnedToZORLPPoolToken1Path": "The router path for swapping from the Earn token to the primary Zorro LP Pool's 1st token",
          "_earnedToZORPath": "The router path for swapping from the Earn token to the ZOR token on BSC (home chain)",
          "_pid": "The pool ID",
          "_revShareAmount": "The amount of earned token to share as revenue to the ZOR staking vault"
        }
      },
      "constructor": {
        "params": {
          "_BSCMarketTVLUSD": "total market TVL on the BSC chain in USD",
          "_ZorroTotalVaultTVLUSD": "total TVL locked into the Zorro protocol across all vaults",
          "_publicPool": "address of the public pool to draw rewards from",
          "_startBlock": "start block number. If current block is below this number, rewards won't be emitted. https://bscscan.com/block/countdown/13650292",
          "_targetTVLCaptureBasisPoints": "how many basis points of the BSC total market TVL the protocol desires to capture (influences market aware emissions calcs)",
          "_timelockOwner": "address of owner (should be a timelock)",
          "_zorroToken": "address of Zorro token"
        }
      },
      "deposit(uint256,uint256,uint256)": {
        "params": {
          "_pid": "index of pool",
          "_wantAmt": "how much Want token to deposit",
          "_weeksCommitted": "how many weeks the user is committing to on this vault"
        }
      },
      "depositFullService(uint256,uint256,uint256,uint256)": {
        "params": {
          "_maxMarketMovement": "factor to account for max market movement/slippage. The definition varies by Vault, so consult the associated Vault contract for info",
          "_pid": "index of pool to deposit into",
          "_valueUSDC": "value in USDC (in ether units) to deposit",
          "_weeksCommitted": "how many weeks to commit to the Pool (can be 0 or any uint)"
        }
      },
      "getZorroPerBlock()": {
        "returns": {
          "_0": "Number of Zorro tokens per block"
        }
      },
      "inCaseTokensGetStuck(address,uint256)": {
        "details": "Does not permit usage for the Zorro token",
        "params": {
          "_amount": "token quantity",
          "_token": "ERC20 token address"
        }
      },
      "massUpdatePools()": {
        "details": "Be careful of gas fees!"
      },
      "owner()": {
        "details": "Returns the address of the current owner."
      },
      "pendingZORRORewards(uint256,address)": {
        "params": {
          "_pid": "Index of pool",
          "_user": "wallet address of user"
        },
        "returns": {
          "_0": "amount of Zorro rewards"
        }
      },
      "poolLength()": {
        "returns": {
          "_0": "Number of pools"
        }
      },
      "receiveBurnLockedEarningsRequest(uint256,uint256,uint256,uint256)": {
        "params": {
          "_amountUSDCBuyback": "The amount in USDC that was bought back",
          "_amountUSDCRevShare": "The amount in USDC that was rev-shared",
          "_failedAmountUSDCBuyback": "The previously failed buyback amount that was successfully retried",
          "_failedAmountUSDCRevShare": "The previously failed revshare amount that was successfully retried"
        }
      },
      "receiveXChainBurnRewardsRequest(uint256)": {
        "params": {
          "_amount": "The quantity of ZOR tokens to burn"
        }
      },
      "receiveXChainDistributionRequest(uint256,bytes,uint256,uint256,uint256,uint256)": {
        "params": {
          "_amountUSDCBuyback": "The amount in USDC that should be minted for LP + burn",
          "_amountUSDCRevShare": "The amount in USDC that should be minted for revenue sharing with ZOR stakers",
          "_callbackContract": "Address of destination contract in bytes for the callback",
          "_chainId": "The ID of the chain that this request originated from",
          "_failedAmountUSDCBuyback": "The previously failed buyback amount that is being retried",
          "_failedAmountUSDCRevShare": "The previously failed revshare amount that is being retried"
        }
      },
      "receiveXChainRepatriationRequest(address,uint256,uint256,uint256,uint256,uint256,uint256,address)": {
        "params": {
          "_account": "The user on this chain who initiated the withdrawal request",
          "_callbackContract": "The remote contract that called this function.",
          "_chainId": "The Chain ID of the remote chain that initiated this request",
          "_maxMarketMovement": "factor to account for max market movement/slippage. // TODO - need definition",
          "_originalDepositUSDC": "The amount originally deposited into this tranche // TODO net- or gross- of fees? IMPORTANT",
          "_pid": "The pool ID on the remote chain that the user withdrew from",
          "_trancheId": "The ID of the tranche on the remote chain, that was originally used to deposit",
          "_withdrawnUSDC": "The amount of USDC withdrawn on the remote chain"
        }
      },
      "receiveXChainUnlockRequest(address,uint256)": {
        "params": {
          "_account": "The address of the wallet (cross chain identity) to unlock funds for",
          "_amountUSDC": "The amount in USDC that should be unlocked and burned"
        }
      },
      "recoverXChainFeeDist(uint256,uint256,uint256,uint256)": {
        "params": {
          "_amountBuybackUSDC": "The amount of buyback in USDC attempted for cross chain operations",
          "_amountRevShareUSDC": "The amount of revshare in USDC attempted for cross chain operations",
          "_blockNumber": "The block number on the remote chain that the earnings distribution was for",
          "_pid": "The pool ID on the remote chain that the earnings distribution was from"
        }
      },
      "renounceOwnership()": {
        "details": "Leaves the contract without owner. It will not be possible to call `onlyOwner` functions anymore. Can only be called by the current owner. NOTE: Renouncing ownership will leave the contract without an owner, thereby removing any functionality that is only available to the owner."
      },
      "revertXChainDeposit(address,uint256)": {
        "details": "Unlocks USDC and returns it to depositor",
        "params": {
          "_account": "The address of the depositor",
          "_amountUSDC": "The amount originally deposited (TODO: inclusive of fees?)"
        }
      },
      "sendXChainDepositRequest(uint256,bytes,bytes)": {
        "params": {
          "_chainId": "The Zorro destination chain ID so that the request can be routed to the appropriate chain",
          "_destinationContract": "The address of the smart contract on the destination chain",
          "_payload": "The input payload for the destination function, encoded in bytes (EVM ABI or equivalent depending on chain)"
        }
      },
      "sendXChainWithdrawalRequest(uint256,bytes,bytes)": {
        "params": {
          "_chainId": "The Zorro destination chain ID so that the request can be routed to the appropriate chain",
          "_destinationContract": "The address of the smart contract on the destination chain",
          "_payload": "The input payload for the destination function, encoded in bytes (EVM ABI or equivalent depending on chain)"
        }
      },
      "set(uint256,uint256,bool,address)": {
        "params": {
          "_allocPoint": "The number of allocation points for this pool (aka \"multiplier\")",
          "_intermediaryToken": "The address of an intermediary token (i.e. what is returned back to the user upon withdrawal) or 0 (only applicable for protocols like Tranchess)",
          "_pid": "The index of the pool ID",
          "_withUpdate": "Mass update all pools if set to true"
        }
      },
      "stakedWantTokens(uint256,address)": {
        "params": {
          "_pid": "Index of pool",
          "_user": "wallet address of user"
        },
        "returns": {
          "_0": "amount of staked Want tokens"
        }
      },
      "trancheLength(uint256,address)": {
        "params": {
          "_pid": "Index of pool",
          "_user": "wallet address of user"
        },
        "returns": {
          "_0": "Number of tranches"
        }
      },
      "transferInvestment(uint256,uint256,uint256,uint256)": {
        "params": {
          "_fromPid": "index of pool FROM",
          "_fromTrancheId": "index of tranche FROM",
          "_maxMarketMovement": "factor to account for max market movement/slippage. The definition varies by Vault, so consult the associated Vault contract for info",
          "_toPid": "index of pool TO"
        }
      },
      "transferOwnership(address)": {
        "details": "Transfers ownership of the contract to a new account (`newOwner`). Can only be called by the current owner."
      },
      "updatePool(uint256)": {
        "params": {
          "_pid": "index of pool"
        }
      },
      "withdraw(uint256,uint256,bool)": {
        "params": {
          "_harvestOnly": "If true, will only harvest Zorro tokens but not do a withdrawal",
          "_pid": "index of pool",
          "_trancheId": "index of tranche"
        },
        "returns": {
          "_0": "Amount of Want token withdrawn"
        }
      },
      "withdrawAll(uint256)": {
        "params": {
          "_pid": "index of pool"
        }
      },
      "withdrawalFullService(uint256,uint256,bool,uint256)": {
        "params": {
          "_harvestOnly": "If true, will only harvest Zorro tokens but not do a withdrawal",
          "_maxMarketMovement": "factor to account for max market movement/slippage. The definition varies by Vault, so consult the associated Vault contract for info",
          "_pid": "index of pool to deposit into",
          "_trancheId": "index of tranche"
        },
        "returns": {
          "_0": "Amount (in USDC) returned"
        }
      }
    },
    "title": "ZorroController: The main controller of the Zorro yield farming protocol. Used for cash flow operations (deposit/withdrawal), managing vaults, and rewards allocations, among other things.",
    "version": 1
  },
  "userdoc": {
    "kind": "user",
    "methods": {
      "add(uint256,address,bool,address,address)": {
        "notice": "Adds a new pool. Can only be called by the owner."
      },
      "buyBackAndRevShare(uint256,address,uint256,uint256,address[],address[],address[])": {
        "notice": "Performs both buyback and rev share operations for either on-chain or cross-chain"
      },
      "constructor": {
        "notice": "Constructor"
      },
      "deposit(uint256,uint256,uint256)": {
        "notice": "Deposit Want tokens to associated Vault"
      },
      "depositFullService(uint256,uint256,uint256,uint256)": {
        "notice": "Deposits funds in a full service manner (performs autoswaps and obtains Want tokens)"
      },
      "getZorroPerBlock()": {
        "notice": "Determine the number of Zorro to emit per block based on current market parameters"
      },
      "inCaseTokensGetStuck(address,uint256)": {
        "notice": "For owner to recover ERC20 tokens on this contract if stuck"
      },
      "massUpdatePools()": {
        "notice": "Updates reward variables of all pools"
      },
      "pendingZORRORewards(uint256,address)": {
        "notice": "View function to see pending ZORRO on frontend."
      },
      "poolLength()": {
        "notice": "Number of pools in the Zorro protocol"
      },
      "receiveBurnLockedEarningsRequest(uint256,uint256,uint256,uint256)": {
        "notice": "Receives cross chain request for burning any temporarily locked funds for earnings"
      },
      "receiveXChainBurnRewardsRequest(uint256)": {
        "notice": "Receives an authorized burn request from another chain and burns the specified amount of ZOR tokens from the public pool"
      },
      "receiveXChainDistributionRequest(uint256,bytes,uint256,uint256,uint256,uint256)": {
        "notice": "Receives an authorized request from remote chains to perform earnings fee distribution events, such as: buyback + LP + burn, and revenue share"
      },
      "receiveXChainRepatriationRequest(address,uint256,uint256,uint256,uint256,uint256,uint256,address)": {
        "notice": "Receives a repatriation request from another chain and takes care of all financial operations (unlock/mint/burn) to pay the user their withdrawn funds from another chain"
      },
      "receiveXChainUnlockRequest(address,uint256)": {
        "notice": "Receives a request from home chain (BSC) to unlock and burn temporarily withheld USDC."
      },
      "recoverXChainFeeDist(uint256,uint256,uint256,uint256)": {
        "notice": "Recovery function for when home chain `receiveXChainDistributionRequest()` function fails"
      },
      "revertXChainDeposit(address,uint256)": {
        "notice": "Called by oracle when the deposit logic on the remote chain failed, and the deposit logic on this chain thus needs to be reverted"
      },
      "sendXChainDepositRequest(uint256,bytes,bytes)": {
        "notice": "Prepares and sends a cross chain deposit request. Takes care of necessary financial ops (transfer/locking USDC)"
      },
      "sendXChainWithdrawalRequest(uint256,bytes,bytes)": {
        "notice": "Prepares and sends a cross chain withdrwal request."
      },
      "set(uint256,uint256,bool,address)": {
        "notice": "Update the given pool's ZORRO allocation point. Can only be called by the owner."
      },
      "stakedWantTokens(uint256,address)": {
        "notice": "View function to see staked Want tokens on frontend."
      },
      "trancheLength(uint256,address)": {
        "notice": "Number of tranches invested by a given user into a given pool"
      },
      "transferInvestment(uint256,uint256,uint256,uint256)": {
        "notice": "Transfer all assets from a tranche in one vault to a new vault"
      },
      "updatePool(uint256)": {
        "notice": "Update reward variables of the given pool to be up-to-date."
      },
      "withdraw(uint256,uint256,bool)": {
        "notice": "Fully withdraw Want tokens from underlying Vault."
      },
      "withdrawAll(uint256)": {
        "notice": "Withdraw the maximum number of Want tokens from a pool"
      },
      "withdrawalFullService(uint256,uint256,bool,uint256)": {
        "notice": "Withdraws funds from a pool and converts the Want token into USDC"
      }
    },
    "version": 1
  }
}