{
  "contractName": "ZorroController",
  "abi": [
    {
      "anonymous": false,
      "inputs": [
        {
          "indexed": true,
          "internalType": "address",
          "name": "account",
          "type": "address"
        },
        {
          "indexed": true,
          "internalType": "bytes",
          "name": "foreignAccount",
          "type": "bytes"
        },
        {
          "indexed": true,
          "internalType": "uint256",
          "name": "pid",
          "type": "uint256"
        },
        {
          "indexed": false,
          "internalType": "uint256",
          "name": "wantAmount",
          "type": "uint256"
        }
      ],
      "name": "Deposit",
      "type": "event"
    },
    {
      "anonymous": false,
      "inputs": [
        {
          "indexed": true,
          "internalType": "address",
          "name": "previousOwner",
          "type": "address"
        },
        {
          "indexed": true,
          "internalType": "address",
          "name": "newOwner",
          "type": "address"
        }
      ],
      "name": "OwnershipTransferred",
      "type": "event"
    },
    {
      "anonymous": false,
      "inputs": [
        {
          "indexed": false,
          "internalType": "address",
          "name": "account",
          "type": "address"
        },
        {
          "indexed": true,
          "internalType": "uint256",
          "name": "fromPid",
          "type": "uint256"
        },
        {
          "indexed": true,
          "internalType": "uint256",
          "name": "fromTrancheId",
          "type": "uint256"
        },
        {
          "indexed": true,
          "internalType": "uint256",
          "name": "toPid",
          "type": "uint256"
        }
      ],
      "name": "TransferInvestment",
      "type": "event"
    },
    {
      "anonymous": false,
      "inputs": [
        {
          "indexed": true,
          "internalType": "address",
          "name": "account",
          "type": "address"
        },
        {
          "indexed": true,
          "internalType": "bytes",
          "name": "foreignAccount",
          "type": "bytes"
        },
        {
          "indexed": true,
          "internalType": "uint256",
          "name": "pid",
          "type": "uint256"
        },
        {
          "indexed": false,
          "internalType": "uint256",
          "name": "trancheId",
          "type": "uint256"
        },
        {
          "indexed": false,
          "internalType": "uint256",
          "name": "wantAmount",
          "type": "uint256"
        }
      ],
      "name": "Withdraw",
      "type": "event"
    },
    {
      "inputs": [
        {
          "internalType": "uint256",
          "name": "",
          "type": "uint256"
        }
      ],
      "name": "USDCToZorroLPPoolOtherTokenPath",
      "outputs": [
        {
          "internalType": "address",
          "name": "",
          "type": "address"
        }
      ],
      "stateMutability": "view",
      "type": "function",
      "constant": true
    },
    {
      "inputs": [
        {
          "internalType": "uint256",
          "name": "",
          "type": "uint256"
        }
      ],
      "name": "USDCToZorroPath",
      "outputs": [
        {
          "internalType": "address",
          "name": "",
          "type": "address"
        }
      ],
      "stateMutability": "view",
      "type": "function",
      "constant": true
    },
    {
      "inputs": [],
      "name": "ZORRO",
      "outputs": [
        {
          "internalType": "address",
          "name": "",
          "type": "address"
        }
      ],
      "stateMutability": "view",
      "type": "function",
      "constant": true
    },
    {
      "inputs": [],
      "name": "ZORRODailyDistributionFactorBasisPointsMax",
      "outputs": [
        {
          "internalType": "uint256",
          "name": "",
          "type": "uint256"
        }
      ],
      "stateMutability": "view",
      "type": "function",
      "constant": true
    },
    {
      "inputs": [],
      "name": "ZORRODailyDistributionFactorBasisPointsMin",
      "outputs": [
        {
          "internalType": "uint256",
          "name": "",
          "type": "uint256"
        }
      ],
      "stateMutability": "view",
      "type": "function",
      "constant": true
    },
    {
      "inputs": [],
      "name": "ZORROPerBlock",
      "outputs": [
        {
          "internalType": "uint256",
          "name": "",
          "type": "uint256"
        }
      ],
      "stateMutability": "view",
      "type": "function",
      "constant": true
    },
    {
      "inputs": [
        {
          "internalType": "uint256",
          "name": "_allocPoint",
          "type": "uint256"
        },
        {
          "internalType": "contract IERC20",
          "name": "_want",
          "type": "address"
        },
        {
          "internalType": "bool",
          "name": "_withUpdate",
          "type": "bool"
        },
        {
          "internalType": "address",
          "name": "_vault",
          "type": "address"
        }
      ],
      "name": "add",
      "outputs": [],
      "stateMutability": "nonpayable",
      "type": "function"
    },
    {
      "inputs": [],
      "name": "baseRewardRateBasisPoints",
      "outputs": [
        {
          "internalType": "uint256",
          "name": "",
          "type": "uint256"
        }
      ],
      "stateMutability": "view",
      "type": "function",
      "constant": true
    },
    {
      "inputs": [],
      "name": "blocksPerDay",
      "outputs": [
        {
          "internalType": "uint256",
          "name": "",
          "type": "uint256"
        }
      ],
      "stateMutability": "view",
      "type": "function",
      "constant": true
    },
    {
      "inputs": [],
      "name": "burnAddress",
      "outputs": [
        {
          "internalType": "address",
          "name": "",
          "type": "address"
        }
      ],
      "stateMutability": "view",
      "type": "function",
      "constant": true
    },
    {
      "inputs": [],
      "name": "chainId",
      "outputs": [
        {
          "internalType": "uint256",
          "name": "",
          "type": "uint256"
        }
      ],
      "stateMutability": "view",
      "type": "function",
      "constant": true
    },
    {
      "inputs": [],
      "name": "chainMultiplier",
      "outputs": [
        {
          "internalType": "uint256",
          "name": "",
          "type": "uint256"
        }
      ],
      "stateMutability": "view",
      "type": "function",
      "constant": true
    },
    {
      "inputs": [],
      "name": "defaultStablecoin",
      "outputs": [
        {
          "internalType": "address",
          "name": "",
          "type": "address"
        }
      ],
      "stateMutability": "view",
      "type": "function",
      "constant": true
    },
    {
      "inputs": [
        {
          "internalType": "uint256",
          "name": "_pid",
          "type": "uint256"
        },
        {
          "internalType": "uint256",
          "name": "_wantAmt",
          "type": "uint256"
        },
        {
          "internalType": "uint256",
          "name": "_weeksCommitted",
          "type": "uint256"
        }
      ],
      "name": "deposit",
      "outputs": [],
      "stateMutability": "nonpayable",
      "type": "function"
    },
    {
      "inputs": [
        {
          "internalType": "uint256",
          "name": "_pid",
          "type": "uint256"
        },
        {
          "internalType": "uint256",
          "name": "_valueUSDC",
          "type": "uint256"
        },
        {
          "internalType": "uint256",
          "name": "_weeksCommitted",
          "type": "uint256"
        },
        {
          "internalType": "uint256",
          "name": "_maxMarketMovement",
          "type": "uint256"
        }
      ],
      "name": "depositFullService",
      "outputs": [],
      "stateMutability": "nonpayable",
      "type": "function"
    },
    {
      "inputs": [
        {
          "internalType": "uint256",
          "name": "_pid",
          "type": "uint256"
        },
        {
          "internalType": "address",
          "name": "_account",
          "type": "address"
        },
        {
          "internalType": "bytes",
          "name": "_foreignAccount",
          "type": "bytes"
        },
        {
          "internalType": "uint256",
          "name": "_valueUSDC",
          "type": "uint256"
        },
        {
          "internalType": "uint256",
          "name": "_weeksCommitted",
          "type": "uint256"
        },
        {
          "internalType": "uint256",
          "name": "_vaultEnteredAt",
          "type": "uint256"
        },
        {
          "internalType": "uint256",
          "name": "_maxMarketMovement",
          "type": "uint256"
        }
      ],
      "name": "depositFullServiceFromXChain",
      "outputs": [],
      "stateMutability": "nonpayable",
      "type": "function"
    },
    {
      "inputs": [
        {
          "internalType": "uint256",
          "name": "",
          "type": "uint256"
        },
        {
          "internalType": "bytes",
          "name": "",
          "type": "bytes"
        },
        {
          "internalType": "uint256",
          "name": "",
          "type": "uint256"
        }
      ],
      "name": "foreignTrancheInfo",
      "outputs": [
        {
          "internalType": "address",
          "name": "",
          "type": "address"
        }
      ],
      "stateMutability": "view",
      "type": "function",
      "constant": true
    },
    {
      "inputs": [
        {
          "internalType": "uint256",
          "name": "durationInWeeks",
          "type": "uint256"
        }
      ],
      "name": "getTimeMultiplier",
      "outputs": [
        {
          "internalType": "uint256",
          "name": "",
          "type": "uint256"
        }
      ],
      "stateMutability": "view",
      "type": "function",
      "constant": true
    },
    {
      "inputs": [
        {
          "internalType": "uint256",
          "name": "_liquidityCommitted",
          "type": "uint256"
        },
        {
          "internalType": "uint256",
          "name": "_timeMultiplier",
          "type": "uint256"
        }
      ],
      "name": "getUserContribution",
      "outputs": [
        {
          "internalType": "uint256",
          "name": "",
          "type": "uint256"
        }
      ],
      "stateMutability": "pure",
      "type": "function",
      "constant": true
    },
    {
      "inputs": [],
      "name": "homeChainId",
      "outputs": [
        {
          "internalType": "uint256",
          "name": "",
          "type": "uint256"
        }
      ],
      "stateMutability": "view",
      "type": "function",
      "constant": true
    },
    {
      "inputs": [],
      "name": "homeChainZorroController",
      "outputs": [
        {
          "internalType": "address",
          "name": "",
          "type": "address"
        }
      ],
      "stateMutability": "view",
      "type": "function",
      "constant": true
    },
    {
      "inputs": [
        {
          "internalType": "address",
          "name": "_token",
          "type": "address"
        },
        {
          "internalType": "uint256",
          "name": "_amount",
          "type": "uint256"
        }
      ],
      "name": "inCaseTokensGetStuck",
      "outputs": [],
      "stateMutability": "nonpayable",
      "type": "function"
    },
    {
      "inputs": [],
      "name": "isTimeMultiplierActive",
      "outputs": [
        {
          "internalType": "bool",
          "name": "",
          "type": "bool"
        }
      ],
      "stateMutability": "view",
      "type": "function",
      "constant": true
    },
    {
      "inputs": [],
      "name": "massUpdatePools",
      "outputs": [
        {
          "internalType": "uint256",
          "name": "_mintedZOR",
          "type": "uint256"
        }
      ],
      "stateMutability": "nonpayable",
      "type": "function"
    },
    {
      "inputs": [],
      "name": "owner",
      "outputs": [
        {
          "internalType": "address",
          "name": "",
          "type": "address"
        }
      ],
      "stateMutability": "view",
      "type": "function",
      "constant": true
    },
    {
      "inputs": [
        {
          "internalType": "uint256",
          "name": "_pid",
          "type": "uint256"
        },
        {
          "internalType": "address",
          "name": "_account",
          "type": "address"
        },
        {
          "internalType": "int256",
          "name": "_trancheId",
          "type": "int256"
        }
      ],
      "name": "pendingZORRORewards",
      "outputs": [
        {
          "internalType": "uint256",
          "name": "_pendingRewards",
          "type": "uint256"
        }
      ],
      "stateMutability": "view",
      "type": "function",
      "constant": true
    },
    {
      "inputs": [
        {
          "internalType": "uint256",
          "name": "",
          "type": "uint256"
        }
      ],
      "name": "poolInfo",
      "outputs": [
        {
          "internalType": "contract IERC20",
          "name": "want",
          "type": "address"
        },
        {
          "internalType": "uint256",
          "name": "allocPoint",
          "type": "uint256"
        },
        {
          "internalType": "uint256",
          "name": "lastRewardBlock",
          "type": "uint256"
        },
        {
          "internalType": "uint256",
          "name": "accZORRORewards",
          "type": "uint256"
        },
        {
          "internalType": "uint256",
          "name": "totalTrancheContributions",
          "type": "uint256"
        },
        {
          "internalType": "address",
          "name": "vault",
          "type": "address"
        }
      ],
      "stateMutability": "view",
      "type": "function",
      "constant": true
    },
    {
      "inputs": [],
      "name": "poolLength",
      "outputs": [
        {
          "internalType": "uint256",
          "name": "",
          "type": "uint256"
        }
      ],
      "stateMutability": "view",
      "type": "function",
      "constant": true
    },
    {
      "inputs": [],
      "name": "priceFeedLPPoolOtherToken",
      "outputs": [
        {
          "internalType": "contract AggregatorV3Interface",
          "name": "",
          "type": "address"
        }
      ],
      "stateMutability": "view",
      "type": "function",
      "constant": true
    },
    {
      "inputs": [],
      "name": "priceFeedZOR",
      "outputs": [
        {
          "internalType": "contract AggregatorV3Interface",
          "name": "",
          "type": "address"
        }
      ],
      "stateMutability": "view",
      "type": "function",
      "constant": true
    },
    {
      "inputs": [],
      "name": "publicPool",
      "outputs": [
        {
          "internalType": "address",
          "name": "",
          "type": "address"
        }
      ],
      "stateMutability": "view",
      "type": "function",
      "constant": true
    },
    {
      "inputs": [],
      "name": "renounceOwnership",
      "outputs": [],
      "stateMutability": "nonpayable",
      "type": "function"
    },
    {
      "inputs": [
        {
          "internalType": "uint256",
          "name": "_pid",
          "type": "uint256"
        },
        {
          "internalType": "uint256",
          "name": "_allocPoint",
          "type": "uint256"
        },
        {
          "internalType": "bool",
          "name": "_withUpdate",
          "type": "bool"
        }
      ],
      "name": "set",
      "outputs": [],
      "stateMutability": "nonpayable",
      "type": "function"
    },
    {
      "inputs": [
        {
          "internalType": "bool",
          "name": "_isActive",
          "type": "bool"
        }
      ],
      "name": "setIsTimeMultiplierActive",
      "outputs": [],
      "stateMutability": "nonpayable",
      "type": "function"
    },
    {
      "inputs": [
        {
          "internalType": "address",
          "name": "_ZORRO",
          "type": "address"
        },
        {
          "internalType": "address",
          "name": "_defaultStablecoin",
          "type": "address"
        }
      ],
      "name": "setKeyAddresses",
      "outputs": [],
      "stateMutability": "nonpayable",
      "type": "function"
    },
    {
      "inputs": [
        {
          "internalType": "address",
          "name": "_priceFeedZOR",
          "type": "address"
        },
        {
          "internalType": "address",
          "name": "_priceFeedLPPoolOtherToken",
          "type": "address"
        }
      ],
      "name": "setPriceFeeds",
      "outputs": [],
      "stateMutability": "nonpayable",
      "type": "function"
    },
    {
      "inputs": [
        {
          "internalType": "uint256[]",
          "name": "_blockParams",
          "type": "uint256[]"
        },
        {
          "internalType": "uint256[]",
          "name": "_dailyDistFactors",
          "type": "uint256[]"
        },
        {
          "internalType": "uint256",
          "name": "_chainMultiplier",
          "type": "uint256"
        },
        {
          "internalType": "uint256",
          "name": "_baseRewardRateBasisPoints",
          "type": "uint256"
        }
      ],
      "name": "setRewardsParams",
      "outputs": [],
      "stateMutability": "nonpayable",
      "type": "function"
    },
    {
      "inputs": [
        {
          "internalType": "uint256",
          "name": "_startBlock",
          "type": "uint256"
        }
      ],
      "name": "setStartBlock",
      "outputs": [],
      "stateMutability": "nonpayable",
      "type": "function"
    },
    {
      "inputs": [
        {
          "internalType": "uint256",
          "name": "_targetTVLCaptureBasisPoints",
          "type": "uint256"
        }
      ],
      "name": "setTargetTVLCaptureBasisPoints",
      "outputs": [],
      "stateMutability": "nonpayable",
      "type": "function"
    },
    {
      "inputs": [
        {
          "internalType": "address[]",
          "name": "_path",
          "type": "address[]"
        }
      ],
      "name": "setUSDCToZORPath",
      "outputs": [],
      "stateMutability": "nonpayable",
      "type": "function"
    },
    {
      "inputs": [
        {
          "internalType": "address[]",
          "name": "_path",
          "type": "address[]"
        }
      ],
      "name": "setUSDCToZorroLPPoolOtherTokenPath",
      "outputs": [],
      "stateMutability": "nonpayable",
      "type": "function"
    },
    {
      "inputs": [
        {
          "internalType": "address",
          "name": "_uniV2Router",
          "type": "address"
        }
      ],
      "name": "setUniRouter",
      "outputs": [],
      "stateMutability": "nonpayable",
      "type": "function"
    },
    {
      "inputs": [
        {
          "internalType": "uint256",
          "name": "_chainId",
          "type": "uint256"
        },
        {
          "internalType": "uint256",
          "name": "_homeChainId",
          "type": "uint256"
        },
        {
          "internalType": "address",
          "name": "_homeChainZorroController",
          "type": "address"
        }
      ],
      "name": "setXChainParams",
      "outputs": [],
      "stateMutability": "nonpayable",
      "type": "function"
    },
    {
      "inputs": [
        {
          "internalType": "address",
          "name": "_publicPool",
          "type": "address"
        },
        {
          "internalType": "address",
          "name": "_zorroStakingVault",
          "type": "address"
        }
      ],
      "name": "setZorroContracts",
      "outputs": [],
      "stateMutability": "nonpayable",
      "type": "function"
    },
    {
      "inputs": [
        {
          "internalType": "address",
          "name": "_zorroControllerOracle",
          "type": "address"
        }
      ],
      "name": "setZorroControllerOracle",
      "outputs": [],
      "stateMutability": "nonpayable",
      "type": "function"
    },
    {
      "inputs": [
        {
          "internalType": "address",
          "name": "_zorroLPPool",
          "type": "address"
        },
        {
          "internalType": "address",
          "name": "_zorroLPPoolOtherToken",
          "type": "address"
        }
      ],
      "name": "setZorroLPPoolParams",
      "outputs": [],
      "stateMutability": "nonpayable",
      "type": "function"
    },
    {
      "inputs": [
        {
          "internalType": "uint256",
          "name": "_totalChainMultipliers",
          "type": "uint256"
        },
        {
          "internalType": "uint256",
          "name": "_totalMarketTVLUSD",
          "type": "uint256"
        },
        {
          "internalType": "uint256",
          "name": "_targetTVLCaptureBasisPoints",
          "type": "uint256"
        },
        {
          "internalType": "uint256",
          "name": "_ZorroTotalVaultTVLUSD",
          "type": "uint256"
        },
        {
          "internalType": "uint256",
          "name": "_publicPoolZORBalance",
          "type": "uint256"
        }
      ],
      "name": "setZorroPerBlock",
      "outputs": [],
      "stateMutability": "nonpayable",
      "type": "function"
    },
    {
      "inputs": [
        {
          "internalType": "address",
          "name": "_contract",
          "type": "address"
        }
      ],
      "name": "setZorroXChainEndpoint",
      "outputs": [],
      "stateMutability": "nonpayable",
      "type": "function"
    },
    {
      "inputs": [
        {
          "internalType": "uint256",
          "name": "_pid",
          "type": "uint256"
        },
        {
          "internalType": "address",
          "name": "_account",
          "type": "address"
        },
        {
          "internalType": "int256",
          "name": "_trancheId",
          "type": "int256"
        }
      ],
      "name": "stakedWantTokens",
      "outputs": [
        {
          "internalType": "uint256",
          "name": "_stakedWantTokens",
          "type": "uint256"
        }
      ],
      "stateMutability": "view",
      "type": "function",
      "constant": true
    },
    {
      "inputs": [],
      "name": "startBlock",
      "outputs": [
        {
          "internalType": "uint256",
          "name": "",
          "type": "uint256"
        }
      ],
      "stateMutability": "view",
      "type": "function",
      "constant": true
    },
    {
      "inputs": [],
      "name": "targetTVLCaptureBasisPoints",
      "outputs": [
        {
          "internalType": "uint256",
          "name": "",
          "type": "uint256"
        }
      ],
      "stateMutability": "view",
      "type": "function",
      "constant": true
    },
    {
      "inputs": [],
      "name": "tokenUSDC",
      "outputs": [
        {
          "internalType": "address",
          "name": "",
          "type": "address"
        }
      ],
      "stateMutability": "view",
      "type": "function",
      "constant": true
    },
    {
      "inputs": [],
      "name": "totalAllocPoint",
      "outputs": [
        {
          "internalType": "uint256",
          "name": "",
          "type": "uint256"
        }
      ],
      "stateMutability": "view",
      "type": "function",
      "constant": true
    },
    {
      "inputs": [
        {
          "internalType": "uint256",
          "name": "",
          "type": "uint256"
        },
        {
          "internalType": "address",
          "name": "",
          "type": "address"
        },
        {
          "internalType": "uint256",
          "name": "",
          "type": "uint256"
        }
      ],
      "name": "trancheInfo",
      "outputs": [
        {
          "internalType": "uint256",
          "name": "contribution",
          "type": "uint256"
        },
        {
          "internalType": "uint256",
          "name": "timeMultiplier",
          "type": "uint256"
        },
        {
          "internalType": "uint256",
          "name": "rewardDebt",
          "type": "uint256"
        },
        {
          "internalType": "uint256",
          "name": "durationCommittedInWeeks",
          "type": "uint256"
        },
        {
          "internalType": "uint256",
          "name": "enteredVaultAt",
          "type": "uint256"
        },
        {
          "internalType": "uint256",
          "name": "exitedVaultAt",
          "type": "uint256"
        }
      ],
      "stateMutability": "view",
      "type": "function",
      "constant": true
    },
    {
      "inputs": [
        {
          "internalType": "uint256",
          "name": "_pid",
          "type": "uint256"
        },
        {
          "internalType": "address",
          "name": "_user",
          "type": "address"
        }
      ],
      "name": "trancheLength",
      "outputs": [
        {
          "internalType": "uint256",
          "name": "",
          "type": "uint256"
        }
      ],
      "stateMutability": "view",
      "type": "function",
      "constant": true
    },
    {
      "inputs": [
        {
          "internalType": "uint256",
          "name": "_fromPid",
          "type": "uint256"
        },
        {
          "internalType": "uint256",
          "name": "_fromTrancheId",
          "type": "uint256"
        },
        {
          "internalType": "uint256",
          "name": "_toPid",
          "type": "uint256"
        },
        {
          "internalType": "uint256",
          "name": "_maxMarketMovement",
          "type": "uint256"
        }
      ],
      "name": "transferInvestment",
      "outputs": [],
      "stateMutability": "nonpayable",
      "type": "function"
    },
    {
      "inputs": [
        {
          "internalType": "address",
          "name": "newOwner",
          "type": "address"
        }
      ],
      "name": "transferOwnership",
      "outputs": [],
      "stateMutability": "nonpayable",
      "type": "function"
    },
    {
      "inputs": [],
      "name": "uniRouterAddress",
      "outputs": [
        {
          "internalType": "address",
          "name": "",
          "type": "address"
        }
      ],
      "stateMutability": "view",
      "type": "function",
      "constant": true
    },
    {
      "inputs": [
        {
          "internalType": "uint256",
          "name": "_pid",
          "type": "uint256"
        }
      ],
      "name": "updatePool",
      "outputs": [
        {
          "internalType": "uint256",
          "name": "",
          "type": "uint256"
        }
      ],
      "stateMutability": "nonpayable",
      "type": "function"
    },
    {
      "inputs": [
        {
          "internalType": "uint256",
          "name": "_pid",
          "type": "uint256"
        },
        {
          "internalType": "uint256",
          "name": "_trancheId",
          "type": "uint256"
        },
        {
          "internalType": "bool",
          "name": "_harvestOnly",
          "type": "bool"
        }
      ],
      "name": "withdraw",
      "outputs": [
        {
          "internalType": "uint256",
          "name": "",
          "type": "uint256"
        }
      ],
      "stateMutability": "nonpayable",
      "type": "function"
    },
    {
      "inputs": [
        {
          "internalType": "uint256",
          "name": "_pid",
          "type": "uint256"
        }
      ],
      "name": "withdrawAll",
      "outputs": [],
      "stateMutability": "nonpayable",
      "type": "function"
    },
    {
      "inputs": [
        {
          "internalType": "uint256",
          "name": "_pid",
          "type": "uint256"
        },
        {
          "internalType": "uint256",
          "name": "_trancheId",
          "type": "uint256"
        },
        {
          "internalType": "bool",
          "name": "_harvestOnly",
          "type": "bool"
        },
        {
          "internalType": "uint256",
          "name": "_maxMarketMovement",
          "type": "uint256"
        }
      ],
      "name": "withdrawalFullService",
      "outputs": [
        {
          "internalType": "uint256",
          "name": "",
          "type": "uint256"
        }
      ],
      "stateMutability": "nonpayable",
      "type": "function"
    },
    {
      "inputs": [
        {
          "internalType": "address",
          "name": "_account",
          "type": "address"
        },
        {
          "internalType": "bytes",
          "name": "_foreignAccount",
          "type": "bytes"
        },
        {
          "internalType": "uint256",
          "name": "_pid",
          "type": "uint256"
        },
        {
          "internalType": "uint256",
          "name": "_trancheId",
          "type": "uint256"
        },
        {
          "internalType": "bool",
          "name": "_harvestOnly",
          "type": "bool"
        },
        {
          "internalType": "uint256",
          "name": "_maxMarketMovement",
          "type": "uint256"
        }
      ],
      "name": "withdrawalFullServiceFromXChain",
      "outputs": [
        {
          "internalType": "uint256",
          "name": "_amountUSDC",
          "type": "uint256"
        },
        {
          "internalType": "uint256",
          "name": "_mintedZORRewards",
          "type": "uint256"
        },
        {
          "internalType": "uint256",
          "name": "_rewardsDueXChain",
          "type": "uint256"
        },
        {
          "internalType": "uint256",
          "name": "_slashedRewardsXChain",
          "type": "uint256"
        }
      ],
      "stateMutability": "nonpayable",
      "type": "function"
    },
    {
      "inputs": [],
      "name": "zorroControllerOracle",
      "outputs": [
        {
          "internalType": "address",
          "name": "",
          "type": "address"
        }
      ],
      "stateMutability": "view",
      "type": "function",
      "constant": true
    },
    {
      "inputs": [],
      "name": "zorroLPPool",
      "outputs": [
        {
          "internalType": "address",
          "name": "",
          "type": "address"
        }
      ],
      "stateMutability": "view",
      "type": "function",
      "constant": true
    },
    {
      "inputs": [],
      "name": "zorroLPPoolOtherToken",
      "outputs": [
        {
          "internalType": "address",
          "name": "",
          "type": "address"
        }
      ],
      "stateMutability": "view",
      "type": "function",
      "constant": true
    },
    {
      "inputs": [],
      "name": "zorroStakingVault",
      "outputs": [
        {
          "internalType": "address",
          "name": "",
          "type": "address"
        }
      ],
      "stateMutability": "view",
      "type": "function",
      "constant": true
    },
    {
      "inputs": [],
      "name": "zorroXChainEndpoint",
      "outputs": [
        {
          "internalType": "address",
          "name": "",
          "type": "address"
        }
      ],
      "stateMutability": "view",
      "type": "function",
      "constant": true
    },
    {
      "inputs": [
        {
          "internalType": "address",
          "name": "_timelockOwner",
          "type": "address"
        },
        {
          "components": [
            {
              "internalType": "address",
              "name": "ZORRO",
              "type": "address"
            },
            {
              "internalType": "address",
              "name": "defaultStablecoin",
              "type": "address"
            },
            {
              "internalType": "address",
              "name": "zorroLPPoolOtherToken",
              "type": "address"
            },
            {
              "internalType": "address",
              "name": "tokenUSDC",
              "type": "address"
            },
            {
              "internalType": "address",
              "name": "publicPool",
              "type": "address"
            },
            {
              "internalType": "address",
              "name": "zorroStakingVault",
              "type": "address"
            },
            {
              "internalType": "address",
              "name": "zorroLPPool",
              "type": "address"
            },
            {
              "internalType": "address",
              "name": "uniRouterAddress",
              "type": "address"
            },
            {
              "internalType": "address[]",
              "name": "USDCToZorroPath",
              "type": "address[]"
            },
            {
              "internalType": "address[]",
              "name": "USDCToZorroLPPoolOtherTokenPath",
              "type": "address[]"
            },
            {
              "components": [
                {
                  "internalType": "uint256",
                  "name": "blocksPerDay",
                  "type": "uint256"
                },
                {
                  "internalType": "uint256",
                  "name": "startBlock",
                  "type": "uint256"
                },
                {
                  "internalType": "uint256",
                  "name": "ZORROPerBlock",
                  "type": "uint256"
                },
                {
                  "internalType": "uint256",
                  "name": "targetTVLCaptureBasisPoints",
                  "type": "uint256"
                },
                {
                  "internalType": "uint256",
                  "name": "chainMultiplier",
                  "type": "uint256"
                },
                {
                  "internalType": "uint256",
                  "name": "baseRewardRateBasisPoints",
                  "type": "uint256"
                }
              ],
              "internalType": "struct ZorroController.ZorroControllerRewards",
              "name": "rewards",
              "type": "tuple"
            },
            {
              "components": [
                {
                  "internalType": "uint256",
                  "name": "chainId",
                  "type": "uint256"
                },
                {
                  "internalType": "uint256",
                  "name": "homeChainId",
                  "type": "uint256"
                },
                {
                  "internalType": "address",
                  "name": "homeChainZorroController",
                  "type": "address"
                },
                {
                  "internalType": "address",
                  "name": "zorroControllerOracle",
                  "type": "address"
                },
                {
                  "internalType": "address",
                  "name": "zorroXChainEndpoint",
                  "type": "address"
                }
              ],
              "internalType": "struct ZorroController.ZorroControllerXChainParams",
              "name": "xChain",
              "type": "tuple"
            },
            {
              "components": [
                {
                  "internalType": "address",
                  "name": "priceFeedZOR",
                  "type": "address"
                },
                {
                  "internalType": "address",
                  "name": "priceFeedLPPoolOtherToken",
                  "type": "address"
                }
              ],
              "internalType": "struct ZorroController.ZorroControllerPriceFeeds",
              "name": "priceFeeds",
              "type": "tuple"
            }
          ],
          "internalType": "struct ZorroController.ZorroControllerInit",
          "name": "_initValue",
          "type": "tuple"
        }
      ],
      "name": "initialize",
      "outputs": [],
      "stateMutability": "nonpayable",
      "type": "function"
    }
  ],
  "bytecode": "0x608060405234801561001057600080fd5b506143a4806100206000396000f3fe608060405234801561001057600080fd5b5060043610610423576000357c01000000000000000000000000000000000000000000000000000000009004806379777d811161023d578063b22f32511161014d578063cd17ac14116100d5578063ef126967116100a4578063ef12696714610963578063f2fde38b1461096c578063f35e4a6e1461097f578063f63cce3714610992578063fc39a29e146109a557600080fd5b8063cd17ac1414610917578063cff38dd41461092a578063ebfba7c41461093d578063ee4e26871461095057600080fd5b8063c29361421161011c578063c2936142146108cc578063c4e94f22146108d5578063c6d758cb146108e8578063c86d4040146108fb578063cb9c2f681461090e57600080fd5b8063b22f325114610853578063b4b4e9eb14610866578063b61bb80a146108a6578063bdb2fc8b146108b957600080fd5b80639568786c116101d05780639a8a05921161019f5780639a8a0592146108085780639cebd371146108115780639ec68c761461081a578063a4d2b0831461082d578063a80bee071461084057600080fd5b80639568786c146107bc578063958e2d31146107cf578063985b0a0d146107e25780639a448c0c146107f557600080fd5b80638766eb081161020c5780638766eb08146107505780638c157db2146107635780638da5cb5b14610776578063941d3fd01461078757600080fd5b806379777d81146107045780637bf604d8146107175780637e37c7691461072a578063823c43d01461073d57600080fd5b806348cd4cb111610338578063630b5ba1116102cb5780636b8eb2e51161029a5780636b8eb2e5146106ba5780636c78d49c146106cd57806370d5ae05146106e0578063715018a6146106e9578063745af0a8146106f157600080fd5b8063630b5ba11461067957806364482f7914610681578063668ababb14610694578063693a090b146106a757600080fd5b806353f73f871161030757806353f73f87146106375780635527a6f91461064a5780635c63fa87146106535780635f70edcf1461066657600080fd5b806348cd4cb1146105ff5780634cfea68a146106085780635051d3711461061157806351eb05a61461062457600080fd5b80633332fcf4116103bb5780633b9ce5651161038a5780633b9ce5651461058a5780633bbc1ffc1461059357806340abd8fc146105a657806340e379d8146105d95780634780f9f5146105ec57600080fd5b80633332fcf41461054857806333cfcd3b1461055b57806339e80a881461056e5780633b7106881461058157600080fd5b8063104a6132116103f7578063104a61321461047a5780631526fe27146104a557806317caf6f1146104f45780632e31283d146104fd57600080fd5b8062aeef8a14610428578063068f158d1461043d578063081e3eda146104505780630aa0988e14610467575b600080fd5b61043b6104363660046137e1565b6109b8565b005b61043b61044b36600461382d565b610a76565b60a8545b6040519081526020015b60405180910390f35b61043b61047536600461382d565b610ad1565b61048d610488366004613866565b610b2c565b604051600160a060020a03909116815260200161045e565b6104b86104b3366004613866565b610b56565b60408051600160a060020a03978816815260208101969096528501939093526060840191909152608083015290911660a082015260c00161045e565b61045460a45481565b61048d61050b366004613963565b60aa6020908152600093845260408085208451808601840180519281529084019584019590952094529290528252902054600160a060020a031681565b61043b610556366004613a30565b610ba9565b610454610569366004613a73565b610bed565b60b35461048d90600160a060020a031681565b61045460a35481565b61045460a15481565b61043b6105a1366004613866565b610c88565b6105b96105b4366004613aac565b610d17565b60408051948552602085019390935291830152606082015260800161045e565b61043b6105e7366004613c95565b610d93565b61043b6105fa366004613e05565b610f66565b610454609c5481565b610454609d5481565b61043b61061f366004613e37565b61100f565b610454610632366004613866565b61105e565b610454610645366004613e54565b6111dd565b61045460a05481565b61043b610661366004613e79565b611205565b61043b610674366004613ea7565b61125c565b610454611418565b61043b61068f366004613a73565b6114c5565b60995461048d90600160a060020a031681565b60ae5461048d90600160a060020a031681565b61043b6106c8366004613efa565b611579565b61043b6106db366004613f35565b611678565b61048d61dead81565b61043b6116e5565b6104546106ff366004613f52565b61171e565b60b25461048d90600160a060020a031681565b60ac5461048d90600160a060020a031681565b61043b610738366004613e05565b611799565b60ab5461048d90600160a060020a031681565b61045461075e366004613f91565b61191b565b60975461048d90600160a060020a031681565b603354600160a060020a031661048d565b60ab546107ac9074010000000000000000000000000000000000000000900460ff1681565b604051901515815260200161045e565b6104546107ca366004613866565b611bf7565b61043b6107dd366004613866565b611ce8565b6104546107f0366004613f91565b611d53565b61048d610803366004613866565b611f78565b61045460a55481565b61045460a25481565b61043b61082836600461382d565b611f88565b609a5461048d90600160a060020a031681565b61045461084e366004613fc9565b611fe3565b60b15461048d90600160a060020a031681565b610879610874366004613f91565b611ff8565b604080519687526020870195909552938501929092526060840152608083015260a082015260c00161045e565b60985461048d90600160a060020a031681565b61043b6108c7366004613a30565b612059565b610454609e5481565b61043b6108e3366004613e37565b612099565b61043b6108f6366004613feb565b6120e8565b609b5461048d90600160a060020a031681565b610454609f5481565b61043b61092536600461405b565b6121b0565b61043b6109383660046140d9565b612263565b60ad5461048d90600160a060020a031681565b61043b61095e366004613e37565b6122e1565b61045460a65481565b61043b61097a366004613e37565b612330565b61043b61098d366004613866565b6123e8565b61043b6109a036600461382d565b61246d565b60a75461048d90600160a060020a031681565b600260655414156109e75760405160e560020a62461bcd0281526004016109de90614157565b60405180910390fd5b6002606581905550600060a88481548110610a0457610a0461418e565b600091825260209091206006909102018054909150610a2d90600160a060020a03163085612525565b60058101548154610a4d91600160a060020a03918216913391168661266f565b610a6a8433604051806020016040528060008152508686426126c0565b50506001606555505050565b603354600160a060020a03163314610aa35760405160e560020a62461bcd0281526004016109de906141a7565b60b18054600160a060020a03938416600160a060020a03199182161790915560b28054929093169116179055565b603354600160a060020a03163314610afe5760405160e560020a62461bcd0281526004016109de906141a7565b60978054600160a060020a03938416600160a060020a03199182161790915560988054929093169116179055565b60af8181548110610b3c57600080fd5b600091825260209091200154600160a060020a0316905081565b60a88181548110610b6657600080fd5b6000918252602090912060069091020180546001820154600283015460038401546004850154600590950154600160a060020a0394851696509294919390921686565b603354600160a060020a03163314610bd65760405160e560020a62461bcd0281526004016109de906141a7565b8051610be99060af906020840190613767565b5050565b600060026065541415610c155760405160e560020a62461bcd0281526004016109de90614157565b60026065819055506000610c3b85336040518060200160405280600081525087876129d4565b9050610c7a33826000015160a88881548110610c5957610c5961418e565b6000918252602090912060069091020154600160a060020a03169190612e9e565b516001606555949350505050565b603354600160a060020a03163314610cb55760405160e560020a62461bcd0281526004016109de906141a7565b60a754600160a060020a03163014610d125760405160e560020a62461bcd02815260206004820152600f60248201527f6f6e6c7920686f6d6520636861696e000000000000000000000000000000000060448201526064016109de565b609f55565b60b354600090819081908190600160a060020a031633600160a060020a031614610d865760405160e560020a62461bcd02815260206004820152600b60248201527f78636861696e206f6e6c7900000000000000000000000000000000000000000060448201526064016109de565b9650965096509692505050565b805160978054600160a060020a0319908116600160a060020a039384161790915560208084015160988054841691851691909117905560408085015160ad80548516918616919091179055606080860151609b8054861691871691909117905560808087015160998054871691881691909117905560a080880151609a8054881691891691909117905560c088015160ac8054881691891691909117905560e088015160ae8054881691891691909117905560019055601460a15560ab80546101408901518051609d5580870151609c5580860151609e5580850151609f5583015160a281905560a355610160890151805160a5558087015160a6559485015160a780548916918a16919091179055928401517401000000000000000000000000000000000000000074ffffffffffffffffffffffffffffffffffffffffff199094169088161792909217909155015160b3805490931693169290921790556101008201518051610f089260af920190613767565b506101208101518051610f239160b091602090910190613767565b50610180810151805160b18054600160a060020a0319908116600160a060020a039384161790915560209092015160b280549093169116179055610be982612330565b60026065541415610f8c5760405160e560020a62461bcd0281526004016109de90614157565b6002606581905550600060a88581548110610fa957610fa961418e565b6000918252602090912060056006909202010154609854600160a060020a039182169250610fd991163086612525565b609854610ff190600160a060020a031633838761266f565b610a6a85336040518060200160405280600081525087874288612eec565b603354600160a060020a0316331461103c5760405160e560020a62461bcd0281526004016109de906141a7565b60ab8054600160a060020a031916600160a060020a0392909216919091179055565b60008060a883815481106110745761107461418e565b90600052602060002090600602019050806002015443116110985750600092915050565b60006110b1826002015443612ffd90919063ffffffff16565b9050600081116110c5575060009392505050565b60006110f660a4546110f085600101546110ea609e548761300990919063ffffffff16565b90613009565b90613015565b60a754909150600160a060020a031630141561114f5760995460975461112a91600160a060020a039182169116308461266f565b60038301546111399082613021565b6003840155505043600290910155506000919050565b6097546040517f40c10f1900000000000000000000000000000000000000000000000000000000815230600482015260248101839052600160a060020a03909116906340c10f1990604401600060405180830381600087803b1580156111b457600080fd5b505af11580156111c8573d6000803e3d6000fd5b5092979650505050505050565b505050919050565b600091825260a960209081526040808420600160a060020a0393909316845291905290205490565b603354600160a060020a031633146112325760405160e560020a62461bcd0281526004016109de906141a7565b60a59290925560a65560a78054600160a060020a031916600160a060020a03909216919091179055565b603354600160a060020a031633146112895760405160e560020a62461bcd0281526004016109de906141a7565b811561129957611297611418565b505b6000609c5443116112ac57609c546112ae565b435b60a4549091506112be9086613021565b60a4556040805160c081018252600160a060020a039586168152602081019687529081019182526000606082018181526080830182815294871660a0840190815260a880546001810182559352925160069092027fbee89403b5bf0e626c2f71adb366311c697013df53107181a963adc459ef4d9981018054938916600160a060020a031994851617905597517fbee89403b5bf0e626c2f71adb366311c697013df53107181a963adc459ef4d9a89015592517fbee89403b5bf0e626c2f71adb366311c697013df53107181a963adc459ef4d9b88015591517fbee89403b5bf0e626c2f71adb366311c697013df53107181a963adc459ef4d9c87015591517fbee89403b5bf0e626c2f71adb366311c697013df53107181a963adc459ef4d9d86015590517fbee89403b5bf0e626c2f71adb366311c697013df53107181a963adc459ef4d9e909401805494909316931692909217905550565b60a854600090815b818110156114c0576040517f51eb05a6000000000000000000000000000000000000000000000000000000008152600481018290526114ae9030906351eb05a6906024016020604051808303816000875af1158015611483573d6000803e3d6000fd5b505050506040513d601f19601f820116820180604052508101906114a791906141dc565b8490613021565b92506114b98161420e565b9050611420565b505090565b603354600160a060020a031633146114f25760405160e560020a62461bcd0281526004016109de906141a7565b801561150257611500611418565b505b6115458261153f60a8868154811061151c5761151c61418e565b90600052602060002090600602016001015460a454612ffd90919063ffffffff16565b90613021565b60a4819055508160a8848154811061155f5761155f61418e565b906000526020600020906006020160010181905550505050565b60ab54600160a060020a031633600160a060020a0316146115df5760405160e560020a62461bcd02815260206004820152601160248201527f6f6e6c79205a6f72726f206f7261636c6500000000000000000000000000000060448201526064016109de565b6000611601836110f06115f487612710613015565b60a3546110ea908a613009565b905060a154811115611616575060a154611625565b60a054811015611625575060a0545b60006116376127106110f08585613009565b90506000611654886110f08460a25461300990919063ffffffff16565b905061166b609d548261301590919063ffffffff16565b609e555050505050505050565b603354600160a060020a031633146116a55760405160e560020a62461bcd0281526004016109de906141a7565b60ab8054911515740100000000000000000000000000000000000000000274ff000000000000000000000000000000000000000019909216919091179055565b603354600160a060020a031633146117125760405160e560020a62461bcd0281526004016109de906141a7565b61171c600061302d565b565b6000600260655414156117465760405160e560020a62461bcd0281526004016109de90614157565b6002606581905550600061176d33604051806020016040528060008152508888888861307f565b505060985491925061178b91600160a060020a031690503383612e9e565b600160655595945050505050565b600260655414156117bf5760405160e560020a62461bcd0281526004016109de90614157565b6002606555600084815260a96020908152604080832033845290915281208054859081106117ef576117ef61418e565b600091825260208083206003600690930201919091015487835260a982526040808420338552909252908220805491935090869081106118315761183161418e565b906000526020600020906006020160040154905060006118653360405180602001604052806000815250898960008961307f565b50505090506060609860009054906101000a9004600160a060020a0316816000815181106118955761189561418e565b6020026020010190600160a060020a03169081600160a060020a0316815250506118d38633604051806020016040528060008152508588888b612eec565b604051338152869088908a907f67e7aba7263d8fbeb0cd9a2f4008f060a6a03f46c1d7f9d0550f0b93e96e96f89060200160405180910390a450506001606555505050505050565b60008060a885815481106119315761193161418e565b9060005260206000209060060201905060008160050160009054906101000a9004600160a060020a0316600160a060020a03166344a3955e6040518163ffffffff167c0100000000000000000000000000000000000000000000000000000000028152600401602060405180830381865afa1580156119b4573d6000803e3d6000fd5b505050506040513d601f19601f820116820180604052508101906119d891906141dc565b9050600060a887815481106119ef576119ef61418e565b600091825260209182902060056006909202010154604080517f42da4eb30000000000000000000000000000000000000000000000000000000081529051600160a060020a03909216926342da4eb3926004808401938290030181865afa158015611a5e573d6000803e3d6000fd5b505050506040513d601f19601f82011682018060405250810190611a8291906141dc565b905081611a8e57600093505b6000851215611b53576000611aa388886111dd565b905060005b81811015611b4c57600089815260a960209081526040808320600160a060020a038c1684529091528120805483908110611ae457611ae461418e565b906000526020600020906006020190506000611b1882600101546110f0620f4240856000015461300990919063ffffffff16565b9050611b37611b30876110f0620f424081868b613009565b8990613021565b9750505080611b459061420e565b9050611aa8565b5050611bed565b600087815260a960209081526040808320600160a060020a038a1684529091528120805487908110611b8757611b8761418e565b90600052602060002090600602019050600081600501541115611be65760018101548154600091611bbf916110f090620f4240613009565b9050611bde611bd7856110f0620f4240818689613009565b8790613021565b955050611beb565b600094505b505b5050509392505050565b60ab5460009074010000000000000000000000000000000000000000900460ff1615611cd7576040517f677342ce00000000000000000000000000000000000000000000000000000000815260048101839052611cd19064e8d4a51000906110ea90611cc99073__CustomMath____________________________9063677342ce90602401602060405180830381865af4158015611c99573d6000803e3d6000fd5b505050506040513d601f19601f82011682018060405250810190611cbd91906141dc565b6110ea6002600a613015565b600190613021565b92915050565b5064e8d4a51000919050565b919050565b60026065541415611d0e5760405160e560020a62461bcd0281526004016109de90614157565b60026065556000611d1f82336111dd565b905060005b81811015611d4957611d3883826000610bed565b50611d428161420e565b9050611d24565b5050600160655550565b60008060a88581548110611d6957611d6961418e565b906000526020600020906006020190506000816003015490508160020154431115611de5576000611da7836002015443612ffd90919063ffffffff16565b90506000609e5490506000611dd360a4546110f087600101546110ea868861300990919063ffffffff16565b9050611ddf8482613021565b93505050505b6004820154611df957600092505050611f71565b6000841215611ed7576000611e0e87876111dd565b905060005b81811015611ed057600088815260a960209081526040808320600160a060020a038b1684529091528120805483908110611e4f57611e4f61418e565b90600052602060002090600602019050600081600501541115611ebf5760048501548154600091611e87916110f090620f4240613009565b9050611ebb611eb48360020154611eae620f42406110f08a8761300990919063ffffffff16565b90612ffd565b8890613021565b9650505b50611ec98161420e565b9050611e13565b5050611f6e565b600086815260a960209081526040808320600160a060020a03891684529091528120805486908110611f0b57611f0b61418e565b90600052602060002090600602019050600081600501541115611f685760048301548154600091611f43916110f090620f4240613009565b6002830154909150611f6090611eae620f42406110f08588613009565b945050611bed565b60009350505b50505b9392505050565b60b08181548110610b3c57600080fd5b603354600160a060020a03163314611fb55760405160e560020a62461bcd0281526004016109de906141a7565b60ac8054600160a060020a03938416600160a060020a03199182161790915560ad8054929093169116179055565b6000611f7164e8d4a510006110f08585613009565b60a9602052826000526040600020602052816000526040600020818154811061202057600080fd5b60009182526020909120600690910201805460018201546002830154600384015460048501546005909501549397509195509350919086565b603354600160a060020a031633146120865760405160e560020a62461bcd0281526004016109de906141a7565b8051610be99060b0906020840190613767565b603354600160a060020a031633146120c65760405160e560020a62461bcd0281526004016109de906141a7565b60b38054600160a060020a031916600160a060020a0392909216919091179055565b603354600160a060020a031633146121155760405160e560020a62461bcd0281526004016109de906141a7565b609754600160a060020a038381169116141561219c5760405160e560020a62461bcd02815260206004820152603560248201527f217361666520746f20757365205a6f72726f20746f6b656e20696e2066756e6360448201527f20696e43617365546f6b656e73476574537475636b000000000000000000000060648201526084016109de565b610be9600160a060020a0383163383612e9e565b603354600160a060020a031633146121dd5760405160e560020a62461bcd0281526004016109de906141a7565b858560018181106121f0576121f061418e565b6020029190910135609d55508585600281811061220f5761220f61418e565b6020029190910135609e5550838360008161222c5761222c61418e565b602002919091013560a055508383600181811061224b5761224b61418e565b602002919091013560a1555060a35560a25550505050565b60b354600160a060020a031633600160a060020a0316146122c95760405160e560020a62461bcd02815260206004820152600b60248201527f78636861696e206f6e6c7900000000000000000000000000000000000000000060448201526064016109de565b6122d887878787878787612eec565b50505050505050565b603354600160a060020a0316331461230e5760405160e560020a62461bcd0281526004016109de906141a7565b60ae8054600160a060020a031916600160a060020a0392909216919091179055565b603354600160a060020a0316331461235d5760405160e560020a62461bcd0281526004016109de906141a7565b600160a060020a0381166123dc5760405160e560020a62461bcd02815260206004820152602660248201527f4f776e61626c653a206e6577206f776e657220697320746865207a65726f206160448201527f646472657373000000000000000000000000000000000000000000000000000060648201526084016109de565b6123e58161302d565b50565b603354600160a060020a031633146124155760405160e560020a62461bcd0281526004016109de906141a7565b609c54156124685760405160e560020a62461bcd02815260206004820152601560248201527f626c6f636b506172616d7320696d6d757461626c65000000000000000000000060448201526064016109de565b609c55565b603354600160a060020a0316331461249a5760405160e560020a62461bcd0281526004016109de906141a7565b60a754600160a060020a031630146124f75760405160e560020a62461bcd02815260206004820152600f60248201527f6f6e6c7920686f6d6520636861696e000000000000000000000000000000000060448201526064016109de565b60998054600160a060020a03938416600160a060020a031991821617909155609a8054929093169116179055565b6040517fdd62ed3e000000000000000000000000000000000000000000000000000000008152306004820152600160a060020a038381166024830152600091839186169063dd62ed3e90604401602060405180830381865afa15801561258f573d6000803e3d6000fd5b505050506040513d601f19601f820116820180604052508101906125b391906141dc565b6125bd9190614229565b604051600160a060020a0385166024820152604481018290529091506126699085907f095ea7b300000000000000000000000000000000000000000000000000000000906064015b60408051601f198184030181529190526020810180517bffffffffffffffffffffffffffffffffffffffffffffffffffffffff167fffffffff0000000000000000000000000000000000000000000000000000000090931692909217909152613199565b50505050565b604051600160a060020a03808516602483015283166044820152606481018290526126699085907f23b872dd0000000000000000000000000000000000000000000000000000000090608401612605565b60008060a888815481106126d6576126d661418e565b90600052602060002090600602019050600085116127395760405160e560020a62461bcd02815260206004820152601560248201527f5f77616e74416d74206d757374206265203e203021000000000000000000000060448201526064016109de565b6127428861105e565b915086600160a060020a0381166127e95760008751116127cd5760405160e560020a62461bcd02815260206004820152602c60248201527f4e65697468657220666f726569676e2061636374206e6f72206c6f63616c206160448201527f6363742070726f7669646564000000000000000000000000000000000000000060648201526084016109de565b6127d687614241565b6c01000000000000000000000000900490505b600060a88a815481106127fe576127fe61418e565b60009182526020909120600690910201600501546040517fba0bb4ab000000000000000000000000000000000000000000000000000000008152600160a060020a038481166004830152602482018a90529091169063ba0bb4ab906044016020604051808303816000875af115801561287b573d6000803e3d6000fd5b505050506040513d601f19601f8201168201806040525081019061289f91906141dc565b609a54600585015491925064e8d4a5100091600160a060020a039081169116146128cf576128cc87611bf7565b90505b60006128db8383611fe3565b60048601549091506128ed9082613021565b6004860181905560009061290a906110f08464e8d4a51000613009565b905060006040518060c0016040528084815260200185815260200161294564e8d4a510006110f0868c6003015461300990919063ffffffff16565b81526020018b81526020018a8152602001600081525090506129698e878e84613281565b8d8c60405161297891906142a7565b604051809103902087600160a060020a03167fc6b1f1535b3bb3bdffa2f97a671ab7bd6f2512deec58103fa47eb40ed95274278e6040516129bb91815260200190565b60405180910390a4505050505050509695505050505050565b6129ff6040518060800160405280600081526020016000815260200160008152602001600081525090565b600160a060020a038516158015612a17575060008451115b80612a345750600160a060020a03851615801590612a3457508351155b612a835760405160e560020a62461bcd02815260206004820152601d60248201527f4f6e6c79206f6e65206163636f756e74207479706520616c6c6f77656400000060448201526064016109de565b6000612a9187858789613370565b9050600060a88881548110612aa857612aa861418e565b906000526020600020906006020190506000826000015111612b0f5760405160e560020a62461bcd02815260206004820152601960248201527f7472616e6368652e636f6e747269627574696f6e20697320300000000000000060448201526064016109de565b6000816004015411612b665760405160e560020a62461bcd02815260206004820152601e60248201527f746f74616c5472616e636865436f6e747269627574696f6e732069732030000060448201526064016109de565b60a082015115612bbb5760405160e560020a62461bcd02815260206004820152601460248201527f416c726561647920657869746564207661756c7400000000000000000000000060448201526064016109de565b612bc48861105e565b602084015260048101548251600091612be6916110f09064e8d4a51000613009565b90506000612c128460400151611eae64e8d4a510006110f087600301548761300990919063ffffffff16565b90508015612c8f57600080612c278684613512565b9150915060a65460a5541415612c68578115612c4757612c478b8361359e565b8015612c6357609a54612c6390600160a060020a03168261359e565b612c8c565b612c7d61dead612c788484613021565b61359e565b60408701829052606087018190525b50505b85612e915760a88a81548110612ca757612ca761418e565b600091825260209091206006909102016005015484516040517fe0ccabfa000000000000000000000000000000000000000000000000000000008152600160a060020a038c81166004830152602482019290925291169063e0ccabfa906044016020604051808303816000875af1158015612d26573d6000803e3d6000fd5b505050506040513d601f19601f82011682018060405250810190612d4a91906141dc565b5083516004840154612d5b91612ffd565b60048481019190915583546040517f70a082310000000000000000000000000000000000000000000000000000000081523092810192909252600160a060020a0316906370a0823190602401602060405180830381865afa158015612dc4573d6000803e3d6000fd5b505050506040513d601f19601f82011682018060405250810190612de891906141dc565b855260008a815260a960209081526040808320600160a060020a038d1684529091529020805442919089908110612e2157612e2161418e565b9060005260206000209060060201600501819055508988604051612e4591906142a7565b6040805191829003822088518b8452602084015291600160a060020a038d16917fa7749cd42821d3b82a6814af6d80712b2e43f98ec1b25aee31c8351855de65d9910160405180910390a45b5050505095945050505050565b604051600160a060020a038316602482015260448101829052612ee79084907fa9059cbb0000000000000000000000000000000000000000000000000000000090606401612605565b505050565b600060a88881548110612f0157612f0161418e565b60009182526020822060069190910201600501546040517fe502a88d0000000000000000000000000000000000000000000000000000000081526004810188905260248101859052600160a060020a039091169250829190829063e502a88d906044016020604051808303816000875af1158015612f83573d6000803e3d6000fd5b505050506040513d601f19601f82011682018060405250810190612fa791906141dc565b9050612fe2838260a88d81548110612fc157612fc161418e565b6000918252602090912060069091020154600160a060020a03169190612525565b612ff08a8a8a848a8a6126c0565b5050505050505050505050565b6000611f7182846142c3565b6000611f7182846142da565b6000611f7182846142f9565b6000611f718284614229565b60338054600160a060020a03838116600160a060020a0319831681179093556040519116919082907f8be0079c531659141344cd1fd0a4f28419497f9722a3daafe3b4186f6b6457e090600090a35050565b600080600080600060a8898154811061309a5761309a61418e565b60009182526020822060056006909202010154600160a060020a0316915081906130c78b8e8e8d8d6129d4565b90506130e583826000015160a88e81548110612fc157612fc161418e565b80516040517f648794a4000000000000000000000000000000000000000000000000000000008152600481019190915260248101899052600160a060020a0383169063648794a4906044016020604051808303816000875af115801561314f573d6000803e3d6000fd5b505050506040513d601f19601f8201168201806040525081019061317391906141dc565b60208201516040830151606090930151919f909e50919c509a5098505050505050505050565b60006131ee826040518060400160405280602081526020017f5361666545524332303a206c6f772d6c6576656c2063616c6c206661696c656481525085600160a060020a031661364d9092919063ffffffff16565b805190915015612ee7578080602001905181019061320c919061431e565b612ee75760405160e560020a62461bcd02815260206004820152602a60248201527f5361666545524332303a204552433230206f7065726174696f6e20646964206e60448201527f6f7420737563636565640000000000000000000000000000000000000000000060648201526084016109de565b600084815260a960209081526040808320600160a060020a0387168452825280832080546001818101835591855293839020855160069095020193845591840151918301919091558201516002820155606082015160038201556080820151600482015560a0820151600590910155815115612669578260aa60008681526020019081526020016000208360405161331991906142a7565b908152602001604051809103902060006133386001611eae89896111dd565b815260200190815260200160002060006101000a815481600160a060020a030219169083600160a060020a0316021790555050505050565b6133a96040518060c001604052806000815260200160008152602001600081526020016000815260200160008152602001600081525090565b600160a060020a03821661344757600085815260a960209081526040808320600160a060020a038616845290915290208054859081106133eb576133eb61418e565b90600052602060002090600602016040518060c00160405290816000820154815260200160018201548152602001600282015481526020016003820154815260200160048201548152602001600582015481525050905061350a565b600085815260aa602052604080822090516134639086906142a7565b908152604080516020928190038301902060008881529083528181205489825260a98452828220600160a060020a03909116808352935220805491925090869081106134b1576134b161418e565b90600052602060002090600602016040518060c001604052908160008201548152602001600182015481526020016002820154815260200160038201548152602001600482015481526020016005820154815250509150505b949350505050565b6000806000831161352857506000905080613597565b600061355642611eae61354b62093a80896060015161300990919063ffffffff16565b608089015190613021565b9050801561359157606085015161357e906135749062093a80613009565b6110f08684613009565b915061358a8483612ffd565b9250613595565b8392505b505b9250929050565b6097546040517f70a082310000000000000000000000000000000000000000000000000000000081523060048201528291600091600160a060020a03909116906370a0823190602401602060405180830381865afa158015613604573d6000803e3d6000fd5b505050506040513d601f19601f8201168201806040525081019061362891906141dc565b905080831115613636578091505b60975461266990600160a060020a03168584612e9e565b606061350a848460008585600160a060020a0385163b6136b25760405160e560020a62461bcd02815260206004820152601d60248201527f416464726573733a2063616c6c20746f206e6f6e2d636f6e747261637400000060448201526064016109de565b60008086600160a060020a031685876040516136ce91906142a7565b60006040518083038185875af1925050503d806000811461370b576040519150601f19603f3d011682016040523d82523d6000602084013e613710565b606091505b509150915061372082828661372b565b979650505050505050565b6060831561373a575081611f71565b82511561374a5782518084602001fd5b8160405160e560020a62461bcd0281526004016109de919061433b565b8280548282559060005260206000209081019282156137bc579160200282015b828111156137bc5782518254600160a060020a031916600160a060020a03909116178255602090920191600190910190613787565b506137c89291506137cc565b5090565b5b808211156137c857600081556001016137cd565b6000806000606084860312156137f657600080fd5b505081359360208301359350604090920135919050565b600160a060020a03811681146123e557600080fd5b8035611ce38161380d565b6000806040838503121561384057600080fd5b823561384b8161380d565b9150602083013561385b8161380d565b809150509250929050565b60006020828403121561387857600080fd5b5035919050565b60e060020a634e487b7102600052604160045260246000fd5b6040516101a0810167ffffffffffffffff811182821017156138bc576138bc61387f565b60405290565b604051601f8201601f1916810167ffffffffffffffff811182821017156138eb576138eb61387f565b604052919050565b600082601f83011261390457600080fd5b813567ffffffffffffffff81111561391e5761391e61387f565b613931601f8201601f19166020016138c2565b81815284602083860101111561394657600080fd5b816020850160208301376000918101602001919091529392505050565b60008060006060848603121561397857600080fd5b83359250602084013567ffffffffffffffff81111561399657600080fd5b6139a2868287016138f3565b925050604084013590509250925092565b600082601f8301126139c457600080fd5b8135602067ffffffffffffffff8211156139e0576139e061387f565b8082026139ee8282016138c2565b9283528481018201928281019087851115613a0857600080fd5b83870192505b84831015613720578235613a218161380d565b82529183019190830190613a0e565b600060208284031215613a4257600080fd5b813567ffffffffffffffff811115613a5957600080fd5b61350a848285016139b3565b80151581146123e557600080fd5b600080600060608486031215613a8857600080fd5b83359250602084013591506040840135613aa181613a65565b809150509250925092565b60008060008060008060c08789031215613ac557600080fd5b8635613ad08161380d565b9550602087013567ffffffffffffffff811115613aec57600080fd5b613af889828a016138f3565b95505060408701359350606087013592506080870135613b1781613a65565b8092505060a087013590509295509295509295565b600060c08284031215613b3e57600080fd5b60405160c0810181811067ffffffffffffffff82111715613b6157613b6161387f565b8060405250809150823581526020830135602082015260408301356040820152606083013560608201526080830135608082015260a083013560a08201525092915050565b600060a08284031215613bb857600080fd5b60405160a0810181811067ffffffffffffffff82111715613bdb57613bdb61387f565b806040525080915082358152602083013560208201526040830135613bff8161380d565b60408201526060830135613c128161380d565b60608201526080830135613c258161380d565b6080919091015292915050565b600060408284031215613c4457600080fd5b6040516040810181811067ffffffffffffffff82111715613c6757613c6761387f565b6040529050808235613c788161380d565b81526020830135613c888161380d565b6020919091015292915050565b60008060408385031215613ca857600080fd5b8235613cb38161380d565b9150602083013567ffffffffffffffff80821115613cd057600080fd5b908401906102e08287031215613ce557600080fd5b613ced613898565b613cf683613822565b8152613d0460208401613822565b6020820152613d1560408401613822565b6040820152613d2660608401613822565b6060820152613d3760808401613822565b6080820152613d4860a08401613822565b60a0820152613d5960c08401613822565b60c0820152613d6a60e08401613822565b60e08201526101008084013583811115613d8357600080fd5b613d8f898287016139b3565b8284015250506101208084013583811115613da957600080fd5b613db5898287016139b3565b8284015250506101409150613dcc87838501613b2c565b82820152613dde876102008501613ba6565b610160820152613df2876102a08501613c32565b6101808201528093505050509250929050565b60008060008060808587031215613e1b57600080fd5b5050823594602084013594506040840135936060013592509050565b600060208284031215613e4957600080fd5b8135611f718161380d565b60008060408385031215613e6757600080fd5b82359150602083013561385b8161380d565b600080600060608486031215613e8e57600080fd5b83359250602084013591506040840135613aa18161380d565b60008060008060808587031215613ebd57600080fd5b843593506020850135613ecf8161380d565b92506040850135613edf81613a65565b91506060850135613eef8161380d565b939692955090935050565b600080600080600060a08688031215613f1257600080fd5b505083359560208501359550604085013594606081013594506080013592509050565b600060208284031215613f4757600080fd5b8135611f7181613a65565b60008060008060808587031215613f6857600080fd5b84359350602085013592506040850135613f8181613a65565b9396929550929360600135925050565b600080600060608486031215613fa657600080fd5b833592506020840135613fb88161380d565b929592945050506040919091013590565b60008060408385031215613fdc57600080fd5b50508035926020909101359150565b60008060408385031215613ffe57600080fd5b82356140098161380d565b946020939093013593505050565b60008083601f84011261402957600080fd5b50813567ffffffffffffffff81111561404157600080fd5b602083019150836020808302850101111561359757600080fd5b6000806000806000806080878903121561407457600080fd5b863567ffffffffffffffff8082111561408c57600080fd5b6140988a838b01614017565b909850965060208901359150808211156140b157600080fd5b506140be89828a01614017565b979a9699509760408101359660609091013595509350505050565b600080600080600080600060e0888a0312156140f457600080fd5b8735965060208801356141068161380d565b9550604088013567ffffffffffffffff81111561412257600080fd5b61412e8a828b016138f3565b979a96995096976060810135975060808101359660a0820135965060c090910135945092505050565b6020808252601f908201527f5265656e7472616e637947756172643a207265656e7472616e742063616c6c00604082015260600190565b60e060020a634e487b7102600052603260045260246000fd5b6020808252818101527f4f776e61626c653a2063616c6c6572206973206e6f7420746865206f776e6572604082015260600190565b6000602082840312156141ee57600080fd5b5051919050565b60e060020a634e487b7102600052601160045260246000fd5b6000600019821415614222576142226141f5565b5060010190565b6000821982111561423c5761423c6141f5565b500190565b805160208201516bffffffffffffffffffffffff1980821692919060148310156111d55760149290920360080260020a8202161692915050565b60005b8381101561429657818101518382015260200161427e565b838111156126695750506000910152565b600082516142b981846020870161427b565b9190910192915050565b6000828210156142d5576142d56141f5565b500390565b60008160001904831182151516156142f4576142f46141f5565b500290565b6000826143195760e060020a634e487b7102600052601260045260246000fd5b500490565b60006020828403121561433057600080fd5b8151611f7181613a65565b602081526000825180602084015261435a81604085016020870161427b565b601f01601f1916919091016040019291505056fea2646970667358221220f3b7ef18eb82b627e3ac4d7f5ecce34ed00be4198f47a3ad56e7ac22c10ebfba64736f6c634300080a0033",
  "immutableReferences": {},
  "source": "// SPDX-License-Identifier: MIT\npragma solidity ^0.8.0;\n\nimport \"./_ZorroControllerBase.sol\";\n\nimport \"./_ZorroControllerPoolMgmt.sol\";\n\nimport \"./_ZorroControllerInvestment.sol\";\n\nimport \"./_ZorroControllerAnalytics.sol\";\n\nimport \"./_ZorroControllerXChainReceiver.sol\";\n\nimport \"./_ZorroControllerXChainDeposit.sol\";\n\nimport \"./_ZorroControllerXChainWithdraw.sol\";\n\nimport \"./_ZorroControllerXChainEarn.sol\";\n\n/* Main Contract */\n/// @title ZorroController: The main controller of the Zorro yield farming protocol. Used for cash flow operations (deposit/withdrawal), managing vaults, and rewards allocations, among other things.\ncontract ZorroController is\n    ZorroControllerBase,\n    ZorroControllerPoolMgmt,\n    ZorroControllerAnalytics,\n    ZorroControllerInvestment\n{\n    /* Constructor */\n\n    /// @notice Upgradeable constructor\n    /// @param _timelockOwner Address of owner (should be a timelock)\n    /// @param _initValue A ZorroControllerInit struct containing all constructor args\n    function initialize(address _timelockOwner, ZorroControllerInit memory _initValue) public {\n        // Tokens\n        ZORRO = _initValue.ZORRO;\n        defaultStablecoin = _initValue.defaultStablecoin;\n        zorroLPPoolOtherToken = _initValue.zorroLPPoolOtherToken;\n        tokenUSDC = _initValue.tokenUSDC;\n\n        // Key contracts\n        publicPool = _initValue.publicPool;\n        zorroStakingVault = _initValue.zorroStakingVault;\n        zorroLPPool = _initValue.zorroLPPool;\n        uniRouterAddress = _initValue.uniRouterAddress;\n\n        // Rewards\n        ZORRODailyDistributionFactorBasisPointsMin = 1;\n        ZORRODailyDistributionFactorBasisPointsMax = 20;\n        isTimeMultiplierActive = true;\n        blocksPerDay = _initValue.rewards.blocksPerDay;\n        startBlock = _initValue.rewards.startBlock;\n        ZORROPerBlock = _initValue.rewards.ZORROPerBlock;\n        targetTVLCaptureBasisPoints = _initValue\n            .rewards\n            .targetTVLCaptureBasisPoints;\n        chainMultiplier = _initValue.rewards.chainMultiplier;\n        baseRewardRateBasisPoints = _initValue.rewards.chainMultiplier;\n\n        // Cross chain\n        chainId = _initValue.xChain.chainId;\n        homeChainId = _initValue.xChain.homeChainId;\n        homeChainZorroController = _initValue.xChain.homeChainZorroController;\n        zorroControllerOracle = _initValue.xChain.zorroControllerOracle;\n        zorroXChainEndpoint = _initValue.xChain.zorroXChainEndpoint;\n\n        // Investment\n        USDCToZorroPath = _initValue.USDCToZorroPath;\n        USDCToZorroLPPoolOtherTokenPath = _initValue\n            .USDCToZorroLPPoolOtherTokenPath;\n\n        // Price feeds\n        priceFeedZOR = AggregatorV3Interface(\n            _initValue.priceFeeds.priceFeedZOR\n        );\n        priceFeedLPPoolOtherToken = AggregatorV3Interface(\n            _initValue.priceFeeds.priceFeedLPPoolOtherToken\n        );\n\n        // Assign owner as to timelock contract\n        transferOwnership(_timelockOwner);\n    }\n\n    /* Structs */\n\n    struct ZorroControllerRewards {\n        uint256 blocksPerDay;\n        uint256 startBlock;\n        uint256 ZORROPerBlock;\n        uint256 targetTVLCaptureBasisPoints;\n        uint256 chainMultiplier;\n        uint256 baseRewardRateBasisPoints;\n    }\n\n    struct ZorroControllerXChainParams {\n        uint256 chainId;\n        uint256 homeChainId;\n        address homeChainZorroController;\n        address zorroControllerOracle;\n        address zorroXChainEndpoint;\n    }\n\n    struct ZorroControllerPriceFeeds {\n        address priceFeedZOR;\n        address priceFeedLPPoolOtherToken;\n    }\n\n    struct ZorroControllerInit {\n        address ZORRO;\n        address defaultStablecoin;\n        address zorroLPPoolOtherToken;\n        address tokenUSDC;\n        address publicPool;\n        address zorroStakingVault;\n        address zorroLPPool;\n        address uniRouterAddress;\n        address[] USDCToZorroPath;\n        address[] USDCToZorroLPPoolOtherTokenPath;\n        ZorroControllerRewards rewards;\n        ZorroControllerXChainParams xChain;\n        ZorroControllerPriceFeeds priceFeeds;\n    }\n}\n",
  "sourcePath": "/Users/kristophm/Documents/workspace/zorro-protocol/contracts/controllers/ZorroController.sol",
  "compiler": {
    "name": "solc",
    "version": "0.8.10+commit.fc410830.Emscripten.clang"
  },
  "schemaVersion": "3.4.4",
  "updatedAt": "2022-04-12T02:45:39.603Z",
  "networkType": "ethereum",
  "devdoc": {
    "kind": "dev",
    "methods": {
      "add(uint256,address,bool,address)": {
        "details": "DO NOT add the same Want token more than once. Rewards will be messed up if you do. (Only if Want tokens are stored here.)",
        "params": {
          "_allocPoint": "The number of allocation points for this pool (aka \"multiplier\")",
          "_vault": "The contract address of the underlying vault",
          "_want": "The address of the want token",
          "_withUpdate": "Mass update all pools if set to true"
        }
      },
      "deposit(uint256,uint256,uint256)": {
        "params": {
          "_pid": "index of pool",
          "_wantAmt": "how much Want token to deposit",
          "_weeksCommitted": "how many weeks the user is committing to on this vault"
        }
      },
      "depositFullService(uint256,uint256,uint256,uint256)": {
        "params": {
          "_maxMarketMovement": "factor to account for max market movement/slippage. The definition varies by Vault, so consult the associated Vault contract for info",
          "_pid": "index of pool to deposit into",
          "_valueUSDC": "value in USDC (in ether units) to deposit",
          "_weeksCommitted": "how many weeks to commit to the Pool (can be 0 or any uint)"
        }
      },
      "depositFullServiceFromXChain(uint256,address,bytes,uint256,uint256,uint256,uint256)": {
        "params": {
          "_account": "address of user on-chain",
          "_foreignAccount": "the cross chain wallet that initiated this call, if applicable.",
          "_maxMarketMovement": "factor to account for max market movement/slippage. The definition varies by Vault, so consult the associated Vault contract for info",
          "_pid": "index of pool to deposit into",
          "_valueUSDC": "value in USDC (in ether units) to deposit",
          "_vaultEnteredAt": "date that the vault was entered at",
          "_weeksCommitted": "how many weeks to commit to the Pool (can be 0 or any uint)"
        }
      },
      "getTimeMultiplier(uint256)": {
        "params": {
          "durationInWeeks": "number of weeks committed into Vault"
        },
        "returns": {
          "_0": "multiplier factor, times 1e12"
        }
      },
      "getUserContribution(uint256,uint256)": {
        "params": {
          "_liquidityCommitted": "How many tokens staked (e.g. LP tokens)",
          "_timeMultiplier": "Time multiplier value (from getTimeMultiplier())"
        },
        "returns": {
          "_0": "The relative contribution of the user (unitless)"
        }
      },
      "inCaseTokensGetStuck(address,uint256)": {
        "details": "Does not permit usage for the Zorro token",
        "params": {
          "_amount": "token quantity",
          "_token": "ERC20 token address"
        }
      },
      "initialize(address,(address,address,address,address,address,address,address,address,address[],address[],(uint256,uint256,uint256,uint256,uint256,uint256),(uint256,uint256,address,address,address),(address,address)))": {
        "params": {
          "_initValue": "A ZorroControllerInit struct containing all constructor args",
          "_timelockOwner": "Address of owner (should be a timelock)"
        }
      },
      "massUpdatePools()": {
        "details": "Be careful of gas fees!",
        "returns": {
          "_mintedZOR": "total amount of ZOR rewards minted (useful for cross chain)"
        }
      },
      "owner()": {
        "details": "Returns the address of the current owner."
      },
      "pendingZORRORewards(uint256,address,int256)": {
        "params": {
          "_account": "Wallet address of on chain account",
          "_pid": "Index of pool",
          "_trancheId": "Tranche ID. If -1, will do pending rewards for all active tranches"
        },
        "returns": {
          "_pendingRewards": "Amount of Zorro rewards"
        }
      },
      "poolLength()": {
        "returns": {
          "_0": "Number of pools"
        }
      },
      "renounceOwnership()": {
        "details": "Leaves the contract without owner. It will not be possible to call `onlyOwner` functions anymore. Can only be called by the current owner. NOTE: Renouncing ownership will leave the contract without an owner, thereby removing any functionality that is only available to the owner."
      },
      "set(uint256,uint256,bool)": {
        "params": {
          "_allocPoint": "The number of allocation points for this pool (aka \"multiplier\")",
          "_pid": "The index of the pool ID",
          "_withUpdate": "Mass update all pools if set to true"
        }
      },
      "setIsTimeMultiplierActive(bool)": {
        "params": {
          "_isActive": "Whether it shall be active. If false, timemultiplier will be 1."
        }
      },
      "setKeyAddresses(address,address)": {
        "params": {
          "_ZORRO": "ZOR token address",
          "_defaultStablecoin": "Main stablecoin address (USDC)"
        }
      },
      "setPriceFeeds(address,address)": {
        "params": {
          "_priceFeedLPPoolOtherToken": "The address of the price feed for the counterparty token in the ZOR LP Pool",
          "_priceFeedZOR": "The address of the price feed for ZOR"
        }
      },
      "setRewardsParams(uint256[],uint256[],uint256,uint256)": {
        "details": "NOTE: Must enter all parameters or existing ones will be overwritten!",
        "params": {
          "_baseRewardRateBasisPoints": "Base reward rate factor, in bp",
          "_blockParams": "Array of [blocksPerDay, ZORROPerBlock]",
          "_chainMultiplier": "Rewards multiplier factor to be applied to this chain",
          "_dailyDistFactors": "Array of [ZORRODailyDistributionFactorBasisPointsMin, ZORRODailyDistributionFactorBasisPointsMax]"
        }
      },
      "setTargetTVLCaptureBasisPoints(uint256)": {
        "params": {
          "_targetTVLCaptureBasisPoints": "Percent of market desired to be captured, in bp. 333 = 3.33%. ONLY to be set on the home chain"
        }
      },
      "setUSDCToZORPath(address[])": {
        "params": {
          "_path": "Swap path"
        }
      },
      "setUSDCToZorroLPPoolOtherTokenPath(address[])": {
        "params": {
          "_path": "Swap path"
        }
      },
      "setUniRouter(address)": {
        "params": {
          "_uniV2Router": "Address of router"
        }
      },
      "setXChainParams(uint256,uint256,address)": {
        "params": {
          "_chainId": "The ind of the chain that this contract is on",
          "_homeChainId": "The chain ID of the home chain",
          "_homeChainZorroController": "The address of the home chain controller"
        }
      },
      "setZorroContracts(address,address)": {
        "params": {
          "_publicPool": "Public pool address (where ZOR minted)",
          "_zorroStakingVault": "Zorro single staking vault address"
        }
      },
      "setZorroControllerOracle(address)": {
        "params": {
          "_zorroControllerOracle": "Address of Chainlink oracle that can interact with this contract"
        }
      },
      "setZorroLPPoolParams(address,address)": {
        "params": {
          "_zorroLPPool": "Address of the Zorro-X LP pool",
          "_zorroLPPoolOtherToken": "Address of the counterpart token to the ZOR token in the LP Pool"
        }
      },
      "setZorroPerBlock(uint256,uint256,uint256,uint256,uint256)": {
        "details": "Values to be provided by Oracle. Perferable to run daily",
        "params": {
          "_ZorroTotalVaultTVLUSD": "USD value of all TVL locked into the Zorro protocol, across all chains",
          "_publicPoolZORBalance": "Number of ZOR tokens remaining in public pool on home chain",
          "_targetTVLCaptureBasisPoints": "% desired capture of total market TVL, measured in basis points",
          "_totalChainMultipliers": "Sum total of all chain multipliers for each chain",
          "_totalMarketTVLUSD": "Total DeFi market TVL across all chains (measured in USD)"
        }
      },
      "setZorroXChainEndpoint(address)": {
        "params": {
          "_contract": "Contract address of endpoint"
        }
      },
      "stakedWantTokens(uint256,address,int256)": {
        "params": {
          "_account": "Wallet address of on chain account",
          "_pid": "Index of pool",
          "_trancheId": "Tranche ID, or -1 to aggregate across all tranches"
        },
        "returns": {
          "_stakedWantTokens": "Amount of staked Want tokens"
        }
      },
      "trancheLength(uint256,address)": {
        "params": {
          "_pid": "Index of pool",
          "_user": "wallet address of user"
        },
        "returns": {
          "_0": "Number of tranches"
        }
      },
      "transferInvestment(uint256,uint256,uint256,uint256)": {
        "params": {
          "_fromPid": "index of pool FROM",
          "_fromTrancheId": "index of tranche FROM",
          "_maxMarketMovement": "factor to account for max market movement/slippage. The definition varies by Vault, so consult the associated Vault contract for info",
          "_toPid": "index of pool TO"
        }
      },
      "transferOwnership(address)": {
        "details": "Transfers ownership of the contract to a new account (`newOwner`). Can only be called by the current owner."
      },
      "updatePool(uint256)": {
        "params": {
          "_pid": "index of pool"
        },
        "returns": {
          "_0": "uint256 Amount of ZOR rewards minted (useful for cross chain)"
        }
      },
      "withdraw(uint256,uint256,bool)": {
        "params": {
          "_harvestOnly": "If true, will only harvest Zorro tokens but not do a withdrawal",
          "_pid": "index of pool",
          "_trancheId": "index of tranche"
        },
        "returns": {
          "_0": "Amount of Want token withdrawn"
        }
      },
      "withdrawAll(uint256)": {
        "params": {
          "_pid": "index of pool"
        }
      },
      "withdrawalFullService(uint256,uint256,bool,uint256)": {
        "params": {
          "_harvestOnly": "If true, will only harvest Zorro tokens but not do a withdrawal",
          "_maxMarketMovement": "factor to account for max market movement/slippage. The definition varies by Vault, so consult the associated Vault contract for info",
          "_pid": "index of pool to deposit into",
          "_trancheId": "index of tranche"
        },
        "returns": {
          "_0": "Amount (in USDC) returned"
        }
      },
      "withdrawalFullServiceFromXChain(address,bytes,uint256,uint256,bool,uint256)": {
        "params": {
          "_account": "address of wallet on-chain",
          "_foreignAccount": "address of wallet cross-chain (that originally made this deposit)",
          "_harvestOnly": "If true, will only harvest Zorro tokens but not do a withdrawal",
          "_maxMarketMovement": "factor to account for max market movement/slippage. The definition varies by Vault, so consult the associated Vault contract for info",
          "_pid": "index of pool to deposit into",
          "_trancheId": "index of tranche"
        },
        "returns": {
          "_amountUSDC": "Amount of USDC withdrawn",
          "_mintedZORRewards": "Amount of ZOR rewards minted (to be burned XChain)",
          "_rewardsDueXChain": "Amount of ZOR rewards due to the origin (cross chain) user",
          "_slashedRewardsXChain": "Amount of ZOR rewards to be slashed (and thus rewarded to ZOR stakers)"
        }
      }
    },
    "title": "ZorroController: The main controller of the Zorro yield farming protocol. Used for cash flow operations (deposit/withdrawal), managing vaults, and rewards allocations, among other things.",
    "version": 1
  },
  "userdoc": {
    "kind": "user",
    "methods": {
      "add(uint256,address,bool,address)": {
        "notice": "Adds a new pool. Can only be called by the owner."
      },
      "deposit(uint256,uint256,uint256)": {
        "notice": "Deposit Want tokens to associated Vault"
      },
      "depositFullService(uint256,uint256,uint256,uint256)": {
        "notice": "Deposits funds in a full service manner (performs autoswaps and obtains Want tokens)"
      },
      "depositFullServiceFromXChain(uint256,address,bytes,uint256,uint256,uint256,uint256)": {
        "notice": "Full service deposit function to be called by ZorroControllerXChain only."
      },
      "getTimeMultiplier(uint256)": {
        "notice": "Calculate time multiplier based on duration committed"
      },
      "getUserContribution(uint256,uint256)": {
        "notice": "The contribution of the user, meant to be used in rewards allocations"
      },
      "inCaseTokensGetStuck(address,uint256)": {
        "notice": "For owner to recover ERC20 tokens on this contract if stuck"
      },
      "initialize(address,(address,address,address,address,address,address,address,address,address[],address[],(uint256,uint256,uint256,uint256,uint256,uint256),(uint256,uint256,address,address,address),(address,address)))": {
        "notice": "Upgradeable constructor"
      },
      "massUpdatePools()": {
        "notice": "Updates reward variables of all pools"
      },
      "pendingZORRORewards(uint256,address,int256)": {
        "notice": "View function to see pending ZORRO on frontend."
      },
      "poolLength()": {
        "notice": "Number of pools in the Zorro protocol"
      },
      "set(uint256,uint256,bool)": {
        "notice": "Update the given pool's ZORRO allocation point. Can only be called by the owner."
      },
      "setIsTimeMultiplierActive(bool)": {
        "notice": "Setter: Set time multiplier"
      },
      "setKeyAddresses(address,address)": {
        "notice": "Setter: Set key token addresses"
      },
      "setPriceFeeds(address,address)": {
        "notice": "Setter: Chainlink price feeds"
      },
      "setRewardsParams(uint256[],uint256[],uint256,uint256)": {
        "notice": "Setter: Reward params (See Tokenomics paper for more details)"
      },
      "setStartBlock(uint256)": {
        "notice": "Setter: Start block for rewards"
      },
      "setTargetTVLCaptureBasisPoints(uint256)": {
        "notice": "Setter: TVL capture (See Tokenomics paper)"
      },
      "setUSDCToZORPath(address[])": {
        "notice": "Setter: Set path for token swap from USDC to ZOR"
      },
      "setUSDCToZorroLPPoolOtherTokenPath(address[])": {
        "notice": "Setter: Set path for token swap from USDC to counterparty token in ZOR LP pool"
      },
      "setUniRouter(address)": {
        "notice": "Setter: Uniswap-compatible router address"
      },
      "setXChainParams(uint256,uint256,address)": {
        "notice": "Setter: Cross chain params"
      },
      "setZorroContracts(address,address)": {
        "notice": "Setter: Set key ZOR contract addresses"
      },
      "setZorroControllerOracle(address)": {
        "notice": "Setter: Set Zorro Controller Oracle"
      },
      "setZorroLPPoolParams(address,address)": {
        "notice": "Setter: Zorro LP Pool params"
      },
      "setZorroPerBlock(uint256,uint256,uint256,uint256,uint256)": {
        "notice": "Set the number of Zorro to emit per block based on current market parameters"
      },
      "setZorroXChainEndpoint(address)": {
        "notice": "Setter: Cross chain endpoint"
      },
      "stakedWantTokens(uint256,address,int256)": {
        "notice": "View function to see staked Want tokens on frontend."
      },
      "trancheLength(uint256,address)": {
        "notice": "Number of tranches invested by a given user into a given pool"
      },
      "transferInvestment(uint256,uint256,uint256,uint256)": {
        "notice": "Transfer all assets from a tranche in one vault to a new vault (works on-chain only)"
      },
      "updatePool(uint256)": {
        "notice": "Update reward variables of the given pool to be up-to-date."
      },
      "withdraw(uint256,uint256,bool)": {
        "notice": "Fully withdraw Want tokens from underlying Vault."
      },
      "withdrawAll(uint256)": {
        "notice": "Withdraw the maximum number of Want tokens from a pool"
      },
      "withdrawalFullService(uint256,uint256,bool,uint256)": {
        "notice": "Withdraws funds from a pool and converts the Want token into USDC"
      },
      "withdrawalFullServiceFromXChain(address,bytes,uint256,uint256,bool,uint256)": {
        "notice": "Full service withdrawal to be called from authorized cross chain endpoint"
      }
    },
    "version": 1
  }
}