{
  "contractName": "ZorroControllerXChainEarn",
  "abi": [
    {
      "anonymous": false,
      "inputs": [
        {
          "indexed": true,
          "internalType": "address",
          "name": "user",
          "type": "address"
        },
        {
          "indexed": true,
          "internalType": "uint256",
          "name": "pid",
          "type": "uint256"
        },
        {
          "indexed": false,
          "internalType": "uint256",
          "name": "wantAmount",
          "type": "uint256"
        }
      ],
      "name": "Deposit",
      "type": "event"
    },
    {
      "anonymous": false,
      "inputs": [
        {
          "indexed": true,
          "internalType": "address",
          "name": "previousOwner",
          "type": "address"
        },
        {
          "indexed": true,
          "internalType": "address",
          "name": "newOwner",
          "type": "address"
        }
      ],
      "name": "OwnershipTransferred",
      "type": "event"
    },
    {
      "anonymous": false,
      "inputs": [
        {
          "indexed": false,
          "internalType": "address",
          "name": "user",
          "type": "address"
        },
        {
          "indexed": true,
          "internalType": "uint256",
          "name": "fromPid",
          "type": "uint256"
        },
        {
          "indexed": true,
          "internalType": "uint256",
          "name": "fromTrancheId",
          "type": "uint256"
        },
        {
          "indexed": true,
          "internalType": "uint256",
          "name": "toPid",
          "type": "uint256"
        }
      ],
      "name": "TransferInvestment",
      "type": "event"
    },
    {
      "anonymous": false,
      "inputs": [
        {
          "indexed": true,
          "internalType": "address",
          "name": "user",
          "type": "address"
        },
        {
          "indexed": true,
          "internalType": "uint256",
          "name": "pid",
          "type": "uint256"
        },
        {
          "indexed": false,
          "internalType": "uint256",
          "name": "trancheId",
          "type": "uint256"
        },
        {
          "indexed": false,
          "internalType": "uint256",
          "name": "wantAmount",
          "type": "uint256"
        }
      ],
      "name": "Withdraw",
      "type": "event"
    },
    {
      "anonymous": false,
      "inputs": [
        {
          "indexed": true,
          "internalType": "uint256",
          "name": "_remoteChainId",
          "type": "uint256"
        },
        {
          "indexed": true,
          "internalType": "uint256",
          "name": "_buybackAmountUSDC",
          "type": "uint256"
        },
        {
          "indexed": true,
          "internalType": "uint256",
          "name": "_revShareAmountUSDC",
          "type": "uint256"
        }
      ],
      "name": "XChainDistributeEarnings",
      "type": "event"
    },
    {
      "inputs": [
        {
          "internalType": "uint16",
          "name": "",
          "type": "uint16"
        }
      ],
      "name": "LZChainToZorroMap",
      "outputs": [
        {
          "internalType": "uint256",
          "name": "",
          "type": "uint256"
        }
      ],
      "stateMutability": "view",
      "type": "function"
    },
    {
      "inputs": [
        {
          "internalType": "uint256",
          "name": "",
          "type": "uint256"
        }
      ],
      "name": "USDCToZorroLPPoolToken0Path",
      "outputs": [
        {
          "internalType": "address",
          "name": "",
          "type": "address"
        }
      ],
      "stateMutability": "view",
      "type": "function"
    },
    {
      "inputs": [
        {
          "internalType": "uint256",
          "name": "",
          "type": "uint256"
        }
      ],
      "name": "USDCToZorroLPPoolToken1Path",
      "outputs": [
        {
          "internalType": "address",
          "name": "",
          "type": "address"
        }
      ],
      "stateMutability": "view",
      "type": "function"
    },
    {
      "inputs": [
        {
          "internalType": "uint256",
          "name": "",
          "type": "uint256"
        }
      ],
      "name": "USDCToZorroPath",
      "outputs": [
        {
          "internalType": "address",
          "name": "",
          "type": "address"
        }
      ],
      "stateMutability": "view",
      "type": "function"
    },
    {
      "inputs": [],
      "name": "ZORRO",
      "outputs": [
        {
          "internalType": "address",
          "name": "",
          "type": "address"
        }
      ],
      "stateMutability": "view",
      "type": "function"
    },
    {
      "inputs": [],
      "name": "ZORRODailyDistributionFactorBasisPointsMax",
      "outputs": [
        {
          "internalType": "uint256",
          "name": "",
          "type": "uint256"
        }
      ],
      "stateMutability": "view",
      "type": "function"
    },
    {
      "inputs": [],
      "name": "ZORRODailyDistributionFactorBasisPointsMin",
      "outputs": [
        {
          "internalType": "uint256",
          "name": "",
          "type": "uint256"
        }
      ],
      "stateMutability": "view",
      "type": "function"
    },
    {
      "inputs": [],
      "name": "ZORROPerBlock",
      "outputs": [
        {
          "internalType": "uint256",
          "name": "",
          "type": "uint256"
        }
      ],
      "stateMutability": "view",
      "type": "function"
    },
    {
      "inputs": [
        {
          "internalType": "uint256",
          "name": "",
          "type": "uint256"
        }
      ],
      "name": "ZorroChainToLZMap",
      "outputs": [
        {
          "internalType": "uint16",
          "name": "",
          "type": "uint16"
        }
      ],
      "stateMutability": "view",
      "type": "function"
    },
    {
      "inputs": [],
      "name": "baseRewardRateBasisPoints",
      "outputs": [
        {
          "internalType": "uint256",
          "name": "",
          "type": "uint256"
        }
      ],
      "stateMutability": "view",
      "type": "function"
    },
    {
      "inputs": [],
      "name": "blocksPerDay",
      "outputs": [
        {
          "internalType": "uint256",
          "name": "",
          "type": "uint256"
        }
      ],
      "stateMutability": "view",
      "type": "function"
    },
    {
      "inputs": [],
      "name": "burnAddress",
      "outputs": [
        {
          "internalType": "address",
          "name": "",
          "type": "address"
        }
      ],
      "stateMutability": "view",
      "type": "function"
    },
    {
      "inputs": [],
      "name": "chainId",
      "outputs": [
        {
          "internalType": "uint256",
          "name": "",
          "type": "uint256"
        }
      ],
      "stateMutability": "view",
      "type": "function"
    },
    {
      "inputs": [],
      "name": "chainMultiplier",
      "outputs": [
        {
          "internalType": "uint256",
          "name": "",
          "type": "uint256"
        }
      ],
      "stateMutability": "view",
      "type": "function"
    },
    {
      "inputs": [
        {
          "internalType": "uint256",
          "name": "",
          "type": "uint256"
        }
      ],
      "name": "controllerContractsMap",
      "outputs": [
        {
          "internalType": "bytes",
          "name": "",
          "type": "bytes"
        }
      ],
      "stateMutability": "view",
      "type": "function"
    },
    {
      "inputs": [],
      "name": "curveDefaultStablecoinIndex",
      "outputs": [
        {
          "internalType": "int128",
          "name": "",
          "type": "int128"
        }
      ],
      "stateMutability": "view",
      "type": "function"
    },
    {
      "inputs": [],
      "name": "curveStablePoolAddress",
      "outputs": [
        {
          "internalType": "address",
          "name": "",
          "type": "address"
        }
      ],
      "stateMutability": "view",
      "type": "function"
    },
    {
      "inputs": [],
      "name": "curveSyntheticStablecoinIndex",
      "outputs": [
        {
          "internalType": "int128",
          "name": "",
          "type": "int128"
        }
      ],
      "stateMutability": "view",
      "type": "function"
    },
    {
      "inputs": [],
      "name": "defaultMaxMarketMovement",
      "outputs": [
        {
          "internalType": "uint256",
          "name": "",
          "type": "uint256"
        }
      ],
      "stateMutability": "view",
      "type": "function"
    },
    {
      "inputs": [],
      "name": "defaultStablecoin",
      "outputs": [
        {
          "internalType": "address",
          "name": "",
          "type": "address"
        }
      ],
      "stateMutability": "view",
      "type": "function"
    },
    {
      "inputs": [
        {
          "internalType": "uint256",
          "name": "_pid",
          "type": "uint256"
        },
        {
          "internalType": "uint256",
          "name": "_wantAmt",
          "type": "uint256"
        },
        {
          "internalType": "uint256",
          "name": "_weeksCommitted",
          "type": "uint256"
        }
      ],
      "name": "deposit",
      "outputs": [],
      "stateMutability": "nonpayable",
      "type": "function"
    },
    {
      "inputs": [
        {
          "internalType": "uint256",
          "name": "_pid",
          "type": "uint256"
        },
        {
          "internalType": "uint256",
          "name": "_valueUSDC",
          "type": "uint256"
        },
        {
          "internalType": "uint256",
          "name": "_weeksCommitted",
          "type": "uint256"
        },
        {
          "internalType": "uint256",
          "name": "_maxMarketMovement",
          "type": "uint256"
        }
      ],
      "name": "depositFullService",
      "outputs": [],
      "stateMutability": "nonpayable",
      "type": "function"
    },
    {
      "inputs": [],
      "name": "failedLockedBuybackUSDC",
      "outputs": [
        {
          "internalType": "uint256",
          "name": "",
          "type": "uint256"
        }
      ],
      "stateMutability": "view",
      "type": "function"
    },
    {
      "inputs": [],
      "name": "failedLockedRevShareUSDC",
      "outputs": [
        {
          "internalType": "uint256",
          "name": "",
          "type": "uint256"
        }
      ],
      "stateMutability": "view",
      "type": "function"
    },
    {
      "inputs": [
        {
          "internalType": "uint256",
          "name": "",
          "type": "uint256"
        },
        {
          "internalType": "bytes",
          "name": "",
          "type": "bytes"
        },
        {
          "internalType": "uint256",
          "name": "",
          "type": "uint256"
        }
      ],
      "name": "foreignTrancheInfo",
      "outputs": [
        {
          "internalType": "uint256",
          "name": "trancheIndex",
          "type": "uint256"
        },
        {
          "internalType": "address",
          "name": "localAccount",
          "type": "address"
        }
      ],
      "stateMutability": "view",
      "type": "function"
    },
    {
      "inputs": [
        {
          "internalType": "uint256",
          "name": "durationInWeeks",
          "type": "uint256"
        }
      ],
      "name": "getTimeMultiplier",
      "outputs": [
        {
          "internalType": "uint256",
          "name": "",
          "type": "uint256"
        }
      ],
      "stateMutability": "view",
      "type": "function"
    },
    {
      "inputs": [
        {
          "internalType": "uint256",
          "name": "_liquidityCommitted",
          "type": "uint256"
        },
        {
          "internalType": "uint256",
          "name": "_timeMultiplier",
          "type": "uint256"
        }
      ],
      "name": "getUserContribution",
      "outputs": [
        {
          "internalType": "uint256",
          "name": "",
          "type": "uint256"
        }
      ],
      "stateMutability": "pure",
      "type": "function"
    },
    {
      "inputs": [],
      "name": "homeChainId",
      "outputs": [
        {
          "internalType": "uint256",
          "name": "",
          "type": "uint256"
        }
      ],
      "stateMutability": "view",
      "type": "function"
    },
    {
      "inputs": [],
      "name": "homeChainZorroController",
      "outputs": [
        {
          "internalType": "address",
          "name": "",
          "type": "address"
        }
      ],
      "stateMutability": "view",
      "type": "function"
    },
    {
      "inputs": [
        {
          "internalType": "address",
          "name": "_token",
          "type": "address"
        },
        {
          "internalType": "uint256",
          "name": "_amount",
          "type": "uint256"
        }
      ],
      "name": "inCaseTokensGetStuck",
      "outputs": [],
      "stateMutability": "nonpayable",
      "type": "function"
    },
    {
      "inputs": [],
      "name": "isTimeMultiplierActive",
      "outputs": [
        {
          "internalType": "bool",
          "name": "",
          "type": "bool"
        }
      ],
      "stateMutability": "view",
      "type": "function"
    },
    {
      "inputs": [],
      "name": "layerZeroEndpoint",
      "outputs": [
        {
          "internalType": "address",
          "name": "",
          "type": "address"
        }
      ],
      "stateMutability": "view",
      "type": "function"
    },
    {
      "inputs": [],
      "name": "lockUSDCController",
      "outputs": [
        {
          "internalType": "address",
          "name": "",
          "type": "address"
        }
      ],
      "stateMutability": "view",
      "type": "function"
    },
    {
      "inputs": [],
      "name": "owner",
      "outputs": [
        {
          "internalType": "address",
          "name": "",
          "type": "address"
        }
      ],
      "stateMutability": "view",
      "type": "function"
    },
    {
      "inputs": [
        {
          "internalType": "uint256",
          "name": "",
          "type": "uint256"
        }
      ],
      "name": "poolInfo",
      "outputs": [
        {
          "internalType": "contract IERC20",
          "name": "want",
          "type": "address"
        },
        {
          "internalType": "uint256",
          "name": "allocPoint",
          "type": "uint256"
        },
        {
          "internalType": "uint256",
          "name": "lastRewardBlock",
          "type": "uint256"
        },
        {
          "internalType": "uint256",
          "name": "accZORRORewards",
          "type": "uint256"
        },
        {
          "internalType": "uint256",
          "name": "totalTrancheContributions",
          "type": "uint256"
        },
        {
          "internalType": "address",
          "name": "vault",
          "type": "address"
        }
      ],
      "stateMutability": "view",
      "type": "function"
    },
    {
      "inputs": [],
      "name": "poolLength",
      "outputs": [
        {
          "internalType": "uint256",
          "name": "",
          "type": "uint256"
        }
      ],
      "stateMutability": "view",
      "type": "function"
    },
    {
      "inputs": [],
      "name": "priceFeedLPPoolOtherToken",
      "outputs": [
        {
          "internalType": "contract AggregatorV3Interface",
          "name": "",
          "type": "address"
        }
      ],
      "stateMutability": "view",
      "type": "function"
    },
    {
      "inputs": [],
      "name": "priceFeedZOR",
      "outputs": [
        {
          "internalType": "contract AggregatorV3Interface",
          "name": "",
          "type": "address"
        }
      ],
      "stateMutability": "view",
      "type": "function"
    },
    {
      "inputs": [],
      "name": "publicPool",
      "outputs": [
        {
          "internalType": "address",
          "name": "",
          "type": "address"
        }
      ],
      "stateMutability": "view",
      "type": "function"
    },
    {
      "inputs": [
        {
          "internalType": "uint256",
          "name": "",
          "type": "uint256"
        },
        {
          "internalType": "address",
          "name": "",
          "type": "address"
        }
      ],
      "name": "redepositInfo",
      "outputs": [
        {
          "internalType": "uint256",
          "name": "durationCommittedInWeeks",
          "type": "uint256"
        },
        {
          "internalType": "uint256",
          "name": "enteredVaultAt",
          "type": "uint256"
        }
      ],
      "stateMutability": "view",
      "type": "function"
    },
    {
      "inputs": [
        {
          "internalType": "bytes",
          "name": "_contract",
          "type": "bytes"
        }
      ],
      "name": "registerXChainController",
      "outputs": [],
      "stateMutability": "nonpayable",
      "type": "function"
    },
    {
      "inputs": [
        {
          "internalType": "bytes",
          "name": "",
          "type": "bytes"
        }
      ],
      "name": "registeredXChainControllers",
      "outputs": [
        {
          "internalType": "bool",
          "name": "",
          "type": "bool"
        }
      ],
      "stateMutability": "view",
      "type": "function"
    },
    {
      "inputs": [],
      "name": "renounceOwnership",
      "outputs": [],
      "stateMutability": "nonpayable",
      "type": "function"
    },
    {
      "inputs": [
        {
          "internalType": "uint256",
          "name": "_baseRewardRateBasisPoints",
          "type": "uint256"
        }
      ],
      "name": "setBaseRewardRateBasisPoints",
      "outputs": [],
      "stateMutability": "nonpayable",
      "type": "function"
    },
    {
      "inputs": [
        {
          "internalType": "uint256",
          "name": "_blocksPerDay",
          "type": "uint256"
        }
      ],
      "name": "setBlocksPerDay",
      "outputs": [],
      "stateMutability": "nonpayable",
      "type": "function"
    },
    {
      "inputs": [
        {
          "internalType": "uint256",
          "name": "_chainId",
          "type": "uint256"
        }
      ],
      "name": "setChainId",
      "outputs": [],
      "stateMutability": "nonpayable",
      "type": "function"
    },
    {
      "inputs": [
        {
          "internalType": "uint256",
          "name": "_chainMultiplier",
          "type": "uint256"
        }
      ],
      "name": "setChainMultiplier",
      "outputs": [],
      "stateMutability": "nonpayable",
      "type": "function"
    },
    {
      "inputs": [
        {
          "internalType": "address",
          "name": "_curveStablePoolAddress",
          "type": "address"
        }
      ],
      "name": "setCurveStablePoolAddress",
      "outputs": [],
      "stateMutability": "nonpayable",
      "type": "function"
    },
    {
      "inputs": [
        {
          "internalType": "uint256",
          "name": "_defaultMaxMarketMovement",
          "type": "uint256"
        }
      ],
      "name": "setDefaultMaxMarketMovement",
      "outputs": [],
      "stateMutability": "nonpayable",
      "type": "function"
    },
    {
      "inputs": [
        {
          "internalType": "address",
          "name": "_defaultStablecoin",
          "type": "address"
        }
      ],
      "name": "setDefaultStablecoin",
      "outputs": [],
      "stateMutability": "nonpayable",
      "type": "function"
    },
    {
      "inputs": [
        {
          "internalType": "uint256",
          "name": "_chainId",
          "type": "uint256"
        },
        {
          "internalType": "bytes",
          "name": "_endpointContract",
          "type": "bytes"
        }
      ],
      "name": "setEndpointContracts",
      "outputs": [],
      "stateMutability": "nonpayable",
      "type": "function"
    },
    {
      "inputs": [
        {
          "internalType": "address",
          "name": "_homeChainZorroController",
          "type": "address"
        }
      ],
      "name": "setHomeChainZorroController",
      "outputs": [],
      "stateMutability": "nonpayable",
      "type": "function"
    },
    {
      "inputs": [
        {
          "internalType": "bool",
          "name": "_isActive",
          "type": "bool"
        }
      ],
      "name": "setIsTimeMultiplierActive",
      "outputs": [],
      "stateMutability": "nonpayable",
      "type": "function"
    },
    {
      "inputs": [
        {
          "internalType": "address",
          "name": "_lockUSDCController",
          "type": "address"
        }
      ],
      "name": "setLockUSDCController",
      "outputs": [],
      "stateMutability": "nonpayable",
      "type": "function"
    },
    {
      "inputs": [
        {
          "internalType": "address",
          "name": "_priceFeedLPPoolOtherToken",
          "type": "address"
        }
      ],
      "name": "setPriceFeedLPPoolOtherToken",
      "outputs": [],
      "stateMutability": "nonpayable",
      "type": "function"
    },
    {
      "inputs": [
        {
          "internalType": "address",
          "name": "_priceFeedZOR",
          "type": "address"
        }
      ],
      "name": "setPriceFeedZOR",
      "outputs": [],
      "stateMutability": "nonpayable",
      "type": "function"
    },
    {
      "inputs": [
        {
          "internalType": "address",
          "name": "_publicPoolAddress",
          "type": "address"
        }
      ],
      "name": "setPublicPool",
      "outputs": [],
      "stateMutability": "nonpayable",
      "type": "function"
    },
    {
      "inputs": [
        {
          "internalType": "uint256",
          "name": "_blockNumber",
          "type": "uint256"
        }
      ],
      "name": "setStartBlock",
      "outputs": [],
      "stateMutability": "nonpayable",
      "type": "function"
    },
    {
      "inputs": [
        {
          "internalType": "address",
          "name": "_syntheticStablecoin",
          "type": "address"
        }
      ],
      "name": "setSyntheticStablecoin",
      "outputs": [],
      "stateMutability": "nonpayable",
      "type": "function"
    },
    {
      "inputs": [
        {
          "internalType": "uint256",
          "name": "_targetTVLCaptureBasisPoints",
          "type": "uint256"
        }
      ],
      "name": "setTargetTVLCaptureBasisPoints",
      "outputs": [],
      "stateMutability": "nonpayable",
      "type": "function"
    },
    {
      "inputs": [
        {
          "internalType": "address[]",
          "name": "_path",
          "type": "address[]"
        }
      ],
      "name": "setUSDCToZorroLPPoolToken0Path",
      "outputs": [],
      "stateMutability": "nonpayable",
      "type": "function"
    },
    {
      "inputs": [
        {
          "internalType": "address[]",
          "name": "_path",
          "type": "address[]"
        }
      ],
      "name": "setUSDCToZorroLPPoolToken1Path",
      "outputs": [],
      "stateMutability": "nonpayable",
      "type": "function"
    },
    {
      "inputs": [
        {
          "internalType": "address",
          "name": "_uniV2Router",
          "type": "address"
        }
      ],
      "name": "setUniRouter",
      "outputs": [],
      "stateMutability": "nonpayable",
      "type": "function"
    },
    {
      "inputs": [
        {
          "internalType": "address",
          "name": "_xChainReceivingOracle",
          "type": "address"
        }
      ],
      "name": "setXChainReceivingOracle",
      "outputs": [],
      "stateMutability": "nonpayable",
      "type": "function"
    },
    {
      "inputs": [
        {
          "internalType": "uint256",
          "name": "_value",
          "type": "uint256"
        }
      ],
      "name": "setZORRODailyDistributionFactorBasisPointsMax",
      "outputs": [],
      "stateMutability": "nonpayable",
      "type": "function"
    },
    {
      "inputs": [
        {
          "internalType": "uint256",
          "name": "_value",
          "type": "uint256"
        }
      ],
      "name": "setZORRODailyDistributionFactorBasisPointsMin",
      "outputs": [],
      "stateMutability": "nonpayable",
      "type": "function"
    },
    {
      "inputs": [
        {
          "internalType": "address",
          "name": "_zorroControllerOracle",
          "type": "address"
        }
      ],
      "name": "setZorroControllerOracle",
      "outputs": [],
      "stateMutability": "nonpayable",
      "type": "function"
    },
    {
      "inputs": [
        {
          "internalType": "address",
          "name": "_zorroLPPool",
          "type": "address"
        }
      ],
      "name": "setZorroLPPool",
      "outputs": [],
      "stateMutability": "nonpayable",
      "type": "function"
    },
    {
      "inputs": [
        {
          "internalType": "address",
          "name": "_token",
          "type": "address"
        }
      ],
      "name": "setZorroLPPoolOtherToken",
      "outputs": [],
      "stateMutability": "nonpayable",
      "type": "function"
    },
    {
      "inputs": [
        {
          "internalType": "uint256",
          "name": "_totalChainMultipliers",
          "type": "uint256"
        },
        {
          "internalType": "uint256",
          "name": "_totalMarketTVLUSD",
          "type": "uint256"
        },
        {
          "internalType": "uint256",
          "name": "_targetTVLCaptureBasisPoints",
          "type": "uint256"
        },
        {
          "internalType": "uint256",
          "name": "_ZorroTotalVaultTVLUSD",
          "type": "uint256"
        },
        {
          "internalType": "uint256",
          "name": "_publicPoolZORBalance",
          "type": "uint256"
        }
      ],
      "name": "setZorroPerBlock",
      "outputs": [],
      "stateMutability": "nonpayable",
      "type": "function"
    },
    {
      "inputs": [
        {
          "internalType": "address",
          "name": "_zorroStakingVault",
          "type": "address"
        }
      ],
      "name": "setZorroStakingVault",
      "outputs": [],
      "stateMutability": "nonpayable",
      "type": "function"
    },
    {
      "inputs": [
        {
          "internalType": "uint256",
          "name": "",
          "type": "uint256"
        }
      ],
      "name": "stargateDestPoolIds",
      "outputs": [
        {
          "internalType": "uint256",
          "name": "",
          "type": "uint256"
        }
      ],
      "stateMutability": "view",
      "type": "function"
    },
    {
      "inputs": [],
      "name": "stargateRouter",
      "outputs": [
        {
          "internalType": "address",
          "name": "",
          "type": "address"
        }
      ],
      "stateMutability": "view",
      "type": "function"
    },
    {
      "inputs": [],
      "name": "stargateSwapPoolId",
      "outputs": [
        {
          "internalType": "uint256",
          "name": "",
          "type": "uint256"
        }
      ],
      "stateMutability": "view",
      "type": "function"
    },
    {
      "inputs": [],
      "name": "startBlock",
      "outputs": [
        {
          "internalType": "uint256",
          "name": "",
          "type": "uint256"
        }
      ],
      "stateMutability": "view",
      "type": "function"
    },
    {
      "inputs": [],
      "name": "syntheticStablecoin",
      "outputs": [
        {
          "internalType": "address",
          "name": "",
          "type": "address"
        }
      ],
      "stateMutability": "view",
      "type": "function"
    },
    {
      "inputs": [],
      "name": "targetTVLCaptureBasisPoints",
      "outputs": [
        {
          "internalType": "uint256",
          "name": "",
          "type": "uint256"
        }
      ],
      "stateMutability": "view",
      "type": "function"
    },
    {
      "inputs": [],
      "name": "totalAllocPoint",
      "outputs": [
        {
          "internalType": "uint256",
          "name": "",
          "type": "uint256"
        }
      ],
      "stateMutability": "view",
      "type": "function"
    },
    {
      "inputs": [
        {
          "internalType": "uint256",
          "name": "",
          "type": "uint256"
        },
        {
          "internalType": "address",
          "name": "",
          "type": "address"
        },
        {
          "internalType": "uint256",
          "name": "",
          "type": "uint256"
        }
      ],
      "name": "trancheInfo",
      "outputs": [
        {
          "internalType": "uint256",
          "name": "contribution",
          "type": "uint256"
        },
        {
          "internalType": "uint256",
          "name": "timeMultiplier",
          "type": "uint256"
        },
        {
          "internalType": "uint256",
          "name": "rewardDebt",
          "type": "uint256"
        },
        {
          "internalType": "uint256",
          "name": "durationCommittedInWeeks",
          "type": "uint256"
        },
        {
          "internalType": "uint256",
          "name": "enteredVaultAt",
          "type": "uint256"
        },
        {
          "internalType": "uint256",
          "name": "exitedVaultStartingAt",
          "type": "uint256"
        }
      ],
      "stateMutability": "view",
      "type": "function"
    },
    {
      "inputs": [
        {
          "internalType": "uint256",
          "name": "_pid",
          "type": "uint256"
        },
        {
          "internalType": "address",
          "name": "_user",
          "type": "address"
        }
      ],
      "name": "trancheLength",
      "outputs": [
        {
          "internalType": "uint256",
          "name": "",
          "type": "uint256"
        }
      ],
      "stateMutability": "view",
      "type": "function"
    },
    {
      "inputs": [
        {
          "internalType": "uint256",
          "name": "_fromPid",
          "type": "uint256"
        },
        {
          "internalType": "uint256",
          "name": "_fromTrancheId",
          "type": "uint256"
        },
        {
          "internalType": "uint256",
          "name": "_toPid",
          "type": "uint256"
        },
        {
          "internalType": "uint256",
          "name": "_maxMarketMovement",
          "type": "uint256"
        }
      ],
      "name": "transferInvestment",
      "outputs": [],
      "stateMutability": "nonpayable",
      "type": "function"
    },
    {
      "inputs": [
        {
          "internalType": "address",
          "name": "newOwner",
          "type": "address"
        }
      ],
      "name": "transferOwnership",
      "outputs": [],
      "stateMutability": "nonpayable",
      "type": "function"
    },
    {
      "inputs": [
        {
          "internalType": "bytes",
          "name": "_contract",
          "type": "bytes"
        }
      ],
      "name": "unRegisterXChainController",
      "outputs": [],
      "stateMutability": "nonpayable",
      "type": "function"
    },
    {
      "inputs": [],
      "name": "uniRouterAddress",
      "outputs": [
        {
          "internalType": "address",
          "name": "",
          "type": "address"
        }
      ],
      "stateMutability": "view",
      "type": "function"
    },
    {
      "inputs": [
        {
          "internalType": "uint256",
          "name": "_pid",
          "type": "uint256"
        }
      ],
      "name": "updatePool",
      "outputs": [
        {
          "internalType": "uint256",
          "name": "",
          "type": "uint256"
        }
      ],
      "stateMutability": "nonpayable",
      "type": "function"
    },
    {
      "inputs": [
        {
          "internalType": "uint256",
          "name": "_pid",
          "type": "uint256"
        },
        {
          "internalType": "uint256",
          "name": "_trancheId",
          "type": "uint256"
        },
        {
          "internalType": "bool",
          "name": "_harvestOnly",
          "type": "bool"
        }
      ],
      "name": "withdraw",
      "outputs": [
        {
          "internalType": "uint256",
          "name": "",
          "type": "uint256"
        }
      ],
      "stateMutability": "nonpayable",
      "type": "function"
    },
    {
      "inputs": [
        {
          "internalType": "uint256",
          "name": "_pid",
          "type": "uint256"
        }
      ],
      "name": "withdrawAll",
      "outputs": [],
      "stateMutability": "nonpayable",
      "type": "function"
    },
    {
      "inputs": [
        {
          "internalType": "uint256",
          "name": "_pid",
          "type": "uint256"
        },
        {
          "internalType": "uint256",
          "name": "_trancheId",
          "type": "uint256"
        },
        {
          "internalType": "bool",
          "name": "_harvestOnly",
          "type": "bool"
        },
        {
          "internalType": "uint256",
          "name": "_maxMarketMovement",
          "type": "uint256"
        }
      ],
      "name": "withdrawalFullService",
      "outputs": [
        {
          "internalType": "uint256",
          "name": "",
          "type": "uint256"
        }
      ],
      "stateMutability": "nonpayable",
      "type": "function"
    },
    {
      "inputs": [],
      "name": "xChainReceivingOracle",
      "outputs": [
        {
          "internalType": "address",
          "name": "",
          "type": "address"
        }
      ],
      "stateMutability": "view",
      "type": "function"
    },
    {
      "inputs": [],
      "name": "zorroControllerOracle",
      "outputs": [
        {
          "internalType": "address",
          "name": "",
          "type": "address"
        }
      ],
      "stateMutability": "view",
      "type": "function"
    },
    {
      "inputs": [],
      "name": "zorroLPPool",
      "outputs": [
        {
          "internalType": "address",
          "name": "",
          "type": "address"
        }
      ],
      "stateMutability": "view",
      "type": "function"
    },
    {
      "inputs": [],
      "name": "zorroLPPoolOtherToken",
      "outputs": [
        {
          "internalType": "address",
          "name": "",
          "type": "address"
        }
      ],
      "stateMutability": "view",
      "type": "function"
    },
    {
      "inputs": [],
      "name": "zorroStakingVault",
      "outputs": [
        {
          "internalType": "address",
          "name": "",
          "type": "address"
        }
      ],
      "stateMutability": "view",
      "type": "function"
    },
    {
      "inputs": [
        {
          "internalType": "uint256",
          "name": "_amountUSDCBuyback",
          "type": "uint256"
        },
        {
          "internalType": "uint256",
          "name": "_amountUSDCRevShare",
          "type": "uint256"
        }
      ],
      "name": "checkXChainDistributeEarningsFee",
      "outputs": [
        {
          "internalType": "uint256",
          "name": "",
          "type": "uint256"
        }
      ],
      "stateMutability": "view",
      "type": "function"
    },
    {
      "inputs": [
        {
          "internalType": "uint256",
          "name": "_pid",
          "type": "uint256"
        },
        {
          "internalType": "uint256",
          "name": "_buybackAmountUSDC",
          "type": "uint256"
        },
        {
          "internalType": "uint256",
          "name": "_revShareAmountUSDC",
          "type": "uint256"
        },
        {
          "internalType": "uint256",
          "name": "_maxMarketMovement",
          "type": "uint256"
        }
      ],
      "name": "sendXChainDistributeEarningsRequest",
      "outputs": [],
      "stateMutability": "payable",
      "type": "function"
    },
    {
      "inputs": [
        {
          "internalType": "uint256",
          "name": "_remoteChainId",
          "type": "uint256"
        },
        {
          "internalType": "uint256",
          "name": "_amountUSDCBuyback",
          "type": "uint256"
        },
        {
          "internalType": "uint256",
          "name": "_amountUSDCRevShare",
          "type": "uint256"
        }
      ],
      "name": "receiveXChainDistributionRequest",
      "outputs": [],
      "stateMutability": "nonpayable",
      "type": "function"
    }
  ],
  "bytecode": "0x608060405260038054600160a060020a03191661dead179055617080600655600160098190556014600a908155600b829055600c805460ff1916909217909155600d556103ca6018556000601c819055602f553480156200005f57600080fd5b50620000866200007764010000000062000090810204565b64010000000062000094810204565b60018055620000e4565b3390565b60008054600160a060020a03838116600160a060020a0319831681178455604051919092169283917f8be0079c531659141344cd1fd0a4f28419497f9722a3daafe3b4186f6b6457e09190a35050565b614b6080620000f46000396000f3fe60806040526004361061053f576000357c01000000000000000000000000000000000000000000000000000000009004806376cc2303116102bf578063b22f325111610182578063ddd88fec116100e9578063ef126967116100a2578063ef12696714611141578063ef190fec14611157578063f2fde38b14611177578063f35e4a6e14611197578063fb73170b146111b7578063fc39a29e146111d757600080fd5b8063ddd88fec14611087578063ea07667a146110a7578063ebfba7c4146110c7578063ec54e4a4146110e7578063ee4e268714611101578063ef0e2ff41461112157600080fd5b8063c29de0d21161013b578063c29de0d214610fa7578063c524a05614610ffb578063c6d758cb1461101b578063cb9c2f681461103b578063ce9e292814611051578063d85c55481461107157600080fd5b8063b22f325114610ec4578063b4b4e9eb14610ee4578063b614bdba14610f31578063b61bb80a14610f51578063c27893ef14610f71578063c293614214610f9157600080fd5b8063958e2d3111610226578063a00c807c116101df578063a00c807c14610e04578063a07b9e6d14610e24578063a4d2b08314610e44578063a80bee0714610e64578063a9418d6714610e84578063a9e56f3c14610ea457600080fd5b8063958e2d3114610d62578063959334f414610d825780639a8a059214610da25780639b8ad2d614610db85780639cde7a0014610dce5780639cebd37114610dee57600080fd5b8063871869ca11610278578063871869ca14610caa5780638c157db214610cca5780638da5cb5b14610cea578063941d3fd014610d0857806394909cc214610d225780639568786c14610d4257600080fd5b806376cc230314610bf457806379777d8114610c0a5780637bf604d814610c2a5780637e37c76914610c4a57806381ea795d14610c6a578063823c43d014610c8a57600080fd5b8063464e3c8b116104075780636179ecd11161036e5780636b8eb2e5116103275780636b8eb2e514610b3f5780636c78d49c14610b5f5780636ca8bd6514610b7f57806370d5ae0514610b9f578063715018a614610bbf578063745af0a814610bd457600080fd5b80636179ecd114610a5457806365bc77bc14610a74578063668ababb14610abf578063683dc6f514610adf57806368ce004b14610aff578063693a090b14610b1f57600080fd5b806351eb05a6116103c057806351eb05a61461099b57806353f73f87146109bb5780635527a6f9146109db5780635790f599146109f1578063592dcbd314610a07578063593af9fe14610a2757600080fd5b8063464e3c8b146108fc5780634780f9f51461090f57806348cd4cb11461092f57806348d57c8e146109455780634cfea68a146109655780635051d3711461097b57600080fd5b806333cfcd3b116104ab5780633b9ce565116104645780633b9ce565146108225780633bbc1ffc146108385780633bea9fa8146108585780634098b0eb14610878578063416d0de714610898578063459f4753146108b857600080fd5b806333cfcd3b1461074b5780633486a32e1461076b578063353b6c2c1461078b57806337541464146107ab5780633b35b727146107ec5780633b7106881461080c57600080fd5b80631526fe27116104fd5780631526fe271461062257806317caf6f11461067e578063219b38b81461069457806326fc7c7d146106c1578063293da9d4146106e15780632e31283d1461070e57600080fd5b8062aeef8a14610544578063025b10451461056657806307968db1146105a3578063081e3eda146105c3578063104a6132146105e25780631479a6df14610602575b600080fd5b34801561055057600080fd5b5061056461055f366004614238565b6111f7565b005b34801561057257600080fd5b5060225461058690600160a060020a031681565b604051600160a060020a0390911681526020015b60405180910390f35b3480156105af57600080fd5b5060285461058690600160a060020a031681565b3480156105cf57600080fd5b50602c545b60405190815260200161059a565b3480156105ee57600080fd5b506105866105fd366004614264565b6112b4565b34801561060e57600080fd5b5061056461061d366004614264565b6112de565b34801561062e57600080fd5b5061064261063d366004614264565b611310565b60408051600160a060020a03978816815260208101969096528501939093526060840191909152608083015290911660a082015260c00161059a565b34801561068a57600080fd5b506105d4602f5481565b3480156106a057600080fd5b506105d46106af366004614264565b60276020526000908152604090205481565b3480156106cd57600080fd5b506105646106dc366004614294565b611363565b3480156106ed57600080fd5b506105d46106fc3660046142af565b60246020526000908152604090205481565b34801561071a57600080fd5b5061072e61072936600461438d565b6113b2565b60408051928352600160a060020a0390911660208301520161059a565b34801561075757600080fd5b506105d46107663660046143eb565b611414565b34801561077757600080fd5b50610564610786366004614294565b6114aa565b34801561079757600080fd5b506105646107a6366004614264565b6114f9565b3480156107b757600080fd5b506011546107d9907001000000000000000000000000000000009004600f0b81565b604051600f9190910b815260200161059a565b3480156107f857600080fd5b50610564610807366004614264565b61152b565b34801561081857600080fd5b506105d4600d5481565b34801561082e57600080fd5b506105d4600a5481565b34801561084457600080fd5b50610564610853366004614264565b61155d565b34801561086457600080fd5b506105d4610873366004614424565b61158f565b34801561088457600080fd5b50610564610893366004614264565b6116ba565b3480156108a457600080fd5b50600f5461058690600160a060020a031681565b3480156108c457600080fd5b506108e96108d3366004614264565b60236020526000908152604090205461ffff1681565b60405161ffff909116815260200161059a565b61056461090a366004614446565b6116ec565b34801561091b57600080fd5b5061056461092a366004614446565b6119ae565b34801561093b57600080fd5b506105d460055481565b34801561095157600080fd5b50601f5461058690600160a060020a031681565b34801561097157600080fd5b506105d460065481565b34801561098757600080fd5b50610564610996366004614294565b611a57565b3480156109a757600080fd5b506105d46109b6366004614264565b611aa6565b3480156109c757600080fd5b506105d46109d6366004614478565b611c25565b3480156109e757600080fd5b506105d460095481565b3480156109fd57600080fd5b506105d460265481565b348015610a1357600080fd5b50610564610a22366004614294565b611c4d565b348015610a3357600080fd5b50610a47610a42366004614264565b611c9c565b60405161059a91906144fc565b348015610a6057600080fd5b50610564610a6f366004614264565b611d36565b348015610a8057600080fd5b50610aaf610a8f36600461450f565b8051602081830181018051601e8252928201919093012091525460ff1681565b604051901515815260200161059a565b348015610acb57600080fd5b5060045461058690600160a060020a031681565b348015610aeb57600080fd5b50610564610afa366004614294565b611d68565b348015610b0b57600080fd5b50610564610b1a366004614544565b611db7565b348015610b2b57600080fd5b5060145461058690600160a060020a031681565b348015610b4b57600080fd5b50610564610b5a3660046145e4565b611dfb565b348015610b6b57600080fd5b50610564610b7a36600461461f565b611efa565b348015610b8b57600080fd5b50610564610b9a366004614294565b611f3a565b348015610bab57600080fd5b5060035461058690600160a060020a031681565b348015610bcb57600080fd5b50610564611f89565b348015610be057600080fd5b506105d4610bef36600461463c565b611fc2565b348015610c0057600080fd5b506105d460215481565b348015610c1657600080fd5b50602a5461058690600160a060020a031681565b348015610c3657600080fd5b5060125461058690600160a060020a031681565b348015610c5657600080fd5b50610564610c65366004614446565b612039565b348015610c7657600080fd5b50610564610c8536600461450f565b6121b8565b348015610c9657600080fd5b50602b5461058690600160a060020a031681565b348015610cb657600080fd5b50610564610cc536600461450f565b61221a565b348015610cd657600080fd5b5060025461058690600160a060020a031681565b348015610cf657600080fd5b50600054600160a060020a0316610586565b348015610d1457600080fd5b50600c54610aaf9060ff1681565b348015610d2e57600080fd5b50610564610d3d366004614294565b612259565b348015610d4e57600080fd5b506105d4610d5d366004614264565b6122a8565b348015610d6e57600080fd5b50610564610d7d366004614264565b612381565b348015610d8e57600080fd5b50610564610d9d366004614294565b6123eb565b348015610dae57600080fd5b506105d4601b5481565b348015610dc457600080fd5b506105d460185481565b348015610dda57600080fd5b50610586610de9366004614264565b61243a565b348015610dfa57600080fd5b506105d4600b5481565b348015610e1057600080fd5b50610564610e1f366004614544565b61244a565b348015610e3057600080fd5b50610564610e3f366004614238565b61248a565b348015610e5057600080fd5b5060195461058690600160a060020a031681565b348015610e7057600080fd5b506105d4610e7f366004614424565b6124da565b348015610e9057600080fd5b50610564610e9f366004614294565b6124f6565b348015610eb057600080fd5b5060255461058690600160a060020a031681565b348015610ed057600080fd5b5060295461058690600160a060020a031681565b348015610ef057600080fd5b50610f04610eff36600461467b565b61259e565b604080519687526020870195909552938501929092526060840152608083015260a082015260c00161059a565b348015610f3d57600080fd5b50610586610f4c366004614264565b6125ff565b348015610f5d57600080fd5b50600e5461058690600160a060020a031681565b348015610f7d57600080fd5b5060105461058690600160a060020a031681565b348015610f9d57600080fd5b506105d460075481565b348015610fb357600080fd5b50610fe6610fc2366004614478565b60306020908152600092835260408084209091529082529020805460019091015482565b6040805192835260208301919091520161059a565b34801561100757600080fd5b50610564611016366004614294565b61260f565b34801561102757600080fd5b506105646110363660046146b0565b61265e565b34801561104757600080fd5b506105d460085481565b34801561105d57600080fd5b5061056461106c366004614294565b612726565b34801561107d57600080fd5b506105d460205481565b34801561109357600080fd5b506105646110a2366004614294565b612775565b3480156110b357600080fd5b506105646110c2366004614264565b6127c4565b3480156110d357600080fd5b5060135461058690600160a060020a031681565b3480156110f357600080fd5b506011546107d990600f0b81565b34801561110d57600080fd5b5061056461111c366004614294565b6127f6565b34801561112d57600080fd5b5061056461113c366004614264565b612845565b34801561114d57600080fd5b506105d4601c5481565b34801561116357600080fd5b50610564611172366004614294565b612877565b34801561118357600080fd5b50610564611192366004614294565b6128c6565b3480156111a357600080fd5b506105646111b2366004614264565b61297e565b3480156111c357600080fd5b506105646111d23660046146da565b6129b0565b3480156111e357600080fd5b50601a5461058690600160a060020a031681565b600260015414156112265760405160e560020a62461bcd02815260040161121d90614756565b60405180910390fd5b60026001819055506000602c84815481106112435761124361478d565b60009182526020909120600690910201805490915061126c90600160a060020a031630856129fc565b6005810154815461128c91600160a060020a039182169133911686612b3d565b6112a9843360405180602001604052806000815250868642612b8e565b505060018055505050565b601781815481106112c457600080fd5b600091825260209091200154600160a060020a0316905081565b600054600160a060020a0316331461130b5760405160e560020a62461bcd02815260040161121d906147a6565b600955565b602c818154811061132057600080fd5b6000918252602090912060069091020180546001820154600283015460038401546004850154600590950154600160a060020a0394851696509294919390921686565b600054600160a060020a031633146113905760405160e560020a62461bcd02815260040161121d906147a6565b601f8054600160a060020a031916600160a060020a0392909216919091179055565b602e60209081526000848152604090208351808501830180519281529083019285019290922091528054829081106113e957600080fd5b600091825260209091206002909102018054600190910154909350600160a060020a03169150839050565b60006002600154141561143c5760405160e560020a62461bcd02815260040161121d90614756565b600260018190555060006114628533604051806020016040528060008152508787612e8c565b50905061149e3382602c888154811061147d5761147d61478d565b6000918252602090912060069091020154600160a060020a03169190613231565b60018055949350505050565b600054600160a060020a031633146114d75760405160e560020a62461bcd02815260040161121d906147a6565b602a8054600160a060020a031916600160a060020a0392909216919091179055565b600054600160a060020a031633146115265760405160e560020a62461bcd02815260040161121d906147a6565b600655565b600054600160a060020a031633146115585760405160e560020a62461bcd02815260040161121d906147a6565b600a55565b600054600160a060020a0316331461158a5760405160e560020a62461bcd02815260040161121d906147a6565b600855565b60408051606080820183526000808352602083018190529282015260006115b9601b54868661327a565b601a54604051600160a060020a039091166c0100000000000000000000000002602082015290915060009060340160408051601f19818403018152828252602554601c5460009081526023602052928320547f0a51236900000000000000000000000000000000000000000000000000000000855291945091928392600160a060020a031691630a5123699161165f9161ffff169060019088908a908c90600401614804565b6040805180830381865afa15801561167b573d6000803e3d6000fd5b505050506040513d601f19601f8201168201806040525081019061169f9190614850565b90925090506116ae82826132f0565b98975050505050505050565b600054600160a060020a031633146116e75760405160e560020a62461bcd02815260040161121d906147a6565b600d55565b600260015414156117125760405160e560020a62461bcd02815260040161121d90614756565b600260018190555083602c818154811061172e5761172e61478d565b6000918252602090912060069091020160050154600160a060020a031633600160a060020a0316146117a55760405160e560020a62461bcd02815260206004820152600e60248201527f6f6e6c7920726567207661756c74000000000000000000000000000000000000604482015260640161121d565b600034116117f85760405160e560020a62461bcd02815260206004820152601160248201527f4e6f2066656573207375626d6974746564000000000000000000000000000000604482015260640161121d565b600061180485856132f0565b600e5490915061181e90600160a060020a031630836129fc565b600e5461183690600160a060020a0316333084612b3d565b600e546040517f70a08231000000000000000000000000000000000000000000000000000000008152306004820152600091600160a060020a0316906370a0823190602401602060405180830381865afa158015611898573d6000803e3d6000fd5b505050506040513d601f19601f820116820180604052508101906118bc9190614874565b905060006118cd601b54888861327a565b601b546000908152601d60205260408120805492935090916118ee9061488d565b80601f016020809104026020016040519081016040528092919081815260200182805461191a9061488d565b80156119675780601f1061193c57610100808354040283529160200191611967565b820191906000526020600020905b81548152906001019060200180831161194a57829003601f168201915b5050505050905061199f6040518060a00160405280601c548152602001858152602001838152602001848152602001888152506132fc565b50506001805550505050505050565b600260015414156119d45760405160e560020a62461bcd02815260040161121d90614756565b60026001819055506000602c85815481106119f1576119f161478d565b6000918252602090912060056006909202010154600e54600160a060020a039182169250611a21911630866129fc565b600e54611a3990600160a060020a0316338387612b3d565b6112a985336040518060200160405280600081525087874288613405565b600054600160a060020a03163314611a845760405160e560020a62461bcd02815260040161121d906147a6565b602b8054600160a060020a031916600160a060020a0392909216919091179055565b600080602c8381548110611abc57611abc61478d565b9060005260206000209060060201905080600201544311611ae05750600092915050565b6000611af982600201544361351690919063ffffffff16565b905060008111611b0d575060009392505050565b6000611b3e602f54611b388560010154611b326007548761352290919063ffffffff16565b90613522565b9061352e565b601a54909150600160a060020a0316301415611b9757600454600254611b7291600160a060020a0391821691163084612b3d565b6003830154611b8190826132f0565b6003840155505043600290910155506000919050565b6002546040517f40c10f1900000000000000000000000000000000000000000000000000000000815230600482015260248101839052600160a060020a03909116906340c10f1990604401600060405180830381600087803b158015611bfc57600080fd5b505af1158015611c10573d6000803e3d6000fd5b5092979650505050505050565b505050919050565b6000918252602d60209081526040808420600160a060020a0393909316845291905290205490565b600054600160a060020a03163314611c7a5760405160e560020a62461bcd02815260040161121d906147a6565b60298054600160a060020a031916600160a060020a0392909216919091179055565b601d6020526000908152604090208054611cb59061488d565b80601f0160208091040260200160405190810160405280929190818152602001828054611ce19061488d565b8015611d2e5780601f10611d0357610100808354040283529160200191611d2e565b820191906000526020600020905b815481529060010190602001808311611d1157829003601f168201915b505050505081565b600054600160a060020a03163314611d635760405160e560020a62461bcd02815260040161121d906147a6565b601855565b600054600160a060020a03163314611d955760405160e560020a62461bcd02815260040161121d906147a6565b60228054600160a060020a031916600160a060020a0392909216919091179055565b600054600160a060020a03163314611de45760405160e560020a62461bcd02815260040161121d906147a6565b8051611df790601590602084019061414a565b5050565b602b54600160a060020a031633600160a060020a031614611e615760405160e560020a62461bcd02815260206004820152601160248201527f6f6e6c79205a6f72726f206f7261636c65000000000000000000000000000000604482015260640161121d565b6000611e8383611b38611e768761271061352e565b600d54611b32908a613522565b9050600a54811115611e985750600a54611ea7565b600954811015611ea757506009545b6000611eb9612710611b388585613522565b90506000611ed688611b3884600b5461352290919063ffffffff16565b9050611eed6006548261352e90919063ffffffff16565b6007555050505050505050565b600054600160a060020a03163314611f275760405160e560020a62461bcd02815260040161121d906147a6565b600c805460ff1916911515919091179055565b600054600160a060020a03163314611f675760405160e560020a62461bcd02815260040161121d906147a6565b60198054600160a060020a031916600160a060020a0392909216919091179055565b600054600160a060020a03163314611fb65760405160e560020a62461bcd02815260040161121d906147a6565b611fc0600061353a565b565b600060026001541415611fea5760405160e560020a62461bcd02815260040161121d90614756565b6002600181905550600061201133604051806020016040528060008152508888888861358a565b50600e5490915061202c90600160a060020a03163383613231565b6001805595945050505050565b6002600154141561205f5760405160e560020a62461bcd02815260040161121d90614756565b60026001556000848152602d60209081526040808320338452909152812080548590811061208f5761208f61478d565b6000918252602080832060036006909302019190910154878352602d82526040808420338552909252908220805491935090869081106120d1576120d161478d565b906000526020600020906006020160040154905060006121053360405180602001604052806000815250898960008961358a565b5090506060600e60009054906101000a9004600160a060020a0316816000815181106121335761213361478d565b6020026020010190600160a060020a03169081600160a060020a0316815250506121718633604051806020016040528060008152508588888b613405565b604051338152869088908a907f67e7aba7263d8fbeb0cd9a2f4008f060a6a03f46c1d7f9d0550f0b93e96e96f89060200160405180910390a4505060018055505050505050565b600054600160a060020a031633146121e55760405160e560020a62461bcd02815260040161121d906147a6565b6001601e826040516121f791906148cb565b908152604051908190036020019020805491151560ff1990921691909117905550565b600054600160a060020a031633146122475760405160e560020a62461bcd02815260040161121d906147a6565b6000601e826040516121f791906148cb565b600054600160a060020a031633146122865760405160e560020a62461bcd02815260040161121d906147a6565b60048054600160a060020a031916600160a060020a0392909216919091179055565b600c5460009060ff1615612370576040517f677342ce0000000000000000000000000000000000000000000000000000000081526004810183905261236a9064e8d4a5100090611b32906123629073__CustomMath____________________________9063677342ce90602401602060405180830381865af4158015612332573d6000803e3d6000fd5b505050506040513d601f19601f820116820180604052508101906123569190614874565b611b326002600a61352e565b6001906132f0565b92915050565b5064e8d4a51000919050565b919050565b600260015414156123a75760405160e560020a62461bcd02815260040161121d90614756565b600260015560006123b88233611c25565b905060005b818110156123e2576123d183826000611414565b506123db81614900565b90506123bd565b50506001805550565b600054600160a060020a031633146124185760405160e560020a62461bcd02815260040161121d906147a6565b60138054600160a060020a031916600160a060020a0392909216919091179055565b601681815481106112c457600080fd5b600054600160a060020a031633146124775760405160e560020a62461bcd02815260040161121d906147a6565b8051611df790601690602084019061414a565b60405160e560020a62461bcd02815260206004820152601760248201527f696c6c6567616c2064756d6d792066756e632063616c6c000000000000000000604482015260640161121d565b505050565b60006124ef64e8d4a51000611b388585613522565b9392505050565b600054600160a060020a031633146125235760405160e560020a62461bcd02815260040161121d906147a6565b600160a060020a03811661257c5760405160e560020a62461bcd02815260206004820152601060248201527f63616e6e6f742062652030206164647200000000000000000000000000000000604482015260640161121d565b601a8054600160a060020a031916600160a060020a0392909216919091179055565b602d60205282600052604060002060205281600052604060002081815481106125c657600080fd5b60009182526020909120600690910201805460018201546002830154600384015460048501546005909501549397509195509350919086565b601581815481106112c457600080fd5b600054600160a060020a0316331461263c5760405160e560020a62461bcd02815260040161121d906147a6565b600e8054600160a060020a031916600160a060020a0392909216919091179055565b600054600160a060020a0316331461268b5760405160e560020a62461bcd02815260040161121d906147a6565b600254600160a060020a03838116911614156127125760405160e560020a62461bcd02815260206004820152603560248201527f217361666520746f20757365205a6f72726f20746f6b656e20696e2066756e6360448201527f20696e43617365546f6b656e73476574537475636b0000000000000000000000606482015260840161121d565b611df7600160a060020a0383163383613231565b600054600160a060020a031633146127535760405160e560020a62461bcd02815260040161121d906147a6565b60108054600160a060020a031916600160a060020a0392909216919091179055565b600054600160a060020a031633146127a25760405160e560020a62461bcd02815260040161121d906147a6565b60128054600160a060020a031916600160a060020a0392909216919091179055565b600054600160a060020a031633146127f15760405160e560020a62461bcd02815260040161121d906147a6565b600b55565b600054600160a060020a031633146128235760405160e560020a62461bcd02815260040161121d906147a6565b60148054600160a060020a031916600160a060020a0392909216919091179055565b600054600160a060020a031633146128725760405160e560020a62461bcd02815260040161121d906147a6565b601b55565b600054600160a060020a031633146128a45760405160e560020a62461bcd02815260040161121d906147a6565b600f8054600160a060020a031916600160a060020a0392909216919091179055565b600054600160a060020a031633146128f35760405160e560020a62461bcd02815260040161121d906147a6565b600160a060020a0381166129725760405160e560020a62461bcd02815260206004820152602660248201527f4f776e61626c653a206e6577206f776e657220697320746865207a65726f206160448201527f6464726573730000000000000000000000000000000000000000000000000000606482015260840161121d565b61297b8161353a565b50565b600054600160a060020a031633146129ab5760405160e560020a62461bcd02815260040161121d906147a6565b600555565b600054600160a060020a031633146129dd5760405160e560020a62461bcd02815260040161121d906147a6565b6000838152601d602052604090206129f69083836141af565b50505050565b6040517fdd62ed3e000000000000000000000000000000000000000000000000000000008152306004820152600160a060020a038381166024830152600091839186169063dd62ed3e90604401602060405180830381865afa158015612a66573d6000803e3d6000fd5b505050506040513d601f19601f82011682018060405250810190612a8a9190614874565b612a94919061491b565b604051600160a060020a0385166024820152604481018290529091506129f69085907f095ea7b300000000000000000000000000000000000000000000000000000000906064015b60408051601f198184030181529190526020810180517bffffffffffffffffffffffffffffffffffffffffffffffffffffffff167bffffffffffffffffffffffffffffffffffffffffffffffffffffffff19909316929092179091526136d7565b604051600160a060020a03808516602483015283166044820152606481018290526129f69085907f23b872dd0000000000000000000000000000000000000000000000000000000090608401612adc565b600080602c8881548110612ba457612ba461478d565b9060005260206000209060060201905060008511612c075760405160e560020a62461bcd02815260206004820152601560248201527f5f77616e74416d74206d757374206265203e2030210000000000000000000000604482015260640161121d565b612c1088611aa6565b915086600160a060020a038116612cb7576000875111612c9b5760405160e560020a62461bcd02815260206004820152602c60248201527f4e65697468657220666f726569676e2061636374206e6f72206c6f63616c206160448201527f6363742070726f76696465640000000000000000000000000000000000000000606482015260840161121d565b612ca487614933565b6c01000000000000000000000000900490505b6000602c8a81548110612ccc57612ccc61478d565b60009182526020909120600690910201600501546040517fba0bb4ab000000000000000000000000000000000000000000000000000000008152600160a060020a038481166004830152602482018a90529091169063ba0bb4ab906044016020604051808303816000875af1158015612d49573d6000803e3d6000fd5b505050506040513d601f19601f82011682018060405250810190612d6d9190614874565b601954600585015491925064e8d4a5100091600160a060020a03908116911614612d9d57612d9a876122a8565b90505b6000612da983836124da565b6004860154909150612dbb90826132f0565b60048601819055600090612dd890611b388464e8d4a51000613522565b905060006040518060c00160405280848152602001858152602001612e1364e8d4a51000611b38868c6003015461352290919063ffffffff16565b81526020018b81526020018a815260200160008152509050612e378e878e846137bf565b8d86600160a060020a03167f90890809c654f11d6e72a28fa60149770a0d11ec6c92319d6ceb2bb0a4ea1a158d604051612e7391815260200190565b60405180910390a3505050505050509695505050505050565b600080600160a060020a038616158015612ea7575060008551115b80612ec45750600160a060020a03861615801590612ec457508451155b612f135760405160e560020a62461bcd02815260206004820152601d60248201527f4f6e6c79206f6e65206163636f756e74207479706520616c6c6f776564000000604482015260640161121d565b6000612f218886888a6138c8565b90506000602c8981548110612f3857612f3861478d565b906000526020600020906006020190506000826000015111612f9f5760405160e560020a62461bcd02815260206004820152601960248201527f7472616e6368652e636f6e747269627574696f6e206973203000000000000000604482015260640161121d565b6000816004015411612ff65760405160e560020a62461bcd02815260206004820152601e60248201527f746f74616c5472616e636865436f6e747269627574696f6e7320697320300000604482015260640161121d565b60006130018a611aa6565b905060006130298360040154611b3864e8d4a51000876000015161352290919063ffffffff16565b9050600061305b856040015161305564e8d4a51000611b3888600301548761352290919063ffffffff16565b90613516565b9050801561306f5761306f8c86838e613b07565b60008861321f57602c8d815481106130895761308961478d565b600091825260209091206005600690920201015486516040517fe0ccabfa000000000000000000000000000000000000000000000000000000008152600160a060020a038f81166004830152602482019290925291169063e0ccabfa906044016020604051808303816000875af1158015613108573d6000803e3d6000fd5b505050506040513d601f19601f8201168201806040525081019061312c9190614874565b508551600486015461313d91613516565b60048681019190915585546040517f70a082310000000000000000000000000000000000000000000000000000000081523092810192909252600160a060020a0316906370a0823190602401602060405180830381865afa1580156131a6573d6000803e3d6000fd5b505050506040513d601f19601f820116820180604052508101906131ca9190614874565b90506131d88d8b8e8e613bdc565b604080518b8152602081018390528e91600160a060020a038f16917f02f25270a4d87bea75db541cdfe559334a275b4a233520ed6c0a2429667cca94910160405180910390a35b9c929b50919950505050505050505050565b604051600160a060020a0383166024820152604481018290526124d59084907fa9059cbb0000000000000000000000000000000000000000000000000000000090606401612adc565b6040805160208101859052808201849052606080820184905282518083038201815260808301909352917fa07b9e6d00000000000000000000000000000000000000000000000000000000916132d6908390839060a00161496d565b604051602081830303815290604052925050509392505050565b60006124ef828461491b565b61332060405180606001604052806000815260200160008152602001606081525090565b602554825160009081526023602090815260408083205460265487518552602784529190932054918601516080870151600160a060020a0390951694639fbf10fc94349461ffff90911693929091339190613384906103e890611b38908490613522565b898b604001518c606001516040518b63ffffffff167c01000000000000000000000000000000000000000000000000000000000281526004016133cf999897969594939291906149b2565b6000604051808303818588803b1580156133e857600080fd5b505af11580156133fc573d6000803e3d6000fd5b50505050505050565b6000602c888154811061341a5761341a61478d565b60009182526020822060069190910201600501546040517fe502a88d0000000000000000000000000000000000000000000000000000000081526004810188905260248101859052600160a060020a039091169250829190829063e502a88d906044016020604051808303816000875af115801561349c573d6000803e3d6000fd5b505050506040513d601f19601f820116820180604052508101906134c09190614874565b90506134fb8382602c8d815481106134da576134da61478d565b6000918252602090912060069091020154600160a060020a031691906129fc565b6135098a8a8a848a8a612b8e565b5050505050505050505050565b60006124ef8284614a30565b60006124ef8284614a47565b60006124ef8284614a66565b60008054600160a060020a03838116600160a060020a0319831681178455604051919092169283917f8be0079c531659141344cd1fd0a4f28419497f9722a3daafe3b4186f6b6457e09190a35050565b6000848152602d60209081526040808320600160a060020a038a1684529091528120805482914291879081106135c2576135c261478d565b9060005260206000209060060201600501819055506000602c87815481106135ec576135ec61478d565b60009182526020822060056006909202010154600160a060020a0316915081908061361a8a8d8d8c8c612e8c565b915091506136368483602c8d815481106134da576134da61478d565b6040517f648794a40000000000000000000000000000000000000000000000000000000081526004810183905260248101889052600090600160a060020a0385169063648794a4906044016020604051808303816000875af11580156136a0573d6000803e3d6000fd5b505050506040513d601f19601f820116820180604052508101906136c49190614874565b9d919c50909a5050505050505050505050565b600061372c826040518060400160405280602081526020017f5361666545524332303a206c6f772d6c6576656c2063616c6c206661696c656481525085600160a060020a0316613f019092919063ffffffff16565b8051909150156124d5578080602001905181019061374a9190614a8b565b6124d55760405160e560020a62461bcd02815260206004820152602a60248201527f5361666545524332303a204552433230206f7065726174696f6e20646964206e60448201527f6f74207375636365656400000000000000000000000000000000000000000000606482015260840161121d565b6000848152602d60209081526040808320600160a060020a0387168452825280832080546001818101835591855293839020855160069095020193845591840151918301919091558201516002820155606082015160038201556080820151600482015560a08201516005909101558151156129f6576000848152602e60205260409081902090516138529084906148cb565b9081526020016040518091039020604051806040016040528061387a60016130558989611c25565b8152600160a060020a03958616602091820152825460018082018555600094855293829020835160029092020190815591015191018054600160a060020a0319169190941617909255505050565b6139016040518060c001604052806000815260200160008152602001600081526020016000815260200160008152602001600081525090565b600160a060020a03821661399f576000858152602d60209081526040808320600160a060020a038616845290915290208054859081106139435761394361478d565b90600052602060002090600602016040518060c001604052908160008201548152602001600182015481526020016002820154815260200160038201548152602001600482015481526020016005820154815250509050613aff565b60005b6000868152602e60205260409081902090516139bf9086906148cb565b9081526040519081900360200190205461ffff82161015613afd576000868152602e602052604080822090516139f69087906148cb565b90815260200160405180910390208261ffff1681548110613a1957613a1961478d565b6000918252602091829020604080518082019091526002909202018054808352600190910154600160a060020a0316928201929092529150861415613aec576000878152602d6020908152604080832084830151600160a060020a031684529091529020805487908110613a8f57613a8f61478d565b90600052602060002090600602016040518060c00160405290816000820154815260200160018201548152602001600282015481526020016003820154815260200160048201548152602001600582015481525050925050613afd565b50613af681614aa8565b90506139a2565b505b949350505050565b60008211613b14576129f6565b6000613b4242613055613b3762093a80886060015161352290919063ffffffff16565b6080880151906132f0565b90506000808215613b80576060860151613b6d90613b639062093a80613522565b611b388786613522565b9050613b798582613516565b9150613b84565b8491505b613b8e8483613f10565b80156133fc576000602c8881548110613ba957613ba961478d565b6000918252602090912060056006909202010154600160a060020a03169050613bd28183613f10565b5050505050505050565b6000848152602d60209081526040808320600160a060020a03861684529091529020805490613c0c600183614a30565b81548110613c1c57613c1c61478d565b60009182526020808320888452602d82526040808520600160a060020a0389168652909252922080546006909202909201919086908110613c5f57613c5f61478d565b600091825260208083208454600690930201918255600180850154908301556002808501549083015560038085015490830155600480850154908301556005938401549390910192909255868152602d82526040808220600160a060020a038716835290925220805480613cd557613cd5614aca565b60008281526020812060066000199093019283020181815560018101829055600281018290556003810182905560048101829055600501559055815115613efa576000858152602e60205260408082209051613d329085906148cb565b90815260405190819003602001902054905060005b818161ffff1610156133fc5785602e600089815260200190815260200160002085604051613d7591906148cb565b90815260200160405180910390208261ffff1681548110613d9857613d9861478d565b9060005260206000209060020201600001541415613eea576000878152602e6020526040908190209051613dcd9086906148cb565b908152604051908190036020019020613de7600184614a30565b81548110613df757613df761478d565b9060005260206000209060020201602e600089815260200190815260200160002085604051613e2691906148cb565b90815260200160405180910390208261ffff1681548110613e4957613e4961478d565b600091825260208083208454600290930201918255600193840154939091018054600160a060020a031916600160a060020a0390941693909317909255888152602e9091526040908190209051613ea19086906148cb565b9081526020016040518091039020805480613ebe57613ebe614aca565b6000828152602081206002600019909301928302019081556001018054600160a060020a031916905590555b613ef381614aa8565b9050613d47565b5050505050565b6060613aff8484600085613fbf565b6002546040517f70a082310000000000000000000000000000000000000000000000000000000081523060048201528291600091600160a060020a03909116906370a0823190602401602060405180830381865afa158015613f76573d6000803e3d6000fd5b505050506040513d601f19601f82011682018060405250810190613f9a9190614874565b905080831115613fa8578091505b6002546129f690600160a060020a03168584613231565b6060303183111561403b5760405160e560020a62461bcd02815260206004820152602660248201527f416464726573733a20696e73756666696369656e742062616c616e636520666f60448201527f722063616c6c0000000000000000000000000000000000000000000000000000606482015260840161121d565b600160a060020a0385163b6140955760405160e560020a62461bcd02815260206004820152601d60248201527f416464726573733a2063616c6c20746f206e6f6e2d636f6e7472616374000000604482015260640161121d565b60008086600160a060020a031685876040516140b191906148cb565b60006040518083038185875af1925050503d80600081146140ee576040519150601f19603f3d011682016040523d82523d6000602084013e6140f3565b606091505b509150915061410382828661410e565b979650505050505050565b6060831561411d5750816124ef565b82511561412d5782518084602001fd5b8160405160e560020a62461bcd02815260040161121d91906144fc565b82805482825590600052602060002090810192821561419f579160200282015b8281111561419f5782518254600160a060020a031916600160a060020a0390911617825560209092019160019091019061416a565b506141ab929150614223565b5090565b8280546141bb9061488d565b90600052602060002090601f0160209004810192826141dd576000855561419f565b82601f106141f65782800160ff1982351617855561419f565b8280016001018555821561419f579182015b8281111561419f578235825591602001919060010190614208565b5b808211156141ab5760008155600101614224565b60008060006060848603121561424d57600080fd5b505081359360208301359350604090920135919050565b60006020828403121561427657600080fd5b5035919050565b8035600160a060020a038116811461237c57600080fd5b6000602082840312156142a657600080fd5b6124ef8261427d565b6000602082840312156142c157600080fd5b813561ffff811681146124ef57600080fd5b60e060020a634e487b7102600052604160045260246000fd5b604051601f8201601f1916810167ffffffffffffffff81118282101715614315576143156142d3565b604052919050565b600082601f83011261432e57600080fd5b813567ffffffffffffffff811115614348576143486142d3565b61435b601f8201601f19166020016142ec565b81815284602083860101111561437057600080fd5b816020850160208301376000918101602001919091529392505050565b6000806000606084860312156143a257600080fd5b83359250602084013567ffffffffffffffff8111156143c057600080fd5b6143cc8682870161431d565b925050604084013590509250925092565b801515811461297b57600080fd5b60008060006060848603121561440057600080fd5b83359250602084013591506040840135614419816143dd565b809150509250925092565b6000806040838503121561443757600080fd5b50508035926020909101359150565b6000806000806080858703121561445c57600080fd5b5050823594602084013594506040840135936060013592509050565b6000806040838503121561448b57600080fd5b8235915061449b6020840161427d565b90509250929050565b60005b838110156144bf5781810151838201526020016144a7565b838111156129f65750506000910152565b600081518084526144e88160208601602086016144a4565b601f01601f19169290920160200192915050565b6020815260006124ef60208301846144d0565b60006020828403121561452157600080fd5b813567ffffffffffffffff81111561453857600080fd5b613aff8482850161431d565b6000602080838503121561455757600080fd5b823567ffffffffffffffff8082111561456f57600080fd5b818501915085601f83011261458357600080fd5b813581811115614595576145956142d3565b83810291506145a58483016142ec565b81815291830184019184810190888411156145bf57600080fd5b938501935b838510156116ae576145d58561427d565b825293850193908501906145c4565b600080600080600060a086880312156145fc57600080fd5b505083359560208501359550604085013594606081013594506080013592509050565b60006020828403121561463157600080fd5b81356124ef816143dd565b6000806000806080858703121561465257600080fd5b8435935060208501359250604085013561466b816143dd565b9396929550929360600135925050565b60008060006060848603121561469057600080fd5b833592506146a06020850161427d565b9150604084013590509250925092565b600080604083850312156146c357600080fd5b6146cc8361427d565b946020939093013593505050565b6000806000604084860312156146ef57600080fd5b83359250602084013567ffffffffffffffff8082111561470e57600080fd5b818601915086601f83011261472257600080fd5b81358181111561473157600080fd5b87602082850101111561474357600080fd5b6020830194508093505050509250925092565b6020808252601f908201527f5265656e7472616e637947756172643a207265656e7472616e742063616c6c00604082015260600190565b60e060020a634e487b7102600052603260045260246000fd5b6020808252818101527f4f776e61626c653a2063616c6c6572206973206e6f7420746865206f776e6572604082015260600190565b80518252602081015160208301526000604082015160606040850152613aff60608501826144d0565b61ffff8616815260ff8516602082015260a06040820152600061482a60a08301866144d0565b828103606084015261483c81866144d0565b905082810360808401526116ae81856147db565b6000806040838503121561486357600080fd5b505080516020909101519092909150565b60006020828403121561488657600080fd5b5051919050565b6002810460018216806148a157607f821691505b602082108114156148c55760e060020a634e487b7102600052602260045260246000fd5b50919050565b600082516148dd8184602087016144a4565b9190910192915050565b60e060020a634e487b7102600052601160045260246000fd5b6000600019821415614914576149146148e7565b5060010190565b6000821982111561492e5761492e6148e7565b500190565b805160208201516bffffffffffffffffffffffff198082169291906014831015611c1d5760149290920360080260020a8202161692915050565b7bffffffffffffffffffffffffffffffffffffffffffffffffffffffff1983168152600082516149a48160048501602087016144a4565b919091016004019392505050565b600061012061ffff8c1683528a6020840152896040840152600160a060020a03891660608401528760808401528660a08401528060c08401526149f7818401876147db565b905082810360e0840152614a0b81866144d0565b9050828103610100840152614a2081856144d0565b9c9b505050505050505050505050565b600082821015614a4257614a426148e7565b500390565b6000816000190483118215151615614a6157614a616148e7565b500290565b600082614a865760e060020a634e487b7102600052601260045260246000fd5b500490565b600060208284031215614a9d57600080fd5b81516124ef816143dd565b600061ffff80831681811415614ac057614ac06148e7565b6001019392505050565b60e060020a634e487b7102600052603160045260246000fd5b81811015614b01578454841686529482019460019485019401614ae3565b50505050600160a060020a03861660c08501525090508260e0830152999850505050505050505056fea26469706673582212206b4083a2f697a9828983edc184d58d3743e4cc6a4630f7212c5efbdb330bc53d64736f6c634300080a0033",
  "immutableReferences": {},
  "source": "// SPDX-License-Identifier: MIT\n\npragma solidity ^0.8.0;\n\nimport \"./_ZorroControllerXChain.sol\";\n\ncontract ZorroControllerXChainEarn is ZorroControllerXChain {\n    /* Libraries */\n    using SafeMath for uint256;\n    using SafeERC20 for IERC20;\n\n    /* Events */\n    event XChainDistributeEarnings(\n        uint256 indexed _remoteChainId,\n        uint256 indexed _buybackAmountUSDC,\n        uint256 indexed _revShareAmountUSDC\n    );\n\n    /* Fees */\n\n    /// @notice Checks to see how much a cross chain earnings distribution will cost\n    /// @param _amountUSDCBuyback Amount of USDC to buy back\n    /// @param _amountUSDCRevShare Amount of USDC to rev share with ZOR single staking vault\n    /// @return uint256 Quantity of native token as fees\n    function checkXChainDistributeEarningsFee(\n        uint256 _amountUSDCBuyback,\n        uint256 _amountUSDCRevShare\n    ) external view returns (uint256) {\n        // Init empty LZ object\n        IStargateRouter.lzTxObj memory _lzTxParams;\n\n        // Get payload\n        bytes memory _payload = _encodeXChainDistributeEarningsPayload(\n            chainId,\n            _amountUSDCBuyback,\n            _amountUSDCRevShare\n        );\n        bytes memory _dstContract = abi.encodePacked(homeChainZorroController);\n\n        // Calculate native gas fee and ZRO token fee (Layer Zero token)\n        (uint256 _nativeFee, uint256 _lzFee) = IStargateRouter(stargateRouter)\n            .quoteLayerZeroFee(\n                ZorroChainToLZMap[homeChainId],\n                1,\n                _dstContract,\n                _payload,\n                _lzTxParams\n            );\n        // TODO: Q: Is it the sum of these fees or just one?\n        return _nativeFee.add(_lzFee);\n    }\n\n    /* Encoding (payloads) */\n\n    /// @notice Encodes payload for making cross chan earnings distribution request\n    /// @param _remoteChainId Zorro chain ID of the chain making the distribution request\n    /// @param _amountUSDCBuyback Amount in USDC to buy back\n    /// @param _amountUSDCRevShare Amount in USDC to rev share with ZOR staking vault\n    /// @return bytes ABI encoded payload\n    function _encodeXChainDistributeEarningsPayload(\n        uint256 _remoteChainId,\n        uint256 _amountUSDCBuyback,\n        uint256 _amountUSDCRevShare\n    ) internal pure returns (bytes memory) {\n        // Calculate method signature\n        bytes4 _sig = this.receiveXChainDistributionRequest.selector;\n        // Calculate abi encoded bytes for input args\n        bytes memory _inputs = abi.encode(\n            _remoteChainId,\n            _amountUSDCBuyback,\n            _amountUSDCRevShare\n        );\n        // Concatenate bytes of signature and inputs\n        return bytes.concat(_sig, _inputs);\n    }\n\n    /* Sending */\n    \n    /// @notice Sends a request back to the home chain to distribute earnings\n    /// @param _pid Pool ID\n    /// @param _buybackAmountUSDC Amount in USDC to buy back\n    /// @param _revShareAmountUSDC Amount in USDC to revshare w/ ZOR single staking vault\n    /// @param _maxMarketMovement Acceptable slippage (950 = 5%, 990 = 1% etc.)\n    function sendXChainDistributeEarningsRequest(\n        uint256 _pid,\n        uint256 _buybackAmountUSDC,\n        uint256 _revShareAmountUSDC,\n        uint256 _maxMarketMovement\n    ) public payable nonReentrant onlyRegisteredVault(_pid) {\n        // Require funds to be submitted with this message\n        require(msg.value > 0, \"No fees submitted\");\n\n        // Calculate total USDC to transfer\n        uint256 _totalUSDC = _buybackAmountUSDC.add(_revShareAmountUSDC);\n\n        // Allow this contract to spend USDC\n        IERC20(defaultStablecoin).safeIncreaseAllowance(\n            address(this),\n            _totalUSDC\n        );\n\n        // Transfer USDC into this contract\n        IERC20(defaultStablecoin).safeTransferFrom(\n            msg.sender,\n            address(this),\n            _totalUSDC\n        );\n\n        // Check balances\n        uint256 _balUSDC = IERC20(defaultStablecoin).balanceOf(address(this));\n\n        // Generate payload\n        bytes memory _payload = _encodeXChainDistributeEarningsPayload(\n            chainId,\n            _buybackAmountUSDC,\n            _revShareAmountUSDC\n        );\n\n        // Get the destination contract address on the remote chain\n        bytes memory _dstContract = controllerContractsMap[chainId];\n\n        // Call stargate to initiate bridge\n        _callStargateSwap(\n            StargateSwapPayload({\n                chainId: homeChainId,\n                qty: _balUSDC,\n                dstContract: _dstContract,\n                payload: _payload,\n                maxMarketMovement: _maxMarketMovement\n            })\n        );\n    }\n\n    /* Receiving */\n\n    /// @notice Dummy func to allow .selector call above and guarantee typesafety for abi calls.\n    /// @dev Should never ever be actually called.\n    function receiveXChainDistributionRequest(\n        uint256 _remoteChainId,\n        uint256 _amountUSDCBuyback,\n        uint256 _amountUSDCRevShare\n    ) public {\n        // Revert to make sure this function never gets called\n        revert(\"illegal dummy func call\");\n\n        // But still include the function call here anyway to satisfy type safety requirements in case there is a change\n        _receiveXChainDistributionRequest(\n            _remoteChainId,\n            _amountUSDCBuyback,\n            _amountUSDCRevShare\n        );\n    }\n\n    /// @notice Receives an authorized request from remote chains to perform earnings fee distribution events, such as: buyback + LP + burn, and revenue share\n    /// @param _remoteChainId The Zorro chain ID of the chain that this request originated from\n    /// @param _amountUSDCBuyback The amount in USDC that should be minted for LP + burn\n    /// @param _amountUSDCRevShare The amount in USDC that should be minted for revenue sharing with ZOR stakers\n    function _receiveXChainDistributionRequest(\n        uint256 _remoteChainId,\n        uint256 _amountUSDCBuyback,\n        uint256 _amountUSDCRevShare\n    ) internal {\n        // Total USDC to perform operations\n        uint256 _totalUSDC = _amountUSDCBuyback.add(_amountUSDCRevShare);\n\n        // Determine new USDC balances\n        uint256 _balUSDC = IERC20(defaultStablecoin).balanceOf(address(this));\n\n        /* Buyback */\n        // (Account for slippage)\n        uint256 _buybackAmount = _balUSDC.mul(_amountUSDCBuyback).div(\n            _totalUSDC\n        );\n        _buybackOnChain(_buybackAmount);\n\n        /* Rev share */\n        // (Account for slippage)\n        uint256 _revShareAmount = _balUSDC.mul(_amountUSDCRevShare).div(\n            _totalUSDC\n        );\n        _revShareOnChain(_revShareAmount);\n\n        // Emit event\n        emit XChainDistributeEarnings(\n            _remoteChainId,\n            _buybackAmount,\n            _revShareAmount\n        );\n    }\n}\n",
  "sourcePath": "/Users/kristophm/Documents/workspace/zorro-protocol/contracts/controllers/_ZorroControllerXChainEarn.sol",
  "compiler": {
    "name": "solc",
    "version": "0.8.10+commit.fc410830.Emscripten.clang"
  },
  "schemaVersion": "3.4.4",
  "updatedAt": "2022-04-04T12:50:23.181Z",
  "devdoc": {
    "kind": "dev",
    "methods": {
      "checkXChainDistributeEarningsFee(uint256,uint256)": {
        "params": {
          "_amountUSDCBuyback": "Amount of USDC to buy back",
          "_amountUSDCRevShare": "Amount of USDC to rev share with ZOR single staking vault"
        },
        "returns": {
          "_0": "uint256 Quantity of native token as fees"
        }
      },
      "deposit(uint256,uint256,uint256)": {
        "params": {
          "_pid": "index of pool",
          "_wantAmt": "how much Want token to deposit",
          "_weeksCommitted": "how many weeks the user is committing to on this vault"
        }
      },
      "depositFullService(uint256,uint256,uint256,uint256)": {
        "params": {
          "_maxMarketMovement": "factor to account for max market movement/slippage. The definition varies by Vault, so consult the associated Vault contract for info",
          "_pid": "index of pool to deposit into",
          "_valueUSDC": "value in USDC (in ether units) to deposit",
          "_weeksCommitted": "how many weeks to commit to the Pool (can be 0 or any uint)"
        }
      },
      "getTimeMultiplier(uint256)": {
        "params": {
          "durationInWeeks": "number of weeks committed into Vault"
        },
        "returns": {
          "_0": "multiplier factor, times 1e12"
        }
      },
      "getUserContribution(uint256,uint256)": {
        "params": {
          "_liquidityCommitted": "How many tokens staked (e.g. LP tokens)",
          "_timeMultiplier": "Time multiplier value (from getTimeMultiplier())"
        },
        "returns": {
          "_0": "The relative contribution of the user (unitless)"
        }
      },
      "inCaseTokensGetStuck(address,uint256)": {
        "details": "Does not permit usage for the Zorro token",
        "params": {
          "_amount": "token quantity",
          "_token": "ERC20 token address"
        }
      },
      "owner()": {
        "details": "Returns the address of the current owner."
      },
      "poolLength()": {
        "returns": {
          "_0": "Number of pools"
        }
      },
      "receiveXChainDistributionRequest(uint256,uint256,uint256)": {
        "details": "Should never ever be actually called."
      },
      "renounceOwnership()": {
        "details": "Leaves the contract without owner. It will not be possible to call `onlyOwner` functions anymore. Can only be called by the current owner. NOTE: Renouncing ownership will leave the contract without an owner, thereby removing any functionality that is only available to the owner."
      },
      "sendXChainDistributeEarningsRequest(uint256,uint256,uint256,uint256)": {
        "params": {
          "_buybackAmountUSDC": "Amount in USDC to buy back",
          "_maxMarketMovement": "Acceptable slippage (950 = 5%, 990 = 1% etc.)",
          "_pid": "Pool ID",
          "_revShareAmountUSDC": "Amount in USDC to revshare w/ ZOR single staking vault"
        }
      },
      "setZorroPerBlock(uint256,uint256,uint256,uint256,uint256)": {
        "details": "Values to be provided by Oracle. Perferable to run daily",
        "params": {
          "_ZorroTotalVaultTVLUSD": "USD value of all TVL locked into the Zorro protocol, across all chains",
          "_publicPoolZORBalance": "Number of ZOR tokens remaining in public pool on home chain",
          "_targetTVLCaptureBasisPoints": "% desired capture of total market TVL, measured in basis points",
          "_totalChainMultipliers": "Sum total of all chain multipliers for each chain",
          "_totalMarketTVLUSD": "Total DeFi market TVL across all chains (measured in USD)"
        }
      },
      "trancheLength(uint256,address)": {
        "params": {
          "_pid": "Index of pool",
          "_user": "wallet address of user"
        },
        "returns": {
          "_0": "Number of tranches"
        }
      },
      "transferInvestment(uint256,uint256,uint256,uint256)": {
        "params": {
          "_fromPid": "index of pool FROM",
          "_fromTrancheId": "index of tranche FROM",
          "_maxMarketMovement": "factor to account for max market movement/slippage. The definition varies by Vault, so consult the associated Vault contract for info",
          "_toPid": "index of pool TO"
        }
      },
      "transferOwnership(address)": {
        "details": "Transfers ownership of the contract to a new account (`newOwner`). Can only be called by the current owner."
      },
      "updatePool(uint256)": {
        "params": {
          "_pid": "index of pool"
        },
        "returns": {
          "_0": "uint256 Amount of ZOR rewards minted (useful for cross chain)"
        }
      },
      "withdraw(uint256,uint256,bool)": {
        "params": {
          "_harvestOnly": "If true, will only harvest Zorro tokens but not do a withdrawal",
          "_pid": "index of pool",
          "_trancheId": "index of tranche"
        },
        "returns": {
          "_0": "Amount of Want token withdrawn"
        }
      },
      "withdrawAll(uint256)": {
        "params": {
          "_pid": "index of pool"
        }
      },
      "withdrawalFullService(uint256,uint256,bool,uint256)": {
        "params": {
          "_harvestOnly": "If true, will only harvest Zorro tokens but not do a withdrawal",
          "_maxMarketMovement": "factor to account for max market movement/slippage. The definition varies by Vault, so consult the associated Vault contract for info",
          "_pid": "index of pool to deposit into",
          "_trancheId": "index of tranche"
        },
        "returns": {
          "_0": "Amount (in USDC) returned"
        }
      }
    },
    "version": 1
  },
  "userdoc": {
    "kind": "user",
    "methods": {
      "checkXChainDistributeEarningsFee(uint256,uint256)": {
        "notice": "Checks to see how much a cross chain earnings distribution will cost"
      },
      "deposit(uint256,uint256,uint256)": {
        "notice": "Deposit Want tokens to associated Vault"
      },
      "depositFullService(uint256,uint256,uint256,uint256)": {
        "notice": "Deposits funds in a full service manner (performs autoswaps and obtains Want tokens)"
      },
      "getTimeMultiplier(uint256)": {
        "notice": "Calculate time multiplier based on duration committed"
      },
      "getUserContribution(uint256,uint256)": {
        "notice": "The contribution of the user, meant to be used in rewards allocations"
      },
      "inCaseTokensGetStuck(address,uint256)": {
        "notice": "For owner to recover ERC20 tokens on this contract if stuck"
      },
      "poolLength()": {
        "notice": "Number of pools in the Zorro protocol"
      },
      "receiveXChainDistributionRequest(uint256,uint256,uint256)": {
        "notice": "Dummy func to allow .selector call above and guarantee typesafety for abi calls."
      },
      "sendXChainDistributeEarningsRequest(uint256,uint256,uint256,uint256)": {
        "notice": "Sends a request back to the home chain to distribute earnings"
      },
      "setZorroPerBlock(uint256,uint256,uint256,uint256,uint256)": {
        "notice": "Set the number of Zorro to emit per block based on current market parameters"
      },
      "trancheLength(uint256,address)": {
        "notice": "Number of tranches invested by a given user into a given pool"
      },
      "transferInvestment(uint256,uint256,uint256,uint256)": {
        "notice": "Transfer all assets from a tranche in one vault to a new vault (works on-chain only)"
      },
      "updatePool(uint256)": {
        "notice": "Update reward variables of the given pool to be up-to-date."
      },
      "withdraw(uint256,uint256,bool)": {
        "notice": "Fully withdraw Want tokens from underlying Vault."
      },
      "withdrawAll(uint256)": {
        "notice": "Withdraw the maximum number of Want tokens from a pool"
      },
      "withdrawalFullService(uint256,uint256,bool,uint256)": {
        "notice": "Withdraws funds from a pool and converts the Want token into USDC"
      }
    },
    "version": 1
  }
}