{
  "contractName": "ZorroController",
  "abi": [
    {
      "inputs": [
        {
          "internalType": "address",
          "name": "_timelockOwner",
          "type": "address"
        },
        {
          "internalType": "address",
          "name": "_publicPool",
          "type": "address"
        },
        {
          "internalType": "address",
          "name": "_stableCoinAddress",
          "type": "address"
        },
        {
          "internalType": "address",
          "name": "_homeChainZorroController",
          "type": "address"
        },
        {
          "internalType": "address[]",
          "name": "_zorroLPPoolAddresses",
          "type": "address[]"
        },
        {
          "internalType": "uint256",
          "name": "_chainId",
          "type": "uint256"
        },
        {
          "internalType": "address[]",
          "name": "_priceFeeds",
          "type": "address[]"
        },
        {
          "internalType": "address",
          "name": "_zorroControllerOracle",
          "type": "address"
        }
      ],
      "stateMutability": "nonpayable",
      "type": "constructor"
    },
    {
      "anonymous": false,
      "inputs": [
        {
          "indexed": true,
          "internalType": "address",
          "name": "account",
          "type": "address"
        },
        {
          "indexed": true,
          "internalType": "bytes",
          "name": "foreignAccount",
          "type": "bytes"
        },
        {
          "indexed": true,
          "internalType": "uint256",
          "name": "pid",
          "type": "uint256"
        },
        {
          "indexed": false,
          "internalType": "uint256",
          "name": "wantAmount",
          "type": "uint256"
        }
      ],
      "name": "Deposit",
      "type": "event"
    },
    {
      "anonymous": false,
      "inputs": [
        {
          "indexed": true,
          "internalType": "address",
          "name": "previousOwner",
          "type": "address"
        },
        {
          "indexed": true,
          "internalType": "address",
          "name": "newOwner",
          "type": "address"
        }
      ],
      "name": "OwnershipTransferred",
      "type": "event"
    },
    {
      "anonymous": false,
      "inputs": [
        {
          "indexed": true,
          "internalType": "uint256",
          "name": "_amountZOR",
          "type": "uint256"
        }
      ],
      "name": "RemovedSlashedRewards",
      "type": "event"
    },
    {
      "anonymous": false,
      "inputs": [
        {
          "indexed": false,
          "internalType": "address",
          "name": "account",
          "type": "address"
        },
        {
          "indexed": true,
          "internalType": "uint256",
          "name": "fromPid",
          "type": "uint256"
        },
        {
          "indexed": true,
          "internalType": "uint256",
          "name": "fromTrancheId",
          "type": "uint256"
        },
        {
          "indexed": true,
          "internalType": "uint256",
          "name": "toPid",
          "type": "uint256"
        }
      ],
      "name": "TransferInvestment",
      "type": "event"
    },
    {
      "anonymous": false,
      "inputs": [
        {
          "indexed": true,
          "internalType": "address",
          "name": "account",
          "type": "address"
        },
        {
          "indexed": true,
          "internalType": "bytes",
          "name": "foreignAccount",
          "type": "bytes"
        },
        {
          "indexed": true,
          "internalType": "uint256",
          "name": "pid",
          "type": "uint256"
        },
        {
          "indexed": false,
          "internalType": "uint256",
          "name": "trancheId",
          "type": "uint256"
        },
        {
          "indexed": false,
          "internalType": "uint256",
          "name": "wantAmount",
          "type": "uint256"
        }
      ],
      "name": "Withdraw",
      "type": "event"
    },
    {
      "anonymous": false,
      "inputs": [
        {
          "indexed": true,
          "internalType": "uint256",
          "name": "_remoteChainId",
          "type": "uint256"
        },
        {
          "indexed": true,
          "internalType": "uint256",
          "name": "_buybackAmountUSDC",
          "type": "uint256"
        },
        {
          "indexed": true,
          "internalType": "uint256",
          "name": "_revShareAmountUSDC",
          "type": "uint256"
        }
      ],
      "name": "XChainDistributeEarnings",
      "type": "event"
    },
    {
      "anonymous": false,
      "inputs": [
        {
          "indexed": true,
          "internalType": "uint256",
          "name": "_pid",
          "type": "uint256"
        },
        {
          "indexed": true,
          "internalType": "address",
          "name": "_originRecipient",
          "type": "address"
        },
        {
          "indexed": true,
          "internalType": "uint256",
          "name": "_burnableZORRewards",
          "type": "uint256"
        },
        {
          "indexed": false,
          "internalType": "uint256",
          "name": "_trancheId",
          "type": "uint256"
        },
        {
          "indexed": false,
          "internalType": "uint256",
          "name": "_originChainId",
          "type": "uint256"
        }
      ],
      "name": "XChainRepatriation",
      "type": "event"
    },
    {
      "inputs": [
        {
          "internalType": "uint16",
          "name": "",
          "type": "uint16"
        }
      ],
      "name": "LZChainToZorroMap",
      "outputs": [
        {
          "internalType": "uint256",
          "name": "",
          "type": "uint256"
        }
      ],
      "stateMutability": "view",
      "type": "function"
    },
    {
      "inputs": [
        {
          "internalType": "uint256",
          "name": "",
          "type": "uint256"
        }
      ],
      "name": "USDCToZorroLPPoolOtherTokenPath",
      "outputs": [
        {
          "internalType": "address",
          "name": "",
          "type": "address"
        }
      ],
      "stateMutability": "view",
      "type": "function"
    },
    {
      "inputs": [
        {
          "internalType": "uint256",
          "name": "",
          "type": "uint256"
        }
      ],
      "name": "USDCToZorroPath",
      "outputs": [
        {
          "internalType": "address",
          "name": "",
          "type": "address"
        }
      ],
      "stateMutability": "view",
      "type": "function"
    },
    {
      "inputs": [],
      "name": "ZORRO",
      "outputs": [
        {
          "internalType": "address",
          "name": "",
          "type": "address"
        }
      ],
      "stateMutability": "view",
      "type": "function"
    },
    {
      "inputs": [],
      "name": "ZORRODailyDistributionFactorBasisPointsMax",
      "outputs": [
        {
          "internalType": "uint256",
          "name": "",
          "type": "uint256"
        }
      ],
      "stateMutability": "view",
      "type": "function"
    },
    {
      "inputs": [],
      "name": "ZORRODailyDistributionFactorBasisPointsMin",
      "outputs": [
        {
          "internalType": "uint256",
          "name": "",
          "type": "uint256"
        }
      ],
      "stateMutability": "view",
      "type": "function"
    },
    {
      "inputs": [],
      "name": "ZORROPerBlock",
      "outputs": [
        {
          "internalType": "uint256",
          "name": "",
          "type": "uint256"
        }
      ],
      "stateMutability": "view",
      "type": "function"
    },
    {
      "inputs": [
        {
          "internalType": "uint256",
          "name": "",
          "type": "uint256"
        }
      ],
      "name": "ZorroChainToLZMap",
      "outputs": [
        {
          "internalType": "uint16",
          "name": "",
          "type": "uint16"
        }
      ],
      "stateMutability": "view",
      "type": "function"
    },
    {
      "inputs": [],
      "name": "accumulatedSlashedRewards",
      "outputs": [
        {
          "internalType": "uint256",
          "name": "",
          "type": "uint256"
        }
      ],
      "stateMutability": "view",
      "type": "function"
    },
    {
      "inputs": [
        {
          "internalType": "uint256",
          "name": "_allocPoint",
          "type": "uint256"
        },
        {
          "internalType": "contract IERC20",
          "name": "_want",
          "type": "address"
        },
        {
          "internalType": "bool",
          "name": "_withUpdate",
          "type": "bool"
        },
        {
          "internalType": "address",
          "name": "_vault",
          "type": "address"
        }
      ],
      "name": "add",
      "outputs": [],
      "stateMutability": "nonpayable",
      "type": "function"
    },
    {
      "inputs": [],
      "name": "baseRewardRateBasisPoints",
      "outputs": [
        {
          "internalType": "uint256",
          "name": "",
          "type": "uint256"
        }
      ],
      "stateMutability": "view",
      "type": "function"
    },
    {
      "inputs": [],
      "name": "blocksPerDay",
      "outputs": [
        {
          "internalType": "uint256",
          "name": "",
          "type": "uint256"
        }
      ],
      "stateMutability": "view",
      "type": "function"
    },
    {
      "inputs": [],
      "name": "burnAddress",
      "outputs": [
        {
          "internalType": "address",
          "name": "",
          "type": "address"
        }
      ],
      "stateMutability": "view",
      "type": "function"
    },
    {
      "inputs": [],
      "name": "chainId",
      "outputs": [
        {
          "internalType": "uint256",
          "name": "",
          "type": "uint256"
        }
      ],
      "stateMutability": "view",
      "type": "function"
    },
    {
      "inputs": [],
      "name": "chainMultiplier",
      "outputs": [
        {
          "internalType": "uint256",
          "name": "",
          "type": "uint256"
        }
      ],
      "stateMutability": "view",
      "type": "function"
    },
    {
      "inputs": [
        {
          "internalType": "uint256",
          "name": "_chainId",
          "type": "uint256"
        },
        {
          "internalType": "bytes",
          "name": "_dstContract",
          "type": "bytes"
        },
        {
          "internalType": "uint256",
          "name": "_pid",
          "type": "uint256"
        },
        {
          "internalType": "uint256",
          "name": "_valueUSDC",
          "type": "uint256"
        },
        {
          "internalType": "uint256",
          "name": "_weeksCommitted",
          "type": "uint256"
        },
        {
          "internalType": "uint256",
          "name": "_maxMarketMovement",
          "type": "uint256"
        },
        {
          "internalType": "bytes",
          "name": "_destWallet",
          "type": "bytes"
        }
      ],
      "name": "checkXChainDepositFee",
      "outputs": [
        {
          "internalType": "uint256",
          "name": "",
          "type": "uint256"
        }
      ],
      "stateMutability": "view",
      "type": "function"
    },
    {
      "inputs": [
        {
          "internalType": "uint256",
          "name": "_amountUSDCBuyback",
          "type": "uint256"
        },
        {
          "internalType": "uint256",
          "name": "_amountUSDCRevShare",
          "type": "uint256"
        },
        {
          "internalType": "uint256",
          "name": "_accSlashedRewards",
          "type": "uint256"
        }
      ],
      "name": "checkXChainDistributeEarningsFee",
      "outputs": [
        {
          "internalType": "uint256",
          "name": "",
          "type": "uint256"
        }
      ],
      "stateMutability": "view",
      "type": "function"
    },
    {
      "inputs": [
        {
          "internalType": "uint256",
          "name": "_originChainId",
          "type": "uint256"
        },
        {
          "internalType": "uint256",
          "name": "_pid",
          "type": "uint256"
        },
        {
          "internalType": "uint256",
          "name": "_trancheId",
          "type": "uint256"
        },
        {
          "internalType": "bytes",
          "name": "_originRecipient",
          "type": "bytes"
        },
        {
          "internalType": "uint256",
          "name": "_burnableZORRewards",
          "type": "uint256"
        },
        {
          "internalType": "uint256",
          "name": "_rewardsDue",
          "type": "uint256"
        },
        {
          "internalType": "uint256",
          "name": "_gasForDestinationLZReceive",
          "type": "uint256"
        }
      ],
      "name": "checkXChainRepatriationFee",
      "outputs": [
        {
          "internalType": "uint256",
          "name": "",
          "type": "uint256"
        }
      ],
      "stateMutability": "view",
      "type": "function"
    },
    {
      "inputs": [
        {
          "internalType": "uint256",
          "name": "_zorroChainId",
          "type": "uint256"
        },
        {
          "internalType": "uint256",
          "name": "_pid",
          "type": "uint256"
        },
        {
          "internalType": "uint256",
          "name": "_trancheId",
          "type": "uint256"
        },
        {
          "internalType": "uint256",
          "name": "_maxMarketMovement",
          "type": "uint256"
        },
        {
          "internalType": "uint256",
          "name": "_gasForDestinationLZReceive",
          "type": "uint256"
        }
      ],
      "name": "checkXChainWithdrawalFee",
      "outputs": [
        {
          "internalType": "uint256",
          "name": "",
          "type": "uint256"
        }
      ],
      "stateMutability": "view",
      "type": "function"
    },
    {
      "inputs": [
        {
          "internalType": "uint256",
          "name": "",
          "type": "uint256"
        }
      ],
      "name": "controllerContractsMap",
      "outputs": [
        {
          "internalType": "bytes",
          "name": "",
          "type": "bytes"
        }
      ],
      "stateMutability": "view",
      "type": "function"
    },
    {
      "inputs": [],
      "name": "defaultMaxMarketMovement",
      "outputs": [
        {
          "internalType": "uint256",
          "name": "",
          "type": "uint256"
        }
      ],
      "stateMutability": "view",
      "type": "function"
    },
    {
      "inputs": [],
      "name": "defaultStablecoin",
      "outputs": [
        {
          "internalType": "address",
          "name": "",
          "type": "address"
        }
      ],
      "stateMutability": "view",
      "type": "function"
    },
    {
      "inputs": [
        {
          "internalType": "uint256",
          "name": "_pid",
          "type": "uint256"
        },
        {
          "internalType": "uint256",
          "name": "_wantAmt",
          "type": "uint256"
        },
        {
          "internalType": "uint256",
          "name": "_weeksCommitted",
          "type": "uint256"
        }
      ],
      "name": "deposit",
      "outputs": [],
      "stateMutability": "nonpayable",
      "type": "function"
    },
    {
      "inputs": [
        {
          "internalType": "uint256",
          "name": "_pid",
          "type": "uint256"
        },
        {
          "internalType": "uint256",
          "name": "_valueUSDC",
          "type": "uint256"
        },
        {
          "internalType": "uint256",
          "name": "_weeksCommitted",
          "type": "uint256"
        },
        {
          "internalType": "uint256",
          "name": "_maxMarketMovement",
          "type": "uint256"
        }
      ],
      "name": "depositFullService",
      "outputs": [],
      "stateMutability": "nonpayable",
      "type": "function"
    },
    {
      "inputs": [
        {
          "internalType": "uint256",
          "name": "",
          "type": "uint256"
        },
        {
          "internalType": "bytes",
          "name": "",
          "type": "bytes"
        },
        {
          "internalType": "uint256",
          "name": "",
          "type": "uint256"
        }
      ],
      "name": "foreignTrancheInfo",
      "outputs": [
        {
          "internalType": "address",
          "name": "",
          "type": "address"
        }
      ],
      "stateMutability": "view",
      "type": "function"
    },
    {
      "inputs": [
        {
          "internalType": "uint256",
          "name": "durationInWeeks",
          "type": "uint256"
        }
      ],
      "name": "getTimeMultiplier",
      "outputs": [
        {
          "internalType": "uint256",
          "name": "",
          "type": "uint256"
        }
      ],
      "stateMutability": "view",
      "type": "function"
    },
    {
      "inputs": [
        {
          "internalType": "uint256",
          "name": "_liquidityCommitted",
          "type": "uint256"
        },
        {
          "internalType": "uint256",
          "name": "_timeMultiplier",
          "type": "uint256"
        }
      ],
      "name": "getUserContribution",
      "outputs": [
        {
          "internalType": "uint256",
          "name": "",
          "type": "uint256"
        }
      ],
      "stateMutability": "pure",
      "type": "function"
    },
    {
      "inputs": [],
      "name": "homeChainId",
      "outputs": [
        {
          "internalType": "uint256",
          "name": "",
          "type": "uint256"
        }
      ],
      "stateMutability": "view",
      "type": "function"
    },
    {
      "inputs": [],
      "name": "homeChainZorroController",
      "outputs": [
        {
          "internalType": "address",
          "name": "",
          "type": "address"
        }
      ],
      "stateMutability": "view",
      "type": "function"
    },
    {
      "inputs": [
        {
          "internalType": "address",
          "name": "_token",
          "type": "address"
        },
        {
          "internalType": "uint256",
          "name": "_amount",
          "type": "uint256"
        }
      ],
      "name": "inCaseTokensGetStuck",
      "outputs": [],
      "stateMutability": "nonpayable",
      "type": "function"
    },
    {
      "inputs": [],
      "name": "isTimeMultiplierActive",
      "outputs": [
        {
          "internalType": "bool",
          "name": "",
          "type": "bool"
        }
      ],
      "stateMutability": "view",
      "type": "function"
    },
    {
      "inputs": [],
      "name": "layerZeroEndpoint",
      "outputs": [
        {
          "internalType": "address",
          "name": "",
          "type": "address"
        }
      ],
      "stateMutability": "view",
      "type": "function"
    },
    {
      "inputs": [
        {
          "internalType": "uint16",
          "name": "_srcChainId",
          "type": "uint16"
        },
        {
          "internalType": "bytes",
          "name": "_srcAddress",
          "type": "bytes"
        },
        {
          "internalType": "uint64",
          "name": "_nonce",
          "type": "uint64"
        },
        {
          "internalType": "bytes",
          "name": "_payload",
          "type": "bytes"
        }
      ],
      "name": "lzReceive",
      "outputs": [],
      "stateMutability": "nonpayable",
      "type": "function"
    },
    {
      "inputs": [],
      "name": "massUpdatePools",
      "outputs": [
        {
          "internalType": "uint256",
          "name": "_mintedZOR",
          "type": "uint256"
        }
      ],
      "stateMutability": "nonpayable",
      "type": "function"
    },
    {
      "inputs": [],
      "name": "owner",
      "outputs": [
        {
          "internalType": "address",
          "name": "",
          "type": "address"
        }
      ],
      "stateMutability": "view",
      "type": "function"
    },
    {
      "inputs": [
        {
          "internalType": "uint256",
          "name": "_pid",
          "type": "uint256"
        },
        {
          "internalType": "address",
          "name": "_account",
          "type": "address"
        },
        {
          "internalType": "int256",
          "name": "_trancheId",
          "type": "int256"
        }
      ],
      "name": "pendingZORRORewards",
      "outputs": [
        {
          "internalType": "uint256",
          "name": "_pendingRewards",
          "type": "uint256"
        }
      ],
      "stateMutability": "view",
      "type": "function"
    },
    {
      "inputs": [
        {
          "internalType": "uint256",
          "name": "",
          "type": "uint256"
        }
      ],
      "name": "poolInfo",
      "outputs": [
        {
          "internalType": "contract IERC20",
          "name": "want",
          "type": "address"
        },
        {
          "internalType": "uint256",
          "name": "allocPoint",
          "type": "uint256"
        },
        {
          "internalType": "uint256",
          "name": "lastRewardBlock",
          "type": "uint256"
        },
        {
          "internalType": "uint256",
          "name": "accZORRORewards",
          "type": "uint256"
        },
        {
          "internalType": "uint256",
          "name": "totalTrancheContributions",
          "type": "uint256"
        },
        {
          "internalType": "address",
          "name": "vault",
          "type": "address"
        }
      ],
      "stateMutability": "view",
      "type": "function"
    },
    {
      "inputs": [],
      "name": "poolLength",
      "outputs": [
        {
          "internalType": "uint256",
          "name": "",
          "type": "uint256"
        }
      ],
      "stateMutability": "view",
      "type": "function"
    },
    {
      "inputs": [],
      "name": "priceFeedLPPoolOtherToken",
      "outputs": [
        {
          "internalType": "contract AggregatorV3Interface",
          "name": "",
          "type": "address"
        }
      ],
      "stateMutability": "view",
      "type": "function"
    },
    {
      "inputs": [],
      "name": "priceFeedZOR",
      "outputs": [
        {
          "internalType": "contract AggregatorV3Interface",
          "name": "",
          "type": "address"
        }
      ],
      "stateMutability": "view",
      "type": "function"
    },
    {
      "inputs": [],
      "name": "publicPool",
      "outputs": [
        {
          "internalType": "address",
          "name": "",
          "type": "address"
        }
      ],
      "stateMutability": "view",
      "type": "function"
    },
    {
      "inputs": [
        {
          "internalType": "uint256",
          "name": "_pid",
          "type": "uint256"
        },
        {
          "internalType": "uint256",
          "name": "_valueUSDC",
          "type": "uint256"
        },
        {
          "internalType": "uint256",
          "name": "_weeksCommitted",
          "type": "uint256"
        },
        {
          "internalType": "uint256",
          "name": "_maxMarketMovement",
          "type": "uint256"
        },
        {
          "internalType": "bytes",
          "name": "_originAccount",
          "type": "bytes"
        },
        {
          "internalType": "address",
          "name": "_destAccount",
          "type": "address"
        }
      ],
      "name": "receiveXChainDepositRequest",
      "outputs": [],
      "stateMutability": "nonpayable",
      "type": "function"
    },
    {
      "inputs": [
        {
          "internalType": "uint256",
          "name": "_remoteChainId",
          "type": "uint256"
        },
        {
          "internalType": "uint256",
          "name": "_amountUSDCBuyback",
          "type": "uint256"
        },
        {
          "internalType": "uint256",
          "name": "_amountUSDCRevShare",
          "type": "uint256"
        },
        {
          "internalType": "uint256",
          "name": "_accSlashedRewards",
          "type": "uint256"
        }
      ],
      "name": "receiveXChainDistributionRequest",
      "outputs": [],
      "stateMutability": "nonpayable",
      "type": "function"
    },
    {
      "inputs": [
        {
          "internalType": "uint256",
          "name": "_originChainId",
          "type": "uint256"
        },
        {
          "internalType": "uint256",
          "name": "_pid",
          "type": "uint256"
        },
        {
          "internalType": "uint256",
          "name": "_trancheId",
          "type": "uint256"
        },
        {
          "internalType": "bytes",
          "name": "_originRecipient",
          "type": "bytes"
        },
        {
          "internalType": "uint256",
          "name": "_burnableZORRewards",
          "type": "uint256"
        },
        {
          "internalType": "uint256",
          "name": "_rewardsDue",
          "type": "uint256"
        }
      ],
      "name": "receiveXChainRepatriationRequest",
      "outputs": [],
      "stateMutability": "nonpayable",
      "type": "function"
    },
    {
      "inputs": [
        {
          "internalType": "uint256",
          "name": "_originChainId",
          "type": "uint256"
        },
        {
          "internalType": "bytes",
          "name": "_originAccount",
          "type": "bytes"
        },
        {
          "internalType": "uint256",
          "name": "_pid",
          "type": "uint256"
        },
        {
          "internalType": "uint256",
          "name": "_trancheId",
          "type": "uint256"
        },
        {
          "internalType": "uint256",
          "name": "_maxMarketMovement",
          "type": "uint256"
        }
      ],
      "name": "receiveXChainWithdrawalRequest",
      "outputs": [],
      "stateMutability": "nonpayable",
      "type": "function"
    },
    {
      "inputs": [
        {
          "internalType": "bytes",
          "name": "_contract",
          "type": "bytes"
        }
      ],
      "name": "registerXChainController",
      "outputs": [],
      "stateMutability": "nonpayable",
      "type": "function"
    },
    {
      "inputs": [
        {
          "internalType": "bytes",
          "name": "",
          "type": "bytes"
        }
      ],
      "name": "registeredXChainControllers",
      "outputs": [
        {
          "internalType": "bool",
          "name": "",
          "type": "bool"
        }
      ],
      "stateMutability": "view",
      "type": "function"
    },
    {
      "inputs": [],
      "name": "renounceOwnership",
      "outputs": [],
      "stateMutability": "nonpayable",
      "type": "function"
    },
    {
      "inputs": [
        {
          "internalType": "uint256",
          "name": "_zorroChainId",
          "type": "uint256"
        },
        {
          "internalType": "uint256",
          "name": "_pid",
          "type": "uint256"
        },
        {
          "internalType": "uint256",
          "name": "_valueUSDC",
          "type": "uint256"
        },
        {
          "internalType": "uint256",
          "name": "_weeksCommitted",
          "type": "uint256"
        },
        {
          "internalType": "uint256",
          "name": "_maxMarketMovement",
          "type": "uint256"
        },
        {
          "internalType": "bytes",
          "name": "_destWallet",
          "type": "bytes"
        }
      ],
      "name": "sendXChainDepositRequest",
      "outputs": [],
      "stateMutability": "payable",
      "type": "function"
    },
    {
      "inputs": [
        {
          "internalType": "uint256",
          "name": "_pid",
          "type": "uint256"
        },
        {
          "internalType": "uint256",
          "name": "_buybackAmountUSDC",
          "type": "uint256"
        },
        {
          "internalType": "uint256",
          "name": "_revShareAmountUSDC",
          "type": "uint256"
        },
        {
          "internalType": "uint256",
          "name": "_maxMarketMovement",
          "type": "uint256"
        }
      ],
      "name": "sendXChainDistributeEarningsRequest",
      "outputs": [],
      "stateMutability": "payable",
      "type": "function"
    },
    {
      "inputs": [
        {
          "internalType": "uint256",
          "name": "_destZorroChainId",
          "type": "uint256"
        },
        {
          "internalType": "uint256",
          "name": "_pid",
          "type": "uint256"
        },
        {
          "internalType": "uint256",
          "name": "_trancheId",
          "type": "uint256"
        },
        {
          "internalType": "uint256",
          "name": "_maxMarketMovement",
          "type": "uint256"
        },
        {
          "internalType": "uint256",
          "name": "_gasForDestinationLZReceive",
          "type": "uint256"
        }
      ],
      "name": "sendXChainWithdrawalRequest",
      "outputs": [],
      "stateMutability": "payable",
      "type": "function"
    },
    {
      "inputs": [
        {
          "internalType": "uint256",
          "name": "_pid",
          "type": "uint256"
        },
        {
          "internalType": "uint256",
          "name": "_allocPoint",
          "type": "uint256"
        },
        {
          "internalType": "bool",
          "name": "_withUpdate",
          "type": "bool"
        }
      ],
      "name": "set",
      "outputs": [],
      "stateMutability": "nonpayable",
      "type": "function"
    },
    {
      "inputs": [
        {
          "internalType": "uint256",
          "name": "_baseRewardRateBasisPoints",
          "type": "uint256"
        }
      ],
      "name": "setBaseRewardRateBasisPoints",
      "outputs": [],
      "stateMutability": "nonpayable",
      "type": "function"
    },
    {
      "inputs": [
        {
          "internalType": "uint256",
          "name": "_blocksPerDay",
          "type": "uint256"
        }
      ],
      "name": "setBlocksPerDay",
      "outputs": [],
      "stateMutability": "nonpayable",
      "type": "function"
    },
    {
      "inputs": [
        {
          "internalType": "uint256",
          "name": "_chainId",
          "type": "uint256"
        }
      ],
      "name": "setChainId",
      "outputs": [],
      "stateMutability": "nonpayable",
      "type": "function"
    },
    {
      "inputs": [
        {
          "internalType": "uint256",
          "name": "_chainMultiplier",
          "type": "uint256"
        }
      ],
      "name": "setChainMultiplier",
      "outputs": [],
      "stateMutability": "nonpayable",
      "type": "function"
    },
    {
      "inputs": [
        {
          "internalType": "uint256",
          "name": "_chainId",
          "type": "uint256"
        },
        {
          "internalType": "bytes",
          "name": "_controllerContract",
          "type": "bytes"
        }
      ],
      "name": "setControllerContracts",
      "outputs": [],
      "stateMutability": "nonpayable",
      "type": "function"
    },
    {
      "inputs": [
        {
          "internalType": "uint256",
          "name": "_defaultMaxMarketMovement",
          "type": "uint256"
        }
      ],
      "name": "setDefaultMaxMarketMovement",
      "outputs": [],
      "stateMutability": "nonpayable",
      "type": "function"
    },
    {
      "inputs": [
        {
          "internalType": "address",
          "name": "_defaultStablecoin",
          "type": "address"
        }
      ],
      "name": "setDefaultStablecoin",
      "outputs": [],
      "stateMutability": "nonpayable",
      "type": "function"
    },
    {
      "inputs": [
        {
          "internalType": "address",
          "name": "_homeChainZorroController",
          "type": "address"
        }
      ],
      "name": "setHomeChainZorroController",
      "outputs": [],
      "stateMutability": "nonpayable",
      "type": "function"
    },
    {
      "inputs": [
        {
          "internalType": "bool",
          "name": "_isActive",
          "type": "bool"
        }
      ],
      "name": "setIsTimeMultiplierActive",
      "outputs": [],
      "stateMutability": "nonpayable",
      "type": "function"
    },
    {
      "inputs": [
        {
          "internalType": "address",
          "name": "_priceFeedLPPoolOtherToken",
          "type": "address"
        }
      ],
      "name": "setPriceFeedLPPoolOtherToken",
      "outputs": [],
      "stateMutability": "nonpayable",
      "type": "function"
    },
    {
      "inputs": [
        {
          "internalType": "address",
          "name": "_priceFeedZOR",
          "type": "address"
        }
      ],
      "name": "setPriceFeedZOR",
      "outputs": [],
      "stateMutability": "nonpayable",
      "type": "function"
    },
    {
      "inputs": [
        {
          "internalType": "address",
          "name": "_publicPoolAddress",
          "type": "address"
        }
      ],
      "name": "setPublicPool",
      "outputs": [],
      "stateMutability": "nonpayable",
      "type": "function"
    },
    {
      "inputs": [
        {
          "internalType": "uint256",
          "name": "_blockNumber",
          "type": "uint256"
        }
      ],
      "name": "setStartBlock",
      "outputs": [],
      "stateMutability": "nonpayable",
      "type": "function"
    },
    {
      "inputs": [
        {
          "internalType": "uint256",
          "name": "_targetTVLCaptureBasisPoints",
          "type": "uint256"
        }
      ],
      "name": "setTargetTVLCaptureBasisPoints",
      "outputs": [],
      "stateMutability": "nonpayable",
      "type": "function"
    },
    {
      "inputs": [
        {
          "internalType": "address[]",
          "name": "_path",
          "type": "address[]"
        }
      ],
      "name": "setUSDCToZorroLPPoolOtherTokenPath",
      "outputs": [],
      "stateMutability": "nonpayable",
      "type": "function"
    },
    {
      "inputs": [
        {
          "internalType": "address",
          "name": "_uniV2Router",
          "type": "address"
        }
      ],
      "name": "setUniRouter",
      "outputs": [],
      "stateMutability": "nonpayable",
      "type": "function"
    },
    {
      "inputs": [
        {
          "internalType": "uint256",
          "name": "_value",
          "type": "uint256"
        }
      ],
      "name": "setZORRODailyDistributionFactorBasisPointsMax",
      "outputs": [],
      "stateMutability": "nonpayable",
      "type": "function"
    },
    {
      "inputs": [
        {
          "internalType": "uint256",
          "name": "_value",
          "type": "uint256"
        }
      ],
      "name": "setZORRODailyDistributionFactorBasisPointsMin",
      "outputs": [],
      "stateMutability": "nonpayable",
      "type": "function"
    },
    {
      "inputs": [
        {
          "internalType": "address",
          "name": "_zorroControllerOracle",
          "type": "address"
        }
      ],
      "name": "setZorroControllerOracle",
      "outputs": [],
      "stateMutability": "nonpayable",
      "type": "function"
    },
    {
      "inputs": [
        {
          "internalType": "address",
          "name": "_zorroLPPool",
          "type": "address"
        }
      ],
      "name": "setZorroLPPool",
      "outputs": [],
      "stateMutability": "nonpayable",
      "type": "function"
    },
    {
      "inputs": [
        {
          "internalType": "address",
          "name": "_token",
          "type": "address"
        }
      ],
      "name": "setZorroLPPoolOtherToken",
      "outputs": [],
      "stateMutability": "nonpayable",
      "type": "function"
    },
    {
      "inputs": [
        {
          "internalType": "uint256",
          "name": "_totalChainMultipliers",
          "type": "uint256"
        },
        {
          "internalType": "uint256",
          "name": "_totalMarketTVLUSD",
          "type": "uint256"
        },
        {
          "internalType": "uint256",
          "name": "_targetTVLCaptureBasisPoints",
          "type": "uint256"
        },
        {
          "internalType": "uint256",
          "name": "_ZorroTotalVaultTVLUSD",
          "type": "uint256"
        },
        {
          "internalType": "uint256",
          "name": "_publicPoolZORBalance",
          "type": "uint256"
        }
      ],
      "name": "setZorroPerBlock",
      "outputs": [],
      "stateMutability": "nonpayable",
      "type": "function"
    },
    {
      "inputs": [
        {
          "internalType": "address",
          "name": "_zorroStakingVault",
          "type": "address"
        }
      ],
      "name": "setZorroStakingVault",
      "outputs": [],
      "stateMutability": "nonpayable",
      "type": "function"
    },
    {
      "inputs": [
        {
          "internalType": "uint16",
          "name": "_chainId",
          "type": "uint16"
        },
        {
          "internalType": "bytes",
          "name": "_srcAddress",
          "type": "bytes"
        },
        {
          "internalType": "uint256",
          "name": "_nonce",
          "type": "uint256"
        },
        {
          "internalType": "address",
          "name": "_token",
          "type": "address"
        },
        {
          "internalType": "uint256",
          "name": "amountLD",
          "type": "uint256"
        },
        {
          "internalType": "bytes",
          "name": "payload",
          "type": "bytes"
        }
      ],
      "name": "sgReceive",
      "outputs": [],
      "stateMutability": "nonpayable",
      "type": "function"
    },
    {
      "inputs": [
        {
          "internalType": "uint256",
          "name": "_pid",
          "type": "uint256"
        },
        {
          "internalType": "address",
          "name": "_account",
          "type": "address"
        },
        {
          "internalType": "int256",
          "name": "_trancheId",
          "type": "int256"
        }
      ],
      "name": "stakedWantTokens",
      "outputs": [
        {
          "internalType": "uint256",
          "name": "_stakedWantTokens",
          "type": "uint256"
        }
      ],
      "stateMutability": "view",
      "type": "function"
    },
    {
      "inputs": [
        {
          "internalType": "uint256",
          "name": "",
          "type": "uint256"
        }
      ],
      "name": "stargateDestPoolIds",
      "outputs": [
        {
          "internalType": "uint256",
          "name": "",
          "type": "uint256"
        }
      ],
      "stateMutability": "view",
      "type": "function"
    },
    {
      "inputs": [],
      "name": "stargateRouter",
      "outputs": [
        {
          "internalType": "address",
          "name": "",
          "type": "address"
        }
      ],
      "stateMutability": "view",
      "type": "function"
    },
    {
      "inputs": [],
      "name": "stargateSwapPoolId",
      "outputs": [
        {
          "internalType": "uint256",
          "name": "",
          "type": "uint256"
        }
      ],
      "stateMutability": "view",
      "type": "function"
    },
    {
      "inputs": [],
      "name": "startBlock",
      "outputs": [
        {
          "internalType": "uint256",
          "name": "",
          "type": "uint256"
        }
      ],
      "stateMutability": "view",
      "type": "function"
    },
    {
      "inputs": [],
      "name": "targetTVLCaptureBasisPoints",
      "outputs": [
        {
          "internalType": "uint256",
          "name": "",
          "type": "uint256"
        }
      ],
      "stateMutability": "view",
      "type": "function"
    },
    {
      "inputs": [],
      "name": "totalAllocPoint",
      "outputs": [
        {
          "internalType": "uint256",
          "name": "",
          "type": "uint256"
        }
      ],
      "stateMutability": "view",
      "type": "function"
    },
    {
      "inputs": [
        {
          "internalType": "uint256",
          "name": "",
          "type": "uint256"
        },
        {
          "internalType": "address",
          "name": "",
          "type": "address"
        },
        {
          "internalType": "uint256",
          "name": "",
          "type": "uint256"
        }
      ],
      "name": "trancheInfo",
      "outputs": [
        {
          "internalType": "uint256",
          "name": "contribution",
          "type": "uint256"
        },
        {
          "internalType": "uint256",
          "name": "timeMultiplier",
          "type": "uint256"
        },
        {
          "internalType": "uint256",
          "name": "rewardDebt",
          "type": "uint256"
        },
        {
          "internalType": "uint256",
          "name": "durationCommittedInWeeks",
          "type": "uint256"
        },
        {
          "internalType": "uint256",
          "name": "enteredVaultAt",
          "type": "uint256"
        },
        {
          "internalType": "uint256",
          "name": "exitedVaultAt",
          "type": "uint256"
        }
      ],
      "stateMutability": "view",
      "type": "function"
    },
    {
      "inputs": [
        {
          "internalType": "uint256",
          "name": "_pid",
          "type": "uint256"
        },
        {
          "internalType": "address",
          "name": "_user",
          "type": "address"
        }
      ],
      "name": "trancheLength",
      "outputs": [
        {
          "internalType": "uint256",
          "name": "",
          "type": "uint256"
        }
      ],
      "stateMutability": "view",
      "type": "function"
    },
    {
      "inputs": [
        {
          "internalType": "uint256",
          "name": "_fromPid",
          "type": "uint256"
        },
        {
          "internalType": "uint256",
          "name": "_fromTrancheId",
          "type": "uint256"
        },
        {
          "internalType": "uint256",
          "name": "_toPid",
          "type": "uint256"
        },
        {
          "internalType": "uint256",
          "name": "_maxMarketMovement",
          "type": "uint256"
        }
      ],
      "name": "transferInvestment",
      "outputs": [],
      "stateMutability": "nonpayable",
      "type": "function"
    },
    {
      "inputs": [
        {
          "internalType": "address",
          "name": "newOwner",
          "type": "address"
        }
      ],
      "name": "transferOwnership",
      "outputs": [],
      "stateMutability": "nonpayable",
      "type": "function"
    },
    {
      "inputs": [
        {
          "internalType": "bytes",
          "name": "_contract",
          "type": "bytes"
        }
      ],
      "name": "unRegisterXChainController",
      "outputs": [],
      "stateMutability": "nonpayable",
      "type": "function"
    },
    {
      "inputs": [],
      "name": "uniRouterAddress",
      "outputs": [
        {
          "internalType": "address",
          "name": "",
          "type": "address"
        }
      ],
      "stateMutability": "view",
      "type": "function"
    },
    {
      "inputs": [
        {
          "internalType": "uint256",
          "name": "_pid",
          "type": "uint256"
        }
      ],
      "name": "updatePool",
      "outputs": [
        {
          "internalType": "uint256",
          "name": "",
          "type": "uint256"
        }
      ],
      "stateMutability": "nonpayable",
      "type": "function"
    },
    {
      "inputs": [
        {
          "internalType": "uint256",
          "name": "_pid",
          "type": "uint256"
        },
        {
          "internalType": "uint256",
          "name": "_trancheId",
          "type": "uint256"
        },
        {
          "internalType": "bool",
          "name": "_harvestOnly",
          "type": "bool"
        }
      ],
      "name": "withdraw",
      "outputs": [
        {
          "internalType": "uint256",
          "name": "",
          "type": "uint256"
        }
      ],
      "stateMutability": "nonpayable",
      "type": "function"
    },
    {
      "inputs": [
        {
          "internalType": "uint256",
          "name": "_pid",
          "type": "uint256"
        }
      ],
      "name": "withdrawAll",
      "outputs": [],
      "stateMutability": "nonpayable",
      "type": "function"
    },
    {
      "inputs": [
        {
          "internalType": "uint256",
          "name": "_pid",
          "type": "uint256"
        },
        {
          "internalType": "uint256",
          "name": "_trancheId",
          "type": "uint256"
        },
        {
          "internalType": "bool",
          "name": "_harvestOnly",
          "type": "bool"
        },
        {
          "internalType": "uint256",
          "name": "_maxMarketMovement",
          "type": "uint256"
        }
      ],
      "name": "withdrawalFullService",
      "outputs": [
        {
          "internalType": "uint256",
          "name": "",
          "type": "uint256"
        }
      ],
      "stateMutability": "nonpayable",
      "type": "function"
    },
    {
      "inputs": [],
      "name": "zorroControllerOracle",
      "outputs": [
        {
          "internalType": "address",
          "name": "",
          "type": "address"
        }
      ],
      "stateMutability": "view",
      "type": "function"
    },
    {
      "inputs": [],
      "name": "zorroLPPool",
      "outputs": [
        {
          "internalType": "address",
          "name": "",
          "type": "address"
        }
      ],
      "stateMutability": "view",
      "type": "function"
    },
    {
      "inputs": [],
      "name": "zorroLPPoolOtherToken",
      "outputs": [
        {
          "internalType": "address",
          "name": "",
          "type": "address"
        }
      ],
      "stateMutability": "view",
      "type": "function"
    },
    {
      "inputs": [],
      "name": "zorroStakingVault",
      "outputs": [
        {
          "internalType": "address",
          "name": "",
          "type": "address"
        }
      ],
      "stateMutability": "view",
      "type": "function"
    }
  ],
  "bytecode": "0x60806040526103ca601b553480156200001757600080fd5b506040516200753b3803806200753b8339810160408190526200003a916200058f565b6200006062000051640100000000620002e4810204565b640100000000620002e8810204565b600180805560028054600160a060020a0319908116909155600380548216600160a060020a038b811691909117909155617080600555436004556103e8600655602160075560088390556014600955600a928355600b929092556000600c819055600d805483168a8516179055600e8054909216909155600f85905560105585166200014d576040517f08c379a000000000000000000000000000000000000000000000000000000000815260206004820152601060248201527f63616e6e6f74206265203020616464720000000000000000000000000000000060448201526064015b60405180910390fd5b60118054600160a060020a03808816600160a060020a03199092169190911790915560158054600160a860020a031916918316919091177401000000000000000000000000000000000000000017905583518490600090620001b357620001b362000660565b6020026020010151601660006101000a815481600160a060020a030219169083600160a060020a0316021790555083600181518110620001f757620001f762000660565b602090810291909101015160178054600160a060020a03909216600160a060020a0319928316179055601880549091169055815182906000906200023f576200023f62000660565b6020026020010151601c60006101000a815481600160a060020a030219169083600160a060020a031602179055508160018151811062000283576200028362000660565b602090810291909101810151601d8054600160a060020a03909216600160a060020a0319928316179055815481169091556000602155602380549091169055620002d68864010000000062000338810204565b50505050505050506200068f565b3390565b60008054600160a060020a03838116600160a060020a0319831681178455604051919092169283917f8be0079c531659141344cd1fd0a4f28419497f9722a3daafe3b4186f6b6457e09190a35050565b6200034b640100000000620002e4810204565b600160a060020a03166200036764010000000062000488810204565b600160a060020a031614620003d9576040517f08c379a000000000000000000000000000000000000000000000000000000000815260206004820181905260248201527f4f776e61626c653a2063616c6c6572206973206e6f7420746865206f776e6572604482015260640162000144565b600160a060020a03811662000471576040517f08c379a000000000000000000000000000000000000000000000000000000000815260206004820152602660248201527f4f776e61626c653a206e6577206f776e657220697320746865207a65726f206160448201527f6464726573730000000000000000000000000000000000000000000000000000606482015260840162000144565b6200048581640100000000620002e8810204565b50565b600054600160a060020a031690565b8051600160a060020a0381168114620004af57600080fd5b919050565b7f4e487b7100000000000000000000000000000000000000000000000000000000600052604160045260246000fd5b600082601f830112620004f557600080fd5b815160206001604060020a0380831115620005145762000514620004b4565b818302604051601f19603f830116810181811084821117156200053b576200053b620004b4565b6040529384528581018301938381019250878511156200055a57600080fd5b83870191505b848210156200058457620005748262000497565b8352918301919083019062000560565b979650505050505050565b600080600080600080600080610100898b031215620005ad57600080fd5b620005b88962000497565b9750620005c860208a0162000497565b9650620005d860408a0162000497565b9550620005e860608a0162000497565b945060808901516001604060020a03808211156200060557600080fd5b620006138c838d01620004e3565b955060a08b0151945060c08b01519150808211156200063157600080fd5b50620006408b828c01620004e3565b9250506200065160e08a0162000497565b90509295985092959890939650565b7f4e487b7100000000000000000000000000000000000000000000000000000000600052603260045260246000fd5b616e9c806200069f6000396000f3fe6080604052600436106105405760003560e060020a90048063745af0a8116102c1578063a80bee0711610184578063c9f363c4116100eb578063ebfba7c4116100a4578063ef1269671161007e578063ef12696714611152578063f2fde38b14611168578063f35e4a6e14611188578063fc39a29e146111a857600080fd5b8063ebfba7c4146110f2578063ee4e268714611112578063ef0e2ff41461113257600080fd5b8063c9f363c414611046578063cb9c2f6814611066578063ddd88fec1461107c578063e7d7ce8a1461109c578063e940f6e1146110bc578063ea07667a146110d257600080fd5b8063b61bb80a1161013d578063b61bb80a14610f95578063bdb2fc8b14610fb5578063c293614214610fd5578063c524a05614610feb578063c6d758cb1461100b578063c8ba44b51461102b57600080fd5b8063a80bee0714610ea8578063a9418d6714610ec8578063a9e56f3c14610ee8578063ab8236f314610f08578063b22f325114610f28578063b4b4e9eb14610f4857600080fd5b8063941d3fd0116102285780639a448c0c116101e15780639a448c0c14610e135780639a8a059214610e335780639b8ad2d614610e495780639cebd37114610e5f578063a2df085c14610e75578063a4d2b08314610e8857600080fd5b8063941d3fd014610d4157806394909cc214610d735780639568786c14610d93578063958e2d3114610db3578063959334f414610dd3578063985b0a0d14610df357600080fd5b8063823c43d01161027a578063823c43d014610c83578063871869ca14610ca35780638766eb0814610cc35780638c157db214610ce35780638da5cb5b14610d035780638f426e2c14610d2157600080fd5b8063745af0a814610bc35780637573196814610be357806379777d8114610c035780637bf604d814610c235780637e37c76914610c4357806381ea795d14610c6357600080fd5b806348cd4cb11161040957806361b729dc11610370578063693a090b11610329578063693a090b14610b185780636b8eb2e514610b385780636c78d49c14610b585780636ca8bd6514610b7857806370d5ae0514610b98578063715018a614610bae57600080fd5b806361b729dc14610a42578063630b5ba114610a5d57806364482f7914610a7257806365bc77bc14610a92578063668ababb14610add578063692d8b8b14610afd57600080fd5b80635790f599116103c25780635790f5991461097f578063592dcbd314610995578063593af9fe146109b55780635ef573f9146109e25780635f70edcf14610a025780636179ecd114610a2257600080fd5b806348cd4cb1146108dd5780634cfea68a146108f35780635051d3711461090957806351eb05a61461092957806353f73f87146109495780635527a6f91461096957600080fd5b80633486a32e116104ad5780633b9ce565116104665780633b9ce565146108105780633bbc1ffc146108265780634098b0eb14610846578063459f475314610866578063464e3c8b146108aa5780634780f9f5146108bd57600080fd5b80633486a32e14610767578063353b6c2c146107875780633a629121146107a75780633ad5875c146107c75780633b35b727146107da5780633b710688146107fa57600080fd5b80631526fe27116104ff5780631526fe271461062357806317caf6f11461067f578063219b38b814610695578063293da9d4146106c25780632e31283d146106ef57806333cfcd3b1461074757600080fd5b80621d356714610545578062aeef8a1461056757806307968db114610587578063081e3eda146105c4578063104a6132146105e35780631479a6df14610603575b600080fd5b34801561055157600080fd5b50610565610560366004615d0d565b6111c8565b005b34801561057357600080fd5b50610565610582366004615da7565b611320565b34801561059357600080fd5b506023546105a790600160a060020a031681565b604051600160a060020a0390911681526020015b60405180910390f35b3480156105d057600080fd5b506012545b6040519081526020016105bb565b3480156105ef57600080fd5b506105a76105fe366004615dd3565b6113d4565b34801561060f57600080fd5b5061056561061e366004615dd3565b6113fe565b34801561062f57600080fd5b5061064361063e366004615dd3565b611430565b60408051600160a060020a03978816815260208101969096528501939093526060840191909152608083015290911660a082015260c0016105bb565b34801561068b57600080fd5b506105d5600c5481565b3480156106a157600080fd5b506105d56106b0366004615dd3565b60226020526000908152604090205481565b3480156106ce57600080fd5b506105d56106dd366004615dec565b60266020526000908152604090205481565b3480156106fb57600080fd5b506105a761070a366004615ecf565b60146020908152600093845260408085208451808601840180519281529084019584019590952094529290528252902054600160a060020a031681565b34801561075357600080fd5b506105d5610762366004615f2d565b611483565b34801561077357600080fd5b50610565610782366004615f7b565b61151d565b34801561079357600080fd5b506105656107a2366004615dd3565b61156c565b3480156107b357600080fd5b506105d56107c2366004615f98565b61159e565b6105656107d5366004615f98565b6116a4565b3480156107e657600080fd5b506105656107f5366004615dd3565b611805565b34801561080657600080fd5b506105d5600b5481565b34801561081c57600080fd5b506105d560095481565b34801561083257600080fd5b50610565610841366004615dd3565b611837565b34801561085257600080fd5b50610565610861366004615dd3565b611869565b34801561087257600080fd5b50610897610881366004615dd3565b601f6020526000908152604090205461ffff1681565b60405161ffff90911681526020016105bb565b6105656108b8366004615fd3565b61189b565b3480156108c957600080fd5b506105656108d8366004615fd3565b611b55565b3480156108e957600080fd5b506105d560045481565b3480156108ff57600080fd5b506105d560055481565b34801561091557600080fd5b50610565610924366004615f7b565b611bfe565b34801561093557600080fd5b506105d5610944366004615dd3565b611c4d565b34801561095557600080fd5b506105d5610964366004616005565b611dcc565b34801561097557600080fd5b506105d560085481565b34801561098b57600080fd5b506105d560215481565b3480156109a157600080fd5b506105656109b0366004615f7b565b611df4565b3480156109c157600080fd5b506109d56109d0366004615dd3565b611e43565b6040516105bb919061608d565b3480156109ee57600080fd5b506105656109fd366004615fd3565b611edd565b348015610a0e57600080fd5b50610565610a1d3660046160a0565b611f2e565b348015610a2e57600080fd5b50610565610a3d366004615dd3565b6120ea565b348015610a4e57600080fd5b506105656109fd3660046160f3565b348015610a6957600080fd5b506105d5612123565b348015610a7e57600080fd5b50610565610a8d366004615f2d565b6121d0565b348015610a9e57600080fd5b50610acd610aad366004616155565b805160208183018101805160258252928201919093012091525460ff1681565b60405190151581526020016105bb565b348015610ae957600080fd5b506003546105a790600160a060020a031681565b348015610b0957600080fd5b506105656109fd36600461618a565b348015610b2457600080fd5b506018546105a790600160a060020a031681565b348015610b4457600080fd5b50610565610b53366004615f98565b61228c565b348015610b6457600080fd5b50610565610b73366004616201565b61238b565b348015610b8457600080fd5b50610565610b93366004615f7b565b6123f8565b348015610ba457600080fd5b506105a761dead81565b348015610bba57600080fd5b50610565612447565b348015610bcf57600080fd5b506105d5610bde36600461621e565b612480565b348015610bef57600080fd5b50610565610bfe36600461625d565b6124fa565b348015610c0f57600080fd5b50601d546105a790600160a060020a031681565b348015610c2f57600080fd5b506016546105a790600160a060020a031681565b348015610c4f57600080fd5b50610565610c5e366004615fd3565b612540565b348015610c6f57600080fd5b50610565610c7e366004616155565b6126c1565b348015610c8f57600080fd5b506015546105a790600160a060020a031681565b348015610caf57600080fd5b50610565610cbe366004616155565b612723565b348015610ccf57600080fd5b506105d5610cde3660046162a9565b612762565b348015610cef57600080fd5b506002546105a790600160a060020a031681565b348015610d0f57600080fd5b50600054600160a060020a03166105a7565b348015610d2d57600080fd5b506105d5610d3c3660046162e1565b612a25565b348015610d4d57600080fd5b50601554610acd9074010000000000000000000000000000000000000000900460ff1681565b348015610d7f57600080fd5b50610565610d8e366004615f7b565b612baf565b348015610d9f57600080fd5b506105d5610dae366004615dd3565b612bfe565b348015610dbf57600080fd5b50610565610dce366004615dd3565b612cef565b348015610ddf57600080fd5b50610565610dee366004615f7b565b612d59565b348015610dff57600080fd5b506105d5610e0e3660046162a9565b612da8565b348015610e1f57600080fd5b506105a7610e2e366004615dd3565b612fcd565b348015610e3f57600080fd5b506105d5600f5481565b348015610e5557600080fd5b506105d5601b5481565b348015610e6b57600080fd5b506105d5600a5481565b610565610e83366004616356565b612fdd565b348015610e9457600080fd5b50600e546105a790600160a060020a031681565b348015610eb457600080fd5b506105d5610ec33660046163c2565b6131e5565b348015610ed457600080fd5b50610565610ee3366004615f7b565b6131fa565b348015610ef457600080fd5b506020546105a790600160a060020a031681565b348015610f1457600080fd5b50610565610f233660046163e4565b6132a2565b348015610f3457600080fd5b50601c546105a790600160a060020a031681565b348015610f5457600080fd5b50610f68610f633660046162a9565b613551565b604080519687526020870195909552938501929092526060840152608083015260a082015260c0016105bb565b348015610fa157600080fd5b50600d546105a790600160a060020a031681565b348015610fc157600080fd5b50610565610fd0366004616472565b6135b2565b348015610fe157600080fd5b506105d560065481565b348015610ff757600080fd5b50610565611006366004615f7b565b6135f6565b34801561101757600080fd5b50610565611026366004616523565b613645565b34801561103757600080fd5b506105656109fd36600461654f565b34801561105257600080fd5b506105d56110613660046165bb565b61370d565b34801561107257600080fd5b506105d560075481565b34801561108857600080fd5b50610565611097366004615f7b565b6137f2565b3480156110a857600080fd5b506105d56110b7366004615da7565b613841565b3480156110c857600080fd5b506105d560245481565b3480156110de57600080fd5b506105656110ed366004615dd3565b613961565b3480156110fe57600080fd5b506017546105a790600160a060020a031681565b34801561111e57600080fd5b5061056561112d366004615f7b565b613993565b34801561113e57600080fd5b5061056561114d366004615dd3565b6139e2565b34801561115e57600080fd5b506105d560105481565b34801561117457600080fd5b50610565611183366004615f7b565b613a14565b34801561119457600080fd5b506105656111a3366004615dd3565b613acc565b3480156111b457600080fd5b506011546105a790600160a060020a031681565b61ffff8616600090815260266020526040908190205490516025906111f0908890889061664f565b9081526040519081900360200190205460ff166112575760405160e560020a62461bcd02815260206004820152601760248201527f756e7265636f676e697a656420636f6e74726f6c6c657200000000000000000060448201526064015b60405180910390fd5b6000611263838561665f565b90507f61b729dc00000000000000000000000000000000000000000000000000000000600160e060020a0319821614156112cb576000808080806112a9888a018a6166a8565b95509550955095509550506112c18585858585613afe565b5050505050611316565b60405160e560020a62461bcd02815260206004820152601160248201527f556e7265636f676e697a65642066756e63000000000000000000000000000000604482015260640161124e565b5050505050505050565b600260015414156113465760405160e560020a62461bcd02815260040161124e9061671d565b600260018190555060006012848154811061136357611363616754565b60009182526020909120600690910201805490915061138c90600160a060020a03163085613c2c565b600581015481546113ac91600160a060020a039182169133911686613d58565b6113c9843360405180602001604052806000815250868642613da9565b505060018055505050565b601981815481106113e457600080fd5b600091825260209091200154600160a060020a0316905081565b600054600160a060020a0316331461142b5760405160e560020a62461bcd02815260040161124e9061676d565b600855565b6012818154811061144057600080fd5b6000918252602090912060069091020180546001820154600283015460038401546004850154600590950154600160a060020a0394851696509294919390921686565b6000600260015414156114ab5760405160e560020a62461bcd02815260040161124e9061671d565b600260018190555060006114d185336040518060200160405280600081525087876140bd565b9050611510338260000151601288815481106114ef576114ef616754565b6000918252602090912060069091020154600160a060020a03169190614571565b5160018055949350505050565b600054600160a060020a0316331461154a5760405160e560020a62461bcd02815260040161124e9061676d565b601d8054600160a060020a031916600160a060020a0392909216919091179055565b600054600160a060020a031633146115995760405160e560020a62461bcd02815260040161124e9061676d565b600555565b6000858152601f6020908152604080832054600f5491516c0100000000000000000000000033029381019390935261ffff169183916115f1916034016040516020818303038152906040528989896145bf565b905060006115fe85614640565b6023546040517f40a7bb10000000000000000000000000000000000000000000000000000000008152919250600091600160a060020a03909116906340a7bb109061165590879030908890879089906004016167a2565b6040805180830381865afa158015611671573d6000803e3d6000fd5b505050506040513d601f19601f8201168201806040525081019061169591906167e8565b509a9950505050505050505050565b600260015414156116ca5760405160e560020a62461bcd02815260040161124e9061671d565b6002600155600f546040516c010000000000000000000000003302602082015260009161170b916034016040516020818303038152906040528787876145bf565b6000878152601e60205260408120805492935090916117299061680c565b80601f01602080910402602001604051908101604052809291908181526020018280546117559061680c565b80156117a25780601f10611777576101008083540402835291602001916117a2565b820191906000526020600020905b81548152906001019060200180831161178557829003601f168201915b505050505090506117f86040518060c0016040528089815260200183815260200184815260200133600160a060020a031681526020016000600160a060020a031681526020016117f186614640565b9052614684565b5050600180555050505050565b600054600160a060020a031633146118325760405160e560020a62461bcd02815260040161124e9061676d565b600955565b600054600160a060020a031633146118645760405160e560020a62461bcd02815260040161124e9061676d565b600755565b600054600160a060020a031633146118965760405160e560020a62461bcd02815260040161124e9061676d565b600b55565b600260015414156118c15760405160e560020a62461bcd02815260040161124e9061671d565b600260018190555083601281815481106118dd576118dd616754565b6000918252602090912060069091020160050154600160a060020a031633600160a060020a0316146119545760405160e560020a62461bcd02815260206004820152600e60248201527f6f6e6c7920726567207661756c74000000000000000000000000000000000000604482015260640161124e565b600034116119a75760405160e560020a62461bcd02815260206004820152601160248201527f4e6f2066656573207375626d6974746564000000000000000000000000000000604482015260640161124e565b60006119b38585614739565b600d549091506119cd90600160a060020a03163083613c2c565b600d546119e590600160a060020a0316333084613d58565b600d5460405160e060020a6370a08231028152306004820152600091600160a060020a0316906370a0823190602401602060405180830381865afa158015611a31573d6000803e3d6000fd5b505050506040513d601f19601f82011682018060405250810190611a55919061684a565b90506000611a61614745565b90506000611a73600f5489898561477b565b600f546000908152601e6020526040812080549293509091611a949061680c565b80601f0160208091040260200160405190810160405280929190818152602001828054611ac09061680c565b8015611b0d5780601f10611ae257610100808354040283529160200191611b0d565b820191906000526020600020905b815481529060010190602001808311611af057829003601f168201915b50505050509050611b456040518060a001604052806010548152602001868152602001838152602001848152602001898152506147fc565b5050600180555050505050505050565b60026001541415611b7b5760405160e560020a62461bcd02815260040161124e9061671d565b6002600181905550600060128581548110611b9857611b98616754565b6000918252602090912060056006909202010154600d54600160a060020a039182169250611bc891163086613c2c565b600d54611be090600160a060020a0316338387613d58565b6113c9853360405180602001604052806000815250878742886148af565b600054600160a060020a03163314611c2b5760405160e560020a62461bcd02815260040161124e9061676d565b60158054600160a060020a031916600160a060020a0392909216919091179055565b60008060128381548110611c6357611c63616754565b9060005260206000209060060201905080600201544311611c875750600092915050565b6000611ca08260020154436149c090919063ffffffff16565b905060008111611cb4575060009392505050565b6000611ce5600c54611cdf8560010154611cd9600654876149cc90919063ffffffff16565b906149cc565b906149d8565b601154909150600160a060020a0316301415611d3e57600354600254611d1991600160a060020a0391821691163084613d58565b6003830154611d289082614739565b6003840155505043600290910155506000919050565b6002546040517f40c10f1900000000000000000000000000000000000000000000000000000000815230600482015260248101839052600160a060020a03909116906340c10f1990604401600060405180830381600087803b158015611da357600080fd5b505af1158015611db7573d6000803e3d6000fd5b5092979650505050505050565b505050919050565b6000918252601360209081526040808420600160a060020a0393909316845291905290205490565b600054600160a060020a03163314611e215760405160e560020a62461bcd02815260040161124e9061676d565b601c8054600160a060020a031916600160a060020a0392909216919091179055565b601e6020526000908152604090208054611e5c9061680c565b80601f0160208091040260200160405190810160405280929190818152602001828054611e889061680c565b8015611ed55780601f10611eaa57610100808354040283529160200191611ed5565b820191906000526020600020905b815481529060010190602001808311611eb857829003601f168201915b505050505081565b60405160e560020a62461bcd02815260206004820152601760248201527f696c6c6567616c2064756d6d792066756e632063616c6c000000000000000000604482015260640161124e565b50505050565b600054600160a060020a03163314611f5b5760405160e560020a62461bcd02815260040161124e9061676d565b8115611f6b57611f69612123565b505b60006004544311611f7e57600454611f80565b435b600c54909150611f909086614739565b600c556040805160c081018252600160a060020a039586168152602081019687529081019182526000606082018181526080830182815294871660a08401908152601280546001810182559352925160069092027fbb8a6a4669ba250d26cd7a459eca9d215f8307e33aebe50379bc5a3617ec344481018054938916600160a060020a031994851617905597517fbb8a6a4669ba250d26cd7a459eca9d215f8307e33aebe50379bc5a3617ec344589015592517fbb8a6a4669ba250d26cd7a459eca9d215f8307e33aebe50379bc5a3617ec344688015591517fbb8a6a4669ba250d26cd7a459eca9d215f8307e33aebe50379bc5a3617ec344787015591517fbb8a6a4669ba250d26cd7a459eca9d215f8307e33aebe50379bc5a3617ec344886015590517fbb8a6a4669ba250d26cd7a459eca9d215f8307e33aebe50379bc5a3617ec3449909401805494909316931692909217905550565b600054600160a060020a031633146121175760405160e560020a62461bcd02815260040161124e9061676d565b601b55565b5050505050565b601254600090815b818110156121cb576040517f51eb05a6000000000000000000000000000000000000000000000000000000008152600481018290526121b99030906351eb05a6906024016020604051808303816000875af115801561218e573d6000803e3d6000fd5b505050506040513d601f19601f820116820180604052508101906121b2919061684a565b8490614739565b92506121c48161687c565b905061212b565b505090565b600054600160a060020a031633146121fd5760405160e560020a62461bcd02815260040161124e9061676d565b801561220d5761220b612123565b505b6122508261224a6012868154811061222757612227616754565b906000526020600020906006020160010154600c546149c090919063ffffffff16565b90614739565b600c81905550816012848154811061226a5761226a616754565b906000526020600020906006020160010181905550505050565b505050505050565b601554600160a060020a031633600160a060020a0316146122f25760405160e560020a62461bcd02815260206004820152601160248201527f6f6e6c79205a6f72726f206f7261636c65000000000000000000000000000000604482015260640161124e565b600061231483611cdf612307876127106149d8565b600b54611cd9908a6149cc565b90506009548111156123295750600954612338565b60085481101561233857506008545b600061234a612710611cdf85856149cc565b9050600061236788611cdf84600a546149cc90919063ffffffff16565b905061237e600554826149d890919063ffffffff16565b6006555050505050505050565b600054600160a060020a031633146123b85760405160e560020a62461bcd02815260040161124e9061676d565b60158054911515740100000000000000000000000000000000000000000274ff000000000000000000000000000000000000000019909216919091179055565b600054600160a060020a031633146124255760405160e560020a62461bcd02815260040161124e9061676d565b600e8054600160a060020a031916600160a060020a0392909216919091179055565b600054600160a060020a031633146124745760405160e560020a62461bcd02815260040161124e9061676d565b61247e6000614aea565b565b6000600260015414156124a85760405160e560020a62461bcd02815260040161124e9061671d565b600260018190555060006124cf336040518060200160405280600081525088888888614b3a565b5050600d549192506124ed91600160a060020a031690503383614571565b6001805595945050505050565b600054600160a060020a031633146125275760405160e560020a62461bcd02815260040161124e9061676d565b6000838152601e60205260409020611f28908383615bcb565b600260015414156125665760405160e560020a62461bcd02815260040161124e9061671d565b60026001556000848152601360209081526040808320338452909152812080548590811061259657612596616754565b6000918252602080832060036006909302019190910154878352601382526040808420338552909252908220805491935090869081106125d8576125d8616754565b9060005260206000209060060201600401549050600061260c33604051806020016040528060008152508989600089614b3a565b50505090506060600d60009054906101000a9004600160a060020a03168160008151811061263c5761263c616754565b6020026020010190600160a060020a03169081600160a060020a03168152505061267a8633604051806020016040528060008152508588888b6148af565b604051338152869088908a907f67e7aba7263d8fbeb0cd9a2f4008f060a6a03f46c1d7f9d0550f0b93e96e96f89060200160405180910390a4505060018055505050505050565b600054600160a060020a031633146126ee5760405160e560020a62461bcd02815260040161124e9061676d565b60016025826040516127009190616897565b908152604051908190036020019020805491151560ff1990921691909117905550565b600054600160a060020a031633146127505760405160e560020a62461bcd02815260040161124e9061676d565b60006025826040516127009190616897565b6000806012858154811061277857612778616754565b9060005260206000209060060201905060008160050160009054906101000a9004600160a060020a0316600160a060020a03166344a3955e6040518163ffffffff1660e060020a028152600401602060405180830381865afa1580156127e2573d6000803e3d6000fd5b505050506040513d601f19601f82011682018060405250810190612806919061684a565b905060006012878154811061281d5761281d616754565b600091825260209182902060056006909202010154604080517f42da4eb30000000000000000000000000000000000000000000000000000000081529051600160a060020a03909216926342da4eb3926004808401938290030181865afa15801561288c573d6000803e3d6000fd5b505050506040513d601f19601f820116820180604052508101906128b0919061684a565b9050816128bc57600093505b60008512156129815760006128d18888611dcc565b905060005b8181101561297a576000898152601360209081526040808320600160a060020a038c168452909152812080548390811061291257612912616754565b9060005260206000209060060201905060006129468260010154611cdf620f424085600001546149cc90919063ffffffff16565b905061296561295e87611cdf620f424081868b6149cc565b8990614739565b97505050806129739061687c565b90506128d6565b5050612a1b565b6000878152601360209081526040808320600160a060020a038a16845290915281208054879081106129b5576129b5616754565b90600052602060002090600602019050600081600501541115612a1457600181015481546000916129ed91611cdf90620f42406149cc565b9050612a0c612a0585611cdf620f42408186896149cc565b8790614739565b955050612a19565b600094505b505b5050509392505050565b6040805160608082018352600080835260208301819052928201526000612a508a8a8a8a8a8a614c54565b60008b8152601e6020526040812080549293509091612a6e9061680c565b80601f0160208091040260200160405190810160405280929190818152602001828054612a9a9061680c565b8015612ae75780601f10612abc57610100808354040283529160200191612ae7565b820191906000526020600020905b815481529060010190602001808311612aca57829003601f168201915b505050505090506000602060009054906101000a9004600160a060020a0316600160a060020a0316630a512369601f60008f815260200190815260200160002060009054906101000a900461ffff1660018587896040518663ffffffff1660e060020a028152600401612b5e9594939291906168dc565b6040805180830381865afa158015612b7a573d6000803e3d6000fd5b505050506040513d601f19601f82011682018060405250810190612b9e91906167e8565b509c9b505050505050505050505050565b600054600160a060020a03163314612bdc5760405160e560020a62461bcd02815260040161124e9061676d565b60038054600160a060020a031916600160a060020a0392909216919091179055565b60155460009074010000000000000000000000000000000000000000900460ff1615612cde576040517f677342ce00000000000000000000000000000000000000000000000000000000815260048101839052612cd89064e8d4a5100090611cd990612cd09073__CustomMath____________________________9063677342ce90602401602060405180830381865af4158015612ca0573d6000803e3d6000fd5b505050506040513d601f19601f82011682018060405250810190612cc4919061684a565b611cd96002600a6149d8565b600190614739565b92915050565b5064e8d4a51000919050565b919050565b60026001541415612d155760405160e560020a62461bcd02815260040161124e9061671d565b60026001556000612d268233611dcc565b905060005b81811015612d5057612d3f83826000611483565b50612d498161687c565b9050612d2b565b50506001805550565b600054600160a060020a03163314612d865760405160e560020a62461bcd02815260040161124e9061676d565b60178054600160a060020a031916600160a060020a0392909216919091179055565b60008060128581548110612dbe57612dbe616754565b906000526020600020906006020190506000816003015490508160020154431115612e3a576000612dfc8360020154436149c090919063ffffffff16565b9050600060065490506000612e28600c54611cdf8760010154611cd986886149cc90919063ffffffff16565b9050612e348482614739565b93505050505b6004820154612e4e57600092505050612fc6565b6000841215612f2c576000612e638787611dcc565b905060005b81811015612f25576000888152601360209081526040808320600160a060020a038b1684529091528120805483908110612ea457612ea4616754565b90600052602060002090600602019050600081600501541115612f145760048501548154600091612edc91611cdf90620f42406149cc565b9050612f10612f098360020154612f03620f4240611cdf8a876149cc90919063ffffffff16565b906149c0565b8890614739565b9650505b50612f1e8161687c565b9050612e68565b5050612fc3565b6000868152601360209081526040808320600160a060020a03891684529091528120805486908110612f6057612f60616754565b90600052602060002090600602019050600081600501541115612fbd5760048301548154600091612f9891611cdf90620f42406149cc565b6002830154909150612fb590612f03620f4240611cdf85886149cc565b945050612a1b565b60009350505b50505b9392505050565b601a81815481106113e457600080fd5b600260015414156130035760405160e560020a62461bcd02815260040161124e9061671d565b6002600155346130585760405160e560020a62461bcd02815260206004820152601160248201527f4e6f2066656573207375626d6974746564000000000000000000000000000000604482015260640161124e565b600d5461306f90600160a060020a03163086613c2c565b600d5461308790600160a060020a0316333087613d58565b600d5460405160e060020a6370a08231028152306004820152600091600160a060020a0316906370a0823190602401602060405180830381865afa1580156130d3573d6000803e3d6000fd5b505050506040513d601f19601f820116820180604052508101906130f7919061684a565b90506000613109878387873388614cd8565b6000898152601e60205260408120805492935090916131279061680c565b80601f01602080910402602001604051908101604052809291908181526020018280546131539061680c565b80156131a05780601f10613175576101008083540402835291602001916131a0565b820191906000526020600020905b81548152906001019060200180831161318357829003601f168201915b505050505090506131d66040518060a001604052808b8152602001858152602001838152602001848152602001878152506147fc565b50506001805550505050505050565b6000612fc664e8d4a51000611cdf85856149cc565b600054600160a060020a031633146132275760405160e560020a62461bcd02815260040161124e9061676d565b600160a060020a0381166132805760405160e560020a62461bcd02815260206004820152601060248201527f63616e6e6f742062652030206164647200000000000000000000000000000000604482015260640161124e565b60118054600160a060020a031916600160a060020a0392909216919091179055565b61ffff861660009081526026602052604080822054905160e060020a6370a08231028152306004820152909190600160a060020a038616906370a0823190602401602060405180830381865afa158015613300573d6000803e3d6000fd5b505050506040513d601f19601f82011682018060405250810190613324919061684a565b9050808411156133795760405160e560020a62461bcd02815260206004820152601460248201527f616d6f756e744c4420657863656564732062616c000000000000000000000000604482015260640161124e565b6025876040516133899190616897565b9081526040519081900360200190205460ff166133eb5760405160e560020a62461bcd02815260206004820152601760248201527f756e7265636f676e697a656420636f6e74726f6c6c6572000000000000000000604482015260640161124e565b60006133f684616928565b90507f692d8b8b00000000000000000000000000000000000000000000000000000000600160e060020a03198216141561346b5760008060008060008880602001905181019061344691906169a3565b965096509650965050955050613461858b8642878787614adb565b5050505050613546565b7fc8ba44b500000000000000000000000000000000000000000000000000000000600160e060020a0319821614156134e057600080600080600080898060200190518101906134ba9190616a30565b965096509650965096509650506134d5868686868686614d1b565b505050505050613546565b7f5ef573f900000000000000000000000000000000000000000000000000000000600160e060020a0319821614156112cb576000806000808780602001905181019061352c9190616ab2565b945094509450945050613541848484846149e4565b505050505b505050505050505050565b6013602052826000526040600020602052816000526040600020818154811061357957600080fd5b60009182526020909120600690910201805460018201546002830154600384015460048501546005909501549397509195509350919086565b600054600160a060020a031633146135df5760405160e560020a62461bcd02815260040161124e9061676d565b80516135f290601a906020840190615c4f565b5050565b600054600160a060020a031633146136235760405160e560020a62461bcd02815260040161124e9061676d565b600d8054600160a060020a031916600160a060020a0392909216919091179055565b600054600160a060020a031633146136725760405160e560020a62461bcd02815260040161124e9061676d565b600254600160a060020a03838116911614156136f95760405160e560020a62461bcd02815260206004820152603560248201527f217361666520746f20757365205a6f72726f20746f6b656e20696e2066756e6360448201527f20696e43617365546f6b656e73476574537475636b0000000000000000000000606482015260840161124e565b6135f2600160a060020a0383163383614571565b6040805160608082018352600080835260208301819052928201526000613738888888883389614cd8565b6020805460008d8152601f90925260408083205490517f0a5123690000000000000000000000000000000000000000000000000000000081529394509192600160a060020a0390911691630a512369916137a29161ffff16906001908f9088908a906004016168dc565b6040805180830381865afa1580156137be573d6000803e3d6000fd5b505050506040513d601f19601f820116820180604052508101906137e291906167e8565b509b9a5050505050505050505050565b600054600160a060020a0316331461381f5760405160e560020a62461bcd02815260040161124e9061676d565b60168054600160a060020a031916600160a060020a0392909216919091179055565b604080516060808201835260008083526020830181905292820152600061386c600f5487878761477b565b601154604051600160a060020a039091166c0100000000000000000000000002602082015290915060009060340160408051601f19818403018152828252602080546010546000908152601f909252928120547f0a51236900000000000000000000000000000000000000000000000000000000855291945092600160a060020a0390921691630a512369916139149161ffff90911690600190879089908b906004016168dc565b6040805180830381865afa158015613930573d6000803e3d6000fd5b505050506040513d601f19601f8201168201806040525081019061395491906167e8565b5098975050505050505050565b600054600160a060020a0316331461398e5760405160e560020a62461bcd02815260040161124e9061676d565b600a55565b600054600160a060020a031633146139c05760405160e560020a62461bcd02815260040161124e9061676d565b60188054600160a060020a031916600160a060020a0392909216919091179055565b600054600160a060020a03163314613a0f5760405160e560020a62461bcd02815260040161124e9061676d565b600f55565b600054600160a060020a03163314613a415760405160e560020a62461bcd02815260040161124e9061676d565b600160a060020a038116613ac05760405160e560020a62461bcd02815260206004820152602660248201527f4f776e61626c653a206e6577206f776e657220697320746865207a65726f206160448201527f6464726573730000000000000000000000000000000000000000000000000000606482015260840161124e565b613ac981614aea565b50565b600054600160a060020a03163314613af95760405160e560020a62461bcd02815260040161124e9061676d565b600455565b6000838152601460205260408082209051613b1a908790616897565b908152604080516020928190038301902060008681529252812054600160a060020a0316915080613b4f838888888589614b3a565b50600d5460405160e060020a6370a0823102815230600482015292955090935060009250600160a060020a0316906370a0823190602401602060405180830381865afa158015613ba3573d6000803e3d6000fd5b505050506040513d601f19601f82011682018060405250810190613bc7919061684a565b905060008111613c1c5760405160e560020a62461bcd02815260206004820152601360248201527f4e6f7468696e6720746f20776974686472617700000000000000000000000000604482015260640161124e565b6135468988888b8588888c614e96565b6040517fdd62ed3e000000000000000000000000000000000000000000000000000000008152306004820152600160a060020a038381166024830152600091839186169063dd62ed3e90604401602060405180830381865afa158015613c96573d6000803e3d6000fd5b505050506040513d601f19601f82011682018060405250810190613cba919061684a565b613cc49190616afb565b604051600160a060020a038516602482015260448101829052909150611f289085907f095ea7b300000000000000000000000000000000000000000000000000000000906064015b60408051601f198184030181529190526020810180517bffffffffffffffffffffffffffffffffffffffffffffffffffffffff16600160e060020a031990931692909217909152614f73565b604051600160a060020a0380851660248301528316604482015260648101829052611f289085907f23b872dd0000000000000000000000000000000000000000000000000000000090608401613d0c565b60008060128881548110613dbf57613dbf616754565b9060005260206000209060060201905060008511613e225760405160e560020a62461bcd02815260206004820152601560248201527f5f77616e74416d74206d757374206265203e2030210000000000000000000000604482015260640161124e565b613e2b88611c4d565b915086600160a060020a038116613ed2576000875111613eb65760405160e560020a62461bcd02815260206004820152602c60248201527f4e65697468657220666f726569676e2061636374206e6f72206c6f63616c206160448201527f6363742070726f76696465640000000000000000000000000000000000000000606482015260840161124e565b613ebf87616b13565b6c01000000000000000000000000900490505b600060128a81548110613ee757613ee7616754565b60009182526020909120600690910201600501546040517fba0bb4ab000000000000000000000000000000000000000000000000000000008152600160a060020a038481166004830152602482018a90529091169063ba0bb4ab906044016020604051808303816000875af1158015613f64573d6000803e3d6000fd5b505050506040513d601f19601f82011682018060405250810190613f88919061684a565b600e54600585015491925064e8d4a5100091600160a060020a03908116911614613fb857613fb587612bfe565b90505b6000613fc483836131e5565b6004860154909150613fd69082614739565b60048601819055600090613ff390611cdf8464e8d4a510006149cc565b905060006040518060c0016040528084815260200185815260200161402e64e8d4a51000611cdf868c600301546149cc90919063ffffffff16565b81526020018b81526020018a8152602001600081525090506140528e878e8461505b565b8d8c6040516140619190616897565b604051809103902087600160a060020a03167fc6b1f1535b3bb3bdffa2f97a671ab7bd6f2512deec58103fa47eb40ed95274278e6040516140a491815260200190565b60405180910390a4505050505050509695505050505050565b6140e86040518060800160405280600081526020016000815260200160008152602001600081525090565b600160a060020a038516158015614100575060008451115b8061411d5750600160a060020a0385161580159061411d57508351155b61416c5760405160e560020a62461bcd02815260206004820152601d60248201527f4f6e6c79206f6e65206163636f756e74207479706520616c6c6f776564000000604482015260640161124e565b600061417a8785878961514a565b905060006012888154811061419157614191616754565b9060005260206000209060060201905060008260000151116141f85760405160e560020a62461bcd02815260206004820152601960248201527f7472616e6368652e636f6e747269627574696f6e206973203000000000000000604482015260640161124e565b600081600401541161424f5760405160e560020a62461bcd02815260206004820152601e60248201527f746f74616c5472616e636865436f6e747269627574696f6e7320697320300000604482015260640161124e565b60a0820151156142a45760405160e560020a62461bcd02815260206004820152601460248201527f416c726561647920657869746564207661756c74000000000000000000000000604482015260640161124e565b6142ad88611c4d565b6020840152600481015482516000916142cf91611cdf9064e8d4a510006149cc565b905060006142fb8460400151612f0364e8d4a51000611cdf8760030154876149cc90919063ffffffff16565b905080156143785760008061431086846152eb565b91509150601054600f541415614351578115614330576143308b83615377565b801561434c57600e5461434c90600160a060020a031682615377565b614375565b61436661dead6143618484614739565b615377565b60408701829052606087018190525b50505b856145645760128a8154811061439057614390616754565b600091825260209091206006909102016005015484516040517fe0ccabfa000000000000000000000000000000000000000000000000000000008152600160a060020a038c81166004830152602482019290925291169063e0ccabfa906044016020604051808303816000875af115801561440f573d6000803e3d6000fd5b505050506040513d601f19601f82011682018060405250810190614433919061684a565b5083516004840154614444916149c0565b600484810191909155835460405160e060020a6370a082310281523092810192909252600160a060020a0316906370a0823190602401602060405180830381865afa158015614497573d6000803e3d6000fd5b505050506040513d601f19601f820116820180604052508101906144bb919061684a565b855260008a8152601360209081526040808320600160a060020a038d16845290915290208054429190899081106144f4576144f4616754565b90600052602060002090600602016005018190555089886040516145189190616897565b6040805191829003822088518b8452602084015291600160a060020a038d16917fa7749cd42821d3b82a6814af6d80712b2e43f98ec1b25aee31c8351855de65d9910160405180910390a45b5050505095945050505050565b604051600160a060020a0383166024820152604481018290526145ba9084907fa9059cbb0000000000000000000000000000000000000000000000000000000090606401613d0c565b505050565b6040516060907f61b729dc00000000000000000000000000000000000000000000000000000000906000906146009089908990899089908990602001616b4d565b60405160208183030381529060405290508181604051602001614624929190616b83565b6040516020818303038152906040529250505095945050505050565b604080517e01000000000000000000000000000000000000000000000000000000000000602082015260228082019390935281518082039093018352604201905290565b80516000908152601f6020908152604091829020546023549184015183850151606086015160a087015195517fc580310000000000000000000000000000000000000000000000000000000000815261ffff90941695600160a060020a039095169463c580310094349461470394899491939092829190600401616bb3565b6000604051808303818588803b15801561471c57600080fd5b505af1158015614730573d6000803e3d6000fd5b50505050505050565b6000612fc68284616afb565b60245460405181907f18bd4bd6372d39482d375f68791749755bdb38e8768acbfb6af999cef1adc6e090600090a2600060245590565b6040805160208101869052808201859052606080820185905260808083018590528351808403909101815260a08301909352917f5ef573f900000000000000000000000000000000000000000000000000000000916147e0908390839060c001616b83565b604051602081830303815290604052925050505b949350505050565b61482060405180606001604052806000815260200160008152602001606081525090565b6020805483516000908152601f835260408082205460215487518452602286529190922054938601516080870151600160a060020a0390941694639fbf10fc94349461ffff169392339161487d906103e890611cdf9084906149cc565b898b604001518c606001516040518b63ffffffff1660e060020a02815260040161470399989796959493929190616c1a565b6000601288815481106148c4576148c4616754565b60009182526020822060069190910201600501546040517fe502a88d0000000000000000000000000000000000000000000000000000000081526004810188905260248101859052600160a060020a039091169250829190829063e502a88d906044016020604051808303816000875af1158015614946573d6000803e3d6000fd5b505050506040513d601f19601f8201168201806040525081019061496a919061684a565b90506149a5838260128d8154811061498457614984616754565b6000918252602090912060069091020154600160a060020a03169190613c2c565b6149b38a8a8a848a8a613da9565b5050505050505050505050565b6000612fc68284616c98565b6000612fc68284616caf565b6000612fc68284616cce565b60006149f08484614739565b600d5460405160e060020a6370a08231028152306004820152919250600091600160a060020a03909116906370a0823190602401602060405180830381865afa158015614a41573d6000803e3d6000fd5b505050506040513d601f19601f82011682018060405250810190614a65919061684a565b90506000614a7783611cdf84896149cc565b9050614a8281615410565b6000614a9284611cdf85896149cc565b9050614a9d816158d9565b8082897f4bda9eedb6fd5c584b11e8c64fc79bbe5c7faf6da945a3c7e0de361b6ee5a1bd60405160405180910390a484156113165761131685615a34565b614730878284898989896148af565b60008054600160a060020a03838116600160a060020a0319831681178455604051919092169283917f8be0079c531659141344cd1fd0a4f28419497f9722a3daafe3b4186f6b6457e09190a35050565b600080600080600060128981548110614b5557614b55616754565b60009182526020822060056006909202010154600160a060020a031691508190614b828b8e8e8d8d6140bd565b9050614ba083826000015160128e8154811061498457614984616754565b80516040517f648794a4000000000000000000000000000000000000000000000000000000008152600481019190915260248101899052600160a060020a0383169063648794a4906044016020604051808303816000875af1158015614c0a573d6000803e3d6000fd5b505050506040513d601f19601f82011682018060405250810190614c2e919061684a565b60208201516040830151606090930151919f909e50919c509a5098505050505050505050565b6040516060907fc8ba44b50000000000000000000000000000000000000000000000000000000090600090614c97908a908a908a908a908a908a90602001616cf3565b60405160208183030381529060405290508181604051602001614cbb929190616b83565b604051602081830303815290604052925050509695505050505050565b6040516060907f692d8b8b0000000000000000000000000000000000000000000000000000000090600090614c97908a908a908a908a908a908a90602001616d2d565b8183806020019051810190614d309190616d67565b600160a060020a0316867f6f6e500192a591cd4df1823b5be9f8681a54e919ca055745a13b8715ee3dfb81878a604051614d74929190918252602082015260400190565b60405180910390a46002548351600160a060020a03909116906340c10f1990614da69086016020908101908701616d67565b60405160e060020a63ffffffff8416028152600160a060020a03909116600482015260248101849052604401600060405180830381600087803b158015614dec57600080fd5b505af1158015614e00573d6000803e3d6000fd5b505050506000821115612284576002546003546040517f9dc29fac000000000000000000000000000000000000000000000000000000008152600160a060020a03918216600482015260248101859052911690639dc29fac90604401600060405180830381600087803b158015614e7657600080fd5b505af1158015614e8a573d6000803e3d6000fd5b50505050505050505050565b6000614ea6898989898888614c54565b60008a8152601e6020526040812080549293509091614ec49061680c565b80601f0160208091040260200160405190810160405280929190818152602001828054614ef09061680c565b8015614f3d5780601f10614f1257610100808354040283529160200191614f3d565b820191906000526020600020905b815481529060010190602001808311614f2057829003601f168201915b50505050509050614e8a6040518060a001604052808c8152602001888152602001838152602001848152602001858152506147fc565b6000614fc8826040518060400160405280602081526020017f5361666545524332303a206c6f772d6c6576656c2063616c6c206661696c656481525085600160a060020a0316615ab19092919063ffffffff16565b8051909150156145ba5780806020019051810190614fe69190616d84565b6145ba5760405160e560020a62461bcd02815260206004820152602a60248201527f5361666545524332303a204552433230206f7065726174696f6e20646964206e60448201527f6f74207375636365656400000000000000000000000000000000000000000000606482015260840161124e565b6000848152601360209081526040808320600160a060020a0387168452825280832080546001818101835591855293839020855160069095020193845591840151918301919091558201516002820155606082015160038201556080820151600482015560a0820151600590910155815115611f28578260146000868152602001908152602001600020836040516150f39190616897565b908152602001604051809103902060006151126001612f038989611dcc565b815260200190815260200160002060006101000a815481600160a060020a030219169083600160a060020a0316021790555050505050565b6151836040518060c001604052806000815260200160008152602001600081526020016000815260200160008152602001600081525090565b600160a060020a038216615221576000858152601360209081526040808320600160a060020a038616845290915290208054859081106151c5576151c5616754565b90600052602060002090600602016040518060c0016040529081600082015481526020016001820154815260200160028201548152602001600382015481526020016004820154815260200160058201548152505090506147f4565b600085815260146020526040808220905161523d908690616897565b908152604080516020928190038301902060008881529083528181205489825260138452828220600160a060020a039091168083529352208054919250908690811061528b5761528b616754565b90600052602060002090600602016040518060c00160405290816000820154815260200160018201548152602001600282015481526020016003820154815260200160048201548152602001600582015481525050915050949350505050565b6000806000831161530157506000905080615370565b600061532f42612f0361532462093a8089606001516149cc90919063ffffffff16565b608089015190614739565b9050801561536a5760608501516153579061534d9062093a806149cc565b611cdf86846149cc565b915061536384836149c0565b925061536e565b8392505b505b9250929050565b60025460405160e060020a6370a082310281523060048201528291600091600160a060020a03909116906370a0823190602401602060405180830381865afa1580156153c7573d6000803e3d6000fd5b505050506040513d601f19601f820116820180604052508101906153eb919061684a565b9050808311156153f9578091505b600254611f2890600160a060020a03168584614571565b601854600d5461542d91600160a060020a03918216911683613c2c565b601c546040517f871431bc000000000000000000000000000000000000000000000000000000008152600160a060020a03909116600482015260009073__PriceFeed_____________________________9063871431bc90602401602060405180830381865af41580156154a5573d6000803e3d6000fd5b505050506040513d601f19601f820116820180604052508101906154c9919061684a565b601d546040517f871431bc000000000000000000000000000000000000000000000000000000008152600160a060020a03909116600482015290915060009073__PriceFeed_____________________________9063871431bc90602401602060405180830381865af4158015615544573d6000803e3d6000fd5b505050506040513d601f19601f82011682018060405250810190615568919061684a565b60185490915073__SafeSwapUni___________________________90632b08bab190600160a060020a031661559e8660026149d8565b601b5464e8d4a510009087906019306155b942610258614739565b6040518963ffffffff1660e060020a0281526004016155df989796959493929190616da1565b60006040518083038186803b1580156155f757600080fd5b505af415801561560b573d6000803e3d6000fd5b505060185473__SafeSwapUni___________________________9250632b08bab19150600160a060020a03166156428660026149d8565b601b5464e8d4a51000908690601a3061565d42610258614739565b6040518963ffffffff1660e060020a028152600401615683989796959493929190616da1565b60006040518083038186803b15801561569b57600080fd5b505af41580156156af573d6000803e3d6000fd5b505060025460405160e060020a6370a0823102815230600482015260009350600160a060020a0390911691506370a0823190602401602060405180830381865afa158015615701573d6000803e3d6000fd5b505050506040513d601f19601f82011682018060405250810190615725919061684a565b60175460405160e060020a6370a08231028152306004820152919250600091600160a060020a03909116906370a0823190602401602060405180830381865afa158015615776573d6000803e3d6000fd5b505050506040513d601f19601f8201168201806040525081019061579a919061684a565b6018546002549192506157ba91600160a060020a03908116911684613c2c565b6018546017546157d791600160a060020a03918216911683613c2c565b601854600254601754601b54600160a060020a039384169363e8e3370093811692169086908690615811906103e890611cdf9085906149cc565b61582c6103e8611cdf601b548b6149cc90919063ffffffff16565b61dead61583b42610258614739565b60405163ffffffff8a1660e060020a028152600160a060020a039889166004820152968816602488015260448701959095526064860193909352608485019190915260a484015290921660c482015260e4810191909152610104016060604051808303816000875af11580156158b5573d6000803e3d6000fd5b505050506040513d601f19601f820116820180604052508101906113169190616e38565b601854600d546158f691600160a060020a03918216911683613c2c565b601c546040517f871431bc000000000000000000000000000000000000000000000000000000008152600160a060020a03909116600482015260009073__PriceFeed_____________________________9063871431bc90602401602060405180830381865af415801561596e573d6000803e3d6000fd5b505050506040513d601f19601f82011682018060405250810190615992919061684a565b601854601b54600e5492935073__SafeSwapUni___________________________92632b08bab192600160a060020a0390811692879264e8d4a5100092889291601991166159e242610258614739565b6040518963ffffffff1660e060020a028152600401615a08989796959493929190616da1565b60006040518083038186803b158015615a2057600080fd5b505af4158015612284573d6000803e3d6000fd5b600254600e546040517f40c10f19000000000000000000000000000000000000000000000000000000008152600160a060020a039182166004820152602481018490529116906340c10f1990604401600060405180830381600087803b158015615a9d57600080fd5b505af115801561211c573d6000803e3d6000fd5b60606147f4848460008585600160a060020a0385163b615b165760405160e560020a62461bcd02815260206004820152601d60248201527f416464726573733a2063616c6c20746f206e6f6e2d636f6e7472616374000000604482015260640161124e565b60008086600160a060020a03168587604051615b329190616897565b60006040518083038185875af1925050503d8060008114615b6f576040519150601f19603f3d011682016040523d82523d6000602084013e615b74565b606091505b5091509150615b84828286615b8f565b979650505050505050565b60608315615b9e575081612fc6565b825115615bae5782518084602001fd5b8160405160e560020a62461bcd02815260040161124e919061608d565b828054615bd79061680c565b90600052602060002090601f016020900481019282615bf95760008555615c3f565b82601f10615c125782800160ff19823516178555615c3f565b82800160010185558215615c3f579182015b82811115615c3f578235825591602001919060010190615c24565b50615c4b929150615ca4565b5090565b828054828255906000526020600020908101928215615c3f579160200282015b82811115615c3f5782518254600160a060020a031916600160a060020a03909116178255602090920191600190910190615c6f565b5b80821115615c4b5760008155600101615ca5565b803561ffff81168114612cea57600080fd5b60008083601f840112615cdd57600080fd5b50813567ffffffffffffffff811115615cf557600080fd5b60208301915083602082850101111561537057600080fd5b60008060008060008060808789031215615d2657600080fd5b615d2f87615cb9565b9550602087013567ffffffffffffffff80821115615d4c57600080fd5b615d588a838b01615ccb565b9097509550604089013591508082168214615d7257600080fd5b90935060608801359080821115615d8857600080fd5b50615d9589828a01615ccb565b979a9699509497509295939492505050565b600080600060608486031215615dbc57600080fd5b505081359360208301359350604090920135919050565b600060208284031215615de557600080fd5b5035919050565b600060208284031215615dfe57600080fd5b612fc682615cb9565b60e060020a634e487b7102600052604160045260246000fd5b604051601f8201601f1916810167ffffffffffffffff81118282101715615e4957615e49615e07565b604052919050565b600067ffffffffffffffff821115615e6b57615e6b615e07565b50601f01601f191660200190565b600082601f830112615e8a57600080fd5b8135615e9d615e9882615e51565b615e20565b818152846020838601011115615eb257600080fd5b816020850160208301376000918101602001919091529392505050565b600080600060608486031215615ee457600080fd5b83359250602084013567ffffffffffffffff811115615f0257600080fd5b615f0e86828701615e79565b925050604084013590509250925092565b8015158114613ac957600080fd5b600080600060608486031215615f4257600080fd5b83359250602084013591506040840135615f5b81615f1f565b809150509250925092565b600160a060020a0381168114613ac957600080fd5b600060208284031215615f8d57600080fd5b8135612fc681615f66565b600080600080600060a08688031215615fb057600080fd5b505083359560208501359550604085013594606081013594506080013592509050565b60008060008060808587031215615fe957600080fd5b5050823594602084013594506040840135936060013592509050565b6000806040838503121561601857600080fd5b82359150602083013561602a81615f66565b809150509250929050565b60005b83811015616050578181015183820152602001616038565b83811115611f285750506000910152565b60008151808452616079816020860160208601616035565b601f01601f19169290920160200192915050565b602081526000612fc66020830184616061565b600080600080608085870312156160b657600080fd5b8435935060208501356160c881615f66565b925060408501356160d881615f1f565b915060608501356160e881615f66565b939692955090935050565b600080600080600060a0868803121561610b57600080fd5b85359450602086013567ffffffffffffffff81111561612957600080fd5b61613588828901615e79565b959895975050505060408401359360608101359360809091013592509050565b60006020828403121561616757600080fd5b813567ffffffffffffffff81111561617e57600080fd5b6147f484828501615e79565b60008060008060008060c087890312156161a357600080fd5b86359550602087013594506040870135935060608701359250608087013567ffffffffffffffff8111156161d657600080fd5b6161e289828a01615e79565b92505060a08701356161f381615f66565b809150509295509295509295565b60006020828403121561621357600080fd5b8135612fc681615f1f565b6000806000806080858703121561623457600080fd5b8435935060208501359250604085013561624d81615f1f565b9396929550929360600135925050565b60008060006040848603121561627257600080fd5b83359250602084013567ffffffffffffffff81111561629057600080fd5b61629c86828701615ccb565b9497909650939450505050565b6000806000606084860312156162be57600080fd5b8335925060208401356162d081615f66565b929592945050506040919091013590565b600080600080600080600060e0888a0312156162fc57600080fd5b873596506020880135955060408801359450606088013567ffffffffffffffff81111561632857600080fd5b6163348a828b01615e79565b979a969950949760808101359660a0820135965060c090910135945092505050565b60008060008060008060c0878903121561636f57600080fd5b863595506020870135945060408701359350606087013592506080870135915060a087013567ffffffffffffffff8111156163a957600080fd5b6163b589828a01615e79565b9150509295509295509295565b600080604083850312156163d557600080fd5b50508035926020909101359150565b60008060008060008060c087890312156163fd57600080fd5b61640687615cb9565b9550602087013567ffffffffffffffff8082111561642357600080fd5b61642f8a838b01615e79565b9650604089013595506060890135915061644882615f66565b9093506080880135925060a0880135908082111561646557600080fd5b506163b589828a01615e79565b6000602080838503121561648557600080fd5b823567ffffffffffffffff8082111561649d57600080fd5b818501915085601f8301126164b157600080fd5b8135818111156164c3576164c3615e07565b83810291506164d3848301615e20565b81815291830184019184810190888411156164ed57600080fd5b938501935b83851015616517578435925061650783615f66565b82825293850193908501906164f2565b98975050505050505050565b6000806040838503121561653657600080fd5b823561654181615f66565b946020939093013593505050565b60008060008060008060c0878903121561656857600080fd5b863595506020870135945060408701359350606087013567ffffffffffffffff81111561659457600080fd5b6165a089828a01615e79565b9350506080870135915060a087013590509295509295509295565b600080600080600080600060e0888a0312156165d657600080fd5b87359650602088013567ffffffffffffffff808211156165f557600080fd5b6166018b838c01615e79565b975060408a0135965060608a0135955060808a0135945060a08a0135935060c08a013591508082111561663357600080fd5b506166408a828b01615e79565b91505092959891949750929550565b8183823760009101908152919050565b600160e060020a0319813581811691600485101561668a57808560040360080260020a820283161692505b505092915050565b600160e060020a031981168114613ac957600080fd5b60008060008060008060c087890312156166c157600080fd5b86356166cc81616692565b955060208701359450604087013567ffffffffffffffff8111156166ef57600080fd5b6166fb89828a01615e79565b945050606087013592506080870135915060a087013590509295509295509295565b6020808252601f908201527f5265656e7472616e637947756172643a207265656e7472616e742063616c6c00604082015260600190565b60e060020a634e487b7102600052603260045260246000fd5b6020808252818101527f4f776e61626c653a2063616c6c6572206973206e6f7420746865206f776e6572604082015260600190565b61ffff86168152600160a060020a038516602082015260a0604082015260006167ce60a0830186616061565b841515606084015282810360808401526165178185616061565b600080604083850312156167fb57600080fd5b505080516020909101519092909150565b60028104600182168061682057607f821691505b602082108114156168445760e060020a634e487b7102600052602260045260246000fd5b50919050565b60006020828403121561685c57600080fd5b5051919050565b60e060020a634e487b7102600052601160045260246000fd5b600060001982141561689057616890616863565b5060010190565b600082516168a9818460208701616035565b9190910192915050565b805182526020810151602083015260006040820151606060408501526147f46060850182616061565b61ffff8616815260ff8516602082015260a06040820152600061690260a0830186616061565b82810360608401526169148186616061565b9050828103608084015261651781856168b3565b600081516020830151600160e060020a031980821693506004831015611dc45760049290920360080260020a8202161692915050565b600082601f83011261696f57600080fd5b815161697d615e9882615e51565b81815284602083860101111561699257600080fd5b6147f4826020830160208701616035565b600080600080600080600060e0888a0312156169be57600080fd5b87516169c981616692565b809750506020880151955060408801519450606088015193506080880151925060a088015167ffffffffffffffff811115616a0357600080fd5b616a0f8a828b0161695e565b92505060c0880151616a2081615f66565b8091505092959891949750929550565b600080600080600080600060e0888a031215616a4b57600080fd5b8751616a5681616692565b80975050602088015195506040880151945060608801519350608088015167ffffffffffffffff811115616a8957600080fd5b616a958a828b0161695e565b93505060a0880151915060c0880151905092959891949750929550565b600080600080600060a08688031215616aca57600080fd5b8551616ad581616692565b602087015160408801516060890151608090990151929a91995097965090945092505050565b60008219821115616b0e57616b0e616863565b500190565b805160208201516bffffffffffffffffffffffff198082169291906014831015611dc45760149290920360080260020a8202161692915050565b85815260a060208201526000616b6660a0830187616061565b604083019590955250606081019290925260809091015292915050565b600160e060020a03198316815260008251616ba5816004850160208701616035565b919091016004019392505050565b61ffff8716815260c060208201526000616bd060c0830188616061565b8281036040840152616be28188616061565b600160a060020a0387811660608601528616608085015283810360a08501529050616c0d8185616061565b9998505050505050505050565b600061012061ffff8c1683528a6020840152896040840152600160a060020a03891660608401528760808401528660a08401528060c0840152616c5f818401876168b3565b905082810360e0840152616c738186616061565b9050828103610100840152616c888185616061565b9c9b505050505050505050505050565b600082821015616caa57616caa616863565b500390565b6000816000190483118215151615616cc957616cc9616863565b500290565b600082616cee5760e060020a634e487b7102600052601260045260246000fd5b500490565b86815285602082015284604082015260c060608201526000616d1860c0830186616061565b60808301949094525060a00152949350505050565b868152856020820152846040820152836060820152600160a060020a038316608082015260c060a0820152600061651760c0830184616061565b600060208284031215616d7957600080fd5b8151612fc681615f66565b600060208284031215616d9657600080fd5b8151612fc681615f1f565b6000610100808301600160a060020a03808d16855260208c818701528b60408701528a60608701528960808701528360a08701528293508854808452610120870194508960005281600020935060005b81811015616e0f578454841686529482019460019485019401616df1565b50505050600160a060020a03861660c08501525090508260e08301529998505050505050505050565b600080600060608486031215616e4d57600080fd5b835192506020840151915060408401519050925092509256fea26469706673582212208eff765d0b2591af92bf4fa4b6b61919f2b7c482965b6346c9a0127ba7de262d64736f6c634300080a0033",
  "immutableReferences": {},
  "source": "// SPDX-License-Identifier: MIT\npragma solidity ^0.8.0;\n\n/* Dependencies */\nimport \"./_ZorroControllerBase.sol\";\n\nimport \"./_ZorroControllerPoolMgmt.sol\";\n\nimport \"./_ZorroControllerInvestment.sol\";\n\nimport \"./_ZorroControllerAnalytics.sol\";\n\nimport \"./_ZorroControllerXChainReceiver.sol\";\n\nimport \"./_ZorroControllerXChainDeposit.sol\";\n\nimport \"./_ZorroControllerXChainWithdraw.sol\";\n\nimport \"./_ZorroControllerXChainEarn.sol\";\n\n\n// TODO: General: Complete audit of docstrings and make sure they make sense\n\n/* Main Contract */\n/// @title ZorroController: The main controller of the Zorro yield farming protocol. Used for cash flow operations (deposit/withdrawal), managing vaults, and rewards allocations, among other things.\ncontract ZorroController is\n    ZorroControllerBase,\n    ZorroControllerPoolMgmt,\n    ZorroControllerInvestment,\n    ZorroControllerAnalytics,\n    ZorroControllerXChainReceiver\n{\n    /* Constructor */\n\n    /// @notice Constructor\n    /// @param _timelockOwner address of owner (should be a timelock)\n    /// @param _homeChainZorroController The address of the home chain Zorro controller contract\n    /// @param _zorroLPPoolAddresses An array of: The address of the Zorro LP pool, the counterparty token to the ZOR LP pool\n    /// @param _chainId The ID of the chain that this contract is being deployed on\n    /// @param _priceFeeds Array of Chainlink price feeds: [priceFeedZOR, priceFeedLPPoolOtherToken]\n    /// @param _zorroControllerOracle Address of Zorro Chainlink oracle for controller\n    constructor(\n        address _timelockOwner,\n        address _publicPool,\n        address _stableCoinAddress,\n        address _homeChainZorroController,\n        address[] memory _zorroLPPoolAddresses,\n        uint256 _chainId,\n        address[] memory _priceFeeds,\n        address _zorroControllerOracle\n    ) {\n        // Base\n        // TODO: Implement real numbers these are just dummy values\n        ZORRO = address(0);\n        publicPool = _publicPool;\n        blocksPerDay = 28800;\n        startBlock = block.number;\n        ZORROPerBlock = 1000;\n        targetTVLCaptureBasisPoints = 33;\n        ZORRODailyDistributionFactorBasisPointsMin = 1;\n        ZORRODailyDistributionFactorBasisPointsMax = 20;\n        chainMultiplier = 1;\n        baseRewardRateBasisPoints = 10;\n        totalAllocPoint = 0;\n        defaultStablecoin = _stableCoinAddress;\n        zorroStakingVault = address(0);\n        chainId = _chainId;\n        homeChainId = 0;\n        require(_homeChainZorroController != address(0), \"cannot be 0 addr\");\n        homeChainZorroController = _homeChainZorroController;\n        zorroControllerOracle = _zorroControllerOracle;\n\n        // Investment\n        isTimeMultiplierActive = true;\n        zorroLPPool = _zorroLPPoolAddresses[0];\n        zorroLPPoolOtherToken = _zorroLPPoolAddresses[1];\n        uniRouterAddress = address(0);\n        // TODO\n        // USDCToZorroPath = [?];\n        // USDCToZorroLPPoolOtherTokenPath = [?];\n        priceFeedZOR = AggregatorV3Interface(_priceFeeds[0]);\n        priceFeedLPPoolOtherToken = AggregatorV3Interface(_priceFeeds[1]);\n\n        // XChain\n        stargateRouter = address(0);\n        stargateSwapPoolId = 0;\n        layerZeroEndpoint = address(0);\n\n        // Assign owner as to timelock contract\n        transferOwnership(_timelockOwner);\n    }\n}\n",
  "sourcePath": "/Users/kristophm/Documents/workspace/zorro-protocol/contracts/controllers/ZorroController.sol",
  "compiler": {
    "name": "solc",
    "version": "0.8.10+commit.fc410830.Emscripten.clang"
  },
  "schemaVersion": "3.4.4",
  "updatedAt": "2022-04-05T17:56:54.215Z",
  "devdoc": {
    "kind": "dev",
    "methods": {
      "add(uint256,address,bool,address)": {
        "details": "DO NOT add the same Want token more than once. Rewards will be messed up if you do. (Only if Want tokens are stored here.)",
        "params": {
          "_allocPoint": "The number of allocation points for this pool (aka \"multiplier\")",
          "_vault": "The contract address of the underlying vault",
          "_want": "The address of the want token",
          "_withUpdate": "Mass update all pools if set to true"
        }
      },
      "checkXChainDepositFee(uint256,bytes,uint256,uint256,uint256,uint256,bytes)": {
        "params": {
          "_chainId": "The Zorro Chain ID (not the LayerZero one)",
          "_destWallet": "A valid address on the remote chain that can claim ownership",
          "_dstContract": "The destination contract address on the remote chain",
          "_maxMarketMovement": "Acceptable degree of slippage on any transaction (e.g. 950 = 5%, 990 = 1% etc.)",
          "_pid": "The pool ID on the remote chain",
          "_valueUSDC": "The amount of USDC to deposit",
          "_weeksCommitted": "Number of weeks to commit to a vault"
        },
        "returns": {
          "_0": "uint256 Expected fee to pay for bridging/cross chain execution"
        }
      },
      "checkXChainDistributeEarningsFee(uint256,uint256,uint256)": {
        "params": {
          "_accSlashedRewards": "Accumulated slashed rewards on chain",
          "_amountUSDCBuyback": "Amount of USDC to buy back",
          "_amountUSDCRevShare": "Amount of USDC to rev share with ZOR single staking vault"
        },
        "returns": {
          "_0": "uint256 Quantity of native token as fees"
        }
      },
      "checkXChainRepatriationFee(uint256,uint256,uint256,bytes,uint256,uint256,uint256)": {
        "params": {
          "_burnableZORRewards": "Quantity of ZOR tokens minted for rewards here that need to be burned on the home chain",
          "_gasForDestinationLZReceive": "How much additional gas to provide at destination contract",
          "_originChainId": "Zorro chain ID of chain to which funds are to be repatriated to",
          "_originRecipient": "Recipient of funds on the origin chain",
          "_pid": "Pool ID on current chain",
          "_rewardsDue": "ZOR rewards due to the recipient",
          "_trancheId": "ID of tranche on current chain that funds were withdrawn from"
        },
        "returns": {
          "_0": "uint256 Estimated fee in native tokens"
        }
      },
      "checkXChainWithdrawalFee(uint256,uint256,uint256,uint256,uint256)": {
        "params": {
          "_gasForDestinationLZReceive": "How much additional gas to provide at destination contract",
          "_maxMarketMovement": "Acceptable degree of slippage on any transaction (e.g. 950 = 5%, 990 = 1% etc.)",
          "_pid": "The pool ID on the remote chain",
          "_trancheId": "The tranche ID on the remote chain",
          "_zorroChainId": "The Zorro Chain ID (not the LayerZero one)"
        },
        "returns": {
          "_0": "uint256 Expected fee to pay for bridging/cross chain execution"
        }
      },
      "constructor": {
        "params": {
          "_chainId": "The ID of the chain that this contract is being deployed on",
          "_homeChainZorroController": "The address of the home chain Zorro controller contract",
          "_priceFeeds": "Array of Chainlink price feeds: [priceFeedZOR, priceFeedLPPoolOtherToken]",
          "_timelockOwner": "address of owner (should be a timelock)",
          "_zorroControllerOracle": "Address of Zorro Chainlink oracle for controller",
          "_zorroLPPoolAddresses": "An array of: The address of the Zorro LP pool, the counterparty token to the ZOR LP pool"
        }
      },
      "deposit(uint256,uint256,uint256)": {
        "params": {
          "_pid": "index of pool",
          "_wantAmt": "how much Want token to deposit",
          "_weeksCommitted": "how many weeks the user is committing to on this vault"
        }
      },
      "depositFullService(uint256,uint256,uint256,uint256)": {
        "params": {
          "_maxMarketMovement": "factor to account for max market movement/slippage. The definition varies by Vault, so consult the associated Vault contract for info",
          "_pid": "index of pool to deposit into",
          "_valueUSDC": "value in USDC (in ether units) to deposit",
          "_weeksCommitted": "how many weeks to commit to the Pool (can be 0 or any uint)"
        }
      },
      "getTimeMultiplier(uint256)": {
        "params": {
          "durationInWeeks": "number of weeks committed into Vault"
        },
        "returns": {
          "_0": "multiplier factor, times 1e12"
        }
      },
      "getUserContribution(uint256,uint256)": {
        "params": {
          "_liquidityCommitted": "How many tokens staked (e.g. LP tokens)",
          "_timeMultiplier": "Time multiplier value (from getTimeMultiplier())"
        },
        "returns": {
          "_0": "The relative contribution of the user (unitless)"
        }
      },
      "inCaseTokensGetStuck(address,uint256)": {
        "details": "Does not permit usage for the Zorro token",
        "params": {
          "_amount": "token quantity",
          "_token": "ERC20 token address"
        }
      },
      "massUpdatePools()": {
        "details": "Be careful of gas fees!",
        "returns": {
          "_mintedZOR": "total amount of ZOR rewards minted (useful for cross chain)"
        }
      },
      "owner()": {
        "details": "Returns the address of the current owner."
      },
      "pendingZORRORewards(uint256,address,int256)": {
        "params": {
          "_account": "Wallet address of on chain account",
          "_pid": "Index of pool",
          "_trancheId": "Tranche ID. If -1, will do pending rewards for all active tranches"
        },
        "returns": {
          "_pendingRewards": "Amount of Zorro rewards"
        }
      },
      "poolLength()": {
        "returns": {
          "_0": "Number of pools"
        }
      },
      "receiveXChainDepositRequest(uint256,uint256,uint256,uint256,bytes,address)": {
        "details": "Should never ever be actually called."
      },
      "receiveXChainDistributionRequest(uint256,uint256,uint256,uint256)": {
        "details": "Should never ever be actually called."
      },
      "receiveXChainRepatriationRequest(uint256,uint256,uint256,bytes,uint256,uint256)": {
        "details": "Should never ever be actually called."
      },
      "receiveXChainWithdrawalRequest(uint256,bytes,uint256,uint256,uint256)": {
        "details": "Should never ever be actually called."
      },
      "renounceOwnership()": {
        "details": "Leaves the contract without owner. It will not be possible to call `onlyOwner` functions anymore. Can only be called by the current owner. NOTE: Renouncing ownership will leave the contract without an owner, thereby removing any functionality that is only available to the owner."
      },
      "sendXChainDepositRequest(uint256,uint256,uint256,uint256,uint256,bytes)": {
        "details": "Requires appropriate fee to be paid via msg.value (use checkXChainDepositFee() above)",
        "params": {
          "_destWallet": "A valid address on the remote chain that can claim ownership",
          "_maxMarketMovement": "Acceptable degree of slippage on any transaction (e.g. 950 = 5%, 990 = 1% etc.)",
          "_pid": "The pool ID on the remote chain",
          "_valueUSDC": "The amount of USDC to deposit",
          "_weeksCommitted": "Number of weeks to commit to a vault",
          "_zorroChainId": "The Zorro Chain ID (not the LayerZero one)"
        }
      },
      "sendXChainDistributeEarningsRequest(uint256,uint256,uint256,uint256)": {
        "params": {
          "_buybackAmountUSDC": "Amount in USDC to buy back",
          "_maxMarketMovement": "Acceptable slippage (950 = 5%, 990 = 1% etc.)",
          "_pid": "Pool ID",
          "_revShareAmountUSDC": "Amount in USDC to revshare w/ ZOR single staking vault"
        }
      },
      "sendXChainWithdrawalRequest(uint256,uint256,uint256,uint256,uint256)": {
        "details": "Requires value to be submitted to pay for cross chain transaction. Use checkXChainWithdrawalFee() to estimate fees",
        "params": {
          "_destZorroChainId": "The Zorro chain ID of the remote chain to withdraw from",
          "_gasForDestinationLZReceive": "How much additional gas to provide at destination contract",
          "_maxMarketMovement": "Acceptable degree of slippage on any transaction (e.g. 950 = 5%, 990 = 1% etc.)",
          "_pid": "The pool ID on the remote chain",
          "_trancheId": "The ID of the tranche for the given user and pool"
        }
      },
      "set(uint256,uint256,bool)": {
        "params": {
          "_allocPoint": "The number of allocation points for this pool (aka \"multiplier\")",
          "_pid": "The index of the pool ID",
          "_withUpdate": "Mass update all pools if set to true"
        }
      },
      "setZorroPerBlock(uint256,uint256,uint256,uint256,uint256)": {
        "details": "Values to be provided by Oracle. Perferable to run daily",
        "params": {
          "_ZorroTotalVaultTVLUSD": "USD value of all TVL locked into the Zorro protocol, across all chains",
          "_publicPoolZORBalance": "Number of ZOR tokens remaining in public pool on home chain",
          "_targetTVLCaptureBasisPoints": "% desired capture of total market TVL, measured in basis points",
          "_totalChainMultipliers": "Sum total of all chain multipliers for each chain",
          "_totalMarketTVLUSD": "Total DeFi market TVL across all chains (measured in USD)"
        }
      },
      "sgReceive(uint16,bytes,uint256,address,uint256,bytes)": {
        "details": "Implements IStargateReceiver interface"
      },
      "stakedWantTokens(uint256,address,int256)": {
        "params": {
          "_account": "Wallet address of on chain account",
          "_pid": "Index of pool",
          "_trancheId": "Tranche ID, or -1 to aggregate across all tranches"
        },
        "returns": {
          "_stakedWantTokens": "Amount of staked Want tokens"
        }
      },
      "trancheLength(uint256,address)": {
        "params": {
          "_pid": "Index of pool",
          "_user": "wallet address of user"
        },
        "returns": {
          "_0": "Number of tranches"
        }
      },
      "transferInvestment(uint256,uint256,uint256,uint256)": {
        "params": {
          "_fromPid": "index of pool FROM",
          "_fromTrancheId": "index of tranche FROM",
          "_maxMarketMovement": "factor to account for max market movement/slippage. The definition varies by Vault, so consult the associated Vault contract for info",
          "_toPid": "index of pool TO"
        }
      },
      "transferOwnership(address)": {
        "details": "Transfers ownership of the contract to a new account (`newOwner`). Can only be called by the current owner."
      },
      "updatePool(uint256)": {
        "params": {
          "_pid": "index of pool"
        },
        "returns": {
          "_0": "uint256 Amount of ZOR rewards minted (useful for cross chain)"
        }
      },
      "withdraw(uint256,uint256,bool)": {
        "params": {
          "_harvestOnly": "If true, will only harvest Zorro tokens but not do a withdrawal",
          "_pid": "index of pool",
          "_trancheId": "index of tranche"
        },
        "returns": {
          "_0": "Amount of Want token withdrawn"
        }
      },
      "withdrawAll(uint256)": {
        "params": {
          "_pid": "index of pool"
        }
      },
      "withdrawalFullService(uint256,uint256,bool,uint256)": {
        "params": {
          "_harvestOnly": "If true, will only harvest Zorro tokens but not do a withdrawal",
          "_maxMarketMovement": "factor to account for max market movement/slippage. The definition varies by Vault, so consult the associated Vault contract for info",
          "_pid": "index of pool to deposit into",
          "_trancheId": "index of tranche"
        },
        "returns": {
          "_0": "Amount (in USDC) returned"
        }
      }
    },
    "title": "ZorroController: The main controller of the Zorro yield farming protocol. Used for cash flow operations (deposit/withdrawal), managing vaults, and rewards allocations, among other things.",
    "version": 1
  },
  "userdoc": {
    "kind": "user",
    "methods": {
      "add(uint256,address,bool,address)": {
        "notice": "Adds a new pool. Can only be called by the owner."
      },
      "checkXChainDepositFee(uint256,bytes,uint256,uint256,uint256,uint256,bytes)": {
        "notice": "Checks to see how much a cross chain deposit will cost"
      },
      "checkXChainDistributeEarningsFee(uint256,uint256,uint256)": {
        "notice": "Checks to see how much a cross chain earnings distribution will cost"
      },
      "checkXChainRepatriationFee(uint256,uint256,uint256,bytes,uint256,uint256,uint256)": {
        "notice": "Estimates fees for repatriation operation"
      },
      "checkXChainWithdrawalFee(uint256,uint256,uint256,uint256,uint256)": {
        "notice": "Checks to see how much a cross chain withdrawal will cost"
      },
      "constructor": {
        "notice": "Constructor"
      },
      "deposit(uint256,uint256,uint256)": {
        "notice": "Deposit Want tokens to associated Vault"
      },
      "depositFullService(uint256,uint256,uint256,uint256)": {
        "notice": "Deposits funds in a full service manner (performs autoswaps and obtains Want tokens)"
      },
      "getTimeMultiplier(uint256)": {
        "notice": "Calculate time multiplier based on duration committed"
      },
      "getUserContribution(uint256,uint256)": {
        "notice": "The contribution of the user, meant to be used in rewards allocations"
      },
      "inCaseTokensGetStuck(address,uint256)": {
        "notice": "For owner to recover ERC20 tokens on this contract if stuck"
      },
      "massUpdatePools()": {
        "notice": "Updates reward variables of all pools"
      },
      "pendingZORRORewards(uint256,address,int256)": {
        "notice": "View function to see pending ZORRO on frontend."
      },
      "poolLength()": {
        "notice": "Number of pools in the Zorro protocol"
      },
      "receiveXChainDepositRequest(uint256,uint256,uint256,uint256,bytes,address)": {
        "notice": "Dummy func to allow .selector call above and guarantee typesafety for abi calls."
      },
      "receiveXChainDistributionRequest(uint256,uint256,uint256,uint256)": {
        "notice": "Dummy func to allow .selector call above and guarantee typesafety for abi calls."
      },
      "receiveXChainRepatriationRequest(uint256,uint256,uint256,bytes,uint256,uint256)": {
        "notice": "Dummy func to allow .selector call above and guarantee typesafety for abi calls."
      },
      "receiveXChainWithdrawalRequest(uint256,bytes,uint256,uint256,uint256)": {
        "notice": "Dummy func to allow .selector call above and guarantee typesafety for abi calls."
      },
      "sendXChainDepositRequest(uint256,uint256,uint256,uint256,uint256,bytes)": {
        "notice": "Prepares and sends a cross chain deposit request. Takes care of necessary financial ops (transfer/locking USDC)"
      },
      "sendXChainDistributeEarningsRequest(uint256,uint256,uint256,uint256)": {
        "notice": "Sends a request back to the home chain to distribute earnings"
      },
      "sendXChainWithdrawalRequest(uint256,uint256,uint256,uint256,uint256)": {
        "notice": "Prepares and sends a cross chain withdrwal request."
      },
      "set(uint256,uint256,bool)": {
        "notice": "Update the given pool's ZORRO allocation point. Can only be called by the owner."
      },
      "setZorroPerBlock(uint256,uint256,uint256,uint256,uint256)": {
        "notice": "Set the number of Zorro to emit per block based on current market parameters"
      },
      "sgReceive(uint16,bytes,uint256,address,uint256,bytes)": {
        "notice": "Receives stargate cross-chain calls"
      },
      "stakedWantTokens(uint256,address,int256)": {
        "notice": "View function to see staked Want tokens on frontend."
      },
      "trancheLength(uint256,address)": {
        "notice": "Number of tranches invested by a given user into a given pool"
      },
      "transferInvestment(uint256,uint256,uint256,uint256)": {
        "notice": "Transfer all assets from a tranche in one vault to a new vault (works on-chain only)"
      },
      "updatePool(uint256)": {
        "notice": "Update reward variables of the given pool to be up-to-date."
      },
      "withdraw(uint256,uint256,bool)": {
        "notice": "Fully withdraw Want tokens from underlying Vault."
      },
      "withdrawAll(uint256)": {
        "notice": "Withdraw the maximum number of Want tokens from a pool"
      },
      "withdrawalFullService(uint256,uint256,bool,uint256)": {
        "notice": "Withdraws funds from a pool and converts the Want token into USDC"
      }
    },
    "version": 1
  }
}